{
	"contracts/InquireA.sol": {
		"InquireA": {
			"abi": [
				{
					"inputs": [],
					"stateMutability": "nonpayable",
					"type": "constructor"
				},
				{
					"anonymous": false,
					"inputs": [
						{
							"indexed": false,
							"internalType": "uint256",
							"name": "questionId",
							"type": "uint256"
						},
						{
							"indexed": false,
							"internalType": "uint256",
							"name": "answerId",
							"type": "uint256"
						},
						{
							"indexed": true,
							"internalType": "address",
							"name": "responder",
							"type": "address"
						},
						{
							"indexed": false,
							"internalType": "string",
							"name": "answerText",
							"type": "string"
						}
					],
					"name": "AnswerSubmitted",
					"type": "event"
				},
				{
					"anonymous": false,
					"inputs": [
						{
							"indexed": false,
							"internalType": "uint256",
							"name": "questionId",
							"type": "uint256"
						},
						{
							"indexed": true,
							"internalType": "address",
							"name": "asker",
							"type": "address"
						},
						{
							"indexed": false,
							"internalType": "string",
							"name": "questionText",
							"type": "string"
						},
						{
							"indexed": false,
							"internalType": "uint256",
							"name": "rewardAmount",
							"type": "uint256"
						},
						{
							"indexed": false,
							"internalType": "string",
							"name": "category",
							"type": "string"
						}
					],
					"name": "QuestionAsked",
					"type": "event"
				},
				{
					"anonymous": false,
					"inputs": [
						{
							"indexed": false,
							"internalType": "uint256",
							"name": "questionId",
							"type": "uint256"
						},
						{
							"indexed": false,
							"internalType": "uint256",
							"name": "chosenAnswerId",
							"type": "uint256"
						}
					],
					"name": "QuestionClosed",
					"type": "event"
				},
				{
					"anonymous": false,
					"inputs": [
						{
							"indexed": false,
							"internalType": "uint256",
							"name": "questionId",
							"type": "uint256"
						},
						{
							"indexed": false,
							"internalType": "uint256",
							"name": "answerId",
							"type": "uint256"
						},
						{
							"indexed": true,
							"internalType": "address",
							"name": "voter",
							"type": "address"
						}
					],
					"name": "Voted",
					"type": "event"
				},
				{
					"inputs": [],
					"name": "MONTH",
					"outputs": [
						{
							"internalType": "uint256",
							"name": "",
							"type": "uint256"
						}
					],
					"stateMutability": "view",
					"type": "function"
				},
				{
					"inputs": [],
					"name": "TWO_WEEKS",
					"outputs": [
						{
							"internalType": "uint256",
							"name": "",
							"type": "uint256"
						}
					],
					"stateMutability": "view",
					"type": "function"
				},
				{
					"inputs": [],
					"name": "WEEK",
					"outputs": [
						{
							"internalType": "uint256",
							"name": "",
							"type": "uint256"
						}
					],
					"stateMutability": "view",
					"type": "function"
				},
				{
					"inputs": [
						{
							"internalType": "uint256",
							"name": "",
							"type": "uint256"
						},
						{
							"internalType": "uint256",
							"name": "",
							"type": "uint256"
						}
					],
					"name": "answers",
					"outputs": [
						{
							"internalType": "address",
							"name": "responder",
							"type": "address"
						},
						{
							"internalType": "string",
							"name": "answerText",
							"type": "string"
						},
						{
							"internalType": "uint256",
							"name": "upvotes",
							"type": "uint256"
						},
						{
							"internalType": "uint256",
							"name": "rewardAmount",
							"type": "uint256"
						},
						{
							"internalType": "uint256",
							"name": "createdAt",
							"type": "uint256"
						}
					],
					"stateMutability": "view",
					"type": "function"
				},
				{
					"inputs": [
						{
							"internalType": "string",
							"name": "_questionText",
							"type": "string"
						},
						{
							"internalType": "string",
							"name": "_category",
							"type": "string"
						},
						{
							"internalType": "enum InquireA.DeadlinePeriod",
							"name": "_deadlinePeriod",
							"type": "uint8"
						}
					],
					"name": "askQuestion",
					"outputs": [],
					"stateMutability": "payable",
					"type": "function"
				},
				{
					"inputs": [],
					"name": "balance",
					"outputs": [
						{
							"internalType": "uint256",
							"name": "",
							"type": "uint256"
						}
					],
					"stateMutability": "view",
					"type": "function"
				},
				{
					"inputs": [
						{
							"internalType": "address",
							"name": "",
							"type": "address"
						}
					],
					"name": "balances",
					"outputs": [
						{
							"internalType": "uint256",
							"name": "",
							"type": "uint256"
						}
					],
					"stateMutability": "view",
					"type": "function"
				},
				{
					"inputs": [
						{
							"internalType": "uint256",
							"name": "questionId",
							"type": "uint256"
						},
						{
							"internalType": "uint256",
							"name": "answerId",
							"type": "uint256"
						}
					],
					"name": "closeQuestion",
					"outputs": [],
					"stateMutability": "nonpayable",
					"type": "function"
				},
				{
					"inputs": [
						{
							"internalType": "uint256",
							"name": "questionId",
							"type": "uint256"
						}
					],
					"name": "distributeRewards",
					"outputs": [],
					"stateMutability": "nonpayable",
					"type": "function"
				},
				{
					"inputs": [
						{
							"internalType": "uint256",
							"name": "pageIndex",
							"type": "uint256"
						},
						{
							"internalType": "uint256",
							"name": "pageSize",
							"type": "uint256"
						}
					],
					"name": "getQuestions",
					"outputs": [
						{
							"components": [
								{
									"internalType": "address",
									"name": "asker",
									"type": "address"
								},
								{
									"internalType": "string",
									"name": "questionText",
									"type": "string"
								},
								{
									"internalType": "string",
									"name": "category",
									"type": "string"
								},
								{
									"internalType": "uint256",
									"name": "rewardAmount",
									"type": "uint256"
								},
								{
									"internalType": "uint256",
									"name": "createdAt",
									"type": "uint256"
								},
								{
									"internalType": "uint256",
									"name": "deadline",
									"type": "uint256"
								},
								{
									"internalType": "bool",
									"name": "isClosed",
									"type": "bool"
								},
								{
									"internalType": "uint256",
									"name": "chosenAnswerId",
									"type": "uint256"
								}
							],
							"internalType": "struct InquireA.Question[]",
							"name": "",
							"type": "tuple[]"
						}
					],
					"stateMutability": "view",
					"type": "function"
				},
				{
					"inputs": [
						{
							"internalType": "string",
							"name": "_category",
							"type": "string"
						}
					],
					"name": "getQuestionsByCategory",
					"outputs": [
						{
							"internalType": "uint256[]",
							"name": "",
							"type": "uint256[]"
						}
					],
					"stateMutability": "view",
					"type": "function"
				},
				{
					"inputs": [],
					"name": "owner",
					"outputs": [
						{
							"internalType": "address",
							"name": "",
							"type": "address"
						}
					],
					"stateMutability": "view",
					"type": "function"
				},
				{
					"inputs": [],
					"name": "questionIdCounter",
					"outputs": [
						{
							"internalType": "uint256",
							"name": "",
							"type": "uint256"
						}
					],
					"stateMutability": "view",
					"type": "function"
				},
				{
					"inputs": [
						{
							"internalType": "uint256",
							"name": "",
							"type": "uint256"
						}
					],
					"name": "questions",
					"outputs": [
						{
							"internalType": "address",
							"name": "asker",
							"type": "address"
						},
						{
							"internalType": "string",
							"name": "questionText",
							"type": "string"
						},
						{
							"internalType": "string",
							"name": "category",
							"type": "string"
						},
						{
							"internalType": "uint256",
							"name": "rewardAmount",
							"type": "uint256"
						},
						{
							"internalType": "uint256",
							"name": "createdAt",
							"type": "uint256"
						},
						{
							"internalType": "uint256",
							"name": "deadline",
							"type": "uint256"
						},
						{
							"internalType": "bool",
							"name": "isClosed",
							"type": "bool"
						},
						{
							"internalType": "uint256",
							"name": "chosenAnswerId",
							"type": "uint256"
						}
					],
					"stateMutability": "view",
					"type": "function"
				},
				{
					"inputs": [
						{
							"internalType": "uint256",
							"name": "questionId",
							"type": "uint256"
						},
						{
							"internalType": "string",
							"name": "_answerText",
							"type": "string"
						}
					],
					"name": "submitAnswer",
					"outputs": [],
					"stateMutability": "nonpayable",
					"type": "function"
				},
				{
					"inputs": [],
					"name": "voteFee",
					"outputs": [
						{
							"internalType": "uint256",
							"name": "",
							"type": "uint256"
						}
					],
					"stateMutability": "view",
					"type": "function"
				},
				{
					"inputs": [
						{
							"internalType": "uint256",
							"name": "questionId",
							"type": "uint256"
						},
						{
							"internalType": "uint256",
							"name": "answerId",
							"type": "uint256"
						}
					],
					"name": "voteForAnswer",
					"outputs": [],
					"stateMutability": "payable",
					"type": "function"
				},
				{
					"inputs": [],
					"name": "withdraw",
					"outputs": [],
					"stateMutability": "nonpayable",
					"type": "function"
				}
			],
			"devdoc": {
				"kind": "dev",
				"methods": {},
				"version": 1
			},
			"userdoc": {
				"kind": "user",
				"methods": {},
				"version": 1
			},
			"storageLayout": {
				"storage": [
					{
						"astId": 3,
						"contract": "contracts/InquireA.sol:InquireA",
						"label": "owner",
						"offset": 0,
						"slot": "0",
						"type": "t_address"
					},
					{
						"astId": 6,
						"contract": "contracts/InquireA.sol:InquireA",
						"label": "voteFee",
						"offset": 0,
						"slot": "1",
						"type": "t_uint256"
					},
					{
						"astId": 8,
						"contract": "contracts/InquireA.sol:InquireA",
						"label": "questionIdCounter",
						"offset": 0,
						"slot": "2",
						"type": "t_uint256"
					},
					{
						"astId": 54,
						"contract": "contracts/InquireA.sol:InquireA",
						"label": "questions",
						"offset": 0,
						"slot": "3",
						"type": "t_mapping(t_uint256,t_struct(Question)38_storage)"
					},
					{
						"astId": 61,
						"contract": "contracts/InquireA.sol:InquireA",
						"label": "answers",
						"offset": 0,
						"slot": "4",
						"type": "t_mapping(t_uint256,t_mapping(t_uint256,t_struct(Answer)49_storage))"
					},
					{
						"astId": 65,
						"contract": "contracts/InquireA.sol:InquireA",
						"label": "balances",
						"offset": 0,
						"slot": "5",
						"type": "t_mapping(t_address,t_uint256)"
					}
				],
				"types": {
					"t_address": {
						"encoding": "inplace",
						"label": "address",
						"numberOfBytes": "20"
					},
					"t_bool": {
						"encoding": "inplace",
						"label": "bool",
						"numberOfBytes": "1"
					},
					"t_mapping(t_address,t_uint256)": {
						"encoding": "mapping",
						"key": "t_address",
						"label": "mapping(address => uint256)",
						"numberOfBytes": "32",
						"value": "t_uint256"
					},
					"t_mapping(t_uint256,t_mapping(t_uint256,t_struct(Answer)49_storage))": {
						"encoding": "mapping",
						"key": "t_uint256",
						"label": "mapping(uint256 => mapping(uint256 => struct InquireA.Answer))",
						"numberOfBytes": "32",
						"value": "t_mapping(t_uint256,t_struct(Answer)49_storage)"
					},
					"t_mapping(t_uint256,t_struct(Answer)49_storage)": {
						"encoding": "mapping",
						"key": "t_uint256",
						"label": "mapping(uint256 => struct InquireA.Answer)",
						"numberOfBytes": "32",
						"value": "t_struct(Answer)49_storage"
					},
					"t_mapping(t_uint256,t_struct(Question)38_storage)": {
						"encoding": "mapping",
						"key": "t_uint256",
						"label": "mapping(uint256 => struct InquireA.Question)",
						"numberOfBytes": "32",
						"value": "t_struct(Question)38_storage"
					},
					"t_string_storage": {
						"encoding": "bytes",
						"label": "string",
						"numberOfBytes": "32"
					},
					"t_struct(Answer)49_storage": {
						"encoding": "inplace",
						"label": "struct InquireA.Answer",
						"members": [
							{
								"astId": 40,
								"contract": "contracts/InquireA.sol:InquireA",
								"label": "responder",
								"offset": 0,
								"slot": "0",
								"type": "t_address"
							},
							{
								"astId": 42,
								"contract": "contracts/InquireA.sol:InquireA",
								"label": "answerText",
								"offset": 0,
								"slot": "1",
								"type": "t_string_storage"
							},
							{
								"astId": 44,
								"contract": "contracts/InquireA.sol:InquireA",
								"label": "upvotes",
								"offset": 0,
								"slot": "2",
								"type": "t_uint256"
							},
							{
								"astId": 46,
								"contract": "contracts/InquireA.sol:InquireA",
								"label": "rewardAmount",
								"offset": 0,
								"slot": "3",
								"type": "t_uint256"
							},
							{
								"astId": 48,
								"contract": "contracts/InquireA.sol:InquireA",
								"label": "createdAt",
								"offset": 0,
								"slot": "4",
								"type": "t_uint256"
							}
						],
						"numberOfBytes": "160"
					},
					"t_struct(Question)38_storage": {
						"encoding": "inplace",
						"label": "struct InquireA.Question",
						"members": [
							{
								"astId": 23,
								"contract": "contracts/InquireA.sol:InquireA",
								"label": "asker",
								"offset": 0,
								"slot": "0",
								"type": "t_address"
							},
							{
								"astId": 25,
								"contract": "contracts/InquireA.sol:InquireA",
								"label": "questionText",
								"offset": 0,
								"slot": "1",
								"type": "t_string_storage"
							},
							{
								"astId": 27,
								"contract": "contracts/InquireA.sol:InquireA",
								"label": "category",
								"offset": 0,
								"slot": "2",
								"type": "t_string_storage"
							},
							{
								"astId": 29,
								"contract": "contracts/InquireA.sol:InquireA",
								"label": "rewardAmount",
								"offset": 0,
								"slot": "3",
								"type": "t_uint256"
							},
							{
								"astId": 31,
								"contract": "contracts/InquireA.sol:InquireA",
								"label": "createdAt",
								"offset": 0,
								"slot": "4",
								"type": "t_uint256"
							},
							{
								"astId": 33,
								"contract": "contracts/InquireA.sol:InquireA",
								"label": "deadline",
								"offset": 0,
								"slot": "5",
								"type": "t_uint256"
							},
							{
								"astId": 35,
								"contract": "contracts/InquireA.sol:InquireA",
								"label": "isClosed",
								"offset": 0,
								"slot": "6",
								"type": "t_bool"
							},
							{
								"astId": 37,
								"contract": "contracts/InquireA.sol:InquireA",
								"label": "chosenAnswerId",
								"offset": 0,
								"slot": "7",
								"type": "t_uint256"
							}
						],
						"numberOfBytes": "256"
					},
					"t_uint256": {
						"encoding": "inplace",
						"label": "uint256",
						"numberOfBytes": "32"
					}
				}
			},
			"evm": {
				"assembly": "// RO data = 0/0 bytes\n// RW data = 64/66688 bytes\n// Stack size = 16384 bytes\n\n// Instructions = 27035\n// Code size = 88342 bytes\n\n      : @0 (gas: 4)\n     0: a2 = a0\n     2: a3 = a0 >> 16\n     5: a0 = 0x0\n     7: jump @7 if a3 != 0\n      : @1 (gas: 2)\n    10: a3 = 0x10000\n    15: jump @7 if a3 <u a1\n      : @2 (gas: 4)\n    18: i64 a1 = a1 + a2\n    21: a0 = a1 + 0x1f\n    24: a0 = a0 & 0xffffffe0\n    27: jump @4 if a0 <=u 65536\n      : @3 (gas: 2)\n    33: a0 = 0x0\n    35: ret\n      : @4 (gas: 2)\n    37: a1 = i32 [0x20040]\n    42: jump @6 if a1 >=u a0\n      : @5 (gas: 5)\n    45: u32 [0x20040] = a0\n    50: a1 = a0\n    52: a0 = 0x20060\n    57: i64 a0 = a0 + a1\n    60: ret\n      : @6 (gas: 3)\n    62: a0 = 0x20060\n    67: i64 a0 = a0 + a1\n    70: ret\n      : @7 (gas: 1)\n    72: ret\n      : @8 (gas: 1)\n    74: jump @11 if a2 == 0\n      : @9 (gas: 3)\n    77: i64 a2 = a2 + a0\n    80: a3 = a0\n    82: fallthrough\n      : @10 (gas: 6)\n    83: a4 = u8 [a1]\n    85: i64 a1 = i64 a1 + 0x1\n    88: i64 a5 = i64 a3 + 0x1\n    91: u8 [a3] = a4\n    93: a3 = a5\n    95: jump @10 if a5 != a2\n      : @11 (gas: 1)\n    98: ret\n      : @12 (gas: 1)\n   100: jump @26 if a0 == a1\n      : @13 (gas: 9)\n   103: a3 = a1 <<64 32\n   106: a3 = a3 >>64 32\n   109: a4 = a0 <<64 32\n   112: a4 = a4 >>64 32\n   115: i64 a4 = a4 + a2\n   118: i64 a3 = i64 a3 - i64 a4\n   121: a4 = a2 <<64 1\n   124: a4 = u64 -a4\n   126: jump @19 if a4 >=u a3\n      : @14 (gas: 1)\n   129: jump @23 if a0 >=u a1\n      : @15 (gas: 1)\n   132: jump @26 if a2 == 0\n      : @16 (gas: 3)\n   135: i64 a2 = a2 + a0\n   138: a3 = a0\n   140: fallthrough\n      : @17 (gas: 6)\n   141: a4 = u8 [a1]\n   143: i64 a1 = i64 a1 + 0x1\n   146: i64 a5 = i64 a3 + 0x1\n   149: u8 [a3] = a4\n   151: a3 = a5\n   153: jump @17 if a5 != a2\n      : @18 (gas: 1)\n   156: jump @26\n      : @19 (gas: 1)\n   158: jump @26 if a2 == 0\n      : @20 (gas: 3)\n   161: i64 a2 = a2 + a0\n   164: a3 = a0\n   166: fallthrough\n      : @21 (gas: 6)\n   167: a4 = u8 [a1]\n   169: i64 a1 = i64 a1 + 0x1\n   172: i64 a5 = i64 a3 + 0x1\n   175: u8 [a3] = a4\n   177: a3 = a5\n   179: jump @21 if a5 != a2\n      : @22 (gas: 1)\n   182: jump @26\n      : @23 (gas: 1)\n   184: jump @26 if a2 == 0\n      : @24 (gas: 2)\n   187: a3 = a2 - 1\n   190: fallthrough\n      : @25 (gas: 7)\n   191: i64 a4 = a1 + a3\n   194: a4 = u8 [a4]\n   196: i64 a2 = i64 a2 - i64 1\n   199: i64 a5 = a0 + a3\n   202: u8 [a5] = a4\n   204: a3 = a3 - 1\n   207: jump @25 if a2 != 0\n      : @26 (gas: 1)\n   210: ret\n      : @27 (gas: 10)\n   212: i64 sp = i64 sp - i64 32\n   215: u64 [sp + 24] = ra\n   218: u64 [sp + 16] = s0\n   221: u64 [sp + 8] = s1\n   224: i64 s0 = i64 sp + 0x20\n   227: sp = sp & 0xffffffe0\n   230: s1 = a0 & 0x1\n   233: a0 = 0x0\n   235: a1 = 0x0\n   237: ra = 2, jump @0\n      : @28 [@dyn 1] (gas: 7)\n   242: u64 [0x20050] = a0\n   247: u32 [sp + 0] = 1024\n   251: a0 = 0x30060\n   256: a0 = a0 + 0x0\n   258: a1 = sp + 0x0\n   260: ecalli 7 // 'input'\n   262: fallthrough\n      : @29 (gas: 6)\n   263: a0 = u32 [sp]\n   265: u64 [0x30478] = 0\n   270: u64 [0x30470] = 0\n   275: u64 [0x30468] = 0\n   280: u64 [0x30460] = a0\n   285: jump @31 if s1 == 0\n      : @30 (gas: 1)\n   288: ra = 4, jump @32\n      : @31 [@dyn 2] (gas: 1)\n   292: ra = 6, jump @50\n      : @32 [@dyn 3] (gas: 10)\n   297: i64 sp = i64 sp - i64 256\n   301: u64 [sp + 248] = ra\n   305: u64 [sp + 240] = s0\n   309: u64 [sp + 232] = s1\n   313: i64 s0 = i64 sp + 0x100\n   317: sp = sp & 0xffffffe0\n   320: s1 = sp\n   322: a0 = 0x40\n   325: a1 = 0x20\n   328: ra = 8, jump @0\n      : @33 [@dyn 4] (gas: 1)\n   333: jump @48 if a0 == 0\n      : @34 (gas: 18)\n   337: a1 = 0x20050\n   342: u64 [0x200a0] = 0\n   347: u64 [0x20098] = 0\n   352: u64 [0x20090] = 0\n   357: a0 = 0x8000000000000000\n   367: u64 [s1 + 16] = a1\n   370: u64 [0x200a8] = a0\n   375: i64 a0 = i64 sp - i64 32\n   378: a0 = a0 & 0xffffffe0\n   381: u64 [s1 + 24] = a0\n   384: sp = a0\n   386: u64 [a0 + 24] = 0\n   389: u64 [a0 + 16] = 0\n   392: u64 [a0 + 8] = 0\n   395: u64 [a0 + 0] = 0\n   397: a0 = a0 + 0x0\n   399: ecalli 14 // 'value_transferred'\n   401: fallthrough\n      : @35 (gas: 9)\n   402: a3 = u64 [s1 + 24]\n   405: a0 = u64 [a3 + 16]\n   408: a1 = u64 [a3 + 24]\n   411: a2 = u64 [a3 + 8]\n   414: a3 = u64 [a3]\n   416: a1 = a1 | a2\n   419: a0 = a0 | a3\n   422: a0 = a0 | a1\n   425: jump @46 if a0 != 0\n      : @36 (gas: 93)\n   429: u64 [s1 + 184] = 0\n   433: u64 [s1 + 176] = 0\n   437: u64 [s1 + 168] = 0\n   441: u64 [s1 + 160] = 1\n   446: u64 [s1 + 152] = 0\n   450: u64 [s1 + 144] = 0\n   454: u64 [s1 + 136] = 0\n   458: u64 [s1 + 128] = 0\n   462: u64 [s1 + 48] = 0\n   465: u64 [s1 + 56] = 0\n   468: u64 [s1 + 40] = 0\n   471: u64 [s1 + 32] = 256\n   476: a1 = s1 + 0xa0\n   480: a3 = s1 + 0x80\n   484: a4 = s1 + 0x20\n   487: a2 = 0xffffffff\n   490: a0 = 0x0\n   492: ecalli 5 // 'get_storage'\n   494: u64 [s1 + 216] = 0\n   498: u64 [s1 + 208] = 0\n   502: u64 [s1 + 200] = 0\n   506: u64 [s1 + 192] = 1\n   511: u64 [s1 + 88] = 0\n   514: u64 [s1 + 80] = 0\n   517: u64 [s1 + 72] = 0\n   520: a0 = 0x2386f26fc10000\n   530: u64 [s1 + 64] = a0\n   533: a1 = s1 + 0xc0\n   537: a3 = s1 + 0x40\n   540: a2 = 0xffffffff\n   543: a4 = 0x20\n   546: a0 = 0x0\n   548: ecalli 13 // 'set_storage'\n   550: a0 = s1 + 0x20\n   553: ecalli 3 // 'caller'\n   555: a0 = u64 [s1 + 40]\n   558: a1 = i32 [s1 + 48]\n   561: a2 = u64 [s1 + 32]\n   564: a0 = reverse a0\n   566: a3 = a0 <<64 32\n   569: a1 = reverse a1\n   571: a1 = a1 >>64 32\n   574: a1 = a1 | a3\n   577: u64 [s1 + 24] = a1\n   580: a0 = a0 >>64 32\n   583: a1 = reverse a2\n   585: a2 = a1 <<64 32\n   588: a0 = a0 | a2\n   591: u64 [s1 + 8] = a0\n   594: a1 = a1 >>64 32\n   597: u64 [s1] = a1\n   599: u64 [s1 + 184] = 0\n   603: u64 [s1 + 176] = 0\n   607: u64 [s1 + 168] = 0\n   611: u64 [s1 + 160] = 0\n   615: u64 [s1 + 152] = 0\n   619: u64 [s1 + 144] = 0\n   623: u64 [s1 + 136] = 0\n   627: u64 [s1 + 128] = 0\n   631: u64 [s1 + 112] = 0\n   634: u64 [s1 + 120] = 0\n   637: u64 [s1 + 104] = 0\n   640: u64 [s1 + 96] = 256\n   645: a1 = s1 + 0xa0\n   649: a3 = s1 + 0x80\n   653: a4 = s1 + 0x60\n   656: a2 = 0xffffffff\n   659: a0 = 0x0\n   661: ecalli 5 // 'get_storage'\n   663: a0 = u32 [s1 + 148]\n   667: a0 = a0 <<64 32\n   670: a1 = u64 [s1 + 152]\n   674: a2 = u64 [s1]\n   676: a0 = a0 | a2\n   679: u64 [s1 + 216] = 0\n   683: u64 [s1 + 208] = 0\n   687: u64 [s1 + 200] = 0\n   691: u64 [s1 + 192] = 0\n   695: a2 = u64 [s1 + 8]\n   698: u64 [s1 + 72] = a2\n   701: a2 = u64 [s1 + 24]\n   704: u64 [s1 + 64] = a2\n   707: u64 [s1 + 88] = a1\n   710: u64 [s1 + 80] = a0\n   713: a1 = s1 + 0xc0\n   717: a3 = s1 + 0x40\n   720: a2 = 0xffffffff\n   723: a4 = 0x20\n   726: a0 = 0x0\n   728: ecalli 13 // 'set_storage'\n   730: a0 = 0x40\n   733: a1 = 0x20\n   736: ra = 10, jump @0\n      : @37 [@dyn 5] (gas: 1)\n   741: jump @48 if a0 == 0\n      : @38 (gas: 17)\n   744: a3 = u64 [s1 + 16]\n   747: a0 = u64 [a3 + 72]\n   750: a1 = u64 [a3 + 88]\n   753: a2 = u64 [a3 + 64]\n   756: a3 = u64 [a3 + 80]\n   759: a4 = reverse a0\n   761: a0 = reverse a1\n   763: a1 = reverse a2\n   765: a2 = reverse a3\n   767: a1 = a1 | a2\n   770: a2 = a0 | a4\n   773: a2 = a2 | a1\n   776: a2 = a2 >>64 32\n   779: a1 = a1 | a4\n   782: a1 = a1 <<64 32\n   785: a1 = a1 | a2\n   788: jump @48 if a1 != 0\n      : @39 (gas: 3)\n   791: a0 = a0 + 0x0\n   793: u64 [s1 + 24] = a0\n   796: ra = 12, jump @0\n      : @40 [@dyn 6] (gas: 1)\n   801: jump @48 if a0 == 0\n      : @41 (gas: 2)\n   804: a1 = i32 [0x20058]\n   809: jump @43 if a1 == 0\n      : @42 (gas: 4)\n   812: a0 = 0x30480\n   817: a0 = a0 + 0x0\n   819: ecalli 12 // 'set_immutable_data'\n   821: fallthrough\n      : @43 (gas: 3)\n   822: a0 = u64 [s1 + 24]\n   825: a1 = 0x0\n   827: ra = 14, jump @0\n      : @44 [@dyn 7] (gas: 1)\n   832: jump @48 if a0 == 0\n      : @45 (gas: 7)\n   835: a0 = u64 [s1 + 16]\n   838: a1 = u64 [s1 + 24]\n   841: a1 = a1 + a0\n   844: a0 = 0x0\n   846: a2 = 0x0\n   848: ecalli 11 // 'seal_return'\n   850: fallthrough\n      : @46 (gas: 3)\n   851: a0 = 0x0\n   853: a1 = 0x0\n   855: ra = 16, jump @0\n      : @47 [@dyn 8] (gas: 1)\n   860: jump @49 if a0 != 0\n      : @48 (gas: 1)\n   863: trap\n      : @49 (gas: 6)\n   864: a1 = i32 [s1 + 16]\n   867: a0 = 0x1\n   870: a2 = 0x0\n   872: ra = 0x12\n   875: ecalli 11 // 'seal_return'\n   877: fallthrough\n      : @50 [@dyn 9] (gas: 5)\n   878: i64 sp = i64 sp - i64 8\n   881: u64 [sp] = ra\n   883: a0 = 0x40\n   886: a1 = 0x20\n   889: ra = 20, jump @0\n      : @51 [@dyn 10] (gas: 1)\n   894: jump @53 if a0 != 0\n      : @52 (gas: 1)\n   897: trap\n      : @53 (gas: 19)\n   898: u64 [0x200a0] = 0\n   903: u64 [0x20098] = 0\n   908: u64 [0x20090] = 0\n   913: a2 = u64 [0x30468]\n   918: a3 = u64 [0x30460]\n   923: a4 = u64 [0x30470]\n   928: a1 = u64 [0x30478]\n   933: a5 = a2 >u 0x0\n   935: a3 = a3 <u 0x4\n   938: a3 = a3 ^ 0x1\n   941: a3 = a5 if a2 != 0\n   944: a2 = a1 >u 0x0\n   946: a5 = a4 >u 0x0\n   948: a5 = a2 if a1 != 0\n   951: a2 = 0x8000000000000000\n   961: a1 = a1 | a4\n   964: a3 = a5 if a1 != 0\n   967: u64 [0x200a8] = a2\n   972: jump @87 if a3 == 0\n      : @54 (gas: 4)\n   976: a0 = u64 [0x30060]\n   981: a0 = reverse a0\n   983: a0 = a0 >>a64 32\n   986: jump @61 if a0 >s 604066203\n      : @55 (gas: 1)\n   993: jump @67 if a0 <=s 3660270621\n      : @56 (gas: 1)\n  1000: jump @81 if a0 <=s 4246597684\n      : @57 (gas: 1)\n  1008: jump @94 if a0 == 4246597685\n      : @58 (gas: 1)\n  1016: jump @92 if a0 == 28613959\n      : @59 (gas: 1)\n  1024: jump @87 if a0 != 33176556\n      : @60 (gas: 1)\n  1032: ra = 22, jump @165\n      : @61 [@dyn 11] (gas: 1)\n  1037: jump @71 if a0 <=s 1020253706\n      : @62 (gas: 1)\n  1044: jump @84 if a0 <=s 1439596595\n      : @63 (gas: 1)\n  1052: jump @95 if a0 == 1439596596\n      : @64 (gas: 1)\n  1060: jump @93 if a0 == 1503088184\n      : @65 (gas: 1)\n  1068: jump @87 if a0 != 1642563095\n      : @66 (gas: 1)\n  1076: ra = 24, jump @564\n      : @67 [@dyn 12] (gas: 2)\n  1081: a1 = 0xb69f0000\n  1087: jump @75 if a0 >s 3063871655\n      : @68 (gas: 1)\n  1094: jump @88 if a0 == 2376452955\n      : @69 (gas: 1)\n  1102: jump @87 if a0 != 2471305124\n      : @70 (gas: 1)\n  1109: ra = 26, jump @600\n      : @71 [@dyn 13] (gas: 2)\n  1114: a1 = 0x27e23000\n  1120: jump @78 if a0 >s 669136354\n      : @72 (gas: 1)\n  1127: jump @89 if a0 == 604066204\n      : @73 (gas: 1)\n  1134: jump @87 if a0 != 646993534\n      : @74 (gas: 1)\n  1141: ra = 28, jump @255\n      : @75 [@dyn 14] (gas: 2)\n  1146: a1 = a1 - 1880\n  1150: jump @90 if a0 == a1\n      : @76 (gas: 1)\n  1154: jump @87 if a0 != 3583613532\n      : @77 (gas: 1)\n  1161: ra = 30, jump @636\n      : @78 [@dyn 15] (gas: 2)\n  1166: a1 = a1 + 0x5e3\n  1170: jump @91 if a0 == a1\n      : @79 (gas: 1)\n  1173: jump @87 if a0 != 833730936\n      : @80 (gas: 1)\n  1180: ra = 32, jump @301\n      : @81 [@dyn 16] (gas: 1)\n  1185: jump @96 if a0 == 3660270622\n      : @82 (gas: 1)\n  1193: jump @87 if a0 != 4097154277\n      : @83 (gas: 1)\n  1200: ra = 34, jump @672\n      : @84 [@dyn 17] (gas: 1)\n  1205: jump @97 if a0 == 1020253707\n      : @85 (gas: 1)\n  1213: jump @87 if a0 != 1221149583\n      : @86 (gas: 1)\n  1220: ra = 36, jump @402\n      : @87 [@dyn 18] (gas: 1)\n  1225: ra = 38, jump @943\n      : @88 [@dyn 19] (gas: 1)\n  1231: ra = 40, jump @582\n      : @89 [@dyn 20] (gas: 14)\n  1236: ra = 0x2a\n  1239: i64 sp = i64 sp - i64 512\n  1243: u64 [sp + 504] = ra\n  1247: u64 [sp + 496] = s0\n  1251: u64 [sp + 488] = s1\n  1255: i64 s0 = i64 sp + 0x200\n  1259: sp = sp & 0xffffffe0\n  1262: u64 [sp + 376] = 0\n  1266: u64 [sp + 368] = 0\n  1270: u64 [sp + 360] = 0\n  1274: u64 [sp + 352] = 0\n  1278: a0 = sp + 0x160\n  1282: ecalli 14 // 'value_transferred'\n  1284: jump @218\n      : @90 [@dyn 21] (gas: 1)\n  1287: ra = 44, jump @618\n      : @91 [@dyn 22] (gas: 14)\n  1292: ra = 0x2e\n  1295: i64 sp = i64 sp - i64 256\n  1299: u64 [sp + 248] = ra\n  1303: u64 [sp + 240] = s0\n  1307: u64 [sp + 232] = s1\n  1311: i64 s0 = i64 sp + 0x100\n  1315: sp = sp & 0xffffffe0\n  1318: u64 [sp + 120] = 0\n  1321: u64 [sp + 112] = 0\n  1324: u64 [sp + 104] = 0\n  1327: u64 [sp + 96] = 0\n  1330: a0 = sp + 0x60\n  1333: ecalli 14 // 'value_transferred'\n  1335: jump @279\n      : @92 [@dyn 23] (gas: 1)\n  1338: ra = 48, jump @98\n      : @93 [@dyn 24] (gas: 1)\n  1342: ra = 50, jump @470\n      : @94 [@dyn 25] (gas: 1)\n  1347: ra = 52, jump @690\n      : @95 [@dyn 26] (gas: 1)\n  1352: ra = 54, jump @428\n      : @96 [@dyn 27] (gas: 1)\n  1357: ra = 56, jump @654\n      : @97 [@dyn 28] (gas: 1)\n  1362: ra = 58, jump @352\n      : @98 [@dyn 29] (gas: 13)\n  1367: i64 sp = i64 sp - i64 320\n  1371: u64 [sp + 312] = ra\n  1375: u64 [sp + 304] = s0\n  1379: u64 [sp + 296] = s1\n  1383: i64 s0 = i64 sp + 0x140\n  1387: sp = sp & 0xffffffe0\n  1390: u64 [sp + 184] = 0\n  1394: u64 [sp + 176] = 0\n  1398: u64 [sp + 168] = 0\n  1402: u64 [sp + 160] = 0\n  1406: a0 = sp + 0xa0\n  1410: ecalli 14 // 'value_transferred'\n  1412: fallthrough\n      : @99 (gas: 8)\n  1413: a0 = u64 [sp + 176]\n  1417: a1 = u64 [sp + 184]\n  1421: a2 = u64 [sp + 168]\n  1425: a3 = u64 [sp + 160]\n  1429: a1 = a1 | a2\n  1432: a0 = a0 | a3\n  1435: a0 = a0 | a1\n  1438: jump @104 if a0 != 0\n      : @100 (gas: 27)\n  1441: a1 = u64 [0x30460]\n  1446: a2 = u64 [0x30478]\n  1451: a3 = u64 [0x30468]\n  1456: a0 = u64 [0x30470]\n  1461: i64 a4 = i64 a1 - i64 4\n  1464: a1 = a4 <u a1\n  1467: i64 a5 = a3 + a1\n  1470: i64 a5 = i64 a5 - i64 1\n  1473: s1 = a5 ^ a3\n  1476: a3 = a5 <u a3\n  1479: a3 = a1 if s1 == 0\n  1482: i64 a1 = i64 a0 - i64 1\n  1485: i64 a3 = a3 + a1\n  1488: a1 = a3 <u a1\n  1491: a0 = a0 <u 0x1\n  1494: i64 a2 = i64 a2 - i64 a0\n  1497: i64 a1 = a1 + a2\n  1500: a0 = a1 >s 0\n  1502: a2 = a3 >u 0x0\n  1504: a2 = a0 if a1 != 0\n  1507: a1 = a1 | a3\n  1510: a0 = a5 >u 0x0\n  1512: a3 = a4 <u 0x40\n  1515: a3 = a3 ^ 0x1\n  1518: a3 = a0 if a5 != 0\n  1521: a3 = a2 if a1 != 0\n  1524: jump @107 if a3 != 0\n      : @101 (gas: 3)\n  1527: a0 = 0x0\n  1529: a1 = 0x0\n  1531: ra = 60, jump @0\n      : @102 [@dyn 30] (gas: 1)\n  1536: jump @106 if a0 == 0\n      : @103 (gas: 6)\n  1539: a1 = 0x20050\n  1544: a1 = a1 + 0x0\n  1546: a0 = 0x1\n  1549: a2 = 0x0\n  1551: ecalli 11 // 'seal_return'\n  1553: fallthrough\n      : @104 (gas: 3)\n  1554: a0 = 0x0\n  1556: a1 = 0x0\n  1558: ra = 62, jump @0\n      : @105 [@dyn 31] (gas: 1)\n  1563: jump @118 if a0 != 0\n      : @106 (gas: 1)\n  1567: trap\n      : @107 (gas: 32)\n  1568: a1 = u64 [0x3007c]\n  1573: a2 = u64 [0x30074]\n  1578: a3 = u64 [0x3006c]\n  1583: a4 = u64 [0x30064]\n  1588: a5 = reverse a1\n  1590: t2 = reverse a2\n  1592: u64 [sp + 72] = t2\n  1595: s1 = reverse a3\n  1597: u64 [sp + 80] = s1\n  1600: a4 = reverse a4\n  1602: u64 [sp + 88] = a4\n  1605: a1 = u64 [0x3009c]\n  1610: a2 = u64 [0x30094]\n  1615: a3 = u64 [0x3008c]\n  1620: a0 = u64 [0x30084]\n  1625: a1 = reverse a1\n  1627: u64 [sp + 64] = a1\n  1630: a1 = reverse a2\n  1632: u64 [sp + 56] = a1\n  1635: a1 = reverse a3\n  1637: u64 [sp + 48] = a1\n  1640: a0 = reverse a0\n  1642: u64 [sp + 40] = a0\n  1645: u64 [sp + 8] = a4\n  1648: i64 a0 = i64 sp + 0x80\n  1652: a1 = 0x3\n  1655: u64 [sp] = s1\n  1657: a2 = 0x0\n  1659: a3 = 0x0\n  1661: a4 = 0x0\n  1663: s1 = a5\n  1665: ra = 64, jump @191\n      : @108 [@dyn 32] (gas: 31)\n  1670: a0 = u64 [sp + 152]\n  1674: a1 = u64 [sp + 144]\n  1678: a2 = u64 [sp + 136]\n  1682: a3 = u64 [sp + 128]\n  1686: u64 [sp + 280] = a0\n  1690: u64 [sp + 272] = a1\n  1694: u64 [sp + 264] = a2\n  1698: u64 [sp + 256] = a3\n  1702: u64 [sp + 248] = 0\n  1706: u64 [sp + 240] = 0\n  1710: u64 [sp + 232] = 0\n  1714: u64 [sp + 224] = 0\n  1718: u64 [sp + 208] = 0\n  1722: u64 [sp + 216] = 0\n  1726: u64 [sp + 200] = 0\n  1730: u64 [sp + 192] = 256\n  1736: a1 = sp + 0x100\n  1740: a3 = sp + 0xe0\n  1744: a4 = sp + 0xc0\n  1748: a2 = 0xffffffff\n  1751: a0 = 0x0\n  1753: ecalli 5 // 'get_storage'\n  1755: a0 = u64 [sp + 224]\n  1759: a1 = u32 [sp + 240]\n  1763: a2 = u64 [sp + 232]\n  1767: a0 = a0 | a1\n  1770: a0 = a0 | a2\n  1773: a0 = a0 >u 0x0\n  1775: a2 = 0x0\n  1777: a3 = 0x0\n  1779: ra = 66, jump @958\n      : @109 [@dyn 33] (gas: 12)\n  1785: a0 = u64 [sp + 88]\n  1788: u64 [sp + 8] = a0\n  1791: i64 a0 = i64 sp + 0x60\n  1794: a1 = 0x3\n  1797: a2 = u64 [sp + 80]\n  1800: u64 [sp] = a2\n  1802: a2 = 0x0\n  1804: a3 = 0x0\n  1806: a4 = 0x0\n  1808: a5 = s1\n  1810: t2 = u64 [sp + 72]\n  1813: ra = 68, jump @191\n      : @110 [@dyn 34] (gas: 35)\n  1818: a0 = u64 [sp + 96]\n  1821: a1 = u64 [sp + 120]\n  1824: a2 = u64 [sp + 104]\n  1827: a3 = u64 [sp + 112]\n  1830: i64 a4 = i64 a0 + 0x6\n  1833: a0 = a4 <u a0\n  1836: i64 a5 = a2 + a0\n  1839: a2 = a5 <u a2\n  1842: a2 = a0 if a0 == 0\n  1845: i64 a2 = a2 + a3\n  1848: a0 = a2 <u a3\n  1851: i64 a0 = a0 + a1\n  1854: u64 [sp + 256] = a4\n  1858: u64 [sp + 264] = a5\n  1862: u64 [sp + 272] = a2\n  1866: u64 [sp + 280] = a0\n  1870: u64 [sp + 248] = 0\n  1874: u64 [sp + 240] = 0\n  1878: u64 [sp + 232] = 0\n  1882: u64 [sp + 224] = 0\n  1886: u64 [sp + 208] = 0\n  1890: u64 [sp + 216] = 0\n  1894: u64 [sp + 200] = 0\n  1898: u64 [sp + 192] = 256\n  1904: a1 = sp + 0x100\n  1908: a3 = sp + 0xe0\n  1912: a4 = sp + 0xc0\n  1916: a2 = 0xffffffff\n  1919: a0 = 0x0\n  1921: ecalli 5 // 'get_storage'\n  1923: a0 = u8 [sp + 224]\n  1927: a0 = a0 <u 0x1\n  1930: a2 = 0x0\n  1932: a3 = 0x0\n  1934: ra = 70, jump @982\n      : @111 [@dyn 35] (gas: 36)\n  1940: a0 = u64 [sp + 40]\n  1943: u64 [sp] = a0\n  1945: a0 = s1\n  1947: a1 = u64 [sp + 72]\n  1950: a2 = u64 [sp + 80]\n  1953: a3 = u64 [sp + 88]\n  1956: a4 = u64 [sp + 64]\n  1959: a5 = u64 [sp + 56]\n  1962: t2 = u64 [sp + 48]\n  1965: ra = 0x48\n  1968: i64 sp = i64 sp - i64 416\n  1972: u64 [sp + 408] = ra\n  1976: u64 [sp + 400] = s0\n  1980: u64 [sp + 392] = s1\n  1984: i64 s0 = i64 sp + 0x1a0\n  1988: sp = sp & 0xffffffe0\n  1991: s1 = sp\n  1993: u64 [s1 + 72] = t2\n  1996: u64 [s1 + 80] = a5\n  1999: u64 [s1 + 88] = a4\n  2002: t2 = a1\n  2004: a5 = a0\n  2006: i64 sp = i64 sp - i64 16\n  2009: u64 [s1 + 24] = a3\n  2012: u64 [sp + 8] = a3\n  2015: i64 a0 = i64 s1 + 0xa0\n  2019: a1 = 0x3\n  2022: u64 [s1 + 16] = a2\n  2025: u64 [sp] = a2\n  2027: a2 = 0x0\n  2029: a3 = 0x0\n  2031: a4 = 0x0\n  2033: u64 [s1] = a5\n  2035: u64 [s1 + 8] = t2\n  2038: ra = 0x296\n  2042: jump @191\n      : @112 [@dyn 36] (gas: 3)\n  2045: a0 = 0x40\n  2048: a1 = 0x20\n  2051: ra = 74, jump @0\n      : @113 [@dyn 37] (gas: 1)\n  2056: jump @106 if a0 == 0\n      : @114 (gas: 16)\n  2060: s1 = 0x20050\n  2065: a0 = u64 [0x20098]\n  2070: a1 = u64 [0x200a8]\n  2075: a2 = u64 [0x20090]\n  2080: a3 = u64 [0x200a0]\n  2085: a4 = reverse a0\n  2087: a0 = reverse a1\n  2089: a1 = a0 | a4\n  2092: a2 = a2 | a3\n  2095: a2 = reverse a2\n  2097: a1 = a1 | a2\n  2100: a1 = a1 >>64 32\n  2103: a2 = a2 | a4\n  2106: a2 = a2 <<64 32\n  2109: a1 = a1 | a2\n  2112: jump @106 if a1 != 0\n      : @115 (gas: 3)\n  2116: a0 = a0 + 0x0\n  2118: u64 [sp + 88] = a0\n  2121: ra = 76, jump @0\n      : @116 [@dyn 38] (gas: 1)\n  2126: jump @106 if a0 == 0\n      : @117 (gas: 6)\n  2130: a1 = u64 [sp + 88]\n  2133: a1 = a1 + s1\n  2136: a0 = 0x0\n  2138: a2 = 0x0\n  2140: ecalli 11 // 'seal_return'\n  2142: fallthrough\n      : @118 (gas: 7)\n  2143: a1 = 0x20050\n  2148: a1 = a1 + 0x0\n  2150: a0 = 0x1\n  2153: a2 = 0x0\n  2155: ra = 0x4e\n  2158: ecalli 11 // 'seal_return'\n  2160: fallthrough\n      : @119 [@dyn 39] (gas: 37)\n  2161: i64 sp = i64 sp - i64 40\n  2164: u64 [sp + 32] = ra\n  2167: u64 [sp + 24] = s0\n  2170: u64 [sp + 16] = s1\n  2173: t1 = a0\n  2175: t0 = u64 [sp + 40]\n  2178: i64 s0 = i64 a4 + 0x1f\n  2181: a4 = s0 <u a4\n  2184: i64 s1 = a5 + a4\n  2187: a5 = s1 <u a5\n  2190: a5 = a4 if a4 == 0\n  2193: i64 a5 = a5 + t2\n  2196: a0 = a5 <u t2\n  2199: s0 = s0 & 0xffffffe0\n  2202: u64 [sp + 8] = t1\n  2205: i64 t1 = t1 + s0\n  2208: ra = t1 <u s0\n  2211: i64 a4 = s1 + a1\n  2214: i64 t2 = a4 + ra\n  2217: a4 = t2 ^ s1\n  2220: s0 = t2 <u s1\n  2223: s0 = ra if a4 == 0\n  2226: i64 a4 = a5 + a2\n  2229: i64 s0 = s0 + a4\n  2232: s1 = s0 <u a4\n  2235: a4 = a4 <u a5\n  2238: i64 t0 = t0 + a3\n  2241: i64 t0 = t0 + a0\n  2244: i64 a4 = a4 + t0\n  2247: i64 s1 = s1 + a4\n  2250: a4 = s1 >u 0x0\n  2252: a5 = s0 >u 0x0\n  2254: a5 = a4 if s1 != 0\n  2257: t0 = s0 | s1\n  2260: a4 = t2 >u 0x0\n  2262: a4 = a5 if t0 != 0\n  2265: jump @124 if a4 != 0\n      : @120 (gas: 13)\n  2268: a0 = u64 [sp + 8]\n  2271: a0 = t1 <u a0\n  2274: a4 = t2 ^ a1\n  2277: a1 = t2 <u a1\n  2280: a1 = a0 if a4 == 0\n  2283: a0 = s0 <u a2\n  2286: a4 = s1 ^ a3\n  2289: a3 = s1 <u a3\n  2292: a3 = a0 if a4 == 0\n  2295: a2 = a2 ^ s0\n  2298: a2 = a2 | a4\n  2301: a3 = a1 if a2 == 0\n  2304: jump @124 if a3 != 0\n      : @121 (gas: 5)\n  2307: u64 [sp] = t2\n  2309: u64 [sp + 8] = t1\n  2312: a0 = 0x40\n  2315: a1 = 0x20\n  2318: ra = 80, jump @0\n      : @122 [@dyn 40] (gas: 1)\n  2323: jump @130 if a0 == 0\n      : @123 (gas: 16)\n  2327: a0 = reverse s1\n  2329: a1 = reverse s0\n  2331: a2 = u64 [sp]\n  2333: a2 = reverse a2\n  2335: a3 = u64 [sp + 8]\n  2338: a3 = reverse a3\n  2340: a4 = 0x20050\n  2345: u64 [0x200a8] = a3\n  2350: u64 [0x200a0] = a2\n  2355: u64 [0x20098] = a1\n  2360: u64 [0x20090] = a0\n  2365: ra = u64 [sp + 32]\n  2368: s0 = u64 [sp + 24]\n  2371: s1 = u64 [sp + 16]\n  2374: i64 sp = i64 sp + 0x28\n  2377: ret\n      : @124 (gas: 3)\n  2379: a1 = 0x20\n  2382: a0 = 0x0\n  2384: ra = 82, jump @0\n      : @125 [@dyn 41] (gas: 1)\n  2389: jump @130 if a0 == 0\n      : @126 (gas: 8)\n  2392: s0 = 0x20050\n  2397: u64 [0x20068] = 0\n  2402: u64 [0x20060] = 0\n  2407: u64 [0x20058] = 0\n  2412: u64 [0x20050] = 1903904846\n  2421: a0 = 0x4\n  2424: a1 = 0x20\n  2427: ra = 84, jump @0\n      : @127 [@dyn 42] (gas: 1)\n  2432: jump @130 if a0 == 0\n      : @128 (gas: 11)\n  2435: u32 [s0 + 32] = 1090519040\n  2442: u32 [s0 + 28] = 0\n  2445: u32 [s0 + 24] = 0\n  2448: u32 [s0 + 20] = 0\n  2451: u32 [s0 + 16] = 0\n  2454: u32 [s0 + 12] = 0\n  2457: u32 [s0 + 8] = 0\n  2460: u32 [s0 + 4] = 0\n  2463: a1 = 0x24\n  2466: a0 = 0x0\n  2468: ra = 86, jump @0\n      : @129 [@dyn 43] (gas: 1)\n  2473: jump @131 if a0 != 0\n      : @130 (gas: 1)\n  2476: trap\n      : @131 (gas: 6)\n  2477: a1 = s0 + 0x0\n  2479: a0 = 0x1\n  2482: a2 = 0x24\n  2485: ra = 0x58\n  2488: ecalli 11 // 'seal_return'\n  2490: fallthrough\n      : @132 [@dyn 44] (gas: 31)\n  2491: i64 sp = i64 sp - i64 224\n  2495: u64 [sp + 216] = ra\n  2499: u64 [sp + 208] = s0\n  2503: u64 [sp + 200] = s1\n  2507: u64 [sp + 136] = a4\n  2511: a4 = a1\n  2513: i64 a1 = i64 a1 + 0x1f\n  2516: t0 = a1 <u a4\n  2519: i64 s1 = a2 + t0\n  2522: u64 [sp + 112] = a5\n  2525: t1 = a1 <u a5\n  2528: a1 = s1 ^ t2\n  2531: s0 = s1 <u t2\n  2534: s0 = t1 if a1 == 0\n  2537: t1 = u64 [sp + 232]\n  2541: ra = u64 [sp + 224]\n  2545: a1 = s1 <u a2\n  2548: a1 = t0 if t0 == 0\n  2551: i64 a1 = a1 + a3\n  2554: s1 = a1 <u a3\n  2557: a5 = u64 [sp + 136]\n  2561: i64 s1 = s1 + a5\n  2564: t0 = s1 ^ t1\n  2567: u64 [sp + 104] = t1\n  2570: t1 = s1 <s t1\n  2573: s1 = a1 <u ra\n  2576: t1 = s1 if t0 == 0\n  2579: a1 = a1 ^ ra\n  2582: a1 = a1 | t0\n  2585: s0 = t1 if a1 != 0\n  2588: jump @151 if s0 == 0\n      : @133 (gas: 24)\n  2592: u64 [sp + 56] = ra\n  2595: u64 [sp + 72] = t2\n  2598: u64 [sp + 80] = a2\n  2601: u64 [sp + 88] = a3\n  2604: u64 [sp + 8] = a0\n  2607: u64 [sp + 96] = a4\n  2610: a0 = a4 + 0x0\n  2612: s1 = 0x30060\n  2617: i64 a0 = a0 + s1\n  2620: a5 = u64 [a0 + 16]\n  2623: a1 = u64 [a0]\n  2625: a2 = u64 [a0 + 8]\n  2628: a3 = reverse a5\n  2630: u64 [sp + 48] = a1\n  2633: a1 = reverse a1\n  2635: u64 [sp + 64] = a2\n  2638: a2 = reverse a2\n  2640: u64 [sp + 176] = a1\n  2644: u64 [sp + 168] = a2\n  2648: a1 = a1 | a2\n  2651: u64 [sp + 192] = a3\n  2655: a2 = a3 <u 0x1\n  2658: a2 = 0 if a1 != 0\n  2660: jump @154 if a2 == 0\n      : @134 (gas: 6)\n  2664: u64 [sp + 40] = a5\n  2667: u64 [sp + 16] = s1\n  2670: s0 = u64 [a0 + 24]\n  2673: a0 = 0x40\n  2676: a1 = 0x20\n  2679: ra = 90, jump @0\n      : @135 [@dyn 45] (gas: 1)\n  2684: jump @163 if a0 == 0\n      : @136 (gas: 30)\n  2688: u64 [sp + 32] = s0\n  2691: a1 = reverse s0\n  2693: i64 a0 = i64 a1 + 0x1f\n  2696: u64 [sp + 128] = a1\n  2700: a1 = a0 <u a1\n  2703: a2 = u64 [sp + 192]\n  2707: i64 a1 = a1 + a2\n  2710: a1 = a1 & 0x1\n  2713: a0 = a0 & 0xffffffe0\n  2716: i64 a4 = i64 a0 + 0x20\n  2719: a0 = a4 <u a0\n  2722: i64 a5 = a1 + a0\n  2725: t2 = a5 <u a1\n  2728: t2 = a0 if a0 == 0\n  2731: a3 = 0x20050\n  2736: a0 = u64 [0x20090]\n  2741: a1 = u64 [0x20098]\n  2746: a2 = u64 [0x200a0]\n  2751: u64 [sp + 152] = a3\n  2755: s0 = u64 [0x200a8]\n  2760: a3 = reverse a0\n  2762: u64 [sp + 184] = a3\n  2766: s1 = reverse a1\n  2768: a1 = reverse a2\n  2770: u64 [sp + 160] = a1\n  2774: s0 = reverse s0\n  2776: u64 [sp + 0] = 0\n  2778: a0 = s0\n  2780: a2 = s1\n  2782: ra = 92, jump @119\n      : @137 [@dyn 46] (gas: 11)\n  2787: a1 = u64 [sp + 160]\n  2791: a0 = u64 [sp + 184]\n  2795: a0 = a0 | a1\n  2798: a1 = s0 | s1\n  2801: a1 = a1 | a0\n  2804: a1 = a1 >>64 32\n  2807: u64 [sp + 144] = s1\n  2811: a0 = a0 | s1\n  2814: a0 = a0 <<64 32\n  2817: a0 = a0 | a1\n  2820: jump @163 if a0 != 0\n      : @138 (gas: 5)\n  2824: u64 [sp + 120] = s0\n  2827: a0 = s0 + 0x0\n  2829: a1 = 0x20\n  2832: u64 [sp + 24] = a0\n  2835: ra = 94, jump @0\n      : @139 [@dyn 47] (gas: 2)\n  2840: a1 = u64 [sp + 96]\n  2843: jump @163 if a0 == 0\n      : @140 (gas: 113)\n  2847: i64 t1 = i64 a1 + 0x20\n  2850: a0 = t1 <u a1\n  2853: s0 = u64 [sp + 80]\n  2856: i64 t2 = s0 + a0\n  2859: t0 = u64 [sp + 128]\n  2863: i64 a1 = t0 + t1\n  2866: a3 = a1 <u t0\n  2869: a5 = u64 [sp + 192]\n  2873: i64 a2 = a5 + t2\n  2876: i64 a4 = a2 + a3\n  2879: s1 = a4 ^ a5\n  2882: a2 = a4 <u a5\n  2885: a2 = a3 if s1 == 0\n  2888: a5 = u64 [sp + 72]\n  2891: a3 = a4 ^ a5\n  2894: a4 = a5 <u a4\n  2897: a5 = u64 [sp + 112]\n  2900: a1 = a5 <u a1\n  2903: a1 = a4 if a3 != 0\n  2906: a3 = t2 <u s0\n  2909: a3 = a0 if a0 == 0\n  2912: a0 = u64 [sp + 88]\n  2915: i64 ra = a0 + a3\n  2918: a0 = ra <u a0\n  2921: a3 = u64 [sp + 136]\n  2925: i64 a5 = a3 + a0\n  2928: a3 = u64 [sp + 168]\n  2932: i64 a0 = a3 + ra\n  2935: a3 = a0 <u a3\n  2938: a4 = u64 [sp + 176]\n  2942: u64 [sp + 112] = a5\n  2945: i64 a4 = a4 + a5\n  2948: i64 a3 = a3 + a4\n  2951: i64 a2 = a2 + a0\n  2954: a0 = a2 <u a0\n  2957: i64 a0 = a0 + a3\n  2960: a4 = u64 [sp + 104]\n  2963: a3 = a0 ^ a4\n  2966: a0 = a4 <u a0\n  2969: a5 = u64 [sp + 56]\n  2972: a4 = a5 <u a2\n  2975: a0 = a4 if a3 == 0\n  2978: a2 = a2 ^ a5\n  2981: a2 = a2 | a3\n  2984: a1 = a0 if a2 != 0\n  2987: a0 = u64 [sp + 152]\n  2991: a2 = u64 [sp + 24]\n  2994: i64 a0 = a0 + a2\n  2997: a3 = u64 [sp + 48]\n  3000: a2 = a3 >>64 56\n  3003: u8 [a0 + 7] = a2\n  3006: a2 = a3 >>64 48\n  3009: u8 [a0 + 6] = a2\n  3012: a2 = a3 >>64 40\n  3015: u8 [a0 + 5] = a2\n  3018: a2 = a3 >>64 32\n  3021: u8 [a0 + 4] = a2\n  3024: a2 = a3 >>64 24\n  3027: u8 [a0 + 3] = a2\n  3030: a2 = a3 >>64 16\n  3033: u8 [a0 + 2] = a2\n  3036: a2 = a3 >>64 8\n  3039: u8 [a0 + 1] = a2\n  3042: u8 [a0] = a3\n  3044: s1 = u64 [sp + 64]\n  3047: a2 = s1 >>64 56\n  3050: u8 [a0 + 15] = a2\n  3053: a2 = s1 >>64 48\n  3056: u8 [a0 + 14] = a2\n  3059: a2 = s1 >>64 40\n  3062: u8 [a0 + 13] = a2\n  3065: a2 = s1 >>64 32\n  3068: u8 [a0 + 12] = a2\n  3071: a2 = s1 >>64 24\n  3074: u8 [a0 + 11] = a2\n  3077: a2 = s1 >>64 16\n  3080: u8 [a0 + 10] = a2\n  3083: u8 [a0 + 8] = s1\n  3086: s1 = s1 >>64 8\n  3089: u8 [a0 + 9] = s1\n  3092: a3 = u64 [sp + 40]\n  3095: a2 = a3 >>64 56\n  3098: u8 [a0 + 23] = a2\n  3101: a2 = a3 >>64 48\n  3104: u8 [a0 + 22] = a2\n  3107: a2 = a3 >>64 40\n  3110: u8 [a0 + 21] = a2\n  3113: a2 = a3 >>64 32\n  3116: u8 [a0 + 20] = a2\n  3119: a2 = a3 >>64 24\n  3122: u8 [a0 + 19] = a2\n  3125: a2 = a3 >>64 16\n  3128: u8 [a0 + 18] = a2\n  3131: u8 [a0 + 16] = a3\n  3134: a2 = a3 >>64 8\n  3137: u8 [a0 + 17] = a2\n  3140: a3 = u64 [sp + 32]\n  3143: a2 = a3 >>64 56\n  3146: u8 [a0 + 31] = a2\n  3149: a2 = a3 >>64 48\n  3152: u8 [a0 + 30] = a2\n  3155: a2 = a3 >>64 40\n  3158: u8 [a0 + 29] = a2\n  3161: a2 = a3 >>64 32\n  3164: u8 [a0 + 28] = a2\n  3167: a2 = a3 >>64 24\n  3170: u8 [a0 + 27] = a2\n  3173: a2 = a3 >>64 16\n  3176: u8 [a0 + 26] = a2\n  3179: u8 [a0 + 24] = a3\n  3182: a2 = a3 >>64 8\n  3185: u8 [a0 + 25] = a2\n  3188: jump @161 if a1 != 0\n      : @141 (gas: 14)\n  3192: a3 = u64 [sp + 144]\n  3196: a0 = a3 >u 0x0\n  3198: a4 = u64 [sp + 184]\n  3202: a1 = a4 >u 0x0\n  3204: a1 = a0 if a4 == 0\n  3207: a0 = 0xffffffdf\n  3217: s0 = u64 [sp + 120]\n  3220: a0 = a0 <u s0\n  3223: s1 = u64 [sp + 160]\n  3227: a2 = s1 >u 0x0\n  3229: a2 = a0 if s1 == 0\n  3232: a0 = a3 | a4\n  3235: a2 = a1 if a0 != 0\n  3238: jump @163 if a2 != 0\n      : @142 (gas: 14)\n  3242: u64 [sp + 88] = ra\n  3245: u64 [sp + 96] = t2\n  3248: u64 [sp + 104] = t1\n  3251: a2 = u64 [sp + 168]\n  3255: a0 = t0 | a2\n  3258: a1 = u64 [sp + 176]\n  3262: a3 = u64 [sp + 192]\n  3266: a1 = a1 | a3\n  3269: a0 = a0 | a1\n  3272: a0 = a0 >>64 32\n  3275: a1 = a1 | a2\n  3278: a1 = a1 <<64 32\n  3281: a0 = a0 | a1\n  3284: jump @163 if a0 != 0\n      : @143 (gas: 7)\n  3288: i64 a0 = i64 s0 + 0x20\n  3291: u64 [sp + 136] = a0\n  3295: a0 = a0 + 0x0\n  3297: a1 = t0 + 0x0\n  3299: u64 [sp + 72] = a0\n  3302: u64 [sp + 80] = a1\n  3305: ra = 96, jump @0\n      : @144 [@dyn 48] (gas: 1)\n  3310: jump @163 if a0 == 0\n      : @145 (gas: 12)\n  3314: a2 = u64 [sp + 104]\n  3317: a3 = u64 [sp + 88]\n  3320: a0 = a2 | a3\n  3323: a1 = u64 [sp + 96]\n  3326: a4 = u64 [sp + 112]\n  3329: a1 = a1 | a4\n  3332: a0 = a0 | a1\n  3335: a0 = a0 >>64 32\n  3338: a1 = a1 | a3\n  3341: a1 = a1 <<64 32\n  3344: a0 = a0 | a1\n  3347: jump @163 if a0 != 0\n      : @146 (gas: 17)\n  3351: a0 = u64 [sp + 136]\n  3355: a0 = a0 <u s0\n  3358: i64 s0 = s1 + a0\n  3361: a1 = s0 <u s1\n  3364: a1 = a0 if a0 == 0\n  3367: a0 = u64 [sp + 144]\n  3371: i64 s1 = a0 + a1\n  3374: a0 = s1 <u a0\n  3377: u64 [sp + 112] = a0\n  3380: a0 = u64 [sp + 152]\n  3384: a1 = u64 [sp + 72]\n  3387: i64 a0 = a0 + a1\n  3390: a1 = a2 + 0x0\n  3392: a2 = u64 [sp + 16]\n  3395: i64 a1 = a1 + a2\n  3398: a2 = u64 [sp + 80]\n  3401: ra = 98, jump @8\n      : @147 [@dyn 49] (gas: 30)\n  3406: a3 = u64 [sp + 136]\n  3410: t0 = u64 [sp + 128]\n  3414: i64 a0 = a3 + t0\n  3417: a1 = a0 <u a3\n  3420: a2 = u64 [sp + 192]\n  3424: i64 a2 = a2 + s0\n  3427: i64 a2 = a2 + a1\n  3430: a5 = a2 ^ s0\n  3433: a4 = a2 <u s0\n  3436: a4 = a1 if a5 == 0\n  3439: a1 = u64 [sp + 168]\n  3443: i64 a1 = a1 + s1\n  3446: i64 a4 = a4 + a1\n  3449: s0 = a4 <u a1\n  3452: a1 = a1 <u s1\n  3455: a5 = u64 [sp + 184]\n  3459: s1 = u64 [sp + 176]\n  3463: i64 a5 = a5 + s1\n  3466: s1 = u64 [sp + 112]\n  3469: i64 a5 = a5 + s1\n  3472: i64 a1 = a1 + a5\n  3475: i64 a1 = a1 + s0\n  3478: a0 = a0 | a4\n  3481: a1 = a1 | a2\n  3484: a0 = a0 | a1\n  3487: a0 = a0 >>64 32\n  3490: a1 = a1 | a4\n  3493: a1 = a1 <<64 32\n  3496: a0 = a0 | a1\n  3499: jump @163 if a0 != 0\n      : @148 (gas: 4)\n  3503: s0 = a3 + t0\n  3506: a1 = 0x20\n  3509: a0 = s0\n  3511: ra = 100, jump @0\n      : @149 [@dyn 50] (gas: 1)\n  3516: jump @163 if a0 == 0\n      : @150 (gas: 48)\n  3520: a0 = u64 [sp + 152]\n  3524: i64 s0 = s0 + a0\n  3527: u8 [s0 + 31] = 0\n  3530: u8 [s0 + 30] = 0\n  3533: u8 [s0 + 29] = 0\n  3536: u8 [s0 + 28] = 0\n  3539: u8 [s0 + 27] = 0\n  3542: u8 [s0 + 26] = 0\n  3545: u8 [s0 + 25] = 0\n  3548: u8 [s0 + 24] = 0\n  3551: u8 [s0 + 23] = 0\n  3554: u8 [s0 + 22] = 0\n  3557: u8 [s0 + 21] = 0\n  3560: u8 [s0 + 20] = 0\n  3563: u8 [s0 + 19] = 0\n  3566: u8 [s0 + 18] = 0\n  3569: u8 [s0 + 17] = 0\n  3572: u8 [s0 + 16] = 0\n  3575: u8 [s0 + 15] = 0\n  3578: u8 [s0 + 14] = 0\n  3581: u8 [s0 + 13] = 0\n  3584: u8 [s0 + 12] = 0\n  3587: u8 [s0 + 11] = 0\n  3590: u8 [s0 + 10] = 0\n  3593: u8 [s0 + 9] = 0\n  3596: u8 [s0 + 8] = 0\n  3599: u8 [s0 + 7] = 0\n  3602: u8 [s0 + 6] = 0\n  3605: u8 [s0 + 5] = 0\n  3608: u8 [s0 + 4] = 0\n  3611: u8 [s0 + 3] = 0\n  3614: u8 [s0 + 2] = 0\n  3617: u8 [s0 + 1] = 0\n  3620: u8 [s0 + 0] = 0\n  3622: a0 = u64 [sp + 8]\n  3625: a1 = u64 [sp + 120]\n  3628: u64 [a0] = a1\n  3630: a1 = u64 [sp + 184]\n  3634: u64 [a0 + 24] = a1\n  3637: a1 = u64 [sp + 160]\n  3641: u64 [a0 + 8] = a1\n  3644: a1 = u64 [sp + 144]\n  3648: u64 [a0 + 16] = a1\n  3651: ra = u64 [sp + 216]\n  3655: s0 = u64 [sp + 208]\n  3659: s1 = u64 [sp + 200]\n  3663: i64 sp = i64 sp + 0xe0\n  3667: ret\n      : @151 (gas: 3)\n  3669: a0 = 0x0\n  3671: a1 = 0x0\n  3673: ra = 102, jump @0\n      : @152 [@dyn 51] (gas: 1)\n  3678: jump @163 if a0 == 0\n      : @153 (gas: 6)\n  3682: a1 = 0x20050\n  3687: a1 = a1 + 0x0\n  3689: a0 = 0x1\n  3692: a2 = 0x0\n  3694: ecalli 11 // 'seal_return'\n  3696: fallthrough\n      : @154 (gas: 3)\n  3697: a1 = 0x20\n  3700: a0 = 0x0\n  3702: ra = 104, jump @0\n      : @155 [@dyn 52] (gas: 1)\n  3707: jump @163 if a0 == 0\n      : @156 (gas: 8)\n  3710: s0 = 0x20050\n  3715: u64 [0x20068] = 0\n  3720: u64 [0x20060] = 0\n  3725: u64 [0x20058] = 0\n  3730: u64 [0x20050] = 1903904846\n  3739: a0 = 0x4\n  3742: a1 = 0x20\n  3745: ra = 106, jump @0\n      : @157 [@dyn 53] (gas: 1)\n  3750: jump @163 if a0 == 0\n      : @158 (gas: 11)\n  3753: u32 [s0 + 32] = 1090519040\n  3760: u32 [s0 + 28] = 0\n  3763: u32 [s0 + 24] = 0\n  3766: u32 [s0 + 20] = 0\n  3769: u32 [s0 + 16] = 0\n  3772: u32 [s0 + 12] = 0\n  3775: u32 [s0 + 8] = 0\n  3778: u32 [s0 + 4] = 0\n  3781: a1 = 0x24\n  3784: a0 = 0x0\n  3786: ra = 108, jump @0\n      : @159 [@dyn 54] (gas: 1)\n  3791: jump @163 if a0 == 0\n      : @160 (gas: 5)\n  3794: a1 = s0 + 0x0\n  3796: a0 = 0x1\n  3799: a2 = 0x24\n  3802: ecalli 11 // 'seal_return'\n  3804: fallthrough\n      : @161 (gas: 3)\n  3805: a0 = 0x0\n  3807: a1 = 0x0\n  3809: ra = 110, jump @0\n      : @162 [@dyn 55] (gas: 1)\n  3814: jump @164 if a0 != 0\n      : @163 (gas: 1)\n  3817: trap\n      : @164 (gas: 6)\n  3818: a1 = i32 [sp + 152]\n  3822: a0 = 0x1\n  3825: a2 = 0x0\n  3827: ra = 0x70\n  3830: ecalli 11 // 'seal_return'\n  3832: fallthrough\n      : @165 [@dyn 56] (gas: 13)\n  3833: i64 sp = i64 sp - i64 352\n  3837: u64 [sp + 344] = ra\n  3841: u64 [sp + 336] = s0\n  3845: u64 [sp + 328] = s1\n  3849: i64 s0 = i64 sp + 0x160\n  3853: sp = sp & 0xffffffe0\n  3856: u64 [sp + 216] = 0\n  3860: u64 [sp + 208] = 0\n  3864: u64 [sp + 200] = 0\n  3868: u64 [sp + 192] = 0\n  3872: a0 = sp + 0xc0\n  3876: ecalli 14 // 'value_transferred'\n  3878: fallthrough\n      : @166 (gas: 8)\n  3879: a0 = u64 [sp + 208]\n  3883: a1 = u64 [sp + 216]\n  3887: a2 = u64 [sp + 200]\n  3891: a3 = u64 [sp + 192]\n  3895: a1 = a1 | a2\n  3898: a0 = a0 | a3\n  3901: a0 = a0 | a1\n  3904: jump @171 if a0 != 0\n      : @167 (gas: 27)\n  3907: a5 = u64 [0x30460]\n  3912: t0 = u64 [0x30478]\n  3917: t2 = u64 [0x30468]\n  3922: t1 = u64 [0x30470]\n  3927: i64 a0 = i64 a5 - i64 4\n  3930: a1 = a0 <u a5\n  3933: i64 a2 = t2 + a1\n  3936: i64 a2 = i64 a2 - i64 1\n  3939: a3 = a2 ^ t2\n  3942: a4 = a2 <u t2\n  3945: a4 = a1 if a3 == 0\n  3948: i64 a1 = i64 t1 - i64 1\n  3951: i64 a4 = a4 + a1\n  3954: a1 = a4 <u a1\n  3957: a3 = t1 <u 0x1\n  3960: i64 a3 = i64 t0 - i64 a3\n  3963: i64 a1 = a1 + a3\n  3966: a3 = a1 >s 0\n  3968: s1 = a4 >u 0x0\n  3970: s1 = a3 if a1 != 0\n  3973: a1 = a1 | a4\n  3976: a3 = a2 >u 0x0\n  3978: a0 = a0 <u 0x40\n  3981: a0 = a0 ^ 0x1\n  3984: a0 = a3 if a2 != 0\n  3987: a0 = s1 if a1 != 0\n  3990: jump @174 if a0 != 0\n      : @168 (gas: 2)\n  3993: a1 = 0x0\n  3995: ra = 114, jump @0\n      : @169 [@dyn 57] (gas: 1)\n  4000: jump @173 if a0 == 0\n      : @170 (gas: 6)\n  4003: a1 = 0x20050\n  4008: a1 = a1 + 0x0\n  4010: a0 = 0x1\n  4013: a2 = 0x0\n  4015: ecalli 11 // 'seal_return'\n  4017: fallthrough\n      : @171 (gas: 3)\n  4018: a0 = 0x0\n  4020: a1 = 0x0\n  4022: ra = 116, jump @0\n      : @172 [@dyn 58] (gas: 1)\n  4027: jump @190 if a0 != 0\n      : @173 (gas: 1)\n  4031: trap\n      : @174 (gas: 11)\n  4032: a1 = 0x30060\n  4037: a0 = u64 [0x30094]\n  4042: a2 = u64 [0x30084]\n  4047: s1 = u64 [0x3008c]\n  4052: a3 = reverse a0\n  4054: a4 = reverse a2\n  4056: a0 = reverse s1\n  4058: a2 = a0 | a4\n  4061: s1 = a3 <u 0x1\n  4064: s1 = 0 if a2 != 0\n  4066: jump @178 if s1 != 0\n      : @175 (gas: 3)\n  4069: a0 = 0x0\n  4071: a1 = 0x0\n  4073: ra = 118, jump @0\n      : @176 [@dyn 59] (gas: 1)\n  4078: jump @173 if a0 == 0\n      : @177 (gas: 6)\n  4081: a1 = 0x20050\n  4086: a1 = a1 + 0x0\n  4088: a0 = 0x1\n  4091: a2 = 0x0\n  4093: ecalli 11 // 'seal_return'\n  4095: fallthrough\n      : @178 (gas: 30)\n  4096: a2 = u64 [a1 + 60]\n  4099: a2 = reverse a2\n  4101: s1 = u64 [a1 + 28]\n  4104: u64 [sp + 80] = s1\n  4107: ra = u64 [a1 + 20]\n  4110: s1 = u64 [a1 + 12]\n  4113: u64 [sp + 88] = s1\n  4116: a1 = u64 [a1 + 4]\n  4119: s1 = u64 [sp + 80]\n  4122: s1 = reverse s1\n  4124: u64 [sp + 64] = s1\n  4127: s1 = reverse ra\n  4129: u64 [sp + 72] = s1\n  4132: s1 = u64 [sp + 88]\n  4135: s1 = reverse s1\n  4137: u64 [sp + 88] = s1\n  4140: a1 = reverse a1\n  4142: u64 [sp + 80] = a1\n  4145: i64 a1 = i64 a2 + 0x4\n  4148: s1 = a1 <u a2\n  4151: i64 a2 = a3 + s1\n  4154: a3 = a2 <u a3\n  4157: a3 = s1 if s1 == 0\n  4160: i64 a3 = a3 + a0\n  4163: a0 = a3 <u a0\n  4166: i64 a4 = a4 + a0\n  4169: u64 [sp + 8] = t0\n  4172: i64 a0 = i64 sp + 0xa0\n  4176: u64 [sp] = t1\n  4178: ra = 120, jump @132\n      : @179 [@dyn 60] (gas: 21)\n  4183: a0 = u64 [sp + 176]\n  4187: u64 [sp + 56] = a0\n  4190: a0 = u64 [sp + 168]\n  4194: u64 [sp + 48] = a0\n  4197: a0 = u64 [sp + 160]\n  4201: u64 [sp + 40] = a0\n  4204: a0 = u64 [sp + 184]\n  4208: u64 [sp + 32] = a0\n  4211: a0 = u64 [sp + 80]\n  4214: u64 [sp + 8] = a0\n  4217: i64 a0 = i64 sp + 0x80\n  4221: a1 = 0x3\n  4224: a2 = u64 [sp + 88]\n  4227: u64 [sp] = a2\n  4229: a2 = 0x0\n  4231: a3 = 0x0\n  4233: a4 = 0x0\n  4235: s1 = u64 [sp + 64]\n  4238: a5 = s1\n  4240: t2 = u64 [sp + 72]\n  4243: ra = 122, jump @191\n      : @180 [@dyn 61] (gas: 31)\n  4248: a0 = u64 [sp + 152]\n  4252: a1 = u64 [sp + 144]\n  4256: a2 = u64 [sp + 136]\n  4260: a3 = u64 [sp + 128]\n  4264: u64 [sp + 312] = a0\n  4268: u64 [sp + 304] = a1\n  4272: u64 [sp + 296] = a2\n  4276: u64 [sp + 288] = a3\n  4280: u64 [sp + 280] = 0\n  4284: u64 [sp + 272] = 0\n  4288: u64 [sp + 264] = 0\n  4292: u64 [sp + 256] = 0\n  4296: u64 [sp + 240] = 0\n  4300: u64 [sp + 248] = 0\n  4304: u64 [sp + 232] = 0\n  4308: u64 [sp + 224] = 256\n  4314: a1 = sp + 0x120\n  4318: a3 = sp + 0x100\n  4322: a4 = sp + 0xe0\n  4326: a2 = 0xffffffff\n  4329: a0 = 0x0\n  4331: ecalli 5 // 'get_storage'\n  4333: a0 = u64 [sp + 256]\n  4337: a1 = u32 [sp + 272]\n  4341: a2 = u64 [sp + 264]\n  4345: a0 = a0 | a1\n  4348: a0 = a0 | a2\n  4351: a0 = a0 >u 0x0\n  4353: a2 = 0x0\n  4355: a3 = 0x0\n  4357: ra = 124, jump @958\n      : @181 [@dyn 62] (gas: 13)\n  4363: a0 = u64 [sp + 80]\n  4366: u64 [sp + 8] = a0\n  4369: i64 a0 = i64 sp + 0x60\n  4372: a1 = 0x3\n  4375: a2 = u64 [sp + 88]\n  4378: u64 [sp] = a2\n  4380: a2 = 0x0\n  4382: a3 = 0x0\n  4384: a4 = 0x0\n  4386: a5 = s1\n  4388: s1 = u64 [sp + 72]\n  4391: t2 = s1\n  4393: ra = 126, jump @191\n      : @182 [@dyn 63] (gas: 35)\n  4398: a0 = u64 [sp + 96]\n  4401: a1 = u64 [sp + 120]\n  4404: a2 = u64 [sp + 104]\n  4407: a3 = u64 [sp + 112]\n  4410: i64 a4 = i64 a0 + 0x6\n  4413: a0 = a4 <u a0\n  4416: i64 a5 = a2 + a0\n  4419: a2 = a5 <u a2\n  4422: a2 = a0 if a0 == 0\n  4425: i64 a2 = a2 + a3\n  4428: a0 = a2 <u a3\n  4431: i64 a0 = a0 + a1\n  4434: u64 [sp + 288] = a4\n  4438: u64 [sp + 296] = a5\n  4442: u64 [sp + 304] = a2\n  4446: u64 [sp + 312] = a0\n  4450: u64 [sp + 280] = 0\n  4454: u64 [sp + 272] = 0\n  4458: u64 [sp + 264] = 0\n  4462: u64 [sp + 256] = 0\n  4466: u64 [sp + 240] = 0\n  4470: u64 [sp + 248] = 0\n  4474: u64 [sp + 232] = 0\n  4478: u64 [sp + 224] = 256\n  4484: a1 = sp + 0x120\n  4488: a3 = sp + 0x100\n  4492: a4 = sp + 0xe0\n  4496: a2 = 0xffffffff\n  4499: a0 = 0x0\n  4501: ecalli 5 // 'get_storage'\n  4503: a0 = u8 [sp + 256]\n  4507: a0 = a0 <u 0x1\n  4510: a2 = 0x0\n  4512: a3 = 0x0\n  4514: ra = 128, jump @982\n      : @183 [@dyn 64] (gas: 10)\n  4521: a0 = u64 [sp + 32]\n  4524: u64 [sp] = a0\n  4526: a0 = u64 [sp + 64]\n  4529: a1 = s1\n  4531: a2 = u64 [sp + 88]\n  4534: a3 = u64 [sp + 80]\n  4537: a4 = u64 [sp + 40]\n  4540: a5 = u64 [sp + 48]\n  4543: t2 = u64 [sp + 56]\n  4546: ra = 130, jump @1137\n      : @184 [@dyn 65] (gas: 3)\n  4553: a0 = 0x40\n  4556: a1 = 0x20\n  4559: ra = 132, jump @0\n      : @185 [@dyn 66] (gas: 1)\n  4565: jump @173 if a0 == 0\n      : @186 (gas: 16)\n  4569: s1 = 0x20050\n  4574: a0 = u64 [0x20098]\n  4579: a1 = u64 [0x200a8]\n  4584: a2 = u64 [0x20090]\n  4589: a3 = u64 [0x200a0]\n  4594: a4 = reverse a0\n  4596: a0 = reverse a1\n  4598: a1 = a0 | a4\n  4601: a2 = a2 | a3\n  4604: a2 = reverse a2\n  4606: a1 = a1 | a2\n  4609: a1 = a1 >>64 32\n  4612: a2 = a2 | a4\n  4615: a2 = a2 <<64 32\n  4618: a1 = a1 | a2\n  4621: jump @173 if a1 != 0\n      : @187 (gas: 3)\n  4625: a0 = a0 + 0x0\n  4627: u64 [sp + 88] = a0\n  4630: ra = 134, jump @0\n      : @188 [@dyn 67] (gas: 1)\n  4636: jump @173 if a0 == 0\n      : @189 (gas: 6)\n  4640: a1 = u64 [sp + 88]\n  4643: a1 = a1 + s1\n  4646: a0 = 0x0\n  4648: a2 = 0x0\n  4650: ecalli 11 // 'seal_return'\n  4652: fallthrough\n      : @190 (gas: 7)\n  4653: a1 = 0x20050\n  4658: a1 = a1 + 0x0\n  4660: a0 = 0x1\n  4663: a2 = 0x0\n  4665: ra = 0x88\n  4669: ecalli 11 // 'seal_return'\n  4671: fallthrough\n      : @191 [@dyn 68] (gas: 17)\n  4672: i64 sp = i64 sp - i64 96\n  4675: u64 [sp + 88] = ra\n  4678: u64 [sp + 80] = s0\n  4681: u64 [sp + 72] = s1\n  4684: i64 s0 = i64 sp + 0x60\n  4687: sp = sp & 0xffffffe0\n  4690: s1 = sp\n  4692: u64 [s1 + 48] = t2\n  4695: u64 [s1 + 56] = a5\n  4698: u64 [s1 + 16] = a4\n  4701: u64 [s1 + 24] = a3\n  4704: u64 [s1 + 32] = a2\n  4707: u64 [s1 + 40] = a1\n  4710: u64 [s1 + 8] = a0\n  4713: a1 = 0x20\n  4716: a0 = 0x0\n  4718: ra = 138, jump @0\n      : @192 [@dyn 69] (gas: 1)\n  4724: jump @198 if a0 == 0\n      : @193 (gas: 17)\n  4728: a0 = u64 [s0 + 8]\n  4731: a1 = u64 [s0]\n  4733: a0 = reverse a0\n  4735: a1 = reverse a1\n  4737: a2 = u64 [s1 + 48]\n  4740: a2 = reverse a2\n  4742: a3 = u64 [s1 + 56]\n  4745: a3 = reverse a3\n  4747: a4 = 0x20050\n  4752: u64 [0x20068] = a3\n  4757: u64 [0x20060] = a2\n  4762: u64 [0x20058] = a1\n  4767: u64 [s1 + 56] = a4\n  4770: u64 [0x20050] = a0\n  4775: a0 = 0x20\n  4778: a1 = 0x20\n  4781: ra = 140, jump @0\n      : @194 [@dyn 70] (gas: 1)\n  4787: jump @198 if a0 == 0\n      : @195 (gas: 16)\n  4790: a0 = u64 [s1 + 16]\n  4793: a0 = reverse a0\n  4795: a1 = u64 [s1 + 24]\n  4798: a1 = reverse a1\n  4800: a2 = u64 [s1 + 32]\n  4803: a2 = reverse a2\n  4805: a3 = u64 [s1 + 40]\n  4808: a3 = reverse a3\n  4810: a4 = u64 [s1 + 56]\n  4813: u64 [a4 + 56] = a3\n  4816: u64 [a4 + 48] = a2\n  4819: u64 [a4 + 40] = a1\n  4822: u64 [a4 + 32] = a0\n  4825: a1 = 0x40\n  4828: a0 = 0x0\n  4830: ra = 142, jump @0\n      : @196 [@dyn 71] (gas: 1)\n  4836: jump @198 if a0 == 0\n      : @197 (gas: 28)\n  4839: i64 a0 = i64 sp - i64 32\n  4842: a2 = a0 & 0xffffffe0\n  4845: u64 [s1 + 48] = a2\n  4848: sp = a2\n  4850: a0 = i32 [s1 + 56]\n  4853: a2 = a2 + 0x0\n  4855: a1 = 0x40\n  4858: ecalli 6 // 'hash_keccak_256'\n  4860: a3 = u64 [s1 + 48]\n  4863: a0 = u64 [a3 + 24]\n  4866: a1 = u64 [a3 + 16]\n  4869: a2 = u64 [a3 + 8]\n  4872: a3 = u64 [a3]\n  4874: a0 = reverse a0\n  4876: a1 = reverse a1\n  4878: a2 = reverse a2\n  4880: a3 = reverse a3\n  4882: a4 = u64 [s1 + 8]\n  4885: u64 [a4 + 24] = a3\n  4888: u64 [a4 + 16] = a2\n  4891: u64 [a4 + 8] = a1\n  4894: u64 [a4] = a0\n  4896: i64 sp = i64 s0 - i64 96\n  4899: ra = u64 [sp + 88]\n  4902: s0 = u64 [sp + 80]\n  4905: s1 = u64 [sp + 72]\n  4908: i64 sp = i64 sp + 0x60\n  4911: ret\n      : @198 (gas: 1)\n  4913: trap\n      : @199 (gas: 16)\n  4914: i64 sp = i64 sp - i64 368\n  4918: u64 [sp + 360] = ra\n  4922: u64 [sp + 352] = s0\n  4926: u64 [sp + 344] = s1\n  4930: u64 [sp + 288] = a2\n  4934: u64 [sp + 280] = a4\n  4938: a4 = a4 | a2\n  4941: a2 = a1 | a3\n  4944: a2 = a2 | a4\n  4947: a2 = a2 >>64 32\n  4950: u64 [sp + 272] = a3\n  4954: a3 = a3 | a4\n  4957: a3 = a3 <<64 32\n  4960: a2 = a2 | a3\n  4963: u64 [sp + 328] = a5\n  4967: jump @217 if a2 != 0\n      : @200 (gas: 7)\n  4971: s1 = t2\n  4973: s0 = a0\n  4975: u64 [sp + 264] = a1\n  4979: a0 = a1 + 0x0\n  4981: a1 = 0x20\n  4984: u64 [sp + 320] = a0\n  4988: ra = 144, jump @0\n      : @201 [@dyn 72] (gas: 1)\n  4994: jump @217 if a0 == 0\n      : @202 (gas: 15)\n  4998: u64 [sp] = s0\n  5000: a3 = u64 [sp + 368]\n  5004: a1 = u64 [sp + 376]\n  5008: a2 = u64 [sp + 328]\n  5012: a0 = a2 | a3\n  5015: u64 [sp + 312] = s1\n  5019: u64 [sp + 296] = a1\n  5023: a1 = a1 | s1\n  5026: a0 = a0 | a1\n  5029: a0 = a0 >>64 32\n  5032: u64 [sp + 304] = a3\n  5036: a1 = a1 | a3\n  5039: a1 = a1 <<64 32\n  5042: a0 = a0 | a1\n  5045: jump @217 if a0 != 0\n      : @203 (gas: 72)\n  5049: a1 = 0x20050\n  5054: a0 = u64 [sp + 320]\n  5058: u64 [sp + 336] = a1\n  5062: i64 a0 = a0 + a1\n  5065: a1 = u8 [a0 + 24]\n  5068: u64 [sp + 32] = a1\n  5071: s0 = u8 [a0 + 25]\n  5074: a1 = u8 [a0 + 26]\n  5077: u64 [sp + 16] = a1\n  5080: a1 = u8 [a0 + 27]\n  5083: u64 [sp + 8] = a1\n  5086: a1 = u8 [a0 + 28]\n  5089: u64 [sp + 56] = a1\n  5092: a1 = u8 [a0 + 29]\n  5095: u64 [sp + 24] = a1\n  5098: a1 = u8 [a0 + 30]\n  5101: u64 [sp + 48] = a1\n  5104: a1 = u8 [a0 + 31]\n  5107: u64 [sp + 40] = a1\n  5110: a1 = u8 [a0 + 16]\n  5113: u64 [sp + 96] = a1\n  5116: a1 = u8 [a0 + 17]\n  5119: u64 [sp + 64] = a1\n  5122: a1 = u8 [a0 + 18]\n  5125: u64 [sp + 80] = a1\n  5128: a1 = u8 [a0 + 19]\n  5131: u64 [sp + 72] = a1\n  5134: a1 = u8 [a0 + 20]\n  5137: u64 [sp + 120] = a1\n  5140: a1 = u8 [a0 + 21]\n  5143: u64 [sp + 88] = a1\n  5146: a1 = u8 [a0 + 22]\n  5149: u64 [sp + 112] = a1\n  5152: a1 = u8 [a0 + 23]\n  5155: u64 [sp + 104] = a1\n  5158: a1 = u8 [a0 + 8]\n  5161: u64 [sp + 160] = a1\n  5165: a1 = u8 [a0 + 9]\n  5168: u64 [sp + 128] = a1\n  5172: a1 = u8 [a0 + 10]\n  5175: u64 [sp + 144] = a1\n  5179: a1 = u8 [a0 + 11]\n  5182: u64 [sp + 136] = a1\n  5186: a1 = u8 [a0 + 12]\n  5189: u64 [sp + 184] = a1\n  5193: a1 = u8 [a0 + 13]\n  5196: u64 [sp + 152] = a1\n  5200: a1 = u8 [a0 + 14]\n  5203: u64 [sp + 176] = a1\n  5207: a1 = u8 [a0 + 15]\n  5210: u64 [sp + 168] = a1\n  5214: a1 = u8 [a0]\n  5216: u64 [sp + 224] = a1\n  5220: a1 = u8 [a0 + 1]\n  5223: u64 [sp + 192] = a1\n  5227: a1 = u8 [a0 + 2]\n  5230: u64 [sp + 208] = a1\n  5234: a1 = u8 [a0 + 3]\n  5237: u64 [sp + 200] = a1\n  5241: a1 = u8 [a0 + 4]\n  5244: u64 [sp + 248] = a1\n  5248: a1 = u8 [a0 + 5]\n  5251: u64 [sp + 216] = a1\n  5255: a1 = u8 [a0 + 6]\n  5258: u64 [sp + 240] = a1\n  5262: a0 = u8 [a0 + 7]\n  5265: u64 [sp + 232] = a0\n  5269: a0 = a2 + 0x0\n  5271: a1 = 0x20\n  5274: u64 [sp + 256] = a0\n  5278: s1 = a2\n  5280: ra = 146, jump @0\n      : @204 [@dyn 73] (gas: 1)\n  5286: jump @217 if a0 == 0\n      : @205 (gas: 164)\n  5290: a4 = u64 [sp + 304]\n  5294: a0 = a4 >u 0x0\n  5296: a5 = u64 [sp + 296]\n  5300: a2 = a5 >u 0x0\n  5302: a2 = a0 if a5 == 0\n  5305: a1 = 0xffffffdf\n  5315: t1 = s1\n  5317: a3 = a1 <u s1\n  5320: a0 = u64 [sp + 312]\n  5324: a1 = a0 >u 0x0\n  5326: a1 = a3 if a0 == 0\n  5329: a3 = a4 | a5\n  5332: a1 = a2 if a3 != 0\n  5335: s0 = s0 <<64 8\n  5338: a2 = u64 [sp + 32]\n  5341: a2 = a2 | s0\n  5344: a3 = u64 [sp + 16]\n  5347: a3 = a3 <<64 16\n  5350: s1 = u64 [sp + 8]\n  5353: s1 = s1 <<64 24\n  5356: a3 = a3 | s1\n  5359: a2 = a2 | a3\n  5362: a3 = u64 [sp + 24]\n  5365: a3 = a3 <<64 8\n  5368: a0 = u64 [sp + 56]\n  5371: a3 = a3 | a0\n  5374: a4 = u64 [sp + 48]\n  5377: a4 = a4 <<64 16\n  5380: a5 = u64 [sp + 40]\n  5383: a5 = a5 <<64 24\n  5386: a4 = a4 | a5\n  5389: a3 = a3 | a4\n  5392: a3 = a3 <<64 32\n  5395: a2 = a2 | a3\n  5398: a3 = u64 [sp + 64]\n  5401: a3 = a3 <<64 8\n  5404: a0 = u64 [sp + 96]\n  5407: a3 = a3 | a0\n  5410: a4 = u64 [sp + 80]\n  5413: a4 = a4 <<64 16\n  5416: a5 = u64 [sp + 72]\n  5419: a5 = a5 <<64 24\n  5422: a4 = a4 | a5\n  5425: a3 = a3 | a4\n  5428: a4 = u64 [sp + 88]\n  5431: a4 = a4 <<64 8\n  5434: a0 = u64 [sp + 120]\n  5437: a4 = a4 | a0\n  5440: a5 = u64 [sp + 112]\n  5443: a5 = a5 <<64 16\n  5446: s1 = u64 [sp + 104]\n  5449: s1 = s1 <<64 24\n  5452: a5 = a5 | s1\n  5455: a4 = a4 | a5\n  5458: a4 = a4 <<64 32\n  5461: a3 = a3 | a4\n  5464: a4 = u64 [sp + 128]\n  5468: a4 = a4 <<64 8\n  5471: a0 = u64 [sp + 160]\n  5475: a4 = a4 | a0\n  5478: a5 = u64 [sp + 144]\n  5482: a5 = a5 <<64 16\n  5485: s1 = u64 [sp + 136]\n  5489: s1 = s1 <<64 24\n  5492: a5 = a5 | s1\n  5495: a4 = a4 | a5\n  5498: a5 = u64 [sp + 152]\n  5502: a5 = a5 <<64 8\n  5505: a0 = u64 [sp + 184]\n  5509: a5 = a5 | a0\n  5512: s1 = u64 [sp + 176]\n  5516: s1 = s1 <<64 16\n  5519: s0 = u64 [sp + 168]\n  5523: s0 = s0 <<64 24\n  5526: s0 = s0 | s1\n  5529: a5 = a5 | s0\n  5532: a5 = a5 <<64 32\n  5535: a4 = a4 | a5\n  5538: a5 = u64 [sp + 192]\n  5542: a5 = a5 <<64 8\n  5545: a0 = u64 [sp + 224]\n  5549: a5 = a5 | a0\n  5552: s1 = u64 [sp + 208]\n  5556: s1 = s1 <<64 16\n  5559: s0 = u64 [sp + 200]\n  5563: s0 = s0 <<64 24\n  5566: s0 = s0 | s1\n  5569: a5 = a5 | s0\n  5572: s1 = u64 [sp + 216]\n  5576: s1 = s1 <<64 8\n  5579: a0 = u64 [sp + 248]\n  5583: s1 = s1 | a0\n  5586: s0 = u64 [sp + 240]\n  5590: s0 = s0 <<64 16\n  5593: a0 = u64 [sp + 232]\n  5597: a0 = a0 <<64 24\n  5600: a0 = a0 | s0\n  5603: a0 = a0 | s1\n  5606: a0 = a0 <<64 32\n  5609: a5 = a5 | a0\n  5612: s1 = u64 [sp + 336]\n  5616: a0 = u64 [sp + 256]\n  5620: i64 s1 = s1 + a0\n  5623: a0 = a5 >>64 56\n  5626: u8 [s1 + 7] = a0\n  5629: a0 = a5 >>64 48\n  5632: u8 [s1 + 6] = a0\n  5635: a0 = a5 >>64 40\n  5638: u8 [s1 + 5] = a0\n  5641: a0 = a5 >>64 32\n  5644: u8 [s1 + 4] = a0\n  5647: a0 = a5 >>64 24\n  5650: u8 [s1 + 3] = a0\n  5653: a0 = a5 >>64 16\n  5656: u8 [s1 + 2] = a0\n  5659: a0 = a5 >>64 8\n  5662: u8 [s1 + 1] = a0\n  5665: a0 = a4 >>64 56\n  5668: u8 [s1 + 15] = a0\n  5671: a0 = a4 >>64 48\n  5674: u8 [s1 + 14] = a0\n  5677: a0 = a4 >>64 40\n  5680: u8 [s1 + 13] = a0\n  5683: a0 = a4 >>64 32\n  5686: u8 [s1 + 12] = a0\n  5689: a0 = a4 >>64 24\n  5692: u8 [s1 + 11] = a0\n  5695: a0 = a4 >>64 16\n  5698: u8 [s1 + 10] = a0\n  5701: a0 = a4 >>64 8\n  5704: u8 [s1 + 9] = a0\n  5707: a0 = a3 >>64 56\n  5710: u8 [s1 + 23] = a0\n  5713: a0 = a3 >>64 48\n  5716: u8 [s1 + 22] = a0\n  5719: a0 = a3 >>64 40\n  5722: u8 [s1 + 21] = a0\n  5725: a0 = a3 >>64 32\n  5728: u8 [s1 + 20] = a0\n  5731: a0 = a3 >>64 24\n  5734: u8 [s1 + 19] = a0\n  5737: a0 = a3 >>64 16\n  5740: u8 [s1 + 18] = a0\n  5743: a0 = a3 >>64 8\n  5746: u8 [s1 + 17] = a0\n  5749: a0 = a2 >>64 56\n  5752: u8 [s1 + 31] = a0\n  5755: a0 = a2 >>64 48\n  5758: u8 [s1 + 30] = a0\n  5761: a0 = a2 >>64 40\n  5764: u8 [s1 + 29] = a0\n  5767: a0 = a2 >>64 32\n  5770: u8 [s1 + 28] = a0\n  5773: a0 = a2 >>64 24\n  5776: u8 [s1 + 27] = a0\n  5779: a0 = a2 >>64 16\n  5782: u8 [s1 + 26] = a0\n  5785: a0 = a2 >>64 8\n  5788: u8 [s1 + 25] = a0\n  5791: u8 [s1 + 8] = a4\n  5794: u8 [s1] = a5\n  5796: u8 [s1 + 16] = a3\n  5799: u8 [s1 + 24] = a2\n  5802: jump @217 if a1 != 0\n      : @206 (gas: 10)\n  5806: a0 = u64 [sp + 280]\n  5810: a1 = u64 [sp + 272]\n  5814: a0 = a0 | a1\n  5817: t0 = 0xffffffe0\n  5827: a1 = u64 [sp + 264]\n  5831: a1 = a1 <u t0\n  5834: s0 = u64 [sp + 288]\n  5838: a1 = 0 if s0 != 0\n  5840: a1 = 0 if a0 != 0\n  5842: jump @217 if a1 == 0\n      : @207 (gas: 13)\n  5846: s0 = reverse a5\n  5848: s1 = reverse a4\n  5850: a1 = reverse a3\n  5852: a2 = reverse a2\n  5854: a0 = a2 | s1\n  5857: u64 [sp + 272] = a1\n  5861: a1 = a1 | s0\n  5864: a0 = a0 | a1\n  5867: a0 = a0 >>64 32\n  5870: a1 = a1 | s1\n  5873: a1 = a1 <<64 32\n  5876: a0 = a0 | a1\n  5879: jump @217 if a0 != 0\n      : @208 (gas: 6)\n  5883: a0 = t1 + 0x20\n  5886: u64 [sp + 280] = a2\n  5890: a1 = a2 + 0x0\n  5892: u64 [sp + 264] = a0\n  5896: u64 [sp + 288] = a1\n  5900: ra = 148, jump @0\n      : @209 [@dyn 74] (gas: 1)\n  5906: jump @217 if a0 == 0\n      : @210 (gas: 7)\n  5910: u64 [sp + 248] = s1\n  5914: u64 [sp + 256] = s0\n  5918: a0 = u64 [sp + 320]\n  5922: a0 = a0 + 0x20\n  5925: u64 [sp + 240] = a0\n  5929: a1 = u64 [sp + 288]\n  5933: ra = 150, jump @0\n      : @211 [@dyn 75] (gas: 1)\n  5939: jump @217 if a0 == 0\n      : @212 (gas: 21)\n  5943: a0 = u64 [sp + 328]\n  5947: i64 s0 = i64 a0 + 0x20\n  5950: a0 = s0 <u a0\n  5953: a1 = u64 [sp + 312]\n  5957: i64 s1 = a1 + a0\n  5960: a1 = s1 <u a1\n  5963: a1 = a0 if a0 == 0\n  5966: a0 = u64 [sp + 304]\n  5970: i64 a1 = a1 + a0\n  5973: u64 [sp + 320] = a1\n  5977: a0 = a1 <u a0\n  5980: a1 = u64 [sp + 296]\n  5984: i64 a0 = a0 + a1\n  5987: u64 [sp + 328] = a0\n  5991: a1 = u64 [sp + 336]\n  5995: a0 = u64 [sp + 264]\n  5999: i64 a0 = a0 + a1\n  6002: a2 = u64 [sp + 240]\n  6006: i64 a1 = a1 + a2\n  6009: a2 = u64 [sp + 288]\n  6013: ra = 152, jump @12\n      : @213 [@dyn 76] (gas: 30)\n  6019: a3 = u64 [sp + 280]\n  6023: u64 [sp + 312] = s0\n  6027: i64 a0 = a3 + s0\n  6030: s0 = a0 <u a3\n  6033: u64 [sp + 304] = s1\n  6037: a4 = u64 [sp + 272]\n  6041: i64 a2 = a4 + s1\n  6044: i64 a2 = a2 + s0\n  6047: a5 = a2 ^ a4\n  6050: a4 = a2 <u a4\n  6053: a4 = s0 if a5 == 0\n  6056: a5 = u64 [sp + 248]\n  6060: a1 = u64 [sp + 320]\n  6064: i64 a1 = a1 + a5\n  6067: i64 a4 = a4 + a1\n  6070: s0 = a4 <u a1\n  6073: a1 = a1 <u a5\n  6076: a5 = u64 [sp + 256]\n  6080: s1 = u64 [sp + 328]\n  6084: i64 a5 = a5 + s1\n  6087: i64 a1 = a1 + a5\n  6090: i64 a1 = a1 + s0\n  6093: a0 = a0 | a4\n  6096: a1 = a1 | a2\n  6099: a0 = a0 | a1\n  6102: a0 = a0 >>64 32\n  6105: a1 = a1 | a4\n  6108: a1 = a1 <<64 32\n  6111: a0 = a0 | a1\n  6114: jump @217 if a0 != 0\n      : @214 (gas: 5)\n  6118: s0 = u64 [sp + 312]\n  6122: s0 = s0 + a3\n  6125: a1 = 0x20\n  6128: a0 = s0\n  6130: ra = 154, jump @0\n      : @215 [@dyn 77] (gas: 1)\n  6136: jump @217 if a0 == 0\n      : @216 (gas: 59)\n  6140: a0 = u64 [sp + 336]\n  6144: i64 s0 = s0 + a0\n  6147: u8 [s0 + 31] = 0\n  6150: u8 [s0 + 30] = 0\n  6153: u8 [s0 + 29] = 0\n  6156: u8 [s0 + 28] = 0\n  6159: u8 [s0 + 27] = 0\n  6162: u8 [s0 + 26] = 0\n  6165: u8 [s0 + 25] = 0\n  6168: u8 [s0 + 24] = 0\n  6171: u8 [s0 + 23] = 0\n  6174: u8 [s0 + 22] = 0\n  6177: u8 [s0 + 21] = 0\n  6180: u8 [s0 + 20] = 0\n  6183: u8 [s0 + 19] = 0\n  6186: u8 [s0 + 18] = 0\n  6189: u8 [s0 + 17] = 0\n  6192: u8 [s0 + 16] = 0\n  6195: u8 [s0 + 15] = 0\n  6198: u8 [s0 + 14] = 0\n  6201: u8 [s0 + 13] = 0\n  6204: u8 [s0 + 12] = 0\n  6207: u8 [s0 + 11] = 0\n  6210: u8 [s0 + 10] = 0\n  6213: u8 [s0 + 9] = 0\n  6216: u8 [s0 + 8] = 0\n  6219: u8 [s0 + 7] = 0\n  6222: u8 [s0 + 6] = 0\n  6225: u8 [s0 + 5] = 0\n  6228: u8 [s0 + 4] = 0\n  6231: u8 [s0 + 3] = 0\n  6234: u8 [s0 + 2] = 0\n  6237: u8 [s0 + 1] = 0\n  6240: u8 [s0 + 0] = 0\n  6242: a0 = u64 [sp + 280]\n  6246: i64 a0 = i64 a0 + 0x1f\n  6249: a1 = 0x1ffffffe0\n  6259: a0 = a0 & a1\n  6262: a1 = u64 [sp + 312]\n  6266: i64 a1 = a1 + a0\n  6269: a0 = a1 <u a0\n  6272: a2 = u64 [sp + 304]\n  6276: i64 a2 = a2 + a0\n  6279: a0 = 0 if a2 != 0\n  6281: a3 = u64 [sp + 320]\n  6285: i64 a0 = a0 + a3\n  6288: a3 = a0 <u a3\n  6291: a4 = u64 [sp + 328]\n  6295: i64 a3 = a3 + a4\n  6298: a4 = u64 [sp]\n  6300: u64 [a4] = a1\n  6302: u64 [a4 + 8] = a2\n  6305: u64 [a4 + 16] = a0\n  6308: u64 [a4 + 24] = a3\n  6311: ra = u64 [sp + 360]\n  6315: s0 = u64 [sp + 352]\n  6319: s1 = u64 [sp + 344]\n  6323: i64 sp = i64 sp + 0x170\n  6327: ret\n      : @217 (gas: 1)\n  6329: trap\n      : @218 (gas: 8)\n  6330: a0 = u64 [sp + 368]\n  6334: a1 = u64 [sp + 376]\n  6338: a2 = u64 [sp + 360]\n  6342: a3 = u64 [sp + 352]\n  6346: a1 = a1 | a2\n  6349: a0 = a0 | a3\n  6352: a0 = a0 | a1\n  6355: jump @223 if a0 != 0\n      : @219 (gas: 27)\n  6358: a1 = u64 [0x30460]\n  6363: a2 = u64 [0x30478]\n  6368: a3 = u64 [0x30468]\n  6373: a0 = u64 [0x30470]\n  6378: i64 a4 = i64 a1 - i64 4\n  6381: a1 = a4 <u a1\n  6384: i64 a5 = a3 + a1\n  6387: i64 a5 = i64 a5 - i64 1\n  6390: s1 = a5 ^ a3\n  6393: a3 = a5 <u a3\n  6396: a3 = a1 if s1 == 0\n  6399: i64 a1 = i64 a0 - i64 1\n  6402: i64 a3 = a3 + a1\n  6405: a1 = a3 <u a1\n  6408: a0 = a0 <u 0x1\n  6411: i64 a2 = i64 a2 - i64 a0\n  6414: i64 a1 = a1 + a2\n  6417: a0 = a1 >s 0\n  6419: a2 = a3 >u 0x0\n  6421: a2 = a0 if a1 != 0\n  6424: a1 = a1 | a3\n  6427: a0 = a5 >u 0x0\n  6429: a3 = a4 <u 0x40\n  6432: a3 = a3 ^ 0x1\n  6435: a3 = a0 if a5 != 0\n  6438: a3 = a2 if a1 != 0\n  6441: jump @226 if a3 != 0\n      : @220 (gas: 3)\n  6444: a0 = 0x0\n  6446: a1 = 0x0\n  6448: ra = 156, jump @0\n      : @221 [@dyn 78] (gas: 1)\n  6454: jump @225 if a0 == 0\n      : @222 (gas: 6)\n  6457: a1 = 0x20050\n  6462: a1 = a1 + 0x0\n  6464: a0 = 0x1\n  6467: a2 = 0x0\n  6469: ecalli 11 // 'seal_return'\n  6471: fallthrough\n      : @223 (gas: 3)\n  6472: a0 = 0x0\n  6474: a1 = 0x0\n  6476: ra = 158, jump @0\n      : @224 [@dyn 79] (gas: 1)\n  6482: jump @254 if a0 != 0\n      : @225 (gas: 1)\n  6486: trap\n      : @226 (gas: 27)\n  6487: a1 = u64 [0x3007c]\n  6492: a2 = u64 [0x30074]\n  6497: a3 = u64 [0x3006c]\n  6502: a4 = u64 [0x30064]\n  6507: a5 = reverse a1\n  6509: t2 = reverse a2\n  6511: a2 = reverse a3\n  6513: a1 = reverse a4\n  6515: a3 = u64 [0x3009c]\n  6520: a4 = u64 [0x30094]\n  6525: s1 = u64 [0x3008c]\n  6530: a0 = u64 [0x30084]\n  6535: a3 = reverse a3\n  6537: u64 [sp + 216] = a3\n  6541: a3 = reverse a4\n  6543: u64 [sp + 208] = a3\n  6547: a3 = reverse s1\n  6549: u64 [sp + 200] = a3\n  6553: s1 = reverse a0\n  6555: u64 [sp + 8] = a1\n  6558: i64 a0 = i64 sp + 0x140\n  6562: a1 = 0x4\n  6565: u64 [sp] = a2\n  6567: a2 = 0x0\n  6569: a3 = 0x0\n  6571: a4 = 0x0\n  6573: ra = 160, jump @191\n      : @227 [@dyn 80] (gas: 11)\n  6579: a4 = u64 [sp + 344]\n  6583: a3 = u64 [sp + 336]\n  6587: a2 = u64 [sp + 328]\n  6591: a1 = u64 [sp + 320]\n  6595: u64 [sp + 8] = s1\n  6598: i64 a0 = i64 sp + 0x120\n  6602: a5 = u64 [sp + 200]\n  6606: u64 [sp] = a5\n  6608: a5 = u64 [sp + 216]\n  6612: t2 = u64 [sp + 208]\n  6616: ra = 162, jump @191\n      : @228 [@dyn 81] (gas: 34)\n  6622: a0 = u64 [sp + 312]\n  6626: a1 = u64 [sp + 304]\n  6630: a2 = u64 [sp + 296]\n  6634: a3 = u64 [sp + 288]\n  6638: u64 [sp + 216] = a0\n  6642: u64 [sp + 472] = a0\n  6646: u64 [sp + 192] = a1\n  6650: u64 [sp + 464] = a1\n  6654: u64 [sp + 208] = a2\n  6658: u64 [sp + 456] = a2\n  6662: u64 [sp + 200] = a3\n  6666: u64 [sp + 448] = a3\n  6670: u64 [sp + 440] = 0\n  6674: u64 [sp + 432] = 0\n  6678: u64 [sp + 424] = 0\n  6682: u64 [sp + 416] = 0\n  6686: u64 [sp + 400] = 0\n  6690: u64 [sp + 408] = 0\n  6694: u64 [sp + 392] = 0\n  6698: u64 [sp + 384] = 256\n  6704: a1 = sp + 0x1c0\n  6708: a3 = sp + 0x1a0\n  6712: a4 = sp + 0x180\n  6716: a2 = 0xffffffff\n  6719: a0 = 0x0\n  6721: ecalli 5 // 'get_storage'\n  6723: a0 = u64 [sp + 432]\n  6727: u64 [sp + 176] = a0\n  6731: a0 = u64 [sp + 424]\n  6735: u64 [sp + 184] = a0\n  6739: s1 = u64 [sp + 416]\n  6743: a0 = 0x40\n  6746: a1 = 0x20\n  6749: ra = 164, jump @0\n      : @229 [@dyn 82] (gas: 1)\n  6755: jump @225 if a0 == 0\n      : @230 (gas: 31)\n  6759: u64 [sp + 136] = s1\n  6763: a1 = u64 [sp + 200]\n  6767: i64 a1 = i64 a1 + 0x1\n  6770: a2 = a1 <u 0x1\n  6773: a0 = u64 [sp + 208]\n  6777: i64 a2 = a2 + a0\n  6780: a0 = a1 | a2\n  6783: a3 = a0 <u 0x1\n  6786: a0 = u64 [sp + 192]\n  6790: i64 a3 = a3 + a0\n  6793: a4 = a3 <u a0\n  6796: a0 = u64 [sp + 216]\n  6800: i64 a4 = a4 + a0\n  6803: s1 = 0x20050\n  6808: a0 = u64 [0x200a0]\n  6813: a5 = u64 [0x200a8]\n  6818: t1 = u64 [0x20098]\n  6823: u64 [sp + 144] = s1\n  6827: t0 = u64 [0x20090]\n  6832: s1 = reverse a0\n  6834: a5 = reverse a5\n  6836: u64 [sp + 152] = a5\n  6840: t1 = reverse t1\n  6842: u64 [sp + 168] = t1\n  6846: a0 = reverse t0\n  6848: u64 [sp + 160] = a0\n  6852: u64 [sp + 8] = a0\n  6855: i64 a0 = i64 sp + 0x100\n  6859: u64 [sp] = t1\n  6861: t2 = s1\n  6863: ra = 166, jump @1496\n      : @231 [@dyn 83] (gas: 25)\n  6870: ra = u64 [sp + 264]\n  6874: a1 = u64 [sp + 280]\n  6878: t0 = u64 [sp + 256]\n  6882: a3 = u64 [sp + 272]\n  6886: a4 = ra ^ s1\n  6889: a5 = ra <u s1\n  6892: a0 = u64 [sp + 152]\n  6896: t1 = t0 <u a0\n  6899: a5 = t1 if a4 == 0\n  6902: a2 = u64 [sp + 168]\n  6906: i64 a4 = i64 a3 - i64 a2\n  6909: i64 t2 = i64 a4 - i64 a5\n  6912: a4 = a4 <u a5\n  6915: a5 = a3 <u a2\n  6918: a3 = u64 [sp + 160]\n  6922: i64 a1 = i64 a1 - i64 a3\n  6925: i64 a1 = i64 a1 - i64 a5\n  6928: i64 a1 = i64 a1 - i64 a4\n  6931: i64 a5 = i64 ra - i64 s1\n  6934: i64 a5 = i64 a5 - i64 t1\n  6937: i64 a4 = i64 t0 - i64 a0\n  6940: u64 [sp] = a1\n  6942: u64 [sp + 128] = s1\n  6946: a1 = s1\n  6948: ra = 168, jump @119\n      : @232 [@dyn 84] (gas: 114)\n  6954: a1 = u64 [sp + 200]\n  6958: i64 a0 = i64 a1 + 0x2\n  6961: a1 = a0 <u a1\n  6964: a3 = u64 [sp + 208]\n  6968: i64 a2 = a3 + a1\n  6971: a3 = a2 <u a3\n  6974: a3 = a1 if a1 == 0\n  6977: s1 = u64 [sp + 192]\n  6981: i64 a3 = a3 + s1\n  6984: a1 = a3 <u s1\n  6987: a4 = u64 [sp + 216]\n  6991: i64 a1 = a1 + a4\n  6994: u64 [sp + 472] = a1\n  6998: u64 [sp + 464] = a3\n  7002: u64 [sp + 456] = a2\n  7006: u64 [sp + 448] = a0\n  7010: u64 [sp + 440] = 0\n  7014: u64 [sp + 432] = 0\n  7018: u64 [sp + 424] = 0\n  7022: u64 [sp + 416] = 0\n  7026: u64 [sp + 400] = 0\n  7030: u64 [sp + 408] = 0\n  7034: u64 [sp + 392] = 0\n  7038: u64 [sp + 384] = 256\n  7044: a1 = sp + 0x1c0\n  7048: a3 = sp + 0x1a0\n  7052: a4 = sp + 0x180\n  7056: a2 = 0xffffffff\n  7059: a0 = 0x0\n  7061: ecalli 5 // 'get_storage'\n  7063: a1 = u64 [sp + 200]\n  7067: i64 a0 = i64 a1 + 0x3\n  7070: a1 = a0 <u a1\n  7073: a3 = u64 [sp + 208]\n  7077: i64 a2 = a3 + a1\n  7080: a3 = a2 <u a3\n  7083: a3 = a1 if a1 == 0\n  7086: i64 a3 = a3 + s1\n  7089: a1 = a3 <u s1\n  7092: a4 = u64 [sp + 216]\n  7096: i64 a1 = a1 + a4\n  7099: u64 [sp + 472] = a1\n  7103: a1 = u64 [sp + 440]\n  7107: u64 [sp + 120] = a1\n  7110: u64 [sp + 464] = a3\n  7114: a1 = u64 [sp + 432]\n  7118: u64 [sp + 112] = a1\n  7121: u64 [sp + 456] = a2\n  7125: a1 = u64 [sp + 424]\n  7129: u64 [sp + 104] = a1\n  7132: u64 [sp + 448] = a0\n  7136: a0 = u64 [sp + 416]\n  7140: u64 [sp + 96] = a0\n  7143: u64 [sp + 440] = 0\n  7147: u64 [sp + 432] = 0\n  7151: u64 [sp + 424] = 0\n  7155: u64 [sp + 416] = 0\n  7159: u64 [sp + 400] = 0\n  7163: u64 [sp + 408] = 0\n  7167: u64 [sp + 392] = 0\n  7171: u64 [sp + 384] = 256\n  7177: a1 = sp + 0x1c0\n  7181: a3 = sp + 0x1a0\n  7185: a4 = sp + 0x180\n  7189: a2 = 0xffffffff\n  7192: a0 = 0x0\n  7194: ecalli 5 // 'get_storage'\n  7196: a0 = u64 [sp + 440]\n  7200: u64 [sp + 88] = a0\n  7203: a0 = u64 [sp + 432]\n  7207: u64 [sp + 80] = a0\n  7210: a0 = u64 [sp + 424]\n  7214: u64 [sp + 72] = a0\n  7217: a0 = u64 [sp + 416]\n  7221: u64 [sp + 64] = a0\n  7224: a1 = u64 [sp + 200]\n  7228: i64 a0 = i64 a1 + 0x4\n  7231: a1 = a0 <u a1\n  7234: a3 = u64 [sp + 208]\n  7238: i64 a2 = a3 + a1\n  7241: a3 = a2 <u a3\n  7244: a3 = a1 if a1 == 0\n  7247: i64 a3 = a3 + s1\n  7250: a1 = a3 <u s1\n  7253: a4 = u64 [sp + 216]\n  7257: i64 a1 = a1 + a4\n  7260: u64 [sp + 472] = a1\n  7264: u64 [sp + 464] = a3\n  7268: u64 [sp + 456] = a2\n  7272: u64 [sp + 448] = a0\n  7276: u64 [sp + 440] = 0\n  7280: u64 [sp + 432] = 0\n  7284: u64 [sp + 424] = 0\n  7288: u64 [sp + 416] = 0\n  7292: u64 [sp + 400] = 0\n  7296: u64 [sp + 408] = 0\n  7300: u64 [sp + 392] = 0\n  7304: u64 [sp + 384] = 256\n  7310: a1 = sp + 0x1c0\n  7314: a3 = sp + 0x1a0\n  7318: a4 = sp + 0x180\n  7322: a2 = 0xffffffff\n  7325: a0 = 0x0\n  7327: ecalli 5 // 'get_storage'\n  7329: a0 = u64 [sp + 440]\n  7333: u64 [sp + 208] = a0\n  7337: a0 = u64 [sp + 432]\n  7341: u64 [sp + 216] = a0\n  7345: s1 = u64 [sp + 424]\n  7349: a0 = u64 [sp + 416]\n  7353: u64 [sp + 200] = a0\n  7357: a0 = 0x40\n  7360: a1 = 0x20\n  7363: ra = 170, jump @0\n      : @233 [@dyn 85] (gas: 1)\n  7369: jump @225 if a0 == 0\n      : @234 (gas: 18)\n  7373: u64 [sp + 192] = s1\n  7377: a5 = u64 [sp + 144]\n  7381: a0 = u64 [a5 + 72]\n  7384: a1 = u64 [a5 + 64]\n  7387: a2 = u64 [a5 + 80]\n  7390: a3 = u64 [a5 + 88]\n  7393: a4 = reverse a0\n  7395: t0 = reverse a1\n  7397: a2 = reverse a2\n  7399: s1 = reverse a3\n  7401: a0 = a2 | t0\n  7404: a1 = s1 | a4\n  7407: a1 = a1 | a0\n  7410: a1 = a1 >>64 32\n  7413: a0 = a0 | a4\n  7416: a0 = a0 <<64 32\n  7419: a0 = a0 | a1\n  7422: jump @225 if a0 != 0\n      : @235 (gas: 7)\n  7426: u64 [sp + 40] = t0\n  7429: u64 [sp + 48] = a4\n  7432: u64 [sp + 56] = a2\n  7435: a0 = s1 + 0x0\n  7437: a1 = 0x20\n  7440: u64 [sp + 32] = a0\n  7443: ra = 172, jump @0\n      : @236 [@dyn 86] (gas: 1)\n  7449: jump @225 if a0 == 0\n      : @237 (gas: 74)\n  7453: a0 = u64 [sp + 176]\n  7457: a0 = a0 <<64 32\n  7460: a0 = a0 >>64 32\n  7463: a4 = u64 [sp + 144]\n  7467: t1 = u64 [sp + 32]\n  7470: i64 a4 = a4 + t1\n  7473: a0 = reverse a0\n  7475: a1 = u64 [sp + 184]\n  7479: a1 = reverse a1\n  7481: a2 = u64 [sp + 136]\n  7485: a2 = reverse a2\n  7487: u8 [a4 + 24] = a2\n  7490: u8 [a4 + 11] = 0\n  7493: u8 [a4 + 10] = 0\n  7496: u8 [a4 + 9] = 0\n  7499: u8 [a4 + 7] = 0\n  7502: u8 [a4 + 6] = 0\n  7505: u8 [a4 + 5] = 0\n  7508: u8 [a4 + 4] = 0\n  7511: u8 [a4 + 3] = 0\n  7514: u8 [a4 + 2] = 0\n  7517: u8 [a4 + 1] = 0\n  7520: a3 = a2 >>64 56\n  7523: u8 [a4 + 31] = a3\n  7526: a3 = a2 >>64 48\n  7529: u8 [a4 + 30] = a3\n  7532: a3 = a2 >>64 40\n  7535: u8 [a4 + 29] = a3\n  7538: a3 = a2 >>64 32\n  7541: u8 [a4 + 28] = a3\n  7544: a3 = a2 >>64 24\n  7547: u8 [a4 + 27] = a3\n  7550: a3 = a2 >>64 16\n  7553: u8 [a4 + 26] = a3\n  7556: a2 = a2 >>64 8\n  7559: u8 [a4 + 25] = a2\n  7562: u8 [a4 + 16] = a1\n  7565: a2 = a1 >>64 56\n  7568: u8 [a4 + 23] = a2\n  7571: a2 = a1 >>64 48\n  7574: u8 [a4 + 22] = a2\n  7577: a2 = a1 >>64 40\n  7580: u8 [a4 + 21] = a2\n  7583: a2 = a1 >>64 32\n  7586: u8 [a4 + 20] = a2\n  7589: a2 = a1 >>64 24\n  7592: u8 [a4 + 19] = a2\n  7595: a2 = a1 >>64 16\n  7598: u8 [a4 + 18] = a2\n  7601: a1 = a1 >>64 8\n  7604: u8 [a4 + 17] = a1\n  7607: u8 [a4 + 8] = a0\n  7610: a1 = a0 >>64 56\n  7613: u8 [a4 + 15] = a1\n  7616: a1 = a0 >>64 48\n  7619: u8 [a4 + 14] = a1\n  7622: a1 = a0 >>64 40\n  7625: u8 [a4 + 13] = a1\n  7628: a0 = a0 >>64 32\n  7631: u8 [a4 + 12] = a0\n  7634: a2 = u64 [sp + 48]\n  7637: a0 = a2 >u 0x0\n  7639: a3 = u64 [sp + 40]\n  7642: a5 = a3 >u 0x0\n  7644: a5 = a0 if a3 == 0\n  7647: a0 = 0xffffffdf\n  7657: a0 = a0 <u s1\n  7660: a1 = u64 [sp + 56]\n  7663: t0 = a1 >u 0x0\n  7665: a0 = t0 if a1 != 0\n  7668: a2 = a2 | a3\n  7671: a0 = a5 if a2 != 0\n  7674: u8 [a4 + 0] = 0\n  7676: jump @225 if a0 != 0\n      : @238 (gas: 9)\n  7680: u64 [sp + 136] = a2\n  7684: u64 [sp + 176] = t0\n  7688: u64 [sp + 184] = a5\n  7692: u64 [sp + 16] = a4\n  7695: u64 [sp + 24] = s1\n  7698: s1 = t1 + 0x20\n  7701: a1 = 0x20\n  7704: a0 = s1\n  7706: ra = 174, jump @0\n      : @239 [@dyn 87] (gas: 1)\n  7712: jump @225 if a0 == 0\n      : @240 (gas: 55)\n  7716: a0 = u64 [sp + 24]\n  7719: i64 a5 = i64 a0 + 0xa0\n  7723: a0 = a5 <u a0\n  7726: a3 = s1\n  7728: s1 = u64 [sp + 56]\n  7731: i64 t2 = s1 + a0\n  7734: a1 = t2 <u s1\n  7737: a1 = a0 if a0 == 0\n  7740: a2 = u64 [sp + 48]\n  7743: i64 a0 = a2 + a1\n  7746: a1 = a0 <u a2\n  7749: a2 = u64 [sp + 40]\n  7752: i64 a1 = a1 + a2\n  7755: a2 = u64 [sp + 144]\n  7759: i64 a2 = a2 + a3\n  7762: u8 [a2 + 31] = 160\n  7767: u8 [a2 + 30] = 0\n  7770: u8 [a2 + 29] = 0\n  7773: u8 [a2 + 28] = 0\n  7776: u8 [a2 + 27] = 0\n  7779: u8 [a2 + 26] = 0\n  7782: u8 [a2 + 25] = 0\n  7785: u8 [a2 + 24] = 0\n  7788: u8 [a2 + 23] = 0\n  7791: u8 [a2 + 22] = 0\n  7794: u8 [a2 + 21] = 0\n  7797: u8 [a2 + 20] = 0\n  7800: u8 [a2 + 19] = 0\n  7803: u8 [a2 + 18] = 0\n  7806: u8 [a2 + 17] = 0\n  7809: u8 [a2 + 16] = 0\n  7812: u8 [a2 + 15] = 0\n  7815: u8 [a2 + 14] = 0\n  7818: u8 [a2 + 13] = 0\n  7821: u8 [a2 + 12] = 0\n  7824: u8 [a2 + 11] = 0\n  7827: u8 [a2 + 10] = 0\n  7830: u8 [a2 + 9] = 0\n  7833: u8 [a2 + 8] = 0\n  7836: u8 [a2 + 7] = 0\n  7839: u8 [a2 + 6] = 0\n  7842: u8 [a2 + 5] = 0\n  7845: u8 [a2 + 4] = 0\n  7848: u8 [a2 + 3] = 0\n  7851: u8 [a2 + 2] = 0\n  7854: u8 [a2 + 1] = 0\n  7857: u8 [a2 + 0] = 0\n  7859: u64 [sp] = a0\n  7861: i64 a0 = i64 sp + 0xe0\n  7865: u64 [sp + 8] = a1\n  7868: a1 = u64 [sp + 152]\n  7872: a2 = u64 [sp + 128]\n  7876: a3 = u64 [sp + 168]\n  7880: a4 = u64 [sp + 160]\n  7884: ra = 176, jump @199\n      : @241 [@dyn 88] (gas: 9)\n  7890: a0 = 0xffffffbf\n  7900: a2 = u64 [sp + 24]\n  7903: a0 = a0 <u a2\n  7906: a2 = u64 [sp + 176]\n  7910: a0 = a2 if s1 != 0\n  7913: a1 = u64 [sp + 184]\n  7917: a2 = u64 [sp + 136]\n  7921: a0 = a1 if a2 != 0\n  7924: jump @225 if a0 != 0\n      : @242 (gas: 13)\n  7928: a0 = u64 [sp + 248]\n  7932: u64 [sp + 152] = a0\n  7936: a0 = u64 [sp + 240]\n  7940: u64 [sp + 128] = a0\n  7944: a0 = u64 [sp + 232]\n  7948: u64 [sp + 160] = a0\n  7952: a0 = u64 [sp + 224]\n  7956: u64 [sp + 168] = a0\n  7960: a0 = u64 [sp + 32]\n  7963: s1 = a0 + 0x40\n  7966: a1 = 0x20\n  7969: a0 = s1\n  7971: ra = 178, jump @0\n      : @243 [@dyn 89] (gas: 1)\n  7977: jump @225 if a0 == 0\n      : @244 (gas: 80)\n  7981: a0 = u64 [sp + 144]\n  7985: i64 s1 = s1 + a0\n  7988: a0 = u64 [sp + 96]\n  7991: a0 = reverse a0\n  7993: a1 = a0 >>64 56\n  7996: u8 [s1 + 31] = a1\n  7999: a1 = a0 >>64 48\n  8002: u8 [s1 + 30] = a1\n  8005: a1 = a0 >>64 40\n  8008: u8 [s1 + 29] = a1\n  8011: a1 = a0 >>64 32\n  8014: u8 [s1 + 28] = a1\n  8017: a1 = a0 >>64 24\n  8020: u8 [s1 + 27] = a1\n  8023: a1 = a0 >>64 16\n  8026: u8 [s1 + 26] = a1\n  8029: a1 = u64 [sp + 104]\n  8032: a1 = reverse a1\n  8034: u8 [s1 + 24] = a0\n  8037: a0 = a0 >>64 8\n  8040: u8 [s1 + 25] = a0\n  8043: a0 = a1 >>64 56\n  8046: u8 [s1 + 23] = a0\n  8049: a0 = a1 >>64 48\n  8052: u8 [s1 + 22] = a0\n  8055: a0 = a1 >>64 40\n  8058: u8 [s1 + 21] = a0\n  8061: a0 = a1 >>64 32\n  8064: u8 [s1 + 20] = a0\n  8067: a0 = a1 >>64 24\n  8070: u8 [s1 + 19] = a0\n  8073: a0 = a1 >>64 16\n  8076: u8 [s1 + 18] = a0\n  8079: a0 = u64 [sp + 112]\n  8082: a0 = reverse a0\n  8084: u8 [s1 + 16] = a1\n  8087: a1 = a1 >>64 8\n  8090: u8 [s1 + 17] = a1\n  8093: a1 = a0 >>64 56\n  8096: u8 [s1 + 15] = a1\n  8099: a1 = a0 >>64 48\n  8102: u8 [s1 + 14] = a1\n  8105: a1 = a0 >>64 40\n  8108: u8 [s1 + 13] = a1\n  8111: a1 = a0 >>64 32\n  8114: u8 [s1 + 12] = a1\n  8117: a1 = a0 >>64 24\n  8120: u8 [s1 + 11] = a1\n  8123: a1 = a0 >>64 16\n  8126: u8 [s1 + 10] = a1\n  8129: a1 = u64 [sp + 120]\n  8132: a1 = reverse a1\n  8134: u8 [s1 + 8] = a0\n  8137: a0 = a0 >>64 8\n  8140: u8 [s1 + 9] = a0\n  8143: u8 [s1] = a1\n  8145: a0 = a1 >>64 56\n  8148: u8 [s1 + 7] = a0\n  8151: a0 = a1 >>64 48\n  8154: u8 [s1 + 6] = a0\n  8157: a0 = a1 >>64 40\n  8160: u8 [s1 + 5] = a0\n  8163: a0 = a1 >>64 32\n  8166: u8 [s1 + 4] = a0\n  8169: a0 = a1 >>64 24\n  8172: u8 [s1 + 3] = a0\n  8175: a0 = a1 >>64 16\n  8178: u8 [s1 + 2] = a0\n  8181: a1 = a1 >>64 8\n  8184: a0 = 0xffffff9f\n  8194: a2 = u64 [sp + 24]\n  8197: a0 = a0 <u a2\n  8200: a2 = u64 [sp + 56]\n  8203: a3 = u64 [sp + 176]\n  8207: a0 = a3 if a2 != 0\n  8210: a2 = u64 [sp + 184]\n  8214: a3 = u64 [sp + 136]\n  8218: a0 = a2 if a3 != 0\n  8221: u8 [s1 + 1] = a1\n  8224: jump @225 if a0 != 0\n      : @245 (gas: 5)\n  8228: a0 = u64 [sp + 32]\n  8231: s1 = a0 + 0x60\n  8234: a1 = 0x20\n  8237: a0 = s1\n  8239: ra = 180, jump @0\n      : @246 [@dyn 90] (gas: 1)\n  8245: jump @225 if a0 == 0\n      : @247 (gas: 80)\n  8249: a0 = 0xffffff7f\n  8259: a1 = u64 [sp + 24]\n  8262: a0 = a0 <u a1\n  8265: a1 = u64 [sp + 56]\n  8268: a2 = u64 [sp + 176]\n  8272: a0 = a2 if a1 != 0\n  8275: a1 = u64 [sp + 184]\n  8279: a2 = u64 [sp + 136]\n  8283: a0 = a1 if a2 != 0\n  8286: a1 = u64 [sp + 144]\n  8290: i64 s1 = s1 + a1\n  8293: a1 = u64 [sp + 64]\n  8296: a1 = reverse a1\n  8298: a2 = a1 >>64 56\n  8301: u8 [s1 + 31] = a2\n  8304: a2 = a1 >>64 48\n  8307: u8 [s1 + 30] = a2\n  8310: a2 = a1 >>64 40\n  8313: u8 [s1 + 29] = a2\n  8316: a2 = a1 >>64 32\n  8319: u8 [s1 + 28] = a2\n  8322: a2 = a1 >>64 24\n  8325: u8 [s1 + 27] = a2\n  8328: a2 = a1 >>64 16\n  8331: u8 [s1 + 26] = a2\n  8334: a2 = u64 [sp + 72]\n  8337: a2 = reverse a2\n  8339: u8 [s1 + 24] = a1\n  8342: a1 = a1 >>64 8\n  8345: u8 [s1 + 25] = a1\n  8348: a1 = a2 >>64 56\n  8351: u8 [s1 + 23] = a1\n  8354: a1 = a2 >>64 48\n  8357: u8 [s1 + 22] = a1\n  8360: a1 = a2 >>64 40\n  8363: u8 [s1 + 21] = a1\n  8366: a1 = a2 >>64 32\n  8369: u8 [s1 + 20] = a1\n  8372: a1 = a2 >>64 24\n  8375: u8 [s1 + 19] = a1\n  8378: a1 = a2 >>64 16\n  8381: u8 [s1 + 18] = a1\n  8384: a1 = u64 [sp + 80]\n  8387: a1 = reverse a1\n  8389: u8 [s1 + 16] = a2\n  8392: a2 = a2 >>64 8\n  8395: u8 [s1 + 17] = a2\n  8398: a2 = a1 >>64 56\n  8401: u8 [s1 + 15] = a2\n  8404: a2 = a1 >>64 48\n  8407: u8 [s1 + 14] = a2\n  8410: a2 = a1 >>64 40\n  8413: u8 [s1 + 13] = a2\n  8416: a2 = a1 >>64 32\n  8419: u8 [s1 + 12] = a2\n  8422: a2 = a1 >>64 24\n  8425: u8 [s1 + 11] = a2\n  8428: a2 = a1 >>64 16\n  8431: u8 [s1 + 10] = a2\n  8434: a2 = u64 [sp + 88]\n  8437: a2 = reverse a2\n  8439: u8 [s1 + 8] = a1\n  8442: a1 = a1 >>64 8\n  8445: u8 [s1 + 9] = a1\n  8448: a1 = a2 >>64 56\n  8451: u8 [s1 + 7] = a1\n  8454: a1 = a2 >>64 48\n  8457: u8 [s1 + 6] = a1\n  8460: a1 = a2 >>64 40\n  8463: u8 [s1 + 5] = a1\n  8466: a1 = a2 >>64 32\n  8469: u8 [s1 + 4] = a1\n  8472: a1 = a2 >>64 24\n  8475: u8 [s1 + 3] = a1\n  8478: a1 = a2 >>64 16\n  8481: u8 [s1 + 2] = a1\n  8484: u8 [s1] = a2\n  8486: a2 = a2 >>64 8\n  8489: u8 [s1 + 1] = a2\n  8492: jump @225 if a0 != 0\n      : @248 (gas: 5)\n  8496: a0 = u64 [sp + 32]\n  8499: s1 = a0 + 0x80\n  8503: a1 = 0x20\n  8506: a0 = s1\n  8508: ra = 182, jump @0\n      : @249 [@dyn 91] (gas: 1)\n  8514: jump @225 if a0 == 0\n      : @250 (gas: 101)\n  8518: a0 = u64 [sp + 144]\n  8522: i64 s1 = s1 + a0\n  8525: a0 = u64 [sp + 200]\n  8529: a2 = reverse a0\n  8531: a0 = a2 >>64 56\n  8534: u8 [s1 + 31] = a0\n  8537: a0 = a2 >>64 48\n  8540: u8 [s1 + 30] = a0\n  8543: a0 = a2 >>64 40\n  8546: u8 [s1 + 29] = a0\n  8549: a0 = a2 >>64 32\n  8552: u8 [s1 + 28] = a0\n  8555: a0 = a2 >>64 24\n  8558: u8 [s1 + 27] = a0\n  8561: a0 = a2 >>64 16\n  8564: u8 [s1 + 26] = a0\n  8567: a0 = u64 [sp + 208]\n  8571: ra = reverse a0\n  8573: a1 = u64 [sp + 216]\n  8577: a1 = reverse a1\n  8579: a3 = u64 [sp + 192]\n  8583: a3 = reverse a3\n  8585: u8 [s1 + 24] = a2\n  8588: a2 = a2 >>64 8\n  8591: u8 [s1 + 25] = a2\n  8594: u8 [s1 + 16] = a3\n  8597: a2 = a3 >>64 56\n  8600: u8 [s1 + 23] = a2\n  8603: a2 = a3 >>64 48\n  8606: u8 [s1 + 22] = a2\n  8609: a2 = a3 >>64 40\n  8612: u8 [s1 + 21] = a2\n  8615: a2 = a3 >>64 32\n  8618: u8 [s1 + 20] = a2\n  8621: a2 = a3 >>64 24\n  8624: u8 [s1 + 19] = a2\n  8627: a2 = a3 >>64 16\n  8630: u8 [s1 + 18] = a2\n  8633: a3 = a3 >>64 8\n  8636: u8 [s1 + 17] = a3\n  8639: u8 [s1 + 8] = a1\n  8642: a2 = a1 >>64 56\n  8645: u8 [s1 + 15] = a2\n  8648: a2 = a1 >>64 48\n  8651: u8 [s1 + 14] = a2\n  8654: a2 = a1 >>64 40\n  8657: u8 [s1 + 13] = a2\n  8660: a2 = a1 >>64 32\n  8663: u8 [s1 + 12] = a2\n  8666: a2 = a1 >>64 24\n  8669: u8 [s1 + 11] = a2\n  8672: a2 = a1 >>64 16\n  8675: u8 [s1 + 10] = a2\n  8678: a1 = a1 >>64 8\n  8681: u8 [s1 + 9] = a1\n  8684: a1 = ra >>64 56\n  8687: u8 [s1 + 7] = a1\n  8690: a1 = ra >>64 48\n  8693: u8 [s1 + 6] = a1\n  8696: a1 = ra >>64 40\n  8699: u8 [s1 + 5] = a1\n  8702: a1 = ra >>64 32\n  8705: u8 [s1 + 4] = a1\n  8708: a1 = ra >>64 24\n  8711: u8 [s1 + 3] = a1\n  8714: a1 = ra >>64 16\n  8717: u8 [s1 + 2] = a1\n  8720: t2 = u64 [sp + 168]\n  8724: a0 = u64 [sp + 24]\n  8727: t1 = t2 <u a0\n  8730: a1 = u64 [sp + 56]\n  8733: a2 = u64 [sp + 160]\n  8737: a4 = a2 ^ a1\n  8740: a3 = a2 <u a1\n  8743: a3 = t1 if a4 == 0\n  8746: a4 = u64 [sp + 48]\n  8749: a5 = u64 [sp + 128]\n  8753: i64 a0 = i64 a5 - i64 a4\n  8756: a4 = a5 <u a4\n  8759: a5 = u64 [sp + 40]\n  8762: t0 = u64 [sp + 152]\n  8766: i64 a5 = i64 t0 - i64 a5\n  8769: i64 a5 = i64 a5 - i64 a4\n  8772: a4 = a0 <u a3\n  8775: i64 a5 = i64 a5 - i64 a4\n  8778: i64 a0 = i64 a0 - i64 a3\n  8781: i64 a3 = i64 a2 - i64 a1\n  8784: i64 a3 = i64 a3 - i64 t1\n  8787: a3 = a3 | a5\n  8790: a1 = u64 [sp + 24]\n  8793: i64 a1 = i64 t2 - i64 a1\n  8796: a1 = a1 | a0\n  8799: a1 = a1 | a3\n  8802: a2 = a3 | a0\n  8805: a1 = a1 >>64 32\n  8808: a2 = a2 <<64 32\n  8811: a1 = a1 | a2\n  8814: u8 [s1] = ra\n  8816: a0 = ra >>64 8\n  8819: u8 [s1 + 1] = a0\n  8822: jump @225 if a1 != 0\n      : @251 (gas: 6)\n  8826: a0 = u64 [sp + 24]\n  8829: s1 = u64 [sp + 168]\n  8833: s1 = s1 - a0\n  8836: a0 = u64 [sp + 32]\n  8839: a1 = s1\n  8841: ra = 184, jump @0\n      : @252 [@dyn 92] (gas: 1)\n  8847: jump @225 if a0 == 0\n      : @253 (gas: 5)\n  8851: a1 = i32 [sp + 16]\n  8854: a0 = 0x0\n  8856: a2 = s1\n  8858: ecalli 11 // 'seal_return'\n  8860: fallthrough\n      : @254 (gas: 7)\n  8861: a1 = 0x20050\n  8866: a1 = a1 + 0x0\n  8868: a0 = 0x1\n  8871: a2 = 0x0\n  8873: ra = 0xba\n  8877: ecalli 11 // 'seal_return'\n  8879: fallthrough\n      : @255 [@dyn 93] (gas: 33)\n  8880: i64 sp = i64 sp - i64 288\n  8884: u64 [sp + 280] = ra\n  8888: u64 [sp + 272] = s0\n  8892: u64 [sp + 264] = s1\n  8896: i64 s0 = i64 sp + 0x120\n  8900: sp = sp & 0xffffffe0\n  8903: a1 = u64 [0x30460]\n  8908: a2 = u64 [0x30478]\n  8913: a3 = u64 [0x30468]\n  8918: a0 = u64 [0x30470]\n  8923: i64 a4 = i64 a1 - i64 4\n  8926: a1 = a4 <u a1\n  8929: i64 a5 = a3 + a1\n  8932: i64 a5 = i64 a5 - i64 1\n  8935: s1 = a5 ^ a3\n  8938: a3 = a5 <u a3\n  8941: a3 = a1 if s1 == 0\n  8944: i64 a1 = i64 a0 - i64 1\n  8947: i64 a3 = a3 + a1\n  8950: a1 = a3 <u a1\n  8953: a0 = a0 <u 0x1\n  8956: i64 a2 = i64 a2 - i64 a0\n  8959: i64 a1 = a1 + a2\n  8962: a0 = a1 >s 0\n  8964: a2 = a3 >u 0x0\n  8966: a2 = a0 if a1 != 0\n  8969: a1 = a1 | a3\n  8972: a0 = a5 >u 0x0\n  8974: a3 = a4 <u 0x40\n  8977: a3 = a3 ^ 0x1\n  8980: a3 = a0 if a5 != 0\n  8983: a3 = a2 if a1 != 0\n  8986: jump @259 if a3 != 0\n      : @256 (gas: 3)\n  8989: a0 = 0x0\n  8991: a1 = 0x0\n  8993: ra = 188, jump @0\n      : @257 [@dyn 94] (gas: 1)\n  8999: jump @269 if a0 == 0\n      : @258 (gas: 6)\n  9003: a1 = 0x20050\n  9008: a1 = a1 + 0x0\n  9010: a0 = 0x1\n  9013: a2 = 0x0\n  9015: ecalli 11 // 'seal_return'\n  9017: fallthrough\n      : @259 (gas: 32)\n  9018: a1 = u64 [0x3007c]\n  9023: a2 = u64 [0x30074]\n  9028: a3 = u64 [0x3006c]\n  9033: a4 = u64 [0x30064]\n  9038: a5 = reverse a1\n  9040: t2 = reverse a2\n  9042: u64 [sp + 72] = t2\n  9045: s1 = reverse a3\n  9047: u64 [sp + 80] = s1\n  9050: a4 = reverse a4\n  9052: u64 [sp + 88] = a4\n  9055: a1 = u64 [0x3009c]\n  9060: a2 = u64 [0x30094]\n  9065: a3 = u64 [0x3008c]\n  9070: a0 = u64 [0x30084]\n  9075: a1 = reverse a1\n  9077: u64 [sp + 64] = a1\n  9080: a1 = reverse a2\n  9082: u64 [sp + 56] = a1\n  9085: a1 = reverse a3\n  9087: u64 [sp + 48] = a1\n  9090: a0 = reverse a0\n  9092: u64 [sp + 40] = a0\n  9095: u64 [sp + 8] = a4\n  9098: i64 a0 = i64 sp + 0x80\n  9102: a1 = 0x3\n  9105: u64 [sp] = s1\n  9107: a2 = 0x0\n  9109: a3 = 0x0\n  9111: a4 = 0x0\n  9113: s1 = a5\n  9115: ra = 190, jump @191\n      : @260 [@dyn 95] (gas: 31)\n  9121: a0 = u64 [sp + 152]\n  9125: a1 = u64 [sp + 144]\n  9129: a2 = u64 [sp + 136]\n  9133: a3 = u64 [sp + 128]\n  9137: u64 [sp + 248] = a0\n  9141: u64 [sp + 240] = a1\n  9145: u64 [sp + 232] = a2\n  9149: u64 [sp + 224] = a3\n  9153: u64 [sp + 216] = 0\n  9157: u64 [sp + 208] = 0\n  9161: u64 [sp + 200] = 0\n  9165: u64 [sp + 192] = 0\n  9169: u64 [sp + 176] = 0\n  9173: u64 [sp + 184] = 0\n  9177: u64 [sp + 168] = 0\n  9181: u64 [sp + 160] = 256\n  9187: a1 = sp + 0xe0\n  9191: a3 = sp + 0xc0\n  9195: a4 = sp + 0xa0\n  9199: a2 = 0xffffffff\n  9202: a0 = 0x0\n  9204: ecalli 5 // 'get_storage'\n  9206: a0 = u64 [sp + 192]\n  9210: a1 = u32 [sp + 208]\n  9214: a2 = u64 [sp + 200]\n  9218: a0 = a0 | a1\n  9221: a0 = a0 | a2\n  9224: a0 = a0 >u 0x0\n  9226: a2 = 0x0\n  9228: a3 = 0x0\n  9230: ra = 192, jump @958\n      : @261 [@dyn 96] (gas: 12)\n  9237: a0 = u64 [sp + 88]\n  9240: u64 [sp + 8] = a0\n  9243: i64 a0 = i64 sp + 0x60\n  9246: a1 = 0x3\n  9249: a2 = u64 [sp + 80]\n  9252: u64 [sp] = a2\n  9254: a2 = 0x0\n  9256: a3 = 0x0\n  9258: a4 = 0x0\n  9260: a5 = s1\n  9262: t2 = u64 [sp + 72]\n  9265: ra = 194, jump @191\n      : @262 [@dyn 97] (gas: 35)\n  9271: a0 = u64 [sp + 96]\n  9274: a1 = u64 [sp + 120]\n  9277: a2 = u64 [sp + 104]\n  9280: a3 = u64 [sp + 112]\n  9283: i64 a4 = i64 a0 + 0x6\n  9286: a0 = a4 <u a0\n  9289: i64 a5 = a2 + a0\n  9292: a2 = a5 <u a2\n  9295: a2 = a0 if a0 == 0\n  9298: i64 a2 = a2 + a3\n  9301: a0 = a2 <u a3\n  9304: i64 a0 = a0 + a1\n  9307: u64 [sp + 224] = a4\n  9311: u64 [sp + 232] = a5\n  9315: u64 [sp + 240] = a2\n  9319: u64 [sp + 248] = a0\n  9323: u64 [sp + 216] = 0\n  9327: u64 [sp + 208] = 0\n  9331: u64 [sp + 200] = 0\n  9335: u64 [sp + 192] = 0\n  9339: u64 [sp + 176] = 0\n  9343: u64 [sp + 184] = 0\n  9347: u64 [sp + 168] = 0\n  9351: u64 [sp + 160] = 256\n  9357: a1 = sp + 0xe0\n  9361: a3 = sp + 0xc0\n  9365: a4 = sp + 0xa0\n  9369: a2 = 0xffffffff\n  9372: a0 = 0x0\n  9374: ecalli 5 // 'get_storage'\n  9376: a0 = u8 [sp + 192]\n  9380: a0 = a0 <u 0x1\n  9383: a2 = 0x0\n  9385: a3 = 0x0\n  9387: ra = 196, jump @982\n      : @263 [@dyn 98] (gas: 36)\n  9394: a0 = u64 [sp + 40]\n  9397: u64 [sp] = a0\n  9399: a0 = s1\n  9401: a1 = u64 [sp + 72]\n  9404: a2 = u64 [sp + 80]\n  9407: a3 = u64 [sp + 88]\n  9410: a4 = u64 [sp + 64]\n  9413: a5 = u64 [sp + 56]\n  9416: t2 = u64 [sp + 48]\n  9419: ra = 0xc6\n  9423: i64 sp = i64 sp - i64 576\n  9427: u64 [sp + 568] = ra\n  9431: u64 [sp + 560] = s0\n  9435: u64 [sp + 552] = s1\n  9439: i64 s0 = i64 sp + 0x240\n  9443: sp = sp & 0xffffffe0\n  9446: s1 = sp\n  9448: u64 [s1 + 32] = t2\n  9451: u64 [s1 + 48] = a5\n  9454: u64 [s1 + 40] = a4\n  9457: t2 = a1\n  9459: a5 = a0\n  9461: i64 sp = i64 sp - i64 16\n  9464: u64 [s1 + 96] = a3\n  9467: u64 [sp + 8] = a3\n  9470: i64 a0 = i64 s1 + 0x140\n  9474: a1 = 0x3\n  9477: u64 [s1 + 104] = a2\n  9480: u64 [sp] = a2\n  9482: a2 = 0x0\n  9484: a3 = 0x0\n  9486: a4 = 0x0\n  9488: u64 [s1 + 112] = a5\n  9491: u64 [s1 + 120] = t2\n  9494: ra = 0x332\n  9498: jump @191\n      : @264 [@dyn 99] (gas: 3)\n  9501: a0 = 0x40\n  9504: a1 = 0x20\n  9507: ra = 200, jump @0\n      : @265 [@dyn 100] (gas: 1)\n  9513: jump @269 if a0 == 0\n      : @266 (gas: 16)\n  9516: s1 = 0x20050\n  9521: a0 = u64 [0x20098]\n  9526: a1 = u64 [0x200a8]\n  9531: a2 = u64 [0x20090]\n  9536: a3 = u64 [0x200a0]\n  9541: a4 = reverse a0\n  9543: a0 = reverse a1\n  9545: a1 = a0 | a4\n  9548: a2 = a2 | a3\n  9551: a2 = reverse a2\n  9553: a1 = a1 | a2\n  9556: a1 = a1 >>64 32\n  9559: a2 = a2 | a4\n  9562: a2 = a2 <<64 32\n  9565: a1 = a1 | a2\n  9568: jump @269 if a1 != 0\n      : @267 (gas: 3)\n  9571: a0 = a0 + 0x0\n  9573: u64 [sp + 88] = a0\n  9576: ra = 202, jump @0\n      : @268 [@dyn 101] (gas: 1)\n  9582: jump @270 if a0 != 0\n      : @269 (gas: 1)\n  9585: trap\n      : @270 (gas: 7)\n  9586: a1 = u64 [sp + 88]\n  9589: a1 = a1 + s1\n  9592: a0 = 0x0\n  9594: a2 = 0x0\n  9596: ra = 0xcc\n  9600: ecalli 11 // 'seal_return'\n  9602: fallthrough\n      : @271 [@dyn 102] (gas: 17)\n  9603: i64 sp = i64 sp - i64 96\n  9606: u64 [sp + 88] = ra\n  9609: u64 [sp + 80] = s0\n  9612: u64 [sp + 72] = s1\n  9615: i64 s0 = i64 sp + 0x60\n  9618: sp = sp & 0xffffffe0\n  9621: s1 = sp\n  9623: u64 [s1 + 48] = t2\n  9626: u64 [s1 + 56] = a5\n  9629: u64 [s1 + 16] = a4\n  9632: u64 [s1 + 24] = a3\n  9635: u64 [s1 + 32] = a2\n  9638: u64 [s1 + 40] = a1\n  9641: u64 [s1 + 8] = a0\n  9644: a1 = 0x20\n  9647: a0 = 0x0\n  9649: ra = 206, jump @0\n      : @272 [@dyn 103] (gas: 1)\n  9655: jump @278 if a0 == 0\n      : @273 (gas: 17)\n  9659: a0 = u64 [s0]\n  9661: a0 = a0 <<64 32\n  9664: a0 = a0 >>64 32\n  9667: a0 = reverse a0\n  9669: a1 = u64 [s1 + 48]\n  9672: a1 = reverse a1\n  9674: a2 = u64 [s1 + 56]\n  9677: a2 = reverse a2\n  9679: a3 = 0x20050\n  9684: u64 [0x20050] = 0\n  9689: u64 [0x20068] = a2\n  9694: u64 [0x20060] = a1\n  9699: u64 [s1 + 56] = a3\n  9702: u64 [0x20058] = a0\n  9707: a0 = 0x20\n  9710: a1 = 0x20\n  9713: ra = 208, jump @0\n      : @274 [@dyn 104] (gas: 1)\n  9719: jump @278 if a0 == 0\n      : @275 (gas: 16)\n  9722: a0 = u64 [s1 + 16]\n  9725: a0 = reverse a0\n  9727: a1 = u64 [s1 + 24]\n  9730: a1 = reverse a1\n  9732: a2 = u64 [s1 + 32]\n  9735: a2 = reverse a2\n  9737: a3 = u64 [s1 + 40]\n  9740: a3 = reverse a3\n  9742: a4 = u64 [s1 + 56]\n  9745: u64 [a4 + 56] = a3\n  9748: u64 [a4 + 48] = a2\n  9751: u64 [a4 + 40] = a1\n  9754: u64 [a4 + 32] = a0\n  9757: a1 = 0x40\n  9760: a0 = 0x0\n  9762: ra = 210, jump @0\n      : @276 [@dyn 105] (gas: 1)\n  9768: jump @278 if a0 == 0\n      : @277 (gas: 28)\n  9771: i64 a0 = i64 sp - i64 32\n  9774: a2 = a0 & 0xffffffe0\n  9777: u64 [s1 + 48] = a2\n  9780: sp = a2\n  9782: a0 = i32 [s1 + 56]\n  9785: a2 = a2 + 0x0\n  9787: a1 = 0x40\n  9790: ecalli 6 // 'hash_keccak_256'\n  9792: a3 = u64 [s1 + 48]\n  9795: a0 = u64 [a3 + 24]\n  9798: a1 = u64 [a3 + 16]\n  9801: a2 = u64 [a3 + 8]\n  9804: a3 = u64 [a3]\n  9806: a0 = reverse a0\n  9808: a1 = reverse a1\n  9810: a2 = reverse a2\n  9812: a3 = reverse a3\n  9814: a4 = u64 [s1 + 8]\n  9817: u64 [a4 + 24] = a3\n  9820: u64 [a4 + 16] = a2\n  9823: u64 [a4 + 8] = a1\n  9826: u64 [a4] = a0\n  9828: i64 sp = i64 s0 - i64 96\n  9831: ra = u64 [sp + 88]\n  9834: s0 = u64 [sp + 80]\n  9837: s1 = u64 [sp + 72]\n  9840: i64 sp = i64 sp + 0x60\n  9843: ret\n      : @278 (gas: 1)\n  9845: trap\n      : @279 (gas: 8)\n  9846: a0 = u64 [sp + 112]\n  9849: a1 = u64 [sp + 120]\n  9852: a2 = u64 [sp + 104]\n  9855: a3 = u64 [sp + 96]\n  9858: a1 = a1 | a2\n  9861: a0 = a0 | a3\n  9864: a0 = a0 | a1\n  9867: jump @284 if a0 != 0\n      : @280 (gas: 27)\n  9870: a1 = u64 [0x30460]\n  9875: a2 = u64 [0x30478]\n  9880: a3 = u64 [0x30468]\n  9885: a0 = u64 [0x30470]\n  9890: i64 a4 = i64 a1 - i64 4\n  9893: a1 = a4 <u a1\n  9896: i64 a5 = a3 + a1\n  9899: i64 a5 = i64 a5 - i64 1\n  9902: s1 = a5 ^ a3\n  9905: a3 = a5 <u a3\n  9908: a3 = a1 if s1 == 0\n  9911: i64 a1 = i64 a0 - i64 1\n  9914: i64 a3 = a3 + a1\n  9917: a1 = a3 <u a1\n  9920: a0 = a0 <u 0x1\n  9923: i64 a2 = i64 a2 - i64 a0\n  9926: i64 a1 = a1 + a2\n  9929: a0 = a1 >s 0\n  9931: a2 = a3 >u 0x0\n  9933: a2 = a0 if a1 != 0\n  9936: a1 = a1 | a3\n  9939: a0 = a5 >u 0x0\n  9941: a3 = a4 <u 0x20\n  9944: a3 = a3 ^ 0x1\n  9947: a3 = a0 if a5 != 0\n  9950: a3 = a2 if a1 != 0\n  9953: jump @287 if a3 != 0\n      : @281 (gas: 3)\n  9956: a0 = 0x0\n  9958: a1 = 0x0\n  9960: ra = 212, jump @0\n      : @282 [@dyn 106] (gas: 1)\n  9966: jump @286 if a0 == 0\n      : @283 (gas: 6)\n  9969: a1 = 0x20050\n  9974: a1 = a1 + 0x0\n  9976: a0 = 0x1\n  9979: a2 = 0x0\n  9981: ecalli 11 // 'seal_return'\n  9983: fallthrough\n      : @284 (gas: 3)\n  9984: a0 = 0x0\n  9986: a1 = 0x0\n  9988: ra = 214, jump @0\n      : @285 [@dyn 107] (gas: 1)\n  9994: jump @300 if a0 != 0\n      : @286 (gas: 1)\n  9998: trap\n      : @287 (gas: 12)\n  9999: a0 = u64 [0x30064]\n 10004: a3 = u64 [0x3006c]\n 10009: a2 = reverse a0\n 10011: a0 = reverse a3\n 10013: a3 = 0x100000000\n 10023: a3 = a3 ^ a0\n 10026: a3 = a3 | a2\n 10029: a4 = a0 >>64 32\n 10032: a4 = a4 <u 0x1\n 10035: a4 = 0 if a2 != 0\n 10037: a4 = 0 if a3 == 0\n 10039: jump @297 if a4 == 0\n      : @288 (gas: 12)\n 10043: a3 = u64 [0x30074]\n 10048: a1 = u64 [0x3007c]\n 10053: t2 = reverse a3\n 10055: a5 = reverse a1\n 10057: u64 [sp] = a0\n 10059: i64 a0 = i64 sp + 0x40\n 10062: a1 = 0x5\n 10065: u64 [sp + 8] = a2\n 10068: a2 = 0x0\n 10070: a3 = 0x0\n 10072: a4 = 0x0\n 10074: ra = 216, jump @271\n      : @289 [@dyn 108] (gas: 32)\n 10080: a0 = u64 [sp + 88]\n 10083: a1 = u64 [sp + 80]\n 10086: a2 = u64 [sp + 72]\n 10089: a3 = u64 [sp + 64]\n 10092: u64 [sp + 216] = a0\n 10096: u64 [sp + 208] = a1\n 10100: u64 [sp + 200] = a2\n 10104: u64 [sp + 192] = a3\n 10108: u64 [sp + 184] = 0\n 10112: u64 [sp + 176] = 0\n 10116: u64 [sp + 168] = 0\n 10120: u64 [sp + 160] = 0\n 10124: u64 [sp + 144] = 0\n 10128: u64 [sp + 152] = 0\n 10132: u64 [sp + 136] = 0\n 10136: u64 [sp + 128] = 256\n 10142: a1 = sp + 0xc0\n 10146: a3 = sp + 0xa0\n 10150: a4 = sp + 0x80\n 10154: a2 = 0xffffffff\n 10157: a0 = 0x0\n 10159: ecalli 5 // 'get_storage'\n 10161: a0 = u64 [sp + 184]\n 10165: u64 [sp + 40] = a0\n 10168: a0 = u64 [sp + 176]\n 10172: u64 [sp + 48] = a0\n 10175: a0 = u64 [sp + 168]\n 10179: u64 [sp + 56] = a0\n 10182: s1 = u64 [sp + 160]\n 10186: a0 = 0x40\n 10189: a1 = 0x20\n 10192: ra = 218, jump @0\n      : @290 [@dyn 109] (gas: 1)\n 10198: jump @286 if a0 == 0\n      : @291 (gas: 17)\n 10202: u64 [sp + 32] = s1\n 10205: s1 = 0x20050\n 10210: a0 = u64 [0x20098]\n 10215: a1 = u64 [0x200a8]\n 10220: a2 = u64 [0x20090]\n 10225: a3 = u64 [0x200a0]\n 10230: a4 = reverse a0\n 10232: a0 = reverse a1\n 10234: a1 = a0 | a4\n 10237: a2 = a2 | a3\n 10240: a2 = reverse a2\n 10242: a1 = a1 | a2\n 10245: a1 = a1 >>64 32\n 10248: a2 = a2 | a4\n 10251: a2 = a2 <<64 32\n 10254: a1 = a1 | a2\n 10257: jump @286 if a1 != 0\n      : @292 (gas: 4)\n 10261: a0 = a0 + 0x0\n 10263: a1 = 0x20\n 10266: u64 [sp + 24] = a0\n 10269: ra = 220, jump @0\n      : @293 [@dyn 110] (gas: 1)\n 10275: jump @286 if a0 == 0\n      : @294 (gas: 72)\n 10279: a0 = u64 [sp + 24]\n 10282: i64 s1 = s1 + a0\n 10285: a1 = u64 [sp + 40]\n 10288: a5 = reverse a1\n 10290: a1 = u64 [sp + 48]\n 10293: a1 = reverse a1\n 10295: a2 = u64 [sp + 56]\n 10298: a2 = reverse a2\n 10300: a3 = u64 [sp + 32]\n 10303: a3 = reverse a3\n 10305: u8 [s1 + 24] = a3\n 10308: a4 = a3 >>64 56\n 10311: u8 [s1 + 31] = a4\n 10314: a4 = a3 >>64 48\n 10317: u8 [s1 + 30] = a4\n 10320: a4 = a3 >>64 40\n 10323: u8 [s1 + 29] = a4\n 10326: a4 = a3 >>64 32\n 10329: u8 [s1 + 28] = a4\n 10332: a4 = a3 >>64 24\n 10335: u8 [s1 + 27] = a4\n 10338: a4 = a3 >>64 16\n 10341: u8 [s1 + 26] = a4\n 10344: a3 = a3 >>64 8\n 10347: u8 [s1 + 25] = a3\n 10350: u8 [s1 + 16] = a2\n 10353: a3 = a2 >>64 56\n 10356: u8 [s1 + 23] = a3\n 10359: a3 = a2 >>64 48\n 10362: u8 [s1 + 22] = a3\n 10365: a3 = a2 >>64 40\n 10368: u8 [s1 + 21] = a3\n 10371: a3 = a2 >>64 32\n 10374: u8 [s1 + 20] = a3\n 10377: a3 = a2 >>64 24\n 10380: u8 [s1 + 19] = a3\n 10383: a3 = a2 >>64 16\n 10386: u8 [s1 + 18] = a3\n 10389: a2 = a2 >>64 8\n 10392: u8 [s1 + 17] = a2\n 10395: u8 [s1 + 8] = a1\n 10398: a2 = a1 >>64 56\n 10401: u8 [s1 + 15] = a2\n 10404: a2 = a1 >>64 48\n 10407: u8 [s1 + 14] = a2\n 10410: a2 = a1 >>64 40\n 10413: u8 [s1 + 13] = a2\n 10416: a2 = a1 >>64 32\n 10419: u8 [s1 + 12] = a2\n 10422: a2 = a1 >>64 24\n 10425: u8 [s1 + 11] = a2\n 10428: a2 = a1 >>64 16\n 10431: u8 [s1 + 10] = a2\n 10434: a1 = a1 >>64 8\n 10437: u8 [s1 + 9] = a1\n 10440: u8 [s1] = a5\n 10442: a1 = a5 >>64 56\n 10445: u8 [s1 + 7] = a1\n 10448: a1 = a5 >>64 48\n 10451: u8 [s1 + 6] = a1\n 10454: a1 = a5 >>64 40\n 10457: u8 [s1 + 5] = a1\n 10460: a1 = a5 >>64 32\n 10463: u8 [s1 + 4] = a1\n 10466: a1 = a5 >>64 24\n 10469: u8 [s1 + 3] = a1\n 10472: a1 = a5 >>64 16\n 10475: u8 [s1 + 2] = a1\n 10478: a5 = a5 >>64 8\n 10481: u8 [s1 + 1] = a5\n 10484: a1 = 0x20\n 10487: ra = 222, jump @0\n      : @295 [@dyn 111] (gas: 1)\n 10493: jump @286 if a0 == 0\n      : @296 (gas: 5)\n 10497: a1 = s1 + 0x0\n 10499: a2 = 0x20\n 10502: a0 = 0x0\n 10504: ecalli 11 // 'seal_return'\n 10506: fallthrough\n      : @297 (gas: 3)\n 10507: a0 = 0x0\n 10509: a1 = 0x0\n 10511: ra = 224, jump @0\n      : @298 [@dyn 112] (gas: 1)\n 10517: jump @286 if a0 == 0\n      : @299 (gas: 6)\n 10521: a1 = 0x20050\n 10526: a1 = a1 + 0x0\n 10528: a0 = 0x1\n 10531: a2 = 0x0\n 10533: ecalli 11 // 'seal_return'\n 10535: fallthrough\n      : @300 (gas: 7)\n 10536: a1 = 0x20050\n 10541: a1 = a1 + 0x0\n 10543: a0 = 0x1\n 10546: a2 = 0x0\n 10548: ra = 0xe2\n 10552: ecalli 11 // 'seal_return'\n 10554: fallthrough\n      : @301 [@dyn 113] (gas: 13)\n 10555: i64 sp = i64 sp - i64 640\n 10559: u64 [sp + 632] = ra\n 10563: u64 [sp + 624] = s0\n 10567: u64 [sp + 616] = s1\n 10571: i64 s0 = i64 sp + 0x280\n 10575: sp = sp & 0xffffffe0\n 10578: u64 [sp + 504] = 0\n 10582: u64 [sp + 496] = 0\n 10586: u64 [sp + 488] = 0\n 10590: u64 [sp + 480] = 0\n 10594: a0 = sp + 0x1e0\n 10598: ecalli 14 // 'value_transferred'\n 10600: fallthrough\n      : @302 (gas: 8)\n 10601: a0 = u64 [sp + 496]\n 10605: a1 = u64 [sp + 504]\n 10609: a2 = u64 [sp + 488]\n 10613: a3 = u64 [sp + 480]\n 10617: a1 = a1 | a2\n 10620: a0 = a0 | a3\n 10623: a0 = a0 | a1\n 10626: jump @307 if a0 != 0\n      : @303 (gas: 27)\n 10629: a1 = u64 [0x30460]\n 10634: a2 = u64 [0x30478]\n 10639: a3 = u64 [0x30468]\n 10644: a0 = u64 [0x30470]\n 10649: i64 a4 = i64 a1 - i64 4\n 10652: a1 = a4 <u a1\n 10655: i64 a5 = a3 + a1\n 10658: i64 a5 = i64 a5 - i64 1\n 10661: s1 = a5 ^ a3\n 10664: a3 = a5 <u a3\n 10667: a3 = a1 if s1 == 0\n 10670: i64 a1 = i64 a0 - i64 1\n 10673: i64 a3 = a3 + a1\n 10676: a1 = a3 <u a1\n 10679: a0 = a0 <u 0x1\n 10682: i64 a2 = i64 a2 - i64 a0\n 10685: i64 a1 = a1 + a2\n 10688: a0 = a1 >s 0\n 10690: a2 = a3 >u 0x0\n 10692: a2 = a0 if a1 != 0\n 10695: a1 = a1 | a3\n 10698: a0 = a5 >u 0x0\n 10700: a3 = a4 <u 0x20\n 10703: a3 = a3 ^ 0x1\n 10706: a3 = a0 if a5 != 0\n 10709: a3 = a2 if a1 != 0\n 10712: jump @310 if a3 != 0\n      : @304 (gas: 3)\n 10715: a0 = 0x0\n 10717: a1 = 0x0\n 10719: ra = 228, jump @0\n      : @305 [@dyn 114] (gas: 1)\n 10725: jump @309 if a0 == 0\n      : @306 (gas: 6)\n 10728: a1 = 0x20050\n 10733: a1 = a1 + 0x0\n 10735: a0 = 0x1\n 10738: a2 = 0x0\n 10740: ecalli 11 // 'seal_return'\n 10742: fallthrough\n      : @307 (gas: 3)\n 10743: a0 = 0x0\n 10745: a1 = 0x0\n 10747: ra = 230, jump @0\n      : @308 [@dyn 115] (gas: 1)\n 10753: jump @351 if a0 != 0\n      : @309 (gas: 1)\n 10757: trap\n      : @310 (gas: 16)\n 10758: a1 = u64 [0x3007c]\n 10763: a2 = u64 [0x30074]\n 10768: a3 = u64 [0x3006c]\n 10773: a0 = u64 [0x30064]\n 10778: a5 = reverse a1\n 10780: t2 = reverse a2\n 10782: a2 = reverse a3\n 10784: a0 = reverse a0\n 10786: u64 [sp + 8] = a0\n 10789: i64 a0 = i64 sp + 0x1c0\n 10793: a1 = 0x3\n 10796: u64 [sp] = a2\n 10798: a2 = 0x0\n 10800: a3 = 0x0\n 10802: a4 = 0x0\n 10804: ra = 232, jump @191\n      : @311 [@dyn 116] (gas: 34)\n 10810: a0 = u64 [sp + 472]\n 10814: a1 = u64 [sp + 464]\n 10818: a2 = u64 [sp + 456]\n 10822: a3 = u64 [sp + 448]\n 10826: u64 [sp + 296] = a0\n 10830: u64 [sp + 600] = a0\n 10834: u64 [sp + 288] = a1\n 10838: u64 [sp + 592] = a1\n 10842: u64 [sp + 312] = a2\n 10846: u64 [sp + 584] = a2\n 10850: u64 [sp + 304] = a3\n 10854: u64 [sp + 576] = a3\n 10858: u64 [sp + 568] = 0\n 10862: u64 [sp + 560] = 0\n 10866: u64 [sp + 552] = 0\n 10870: u64 [sp + 544] = 0\n 10874: u64 [sp + 528] = 0\n 10878: u64 [sp + 536] = 0\n 10882: u64 [sp + 520] = 0\n 10886: u64 [sp + 512] = 256\n 10892: a1 = sp + 0x240\n 10896: a3 = sp + 0x220\n 10900: a4 = sp + 0x200\n 10904: a2 = 0xffffffff\n 10907: a0 = 0x0\n 10909: ecalli 5 // 'get_storage'\n 10911: a0 = u64 [sp + 560]\n 10915: u64 [sp + 272] = a0\n 10919: a0 = u64 [sp + 552]\n 10923: u64 [sp + 280] = a0\n 10927: s1 = u64 [sp + 544]\n 10931: a0 = 0x40\n 10934: a1 = 0x20\n 10937: ra = 234, jump @0\n      : @312 [@dyn 117] (gas: 1)\n 10943: jump @309 if a0 == 0\n      : @313 (gas: 31)\n 10947: u64 [sp + 232] = s1\n 10951: a1 = u64 [sp + 304]\n 10955: i64 a1 = i64 a1 + 0x1\n 10958: a2 = a1 <u 0x1\n 10961: a0 = u64 [sp + 312]\n 10965: i64 a2 = a2 + a0\n 10968: a0 = a1 | a2\n 10971: a3 = a0 <u 0x1\n 10974: a0 = u64 [sp + 288]\n 10978: i64 a3 = a3 + a0\n 10981: a4 = a3 <u a0\n 10984: a0 = u64 [sp + 296]\n 10988: i64 a4 = a4 + a0\n 10991: s1 = 0x20050\n 10996: a0 = u64 [0x200a0]\n 11001: a5 = u64 [0x200a8]\n 11006: t1 = u64 [0x20098]\n 11011: u64 [sp + 240] = s1\n 11015: t0 = u64 [0x20090]\n 11020: s1 = reverse a0\n 11022: a5 = reverse a5\n 11024: u64 [sp + 248] = a5\n 11028: t1 = reverse t1\n 11030: u64 [sp + 264] = t1\n 11034: a0 = reverse t0\n 11036: u64 [sp + 256] = a0\n 11040: u64 [sp + 8] = a0\n 11043: i64 a0 = i64 sp + 0x1a0\n 11047: u64 [sp] = t1\n 11049: t2 = s1\n 11051: ra = 236, jump @1496\n      : @314 [@dyn 118] (gas: 25)\n 11058: ra = u64 [sp + 424]\n 11062: a1 = u64 [sp + 440]\n 11066: t0 = u64 [sp + 416]\n 11070: a3 = u64 [sp + 432]\n 11074: a4 = ra ^ s1\n 11077: a5 = ra <u s1\n 11080: a0 = u64 [sp + 248]\n 11084: t1 = t0 <u a0\n 11087: a5 = t1 if a4 == 0\n 11090: a2 = u64 [sp + 264]\n 11094: i64 a4 = i64 a3 - i64 a2\n 11097: i64 t2 = i64 a4 - i64 a5\n 11100: a4 = a4 <u a5\n 11103: a5 = a3 <u a2\n 11106: a3 = u64 [sp + 256]\n 11110: i64 a1 = i64 a1 - i64 a3\n 11113: i64 a1 = i64 a1 - i64 a5\n 11116: i64 a1 = i64 a1 - i64 a4\n 11119: i64 a5 = i64 ra - i64 s1\n 11122: i64 a5 = i64 a5 - i64 t1\n 11125: i64 a4 = i64 t0 - i64 a0\n 11128: u64 [sp] = a1\n 11130: u64 [sp + 224] = s1\n 11134: a1 = s1\n 11136: ra = 238, jump @119\n      : @315 [@dyn 119] (gas: 3)\n 11142: a0 = 0x40\n 11145: a1 = 0x20\n 11148: ra = 240, jump @0\n      : @316 [@dyn 120] (gas: 1)\n 11154: jump @309 if a0 == 0\n      : @317 (gas: 29)\n 11158: a0 = u64 [sp + 304]\n 11162: i64 a1 = i64 a0 + 0x2\n 11165: a0 = a1 <u a0\n 11168: a3 = u64 [sp + 312]\n 11172: i64 a2 = a3 + a0\n 11175: a3 = a2 <u a3\n 11178: a3 = a0 if a0 == 0\n 11181: a0 = u64 [sp + 288]\n 11185: i64 a3 = a3 + a0\n 11188: a4 = a3 <u a0\n 11191: a0 = u64 [sp + 296]\n 11195: i64 a4 = a4 + a0\n 11198: s1 = u64 [sp + 240]\n 11202: a0 = u64 [s1 + 80]\n 11205: a5 = u64 [s1 + 88]\n 11208: t1 = u64 [s1 + 72]\n 11211: t0 = u64 [s1 + 64]\n 11214: s1 = reverse a0\n 11216: a5 = reverse a5\n 11218: u64 [sp + 200] = a5\n 11222: t1 = reverse t1\n 11224: u64 [sp + 216] = t1\n 11228: a0 = reverse t0\n 11230: u64 [sp + 208] = a0\n 11234: u64 [sp + 8] = a0\n 11237: i64 a0 = i64 sp + 0x180\n 11241: u64 [sp] = t1\n 11243: t2 = s1\n 11245: ra = 242, jump @1496\n      : @318 [@dyn 121] (gas: 25)\n 11252: ra = u64 [sp + 392]\n 11256: a1 = u64 [sp + 408]\n 11260: t0 = u64 [sp + 384]\n 11264: a3 = u64 [sp + 400]\n 11268: a4 = ra ^ s1\n 11271: a5 = ra <u s1\n 11274: a0 = u64 [sp + 200]\n 11278: t1 = t0 <u a0\n 11281: a5 = t1 if a4 == 0\n 11284: a2 = u64 [sp + 216]\n 11288: i64 a4 = i64 a3 - i64 a2\n 11291: i64 t2 = i64 a4 - i64 a5\n 11294: a4 = a4 <u a5\n 11297: a5 = a3 <u a2\n 11300: a3 = u64 [sp + 208]\n 11304: i64 a1 = i64 a1 - i64 a3\n 11307: i64 a1 = i64 a1 - i64 a5\n 11310: i64 a1 = i64 a1 - i64 a4\n 11313: i64 a5 = i64 ra - i64 s1\n 11316: i64 a5 = i64 a5 - i64 t1\n 11319: i64 a4 = i64 t0 - i64 a0\n 11322: u64 [sp] = a1\n 11324: u64 [sp + 192] = s1\n 11328: a1 = s1\n 11330: ra = 244, jump @119\n      : @319 [@dyn 122] (gas: 183)\n 11336: a1 = u64 [sp + 304]\n 11340: i64 a0 = i64 a1 + 0x3\n 11343: a1 = a0 <u a1\n 11346: a3 = u64 [sp + 312]\n 11350: i64 a2 = a3 + a1\n 11353: a3 = a2 <u a3\n 11356: a3 = a1 if a1 == 0\n 11359: a1 = u64 [sp + 288]\n 11363: i64 a3 = a3 + a1\n 11366: a1 = a3 <u a1\n 11369: s1 = u64 [sp + 296]\n 11373: i64 a1 = a1 + s1\n 11376: u64 [sp + 600] = a1\n 11380: u64 [sp + 592] = a3\n 11384: u64 [sp + 584] = a2\n 11388: u64 [sp + 576] = a0\n 11392: u64 [sp + 568] = 0\n 11396: u64 [sp + 560] = 0\n 11400: u64 [sp + 552] = 0\n 11404: u64 [sp + 544] = 0\n 11408: u64 [sp + 528] = 0\n 11412: u64 [sp + 536] = 0\n 11416: u64 [sp + 520] = 0\n 11420: u64 [sp + 512] = 256\n 11426: a1 = sp + 0x240\n 11430: a3 = sp + 0x220\n 11434: a4 = sp + 0x200\n 11438: a2 = 0xffffffff\n 11441: a0 = 0x0\n 11443: ecalli 5 // 'get_storage'\n 11445: a1 = u64 [sp + 304]\n 11449: i64 a0 = i64 a1 + 0x4\n 11452: a1 = a0 <u a1\n 11455: a3 = u64 [sp + 312]\n 11459: i64 a2 = a3 + a1\n 11462: a3 = a2 <u a3\n 11465: a3 = a1 if a1 == 0\n 11468: a1 = u64 [sp + 288]\n 11472: i64 a3 = a3 + a1\n 11475: a1 = a3 <u a1\n 11478: i64 a1 = a1 + s1\n 11481: u64 [sp + 600] = a1\n 11485: a1 = u64 [sp + 568]\n 11489: u64 [sp + 184] = a1\n 11493: u64 [sp + 592] = a3\n 11497: a1 = u64 [sp + 560]\n 11501: u64 [sp + 176] = a1\n 11505: u64 [sp + 584] = a2\n 11509: a1 = u64 [sp + 552]\n 11513: u64 [sp + 168] = a1\n 11517: u64 [sp + 576] = a0\n 11521: a0 = u64 [sp + 544]\n 11525: u64 [sp + 160] = a0\n 11529: u64 [sp + 568] = 0\n 11533: u64 [sp + 560] = 0\n 11537: u64 [sp + 552] = 0\n 11541: u64 [sp + 544] = 0\n 11545: u64 [sp + 528] = 0\n 11549: u64 [sp + 536] = 0\n 11553: u64 [sp + 520] = 0\n 11557: u64 [sp + 512] = 256\n 11563: a1 = sp + 0x240\n 11567: a3 = sp + 0x220\n 11571: a4 = sp + 0x200\n 11575: a2 = 0xffffffff\n 11578: a0 = 0x0\n 11580: ecalli 5 // 'get_storage'\n 11582: a1 = u64 [sp + 304]\n 11586: i64 a0 = i64 a1 + 0x5\n 11589: a1 = a0 <u a1\n 11592: a3 = u64 [sp + 312]\n 11596: i64 a2 = a3 + a1\n 11599: a3 = a2 <u a3\n 11602: a3 = a1 if a1 == 0\n 11605: s1 = u64 [sp + 288]\n 11609: i64 a3 = a3 + s1\n 11612: a1 = a3 <u s1\n 11615: a4 = u64 [sp + 296]\n 11619: i64 a1 = a1 + a4\n 11622: u64 [sp + 600] = a1\n 11626: a1 = u64 [sp + 568]\n 11630: u64 [sp + 152] = a1\n 11634: u64 [sp + 592] = a3\n 11638: a1 = u64 [sp + 560]\n 11642: u64 [sp + 144] = a1\n 11646: u64 [sp + 584] = a2\n 11650: a1 = u64 [sp + 552]\n 11654: u64 [sp + 136] = a1\n 11658: u64 [sp + 576] = a0\n 11662: a0 = u64 [sp + 544]\n 11666: u64 [sp + 128] = a0\n 11670: u64 [sp + 568] = 0\n 11674: u64 [sp + 560] = 0\n 11678: u64 [sp + 552] = 0\n 11682: u64 [sp + 544] = 0\n 11686: u64 [sp + 528] = 0\n 11690: u64 [sp + 536] = 0\n 11694: u64 [sp + 520] = 0\n 11698: u64 [sp + 512] = 256\n 11704: a1 = sp + 0x240\n 11708: a3 = sp + 0x220\n 11712: a4 = sp + 0x200\n 11716: a2 = 0xffffffff\n 11719: a0 = 0x0\n 11721: ecalli 5 // 'get_storage'\n 11723: a1 = u64 [sp + 304]\n 11727: i64 a0 = i64 a1 + 0x6\n 11730: a1 = a0 <u a1\n 11733: a3 = u64 [sp + 312]\n 11737: i64 a2 = a3 + a1\n 11740: a3 = a2 <u a3\n 11743: a3 = a1 if a1 == 0\n 11746: i64 a3 = a3 + s1\n 11749: a1 = a3 <u s1\n 11752: a4 = u64 [sp + 296]\n 11756: i64 a1 = a1 + a4\n 11759: u64 [sp + 600] = a1\n 11763: a1 = u64 [sp + 568]\n 11767: u64 [sp + 120] = a1\n 11770: u64 [sp + 592] = a3\n 11774: a1 = u64 [sp + 560]\n 11778: u64 [sp + 112] = a1\n 11781: u64 [sp + 584] = a2\n 11785: a1 = u64 [sp + 552]\n 11789: u64 [sp + 104] = a1\n 11792: u64 [sp + 576] = a0\n 11796: a0 = u64 [sp + 544]\n 11800: u64 [sp + 96] = a0\n 11803: u64 [sp + 568] = 0\n 11807: u64 [sp + 560] = 0\n 11811: u64 [sp + 552] = 0\n 11815: u64 [sp + 544] = 0\n 11819: u64 [sp + 528] = 0\n 11823: u64 [sp + 536] = 0\n 11827: u64 [sp + 520] = 0\n 11831: u64 [sp + 512] = 256\n 11837: a1 = sp + 0x240\n 11841: a3 = sp + 0x220\n 11845: a4 = sp + 0x200\n 11849: a2 = 0xffffffff\n 11852: a0 = 0x0\n 11854: ecalli 5 // 'get_storage'\n 11856: a0 = u8 [sp + 544]\n 11860: u64 [sp + 88] = a0\n 11863: a1 = u64 [sp + 304]\n 11867: i64 a0 = i64 a1 + 0x7\n 11870: a1 = a0 <u a1\n 11873: a3 = u64 [sp + 312]\n 11877: i64 a2 = a3 + a1\n 11880: a3 = a2 <u a3\n 11883: a3 = a1 if a1 == 0\n 11886: i64 a3 = a3 + s1\n 11889: a1 = a3 <u s1\n 11892: a4 = u64 [sp + 296]\n 11896: i64 a1 = a1 + a4\n 11899: u64 [sp + 600] = a1\n 11903: u64 [sp + 592] = a3\n 11907: u64 [sp + 584] = a2\n 11911: u64 [sp + 576] = a0\n 11915: u64 [sp + 568] = 0\n 11919: u64 [sp + 560] = 0\n 11923: u64 [sp + 552] = 0\n 11927: u64 [sp + 544] = 0\n 11931: u64 [sp + 528] = 0\n 11935: u64 [sp + 536] = 0\n 11939: u64 [sp + 520] = 0\n 11943: u64 [sp + 512] = 256\n 11949: a1 = sp + 0x240\n 11953: a3 = sp + 0x220\n 11957: a4 = sp + 0x200\n 11961: a2 = 0xffffffff\n 11964: a0 = 0x0\n 11966: ecalli 5 // 'get_storage'\n 11968: a0 = u64 [sp + 568]\n 11972: u64 [sp + 304] = a0\n 11976: a0 = u64 [sp + 560]\n 11980: u64 [sp + 312] = a0\n 11984: s1 = u64 [sp + 552]\n 11988: a0 = u64 [sp + 544]\n 11992: u64 [sp + 296] = a0\n 11996: a0 = 0x40\n 11999: a1 = 0x20\n 12002: ra = 246, jump @0\n      : @320 [@dyn 123] (gas: 1)\n 12008: jump @309 if a0 == 0\n      : @321 (gas: 18)\n 12012: u64 [sp + 288] = s1\n 12016: a3 = u64 [sp + 240]\n 12020: a0 = u64 [a3 + 64]\n 12023: a1 = u64 [a3 + 72]\n 12026: a2 = u64 [a3 + 80]\n 12029: a3 = u64 [a3 + 88]\n 12032: a4 = reverse a0\n 12034: a5 = reverse a1\n 12036: a2 = reverse a2\n 12038: a3 = reverse a3\n 12040: a0 = a2 | a4\n 12043: a1 = a3 | a5\n 12046: a1 = a1 | a0\n 12049: a1 = a1 >>64 32\n 12052: a0 = a0 | a5\n 12055: a0 = a0 <<64 32\n 12058: a0 = a0 | a1\n 12061: jump @309 if a0 != 0\n      : @322 (gas: 8)\n 12065: u64 [sp + 56] = a5\n 12068: u64 [sp + 64] = a4\n 12071: u64 [sp + 80] = a2\n 12074: a0 = a3 + 0x0\n 12076: a1 = 0x20\n 12079: u64 [sp + 72] = a3\n 12082: s1 = a0\n 12084: ra = 248, jump @0\n      : @323 [@dyn 124] (gas: 1)\n 12090: jump @309 if a0 == 0\n      : @324 (gas: 75)\n 12094: a0 = u64 [sp + 272]\n 12098: a0 = a0 <<64 32\n 12101: a0 = a0 >>64 32\n 12104: a1 = u64 [sp + 240]\n 12108: t1 = s1\n 12110: i64 a4 = a1 + s1\n 12113: a0 = reverse a0\n 12115: a1 = u64 [sp + 280]\n 12119: a1 = reverse a1\n 12121: a2 = u64 [sp + 232]\n 12125: a2 = reverse a2\n 12127: u8 [a4 + 24] = a2\n 12130: u8 [a4 + 11] = 0\n 12133: u8 [a4 + 10] = 0\n 12136: u8 [a4 + 9] = 0\n 12139: u8 [a4 + 7] = 0\n 12142: u8 [a4 + 6] = 0\n 12145: u8 [a4 + 5] = 0\n 12148: u8 [a4 + 4] = 0\n 12151: u8 [a4 + 3] = 0\n 12154: u8 [a4 + 2] = 0\n 12157: u8 [a4 + 1] = 0\n 12160: a3 = a2 >>64 56\n 12163: u8 [a4 + 31] = a3\n 12166: a3 = a2 >>64 48\n 12169: u8 [a4 + 30] = a3\n 12172: a3 = a2 >>64 40\n 12175: u8 [a4 + 29] = a3\n 12178: a3 = a2 >>64 32\n 12181: u8 [a4 + 28] = a3\n 12184: a3 = a2 >>64 24\n 12187: u8 [a4 + 27] = a3\n 12190: a3 = a2 >>64 16\n 12193: u8 [a4 + 26] = a3\n 12196: a2 = a2 >>64 8\n 12199: u8 [a4 + 25] = a2\n 12202: u8 [a4 + 16] = a1\n 12205: a2 = a1 >>64 56\n 12208: u8 [a4 + 23] = a2\n 12211: a2 = a1 >>64 48\n 12214: u8 [a4 + 22] = a2\n 12217: a2 = a1 >>64 40\n 12220: u8 [a4 + 21] = a2\n 12223: a2 = a1 >>64 32\n 12226: u8 [a4 + 20] = a2\n 12229: a2 = a1 >>64 24\n 12232: u8 [a4 + 19] = a2\n 12235: a2 = a1 >>64 16\n 12238: u8 [a4 + 18] = a2\n 12241: a1 = a1 >>64 8\n 12244: u8 [a4 + 17] = a1\n 12247: u8 [a4 + 8] = a0\n 12250: a1 = a0 >>64 56\n 12253: u8 [a4 + 15] = a1\n 12256: a1 = a0 >>64 48\n 12259: u8 [a4 + 14] = a1\n 12262: a1 = a0 >>64 40\n 12265: u8 [a4 + 13] = a1\n 12268: a0 = a0 >>64 32\n 12271: u8 [a4 + 12] = a0\n 12274: a3 = u64 [sp + 56]\n 12277: a0 = a3 >u 0x0\n 12279: a2 = u64 [sp + 64]\n 12282: a5 = a2 >u 0x0\n 12284: a5 = a0 if a2 == 0\n 12287: a0 = 0xffffffdf\n 12297: s1 = u64 [sp + 72]\n 12300: a0 = a0 <u s1\n 12303: a1 = u64 [sp + 80]\n 12306: t0 = a1 >u 0x0\n 12308: a0 = t0 if a1 != 0\n 12311: a2 = a2 | a3\n 12314: a0 = a5 if a2 != 0\n 12317: u8 [a4 + 0] = 0\n 12319: jump @309 if a0 != 0\n      : @325 (gas: 9)\n 12323: u64 [sp + 280] = a2\n 12327: u64 [sp + 40] = t0\n 12330: u64 [sp + 48] = a5\n 12333: u64 [sp + 32] = a4\n 12336: u64 [sp + 232] = t1\n 12340: a0 = t1 + 0x20\n 12343: a1 = 0x20\n 12346: u64 [sp + 272] = a0\n 12350: ra = 250, jump @0\n      : @326 [@dyn 125] (gas: 1)\n 12356: jump @309 if a0 == 0\n      : @327 (gas: 54)\n 12360: i64 a5 = i64 s1 + 0x100\n 12364: a0 = a5 <u s1\n 12367: s1 = u64 [sp + 80]\n 12370: i64 t2 = s1 + a0\n 12373: a1 = t2 <u s1\n 12376: a1 = a0 if a0 == 0\n 12379: a0 = u64 [sp + 56]\n 12382: i64 a1 = a1 + a0\n 12385: a0 = a1 <u a0\n 12388: a2 = u64 [sp + 64]\n 12391: i64 a0 = a0 + a2\n 12394: a2 = u64 [sp + 240]\n 12398: a3 = u64 [sp + 272]\n 12402: i64 a2 = a2 + a3\n 12405: u8 [a2 + 31] = 0\n 12408: u8 [a2 + 30] = 1\n 12412: u8 [a2 + 29] = 0\n 12415: u8 [a2 + 28] = 0\n 12418: u8 [a2 + 27] = 0\n 12421: u8 [a2 + 26] = 0\n 12424: u8 [a2 + 25] = 0\n 12427: u8 [a2 + 24] = 0\n 12430: u8 [a2 + 23] = 0\n 12433: u8 [a2 + 22] = 0\n 12436: u8 [a2 + 21] = 0\n 12439: u8 [a2 + 20] = 0\n 12442: u8 [a2 + 19] = 0\n 12445: u8 [a2 + 18] = 0\n 12448: u8 [a2 + 17] = 0\n 12451: u8 [a2 + 16] = 0\n 12454: u8 [a2 + 15] = 0\n 12457: u8 [a2 + 14] = 0\n 12460: u8 [a2 + 13] = 0\n 12463: u8 [a2 + 12] = 0\n 12466: u8 [a2 + 11] = 0\n 12469: u8 [a2 + 10] = 0\n 12472: u8 [a2 + 9] = 0\n 12475: u8 [a2 + 8] = 0\n 12478: u8 [a2 + 7] = 0\n 12481: u8 [a2 + 6] = 0\n 12484: u8 [a2 + 5] = 0\n 12487: u8 [a2 + 4] = 0\n 12490: u8 [a2 + 3] = 0\n 12493: u8 [a2 + 2] = 0\n 12496: u8 [a2 + 1] = 0\n 12499: u8 [a2 + 0] = 0\n 12501: u64 [sp + 8] = a0\n 12504: i64 a0 = i64 sp + 0x160\n 12508: u64 [sp] = a1\n 12510: a1 = u64 [sp + 248]\n 12514: a2 = u64 [sp + 224]\n 12518: a3 = u64 [sp + 264]\n 12522: a4 = u64 [sp + 256]\n 12526: ra = 252, jump @199\n      : @328 [@dyn 126] (gas: 8)\n 12532: a2 = s1\n 12534: a0 = 0xffffffc0\n 12544: a1 = u64 [sp + 72]\n 12547: a0 = a1 <u a0\n 12550: a0 = 0 if a2 != 0\n 12552: a1 = u64 [sp + 280]\n 12556: a0 = 0 if a1 != 0\n 12558: jump @309 if a0 == 0\n      : @329 (gas: 13)\n 12562: a0 = u64 [sp + 376]\n 12566: u64 [sp + 272] = a0\n 12570: a0 = u64 [sp + 368]\n 12574: u64 [sp + 248] = a0\n 12578: a0 = u64 [sp + 360]\n 12582: u64 [sp + 264] = a0\n 12586: a0 = u64 [sp + 352]\n 12590: u64 [sp + 256] = a0\n 12594: a0 = u64 [sp + 232]\n 12598: s1 = a0 + 0x40\n 12601: a1 = 0x20\n 12604: a0 = s1\n 12606: ra = 254, jump @0\n      : @330 [@dyn 127] (gas: 1)\n 12612: jump @309 if a0 == 0\n      : @331 (gas: 101)\n 12616: t0 = u64 [sp + 72]\n 12619: ra = u64 [sp + 256]\n 12623: a2 = ra <u t0\n 12626: a1 = u64 [sp + 80]\n 12629: t2 = u64 [sp + 264]\n 12633: a0 = t2 ^ a1\n 12636: a3 = t2 <u a1\n 12639: a3 = a2 if a0 == 0\n 12642: a4 = u64 [sp + 56]\n 12645: t1 = u64 [sp + 248]\n 12649: i64 a0 = i64 t1 - i64 a4\n 12652: i64 a5 = i64 a0 - i64 a3\n 12655: u64 [sp + 224] = a5\n 12659: a5 = a0 <u a3\n 12662: a3 = t1 <u a4\n 12665: a4 = u64 [sp + 64]\n 12668: a0 = u64 [sp + 272]\n 12672: i64 a4 = i64 a0 - i64 a4\n 12675: i64 a4 = i64 a4 - i64 a3\n 12678: i64 a0 = i64 a4 - i64 a5\n 12681: i64 a3 = i64 t2 - i64 a1\n 12684: i64 a3 = i64 a3 - i64 a2\n 12687: i64 a2 = i64 ra - i64 t0\n 12690: a4 = u64 [sp + 240]\n 12694: i64 s1 = s1 + a4\n 12697: a2 = reverse a2\n 12699: a4 = a2 >>64 56\n 12702: u8 [s1 + 31] = a4\n 12705: a4 = a2 >>64 48\n 12708: u8 [s1 + 30] = a4\n 12711: a4 = a2 >>64 40\n 12714: u8 [s1 + 29] = a4\n 12717: a4 = a2 >>64 32\n 12720: u8 [s1 + 28] = a4\n 12723: a4 = a2 >>64 24\n 12726: u8 [s1 + 27] = a4\n 12729: a4 = a2 >>64 16\n 12732: u8 [s1 + 26] = a4\n 12735: a3 = reverse a3\n 12737: u8 [s1 + 24] = a2\n 12740: a2 = a2 >>64 8\n 12743: u8 [s1 + 25] = a2\n 12746: a2 = a3 >>64 56\n 12749: u8 [s1 + 23] = a2\n 12752: a2 = a3 >>64 48\n 12755: u8 [s1 + 22] = a2\n 12758: a2 = a3 >>64 40\n 12761: u8 [s1 + 21] = a2\n 12764: a2 = a3 >>64 32\n 12767: u8 [s1 + 20] = a2\n 12770: a2 = a3 >>64 24\n 12773: u8 [s1 + 19] = a2\n 12776: a2 = a3 >>64 16\n 12779: u8 [s1 + 18] = a2\n 12782: a1 = u64 [sp + 224]\n 12786: a1 = reverse a1\n 12788: u8 [s1 + 16] = a3\n 12791: a3 = a3 >>64 8\n 12794: u8 [s1 + 17] = a3\n 12797: a2 = a1 >>64 56\n 12800: u8 [s1 + 15] = a2\n 12803: a2 = a1 >>64 48\n 12806: u8 [s1 + 14] = a2\n 12809: a2 = a1 >>64 40\n 12812: u8 [s1 + 13] = a2\n 12815: a2 = a1 >>64 32\n 12818: u8 [s1 + 12] = a2\n 12821: a2 = a1 >>64 24\n 12824: u8 [s1 + 11] = a2\n 12827: a2 = a1 >>64 16\n 12830: u8 [s1 + 10] = a2\n 12833: a0 = reverse a0\n 12835: u8 [s1 + 8] = a1\n 12838: a1 = a1 >>64 8\n 12841: u8 [s1 + 9] = a1\n 12844: a1 = a0 >>64 56\n 12847: u8 [s1 + 7] = a1\n 12850: a1 = a0 >>64 48\n 12853: u8 [s1 + 6] = a1\n 12856: a1 = a0 >>64 40\n 12859: u8 [s1 + 5] = a1\n 12862: a1 = a0 >>64 32\n 12865: u8 [s1 + 4] = a1\n 12868: a1 = a0 >>64 24\n 12871: u8 [s1 + 3] = a1\n 12874: a1 = a0 >>64 16\n 12877: u8 [s1 + 2] = a1\n 12880: u8 [s1] = a0\n 12882: a0 = a0 >>64 8\n 12885: u8 [s1 + 1] = a0\n 12888: s1 = t0\n 12890: a0 = u64 [sp + 272]\n 12894: u64 [sp + 8] = a0\n 12897: i64 a0 = i64 sp + 0x140\n 12901: u64 [sp] = t1\n 12903: a1 = u64 [sp + 200]\n 12907: a2 = u64 [sp + 192]\n 12911: a3 = u64 [sp + 216]\n 12915: a4 = u64 [sp + 208]\n 12919: a5 = ra\n 12921: ra = 256, jump @199\n      : @332 [@dyn 128] (gas: 9)\n 12927: a0 = 0xffffff9f\n 12937: a0 = a0 <u s1\n 12940: a2 = u64 [sp + 40]\n 12943: a1 = u64 [sp + 80]\n 12946: a0 = a2 if a1 != 0\n 12949: a1 = u64 [sp + 48]\n 12952: a2 = u64 [sp + 280]\n 12956: a0 = a1 if a2 != 0\n 12959: jump @309 if a0 != 0\n      : @333 (gas: 13)\n 12963: a0 = u64 [sp + 344]\n 12967: u64 [sp + 256] = a0\n 12971: a0 = u64 [sp + 336]\n 12975: u64 [sp + 248] = a0\n 12979: a0 = u64 [sp + 328]\n 12983: u64 [sp + 264] = a0\n 12987: a0 = u64 [sp + 320]\n 12991: u64 [sp + 272] = a0\n 12995: a0 = u64 [sp + 232]\n 12999: s1 = a0 + 0x60\n 13002: a1 = 0x20\n 13005: a0 = s1\n 13007: ra = 258, jump @0\n      : @334 [@dyn 129] (gas: 1)\n 13013: jump @309 if a0 == 0\n      : @335 (gas: 80)\n 13017: a0 = u64 [sp + 240]\n 13021: i64 s1 = s1 + a0\n 13024: a0 = u64 [sp + 160]\n 13028: a0 = reverse a0\n 13030: a1 = a0 >>64 56\n 13033: u8 [s1 + 31] = a1\n 13036: a1 = a0 >>64 48\n 13039: u8 [s1 + 30] = a1\n 13042: a1 = a0 >>64 40\n 13045: u8 [s1 + 29] = a1\n 13048: a1 = a0 >>64 32\n 13051: u8 [s1 + 28] = a1\n 13054: a1 = a0 >>64 24\n 13057: u8 [s1 + 27] = a1\n 13060: a1 = a0 >>64 16\n 13063: u8 [s1 + 26] = a1\n 13066: a1 = u64 [sp + 168]\n 13070: a1 = reverse a1\n 13072: u8 [s1 + 24] = a0\n 13075: a0 = a0 >>64 8\n 13078: u8 [s1 + 25] = a0\n 13081: a0 = a1 >>64 56\n 13084: u8 [s1 + 23] = a0\n 13087: a0 = a1 >>64 48\n 13090: u8 [s1 + 22] = a0\n 13093: a0 = a1 >>64 40\n 13096: u8 [s1 + 21] = a0\n 13099: a0 = a1 >>64 32\n 13102: u8 [s1 + 20] = a0\n 13105: a0 = a1 >>64 24\n 13108: u8 [s1 + 19] = a0\n 13111: a0 = a1 >>64 16\n 13114: u8 [s1 + 18] = a0\n 13117: a0 = u64 [sp + 176]\n 13121: a0 = reverse a0\n 13123: u8 [s1 + 16] = a1\n 13126: a1 = a1 >>64 8\n 13129: u8 [s1 + 17] = a1\n 13132: a1 = a0 >>64 56\n 13135: u8 [s1 + 15] = a1\n 13138: a1 = a0 >>64 48\n 13141: u8 [s1 + 14] = a1\n 13144: a1 = a0 >>64 40\n 13147: u8 [s1 + 13] = a1\n 13150: a1 = a0 >>64 32\n 13153: u8 [s1 + 12] = a1\n 13156: a1 = a0 >>64 24\n 13159: u8 [s1 + 11] = a1\n 13162: a1 = a0 >>64 16\n 13165: u8 [s1 + 10] = a1\n 13168: a1 = u64 [sp + 184]\n 13172: a1 = reverse a1\n 13174: u8 [s1 + 8] = a0\n 13177: a0 = a0 >>64 8\n 13180: u8 [s1 + 9] = a0\n 13183: u8 [s1] = a1\n 13185: a0 = a1 >>64 56\n 13188: u8 [s1 + 7] = a0\n 13191: a0 = a1 >>64 48\n 13194: u8 [s1 + 6] = a0\n 13197: a0 = a1 >>64 40\n 13200: u8 [s1 + 5] = a0\n 13203: a0 = a1 >>64 32\n 13206: u8 [s1 + 4] = a0\n 13209: a0 = a1 >>64 24\n 13212: u8 [s1 + 3] = a0\n 13215: a0 = a1 >>64 16\n 13218: u8 [s1 + 2] = a0\n 13221: a1 = a1 >>64 8\n 13224: a0 = 0xffffff7f\n 13234: a2 = u64 [sp + 72]\n 13237: a0 = a0 <u a2\n 13240: a2 = u64 [sp + 80]\n 13243: a3 = u64 [sp + 40]\n 13246: a0 = a3 if a2 != 0\n 13249: a2 = u64 [sp + 48]\n 13252: a3 = u64 [sp + 280]\n 13256: a0 = a2 if a3 != 0\n 13259: u8 [s1 + 1] = a1\n 13262: jump @309 if a0 != 0\n      : @336 (gas: 5)\n 13266: a0 = u64 [sp + 232]\n 13270: s1 = a0 + 0x80\n 13274: a1 = 0x20\n 13277: a0 = s1\n 13279: ra = 260, jump @0\n      : @337 [@dyn 130] (gas: 1)\n 13285: jump @309 if a0 == 0\n      : @338 (gas: 80)\n 13289: a0 = u64 [sp + 240]\n 13293: i64 s1 = s1 + a0\n 13296: a0 = u64 [sp + 128]\n 13300: a0 = reverse a0\n 13302: a1 = a0 >>64 56\n 13305: u8 [s1 + 31] = a1\n 13308: a1 = a0 >>64 48\n 13311: u8 [s1 + 30] = a1\n 13314: a1 = a0 >>64 40\n 13317: u8 [s1 + 29] = a1\n 13320: a1 = a0 >>64 32\n 13323: u8 [s1 + 28] = a1\n 13326: a1 = a0 >>64 24\n 13329: u8 [s1 + 27] = a1\n 13332: a1 = a0 >>64 16\n 13335: u8 [s1 + 26] = a1\n 13338: a1 = u64 [sp + 136]\n 13342: a1 = reverse a1\n 13344: u8 [s1 + 24] = a0\n 13347: a0 = a0 >>64 8\n 13350: u8 [s1 + 25] = a0\n 13353: a0 = a1 >>64 56\n 13356: u8 [s1 + 23] = a0\n 13359: a0 = a1 >>64 48\n 13362: u8 [s1 + 22] = a0\n 13365: a0 = a1 >>64 40\n 13368: u8 [s1 + 21] = a0\n 13371: a0 = a1 >>64 32\n 13374: u8 [s1 + 20] = a0\n 13377: a0 = a1 >>64 24\n 13380: u8 [s1 + 19] = a0\n 13383: a0 = a1 >>64 16\n 13386: u8 [s1 + 18] = a0\n 13389: a0 = u64 [sp + 144]\n 13393: a0 = reverse a0\n 13395: u8 [s1 + 16] = a1\n 13398: a1 = a1 >>64 8\n 13401: u8 [s1 + 17] = a1\n 13404: a1 = a0 >>64 56\n 13407: u8 [s1 + 15] = a1\n 13410: a1 = a0 >>64 48\n 13413: u8 [s1 + 14] = a1\n 13416: a1 = a0 >>64 40\n 13419: u8 [s1 + 13] = a1\n 13422: a1 = a0 >>64 32\n 13425: u8 [s1 + 12] = a1\n 13428: a1 = a0 >>64 24\n 13431: u8 [s1 + 11] = a1\n 13434: a1 = a0 >>64 16\n 13437: u8 [s1 + 10] = a1\n 13440: a1 = u64 [sp + 152]\n 13444: a1 = reverse a1\n 13446: u8 [s1 + 8] = a0\n 13449: a0 = a0 >>64 8\n 13452: u8 [s1 + 9] = a0\n 13455: u8 [s1] = a1\n 13457: a0 = a1 >>64 56\n 13460: u8 [s1 + 7] = a0\n 13463: a0 = a1 >>64 48\n 13466: u8 [s1 + 6] = a0\n 13469: a0 = a1 >>64 40\n 13472: u8 [s1 + 5] = a0\n 13475: a0 = a1 >>64 32\n 13478: u8 [s1 + 4] = a0\n 13481: a0 = a1 >>64 24\n 13484: u8 [s1 + 3] = a0\n 13487: a0 = a1 >>64 16\n 13490: u8 [s1 + 2] = a0\n 13493: a1 = a1 >>64 8\n 13496: a0 = 0xffffff5f\n 13506: a2 = u64 [sp + 72]\n 13509: a0 = a0 <u a2\n 13512: a2 = u64 [sp + 80]\n 13515: a3 = u64 [sp + 40]\n 13518: a0 = a3 if a2 != 0\n 13521: a2 = u64 [sp + 48]\n 13524: a3 = u64 [sp + 280]\n 13528: a0 = a2 if a3 != 0\n 13531: u8 [s1 + 1] = a1\n 13534: jump @309 if a0 != 0\n      : @339 (gas: 5)\n 13538: a0 = u64 [sp + 232]\n 13542: s1 = a0 + 0xa0\n 13546: a1 = 0x20\n 13549: a0 = s1\n 13551: ra = 262, jump @0\n      : @340 [@dyn 131] (gas: 1)\n 13557: jump @309 if a0 == 0\n      : @341 (gas: 80)\n 13561: a0 = u64 [sp + 240]\n 13565: i64 s1 = s1 + a0\n 13568: a0 = u64 [sp + 96]\n 13571: a0 = reverse a0\n 13573: a1 = a0 >>64 56\n 13576: u8 [s1 + 31] = a1\n 13579: a1 = a0 >>64 48\n 13582: u8 [s1 + 30] = a1\n 13585: a1 = a0 >>64 40\n 13588: u8 [s1 + 29] = a1\n 13591: a1 = a0 >>64 32\n 13594: u8 [s1 + 28] = a1\n 13597: a1 = a0 >>64 24\n 13600: u8 [s1 + 27] = a1\n 13603: a1 = a0 >>64 16\n 13606: u8 [s1 + 26] = a1\n 13609: a1 = u64 [sp + 104]\n 13612: a1 = reverse a1\n 13614: u8 [s1 + 24] = a0\n 13617: a0 = a0 >>64 8\n 13620: u8 [s1 + 25] = a0\n 13623: a0 = a1 >>64 56\n 13626: u8 [s1 + 23] = a0\n 13629: a0 = a1 >>64 48\n 13632: u8 [s1 + 22] = a0\n 13635: a0 = a1 >>64 40\n 13638: u8 [s1 + 21] = a0\n 13641: a0 = a1 >>64 32\n 13644: u8 [s1 + 20] = a0\n 13647: a0 = a1 >>64 24\n 13650: u8 [s1 + 19] = a0\n 13653: a0 = a1 >>64 16\n 13656: u8 [s1 + 18] = a0\n 13659: a0 = u64 [sp + 112]\n 13662: a0 = reverse a0\n 13664: u8 [s1 + 16] = a1\n 13667: a1 = a1 >>64 8\n 13670: u8 [s1 + 17] = a1\n 13673: a1 = a0 >>64 56\n 13676: u8 [s1 + 15] = a1\n 13679: a1 = a0 >>64 48\n 13682: u8 [s1 + 14] = a1\n 13685: a1 = a0 >>64 40\n 13688: u8 [s1 + 13] = a1\n 13691: a1 = a0 >>64 32\n 13694: u8 [s1 + 12] = a1\n 13697: a1 = a0 >>64 24\n 13700: u8 [s1 + 11] = a1\n 13703: a1 = a0 >>64 16\n 13706: u8 [s1 + 10] = a1\n 13709: a1 = u64 [sp + 120]\n 13712: a1 = reverse a1\n 13714: u8 [s1 + 8] = a0\n 13717: a0 = a0 >>64 8\n 13720: u8 [s1 + 9] = a0\n 13723: u8 [s1] = a1\n 13725: a0 = a1 >>64 56\n 13728: u8 [s1 + 7] = a0\n 13731: a0 = a1 >>64 48\n 13734: u8 [s1 + 6] = a0\n 13737: a0 = a1 >>64 40\n 13740: u8 [s1 + 5] = a0\n 13743: a0 = a1 >>64 32\n 13746: u8 [s1 + 4] = a0\n 13749: a0 = a1 >>64 24\n 13752: u8 [s1 + 3] = a0\n 13755: a0 = a1 >>64 16\n 13758: u8 [s1 + 2] = a0\n 13761: a1 = a1 >>64 8\n 13764: a0 = 0xffffff3f\n 13774: a2 = u64 [sp + 72]\n 13777: a0 = a0 <u a2\n 13780: a2 = u64 [sp + 80]\n 13783: a3 = u64 [sp + 40]\n 13786: a0 = a3 if a2 != 0\n 13789: a2 = u64 [sp + 48]\n 13792: a3 = u64 [sp + 280]\n 13796: a0 = a2 if a3 != 0\n 13799: u8 [s1 + 1] = a1\n 13802: jump @309 if a0 != 0\n      : @342 (gas: 5)\n 13806: a0 = u64 [sp + 232]\n 13810: s1 = a0 + 0xc0\n 13814: a1 = 0x20\n 13817: a0 = s1\n 13819: ra = 264, jump @0\n      : @343 [@dyn 132] (gas: 1)\n 13825: jump @309 if a0 == 0\n      : @344 (gas: 46)\n 13829: a0 = u64 [sp + 88]\n 13832: a0 = a0 >u 0x0\n 13834: a1 = u64 [sp + 240]\n 13838: i64 s1 = s1 + a1\n 13841: u8 [s1 + 31] = a0\n 13844: u8 [s1 + 30] = 0\n 13847: u8 [s1 + 29] = 0\n 13850: u8 [s1 + 28] = 0\n 13853: u8 [s1 + 27] = 0\n 13856: u8 [s1 + 26] = 0\n 13859: u8 [s1 + 25] = 0\n 13862: u8 [s1 + 24] = 0\n 13865: u8 [s1 + 23] = 0\n 13868: u8 [s1 + 22] = 0\n 13871: u8 [s1 + 21] = 0\n 13874: u8 [s1 + 20] = 0\n 13877: u8 [s1 + 19] = 0\n 13880: u8 [s1 + 18] = 0\n 13883: u8 [s1 + 17] = 0\n 13886: u8 [s1 + 16] = 0\n 13889: u8 [s1 + 15] = 0\n 13892: u8 [s1 + 14] = 0\n 13895: u8 [s1 + 13] = 0\n 13898: u8 [s1 + 12] = 0\n 13901: u8 [s1 + 11] = 0\n 13904: u8 [s1 + 10] = 0\n 13907: u8 [s1 + 9] = 0\n 13910: u8 [s1 + 8] = 0\n 13913: u8 [s1 + 7] = 0\n 13916: u8 [s1 + 6] = 0\n 13919: u8 [s1 + 5] = 0\n 13922: u8 [s1 + 4] = 0\n 13925: u8 [s1 + 3] = 0\n 13928: u8 [s1 + 2] = 0\n 13931: u8 [s1 + 1] = 0\n 13934: a0 = 0xffffff1f\n 13944: a1 = u64 [sp + 72]\n 13947: a0 = a0 <u a1\n 13950: a1 = u64 [sp + 80]\n 13953: a2 = u64 [sp + 40]\n 13956: a0 = a2 if a1 != 0\n 13959: a1 = u64 [sp + 48]\n 13962: a2 = u64 [sp + 280]\n 13966: a0 = a1 if a2 != 0\n 13969: u8 [s1 + 0] = 0\n 13971: jump @309 if a0 != 0\n      : @345 (gas: 5)\n 13975: a0 = u64 [sp + 232]\n 13979: s1 = a0 + 0xe0\n 13983: a1 = 0x20\n 13986: a0 = s1\n 13988: ra = 266, jump @0\n      : @346 [@dyn 133] (gas: 1)\n 13994: jump @309 if a0 == 0\n      : @347 (gas: 101)\n 13998: a0 = u64 [sp + 240]\n 14002: i64 s1 = s1 + a0\n 14005: a0 = u64 [sp + 296]\n 14009: a2 = reverse a0\n 14011: a0 = a2 >>64 56\n 14014: u8 [s1 + 31] = a0\n 14017: a0 = a2 >>64 48\n 14020: u8 [s1 + 30] = a0\n 14023: a0 = a2 >>64 40\n 14026: u8 [s1 + 29] = a0\n 14029: a0 = a2 >>64 32\n 14032: u8 [s1 + 28] = a0\n 14035: a0 = a2 >>64 24\n 14038: u8 [s1 + 27] = a0\n 14041: a0 = a2 >>64 16\n 14044: u8 [s1 + 26] = a0\n 14047: a0 = u64 [sp + 304]\n 14051: ra = reverse a0\n 14053: a1 = u64 [sp + 312]\n 14057: a1 = reverse a1\n 14059: a3 = u64 [sp + 288]\n 14063: a3 = reverse a3\n 14065: u8 [s1 + 24] = a2\n 14068: a2 = a2 >>64 8\n 14071: u8 [s1 + 25] = a2\n 14074: u8 [s1 + 16] = a3\n 14077: a2 = a3 >>64 56\n 14080: u8 [s1 + 23] = a2\n 14083: a2 = a3 >>64 48\n 14086: u8 [s1 + 22] = a2\n 14089: a2 = a3 >>64 40\n 14092: u8 [s1 + 21] = a2\n 14095: a2 = a3 >>64 32\n 14098: u8 [s1 + 20] = a2\n 14101: a2 = a3 >>64 24\n 14104: u8 [s1 + 19] = a2\n 14107: a2 = a3 >>64 16\n 14110: u8 [s1 + 18] = a2\n 14113: a3 = a3 >>64 8\n 14116: u8 [s1 + 17] = a3\n 14119: u8 [s1 + 8] = a1\n 14122: a2 = a1 >>64 56\n 14125: u8 [s1 + 15] = a2\n 14128: a2 = a1 >>64 48\n 14131: u8 [s1 + 14] = a2\n 14134: a2 = a1 >>64 40\n 14137: u8 [s1 + 13] = a2\n 14140: a2 = a1 >>64 32\n 14143: u8 [s1 + 12] = a2\n 14146: a2 = a1 >>64 24\n 14149: u8 [s1 + 11] = a2\n 14152: a2 = a1 >>64 16\n 14155: u8 [s1 + 10] = a2\n 14158: a1 = a1 >>64 8\n 14161: u8 [s1 + 9] = a1\n 14164: a1 = ra >>64 56\n 14167: u8 [s1 + 7] = a1\n 14170: a1 = ra >>64 48\n 14173: u8 [s1 + 6] = a1\n 14176: a1 = ra >>64 40\n 14179: u8 [s1 + 5] = a1\n 14182: a1 = ra >>64 32\n 14185: u8 [s1 + 4] = a1\n 14188: a1 = ra >>64 24\n 14191: u8 [s1 + 3] = a1\n 14194: a1 = ra >>64 16\n 14197: u8 [s1 + 2] = a1\n 14200: t2 = u64 [sp + 272]\n 14204: a0 = u64 [sp + 72]\n 14207: t1 = t2 <u a0\n 14210: a1 = u64 [sp + 80]\n 14213: a2 = u64 [sp + 264]\n 14217: a4 = a2 ^ a1\n 14220: a3 = a2 <u a1\n 14223: a3 = t1 if a4 == 0\n 14226: a4 = u64 [sp + 56]\n 14229: a5 = u64 [sp + 248]\n 14233: i64 a0 = i64 a5 - i64 a4\n 14236: a4 = a5 <u a4\n 14239: a5 = u64 [sp + 64]\n 14242: t0 = u64 [sp + 256]\n 14246: i64 a5 = i64 t0 - i64 a5\n 14249: i64 a5 = i64 a5 - i64 a4\n 14252: a4 = a0 <u a3\n 14255: i64 a5 = i64 a5 - i64 a4\n 14258: i64 a0 = i64 a0 - i64 a3\n 14261: i64 a3 = i64 a2 - i64 a1\n 14264: i64 a3 = i64 a3 - i64 t1\n 14267: a3 = a3 | a5\n 14270: a1 = u64 [sp + 72]\n 14273: i64 a1 = i64 t2 - i64 a1\n 14276: a1 = a1 | a0\n 14279: a1 = a1 | a3\n 14282: a2 = a3 | a0\n 14285: a1 = a1 >>64 32\n 14288: a2 = a2 <<64 32\n 14291: a1 = a1 | a2\n 14294: u8 [s1] = ra\n 14296: a0 = ra >>64 8\n 14299: u8 [s1 + 1] = a0\n 14302: jump @309 if a1 != 0\n      : @348 (gas: 6)\n 14306: a0 = u64 [sp + 72]\n 14309: s1 = u64 [sp + 272]\n 14313: s1 = s1 - a0\n 14316: a0 = u64 [sp + 232]\n 14320: a1 = s1\n 14322: ra = 268, jump @0\n      : @349 [@dyn 134] (gas: 1)\n 14328: jump @309 if a0 == 0\n      : @350 (gas: 5)\n 14332: a1 = i32 [sp + 32]\n 14335: a0 = 0x0\n 14337: a2 = s1\n 14339: ecalli 11 // 'seal_return'\n 14341: fallthrough\n      : @351 (gas: 7)\n 14342: a1 = 0x20050\n 14347: a1 = a1 + 0x0\n 14349: a0 = 0x1\n 14352: a2 = 0x0\n 14354: ra = 0x10e\n 14358: ecalli 11 // 'seal_return'\n 14360: fallthrough\n      : @352 [@dyn 135] (gas: 13)\n 14361: i64 sp = i64 sp - i64 608\n 14365: u64 [sp + 600] = ra\n 14369: u64 [sp + 592] = s0\n 14373: u64 [sp + 584] = s1\n 14377: i64 s0 = i64 sp + 0x260\n 14381: sp = sp & 0xffffffe0\n 14384: u64 [sp + 216] = 0\n 14388: u64 [sp + 208] = 0\n 14392: u64 [sp + 200] = 0\n 14396: u64 [sp + 192] = 0\n 14400: a0 = sp + 0xc0\n 14404: ecalli 14 // 'value_transferred'\n 14406: fallthrough\n      : @353 (gas: 8)\n 14407: a0 = u64 [sp + 208]\n 14411: a1 = u64 [sp + 216]\n 14415: a2 = u64 [sp + 200]\n 14419: a3 = u64 [sp + 192]\n 14423: a1 = a1 | a2\n 14426: a0 = a0 | a3\n 14429: a0 = a0 | a1\n 14432: jump @358 if a0 != 0\n      : @354 (gas: 18)\n 14435: a1 = u64 [0x30460]\n 14440: a2 = u64 [0x30478]\n 14445: a3 = u64 [0x30468]\n 14450: a0 = u64 [0x30470]\n 14455: i64 a4 = i64 a1 - i64 4\n 14458: a1 = a4 <u a1\n 14461: i64 a4 = a3 + a1\n 14464: i64 a4 = i64 a4 - i64 1\n 14467: a5 = a4 ^ a3\n 14470: a3 = a4 <u a3\n 14473: a3 = a1 if a5 == 0\n 14476: i64 a1 = i64 a0 - i64 1\n 14479: i64 a3 = a3 + a1\n 14482: a1 = a3 <u a1\n 14485: a0 = a0 <u 0x1\n 14488: i64 a2 = i64 a2 - i64 a0\n 14491: i64 a1 = a1 + a2\n 14494: jump @361 if a1 >=s 0\n      : @355 (gas: 3)\n 14497: a0 = 0x0\n 14499: a1 = 0x0\n 14501: ra = 272, jump @0\n      : @356 [@dyn 136] (gas: 1)\n 14507: jump @360 if a0 == 0\n      : @357 (gas: 6)\n 14510: a1 = 0x20050\n 14515: a1 = a1 + 0x0\n 14517: a0 = 0x1\n 14520: a2 = 0x0\n 14522: ecalli 11 // 'seal_return'\n 14524: fallthrough\n      : @358 (gas: 3)\n 14525: a0 = 0x0\n 14527: a1 = 0x0\n 14529: ra = 274, jump @0\n      : @359 [@dyn 137] (gas: 1)\n 14535: jump @401 if a0 != 0\n      : @360 (gas: 1)\n 14539: trap\n      : @361 (gas: 23)\n 14540: a0 = sp + 0xe0\n 14544: ecalli 3 // 'caller'\n 14546: a0 = u64 [sp + 232]\n 14550: a1 = i32 [sp + 240]\n 14554: a2 = u64 [sp + 224]\n 14558: a0 = reverse a0\n 14560: a3 = a0 <<64 32\n 14563: a1 = reverse a1\n 14565: a1 = a1 >>64 32\n 14568: a5 = a1 | a3\n 14571: a0 = a0 >>64 32\n 14574: a1 = reverse a2\n 14576: a2 = a1 <<64 32\n 14579: t2 = a2 | a0\n 14582: a2 = a1 >>64 32\n 14585: u64 [sp + 8] = 0\n 14588: i64 a0 = i64 sp + 0xa0\n 14592: a1 = 0x5\n 14595: u64 [sp] = a2\n 14597: a2 = 0x0\n 14599: a3 = 0x0\n 14601: a4 = 0x0\n 14603: ra = 276, jump @271\n      : @362 [@dyn 138] (gas: 23)\n 14609: a0 = u64 [sp + 184]\n 14613: a1 = u64 [sp + 176]\n 14617: a2 = u64 [sp + 168]\n 14621: a3 = u64 [sp + 160]\n 14625: u64 [sp + 408] = a0\n 14629: u64 [sp + 400] = a1\n 14633: u64 [sp + 392] = a2\n 14637: u64 [sp + 384] = a3\n 14641: u64 [sp + 568] = 0\n 14645: u64 [sp + 560] = 0\n 14649: u64 [sp + 552] = 0\n 14653: u64 [sp + 544] = 0\n 14657: u64 [sp + 496] = 0\n 14661: u64 [sp + 504] = 0\n 14665: u64 [sp + 488] = 0\n 14669: u64 [sp + 480] = 256\n 14675: a1 = sp + 0x180\n 14679: a3 = sp + 0x220\n 14683: a4 = sp + 0x1e0\n 14687: a2 = 0xffffffff\n 14690: a0 = 0x0\n 14692: ecalli 5 // 'get_storage'\n 14694: fallthrough\n      : @363 (gas: 8)\n 14695: a5 = u64 [sp + 568]\n 14699: a4 = u64 [sp + 560]\n 14703: a3 = u64 [sp + 552]\n 14707: a2 = u64 [sp + 544]\n 14711: a0 = a3 | a5\n 14714: a1 = a2 | a4\n 14717: a0 = a0 | a1\n 14720: jump @374 if a0 != 0\n      : @364 (gas: 3)\n 14724: a0 = 0x40\n 14727: a1 = 0x20\n 14730: ra = 278, jump @0\n      : @365 [@dyn 139] (gas: 1)\n 14736: jump @360 if a0 == 0\n      : @366 (gas: 17)\n 14740: s1 = 0x20050\n 14745: a0 = u64 [0x20098]\n 14750: a1 = u64 [0x20090]\n 14755: a2 = u64 [0x200a0]\n 14760: a3 = u64 [0x200a8]\n 14765: a5 = reverse a0\n 14767: t0 = reverse a1\n 14769: a4 = reverse a2\n 14771: a2 = reverse a3\n 14773: a0 = a4 | t0\n 14776: a1 = a2 | a5\n 14779: a1 = a1 | a0\n 14782: a1 = a1 >>64 32\n 14785: a0 = a0 | a5\n 14788: a0 = a0 <<64 32\n 14791: a0 = a0 | a1\n 14794: jump @360 if a0 != 0\n      : @367 (gas: 8)\n 14798: u64 [sp + 64] = t0\n 14801: u64 [sp + 72] = a5\n 14804: u64 [sp + 80] = a4\n 14807: u64 [sp + 88] = a2\n 14810: a0 = a2 + 0x0\n 14812: a1 = 0x20\n 14815: u64 [sp + 56] = a0\n 14818: ra = 280, jump @0\n      : @368 [@dyn 140] (gas: 1)\n 14824: jump @360 if a0 == 0\n      : @369 (gas: 48)\n 14828: a0 = u64 [sp + 56]\n 14831: i64 s1 = s1 + a0\n 14834: u8 [s1 + 31] = 0\n 14837: u8 [s1 + 30] = 0\n 14840: u8 [s1 + 29] = 0\n 14843: u8 [s1 + 28] = 0\n 14846: u8 [s1 + 27] = 0\n 14849: u8 [s1 + 26] = 0\n 14852: u8 [s1 + 25] = 0\n 14855: u8 [s1 + 24] = 0\n 14858: u8 [s1 + 23] = 0\n 14861: u8 [s1 + 22] = 0\n 14864: u8 [s1 + 21] = 0\n 14867: u8 [s1 + 20] = 0\n 14870: u8 [s1 + 19] = 0\n 14873: u8 [s1 + 18] = 0\n 14876: u8 [s1 + 17] = 0\n 14879: u8 [s1 + 16] = 0\n 14882: u8 [s1 + 15] = 0\n 14885: u8 [s1 + 14] = 0\n 14888: u8 [s1 + 13] = 0\n 14891: u8 [s1 + 12] = 0\n 14894: u8 [s1 + 11] = 0\n 14897: u8 [s1 + 10] = 0\n 14900: u8 [s1 + 9] = 0\n 14903: u8 [s1 + 8] = 0\n 14906: u8 [s1 + 7] = 0\n 14909: u8 [s1 + 6] = 0\n 14912: u8 [s1 + 5] = 0\n 14915: u8 [s1 + 4] = 0\n 14918: u8 [s1 + 3] = 160\n 14923: u8 [s1 + 2] = 121\n 14927: u8 [s1 + 1] = 195\n 14932: u8 [s1 + 0] = 8\n 14935: a0 = u64 [sp + 88]\n 14938: i64 a1 = i64 a0 + 0x4\n 14941: a0 = a1 <u a0\n 14944: a3 = u64 [sp + 80]\n 14947: i64 a2 = a3 + a0\n 14950: a3 = a2 <u a3\n 14953: a3 = a0 if a0 == 0\n 14956: a0 = u64 [sp + 72]\n 14959: i64 a3 = a3 + a0\n 14962: a4 = a3 <u a0\n 14965: a0 = u64 [sp + 64]\n 14968: i64 a4 = a4 + a0\n 14971: i64 a0 = i64 sp + 0x60\n 14974: ra = 282, jump @1283\n      : @370 [@dyn 141] (gas: 31)\n 14981: a1 = u64 [sp + 104]\n 14984: t0 = u64 [sp + 120]\n 14987: t1 = u64 [sp + 96]\n 14990: a3 = u64 [sp + 112]\n 14993: a0 = u64 [sp + 80]\n 14996: a4 = a1 ^ a0\n 14999: a5 = a1 <u a0\n 15002: ra = a0\n 15004: t2 = u64 [sp + 88]\n 15007: a2 = t1 <u t2\n 15010: a5 = a2 if a4 == 0\n 15013: a0 = u64 [sp + 72]\n 15016: i64 a4 = i64 a3 - i64 a0\n 15019: a3 = a3 <u a0\n 15022: a0 = u64 [sp + 64]\n 15025: i64 a0 = i64 t0 - i64 a0\n 15028: i64 a0 = i64 a0 - i64 a3\n 15031: a3 = a4 <u a5\n 15034: i64 a0 = i64 a0 - i64 a3\n 15037: i64 a4 = i64 a4 - i64 a5\n 15040: i64 a1 = i64 a1 - i64 ra\n 15043: i64 a1 = i64 a1 - i64 a2\n 15046: a0 = a0 | a1\n 15049: i64 a1 = i64 t1 - i64 t2\n 15052: a1 = a1 | a4\n 15055: a1 = a1 | a0\n 15058: a0 = a0 | a4\n 15061: a1 = a1 >>64 32\n 15064: a0 = a0 <<64 32\n 15067: a0 = a0 | a1\n 15070: jump @360 if a0 != 0\n      : @371 (gas: 4)\n 15074: a1 = t1 - t2\n 15077: a0 = u64 [sp + 56]\n 15080: u64 [sp + 88] = a1\n 15083: ra = 284, jump @0\n      : @372 [@dyn 142] (gas: 1)\n 15089: jump @360 if a0 == 0\n      : @373 (gas: 5)\n 15093: a1 = s1 + 0x0\n 15095: a0 = 0x1\n 15098: a2 = u64 [sp + 88]\n 15101: ecalli 11 // 'seal_return'\n 15103: fallthrough\n      : @374 (gas: 27)\n 15104: a0 = sp + 0x100\n 15108: u64 [sp + 88] = a2\n 15111: u64 [sp + 80] = a3\n 15114: u64 [sp + 72] = a4\n 15117: u64 [sp + 64] = a5\n 15120: ecalli 3 // 'caller'\n 15122: a0 = u64 [sp + 264]\n 15126: a1 = i32 [sp + 272]\n 15130: a2 = u64 [sp + 256]\n 15134: a0 = reverse a0\n 15136: a3 = a0 <<64 32\n 15139: a1 = reverse a1\n 15141: a1 = a1 >>64 32\n 15144: a5 = a1 | a3\n 15147: a0 = a0 >>64 32\n 15150: a1 = reverse a2\n 15152: a2 = a1 <<64 32\n 15155: t2 = a2 | a0\n 15158: a2 = a1 >>64 32\n 15161: u64 [sp + 8] = 0\n 15164: i64 a0 = i64 sp + 0x80\n 15168: a1 = 0x5\n 15171: u64 [sp] = a2\n 15173: a2 = 0x0\n 15175: a3 = 0x0\n 15177: a4 = 0x0\n 15179: ra = 286, jump @271\n      : @375 [@dyn 143] (gas: 61)\n 15185: a3 = u64 [sp + 152]\n 15189: u64 [sp + 40] = a3\n 15192: a2 = u64 [sp + 144]\n 15196: u64 [sp + 48] = a2\n 15199: a1 = u64 [sp + 136]\n 15203: u64 [sp + 56] = a1\n 15206: s1 = u64 [sp + 128]\n 15210: u64 [sp + 568] = a3\n 15214: u64 [sp + 560] = a2\n 15218: u64 [sp + 552] = a1\n 15222: u64 [sp + 544] = s1\n 15226: u64 [sp + 504] = 0\n 15230: u64 [sp + 496] = 0\n 15234: u64 [sp + 488] = 0\n 15238: u64 [sp + 480] = 0\n 15242: u64 [sp + 336] = 0\n 15246: u64 [sp + 344] = 0\n 15250: u64 [sp + 328] = 0\n 15254: u64 [sp + 320] = 256\n 15260: a1 = sp + 0x220\n 15264: a3 = sp + 0x1e0\n 15268: a4 = sp + 0x140\n 15272: a2 = 0xffffffff\n 15275: a0 = 0x0\n 15277: ecalli 5 // 'get_storage'\n 15279: a0 = u64 [sp + 40]\n 15282: u64 [sp + 408] = a0\n 15286: a0 = u64 [sp + 48]\n 15289: u64 [sp + 400] = a0\n 15293: a0 = u64 [sp + 56]\n 15296: u64 [sp + 392] = a0\n 15300: u64 [sp + 384] = s1\n 15304: u64 [sp + 472] = 0\n 15308: u64 [sp + 464] = 0\n 15312: u64 [sp + 456] = 0\n 15316: u64 [sp + 448] = 0\n 15320: a1 = sp + 0x180\n 15324: a3 = sp + 0x1c0\n 15328: a2 = 0xffffffff\n 15331: a4 = 0x20\n 15334: a0 = 0x0\n 15336: ecalli 13 // 'set_storage'\n 15338: a0 = sp + 0x120\n 15342: ecalli 3 // 'caller'\n 15344: a0 = u64 [sp + 296]\n 15348: a1 = u64 [sp + 288]\n 15352: a2 = i32 [sp + 304]\n 15356: u64 [sp + 328] = a0\n 15360: u64 [sp + 320] = a1\n 15364: u32 [sp + 336] = a2\n 15368: a0 = u64 [sp + 64]\n 15371: u64 [sp + 472] = a0\n 15375: a0 = u64 [sp + 72]\n 15378: u64 [sp + 464] = a0\n 15382: a0 = u64 [sp + 80]\n 15385: u64 [sp + 456] = a0\n 15389: a0 = u64 [sp + 88]\n 15392: u64 [sp + 448] = a0\n 15396: a0 = 0x0\n 15398: a1 = 0x0\n 15400: ra = 288, jump @0\n      : @376 [@dyn 144] (gas: 1)\n 15406: jump @360 if a0 == 0\n      : @377 (gas: 3)\n 15410: a0 = 0x0\n 15412: a1 = 0x0\n 15414: ra = 290, jump @0\n      : @378 [@dyn 145] (gas: 1)\n 15420: jump @360 if a0 == 0\n      : @379 (gas: 19)\n 15424: u32 [sp + 352] = 0\n 15428: u32 [sp + 384] = 8\n 15433: i64 a0 = i64 sp + 0x140\n 15437: u64 [sp + 388] = a0\n 15441: u64 [sp + 400] = 0\n 15445: u64 [sp + 392] = 0\n 15449: a0 = 0xffffffff\n 15459: u64 [sp + 408] = a0\n 15463: i64 a0 = i64 sp + 0x1c0\n 15467: u64 [sp + 412] = a0\n 15471: s1 = 0x20050\n 15476: u64 [sp + 416] = s1\n 15480: u32 [sp + 420] = 0\n 15484: u64 [sp + 424] = s1\n 15488: i64 a0 = i64 sp + 0x160\n 15492: u64 [sp + 428] = a0\n 15496: a0 = sp + 0x180\n 15500: ecalli 2 // 'call'\n 15502: fallthrough\n      : @380 (gas: 1)\n 15503: jump @387 if a0 != 0\n      : @381 (gas: 3)\n 15506: a0 = 0x40\n 15509: a1 = 0x20\n 15512: ra = 292, jump @0\n      : @382 [@dyn 146] (gas: 1)\n 15518: jump @360 if a0 == 0\n      : @383 (gas: 15)\n 15522: a0 = u64 [s1 + 72]\n 15525: a1 = u64 [s1 + 88]\n 15528: a2 = u64 [s1 + 64]\n 15531: a3 = u64 [s1 + 80]\n 15534: a4 = reverse a0\n 15536: a0 = reverse a1\n 15538: a1 = a0 | a4\n 15541: a2 = a2 | a3\n 15544: a2 = reverse a2\n 15546: a1 = a1 | a2\n 15549: a1 = a1 >>64 32\n 15552: a2 = a2 | a4\n 15555: a2 = a2 <<64 32\n 15558: a1 = a1 | a2\n 15561: jump @360 if a1 != 0\n      : @384 (gas: 3)\n 15565: a0 = a0 + 0x0\n 15567: u64 [sp + 88] = a0\n 15570: ra = 294, jump @0\n      : @385 [@dyn 147] (gas: 1)\n 15576: jump @360 if a0 == 0\n      : @386 (gas: 6)\n 15580: a1 = u64 [sp + 88]\n 15583: a1 = a1 + s1\n 15586: a0 = 0x0\n 15588: a2 = 0x0\n 15590: ecalli 11 // 'seal_return'\n 15592: fallthrough\n      : @387 (gas: 3)\n 15593: a0 = 0x40\n 15596: a1 = 0x20\n 15599: ra = 296, jump @0\n      : @388 [@dyn 148] (gas: 1)\n 15605: jump @360 if a0 == 0\n      : @389 (gas: 13)\n 15609: a0 = u64 [s1 + 80]\n 15612: u64 [sp + 88] = a0\n 15615: a0 = u64 [s1 + 72]\n 15618: a1 = u64 [s1 + 88]\n 15621: a2 = u64 [s1 + 64]\n 15624: u64 [sp + 80] = a2\n 15627: a0 = reverse a0\n 15629: u64 [sp + 72] = a0\n 15632: a0 = reverse a1\n 15634: u64 [sp + 64] = a0\n 15637: a0 = sp + 0x1e0\n 15641: ecalli 10 // 'return_data_size'\n 15643: fallthrough\n      : @390 (gas: 13)\n 15644: a3 = u64 [sp + 64]\n 15647: a2 = u64 [sp + 72]\n 15650: a0 = a3 | a2\n 15653: a1 = u64 [sp + 88]\n 15656: a4 = u64 [sp + 80]\n 15659: a1 = a1 | a4\n 15662: a1 = reverse a1\n 15664: a0 = a0 | a1\n 15667: a0 = a0 >>64 32\n 15670: a1 = a1 | a2\n 15673: a1 = a1 <<64 32\n 15676: a0 = a0 | a1\n 15679: jump @360 if a0 != 0\n      : @391 (gas: 12)\n 15683: a4 = u64 [sp + 480]\n 15687: a0 = u64 [sp + 504]\n 15691: a1 = u64 [sp + 488]\n 15695: a2 = u64 [sp + 496]\n 15699: a0 = a0 | a1\n 15702: a1 = a4 | a2\n 15705: a1 = a1 | a0\n 15708: a1 = a1 >>64 32\n 15711: a0 = a0 | a2\n 15714: a0 = a0 <<64 32\n 15717: a0 = a0 | a1\n 15720: jump @360 if a0 != 0\n      : @392 (gas: 6)\n 15724: a0 = a3 + 0x0\n 15726: u64 [sp + 80] = a4\n 15729: a1 = a4 + 0x0\n 15731: u64 [sp + 88] = a0\n 15734: u64 [sp + 72] = a1\n 15737: ra = 298, jump @0\n      : @393 [@dyn 149] (gas: 1)\n 15743: jump @360 if a0 == 0\n      : @394 (gas: 8)\n 15747: a0 = u64 [sp + 80]\n 15750: u32 [sp + 512] = a0\n 15754: a0 = u64 [sp + 88]\n 15757: a0 = a0 + s1\n 15760: a1 = sp + 0x200\n 15764: a2 = 0x0\n 15766: ecalli 9 // 'return_data_copy'\n 15768: fallthrough\n      : @395 (gas: 3)\n 15769: a0 = i32 [sp + 512]\n 15773: a1 = u64 [sp + 72]\n 15776: jump @360 if a0 <u a1\n      : @396 (gas: 3)\n 15780: a0 = sp + 0x220\n 15784: ecalli 10 // 'return_data_size'\n 15786: fallthrough\n      : @397 (gas: 12)\n 15787: a1 = u64 [sp + 560]\n 15791: a2 = u64 [sp + 568]\n 15795: a3 = u64 [sp + 552]\n 15799: a0 = u64 [sp + 544]\n 15803: a2 = a2 | a3\n 15806: a3 = a0 | a1\n 15809: a3 = a3 | a2\n 15812: a3 = a3 >>64 32\n 15815: a1 = a1 | a2\n 15818: a1 = a1 <<64 32\n 15821: a1 = a1 | a3\n 15824: jump @360 if a1 != 0\n      : @398 (gas: 4)\n 15828: a1 = a0 + 0x0\n 15830: a0 = u64 [sp + 88]\n 15833: u64 [sp + 80] = a1\n 15836: ra = 300, jump @0\n      : @399 [@dyn 150] (gas: 1)\n 15842: jump @360 if a0 == 0\n      : @400 (gas: 6)\n 15846: a1 = u64 [sp + 88]\n 15849: a1 = a1 + s1\n 15852: a0 = 0x1\n 15855: a2 = u64 [sp + 80]\n 15858: ecalli 11 // 'seal_return'\n 15860: fallthrough\n      : @401 (gas: 7)\n 15861: a1 = 0x20050\n 15866: a1 = a1 + 0x0\n 15868: a0 = 0x1\n 15871: a2 = 0x0\n 15873: ra = 0x12e\n 15877: ecalli 11 // 'seal_return'\n 15879: fallthrough\n      : @402 [@dyn 151] (gas: 33)\n 15880: i64 sp = i64 sp - i64 208\n 15884: u64 [sp + 200] = ra\n 15888: u64 [sp + 192] = s0\n 15892: u64 [sp + 184] = s1\n 15896: i64 s0 = i64 sp + 0xd0\n 15900: sp = sp & 0xfffffff0\n 15903: a5 = u64 [0x30460]\n 15908: t1 = u64 [0x30478]\n 15913: t0 = u64 [0x30468]\n 15918: t2 = u64 [0x30470]\n 15923: i64 a0 = i64 a5 - i64 4\n 15926: a1 = a0 <u a5\n 15929: i64 a2 = t0 + a1\n 15932: i64 a2 = i64 a2 - i64 1\n 15935: a3 = a2 ^ t0\n 15938: a4 = a2 <u t0\n 15941: a4 = a1 if a3 == 0\n 15944: i64 a1 = i64 t2 - i64 1\n 15947: i64 a4 = a4 + a1\n 15950: a1 = a4 <u a1\n 15953: a3 = t2 <u 0x1\n 15956: i64 a3 = i64 t1 - i64 a3\n 15959: i64 a1 = a1 + a3\n 15962: a3 = a1 >s 0\n 15964: s1 = a4 >u 0x0\n 15966: s1 = a3 if a1 != 0\n 15969: a1 = a1 | a4\n 15972: a3 = a2 >u 0x0\n 15974: a0 = a0 <u 0x60\n 15977: a0 = a0 ^ 0x1\n 15980: a0 = a3 if a2 != 0\n 15983: a0 = s1 if a1 != 0\n 15986: jump @406 if a0 != 0\n      : @403 (gas: 2)\n 15989: a1 = 0x0\n 15991: ra = 304, jump @0\n      : @404 [@dyn 152] (gas: 1)\n 15997: jump @426 if a0 == 0\n      : @405 (gas: 6)\n 16001: a1 = 0x20050\n 16006: a1 = a1 + 0x0\n 16008: a0 = 0x1\n 16011: a2 = 0x0\n 16013: ecalli 11 // 'seal_return'\n 16015: fallthrough\n      : @406 (gas: 11)\n 16016: s1 = 0x30060\n 16021: a0 = u64 [0x30074]\n 16026: a1 = u64 [0x30064]\n 16031: a2 = u64 [0x3006c]\n 16036: a3 = reverse a0\n 16038: a4 = reverse a1\n 16040: a0 = reverse a2\n 16042: a1 = a0 | a4\n 16045: a2 = a3 <u 0x1\n 16048: a2 = 0 if a1 != 0\n 16050: jump @410 if a2 != 0\n      : @407 (gas: 3)\n 16053: a0 = 0x0\n 16055: a1 = 0x0\n 16057: ra = 306, jump @0\n      : @408 [@dyn 153] (gas: 1)\n 16063: jump @426 if a0 == 0\n      : @409 (gas: 6)\n 16067: a1 = 0x20050\n 16072: a1 = a1 + 0x0\n 16074: a0 = 0x1\n 16077: a2 = 0x0\n 16079: ecalli 11 // 'seal_return'\n 16081: fallthrough\n      : @410 (gas: 20)\n 16082: a1 = u64 [s1 + 28]\n 16085: a2 = reverse a1\n 16087: i64 a1 = i64 a2 + 0x4\n 16090: u64 [sp + 104] = s1\n 16093: s1 = a1 <u a2\n 16096: i64 a2 = a3 + s1\n 16099: a3 = a2 <u a3\n 16102: a3 = s1 if s1 == 0\n 16105: i64 a3 = a3 + a0\n 16108: a0 = a3 <u a0\n 16111: i64 a4 = a4 + a0\n 16114: u64 [sp] = t2\n 16116: i64 a0 = i64 sp + 0x90\n 16120: u64 [sp + 8] = t1\n 16123: u64 [sp + 72] = t2\n 16126: u64 [sp + 96] = t0\n 16129: t2 = t0\n 16131: u64 [sp + 88] = a5\n 16134: u64 [sp + 80] = t1\n 16137: ra = 308, jump @132\n      : @411 [@dyn 154] (gas: 12)\n 16143: a2 = u64 [sp + 104]\n 16146: a0 = u64 [a2 + 52]\n 16149: a1 = u64 [a2 + 36]\n 16152: s1 = a2\n 16154: a2 = u64 [a2 + 44]\n 16157: a3 = reverse a0\n 16159: a4 = reverse a1\n 16161: a0 = reverse a2\n 16163: a1 = a0 | a4\n 16166: a2 = a3 <u 0x1\n 16169: a2 = 0 if a1 != 0\n 16171: jump @415 if a2 != 0\n      : @412 (gas: 3)\n 16174: a0 = 0x0\n 16176: a1 = 0x0\n 16178: ra = 310, jump @0\n      : @413 [@dyn 155] (gas: 1)\n 16184: jump @426 if a0 == 0\n      : @414 (gas: 6)\n 16188: a1 = 0x20050\n 16193: a1 = a1 + 0x0\n 16195: a0 = 0x1\n 16198: a2 = 0x0\n 16200: ecalli 11 // 'seal_return'\n 16202: fallthrough\n      : @415 (gas: 26)\n 16203: a1 = u64 [sp + 168]\n 16207: u64 [sp + 64] = a1\n 16210: a1 = u64 [s1 + 60]\n 16213: a2 = u64 [sp + 160]\n 16217: u64 [sp + 56] = a2\n 16220: a2 = u64 [sp + 152]\n 16224: u64 [sp + 48] = a2\n 16227: a2 = u64 [sp + 144]\n 16231: u64 [sp + 40] = a2\n 16234: a2 = reverse a1\n 16236: i64 a1 = i64 a2 + 0x4\n 16239: a5 = a1 <u a2\n 16242: i64 a2 = a3 + a5\n 16245: a3 = a2 <u a3\n 16248: a3 = a5 if a5 == 0\n 16251: i64 a3 = a3 + a0\n 16254: a0 = a3 <u a0\n 16257: i64 a4 = a4 + a0\n 16260: a0 = u64 [sp + 72]\n 16263: u64 [sp] = a0\n 16265: i64 a0 = i64 sp + 0x70\n 16268: a5 = u64 [sp + 80]\n 16271: u64 [sp + 8] = a5\n 16274: a5 = u64 [sp + 88]\n 16277: t2 = u64 [sp + 96]\n 16280: ra = 312, jump @132\n      : @416 [@dyn 156] (gas: 13)\n 16286: a0 = u64 [s1 + 84]\n 16289: a1 = u64 [s1 + 92]\n 16292: a3 = u64 [s1 + 68]\n 16295: a4 = u64 [s1 + 76]\n 16298: a2 = reverse a0\n 16300: a1 = reverse a1\n 16302: a0 = reverse a3\n 16304: a3 = reverse a4\n 16306: a4 = a3 | a0\n 16309: a5 = a1 <u 0x3\n 16312: a5 = 0 if a2 != 0\n 16314: a5 = 0 if a4 != 0\n 16316: jump @420 if a5 != 0\n      : @417 (gas: 3)\n 16319: a0 = 0x0\n 16321: a1 = 0x0\n 16323: ra = 314, jump @0\n      : @418 [@dyn 157] (gas: 1)\n 16329: jump @426 if a0 == 0\n      : @419 (gas: 6)\n 16333: a1 = 0x20050\n 16338: a1 = a1 + 0x0\n 16340: a0 = 0x1\n 16343: a2 = 0x0\n 16345: ecalli 11 // 'seal_return'\n 16347: fallthrough\n      : @420 (gas: 36)\n 16348: s1 = u64 [sp + 136]\n 16352: t2 = u64 [sp + 128]\n 16356: a5 = u64 [sp + 120]\n 16359: a4 = u64 [sp + 112]\n 16362: u64 [sp + 16] = a2\n 16365: u64 [sp + 8] = a1\n 16368: u64 [sp + 24] = a3\n 16371: u64 [sp + 32] = a0\n 16374: u64 [sp] = s1\n 16376: a0 = u64 [sp + 40]\n 16379: a1 = u64 [sp + 48]\n 16382: a2 = u64 [sp + 56]\n 16385: a3 = u64 [sp + 64]\n 16388: ra = 0x13c\n 16392: i64 sp = i64 sp - i64 896\n 16396: u64 [sp + 888] = ra\n 16400: u64 [sp + 880] = s0\n 16404: u64 [sp + 872] = s1\n 16408: i64 s0 = i64 sp + 0x380\n 16412: sp = sp & 0xffffffe0\n 16415: s1 = sp\n 16417: u64 [s1 + 256] = t2\n 16421: u64 [s1 + 248] = a5\n 16425: u64 [s1 + 240] = a4\n 16429: u64 [s1 + 224] = a3\n 16433: u64 [s1 + 216] = a2\n 16437: u64 [s1 + 208] = a1\n 16441: u64 [s1 + 200] = a0\n 16445: u64 [s1 + 504] = 0\n 16449: u64 [s1 + 496] = 0\n 16453: u64 [s1 + 488] = 0\n 16457: u64 [s1 + 480] = 0\n 16461: a0 = s1 + 0x1e0\n 16465: ra = 0x366\n 16469: ecalli 14 // 'value_transferred'\n 16471: jump @1316\n      : @421 [@dyn 158] (gas: 3)\n 16475: a0 = 0x40\n 16478: a1 = 0x20\n 16481: ra = 318, jump @0\n      : @422 [@dyn 159] (gas: 1)\n 16487: jump @426 if a0 == 0\n      : @423 (gas: 16)\n 16490: s1 = 0x20050\n 16495: a0 = u64 [0x20098]\n 16500: a1 = u64 [0x200a8]\n 16505: a2 = u64 [0x20090]\n 16510: a3 = u64 [0x200a0]\n 16515: a4 = reverse a0\n 16517: a0 = reverse a1\n 16519: a1 = a0 | a4\n 16522: a2 = a2 | a3\n 16525: a2 = reverse a2\n 16527: a1 = a1 | a2\n 16530: a1 = a1 >>64 32\n 16533: a2 = a2 | a4\n 16536: a2 = a2 <<64 32\n 16539: a1 = a1 | a2\n 16542: jump @426 if a1 != 0\n      : @424 (gas: 3)\n 16545: a0 = a0 + 0x0\n 16547: u64 [sp + 104] = a0\n 16550: ra = 320, jump @0\n      : @425 [@dyn 160] (gas: 1)\n 16556: jump @427 if a0 != 0\n      : @426 (gas: 1)\n 16559: trap\n      : @427 (gas: 7)\n 16560: a1 = u64 [sp + 104]\n 16563: a1 = a1 + s1\n 16566: a0 = 0x0\n 16568: a2 = 0x0\n 16570: ra = 0x142\n 16574: ecalli 11 // 'seal_return'\n 16576: fallthrough\n      : @428 [@dyn 161] (gas: 13)\n 16577: i64 sp = i64 sp - i64 608\n 16581: u64 [sp + 600] = ra\n 16585: u64 [sp + 592] = s0\n 16589: u64 [sp + 584] = s1\n 16593: i64 s0 = i64 sp + 0x260\n 16597: sp = sp & 0xffffffe0\n 16600: u64 [sp + 568] = 0\n 16604: u64 [sp + 560] = 0\n 16608: u64 [sp + 552] = 0\n 16612: u64 [sp + 544] = 0\n 16616: a0 = sp + 0x220\n 16620: ecalli 14 // 'value_transferred'\n 16622: fallthrough\n      : @429 (gas: 8)\n 16623: a0 = u64 [sp + 560]\n 16627: a1 = u64 [sp + 568]\n 16631: a2 = u64 [sp + 552]\n 16635: a3 = u64 [sp + 544]\n 16639: a1 = a1 | a2\n 16642: a0 = a0 | a3\n 16645: a0 = a0 | a1\n 16648: jump @434 if a0 != 0\n      : @430 (gas: 27)\n 16651: a5 = u64 [0x30460]\n 16656: t0 = u64 [0x30478]\n 16661: t2 = u64 [0x30468]\n 16666: t1 = u64 [0x30470]\n 16671: i64 a1 = i64 a5 - i64 4\n 16674: a2 = a1 <u a5\n 16677: i64 a3 = t2 + a2\n 16680: i64 a3 = i64 a3 - i64 1\n 16683: a4 = a3 ^ t2\n 16686: s1 = a3 <u t2\n 16689: s1 = a2 if a4 == 0\n 16692: i64 a2 = i64 t1 - i64 1\n 16695: i64 s1 = s1 + a2\n 16698: a2 = s1 <u a2\n 16701: a4 = t1 <u 0x1\n 16704: i64 a4 = i64 t0 - i64 a4\n 16707: i64 a2 = a2 + a4\n 16710: a4 = a2 >s 0\n 16712: a0 = s1 >u 0x0\n 16714: a0 = a4 if a2 != 0\n 16717: a2 = a2 | s1\n 16720: a4 = a3 >u 0x0\n 16722: a1 = a1 <u 0x20\n 16725: a1 = a1 ^ 0x1\n 16728: a1 = a4 if a3 != 0\n 16731: a1 = a0 if a2 != 0\n 16734: jump @437 if a1 != 0\n      : @431 (gas: 2)\n 16737: a0 = 0x0\n 16739: ra = 324, jump @0\n      : @432 [@dyn 162] (gas: 1)\n 16745: jump @436 if a0 == 0\n      : @433 (gas: 6)\n 16748: a1 = 0x20050\n 16753: a1 = a1 + 0x0\n 16755: a0 = 0x1\n 16758: a2 = 0x0\n 16760: ecalli 11 // 'seal_return'\n 16762: fallthrough\n      : @434 (gas: 3)\n 16763: a0 = 0x0\n 16765: a1 = 0x0\n 16767: ra = 326, jump @0\n      : @435 [@dyn 163] (gas: 1)\n 16773: jump @469 if a0 != 0\n      : @436 (gas: 1)\n 16777: trap\n      : @437 (gas: 11)\n 16778: a1 = 0x30060\n 16783: a0 = u64 [0x30074]\n 16788: a2 = u64 [0x30064]\n 16793: s1 = u64 [0x3006c]\n 16798: a3 = reverse a0\n 16800: a4 = reverse a2\n 16802: s1 = reverse s1\n 16804: a0 = s1 | a4\n 16807: a2 = a3 <u 0x1\n 16810: a2 = 0 if a0 != 0\n 16812: jump @441 if a2 != 0\n      : @438 (gas: 3)\n 16815: a0 = 0x0\n 16817: a1 = 0x0\n 16819: ra = 328, jump @0\n      : @439 [@dyn 164] (gas: 1)\n 16825: jump @436 if a0 == 0\n      : @440 (gas: 6)\n 16828: a1 = 0x20050\n 16833: a1 = a1 + 0x0\n 16835: a0 = 0x1\n 16838: a2 = 0x0\n 16840: ecalli 11 // 'seal_return'\n 16842: fallthrough\n      : @441 (gas: 14)\n 16843: a0 = u64 [a1 + 28]\n 16846: a0 = reverse a0\n 16848: i64 a1 = i64 a0 + 0x4\n 16851: a0 = a1 <u a0\n 16854: i64 a2 = a3 + a0\n 16857: a3 = a2 <u a3\n 16860: a3 = a0 if a0 == 0\n 16863: i64 a3 = a3 + s1\n 16866: a0 = a3 <u s1\n 16869: i64 a4 = a4 + a0\n 16872: u64 [sp] = t1\n 16874: i64 a0 = i64 sp + 0x200\n 16878: u64 [sp + 8] = t0\n 16881: ra = 330, jump @132\n      : @442 [@dyn 165] (gas: 6)\n 16887: a4 = u64 [sp + 536]\n 16891: a3 = u64 [sp + 528]\n 16895: a2 = u64 [sp + 520]\n 16899: a1 = u64 [sp + 512]\n 16903: i64 a0 = i64 sp + 0x1e0\n 16907: ra = 332, jump @1524\n      : @443 [@dyn 166] (gas: 11)\n 16914: a0 = u64 [sp + 504]\n 16918: u64 [sp + 472] = a0\n 16922: a0 = u64 [sp + 496]\n 16926: u64 [sp + 456] = a0\n 16930: a0 = u64 [sp + 488]\n 16934: u64 [sp + 448] = a0\n 16938: a0 = u64 [sp + 480]\n 16942: u64 [sp + 440] = a0\n 16946: a0 = 0x40\n 16949: a1 = 0x20\n 16952: ra = 334, jump @0\n      : @444 [@dyn 167] (gas: 1)\n 16958: jump @436 if a0 == 0\n      : @445 (gas: 17)\n 16962: s1 = 0x20050\n 16967: a0 = u64 [0x20098]\n 16972: a1 = u64 [0x20090]\n 16977: a2 = u64 [0x200a0]\n 16982: a3 = u64 [0x200a8]\n 16987: a5 = reverse a0\n 16989: t0 = reverse a1\n 16991: a4 = reverse a2\n 16993: a2 = reverse a3\n 16995: a0 = a4 | t0\n 16998: a1 = a2 | a5\n 17001: a1 = a1 | a0\n 17004: a1 = a1 >>64 32\n 17007: a0 = a0 | a5\n 17010: a0 = a0 <<64 32\n 17013: a0 = a0 | a1\n 17016: jump @436 if a0 != 0\n      : @446 (gas: 9)\n 17020: u64 [sp + 432] = s1\n 17024: u64 [sp + 40] = t0\n 17027: u64 [sp + 48] = a5\n 17030: u64 [sp + 56] = a4\n 17033: u64 [sp + 64] = a2\n 17036: s1 = a2 + 0x0\n 17038: a1 = 0x20\n 17041: a0 = s1\n 17043: ra = 336, jump @0\n      : @447 [@dyn 168] (gas: 1)\n 17049: jump @436 if a0 == 0\n      : @448 (gas: 46)\n 17053: a2 = u64 [sp + 432]\n 17057: i64 a2 = a2 + s1\n 17060: u8 [a2 + 31] = 32\n 17064: u8 [a2 + 30] = 0\n 17067: u8 [a2 + 29] = 0\n 17070: u8 [a2 + 28] = 0\n 17073: u8 [a2 + 27] = 0\n 17076: u8 [a2 + 26] = 0\n 17079: u8 [a2 + 25] = 0\n 17082: u8 [a2 + 24] = 0\n 17085: u8 [a2 + 23] = 0\n 17088: u8 [a2 + 22] = 0\n 17091: u8 [a2 + 21] = 0\n 17094: u8 [a2 + 20] = 0\n 17097: u8 [a2 + 19] = 0\n 17100: u8 [a2 + 18] = 0\n 17103: u8 [a2 + 17] = 0\n 17106: u8 [a2 + 16] = 0\n 17109: u8 [a2 + 15] = 0\n 17112: u8 [a2 + 14] = 0\n 17115: u8 [a2 + 13] = 0\n 17118: u8 [a2 + 12] = 0\n 17121: u8 [a2 + 11] = 0\n 17124: u8 [a2 + 10] = 0\n 17127: u8 [a2 + 9] = 0\n 17130: u8 [a2 + 8] = 0\n 17133: u8 [a2 + 7] = 0\n 17136: u8 [a2 + 6] = 0\n 17139: u8 [a2 + 5] = 0\n 17142: u8 [a2 + 4] = 0\n 17145: u8 [a2 + 3] = 0\n 17148: u8 [a2 + 2] = 0\n 17151: u8 [a2 + 1] = 0\n 17154: a3 = u64 [sp + 456]\n 17158: a5 = u64 [sp + 440]\n 17162: a0 = a5 | a3\n 17165: a1 = u64 [sp + 472]\n 17169: a4 = u64 [sp + 448]\n 17173: a1 = a1 | a4\n 17176: a0 = a0 | a1\n 17179: a0 = a0 >>64 32\n 17182: a1 = a1 | a3\n 17185: a1 = a1 <<64 32\n 17188: a0 = a0 | a1\n 17191: u8 [a2 + 0] = 0\n 17193: jump @436 if a0 != 0\n      : @449 (gas: 6)\n 17197: u64 [sp + 24] = a2\n 17200: u64 [sp + 32] = s1\n 17203: s1 = a5 + 0x0\n 17205: a1 = 0x20\n 17208: a0 = s1\n 17210: ra = 338, jump @0\n      : @450 [@dyn 169] (gas: 1)\n 17216: jump @436 if a0 == 0\n      : @451 (gas: 14)\n 17220: a5 = u64 [sp + 48]\n 17223: a0 = a5 >u 0x0\n 17225: a3 = u64 [sp + 40]\n 17228: a1 = a3 >u 0x0\n 17230: a1 = a0 if a3 == 0\n 17233: a0 = 0xffffffdf\n 17243: t0 = u64 [sp + 64]\n 17246: a0 = a0 <u t0\n 17249: a4 = u64 [sp + 56]\n 17252: a2 = a4 >u 0x0\n 17254: a2 = a0 if a4 == 0\n 17257: a0 = a5 | a3\n 17260: a2 = a1 if a0 != 0\n 17263: jump @436 if a2 != 0\n      : @452 (gas: 72)\n 17267: a0 = u64 [sp + 432]\n 17271: i64 s1 = s1 + a0\n 17274: a0 = u8 [s1 + 24]\n 17277: u64 [sp + 208] = a0\n 17281: a0 = u8 [s1 + 25]\n 17284: u64 [sp + 176] = a0\n 17288: a0 = u8 [s1 + 26]\n 17291: u64 [sp + 192] = a0\n 17295: a0 = u8 [s1 + 27]\n 17298: u64 [sp + 184] = a0\n 17302: a0 = u8 [s1 + 28]\n 17305: u64 [sp + 232] = a0\n 17309: a0 = u8 [s1 + 29]\n 17312: u64 [sp + 200] = a0\n 17316: a0 = u8 [s1 + 30]\n 17319: u64 [sp + 224] = a0\n 17323: a0 = u8 [s1 + 31]\n 17326: u64 [sp + 216] = a0\n 17330: a0 = u8 [s1 + 16]\n 17333: u64 [sp + 272] = a0\n 17337: a0 = u8 [s1 + 17]\n 17340: u64 [sp + 240] = a0\n 17344: a0 = u8 [s1 + 18]\n 17347: u64 [sp + 256] = a0\n 17351: a0 = u8 [s1 + 19]\n 17354: u64 [sp + 248] = a0\n 17358: a0 = u8 [s1 + 20]\n 17361: u64 [sp + 296] = a0\n 17365: a0 = u8 [s1 + 21]\n 17368: u64 [sp + 264] = a0\n 17372: a0 = u8 [s1 + 22]\n 17375: u64 [sp + 288] = a0\n 17379: a0 = u8 [s1 + 23]\n 17382: u64 [sp + 280] = a0\n 17386: a0 = u8 [s1 + 8]\n 17389: u64 [sp + 336] = a0\n 17393: a0 = u8 [s1 + 9]\n 17396: u64 [sp + 304] = a0\n 17400: a0 = u8 [s1 + 10]\n 17403: u64 [sp + 320] = a0\n 17407: a0 = u8 [s1 + 11]\n 17410: u64 [sp + 312] = a0\n 17414: a0 = u8 [s1 + 12]\n 17417: u64 [sp + 360] = a0\n 17421: a0 = u8 [s1 + 13]\n 17424: u64 [sp + 328] = a0\n 17428: a0 = u8 [s1 + 14]\n 17431: u64 [sp + 352] = a0\n 17435: a0 = u8 [s1 + 15]\n 17438: u64 [sp + 344] = a0\n 17442: a0 = u8 [s1]\n 17444: u64 [sp + 400] = a0\n 17448: a0 = u8 [s1 + 1]\n 17451: u64 [sp + 368] = a0\n 17455: a0 = u8 [s1 + 2]\n 17458: u64 [sp + 384] = a0\n 17462: a0 = u8 [s1 + 3]\n 17465: u64 [sp + 376] = a0\n 17469: a0 = u8 [s1 + 4]\n 17472: u64 [sp + 464] = a0\n 17476: a0 = u8 [s1 + 5]\n 17479: u64 [sp + 392] = a0\n 17483: a0 = u8 [s1 + 6]\n 17486: u64 [sp + 416] = a0\n 17490: a0 = u8 [s1 + 7]\n 17493: u64 [sp + 408] = a0\n 17497: i64 s1 = i64 t0 + 0x20\n 17500: u64 [sp + 424] = s1\n 17504: s1 = s1 + 0x0\n 17506: a1 = 0x20\n 17509: a0 = s1\n 17511: ra = 340, jump @0\n      : @453 [@dyn 170] (gas: 1)\n 17517: jump @436 if a0 == 0\n      : @454 (gas: 170)\n 17521: a0 = u64 [sp + 176]\n 17525: a0 = a0 <<64 8\n 17528: a1 = u64 [sp + 208]\n 17532: a0 = a0 | a1\n 17535: a1 = u64 [sp + 192]\n 17539: a1 = a1 <<64 16\n 17542: a2 = u64 [sp + 184]\n 17546: a2 = a2 <<64 24\n 17549: a1 = a1 | a2\n 17552: a0 = a0 | a1\n 17555: a1 = u64 [sp + 200]\n 17559: a1 = a1 <<64 8\n 17562: a2 = u64 [sp + 232]\n 17566: a1 = a1 | a2\n 17569: a2 = u64 [sp + 224]\n 17573: a2 = a2 <<64 16\n 17576: a3 = u64 [sp + 216]\n 17580: a3 = a3 <<64 24\n 17583: a2 = a2 | a3\n 17586: a1 = a1 | a2\n 17589: a1 = a1 <<64 32\n 17592: t2 = a1 | a0\n 17595: a0 = u64 [sp + 240]\n 17599: a0 = a0 <<64 8\n 17602: a1 = u64 [sp + 272]\n 17606: a0 = a0 | a1\n 17609: a1 = u64 [sp + 256]\n 17613: a1 = a1 <<64 16\n 17616: a2 = u64 [sp + 248]\n 17620: a2 = a2 <<64 24\n 17623: a1 = a1 | a2\n 17626: a0 = a0 | a1\n 17629: a1 = u64 [sp + 264]\n 17633: a1 = a1 <<64 8\n 17636: a2 = u64 [sp + 296]\n 17640: a1 = a1 | a2\n 17643: a2 = u64 [sp + 288]\n 17647: a2 = a2 <<64 16\n 17650: a3 = u64 [sp + 280]\n 17654: a3 = a3 <<64 24\n 17657: a2 = a2 | a3\n 17660: a1 = a1 | a2\n 17663: a1 = a1 <<64 32\n 17666: t1 = a1 | a0\n 17669: a0 = u64 [sp + 304]\n 17673: a0 = a0 <<64 8\n 17676: a1 = u64 [sp + 336]\n 17680: a0 = a0 | a1\n 17683: a2 = u64 [sp + 320]\n 17687: a2 = a2 <<64 16\n 17690: a3 = u64 [sp + 312]\n 17694: a3 = a3 <<64 24\n 17697: a2 = a2 | a3\n 17700: a0 = a0 | a2\n 17703: a2 = u64 [sp + 328]\n 17707: a2 = a2 <<64 8\n 17710: a1 = u64 [sp + 360]\n 17714: a2 = a2 | a1\n 17717: a3 = u64 [sp + 352]\n 17721: a3 = a3 <<64 16\n 17724: a4 = u64 [sp + 344]\n 17728: a4 = a4 <<64 24\n 17731: a3 = a3 | a4\n 17734: a2 = a2 | a3\n 17737: a2 = a2 <<64 32\n 17740: ra = a2 | a0\n 17743: a0 = u64 [sp + 368]\n 17747: a0 = a0 <<64 8\n 17750: a1 = u64 [sp + 400]\n 17754: a0 = a0 | a1\n 17757: a3 = u64 [sp + 384]\n 17761: a3 = a3 <<64 16\n 17764: a4 = u64 [sp + 376]\n 17768: a4 = a4 <<64 24\n 17771: a3 = a3 | a4\n 17774: a0 = a0 | a3\n 17777: a3 = u64 [sp + 392]\n 17781: a3 = a3 <<64 8\n 17784: a1 = u64 [sp + 464]\n 17788: a3 = a3 | a1\n 17791: a4 = u64 [sp + 416]\n 17795: a4 = a4 <<64 16\n 17798: a5 = u64 [sp + 408]\n 17802: a5 = a5 <<64 24\n 17805: a4 = a4 | a5\n 17808: a3 = a3 | a4\n 17811: a3 = a3 <<64 32\n 17814: a0 = a0 | a3\n 17817: a1 = u64 [sp + 432]\n 17821: i64 s1 = s1 + a1\n 17824: u8 [s1 + 8] = ra\n 17827: a3 = a0 >>64 56\n 17830: u8 [s1 + 7] = a3\n 17833: a3 = a0 >>64 48\n 17836: u8 [s1 + 6] = a3\n 17839: a3 = a0 >>64 40\n 17842: u8 [s1 + 5] = a3\n 17845: a3 = a0 >>64 32\n 17848: u8 [s1 + 4] = a3\n 17851: a3 = a0 >>64 24\n 17854: u8 [s1 + 3] = a3\n 17857: a3 = a0 >>64 16\n 17860: u8 [s1 + 2] = a3\n 17863: a3 = a0 >>64 8\n 17866: u8 [s1 + 1] = a3\n 17869: u8 [s1] = a0\n 17871: u8 [s1 + 16] = t1\n 17874: a3 = ra >>64 56\n 17877: u8 [s1 + 15] = a3\n 17880: a3 = ra >>64 48\n 17883: u8 [s1 + 14] = a3\n 17886: a3 = ra >>64 40\n 17889: u8 [s1 + 13] = a3\n 17892: a3 = ra >>64 32\n 17895: u8 [s1 + 12] = a3\n 17898: a3 = ra >>64 24\n 17901: u8 [s1 + 11] = a3\n 17904: a3 = ra >>64 16\n 17907: u8 [s1 + 10] = a3\n 17910: a3 = ra >>64 8\n 17913: u8 [s1 + 9] = a3\n 17916: u8 [s1 + 24] = t2\n 17919: a3 = t1 >>64 56\n 17922: u8 [s1 + 23] = a3\n 17925: a3 = t1 >>64 48\n 17928: u8 [s1 + 22] = a3\n 17931: a3 = t1 >>64 40\n 17934: u8 [s1 + 21] = a3\n 17937: a3 = t1 >>64 32\n 17940: u8 [s1 + 20] = a3\n 17943: a3 = t1 >>64 24\n 17946: u8 [s1 + 19] = a3\n 17949: a3 = t1 >>64 16\n 17952: u8 [s1 + 18] = a3\n 17955: a3 = t1 >>64 8\n 17958: u8 [s1 + 17] = a3\n 17961: a3 = t2 >>64 56\n 17964: u8 [s1 + 31] = a3\n 17967: a3 = t2 >>64 48\n 17970: u8 [s1 + 30] = a3\n 17973: a3 = t2 >>64 40\n 17976: u8 [s1 + 29] = a3\n 17979: a3 = t2 >>64 32\n 17982: u8 [s1 + 28] = a3\n 17985: a3 = t2 >>64 24\n 17988: u8 [s1 + 27] = a3\n 17991: a3 = t2 >>64 16\n 17994: u8 [s1 + 26] = a3\n 17997: a3 = t2 >>64 8\n 18000: u8 [s1 + 25] = a3\n 18003: a3 = u64 [sp + 64]\n 18006: i64 a1 = i64 a3 + 0x40\n 18009: u64 [sp + 416] = a1\n 18013: s1 = a1 <u a3\n 18016: a2 = u64 [sp + 56]\n 18019: i64 a1 = a2 + s1\n 18022: u64 [sp + 408] = a1\n 18026: a5 = a1 <u a2\n 18029: a5 = s1 if s1 == 0\n 18032: t0 = u64 [sp + 48]\n 18035: i64 a4 = t0 + a5\n 18038: a1 = a0 | t1\n 18041: s1 = ra | t2\n 18044: a1 = a1 | s1\n 18047: u64 [sp + 400] = a4\n 18051: s1 = a4 <u t0\n 18054: a4 = u64 [sp + 40]\n 18057: i64 s1 = s1 + a4\n 18060: u64 [sp + 392] = s1\n 18064: jump @460 if a1 != 0\n      : @455 (gas: 3)\n 18068: ra = u64 [sp + 416]\n 18072: t0 = u64 [sp + 408]\n 18076: fallthrough\n      : @456 (gas: 29)\n 18077: a3 = t0\n 18079: t0 = u64 [sp + 64]\n 18082: t2 = ra <u t0\n 18085: a1 = u64 [sp + 56]\n 18088: t1 = a3 ^ a1\n 18091: a2 = a3 <u a1\n 18094: a2 = t2 if t1 == 0\n 18097: a0 = u64 [sp + 48]\n 18100: a4 = u64 [sp + 400]\n 18104: i64 t1 = i64 a4 - i64 a0\n 18107: a5 = a4 <u a0\n 18110: a0 = u64 [sp + 40]\n 18113: i64 a5 = a5 + a0\n 18116: s1 = u64 [sp + 392]\n 18120: i64 s1 = i64 s1 - i64 a5\n 18123: a5 = t1 <u a2\n 18126: i64 s1 = i64 s1 - i64 a5\n 18129: i64 a5 = i64 t1 - i64 a2\n 18132: i64 a2 = i64 a3 - i64 a1\n 18135: i64 a2 = i64 a2 - i64 t2\n 18138: a2 = a2 | s1\n 18141: i64 a0 = i64 ra - i64 t0\n 18144: a0 = a0 | a5\n 18147: a0 = a0 | a2\n 18150: a1 = a2 | a5\n 18153: a0 = a0 >>64 32\n 18156: a1 = a1 <<64 32\n 18159: a0 = a0 | a1\n 18162: jump @436 if a0 != 0\n      : @457 (gas: 4)\n 18166: s1 = ra - t0\n 18169: a0 = u64 [sp + 32]\n 18172: a1 = s1\n 18174: ra = 342, jump @0\n      : @458 [@dyn 171] (gas: 1)\n 18180: jump @436 if a0 == 0\n      : @459 (gas: 6)\n 18184: a1 = i32 [sp + 24]\n 18187: a0 = 0x0\n 18189: a2 = s1\n 18191: ra = 0x158\n 18195: ecalli 11 // 'seal_return'\n 18197: fallthrough\n      : @460 [@dyn 172] (gas: 34)\n 18198: a5 = t2\n 18200: t2 = a3\n 18202: a3 = 0x0\n 18204: s1 = a4\n 18206: a4 = 0x0\n 18208: u64 [sp + 344] = 0\n 18212: u64 [sp + 360] = 0\n 18216: a1 = u64 [sp + 424]\n 18220: t2 = a1 <u t2\n 18223: i64 a1 = a2 + t2\n 18226: u64 [sp + 376] = a1\n 18230: a1 = a1 <u a2\n 18233: a1 = t2 if t2 == 0\n 18236: i64 a1 = a1 + t0\n 18239: u64 [sp + 368] = a1\n 18243: a1 = a1 <u t0\n 18246: i64 a2 = s1 + a1\n 18249: a0 = reverse a0\n 18251: u64 [sp + 96] = a0\n 18254: a0 = reverse ra\n 18256: u64 [sp + 88] = a0\n 18259: a0 = reverse t1\n 18261: u64 [sp + 80] = a0\n 18264: a0 = reverse a5\n 18266: u64 [sp + 72] = a0\n 18269: a0 = 0xffffffdf\n 18279: u64 [sp + 384] = a0\n 18283: a5 = u64 [sp + 472]\n 18287: t2 = u64 [sp + 456]\n 18291: t1 = u64 [sp + 448]\n 18295: s1 = u64 [sp + 440]\n 18299: ra = u64 [sp + 416]\n 18303: t0 = u64 [sp + 408]\n 18307: fallthrough\n      : @461 (gas: 22)\n 18308: u64 [sp + 416] = a2\n 18312: u64 [sp + 352] = a4\n 18316: u64 [sp + 408] = a3\n 18320: a0 = t2 >u 0x0\n 18322: a1 = a5 >u 0x0\n 18324: a1 = a0 if a5 == 0\n 18327: a0 = u64 [sp + 384]\n 18331: a0 = a0 <u s1\n 18334: a2 = t1 >u 0x0\n 18336: u64 [sp + 448] = t1\n 18340: a2 = a0 if t1 == 0\n 18343: u64 [sp + 472] = a5\n 18347: u64 [sp + 456] = t2\n 18351: a0 = t2 | a5\n 18354: a2 = a1 if a0 != 0\n 18357: a0 = u64 [sp + 392]\n 18361: u64 [sp + 336] = a0\n 18365: a0 = u64 [sp + 400]\n 18369: u64 [sp + 328] = a0\n 18373: u64 [sp + 320] = t0\n 18377: u64 [sp + 464] = ra\n 18381: jump @436 if a2 != 0\n      : @462 (gas: 5)\n 18385: u64 [sp + 440] = s1\n 18389: s1 = s1 + 0x20\n 18392: a1 = 0x20\n 18395: a0 = s1\n 18397: ra = 346, jump @0\n      : @463 [@dyn 173] (gas: 1)\n 18403: jump @436 if a0 == 0\n      : @464 (gas: 16)\n 18407: a4 = u64 [sp + 368]\n 18411: a0 = a4 >u 0x0\n 18413: a5 = u64 [sp + 416]\n 18417: a1 = a5 >u 0x0\n 18419: a1 = a0 if a5 == 0\n 18422: a0 = u64 [sp + 384]\n 18426: a2 = u64 [sp + 424]\n 18430: a0 = a0 <u a2\n 18433: a3 = u64 [sp + 376]\n 18437: a2 = a3 >u 0x0\n 18439: a2 = a0 if a3 == 0\n 18442: a0 = a4 | a5\n 18445: a2 = a1 if a0 != 0\n 18448: a3 = u64 [sp + 432]\n 18452: a4 = u64 [sp + 464]\n 18456: jump @436 if a2 != 0\n      : @465 (gas: 68)\n 18460: i64 a0 = a3 + s1\n 18463: a1 = u8 [a0 + 24]\n 18466: u64 [sp + 136] = a1\n 18470: s1 = u8 [a0 + 25]\n 18473: a1 = u8 [a0 + 26]\n 18476: u64 [sp + 120] = a1\n 18479: a1 = u8 [a0 + 27]\n 18482: u64 [sp + 112] = a1\n 18485: a1 = u8 [a0 + 28]\n 18488: u64 [sp + 160] = a1\n 18492: a1 = u8 [a0 + 29]\n 18495: u64 [sp + 128] = a1\n 18499: a1 = u8 [a0 + 30]\n 18502: u64 [sp + 152] = a1\n 18506: a1 = u8 [a0 + 31]\n 18509: u64 [sp + 144] = a1\n 18513: a1 = u8 [a0 + 16]\n 18516: u64 [sp + 200] = a1\n 18520: a1 = u8 [a0 + 17]\n 18523: u64 [sp + 168] = a1\n 18527: a1 = u8 [a0 + 18]\n 18530: u64 [sp + 184] = a1\n 18534: a1 = u8 [a0 + 19]\n 18537: u64 [sp + 176] = a1\n 18541: a1 = u8 [a0 + 20]\n 18544: u64 [sp + 224] = a1\n 18548: a1 = u8 [a0 + 21]\n 18551: u64 [sp + 192] = a1\n 18555: a1 = u8 [a0 + 22]\n 18558: u64 [sp + 216] = a1\n 18562: a1 = u8 [a0 + 23]\n 18565: u64 [sp + 208] = a1\n 18569: a1 = u8 [a0 + 8]\n 18572: u64 [sp + 264] = a1\n 18576: a1 = u8 [a0 + 9]\n 18579: u64 [sp + 232] = a1\n 18583: a1 = u8 [a0 + 10]\n 18586: u64 [sp + 248] = a1\n 18590: a1 = u8 [a0 + 11]\n 18593: u64 [sp + 240] = a1\n 18597: a1 = u8 [a0 + 12]\n 18600: u64 [sp + 288] = a1\n 18604: a1 = u8 [a0 + 13]\n 18607: u64 [sp + 256] = a1\n 18611: a1 = u8 [a0 + 14]\n 18614: u64 [sp + 280] = a1\n 18618: a1 = u8 [a0 + 15]\n 18621: u64 [sp + 272] = a1\n 18625: a1 = u8 [a0]\n 18627: u64 [sp + 376] = a1\n 18631: a1 = u8 [a0 + 1]\n 18634: u64 [sp + 296] = a1\n 18638: a1 = u8 [a0 + 2]\n 18641: u64 [sp + 312] = a1\n 18645: a1 = u8 [a0 + 3]\n 18648: u64 [sp + 304] = a1\n 18652: a1 = u8 [a0 + 4]\n 18655: u64 [sp + 416] = a1\n 18659: a1 = u8 [a0 + 5]\n 18662: u64 [sp + 368] = a1\n 18666: a1 = u8 [a0 + 6]\n 18669: u64 [sp + 400] = a1\n 18673: a0 = u8 [a0 + 7]\n 18676: u64 [sp + 392] = a0\n 18680: a0 = a4 + 0x0\n 18682: a1 = 0x20\n 18685: u64 [sp + 424] = a0\n 18689: ra = 348, jump @0\n      : @466 [@dyn 174] (gas: 4)\n 18695: t0 = u64 [sp + 408]\n 18699: ra = u64 [sp + 352]\n 18703: t2 = u64 [sp + 360]\n 18707: jump @436 if a0 == 0\n      : @467 (gas: 220)\n 18711: a0 = u64 [sp + 440]\n 18715: i64 a1 = i64 a0 + 0x20\n 18718: u64 [sp + 104] = a1\n 18721: a0 = a1 <u a0\n 18724: a1 = u64 [sp + 448]\n 18728: i64 a2 = a1 + a0\n 18731: u64 [sp + 440] = a2\n 18735: a2 = a2 <u a1\n 18738: a2 = a0 if a0 == 0\n 18741: a0 = u64 [sp + 456]\n 18745: i64 a2 = a2 + a0\n 18748: u64 [sp + 448] = a2\n 18752: a0 = a2 <u a0\n 18755: a1 = u64 [sp + 472]\n 18759: i64 a1 = a1 + a0\n 18762: u64 [sp + 472] = a1\n 18766: s1 = s1 <<64 8\n 18769: a0 = u64 [sp + 136]\n 18773: a0 = a0 | s1\n 18776: a1 = u64 [sp + 120]\n 18779: a1 = a1 <<64 16\n 18782: a3 = u64 [sp + 112]\n 18785: a3 = a3 <<64 24\n 18788: a1 = a1 | a3\n 18791: a0 = a0 | a1\n 18794: a1 = u64 [sp + 128]\n 18798: a1 = a1 <<64 8\n 18801: a2 = u64 [sp + 160]\n 18805: a1 = a1 | a2\n 18808: a3 = u64 [sp + 152]\n 18812: a3 = a3 <<64 16\n 18815: a4 = u64 [sp + 144]\n 18819: a4 = a4 <<64 24\n 18822: a3 = a3 | a4\n 18825: a1 = a1 | a3\n 18828: a1 = a1 <<64 32\n 18831: a3 = a1 | a0\n 18834: a0 = u64 [sp + 168]\n 18838: a0 = a0 <<64 8\n 18841: a1 = u64 [sp + 200]\n 18845: a0 = a0 | a1\n 18848: a1 = u64 [sp + 184]\n 18852: a1 = a1 <<64 16\n 18855: a4 = u64 [sp + 176]\n 18859: a4 = a4 <<64 24\n 18862: a1 = a1 | a4\n 18865: a0 = a0 | a1\n 18868: a1 = u64 [sp + 192]\n 18872: a1 = a1 <<64 8\n 18875: a2 = u64 [sp + 224]\n 18879: a1 = a1 | a2\n 18882: a4 = u64 [sp + 216]\n 18886: a4 = a4 <<64 16\n 18889: a5 = u64 [sp + 208]\n 18893: a5 = a5 <<64 24\n 18896: a4 = a4 | a5\n 18899: a1 = a1 | a4\n 18902: a1 = a1 <<64 32\n 18905: a4 = a1 | a0\n 18908: a0 = u64 [sp + 232]\n 18912: a0 = a0 <<64 8\n 18915: a1 = u64 [sp + 264]\n 18919: a0 = a0 | a1\n 18922: a1 = u64 [sp + 248]\n 18926: a1 = a1 <<64 16\n 18929: a5 = u64 [sp + 240]\n 18933: a5 = a5 <<64 24\n 18936: a1 = a1 | a5\n 18939: a0 = a0 | a1\n 18942: a1 = u64 [sp + 256]\n 18946: a1 = a1 <<64 8\n 18949: a2 = u64 [sp + 288]\n 18953: a1 = a1 | a2\n 18956: a5 = u64 [sp + 280]\n 18960: a5 = a5 <<64 16\n 18963: s1 = u64 [sp + 272]\n 18967: s1 = s1 <<64 24\n 18970: a5 = a5 | s1\n 18973: a1 = a1 | a5\n 18976: a1 = a1 <<64 32\n 18979: a5 = a1 | a0\n 18982: a0 = u64 [sp + 296]\n 18986: a0 = a0 <<64 8\n 18989: a1 = u64 [sp + 376]\n 18993: a0 = a0 | a1\n 18996: a1 = u64 [sp + 312]\n 19000: a1 = a1 <<64 16\n 19003: s1 = u64 [sp + 304]\n 19007: s1 = s1 <<64 24\n 19010: a1 = a1 | s1\n 19013: a0 = a0 | a1\n 19016: a1 = u64 [sp + 368]\n 19020: a1 = a1 <<64 8\n 19023: a2 = u64 [sp + 416]\n 19027: a1 = a1 | a2\n 19030: s1 = u64 [sp + 400]\n 19034: s1 = s1 <<64 16\n 19037: a2 = u64 [sp + 392]\n 19041: a2 = a2 <<64 24\n 19044: a2 = a2 | s1\n 19047: a1 = a1 | a2\n 19050: a1 = a1 <<64 32\n 19053: a0 = a0 | a1\n 19056: s1 = u64 [sp + 424]\n 19060: a1 = u64 [sp + 432]\n 19064: i64 s1 = s1 + a1\n 19067: a1 = a0 >>64 56\n 19070: u8 [s1 + 7] = a1\n 19073: a1 = a0 >>64 48\n 19076: u8 [s1 + 6] = a1\n 19079: a1 = a0 >>64 40\n 19082: u8 [s1 + 5] = a1\n 19085: a1 = a0 >>64 32\n 19088: u8 [s1 + 4] = a1\n 19091: a1 = a0 >>64 24\n 19094: u8 [s1 + 3] = a1\n 19097: a1 = a0 >>64 16\n 19100: u8 [s1 + 2] = a1\n 19103: a1 = a0 >>64 8\n 19106: u8 [s1 + 1] = a1\n 19109: u8 [s1] = a0\n 19111: a0 = a5 >>64 56\n 19114: u8 [s1 + 15] = a0\n 19117: a0 = a5 >>64 48\n 19120: u8 [s1 + 14] = a0\n 19123: a0 = a5 >>64 40\n 19126: u8 [s1 + 13] = a0\n 19129: a0 = a5 >>64 32\n 19132: u8 [s1 + 12] = a0\n 19135: a0 = a5 >>64 24\n 19138: u8 [s1 + 11] = a0\n 19141: a0 = a5 >>64 16\n 19144: u8 [s1 + 10] = a0\n 19147: u8 [s1 + 8] = a5\n 19150: a5 = a5 >>64 8\n 19153: u8 [s1 + 9] = a5\n 19156: a0 = a4 >>64 56\n 19159: u8 [s1 + 23] = a0\n 19162: a0 = a4 >>64 48\n 19165: u8 [s1 + 22] = a0\n 19168: a0 = a4 >>64 40\n 19171: u8 [s1 + 21] = a0\n 19174: a0 = a4 >>64 32\n 19177: u8 [s1 + 20] = a0\n 19180: a0 = a4 >>64 24\n 19183: u8 [s1 + 19] = a0\n 19186: a0 = a4 >>64 16\n 19189: u8 [s1 + 18] = a0\n 19192: u8 [s1 + 16] = a4\n 19195: u8 [s1 + 24] = a3\n 19198: a4 = a4 >>64 8\n 19201: u8 [s1 + 17] = a4\n 19204: a0 = a3 >>64 56\n 19207: u8 [s1 + 31] = a0\n 19210: a0 = a3 >>64 48\n 19213: u8 [s1 + 30] = a0\n 19216: a0 = a3 >>64 40\n 19219: u8 [s1 + 29] = a0\n 19222: a0 = a3 >>64 32\n 19225: u8 [s1 + 28] = a0\n 19228: a0 = a3 >>64 24\n 19231: u8 [s1 + 27] = a0\n 19234: a0 = a3 >>64 16\n 19237: u8 [s1 + 26] = a0\n 19240: a3 = a3 >>64 8\n 19243: u8 [s1 + 25] = a3\n 19246: i64 t0 = i64 t0 + 0x1\n 19249: a0 = t0 <u 0x1\n 19252: i64 ra = ra + a0\n 19255: a0 = t0 | ra\n 19258: a0 = a0 <u 0x1\n 19261: a1 = u64 [sp + 344]\n 19265: i64 t1 = a1 + a0\n 19268: a1 = t1 <u a1\n 19271: i64 t2 = t2 + a1\n 19274: a1 = u64 [sp + 72]\n 19277: a1 = t0 <u a1\n 19280: a3 = u64 [sp + 80]\n 19283: a2 = ra ^ a3\n 19286: a3 = ra <u a3\n 19289: a3 = a1 if a2 == 0\n 19292: a5 = u64 [sp + 88]\n 19295: a2 = t1 <u a5\n 19298: a1 = u64 [sp + 96]\n 19301: a4 = t2 ^ a1\n 19304: u64 [sp + 360] = t2\n 19308: a1 = t2 <u a1\n 19311: a1 = a2 if a4 == 0\n 19314: a2 = t1 ^ a5\n 19317: a2 = a2 | a4\n 19320: a1 = a3 if a2 == 0\n 19323: a0 = u64 [sp + 464]\n 19327: i64 a2 = i64 a0 + 0x20\n 19330: u64 [sp + 416] = a2\n 19334: a2 = a2 <u a0\n 19337: a4 = u64 [sp + 320]\n 19341: i64 a3 = a4 + a2\n 19344: u64 [sp + 408] = a3\n 19348: a5 = a3 <u a4\n 19351: a5 = a2 if a2 == 0\n 19354: a3 = u64 [sp + 328]\n 19358: i64 a5 = a5 + a3\n 19361: u64 [sp + 400] = a5\n 19365: s1 = a5 <u a3\n 19368: a2 = u64 [sp + 336]\n 19372: i64 s1 = s1 + a2\n 19375: u64 [sp + 392] = s1\n 19379: u64 [sp + 344] = t1\n 19383: s1 = u64 [sp + 104]\n 19386: t1 = u64 [sp + 440]\n 19390: t2 = u64 [sp + 448]\n 19394: u64 [sp + 424] = a0\n 19398: u64 [sp + 376] = a4\n 19402: a4 = ra\n 19404: ra = u64 [sp + 416]\n 19408: u64 [sp + 368] = a3\n 19412: a3 = t0\n 19414: t0 = u64 [sp + 408]\n 19418: a5 = u64 [sp + 472]\n 19422: jump @461 if a1 != 0\n      : @468 (gas: 1)\n 19426: jump @456\n      : @469 (gas: 7)\n 19429: a1 = 0x20050\n 19434: a1 = a1 + 0x0\n 19436: a0 = 0x1\n 19439: a2 = 0x0\n 19441: ra = 0x15e\n 19445: ecalli 11 // 'seal_return'\n 19447: fallthrough\n      : @470 [@dyn 175] (gas: 13)\n 19448: i64 sp = i64 sp - i64 1312\n 19452: u64 [sp + 1304] = ra\n 19456: u64 [sp + 1296] = s0\n 19460: u64 [sp + 1288] = s1\n 19464: i64 s0 = i64 sp + 0x520\n 19468: sp = sp & 0xffffffe0\n 19471: u64 [sp + 1080] = 0\n 19475: u64 [sp + 1072] = 0\n 19479: u64 [sp + 1064] = 0\n 19483: u64 [sp + 1056] = 0\n 19487: a0 = sp + 0x420\n 19491: ecalli 14 // 'value_transferred'\n 19493: fallthrough\n      : @471 (gas: 8)\n 19494: a0 = u64 [sp + 1072]\n 19498: a1 = u64 [sp + 1080]\n 19502: a2 = u64 [sp + 1064]\n 19506: a3 = u64 [sp + 1056]\n 19510: a1 = a1 | a2\n 19513: a0 = a0 | a3\n 19516: a0 = a0 | a1\n 19519: jump @476 if a0 != 0\n      : @472 (gas: 27)\n 19522: a1 = u64 [0x30460]\n 19527: a2 = u64 [0x30478]\n 19532: a3 = u64 [0x30468]\n 19537: a0 = u64 [0x30470]\n 19542: i64 a4 = i64 a1 - i64 4\n 19545: a1 = a4 <u a1\n 19548: i64 a5 = a3 + a1\n 19551: i64 a5 = i64 a5 - i64 1\n 19554: s1 = a5 ^ a3\n 19557: a3 = a5 <u a3\n 19560: a3 = a1 if s1 == 0\n 19563: i64 a1 = i64 a0 - i64 1\n 19566: i64 a3 = a3 + a1\n 19569: a1 = a3 <u a1\n 19572: a0 = a0 <u 0x1\n 19575: i64 a2 = i64 a2 - i64 a0\n 19578: i64 a1 = a1 + a2\n 19581: a0 = a1 >s 0\n 19583: a2 = a3 >u 0x0\n 19585: a2 = a0 if a1 != 0\n 19588: a1 = a1 | a3\n 19591: a0 = a5 >u 0x0\n 19593: a3 = a4 <u 0x20\n 19596: a3 = a3 ^ 0x1\n 19599: a3 = a0 if a5 != 0\n 19602: a3 = a2 if a1 != 0\n 19605: jump @480 if a3 != 0\n      : @473 (gas: 3)\n 19608: a0 = 0x0\n 19610: a1 = 0x0\n 19612: ra = 352, jump @0\n      : @474 [@dyn 176] (gas: 1)\n 19618: jump @479 if a0 == 0\n      : @475 (gas: 6)\n 19621: a1 = 0x20050\n 19626: a1 = a1 + 0x0\n 19628: a0 = 0x1\n 19631: a2 = 0x0\n 19633: ecalli 11 // 'seal_return'\n 19635: fallthrough\n      : @476 (gas: 3)\n 19636: a0 = 0x0\n 19638: a1 = 0x0\n 19640: ra = 354, jump @0\n      : @477 [@dyn 177] (gas: 1)\n 19646: jump @479 if a0 == 0\n      : @478 (gas: 1)\n 19649: jump @563\n      : @479 (gas: 1)\n 19652: trap\n      : @480 (gas: 19)\n 19653: a1 = u64 [0x30074]\n 19658: a2 = u64 [0x3007c]\n 19663: a3 = u64 [0x3006c]\n 19668: a0 = u64 [0x30064]\n 19673: t2 = reverse a1\n 19675: u64 [sp + 472] = t2\n 19679: a5 = reverse a2\n 19681: u64 [sp + 464] = a5\n 19685: a2 = reverse a3\n 19687: u64 [sp + 456] = a2\n 19691: s1 = reverse a0\n 19693: u64 [sp + 8] = s1\n 19696: i64 a0 = i64 sp + 0x400\n 19700: a1 = 0x3\n 19703: u64 [sp] = a2\n 19705: a2 = 0x0\n 19707: a3 = 0x0\n 19709: a4 = 0x0\n 19711: ra = 356, jump @191\n      : @481 [@dyn 178] (gas: 31)\n 19717: a0 = u64 [sp + 1048]\n 19721: a1 = u64 [sp + 1040]\n 19725: a2 = u64 [sp + 1032]\n 19729: a3 = u64 [sp + 1024]\n 19733: u64 [sp + 1272] = a0\n 19737: u64 [sp + 1264] = a1\n 19741: u64 [sp + 1256] = a2\n 19745: u64 [sp + 1248] = a3\n 19749: u64 [sp + 1240] = 0\n 19753: u64 [sp + 1232] = 0\n 19757: u64 [sp + 1224] = 0\n 19761: u64 [sp + 1216] = 0\n 19765: u64 [sp + 1200] = 0\n 19769: u64 [sp + 1208] = 0\n 19773: u64 [sp + 1192] = 0\n 19777: u64 [sp + 1184] = 256\n 19783: a1 = sp + 0x4e0\n 19787: a3 = sp + 0x4c0\n 19791: a4 = sp + 0x4a0\n 19795: a2 = 0xffffffff\n 19798: a0 = 0x0\n 19800: ecalli 5 // 'get_storage'\n 19802: a0 = u64 [sp + 1216]\n 19806: a1 = u32 [sp + 1232]\n 19810: a2 = u64 [sp + 1224]\n 19814: a0 = a0 | a1\n 19817: a0 = a0 | a2\n 19820: a0 = a0 >u 0x0\n 19822: a2 = 0x0\n 19824: a3 = 0x0\n 19826: ra = 358, jump @958\n      : @482 [@dyn 179] (gas: 12)\n 19832: u64 [sp + 448] = s1\n 19836: u64 [sp + 8] = s1\n 19839: i64 a0 = i64 sp + 0x3e0\n 19843: a1 = 0x3\n 19846: a2 = u64 [sp + 456]\n 19850: u64 [sp] = a2\n 19852: a2 = 0x0\n 19854: a3 = 0x0\n 19856: a4 = 0x0\n 19858: a5 = u64 [sp + 464]\n 19862: t2 = u64 [sp + 472]\n 19866: ra = 360, jump @191\n      : @483 [@dyn 180] (gas: 47)\n 19872: a0 = u64 [sp + 1016]\n 19876: u64 [sp + 600] = a0\n 19880: a0 = u64 [sp + 1008]\n 19884: u64 [sp + 592] = a0\n 19888: a0 = u64 [sp + 1000]\n 19892: u64 [sp + 584] = a0\n 19896: s1 = u64 [sp + 992]\n 19900: a0 = sp + 0x440\n 19904: ecalli 8 // 'now'\n 19906: i64 a0 = i64 s1 + 0x5\n 19909: u64 [sp + 552] = s1\n 19913: a1 = a0 <u s1\n 19916: a3 = u64 [sp + 584]\n 19920: i64 a2 = a3 + a1\n 19923: a3 = a2 <u a3\n 19926: a3 = a1 if a1 == 0\n 19929: a1 = u64 [sp + 1088]\n 19933: u64 [sp + 576] = a1\n 19937: u64 [sp + 1256] = a2\n 19941: a1 = u64 [sp + 1096]\n 19945: u64 [sp + 568] = a1\n 19949: u64 [sp + 1248] = a0\n 19953: a0 = u64 [sp + 1104]\n 19957: u64 [sp + 560] = a0\n 19961: a0 = u64 [sp + 592]\n 19965: i64 a3 = a3 + a0\n 19968: u64 [sp + 1264] = a3\n 19972: a0 = a3 <u a0\n 19975: a1 = u64 [sp + 600]\n 19979: i64 a0 = a0 + a1\n 19982: u64 [sp + 1272] = a0\n 19986: s1 = u64 [sp + 1112]\n 19990: u64 [sp + 1240] = 0\n 19994: u64 [sp + 1232] = 0\n 19998: u64 [sp + 1224] = 0\n 20002: u64 [sp + 1216] = 0\n 20006: u64 [sp + 1200] = 0\n 20010: u64 [sp + 1208] = 0\n 20014: u64 [sp + 1192] = 0\n 20018: u64 [sp + 1184] = 256\n 20024: a1 = sp + 0x4e0\n 20028: a3 = sp + 0x4c0\n 20032: a4 = sp + 0x4a0\n 20036: a2 = 0xffffffff\n 20039: a0 = 0x0\n 20041: ecalli 5 // 'get_storage'\n 20043: fallthrough\n      : @484 (gas: 19)\n 20044: a0 = u64 [sp + 1240]\n 20048: a1 = u64 [sp + 1216]\n 20052: a2 = u64 [sp + 1232]\n 20056: a3 = u64 [sp + 1224]\n 20060: a4 = s1 ^ a0\n 20063: s1 = a0 <u s1\n 20066: a0 = u64 [sp + 560]\n 20070: a5 = a2 <u a0\n 20073: a5 = s1 if a4 != 0\n 20076: s1 = u64 [sp + 568]\n 20080: t0 = s1 ^ a3\n 20083: a3 = a3 <u s1\n 20086: s1 = u64 [sp + 576]\n 20090: a1 = a1 <u s1\n 20093: a1 = a3 if t0 != 0\n 20096: a0 = a0 ^ a2\n 20099: a0 = a0 | a4\n 20102: a1 = a5 if a0 != 0\n 20105: jump @501 if a1 == 0\n      : @485 (gas: 41)\n 20109: a0 = 0xffffffff\n 20119: u64 [sp + 280] = a0\n 20123: s1 = u64 [sp + 552]\n 20127: i64 a2 = i64 s1 + 0x6\n 20130: a0 = a2 <u s1\n 20133: a1 = u64 [sp + 584]\n 20137: i64 a3 = a1 + a0\n 20140: a1 = a3 <u a1\n 20143: a1 = a0 if a0 == 0\n 20146: a0 = u64 [sp + 592]\n 20150: i64 a1 = a1 + a0\n 20153: a0 = a1 <u a0\n 20156: a4 = u64 [sp + 600]\n 20160: i64 a0 = a0 + a4\n 20163: u64 [sp + 48] = a2\n 20166: u64 [sp + 1248] = a2\n 20170: u64 [sp + 40] = a3\n 20173: u64 [sp + 1256] = a3\n 20177: u64 [sp + 32] = a1\n 20180: u64 [sp + 1264] = a1\n 20184: u64 [sp + 24] = a0\n 20187: u64 [sp + 1272] = a0\n 20191: u64 [sp + 1240] = 0\n 20195: u64 [sp + 1232] = 0\n 20199: u64 [sp + 1224] = 0\n 20203: u64 [sp + 1216] = 0\n 20207: u64 [sp + 1200] = 0\n 20211: u64 [sp + 1208] = 0\n 20215: u64 [sp + 1192] = 0\n 20219: u64 [sp + 1184] = 256\n 20225: a1 = sp + 0x4e0\n 20229: a3 = sp + 0x4c0\n 20233: a4 = sp + 0x4a0\n 20237: a2 = 0xffffffff\n 20240: a0 = 0x0\n 20242: ecalli 5 // 'get_storage'\n 20244: a0 = u8 [sp + 1216]\n 20248: a0 = a0 <u 0x1\n 20251: a2 = 0x0\n 20253: a3 = 0x0\n 20255: ra = 362, jump @982\n      : @486 [@dyn 181] (gas: 46)\n 20261: i64 a0 = i64 s1 + 0x3\n 20264: a1 = a0 <u s1\n 20267: a3 = u64 [sp + 584]\n 20271: i64 a2 = a3 + a1\n 20274: a3 = a2 <u a3\n 20277: a3 = a1 if a1 == 0\n 20280: a1 = u64 [sp + 592]\n 20284: i64 a3 = a3 + a1\n 20287: a1 = a3 <u a1\n 20290: a4 = u64 [sp + 600]\n 20294: i64 a1 = a1 + a4\n 20297: u64 [sp + 1272] = a1\n 20301: u64 [sp + 1264] = a3\n 20305: u64 [sp + 1256] = a2\n 20309: u64 [sp + 1248] = a0\n 20313: u64 [sp + 1240] = 0\n 20317: u64 [sp + 1232] = 0\n 20321: u64 [sp + 1224] = 0\n 20325: u64 [sp + 1216] = 0\n 20329: u64 [sp + 1200] = 0\n 20333: u64 [sp + 1208] = 0\n 20337: u64 [sp + 1192] = 0\n 20341: u64 [sp + 1184] = 256\n 20347: a1 = sp + 0x4e0\n 20351: a3 = sp + 0x4c0\n 20355: a4 = sp + 0x4a0\n 20359: a2 = 0xffffffff\n 20362: a0 = 0x0\n 20364: ecalli 5 // 'get_storage'\n 20366: a3 = u64 [sp + 1240]\n 20370: a0 = u64 [sp + 1232]\n 20374: u64 [sp + 304] = a0\n 20378: a0 = u64 [sp + 1224]\n 20382: u64 [sp + 296] = a0\n 20386: a0 = u64 [sp + 1216]\n 20390: u64 [sp + 288] = a0\n 20394: t0 = 0x0\n 20396: a5 = 0x0\n 20398: a2 = 0x0\n 20400: t1 = 0x0\n 20402: u64 [sp + 600] = 0\n 20406: u64 [sp + 592] = 0\n 20410: u64 [sp + 576] = 0\n 20414: u64 [sp + 584] = 0\n 20418: u64 [sp + 312] = a3\n 20422: fallthrough\n      : @487 (gas: 23)\n 20423: u64 [sp + 544] = a5\n 20427: u64 [sp + 552] = t1\n 20431: u64 [sp + 560] = t0\n 20435: u64 [sp + 568] = a2\n 20439: u64 [sp + 1272] = 0\n 20443: u64 [sp + 1264] = 0\n 20447: u64 [sp + 1256] = 0\n 20451: u64 [sp + 1248] = 2\n 20456: u64 [sp + 1240] = 0\n 20460: u64 [sp + 1232] = 0\n 20464: u64 [sp + 1224] = 0\n 20468: u64 [sp + 1216] = 0\n 20472: u64 [sp + 1200] = 0\n 20476: u64 [sp + 1208] = 0\n 20480: u64 [sp + 1192] = 0\n 20484: u64 [sp + 1184] = 256\n 20490: a1 = sp + 0x4e0\n 20494: a3 = sp + 0x4c0\n 20498: a4 = sp + 0x4a0\n 20502: a2 = 0xffffffff\n 20505: a0 = 0x0\n 20507: ecalli 5 // 'get_storage'\n 20509: fallthrough\n      : @488 (gas: 20)\n 20510: a0 = u64 [sp + 1240]\n 20514: a1 = u64 [sp + 1216]\n 20518: t1 = u64 [sp + 1232]\n 20522: a3 = u64 [sp + 1224]\n 20526: a5 = u64 [sp + 584]\n 20530: a4 = a5 ^ a0\n 20533: a0 = a5 <u a0\n 20536: a2 = u64 [sp + 576]\n 20540: a5 = a2 <u t1\n 20543: a5 = a0 if a4 != 0\n 20546: a0 = u64 [sp + 592]\n 20550: t0 = a0 ^ a3\n 20553: a3 = a0 <u a3\n 20556: s1 = u64 [sp + 600]\n 20560: a1 = s1 <u a1\n 20563: a1 = a3 if t0 != 0\n 20566: a0 = a2 ^ t1\n 20569: a0 = a0 | a4\n 20572: a1 = a5 if a0 != 0\n 20575: jump @511 if a1 == 0\n      : @489 (gas: 12)\n 20579: a0 = u64 [sp + 456]\n 20583: u64 [sp] = a0\n 20585: i64 a0 = i64 sp + 0x280\n 20589: a1 = 0x4\n 20592: a2 = u64 [sp + 448]\n 20596: u64 [sp + 8] = a2\n 20599: a2 = 0x0\n 20601: a3 = 0x0\n 20603: a4 = 0x0\n 20605: a5 = u64 [sp + 464]\n 20609: t2 = u64 [sp + 472]\n 20613: ra = 364, jump @191\n      : @490 [@dyn 182] (gas: 12)\n 20619: a4 = u64 [sp + 664]\n 20623: a3 = u64 [sp + 656]\n 20627: a2 = u64 [sp + 648]\n 20631: a1 = u64 [sp + 640]\n 20635: a0 = u64 [sp + 584]\n 20639: u64 [sp + 8] = a0\n 20642: i64 a0 = i64 sp + 0x260\n 20646: a5 = u64 [sp + 576]\n 20650: u64 [sp] = a5\n 20652: a5 = u64 [sp + 600]\n 20656: t2 = u64 [sp + 592]\n 20660: ra = 366, jump @191\n      : @491 [@dyn 183] (gas: 31)\n 20666: a0 = u64 [sp + 608]\n 20670: a1 = u64 [sp + 632]\n 20674: a2 = u64 [sp + 616]\n 20678: a3 = u64 [sp + 624]\n 20682: i64 a4 = i64 a0 + 0x2\n 20685: a0 = a4 <u a0\n 20688: i64 a5 = a2 + a0\n 20691: a2 = a5 <u a2\n 20694: a2 = a0 if a0 == 0\n 20697: i64 a2 = a2 + a3\n 20700: a0 = a2 <u a3\n 20703: i64 a0 = a0 + a1\n 20706: u64 [sp + 1248] = a4\n 20710: u64 [sp + 1256] = a5\n 20714: u64 [sp + 1264] = a2\n 20718: u64 [sp + 1272] = a0\n 20722: u64 [sp + 1240] = 0\n 20726: u64 [sp + 1232] = 0\n 20730: u64 [sp + 1224] = 0\n 20734: u64 [sp + 1216] = 0\n 20738: u64 [sp + 1200] = 0\n 20742: u64 [sp + 1208] = 0\n 20746: u64 [sp + 1192] = 0\n 20750: u64 [sp + 1184] = 256\n 20756: a1 = sp + 0x4e0\n 20760: a3 = sp + 0x4c0\n 20764: a4 = sp + 0x4a0\n 20768: a2 = 0xffffffff\n 20771: a0 = 0x0\n 20773: ecalli 5 // 'get_storage'\n 20775: fallthrough\n      : @492 (gas: 51)\n 20776: a2 = u64 [sp + 1224]\n 20780: a1 = u64 [sp + 1216]\n 20784: t1 = u64 [sp + 1240]\n 20788: a4 = u64 [sp + 1232]\n 20792: s1 = u64 [sp + 544]\n 20796: i64 a5 = a2 + s1\n 20799: t2 = u64 [sp + 560]\n 20803: i64 t0 = a1 + t2\n 20806: a1 = t0 <u a1\n 20809: i64 a5 = a5 + a1\n 20812: a0 = a5 ^ a2\n 20815: a2 = a5 <u a2\n 20818: a2 = a1 if a0 == 0\n 20821: a3 = u64 [sp + 568]\n 20825: i64 a1 = a4 + a3\n 20828: a0 = u64 [sp + 552]\n 20832: i64 t1 = t1 + a0\n 20835: a4 = a1 <u a4\n 20838: i64 a4 = a4 + t1\n 20841: i64 a2 = a2 + a1\n 20844: a1 = a2 <u a1\n 20847: i64 t1 = a4 + a1\n 20850: a1 = a5 ^ s1\n 20853: s1 = a5 <u s1\n 20856: a4 = t0 <u t2\n 20859: a4 = s1 if a1 != 0\n 20862: a1 = a2 <u a3\n 20865: s1 = t1 ^ a0\n 20868: a0 = t1 <u a0\n 20871: a0 = a1 if s1 == 0\n 20874: a1 = a2 ^ a3\n 20877: a1 = a1 | s1\n 20880: t2 = 0x100\n 20884: a4 = a0 if a1 != 0\n 20887: a1 = u64 [sp + 600]\n 20891: i64 a1 = i64 a1 + 0x1\n 20894: a0 = a1 <u 0x1\n 20897: s1 = u64 [sp + 592]\n 20901: i64 s1 = s1 + a0\n 20904: u64 [sp + 600] = a1\n 20908: u64 [sp + 592] = s1\n 20912: a0 = a1 | s1\n 20915: a0 = a0 <u 0x1\n 20918: a1 = u64 [sp + 576]\n 20922: i64 a0 = a0 + a1\n 20925: a1 = a0 <u a1\n 20928: s1 = u64 [sp + 584]\n 20932: i64 s1 = s1 + a1\n 20935: u64 [sp + 584] = s1\n 20939: u64 [sp + 576] = a0\n 20943: jump @487 if a4 == 0\n      : @493 (gas: 3)\n 20947: a1 = 0x20\n 20950: a0 = 0x0\n 20952: ra = 368, jump @0\n      : @494 [@dyn 184] (gas: 1)\n 20958: jump @479 if a0 == 0\n      : @495 (gas: 2)\n 20962: s1 = 0x20050\n 20967: fallthrough\n      : @496 (gas: 7)\n 20968: u64 [0x20068] = 0\n 20973: u64 [0x20060] = 0\n 20978: u64 [0x20058] = 0\n 20983: u64 [0x20050] = 1903904846\n 20992: a0 = 0x4\n 20995: a1 = 0x20\n 20998: ra = 370, jump @0\n      : @497 [@dyn 185] (gas: 1)\n 21004: jump @479 if a0 == 0\n      : @498 (gas: 11)\n 21008: u32 [s1 + 32] = 285212672\n 21015: u32 [s1 + 28] = 0\n 21018: u32 [s1 + 24] = 0\n 21021: u32 [s1 + 20] = 0\n 21024: u32 [s1 + 16] = 0\n 21027: u32 [s1 + 12] = 0\n 21030: u32 [s1 + 8] = 0\n 21033: u32 [s1 + 4] = 0\n 21036: a1 = 0x24\n 21039: a0 = 0x0\n 21041: ra = 372, jump @0\n      : @499 [@dyn 186] (gas: 1)\n 21047: jump @479 if a0 == 0\n      : @500 (gas: 5)\n 21051: a1 = s1 + 0x0\n 21053: a0 = 0x1\n 21056: a2 = 0x24\n 21059: ecalli 11 // 'seal_return'\n 21061: fallthrough\n      : @501 (gas: 3)\n 21062: a0 = 0x40\n 21065: a1 = 0x20\n 21068: ra = 374, jump @0\n      : @502 [@dyn 187] (gas: 1)\n 21074: jump @479 if a0 == 0\n      : @503 (gas: 17)\n 21078: s1 = 0x20050\n 21083: a0 = u64 [0x20098]\n 21088: a1 = u64 [0x20090]\n 21093: a2 = u64 [0x200a0]\n 21098: a3 = u64 [0x200a8]\n 21103: a5 = reverse a0\n 21105: t0 = reverse a1\n 21107: a4 = reverse a2\n 21109: a2 = reverse a3\n 21111: a0 = a4 | t0\n 21114: a1 = a2 | a5\n 21117: a1 = a1 | a0\n 21120: a1 = a1 >>64 32\n 21123: a0 = a0 | a5\n 21126: a0 = a0 <<64 32\n 21129: a0 = a0 | a1\n 21132: jump @479 if a0 != 0\n      : @504 (gas: 8)\n 21136: u64 [sp + 576] = t0\n 21140: u64 [sp + 584] = a5\n 21144: u64 [sp + 592] = a4\n 21148: u64 [sp + 600] = a2\n 21152: a0 = a2 + 0x0\n 21154: a1 = 0x20\n 21157: u64 [sp + 568] = a0\n 21161: ra = 376, jump @0\n      : @505 [@dyn 188] (gas: 1)\n 21167: jump @479 if a0 == 0\n      : @506 (gas: 48)\n 21171: a0 = u64 [sp + 568]\n 21175: i64 s1 = s1 + a0\n 21178: u8 [s1 + 31] = 0\n 21181: u8 [s1 + 30] = 0\n 21184: u8 [s1 + 29] = 0\n 21187: u8 [s1 + 28] = 0\n 21190: u8 [s1 + 27] = 0\n 21193: u8 [s1 + 26] = 0\n 21196: u8 [s1 + 25] = 0\n 21199: u8 [s1 + 24] = 0\n 21202: u8 [s1 + 23] = 0\n 21205: u8 [s1 + 22] = 0\n 21208: u8 [s1 + 21] = 0\n 21211: u8 [s1 + 20] = 0\n 21214: u8 [s1 + 19] = 0\n 21217: u8 [s1 + 18] = 0\n 21220: u8 [s1 + 17] = 0\n 21223: u8 [s1 + 16] = 0\n 21226: u8 [s1 + 15] = 0\n 21229: u8 [s1 + 14] = 0\n 21232: u8 [s1 + 13] = 0\n 21235: u8 [s1 + 12] = 0\n 21238: u8 [s1 + 11] = 0\n 21241: u8 [s1 + 10] = 0\n 21244: u8 [s1 + 9] = 0\n 21247: u8 [s1 + 8] = 0\n 21250: u8 [s1 + 7] = 0\n 21253: u8 [s1 + 6] = 0\n 21256: u8 [s1 + 5] = 0\n 21259: u8 [s1 + 4] = 0\n 21262: u8 [s1 + 3] = 160\n 21267: u8 [s1 + 2] = 121\n 21271: u8 [s1 + 1] = 195\n 21276: u8 [s1 + 0] = 8\n 21279: a0 = u64 [sp + 600]\n 21283: i64 a1 = i64 a0 + 0x4\n 21286: a0 = a1 <u a0\n 21289: a3 = u64 [sp + 592]\n 21293: i64 a2 = a3 + a0\n 21296: a3 = a2 <u a3\n 21299: a3 = a0 if a0 == 0\n 21302: a0 = u64 [sp + 584]\n 21306: i64 a3 = a3 + a0\n 21309: a4 = a3 <u a0\n 21312: a0 = u64 [sp + 576]\n 21316: i64 a4 = a4 + a0\n 21319: i64 a0 = i64 sp + 0x3c0\n 21323: ra = 378, jump @1579\n      : @507 [@dyn 189] (gas: 31)\n 21330: a1 = u64 [sp + 968]\n 21334: t0 = u64 [sp + 984]\n 21338: t1 = u64 [sp + 960]\n 21342: a3 = u64 [sp + 976]\n 21346: a0 = u64 [sp + 592]\n 21350: a4 = a1 ^ a0\n 21353: a5 = a1 <u a0\n 21356: ra = a0\n 21358: t2 = u64 [sp + 600]\n 21362: a2 = t1 <u t2\n 21365: a5 = a2 if a4 == 0\n 21368: a0 = u64 [sp + 584]\n 21372: i64 a4 = i64 a3 - i64 a0\n 21375: a3 = a3 <u a0\n 21378: a0 = u64 [sp + 576]\n 21382: i64 a0 = i64 t0 - i64 a0\n 21385: i64 a0 = i64 a0 - i64 a3\n 21388: a3 = a4 <u a5\n 21391: i64 a0 = i64 a0 - i64 a3\n 21394: i64 a4 = i64 a4 - i64 a5\n 21397: i64 a1 = i64 a1 - i64 ra\n 21400: i64 a1 = i64 a1 - i64 a2\n 21403: a0 = a0 | a1\n 21406: i64 a1 = i64 t1 - i64 t2\n 21409: a1 = a1 | a4\n 21412: a1 = a1 | a0\n 21415: a0 = a0 | a4\n 21418: a1 = a1 >>64 32\n 21421: a0 = a0 <<64 32\n 21424: a0 = a0 | a1\n 21427: jump @479 if a0 != 0\n      : @508 (gas: 4)\n 21431: a1 = t1 - t2\n 21434: a0 = u64 [sp + 568]\n 21438: u64 [sp + 600] = a1\n 21442: ra = 380, jump @0\n      : @509 [@dyn 190] (gas: 1)\n 21448: jump @479 if a0 == 0\n      : @510 (gas: 5)\n 21452: a1 = s1 + 0x0\n 21454: a0 = 0x1\n 21457: a2 = u64 [sp + 600]\n 21461: ecalli 11 // 'seal_return'\n 21463: fallthrough\n      : @511 (gas: 8)\n 21464: a0 = u64 [sp + 568]\n 21468: a1 = u64 [sp + 560]\n 21472: a0 = a0 | a1\n 21475: a1 = u64 [sp + 552]\n 21479: a2 = u64 [sp + 544]\n 21483: a1 = a1 | a2\n 21486: a0 = a0 | a1\n 21489: jump @519 if a0 != 0\n      : @512 (gas: 11)\n 21493: u64 [sp + 584] = 0\n 21497: s1 = 0x0\n 21499: u64 [sp + 592] = 0\n 21503: u64 [sp + 600] = 0\n 21507: a0 = sp + 0x4e0\n 21511: u64 [sp + 568] = a0\n 21515: a0 = sp + 0x4c0\n 21519: u64 [sp + 560] = a0\n 21523: a0 = sp + 0x4a0\n 21527: u64 [sp + 552] = a0\n 21531: fallthrough\n      : @513 (gas: 19)\n 21532: u64 [sp + 1272] = 0\n 21536: u64 [sp + 1264] = 0\n 21540: u64 [sp + 1256] = 0\n 21544: u64 [sp + 1248] = 2\n 21549: u64 [sp + 1240] = 0\n 21553: u64 [sp + 1232] = 0\n 21557: u64 [sp + 1224] = 0\n 21561: u64 [sp + 1216] = 0\n 21565: u64 [sp + 1200] = 0\n 21569: u64 [sp + 1208] = 0\n 21573: u64 [sp + 1192] = 0\n 21577: u64 [sp + 1184] = 256\n 21583: a2 = 0xffffffff\n 21586: a0 = 0x0\n 21588: a1 = u64 [sp + 568]\n 21592: a3 = u64 [sp + 560]\n 21596: a4 = u64 [sp + 552]\n 21600: ecalli 5 // 'get_storage'\n 21602: fallthrough\n      : @514 (gas: 20)\n 21603: a0 = u64 [sp + 1240]\n 21607: a1 = u64 [sp + 1216]\n 21611: t0 = u64 [sp + 1232]\n 21615: a3 = u64 [sp + 1224]\n 21619: a5 = u64 [sp + 600]\n 21623: a4 = a5 ^ a0\n 21626: a0 = a5 <u a0\n 21629: a2 = u64 [sp + 592]\n 21633: a5 = a2 <u t0\n 21636: a5 = a0 if a4 != 0\n 21639: a0 = s1 ^ a3\n 21642: u64 [sp + 576] = s1\n 21646: a3 = s1 <u a3\n 21649: s1 = u64 [sp + 584]\n 21653: a1 = s1 <u a1\n 21656: a1 = a3 if a0 != 0\n 21659: a2 = a2 ^ t0\n 21662: a2 = a2 | a4\n 21665: a1 = a5 if a2 != 0\n 21668: jump @516 if a1 != 0\n      : @515 (gas: 1)\n 21671: jump @542\n      : @516 (gas: 12)\n 21674: a0 = u64 [sp + 456]\n 21678: u64 [sp] = a0\n 21680: i64 a0 = i64 sp + 0x2c0\n 21684: a1 = 0x4\n 21687: a2 = u64 [sp + 448]\n 21691: u64 [sp + 8] = a2\n 21694: a2 = 0x0\n 21696: a3 = 0x0\n 21698: a4 = 0x0\n 21700: a5 = u64 [sp + 464]\n 21704: t2 = u64 [sp + 472]\n 21708: ra = 382, jump @191\n      : @517 [@dyn 191] (gas: 13)\n 21714: a4 = u64 [sp + 728]\n 21718: a3 = u64 [sp + 720]\n 21722: a2 = u64 [sp + 712]\n 21726: a1 = u64 [sp + 704]\n 21730: a0 = u64 [sp + 600]\n 21734: u64 [sp + 8] = a0\n 21737: i64 a0 = i64 sp + 0x2a0\n 21741: a5 = u64 [sp + 592]\n 21745: u64 [sp] = a5\n 21747: s1 = u64 [sp + 584]\n 21751: a5 = s1\n 21753: t2 = u64 [sp + 576]\n 21757: ra = 384, jump @191\n      : @518 [@dyn 192] (gas: 16)\n 21763: i64 s1 = i64 s1 + 0x1\n 21766: a0 = s1 <u 0x1\n 21769: a1 = u64 [sp + 576]\n 21773: i64 a1 = a1 + a0\n 21776: u64 [sp + 584] = s1\n 21780: a0 = s1 | a1\n 21783: s1 = a1\n 21785: a0 = a0 <u 0x1\n 21788: a1 = u64 [sp + 592]\n 21792: i64 a0 = a0 + a1\n 21795: a1 = a0 <u a1\n 21798: a2 = u64 [sp + 600]\n 21802: i64 a2 = a2 + a1\n 21805: u64 [sp + 600] = a2\n 21809: u64 [sp + 592] = a0\n 21813: jump @513\n      : @519 (gas: 21)\n 21816: u64 [sp + 400] = 0\n 21820: u64 [sp + 392] = 0\n 21824: u64 [sp + 384] = 0\n 21828: u64 [sp + 344] = 0\n 21832: a1 = sp + 0x4e0\n 21836: a3 = sp + 0x4c0\n 21840: a4 = sp + 0x4a0\n 21844: a5 = u64 [sp + 312]\n 21848: a0 = a5 >u 0x0\n 21850: u64 [sp + 80] = a0\n 21853: a0 = u64 [sp + 304]\n 21857: a0 = a0 | a5\n 21860: a0 = a0 >u 0x0\n 21862: u64 [sp + 72] = a0\n 21865: a0 = u64 [sp + 296]\n 21869: a0 = a0 >u 0x0\n 21871: u64 [sp + 64] = a0\n 21874: u64 [sp + 336] = a1\n 21878: u64 [sp + 328] = a3\n 21882: u64 [sp + 320] = a4\n 21886: fallthrough\n      : @520 (gas: 16)\n 21887: u64 [sp + 1272] = 0\n 21891: u64 [sp + 1264] = 0\n 21895: u64 [sp + 1256] = 0\n 21899: u64 [sp + 1248] = 2\n 21904: u64 [sp + 1240] = 0\n 21908: u64 [sp + 1232] = 0\n 21912: u64 [sp + 1224] = 0\n 21916: u64 [sp + 1216] = 0\n 21920: u64 [sp + 1200] = 0\n 21924: u64 [sp + 1208] = 0\n 21928: u64 [sp + 1192] = 0\n 21932: u64 [sp + 1184] = 256\n 21938: a2 = 0xffffffff\n 21941: a0 = 0x0\n 21943: ecalli 5 // 'get_storage'\n 21945: fallthrough\n      : @521 (gas: 20)\n 21946: a0 = u64 [sp + 1240]\n 21950: a1 = u64 [sp + 1216]\n 21954: t0 = u64 [sp + 1232]\n 21958: s1 = u64 [sp + 1224]\n 21962: a4 = u64 [sp + 344]\n 21966: t1 = a4 ^ a0\n 21969: a0 = a4 <u a0\n 21972: a3 = u64 [sp + 384]\n 21976: a5 = a3 <u t0\n 21979: a5 = a0 if t1 != 0\n 21982: a2 = u64 [sp + 392]\n 21986: t2 = a2 ^ s1\n 21989: a0 = a2 <u s1\n 21992: s1 = u64 [sp + 400]\n 21996: a1 = s1 <u a1\n 21999: a1 = a0 if t2 != 0\n 22002: a0 = a3 ^ t0\n 22005: a0 = a0 | t1\n 22008: a1 = a5 if a0 != 0\n 22011: jump @542 if a1 == 0\n      : @522 (gas: 19)\n 22015: t2 = a2\n 22017: t0 = a4\n 22019: t1 = a3\n 22021: a0 = u64 [sp + 456]\n 22025: u64 [sp] = a0\n 22027: i64 a0 = i64 sp + 0x3a0\n 22031: a1 = 0x4\n 22034: a2 = u64 [sp + 448]\n 22038: u64 [sp + 8] = a2\n 22041: a2 = 0x0\n 22043: a3 = 0x0\n 22045: a4 = 0x0\n 22047: a5 = u64 [sp + 464]\n 22051: u64 [sp + 392] = t2\n 22055: t2 = u64 [sp + 472]\n 22059: u64 [sp + 400] = s1\n 22063: s1 = t0\n 22065: u64 [sp + 384] = t1\n 22069: ra = 386, jump @191\n      : @523 [@dyn 193] (gas: 11)\n 22075: a4 = u64 [sp + 952]\n 22079: a3 = u64 [sp + 944]\n 22083: a2 = u64 [sp + 936]\n 22087: a1 = u64 [sp + 928]\n 22091: u64 [sp + 8] = s1\n 22094: i64 a0 = i64 sp + 0x380\n 22098: a5 = u64 [sp + 384]\n 22102: u64 [sp] = a5\n 22104: a5 = u64 [sp + 400]\n 22108: t2 = u64 [sp + 392]\n 22112: ra = 388, jump @191\n      : @524 [@dyn 194] (gas: 35)\n 22118: a1 = u64 [sp + 896]\n 22122: a4 = u64 [sp + 920]\n 22126: a3 = u64 [sp + 904]\n 22130: a5 = u64 [sp + 912]\n 22134: i64 a0 = i64 a1 + 0x2\n 22137: u64 [sp + 376] = a1\n 22141: a1 = a0 <u a1\n 22144: i64 a2 = a3 + a1\n 22147: u64 [sp + 368] = a3\n 22151: a3 = a2 <u a3\n 22154: a3 = a1 if a1 == 0\n 22157: i64 a3 = a3 + a5\n 22160: u64 [sp + 352] = a5\n 22164: a1 = a3 <u a5\n 22167: u64 [sp + 360] = a4\n 22171: i64 a1 = a1 + a4\n 22174: u64 [sp + 1248] = a0\n 22178: u64 [sp + 1256] = a2\n 22182: u64 [sp + 1264] = a3\n 22186: u64 [sp + 1272] = a1\n 22190: u64 [sp + 1240] = 0\n 22194: u64 [sp + 1232] = 0\n 22198: u64 [sp + 1224] = 0\n 22202: u64 [sp + 1216] = 0\n 22206: u64 [sp + 1200] = 0\n 22210: u64 [sp + 1208] = 0\n 22214: u64 [sp + 1192] = 0\n 22218: u64 [sp + 1184] = 256\n 22224: a2 = 0xffffffff\n 22227: a0 = 0x0\n 22229: a1 = u64 [sp + 336]\n 22233: a3 = u64 [sp + 328]\n 22237: a4 = u64 [sp + 320]\n 22241: ecalli 5 // 'get_storage'\n 22243: fallthrough\n      : @525 (gas: 66)\n 22244: ra = u64 [sp + 1216]\n 22248: t0 = u64 [sp + 1224]\n 22252: a0 = u64 [sp + 1240]\n 22256: u64 [sp + 600] = a0\n 22260: a0 = u64 [sp + 1232]\n 22264: a2 = u64 [sp + 288]\n 22268: a1 = (ra as u64 * a2 as u64) >> 32\n 22271: i64 a4 = i64 t0 * i64 a2\n 22274: i64 a1 = a1 + a4\n 22277: a4 = a1 <u a4\n 22280: a5 = (t0 as u64 * a2 as u64) >> 32\n 22283: i64 t2 = a5 + a4\n 22286: s1 = u64 [sp + 296]\n 22290: i64 a4 = i64 ra * i64 s1\n 22293: i64 a1 = a1 + a4\n 22296: u64 [sp + 480] = a1\n 22300: a1 = a1 <u a4\n 22303: a4 = (ra as u64 * s1 as u64) >> 32\n 22306: i64 a1 = a1 + a4\n 22309: i64 t1 = t2 + a1\n 22312: i64 a5 = i64 t0 * i64 s1\n 22315: i64 a1 = a5 + t1\n 22318: u64 [sp + 592] = a1\n 22322: a3 = u64 [sp + 304]\n 22326: i64 a4 = i64 a3 * i64 ra\n 22329: u64 [sp + 584] = a4\n 22333: a4 = a1 <u a5\n 22336: a1 = t1 <u t2\n 22339: a5 = (t0 as u64 * s1 as u64) >> 32\n 22342: i64 a1 = a1 + a5\n 22345: i64 a1 = a1 + a4\n 22348: u64 [sp + 576] = a1\n 22352: i64 a1 = i64 t0 * i64 a3\n 22355: a5 = u64 [sp + 312]\n 22359: i64 a5 = i64 a5 * i64 ra\n 22362: i64 a4 = a5 + a1\n 22365: i64 a1 = i64 s1 * i64 a0\n 22368: a5 = u64 [sp + 600]\n 22372: i64 s1 = i64 a5 * i64 a2\n 22375: i64 a1 = a1 + s1\n 22378: i64 s1 = i64 a0 * i64 a2\n 22381: t2 = u64 [sp + 584]\n 22385: i64 t2 = t2 + s1\n 22388: a3 = (a3 as u64 * ra as u64) >> 32\n 22391: u64 [sp + 520] = a3\n 22395: i64 a3 = a3 + a4\n 22398: t1 = (a0 as u64 * a2 as u64) >> 32\n 22401: u64 [sp + 536] = t1\n 22405: i64 t1 = t1 + a1\n 22408: a1 = t2 <u s1\n 22411: u64 [sp + 528] = a3\n 22415: i64 s1 = t1 + a3\n 22418: i64 s1 = s1 + a1\n 22421: a1 = u64 [sp + 576]\n 22425: a5 = t0 | a5\n 22428: u64 [sp + 584] = a0\n 22432: a0 = ra | a0\n 22435: a0 = a0 | a5\n 22438: a3 = u64 [sp + 592]\n 22442: i64 a5 = a3 + t2\n 22445: t2 = a2\n 22447: u64 [sp + 488] = a5\n 22451: a5 = a5 <u a3\n 22454: i64 s1 = s1 + a1\n 22457: i64 a2 = s1 + a5\n 22460: jump @527 if a0 == 0\n      : @526 (gas: 45)\n 22464: a0 = a2 ^ a1\n 22467: a4 = a2 <u a1\n 22470: a5 = a4 if a0 != 0\n 22473: a0 = u64 [sp + 528]\n 22477: a1 = u64 [sp + 520]\n 22481: a0 = a0 <u a1\n 22484: a1 = t0 >u 0x0\n 22486: s1 = a2\n 22488: a2 = u64 [sp + 80]\n 22491: a1 = a1 & a2\n 22494: a2 = u64 [sp + 312]\n 22498: a4 = (a2 as u64 * ra as u64) >> 32\n 22501: a4 = a4 >u 0x0\n 22503: a1 = a1 | a4\n 22506: a2 = u64 [sp + 304]\n 22510: a3 = (t0 as u64 * a2 as u64) >> 32\n 22513: a3 = a3 >u 0x0\n 22515: a1 = a1 | a3\n 22518: a2 = t1\n 22520: t1 = a1 | a0\n 22523: a0 = u64 [sp + 536]\n 22527: a1 = a2 <u a0\n 22530: a0 = u64 [sp + 600]\n 22534: a3 = a0 >u 0x0\n 22536: a2 = u64 [sp + 64]\n 22539: a3 = a3 & a2\n 22542: a4 = (a0 as u64 * t2 as u64) >> 32\n 22545: a4 = a4 >u 0x0\n 22547: a3 = a3 | a4\n 22550: a2 = u64 [sp + 584]\n 22554: a4 = u64 [sp + 296]\n 22558: a4 = (a4 as u64 * a2 as u64) >> 32\n 22561: a4 = a4 >u 0x0\n 22563: a3 = a3 | a4\n 22566: a1 = a1 | a3\n 22569: a2 = a2 | a0\n 22572: a2 = a2 >u 0x0\n 22574: a3 = u64 [sp + 72]\n 22577: a2 = a2 & a3\n 22580: a1 = a1 | a2\n 22583: a2 = s1\n 22585: a0 = a1 | t1\n 22588: a0 = a0 | a5\n 22591: a0 = a0 & 0x1\n 22594: jump @559 if a0 != 0\n      : @527 (gas: 80)\n 22598: i64 a3 = i64 ra * i64 t2\n 22601: u64 [sp + 496] = a3\n 22605: a4 = u64 [sp + 568]\n 22609: t2 = u64 [sp + 560]\n 22613: a0 = t2 | a4\n 22616: a5 = u64 [sp + 552]\n 22620: s1 = u64 [sp + 544]\n 22624: a1 = s1 | a5\n 22627: a0 = a0 | a1\n 22630: a0 = a0 <u 0x1\n 22633: t0 = u64 [sp + 488]\n 22637: a1 = a3 | t0\n 22640: ra = u64 [sp + 480]\n 22644: t1 = a2\n 22646: a2 = ra | a2\n 22649: a1 = a1 | a2\n 22652: a1 = a1 <u 0x1\n 22655: a0 = a0 | a1\n 22658: u64 [sp + 600] = a0\n 22662: a1 = clz.64 a4\n 22664: i64 a2 = i64 a1 + 0x40\n 22667: a1 = clz.64 a5\n 22669: a1 = a2 if a5 == 0\n 22672: a2 = clz.64 t2\n 22674: i64 a2 = i64 a2 + 0x40\n 22677: a3 = clz.64 s1\n 22679: a3 = a2 if s1 == 0\n 22682: i64 a2 = i64 a3 + 0x80\n 22686: a4 = a4 | a5\n 22689: a1 = a2 if a4 == 0\n 22692: a3 = a2 <u a3\n 22695: a3 = 0 if a4 != 0\n 22697: a2 = clz.64 t0\n 22699: i64 a2 = i64 a2 + 0x40\n 22702: a4 = clz.64 t1\n 22704: a4 = a2 if t1 == 0\n 22707: a0 = u64 [sp + 496]\n 22711: a2 = clz.64 a0\n 22713: i64 a2 = i64 a2 + 0x40\n 22716: a5 = clz.64 ra\n 22718: a5 = a2 if ra == 0\n 22721: i64 a2 = i64 a5 + 0x80\n 22725: s1 = t0 | t1\n 22728: a4 = a2 if s1 == 0\n 22731: a0 = a2 <u a5\n 22734: a0 = 0 if s1 != 0\n 22736: a2 = a3 ^ a0\n 22739: a5 = a3 <u a0\n 22742: s1 = a1 <u a4\n 22745: a5 = s1 if a2 == 0\n 22748: a2 = a5 <u 0x1\n 22751: i64 a2 = i64 a2 - i64 1\n 22754: t2 = u64 -a5\n 22756: i64 a3 = i64 a3 - i64 a0\n 22759: i64 a3 = i64 a3 - i64 s1\n 22762: i64 s1 = i64 a1 - i64 a4\n 22765: a0 = t2 >u 0x0\n 22767: a1 = a2 >u 0x0\n 22769: a1 = a0 if a2 == 0\n 22772: a0 = a3 >u 0x0\n 22774: a4 = s1 <u 0x100\n 22778: a4 = a4 ^ 0x1\n 22781: a4 = a0 if a3 != 0\n 22784: a4 = a1 if a5 != 0\n 22787: a1 = u64 [sp + 496]\n 22791: a0 = u64 [sp + 600]\n 22795: a0 = a0 | a4\n 22798: u64 [sp + 440] = t1\n 22802: t1 = 0 if a0 != 0\n 22804: u64 [sp + 600] = t1\n 22808: a5 = t0\n 22810: a5 = 0 if a0 != 0\n 22812: u64 [sp + 592] = a5\n 22816: a5 = ra\n 22818: a5 = 0 if a0 != 0\n 22820: u64 [sp + 576] = a5\n 22824: a5 = a1\n 22826: a5 = 0 if a0 != 0\n 22828: u64 [sp + 584] = a5\n 22832: jump @535 if a0 != 0\n      : @528 (gas: 10)\n 22836: t1 = s1\n 22838: a0 = s1 ^ 0xff\n 22842: a0 = a0 | t2\n 22845: a1 = a3 | a2\n 22848: a0 = a0 | a1\n 22851: a1 = u64 [sp + 376]\n 22855: s1 = u64 [sp + 368]\n 22859: a4 = u64 [sp + 360]\n 22863: a5 = u64 [sp + 352]\n 22867: jump @536 if a0 == 0\n      : @529 (gas: 256)\n 22871: i64 a1 = i64 t1 + 0x1\n 22874: u64 [sp + 600] = a1\n 22878: a0 = a1 <u 0x1\n 22881: i64 a0 = a0 + a3\n 22884: u64 [sp + 520] = a0\n 22888: a0 = a0 | a1\n 22891: a0 = a0 <u 0x1\n 22894: i64 a0 = a0 + t2\n 22897: u64 [sp + 512] = a0\n 22901: a0 = a0 <u t2\n 22904: i64 a0 = a0 + a2\n 22907: u64 [sp + 528] = a0\n 22911: a0 = u64 [sp + 496]\n 22915: u8 [sp + 864] = a0\n 22919: u8 [sp + 863] = 0\n 22923: u8 [sp + 862] = 0\n 22927: u8 [sp + 861] = 0\n 22931: u8 [sp + 860] = 0\n 22935: u8 [sp + 859] = 0\n 22939: u8 [sp + 858] = 0\n 22943: u8 [sp + 857] = 0\n 22947: u8 [sp + 856] = 0\n 22951: u8 [sp + 855] = 0\n 22955: u8 [sp + 854] = 0\n 22959: u8 [sp + 853] = 0\n 22963: u8 [sp + 852] = 0\n 22967: u8 [sp + 851] = 0\n 22971: u8 [sp + 850] = 0\n 22975: u8 [sp + 849] = 0\n 22979: u8 [sp + 848] = 0\n 22983: u8 [sp + 847] = 0\n 22987: u8 [sp + 846] = 0\n 22991: u8 [sp + 845] = 0\n 22995: u8 [sp + 844] = 0\n 22999: u8 [sp + 843] = 0\n 23003: u8 [sp + 842] = 0\n 23007: u8 [sp + 841] = 0\n 23011: u8 [sp + 840] = 0\n 23015: u8 [sp + 839] = 0\n 23019: u8 [sp + 838] = 0\n 23023: u8 [sp + 837] = 0\n 23027: u8 [sp + 836] = 0\n 23031: u8 [sp + 835] = 0\n 23035: u8 [sp + 834] = 0\n 23039: u8 [sp + 833] = 0\n 23043: u8 [sp + 832] = 0\n 23047: u8 [sp + 872] = ra\n 23051: a1 = a0 >>64 56\n 23054: u64 [sp + 232] = a1\n 23058: u8 [sp + 871] = a1\n 23062: a1 = a0 >>64 48\n 23065: u64 [sp + 224] = a1\n 23069: u8 [sp + 870] = a1\n 23073: a1 = a0 >>64 40\n 23076: u64 [sp + 216] = a1\n 23080: u8 [sp + 869] = a1\n 23084: a1 = a0 >>64 32\n 23087: u64 [sp + 208] = a1\n 23091: u8 [sp + 868] = a1\n 23095: a1 = a0 >>64 24\n 23098: u64 [sp + 200] = a1\n 23102: u8 [sp + 867] = a1\n 23106: a1 = a0 >>64 16\n 23109: u64 [sp + 192] = a1\n 23113: u8 [sp + 866] = a1\n 23117: a0 = a0 >>64 8\n 23120: u64 [sp + 184] = a0\n 23124: u8 [sp + 865] = a0\n 23128: a1 = u64 [sp + 488]\n 23132: u8 [sp + 880] = a1\n 23136: a0 = ra >>64 56\n 23139: u64 [sp + 176] = a0\n 23143: u8 [sp + 879] = a0\n 23147: a0 = ra >>64 48\n 23150: u64 [sp + 168] = a0\n 23154: u8 [sp + 878] = a0\n 23158: a0 = ra >>64 40\n 23161: u64 [sp + 160] = a0\n 23165: u8 [sp + 877] = a0\n 23169: a0 = ra >>64 32\n 23172: u64 [sp + 152] = a0\n 23176: u8 [sp + 876] = a0\n 23180: a0 = ra >>64 24\n 23183: u64 [sp + 144] = a0\n 23187: u8 [sp + 875] = a0\n 23191: a0 = ra >>64 16\n 23194: u64 [sp + 136] = a0\n 23198: u8 [sp + 874] = a0\n 23202: a0 = ra >>64 8\n 23205: u64 [sp + 128] = a0\n 23209: u8 [sp + 873] = a0\n 23213: t2 = u64 [sp + 440]\n 23217: u8 [sp + 888] = t2\n 23221: a0 = a1 >>64 56\n 23224: u64 [sp + 120] = a0\n 23227: u8 [sp + 887] = a0\n 23231: a0 = a1 >>64 48\n 23234: u64 [sp + 112] = a0\n 23237: u8 [sp + 886] = a0\n 23241: a0 = a1 >>64 40\n 23244: u64 [sp + 104] = a0\n 23247: u8 [sp + 885] = a0\n 23251: a0 = a1 >>64 32\n 23254: u64 [sp + 96] = a0\n 23257: u8 [sp + 884] = a0\n 23261: a0 = a1 >>64 24\n 23264: u64 [sp + 88] = a0\n 23267: u8 [sp + 883] = a0\n 23271: a0 = a1 >>64 16\n 23274: u64 [sp + 432] = a0\n 23278: u8 [sp + 882] = a0\n 23282: a0 = a1 >>64 8\n 23285: u64 [sp + 424] = a0\n 23289: u8 [sp + 881] = a0\n 23293: a0 = t2 >>64 56\n 23296: u64 [sp + 416] = a0\n 23300: u8 [sp + 895] = a0\n 23304: a0 = t2 >>64 48\n 23307: u64 [sp + 408] = a0\n 23311: u8 [sp + 894] = a0\n 23315: a0 = t2 >>64 40\n 23318: u64 [sp + 272] = a0\n 23322: u8 [sp + 893] = a0\n 23326: a0 = t2 >>64 32\n 23329: u64 [sp + 264] = a0\n 23333: u8 [sp + 892] = a0\n 23337: a0 = t2 >>64 24\n 23340: u64 [sp + 256] = a0\n 23344: u8 [sp + 891] = a0\n 23348: a0 = t2 >>64 16\n 23351: u64 [sp + 248] = a0\n 23355: u8 [sp + 890] = a0\n 23359: a0 = t2 >>64 8\n 23362: u64 [sp + 240] = a0\n 23366: u8 [sp + 889] = a0\n 23370: t0 = -t1 + 255\n 23374: a0 = t0 <<64 56\n 23377: a0 = a0 >>64 59\n 23380: i64 a3 = i64 sp + 0x360\n 23384: i64 a3 = i64 a3 - i64 a0\n 23387: a0 = u8 [a3 + 25]\n 23390: a1 = u8 [a3 + 24]\n 23393: a4 = u8 [a3 + 26]\n 23396: a5 = u8 [a3 + 27]\n 23399: a0 = a0 <<64 8\n 23402: a0 = a0 | a1\n 23405: a4 = a4 <<64 16\n 23408: a5 = a5 <<64 24\n 23411: a4 = a4 | a5\n 23414: a0 = a0 | a4\n 23417: a1 = u8 [a3 + 29]\n 23420: a4 = u8 [a3 + 28]\n 23423: a5 = u8 [a3 + 30]\n 23426: s1 = u8 [a3 + 31]\n 23429: a1 = a1 <<64 8\n 23432: a1 = a1 | a4\n 23435: a5 = a5 <<64 16\n 23438: s1 = s1 <<64 24\n 23441: a5 = a5 | s1\n 23444: a1 = a1 | a5\n 23447: a1 = a1 <<64 32\n 23450: a5 = a1 | a0\n 23453: a0 = u8 [a3 + 17]\n 23456: a1 = u8 [a3 + 16]\n 23459: a4 = u8 [a3 + 18]\n 23462: s1 = u8 [a3 + 19]\n 23465: a0 = a0 <<64 8\n 23468: a0 = a0 | a1\n 23471: a4 = a4 <<64 16\n 23474: s1 = s1 <<64 24\n 23477: a4 = a4 | s1\n 23480: a0 = a0 | a4\n 23483: a1 = u8 [a3 + 21]\n 23486: a4 = u8 [a3 + 20]\n 23489: s1 = u8 [a3 + 22]\n 23492: a2 = u8 [a3 + 23]\n 23495: a1 = a1 <<64 8\n 23498: a1 = a1 | a4\n 23501: s1 = s1 <<64 16\n 23504: a2 = a2 <<64 24\n 23507: a2 = a2 | s1\n 23510: a1 = a1 | a2\n 23513: a1 = a1 <<64 32\n 23516: t1 = a1 | a0\n 23519: a2 = t0 & 0x7\n 23522: a0 = a5 <<64 a2\n 23525: a1 = t1 >>64 1\n 23528: t0 = a2 ^ 0x3f\n 23531: a1 = a1 >>64 t0\n 23534: a0 = a0 | a1\n 23537: u64 [sp + 592] = a0\n 23541: a0 = u8 [a3 + 9]\n 23544: a1 = u8 [a3 + 8]\n 23547: a4 = u8 [a3 + 10]\n 23550: a5 = u8 [a3 + 11]\n 23553: a0 = a0 <<64 8\n 23556: a0 = a0 | a1\n 23559: a4 = a4 <<64 16\n 23562: a5 = a5 <<64 24\n 23565: a4 = a4 | a5\n 23568: a0 = a0 | a4\n 23571: a1 = u8 [a3 + 13]\n 23574: a4 = u8 [a3 + 12]\n 23577: a5 = u8 [a3 + 14]\n 23580: s1 = u8 [a3 + 15]\n 23583: a1 = a1 <<64 8\n 23586: a1 = a1 | a4\n 23589: a5 = a5 <<64 16\n 23592: s1 = s1 <<64 24\n 23595: a5 = a5 | s1\n 23598: a1 = a1 | a5\n 23601: a1 = a1 <<64 32\n 23604: a5 = a1 | a0\n 23607: a0 = a5 >>64 1\n 23610: a1 = a2 ^ 0xffffffff\n 23613: a0 = a0 >>64 a1\n 23616: a1 = t1 <<64 a2\n 23619: t1 = u64 [sp + 600]\n 23623: a0 = a0 | a1\n 23626: u64 [sp + 584] = a0\n 23630: a0 = u8 [a3 + 1]\n 23633: a1 = u8 [a3]\n 23635: a4 = u8 [a3 + 2]\n 23638: s1 = u8 [a3 + 3]\n 23641: a0 = a0 <<64 8\n 23644: a0 = a0 | a1\n 23647: a4 = a4 <<64 16\n 23650: s1 = s1 <<64 24\n 23653: a4 = a4 | s1\n 23656: a0 = a0 | a4\n 23659: a1 = u8 [a3 + 5]\n 23662: a4 = u8 [a3 + 4]\n 23665: s1 = u8 [a3 + 6]\n 23668: a3 = u8 [a3 + 7]\n 23671: a1 = a1 <<64 8\n 23674: a1 = a1 | a4\n 23677: a4 = u64 [sp + 520]\n 23681: s1 = s1 <<64 16\n 23684: a3 = a3 <<64 24\n 23687: a3 = a3 | s1\n 23690: a1 = a1 | a3\n 23693: a1 = a1 <<64 32\n 23696: a0 = a0 | a1\n 23699: a1 = a0 >>64 1\n 23702: a1 = a1 >>64 t0\n 23705: a3 = a5 <<64 a2\n 23708: a5 = u64 [sp + 512]\n 23712: a1 = a1 | a3\n 23715: u64 [sp + 536] = a1\n 23719: a1 = u64 [sp + 528]\n 23723: a1 = a1 | a4\n 23726: a3 = t1 | a5\n 23729: a1 = a1 | a3\n 23732: a0 = a0 <<64 a2\n 23735: u64 [sp + 576] = a0\n 23739: jump @533 if a1 == 0\n      : @530 (gas: 224)\n 23743: u64 [sp + 56] = 0\n 23746: u64 [sp + 504] = 0\n 23750: a0 = u64 [sp + 496]\n 23754: u8 [sp + 768] = a0\n 23758: a0 = u64 [sp + 480]\n 23762: u8 [sp + 776] = a0\n 23766: a0 = u64 [sp + 232]\n 23770: u8 [sp + 775] = a0\n 23774: a0 = u64 [sp + 224]\n 23778: u8 [sp + 774] = a0\n 23782: a0 = u64 [sp + 216]\n 23786: u8 [sp + 773] = a0\n 23790: a0 = u64 [sp + 208]\n 23794: u8 [sp + 772] = a0\n 23798: a0 = u64 [sp + 200]\n 23802: u8 [sp + 771] = a0\n 23806: a0 = u64 [sp + 192]\n 23810: u8 [sp + 770] = a0\n 23814: a0 = u64 [sp + 184]\n 23818: u8 [sp + 769] = a0\n 23822: a0 = u64 [sp + 488]\n 23826: u8 [sp + 784] = a0\n 23830: a0 = u64 [sp + 176]\n 23834: u8 [sp + 783] = a0\n 23838: a0 = u64 [sp + 168]\n 23842: u8 [sp + 782] = a0\n 23846: a0 = u64 [sp + 160]\n 23850: u8 [sp + 781] = a0\n 23854: a0 = u64 [sp + 152]\n 23858: u8 [sp + 780] = a0\n 23862: a0 = u64 [sp + 144]\n 23866: u8 [sp + 779] = a0\n 23870: a0 = u64 [sp + 136]\n 23874: u8 [sp + 778] = a0\n 23878: a0 = u64 [sp + 128]\n 23882: u8 [sp + 777] = a0\n 23886: u8 [sp + 792] = t2\n 23890: a0 = u64 [sp + 120]\n 23893: u8 [sp + 791] = a0\n 23897: a0 = u64 [sp + 112]\n 23900: u8 [sp + 790] = a0\n 23904: a0 = u64 [sp + 104]\n 23907: u8 [sp + 789] = a0\n 23911: a0 = u64 [sp + 96]\n 23914: u8 [sp + 788] = a0\n 23918: a0 = u64 [sp + 88]\n 23921: u8 [sp + 787] = a0\n 23925: u8 [sp + 831] = 0\n 23929: u8 [sp + 830] = 0\n 23933: u8 [sp + 829] = 0\n 23937: u8 [sp + 828] = 0\n 23941: u8 [sp + 827] = 0\n 23945: u8 [sp + 826] = 0\n 23949: u8 [sp + 825] = 0\n 23953: u8 [sp + 824] = 0\n 23957: u8 [sp + 823] = 0\n 23961: u8 [sp + 822] = 0\n 23965: u8 [sp + 821] = 0\n 23969: u8 [sp + 820] = 0\n 23973: u8 [sp + 819] = 0\n 23977: u8 [sp + 818] = 0\n 23981: u8 [sp + 817] = 0\n 23985: u8 [sp + 816] = 0\n 23989: u8 [sp + 815] = 0\n 23993: u8 [sp + 814] = 0\n 23997: u8 [sp + 813] = 0\n 24001: u8 [sp + 812] = 0\n 24005: u8 [sp + 811] = 0\n 24009: u8 [sp + 810] = 0\n 24013: u8 [sp + 809] = 0\n 24017: u8 [sp + 808] = 0\n 24021: u8 [sp + 807] = 0\n 24025: u8 [sp + 806] = 0\n 24029: u8 [sp + 805] = 0\n 24033: u8 [sp + 804] = 0\n 24037: u8 [sp + 803] = 0\n 24041: u8 [sp + 802] = 0\n 24045: u8 [sp + 801] = 0\n 24049: u8 [sp + 800] = 0\n 24053: a0 = u64 [sp + 432]\n 24057: u8 [sp + 786] = a0\n 24061: a0 = u64 [sp + 424]\n 24065: u8 [sp + 785] = a0\n 24069: a0 = u64 [sp + 416]\n 24073: u8 [sp + 799] = a0\n 24077: a0 = u64 [sp + 408]\n 24081: u8 [sp + 798] = a0\n 24085: a0 = u64 [sp + 272]\n 24089: u8 [sp + 797] = a0\n 24093: a0 = u64 [sp + 264]\n 24097: u8 [sp + 796] = a0\n 24101: a0 = u64 [sp + 256]\n 24105: u8 [sp + 795] = a0\n 24109: a0 = u64 [sp + 248]\n 24113: u8 [sp + 794] = a0\n 24117: a0 = u64 [sp + 240]\n 24121: u8 [sp + 793] = a0\n 24125: a0 = t1 <<64 56\n 24128: a0 = a0 >>64 59\n 24131: i64 a2 = i64 sp + 0x300\n 24135: i64 a2 = a2 + a0\n 24138: a0 = u8 [a2 + 17]\n 24141: a1 = u8 [a2 + 16]\n 24144: a3 = u8 [a2 + 18]\n 24147: a4 = u8 [a2 + 19]\n 24150: a0 = a0 <<64 8\n 24153: a0 = a0 | a1\n 24156: a3 = a3 <<64 16\n 24159: a4 = a4 <<64 24\n 24162: a3 = a3 | a4\n 24165: a0 = a0 | a3\n 24168: a1 = u8 [a2 + 21]\n 24171: a3 = u8 [a2 + 20]\n 24174: a4 = u8 [a2 + 22]\n 24177: a5 = u8 [a2 + 23]\n 24180: a1 = a1 <<64 8\n 24183: a1 = a1 | a3\n 24186: a4 = a4 <<64 16\n 24189: a5 = a5 <<64 24\n 24192: a4 = a4 | a5\n 24195: a1 = a1 | a4\n 24198: a1 = a1 <<64 32\n 24201: t0 = a1 | a0\n 24204: a3 = t1 & 0x7\n 24207: t1 = t0 >>64 a3\n 24210: a0 = u8 [a2 + 25]\n 24213: a4 = u8 [a2 + 24]\n 24216: a5 = u8 [a2 + 26]\n 24219: s1 = u8 [a2 + 27]\n 24222: a0 = a0 <<64 8\n 24225: a0 = a0 | a4\n 24228: a5 = a5 <<64 16\n 24231: s1 = s1 <<64 24\n 24234: a5 = a5 | s1\n 24237: a0 = a0 | a5\n 24240: a4 = u8 [a2 + 29]\n 24243: a5 = u8 [a2 + 28]\n 24246: s1 = u8 [a2 + 30]\n 24249: a1 = u8 [a2 + 31]\n 24252: a4 = a4 <<64 8\n 24255: a4 = a4 | a5\n 24258: s1 = s1 <<64 16\n 24261: a1 = a1 <<64 24\n 24264: a1 = a1 | s1\n 24267: a1 = a1 | a4\n 24270: a1 = a1 <<64 32\n 24273: ra = a1 | a0\n 24276: a0 = ra <<64 1\n 24279: t2 = a3 ^ 0x3f\n 24282: a0 = a0 <<64 t2\n 24285: a0 = t1 | a0\n 24288: u64 [sp + 496] = a0\n 24292: a0 = u8 [a2 + 9]\n 24295: a1 = u8 [a2 + 8]\n 24298: a4 = u8 [a2 + 10]\n 24301: s1 = u8 [a2 + 11]\n 24304: a0 = a0 <<64 8\n 24307: a0 = a0 | a1\n 24310: a4 = a4 <<64 16\n 24313: s1 = s1 <<64 24\n 24316: a4 = a4 | s1\n 24319: a0 = a0 | a4\n 24322: a1 = u8 [a2 + 13]\n 24325: a4 = u8 [a2 + 12]\n 24328: s1 = u8 [a2 + 14]\n 24331: a5 = u8 [a2 + 15]\n 24334: a1 = a1 <<64 8\n 24337: a1 = a1 | a4\n 24340: s1 = s1 <<64 16\n 24343: a5 = a5 <<64 24\n 24346: a5 = a5 | s1\n 24349: a1 = a1 | a5\n 24352: a1 = a1 <<64 32\n 24355: a1 = a1 | a0\n 24358: a0 = a1 >>64 a3\n 24361: t0 = t0 <<64 1\n 24364: a4 = a3 ^ 0xffffffff\n 24367: a4 = t0 <<64 a4\n 24370: t0 = u64 [sp + 56]\n 24373: t1 = a0 | a4\n 24376: a0 = u8 [a2 + 1]\n 24379: a4 = u8 [a2]\n 24381: a5 = u8 [a2 + 2]\n 24384: s1 = u8 [a2 + 3]\n 24387: a0 = a0 <<64 8\n 24390: a0 = a0 | a4\n 24393: a5 = a5 <<64 16\n 24396: s1 = s1 <<64 24\n 24399: a5 = a5 | s1\n 24402: a0 = a0 | a5\n 24405: a4 = u8 [a2 + 5]\n 24408: a5 = u8 [a2 + 4]\n 24411: s1 = u8 [a2 + 6]\n 24414: a2 = u8 [a2 + 7]\n 24417: a4 = a4 <<64 8\n 24420: a4 = a4 | a5\n 24423: s1 = s1 <<64 16\n 24426: a2 = a2 <<64 24\n 24429: a2 = a2 | s1\n 24432: a2 = a2 | a4\n 24435: a2 = a2 <<64 32\n 24438: a0 = a0 | a2\n 24441: a0 = a0 >>64 a3\n 24444: a1 = a1 <<64 1\n 24447: a5 = a1 <<64 t2\n 24450: a5 = a5 | a0\n 24453: ra = ra >>64 a3\n 24456: a1 = u64 [sp + 560]\n 24460: a0 = a1 <u 0x1\n 24463: a2 = u64 [sp + 544]\n 24467: i64 a0 = i64 a2 - i64 a0\n 24470: u64 [sp + 432] = a0\n 24474: a0 = a1 | a2\n 24477: a0 = a0 <u 0x1\n 24480: a2 = u64 [sp + 568]\n 24484: i64 a3 = i64 a2 - i64 a0\n 24487: u64 [sp + 424] = a3\n 24491: a0 = a2 <u a0\n 24494: a2 = u64 [sp + 552]\n 24498: i64 a2 = i64 a2 - i64 a0\n 24501: u64 [sp + 416] = a2\n 24505: i64 a1 = i64 a1 - i64 1\n 24508: u64 [sp + 408] = a1\n 24512: fallthrough\n      : @531 (gas: 102)\n 24513: u64 [sp + 440] = 0\n 24517: a1 = a5 >>64 63\n 24520: s1 = t1 <<64 1\n 24523: t2 = s1 | a1\n 24526: a5 = a5 <<64 1\n 24529: a2 = u64 [sp + 592]\n 24533: a1 = a2 >>64 63\n 24536: a1 = a1 | a5\n 24539: u64 [sp + 488] = a1\n 24543: a0 = u64 [sp + 432]\n 24547: s1 = a0 ^ t2\n 24550: a5 = t0\n 24552: t0 = a0 <u t2\n 24555: a0 = u64 [sp + 408]\n 24559: a1 = a0 <u a1\n 24562: a1 = t0 if s1 != 0\n 24565: s1 = ra <<64 1\n 24568: a4 = u64 [sp + 496]\n 24572: a3 = a4 >>64 63\n 24575: t0 = s1 | a3\n 24578: u64 [sp + 480] = t0\n 24582: s1 = t1 >>64 63\n 24585: a4 = a4 <<64 1\n 24588: s1 = s1 | a4\n 24591: a4 = a2 <<64 1\n 24594: a2 = u64 [sp + 584]\n 24598: a0 = a2 >>64 63\n 24601: t1 = a4 | a0\n 24604: a4 = a2 <<64 1\n 24607: a0 = u64 [sp + 536]\n 24611: a2 = a0 >>64 63\n 24614: a2 = a2 | a4\n 24617: a0 = a0 <<64 1\n 24620: a4 = u64 [sp + 576]\n 24624: a3 = a4 >>64 63\n 24627: a3 = a3 | a0\n 24630: a4 = a4 <<64 1\n 24633: a4 = a4 | a5\n 24636: u64 [sp + 576] = a4\n 24640: ra = u64 [sp + 504]\n 24644: a0 = ra | a3\n 24647: u64 [sp + 536] = a0\n 24651: a0 = ra | a2\n 24654: u64 [sp + 584] = a0\n 24658: a0 = ra | t1\n 24661: u64 [sp + 592] = a0\n 24665: a2 = u64 [sp + 424]\n 24669: i64 a0 = i64 a2 - i64 s1\n 24672: a0 = a0 <u a1\n 24675: a1 = a2 <u s1\n 24678: a2 = u64 [sp + 416]\n 24682: i64 a2 = i64 a2 - i64 t0\n 24685: i64 a2 = i64 a2 - i64 a1\n 24688: i64 a1 = i64 a2 - i64 a0\n 24691: a1 = a1 >>a64 63\n 24694: a0 = u64 [sp + 560]\n 24698: t0 = a1 & a0\n 24701: a2 = u64 [sp + 544]\n 24705: a2 = a2 & a1\n 24708: t1 = t2 ^ a2\n 24711: a4 = t2 <u a2\n 24714: a0 = u64 [sp + 488]\n 24718: a3 = a0 <u t0\n 24721: a4 = a3 if t1 == 0\n 24724: a5 = u64 [sp + 568]\n 24728: t1 = a1 & a5\n 24731: i64 ra = i64 s1 - i64 t1\n 24734: i64 a5 = i64 ra - i64 a4\n 24737: u64 [sp + 496] = a5\n 24741: ra = ra <u a4\n 24744: s1 = s1 <u t1\n 24747: a5 = u64 [sp + 552]\n 24751: a5 = a5 & a1\n 24754: a4 = u64 [sp + 480]\n 24758: i64 a5 = i64 a4 - i64 a5\n 24761: i64 a5 = i64 a5 - i64 s1\n 24764: i64 ra = i64 a5 - i64 ra\n 24767: i64 a2 = i64 t2 - i64 a2\n 24770: i64 t1 = i64 a2 - i64 a3\n 24773: i64 a5 = i64 a0 - i64 t0\n 24776: s1 = u64 [sp + 600]\n 24780: a4 = u64 [sp + 520]\n 24784: a0 = s1 | a4\n 24787: a0 = a0 <u 0x1\n 24790: a3 = u64 [sp + 512]\n 24794: a2 = a3 <u a0\n 24797: i64 a0 = i64 a3 - i64 a0\n 24800: a3 = s1 <u 0x1\n 24803: i64 a4 = i64 a4 - i64 a3\n 24806: a3 = u64 [sp + 528]\n 24810: i64 a3 = i64 a3 - i64 a2\n 24813: i64 s1 = i64 s1 - i64 1\n 24816: u64 [sp + 520] = a4\n 24820: u64 [sp + 528] = a3\n 24824: a2 = a4 | a3\n 24827: u64 [sp + 600] = s1\n 24831: a3 = s1 | a0\n 24834: a2 = a2 | a3\n 24837: t0 = a1 & 0x1\n 24840: u64 [sp + 512] = a0\n 24844: u64 [sp + 504] = 0\n 24848: jump @531 if a2 != 0\n      : @532 (gas: 1)\n 24852: jump @534\n      : @533 (gas: 3)\n 24854: t0 = 0x0\n 24856: u64 [sp + 440] = 0\n 24860: fallthrough\n      : @534 (gas: 24)\n 24861: a3 = u64 [sp + 584]\n 24865: a0 = a3 >>64 63\n 24868: a1 = u64 [sp + 592]\n 24872: a1 = a1 <<64 1\n 24875: a0 = a0 | a1\n 24878: a4 = u64 [sp + 536]\n 24882: a1 = a4 >>64 63\n 24885: a3 = a3 <<64 1\n 24888: a1 = a1 | a3\n 24891: a5 = u64 [sp + 576]\n 24895: a3 = a5 >>64 63\n 24898: a4 = a4 <<64 1\n 24901: a5 = a5 <<64 1\n 24904: a2 = t0 | a5\n 24907: u64 [sp + 584] = a2\n 24911: a2 = u64 [sp + 440]\n 24915: a3 = a3 | a2\n 24918: a3 = a3 | a4\n 24921: u64 [sp + 576] = a3\n 24925: a1 = a1 | a2\n 24928: u64 [sp + 592] = a1\n 24932: a0 = a0 | a2\n 24935: u64 [sp + 600] = a0\n 24939: fallthrough\n      : @535 (gas: 5)\n 24940: a1 = u64 [sp + 376]\n 24944: s1 = u64 [sp + 368]\n 24948: a4 = u64 [sp + 360]\n 24952: a5 = u64 [sp + 352]\n 24956: fallthrough\n      : @536 (gas: 31)\n 24957: i64 a2 = i64 a1 + 0x3\n 24960: a0 = a2 <u a1\n 24963: i64 a3 = s1 + a0\n 24966: a1 = a3 <u s1\n 24969: a1 = a0 if a0 == 0\n 24972: i64 a1 = a1 + a5\n 24975: a0 = a1 <u a5\n 24978: i64 a0 = a0 + a4\n 24981: u64 [sp + 536] = a2\n 24985: u64 [sp + 1248] = a2\n 24989: u64 [sp + 528] = a3\n 24993: u64 [sp + 1256] = a3\n 24997: u64 [sp + 520] = a1\n 25001: u64 [sp + 1264] = a1\n 25005: u64 [sp + 512] = a0\n 25009: u64 [sp + 1272] = a0\n 25013: u64 [sp + 1240] = 0\n 25017: u64 [sp + 1232] = 0\n 25021: u64 [sp + 1224] = 0\n 25025: u64 [sp + 1216] = 0\n 25029: u64 [sp + 1200] = 0\n 25033: u64 [sp + 1208] = 0\n 25037: u64 [sp + 1192] = 0\n 25041: u64 [sp + 1184] = 256\n 25047: a1 = sp + 0x4e0\n 25051: a3 = sp + 0x4c0\n 25055: a4 = sp + 0x4a0\n 25059: a2 = 0xffffffff\n 25062: a0 = 0x0\n 25064: ecalli 5 // 'get_storage'\n 25066: fallthrough\n      : @537 (gas: 37)\n 25067: a4 = u64 [sp + 1224]\n 25071: a2 = u64 [sp + 1216]\n 25075: t0 = u64 [sp + 1240]\n 25079: a0 = u64 [sp + 1232]\n 25083: a5 = u64 [sp + 576]\n 25087: i64 a5 = a5 + a4\n 25090: ra = u64 [sp + 584]\n 25094: i64 a1 = a2 + ra\n 25097: u64 [sp + 504] = a1\n 25101: a3 = a1 <u a2\n 25104: i64 a5 = a5 + a3\n 25107: a2 = a5 ^ a4\n 25110: u64 [sp + 496] = a5\n 25114: a4 = a5 <u a4\n 25117: t2 = u64 [sp + 592]\n 25121: i64 a5 = a0 + t2\n 25124: t1 = u64 [sp + 600]\n 25128: i64 a1 = t0 + t1\n 25131: s1 = a5 <u a0\n 25134: i64 a1 = a1 + s1\n 25137: s1 = a3\n 25139: s1 = a4 if a2 != 0\n 25142: i64 s1 = s1 + a5\n 25145: a5 = s1 <u a5\n 25148: i64 a5 = a5 + a1\n 25151: a1 = a3 ^ 0x1\n 25154: a3 = a4 ^ 0x1\n 25157: a1 = a3 if a2 != 0\n 25160: a2 = s1 <u a0\n 25163: a3 = a5 ^ t0\n 25166: a4 = a5 <u t0\n 25169: a4 = a2 if a3 == 0\n 25172: a0 = a0 ^ s1\n 25175: a0 = a0 | a3\n 25178: a2 = a4 ^ 0x1\n 25181: a1 = a2 if a0 != 0\n 25184: jump @551 if a1 == 0\n      : @538 (gas: 85)\n 25188: a0 = u64 [sp + 528]\n 25192: u64 [sp + 1224] = a0\n 25196: a0 = u64 [sp + 536]\n 25200: u64 [sp + 1216] = a0\n 25204: a0 = u64 [sp + 520]\n 25208: u64 [sp + 1232] = a0\n 25212: a0 = u64 [sp + 512]\n 25216: u64 [sp + 1240] = a0\n 25220: u64 [sp + 1208] = 0\n 25224: u64 [sp + 1200] = 0\n 25228: u64 [sp + 1192] = 0\n 25232: u64 [sp + 1184] = 0\n 25236: u64 [sp + 1168] = 0\n 25240: u64 [sp + 1176] = 0\n 25244: u64 [sp + 1160] = 0\n 25248: u64 [sp + 1152] = 256\n 25254: a1 = sp + 0x4c0\n 25258: a3 = sp + 0x4a0\n 25262: a4 = sp + 0x480\n 25266: a2 = 0xffffffff\n 25269: a0 = 0x0\n 25271: u64 [sp + 600] = t1\n 25275: u64 [sp + 592] = t2\n 25279: u64 [sp + 584] = ra\n 25283: u64 [sp + 488] = a5\n 25287: ecalli 5 // 'get_storage'\n 25289: a0 = u64 [sp + 512]\n 25293: u64 [sp + 1272] = a0\n 25297: a0 = u64 [sp + 520]\n 25301: u64 [sp + 1264] = a0\n 25305: a0 = u64 [sp + 528]\n 25309: u64 [sp + 1256] = a0\n 25313: a0 = u64 [sp + 536]\n 25317: u64 [sp + 1248] = a0\n 25321: a0 = u64 [sp + 488]\n 25325: u64 [sp + 1144] = a0\n 25329: u64 [sp + 1136] = s1\n 25333: a0 = u64 [sp + 496]\n 25337: u64 [sp + 1128] = a0\n 25341: a0 = u64 [sp + 504]\n 25345: u64 [sp + 1120] = a0\n 25349: a1 = sp + 0x4e0\n 25353: a3 = sp + 0x460\n 25357: a2 = 0xffffffff\n 25360: a4 = 0x20\n 25363: a0 = 0x0\n 25365: ecalli 13 // 'set_storage'\n 25367: a0 = u64 [sp + 360]\n 25371: u64 [sp + 1272] = a0\n 25375: a0 = u64 [sp + 352]\n 25379: u64 [sp + 1264] = a0\n 25383: a0 = u64 [sp + 368]\n 25387: u64 [sp + 1256] = a0\n 25391: a0 = u64 [sp + 376]\n 25395: u64 [sp + 1248] = a0\n 25399: u64 [sp + 1240] = 0\n 25403: u64 [sp + 1232] = 0\n 25407: u64 [sp + 1224] = 0\n 25411: u64 [sp + 1216] = 0\n 25415: u64 [sp + 1200] = 0\n 25419: u64 [sp + 1208] = 0\n 25423: u64 [sp + 1192] = 0\n 25427: s1 = 0x100\n 25431: u64 [sp + 1184] = s1\n 25435: a1 = sp + 0x4e0\n 25439: a3 = sp + 0x4c0\n 25443: a4 = sp + 0x4a0\n 25447: a2 = 0xffffffff\n 25450: a0 = 0x0\n 25452: ecalli 5 // 'get_storage'\n 25454: a0 = u64 [sp + 1216]\n 25458: a1 = u64 [sp + 1224]\n 25462: a2 = u64 [sp + 1232]\n 25466: a5 = a0 & 0xffffffff\n 25469: t2 = a1 & 0xffffffff\n 25472: a0 = u64 [sp + 280]\n 25476: a2 = a2 & a0\n 25479: u64 [sp + 8] = 0\n 25482: i64 a0 = i64 sp + 0x2e0\n 25486: a1 = 0x5\n 25489: u64 [sp] = a2\n 25491: a2 = 0x0\n 25493: a3 = 0x0\n 25495: a4 = 0x0\n 25497: ra = 390, jump @271\n      : @539 [@dyn 195] (gas: 27)\n 25503: a3 = u64 [sp + 760]\n 25507: a2 = u64 [sp + 752]\n 25511: a1 = u64 [sp + 744]\n 25515: a0 = u64 [sp + 736]\n 25519: u64 [sp + 512] = a3\n 25523: u64 [sp + 1272] = a3\n 25527: u64 [sp + 520] = a2\n 25531: u64 [sp + 1264] = a2\n 25535: u64 [sp + 528] = a1\n 25539: u64 [sp + 1256] = a1\n 25543: u64 [sp + 536] = a0\n 25547: u64 [sp + 1248] = a0\n 25551: u64 [sp + 1240] = 0\n 25555: u64 [sp + 1232] = 0\n 25559: u64 [sp + 1224] = 0\n 25563: u64 [sp + 1216] = 0\n 25567: u64 [sp + 1200] = 0\n 25571: u64 [sp + 1208] = 0\n 25575: u64 [sp + 1192] = 0\n 25579: u64 [sp + 1184] = s1\n 25583: a1 = sp + 0x4e0\n 25587: a3 = sp + 0x4c0\n 25591: a4 = sp + 0x4a0\n 25595: a2 = 0xffffffff\n 25598: a0 = 0x0\n 25600: ecalli 5 // 'get_storage'\n 25602: fallthrough\n      : @540 (gas: 35)\n 25603: a3 = u64 [sp + 1224]\n 25607: a1 = u64 [sp + 1216]\n 25611: t0 = u64 [sp + 1240]\n 25615: a2 = u64 [sp + 1232]\n 25619: a5 = u64 [sp + 576]\n 25623: i64 a5 = a5 + a3\n 25626: a0 = u64 [sp + 584]\n 25630: i64 t2 = a1 + a0\n 25633: a4 = t2 <u a1\n 25636: i64 ra = a5 + a4\n 25639: t1 = ra ^ a3\n 25642: a3 = ra <u a3\n 25645: a5 = a4 ^ 0x1\n 25648: a4 = a3 if t1 != 0\n 25651: a0 = u64 [sp + 592]\n 25655: i64 a0 = a0 + a2\n 25658: i64 s1 = a0 + a4\n 25661: a4 = s1 <u a0\n 25664: a1 = u64 [sp + 600]\n 25668: i64 a1 = a1 + t0\n 25671: a0 = a0 <u a2\n 25674: i64 a0 = a0 + a1\n 25677: i64 a4 = a4 + a0\n 25680: a0 = s1 <u a2\n 25683: a1 = a4 ^ t0\n 25686: u64 [sp + 600] = a4\n 25690: a4 = a4 <u t0\n 25693: a4 = a0 if a1 == 0\n 25696: a0 = a4 ^ 0x1\n 25699: a2 = a2 ^ s1\n 25702: a1 = a1 | a2\n 25705: a2 = a3 ^ 0x1\n 25708: a5 = a2 if t1 != 0\n 25711: a5 = a0 if a1 != 0\n 25714: jump @555 if a5 == 0\n      : @541 (gas: 65)\n 25718: a0 = u64 [sp + 528]\n 25722: u64 [sp + 1224] = a0\n 25726: a0 = u64 [sp + 536]\n 25730: u64 [sp + 1216] = a0\n 25734: a0 = u64 [sp + 520]\n 25738: u64 [sp + 1232] = a0\n 25742: a0 = u64 [sp + 512]\n 25746: u64 [sp + 1240] = a0\n 25750: u64 [sp + 1208] = 0\n 25754: u64 [sp + 1200] = 0\n 25758: u64 [sp + 1192] = 0\n 25762: u64 [sp + 1184] = 0\n 25766: u64 [sp + 1168] = 0\n 25770: u64 [sp + 1176] = 0\n 25774: u64 [sp + 1160] = 0\n 25778: u64 [sp + 1152] = 256\n 25784: a1 = sp + 0x4c0\n 25788: a3 = sp + 0x4a0\n 25792: a4 = sp + 0x480\n 25796: a2 = 0xffffffff\n 25799: a0 = 0x0\n 25801: u64 [sp + 592] = t2\n 25805: u64 [sp + 584] = ra\n 25809: ecalli 5 // 'get_storage'\n 25811: a0 = u64 [sp + 512]\n 25815: u64 [sp + 1272] = a0\n 25819: a0 = u64 [sp + 520]\n 25823: u64 [sp + 1264] = a0\n 25827: a0 = u64 [sp + 528]\n 25831: u64 [sp + 1256] = a0\n 25835: a0 = u64 [sp + 536]\n 25839: u64 [sp + 1248] = a0\n 25843: a0 = u64 [sp + 600]\n 25847: u64 [sp + 1144] = a0\n 25851: u64 [sp + 1136] = s1\n 25855: a0 = u64 [sp + 584]\n 25859: u64 [sp + 1128] = a0\n 25863: a0 = u64 [sp + 592]\n 25867: u64 [sp + 1120] = a0\n 25871: a1 = sp + 0x4e0\n 25875: a3 = sp + 0x460\n 25879: a2 = 0xffffffff\n 25882: a4 = 0x20\n 25885: a0 = 0x0\n 25887: ecalli 13 // 'set_storage'\n 25889: a1 = u64 [sp + 400]\n 25893: i64 a1 = i64 a1 + 0x1\n 25896: a0 = a1 <u 0x1\n 25899: a2 = u64 [sp + 392]\n 25903: i64 a2 = a2 + a0\n 25906: u64 [sp + 400] = a1\n 25910: u64 [sp + 392] = a2\n 25914: a0 = a1 | a2\n 25917: a0 = a0 <u 0x1\n 25920: a1 = u64 [sp + 384]\n 25924: i64 a0 = a0 + a1\n 25927: a1 = a0 <u a1\n 25930: a2 = u64 [sp + 344]\n 25934: i64 a2 = a2 + a1\n 25937: u64 [sp + 344] = a2\n 25941: u64 [sp + 384] = a0\n 25945: a1 = u64 [sp + 336]\n 25949: a3 = u64 [sp + 328]\n 25953: a4 = u64 [sp + 320]\n 25957: jump @520\n      : @542 (gas: 48)\n 25960: a0 = u64 [sp + 40]\n 25963: u64 [sp + 1224] = a0\n 25967: a0 = u64 [sp + 48]\n 25970: u64 [sp + 1216] = a0\n 25974: a0 = u64 [sp + 32]\n 25977: u64 [sp + 1232] = a0\n 25981: s1 = u64 [sp + 24]\n 25984: u64 [sp + 1240] = s1\n 25988: u64 [sp + 1208] = 0\n 25992: u64 [sp + 1200] = 0\n 25996: u64 [sp + 1192] = 0\n 26000: u64 [sp + 1184] = 0\n 26004: u64 [sp + 1168] = 0\n 26008: u64 [sp + 1176] = 0\n 26012: u64 [sp + 1160] = 0\n 26016: u64 [sp + 1152] = 256\n 26022: a1 = sp + 0x4c0\n 26026: a3 = sp + 0x4a0\n 26030: a4 = sp + 0x480\n 26034: a2 = 0xffffffff\n 26037: a0 = 0x0\n 26039: ecalli 5 // 'get_storage'\n 26041: a0 = u64 [sp + 1184]\n 26045: a1 = u64 [sp + 1192]\n 26049: a2 = u64 [sp + 1200]\n 26053: a3 = u64 [sp + 1208]\n 26057: a0 = a0 & 0xffffff00\n 26061: a0 = a0 | 0x1\n 26064: u64 [sp + 1272] = s1\n 26068: a4 = u64 [sp + 32]\n 26071: u64 [sp + 1264] = a4\n 26075: a4 = u64 [sp + 40]\n 26078: u64 [sp + 1256] = a4\n 26082: a4 = u64 [sp + 48]\n 26085: u64 [sp + 1248] = a4\n 26089: u64 [sp + 1144] = a3\n 26093: u64 [sp + 1136] = a2\n 26097: u64 [sp + 1128] = a1\n 26101: u64 [sp + 1120] = a0\n 26105: a1 = sp + 0x4e0\n 26109: a3 = sp + 0x460\n 26113: a2 = 0xffffffff\n 26116: a4 = 0x20\n 26119: a0 = 0x0\n 26121: ecalli 13 // 'set_storage'\n 26123: a0 = 0x40\n 26126: a1 = 0x20\n 26129: ra = 392, jump @0\n      : @543 [@dyn 196] (gas: 1)\n 26135: jump @545 if a0 != 0\n      : @544 (gas: 1)\n 26138: jump @479\n      : @545 (gas: 16)\n 26141: s1 = 0x20050\n 26146: a0 = u64 [0x20098]\n 26151: a1 = u64 [0x200a8]\n 26156: a2 = u64 [0x20090]\n 26161: a3 = u64 [0x200a0]\n 26166: a4 = reverse a0\n 26168: a0 = reverse a1\n 26170: a1 = a0 | a4\n 26173: a2 = a2 | a3\n 26176: a2 = reverse a2\n 26178: a1 = a1 | a2\n 26181: a1 = a1 >>64 32\n 26184: a2 = a2 | a4\n 26187: a2 = a2 <<64 32\n 26190: a1 = a1 | a2\n 26193: jump @547 if a1 == 0\n      : @546 (gas: 1)\n 26196: jump @479\n      : @547 (gas: 3)\n 26199: a0 = a0 + 0x0\n 26201: u64 [sp + 600] = a0\n 26205: ra = 394, jump @0\n      : @548 [@dyn 197] (gas: 1)\n 26211: jump @550 if a0 != 0\n      : @549 (gas: 1)\n 26214: jump @479\n      : @550 (gas: 6)\n 26217: a1 = u64 [sp + 600]\n 26221: a1 = a1 + s1\n 26224: a0 = 0x0\n 26226: a2 = 0x0\n 26228: ecalli 11 // 'seal_return'\n 26230: fallthrough\n      : @551 (gas: 3)\n 26231: a1 = 0x20\n 26234: a0 = 0x0\n 26236: ra = 396, jump @0\n      : @552 [@dyn 198] (gas: 1)\n 26242: jump @554 if a0 != 0\n      : @553 (gas: 1)\n 26245: jump @479\n      : @554 (gas: 2)\n 26248: s1 = 0x20050\n 26253: jump @496\n      : @555 (gas: 3)\n 26256: a1 = 0x20\n 26259: a0 = 0x0\n 26261: ra = 398, jump @0\n      : @556 [@dyn 199] (gas: 1)\n 26267: jump @558 if a0 != 0\n      : @557 (gas: 1)\n 26270: jump @479\n      : @558 (gas: 2)\n 26273: s1 = 0x20050\n 26278: jump @496\n      : @559 (gas: 3)\n 26281: a1 = 0x20\n 26284: a0 = 0x0\n 26286: ra = 400, jump @0\n      : @560 [@dyn 200] (gas: 1)\n 26292: jump @562 if a0 != 0\n      : @561 (gas: 1)\n 26295: jump @479\n      : @562 (gas: 2)\n 26298: s1 = 0x20050\n 26303: jump @496\n      : @563 (gas: 7)\n 26306: a1 = 0x20050\n 26311: a1 = a1 + 0x0\n 26313: a0 = 0x1\n 26316: a2 = 0x0\n 26318: ra = 0x192\n 26322: ecalli 11 // 'seal_return'\n 26324: fallthrough\n      : @564 [@dyn 201] (gas: 13)\n 26325: i64 sp = i64 sp - i64 224\n 26329: u64 [sp + 216] = ra\n 26333: u64 [sp + 208] = s0\n 26337: u64 [sp + 200] = s1\n 26341: i64 s0 = i64 sp + 0xe0\n 26345: sp = sp & 0xffffffe0\n 26348: u64 [sp + 88] = 0\n 26351: u64 [sp + 80] = 0\n 26354: u64 [sp + 72] = 0\n 26357: u64 [sp + 64] = 0\n 26360: a0 = sp + 0x40\n 26363: ecalli 14 // 'value_transferred'\n 26365: fallthrough\n      : @565 (gas: 8)\n 26366: a0 = u64 [sp + 80]\n 26369: a1 = u64 [sp + 88]\n 26372: a2 = u64 [sp + 72]\n 26375: a3 = u64 [sp + 64]\n 26378: a1 = a1 | a2\n 26381: a0 = a0 | a3\n 26384: a0 = a0 | a1\n 26387: jump @570 if a0 != 0\n      : @566 (gas: 18)\n 26390: a1 = u64 [0x30460]\n 26395: a2 = u64 [0x30478]\n 26400: a3 = u64 [0x30468]\n 26405: a0 = u64 [0x30470]\n 26410: i64 a4 = i64 a1 - i64 4\n 26413: a1 = a4 <u a1\n 26416: i64 a4 = a3 + a1\n 26419: i64 a4 = i64 a4 - i64 1\n 26422: a5 = a4 ^ a3\n 26425: a3 = a4 <u a3\n 26428: a3 = a1 if a5 == 0\n 26431: i64 a1 = i64 a0 - i64 1\n 26434: i64 a3 = a3 + a1\n 26437: a1 = a3 <u a1\n 26440: a0 = a0 <u 0x1\n 26443: i64 a2 = i64 a2 - i64 a0\n 26446: i64 a1 = a1 + a2\n 26449: jump @573 if a1 >=s 0\n      : @567 (gas: 3)\n 26452: a0 = 0x0\n 26454: a1 = 0x0\n 26456: ra = 404, jump @0\n      : @568 [@dyn 202] (gas: 1)\n 26462: jump @572 if a0 == 0\n      : @569 (gas: 6)\n 26465: a1 = 0x20050\n 26470: a1 = a1 + 0x0\n 26472: a0 = 0x1\n 26475: a2 = 0x0\n 26477: ecalli 11 // 'seal_return'\n 26479: fallthrough\n      : @570 (gas: 3)\n 26480: a0 = 0x0\n 26482: a1 = 0x0\n 26484: ra = 406, jump @0\n      : @571 [@dyn 203] (gas: 1)\n 26490: jump @581 if a0 != 0\n      : @572 (gas: 1)\n 26494: trap\n      : @573 (gas: 28)\n 26495: u64 [sp + 184] = 0\n 26499: u64 [sp + 176] = 0\n 26503: u64 [sp + 168] = 0\n 26507: u64 [sp + 160] = 2\n 26512: u64 [sp + 152] = 0\n 26516: u64 [sp + 144] = 0\n 26520: u64 [sp + 136] = 0\n 26524: u64 [sp + 128] = 0\n 26528: u64 [sp + 112] = 0\n 26531: u64 [sp + 120] = 0\n 26534: u64 [sp + 104] = 0\n 26537: u64 [sp + 96] = 256\n 26542: a1 = sp + 0xa0\n 26546: a3 = sp + 0x80\n 26550: a4 = sp + 0x60\n 26553: a2 = 0xffffffff\n 26556: a0 = 0x0\n 26558: ecalli 5 // 'get_storage'\n 26560: a0 = u64 [sp + 152]\n 26564: u64 [sp + 40] = a0\n 26567: a0 = u64 [sp + 144]\n 26571: u64 [sp + 48] = a0\n 26574: a0 = u64 [sp + 136]\n 26578: u64 [sp + 56] = a0\n 26581: s1 = u64 [sp + 128]\n 26585: a0 = 0x40\n 26588: a1 = 0x20\n 26591: ra = 408, jump @0\n      : @574 [@dyn 204] (gas: 1)\n 26597: jump @572 if a0 == 0\n      : @575 (gas: 17)\n 26600: u64 [sp + 32] = s1\n 26603: s1 = 0x20050\n 26608: a0 = u64 [0x20098]\n 26613: a1 = u64 [0x200a8]\n 26618: a2 = u64 [0x20090]\n 26623: a3 = u64 [0x200a0]\n 26628: a4 = reverse a0\n 26630: a0 = reverse a1\n 26632: a1 = a0 | a4\n 26635: a2 = a2 | a3\n 26638: a2 = reverse a2\n 26640: a1 = a1 | a2\n 26643: a1 = a1 >>64 32\n 26646: a2 = a2 | a4\n 26649: a2 = a2 <<64 32\n 26652: a1 = a1 | a2\n 26655: jump @572 if a1 != 0\n      : @576 (gas: 4)\n 26659: a0 = a0 + 0x0\n 26661: a1 = 0x20\n 26664: u64 [sp + 24] = a0\n 26667: ra = 410, jump @0\n      : @577 [@dyn 205] (gas: 1)\n 26673: jump @572 if a0 == 0\n      : @578 (gas: 72)\n 26677: a0 = u64 [sp + 24]\n 26680: i64 s1 = s1 + a0\n 26683: a1 = u64 [sp + 40]\n 26686: a5 = reverse a1\n 26688: a1 = u64 [sp + 48]\n 26691: a1 = reverse a1\n 26693: a2 = u64 [sp + 56]\n 26696: a2 = reverse a2\n 26698: a3 = u64 [sp + 32]\n 26701: a3 = reverse a3\n 26703: u8 [s1 + 24] = a3\n 26706: a4 = a3 >>64 56\n 26709: u8 [s1 + 31] = a4\n 26712: a4 = a3 >>64 48\n 26715: u8 [s1 + 30] = a4\n 26718: a4 = a3 >>64 40\n 26721: u8 [s1 + 29] = a4\n 26724: a4 = a3 >>64 32\n 26727: u8 [s1 + 28] = a4\n 26730: a4 = a3 >>64 24\n 26733: u8 [s1 + 27] = a4\n 26736: a4 = a3 >>64 16\n 26739: u8 [s1 + 26] = a4\n 26742: a3 = a3 >>64 8\n 26745: u8 [s1 + 25] = a3\n 26748: u8 [s1 + 16] = a2\n 26751: a3 = a2 >>64 56\n 26754: u8 [s1 + 23] = a3\n 26757: a3 = a2 >>64 48\n 26760: u8 [s1 + 22] = a3\n 26763: a3 = a2 >>64 40\n 26766: u8 [s1 + 21] = a3\n 26769: a3 = a2 >>64 32\n 26772: u8 [s1 + 20] = a3\n 26775: a3 = a2 >>64 24\n 26778: u8 [s1 + 19] = a3\n 26781: a3 = a2 >>64 16\n 26784: u8 [s1 + 18] = a3\n 26787: a2 = a2 >>64 8\n 26790: u8 [s1 + 17] = a2\n 26793: u8 [s1 + 8] = a1\n 26796: a2 = a1 >>64 56\n 26799: u8 [s1 + 15] = a2\n 26802: a2 = a1 >>64 48\n 26805: u8 [s1 + 14] = a2\n 26808: a2 = a1 >>64 40\n 26811: u8 [s1 + 13] = a2\n 26814: a2 = a1 >>64 32\n 26817: u8 [s1 + 12] = a2\n 26820: a2 = a1 >>64 24\n 26823: u8 [s1 + 11] = a2\n 26826: a2 = a1 >>64 16\n 26829: u8 [s1 + 10] = a2\n 26832: a1 = a1 >>64 8\n 26835: u8 [s1 + 9] = a1\n 26838: u8 [s1] = a5\n 26840: a1 = a5 >>64 56\n 26843: u8 [s1 + 7] = a1\n 26846: a1 = a5 >>64 48\n 26849: u8 [s1 + 6] = a1\n 26852: a1 = a5 >>64 40\n 26855: u8 [s1 + 5] = a1\n 26858: a1 = a5 >>64 32\n 26861: u8 [s1 + 4] = a1\n 26864: a1 = a5 >>64 24\n 26867: u8 [s1 + 3] = a1\n 26870: a1 = a5 >>64 16\n 26873: u8 [s1 + 2] = a1\n 26876: a5 = a5 >>64 8\n 26879: u8 [s1 + 1] = a5\n 26882: a1 = 0x20\n 26885: ra = 412, jump @0\n      : @579 [@dyn 206] (gas: 1)\n 26891: jump @572 if a0 == 0\n      : @580 (gas: 5)\n 26895: a1 = s1 + 0x0\n 26897: a2 = 0x20\n 26900: a0 = 0x0\n 26902: ecalli 11 // 'seal_return'\n 26904: fallthrough\n      : @581 (gas: 7)\n 26905: a1 = 0x20050\n 26910: a1 = a1 + 0x0\n 26912: a0 = 0x1\n 26915: a2 = 0x0\n 26917: ra = 0x19e\n 26921: ecalli 11 // 'seal_return'\n 26923: fallthrough\n      : @582 [@dyn 207] (gas: 13)\n 26924: i64 sp = i64 sp - i64 192\n 26928: u64 [sp + 184] = ra\n 26932: u64 [sp + 176] = s0\n 26936: u64 [sp + 168] = s1\n 26940: i64 s0 = i64 sp + 0xc0\n 26944: sp = sp & 0xffffffe0\n 26947: u64 [sp + 56] = 0\n 26950: u64 [sp + 48] = 0\n 26953: u64 [sp + 40] = 0\n 26956: u64 [sp + 32] = 0\n 26959: a0 = sp + 0x20\n 26962: ecalli 14 // 'value_transferred'\n 26964: fallthrough\n      : @583 (gas: 8)\n 26965: a0 = u64 [sp + 48]\n 26968: a1 = u64 [sp + 56]\n 26971: a2 = u64 [sp + 40]\n 26974: a3 = u64 [sp + 32]\n 26977: a1 = a1 | a2\n 26980: a0 = a0 | a3\n 26983: a0 = a0 | a1\n 26986: jump @588 if a0 != 0\n      : @584 (gas: 18)\n 26989: a1 = u64 [0x30460]\n 26994: a2 = u64 [0x30478]\n 26999: a3 = u64 [0x30468]\n 27004: a0 = u64 [0x30470]\n 27009: i64 a4 = i64 a1 - i64 4\n 27012: a1 = a4 <u a1\n 27015: i64 a4 = a3 + a1\n 27018: i64 a4 = i64 a4 - i64 1\n 27021: a5 = a4 ^ a3\n 27024: a3 = a4 <u a3\n 27027: a3 = a1 if a5 == 0\n 27030: i64 a1 = i64 a0 - i64 1\n 27033: i64 a3 = a3 + a1\n 27036: a1 = a3 <u a1\n 27039: a0 = a0 <u 0x1\n 27042: i64 a2 = i64 a2 - i64 a0\n 27045: i64 a1 = a1 + a2\n 27048: jump @591 if a1 >=s 0\n      : @585 (gas: 3)\n 27051: a0 = 0x0\n 27053: a1 = 0x0\n 27055: ra = 416, jump @0\n      : @586 [@dyn 208] (gas: 1)\n 27061: jump @590 if a0 == 0\n      : @587 (gas: 6)\n 27064: a1 = 0x20050\n 27069: a1 = a1 + 0x0\n 27071: a0 = 0x1\n 27074: a2 = 0x0\n 27076: ecalli 11 // 'seal_return'\n 27078: fallthrough\n      : @588 (gas: 3)\n 27079: a0 = 0x0\n 27081: a1 = 0x0\n 27083: ra = 418, jump @0\n      : @589 [@dyn 209] (gas: 1)\n 27089: jump @599 if a0 != 0\n      : @590 (gas: 1)\n 27093: trap\n      : @591 (gas: 26)\n 27094: u64 [sp + 152] = 0\n 27098: u64 [sp + 144] = 0\n 27102: u64 [sp + 136] = 0\n 27106: u64 [sp + 128] = 0\n 27110: u64 [sp + 120] = 0\n 27113: u64 [sp + 112] = 0\n 27116: u64 [sp + 104] = 0\n 27119: u64 [sp + 96] = 0\n 27122: u64 [sp + 80] = 0\n 27125: u64 [sp + 88] = 0\n 27128: u64 [sp + 72] = 0\n 27131: u64 [sp + 64] = 256\n 27136: a1 = sp + 0x80\n 27140: a3 = sp + 0x60\n 27143: a4 = sp + 0x40\n 27146: a2 = 0xffffffff\n 27149: a0 = 0x0\n 27151: ecalli 5 // 'get_storage'\n 27153: a0 = u32 [sp + 112]\n 27156: u64 [sp + 16] = a0\n 27159: a0 = u64 [sp + 104]\n 27162: u64 [sp + 24] = a0\n 27165: s1 = u64 [sp + 96]\n 27168: a0 = 0x40\n 27171: a1 = 0x20\n 27174: ra = 420, jump @0\n      : @592 [@dyn 210] (gas: 1)\n 27180: jump @590 if a0 == 0\n      : @593 (gas: 17)\n 27183: u64 [sp + 8] = s1\n 27186: s1 = 0x20050\n 27191: a0 = u64 [0x20098]\n 27196: a1 = u64 [0x200a8]\n 27201: a2 = u64 [0x20090]\n 27206: a3 = u64 [0x200a0]\n 27211: a4 = reverse a0\n 27213: a0 = reverse a1\n 27215: a1 = a0 | a4\n 27218: a2 = a2 | a3\n 27221: a2 = reverse a2\n 27223: a1 = a1 | a2\n 27226: a1 = a1 >>64 32\n 27229: a2 = a2 | a4\n 27232: a2 = a2 <<64 32\n 27235: a1 = a1 | a2\n 27238: jump @590 if a1 != 0\n      : @594 (gas: 4)\n 27242: a0 = a0 + 0x0\n 27244: a1 = 0x20\n 27247: u64 [sp] = a0\n 27249: ra = 422, jump @0\n      : @595 [@dyn 211] (gas: 1)\n 27255: jump @590 if a0 == 0\n      : @596 (gas: 60)\n 27259: a0 = u64 [sp]\n 27261: i64 s1 = s1 + a0\n 27264: a1 = u64 [sp + 16]\n 27267: a4 = reverse a1\n 27269: a1 = u64 [sp + 24]\n 27272: a1 = reverse a1\n 27274: a2 = u64 [sp + 8]\n 27277: a2 = reverse a2\n 27279: u8 [s1 + 24] = a2\n 27282: u8 [s1 + 11] = 0\n 27285: u8 [s1 + 10] = 0\n 27288: u8 [s1 + 9] = 0\n 27291: u8 [s1 + 7] = 0\n 27294: u8 [s1 + 6] = 0\n 27297: u8 [s1 + 5] = 0\n 27300: u8 [s1 + 4] = 0\n 27303: u8 [s1 + 3] = 0\n 27306: u8 [s1 + 2] = 0\n 27309: u8 [s1 + 1] = 0\n 27312: u8 [s1 + 0] = 0\n 27314: a3 = a2 >>64 56\n 27317: u8 [s1 + 31] = a3\n 27320: a3 = a2 >>64 48\n 27323: u8 [s1 + 30] = a3\n 27326: a3 = a2 >>64 40\n 27329: u8 [s1 + 29] = a3\n 27332: a3 = a2 >>64 32\n 27335: u8 [s1 + 28] = a3\n 27338: a3 = a2 >>64 24\n 27341: u8 [s1 + 27] = a3\n 27344: a3 = a2 >>64 16\n 27347: u8 [s1 + 26] = a3\n 27350: a2 = a2 >>64 8\n 27353: u8 [s1 + 25] = a2\n 27356: u8 [s1 + 16] = a1\n 27359: a2 = a1 >>64 56\n 27362: u8 [s1 + 23] = a2\n 27365: a2 = a1 >>64 48\n 27368: u8 [s1 + 22] = a2\n 27371: a2 = a1 >>64 40\n 27374: u8 [s1 + 21] = a2\n 27377: a2 = a1 >>64 32\n 27380: u8 [s1 + 20] = a2\n 27383: a2 = a1 >>64 24\n 27386: u8 [s1 + 19] = a2\n 27389: a2 = a1 >>64 16\n 27392: u8 [s1 + 18] = a2\n 27395: a1 = a1 >>64 8\n 27398: u8 [s1 + 17] = a1\n 27401: u8 [s1 + 8] = a4\n 27404: a1 = a4 >>64 56\n 27407: u8 [s1 + 15] = a1\n 27410: a1 = a4 >>64 48\n 27413: u8 [s1 + 14] = a1\n 27416: a1 = a4 >>64 40\n 27419: u8 [s1 + 13] = a1\n 27422: a4 = a4 >>64 32\n 27425: u8 [s1 + 12] = a4\n 27428: a1 = 0x20\n 27431: ra = 424, jump @0\n      : @597 [@dyn 212] (gas: 1)\n 27437: jump @590 if a0 == 0\n      : @598 (gas: 5)\n 27441: a1 = s1 + 0x0\n 27443: a2 = 0x20\n 27446: a0 = 0x0\n 27448: ecalli 11 // 'seal_return'\n 27450: fallthrough\n      : @599 (gas: 7)\n 27451: a1 = 0x20050\n 27456: a1 = a1 + 0x0\n 27458: a0 = 0x1\n 27461: a2 = 0x0\n 27463: ra = 0x1aa\n 27467: ecalli 11 // 'seal_return'\n 27469: fallthrough\n      : @600 [@dyn 213] (gas: 13)\n 27470: i64 sp = i64 sp - i64 96\n 27473: u64 [sp + 88] = ra\n 27476: u64 [sp + 80] = s0\n 27479: u64 [sp + 72] = s1\n 27482: i64 s0 = i64 sp + 0x60\n 27485: sp = sp & 0xffffffe0\n 27488: u64 [sp + 56] = 0\n 27491: u64 [sp + 48] = 0\n 27494: u64 [sp + 40] = 0\n 27497: u64 [sp + 32] = 0\n 27500: a0 = sp + 0x20\n 27503: ecalli 14 // 'value_transferred'\n 27505: fallthrough\n      : @601 (gas: 8)\n 27506: a0 = u64 [sp + 48]\n 27509: a1 = u64 [sp + 56]\n 27512: a2 = u64 [sp + 40]\n 27515: a3 = u64 [sp + 32]\n 27518: a1 = a1 | a2\n 27521: a0 = a0 | a3\n 27524: a0 = a0 | a1\n 27527: jump @606 if a0 != 0\n      : @602 (gas: 18)\n 27530: a1 = u64 [0x30460]\n 27535: a2 = u64 [0x30478]\n 27540: a3 = u64 [0x30468]\n 27545: a0 = u64 [0x30470]\n 27550: i64 a4 = i64 a1 - i64 4\n 27553: a1 = a4 <u a1\n 27556: i64 a4 = a3 + a1\n 27559: i64 a4 = i64 a4 - i64 1\n 27562: a5 = a4 ^ a3\n 27565: a3 = a4 <u a3\n 27568: a3 = a1 if a5 == 0\n 27571: i64 a1 = i64 a0 - i64 1\n 27574: i64 a3 = a3 + a1\n 27577: a1 = a3 <u a1\n 27580: a0 = a0 <u 0x1\n 27583: i64 a2 = i64 a2 - i64 a0\n 27586: i64 a1 = a1 + a2\n 27589: jump @609 if a1 >=s 0\n      : @603 (gas: 3)\n 27592: a0 = 0x0\n 27594: a1 = 0x0\n 27596: ra = 428, jump @0\n      : @604 [@dyn 214] (gas: 1)\n 27602: jump @608 if a0 == 0\n      : @605 (gas: 6)\n 27605: a1 = 0x20050\n 27610: a1 = a1 + 0x0\n 27612: a0 = 0x1\n 27615: a2 = 0x0\n 27617: ecalli 11 // 'seal_return'\n 27619: fallthrough\n      : @606 (gas: 3)\n 27620: a0 = 0x0\n 27622: a1 = 0x0\n 27624: ra = 430, jump @0\n      : @607 [@dyn 215] (gas: 1)\n 27630: jump @617 if a0 != 0\n      : @608 (gas: 1)\n 27634: trap\n      : @609 (gas: 3)\n 27635: a0 = 0x40\n 27638: a1 = 0x20\n 27641: ra = 432, jump @0\n      : @610 [@dyn 216] (gas: 1)\n 27647: jump @608 if a0 == 0\n      : @611 (gas: 16)\n 27650: s1 = 0x20050\n 27655: a0 = u64 [0x20098]\n 27660: a1 = u64 [0x200a8]\n 27665: a2 = u64 [0x20090]\n 27670: a3 = u64 [0x200a0]\n 27675: a4 = reverse a0\n 27677: a0 = reverse a1\n 27679: a1 = a0 | a4\n 27682: a2 = a2 | a3\n 27685: a2 = reverse a2\n 27687: a1 = a1 | a2\n 27690: a1 = a1 >>64 32\n 27693: a2 = a2 | a4\n 27696: a2 = a2 <<64 32\n 27699: a1 = a1 | a2\n 27702: jump @608 if a1 != 0\n      : @612 (gas: 4)\n 27705: a0 = a0 + 0x0\n 27707: a1 = 0x20\n 27710: u64 [sp + 24] = a0\n 27713: ra = 434, jump @0\n      : @613 [@dyn 217] (gas: 1)\n 27719: jump @608 if a0 == 0\n      : @614 (gas: 36)\n 27722: a0 = u64 [sp + 24]\n 27725: i64 s1 = s1 + a0\n 27728: u8 [s1 + 31] = 0\n 27731: u8 [s1 + 30] = 117\n 27735: u8 [s1 + 29] = 18\n 27739: u8 [s1 + 28] = 0\n 27742: u8 [s1 + 27] = 0\n 27745: u8 [s1 + 26] = 0\n 27748: u8 [s1 + 25] = 0\n 27751: u8 [s1 + 24] = 0\n 27754: u8 [s1 + 23] = 0\n 27757: u8 [s1 + 22] = 0\n 27760: u8 [s1 + 21] = 0\n 27763: u8 [s1 + 20] = 0\n 27766: u8 [s1 + 19] = 0\n 27769: u8 [s1 + 18] = 0\n 27772: u8 [s1 + 17] = 0\n 27775: u8 [s1 + 16] = 0\n 27778: u8 [s1 + 15] = 0\n 27781: u8 [s1 + 14] = 0\n 27784: u8 [s1 + 13] = 0\n 27787: u8 [s1 + 12] = 0\n 27790: u8 [s1 + 11] = 0\n 27793: u8 [s1 + 10] = 0\n 27796: u8 [s1 + 9] = 0\n 27799: u8 [s1 + 8] = 0\n 27802: u8 [s1 + 7] = 0\n 27805: u8 [s1 + 6] = 0\n 27808: u8 [s1 + 5] = 0\n 27811: u8 [s1 + 4] = 0\n 27814: u8 [s1 + 3] = 0\n 27817: u8 [s1 + 2] = 0\n 27820: u8 [s1 + 1] = 0\n 27823: u8 [s1 + 0] = 0\n 27825: a1 = 0x20\n 27828: ra = 436, jump @0\n      : @615 [@dyn 218] (gas: 1)\n 27834: jump @608 if a0 == 0\n      : @616 (gas: 5)\n 27838: a1 = s1 + 0x0\n 27840: a2 = 0x20\n 27843: a0 = 0x0\n 27845: ecalli 11 // 'seal_return'\n 27847: fallthrough\n      : @617 (gas: 7)\n 27848: a1 = 0x20050\n 27853: a1 = a1 + 0x0\n 27855: a0 = 0x1\n 27858: a2 = 0x0\n 27860: ra = 0x1b6\n 27864: ecalli 11 // 'seal_return'\n 27866: fallthrough\n      : @618 [@dyn 219] (gas: 13)\n 27867: i64 sp = i64 sp - i64 224\n 27871: u64 [sp + 216] = ra\n 27875: u64 [sp + 208] = s0\n 27879: u64 [sp + 200] = s1\n 27883: i64 s0 = i64 sp + 0xe0\n 27887: sp = sp & 0xffffffe0\n 27890: u64 [sp + 88] = 0\n 27893: u64 [sp + 80] = 0\n 27896: u64 [sp + 72] = 0\n 27899: u64 [sp + 64] = 0\n 27902: a0 = sp + 0x40\n 27905: ecalli 14 // 'value_transferred'\n 27907: fallthrough\n      : @619 (gas: 8)\n 27908: a0 = u64 [sp + 80]\n 27911: a1 = u64 [sp + 88]\n 27914: a2 = u64 [sp + 72]\n 27917: a3 = u64 [sp + 64]\n 27920: a1 = a1 | a2\n 27923: a0 = a0 | a3\n 27926: a0 = a0 | a1\n 27929: jump @624 if a0 != 0\n      : @620 (gas: 18)\n 27932: a1 = u64 [0x30460]\n 27937: a2 = u64 [0x30478]\n 27942: a3 = u64 [0x30468]\n 27947: a0 = u64 [0x30470]\n 27952: i64 a4 = i64 a1 - i64 4\n 27955: a1 = a4 <u a1\n 27958: i64 a4 = a3 + a1\n 27961: i64 a4 = i64 a4 - i64 1\n 27964: a5 = a4 ^ a3\n 27967: a3 = a4 <u a3\n 27970: a3 = a1 if a5 == 0\n 27973: i64 a1 = i64 a0 - i64 1\n 27976: i64 a3 = a3 + a1\n 27979: a1 = a3 <u a1\n 27982: a0 = a0 <u 0x1\n 27985: i64 a2 = i64 a2 - i64 a0\n 27988: i64 a1 = a1 + a2\n 27991: jump @627 if a1 >=s 0\n      : @621 (gas: 3)\n 27994: a0 = 0x0\n 27996: a1 = 0x0\n 27998: ra = 440, jump @0\n      : @622 [@dyn 220] (gas: 1)\n 28004: jump @626 if a0 == 0\n      : @623 (gas: 6)\n 28007: a1 = 0x20050\n 28012: a1 = a1 + 0x0\n 28014: a0 = 0x1\n 28017: a2 = 0x0\n 28019: ecalli 11 // 'seal_return'\n 28021: fallthrough\n      : @624 (gas: 3)\n 28022: a0 = 0x0\n 28024: a1 = 0x0\n 28026: ra = 442, jump @0\n      : @625 [@dyn 221] (gas: 1)\n 28032: jump @635 if a0 != 0\n      : @626 (gas: 1)\n 28036: trap\n      : @627 (gas: 21)\n 28037: a0 = sp + 0x80\n 28041: ecalli 0 // 'address'\n 28042: a0 = u64 [sp + 136]\n 28046: a1 = u64 [sp + 128]\n 28050: a2 = i32 [sp + 144]\n 28054: u64 [sp + 168] = a0\n 28058: u64 [sp + 160] = a1\n 28062: u32 [sp + 176] = a2\n 28066: a0 = sp + 0xa0\n 28070: a1 = sp + 0x60\n 28073: ecalli 1 // 'balance_of'\n 28075: a0 = u64 [sp + 120]\n 28078: u64 [sp + 40] = a0\n 28081: a0 = u64 [sp + 112]\n 28084: u64 [sp + 48] = a0\n 28087: a0 = u64 [sp + 104]\n 28090: u64 [sp + 56] = a0\n 28093: s1 = u64 [sp + 96]\n 28096: a0 = 0x40\n 28099: a1 = 0x20\n 28102: ra = 444, jump @0\n      : @628 [@dyn 222] (gas: 1)\n 28108: jump @626 if a0 == 0\n      : @629 (gas: 17)\n 28111: u64 [sp + 32] = s1\n 28114: s1 = 0x20050\n 28119: a0 = u64 [0x20098]\n 28124: a1 = u64 [0x200a8]\n 28129: a2 = u64 [0x20090]\n 28134: a3 = u64 [0x200a0]\n 28139: a4 = reverse a0\n 28141: a0 = reverse a1\n 28143: a1 = a0 | a4\n 28146: a2 = a2 | a3\n 28149: a2 = reverse a2\n 28151: a1 = a1 | a2\n 28154: a1 = a1 >>64 32\n 28157: a2 = a2 | a4\n 28160: a2 = a2 <<64 32\n 28163: a1 = a1 | a2\n 28166: jump @626 if a1 != 0\n      : @630 (gas: 4)\n 28170: a0 = a0 + 0x0\n 28172: a1 = 0x20\n 28175: u64 [sp + 24] = a0\n 28178: ra = 446, jump @0\n      : @631 [@dyn 223] (gas: 1)\n 28184: jump @626 if a0 == 0\n      : @632 (gas: 72)\n 28188: a0 = u64 [sp + 24]\n 28191: i64 s1 = s1 + a0\n 28194: a1 = u64 [sp + 40]\n 28197: a5 = reverse a1\n 28199: a1 = u64 [sp + 48]\n 28202: a1 = reverse a1\n 28204: a2 = u64 [sp + 56]\n 28207: a2 = reverse a2\n 28209: a3 = u64 [sp + 32]\n 28212: a3 = reverse a3\n 28214: u8 [s1 + 24] = a3\n 28217: a4 = a3 >>64 56\n 28220: u8 [s1 + 31] = a4\n 28223: a4 = a3 >>64 48\n 28226: u8 [s1 + 30] = a4\n 28229: a4 = a3 >>64 40\n 28232: u8 [s1 + 29] = a4\n 28235: a4 = a3 >>64 32\n 28238: u8 [s1 + 28] = a4\n 28241: a4 = a3 >>64 24\n 28244: u8 [s1 + 27] = a4\n 28247: a4 = a3 >>64 16\n 28250: u8 [s1 + 26] = a4\n 28253: a3 = a3 >>64 8\n 28256: u8 [s1 + 25] = a3\n 28259: u8 [s1 + 16] = a2\n 28262: a3 = a2 >>64 56\n 28265: u8 [s1 + 23] = a3\n 28268: a3 = a2 >>64 48\n 28271: u8 [s1 + 22] = a3\n 28274: a3 = a2 >>64 40\n 28277: u8 [s1 + 21] = a3\n 28280: a3 = a2 >>64 32\n 28283: u8 [s1 + 20] = a3\n 28286: a3 = a2 >>64 24\n 28289: u8 [s1 + 19] = a3\n 28292: a3 = a2 >>64 16\n 28295: u8 [s1 + 18] = a3\n 28298: a2 = a2 >>64 8\n 28301: u8 [s1 + 17] = a2\n 28304: u8 [s1 + 8] = a1\n 28307: a2 = a1 >>64 56\n 28310: u8 [s1 + 15] = a2\n 28313: a2 = a1 >>64 48\n 28316: u8 [s1 + 14] = a2\n 28319: a2 = a1 >>64 40\n 28322: u8 [s1 + 13] = a2\n 28325: a2 = a1 >>64 32\n 28328: u8 [s1 + 12] = a2\n 28331: a2 = a1 >>64 24\n 28334: u8 [s1 + 11] = a2\n 28337: a2 = a1 >>64 16\n 28340: u8 [s1 + 10] = a2\n 28343: a1 = a1 >>64 8\n 28346: u8 [s1 + 9] = a1\n 28349: u8 [s1] = a5\n 28351: a1 = a5 >>64 56\n 28354: u8 [s1 + 7] = a1\n 28357: a1 = a5 >>64 48\n 28360: u8 [s1 + 6] = a1\n 28363: a1 = a5 >>64 40\n 28366: u8 [s1 + 5] = a1\n 28369: a1 = a5 >>64 32\n 28372: u8 [s1 + 4] = a1\n 28375: a1 = a5 >>64 24\n 28378: u8 [s1 + 3] = a1\n 28381: a1 = a5 >>64 16\n 28384: u8 [s1 + 2] = a1\n 28387: a5 = a5 >>64 8\n 28390: u8 [s1 + 1] = a5\n 28393: a1 = 0x20\n 28396: ra = 448, jump @0\n      : @633 [@dyn 224] (gas: 1)\n 28402: jump @626 if a0 == 0\n      : @634 (gas: 5)\n 28406: a1 = s1 + 0x0\n 28408: a2 = 0x20\n 28411: a0 = 0x0\n 28413: ecalli 11 // 'seal_return'\n 28415: fallthrough\n      : @635 (gas: 7)\n 28416: a1 = 0x20050\n 28421: a1 = a1 + 0x0\n 28423: a0 = 0x1\n 28426: a2 = 0x0\n 28428: ra = 0x1c2\n 28432: ecalli 11 // 'seal_return'\n 28434: fallthrough\n      : @636 [@dyn 225] (gas: 13)\n 28435: i64 sp = i64 sp - i64 96\n 28438: u64 [sp + 88] = ra\n 28441: u64 [sp + 80] = s0\n 28444: u64 [sp + 72] = s1\n 28447: i64 s0 = i64 sp + 0x60\n 28450: sp = sp & 0xffffffe0\n 28453: u64 [sp + 56] = 0\n 28456: u64 [sp + 48] = 0\n 28459: u64 [sp + 40] = 0\n 28462: u64 [sp + 32] = 0\n 28465: a0 = sp + 0x20\n 28468: ecalli 14 // 'value_transferred'\n 28470: fallthrough\n      : @637 (gas: 8)\n 28471: a0 = u64 [sp + 48]\n 28474: a1 = u64 [sp + 56]\n 28477: a2 = u64 [sp + 40]\n 28480: a3 = u64 [sp + 32]\n 28483: a1 = a1 | a2\n 28486: a0 = a0 | a3\n 28489: a0 = a0 | a1\n 28492: jump @642 if a0 != 0\n      : @638 (gas: 18)\n 28495: a1 = u64 [0x30460]\n 28500: a2 = u64 [0x30478]\n 28505: a3 = u64 [0x30468]\n 28510: a0 = u64 [0x30470]\n 28515: i64 a4 = i64 a1 - i64 4\n 28518: a1 = a4 <u a1\n 28521: i64 a4 = a3 + a1\n 28524: i64 a4 = i64 a4 - i64 1\n 28527: a5 = a4 ^ a3\n 28530: a3 = a4 <u a3\n 28533: a3 = a1 if a5 == 0\n 28536: i64 a1 = i64 a0 - i64 1\n 28539: i64 a3 = a3 + a1\n 28542: a1 = a3 <u a1\n 28545: a0 = a0 <u 0x1\n 28548: i64 a2 = i64 a2 - i64 a0\n 28551: i64 a1 = a1 + a2\n 28554: jump @645 if a1 >=s 0\n      : @639 (gas: 3)\n 28557: a0 = 0x0\n 28559: a1 = 0x0\n 28561: ra = 452, jump @0\n      : @640 [@dyn 226] (gas: 1)\n 28567: jump @644 if a0 == 0\n      : @641 (gas: 6)\n 28570: a1 = 0x20050\n 28575: a1 = a1 + 0x0\n 28577: a0 = 0x1\n 28580: a2 = 0x0\n 28582: ecalli 11 // 'seal_return'\n 28584: fallthrough\n      : @642 (gas: 3)\n 28585: a0 = 0x0\n 28587: a1 = 0x0\n 28589: ra = 454, jump @0\n      : @643 [@dyn 227] (gas: 1)\n 28595: jump @653 if a0 != 0\n      : @644 (gas: 1)\n 28599: trap\n      : @645 (gas: 3)\n 28600: a0 = 0x40\n 28603: a1 = 0x20\n 28606: ra = 456, jump @0\n      : @646 [@dyn 228] (gas: 1)\n 28612: jump @644 if a0 == 0\n      : @647 (gas: 16)\n 28615: s1 = 0x20050\n 28620: a0 = u64 [0x20098]\n 28625: a1 = u64 [0x200a8]\n 28630: a2 = u64 [0x20090]\n 28635: a3 = u64 [0x200a0]\n 28640: a4 = reverse a0\n 28642: a0 = reverse a1\n 28644: a1 = a0 | a4\n 28647: a2 = a2 | a3\n 28650: a2 = reverse a2\n 28652: a1 = a1 | a2\n 28655: a1 = a1 >>64 32\n 28658: a2 = a2 | a4\n 28661: a2 = a2 <<64 32\n 28664: a1 = a1 | a2\n 28667: jump @644 if a1 != 0\n      : @648 (gas: 4)\n 28670: a0 = a0 + 0x0\n 28672: a1 = 0x20\n 28675: u64 [sp + 24] = a0\n 28678: ra = 458, jump @0\n      : @649 [@dyn 229] (gas: 1)\n 28684: jump @644 if a0 == 0\n      : @650 (gas: 36)\n 28687: a0 = u64 [sp + 24]\n 28690: i64 s1 = s1 + a0\n 28693: u8 [s1 + 31] = 0\n 28696: u8 [s1 + 30] = 141\n 28701: u8 [s1 + 29] = 39\n 28705: u8 [s1 + 28] = 0\n 28708: u8 [s1 + 27] = 0\n 28711: u8 [s1 + 26] = 0\n 28714: u8 [s1 + 25] = 0\n 28717: u8 [s1 + 24] = 0\n 28720: u8 [s1 + 23] = 0\n 28723: u8 [s1 + 22] = 0\n 28726: u8 [s1 + 21] = 0\n 28729: u8 [s1 + 20] = 0\n 28732: u8 [s1 + 19] = 0\n 28735: u8 [s1 + 18] = 0\n 28738: u8 [s1 + 17] = 0\n 28741: u8 [s1 + 16] = 0\n 28744: u8 [s1 + 15] = 0\n 28747: u8 [s1 + 14] = 0\n 28750: u8 [s1 + 13] = 0\n 28753: u8 [s1 + 12] = 0\n 28756: u8 [s1 + 11] = 0\n 28759: u8 [s1 + 10] = 0\n 28762: u8 [s1 + 9] = 0\n 28765: u8 [s1 + 8] = 0\n 28768: u8 [s1 + 7] = 0\n 28771: u8 [s1 + 6] = 0\n 28774: u8 [s1 + 5] = 0\n 28777: u8 [s1 + 4] = 0\n 28780: u8 [s1 + 3] = 0\n 28783: u8 [s1 + 2] = 0\n 28786: u8 [s1 + 1] = 0\n 28789: u8 [s1 + 0] = 0\n 28791: a1 = 0x20\n 28794: ra = 460, jump @0\n      : @651 [@dyn 230] (gas: 1)\n 28800: jump @644 if a0 == 0\n      : @652 (gas: 5)\n 28804: a1 = s1 + 0x0\n 28806: a2 = 0x20\n 28809: a0 = 0x0\n 28811: ecalli 11 // 'seal_return'\n 28813: fallthrough\n      : @653 (gas: 7)\n 28814: a1 = 0x20050\n 28819: a1 = a1 + 0x0\n 28821: a0 = 0x1\n 28824: a2 = 0x0\n 28826: ra = 0x1ce\n 28830: ecalli 11 // 'seal_return'\n 28832: fallthrough\n      : @654 [@dyn 231] (gas: 13)\n 28833: i64 sp = i64 sp - i64 224\n 28837: u64 [sp + 216] = ra\n 28841: u64 [sp + 208] = s0\n 28845: u64 [sp + 200] = s1\n 28849: i64 s0 = i64 sp + 0xe0\n 28853: sp = sp & 0xffffffe0\n 28856: u64 [sp + 88] = 0\n 28859: u64 [sp + 80] = 0\n 28862: u64 [sp + 72] = 0\n 28865: u64 [sp + 64] = 0\n 28868: a0 = sp + 0x40\n 28871: ecalli 14 // 'value_transferred'\n 28873: fallthrough\n      : @655 (gas: 8)\n 28874: a0 = u64 [sp + 80]\n 28877: a1 = u64 [sp + 88]\n 28880: a2 = u64 [sp + 72]\n 28883: a3 = u64 [sp + 64]\n 28886: a1 = a1 | a2\n 28889: a0 = a0 | a3\n 28892: a0 = a0 | a1\n 28895: jump @660 if a0 != 0\n      : @656 (gas: 18)\n 28898: a1 = u64 [0x30460]\n 28903: a2 = u64 [0x30478]\n 28908: a3 = u64 [0x30468]\n 28913: a0 = u64 [0x30470]\n 28918: i64 a4 = i64 a1 - i64 4\n 28921: a1 = a4 <u a1\n 28924: i64 a4 = a3 + a1\n 28927: i64 a4 = i64 a4 - i64 1\n 28930: a5 = a4 ^ a3\n 28933: a3 = a4 <u a3\n 28936: a3 = a1 if a5 == 0\n 28939: i64 a1 = i64 a0 - i64 1\n 28942: i64 a3 = a3 + a1\n 28945: a1 = a3 <u a1\n 28948: a0 = a0 <u 0x1\n 28951: i64 a2 = i64 a2 - i64 a0\n 28954: i64 a1 = a1 + a2\n 28957: jump @663 if a1 >=s 0\n      : @657 (gas: 3)\n 28960: a0 = 0x0\n 28962: a1 = 0x0\n 28964: ra = 464, jump @0\n      : @658 [@dyn 232] (gas: 1)\n 28970: jump @662 if a0 == 0\n      : @659 (gas: 6)\n 28973: a1 = 0x20050\n 28978: a1 = a1 + 0x0\n 28980: a0 = 0x1\n 28983: a2 = 0x0\n 28985: ecalli 11 // 'seal_return'\n 28987: fallthrough\n      : @660 (gas: 3)\n 28988: a0 = 0x0\n 28990: a1 = 0x0\n 28992: ra = 466, jump @0\n      : @661 [@dyn 233] (gas: 1)\n 28998: jump @671 if a0 != 0\n      : @662 (gas: 1)\n 29002: trap\n      : @663 (gas: 28)\n 29003: u64 [sp + 184] = 0\n 29007: u64 [sp + 176] = 0\n 29011: u64 [sp + 168] = 0\n 29015: u64 [sp + 160] = 1\n 29020: u64 [sp + 152] = 0\n 29024: u64 [sp + 144] = 0\n 29028: u64 [sp + 136] = 0\n 29032: u64 [sp + 128] = 0\n 29036: u64 [sp + 112] = 0\n 29039: u64 [sp + 120] = 0\n 29042: u64 [sp + 104] = 0\n 29045: u64 [sp + 96] = 256\n 29050: a1 = sp + 0xa0\n 29054: a3 = sp + 0x80\n 29058: a4 = sp + 0x60\n 29061: a2 = 0xffffffff\n 29064: a0 = 0x0\n 29066: ecalli 5 // 'get_storage'\n 29068: a0 = u64 [sp + 152]\n 29072: u64 [sp + 40] = a0\n 29075: a0 = u64 [sp + 144]\n 29079: u64 [sp + 48] = a0\n 29082: a0 = u64 [sp + 136]\n 29086: u64 [sp + 56] = a0\n 29089: s1 = u64 [sp + 128]\n 29093: a0 = 0x40\n 29096: a1 = 0x20\n 29099: ra = 468, jump @0\n      : @664 [@dyn 234] (gas: 1)\n 29105: jump @662 if a0 == 0\n      : @665 (gas: 17)\n 29108: u64 [sp + 32] = s1\n 29111: s1 = 0x20050\n 29116: a0 = u64 [0x20098]\n 29121: a1 = u64 [0x200a8]\n 29126: a2 = u64 [0x20090]\n 29131: a3 = u64 [0x200a0]\n 29136: a4 = reverse a0\n 29138: a0 = reverse a1\n 29140: a1 = a0 | a4\n 29143: a2 = a2 | a3\n 29146: a2 = reverse a2\n 29148: a1 = a1 | a2\n 29151: a1 = a1 >>64 32\n 29154: a2 = a2 | a4\n 29157: a2 = a2 <<64 32\n 29160: a1 = a1 | a2\n 29163: jump @662 if a1 != 0\n      : @666 (gas: 4)\n 29167: a0 = a0 + 0x0\n 29169: a1 = 0x20\n 29172: u64 [sp + 24] = a0\n 29175: ra = 470, jump @0\n      : @667 [@dyn 235] (gas: 1)\n 29181: jump @662 if a0 == 0\n      : @668 (gas: 72)\n 29185: a0 = u64 [sp + 24]\n 29188: i64 s1 = s1 + a0\n 29191: a1 = u64 [sp + 40]\n 29194: a5 = reverse a1\n 29196: a1 = u64 [sp + 48]\n 29199: a1 = reverse a1\n 29201: a2 = u64 [sp + 56]\n 29204: a2 = reverse a2\n 29206: a3 = u64 [sp + 32]\n 29209: a3 = reverse a3\n 29211: u8 [s1 + 24] = a3\n 29214: a4 = a3 >>64 56\n 29217: u8 [s1 + 31] = a4\n 29220: a4 = a3 >>64 48\n 29223: u8 [s1 + 30] = a4\n 29226: a4 = a3 >>64 40\n 29229: u8 [s1 + 29] = a4\n 29232: a4 = a3 >>64 32\n 29235: u8 [s1 + 28] = a4\n 29238: a4 = a3 >>64 24\n 29241: u8 [s1 + 27] = a4\n 29244: a4 = a3 >>64 16\n 29247: u8 [s1 + 26] = a4\n 29250: a3 = a3 >>64 8\n 29253: u8 [s1 + 25] = a3\n 29256: u8 [s1 + 16] = a2\n 29259: a3 = a2 >>64 56\n 29262: u8 [s1 + 23] = a3\n 29265: a3 = a2 >>64 48\n 29268: u8 [s1 + 22] = a3\n 29271: a3 = a2 >>64 40\n 29274: u8 [s1 + 21] = a3\n 29277: a3 = a2 >>64 32\n 29280: u8 [s1 + 20] = a3\n 29283: a3 = a2 >>64 24\n 29286: u8 [s1 + 19] = a3\n 29289: a3 = a2 >>64 16\n 29292: u8 [s1 + 18] = a3\n 29295: a2 = a2 >>64 8\n 29298: u8 [s1 + 17] = a2\n 29301: u8 [s1 + 8] = a1\n 29304: a2 = a1 >>64 56\n 29307: u8 [s1 + 15] = a2\n 29310: a2 = a1 >>64 48\n 29313: u8 [s1 + 14] = a2\n 29316: a2 = a1 >>64 40\n 29319: u8 [s1 + 13] = a2\n 29322: a2 = a1 >>64 32\n 29325: u8 [s1 + 12] = a2\n 29328: a2 = a1 >>64 24\n 29331: u8 [s1 + 11] = a2\n 29334: a2 = a1 >>64 16\n 29337: u8 [s1 + 10] = a2\n 29340: a1 = a1 >>64 8\n 29343: u8 [s1 + 9] = a1\n 29346: u8 [s1] = a5\n 29348: a1 = a5 >>64 56\n 29351: u8 [s1 + 7] = a1\n 29354: a1 = a5 >>64 48\n 29357: u8 [s1 + 6] = a1\n 29360: a1 = a5 >>64 40\n 29363: u8 [s1 + 5] = a1\n 29366: a1 = a5 >>64 32\n 29369: u8 [s1 + 4] = a1\n 29372: a1 = a5 >>64 24\n 29375: u8 [s1 + 3] = a1\n 29378: a1 = a5 >>64 16\n 29381: u8 [s1 + 2] = a1\n 29384: a5 = a5 >>64 8\n 29387: u8 [s1 + 1] = a5\n 29390: a1 = 0x20\n 29393: ra = 472, jump @0\n      : @669 [@dyn 236] (gas: 1)\n 29399: jump @662 if a0 == 0\n      : @670 (gas: 5)\n 29403: a1 = s1 + 0x0\n 29405: a2 = 0x20\n 29408: a0 = 0x0\n 29410: ecalli 11 // 'seal_return'\n 29412: fallthrough\n      : @671 (gas: 7)\n 29413: a1 = 0x20050\n 29418: a1 = a1 + 0x0\n 29420: a0 = 0x1\n 29423: a2 = 0x0\n 29425: ra = 0x1da\n 29429: ecalli 11 // 'seal_return'\n 29431: fallthrough\n      : @672 [@dyn 237] (gas: 13)\n 29432: i64 sp = i64 sp - i64 96\n 29435: u64 [sp + 88] = ra\n 29438: u64 [sp + 80] = s0\n 29441: u64 [sp + 72] = s1\n 29444: i64 s0 = i64 sp + 0x60\n 29447: sp = sp & 0xffffffe0\n 29450: u64 [sp + 56] = 0\n 29453: u64 [sp + 48] = 0\n 29456: u64 [sp + 40] = 0\n 29459: u64 [sp + 32] = 0\n 29462: a0 = sp + 0x20\n 29465: ecalli 14 // 'value_transferred'\n 29467: fallthrough\n      : @673 (gas: 8)\n 29468: a0 = u64 [sp + 48]\n 29471: a1 = u64 [sp + 56]\n 29474: a2 = u64 [sp + 40]\n 29477: a3 = u64 [sp + 32]\n 29480: a1 = a1 | a2\n 29483: a0 = a0 | a3\n 29486: a0 = a0 | a1\n 29489: jump @678 if a0 != 0\n      : @674 (gas: 18)\n 29492: a1 = u64 [0x30460]\n 29497: a2 = u64 [0x30478]\n 29502: a3 = u64 [0x30468]\n 29507: a0 = u64 [0x30470]\n 29512: i64 a4 = i64 a1 - i64 4\n 29515: a1 = a4 <u a1\n 29518: i64 a4 = a3 + a1\n 29521: i64 a4 = i64 a4 - i64 1\n 29524: a5 = a4 ^ a3\n 29527: a3 = a4 <u a3\n 29530: a3 = a1 if a5 == 0\n 29533: i64 a1 = i64 a0 - i64 1\n 29536: i64 a3 = a3 + a1\n 29539: a1 = a3 <u a1\n 29542: a0 = a0 <u 0x1\n 29545: i64 a2 = i64 a2 - i64 a0\n 29548: i64 a1 = a1 + a2\n 29551: jump @681 if a1 >=s 0\n      : @675 (gas: 3)\n 29554: a0 = 0x0\n 29556: a1 = 0x0\n 29558: ra = 476, jump @0\n      : @676 [@dyn 238] (gas: 1)\n 29564: jump @680 if a0 == 0\n      : @677 (gas: 6)\n 29567: a1 = 0x20050\n 29572: a1 = a1 + 0x0\n 29574: a0 = 0x1\n 29577: a2 = 0x0\n 29579: ecalli 11 // 'seal_return'\n 29581: fallthrough\n      : @678 (gas: 3)\n 29582: a0 = 0x0\n 29584: a1 = 0x0\n 29586: ra = 478, jump @0\n      : @679 [@dyn 239] (gas: 1)\n 29592: jump @689 if a0 != 0\n      : @680 (gas: 1)\n 29596: trap\n      : @681 (gas: 3)\n 29597: a0 = 0x40\n 29600: a1 = 0x20\n 29603: ra = 480, jump @0\n      : @682 [@dyn 240] (gas: 1)\n 29609: jump @680 if a0 == 0\n      : @683 (gas: 16)\n 29612: s1 = 0x20050\n 29617: a0 = u64 [0x20098]\n 29622: a1 = u64 [0x200a8]\n 29627: a2 = u64 [0x20090]\n 29632: a3 = u64 [0x200a0]\n 29637: a4 = reverse a0\n 29639: a0 = reverse a1\n 29641: a1 = a0 | a4\n 29644: a2 = a2 | a3\n 29647: a2 = reverse a2\n 29649: a1 = a1 | a2\n 29652: a1 = a1 >>64 32\n 29655: a2 = a2 | a4\n 29658: a2 = a2 <<64 32\n 29661: a1 = a1 | a2\n 29664: jump @680 if a1 != 0\n      : @684 (gas: 4)\n 29667: a0 = a0 + 0x0\n 29669: a1 = 0x20\n 29672: u64 [sp + 24] = a0\n 29675: ra = 482, jump @0\n      : @685 [@dyn 241] (gas: 1)\n 29681: jump @680 if a0 == 0\n      : @686 (gas: 36)\n 29684: a0 = u64 [sp + 24]\n 29687: i64 s1 = s1 + a0\n 29690: u8 [s1 + 31] = 128\n 29695: u8 [s1 + 30] = 58\n 29699: u8 [s1 + 29] = 9\n 29703: u8 [s1 + 28] = 0\n 29706: u8 [s1 + 27] = 0\n 29709: u8 [s1 + 26] = 0\n 29712: u8 [s1 + 25] = 0\n 29715: u8 [s1 + 24] = 0\n 29718: u8 [s1 + 23] = 0\n 29721: u8 [s1 + 22] = 0\n 29724: u8 [s1 + 21] = 0\n 29727: u8 [s1 + 20] = 0\n 29730: u8 [s1 + 19] = 0\n 29733: u8 [s1 + 18] = 0\n 29736: u8 [s1 + 17] = 0\n 29739: u8 [s1 + 16] = 0\n 29742: u8 [s1 + 15] = 0\n 29745: u8 [s1 + 14] = 0\n 29748: u8 [s1 + 13] = 0\n 29751: u8 [s1 + 12] = 0\n 29754: u8 [s1 + 11] = 0\n 29757: u8 [s1 + 10] = 0\n 29760: u8 [s1 + 9] = 0\n 29763: u8 [s1 + 8] = 0\n 29766: u8 [s1 + 7] = 0\n 29769: u8 [s1 + 6] = 0\n 29772: u8 [s1 + 5] = 0\n 29775: u8 [s1 + 4] = 0\n 29778: u8 [s1 + 3] = 0\n 29781: u8 [s1 + 2] = 0\n 29784: u8 [s1 + 1] = 0\n 29787: u8 [s1 + 0] = 0\n 29789: a1 = 0x20\n 29792: ra = 484, jump @0\n      : @687 [@dyn 242] (gas: 1)\n 29798: jump @680 if a0 == 0\n      : @688 (gas: 5)\n 29802: a1 = s1 + 0x0\n 29804: a2 = 0x20\n 29807: a0 = 0x0\n 29809: ecalli 11 // 'seal_return'\n 29811: fallthrough\n      : @689 (gas: 7)\n 29812: a1 = 0x20050\n 29817: a1 = a1 + 0x0\n 29819: a0 = 0x1\n 29822: a2 = 0x0\n 29824: ra = 0x1e6\n 29828: ecalli 11 // 'seal_return'\n 29830: fallthrough\n      : @690 [@dyn 243] (gas: 14)\n 29831: i64 sp = i64 sp - i64 1088\n 29835: u64 [sp + 1080] = ra\n 29839: u64 [sp + 1072] = s0\n 29843: u64 [sp + 1064] = s1\n 29847: i64 s0 = i64 sp + 0x440\n 29851: sp = sp & 0xffffffe0\n 29854: u64 [sp + 952] = 0\n 29858: u64 [sp + 944] = 0\n 29862: u64 [sp + 936] = 0\n 29866: u64 [sp + 928] = 0\n 29870: a0 = sp + 0x3a0\n 29874: ra = 0x1e8\n 29878: ecalli 14 // 'value_transferred'\n 29880: fallthrough\n      : @691 [@dyn 244] (gas: 9)\n 29881: a0 = u64 [sp + 944]\n 29885: a1 = u64 [sp + 952]\n 29889: a2 = u64 [sp + 936]\n 29893: a3 = u64 [sp + 928]\n 29897: a1 = a1 | a2\n 29900: a0 = a0 | a3\n 29903: a0 = a0 | a1\n 29906: s1 = 0x20050\n 29911: jump @696 if a0 != 0\n      : @692 (gas: 28)\n 29914: u64 [sp + 632] = s1\n 29918: a1 = u64 [0x30460]\n 29923: a2 = u64 [0x30478]\n 29928: a3 = u64 [0x30468]\n 29933: a0 = u64 [0x30470]\n 29938: i64 a4 = i64 a1 - i64 4\n 29941: a1 = a4 <u a1\n 29944: i64 a5 = a3 + a1\n 29947: i64 a5 = i64 a5 - i64 1\n 29950: s1 = a5 ^ a3\n 29953: a3 = a5 <u a3\n 29956: a3 = a1 if s1 == 0\n 29959: i64 a1 = i64 a0 - i64 1\n 29962: i64 a3 = a3 + a1\n 29965: a1 = a3 <u a1\n 29968: a0 = a0 <u 0x1\n 29971: i64 a2 = i64 a2 - i64 a0\n 29974: i64 a1 = a1 + a2\n 29977: a0 = a1 >s 0\n 29979: a2 = a3 >u 0x0\n 29981: a2 = a0 if a1 != 0\n 29984: a1 = a1 | a3\n 29987: a0 = a5 >u 0x0\n 29989: a3 = a4 <u 0x40\n 29992: a3 = a3 ^ 0x1\n 29995: a3 = a0 if a5 != 0\n 29998: a3 = a2 if a1 != 0\n 30001: jump @700 if a3 != 0\n      : @693 (gas: 3)\n 30004: a0 = 0x0\n 30006: a1 = 0x0\n 30008: ra = 490, jump @0\n      : @694 [@dyn 245] (gas: 1)\n 30014: jump @699 if a0 == 0\n      : @695 (gas: 5)\n 30017: a1 = i32 [sp + 632]\n 30021: a0 = 0x1\n 30024: a2 = 0x0\n 30026: ecalli 11 // 'seal_return'\n 30028: fallthrough\n      : @696 (gas: 3)\n 30029: a0 = 0x0\n 30031: a1 = 0x0\n 30033: ra = 492, jump @0\n      : @697 [@dyn 246] (gas: 1)\n 30039: jump @699 if a0 == 0\n      : @698 (gas: 1)\n 30042: jump @942\n      : @699 (gas: 1)\n 30045: trap\n      : @700 (gas: 9)\n 30046: a5 = 0x30060\n 30051: a0 = u64 [0x3007c]\n 30056: a1 = u64 [0x30074]\n 30061: a2 = u64 [0x3006c]\n 30066: s1 = u64 [0x30064]\n 30071: a3 = a2 | a0\n 30074: a4 = s1 | a1\n 30077: a3 = a3 | a4\n 30080: jump @708 if a3 != 0\n      : @701 (gas: 3)\n 30084: a0 = 0x40\n 30087: a1 = 0x20\n 30090: ra = 494, jump @0\n      : @702 [@dyn 247] (gas: 1)\n 30096: jump @699 if a0 == 0\n      : @703 (gas: 17)\n 30099: s1 = u64 [sp + 632]\n 30103: a0 = u64 [s1 + 72]\n 30106: a1 = u64 [s1 + 64]\n 30109: a2 = u64 [s1 + 80]\n 30112: a3 = u64 [s1 + 88]\n 30115: a5 = reverse a0\n 30117: t0 = reverse a1\n 30119: a4 = reverse a2\n 30121: a2 = reverse a3\n 30123: a0 = a4 | t0\n 30126: a1 = a2 | a5\n 30129: a1 = a1 | a0\n 30132: a1 = a1 >>64 32\n 30135: a0 = a0 | a5\n 30138: a0 = a0 <<64 32\n 30141: a0 = a0 | a1\n 30144: jump @699 if a0 != 0\n      : @704 (gas: 8)\n 30147: u64 [sp + 600] = t0\n 30151: u64 [sp + 608] = a5\n 30155: u64 [sp + 616] = a4\n 30159: u64 [sp + 624] = a2\n 30163: a0 = a2 + 0x0\n 30165: a1 = 0x20\n 30168: u64 [sp + 592] = a0\n 30172: ra = 496, jump @0\n      : @705 [@dyn 248] (gas: 1)\n 30178: jump @699 if a0 == 0\n      : @706 (gas: 48)\n 30182: a0 = u64 [sp + 592]\n 30186: i64 s1 = s1 + a0\n 30189: u8 [s1 + 31] = 0\n 30192: u8 [s1 + 30] = 0\n 30195: u8 [s1 + 29] = 0\n 30198: u8 [s1 + 28] = 0\n 30201: u8 [s1 + 27] = 0\n 30204: u8 [s1 + 26] = 0\n 30207: u8 [s1 + 25] = 0\n 30210: u8 [s1 + 24] = 0\n 30213: u8 [s1 + 23] = 0\n 30216: u8 [s1 + 22] = 0\n 30219: u8 [s1 + 21] = 0\n 30222: u8 [s1 + 20] = 0\n 30225: u8 [s1 + 19] = 0\n 30228: u8 [s1 + 18] = 0\n 30231: u8 [s1 + 17] = 0\n 30234: u8 [s1 + 16] = 0\n 30237: u8 [s1 + 15] = 0\n 30240: u8 [s1 + 14] = 0\n 30243: u8 [s1 + 13] = 0\n 30246: u8 [s1 + 12] = 0\n 30249: u8 [s1 + 11] = 0\n 30252: u8 [s1 + 10] = 0\n 30255: u8 [s1 + 9] = 0\n 30258: u8 [s1 + 8] = 0\n 30261: u8 [s1 + 7] = 0\n 30264: u8 [s1 + 6] = 0\n 30267: u8 [s1 + 5] = 0\n 30270: u8 [s1 + 4] = 0\n 30273: u8 [s1 + 3] = 160\n 30278: u8 [s1 + 2] = 121\n 30282: u8 [s1 + 1] = 195\n 30287: u8 [s1 + 0] = 8\n 30290: a0 = u64 [sp + 624]\n 30294: i64 a1 = i64 a0 + 0x4\n 30297: a0 = a1 <u a0\n 30300: a3 = u64 [sp + 616]\n 30304: i64 a2 = a3 + a0\n 30307: a3 = a2 <u a3\n 30310: a3 = a0 if a0 == 0\n 30313: a0 = u64 [sp + 608]\n 30317: i64 a3 = a3 + a0\n 30320: a4 = a3 <u a0\n 30323: a0 = u64 [sp + 600]\n 30327: i64 a4 = a4 + a0\n 30330: i64 a0 = i64 sp + 0x280\n 30334: ra = 498, jump @1593\n      : @707 [@dyn 249] (gas: 5)\n 30341: a1 = u64 [sp + 648]\n 30345: t0 = u64 [sp + 664]\n 30349: t1 = u64 [sp + 640]\n 30353: a3 = u64 [sp + 656]\n 30357: jump @744\n      : @708 (gas: 8)\n 30360: t0 = u64 [0x3009c]\n 30365: t1 = u64 [0x30094]\n 30370: a4 = u64 [0x30084]\n 30375: t2 = u64 [0x3008c]\n 30380: a5 = a4 | t1\n 30383: a3 = t2 | t0\n 30386: a3 = a3 | a5\n 30389: jump @716 if a3 != 0\n      : @709 (gas: 3)\n 30393: a0 = 0x40\n 30396: a1 = 0x20\n 30399: ra = 500, jump @0\n      : @710 [@dyn 250] (gas: 1)\n 30405: jump @699 if a0 == 0\n      : @711 (gas: 17)\n 30409: s1 = u64 [sp + 632]\n 30413: a0 = u64 [s1 + 72]\n 30416: a1 = u64 [s1 + 64]\n 30419: a2 = u64 [s1 + 80]\n 30422: a3 = u64 [s1 + 88]\n 30425: a5 = reverse a0\n 30427: t0 = reverse a1\n 30429: a4 = reverse a2\n 30431: a2 = reverse a3\n 30433: a0 = a4 | t0\n 30436: a1 = a2 | a5\n 30439: a1 = a1 | a0\n 30442: a1 = a1 >>64 32\n 30445: a0 = a0 | a5\n 30448: a0 = a0 <<64 32\n 30451: a0 = a0 | a1\n 30454: jump @699 if a0 != 0\n      : @712 (gas: 8)\n 30458: u64 [sp + 600] = t0\n 30462: u64 [sp + 608] = a5\n 30466: u64 [sp + 616] = a4\n 30470: u64 [sp + 624] = a2\n 30474: a0 = a2 + 0x0\n 30476: a1 = 0x20\n 30479: u64 [sp + 592] = a0\n 30483: ra = 502, jump @0\n      : @713 [@dyn 251] (gas: 1)\n 30489: jump @699 if a0 == 0\n      : @714 (gas: 48)\n 30493: a0 = u64 [sp + 592]\n 30497: i64 s1 = s1 + a0\n 30500: u8 [s1 + 31] = 0\n 30503: u8 [s1 + 30] = 0\n 30506: u8 [s1 + 29] = 0\n 30509: u8 [s1 + 28] = 0\n 30512: u8 [s1 + 27] = 0\n 30515: u8 [s1 + 26] = 0\n 30518: u8 [s1 + 25] = 0\n 30521: u8 [s1 + 24] = 0\n 30524: u8 [s1 + 23] = 0\n 30527: u8 [s1 + 22] = 0\n 30530: u8 [s1 + 21] = 0\n 30533: u8 [s1 + 20] = 0\n 30536: u8 [s1 + 19] = 0\n 30539: u8 [s1 + 18] = 0\n 30542: u8 [s1 + 17] = 0\n 30545: u8 [s1 + 16] = 0\n 30548: u8 [s1 + 15] = 0\n 30551: u8 [s1 + 14] = 0\n 30554: u8 [s1 + 13] = 0\n 30557: u8 [s1 + 12] = 0\n 30560: u8 [s1 + 11] = 0\n 30563: u8 [s1 + 10] = 0\n 30566: u8 [s1 + 9] = 0\n 30569: u8 [s1 + 8] = 0\n 30572: u8 [s1 + 7] = 0\n 30575: u8 [s1 + 6] = 0\n 30578: u8 [s1 + 5] = 0\n 30581: u8 [s1 + 4] = 0\n 30584: u8 [s1 + 3] = 160\n 30589: u8 [s1 + 2] = 121\n 30593: u8 [s1 + 1] = 195\n 30598: u8 [s1 + 0] = 8\n 30601: a0 = u64 [sp + 624]\n 30605: i64 a1 = i64 a0 + 0x4\n 30608: a0 = a1 <u a0\n 30611: a3 = u64 [sp + 616]\n 30615: i64 a2 = a3 + a0\n 30618: a3 = a2 <u a3\n 30621: a3 = a0 if a0 == 0\n 30624: a0 = u64 [sp + 608]\n 30628: i64 a3 = a3 + a0\n 30631: a4 = a3 <u a0\n 30634: a0 = u64 [sp + 600]\n 30638: i64 a4 = a4 + a0\n 30641: i64 a0 = i64 sp + 0x2a0\n 30645: ra = 504, jump @1604\n      : @715 [@dyn 252] (gas: 5)\n 30652: a1 = u64 [sp + 680]\n 30656: t0 = u64 [sp + 696]\n 30660: t1 = u64 [sp + 672]\n 30664: a3 = u64 [sp + 688]\n 30668: jump @744\n      : @716 (gas: 78)\n 30671: a3 = reverse s1\n 30673: s1 = reverse a2\n 30675: a1 = reverse a1\n 30677: a0 = reverse a0\n 30679: u64 [sp + 624] = a4\n 30683: t1 = reverse t1\n 30685: a2 = reverse t0\n 30687: a4 = a0 | a1\n 30690: a4 = a4 <u 0x1\n 30693: a5 = s1 <u a4\n 30696: i64 t0 = i64 a3 - i64 a5\n 30699: i64 s1 = i64 s1 - i64 a4\n 30702: a3 = a0 <u 0x1\n 30705: i64 a3 = i64 a1 - i64 a3\n 30708: i64 ra = i64 a0 - i64 1\n 30711: a1 = (ra as u64 * a2 as u64) >> 32\n 30714: i64 a4 = i64 a3 * i64 a2\n 30717: i64 a1 = a1 + a4\n 30720: a4 = a1 <u a4\n 30723: a5 = (a3 as u64 * a2 as u64) >> 32\n 30726: i64 a4 = a4 + a5\n 30729: i64 a5 = i64 ra * i64 t1\n 30732: i64 a1 = a1 + a5\n 30735: u64 [sp + 496] = a1\n 30739: a1 = a1 <u a5\n 30742: a5 = (ra as u64 * t1 as u64) >> 32\n 30745: i64 a1 = a1 + a5\n 30748: i64 a1 = a1 + a4\n 30751: a4 = a1 <u a4\n 30754: a5 = (a3 as u64 * t1 as u64) >> 32\n 30757: i64 a4 = a4 + a5\n 30760: i64 a5 = i64 a3 * i64 t1\n 30763: i64 a1 = a1 + a5\n 30766: u64 [sp + 608] = a1\n 30770: a1 = a1 <u a5\n 30773: i64 a1 = a1 + a4\n 30776: u64 [sp + 600] = a1\n 30780: a0 = u64 [sp + 624]\n 30784: a0 = reverse a0\n 30786: a1 = reverse t2\n 30788: u64 [sp + 576] = a0\n 30792: i64 a4 = i64 a0 * i64 ra\n 30795: a0 = (a1 as u64 * ra as u64) >> 32\n 30798: u64 [sp + 552] = a0\n 30802: i64 a4 = a4 + a0\n 30805: i64 a5 = i64 a3 * i64 a1\n 30808: i64 a4 = a4 + a5\n 30811: u64 [sp + 592] = a4\n 30815: u64 [sp + 584] = t1\n 30819: i64 a4 = i64 t1 * i64 s1\n 30822: a0 = (s1 as u64 * a2 as u64) >> 32\n 30825: u64 [sp + 568] = a0\n 30829: i64 a4 = a4 + a0\n 30832: a0 = t0\n 30834: i64 t2 = i64 t0 * i64 a2\n 30837: i64 t2 = t2 + a4\n 30840: u64 [sp + 616] = a1\n 30844: i64 a4 = i64 a1 * i64 ra\n 30847: u64 [sp + 624] = a2\n 30851: i64 t0 = i64 s1 * i64 a2\n 30854: i64 a4 = a4 + t0\n 30857: a5 = a4 <u t0\n 30860: t0 = u64 [sp + 592]\n 30864: a2 = u64 [sp + 600]\n 30868: i64 a1 = t2 + t0\n 30871: i64 a1 = a1 + a5\n 30874: u64 [sp + 544] = a0\n 30878: a5 = a3 | a0\n 30881: u64 [sp + 560] = s1\n 30885: a0 = ra | s1\n 30888: a0 = a0 | a5\n 30891: a5 = u64 [sp + 608]\n 30895: i64 t1 = a5 + a4\n 30898: a4 = t1 <u a5\n 30901: i64 a1 = a1 + a2\n 30904: i64 s1 = a1 + a4\n 30907: u64 [sp + 488] = t1\n 30911: jump @721 if a0 == 0\n      : @717 (gas: 46)\n 30915: a0 = s1 ^ a2\n 30918: a1 = s1 <u a2\n 30921: a4 = a1 if a0 != 0\n 30924: a0 = u64 [sp + 552]\n 30928: a0 = t0 <u a0\n 30931: a1 = a3 >u 0x0\n 30933: t0 = u64 [sp + 576]\n 30937: a5 = t0 >u 0x0\n 30939: a1 = a1 & a5\n 30942: a5 = (t0 as u64 * ra as u64) >> 32\n 30945: a5 = a5 >u 0x0\n 30947: a1 = a1 | a5\n 30950: a2 = u64 [sp + 616]\n 30954: a3 = (a3 as u64 * a2 as u64) >> 32\n 30957: a3 = a3 >u 0x0\n 30959: a1 = a1 | a3\n 30962: a0 = a0 | a1\n 30965: u64 [sp + 608] = a0\n 30969: a0 = u64 [sp + 568]\n 30973: t2 = t2 <u a0\n 30976: a1 = u64 [sp + 544]\n 30980: a3 = a1 >u 0x0\n 30982: a0 = u64 [sp + 584]\n 30986: a5 = a0 >u 0x0\n 30988: a3 = a3 & a5\n 30991: a2 = u64 [sp + 624]\n 30995: a5 = (a1 as u64 * a2 as u64) >> 32\n 30998: a5 = a5 >u 0x0\n 31000: a3 = a3 | a5\n 31003: t1 = u64 [sp + 560]\n 31007: a5 = (a0 as u64 * t1 as u64) >> 32\n 31010: a5 = a5 >u 0x0\n 31012: a3 = a3 | a5\n 31015: a2 = t1 | a1\n 31018: a2 = a2 >u 0x0\n 31020: a0 = u64 [sp + 616]\n 31024: a5 = a0 | t0\n 31027: a5 = a5 >u 0x0\n 31029: a2 = a2 & a5\n 31032: a1 = a2 | t2\n 31035: a1 = a1 | a3\n 31038: a0 = u64 [sp + 608]\n 31042: a0 = a0 | a1\n 31045: a0 = a0 | a4\n 31048: a0 = a0 & 0x1\n 31051: jump @721 if a0 == 0\n      : @718 (gas: 3)\n 31054: a1 = 0x20\n 31057: a0 = 0x0\n 31059: ra = 506, jump @0\n      : @719 [@dyn 253] (gas: 2)\n 31065: s1 = u64 [sp + 632]\n 31069: jump @699 if a0 == 0\n      : @720 (gas: 1)\n 31073: jump @731\n      : @721 (gas: 22)\n 31076: a0 = u64 [sp + 624]\n 31080: i64 a0 = i64 ra * i64 a0\n 31083: u64 [sp + 480] = a0\n 31087: u64 [sp + 1048] = 0\n 31091: u64 [sp + 1040] = 0\n 31095: u64 [sp + 1032] = 0\n 31099: u64 [sp + 1024] = 2\n 31104: u64 [sp + 1016] = 0\n 31108: u64 [sp + 1008] = 0\n 31112: u64 [sp + 1000] = 0\n 31116: u64 [sp + 992] = 0\n 31120: u64 [sp + 976] = 0\n 31124: u64 [sp + 984] = 0\n 31128: u64 [sp + 968] = 0\n 31132: u64 [sp + 960] = 256\n 31138: a1 = sp + 0x400\n 31142: a3 = sp + 0x3e0\n 31146: a4 = sp + 0x3c0\n 31150: a2 = 0xffffffff\n 31153: a0 = 0x0\n 31155: ecalli 5 // 'get_storage'\n 31157: fallthrough\n      : @722 (gas: 20)\n 31158: t2 = u64 [sp + 480]\n 31162: t0 = u64 [sp + 488]\n 31166: a0 = u64 [sp + 1016]\n 31170: a1 = u64 [sp + 992]\n 31174: a2 = u64 [sp + 1008]\n 31178: a3 = u64 [sp + 1000]\n 31182: a4 = s1 ^ a0\n 31185: a0 = s1 <u a0\n 31188: a5 = t0 <u a2\n 31191: a5 = a0 if a4 != 0\n 31194: t1 = s1\n 31196: s1 = u64 [sp + 496]\n 31200: a0 = s1 ^ a3\n 31203: a3 = s1 <u a3\n 31206: a1 = t2 <u a1\n 31209: a1 = a3 if a0 != 0\n 31212: a0 = t0 ^ a2\n 31215: a0 = a0 | a4\n 31218: a1 = a5 if a0 != 0\n 31221: jump @737 if a1 == 0\n      : @723 (gas: 31)\n 31225: ra = u64 [sp + 624]\n 31229: i64 ra = ra + t2\n 31232: a1 = ra <u t2\n 31235: a0 = u64 [sp + 584]\n 31239: i64 a0 = a0 + s1\n 31242: i64 a5 = a0 + a1\n 31245: a0 = a5 ^ s1\n 31248: a2 = a5 <u s1\n 31251: a3 = a1\n 31253: a3 = a2 if a0 != 0\n 31256: a4 = u64 [sp + 616]\n 31260: i64 a4 = a4 + t0\n 31263: i64 s1 = a4 + a3\n 31266: a3 = s1 <u a4\n 31269: a4 = a4 <u t0\n 31272: i64 a3 = a3 + a4\n 31275: a1 = a1 ^ 0x1\n 31278: a4 = u64 [sp + 576]\n 31282: i64 a4 = a4 + t1\n 31285: i64 a4 = a4 + a3\n 31288: a3 = s1 <u t0\n 31291: a2 = a2 ^ 0x1\n 31294: a1 = a2 if a0 != 0\n 31297: a0 = a4 ^ t1\n 31300: a2 = a4 <u t1\n 31303: a2 = a3 if a0 == 0\n 31306: a3 = s1 ^ t0\n 31309: a0 = a0 | a3\n 31312: a2 = a2 ^ 0x1\n 31315: a1 = a2 if a0 != 0\n 31318: jump @728 if a1 == 0\n      : @724 (gas: 23)\n 31322: u64 [sp + 448] = t1\n 31326: u64 [sp + 1048] = 0\n 31330: u64 [sp + 1040] = 0\n 31334: u64 [sp + 1032] = 0\n 31338: u64 [sp + 1024] = 2\n 31343: u64 [sp + 1016] = 0\n 31347: u64 [sp + 1008] = 0\n 31351: u64 [sp + 1000] = 0\n 31355: u64 [sp + 992] = 0\n 31359: u64 [sp + 976] = 0\n 31363: u64 [sp + 984] = 0\n 31367: u64 [sp + 968] = 0\n 31371: u64 [sp + 960] = 256\n 31377: a1 = sp + 0x400\n 31381: a3 = sp + 0x3e0\n 31385: u64 [sp + 456] = a4\n 31389: a4 = sp + 0x3c0\n 31393: a2 = 0xffffffff\n 31396: a0 = 0x0\n 31398: u64 [sp + 472] = ra\n 31402: u64 [sp + 464] = a5\n 31406: ecalli 5 // 'get_storage'\n 31408: fallthrough\n      : @725 (gas: 20)\n 31409: t1 = u64 [sp + 464]\n 31413: t0 = u64 [sp + 472]\n 31417: a0 = u64 [sp + 1016]\n 31421: a1 = u64 [sp + 992]\n 31425: a2 = u64 [sp + 1008]\n 31429: a3 = u64 [sp + 1000]\n 31433: ra = u64 [sp + 456]\n 31437: a4 = ra ^ a0\n 31440: a0 = a0 <u ra\n 31443: a5 = a2 <u s1\n 31446: a5 = a0 if a4 != 0\n 31449: a0 = t1 ^ a3\n 31452: a3 = a3 <u t1\n 31455: a1 = a1 <u t0\n 31458: a1 = a3 if a0 != 0\n 31461: a0 = s1 ^ a2\n 31464: a0 = a0 | a4\n 31467: a1 = a5 if a0 != 0\n 31470: t2 = s1\n 31472: jump @727 if a1 == 0\n      : @726 (gas: 23)\n 31475: u64 [sp + 1048] = 0\n 31479: u64 [sp + 1040] = 0\n 31483: u64 [sp + 1032] = 0\n 31487: u64 [sp + 1024] = 2\n 31492: u64 [sp + 1016] = 0\n 31496: u64 [sp + 1008] = 0\n 31500: u64 [sp + 1000] = 0\n 31504: u64 [sp + 992] = 0\n 31508: u64 [sp + 976] = 0\n 31512: u64 [sp + 984] = 0\n 31516: u64 [sp + 968] = 0\n 31520: u64 [sp + 960] = 256\n 31526: a1 = sp + 0x400\n 31530: a3 = sp + 0x3e0\n 31534: a4 = sp + 0x3c0\n 31538: a2 = 0xffffffff\n 31541: a0 = 0x0\n 31543: ecalli 5 // 'get_storage'\n 31545: ra = u64 [sp + 1016]\n 31549: t2 = u64 [sp + 1008]\n 31553: t1 = u64 [sp + 1000]\n 31557: t0 = u64 [sp + 992]\n 31561: fallthrough\n      : @727 (gas: 21)\n 31562: a0 = u64 [sp + 480]\n 31566: u64 [sp + 472] = t0\n 31570: a0 = t0 <u a0\n 31573: a4 = u64 [sp + 496]\n 31577: a2 = t1 ^ a4\n 31580: a1 = t1 <u a4\n 31583: u64 [sp + 352] = a2\n 31587: u64 [sp + 624] = a0\n 31591: a1 = a0 if a2 == 0\n 31594: a5 = u64 [sp + 488]\n 31598: a2 = t2 <u a5\n 31601: s1 = u64 [sp + 448]\n 31605: t0 = ra ^ s1\n 31608: a3 = ra <u s1\n 31611: a3 = a2 if t0 == 0\n 31614: a0 = t2 ^ a5\n 31617: u64 [sp + 344] = t0\n 31621: u64 [sp + 616] = a0\n 31625: t0 = a0 | t0\n 31628: a3 = a1 if t0 == 0\n 31631: jump @748 if a3 == 0\n      : @728 (gas: 3)\n 31635: a1 = 0x20\n 31638: a0 = 0x0\n 31640: ra = 508, jump @0\n      : @729 [@dyn 254] (gas: 1)\n 31646: jump @699 if a0 == 0\n      : @730 (gas: 2)\n 31650: s1 = u64 [sp + 632]\n 31654: fallthrough\n      : @731 (gas: 7)\n 31655: u64 [s1 + 24] = 0\n 31658: u64 [s1 + 16] = 0\n 31661: u64 [s1 + 8] = 0\n 31664: u64 [s1 + 0] = 1903904846\n 31670: a0 = 0x4\n 31673: a1 = 0x20\n 31676: ra = 510, jump @0\n      : @732 [@dyn 255] (gas: 1)\n 31682: jump @699 if a0 == 0\n      : @733 (gas: 2)\n 31686: a0 = 0x11000000\n 31692: fallthrough\n      : @734 (gas: 11)\n 31693: u32 [s1 + 32] = a0\n 31696: u32 [s1 + 28] = 0\n 31699: u32 [s1 + 24] = 0\n 31702: u32 [s1 + 20] = 0\n 31705: u32 [s1 + 16] = 0\n 31708: u32 [s1 + 12] = 0\n 31711: u32 [s1 + 8] = 0\n 31714: u32 [s1 + 4] = 0\n 31717: a1 = 0x24\n 31720: a0 = 0x0\n 31722: ra = 512, jump @0\n      : @735 [@dyn 256] (gas: 1)\n 31728: jump @699 if a0 == 0\n      : @736 (gas: 5)\n 31732: a1 = s1 + 0x0\n 31734: a0 = 0x1\n 31737: a2 = 0x24\n 31740: ecalli 11 // 'seal_return'\n 31742: fallthrough\n      : @737 (gas: 3)\n 31743: a0 = 0x40\n 31746: a1 = 0x20\n 31749: ra = 514, jump @0\n      : @738 [@dyn 257] (gas: 1)\n 31755: jump @699 if a0 == 0\n      : @739 (gas: 17)\n 31759: s1 = u64 [sp + 632]\n 31763: a0 = u64 [s1 + 72]\n 31766: a1 = u64 [s1 + 64]\n 31769: a2 = u64 [s1 + 80]\n 31772: a3 = u64 [s1 + 88]\n 31775: a5 = reverse a0\n 31777: t0 = reverse a1\n 31779: a4 = reverse a2\n 31781: a2 = reverse a3\n 31783: a0 = a4 | t0\n 31786: a1 = a2 | a5\n 31789: a1 = a1 | a0\n 31792: a1 = a1 >>64 32\n 31795: a0 = a0 | a5\n 31798: a0 = a0 <<64 32\n 31801: a0 = a0 | a1\n 31804: jump @699 if a0 != 0\n      : @740 (gas: 8)\n 31808: u64 [sp + 600] = t0\n 31812: u64 [sp + 608] = a5\n 31816: u64 [sp + 616] = a4\n 31820: u64 [sp + 624] = a2\n 31824: a0 = a2 + 0x0\n 31826: a1 = 0x20\n 31829: u64 [sp + 592] = a0\n 31833: ra = 516, jump @0\n      : @741 [@dyn 258] (gas: 1)\n 31839: jump @699 if a0 == 0\n      : @742 (gas: 48)\n 31843: a0 = u64 [sp + 592]\n 31847: i64 s1 = s1 + a0\n 31850: u8 [s1 + 31] = 0\n 31853: u8 [s1 + 30] = 0\n 31856: u8 [s1 + 29] = 0\n 31859: u8 [s1 + 28] = 0\n 31862: u8 [s1 + 27] = 0\n 31865: u8 [s1 + 26] = 0\n 31868: u8 [s1 + 25] = 0\n 31871: u8 [s1 + 24] = 0\n 31874: u8 [s1 + 23] = 0\n 31877: u8 [s1 + 22] = 0\n 31880: u8 [s1 + 21] = 0\n 31883: u8 [s1 + 20] = 0\n 31886: u8 [s1 + 19] = 0\n 31889: u8 [s1 + 18] = 0\n 31892: u8 [s1 + 17] = 0\n 31895: u8 [s1 + 16] = 0\n 31898: u8 [s1 + 15] = 0\n 31901: u8 [s1 + 14] = 0\n 31904: u8 [s1 + 13] = 0\n 31907: u8 [s1 + 12] = 0\n 31910: u8 [s1 + 11] = 0\n 31913: u8 [s1 + 10] = 0\n 31916: u8 [s1 + 9] = 0\n 31919: u8 [s1 + 8] = 0\n 31922: u8 [s1 + 7] = 0\n 31925: u8 [s1 + 6] = 0\n 31928: u8 [s1 + 5] = 0\n 31931: u8 [s1 + 4] = 0\n 31934: u8 [s1 + 3] = 160\n 31939: u8 [s1 + 2] = 121\n 31943: u8 [s1 + 1] = 195\n 31948: u8 [s1 + 0] = 8\n 31951: a0 = u64 [sp + 624]\n 31955: i64 a1 = i64 a0 + 0x4\n 31958: a0 = a1 <u a0\n 31961: a3 = u64 [sp + 616]\n 31965: i64 a2 = a3 + a0\n 31968: a3 = a2 <u a3\n 31971: a3 = a0 if a0 == 0\n 31974: a0 = u64 [sp + 608]\n 31978: i64 a3 = a3 + a0\n 31981: a4 = a3 <u a0\n 31984: a0 = u64 [sp + 600]\n 31988: i64 a4 = a4 + a0\n 31991: i64 a0 = i64 sp + 0x380\n 31995: ra = 518, jump @1615\n      : @743 [@dyn 259] (gas: 5)\n 32002: a1 = u64 [sp + 904]\n 32006: t0 = u64 [sp + 920]\n 32010: t1 = u64 [sp + 896]\n 32014: a3 = u64 [sp + 912]\n 32018: fallthrough\n      : @744 (gas: 27)\n 32019: a0 = u64 [sp + 616]\n 32023: a4 = a1 ^ a0\n 32026: a5 = a1 <u a0\n 32029: ra = a0\n 32031: t2 = u64 [sp + 624]\n 32035: a2 = t1 <u t2\n 32038: a5 = a2 if a4 == 0\n 32041: a0 = u64 [sp + 608]\n 32045: i64 a4 = i64 a3 - i64 a0\n 32048: a3 = a3 <u a0\n 32051: a0 = u64 [sp + 600]\n 32055: i64 a0 = i64 t0 - i64 a0\n 32058: i64 a0 = i64 a0 - i64 a3\n 32061: a3 = a4 <u a5\n 32064: i64 a0 = i64 a0 - i64 a3\n 32067: i64 a4 = i64 a4 - i64 a5\n 32070: i64 a1 = i64 a1 - i64 ra\n 32073: i64 a1 = i64 a1 - i64 a2\n 32076: a0 = a0 | a1\n 32079: i64 a1 = i64 t1 - i64 t2\n 32082: a1 = a1 | a4\n 32085: a1 = a1 | a0\n 32088: a0 = a0 | a4\n 32091: a1 = a1 >>64 32\n 32094: a0 = a0 <<64 32\n 32097: a0 = a0 | a1\n 32100: jump @699 if a0 != 0\n      : @745 (gas: 4)\n 32104: a1 = t1 - t2\n 32107: a0 = u64 [sp + 592]\n 32111: u64 [sp + 632] = a1\n 32115: ra = 520, jump @0\n      : @746 [@dyn 260] (gas: 1)\n 32121: jump @699 if a0 == 0\n      : @747 (gas: 6)\n 32125: a1 = s1 + 0x0\n 32127: a0 = 0x1\n 32130: a2 = u64 [sp + 632]\n 32134: ra = 0x20a\n 32138: ecalli 11 // 'seal_return'\n 32140: fallthrough\n      : @748 [@dyn 261] (gas: 13)\n 32141: i64 a3 = i64 t2 - i64 a5\n 32144: i64 a5 = i64 a3 - i64 a1\n 32147: a1 = a3 <u a1\n 32150: i64 a3 = i64 ra - i64 s1\n 32153: i64 a1 = a1 + a2\n 32156: i64 s1 = i64 a3 - i64 a1\n 32159: i64 a1 = i64 t1 - i64 a4\n 32162: a0 = u64 [sp + 624]\n 32166: i64 a2 = i64 a1 - i64 a0\n 32169: a0 = a5 | s1\n 32172: a1 = a2 <u 0x1\n 32175: a1 = 0 if a0 != 0\n 32177: jump @754 if a1 != 0\n      : @749 (gas: 3)\n 32180: a1 = 0x20\n 32183: a0 = 0x0\n 32185: ra = 524, jump @0\n      : @750 [@dyn 262] (gas: 1)\n 32191: jump @699 if a0 == 0\n      : @751 (gas: 8)\n 32195: s1 = u64 [sp + 632]\n 32199: u64 [s1 + 24] = 0\n 32202: u64 [s1 + 16] = 0\n 32205: u64 [s1 + 8] = 0\n 32208: u64 [s1 + 0] = 1903904846\n 32214: a0 = 0x4\n 32217: a1 = 0x20\n 32220: ra = 526, jump @0\n      : @752 [@dyn 263] (gas: 1)\n 32226: jump @699 if a0 == 0\n      : @753 (gas: 2)\n 32230: a0 = 0x41000000\n 32236: jump @734\n      : @754 (gas: 9)\n 32239: u64 [sp + 608] = a2\n 32243: u64 [sp + 624] = a5\n 32247: u64 [sp + 336] = t0\n 32251: u64 [sp + 456] = ra\n 32255: u64 [sp + 440] = t2\n 32259: u64 [sp + 464] = t1\n 32263: a0 = 0x40\n 32266: a1 = 0x20\n 32269: ra = 528, jump @0\n      : @755 [@dyn 264] (gas: 1)\n 32275: jump @699 if a0 == 0\n      : @756 (gas: 44)\n 32279: a0 = u64 [sp + 480]\n 32283: a1 = u64 [sp + 472]\n 32287: i64 a4 = i64 a1 - i64 a0\n 32290: a2 = u64 [sp + 624]\n 32294: a0 = a2 >>64 59\n 32297: u64 [sp + 600] = s1\n 32301: a1 = s1 <<64 5\n 32304: t0 = a1 | a0\n 32307: a3 = u64 [sp + 608]\n 32311: a0 = a3 >>64 59\n 32314: a1 = a2 <<64 5\n 32317: a2 = a1 | a0\n 32320: a0 = a4 >>64 59\n 32323: a1 = a3 <<64 5\n 32326: a1 = a1 | a0\n 32329: u64 [sp + 592] = a4\n 32333: a0 = a4 <<64 5\n 32336: i64 a4 = i64 a0 + 0x20\n 32339: u64 [sp + 400] = a0\n 32343: a0 = a4 <u a0\n 32346: i64 a5 = a1 + a0\n 32349: u64 [sp + 408] = a1\n 32353: t2 = a5 <u a1\n 32356: t2 = a0 if a0 == 0\n 32359: i64 t2 = t2 + a2\n 32362: u64 [sp + 416] = a2\n 32366: a0 = t2 <u a2\n 32369: u64 [sp + 424] = t0\n 32373: i64 t0 = t0 + a0\n 32376: a0 = u64 [sp + 632]\n 32380: a1 = u64 [a0 + 64]\n 32383: a2 = u64 [a0 + 72]\n 32386: t1 = u64 [a0 + 80]\n 32389: a0 = u64 [a0 + 88]\n 32392: a3 = reverse a1\n 32394: u64 [sp + 576] = a3\n 32398: s1 = reverse a2\n 32400: a1 = reverse t1\n 32402: u64 [sp + 568] = a1\n 32406: a0 = reverse a0\n 32408: u64 [sp + 560] = a0\n 32412: u64 [sp] = t0\n 32414: a2 = s1\n 32416: ra = 530, jump @119\n      : @757 [@dyn 265] (gas: 12)\n 32422: a2 = u64 [sp + 560]\n 32426: a1 = u64 [sp + 568]\n 32430: a0 = u64 [sp + 576]\n 32434: a0 = a0 | a1\n 32437: a1 = a2 | s1\n 32440: a1 = a1 | a0\n 32443: a1 = a1 >>64 32\n 32446: u64 [sp + 552] = s1\n 32450: a0 = a0 | s1\n 32453: a0 = a0 <<64 32\n 32456: a0 = a0 | a1\n 32459: jump @699 if a0 != 0\n      : @758 (gas: 4)\n 32463: s1 = a2 + 0x0\n 32465: a1 = 0x20\n 32468: a0 = s1\n 32470: ra = 532, jump @0\n      : @759 [@dyn 266] (gas: 1)\n 32476: jump @699 if a0 == 0\n      : @760 (gas: 82)\n 32480: a0 = u64 [sp + 632]\n 32484: u64 [sp + 328] = s1\n 32488: i64 a3 = a0 + s1\n 32491: a0 = u64 [sp + 592]\n 32495: a0 = reverse a0\n 32497: a1 = a0 >>64 56\n 32500: u8 [a3 + 31] = a1\n 32503: a1 = a0 >>64 48\n 32506: u8 [a3 + 30] = a1\n 32509: a1 = a0 >>64 40\n 32512: u8 [a3 + 29] = a1\n 32515: a1 = a0 >>64 32\n 32518: u8 [a3 + 28] = a1\n 32521: a1 = a0 >>64 24\n 32524: u8 [a3 + 27] = a1\n 32527: a1 = a0 >>64 16\n 32530: u8 [a3 + 26] = a1\n 32533: a1 = u64 [sp + 608]\n 32537: a1 = reverse a1\n 32539: u8 [a3 + 24] = a0\n 32542: a0 = a0 >>64 8\n 32545: u8 [a3 + 25] = a0\n 32548: a0 = a1 >>64 56\n 32551: u8 [a3 + 23] = a0\n 32554: a0 = a1 >>64 48\n 32557: u8 [a3 + 22] = a0\n 32560: a0 = a1 >>64 40\n 32563: u8 [a3 + 21] = a0\n 32566: a0 = a1 >>64 32\n 32569: u8 [a3 + 20] = a0\n 32572: a0 = a1 >>64 24\n 32575: u8 [a3 + 19] = a0\n 32578: a0 = a1 >>64 16\n 32581: u8 [a3 + 18] = a0\n 32584: a0 = u64 [sp + 624]\n 32588: a2 = reverse a0\n 32590: u8 [a3 + 16] = a1\n 32593: a1 = a1 >>64 8\n 32596: u8 [a3 + 17] = a1\n 32599: a0 = a2 >>64 56\n 32602: u8 [a3 + 15] = a0\n 32605: a0 = a2 >>64 48\n 32608: u8 [a3 + 14] = a0\n 32611: a0 = a2 >>64 40\n 32614: u8 [a3 + 13] = a0\n 32617: a0 = a2 >>64 32\n 32620: u8 [a3 + 12] = a0\n 32623: a0 = a2 >>64 24\n 32626: u8 [a3 + 11] = a0\n 32629: a0 = a2 >>64 16\n 32632: u8 [a3 + 10] = a0\n 32635: a0 = u64 [sp + 600]\n 32639: a0 = reverse a0\n 32641: u8 [a3 + 8] = a2\n 32644: a2 = a2 >>64 8\n 32647: u8 [a3 + 9] = a2\n 32650: a1 = a0 >>64 56\n 32653: u8 [a3 + 7] = a1\n 32656: a1 = a0 >>64 48\n 32659: u8 [a3 + 6] = a1\n 32662: a1 = a0 >>64 40\n 32665: u8 [a3 + 5] = a1\n 32668: a1 = a0 >>64 32\n 32671: u8 [a3 + 4] = a1\n 32674: a1 = a0 >>64 24\n 32677: u8 [a3 + 3] = a1\n 32680: a1 = a0 >>64 16\n 32683: u8 [a3 + 2] = a1\n 32686: a1 = u64 [sp + 480]\n 32690: a2 = u64 [sp + 472]\n 32694: a1 = a1 ^ a2\n 32697: a2 = u64 [sp + 616]\n 32701: a1 = a1 | a2\n 32704: a2 = u64 [sp + 352]\n 32708: a4 = u64 [sp + 344]\n 32712: a2 = a2 | a4\n 32715: a1 = a1 | a2\n 32718: u8 [a3] = a0\n 32720: a0 = a0 >>64 8\n 32723: u64 [sp + 320] = a3\n 32727: u8 [a3 + 1] = a0\n 32730: jump @795 if a1 != 0\n      : @761 (gas: 19)\n 32734: a0 = u64 [sp + 480]\n 32738: a1 = u64 [sp + 472]\n 32742: a0 = a0 <u a1\n 32745: a1 = u64 [sp + 496]\n 32749: a2 = u64 [sp + 464]\n 32753: a1 = a1 <u a2\n 32756: a2 = u64 [sp + 352]\n 32760: a1 = a0 if a2 == 0\n 32763: a0 = u64 [sp + 488]\n 32767: a2 = u64 [sp + 440]\n 32771: a0 = a0 <u a2\n 32774: a2 = u64 [sp + 448]\n 32778: a3 = u64 [sp + 456]\n 32782: a2 = a2 <u a3\n 32785: a3 = u64 [sp + 344]\n 32789: a2 = a0 if a3 == 0\n 32792: a0 = u64 [sp + 336]\n 32796: a2 = a1 if a0 == 0\n 32799: jump @774 if a2 == 0\n      : @762 (gas: 5)\n 32803: a5 = u64 [sp + 480]\n 32807: t1 = u64 [sp + 496]\n 32811: a0 = u64 [sp + 488]\n 32815: a2 = u64 [sp + 448]\n 32819: fallthrough\n      : @763 (gas: 13)\n 32820: u64 [sp + 600] = a5\n 32824: u64 [sp + 592] = a2\n 32828: u64 [sp + 584] = a0\n 32832: u64 [sp] = a0\n 32834: i64 a0 = i64 sp + 0x360\n 32838: a1 = 0x3\n 32841: u64 [sp + 8] = a2\n 32844: a2 = 0x0\n 32846: a3 = 0x0\n 32848: a4 = 0x0\n 32850: s1 = t1\n 32852: t2 = t1\n 32854: ra = 534, jump @191\n      : @764 [@dyn 267] (gas: 37)\n 32860: a0 = u64 [sp + 888]\n 32864: u64 [sp + 544] = a0\n 32868: a0 = u64 [sp + 880]\n 32872: u64 [sp + 536] = a0\n 32876: a4 = u64 [sp + 872]\n 32880: t1 = u64 [sp + 480]\n 32884: a3 = u64 [sp + 600]\n 32888: t0 = a3 <u t1\n 32891: ra = u64 [sp + 496]\n 32895: a1 = s1 ^ ra\n 32898: a5 = s1 <u ra\n 32901: a2 = s1\n 32903: a5 = t0 if a1 == 0\n 32906: t2 = u64 [sp + 488]\n 32910: a0 = u64 [sp + 584]\n 32914: i64 s1 = i64 a0 - i64 t2\n 32917: i64 a1 = i64 s1 - i64 a5\n 32920: u64 [sp + 624] = a1\n 32924: a5 = s1 <u a5\n 32927: a1 = a0 <u t2\n 32930: s1 = u64 [sp + 448]\n 32934: a0 = u64 [sp + 592]\n 32938: i64 s1 = i64 a0 - i64 s1\n 32941: i64 s1 = i64 s1 - i64 a1\n 32944: a1 = u64 [sp + 864]\n 32948: i64 s1 = i64 s1 - i64 a5\n 32951: u64 [sp + 504] = a2\n 32955: i64 a5 = i64 a2 - i64 ra\n 32958: i64 a0 = i64 a5 - i64 t0\n 32961: u64 [sp + 616] = a0\n 32965: i64 a0 = i64 a3 - i64 t1\n 32968: u64 [sp + 608] = a0\n 32972: i64 a0 = i64 sp + 0x340\n 32976: a2 = a4\n 32978: a3 = u64 [sp + 536]\n 32982: a4 = u64 [sp + 544]\n 32986: ra = 536, jump @1030\n      : @765 [@dyn 268] (gas: 20)\n 32992: a0 = u64 [sp + 856]\n 32996: u64 [sp + 512] = a0\n 33000: a0 = u64 [sp + 848]\n 33004: u64 [sp + 520] = a0\n 33008: a0 = u64 [sp + 840]\n 33012: u64 [sp + 528] = a0\n 33016: a0 = u64 [sp + 832]\n 33020: u64 [sp + 536] = a0\n 33024: u64 [sp + 544] = s1\n 33028: u64 [sp + 8] = s1\n 33031: i64 a0 = i64 sp + 0x320\n 33035: a1 = u64 [sp + 624]\n 33039: u64 [sp] = a1\n 33041: a1 = u64 [sp + 560]\n 33045: a2 = u64 [sp + 568]\n 33049: a3 = u64 [sp + 552]\n 33053: a4 = u64 [sp + 576]\n 33057: a5 = u64 [sp + 608]\n 33061: t2 = u64 [sp + 616]\n 33065: ra = 538, jump @1626\n      : @766 [@dyn 269] (gas: 12)\n 33072: a0 = u64 [sp + 816]\n 33076: a1 = u64 [sp + 824]\n 33080: a2 = u64 [sp + 808]\n 33084: s1 = u64 [sp + 800]\n 33088: a1 = a1 | a2\n 33091: a2 = s1 | a0\n 33094: a2 = a2 | a1\n 33097: a2 = a2 >>64 32\n 33100: a0 = a0 | a1\n 33103: a0 = a0 <<64 32\n 33106: a0 = a0 | a2\n 33109: jump @699 if a0 != 0\n      : @767 (gas: 4)\n 33113: s1 = s1 + 0x0\n 33115: a1 = 0x20\n 33118: a0 = s1\n 33120: ra = 540, jump @0\n      : @768 [@dyn 270] (gas: 1)\n 33127: jump @699 if a0 == 0\n      : @769 (gas: 82)\n 33131: a0 = u64 [sp + 632]\n 33135: i64 s1 = s1 + a0\n 33138: a0 = u64 [sp + 512]\n 33142: a0 = reverse a0\n 33144: a1 = u64 [sp + 520]\n 33148: a1 = reverse a1\n 33150: a2 = u64 [sp + 528]\n 33154: a2 = reverse a2\n 33156: a3 = u64 [sp + 536]\n 33160: a3 = reverse a3\n 33162: u8 [s1 + 24] = a3\n 33165: a4 = a3 >>64 56\n 33168: u8 [s1 + 31] = a4\n 33171: a4 = a3 >>64 48\n 33174: u8 [s1 + 30] = a4\n 33177: a4 = a3 >>64 40\n 33180: u8 [s1 + 29] = a4\n 33183: a4 = a3 >>64 32\n 33186: u8 [s1 + 28] = a4\n 33189: a4 = a3 >>64 24\n 33192: u8 [s1 + 27] = a4\n 33195: a4 = a3 >>64 16\n 33198: u8 [s1 + 26] = a4\n 33201: a3 = a3 >>64 8\n 33204: u8 [s1 + 25] = a3\n 33207: u8 [s1 + 16] = a2\n 33210: a3 = a2 >>64 56\n 33213: u8 [s1 + 23] = a3\n 33216: a3 = a2 >>64 48\n 33219: u8 [s1 + 22] = a3\n 33222: a3 = a2 >>64 40\n 33225: u8 [s1 + 21] = a3\n 33228: a3 = a2 >>64 32\n 33231: u8 [s1 + 20] = a3\n 33234: a3 = a2 >>64 24\n 33237: u8 [s1 + 19] = a3\n 33240: a3 = a2 >>64 16\n 33243: u8 [s1 + 18] = a3\n 33246: a2 = a2 >>64 8\n 33249: u8 [s1 + 17] = a2\n 33252: u8 [s1 + 8] = a1\n 33255: a2 = a1 >>64 56\n 33258: u8 [s1 + 15] = a2\n 33261: a2 = a1 >>64 48\n 33264: u8 [s1 + 14] = a2\n 33267: a2 = a1 >>64 40\n 33270: u8 [s1 + 13] = a2\n 33273: a2 = a1 >>64 32\n 33276: u8 [s1 + 12] = a2\n 33279: a2 = a1 >>64 24\n 33282: u8 [s1 + 11] = a2\n 33285: a2 = a1 >>64 16\n 33288: u8 [s1 + 10] = a2\n 33291: a1 = a1 >>64 8\n 33294: u8 [s1 + 9] = a1\n 33297: u8 [s1] = a0\n 33299: a1 = a0 >>64 56\n 33302: u8 [s1 + 7] = a1\n 33305: a1 = a0 >>64 48\n 33308: u8 [s1 + 6] = a1\n 33311: a1 = a0 >>64 40\n 33314: u8 [s1 + 5] = a1\n 33317: a1 = a0 >>64 32\n 33320: u8 [s1 + 4] = a1\n 33323: a1 = a0 >>64 24\n 33326: u8 [s1 + 3] = a1\n 33329: a1 = a0 >>64 16\n 33332: u8 [s1 + 2] = a1\n 33335: a0 = a0 >>64 8\n 33338: u8 [s1 + 1] = a0\n 33341: a0 = u64 [sp + 544]\n 33345: u64 [sp + 8] = a0\n 33348: i64 a0 = i64 sp + 0x300\n 33352: a1 = u64 [sp + 624]\n 33356: u64 [sp] = a1\n 33358: a1 = u64 [sp + 560]\n 33362: a2 = u64 [sp + 568]\n 33366: a3 = u64 [sp + 552]\n 33370: a4 = u64 [sp + 576]\n 33374: a5 = u64 [sp + 608]\n 33378: t2 = u64 [sp + 616]\n 33382: ra = 542, jump @1626\n      : @770 [@dyn 271] (gas: 12)\n 33389: a1 = u64 [sp + 792]\n 33393: a2 = u64 [sp + 784]\n 33397: a3 = u64 [sp + 776]\n 33401: a0 = u64 [sp + 768]\n 33405: a1 = a1 | a3\n 33408: a3 = a0 | a2\n 33411: a3 = a3 | a1\n 33414: a3 = a3 >>64 32\n 33417: a1 = a1 | a2\n 33420: a1 = a1 <<64 32\n 33423: a1 = a1 | a3\n 33426: jump @699 if a1 != 0\n      : @771 (gas: 3)\n 33430: a0 = a0 + 0x0\n 33432: a1 = 0x20\n 33435: ra = 544, jump @0\n      : @772 [@dyn 272] (gas: 1)\n 33442: jump @699 if a0 == 0\n      : @773 (gas: 28)\n 33446: a5 = u64 [sp + 600]\n 33450: i64 a5 = i64 a5 + 0x1\n 33453: a0 = a5 <u 0x1\n 33456: t1 = u64 [sp + 504]\n 33460: i64 t1 = t1 + a0\n 33463: a0 = a5 | t1\n 33466: a0 = a0 <u 0x1\n 33469: a1 = u64 [sp + 584]\n 33473: i64 a0 = a0 + a1\n 33476: a1 = a0 <u a1\n 33479: a2 = u64 [sp + 592]\n 33483: i64 a2 = a2 + a1\n 33486: a1 = u64 [sp + 472]\n 33490: a1 = a5 <u a1\n 33493: a3 = u64 [sp + 464]\n 33497: a4 = t1 ^ a3\n 33500: a3 = t1 <u a3\n 33503: a3 = a1 if a4 == 0\n 33506: a1 = u64 [sp + 440]\n 33510: t0 = a0 <u a1\n 33513: a4 = u64 [sp + 456]\n 33517: s1 = a2 ^ a4\n 33520: a4 = a2 <u a4\n 33523: a4 = t0 if s1 == 0\n 33526: a1 = a1 ^ a0\n 33529: a1 = a1 | s1\n 33532: a4 = a3 if a1 == 0\n 33535: jump @763 if a4 != 0\n      : @774 (gas: 3)\n 33539: a0 = 0x40\n 33542: a1 = 0x20\n 33545: ra = 546, jump @0\n      : @775 [@dyn 273] (gas: 1)\n 33552: jump @699 if a0 == 0\n      : @776 (gas: 21)\n 33556: a3 = u64 [sp + 632]\n 33560: a0 = u64 [a3 + 72]\n 33563: a1 = u64 [a3 + 64]\n 33566: a2 = u64 [a3 + 80]\n 33569: a3 = u64 [a3 + 88]\n 33572: a4 = reverse a0\n 33574: a5 = reverse a1\n 33576: a0 = reverse a2\n 33578: a1 = reverse a3\n 33580: u64 [sp + 56] = a0\n 33583: u64 [sp + 40] = a5\n 33586: a0 = a0 | a5\n 33589: u64 [sp + 64] = a1\n 33592: a1 = a1 | a4\n 33595: a1 = a1 | a0\n 33598: a1 = a1 >>64 32\n 33601: u64 [sp + 48] = a4\n 33604: a0 = a0 | a4\n 33607: a0 = a0 <<64 32\n 33610: a0 = a0 | a1\n 33613: jump @699 if a0 != 0\n      : @777 (gas: 5)\n 33617: a0 = i32 [sp + 64]\n 33620: a1 = 0x20\n 33623: s1 = 0x20\n 33626: u64 [sp + 32] = a0\n 33629: ra = 548, jump @0\n      : @778 [@dyn 274] (gas: 1)\n 33636: jump @699 if a0 == 0\n      : @779 (gas: 39)\n 33640: a0 = u64 [sp + 632]\n 33644: a1 = u64 [sp + 32]\n 33647: i64 a0 = a0 + a1\n 33650: u8 [a0 + 31] = s1\n 33653: u8 [a0 + 30] = 0\n 33656: u8 [a0 + 29] = 0\n 33659: u8 [a0 + 28] = 0\n 33662: u8 [a0 + 27] = 0\n 33665: u8 [a0 + 26] = 0\n 33668: u8 [a0 + 25] = 0\n 33671: u8 [a0 + 24] = 0\n 33674: u8 [a0 + 23] = 0\n 33677: u8 [a0 + 22] = 0\n 33680: u8 [a0 + 21] = 0\n 33683: u8 [a0 + 20] = 0\n 33686: u8 [a0 + 19] = 0\n 33689: u8 [a0 + 18] = 0\n 33692: u8 [a0 + 17] = 0\n 33695: u8 [a0 + 16] = 0\n 33698: u8 [a0 + 15] = 0\n 33701: u8 [a0 + 14] = 0\n 33704: u8 [a0 + 13] = 0\n 33707: u8 [a0 + 12] = 0\n 33710: u8 [a0 + 11] = 0\n 33713: u8 [a0 + 10] = 0\n 33716: u8 [a0 + 9] = 0\n 33719: u8 [a0 + 8] = 0\n 33722: u8 [a0 + 7] = 0\n 33725: u8 [a0 + 6] = 0\n 33728: u8 [a0 + 5] = 0\n 33731: u8 [a0 + 4] = 0\n 33734: u8 [a0 + 3] = 0\n 33737: u8 [a0 + 2] = 0\n 33740: u8 [a0 + 1] = 0\n 33743: u64 [sp + 24] = a0\n 33746: u8 [a0 + 0] = 0\n 33748: a1 = 0x20\n 33751: a0 = u64 [sp + 328]\n 33755: ra = 550, jump @0\n      : @780 [@dyn 275] (gas: 1)\n 33762: jump @782 if a0 != 0\n      : @781 (gas: 1)\n 33765: jump @699\n      : @782 (gas: 14)\n 33768: a4 = u64 [sp + 48]\n 33771: a0 = a4 >u 0x0\n 33773: a5 = u64 [sp + 40]\n 33776: a1 = a5 >u 0x0\n 33778: a1 = a0 if a5 == 0\n 33781: a0 = 0xffffffdf\n 33791: a2 = u64 [sp + 64]\n 33794: a0 = a0 <u a2\n 33797: a3 = u64 [sp + 56]\n 33800: a2 = a3 >u 0x0\n 33802: a2 = a0 if a3 == 0\n 33805: a0 = a4 | a5\n 33808: a2 = a1 if a0 != 0\n 33811: jump @784 if a2 == 0\n      : @783 (gas: 1)\n 33814: jump @699\n      : @784 (gas: 69)\n 33817: a0 = u64 [sp + 320]\n 33821: a1 = u8 [a0 + 24]\n 33824: u64 [sp + 368] = a1\n 33828: s1 = u8 [a0 + 25]\n 33831: a1 = u8 [a0 + 26]\n 33834: u64 [sp + 352] = a1\n 33838: a1 = u8 [a0 + 27]\n 33841: u64 [sp + 344] = a1\n 33845: a1 = u8 [a0 + 28]\n 33848: u64 [sp + 392] = a1\n 33852: a1 = u8 [a0 + 29]\n 33855: u64 [sp + 360] = a1\n 33859: a1 = u8 [a0 + 30]\n 33862: u64 [sp + 384] = a1\n 33866: a1 = u8 [a0 + 31]\n 33869: u64 [sp + 376] = a1\n 33873: a1 = u8 [a0 + 16]\n 33876: u64 [sp + 432] = a1\n 33880: a1 = u8 [a0 + 17]\n 33883: u64 [sp + 400] = a1\n 33887: a1 = u8 [a0 + 18]\n 33890: u64 [sp + 416] = a1\n 33894: a1 = u8 [a0 + 19]\n 33897: u64 [sp + 408] = a1\n 33901: a1 = u8 [a0 + 20]\n 33904: u64 [sp + 624] = a1\n 33908: a1 = u8 [a0 + 21]\n 33911: u64 [sp + 424] = a1\n 33915: a1 = u8 [a0 + 22]\n 33918: u64 [sp + 616] = a1\n 33922: a1 = u8 [a0 + 23]\n 33925: u64 [sp + 440] = a1\n 33929: a1 = u8 [a0 + 8]\n 33932: u64 [sp + 480] = a1\n 33936: a1 = u8 [a0 + 9]\n 33939: u64 [sp + 448] = a1\n 33943: a1 = u8 [a0 + 10]\n 33946: u64 [sp + 464] = a1\n 33950: a1 = u8 [a0 + 11]\n 33953: u64 [sp + 456] = a1\n 33957: a1 = u8 [a0 + 12]\n 33960: u64 [sp + 504] = a1\n 33964: a1 = u8 [a0 + 13]\n 33967: u64 [sp + 472] = a1\n 33971: a1 = u8 [a0 + 14]\n 33974: u64 [sp + 496] = a1\n 33978: a1 = u8 [a0 + 15]\n 33981: u64 [sp + 488] = a1\n 33985: a1 = u8 [a0]\n 33987: u64 [sp + 544] = a1\n 33991: a1 = u8 [a0 + 1]\n 33994: u64 [sp + 512] = a1\n 33998: a1 = u8 [a0 + 2]\n 34001: u64 [sp + 528] = a1\n 34005: a1 = u8 [a0 + 3]\n 34008: u64 [sp + 520] = a1\n 34012: a1 = u8 [a0 + 4]\n 34015: u64 [sp + 600] = a1\n 34019: a1 = u8 [a0 + 5]\n 34022: u64 [sp + 536] = a1\n 34026: a1 = u8 [a0 + 6]\n 34029: u64 [sp + 592] = a1\n 34033: a0 = u8 [a0 + 7]\n 34036: u64 [sp + 584] = a0\n 34040: a0 = u64 [sp + 32]\n 34043: a0 = a0 + 0x20\n 34046: a1 = 0x20\n 34049: u64 [sp + 608] = a0\n 34053: ra = 552, jump @0\n      : @785 [@dyn 276] (gas: 1)\n 34060: jump @787 if a0 != 0\n      : @786 (gas: 1)\n 34063: jump @699\n      : @787 (gas: 207)\n 34066: s1 = s1 <<64 8\n 34069: a0 = u64 [sp + 368]\n 34073: a0 = a0 | s1\n 34076: a1 = u64 [sp + 352]\n 34080: a1 = a1 <<64 16\n 34083: a2 = u64 [sp + 344]\n 34087: a2 = a2 <<64 24\n 34090: a1 = a1 | a2\n 34093: a0 = a0 | a1\n 34096: a1 = u64 [sp + 360]\n 34100: a1 = a1 <<64 8\n 34103: a2 = u64 [sp + 392]\n 34107: a1 = a1 | a2\n 34110: a2 = u64 [sp + 384]\n 34114: a2 = a2 <<64 16\n 34117: a3 = u64 [sp + 376]\n 34121: a3 = a3 <<64 24\n 34124: a2 = a2 | a3\n 34127: a1 = a1 | a2\n 34130: a1 = a1 <<64 32\n 34133: t2 = a1 | a0\n 34136: a1 = u64 [sp + 400]\n 34140: a1 = a1 <<64 8\n 34143: a0 = u64 [sp + 432]\n 34147: a1 = a1 | a0\n 34150: a2 = u64 [sp + 416]\n 34154: a2 = a2 <<64 16\n 34157: a3 = u64 [sp + 408]\n 34161: a3 = a3 <<64 24\n 34164: a2 = a2 | a3\n 34167: a1 = a1 | a2\n 34170: a2 = u64 [sp + 424]\n 34174: a2 = a2 <<64 8\n 34177: a0 = u64 [sp + 624]\n 34181: a2 = a2 | a0\n 34184: a3 = u64 [sp + 616]\n 34188: a3 = a3 <<64 16\n 34191: a4 = u64 [sp + 440]\n 34195: a4 = a4 <<64 24\n 34198: a3 = a3 | a4\n 34201: a2 = a2 | a3\n 34204: a2 = a2 <<64 32\n 34207: a1 = a1 | a2\n 34210: a3 = reverse a1\n 34212: u64 [sp + 128] = a3\n 34216: a4 = reverse t2\n 34218: a2 = a4 >>64 59\n 34221: a3 = a3 <<64 5\n 34224: a2 = a2 | a3\n 34227: a0 = u64 [sp + 64]\n 34230: i64 a5 = i64 a0 + 0x40\n 34233: u64 [sp + 88] = a4\n 34236: a3 = a4 <<64 5\n 34239: i64 a4 = a3 + a5\n 34242: u64 [sp + 624] = a4\n 34246: a4 = a4 <u a3\n 34249: u64 [sp + 120] = a5\n 34252: ra = a5 <u a0\n 34255: t0 = u64 [sp + 56]\n 34258: i64 a0 = t0 + ra\n 34261: i64 a5 = a2 + a0\n 34264: i64 a3 = a5 + a4\n 34267: a5 = a3 ^ a2\n 34270: u64 [sp + 616] = a3\n 34274: t1 = a3 <u a2\n 34277: t1 = a4 if a5 == 0\n 34280: a4 = u64 [sp + 448]\n 34284: a4 = a4 <<64 8\n 34287: a2 = u64 [sp + 480]\n 34291: a4 = a4 | a2\n 34294: a5 = u64 [sp + 464]\n 34298: a5 = a5 <<64 16\n 34301: s1 = u64 [sp + 456]\n 34305: s1 = s1 <<64 24\n 34308: a5 = a5 | s1\n 34311: a4 = a4 | a5\n 34314: a5 = u64 [sp + 472]\n 34318: a5 = a5 <<64 8\n 34321: a2 = u64 [sp + 504]\n 34325: a5 = a5 | a2\n 34328: s1 = u64 [sp + 496]\n 34332: s1 = s1 <<64 16\n 34335: a3 = u64 [sp + 488]\n 34339: a3 = a3 <<64 24\n 34342: a3 = a3 | s1\n 34345: a3 = a3 | a5\n 34348: a3 = a3 <<64 32\n 34351: a4 = a4 | a3\n 34354: a3 = u64 [sp + 512]\n 34358: a3 = a3 <<64 8\n 34361: a2 = u64 [sp + 544]\n 34365: a3 = a3 | a2\n 34368: a5 = u64 [sp + 528]\n 34372: a5 = a5 <<64 16\n 34375: s1 = u64 [sp + 520]\n 34379: s1 = s1 <<64 24\n 34382: a5 = a5 | s1\n 34385: a3 = a3 | a5\n 34388: a5 = u64 [sp + 536]\n 34392: a5 = a5 <<64 8\n 34395: a2 = u64 [sp + 600]\n 34399: a5 = a5 | a2\n 34402: s1 = u64 [sp + 592]\n 34406: s1 = s1 <<64 16\n 34409: a2 = u64 [sp + 584]\n 34413: a2 = a2 <<64 24\n 34416: a2 = a2 | s1\n 34419: a2 = a2 | a5\n 34422: a2 = a2 <<64 32\n 34425: a5 = a2 | a3\n 34428: s1 = u64 [sp + 632]\n 34432: a2 = u64 [sp + 608]\n 34436: i64 s1 = s1 + a2\n 34439: a2 = a5 >>64 56\n 34442: u8 [s1 + 7] = a2\n 34445: a2 = a5 >>64 48\n 34448: u8 [s1 + 6] = a2\n 34451: a2 = a5 >>64 40\n 34454: u8 [s1 + 5] = a2\n 34457: a2 = a5 >>64 32\n 34460: u8 [s1 + 4] = a2\n 34463: a2 = a5 >>64 24\n 34466: u8 [s1 + 3] = a2\n 34469: a2 = a5 >>64 16\n 34472: u8 [s1 + 2] = a2\n 34475: a2 = a5 >>64 8\n 34478: u8 [s1 + 1] = a2\n 34481: a2 = a4 >>64 56\n 34484: u8 [s1 + 15] = a2\n 34487: a2 = a4 >>64 48\n 34490: u8 [s1 + 14] = a2\n 34493: a2 = a4 >>64 40\n 34496: u8 [s1 + 13] = a2\n 34499: a2 = a4 >>64 32\n 34502: u8 [s1 + 12] = a2\n 34505: a2 = a4 >>64 24\n 34508: u8 [s1 + 11] = a2\n 34511: a2 = a4 >>64 16\n 34514: u8 [s1 + 10] = a2\n 34517: a2 = a4 >>64 8\n 34520: u8 [s1 + 9] = a2\n 34523: a2 = a1 >>64 56\n 34526: u8 [s1 + 23] = a2\n 34529: a2 = a1 >>64 48\n 34532: u8 [s1 + 22] = a2\n 34535: a2 = a1 >>64 40\n 34538: u8 [s1 + 21] = a2\n 34541: a2 = a1 >>64 32\n 34544: u8 [s1 + 20] = a2\n 34547: a2 = a1 >>64 24\n 34550: u8 [s1 + 19] = a2\n 34553: a2 = a1 >>64 16\n 34556: u8 [s1 + 18] = a2\n 34559: a2 = a1 >>64 8\n 34562: u8 [s1 + 17] = a2\n 34565: a2 = t2 >>64 56\n 34568: u8 [s1 + 31] = a2\n 34571: a2 = t2 >>64 48\n 34574: u8 [s1 + 30] = a2\n 34577: a2 = t2 >>64 40\n 34580: u8 [s1 + 29] = a2\n 34583: a2 = t2 >>64 32\n 34586: u8 [s1 + 28] = a2\n 34589: a2 = t2 >>64 24\n 34592: u8 [s1 + 27] = a2\n 34595: a2 = t2 >>64 16\n 34598: u8 [s1 + 26] = a2\n 34601: a2 = t2 >>64 8\n 34604: u8 [s1 + 25] = a2\n 34607: u8 [s1 + 8] = a4\n 34610: u8 [s1] = a5\n 34612: u8 [s1 + 16] = a1\n 34615: u8 [s1 + 24] = t2\n 34618: u64 [sp + 112] = a0\n 34621: a2 = a0 <u t0\n 34624: a2 = ra if ra == 0\n 34627: s1 = reverse a5\n 34629: a0 = reverse a4\n 34631: a3 = a0 >>64 59\n 34634: u64 [sp + 80] = s1\n 34637: s1 = s1 <<64 5\n 34640: t0 = s1 | a3\n 34643: s1 = u64 [sp + 128]\n 34647: s1 = s1 >>64 59\n 34650: u64 [sp + 72] = a0\n 34653: a0 = a0 <<64 5\n 34656: a0 = a0 | s1\n 34659: s1 = u64 [sp + 48]\n 34662: i64 a3 = s1 + a2\n 34665: a2 = a3 <u s1\n 34668: s1 = u64 [sp + 40]\n 34671: i64 s1 = s1 + a2\n 34674: u64 [sp + 104] = a3\n 34677: i64 a2 = a0 + a3\n 34680: a0 = a2 <u a0\n 34683: u64 [sp + 96] = s1\n 34686: i64 a3 = t0 + s1\n 34689: i64 a0 = a0 + a3\n 34692: a1 = a1 | a5\n 34695: a3 = a4 | t2\n 34698: a1 = a1 | a3\n 34701: i64 t1 = t1 + a2\n 34704: u64 [sp + 536] = t1\n 34708: a2 = t1 <u a2\n 34711: i64 a0 = a0 + a2\n 34714: u64 [sp + 528] = a0\n 34718: jump @847 if a1 != 0\n      : @788 (gas: 5)\n 34722: a0 = u64 [sp + 624]\n 34726: s1 = u64 [sp + 616]\n 34730: t0 = u64 [sp + 536]\n 34734: t2 = u64 [sp + 528]\n 34738: fallthrough\n      : @789 (gas: 27)\n 34739: ra = u64 [sp + 64]\n 34742: a5 = a0 <u ra\n 34745: t1 = a0\n 34747: a0 = u64 [sp + 56]\n 34750: a1 = s1 ^ a0\n 34753: a2 = s1 <u a0\n 34756: a2 = a5 if a1 == 0\n 34759: a3 = u64 [sp + 48]\n 34762: i64 a1 = i64 t0 - i64 a3\n 34765: a3 = t0 <u a3\n 34768: a4 = u64 [sp + 40]\n 34771: i64 a3 = a3 + a4\n 34774: i64 a3 = i64 t2 - i64 a3\n 34777: a4 = a1 <u a2\n 34780: i64 a3 = i64 a3 - i64 a4\n 34783: i64 a1 = i64 a1 - i64 a2\n 34786: i64 a0 = a0 + a5\n 34789: i64 a0 = i64 s1 - i64 a0\n 34792: a0 = a0 | a3\n 34795: i64 a2 = i64 t1 - i64 ra\n 34798: a2 = a2 | a1\n 34801: a2 = a2 | a0\n 34804: a0 = a0 | a1\n 34807: a2 = a2 >>64 32\n 34810: a0 = a0 <<64 32\n 34813: a0 = a0 | a2\n 34816: jump @791 if a0 == 0\n      : @790 (gas: 1)\n 34819: jump @699\n      : @791 (gas: 5)\n 34822: a0 = u64 [sp + 64]\n 34825: s1 = t1 - a0\n 34828: a0 = u64 [sp + 32]\n 34831: a1 = s1\n 34833: ra = 554, jump @0\n      : @792 [@dyn 277] (gas: 1)\n 34840: jump @794 if a0 != 0\n      : @793 (gas: 1)\n 34843: jump @699\n      : @794 (gas: 5)\n 34846: a1 = i32 [sp + 24]\n 34849: a0 = 0x0\n 34851: a2 = s1\n 34853: ecalli 11 // 'seal_return'\n 34855: fallthrough\n      : @795 (gas: 25)\n 34856: u64 [sp + 528] = 0\n 34860: u64 [sp + 536] = 0\n 34864: u64 [sp + 544] = 0\n 34868: u64 [sp + 584] = 0\n 34872: a0 = u64 [sp + 560]\n 34876: i64 a1 = i64 a0 + 0x20\n 34879: u64 [sp + 384] = a1\n 34883: a0 = a1 <u a0\n 34886: a1 = u64 [sp + 568]\n 34890: i64 a2 = a1 + a0\n 34893: u64 [sp + 376] = a2\n 34897: a1 = a2 <u a1\n 34900: a1 = a0 if a0 == 0\n 34903: a0 = u64 [sp + 552]\n 34907: i64 a1 = a1 + a0\n 34910: u64 [sp + 368] = a1\n 34914: a0 = a1 <u a0\n 34917: a1 = u64 [sp + 576]\n 34921: i64 a0 = a0 + a1\n 34924: u64 [sp + 360] = a0\n 34928: a0 = 0x100000000\n 34938: u64 [sp + 592] = a0\n 34942: a0 = 0xffffffe0\n 34952: u64 [sp + 392] = a0\n 34956: fallthrough\n      : @796 (gas: 3)\n 34957: a0 = 0x40\n 34960: a1 = 0x20\n 34963: ra = 556, jump @0\n      : @797 [@dyn 278] (gas: 1)\n 34970: jump @799 if a0 != 0\n      : @798 (gas: 1)\n 34973: jump @699\n      : @799 (gas: 22)\n 34976: a0 = u64 [sp + 632]\n 34980: a3 = u64 [a0 + 64]\n 34983: a2 = u64 [a0 + 72]\n 34986: a1 = u64 [a0 + 80]\n 34989: a0 = u64 [a0 + 88]\n 34992: u64 [sp + 432] = a3\n 34996: a3 = reverse a3\n 34998: u64 [sp + 608] = a3\n 35002: u64 [sp + 504] = a2\n 35006: s1 = reverse a2\n 35008: u64 [sp + 512] = a1\n 35012: a1 = reverse a1\n 35014: u64 [sp + 624] = a1\n 35018: u64 [sp + 520] = a0\n 35022: a0 = reverse a0\n 35024: u64 [sp + 616] = a0\n 35028: a4 = 0x100\n 35032: u64 [sp + 0] = 0\n 35034: a2 = s1\n 35036: a5 = 0x0\n 35038: t2 = 0x0\n 35040: ra = 558, jump @119\n      : @800 [@dyn 279] (gas: 12)\n 35047: a1 = u64 [sp + 624]\n 35051: a0 = u64 [sp + 608]\n 35055: a0 = a0 | a1\n 35058: a2 = u64 [sp + 616]\n 35062: a1 = a2 | s1\n 35065: a1 = a1 | a0\n 35068: a1 = a1 >>64 32\n 35071: u64 [sp + 600] = s1\n 35075: a0 = a0 | s1\n 35078: a0 = a0 <<64 32\n 35081: a0 = a0 | a1\n 35084: jump @802 if a0 == 0\n      : @801 (gas: 1)\n 35087: jump @699\n      : @802 (gas: 4)\n 35090: s1 = a2 + 0x0\n 35092: a1 = 0x20\n 35095: a0 = s1\n 35097: ra = 560, jump @0\n      : @803 [@dyn 280] (gas: 1)\n 35104: jump @805 if a0 != 0\n      : @804 (gas: 1)\n 35107: jump @699\n      : @805 (gas: 45)\n 35110: a0 = u64 [sp + 632]\n 35114: i64 a0 = a0 + s1\n 35117: u8 [a0 + 31] = 0\n 35120: u8 [a0 + 30] = 0\n 35123: u8 [a0 + 29] = 0\n 35126: u8 [a0 + 28] = 0\n 35129: u8 [a0 + 27] = 0\n 35132: u8 [a0 + 26] = 0\n 35135: u8 [a0 + 25] = 0\n 35138: u8 [a0 + 24] = 0\n 35141: u8 [a0 + 23] = 0\n 35144: u8 [a0 + 22] = 0\n 35147: u8 [a0 + 21] = 0\n 35150: u8 [a0 + 20] = 0\n 35153: u8 [a0 + 19] = 0\n 35156: u8 [a0 + 18] = 0\n 35159: u8 [a0 + 17] = 0\n 35162: u8 [a0 + 16] = 0\n 35165: u8 [a0 + 15] = 0\n 35168: u8 [a0 + 14] = 0\n 35171: u8 [a0 + 13] = 0\n 35174: u8 [a0 + 12] = 0\n 35177: u8 [a0 + 11] = 0\n 35180: u8 [a0 + 10] = 0\n 35183: u8 [a0 + 9] = 0\n 35186: u8 [a0 + 8] = 0\n 35189: u8 [a0 + 7] = 0\n 35192: u8 [a0 + 6] = 0\n 35195: u8 [a0 + 5] = 0\n 35198: u8 [a0 + 4] = 0\n 35201: u8 [a0 + 3] = 0\n 35204: u8 [a0 + 2] = 0\n 35207: u8 [a0 + 1] = 0\n 35210: a1 = u64 [sp + 608]\n 35214: a3 = u64 [sp + 600]\n 35218: a3 = a3 | a1\n 35221: a1 = u64 [sp + 392]\n 35225: a2 = u64 [sp + 616]\n 35229: a1 = a2 <u a1\n 35232: a2 = u64 [sp + 624]\n 35236: a1 = 0 if a2 != 0\n 35238: u64 [sp + 608] = a3\n 35242: a1 = 0 if a3 != 0\n 35244: u8 [a0 + 0] = 0\n 35246: jump @807 if a1 != 0\n      : @806 (gas: 1)\n 35249: jump @699\n      : @807 (gas: 5)\n 35252: u64 [sp + 600] = s1\n 35256: s1 = s1 + 0x20\n 35259: a1 = 0x20\n 35262: a0 = s1\n 35264: ra = 562, jump @0\n      : @808 [@dyn 281] (gas: 1)\n 35271: jump @810 if a0 != 0\n      : @809 (gas: 1)\n 35274: jump @699\n      : @810 (gas: 43)\n 35277: a0 = u64 [sp + 632]\n 35281: i64 s1 = s1 + a0\n 35284: u8 [s1 + 31] = 96\n 35288: u8 [s1 + 30] = 0\n 35291: u8 [s1 + 29] = 0\n 35294: u8 [s1 + 28] = 0\n 35297: u8 [s1 + 27] = 0\n 35300: u8 [s1 + 26] = 0\n 35303: u8 [s1 + 25] = 0\n 35306: u8 [s1 + 24] = 0\n 35309: u8 [s1 + 23] = 0\n 35312: u8 [s1 + 22] = 0\n 35315: u8 [s1 + 21] = 0\n 35318: u8 [s1 + 20] = 0\n 35321: u8 [s1 + 19] = 0\n 35324: u8 [s1 + 18] = 0\n 35327: u8 [s1 + 17] = 0\n 35330: u8 [s1 + 16] = 0\n 35333: u8 [s1 + 15] = 0\n 35336: u8 [s1 + 14] = 0\n 35339: u8 [s1 + 13] = 0\n 35342: u8 [s1 + 12] = 0\n 35345: u8 [s1 + 11] = 0\n 35348: u8 [s1 + 10] = 0\n 35351: u8 [s1 + 9] = 0\n 35354: u8 [s1 + 8] = 0\n 35357: u8 [s1 + 7] = 0\n 35360: u8 [s1 + 6] = 0\n 35363: u8 [s1 + 5] = 0\n 35366: u8 [s1 + 4] = 0\n 35369: u8 [s1 + 3] = 0\n 35372: u8 [s1 + 2] = 0\n 35375: u8 [s1 + 1] = 0\n 35378: a0 = u64 [sp + 592]\n 35382: i64 a0 = i64 a0 - i64 64\n 35385: a1 = u64 [sp + 616]\n 35389: a0 = a1 <u a0\n 35392: a1 = u64 [sp + 624]\n 35396: a0 = 0 if a1 != 0\n 35398: a1 = u64 [sp + 608]\n 35402: a0 = 0 if a1 != 0\n 35404: u8 [s1 + 0] = 0\n 35406: jump @812 if a0 != 0\n      : @811 (gas: 1)\n 35409: jump @699\n      : @812 (gas: 5)\n 35412: a0 = u64 [sp + 600]\n 35416: s1 = a0 + 0x40\n 35419: a1 = 0x20\n 35422: a0 = s1\n 35424: ra = 564, jump @0\n      : @813 [@dyn 282] (gas: 1)\n 35431: jump @815 if a0 != 0\n      : @814 (gas: 1)\n 35434: jump @699\n      : @815 (gas: 43)\n 35437: a0 = u64 [sp + 632]\n 35441: i64 s1 = s1 + a0\n 35444: u8 [s1 + 31] = 96\n 35448: u8 [s1 + 30] = 0\n 35451: u8 [s1 + 29] = 0\n 35454: u8 [s1 + 28] = 0\n 35457: u8 [s1 + 27] = 0\n 35460: u8 [s1 + 26] = 0\n 35463: u8 [s1 + 25] = 0\n 35466: u8 [s1 + 24] = 0\n 35469: u8 [s1 + 23] = 0\n 35472: u8 [s1 + 22] = 0\n 35475: u8 [s1 + 21] = 0\n 35478: u8 [s1 + 20] = 0\n 35481: u8 [s1 + 19] = 0\n 35484: u8 [s1 + 18] = 0\n 35487: u8 [s1 + 17] = 0\n 35490: u8 [s1 + 16] = 0\n 35493: u8 [s1 + 15] = 0\n 35496: u8 [s1 + 14] = 0\n 35499: u8 [s1 + 13] = 0\n 35502: u8 [s1 + 12] = 0\n 35505: u8 [s1 + 11] = 0\n 35508: u8 [s1 + 10] = 0\n 35511: u8 [s1 + 9] = 0\n 35514: u8 [s1 + 8] = 0\n 35517: u8 [s1 + 7] = 0\n 35520: u8 [s1 + 6] = 0\n 35523: u8 [s1 + 5] = 0\n 35526: u8 [s1 + 4] = 0\n 35529: u8 [s1 + 3] = 0\n 35532: u8 [s1 + 2] = 0\n 35535: u8 [s1 + 1] = 0\n 35538: a0 = u64 [sp + 592]\n 35542: i64 a0 = i64 a0 - i64 96\n 35545: a1 = u64 [sp + 616]\n 35549: a0 = a1 <u a0\n 35552: a1 = u64 [sp + 624]\n 35556: a0 = 0 if a1 != 0\n 35558: a1 = u64 [sp + 608]\n 35562: a0 = 0 if a1 != 0\n 35564: u8 [s1 + 0] = 0\n 35566: jump @817 if a0 != 0\n      : @816 (gas: 1)\n 35569: jump @699\n      : @817 (gas: 5)\n 35572: a0 = u64 [sp + 600]\n 35576: s1 = a0 + 0x60\n 35579: a1 = 0x20\n 35582: a0 = s1\n 35584: ra = 566, jump @0\n      : @818 [@dyn 283] (gas: 1)\n 35591: jump @820 if a0 != 0\n      : @819 (gas: 1)\n 35594: jump @699\n      : @820 (gas: 43)\n 35597: a0 = u64 [sp + 632]\n 35601: i64 s1 = s1 + a0\n 35604: u8 [s1 + 31] = 0\n 35607: u8 [s1 + 30] = 0\n 35610: u8 [s1 + 29] = 0\n 35613: u8 [s1 + 28] = 0\n 35616: u8 [s1 + 27] = 0\n 35619: u8 [s1 + 26] = 0\n 35622: u8 [s1 + 25] = 0\n 35625: u8 [s1 + 24] = 0\n 35628: u8 [s1 + 23] = 0\n 35631: u8 [s1 + 22] = 0\n 35634: u8 [s1 + 21] = 0\n 35637: u8 [s1 + 20] = 0\n 35640: u8 [s1 + 19] = 0\n 35643: u8 [s1 + 18] = 0\n 35646: u8 [s1 + 17] = 0\n 35649: u8 [s1 + 16] = 0\n 35652: u8 [s1 + 15] = 0\n 35655: u8 [s1 + 14] = 0\n 35658: u8 [s1 + 13] = 0\n 35661: u8 [s1 + 12] = 0\n 35664: u8 [s1 + 11] = 0\n 35667: u8 [s1 + 10] = 0\n 35670: u8 [s1 + 9] = 0\n 35673: u8 [s1 + 8] = 0\n 35676: u8 [s1 + 7] = 0\n 35679: u8 [s1 + 6] = 0\n 35682: u8 [s1 + 5] = 0\n 35685: u8 [s1 + 4] = 0\n 35688: u8 [s1 + 3] = 0\n 35691: u8 [s1 + 2] = 0\n 35694: u8 [s1 + 1] = 0\n 35697: a0 = u64 [sp + 592]\n 35701: i64 a0 = i64 a0 - i64 128\n 35704: a1 = u64 [sp + 616]\n 35708: a0 = a1 <u a0\n 35711: a1 = u64 [sp + 624]\n 35715: a0 = 0 if a1 != 0\n 35717: a1 = u64 [sp + 608]\n 35721: a0 = 0 if a1 != 0\n 35723: u8 [s1 + 0] = 0\n 35725: jump @822 if a0 != 0\n      : @821 (gas: 1)\n 35728: jump @699\n      : @822 (gas: 5)\n 35731: a0 = u64 [sp + 600]\n 35735: s1 = a0 + 0x80\n 35739: a1 = 0x20\n 35742: a0 = s1\n 35744: ra = 568, jump @0\n      : @823 [@dyn 284] (gas: 1)\n 35751: jump @825 if a0 != 0\n      : @824 (gas: 1)\n 35754: jump @699\n      : @825 (gas: 43)\n 35757: a0 = u64 [sp + 632]\n 35761: i64 s1 = s1 + a0\n 35764: u8 [s1 + 31] = 0\n 35767: u8 [s1 + 30] = 0\n 35770: u8 [s1 + 29] = 0\n 35773: u8 [s1 + 28] = 0\n 35776: u8 [s1 + 27] = 0\n 35779: u8 [s1 + 26] = 0\n 35782: u8 [s1 + 25] = 0\n 35785: u8 [s1 + 24] = 0\n 35788: u8 [s1 + 23] = 0\n 35791: u8 [s1 + 22] = 0\n 35794: u8 [s1 + 21] = 0\n 35797: u8 [s1 + 20] = 0\n 35800: u8 [s1 + 19] = 0\n 35803: u8 [s1 + 18] = 0\n 35806: u8 [s1 + 17] = 0\n 35809: u8 [s1 + 16] = 0\n 35812: u8 [s1 + 15] = 0\n 35815: u8 [s1 + 14] = 0\n 35818: u8 [s1 + 13] = 0\n 35821: u8 [s1 + 12] = 0\n 35824: u8 [s1 + 11] = 0\n 35827: u8 [s1 + 10] = 0\n 35830: u8 [s1 + 9] = 0\n 35833: u8 [s1 + 8] = 0\n 35836: u8 [s1 + 7] = 0\n 35839: u8 [s1 + 6] = 0\n 35842: u8 [s1 + 5] = 0\n 35845: u8 [s1 + 4] = 0\n 35848: u8 [s1 + 3] = 0\n 35851: u8 [s1 + 2] = 0\n 35854: u8 [s1 + 1] = 0\n 35857: a0 = u64 [sp + 592]\n 35861: i64 a0 = i64 a0 - i64 160\n 35865: a1 = u64 [sp + 616]\n 35869: a0 = a1 <u a0\n 35872: a1 = u64 [sp + 624]\n 35876: a0 = 0 if a1 != 0\n 35878: a1 = u64 [sp + 608]\n 35882: a0 = 0 if a1 != 0\n 35884: u8 [s1 + 0] = 0\n 35886: jump @827 if a0 != 0\n      : @826 (gas: 1)\n 35889: jump @699\n      : @827 (gas: 5)\n 35892: a0 = u64 [sp + 600]\n 35896: s1 = a0 + 0xa0\n 35900: a1 = 0x20\n 35903: a0 = s1\n 35905: ra = 570, jump @0\n      : @828 [@dyn 285] (gas: 1)\n 35912: jump @830 if a0 != 0\n      : @829 (gas: 1)\n 35915: jump @699\n      : @830 (gas: 43)\n 35918: a0 = u64 [sp + 632]\n 35922: i64 s1 = s1 + a0\n 35925: u8 [s1 + 31] = 0\n 35928: u8 [s1 + 30] = 0\n 35931: u8 [s1 + 29] = 0\n 35934: u8 [s1 + 28] = 0\n 35937: u8 [s1 + 27] = 0\n 35940: u8 [s1 + 26] = 0\n 35943: u8 [s1 + 25] = 0\n 35946: u8 [s1 + 24] = 0\n 35949: u8 [s1 + 23] = 0\n 35952: u8 [s1 + 22] = 0\n 35955: u8 [s1 + 21] = 0\n 35958: u8 [s1 + 20] = 0\n 35961: u8 [s1 + 19] = 0\n 35964: u8 [s1 + 18] = 0\n 35967: u8 [s1 + 17] = 0\n 35970: u8 [s1 + 16] = 0\n 35973: u8 [s1 + 15] = 0\n 35976: u8 [s1 + 14] = 0\n 35979: u8 [s1 + 13] = 0\n 35982: u8 [s1 + 12] = 0\n 35985: u8 [s1 + 11] = 0\n 35988: u8 [s1 + 10] = 0\n 35991: u8 [s1 + 9] = 0\n 35994: u8 [s1 + 8] = 0\n 35997: u8 [s1 + 7] = 0\n 36000: u8 [s1 + 6] = 0\n 36003: u8 [s1 + 5] = 0\n 36006: u8 [s1 + 4] = 0\n 36009: u8 [s1 + 3] = 0\n 36012: u8 [s1 + 2] = 0\n 36015: u8 [s1 + 1] = 0\n 36018: a0 = u64 [sp + 592]\n 36022: i64 a0 = i64 a0 - i64 192\n 36026: a1 = u64 [sp + 616]\n 36030: a0 = a1 <u a0\n 36033: a1 = u64 [sp + 624]\n 36037: a0 = 0 if a1 != 0\n 36039: a1 = u64 [sp + 608]\n 36043: a0 = 0 if a1 != 0\n 36045: u8 [s1 + 0] = 0\n 36047: jump @832 if a0 != 0\n      : @831 (gas: 1)\n 36050: jump @699\n      : @832 (gas: 5)\n 36053: a0 = u64 [sp + 600]\n 36057: s1 = a0 + 0xc0\n 36061: a1 = 0x20\n 36064: a0 = s1\n 36066: ra = 572, jump @0\n      : @833 [@dyn 286] (gas: 1)\n 36073: jump @835 if a0 != 0\n      : @834 (gas: 1)\n 36076: jump @699\n      : @835 (gas: 43)\n 36079: a0 = u64 [sp + 592]\n 36083: i64 a0 = i64 a0 - i64 224\n 36087: a1 = u64 [sp + 616]\n 36091: a0 = a1 <u a0\n 36094: a1 = u64 [sp + 632]\n 36098: i64 s1 = s1 + a1\n 36101: u8 [s1 + 31] = 0\n 36104: u8 [s1 + 30] = 0\n 36107: u8 [s1 + 29] = 0\n 36110: u8 [s1 + 28] = 0\n 36113: u8 [s1 + 27] = 0\n 36116: u8 [s1 + 26] = 0\n 36119: u8 [s1 + 25] = 0\n 36122: u8 [s1 + 24] = 0\n 36125: u8 [s1 + 23] = 0\n 36128: u8 [s1 + 22] = 0\n 36131: u8 [s1 + 21] = 0\n 36134: u8 [s1 + 20] = 0\n 36137: u8 [s1 + 19] = 0\n 36140: u8 [s1 + 18] = 0\n 36143: u8 [s1 + 17] = 0\n 36146: u8 [s1 + 16] = 0\n 36149: u8 [s1 + 15] = 0\n 36152: u8 [s1 + 14] = 0\n 36155: u8 [s1 + 13] = 0\n 36158: u8 [s1 + 12] = 0\n 36161: u8 [s1 + 11] = 0\n 36164: u8 [s1 + 10] = 0\n 36167: u8 [s1 + 9] = 0\n 36170: u8 [s1 + 8] = 0\n 36173: u8 [s1 + 7] = 0\n 36176: u8 [s1 + 6] = 0\n 36179: u8 [s1 + 5] = 0\n 36182: u8 [s1 + 4] = 0\n 36185: u8 [s1 + 3] = 0\n 36188: u8 [s1 + 2] = 0\n 36191: u8 [s1 + 1] = 0\n 36194: a1 = u64 [sp + 624]\n 36198: a0 = 0 if a1 != 0\n 36200: a1 = u64 [sp + 608]\n 36204: a0 = 0 if a1 != 0\n 36206: u8 [s1 + 0] = 0\n 36208: jump @837 if a0 != 0\n      : @836 (gas: 1)\n 36211: jump @699\n      : @837 (gas: 5)\n 36214: a0 = u64 [sp + 600]\n 36218: a0 = a0 + 0xe0\n 36222: a1 = 0x20\n 36225: u64 [sp + 624] = a0\n 36229: ra = 574, jump @0\n      : @838 [@dyn 287] (gas: 1)\n 36236: jump @840 if a0 != 0\n      : @839 (gas: 1)\n 36239: jump @699\n      : @840 (gas: 65)\n 36242: t0 = u64 [sp + 384]\n 36246: t1 = u64 [sp + 528]\n 36250: i64 a0 = t0 + t1\n 36253: a1 = a0 <u t0\n 36256: a4 = u64 [sp + 376]\n 36260: a2 = u64 [sp + 536]\n 36264: i64 a2 = a2 + a4\n 36267: i64 a2 = a2 + a1\n 36270: a3 = a2 ^ a4\n 36273: a4 = a2 <u a4\n 36276: a4 = a1 if a3 == 0\n 36279: a3 = u64 [sp + 368]\n 36283: a1 = u64 [sp + 544]\n 36287: i64 a1 = a1 + a3\n 36290: a3 = a1 <u a3\n 36293: a5 = u64 [sp + 584]\n 36297: s1 = u64 [sp + 360]\n 36301: i64 a5 = a5 + s1\n 36304: i64 a3 = a3 + a5\n 36307: i64 a4 = a4 + a1\n 36310: a1 = a4 <u a1\n 36313: i64 a1 = a1 + a3\n 36316: a1 = a1 | a2\n 36319: a0 = a0 | a4\n 36322: a0 = a0 | a1\n 36325: a1 = a1 | a4\n 36328: a0 = a0 >>64 32\n 36331: a1 = a1 <<64 32\n 36334: a0 = a0 | a1\n 36337: a1 = u64 [sp + 632]\n 36341: s1 = u64 [sp + 624]\n 36345: i64 s1 = s1 + a1\n 36348: u8 [s1 + 31] = 0\n 36351: u8 [s1 + 30] = 0\n 36354: u8 [s1 + 29] = 0\n 36357: u8 [s1 + 28] = 0\n 36360: u8 [s1 + 27] = 0\n 36363: u8 [s1 + 26] = 0\n 36366: u8 [s1 + 25] = 0\n 36369: u8 [s1 + 24] = 0\n 36372: u8 [s1 + 23] = 0\n 36375: u8 [s1 + 22] = 0\n 36378: u8 [s1 + 21] = 0\n 36381: u8 [s1 + 20] = 0\n 36384: u8 [s1 + 19] = 0\n 36387: u8 [s1 + 18] = 0\n 36390: u8 [s1 + 17] = 0\n 36393: u8 [s1 + 16] = 0\n 36396: u8 [s1 + 15] = 0\n 36399: u8 [s1 + 14] = 0\n 36402: u8 [s1 + 13] = 0\n 36405: u8 [s1 + 12] = 0\n 36408: u8 [s1 + 11] = 0\n 36411: u8 [s1 + 10] = 0\n 36414: u8 [s1 + 9] = 0\n 36417: u8 [s1 + 8] = 0\n 36420: u8 [s1 + 7] = 0\n 36423: u8 [s1 + 6] = 0\n 36426: u8 [s1 + 5] = 0\n 36429: u8 [s1 + 4] = 0\n 36432: u8 [s1 + 3] = 0\n 36435: u8 [s1 + 2] = 0\n 36438: u8 [s1 + 1] = 0\n 36441: u8 [s1 + 0] = 0\n 36443: jump @842 if a0 == 0\n      : @841 (gas: 1)\n 36446: jump @699\n      : @842 (gas: 5)\n 36449: a0 = t0 + t1\n 36452: a1 = 0x20\n 36455: u64 [sp + 624] = a0\n 36459: s1 = t1\n 36461: ra = 576, jump @0\n      : @843 [@dyn 288] (gas: 1)\n 36468: jump @845 if a0 != 0\n      : @844 (gas: 1)\n 36471: jump @699\n      : @845 (gas: 98)\n 36474: i64 t0 = i64 s1 + 0x20\n 36477: a2 = t0 <u s1\n 36480: a0 = u64 [sp + 536]\n 36484: i64 t1 = a0 + a2\n 36487: a3 = t1 <u a0\n 36490: a3 = a2 if a2 == 0\n 36493: a0 = u64 [sp + 544]\n 36497: i64 a2 = a0 + a3\n 36500: a3 = a2 <u a0\n 36503: a5 = u64 [sp + 584]\n 36507: i64 a5 = a5 + a3\n 36510: a0 = u64 [sp + 400]\n 36514: a4 = t0 <u a0\n 36517: a0 = u64 [sp + 408]\n 36521: a1 = t1 ^ a0\n 36524: a3 = t1 <u a0\n 36527: a3 = a4 if a1 == 0\n 36530: a4 = u64 [sp + 416]\n 36534: s1 = a2 <u a4\n 36537: a0 = u64 [sp + 424]\n 36541: a1 = a5 ^ a0\n 36544: u64 [sp + 584] = a5\n 36548: a0 = a5 <u a0\n 36551: a0 = s1 if a1 == 0\n 36554: a4 = a4 ^ a2\n 36557: a4 = a4 | a1\n 36560: a3 = a0 if a4 != 0\n 36563: a0 = u64 [sp + 632]\n 36567: s1 = u64 [sp + 624]\n 36571: i64 s1 = s1 + a0\n 36574: a1 = u64 [sp + 432]\n 36578: a0 = a1 >>64 56\n 36581: u8 [s1 + 7] = a0\n 36584: a0 = a1 >>64 48\n 36587: u8 [s1 + 6] = a0\n 36590: a0 = a1 >>64 40\n 36593: u8 [s1 + 5] = a0\n 36596: a0 = a1 >>64 32\n 36599: u8 [s1 + 4] = a0\n 36602: a0 = a1 >>64 24\n 36605: u8 [s1 + 3] = a0\n 36608: a0 = a1 >>64 16\n 36611: u8 [s1 + 2] = a0\n 36614: a0 = a1 >>64 8\n 36617: u8 [s1 + 1] = a0\n 36620: u8 [s1] = a1\n 36622: a1 = u64 [sp + 504]\n 36626: a0 = a1 >>64 56\n 36629: u8 [s1 + 15] = a0\n 36632: a0 = a1 >>64 48\n 36635: u8 [s1 + 14] = a0\n 36638: a0 = a1 >>64 40\n 36641: u8 [s1 + 13] = a0\n 36644: a0 = a1 >>64 32\n 36647: u8 [s1 + 12] = a0\n 36650: a0 = a1 >>64 24\n 36653: u8 [s1 + 11] = a0\n 36656: a0 = a1 >>64 16\n 36659: u8 [s1 + 10] = a0\n 36662: u8 [s1 + 8] = a1\n 36665: a0 = a1 >>64 8\n 36668: u8 [s1 + 9] = a0\n 36671: a1 = u64 [sp + 512]\n 36675: a0 = a1 >>64 56\n 36678: u8 [s1 + 23] = a0\n 36681: a0 = a1 >>64 48\n 36684: u8 [s1 + 22] = a0\n 36687: a0 = a1 >>64 40\n 36690: u8 [s1 + 21] = a0\n 36693: a0 = a1 >>64 32\n 36696: u8 [s1 + 20] = a0\n 36699: a0 = a1 >>64 24\n 36702: u8 [s1 + 19] = a0\n 36705: a0 = a1 >>64 16\n 36708: u8 [s1 + 18] = a0\n 36711: u8 [s1 + 16] = a1\n 36714: a0 = a1 >>64 8\n 36717: u8 [s1 + 17] = a0\n 36720: a1 = u64 [sp + 520]\n 36724: a0 = a1 >>64 56\n 36727: u8 [s1 + 31] = a0\n 36730: a0 = a1 >>64 48\n 36733: u8 [s1 + 30] = a0\n 36736: a0 = a1 >>64 40\n 36739: u8 [s1 + 29] = a0\n 36742: a0 = a1 >>64 32\n 36745: u8 [s1 + 28] = a0\n 36748: a0 = a1 >>64 24\n 36751: u8 [s1 + 27] = a0\n 36754: a0 = a1 >>64 16\n 36757: u8 [s1 + 26] = a0\n 36760: u8 [s1 + 24] = a1\n 36763: a0 = a1 >>64 8\n 36766: u8 [s1 + 25] = a0\n 36769: u64 [sp + 528] = t0\n 36773: u64 [sp + 536] = t1\n 36777: u64 [sp + 544] = a2\n 36781: jump @796 if a3 != 0\n      : @846 (gas: 1)\n 36785: jump @761\n      : @847 (gas: 13)\n 36788: u64 [sp + 192] = 0\n 36792: t1 = 0x0\n 36794: a2 = 0x0\n 36796: u64 [sp + 184] = 0\n 36800: a0 = 0x100000000\n 36810: u64 [sp + 608] = a0\n 36814: a0 = 0xffffffe0\n 36824: u64 [sp + 504] = a0\n 36828: a3 = u64 [sp + 120]\n 36831: ra = u64 [sp + 112]\n 36834: a5 = u64 [sp + 104]\n 36837: a1 = u64 [sp + 96]\n 36840: fallthrough\n      : @848 (gas: 13)\n 36841: u64 [sp + 160] = a2\n 36845: u64 [sp + 176] = t1\n 36849: a0 = a3 | a5\n 36852: u64 [sp + 168] = a1\n 36856: u64 [sp + 144] = ra\n 36860: a1 = ra | a1\n 36863: a0 = a0 | a1\n 36866: a0 = a0 >>64 32\n 36869: u64 [sp + 152] = a5\n 36873: a1 = a1 | a5\n 36876: a1 = a1 <<64 32\n 36879: a0 = a0 | a1\n 36882: jump @850 if a0 == 0\n      : @849 (gas: 1)\n 36885: jump @699\n      : @850 (gas: 5)\n 36888: u64 [sp + 136] = a3\n 36892: s1 = a3 + 0x0\n 36894: a1 = 0x20\n 36897: a0 = s1\n 36899: ra = 578, jump @0\n      : @851 [@dyn 289] (gas: 1)\n 36906: jump @853 if a0 != 0\n      : @852 (gas: 1)\n 36909: jump @699\n      : @853 (gas: 98)\n 36912: t1 = u64 [sp + 120]\n 36915: t2 = u64 [sp + 624]\n 36919: ra = t2 <u t1\n 36922: a0 = u64 [sp + 112]\n 36925: a3 = u64 [sp + 616]\n 36929: a4 = a3 ^ a0\n 36932: a1 = a3 <u a0\n 36935: a1 = ra if a4 == 0\n 36938: a4 = u64 [sp + 104]\n 36941: a2 = u64 [sp + 536]\n 36945: i64 a5 = i64 a2 - i64 a4\n 36948: i64 t0 = i64 a5 - i64 a1\n 36951: a1 = a5 <u a1\n 36954: a5 = a2 <u a4\n 36957: a4 = u64 [sp + 96]\n 36960: a2 = u64 [sp + 528]\n 36964: i64 a4 = i64 a2 - i64 a4\n 36967: i64 a4 = i64 a4 - i64 a5\n 36970: i64 a1 = i64 a4 - i64 a1\n 36973: i64 a3 = i64 a3 - i64 a0\n 36976: i64 a3 = i64 a3 - i64 ra\n 36979: i64 a2 = i64 t2 - i64 t1\n 36982: a4 = u64 [sp + 632]\n 36986: i64 s1 = s1 + a4\n 36989: a2 = reverse a2\n 36991: a4 = a2 >>64 56\n 36994: u8 [s1 + 31] = a4\n 36997: a4 = a2 >>64 48\n 37000: u8 [s1 + 30] = a4\n 37003: a4 = a2 >>64 40\n 37006: u8 [s1 + 29] = a4\n 37009: a4 = a2 >>64 32\n 37012: u8 [s1 + 28] = a4\n 37015: a4 = a2 >>64 24\n 37018: u8 [s1 + 27] = a4\n 37021: a4 = a2 >>64 16\n 37024: u8 [s1 + 26] = a4\n 37027: a3 = reverse a3\n 37029: u8 [s1 + 24] = a2\n 37032: a2 = a2 >>64 8\n 37035: u8 [s1 + 25] = a2\n 37038: a2 = a3 >>64 56\n 37041: u8 [s1 + 23] = a2\n 37044: a2 = a3 >>64 48\n 37047: u8 [s1 + 22] = a2\n 37050: a2 = a3 >>64 40\n 37053: u8 [s1 + 21] = a2\n 37056: a2 = a3 >>64 32\n 37059: u8 [s1 + 20] = a2\n 37062: a2 = a3 >>64 24\n 37065: u8 [s1 + 19] = a2\n 37068: a2 = a3 >>64 16\n 37071: u8 [s1 + 18] = a2\n 37074: a1 = reverse a1\n 37076: a0 = reverse t0\n 37078: u8 [s1 + 16] = a3\n 37081: a3 = a3 >>64 8\n 37084: u8 [s1 + 17] = a3\n 37087: u8 [s1 + 8] = a0\n 37090: a2 = a0 >>64 56\n 37093: u8 [s1 + 15] = a2\n 37096: a2 = a0 >>64 48\n 37099: u8 [s1 + 14] = a2\n 37102: a2 = a0 >>64 40\n 37105: u8 [s1 + 13] = a2\n 37108: a2 = a0 >>64 32\n 37111: u8 [s1 + 12] = a2\n 37114: a2 = a0 >>64 24\n 37117: u8 [s1 + 11] = a2\n 37120: a2 = a0 >>64 16\n 37123: u8 [s1 + 10] = a2\n 37126: a0 = a0 >>64 8\n 37129: u8 [s1 + 9] = a0\n 37132: a0 = a1 >>64 56\n 37135: u8 [s1 + 7] = a0\n 37138: a0 = a1 >>64 48\n 37141: u8 [s1 + 6] = a0\n 37144: a0 = a1 >>64 40\n 37147: u8 [s1 + 5] = a0\n 37150: a0 = a1 >>64 32\n 37153: u8 [s1 + 4] = a0\n 37156: a0 = a1 >>64 24\n 37159: u8 [s1 + 3] = a0\n 37162: a0 = a1 >>64 16\n 37165: u8 [s1 + 2] = a0\n 37168: a0 = u64 [sp + 576]\n 37172: a2 = u64 [sp + 552]\n 37176: a0 = a0 | a2\n 37179: a4 = u64 [sp + 560]\n 37183: a2 = u64 [sp + 504]\n 37187: a2 = a4 <u a2\n 37190: a3 = u64 [sp + 568]\n 37194: a2 = 0 if a3 != 0\n 37196: a2 = 0 if a0 != 0\n 37198: u8 [s1] = a1\n 37200: a1 = a1 >>64 8\n 37203: u8 [s1 + 1] = a1\n 37206: jump @855 if a2 != 0\n      : @854 (gas: 1)\n 37209: jump @699\n      : @855 (gas: 6)\n 37212: i64 s1 = i64 a4 + 0x20\n 37215: u64 [sp + 488] = s1\n 37219: s1 = s1 + 0x0\n 37221: a1 = 0x20\n 37224: a0 = s1\n 37226: ra = 580, jump @0\n      : @856 [@dyn 290] (gas: 1)\n 37233: jump @858 if a0 != 0\n      : @857 (gas: 1)\n 37236: jump @699\n      : @858 (gas: 105)\n 37239: a0 = u64 [sp + 632]\n 37243: i64 s1 = s1 + a0\n 37246: a0 = u8 [s1 + 25]\n 37249: a1 = u8 [s1 + 24]\n 37252: a2 = u8 [s1 + 26]\n 37255: a3 = u8 [s1 + 27]\n 37258: a0 = a0 <<64 8\n 37261: a0 = a0 | a1\n 37264: a2 = a2 <<64 16\n 37267: a3 = a3 <<64 24\n 37270: a2 = a2 | a3\n 37273: a0 = a0 | a2\n 37276: a1 = u8 [s1 + 29]\n 37279: a2 = u8 [s1 + 28]\n 37282: a3 = u8 [s1 + 30]\n 37285: a4 = u8 [s1 + 31]\n 37288: a1 = a1 <<64 8\n 37291: a1 = a1 | a2\n 37294: a3 = a3 <<64 16\n 37297: a4 = a4 <<64 24\n 37300: a3 = a3 | a4\n 37303: a1 = a1 | a3\n 37306: a1 = a1 <<64 32\n 37309: t0 = a1 | a0\n 37312: a1 = u8 [s1 + 17]\n 37315: a2 = u8 [s1 + 16]\n 37318: a3 = u8 [s1 + 18]\n 37321: a4 = u8 [s1 + 19]\n 37324: a1 = a1 <<64 8\n 37327: a1 = a1 | a2\n 37330: a3 = a3 <<64 16\n 37333: a4 = a4 <<64 24\n 37336: a3 = a3 | a4\n 37339: a1 = a1 | a3\n 37342: a2 = u8 [s1 + 21]\n 37345: a3 = u8 [s1 + 20]\n 37348: a4 = u8 [s1 + 22]\n 37351: a5 = u8 [s1 + 23]\n 37354: a2 = a2 <<64 8\n 37357: a2 = a2 | a3\n 37360: a4 = a4 <<64 16\n 37363: a5 = a5 <<64 24\n 37366: a4 = a4 | a5\n 37369: a2 = a2 | a4\n 37372: a2 = a2 <<64 32\n 37375: a1 = a1 | a2\n 37378: a2 = u8 [s1 + 1]\n 37381: a3 = u8 [s1]\n 37383: a4 = u8 [s1 + 2]\n 37386: a5 = u8 [s1 + 3]\n 37389: a2 = a2 <<64 8\n 37392: a2 = a2 | a3\n 37395: a4 = a4 <<64 16\n 37398: a5 = a5 <<64 24\n 37401: a4 = a4 | a5\n 37404: a2 = a2 | a4\n 37407: a3 = u8 [s1 + 5]\n 37410: a4 = u8 [s1 + 4]\n 37413: a5 = u8 [s1 + 6]\n 37416: a0 = u8 [s1 + 7]\n 37419: a3 = a3 <<64 8\n 37422: a3 = a3 | a4\n 37425: a5 = a5 <<64 16\n 37428: a0 = a0 <<64 24\n 37431: a0 = a0 | a5\n 37434: a0 = a0 | a3\n 37437: a0 = a0 <<64 32\n 37440: a2 = a2 | a0\n 37443: a0 = u8 [s1 + 9]\n 37446: a3 = u8 [s1 + 8]\n 37449: a4 = u8 [s1 + 10]\n 37452: a5 = u8 [s1 + 11]\n 37455: a0 = a0 <<64 8\n 37458: a0 = a0 | a3\n 37461: a4 = a4 <<64 16\n 37464: a5 = a5 <<64 24\n 37467: a4 = a4 | a5\n 37470: a0 = a0 | a4\n 37473: a3 = u8 [s1 + 13]\n 37476: a4 = u8 [s1 + 12]\n 37479: a5 = u8 [s1 + 14]\n 37482: s1 = u8 [s1 + 15]\n 37485: a3 = a3 <<64 8\n 37488: a3 = a3 | a4\n 37491: a5 = a5 <<64 16\n 37494: s1 = s1 <<64 24\n 37497: a5 = a5 | s1\n 37500: a3 = a3 | a5\n 37503: a3 = a3 <<64 32\n 37506: a0 = a0 | a3\n 37509: a3 = reverse a0\n 37511: a2 = reverse a2\n 37513: a0 = reverse a1\n 37515: s1 = reverse t0\n 37517: u64 [sp + 584] = a0\n 37521: u64 [sp + 512] = a2\n 37525: a0 = a0 | a2\n 37528: a1 = s1 | a3\n 37531: a1 = a1 | a0\n 37534: a1 = a1 >>64 32\n 37537: u64 [sp + 520] = a3\n 37541: a0 = a0 | a3\n 37544: a0 = a0 <<64 32\n 37547: a0 = a0 | a1\n 37550: jump @860 if a0 == 0\n      : @859 (gas: 1)\n 37553: jump @699\n      : @860 (gas: 4)\n 37556: a0 = s1 + 0x0\n 37558: a1 = 0x20\n 37561: u64 [sp + 600] = a0\n 37565: ra = 582, jump @0\n      : @861 [@dyn 291] (gas: 1)\n 37572: jump @863 if a0 != 0\n      : @862 (gas: 1)\n 37575: jump @699\n      : @863 (gas: 14)\n 37578: u64 [sp + 544] = s1\n 37582: a2 = u64 [sp + 624]\n 37586: a3 = u64 [sp + 536]\n 37590: a0 = a2 | a3\n 37593: a1 = u64 [sp + 616]\n 37597: a4 = u64 [sp + 528]\n 37601: a1 = a1 | a4\n 37604: a0 = a0 | a1\n 37607: a0 = a0 >>64 32\n 37610: a1 = a1 | a3\n 37613: a1 = a1 <<64 32\n 37616: a0 = a0 | a1\n 37619: a1 = u64 [sp + 632]\n 37623: jump @865 if a0 == 0\n      : @864 (gas: 1)\n 37626: jump @699\n      : @865 (gas: 53)\n 37629: a0 = u64 [sp + 600]\n 37633: i64 a0 = a0 + a1\n 37636: a3 = u8 [a0 + 24]\n 37639: u64 [sp + 336] = a3\n 37643: s1 = u8 [a0 + 25]\n 37646: a1 = u8 [a0 + 26]\n 37649: u64 [sp + 320] = a1\n 37653: a1 = u8 [a0 + 27]\n 37656: u64 [sp + 312] = a1\n 37660: a1 = u8 [a0 + 28]\n 37663: u64 [sp + 360] = a1\n 37667: a1 = u8 [a0 + 29]\n 37670: u64 [sp + 328] = a1\n 37674: a1 = u8 [a0 + 30]\n 37677: u64 [sp + 352] = a1\n 37681: a1 = u8 [a0 + 31]\n 37684: u64 [sp + 344] = a1\n 37688: a1 = u8 [a0 + 16]\n 37691: u64 [sp + 400] = a1\n 37695: a1 = u8 [a0 + 17]\n 37698: u64 [sp + 368] = a1\n 37702: a1 = u8 [a0 + 18]\n 37705: u64 [sp + 384] = a1\n 37709: a1 = u8 [a0 + 19]\n 37712: u64 [sp + 376] = a1\n 37716: a1 = u8 [a0 + 20]\n 37719: u64 [sp + 424] = a1\n 37723: a1 = u8 [a0 + 21]\n 37726: u64 [sp + 392] = a1\n 37730: a1 = u8 [a0 + 22]\n 37733: u64 [sp + 416] = a1\n 37737: a1 = u8 [a0 + 23]\n 37740: u64 [sp + 408] = a1\n 37744: a1 = u8 [a0 + 8]\n 37747: u64 [sp + 464] = a1\n 37751: a1 = u8 [a0 + 9]\n 37754: u64 [sp + 432] = a1\n 37758: a1 = u8 [a0 + 10]\n 37761: u64 [sp + 448] = a1\n 37765: a1 = u8 [a0 + 11]\n 37768: u64 [sp + 440] = a1\n 37772: a1 = u8 [a0 + 12]\n 37775: u64 [sp + 496] = a1\n 37779: a1 = u8 [a0 + 13]\n 37782: u64 [sp + 456] = a1\n 37786: a1 = u8 [a0 + 14]\n 37789: u64 [sp + 480] = a1\n 37793: a0 = u8 [a0 + 15]\n 37796: u64 [sp + 472] = a0\n 37800: a0 = a2 + 0x0\n 37802: a1 = 0x20\n 37805: u64 [sp + 592] = a0\n 37809: ra = 584, jump @0\n      : @866 [@dyn 292] (gas: 1)\n 37816: jump @868 if a0 != 0\n      : @867 (gas: 1)\n 37819: jump @699\n      : @868 (gas: 129)\n 37822: s1 = s1 <<64 8\n 37825: a0 = u64 [sp + 336]\n 37829: a0 = a0 | s1\n 37832: a1 = u64 [sp + 320]\n 37836: a1 = a1 <<64 16\n 37839: a2 = u64 [sp + 312]\n 37843: a2 = a2 <<64 24\n 37846: a1 = a1 | a2\n 37849: a0 = a0 | a1\n 37852: a1 = u64 [sp + 328]\n 37856: a1 = a1 <<64 8\n 37859: a2 = u64 [sp + 360]\n 37863: a1 = a1 | a2\n 37866: a2 = u64 [sp + 352]\n 37870: a2 = a2 <<64 16\n 37873: a3 = u64 [sp + 344]\n 37877: a3 = a3 <<64 24\n 37880: a2 = a2 | a3\n 37883: a1 = a1 | a2\n 37886: a1 = a1 <<64 32\n 37889: a0 = a0 | a1\n 37892: a1 = u64 [sp + 368]\n 37896: a1 = a1 <<64 8\n 37899: a2 = u64 [sp + 400]\n 37903: a1 = a1 | a2\n 37906: a2 = u64 [sp + 384]\n 37910: a2 = a2 <<64 16\n 37913: a3 = u64 [sp + 376]\n 37917: a3 = a3 <<64 24\n 37920: a2 = a2 | a3\n 37923: a1 = a1 | a2\n 37926: a2 = u64 [sp + 392]\n 37930: a2 = a2 <<64 8\n 37933: a3 = u64 [sp + 424]\n 37937: a2 = a2 | a3\n 37940: a3 = u64 [sp + 416]\n 37944: a3 = a3 <<64 16\n 37947: a4 = u64 [sp + 408]\n 37951: a4 = a4 <<64 24\n 37954: a3 = a3 | a4\n 37957: a2 = a2 | a3\n 37960: a2 = a2 <<64 32\n 37963: a2 = a2 | a1\n 37966: a1 = u64 [sp + 432]\n 37970: a1 = a1 <<64 8\n 37973: a3 = u64 [sp + 464]\n 37977: a1 = a1 | a3\n 37980: a3 = u64 [sp + 448]\n 37984: a3 = a3 <<64 16\n 37987: a4 = u64 [sp + 440]\n 37991: a4 = a4 <<64 24\n 37994: a3 = a3 | a4\n 37997: a1 = a1 | a3\n 38000: a3 = u64 [sp + 456]\n 38004: a3 = a3 <<64 8\n 38007: a4 = u64 [sp + 496]\n 38011: a3 = a3 | a4\n 38014: a4 = u64 [sp + 480]\n 38018: a4 = a4 <<64 16\n 38021: a5 = u64 [sp + 472]\n 38025: a5 = a5 <<64 24\n 38028: a4 = a4 | a5\n 38031: a3 = a3 | a4\n 38034: a3 = a3 <<64 32\n 38037: a3 = a3 | a1\n 38040: a1 = u64 [sp + 632]\n 38044: a4 = u64 [sp + 592]\n 38048: i64 a1 = a1 + a4\n 38051: a4 = a3 >>64 56\n 38054: u8 [a1 + 15] = a4\n 38057: a4 = a3 >>64 48\n 38060: u8 [a1 + 14] = a4\n 38063: a4 = a3 >>64 40\n 38066: u8 [a1 + 13] = a4\n 38069: a3 = a3 >>64 32\n 38072: u8 [a1 + 12] = a3\n 38075: a3 = a2 >>64 56\n 38078: u8 [a1 + 23] = a3\n 38081: a3 = a2 >>64 48\n 38084: u8 [a1 + 22] = a3\n 38087: a3 = a2 >>64 40\n 38090: u8 [a1 + 21] = a3\n 38093: a3 = a2 >>64 32\n 38096: u8 [a1 + 20] = a3\n 38099: a3 = a2 >>64 24\n 38102: u8 [a1 + 19] = a3\n 38105: a3 = a2 >>64 16\n 38108: u8 [a1 + 18] = a3\n 38111: u8 [a1 + 16] = a2\n 38114: a2 = a2 >>64 8\n 38117: u8 [a1 + 17] = a2\n 38120: a2 = a0 >>64 56\n 38123: u8 [a1 + 31] = a2\n 38126: a2 = a0 >>64 48\n 38129: u8 [a1 + 30] = a2\n 38132: a2 = a0 >>64 40\n 38135: u8 [a1 + 29] = a2\n 38138: a2 = a0 >>64 32\n 38141: u8 [a1 + 28] = a2\n 38144: a2 = a0 >>64 24\n 38147: u8 [a1 + 27] = a2\n 38150: a2 = a0 >>64 16\n 38153: u8 [a1 + 26] = a2\n 38156: u8 [a1 + 24] = a0\n 38159: a0 = a0 >>64 8\n 38162: u8 [a1 + 25] = a0\n 38165: u8 [a1 + 11] = 0\n 38168: u8 [a1 + 10] = 0\n 38171: u8 [a1 + 9] = 0\n 38174: u8 [a1 + 8] = 0\n 38177: u8 [a1 + 7] = 0\n 38180: u8 [a1 + 6] = 0\n 38183: u8 [a1 + 5] = 0\n 38186: u8 [a1 + 4] = 0\n 38189: u8 [a1 + 3] = 0\n 38192: u8 [a1 + 2] = 0\n 38195: u8 [a1 + 1] = 0\n 38198: a0 = u64 [sp + 520]\n 38202: a3 = u64 [sp + 512]\n 38206: a3 = a3 | a0\n 38209: a0 = u64 [sp + 504]\n 38213: a2 = u64 [sp + 544]\n 38217: a0 = a2 <u a0\n 38220: a2 = u64 [sp + 584]\n 38224: a0 = 0 if a2 != 0\n 38226: u64 [sp + 520] = a3\n 38230: a0 = 0 if a3 != 0\n 38232: u8 [a1 + 0] = 0\n 38234: jump @870 if a0 != 0\n      : @869 (gas: 1)\n 38237: jump @699\n      : @870 (gas: 5)\n 38240: a0 = u64 [sp + 600]\n 38244: s1 = a0 + 0x20\n 38247: a1 = 0x20\n 38250: a0 = s1\n 38252: ra = 586, jump @0\n      : @871 [@dyn 293] (gas: 1)\n 38259: jump @873 if a0 != 0\n      : @872 (gas: 1)\n 38262: jump @699\n      : @873 (gas: 12)\n 38265: a0 = u64 [sp + 536]\n 38269: a2 = u64 [sp + 528]\n 38273: a2 = a2 | a0\n 38276: a0 = u64 [sp + 504]\n 38280: a1 = u64 [sp + 624]\n 38284: a0 = a1 <u a0\n 38287: a1 = u64 [sp + 616]\n 38291: a0 = 0 if a1 != 0\n 38293: u64 [sp + 512] = a2\n 38297: a0 = 0 if a2 != 0\n 38299: a1 = u64 [sp + 592]\n 38303: jump @875 if a0 != 0\n      : @874 (gas: 1)\n 38306: jump @699\n      : @875 (gas: 69)\n 38309: a0 = u64 [sp + 632]\n 38313: i64 a0 = a0 + s1\n 38316: a2 = u8 [a0 + 24]\n 38319: u64 [sp + 264] = a2\n 38323: s1 = u8 [a0 + 25]\n 38326: a2 = u8 [a0 + 26]\n 38329: u64 [sp + 248] = a2\n 38333: a2 = u8 [a0 + 27]\n 38336: u64 [sp + 240] = a2\n 38340: a2 = u8 [a0 + 28]\n 38343: u64 [sp + 288] = a2\n 38347: a2 = u8 [a0 + 29]\n 38350: u64 [sp + 256] = a2\n 38354: a2 = u8 [a0 + 30]\n 38357: u64 [sp + 280] = a2\n 38361: a2 = u8 [a0 + 31]\n 38364: u64 [sp + 272] = a2\n 38368: a2 = u8 [a0 + 16]\n 38371: u64 [sp + 328] = a2\n 38375: a2 = u8 [a0 + 17]\n 38378: u64 [sp + 296] = a2\n 38382: a2 = u8 [a0 + 18]\n 38385: u64 [sp + 312] = a2\n 38389: a2 = u8 [a0 + 19]\n 38392: u64 [sp + 304] = a2\n 38396: a2 = u8 [a0 + 20]\n 38399: u64 [sp + 352] = a2\n 38403: a2 = u8 [a0 + 21]\n 38406: u64 [sp + 320] = a2\n 38410: a2 = u8 [a0 + 22]\n 38413: u64 [sp + 344] = a2\n 38417: a2 = u8 [a0 + 23]\n 38420: u64 [sp + 336] = a2\n 38424: a2 = u8 [a0 + 8]\n 38427: u64 [sp + 392] = a2\n 38431: a2 = u8 [a0 + 9]\n 38434: u64 [sp + 360] = a2\n 38438: a2 = u8 [a0 + 10]\n 38441: u64 [sp + 376] = a2\n 38445: a2 = u8 [a0 + 11]\n 38448: u64 [sp + 368] = a2\n 38452: a2 = u8 [a0 + 12]\n 38455: u64 [sp + 416] = a2\n 38459: a2 = u8 [a0 + 13]\n 38462: u64 [sp + 384] = a2\n 38466: a2 = u8 [a0 + 14]\n 38469: u64 [sp + 408] = a2\n 38473: a2 = u8 [a0 + 15]\n 38476: u64 [sp + 400] = a2\n 38480: a2 = u8 [a0]\n 38482: u64 [sp + 456] = a2\n 38486: a2 = u8 [a0 + 1]\n 38489: u64 [sp + 424] = a2\n 38493: a2 = u8 [a0 + 2]\n 38496: u64 [sp + 440] = a2\n 38500: a2 = u8 [a0 + 3]\n 38503: u64 [sp + 432] = a2\n 38507: a2 = u8 [a0 + 4]\n 38510: u64 [sp + 480] = a2\n 38514: a2 = u8 [a0 + 5]\n 38517: u64 [sp + 448] = a2\n 38521: a2 = u8 [a0 + 6]\n 38524: u64 [sp + 472] = a2\n 38528: a0 = u8 [a0 + 7]\n 38531: u64 [sp + 464] = a0\n 38535: a0 = a1 + 0x20\n 38538: a1 = 0x20\n 38541: u64 [sp + 496] = a0\n 38545: ra = 588, jump @0\n      : @876 [@dyn 294] (gas: 1)\n 38552: jump @878 if a0 != 0\n      : @877 (gas: 1)\n 38555: jump @699\n      : @878 (gas: 142)\n 38558: a0 = u64 [sp + 624]\n 38562: i64 a5 = i64 a0 + 0x100\n 38566: a0 = a5 <u a0\n 38569: a1 = u64 [sp + 616]\n 38573: i64 t2 = a1 + a0\n 38576: a2 = t2 <u a1\n 38579: a2 = a0 if a0 == 0\n 38582: s1 = s1 <<64 8\n 38585: a0 = u64 [sp + 264]\n 38589: a0 = a0 | s1\n 38592: a1 = u64 [sp + 248]\n 38596: a1 = a1 <<64 16\n 38599: a3 = u64 [sp + 240]\n 38603: a3 = a3 <<64 24\n 38606: a1 = a1 | a3\n 38609: a0 = a0 | a1\n 38612: a1 = u64 [sp + 256]\n 38616: a1 = a1 <<64 8\n 38619: a3 = u64 [sp + 288]\n 38623: a1 = a1 | a3\n 38626: a3 = u64 [sp + 280]\n 38630: a3 = a3 <<64 16\n 38633: a4 = u64 [sp + 272]\n 38637: a4 = a4 <<64 24\n 38640: a3 = a3 | a4\n 38643: a1 = a1 | a3\n 38646: a1 = a1 <<64 32\n 38649: t0 = a1 | a0\n 38652: a1 = u64 [sp + 296]\n 38656: a1 = a1 <<64 8\n 38659: a0 = u64 [sp + 328]\n 38663: a1 = a1 | a0\n 38666: a3 = u64 [sp + 312]\n 38670: a3 = a3 <<64 16\n 38673: a4 = u64 [sp + 304]\n 38677: a4 = a4 <<64 24\n 38680: a3 = a3 | a4\n 38683: a1 = a1 | a3\n 38686: a3 = u64 [sp + 320]\n 38690: a3 = a3 <<64 8\n 38693: a0 = u64 [sp + 352]\n 38697: a3 = a3 | a0\n 38700: a4 = u64 [sp + 344]\n 38704: a4 = a4 <<64 16\n 38707: s1 = u64 [sp + 336]\n 38711: s1 = s1 <<64 24\n 38714: a4 = a4 | s1\n 38717: a3 = a3 | a4\n 38720: a3 = a3 <<64 32\n 38723: t1 = a3 | a1\n 38726: a3 = u64 [sp + 360]\n 38730: a3 = a3 <<64 8\n 38733: a0 = u64 [sp + 392]\n 38737: a3 = a3 | a0\n 38740: a4 = u64 [sp + 376]\n 38744: a4 = a4 <<64 16\n 38747: s1 = u64 [sp + 368]\n 38751: s1 = s1 <<64 24\n 38754: a4 = a4 | s1\n 38757: a3 = a3 | a4\n 38760: a4 = u64 [sp + 384]\n 38764: a4 = a4 <<64 8\n 38767: a0 = u64 [sp + 416]\n 38771: a4 = a4 | a0\n 38774: s1 = u64 [sp + 408]\n 38778: s1 = s1 <<64 16\n 38781: a0 = u64 [sp + 400]\n 38785: a0 = a0 <<64 24\n 38788: a0 = a0 | s1\n 38791: a0 = a0 | a4\n 38794: a0 = a0 <<64 32\n 38797: a3 = a3 | a0\n 38800: a0 = u64 [sp + 424]\n 38804: a0 = a0 <<64 8\n 38807: a1 = u64 [sp + 456]\n 38811: a0 = a0 | a1\n 38814: a4 = u64 [sp + 440]\n 38818: a4 = a4 <<64 16\n 38821: s1 = u64 [sp + 432]\n 38825: s1 = s1 <<64 24\n 38828: a4 = a4 | s1\n 38831: a0 = a0 | a4\n 38834: a4 = u64 [sp + 448]\n 38838: a4 = a4 <<64 8\n 38841: a1 = u64 [sp + 480]\n 38845: a4 = a4 | a1\n 38848: s1 = u64 [sp + 472]\n 38852: s1 = s1 <<64 16\n 38855: a1 = u64 [sp + 464]\n 38859: a1 = a1 <<64 24\n 38862: a1 = a1 | s1\n 38865: a1 = a1 | a4\n 38868: a1 = a1 <<64 32\n 38871: a4 = a1 | a0\n 38874: a1 = u64 [sp + 536]\n 38878: i64 s1 = a1 + a2\n 38881: a2 = u64 [sp + 632]\n 38885: a0 = u64 [sp + 496]\n 38889: i64 a2 = a2 + a0\n 38892: u8 [a2 + 31] = 0\n 38895: u8 [a2 + 30] = 1\n 38899: u8 [a2 + 29] = 0\n 38902: u8 [a2 + 28] = 0\n 38905: u8 [a2 + 27] = 0\n 38908: u8 [a2 + 26] = 0\n 38911: u8 [a2 + 25] = 0\n 38914: u8 [a2 + 24] = 0\n 38917: u8 [a2 + 23] = 0\n 38920: u8 [a2 + 22] = 0\n 38923: u8 [a2 + 21] = 0\n 38926: u8 [a2 + 20] = 0\n 38929: u8 [a2 + 19] = 0\n 38932: u8 [a2 + 18] = 0\n 38935: u8 [a2 + 17] = 0\n 38938: u8 [a2 + 16] = 0\n 38941: u8 [a2 + 15] = 0\n 38944: u8 [a2 + 14] = 0\n 38947: u8 [a2 + 13] = 0\n 38950: u8 [a2 + 12] = 0\n 38953: u8 [a2 + 11] = 0\n 38956: u8 [a2 + 10] = 0\n 38959: u8 [a2 + 9] = 0\n 38962: u8 [a2 + 8] = 0\n 38965: u8 [a2 + 7] = 0\n 38968: u8 [a2 + 6] = 0\n 38971: u8 [a2 + 5] = 0\n 38974: u8 [a2 + 4] = 0\n 38977: u8 [a2 + 3] = 0\n 38980: u8 [a2 + 2] = 0\n 38983: u8 [a2 + 1] = 0\n 38986: u8 [a2 + 0] = 0\n 38988: a0 = s1 <u a1\n 38991: a1 = u64 [sp + 528]\n 38995: i64 a0 = a0 + a1\n 38998: a4 = reverse a4\n 39000: a3 = reverse a3\n 39002: a2 = reverse t1\n 39004: a1 = reverse t0\n 39006: u64 [sp + 8] = a0\n 39009: i64 a0 = i64 sp + 0x2e0\n 39013: u64 [sp] = s1\n 39015: ra = 590, jump @199\n      : @879 [@dyn 295] (gas: 10)\n 39022: a0 = u64 [sp + 608]\n 39026: i64 a1 = i64 a0 - i64 64\n 39029: a0 = u64 [sp + 544]\n 39033: u64 [sp + 480] = a1\n 39037: a0 = a0 <u a1\n 39040: a1 = u64 [sp + 584]\n 39044: a0 = 0 if a1 != 0\n 39046: a1 = u64 [sp + 520]\n 39050: a0 = 0 if a1 != 0\n 39052: jump @881 if a0 != 0\n      : @880 (gas: 1)\n 39055: jump @699\n      : @881 (gas: 13)\n 39058: a0 = u64 [sp + 760]\n 39062: u64 [sp + 496] = a0\n 39066: a0 = u64 [sp + 752]\n 39070: u64 [sp + 456] = a0\n 39074: a0 = u64 [sp + 744]\n 39078: u64 [sp + 472] = a0\n 39082: a0 = u64 [sp + 736]\n 39086: u64 [sp + 464] = a0\n 39090: a0 = u64 [sp + 600]\n 39094: s1 = a0 + 0x40\n 39097: a1 = 0x20\n 39100: a0 = s1\n 39102: ra = 592, jump @0\n      : @882 [@dyn 296] (gas: 1)\n 39109: jump @884 if a0 != 0\n      : @883 (gas: 1)\n 39112: jump @699\n      : @884 (gas: 9)\n 39115: a0 = u64 [sp + 624]\n 39119: a1 = u64 [sp + 480]\n 39123: a0 = a0 <u a1\n 39126: a1 = u64 [sp + 616]\n 39130: a0 = 0 if a1 != 0\n 39132: a1 = u64 [sp + 512]\n 39136: a0 = 0 if a1 != 0\n 39138: a1 = u64 [sp + 592]\n 39142: jump @886 if a0 != 0\n      : @885 (gas: 1)\n 39145: jump @699\n      : @886 (gas: 70)\n 39148: a0 = u64 [sp + 632]\n 39152: i64 s1 = s1 + a0\n 39155: a0 = u8 [s1 + 24]\n 39158: u64 [sp + 240] = a0\n 39162: a0 = u8 [s1 + 25]\n 39165: u64 [sp + 208] = a0\n 39169: a0 = u8 [s1 + 26]\n 39172: u64 [sp + 224] = a0\n 39176: a0 = u8 [s1 + 27]\n 39179: u64 [sp + 216] = a0\n 39183: a0 = u8 [s1 + 28]\n 39186: u64 [sp + 264] = a0\n 39190: a0 = u8 [s1 + 29]\n 39193: u64 [sp + 232] = a0\n 39197: a0 = u8 [s1 + 30]\n 39200: u64 [sp + 256] = a0\n 39204: a0 = u8 [s1 + 31]\n 39207: u64 [sp + 248] = a0\n 39211: a0 = u8 [s1 + 16]\n 39214: u64 [sp + 304] = a0\n 39218: a0 = u8 [s1 + 17]\n 39221: u64 [sp + 272] = a0\n 39225: a0 = u8 [s1 + 18]\n 39228: u64 [sp + 288] = a0\n 39232: a0 = u8 [s1 + 19]\n 39235: u64 [sp + 280] = a0\n 39239: a0 = u8 [s1 + 20]\n 39242: u64 [sp + 328] = a0\n 39246: a0 = u8 [s1 + 21]\n 39249: u64 [sp + 296] = a0\n 39253: a0 = u8 [s1 + 22]\n 39256: u64 [sp + 320] = a0\n 39260: a0 = u8 [s1 + 23]\n 39263: u64 [sp + 312] = a0\n 39267: a0 = u8 [s1 + 8]\n 39270: u64 [sp + 368] = a0\n 39274: a0 = u8 [s1 + 9]\n 39277: u64 [sp + 336] = a0\n 39281: a0 = u8 [s1 + 10]\n 39284: u64 [sp + 352] = a0\n 39288: a0 = u8 [s1 + 11]\n 39291: u64 [sp + 344] = a0\n 39295: a0 = u8 [s1 + 12]\n 39298: u64 [sp + 392] = a0\n 39302: a0 = u8 [s1 + 13]\n 39305: u64 [sp + 360] = a0\n 39309: a0 = u8 [s1 + 14]\n 39312: u64 [sp + 384] = a0\n 39316: a0 = u8 [s1 + 15]\n 39319: u64 [sp + 376] = a0\n 39323: a0 = u8 [s1]\n 39325: u64 [sp + 432] = a0\n 39329: a0 = u8 [s1 + 1]\n 39332: u64 [sp + 400] = a0\n 39336: a0 = u8 [s1 + 2]\n 39339: u64 [sp + 416] = a0\n 39343: a0 = u8 [s1 + 3]\n 39346: u64 [sp + 408] = a0\n 39350: a0 = u8 [s1 + 4]\n 39353: u64 [sp + 480] = a0\n 39357: a0 = u8 [s1 + 5]\n 39360: u64 [sp + 424] = a0\n 39364: a0 = u8 [s1 + 6]\n 39367: u64 [sp + 448] = a0\n 39371: a0 = u8 [s1 + 7]\n 39374: u64 [sp + 440] = a0\n 39378: a0 = a1 + 0x40\n 39381: a1 = 0x20\n 39384: u64 [sp + 200] = a0\n 39388: ra = 594, jump @0\n      : @887 [@dyn 297] (gas: 1)\n 39395: jump @889 if a0 != 0\n      : @888 (gas: 1)\n 39398: jump @699\n      : @889 (gas: 186)\n 39401: t1 = u64 [sp + 624]\n 39405: a5 = u64 [sp + 464]\n 39409: a2 = a5 <u t1\n 39412: a1 = u64 [sp + 616]\n 39416: t2 = u64 [sp + 472]\n 39420: a0 = t2 ^ a1\n 39423: a3 = t2 <u a1\n 39426: a3 = a2 if a0 == 0\n 39429: a4 = u64 [sp + 536]\n 39433: ra = u64 [sp + 456]\n 39437: i64 a0 = i64 ra - i64 a4\n 39440: i64 t0 = i64 a0 - i64 a3\n 39443: a0 = a0 <u a3\n 39446: a3 = ra <u a4\n 39449: a4 = u64 [sp + 528]\n 39453: s1 = u64 [sp + 496]\n 39457: i64 a4 = i64 s1 - i64 a4\n 39460: i64 a4 = i64 a4 - i64 a3\n 39463: i64 a0 = i64 a4 - i64 a0\n 39466: i64 a3 = i64 t2 - i64 a1\n 39469: i64 a2 = i64 a3 - i64 a2\n 39472: s1 = u64 [sp + 632]\n 39476: a1 = u64 [sp + 200]\n 39480: i64 s1 = s1 + a1\n 39483: i64 a3 = i64 a5 - i64 t1\n 39486: a3 = reverse a3\n 39488: a4 = a3 >>64 56\n 39491: u8 [s1 + 31] = a4\n 39494: a4 = a3 >>64 48\n 39497: u8 [s1 + 30] = a4\n 39500: a4 = a3 >>64 40\n 39503: u8 [s1 + 29] = a4\n 39506: a4 = a3 >>64 32\n 39509: u8 [s1 + 28] = a4\n 39512: a4 = a3 >>64 24\n 39515: u8 [s1 + 27] = a4\n 39518: a4 = a3 >>64 16\n 39521: u8 [s1 + 26] = a4\n 39524: u8 [s1 + 24] = a3\n 39527: a3 = a3 >>64 8\n 39530: u8 [s1 + 25] = a3\n 39533: a2 = reverse a2\n 39535: a3 = a2 >>64 56\n 39538: u8 [s1 + 23] = a3\n 39541: a3 = a2 >>64 48\n 39544: u8 [s1 + 22] = a3\n 39547: a3 = a2 >>64 40\n 39550: u8 [s1 + 21] = a3\n 39553: a3 = a2 >>64 32\n 39556: u8 [s1 + 20] = a3\n 39559: a3 = a2 >>64 24\n 39562: u8 [s1 + 19] = a3\n 39565: a3 = a2 >>64 16\n 39568: u8 [s1 + 18] = a3\n 39571: u8 [s1 + 16] = a2\n 39574: a2 = a2 >>64 8\n 39577: u8 [s1 + 17] = a2\n 39580: a1 = reverse t0\n 39582: a2 = a1 >>64 56\n 39585: u8 [s1 + 15] = a2\n 39588: a2 = a1 >>64 48\n 39591: u8 [s1 + 14] = a2\n 39594: a2 = a1 >>64 40\n 39597: u8 [s1 + 13] = a2\n 39600: a2 = a1 >>64 32\n 39603: u8 [s1 + 12] = a2\n 39606: a2 = a1 >>64 24\n 39609: u8 [s1 + 11] = a2\n 39612: a2 = a1 >>64 16\n 39615: u8 [s1 + 10] = a2\n 39618: u8 [s1 + 8] = a1\n 39621: a1 = a1 >>64 8\n 39624: u8 [s1 + 9] = a1\n 39627: a0 = reverse a0\n 39629: a1 = a0 >>64 56\n 39632: u8 [s1 + 7] = a1\n 39635: a1 = a0 >>64 48\n 39638: u8 [s1 + 6] = a1\n 39641: a1 = a0 >>64 40\n 39644: u8 [s1 + 5] = a1\n 39647: a1 = a0 >>64 32\n 39650: u8 [s1 + 4] = a1\n 39653: a1 = a0 >>64 24\n 39656: u8 [s1 + 3] = a1\n 39659: a1 = a0 >>64 16\n 39662: u8 [s1 + 2] = a1\n 39665: u8 [s1] = a0\n 39667: a0 = a0 >>64 8\n 39670: u8 [s1 + 1] = a0\n 39673: a0 = u64 [sp + 208]\n 39677: a0 = a0 <<64 8\n 39680: a1 = u64 [sp + 240]\n 39684: a0 = a0 | a1\n 39687: a1 = u64 [sp + 224]\n 39691: a1 = a1 <<64 16\n 39694: a2 = u64 [sp + 216]\n 39698: a2 = a2 <<64 24\n 39701: a1 = a1 | a2\n 39704: a0 = a0 | a1\n 39707: a1 = u64 [sp + 232]\n 39711: a1 = a1 <<64 8\n 39714: a2 = u64 [sp + 264]\n 39718: a1 = a1 | a2\n 39721: a2 = u64 [sp + 256]\n 39725: a2 = a2 <<64 16\n 39728: a3 = u64 [sp + 248]\n 39732: a3 = a3 <<64 24\n 39735: a2 = a2 | a3\n 39738: a1 = a1 | a2\n 39741: a1 = a1 <<64 32\n 39744: t0 = a1 | a0\n 39747: a1 = u64 [sp + 272]\n 39751: a1 = a1 <<64 8\n 39754: a0 = u64 [sp + 304]\n 39758: a1 = a1 | a0\n 39761: a2 = u64 [sp + 288]\n 39765: a2 = a2 <<64 16\n 39768: a3 = u64 [sp + 280]\n 39772: a3 = a3 <<64 24\n 39775: a2 = a2 | a3\n 39778: a1 = a1 | a2\n 39781: a2 = u64 [sp + 296]\n 39785: a2 = a2 <<64 8\n 39788: a0 = u64 [sp + 328]\n 39792: a2 = a2 | a0\n 39795: a3 = u64 [sp + 320]\n 39799: a3 = a3 <<64 16\n 39802: a4 = u64 [sp + 312]\n 39806: a4 = a4 <<64 24\n 39809: a3 = a3 | a4\n 39812: a2 = a2 | a3\n 39815: a2 = a2 <<64 32\n 39818: a1 = a1 | a2\n 39821: a2 = u64 [sp + 336]\n 39825: a2 = a2 <<64 8\n 39828: a0 = u64 [sp + 368]\n 39832: a2 = a2 | a0\n 39835: a3 = u64 [sp + 352]\n 39839: a3 = a3 <<64 16\n 39842: a4 = u64 [sp + 344]\n 39846: a4 = a4 <<64 24\n 39849: a3 = a3 | a4\n 39852: a2 = a2 | a3\n 39855: a3 = u64 [sp + 360]\n 39859: a3 = a3 <<64 8\n 39862: a0 = u64 [sp + 392]\n 39866: a3 = a3 | a0\n 39869: s1 = u64 [sp + 384]\n 39873: s1 = s1 <<64 16\n 39876: a4 = u64 [sp + 376]\n 39880: a4 = a4 <<64 24\n 39883: a4 = a4 | s1\n 39886: a3 = a3 | a4\n 39889: a3 = a3 <<64 32\n 39892: a2 = a2 | a3\n 39895: a3 = u64 [sp + 400]\n 39899: a3 = a3 <<64 8\n 39902: a0 = u64 [sp + 432]\n 39906: a3 = a3 | a0\n 39909: s1 = u64 [sp + 416]\n 39913: s1 = s1 <<64 16\n 39916: a4 = u64 [sp + 408]\n 39920: a4 = a4 <<64 24\n 39923: a4 = a4 | s1\n 39926: a3 = a3 | a4\n 39929: a4 = u64 [sp + 424]\n 39933: a4 = a4 <<64 8\n 39936: a0 = u64 [sp + 480]\n 39940: a4 = a4 | a0\n 39943: a0 = u64 [sp + 448]\n 39947: a0 = a0 <<64 16\n 39950: s1 = u64 [sp + 440]\n 39954: s1 = s1 <<64 24\n 39957: a0 = a0 | s1\n 39960: a4 = a4 | a0\n 39963: a4 = a4 <<64 32\n 39966: a3 = a3 | a4\n 39969: a4 = reverse a3\n 39971: a3 = reverse a2\n 39973: a2 = reverse a1\n 39975: a1 = reverse t0\n 39977: a0 = u64 [sp + 496]\n 39981: u64 [sp + 8] = a0\n 39984: i64 a0 = i64 sp + 0x2c0\n 39988: u64 [sp] = ra\n 39990: ra = 596, jump @199\n      : @890 [@dyn 298] (gas: 9)\n 39997: a0 = u64 [sp + 608]\n 40001: i64 a0 = i64 a0 - i64 96\n 40004: a1 = u64 [sp + 544]\n 40008: a0 = a1 <u a0\n 40011: a1 = u64 [sp + 584]\n 40015: a0 = 0 if a1 != 0\n 40017: a1 = u64 [sp + 520]\n 40021: a0 = 0 if a1 != 0\n 40023: jump @892 if a0 != 0\n      : @891 (gas: 1)\n 40026: jump @699\n      : @892 (gas: 13)\n 40029: a0 = u64 [sp + 728]\n 40033: u64 [sp + 216] = a0\n 40037: a0 = u64 [sp + 720]\n 40041: u64 [sp + 208] = a0\n 40045: a0 = u64 [sp + 712]\n 40049: u64 [sp + 224] = a0\n 40053: a0 = u64 [sp + 704]\n 40057: u64 [sp + 232] = a0\n 40061: a0 = u64 [sp + 600]\n 40065: s1 = a0 + 0x60\n 40068: a1 = 0x20\n 40071: a0 = s1\n 40073: ra = 598, jump @0\n      : @893 [@dyn 299] (gas: 1)\n 40080: jump @895 if a0 != 0\n      : @894 (gas: 1)\n 40083: jump @699\n      : @895 (gas: 18)\n 40086: a0 = u64 [sp + 536]\n 40090: a0 = a0 >u 0x0\n 40092: a1 = u64 [sp + 528]\n 40096: a2 = a1 >u 0x0\n 40098: a2 = a0 if a1 == 0\n 40101: a0 = u64 [sp + 608]\n 40105: i64 a0 = i64 a0 - i64 97\n 40108: a1 = u64 [sp + 624]\n 40112: a0 = a0 <u a1\n 40115: a1 = u64 [sp + 616]\n 40119: a3 = a1 >u 0x0\n 40121: u64 [sp + 528] = a3\n 40125: a0 = a3 if a1 != 0\n 40128: a1 = u64 [sp + 512]\n 40132: u64 [sp + 536] = a2\n 40136: a0 = a2 if a1 != 0\n 40139: a1 = u64 [sp + 592]\n 40143: jump @897 if a0 == 0\n      : @896 (gas: 1)\n 40146: jump @699\n      : @897 (gas: 69)\n 40149: a0 = u64 [sp + 632]\n 40153: i64 a0 = a0 + s1\n 40156: a2 = u8 [a0 + 24]\n 40159: u64 [sp + 264] = a2\n 40163: s1 = u8 [a0 + 25]\n 40166: a2 = u8 [a0 + 26]\n 40169: u64 [sp + 248] = a2\n 40173: a2 = u8 [a0 + 27]\n 40176: u64 [sp + 240] = a2\n 40180: a2 = u8 [a0 + 28]\n 40183: u64 [sp + 288] = a2\n 40187: a2 = u8 [a0 + 29]\n 40190: u64 [sp + 256] = a2\n 40194: a2 = u8 [a0 + 30]\n 40197: u64 [sp + 280] = a2\n 40201: a2 = u8 [a0 + 31]\n 40204: u64 [sp + 272] = a2\n 40208: a2 = u8 [a0 + 16]\n 40211: u64 [sp + 328] = a2\n 40215: a2 = u8 [a0 + 17]\n 40218: u64 [sp + 296] = a2\n 40222: a2 = u8 [a0 + 18]\n 40225: u64 [sp + 312] = a2\n 40229: a2 = u8 [a0 + 19]\n 40232: u64 [sp + 304] = a2\n 40236: a2 = u8 [a0 + 20]\n 40239: u64 [sp + 352] = a2\n 40243: a2 = u8 [a0 + 21]\n 40246: u64 [sp + 320] = a2\n 40250: a2 = u8 [a0 + 22]\n 40253: u64 [sp + 344] = a2\n 40257: a2 = u8 [a0 + 23]\n 40260: u64 [sp + 336] = a2\n 40264: a2 = u8 [a0 + 8]\n 40267: u64 [sp + 392] = a2\n 40271: a2 = u8 [a0 + 9]\n 40274: u64 [sp + 360] = a2\n 40278: a2 = u8 [a0 + 10]\n 40281: u64 [sp + 376] = a2\n 40285: a2 = u8 [a0 + 11]\n 40288: u64 [sp + 368] = a2\n 40292: a2 = u8 [a0 + 12]\n 40295: u64 [sp + 416] = a2\n 40299: a2 = u8 [a0 + 13]\n 40302: u64 [sp + 384] = a2\n 40306: a2 = u8 [a0 + 14]\n 40309: u64 [sp + 408] = a2\n 40313: a2 = u8 [a0 + 15]\n 40316: u64 [sp + 400] = a2\n 40320: a2 = u8 [a0]\n 40322: u64 [sp + 456] = a2\n 40326: a2 = u8 [a0 + 1]\n 40329: u64 [sp + 424] = a2\n 40333: a2 = u8 [a0 + 2]\n 40336: u64 [sp + 440] = a2\n 40340: a2 = u8 [a0 + 3]\n 40343: u64 [sp + 432] = a2\n 40347: a2 = u8 [a0 + 4]\n 40350: u64 [sp + 480] = a2\n 40354: a2 = u8 [a0 + 5]\n 40357: u64 [sp + 448] = a2\n 40361: a2 = u8 [a0 + 6]\n 40364: u64 [sp + 472] = a2\n 40368: a0 = u8 [a0 + 7]\n 40371: u64 [sp + 464] = a0\n 40375: a0 = a1 + 0x60\n 40378: a1 = 0x20\n 40381: u64 [sp + 496] = a0\n 40385: ra = 600, jump @0\n      : @898 [@dyn 300] (gas: 1)\n 40392: jump @900 if a0 != 0\n      : @899 (gas: 1)\n 40395: jump @699\n      : @900 (gas: 159)\n 40398: s1 = s1 <<64 8\n 40401: a0 = u64 [sp + 264]\n 40405: a0 = a0 | s1\n 40408: a1 = u64 [sp + 248]\n 40412: a1 = a1 <<64 16\n 40415: a2 = u64 [sp + 240]\n 40419: a2 = a2 <<64 24\n 40422: a1 = a1 | a2\n 40425: a0 = a0 | a1\n 40428: a1 = u64 [sp + 256]\n 40432: a1 = a1 <<64 8\n 40435: a2 = u64 [sp + 288]\n 40439: a1 = a1 | a2\n 40442: a2 = u64 [sp + 280]\n 40446: a2 = a2 <<64 16\n 40449: a3 = u64 [sp + 272]\n 40453: a3 = a3 <<64 24\n 40456: a2 = a2 | a3\n 40459: a1 = a1 | a2\n 40462: a1 = a1 <<64 32\n 40465: a0 = a0 | a1\n 40468: a1 = u64 [sp + 296]\n 40472: a1 = a1 <<64 8\n 40475: a2 = u64 [sp + 328]\n 40479: a1 = a1 | a2\n 40482: a2 = u64 [sp + 312]\n 40486: a2 = a2 <<64 16\n 40489: a3 = u64 [sp + 304]\n 40493: a3 = a3 <<64 24\n 40496: a2 = a2 | a3\n 40499: a1 = a1 | a2\n 40502: a2 = u64 [sp + 320]\n 40506: a2 = a2 <<64 8\n 40509: a3 = u64 [sp + 352]\n 40513: a2 = a2 | a3\n 40516: a3 = u64 [sp + 344]\n 40520: a3 = a3 <<64 16\n 40523: a4 = u64 [sp + 336]\n 40527: a4 = a4 <<64 24\n 40530: a3 = a3 | a4\n 40533: a2 = a2 | a3\n 40536: a2 = a2 <<64 32\n 40539: a1 = a1 | a2\n 40542: a2 = u64 [sp + 360]\n 40546: a2 = a2 <<64 8\n 40549: a3 = u64 [sp + 392]\n 40553: a2 = a2 | a3\n 40556: a3 = u64 [sp + 376]\n 40560: a3 = a3 <<64 16\n 40563: a4 = u64 [sp + 368]\n 40567: a4 = a4 <<64 24\n 40570: a3 = a3 | a4\n 40573: a2 = a2 | a3\n 40576: a3 = u64 [sp + 384]\n 40580: a3 = a3 <<64 8\n 40583: a4 = u64 [sp + 416]\n 40587: a3 = a3 | a4\n 40590: a4 = u64 [sp + 408]\n 40594: a4 = a4 <<64 16\n 40597: a5 = u64 [sp + 400]\n 40601: a5 = a5 <<64 24\n 40604: a4 = a4 | a5\n 40607: a3 = a3 | a4\n 40610: a3 = a3 <<64 32\n 40613: a2 = a2 | a3\n 40616: a3 = u64 [sp + 424]\n 40620: a3 = a3 <<64 8\n 40623: a4 = u64 [sp + 456]\n 40627: a3 = a3 | a4\n 40630: a4 = u64 [sp + 440]\n 40634: a4 = a4 <<64 16\n 40637: a5 = u64 [sp + 432]\n 40641: a5 = a5 <<64 24\n 40644: a4 = a4 | a5\n 40647: a3 = a3 | a4\n 40650: a4 = u64 [sp + 448]\n 40654: a4 = a4 <<64 8\n 40657: a5 = u64 [sp + 480]\n 40661: a4 = a4 | a5\n 40664: a5 = u64 [sp + 472]\n 40668: a5 = a5 <<64 16\n 40671: s1 = u64 [sp + 464]\n 40675: s1 = s1 <<64 24\n 40678: a5 = a5 | s1\n 40681: a4 = a4 | a5\n 40684: a4 = a4 <<64 32\n 40687: a3 = a3 | a4\n 40690: s1 = u64 [sp + 632]\n 40694: a4 = u64 [sp + 496]\n 40698: i64 s1 = s1 + a4\n 40701: a4 = a3 >>64 56\n 40704: u8 [s1 + 7] = a4\n 40707: a4 = a3 >>64 48\n 40710: u8 [s1 + 6] = a4\n 40713: a4 = a3 >>64 40\n 40716: u8 [s1 + 5] = a4\n 40719: a4 = a3 >>64 32\n 40722: u8 [s1 + 4] = a4\n 40725: a4 = a3 >>64 24\n 40728: u8 [s1 + 3] = a4\n 40731: a4 = a3 >>64 16\n 40734: u8 [s1 + 2] = a4\n 40737: a4 = a3 >>64 8\n 40740: u8 [s1 + 1] = a4\n 40743: u8 [s1] = a3\n 40745: a3 = a2 >>64 56\n 40748: u8 [s1 + 15] = a3\n 40751: a3 = a2 >>64 48\n 40754: u8 [s1 + 14] = a3\n 40757: a3 = a2 >>64 40\n 40760: u8 [s1 + 13] = a3\n 40763: a3 = a2 >>64 32\n 40766: u8 [s1 + 12] = a3\n 40769: a3 = a2 >>64 24\n 40772: u8 [s1 + 11] = a3\n 40775: a3 = a2 >>64 16\n 40778: u8 [s1 + 10] = a3\n 40781: u8 [s1 + 8] = a2\n 40784: a2 = a2 >>64 8\n 40787: u8 [s1 + 9] = a2\n 40790: a2 = a1 >>64 56\n 40793: u8 [s1 + 23] = a2\n 40796: a2 = a1 >>64 48\n 40799: u8 [s1 + 22] = a2\n 40802: a2 = a1 >>64 40\n 40805: u8 [s1 + 21] = a2\n 40808: a2 = a1 >>64 32\n 40811: u8 [s1 + 20] = a2\n 40814: a2 = a1 >>64 24\n 40817: u8 [s1 + 19] = a2\n 40820: a2 = a1 >>64 16\n 40823: u8 [s1 + 18] = a2\n 40826: u8 [s1 + 16] = a1\n 40829: u8 [s1 + 24] = a0\n 40832: a1 = a1 >>64 8\n 40835: u8 [s1 + 17] = a1\n 40838: a1 = a0 >>64 56\n 40841: u8 [s1 + 31] = a1\n 40844: a1 = a0 >>64 48\n 40847: u8 [s1 + 30] = a1\n 40850: a1 = a0 >>64 40\n 40853: u8 [s1 + 29] = a1\n 40856: a1 = a0 >>64 32\n 40859: u8 [s1 + 28] = a1\n 40862: a1 = a0 >>64 24\n 40865: u8 [s1 + 27] = a1\n 40868: a1 = a0 >>64 16\n 40871: u8 [s1 + 26] = a1\n 40874: a0 = a0 >>64 8\n 40877: a1 = u64 [sp + 608]\n 40881: i64 a1 = i64 a1 - i64 128\n 40884: a2 = u64 [sp + 544]\n 40888: a1 = a2 <u a1\n 40891: a2 = u64 [sp + 584]\n 40895: a1 = 0 if a2 != 0\n 40897: a2 = u64 [sp + 520]\n 40901: a1 = 0 if a2 != 0\n 40903: u8 [s1 + 25] = a0\n 40906: jump @902 if a1 != 0\n      : @901 (gas: 1)\n 40909: jump @699\n      : @902 (gas: 5)\n 40912: a0 = u64 [sp + 600]\n 40916: s1 = a0 + 0x80\n 40920: a1 = 0x20\n 40923: a0 = s1\n 40925: ra = 602, jump @0\n      : @903 [@dyn 301] (gas: 1)\n 40932: jump @905 if a0 != 0\n      : @904 (gas: 1)\n 40935: jump @699\n      : @905 (gas: 12)\n 40938: a0 = u64 [sp + 608]\n 40942: i64 a0 = i64 a0 - i64 129\n 40946: a1 = u64 [sp + 624]\n 40950: a0 = a0 <u a1\n 40953: a1 = u64 [sp + 616]\n 40957: a2 = u64 [sp + 528]\n 40961: a0 = a2 if a1 != 0\n 40964: a1 = u64 [sp + 512]\n 40968: a2 = u64 [sp + 536]\n 40972: a0 = a2 if a1 != 0\n 40975: a1 = u64 [sp + 592]\n 40979: jump @907 if a0 == 0\n      : @906 (gas: 1)\n 40982: jump @699\n      : @907 (gas: 69)\n 40985: a0 = u64 [sp + 632]\n 40989: i64 a0 = a0 + s1\n 40992: a2 = u8 [a0 + 24]\n 40995: u64 [sp + 264] = a2\n 40999: s1 = u8 [a0 + 25]\n 41002: a2 = u8 [a0 + 26]\n 41005: u64 [sp + 248] = a2\n 41009: a2 = u8 [a0 + 27]\n 41012: u64 [sp + 240] = a2\n 41016: a2 = u8 [a0 + 28]\n 41019: u64 [sp + 288] = a2\n 41023: a2 = u8 [a0 + 29]\n 41026: u64 [sp + 256] = a2\n 41030: a2 = u8 [a0 + 30]\n 41033: u64 [sp + 280] = a2\n 41037: a2 = u8 [a0 + 31]\n 41040: u64 [sp + 272] = a2\n 41044: a2 = u8 [a0 + 16]\n 41047: u64 [sp + 328] = a2\n 41051: a2 = u8 [a0 + 17]\n 41054: u64 [sp + 296] = a2\n 41058: a2 = u8 [a0 + 18]\n 41061: u64 [sp + 312] = a2\n 41065: a2 = u8 [a0 + 19]\n 41068: u64 [sp + 304] = a2\n 41072: a2 = u8 [a0 + 20]\n 41075: u64 [sp + 352] = a2\n 41079: a2 = u8 [a0 + 21]\n 41082: u64 [sp + 320] = a2\n 41086: a2 = u8 [a0 + 22]\n 41089: u64 [sp + 344] = a2\n 41093: a2 = u8 [a0 + 23]\n 41096: u64 [sp + 336] = a2\n 41100: a2 = u8 [a0 + 8]\n 41103: u64 [sp + 392] = a2\n 41107: a2 = u8 [a0 + 9]\n 41110: u64 [sp + 360] = a2\n 41114: a2 = u8 [a0 + 10]\n 41117: u64 [sp + 376] = a2\n 41121: a2 = u8 [a0 + 11]\n 41124: u64 [sp + 368] = a2\n 41128: a2 = u8 [a0 + 12]\n 41131: u64 [sp + 416] = a2\n 41135: a2 = u8 [a0 + 13]\n 41138: u64 [sp + 384] = a2\n 41142: a2 = u8 [a0 + 14]\n 41145: u64 [sp + 408] = a2\n 41149: a2 = u8 [a0 + 15]\n 41152: u64 [sp + 400] = a2\n 41156: a2 = u8 [a0]\n 41158: u64 [sp + 456] = a2\n 41162: a2 = u8 [a0 + 1]\n 41165: u64 [sp + 424] = a2\n 41169: a2 = u8 [a0 + 2]\n 41172: u64 [sp + 440] = a2\n 41176: a2 = u8 [a0 + 3]\n 41179: u64 [sp + 432] = a2\n 41183: a2 = u8 [a0 + 4]\n 41186: u64 [sp + 480] = a2\n 41190: a2 = u8 [a0 + 5]\n 41193: u64 [sp + 448] = a2\n 41197: a2 = u8 [a0 + 6]\n 41200: u64 [sp + 472] = a2\n 41204: a0 = u8 [a0 + 7]\n 41207: u64 [sp + 464] = a0\n 41211: a0 = a1 + 0x80\n 41215: a1 = 0x20\n 41218: u64 [sp + 496] = a0\n 41222: ra = 604, jump @0\n      : @908 [@dyn 302] (gas: 1)\n 41229: jump @910 if a0 != 0\n      : @909 (gas: 1)\n 41232: jump @699\n      : @910 (gas: 159)\n 41235: s1 = s1 <<64 8\n 41238: a0 = u64 [sp + 264]\n 41242: a0 = a0 | s1\n 41245: a1 = u64 [sp + 248]\n 41249: a1 = a1 <<64 16\n 41252: a2 = u64 [sp + 240]\n 41256: a2 = a2 <<64 24\n 41259: a1 = a1 | a2\n 41262: a0 = a0 | a1\n 41265: a1 = u64 [sp + 256]\n 41269: a1 = a1 <<64 8\n 41272: a2 = u64 [sp + 288]\n 41276: a1 = a1 | a2\n 41279: a2 = u64 [sp + 280]\n 41283: a2 = a2 <<64 16\n 41286: a3 = u64 [sp + 272]\n 41290: a3 = a3 <<64 24\n 41293: a2 = a2 | a3\n 41296: a1 = a1 | a2\n 41299: a1 = a1 <<64 32\n 41302: a0 = a0 | a1\n 41305: a1 = u64 [sp + 296]\n 41309: a1 = a1 <<64 8\n 41312: a2 = u64 [sp + 328]\n 41316: a1 = a1 | a2\n 41319: a2 = u64 [sp + 312]\n 41323: a2 = a2 <<64 16\n 41326: a3 = u64 [sp + 304]\n 41330: a3 = a3 <<64 24\n 41333: a2 = a2 | a3\n 41336: a1 = a1 | a2\n 41339: a2 = u64 [sp + 320]\n 41343: a2 = a2 <<64 8\n 41346: a3 = u64 [sp + 352]\n 41350: a2 = a2 | a3\n 41353: a3 = u64 [sp + 344]\n 41357: a3 = a3 <<64 16\n 41360: a4 = u64 [sp + 336]\n 41364: a4 = a4 <<64 24\n 41367: a3 = a3 | a4\n 41370: a2 = a2 | a3\n 41373: a2 = a2 <<64 32\n 41376: a1 = a1 | a2\n 41379: a2 = u64 [sp + 360]\n 41383: a2 = a2 <<64 8\n 41386: a3 = u64 [sp + 392]\n 41390: a2 = a2 | a3\n 41393: a3 = u64 [sp + 376]\n 41397: a3 = a3 <<64 16\n 41400: a4 = u64 [sp + 368]\n 41404: a4 = a4 <<64 24\n 41407: a3 = a3 | a4\n 41410: a2 = a2 | a3\n 41413: a3 = u64 [sp + 384]\n 41417: a3 = a3 <<64 8\n 41420: a4 = u64 [sp + 416]\n 41424: a3 = a3 | a4\n 41427: a4 = u64 [sp + 408]\n 41431: a4 = a4 <<64 16\n 41434: a5 = u64 [sp + 400]\n 41438: a5 = a5 <<64 24\n 41441: a4 = a4 | a5\n 41444: a3 = a3 | a4\n 41447: a3 = a3 <<64 32\n 41450: a2 = a2 | a3\n 41453: a3 = u64 [sp + 424]\n 41457: a3 = a3 <<64 8\n 41460: a4 = u64 [sp + 456]\n 41464: a3 = a3 | a4\n 41467: a4 = u64 [sp + 440]\n 41471: a4 = a4 <<64 16\n 41474: a5 = u64 [sp + 432]\n 41478: a5 = a5 <<64 24\n 41481: a4 = a4 | a5\n 41484: a3 = a3 | a4\n 41487: a4 = u64 [sp + 448]\n 41491: a4 = a4 <<64 8\n 41494: a5 = u64 [sp + 480]\n 41498: a4 = a4 | a5\n 41501: a5 = u64 [sp + 472]\n 41505: a5 = a5 <<64 16\n 41508: s1 = u64 [sp + 464]\n 41512: s1 = s1 <<64 24\n 41515: a5 = a5 | s1\n 41518: a4 = a4 | a5\n 41521: a4 = a4 <<64 32\n 41524: a3 = a3 | a4\n 41527: s1 = u64 [sp + 632]\n 41531: a4 = u64 [sp + 496]\n 41535: i64 s1 = s1 + a4\n 41538: a4 = a3 >>64 56\n 41541: u8 [s1 + 7] = a4\n 41544: a4 = a3 >>64 48\n 41547: u8 [s1 + 6] = a4\n 41550: a4 = a3 >>64 40\n 41553: u8 [s1 + 5] = a4\n 41556: a4 = a3 >>64 32\n 41559: u8 [s1 + 4] = a4\n 41562: a4 = a3 >>64 24\n 41565: u8 [s1 + 3] = a4\n 41568: a4 = a3 >>64 16\n 41571: u8 [s1 + 2] = a4\n 41574: a4 = a3 >>64 8\n 41577: u8 [s1 + 1] = a4\n 41580: u8 [s1] = a3\n 41582: a3 = a2 >>64 56\n 41585: u8 [s1 + 15] = a3\n 41588: a3 = a2 >>64 48\n 41591: u8 [s1 + 14] = a3\n 41594: a3 = a2 >>64 40\n 41597: u8 [s1 + 13] = a3\n 41600: a3 = a2 >>64 32\n 41603: u8 [s1 + 12] = a3\n 41606: a3 = a2 >>64 24\n 41609: u8 [s1 + 11] = a3\n 41612: a3 = a2 >>64 16\n 41615: u8 [s1 + 10] = a3\n 41618: u8 [s1 + 8] = a2\n 41621: a2 = a2 >>64 8\n 41624: u8 [s1 + 9] = a2\n 41627: a2 = a1 >>64 56\n 41630: u8 [s1 + 23] = a2\n 41633: a2 = a1 >>64 48\n 41636: u8 [s1 + 22] = a2\n 41639: a2 = a1 >>64 40\n 41642: u8 [s1 + 21] = a2\n 41645: a2 = a1 >>64 32\n 41648: u8 [s1 + 20] = a2\n 41651: a2 = a1 >>64 24\n 41654: u8 [s1 + 19] = a2\n 41657: a2 = a1 >>64 16\n 41660: u8 [s1 + 18] = a2\n 41663: u8 [s1 + 16] = a1\n 41666: u8 [s1 + 24] = a0\n 41669: a1 = a1 >>64 8\n 41672: u8 [s1 + 17] = a1\n 41675: a1 = a0 >>64 56\n 41678: u8 [s1 + 31] = a1\n 41681: a1 = a0 >>64 48\n 41684: u8 [s1 + 30] = a1\n 41687: a1 = a0 >>64 40\n 41690: u8 [s1 + 29] = a1\n 41693: a1 = a0 >>64 32\n 41696: u8 [s1 + 28] = a1\n 41699: a1 = a0 >>64 24\n 41702: u8 [s1 + 27] = a1\n 41705: a1 = a0 >>64 16\n 41708: u8 [s1 + 26] = a1\n 41711: a0 = a0 >>64 8\n 41714: a1 = u64 [sp + 608]\n 41718: i64 a1 = i64 a1 - i64 160\n 41722: a2 = u64 [sp + 544]\n 41726: a1 = a2 <u a1\n 41729: a2 = u64 [sp + 584]\n 41733: a1 = 0 if a2 != 0\n 41735: a2 = u64 [sp + 520]\n 41739: a1 = 0 if a2 != 0\n 41741: u8 [s1 + 25] = a0\n 41744: jump @912 if a1 != 0\n      : @911 (gas: 1)\n 41747: jump @699\n      : @912 (gas: 5)\n 41750: a0 = u64 [sp + 600]\n 41754: s1 = a0 + 0xa0\n 41758: a1 = 0x20\n 41761: a0 = s1\n 41763: ra = 606, jump @0\n      : @913 [@dyn 303] (gas: 1)\n 41770: jump @915 if a0 != 0\n      : @914 (gas: 1)\n 41773: jump @699\n      : @915 (gas: 12)\n 41776: a0 = u64 [sp + 608]\n 41780: i64 a0 = i64 a0 - i64 161\n 41784: a1 = u64 [sp + 624]\n 41788: a0 = a0 <u a1\n 41791: a1 = u64 [sp + 616]\n 41795: a2 = u64 [sp + 528]\n 41799: a0 = a2 if a1 != 0\n 41802: a1 = u64 [sp + 512]\n 41806: a2 = u64 [sp + 536]\n 41810: a0 = a2 if a1 != 0\n 41813: a1 = u64 [sp + 592]\n 41817: jump @917 if a0 == 0\n      : @916 (gas: 1)\n 41820: jump @699\n      : @917 (gas: 69)\n 41823: a0 = u64 [sp + 632]\n 41827: i64 a0 = a0 + s1\n 41830: a2 = u8 [a0 + 24]\n 41833: u64 [sp + 264] = a2\n 41837: s1 = u8 [a0 + 25]\n 41840: a2 = u8 [a0 + 26]\n 41843: u64 [sp + 248] = a2\n 41847: a2 = u8 [a0 + 27]\n 41850: u64 [sp + 240] = a2\n 41854: a2 = u8 [a0 + 28]\n 41857: u64 [sp + 288] = a2\n 41861: a2 = u8 [a0 + 29]\n 41864: u64 [sp + 256] = a2\n 41868: a2 = u8 [a0 + 30]\n 41871: u64 [sp + 280] = a2\n 41875: a2 = u8 [a0 + 31]\n 41878: u64 [sp + 272] = a2\n 41882: a2 = u8 [a0 + 16]\n 41885: u64 [sp + 328] = a2\n 41889: a2 = u8 [a0 + 17]\n 41892: u64 [sp + 296] = a2\n 41896: a2 = u8 [a0 + 18]\n 41899: u64 [sp + 312] = a2\n 41903: a2 = u8 [a0 + 19]\n 41906: u64 [sp + 304] = a2\n 41910: a2 = u8 [a0 + 20]\n 41913: u64 [sp + 352] = a2\n 41917: a2 = u8 [a0 + 21]\n 41920: u64 [sp + 320] = a2\n 41924: a2 = u8 [a0 + 22]\n 41927: u64 [sp + 344] = a2\n 41931: a2 = u8 [a0 + 23]\n 41934: u64 [sp + 336] = a2\n 41938: a2 = u8 [a0 + 8]\n 41941: u64 [sp + 392] = a2\n 41945: a2 = u8 [a0 + 9]\n 41948: u64 [sp + 360] = a2\n 41952: a2 = u8 [a0 + 10]\n 41955: u64 [sp + 376] = a2\n 41959: a2 = u8 [a0 + 11]\n 41962: u64 [sp + 368] = a2\n 41966: a2 = u8 [a0 + 12]\n 41969: u64 [sp + 416] = a2\n 41973: a2 = u8 [a0 + 13]\n 41976: u64 [sp + 384] = a2\n 41980: a2 = u8 [a0 + 14]\n 41983: u64 [sp + 408] = a2\n 41987: a2 = u8 [a0 + 15]\n 41990: u64 [sp + 400] = a2\n 41994: a2 = u8 [a0]\n 41996: u64 [sp + 456] = a2\n 42000: a2 = u8 [a0 + 1]\n 42003: u64 [sp + 424] = a2\n 42007: a2 = u8 [a0 + 2]\n 42010: u64 [sp + 440] = a2\n 42014: a2 = u8 [a0 + 3]\n 42017: u64 [sp + 432] = a2\n 42021: a2 = u8 [a0 + 4]\n 42024: u64 [sp + 480] = a2\n 42028: a2 = u8 [a0 + 5]\n 42031: u64 [sp + 448] = a2\n 42035: a2 = u8 [a0 + 6]\n 42038: u64 [sp + 472] = a2\n 42042: a0 = u8 [a0 + 7]\n 42045: u64 [sp + 464] = a0\n 42049: a0 = a1 + 0xa0\n 42053: a1 = 0x20\n 42056: u64 [sp + 496] = a0\n 42060: ra = 608, jump @0\n      : @918 [@dyn 304] (gas: 1)\n 42067: jump @920 if a0 != 0\n      : @919 (gas: 1)\n 42070: jump @699\n      : @920 (gas: 159)\n 42073: s1 = s1 <<64 8\n 42076: a0 = u64 [sp + 264]\n 42080: a0 = a0 | s1\n 42083: a1 = u64 [sp + 248]\n 42087: a1 = a1 <<64 16\n 42090: a2 = u64 [sp + 240]\n 42094: a2 = a2 <<64 24\n 42097: a1 = a1 | a2\n 42100: a0 = a0 | a1\n 42103: a1 = u64 [sp + 256]\n 42107: a1 = a1 <<64 8\n 42110: a2 = u64 [sp + 288]\n 42114: a1 = a1 | a2\n 42117: a2 = u64 [sp + 280]\n 42121: a2 = a2 <<64 16\n 42124: a3 = u64 [sp + 272]\n 42128: a3 = a3 <<64 24\n 42131: a2 = a2 | a3\n 42134: a1 = a1 | a2\n 42137: a1 = a1 <<64 32\n 42140: a0 = a0 | a1\n 42143: a1 = u64 [sp + 296]\n 42147: a1 = a1 <<64 8\n 42150: a2 = u64 [sp + 328]\n 42154: a1 = a1 | a2\n 42157: a2 = u64 [sp + 312]\n 42161: a2 = a2 <<64 16\n 42164: a3 = u64 [sp + 304]\n 42168: a3 = a3 <<64 24\n 42171: a2 = a2 | a3\n 42174: a1 = a1 | a2\n 42177: a2 = u64 [sp + 320]\n 42181: a2 = a2 <<64 8\n 42184: a3 = u64 [sp + 352]\n 42188: a2 = a2 | a3\n 42191: a3 = u64 [sp + 344]\n 42195: a3 = a3 <<64 16\n 42198: a4 = u64 [sp + 336]\n 42202: a4 = a4 <<64 24\n 42205: a3 = a3 | a4\n 42208: a2 = a2 | a3\n 42211: a2 = a2 <<64 32\n 42214: a1 = a1 | a2\n 42217: a2 = u64 [sp + 360]\n 42221: a2 = a2 <<64 8\n 42224: a3 = u64 [sp + 392]\n 42228: a2 = a2 | a3\n 42231: a3 = u64 [sp + 376]\n 42235: a3 = a3 <<64 16\n 42238: a4 = u64 [sp + 368]\n 42242: a4 = a4 <<64 24\n 42245: a3 = a3 | a4\n 42248: a2 = a2 | a3\n 42251: a3 = u64 [sp + 384]\n 42255: a3 = a3 <<64 8\n 42258: a4 = u64 [sp + 416]\n 42262: a3 = a3 | a4\n 42265: a4 = u64 [sp + 408]\n 42269: a4 = a4 <<64 16\n 42272: a5 = u64 [sp + 400]\n 42276: a5 = a5 <<64 24\n 42279: a4 = a4 | a5\n 42282: a3 = a3 | a4\n 42285: a3 = a3 <<64 32\n 42288: a2 = a2 | a3\n 42291: a3 = u64 [sp + 424]\n 42295: a3 = a3 <<64 8\n 42298: a4 = u64 [sp + 456]\n 42302: a3 = a3 | a4\n 42305: a4 = u64 [sp + 440]\n 42309: a4 = a4 <<64 16\n 42312: a5 = u64 [sp + 432]\n 42316: a5 = a5 <<64 24\n 42319: a4 = a4 | a5\n 42322: a3 = a3 | a4\n 42325: a4 = u64 [sp + 448]\n 42329: a4 = a4 <<64 8\n 42332: a5 = u64 [sp + 480]\n 42336: a4 = a4 | a5\n 42339: a5 = u64 [sp + 472]\n 42343: a5 = a5 <<64 16\n 42346: s1 = u64 [sp + 464]\n 42350: s1 = s1 <<64 24\n 42353: a5 = a5 | s1\n 42356: a4 = a4 | a5\n 42359: a4 = a4 <<64 32\n 42362: a3 = a3 | a4\n 42365: s1 = u64 [sp + 632]\n 42369: a4 = u64 [sp + 496]\n 42373: i64 s1 = s1 + a4\n 42376: a4 = a3 >>64 56\n 42379: u8 [s1 + 7] = a4\n 42382: a4 = a3 >>64 48\n 42385: u8 [s1 + 6] = a4\n 42388: a4 = a3 >>64 40\n 42391: u8 [s1 + 5] = a4\n 42394: a4 = a3 >>64 32\n 42397: u8 [s1 + 4] = a4\n 42400: a4 = a3 >>64 24\n 42403: u8 [s1 + 3] = a4\n 42406: a4 = a3 >>64 16\n 42409: u8 [s1 + 2] = a4\n 42412: a4 = a3 >>64 8\n 42415: u8 [s1 + 1] = a4\n 42418: u8 [s1] = a3\n 42420: a3 = a2 >>64 56\n 42423: u8 [s1 + 15] = a3\n 42426: a3 = a2 >>64 48\n 42429: u8 [s1 + 14] = a3\n 42432: a3 = a2 >>64 40\n 42435: u8 [s1 + 13] = a3\n 42438: a3 = a2 >>64 32\n 42441: u8 [s1 + 12] = a3\n 42444: a3 = a2 >>64 24\n 42447: u8 [s1 + 11] = a3\n 42450: a3 = a2 >>64 16\n 42453: u8 [s1 + 10] = a3\n 42456: u8 [s1 + 8] = a2\n 42459: a2 = a2 >>64 8\n 42462: u8 [s1 + 9] = a2\n 42465: a2 = a1 >>64 56\n 42468: u8 [s1 + 23] = a2\n 42471: a2 = a1 >>64 48\n 42474: u8 [s1 + 22] = a2\n 42477: a2 = a1 >>64 40\n 42480: u8 [s1 + 21] = a2\n 42483: a2 = a1 >>64 32\n 42486: u8 [s1 + 20] = a2\n 42489: a2 = a1 >>64 24\n 42492: u8 [s1 + 19] = a2\n 42495: a2 = a1 >>64 16\n 42498: u8 [s1 + 18] = a2\n 42501: u8 [s1 + 16] = a1\n 42504: u8 [s1 + 24] = a0\n 42507: a1 = a1 >>64 8\n 42510: u8 [s1 + 17] = a1\n 42513: a1 = a0 >>64 56\n 42516: u8 [s1 + 31] = a1\n 42519: a1 = a0 >>64 48\n 42522: u8 [s1 + 30] = a1\n 42525: a1 = a0 >>64 40\n 42528: u8 [s1 + 29] = a1\n 42531: a1 = a0 >>64 32\n 42534: u8 [s1 + 28] = a1\n 42537: a1 = a0 >>64 24\n 42540: u8 [s1 + 27] = a1\n 42543: a1 = a0 >>64 16\n 42546: u8 [s1 + 26] = a1\n 42549: a0 = a0 >>64 8\n 42552: a1 = u64 [sp + 608]\n 42556: i64 a1 = i64 a1 - i64 192\n 42560: a2 = u64 [sp + 544]\n 42564: a1 = a2 <u a1\n 42567: a2 = u64 [sp + 584]\n 42571: a1 = 0 if a2 != 0\n 42573: a2 = u64 [sp + 520]\n 42577: a1 = 0 if a2 != 0\n 42579: u8 [s1 + 25] = a0\n 42582: jump @922 if a1 != 0\n      : @921 (gas: 1)\n 42585: jump @699\n      : @922 (gas: 5)\n 42588: a0 = u64 [sp + 600]\n 42592: s1 = a0 + 0xc0\n 42596: a1 = 0x20\n 42599: a0 = s1\n 42601: ra = 610, jump @0\n      : @923 [@dyn 305] (gas: 1)\n 42608: jump @925 if a0 != 0\n      : @924 (gas: 1)\n 42611: jump @699\n      : @925 (gas: 12)\n 42614: a0 = u64 [sp + 608]\n 42618: i64 a0 = i64 a0 - i64 193\n 42622: a1 = u64 [sp + 624]\n 42626: a0 = a0 <u a1\n 42629: a1 = u64 [sp + 616]\n 42633: a2 = u64 [sp + 528]\n 42637: a0 = a2 if a1 != 0\n 42640: a1 = u64 [sp + 512]\n 42644: a2 = u64 [sp + 536]\n 42648: a0 = a2 if a1 != 0\n 42651: a1 = u64 [sp + 592]\n 42655: jump @927 if a0 == 0\n      : @926 (gas: 1)\n 42658: jump @699\n      : @927 (gas: 69)\n 42661: a0 = u64 [sp + 632]\n 42665: i64 a0 = a0 + s1\n 42668: a2 = u8 [a0 + 24]\n 42671: u64 [sp + 264] = a2\n 42675: s1 = u8 [a0 + 25]\n 42678: a2 = u8 [a0 + 26]\n 42681: u64 [sp + 248] = a2\n 42685: a2 = u8 [a0 + 27]\n 42688: u64 [sp + 240] = a2\n 42692: a2 = u8 [a0 + 28]\n 42695: u64 [sp + 288] = a2\n 42699: a2 = u8 [a0 + 29]\n 42702: u64 [sp + 256] = a2\n 42706: a2 = u8 [a0 + 30]\n 42709: u64 [sp + 280] = a2\n 42713: a2 = u8 [a0 + 31]\n 42716: u64 [sp + 272] = a2\n 42720: a2 = u8 [a0 + 16]\n 42723: u64 [sp + 328] = a2\n 42727: a2 = u8 [a0 + 17]\n 42730: u64 [sp + 296] = a2\n 42734: a2 = u8 [a0 + 18]\n 42737: u64 [sp + 312] = a2\n 42741: a2 = u8 [a0 + 19]\n 42744: u64 [sp + 304] = a2\n 42748: a2 = u8 [a0 + 20]\n 42751: u64 [sp + 352] = a2\n 42755: a2 = u8 [a0 + 21]\n 42758: u64 [sp + 320] = a2\n 42762: a2 = u8 [a0 + 22]\n 42765: u64 [sp + 344] = a2\n 42769: a2 = u8 [a0 + 23]\n 42772: u64 [sp + 336] = a2\n 42776: a2 = u8 [a0 + 8]\n 42779: u64 [sp + 392] = a2\n 42783: a2 = u8 [a0 + 9]\n 42786: u64 [sp + 360] = a2\n 42790: a2 = u8 [a0 + 10]\n 42793: u64 [sp + 376] = a2\n 42797: a2 = u8 [a0 + 11]\n 42800: u64 [sp + 368] = a2\n 42804: a2 = u8 [a0 + 12]\n 42807: u64 [sp + 416] = a2\n 42811: a2 = u8 [a0 + 13]\n 42814: u64 [sp + 384] = a2\n 42818: a2 = u8 [a0 + 14]\n 42821: u64 [sp + 408] = a2\n 42825: a2 = u8 [a0 + 15]\n 42828: u64 [sp + 400] = a2\n 42832: a2 = u8 [a0]\n 42834: u64 [sp + 456] = a2\n 42838: a2 = u8 [a0 + 1]\n 42841: u64 [sp + 424] = a2\n 42845: a2 = u8 [a0 + 2]\n 42848: u64 [sp + 440] = a2\n 42852: a2 = u8 [a0 + 3]\n 42855: u64 [sp + 432] = a2\n 42859: a2 = u8 [a0 + 4]\n 42862: u64 [sp + 480] = a2\n 42866: a2 = u8 [a0 + 5]\n 42869: u64 [sp + 448] = a2\n 42873: a2 = u8 [a0 + 6]\n 42876: u64 [sp + 472] = a2\n 42880: a0 = u8 [a0 + 7]\n 42883: u64 [sp + 464] = a0\n 42887: a0 = a1 + 0xc0\n 42891: a1 = 0x20\n 42894: u64 [sp + 496] = a0\n 42898: ra = 612, jump @0\n      : @928 [@dyn 306] (gas: 1)\n 42905: jump @930 if a0 != 0\n      : @929 (gas: 1)\n 42908: jump @699\n      : @930 (gas: 135)\n 42911: s1 = s1 <<64 8\n 42914: a0 = u64 [sp + 264]\n 42918: a0 = a0 | s1\n 42921: a1 = u64 [sp + 248]\n 42925: a1 = a1 <<64 16\n 42928: a2 = u64 [sp + 240]\n 42932: a2 = a2 <<64 24\n 42935: a1 = a1 | a2\n 42938: a0 = a0 | a1\n 42941: a1 = u64 [sp + 256]\n 42945: a1 = a1 <<64 8\n 42948: a2 = u64 [sp + 288]\n 42952: a1 = a1 | a2\n 42955: a2 = u64 [sp + 280]\n 42959: a2 = a2 <<64 16\n 42962: a3 = u64 [sp + 272]\n 42966: a3 = a3 <<64 24\n 42969: a2 = a2 | a3\n 42972: a1 = a1 | a2\n 42975: a1 = a1 <<64 32\n 42978: a0 = a0 | a1\n 42981: a1 = u64 [sp + 296]\n 42985: a1 = a1 <<64 8\n 42988: a2 = u64 [sp + 328]\n 42992: a1 = a1 | a2\n 42995: a2 = u64 [sp + 312]\n 42999: a2 = a2 <<64 16\n 43002: a3 = u64 [sp + 304]\n 43006: a3 = a3 <<64 24\n 43009: a2 = a2 | a3\n 43012: a1 = a1 | a2\n 43015: a2 = u64 [sp + 320]\n 43019: a2 = a2 <<64 8\n 43022: a3 = u64 [sp + 352]\n 43026: a2 = a2 | a3\n 43029: a3 = u64 [sp + 344]\n 43033: a3 = a3 <<64 16\n 43036: a4 = u64 [sp + 336]\n 43040: a4 = a4 <<64 24\n 43043: a3 = a3 | a4\n 43046: a2 = a2 | a3\n 43049: a2 = a2 <<64 32\n 43052: a1 = a1 | a2\n 43055: a2 = u64 [sp + 360]\n 43059: a2 = a2 <<64 8\n 43062: a3 = u64 [sp + 392]\n 43066: a2 = a2 | a3\n 43069: a3 = u64 [sp + 376]\n 43073: a3 = a3 <<64 16\n 43076: a4 = u64 [sp + 368]\n 43080: a4 = a4 <<64 24\n 43083: a3 = a3 | a4\n 43086: a2 = a2 | a3\n 43089: a3 = u64 [sp + 384]\n 43093: a3 = a3 <<64 8\n 43096: a4 = u64 [sp + 416]\n 43100: a3 = a3 | a4\n 43103: a4 = u64 [sp + 408]\n 43107: a4 = a4 <<64 16\n 43110: a5 = u64 [sp + 400]\n 43114: a5 = a5 <<64 24\n 43117: a4 = a4 | a5\n 43120: a3 = a3 | a4\n 43123: a3 = a3 <<64 32\n 43126: a2 = a2 | a3\n 43129: a3 = u64 [sp + 424]\n 43133: a3 = a3 <<64 8\n 43136: a4 = u64 [sp + 456]\n 43140: a3 = a3 | a4\n 43143: a4 = u64 [sp + 440]\n 43147: a4 = a4 <<64 16\n 43150: a5 = u64 [sp + 432]\n 43154: a5 = a5 <<64 24\n 43157: a4 = a4 | a5\n 43160: a3 = a3 | a4\n 43163: a4 = u64 [sp + 448]\n 43167: a4 = a4 <<64 8\n 43170: a5 = u64 [sp + 480]\n 43174: a4 = a4 | a5\n 43177: a5 = u64 [sp + 472]\n 43181: a5 = a5 <<64 16\n 43184: s1 = u64 [sp + 464]\n 43188: s1 = s1 <<64 24\n 43191: a5 = a5 | s1\n 43194: a4 = a4 | a5\n 43197: a4 = a4 <<64 32\n 43200: a3 = a3 | a4\n 43203: a1 = a1 | a3\n 43206: a0 = a0 | a2\n 43209: a0 = a0 | a1\n 43212: a0 = a0 >u 0x0\n 43214: s1 = u64 [sp + 632]\n 43218: a1 = u64 [sp + 496]\n 43222: i64 s1 = s1 + a1\n 43225: u8 [s1 + 31] = a0\n 43228: a0 = u64 [sp + 608]\n 43232: i64 a0 = i64 a0 - i64 224\n 43236: a1 = u64 [sp + 544]\n 43240: a0 = a1 <u a0\n 43243: a1 = u64 [sp + 584]\n 43247: a0 = 0 if a1 != 0\n 43249: a1 = u64 [sp + 520]\n 43253: a0 = 0 if a1 != 0\n 43255: u8 [s1 + 30] = 0\n 43258: u8 [s1 + 29] = 0\n 43261: u8 [s1 + 28] = 0\n 43264: u8 [s1 + 27] = 0\n 43267: u8 [s1 + 26] = 0\n 43270: u8 [s1 + 25] = 0\n 43273: u8 [s1 + 24] = 0\n 43276: u8 [s1 + 23] = 0\n 43279: u8 [s1 + 22] = 0\n 43282: u8 [s1 + 21] = 0\n 43285: u8 [s1 + 20] = 0\n 43288: u8 [s1 + 19] = 0\n 43291: u8 [s1 + 18] = 0\n 43294: u8 [s1 + 17] = 0\n 43297: u8 [s1 + 16] = 0\n 43300: u8 [s1 + 15] = 0\n 43303: u8 [s1 + 14] = 0\n 43306: u8 [s1 + 13] = 0\n 43309: u8 [s1 + 12] = 0\n 43312: u8 [s1 + 11] = 0\n 43315: u8 [s1 + 10] = 0\n 43318: u8 [s1 + 9] = 0\n 43321: u8 [s1 + 8] = 0\n 43324: u8 [s1 + 7] = 0\n 43327: u8 [s1 + 6] = 0\n 43330: u8 [s1 + 5] = 0\n 43333: u8 [s1 + 4] = 0\n 43336: u8 [s1 + 3] = 0\n 43339: u8 [s1 + 2] = 0\n 43342: u8 [s1 + 1] = 0\n 43345: u8 [s1 + 0] = 0\n 43347: jump @932 if a0 != 0\n      : @931 (gas: 1)\n 43350: jump @699\n      : @932 (gas: 5)\n 43353: a0 = u64 [sp + 600]\n 43357: s1 = a0 + 0xe0\n 43361: a1 = 0x20\n 43364: a0 = s1\n 43366: ra = 614, jump @0\n      : @933 [@dyn 307] (gas: 1)\n 43373: jump @935 if a0 != 0\n      : @934 (gas: 1)\n 43376: jump @699\n      : @935 (gas: 12)\n 43379: a0 = u64 [sp + 608]\n 43383: i64 a0 = i64 a0 - i64 225\n 43387: a1 = u64 [sp + 624]\n 43391: a0 = a0 <u a1\n 43394: a1 = u64 [sp + 616]\n 43398: a2 = u64 [sp + 528]\n 43402: a0 = a2 if a1 != 0\n 43405: a1 = u64 [sp + 512]\n 43409: a2 = u64 [sp + 536]\n 43413: a0 = a2 if a1 != 0\n 43416: a1 = u64 [sp + 592]\n 43420: jump @937 if a0 == 0\n      : @936 (gas: 1)\n 43423: jump @699\n      : @937 (gas: 69)\n 43426: a0 = u64 [sp + 632]\n 43430: i64 a0 = a0 + s1\n 43433: a2 = u8 [a0 + 24]\n 43436: u64 [sp + 336] = a2\n 43440: s1 = u8 [a0 + 25]\n 43443: a2 = u8 [a0 + 26]\n 43446: u64 [sp + 320] = a2\n 43450: a2 = u8 [a0 + 27]\n 43453: u64 [sp + 312] = a2\n 43457: a2 = u8 [a0 + 28]\n 43460: u64 [sp + 360] = a2\n 43464: a2 = u8 [a0 + 29]\n 43467: u64 [sp + 328] = a2\n 43471: a2 = u8 [a0 + 30]\n 43474: u64 [sp + 352] = a2\n 43478: a2 = u8 [a0 + 31]\n 43481: u64 [sp + 344] = a2\n 43485: a2 = u8 [a0 + 16]\n 43488: u64 [sp + 400] = a2\n 43492: a2 = u8 [a0 + 17]\n 43495: u64 [sp + 368] = a2\n 43499: a2 = u8 [a0 + 18]\n 43502: u64 [sp + 384] = a2\n 43506: a2 = u8 [a0 + 19]\n 43509: u64 [sp + 376] = a2\n 43513: a2 = u8 [a0 + 20]\n 43516: u64 [sp + 424] = a2\n 43520: a2 = u8 [a0 + 21]\n 43523: u64 [sp + 392] = a2\n 43527: a2 = u8 [a0 + 22]\n 43530: u64 [sp + 416] = a2\n 43534: a2 = u8 [a0 + 23]\n 43537: u64 [sp + 408] = a2\n 43541: a2 = u8 [a0 + 8]\n 43544: u64 [sp + 464] = a2\n 43548: a2 = u8 [a0 + 9]\n 43551: u64 [sp + 432] = a2\n 43555: a2 = u8 [a0 + 10]\n 43558: u64 [sp + 448] = a2\n 43562: a2 = u8 [a0 + 11]\n 43565: u64 [sp + 440] = a2\n 43569: a2 = u8 [a0 + 12]\n 43572: u64 [sp + 496] = a2\n 43576: a2 = u8 [a0 + 13]\n 43579: u64 [sp + 456] = a2\n 43583: a2 = u8 [a0 + 14]\n 43586: u64 [sp + 480] = a2\n 43590: a2 = u8 [a0 + 15]\n 43593: u64 [sp + 472] = a2\n 43597: a2 = u8 [a0]\n 43599: u64 [sp + 544] = a2\n 43603: a2 = u8 [a0 + 1]\n 43606: u64 [sp + 512] = a2\n 43610: a2 = u8 [a0 + 2]\n 43613: u64 [sp + 528] = a2\n 43617: a2 = u8 [a0 + 3]\n 43620: u64 [sp + 520] = a2\n 43624: a2 = u8 [a0 + 4]\n 43627: u64 [sp + 616] = a2\n 43631: a2 = u8 [a0 + 5]\n 43634: u64 [sp + 536] = a2\n 43638: a2 = u8 [a0 + 6]\n 43641: u64 [sp + 600] = a2\n 43645: a0 = u8 [a0 + 7]\n 43648: u64 [sp + 584] = a0\n 43652: a0 = a1 + 0xe0\n 43656: a1 = 0x20\n 43659: u64 [sp + 624] = a0\n 43663: ra = 616, jump @0\n      : @938 [@dyn 308] (gas: 4)\n 43670: t0 = u64 [sp + 192]\n 43674: t1 = u64 [sp + 176]\n 43678: t2 = u64 [sp + 184]\n 43682: jump @940 if a0 != 0\n      : @939 (gas: 1)\n 43685: jump @699\n      : @940 (gas: 221)\n 43688: a0 = u64 [sp + 560]\n 43692: a1 = u64 [sp + 488]\n 43696: a1 = a1 <u a0\n 43699: a0 = u64 [sp + 568]\n 43703: i64 a2 = a0 + a1\n 43706: u64 [sp + 592] = a2\n 43710: a2 = a2 <u a0\n 43713: a2 = a1 if a1 == 0\n 43716: a0 = u64 [sp + 552]\n 43720: i64 a2 = a2 + a0\n 43723: u64 [sp + 304] = a2\n 43727: a2 = a2 <u a0\n 43730: a0 = u64 [sp + 576]\n 43734: i64 a0 = a0 + a2\n 43737: u64 [sp + 576] = a0\n 43741: s1 = s1 <<64 8\n 43744: a2 = u64 [sp + 336]\n 43748: a2 = a2 | s1\n 43751: a3 = u64 [sp + 320]\n 43755: a3 = a3 <<64 16\n 43758: a4 = u64 [sp + 312]\n 43762: a4 = a4 <<64 24\n 43765: a3 = a3 | a4\n 43768: a2 = a2 | a3\n 43771: a3 = u64 [sp + 328]\n 43775: a3 = a3 <<64 8\n 43778: a0 = u64 [sp + 360]\n 43782: a3 = a3 | a0\n 43785: a4 = u64 [sp + 352]\n 43789: a4 = a4 <<64 16\n 43792: a5 = u64 [sp + 344]\n 43796: a5 = a5 <<64 24\n 43799: a4 = a4 | a5\n 43802: a3 = a3 | a4\n 43805: a3 = a3 <<64 32\n 43808: a2 = a2 | a3\n 43811: a3 = u64 [sp + 368]\n 43815: a3 = a3 <<64 8\n 43818: a0 = u64 [sp + 400]\n 43822: a3 = a3 | a0\n 43825: a4 = u64 [sp + 384]\n 43829: a4 = a4 <<64 16\n 43832: a5 = u64 [sp + 376]\n 43836: a5 = a5 <<64 24\n 43839: a4 = a4 | a5\n 43842: a3 = a3 | a4\n 43845: a4 = u64 [sp + 392]\n 43849: a4 = a4 <<64 8\n 43852: a0 = u64 [sp + 424]\n 43856: a4 = a4 | a0\n 43859: a5 = u64 [sp + 416]\n 43863: a5 = a5 <<64 16\n 43866: s1 = u64 [sp + 408]\n 43870: s1 = s1 <<64 24\n 43873: a5 = a5 | s1\n 43876: a4 = a4 | a5\n 43879: a4 = a4 <<64 32\n 43882: a3 = a3 | a4\n 43885: a4 = u64 [sp + 432]\n 43889: a4 = a4 <<64 8\n 43892: a0 = u64 [sp + 464]\n 43896: a4 = a4 | a0\n 43899: a5 = u64 [sp + 448]\n 43903: a5 = a5 <<64 16\n 43906: s1 = u64 [sp + 440]\n 43910: s1 = s1 <<64 24\n 43913: a5 = a5 | s1\n 43916: a4 = a4 | a5\n 43919: a5 = u64 [sp + 456]\n 43923: a5 = a5 <<64 8\n 43926: a0 = u64 [sp + 496]\n 43930: a5 = a5 | a0\n 43933: s1 = u64 [sp + 480]\n 43937: s1 = s1 <<64 16\n 43940: a0 = u64 [sp + 472]\n 43944: a0 = a0 <<64 24\n 43947: a0 = a0 | s1\n 43950: a0 = a0 | a5\n 43953: a0 = a0 <<64 32\n 43956: a4 = a4 | a0\n 43959: a0 = u64 [sp + 512]\n 43963: a0 = a0 <<64 8\n 43966: a1 = u64 [sp + 544]\n 43970: a0 = a0 | a1\n 43973: a5 = u64 [sp + 528]\n 43977: a5 = a5 <<64 16\n 43980: s1 = u64 [sp + 520]\n 43984: s1 = s1 <<64 24\n 43987: a5 = a5 | s1\n 43990: a0 = a0 | a5\n 43993: a5 = u64 [sp + 536]\n 43997: a5 = a5 <<64 8\n 44000: a1 = u64 [sp + 616]\n 44004: a5 = a5 | a1\n 44007: s1 = u64 [sp + 600]\n 44011: s1 = s1 <<64 16\n 44014: a1 = u64 [sp + 584]\n 44018: a1 = a1 <<64 24\n 44021: a1 = a1 | s1\n 44024: a1 = a1 | a5\n 44027: a1 = a1 <<64 32\n 44030: a0 = a0 | a1\n 44033: s1 = u64 [sp + 632]\n 44037: a1 = u64 [sp + 624]\n 44041: i64 s1 = s1 + a1\n 44044: a1 = a0 >>64 56\n 44047: u8 [s1 + 7] = a1\n 44050: a1 = a0 >>64 48\n 44053: u8 [s1 + 6] = a1\n 44056: a1 = a0 >>64 40\n 44059: u8 [s1 + 5] = a1\n 44062: a1 = a0 >>64 32\n 44065: u8 [s1 + 4] = a1\n 44068: a1 = a0 >>64 24\n 44071: u8 [s1 + 3] = a1\n 44074: a1 = a0 >>64 16\n 44077: u8 [s1 + 2] = a1\n 44080: a1 = a0 >>64 8\n 44083: u8 [s1 + 1] = a1\n 44086: u8 [s1] = a0\n 44088: a0 = a4 >>64 56\n 44091: u8 [s1 + 15] = a0\n 44094: a0 = a4 >>64 48\n 44097: u8 [s1 + 14] = a0\n 44100: a0 = a4 >>64 40\n 44103: u8 [s1 + 13] = a0\n 44106: a0 = a4 >>64 32\n 44109: u8 [s1 + 12] = a0\n 44112: a0 = a4 >>64 24\n 44115: u8 [s1 + 11] = a0\n 44118: a0 = a4 >>64 16\n 44121: u8 [s1 + 10] = a0\n 44124: u8 [s1 + 8] = a4\n 44127: u8 [s1 + 16] = a3\n 44130: a4 = a4 >>64 8\n 44133: u8 [s1 + 9] = a4\n 44136: u8 [s1 + 24] = a2\n 44139: a0 = a3 >>64 56\n 44142: u8 [s1 + 23] = a0\n 44145: a0 = a3 >>64 48\n 44148: u8 [s1 + 22] = a0\n 44151: a0 = a3 >>64 40\n 44154: u8 [s1 + 21] = a0\n 44157: a0 = a3 >>64 32\n 44160: u8 [s1 + 20] = a0\n 44163: a0 = a3 >>64 24\n 44166: u8 [s1 + 19] = a0\n 44169: a0 = a3 >>64 16\n 44172: u8 [s1 + 18] = a0\n 44175: a3 = a3 >>64 8\n 44178: u8 [s1 + 17] = a3\n 44181: a0 = a2 >>64 56\n 44184: u8 [s1 + 31] = a0\n 44187: a0 = a2 >>64 48\n 44190: u8 [s1 + 30] = a0\n 44193: a0 = a2 >>64 40\n 44196: u8 [s1 + 29] = a0\n 44199: a0 = a2 >>64 32\n 44202: u8 [s1 + 28] = a0\n 44205: a0 = a2 >>64 24\n 44208: u8 [s1 + 27] = a0\n 44211: a0 = a2 >>64 16\n 44214: u8 [s1 + 26] = a0\n 44217: a2 = a2 >>64 8\n 44220: u8 [s1 + 25] = a2\n 44223: a0 = u64 [sp + 136]\n 44227: i64 a1 = i64 a0 + 0x20\n 44230: u64 [sp + 600] = a1\n 44234: a0 = a1 <u a0\n 44237: a1 = u64 [sp + 144]\n 44241: i64 ra = a1 + a0\n 44244: a5 = ra <u a1\n 44247: a5 = a0 if a0 == 0\n 44250: i64 t0 = i64 t0 + 0x1\n 44253: a0 = t0 <u 0x1\n 44256: i64 t1 = t1 + a0\n 44259: a0 = t0 | t1\n 44262: a0 = a0 <u 0x1\n 44265: a1 = u64 [sp + 160]\n 44269: i64 a0 = a0 + a1\n 44272: a1 = a0 <u a1\n 44275: i64 t2 = t2 + a1\n 44278: a1 = u64 [sp + 88]\n 44281: u64 [sp + 192] = t0\n 44285: a1 = t0 <u a1\n 44288: a2 = u64 [sp + 128]\n 44292: a4 = t1 ^ a2\n 44295: s1 = t1 <u a2\n 44298: s1 = a1 if a4 == 0\n 44301: a1 = u64 [sp + 72]\n 44304: a3 = a0 <u a1\n 44307: a4 = u64 [sp + 80]\n 44310: a2 = t2 ^ a4\n 44313: u64 [sp + 184] = t2\n 44317: a4 = t2 <u a4\n 44320: a4 = a3 if a2 == 0\n 44323: a1 = a1 ^ a0\n 44326: a1 = a1 | a2\n 44329: a2 = u64 [sp + 152]\n 44333: i64 a5 = a5 + a2\n 44336: a2 = a5 <u a2\n 44339: a4 = s1 if a1 == 0\n 44342: a1 = u64 [sp + 168]\n 44346: i64 a1 = a1 + a2\n 44349: a2 = a0\n 44351: a0 = u64 [sp + 488]\n 44355: u64 [sp + 560] = a0\n 44359: a0 = u64 [sp + 592]\n 44363: u64 [sp + 568] = a0\n 44367: a0 = u64 [sp + 304]\n 44371: u64 [sp + 552] = a0\n 44375: a0 = u64 [sp + 232]\n 44379: u64 [sp + 624] = a0\n 44383: s1 = u64 [sp + 224]\n 44387: u64 [sp + 616] = s1\n 44391: t0 = u64 [sp + 208]\n 44395: u64 [sp + 536] = t0\n 44399: a3 = u64 [sp + 600]\n 44403: t2 = u64 [sp + 216]\n 44407: u64 [sp + 528] = t2\n 44411: jump @789 if a4 == 0\n      : @941 (gas: 1)\n 44415: jump @848\n      : @942 (gas: 6)\n 44418: a1 = s1 + 0x0\n 44420: a0 = 0x1\n 44423: a2 = 0x0\n 44425: ra = 0x26a\n 44429: ecalli 11 // 'seal_return'\n 44431: fallthrough\n      : @943 [@dyn 309] (gas: 5)\n 44432: i64 sp = i64 sp - i64 8\n 44435: u64 [sp] = ra\n 44437: a0 = 0x0\n 44439: a1 = 0x0\n 44441: ra = 620, jump @0\n      : @944 [@dyn 310] (gas: 1)\n 44448: jump @946 if a0 != 0\n      : @945 (gas: 1)\n 44451: trap\n      : @946 (gas: 7)\n 44452: a1 = 0x20050\n 44457: a1 = a1 + 0x0\n 44459: a0 = 0x1\n 44462: a2 = 0x0\n 44464: ra = 0x26e\n 44468: ecalli 11 // 'seal_return'\n 44470: fallthrough\n      : @947 [@dyn 311] (gas: 17)\n 44471: i64 sp = i64 sp - i64 96\n 44474: u64 [sp + 88] = ra\n 44477: u64 [sp + 80] = s0\n 44480: u64 [sp + 72] = s1\n 44483: s1 = a4\n 44485: a4 = a1\n 44487: u64 [sp + 64] = a2\n 44490: a1 = a2 | s1\n 44493: a2 = a4 | a3\n 44496: a2 = a2 | a1\n 44499: a2 = a2 >>64 32\n 44502: u64 [sp + 48] = a3\n 44505: a1 = a1 | a3\n 44508: a1 = a1 <<64 32\n 44511: a1 = a1 | a2\n 44514: u64 [sp + 32] = a0\n 44517: jump @957 if a1 != 0\n      : @948 (gas: 5)\n 44521: s0 = a4 + 0x0\n 44523: a1 = 0x20\n 44526: a0 = s0\n 44528: u64 [sp + 56] = a4\n 44531: ra = 624, jump @0\n      : @949 [@dyn 312] (gas: 1)\n 44538: jump @957 if a0 == 0\n      : @950 (gas: 52)\n 44542: a0 = 0x20050\n 44547: u64 [sp + 40] = a0\n 44550: i64 a0 = a0 + s0\n 44553: u8 [a0 + 31] = 32\n 44557: u8 [a0 + 30] = 0\n 44560: u8 [a0 + 29] = 0\n 44563: u8 [a0 + 28] = 0\n 44566: u8 [a0 + 27] = 0\n 44569: u8 [a0 + 26] = 0\n 44572: u8 [a0 + 25] = 0\n 44575: u8 [a0 + 24] = 0\n 44578: u8 [a0 + 23] = 0\n 44581: u8 [a0 + 22] = 0\n 44584: u8 [a0 + 21] = 0\n 44587: u8 [a0 + 20] = 0\n 44590: u8 [a0 + 19] = 0\n 44593: u8 [a0 + 18] = 0\n 44596: u8 [a0 + 17] = 0\n 44599: u8 [a0 + 16] = 0\n 44602: u8 [a0 + 15] = 0\n 44605: u8 [a0 + 14] = 0\n 44608: u8 [a0 + 13] = 0\n 44611: u8 [a0 + 12] = 0\n 44614: u8 [a0 + 11] = 0\n 44617: u8 [a0 + 10] = 0\n 44620: u8 [a0 + 9] = 0\n 44623: u8 [a0 + 8] = 0\n 44626: u8 [a0 + 7] = 0\n 44629: u8 [a0 + 6] = 0\n 44632: u8 [a0 + 5] = 0\n 44635: u8 [a0 + 4] = 0\n 44638: u8 [a0 + 3] = 0\n 44641: u8 [a0 + 2] = 0\n 44644: u8 [a0 + 1] = 0\n 44647: a3 = u64 [sp + 48]\n 44650: a1 = a3 >u 0x0\n 44652: a2 = s1\n 44654: s1 = s1 >u 0x0\n 44656: s1 = a1 if a2 == 0\n 44659: a1 = 0xffffffdf\n 44669: a4 = u64 [sp + 56]\n 44672: a1 = a1 <u a4\n 44675: a4 = u64 [sp + 64]\n 44678: a5 = a4 >u 0x0\n 44680: u64 [sp + 24] = a5\n 44683: a1 = a5 if a4 != 0\n 44686: u64 [sp + 8] = a2\n 44689: a2 = a2 | a3\n 44692: u64 [sp + 16] = a2\n 44695: a1 = s1 if a2 != 0\n 44698: u8 [a0 + 0] = 0\n 44700: jump @957 if a1 != 0\n      : @951 (gas: 5)\n 44704: u64 [sp] = s0\n 44706: s0 = s0 + 0x20\n 44709: a1 = 0x20\n 44712: a0 = s0\n 44714: ra = 626, jump @0\n      : @952 [@dyn 313] (gas: 1)\n 44721: jump @957 if a0 == 0\n      : @953 (gas: 43)\n 44725: a0 = u64 [sp + 40]\n 44728: i64 s0 = s0 + a0\n 44731: u8 [s0 + 31] = 23\n 44735: u8 [s0 + 30] = 0\n 44738: u8 [s0 + 29] = 0\n 44741: u8 [s0 + 28] = 0\n 44744: u8 [s0 + 27] = 0\n 44747: u8 [s0 + 26] = 0\n 44750: u8 [s0 + 25] = 0\n 44753: u8 [s0 + 24] = 0\n 44756: u8 [s0 + 23] = 0\n 44759: u8 [s0 + 22] = 0\n 44762: u8 [s0 + 21] = 0\n 44765: u8 [s0 + 20] = 0\n 44768: u8 [s0 + 19] = 0\n 44771: u8 [s0 + 18] = 0\n 44774: u8 [s0 + 17] = 0\n 44777: u8 [s0 + 16] = 0\n 44780: u8 [s0 + 15] = 0\n 44783: u8 [s0 + 14] = 0\n 44786: u8 [s0 + 13] = 0\n 44789: u8 [s0 + 12] = 0\n 44792: u8 [s0 + 11] = 0\n 44795: u8 [s0 + 10] = 0\n 44798: u8 [s0 + 9] = 0\n 44801: u8 [s0 + 8] = 0\n 44804: u8 [s0 + 7] = 0\n 44807: u8 [s0 + 6] = 0\n 44810: u8 [s0 + 5] = 0\n 44813: u8 [s0 + 4] = 0\n 44816: u8 [s0 + 3] = 0\n 44819: u8 [s0 + 2] = 0\n 44822: u8 [s0 + 1] = 0\n 44825: a0 = 0xffffffbf\n 44835: a1 = u64 [sp + 56]\n 44838: a0 = a0 <u a1\n 44841: a1 = u64 [sp + 64]\n 44844: a2 = u64 [sp + 24]\n 44847: a0 = a2 if a1 != 0\n 44850: a1 = u64 [sp + 16]\n 44853: a0 = s1 if a1 != 0\n 44856: u8 [s0 + 0] = 0\n 44858: jump @957 if a0 != 0\n      : @954 (gas: 6)\n 44862: a0 = u64 [sp]\n 44864: s1 = a0 + 0x40\n 44867: a1 = 0x20\n 44870: s0 = 0x20\n 44873: a0 = s1\n 44875: ra = 628, jump @0\n      : @955 [@dyn 314] (gas: 1)\n 44882: jump @957 if a0 == 0\n      : @956 (gas: 56)\n 44886: a0 = u64 [sp + 40]\n 44889: i64 s1 = s1 + a0\n 44892: u8 [s1 + 19] = 120\n 44896: u8 [s1 + 9] = 100\n 44900: u8 [s1 + 31] = 0\n 44903: u8 [s1 + 30] = 0\n 44906: u8 [s1 + 29] = 0\n 44909: u8 [s1 + 28] = 0\n 44912: u8 [s1 + 27] = 0\n 44915: u8 [s1 + 26] = 0\n 44918: u8 [s1 + 25] = 0\n 44921: u8 [s1 + 24] = 0\n 44924: u8 [s1 + 23] = 0\n 44927: u8 [s1 + 17] = s0\n 44930: u8 [s1 + 13] = s0\n 44933: u8 [s1 + 8] = s0\n 44936: u8 [s1 + 14] = 110\n 44940: u8 [s1 + 7] = 110\n 44944: u8 [s1 + 15] = 111\n 44948: u8 [s1 + 10] = 111\n 44952: u8 [s1 + 6] = 111\n 44956: u8 [s1 + 20] = 105\n 44960: u8 [s1 + 5] = 105\n 44964: u8 [s1 + 22] = 116\n 44968: u8 [s1 + 16] = 116\n 44972: u8 [s1 + 4] = 116\n 44976: u8 [s1 + 21] = 115\n 44980: u8 [s1 + 12] = 115\n 44984: u8 [s1 + 3] = 115\n 44988: u8 [s1 + 18] = 101\n 44992: u8 [s1 + 11] = 101\n 44996: u8 [s1 + 2] = 101\n 45000: u8 [s1 + 1] = 117\n 45004: u8 [s1 + 0] = 81\n 45007: a1 = u64 [sp + 56]\n 45010: i64 a0 = i64 a1 + 0x60\n 45013: a1 = a0 <u a1\n 45016: a3 = u64 [sp + 64]\n 45019: i64 a2 = a3 + a1\n 45022: a3 = a2 <u a3\n 45025: a3 = a1 if a1 == 0\n 45028: a1 = u64 [sp + 48]\n 45031: i64 a3 = a3 + a1\n 45034: a1 = a3 <u a1\n 45037: a4 = u64 [sp + 8]\n 45040: i64 a1 = a1 + a4\n 45043: a4 = u64 [sp + 32]\n 45046: u64 [a4] = a0\n 45048: u64 [a4 + 8] = a2\n 45051: u64 [a4 + 16] = a3\n 45054: u64 [a4 + 24] = a1\n 45057: ra = u64 [sp + 88]\n 45060: s0 = u64 [sp + 80]\n 45063: s1 = u64 [sp + 72]\n 45066: i64 sp = i64 sp + 0x60\n 45069: ret\n      : @957 (gas: 1)\n 45071: trap\n      : @958 (gas: 10)\n 45072: i64 sp = i64 sp - i64 112\n 45075: u64 [sp + 104] = ra\n 45078: u64 [sp + 96] = s0\n 45081: u64 [sp + 88] = s1\n 45084: i64 s0 = i64 sp + 0x70\n 45087: sp = sp & 0xfffffff0\n 45090: a1 = 0x0\n 45092: a0 = a0 | 0x0\n 45094: a0 = a0 | 0x0\n 45096: jump @960 if a0 == 0\n      : @959 (gas: 6)\n 45099: i64 sp = i64 s0 - i64 112\n 45102: ra = u64 [sp + 104]\n 45105: s0 = u64 [sp + 96]\n 45108: s1 = u64 [sp + 88]\n 45111: i64 sp = i64 sp + 0x70\n 45114: ret\n      : @960 (gas: 3)\n 45116: a0 = 0x40\n 45119: a1 = 0x20\n 45122: ra = 630, jump @0\n      : @961 [@dyn 315] (gas: 1)\n 45129: jump @969 if a0 == 0\n      : @962 (gas: 21)\n 45133: s1 = 0x20050\n 45138: a0 = u64 [0x20098]\n 45143: a1 = u64 [0x20090]\n 45148: a2 = u64 [0x200a0]\n 45153: a3 = u64 [0x200a8]\n 45158: a4 = reverse a0\n 45160: a5 = reverse a1\n 45162: a0 = reverse a2\n 45164: a1 = reverse a3\n 45166: u64 [sp + 32] = a0\n 45169: u64 [sp + 16] = a5\n 45172: a0 = a0 | a5\n 45175: u64 [sp + 40] = a1\n 45178: a1 = a1 | a4\n 45181: a1 = a1 | a0\n 45184: a1 = a1 >>64 32\n 45187: u64 [sp + 24] = a4\n 45190: a0 = a0 | a4\n 45193: a0 = a0 <<64 32\n 45196: a0 = a0 | a1\n 45199: jump @969 if a0 != 0\n      : @963 (gas: 4)\n 45203: a0 = i32 [sp + 40]\n 45206: a1 = 0x20\n 45209: u64 [sp + 8] = a0\n 45212: ra = 632, jump @0\n      : @964 [@dyn 316] (gas: 1)\n 45219: jump @969 if a0 == 0\n      : @965 (gas: 48)\n 45223: a0 = u64 [sp + 8]\n 45226: i64 s1 = s1 + a0\n 45229: u8 [s1 + 31] = 0\n 45232: u8 [s1 + 30] = 0\n 45235: u8 [s1 + 29] = 0\n 45238: u8 [s1 + 28] = 0\n 45241: u8 [s1 + 27] = 0\n 45244: u8 [s1 + 26] = 0\n 45247: u8 [s1 + 25] = 0\n 45250: u8 [s1 + 24] = 0\n 45253: u8 [s1 + 23] = 0\n 45256: u8 [s1 + 22] = 0\n 45259: u8 [s1 + 21] = 0\n 45262: u8 [s1 + 20] = 0\n 45265: u8 [s1 + 19] = 0\n 45268: u8 [s1 + 18] = 0\n 45271: u8 [s1 + 17] = 0\n 45274: u8 [s1 + 16] = 0\n 45277: u8 [s1 + 15] = 0\n 45280: u8 [s1 + 14] = 0\n 45283: u8 [s1 + 13] = 0\n 45286: u8 [s1 + 12] = 0\n 45289: u8 [s1 + 11] = 0\n 45292: u8 [s1 + 10] = 0\n 45295: u8 [s1 + 9] = 0\n 45298: u8 [s1 + 8] = 0\n 45301: u8 [s1 + 7] = 0\n 45304: u8 [s1 + 6] = 0\n 45307: u8 [s1 + 5] = 0\n 45310: u8 [s1 + 4] = 0\n 45313: u8 [s1 + 3] = 160\n 45318: u8 [s1 + 2] = 121\n 45322: u8 [s1 + 1] = 195\n 45327: u8 [s1 + 0] = 8\n 45330: a0 = u64 [sp + 40]\n 45333: i64 a1 = i64 a0 + 0x4\n 45336: a0 = a1 <u a0\n 45339: a3 = u64 [sp + 32]\n 45342: i64 a2 = a3 + a0\n 45345: a3 = a2 <u a3\n 45348: a3 = a0 if a0 == 0\n 45351: a0 = u64 [sp + 24]\n 45354: i64 a3 = a3 + a0\n 45357: a4 = a3 <u a0\n 45360: a0 = u64 [sp + 16]\n 45363: i64 a4 = a4 + a0\n 45366: i64 a0 = i64 sp + 0x30\n 45369: ra = 634, jump @947\n      : @966 [@dyn 317] (gas: 31)\n 45375: a1 = u64 [sp + 56]\n 45378: t0 = u64 [sp + 72]\n 45381: t1 = u64 [sp + 48]\n 45384: a3 = u64 [sp + 64]\n 45387: a0 = u64 [sp + 32]\n 45390: a4 = a1 ^ a0\n 45393: a5 = a1 <u a0\n 45396: ra = a0\n 45398: t2 = u64 [sp + 40]\n 45401: a2 = t1 <u t2\n 45404: a5 = a2 if a4 == 0\n 45407: a0 = u64 [sp + 24]\n 45410: i64 a4 = i64 a3 - i64 a0\n 45413: a3 = a3 <u a0\n 45416: a0 = u64 [sp + 16]\n 45419: i64 a0 = i64 t0 - i64 a0\n 45422: i64 a0 = i64 a0 - i64 a3\n 45425: a3 = a4 <u a5\n 45428: i64 a0 = i64 a0 - i64 a3\n 45431: i64 a4 = i64 a4 - i64 a5\n 45434: i64 a1 = i64 a1 - i64 ra\n 45437: i64 a1 = i64 a1 - i64 a2\n 45440: a0 = a0 | a1\n 45443: i64 a1 = i64 t1 - i64 t2\n 45446: a1 = a1 | a4\n 45449: a1 = a1 | a0\n 45452: a0 = a0 | a4\n 45455: a1 = a1 >>64 32\n 45458: a0 = a0 <<64 32\n 45461: a0 = a0 | a1\n 45464: jump @969 if a0 != 0\n      : @967 (gas: 5)\n 45467: a0 = u64 [sp + 40]\n 45470: a1 = t1 - a0\n 45473: a0 = u64 [sp + 8]\n 45476: u64 [sp + 40] = a1\n 45479: ra = 636, jump @0\n      : @968 [@dyn 318] (gas: 1)\n 45486: jump @970 if a0 != 0\n      : @969 (gas: 1)\n 45489: trap\n      : @970 (gas: 6)\n 45490: a1 = s1 + 0x0\n 45492: a0 = 0x1\n 45495: a2 = u64 [sp + 40]\n 45498: ra = 0x27e\n 45502: ecalli 11 // 'seal_return'\n 45504: fallthrough\n      : @971 [@dyn 319] (gas: 17)\n 45505: i64 sp = i64 sp - i64 96\n 45508: u64 [sp + 88] = ra\n 45511: u64 [sp + 80] = s0\n 45514: u64 [sp + 72] = s1\n 45517: s1 = a4\n 45519: a4 = a1\n 45521: u64 [sp + 64] = a2\n 45524: a1 = a2 | s1\n 45527: a2 = a4 | a3\n 45530: a2 = a2 | a1\n 45533: a2 = a2 >>64 32\n 45536: u64 [sp + 48] = a3\n 45539: a1 = a1 | a3\n 45542: a1 = a1 <<64 32\n 45545: a1 = a1 | a2\n 45548: u64 [sp + 32] = a0\n 45551: jump @981 if a1 != 0\n      : @972 (gas: 5)\n 45555: s0 = a4 + 0x0\n 45557: a1 = 0x20\n 45560: a0 = s0\n 45562: u64 [sp + 56] = a4\n 45565: ra = 640, jump @0\n      : @973 [@dyn 320] (gas: 1)\n 45572: jump @981 if a0 == 0\n      : @974 (gas: 52)\n 45576: a0 = 0x20050\n 45581: u64 [sp + 40] = a0\n 45584: i64 a0 = a0 + s0\n 45587: u8 [a0 + 31] = 32\n 45591: u8 [a0 + 30] = 0\n 45594: u8 [a0 + 29] = 0\n 45597: u8 [a0 + 28] = 0\n 45600: u8 [a0 + 27] = 0\n 45603: u8 [a0 + 26] = 0\n 45606: u8 [a0 + 25] = 0\n 45609: u8 [a0 + 24] = 0\n 45612: u8 [a0 + 23] = 0\n 45615: u8 [a0 + 22] = 0\n 45618: u8 [a0 + 21] = 0\n 45621: u8 [a0 + 20] = 0\n 45624: u8 [a0 + 19] = 0\n 45627: u8 [a0 + 18] = 0\n 45630: u8 [a0 + 17] = 0\n 45633: u8 [a0 + 16] = 0\n 45636: u8 [a0 + 15] = 0\n 45639: u8 [a0 + 14] = 0\n 45642: u8 [a0 + 13] = 0\n 45645: u8 [a0 + 12] = 0\n 45648: u8 [a0 + 11] = 0\n 45651: u8 [a0 + 10] = 0\n 45654: u8 [a0 + 9] = 0\n 45657: u8 [a0 + 8] = 0\n 45660: u8 [a0 + 7] = 0\n 45663: u8 [a0 + 6] = 0\n 45666: u8 [a0 + 5] = 0\n 45669: u8 [a0 + 4] = 0\n 45672: u8 [a0 + 3] = 0\n 45675: u8 [a0 + 2] = 0\n 45678: u8 [a0 + 1] = 0\n 45681: a3 = u64 [sp + 48]\n 45684: a1 = a3 >u 0x0\n 45686: a2 = s1\n 45688: s1 = s1 >u 0x0\n 45690: s1 = a1 if a2 == 0\n 45693: a1 = 0xffffffdf\n 45703: a4 = u64 [sp + 56]\n 45706: a1 = a1 <u a4\n 45709: a4 = u64 [sp + 64]\n 45712: a5 = a4 >u 0x0\n 45714: u64 [sp + 24] = a5\n 45717: a1 = a5 if a4 != 0\n 45720: u64 [sp + 8] = a2\n 45723: a2 = a2 | a3\n 45726: u64 [sp + 16] = a2\n 45729: a1 = s1 if a2 != 0\n 45732: u8 [a0 + 0] = 0\n 45734: jump @981 if a1 != 0\n      : @975 (gas: 5)\n 45738: u64 [sp] = s0\n 45740: s0 = s0 + 0x20\n 45743: a1 = 0x20\n 45746: a0 = s0\n 45748: ra = 642, jump @0\n      : @976 [@dyn 321] (gas: 1)\n 45755: jump @981 if a0 == 0\n      : @977 (gas: 43)\n 45759: a0 = u64 [sp + 40]\n 45762: i64 s0 = s0 + a0\n 45765: u8 [s0 + 31] = 26\n 45769: u8 [s0 + 30] = 0\n 45772: u8 [s0 + 29] = 0\n 45775: u8 [s0 + 28] = 0\n 45778: u8 [s0 + 27] = 0\n 45781: u8 [s0 + 26] = 0\n 45784: u8 [s0 + 25] = 0\n 45787: u8 [s0 + 24] = 0\n 45790: u8 [s0 + 23] = 0\n 45793: u8 [s0 + 22] = 0\n 45796: u8 [s0 + 21] = 0\n 45799: u8 [s0 + 20] = 0\n 45802: u8 [s0 + 19] = 0\n 45805: u8 [s0 + 18] = 0\n 45808: u8 [s0 + 17] = 0\n 45811: u8 [s0 + 16] = 0\n 45814: u8 [s0 + 15] = 0\n 45817: u8 [s0 + 14] = 0\n 45820: u8 [s0 + 13] = 0\n 45823: u8 [s0 + 12] = 0\n 45826: u8 [s0 + 11] = 0\n 45829: u8 [s0 + 10] = 0\n 45832: u8 [s0 + 9] = 0\n 45835: u8 [s0 + 8] = 0\n 45838: u8 [s0 + 7] = 0\n 45841: u8 [s0 + 6] = 0\n 45844: u8 [s0 + 5] = 0\n 45847: u8 [s0 + 4] = 0\n 45850: u8 [s0 + 3] = 0\n 45853: u8 [s0 + 2] = 0\n 45856: u8 [s0 + 1] = 0\n 45859: a0 = 0xffffffbf\n 45869: a1 = u64 [sp + 56]\n 45872: a0 = a0 <u a1\n 45875: a1 = u64 [sp + 64]\n 45878: a2 = u64 [sp + 24]\n 45881: a0 = a2 if a1 != 0\n 45884: a1 = u64 [sp + 16]\n 45887: a0 = s1 if a1 != 0\n 45890: u8 [s0 + 0] = 0\n 45892: jump @981 if a0 != 0\n      : @978 (gas: 6)\n 45896: a0 = u64 [sp]\n 45898: s1 = a0 + 0x40\n 45901: a1 = 0x20\n 45904: s0 = 0x20\n 45907: a0 = s1\n 45909: ra = 644, jump @0\n      : @979 [@dyn 322] (gas: 1)\n 45916: jump @981 if a0 == 0\n      : @980 (gas: 56)\n 45920: a0 = u64 [sp + 40]\n 45923: i64 s1 = s1 + a0\n 45926: u8 [s1 + 20] = 99\n 45930: u8 [s1 + 18] = 121\n 45934: u8 [s1 + 25] = 100\n 45938: u8 [s1 + 17] = 100\n 45942: u8 [s1 + 14] = 114\n 45946: u8 [s1 + 21] = 108\n 45950: u8 [s1 + 13] = 108\n 45954: u8 [s1 + 16] = 97\n 45958: u8 [s1 + 12] = 97\n 45962: u8 [s1 + 31] = 0\n 45965: u8 [s1 + 30] = 0\n 45968: u8 [s1 + 29] = 0\n 45971: u8 [s1 + 28] = 0\n 45974: u8 [s1 + 27] = 0\n 45977: u8 [s1 + 26] = 0\n 45980: u8 [s1 + 19] = s0\n 45983: u8 [s1 + 11] = s0\n 45986: u8 [s1 + 8] = s0\n 45989: u8 [s1 + 7] = 110\n 45993: u8 [s1 + 22] = 111\n 45997: u8 [s1 + 6] = 111\n 46001: u8 [s1 + 9] = 105\n 46005: u8 [s1 + 5] = 105\n 46009: u8 [s1 + 4] = 116\n 46013: u8 [s1 + 23] = 115\n 46017: u8 [s1 + 10] = 115\n 46021: u8 [s1 + 3] = 115\n 46025: u8 [s1 + 24] = 101\n 46029: u8 [s1 + 15] = 101\n 46033: u8 [s1 + 2] = 101\n 46037: u8 [s1 + 1] = 117\n 46041: u8 [s1 + 0] = 81\n 46044: a1 = u64 [sp + 56]\n 46047: i64 a0 = i64 a1 + 0x60\n 46050: a1 = a0 <u a1\n 46053: a3 = u64 [sp + 64]\n 46056: i64 a2 = a3 + a1\n 46059: a3 = a2 <u a3\n 46062: a3 = a1 if a1 == 0\n 46065: a1 = u64 [sp + 48]\n 46068: i64 a3 = a3 + a1\n 46071: a1 = a3 <u a1\n 46074: a4 = u64 [sp + 8]\n 46077: i64 a1 = a1 + a4\n 46080: a4 = u64 [sp + 32]\n 46083: u64 [a4] = a0\n 46085: u64 [a4 + 8] = a2\n 46088: u64 [a4 + 16] = a3\n 46091: u64 [a4 + 24] = a1\n 46094: ra = u64 [sp + 88]\n 46097: s0 = u64 [sp + 80]\n 46100: s1 = u64 [sp + 72]\n 46103: i64 sp = i64 sp + 0x60\n 46106: ret\n      : @981 (gas: 1)\n 46108: trap\n      : @982 (gas: 10)\n 46109: i64 sp = i64 sp - i64 112\n 46112: u64 [sp + 104] = ra\n 46115: u64 [sp + 96] = s0\n 46118: u64 [sp + 88] = s1\n 46121: i64 s0 = i64 sp + 0x70\n 46124: sp = sp & 0xfffffff0\n 46127: a1 = 0x0\n 46129: a0 = a0 | 0x0\n 46131: a0 = a0 | 0x0\n 46133: jump @984 if a0 == 0\n      : @983 (gas: 6)\n 46136: i64 sp = i64 s0 - i64 112\n 46139: ra = u64 [sp + 104]\n 46142: s0 = u64 [sp + 96]\n 46145: s1 = u64 [sp + 88]\n 46148: i64 sp = i64 sp + 0x70\n 46151: ret\n      : @984 (gas: 3)\n 46153: a0 = 0x40\n 46156: a1 = 0x20\n 46159: ra = 646, jump @0\n      : @985 [@dyn 323] (gas: 1)\n 46166: jump @993 if a0 == 0\n      : @986 (gas: 21)\n 46170: s1 = 0x20050\n 46175: a0 = u64 [0x20098]\n 46180: a1 = u64 [0x20090]\n 46185: a2 = u64 [0x200a0]\n 46190: a3 = u64 [0x200a8]\n 46195: a4 = reverse a0\n 46197: a5 = reverse a1\n 46199: a0 = reverse a2\n 46201: a1 = reverse a3\n 46203: u64 [sp + 32] = a0\n 46206: u64 [sp + 16] = a5\n 46209: a0 = a0 | a5\n 46212: u64 [sp + 40] = a1\n 46215: a1 = a1 | a4\n 46218: a1 = a1 | a0\n 46221: a1 = a1 >>64 32\n 46224: u64 [sp + 24] = a4\n 46227: a0 = a0 | a4\n 46230: a0 = a0 <<64 32\n 46233: a0 = a0 | a1\n 46236: jump @993 if a0 != 0\n      : @987 (gas: 4)\n 46240: a0 = i32 [sp + 40]\n 46243: a1 = 0x20\n 46246: u64 [sp + 8] = a0\n 46249: ra = 648, jump @0\n      : @988 [@dyn 324] (gas: 1)\n 46256: jump @993 if a0 == 0\n      : @989 (gas: 48)\n 46260: a0 = u64 [sp + 8]\n 46263: i64 s1 = s1 + a0\n 46266: u8 [s1 + 31] = 0\n 46269: u8 [s1 + 30] = 0\n 46272: u8 [s1 + 29] = 0\n 46275: u8 [s1 + 28] = 0\n 46278: u8 [s1 + 27] = 0\n 46281: u8 [s1 + 26] = 0\n 46284: u8 [s1 + 25] = 0\n 46287: u8 [s1 + 24] = 0\n 46290: u8 [s1 + 23] = 0\n 46293: u8 [s1 + 22] = 0\n 46296: u8 [s1 + 21] = 0\n 46299: u8 [s1 + 20] = 0\n 46302: u8 [s1 + 19] = 0\n 46305: u8 [s1 + 18] = 0\n 46308: u8 [s1 + 17] = 0\n 46311: u8 [s1 + 16] = 0\n 46314: u8 [s1 + 15] = 0\n 46317: u8 [s1 + 14] = 0\n 46320: u8 [s1 + 13] = 0\n 46323: u8 [s1 + 12] = 0\n 46326: u8 [s1 + 11] = 0\n 46329: u8 [s1 + 10] = 0\n 46332: u8 [s1 + 9] = 0\n 46335: u8 [s1 + 8] = 0\n 46338: u8 [s1 + 7] = 0\n 46341: u8 [s1 + 6] = 0\n 46344: u8 [s1 + 5] = 0\n 46347: u8 [s1 + 4] = 0\n 46350: u8 [s1 + 3] = 160\n 46355: u8 [s1 + 2] = 121\n 46359: u8 [s1 + 1] = 195\n 46364: u8 [s1 + 0] = 8\n 46367: a0 = u64 [sp + 40]\n 46370: i64 a1 = i64 a0 + 0x4\n 46373: a0 = a1 <u a0\n 46376: a3 = u64 [sp + 32]\n 46379: i64 a2 = a3 + a0\n 46382: a3 = a2 <u a3\n 46385: a3 = a0 if a0 == 0\n 46388: a0 = u64 [sp + 24]\n 46391: i64 a3 = a3 + a0\n 46394: a4 = a3 <u a0\n 46397: a0 = u64 [sp + 16]\n 46400: i64 a4 = a4 + a0\n 46403: i64 a0 = i64 sp + 0x30\n 46406: ra = 650, jump @971\n      : @990 [@dyn 325] (gas: 31)\n 46412: a1 = u64 [sp + 56]\n 46415: t0 = u64 [sp + 72]\n 46418: t1 = u64 [sp + 48]\n 46421: a3 = u64 [sp + 64]\n 46424: a0 = u64 [sp + 32]\n 46427: a4 = a1 ^ a0\n 46430: a5 = a1 <u a0\n 46433: ra = a0\n 46435: t2 = u64 [sp + 40]\n 46438: a2 = t1 <u t2\n 46441: a5 = a2 if a4 == 0\n 46444: a0 = u64 [sp + 24]\n 46447: i64 a4 = i64 a3 - i64 a0\n 46450: a3 = a3 <u a0\n 46453: a0 = u64 [sp + 16]\n 46456: i64 a0 = i64 t0 - i64 a0\n 46459: i64 a0 = i64 a0 - i64 a3\n 46462: a3 = a4 <u a5\n 46465: i64 a0 = i64 a0 - i64 a3\n 46468: i64 a4 = i64 a4 - i64 a5\n 46471: i64 a1 = i64 a1 - i64 ra\n 46474: i64 a1 = i64 a1 - i64 a2\n 46477: a0 = a0 | a1\n 46480: i64 a1 = i64 t1 - i64 t2\n 46483: a1 = a1 | a4\n 46486: a1 = a1 | a0\n 46489: a0 = a0 | a4\n 46492: a1 = a1 >>64 32\n 46495: a0 = a0 <<64 32\n 46498: a0 = a0 | a1\n 46501: jump @993 if a0 != 0\n      : @991 (gas: 5)\n 46504: a0 = u64 [sp + 40]\n 46507: a1 = t1 - a0\n 46510: a0 = u64 [sp + 8]\n 46513: u64 [sp + 40] = a1\n 46516: ra = 652, jump @0\n      : @992 [@dyn 326] (gas: 1)\n 46523: jump @994 if a0 != 0\n      : @993 (gas: 1)\n 46526: trap\n      : @994 (gas: 6)\n 46527: a1 = s1 + 0x0\n 46529: a0 = 0x1\n 46532: a2 = u64 [sp + 40]\n 46535: ra = 0x28e\n 46539: ecalli 11 // 'seal_return'\n 46541: fallthrough\n      : @995 [@dyn 327] (gas: 17)\n 46542: i64 sp = i64 sp - i64 96\n 46545: u64 [sp + 88] = ra\n 46548: u64 [sp + 80] = s0\n 46551: u64 [sp + 72] = s1\n 46554: s1 = a4\n 46556: a4 = a1\n 46558: u64 [sp + 64] = a2\n 46561: a1 = a2 | s1\n 46564: a2 = a4 | a3\n 46567: a2 = a2 | a1\n 46570: a2 = a2 >>64 32\n 46573: u64 [sp + 48] = a3\n 46576: a1 = a1 | a3\n 46579: a1 = a1 <<64 32\n 46582: a1 = a1 | a2\n 46585: u64 [sp + 32] = a0\n 46588: jump @1005 if a1 != 0\n      : @996 (gas: 5)\n 46592: s0 = a4 + 0x0\n 46594: a1 = 0x20\n 46597: a0 = s0\n 46599: u64 [sp + 56] = a4\n 46602: ra = 656, jump @0\n      : @997 [@dyn 328] (gas: 1)\n 46609: jump @1005 if a0 == 0\n      : @998 (gas: 52)\n 46613: a0 = 0x20050\n 46618: u64 [sp + 40] = a0\n 46621: i64 a0 = a0 + s0\n 46624: u8 [a0 + 31] = 32\n 46628: u8 [a0 + 30] = 0\n 46631: u8 [a0 + 29] = 0\n 46634: u8 [a0 + 28] = 0\n 46637: u8 [a0 + 27] = 0\n 46640: u8 [a0 + 26] = 0\n 46643: u8 [a0 + 25] = 0\n 46646: u8 [a0 + 24] = 0\n 46649: u8 [a0 + 23] = 0\n 46652: u8 [a0 + 22] = 0\n 46655: u8 [a0 + 21] = 0\n 46658: u8 [a0 + 20] = 0\n 46661: u8 [a0 + 19] = 0\n 46664: u8 [a0 + 18] = 0\n 46667: u8 [a0 + 17] = 0\n 46670: u8 [a0 + 16] = 0\n 46673: u8 [a0 + 15] = 0\n 46676: u8 [a0 + 14] = 0\n 46679: u8 [a0 + 13] = 0\n 46682: u8 [a0 + 12] = 0\n 46685: u8 [a0 + 11] = 0\n 46688: u8 [a0 + 10] = 0\n 46691: u8 [a0 + 9] = 0\n 46694: u8 [a0 + 8] = 0\n 46697: u8 [a0 + 7] = 0\n 46700: u8 [a0 + 6] = 0\n 46703: u8 [a0 + 5] = 0\n 46706: u8 [a0 + 4] = 0\n 46709: u8 [a0 + 3] = 0\n 46712: u8 [a0 + 2] = 0\n 46715: u8 [a0 + 1] = 0\n 46718: a3 = u64 [sp + 48]\n 46721: a1 = a3 >u 0x0\n 46723: a2 = s1\n 46725: s1 = s1 >u 0x0\n 46727: s1 = a1 if a2 == 0\n 46730: a1 = 0xffffffdf\n 46740: a4 = u64 [sp + 56]\n 46743: a1 = a1 <u a4\n 46746: a4 = u64 [sp + 64]\n 46749: a5 = a4 >u 0x0\n 46751: u64 [sp + 24] = a5\n 46754: a1 = a5 if a4 != 0\n 46757: u64 [sp + 8] = a2\n 46760: a2 = a2 | a3\n 46763: u64 [sp + 16] = a2\n 46766: a1 = s1 if a2 != 0\n 46769: u8 [a0 + 0] = 0\n 46771: jump @1005 if a1 != 0\n      : @999 (gas: 5)\n 46775: u64 [sp] = s0\n 46777: s0 = s0 + 0x20\n 46780: a1 = 0x20\n 46783: a0 = s0\n 46785: ra = 658, jump @0\n      : @1000 [@dyn 329] (gas: 1)\n 46792: jump @1005 if a0 == 0\n      : @1001 (gas: 43)\n 46796: a0 = u64 [sp + 40]\n 46799: i64 s0 = s0 + a0\n 46802: u8 [s0 + 31] = 29\n 46806: u8 [s0 + 30] = 0\n 46809: u8 [s0 + 29] = 0\n 46812: u8 [s0 + 28] = 0\n 46815: u8 [s0 + 27] = 0\n 46818: u8 [s0 + 26] = 0\n 46821: u8 [s0 + 25] = 0\n 46824: u8 [s0 + 24] = 0\n 46827: u8 [s0 + 23] = 0\n 46830: u8 [s0 + 22] = 0\n 46833: u8 [s0 + 21] = 0\n 46836: u8 [s0 + 20] = 0\n 46839: u8 [s0 + 19] = 0\n 46842: u8 [s0 + 18] = 0\n 46845: u8 [s0 + 17] = 0\n 46848: u8 [s0 + 16] = 0\n 46851: u8 [s0 + 15] = 0\n 46854: u8 [s0 + 14] = 0\n 46857: u8 [s0 + 13] = 0\n 46860: u8 [s0 + 12] = 0\n 46863: u8 [s0 + 11] = 0\n 46866: u8 [s0 + 10] = 0\n 46869: u8 [s0 + 9] = 0\n 46872: u8 [s0 + 8] = 0\n 46875: u8 [s0 + 7] = 0\n 46878: u8 [s0 + 6] = 0\n 46881: u8 [s0 + 5] = 0\n 46884: u8 [s0 + 4] = 0\n 46887: u8 [s0 + 3] = 0\n 46890: u8 [s0 + 2] = 0\n 46893: u8 [s0 + 1] = 0\n 46896: a0 = 0xffffffbf\n 46906: a1 = u64 [sp + 56]\n 46909: a0 = a0 <u a1\n 46912: a1 = u64 [sp + 64]\n 46915: a2 = u64 [sp + 24]\n 46918: a0 = a2 if a1 != 0\n 46921: a1 = u64 [sp + 16]\n 46924: a0 = s1 if a1 != 0\n 46927: u8 [s0 + 0] = 0\n 46929: jump @1005 if a0 != 0\n      : @1002 (gas: 6)\n 46933: a0 = u64 [sp]\n 46935: s1 = a0 + 0x40\n 46938: a1 = 0x20\n 46941: s0 = 0x20\n 46944: a0 = s1\n 46946: ra = 660, jump @0\n      : @1003 [@dyn 330] (gas: 1)\n 46953: jump @1005 if a0 == 0\n      : @1004 (gas: 56)\n 46957: a0 = u64 [sp + 40]\n 46960: i64 s1 = s1 + a0\n 46963: u8 [s1 + 26] = 105\n 46967: u8 [s1 + 25] = 116\n 46971: u8 [s1 + 22] = 117\n 46975: u8 [s1 + 21] = 113\n 46979: u8 [s1 + 27] = 111\n 46983: u8 [s1 + 17] = 111\n 46987: u8 [s1 + 15] = 99\n 46991: u8 [s1 + 11] = 99\n 46995: u8 [s1 + 9] = 114\n 46999: u8 [s1 + 23] = 101\n 47003: u8 [s1 + 19] = 101\n 47007: u8 [s1 + 8] = 101\n 47011: u8 [s1 + 7] = 107\n 47015: u8 [s1 + 24] = 115\n 47019: u8 [s1 + 18] = 115\n 47023: u8 [s1 + 6] = 115\n 47027: u8 [s1 + 12] = 97\n 47031: u8 [s1 + 5] = 97\n 47035: u8 [s1 + 31] = 0\n 47038: u8 [s1 + 30] = 0\n 47041: u8 [s1 + 29] = 0\n 47044: u8 [s1 + 20] = s0\n 47047: u8 [s1 + 14] = s0\n 47050: u8 [s1 + 10] = s0\n 47053: u8 [s1 + 4] = s0\n 47056: u8 [s1 + 3] = 121\n 47060: u8 [s1 + 16] = 108\n 47064: u8 [s1 + 2] = 108\n 47068: u8 [s1 + 28] = 110\n 47072: u8 [s1 + 13] = 110\n 47076: u8 [s1 + 1] = 110\n 47080: u8 [s1 + 0] = 79\n 47083: a1 = u64 [sp + 56]\n 47086: i64 a0 = i64 a1 + 0x60\n 47089: a1 = a0 <u a1\n 47092: a3 = u64 [sp + 64]\n 47095: i64 a2 = a3 + a1\n 47098: a3 = a2 <u a3\n 47101: a3 = a1 if a1 == 0\n 47104: a1 = u64 [sp + 48]\n 47107: i64 a3 = a3 + a1\n 47110: a1 = a3 <u a1\n 47113: a4 = u64 [sp + 8]\n 47116: i64 a1 = a1 + a4\n 47119: a4 = u64 [sp + 32]\n 47122: u64 [a4] = a0\n 47124: u64 [a4 + 8] = a2\n 47127: u64 [a4 + 16] = a3\n 47130: u64 [a4 + 24] = a1\n 47133: ra = u64 [sp + 88]\n 47136: s0 = u64 [sp + 80]\n 47139: s1 = u64 [sp + 72]\n 47142: i64 sp = i64 sp + 0x60\n 47145: ret\n      : @1005 (gas: 1)\n 47147: trap\n      : @1006 [@dyn 331] (gas: 50)\n 47148: i64 sp = i64 sp + 0x10\n 47151: a0 = u64 [s1 + 184]\n 47155: u64 [s1 + 120] = a0\n 47158: a0 = u64 [s1 + 176]\n 47162: u64 [s1 + 112] = a0\n 47165: a0 = u64 [s1 + 168]\n 47169: u64 [s1 + 104] = a0\n 47172: a0 = u64 [s1 + 160]\n 47176: u64 [s1 + 96] = a0\n 47179: a0 = s1 + 0xc0\n 47183: ecalli 3 // 'caller'\n 47185: a0 = u64 [s1 + 200]\n 47189: a1 = u64 [s1 + 192]\n 47193: a2 = i32 [s1 + 208]\n 47197: a0 = reverse a0\n 47199: a3 = a0 >>64 32\n 47202: a1 = reverse a1\n 47204: a4 = a1 <<64 32\n 47207: a3 = a3 | a4\n 47210: u64 [s1 + 64] = a3\n 47213: a0 = a0 <<64 32\n 47216: a2 = reverse a2\n 47218: a2 = a2 >>64 32\n 47221: a0 = a0 | a2\n 47224: u64 [s1 + 56] = a0\n 47227: a1 = a1 >>64 32\n 47230: u64 [s1 + 48] = a1\n 47233: a0 = u64 [s1 + 120]\n 47236: u64 [s1 + 376] = a0\n 47240: a0 = u64 [s1 + 112]\n 47243: u64 [s1 + 368] = a0\n 47247: a0 = u64 [s1 + 104]\n 47250: u64 [s1 + 360] = a0\n 47254: a0 = u64 [s1 + 96]\n 47257: u64 [s1 + 352] = a0\n 47261: u64 [s1 + 344] = 0\n 47265: u64 [s1 + 336] = 0\n 47269: u64 [s1 + 328] = 0\n 47273: u64 [s1 + 320] = 0\n 47277: u64 [s1 + 304] = 0\n 47281: u64 [s1 + 312] = 0\n 47285: u64 [s1 + 296] = 0\n 47289: u64 [s1 + 288] = 256\n 47295: a1 = s1 + 0x160\n 47299: a3 = s1 + 0x140\n 47303: a4 = s1 + 0x120\n 47307: a2 = 0xffffffff\n 47310: a0 = 0x0\n 47312: ecalli 5 // 'get_storage'\n 47314: fallthrough\n      : @1007 (gas: 12)\n 47315: a0 = u32 [s1 + 336]\n 47319: a1 = u64 [s1 + 320]\n 47323: a2 = u64 [s1 + 328]\n 47327: a3 = u64 [s1 + 48]\n 47330: a0 = a0 ^ a3\n 47333: a3 = u64 [s1 + 56]\n 47336: a1 = a1 ^ a3\n 47339: a0 = a0 | a1\n 47342: a1 = u64 [s1 + 64]\n 47345: a1 = a1 ^ a2\n 47348: a0 = a0 | a1\n 47351: jump @1019 if a0 != 0\n      : @1008 (gas: 120)\n 47355: a0 = u64 [s0]\n 47357: u64 [s1 + 64] = a0\n 47360: a0 = u64 [s1 + 96]\n 47363: i64 a2 = i64 a0 + 0x6\n 47366: u64 [s1 + 56] = a2\n 47369: a0 = a2 <u a0\n 47372: a1 = u64 [s1 + 104]\n 47375: i64 a3 = a1 + a0\n 47378: u64 [s1 + 48] = a3\n 47381: a1 = a3 <u a1\n 47384: a1 = a0 if a0 == 0\n 47387: a0 = u64 [s1 + 112]\n 47390: i64 a4 = a0 + a1\n 47393: u64 [s1 + 40] = a4\n 47396: a0 = a4 <u a0\n 47399: a1 = u64 [s1 + 120]\n 47402: i64 a0 = a0 + a1\n 47405: u64 [s1 + 32] = a0\n 47408: u64 [s1 + 320] = a2\n 47412: u64 [s1 + 328] = a3\n 47416: u64 [s1 + 336] = a4\n 47420: u64 [s1 + 344] = a0\n 47424: u64 [s1 + 312] = 0\n 47428: u64 [s1 + 304] = 0\n 47432: u64 [s1 + 296] = 0\n 47436: u64 [s1 + 288] = 0\n 47440: u64 [s1 + 272] = 0\n 47444: u64 [s1 + 280] = 0\n 47448: u64 [s1 + 264] = 0\n 47452: u64 [s1 + 256] = 256\n 47458: a1 = s1 + 0x140\n 47462: a3 = s1 + 0x120\n 47466: a4 = s1 + 0x100\n 47470: a2 = 0xffffffff\n 47473: a0 = 0x0\n 47475: ecalli 5 // 'get_storage'\n 47477: a0 = u64 [s1 + 288]\n 47481: a1 = u64 [s1 + 296]\n 47485: a2 = u64 [s1 + 304]\n 47489: a3 = u64 [s1 + 312]\n 47493: a0 = a0 & 0xffffff00\n 47497: a0 = a0 | 0x1\n 47500: a4 = u64 [s1 + 32]\n 47503: u64 [s1 + 376] = a4\n 47507: a4 = u64 [s1 + 40]\n 47510: u64 [s1 + 368] = a4\n 47514: a4 = u64 [s1 + 48]\n 47517: u64 [s1 + 360] = a4\n 47521: a4 = u64 [s1 + 56]\n 47524: u64 [s1 + 352] = a4\n 47528: u64 [s1 + 248] = a3\n 47532: u64 [s1 + 240] = a2\n 47536: u64 [s1 + 232] = a1\n 47540: u64 [s1 + 224] = a0\n 47544: a1 = s1 + 0x160\n 47548: a3 = s1 + 0xe0\n 47552: a2 = 0xffffffff\n 47555: a4 = 0x20\n 47558: a0 = 0x0\n 47560: ecalli 13 // 'set_storage'\n 47562: a0 = u64 [s1 + 96]\n 47565: i64 a1 = i64 a0 + 0x7\n 47568: a0 = a1 <u a0\n 47571: a2 = a1\n 47573: u64 [s1 + 56] = a1\n 47576: a1 = u64 [s1 + 104]\n 47579: i64 a3 = a1 + a0\n 47582: u64 [s1 + 96] = a3\n 47585: a1 = a3 <u a1\n 47588: a1 = a0 if a0 == 0\n 47591: a0 = u64 [s1 + 112]\n 47594: i64 a4 = a0 + a1\n 47597: u64 [s1 + 104] = a4\n 47600: a0 = a4 <u a0\n 47603: a1 = u64 [s1 + 120]\n 47606: i64 a0 = a0 + a1\n 47609: u64 [s1 + 120] = a0\n 47612: u64 [s1 + 344] = a0\n 47616: u64 [s1 + 336] = a4\n 47620: u64 [s1 + 328] = a3\n 47624: u64 [s1 + 320] = a2\n 47628: u64 [s1 + 312] = 0\n 47632: u64 [s1 + 304] = 0\n 47636: u64 [s1 + 296] = 0\n 47640: u64 [s1 + 288] = 0\n 47644: u64 [s1 + 272] = 0\n 47648: u64 [s1 + 280] = 0\n 47652: u64 [s1 + 264] = 0\n 47656: u64 [s1 + 256] = 256\n 47662: a1 = s1 + 0x140\n 47666: a3 = s1 + 0x120\n 47670: a4 = s1 + 0x100\n 47674: a2 = 0xffffffff\n 47677: a0 = 0x0\n 47679: ecalli 5 // 'get_storage'\n 47681: a0 = u64 [s1 + 120]\n 47684: u64 [s1 + 376] = a0\n 47688: a0 = u64 [s1 + 104]\n 47691: u64 [s1 + 368] = a0\n 47695: a0 = u64 [s1 + 96]\n 47698: u64 [s1 + 360] = a0\n 47702: a0 = u64 [s1 + 56]\n 47705: u64 [s1 + 352] = a0\n 47709: a0 = u64 [s1 + 64]\n 47712: u64 [s1 + 248] = a0\n 47716: a0 = u64 [s1 + 72]\n 47719: u64 [s1 + 240] = a0\n 47723: a0 = u64 [s1 + 80]\n 47726: u64 [s1 + 232] = a0\n 47730: a0 = u64 [s1 + 88]\n 47733: u64 [s1 + 224] = a0\n 47737: a1 = s1 + 0x160\n 47741: a3 = s1 + 0xe0\n 47745: a2 = 0xffffffff\n 47748: a4 = 0x20\n 47751: a0 = 0x0\n 47753: ecalli 13 // 'set_storage'\n 47755: a0 = 0x40\n 47758: a1 = 0x20\n 47761: ra = 664, jump @0\n      : @1009 [@dyn 332] (gas: 1)\n 47768: jump @1028 if a0 == 0\n      : @1010 (gas: 21)\n 47772: a3 = 0x20050\n 47777: a0 = u64 [0x20098]\n 47782: a1 = u64 [0x20090]\n 47787: a2 = u64 [0x200a0]\n 47792: u64 [s1 + 112] = a3\n 47795: a3 = u64 [0x200a8]\n 47800: a4 = reverse a0\n 47802: a0 = reverse a1\n 47804: a1 = reverse a2\n 47806: a2 = reverse a3\n 47808: u64 [s1 + 96] = a0\n 47811: u64 [s1 + 56] = a1\n 47814: a0 = a0 | a1\n 47817: a1 = a2 | a4\n 47820: a1 = a1 | a0\n 47823: a1 = a1 >>64 32\n 47826: u64 [s1 + 104] = a4\n 47829: a0 = a0 | a4\n 47832: a0 = a0 <<64 32\n 47835: a0 = a0 | a1\n 47838: jump @1028 if a0 != 0\n      : @1011 (gas: 5)\n 47842: u64 [s1 + 48] = a2\n 47845: a0 = a2 + 0x0\n 47847: a1 = 0x20\n 47850: u64 [s1 + 120] = a0\n 47853: ra = 666, jump @0\n      : @1012 [@dyn 333] (gas: 1)\n 47860: jump @1028 if a0 == 0\n      : @1013 (gas: 86)\n 47864: a0 = 0xffffffdf\n 47874: a1 = u64 [s1 + 48]\n 47877: a1 = a0 <u a1\n 47880: a2 = u64 [s1 + 56]\n 47883: a0 = a2 >u 0x0\n 47885: a0 = a1 if a2 == 0\n 47888: a3 = u64 [s1 + 104]\n 47891: a1 = a3 >u 0x0\n 47893: a4 = u64 [s1 + 96]\n 47896: a2 = a4 >u 0x0\n 47898: a2 = a1 if a4 == 0\n 47901: a1 = a3 | a4\n 47904: a0 = a2 if a1 != 0\n 47907: a1 = u64 [s1 + 120]\n 47910: a2 = u64 [s1 + 112]\n 47913: i64 a3 = a2 + a1\n 47916: a1 = u64 [s1]\n 47918: a1 = reverse a1\n 47920: a2 = a1 >>64 56\n 47923: u8 [a3 + 31] = a2\n 47926: a2 = a1 >>64 48\n 47929: u8 [a3 + 30] = a2\n 47932: a2 = a1 >>64 40\n 47935: u8 [a3 + 29] = a2\n 47938: a2 = a1 >>64 32\n 47941: u8 [a3 + 28] = a2\n 47944: a2 = a1 >>64 24\n 47947: u8 [a3 + 27] = a2\n 47950: a2 = a1 >>64 16\n 47953: u8 [a3 + 26] = a2\n 47956: a2 = u64 [s1 + 8]\n 47959: a2 = reverse a2\n 47961: u8 [a3 + 24] = a1\n 47964: a1 = a1 >>64 8\n 47967: u8 [a3 + 25] = a1\n 47970: a1 = a2 >>64 56\n 47973: u8 [a3 + 23] = a1\n 47976: a1 = a2 >>64 48\n 47979: u8 [a3 + 22] = a1\n 47982: a1 = a2 >>64 40\n 47985: u8 [a3 + 21] = a1\n 47988: a1 = a2 >>64 32\n 47991: u8 [a3 + 20] = a1\n 47994: a1 = a2 >>64 24\n 47997: u8 [a3 + 19] = a1\n 48000: a1 = a2 >>64 16\n 48003: u8 [a3 + 18] = a1\n 48006: a1 = u64 [s1 + 16]\n 48009: a1 = reverse a1\n 48011: u8 [a3 + 16] = a2\n 48014: a2 = a2 >>64 8\n 48017: u8 [a3 + 17] = a2\n 48020: a2 = a1 >>64 56\n 48023: u8 [a3 + 15] = a2\n 48026: a2 = a1 >>64 48\n 48029: u8 [a3 + 14] = a2\n 48032: a2 = a1 >>64 40\n 48035: u8 [a3 + 13] = a2\n 48038: a2 = a1 >>64 32\n 48041: u8 [a3 + 12] = a2\n 48044: a2 = a1 >>64 24\n 48047: u8 [a3 + 11] = a2\n 48050: a2 = a1 >>64 16\n 48053: u8 [a3 + 10] = a2\n 48056: a2 = u64 [s1 + 24]\n 48059: a2 = reverse a2\n 48061: u8 [a3 + 8] = a1\n 48064: a1 = a1 >>64 8\n 48067: u8 [a3 + 9] = a1\n 48070: a1 = a2 >>64 56\n 48073: u8 [a3 + 7] = a1\n 48076: a1 = a2 >>64 48\n 48079: u8 [a3 + 6] = a1\n 48082: a1 = a2 >>64 40\n 48085: u8 [a3 + 5] = a1\n 48088: a1 = a2 >>64 32\n 48091: u8 [a3 + 4] = a1\n 48094: a1 = a2 >>64 24\n 48097: u8 [a3 + 3] = a1\n 48100: a1 = a2 >>64 16\n 48103: u8 [a3 + 2] = a1\n 48106: u8 [a3] = a2\n 48108: a2 = a2 >>64 8\n 48111: u64 [s1 + 104] = a3\n 48114: u8 [a3 + 1] = a2\n 48117: jump @1028 if a0 != 0\n      : @1014 (gas: 5)\n 48121: a0 = u64 [s1 + 120]\n 48124: a0 = a0 + 0x20\n 48127: a1 = 0x20\n 48130: u64 [s1 + 96] = a0\n 48133: ra = 668, jump @0\n      : @1015 [@dyn 334] (gas: 1)\n 48140: jump @1028 if a0 == 0\n      : @1016 (gas: 74)\n 48144: a0 = u64 [s1 + 112]\n 48147: a1 = u64 [s1 + 96]\n 48150: i64 a0 = a0 + a1\n 48153: a1 = u64 [s1 + 64]\n 48156: a1 = reverse a1\n 48158: a2 = u64 [s1 + 72]\n 48161: a2 = reverse a2\n 48163: a3 = u64 [s1 + 80]\n 48166: a3 = reverse a3\n 48168: a4 = u64 [s1 + 88]\n 48171: a4 = reverse a4\n 48173: u8 [a0 + 24] = a4\n 48176: a5 = a4 >>64 56\n 48179: u8 [a0 + 31] = a5\n 48182: a5 = a4 >>64 48\n 48185: u8 [a0 + 30] = a5\n 48188: a5 = a4 >>64 40\n 48191: u8 [a0 + 29] = a5\n 48194: a5 = a4 >>64 32\n 48197: u8 [a0 + 28] = a5\n 48200: a5 = a4 >>64 24\n 48203: u8 [a0 + 27] = a5\n 48206: a5 = a4 >>64 16\n 48209: u8 [a0 + 26] = a5\n 48212: a4 = a4 >>64 8\n 48215: u8 [a0 + 25] = a4\n 48218: u8 [a0 + 16] = a3\n 48221: a4 = a3 >>64 56\n 48224: u8 [a0 + 23] = a4\n 48227: a4 = a3 >>64 48\n 48230: u8 [a0 + 22] = a4\n 48233: a4 = a3 >>64 40\n 48236: u8 [a0 + 21] = a4\n 48239: a4 = a3 >>64 32\n 48242: u8 [a0 + 20] = a4\n 48245: a4 = a3 >>64 24\n 48248: u8 [a0 + 19] = a4\n 48251: a4 = a3 >>64 16\n 48254: u8 [a0 + 18] = a4\n 48257: a3 = a3 >>64 8\n 48260: u8 [a0 + 17] = a3\n 48263: u8 [a0 + 8] = a2\n 48266: a3 = a2 >>64 56\n 48269: u8 [a0 + 15] = a3\n 48272: a3 = a2 >>64 48\n 48275: u8 [a0 + 14] = a3\n 48278: a3 = a2 >>64 40\n 48281: u8 [a0 + 13] = a3\n 48284: a3 = a2 >>64 32\n 48287: u8 [a0 + 12] = a3\n 48290: a3 = a2 >>64 24\n 48293: u8 [a0 + 11] = a3\n 48296: a3 = a2 >>64 16\n 48299: u8 [a0 + 10] = a3\n 48302: a2 = a2 >>64 8\n 48305: u8 [a0 + 9] = a2\n 48308: u8 [a0] = a1\n 48310: a2 = a1 >>64 56\n 48313: u8 [a0 + 7] = a2\n 48316: a2 = a1 >>64 48\n 48319: u8 [a0 + 6] = a2\n 48322: a2 = a1 >>64 40\n 48325: u8 [a0 + 5] = a2\n 48328: a2 = a1 >>64 32\n 48331: u8 [a0 + 4] = a2\n 48334: a2 = a1 >>64 24\n 48337: u8 [a0 + 3] = a2\n 48340: a2 = a1 >>64 16\n 48343: u8 [a0 + 2] = a2\n 48346: a1 = a1 >>64 8\n 48349: u8 [a0 + 1] = a1\n 48352: a1 = 0x40\n 48355: a0 = u64 [s1 + 120]\n 48358: ra = 670, jump @0\n      : @1017 [@dyn 335] (gas: 1)\n 48365: jump @1028 if a0 == 0\n      : @1018 (gas: 22)\n 48369: i64 a0 = i64 sp - i64 32\n 48372: a0 = a0 & 0xffffffe0\n 48375: sp = a0\n 48377: a1 = u64 [0x20000]\n 48382: a2 = u64 [0x20008]\n 48387: a3 = u64 [0x20010]\n 48392: a4 = u64 [0x20018]\n 48397: u64 [a0 + 24] = a1\n 48400: u64 [a0 + 16] = a2\n 48403: u64 [a0 + 8] = a3\n 48406: u64 [a0] = a4\n 48408: a2 = i32 [s1 + 104]\n 48411: a0 = a0 + 0x0\n 48413: a1 = 0x1\n 48416: a3 = 0x40\n 48419: ecalli 4 // 'deposit_event'\n 48421: i64 sp = i64 s0 - i64 416\n 48425: ra = u64 [sp + 408]\n 48429: s0 = u64 [sp + 400]\n 48433: s1 = u64 [sp + 392]\n 48437: i64 sp = i64 sp + 0x1a0\n 48441: ret\n      : @1019 (gas: 3)\n 48443: a0 = 0x40\n 48446: a1 = 0x20\n 48449: ra = 672, jump @0\n      : @1020 [@dyn 336] (gas: 1)\n 48456: jump @1028 if a0 == 0\n      : @1021 (gas: 22)\n 48460: a3 = 0x20050\n 48465: a0 = u64 [0x20098]\n 48470: a1 = u64 [0x20090]\n 48475: a2 = u64 [0x200a0]\n 48480: u64 [s1 + 88] = a3\n 48483: a3 = u64 [0x200a8]\n 48488: a4 = reverse a0\n 48490: a5 = reverse a1\n 48492: a0 = reverse a2\n 48494: a1 = reverse a3\n 48496: u64 [s1 + 112] = a0\n 48499: u64 [s1 + 96] = a5\n 48502: a0 = a0 | a5\n 48505: u64 [s1 + 120] = a1\n 48508: a1 = a1 | a4\n 48511: a1 = a1 | a0\n 48514: a1 = a1 >>64 32\n 48517: u64 [s1 + 104] = a4\n 48520: a0 = a0 | a4\n 48523: a0 = a0 <<64 32\n 48526: a0 = a0 | a1\n 48529: jump @1028 if a0 != 0\n      : @1022 (gas: 4)\n 48533: a0 = i32 [s1 + 120]\n 48536: a1 = 0x20\n 48539: u64 [s1 + 80] = a0\n 48542: ra = 674, jump @0\n      : @1023 [@dyn 337] (gas: 1)\n 48549: jump @1028 if a0 == 0\n      : @1024 (gas: 50)\n 48553: a0 = u64 [s1 + 80]\n 48556: a1 = u64 [s1 + 88]\n 48559: i64 a1 = a1 + a0\n 48562: u8 [a1 + 31] = 0\n 48565: u8 [a1 + 30] = 0\n 48568: u8 [a1 + 29] = 0\n 48571: u8 [a1 + 28] = 0\n 48574: u8 [a1 + 27] = 0\n 48577: u8 [a1 + 26] = 0\n 48580: u8 [a1 + 25] = 0\n 48583: u8 [a1 + 24] = 0\n 48586: u8 [a1 + 23] = 0\n 48589: u8 [a1 + 22] = 0\n 48592: u8 [a1 + 21] = 0\n 48595: u8 [a1 + 20] = 0\n 48598: u8 [a1 + 19] = 0\n 48601: u8 [a1 + 18] = 0\n 48604: u8 [a1 + 17] = 0\n 48607: u8 [a1 + 16] = 0\n 48610: u8 [a1 + 15] = 0\n 48613: u8 [a1 + 14] = 0\n 48616: u8 [a1 + 13] = 0\n 48619: u8 [a1 + 12] = 0\n 48622: u8 [a1 + 11] = 0\n 48625: u8 [a1 + 10] = 0\n 48628: u8 [a1 + 9] = 0\n 48631: u8 [a1 + 8] = 0\n 48634: u8 [a1 + 7] = 0\n 48637: u8 [a1 + 6] = 0\n 48640: u8 [a1 + 5] = 0\n 48643: u8 [a1 + 4] = 0\n 48646: u8 [a1 + 3] = 160\n 48651: u8 [a1 + 2] = 121\n 48655: u8 [a1 + 1] = 195\n 48660: u64 [s1 + 88] = a1\n 48663: u8 [a1 + 0] = 8\n 48666: a0 = u64 [s1 + 120]\n 48669: i64 a1 = i64 a0 + 0x4\n 48672: a0 = a1 <u a0\n 48675: a3 = u64 [s1 + 112]\n 48678: i64 a2 = a3 + a0\n 48681: a3 = a2 <u a3\n 48684: a3 = a0 if a0 == 0\n 48687: a0 = u64 [s1 + 104]\n 48690: i64 a3 = a3 + a0\n 48693: a4 = a3 <u a0\n 48696: a0 = u64 [s1 + 96]\n 48699: i64 a4 = a4 + a0\n 48702: i64 a0 = i64 s1 + 0x80\n 48706: ra = 676, jump @995\n      : @1025 [@dyn 338] (gas: 31)\n 48712: a1 = u64 [s1 + 136]\n 48716: t0 = u64 [s1 + 152]\n 48720: t1 = u64 [s1 + 128]\n 48724: a3 = u64 [s1 + 144]\n 48728: a0 = u64 [s1 + 112]\n 48731: a4 = a1 ^ a0\n 48734: a5 = a1 <u a0\n 48737: ra = a0\n 48739: t2 = u64 [s1 + 120]\n 48742: a2 = t1 <u t2\n 48745: a5 = a2 if a4 == 0\n 48748: a0 = u64 [s1 + 104]\n 48751: i64 a4 = i64 a3 - i64 a0\n 48754: a3 = a3 <u a0\n 48757: a0 = u64 [s1 + 96]\n 48760: i64 a0 = i64 t0 - i64 a0\n 48763: i64 a0 = i64 a0 - i64 a3\n 48766: a3 = a4 <u a5\n 48769: i64 a0 = i64 a0 - i64 a3\n 48772: i64 a4 = i64 a4 - i64 a5\n 48775: i64 a1 = i64 a1 - i64 ra\n 48778: i64 a1 = i64 a1 - i64 a2\n 48781: a0 = a0 | a1\n 48784: i64 a1 = i64 t1 - i64 t2\n 48787: a1 = a1 | a4\n 48790: a1 = a1 | a0\n 48793: a0 = a0 | a4\n 48796: a1 = a1 >>64 32\n 48799: a0 = a0 <<64 32\n 48802: a0 = a0 | a1\n 48805: jump @1028 if a0 != 0\n      : @1026 (gas: 5)\n 48808: a0 = u64 [s1 + 120]\n 48811: a1 = t1 - a0\n 48814: a0 = u64 [s1 + 80]\n 48817: u64 [s1 + 120] = a1\n 48820: ra = 678, jump @0\n      : @1027 [@dyn 339] (gas: 1)\n 48827: jump @1029 if a0 != 0\n      : @1028 (gas: 1)\n 48830: trap\n      : @1029 (gas: 6)\n 48831: a1 = i32 [s1 + 88]\n 48834: a0 = 0x1\n 48837: a2 = u64 [s1 + 120]\n 48840: ra = 0x2a8\n 48844: ecalli 11 // 'seal_return'\n 48846: fallthrough\n      : @1030 [@dyn 340] (gas: 14)\n 48847: i64 sp = i64 sp - i64 384\n 48851: u64 [sp + 376] = ra\n 48855: u64 [sp + 368] = s0\n 48859: u64 [sp + 360] = s1\n 48863: i64 s0 = i64 sp + 0x180\n 48867: sp = sp & 0xffffffe0\n 48870: u64 [sp + 160] = a4\n 48874: u64 [sp + 152] = a3\n 48878: u64 [sp + 144] = a2\n 48882: u64 [sp + 136] = a1\n 48886: u64 [sp + 16] = a0\n 48889: a0 = 0x40\n 48892: a1 = 0x20\n 48895: ra = 682, jump @0\n      : @1031 [@dyn 341] (gas: 1)\n 48902: jump @1072 if a0 == 0\n      : @1032 (gas: 19)\n 48906: a3 = 0x20050\n 48911: a0 = u64 [0x20090]\n 48916: a1 = u64 [0x20098]\n 48921: a2 = u64 [0x200a0]\n 48926: u64 [sp + 184] = a3\n 48930: a4 = u64 [0x200a8]\n 48935: a3 = reverse a0\n 48937: u64 [sp + 96] = a3\n 48940: s1 = reverse a1\n 48942: a1 = reverse a2\n 48944: u64 [sp + 176] = a1\n 48948: a0 = reverse a4\n 48950: u64 [sp + 168] = a0\n 48954: u64 [sp + 0] = 0\n 48956: a4 = 0x100\n 48960: a2 = s1\n 48962: a5 = 0x0\n 48964: t2 = 0x0\n 48966: ra = 684, jump @119\n      : @1033 [@dyn 342] (gas: 23)\n 48973: a0 = u64 [sp + 160]\n 48977: u64 [sp + 344] = a0\n 48981: a0 = u64 [sp + 152]\n 48985: u64 [sp + 336] = a0\n 48989: a0 = u64 [sp + 144]\n 48993: u64 [sp + 328] = a0\n 48997: a0 = u64 [sp + 136]\n 49001: u64 [sp + 320] = a0\n 49005: u64 [sp + 312] = 0\n 49009: u64 [sp + 304] = 0\n 49013: u64 [sp + 296] = 0\n 49017: u64 [sp + 288] = 0\n 49021: u64 [sp + 272] = 0\n 49025: u64 [sp + 280] = 0\n 49029: u64 [sp + 264] = 0\n 49033: u64 [sp + 256] = 256\n 49039: a1 = sp + 0x140\n 49043: a3 = sp + 0x120\n 49047: a4 = sp + 0x100\n 49051: a2 = 0xffffffff\n 49054: a0 = 0x0\n 49056: ecalli 5 // 'get_storage'\n 49058: fallthrough\n      : @1034 (gas: 12)\n 49059: a2 = u64 [sp + 168]\n 49063: a1 = u64 [sp + 176]\n 49067: a0 = u64 [sp + 96]\n 49070: a0 = a0 | a1\n 49073: a1 = a2 | s1\n 49076: a1 = a1 | a0\n 49079: a1 = a1 >>64 32\n 49082: u64 [sp + 88] = s1\n 49085: a0 = a0 | s1\n 49088: a0 = a0 <<64 32\n 49091: a0 = a0 | a1\n 49094: jump @1072 if a0 != 0\n      : @1035 (gas: 10)\n 49098: a0 = u32 [sp + 304]\n 49102: u64 [sp + 104] = a0\n 49105: a0 = u64 [sp + 296]\n 49109: u64 [sp + 112] = a0\n 49112: a0 = u64 [sp + 288]\n 49116: u64 [sp + 120] = a0\n 49119: s1 = a2 + 0x0\n 49121: a1 = 0x20\n 49124: a0 = s1\n 49126: ra = 686, jump @0\n      : @1036 [@dyn 343] (gas: 1)\n 49133: jump @1072 if a0 == 0\n      : @1037 (gas: 62)\n 49137: u64 [sp + 128] = s1\n 49141: a0 = u64 [sp + 184]\n 49145: i64 a0 = a0 + s1\n 49148: a1 = u64 [sp + 104]\n 49151: a1 = reverse a1\n 49153: a2 = u64 [sp + 112]\n 49156: a2 = reverse a2\n 49158: a3 = u64 [sp + 120]\n 49161: a3 = reverse a3\n 49163: u8 [a0 + 24] = a3\n 49166: u8 [a0 + 11] = 0\n 49169: u8 [a0 + 10] = 0\n 49172: u8 [a0 + 9] = 0\n 49175: u8 [a0 + 7] = 0\n 49178: u8 [a0 + 6] = 0\n 49181: u8 [a0 + 5] = 0\n 49184: u8 [a0 + 4] = 0\n 49187: u8 [a0 + 3] = 0\n 49190: u8 [a0 + 2] = 0\n 49193: u8 [a0 + 1] = 0\n 49196: u8 [a0 + 0] = 0\n 49198: a4 = a3 >>64 56\n 49201: u8 [a0 + 31] = a4\n 49204: a4 = a3 >>64 48\n 49207: u8 [a0 + 30] = a4\n 49210: a4 = a3 >>64 40\n 49213: u8 [a0 + 29] = a4\n 49216: a4 = a3 >>64 32\n 49219: u8 [a0 + 28] = a4\n 49222: a4 = a3 >>64 24\n 49225: u8 [a0 + 27] = a4\n 49228: a4 = a3 >>64 16\n 49231: u8 [a0 + 26] = a4\n 49234: a3 = a3 >>64 8\n 49237: u8 [a0 + 25] = a3\n 49240: u8 [a0 + 16] = a2\n 49243: a3 = a2 >>64 56\n 49246: u8 [a0 + 23] = a3\n 49249: a3 = a2 >>64 48\n 49252: u8 [a0 + 22] = a3\n 49255: a3 = a2 >>64 40\n 49258: u8 [a0 + 21] = a3\n 49261: a3 = a2 >>64 32\n 49264: u8 [a0 + 20] = a3\n 49267: a3 = a2 >>64 24\n 49270: u8 [a0 + 19] = a3\n 49273: a3 = a2 >>64 16\n 49276: u8 [a0 + 18] = a3\n 49279: a2 = a2 >>64 8\n 49282: u8 [a0 + 17] = a2\n 49285: u8 [a0 + 8] = a1\n 49288: a2 = a1 >>64 56\n 49291: u8 [a0 + 15] = a2\n 49294: a2 = a1 >>64 48\n 49297: u8 [a0 + 14] = a2\n 49300: a2 = a1 >>64 40\n 49303: u8 [a0 + 13] = a2\n 49306: a1 = a1 >>64 32\n 49309: u8 [a0 + 12] = a1\n 49312: a0 = 0x40\n 49315: a1 = 0x20\n 49318: ra = 688, jump @0\n      : @1038 [@dyn 344] (gas: 1)\n 49325: jump @1072 if a0 == 0\n      : @1039 (gas: 34)\n 49329: a1 = u64 [sp + 136]\n 49333: i64 a1 = i64 a1 + 0x1\n 49336: a2 = a1 <u 0x1\n 49339: a0 = u64 [sp + 144]\n 49343: i64 a2 = a2 + a0\n 49346: a0 = a1 | a2\n 49349: a3 = a0 <u 0x1\n 49352: a0 = u64 [sp + 152]\n 49356: i64 a3 = a3 + a0\n 49359: a4 = a3 <u a0\n 49362: a0 = u64 [sp + 160]\n 49366: i64 a4 = a4 + a0\n 49369: a0 = u64 [sp + 184]\n 49373: t1 = u64 [a0 + 88]\n 49376: a5 = u64 [a0 + 80]\n 49379: s1 = u64 [a0 + 72]\n 49382: t0 = u64 [a0 + 64]\n 49385: u64 [sp + 72] = t1\n 49388: t1 = reverse t1\n 49390: u64 [sp + 64] = a5\n 49393: t2 = reverse a5\n 49395: u64 [sp + 80] = t2\n 49398: u64 [sp + 56] = s1\n 49401: a5 = reverse s1\n 49403: u64 [sp + 112] = a5\n 49406: u64 [sp + 48] = t0\n 49409: a0 = reverse t0\n 49411: u64 [sp + 120] = a0\n 49414: u64 [sp + 8] = a0\n 49417: i64 a0 = i64 sp + 0xe0\n 49421: u64 [sp] = a5\n 49423: s1 = t1\n 49425: a5 = t1\n 49427: ra = 690, jump @1496\n      : @1040 [@dyn 345] (gas: 27)\n 49433: a0 = u64 [sp + 232]\n 49437: t2 = u64 [sp + 248]\n 49441: t1 = u64 [sp + 224]\n 49445: a3 = u64 [sp + 240]\n 49449: t0 = u64 [sp + 80]\n 49452: a4 = a0 ^ t0\n 49455: a5 = a0 <u t0\n 49458: ra = t1 <u s1\n 49461: a5 = ra if a4 == 0\n 49464: a2 = u64 [sp + 112]\n 49467: i64 a4 = i64 a3 - i64 a2\n 49470: i64 a1 = i64 a4 - i64 a5\n 49473: u64 [sp + 104] = a1\n 49476: a4 = a4 <u a5\n 49479: a1 = a3 <u a2\n 49482: a3 = u64 [sp + 120]\n 49485: i64 a5 = i64 t2 - i64 a3\n 49488: i64 a5 = i64 a5 - i64 a1\n 49491: i64 a1 = i64 a5 - i64 a4\n 49494: i64 a0 = i64 a0 - i64 t0\n 49497: i64 a5 = i64 a0 - i64 ra\n 49500: i64 a4 = i64 t1 - i64 s1\n 49503: a0 = s1\n 49505: u64 [sp] = a1\n 49507: a1 = t0\n 49509: t2 = u64 [sp + 104]\n 49512: ra = 692, jump @119\n      : @1041 [@dyn 346] (gas: 17)\n 49519: a1 = u64 [sp + 88]\n 49522: a0 = a1 >u 0x0\n 49524: a2 = u64 [sp + 96]\n 49527: a4 = a2 >u 0x0\n 49529: a4 = a0 if a2 == 0\n 49532: a0 = 0xffffffdf\n 49542: a3 = u64 [sp + 168]\n 49546: a0 = a0 <u a3\n 49549: a3 = u64 [sp + 176]\n 49553: a5 = a3 >u 0x0\n 49555: u64 [sp + 112] = a5\n 49558: a0 = a5 if a3 != 0\n 49561: a1 = a1 | a2\n 49564: u64 [sp + 120] = a4\n 49567: u64 [sp + 104] = a1\n 49570: a0 = a4 if a1 != 0\n 49573: jump @1072 if a0 != 0\n      : @1042 (gas: 5)\n 49577: a0 = u64 [sp + 128]\n 49581: s1 = a0 + 0x20\n 49584: a1 = 0x20\n 49587: a0 = s1\n 49589: ra = 694, jump @0\n      : @1043 [@dyn 347] (gas: 1)\n 49596: jump @1072 if a0 == 0\n      : @1044 (gas: 69)\n 49600: a0 = u64 [sp + 184]\n 49604: i64 s1 = s1 + a0\n 49607: a1 = u64 [sp + 56]\n 49610: u8 [s1 + 8] = a1\n 49613: a2 = u64 [sp + 48]\n 49616: a0 = a2 >>64 56\n 49619: u8 [s1 + 7] = a0\n 49622: a0 = a2 >>64 48\n 49625: u8 [s1 + 6] = a0\n 49628: a0 = a2 >>64 40\n 49631: u8 [s1 + 5] = a0\n 49634: a0 = a2 >>64 32\n 49637: u8 [s1 + 4] = a0\n 49640: a0 = a2 >>64 24\n 49643: u8 [s1 + 3] = a0\n 49646: a0 = a2 >>64 16\n 49649: u8 [s1 + 2] = a0\n 49652: a0 = a2 >>64 8\n 49655: u8 [s1 + 1] = a0\n 49658: u8 [s1] = a2\n 49660: a2 = u64 [sp + 64]\n 49663: u8 [s1 + 16] = a2\n 49666: a0 = a1 >>64 56\n 49669: u8 [s1 + 15] = a0\n 49672: a0 = a1 >>64 48\n 49675: u8 [s1 + 14] = a0\n 49678: a0 = a1 >>64 40\n 49681: u8 [s1 + 13] = a0\n 49684: a0 = a1 >>64 32\n 49687: u8 [s1 + 12] = a0\n 49690: a0 = a1 >>64 24\n 49693: u8 [s1 + 11] = a0\n 49696: a0 = a1 >>64 16\n 49699: u8 [s1 + 10] = a0\n 49702: a0 = a1 >>64 8\n 49705: u8 [s1 + 9] = a0\n 49708: a1 = u64 [sp + 72]\n 49711: u8 [s1 + 24] = a1\n 49714: a0 = a2 >>64 56\n 49717: u8 [s1 + 23] = a0\n 49720: a0 = a2 >>64 48\n 49723: u8 [s1 + 22] = a0\n 49726: a0 = a2 >>64 40\n 49729: u8 [s1 + 21] = a0\n 49732: a0 = a2 >>64 32\n 49735: u8 [s1 + 20] = a0\n 49738: a0 = a2 >>64 24\n 49741: u8 [s1 + 19] = a0\n 49744: a0 = a2 >>64 16\n 49747: u8 [s1 + 18] = a0\n 49750: a0 = a2 >>64 8\n 49753: u8 [s1 + 17] = a0\n 49756: a0 = a1 >>64 56\n 49759: u8 [s1 + 31] = a0\n 49762: a0 = a1 >>64 48\n 49765: u8 [s1 + 30] = a0\n 49768: a0 = a1 >>64 40\n 49771: u8 [s1 + 29] = a0\n 49774: a0 = a1 >>64 32\n 49777: u8 [s1 + 28] = a0\n 49780: a0 = a1 >>64 24\n 49783: u8 [s1 + 27] = a0\n 49786: a0 = a1 >>64 16\n 49789: u8 [s1 + 26] = a0\n 49792: a0 = a1 >>64 8\n 49795: u8 [s1 + 25] = a0\n 49798: a0 = 0x40\n 49801: a1 = 0x20\n 49804: ra = 696, jump @0\n      : @1045 [@dyn 348] (gas: 1)\n 49811: jump @1072 if a0 == 0\n      : @1046 (gas: 34)\n 49815: a0 = u64 [sp + 136]\n 49819: i64 a1 = i64 a0 + 0x2\n 49822: a0 = a1 <u a0\n 49825: a3 = u64 [sp + 144]\n 49829: i64 a2 = a3 + a0\n 49832: a3 = a2 <u a3\n 49835: a3 = a0 if a0 == 0\n 49838: a0 = u64 [sp + 152]\n 49842: i64 a3 = a3 + a0\n 49845: a4 = a3 <u a0\n 49848: a0 = u64 [sp + 160]\n 49852: i64 a4 = a4 + a0\n 49855: a0 = u64 [sp + 184]\n 49859: t1 = u64 [a0 + 88]\n 49862: a5 = u64 [a0 + 80]\n 49865: s1 = u64 [a0 + 72]\n 49868: t0 = u64 [a0 + 64]\n 49871: u64 [sp + 48] = t1\n 49874: t1 = reverse t1\n 49876: u64 [sp + 40] = a5\n 49879: t2 = reverse a5\n 49881: u64 [sp + 56] = t2\n 49884: u64 [sp + 32] = s1\n 49887: a5 = reverse s1\n 49889: u64 [sp + 72] = a5\n 49892: u64 [sp + 24] = t0\n 49895: a0 = reverse t0\n 49897: u64 [sp + 80] = a0\n 49900: u64 [sp + 8] = a0\n 49903: i64 a0 = i64 sp + 0xc0\n 49907: u64 [sp] = a5\n 49909: s1 = t1\n 49911: a5 = t1\n 49913: ra = 698, jump @1496\n      : @1047 [@dyn 349] (gas: 27)\n 49919: a0 = u64 [sp + 200]\n 49923: t2 = u64 [sp + 216]\n 49927: t1 = u64 [sp + 192]\n 49931: a3 = u64 [sp + 208]\n 49935: t0 = u64 [sp + 56]\n 49938: a4 = a0 ^ t0\n 49941: a5 = a0 <u t0\n 49944: ra = t1 <u s1\n 49947: a5 = ra if a4 == 0\n 49950: a2 = u64 [sp + 72]\n 49953: i64 a4 = i64 a3 - i64 a2\n 49956: i64 a1 = i64 a4 - i64 a5\n 49959: u64 [sp + 64] = a1\n 49962: a4 = a4 <u a5\n 49965: a1 = a3 <u a2\n 49968: a3 = u64 [sp + 80]\n 49971: i64 a5 = i64 t2 - i64 a3\n 49974: i64 a5 = i64 a5 - i64 a1\n 49977: i64 a1 = i64 a5 - i64 a4\n 49980: i64 a0 = i64 a0 - i64 t0\n 49983: i64 a5 = i64 a0 - i64 ra\n 49986: i64 a4 = i64 t1 - i64 s1\n 49989: a0 = s1\n 49991: u64 [sp] = a1\n 49993: a1 = t0\n 49995: t2 = u64 [sp + 64]\n 49998: ra = 700, jump @119\n      : @1048 [@dyn 350] (gas: 10)\n 50005: a0 = 0xffffffbf\n 50015: a1 = u64 [sp + 168]\n 50019: a0 = a0 <u a1\n 50022: a1 = u64 [sp + 176]\n 50026: a2 = u64 [sp + 112]\n 50029: a0 = a2 if a1 != 0\n 50032: a1 = u64 [sp + 120]\n 50035: a2 = u64 [sp + 104]\n 50038: a0 = a1 if a2 != 0\n 50041: jump @1072 if a0 != 0\n      : @1049 (gas: 5)\n 50045: a0 = u64 [sp + 128]\n 50049: s1 = a0 + 0x40\n 50052: a1 = 0x20\n 50055: a0 = s1\n 50057: ra = 702, jump @0\n      : @1050 [@dyn 351] (gas: 1)\n 50064: jump @1072 if a0 == 0\n      : @1051 (gas: 97)\n 50068: a0 = u64 [sp + 184]\n 50072: i64 s1 = s1 + a0\n 50075: a1 = u64 [sp + 32]\n 50078: u8 [s1 + 8] = a1\n 50081: a2 = u64 [sp + 24]\n 50084: a0 = a2 >>64 56\n 50087: u8 [s1 + 7] = a0\n 50090: a0 = a2 >>64 48\n 50093: u8 [s1 + 6] = a0\n 50096: a0 = a2 >>64 40\n 50099: u8 [s1 + 5] = a0\n 50102: a0 = a2 >>64 32\n 50105: u8 [s1 + 4] = a0\n 50108: a0 = a2 >>64 24\n 50111: u8 [s1 + 3] = a0\n 50114: a0 = a2 >>64 16\n 50117: u8 [s1 + 2] = a0\n 50120: a0 = a2 >>64 8\n 50123: u8 [s1 + 1] = a0\n 50126: u8 [s1] = a2\n 50128: a2 = u64 [sp + 40]\n 50131: u8 [s1 + 16] = a2\n 50134: a0 = a1 >>64 56\n 50137: u8 [s1 + 15] = a0\n 50140: a0 = a1 >>64 48\n 50143: u8 [s1 + 14] = a0\n 50146: a0 = a1 >>64 40\n 50149: u8 [s1 + 13] = a0\n 50152: a0 = a1 >>64 32\n 50155: u8 [s1 + 12] = a0\n 50158: a0 = a1 >>64 24\n 50161: u8 [s1 + 11] = a0\n 50164: a0 = a1 >>64 16\n 50167: u8 [s1 + 10] = a0\n 50170: a0 = a1 >>64 8\n 50173: u8 [s1 + 9] = a0\n 50176: a1 = u64 [sp + 48]\n 50179: u8 [s1 + 24] = a1\n 50182: a0 = a2 >>64 56\n 50185: u8 [s1 + 23] = a0\n 50188: a0 = a2 >>64 48\n 50191: u8 [s1 + 22] = a0\n 50194: a0 = a2 >>64 40\n 50197: u8 [s1 + 21] = a0\n 50200: a0 = a2 >>64 32\n 50203: u8 [s1 + 20] = a0\n 50206: a0 = a2 >>64 24\n 50209: u8 [s1 + 19] = a0\n 50212: a0 = a2 >>64 16\n 50215: u8 [s1 + 18] = a0\n 50218: a0 = a2 >>64 8\n 50221: u8 [s1 + 17] = a0\n 50224: a0 = a1 >>64 56\n 50227: u8 [s1 + 31] = a0\n 50230: a0 = a1 >>64 48\n 50233: u8 [s1 + 30] = a0\n 50236: a0 = a1 >>64 40\n 50239: u8 [s1 + 29] = a0\n 50242: a0 = a1 >>64 32\n 50245: u8 [s1 + 28] = a0\n 50248: a0 = a1 >>64 24\n 50251: u8 [s1 + 27] = a0\n 50254: a0 = a1 >>64 16\n 50257: u8 [s1 + 26] = a0\n 50260: a0 = a1 >>64 8\n 50263: u8 [s1 + 25] = a0\n 50266: a1 = u64 [sp + 136]\n 50270: i64 a0 = i64 a1 + 0x3\n 50273: a1 = a0 <u a1\n 50276: a3 = u64 [sp + 144]\n 50280: i64 a2 = a3 + a1\n 50283: a3 = a2 <u a3\n 50286: a3 = a1 if a1 == 0\n 50289: a1 = u64 [sp + 152]\n 50293: i64 a3 = a3 + a1\n 50296: a1 = a3 <u a1\n 50299: a4 = u64 [sp + 160]\n 50303: i64 a1 = a1 + a4\n 50306: u64 [sp + 336] = a3\n 50310: u64 [sp + 328] = a2\n 50314: u64 [sp + 320] = a0\n 50318: u64 [sp + 344] = a1\n 50322: u64 [sp + 312] = 0\n 50326: u64 [sp + 304] = 0\n 50330: u64 [sp + 296] = 0\n 50334: u64 [sp + 288] = 0\n 50338: u64 [sp + 272] = 0\n 50342: u64 [sp + 280] = 0\n 50346: u64 [sp + 264] = 0\n 50350: u64 [sp + 256] = 256\n 50356: a1 = sp + 0x140\n 50360: a3 = sp + 0x120\n 50364: a4 = sp + 0x100\n 50368: a2 = 0xffffffff\n 50371: a0 = 0x0\n 50373: ecalli 5 // 'get_storage'\n 50375: fallthrough\n      : @1052 (gas: 10)\n 50376: a0 = 0xffffff9f\n 50386: a1 = u64 [sp + 168]\n 50390: a0 = a0 <u a1\n 50393: a1 = u64 [sp + 176]\n 50397: a2 = u64 [sp + 112]\n 50400: a0 = a2 if a1 != 0\n 50403: a1 = u64 [sp + 120]\n 50406: a2 = u64 [sp + 104]\n 50409: a0 = a1 if a2 != 0\n 50412: jump @1072 if a0 != 0\n      : @1053 (gas: 13)\n 50416: a0 = u64 [sp + 312]\n 50420: u64 [sp + 56] = a0\n 50423: a0 = u64 [sp + 304]\n 50427: u64 [sp + 64] = a0\n 50430: a0 = u64 [sp + 296]\n 50434: u64 [sp + 72] = a0\n 50437: a0 = u64 [sp + 288]\n 50441: u64 [sp + 80] = a0\n 50444: a0 = u64 [sp + 128]\n 50448: s1 = a0 + 0x60\n 50451: a1 = 0x20\n 50454: a0 = s1\n 50456: ra = 704, jump @0\n      : @1054 [@dyn 352] (gas: 1)\n 50463: jump @1072 if a0 == 0\n      : @1055 (gas: 101)\n 50467: a0 = u64 [sp + 184]\n 50471: i64 s1 = s1 + a0\n 50474: a0 = u64 [sp + 56]\n 50477: a0 = reverse a0\n 50479: a1 = u64 [sp + 64]\n 50482: a1 = reverse a1\n 50484: a2 = u64 [sp + 72]\n 50487: a2 = reverse a2\n 50489: a3 = u64 [sp + 80]\n 50492: a3 = reverse a3\n 50494: u8 [s1 + 24] = a3\n 50497: a4 = a3 >>64 56\n 50500: u8 [s1 + 31] = a4\n 50503: a4 = a3 >>64 48\n 50506: u8 [s1 + 30] = a4\n 50509: a4 = a3 >>64 40\n 50512: u8 [s1 + 29] = a4\n 50515: a4 = a3 >>64 32\n 50518: u8 [s1 + 28] = a4\n 50521: a4 = a3 >>64 24\n 50524: u8 [s1 + 27] = a4\n 50527: a4 = a3 >>64 16\n 50530: u8 [s1 + 26] = a4\n 50533: a3 = a3 >>64 8\n 50536: u8 [s1 + 25] = a3\n 50539: u8 [s1 + 16] = a2\n 50542: a3 = a2 >>64 56\n 50545: u8 [s1 + 23] = a3\n 50548: a3 = a2 >>64 48\n 50551: u8 [s1 + 22] = a3\n 50554: a3 = a2 >>64 40\n 50557: u8 [s1 + 21] = a3\n 50560: a3 = a2 >>64 32\n 50563: u8 [s1 + 20] = a3\n 50566: a3 = a2 >>64 24\n 50569: u8 [s1 + 19] = a3\n 50572: a3 = a2 >>64 16\n 50575: u8 [s1 + 18] = a3\n 50578: a2 = a2 >>64 8\n 50581: u8 [s1 + 17] = a2\n 50584: u8 [s1 + 8] = a1\n 50587: a2 = a1 >>64 56\n 50590: u8 [s1 + 15] = a2\n 50593: a2 = a1 >>64 48\n 50596: u8 [s1 + 14] = a2\n 50599: a2 = a1 >>64 40\n 50602: u8 [s1 + 13] = a2\n 50605: a2 = a1 >>64 32\n 50608: u8 [s1 + 12] = a2\n 50611: a2 = a1 >>64 24\n 50614: u8 [s1 + 11] = a2\n 50617: a2 = a1 >>64 16\n 50620: u8 [s1 + 10] = a2\n 50623: a1 = a1 >>64 8\n 50626: u8 [s1 + 9] = a1\n 50629: u8 [s1] = a0\n 50631: a1 = a0 >>64 56\n 50634: u8 [s1 + 7] = a1\n 50637: a1 = a0 >>64 48\n 50640: u8 [s1 + 6] = a1\n 50643: a1 = a0 >>64 40\n 50646: u8 [s1 + 5] = a1\n 50649: a1 = a0 >>64 32\n 50652: u8 [s1 + 4] = a1\n 50655: a1 = a0 >>64 24\n 50658: u8 [s1 + 3] = a1\n 50661: a1 = a0 >>64 16\n 50664: u8 [s1 + 2] = a1\n 50667: a0 = a0 >>64 8\n 50670: u8 [s1 + 1] = a0\n 50673: a1 = u64 [sp + 136]\n 50677: i64 a0 = i64 a1 + 0x4\n 50680: a1 = a0 <u a1\n 50683: a3 = u64 [sp + 144]\n 50687: i64 a2 = a3 + a1\n 50690: a3 = a2 <u a3\n 50693: a3 = a1 if a1 == 0\n 50696: a1 = u64 [sp + 152]\n 50700: i64 a3 = a3 + a1\n 50703: a1 = a3 <u a1\n 50706: a4 = u64 [sp + 160]\n 50710: i64 a1 = a1 + a4\n 50713: u64 [sp + 336] = a3\n 50717: u64 [sp + 328] = a2\n 50721: u64 [sp + 320] = a0\n 50725: u64 [sp + 344] = a1\n 50729: u64 [sp + 312] = 0\n 50733: u64 [sp + 304] = 0\n 50737: u64 [sp + 296] = 0\n 50741: u64 [sp + 288] = 0\n 50745: u64 [sp + 272] = 0\n 50749: u64 [sp + 280] = 0\n 50753: u64 [sp + 264] = 0\n 50757: u64 [sp + 256] = 256\n 50763: a1 = sp + 0x140\n 50767: a3 = sp + 0x120\n 50771: a4 = sp + 0x100\n 50775: a2 = 0xffffffff\n 50778: a0 = 0x0\n 50780: ecalli 5 // 'get_storage'\n 50782: fallthrough\n      : @1056 (gas: 10)\n 50783: a0 = 0xffffff7f\n 50793: a1 = u64 [sp + 168]\n 50797: a0 = a0 <u a1\n 50800: a1 = u64 [sp + 176]\n 50804: a2 = u64 [sp + 112]\n 50807: a0 = a2 if a1 != 0\n 50810: a1 = u64 [sp + 120]\n 50813: a2 = u64 [sp + 104]\n 50816: a0 = a1 if a2 != 0\n 50819: jump @1072 if a0 != 0\n      : @1057 (gas: 13)\n 50823: a0 = u64 [sp + 312]\n 50827: u64 [sp + 56] = a0\n 50830: a0 = u64 [sp + 304]\n 50834: u64 [sp + 64] = a0\n 50837: a0 = u64 [sp + 296]\n 50841: u64 [sp + 72] = a0\n 50844: a0 = u64 [sp + 288]\n 50848: u64 [sp + 80] = a0\n 50851: a0 = u64 [sp + 128]\n 50855: s1 = a0 + 0x80\n 50859: a1 = 0x20\n 50862: a0 = s1\n 50864: ra = 706, jump @0\n      : @1058 [@dyn 353] (gas: 1)\n 50871: jump @1072 if a0 == 0\n      : @1059 (gas: 101)\n 50875: a0 = u64 [sp + 184]\n 50879: i64 s1 = s1 + a0\n 50882: a0 = u64 [sp + 56]\n 50885: a0 = reverse a0\n 50887: a1 = u64 [sp + 64]\n 50890: a1 = reverse a1\n 50892: a2 = u64 [sp + 72]\n 50895: a2 = reverse a2\n 50897: a3 = u64 [sp + 80]\n 50900: a3 = reverse a3\n 50902: u8 [s1 + 24] = a3\n 50905: a4 = a3 >>64 56\n 50908: u8 [s1 + 31] = a4\n 50911: a4 = a3 >>64 48\n 50914: u8 [s1 + 30] = a4\n 50917: a4 = a3 >>64 40\n 50920: u8 [s1 + 29] = a4\n 50923: a4 = a3 >>64 32\n 50926: u8 [s1 + 28] = a4\n 50929: a4 = a3 >>64 24\n 50932: u8 [s1 + 27] = a4\n 50935: a4 = a3 >>64 16\n 50938: u8 [s1 + 26] = a4\n 50941: a3 = a3 >>64 8\n 50944: u8 [s1 + 25] = a3\n 50947: u8 [s1 + 16] = a2\n 50950: a3 = a2 >>64 56\n 50953: u8 [s1 + 23] = a3\n 50956: a3 = a2 >>64 48\n 50959: u8 [s1 + 22] = a3\n 50962: a3 = a2 >>64 40\n 50965: u8 [s1 + 21] = a3\n 50968: a3 = a2 >>64 32\n 50971: u8 [s1 + 20] = a3\n 50974: a3 = a2 >>64 24\n 50977: u8 [s1 + 19] = a3\n 50980: a3 = a2 >>64 16\n 50983: u8 [s1 + 18] = a3\n 50986: a2 = a2 >>64 8\n 50989: u8 [s1 + 17] = a2\n 50992: u8 [s1 + 8] = a1\n 50995: a2 = a1 >>64 56\n 50998: u8 [s1 + 15] = a2\n 51001: a2 = a1 >>64 48\n 51004: u8 [s1 + 14] = a2\n 51007: a2 = a1 >>64 40\n 51010: u8 [s1 + 13] = a2\n 51013: a2 = a1 >>64 32\n 51016: u8 [s1 + 12] = a2\n 51019: a2 = a1 >>64 24\n 51022: u8 [s1 + 11] = a2\n 51025: a2 = a1 >>64 16\n 51028: u8 [s1 + 10] = a2\n 51031: a1 = a1 >>64 8\n 51034: u8 [s1 + 9] = a1\n 51037: u8 [s1] = a0\n 51039: a1 = a0 >>64 56\n 51042: u8 [s1 + 7] = a1\n 51045: a1 = a0 >>64 48\n 51048: u8 [s1 + 6] = a1\n 51051: a1 = a0 >>64 40\n 51054: u8 [s1 + 5] = a1\n 51057: a1 = a0 >>64 32\n 51060: u8 [s1 + 4] = a1\n 51063: a1 = a0 >>64 24\n 51066: u8 [s1 + 3] = a1\n 51069: a1 = a0 >>64 16\n 51072: u8 [s1 + 2] = a1\n 51075: a0 = a0 >>64 8\n 51078: u8 [s1 + 1] = a0\n 51081: a1 = u64 [sp + 136]\n 51085: i64 a0 = i64 a1 + 0x5\n 51088: a1 = a0 <u a1\n 51091: a3 = u64 [sp + 144]\n 51095: i64 a2 = a3 + a1\n 51098: a3 = a2 <u a3\n 51101: a3 = a1 if a1 == 0\n 51104: a1 = u64 [sp + 152]\n 51108: i64 a3 = a3 + a1\n 51111: a1 = a3 <u a1\n 51114: a4 = u64 [sp + 160]\n 51118: i64 a1 = a1 + a4\n 51121: u64 [sp + 336] = a3\n 51125: u64 [sp + 328] = a2\n 51129: u64 [sp + 320] = a0\n 51133: u64 [sp + 344] = a1\n 51137: u64 [sp + 312] = 0\n 51141: u64 [sp + 304] = 0\n 51145: u64 [sp + 296] = 0\n 51149: u64 [sp + 288] = 0\n 51153: u64 [sp + 272] = 0\n 51157: u64 [sp + 280] = 0\n 51161: u64 [sp + 264] = 0\n 51165: u64 [sp + 256] = 256\n 51171: a1 = sp + 0x140\n 51175: a3 = sp + 0x120\n 51179: a4 = sp + 0x100\n 51183: a2 = 0xffffffff\n 51186: a0 = 0x0\n 51188: ecalli 5 // 'get_storage'\n 51190: fallthrough\n      : @1060 (gas: 10)\n 51191: a0 = 0xffffff5f\n 51201: a1 = u64 [sp + 168]\n 51205: a0 = a0 <u a1\n 51208: a1 = u64 [sp + 176]\n 51212: a2 = u64 [sp + 112]\n 51215: a0 = a2 if a1 != 0\n 51218: a1 = u64 [sp + 120]\n 51221: a2 = u64 [sp + 104]\n 51224: a0 = a1 if a2 != 0\n 51227: jump @1072 if a0 != 0\n      : @1061 (gas: 13)\n 51231: a0 = u64 [sp + 312]\n 51235: u64 [sp + 56] = a0\n 51238: a0 = u64 [sp + 304]\n 51242: u64 [sp + 64] = a0\n 51245: a0 = u64 [sp + 296]\n 51249: u64 [sp + 72] = a0\n 51252: a0 = u64 [sp + 288]\n 51256: u64 [sp + 80] = a0\n 51259: a0 = u64 [sp + 128]\n 51263: s1 = a0 + 0xa0\n 51267: a1 = 0x20\n 51270: a0 = s1\n 51272: ra = 708, jump @0\n      : @1062 [@dyn 354] (gas: 1)\n 51279: jump @1072 if a0 == 0\n      : @1063 (gas: 101)\n 51283: a0 = u64 [sp + 184]\n 51287: i64 s1 = s1 + a0\n 51290: a0 = u64 [sp + 56]\n 51293: a0 = reverse a0\n 51295: a1 = u64 [sp + 64]\n 51298: a1 = reverse a1\n 51300: a2 = u64 [sp + 72]\n 51303: a2 = reverse a2\n 51305: a3 = u64 [sp + 80]\n 51308: a3 = reverse a3\n 51310: u8 [s1 + 24] = a3\n 51313: a4 = a3 >>64 56\n 51316: u8 [s1 + 31] = a4\n 51319: a4 = a3 >>64 48\n 51322: u8 [s1 + 30] = a4\n 51325: a4 = a3 >>64 40\n 51328: u8 [s1 + 29] = a4\n 51331: a4 = a3 >>64 32\n 51334: u8 [s1 + 28] = a4\n 51337: a4 = a3 >>64 24\n 51340: u8 [s1 + 27] = a4\n 51343: a4 = a3 >>64 16\n 51346: u8 [s1 + 26] = a4\n 51349: a3 = a3 >>64 8\n 51352: u8 [s1 + 25] = a3\n 51355: u8 [s1 + 16] = a2\n 51358: a3 = a2 >>64 56\n 51361: u8 [s1 + 23] = a3\n 51364: a3 = a2 >>64 48\n 51367: u8 [s1 + 22] = a3\n 51370: a3 = a2 >>64 40\n 51373: u8 [s1 + 21] = a3\n 51376: a3 = a2 >>64 32\n 51379: u8 [s1 + 20] = a3\n 51382: a3 = a2 >>64 24\n 51385: u8 [s1 + 19] = a3\n 51388: a3 = a2 >>64 16\n 51391: u8 [s1 + 18] = a3\n 51394: a2 = a2 >>64 8\n 51397: u8 [s1 + 17] = a2\n 51400: u8 [s1 + 8] = a1\n 51403: a2 = a1 >>64 56\n 51406: u8 [s1 + 15] = a2\n 51409: a2 = a1 >>64 48\n 51412: u8 [s1 + 14] = a2\n 51415: a2 = a1 >>64 40\n 51418: u8 [s1 + 13] = a2\n 51421: a2 = a1 >>64 32\n 51424: u8 [s1 + 12] = a2\n 51427: a2 = a1 >>64 24\n 51430: u8 [s1 + 11] = a2\n 51433: a2 = a1 >>64 16\n 51436: u8 [s1 + 10] = a2\n 51439: a1 = a1 >>64 8\n 51442: u8 [s1 + 9] = a1\n 51445: u8 [s1] = a0\n 51447: a1 = a0 >>64 56\n 51450: u8 [s1 + 7] = a1\n 51453: a1 = a0 >>64 48\n 51456: u8 [s1 + 6] = a1\n 51459: a1 = a0 >>64 40\n 51462: u8 [s1 + 5] = a1\n 51465: a1 = a0 >>64 32\n 51468: u8 [s1 + 4] = a1\n 51471: a1 = a0 >>64 24\n 51474: u8 [s1 + 3] = a1\n 51477: a1 = a0 >>64 16\n 51480: u8 [s1 + 2] = a1\n 51483: a0 = a0 >>64 8\n 51486: u8 [s1 + 1] = a0\n 51489: a1 = u64 [sp + 136]\n 51493: i64 a0 = i64 a1 + 0x6\n 51496: a1 = a0 <u a1\n 51499: a3 = u64 [sp + 144]\n 51503: i64 a2 = a3 + a1\n 51506: a3 = a2 <u a3\n 51509: a3 = a1 if a1 == 0\n 51512: a1 = u64 [sp + 152]\n 51516: i64 a3 = a3 + a1\n 51519: a1 = a3 <u a1\n 51522: a4 = u64 [sp + 160]\n 51526: i64 a1 = a1 + a4\n 51529: u64 [sp + 336] = a3\n 51533: u64 [sp + 328] = a2\n 51537: u64 [sp + 320] = a0\n 51541: u64 [sp + 344] = a1\n 51545: u64 [sp + 312] = 0\n 51549: u64 [sp + 304] = 0\n 51553: u64 [sp + 296] = 0\n 51557: u64 [sp + 288] = 0\n 51561: u64 [sp + 272] = 0\n 51565: u64 [sp + 280] = 0\n 51569: u64 [sp + 264] = 0\n 51573: u64 [sp + 256] = 256\n 51579: a1 = sp + 0x140\n 51583: a3 = sp + 0x120\n 51587: a4 = sp + 0x100\n 51591: a2 = 0xffffffff\n 51594: a0 = 0x0\n 51596: ecalli 5 // 'get_storage'\n 51598: fallthrough\n      : @1064 (gas: 10)\n 51599: a0 = 0xffffff3f\n 51609: a1 = u64 [sp + 168]\n 51613: a0 = a0 <u a1\n 51616: a1 = u64 [sp + 176]\n 51620: a2 = u64 [sp + 112]\n 51623: a0 = a2 if a1 != 0\n 51626: a1 = u64 [sp + 120]\n 51629: a2 = u64 [sp + 104]\n 51632: a0 = a1 if a2 != 0\n 51635: jump @1072 if a0 != 0\n      : @1065 (gas: 7)\n 51639: a0 = u8 [sp + 288]\n 51643: u64 [sp + 80] = a0\n 51646: a0 = u64 [sp + 128]\n 51650: s1 = a0 + 0xc0\n 51654: a1 = 0x20\n 51657: a0 = s1\n 51659: ra = 710, jump @0\n      : @1066 [@dyn 355] (gas: 1)\n 51666: jump @1072 if a0 == 0\n      : @1067 (gas: 67)\n 51670: a0 = u64 [sp + 80]\n 51673: a0 = a0 >u 0x0\n 51675: a1 = u64 [sp + 184]\n 51679: i64 s1 = s1 + a1\n 51682: u8 [s1 + 31] = a0\n 51685: u8 [s1 + 30] = 0\n 51688: u8 [s1 + 29] = 0\n 51691: u8 [s1 + 28] = 0\n 51694: u8 [s1 + 27] = 0\n 51697: u8 [s1 + 26] = 0\n 51700: u8 [s1 + 25] = 0\n 51703: u8 [s1 + 24] = 0\n 51706: u8 [s1 + 23] = 0\n 51709: u8 [s1 + 22] = 0\n 51712: u8 [s1 + 21] = 0\n 51715: u8 [s1 + 20] = 0\n 51718: u8 [s1 + 19] = 0\n 51721: u8 [s1 + 18] = 0\n 51724: u8 [s1 + 17] = 0\n 51727: u8 [s1 + 16] = 0\n 51730: u8 [s1 + 15] = 0\n 51733: u8 [s1 + 14] = 0\n 51736: u8 [s1 + 13] = 0\n 51739: u8 [s1 + 12] = 0\n 51742: u8 [s1 + 11] = 0\n 51745: u8 [s1 + 10] = 0\n 51748: u8 [s1 + 9] = 0\n 51751: u8 [s1 + 8] = 0\n 51754: u8 [s1 + 7] = 0\n 51757: u8 [s1 + 6] = 0\n 51760: u8 [s1 + 5] = 0\n 51763: u8 [s1 + 4] = 0\n 51766: u8 [s1 + 3] = 0\n 51769: u8 [s1 + 2] = 0\n 51772: u8 [s1 + 1] = 0\n 51775: u8 [s1 + 0] = 0\n 51777: a1 = u64 [sp + 136]\n 51781: i64 a0 = i64 a1 + 0x7\n 51784: a1 = a0 <u a1\n 51787: a3 = u64 [sp + 144]\n 51791: i64 a2 = a3 + a1\n 51794: a3 = a2 <u a3\n 51797: a3 = a1 if a1 == 0\n 51800: a1 = u64 [sp + 152]\n 51804: i64 a3 = a3 + a1\n 51807: a1 = a3 <u a1\n 51810: a4 = u64 [sp + 160]\n 51814: i64 a1 = a1 + a4\n 51817: u64 [sp + 328] = a2\n 51821: u64 [sp + 320] = a0\n 51825: u64 [sp + 336] = a3\n 51829: u64 [sp + 344] = a1\n 51833: u64 [sp + 312] = 0\n 51837: u64 [sp + 304] = 0\n 51841: u64 [sp + 296] = 0\n 51845: u64 [sp + 288] = 0\n 51849: u64 [sp + 272] = 0\n 51853: u64 [sp + 280] = 0\n 51857: u64 [sp + 264] = 0\n 51861: u64 [sp + 256] = 256\n 51867: a1 = sp + 0x140\n 51871: a3 = sp + 0x120\n 51875: a4 = sp + 0x100\n 51879: a2 = 0xffffffff\n 51882: a0 = 0x0\n 51884: ecalli 5 // 'get_storage'\n 51886: fallthrough\n      : @1068 (gas: 10)\n 51887: a0 = 0xffffff1f\n 51897: a1 = u64 [sp + 168]\n 51901: a0 = a0 <u a1\n 51904: a1 = u64 [sp + 176]\n 51908: a2 = u64 [sp + 112]\n 51911: a0 = a2 if a1 != 0\n 51914: a1 = u64 [sp + 120]\n 51917: a2 = u64 [sp + 104]\n 51920: a0 = a1 if a2 != 0\n 51923: jump @1072 if a0 != 0\n      : @1069 (gas: 13)\n 51927: a0 = u64 [sp + 312]\n 51931: u64 [sp + 136] = a0\n 51935: a0 = u64 [sp + 304]\n 51939: u64 [sp + 144] = a0\n 51943: a0 = u64 [sp + 296]\n 51947: u64 [sp + 152] = a0\n 51951: a0 = u64 [sp + 288]\n 51955: u64 [sp + 160] = a0\n 51959: a0 = u64 [sp + 128]\n 51963: s1 = a0 + 0xe0\n 51967: a1 = 0x20\n 51970: a0 = s1\n 51972: ra = 712, jump @0\n      : @1070 [@dyn 356] (gas: 1)\n 51979: jump @1072 if a0 == 0\n      : @1071 (gas: 85)\n 51983: a0 = u64 [sp + 184]\n 51987: i64 s1 = s1 + a0\n 51990: a0 = u64 [sp + 136]\n 51994: a0 = reverse a0\n 51996: a1 = u64 [sp + 144]\n 52000: a1 = reverse a1\n 52002: a2 = u64 [sp + 152]\n 52006: a2 = reverse a2\n 52008: a3 = u64 [sp + 160]\n 52012: a3 = reverse a3\n 52014: u8 [s1 + 24] = a3\n 52017: a4 = a3 >>64 56\n 52020: u8 [s1 + 31] = a4\n 52023: a4 = a3 >>64 48\n 52026: u8 [s1 + 30] = a4\n 52029: a4 = a3 >>64 40\n 52032: u8 [s1 + 29] = a4\n 52035: a4 = a3 >>64 32\n 52038: u8 [s1 + 28] = a4\n 52041: a4 = a3 >>64 24\n 52044: u8 [s1 + 27] = a4\n 52047: a4 = a3 >>64 16\n 52050: u8 [s1 + 26] = a4\n 52053: a3 = a3 >>64 8\n 52056: u8 [s1 + 25] = a3\n 52059: u8 [s1 + 16] = a2\n 52062: a3 = a2 >>64 56\n 52065: u8 [s1 + 23] = a3\n 52068: a3 = a2 >>64 48\n 52071: u8 [s1 + 22] = a3\n 52074: a3 = a2 >>64 40\n 52077: u8 [s1 + 21] = a3\n 52080: a3 = a2 >>64 32\n 52083: u8 [s1 + 20] = a3\n 52086: a3 = a2 >>64 24\n 52089: u8 [s1 + 19] = a3\n 52092: a3 = a2 >>64 16\n 52095: u8 [s1 + 18] = a3\n 52098: a2 = a2 >>64 8\n 52101: u8 [s1 + 17] = a2\n 52104: u8 [s1 + 8] = a1\n 52107: a2 = a1 >>64 56\n 52110: u8 [s1 + 15] = a2\n 52113: a2 = a1 >>64 48\n 52116: u8 [s1 + 14] = a2\n 52119: a2 = a1 >>64 40\n 52122: u8 [s1 + 13] = a2\n 52125: a2 = a1 >>64 32\n 52128: u8 [s1 + 12] = a2\n 52131: a2 = a1 >>64 24\n 52134: u8 [s1 + 11] = a2\n 52137: a2 = a1 >>64 16\n 52140: u8 [s1 + 10] = a2\n 52143: a1 = a1 >>64 8\n 52146: u8 [s1 + 9] = a1\n 52149: u8 [s1] = a0\n 52151: a1 = a0 >>64 56\n 52154: u8 [s1 + 7] = a1\n 52157: a1 = a0 >>64 48\n 52160: u8 [s1 + 6] = a1\n 52163: a1 = a0 >>64 40\n 52166: u8 [s1 + 5] = a1\n 52169: a1 = a0 >>64 32\n 52172: u8 [s1 + 4] = a1\n 52175: a1 = a0 >>64 24\n 52178: u8 [s1 + 3] = a1\n 52181: a1 = a0 >>64 16\n 52184: u8 [s1 + 2] = a1\n 52187: a0 = a0 >>64 8\n 52190: u8 [s1 + 1] = a0\n 52193: a0 = u64 [sp + 16]\n 52196: a1 = u64 [sp + 168]\n 52200: u64 [a0] = a1\n 52202: a1 = u64 [sp + 96]\n 52205: u64 [a0 + 24] = a1\n 52208: a1 = u64 [sp + 176]\n 52212: u64 [a0 + 8] = a1\n 52215: a1 = u64 [sp + 88]\n 52218: u64 [a0 + 16] = a1\n 52221: i64 sp = i64 s0 - i64 384\n 52225: ra = u64 [sp + 376]\n 52229: s0 = u64 [sp + 368]\n 52233: s1 = u64 [sp + 360]\n 52237: i64 sp = i64 sp + 0x180\n 52241: ret\n      : @1072 (gas: 1)\n 52243: trap\n      : @1073 (gas: 17)\n 52244: i64 sp = i64 sp - i64 96\n 52247: u64 [sp + 88] = ra\n 52250: u64 [sp + 80] = s0\n 52253: u64 [sp + 72] = s1\n 52256: s1 = a4\n 52258: a4 = a1\n 52260: u64 [sp + 64] = a2\n 52263: a1 = a2 | s1\n 52266: a2 = a4 | a3\n 52269: a2 = a2 | a1\n 52272: a2 = a2 >>64 32\n 52275: u64 [sp + 48] = a3\n 52278: a1 = a1 | a3\n 52281: a1 = a1 <<64 32\n 52284: a1 = a1 | a2\n 52287: u64 [sp + 32] = a0\n 52290: jump @1083 if a1 != 0\n      : @1074 (gas: 5)\n 52294: s0 = a4 + 0x0\n 52296: a1 = 0x20\n 52299: a0 = s0\n 52301: u64 [sp + 56] = a4\n 52304: ra = 714, jump @0\n      : @1075 [@dyn 357] (gas: 1)\n 52311: jump @1083 if a0 == 0\n      : @1076 (gas: 52)\n 52315: a0 = 0x20050\n 52320: u64 [sp + 40] = a0\n 52323: i64 a0 = a0 + s0\n 52326: u8 [a0 + 31] = 32\n 52330: u8 [a0 + 30] = 0\n 52333: u8 [a0 + 29] = 0\n 52336: u8 [a0 + 28] = 0\n 52339: u8 [a0 + 27] = 0\n 52342: u8 [a0 + 26] = 0\n 52345: u8 [a0 + 25] = 0\n 52348: u8 [a0 + 24] = 0\n 52351: u8 [a0 + 23] = 0\n 52354: u8 [a0 + 22] = 0\n 52357: u8 [a0 + 21] = 0\n 52360: u8 [a0 + 20] = 0\n 52363: u8 [a0 + 19] = 0\n 52366: u8 [a0 + 18] = 0\n 52369: u8 [a0 + 17] = 0\n 52372: u8 [a0 + 16] = 0\n 52375: u8 [a0 + 15] = 0\n 52378: u8 [a0 + 14] = 0\n 52381: u8 [a0 + 13] = 0\n 52384: u8 [a0 + 12] = 0\n 52387: u8 [a0 + 11] = 0\n 52390: u8 [a0 + 10] = 0\n 52393: u8 [a0 + 9] = 0\n 52396: u8 [a0 + 8] = 0\n 52399: u8 [a0 + 7] = 0\n 52402: u8 [a0 + 6] = 0\n 52405: u8 [a0 + 5] = 0\n 52408: u8 [a0 + 4] = 0\n 52411: u8 [a0 + 3] = 0\n 52414: u8 [a0 + 2] = 0\n 52417: u8 [a0 + 1] = 0\n 52420: a3 = u64 [sp + 48]\n 52423: a1 = a3 >u 0x0\n 52425: a2 = s1\n 52427: s1 = s1 >u 0x0\n 52429: s1 = a1 if a2 == 0\n 52432: a1 = 0xffffffdf\n 52442: a4 = u64 [sp + 56]\n 52445: a1 = a1 <u a4\n 52448: a4 = u64 [sp + 64]\n 52451: a5 = a4 >u 0x0\n 52453: u64 [sp + 24] = a5\n 52456: a1 = a5 if a4 != 0\n 52459: u64 [sp + 8] = a2\n 52462: a2 = a2 | a3\n 52465: u64 [sp + 16] = a2\n 52468: a1 = s1 if a2 != 0\n 52471: u8 [a0 + 0] = 0\n 52473: jump @1083 if a1 != 0\n      : @1077 (gas: 5)\n 52477: u64 [sp] = s0\n 52479: s0 = s0 + 0x20\n 52482: a1 = 0x20\n 52485: a0 = s0\n 52487: ra = 716, jump @0\n      : @1078 [@dyn 358] (gas: 1)\n 52494: jump @1083 if a0 == 0\n      : @1079 (gas: 43)\n 52498: a0 = u64 [sp + 40]\n 52501: i64 s0 = s0 + a0\n 52504: u8 [s0 + 31] = 28\n 52508: u8 [s0 + 30] = 0\n 52511: u8 [s0 + 29] = 0\n 52514: u8 [s0 + 28] = 0\n 52517: u8 [s0 + 27] = 0\n 52520: u8 [s0 + 26] = 0\n 52523: u8 [s0 + 25] = 0\n 52526: u8 [s0 + 24] = 0\n 52529: u8 [s0 + 23] = 0\n 52532: u8 [s0 + 22] = 0\n 52535: u8 [s0 + 21] = 0\n 52538: u8 [s0 + 20] = 0\n 52541: u8 [s0 + 19] = 0\n 52544: u8 [s0 + 18] = 0\n 52547: u8 [s0 + 17] = 0\n 52550: u8 [s0 + 16] = 0\n 52553: u8 [s0 + 15] = 0\n 52556: u8 [s0 + 14] = 0\n 52559: u8 [s0 + 13] = 0\n 52562: u8 [s0 + 12] = 0\n 52565: u8 [s0 + 11] = 0\n 52568: u8 [s0 + 10] = 0\n 52571: u8 [s0 + 9] = 0\n 52574: u8 [s0 + 8] = 0\n 52577: u8 [s0 + 7] = 0\n 52580: u8 [s0 + 6] = 0\n 52583: u8 [s0 + 5] = 0\n 52586: u8 [s0 + 4] = 0\n 52589: u8 [s0 + 3] = 0\n 52592: u8 [s0 + 2] = 0\n 52595: u8 [s0 + 1] = 0\n 52598: a0 = 0xffffffbf\n 52608: a1 = u64 [sp + 56]\n 52611: a0 = a0 <u a1\n 52614: a1 = u64 [sp + 64]\n 52617: a2 = u64 [sp + 24]\n 52620: a0 = a2 if a1 != 0\n 52623: a1 = u64 [sp + 16]\n 52626: a0 = s1 if a1 != 0\n 52629: u8 [s0 + 0] = 0\n 52631: jump @1083 if a0 != 0\n      : @1080 (gas: 6)\n 52635: a0 = u64 [sp]\n 52637: s1 = a0 + 0x40\n 52640: a1 = 0x20\n 52643: s0 = 0x20\n 52646: a0 = s1\n 52648: ra = 718, jump @0\n      : @1081 [@dyn 359] (gas: 1)\n 52655: jump @1083 if a0 == 0\n      : @1082 (gas: 56)\n 52659: a0 = u64 [sp + 40]\n 52662: i64 s1 = s1 + a0\n 52665: u8 [s1 + 22] = 112\n 52669: u8 [s1 + 18] = 104\n 52673: u8 [s1 + 13] = 108\n 52677: u8 [s1 + 23] = 97\n 52681: u8 [s1 + 19] = 97\n 52685: u8 [s1 + 11] = 97\n 52689: u8 [s1 + 27] = 100\n 52693: u8 [s1 + 12] = 100\n 52697: u8 [s1 + 9] = 100\n 52701: u8 [s1 + 31] = 0\n 52704: u8 [s1 + 30] = 0\n 52707: u8 [s1 + 29] = 0\n 52710: u8 [s1 + 28] = 0\n 52713: u8 [s1 + 21] = s0\n 52716: u8 [s1 + 17] = s0\n 52719: u8 [s1 + 8] = s0\n 52722: u8 [s1 + 15] = 110\n 52726: u8 [s1 + 7] = 110\n 52730: u8 [s1 + 6] = 111\n 52734: u8 [s1 + 14] = 105\n 52738: u8 [s1 + 5] = 105\n 52742: u8 [s1 + 4] = 116\n 52746: u8 [s1 + 25] = 115\n 52750: u8 [s1 + 24] = 115\n 52754: u8 [s1 + 20] = 115\n 52758: u8 [s1 + 3] = 115\n 52762: u8 [s1 + 26] = 101\n 52766: u8 [s1 + 16] = 101\n 52770: u8 [s1 + 10] = 101\n 52774: u8 [s1 + 2] = 101\n 52778: u8 [s1 + 1] = 117\n 52782: u8 [s1 + 0] = 81\n 52785: a1 = u64 [sp + 56]\n 52788: i64 a0 = i64 a1 + 0x60\n 52791: a1 = a0 <u a1\n 52794: a3 = u64 [sp + 64]\n 52797: i64 a2 = a3 + a1\n 52800: a3 = a2 <u a3\n 52803: a3 = a1 if a1 == 0\n 52806: a1 = u64 [sp + 48]\n 52809: i64 a3 = a3 + a1\n 52812: a1 = a3 <u a1\n 52815: a4 = u64 [sp + 8]\n 52818: i64 a1 = a1 + a4\n 52821: a4 = u64 [sp + 32]\n 52824: u64 [a4] = a0\n 52826: u64 [a4 + 8] = a2\n 52829: u64 [a4 + 16] = a3\n 52832: u64 [a4 + 24] = a1\n 52835: ra = u64 [sp + 88]\n 52838: s0 = u64 [sp + 80]\n 52841: s1 = u64 [sp + 72]\n 52844: i64 sp = i64 sp + 0x60\n 52847: ret\n      : @1083 (gas: 1)\n 52849: trap\n      : @1084 (gas: 23)\n 52850: i64 sp = i64 sp - i64 768\n 52854: u64 [sp + 760] = ra\n 52858: u64 [sp + 752] = s0\n 52862: u64 [sp + 744] = s1\n 52866: i64 s0 = i64 sp + 0x300\n 52870: sp = sp & 0xffffffe0\n 52873: s1 = sp\n 52875: t0 = u64 [s0]\n 52877: u64 [s1 + 96] = t0\n 52880: u64 [s1 + 88] = a5\n 52883: t0 = a5 | t0\n 52886: a5 = a4 | t2\n 52889: a5 = a5 | t0\n 52892: t1 = a5 >>64 32\n 52895: u64 [s1 + 104] = t2\n 52898: a5 = t0 | t2\n 52901: a5 = a5 <<64 32\n 52904: a5 = a5 | t1\n 52907: u64 [s1 + 56] = a3\n 52910: u64 [s1 + 48] = a2\n 52913: u64 [s1 + 40] = a1\n 52916: u64 [s1 + 32] = a0\n 52919: jump @1086 if a5 == 0\n      : @1085 (gas: 1)\n 52922: jump @1135\n      : @1086 (gas: 5)\n 52925: u64 [s1 + 112] = a4\n 52928: a0 = a4 + 0x0\n 52930: a1 = 0x20\n 52933: u64 [s1 + 136] = a0\n 52937: ra = 720, jump @0\n      : @1087 [@dyn 360] (gas: 1)\n 52944: jump @1089 if a0 != 0\n      : @1088 (gas: 1)\n 52947: jump @1135\n      : @1089 (gas: 84)\n 52950: a0 = 0x20050\n 52955: u64 [s1 + 80] = a0\n 52958: a1 = u64 [s1 + 136]\n 52962: i64 a0 = a0 + a1\n 52965: a1 = u8 [a0 + 9]\n 52968: a2 = u8 [a0 + 8]\n 52971: a3 = u8 [a0 + 10]\n 52974: a4 = u8 [a0 + 11]\n 52977: a1 = a1 <<64 8\n 52980: a1 = a1 | a2\n 52983: a3 = a3 <<64 16\n 52986: a4 = a4 <<64 24\n 52989: a3 = a3 | a4\n 52992: a1 = a1 | a3\n 52995: a2 = u8 [a0 + 13]\n 52998: a3 = u8 [a0 + 12]\n 53001: a4 = u8 [a0 + 14]\n 53004: a5 = u8 [a0 + 15]\n 53007: a2 = a2 <<64 8\n 53010: a2 = a2 | a3\n 53013: a4 = a4 <<64 16\n 53016: a5 = a5 <<64 24\n 53019: a4 = a4 | a5\n 53022: a2 = a2 | a4\n 53025: a2 = a2 <<64 32\n 53028: t0 = a2 | a1\n 53031: a1 = u8 [a0 + 1]\n 53034: a2 = u8 [a0]\n 53036: a3 = u8 [a0 + 2]\n 53039: a4 = u8 [a0 + 3]\n 53042: a1 = a1 <<64 8\n 53045: a1 = a1 | a2\n 53048: a3 = a3 <<64 16\n 53051: a4 = a4 <<64 24\n 53054: a3 = a3 | a4\n 53057: a1 = a1 | a3\n 53060: a2 = u8 [a0 + 5]\n 53063: a3 = u8 [a0 + 4]\n 53066: a4 = u8 [a0 + 6]\n 53069: a5 = u8 [a0 + 7]\n 53072: a2 = a2 <<64 8\n 53075: a2 = a2 | a3\n 53078: a4 = a4 <<64 16\n 53081: a5 = a5 <<64 24\n 53084: a4 = a4 | a5\n 53087: a2 = a2 | a4\n 53090: a2 = a2 <<64 32\n 53093: t1 = a2 | a1\n 53096: a1 = u8 [a0 + 17]\n 53099: a2 = u8 [a0 + 16]\n 53102: a3 = u8 [a0 + 18]\n 53105: a4 = u8 [a0 + 19]\n 53108: a1 = a1 <<64 8\n 53111: a1 = a1 | a2\n 53114: a3 = a3 <<64 16\n 53117: a4 = a4 <<64 24\n 53120: a3 = a3 | a4\n 53123: a1 = a1 | a3\n 53126: a2 = u8 [a0 + 21]\n 53129: a3 = u8 [a0 + 20]\n 53132: a4 = u8 [a0 + 22]\n 53135: a5 = u8 [a0 + 23]\n 53138: a2 = a2 <<64 8\n 53141: a2 = a2 | a3\n 53144: a4 = a4 <<64 16\n 53147: a5 = a5 <<64 24\n 53150: a4 = a4 | a5\n 53153: a2 = a2 | a4\n 53156: a2 = a2 <<64 32\n 53159: a1 = a1 | a2\n 53162: u64 [s1 + 72] = a1\n 53165: a3 = reverse a1\n 53167: u64 [s1 + 120] = t1\n 53170: a1 = reverse t1\n 53172: u64 [s1 + 128] = t0\n 53176: a2 = reverse t0\n 53178: u64 [s1 + 24] = a1\n 53181: u64 [s1 + 64] = a2\n 53184: a2 = a2 | a1\n 53187: u64 [s1 + 16] = a3\n 53190: a1 = a3 <u 0x1\n 53193: u64 [s1 + 152] = a2\n 53197: a1 = 0 if a2 != 0\n 53199: jump @1123 if a1 == 0\n      : @1090 (gas: 47)\n 53203: a1 = u8 [a0 + 24]\n 53206: u64 [s1 + 184] = a1\n 53210: a1 = u8 [a0 + 25]\n 53213: u64 [s1 + 144] = a1\n 53217: a1 = u8 [a0 + 26]\n 53220: u64 [s1 + 168] = a1\n 53224: a1 = u8 [a0 + 27]\n 53227: u64 [s1 + 160] = a1\n 53231: a1 = u8 [a0 + 28]\n 53234: u64 [s1 + 208] = a1\n 53238: a1 = u8 [a0 + 29]\n 53241: u64 [s1 + 176] = a1\n 53245: a1 = u8 [a0 + 30]\n 53248: u64 [s1 + 200] = a1\n 53252: a0 = u8 [a0 + 31]\n 53255: u64 [s1 + 192] = a0\n 53259: a0 = u64 [s1 + 32]\n 53262: u64 [s1 + 416] = a0\n 53266: a0 = u64 [s1 + 40]\n 53269: u64 [s1 + 424] = a0\n 53273: a0 = u64 [s1 + 48]\n 53276: u64 [s1 + 432] = a0\n 53280: a0 = u64 [s1 + 56]\n 53283: u64 [s1 + 440] = a0\n 53287: i64 a0 = i64 sp - i64 32\n 53290: a0 = a0 & 0xffffffe0\n 53293: sp = a0\n 53295: u64 [a0 + 24] = 0\n 53298: u64 [a0 + 16] = 0\n 53301: u64 [a0 + 8] = 0\n 53304: u64 [a0 + 0] = 0\n 53306: a3 = a0\n 53308: u64 [s1 + 216] = a0\n 53312: i64 a0 = i64 sp - i64 8\n 53315: a0 = a0 & 0xffffffe0\n 53318: sp = a0\n 53320: u64 [a0 + 24] = 0\n 53323: u64 [a0 + 16] = 0\n 53326: u64 [a0 + 8] = 0\n 53329: u64 [a0 + 0] = 256\n 53333: a3 = a3 + 0x0\n 53335: a4 = a0 + 0x0\n 53337: a1 = s1 + 0x1a0\n 53341: a2 = 0xffffffff\n 53344: a0 = 0x0\n 53346: ecalli 5 // 'get_storage'\n 53348: fallthrough\n      : @1091 (gas: 28)\n 53349: a3 = u64 [s1 + 216]\n 53353: a0 = u64 [a3 + 16]\n 53356: a1 = u64 [a3 + 8]\n 53359: a2 = u64 [a3]\n 53361: a3 = u64 [a3 + 24]\n 53364: a4 = a0 <<64 63\n 53367: a5 = a1 >>64 1\n 53370: a4 = a4 | a5\n 53373: a5 = a3 <<64 63\n 53376: a0 = a0 >>64 1\n 53379: a0 = a0 | a5\n 53382: a1 = a1 <<64 63\n 53385: a5 = a2 >>64 1\n 53388: a1 = a1 | a5\n 53391: a3 = a3 >>64 1\n 53394: a2 = a2 & 0x1\n 53397: a5 = u64 -a2\n 53399: t0 = a2 <u 0x1\n 53402: t2 = a1 & 0x7f\n 53405: t1 = a5 & a0\n 53408: ra = a5 & a4\n 53411: t2 = a1 if a2 != 0\n 53414: a5 = a5 & a3\n 53417: a0 = t2 <u 0x20\n 53420: a0 = 0 if ra != 0\n 53422: a1 = t1 | a5\n 53425: a0 = 0 if a1 != 0\n 53427: jump @1128 if t0 != a0\n      : @1092 (gas: 28)\n 53431: a1 = u64 [s1 + 144]\n 53435: a1 = a1 <<64 8\n 53438: a2 = u64 [s1 + 184]\n 53442: a1 = a1 | a2\n 53445: a2 = u64 [s1 + 168]\n 53449: a2 = a2 <<64 16\n 53452: a3 = u64 [s1 + 160]\n 53456: a3 = a3 <<64 24\n 53459: a2 = a2 | a3\n 53462: a1 = a1 | a2\n 53465: a2 = u64 [s1 + 176]\n 53469: a2 = a2 <<64 8\n 53472: a3 = u64 [s1 + 208]\n 53476: a2 = a2 | a3\n 53479: a3 = u64 [s1 + 200]\n 53483: a3 = a3 <<64 16\n 53486: a4 = u64 [s1 + 192]\n 53490: a4 = a4 <<64 24\n 53493: a3 = a3 | a4\n 53496: a2 = a2 | a3\n 53499: a2 = a2 <<64 32\n 53502: a1 = a1 | a2\n 53505: u64 [s1] = a1\n 53507: a1 = reverse a1\n 53509: u64 [s1 + 8] = a1\n 53512: a1 = a1 <u 0x20\n 53515: u64 [s1 + 144] = a1\n 53519: jump @1098 if a0 != 0\n      : @1093 (gas: 10)\n 53523: i64 a0 = i64 s1 + 0x180\n 53527: a1 = u64 [s1 + 32]\n 53530: a2 = u64 [s1 + 40]\n 53533: a3 = u64 [s1 + 48]\n 53536: a4 = u64 [s1 + 56]\n 53539: u64 [s1 + 216] = t1\n 53543: u64 [s1 + 208] = a5\n 53547: u64 [s1 + 176] = t2\n 53551: u64 [s1 + 184] = ra\n 53555: ra = 722, jump @1490\n      : @1094 [@dyn 361] (gas: 112)\n 53561: t1 = u64 [s1 + 384]\n 53565: a0 = u64 [s1 + 8]\n 53568: i64 a1 = i64 a0 + 0x1f\n 53571: a0 = a1 <u a0\n 53574: a2 = u64 [s1 + 16]\n 53577: i64 a4 = a2 + a0\n 53580: a3 = a4 <u a2\n 53583: a3 = a0 if a0 == 0\n 53586: a5 = u64 [s1 + 64]\n 53589: i64 a3 = a3 + a5\n 53592: u64 [s1 + 200] = a3\n 53596: a3 = a3 <<64 59\n 53599: a5 = a4 >>64 5\n 53602: a3 = a3 | a5\n 53605: t0 = u64 [s1 + 392]\n 53609: a4 = a4 <<64 59\n 53612: a1 = a1 >>64 5\n 53615: a4 = a4 | a1\n 53618: a1 = u64 [s1 + 144]\n 53622: a1 = 0 if a2 != 0\n 53624: a0 = u64 [s1 + 152]\n 53628: a1 = 0 if a0 != 0\n 53630: a3 = 0 if a1 != 0\n 53632: a4 = 0 if a1 != 0\n 53634: a5 = t1\n 53636: i64 t1 = t1 + a4\n 53639: a0 = t1 <u a5\n 53642: i64 a4 = t0 + a0\n 53645: i64 t2 = a4 + a3\n 53648: a4 = t2 ^ t0\n 53651: a2 = t2 <u t0\n 53654: a2 = a0 if a4 == 0\n 53657: u64 [s1 + 192] = a2\n 53661: a0 = u64 [s1 + 176]\n 53665: i64 ra = i64 a0 + 0x1f\n 53668: a3 = ra <u a0\n 53671: a2 = u64 [s1 + 184]\n 53675: i64 a0 = a2 + a3\n 53678: a4 = a0 <u a2\n 53681: a4 = a3 if a3 == 0\n 53684: a2 = u64 [s1 + 216]\n 53688: i64 a2 = a2 + a4\n 53691: u64 [s1 + 168] = a2\n 53695: a3 = a2 <<64 59\n 53698: a2 = a0 >>64 5\n 53701: a2 = a2 | a3\n 53704: a0 = a0 <<64 59\n 53707: a3 = ra >>64 5\n 53710: a0 = a0 | a3\n 53713: i64 ra = a5 + a0\n 53716: a0 = ra <u a5\n 53719: i64 a3 = t0 + a0\n 53722: i64 a2 = a2 + a3\n 53725: a3 = a2 ^ t0\n 53728: a4 = a2 <u t0\n 53731: a4 = a0 if a3 == 0\n 53734: u64 [s1 + 160] = a4\n 53738: a0 = t2 ^ a2\n 53741: u64 [s1 + 176] = a2\n 53745: a3 = t2 <u a2\n 53748: u64 [s1 + 184] = ra\n 53752: ra = t1 <u ra\n 53755: ra = a3 if a0 != 0\n 53758: a3 = u64 [s1 + 200]\n 53762: a0 = u64 [s1 + 64]\n 53765: a0 = a3 <u a0\n 53768: a2 = u64 [s1 + 24]\n 53771: i64 a2 = a2 + a0\n 53774: a3 = a3 >>64 5\n 53777: a0 = a2 <<64 59\n 53780: a0 = a0 | a3\n 53783: a2 = a2 >>64 5\n 53786: a3 = u64 [s1 + 408]\n 53790: t0 = u64 [s1 + 400]\n 53794: a0 = 0 if a1 != 0\n 53796: a2 = 0 if a1 != 0\n 53798: i64 a2 = a2 + a3\n 53801: i64 a0 = a0 + t0\n 53804: a1 = a0 <u t0\n 53807: i64 a1 = a1 + a2\n 53810: a4 = u64 [s1 + 192]\n 53814: i64 a4 = a4 + a0\n 53817: a0 = a4 <u a0\n 53820: i64 a5 = a1 + a0\n 53823: a0 = u64 [s1 + 216]\n 53827: a2 = u64 [s1 + 168]\n 53831: a0 = a2 <u a0\n 53834: a1 = u64 [s1 + 208]\n 53838: i64 a0 = a0 + a1\n 53841: a2 = a2 >>64 5\n 53844: a1 = a0 <<64 59\n 53847: a1 = a1 | a2\n 53850: a0 = a0 >>64 5\n 53853: i64 a0 = a0 + a3\n 53856: a3 = a5\n 53858: a5 = t2\n 53860: i64 a1 = a1 + t0\n 53863: a2 = a1 <u t0\n 53866: i64 a0 = a0 + a2\n 53869: t2 = u64 [s1 + 160]\n 53873: i64 t2 = t2 + a1\n 53876: a1 = t2 <u a1\n 53879: i64 a2 = a0 + a1\n 53882: a0 = a4 <u t2\n 53885: a1 = a3 ^ a2\n 53888: u64 [s1 + 168] = a2\n 53892: a2 = a3 <u a2\n 53895: a2 = a0 if a1 == 0\n 53898: a0 = a4 ^ t2\n 53901: a0 = a0 | a1\n 53904: ra = a2 if a0 != 0\n 53907: jump @1098 if ra == 0\n      : @1095 (gas: 3)\n 53911: t0 = a4\n 53913: u64 [s1 + 160] = t2\n 53917: fallthrough\n      : @1096 (gas: 42)\n 53918: u64 [s1 + 192] = t0\n 53922: u64 [s1 + 200] = a3\n 53926: u64 [s1 + 208] = a5\n 53930: u64 [s1 + 216] = t1\n 53934: u64 [s1 + 680] = a5\n 53938: u64 [s1 + 672] = t1\n 53942: u64 [s1 + 688] = t0\n 53946: u64 [s1 + 696] = a3\n 53950: u64 [s1 + 664] = 0\n 53954: u64 [s1 + 656] = 0\n 53958: u64 [s1 + 648] = 0\n 53962: u64 [s1 + 640] = 0\n 53966: u64 [s1 + 624] = 0\n 53970: u64 [s1 + 632] = 0\n 53974: u64 [s1 + 616] = 0\n 53978: u64 [s1 + 608] = 256\n 53984: a1 = s1 + 0x2a0\n 53988: a3 = s1 + 0x280\n 53992: a4 = s1 + 0x260\n 53996: a2 = 0xffffffff\n 53999: a0 = 0x0\n 54001: ecalli 5 // 'get_storage'\n 54003: a0 = u64 [s1 + 200]\n 54007: u64 [s1 + 728] = a0\n 54011: a0 = u64 [s1 + 192]\n 54015: u64 [s1 + 720] = a0\n 54019: a0 = u64 [s1 + 208]\n 54023: u64 [s1 + 712] = a0\n 54027: a0 = u64 [s1 + 216]\n 54031: u64 [s1 + 704] = a0\n 54035: u64 [s1 + 600] = 0\n 54039: u64 [s1 + 592] = 0\n 54043: u64 [s1 + 584] = 0\n 54047: u64 [s1 + 576] = 0\n 54051: a1 = s1 + 0x2c0\n 54055: a3 = s1 + 0x240\n 54059: a2 = 0xffffffff\n 54062: a4 = 0x20\n 54065: a0 = 0x0\n 54067: ra = 0x2d4\n 54071: ecalli 13 // 'set_storage'\n 54073: fallthrough\n      : @1097 [@dyn 362] (gas: 29)\n 54074: t2 = u64 [s1 + 160]\n 54078: a3 = u64 [s1 + 200]\n 54082: a5 = u64 [s1 + 208]\n 54086: t1 = u64 [s1 + 216]\n 54090: i64 t1 = i64 t1 + 0x1\n 54093: a0 = t1 <u 0x1\n 54096: i64 a5 = a5 + a0\n 54099: a0 = t1 | a5\n 54102: a0 = a0 <u 0x1\n 54105: a1 = u64 [s1 + 192]\n 54109: i64 a0 = a0 + a1\n 54112: a1 = a0 <u a1\n 54115: i64 a3 = a3 + a1\n 54118: a1 = u64 [s1 + 184]\n 54122: t0 = t1 <u a1\n 54125: a4 = u64 [s1 + 176]\n 54129: a1 = a5 ^ a4\n 54132: a2 = a5 <u a4\n 54135: a2 = t0 if a1 == 0\n 54138: a1 = a0 <u t2\n 54141: a4 = u64 [s1 + 168]\n 54145: t0 = a3 ^ a4\n 54148: a4 = a3 <u a4\n 54151: a4 = a1 if t0 == 0\n 54154: a1 = a0 ^ t2\n 54157: a1 = a1 | t0\n 54160: a4 = a2 if a1 == 0\n 54163: t0 = a0\n 54165: jump @1096 if a4 != 0\n      : @1098 (gas: 13)\n 54169: a2 = u64 [s1 + 16]\n 54172: a0 = a2 >u 0x0\n 54174: a1 = u64 [s1 + 144]\n 54178: a1 = a1 ^ 0x1\n 54181: a1 = a0 if a2 != 0\n 54184: a0 = u64 [s1 + 64]\n 54187: a0 = a0 >u 0x0\n 54189: a3 = u64 [s1 + 24]\n 54192: a2 = a3 >u 0x0\n 54194: a2 = a0 if a3 == 0\n 54197: a0 = u64 [s1 + 152]\n 54201: a2 = a1 if a0 == 0\n 54204: jump @1108 if a2 == 0\n      : @1099 (gas: 9)\n 54208: a0 = u64 [s1 + 8]\n 54211: a0 = a0 & 0xffffffe0\n 54214: u64 [s1 + 72] = a0\n 54217: i64 a0 = i64 s1 + 0x120\n 54221: a1 = u64 [s1 + 32]\n 54224: a2 = u64 [s1 + 40]\n 54227: a3 = u64 [s1 + 48]\n 54230: a4 = u64 [s1 + 56]\n 54233: ra = 726, jump @1490\n      : @1100 [@dyn 363] (gas: 9)\n 54239: a0 = u64 [s1 + 312]\n 54243: u64 [s1 + 208] = a0\n 54247: a5 = u64 [s1 + 304]\n 54251: a0 = u64 [s1 + 296]\n 54255: u64 [s1 + 200] = a0\n 54259: a0 = u64 [s1 + 288]\n 54263: u64 [s1 + 192] = a0\n 54267: a0 = u64 [s1 + 72]\n 54270: jump @1113 if a0 == 0\n      : @1101 (gas: 11)\n 54274: u64 [s1 + 168] = 0\n 54278: a0 = 0x0\n 54280: a4 = 0x0\n 54282: u64 [s1 + 176] = 0\n 54286: t1 = 0x0\n 54288: t2 = 0x0\n 54290: a1 = 0x0\n 54292: u64 [s1 + 216] = 32\n 54297: u64 [s1 + 184] = a5\n 54301: t0 = u64 [s1 + 112]\n 54304: fallthrough\n      : @1102 (gas: 32)\n 54305: u64 [s1 + 144] = a0\n 54309: u64 [s1 + 152] = a4\n 54313: a2 = u64 [s1 + 216]\n 54317: i64 ra = a2 + t0\n 54320: a0 = a1\n 54322: a1 = ra <u a2\n 54325: a2 = u64 [s1 + 88]\n 54328: i64 a2 = a2 + t1\n 54331: i64 a2 = a2 + a1\n 54334: a3 = a2 ^ t1\n 54337: u64 [s1 + 128] = t1\n 54341: a4 = a2 <u t1\n 54344: a4 = a1 if a3 == 0\n 54347: a1 = u64 [s1 + 104]\n 54350: i64 a1 = a1 + t2\n 54353: u64 [s1 + 136] = t2\n 54357: a3 = a1 <u t2\n 54360: a5 = u64 [s1 + 96]\n 54363: u64 [s1 + 160] = a0\n 54367: i64 a5 = a5 + a0\n 54370: i64 a3 = a3 + a5\n 54373: i64 a4 = a4 + a1\n 54376: a1 = a4 <u a1\n 54379: i64 a1 = a1 + a3\n 54382: a1 = a1 | a2\n 54385: a0 = ra | a4\n 54388: a0 = a0 | a1\n 54391: a1 = a1 | a4\n 54394: a0 = a0 >>64 32\n 54397: a1 = a1 <<64 32\n 54400: a0 = a0 | a1\n 54403: jump @1135 if a0 != 0\n      : @1103 (gas: 5)\n 54407: a0 = u64 [s1 + 216]\n 54411: a0 = a0 + t0\n 54414: a1 = 0x20\n 54417: u64 [s1 + 120] = a0\n 54420: ra = 728, jump @0\n      : @1104 [@dyn 364] (gas: 1)\n 54427: jump @1135 if a0 == 0\n      : @1105 (gas: 117)\n 54431: a0 = u64 [s1 + 80]\n 54434: a1 = u64 [s1 + 120]\n 54437: i64 a0 = a0 + a1\n 54440: a1 = u8 [a0 + 1]\n 54443: a2 = u8 [a0]\n 54445: a3 = u8 [a0 + 2]\n 54448: a4 = u8 [a0 + 3]\n 54451: a1 = a1 <<64 8\n 54454: a1 = a1 | a2\n 54457: a3 = a3 <<64 16\n 54460: a4 = a4 <<64 24\n 54463: a3 = a3 | a4\n 54466: a1 = a1 | a3\n 54469: a2 = u8 [a0 + 5]\n 54472: a3 = u8 [a0 + 4]\n 54475: a4 = u8 [a0 + 6]\n 54478: a5 = u8 [a0 + 7]\n 54481: a2 = a2 <<64 8\n 54484: a2 = a2 | a3\n 54487: a4 = a4 <<64 16\n 54490: a5 = a5 <<64 24\n 54493: a4 = a4 | a5\n 54496: a2 = a2 | a4\n 54499: a2 = a2 <<64 32\n 54502: t0 = a2 | a1\n 54505: a2 = u8 [a0 + 9]\n 54508: a3 = u8 [a0 + 8]\n 54511: a4 = u8 [a0 + 10]\n 54514: a5 = u8 [a0 + 11]\n 54517: a2 = a2 <<64 8\n 54520: a2 = a2 | a3\n 54523: a4 = a4 <<64 16\n 54526: a5 = a5 <<64 24\n 54529: a4 = a4 | a5\n 54532: a2 = a2 | a4\n 54535: a3 = u8 [a0 + 13]\n 54538: a4 = u8 [a0 + 12]\n 54541: a5 = u8 [a0 + 14]\n 54544: a1 = u8 [a0 + 15]\n 54547: a3 = a3 <<64 8\n 54550: a3 = a3 | a4\n 54553: a5 = a5 <<64 16\n 54556: a1 = a1 <<64 24\n 54559: a1 = a1 | a5\n 54562: a1 = a1 | a3\n 54565: a1 = a1 <<64 32\n 54568: t1 = a1 | a2\n 54571: a1 = u8 [a0 + 17]\n 54574: a3 = u8 [a0 + 16]\n 54577: a4 = u8 [a0 + 18]\n 54580: a5 = u8 [a0 + 19]\n 54583: a1 = a1 <<64 8\n 54586: a1 = a1 | a3\n 54589: a4 = a4 <<64 16\n 54592: a5 = a5 <<64 24\n 54595: a4 = a4 | a5\n 54598: a1 = a1 | a4\n 54601: a3 = u8 [a0 + 21]\n 54604: a4 = u8 [a0 + 20]\n 54607: a5 = u8 [a0 + 22]\n 54610: a2 = u8 [a0 + 23]\n 54613: a3 = a3 <<64 8\n 54616: a3 = a3 | a4\n 54619: a5 = a5 <<64 16\n 54622: a2 = a2 <<64 24\n 54625: a2 = a2 | a5\n 54628: a2 = a2 | a3\n 54631: a2 = a2 <<64 32\n 54634: a3 = a2 | a1\n 54637: a1 = u8 [a0 + 25]\n 54640: a2 = u8 [a0 + 24]\n 54643: a4 = u8 [a0 + 26]\n 54646: a5 = u8 [a0 + 27]\n 54649: a1 = a1 <<64 8\n 54652: a1 = a1 | a2\n 54655: a4 = a4 <<64 16\n 54658: a5 = a5 <<64 24\n 54661: a4 = a4 | a5\n 54664: a1 = a1 | a4\n 54667: a2 = u8 [a0 + 29]\n 54670: a4 = u8 [a0 + 28]\n 54673: a5 = u8 [a0 + 30]\n 54676: a0 = u8 [a0 + 31]\n 54679: a2 = a2 <<64 8\n 54682: a2 = a2 | a4\n 54685: a5 = a5 <<64 16\n 54688: a0 = a0 <<64 24\n 54691: a0 = a0 | a5\n 54694: a0 = a0 | a2\n 54697: a0 = a0 <<64 32\n 54700: a0 = a0 | a1\n 54703: a0 = reverse a0\n 54705: a1 = reverse a3\n 54707: a2 = reverse t1\n 54709: a3 = reverse t0\n 54711: a4 = u64 [s1 + 192]\n 54715: u64 [s1 + 448] = a4\n 54719: a4 = u64 [s1 + 200]\n 54723: u64 [s1 + 456] = a4\n 54727: a4 = u64 [s1 + 184]\n 54731: u64 [s1 + 464] = a4\n 54735: a4 = u64 [s1 + 208]\n 54739: u64 [s1 + 472] = a4\n 54743: i64 a4 = i64 sp - i64 32\n 54746: a4 = a4 & 0xffffffe0\n 54749: sp = a4\n 54751: u64 [a4 + 24] = a3\n 54754: u64 [a4 + 16] = a2\n 54757: u64 [a4 + 8] = a1\n 54760: u64 [a4] = a0\n 54762: a3 = a4 + 0x0\n 54764: a1 = s1 + 0x1c0\n 54768: a2 = 0xffffffff\n 54771: a4 = 0x20\n 54774: a0 = 0x0\n 54776: ecalli 13 // 'set_storage'\n 54778: fallthrough\n      : @1106 (gas: 54)\n 54779: a1 = u64 [s1 + 192]\n 54783: i64 a1 = i64 a1 + 0x1\n 54786: a0 = a1 <u 0x1\n 54789: a2 = u64 [s1 + 200]\n 54793: i64 a2 = a2 + a0\n 54796: u64 [s1 + 200] = a2\n 54800: u64 [s1 + 192] = a1\n 54804: a0 = a1 | a2\n 54807: a0 = a0 <u 0x1\n 54810: a1 = u64 [s1 + 184]\n 54814: i64 t0 = a1 + a0\n 54817: a0 = t0 <u a1\n 54820: a1 = u64 [s1 + 208]\n 54824: i64 a1 = a1 + a0\n 54827: u64 [s1 + 208] = a1\n 54831: a0 = u64 [s1 + 216]\n 54835: i64 a2 = i64 a0 + 0x20\n 54838: a1 = a2 <u a0\n 54841: a0 = u64 [s1 + 128]\n 54845: i64 t2 = a0 + a1\n 54848: a3 = t2 <u a0\n 54851: a3 = a1 if a1 == 0\n 54854: a0 = u64 [s1 + 136]\n 54858: i64 ra = a0 + a3\n 54861: t1 = ra <u a0\n 54864: a0 = u64 [s1 + 168]\n 54868: i64 a5 = i64 a0 + 0x20\n 54871: a3 = a5 <u a0\n 54874: a1 = u64 [s1 + 144]\n 54878: i64 a0 = a1 + a3\n 54881: a4 = a0 <u a1\n 54884: a4 = a3 if a3 == 0\n 54887: a1 = u64 [s1 + 152]\n 54891: i64 a4 = a4 + a1\n 54894: a3 = a4 <u a1\n 54897: a1 = u64 [s1 + 176]\n 54901: i64 a1 = a1 + a3\n 54904: u64 [s1 + 176] = a1\n 54908: a1 = a1 | a4\n 54911: a3 = u64 [s1 + 72]\n 54914: a3 = a5 <u a3\n 54917: a3 = 0 if a0 != 0\n 54919: a3 = 0 if a1 != 0\n 54921: a1 = u64 [s1 + 160]\n 54925: i64 a1 = a1 + t1\n 54928: u64 [s1 + 168] = a5\n 54932: u64 [s1 + 216] = a2\n 54936: u64 [s1 + 160] = t2\n 54940: t1 = t2\n 54942: t2 = ra\n 54944: a5 = t0\n 54946: u64 [s1 + 184] = t0\n 54950: t0 = u64 [s1 + 112]\n 54953: jump @1102 if a3 != 0\n      : @1107 (gas: 1)\n 54957: jump @1114\n      : @1108 (gas: 8)\n 54960: a0 = u64 [s1 + 120]\n 54963: a1 = u64 [s1 + 72]\n 54966: a0 = a0 | a1\n 54969: a1 = u64 [s1 + 128]\n 54973: a2 = u64 [s1]\n 54975: a1 = a1 | a2\n 54978: a0 = a0 | a1\n 54981: jump @1120 if a0 == 0\n      : @1109 (gas: 10)\n 54985: a0 = u64 [s1 + 104]\n 54988: a1 = u64 [s1 + 96]\n 54991: a0 = a0 | a1\n 54994: a1 = 0xffffffe0\n 55004: a2 = u64 [s1 + 112]\n 55007: a1 = a2 <u a1\n 55010: a2 = u64 [s1 + 88]\n 55013: a1 = 0 if a2 != 0\n 55015: a1 = 0 if a0 != 0\n 55017: jump @1135 if a1 == 0\n      : @1110 (gas: 5)\n 55021: a0 = u64 [s1 + 136]\n 55025: a0 = a0 + 0x20\n 55028: a1 = 0x20\n 55031: u64 [s1 + 216] = a0\n 55035: ra = 730, jump @0\n      : @1111 [@dyn 365] (gas: 1)\n 55042: jump @1135 if a0 == 0\n      : @1112 (gas: 284)\n 55046: a3 = u64 [s1 + 80]\n 55049: a0 = u64 [s1 + 216]\n 55053: i64 a3 = a3 + a0\n 55056: a0 = u8 [a3 + 25]\n 55059: a1 = u8 [a3 + 24]\n 55062: a2 = u8 [a3 + 26]\n 55065: a4 = u8 [a3 + 27]\n 55068: a0 = a0 <<64 8\n 55071: a0 = a0 | a1\n 55074: a2 = a2 <<64 16\n 55077: a4 = a4 <<64 24\n 55080: a2 = a2 | a4\n 55083: a0 = a0 | a2\n 55086: a1 = u8 [a3 + 29]\n 55089: a2 = u8 [a3 + 28]\n 55092: a4 = u8 [a3 + 30]\n 55095: a5 = u8 [a3 + 31]\n 55098: a1 = a1 <<64 8\n 55101: a1 = a1 | a2\n 55104: a4 = a4 <<64 16\n 55107: a5 = a5 <<64 24\n 55110: a4 = a4 | a5\n 55113: a1 = a1 | a4\n 55116: a1 = a1 <<64 32\n 55119: t0 = a1 | a0\n 55122: a0 = u8 [a3 + 17]\n 55125: a1 = u8 [a3 + 16]\n 55128: a2 = u8 [a3 + 18]\n 55131: a4 = u8 [a3 + 19]\n 55134: a0 = a0 <<64 8\n 55137: a0 = a0 | a1\n 55140: a2 = a2 <<64 16\n 55143: a4 = a4 <<64 24\n 55146: a2 = a2 | a4\n 55149: a0 = a0 | a2\n 55152: a1 = u8 [a3 + 21]\n 55155: a2 = u8 [a3 + 20]\n 55158: a4 = u8 [a3 + 22]\n 55161: a5 = u8 [a3 + 23]\n 55164: a1 = a1 <<64 8\n 55167: a1 = a1 | a2\n 55170: a4 = a4 <<64 16\n 55173: a5 = a5 <<64 24\n 55176: a4 = a4 | a5\n 55179: a1 = a1 | a4\n 55182: a1 = a1 <<64 32\n 55185: a0 = a0 | a1\n 55188: u64 [s1 + 216] = a0\n 55192: a0 = u8 [a3 + 9]\n 55195: a1 = u8 [a3 + 8]\n 55198: a2 = u8 [a3 + 10]\n 55201: a4 = u8 [a3 + 11]\n 55204: a0 = a0 <<64 8\n 55207: a0 = a0 | a1\n 55210: a2 = a2 <<64 16\n 55213: a4 = a4 <<64 24\n 55216: a2 = a2 | a4\n 55219: a0 = a0 | a2\n 55222: a1 = u8 [a3 + 13]\n 55225: a2 = u8 [a3 + 12]\n 55228: a4 = u8 [a3 + 14]\n 55231: a5 = u8 [a3 + 15]\n 55234: a1 = a1 <<64 8\n 55237: a1 = a1 | a2\n 55240: a4 = a4 <<64 16\n 55243: a5 = a5 <<64 24\n 55246: a4 = a4 | a5\n 55249: a1 = a1 | a4\n 55252: a1 = a1 <<64 32\n 55255: a0 = a0 | a1\n 55258: u64 [s1 + 208] = a0\n 55262: a0 = u8 [a3 + 1]\n 55265: a1 = u8 [a3]\n 55267: a4 = u8 [a3 + 2]\n 55270: a5 = u8 [a3 + 3]\n 55273: a0 = a0 <<64 8\n 55276: a0 = a0 | a1\n 55279: a4 = a4 <<64 16\n 55282: a5 = a5 <<64 24\n 55285: a4 = a4 | a5\n 55288: a0 = a0 | a4\n 55291: a1 = u8 [a3 + 5]\n 55294: a4 = u8 [a3 + 4]\n 55297: a5 = u8 [a3 + 6]\n 55300: a3 = u8 [a3 + 7]\n 55303: a1 = a1 <<64 8\n 55306: a1 = a1 | a4\n 55309: a5 = a5 <<64 16\n 55312: a3 = a3 <<64 24\n 55315: a3 = a3 | a5\n 55318: a1 = a1 | a3\n 55321: a1 = a1 <<64 32\n 55324: a0 = a0 | a1\n 55327: u64 [s1 + 200] = a0\n 55331: u8 [s1 + 383] = 0\n 55335: u8 [s1 + 382] = 0\n 55339: u8 [s1 + 381] = 0\n 55343: u8 [s1 + 380] = 0\n 55347: u8 [s1 + 379] = 0\n 55351: u8 [s1 + 378] = 0\n 55355: u8 [s1 + 377] = 0\n 55359: u8 [s1 + 376] = 0\n 55363: u8 [s1 + 375] = 0\n 55367: u8 [s1 + 374] = 0\n 55371: u8 [s1 + 373] = 0\n 55375: u8 [s1 + 372] = 0\n 55379: u8 [s1 + 371] = 0\n 55383: u8 [s1 + 370] = 0\n 55387: u8 [s1 + 369] = 0\n 55391: u8 [s1 + 368] = 0\n 55395: u8 [s1 + 367] = 0\n 55399: u8 [s1 + 366] = 0\n 55403: u8 [s1 + 365] = 0\n 55407: u8 [s1 + 364] = 0\n 55411: u8 [s1 + 363] = 0\n 55415: u8 [s1 + 362] = 0\n 55419: u8 [s1 + 361] = 0\n 55423: u8 [s1 + 360] = 0\n 55427: u8 [s1 + 359] = 0\n 55431: u8 [s1 + 358] = 0\n 55435: u8 [s1 + 357] = 0\n 55439: u8 [s1 + 356] = 0\n 55443: u8 [s1 + 355] = 0\n 55447: u8 [s1 + 354] = 0\n 55451: u8 [s1 + 353] = 0\n 55455: u8 [s1 + 352] = 0\n 55459: u8 [s1 + 351] = 255\n 55465: u8 [s1 + 350] = 255\n 55471: u8 [s1 + 349] = 255\n 55477: u8 [s1 + 347] = 255\n 55483: u8 [s1 + 344] = 4294967295\n 55488: u8 [s1 + 343] = 255\n 55494: u8 [s1 + 342] = 255\n 55500: u8 [s1 + 341] = 255\n 55506: u8 [s1 + 339] = 255\n 55512: u8 [s1 + 336] = 4294967295\n 55517: u8 [s1 + 335] = 255\n 55523: u8 [s1 + 334] = 255\n 55529: u8 [s1 + 333] = 255\n 55535: u8 [s1 + 331] = 255\n 55541: u8 [s1 + 328] = 4294967295\n 55546: u8 [s1 + 327] = 255\n 55552: u8 [s1 + 326] = 255\n 55558: u8 [s1 + 325] = 255\n 55564: u8 [s1 + 323] = 255\n 55570: u8 [s1 + 320] = 4294967295\n 55575: a1 = 0xffffffff\n 55585: u8 [s1 + 348] = a1\n 55589: u8 [s1 + 340] = a1\n 55593: u8 [s1 + 332] = a1\n 55597: u8 [s1 + 324] = a1\n 55601: a1 = 0xffffffffffff\n 55611: u8 [s1 + 346] = a1\n 55615: a0 = 0xffffffffffffff\n 55625: u8 [s1 + 345] = a0\n 55629: u8 [s1 + 338] = a1\n 55633: u8 [s1 + 337] = a0\n 55637: u8 [s1 + 330] = a1\n 55641: u8 [s1 + 329] = a0\n 55645: u8 [s1 + 322] = a1\n 55649: u8 [s1 + 321] = a0\n 55653: t2 = u64 [s1 + 8]\n 55656: a4 = t2 & 0x1f\n 55659: i64 a0 = i64 s1 + 0x140\n 55663: i64 a4 = a4 + a0\n 55666: a0 = u8 [a4 + 25]\n 55669: a1 = u8 [a4 + 24]\n 55672: a5 = u8 [a4 + 26]\n 55675: a2 = u8 [a4 + 27]\n 55678: a0 = a0 <<64 8\n 55681: a0 = a0 | a1\n 55684: a5 = a5 <<64 16\n 55687: a2 = a2 <<64 24\n 55690: a2 = a2 | a5\n 55693: a0 = a0 | a2\n 55696: a1 = u8 [a4 + 29]\n 55699: a2 = u8 [a4 + 28]\n 55702: a5 = u8 [a4 + 30]\n 55705: a3 = u8 [a4 + 31]\n 55708: a1 = a1 <<64 8\n 55711: a1 = a1 | a2\n 55714: a5 = a5 <<64 16\n 55717: a3 = a3 <<64 24\n 55720: a3 = a3 | a5\n 55723: a1 = a1 | a3\n 55726: a1 = a1 <<64 32\n 55729: a0 = a0 | a1\n 55732: u64 [s1 + 192] = a0\n 55736: a0 = u8 [a4 + 17]\n 55739: a1 = u8 [a4 + 16]\n 55742: a2 = u8 [a4 + 18]\n 55745: a3 = u8 [a4 + 19]\n 55748: a0 = a0 <<64 8\n 55751: a0 = a0 | a1\n 55754: a2 = a2 <<64 16\n 55757: a3 = a3 <<64 24\n 55760: a2 = a2 | a3\n 55763: a5 = a2 | a0\n 55766: a1 = u8 [a4 + 21]\n 55769: a2 = u8 [a4 + 20]\n 55772: a3 = u8 [a4 + 22]\n 55775: a0 = u8 [a4 + 23]\n 55778: a1 = a1 <<64 8\n 55781: a1 = a1 | a2\n 55784: a3 = a3 <<64 16\n 55787: a0 = a0 <<64 24\n 55790: a0 = a0 | a3\n 55793: a0 = a0 | a1\n 55796: a0 = a0 <<64 32\n 55799: ra = a0 | a5\n 55802: a1 = u8 [a4 + 9]\n 55805: a2 = u8 [a4 + 8]\n 55808: a3 = u8 [a4 + 10]\n 55811: a5 = u8 [a4 + 11]\n 55814: a1 = a1 <<64 8\n 55817: a1 = a1 | a2\n 55820: a3 = a3 <<64 16\n 55823: a5 = a5 <<64 24\n 55826: a3 = a3 | a5\n 55829: a1 = a1 | a3\n 55832: a2 = u8 [a4 + 13]\n 55835: a3 = u8 [a4 + 12]\n 55838: a5 = u8 [a4 + 14]\n 55841: a0 = u8 [a4 + 15]\n 55844: a2 = a2 <<64 8\n 55847: a2 = a2 | a3\n 55850: a5 = a5 <<64 16\n 55853: a0 = a0 <<64 24\n 55856: a0 = a0 | a5\n 55859: a0 = a0 | a2\n 55862: a0 = a0 <<64 32\n 55865: a1 = a1 | a0\n 55868: a0 = u8 [a4 + 1]\n 55871: a2 = u8 [a4]\n 55873: a3 = u8 [a4 + 2]\n 55876: a5 = u8 [a4 + 3]\n 55879: a0 = a0 <<64 8\n 55882: a0 = a0 | a2\n 55885: a3 = a3 <<64 16\n 55888: a5 = a5 <<64 24\n 55891: a3 = a3 | a5\n 55894: a0 = a0 | a3\n 55897: a2 = u8 [a4 + 5]\n 55900: a3 = u8 [a4 + 4]\n 55903: a5 = u8 [a4 + 6]\n 55906: a4 = u8 [a4 + 7]\n 55909: a2 = a2 <<64 8\n 55912: a2 = a2 | a3\n 55915: a5 = a5 <<64 16\n 55918: a4 = a4 <<64 24\n 55921: a4 = a4 | a5\n 55924: a2 = a2 | a4\n 55927: a2 = a2 <<64 32\n 55930: a0 = a0 | a2\n 55933: a2 = reverse t0\n 55935: t1 = (a2 & ~a0)\n 55938: a0 = u64 [s1 + 216]\n 55942: a0 = reverse a0\n 55944: t0 = (a0 & ~a1)\n 55947: a0 = u64 [s1 + 200]\n 55951: a1 = reverse a0\n 55953: a0 = u64 [s1 + 208]\n 55957: a2 = reverse a0\n 55959: a2 = (a2 & ~ra)\n 55962: a0 = u64 [s1 + 192]\n 55966: a1 = (a1 & ~a0)\n 55969: a3 = t2 >>64 63\n 55972: a0 = u64 [s1 + 16]\n 55975: a5 = a0 <<64 1\n 55978: a5 = a5 | a3\n 55981: a3 = a0 >>64 63\n 55984: a0 = u64 [s1 + 64]\n 55987: a4 = a0 <<64 1\n 55990: a4 = a4 | a3\n 55993: a3 = a0 >>64 63\n 55996: a0 = u64 [s1 + 24]\n 55999: a0 = a0 <<64 1\n 56002: a0 = a0 | a3\n 56005: a3 = a1 | a0\n 56008: a2 = a2 | a4\n 56011: a1 = t0 | a5\n 56014: a0 = t2 <<64 1\n 56017: a0 = t1 | a0\n 56020: jump @1121\n      : @1113 (gas: 6)\n 56023: u64 [s1 + 160] = 0\n 56027: ra = 0x0\n 56029: a1 = 0x0\n 56031: a2 = 0x20\n 56034: t0 = u64 [s1 + 112]\n 56037: fallthrough\n      : @1114 (gas: 13)\n 56038: t2 = u64 [s1 + 160]\n 56042: t1 = t0\n 56044: t0 = a5\n 56046: a5 = u64 [s1 + 8]\n 56049: a3 = u64 [s1 + 72]\n 56052: a3 = a3 ^ a5\n 56055: a0 = u64 [s1 + 64]\n 56058: a3 = a3 | a0\n 56061: a0 = u64 [s1 + 24]\n 56064: a4 = u64 [s1 + 16]\n 56067: a4 = a4 | a0\n 56070: a3 = a3 | a4\n 56073: jump @1119 if a3 == 0\n      : @1115 (gas: 28)\n 56077: u64 [s1 + 216] = t0\n 56081: t0 = a2\n 56083: i64 a3 = a2 + t1\n 56086: a0 = a3 <u a2\n 56089: a5 = a1\n 56091: a1 = u64 [s1 + 88]\n 56094: i64 a1 = a1 + t2\n 56097: i64 a1 = a1 + a0\n 56100: a4 = a1 ^ t2\n 56103: a2 = a1 <u t2\n 56106: a2 = a0 if a4 == 0\n 56109: a0 = u64 [s1 + 96]\n 56112: i64 a0 = a0 + a5\n 56115: a4 = u64 [s1 + 104]\n 56118: i64 a4 = a4 + ra\n 56121: a5 = a4 <u ra\n 56124: i64 a0 = a0 + a5\n 56127: i64 a2 = a2 + a4\n 56130: a4 = a2 <u a4\n 56133: i64 a0 = a0 + a4\n 56136: a0 = a0 | a1\n 56139: a3 = a3 | a2\n 56142: a3 = a3 | a0\n 56145: a0 = a0 | a2\n 56148: a3 = a3 >>64 32\n 56151: a0 = a0 <<64 32\n 56154: a0 = a0 | a3\n 56157: jump @1135 if a0 != 0\n      : @1116 (gas: 4)\n 56161: a0 = t0 + t1\n 56164: a1 = 0x20\n 56167: u64 [s1 + 184] = a0\n 56171: ra = 732, jump @0\n      : @1117 [@dyn 366] (gas: 1)\n 56178: jump @1135 if a0 == 0\n      : @1118 (gas: 285)\n 56182: a3 = u64 [s1 + 80]\n 56185: a0 = u64 [s1 + 184]\n 56189: i64 a3 = a3 + a0\n 56192: a0 = u8 [a3 + 25]\n 56195: a1 = u8 [a3 + 24]\n 56198: a2 = u8 [a3 + 26]\n 56201: a4 = u8 [a3 + 27]\n 56204: a0 = a0 <<64 8\n 56207: a0 = a0 | a1\n 56210: a2 = a2 <<64 16\n 56213: a4 = a4 <<64 24\n 56216: a2 = a2 | a4\n 56219: a0 = a0 | a2\n 56222: a1 = u8 [a3 + 29]\n 56225: a2 = u8 [a3 + 28]\n 56228: a4 = u8 [a3 + 30]\n 56231: a5 = u8 [a3 + 31]\n 56234: a1 = a1 <<64 8\n 56237: a1 = a1 | a2\n 56240: a4 = a4 <<64 16\n 56243: a5 = a5 <<64 24\n 56246: a4 = a4 | a5\n 56249: a1 = a1 | a4\n 56252: a1 = a1 <<64 32\n 56255: a0 = a0 | a1\n 56258: u64 [s1 + 184] = a0\n 56262: a0 = u8 [a3 + 17]\n 56265: a1 = u8 [a3 + 16]\n 56268: a2 = u8 [a3 + 18]\n 56271: a4 = u8 [a3 + 19]\n 56274: a0 = a0 <<64 8\n 56277: a0 = a0 | a1\n 56280: a2 = a2 <<64 16\n 56283: a4 = a4 <<64 24\n 56286: a2 = a2 | a4\n 56289: a0 = a0 | a2\n 56292: a1 = u8 [a3 + 21]\n 56295: a2 = u8 [a3 + 20]\n 56298: a4 = u8 [a3 + 22]\n 56301: a5 = u8 [a3 + 23]\n 56304: a1 = a1 <<64 8\n 56307: a1 = a1 | a2\n 56310: a4 = a4 <<64 16\n 56313: a5 = a5 <<64 24\n 56316: a4 = a4 | a5\n 56319: a1 = a1 | a4\n 56322: a1 = a1 <<64 32\n 56325: a0 = a0 | a1\n 56328: u64 [s1 + 176] = a0\n 56332: a0 = u8 [a3 + 9]\n 56335: a1 = u8 [a3 + 8]\n 56338: a2 = u8 [a3 + 10]\n 56341: a4 = u8 [a3 + 11]\n 56344: a0 = a0 <<64 8\n 56347: a0 = a0 | a1\n 56350: a2 = a2 <<64 16\n 56353: a4 = a4 <<64 24\n 56356: a2 = a2 | a4\n 56359: a0 = a0 | a2\n 56362: a1 = u8 [a3 + 13]\n 56365: a2 = u8 [a3 + 12]\n 56368: a4 = u8 [a3 + 14]\n 56371: a5 = u8 [a3 + 15]\n 56374: a1 = a1 <<64 8\n 56377: a1 = a1 | a2\n 56380: a4 = a4 <<64 16\n 56383: a5 = a5 <<64 24\n 56386: a4 = a4 | a5\n 56389: a1 = a1 | a4\n 56392: a1 = a1 <<64 32\n 56395: t2 = a1 | a0\n 56398: a0 = u8 [a3 + 1]\n 56401: a1 = u8 [a3]\n 56403: a4 = u8 [a3 + 2]\n 56406: a5 = u8 [a3 + 3]\n 56409: a0 = a0 <<64 8\n 56412: a0 = a0 | a1\n 56415: a4 = a4 <<64 16\n 56418: a5 = a5 <<64 24\n 56421: a4 = a4 | a5\n 56424: a0 = a0 | a4\n 56427: a1 = u8 [a3 + 5]\n 56430: a4 = u8 [a3 + 4]\n 56433: a5 = u8 [a3 + 6]\n 56436: a3 = u8 [a3 + 7]\n 56439: a1 = a1 <<64 8\n 56442: a1 = a1 | a4\n 56445: a5 = a5 <<64 16\n 56448: a3 = a3 <<64 24\n 56451: a3 = a3 | a5\n 56454: a1 = a1 | a3\n 56457: a1 = a1 <<64 32\n 56460: ra = a1 | a0\n 56463: u8 [s1 + 287] = 0\n 56467: u8 [s1 + 286] = 0\n 56471: u8 [s1 + 285] = 0\n 56475: u8 [s1 + 284] = 0\n 56479: u8 [s1 + 283] = 0\n 56483: u8 [s1 + 282] = 0\n 56487: u8 [s1 + 281] = 0\n 56491: u8 [s1 + 280] = 0\n 56495: u8 [s1 + 279] = 0\n 56499: u8 [s1 + 278] = 0\n 56503: u8 [s1 + 277] = 0\n 56507: u8 [s1 + 276] = 0\n 56511: u8 [s1 + 275] = 0\n 56515: u8 [s1 + 274] = 0\n 56519: u8 [s1 + 273] = 0\n 56523: u8 [s1 + 272] = 0\n 56527: u8 [s1 + 271] = 0\n 56531: u8 [s1 + 270] = 0\n 56535: u8 [s1 + 269] = 0\n 56539: u8 [s1 + 268] = 0\n 56543: u8 [s1 + 267] = 0\n 56547: u8 [s1 + 266] = 0\n 56551: u8 [s1 + 265] = 0\n 56555: u8 [s1 + 264] = 0\n 56559: u8 [s1 + 263] = 0\n 56563: u8 [s1 + 262] = 0\n 56567: u8 [s1 + 261] = 0\n 56571: u8 [s1 + 260] = 0\n 56575: u8 [s1 + 259] = 0\n 56579: u8 [s1 + 258] = 0\n 56583: u8 [s1 + 257] = 0\n 56587: u8 [s1 + 256] = 0\n 56591: u8 [s1 + 255] = 255\n 56597: u8 [s1 + 254] = 255\n 56603: u8 [s1 + 253] = 255\n 56609: u8 [s1 + 251] = 255\n 56615: u8 [s1 + 248] = 4294967295\n 56620: u8 [s1 + 247] = 255\n 56626: u8 [s1 + 246] = 255\n 56632: u8 [s1 + 245] = 255\n 56638: u8 [s1 + 243] = 255\n 56644: u8 [s1 + 240] = 4294967295\n 56649: u8 [s1 + 239] = 255\n 56655: u8 [s1 + 238] = 255\n 56661: u8 [s1 + 237] = 255\n 56667: u8 [s1 + 235] = 255\n 56673: u8 [s1 + 232] = 4294967295\n 56678: u8 [s1 + 231] = 255\n 56684: u8 [s1 + 230] = 255\n 56690: u8 [s1 + 229] = 255\n 56696: u8 [s1 + 227] = 255\n 56702: u8 [s1 + 224] = 4294967295\n 56707: a1 = 0xffffffff\n 56717: u8 [s1 + 252] = a1\n 56721: u8 [s1 + 244] = a1\n 56725: u8 [s1 + 236] = a1\n 56729: u8 [s1 + 228] = a1\n 56733: a1 = 0xffffffffffff\n 56743: u8 [s1 + 250] = a1\n 56747: a0 = 0xffffffffffffff\n 56757: u8 [s1 + 249] = a0\n 56761: u8 [s1 + 242] = a1\n 56765: u8 [s1 + 241] = a0\n 56769: u8 [s1 + 234] = a1\n 56773: u8 [s1 + 233] = a0\n 56777: u8 [s1 + 226] = a1\n 56781: u8 [s1 + 225] = a0\n 56785: a4 = u64 [s1 + 8]\n 56788: a4 = a4 & 0x1f\n 56791: i64 a0 = i64 s1 + 0xe0\n 56795: i64 a4 = a4 + a0\n 56798: a0 = u8 [a4 + 25]\n 56801: a1 = u8 [a4 + 24]\n 56804: a5 = u8 [a4 + 26]\n 56807: a2 = u8 [a4 + 27]\n 56810: a0 = a0 <<64 8\n 56813: a0 = a0 | a1\n 56816: a5 = a5 <<64 16\n 56819: a2 = a2 <<64 24\n 56822: a2 = a2 | a5\n 56825: a0 = a0 | a2\n 56828: a1 = u8 [a4 + 29]\n 56831: a2 = u8 [a4 + 28]\n 56834: a5 = u8 [a4 + 30]\n 56837: a3 = u8 [a4 + 31]\n 56840: a1 = a1 <<64 8\n 56843: a1 = a1 | a2\n 56846: a5 = a5 <<64 16\n 56849: a3 = a3 <<64 24\n 56852: a3 = a3 | a5\n 56855: a1 = a1 | a3\n 56858: a1 = a1 <<64 32\n 56861: t1 = a1 | a0\n 56864: a0 = u8 [a4 + 17]\n 56867: a1 = u8 [a4 + 16]\n 56870: a2 = u8 [a4 + 18]\n 56873: a3 = u8 [a4 + 19]\n 56876: a0 = a0 <<64 8\n 56879: a0 = a0 | a1\n 56882: a2 = a2 <<64 16\n 56885: a3 = a3 <<64 24\n 56888: a2 = a2 | a3\n 56891: a5 = a2 | a0\n 56894: a1 = u8 [a4 + 21]\n 56897: a2 = u8 [a4 + 20]\n 56900: a3 = u8 [a4 + 22]\n 56903: a0 = u8 [a4 + 23]\n 56906: a1 = a1 <<64 8\n 56909: a1 = a1 | a2\n 56912: a3 = a3 <<64 16\n 56915: a0 = a0 <<64 24\n 56918: a0 = a0 | a3\n 56921: a0 = a0 | a1\n 56924: a0 = a0 <<64 32\n 56927: t0 = a0 | a5\n 56930: a1 = u8 [a4 + 9]\n 56933: a2 = u8 [a4 + 8]\n 56936: a3 = u8 [a4 + 10]\n 56939: a5 = u8 [a4 + 11]\n 56942: a1 = a1 <<64 8\n 56945: a1 = a1 | a2\n 56948: a3 = a3 <<64 16\n 56951: a5 = a5 <<64 24\n 56954: a3 = a3 | a5\n 56957: a1 = a1 | a3\n 56960: a2 = u8 [a4 + 13]\n 56963: a3 = u8 [a4 + 12]\n 56966: a5 = u8 [a4 + 14]\n 56969: a0 = u8 [a4 + 15]\n 56972: a2 = a2 <<64 8\n 56975: a2 = a2 | a3\n 56978: a5 = a5 <<64 16\n 56981: a0 = a0 <<64 24\n 56984: a0 = a0 | a5\n 56987: a0 = a0 | a2\n 56990: a0 = a0 <<64 32\n 56993: a1 = a1 | a0\n 56996: a0 = u8 [a4 + 1]\n 56999: a2 = u8 [a4]\n 57001: a3 = u8 [a4 + 2]\n 57004: a5 = u8 [a4 + 3]\n 57007: a0 = a0 <<64 8\n 57010: a0 = a0 | a2\n 57013: a3 = a3 <<64 16\n 57016: a5 = a5 <<64 24\n 57019: a3 = a3 | a5\n 57022: a0 = a0 | a3\n 57025: a2 = u8 [a4 + 5]\n 57028: a3 = u8 [a4 + 4]\n 57031: a5 = u8 [a4 + 6]\n 57034: a4 = u8 [a4 + 7]\n 57037: a2 = a2 <<64 8\n 57040: a2 = a2 | a3\n 57043: a5 = a5 <<64 16\n 57046: a4 = a4 <<64 24\n 57049: a4 = a4 | a5\n 57052: a2 = a2 | a4\n 57055: a2 = a2 <<64 32\n 57058: a0 = a0 | a2\n 57061: a2 = u64 [s1 + 184]\n 57065: a2 = reverse a2\n 57067: a0 = (a2 & ~a0)\n 57070: a2 = u64 [s1 + 176]\n 57074: a2 = reverse a2\n 57076: a1 = (a2 & ~a1)\n 57079: a2 = reverse t2\n 57081: a2 = (a2 & ~t0)\n 57084: a3 = reverse ra\n 57086: a3 = (a3 & ~t1)\n 57089: a4 = u64 [s1 + 192]\n 57093: u64 [s1 + 480] = a4\n 57097: a4 = u64 [s1 + 200]\n 57101: u64 [s1 + 488] = a4\n 57105: a4 = u64 [s1 + 216]\n 57109: u64 [s1 + 496] = a4\n 57113: a4 = u64 [s1 + 208]\n 57117: u64 [s1 + 504] = a4\n 57121: i64 a4 = i64 sp - i64 32\n 57124: a4 = a4 & 0xffffffe0\n 57127: sp = a4\n 57129: u64 [a4 + 24] = a3\n 57132: u64 [a4 + 16] = a2\n 57135: u64 [a4 + 8] = a1\n 57138: u64 [a4] = a0\n 57140: a3 = a4 + 0x0\n 57142: a1 = s1 + 0x1e0\n 57146: a2 = 0xffffffff\n 57149: a4 = 0x20\n 57152: a0 = 0x0\n 57154: ecalli 13 // 'set_storage'\n 57156: a5 = u64 [s1 + 8]\n 57159: fallthrough\n      : @1119 (gas: 31)\n 57160: a0 = a5 >>64 63\n 57163: a2 = u64 [s1 + 16]\n 57166: a1 = a2 <<64 1\n 57169: a0 = a0 | a1\n 57172: a1 = a2 >>64 63\n 57175: a3 = u64 [s1 + 64]\n 57178: a2 = a3 <<64 1\n 57181: a1 = a1 | a2\n 57184: a2 = a3 >>64 63\n 57187: a3 = u64 [s1 + 24]\n 57190: a3 = a3 <<64 1\n 57193: a2 = a2 | a3\n 57196: a3 = a5 <<64 1\n 57199: i64 a3 = i64 a3 + 0x1\n 57202: a4 = u64 [s1 + 32]\n 57205: u64 [s1 + 512] = a4\n 57209: a4 = u64 [s1 + 40]\n 57212: u64 [s1 + 520] = a4\n 57216: a4 = u64 [s1 + 48]\n 57219: u64 [s1 + 528] = a4\n 57223: a4 = u64 [s1 + 56]\n 57226: u64 [s1 + 536] = a4\n 57230: i64 a4 = i64 sp - i64 32\n 57233: a4 = a4 & 0xffffffe0\n 57236: sp = a4\n 57238: u64 [a4 + 24] = a2\n 57241: u64 [a4 + 16] = a1\n 57244: u64 [a4 + 8] = a0\n 57247: u64 [a4] = a3\n 57249: a1 = s1 + 0x200\n 57253: jump @1122\n      : @1120 (gas: 4)\n 57255: a1 = 0x0\n 57257: a2 = 0x0\n 57259: a3 = 0x0\n 57261: fallthrough\n      : @1121 (gas: 17)\n 57262: a4 = u64 [s1 + 32]\n 57265: u64 [s1 + 544] = a4\n 57269: a4 = u64 [s1 + 40]\n 57272: u64 [s1 + 552] = a4\n 57276: a4 = u64 [s1 + 48]\n 57279: u64 [s1 + 560] = a4\n 57283: a4 = u64 [s1 + 56]\n 57286: u64 [s1 + 568] = a4\n 57290: i64 a4 = i64 sp - i64 32\n 57293: a4 = a4 & 0xffffffe0\n 57296: sp = a4\n 57298: u64 [a4 + 24] = a3\n 57301: u64 [a4 + 16] = a2\n 57304: u64 [a4 + 8] = a1\n 57307: u64 [a4] = a0\n 57309: a1 = s1 + 0x220\n 57313: fallthrough\n      : @1122 (gas: 11)\n 57314: a3 = a4 + 0x0\n 57316: a2 = 0xffffffff\n 57319: a4 = 0x20\n 57322: a0 = 0x0\n 57324: ecalli 13 // 'set_storage'\n 57326: i64 sp = i64 s0 - i64 768\n 57330: ra = u64 [sp + 760]\n 57334: s0 = u64 [sp + 752]\n 57338: s1 = u64 [sp + 744]\n 57342: i64 sp = i64 sp + 0x300\n 57346: ret\n      : @1123 (gas: 3)\n 57348: a1 = 0x20\n 57351: a0 = 0x0\n 57353: ra = 734, jump @0\n      : @1124 [@dyn 367] (gas: 1)\n 57360: jump @1135 if a0 == 0\n      : @1125 (gas: 8)\n 57364: a1 = u64 [s1 + 80]\n 57367: u64 [a1 + 24] = 0\n 57370: u64 [a1 + 16] = 0\n 57373: u64 [a1 + 8] = 0\n 57376: u64 [a1 + 0] = 1903904846\n 57382: a0 = 0x4\n 57385: a1 = 0x20\n 57388: ra = 736, jump @0\n      : @1126 [@dyn 368] (gas: 1)\n 57395: jump @1135 if a0 == 0\n      : @1127 (gas: 2)\n 57398: a0 = 0x41000000\n 57404: jump @1133\n      : @1128 (gas: 3)\n 57406: a1 = 0x20\n 57409: a0 = 0x0\n 57411: ra = 738, jump @0\n      : @1129 [@dyn 369] (gas: 1)\n 57418: jump @1135 if a0 == 0\n      : @1130 (gas: 8)\n 57421: a1 = u64 [s1 + 80]\n 57424: u64 [a1 + 24] = 0\n 57427: u64 [a1 + 16] = 0\n 57430: u64 [a1 + 8] = 0\n 57433: u64 [a1 + 0] = 1903904846\n 57439: a0 = 0x4\n 57442: a1 = 0x20\n 57445: ra = 740, jump @0\n      : @1131 [@dyn 370] (gas: 1)\n 57452: jump @1135 if a0 == 0\n      : @1132 (gas: 2)\n 57455: a0 = 0x22000000\n 57461: fallthrough\n      : @1133 (gas: 12)\n 57462: a1 = u64 [s1 + 80]\n 57465: u32 [a1 + 32] = a0\n 57468: u32 [a1 + 28] = 0\n 57471: u32 [a1 + 24] = 0\n 57474: u32 [a1 + 20] = 0\n 57477: u32 [a1 + 16] = 0\n 57480: u32 [a1 + 12] = 0\n 57483: u32 [a1 + 8] = 0\n 57486: u32 [a1 + 4] = 0\n 57489: a1 = 0x24\n 57492: a0 = 0x0\n 57494: ra = 742, jump @0\n      : @1134 [@dyn 371] (gas: 1)\n 57501: jump @1136 if a0 != 0\n      : @1135 (gas: 1)\n 57504: trap\n      : @1136 (gas: 6)\n 57505: a1 = i32 [s1 + 80]\n 57508: a0 = 0x1\n 57511: a2 = 0x24\n 57514: ra = 0x2e8\n 57518: ecalli 11 // 'seal_return'\n 57520: fallthrough\n      : @1137 [@dyn 372] (gas: 25)\n 57521: i64 sp = i64 sp - i64 736\n 57525: u64 [sp + 728] = ra\n 57529: u64 [sp + 720] = s0\n 57533: u64 [sp + 712] = s1\n 57537: i64 s0 = i64 sp + 0x2e0\n 57541: sp = sp & 0xffffffe0\n 57544: s1 = sp\n 57546: u64 [s1 + 80] = t2\n 57549: u64 [s1 + 72] = a5\n 57552: u64 [s1 + 64] = a4\n 57555: t2 = a1\n 57557: a5 = a0\n 57559: i64 sp = i64 sp - i64 16\n 57562: u64 [s1 + 32] = a3\n 57565: u64 [sp + 8] = a3\n 57568: i64 a0 = i64 s1 + 0x160\n 57572: a1 = 0x3\n 57575: u64 [s1 + 40] = a2\n 57578: u64 [sp] = a2\n 57580: a2 = 0x0\n 57582: a3 = 0x0\n 57584: a4 = 0x0\n 57586: u64 [s1 + 48] = a5\n 57589: u64 [s1 + 56] = t2\n 57592: ra = 746, jump @191\n      : @1138 [@dyn 373] (gas: 7)\n 57599: i64 sp = i64 sp + 0x10\n 57602: a4 = u64 [s1 + 376]\n 57606: a3 = u64 [s1 + 368]\n 57610: a2 = u64 [s1 + 360]\n 57614: a1 = u64 [s1 + 352]\n 57618: i64 a0 = i64 s1 + 0x140\n 57622: ra = 748, jump @1030\n      : @1139 [@dyn 374] (gas: 11)\n 57628: a0 = u64 [s1 + 344]\n 57632: u64 [s1 + 216] = a0\n 57636: a0 = u64 [s1 + 336]\n 57640: u64 [s1 + 208] = a0\n 57644: a0 = u64 [s1 + 328]\n 57648: u64 [s1 + 200] = a0\n 57652: a0 = u64 [s1 + 320]\n 57656: u64 [s1 + 192] = a0\n 57660: a0 = s1 + 0x180\n 57664: ecalli 8 // 'now'\n 57666: fallthrough\n      : @1140 (gas: 20)\n 57667: a4 = u64 [s1 + 192]\n 57671: i64 a0 = i64 a4 + 0xa0\n 57675: a1 = a0 <u a4\n 57678: a3 = u64 [s1 + 200]\n 57682: i64 a2 = a3 + a1\n 57685: a3 = a2 <u a3\n 57688: a3 = a1 if a1 == 0\n 57691: a1 = u64 [s1 + 208]\n 57695: i64 a3 = a3 + a1\n 57698: a1 = a3 <u a1\n 57701: a5 = u64 [s1 + 216]\n 57705: i64 a1 = a1 + a5\n 57708: a0 = a0 | a3\n 57711: a1 = a1 | a2\n 57714: a0 = a0 | a1\n 57717: a0 = a0 >>64 32\n 57720: a1 = a1 | a3\n 57723: a1 = a1 <<64 32\n 57726: a0 = a0 | a1\n 57729: jump @1142 if a0 == 0\n      : @1141 (gas: 1)\n 57732: jump @1216\n      : @1142 (gas: 12)\n 57735: a0 = u64 [s1 + 408]\n 57739: u64 [s1 + 200] = a0\n 57743: a0 = u64 [s1 + 400]\n 57747: u64 [s1 + 208] = a0\n 57751: a0 = u64 [s1 + 392]\n 57755: u64 [s1 + 176] = a0\n 57759: a0 = u64 [s1 + 384]\n 57763: u64 [s1 + 184] = a0\n 57767: a0 = a4 + 0xa0\n 57771: a1 = 0x20\n 57774: u64 [s1 + 192] = a0\n 57778: ra = 750, jump @0\n      : @1143 [@dyn 375] (gas: 1)\n 57785: jump @1145 if a0 != 0\n      : @1144 (gas: 1)\n 57788: jump @1216\n      : @1145 (gas: 112)\n 57791: a0 = 0x20050\n 57796: u64 [s1 + 216] = a0\n 57800: a1 = u64 [s1 + 192]\n 57804: i64 a0 = a0 + a1\n 57807: a1 = u8 [a0 + 1]\n 57810: a2 = u8 [a0]\n 57812: a3 = u8 [a0 + 2]\n 57815: a4 = u8 [a0 + 3]\n 57818: a1 = a1 <<64 8\n 57821: a1 = a1 | a2\n 57824: a3 = a3 <<64 16\n 57827: a4 = a4 <<64 24\n 57830: a3 = a3 | a4\n 57833: a1 = a1 | a3\n 57836: a2 = u8 [a0 + 5]\n 57839: a3 = u8 [a0 + 4]\n 57842: a4 = u8 [a0 + 6]\n 57845: a5 = u8 [a0 + 7]\n 57848: a2 = a2 <<64 8\n 57851: a2 = a2 | a3\n 57854: a4 = a4 <<64 16\n 57857: a5 = a5 <<64 24\n 57860: a4 = a4 | a5\n 57863: a2 = a2 | a4\n 57866: a2 = a2 <<64 32\n 57869: t0 = a2 | a1\n 57872: a2 = u8 [a0 + 9]\n 57875: a3 = u8 [a0 + 8]\n 57878: a4 = u8 [a0 + 10]\n 57881: a5 = u8 [a0 + 11]\n 57884: a2 = a2 <<64 8\n 57887: a2 = a2 | a3\n 57890: a4 = a4 <<64 16\n 57893: a5 = a5 <<64 24\n 57896: a4 = a4 | a5\n 57899: t1 = a4 | a2\n 57902: a3 = u8 [a0 + 17]\n 57905: a4 = u8 [a0 + 16]\n 57908: a5 = u8 [a0 + 18]\n 57911: a1 = u8 [a0 + 19]\n 57914: a3 = a3 <<64 8\n 57917: a3 = a3 | a4\n 57920: a5 = a5 <<64 16\n 57923: a1 = a1 <<64 24\n 57926: a1 = a1 | a5\n 57929: a1 = a1 | a3\n 57932: a3 = u8 [a0 + 21]\n 57935: a4 = u8 [a0 + 20]\n 57938: a5 = u8 [a0 + 22]\n 57941: a2 = u8 [a0 + 23]\n 57944: a3 = a3 <<64 8\n 57947: a3 = a3 | a4\n 57950: a5 = a5 <<64 16\n 57953: a2 = a2 <<64 24\n 57956: a2 = a2 | a5\n 57959: a2 = a2 | a3\n 57962: a2 = a2 <<64 32\n 57965: t2 = a2 | a1\n 57968: a1 = u8 [a0 + 25]\n 57971: a2 = u8 [a0 + 24]\n 57974: a4 = u8 [a0 + 26]\n 57977: a5 = u8 [a0 + 27]\n 57980: a1 = a1 <<64 8\n 57983: a1 = a1 | a2\n 57986: a4 = a4 <<64 16\n 57989: a5 = a5 <<64 24\n 57992: a4 = a4 | a5\n 57995: a1 = a1 | a4\n 57998: a2 = u8 [a0 + 29]\n 58001: a4 = u8 [a0 + 28]\n 58004: a5 = u8 [a0 + 30]\n 58007: a3 = u8 [a0 + 31]\n 58010: a2 = a2 <<64 8\n 58013: a2 = a2 | a4\n 58016: a5 = a5 <<64 16\n 58019: a3 = a3 <<64 24\n 58022: a3 = a3 | a5\n 58025: a2 = a2 | a3\n 58028: a2 = a2 <<64 32\n 58031: a1 = a1 | a2\n 58034: a2 = reverse t2\n 58036: a3 = u64 [s1 + 176]\n 58040: a4 = a3 ^ a2\n 58043: a2 = a2 <u a3\n 58046: a1 = reverse a1\n 58048: a3 = u64 [s1 + 184]\n 58052: a3 = a1 <u a3\n 58055: a1 = u8 [a0 + 13]\n 58058: a3 = a2 if a4 != 0\n 58061: a2 = u8 [a0 + 12]\n 58064: a4 = u8 [a0 + 14]\n 58067: a0 = u8 [a0 + 15]\n 58070: a1 = a1 <<64 8\n 58073: a1 = a1 | a2\n 58076: a4 = a4 <<64 16\n 58079: a0 = a0 <<64 24\n 58082: a0 = a0 | a4\n 58085: a0 = a0 | a1\n 58088: a0 = a0 <<64 32\n 58091: a0 = a0 | t1\n 58094: a0 = reverse a0\n 58096: a1 = reverse t0\n 58098: a4 = u64 [s1 + 200]\n 58102: a2 = a4 ^ a1\n 58105: a1 = a1 <u a4\n 58108: a5 = u64 [s1 + 208]\n 58112: a4 = a0 <u a5\n 58115: a4 = a1 if a2 != 0\n 58118: a0 = a0 ^ a5\n 58121: a0 = a0 | a2\n 58124: a3 = a4 if a0 != 0\n 58127: jump @1147 if a3 == 0\n      : @1146 (gas: 1)\n 58130: jump @1207\n      : @1147 (gas: 21)\n 58133: a0 = s1 + 0x1a0\n 58137: ecalli 3 // 'caller'\n 58139: a0 = u32 [s1 + 432]\n 58143: u64 [s1 + 168] = a0\n 58147: a0 = u64 [s1 + 424]\n 58151: u64 [s1 + 160] = a0\n 58155: a0 = u64 [s1 + 416]\n 58159: u64 [s1 + 152] = a0\n 58163: a0 = s1 + 0x1c0\n 58167: ecalli 8 // 'now'\n 58169: a0 = u64 [s1 + 472]\n 58173: u64 [s1 + 104] = a0\n 58176: a0 = u64 [s1 + 464]\n 58180: u64 [s1 + 112] = a0\n 58183: a0 = u64 [s1 + 456]\n 58187: u64 [s1 + 96] = a0\n 58190: a0 = u64 [s1 + 448]\n 58194: u64 [s1 + 88] = a0\n 58197: a0 = 0x40\n 58200: a1 = 0x20\n 58203: ra = 752, jump @0\n      : @1148 [@dyn 376] (gas: 1)\n 58210: jump @1150 if a0 != 0\n      : @1149 (gas: 1)\n 58213: jump @1216\n      : @1150 (gas: 32)\n 58216: a3 = u64 [s1 + 216]\n 58220: a0 = u64 [a3 + 64]\n 58223: a1 = u64 [a3 + 72]\n 58226: a2 = u64 [a3 + 80]\n 58229: a3 = u64 [a3 + 88]\n 58232: t0 = reverse a0\n 58234: a5 = reverse a1\n 58236: a1 = reverse a2\n 58238: a2 = reverse a3\n 58240: i64 a4 = i64 a2 + 0x20\n 58243: a0 = a4 <u a2\n 58246: i64 a3 = a1 + a0\n 58249: u64 [s1 + 192] = a1\n 58253: a1 = a3 <u a1\n 58256: a1 = a0 if a0 == 0\n 58259: i64 a1 = a1 + a5\n 58262: u64 [s1 + 200] = a5\n 58266: a0 = a1 <u a5\n 58269: u64 [s1 + 208] = t0\n 58273: i64 t0 = t0 + a0\n 58276: u64 [s1 + 128] = a4\n 58280: a0 = a4 | a1\n 58283: u64 [s1 + 144] = a3\n 58287: u64 [s1 + 120] = t0\n 58290: a3 = a3 | t0\n 58293: a0 = a0 | a3\n 58296: a0 = a0 >>64 32\n 58299: u64 [s1 + 136] = a1\n 58303: a1 = a1 | a3\n 58306: a1 = a1 <<64 32\n 58309: a0 = a0 | a1\n 58312: jump @1152 if a0 == 0\n      : @1151 (gas: 1)\n 58315: jump @1216\n      : @1152 (gas: 5)\n 58318: u64 [s1 + 176] = a2\n 58322: a0 = a2 + 0x20\n 58325: a1 = 0x20\n 58328: u64 [s1 + 184] = a0\n 58332: ra = 754, jump @0\n      : @1153 [@dyn 377] (gas: 1)\n 58339: jump @1155 if a0 != 0\n      : @1154 (gas: 1)\n 58342: jump @1216\n      : @1155 (gas: 70)\n 58345: a0 = 0xffffffeb\n 58355: a1 = u64 [s1 + 128]\n 58359: a1 = a0 <u a1\n 58362: a2 = u64 [s1 + 144]\n 58366: a0 = a2 >u 0x0\n 58368: a0 = a1 if a2 == 0\n 58371: a3 = u64 [s1 + 136]\n 58375: a1 = a3 >u 0x0\n 58377: a4 = u64 [s1 + 120]\n 58380: a2 = a4 >u 0x0\n 58382: a2 = a1 if a4 == 0\n 58385: a1 = a3 | a4\n 58388: a0 = a2 if a1 != 0\n 58391: a1 = u64 [s1 + 216]\n 58395: a4 = u64 [s1 + 184]\n 58399: i64 a2 = a1 + a4\n 58402: a3 = u64 [s1 + 152]\n 58406: a1 = a3 >>64 56\n 58409: u8 [a2 + 7] = a1\n 58412: a1 = a3 >>64 48\n 58415: u8 [a2 + 6] = a1\n 58418: a1 = a3 >>64 40\n 58421: u8 [a2 + 5] = a1\n 58424: a1 = a3 >>64 32\n 58427: u8 [a2 + 4] = a1\n 58430: a1 = a3 >>64 24\n 58433: u8 [a2 + 3] = a1\n 58436: a1 = a3 >>64 16\n 58439: u8 [a2 + 2] = a1\n 58442: a1 = a3 >>64 8\n 58445: u8 [a2 + 1] = a1\n 58448: u8 [a2] = a3\n 58450: a3 = u64 [s1 + 160]\n 58454: a1 = a3 >>64 56\n 58457: u8 [a2 + 15] = a1\n 58460: a1 = a3 >>64 48\n 58463: u8 [a2 + 14] = a1\n 58466: a1 = a3 >>64 40\n 58469: u8 [a2 + 13] = a1\n 58472: a1 = a3 >>64 32\n 58475: u8 [a2 + 12] = a1\n 58478: a1 = a3 >>64 24\n 58481: u8 [a2 + 11] = a1\n 58484: a1 = a3 >>64 16\n 58487: u8 [a2 + 10] = a1\n 58490: u8 [a2 + 8] = a3\n 58493: a1 = a3 >>64 8\n 58496: u8 [a2 + 9] = a1\n 58499: a3 = u64 [s1 + 168]\n 58503: a1 = a3 >>64 24\n 58506: u8 [a2 + 19] = a1\n 58509: a1 = a3 >>64 16\n 58512: u8 [a2 + 18] = a1\n 58515: u8 [a2 + 16] = a3\n 58518: a1 = a3 >>64 8\n 58521: u8 [a2 + 17] = a1\n 58524: u8 [a2 + 31] = 0\n 58527: u8 [a2 + 30] = 0\n 58530: u8 [a2 + 29] = 0\n 58533: u8 [a2 + 28] = 0\n 58536: u8 [a2 + 27] = 0\n 58539: u8 [a2 + 26] = 0\n 58542: u8 [a2 + 25] = 0\n 58545: u8 [a2 + 24] = 0\n 58548: u8 [a2 + 23] = 0\n 58551: u8 [a2 + 22] = 0\n 58554: u8 [a2 + 21] = 0\n 58557: u64 [s1 + 160] = a2\n 58561: u8 [a2 + 20] = 0\n 58564: jump @1157 if a0 == 0\n      : @1156 (gas: 1)\n 58567: jump @1216\n      : @1157 (gas: 4)\n 58570: a0 = a4 + 0x14\n 58573: a1 = 0x20\n 58576: u64 [s1 + 168] = a0\n 58580: ra = 756, jump @0\n      : @1158 [@dyn 378] (gas: 1)\n 58587: jump @1160 if a0 != 0\n      : @1159 (gas: 1)\n 58590: jump @1216\n      : @1160 (gas: 83)\n 58593: a0 = u64 [s1 + 216]\n 58597: a1 = u64 [s1 + 168]\n 58601: i64 a0 = a0 + a1\n 58604: a1 = u64 [s1 + 88]\n 58607: a1 = reverse a1\n 58609: a2 = a1 >>64 56\n 58612: u8 [a0 + 31] = a2\n 58615: a2 = a1 >>64 48\n 58618: u8 [a0 + 30] = a2\n 58621: a2 = a1 >>64 40\n 58624: u8 [a0 + 29] = a2\n 58627: a2 = a1 >>64 32\n 58630: u8 [a0 + 28] = a2\n 58633: a2 = a1 >>64 24\n 58636: u8 [a0 + 27] = a2\n 58639: a2 = a1 >>64 16\n 58642: u8 [a0 + 26] = a2\n 58645: a2 = u64 [s1 + 96]\n 58648: a2 = reverse a2\n 58650: u8 [a0 + 24] = a1\n 58653: a1 = a1 >>64 8\n 58656: u8 [a0 + 25] = a1\n 58659: a1 = a2 >>64 56\n 58662: u8 [a0 + 23] = a1\n 58665: a1 = a2 >>64 48\n 58668: u8 [a0 + 22] = a1\n 58671: a1 = a2 >>64 40\n 58674: u8 [a0 + 21] = a1\n 58677: a1 = a2 >>64 32\n 58680: u8 [a0 + 20] = a1\n 58683: a1 = a2 >>64 24\n 58686: u8 [a0 + 19] = a1\n 58689: a1 = a2 >>64 16\n 58692: u8 [a0 + 18] = a1\n 58695: a1 = u64 [s1 + 104]\n 58698: a1 = reverse a1\n 58700: a3 = u64 [s1 + 112]\n 58703: a3 = reverse a3\n 58705: u8 [a0 + 16] = a2\n 58708: a2 = a2 >>64 8\n 58711: u8 [a0 + 17] = a2\n 58714: u8 [a0 + 8] = a3\n 58717: a2 = a3 >>64 56\n 58720: u8 [a0 + 15] = a2\n 58723: a2 = a3 >>64 48\n 58726: u8 [a0 + 14] = a2\n 58729: a2 = a3 >>64 40\n 58732: u8 [a0 + 13] = a2\n 58735: a2 = a3 >>64 32\n 58738: u8 [a0 + 12] = a2\n 58741: a2 = a3 >>64 24\n 58744: u8 [a0 + 11] = a2\n 58747: a2 = a3 >>64 16\n 58750: u8 [a0 + 10] = a2\n 58753: a3 = a3 >>64 8\n 58756: u8 [a0 + 9] = a3\n 58759: a2 = a1 >>64 56\n 58762: u8 [a0 + 7] = a2\n 58765: a2 = a1 >>64 48\n 58768: u8 [a0 + 6] = a2\n 58771: a2 = a1 >>64 40\n 58774: u8 [a0 + 5] = a2\n 58777: a2 = a1 >>64 32\n 58780: u8 [a0 + 4] = a2\n 58783: a2 = a1 >>64 24\n 58786: u8 [a0 + 3] = a2\n 58789: a2 = a1 >>64 16\n 58792: u8 [a0 + 2] = a2\n 58795: a4 = u64 [s1 + 200]\n 58799: t0 = u64 [s1 + 176]\n 58803: a2 = t0 | a4\n 58806: a3 = u64 [s1 + 208]\n 58810: a5 = u64 [s1 + 192]\n 58814: a3 = a3 | a5\n 58817: a2 = a2 | a3\n 58820: a2 = a2 >>64 32\n 58823: a3 = a3 | a4\n 58826: a3 = a3 <<64 32\n 58829: a2 = a2 | a3\n 58832: u8 [a0] = a1\n 58834: a1 = a1 >>64 8\n 58837: u8 [a0 + 1] = a1\n 58840: jump @1162 if a2 == 0\n      : @1161 (gas: 1)\n 58843: jump @1216\n      : @1162 (gas: 4)\n 58846: a0 = t0 + 0x0\n 58848: a1 = 0x20\n 58851: u64 [s1 + 168] = a0\n 58855: ra = 758, jump @0\n      : @1163 [@dyn 379] (gas: 1)\n 58862: jump @1165 if a0 != 0\n      : @1164 (gas: 1)\n 58865: jump @1216\n      : @1165 (gas: 46)\n 58868: a0 = u64 [s1 + 216]\n 58872: a1 = u64 [s1 + 168]\n 58876: i64 a1 = a1 + a0\n 58879: u8 [a1 + 31] = 52\n 58883: u8 [a1 + 30] = 0\n 58886: u8 [a1 + 29] = 0\n 58889: u8 [a1 + 28] = 0\n 58892: u8 [a1 + 27] = 0\n 58895: u8 [a1 + 26] = 0\n 58898: u8 [a1 + 25] = 0\n 58901: u8 [a1 + 24] = 0\n 58904: u8 [a1 + 23] = 0\n 58907: u8 [a1 + 22] = 0\n 58910: u8 [a1 + 21] = 0\n 58913: u8 [a1 + 20] = 0\n 58916: u8 [a1 + 19] = 0\n 58919: u8 [a1 + 18] = 0\n 58922: u8 [a1 + 17] = 0\n 58925: u8 [a1 + 16] = 0\n 58928: u8 [a1 + 15] = 0\n 58931: u8 [a1 + 14] = 0\n 58934: u8 [a1 + 13] = 0\n 58937: u8 [a1 + 12] = 0\n 58940: u8 [a1 + 11] = 0\n 58943: u8 [a1 + 10] = 0\n 58946: u8 [a1 + 9] = 0\n 58949: u8 [a1 + 8] = 0\n 58952: u8 [a1 + 7] = 0\n 58955: u8 [a1 + 6] = 0\n 58958: u8 [a1 + 5] = 0\n 58961: u8 [a1 + 4] = 0\n 58964: u8 [a1 + 3] = 0\n 58967: u8 [a1 + 2] = 0\n 58970: u8 [a1 + 1] = 0\n 58973: u64 [s1 + 152] = a1\n 58977: u8 [a1 + 0] = 0\n 58979: i64 sp = i64 sp - i64 8\n 58982: a4 = 0x54\n 58985: u64 [sp + 0] = 0\n 58987: a0 = u64 [s1 + 176]\n 58991: a1 = u64 [s1 + 192]\n 58995: a2 = u64 [s1 + 200]\n 58999: a3 = u64 [s1 + 208]\n 59003: a5 = 0x0\n 59005: t2 = 0x0\n 59007: ra = 760, jump @119\n      : @1166 [@dyn 380] (gas: 4)\n 59014: i64 sp = i64 sp + 0x8\n 59017: a1 = 0x20\n 59020: a0 = u64 [s1 + 168]\n 59024: ra = 762, jump @0\n      : @1167 [@dyn 381] (gas: 1)\n 59031: jump @1169 if a0 != 0\n      : @1168 (gas: 1)\n 59034: jump @1216\n      : @1169 (gas: 99)\n 59037: ra = u64 [s1 + 152]\n 59041: a0 = u8 [ra + 25]\n 59044: a1 = u8 [ra + 24]\n 59047: a2 = u8 [ra + 26]\n 59050: a3 = u8 [ra + 27]\n 59053: a0 = a0 <<64 8\n 59056: a0 = a0 | a1\n 59059: a2 = a2 <<64 16\n 59062: a3 = a3 <<64 24\n 59065: a2 = a2 | a3\n 59068: a0 = a0 | a2\n 59071: a1 = u8 [ra + 29]\n 59074: a2 = u8 [ra + 28]\n 59077: a3 = u8 [ra + 30]\n 59080: a4 = u8 [ra + 31]\n 59083: a1 = a1 <<64 8\n 59086: a1 = a1 | a2\n 59089: a3 = a3 <<64 16\n 59092: a4 = a4 <<64 24\n 59095: a3 = a3 | a4\n 59098: a1 = a1 | a3\n 59101: a1 = a1 <<64 32\n 59104: t0 = a1 | a0\n 59107: a1 = u8 [ra + 9]\n 59110: a2 = u8 [ra + 8]\n 59113: a3 = u8 [ra + 10]\n 59116: a4 = u8 [ra + 11]\n 59119: a1 = a1 <<64 8\n 59122: a1 = a1 | a2\n 59125: a3 = a3 <<64 16\n 59128: a4 = a4 <<64 24\n 59131: a3 = a3 | a4\n 59134: a1 = a1 | a3\n 59137: a2 = u8 [ra + 13]\n 59140: a3 = u8 [ra + 12]\n 59143: a4 = u8 [ra + 14]\n 59146: a5 = u8 [ra + 15]\n 59149: a2 = a2 <<64 8\n 59152: a2 = a2 | a3\n 59155: a4 = a4 <<64 16\n 59158: a5 = a5 <<64 24\n 59161: a4 = a4 | a5\n 59164: a2 = a2 | a4\n 59167: a2 = a2 <<64 32\n 59170: t1 = a2 | a1\n 59173: a2 = u8 [ra + 1]\n 59176: a3 = u8 [ra]\n 59178: a4 = u8 [ra + 2]\n 59181: a5 = u8 [ra + 3]\n 59184: a2 = a2 <<64 8\n 59187: a2 = a2 | a3\n 59190: a4 = a4 <<64 16\n 59193: a5 = a5 <<64 24\n 59196: a4 = a4 | a5\n 59199: t2 = a4 | a2\n 59202: a3 = u8 [ra + 17]\n 59205: a4 = u8 [ra + 16]\n 59208: a5 = u8 [ra + 18]\n 59211: a0 = u8 [ra + 19]\n 59214: a3 = a3 <<64 8\n 59217: a3 = a3 | a4\n 59220: a5 = a5 <<64 16\n 59223: a0 = a0 <<64 24\n 59226: a0 = a0 | a5\n 59229: a3 = a3 | a0\n 59232: a0 = u8 [ra + 5]\n 59235: a4 = u8 [ra + 4]\n 59238: a5 = u8 [ra + 6]\n 59241: a1 = u8 [ra + 7]\n 59244: a0 = a0 <<64 8\n 59247: a0 = a0 | a4\n 59250: a5 = a5 <<64 16\n 59253: a1 = a1 <<64 24\n 59256: a1 = a1 | a5\n 59259: a1 = a1 | a0\n 59262: a0 = u8 [ra + 21]\n 59265: a4 = u8 [ra + 20]\n 59268: a5 = u8 [ra + 22]\n 59271: a2 = u8 [ra + 23]\n 59274: a0 = a0 <<64 8\n 59277: a0 = a0 | a4\n 59280: a5 = a5 <<64 16\n 59283: a2 = a2 <<64 24\n 59286: a2 = a2 | a5\n 59289: a2 = a2 | a0\n 59292: a4 = reverse t1\n 59294: a0 = reverse t0\n 59296: a5 = a0 | a4\n 59299: a1 = a1 | a2\n 59302: a1 = a1 <<64 32\n 59305: a2 = a3 | t2\n 59308: a1 = a1 | a2\n 59311: a1 = reverse a1\n 59313: a5 = a5 | a1\n 59316: a5 = a5 >>64 32\n 59319: a1 = a1 | a4\n 59322: a1 = a1 <<64 32\n 59325: a1 = a1 | a5\n 59328: jump @1171 if a1 == 0\n      : @1170 (gas: 1)\n 59331: jump @1216\n      : @1171 (gas: 4)\n 59334: a1 = a0 + 0x0\n 59336: a0 = u64 [s1 + 184]\n 59340: u64 [s1 + 208] = a1\n 59344: ra = 764, jump @0\n      : @1172 [@dyn 382] (gas: 1)\n 59351: jump @1174 if a0 != 0\n      : @1173 (gas: 1)\n 59354: jump @1216\n      : @1174 (gas: 38)\n 59357: i64 a0 = i64 sp - i64 32\n 59360: a2 = a0 & 0xffffffe0\n 59363: u64 [s1 + 200] = a2\n 59367: sp = a2\n 59369: a0 = i32 [s1 + 160]\n 59373: a2 = a2 + 0x0\n 59375: a1 = u64 [s1 + 208]\n 59379: ecalli 6 // 'hash_keccak_256'\n 59381: a1 = u64 [s1 + 200]\n 59385: a0 = u64 [a1 + 24]\n 59388: u64 [s1 + 136] = a0\n 59392: a0 = u64 [a1 + 16]\n 59395: u64 [s1 + 128] = a0\n 59399: a0 = u64 [a1 + 8]\n 59402: u64 [s1 + 120] = a0\n 59405: a0 = u64 [a1]\n 59407: u64 [s1 + 112] = a0\n 59410: a0 = s1 + 0x1e0\n 59414: ecalli 3 // 'caller'\n 59416: a0 = i32 [s1 + 496]\n 59420: u64 [s1 + 168] = a0\n 59424: a0 = u64 [s1 + 480]\n 59428: u64 [s1 + 160] = a0\n 59432: a0 = u64 [s1 + 488]\n 59436: u64 [s1 + 152] = a0\n 59440: a0 = s1 + 0x200\n 59444: ecalli 8 // 'now'\n 59446: a0 = u64 [s1 + 536]\n 59450: u64 [s1 + 104] = a0\n 59453: a0 = u64 [s1 + 528]\n 59457: u64 [s1 + 96] = a0\n 59460: a0 = u64 [s1 + 520]\n 59464: u64 [s1 + 88] = a0\n 59467: a0 = u64 [s1 + 512]\n 59471: u64 [s1 + 24] = a0\n 59474: a0 = 0x40\n 59477: a1 = 0x20\n 59480: ra = 766, jump @0\n      : @1175 [@dyn 383] (gas: 1)\n 59487: jump @1177 if a0 != 0\n      : @1176 (gas: 1)\n 59490: jump @1216\n      : @1177 (gas: 19)\n 59493: a3 = u64 [s1 + 216]\n 59497: a0 = u64 [a3 + 64]\n 59500: a1 = u64 [a3 + 72]\n 59503: a5 = u64 [a3 + 80]\n 59506: a4 = u64 [a3 + 88]\n 59509: a3 = reverse a0\n 59511: u64 [s1 + 192] = a3\n 59515: a2 = reverse a1\n 59517: u64 [s1 + 176] = a2\n 59521: a1 = reverse a5\n 59523: u64 [s1 + 208] = a1\n 59527: a0 = reverse a4\n 59529: u64 [s1 + 200] = a0\n 59533: i64 sp = i64 sp - i64 8\n 59536: a4 = 0xa0\n 59540: u64 [sp + 0] = 0\n 59542: a5 = 0x0\n 59544: t2 = 0x0\n 59546: ra = 768, jump @119\n      : @1178 [@dyn 384] (gas: 13)\n 59553: a2 = u64 [s1 + 200]\n 59557: i64 sp = i64 sp + 0x8\n 59560: a1 = u64 [s1 + 208]\n 59564: a0 = u64 [s1 + 192]\n 59568: a0 = a0 | a1\n 59571: a3 = u64 [s1 + 176]\n 59575: a1 = a2 | a3\n 59578: a1 = a1 | a0\n 59581: a1 = a1 >>64 32\n 59584: a0 = a0 | a3\n 59587: a0 = a0 <<64 32\n 59590: a0 = a0 | a1\n 59593: jump @1216 if a0 != 0\n      : @1179 (gas: 4)\n 59597: a0 = a2 + 0x0\n 59599: a1 = 0x20\n 59602: u64 [s1 + 184] = a0\n 59606: ra = 770, jump @0\n      : @1180 [@dyn 385] (gas: 1)\n 59613: jump @1216 if a0 == 0\n      : @1181 (gas: 87)\n 59617: a0 = u64 [s1 + 152]\n 59621: a2 = reverse a0\n 59623: a1 = a2 >>64 32\n 59626: a0 = u64 [s1 + 160]\n 59630: a0 = reverse a0\n 59632: a3 = a0 <<64 32\n 59635: a1 = a1 | a3\n 59638: a2 = a2 <<64 32\n 59641: a3 = u64 [s1 + 168]\n 59645: a3 = reverse a3\n 59647: a3 = a3 >>64 32\n 59650: a2 = a2 | a3\n 59653: a3 = u64 [s1 + 216]\n 59657: t0 = u64 [s1 + 184]\n 59661: i64 a4 = a3 + t0\n 59664: a2 = reverse a2\n 59666: a3 = a2 >>64 56\n 59669: u8 [a4 + 31] = a3\n 59672: a3 = a2 >>64 48\n 59675: u8 [a4 + 30] = a3\n 59678: a3 = a2 >>64 40\n 59681: u8 [a4 + 29] = a3\n 59684: a3 = a2 >>64 32\n 59687: u8 [a4 + 28] = a3\n 59690: a3 = a2 >>64 24\n 59693: u8 [a4 + 27] = a3\n 59696: a3 = a2 >>64 16\n 59699: u8 [a4 + 26] = a3\n 59702: a1 = reverse a1\n 59704: u8 [a4 + 24] = a2\n 59707: a2 = a2 >>64 8\n 59710: u8 [a4 + 25] = a2\n 59713: a2 = a1 >>64 56\n 59716: u8 [a4 + 23] = a2\n 59719: a2 = a1 >>64 48\n 59722: u8 [a4 + 22] = a2\n 59725: a2 = a1 >>64 40\n 59728: u8 [a4 + 21] = a2\n 59731: a2 = a1 >>64 32\n 59734: u8 [a4 + 20] = a2\n 59737: a2 = a1 >>64 24\n 59740: u8 [a4 + 19] = a2\n 59743: a2 = a1 >>64 16\n 59746: u8 [a4 + 18] = a2\n 59749: a0 = a0 >>64 32\n 59752: a0 = reverse a0\n 59754: u8 [a4 + 11] = 0\n 59757: u8 [a4 + 10] = 0\n 59760: u8 [a4 + 9] = 0\n 59763: u8 [a4 + 7] = 0\n 59766: u8 [a4 + 6] = 0\n 59769: u8 [a4 + 5] = 0\n 59772: u8 [a4 + 4] = 0\n 59775: u8 [a4 + 3] = 0\n 59778: u8 [a4 + 2] = 0\n 59781: u8 [a4 + 1] = 0\n 59784: u8 [a4 + 16] = a1\n 59787: a1 = a1 >>64 8\n 59790: u8 [a4 + 17] = a1\n 59793: u8 [a4 + 8] = a0\n 59796: a1 = a0 >>64 56\n 59799: u8 [a4 + 15] = a1\n 59802: a1 = a0 >>64 48\n 59805: u8 [a4 + 14] = a1\n 59808: a1 = a0 >>64 40\n 59811: u8 [a4 + 13] = a1\n 59814: a0 = a0 >>64 32\n 59817: u8 [a4 + 12] = a0\n 59820: a3 = u64 [s1 + 176]\n 59824: a0 = a3 >u 0x0\n 59826: a1 = u64 [s1 + 192]\n 59830: a2 = a1 >u 0x0\n 59832: a2 = a0 if a1 == 0\n 59835: a0 = 0xffffffdf\n 59845: a5 = u64 [s1 + 200]\n 59849: a0 = a0 <u a5\n 59852: a3 = a3 | a1\n 59855: a1 = u64 [s1 + 208]\n 59859: a5 = a1 >u 0x0\n 59861: u64 [s1 + 168] = a5\n 59865: a0 = a5 if a1 != 0\n 59868: u64 [s1 + 192] = a2\n 59872: u64 [s1 + 176] = a3\n 59876: a0 = a2 if a3 != 0\n 59879: u64 [s1 + 16] = a4\n 59882: u8 [a4 + 0] = 0\n 59884: jump @1216 if a0 != 0\n      : @1182 (gas: 4)\n 59888: a0 = t0 + 0x20\n 59891: a1 = 0x20\n 59894: u64 [s1 + 160] = a0\n 59898: ra = 772, jump @0\n      : @1183 [@dyn 386] (gas: 1)\n 59905: jump @1216 if a0 == 0\n      : @1184 (gas: 82)\n 59909: a0 = u64 [s1 + 216]\n 59913: a3 = u64 [s1 + 160]\n 59917: i64 a3 = a3 + a0\n 59920: a0 = u64 [s1 + 64]\n 59923: a0 = reverse a0\n 59925: a1 = a0 >>64 56\n 59928: u8 [a3 + 31] = a1\n 59931: a1 = a0 >>64 48\n 59934: u8 [a3 + 30] = a1\n 59937: a1 = a0 >>64 40\n 59940: u8 [a3 + 29] = a1\n 59943: a1 = a0 >>64 32\n 59946: u8 [a3 + 28] = a1\n 59949: a1 = a0 >>64 24\n 59952: u8 [a3 + 27] = a1\n 59955: a1 = a0 >>64 16\n 59958: u8 [a3 + 26] = a1\n 59961: a1 = u64 [s1 + 72]\n 59964: a1 = reverse a1\n 59966: u8 [a3 + 24] = a0\n 59969: a0 = a0 >>64 8\n 59972: u8 [a3 + 25] = a0\n 59975: a0 = a1 >>64 56\n 59978: u8 [a3 + 23] = a0\n 59981: a0 = a1 >>64 48\n 59984: u8 [a3 + 22] = a0\n 59987: a0 = a1 >>64 40\n 59990: u8 [a3 + 21] = a0\n 59993: a0 = a1 >>64 32\n 59996: u8 [a3 + 20] = a0\n 59999: a0 = a1 >>64 24\n 60002: u8 [a3 + 19] = a0\n 60005: a0 = a1 >>64 16\n 60008: u8 [a3 + 18] = a0\n 60011: a0 = u64 [s0]\n 60013: a2 = u64 [s1 + 80]\n 60016: a2 = reverse a2\n 60018: u8 [a3 + 16] = a1\n 60021: a1 = a1 >>64 8\n 60024: u8 [a3 + 17] = a1\n 60027: a1 = a2 >>64 56\n 60030: u8 [a3 + 15] = a1\n 60033: a1 = a2 >>64 48\n 60036: u8 [a3 + 14] = a1\n 60039: a1 = a2 >>64 40\n 60042: u8 [a3 + 13] = a1\n 60045: a1 = a2 >>64 32\n 60048: u8 [a3 + 12] = a1\n 60051: a1 = a2 >>64 24\n 60054: u8 [a3 + 11] = a1\n 60057: a1 = a2 >>64 16\n 60060: u8 [a3 + 10] = a1\n 60063: a0 = reverse a0\n 60065: u8 [a3 + 8] = a2\n 60068: a2 = a2 >>64 8\n 60071: u8 [a3 + 9] = a2\n 60074: u8 [a3] = a0\n 60076: a1 = a0 >>64 56\n 60079: u8 [a3 + 7] = a1\n 60082: a1 = a0 >>64 48\n 60085: u8 [a3 + 6] = a1\n 60088: a1 = a0 >>64 40\n 60091: u8 [a3 + 5] = a1\n 60094: a1 = a0 >>64 32\n 60097: u8 [a3 + 4] = a1\n 60100: a1 = a0 >>64 24\n 60103: u8 [a3 + 3] = a1\n 60106: a1 = a0 >>64 16\n 60109: u8 [a3 + 2] = a1\n 60112: a0 = a0 >>64 8\n 60115: a1 = 0xffffffbf\n 60125: a2 = u64 [s1 + 200]\n 60129: a1 = a1 <u a2\n 60132: a2 = u64 [s1 + 208]\n 60136: a4 = u64 [s1 + 168]\n 60140: a1 = a4 if a2 != 0\n 60143: a2 = u64 [s1 + 192]\n 60147: a4 = u64 [s1 + 176]\n 60151: a1 = a2 if a4 != 0\n 60154: u64 [s1 + 80] = a3\n 60157: u8 [a3 + 1] = a0\n 60160: jump @1216 if a1 != 0\n      : @1185 (gas: 5)\n 60164: a0 = u64 [s1 + 184]\n 60168: a0 = a0 + 0x40\n 60171: a1 = 0x20\n 60174: u64 [s1 + 152] = a0\n 60178: ra = 774, jump @0\n      : @1186 [@dyn 387] (gas: 1)\n 60185: jump @1216 if a0 == 0\n      : @1187 (gas: 46)\n 60189: a0 = u64 [s1 + 216]\n 60193: a1 = u64 [s1 + 152]\n 60197: i64 a1 = a1 + a0\n 60200: u8 [a1 + 31] = 0\n 60203: u8 [a1 + 30] = 0\n 60206: u8 [a1 + 29] = 0\n 60209: u8 [a1 + 28] = 0\n 60212: u8 [a1 + 27] = 0\n 60215: u8 [a1 + 26] = 0\n 60218: u8 [a1 + 25] = 0\n 60221: u8 [a1 + 24] = 0\n 60224: u8 [a1 + 23] = 0\n 60227: u8 [a1 + 22] = 0\n 60230: u8 [a1 + 21] = 0\n 60233: u8 [a1 + 20] = 0\n 60236: u8 [a1 + 19] = 0\n 60239: u8 [a1 + 18] = 0\n 60242: u8 [a1 + 17] = 0\n 60245: u8 [a1 + 16] = 0\n 60248: u8 [a1 + 15] = 0\n 60251: u8 [a1 + 14] = 0\n 60254: u8 [a1 + 13] = 0\n 60257: u8 [a1 + 12] = 0\n 60260: u8 [a1 + 11] = 0\n 60263: u8 [a1 + 10] = 0\n 60266: u8 [a1 + 9] = 0\n 60269: u8 [a1 + 8] = 0\n 60272: u8 [a1 + 7] = 0\n 60275: u8 [a1 + 6] = 0\n 60278: u8 [a1 + 5] = 0\n 60281: u8 [a1 + 4] = 0\n 60284: u8 [a1 + 3] = 0\n 60287: u8 [a1 + 2] = 0\n 60290: u8 [a1 + 1] = 0\n 60293: a0 = 0xffffff9f\n 60303: a2 = u64 [s1 + 200]\n 60307: a0 = a0 <u a2\n 60310: a2 = u64 [s1 + 208]\n 60314: a3 = u64 [s1 + 168]\n 60318: a0 = a3 if a2 != 0\n 60321: a2 = u64 [s1 + 192]\n 60325: a3 = u64 [s1 + 176]\n 60329: a0 = a2 if a3 != 0\n 60332: u64 [s1 + 72] = a1\n 60335: u8 [a1 + 0] = 0\n 60337: jump @1216 if a0 != 0\n      : @1188 (gas: 5)\n 60341: a0 = u64 [s1 + 184]\n 60345: a0 = a0 + 0x60\n 60348: a1 = 0x20\n 60351: u64 [s1 + 144] = a0\n 60355: ra = 776, jump @0\n      : @1189 [@dyn 388] (gas: 1)\n 60362: jump @1216 if a0 == 0\n      : @1190 (gas: 46)\n 60366: a0 = u64 [s1 + 216]\n 60370: a1 = u64 [s1 + 144]\n 60374: i64 a1 = a1 + a0\n 60377: u8 [a1 + 31] = 0\n 60380: u8 [a1 + 30] = 0\n 60383: u8 [a1 + 29] = 0\n 60386: u8 [a1 + 28] = 0\n 60389: u8 [a1 + 27] = 0\n 60392: u8 [a1 + 26] = 0\n 60395: u8 [a1 + 25] = 0\n 60398: u8 [a1 + 24] = 0\n 60401: u8 [a1 + 23] = 0\n 60404: u8 [a1 + 22] = 0\n 60407: u8 [a1 + 21] = 0\n 60410: u8 [a1 + 20] = 0\n 60413: u8 [a1 + 19] = 0\n 60416: u8 [a1 + 18] = 0\n 60419: u8 [a1 + 17] = 0\n 60422: u8 [a1 + 16] = 0\n 60425: u8 [a1 + 15] = 0\n 60428: u8 [a1 + 14] = 0\n 60431: u8 [a1 + 13] = 0\n 60434: u8 [a1 + 12] = 0\n 60437: u8 [a1 + 11] = 0\n 60440: u8 [a1 + 10] = 0\n 60443: u8 [a1 + 9] = 0\n 60446: u8 [a1 + 8] = 0\n 60449: u8 [a1 + 7] = 0\n 60452: u8 [a1 + 6] = 0\n 60455: u8 [a1 + 5] = 0\n 60458: u8 [a1 + 4] = 0\n 60461: u8 [a1 + 3] = 0\n 60464: u8 [a1 + 2] = 0\n 60467: u8 [a1 + 1] = 0\n 60470: a0 = 0xffffff7f\n 60480: a2 = u64 [s1 + 200]\n 60484: a0 = a0 <u a2\n 60487: a2 = u64 [s1 + 208]\n 60491: a3 = u64 [s1 + 168]\n 60495: a0 = a3 if a2 != 0\n 60498: a2 = u64 [s1 + 192]\n 60502: a3 = u64 [s1 + 176]\n 60506: a0 = a2 if a3 != 0\n 60509: u64 [s1 + 168] = a1\n 60513: u8 [a1 + 0] = 0\n 60515: jump @1216 if a0 != 0\n      : @1191 (gas: 5)\n 60519: a0 = u64 [s1 + 184]\n 60523: a0 = a0 + 0x80\n 60527: a1 = 0x20\n 60530: u64 [s1 + 176] = a0\n 60534: ra = 778, jump @0\n      : @1192 [@dyn 389] (gas: 1)\n 60541: jump @1216 if a0 == 0\n      : @1193 (gas: 97)\n 60545: a0 = u64 [s1 + 216]\n 60549: a2 = u64 [s1 + 176]\n 60553: i64 a2 = a2 + a0\n 60556: a0 = u64 [s1 + 24]\n 60559: a0 = reverse a0\n 60561: a1 = a0 >>64 56\n 60564: u8 [a2 + 31] = a1\n 60567: a1 = a0 >>64 48\n 60570: u8 [a2 + 30] = a1\n 60573: a1 = a0 >>64 40\n 60576: u8 [a2 + 29] = a1\n 60579: a1 = a0 >>64 32\n 60582: u8 [a2 + 28] = a1\n 60585: a1 = a0 >>64 24\n 60588: u8 [a2 + 27] = a1\n 60591: a1 = a0 >>64 16\n 60594: u8 [a2 + 26] = a1\n 60597: a1 = u64 [s1 + 88]\n 60600: a1 = reverse a1\n 60602: u8 [a2 + 24] = a0\n 60605: a0 = a0 >>64 8\n 60608: u8 [a2 + 25] = a0\n 60611: a0 = a1 >>64 56\n 60614: u8 [a2 + 23] = a0\n 60617: a0 = a1 >>64 48\n 60620: u8 [a2 + 22] = a0\n 60623: a0 = a1 >>64 40\n 60626: u8 [a2 + 21] = a0\n 60629: a0 = a1 >>64 32\n 60632: u8 [a2 + 20] = a0\n 60635: a0 = a1 >>64 24\n 60638: u8 [a2 + 19] = a0\n 60641: a0 = a1 >>64 16\n 60644: u8 [a2 + 18] = a0\n 60647: a0 = u64 [s1 + 96]\n 60650: a0 = reverse a0\n 60652: u8 [a2 + 16] = a1\n 60655: a1 = a1 >>64 8\n 60658: u8 [a2 + 17] = a1\n 60661: a1 = a0 >>64 56\n 60664: u8 [a2 + 15] = a1\n 60667: a1 = a0 >>64 48\n 60670: u8 [a2 + 14] = a1\n 60673: a1 = a0 >>64 40\n 60676: u8 [a2 + 13] = a1\n 60679: a1 = a0 >>64 32\n 60682: u8 [a2 + 12] = a1\n 60685: a1 = a0 >>64 24\n 60688: u8 [a2 + 11] = a1\n 60691: a1 = a0 >>64 16\n 60694: u8 [a2 + 10] = a1\n 60697: a1 = u64 [s1 + 104]\n 60700: a1 = reverse a1\n 60702: u8 [a2 + 8] = a0\n 60705: a0 = a0 >>64 8\n 60708: u8 [a2 + 9] = a0\n 60711: a0 = a1 >>64 56\n 60714: u8 [a2 + 7] = a0\n 60717: a0 = a1 >>64 48\n 60720: u8 [a2 + 6] = a0\n 60723: a0 = a1 >>64 40\n 60726: u8 [a2 + 5] = a0\n 60729: a0 = a1 >>64 32\n 60732: u8 [a2 + 4] = a0\n 60735: a0 = a1 >>64 24\n 60738: u8 [a2 + 3] = a0\n 60741: a0 = a1 >>64 16\n 60744: u8 [a2 + 2] = a0\n 60747: u8 [a2] = a1\n 60749: a1 = a1 >>64 8\n 60752: u64 [s1 + 104] = a2\n 60755: u8 [a2 + 1] = a1\n 60758: a0 = u64 [s1 + 112]\n 60761: a0 = reverse a0\n 60763: u64 [s1 + 192] = a0\n 60767: a0 = u64 [s1 + 120]\n 60770: a0 = reverse a0\n 60772: u64 [s1 + 200] = a0\n 60776: a0 = u64 [s1 + 128]\n 60780: a0 = reverse a0\n 60782: u64 [s1 + 216] = a0\n 60786: a0 = u64 [s1 + 136]\n 60790: a0 = reverse a0\n 60792: u64 [s1 + 208] = a0\n 60796: i64 sp = i64 sp - i64 16\n 60799: a0 = u64 [s1 + 32]\n 60802: u64 [sp + 8] = a0\n 60805: i64 a0 = i64 s1 + 0x120\n 60809: a1 = 0x4\n 60812: a2 = u64 [s1 + 40]\n 60815: u64 [sp] = a2\n 60817: a2 = 0x0\n 60819: a3 = 0x0\n 60821: a4 = 0x0\n 60823: a5 = u64 [s1 + 48]\n 60826: t2 = u64 [s1 + 56]\n 60829: ra = 780, jump @191\n      : @1194 [@dyn 390] (gas: 14)\n 60836: i64 sp = i64 sp + 0x10\n 60839: a4 = u64 [s1 + 312]\n 60843: a3 = u64 [s1 + 304]\n 60847: a2 = u64 [s1 + 296]\n 60851: a1 = u64 [s1 + 288]\n 60855: i64 sp = i64 sp - i64 16\n 60858: a0 = u64 [s1 + 192]\n 60862: u64 [sp + 8] = a0\n 60865: i64 a0 = i64 s1 + 0x100\n 60869: a5 = u64 [s1 + 200]\n 60873: u64 [sp] = a5\n 60875: a5 = u64 [s1 + 208]\n 60879: t2 = u64 [s1 + 216]\n 60883: ra = 782, jump @191\n      : @1195 [@dyn 391] (gas: 12)\n 60890: i64 sp = i64 sp + 0x10\n 60893: a0 = u64 [s1 + 280]\n 60897: u64 [s1 + 216] = a0\n 60901: a0 = u64 [s1 + 272]\n 60905: u64 [s1 + 208] = a0\n 60909: a0 = u64 [s1 + 264]\n 60913: u64 [s1 + 200] = a0\n 60917: a0 = u64 [s1 + 256]\n 60921: u64 [s1 + 192] = a0\n 60925: a1 = 0x20\n 60928: a0 = u64 [s1 + 184]\n 60932: ra = 784, jump @0\n      : @1196 [@dyn 392] (gas: 1)\n 60939: jump @1216 if a0 == 0\n      : @1197 (gas: 112)\n 60943: t0 = u64 [s1 + 16]\n 60946: a0 = u8 [t0 + 17]\n 60949: a1 = u8 [t0 + 16]\n 60952: a2 = u8 [t0 + 18]\n 60955: a3 = u8 [t0 + 19]\n 60958: a0 = a0 <<64 8\n 60961: a0 = a0 | a1\n 60964: a2 = a2 <<64 16\n 60967: a3 = a3 <<64 24\n 60970: a2 = a2 | a3\n 60973: a0 = a0 | a2\n 60976: a1 = u8 [t0 + 21]\n 60979: a2 = u8 [t0 + 20]\n 60982: a3 = u8 [t0 + 22]\n 60985: a4 = u8 [t0 + 23]\n 60988: a1 = a1 <<64 8\n 60991: a1 = a1 | a2\n 60994: a3 = a3 <<64 16\n 60997: a4 = a4 <<64 24\n 61000: a3 = a3 | a4\n 61003: a1 = a1 | a3\n 61006: a1 = a1 <<64 32\n 61009: a0 = a0 | a1\n 61012: a1 = u8 [t0 + 25]\n 61015: a2 = u8 [t0 + 24]\n 61018: a3 = u8 [t0 + 26]\n 61021: a4 = u8 [t0 + 27]\n 61024: a1 = a1 <<64 8\n 61027: a1 = a1 | a2\n 61030: a3 = a3 <<64 16\n 61033: a4 = a4 <<64 24\n 61036: a3 = a3 | a4\n 61039: a1 = a1 | a3\n 61042: a2 = u8 [t0 + 29]\n 61045: a3 = u8 [t0 + 28]\n 61048: a4 = u8 [t0 + 30]\n 61051: a5 = u8 [t0 + 31]\n 61054: a2 = a2 <<64 8\n 61057: a2 = a2 | a3\n 61060: a4 = a4 <<64 16\n 61063: a5 = a5 <<64 24\n 61066: a4 = a4 | a5\n 61069: a2 = a2 | a4\n 61072: a2 = a2 <<64 32\n 61075: a1 = a1 | a2\n 61078: a2 = u8 [t0 + 13]\n 61081: a3 = u8 [t0 + 12]\n 61084: a4 = u8 [t0 + 14]\n 61087: a5 = u8 [t0 + 15]\n 61090: a2 = a2 <<64 8\n 61093: a2 = a2 | a3\n 61096: a4 = a4 <<64 16\n 61099: a5 = a5 <<64 24\n 61102: a4 = a4 | a5\n 61105: a2 = a2 | a4\n 61108: a1 = reverse a1\n 61110: u64 [s1 + 184] = a1\n 61114: a0 = reverse a0\n 61116: u64 [s1 + 136] = a0\n 61120: a0 = reverse a2\n 61122: a0 = a0 >>64 32\n 61125: u64 [s1 + 128] = a0\n 61129: a0 = u64 [s1 + 216]\n 61133: u64 [s1 + 664] = a0\n 61137: a0 = u64 [s1 + 208]\n 61141: u64 [s1 + 656] = a0\n 61145: a0 = u64 [s1 + 200]\n 61149: u64 [s1 + 648] = a0\n 61153: a0 = u64 [s1 + 192]\n 61157: u64 [s1 + 640] = a0\n 61161: u64 [s1 + 632] = 0\n 61165: u64 [s1 + 624] = 0\n 61169: u64 [s1 + 616] = 0\n 61173: u64 [s1 + 608] = 0\n 61177: u64 [s1 + 592] = 0\n 61181: u64 [s1 + 600] = 0\n 61185: u64 [s1 + 584] = 0\n 61189: u64 [s1 + 576] = 256\n 61195: a1 = s1 + 0x280\n 61199: a3 = s1 + 0x260\n 61203: a4 = s1 + 0x240\n 61207: a2 = 0xffffffff\n 61210: a0 = 0x0\n 61212: ecalli 5 // 'get_storage'\n 61214: a0 = u32 [s1 + 628]\n 61218: a0 = a0 <<64 32\n 61221: a1 = u64 [s1 + 632]\n 61225: a2 = u64 [s1 + 128]\n 61229: a0 = a0 | a2\n 61232: a2 = u64 [s1 + 216]\n 61236: u64 [s1 + 696] = a2\n 61240: a2 = u64 [s1 + 208]\n 61244: u64 [s1 + 688] = a2\n 61248: a2 = u64 [s1 + 200]\n 61252: u64 [s1 + 680] = a2\n 61256: a2 = u64 [s1 + 192]\n 61260: u64 [s1 + 672] = a2\n 61264: a2 = u64 [s1 + 136]\n 61268: u64 [s1 + 552] = a2\n 61272: a2 = u64 [s1 + 184]\n 61276: u64 [s1 + 544] = a2\n 61280: u64 [s1 + 568] = a1\n 61284: u64 [s1 + 560] = a0\n 61288: a1 = s1 + 0x2a0\n 61292: a3 = s1 + 0x220\n 61296: a2 = 0xffffffff\n 61299: a4 = 0x20\n 61302: a0 = 0x0\n 61304: ecalli 13 // 'set_storage'\n 61306: a1 = 0x20\n 61309: a0 = u64 [s1 + 160]\n 61313: ra = 786, jump @0\n      : @1198 [@dyn 393] (gas: 1)\n 61320: jump @1216 if a0 == 0\n      : @1199 (gas: 108)\n 61324: a5 = u64 [s1 + 80]\n 61327: a0 = u8 [a5 + 1]\n 61330: a1 = u8 [a5]\n 61332: a2 = u8 [a5 + 2]\n 61335: a3 = u8 [a5 + 3]\n 61338: a0 = a0 <<64 8\n 61341: a0 = a0 | a1\n 61344: a2 = a2 <<64 16\n 61347: a3 = a3 <<64 24\n 61350: a2 = a2 | a3\n 61353: a0 = a0 | a2\n 61356: a1 = u8 [a5 + 5]\n 61359: a2 = u8 [a5 + 4]\n 61362: a3 = u8 [a5 + 6]\n 61365: a4 = u8 [a5 + 7]\n 61368: a1 = a1 <<64 8\n 61371: a1 = a1 | a2\n 61374: a3 = a3 <<64 16\n 61377: a4 = a4 <<64 24\n 61380: a3 = a3 | a4\n 61383: a1 = a1 | a3\n 61386: a1 = a1 <<64 32\n 61389: t0 = a1 | a0\n 61392: a0 = u8 [a5 + 9]\n 61395: a1 = u8 [a5 + 8]\n 61398: a2 = u8 [a5 + 10]\n 61401: a3 = u8 [a5 + 11]\n 61404: a0 = a0 <<64 8\n 61407: a0 = a0 | a1\n 61410: a2 = a2 <<64 16\n 61413: a3 = a3 <<64 24\n 61416: a2 = a2 | a3\n 61419: a0 = a0 | a2\n 61422: a1 = u8 [a5 + 13]\n 61425: a2 = u8 [a5 + 12]\n 61428: a3 = u8 [a5 + 14]\n 61431: a4 = u8 [a5 + 15]\n 61434: a1 = a1 <<64 8\n 61437: a1 = a1 | a2\n 61440: a3 = a3 <<64 16\n 61443: a4 = a4 <<64 24\n 61446: a3 = a3 | a4\n 61449: a1 = a1 | a3\n 61452: a1 = a1 <<64 32\n 61455: t1 = a1 | a0\n 61458: a0 = u8 [a5 + 17]\n 61461: a1 = u8 [a5 + 16]\n 61464: a2 = u8 [a5 + 18]\n 61467: a3 = u8 [a5 + 19]\n 61470: a0 = a0 <<64 8\n 61473: a0 = a0 | a1\n 61476: a2 = a2 <<64 16\n 61479: a3 = a3 <<64 24\n 61482: a2 = a2 | a3\n 61485: a0 = a0 | a2\n 61488: a1 = u8 [a5 + 21]\n 61491: a2 = u8 [a5 + 20]\n 61494: a3 = u8 [a5 + 22]\n 61497: a4 = u8 [a5 + 23]\n 61500: a1 = a1 <<64 8\n 61503: a1 = a1 | a2\n 61506: a3 = a3 <<64 16\n 61509: a4 = a4 <<64 24\n 61512: a3 = a3 | a4\n 61515: a1 = a1 | a3\n 61518: a1 = a1 <<64 32\n 61521: t2 = a1 | a0\n 61524: a0 = u8 [a5 + 25]\n 61527: a1 = u8 [a5 + 24]\n 61530: a2 = u8 [a5 + 26]\n 61533: a3 = u8 [a5 + 27]\n 61536: a0 = a0 <<64 8\n 61539: a0 = a0 | a1\n 61542: a2 = a2 <<64 16\n 61545: a3 = a3 <<64 24\n 61548: a1 = u8 [a5 + 29]\n 61551: a2 = a2 | a3\n 61554: a3 = a2 | a0\n 61557: a0 = u8 [a5 + 28]\n 61560: a1 = a1 <<64 8\n 61563: a2 = u8 [a5 + 30]\n 61566: a4 = u8 [a5 + 31]\n 61569: a5 = a1 | a0\n 61572: a0 = u64 [s1 + 192]\n 61576: i64 a0 = i64 a0 + 0x1\n 61579: a2 = a2 <<64 16\n 61582: a4 = a4 <<64 24\n 61585: a2 = a2 | a4\n 61588: a1 = a0 <u 0x1\n 61591: a4 = u64 [s1 + 200]\n 61595: i64 a1 = a1 + a4\n 61598: a5 = a5 | a2\n 61601: a2 = a0 | a1\n 61604: a2 = a2 <u 0x1\n 61607: a4 = u64 [s1 + 208]\n 61611: i64 a2 = a2 + a4\n 61614: a5 = a5 <<64 32\n 61617: a5 = a5 | a3\n 61620: a3 = a2 <u a4\n 61623: a4 = u64 [s1 + 216]\n 61627: i64 a3 = a3 + a4\n 61630: a4 = reverse a5\n 61632: a5 = reverse t2\n 61634: t2 = reverse t1\n 61636: t0 = reverse t0\n 61638: i64 sp = i64 sp - i64 8\n 61641: u64 [sp] = t0\n 61643: ra = 788, jump @1084\n      : @1200 [@dyn 394] (gas: 4)\n 61649: i64 sp = i64 sp + 0x8\n 61652: a1 = 0x20\n 61655: a0 = u64 [s1 + 152]\n 61659: ra = 790, jump @0\n      : @1201 [@dyn 395] (gas: 1)\n 61666: jump @1216 if a0 == 0\n      : @1202 (gas: 159)\n 61670: a0 = u64 [s1 + 192]\n 61674: i64 a2 = i64 a0 + 0x2\n 61677: a1 = a2 <u a0\n 61680: ra = a2\n 61682: u64 [s1 + 128] = a2\n 61686: a0 = u64 [s1 + 200]\n 61690: i64 t0 = a0 + a1\n 61693: t2 = t0 <u a0\n 61696: u64 [s1 + 120] = t0\n 61699: t2 = a1 if a1 == 0\n 61702: a0 = u64 [s1 + 72]\n 61705: a1 = u8 [a0 + 1]\n 61708: a2 = u8 [a0]\n 61710: a3 = u8 [a0 + 2]\n 61713: a4 = u8 [a0 + 3]\n 61716: a1 = a1 <<64 8\n 61719: a1 = a1 | a2\n 61722: a3 = a3 <<64 16\n 61725: a4 = a4 <<64 24\n 61728: a3 = a3 | a4\n 61731: a1 = a1 | a3\n 61734: a2 = u8 [a0 + 5]\n 61737: a3 = u8 [a0 + 4]\n 61740: a4 = u8 [a0 + 6]\n 61743: a5 = u8 [a0 + 7]\n 61746: a2 = a2 <<64 8\n 61749: a2 = a2 | a3\n 61752: a4 = a4 <<64 16\n 61755: a5 = a5 <<64 24\n 61758: a4 = a4 | a5\n 61761: a2 = a2 | a4\n 61764: a2 = a2 <<64 32\n 61767: a1 = a1 | a2\n 61770: u64 [s1 + 184] = a1\n 61774: a2 = u8 [a0 + 9]\n 61777: a3 = u8 [a0 + 8]\n 61780: a4 = u8 [a0 + 10]\n 61783: a5 = u8 [a0 + 11]\n 61786: a2 = a2 <<64 8\n 61789: a2 = a2 | a3\n 61792: a4 = a4 <<64 16\n 61795: a5 = a5 <<64 24\n 61798: a4 = a4 | a5\n 61801: a2 = a2 | a4\n 61804: a3 = u8 [a0 + 13]\n 61807: a4 = u8 [a0 + 12]\n 61810: a5 = u8 [a0 + 14]\n 61813: a1 = u8 [a0 + 15]\n 61816: a3 = a3 <<64 8\n 61819: a3 = a3 | a4\n 61822: a5 = a5 <<64 16\n 61825: a1 = a1 <<64 24\n 61828: a1 = a1 | a5\n 61831: a1 = a1 | a3\n 61834: a1 = a1 <<64 32\n 61837: t1 = a1 | a2\n 61840: a1 = u8 [a0 + 17]\n 61843: a3 = u8 [a0 + 16]\n 61846: a4 = u8 [a0 + 18]\n 61849: a5 = u8 [a0 + 19]\n 61852: a1 = a1 <<64 8\n 61855: a1 = a1 | a3\n 61858: a4 = a4 <<64 16\n 61861: a5 = a5 <<64 24\n 61864: a4 = a4 | a5\n 61867: a1 = a1 | a4\n 61870: a3 = u8 [a0 + 21]\n 61873: a4 = u8 [a0 + 20]\n 61876: a5 = u8 [a0 + 22]\n 61879: a2 = u8 [a0 + 23]\n 61882: a3 = a3 <<64 8\n 61885: a3 = a3 | a4\n 61888: a5 = a5 <<64 16\n 61891: a2 = a2 <<64 24\n 61894: a2 = a2 | a5\n 61897: a2 = a2 | a3\n 61900: a2 = a2 <<64 32\n 61903: a3 = a2 | a1\n 61906: a1 = u8 [a0 + 25]\n 61909: a2 = u8 [a0 + 24]\n 61912: a4 = u8 [a0 + 26]\n 61915: a5 = u8 [a0 + 27]\n 61918: a1 = a1 <<64 8\n 61921: a1 = a1 | a2\n 61924: a4 = a4 <<64 16\n 61927: a5 = a5 <<64 24\n 61930: a4 = a4 | a5\n 61933: a1 = a1 | a4\n 61936: a2 = u8 [a0 + 29]\n 61939: a4 = u8 [a0 + 28]\n 61942: a5 = u8 [a0 + 30]\n 61945: a0 = u8 [a0 + 31]\n 61948: a2 = a2 <<64 8\n 61951: a2 = a2 | a4\n 61954: a5 = a5 <<64 16\n 61957: a0 = a0 <<64 24\n 61960: a0 = a0 | a5\n 61963: a4 = u64 [s1 + 208]\n 61967: i64 t2 = t2 + a4\n 61970: u64 [s1 + 112] = t2\n 61973: a0 = a0 | a2\n 61976: a2 = t2 <u a4\n 61979: a4 = u64 [s1 + 216]\n 61983: i64 a2 = a2 + a4\n 61986: u64 [s1 + 96] = a2\n 61989: a0 = a0 <<64 32\n 61992: a0 = a0 | a1\n 61995: a0 = reverse a0\n 61997: u64 [s1 + 160] = a0\n 62001: a0 = reverse a3\n 62003: u64 [s1 + 152] = a0\n 62007: a0 = reverse t1\n 62009: u64 [s1 + 136] = a0\n 62013: a0 = u64 [s1 + 184]\n 62017: a0 = reverse a0\n 62019: u64 [s1 + 184] = a0\n 62023: u64 [s1 + 648] = t0\n 62027: u64 [s1 + 640] = ra\n 62031: u64 [s1 + 656] = t2\n 62035: u64 [s1 + 664] = a2\n 62039: u64 [s1 + 632] = 0\n 62043: u64 [s1 + 624] = 0\n 62047: u64 [s1 + 616] = 0\n 62051: u64 [s1 + 608] = 0\n 62055: u64 [s1 + 592] = 0\n 62059: u64 [s1 + 600] = 0\n 62063: u64 [s1 + 584] = 0\n 62067: u64 [s1 + 576] = 256\n 62073: a1 = s1 + 0x280\n 62077: a3 = s1 + 0x260\n 62081: a4 = s1 + 0x240\n 62085: a2 = 0xffffffff\n 62088: a0 = 0x0\n 62090: ecalli 5 // 'get_storage'\n 62092: a0 = u64 [s1 + 96]\n 62095: u64 [s1 + 696] = a0\n 62099: a0 = u64 [s1 + 112]\n 62102: u64 [s1 + 688] = a0\n 62106: a0 = u64 [s1 + 120]\n 62109: u64 [s1 + 680] = a0\n 62113: a0 = u64 [s1 + 128]\n 62117: u64 [s1 + 672] = a0\n 62121: a0 = u64 [s1 + 184]\n 62125: u64 [s1 + 568] = a0\n 62129: a0 = u64 [s1 + 136]\n 62133: u64 [s1 + 560] = a0\n 62137: a0 = u64 [s1 + 152]\n 62141: u64 [s1 + 552] = a0\n 62145: a0 = u64 [s1 + 160]\n 62149: u64 [s1 + 544] = a0\n 62153: a1 = s1 + 0x2a0\n 62157: a3 = s1 + 0x220\n 62161: a2 = 0xffffffff\n 62164: a4 = 0x20\n 62167: a0 = 0x0\n 62169: ecalli 13 // 'set_storage'\n 62171: a1 = 0x20\n 62174: a0 = u64 [s1 + 144]\n 62178: ra = 792, jump @0\n      : @1203 [@dyn 396] (gas: 1)\n 62185: jump @1216 if a0 == 0\n      : @1204 (gas: 159)\n 62189: a0 = u64 [s1 + 192]\n 62193: i64 t0 = i64 a0 + 0x3\n 62196: a1 = t0 <u a0\n 62199: u64 [s1 + 136] = t0\n 62203: a0 = u64 [s1 + 200]\n 62207: i64 a2 = a0 + a1\n 62210: u64 [s1 + 184] = a2\n 62214: ra = a2 <u a0\n 62217: ra = a1 if a1 == 0\n 62220: a0 = u64 [s1 + 168]\n 62224: a1 = u8 [a0 + 1]\n 62227: a2 = u8 [a0]\n 62229: a3 = u8 [a0 + 2]\n 62232: a4 = u8 [a0 + 3]\n 62235: a1 = a1 <<64 8\n 62238: a1 = a1 | a2\n 62241: a3 = a3 <<64 16\n 62244: a4 = a4 <<64 24\n 62247: a3 = a3 | a4\n 62250: a1 = a1 | a3\n 62253: a2 = u8 [a0 + 5]\n 62256: a3 = u8 [a0 + 4]\n 62259: a4 = u8 [a0 + 6]\n 62262: a5 = u8 [a0 + 7]\n 62265: a2 = a2 <<64 8\n 62268: a2 = a2 | a3\n 62271: a4 = a4 <<64 16\n 62274: a5 = a5 <<64 24\n 62277: a4 = a4 | a5\n 62280: a2 = a2 | a4\n 62283: a2 = a2 <<64 32\n 62286: a1 = a1 | a2\n 62289: u64 [s1 + 160] = a1\n 62293: a2 = u8 [a0 + 9]\n 62296: a3 = u8 [a0 + 8]\n 62299: a4 = u8 [a0 + 10]\n 62302: a5 = u8 [a0 + 11]\n 62305: a2 = a2 <<64 8\n 62308: a2 = a2 | a3\n 62311: a4 = a4 <<64 16\n 62314: a5 = a5 <<64 24\n 62317: a4 = a4 | a5\n 62320: a2 = a2 | a4\n 62323: a3 = u8 [a0 + 13]\n 62326: a4 = u8 [a0 + 12]\n 62329: a5 = u8 [a0 + 14]\n 62332: a1 = u8 [a0 + 15]\n 62335: a3 = a3 <<64 8\n 62338: a3 = a3 | a4\n 62341: a5 = a5 <<64 16\n 62344: a1 = a1 <<64 24\n 62347: a1 = a1 | a5\n 62350: a1 = a1 | a3\n 62353: a1 = a1 <<64 32\n 62356: t1 = a1 | a2\n 62359: a1 = u8 [a0 + 17]\n 62362: a3 = u8 [a0 + 16]\n 62365: a4 = u8 [a0 + 18]\n 62368: a5 = u8 [a0 + 19]\n 62371: a1 = a1 <<64 8\n 62374: a1 = a1 | a3\n 62377: a4 = a4 <<64 16\n 62380: a5 = a5 <<64 24\n 62383: a4 = a4 | a5\n 62386: a1 = a1 | a4\n 62389: a3 = u8 [a0 + 21]\n 62392: a4 = u8 [a0 + 20]\n 62395: a5 = u8 [a0 + 22]\n 62398: a2 = u8 [a0 + 23]\n 62401: a3 = a3 <<64 8\n 62404: a3 = a3 | a4\n 62407: a5 = a5 <<64 16\n 62410: a2 = a2 <<64 24\n 62413: a2 = a2 | a5\n 62416: a2 = a2 | a3\n 62419: a2 = a2 <<64 32\n 62422: t2 = a2 | a1\n 62425: a1 = u8 [a0 + 25]\n 62428: a2 = u8 [a0 + 24]\n 62431: a4 = u8 [a0 + 26]\n 62434: a5 = u8 [a0 + 27]\n 62437: a1 = a1 <<64 8\n 62440: a1 = a1 | a2\n 62443: a4 = a4 <<64 16\n 62446: a5 = a5 <<64 24\n 62449: a4 = a4 | a5\n 62452: a1 = a1 | a4\n 62455: a2 = u8 [a0 + 29]\n 62458: a4 = u8 [a0 + 28]\n 62461: a5 = u8 [a0 + 30]\n 62464: a3 = u8 [a0 + 31]\n 62467: a2 = a2 <<64 8\n 62470: a2 = a2 | a4\n 62473: a5 = a5 <<64 16\n 62476: a3 = a3 <<64 24\n 62479: a3 = a3 | a5\n 62482: a2 = a2 | a3\n 62485: a2 = a2 <<64 32\n 62488: a4 = a2 | a1\n 62491: a0 = u64 [s1 + 208]\n 62495: i64 ra = ra + a0\n 62498: u64 [s1 + 128] = ra\n 62502: u64 [s1 + 576] = 256\n 62508: a0 = ra <u a0\n 62511: a1 = u64 [s1 + 216]\n 62515: i64 a1 = a1 + a0\n 62518: u64 [s1 + 120] = a1\n 62521: a0 = reverse a4\n 62523: u64 [s1 + 168] = a0\n 62527: a0 = reverse t2\n 62529: u64 [s1 + 152] = a0\n 62533: a0 = reverse t1\n 62535: u64 [s1 + 144] = a0\n 62539: a0 = u64 [s1 + 160]\n 62543: a0 = reverse a0\n 62545: u64 [s1 + 160] = a0\n 62549: a0 = u64 [s1 + 184]\n 62553: u64 [s1 + 648] = a0\n 62557: u64 [s1 + 640] = t0\n 62561: u64 [s1 + 656] = ra\n 62565: u64 [s1 + 664] = a1\n 62569: u64 [s1 + 632] = 0\n 62573: u64 [s1 + 624] = 0\n 62577: u64 [s1 + 616] = 0\n 62581: u64 [s1 + 608] = 0\n 62585: u64 [s1 + 592] = 0\n 62589: u64 [s1 + 600] = 0\n 62593: u64 [s1 + 584] = 0\n 62597: a1 = s1 + 0x280\n 62601: a3 = s1 + 0x260\n 62605: a4 = s1 + 0x240\n 62609: a2 = 0xffffffff\n 62612: a0 = 0x0\n 62614: ecalli 5 // 'get_storage'\n 62616: a0 = u64 [s1 + 120]\n 62619: u64 [s1 + 696] = a0\n 62623: a0 = u64 [s1 + 128]\n 62627: u64 [s1 + 688] = a0\n 62631: a0 = u64 [s1 + 184]\n 62635: u64 [s1 + 680] = a0\n 62639: a0 = u64 [s1 + 136]\n 62643: u64 [s1 + 672] = a0\n 62647: a0 = u64 [s1 + 160]\n 62651: u64 [s1 + 568] = a0\n 62655: a0 = u64 [s1 + 144]\n 62659: u64 [s1 + 560] = a0\n 62663: a0 = u64 [s1 + 152]\n 62667: u64 [s1 + 552] = a0\n 62671: a0 = u64 [s1 + 168]\n 62675: u64 [s1 + 544] = a0\n 62679: a1 = s1 + 0x2a0\n 62683: a3 = s1 + 0x220\n 62687: a2 = 0xffffffff\n 62690: a4 = 0x20\n 62693: a0 = 0x0\n 62695: ecalli 13 // 'set_storage'\n 62697: a1 = 0x20\n 62700: a0 = u64 [s1 + 176]\n 62704: ra = 794, jump @0\n      : @1205 [@dyn 397] (gas: 1)\n 62711: jump @1216 if a0 == 0\n      : @1206 (gas: 164)\n 62715: a0 = u64 [s1 + 192]\n 62719: i64 a1 = i64 a0 + 0x4\n 62722: a0 = a1 <u a0\n 62725: ra = a1\n 62727: u64 [s1 + 168] = a1\n 62731: a1 = u64 [s1 + 200]\n 62735: i64 t0 = a1 + a0\n 62738: a1 = t0 <u a1\n 62741: u64 [s1 + 160] = t0\n 62745: a1 = a0 if a0 == 0\n 62748: a0 = u64 [s1 + 208]\n 62752: i64 a1 = a1 + a0\n 62755: u64 [s1 + 200] = a1\n 62759: a0 = a1 <u a0\n 62762: a1 = u64 [s1 + 216]\n 62766: i64 a0 = a0 + a1\n 62769: u64 [s1 + 216] = a0\n 62773: t2 = u64 [s1 + 104]\n 62776: a0 = u8 [t2 + 1]\n 62779: a1 = u8 [t2]\n 62781: a2 = u8 [t2 + 2]\n 62784: a3 = u8 [t2 + 3]\n 62787: a0 = a0 <<64 8\n 62790: a0 = a0 | a1\n 62793: a2 = a2 <<64 16\n 62796: a3 = a3 <<64 24\n 62799: a2 = a2 | a3\n 62802: a0 = a0 | a2\n 62805: a1 = u8 [t2 + 5]\n 62808: a2 = u8 [t2 + 4]\n 62811: a3 = u8 [t2 + 6]\n 62814: a4 = u8 [t2 + 7]\n 62817: a1 = a1 <<64 8\n 62820: a1 = a1 | a2\n 62823: a3 = a3 <<64 16\n 62826: a4 = a4 <<64 24\n 62829: a3 = a3 | a4\n 62832: a1 = a1 | a3\n 62835: a1 = a1 <<64 32\n 62838: a0 = a0 | a1\n 62841: u64 [s1 + 208] = a0\n 62845: a1 = u8 [t2 + 9]\n 62848: a2 = u8 [t2 + 8]\n 62851: a3 = u8 [t2 + 10]\n 62854: a4 = u8 [t2 + 11]\n 62857: a1 = a1 <<64 8\n 62860: a1 = a1 | a2\n 62863: a3 = a3 <<64 16\n 62866: a4 = a4 <<64 24\n 62869: a3 = a3 | a4\n 62872: a1 = a1 | a3\n 62875: a2 = u8 [t2 + 13]\n 62878: a3 = u8 [t2 + 12]\n 62881: a4 = u8 [t2 + 14]\n 62884: a5 = u8 [t2 + 15]\n 62887: a2 = a2 <<64 8\n 62890: a2 = a2 | a3\n 62893: a4 = a4 <<64 16\n 62896: a5 = a5 <<64 24\n 62899: a4 = a4 | a5\n 62902: a2 = a2 | a4\n 62905: a2 = a2 <<64 32\n 62908: t1 = a2 | a1\n 62911: a2 = u8 [t2 + 17]\n 62914: a3 = u8 [t2 + 16]\n 62917: a4 = u8 [t2 + 18]\n 62920: a5 = u8 [t2 + 19]\n 62923: a2 = a2 <<64 8\n 62926: a2 = a2 | a3\n 62929: a4 = a4 <<64 16\n 62932: a5 = a5 <<64 24\n 62935: a4 = a4 | a5\n 62938: a2 = a2 | a4\n 62941: a3 = u8 [t2 + 21]\n 62944: a4 = u8 [t2 + 20]\n 62947: a5 = u8 [t2 + 22]\n 62950: a0 = u8 [t2 + 23]\n 62953: a3 = a3 <<64 8\n 62956: a3 = a3 | a4\n 62959: a5 = a5 <<64 16\n 62962: a0 = a0 <<64 24\n 62965: a0 = a0 | a5\n 62968: a0 = a0 | a3\n 62971: a0 = a0 <<64 32\n 62974: a2 = a2 | a0\n 62977: a0 = u8 [t2 + 25]\n 62980: a3 = u8 [t2 + 24]\n 62983: a4 = u8 [t2 + 26]\n 62986: a5 = u8 [t2 + 27]\n 62989: a0 = a0 <<64 8\n 62992: a0 = a0 | a3\n 62995: a4 = a4 <<64 16\n 62998: a5 = a5 <<64 24\n 63001: a4 = a4 | a5\n 63004: a0 = a0 | a4\n 63007: a3 = u8 [t2 + 29]\n 63010: a4 = u8 [t2 + 28]\n 63013: a5 = u8 [t2 + 30]\n 63016: a1 = u8 [t2 + 31]\n 63019: a3 = a3 <<64 8\n 63022: a3 = a3 | a4\n 63025: a5 = a5 <<64 16\n 63028: a1 = a1 <<64 24\n 63031: a1 = a1 | a5\n 63034: a1 = a1 | a3\n 63037: a1 = a1 <<64 32\n 63040: a0 = a0 | a1\n 63043: u64 [s1 + 576] = 256\n 63049: a0 = reverse a0\n 63051: u64 [s1 + 192] = a0\n 63055: a0 = reverse a2\n 63057: u64 [s1 + 184] = a0\n 63061: a0 = reverse t1\n 63063: u64 [s1 + 176] = a0\n 63067: a0 = u64 [s1 + 208]\n 63071: a0 = reverse a0\n 63073: u64 [s1 + 208] = a0\n 63077: u64 [s1 + 648] = t0\n 63081: u64 [s1 + 640] = ra\n 63085: a0 = u64 [s1 + 200]\n 63089: u64 [s1 + 656] = a0\n 63093: a0 = u64 [s1 + 216]\n 63097: u64 [s1 + 664] = a0\n 63101: u64 [s1 + 632] = 0\n 63105: u64 [s1 + 624] = 0\n 63109: u64 [s1 + 616] = 0\n 63113: u64 [s1 + 608] = 0\n 63117: u64 [s1 + 592] = 0\n 63121: u64 [s1 + 600] = 0\n 63125: u64 [s1 + 584] = 0\n 63129: a1 = s1 + 0x280\n 63133: a3 = s1 + 0x260\n 63137: a4 = s1 + 0x240\n 63141: a2 = 0xffffffff\n 63144: a0 = 0x0\n 63146: ecalli 5 // 'get_storage'\n 63148: a0 = u64 [s1 + 216]\n 63152: u64 [s1 + 696] = a0\n 63156: a0 = u64 [s1 + 200]\n 63160: u64 [s1 + 688] = a0\n 63164: a0 = u64 [s1 + 160]\n 63168: u64 [s1 + 680] = a0\n 63172: a0 = u64 [s1 + 168]\n 63176: u64 [s1 + 672] = a0\n 63180: a0 = u64 [s1 + 208]\n 63184: u64 [s1 + 568] = a0\n 63188: a0 = u64 [s1 + 176]\n 63192: u64 [s1 + 560] = a0\n 63196: a0 = u64 [s1 + 184]\n 63200: u64 [s1 + 552] = a0\n 63204: a0 = u64 [s1 + 192]\n 63208: u64 [s1 + 544] = a0\n 63212: a1 = s1 + 0x2a0\n 63216: a3 = s1 + 0x220\n 63220: a2 = 0xffffffff\n 63223: a4 = 0x20\n 63226: a0 = 0x0\n 63228: ecalli 13 // 'set_storage'\n 63230: i64 sp = i64 s0 - i64 736\n 63234: ra = u64 [sp + 728]\n 63238: s0 = u64 [sp + 720]\n 63242: s1 = u64 [sp + 712]\n 63246: i64 sp = i64 sp + 0x2e0\n 63250: ret\n      : @1207 (gas: 3)\n 63252: a0 = 0x40\n 63255: a1 = 0x20\n 63258: ra = 796, jump @0\n      : @1208 [@dyn 398] (gas: 1)\n 63265: jump @1216 if a0 == 0\n      : @1209 (gas: 21)\n 63269: a3 = u64 [s1 + 216]\n 63273: a0 = u64 [a3 + 72]\n 63276: a1 = u64 [a3 + 64]\n 63279: a2 = u64 [a3 + 80]\n 63282: a3 = u64 [a3 + 88]\n 63285: a4 = reverse a0\n 63287: a5 = reverse a1\n 63289: a0 = reverse a2\n 63291: a1 = reverse a3\n 63293: u64 [s1 + 200] = a0\n 63297: u64 [s1 + 184] = a5\n 63301: a0 = a0 | a5\n 63304: u64 [s1 + 208] = a1\n 63308: a1 = a1 | a4\n 63311: a1 = a1 | a0\n 63314: a1 = a1 >>64 32\n 63317: u64 [s1 + 192] = a4\n 63321: a0 = a0 | a4\n 63324: a0 = a0 <<64 32\n 63327: a0 = a0 | a1\n 63330: jump @1216 if a0 != 0\n      : @1210 (gas: 4)\n 63334: a0 = i32 [s1 + 208]\n 63338: a1 = 0x20\n 63341: u64 [s1 + 176] = a0\n 63345: ra = 798, jump @0\n      : @1211 [@dyn 399] (gas: 1)\n 63352: jump @1216 if a0 == 0\n      : @1212 (gas: 50)\n 63356: a0 = u64 [s1 + 216]\n 63360: a1 = u64 [s1 + 176]\n 63364: i64 a1 = a1 + a0\n 63367: u8 [a1 + 31] = 0\n 63370: u8 [a1 + 30] = 0\n 63373: u8 [a1 + 29] = 0\n 63376: u8 [a1 + 28] = 0\n 63379: u8 [a1 + 27] = 0\n 63382: u8 [a1 + 26] = 0\n 63385: u8 [a1 + 25] = 0\n 63388: u8 [a1 + 24] = 0\n 63391: u8 [a1 + 23] = 0\n 63394: u8 [a1 + 22] = 0\n 63397: u8 [a1 + 21] = 0\n 63400: u8 [a1 + 20] = 0\n 63403: u8 [a1 + 19] = 0\n 63406: u8 [a1 + 18] = 0\n 63409: u8 [a1 + 17] = 0\n 63412: u8 [a1 + 16] = 0\n 63415: u8 [a1 + 15] = 0\n 63418: u8 [a1 + 14] = 0\n 63421: u8 [a1 + 13] = 0\n 63424: u8 [a1 + 12] = 0\n 63427: u8 [a1 + 11] = 0\n 63430: u8 [a1 + 10] = 0\n 63433: u8 [a1 + 9] = 0\n 63436: u8 [a1 + 8] = 0\n 63439: u8 [a1 + 7] = 0\n 63442: u8 [a1 + 6] = 0\n 63445: u8 [a1 + 5] = 0\n 63448: u8 [a1 + 4] = 0\n 63451: u8 [a1 + 3] = 160\n 63456: u8 [a1 + 2] = 121\n 63460: u8 [a1 + 1] = 195\n 63465: u64 [s1 + 216] = a1\n 63469: u8 [a1 + 0] = 8\n 63472: a0 = u64 [s1 + 208]\n 63476: i64 a1 = i64 a0 + 0x4\n 63479: a0 = a1 <u a0\n 63482: a3 = u64 [s1 + 200]\n 63486: i64 a2 = a3 + a0\n 63489: a3 = a2 <u a3\n 63492: a3 = a0 if a0 == 0\n 63495: a0 = u64 [s1 + 192]\n 63499: i64 a3 = a3 + a0\n 63502: a4 = a3 <u a0\n 63505: a0 = u64 [s1 + 184]\n 63509: i64 a4 = a4 + a0\n 63512: i64 a0 = i64 s1 + 0xe0\n 63516: ra = 800, jump @1073\n      : @1213 [@dyn 400] (gas: 31)\n 63522: a1 = u64 [s1 + 232]\n 63526: t0 = u64 [s1 + 248]\n 63530: t1 = u64 [s1 + 224]\n 63534: a3 = u64 [s1 + 240]\n 63538: a0 = u64 [s1 + 200]\n 63542: a4 = a1 ^ a0\n 63545: a5 = a1 <u a0\n 63548: ra = a0\n 63550: t2 = u64 [s1 + 208]\n 63554: a2 = t1 <u t2\n 63557: a5 = a2 if a4 == 0\n 63560: a0 = u64 [s1 + 192]\n 63564: i64 a4 = i64 a3 - i64 a0\n 63567: a3 = a3 <u a0\n 63570: a0 = u64 [s1 + 184]\n 63574: i64 a0 = i64 t0 - i64 a0\n 63577: i64 a0 = i64 a0 - i64 a3\n 63580: a3 = a4 <u a5\n 63583: i64 a0 = i64 a0 - i64 a3\n 63586: i64 a4 = i64 a4 - i64 a5\n 63589: i64 a1 = i64 a1 - i64 ra\n 63592: i64 a1 = i64 a1 - i64 a2\n 63595: a0 = a0 | a1\n 63598: i64 a1 = i64 t1 - i64 t2\n 63601: a1 = a1 | a4\n 63604: a1 = a1 | a0\n 63607: a0 = a0 | a4\n 63610: a1 = a1 >>64 32\n 63613: a0 = a0 <<64 32\n 63616: a0 = a0 | a1\n 63619: jump @1216 if a0 != 0\n      : @1214 (gas: 5)\n 63622: a0 = u64 [s1 + 208]\n 63626: a1 = t1 - a0\n 63629: a0 = u64 [s1 + 176]\n 63633: u64 [s1 + 208] = a1\n 63637: ra = 802, jump @0\n      : @1215 [@dyn 401] (gas: 1)\n 63644: jump @1217 if a0 != 0\n      : @1216 (gas: 1)\n 63647: trap\n      : @1217 (gas: 6)\n 63648: a1 = i32 [s1 + 216]\n 63652: a0 = 0x1\n 63655: a2 = u64 [s1 + 208]\n 63659: ra = 0x324\n 63663: ecalli 11 // 'seal_return'\n 63665: fallthrough\n      : @1218 [@dyn 402] (gas: 17)\n 63666: i64 sp = i64 sp - i64 96\n 63669: u64 [sp + 88] = ra\n 63672: u64 [sp + 80] = s0\n 63675: u64 [sp + 72] = s1\n 63678: s1 = a4\n 63680: a4 = a1\n 63682: u64 [sp + 64] = a2\n 63685: a1 = a2 | s1\n 63688: a2 = a4 | a3\n 63691: a2 = a2 | a1\n 63694: a2 = a2 >>64 32\n 63697: u64 [sp + 48] = a3\n 63700: a1 = a1 | a3\n 63703: a1 = a1 <<64 32\n 63706: a1 = a1 | a2\n 63709: u64 [sp + 32] = a0\n 63712: jump @1228 if a1 != 0\n      : @1219 (gas: 5)\n 63716: s0 = a4 + 0x0\n 63718: a1 = 0x20\n 63721: a0 = s0\n 63723: u64 [sp + 56] = a4\n 63726: ra = 806, jump @0\n      : @1220 [@dyn 403] (gas: 1)\n 63733: jump @1228 if a0 == 0\n      : @1221 (gas: 52)\n 63737: a0 = 0x20050\n 63742: u64 [sp + 40] = a0\n 63745: i64 a0 = a0 + s0\n 63748: u8 [a0 + 31] = 32\n 63752: u8 [a0 + 30] = 0\n 63755: u8 [a0 + 29] = 0\n 63758: u8 [a0 + 28] = 0\n 63761: u8 [a0 + 27] = 0\n 63764: u8 [a0 + 26] = 0\n 63767: u8 [a0 + 25] = 0\n 63770: u8 [a0 + 24] = 0\n 63773: u8 [a0 + 23] = 0\n 63776: u8 [a0 + 22] = 0\n 63779: u8 [a0 + 21] = 0\n 63782: u8 [a0 + 20] = 0\n 63785: u8 [a0 + 19] = 0\n 63788: u8 [a0 + 18] = 0\n 63791: u8 [a0 + 17] = 0\n 63794: u8 [a0 + 16] = 0\n 63797: u8 [a0 + 15] = 0\n 63800: u8 [a0 + 14] = 0\n 63803: u8 [a0 + 13] = 0\n 63806: u8 [a0 + 12] = 0\n 63809: u8 [a0 + 11] = 0\n 63812: u8 [a0 + 10] = 0\n 63815: u8 [a0 + 9] = 0\n 63818: u8 [a0 + 8] = 0\n 63821: u8 [a0 + 7] = 0\n 63824: u8 [a0 + 6] = 0\n 63827: u8 [a0 + 5] = 0\n 63830: u8 [a0 + 4] = 0\n 63833: u8 [a0 + 3] = 0\n 63836: u8 [a0 + 2] = 0\n 63839: u8 [a0 + 1] = 0\n 63842: a3 = u64 [sp + 48]\n 63845: a1 = a3 >u 0x0\n 63847: a2 = s1\n 63849: s1 = s1 >u 0x0\n 63851: s1 = a1 if a2 == 0\n 63854: a1 = 0xffffffdf\n 63864: a4 = u64 [sp + 56]\n 63867: a1 = a1 <u a4\n 63870: a4 = u64 [sp + 64]\n 63873: a5 = a4 >u 0x0\n 63875: u64 [sp + 24] = a5\n 63878: a1 = a5 if a4 != 0\n 63881: u64 [sp + 8] = a2\n 63884: a2 = a2 | a3\n 63887: u64 [sp + 16] = a2\n 63890: a1 = s1 if a2 != 0\n 63893: u8 [a0 + 0] = 0\n 63895: jump @1228 if a1 != 0\n      : @1222 (gas: 5)\n 63899: u64 [sp] = s0\n 63901: s0 = s0 + 0x20\n 63904: a1 = 0x20\n 63907: a0 = s0\n 63909: ra = 808, jump @0\n      : @1223 [@dyn 404] (gas: 1)\n 63916: jump @1228 if a0 == 0\n      : @1224 (gas: 43)\n 63920: a0 = u64 [sp + 40]\n 63923: i64 s0 = s0 + a0\n 63926: u8 [s0 + 31] = 23\n 63930: u8 [s0 + 30] = 0\n 63933: u8 [s0 + 29] = 0\n 63936: u8 [s0 + 28] = 0\n 63939: u8 [s0 + 27] = 0\n 63942: u8 [s0 + 26] = 0\n 63945: u8 [s0 + 25] = 0\n 63948: u8 [s0 + 24] = 0\n 63951: u8 [s0 + 23] = 0\n 63954: u8 [s0 + 22] = 0\n 63957: u8 [s0 + 21] = 0\n 63960: u8 [s0 + 20] = 0\n 63963: u8 [s0 + 19] = 0\n 63966: u8 [s0 + 18] = 0\n 63969: u8 [s0 + 17] = 0\n 63972: u8 [s0 + 16] = 0\n 63975: u8 [s0 + 15] = 0\n 63978: u8 [s0 + 14] = 0\n 63981: u8 [s0 + 13] = 0\n 63984: u8 [s0 + 12] = 0\n 63987: u8 [s0 + 11] = 0\n 63990: u8 [s0 + 10] = 0\n 63993: u8 [s0 + 9] = 0\n 63996: u8 [s0 + 8] = 0\n 63999: u8 [s0 + 7] = 0\n 64002: u8 [s0 + 6] = 0\n 64005: u8 [s0 + 5] = 0\n 64008: u8 [s0 + 4] = 0\n 64011: u8 [s0 + 3] = 0\n 64014: u8 [s0 + 2] = 0\n 64017: u8 [s0 + 1] = 0\n 64020: a0 = 0xffffffbf\n 64030: a1 = u64 [sp + 56]\n 64033: a0 = a0 <u a1\n 64036: a1 = u64 [sp + 64]\n 64039: a2 = u64 [sp + 24]\n 64042: a0 = a2 if a1 != 0\n 64045: a1 = u64 [sp + 16]\n 64048: a0 = s1 if a1 != 0\n 64051: u8 [s0 + 0] = 0\n 64053: jump @1228 if a0 != 0\n      : @1225 (gas: 6)\n 64057: a0 = u64 [sp]\n 64059: s1 = a0 + 0x40\n 64062: a1 = 0x20\n 64065: s0 = 0x20\n 64068: a0 = s1\n 64070: ra = 810, jump @0\n      : @1226 [@dyn 405] (gas: 1)\n 64077: jump @1228 if a0 == 0\n      : @1227 (gas: 56)\n 64081: a0 = u64 [sp + 40]\n 64084: i64 s1 = s1 + a0\n 64087: u8 [s1 + 31] = 0\n 64090: u8 [s1 + 30] = 0\n 64093: u8 [s1 + 29] = 0\n 64096: u8 [s1 + 28] = 0\n 64099: u8 [s1 + 27] = 0\n 64102: u8 [s1 + 26] = 0\n 64105: u8 [s1 + 25] = 0\n 64108: u8 [s1 + 24] = 0\n 64111: u8 [s1 + 23] = 0\n 64114: u8 [s1 + 22] = 100\n 64118: u8 [s1 + 21] = 101\n 64122: u8 [s1 + 20] = 100\n 64126: u8 [s1 + 19] = 110\n 64130: u8 [s1 + 18] = 101\n 64134: u8 [s1 + 17] = s0\n 64137: u8 [s1 + 16] = 115\n 64141: u8 [s1 + 15] = 97\n 64145: u8 [s1 + 14] = 104\n 64149: u8 [s1 + 13] = s0\n 64152: u8 [s1 + 12] = 100\n 64156: u8 [s1 + 11] = 111\n 64160: u8 [s1 + 10] = 105\n 64164: u8 [s1 + 9] = 114\n 64168: u8 [s1 + 8] = 101\n 64172: u8 [s1 + 7] = 112\n 64176: u8 [s1 + 6] = s0\n 64179: u8 [s1 + 5] = 103\n 64183: u8 [s1 + 4] = 110\n 64187: u8 [s1 + 3] = 105\n 64191: u8 [s1 + 2] = 116\n 64195: u8 [s1 + 1] = 111\n 64199: u8 [s1 + 0] = 86\n 64202: a1 = u64 [sp + 56]\n 64205: i64 a0 = i64 a1 + 0x60\n 64208: a1 = a0 <u a1\n 64211: a3 = u64 [sp + 64]\n 64214: i64 a2 = a3 + a1\n 64217: a3 = a2 <u a3\n 64220: a3 = a1 if a1 == 0\n 64223: a1 = u64 [sp + 48]\n 64226: i64 a3 = a3 + a1\n 64229: a1 = a3 <u a1\n 64232: a4 = u64 [sp + 8]\n 64235: i64 a1 = a1 + a4\n 64238: a4 = u64 [sp + 32]\n 64241: u64 [a4] = a0\n 64243: u64 [a4 + 8] = a2\n 64246: u64 [a4 + 16] = a3\n 64249: u64 [a4 + 24] = a1\n 64252: ra = u64 [sp + 88]\n 64255: s0 = u64 [sp + 80]\n 64258: s1 = u64 [sp + 72]\n 64261: i64 sp = i64 sp + 0x60\n 64264: ret\n      : @1228 (gas: 1)\n 64266: trap\n      : @1229 (gas: 17)\n 64267: i64 sp = i64 sp - i64 96\n 64270: u64 [sp + 88] = ra\n 64273: u64 [sp + 80] = s0\n 64276: u64 [sp + 72] = s1\n 64279: s1 = a4\n 64281: a4 = a1\n 64283: u64 [sp + 64] = a2\n 64286: a1 = a2 | s1\n 64289: a2 = a4 | a3\n 64292: a2 = a2 | a1\n 64295: a2 = a2 >>64 32\n 64298: u64 [sp + 48] = a3\n 64301: a1 = a1 | a3\n 64304: a1 = a1 <<64 32\n 64307: a1 = a1 | a2\n 64310: u64 [sp + 32] = a0\n 64313: jump @1239 if a1 != 0\n      : @1230 (gas: 5)\n 64317: s0 = a4 + 0x0\n 64319: a1 = 0x20\n 64322: a0 = s0\n 64324: u64 [sp + 56] = a4\n 64327: ra = 812, jump @0\n      : @1231 [@dyn 406] (gas: 1)\n 64334: jump @1239 if a0 == 0\n      : @1232 (gas: 52)\n 64338: a0 = 0x20050\n 64343: u64 [sp + 40] = a0\n 64346: i64 a0 = a0 + s0\n 64349: u8 [a0 + 31] = 32\n 64353: u8 [a0 + 30] = 0\n 64356: u8 [a0 + 29] = 0\n 64359: u8 [a0 + 28] = 0\n 64362: u8 [a0 + 27] = 0\n 64365: u8 [a0 + 26] = 0\n 64368: u8 [a0 + 25] = 0\n 64371: u8 [a0 + 24] = 0\n 64374: u8 [a0 + 23] = 0\n 64377: u8 [a0 + 22] = 0\n 64380: u8 [a0 + 21] = 0\n 64383: u8 [a0 + 20] = 0\n 64386: u8 [a0 + 19] = 0\n 64389: u8 [a0 + 18] = 0\n 64392: u8 [a0 + 17] = 0\n 64395: u8 [a0 + 16] = 0\n 64398: u8 [a0 + 15] = 0\n 64401: u8 [a0 + 14] = 0\n 64404: u8 [a0 + 13] = 0\n 64407: u8 [a0 + 12] = 0\n 64410: u8 [a0 + 11] = 0\n 64413: u8 [a0 + 10] = 0\n 64416: u8 [a0 + 9] = 0\n 64419: u8 [a0 + 8] = 0\n 64422: u8 [a0 + 7] = 0\n 64425: u8 [a0 + 6] = 0\n 64428: u8 [a0 + 5] = 0\n 64431: u8 [a0 + 4] = 0\n 64434: u8 [a0 + 3] = 0\n 64437: u8 [a0 + 2] = 0\n 64440: u8 [a0 + 1] = 0\n 64443: a3 = u64 [sp + 48]\n 64446: a1 = a3 >u 0x0\n 64448: a2 = s1\n 64450: s1 = s1 >u 0x0\n 64452: s1 = a1 if a2 == 0\n 64455: a1 = 0xffffffdf\n 64465: a4 = u64 [sp + 56]\n 64468: a1 = a1 <u a4\n 64471: a4 = u64 [sp + 64]\n 64474: a5 = a4 >u 0x0\n 64476: u64 [sp + 24] = a5\n 64479: a1 = a5 if a4 != 0\n 64482: u64 [sp + 8] = a2\n 64485: a2 = a2 | a3\n 64488: u64 [sp + 16] = a2\n 64491: a1 = s1 if a2 != 0\n 64494: u8 [a0 + 0] = 0\n 64496: jump @1239 if a1 != 0\n      : @1233 (gas: 5)\n 64500: u64 [sp] = s0\n 64502: s0 = s0 + 0x20\n 64505: a1 = 0x20\n 64508: a0 = s0\n 64510: ra = 814, jump @0\n      : @1234 [@dyn 407] (gas: 1)\n 64517: jump @1239 if a0 == 0\n      : @1235 (gas: 43)\n 64521: a0 = u64 [sp + 40]\n 64524: i64 s0 = s0 + a0\n 64527: u8 [s0 + 31] = 18\n 64531: u8 [s0 + 30] = 0\n 64534: u8 [s0 + 29] = 0\n 64537: u8 [s0 + 28] = 0\n 64540: u8 [s0 + 27] = 0\n 64543: u8 [s0 + 26] = 0\n 64546: u8 [s0 + 25] = 0\n 64549: u8 [s0 + 24] = 0\n 64552: u8 [s0 + 23] = 0\n 64555: u8 [s0 + 22] = 0\n 64558: u8 [s0 + 21] = 0\n 64561: u8 [s0 + 20] = 0\n 64564: u8 [s0 + 19] = 0\n 64567: u8 [s0 + 18] = 0\n 64570: u8 [s0 + 17] = 0\n 64573: u8 [s0 + 16] = 0\n 64576: u8 [s0 + 15] = 0\n 64579: u8 [s0 + 14] = 0\n 64582: u8 [s0 + 13] = 0\n 64585: u8 [s0 + 12] = 0\n 64588: u8 [s0 + 11] = 0\n 64591: u8 [s0 + 10] = 0\n 64594: u8 [s0 + 9] = 0\n 64597: u8 [s0 + 8] = 0\n 64600: u8 [s0 + 7] = 0\n 64603: u8 [s0 + 6] = 0\n 64606: u8 [s0 + 5] = 0\n 64609: u8 [s0 + 4] = 0\n 64612: u8 [s0 + 3] = 0\n 64615: u8 [s0 + 2] = 0\n 64618: u8 [s0 + 1] = 0\n 64621: a0 = 0xffffffbf\n 64631: a1 = u64 [sp + 56]\n 64634: a0 = a0 <u a1\n 64637: a1 = u64 [sp + 64]\n 64640: a2 = u64 [sp + 24]\n 64643: a0 = a2 if a1 != 0\n 64646: a1 = u64 [sp + 16]\n 64649: a0 = s1 if a1 != 0\n 64652: u8 [s0 + 0] = 0\n 64654: jump @1239 if a0 != 0\n      : @1236 (gas: 6)\n 64658: a0 = u64 [sp]\n 64660: s1 = a0 + 0x40\n 64663: a1 = 0x20\n 64666: s0 = 0x20\n 64669: a0 = s1\n 64671: ra = 816, jump @0\n      : @1237 [@dyn 408] (gas: 1)\n 64678: jump @1239 if a0 == 0\n      : @1238 (gas: 56)\n 64682: a0 = u64 [sp + 40]\n 64685: i64 s1 = s1 + a0\n 64688: u8 [s1 + 31] = 0\n 64691: u8 [s1 + 30] = 0\n 64694: u8 [s1 + 29] = 0\n 64697: u8 [s1 + 28] = 0\n 64700: u8 [s1 + 27] = 0\n 64703: u8 [s1 + 26] = 0\n 64706: u8 [s1 + 25] = 0\n 64709: u8 [s1 + 24] = 0\n 64712: u8 [s1 + 23] = 0\n 64715: u8 [s1 + 22] = 0\n 64718: u8 [s1 + 21] = 0\n 64721: u8 [s1 + 20] = 0\n 64724: u8 [s1 + 19] = 0\n 64727: u8 [s1 + 18] = 0\n 64730: u8 [s1 + 17] = 101\n 64734: u8 [s1 + 16] = 101\n 64738: u8 [s1 + 15] = 102\n 64742: u8 [s1 + 14] = s0\n 64745: u8 [s1 + 13] = 101\n 64749: u8 [s1 + 12] = 116\n 64753: u8 [s1 + 11] = 111\n 64757: u8 [s1 + 10] = 118\n 64761: u8 [s1 + 9] = s0\n 64764: u8 [s1 + 8] = 116\n 64768: u8 [s1 + 7] = 99\n 64772: u8 [s1 + 6] = 101\n 64776: u8 [s1 + 5] = 114\n 64780: u8 [s1 + 4] = 114\n 64784: u8 [s1 + 3] = 111\n 64788: u8 [s1 + 2] = 99\n 64792: u8 [s1 + 1] = 110\n 64796: u8 [s1 + 0] = 73\n 64799: a1 = u64 [sp + 56]\n 64802: i64 a0 = i64 a1 + 0x60\n 64805: a1 = a0 <u a1\n 64808: a3 = u64 [sp + 64]\n 64811: i64 a2 = a3 + a1\n 64814: a3 = a2 <u a3\n 64817: a3 = a1 if a1 == 0\n 64820: a1 = u64 [sp + 48]\n 64823: i64 a3 = a3 + a1\n 64826: a1 = a3 <u a1\n 64829: a4 = u64 [sp + 8]\n 64832: i64 a1 = a1 + a4\n 64835: a4 = u64 [sp + 32]\n 64838: u64 [a4] = a0\n 64840: u64 [a4 + 8] = a2\n 64843: u64 [a4 + 16] = a3\n 64846: u64 [a4 + 24] = a1\n 64849: ra = u64 [sp + 88]\n 64852: s0 = u64 [sp + 80]\n 64855: s1 = u64 [sp + 72]\n 64858: i64 sp = i64 sp + 0x60\n 64861: ret\n      : @1239 (gas: 1)\n 64863: trap\n      : @1240 [@dyn 409] (gas: 7)\n 64864: i64 sp = i64 sp + 0x10\n 64867: a4 = u64 [s1 + 344]\n 64871: a3 = u64 [s1 + 336]\n 64875: a2 = u64 [s1 + 328]\n 64879: a1 = u64 [s1 + 320]\n 64883: i64 a0 = i64 s1 + 0x120\n 64887: ra = 820, jump @1030\n      : @1241 [@dyn 410] (gas: 11)\n 64893: a0 = u64 [s1 + 312]\n 64897: u64 [s1 + 88] = a0\n 64900: a0 = u64 [s1 + 304]\n 64904: u64 [s1 + 80] = a0\n 64907: a0 = u64 [s1 + 296]\n 64911: u64 [s1 + 72] = a0\n 64914: a0 = u64 [s1 + 288]\n 64918: u64 [s1 + 64] = a0\n 64921: a0 = s1 + 0x160\n 64925: ecalli 8 // 'now'\n 64927: fallthrough\n      : @1242 (gas: 20)\n 64928: a4 = u64 [s1 + 64]\n 64931: i64 a0 = i64 a4 + 0xa0\n 64935: a1 = a0 <u a4\n 64938: a3 = u64 [s1 + 72]\n 64941: i64 a2 = a3 + a1\n 64944: a3 = a2 <u a3\n 64947: a3 = a1 if a1 == 0\n 64950: a1 = u64 [s1 + 80]\n 64953: i64 a3 = a3 + a1\n 64956: a1 = a3 <u a1\n 64959: a5 = u64 [s1 + 88]\n 64962: i64 a1 = a1 + a5\n 64965: a0 = a0 | a3\n 64968: a1 = a1 | a2\n 64971: a0 = a0 | a1\n 64974: a0 = a0 >>64 32\n 64977: a1 = a1 | a3\n 64980: a1 = a1 <<64 32\n 64983: a0 = a0 | a1\n 64986: jump @1281 if a0 != 0\n      : @1243 (gas: 12)\n 64990: a0 = u64 [s1 + 376]\n 64994: u64 [s1 + 80] = a0\n 64997: a0 = u64 [s1 + 368]\n 65001: u64 [s1 + 88] = a0\n 65004: a0 = u64 [s1 + 360]\n 65008: u64 [s1 + 56] = a0\n 65011: a0 = u64 [s1 + 352]\n 65015: u64 [s1 + 72] = a0\n 65018: a0 = a4 + 0xa0\n 65022: a1 = 0x20\n 65025: u64 [s1 + 64] = a0\n 65028: ra = 822, jump @0\n      : @1244 [@dyn 411] (gas: 1)\n 65035: jump @1281 if a0 == 0\n      : @1245 (gas: 112)\n 65039: a0 = 0x20050\n 65044: u64 [s1 + 24] = a0\n 65047: a1 = u64 [s1 + 64]\n 65050: i64 a0 = a0 + a1\n 65053: a1 = u8 [a0 + 1]\n 65056: a2 = u8 [a0]\n 65058: a3 = u8 [a0 + 2]\n 65061: a4 = u8 [a0 + 3]\n 65064: a1 = a1 <<64 8\n 65067: a1 = a1 | a2\n 65070: a3 = a3 <<64 16\n 65073: a4 = a4 <<64 24\n 65076: a3 = a3 | a4\n 65079: a1 = a1 | a3\n 65082: a2 = u8 [a0 + 5]\n 65085: a3 = u8 [a0 + 4]\n 65088: a4 = u8 [a0 + 6]\n 65091: a5 = u8 [a0 + 7]\n 65094: a2 = a2 <<64 8\n 65097: a2 = a2 | a3\n 65100: a4 = a4 <<64 16\n 65103: a5 = a5 <<64 24\n 65106: a4 = a4 | a5\n 65109: a2 = a2 | a4\n 65112: a2 = a2 <<64 32\n 65115: t0 = a2 | a1\n 65118: a2 = u8 [a0 + 9]\n 65121: a3 = u8 [a0 + 8]\n 65124: a4 = u8 [a0 + 10]\n 65127: a5 = u8 [a0 + 11]\n 65130: a2 = a2 <<64 8\n 65133: a2 = a2 | a3\n 65136: a4 = a4 <<64 16\n 65139: a5 = a5 <<64 24\n 65142: a4 = a4 | a5\n 65145: t1 = a4 | a2\n 65148: a3 = u8 [a0 + 17]\n 65151: a4 = u8 [a0 + 16]\n 65154: a5 = u8 [a0 + 18]\n 65157: a1 = u8 [a0 + 19]\n 65160: a3 = a3 <<64 8\n 65163: a3 = a3 | a4\n 65166: a5 = a5 <<64 16\n 65169: a1 = a1 <<64 24\n 65172: a1 = a1 | a5\n 65175: a1 = a1 | a3\n 65178: a3 = u8 [a0 + 21]\n 65181: a4 = u8 [a0 + 20]\n 65184: a5 = u8 [a0 + 22]\n 65187: a2 = u8 [a0 + 23]\n 65190: a3 = a3 <<64 8\n 65193: a3 = a3 | a4\n 65196: a5 = a5 <<64 16\n 65199: a2 = a2 <<64 24\n 65202: a2 = a2 | a5\n 65205: a2 = a2 | a3\n 65208: a2 = a2 <<64 32\n 65211: t2 = a2 | a1\n 65214: a1 = u8 [a0 + 25]\n 65217: a2 = u8 [a0 + 24]\n 65220: a4 = u8 [a0 + 26]\n 65223: a5 = u8 [a0 + 27]\n 65226: a1 = a1 <<64 8\n 65229: a1 = a1 | a2\n 65232: a4 = a4 <<64 16\n 65235: a5 = a5 <<64 24\n 65238: a4 = a4 | a5\n 65241: a1 = a1 | a4\n 65244: a2 = u8 [a0 + 29]\n 65247: a4 = u8 [a0 + 28]\n 65250: a5 = u8 [a0 + 30]\n 65253: a3 = u8 [a0 + 31]\n 65256: a2 = a2 <<64 8\n 65259: a2 = a2 | a4\n 65262: a5 = a5 <<64 16\n 65265: a3 = a3 <<64 24\n 65268: a3 = a3 | a5\n 65271: a2 = a2 | a3\n 65274: a2 = a2 <<64 32\n 65277: a1 = a1 | a2\n 65280: a2 = reverse t2\n 65282: a3 = u64 [s1 + 56]\n 65285: a4 = a3 ^ a2\n 65288: a2 = a2 <u a3\n 65291: a1 = reverse a1\n 65293: a3 = u64 [s1 + 72]\n 65296: a3 = a1 <u a3\n 65299: a1 = u8 [a0 + 13]\n 65302: a3 = a2 if a4 != 0\n 65305: a2 = u8 [a0 + 12]\n 65308: a4 = u8 [a0 + 14]\n 65311: a0 = u8 [a0 + 15]\n 65314: a1 = a1 <<64 8\n 65317: a1 = a1 | a2\n 65320: a4 = a4 <<64 16\n 65323: a0 = a0 <<64 24\n 65326: a0 = a0 | a4\n 65329: a0 = a0 | a1\n 65332: a0 = a0 <<64 32\n 65335: a0 = a0 | t1\n 65338: a0 = reverse a0\n 65340: a1 = reverse t0\n 65342: a4 = u64 [s1 + 80]\n 65345: a2 = a4 ^ a1\n 65348: a1 = a1 <u a4\n 65351: a5 = u64 [s1 + 88]\n 65354: a4 = a0 <u a5\n 65357: a4 = a1 if a2 != 0\n 65360: a0 = a0 ^ a5\n 65363: a0 = a0 | a2\n 65366: a3 = a4 if a0 != 0\n 65369: jump @1256 if a3 != 0\n      : @1246 (gas: 38)\n 65373: i64 a0 = i64 sp - i64 32\n 65376: a0 = a0 & 0xffffffe0\n 65379: u64 [s1 + 64] = a0\n 65382: sp = a0\n 65384: u64 [a0 + 24] = 0\n 65387: u64 [a0 + 16] = 0\n 65390: u64 [a0 + 8] = 0\n 65393: u64 [a0 + 0] = 0\n 65395: a0 = a0 + 0x0\n 65397: ecalli 14 // 'value_transferred'\n 65399: a1 = u64 [s1 + 64]\n 65402: a0 = u64 [a1]\n 65404: u64 [s1 + 88] = a0\n 65407: a0 = u64 [a1 + 16]\n 65410: u64 [s1 + 80] = a0\n 65413: a0 = u64 [a1 + 8]\n 65416: u64 [s1 + 72] = a0\n 65419: a0 = u64 [a1 + 24]\n 65422: u64 [s1 + 64] = a0\n 65425: u64 [s1 + 536] = 0\n 65429: u64 [s1 + 528] = 0\n 65433: u64 [s1 + 520] = 0\n 65437: u64 [s1 + 512] = 1\n 65442: u64 [s1 + 504] = 0\n 65446: u64 [s1 + 496] = 0\n 65450: u64 [s1 + 488] = 0\n 65454: u64 [s1 + 480] = 0\n 65458: u64 [s1 + 464] = 0\n 65462: u64 [s1 + 472] = 0\n 65466: u64 [s1 + 456] = 0\n 65470: u64 [s1 + 448] = 256\n 65476: a1 = s1 + 0x200\n 65480: a3 = s1 + 0x1e0\n 65484: a4 = s1 + 0x1c0\n 65488: a2 = 0xffffffff\n 65491: a0 = 0x0\n 65493: ecalli 5 // 'get_storage'\n 65495: fallthrough\n      : @1247 (gas: 16)\n 65496: a0 = u64 [s1 + 504]\n 65500: a1 = u64 [s1 + 488]\n 65504: a2 = u64 [s1 + 480]\n 65508: a3 = u64 [s1 + 496]\n 65512: a4 = u64 [s1 + 64]\n 65515: a0 = a0 ^ a4\n 65518: a4 = u64 [s1 + 72]\n 65521: a1 = a1 ^ a4\n 65524: a0 = a0 | a1\n 65527: a1 = u64 [s1 + 80]\n 65530: a1 = a1 ^ a3\n 65533: a3 = u64 [s1 + 88]\n 65536: a2 = a2 ^ a3\n 65539: a1 = a1 | a2\n 65542: a0 = a0 | a1\n 65545: jump @1263 if a0 != 0\n      : @1248 (gas: 15)\n 65549: a0 = u64 [s0]\n 65551: u64 [s1 + 88] = a0\n 65554: i64 sp = i64 sp - i64 16\n 65557: a0 = u64 [s1 + 104]\n 65560: u64 [sp] = a0\n 65562: i64 a0 = i64 s1 + 0xe0\n 65566: a1 = 0x4\n 65569: a2 = u64 [s1 + 96]\n 65572: u64 [sp + 8] = a2\n 65575: a2 = 0x0\n 65577: a3 = 0x0\n 65579: a4 = 0x0\n 65581: a5 = u64 [s1 + 112]\n 65584: t2 = u64 [s1 + 120]\n 65587: ra = 824, jump @191\n      : @1249 [@dyn 412] (gas: 14)\n 65594: i64 sp = i64 sp + 0x10\n 65597: a4 = u64 [s1 + 248]\n 65601: a3 = u64 [s1 + 240]\n 65605: a2 = u64 [s1 + 232]\n 65609: a1 = u64 [s1 + 224]\n 65613: i64 sp = i64 sp - i64 16\n 65616: a0 = u64 [s1 + 88]\n 65619: u64 [sp + 8] = a0\n 65622: i64 a0 = i64 s1 + 0xc0\n 65626: a5 = u64 [s1 + 32]\n 65629: u64 [sp] = a5\n 65631: a5 = u64 [s1 + 40]\n 65634: t2 = u64 [s1 + 48]\n 65637: ra = 826, jump @191\n      : @1250 [@dyn 413] (gas: 36)\n 65644: i64 sp = i64 sp + 0x10\n 65647: a0 = u64 [s1 + 192]\n 65651: a1 = u64 [s1 + 216]\n 65655: a2 = u64 [s1 + 200]\n 65659: a3 = u64 [s1 + 208]\n 65663: i64 a4 = i64 a0 + 0x2\n 65666: a0 = a4 <u a0\n 65669: i64 a5 = a2 + a0\n 65672: a2 = a5 <u a2\n 65675: a2 = a0 if a0 == 0\n 65678: i64 a2 = a2 + a3\n 65681: a0 = a2 <u a3\n 65684: i64 a0 = a0 + a1\n 65687: u64 [s1 + 88] = a4\n 65690: u64 [s1 + 512] = a4\n 65694: u64 [s1 + 80] = a5\n 65697: u64 [s1 + 520] = a5\n 65701: u64 [s1 + 72] = a2\n 65704: u64 [s1 + 528] = a2\n 65708: u64 [s1 + 64] = a0\n 65711: u64 [s1 + 536] = a0\n 65715: u64 [s1 + 504] = 0\n 65719: u64 [s1 + 496] = 0\n 65723: u64 [s1 + 488] = 0\n 65727: u64 [s1 + 480] = 0\n 65731: u64 [s1 + 464] = 0\n 65735: u64 [s1 + 472] = 0\n 65739: u64 [s1 + 456] = 0\n 65743: u64 [s1 + 448] = 256\n 65749: a1 = s1 + 0x200\n 65753: a3 = s1 + 0x1e0\n 65757: a4 = s1 + 0x1c0\n 65761: a2 = 0xffffffff\n 65764: a0 = 0x0\n 65766: ecalli 5 // 'get_storage'\n 65768: fallthrough\n      : @1251 (gas: 20)\n 65769: a0 = u64 [s1 + 480]\n 65773: a1 = u64 [s1 + 504]\n 65777: a2 = u64 [s1 + 488]\n 65781: a3 = u64 [s1 + 496]\n 65785: i64 a4 = i64 a0 + 0x1\n 65788: a0 = a4 <u 0x1\n 65791: i64 a2 = a2 + a0\n 65794: a0 = a4 | a2\n 65797: a0 = a0 <u 0x1\n 65800: i64 a5 = a3 + a0\n 65803: a0 = a5 <u a3\n 65806: i64 a0 = a0 + a1\n 65809: u64 [s1 + 48] = a2\n 65812: u64 [s1 + 32] = a0\n 65815: a0 = a0 | a2\n 65818: u64 [s1 + 56] = a4\n 65821: u64 [s1 + 40] = a5\n 65824: a1 = a4 | a5\n 65827: a0 = a0 | a1\n 65830: jump @1274 if a0 == 0\n      : @1252 (gas: 76)\n 65834: a0 = u64 [s1 + 80]\n 65837: u64 [s1 + 488] = a0\n 65841: a0 = u64 [s1 + 88]\n 65844: u64 [s1 + 480] = a0\n 65848: a0 = u64 [s1 + 72]\n 65851: u64 [s1 + 496] = a0\n 65855: a0 = u64 [s1 + 64]\n 65858: u64 [s1 + 504] = a0\n 65862: u64 [s1 + 472] = 0\n 65866: u64 [s1 + 464] = 0\n 65870: u64 [s1 + 456] = 0\n 65874: u64 [s1 + 448] = 0\n 65878: u64 [s1 + 432] = 0\n 65882: u64 [s1 + 440] = 0\n 65886: u64 [s1 + 424] = 0\n 65890: u64 [s1 + 416] = 256\n 65896: a1 = s1 + 0x1e0\n 65900: a3 = s1 + 0x1c0\n 65904: a4 = s1 + 0x1a0\n 65908: a2 = 0xffffffff\n 65911: a0 = 0x0\n 65913: ecalli 5 // 'get_storage'\n 65915: a0 = u64 [s1 + 64]\n 65918: u64 [s1 + 536] = a0\n 65922: a0 = u64 [s1 + 72]\n 65925: u64 [s1 + 528] = a0\n 65929: a0 = u64 [s1 + 80]\n 65932: u64 [s1 + 520] = a0\n 65936: a0 = u64 [s1 + 88]\n 65939: u64 [s1 + 512] = a0\n 65943: a0 = u64 [s1 + 32]\n 65946: u64 [s1 + 408] = a0\n 65950: a0 = u64 [s1 + 40]\n 65953: u64 [s1 + 400] = a0\n 65957: a0 = u64 [s1 + 48]\n 65960: u64 [s1 + 392] = a0\n 65964: a0 = u64 [s1 + 56]\n 65967: u64 [s1 + 384] = a0\n 65971: a1 = s1 + 0x200\n 65975: a3 = s1 + 0x180\n 65979: a2 = 0xffffffff\n 65982: a4 = 0x20\n 65985: a0 = 0x0\n 65987: ecalli 13 // 'set_storage'\n 65989: i64 a0 = i64 sp - i64 32\n 65992: a0 = a0 & 0xffffffe0\n 65995: u64 [s1 + 64] = a0\n 65998: sp = a0\n 66000: u64 [a0 + 24] = 0\n 66003: u64 [a0 + 16] = 0\n 66006: u64 [a0 + 8] = 0\n 66009: u64 [a0 + 0] = 0\n 66011: a0 = a0 + 0x0\n 66013: ecalli 14 // 'value_transferred'\n 66015: a1 = u64 [s1 + 64]\n 66018: a0 = u64 [a1 + 24]\n 66021: u64 [s1 + 88] = a0\n 66024: a0 = u64 [a1 + 16]\n 66027: u64 [s1 + 80] = a0\n 66030: a0 = u64 [a1]\n 66032: u64 [s1 + 72] = a0\n 66035: a0 = u64 [a1 + 8]\n 66038: u64 [s1 + 64] = a0\n 66041: i64 sp = i64 sp - i64 16\n 66044: a0 = u64 [s1 + 96]\n 66047: u64 [sp + 8] = a0\n 66050: i64 a0 = i64 s1 + 0xa0\n 66054: a1 = 0x3\n 66057: a2 = u64 [s1 + 104]\n 66060: u64 [sp] = a2\n 66062: a2 = 0x0\n 66064: a3 = 0x0\n 66066: a4 = 0x0\n 66068: a5 = u64 [s1 + 112]\n 66071: t2 = u64 [s1 + 120]\n 66074: ra = 828, jump @191\n      : @1253 [@dyn 414] (gas: 36)\n 66081: i64 sp = i64 sp + 0x10\n 66084: a0 = u64 [s1 + 160]\n 66088: a1 = u64 [s1 + 184]\n 66092: a2 = u64 [s1 + 168]\n 66096: a3 = u64 [s1 + 176]\n 66100: i64 a4 = i64 a0 + 0x3\n 66103: a0 = a4 <u a0\n 66106: i64 a5 = a2 + a0\n 66109: a2 = a5 <u a2\n 66112: a2 = a0 if a0 == 0\n 66115: i64 a2 = a2 + a3\n 66118: a0 = a2 <u a3\n 66121: i64 a0 = a0 + a1\n 66124: u64 [s1 + 120] = a4\n 66127: u64 [s1 + 512] = a4\n 66131: u64 [s1 + 112] = a5\n 66134: u64 [s1 + 520] = a5\n 66138: u64 [s1 + 104] = a2\n 66141: u64 [s1 + 528] = a2\n 66145: u64 [s1 + 96] = a0\n 66148: u64 [s1 + 536] = a0\n 66152: u64 [s1 + 504] = 0\n 66156: u64 [s1 + 496] = 0\n 66160: u64 [s1 + 488] = 0\n 66164: u64 [s1 + 480] = 0\n 66168: u64 [s1 + 464] = 0\n 66172: u64 [s1 + 472] = 0\n 66176: u64 [s1 + 456] = 0\n 66180: u64 [s1 + 448] = 256\n 66186: a1 = s1 + 0x200\n 66190: a3 = s1 + 0x1e0\n 66194: a4 = s1 + 0x1c0\n 66198: a2 = 0xffffffff\n 66201: a0 = 0x0\n 66203: ecalli 5 // 'get_storage'\n 66205: fallthrough\n      : @1254 (gas: 39)\n 66206: a4 = u64 [s1 + 488]\n 66210: a2 = u64 [s1 + 480]\n 66214: t0 = u64 [s1 + 504]\n 66218: t2 = u64 [s1 + 496]\n 66222: a5 = u64 [s1 + 64]\n 66225: i64 a5 = a5 + a4\n 66228: a1 = u64 [s1 + 72]\n 66231: i64 a1 = a1 + a2\n 66234: u64 [s1 + 72] = a1\n 66237: a3 = a1 <u a2\n 66240: i64 a5 = a5 + a3\n 66243: t1 = a5 ^ a4\n 66246: u64 [s1 + 64] = a5\n 66249: a4 = a5 <u a4\n 66252: a5 = u64 [s1 + 80]\n 66255: i64 a5 = a5 + t2\n 66258: a1 = u64 [s1 + 88]\n 66261: i64 a1 = a1 + t0\n 66264: a2 = a5 <u t2\n 66267: i64 a1 = a1 + a2\n 66270: a2 = a3\n 66272: a2 = a4 if t1 != 0\n 66275: i64 a0 = a5 + a2\n 66278: a2 = a0 <u a5\n 66281: i64 a5 = a1 + a2\n 66284: a1 = a3 ^ 0x1\n 66287: a2 = a4 ^ 0x1\n 66290: a1 = a2 if t1 != 0\n 66293: a2 = a0 <u t2\n 66296: a3 = a5 ^ t0\n 66299: u64 [s1 + 80] = a5\n 66302: a4 = a5 <u t0\n 66305: a4 = a2 if a3 == 0\n 66308: u64 [s1 + 88] = a0\n 66311: a0 = a0 ^ t2\n 66314: a0 = a0 | a3\n 66317: a2 = a4 ^ 0x1\n 66320: a1 = a2 if a0 != 0\n 66323: jump @1275 if a1 == 0\n      : @1255 (gas: 50)\n 66327: a0 = u64 [s1 + 112]\n 66330: u64 [s1 + 488] = a0\n 66334: a0 = u64 [s1 + 120]\n 66337: u64 [s1 + 480] = a0\n 66341: a0 = u64 [s1 + 104]\n 66344: u64 [s1 + 496] = a0\n 66348: a0 = u64 [s1 + 96]\n 66351: u64 [s1 + 504] = a0\n 66355: u64 [s1 + 472] = 0\n 66359: u64 [s1 + 464] = 0\n 66363: u64 [s1 + 456] = 0\n 66367: u64 [s1 + 448] = 0\n 66371: u64 [s1 + 432] = 0\n 66375: u64 [s1 + 440] = 0\n 66379: u64 [s1 + 424] = 0\n 66383: u64 [s1 + 416] = 256\n 66389: a1 = s1 + 0x1e0\n 66393: a3 = s1 + 0x1c0\n 66397: a4 = s1 + 0x1a0\n 66401: a2 = 0xffffffff\n 66404: a0 = 0x0\n 66406: ecalli 5 // 'get_storage'\n 66408: a0 = u64 [s1 + 96]\n 66411: u64 [s1 + 536] = a0\n 66415: a0 = u64 [s1 + 104]\n 66418: u64 [s1 + 528] = a0\n 66422: a0 = u64 [s1 + 112]\n 66425: u64 [s1 + 520] = a0\n 66429: a0 = u64 [s1 + 120]\n 66432: u64 [s1 + 512] = a0\n 66436: a0 = u64 [s1 + 80]\n 66439: u64 [s1 + 408] = a0\n 66443: a0 = u64 [s1 + 88]\n 66446: u64 [s1 + 400] = a0\n 66450: a0 = u64 [s1 + 64]\n 66453: u64 [s1 + 392] = a0\n 66457: a0 = u64 [s1 + 72]\n 66460: u64 [s1 + 384] = a0\n 66464: a1 = s1 + 0x200\n 66468: a3 = s1 + 0x180\n 66472: a2 = 0xffffffff\n 66475: a4 = 0x20\n 66478: a0 = 0x0\n 66480: ecalli 13 // 'set_storage'\n 66482: i64 sp = i64 s0 - i64 576\n 66486: ra = u64 [sp + 568]\n 66490: s0 = u64 [sp + 560]\n 66494: s1 = u64 [sp + 552]\n 66498: i64 sp = i64 sp + 0x240\n 66502: ret\n      : @1256 (gas: 3)\n 66504: a0 = 0x40\n 66507: a1 = 0x20\n 66510: ra = 830, jump @0\n      : @1257 [@dyn 415] (gas: 1)\n 66517: jump @1281 if a0 == 0\n      : @1258 (gas: 21)\n 66521: a3 = u64 [s1 + 24]\n 66524: a0 = u64 [a3 + 72]\n 66527: a1 = u64 [a3 + 64]\n 66530: a2 = u64 [a3 + 80]\n 66533: a3 = u64 [a3 + 88]\n 66536: a4 = reverse a0\n 66538: a5 = reverse a1\n 66540: a0 = reverse a2\n 66542: a1 = reverse a3\n 66544: u64 [s1 + 112] = a0\n 66547: u64 [s1 + 96] = a5\n 66550: a0 = a0 | a5\n 66553: u64 [s1 + 120] = a1\n 66556: a1 = a1 | a4\n 66559: a1 = a1 | a0\n 66562: a1 = a1 >>64 32\n 66565: u64 [s1 + 104] = a4\n 66568: a0 = a0 | a4\n 66571: a0 = a0 <<64 32\n 66574: a0 = a0 | a1\n 66577: jump @1281 if a0 != 0\n      : @1259 (gas: 4)\n 66581: a0 = i32 [s1 + 120]\n 66584: a1 = 0x20\n 66587: u64 [s1 + 88] = a0\n 66590: ra = 832, jump @0\n      : @1260 [@dyn 416] (gas: 1)\n 66597: jump @1281 if a0 == 0\n      : @1261 (gas: 50)\n 66601: a0 = u64 [s1 + 24]\n 66604: a1 = u64 [s1 + 88]\n 66607: i64 a1 = a1 + a0\n 66610: u8 [a1 + 31] = 0\n 66613: u8 [a1 + 30] = 0\n 66616: u8 [a1 + 29] = 0\n 66619: u8 [a1 + 28] = 0\n 66622: u8 [a1 + 27] = 0\n 66625: u8 [a1 + 26] = 0\n 66628: u8 [a1 + 25] = 0\n 66631: u8 [a1 + 24] = 0\n 66634: u8 [a1 + 23] = 0\n 66637: u8 [a1 + 22] = 0\n 66640: u8 [a1 + 21] = 0\n 66643: u8 [a1 + 20] = 0\n 66646: u8 [a1 + 19] = 0\n 66649: u8 [a1 + 18] = 0\n 66652: u8 [a1 + 17] = 0\n 66655: u8 [a1 + 16] = 0\n 66658: u8 [a1 + 15] = 0\n 66661: u8 [a1 + 14] = 0\n 66664: u8 [a1 + 13] = 0\n 66667: u8 [a1 + 12] = 0\n 66670: u8 [a1 + 11] = 0\n 66673: u8 [a1 + 10] = 0\n 66676: u8 [a1 + 9] = 0\n 66679: u8 [a1 + 8] = 0\n 66682: u8 [a1 + 7] = 0\n 66685: u8 [a1 + 6] = 0\n 66688: u8 [a1 + 5] = 0\n 66691: u8 [a1 + 4] = 0\n 66694: u8 [a1 + 3] = 160\n 66699: u8 [a1 + 2] = 121\n 66703: u8 [a1 + 1] = 195\n 66708: u64 [s1 + 80] = a1\n 66711: u8 [a1 + 0] = 8\n 66714: a0 = u64 [s1 + 120]\n 66717: i64 a1 = i64 a0 + 0x4\n 66720: a0 = a1 <u a0\n 66723: a3 = u64 [s1 + 112]\n 66726: i64 a2 = a3 + a0\n 66729: a3 = a2 <u a3\n 66732: a3 = a0 if a0 == 0\n 66735: a0 = u64 [s1 + 104]\n 66738: i64 a3 = a3 + a0\n 66741: a4 = a3 <u a0\n 66744: a0 = u64 [s1 + 96]\n 66747: i64 a4 = a4 + a0\n 66750: i64 a0 = i64 s1 + 0x80\n 66754: ra = 834, jump @1218\n      : @1262 [@dyn 417] (gas: 5)\n 66760: a1 = u64 [s1 + 136]\n 66764: t0 = u64 [s1 + 152]\n 66768: t1 = u64 [s1 + 128]\n 66772: a3 = u64 [s1 + 144]\n 66776: jump @1270\n      : @1263 (gas: 3)\n 66779: a0 = 0x40\n 66782: a1 = 0x20\n 66785: ra = 836, jump @0\n      : @1264 [@dyn 418] (gas: 1)\n 66792: jump @1281 if a0 == 0\n      : @1265 (gas: 21)\n 66796: a3 = u64 [s1 + 24]\n 66799: a0 = u64 [a3 + 72]\n 66802: a1 = u64 [a3 + 64]\n 66805: a2 = u64 [a3 + 80]\n 66808: a3 = u64 [a3 + 88]\n 66811: a4 = reverse a0\n 66813: a5 = reverse a1\n 66815: a0 = reverse a2\n 66817: a1 = reverse a3\n 66819: u64 [s1 + 112] = a0\n 66822: u64 [s1 + 96] = a5\n 66825: a0 = a0 | a5\n 66828: u64 [s1 + 120] = a1\n 66831: a1 = a1 | a4\n 66834: a1 = a1 | a0\n 66837: a1 = a1 >>64 32\n 66840: u64 [s1 + 104] = a4\n 66843: a0 = a0 | a4\n 66846: a0 = a0 <<64 32\n 66849: a0 = a0 | a1\n 66852: jump @1281 if a0 != 0\n      : @1266 (gas: 4)\n 66856: a0 = i32 [s1 + 120]\n 66859: a1 = 0x20\n 66862: u64 [s1 + 88] = a0\n 66865: ra = 838, jump @0\n      : @1267 [@dyn 419] (gas: 1)\n 66872: jump @1281 if a0 == 0\n      : @1268 (gas: 50)\n 66876: a0 = u64 [s1 + 24]\n 66879: a1 = u64 [s1 + 88]\n 66882: i64 a1 = a1 + a0\n 66885: u8 [a1 + 31] = 0\n 66888: u8 [a1 + 30] = 0\n 66891: u8 [a1 + 29] = 0\n 66894: u8 [a1 + 28] = 0\n 66897: u8 [a1 + 27] = 0\n 66900: u8 [a1 + 26] = 0\n 66903: u8 [a1 + 25] = 0\n 66906: u8 [a1 + 24] = 0\n 66909: u8 [a1 + 23] = 0\n 66912: u8 [a1 + 22] = 0\n 66915: u8 [a1 + 21] = 0\n 66918: u8 [a1 + 20] = 0\n 66921: u8 [a1 + 19] = 0\n 66924: u8 [a1 + 18] = 0\n 66927: u8 [a1 + 17] = 0\n 66930: u8 [a1 + 16] = 0\n 66933: u8 [a1 + 15] = 0\n 66936: u8 [a1 + 14] = 0\n 66939: u8 [a1 + 13] = 0\n 66942: u8 [a1 + 12] = 0\n 66945: u8 [a1 + 11] = 0\n 66948: u8 [a1 + 10] = 0\n 66951: u8 [a1 + 9] = 0\n 66954: u8 [a1 + 8] = 0\n 66957: u8 [a1 + 7] = 0\n 66960: u8 [a1 + 6] = 0\n 66963: u8 [a1 + 5] = 0\n 66966: u8 [a1 + 4] = 0\n 66969: u8 [a1 + 3] = 160\n 66974: u8 [a1 + 2] = 121\n 66978: u8 [a1 + 1] = 195\n 66983: u64 [s1 + 80] = a1\n 66986: u8 [a1 + 0] = 8\n 66989: a0 = u64 [s1 + 120]\n 66992: i64 a1 = i64 a0 + 0x4\n 66995: a0 = a1 <u a0\n 66998: a3 = u64 [s1 + 112]\n 67001: i64 a2 = a3 + a0\n 67004: a3 = a2 <u a3\n 67007: a3 = a0 if a0 == 0\n 67010: a0 = u64 [s1 + 104]\n 67013: i64 a3 = a3 + a0\n 67016: a4 = a3 <u a0\n 67019: a0 = u64 [s1 + 96]\n 67022: i64 a4 = a4 + a0\n 67025: i64 a0 = i64 s1 + 0x100\n 67029: ra = 840, jump @1229\n      : @1269 [@dyn 420] (gas: 5)\n 67035: a1 = u64 [s1 + 264]\n 67039: t0 = u64 [s1 + 280]\n 67043: t1 = u64 [s1 + 256]\n 67047: a3 = u64 [s1 + 272]\n 67051: fallthrough\n      : @1270 (gas: 27)\n 67052: a0 = u64 [s1 + 112]\n 67055: a4 = a1 ^ a0\n 67058: a5 = a1 <u a0\n 67061: ra = a0\n 67063: t2 = u64 [s1 + 120]\n 67066: a2 = t1 <u t2\n 67069: a5 = a2 if a4 == 0\n 67072: a0 = u64 [s1 + 104]\n 67075: i64 a4 = i64 a3 - i64 a0\n 67078: a3 = a3 <u a0\n 67081: a0 = u64 [s1 + 96]\n 67084: i64 a0 = i64 t0 - i64 a0\n 67087: i64 a0 = i64 a0 - i64 a3\n 67090: a3 = a4 <u a5\n 67093: i64 a0 = i64 a0 - i64 a3\n 67096: i64 a4 = i64 a4 - i64 a5\n 67099: i64 a1 = i64 a1 - i64 ra\n 67102: i64 a1 = i64 a1 - i64 a2\n 67105: a0 = a0 | a1\n 67108: i64 a1 = i64 t1 - i64 t2\n 67111: a1 = a1 | a4\n 67114: a1 = a1 | a0\n 67117: a0 = a0 | a4\n 67120: a1 = a1 >>64 32\n 67123: a0 = a0 <<64 32\n 67126: a0 = a0 | a1\n 67129: jump @1281 if a0 != 0\n      : @1271 (gas: 5)\n 67133: a0 = u64 [s1 + 120]\n 67136: a1 = t1 - a0\n 67139: a0 = u64 [s1 + 88]\n 67142: u64 [s1 + 120] = a1\n 67145: ra = 842, jump @0\n      : @1272 [@dyn 421] (gas: 1)\n 67152: jump @1281 if a0 == 0\n      : @1273 (gas: 7)\n 67156: a1 = i32 [s1 + 80]\n 67159: a0 = 0x1\n 67162: a2 = u64 [s1 + 120]\n 67165: ecalli 11 // 'seal_return'\n 67167: a1 = 0x20\n 67170: ra = 0x34c\n 67174: jump @0\n      : @1274 (gas: 3)\n 67178: a1 = 0x20\n 67181: ra = 0x34c\n 67185: jump @0\n      : @1275 (gas: 3)\n 67189: a1 = 0x20\n 67192: a0 = 0x0\n 67194: ra = 844, jump @0\n      : @1276 [@dyn 422] (gas: 1)\n 67201: jump @1281 if a0 == 0\n      : @1277 (gas: 8)\n 67204: a1 = u64 [s1 + 24]\n 67207: u64 [a1 + 24] = 0\n 67210: u64 [a1 + 16] = 0\n 67213: u64 [a1 + 8] = 0\n 67216: u64 [a1 + 0] = 1903904846\n 67222: a0 = 0x4\n 67225: a1 = 0x20\n 67228: ra = 846, jump @0\n      : @1278 [@dyn 423] (gas: 1)\n 67235: jump @1281 if a0 == 0\n      : @1279 (gas: 12)\n 67238: a1 = u64 [s1 + 24]\n 67241: u32 [a1 + 32] = 285212672\n 67248: u32 [a1 + 28] = 0\n 67251: u32 [a1 + 24] = 0\n 67254: u32 [a1 + 20] = 0\n 67257: u32 [a1 + 16] = 0\n 67260: u32 [a1 + 12] = 0\n 67263: u32 [a1 + 8] = 0\n 67266: u32 [a1 + 4] = 0\n 67269: a1 = 0x24\n 67272: a0 = 0x0\n 67274: ra = 848, jump @0\n      : @1280 [@dyn 424] (gas: 1)\n 67281: jump @1282 if a0 != 0\n      : @1281 (gas: 1)\n 67284: trap\n      : @1282 (gas: 6)\n 67285: a1 = i32 [s1 + 24]\n 67288: a0 = 0x1\n 67291: a2 = 0x24\n 67294: ra = 0x352\n 67298: ecalli 11 // 'seal_return'\n 67300: fallthrough\n      : @1283 [@dyn 425] (gas: 17)\n 67301: i64 sp = i64 sp - i64 96\n 67304: u64 [sp + 88] = ra\n 67307: u64 [sp + 80] = s0\n 67310: u64 [sp + 72] = s1\n 67313: s1 = a4\n 67315: a4 = a1\n 67317: u64 [sp + 64] = a2\n 67320: a1 = a2 | s1\n 67323: a2 = a4 | a3\n 67326: a2 = a2 | a1\n 67329: a2 = a2 >>64 32\n 67332: u64 [sp + 48] = a3\n 67335: a1 = a1 | a3\n 67338: a1 = a1 <<64 32\n 67341: a1 = a1 | a2\n 67344: u64 [sp + 32] = a0\n 67347: jump @1293 if a1 != 0\n      : @1284 (gas: 5)\n 67351: s0 = a4 + 0x0\n 67353: a1 = 0x20\n 67356: a0 = s0\n 67358: u64 [sp + 56] = a4\n 67361: ra = 852, jump @0\n      : @1285 [@dyn 426] (gas: 1)\n 67368: jump @1293 if a0 == 0\n      : @1286 (gas: 52)\n 67372: a0 = 0x20050\n 67377: u64 [sp + 40] = a0\n 67380: i64 a0 = a0 + s0\n 67383: u8 [a0 + 31] = 32\n 67387: u8 [a0 + 30] = 0\n 67390: u8 [a0 + 29] = 0\n 67393: u8 [a0 + 28] = 0\n 67396: u8 [a0 + 27] = 0\n 67399: u8 [a0 + 26] = 0\n 67402: u8 [a0 + 25] = 0\n 67405: u8 [a0 + 24] = 0\n 67408: u8 [a0 + 23] = 0\n 67411: u8 [a0 + 22] = 0\n 67414: u8 [a0 + 21] = 0\n 67417: u8 [a0 + 20] = 0\n 67420: u8 [a0 + 19] = 0\n 67423: u8 [a0 + 18] = 0\n 67426: u8 [a0 + 17] = 0\n 67429: u8 [a0 + 16] = 0\n 67432: u8 [a0 + 15] = 0\n 67435: u8 [a0 + 14] = 0\n 67438: u8 [a0 + 13] = 0\n 67441: u8 [a0 + 12] = 0\n 67444: u8 [a0 + 11] = 0\n 67447: u8 [a0 + 10] = 0\n 67450: u8 [a0 + 9] = 0\n 67453: u8 [a0 + 8] = 0\n 67456: u8 [a0 + 7] = 0\n 67459: u8 [a0 + 6] = 0\n 67462: u8 [a0 + 5] = 0\n 67465: u8 [a0 + 4] = 0\n 67468: u8 [a0 + 3] = 0\n 67471: u8 [a0 + 2] = 0\n 67474: u8 [a0 + 1] = 0\n 67477: a3 = u64 [sp + 48]\n 67480: a1 = a3 >u 0x0\n 67482: a2 = s1\n 67484: s1 = s1 >u 0x0\n 67486: s1 = a1 if a2 == 0\n 67489: a1 = 0xffffffdf\n 67499: a4 = u64 [sp + 56]\n 67502: a1 = a1 <u a4\n 67505: a4 = u64 [sp + 64]\n 67508: a5 = a4 >u 0x0\n 67510: u64 [sp + 24] = a5\n 67513: a1 = a5 if a4 != 0\n 67516: u64 [sp + 8] = a2\n 67519: a2 = a2 | a3\n 67522: u64 [sp + 16] = a2\n 67525: a1 = s1 if a2 != 0\n 67528: u8 [a0 + 0] = 0\n 67530: jump @1293 if a1 != 0\n      : @1287 (gas: 5)\n 67534: u64 [sp] = s0\n 67536: s0 = s0 + 0x20\n 67539: a1 = 0x20\n 67542: a0 = s0\n 67544: ra = 854, jump @0\n      : @1288 [@dyn 427] (gas: 1)\n 67551: jump @1293 if a0 == 0\n      : @1289 (gas: 43)\n 67555: a0 = u64 [sp + 40]\n 67558: i64 s0 = s0 + a0\n 67561: u8 [s0 + 31] = 20\n 67565: u8 [s0 + 30] = 0\n 67568: u8 [s0 + 29] = 0\n 67571: u8 [s0 + 28] = 0\n 67574: u8 [s0 + 27] = 0\n 67577: u8 [s0 + 26] = 0\n 67580: u8 [s0 + 25] = 0\n 67583: u8 [s0 + 24] = 0\n 67586: u8 [s0 + 23] = 0\n 67589: u8 [s0 + 22] = 0\n 67592: u8 [s0 + 21] = 0\n 67595: u8 [s0 + 20] = 0\n 67598: u8 [s0 + 19] = 0\n 67601: u8 [s0 + 18] = 0\n 67604: u8 [s0 + 17] = 0\n 67607: u8 [s0 + 16] = 0\n 67610: u8 [s0 + 15] = 0\n 67613: u8 [s0 + 14] = 0\n 67616: u8 [s0 + 13] = 0\n 67619: u8 [s0 + 12] = 0\n 67622: u8 [s0 + 11] = 0\n 67625: u8 [s0 + 10] = 0\n 67628: u8 [s0 + 9] = 0\n 67631: u8 [s0 + 8] = 0\n 67634: u8 [s0 + 7] = 0\n 67637: u8 [s0 + 6] = 0\n 67640: u8 [s0 + 5] = 0\n 67643: u8 [s0 + 4] = 0\n 67646: u8 [s0 + 3] = 0\n 67649: u8 [s0 + 2] = 0\n 67652: u8 [s0 + 1] = 0\n 67655: a0 = 0xffffffbf\n 67665: a1 = u64 [sp + 56]\n 67668: a0 = a0 <u a1\n 67671: a1 = u64 [sp + 64]\n 67674: a2 = u64 [sp + 24]\n 67677: a0 = a2 if a1 != 0\n 67680: a1 = u64 [sp + 16]\n 67683: a0 = s1 if a1 != 0\n 67686: u8 [s0 + 0] = 0\n 67688: jump @1293 if a0 != 0\n      : @1290 (gas: 6)\n 67692: a0 = u64 [sp]\n 67694: s1 = a0 + 0x40\n 67697: a1 = 0x20\n 67700: s0 = 0x20\n 67703: a0 = s1\n 67705: ra = 856, jump @0\n      : @1291 [@dyn 428] (gas: 1)\n 67712: jump @1293 if a0 == 0\n      : @1292 (gas: 56)\n 67716: a0 = u64 [sp + 40]\n 67719: i64 s1 = s1 + a0\n 67722: u8 [s1 + 31] = 0\n 67725: u8 [s1 + 30] = 0\n 67728: u8 [s1 + 29] = 0\n 67731: u8 [s1 + 28] = 0\n 67734: u8 [s1 + 27] = 0\n 67737: u8 [s1 + 26] = 0\n 67740: u8 [s1 + 25] = 0\n 67743: u8 [s1 + 24] = 0\n 67746: u8 [s1 + 23] = 0\n 67749: u8 [s1 + 22] = 0\n 67752: u8 [s1 + 21] = 0\n 67755: u8 [s1 + 20] = 0\n 67758: u8 [s1 + 19] = 119\n 67762: u8 [s1 + 18] = 97\n 67766: u8 [s1 + 17] = 114\n 67770: u8 [s1 + 16] = 100\n 67774: u8 [s1 + 15] = 104\n 67778: u8 [s1 + 14] = 116\n 67782: u8 [s1 + 13] = 105\n 67786: u8 [s1 + 12] = 119\n 67790: u8 [s1 + 11] = s0\n 67793: u8 [s1 + 10] = 111\n 67797: u8 [s1 + 9] = 116\n 67801: u8 [s1 + 8] = s0\n 67804: u8 [s1 + 7] = 115\n 67808: u8 [s1 + 6] = 100\n 67812: u8 [s1 + 5] = 110\n 67816: u8 [s1 + 4] = 117\n 67820: u8 [s1 + 3] = 102\n 67824: u8 [s1 + 2] = s0\n 67827: u8 [s1 + 1] = 111\n 67831: u8 [s1 + 0] = 78\n 67834: a1 = u64 [sp + 56]\n 67837: i64 a0 = i64 a1 + 0x60\n 67840: a1 = a0 <u a1\n 67843: a3 = u64 [sp + 64]\n 67846: i64 a2 = a3 + a1\n 67849: a3 = a2 <u a3\n 67852: a3 = a1 if a1 == 0\n 67855: a1 = u64 [sp + 48]\n 67858: i64 a3 = a3 + a1\n 67861: a1 = a3 <u a1\n 67864: a4 = u64 [sp + 8]\n 67867: i64 a1 = a1 + a4\n 67870: a4 = u64 [sp + 32]\n 67873: u64 [a4] = a0\n 67875: u64 [a4 + 8] = a2\n 67878: u64 [a4 + 16] = a3\n 67881: u64 [a4 + 24] = a1\n 67884: ra = u64 [sp + 88]\n 67887: s0 = u64 [sp + 80]\n 67890: s1 = u64 [sp + 72]\n 67893: i64 sp = i64 sp + 0x60\n 67896: ret\n      : @1293 (gas: 1)\n 67898: trap\n      : @1294 (gas: 17)\n 67899: i64 sp = i64 sp - i64 96\n 67902: u64 [sp + 88] = ra\n 67905: u64 [sp + 80] = s0\n 67908: u64 [sp + 72] = s1\n 67911: s1 = a4\n 67913: a4 = a1\n 67915: u64 [sp + 64] = a2\n 67918: a1 = a2 | s1\n 67921: a2 = a4 | a3\n 67924: a2 = a2 | a1\n 67927: a2 = a2 >>64 32\n 67930: u64 [sp + 48] = a3\n 67933: a1 = a1 | a3\n 67936: a1 = a1 <<64 32\n 67939: a1 = a1 | a2\n 67942: u64 [sp + 32] = a0\n 67945: jump @1304 if a1 != 0\n      : @1295 (gas: 5)\n 67949: s0 = a4 + 0x0\n 67951: a1 = 0x20\n 67954: a0 = s0\n 67956: u64 [sp + 56] = a4\n 67959: ra = 858, jump @0\n      : @1296 [@dyn 429] (gas: 1)\n 67966: jump @1304 if a0 == 0\n      : @1297 (gas: 52)\n 67970: a0 = 0x20050\n 67975: u64 [sp + 40] = a0\n 67978: i64 a0 = a0 + s0\n 67981: u8 [a0 + 31] = 32\n 67985: u8 [a0 + 30] = 0\n 67988: u8 [a0 + 29] = 0\n 67991: u8 [a0 + 28] = 0\n 67994: u8 [a0 + 27] = 0\n 67997: u8 [a0 + 26] = 0\n 68000: u8 [a0 + 25] = 0\n 68003: u8 [a0 + 24] = 0\n 68006: u8 [a0 + 23] = 0\n 68009: u8 [a0 + 22] = 0\n 68012: u8 [a0 + 21] = 0\n 68015: u8 [a0 + 20] = 0\n 68018: u8 [a0 + 19] = 0\n 68021: u8 [a0 + 18] = 0\n 68024: u8 [a0 + 17] = 0\n 68027: u8 [a0 + 16] = 0\n 68030: u8 [a0 + 15] = 0\n 68033: u8 [a0 + 14] = 0\n 68036: u8 [a0 + 13] = 0\n 68039: u8 [a0 + 12] = 0\n 68042: u8 [a0 + 11] = 0\n 68045: u8 [a0 + 10] = 0\n 68048: u8 [a0 + 9] = 0\n 68051: u8 [a0 + 8] = 0\n 68054: u8 [a0 + 7] = 0\n 68057: u8 [a0 + 6] = 0\n 68060: u8 [a0 + 5] = 0\n 68063: u8 [a0 + 4] = 0\n 68066: u8 [a0 + 3] = 0\n 68069: u8 [a0 + 2] = 0\n 68072: u8 [a0 + 1] = 0\n 68075: a3 = u64 [sp + 48]\n 68078: a1 = a3 >u 0x0\n 68080: a2 = s1\n 68082: s1 = s1 >u 0x0\n 68084: s1 = a1 if a2 == 0\n 68087: a1 = 0xffffffdf\n 68097: a4 = u64 [sp + 56]\n 68100: a1 = a1 <u a4\n 68103: a4 = u64 [sp + 64]\n 68106: a5 = a4 >u 0x0\n 68108: u64 [sp + 24] = a5\n 68111: a1 = a5 if a4 != 0\n 68114: u64 [sp + 8] = a2\n 68117: a2 = a2 | a3\n 68120: u64 [sp + 16] = a2\n 68123: a1 = s1 if a2 != 0\n 68126: u8 [a0 + 0] = 0\n 68128: jump @1304 if a1 != 0\n      : @1298 (gas: 5)\n 68132: u64 [sp] = s0\n 68134: s0 = s0 + 0x20\n 68137: a1 = 0x20\n 68140: a0 = s0\n 68142: ra = 860, jump @0\n      : @1299 [@dyn 430] (gas: 1)\n 68149: jump @1304 if a0 == 0\n      : @1300 (gas: 43)\n 68153: a0 = u64 [sp + 40]\n 68156: i64 s0 = s0 + a0\n 68159: u8 [s0 + 31] = 32\n 68163: u8 [s0 + 30] = 0\n 68166: u8 [s0 + 29] = 0\n 68169: u8 [s0 + 28] = 0\n 68172: u8 [s0 + 27] = 0\n 68175: u8 [s0 + 26] = 0\n 68178: u8 [s0 + 25] = 0\n 68181: u8 [s0 + 24] = 0\n 68184: u8 [s0 + 23] = 0\n 68187: u8 [s0 + 22] = 0\n 68190: u8 [s0 + 21] = 0\n 68193: u8 [s0 + 20] = 0\n 68196: u8 [s0 + 19] = 0\n 68199: u8 [s0 + 18] = 0\n 68202: u8 [s0 + 17] = 0\n 68205: u8 [s0 + 16] = 0\n 68208: u8 [s0 + 15] = 0\n 68211: u8 [s0 + 14] = 0\n 68214: u8 [s0 + 13] = 0\n 68217: u8 [s0 + 12] = 0\n 68220: u8 [s0 + 11] = 0\n 68223: u8 [s0 + 10] = 0\n 68226: u8 [s0 + 9] = 0\n 68229: u8 [s0 + 8] = 0\n 68232: u8 [s0 + 7] = 0\n 68235: u8 [s0 + 6] = 0\n 68238: u8 [s0 + 5] = 0\n 68241: u8 [s0 + 4] = 0\n 68244: u8 [s0 + 3] = 0\n 68247: u8 [s0 + 2] = 0\n 68250: u8 [s0 + 1] = 0\n 68253: a0 = 0xffffffbf\n 68263: a1 = u64 [sp + 56]\n 68266: a0 = a0 <u a1\n 68269: a1 = u64 [sp + 64]\n 68272: a2 = u64 [sp + 24]\n 68275: a0 = a2 if a1 != 0\n 68278: a1 = u64 [sp + 16]\n 68281: a0 = s1 if a1 != 0\n 68284: u8 [s0 + 0] = 0\n 68286: jump @1304 if a0 != 0\n      : @1301 (gas: 6)\n 68290: a0 = u64 [sp]\n 68292: s1 = a0 + 0x40\n 68295: a1 = 0x20\n 68298: s0 = 0x20\n 68301: a0 = s1\n 68303: ra = 862, jump @0\n      : @1302 [@dyn 431] (gas: 1)\n 68310: jump @1304 if a0 == 0\n      : @1303 (gas: 56)\n 68314: a0 = u64 [sp + 40]\n 68317: i64 s1 = s1 + a0\n 68320: u8 [s1 + 31] = 111\n 68324: u8 [s1 + 30] = 114\n 68328: u8 [s1 + 29] = 101\n 68332: u8 [s1 + 28] = 122\n 68336: u8 [s1 + 27] = s0\n 68339: u8 [s1 + 26] = 110\n 68343: u8 [s1 + 25] = 97\n 68347: u8 [s1 + 24] = 104\n 68351: u8 [s1 + 23] = 116\n 68355: u8 [s1 + 22] = s0\n 68358: u8 [s1 + 21] = 114\n 68362: u8 [s1 + 20] = 101\n 68366: u8 [s1 + 19] = 116\n 68370: u8 [s1 + 18] = 97\n 68374: u8 [s1 + 17] = 101\n 68378: u8 [s1 + 16] = 114\n 68382: u8 [s1 + 15] = 103\n 68386: u8 [s1 + 14] = s0\n 68389: u8 [s1 + 13] = 101\n 68393: u8 [s1 + 12] = 98\n 68397: u8 [s1 + 11] = s0\n 68400: u8 [s1 + 10] = 116\n 68404: u8 [s1 + 9] = 115\n 68408: u8 [s1 + 8] = 117\n 68412: u8 [s1 + 7] = 109\n 68416: u8 [s1 + 6] = s0\n 68419: u8 [s1 + 5] = 100\n 68423: u8 [s1 + 4] = 114\n 68427: u8 [s1 + 3] = 97\n 68431: u8 [s1 + 2] = 119\n 68435: u8 [s1 + 1] = 101\n 68439: u8 [s1 + 0] = 82\n 68442: a1 = u64 [sp + 56]\n 68445: i64 a0 = i64 a1 + 0x60\n 68448: a1 = a0 <u a1\n 68451: a3 = u64 [sp + 64]\n 68454: i64 a2 = a3 + a1\n 68457: a3 = a2 <u a3\n 68460: a3 = a1 if a1 == 0\n 68463: a1 = u64 [sp + 48]\n 68466: i64 a3 = a3 + a1\n 68469: a1 = a3 <u a1\n 68472: a4 = u64 [sp + 8]\n 68475: i64 a1 = a1 + a4\n 68478: a4 = u64 [sp + 32]\n 68481: u64 [a4] = a0\n 68483: u64 [a4 + 8] = a2\n 68486: u64 [a4 + 16] = a3\n 68489: u64 [a4 + 24] = a1\n 68492: ra = u64 [sp + 88]\n 68495: s0 = u64 [sp + 80]\n 68498: s1 = u64 [sp + 72]\n 68501: i64 sp = i64 sp + 0x60\n 68504: ret\n      : @1304 (gas: 1)\n 68506: trap\n      : @1305 (gas: 17)\n 68507: i64 sp = i64 sp - i64 96\n 68510: u64 [sp + 88] = ra\n 68513: u64 [sp + 80] = s0\n 68516: u64 [sp + 72] = s1\n 68519: s1 = a4\n 68521: a4 = a1\n 68523: u64 [sp + 64] = a2\n 68526: a1 = a2 | s1\n 68529: a2 = a4 | a3\n 68532: a2 = a2 | a1\n 68535: a2 = a2 >>64 32\n 68538: u64 [sp + 48] = a3\n 68541: a1 = a1 | a3\n 68544: a1 = a1 <<64 32\n 68547: a1 = a1 | a2\n 68550: u64 [sp + 32] = a0\n 68553: jump @1315 if a1 != 0\n      : @1306 (gas: 5)\n 68557: s0 = a4 + 0x0\n 68559: a1 = 0x20\n 68562: a0 = s0\n 68564: u64 [sp + 56] = a4\n 68567: ra = 864, jump @0\n      : @1307 [@dyn 432] (gas: 1)\n 68574: jump @1315 if a0 == 0\n      : @1308 (gas: 52)\n 68578: a0 = 0x20050\n 68583: u64 [sp + 40] = a0\n 68586: i64 a0 = a0 + s0\n 68589: u8 [a0 + 31] = 32\n 68593: u8 [a0 + 30] = 0\n 68596: u8 [a0 + 29] = 0\n 68599: u8 [a0 + 28] = 0\n 68602: u8 [a0 + 27] = 0\n 68605: u8 [a0 + 26] = 0\n 68608: u8 [a0 + 25] = 0\n 68611: u8 [a0 + 24] = 0\n 68614: u8 [a0 + 23] = 0\n 68617: u8 [a0 + 22] = 0\n 68620: u8 [a0 + 21] = 0\n 68623: u8 [a0 + 20] = 0\n 68626: u8 [a0 + 19] = 0\n 68629: u8 [a0 + 18] = 0\n 68632: u8 [a0 + 17] = 0\n 68635: u8 [a0 + 16] = 0\n 68638: u8 [a0 + 15] = 0\n 68641: u8 [a0 + 14] = 0\n 68644: u8 [a0 + 13] = 0\n 68647: u8 [a0 + 12] = 0\n 68650: u8 [a0 + 11] = 0\n 68653: u8 [a0 + 10] = 0\n 68656: u8 [a0 + 9] = 0\n 68659: u8 [a0 + 8] = 0\n 68662: u8 [a0 + 7] = 0\n 68665: u8 [a0 + 6] = 0\n 68668: u8 [a0 + 5] = 0\n 68671: u8 [a0 + 4] = 0\n 68674: u8 [a0 + 3] = 0\n 68677: u8 [a0 + 2] = 0\n 68680: u8 [a0 + 1] = 0\n 68683: a3 = u64 [sp + 48]\n 68686: a1 = a3 >u 0x0\n 68688: a2 = s1\n 68690: s1 = s1 >u 0x0\n 68692: s1 = a1 if a2 == 0\n 68695: a1 = 0xffffffdf\n 68705: a4 = u64 [sp + 56]\n 68708: a1 = a1 <u a4\n 68711: a4 = u64 [sp + 64]\n 68714: a5 = a4 >u 0x0\n 68716: u64 [sp + 24] = a5\n 68719: a1 = a5 if a4 != 0\n 68722: u64 [sp + 8] = a2\n 68725: a2 = a2 | a3\n 68728: u64 [sp + 16] = a2\n 68731: a1 = s1 if a2 != 0\n 68734: u8 [a0 + 0] = 0\n 68736: jump @1315 if a1 != 0\n      : @1309 (gas: 5)\n 68740: u64 [sp] = s0\n 68742: s0 = s0 + 0x20\n 68745: a1 = 0x20\n 68748: a0 = s0\n 68750: ra = 866, jump @0\n      : @1310 [@dyn 433] (gas: 1)\n 68757: jump @1315 if a0 == 0\n      : @1311 (gas: 43)\n 68761: a0 = u64 [sp + 40]\n 68764: i64 s0 = s0 + a0\n 68767: u8 [s0 + 31] = 24\n 68771: u8 [s0 + 30] = 0\n 68774: u8 [s0 + 29] = 0\n 68777: u8 [s0 + 28] = 0\n 68780: u8 [s0 + 27] = 0\n 68783: u8 [s0 + 26] = 0\n 68786: u8 [s0 + 25] = 0\n 68789: u8 [s0 + 24] = 0\n 68792: u8 [s0 + 23] = 0\n 68795: u8 [s0 + 22] = 0\n 68798: u8 [s0 + 21] = 0\n 68801: u8 [s0 + 20] = 0\n 68804: u8 [s0 + 19] = 0\n 68807: u8 [s0 + 18] = 0\n 68810: u8 [s0 + 17] = 0\n 68813: u8 [s0 + 16] = 0\n 68816: u8 [s0 + 15] = 0\n 68819: u8 [s0 + 14] = 0\n 68822: u8 [s0 + 13] = 0\n 68825: u8 [s0 + 12] = 0\n 68828: u8 [s0 + 11] = 0\n 68831: u8 [s0 + 10] = 0\n 68834: u8 [s0 + 9] = 0\n 68837: u8 [s0 + 8] = 0\n 68840: u8 [s0 + 7] = 0\n 68843: u8 [s0 + 6] = 0\n 68846: u8 [s0 + 5] = 0\n 68849: u8 [s0 + 4] = 0\n 68852: u8 [s0 + 3] = 0\n 68855: u8 [s0 + 2] = 0\n 68858: u8 [s0 + 1] = 0\n 68861: a0 = 0xffffffbf\n 68871: a1 = u64 [sp + 56]\n 68874: a0 = a0 <u a1\n 68877: a1 = u64 [sp + 64]\n 68880: a2 = u64 [sp + 24]\n 68883: a0 = a2 if a1 != 0\n 68886: a1 = u64 [sp + 16]\n 68889: a0 = s1 if a1 != 0\n 68892: u8 [s0 + 0] = 0\n 68894: jump @1315 if a0 != 0\n      : @1312 (gas: 6)\n 68898: a0 = u64 [sp]\n 68900: s1 = a0 + 0x40\n 68903: a1 = 0x20\n 68906: s0 = 0x20\n 68909: a0 = s1\n 68911: ra = 868, jump @0\n      : @1313 [@dyn 434] (gas: 1)\n 68918: jump @1315 if a0 == 0\n      : @1314 (gas: 56)\n 68922: a0 = u64 [sp + 40]\n 68925: i64 s1 = s1 + a0\n 68928: u8 [s1 + 21] = 112\n 68932: u8 [s1 + 20] = 109\n 68936: u8 [s1 + 16] = 98\n 68940: u8 [s1 + 12] = 110\n 68944: u8 [s1 + 11] = 110\n 68948: u8 [s1 + 9] = 99\n 68952: u8 [s1 + 31] = 0\n 68955: u8 [s1 + 30] = 0\n 68958: u8 [s1 + 29] = 0\n 68961: u8 [s1 + 28] = 0\n 68964: u8 [s1 + 27] = 0\n 68967: u8 [s1 + 26] = 0\n 68970: u8 [s1 + 25] = 0\n 68973: u8 [s1 + 24] = 0\n 68976: u8 [s1 + 18] = s0\n 68979: u8 [s1 + 15] = s0\n 68982: u8 [s1 + 8] = s0\n 68985: u8 [s1 + 23] = 121\n 68989: u8 [s1 + 7] = 121\n 68993: u8 [s1 + 6] = 114\n 68997: u8 [s1 + 13] = 111\n 69001: u8 [s1 + 5] = 111\n 69005: u8 [s1 + 4] = 103\n 69009: u8 [s1 + 19] = 101\n 69013: u8 [s1 + 17] = 101\n 69017: u8 [s1 + 3] = 101\n 69021: u8 [s1 + 22] = 116\n 69025: u8 [s1 + 14] = 116\n 69029: u8 [s1 + 2] = 116\n 69033: u8 [s1 + 10] = 97\n 69037: u8 [s1 + 1] = 97\n 69041: u8 [s1 + 0] = 67\n 69044: a1 = u64 [sp + 56]\n 69047: i64 a0 = i64 a1 + 0x60\n 69050: a1 = a0 <u a1\n 69053: a3 = u64 [sp + 64]\n 69056: i64 a2 = a3 + a1\n 69059: a3 = a2 <u a3\n 69062: a3 = a1 if a1 == 0\n 69065: a1 = u64 [sp + 48]\n 69068: i64 a3 = a3 + a1\n 69071: a1 = a3 <u a1\n 69074: a4 = u64 [sp + 8]\n 69077: i64 a1 = a1 + a4\n 69080: a4 = u64 [sp + 32]\n 69083: u64 [a4] = a0\n 69085: u64 [a4 + 8] = a2\n 69088: u64 [a4 + 16] = a3\n 69091: u64 [a4 + 24] = a1\n 69094: ra = u64 [sp + 88]\n 69097: s0 = u64 [sp + 80]\n 69100: s1 = u64 [sp + 72]\n 69103: i64 sp = i64 sp + 0x60\n 69106: ret\n      : @1315 (gas: 1)\n 69108: trap\n      : @1316 [@dyn 435] (gas: 8)\n 69109: a0 = u64 [s1 + 496]\n 69113: a1 = u64 [s1 + 504]\n 69117: a2 = u64 [s1 + 488]\n 69121: a3 = u64 [s1 + 480]\n 69125: a1 = a1 | a2\n 69128: a0 = a0 | a3\n 69131: a0 = a0 | a1\n 69134: jump @1318 if a0 != 0\n      : @1317 (gas: 1)\n 69137: jump @1433\n      : @1318 (gas: 13)\n 69140: a1 = u64 [s0]\n 69142: a2 = u64 [s1 + 240]\n 69146: a3 = u64 [s1 + 256]\n 69150: a0 = a2 | a3\n 69153: u64 [s1 + 184] = a1\n 69157: a4 = u64 [s1 + 248]\n 69161: a1 = a1 | a4\n 69164: a0 = a0 | a1\n 69167: a0 = a0 >>64 32\n 69170: a1 = a1 | a3\n 69173: a1 = a1 <<64 32\n 69176: a0 = a0 | a1\n 69179: jump @1320 if a0 == 0\n      : @1319 (gas: 1)\n 69182: jump @1466\n      : @1320 (gas: 4)\n 69185: a0 = a2 + 0x0\n 69187: a1 = 0x20\n 69190: u64 [s1 + 304] = a0\n 69194: ra = 872, jump @0\n      : @1321 [@dyn 436] (gas: 1)\n 69201: jump @1323 if a0 != 0\n      : @1322 (gas: 1)\n 69204: jump @1466\n      : @1323 (gas: 96)\n 69207: a0 = 0x20050\n 69212: u64 [s1 + 312] = a0\n 69216: a1 = u64 [s1 + 304]\n 69220: i64 a0 = a0 + a1\n 69223: a1 = u8 [a0 + 17]\n 69226: a2 = u8 [a0 + 16]\n 69229: a3 = u8 [a0 + 18]\n 69232: a4 = u8 [a0 + 19]\n 69235: a1 = a1 <<64 8\n 69238: a1 = a1 | a2\n 69241: a3 = a3 <<64 16\n 69244: a4 = a4 <<64 24\n 69247: a3 = a3 | a4\n 69250: a1 = a1 | a3\n 69253: u64 [s1 + 304] = a1\n 69257: a1 = u8 [a0 + 1]\n 69260: a2 = u8 [a0]\n 69262: a3 = u8 [a0 + 2]\n 69265: a4 = u8 [a0 + 3]\n 69268: a1 = a1 <<64 8\n 69271: a1 = a1 | a2\n 69274: a3 = a3 <<64 16\n 69277: a4 = a4 <<64 24\n 69280: a2 = a4 | a3\n 69283: t1 = a2 | a1\n 69286: a1 = u8 [a0 + 21]\n 69289: a3 = u8 [a0 + 20]\n 69292: a4 = u8 [a0 + 22]\n 69295: a5 = u8 [a0 + 23]\n 69298: a1 = a1 <<64 8\n 69301: a1 = a1 | a3\n 69304: a4 = a4 <<64 16\n 69307: a5 = a5 <<64 24\n 69310: a3 = a5 | a4\n 69313: t2 = a3 | a1\n 69316: a1 = u8 [a0 + 5]\n 69319: a4 = u8 [a0 + 4]\n 69322: a5 = u8 [a0 + 6]\n 69325: a2 = u8 [a0 + 7]\n 69328: a1 = a1 <<64 8\n 69331: a1 = a1 | a4\n 69334: a5 = a5 <<64 16\n 69337: a2 = a2 <<64 24\n 69340: a2 = a2 | a5\n 69343: ra = a2 | a1\n 69346: a1 = u8 [a0 + 25]\n 69349: a2 = u8 [a0 + 24]\n 69352: a5 = u8 [a0 + 26]\n 69355: a3 = u8 [a0 + 27]\n 69358: a1 = a1 <<64 8\n 69361: a1 = a1 | a2\n 69364: a5 = a5 <<64 16\n 69367: a3 = a3 <<64 24\n 69370: a3 = a3 | a5\n 69373: t0 = a3 | a1\n 69376: a1 = u8 [a0 + 9]\n 69379: a2 = u8 [a0 + 8]\n 69382: a3 = u8 [a0 + 10]\n 69385: a4 = u8 [a0 + 11]\n 69388: a1 = a1 <<64 8\n 69391: a1 = a1 | a2\n 69394: a3 = a3 <<64 16\n 69397: a4 = a4 <<64 24\n 69400: a3 = a3 | a4\n 69403: a5 = a3 | a1\n 69406: a2 = u8 [a0 + 29]\n 69409: a3 = u8 [a0 + 28]\n 69412: a4 = u8 [a0 + 30]\n 69415: a1 = u8 [a0 + 31]\n 69418: a2 = a2 <<64 8\n 69421: a2 = a2 | a3\n 69424: a4 = a4 <<64 16\n 69427: a1 = a1 <<64 24\n 69430: a1 = a1 | a4\n 69433: a1 = a1 | a2\n 69436: a2 = u8 [a0 + 13]\n 69439: a3 = u8 [a0 + 12]\n 69442: a4 = u8 [a0 + 14]\n 69445: a0 = u8 [a0 + 15]\n 69448: a2 = a2 <<64 8\n 69451: a2 = a2 | a3\n 69454: a4 = a4 <<64 16\n 69457: a0 = a0 <<64 24\n 69460: a0 = a0 | a4\n 69463: a0 = a0 | a2\n 69466: a0 = a0 | a1\n 69469: a1 = a5 | t0\n 69472: a0 = a0 <<64 32\n 69475: a0 = a0 | a1\n 69478: a1 = ra | t2\n 69481: a2 = u64 [s1 + 304]\n 69485: a2 = t1 | a2\n 69488: a1 = a1 <<64 32\n 69491: a1 = a1 | a2\n 69494: a0 = a0 | a1\n 69497: jump @1325 if a0 != 0\n      : @1324 (gas: 1)\n 69500: jump @1443\n      : @1325 (gas: 9)\n 69503: a1 = u64 [s0 + 32]\n 69506: a0 = u64 [s0 + 8]\n 69509: a2 = u64 [s0 + 16]\n 69512: a3 = u64 [s0 + 24]\n 69515: a4 = a0 <u 0x3\n 69518: a4 = 0 if a2 != 0\n 69520: a1 = a1 | a3\n 69523: a4 = 0 if a1 != 0\n 69525: jump @1327 if a4 != 0\n      : @1326 (gas: 1)\n 69528: jump @1453\n      : @1327 (gas: 2)\n 69531: a0 = a0 & 0x3\n 69534: jump @1333 if a0 == 0\n      : @1328 (gas: 1)\n 69537: jump @1337 if a0 != 1\n      : @1329 (gas: 3)\n 69542: a0 = s1 + 0x220\n 69546: ecalli 8 // 'now'\n 69548: fallthrough\n      : @1330 (gas: 16)\n 69549: a3 = u64 [s1 + 568]\n 69553: a1 = u64 [s1 + 560]\n 69557: a2 = u64 [s1 + 552]\n 69561: t2 = u64 [s1 + 544]\n 69565: i64 t0 = i64 a3 + 0x1\n 69568: a5 = a3 <u 0xffffffff\n 69571: a4 = a1 <u 0xffffffff\n 69574: a4 = a5 if t0 != 0\n 69577: t0 = t2 <u 0xffed8b00\n 69582: i64 t1 = i64 a2 + 0x1\n 69585: a5 = a2 <u 0xffffffff\n 69588: a5 = t0 if t1 == 0\n 69591: a0 = a1 & a3\n 69594: i64 a0 = i64 a0 + 0x1\n 69597: a5 = a4 if a0 != 0\n 69600: jump @1332 if a5 != 0\n      : @1331 (gas: 1)\n 69603: jump @1458\n      : @1332 (gas: 2)\n 69606: a0 = 0x127500\n 69611: jump @1341\n      : @1333 (gas: 3)\n 69614: a0 = s1 + 0x240\n 69618: ecalli 8 // 'now'\n 69620: fallthrough\n      : @1334 (gas: 16)\n 69621: a3 = u64 [s1 + 600]\n 69625: a1 = u64 [s1 + 592]\n 69629: a2 = u64 [s1 + 584]\n 69633: t2 = u64 [s1 + 576]\n 69637: i64 t0 = i64 a3 + 0x1\n 69640: a5 = a3 <u 0xffffffff\n 69643: a4 = a1 <u 0xffffffff\n 69646: a4 = a5 if t0 != 0\n 69649: t0 = t2 <u 0xfff6c580\n 69654: i64 t1 = i64 a2 + 0x1\n 69657: a5 = a2 <u 0xffffffff\n 69660: a5 = t0 if t1 == 0\n 69663: a0 = a1 & a3\n 69666: i64 a0 = i64 a0 + 0x1\n 69669: a5 = a4 if a0 != 0\n 69672: jump @1336 if a5 != 0\n      : @1335 (gas: 1)\n 69675: jump @1458\n      : @1336 (gas: 2)\n 69678: a0 = 0x93a80\n 69683: jump @1341\n      : @1337 (gas: 3)\n 69685: a0 = s1 + 0x200\n 69689: ecalli 8 // 'now'\n 69691: fallthrough\n      : @1338 (gas: 16)\n 69692: a3 = u64 [s1 + 536]\n 69696: a1 = u64 [s1 + 528]\n 69700: a2 = u64 [s1 + 520]\n 69704: t2 = u64 [s1 + 512]\n 69708: i64 t0 = i64 a3 + 0x1\n 69711: a5 = a3 <u 0xffffffff\n 69714: a4 = a1 <u 0xffffffff\n 69717: a4 = a5 if t0 != 0\n 69720: t0 = t2 <u 0xffd87300\n 69725: i64 t1 = i64 a2 + 0x1\n 69728: a5 = a2 <u 0xffffffff\n 69731: a5 = t0 if t1 == 0\n 69734: a0 = a1 & a3\n 69737: i64 a0 = i64 a0 + 0x1\n 69740: a5 = a4 if a0 != 0\n 69743: jump @1340 if a5 != 0\n      : @1339 (gas: 1)\n 69746: jump @1458\n      : @1340 (gas: 2)\n 69749: a0 = 0x278d00\n 69754: fallthrough\n      : @1341 (gas: 31)\n 69755: i64 a0 = a0 + t2\n 69758: u64 [s1 + 48] = a0\n 69761: a0 = a0 <u t2\n 69764: i64 a4 = a2 + a0\n 69767: u64 [s1 + 56] = a4\n 69770: a2 = a4 <u a2\n 69773: a2 = a0 if a0 == 0\n 69776: i64 a2 = a2 + a1\n 69779: u64 [s1 + 64] = a2\n 69782: a0 = a2 <u a1\n 69785: i64 a0 = a0 + a3\n 69788: u64 [s1 + 72] = a0\n 69791: u64 [s1 + 856] = 0\n 69795: u64 [s1 + 848] = 0\n 69799: u64 [s1 + 840] = 0\n 69803: u64 [s1 + 832] = 2\n 69808: u64 [s1 + 824] = 0\n 69812: u64 [s1 + 816] = 0\n 69816: u64 [s1 + 808] = 0\n 69820: u64 [s1 + 800] = 0\n 69824: u64 [s1 + 784] = 0\n 69828: u64 [s1 + 792] = 0\n 69832: u64 [s1 + 776] = 0\n 69836: u64 [s1 + 768] = 256\n 69842: a1 = s1 + 0x340\n 69846: a3 = s1 + 0x320\n 69850: a4 = s1 + 0x300\n 69854: a2 = 0xffffffff\n 69857: a0 = 0x0\n 69859: ecalli 5 // 'get_storage'\n 69861: fallthrough\n      : @1342 (gas: 24)\n 69862: a0 = u64 [s1 + 800]\n 69866: a2 = u64 [s1 + 824]\n 69870: a1 = u64 [s1 + 808]\n 69874: a3 = u64 [s1 + 816]\n 69878: u64 [s1 + 160] = a0\n 69882: i64 a4 = i64 a0 + 0x1\n 69885: a0 = a4 <u 0x1\n 69888: u64 [s1 + 152] = a1\n 69892: i64 a1 = a1 + a0\n 69895: a0 = a4 | a1\n 69898: a0 = a0 <u 0x1\n 69901: i64 a5 = a3 + a0\n 69904: u64 [s1 + 136] = a3\n 69908: a0 = a5 <u a3\n 69911: u64 [s1 + 144] = a2\n 69915: i64 a0 = a0 + a2\n 69918: u64 [s1 + 296] = a1\n 69922: u64 [s1 + 280] = a0\n 69926: a0 = a0 | a1\n 69929: u64 [s1 + 304] = a4\n 69933: u64 [s1 + 288] = a5\n 69937: a1 = a4 | a5\n 69940: a0 = a0 | a1\n 69943: jump @1344 if a0 != 0\n      : @1343 (gas: 1)\n 69946: jump @1459\n      : @1344 (gas: 76)\n 69949: u64 [s1 + 824] = 0\n 69953: u64 [s1 + 816] = 0\n 69957: u64 [s1 + 808] = 0\n 69961: u64 [s1 + 800] = 2\n 69966: u64 [s1 + 792] = 0\n 69970: u64 [s1 + 784] = 0\n 69974: u64 [s1 + 776] = 0\n 69978: u64 [s1 + 768] = 0\n 69982: u64 [s1 + 752] = 0\n 69986: u64 [s1 + 760] = 0\n 69990: u64 [s1 + 744] = 0\n 69994: u64 [s1 + 736] = 256\n 70000: a1 = s1 + 0x320\n 70004: a3 = s1 + 0x300\n 70008: a4 = s1 + 0x2e0\n 70012: a2 = 0xffffffff\n 70015: a0 = 0x0\n 70017: ecalli 5 // 'get_storage'\n 70019: u64 [s1 + 856] = 0\n 70023: u64 [s1 + 848] = 0\n 70027: u64 [s1 + 840] = 0\n 70031: u64 [s1 + 832] = 2\n 70036: a0 = u64 [s1 + 280]\n 70040: u64 [s1 + 728] = a0\n 70044: a0 = u64 [s1 + 288]\n 70048: u64 [s1 + 720] = a0\n 70052: a0 = u64 [s1 + 296]\n 70056: u64 [s1 + 712] = a0\n 70060: a0 = u64 [s1 + 304]\n 70064: u64 [s1 + 704] = a0\n 70068: a1 = s1 + 0x340\n 70072: a3 = s1 + 0x2c0\n 70076: a2 = 0xffffffff\n 70079: a4 = 0x20\n 70082: a0 = 0x0\n 70084: ecalli 13 // 'set_storage'\n 70086: a0 = s1 + 0x260\n 70090: ecalli 3 // 'caller'\n 70092: a0 = i32 [s1 + 624]\n 70096: u64 [s1 + 264] = a0\n 70100: a0 = u64 [s1 + 608]\n 70104: u64 [s1 + 232] = a0\n 70108: a0 = u64 [s1 + 616]\n 70112: u64 [s1 + 192] = a0\n 70116: i64 a0 = i64 sp - i64 32\n 70119: a0 = a0 & 0xffffffe0\n 70122: u64 [s1 + 304] = a0\n 70126: sp = a0\n 70128: u64 [a0 + 24] = 0\n 70131: u64 [a0 + 16] = 0\n 70134: u64 [a0 + 8] = 0\n 70137: u64 [a0 + 0] = 0\n 70139: a0 = a0 + 0x0\n 70141: ecalli 14 // 'value_transferred'\n 70143: a1 = u64 [s1 + 304]\n 70147: a0 = u64 [a1 + 24]\n 70150: u64 [s1 + 168] = a0\n 70154: a0 = u64 [a1 + 16]\n 70157: u64 [s1 + 128] = a0\n 70161: a0 = u64 [a1 + 8]\n 70164: u64 [s1 + 120] = a0\n 70167: a0 = u64 [a1]\n 70169: u64 [s1 + 112] = a0\n 70172: a0 = s1 + 0x280\n 70176: ecalli 8 // 'now'\n 70178: a0 = u64 [s1 + 664]\n 70182: u64 [s1 + 104] = a0\n 70185: a0 = u64 [s1 + 656]\n 70189: u64 [s1 + 96] = a0\n 70192: a0 = u64 [s1 + 648]\n 70196: u64 [s1 + 88] = a0\n 70199: a0 = u64 [s1 + 640]\n 70203: u64 [s1 + 80] = a0\n 70206: a0 = 0x40\n 70209: a1 = 0x20\n 70212: ra = 874, jump @0\n      : @1345 [@dyn 437] (gas: 1)\n 70219: jump @1347 if a0 != 0\n      : @1346 (gas: 1)\n 70222: jump @1466\n      : @1347 (gas: 19)\n 70225: a3 = u64 [s1 + 312]\n 70229: a0 = u64 [a3 + 64]\n 70232: a1 = u64 [a3 + 72]\n 70235: a5 = u64 [a3 + 80]\n 70238: a4 = u64 [a3 + 88]\n 70241: a3 = reverse a0\n 70243: u64 [s1 + 288] = a3\n 70247: a2 = reverse a1\n 70249: u64 [s1 + 280] = a2\n 70253: a1 = reverse a5\n 70255: u64 [s1 + 304] = a1\n 70259: a0 = reverse a4\n 70261: u64 [s1 + 296] = a0\n 70265: i64 sp = i64 sp - i64 8\n 70268: a4 = 0x100\n 70272: u64 [sp + 0] = 0\n 70274: a5 = 0x0\n 70276: t2 = 0x0\n 70278: ra = 876, jump @119\n      : @1348 [@dyn 438] (gas: 13)\n 70285: a2 = u64 [s1 + 296]\n 70289: i64 sp = i64 sp + 0x8\n 70292: a1 = u64 [s1 + 304]\n 70296: a0 = u64 [s1 + 288]\n 70300: a0 = a0 | a1\n 70303: a3 = u64 [s1 + 280]\n 70307: a1 = a2 | a3\n 70310: a1 = a1 | a0\n 70313: a1 = a1 >>64 32\n 70316: a0 = a0 | a3\n 70319: a0 = a0 <<64 32\n 70322: a0 = a0 | a1\n 70325: jump @1350 if a0 == 0\n      : @1349 (gas: 1)\n 70328: jump @1466\n      : @1350 (gas: 4)\n 70331: a0 = a2 + 0x0\n 70333: a1 = 0x20\n 70336: u64 [s1 + 272] = a0\n 70340: ra = 878, jump @0\n      : @1351 [@dyn 439] (gas: 1)\n 70347: jump @1353 if a0 != 0\n      : @1352 (gas: 1)\n 70350: jump @1466\n      : @1353 (gas: 87)\n 70353: a0 = u64 [s1 + 192]\n 70357: a2 = reverse a0\n 70359: a1 = a2 >>64 32\n 70362: a0 = u64 [s1 + 232]\n 70366: a0 = reverse a0\n 70368: a3 = a0 <<64 32\n 70371: a1 = a1 | a3\n 70374: a2 = a2 <<64 32\n 70377: a3 = u64 [s1 + 264]\n 70381: a3 = reverse a3\n 70383: a3 = a3 >>64 32\n 70386: a2 = a2 | a3\n 70389: a3 = u64 [s1 + 312]\n 70393: t0 = u64 [s1 + 272]\n 70397: i64 a4 = a3 + t0\n 70400: a2 = reverse a2\n 70402: a3 = a2 >>64 56\n 70405: u8 [a4 + 31] = a3\n 70408: a3 = a2 >>64 48\n 70411: u8 [a4 + 30] = a3\n 70414: a3 = a2 >>64 40\n 70417: u8 [a4 + 29] = a3\n 70420: a3 = a2 >>64 32\n 70423: u8 [a4 + 28] = a3\n 70426: a3 = a2 >>64 24\n 70429: u8 [a4 + 27] = a3\n 70432: a3 = a2 >>64 16\n 70435: u8 [a4 + 26] = a3\n 70438: a1 = reverse a1\n 70440: u8 [a4 + 24] = a2\n 70443: a2 = a2 >>64 8\n 70446: u8 [a4 + 25] = a2\n 70449: a2 = a1 >>64 56\n 70452: u8 [a4 + 23] = a2\n 70455: a2 = a1 >>64 48\n 70458: u8 [a4 + 22] = a2\n 70461: a2 = a1 >>64 40\n 70464: u8 [a4 + 21] = a2\n 70467: a2 = a1 >>64 32\n 70470: u8 [a4 + 20] = a2\n 70473: a2 = a1 >>64 24\n 70476: u8 [a4 + 19] = a2\n 70479: a2 = a1 >>64 16\n 70482: u8 [a4 + 18] = a2\n 70485: a0 = a0 >>64 32\n 70488: a0 = reverse a0\n 70490: u8 [a4 + 11] = 0\n 70493: u8 [a4 + 10] = 0\n 70496: u8 [a4 + 9] = 0\n 70499: u8 [a4 + 7] = 0\n 70502: u8 [a4 + 6] = 0\n 70505: u8 [a4 + 5] = 0\n 70508: u8 [a4 + 4] = 0\n 70511: u8 [a4 + 3] = 0\n 70514: u8 [a4 + 2] = 0\n 70517: u8 [a4 + 1] = 0\n 70520: u8 [a4 + 16] = a1\n 70523: a1 = a1 >>64 8\n 70526: u8 [a4 + 17] = a1\n 70529: u8 [a4 + 8] = a0\n 70532: a1 = a0 >>64 56\n 70535: u8 [a4 + 15] = a1\n 70538: a1 = a0 >>64 48\n 70541: u8 [a4 + 14] = a1\n 70544: a1 = a0 >>64 40\n 70547: u8 [a4 + 13] = a1\n 70550: a0 = a0 >>64 32\n 70553: u8 [a4 + 12] = a0\n 70556: a3 = u64 [s1 + 280]\n 70560: a0 = a3 >u 0x0\n 70562: a1 = u64 [s1 + 288]\n 70566: a2 = a1 >u 0x0\n 70568: a2 = a0 if a1 == 0\n 70571: a0 = 0xffffffdf\n 70581: a5 = u64 [s1 + 296]\n 70585: a0 = a0 <u a5\n 70588: a3 = a3 | a1\n 70591: a1 = u64 [s1 + 304]\n 70595: a5 = a1 >u 0x0\n 70597: u64 [s1 + 264] = a5\n 70601: a0 = a5 if a1 != 0\n 70604: u64 [s1 + 288] = a2\n 70608: u64 [s1 + 280] = a3\n 70612: a0 = a2 if a3 != 0\n 70615: u64 [s1 + 40] = a4\n 70618: u8 [a4 + 0] = 0\n 70620: jump @1355 if a0 == 0\n      : @1354 (gas: 1)\n 70623: jump @1466\n      : @1355 (gas: 4)\n 70626: a0 = t0 + 0x20\n 70629: a1 = 0x20\n 70632: u64 [s1 + 232] = a0\n 70636: ra = 880, jump @0\n      : @1356 [@dyn 440] (gas: 1)\n 70643: jump @1358 if a0 != 0\n      : @1357 (gas: 1)\n 70646: jump @1466\n      : @1358 (gas: 82)\n 70649: a0 = u64 [s1 + 312]\n 70653: a2 = u64 [s1 + 232]\n 70657: i64 a2 = a2 + a0\n 70660: a0 = u64 [s1 + 200]\n 70664: a0 = reverse a0\n 70666: a1 = a0 >>64 56\n 70669: u8 [a2 + 31] = a1\n 70672: a1 = a0 >>64 48\n 70675: u8 [a2 + 30] = a1\n 70678: a1 = a0 >>64 40\n 70681: u8 [a2 + 29] = a1\n 70684: a1 = a0 >>64 32\n 70687: u8 [a2 + 28] = a1\n 70690: a1 = a0 >>64 24\n 70693: u8 [a2 + 27] = a1\n 70696: a1 = a0 >>64 16\n 70699: u8 [a2 + 26] = a1\n 70702: a1 = u64 [s1 + 208]\n 70706: a1 = reverse a1\n 70708: u8 [a2 + 24] = a0\n 70711: a0 = a0 >>64 8\n 70714: u8 [a2 + 25] = a0\n 70717: a0 = a1 >>64 56\n 70720: u8 [a2 + 23] = a0\n 70723: a0 = a1 >>64 48\n 70726: u8 [a2 + 22] = a0\n 70729: a0 = a1 >>64 40\n 70732: u8 [a2 + 21] = a0\n 70735: a0 = a1 >>64 32\n 70738: u8 [a2 + 20] = a0\n 70741: a0 = a1 >>64 24\n 70744: u8 [a2 + 19] = a0\n 70747: a0 = a1 >>64 16\n 70750: u8 [a2 + 18] = a0\n 70753: a0 = u64 [s1 + 216]\n 70757: a0 = reverse a0\n 70759: u8 [a2 + 16] = a1\n 70762: a1 = a1 >>64 8\n 70765: u8 [a2 + 17] = a1\n 70768: a1 = a0 >>64 56\n 70771: u8 [a2 + 15] = a1\n 70774: a1 = a0 >>64 48\n 70777: u8 [a2 + 14] = a1\n 70780: a1 = a0 >>64 40\n 70783: u8 [a2 + 13] = a1\n 70786: a1 = a0 >>64 32\n 70789: u8 [a2 + 12] = a1\n 70792: a1 = a0 >>64 24\n 70795: u8 [a2 + 11] = a1\n 70798: a1 = a0 >>64 16\n 70801: u8 [a2 + 10] = a1\n 70804: a1 = u64 [s1 + 224]\n 70808: a1 = reverse a1\n 70810: u8 [a2 + 8] = a0\n 70813: a0 = a0 >>64 8\n 70816: u8 [a2 + 9] = a0\n 70819: u8 [a2] = a1\n 70821: a0 = a1 >>64 56\n 70824: u8 [a2 + 7] = a0\n 70827: a0 = a1 >>64 48\n 70830: u8 [a2 + 6] = a0\n 70833: a0 = a1 >>64 40\n 70836: u8 [a2 + 5] = a0\n 70839: a0 = a1 >>64 32\n 70842: u8 [a2 + 4] = a0\n 70845: a0 = a1 >>64 24\n 70848: u8 [a2 + 3] = a0\n 70851: a0 = a1 >>64 16\n 70854: u8 [a2 + 2] = a0\n 70857: a1 = a1 >>64 8\n 70860: a0 = 0xffffffbf\n 70870: a3 = u64 [s1 + 296]\n 70874: a0 = a0 <u a3\n 70877: a3 = u64 [s1 + 304]\n 70881: a4 = u64 [s1 + 264]\n 70885: a0 = a4 if a3 != 0\n 70888: a3 = u64 [s1 + 288]\n 70892: a4 = u64 [s1 + 280]\n 70896: a0 = a3 if a4 != 0\n 70899: u64 [s1 + 32] = a2\n 70902: u8 [a2 + 1] = a1\n 70905: jump @1360 if a0 == 0\n      : @1359 (gas: 1)\n 70908: jump @1466\n      : @1360 (gas: 5)\n 70911: a0 = u64 [s1 + 272]\n 70915: a0 = a0 + 0x40\n 70918: a1 = 0x20\n 70921: u64 [s1 + 192] = a0\n 70925: ra = 882, jump @0\n      : @1361 [@dyn 441] (gas: 1)\n 70932: jump @1363 if a0 != 0\n      : @1362 (gas: 1)\n 70935: jump @1466\n      : @1363 (gas: 82)\n 70938: a0 = u64 [s1 + 312]\n 70942: a2 = u64 [s1 + 192]\n 70946: i64 a2 = a2 + a0\n 70949: a0 = u64 [s1 + 240]\n 70953: a0 = reverse a0\n 70955: a1 = a0 >>64 56\n 70958: u8 [a2 + 31] = a1\n 70961: a1 = a0 >>64 48\n 70964: u8 [a2 + 30] = a1\n 70967: a1 = a0 >>64 40\n 70970: u8 [a2 + 29] = a1\n 70973: a1 = a0 >>64 32\n 70976: u8 [a2 + 28] = a1\n 70979: a1 = a0 >>64 24\n 70982: u8 [a2 + 27] = a1\n 70985: a1 = a0 >>64 16\n 70988: u8 [a2 + 26] = a1\n 70991: a1 = u64 [s1 + 248]\n 70995: a1 = reverse a1\n 70997: u8 [a2 + 24] = a0\n 71000: a0 = a0 >>64 8\n 71003: u8 [a2 + 25] = a0\n 71006: a0 = a1 >>64 56\n 71009: u8 [a2 + 23] = a0\n 71012: a0 = a1 >>64 48\n 71015: u8 [a2 + 22] = a0\n 71018: a0 = a1 >>64 40\n 71021: u8 [a2 + 21] = a0\n 71024: a0 = a1 >>64 32\n 71027: u8 [a2 + 20] = a0\n 71030: a0 = a1 >>64 24\n 71033: u8 [a2 + 19] = a0\n 71036: a0 = a1 >>64 16\n 71039: u8 [a2 + 18] = a0\n 71042: a0 = u64 [s1 + 256]\n 71046: a0 = reverse a0\n 71048: u8 [a2 + 16] = a1\n 71051: a1 = a1 >>64 8\n 71054: u8 [a2 + 17] = a1\n 71057: a1 = a0 >>64 56\n 71060: u8 [a2 + 15] = a1\n 71063: a1 = a0 >>64 48\n 71066: u8 [a2 + 14] = a1\n 71069: a1 = a0 >>64 40\n 71072: u8 [a2 + 13] = a1\n 71075: a1 = a0 >>64 32\n 71078: u8 [a2 + 12] = a1\n 71081: a1 = a0 >>64 24\n 71084: u8 [a2 + 11] = a1\n 71087: a1 = a0 >>64 16\n 71090: u8 [a2 + 10] = a1\n 71093: a1 = u64 [s1 + 184]\n 71097: a1 = reverse a1\n 71099: u8 [a2 + 8] = a0\n 71102: a0 = a0 >>64 8\n 71105: u8 [a2 + 9] = a0\n 71108: u8 [a2] = a1\n 71110: a0 = a1 >>64 56\n 71113: u8 [a2 + 7] = a0\n 71116: a0 = a1 >>64 48\n 71119: u8 [a2 + 6] = a0\n 71122: a0 = a1 >>64 40\n 71125: u8 [a2 + 5] = a0\n 71128: a0 = a1 >>64 32\n 71131: u8 [a2 + 4] = a0\n 71134: a0 = a1 >>64 24\n 71137: u8 [a2 + 3] = a0\n 71140: a0 = a1 >>64 16\n 71143: u8 [a2 + 2] = a0\n 71146: a1 = a1 >>64 8\n 71149: a0 = 0xffffff9f\n 71159: a3 = u64 [s1 + 296]\n 71163: a0 = a0 <u a3\n 71166: a3 = u64 [s1 + 304]\n 71170: a4 = u64 [s1 + 264]\n 71174: a0 = a4 if a3 != 0\n 71177: a3 = u64 [s1 + 288]\n 71181: a4 = u64 [s1 + 280]\n 71185: a0 = a3 if a4 != 0\n 71188: u64 [s1 + 24] = a2\n 71191: u8 [a2 + 1] = a1\n 71194: jump @1365 if a0 == 0\n      : @1364 (gas: 1)\n 71197: jump @1466\n      : @1365 (gas: 5)\n 71200: a0 = u64 [s1 + 272]\n 71204: a0 = a0 + 0x60\n 71207: a1 = 0x20\n 71210: u64 [s1 + 176] = a0\n 71214: ra = 884, jump @0\n      : @1366 [@dyn 442] (gas: 1)\n 71221: jump @1368 if a0 != 0\n      : @1367 (gas: 1)\n 71224: jump @1466\n      : @1368 (gas: 82)\n 71227: a0 = u64 [s1 + 312]\n 71231: a2 = u64 [s1 + 176]\n 71235: i64 a2 = a2 + a0\n 71238: a0 = u64 [s1 + 112]\n 71241: a0 = reverse a0\n 71243: a1 = a0 >>64 56\n 71246: u8 [a2 + 31] = a1\n 71249: a1 = a0 >>64 48\n 71252: u8 [a2 + 30] = a1\n 71255: a1 = a0 >>64 40\n 71258: u8 [a2 + 29] = a1\n 71261: a1 = a0 >>64 32\n 71264: u8 [a2 + 28] = a1\n 71267: a1 = a0 >>64 24\n 71270: u8 [a2 + 27] = a1\n 71273: a1 = a0 >>64 16\n 71276: u8 [a2 + 26] = a1\n 71279: a1 = u64 [s1 + 120]\n 71282: a1 = reverse a1\n 71284: u8 [a2 + 24] = a0\n 71287: a0 = a0 >>64 8\n 71290: u8 [a2 + 25] = a0\n 71293: a0 = a1 >>64 56\n 71296: u8 [a2 + 23] = a0\n 71299: a0 = a1 >>64 48\n 71302: u8 [a2 + 22] = a0\n 71305: a0 = a1 >>64 40\n 71308: u8 [a2 + 21] = a0\n 71311: a0 = a1 >>64 32\n 71314: u8 [a2 + 20] = a0\n 71317: a0 = a1 >>64 24\n 71320: u8 [a2 + 19] = a0\n 71323: a0 = a1 >>64 16\n 71326: u8 [a2 + 18] = a0\n 71329: a0 = u64 [s1 + 128]\n 71333: a0 = reverse a0\n 71335: u8 [a2 + 16] = a1\n 71338: a1 = a1 >>64 8\n 71341: u8 [a2 + 17] = a1\n 71344: a1 = a0 >>64 56\n 71347: u8 [a2 + 15] = a1\n 71350: a1 = a0 >>64 48\n 71353: u8 [a2 + 14] = a1\n 71356: a1 = a0 >>64 40\n 71359: u8 [a2 + 13] = a1\n 71362: a1 = a0 >>64 32\n 71365: u8 [a2 + 12] = a1\n 71368: a1 = a0 >>64 24\n 71371: u8 [a2 + 11] = a1\n 71374: a1 = a0 >>64 16\n 71377: u8 [a2 + 10] = a1\n 71380: a1 = u64 [s1 + 168]\n 71384: a1 = reverse a1\n 71386: u8 [a2 + 8] = a0\n 71389: a0 = a0 >>64 8\n 71392: u8 [a2 + 9] = a0\n 71395: u8 [a2] = a1\n 71397: a0 = a1 >>64 56\n 71400: u8 [a2 + 7] = a0\n 71403: a0 = a1 >>64 48\n 71406: u8 [a2 + 6] = a0\n 71409: a0 = a1 >>64 40\n 71412: u8 [a2 + 5] = a0\n 71415: a0 = a1 >>64 32\n 71418: u8 [a2 + 4] = a0\n 71421: a0 = a1 >>64 24\n 71424: u8 [a2 + 3] = a0\n 71427: a0 = a1 >>64 16\n 71430: u8 [a2 + 2] = a0\n 71433: a1 = a1 >>64 8\n 71436: a0 = 0xffffff7f\n 71446: a3 = u64 [s1 + 296]\n 71450: a0 = a0 <u a3\n 71453: a3 = u64 [s1 + 304]\n 71457: a4 = u64 [s1 + 264]\n 71461: a0 = a4 if a3 != 0\n 71464: a3 = u64 [s1 + 288]\n 71468: a4 = u64 [s1 + 280]\n 71472: a0 = a3 if a4 != 0\n 71475: u64 [s1 + 112] = a2\n 71478: u8 [a2 + 1] = a1\n 71481: jump @1370 if a0 == 0\n      : @1369 (gas: 1)\n 71484: jump @1466\n      : @1370 (gas: 5)\n 71487: a0 = u64 [s1 + 272]\n 71491: a0 = a0 + 0x80\n 71495: a1 = 0x20\n 71498: u64 [s1 + 168] = a0\n 71502: ra = 886, jump @0\n      : @1371 [@dyn 443] (gas: 1)\n 71509: jump @1373 if a0 != 0\n      : @1372 (gas: 1)\n 71512: jump @1466\n      : @1373 (gas: 82)\n 71515: a0 = u64 [s1 + 312]\n 71519: a2 = u64 [s1 + 168]\n 71523: i64 a2 = a2 + a0\n 71526: a0 = u64 [s1 + 80]\n 71529: a0 = reverse a0\n 71531: a1 = a0 >>64 56\n 71534: u8 [a2 + 31] = a1\n 71537: a1 = a0 >>64 48\n 71540: u8 [a2 + 30] = a1\n 71543: a1 = a0 >>64 40\n 71546: u8 [a2 + 29] = a1\n 71549: a1 = a0 >>64 32\n 71552: u8 [a2 + 28] = a1\n 71555: a1 = a0 >>64 24\n 71558: u8 [a2 + 27] = a1\n 71561: a1 = a0 >>64 16\n 71564: u8 [a2 + 26] = a1\n 71567: a1 = u64 [s1 + 88]\n 71570: a1 = reverse a1\n 71572: u8 [a2 + 24] = a0\n 71575: a0 = a0 >>64 8\n 71578: u8 [a2 + 25] = a0\n 71581: a0 = a1 >>64 56\n 71584: u8 [a2 + 23] = a0\n 71587: a0 = a1 >>64 48\n 71590: u8 [a2 + 22] = a0\n 71593: a0 = a1 >>64 40\n 71596: u8 [a2 + 21] = a0\n 71599: a0 = a1 >>64 32\n 71602: u8 [a2 + 20] = a0\n 71605: a0 = a1 >>64 24\n 71608: u8 [a2 + 19] = a0\n 71611: a0 = a1 >>64 16\n 71614: u8 [a2 + 18] = a0\n 71617: a0 = u64 [s1 + 96]\n 71620: a0 = reverse a0\n 71622: u8 [a2 + 16] = a1\n 71625: a1 = a1 >>64 8\n 71628: u8 [a2 + 17] = a1\n 71631: a1 = a0 >>64 56\n 71634: u8 [a2 + 15] = a1\n 71637: a1 = a0 >>64 48\n 71640: u8 [a2 + 14] = a1\n 71643: a1 = a0 >>64 40\n 71646: u8 [a2 + 13] = a1\n 71649: a1 = a0 >>64 32\n 71652: u8 [a2 + 12] = a1\n 71655: a1 = a0 >>64 24\n 71658: u8 [a2 + 11] = a1\n 71661: a1 = a0 >>64 16\n 71664: u8 [a2 + 10] = a1\n 71667: a1 = u64 [s1 + 104]\n 71670: a1 = reverse a1\n 71672: u8 [a2 + 8] = a0\n 71675: a0 = a0 >>64 8\n 71678: u8 [a2 + 9] = a0\n 71681: u8 [a2] = a1\n 71683: a0 = a1 >>64 56\n 71686: u8 [a2 + 7] = a0\n 71689: a0 = a1 >>64 48\n 71692: u8 [a2 + 6] = a0\n 71695: a0 = a1 >>64 40\n 71698: u8 [a2 + 5] = a0\n 71701: a0 = a1 >>64 32\n 71704: u8 [a2 + 4] = a0\n 71707: a0 = a1 >>64 24\n 71710: u8 [a2 + 3] = a0\n 71713: a0 = a1 >>64 16\n 71716: u8 [a2 + 2] = a0\n 71719: a1 = a1 >>64 8\n 71722: a0 = 0xffffff5f\n 71732: a3 = u64 [s1 + 296]\n 71736: a0 = a0 <u a3\n 71739: a3 = u64 [s1 + 304]\n 71743: a4 = u64 [s1 + 264]\n 71747: a0 = a4 if a3 != 0\n 71750: a3 = u64 [s1 + 288]\n 71754: a4 = u64 [s1 + 280]\n 71758: a0 = a3 if a4 != 0\n 71761: u64 [s1 + 104] = a2\n 71764: u8 [a2 + 1] = a1\n 71767: jump @1375 if a0 == 0\n      : @1374 (gas: 1)\n 71770: jump @1466\n      : @1375 (gas: 5)\n 71773: a0 = u64 [s1 + 272]\n 71777: a0 = a0 + 0xa0\n 71781: a1 = 0x20\n 71784: u64 [s1 + 128] = a0\n 71788: ra = 888, jump @0\n      : @1376 [@dyn 444] (gas: 1)\n 71795: jump @1378 if a0 != 0\n      : @1377 (gas: 1)\n 71798: jump @1466\n      : @1378 (gas: 82)\n 71801: a0 = u64 [s1 + 312]\n 71805: a2 = u64 [s1 + 128]\n 71809: i64 a2 = a2 + a0\n 71812: a0 = u64 [s1 + 48]\n 71815: a0 = reverse a0\n 71817: a1 = a0 >>64 56\n 71820: u8 [a2 + 31] = a1\n 71823: a1 = a0 >>64 48\n 71826: u8 [a2 + 30] = a1\n 71829: a1 = a0 >>64 40\n 71832: u8 [a2 + 29] = a1\n 71835: a1 = a0 >>64 32\n 71838: u8 [a2 + 28] = a1\n 71841: a1 = a0 >>64 24\n 71844: u8 [a2 + 27] = a1\n 71847: a1 = a0 >>64 16\n 71850: u8 [a2 + 26] = a1\n 71853: a1 = u64 [s1 + 56]\n 71856: a1 = reverse a1\n 71858: u8 [a2 + 24] = a0\n 71861: a0 = a0 >>64 8\n 71864: u8 [a2 + 25] = a0\n 71867: a0 = a1 >>64 56\n 71870: u8 [a2 + 23] = a0\n 71873: a0 = a1 >>64 48\n 71876: u8 [a2 + 22] = a0\n 71879: a0 = a1 >>64 40\n 71882: u8 [a2 + 21] = a0\n 71885: a0 = a1 >>64 32\n 71888: u8 [a2 + 20] = a0\n 71891: a0 = a1 >>64 24\n 71894: u8 [a2 + 19] = a0\n 71897: a0 = a1 >>64 16\n 71900: u8 [a2 + 18] = a0\n 71903: a0 = u64 [s1 + 64]\n 71906: a0 = reverse a0\n 71908: u8 [a2 + 16] = a1\n 71911: a1 = a1 >>64 8\n 71914: u8 [a2 + 17] = a1\n 71917: a1 = a0 >>64 56\n 71920: u8 [a2 + 15] = a1\n 71923: a1 = a0 >>64 48\n 71926: u8 [a2 + 14] = a1\n 71929: a1 = a0 >>64 40\n 71932: u8 [a2 + 13] = a1\n 71935: a1 = a0 >>64 32\n 71938: u8 [a2 + 12] = a1\n 71941: a1 = a0 >>64 24\n 71944: u8 [a2 + 11] = a1\n 71947: a1 = a0 >>64 16\n 71950: u8 [a2 + 10] = a1\n 71953: a1 = u64 [s1 + 72]\n 71956: a1 = reverse a1\n 71958: u8 [a2 + 8] = a0\n 71961: a0 = a0 >>64 8\n 71964: u8 [a2 + 9] = a0\n 71967: u8 [a2] = a1\n 71969: a0 = a1 >>64 56\n 71972: u8 [a2 + 7] = a0\n 71975: a0 = a1 >>64 48\n 71978: u8 [a2 + 6] = a0\n 71981: a0 = a1 >>64 40\n 71984: u8 [a2 + 5] = a0\n 71987: a0 = a1 >>64 32\n 71990: u8 [a2 + 4] = a0\n 71993: a0 = a1 >>64 24\n 71996: u8 [a2 + 3] = a0\n 71999: a0 = a1 >>64 16\n 72002: u8 [a2 + 2] = a0\n 72005: a1 = a1 >>64 8\n 72008: a0 = 0xffffff3f\n 72018: a3 = u64 [s1 + 296]\n 72022: a0 = a0 <u a3\n 72025: a3 = u64 [s1 + 304]\n 72029: a4 = u64 [s1 + 264]\n 72033: a0 = a4 if a3 != 0\n 72036: a3 = u64 [s1 + 288]\n 72040: a4 = u64 [s1 + 280]\n 72044: a0 = a3 if a4 != 0\n 72047: u64 [s1 + 96] = a2\n 72050: u8 [a2 + 1] = a1\n 72053: jump @1380 if a0 == 0\n      : @1379 (gas: 1)\n 72056: jump @1466\n      : @1380 (gas: 5)\n 72059: a0 = u64 [s1 + 272]\n 72063: a0 = a0 + 0xc0\n 72067: a1 = 0x20\n 72070: u64 [s1 + 120] = a0\n 72073: ra = 890, jump @0\n      : @1381 [@dyn 445] (gas: 1)\n 72080: jump @1383 if a0 != 0\n      : @1382 (gas: 1)\n 72083: jump @1466\n      : @1383 (gas: 46)\n 72086: a0 = u64 [s1 + 312]\n 72090: a1 = u64 [s1 + 120]\n 72093: i64 a1 = a1 + a0\n 72096: u8 [a1 + 31] = 0\n 72099: u8 [a1 + 30] = 0\n 72102: u8 [a1 + 29] = 0\n 72105: u8 [a1 + 28] = 0\n 72108: u8 [a1 + 27] = 0\n 72111: u8 [a1 + 26] = 0\n 72114: u8 [a1 + 25] = 0\n 72117: u8 [a1 + 24] = 0\n 72120: u8 [a1 + 23] = 0\n 72123: u8 [a1 + 22] = 0\n 72126: u8 [a1 + 21] = 0\n 72129: u8 [a1 + 20] = 0\n 72132: u8 [a1 + 19] = 0\n 72135: u8 [a1 + 18] = 0\n 72138: u8 [a1 + 17] = 0\n 72141: u8 [a1 + 16] = 0\n 72144: u8 [a1 + 15] = 0\n 72147: u8 [a1 + 14] = 0\n 72150: u8 [a1 + 13] = 0\n 72153: u8 [a1 + 12] = 0\n 72156: u8 [a1 + 11] = 0\n 72159: u8 [a1 + 10] = 0\n 72162: u8 [a1 + 9] = 0\n 72165: u8 [a1 + 8] = 0\n 72168: u8 [a1 + 7] = 0\n 72171: u8 [a1 + 6] = 0\n 72174: u8 [a1 + 5] = 0\n 72177: u8 [a1 + 4] = 0\n 72180: u8 [a1 + 3] = 0\n 72183: u8 [a1 + 2] = 0\n 72186: u8 [a1 + 1] = 0\n 72189: a0 = 0xffffff1f\n 72199: a2 = u64 [s1 + 296]\n 72203: a0 = a0 <u a2\n 72206: a2 = u64 [s1 + 304]\n 72210: a3 = u64 [s1 + 264]\n 72214: a0 = a3 if a2 != 0\n 72217: a2 = u64 [s1 + 288]\n 72221: a3 = u64 [s1 + 280]\n 72225: a0 = a2 if a3 != 0\n 72228: u64 [s1 + 72] = a1\n 72231: u8 [a1 + 0] = 0\n 72233: jump @1385 if a0 == 0\n      : @1384 (gas: 1)\n 72236: jump @1466\n      : @1385 (gas: 5)\n 72239: a0 = u64 [s1 + 272]\n 72243: a0 = a0 + 0xe0\n 72247: a1 = 0x20\n 72250: u64 [s1 + 264] = a0\n 72254: ra = 892, jump @0\n      : @1386 [@dyn 446] (gas: 1)\n 72261: jump @1388 if a0 != 0\n      : @1387 (gas: 1)\n 72264: jump @1466\n      : @1388 (gas: 49)\n 72267: a0 = u64 [s1 + 312]\n 72271: a1 = u64 [s1 + 264]\n 72275: i64 a0 = a0 + a1\n 72278: u8 [a0 + 31] = 0\n 72281: u8 [a0 + 30] = 0\n 72284: u8 [a0 + 29] = 0\n 72287: u8 [a0 + 28] = 0\n 72290: u8 [a0 + 27] = 0\n 72293: u8 [a0 + 26] = 0\n 72296: u8 [a0 + 25] = 0\n 72299: u8 [a0 + 24] = 0\n 72302: u8 [a0 + 23] = 0\n 72305: u8 [a0 + 22] = 0\n 72308: u8 [a0 + 21] = 0\n 72311: u8 [a0 + 20] = 0\n 72314: u8 [a0 + 19] = 0\n 72317: u8 [a0 + 18] = 0\n 72320: u8 [a0 + 17] = 0\n 72323: u8 [a0 + 16] = 0\n 72326: u8 [a0 + 15] = 0\n 72329: u8 [a0 + 14] = 0\n 72332: u8 [a0 + 13] = 0\n 72335: u8 [a0 + 12] = 0\n 72338: u8 [a0 + 11] = 0\n 72341: u8 [a0 + 10] = 0\n 72344: u8 [a0 + 9] = 0\n 72347: u8 [a0 + 8] = 0\n 72350: u8 [a0 + 7] = 0\n 72353: u8 [a0 + 6] = 0\n 72356: u8 [a0 + 5] = 0\n 72359: u8 [a0 + 4] = 0\n 72362: u8 [a0 + 3] = 0\n 72365: u8 [a0 + 2] = 0\n 72368: u8 [a0 + 1] = 0\n 72371: u64 [s1 + 64] = a0\n 72374: u8 [a0 + 0] = 0\n 72376: i64 sp = i64 sp - i64 16\n 72379: a0 = u64 [s1 + 144]\n 72383: u64 [sp + 8] = a0\n 72386: i64 a0 = i64 s1 + 0x1c0\n 72390: a1 = 0x3\n 72393: a2 = u64 [s1 + 136]\n 72397: u64 [sp] = a2\n 72399: a2 = 0x0\n 72401: a3 = 0x0\n 72403: a4 = 0x0\n 72405: a5 = u64 [s1 + 160]\n 72409: t2 = u64 [s1 + 152]\n 72413: ra = 894, jump @191\n      : @1389 [@dyn 447] (gas: 12)\n 72420: i64 sp = i64 sp + 0x10\n 72423: a0 = u64 [s1 + 472]\n 72427: u64 [s1 + 304] = a0\n 72431: a0 = u64 [s1 + 464]\n 72435: u64 [s1 + 296] = a0\n 72439: a0 = u64 [s1 + 456]\n 72443: u64 [s1 + 288] = a0\n 72447: a0 = u64 [s1 + 448]\n 72451: u64 [s1 + 280] = a0\n 72455: a1 = 0x20\n 72458: a0 = u64 [s1 + 272]\n 72462: ra = 896, jump @0\n      : @1390 [@dyn 448] (gas: 1)\n 72469: jump @1392 if a0 != 0\n      : @1391 (gas: 1)\n 72472: jump @1466\n      : @1392 (gas: 112)\n 72475: t0 = u64 [s1 + 40]\n 72478: a0 = u8 [t0 + 17]\n 72481: a1 = u8 [t0 + 16]\n 72484: a2 = u8 [t0 + 18]\n 72487: a3 = u8 [t0 + 19]\n 72490: a0 = a0 <<64 8\n 72493: a0 = a0 | a1\n 72496: a2 = a2 <<64 16\n 72499: a3 = a3 <<64 24\n 72502: a2 = a2 | a3\n 72505: a0 = a0 | a2\n 72508: a1 = u8 [t0 + 21]\n 72511: a2 = u8 [t0 + 20]\n 72514: a3 = u8 [t0 + 22]\n 72517: a4 = u8 [t0 + 23]\n 72520: a1 = a1 <<64 8\n 72523: a1 = a1 | a2\n 72526: a3 = a3 <<64 16\n 72529: a4 = a4 <<64 24\n 72532: a3 = a3 | a4\n 72535: a1 = a1 | a3\n 72538: a1 = a1 <<64 32\n 72541: a0 = a0 | a1\n 72544: a1 = u8 [t0 + 25]\n 72547: a2 = u8 [t0 + 24]\n 72550: a3 = u8 [t0 + 26]\n 72553: a4 = u8 [t0 + 27]\n 72556: a1 = a1 <<64 8\n 72559: a1 = a1 | a2\n 72562: a3 = a3 <<64 16\n 72565: a4 = a4 <<64 24\n 72568: a3 = a3 | a4\n 72571: a1 = a1 | a3\n 72574: a2 = u8 [t0 + 29]\n 72577: a3 = u8 [t0 + 28]\n 72580: a4 = u8 [t0 + 30]\n 72583: a5 = u8 [t0 + 31]\n 72586: a2 = a2 <<64 8\n 72589: a2 = a2 | a3\n 72592: a4 = a4 <<64 16\n 72595: a5 = a5 <<64 24\n 72598: a4 = a4 | a5\n 72601: a2 = a2 | a4\n 72604: a2 = a2 <<64 32\n 72607: a1 = a1 | a2\n 72610: a2 = u8 [t0 + 13]\n 72613: a3 = u8 [t0 + 12]\n 72616: a4 = u8 [t0 + 14]\n 72619: a5 = u8 [t0 + 15]\n 72622: a2 = a2 <<64 8\n 72625: a2 = a2 | a3\n 72628: a4 = a4 <<64 16\n 72631: a5 = a5 <<64 24\n 72634: a4 = a4 | a5\n 72637: a2 = a2 | a4\n 72640: a1 = reverse a1\n 72642: u64 [s1 + 272] = a1\n 72646: a0 = reverse a0\n 72648: u64 [s1 + 88] = a0\n 72651: a0 = reverse a2\n 72653: a0 = a0 >>64 32\n 72656: u64 [s1 + 80] = a0\n 72659: a0 = u64 [s1 + 304]\n 72663: u64 [s1 + 824] = a0\n 72667: a0 = u64 [s1 + 296]\n 72671: u64 [s1 + 816] = a0\n 72675: a0 = u64 [s1 + 288]\n 72679: u64 [s1 + 808] = a0\n 72683: a0 = u64 [s1 + 280]\n 72687: u64 [s1 + 800] = a0\n 72691: u64 [s1 + 792] = 0\n 72695: u64 [s1 + 784] = 0\n 72699: u64 [s1 + 776] = 0\n 72703: u64 [s1 + 768] = 0\n 72707: u64 [s1 + 752] = 0\n 72711: u64 [s1 + 760] = 0\n 72715: u64 [s1 + 744] = 0\n 72719: u64 [s1 + 736] = 256\n 72725: a1 = s1 + 0x320\n 72729: a3 = s1 + 0x300\n 72733: a4 = s1 + 0x2e0\n 72737: a2 = 0xffffffff\n 72740: a0 = 0x0\n 72742: ecalli 5 // 'get_storage'\n 72744: a0 = u32 [s1 + 788]\n 72748: a0 = a0 <<64 32\n 72751: a1 = u64 [s1 + 792]\n 72755: a2 = u64 [s1 + 80]\n 72758: a0 = a0 | a2\n 72761: a2 = u64 [s1 + 304]\n 72765: u64 [s1 + 856] = a2\n 72769: a2 = u64 [s1 + 296]\n 72773: u64 [s1 + 848] = a2\n 72777: a2 = u64 [s1 + 288]\n 72781: u64 [s1 + 840] = a2\n 72785: a2 = u64 [s1 + 280]\n 72789: u64 [s1 + 832] = a2\n 72793: a2 = u64 [s1 + 88]\n 72796: u64 [s1 + 712] = a2\n 72800: a2 = u64 [s1 + 272]\n 72804: u64 [s1 + 704] = a2\n 72808: u64 [s1 + 728] = a1\n 72812: u64 [s1 + 720] = a0\n 72816: a1 = s1 + 0x340\n 72820: a3 = s1 + 0x2c0\n 72824: a2 = 0xffffffff\n 72827: a4 = 0x20\n 72830: a0 = 0x0\n 72832: ecalli 13 // 'set_storage'\n 72834: a1 = 0x20\n 72837: a0 = u64 [s1 + 232]\n 72841: ra = 898, jump @0\n      : @1393 [@dyn 449] (gas: 1)\n 72848: jump @1395 if a0 != 0\n      : @1394 (gas: 1)\n 72851: jump @1466\n      : @1395 (gas: 108)\n 72854: a5 = u64 [s1 + 32]\n 72857: a0 = u8 [a5 + 1]\n 72860: a1 = u8 [a5]\n 72862: a2 = u8 [a5 + 2]\n 72865: a3 = u8 [a5 + 3]\n 72868: a0 = a0 <<64 8\n 72871: a0 = a0 | a1\n 72874: a2 = a2 <<64 16\n 72877: a3 = a3 <<64 24\n 72880: a2 = a2 | a3\n 72883: a0 = a0 | a2\n 72886: a1 = u8 [a5 + 5]\n 72889: a2 = u8 [a5 + 4]\n 72892: a3 = u8 [a5 + 6]\n 72895: a4 = u8 [a5 + 7]\n 72898: a1 = a1 <<64 8\n 72901: a1 = a1 | a2\n 72904: a3 = a3 <<64 16\n 72907: a4 = a4 <<64 24\n 72910: a3 = a3 | a4\n 72913: a1 = a1 | a3\n 72916: a1 = a1 <<64 32\n 72919: t0 = a1 | a0\n 72922: a0 = u8 [a5 + 9]\n 72925: a1 = u8 [a5 + 8]\n 72928: a2 = u8 [a5 + 10]\n 72931: a3 = u8 [a5 + 11]\n 72934: a0 = a0 <<64 8\n 72937: a0 = a0 | a1\n 72940: a2 = a2 <<64 16\n 72943: a3 = a3 <<64 24\n 72946: a2 = a2 | a3\n 72949: a0 = a0 | a2\n 72952: a1 = u8 [a5 + 13]\n 72955: a2 = u8 [a5 + 12]\n 72958: a3 = u8 [a5 + 14]\n 72961: a4 = u8 [a5 + 15]\n 72964: a1 = a1 <<64 8\n 72967: a1 = a1 | a2\n 72970: a3 = a3 <<64 16\n 72973: a4 = a4 <<64 24\n 72976: a3 = a3 | a4\n 72979: a1 = a1 | a3\n 72982: a1 = a1 <<64 32\n 72985: t1 = a1 | a0\n 72988: a0 = u8 [a5 + 17]\n 72991: a1 = u8 [a5 + 16]\n 72994: a2 = u8 [a5 + 18]\n 72997: a3 = u8 [a5 + 19]\n 73000: a0 = a0 <<64 8\n 73003: a0 = a0 | a1\n 73006: a2 = a2 <<64 16\n 73009: a3 = a3 <<64 24\n 73012: a2 = a2 | a3\n 73015: a0 = a0 | a2\n 73018: a1 = u8 [a5 + 21]\n 73021: a2 = u8 [a5 + 20]\n 73024: a3 = u8 [a5 + 22]\n 73027: a4 = u8 [a5 + 23]\n 73030: a1 = a1 <<64 8\n 73033: a1 = a1 | a2\n 73036: a3 = a3 <<64 16\n 73039: a4 = a4 <<64 24\n 73042: a3 = a3 | a4\n 73045: a1 = a1 | a3\n 73048: a1 = a1 <<64 32\n 73051: t2 = a1 | a0\n 73054: a0 = u8 [a5 + 25]\n 73057: a1 = u8 [a5 + 24]\n 73060: a2 = u8 [a5 + 26]\n 73063: a3 = u8 [a5 + 27]\n 73066: a0 = a0 <<64 8\n 73069: a0 = a0 | a1\n 73072: a2 = a2 <<64 16\n 73075: a3 = a3 <<64 24\n 73078: a1 = u8 [a5 + 29]\n 73081: a2 = a2 | a3\n 73084: a3 = a2 | a0\n 73087: a0 = u8 [a5 + 28]\n 73090: a1 = a1 <<64 8\n 73093: a2 = u8 [a5 + 30]\n 73096: a4 = u8 [a5 + 31]\n 73099: a5 = a1 | a0\n 73102: a0 = u64 [s1 + 280]\n 73106: i64 a0 = i64 a0 + 0x1\n 73109: a2 = a2 <<64 16\n 73112: a4 = a4 <<64 24\n 73115: a2 = a2 | a4\n 73118: a1 = a0 <u 0x1\n 73121: a4 = u64 [s1 + 288]\n 73125: i64 a1 = a1 + a4\n 73128: a5 = a5 | a2\n 73131: a2 = a0 | a1\n 73134: a2 = a2 <u 0x1\n 73137: a4 = u64 [s1 + 296]\n 73141: i64 a2 = a2 + a4\n 73144: a5 = a5 <<64 32\n 73147: a5 = a5 | a3\n 73150: a3 = a2 <u a4\n 73153: a4 = u64 [s1 + 304]\n 73157: i64 a3 = a3 + a4\n 73160: a4 = reverse a5\n 73162: a5 = reverse t2\n 73164: t2 = reverse t1\n 73166: t0 = reverse t0\n 73168: i64 sp = i64 sp - i64 8\n 73171: u64 [sp] = t0\n 73173: ra = 900, jump @1084\n      : @1396 [@dyn 450] (gas: 4)\n 73179: i64 sp = i64 sp + 0x8\n 73182: a1 = 0x20\n 73185: a0 = u64 [s1 + 192]\n 73189: ra = 902, jump @0\n      : @1397 [@dyn 451] (gas: 1)\n 73196: jump @1399 if a0 != 0\n      : @1398 (gas: 1)\n 73199: jump @1466\n      : @1399 (gas: 110)\n 73202: a0 = u64 [s1 + 280]\n 73206: i64 a1 = i64 a0 + 0x2\n 73209: u64 [s1 + 272] = a1\n 73213: a3 = a1 <u a0\n 73216: a0 = u64 [s1 + 288]\n 73220: i64 a1 = a0 + a3\n 73223: t2 = a1 <u a0\n 73226: t2 = a3 if a3 == 0\n 73229: a0 = u64 [s1 + 24]\n 73232: a3 = u8 [a0 + 1]\n 73235: a4 = u8 [a0]\n 73237: a5 = u8 [a0 + 2]\n 73240: a2 = u8 [a0 + 3]\n 73243: a3 = a3 <<64 8\n 73246: a3 = a3 | a4\n 73249: a5 = a5 <<64 16\n 73252: a2 = a2 <<64 24\n 73255: a2 = a2 | a5\n 73258: t0 = a2 | a3\n 73261: a3 = u8 [a0 + 5]\n 73264: a4 = u8 [a0 + 4]\n 73267: a5 = u8 [a0 + 6]\n 73270: a2 = u8 [a0 + 7]\n 73273: a3 = a3 <<64 8\n 73276: a3 = a3 | a4\n 73279: a5 = a5 <<64 16\n 73282: a2 = a2 <<64 24\n 73285: a2 = a2 | a5\n 73288: a2 = a2 | a3\n 73291: a2 = a2 <<64 32\n 73294: t0 = a2 | t0\n 73297: a2 = u8 [a0 + 9]\n 73300: a3 = u8 [a0 + 8]\n 73303: a4 = u8 [a0 + 10]\n 73306: a5 = u8 [a0 + 11]\n 73309: a2 = a2 <<64 8\n 73312: a2 = a2 | a3\n 73315: a4 = a4 <<64 16\n 73318: a5 = a5 <<64 24\n 73321: a4 = a4 | a5\n 73324: t1 = a4 | a2\n 73327: a3 = u8 [a0 + 13]\n 73330: a4 = u8 [a0 + 12]\n 73333: a5 = u8 [a0 + 14]\n 73336: a2 = u8 [a0 + 15]\n 73339: a3 = a3 <<64 8\n 73342: a3 = a3 | a4\n 73345: a5 = a5 <<64 16\n 73348: a2 = a2 <<64 24\n 73351: a2 = a2 | a5\n 73354: a2 = a2 | a3\n 73357: a2 = a2 <<64 32\n 73360: t1 = a2 | t1\n 73363: a2 = u8 [a0 + 17]\n 73366: a3 = u8 [a0 + 16]\n 73369: a4 = u8 [a0 + 18]\n 73372: a5 = u8 [a0 + 19]\n 73375: a2 = a2 <<64 8\n 73378: a2 = a2 | a3\n 73381: a4 = a4 <<64 16\n 73384: a5 = a5 <<64 24\n 73387: a4 = a4 | a5\n 73390: ra = a4 | a2\n 73393: a3 = u8 [a0 + 21]\n 73396: a4 = u8 [a0 + 20]\n 73399: a5 = u8 [a0 + 22]\n 73402: a2 = u8 [a0 + 23]\n 73405: a3 = a3 <<64 8\n 73408: a3 = a3 | a4\n 73411: a5 = a5 <<64 16\n 73414: a2 = a2 <<64 24\n 73417: a2 = a2 | a5\n 73420: a2 = a2 | a3\n 73423: a2 = a2 <<64 32\n 73426: ra = a2 | ra\n 73429: a2 = u8 [a0 + 25]\n 73432: a3 = u8 [a0 + 24]\n 73435: a4 = u8 [a0 + 26]\n 73438: a5 = u8 [a0 + 27]\n 73441: a2 = a2 <<64 8\n 73444: a2 = a2 | a3\n 73447: a4 = a4 <<64 16\n 73450: a5 = a5 <<64 24\n 73453: a4 = a4 | a5\n 73456: a4 = a4 | a2\n 73459: a2 = u8 [a0 + 29]\n 73462: a3 = u8 [a0 + 28]\n 73465: a5 = u8 [a0 + 30]\n 73468: a0 = u8 [a0 + 31]\n 73471: a2 = a2 <<64 8\n 73474: a2 = a2 | a3\n 73477: a5 = a5 <<64 16\n 73480: a0 = a0 <<64 24\n 73483: a0 = a0 | a5\n 73486: a0 = a0 | a2\n 73489: a3 = u64 [s1 + 296]\n 73493: i64 a2 = a3 + t2\n 73496: a0 = a0 <<64 32\n 73499: a0 = a0 | a4\n 73502: a3 = a2 <u a3\n 73505: a4 = u64 [s1 + 304]\n 73509: i64 a3 = a3 + a4\n 73512: a4 = reverse a0\n 73514: a5 = reverse ra\n 73516: t2 = reverse t1\n 73518: a0 = reverse t0\n 73520: i64 sp = i64 sp - i64 8\n 73523: u64 [sp] = a0\n 73525: a0 = u64 [s1 + 272]\n 73529: ra = 904, jump @1084\n      : @1400 [@dyn 452] (gas: 4)\n 73535: i64 sp = i64 sp + 0x8\n 73538: a1 = 0x20\n 73541: a0 = u64 [s1 + 176]\n 73545: ra = 906, jump @0\n      : @1401 [@dyn 453] (gas: 1)\n 73552: jump @1403 if a0 != 0\n      : @1402 (gas: 1)\n 73555: jump @1466\n      : @1403 (gas: 159)\n 73558: a0 = u64 [s1 + 280]\n 73562: i64 a2 = i64 a0 + 0x3\n 73565: a1 = a2 <u a0\n 73568: ra = a2\n 73570: u64 [s1 + 88] = a2\n 73573: a0 = u64 [s1 + 288]\n 73577: i64 t0 = a0 + a1\n 73580: t2 = t0 <u a0\n 73583: u64 [s1 + 80] = t0\n 73586: t2 = a1 if a1 == 0\n 73589: a0 = u64 [s1 + 112]\n 73592: a1 = u8 [a0 + 1]\n 73595: a2 = u8 [a0]\n 73597: a3 = u8 [a0 + 2]\n 73600: a4 = u8 [a0 + 3]\n 73603: a1 = a1 <<64 8\n 73606: a1 = a1 | a2\n 73609: a3 = a3 <<64 16\n 73612: a4 = a4 <<64 24\n 73615: a3 = a3 | a4\n 73618: a1 = a1 | a3\n 73621: a2 = u8 [a0 + 5]\n 73624: a3 = u8 [a0 + 4]\n 73627: a4 = u8 [a0 + 6]\n 73630: a5 = u8 [a0 + 7]\n 73633: a2 = a2 <<64 8\n 73636: a2 = a2 | a3\n 73639: a4 = a4 <<64 16\n 73642: a5 = a5 <<64 24\n 73645: a4 = a4 | a5\n 73648: a2 = a2 | a4\n 73651: a2 = a2 <<64 32\n 73654: a1 = a1 | a2\n 73657: u64 [s1 + 272] = a1\n 73661: a2 = u8 [a0 + 9]\n 73664: a3 = u8 [a0 + 8]\n 73667: a4 = u8 [a0 + 10]\n 73670: a5 = u8 [a0 + 11]\n 73673: a2 = a2 <<64 8\n 73676: a2 = a2 | a3\n 73679: a4 = a4 <<64 16\n 73682: a5 = a5 <<64 24\n 73685: a4 = a4 | a5\n 73688: a2 = a2 | a4\n 73691: a3 = u8 [a0 + 13]\n 73694: a4 = u8 [a0 + 12]\n 73697: a5 = u8 [a0 + 14]\n 73700: a1 = u8 [a0 + 15]\n 73703: a3 = a3 <<64 8\n 73706: a3 = a3 | a4\n 73709: a5 = a5 <<64 16\n 73712: a1 = a1 <<64 24\n 73715: a1 = a1 | a5\n 73718: a1 = a1 | a3\n 73721: a1 = a1 <<64 32\n 73724: t1 = a1 | a2\n 73727: a1 = u8 [a0 + 17]\n 73730: a3 = u8 [a0 + 16]\n 73733: a4 = u8 [a0 + 18]\n 73736: a5 = u8 [a0 + 19]\n 73739: a1 = a1 <<64 8\n 73742: a1 = a1 | a3\n 73745: a4 = a4 <<64 16\n 73748: a5 = a5 <<64 24\n 73751: a4 = a4 | a5\n 73754: a1 = a1 | a4\n 73757: a3 = u8 [a0 + 21]\n 73760: a4 = u8 [a0 + 20]\n 73763: a5 = u8 [a0 + 22]\n 73766: a2 = u8 [a0 + 23]\n 73769: a3 = a3 <<64 8\n 73772: a3 = a3 | a4\n 73775: a5 = a5 <<64 16\n 73778: a2 = a2 <<64 24\n 73781: a2 = a2 | a5\n 73784: a2 = a2 | a3\n 73787: a2 = a2 <<64 32\n 73790: a3 = a2 | a1\n 73793: a1 = u8 [a0 + 25]\n 73796: a2 = u8 [a0 + 24]\n 73799: a4 = u8 [a0 + 26]\n 73802: a5 = u8 [a0 + 27]\n 73805: a1 = a1 <<64 8\n 73808: a1 = a1 | a2\n 73811: a4 = a4 <<64 16\n 73814: a5 = a5 <<64 24\n 73817: a4 = a4 | a5\n 73820: a1 = a1 | a4\n 73823: a2 = u8 [a0 + 29]\n 73826: a4 = u8 [a0 + 28]\n 73829: a5 = u8 [a0 + 30]\n 73832: a0 = u8 [a0 + 31]\n 73835: a2 = a2 <<64 8\n 73838: a2 = a2 | a4\n 73841: a5 = a5 <<64 16\n 73844: a0 = a0 <<64 24\n 73847: a0 = a0 | a5\n 73850: a4 = u64 [s1 + 296]\n 73854: i64 t2 = t2 + a4\n 73857: u64 [s1 + 112] = t2\n 73860: a0 = a0 | a2\n 73863: a2 = t2 <u a4\n 73866: a4 = u64 [s1 + 304]\n 73870: i64 a2 = a2 + a4\n 73873: u64 [s1 + 56] = a2\n 73876: a0 = a0 <<64 32\n 73879: a0 = a0 | a1\n 73882: a0 = reverse a0\n 73884: u64 [s1 + 232] = a0\n 73888: a0 = reverse a3\n 73890: u64 [s1 + 192] = a0\n 73894: a0 = reverse t1\n 73896: u64 [s1 + 176] = a0\n 73900: a0 = u64 [s1 + 272]\n 73904: a0 = reverse a0\n 73906: u64 [s1 + 272] = a0\n 73910: u64 [s1 + 808] = t0\n 73914: u64 [s1 + 800] = ra\n 73918: u64 [s1 + 816] = t2\n 73922: u64 [s1 + 824] = a2\n 73926: u64 [s1 + 792] = 0\n 73930: u64 [s1 + 784] = 0\n 73934: u64 [s1 + 776] = 0\n 73938: u64 [s1 + 768] = 0\n 73942: u64 [s1 + 752] = 0\n 73946: u64 [s1 + 760] = 0\n 73950: u64 [s1 + 744] = 0\n 73954: u64 [s1 + 736] = 256\n 73960: a1 = s1 + 0x320\n 73964: a3 = s1 + 0x300\n 73968: a4 = s1 + 0x2e0\n 73972: a2 = 0xffffffff\n 73975: a0 = 0x0\n 73977: ecalli 5 // 'get_storage'\n 73979: a0 = u64 [s1 + 56]\n 73982: u64 [s1 + 856] = a0\n 73986: a0 = u64 [s1 + 112]\n 73989: u64 [s1 + 848] = a0\n 73993: a0 = u64 [s1 + 80]\n 73996: u64 [s1 + 840] = a0\n 74000: a0 = u64 [s1 + 88]\n 74003: u64 [s1 + 832] = a0\n 74007: a0 = u64 [s1 + 272]\n 74011: u64 [s1 + 728] = a0\n 74015: a0 = u64 [s1 + 176]\n 74019: u64 [s1 + 720] = a0\n 74023: a0 = u64 [s1 + 192]\n 74027: u64 [s1 + 712] = a0\n 74031: a0 = u64 [s1 + 232]\n 74035: u64 [s1 + 704] = a0\n 74039: a1 = s1 + 0x340\n 74043: a3 = s1 + 0x2c0\n 74047: a2 = 0xffffffff\n 74050: a4 = 0x20\n 74053: a0 = 0x0\n 74055: ecalli 13 // 'set_storage'\n 74057: a1 = 0x20\n 74060: a0 = u64 [s1 + 168]\n 74064: ra = 908, jump @0\n      : @1404 [@dyn 454] (gas: 1)\n 74071: jump @1406 if a0 != 0\n      : @1405 (gas: 1)\n 74074: jump @1466\n      : @1406 (gas: 159)\n 74077: a0 = u64 [s1 + 280]\n 74081: i64 t0 = i64 a0 + 0x4\n 74084: a1 = t0 <u a0\n 74087: u64 [s1 + 112] = t0\n 74090: a0 = u64 [s1 + 288]\n 74094: i64 a2 = a0 + a1\n 74097: u64 [s1 + 272] = a2\n 74101: ra = a2 <u a0\n 74104: ra = a1 if a1 == 0\n 74107: a0 = u64 [s1 + 104]\n 74110: a1 = u8 [a0 + 1]\n 74113: a2 = u8 [a0]\n 74115: a3 = u8 [a0 + 2]\n 74118: a4 = u8 [a0 + 3]\n 74121: a1 = a1 <<64 8\n 74124: a1 = a1 | a2\n 74127: a3 = a3 <<64 16\n 74130: a4 = a4 <<64 24\n 74133: a3 = a3 | a4\n 74136: a1 = a1 | a3\n 74139: a2 = u8 [a0 + 5]\n 74142: a3 = u8 [a0 + 4]\n 74145: a4 = u8 [a0 + 6]\n 74148: a5 = u8 [a0 + 7]\n 74151: a2 = a2 <<64 8\n 74154: a2 = a2 | a3\n 74157: a4 = a4 <<64 16\n 74160: a5 = a5 <<64 24\n 74163: a4 = a4 | a5\n 74166: a2 = a2 | a4\n 74169: a2 = a2 <<64 32\n 74172: a1 = a1 | a2\n 74175: u64 [s1 + 232] = a1\n 74179: a2 = u8 [a0 + 9]\n 74182: a3 = u8 [a0 + 8]\n 74185: a4 = u8 [a0 + 10]\n 74188: a5 = u8 [a0 + 11]\n 74191: a2 = a2 <<64 8\n 74194: a2 = a2 | a3\n 74197: a4 = a4 <<64 16\n 74200: a5 = a5 <<64 24\n 74203: a4 = a4 | a5\n 74206: a2 = a2 | a4\n 74209: a3 = u8 [a0 + 13]\n 74212: a4 = u8 [a0 + 12]\n 74215: a5 = u8 [a0 + 14]\n 74218: a1 = u8 [a0 + 15]\n 74221: a3 = a3 <<64 8\n 74224: a3 = a3 | a4\n 74227: a5 = a5 <<64 16\n 74230: a1 = a1 <<64 24\n 74233: a1 = a1 | a5\n 74236: a1 = a1 | a3\n 74239: a1 = a1 <<64 32\n 74242: t1 = a1 | a2\n 74245: a1 = u8 [a0 + 17]\n 74248: a3 = u8 [a0 + 16]\n 74251: a4 = u8 [a0 + 18]\n 74254: a5 = u8 [a0 + 19]\n 74257: a1 = a1 <<64 8\n 74260: a1 = a1 | a3\n 74263: a4 = a4 <<64 16\n 74266: a5 = a5 <<64 24\n 74269: a4 = a4 | a5\n 74272: a1 = a1 | a4\n 74275: a3 = u8 [a0 + 21]\n 74278: a4 = u8 [a0 + 20]\n 74281: a5 = u8 [a0 + 22]\n 74284: a2 = u8 [a0 + 23]\n 74287: a3 = a3 <<64 8\n 74290: a3 = a3 | a4\n 74293: a5 = a5 <<64 16\n 74296: a2 = a2 <<64 24\n 74299: a2 = a2 | a5\n 74302: a2 = a2 | a3\n 74305: a2 = a2 <<64 32\n 74308: t2 = a2 | a1\n 74311: a1 = u8 [a0 + 25]\n 74314: a2 = u8 [a0 + 24]\n 74317: a4 = u8 [a0 + 26]\n 74320: a5 = u8 [a0 + 27]\n 74323: a1 = a1 <<64 8\n 74326: a1 = a1 | a2\n 74329: a4 = a4 <<64 16\n 74332: a5 = a5 <<64 24\n 74335: a4 = a4 | a5\n 74338: a1 = a1 | a4\n 74341: a2 = u8 [a0 + 29]\n 74344: a4 = u8 [a0 + 28]\n 74347: a5 = u8 [a0 + 30]\n 74350: a3 = u8 [a0 + 31]\n 74353: a2 = a2 <<64 8\n 74356: a2 = a2 | a4\n 74359: a5 = a5 <<64 16\n 74362: a3 = a3 <<64 24\n 74365: a3 = a3 | a5\n 74368: a2 = a2 | a3\n 74371: a2 = a2 <<64 32\n 74374: a4 = a2 | a1\n 74377: a1 = u64 [s1 + 296]\n 74381: i64 ra = ra + a1\n 74384: u64 [s1 + 104] = ra\n 74387: u64 [s1 + 736] = 256\n 74393: a0 = ra <u a1\n 74396: a1 = u64 [s1 + 304]\n 74400: i64 a1 = a1 + a0\n 74403: u64 [s1 + 88] = a1\n 74406: a0 = reverse a4\n 74408: u64 [s1 + 192] = a0\n 74412: a0 = reverse t2\n 74414: u64 [s1 + 176] = a0\n 74418: a0 = reverse t1\n 74420: u64 [s1 + 168] = a0\n 74424: a0 = u64 [s1 + 232]\n 74428: a0 = reverse a0\n 74430: u64 [s1 + 232] = a0\n 74434: a0 = u64 [s1 + 272]\n 74438: u64 [s1 + 808] = a0\n 74442: u64 [s1 + 800] = t0\n 74446: u64 [s1 + 816] = ra\n 74450: u64 [s1 + 824] = a1\n 74454: u64 [s1 + 792] = 0\n 74458: u64 [s1 + 784] = 0\n 74462: u64 [s1 + 776] = 0\n 74466: u64 [s1 + 768] = 0\n 74470: u64 [s1 + 752] = 0\n 74474: u64 [s1 + 760] = 0\n 74478: u64 [s1 + 744] = 0\n 74482: a1 = s1 + 0x320\n 74486: a3 = s1 + 0x300\n 74490: a4 = s1 + 0x2e0\n 74494: a2 = 0xffffffff\n 74497: a0 = 0x0\n 74499: ecalli 5 // 'get_storage'\n 74501: a0 = u64 [s1 + 88]\n 74504: u64 [s1 + 856] = a0\n 74508: a0 = u64 [s1 + 104]\n 74511: u64 [s1 + 848] = a0\n 74515: a0 = u64 [s1 + 272]\n 74519: u64 [s1 + 840] = a0\n 74523: a0 = u64 [s1 + 112]\n 74526: u64 [s1 + 832] = a0\n 74530: a0 = u64 [s1 + 232]\n 74534: u64 [s1 + 728] = a0\n 74538: a0 = u64 [s1 + 168]\n 74542: u64 [s1 + 720] = a0\n 74546: a0 = u64 [s1 + 176]\n 74550: u64 [s1 + 712] = a0\n 74554: a0 = u64 [s1 + 192]\n 74558: u64 [s1 + 704] = a0\n 74562: a1 = s1 + 0x340\n 74566: a3 = s1 + 0x2c0\n 74570: a2 = 0xffffffff\n 74573: a4 = 0x20\n 74576: a0 = 0x0\n 74578: ecalli 13 // 'set_storage'\n 74580: a1 = 0x20\n 74583: a0 = u64 [s1 + 128]\n 74587: ra = 910, jump @0\n      : @1407 [@dyn 455] (gas: 1)\n 74594: jump @1409 if a0 != 0\n      : @1408 (gas: 1)\n 74597: jump @1466\n      : @1409 (gas: 159)\n 74600: a0 = u64 [s1 + 280]\n 74604: i64 a2 = i64 a0 + 0x5\n 74607: a1 = a2 <u a0\n 74610: ra = a2\n 74612: u64 [s1 + 168] = a2\n 74616: a0 = u64 [s1 + 288]\n 74620: i64 t0 = a0 + a1\n 74623: t2 = t0 <u a0\n 74626: u64 [s1 + 128] = t0\n 74630: t2 = a1 if a1 == 0\n 74633: a0 = u64 [s1 + 96]\n 74636: a1 = u8 [a0 + 1]\n 74639: a2 = u8 [a0]\n 74641: a3 = u8 [a0 + 2]\n 74644: a4 = u8 [a0 + 3]\n 74647: a1 = a1 <<64 8\n 74650: a1 = a1 | a2\n 74653: a3 = a3 <<64 16\n 74656: a4 = a4 <<64 24\n 74659: a3 = a3 | a4\n 74662: a1 = a1 | a3\n 74665: a2 = u8 [a0 + 5]\n 74668: a3 = u8 [a0 + 4]\n 74671: a4 = u8 [a0 + 6]\n 74674: a5 = u8 [a0 + 7]\n 74677: a2 = a2 <<64 8\n 74680: a2 = a2 | a3\n 74683: a4 = a4 <<64 16\n 74686: a5 = a5 <<64 24\n 74689: a4 = a4 | a5\n 74692: a2 = a2 | a4\n 74695: a2 = a2 <<64 32\n 74698: a1 = a1 | a2\n 74701: u64 [s1 + 272] = a1\n 74705: a2 = u8 [a0 + 9]\n 74708: a3 = u8 [a0 + 8]\n 74711: a4 = u8 [a0 + 10]\n 74714: a5 = u8 [a0 + 11]\n 74717: a2 = a2 <<64 8\n 74720: a2 = a2 | a3\n 74723: a4 = a4 <<64 16\n 74726: a5 = a5 <<64 24\n 74729: a4 = a4 | a5\n 74732: a2 = a2 | a4\n 74735: a3 = u8 [a0 + 13]\n 74738: a4 = u8 [a0 + 12]\n 74741: a5 = u8 [a0 + 14]\n 74744: a1 = u8 [a0 + 15]\n 74747: a3 = a3 <<64 8\n 74750: a3 = a3 | a4\n 74753: a5 = a5 <<64 16\n 74756: a1 = a1 <<64 24\n 74759: a1 = a1 | a5\n 74762: a1 = a1 | a3\n 74765: a1 = a1 <<64 32\n 74768: t1 = a1 | a2\n 74771: a1 = u8 [a0 + 17]\n 74774: a3 = u8 [a0 + 16]\n 74777: a4 = u8 [a0 + 18]\n 74780: a5 = u8 [a0 + 19]\n 74783: a1 = a1 <<64 8\n 74786: a1 = a1 | a3\n 74789: a4 = a4 <<64 16\n 74792: a5 = a5 <<64 24\n 74795: a4 = a4 | a5\n 74798: a1 = a1 | a4\n 74801: a3 = u8 [a0 + 21]\n 74804: a4 = u8 [a0 + 20]\n 74807: a5 = u8 [a0 + 22]\n 74810: a2 = u8 [a0 + 23]\n 74813: a3 = a3 <<64 8\n 74816: a3 = a3 | a4\n 74819: a5 = a5 <<64 16\n 74822: a2 = a2 <<64 24\n 74825: a2 = a2 | a5\n 74828: a2 = a2 | a3\n 74831: a2 = a2 <<64 32\n 74834: a3 = a2 | a1\n 74837: a1 = u8 [a0 + 25]\n 74840: a2 = u8 [a0 + 24]\n 74843: a4 = u8 [a0 + 26]\n 74846: a5 = u8 [a0 + 27]\n 74849: a1 = a1 <<64 8\n 74852: a1 = a1 | a2\n 74855: a4 = a4 <<64 16\n 74858: a5 = a5 <<64 24\n 74861: a4 = a4 | a5\n 74864: a1 = a1 | a4\n 74867: a2 = u8 [a0 + 29]\n 74870: a4 = u8 [a0 + 28]\n 74873: a5 = u8 [a0 + 30]\n 74876: a0 = u8 [a0 + 31]\n 74879: a2 = a2 <<64 8\n 74882: a2 = a2 | a4\n 74885: a5 = a5 <<64 16\n 74888: a0 = a0 <<64 24\n 74891: a0 = a0 | a5\n 74894: a4 = u64 [s1 + 296]\n 74898: i64 t2 = t2 + a4\n 74901: u64 [s1 + 112] = t2\n 74904: a0 = a0 | a2\n 74907: a2 = t2 <u a4\n 74910: a4 = u64 [s1 + 304]\n 74914: i64 a2 = a2 + a4\n 74917: u64 [s1 + 104] = a2\n 74920: a0 = a0 <<64 32\n 74923: a0 = a0 | a1\n 74926: a0 = reverse a0\n 74928: u64 [s1 + 232] = a0\n 74932: a0 = reverse a3\n 74934: u64 [s1 + 192] = a0\n 74938: a0 = reverse t1\n 74940: u64 [s1 + 176] = a0\n 74944: a0 = u64 [s1 + 272]\n 74948: a0 = reverse a0\n 74950: u64 [s1 + 272] = a0\n 74954: u64 [s1 + 808] = t0\n 74958: u64 [s1 + 800] = ra\n 74962: u64 [s1 + 816] = t2\n 74966: u64 [s1 + 824] = a2\n 74970: u64 [s1 + 792] = 0\n 74974: u64 [s1 + 784] = 0\n 74978: u64 [s1 + 776] = 0\n 74982: u64 [s1 + 768] = 0\n 74986: u64 [s1 + 752] = 0\n 74990: u64 [s1 + 760] = 0\n 74994: u64 [s1 + 744] = 0\n 74998: u64 [s1 + 736] = 256\n 75004: a1 = s1 + 0x320\n 75008: a3 = s1 + 0x300\n 75012: a4 = s1 + 0x2e0\n 75016: a2 = 0xffffffff\n 75019: a0 = 0x0\n 75021: ecalli 5 // 'get_storage'\n 75023: a0 = u64 [s1 + 104]\n 75026: u64 [s1 + 856] = a0\n 75030: a0 = u64 [s1 + 112]\n 75033: u64 [s1 + 848] = a0\n 75037: a0 = u64 [s1 + 128]\n 75041: u64 [s1 + 840] = a0\n 75045: a0 = u64 [s1 + 168]\n 75049: u64 [s1 + 832] = a0\n 75053: a0 = u64 [s1 + 272]\n 75057: u64 [s1 + 728] = a0\n 75061: a0 = u64 [s1 + 176]\n 75065: u64 [s1 + 720] = a0\n 75069: a0 = u64 [s1 + 192]\n 75073: u64 [s1 + 712] = a0\n 75077: a0 = u64 [s1 + 232]\n 75081: u64 [s1 + 704] = a0\n 75085: a1 = s1 + 0x340\n 75089: a3 = s1 + 0x2c0\n 75093: a2 = 0xffffffff\n 75096: a4 = 0x20\n 75099: a0 = 0x0\n 75101: ecalli 13 // 'set_storage'\n 75103: a1 = 0x20\n 75106: a0 = u64 [s1 + 120]\n 75109: ra = 912, jump @0\n      : @1410 [@dyn 456] (gas: 1)\n 75116: jump @1466 if a0 == 0\n      : @1411 (gas: 162)\n 75120: a0 = u64 [s1 + 280]\n 75124: i64 a1 = i64 a0 + 0x6\n 75127: u64 [s1 + 272] = a1\n 75131: a1 = a1 <u a0\n 75134: a0 = u64 [s1 + 288]\n 75138: i64 a2 = a0 + a1\n 75141: u64 [s1 + 232] = a2\n 75145: t2 = a2 <u a0\n 75148: t2 = a1 if a1 == 0\n 75151: t0 = u64 [s1 + 72]\n 75154: a1 = u8 [t0 + 17]\n 75157: a2 = u8 [t0 + 16]\n 75160: a3 = u8 [t0 + 18]\n 75163: a4 = u8 [t0 + 19]\n 75166: a1 = a1 <<64 8\n 75169: a1 = a1 | a2\n 75172: a3 = a3 <<64 16\n 75175: a4 = a4 <<64 24\n 75178: a3 = a3 | a4\n 75181: a1 = a1 | a3\n 75184: u64 [s1 + 192] = a1\n 75188: a1 = u8 [t0 + 1]\n 75191: a2 = u8 [t0]\n 75193: a3 = u8 [t0 + 2]\n 75196: a4 = u8 [t0 + 3]\n 75199: a1 = a1 <<64 8\n 75202: a1 = a1 | a2\n 75205: a3 = a3 <<64 16\n 75208: a4 = a4 <<64 24\n 75211: a2 = a4 | a3\n 75214: a1 = a1 | a2\n 75217: u64 [s1 + 176] = a1\n 75221: a1 = u8 [t0 + 21]\n 75224: a3 = u8 [t0 + 20]\n 75227: a4 = u8 [t0 + 22]\n 75230: a5 = u8 [t0 + 23]\n 75233: a1 = a1 <<64 8\n 75236: a1 = a1 | a3\n 75239: a4 = a4 <<64 16\n 75242: a5 = a5 <<64 24\n 75245: a3 = a5 | a4\n 75248: a1 = a1 | a3\n 75251: u64 [s1 + 168] = a1\n 75255: a1 = u8 [t0 + 5]\n 75258: a4 = u8 [t0 + 4]\n 75261: a5 = u8 [t0 + 6]\n 75264: a2 = u8 [t0 + 7]\n 75267: a1 = a1 <<64 8\n 75270: a1 = a1 | a4\n 75273: a5 = a5 <<64 16\n 75276: a2 = a2 <<64 24\n 75279: a2 = a2 | a5\n 75282: ra = a2 | a1\n 75285: a1 = u8 [t0 + 25]\n 75288: a2 = u8 [t0 + 24]\n 75291: a5 = u8 [t0 + 26]\n 75294: a3 = u8 [t0 + 27]\n 75297: a1 = a1 <<64 8\n 75300: a1 = a1 | a2\n 75303: a5 = a5 <<64 16\n 75306: a3 = a3 <<64 24\n 75309: a3 = a3 | a5\n 75312: t1 = a3 | a1\n 75315: a1 = u8 [t0 + 9]\n 75318: a2 = u8 [t0 + 8]\n 75321: a3 = u8 [t0 + 10]\n 75324: a4 = u8 [t0 + 11]\n 75327: a1 = a1 <<64 8\n 75330: a1 = a1 | a2\n 75333: a3 = a3 <<64 16\n 75336: a4 = a4 <<64 24\n 75339: a3 = a3 | a4\n 75342: a5 = a3 | a1\n 75345: a2 = u8 [t0 + 29]\n 75348: a3 = u8 [t0 + 28]\n 75351: a4 = u8 [t0 + 30]\n 75354: a0 = u8 [t0 + 31]\n 75357: a2 = a2 <<64 8\n 75360: a2 = a2 | a3\n 75363: a4 = a4 <<64 16\n 75366: a0 = a0 <<64 24\n 75369: a0 = a0 | a4\n 75372: a1 = a0 | a2\n 75375: a2 = u8 [t0 + 13]\n 75378: a3 = u8 [t0 + 12]\n 75381: a4 = u8 [t0 + 14]\n 75384: a0 = u8 [t0 + 15]\n 75387: a2 = a2 <<64 8\n 75390: a2 = a2 | a3\n 75393: a4 = a4 <<64 16\n 75396: a0 = a0 <<64 24\n 75399: a0 = a0 | a4\n 75402: a0 = a0 | a2\n 75405: a0 = a0 | a1\n 75408: a1 = a5 | t1\n 75411: a0 = a0 <<64 32\n 75414: a0 = a0 | a1\n 75417: a1 = u64 [s1 + 168]\n 75421: a1 = ra | a1\n 75424: a2 = u64 [s1 + 192]\n 75428: a3 = u64 [s1 + 176]\n 75432: a2 = a2 | a3\n 75435: a1 = a1 <<64 32\n 75438: a1 = a1 | a2\n 75441: a0 = a0 | a1\n 75444: a1 = u64 [s1 + 296]\n 75448: i64 t2 = t2 + a1\n 75451: u64 [s1 + 176] = t2\n 75455: u64 [s1 + 736] = 256\n 75461: a1 = t2 <u a1\n 75464: a2 = u64 [s1 + 304]\n 75468: i64 a1 = a1 + a2\n 75471: u64 [s1 + 168] = a1\n 75475: a0 = a0 >u 0x0\n 75477: u64 [s1 + 192] = a0\n 75481: a0 = u64 [s1 + 232]\n 75485: u64 [s1 + 808] = a0\n 75489: a0 = u64 [s1 + 272]\n 75493: u64 [s1 + 800] = a0\n 75497: u64 [s1 + 816] = t2\n 75501: u64 [s1 + 824] = a1\n 75505: u64 [s1 + 792] = 0\n 75509: u64 [s1 + 784] = 0\n 75513: u64 [s1 + 776] = 0\n 75517: u64 [s1 + 768] = 0\n 75521: u64 [s1 + 752] = 0\n 75525: u64 [s1 + 760] = 0\n 75529: u64 [s1 + 744] = 0\n 75533: a1 = s1 + 0x320\n 75537: a3 = s1 + 0x300\n 75541: a4 = s1 + 0x2e0\n 75545: a2 = 0xffffffff\n 75548: a0 = 0x0\n 75550: ecalli 5 // 'get_storage'\n 75552: a0 = u64 [s1 + 768]\n 75556: a1 = u64 [s1 + 776]\n 75560: a2 = u64 [s1 + 784]\n 75564: a3 = u64 [s1 + 792]\n 75568: a0 = a0 & 0xffffff00\n 75572: a4 = u64 [s1 + 192]\n 75576: a0 = a0 | a4\n 75579: a4 = u64 [s1 + 168]\n 75583: u64 [s1 + 856] = a4\n 75587: a4 = u64 [s1 + 176]\n 75591: u64 [s1 + 848] = a4\n 75595: a4 = u64 [s1 + 232]\n 75599: u64 [s1 + 840] = a4\n 75603: a4 = u64 [s1 + 272]\n 75607: u64 [s1 + 832] = a4\n 75611: u64 [s1 + 728] = a3\n 75615: u64 [s1 + 720] = a2\n 75619: u64 [s1 + 712] = a1\n 75623: u64 [s1 + 704] = a0\n 75627: a1 = s1 + 0x340\n 75631: a3 = s1 + 0x2c0\n 75635: a2 = 0xffffffff\n 75638: a4 = 0x20\n 75641: a0 = 0x0\n 75643: ecalli 13 // 'set_storage'\n 75645: a1 = 0x20\n 75648: a0 = u64 [s1 + 264]\n 75652: ra = 914, jump @0\n      : @1412 [@dyn 457] (gas: 1)\n 75659: jump @1466 if a0 == 0\n      : @1413 (gas: 188)\n 75663: a0 = u64 [s1 + 280]\n 75667: i64 a1 = i64 a0 + 0x7\n 75670: a0 = a1 <u a0\n 75673: ra = a1\n 75675: u64 [s1 + 232] = a1\n 75679: a1 = u64 [s1 + 288]\n 75683: i64 t0 = a1 + a0\n 75686: a1 = t0 <u a1\n 75689: u64 [s1 + 192] = t0\n 75693: a1 = a0 if a0 == 0\n 75696: a0 = u64 [s1 + 296]\n 75700: i64 a1 = a1 + a0\n 75703: u64 [s1 + 288] = a1\n 75707: a0 = a1 <u a0\n 75710: a1 = u64 [s1 + 304]\n 75714: i64 a0 = a0 + a1\n 75717: u64 [s1 + 304] = a0\n 75721: t2 = u64 [s1 + 64]\n 75724: a0 = u8 [t2 + 1]\n 75727: a1 = u8 [t2]\n 75729: a2 = u8 [t2 + 2]\n 75732: a3 = u8 [t2 + 3]\n 75735: a0 = a0 <<64 8\n 75738: a0 = a0 | a1\n 75741: a2 = a2 <<64 16\n 75744: a3 = a3 <<64 24\n 75747: a2 = a2 | a3\n 75750: a0 = a0 | a2\n 75753: a1 = u8 [t2 + 5]\n 75756: a2 = u8 [t2 + 4]\n 75759: a3 = u8 [t2 + 6]\n 75762: a4 = u8 [t2 + 7]\n 75765: a1 = a1 <<64 8\n 75768: a1 = a1 | a2\n 75771: a3 = a3 <<64 16\n 75774: a4 = a4 <<64 24\n 75777: a3 = a3 | a4\n 75780: a1 = a1 | a3\n 75783: a1 = a1 <<64 32\n 75786: a0 = a0 | a1\n 75789: u64 [s1 + 296] = a0\n 75793: a1 = u8 [t2 + 9]\n 75796: a2 = u8 [t2 + 8]\n 75799: a3 = u8 [t2 + 10]\n 75802: a4 = u8 [t2 + 11]\n 75805: a1 = a1 <<64 8\n 75808: a1 = a1 | a2\n 75811: a3 = a3 <<64 16\n 75814: a4 = a4 <<64 24\n 75817: a3 = a3 | a4\n 75820: a1 = a1 | a3\n 75823: a2 = u8 [t2 + 13]\n 75826: a3 = u8 [t2 + 12]\n 75829: a4 = u8 [t2 + 14]\n 75832: a5 = u8 [t2 + 15]\n 75835: a2 = a2 <<64 8\n 75838: a2 = a2 | a3\n 75841: a4 = a4 <<64 16\n 75844: a5 = a5 <<64 24\n 75847: a4 = a4 | a5\n 75850: a2 = a2 | a4\n 75853: a2 = a2 <<64 32\n 75856: t1 = a2 | a1\n 75859: a2 = u8 [t2 + 17]\n 75862: a3 = u8 [t2 + 16]\n 75865: a4 = u8 [t2 + 18]\n 75868: a5 = u8 [t2 + 19]\n 75871: a2 = a2 <<64 8\n 75874: a2 = a2 | a3\n 75877: a4 = a4 <<64 16\n 75880: a5 = a5 <<64 24\n 75883: a4 = a4 | a5\n 75886: a2 = a2 | a4\n 75889: a3 = u8 [t2 + 21]\n 75892: a4 = u8 [t2 + 20]\n 75895: a5 = u8 [t2 + 22]\n 75898: a0 = u8 [t2 + 23]\n 75901: a3 = a3 <<64 8\n 75904: a3 = a3 | a4\n 75907: a5 = a5 <<64 16\n 75910: a0 = a0 <<64 24\n 75913: a0 = a0 | a5\n 75916: a0 = a0 | a3\n 75919: a0 = a0 <<64 32\n 75922: a2 = a2 | a0\n 75925: a0 = u8 [t2 + 25]\n 75928: a3 = u8 [t2 + 24]\n 75931: a4 = u8 [t2 + 26]\n 75934: a5 = u8 [t2 + 27]\n 75937: a0 = a0 <<64 8\n 75940: a0 = a0 | a3\n 75943: a4 = a4 <<64 16\n 75946: a5 = a5 <<64 24\n 75949: a4 = a4 | a5\n 75952: a0 = a0 | a4\n 75955: a3 = u8 [t2 + 29]\n 75958: a4 = u8 [t2 + 28]\n 75961: a5 = u8 [t2 + 30]\n 75964: a1 = u8 [t2 + 31]\n 75967: a3 = a3 <<64 8\n 75970: a3 = a3 | a4\n 75973: a5 = a5 <<64 16\n 75976: a1 = a1 <<64 24\n 75979: a1 = a1 | a5\n 75982: a1 = a1 | a3\n 75985: a1 = a1 <<64 32\n 75988: a0 = a0 | a1\n 75991: u64 [s1 + 736] = 256\n 75997: a0 = reverse a0\n 75999: u64 [s1 + 280] = a0\n 76003: a0 = reverse a2\n 76005: u64 [s1 + 272] = a0\n 76009: a0 = reverse t1\n 76011: u64 [s1 + 264] = a0\n 76015: a0 = u64 [s1 + 296]\n 76019: a0 = reverse a0\n 76021: u64 [s1 + 296] = a0\n 76025: u64 [s1 + 808] = t0\n 76029: u64 [s1 + 800] = ra\n 76033: a0 = u64 [s1 + 288]\n 76037: u64 [s1 + 816] = a0\n 76041: a0 = u64 [s1 + 304]\n 76045: u64 [s1 + 824] = a0\n 76049: u64 [s1 + 792] = 0\n 76053: u64 [s1 + 784] = 0\n 76057: u64 [s1 + 776] = 0\n 76061: u64 [s1 + 768] = 0\n 76065: u64 [s1 + 752] = 0\n 76069: u64 [s1 + 760] = 0\n 76073: u64 [s1 + 744] = 0\n 76077: a1 = s1 + 0x320\n 76081: a3 = s1 + 0x300\n 76085: a4 = s1 + 0x2e0\n 76089: a2 = 0xffffffff\n 76092: a0 = 0x0\n 76094: ecalli 5 // 'get_storage'\n 76096: a0 = u64 [s1 + 304]\n 76100: u64 [s1 + 856] = a0\n 76104: a0 = u64 [s1 + 288]\n 76108: u64 [s1 + 848] = a0\n 76112: a0 = u64 [s1 + 192]\n 76116: u64 [s1 + 840] = a0\n 76120: a0 = u64 [s1 + 232]\n 76124: u64 [s1 + 832] = a0\n 76128: a0 = u64 [s1 + 296]\n 76132: u64 [s1 + 728] = a0\n 76136: a0 = u64 [s1 + 264]\n 76140: u64 [s1 + 720] = a0\n 76144: a0 = u64 [s1 + 272]\n 76148: u64 [s1 + 712] = a0\n 76152: a0 = u64 [s1 + 280]\n 76156: u64 [s1 + 704] = a0\n 76160: a1 = s1 + 0x340\n 76164: a3 = s1 + 0x2c0\n 76168: a2 = 0xffffffff\n 76171: a4 = 0x20\n 76174: a0 = 0x0\n 76176: ecalli 13 // 'set_storage'\n 76178: a0 = s1 + 0x2a0\n 76182: ecalli 3 // 'caller'\n 76184: a0 = u32 [s1 + 688]\n 76188: u64 [s1 + 112] = a0\n 76191: a0 = u64 [s1 + 680]\n 76195: u64 [s1 + 104] = a0\n 76198: a0 = u64 [s1 + 672]\n 76202: u64 [s1 + 120] = a0\n 76205: i64 a0 = i64 sp - i64 32\n 76208: a0 = a0 & 0xffffffe0\n 76211: u64 [s1 + 304] = a0\n 76215: sp = a0\n 76217: u64 [a0 + 24] = 0\n 76220: u64 [a0 + 16] = 0\n 76223: u64 [a0 + 8] = 0\n 76226: u64 [a0 + 0] = 0\n 76228: a0 = a0 + 0x0\n 76230: ecalli 14 // 'value_transferred'\n 76232: a1 = u64 [s1 + 304]\n 76236: a0 = u64 [a1 + 24]\n 76239: u64 [s1 + 128] = a0\n 76243: a0 = u64 [a1 + 16]\n 76246: u64 [s1 + 168] = a0\n 76250: a0 = u64 [a1 + 8]\n 76253: u64 [s1 + 176] = a0\n 76257: a0 = u64 [a1]\n 76259: u64 [s1 + 192] = a0\n 76263: a0 = 0x40\n 76266: a1 = 0x20\n 76269: ra = 916, jump @0\n      : @1414 [@dyn 458] (gas: 1)\n 76276: jump @1466 if a0 == 0\n      : @1415 (gas: 20)\n 76280: a3 = u64 [s1 + 312]\n 76284: a0 = u64 [a3 + 64]\n 76287: a1 = u64 [a3 + 72]\n 76290: a2 = u64 [a3 + 80]\n 76293: a3 = u64 [a3 + 88]\n 76296: a4 = reverse a0\n 76298: a5 = reverse a1\n 76300: a0 = reverse a2\n 76302: a2 = reverse a3\n 76304: u64 [s1 + 304] = a0\n 76308: u64 [s1 + 288] = a4\n 76312: a0 = a0 | a4\n 76315: a1 = a2 | a5\n 76318: a1 = a1 | a0\n 76321: a1 = a1 >>64 32\n 76324: u64 [s1 + 280] = a5\n 76328: a0 = a0 | a5\n 76331: a0 = a0 <<64 32\n 76334: a0 = a0 | a1\n 76337: jump @1466 if a0 != 0\n      : @1416 (gas: 5)\n 76341: a0 = a2 + 0x0\n 76343: a1 = 0x20\n 76346: u64 [s1 + 272] = a0\n 76350: u64 [s1 + 296] = a2\n 76354: ra = 918, jump @0\n      : @1417 [@dyn 459] (gas: 1)\n 76361: jump @1466 if a0 == 0\n      : @1418 (gas: 89)\n 76365: a0 = u64 [s1 + 312]\n 76369: t2 = u64 [s1 + 272]\n 76373: i64 a5 = a0 + t2\n 76376: a0 = u64 [s1 + 144]\n 76380: a0 = reverse a0\n 76382: a1 = u64 [s1 + 136]\n 76386: a1 = reverse a1\n 76388: a2 = u64 [s1 + 152]\n 76392: a2 = reverse a2\n 76394: a3 = u64 [s1 + 160]\n 76398: a3 = reverse a3\n 76400: u8 [a5 + 24] = a3\n 76403: a4 = a3 >>64 56\n 76406: u8 [a5 + 31] = a4\n 76409: a4 = a3 >>64 48\n 76412: u8 [a5 + 30] = a4\n 76415: a4 = a3 >>64 40\n 76418: u8 [a5 + 29] = a4\n 76421: a4 = a3 >>64 32\n 76424: u8 [a5 + 28] = a4\n 76427: a4 = a3 >>64 24\n 76430: u8 [a5 + 27] = a4\n 76433: a4 = a3 >>64 16\n 76436: u8 [a5 + 26] = a4\n 76439: a3 = a3 >>64 8\n 76442: u8 [a5 + 25] = a3\n 76445: u8 [a5 + 16] = a2\n 76448: a3 = a2 >>64 56\n 76451: u8 [a5 + 23] = a3\n 76454: a3 = a2 >>64 48\n 76457: u8 [a5 + 22] = a3\n 76460: a3 = a2 >>64 40\n 76463: u8 [a5 + 21] = a3\n 76466: a3 = a2 >>64 32\n 76469: u8 [a5 + 20] = a3\n 76472: a3 = a2 >>64 24\n 76475: u8 [a5 + 19] = a3\n 76478: a3 = a2 >>64 16\n 76481: u8 [a5 + 18] = a3\n 76484: a2 = a2 >>64 8\n 76487: u8 [a5 + 17] = a2\n 76490: u8 [a5 + 8] = a1\n 76493: a2 = a1 >>64 56\n 76496: u8 [a5 + 15] = a2\n 76499: a2 = a1 >>64 48\n 76502: u8 [a5 + 14] = a2\n 76505: a2 = a1 >>64 40\n 76508: u8 [a5 + 13] = a2\n 76511: a2 = a1 >>64 32\n 76514: u8 [a5 + 12] = a2\n 76517: a2 = a1 >>64 24\n 76520: u8 [a5 + 11] = a2\n 76523: a2 = a1 >>64 16\n 76526: u8 [a5 + 10] = a2\n 76529: a1 = a1 >>64 8\n 76532: u8 [a5 + 9] = a1\n 76535: u8 [a5] = a0\n 76537: a1 = a0 >>64 56\n 76540: u8 [a5 + 7] = a1\n 76543: a1 = a0 >>64 48\n 76546: u8 [a5 + 6] = a1\n 76549: a1 = a0 >>64 40\n 76552: u8 [a5 + 5] = a1\n 76555: a1 = a0 >>64 32\n 76558: u8 [a5 + 4] = a1\n 76561: a1 = a0 >>64 24\n 76564: u8 [a5 + 3] = a1\n 76567: a1 = a0 >>64 16\n 76570: u8 [a5 + 2] = a1\n 76573: t0 = a0 >>64 8\n 76576: t1 = u64 [s1 + 280]\n 76580: a1 = t1 >u 0x0\n 76582: a3 = u64 [s1 + 288]\n 76586: a0 = a3 >u 0x0\n 76588: a0 = a1 if a3 == 0\n 76591: a1 = 0xffffffdf\n 76601: a2 = u64 [s1 + 296]\n 76605: a1 = a1 <u a2\n 76608: a2 = u64 [s1 + 304]\n 76612: a4 = a2 >u 0x0\n 76614: u64 [s1 + 160] = a4\n 76618: a1 = a4 if a2 != 0\n 76621: a3 = t1 | a3\n 76624: u64 [s1 + 264] = a3\n 76628: u64 [s1 + 232] = a0\n 76632: a1 = a0 if a3 != 0\n 76635: u64 [s1 + 144] = a5\n 76639: u8 [a5 + 1] = t0\n 76642: jump @1466 if a1 != 0\n      : @1419 (gas: 4)\n 76646: a0 = t2 + 0x20\n 76649: a1 = 0x20\n 76652: u64 [s1 + 152] = a0\n 76656: ra = 920, jump @0\n      : @1420 [@dyn 460] (gas: 1)\n 76663: jump @1466 if a0 == 0\n      : @1421 (gas: 56)\n 76667: a0 = u64 [s1 + 296]\n 76671: i64 a5 = i64 a0 + 0x80\n 76675: a0 = a5 <u a0\n 76678: a1 = u64 [s1 + 304]\n 76682: i64 t2 = a1 + a0\n 76685: a1 = t2 <u a1\n 76688: a1 = a0 if a0 == 0\n 76691: a0 = u64 [s1 + 312]\n 76695: a2 = u64 [s1 + 152]\n 76699: i64 a0 = a0 + a2\n 76702: u8 [a0 + 31] = 128\n 76707: a2 = u64 [s1 + 280]\n 76711: i64 a1 = a1 + a2\n 76714: u8 [a0 + 30] = 0\n 76717: u8 [a0 + 29] = 0\n 76720: u8 [a0 + 28] = 0\n 76723: u8 [a0 + 27] = 0\n 76726: u8 [a0 + 26] = 0\n 76729: u8 [a0 + 25] = 0\n 76732: u8 [a0 + 24] = 0\n 76735: u8 [a0 + 23] = 0\n 76738: u8 [a0 + 22] = 0\n 76741: u8 [a0 + 21] = 0\n 76744: u8 [a0 + 20] = 0\n 76747: u8 [a0 + 19] = 0\n 76750: u8 [a0 + 18] = 0\n 76753: u8 [a0 + 17] = 0\n 76756: u8 [a0 + 16] = 0\n 76759: u8 [a0 + 15] = 0\n 76762: u8 [a0 + 14] = 0\n 76765: u8 [a0 + 13] = 0\n 76768: u8 [a0 + 12] = 0\n 76771: u8 [a0 + 11] = 0\n 76774: u8 [a0 + 10] = 0\n 76777: u8 [a0 + 9] = 0\n 76780: u8 [a0 + 8] = 0\n 76783: u8 [a0 + 7] = 0\n 76786: u8 [a0 + 6] = 0\n 76789: u8 [a0 + 5] = 0\n 76792: u8 [a0 + 4] = 0\n 76795: u8 [a0 + 3] = 0\n 76798: u8 [a0 + 2] = 0\n 76801: u8 [a0 + 1] = 0\n 76804: u8 [a0 + 0] = 0\n 76806: a0 = a1 <u a2\n 76809: a2 = u64 [s1 + 288]\n 76813: i64 a0 = a0 + a2\n 76816: i64 sp = i64 sp - i64 16\n 76819: u64 [sp + 8] = a0\n 76822: i64 a0 = i64 s1 + 0x1a0\n 76826: u64 [sp] = a1\n 76828: a1 = u64 [s1 + 200]\n 76832: a2 = u64 [s1 + 208]\n 76836: a3 = u64 [s1 + 216]\n 76840: a4 = u64 [s1 + 224]\n 76844: ra = 922, jump @199\n      : @1422 [@dyn 461] (gas: 11)\n 76851: i64 sp = i64 sp + 0x10\n 76854: a0 = 0xffffffbf\n 76864: a1 = u64 [s1 + 296]\n 76868: a0 = a0 <u a1\n 76871: a1 = u64 [s1 + 160]\n 76875: a2 = u64 [s1 + 304]\n 76879: a0 = a1 if a2 != 0\n 76882: a1 = u64 [s1 + 264]\n 76886: a2 = u64 [s1 + 232]\n 76890: a0 = a2 if a1 != 0\n 76893: jump @1466 if a0 != 0\n      : @1423 (gas: 13)\n 76897: a0 = u64 [s1 + 440]\n 76901: u64 [s1 + 224] = a0\n 76905: a0 = u64 [s1 + 432]\n 76909: u64 [s1 + 232] = a0\n 76913: a0 = u64 [s1 + 424]\n 76917: u64 [s1 + 208] = a0\n 76921: a0 = u64 [s1 + 416]\n 76925: u64 [s1 + 200] = a0\n 76929: a0 = u64 [s1 + 272]\n 76933: a0 = a0 + 0x40\n 76936: a1 = 0x20\n 76939: u64 [s1 + 216] = a0\n 76943: ra = 924, jump @0\n      : @1424 [@dyn 462] (gas: 1)\n 76950: jump @1466 if a0 == 0\n      : @1425 (gas: 79)\n 76954: a0 = u64 [s1 + 312]\n 76958: a1 = u64 [s1 + 216]\n 76962: i64 a0 = a0 + a1\n 76965: a1 = u64 [s1 + 128]\n 76969: a1 = reverse a1\n 76971: a2 = u64 [s1 + 168]\n 76975: a2 = reverse a2\n 76977: a3 = u64 [s1 + 176]\n 76981: a3 = reverse a3\n 76983: a4 = u64 [s1 + 192]\n 76987: a4 = reverse a4\n 76989: u8 [a0 + 24] = a4\n 76992: a5 = a4 >>64 56\n 76995: u8 [a0 + 31] = a5\n 76998: a5 = a4 >>64 48\n 77001: u8 [a0 + 30] = a5\n 77004: a5 = a4 >>64 40\n 77007: u8 [a0 + 29] = a5\n 77010: a5 = a4 >>64 32\n 77013: u8 [a0 + 28] = a5\n 77016: a5 = a4 >>64 24\n 77019: u8 [a0 + 27] = a5\n 77022: a5 = a4 >>64 16\n 77025: u8 [a0 + 26] = a5\n 77028: a4 = a4 >>64 8\n 77031: u8 [a0 + 25] = a4\n 77034: u8 [a0 + 16] = a3\n 77037: a4 = a3 >>64 56\n 77040: u8 [a0 + 23] = a4\n 77043: a4 = a3 >>64 48\n 77046: u8 [a0 + 22] = a4\n 77049: a4 = a3 >>64 40\n 77052: u8 [a0 + 21] = a4\n 77055: a4 = a3 >>64 32\n 77058: u8 [a0 + 20] = a4\n 77061: a4 = a3 >>64 24\n 77064: u8 [a0 + 19] = a4\n 77067: a4 = a3 >>64 16\n 77070: u8 [a0 + 18] = a4\n 77073: a3 = a3 >>64 8\n 77076: u8 [a0 + 17] = a3\n 77079: u8 [a0 + 8] = a2\n 77082: a3 = a2 >>64 56\n 77085: u8 [a0 + 15] = a3\n 77088: a3 = a2 >>64 48\n 77091: u8 [a0 + 14] = a3\n 77094: a3 = a2 >>64 40\n 77097: u8 [a0 + 13] = a3\n 77100: a3 = a2 >>64 32\n 77103: u8 [a0 + 12] = a3\n 77106: a3 = a2 >>64 24\n 77109: u8 [a0 + 11] = a3\n 77112: a3 = a2 >>64 16\n 77115: u8 [a0 + 10] = a3\n 77118: a2 = a2 >>64 8\n 77121: u8 [a0 + 9] = a2\n 77124: u8 [a0] = a1\n 77126: a2 = a1 >>64 56\n 77129: u8 [a0 + 7] = a2\n 77132: a2 = a1 >>64 48\n 77135: u8 [a0 + 6] = a2\n 77138: a2 = a1 >>64 40\n 77141: u8 [a0 + 5] = a2\n 77144: a2 = a1 >>64 32\n 77147: u8 [a0 + 4] = a2\n 77150: a2 = a1 >>64 24\n 77153: u8 [a0 + 3] = a2\n 77156: a2 = a1 >>64 16\n 77159: u8 [a0 + 2] = a2\n 77162: a1 = a1 >>64 8\n 77165: a2 = 0xffffffa0\n 77175: a3 = u64 [s1 + 296]\n 77179: a2 = a3 <u a2\n 77182: a3 = u64 [s1 + 304]\n 77186: a2 = 0 if a3 != 0\n 77188: a3 = u64 [s1 + 264]\n 77192: a2 = 0 if a3 != 0\n 77194: u8 [a0 + 1] = a1\n 77197: jump @1466 if a2 == 0\n      : @1426 (gas: 5)\n 77201: a0 = u64 [s1 + 272]\n 77205: a0 = a0 + 0x60\n 77208: a1 = 0x20\n 77211: u64 [s1 + 264] = a0\n 77215: ra = 926, jump @0\n      : @1427 [@dyn 463] (gas: 1)\n 77222: jump @1466 if a0 == 0\n      : @1428 (gas: 104)\n 77226: t0 = u64 [s1 + 296]\n 77230: t1 = u64 [s1 + 200]\n 77234: a5 = t1 <u t0\n 77237: a2 = u64 [s1 + 304]\n 77241: ra = u64 [s1 + 208]\n 77245: a1 = ra ^ a2\n 77248: a3 = ra <u a2\n 77251: a3 = a5 if a1 == 0\n 77254: a0 = u64 [s1 + 280]\n 77258: a4 = u64 [s1 + 232]\n 77262: i64 t2 = i64 a4 - i64 a0\n 77265: i64 a1 = i64 t2 - i64 a3\n 77268: u64 [s1 + 216] = a1\n 77272: t2 = t2 <u a3\n 77275: a3 = a4 <u a0\n 77278: a0 = u64 [s1 + 288]\n 77282: a4 = u64 [s1 + 224]\n 77286: i64 a4 = i64 a4 - i64 a0\n 77289: i64 a4 = i64 a4 - i64 a3\n 77292: i64 t2 = i64 a4 - i64 t2\n 77295: i64 a3 = i64 ra - i64 a2\n 77298: i64 a3 = i64 a3 - i64 a5\n 77301: i64 a4 = i64 t1 - i64 t0\n 77304: a0 = u64 [s1 + 312]\n 77308: a1 = u64 [s1 + 264]\n 77312: i64 a0 = a0 + a1\n 77315: a1 = reverse a4\n 77317: a4 = a1 >>64 56\n 77320: u8 [a0 + 31] = a4\n 77323: a4 = a1 >>64 48\n 77326: u8 [a0 + 30] = a4\n 77329: a4 = a1 >>64 40\n 77332: u8 [a0 + 29] = a4\n 77335: a4 = a1 >>64 32\n 77338: u8 [a0 + 28] = a4\n 77341: a4 = a1 >>64 24\n 77344: u8 [a0 + 27] = a4\n 77347: a4 = a1 >>64 16\n 77350: u8 [a0 + 26] = a4\n 77353: a3 = reverse a3\n 77355: u8 [a0 + 24] = a1\n 77358: a4 = a1 >>64 8\n 77361: u8 [a0 + 25] = a4\n 77364: a4 = a3 >>64 56\n 77367: u8 [a0 + 23] = a4\n 77370: a4 = a3 >>64 48\n 77373: u8 [a0 + 22] = a4\n 77376: a4 = a3 >>64 40\n 77379: u8 [a0 + 21] = a4\n 77382: a4 = a3 >>64 32\n 77385: u8 [a0 + 20] = a4\n 77388: a4 = a3 >>64 24\n 77391: u8 [a0 + 19] = a4\n 77394: a4 = a3 >>64 16\n 77397: u8 [a0 + 18] = a4\n 77400: a1 = u64 [s1 + 216]\n 77404: a2 = reverse a1\n 77406: u8 [a0 + 16] = a3\n 77409: a3 = a3 >>64 8\n 77412: u8 [a0 + 17] = a3\n 77415: a3 = a2 >>64 56\n 77418: u8 [a0 + 15] = a3\n 77421: a3 = a2 >>64 48\n 77424: u8 [a0 + 14] = a3\n 77427: a3 = a2 >>64 40\n 77430: u8 [a0 + 13] = a3\n 77433: a3 = a2 >>64 32\n 77436: u8 [a0 + 12] = a3\n 77439: a3 = a2 >>64 24\n 77442: u8 [a0 + 11] = a3\n 77445: a3 = a2 >>64 16\n 77448: u8 [a0 + 10] = a3\n 77451: a1 = reverse t2\n 77453: u8 [a0 + 8] = a2\n 77456: a2 = a2 >>64 8\n 77459: u8 [a0 + 9] = a2\n 77462: a2 = a1 >>64 56\n 77465: u8 [a0 + 7] = a2\n 77468: a2 = a1 >>64 48\n 77471: u8 [a0 + 6] = a2\n 77474: a2 = a1 >>64 40\n 77477: u8 [a0 + 5] = a2\n 77480: a2 = a1 >>64 32\n 77483: u8 [a0 + 4] = a2\n 77486: a2 = a1 >>64 24\n 77489: u8 [a0 + 3] = a2\n 77492: a2 = a1 >>64 16\n 77495: u8 [a0 + 2] = a2\n 77498: u8 [a0] = a1\n 77500: a1 = a1 >>64 8\n 77503: u8 [a0 + 1] = a1\n 77506: i64 sp = i64 sp - i64 16\n 77509: a0 = u64 [s1 + 224]\n 77513: u64 [sp + 8] = a0\n 77516: i64 a0 = i64 s1 + 0x180\n 77520: a1 = u64 [s1 + 232]\n 77524: u64 [sp] = a1\n 77526: a1 = u64 [s1 + 240]\n 77530: a2 = u64 [s1 + 248]\n 77534: a3 = u64 [s1 + 256]\n 77538: a4 = u64 [s1 + 184]\n 77542: a5 = t1\n 77544: t2 = ra\n 77546: ra = 928, jump @199\n      : @1429 [@dyn 464] (gas: 32)\n 77553: i64 sp = i64 sp + 0x10\n 77556: a1 = u64 [s1 + 392]\n 77560: t0 = u64 [s1 + 408]\n 77564: t1 = u64 [s1 + 384]\n 77568: a3 = u64 [s1 + 400]\n 77572: a0 = u64 [s1 + 304]\n 77576: a4 = a1 ^ a0\n 77579: a5 = a1 <u a0\n 77582: ra = a0\n 77584: t2 = u64 [s1 + 296]\n 77588: a2 = t1 <u t2\n 77591: a5 = a2 if a4 == 0\n 77594: a0 = u64 [s1 + 280]\n 77598: i64 a4 = i64 a3 - i64 a0\n 77601: a3 = a3 <u a0\n 77604: a0 = u64 [s1 + 288]\n 77608: i64 a0 = i64 t0 - i64 a0\n 77611: i64 a0 = i64 a0 - i64 a3\n 77614: a3 = a4 <u a5\n 77617: i64 a0 = i64 a0 - i64 a3\n 77620: i64 a4 = i64 a4 - i64 a5\n 77623: i64 a1 = i64 a1 - i64 ra\n 77626: i64 a1 = i64 a1 - i64 a2\n 77629: a0 = a0 | a1\n 77632: i64 a1 = i64 t1 - i64 t2\n 77635: a1 = a1 | a4\n 77638: a1 = a1 | a0\n 77641: a0 = a0 | a4\n 77644: a1 = a1 >>64 32\n 77647: a0 = a0 <<64 32\n 77650: a0 = a0 | a1\n 77653: jump @1466 if a0 != 0\n      : @1430 (gas: 4)\n 77657: a1 = t1 - t2\n 77660: a0 = u64 [s1 + 272]\n 77664: u64 [s1 + 312] = a1\n 77668: ra = 930, jump @0\n      : @1431 [@dyn 465] (gas: 1)\n 77675: jump @1466 if a0 == 0\n      : @1432 (gas: 41)\n 77679: t1 = u64 [s1 + 120]\n 77682: a0 = reverse t1\n 77684: a0 = a0 <<64 32\n 77687: a1 = u64 [s1 + 104]\n 77690: a2 = reverse a1\n 77692: a1 = a2 >>64 32\n 77695: t0 = a0 | a1\n 77698: a2 = a2 <<64 32\n 77701: a0 = u64 [s1 + 112]\n 77704: a0 = reverse a0\n 77706: a0 = a0 >>64 32\n 77709: a2 = a2 | a0\n 77712: i64 a0 = i64 sp - i64 64\n 77715: a0 = a0 & 0xffffffe0\n 77718: sp = a0\n 77720: a3 = u64 [0x20020]\n 77725: a4 = u64 [0x20028]\n 77730: a5 = u64 [0x20030]\n 77735: a1 = u64 [0x20038]\n 77740: u64 [a0 + 24] = a3\n 77743: u64 [a0 + 16] = a4\n 77746: u64 [a0 + 8] = a5\n 77749: u64 [a0] = a1\n 77751: a1 = reverse a2\n 77753: a2 = reverse t0\n 77755: a3 = t1 <<64 32\n 77758: u64 [a0 + 48] = a2\n 77761: u64 [a0 + 40] = a3\n 77764: u64 [a0 + 32] = 0\n 77767: u64 [a0 + 56] = a1\n 77770: a2 = i32 [s1 + 144]\n 77774: a0 = a0 + 0x0\n 77776: a1 = 0x2\n 77779: a3 = u64 [s1 + 312]\n 77783: ecalli 4 // 'deposit_event'\n 77785: i64 sp = i64 s0 - i64 896\n 77789: ra = u64 [sp + 888]\n 77793: s0 = u64 [sp + 880]\n 77797: s1 = u64 [sp + 872]\n 77801: i64 sp = i64 sp + 0x380\n 77805: ret\n      : @1433 (gas: 3)\n 77807: a0 = 0x40\n 77810: a1 = 0x20\n 77813: ra = 932, jump @0\n      : @1434 [@dyn 466] (gas: 1)\n 77820: jump @1466 if a0 == 0\n      : @1435 (gas: 22)\n 77824: a3 = 0x20050\n 77829: a0 = u64 [0x20098]\n 77834: a1 = u64 [0x20090]\n 77839: a2 = u64 [0x200a0]\n 77844: u64 [s1 + 280] = a3\n 77848: a3 = u64 [0x200a8]\n 77853: a4 = reverse a0\n 77855: a5 = reverse a1\n 77857: a0 = reverse a2\n 77859: a1 = reverse a3\n 77861: u64 [s1 + 304] = a0\n 77865: u64 [s1 + 288] = a5\n 77869: a0 = a0 | a5\n 77872: u64 [s1 + 312] = a1\n 77876: a1 = a1 | a4\n 77879: a1 = a1 | a0\n 77882: a1 = a1 >>64 32\n 77885: u64 [s1 + 296] = a4\n 77889: a0 = a0 | a4\n 77892: a0 = a0 <<64 32\n 77895: a0 = a0 | a1\n 77898: jump @1466 if a0 != 0\n      : @1436 (gas: 4)\n 77902: a0 = i32 [s1 + 312]\n 77906: a1 = 0x20\n 77909: u64 [s1 + 272] = a0\n 77913: ra = 934, jump @0\n      : @1437 [@dyn 467] (gas: 1)\n 77920: jump @1466 if a0 == 0\n      : @1438 (gas: 50)\n 77924: a0 = u64 [s1 + 272]\n 77928: a1 = u64 [s1 + 280]\n 77932: i64 a1 = a1 + a0\n 77935: u8 [a1 + 31] = 0\n 77938: u8 [a1 + 30] = 0\n 77941: u8 [a1 + 29] = 0\n 77944: u8 [a1 + 28] = 0\n 77947: u8 [a1 + 27] = 0\n 77950: u8 [a1 + 26] = 0\n 77953: u8 [a1 + 25] = 0\n 77956: u8 [a1 + 24] = 0\n 77959: u8 [a1 + 23] = 0\n 77962: u8 [a1 + 22] = 0\n 77965: u8 [a1 + 21] = 0\n 77968: u8 [a1 + 20] = 0\n 77971: u8 [a1 + 19] = 0\n 77974: u8 [a1 + 18] = 0\n 77977: u8 [a1 + 17] = 0\n 77980: u8 [a1 + 16] = 0\n 77983: u8 [a1 + 15] = 0\n 77986: u8 [a1 + 14] = 0\n 77989: u8 [a1 + 13] = 0\n 77992: u8 [a1 + 12] = 0\n 77995: u8 [a1 + 11] = 0\n 77998: u8 [a1 + 10] = 0\n 78001: u8 [a1 + 9] = 0\n 78004: u8 [a1 + 8] = 0\n 78007: u8 [a1 + 7] = 0\n 78010: u8 [a1 + 6] = 0\n 78013: u8 [a1 + 5] = 0\n 78016: u8 [a1 + 4] = 0\n 78019: u8 [a1 + 3] = 160\n 78024: u8 [a1 + 2] = 121\n 78028: u8 [a1 + 1] = 195\n 78033: u64 [s1 + 280] = a1\n 78037: u8 [a1 + 0] = 8\n 78040: a0 = u64 [s1 + 312]\n 78044: i64 a1 = i64 a0 + 0x4\n 78047: a0 = a1 <u a0\n 78050: a3 = u64 [s1 + 304]\n 78054: i64 a2 = a3 + a0\n 78057: a3 = a2 <u a3\n 78060: a3 = a0 if a0 == 0\n 78063: a0 = u64 [s1 + 296]\n 78067: i64 a3 = a3 + a0\n 78070: a4 = a3 <u a0\n 78073: a0 = u64 [s1 + 288]\n 78077: i64 a4 = a4 + a0\n 78080: i64 a0 = i64 s1 + 0x140\n 78084: ra = 936, jump @1294\n      : @1439 [@dyn 468] (gas: 31)\n 78090: a1 = u64 [s1 + 328]\n 78094: t0 = u64 [s1 + 344]\n 78098: t1 = u64 [s1 + 320]\n 78102: a3 = u64 [s1 + 336]\n 78106: a0 = u64 [s1 + 304]\n 78110: a4 = a1 ^ a0\n 78113: a5 = a1 <u a0\n 78116: ra = a0\n 78118: t2 = u64 [s1 + 312]\n 78122: a2 = t1 <u t2\n 78125: a5 = a2 if a4 == 0\n 78128: a0 = u64 [s1 + 296]\n 78132: i64 a4 = i64 a3 - i64 a0\n 78135: a3 = a3 <u a0\n 78138: a0 = u64 [s1 + 288]\n 78142: i64 a0 = i64 t0 - i64 a0\n 78145: i64 a0 = i64 a0 - i64 a3\n 78148: a3 = a4 <u a5\n 78151: i64 a0 = i64 a0 - i64 a3\n 78154: i64 a4 = i64 a4 - i64 a5\n 78157: i64 a1 = i64 a1 - i64 ra\n 78160: i64 a1 = i64 a1 - i64 a2\n 78163: a0 = a0 | a1\n 78166: i64 a1 = i64 t1 - i64 t2\n 78169: a1 = a1 | a4\n 78172: a1 = a1 | a0\n 78175: a0 = a0 | a4\n 78178: a1 = a1 >>64 32\n 78181: a0 = a0 <<64 32\n 78184: a0 = a0 | a1\n 78187: jump @1466 if a0 != 0\n      : @1440 (gas: 5)\n 78191: a0 = u64 [s1 + 312]\n 78195: a1 = t1 - a0\n 78198: a0 = u64 [s1 + 272]\n 78202: u64 [s1 + 312] = a1\n 78206: ra = 938, jump @0\n      : @1441 [@dyn 469] (gas: 1)\n 78213: jump @1466 if a0 == 0\n      : @1442 (gas: 5)\n 78217: a1 = i32 [s1 + 280]\n 78221: a0 = 0x1\n 78224: a2 = u64 [s1 + 312]\n 78228: ecalli 11 // 'seal_return'\n 78230: fallthrough\n      : @1443 (gas: 3)\n 78231: a0 = 0x40\n 78234: a1 = 0x20\n 78237: ra = 940, jump @0\n      : @1444 [@dyn 470] (gas: 1)\n 78244: jump @1466 if a0 == 0\n      : @1445 (gas: 21)\n 78248: a3 = u64 [s1 + 312]\n 78252: a0 = u64 [a3 + 72]\n 78255: a1 = u64 [a3 + 64]\n 78258: a2 = u64 [a3 + 80]\n 78261: a3 = u64 [a3 + 88]\n 78264: a4 = reverse a0\n 78266: a5 = reverse a1\n 78268: a0 = reverse a2\n 78270: a1 = reverse a3\n 78272: u64 [s1 + 296] = a0\n 78276: u64 [s1 + 280] = a5\n 78280: a0 = a0 | a5\n 78283: u64 [s1 + 304] = a1\n 78287: a1 = a1 | a4\n 78290: a1 = a1 | a0\n 78293: a1 = a1 >>64 32\n 78296: u64 [s1 + 288] = a4\n 78300: a0 = a0 | a4\n 78303: a0 = a0 <<64 32\n 78306: a0 = a0 | a1\n 78309: jump @1466 if a0 != 0\n      : @1446 (gas: 4)\n 78313: a0 = i32 [s1 + 304]\n 78317: a1 = 0x20\n 78320: u64 [s1 + 272] = a0\n 78324: ra = 942, jump @0\n      : @1447 [@dyn 471] (gas: 1)\n 78331: jump @1466 if a0 == 0\n      : @1448 (gas: 50)\n 78335: a0 = u64 [s1 + 312]\n 78339: a1 = u64 [s1 + 272]\n 78343: i64 a1 = a1 + a0\n 78346: u8 [a1 + 31] = 0\n 78349: u8 [a1 + 30] = 0\n 78352: u8 [a1 + 29] = 0\n 78355: u8 [a1 + 28] = 0\n 78358: u8 [a1 + 27] = 0\n 78361: u8 [a1 + 26] = 0\n 78364: u8 [a1 + 25] = 0\n 78367: u8 [a1 + 24] = 0\n 78370: u8 [a1 + 23] = 0\n 78373: u8 [a1 + 22] = 0\n 78376: u8 [a1 + 21] = 0\n 78379: u8 [a1 + 20] = 0\n 78382: u8 [a1 + 19] = 0\n 78385: u8 [a1 + 18] = 0\n 78388: u8 [a1 + 17] = 0\n 78391: u8 [a1 + 16] = 0\n 78394: u8 [a1 + 15] = 0\n 78397: u8 [a1 + 14] = 0\n 78400: u8 [a1 + 13] = 0\n 78403: u8 [a1 + 12] = 0\n 78406: u8 [a1 + 11] = 0\n 78409: u8 [a1 + 10] = 0\n 78412: u8 [a1 + 9] = 0\n 78415: u8 [a1 + 8] = 0\n 78418: u8 [a1 + 7] = 0\n 78421: u8 [a1 + 6] = 0\n 78424: u8 [a1 + 5] = 0\n 78427: u8 [a1 + 4] = 0\n 78430: u8 [a1 + 3] = 160\n 78435: u8 [a1 + 2] = 121\n 78439: u8 [a1 + 1] = 195\n 78444: u64 [s1 + 312] = a1\n 78448: u8 [a1 + 0] = 8\n 78451: a0 = u64 [s1 + 304]\n 78455: i64 a1 = i64 a0 + 0x4\n 78458: a0 = a1 <u a0\n 78461: a3 = u64 [s1 + 296]\n 78465: i64 a2 = a3 + a0\n 78468: a3 = a2 <u a3\n 78471: a3 = a0 if a0 == 0\n 78474: a0 = u64 [s1 + 288]\n 78478: i64 a3 = a3 + a0\n 78481: a4 = a3 <u a0\n 78484: a0 = u64 [s1 + 280]\n 78488: i64 a4 = a4 + a0\n 78491: i64 a0 = i64 s1 + 0x160\n 78495: ra = 944, jump @1305\n      : @1449 [@dyn 472] (gas: 31)\n 78501: a1 = u64 [s1 + 360]\n 78505: t0 = u64 [s1 + 376]\n 78509: t1 = u64 [s1 + 352]\n 78513: a3 = u64 [s1 + 368]\n 78517: a0 = u64 [s1 + 296]\n 78521: a4 = a1 ^ a0\n 78524: a5 = a1 <u a0\n 78527: ra = a0\n 78529: t2 = u64 [s1 + 304]\n 78533: a2 = t1 <u t2\n 78536: a5 = a2 if a4 == 0\n 78539: a0 = u64 [s1 + 288]\n 78543: i64 a4 = i64 a3 - i64 a0\n 78546: a3 = a3 <u a0\n 78549: a0 = u64 [s1 + 280]\n 78553: i64 a0 = i64 t0 - i64 a0\n 78556: i64 a0 = i64 a0 - i64 a3\n 78559: a3 = a4 <u a5\n 78562: i64 a0 = i64 a0 - i64 a3\n 78565: i64 a4 = i64 a4 - i64 a5\n 78568: i64 a1 = i64 a1 - i64 ra\n 78571: i64 a1 = i64 a1 - i64 a2\n 78574: a0 = a0 | a1\n 78577: i64 a1 = i64 t1 - i64 t2\n 78580: a1 = a1 | a4\n 78583: a1 = a1 | a0\n 78586: a0 = a0 | a4\n 78589: a1 = a1 >>64 32\n 78592: a0 = a0 <<64 32\n 78595: a0 = a0 | a1\n 78598: jump @1466 if a0 != 0\n      : @1450 (gas: 5)\n 78602: a0 = u64 [s1 + 304]\n 78606: a1 = t1 - a0\n 78609: a0 = u64 [s1 + 272]\n 78613: u64 [s1 + 304] = a1\n 78617: ra = 946, jump @0\n      : @1451 [@dyn 473] (gas: 1)\n 78624: jump @1466 if a0 == 0\n      : @1452 (gas: 5)\n 78628: a1 = i32 [s1 + 312]\n 78632: a0 = 0x1\n 78635: a2 = u64 [s1 + 304]\n 78639: ecalli 11 // 'seal_return'\n 78641: fallthrough\n      : @1453 (gas: 3)\n 78642: a1 = 0x20\n 78645: a0 = 0x0\n 78647: ra = 948, jump @0\n      : @1454 [@dyn 474] (gas: 1)\n 78654: jump @1466 if a0 == 0\n      : @1455 (gas: 8)\n 78658: a1 = u64 [s1 + 312]\n 78662: u64 [a1 + 24] = 0\n 78665: u64 [a1 + 16] = 0\n 78668: u64 [a1 + 8] = 0\n 78671: u64 [a1 + 0] = 1903904846\n 78677: a0 = 0x4\n 78680: a1 = 0x20\n 78683: ra = 950, jump @0\n      : @1456 [@dyn 475] (gas: 1)\n 78690: jump @1466 if a0 == 0\n      : @1457 (gas: 2)\n 78693: a0 = 0x21000000\n 78699: jump @1464\n      : @1458 (gas: 4)\n 78701: a1 = 0x20\n 78704: a0 = 0x0\n 78706: ra = 0x3b8\n 78710: jump @0\n      : @1459 (gas: 2)\n 78714: a1 = 0x20\n 78717: ra = 952, jump @0\n      : @1460 [@dyn 476] (gas: 1)\n 78724: jump @1466 if a0 == 0\n      : @1461 (gas: 8)\n 78727: a1 = u64 [s1 + 312]\n 78731: u64 [a1 + 24] = 0\n 78734: u64 [a1 + 16] = 0\n 78737: u64 [a1 + 8] = 0\n 78740: u64 [a1 + 0] = 1903904846\n 78746: a0 = 0x4\n 78749: a1 = 0x20\n 78752: ra = 954, jump @0\n      : @1462 [@dyn 477] (gas: 1)\n 78759: jump @1466 if a0 == 0\n      : @1463 (gas: 2)\n 78762: a0 = 0x11000000\n 78768: fallthrough\n      : @1464 (gas: 12)\n 78769: a1 = u64 [s1 + 312]\n 78773: u32 [a1 + 32] = a0\n 78776: u32 [a1 + 28] = 0\n 78779: u32 [a1 + 24] = 0\n 78782: u32 [a1 + 20] = 0\n 78785: u32 [a1 + 16] = 0\n 78788: u32 [a1 + 12] = 0\n 78791: u32 [a1 + 8] = 0\n 78794: u32 [a1 + 4] = 0\n 78797: a1 = 0x24\n 78800: a0 = 0x0\n 78802: ra = 956, jump @0\n      : @1465 [@dyn 478] (gas: 1)\n 78809: jump @1467 if a0 != 0\n      : @1466 (gas: 1)\n 78812: trap\n      : @1467 (gas: 6)\n 78813: a1 = i32 [s1 + 312]\n 78817: a0 = 0x1\n 78820: a2 = 0x24\n 78823: ra = 0x3be\n 78827: ecalli 11 // 'seal_return'\n 78829: fallthrough\n      : @1468 [@dyn 479] (gas: 13)\n 78830: i64 sp = i64 sp - i64 120\n 78833: u64 [sp + 112] = ra\n 78836: u64 [sp + 104] = s0\n 78839: u64 [sp + 96] = s1\n 78842: s0 = a4\n 78844: s1 = a3\n 78846: a4 = a4 | a3\n 78849: u64 [sp + 80] = a2\n 78852: a3 = a2 <u 0x1\n 78855: a3 = 0 if a4 != 0\n 78857: u64 [sp + 72] = a1\n 78860: u64 [sp + 16] = a0\n 78863: jump @1482 if a3 == 0\n      : @1469 (gas: 3)\n 78867: a0 = 0x40\n 78870: a1 = 0x20\n 78873: ra = 960, jump @0\n      : @1470 [@dyn 480] (gas: 1)\n 78880: jump @1488 if a0 == 0\n      : @1471 (gas: 39)\n 78884: a0 = s1 >>64 59\n 78887: u64 [sp + 32] = s0\n 78890: a1 = s0 <<64 5\n 78893: a0 = a0 | a1\n 78896: a3 = u64 [sp + 80]\n 78899: a1 = a3 >>64 59\n 78902: u64 [sp + 24] = s1\n 78905: a2 = s1 <<64 5\n 78908: a1 = a1 | a2\n 78911: a4 = u64 [sp + 72]\n 78914: a2 = a4 >>64 59\n 78917: a3 = a3 <<64 5\n 78920: a2 = a2 | a3\n 78923: a3 = a4 <<64 5\n 78926: i64 a4 = i64 a3 + 0x20\n 78929: u64 [sp + 8] = a3\n 78932: a3 = a4 <u a3\n 78935: i64 a5 = a2 + a3\n 78938: t2 = a5 <u a2\n 78941: t2 = a3 if a3 == 0\n 78944: i64 t2 = t2 + a1\n 78947: a1 = t2 <u a1\n 78950: i64 t0 = a0 + a1\n 78953: a0 = 0x20050\n 78958: a1 = u64 [0x20090]\n 78963: a2 = u64 [0x20098]\n 78968: s0 = u64 [0x200a0]\n 78973: u64 [sp + 40] = a0\n 78976: a0 = u64 [0x200a8]\n 78981: a3 = reverse a1\n 78983: u64 [sp + 88] = a3\n 78986: s1 = reverse a2\n 78988: s0 = reverse s0\n 78990: a0 = reverse a0\n 78992: u64 [sp + 64] = a0\n 78995: u64 [sp] = t0\n 78997: a1 = s0\n 78999: a2 = s1\n 79001: ra = 962, jump @119\n      : @1472 [@dyn 481] (gas: 12)\n 79008: u64 [sp + 56] = s0\n 79011: a0 = u64 [sp + 88]\n 79014: a0 = a0 | s0\n 79017: s0 = u64 [sp + 64]\n 79020: a1 = s0 | s1\n 79023: a1 = a1 | a0\n 79026: a1 = a1 >>64 32\n 79029: u64 [sp + 48] = s1\n 79032: a0 = a0 | s1\n 79035: a0 = a0 <<64 32\n 79038: a0 = a0 | a1\n 79041: jump @1488 if a0 != 0\n      : @1473 (gas: 4)\n 79045: s1 = s0 + 0x0\n 79047: a1 = 0x20\n 79050: a0 = s1\n 79052: ra = 964, jump @0\n      : @1474 [@dyn 482] (gas: 1)\n 79059: jump @1488 if a0 == 0\n      : @1475 (gas: 84)\n 79063: a0 = u64 [sp + 40]\n 79066: t1 = s1\n 79068: i64 a0 = a0 + s1\n 79071: a5 = u64 [sp + 48]\n 79074: a1 = a5 >u 0x0\n 79076: a3 = u64 [sp + 88]\n 79079: a2 = a3 >u 0x0\n 79081: a2 = a1 if a3 == 0\n 79084: a1 = 0xffffffdf\n 79094: s1 = a1 <u s0\n 79097: a4 = u64 [sp + 56]\n 79100: a1 = a4 >u 0x0\n 79102: a1 = s1 if a4 == 0\n 79105: a3 = a3 | a5\n 79108: a1 = a2 if a3 != 0\n 79111: s1 = u64 [sp + 72]\n 79114: a2 = reverse s1\n 79116: a3 = a2 >>64 56\n 79119: u8 [a0 + 31] = a3\n 79122: a3 = a2 >>64 48\n 79125: u8 [a0 + 30] = a3\n 79128: a3 = a2 >>64 40\n 79131: u8 [a0 + 29] = a3\n 79134: a3 = a2 >>64 32\n 79137: u8 [a0 + 28] = a3\n 79140: a3 = a2 >>64 24\n 79143: u8 [a0 + 27] = a3\n 79146: a3 = a2 >>64 16\n 79149: u8 [a0 + 26] = a3\n 79152: a5 = u64 [sp + 80]\n 79155: a3 = reverse a5\n 79157: u8 [a0 + 24] = a2\n 79160: a2 = a2 >>64 8\n 79163: u8 [a0 + 25] = a2\n 79166: a2 = a3 >>64 56\n 79169: u8 [a0 + 23] = a2\n 79172: a2 = a3 >>64 48\n 79175: u8 [a0 + 22] = a2\n 79178: a2 = a3 >>64 40\n 79181: u8 [a0 + 21] = a2\n 79184: a2 = a3 >>64 32\n 79187: u8 [a0 + 20] = a2\n 79190: a2 = a3 >>64 24\n 79193: u8 [a0 + 19] = a2\n 79196: a2 = a3 >>64 16\n 79199: u8 [a0 + 18] = a2\n 79202: s0 = u64 [sp + 24]\n 79205: a2 = reverse s0\n 79207: u8 [a0 + 16] = a3\n 79210: a3 = a3 >>64 8\n 79213: u8 [a0 + 17] = a3\n 79216: a3 = a2 >>64 56\n 79219: u8 [a0 + 15] = a3\n 79222: a3 = a2 >>64 48\n 79225: u8 [a0 + 14] = a3\n 79228: a3 = a2 >>64 40\n 79231: u8 [a0 + 13] = a3\n 79234: a3 = a2 >>64 32\n 79237: u8 [a0 + 12] = a3\n 79240: a3 = a2 >>64 24\n 79243: u8 [a0 + 11] = a3\n 79246: a3 = a2 >>64 16\n 79249: u8 [a0 + 10] = a3\n 79252: a4 = u64 [sp + 32]\n 79255: a3 = reverse a4\n 79257: u8 [a0 + 8] = a2\n 79260: a2 = a2 >>64 8\n 79263: u8 [a0 + 9] = a2\n 79266: a2 = a3 >>64 56\n 79269: u8 [a0 + 7] = a2\n 79272: a2 = a3 >>64 48\n 79275: u8 [a0 + 6] = a2\n 79278: a2 = a3 >>64 40\n 79281: u8 [a0 + 5] = a2\n 79284: a2 = a3 >>64 32\n 79287: u8 [a0 + 4] = a2\n 79290: a2 = a3 >>64 24\n 79293: u8 [a0 + 3] = a2\n 79296: a2 = a3 >>64 16\n 79299: u8 [a0 + 2] = a2\n 79302: u8 [a0] = a3\n 79304: a3 = a3 >>64 8\n 79307: u8 [a0 + 1] = a3\n 79310: jump @1488 if a1 != 0\n      : @1476 (gas: 8)\n 79314: a0 = s1 | s0\n 79317: a1 = a5 | a4\n 79320: a0 = a0 | a1\n 79323: a0 = a0 >>64 27\n 79326: a1 = a1 | s0\n 79329: a1 = a1 <<64 37\n 79332: a0 = a0 | a1\n 79335: jump @1488 if a0 != 0\n      : @1477 (gas: 12)\n 79339: a1 = u64 [0x30478]\n 79344: u64 [sp + 72] = a1\n 79347: s1 = u64 [0x30470]\n 79352: a1 = u64 [0x30468]\n 79357: u64 [sp + 32] = a1\n 79360: a0 = u64 [0x30460]\n 79365: u64 [sp + 80] = a0\n 79368: s0 = t1 + 0x20\n 79371: a1 = i32 [sp + 8]\n 79374: a0 = s0\n 79376: u64 [sp + 24] = a1\n 79379: ra = 966, jump @0\n      : @1478 [@dyn 483] (gas: 1)\n 79386: jump @1488 if a0 == 0\n      : @1479 (gas: 11)\n 79390: a2 = u64 [sp + 80]\n 79393: a0 = a2 | s1\n 79396: a1 = u64 [sp + 72]\n 79399: a3 = u64 [sp + 32]\n 79402: a1 = a1 | a3\n 79405: a0 = a0 | a1\n 79408: a0 = a0 >>64 32\n 79411: a1 = a1 | s1\n 79414: a1 = a1 <<64 32\n 79417: a0 = a0 | a1\n 79420: jump @1488 if a0 != 0\n      : @1480 (gas: 7)\n 79424: a0 = u64 [sp + 40]\n 79427: i64 a0 = a0 + s0\n 79430: a1 = a2 + 0x0\n 79432: a2 = 0x30060\n 79437: i64 a1 = a1 + a2\n 79440: a2 = u64 [sp + 24]\n 79443: ra = 968, jump @8\n      : @1481 [@dyn 484] (gas: 14)\n 79450: a0 = u64 [sp + 16]\n 79453: a1 = u64 [sp + 88]\n 79456: u64 [a0 + 24] = a1\n 79459: a1 = u64 [sp + 48]\n 79462: u64 [a0 + 16] = a1\n 79465: a1 = u64 [sp + 56]\n 79468: u64 [a0 + 8] = a1\n 79471: a1 = u64 [sp + 64]\n 79474: u64 [a0] = a1\n 79476: ra = u64 [sp + 112]\n 79479: s0 = u64 [sp + 104]\n 79482: s1 = u64 [sp + 96]\n 79485: i64 sp = i64 sp + 0x78\n 79488: ret\n      : @1482 (gas: 3)\n 79490: a1 = 0x20\n 79493: a0 = 0x0\n 79495: ra = 970, jump @0\n      : @1483 [@dyn 485] (gas: 1)\n 79502: jump @1488 if a0 == 0\n      : @1484 (gas: 8)\n 79505: s0 = 0x20050\n 79510: u64 [0x20068] = 0\n 79515: u64 [0x20060] = 0\n 79520: u64 [0x20058] = 0\n 79525: u64 [0x20050] = 1903904846\n 79534: a0 = 0x4\n 79537: a1 = 0x20\n 79540: ra = 972, jump @0\n      : @1485 [@dyn 486] (gas: 1)\n 79547: jump @1488 if a0 == 0\n      : @1486 (gas: 11)\n 79550: u32 [s0 + 32] = 1090519040\n 79557: u32 [s0 + 28] = 0\n 79560: u32 [s0 + 24] = 0\n 79563: u32 [s0 + 20] = 0\n 79566: u32 [s0 + 16] = 0\n 79569: u32 [s0 + 12] = 0\n 79572: u32 [s0 + 8] = 0\n 79575: u32 [s0 + 4] = 0\n 79578: a1 = 0x24\n 79581: a0 = 0x0\n 79583: ra = 974, jump @0\n      : @1487 [@dyn 487] (gas: 1)\n 79590: jump @1489 if a0 != 0\n      : @1488 (gas: 1)\n 79593: trap\n      : @1489 (gas: 6)\n 79594: a1 = s0 + 0x0\n 79596: a0 = 0x1\n 79599: a2 = 0x24\n 79602: ra = 0x3d0\n 79606: ecalli 11 // 'seal_return'\n 79608: fallthrough\n      : @1490 [@dyn 488] (gas: 15)\n 79609: i64 sp = i64 sp - i64 96\n 79612: u64 [sp + 88] = ra\n 79615: u64 [sp + 80] = s0\n 79618: u64 [sp + 72] = s1\n 79621: i64 s0 = i64 sp + 0x60\n 79624: sp = sp & 0xffffffe0\n 79627: s1 = sp\n 79629: u64 [s1 + 32] = a4\n 79632: u64 [s1 + 40] = a3\n 79635: u64 [s1 + 48] = a2\n 79638: u64 [s1 + 56] = a1\n 79641: u64 [s1 + 24] = a0\n 79644: a1 = 0x20\n 79647: a0 = 0x0\n 79649: ra = 978, jump @0\n      : @1491 [@dyn 489] (gas: 1)\n 79656: jump @1495 if a0 == 0\n      : @1492 (gas: 17)\n 79660: a0 = u64 [s1 + 32]\n 79663: a0 = reverse a0\n 79665: a1 = u64 [s1 + 40]\n 79668: a1 = reverse a1\n 79670: a2 = u64 [s1 + 48]\n 79673: a2 = reverse a2\n 79675: a3 = u64 [s1 + 56]\n 79678: a3 = reverse a3\n 79680: a4 = 0x20050\n 79685: u64 [0x20068] = a3\n 79690: u64 [0x20060] = a2\n 79695: u64 [0x20058] = a1\n 79700: u64 [s1 + 56] = a4\n 79703: u64 [0x20050] = a0\n 79708: a1 = 0x20\n 79711: a0 = 0x0\n 79713: ra = 980, jump @0\n      : @1493 [@dyn 490] (gas: 1)\n 79720: jump @1495 if a0 == 0\n      : @1494 (gas: 28)\n 79723: i64 a0 = i64 sp - i64 32\n 79726: a2 = a0 & 0xffffffe0\n 79729: u64 [s1 + 48] = a2\n 79732: sp = a2\n 79734: a0 = i32 [s1 + 56]\n 79737: a2 = a2 + 0x0\n 79739: a1 = 0x20\n 79742: ecalli 6 // 'hash_keccak_256'\n 79744: a3 = u64 [s1 + 48]\n 79747: a0 = u64 [a3 + 24]\n 79750: a1 = u64 [a3 + 16]\n 79753: a2 = u64 [a3 + 8]\n 79756: a3 = u64 [a3]\n 79758: a0 = reverse a0\n 79760: a1 = reverse a1\n 79762: a2 = reverse a2\n 79764: a3 = reverse a3\n 79766: a4 = u64 [s1 + 24]\n 79769: u64 [a4 + 24] = a3\n 79772: u64 [a4 + 16] = a2\n 79775: u64 [a4 + 8] = a1\n 79778: u64 [a4] = a0\n 79780: i64 sp = i64 s0 - i64 96\n 79783: ra = u64 [sp + 88]\n 79786: s0 = u64 [sp + 80]\n 79789: s1 = u64 [sp + 72]\n 79792: i64 sp = i64 sp + 0x60\n 79795: ret\n      : @1495 (gas: 1)\n 79797: trap\n      : @1496 (gas: 33)\n 79798: i64 sp = i64 sp - i64 416\n 79802: u64 [sp + 408] = ra\n 79806: u64 [sp + 400] = s0\n 79810: u64 [sp + 392] = s1\n 79814: i64 s0 = i64 sp + 0x1a0\n 79818: sp = sp & 0xffffffe0\n 79821: s1 = sp\n 79823: u64 [s1 + 216] = t2\n 79827: u64 [s1 + 208] = a5\n 79831: u64 [s1 + 32] = a0\n 79834: u64 [s1 + 136] = a4\n 79838: u64 [s1 + 344] = a4\n 79842: u64 [s1 + 128] = a3\n 79846: u64 [s1 + 336] = a3\n 79850: u64 [s1 + 120] = a2\n 79853: u64 [s1 + 328] = a2\n 79857: u64 [s1 + 40] = a1\n 79860: u64 [s1 + 320] = a1\n 79864: u64 [s1 + 312] = 0\n 79868: u64 [s1 + 304] = 0\n 79872: u64 [s1 + 296] = 0\n 79876: u64 [s1 + 288] = 0\n 79880: u64 [s1 + 280] = 0\n 79884: u64 [s1 + 272] = 0\n 79888: u64 [s1 + 264] = 0\n 79892: u64 [s1 + 256] = 256\n 79898: a1 = s1 + 0x140\n 79902: a3 = s1 + 0x120\n 79906: a4 = s1 + 0x100\n 79910: a2 = 0xffffffff\n 79913: a0 = 0x0\n 79915: ecalli 5 // 'get_storage'\n 79917: fallthrough\n      : @1497 (gas: 33)\n 79918: a2 = u64 [s1 + 304]\n 79922: t2 = u64 [s1 + 296]\n 79926: t0 = u64 [s1 + 312]\n 79930: ra = u64 [s1 + 288]\n 79934: a0 = a2 <<64 63\n 79937: a1 = t2 >>64 1\n 79940: a0 = a0 | a1\n 79943: a1 = t0 <<64 63\n 79946: u64 [s1 + 184] = a2\n 79950: a2 = a2 >>64 1\n 79953: a1 = a1 | a2\n 79956: a2 = t2 <<64 63\n 79959: a3 = ra >>64 1\n 79962: a4 = a3 | a2\n 79965: a2 = t0 >>64 1\n 79968: t1 = ra & 0x1\n 79971: a3 = u64 -t1\n 79973: a1 = a1 & a3\n 79976: a5 = a3 & a0\n 79979: a2 = a2 & a3\n 79982: a3 = a4 & 0x7f\n 79985: a4 = a3 if t1 == 0\n 79988: u64 [s1 + 112] = a4\n 79991: a0 = a4 <u 0x20\n 79994: u64 [s1 + 96] = a5\n 79997: a0 = 0 if a5 != 0\n 79999: u64 [s1 + 104] = a1\n 80002: u64 [s1 + 88] = a2\n 80005: a1 = a1 | a2\n 80008: a0 = 0 if a1 != 0\n 80010: u64 [s1 + 200] = t1\n 80014: a1 = t1 <u 0x1\n 80017: jump @1516 if a1 != a0\n      : @1498 (gas: 18)\n 80021: u64 [s1 + 152] = ra\n 80025: u64 [s1 + 160] = t2\n 80029: u64 [s1 + 24] = a3\n 80032: u64 [s1 + 168] = t0\n 80036: a3 = u64 [s0]\n 80038: a1 = u64 [s0 + 8]\n 80041: a2 = u64 [s1 + 208]\n 80045: a0 = a2 | a3\n 80048: u64 [s1 + 176] = a1\n 80052: a4 = u64 [s1 + 216]\n 80056: a1 = a1 | a4\n 80059: a0 = a0 | a1\n 80062: a0 = a0 >>64 32\n 80065: u64 [s1 + 192] = a3\n 80069: a1 = a1 | a3\n 80072: a1 = a1 <<64 32\n 80075: a0 = a0 | a1\n 80078: jump @1522 if a0 != 0\n      : @1499 (gas: 4)\n 80082: a0 = a2 + 0x0\n 80084: a1 = 0x20\n 80087: u64 [s1 + 144] = a0\n 80091: ra = 982, jump @0\n      : @1500 [@dyn 491] (gas: 1)\n 80098: jump @1522 if a0 == 0\n      : @1501 (gas: 90)\n 80102: a0 = 0x20050\n 80107: u64 [s1 + 48] = a0\n 80110: a1 = u64 [s1 + 144]\n 80114: i64 a0 = a0 + a1\n 80117: a1 = u64 [s1 + 88]\n 80120: a1 = reverse a1\n 80122: a2 = u64 [s1 + 112]\n 80125: a2 = reverse a2\n 80127: a3 = a2 >>64 56\n 80130: u8 [a0 + 31] = a3\n 80133: a3 = a2 >>64 48\n 80136: u8 [a0 + 30] = a3\n 80139: a3 = a2 >>64 40\n 80142: u8 [a0 + 29] = a3\n 80145: a3 = a2 >>64 32\n 80148: u8 [a0 + 28] = a3\n 80151: a3 = a2 >>64 24\n 80154: u8 [a0 + 27] = a3\n 80157: a3 = a2 >>64 16\n 80160: u8 [a0 + 26] = a3\n 80163: a3 = u64 [s1 + 96]\n 80166: a3 = reverse a3\n 80168: u8 [a0 + 24] = a2\n 80171: a2 = a2 >>64 8\n 80174: u8 [a0 + 25] = a2\n 80177: a2 = a3 >>64 56\n 80180: u8 [a0 + 23] = a2\n 80183: a2 = a3 >>64 48\n 80186: u8 [a0 + 22] = a2\n 80189: a2 = a3 >>64 40\n 80192: u8 [a0 + 21] = a2\n 80195: a2 = a3 >>64 32\n 80198: u8 [a0 + 20] = a2\n 80201: a2 = a3 >>64 24\n 80204: u8 [a0 + 19] = a2\n 80207: a2 = a3 >>64 16\n 80210: u8 [a0 + 18] = a2\n 80213: a2 = u64 [s1 + 104]\n 80216: a2 = reverse a2\n 80218: u8 [a0 + 16] = a3\n 80221: a3 = a3 >>64 8\n 80224: u8 [a0 + 17] = a3\n 80227: u8 [a0 + 8] = a2\n 80230: a3 = a2 >>64 56\n 80233: u8 [a0 + 15] = a3\n 80236: a3 = a2 >>64 48\n 80239: u8 [a0 + 14] = a3\n 80242: a3 = a2 >>64 40\n 80245: u8 [a0 + 13] = a3\n 80248: a3 = a2 >>64 32\n 80251: u8 [a0 + 12] = a3\n 80254: a3 = a2 >>64 24\n 80257: u8 [a0 + 11] = a3\n 80260: a3 = a2 >>64 16\n 80263: u8 [a0 + 10] = a3\n 80266: a2 = a2 >>64 8\n 80269: u8 [a0 + 9] = a2\n 80272: u8 [a0] = a1\n 80274: a2 = a1 >>64 56\n 80277: u8 [a0 + 7] = a2\n 80280: a2 = a1 >>64 48\n 80283: u8 [a0 + 6] = a2\n 80286: a2 = a1 >>64 40\n 80289: u8 [a0 + 5] = a2\n 80292: a2 = a1 >>64 32\n 80295: u8 [a0 + 4] = a2\n 80298: a2 = a1 >>64 24\n 80301: u8 [a0 + 3] = a2\n 80304: a2 = a1 >>64 16\n 80307: u8 [a0 + 2] = a2\n 80310: a1 = a1 >>64 8\n 80313: u8 [a0 + 1] = a1\n 80316: a2 = u64 [s1 + 208]\n 80320: i64 a3 = i64 a2 + 0x20\n 80323: a0 = a3 <u a2\n 80326: a4 = u64 [s1 + 216]\n 80330: i64 a1 = a4 + a0\n 80333: u64 [s1 + 56] = a1\n 80336: a1 = a1 <u a4\n 80339: a1 = a0 if a0 == 0\n 80342: a5 = u64 [s1 + 192]\n 80346: i64 a1 = a1 + a5\n 80349: u64 [s1 + 72] = a1\n 80352: a0 = a1 <u a5\n 80355: a1 = u64 [s1 + 176]\n 80359: i64 a0 = a0 + a1\n 80362: u64 [s1 + 80] = a0\n 80365: u64 [s1 + 64] = a3\n 80368: a0 = u64 [s1 + 200]\n 80372: jump @1506 if a0 != 0\n      : @1502 (gas: 10)\n 80376: a0 = a5 >u 0x0\n 80378: t0 = a1 >u 0x0\n 80380: t0 = a0 if a1 == 0\n 80383: a0 = 0xffffffdf\n 80393: a0 = a0 <u a2\n 80396: a2 = a4 >u 0x0\n 80398: a2 = a0 if a4 == 0\n 80401: a0 = a5 | a1\n 80404: a2 = t0 if a0 != 0\n 80407: jump @1522 if a2 != 0\n      : @1503 (gas: 4)\n 80411: a0 = a3 + 0x0\n 80413: a1 = 0x20\n 80416: u64 [s1 + 216] = a0\n 80420: ra = 984, jump @0\n      : @1504 [@dyn 492] (gas: 1)\n 80427: jump @1522 if a0 == 0\n      : @1505 (gas: 79)\n 80431: u64 [s1 + 192] = 0\n 80435: u64 [s1 + 200] = 0\n 80439: t2 = 0x0\n 80441: a0 = u64 [s1 + 152]\n 80445: a3 = a0 & 0xffffff00\n 80449: a2 = u64 [s1 + 48]\n 80452: a0 = u64 [s1 + 216]\n 80456: i64 a2 = a2 + a0\n 80459: a3 = reverse a3\n 80461: a4 = a3 >>64 56\n 80464: u8 [a2 + 31] = a4\n 80467: a4 = a3 >>64 48\n 80470: u8 [a2 + 30] = a4\n 80473: a4 = a3 >>64 40\n 80476: u8 [a2 + 29] = a4\n 80479: a4 = a3 >>64 32\n 80482: u8 [a2 + 28] = a4\n 80485: a4 = a3 >>64 24\n 80488: u8 [a2 + 27] = a4\n 80491: a4 = a3 >>64 16\n 80494: u8 [a2 + 26] = a4\n 80497: a0 = u64 [s1 + 160]\n 80501: a4 = reverse a0\n 80503: u8 [a2 + 24] = a3\n 80506: a3 = a3 >>64 8\n 80509: u8 [a2 + 25] = a3\n 80512: a3 = a4 >>64 56\n 80515: u8 [a2 + 23] = a3\n 80518: a3 = a4 >>64 48\n 80521: u8 [a2 + 22] = a3\n 80524: a3 = a4 >>64 40\n 80527: u8 [a2 + 21] = a3\n 80530: a3 = a4 >>64 32\n 80533: u8 [a2 + 20] = a3\n 80536: a3 = a4 >>64 24\n 80539: u8 [a2 + 19] = a3\n 80542: a3 = a4 >>64 16\n 80545: u8 [a2 + 18] = a3\n 80548: a0 = u64 [s1 + 184]\n 80552: a3 = reverse a0\n 80554: u8 [a2 + 16] = a4\n 80557: a4 = a4 >>64 8\n 80560: u8 [a2 + 17] = a4\n 80563: a4 = a3 >>64 56\n 80566: u8 [a2 + 15] = a4\n 80569: a4 = a3 >>64 48\n 80572: u8 [a2 + 14] = a4\n 80575: a4 = a3 >>64 40\n 80578: u8 [a2 + 13] = a4\n 80581: a4 = a3 >>64 32\n 80584: u8 [a2 + 12] = a4\n 80587: a4 = a3 >>64 24\n 80590: u8 [a2 + 11] = a4\n 80593: a4 = a3 >>64 16\n 80596: u8 [a2 + 10] = a4\n 80599: a0 = u64 [s1 + 168]\n 80603: a4 = reverse a0\n 80605: u8 [a2 + 8] = a3\n 80608: a3 = a3 >>64 8\n 80611: u8 [a2 + 9] = a3\n 80614: u8 [a2] = a4\n 80616: a3 = a4 >>64 56\n 80619: u8 [a2 + 7] = a3\n 80622: a3 = a4 >>64 48\n 80625: u8 [a2 + 6] = a3\n 80628: a3 = a4 >>64 40\n 80631: u8 [a2 + 5] = a3\n 80634: a3 = a4 >>64 32\n 80637: u8 [a2 + 4] = a3\n 80640: a3 = a4 >>64 24\n 80643: u8 [a2 + 3] = a3\n 80646: a3 = a4 >>64 16\n 80649: u8 [a2 + 2] = a3\n 80652: a4 = a4 >>64 8\n 80655: u8 [a2 + 1] = a4\n 80658: a0 = u64 [s1 + 24]\n 80661: a2 = a0 >u 0x0\n 80663: a1 = a2 <<64 5\n 80666: jump @1515\n      : @1506 (gas: 6)\n 80669: i64 a0 = i64 s1 + 0xe0\n 80673: a1 = u64 [s1 + 40]\n 80676: a2 = u64 [s1 + 120]\n 80679: a3 = u64 [s1 + 128]\n 80683: a4 = u64 [s1 + 136]\n 80687: ra = 986, jump @1490\n      : @1507 [@dyn 493] (gas: 9)\n 80693: a0 = u64 [s1 + 152]\n 80697: a0 = a0 <u 0x2\n 80700: a1 = u64 [s1 + 160]\n 80704: a0 = 0 if a1 != 0\n 80706: a1 = u64 [s1 + 168]\n 80710: a2 = u64 [s1 + 184]\n 80714: a1 = a1 | a2\n 80717: a0 = 0 if a1 != 0\n 80719: jump @1509 if a0 == 0\n      : @1508 (gas: 5)\n 80722: a1 = 0x0\n 80724: u64 [s1 + 192] = 0\n 80728: u64 [s1 + 200] = 0\n 80732: t2 = 0x0\n 80734: jump @1515\n      : @1509 (gas: 11)\n 80737: a0 = u64 [s1 + 248]\n 80741: a4 = u64 [s1 + 240]\n 80745: ra = u64 [s1 + 232]\n 80749: t1 = u64 [s1 + 224]\n 80753: t0 = 0x0\n 80755: u64 [s1 + 208] = 0\n 80759: a5 = 0x0\n 80761: t2 = 0x0\n 80763: a1 = s1 + 0x160\n 80767: u64 [s1 + 40] = a1\n 80770: fallthrough\n      : @1510 (gas: 33)\n 80771: u64 [s1 + 192] = a5\n 80775: u64 [s1 + 200] = t2\n 80779: u64 [s1 + 184] = t0\n 80783: u64 [s1 + 160] = t1\n 80787: u64 [s1 + 352] = t1\n 80791: u64 [s1 + 216] = ra\n 80795: u64 [s1 + 360] = ra\n 80799: u64 [s1 + 152] = a4\n 80803: u64 [s1 + 368] = a4\n 80807: u64 [s1 + 168] = a0\n 80811: u64 [s1 + 376] = a0\n 80815: i64 a0 = i64 sp - i64 32\n 80818: a3 = a0 & 0xffffffe0\n 80821: sp = a3\n 80823: u64 [a3 + 24] = 0\n 80826: u64 [a3 + 16] = 0\n 80829: u64 [a3 + 8] = 0\n 80832: u64 [a3 + 0] = 0\n 80834: i64 a0 = i64 sp - i64 8\n 80837: a0 = a0 & 0xffffffe0\n 80840: sp = a0\n 80842: u64 [a0 + 24] = 0\n 80845: u64 [a0 + 16] = 0\n 80848: u64 [a0 + 8] = 0\n 80851: u64 [a0 + 0] = 256\n 80855: u64 [s1 + 176] = a3\n 80859: a3 = a3 + 0x0\n 80861: a4 = a0 + 0x0\n 80863: a2 = 0xffffffff\n 80866: a0 = 0x0\n 80868: a1 = u64 [s1 + 40]\n 80871: ecalli 5 // 'get_storage'\n 80873: fallthrough\n      : @1511 (gas: 30)\n 80874: a3 = u64 [s1 + 184]\n 80878: t1 = u64 [s1 + 64]\n 80881: i64 t0 = a3 + t1\n 80884: a1 = t0 <u a3\n 80887: a2 = u64 [s1 + 56]\n 80890: a0 = u64 [s1 + 208]\n 80894: i64 a2 = a2 + a0\n 80897: i64 a2 = a2 + a1\n 80900: a5 = a2 ^ a0\n 80903: a4 = a2 <u a0\n 80906: a4 = a1 if a5 == 0\n 80909: a1 = u64 [s1 + 72]\n 80912: a0 = u64 [s1 + 192]\n 80916: i64 a1 = a1 + a0\n 80919: t2 = a1 <u a0\n 80922: a5 = u64 [s1 + 80]\n 80925: a0 = u64 [s1 + 200]\n 80929: i64 a5 = a5 + a0\n 80932: i64 a0 = a5 + t2\n 80935: i64 a4 = a4 + a1\n 80938: a1 = a4 <u a1\n 80941: i64 a1 = a1 + a0\n 80944: a1 = a1 | a2\n 80947: a0 = t0 | a4\n 80950: a0 = a0 | a1\n 80953: a1 = a1 | a4\n 80956: a0 = a0 >>64 32\n 80959: a1 = a1 <<64 32\n 80962: a0 = a0 | a1\n 80965: jump @1522 if a0 != 0\n      : @1512 (gas: 13)\n 80969: a0 = u64 [s1 + 176]\n 80973: a1 = u64 [a0 + 24]\n 80976: u64 [s1 + 136] = a1\n 80980: a1 = u64 [a0 + 16]\n 80983: u64 [s1 + 144] = a1\n 80987: a1 = u64 [a0 + 8]\n 80990: u64 [s1 + 128] = a1\n 80994: a0 = u64 [a0]\n 80996: u64 [s1 + 176] = a0\n 81000: a0 = a3 + t1\n 81003: a1 = 0x20\n 81006: u64 [s1 + 120] = a0\n 81009: ra = 988, jump @0\n      : @1513 [@dyn 494] (gas: 1)\n 81016: jump @1522 if a0 == 0\n      : @1514 (gas: 123)\n 81020: a0 = u64 [s1 + 48]\n 81023: a1 = u64 [s1 + 120]\n 81026: i64 a0 = a0 + a1\n 81029: a1 = u64 [s1 + 176]\n 81033: a1 = reverse a1\n 81035: a2 = a1 >>64 56\n 81038: u8 [a0 + 31] = a2\n 81041: a2 = a1 >>64 48\n 81044: u8 [a0 + 30] = a2\n 81047: a2 = a1 >>64 40\n 81050: u8 [a0 + 29] = a2\n 81053: a2 = a1 >>64 32\n 81056: u8 [a0 + 28] = a2\n 81059: a2 = a1 >>64 24\n 81062: u8 [a0 + 27] = a2\n 81065: a2 = a1 >>64 16\n 81068: u8 [a0 + 26] = a2\n 81071: a2 = u64 [s1 + 128]\n 81075: a2 = reverse a2\n 81077: u8 [a0 + 24] = a1\n 81080: a1 = a1 >>64 8\n 81083: u8 [a0 + 25] = a1\n 81086: a1 = a2 >>64 56\n 81089: u8 [a0 + 23] = a1\n 81092: a1 = a2 >>64 48\n 81095: u8 [a0 + 22] = a1\n 81098: a1 = a2 >>64 40\n 81101: u8 [a0 + 21] = a1\n 81104: a1 = a2 >>64 32\n 81107: u8 [a0 + 20] = a1\n 81110: a1 = a2 >>64 24\n 81113: u8 [a0 + 19] = a1\n 81116: a1 = a2 >>64 16\n 81119: u8 [a0 + 18] = a1\n 81122: a1 = u64 [s1 + 136]\n 81126: a1 = reverse a1\n 81128: a3 = u64 [s1 + 144]\n 81132: a3 = reverse a3\n 81134: u8 [a0 + 16] = a2\n 81137: a2 = a2 >>64 8\n 81140: u8 [a0 + 17] = a2\n 81143: u8 [a0 + 8] = a3\n 81146: a2 = a3 >>64 56\n 81149: u8 [a0 + 15] = a2\n 81152: a2 = a3 >>64 48\n 81155: u8 [a0 + 14] = a2\n 81158: a2 = a3 >>64 40\n 81161: u8 [a0 + 13] = a2\n 81164: a2 = a3 >>64 32\n 81167: u8 [a0 + 12] = a2\n 81170: a2 = a3 >>64 24\n 81173: u8 [a0 + 11] = a2\n 81176: a2 = a3 >>64 16\n 81179: u8 [a0 + 10] = a2\n 81182: a3 = a3 >>64 8\n 81185: u8 [a0 + 9] = a3\n 81188: u8 [a0] = a1\n 81190: a2 = a1 >>64 56\n 81193: u8 [a0 + 7] = a2\n 81196: a2 = a1 >>64 48\n 81199: u8 [a0 + 6] = a2\n 81202: a2 = a1 >>64 40\n 81205: u8 [a0 + 5] = a2\n 81208: a2 = a1 >>64 32\n 81211: u8 [a0 + 4] = a2\n 81214: a2 = a1 >>64 24\n 81217: u8 [a0 + 3] = a2\n 81220: a2 = a1 >>64 16\n 81223: u8 [a0 + 2] = a2\n 81226: a1 = a1 >>64 8\n 81229: u8 [a0 + 1] = a1\n 81232: t1 = u64 [s1 + 160]\n 81236: i64 t1 = i64 t1 + 0x1\n 81239: a0 = t1 <u 0x1\n 81242: a1 = u64 [s1 + 216]\n 81246: i64 a1 = a1 + a0\n 81249: u64 [s1 + 216] = a1\n 81253: a0 = u64 [s1 + 184]\n 81257: i64 t0 = i64 a0 + 0x20\n 81260: a1 = t0 <u a0\n 81263: a0 = u64 [s1 + 208]\n 81267: i64 ra = a0 + a1\n 81270: a3 = ra <u a0\n 81273: a3 = a1 if a1 == 0\n 81276: a0 = u64 [s1 + 192]\n 81280: i64 t2 = a0 + a3\n 81283: a3 = t2 <u a0\n 81286: a2 = u64 [s1 + 200]\n 81290: i64 a2 = a2 + a3\n 81293: a4 = u64 [s1 + 104]\n 81296: a0 = t2 <u a4\n 81299: u64 [s1 + 208] = a0\n 81303: a0 = u64 [s1 + 112]\n 81306: a5 = t0 <u a0\n 81309: a0 = u64 [s1 + 96]\n 81312: a1 = ra ^ a0\n 81315: a3 = ra <u a0\n 81318: a3 = a5 if a1 == 0\n 81321: a0 = u64 [s1 + 88]\n 81324: a1 = a2 ^ a0\n 81327: a5 = a2 <u a0\n 81330: a0 = u64 [s1 + 208]\n 81334: a5 = a0 if a1 == 0\n 81337: a4 = t2 ^ a4\n 81340: a1 = a1 | a4\n 81343: a0 = u64 [s1 + 216]\n 81347: a4 = t1 | a0\n 81350: a4 = a4 <u 0x1\n 81353: a0 = u64 [s1 + 152]\n 81357: i64 a4 = a4 + a0\n 81360: a0 = a4 <u a0\n 81363: a3 = a5 if a1 != 0\n 81366: a1 = u64 [s1 + 168]\n 81370: i64 a0 = a0 + a1\n 81373: a5 = ra\n 81375: ra = u64 [s1 + 216]\n 81379: a1 = t0\n 81381: u64 [s1 + 192] = a5\n 81385: u64 [s1 + 208] = a5\n 81389: u64 [s1 + 200] = t2\n 81393: a5 = t2\n 81395: t2 = a2\n 81397: jump @1510 if a3 != 0\n      : @1515 (gas: 31)\n 81401: a3 = u64 [s1 + 64]\n 81404: i64 a3 = a3 + a1\n 81407: a2 = a3 <u a1\n 81410: a4 = u64 [s1 + 56]\n 81413: a0 = u64 [s1 + 192]\n 81417: i64 a4 = a4 + a0\n 81420: i64 a4 = a4 + a2\n 81423: a5 = a4 ^ a0\n 81426: a0 = a4 <u a0\n 81429: a0 = a2 if a5 == 0\n 81432: a2 = u64 [s1 + 72]\n 81435: a1 = u64 [s1 + 200]\n 81439: i64 a2 = a2 + a1\n 81442: i64 a0 = a0 + a2\n 81445: a5 = a0 <u a2\n 81448: a1 = a2 <u a1\n 81451: a2 = u64 [s1 + 80]\n 81454: i64 a2 = a2 + t2\n 81457: i64 a1 = a1 + a2\n 81460: i64 a1 = a1 + a5\n 81463: a2 = u64 [s1 + 32]\n 81466: u64 [a2] = a3\n 81468: u64 [a2 + 8] = a4\n 81471: u64 [a2 + 16] = a0\n 81474: u64 [a2 + 24] = a1\n 81477: i64 sp = i64 s0 - i64 416\n 81481: ra = u64 [sp + 408]\n 81485: s0 = u64 [sp + 400]\n 81489: s1 = u64 [sp + 392]\n 81493: i64 sp = i64 sp + 0x1a0\n 81497: ret\n      : @1516 (gas: 3)\n 81499: a1 = 0x20\n 81502: a0 = 0x0\n 81504: ra = 990, jump @0\n      : @1517 [@dyn 495] (gas: 1)\n 81511: jump @1522 if a0 == 0\n      : @1518 (gas: 9)\n 81514: a1 = 0x20050\n 81519: u64 [0x20068] = 0\n 81524: u64 [0x20060] = 0\n 81529: u64 [0x20058] = 0\n 81534: u64 [s1 + 216] = a1\n 81538: u64 [0x20050] = 1903904846\n 81547: a0 = 0x4\n 81550: a1 = 0x20\n 81553: ra = 992, jump @0\n      : @1519 [@dyn 496] (gas: 1)\n 81560: jump @1522 if a0 == 0\n      : @1520 (gas: 12)\n 81563: a1 = u64 [s1 + 216]\n 81567: u32 [a1 + 32] = 570425344\n 81574: u32 [a1 + 28] = 0\n 81577: u32 [a1 + 24] = 0\n 81580: u32 [a1 + 20] = 0\n 81583: u32 [a1 + 16] = 0\n 81586: u32 [a1 + 12] = 0\n 81589: u32 [a1 + 8] = 0\n 81592: u32 [a1 + 4] = 0\n 81595: a1 = 0x24\n 81598: a0 = 0x0\n 81600: ra = 994, jump @0\n      : @1521 [@dyn 497] (gas: 1)\n 81607: jump @1523 if a0 != 0\n      : @1522 (gas: 1)\n 81610: trap\n      : @1523 (gas: 6)\n 81611: a1 = i32 [s1 + 216]\n 81615: a0 = 0x1\n 81618: a2 = 0x24\n 81621: ra = 0x3e4\n 81625: ecalli 11 // 'seal_return'\n 81627: fallthrough\n      : @1524 [@dyn 498] (gas: 39)\n 81628: i64 sp = i64 sp - i64 768\n 81632: u64 [sp + 760] = ra\n 81636: u64 [sp + 752] = s0\n 81640: u64 [sp + 744] = s1\n 81644: i64 s0 = i64 sp + 0x300\n 81648: sp = sp & 0xffffffe0\n 81651: s1 = sp\n 81653: u64 [s1 + 296] = a4\n 81657: u64 [s1 + 288] = a3\n 81661: u64 [s1 + 280] = a2\n 81665: u64 [s1 + 304] = a1\n 81669: u64 [s1 + 8] = a0\n 81672: u64 [s1 + 728] = 0\n 81676: u64 [s1 + 720] = 0\n 81680: u64 [s1 + 712] = 0\n 81684: u64 [s1 + 704] = 2\n 81689: u64 [s1 + 696] = 0\n 81693: u64 [s1 + 688] = 0\n 81697: u64 [s1 + 680] = 0\n 81701: u64 [s1 + 672] = 0\n 81705: u64 [s1 + 656] = 0\n 81709: u64 [s1 + 664] = 0\n 81713: u64 [s1 + 648] = 0\n 81717: u64 [s1 + 640] = 256\n 81723: a1 = s1 + 0x2c0\n 81727: a3 = s1 + 0x2a0\n 81731: a4 = s1 + 0x280\n 81735: a2 = 0xffffffff\n 81738: a0 = 0x0\n 81740: u64 [s1 + 256] = a1\n 81744: u64 [s1 + 248] = a3\n 81748: u64 [s1 + 240] = a4\n 81752: ecalli 5 // 'get_storage'\n 81754: a4 = u64 [s1 + 696]\n 81758: a3 = u64 [s1 + 688]\n 81762: a2 = u64 [s1 + 680]\n 81766: a1 = u64 [s1 + 672]\n 81770: i64 a0 = i64 s1 + 0x260\n 81774: ra = 998, jump @1468\n      : @1525 [@dyn 499] (gas: 32)\n 81780: u64 [s1 + 336] = 0\n 81784: u64 [s1 + 328] = 0\n 81788: u64 [s1 + 312] = 0\n 81792: u64 [s1 + 320] = 0\n 81796: u64 [s1 + 360] = 0\n 81800: u64 [s1 + 352] = 0\n 81804: u64 [s1 + 368] = 0\n 81808: u64 [s1 + 344] = 0\n 81812: a1 = 0x20050\n 81817: a2 = 0x100000000\n 81827: a0 = u64 [s1 + 632]\n 81831: u64 [s1 + 72] = a0\n 81834: a0 = u64 [s1 + 624]\n 81838: u64 [s1 + 64] = a0\n 81841: a0 = u64 [s1 + 616]\n 81845: u64 [s1 + 56] = a0\n 81848: a0 = u64 [s1 + 608]\n 81852: u64 [s1 + 48] = a0\n 81855: a3 = u64 [s1 + 304]\n 81859: a0 = a3 + 0x0\n 81861: a3 = a3 + 0x20\n 81864: u64 [s1 + 224] = a0\n 81868: i64 a0 = a0 + a1\n 81871: u64 [s1 + 208] = a0\n 81875: u64 [s1 + 392] = a1\n 81879: u64 [s1 + 200] = a3\n 81883: a1 = a1 + a3\n 81886: u64 [s1 + 192] = a1\n 81890: u64 [s1 + 216] = a2\n 81894: a0 = 0xffffffdf\n 81904: u64 [s1 + 232] = a0\n 81908: jump @1528\n      : @1526 (gas: 4)\n 81910: t1 = u64 [s1 + 360]\n 81914: t2 = u64 [s1 + 352]\n 81918: ra = u64 [s1 + 344]\n 81922: fallthrough\n      : @1527 (gas: 14)\n 81923: a1 = u64 [s1 + 368]\n 81927: i64 t1 = i64 t1 + 0x1\n 81930: u64 [s1 + 360] = t1\n 81934: a0 = t1 <u 0x1\n 81937: i64 t2 = t2 + a0\n 81940: u64 [s1 + 352] = t2\n 81944: a0 = t1 | t2\n 81947: a0 = a0 <u 0x1\n 81950: i64 a0 = a0 + a1\n 81953: a1 = a0 <u a1\n 81956: i64 ra = ra + a1\n 81959: u64 [s1 + 344] = ra\n 81963: u64 [s1 + 368] = a0\n 81967: fallthrough\n      : @1528 (gas: 19)\n 81968: u64 [s1 + 728] = 0\n 81972: u64 [s1 + 720] = 0\n 81976: u64 [s1 + 712] = 0\n 81980: u64 [s1 + 704] = 2\n 81985: u64 [s1 + 696] = 0\n 81989: u64 [s1 + 688] = 0\n 81993: u64 [s1 + 680] = 0\n 81997: u64 [s1 + 672] = 0\n 82001: u64 [s1 + 656] = 0\n 82005: u64 [s1 + 664] = 0\n 82009: u64 [s1 + 648] = 0\n 82013: u64 [s1 + 640] = 256\n 82019: a2 = 0xffffffff\n 82022: a0 = 0x0\n 82024: a1 = u64 [s1 + 256]\n 82028: a3 = u64 [s1 + 248]\n 82032: a4 = u64 [s1 + 240]\n 82036: ecalli 5 // 'get_storage'\n 82038: fallthrough\n      : @1529 (gas: 20)\n 82039: a0 = u64 [s1 + 696]\n 82043: a1 = u64 [s1 + 672]\n 82047: t0 = u64 [s1 + 688]\n 82051: a3 = u64 [s1 + 680]\n 82055: a2 = u64 [s1 + 344]\n 82059: ra = a2 ^ a0\n 82062: a0 = a2 <u a0\n 82065: a4 = u64 [s1 + 368]\n 82069: a5 = a4 <u t0\n 82072: a5 = a0 if ra != 0\n 82075: t2 = u64 [s1 + 352]\n 82079: t1 = t2 ^ a3\n 82082: a0 = t2 <u a3\n 82085: a3 = u64 [s1 + 360]\n 82089: a1 = a3 <u a1\n 82092: a1 = a0 if t1 != 0\n 82095: a0 = a4 ^ t0\n 82098: a0 = a0 | ra\n 82101: a1 = a5 if a0 != 0\n 82104: jump @1558 if a1 == 0\n      : @1530 (gas: 10)\n 82108: a5 = a3\n 82110: i64 sp = i64 sp - i64 16\n 82113: u64 [sp] = a4\n 82115: i64 a0 = i64 s1 + 0x1e0\n 82119: a1 = 0x3\n 82122: u64 [sp + 8] = a2\n 82125: a2 = 0x0\n 82127: a3 = 0x0\n 82129: a4 = 0x0\n 82131: ra = 1000, jump @191\n      : @1531 [@dyn 500] (gas: 12)\n 82138: i64 sp = i64 sp + 0x10\n 82141: a0 = u64 [s1 + 504]\n 82145: u64 [s1 + 408] = a0\n 82149: a0 = u64 [s1 + 496]\n 82153: u64 [s1 + 400] = a0\n 82157: a0 = u64 [s1 + 488]\n 82161: u64 [s1 + 384] = a0\n 82165: a0 = u64 [s1 + 480]\n 82169: u64 [s1 + 376] = a0\n 82173: a0 = 0x40\n 82176: a1 = 0x20\n 82179: ra = 1002, jump @0\n      : @1532 [@dyn 501] (gas: 1)\n 82186: jump @1577 if a0 == 0\n      : @1533 (gas: 30)\n 82190: a0 = u64 [s1 + 376]\n 82194: i64 a1 = i64 a0 + 0x2\n 82197: a0 = a1 <u a0\n 82200: a3 = u64 [s1 + 384]\n 82204: i64 a2 = a3 + a0\n 82207: a3 = a2 <u a3\n 82210: a3 = a0 if a0 == 0\n 82213: a0 = u64 [s1 + 400]\n 82217: i64 a3 = a3 + a0\n 82220: a4 = a3 <u a0\n 82223: a0 = u64 [s1 + 408]\n 82227: i64 a4 = a4 + a0\n 82230: a0 = u64 [s1 + 392]\n 82234: t2 = u64 [a0 + 80]\n 82237: a5 = u64 [a0 + 88]\n 82240: t0 = u64 [a0 + 72]\n 82243: t1 = u64 [a0 + 64]\n 82246: t2 = reverse t2\n 82248: u64 [s1 + 408] = t2\n 82252: a5 = reverse a5\n 82254: u64 [s1 + 400] = a5\n 82258: t0 = reverse t0\n 82260: u64 [s1 + 384] = t0\n 82264: a0 = reverse t1\n 82266: u64 [s1 + 376] = a0\n 82270: i64 sp = i64 sp - i64 16\n 82273: u64 [sp + 8] = a0\n 82276: i64 a0 = i64 s1 + 0x1c0\n 82280: u64 [sp] = t0\n 82282: ra = 1004, jump @1496\n      : @1534 [@dyn 502] (gas: 34)\n 82288: i64 sp = i64 sp + 0x10\n 82291: a2 = u64 [s1 + 456]\n 82295: a0 = u64 [s1 + 472]\n 82299: u64 [s1 + 264] = a0\n 82303: t1 = u64 [s1 + 448]\n 82307: t0 = u64 [s1 + 464]\n 82311: a0 = u64 [s1 + 408]\n 82315: a4 = a2 ^ a0\n 82318: a5 = a2 <u a0\n 82321: a0 = u64 [s1 + 400]\n 82325: ra = t1 <u a0\n 82328: a5 = ra if a4 == 0\n 82331: a1 = u64 [s1 + 384]\n 82335: i64 a3 = i64 t0 - i64 a1\n 82338: i64 a4 = i64 a3 - i64 a5\n 82341: u64 [s1 + 272] = a4\n 82345: t2 = a3 <u a5\n 82348: t0 = t0 <u a1\n 82351: a4 = a1\n 82353: a3 = u64 [s1 + 376]\n 82357: a5 = u64 [s1 + 264]\n 82361: i64 a5 = i64 a5 - i64 a3\n 82364: i64 a5 = i64 a5 - i64 t0\n 82367: i64 t0 = i64 a5 - i64 t2\n 82370: a1 = u64 [s1 + 408]\n 82374: i64 a5 = i64 a2 - i64 a1\n 82377: i64 a5 = i64 a5 - i64 ra\n 82380: i64 t1 = i64 t1 - i64 a0\n 82383: i64 sp = i64 sp - i64 8\n 82386: u64 [sp] = t0\n 82388: a2 = a4\n 82390: a4 = t1\n 82392: t2 = u64 [s1 + 272]\n 82396: ra = 1006, jump @119\n      : @1535 [@dyn 503] (gas: 13)\n 82403: i64 sp = i64 sp + 0x8\n 82406: a1 = u64 [s1 + 408]\n 82410: a0 = u64 [s1 + 376]\n 82414: a0 = a0 | a1\n 82417: a2 = u64 [s1 + 384]\n 82421: a1 = u64 [s1 + 400]\n 82425: a1 = a1 | a2\n 82428: a1 = a1 | a0\n 82431: a1 = a1 >>64 32\n 82434: a0 = a0 | a2\n 82437: a0 = a0 <<64 32\n 82440: a0 = a0 | a1\n 82443: jump @1577 if a0 != 0\n      : @1536 (gas: 4)\n 82447: a0 = i32 [s1 + 400]\n 82451: a1 = 0x20\n 82454: u64 [s1 + 272] = a0\n 82458: ra = 1008, jump @0\n      : @1537 [@dyn 504] (gas: 1)\n 82465: jump @1577 if a0 == 0\n      : @1538 (gas: 14)\n 82469: a4 = u64 [s1 + 384]\n 82473: a0 = a4 >u 0x0\n 82475: a5 = u64 [s1 + 376]\n 82479: a1 = a5 >u 0x0\n 82481: a1 = a0 if a5 == 0\n 82484: a0 = u64 [s1 + 232]\n 82488: a2 = u64 [s1 + 400]\n 82492: a0 = a0 <u a2\n 82495: a3 = u64 [s1 + 408]\n 82499: a2 = a3 >u 0x0\n 82501: a2 = a0 if a3 == 0\n 82504: a0 = a4 | a5\n 82507: a2 = a1 if a0 != 0\n 82510: jump @1577 if a2 != 0\n      : @1539 (gas: 103)\n 82514: a0 = u64 [s1 + 392]\n 82518: ra = u64 [s1 + 272]\n 82522: i64 a0 = a0 + ra\n 82525: a1 = u8 [a0 + 25]\n 82528: a2 = u8 [a0 + 24]\n 82531: a3 = u8 [a0 + 26]\n 82534: a4 = u8 [a0 + 27]\n 82537: a1 = a1 <<64 8\n 82540: a1 = a1 | a2\n 82543: a3 = a3 <<64 16\n 82546: a4 = a4 <<64 24\n 82549: a3 = a3 | a4\n 82552: a1 = a1 | a3\n 82555: a2 = u8 [a0 + 29]\n 82558: a3 = u8 [a0 + 28]\n 82561: a4 = u8 [a0 + 30]\n 82564: a5 = u8 [a0 + 31]\n 82567: a2 = a2 <<64 8\n 82570: a2 = a2 | a3\n 82573: a4 = a4 <<64 16\n 82576: a5 = a5 <<64 24\n 82579: a4 = a4 | a5\n 82582: a2 = a2 | a4\n 82585: a2 = a2 <<64 32\n 82588: a1 = a1 | a2\n 82591: u64 [s1 + 408] = a1\n 82595: a2 = u8 [a0 + 9]\n 82598: a3 = u8 [a0 + 8]\n 82601: a4 = u8 [a0 + 10]\n 82604: a5 = u8 [a0 + 11]\n 82607: a2 = a2 <<64 8\n 82610: a2 = a2 | a3\n 82613: a4 = a4 <<64 16\n 82616: a5 = a5 <<64 24\n 82619: a4 = a4 | a5\n 82622: a2 = a2 | a4\n 82625: a3 = u8 [a0 + 13]\n 82628: a4 = u8 [a0 + 12]\n 82631: a5 = u8 [a0 + 14]\n 82634: a1 = u8 [a0 + 15]\n 82637: a3 = a3 <<64 8\n 82640: a3 = a3 | a4\n 82643: a5 = a5 <<64 16\n 82646: a1 = a1 <<64 24\n 82649: a1 = a1 | a5\n 82652: a1 = a1 | a3\n 82655: a1 = a1 <<64 32\n 82658: t1 = a1 | a2\n 82661: a1 = u8 [a0 + 1]\n 82664: a3 = u8 [a0]\n 82666: a4 = u8 [a0 + 2]\n 82669: a5 = u8 [a0 + 3]\n 82672: a1 = a1 <<64 8\n 82675: a1 = a1 | a3\n 82678: a4 = a4 <<64 16\n 82681: a5 = a5 <<64 24\n 82684: a3 = a5 | a4\n 82687: t2 = a3 | a1\n 82690: a1 = u8 [a0 + 17]\n 82693: a4 = u8 [a0 + 16]\n 82696: a5 = u8 [a0 + 18]\n 82699: a2 = u8 [a0 + 19]\n 82702: a1 = a1 <<64 8\n 82705: a1 = a1 | a4\n 82708: a5 = a5 <<64 16\n 82711: a2 = a2 <<64 24\n 82714: a2 = a2 | a5\n 82717: t0 = a2 | a1\n 82720: a1 = u8 [a0 + 5]\n 82723: a2 = u8 [a0 + 4]\n 82726: a5 = u8 [a0 + 6]\n 82729: a3 = u8 [a0 + 7]\n 82732: a1 = a1 <<64 8\n 82735: a1 = a1 | a2\n 82738: a5 = a5 <<64 16\n 82741: a3 = a3 <<64 24\n 82744: a3 = a3 | a5\n 82747: a1 = a1 | a3\n 82750: a2 = u8 [a0 + 21]\n 82753: a3 = u8 [a0 + 20]\n 82756: a5 = u8 [a0 + 22]\n 82759: a0 = u8 [a0 + 23]\n 82762: a2 = a2 <<64 8\n 82765: a2 = a2 | a3\n 82768: a5 = a5 <<64 16\n 82771: a0 = a0 <<64 24\n 82774: a0 = a0 | a5\n 82777: a2 = a2 | a0\n 82780: a3 = reverse t1\n 82782: a0 = u64 [s1 + 408]\n 82786: a4 = reverse a0\n 82788: a5 = a4 | a3\n 82791: a1 = a1 | a2\n 82794: a1 = a1 <<64 32\n 82797: a2 = t0 | t2\n 82800: a1 = a1 | a2\n 82803: a1 = reverse a1\n 82805: a5 = a5 | a1\n 82808: a5 = a5 >>64 32\n 82811: a1 = a1 | a3\n 82814: a1 = a1 <<64 32\n 82817: a1 = a1 | a5\n 82820: jump @1577 if a1 != 0\n      : @1540 (gas: 5)\n 82824: a0 = ra + 0x20\n 82827: a1 = a4 + 0x0\n 82829: u64 [s1 + 400] = a0\n 82833: u64 [s1 + 408] = a1\n 82837: ra = 1010, jump @0\n      : @1541 [@dyn 505] (gas: 1)\n 82844: jump @1577 if a0 == 0\n      : @1542 (gas: 23)\n 82848: a2 = u64 [s1 + 288]\n 82852: a0 = u64 [s1 + 304]\n 82856: a0 = a0 | a2\n 82859: a1 = u64 [s1 + 296]\n 82863: a3 = u64 [s1 + 280]\n 82867: a1 = a1 | a3\n 82870: a0 = a0 | a1\n 82873: a0 = a0 >>64 32\n 82876: a1 = a1 | a2\n 82879: a1 = a1 <<64 32\n 82882: a0 = a0 | a1\n 82885: u64 [s1 + 384] = a0\n 82889: a0 = u64 [s1 + 392]\n 82893: a1 = u64 [s1 + 400]\n 82897: a0 = a0 + a1\n 82900: i64 a1 = i64 sp - i64 32\n 82903: a1 = a1 & 0xffffffe0\n 82906: sp = a1\n 82908: u64 [s1 + 400] = a1\n 82912: a2 = a1 + 0x0\n 82914: a1 = u64 [s1 + 408]\n 82918: ecalli 6 // 'hash_keccak_256'\n 82920: fallthrough\n      : @1543 (gas: 2)\n 82921: a0 = u64 [s1 + 384]\n 82925: jump @1577 if a0 != 0\n      : @1544 (gas: 12)\n 82929: a1 = u64 [s1 + 400]\n 82933: a0 = u64 [a1 + 24]\n 82936: u64 [s1 + 384] = a0\n 82940: a0 = u64 [a1 + 16]\n 82943: u64 [s1 + 408] = a0\n 82947: a0 = u64 [a1 + 8]\n 82950: u64 [s1 + 376] = a0\n 82954: a0 = u64 [a1]\n 82956: u64 [s1 + 400] = a0\n 82960: a1 = 0x20\n 82963: a0 = u64 [s1 + 224]\n 82967: ra = 1012, jump @0\n      : @1545 [@dyn 506] (gas: 1)\n 82974: jump @1577 if a0 == 0\n      : @1546 (gas: 11)\n 82978: a0 = u64 [s1 + 296]\n 82982: a1 = u64 [s1 + 288]\n 82986: a0 = a0 | a1\n 82989: a1 = u64 [s1 + 216]\n 82993: i64 a1 = i64 a1 - i64 32\n 82996: a2 = u64 [s1 + 304]\n 83000: a1 = a2 <u a1\n 83003: a2 = u64 [s1 + 280]\n 83007: a1 = 0 if a2 != 0\n 83009: a1 = 0 if a0 != 0\n 83011: jump @1577 if a1 == 0\n      : @1547 (gas: 99)\n 83015: ra = u64 [s1 + 208]\n 83019: a0 = u8 [ra + 25]\n 83022: a1 = u8 [ra + 24]\n 83025: a2 = u8 [ra + 26]\n 83028: a3 = u8 [ra + 27]\n 83031: a0 = a0 <<64 8\n 83034: a0 = a0 | a1\n 83037: a2 = a2 <<64 16\n 83040: a3 = a3 <<64 24\n 83043: a2 = a2 | a3\n 83046: a0 = a0 | a2\n 83049: a1 = u8 [ra + 29]\n 83052: a2 = u8 [ra + 28]\n 83055: a3 = u8 [ra + 30]\n 83058: a4 = u8 [ra + 31]\n 83061: a1 = a1 <<64 8\n 83064: a1 = a1 | a2\n 83067: a3 = a3 <<64 16\n 83070: a4 = a4 <<64 24\n 83073: a3 = a3 | a4\n 83076: a1 = a1 | a3\n 83079: a1 = a1 <<64 32\n 83082: t0 = a1 | a0\n 83085: a1 = u8 [ra + 9]\n 83088: a2 = u8 [ra + 8]\n 83091: a3 = u8 [ra + 10]\n 83094: a4 = u8 [ra + 11]\n 83097: a1 = a1 <<64 8\n 83100: a1 = a1 | a2\n 83103: a3 = a3 <<64 16\n 83106: a4 = a4 <<64 24\n 83109: a3 = a3 | a4\n 83112: a1 = a1 | a3\n 83115: a2 = u8 [ra + 13]\n 83118: a3 = u8 [ra + 12]\n 83121: a4 = u8 [ra + 14]\n 83124: a5 = u8 [ra + 15]\n 83127: a2 = a2 <<64 8\n 83130: a2 = a2 | a3\n 83133: a4 = a4 <<64 16\n 83136: a5 = a5 <<64 24\n 83139: a4 = a4 | a5\n 83142: a2 = a2 | a4\n 83145: a2 = a2 <<64 32\n 83148: t1 = a2 | a1\n 83151: a2 = u8 [ra + 1]\n 83154: a3 = u8 [ra]\n 83156: a4 = u8 [ra + 2]\n 83159: a5 = u8 [ra + 3]\n 83162: a2 = a2 <<64 8\n 83165: a2 = a2 | a3\n 83168: a4 = a4 <<64 16\n 83171: a5 = a5 <<64 24\n 83174: a4 = a4 | a5\n 83177: t2 = a4 | a2\n 83180: a3 = u8 [ra + 17]\n 83183: a4 = u8 [ra + 16]\n 83186: a5 = u8 [ra + 18]\n 83189: a0 = u8 [ra + 19]\n 83192: a3 = a3 <<64 8\n 83195: a3 = a3 | a4\n 83198: a5 = a5 <<64 16\n 83201: a0 = a0 <<64 24\n 83204: a0 = a0 | a5\n 83207: a3 = a3 | a0\n 83210: a0 = u8 [ra + 5]\n 83213: a4 = u8 [ra + 4]\n 83216: a5 = u8 [ra + 6]\n 83219: a1 = u8 [ra + 7]\n 83222: a0 = a0 <<64 8\n 83225: a0 = a0 | a4\n 83228: a5 = a5 <<64 16\n 83231: a1 = a1 <<64 24\n 83234: a1 = a1 | a5\n 83237: a1 = a1 | a0\n 83240: a0 = u8 [ra + 21]\n 83243: a4 = u8 [ra + 20]\n 83246: a5 = u8 [ra + 22]\n 83249: a2 = u8 [ra + 23]\n 83252: a0 = a0 <<64 8\n 83255: a0 = a0 | a4\n 83258: a5 = a5 <<64 16\n 83261: a2 = a2 <<64 24\n 83264: a2 = a2 | a5\n 83267: a2 = a2 | a0\n 83270: a4 = reverse t1\n 83272: a0 = reverse t0\n 83274: a5 = a0 | a4\n 83277: a1 = a1 | a2\n 83280: a1 = a1 <<64 32\n 83283: a2 = a3 | t2\n 83286: a1 = a1 | a2\n 83289: a1 = reverse a1\n 83291: a5 = a5 | a1\n 83294: a5 = a5 >>64 32\n 83297: a1 = a1 | a4\n 83300: a1 = a1 <<64 32\n 83303: a1 = a1 | a5\n 83306: jump @1577 if a1 != 0\n      : @1548 (gas: 4)\n 83310: a1 = a0 + 0x0\n 83312: a0 = u64 [s1 + 200]\n 83316: u64 [s1 + 272] = a1\n 83320: ra = 1014, jump @0\n      : @1549 [@dyn 507] (gas: 1)\n 83327: jump @1577 if a0 == 0\n      : @1550 (gas: 9)\n 83331: i64 a0 = i64 sp - i64 32\n 83334: a0 = a0 & 0xffffffe0\n 83337: u64 [s1 + 264] = a0\n 83341: sp = a0\n 83343: a2 = a0 + 0x0\n 83345: a0 = u64 [s1 + 192]\n 83349: a1 = u64 [s1 + 272]\n 83353: ecalli 6 // 'hash_keccak_256'\n 83355: fallthrough\n      : @1551 (gas: 17)\n 83356: a3 = u64 [s1 + 264]\n 83360: a0 = u64 [a3 + 24]\n 83363: a1 = u64 [a3 + 8]\n 83366: a2 = u64 [a3]\n 83368: a3 = u64 [a3 + 16]\n 83371: a4 = u64 [s1 + 384]\n 83375: a0 = a0 ^ a4\n 83378: a4 = u64 [s1 + 376]\n 83382: a1 = a1 ^ a4\n 83385: a0 = a0 | a1\n 83388: a1 = u64 [s1 + 408]\n 83392: a1 = a1 ^ a3\n 83395: a3 = u64 [s1 + 400]\n 83399: a2 = a2 ^ a3\n 83402: a1 = a1 | a2\n 83405: a0 = a0 | a1\n 83408: jump @1526 if a0 != 0\n      : @1552 (gas: 13)\n 83412: i64 sp = i64 sp - i64 16\n 83415: a0 = u64 [s1 + 312]\n 83419: u64 [sp] = a0\n 83421: i64 a0 = i64 s1 + 0x1a0\n 83425: a1 = u64 [s1 + 320]\n 83429: u64 [sp + 8] = a1\n 83432: a1 = u64 [s1 + 48]\n 83435: a2 = u64 [s1 + 56]\n 83438: a3 = u64 [s1 + 64]\n 83441: a4 = u64 [s1 + 72]\n 83444: a5 = u64 [s1 + 336]\n 83448: t2 = u64 [s1 + 328]\n 83452: ra = 1016, jump @1626\n      : @1553 [@dyn 508] (gas: 13)\n 83458: i64 sp = i64 sp + 0x10\n 83461: a1 = u64 [s1 + 432]\n 83465: a2 = u64 [s1 + 440]\n 83469: a3 = u64 [s1 + 424]\n 83473: a0 = u64 [s1 + 416]\n 83477: a2 = a2 | a3\n 83480: a3 = a0 | a1\n 83483: a3 = a3 | a2\n 83486: a3 = a3 >>64 32\n 83489: a1 = a1 | a2\n 83492: a1 = a1 <<64 32\n 83495: a1 = a1 | a3\n 83498: jump @1577 if a1 != 0\n      : @1554 (gas: 4)\n 83502: a0 = a0 + 0x0\n 83504: a1 = 0x20\n 83507: u64 [s1 + 408] = a0\n 83511: ra = 1018, jump @0\n      : @1555 [@dyn 509] (gas: 1)\n 83518: jump @1577 if a0 == 0\n      : @1556 (gas: 90)\n 83522: a0 = u64 [s1 + 392]\n 83526: a1 = u64 [s1 + 408]\n 83530: i64 a0 = a0 + a1\n 83533: ra = u64 [s1 + 344]\n 83537: t0 = reverse ra\n 83539: t1 = u64 [s1 + 360]\n 83543: a2 = reverse t1\n 83545: a3 = a2 >>64 56\n 83548: u8 [a0 + 31] = a3\n 83551: a3 = a2 >>64 48\n 83554: u8 [a0 + 30] = a3\n 83557: a3 = a2 >>64 40\n 83560: u8 [a0 + 29] = a3\n 83563: a3 = a2 >>64 32\n 83566: u8 [a0 + 28] = a3\n 83569: a3 = a2 >>64 24\n 83572: u8 [a0 + 27] = a3\n 83575: a3 = a2 >>64 16\n 83578: u8 [a0 + 26] = a3\n 83581: t2 = u64 [s1 + 352]\n 83585: a3 = reverse t2\n 83587: u8 [a0 + 24] = a2\n 83590: a2 = a2 >>64 8\n 83593: u8 [a0 + 25] = a2\n 83596: a2 = a3 >>64 56\n 83599: u8 [a0 + 23] = a2\n 83602: a2 = a3 >>64 48\n 83605: u8 [a0 + 22] = a2\n 83608: a2 = a3 >>64 40\n 83611: u8 [a0 + 21] = a2\n 83614: a2 = a3 >>64 32\n 83617: u8 [a0 + 20] = a2\n 83620: a2 = a3 >>64 24\n 83623: u8 [a0 + 19] = a2\n 83626: a2 = a3 >>64 16\n 83629: u8 [a0 + 18] = a2\n 83632: a1 = u64 [s1 + 368]\n 83636: a2 = reverse a1\n 83638: u8 [a0 + 16] = a3\n 83641: a3 = a3 >>64 8\n 83644: u8 [a0 + 17] = a3\n 83647: u8 [a0 + 8] = a2\n 83650: a3 = a2 >>64 56\n 83653: u8 [a0 + 15] = a3\n 83656: a3 = a2 >>64 48\n 83659: u8 [a0 + 14] = a3\n 83662: a3 = a2 >>64 40\n 83665: u8 [a0 + 13] = a3\n 83668: a3 = a2 >>64 32\n 83671: u8 [a0 + 12] = a3\n 83674: a3 = a2 >>64 24\n 83677: u8 [a0 + 11] = a3\n 83680: a3 = a2 >>64 16\n 83683: u8 [a0 + 10] = a3\n 83686: a2 = a2 >>64 8\n 83689: u8 [a0 + 9] = a2\n 83692: a2 = t0 >>64 56\n 83695: u8 [a0 + 7] = a2\n 83698: a2 = t0 >>64 48\n 83701: u8 [a0 + 6] = a2\n 83704: a2 = t0 >>64 40\n 83707: u8 [a0 + 5] = a2\n 83710: a2 = t0 >>64 32\n 83713: u8 [a0 + 4] = a2\n 83716: a2 = t0 >>64 24\n 83719: u8 [a0 + 3] = a2\n 83722: a2 = t0 >>64 16\n 83725: u8 [a0 + 2] = a2\n 83728: a4 = u64 [s1 + 336]\n 83732: i64 a4 = i64 a4 + 0x1\n 83735: a2 = a4 <u 0x1\n 83738: a5 = u64 [s1 + 328]\n 83742: i64 a5 = a5 + a2\n 83745: a2 = a4 | a5\n 83748: a2 = a2 <u 0x1\n 83751: a1 = u64 [s1 + 312]\n 83755: i64 a2 = a2 + a1\n 83758: a3 = a2 <u a1\n 83761: a1 = u64 [s1 + 320]\n 83765: i64 a1 = a1 + a3\n 83768: u64 [s1 + 328] = a5\n 83772: u64 [s1 + 320] = a1\n 83776: a3 = a5 | a1\n 83779: u64 [s1 + 336] = a4\n 83783: a4 = a4 | a2\n 83786: a3 = a3 | a4\n 83789: u8 [a0] = t0\n 83791: a1 = t0 >>64 8\n 83794: u8 [a0 + 1] = a1\n 83797: jump @1571 if a3 == 0\n      : @1557 (gas: 2)\n 83801: u64 [s1 + 312] = a2\n 83805: jump @1527\n      : @1558 (gas: 6)\n 83808: i64 a0 = i64 s1 + 0x240\n 83812: a1 = u64 [s1 + 336]\n 83816: a2 = u64 [s1 + 328]\n 83820: a3 = u64 [s1 + 312]\n 83824: a4 = u64 [s1 + 320]\n 83828: ra = 1020, jump @1468\n      : @1559 [@dyn 510] (gas: 16)\n 83834: a0 = u64 [s1 + 600]\n 83838: u64 [s1 + 40] = a0\n 83841: a0 = u64 [s1 + 592]\n 83845: u64 [s1 + 32] = a0\n 83848: a0 = u64 [s1 + 584]\n 83852: u64 [s1 + 24] = a0\n 83855: a0 = u64 [s1 + 576]\n 83859: u64 [s1 + 16] = a0\n 83862: a0 = u64 [s1 + 336]\n 83866: a1 = u64 [s1 + 312]\n 83870: a0 = a0 | a1\n 83873: a1 = u64 [s1 + 328]\n 83877: a2 = u64 [s1 + 320]\n 83881: a1 = a1 | a2\n 83884: a0 = a0 | a1\n 83887: jump @1570 if a0 == 0\n      : @1560 (gas: 5)\n 83891: a5 = 0x0\n 83893: t2 = 0x0\n 83895: a0 = 0x0\n 83897: t1 = 0x0\n 83899: fallthrough\n      : @1561 (gas: 13)\n 83900: i64 sp = i64 sp - i64 16\n 83903: u64 [s1 + 376] = a0\n 83907: u64 [sp] = a0\n 83909: i64 a0 = i64 s1 + 0x220\n 83913: u64 [s1 + 384] = t1\n 83917: u64 [sp + 8] = t1\n 83920: a1 = u64 [s1 + 48]\n 83923: a2 = u64 [s1 + 56]\n 83926: a3 = u64 [s1 + 64]\n 83929: a4 = u64 [s1 + 72]\n 83932: u64 [s1 + 408] = a5\n 83936: u64 [s1 + 400] = t2\n 83940: ra = 1022, jump @1626\n      : @1562 [@dyn 511] (gas: 13)\n 83946: i64 sp = i64 sp + 0x10\n 83949: a1 = u64 [s1 + 560]\n 83953: a2 = u64 [s1 + 568]\n 83957: a3 = u64 [s1 + 552]\n 83961: a0 = u64 [s1 + 544]\n 83965: a2 = a2 | a3\n 83968: a3 = a0 | a1\n 83971: a3 = a3 | a2\n 83974: a3 = a3 >>64 32\n 83977: a1 = a1 | a2\n 83980: a1 = a1 <<64 32\n 83983: a1 = a1 | a3\n 83986: jump @1577 if a1 != 0\n      : @1563 (gas: 4)\n 83990: a0 = a0 + 0x0\n 83992: a1 = 0x20\n 83995: u64 [s1 + 368] = a0\n 83999: ra = 1024, jump @0\n      : @1564 [@dyn 512] (gas: 1)\n 84006: jump @1577 if a0 == 0\n      : @1565 (gas: 80)\n 84010: a0 = u64 [s1 + 392]\n 84014: a1 = u64 [s1 + 368]\n 84018: i64 a0 = a0 + a1\n 84021: a1 = u8 [a0 + 24]\n 84024: u64 [s1 + 120] = a1\n 84027: a1 = u8 [a0 + 25]\n 84030: u64 [s1 + 88] = a1\n 84033: a1 = u8 [a0 + 26]\n 84036: u64 [s1 + 104] = a1\n 84039: a1 = u8 [a0 + 27]\n 84042: u64 [s1 + 96] = a1\n 84045: a1 = u8 [a0 + 28]\n 84048: u64 [s1 + 144] = a1\n 84052: a1 = u8 [a0 + 29]\n 84055: u64 [s1 + 112] = a1\n 84058: a1 = u8 [a0 + 30]\n 84061: u64 [s1 + 136] = a1\n 84065: a1 = u8 [a0 + 31]\n 84068: u64 [s1 + 128] = a1\n 84072: a1 = u8 [a0 + 16]\n 84075: u64 [s1 + 184] = a1\n 84079: a1 = u8 [a0 + 17]\n 84082: u64 [s1 + 152] = a1\n 84086: a1 = u8 [a0 + 18]\n 84089: u64 [s1 + 168] = a1\n 84093: a1 = u8 [a0 + 19]\n 84096: u64 [s1 + 160] = a1\n 84100: a1 = u8 [a0 + 20]\n 84103: u64 [s1 + 208] = a1\n 84107: a1 = u8 [a0 + 21]\n 84110: u64 [s1 + 176] = a1\n 84114: a1 = u8 [a0 + 22]\n 84117: u64 [s1 + 200] = a1\n 84121: a1 = u8 [a0 + 23]\n 84124: u64 [s1 + 192] = a1\n 84128: a1 = u8 [a0 + 8]\n 84131: u64 [s1 + 248] = a1\n 84135: a1 = u8 [a0 + 9]\n 84138: u64 [s1 + 216] = a1\n 84142: a1 = u8 [a0 + 10]\n 84145: u64 [s1 + 232] = a1\n 84149: a1 = u8 [a0 + 11]\n 84152: u64 [s1 + 224] = a1\n 84156: a1 = u8 [a0 + 12]\n 84159: u64 [s1 + 272] = a1\n 84163: a1 = u8 [a0 + 13]\n 84166: u64 [s1 + 240] = a1\n 84170: a1 = u8 [a0 + 14]\n 84173: u64 [s1 + 264] = a1\n 84177: a1 = u8 [a0 + 15]\n 84180: u64 [s1 + 256] = a1\n 84184: a1 = u8 [a0]\n 84186: u64 [s1 + 344] = a1\n 84190: a1 = u8 [a0 + 1]\n 84193: u64 [s1 + 280] = a1\n 84197: a1 = u8 [a0 + 2]\n 84200: u64 [s1 + 296] = a1\n 84204: a1 = u8 [a0 + 3]\n 84207: u64 [s1 + 288] = a1\n 84211: a1 = u8 [a0 + 4]\n 84214: u64 [s1 + 368] = a1\n 84218: a1 = u8 [a0 + 5]\n 84221: u64 [s1 + 304] = a1\n 84225: a1 = u8 [a0 + 6]\n 84228: u64 [s1 + 360] = a1\n 84232: a0 = u8 [a0 + 7]\n 84235: u64 [s1 + 352] = a0\n 84239: i64 sp = i64 sp - i64 16\n 84242: a0 = u64 [s1 + 384]\n 84246: u64 [sp + 8] = a0\n 84249: i64 a0 = i64 s1 + 0x200\n 84253: a1 = u64 [s1 + 376]\n 84257: u64 [sp] = a1\n 84259: a1 = u64 [s1 + 16]\n 84262: a2 = u64 [s1 + 24]\n 84265: a3 = u64 [s1 + 32]\n 84268: a4 = u64 [s1 + 40]\n 84271: a5 = u64 [s1 + 408]\n 84275: t2 = u64 [s1 + 400]\n 84279: ra = 1026, jump @1626\n      : @1566 [@dyn 513] (gas: 13)\n 84285: i64 sp = i64 sp + 0x10\n 84288: a1 = u64 [s1 + 528]\n 84292: a2 = u64 [s1 + 536]\n 84296: a3 = u64 [s1 + 520]\n 84300: a0 = u64 [s1 + 512]\n 84304: a2 = a2 | a3\n 84307: a3 = a0 | a1\n 84310: a3 = a3 | a2\n 84313: a3 = a3 >>64 32\n 84316: a1 = a1 | a2\n 84319: a1 = a1 <<64 32\n 84322: a1 = a1 | a3\n 84325: jump @1577 if a1 != 0\n      : @1567 (gas: 4)\n 84329: a0 = a0 + 0x0\n 84331: a1 = 0x20\n 84334: u64 [s1 + 80] = a0\n 84337: ra = 1028, jump @0\n      : @1568 [@dyn 514] (gas: 1)\n 84344: jump @1577 if a0 == 0\n      : @1569 (gas: 183)\n 84348: a5 = u64 [s1 + 408]\n 84352: i64 a5 = i64 a5 + 0x1\n 84355: a0 = a5 <u 0x1\n 84358: t2 = u64 [s1 + 400]\n 84362: i64 t2 = t2 + a0\n 84365: a0 = u64 [s1 + 336]\n 84369: a0 = a5 <u a0\n 84372: a2 = u64 [s1 + 328]\n 84376: a1 = t2 ^ a2\n 84379: ra = t2 <u a2\n 84382: ra = a0 if a1 == 0\n 84385: a0 = a5 | t2\n 84388: a0 = a0 <u 0x1\n 84391: a1 = u64 [s1 + 376]\n 84395: i64 a0 = a0 + a1\n 84398: u64 [s1 + 408] = a0\n 84402: a1 = a0 <u a1\n 84405: t1 = u64 [s1 + 384]\n 84409: i64 t1 = t1 + a1\n 84412: a1 = u64 [s1 + 312]\n 84416: t0 = a0 <u a1\n 84419: a3 = u64 [s1 + 320]\n 84423: a4 = t1 ^ a3\n 84426: a2 = t1 <u a3\n 84429: a2 = t0 if a4 == 0\n 84432: a3 = a0 ^ a1\n 84435: a3 = a3 | a4\n 84438: a2 = ra if a3 == 0\n 84441: u64 [s1 + 400] = a2\n 84445: a2 = u64 [s1 + 88]\n 84448: a2 = a2 <<64 8\n 84451: a0 = u64 [s1 + 120]\n 84454: a2 = a2 | a0\n 84457: a3 = u64 [s1 + 104]\n 84460: a3 = a3 <<64 16\n 84463: a4 = u64 [s1 + 96]\n 84466: a4 = a4 <<64 24\n 84469: a3 = a3 | a4\n 84472: a2 = a2 | a3\n 84475: a3 = u64 [s1 + 112]\n 84478: a3 = a3 <<64 8\n 84481: a0 = u64 [s1 + 144]\n 84485: a3 = a3 | a0\n 84488: a4 = u64 [s1 + 136]\n 84492: a4 = a4 <<64 16\n 84495: a0 = u64 [s1 + 128]\n 84499: a0 = a0 <<64 24\n 84502: a4 = a4 | a0\n 84505: a3 = a3 | a4\n 84508: a3 = a3 <<64 32\n 84511: ra = a3 | a2\n 84514: a3 = u64 [s1 + 152]\n 84518: a3 = a3 <<64 8\n 84521: a0 = u64 [s1 + 184]\n 84525: a3 = a3 | a0\n 84528: a4 = u64 [s1 + 168]\n 84532: a4 = a4 <<64 16\n 84535: a0 = u64 [s1 + 160]\n 84539: a0 = a0 <<64 24\n 84542: a4 = a4 | a0\n 84545: a3 = a3 | a4\n 84548: a4 = u64 [s1 + 176]\n 84552: a4 = a4 <<64 8\n 84555: a0 = u64 [s1 + 208]\n 84559: a4 = a4 | a0\n 84562: a1 = u64 [s1 + 200]\n 84566: a1 = a1 <<64 16\n 84569: a0 = u64 [s1 + 192]\n 84573: a0 = a0 <<64 24\n 84576: a0 = a0 | a1\n 84579: a0 = a0 | a4\n 84582: a0 = a0 <<64 32\n 84585: a3 = a3 | a0\n 84588: a0 = u64 [s1 + 216]\n 84592: a0 = a0 <<64 8\n 84595: a1 = u64 [s1 + 248]\n 84599: a0 = a0 | a1\n 84602: a4 = u64 [s1 + 232]\n 84606: a4 = a4 <<64 16\n 84609: a1 = u64 [s1 + 224]\n 84613: a1 = a1 <<64 24\n 84616: a4 = a4 | a1\n 84619: a0 = a0 | a4\n 84622: a4 = u64 [s1 + 240]\n 84626: a4 = a4 <<64 8\n 84629: a1 = u64 [s1 + 272]\n 84633: a4 = a4 | a1\n 84636: a2 = u64 [s1 + 264]\n 84640: a2 = a2 <<64 16\n 84643: a1 = u64 [s1 + 256]\n 84647: a1 = a1 <<64 24\n 84650: a1 = a1 | a2\n 84653: a1 = a1 | a4\n 84656: a1 = a1 <<64 32\n 84659: a2 = a1 | a0\n 84662: a0 = u64 [s1 + 280]\n 84666: a0 = a0 <<64 8\n 84669: a1 = u64 [s1 + 344]\n 84673: a0 = a0 | a1\n 84676: a1 = u64 [s1 + 296]\n 84680: a1 = a1 <<64 16\n 84683: a4 = u64 [s1 + 288]\n 84687: a4 = a4 <<64 24\n 84690: a1 = a1 | a4\n 84693: t0 = a1 | a0\n 84696: a1 = u64 [s1 + 304]\n 84700: a1 = a1 <<64 8\n 84703: a0 = u64 [s1 + 368]\n 84707: a1 = a1 | a0\n 84710: a4 = u64 [s1 + 360]\n 84714: a4 = a4 <<64 16\n 84717: a0 = u64 [s1 + 352]\n 84721: a0 = a0 <<64 24\n 84724: a0 = a0 | a4\n 84727: a0 = a0 | a1\n 84730: a0 = a0 <<64 32\n 84733: a0 = a0 | t0\n 84736: a4 = u64 [s1 + 392]\n 84740: a1 = u64 [s1 + 80]\n 84743: i64 a4 = a4 + a1\n 84746: a1 = a0 >>64 56\n 84749: u8 [a4 + 7] = a1\n 84752: a1 = a0 >>64 48\n 84755: u8 [a4 + 6] = a1\n 84758: a1 = a0 >>64 40\n 84761: u8 [a4 + 5] = a1\n 84764: a1 = a0 >>64 32\n 84767: u8 [a4 + 4] = a1\n 84770: a1 = a0 >>64 24\n 84773: u8 [a4 + 3] = a1\n 84776: a1 = a0 >>64 16\n 84779: u8 [a4 + 2] = a1\n 84782: a1 = a0 >>64 8\n 84785: u8 [a4 + 1] = a1\n 84788: u8 [a4] = a0\n 84790: a0 = a2 >>64 56\n 84793: u8 [a4 + 15] = a0\n 84796: a0 = a2 >>64 48\n 84799: u8 [a4 + 14] = a0\n 84802: a0 = a2 >>64 40\n 84805: u8 [a4 + 13] = a0\n 84808: a0 = a2 >>64 32\n 84811: u8 [a4 + 12] = a0\n 84814: a0 = a2 >>64 24\n 84817: u8 [a4 + 11] = a0\n 84820: a0 = a2 >>64 16\n 84823: u8 [a4 + 10] = a0\n 84826: u8 [a4 + 8] = a2\n 84829: a2 = a2 >>64 8\n 84832: u8 [a4 + 9] = a2\n 84835: a0 = a3 >>64 56\n 84838: u8 [a4 + 23] = a0\n 84841: a0 = a3 >>64 48\n 84844: u8 [a4 + 22] = a0\n 84847: a0 = a3 >>64 40\n 84850: u8 [a4 + 21] = a0\n 84853: a0 = a3 >>64 32\n 84856: u8 [a4 + 20] = a0\n 84859: a0 = a3 >>64 24\n 84862: u8 [a4 + 19] = a0\n 84865: a0 = a3 >>64 16\n 84868: u8 [a4 + 18] = a0\n 84871: u8 [a4 + 16] = a3\n 84874: a3 = a3 >>64 8\n 84877: u8 [a4 + 17] = a3\n 84880: a0 = ra >>64 56\n 84883: u8 [a4 + 31] = a0\n 84886: a0 = ra >>64 48\n 84889: u8 [a4 + 30] = a0\n 84892: a0 = ra >>64 40\n 84895: u8 [a4 + 29] = a0\n 84898: a0 = ra >>64 32\n 84901: u8 [a4 + 28] = a0\n 84904: a0 = ra >>64 24\n 84907: u8 [a4 + 27] = a0\n 84910: a0 = ra >>64 16\n 84913: u8 [a4 + 26] = a0\n 84916: u8 [a4 + 24] = ra\n 84919: a2 = ra >>64 8\n 84922: u8 [a4 + 25] = a2\n 84925: a0 = u64 [s1 + 408]\n 84929: a1 = u64 [s1 + 400]\n 84933: jump @1561 if a1 != 0\n      : @1570 (gas: 15)\n 84937: a0 = u64 [s1 + 8]\n 84940: a1 = u64 [s1 + 16]\n 84943: u64 [a0] = a1\n 84945: a1 = u64 [s1 + 24]\n 84948: u64 [a0 + 8] = a1\n 84951: a1 = u64 [s1 + 32]\n 84954: u64 [a0 + 16] = a1\n 84957: a1 = u64 [s1 + 40]\n 84960: u64 [a0 + 24] = a1\n 84963: i64 sp = i64 s0 - i64 768\n 84967: ra = u64 [sp + 760]\n 84971: s0 = u64 [sp + 752]\n 84975: s1 = u64 [sp + 744]\n 84979: i64 sp = i64 sp + 0x300\n 84983: ret\n      : @1571 (gas: 3)\n 84985: a1 = 0x20\n 84988: a0 = 0x0\n 84990: ra = 1030, jump @0\n      : @1572 [@dyn 515] (gas: 1)\n 84997: jump @1577 if a0 == 0\n      : @1573 (gas: 8)\n 85000: a1 = u64 [s1 + 392]\n 85004: u64 [a1 + 24] = 0\n 85007: u64 [a1 + 16] = 0\n 85010: u64 [a1 + 8] = 0\n 85013: u64 [a1 + 0] = 1903904846\n 85019: a0 = 0x4\n 85022: a1 = 0x20\n 85025: ra = 1032, jump @0\n      : @1574 [@dyn 516] (gas: 1)\n 85032: jump @1577 if a0 == 0\n      : @1575 (gas: 12)\n 85035: a1 = u64 [s1 + 392]\n 85039: u32 [a1 + 32] = 285212672\n 85046: u32 [a1 + 28] = 0\n 85049: u32 [a1 + 24] = 0\n 85052: u32 [a1 + 20] = 0\n 85055: u32 [a1 + 16] = 0\n 85058: u32 [a1 + 12] = 0\n 85061: u32 [a1 + 8] = 0\n 85064: u32 [a1 + 4] = 0\n 85067: a1 = 0x24\n 85070: a0 = 0x0\n 85072: ra = 1034, jump @0\n      : @1576 [@dyn 517] (gas: 1)\n 85079: jump @1578 if a0 != 0\n      : @1577 (gas: 1)\n 85082: trap\n      : @1578 (gas: 6)\n 85083: a1 = i32 [s1 + 392]\n 85087: a0 = 0x1\n 85090: a2 = 0x24\n 85093: ra = 0x40c\n 85097: ecalli 11 // 'seal_return'\n 85099: fallthrough\n      : @1579 [@dyn 518] (gas: 17)\n 85100: i64 sp = i64 sp - i64 96\n 85103: u64 [sp + 88] = ra\n 85106: u64 [sp + 80] = s0\n 85109: u64 [sp + 72] = s1\n 85112: s1 = a4\n 85114: a4 = a1\n 85116: u64 [sp + 64] = a2\n 85119: a1 = a2 | s1\n 85122: a2 = a4 | a3\n 85125: a2 = a2 | a1\n 85128: a2 = a2 >>64 32\n 85131: u64 [sp + 40] = a3\n 85134: a1 = a1 | a3\n 85137: a1 = a1 <<64 32\n 85140: a1 = a1 | a2\n 85143: u64 [sp + 8] = a0\n 85146: jump @1592 if a1 != 0\n      : @1580 (gas: 5)\n 85150: s0 = a4 + 0x0\n 85152: a1 = 0x20\n 85155: a0 = s0\n 85157: u64 [sp + 56] = a4\n 85160: ra = 1038, jump @0\n      : @1581 [@dyn 519] (gas: 1)\n 85167: jump @1592 if a0 == 0\n      : @1582 (gas: 52)\n 85171: a0 = 0x20050\n 85176: u64 [sp + 48] = a0\n 85179: i64 a0 = a0 + s0\n 85182: u8 [a0 + 31] = 32\n 85186: u8 [a0 + 30] = 0\n 85189: u8 [a0 + 29] = 0\n 85192: u8 [a0 + 28] = 0\n 85195: u8 [a0 + 27] = 0\n 85198: u8 [a0 + 26] = 0\n 85201: u8 [a0 + 25] = 0\n 85204: u8 [a0 + 24] = 0\n 85207: u8 [a0 + 23] = 0\n 85210: u8 [a0 + 22] = 0\n 85213: u8 [a0 + 21] = 0\n 85216: u8 [a0 + 20] = 0\n 85219: u8 [a0 + 19] = 0\n 85222: u8 [a0 + 18] = 0\n 85225: u8 [a0 + 17] = 0\n 85228: u8 [a0 + 16] = 0\n 85231: u8 [a0 + 15] = 0\n 85234: u8 [a0 + 14] = 0\n 85237: u8 [a0 + 13] = 0\n 85240: u8 [a0 + 12] = 0\n 85243: u8 [a0 + 11] = 0\n 85246: u8 [a0 + 10] = 0\n 85249: u8 [a0 + 9] = 0\n 85252: u8 [a0 + 8] = 0\n 85255: u8 [a0 + 7] = 0\n 85258: u8 [a0 + 6] = 0\n 85261: u8 [a0 + 5] = 0\n 85264: u8 [a0 + 4] = 0\n 85267: u8 [a0 + 3] = 0\n 85270: u8 [a0 + 2] = 0\n 85273: u8 [a0 + 1] = 0\n 85276: a3 = u64 [sp + 40]\n 85279: a1 = a3 >u 0x0\n 85281: a2 = s1\n 85283: s1 = s1 >u 0x0\n 85285: s1 = a1 if a2 == 0\n 85288: a1 = 0xffffffdf\n 85298: a4 = u64 [sp + 56]\n 85301: a1 = a1 <u a4\n 85304: a4 = u64 [sp + 64]\n 85307: a5 = a4 >u 0x0\n 85309: u64 [sp + 16] = a5\n 85312: a1 = a5 if a4 != 0\n 85315: u64 [sp] = a2\n 85317: a2 = a2 | a3\n 85320: u64 [sp + 32] = a2\n 85323: a1 = s1 if a2 != 0\n 85326: u8 [a0 + 0] = 0\n 85328: jump @1592 if a1 != 0\n      : @1583 (gas: 5)\n 85332: u64 [sp + 24] = s0\n 85335: s0 = s0 + 0x20\n 85338: a1 = 0x20\n 85341: a0 = s0\n 85343: ra = 1040, jump @0\n      : @1584 [@dyn 520] (gas: 1)\n 85350: jump @1592 if a0 == 0\n      : @1585 (gas: 43)\n 85354: a0 = u64 [sp + 48]\n 85357: i64 s0 = s0 + a0\n 85360: u8 [s0 + 31] = 33\n 85364: u8 [s0 + 30] = 0\n 85367: u8 [s0 + 29] = 0\n 85370: u8 [s0 + 28] = 0\n 85373: u8 [s0 + 27] = 0\n 85376: u8 [s0 + 26] = 0\n 85379: u8 [s0 + 25] = 0\n 85382: u8 [s0 + 24] = 0\n 85385: u8 [s0 + 23] = 0\n 85388: u8 [s0 + 22] = 0\n 85391: u8 [s0 + 21] = 0\n 85394: u8 [s0 + 20] = 0\n 85397: u8 [s0 + 19] = 0\n 85400: u8 [s0 + 18] = 0\n 85403: u8 [s0 + 17] = 0\n 85406: u8 [s0 + 16] = 0\n 85409: u8 [s0 + 15] = 0\n 85412: u8 [s0 + 14] = 0\n 85415: u8 [s0 + 13] = 0\n 85418: u8 [s0 + 12] = 0\n 85421: u8 [s0 + 11] = 0\n 85424: u8 [s0 + 10] = 0\n 85427: u8 [s0 + 9] = 0\n 85430: u8 [s0 + 8] = 0\n 85433: u8 [s0 + 7] = 0\n 85436: u8 [s0 + 6] = 0\n 85439: u8 [s0 + 5] = 0\n 85442: u8 [s0 + 4] = 0\n 85445: u8 [s0 + 3] = 0\n 85448: u8 [s0 + 2] = 0\n 85451: u8 [s0 + 1] = 0\n 85454: a0 = 0xffffffbf\n 85464: a1 = u64 [sp + 56]\n 85467: a0 = a0 <u a1\n 85470: a1 = u64 [sp + 64]\n 85473: a2 = u64 [sp + 16]\n 85476: a0 = a2 if a1 != 0\n 85479: a1 = u64 [sp + 32]\n 85482: a0 = s1 if a1 != 0\n 85485: u8 [s0 + 0] = 0\n 85487: jump @1592 if a0 != 0\n      : @1586 (gas: 6)\n 85491: a0 = u64 [sp + 24]\n 85494: s0 = a0 + 0x40\n 85497: a1 = 0x20\n 85500: s1 = 0x20\n 85503: a0 = s0\n 85505: ra = 1042, jump @0\n      : @1587 [@dyn 521] (gas: 1)\n 85512: jump @1592 if a0 == 0\n      : @1588 (gas: 42)\n 85516: a0 = u64 [sp + 48]\n 85519: i64 s0 = s0 + a0\n 85522: u8 [s0 + 29] = 108\n 85526: u8 [s0 + 20] = 102\n 85530: u8 [s0 + 26] = 101\n 85534: u8 [s0 + 23] = 101\n 85538: u8 [s0 + 19] = 101\n 85542: u8 [s0 + 16] = 101\n 85546: u8 [s0 + 14] = 117\n 85550: u8 [s0 + 18] = 98\n 85554: u8 [s0 + 13] = 98\n 85558: u8 [s0 + 22] = 114\n 85562: u8 [s0 + 11] = 114\n 85566: u8 [s0 + 9] = 115\n 85570: u8 [s0 + 30] = 105\n 85574: u8 [s0 + 12] = 105\n 85578: u8 [s0 + 8] = 105\n 85582: u8 [s0 + 28] = 100\n 85586: u8 [s0 + 25] = 100\n 85590: u8 [s0 + 7] = 100\n 85594: u8 [s0 + 24] = s1\n 85597: u8 [s0 + 17] = s1\n 85600: u8 [s0 + 6] = s1\n 85603: u8 [s0 + 15] = 116\n 85607: u8 [s0 + 10] = 116\n 85611: u8 [s0 + 5] = 116\n 85615: u8 [s0 + 21] = 111\n 85619: u8 [s0 + 4] = 111\n 85623: u8 [s0 + 31] = 110\n 85627: u8 [s0 + 3] = 110\n 85631: u8 [s0 + 2] = 110\n 85635: u8 [s0 + 27] = 97\n 85639: u8 [s0 + 1] = 97\n 85643: a0 = 0xffffffa0\n 85653: a1 = u64 [sp + 56]\n 85656: a0 = a1 <u a0\n 85659: a1 = u64 [sp + 64]\n 85662: a0 = 0 if a1 != 0\n 85664: a1 = u64 [sp + 32]\n 85667: a0 = 0 if a1 != 0\n 85669: u8 [s0 + 0] = 67\n 85672: jump @1592 if a0 == 0\n      : @1589 (gas: 5)\n 85676: a0 = u64 [sp + 24]\n 85679: s0 = a0 + 0x60\n 85682: a1 = 0x20\n 85685: a0 = s0\n 85687: ra = 1044, jump @0\n      : @1590 [@dyn 522] (gas: 2)\n 85694: a4 = u64 [sp]\n 85696: jump @1592 if a0 == 0\n      : @1591 (gas: 55)\n 85700: a0 = u64 [sp + 48]\n 85703: i64 s0 = s0 + a0\n 85706: u8 [s0 + 31] = 0\n 85709: u8 [s0 + 30] = 0\n 85712: u8 [s0 + 29] = 0\n 85715: u8 [s0 + 28] = 0\n 85718: u8 [s0 + 27] = 0\n 85721: u8 [s0 + 26] = 0\n 85724: u8 [s0 + 25] = 0\n 85727: u8 [s0 + 24] = 0\n 85730: u8 [s0 + 23] = 0\n 85733: u8 [s0 + 22] = 0\n 85736: u8 [s0 + 21] = 0\n 85739: u8 [s0 + 20] = 0\n 85742: u8 [s0 + 19] = 0\n 85745: u8 [s0 + 18] = 0\n 85748: u8 [s0 + 17] = 0\n 85751: u8 [s0 + 16] = 0\n 85754: u8 [s0 + 15] = 0\n 85757: u8 [s0 + 14] = 0\n 85760: u8 [s0 + 13] = 0\n 85763: u8 [s0 + 12] = 0\n 85766: u8 [s0 + 11] = 0\n 85769: u8 [s0 + 10] = 0\n 85772: u8 [s0 + 9] = 0\n 85775: u8 [s0 + 8] = 0\n 85778: u8 [s0 + 7] = 0\n 85781: u8 [s0 + 6] = 0\n 85784: u8 [s0 + 5] = 0\n 85787: u8 [s0 + 4] = 0\n 85790: u8 [s0 + 3] = 0\n 85793: u8 [s0 + 2] = 0\n 85796: u8 [s0 + 1] = 0\n 85799: u8 [s0 + 0] = 101\n 85802: a1 = u64 [sp + 56]\n 85805: i64 a0 = i64 a1 + 0x80\n 85809: a1 = a0 <u a1\n 85812: a3 = u64 [sp + 64]\n 85815: i64 a2 = a3 + a1\n 85818: a3 = a2 <u a3\n 85821: a3 = a1 if a1 == 0\n 85824: a1 = u64 [sp + 40]\n 85827: i64 a3 = a3 + a1\n 85830: a1 = a3 <u a1\n 85833: i64 a1 = a1 + a4\n 85836: a4 = u64 [sp + 8]\n 85839: u64 [a4] = a0\n 85841: u64 [a4 + 8] = a2\n 85844: u64 [a4 + 16] = a3\n 85847: u64 [a4 + 24] = a1\n 85850: ra = u64 [sp + 88]\n 85853: s0 = u64 [sp + 80]\n 85856: s1 = u64 [sp + 72]\n 85859: i64 sp = i64 sp + 0x60\n 85862: ret\n      : @1592 (gas: 1)\n 85864: trap\n      : @1593 (gas: 17)\n 85865: i64 sp = i64 sp - i64 96\n 85868: u64 [sp + 88] = ra\n 85871: u64 [sp + 80] = s0\n 85874: u64 [sp + 72] = s1\n 85877: s1 = a4\n 85879: a4 = a1\n 85881: u64 [sp + 64] = a2\n 85884: a1 = a2 | s1\n 85887: a2 = a4 | a3\n 85890: a2 = a2 | a1\n 85893: a2 = a2 >>64 32\n 85896: u64 [sp + 48] = a3\n 85899: a1 = a1 | a3\n 85902: a1 = a1 <<64 32\n 85905: a1 = a1 | a2\n 85908: u64 [sp + 32] = a0\n 85911: jump @1603 if a1 != 0\n      : @1594 (gas: 5)\n 85915: s0 = a4 + 0x0\n 85917: a1 = 0x20\n 85920: a0 = s0\n 85922: u64 [sp + 56] = a4\n 85925: ra = 1046, jump @0\n      : @1595 [@dyn 523] (gas: 1)\n 85932: jump @1603 if a0 == 0\n      : @1596 (gas: 52)\n 85936: a0 = 0x20050\n 85941: u64 [sp + 40] = a0\n 85944: i64 a0 = a0 + s0\n 85947: u8 [a0 + 31] = 32\n 85951: u8 [a0 + 30] = 0\n 85954: u8 [a0 + 29] = 0\n 85957: u8 [a0 + 28] = 0\n 85960: u8 [a0 + 27] = 0\n 85963: u8 [a0 + 26] = 0\n 85966: u8 [a0 + 25] = 0\n 85969: u8 [a0 + 24] = 0\n 85972: u8 [a0 + 23] = 0\n 85975: u8 [a0 + 22] = 0\n 85978: u8 [a0 + 21] = 0\n 85981: u8 [a0 + 20] = 0\n 85984: u8 [a0 + 19] = 0\n 85987: u8 [a0 + 18] = 0\n 85990: u8 [a0 + 17] = 0\n 85993: u8 [a0 + 16] = 0\n 85996: u8 [a0 + 15] = 0\n 85999: u8 [a0 + 14] = 0\n 86002: u8 [a0 + 13] = 0\n 86005: u8 [a0 + 12] = 0\n 86008: u8 [a0 + 11] = 0\n 86011: u8 [a0 + 10] = 0\n 86014: u8 [a0 + 9] = 0\n 86017: u8 [a0 + 8] = 0\n 86020: u8 [a0 + 7] = 0\n 86023: u8 [a0 + 6] = 0\n 86026: u8 [a0 + 5] = 0\n 86029: u8 [a0 + 4] = 0\n 86032: u8 [a0 + 3] = 0\n 86035: u8 [a0 + 2] = 0\n 86038: u8 [a0 + 1] = 0\n 86041: a3 = u64 [sp + 48]\n 86044: a1 = a3 >u 0x0\n 86046: a2 = s1\n 86048: s1 = s1 >u 0x0\n 86050: s1 = a1 if a2 == 0\n 86053: a1 = 0xffffffdf\n 86063: a4 = u64 [sp + 56]\n 86066: a1 = a1 <u a4\n 86069: a4 = u64 [sp + 64]\n 86072: a5 = a4 >u 0x0\n 86074: u64 [sp + 24] = a5\n 86077: a1 = a5 if a4 != 0\n 86080: u64 [sp + 8] = a2\n 86083: a2 = a2 | a3\n 86086: u64 [sp + 16] = a2\n 86089: a1 = s1 if a2 != 0\n 86092: u8 [a0 + 0] = 0\n 86094: jump @1603 if a1 != 0\n      : @1597 (gas: 5)\n 86098: u64 [sp] = s0\n 86100: s0 = s0 + 0x20\n 86103: a1 = 0x20\n 86106: a0 = s0\n 86108: ra = 1048, jump @0\n      : @1598 [@dyn 524] (gas: 1)\n 86115: jump @1603 if a0 == 0\n      : @1599 (gas: 43)\n 86119: a0 = u64 [sp + 40]\n 86122: i64 s0 = s0 + a0\n 86125: u8 [s0 + 31] = 28\n 86129: u8 [s0 + 30] = 0\n 86132: u8 [s0 + 29] = 0\n 86135: u8 [s0 + 28] = 0\n 86138: u8 [s0 + 27] = 0\n 86141: u8 [s0 + 26] = 0\n 86144: u8 [s0 + 25] = 0\n 86147: u8 [s0 + 24] = 0\n 86150: u8 [s0 + 23] = 0\n 86153: u8 [s0 + 22] = 0\n 86156: u8 [s0 + 21] = 0\n 86159: u8 [s0 + 20] = 0\n 86162: u8 [s0 + 19] = 0\n 86165: u8 [s0 + 18] = 0\n 86168: u8 [s0 + 17] = 0\n 86171: u8 [s0 + 16] = 0\n 86174: u8 [s0 + 15] = 0\n 86177: u8 [s0 + 14] = 0\n 86180: u8 [s0 + 13] = 0\n 86183: u8 [s0 + 12] = 0\n 86186: u8 [s0 + 11] = 0\n 86189: u8 [s0 + 10] = 0\n 86192: u8 [s0 + 9] = 0\n 86195: u8 [s0 + 8] = 0\n 86198: u8 [s0 + 7] = 0\n 86201: u8 [s0 + 6] = 0\n 86204: u8 [s0 + 5] = 0\n 86207: u8 [s0 + 4] = 0\n 86210: u8 [s0 + 3] = 0\n 86213: u8 [s0 + 2] = 0\n 86216: u8 [s0 + 1] = 0\n 86219: a0 = 0xffffffbf\n 86229: a1 = u64 [sp + 56]\n 86232: a0 = a0 <u a1\n 86235: a1 = u64 [sp + 64]\n 86238: a2 = u64 [sp + 24]\n 86241: a0 = a2 if a1 != 0\n 86244: a1 = u64 [sp + 16]\n 86247: a0 = s1 if a1 != 0\n 86250: u8 [s0 + 0] = 0\n 86252: jump @1603 if a0 != 0\n      : @1600 (gas: 6)\n 86256: a0 = u64 [sp]\n 86258: s1 = a0 + 0x40\n 86261: a1 = 0x20\n 86264: s0 = 0x20\n 86267: a0 = s1\n 86269: ra = 1050, jump @0\n      : @1601 [@dyn 525] (gas: 1)\n 86276: jump @1603 if a0 == 0\n      : @1602 (gas: 56)\n 86280: a0 = u64 [sp + 40]\n 86283: i64 s1 = s1 + a0\n 86286: u8 [s1 + 31] = 0\n 86289: u8 [s1 + 30] = 0\n 86292: u8 [s1 + 29] = 0\n 86295: u8 [s1 + 28] = 0\n 86298: u8 [s1 + 27] = 49\n 86302: u8 [s1 + 26] = s0\n 86305: u8 [s1 + 25] = 109\n 86309: u8 [s1 + 24] = 111\n 86313: u8 [s1 + 23] = 114\n 86317: u8 [s1 + 22] = 102\n 86321: u8 [s1 + 21] = s0\n 86324: u8 [s1 + 20] = 116\n 86328: u8 [s1 + 19] = 114\n 86332: u8 [s1 + 18] = 97\n 86336: u8 [s1 + 17] = 116\n 86340: u8 [s1 + 16] = 115\n 86344: u8 [s1 + 15] = s0\n 86347: u8 [s1 + 14] = 116\n 86351: u8 [s1 + 13] = 115\n 86355: u8 [s1 + 12] = 117\n 86359: u8 [s1 + 11] = 109\n 86363: u8 [s1 + 10] = s0\n 86366: u8 [s1 + 9] = 120\n 86370: u8 [s1 + 8] = 101\n 86374: u8 [s1 + 7] = 100\n 86378: u8 [s1 + 6] = 110\n 86382: u8 [s1 + 5] = 105\n 86386: u8 [s1 + 4] = s0\n 86389: u8 [s1 + 3] = 101\n 86393: u8 [s1 + 2] = 103\n 86397: u8 [s1 + 1] = 97\n 86401: u8 [s1 + 0] = 80\n 86404: a1 = u64 [sp + 56]\n 86407: i64 a0 = i64 a1 + 0x60\n 86410: a1 = a0 <u a1\n 86413: a3 = u64 [sp + 64]\n 86416: i64 a2 = a3 + a1\n 86419: a3 = a2 <u a3\n 86422: a3 = a1 if a1 == 0\n 86425: a1 = u64 [sp + 48]\n 86428: i64 a3 = a3 + a1\n 86431: a1 = a3 <u a1\n 86434: a4 = u64 [sp + 8]\n 86437: i64 a1 = a1 + a4\n 86440: a4 = u64 [sp + 32]\n 86443: u64 [a4] = a0\n 86445: u64 [a4 + 8] = a2\n 86448: u64 [a4 + 16] = a3\n 86451: u64 [a4 + 24] = a1\n 86454: ra = u64 [sp + 88]\n 86457: s0 = u64 [sp + 80]\n 86460: s1 = u64 [sp + 72]\n 86463: i64 sp = i64 sp + 0x60\n 86466: ret\n      : @1603 (gas: 1)\n 86468: trap\n      : @1604 (gas: 17)\n 86469: i64 sp = i64 sp - i64 96\n 86472: u64 [sp + 88] = ra\n 86475: u64 [sp + 80] = s0\n 86478: u64 [sp + 72] = s1\n 86481: s1 = a4\n 86483: a4 = a1\n 86485: u64 [sp + 64] = a2\n 86488: a1 = a2 | s1\n 86491: a2 = a4 | a3\n 86494: a2 = a2 | a1\n 86497: a2 = a2 >>64 32\n 86500: u64 [sp + 48] = a3\n 86503: a1 = a1 | a3\n 86506: a1 = a1 <<64 32\n 86509: a1 = a1 | a2\n 86512: u64 [sp + 32] = a0\n 86515: jump @1614 if a1 != 0\n      : @1605 (gas: 5)\n 86519: s0 = a4 + 0x0\n 86521: a1 = 0x20\n 86524: a0 = s0\n 86526: u64 [sp + 56] = a4\n 86529: ra = 1052, jump @0\n      : @1606 [@dyn 526] (gas: 1)\n 86536: jump @1614 if a0 == 0\n      : @1607 (gas: 52)\n 86540: a0 = 0x20050\n 86545: u64 [sp + 40] = a0\n 86548: i64 a0 = a0 + s0\n 86551: u8 [a0 + 31] = 32\n 86555: u8 [a0 + 30] = 0\n 86558: u8 [a0 + 29] = 0\n 86561: u8 [a0 + 28] = 0\n 86564: u8 [a0 + 27] = 0\n 86567: u8 [a0 + 26] = 0\n 86570: u8 [a0 + 25] = 0\n 86573: u8 [a0 + 24] = 0\n 86576: u8 [a0 + 23] = 0\n 86579: u8 [a0 + 22] = 0\n 86582: u8 [a0 + 21] = 0\n 86585: u8 [a0 + 20] = 0\n 86588: u8 [a0 + 19] = 0\n 86591: u8 [a0 + 18] = 0\n 86594: u8 [a0 + 17] = 0\n 86597: u8 [a0 + 16] = 0\n 86600: u8 [a0 + 15] = 0\n 86603: u8 [a0 + 14] = 0\n 86606: u8 [a0 + 13] = 0\n 86609: u8 [a0 + 12] = 0\n 86612: u8 [a0 + 11] = 0\n 86615: u8 [a0 + 10] = 0\n 86618: u8 [a0 + 9] = 0\n 86621: u8 [a0 + 8] = 0\n 86624: u8 [a0 + 7] = 0\n 86627: u8 [a0 + 6] = 0\n 86630: u8 [a0 + 5] = 0\n 86633: u8 [a0 + 4] = 0\n 86636: u8 [a0 + 3] = 0\n 86639: u8 [a0 + 2] = 0\n 86642: u8 [a0 + 1] = 0\n 86645: a3 = u64 [sp + 48]\n 86648: a1 = a3 >u 0x0\n 86650: a2 = s1\n 86652: s1 = s1 >u 0x0\n 86654: s1 = a1 if a2 == 0\n 86657: a1 = 0xffffffdf\n 86667: a4 = u64 [sp + 56]\n 86670: a1 = a1 <u a4\n 86673: a4 = u64 [sp + 64]\n 86676: a5 = a4 >u 0x0\n 86678: u64 [sp + 24] = a5\n 86681: a1 = a5 if a4 != 0\n 86684: u64 [sp + 8] = a2\n 86687: a2 = a2 | a3\n 86690: u64 [sp + 16] = a2\n 86693: a1 = s1 if a2 != 0\n 86696: u8 [a0 + 0] = 0\n 86698: jump @1614 if a1 != 0\n      : @1608 (gas: 5)\n 86702: u64 [sp] = s0\n 86704: s0 = s0 + 0x20\n 86707: a1 = 0x20\n 86710: a0 = s0\n 86712: ra = 1054, jump @0\n      : @1609 [@dyn 527] (gas: 1)\n 86719: jump @1614 if a0 == 0\n      : @1610 (gas: 43)\n 86723: a0 = u64 [sp + 40]\n 86726: i64 s0 = s0 + a0\n 86729: u8 [s0 + 31] = 32\n 86733: u8 [s0 + 30] = 0\n 86736: u8 [s0 + 29] = 0\n 86739: u8 [s0 + 28] = 0\n 86742: u8 [s0 + 27] = 0\n 86745: u8 [s0 + 26] = 0\n 86748: u8 [s0 + 25] = 0\n 86751: u8 [s0 + 24] = 0\n 86754: u8 [s0 + 23] = 0\n 86757: u8 [s0 + 22] = 0\n 86760: u8 [s0 + 21] = 0\n 86763: u8 [s0 + 20] = 0\n 86766: u8 [s0 + 19] = 0\n 86769: u8 [s0 + 18] = 0\n 86772: u8 [s0 + 17] = 0\n 86775: u8 [s0 + 16] = 0\n 86778: u8 [s0 + 15] = 0\n 86781: u8 [s0 + 14] = 0\n 86784: u8 [s0 + 13] = 0\n 86787: u8 [s0 + 12] = 0\n 86790: u8 [s0 + 11] = 0\n 86793: u8 [s0 + 10] = 0\n 86796: u8 [s0 + 9] = 0\n 86799: u8 [s0 + 8] = 0\n 86802: u8 [s0 + 7] = 0\n 86805: u8 [s0 + 6] = 0\n 86808: u8 [s0 + 5] = 0\n 86811: u8 [s0 + 4] = 0\n 86814: u8 [s0 + 3] = 0\n 86817: u8 [s0 + 2] = 0\n 86820: u8 [s0 + 1] = 0\n 86823: a0 = 0xffffffbf\n 86833: a1 = u64 [sp + 56]\n 86836: a0 = a0 <u a1\n 86839: a1 = u64 [sp + 64]\n 86842: a2 = u64 [sp + 24]\n 86845: a0 = a2 if a1 != 0\n 86848: a1 = u64 [sp + 16]\n 86851: a0 = s1 if a1 != 0\n 86854: u8 [s0 + 0] = 0\n 86856: jump @1614 if a0 != 0\n      : @1611 (gas: 6)\n 86860: a0 = u64 [sp]\n 86862: s1 = a0 + 0x40\n 86865: a1 = 0x20\n 86868: s0 = 0x20\n 86871: a0 = s1\n 86873: ra = 1056, jump @0\n      : @1612 [@dyn 528] (gas: 1)\n 86880: jump @1614 if a0 == 0\n      : @1613 (gas: 56)\n 86884: a0 = u64 [sp + 40]\n 86887: i64 s1 = s1 + a0\n 86890: u8 [s1 + 31] = 48\n 86894: u8 [s1 + 30] = s0\n 86897: u8 [s1 + 29] = 110\n 86901: u8 [s1 + 28] = 97\n 86905: u8 [s1 + 27] = 104\n 86909: u8 [s1 + 26] = 116\n 86913: u8 [s1 + 25] = s0\n 86916: u8 [s1 + 24] = 114\n 86920: u8 [s1 + 23] = 101\n 86924: u8 [s1 + 22] = 116\n 86928: u8 [s1 + 21] = 97\n 86932: u8 [s1 + 20] = 101\n 86936: u8 [s1 + 19] = 114\n 86940: u8 [s1 + 18] = 103\n 86944: u8 [s1 + 17] = s0\n 86947: u8 [s1 + 16] = 101\n 86951: u8 [s1 + 15] = 98\n 86955: u8 [s1 + 14] = s0\n 86958: u8 [s1 + 13] = 116\n 86962: u8 [s1 + 12] = 115\n 86966: u8 [s1 + 11] = 117\n 86970: u8 [s1 + 10] = 109\n 86974: u8 [s1 + 9] = s0\n 86977: u8 [s1 + 8] = 101\n 86981: u8 [s1 + 7] = 122\n 86985: u8 [s1 + 6] = 105\n 86989: u8 [s1 + 5] = 115\n 86993: u8 [s1 + 4] = s0\n 86996: u8 [s1 + 3] = 101\n 87000: u8 [s1 + 2] = 103\n 87004: u8 [s1 + 1] = 97\n 87008: u8 [s1 + 0] = 80\n 87011: a1 = u64 [sp + 56]\n 87014: i64 a0 = i64 a1 + 0x60\n 87017: a1 = a0 <u a1\n 87020: a3 = u64 [sp + 64]\n 87023: i64 a2 = a3 + a1\n 87026: a3 = a2 <u a3\n 87029: a3 = a1 if a1 == 0\n 87032: a1 = u64 [sp + 48]\n 87035: i64 a3 = a3 + a1\n 87038: a1 = a3 <u a1\n 87041: a4 = u64 [sp + 8]\n 87044: i64 a1 = a1 + a4\n 87047: a4 = u64 [sp + 32]\n 87050: u64 [a4] = a0\n 87052: u64 [a4 + 8] = a2\n 87055: u64 [a4 + 16] = a3\n 87058: u64 [a4 + 24] = a1\n 87061: ra = u64 [sp + 88]\n 87064: s0 = u64 [sp + 80]\n 87067: s1 = u64 [sp + 72]\n 87070: i64 sp = i64 sp + 0x60\n 87073: ret\n      : @1614 (gas: 1)\n 87075: trap\n      : @1615 (gas: 17)\n 87076: i64 sp = i64 sp - i64 96\n 87079: u64 [sp + 88] = ra\n 87082: u64 [sp + 80] = s0\n 87085: u64 [sp + 72] = s1\n 87088: s1 = a4\n 87090: a4 = a1\n 87092: u64 [sp + 64] = a2\n 87095: a1 = a2 | s1\n 87098: a2 = a4 | a3\n 87101: a2 = a2 | a1\n 87104: a2 = a2 >>64 32\n 87107: u64 [sp + 48] = a3\n 87110: a1 = a1 | a3\n 87113: a1 = a1 <<64 32\n 87116: a1 = a1 | a2\n 87119: u64 [sp + 32] = a0\n 87122: jump @1625 if a1 != 0\n      : @1616 (gas: 5)\n 87126: s0 = a4 + 0x0\n 87128: a1 = 0x20\n 87131: a0 = s0\n 87133: u64 [sp + 56] = a4\n 87136: ra = 1058, jump @0\n      : @1617 [@dyn 529] (gas: 1)\n 87143: jump @1625 if a0 == 0\n      : @1618 (gas: 52)\n 87147: a0 = 0x20050\n 87152: u64 [sp + 40] = a0\n 87155: i64 a0 = a0 + s0\n 87158: u8 [a0 + 31] = 32\n 87162: u8 [a0 + 30] = 0\n 87165: u8 [a0 + 29] = 0\n 87168: u8 [a0 + 28] = 0\n 87171: u8 [a0 + 27] = 0\n 87174: u8 [a0 + 26] = 0\n 87177: u8 [a0 + 25] = 0\n 87180: u8 [a0 + 24] = 0\n 87183: u8 [a0 + 23] = 0\n 87186: u8 [a0 + 22] = 0\n 87189: u8 [a0 + 21] = 0\n 87192: u8 [a0 + 20] = 0\n 87195: u8 [a0 + 19] = 0\n 87198: u8 [a0 + 18] = 0\n 87201: u8 [a0 + 17] = 0\n 87204: u8 [a0 + 16] = 0\n 87207: u8 [a0 + 15] = 0\n 87210: u8 [a0 + 14] = 0\n 87213: u8 [a0 + 13] = 0\n 87216: u8 [a0 + 12] = 0\n 87219: u8 [a0 + 11] = 0\n 87222: u8 [a0 + 10] = 0\n 87225: u8 [a0 + 9] = 0\n 87228: u8 [a0 + 8] = 0\n 87231: u8 [a0 + 7] = 0\n 87234: u8 [a0 + 6] = 0\n 87237: u8 [a0 + 5] = 0\n 87240: u8 [a0 + 4] = 0\n 87243: u8 [a0 + 3] = 0\n 87246: u8 [a0 + 2] = 0\n 87249: u8 [a0 + 1] = 0\n 87252: a3 = u64 [sp + 48]\n 87255: a1 = a3 >u 0x0\n 87257: a2 = s1\n 87259: s1 = s1 >u 0x0\n 87261: s1 = a1 if a2 == 0\n 87264: a1 = 0xffffffdf\n 87274: a4 = u64 [sp + 56]\n 87277: a1 = a1 <u a4\n 87280: a4 = u64 [sp + 64]\n 87283: a5 = a4 >u 0x0\n 87285: u64 [sp + 24] = a5\n 87288: a1 = a5 if a4 != 0\n 87291: u64 [sp + 8] = a2\n 87294: a2 = a2 | a3\n 87297: u64 [sp + 16] = a2\n 87300: a1 = s1 if a2 != 0\n 87303: u8 [a0 + 0] = 0\n 87305: jump @1625 if a1 != 0\n      : @1619 (gas: 5)\n 87309: u64 [sp] = s0\n 87311: s0 = s0 + 0x20\n 87314: a1 = 0x20\n 87317: a0 = s0\n 87319: ra = 1060, jump @0\n      : @1620 [@dyn 530] (gas: 1)\n 87326: jump @1625 if a0 == 0\n      : @1621 (gas: 43)\n 87330: a0 = u64 [sp + 40]\n 87333: i64 s0 = s0 + a0\n 87336: u8 [s0 + 31] = 18\n 87340: u8 [s0 + 30] = 0\n 87343: u8 [s0 + 29] = 0\n 87346: u8 [s0 + 28] = 0\n 87349: u8 [s0 + 27] = 0\n 87352: u8 [s0 + 26] = 0\n 87355: u8 [s0 + 25] = 0\n 87358: u8 [s0 + 24] = 0\n 87361: u8 [s0 + 23] = 0\n 87364: u8 [s0 + 22] = 0\n 87367: u8 [s0 + 21] = 0\n 87370: u8 [s0 + 20] = 0\n 87373: u8 [s0 + 19] = 0\n 87376: u8 [s0 + 18] = 0\n 87379: u8 [s0 + 17] = 0\n 87382: u8 [s0 + 16] = 0\n 87385: u8 [s0 + 15] = 0\n 87388: u8 [s0 + 14] = 0\n 87391: u8 [s0 + 13] = 0\n 87394: u8 [s0 + 12] = 0\n 87397: u8 [s0 + 11] = 0\n 87400: u8 [s0 + 10] = 0\n 87403: u8 [s0 + 9] = 0\n 87406: u8 [s0 + 8] = 0\n 87409: u8 [s0 + 7] = 0\n 87412: u8 [s0 + 6] = 0\n 87415: u8 [s0 + 5] = 0\n 87418: u8 [s0 + 4] = 0\n 87421: u8 [s0 + 3] = 0\n 87424: u8 [s0 + 2] = 0\n 87427: u8 [s0 + 1] = 0\n 87430: a0 = 0xffffffbf\n 87440: a1 = u64 [sp + 56]\n 87443: a0 = a0 <u a1\n 87446: a1 = u64 [sp + 64]\n 87449: a2 = u64 [sp + 24]\n 87452: a0 = a2 if a1 != 0\n 87455: a1 = u64 [sp + 16]\n 87458: a0 = s1 if a1 != 0\n 87461: u8 [s0 + 0] = 0\n 87463: jump @1625 if a0 != 0\n      : @1622 (gas: 6)\n 87467: a0 = u64 [sp]\n 87469: s1 = a0 + 0x40\n 87472: a1 = 0x20\n 87475: s0 = 0x20\n 87478: a0 = s1\n 87480: ra = 1062, jump @0\n      : @1623 [@dyn 531] (gas: 1)\n 87487: jump @1625 if a0 == 0\n      : @1624 (gas: 56)\n 87491: a0 = u64 [sp + 40]\n 87494: i64 s1 = s1 + a0\n 87497: u8 [s1 + 31] = 0\n 87500: u8 [s1 + 30] = 0\n 87503: u8 [s1 + 29] = 0\n 87506: u8 [s1 + 28] = 0\n 87509: u8 [s1 + 27] = 0\n 87512: u8 [s1 + 26] = 0\n 87515: u8 [s1 + 25] = 0\n 87518: u8 [s1 + 24] = 0\n 87521: u8 [s1 + 23] = 0\n 87524: u8 [s1 + 22] = 0\n 87527: u8 [s1 + 21] = 0\n 87530: u8 [s1 + 20] = 0\n 87533: u8 [s1 + 19] = 0\n 87536: u8 [s1 + 18] = 0\n 87539: u8 [s1 + 17] = 120\n 87543: u8 [s1 + 16] = 101\n 87547: u8 [s1 + 15] = 100\n 87551: u8 [s1 + 14] = 110\n 87555: u8 [s1 + 13] = 105\n 87559: u8 [s1 + 12] = s0\n 87562: u8 [s1 + 11] = 101\n 87566: u8 [s1 + 10] = 103\n 87570: u8 [s1 + 9] = 97\n 87574: u8 [s1 + 8] = 112\n 87578: u8 [s1 + 7] = s0\n 87581: u8 [s1 + 6] = 100\n 87585: u8 [s1 + 5] = 105\n 87589: u8 [s1 + 4] = 108\n 87593: u8 [s1 + 3] = 97\n 87597: u8 [s1 + 2] = 118\n 87601: u8 [s1 + 1] = 110\n 87605: u8 [s1 + 0] = 73\n 87608: a1 = u64 [sp + 56]\n 87611: i64 a0 = i64 a1 + 0x60\n 87614: a1 = a0 <u a1\n 87617: a3 = u64 [sp + 64]\n 87620: i64 a2 = a3 + a1\n 87623: a3 = a2 <u a3\n 87626: a3 = a1 if a1 == 0\n 87629: a1 = u64 [sp + 48]\n 87632: i64 a3 = a3 + a1\n 87635: a1 = a3 <u a1\n 87638: a4 = u64 [sp + 8]\n 87641: i64 a1 = a1 + a4\n 87644: a4 = u64 [sp + 32]\n 87647: u64 [a4] = a0\n 87649: u64 [a4 + 8] = a2\n 87652: u64 [a4 + 16] = a3\n 87655: u64 [a4 + 24] = a1\n 87658: ra = u64 [sp + 88]\n 87661: s0 = u64 [sp + 80]\n 87664: s1 = u64 [sp + 72]\n 87667: i64 sp = i64 sp + 0x60\n 87670: ret\n      : @1625 (gas: 1)\n 87672: trap\n      : @1626 (gas: 17)\n 87673: i64 sp = i64 sp - i64 72\n 87676: u64 [sp + 64] = ra\n 87679: u64 [sp + 56] = s0\n 87682: u64 [sp + 48] = s1\n 87685: u64 [sp + 24] = a4\n 87688: u64 [sp + 8] = a2\n 87691: a4 = a4 | a2\n 87694: a2 = a1 | a3\n 87697: a2 = a2 | a4\n 87700: a2 = a2 >>64 32\n 87703: u64 [sp + 16] = a3\n 87706: a3 = a3 | a4\n 87709: a3 = a3 <<64 32\n 87712: a2 = a2 | a3\n 87715: u64 [sp + 40] = a5\n 87718: u64 [sp + 32] = a0\n 87721: jump @1637 if a2 != 0\n      : @1627 (gas: 6)\n 87725: s0 = t2\n 87727: u64 [sp] = a1\n 87729: s1 = a1 + 0x0\n 87731: a1 = 0x20\n 87734: a0 = s1\n 87736: ra = 1064, jump @0\n      : @1628 [@dyn 532] (gas: 1)\n 87743: jump @1637 if a0 == 0\n      : @1629 (gas: 109)\n 87747: t2 = u64 [sp + 80]\n 87750: ra = 0x20050\n 87755: i64 s1 = s1 + ra\n 87758: a1 = u8 [s1 + 1]\n 87761: a2 = u8 [s1]\n 87763: a3 = u8 [s1 + 2]\n 87766: a4 = u8 [s1 + 3]\n 87769: a1 = a1 <<64 8\n 87772: a1 = a1 | a2\n 87775: a3 = a3 <<64 16\n 87778: a4 = a4 <<64 24\n 87781: a3 = a3 | a4\n 87784: a1 = a1 | a3\n 87787: a2 = u8 [s1 + 5]\n 87790: a3 = u8 [s1 + 4]\n 87793: a4 = u8 [s1 + 6]\n 87796: a5 = u8 [s1 + 7]\n 87799: a2 = a2 <<64 8\n 87802: a2 = a2 | a3\n 87805: a4 = a4 <<64 16\n 87808: a5 = a5 <<64 24\n 87811: a4 = a4 | a5\n 87814: a2 = a2 | a4\n 87817: a2 = a2 <<64 32\n 87820: t0 = a2 | a1\n 87823: a2 = u8 [s1 + 9]\n 87826: a3 = u8 [s1 + 8]\n 87829: a4 = u8 [s1 + 10]\n 87832: a5 = u8 [s1 + 11]\n 87835: a2 = a2 <<64 8\n 87838: a2 = a2 | a3\n 87841: a4 = a4 <<64 16\n 87844: a5 = a5 <<64 24\n 87847: a4 = a4 | a5\n 87850: a2 = a2 | a4\n 87853: a3 = u8 [s1 + 13]\n 87856: a4 = u8 [s1 + 12]\n 87859: a5 = u8 [s1 + 14]\n 87862: a1 = u8 [s1 + 15]\n 87865: a3 = a3 <<64 8\n 87868: a3 = a3 | a4\n 87871: a5 = a5 <<64 16\n 87874: a1 = a1 <<64 24\n 87877: a1 = a1 | a5\n 87880: a1 = a1 | a3\n 87883: a1 = a1 <<64 32\n 87886: t1 = a1 | a2\n 87889: a1 = u8 [s1 + 17]\n 87892: a3 = u8 [s1 + 16]\n 87895: a4 = u8 [s1 + 18]\n 87898: a5 = u8 [s1 + 19]\n 87901: a1 = a1 <<64 8\n 87904: a1 = a1 | a3\n 87907: a4 = a4 <<64 16\n 87910: a5 = a5 <<64 24\n 87913: a4 = a4 | a5\n 87916: a1 = a1 | a4\n 87919: a3 = u8 [s1 + 21]\n 87922: a4 = u8 [s1 + 20]\n 87925: a5 = u8 [s1 + 22]\n 87928: a2 = u8 [s1 + 23]\n 87931: a3 = a3 <<64 8\n 87934: a3 = a3 | a4\n 87937: a5 = a5 <<64 16\n 87940: a2 = a2 <<64 24\n 87943: a2 = a2 | a5\n 87946: a2 = a2 | a3\n 87949: a2 = a2 <<64 32\n 87952: a3 = a2 | a1\n 87955: a1 = u8 [s1 + 25]\n 87958: a2 = u8 [s1 + 24]\n 87961: a4 = u8 [s1 + 26]\n 87964: a5 = u8 [s1 + 27]\n 87967: a1 = a1 <<64 8\n 87970: a1 = a1 | a2\n 87973: a4 = a4 <<64 16\n 87976: a5 = a5 <<64 24\n 87979: a2 = u8 [s1 + 29]\n 87982: a4 = a4 | a5\n 87985: a1 = a1 | a4\n 87988: a4 = u8 [s1 + 28]\n 87991: a2 = a2 <<64 8\n 87994: a5 = u8 [s1 + 30]\n 87997: s1 = u8 [s1 + 31]\n 88000: a2 = a2 | a4\n 88003: a4 = u64 [sp + 72]\n 88006: a5 = a5 <<64 16\n 88009: s1 = s1 <<64 24\n 88012: a5 = a5 | s1\n 88015: a2 = a2 | a5\n 88018: a2 = a2 <<64 32\n 88021: a1 = a1 | a2\n 88024: a1 = reverse a1\n 88026: a2 = reverse a3\n 88028: a3 = reverse t1\n 88030: a5 = reverse t0\n 88032: a0 = a5 ^ t2\n 88035: a5 = t2 <u a5\n 88038: s1 = a4 <u a3\n 88041: s1 = a5 if a0 != 0\n 88044: t0 = a2 ^ s0\n 88047: a5 = s0 <u a2\n 88050: a2 = u64 [sp + 40]\n 88053: a1 = a2 <u a1\n 88056: a1 = a5 if t0 != 0\n 88059: a3 = a3 ^ a4\n 88062: a0 = a0 | a3\n 88065: a1 = s1 if a0 != 0\n 88068: jump @1631 if a1 == 0\n      : @1630 (gas: 46)\n 88072: a0 = a4 >>64 59\n 88075: t2 = t2 <<64 5\n 88078: a0 = t2 | a0\n 88081: a1 = s0 >>64 59\n 88084: a4 = a4 <<64 5\n 88087: a1 = a1 | a4\n 88090: a3 = a2 >>64 59\n 88093: s0 = s0 <<64 5\n 88096: s0 = s0 | a3\n 88099: a3 = a2 <<64 5\n 88102: a4 = u64 [sp]\n 88104: i64 a3 = a3 + a4\n 88107: a4 = a3 <u a4\n 88110: a5 = u64 [sp + 8]\n 88113: i64 a2 = a5 + s0\n 88116: i64 a2 = a2 + a4\n 88119: s0 = a2 ^ a5\n 88122: s1 = a2 <u a5\n 88125: s1 = a4 if s0 == 0\n 88128: a5 = u64 [sp + 16]\n 88131: i64 a1 = a1 + a5\n 88134: i64 s1 = s1 + a1\n 88137: a4 = s1 <u a1\n 88140: a1 = a1 <u a5\n 88143: a5 = u64 [sp + 24]\n 88146: i64 a0 = a0 + a5\n 88149: i64 a0 = a0 + a1\n 88152: i64 a0 = a0 + a4\n 88155: i64 a1 = i64 a3 + 0x20\n 88158: a3 = a1 <u a3\n 88161: i64 a4 = a2 + a3\n 88164: a2 = a4 <u a2\n 88167: a2 = a3 if a3 == 0\n 88170: i64 a2 = a2 + s1\n 88173: a3 = a2 <u s1\n 88176: i64 a0 = a0 + a3\n 88179: a3 = u64 [sp + 32]\n 88182: u64 [a3] = a1\n 88184: u64 [a3 + 8] = a4\n 88187: u64 [a3 + 16] = a2\n 88190: u64 [a3 + 24] = a0\n 88193: ra = u64 [sp + 64]\n 88196: s0 = u64 [sp + 56]\n 88199: s1 = u64 [sp + 48]\n 88202: i64 sp = i64 sp + 0x48\n 88205: ret\n      : @1631 (gas: 4)\n 88207: s0 = 0x20050\n 88212: a1 = 0x20\n 88215: a0 = 0x0\n 88217: ra = 1066, jump @0\n      : @1632 [@dyn 533] (gas: 1)\n 88224: jump @1637 if a0 == 0\n      : @1633 (gas: 7)\n 88227: u64 [s0 + 24] = 0\n 88230: u64 [s0 + 16] = 0\n 88233: u64 [s0 + 8] = 0\n 88236: u64 [s0 + 0] = 1903904846\n 88242: a0 = 0x4\n 88245: a1 = 0x20\n 88248: ra = 1068, jump @0\n      : @1634 [@dyn 534] (gas: 1)\n 88255: jump @1637 if a0 == 0\n      : @1635 (gas: 11)\n 88258: u32 [s0 + 32] = 838860800\n 88265: u32 [s0 + 28] = 0\n 88268: u32 [s0 + 24] = 0\n 88271: u32 [s0 + 20] = 0\n 88274: u32 [s0 + 16] = 0\n 88277: u32 [s0 + 12] = 0\n 88280: u32 [s0 + 8] = 0\n 88283: u32 [s0 + 4] = 0\n 88286: a1 = 0x24\n 88289: a0 = 0x0\n 88291: ra = 1070, jump @0\n      : @1636 [@dyn 535] (gas: 1)\n 88298: jump @1638 if a0 != 0\n      : @1637 (gas: 1)\n 88301: trap\n      : @1638 (gas: 7)\n 88302: a1 = s0 + 0x0\n 88304: a0 = 0x1\n 88307: a2 = 0x24\n 88310: ecalli 11 // 'seal_return'\n 88312: a0 = 0x0\n 88314: ra = 0x430\n 88318: jump @27\n      : @1639 [export #0: 'call'] (gas: 2)\n 88322: a0 = 0x0\n 88324: ra = 1072, jump @27\n      : @1640 [@dyn 536] [export #1: 'deploy'] (gas: 2)\n 88331: a0 = 0x1\n 88334: ra = 1074, jump @27\n      : @1641 [@dyn 537] (gas: 1)\n 88341: trap\n",
				"bytecode": {
					"object": "50564d0000df8b010000000000010700c18004c0004003406b884d66010e475a1ba19454b7230517e7f7d4a51a49e13999fe2c8abd13b61045f2f3eb24a1120cc27b0ab23778e011e717a601e8d7a732b8105899d34d84810480e00f000000000700000011000000150000001b000000280000003300000042000000470000004a0000005a0000006a0000007500000087000000920000006164647265737362616c616e63655f6f6663616c6c63616c6c65726465706f7369745f6576656e746765745f73746f72616765686173685f6b656363616b5f323536696e7075746e6f7772657475726e5f646174615f636f707972657475726e5f646174615f73697a657365616c5f72657475726e7365745f696d6d757461626c655f646174617365745f73746f7261676576616c75655f7472616e73666572726564051302c102590463616c6cc10b59066465706c6f7906c18a8a821903c11659f200002401002901004d0100e502002103004003005c03006e03007e03000d04003904005a04007a04008e0400a10400b50400c90400cf0400d404000705000c05003a05003e05004305004805004d05005205005705000006001b0600860600f906001a0700940700fd07000808004e0800710800130900550900800900a90900bb09007c0a00e30a00180b00ee0c004e0d00bc0d005e0e007b0e00a60e00cf0e00e60e00f90e00a00f00bb0f00ee0f005710009810000b11002e1100a91100c91100d511001c1200401200741200b31200e41200821300a61400121700331700831700f81700361900521900b31900de1900631a00d61a002a1b00c91c00191d00201e00d21e00291f003520004221008f2200b02200272300a12300152400372400b224001d25002925006e2500832500b72500f72500282600ee26000a2700602700d62700232800fd28001529003b2900e52900012a003a2a00bf2a00322b00862b00922b00f42b00482c00e82e003a2f00443000f430004431007f3200d53200e53300f53400013600aa3600f83700193800ab3800c73800113900903900e83900853a00f13a00513b002e3c003c3c009e3c00d83c00f53c007f3d00e23d00083e007d3e00bf3e000f3f00383f009e3f00c93f005b4000674000ac4000c14000694100854100b94100f741001242003e42009942004043006d4400044700164700e34700074900f84b00a24c00be4c00054d00784d00a04d00254f008b5000ba5000de51000c5200375200525200af5200525300c85300d254000355003b56006656009f63001766006366008266009b6600b46600d566005e67007a6700e567003168000b69002c6900b56900d169002c6a00776a002d6b004e6b00d26b00ee6b00ff6b00476c00ba6c00db6c00646d00806d00cc6d00186e00f26e00136f00976f00b36f00c46f000c7000807000a170002a7100467100b17100fd7100d77200f872007c7300987300a97300f17300667400877400b974003e7500577500907500e27500857600c57600197700bc77005979009e7b00c27b00f07b000b7c005f7c00027d00797d008d7d00bf7d00e27d00137e00a67e00dc7e005c8000e080003081006781006d8200a28200108300648300e283000c85001888009a8800e78800208900c78900678a00078b00a78b00488c00e98c008c8d00748e002a9000719100c49200b893007395009896006e9800c59800e399003d9c00909c00c89d00e49f000da1002aa30053a40070a60099a7006da90096aa0090ad00a0ad00b7ad00faad00b1ae0052af0049b000a3b0003fb100aeb100c1b10004b200bbb2005cb30056b400b0b4004cb500bbb500ceb50011b600c8b60069b7002cb80098ba00f4ba000cbc00edbc0048bd00a5bd0048be00bbbe00cfbe0006bf004dbf00edbf00adc00019c1006fc100bcc10093c200ffc20055c30090c3001fc500b7c6004fc800d2c9000bcb0057cc000ecd00afcd00d0ce0039d1003ad300dfd3009bd40002d70072db0010e00033e0004ae0006ce0009de000b1e000ffe0001ce100b9e10062e300e3e300dbe400eee50086e60097e600d7e7005fe800a1e800dde80001ea0019eb00caeb007dec00a4ed00daed000bee0088ef00d1f000e2f000e9f200f7f40021f70078f70022f8009cf800b2f800f5f800acf9004dfa004efb0005fc00a6fc0060fd007dfd000bfe003a00016c0001210201d50301250401c80401e80401380501db0501500601810601a30601d10601e50601280701df07018008017e0901350a01d60a01de0b01950c01360d01f50d01510e014b12018d1201cb1201f31301141501351601551701731801901901451a01e41a01151b01901c01db1d01ec1d013f1f01501f015721016223016c25018b2701f42901492a01772b01332c01962c01a62d01f12e016b2f01fc2f016030010a3101853101a43101fb3101a532012033013e3301623301843301a73301d93301ee3301203401a03401d334011a36015a36018e3601bb3601e63601f93601283701683701e238012b3a01353b01783c01673e01983e01c73e01dc3e01743f01da40010a4101704101e341012142019c43011e44017f45010246013e46017a4701ea47012648013d4901784901054c01284c01574c016c4c01af4c01664d01084e01be4e01ac4f01635001045101085201bf52016053016754011e5501bf5501bf5601a05801bf5801ea58010b590115590152790e7a1004070f0a41040a0000012f8a3965980802871f1277e03b370000010a040713000a084000022978141607400002527804076000026587071300040760000265870713001300070918657909527a110b8b68880168ac0110ab52ca1e9cf4130018876e698a206aaa20697b206abb20659b0b70ba0a699b0188bb29ab2029873707094e657909527a110b8b68880168ac0110ab52ca1e9cf40536070934657909527a110b8b68880168ac0110ab52ca1e9cf4051c07091a029aff1165a80b0bbb6899ff65a70c10cb02aaff0f09f013006811e05a10185a15105a16086815201211e01276010407040806100213ff60075000020d0100040407600003027702184e071163176203780403620370040362036804036007600403070607061004090610064a02681100ff5a10f8005a15f0005a16e800681500011211e05216040740040820061008b8fe0707120204085000026203a0000262039800026203900002760700000000000000805a68106007a800026817e01277e05a671852715d17185d17105d17085d0702774e0e115b6a185ba7105ba8185ba9085baa0c98080ca7070c87070f07aa015d26b8005d26b0005d26a8005d26a000015d2698005d2690005d2688005d2680005d16305d16385d16285d162000010268a000026a8000026b200409ff04074e055d26d8005d26d0005d26c8005d26c000015d16585d16505d164876070000c16ff28623005a67400268c000026a400409ff040b2004074e0d0267204e035b67280168305b69209d77697a209d886a88200ca8085a68186a77209d986989200c97075a67086a88205a685d26b8005d26b0005d26a8005d26a0005d2698005d2690005d2688005d2680005d16705d16785d16685d166000010268a000026a8000026b600409ff04074e05636794006977205b6898005b690c97075d26d8005d26d0005d26c8005d26c0005b69085a69485b69185a69405a68585a67500268c000026a400409ff040b2004074e0d04074004082006100a20fd07077a5b6a105ba7485ba8585ba9405baa509d7b9d879d989da90c98080cb7090c89096a99200cb8086988200c98080f084b02775a671806100ce4fc07073e0a0858000207080d040780040302774e0c115b6718040806100ec5fc07071f5b67105b6818087808040704094e0b1104070408061010a9fc0f07040001681004070104090400124e0b116811f85a1004074004082006101487fc0f0704006203a00002620398000262039000025f096804035f0a6004035f0b7004035f08780403279c1baa041faa01549c0a278927bc54890c760900000000000000800cb808548c0a6009a80002070afd005f076000039d776b772035479b510124332e471d4c2bda582e4734f01dfdb900074735f01dfd53010747479db40142010f47ec3bfa01c900061016f10a2e470ad6cf3c4d2e473380ce55a10007473480ce552c010747384e97591a010f471786e7619d00061018a162040800009fb63547a7f89eb63b07475bcba58d89000f47a41f4d937b06101af96604080030e2273547e235e2272e07479c5101246d0f477e5690265b06101c3b1e0288a8f8188789000f475c9a99d54706101e8a6a0288e30518877a0f4778b9b131340610209f2407471e4c2bdaac000f47e59c35f420061022486e07470bd6cf3c9d000f478f43c9480c0610244439061026c7a8000610285d6404002a681100fe5a10f8015a15f0015a16e801681500021211e05d2178015d2170015d2168015d216001021760014e0e05b61306102cd46704002e681100ff5a10f8005a15f0005a16e800681500011211e05d11785d11705d11685d11600217604e0e053f210610301d061032ba46061034446f061036793b061038546b06103ac7326811c0fe5a1038015a1530015a162801681540011211e05d21b8005d21b0005d21a8005d21a0000217a0004e0e115b17b0005b18b8005b19a8005b1aa0000c98080ca7070c87070f07745f086004035f097804035f0a6804035f07700403688bfc248b08658a0c68ccff1cac0624ac0a53680a6878ff658a0a248a081b77017079096598083d8727a95487090ca80827c71bba401faa0154c70a54890a0f0a2c0407040806103c05fa07071f0408500002028804070104094e0b110407040806103eeaf90f074402005f087c00035f097400035f0a6c00035f0b6400039d8c9d945a14489da65a16509dbb5a1b585f089c00035f099400035f0a8c00035f078400039d885a18409d985a18389da85a18309d775a17285a1b08681780000408035a160409040a040b52c6061040bf0b5b1798005b1890005b1988005b1a80005a1718015a1810015a1908015a1a00015d21f8005d21f0005d21e8005d21e0005d21d0005d21d8005d21c8005d21c000000102180001021ae000021bc0000409ff04074e055b17e0006318f0005b19e8000c87070c970727770409040a0610421da9005b17585a17086817600408035b19505a190409040a040b526c5b14480610442b0b5b17605b18785b19685b1a70687b06247b0765790c249c0953770965a90924a9076587075a1b00015a1c08015a1910015a1718015d21f8005d21f0005d21e8005d21e0005d21d0005d21d8005d21c8005d21c000000102180001021ae000021bc0000409ff04074e050b17e0001b77010409040a0610468fac005b17285a1752675b18485b19505b1a585b1b405b1c385b1430040048681160fe5a1098015a1590015a1688016815a0011211e052165a64485a6c505a6b585284527c6811f05a6a185a1a086867a0000408035a69105a190409040a040b5a6c5a64080400960205460a04074004082006104afdf7070717fe04065000025f079800025f08a800025f099000025f0aa000029d7b9d870cb7080ca9099d990c98086a88200cb9096999200c98080f08dffd02775a175806104cb7f70707d1fd5b1858086808040704094e0b1104085000020288040701040904004e4e0b116811d85a10205a15185a161052735b122868b51f24b50b65bc0624c60c53bb0c654c0c244c071255e05a130865530324530065860b650b041c640b24640553b005659c0b65b50524b50624cb0b65a202657202652b0b65b606276b275c546b0c0c6502274b542c0b0f0b725b17082473071c840b24840853b7082495071ca60b24a60a53b70a1c59090cb90953980a0f0a4b5a145a1308040740040820061050f2f6070799009d679d585b199d995b1a089daa040b500002600aa800026009a00002600898000260079000025b10205b15185b161068112813000408200407061052b0f6070757040550000262036800026203600002620358000262035000024e487b7104070404082006105485f607072c0d1520000000410d151c0d15180d15140d15100d150c0d15080d150404082404070610565cf60f07040002580407010409240400584e0b11681120ff5a10d8005a15d0005a16c8005a1b8800528b68881f24b8026529065a1c7024c8031c46082446055383055b13e8005b10e00024960853220865a80824a8065b1c880065c6061c36025a13683a36032408065326031c08080c2808548305070539045a10385a14485a19505a1a585a17085a1b6002b704066000036567075b7c105b785b79089dca5a18309d885a19409d995a18b0005a19a8000c98085a1ac0001ba901568907090d045a1c285a16105b751804074004082006105a89f507076d045a15209d5868871f5a1880002487085b19c0006598081288011277e0687b20247b0765780c248c04537704040a5000025f079000025f089800025f09a000025a1a98005f05a800029d7a5a1ab8009d869d985a18a0009d555d015257526906105c93fd5b18a0005b17b8000c87070c65080c78086a88205a1690000c67076977200c87070f07e5035a157802570408205a171806105eedf45b18600707ce036883202483075b15506575045b12800065320824280a5b1cc000654c0965a90b1ccb0624cb09536a095b1c481ccb0a24bc0b5b1c70248c0854ab0824540a53770a5b175865a7002470075b1a8800657a0c5b1aa800650a0724a70a5b1bb0005a1c7065cb0b65ba0a65790924790765a7075b1b681cb70a247b075b1c38249c0b53ab071cc9090ca9095497085b1798005b19186597075b1a306aa9381079076aa9301079066aa9281079056aa9201079046aa9181079036aa9101079026aa908107901107a5b16406a693810790f6a693010790e6a692810790d6a692010790c6a691810790b6a691010790a1076086a66081076095b1a286aa9381079176aa9301079166aa9281079156aa9201079146aa9181079136aa910107912107a106aa9081079115b1a206aa93810791f6aa93010791e6aa92810791d6aa92010791c6aa91810791b6aa91010791a107a186aa9081079190f0869025b1a900027a75b1bb80027b853b7087607dfffffff000000005b15782457075b16a00027695367090cba075478090f0943025a10585a14605a13685b19a8000c92075b18b0005b1ac0000ca8080c87076a77200c98086988200c87070f0715026857205a178800027702285a17485a185006106017f30707fb015b19685b1a580ca9075b18605b1b700cb8080c87076a77200ca8086988200c87070f07d6015b1788002457076576052465085377085b1790006587062476075a17705b1798005b184865870702985b19106598085b195006106201f35b1a88005b128000652a0724a7085b19c0006559096589091c590c24590b53c80b5b18a800656808658b0b248b052468085b1cb8005b16b000656c0c5b1670656c0c65c8086558080cb7070c98080c87076a77200cb8086988200c87070f073e01082a05040820525706106449f207072d015b1798006575051a151f1a151e1a151d1a151c1a151b1a151a1a15191a15181a15171a15161a15151a15141a15131a15121a15111a15101a150f1a150e1a150d1a150c1a150b1a150a1a15091a15081a15071a15061a15051a15041a15031a15021a15011a055b17085b18785a785b18b8005a78185b18a0005a78085b1890005a78105b10d8005b15d0005b16c8006811e000130004070408061066a7f107078b000408500002028804070104094e0b1104082004070610688af107076e040550000262036800026203600002620358000262035000024e487b7104070404082006106a5ff10707430d1520000000410d151c0d15180d15140d15100d150c0d15080d1504040824040706106c36f107071a02580407010409244e0b110407040806106e1ff10f0704000118980004070104090400704e0b116811a0fe5a1058015a1550015a164801681560011211e05d21d8005d21d0005d21c8005d21c0000217c0004e0e115b17d0005b18d8005b19c8005b1ac0000c98080ca7070c87070f07725f0c6004035f027804035f046804035f0370040368c7fc24c7086584096899ff1c490a24490b53a80b6838ff658b0b248b081b3a0170a20a65a8083d8a27b6548a060cb808279a1b77401f7701549a075486070f072a040806107265f007071f0408500002028804070104094e0b11040704080610744af00f0772020004086000035f079400035f098400035f068c00039d7a9d9b9d670cb7091ba60156960f061e0407040806107617f00707d10408500002028804070104094e0b115b893c9d995b861c5a16505b80145b860c5a16585b88045b16509d665a16409d065a16485b16589d665a16589d885a1850689804249806656a0924a90a53660a657a0a247a07657b0b5a12086817a0005a1306107869f95b17b0005a17385b17a8005a17305b17a0005a17285b17b8005a17205b17505a1708681780000408035b19585a190409040a040b5b1640526c5b144806107aad015b1798005b1890005b1988005b1a80005a1738015a1830015a1928015a1a20015d2118015d2110015d2108015d2100015d21f0005d21f8005d21e8005d21e000000102182001021a0001021be0000409ff04074e055b170001631810015b1908010c87070c970727770409040a06107c0b9f005b17505a17086817600408035b19585a190409040a040b526c5b1648526406107e17015b17605b18785b19685b1a70687b06247b0765790c249c0953770965a90924a9076587075a1b20015a1c28015a1930015a1738015d2118015d2110015d2108015d2100015d21f0005d21f8005d21e8005d21e000000102182001021a0001021be0000409ff04074e050b1700011b77010409040a062080007ba2005b17205a175b174052685b19585b1a505b1b285b1c305b143806208200efce000407400408200620840031ee0707eafd04065000025f079800025f08a800025f099000025f0aa000029d7b9d870cb7080ca9099d990c98086a88200cb9096999200c98080f08b2fd02775a175806208600eaed0707a3fd5b1858086808040704094e0b11040850000202880407010409040088004e0b116811a05a10585a15505a16486815601211e052165a64305a6c385a6b105a6a185a69205a68285a6708040820040706208a0092ed0707bd005b57085b589d779d885b69309d995b6a389daa040b500002600a680002600960000260085800025a6b38600750000204072004082006208c0053ed07077e5b67109d775b68189d885b69209d995b6a289daa5b6b385aba385ab9305ab8285ab720040840040706208e0022ed07074d6817e01279e05a6930529101673802990408404e065b6a305ba7185ba8105ba9085baa9d779d889d999daa5b6b085aba185ab9105ab8085ab76851a05b10585b15505b1648681160130000681190fe5a1068015a1560015a1658015a1920015a1b18010c9b0b0ca8090cb9096a99205a1a10010cba0a69aa200ca9095a1c48010f095205524652755a18080102870408205a1740010620900084ec070737055a155b1a70015b1878015b1948010ca9075a1638015a1828010c68080c87076a77205a1a30010ca8086988200c87070f07040504085000025b1740015a1850016587070b78185a18200b75190b781a5a18100b781b5a18080b781c5a18380b781d5a18180b781e5a18300b781f5a18280b78105a18600b78115a18400b78125a18500b78135a18480b78145a18780b78155a18580b78165a18700b78175a18680b78085a18a0000b78095a1880000b780a5a1890000b780b5a1888000b780c5a18b8000b780d5a1898000b780e5a18b0000b780f5a18a8000b785a18e0000b78015a18c0000b78025a18d0000b78035a18c8000b78045a18f8000b78055a18d8000b78065a18f0000b77075a17e80002970408205a17000152960620920060eb070713045b1b300127b75b1c280127c953c7097608dfffffff00000000526324680a5b1738012778537a080ccb0a54a9086955085b19200c59095b1a1069aa105b16086966180c6a0a0ca9095b1a1869aa085b17380c7a0a5b1b3069bb105b1c2869cc180ccb0b0cba0a69aa200ca9095b1a4069aa085b17600c7a0a5b1b5069bb105b1c4869cc180ccb0b0cba0a5b1b5869bb085b17780c7b0b5b1c7069cc105b16686966180c6c0c0ccb0b69bb200cba0a5b1b800069bb085b17a0000c7b0b5b1c900069cc105b1688006966180c6c0c0ccb0b5b1c980069cc085b17b8000c7c0c5b16b0006966105b15a8006955180c65050c5c0c69cc200ccb0b5b1cc00069cc085b17e0000c7c0c5b16d0006966105b15c8006955180c65050c5c0c5b16d8006966085b17f8000c76065b15f0006955105b17e8006977180c57070c67076977200c7c0c5b1650015b1700016576066ac7381067076ac7301067066ac7281067056ac7201067046ac7181067036ac7101067026ac7081067016ab73810670f6ab73010670e6ab72810670d6ab72010670c6ab71810670b6ab71010670a6ab7081067096aa7381067176aa7301067166aa7281067156aa7201067146aa7181067136aa7101067126aa7081067116a973810671f6a973010671e6a972810671d6a972010671c6a971810671b6a971010671a6a9708106719106b08106c106a101069180f080f025b1718015b1810010c87077602e0ffffff000000005b1808012428085b152001565856780708e7019dc59db69da89d990c69075a1810010c58080c87076a77200c68086988200c87070f07c2010237205a19180102985a1708015a18200106209400f4e80707a7015a16f8005a1500015b1740010277205a17f0005b18200106209600d3e8070786015b1748016875202475075b1838016578062486085377085b1730016578085a1840012478075b1828016587075a1748015b1850015b1708016587075b19f0006598085b19200106209800e7e85b1a18015a153801655a0724a7055a1630015b1b1001656b096559091cb90c24b90b53c50b5b1cf8005b18400165c808658b0b248b0524c8085b1c00015b164801656c0c65c8086558080cb7070c98080c87076a77200cb8086988200c87070f07d7005b15380108a505040820525706209a000ee80707c1005b1750016575051a151f1a151e1a151d1a151c1a151b1a151a1a15191a15181a15171a15161a15151a15141a15131a15121a15111a15101a150f1a150e1a150d1a150c1a150b1a150a1a15091a15081a15071a15061a15051a15041a15031a15021a15011a055b17180168771f7608e0ffffff010000001787075b1838016578082478075b19300165790956975b1a400165a70724a70a5b1b480165ba0a5b1b5ab85ab9085ab7105aba185b1068015b1560015b165801681170011300005b1770015b1878015b1968015b1a60010c98080ca7070c87070f07755f086004035f097804035f0a6804035f07700403688bfc248b08658a0c68ccff1cac0624ac0a53680a6878ff658a0a248a081b77017079096598083d8727a95487090ca80827c71bba401faa0154c70a54890a0f0a2e0407040806209c00d0e60707200408500002028804070104094e0b110407040806209e00b4e60f074b09005f087c00035f097400035f0a6c00035f0b6400039d8c9d949da99db85f0a9c00035f0b9400035f068c00035f078400039daa5a1ad8009dba5a1ad0009d6a5a1ac8009d765a1808681740010408045a190409040a040b0620a00093f85b1b58015b1a50015b1948015b1840015a1608681720015b1cc8005a1c5b1cd8005b14d0000620a20068f85b1738015b1830015b1928015b1a20015a17d8005a17d8015a18c0005a18d0015a19d0005a19c8015a1ac8005a1ac0015d21b8015d21b0015d21a8015d21a0015d2190015d2198015d2188015d21800100010218c001021aa001021b80010409ff04074e055b17b0015a17b0005b17a8015a17b8005b16a0010407400408200620a400a3e50707f3fe5a1688005b18c8006888011b89015b17d0006579090c98071b7a015b17c000657a0a247a0b5b17d800657b0b04065000025f07a000025f0ca800025f039800025a1690005f029000029d769dcc5a1c98009d335a13a8009d275a17a0005a1708681700015a1352640620a600e71c015b1008015b1818015b1200015b1a10011c600b24600c5b17980024720353b30c5b19a800709a0b70cb0424cb0b249a0c5b1aa00070a80870c80870b80870600c703c0c70720b5a185a16800052680620a8004ded5b18c8006887022487085b1ad000658a0924a90a53880a5b16c000656a0a246a085b1bd80065b8085a18d8015a1ad0015a19c8015a17c0015d21b8015d21b0015d21a8015d21a0015d2190015d2198015d2188015d21800100010218c001021aa001021b80010409ff04074e055b18c8006887032487085b1ad000658a0924a90a53880a656a0a246a085b1bd80065b8085a18d8015b18b8015a18785a1ad0015b18b0015a18705a19c8015b18a8015a18685a17c0015b17a0015a17605d21b8015d21b0015d21a8015d21a0015d2190015d2198015d2188015d21800100010218c001021aa001021b80010409ff04074e055b17b8015a17585b17b0015a17505b17a8015a17485b17a0015a17405b18c8006887042487085b1ad000658a0924a90a53880a656a0a246a085b1bd80065b8085a18d8015a1ad0015a19c8015a17c0015d21b8015d21b0015d21a8015d21a0015d2190015d2198015d2188015d21800100010218c001021aa001021b80010409ff04074e055b17b8015a17d0005b17b0015a17d8005b16a8015b17a0015a17c8000407400408200620aa003de307078dfc5a16c0005b1c90005bc7485bc8405bc9505bca589d7b9d829d999da60c29070cb6080c78086a88200cb7076977200c87070f0758fc5a12285a1b305a193802670408205a17200620ac00ede207073dfc5b17b0006977206a77205b1b90005b1320653b0b9d775b18b8009d885b1988009d9910b9181a1b0b1a1b0a1a1b091a1b071a1b061a1b051a1b041a1b031a1b021a1b016a9a3810ba1f6a9a3010ba1e6a9a2810ba1d6a9a2010ba1c6a9a1810ba1b6a9a1010ba1a6a990810b91910b8106a893810b9176a893010b9166a892810b9156a892010b9146a891810b9136a891010b9126a880810b81110b7086a783810b80f6a783010b80e6a782810b80d6a772010b70c5b193027975b1a2827ac53a70c7607dfffffff000000002467075b183827825482070ca909549c071a0b0f075afb5a1988005a12b0005a1cb8005a1b105a161802362004082052670620ae00e6e1070736fb5b1718687ca000247c07526a5b16386576042464085377085b19306589072497085b19286598085b19900065a9091a191fa0001a191e1a191d1a191c1a191b1a191a1a19191a19181a19171a19161a19151a19141a19131a19121a19111a19101a190f1a190e1a190d1a190c1a190b1a190a1a19091a19081a19071a19061a19051a19041a19031a19021a19011a095a176817e0005a18085b1898005b1980005b1aa8005b1ba0000620b00066f47607bfffffff000000005b19182497075b19b0005469075b18b8005b1988005498070f0762fa5b17f8005a1798005b17f0005a1780005b17e8005a17a0005b17e0005a17a8005b172002764004082052670620b200dde007072dfa5b1790006576065b17609d776a783810681f6a783010681e6a782810681d6a782010681c6a781810681b6a781010681a5b18689d881067186a77081067196a87381067176a87301067166a87281067156a87201067146a87181067136a87101067125b17709d771068106a88081068116a783810680f6a783010680e6a782810680d6a782010680c6a781810680b6a781010680a5b18789d881067086a770810670910686a87381067076a87301067066a87281067056a87201067046a87181067036a87101067026a880876079fffffff000000005b19182497075b19385b1ab000549a075b19b8005b1a880054a9071068010f0736f95b172002766004082052670620b400d1df070721f976077fffffff000000005b18182487075b18385b19b0005489075b18b8005b1988005498075b1890006586065b18409d886a893810691f6a893010691e6a892810691d6a892010691c6a891810691b6a891010691a5b19489d991068186a88081068196a98381068176a98301068166a98281068156a98201068146a98181068136a98101068125b18509d881069106a99081069116a893810690f6a893010690e6a892810690d6a892010690c6a891810690b6a891010690a5b19589d991068086a88081068096a98381068076a98301068066a98281068056a98201068046a98181068036a981010680210696a99081069010f072af85b17200276800004082052670620b600c4de070714f85b1790006576065b17c8009d796a973810671f6a973010671e6a972810671d6a972010671c6a971810671b6a971010671a5b17d0009d705b18d8009d885b1ac0009daa1069186a9908106919106a106aa9381069176aa9301069166aa9281069156aa9201069146aa9181069136aa9101069126aaa08106a111068086a893810690f6a893010690e6a892810690d6a892010690c6a891810690b6a891010690a6a88081068096a08381068076a08301068066a08281068056a08201068046a08181068036a08101068025b14a8005b17182474035b18385b19a0001c890b24890a53b30a5b1b305b1c800070bc0724bc0b5b1c285b12980070c20c70bc0c24a70b70bc0c70a70770890a703a0a0cca0a5b18187084080c78080ca8080c7a096a88206999200c980810606a07081067010f08e0f65b17185b16a8001476065b172052680620b80077dd0707c7f6011810040752694e0b110408500002028804070104090400ba004e0b116811e0fe5a1018015a1510015a160801681520011211e05f086004035f097804035f0a6804035f07700403688bfc248b08658a0c68ccff1cac0624ac0a53680a6878ff658a0a248a081b77017079096598083d8727a95487090ca80827c71bba401faa0154c70a54890a0f0a20040704080620bc00dfdc07074a020408500002028804070104094e0b115f087c00035f097400035f0a6c00035f0b6400039d8c9d945a14489da65a16509dbb5a1b585f089c00035f099400035f0a8c00035f078400039d885a18409d985a18389da85a18309d775a17285a1b08681780000408035a160409040a040b52c60620be00a5ee5b1798005b1890005b1988005b1a80005a17f8005a18f0005a19e8005a1ae0005d21d8005d21d0005d21c8005d21c0005d21b0005d21b8005d21a8005d21a00000010218e000021ac000021ba0000409ff04074e055b17c0006318d0005b19c8000c87070c970727770409040a0620c000028c005b17585a17086817600408035b19505a190409040a040b526c5b14480620c2000fee5b17605b18785b19685b1a70687b06247b0765790c249c0953770965a90924a9076587075a1be0005a1ce8005a19f0005a17f8005d21d8005d21d0005d21c8005d21c0005d21b0005d21b8005d21a8005d21a00000010218e000021ac000021ba0000409ff04074e050b17c0001b77010409040a0620c400728f005b17285a1752675b18485b19505b1a585b1b405b1c385b14300400c6006811c0fd5a1038025a1530025a162802681540021211e052165a64205a6c305a6b285284527c6811f05a6a605a1a08686740010408035a69685a190409040a040b5a6c705a6478040032030526ed0407400408200620c800ddda07074804065000025f079800025f08a800025f099000025f0aa000029d7b9d870cb7080ca9099d990c98086a88200cb9096999200c98080f081102775a17580620ca0098da0f0704005b1858086808040704090400cc004e0b116811a05a10585a15505a16486815601211e052165a64305a6c385a6b105a6a185a69205a68285a670804082004070620ce004fda0707be005b576977206a77209d775b68309d885b69389d99040a5000026203500002600968000260086000025a6a3860075800020407200408200620d0000fda07077e5b67109d775b68189d885b69209d995b6a289daa5b6b385aba385ab9305ab8285ab72004084004070620d200ded907074d6817e01279e05a6930529101673802990408404e065b6a305ba7185ba8105ba9085baa9d779d889d999daa5b6b085aba185ab9105ab8085ab76851a05b10585b15505b16486811601300005b17705b18785b19685b1a600c98080ca7070c87070f07755f086004035f097804035f0a6804035f07700403688bfc248b08658a0c68ccff1cac0624ac0a53680a6878ff658a0a248a081b77017079096598083d8727a95487090ca80827c71bba201faa0154c70a54890a0f0a2e040704080620d40018d90707200408500002028804070104094e0b11040704080620d600fcd80f071e02005f076400035f0a6c00039d799da7760a00000000010000001c7a0a0c9a0a6a7b201bbb01569b55ab070bd4015f0a7400035f087c00039da49d8c5a176817400408055a19080409040a040b0620d80029fe5b17585b18505b19485b1a405a17d8005a18d0005a19c8005a1ac0005d21b8005d21b0005d21a8005d21a0005d2190005d2198005d2188005d21800000010218c000021aa000021b80000409ff04074e055b17b8005a17285b17b0005a17305b17a8005a17385b16a0000407400408200620da0030d8070738ff5a162004065000025f079800025f08a800025f099000025f0aa000029d7b9d870cb7080ca9099d990c98086a88200cb9096999200c98080f08fdfe02770408205a17180620dc00e3d70707ebfe5b17186576065b18289d8c5b18309d885b19389d995b1a209daa106a186aab38106b1f6aab30106b1e6aab28106b1d6aab20106b1c6aab18106b1b6aab10106b1a6aaa08106a191069106a9a38106a176a9a30106a166a9a28106a156a9a20106a146a9a18106a136a9a10106a126a99081069111068086a893810690f6a893010690e6a892810690d6a892010690c6a891810690b6a891010690a6a8808106809106c6ac8381068076ac8301068066ac8281068056ac8201068046ac8181068036ac8101068026acc08106c010408200620de0009d7070711fe026804092004074e0b11040704080620e000f1d60707f9fd0408500002028804070104094e0b110408500002028804070104090400e2004e0b11681180fd5a1078025a1570025a166802681580021211e05d21f8015d21f0015d21e8015d21e0010217e0014e0e115b17f0015b18f8015b19e8015b1ae0010c98080ca7070c87070f07755f086004035f097804035f0a6804035f07700403688bfc248b08658a0c68ccff1cac0624ac0a53680a6878ff658a0a248a081b77017079096598083d8727a95487090ca80827c71bba201faa0154c70a54890a0f0a2e040704080620e40021d60707200408500002028804070104094e0b11040704080620e60005d60f07050e005f087c00035f097400035f0a6c00035f076400039d8c9d949da99d775a17086817c0010408035a190409040a040b0620e8000ce85b17d8015b18d0015b19c8015b1ac0015a1728015a1758025a1820015a1850025a1938015a1948025a1a30015a1a40025d2138025d2130025d2128025d2120025d2110025d2118025d2108025d210002000102184002021a2002021b00020409ff04074e055b1730025a1710015b1728025a1718015b1620020407400408200620ea0047d5070746ff5a16e8005b1830016888011b89015b1738016579090c98071b7a015b172001657a0a247a0b5b172801657b0b04065000025f07a000025f0ca800025f039800025a16f0005f029000029d769dcc5a1cf8009d335a1308019d275a1700015a17086817a0015a1352640620ec008b0c015b10a8015b18b8015b12a0015b1ab0011c600b24600c5b17f80024720353b30c5b190801709a0b70cb0424cb0b249a0c5b1a000170a80870c80870b80870600c703c0c70720b5a185a16e00052680620ee00f1dc0407400408200620f00074d4070773fe5b1730016878022478075b1a3801657a0924a90a53770a5b172001657a0a247a0b5b172801657b0b5b16f0005b67505b6c585b63485b62409d769dcc5a1cc8009d335a13d8009d275a17d0005a1708681780015a1352640620f200c90b015b1088015b1898015b1280015b1a90011c600b24600c5b17c80024720353b30c5b19d800709a0b70cb0424cb0b249a0c5b1ad00070a80870c80870b80870600c703c0c70720b5a185a16c00052680620f4002fdc5b1830016887032487085b1a3801658a0924a90a53880a5b182001658a0a248a085b1628016568085a1858025a1a50025a1948025a1740025d2138025d2130025d2128025d2120025d2110025d2118025d2108025d210002000102184002021a2002021b00020409ff04074e055b1830016887042487085b1a3801658a0924a90a53880a5b182001658a0a248a086568085a1858025b1838025a18b8005a1a50025b1830025a18b0005a1948025b1828025a18a8005a1740025b1720025a17a0005d2138025d2130025d2128025d2120025d2110025d2118025d2108025d210002000102184002021a2002021b00020409ff04074e055b1830016887052487085b1a3801658a0924a90a53880a5b162001656a0a246a085b1b280165b8085a1858025b1838025a1898005a1a50025b1830025a1890005a1948025b1828025a1888005a1740025b1720025a1780005d2138025d2130025d2128025d2120025d2110025d2118025d2108025d210002000102184002021a2002021b00020409ff04074e055b1830016887062487085b1a3801658a0924a90a53880a656a0a246a085b1b280165b8085a1858025b1838025a18785a1a50025b1830025a18705a1948025b1828025a18685a1740025b1720025a17605d2138025d2130025d2128025d2120025d2110025d2118025d2108025d210002000102184002021a2002021b00020409ff04074e050b1720025a17585b1830016887072487085b1a3801658a0924a90a53880a656a0a246a085b1b280165b8085a1858025a1a50025a1948025a1740025d2138025d2130025d2128025d2120025d2110025d2118025d2108025d210002000102184002021a2002021b00020409ff04074e055b1738025a1730015b1730025a1738015b1628025b1720025a1728010407400408200620f6001ed107071dfb5a1620015b1af0005ba7405ba8485ba9505baa589d7b9d8c9d999daa0cb9070cca080c78086a88200cc7076977200c87070f07e8fa5a1c385a1b405a195002a70408205a1a4852760620f800ccd00707cbfa5b1710016977206a77205b18f000526365680b9d775b1818019d885b19e8009d9910b9181a1b0b1a1b0a1a1b091a1b071a1b061a1b051a1b041a1b031a1b021a1b016a9a3810ba1f6a9a3010ba1e6a9a2810ba1d6a9a2010ba1c6a9a1810ba1b6a9a1010ba1a6a990810b91910b8106a893810b9176a893010b9166a892810b9156a892010b9146a891810b9136a891010b9126a880810b81110b7086a783810b80f6a783010b80e6a782810b80d6a772010b70c5b1a3827a75b1940279c53970c7607dfffffff000000005b16482467075b185027825482070ca909549c071a0b0f07e6f95a1918015a12285a1c305a1b205a13e8000237200408205a1710010620fa00c2cf0707c1f9686c0001246c075b16506576042464085377085b17386578082478075b19406597075b19f0005b1a100165a9091a191f1a191e011a191d1a191c1a191b1a191a1a19191a19181a19171a19161a19151a19141a19131a19121a19111a19101a190f1a190e1a190d1a190c1a190b1a190a1a19091a19081a19071a19061a19051a19041a19031a19021a19011a095a1708681760015a185b18f8005b19e0005b1a08015b1b00010620fc0044e252697607c0ffffff000000005b184824780756975b18180156870707f7f85b1778015a1710015b1770015a17f8005b1768015a1708015b1760015a1700015b17e80002764004082052670620fe00c2ce0707c1f85b12485b1000012420095b18505b1408011c840724840a53790a5b1b385b13f80070b30770a70c5a1ce00024a70c24b30a5b1b405b17100170b70b70ab0b70cb0770840a709a0a7020095b1bf00065b6069d996a9b38106b1f6a9b30106b1e6a9b28106b1d6a9b20106b1c6a9b18106b1b6a9b10106b1a9daa1069186a99081069196aa9381069176aa9301069166aa9281069156aa9201069146aa9181069136aa9101069125b18e0009d88106a106aaa08106a116a893810690f6a893010690e6a892810690d6a892010690c6a891810690b6a891010690a9d771068086a88081068096a78381068076a78301068066a78281068056a78201068046a78181068036a781010680210676a770810670152265b1710015a1708681740015a135b18c8005b19c0005b1ad8005b1bd000520c06200001b9e076079fffffff000000002467075b19285b18505489075b18305b1918015498070f0766f75b1758015a1700015b1750015a17f8005b1748015a1708015b1740015a1710015b17e80002766004082052670620020131cd070730f75b17f0006576065b17a0009d776a783810681f6a783010681e6a782810681d6a782010681c6a781810681b6a781010681a5b18a8009d881067186a77081067196a87381067176a87301067166a87281067156a87201067146a87181067136a87101067125b17b0009d771068106a88081068116a783810680f6a783010680e6a782810680d6a782010680c6a781810680b6a781010680a5b18b8009d881067086a770810670910686a87381067076a87301067066a87281067056a87201067046a87181067036a87101067026a880876077fffffff000000005b19482497075b19505b1a28549a075b19305b1a180154a9071068010f0737f65b17e8000276800004082052670620040121cc070720f65b17f0006576065b1780009d776a783810681f6a783010681e6a782810681d6a782010681c6a781810681b6a781010681a5b1888009d881067186a77081067196a87381067176a87301067166a87281067156a87201067146a87181067136a87101067125b1790009d771068106a88081068116a783810680f6a783010680e6a782810680d6a782010680c6a781810680b6a781010680a5b1898009d881067086a770810670910686a87381067076a87301067066a87281067056a87201067046a87181067036a87101067026a880876075fffffff000000005b19482497075b19505b1a28549a075b19305b1a180154a9071068010f0727f55b17e8000276a00004082052670620060111cb070710f55b17f0006576065b17609d776a783810681f6a783010681e6a782810681d6a782010681c6a781810681b6a781010681a5b18689d881067186a77081067196a87381067176a87301067166a87281067156a87201067146a87181067136a87101067125b17709d771068106a88081068116a783810680f6a783010680e6a782810680d6a782010680c6a781810680b6a781010680a5b18789d881067086a770810670910686a87381067076a87301067066a87281067056a87201067046a87181067036a87101067026a880876073fffffff000000005b19482497075b19505b1a28549a075b19305b1a180154a9071068010f071bf45b17e8000276c00004082052670620080105ca070704f45b175827775b18f00065860610671f1a161e1a161d1a161c1a161b1a161a1a16191a16181a16171a16161a16151a16141a16131a16121a16111a16101a160f1a160e1a160d1a160c1a160b1a160a1a16091a16081a16071a16061a16051a16041a16031a16021a160176071fffffff000000005b18482487075b18505b19285489075b18305b1918015498071a060f0772f35b17e8000276e000040820526706200a015cc907075bf35b17f0006576065b1728019d796a973810671f6a973010671e6a972810671d6a972010671c6a971810671b6a971010671a5b1730019d705b1838019d885b1a20019daa1069186a9908106919106a106aa9381069176aa9301069166aa9281069156aa9201069146aa9181069136aa9101069126aaa08106a111068086a893810690f6a893010690e6a892810690d6a892010690c6a891810690b6a891010690a6a88081068096a08381068076a08301068066a08281068056a08201068046a08181068036a08101068025b1410015b17482474035b18505b1908011c890b24890a53b30a5b1b385b1cf80070bc0724bc0b5b1c405b12000170c20c70bc0c24a70b70bc0c70a70770890a703a0a0cca0a5b18487084080c78080ca8080c7a096a88206999200c980810606a07081067010f0827f25b17485b1610011476065b17e800526806200c010ec807070df2011820040752694e0b1104085000020288040701040904000e014e0b116811a0fd5a1058025a1550025a164802681560021211e05d21d8005d21d0005d21c8005d21c0000217c0004e0e115b17d0005b18d8005b19c8005b1ac0000c98080ca7070c87070f075d5f086004035f097804035f0a6804035f07700403688bfc248b08658a0b68bbff1cab0c24ab0a53c80a6878ff658a0a248a081b77017079096598082d082e04070408062010015bc70707200408500002028804070104094e0b1104070408062012013fc70f072e05000217e0004e035b17e8000118f0005b19e0009d77697a209d886a88200ca80c6a77209d986989200c79046a89205d11086817a0000408055a190409040a040b0620140178ec5b17b8005b18b0005b19a8005b1aa0005a1798015a1890015a1988015a1a80015d2138025d2130025d2128025d2120025d21f0015d21f8015d21e8015d21e001000102188001021a2002021be0010409ff04074e05115b1c38025b1b30025b1a28025b1920020cca070cb9080c87070f0780010407400408200620160176c607073bff04065000025f079800025f089000025f09a000025f0aa800029d7c9d829d9b9da90c2b070cc9080c78086a88200cc7076977200c87070f0701ff5a12405a1c485a1b505a195802970408205a1738062018011ec60707e3fe5b17386576061a161f1a161e1a161d1a161c1a161b1a161a1a16191a16181a16171a16161a16151a16141a16131a16121a16111a16101a160f1a160e1a160d1a160c1a160b1a160a1a16091a16081a16071a16061a16051a16041a1603a0001a1602791a1601c3001a06085b17586878042478075b1a50657a0924a90a53770a5b1748657a0a247a0b5b1740657b0b68176006201a0167cc005b18685b12785b13605b1a705b17501c780b24780c52705b145824430953b90c5b1748707a0b247a0a5b174070720770a70724cb0a70a70770cb0b7008087098080c87077043080cb8080c78080cb7076a88206977200c87070f07edfd1443085b17385a185806201c0115c50707dafd02680407015b19584e0b11021700015a19585a1a505a1b485a1c404e035b170801011810015b1900019d77697a209d886a88200ca80c6a77209d986989200c79046a89205d1108681780000408055a190409040a040b06201e0138ea5b1a98005a1a285b1990005a19305b1888005a18385b1680005a1a38025a1930025a1828025a1620025d21f8015d21f0015d21e8015d21e0015d2150015d2158015d2148015d214001000102182002021ae001021b40010409ff04074e055b17285a1798015b17305a1790015b17385a1788015a1680015d21d8015d21d0015d21c8015d21c00102188001021ac0010409ff040b2004074e0d021720014e035b1728015b182001011930015a1748015a184001031950015b17405a17d8015b17485a17d0015b17505a17c8015b17585a17c0010407040806202001d8c307079dfc0407040806202201cac307078ffc0d2160010d21800108681740015a1784015d2190015d2188017607ffffffff000000005a1798016817c0015a179c0104065000025a16a0010d21a4015a16a801681760015a17ac01021780014e02110f075a0407400408200620240168c307072dfc5b67485b68585b69405b6a509d7b9d870cb7080ca9099d990c98086a88200cb9096999200c98080f0802fc02775a1758062026012ec30707f3fb5b1858086808040704094e0b110407400408200620280111c30707d6fb5b67505a17585b67485b68585b69405a19509d775a17489d875a17400217e0014e0a115b1a405b19480c9a075b18585b1b500cb8089d880c87076a77200c98086988200c87070f078cfb5b1be0015b17f8015b18e8015b19f0010c87070c9b080c78086a88200c97076977200c87070f0763fb02a75a1b5002b85a17585a184806202a0187c207074cfb5b1750031700025b17580867070218000204094e0911011700025b18482f872bfb021720024e0a115b1830025b1938025b1a28025b1720020ca9090c870a0c9a0a6aaa200c98086988200ca8080f08fbfa02785b17585a185006202c0124c20707e9fa5b18580868080407015b19504e0b1104085000020288040701040904002e014e0b11681130ff5a10c8005a15c0005a16b8006815d0001211f05f0c6004035f037804035f026804035f0470040368c7fc24c7086582096899ff1c290a24290b53a80b6848ff658b0b248b081b4a0170a30a65a8083d8a27b6548a060cb808279a1b77601f7701549a075486070f071e04080620300189c1070732020408500002028804070104094e0b1104066000035f077400035f086400035f096c00039d7a9d8b9d970cb7081ba90156890f0920040704080620320147c10707f0010408500002028804070104094e0b115b681c9d896898045a1668249806656a0924a90a53660a657a0a247a07657b0b5a14681790005a13085a14485a126052245a1c585a135006203401b2ca5b19685b97345b982452965b992c9d7a9d8b9d970cb7081ba90156890f09200407040806203601cec0070777010408500002028804070104094e0b115b18a8005a18405b683c5b19a0005a19385b1998005a19305b1990005a19289d8968980424980c65ca0924a90a53cc0a657a0a247a07657b0b5b17485a176817705b1c505a1c085b1c585b14600620380123ca5b67545b685c5b6a445b6b4c9d799d889da79dba0c7a0b1b8c03569c56bc0f0c200407040806203a013dc00707e6000408500002028804070104094e0b115b1688005b1480005b1c785b1b705a19105a18085a1a185a17205a165b17285b18305b19385b1a4004003c01681180fc5a1078035a1570035a166803681580031211e052165a6400015a6cf8005a6bf0005a6ae0005a69d8005a68d0005a67c8005d26f8015d26f0015d26e8015d26e0010267e001040066034e0e059ecd0004074004082006203e019fbf07074804065000025f079800025f08a800025f099000025f0aa000029d7b9d870cb7080ca9099d990c98086a88200cb9096999200c98080f081102775a1768062040015abf0f0704005b186808680804070409040042014e0b116811a0fd5a1058025a1550025a164802681560021211e05d2138025d2130025d2128025d212002021720024e0e115b1730025b1838025b1928025b1a20020c98080ca7070c87070f07735f0c6004035f027804035f046804035f0370040368c8fc24c80965940a68aaff1c4a0b244a0653b9066839ff6596062496091b3b0170b20b65b9093d9b2767549b070c690927ab1b88201f880154ab085497080f082c0407062044019dbe0707200408500002028804070104094e0b11040704080620460181be0f07600a0004086000035f077400035f096400035f066c00039d7a9d9b9d660cb6071ba90156790f091f04070408062048014dbe0707d00408500002028804070104094e0b115b871c9d77687804247807657a0924a90a53770a656a0a246a07657b0b5a13681700025a120806204a01cac75b1b18025b1a10025b1908025b1800026817e00106204c01d1fc005b17f8015a17d8015b17f0015a17c8015b17e8015a17c0015b17e0015a17b80104074004082006204e01c8bd07074bff04065000025f079800025f089000025f09a000025f0aa800029d7c9d829d9b9da90c2b070cc9080c78086a88200cc7076977200c87070f0711ff5a16b0015a12285a1c305a1b385a194002960408205267062050016dbd0707f0fe5b19b0016569091a191f201a191e1a191d1a191c1a191b1a191a1a19191a19181a19171a19161a19151a19141a19131a19121a19111a19101a190f1a190e1a190d1a190c1a190b1a190a1a19091a19081a19071a19061a19051a19041a19031a19021a19015b1ac8015b1cb8010cac075b18d8015b1bc0010cb8080c87076a77200ca8086988200c87071a090f0760fe5a19185a162002c6040820526706205201c6bc070749fe5b1c3027c75b1a2827a853a7087607dfffffff000000005b12402427075b1b3827b953b7090cac075478090f091afe5b17b0016576060b67185a17d0000b67195a17b0000b671a5a17c0000b671b5a17b8000b671c5a17e8000b671d5a17c8000b671e5a17e0000b671f5a17d8000b67105a1710010b67115a17f0000b67125a1700010b67135a17f8000b67145a1728010b67155a1708010b67165a1720010b67175a1718010b67085a1750010b67095a1730010b670a5a1740010b670b5a1738010b670c5a1768010b670d5a1748010b670e5a1760010b670f5a1758010b675a1790010b67015a1770010b67025a1780010b67035a1778010b67045a17d0010b67055a1788010b67065a17a0010b67075a1798016826205a16a801026604082052670620540199bb07071cfd5b17b0006977085b18d0000c87075b18c0006988105b19b8006999180c98080c87075b18c8006988085b19e8000c98085b19e0006999105b1ad80069aa180ca9090c98086988200c78045b17f0006977085b1810010c87075b1800016988105b19f8006999180c98080c87075b1808016988085b1928010c98085b1920016999105b1a180169aa180ca9090c98086988200c78035b1730016977085b1850010c87075b1940016999105b1a380169aa180ca9090c97075b1948016999085b1868010c89095b1a600169aa105b1b580169bb180cba0a0ca9096999200c79005b1770016977085b1890010c87075b1a800169aa105b1b780169bb180cba0a0ca7075b1a880169aa085b18d0010c8a0a5b1ba00169bb105b1c980169cc180ccb0b0cba0a69aa200ca7075b18b0016586061060086a7a38106a076a7a30106a066a7a28106a056a7a20106a046a7a18106a036a7a10106a026a7a08106a0110671063106a0a38106a0f6a0a30106a0e6a0a28106a0d6a0a20106a0c6a0a18106a0b6a0a10106a0a6a0a08106a091064186a3a38106a176a3a30106a166a3a28106a156a3a20106a146a3a18106a136a3a10106a126a3a08106a116a4a38106a1f6a4a30106a1e6a4a28106a1d6a4a20106a1c6a4a18106a1b6a4a10106a1a6a4a08106a195b1a4068a8405a18a00124a8065b19386569085a18980124980c53660c5b123065c20b0c37080c40060c68085a1b9001242b065b1b2865b6065a1688010f0886005b10a0015b12980111522a5b12402420045b18381c8a03248a095334095b17305b1b9001707b03247b0c5b1728657c0c5b16880170c60624930c70c60670930c708a097049090c69097020070cc7070c97070cc9086a77206988200c87070f0797fa1420065b172052680620560102b9070785fa01181804075269040058014e0b11524c52a4040a52b6040b5d2158015d2168015b18a8012448046549085a1878012498085344086528085a1870012428086586099d775a17609d075a17589d375a17509dc75a17487607dfffffff000000005a1780015b1cd8015b14c8015b13c0015b16b8015b10a0015b129801115a19a0015a1b60015a1a9801274727c853c7085b17800124670727395a13c0015337095a1cd8015a14c8010cc4075478095b1788015a1750015b1790015a1748015a1240015a10d0010f09bcf95a16b801026620040820526706205a0123b80707a6f95b1b700127b75b1ca00127c853c7085b1780015b19a8012497075b1a780127a953a7090ccb075478095b1ab0015b1bd0010f0971f9656a070b78185a1888000b76190b781a5a18780b781b5a18700b781c5a18a0000b781d5a1880000b781e5a1898000b781f5a1890000b78105a18c8000b78115a18a8000b78125a18b8000b78135a18b0000b78145a18e0000b78155a18c0000b78165a18d8000b78175a18d0000b78085a1808010b78095a18e8000b780a5a18f8000b780b5a18f0000b780c5a1820010b780d5a1800010b780e5a1818010b780f5a1810010b785a1878010b78015a1828010b78025a1838010b78035a1830010b78045a18a0010b78055a1870010b78065a1890010b77075a17880102b70408205a17a80106205c01ffb65b1298015b1060015b146801070776f85b17b8016878205a18682478075b18c0016578095a19b8012489095377095b17c8016579095a19c0012479075b18d8016578085a18d8016966085b1788000c67075b18786988105b1a7069aa180ca8080c87075b1880006988085b19a0000c98085b1a980069aa105b1b900069bb180cba0a0ca8086988200c780a5b17a8006977085b18c8000c87075b18b8006988105b1bb00069bb180cb8080c87075b18c0006988085b19e0000c98085b1bd80069bb105b1cd00069cc180ccb0b0cb8086988200c780b5b17e8006977085b1808010c87075b18f8006988105b1cf00069cc180cc8080c87075b1800016988085b1920010c98085b1c180169cc105b1610016966180c6c0c0cc8086988200c780c5b1728016977085b1878010c87075b1838016988105b1630016966180c68080c87075b1870016988085b19a0010c98085b1690016966105b1988016999180c69090c98086988200c87075b16a8015b18b0016586066a78381068076a78301068066a78281068056a78201068046a78181068036a78101068026a780810680110676ac73810670f6ac73010670e6ac72810670d6ac72010670c6ac71810670b6ac71010670a106c086acc08106c096ab7381067176ab7301067166ab7281067156ab7201067146ab7181067136ab710106712106b10106a186abb08106b116aa73810671f6aa73010671e6aa72810671d6aa72010671c6aa71810671b6aa71010671a6aaa08106a196822011b27016570000c02071b77015b1858016578032483086584045b18482482085b1a501ca00924a00a53980a5b1c5824c3095b18601c840b5a14680124840853b9081cc3090cb909539a085b17d0016879205a19a0012479095b1b4001659b0a5a1a980124ba0c53990c5b1a480165ac0c5a1c900124ac065b1950016596065a1688015a1358015b16685b13b8015b14c0015a17a8015a1b7801520b5b10a0015a1a7001522a5b1298015b1cd8010f08a6fb05bbfa04085000020288040701040904005e014e0b116811e0fa5a1018055a1510055a160805681520051211e05d2138045d2130045d2128045d212004021720044e0e115b1730045b1838045b1928045b1a20040c98080ca7070c87070f07755f086004035f097804035f0a6804035f07700403688bfc248b08658a0c68ccff1cac0624ac0a53680a6878ff658a0a248a081b77017079096598083d8727a95487090ca80827c71bba201faa0154c70a54890a0f0a30040704080620600164b30707220408500002028804070104094e0b11040704080620620148b307070605011a005f087400035f097c00035f0a6c00035f076400039d845a14d8019d9c5a1cd0019da95a19c8019d765a1608681700040408035a190409040a040b0620640141c55b1718045b1810045b1908045b1a00045a17f8045a18f0045a19e8045a1ae0045d21d8045d21d0045d21c8045d21c0045d21b0045d21b8045d21a8045d21a00400010218e004021ac004021ba0040409ff04074e055b17c0046318d0045b19c8040c87070c970727770409040a062066019e625a16c0015a16086817e0030408035b19c8015a190409040a040b5b1cd0015b14d80106206801a6c45b17f8035a1758025b17f0035a1750025b17e8035a1748025b16e003021740044e086867055a1628022467085b1a4802658a0924a90a53880a5b1840045a1840025a19e8045b1848045a1838025a17e0045b1750045a1730025b175002657a0a5a1af004247a075b1858026587075a17f8045b1658045d21d8045d21d0045d21c8045d21c0045d21b0045d21b8045d21a8045d21a00400010218e004021ac004021ba0040409ff04074e05115b17d8045b18c0045b19d0045b1ac8041c760b2467065b17300224790c54b60c5b1638021ca602246a0a5b164002246808542a081c97070cb707547c080708bd037607ffffffff000000005a1718015b1628026869062469075b18480265780a248a085377085b1750026578082478075b1b580265b7075a19305a19e0045a1a285a1ae8045a18205a18f0045a17185a17f8045d21d8045d21d0045d21c8045d21c0045d21b0045d21b8045d21a8045d21a00400010218e004021ac004021ba0040409ff04074e050b17c0041b77010409040a06206a01fe646867032467085b1a4802658a0924a90a53880a5b185002658a0a248a085b1b580265b8085a18f8045a1af0045a19e8045a17e0045d21d8045d21d0045d21c8045d21c0045d21b0045d21b8045d21a8045d21a00400010218e004021ac004021ba0040409ff04074e055b1ad8045b17d0045a1730015b17c8045a1728015b17c0045a1720010402040c040904035d2158025d2150025d2140025d2148025a1a3801115a1c20025a1328025a1230025a1938025d21f8045d21f0045d21e8045d21e004025d21d8045d21d0045d21c8045d21c0045d21b0045d21b8045d21a8045d21a00400010218e004021ac004021ba0040409ff04074e05115b17d8045b18c0045b13d0045b1ac8045b1c48021c7c0b247c075b19400224390c54b70c5b1750021ca70224a70a5b165802248608542a081c39070cb707547c08070879035b17c8015a17681780020408045b19c0015a19080409040a040b5b1cd0015b14d80106206c01bbc15b1b98025b1a90025b1988025b1880025b1748025a1708681760025b1c40025a1c5b1c58025b14500206206e018cc15b1760025b1878025b1968025b1a7002687b02247b0765790c249c0953770965a90924a9076587075a1be0045a1ce8045a19f0045a17f8045d21d8045d21d0045d21c8045d21c0045d21b0045d21b8045d21a8045d21a00400010218e004021ac004021ba0040409ff04074e05115b19c8045b18c0045b13d8045b1bd0045b16200265690c5b143002654802248208658c0c1c9c07249c095378095b1a380265ab085b17280265730324b80b653b0b658909248908658b031c6c08246c0624420b54860b24a9081c73062473075368071ca9080c68080404000154870b5b1858026888011b87015b1650026576065a1858025a1650020c68071b77015b1840026587072487085b1648026586065a1648025a174002070bf8fd04082004070620700128ae0707e6fa04065000021162036800026203600002620358000262035000024e487b7104070404082006207201faad0707b8fa0d1620000000110d161c0d16180d16140d16100d160c0d16080d1604040824040706207401cfad07078dfa02680407010409244e0b1104074004082006207601b4ad070772fa04065000025f079800025f089000025f09a000025f0aa800029d7c9d829d9b9da90c2b070cc9080c78086a88200cc7076977200c87070f0738fa5a1240025a1c48025a1b50025a19580202970408205a1738020620780157ad070715fa5b1738026576061a161f1a161e1a161d1a161c1a161b1a161a1a16191a16181a16171a16161a16151a16141a16131a16121a16111a16101a160f1a160e1a160d1a160c1a160b1a160a1a16091a16081a16071a16061a16051a16041a1603a0001a1602791a1601c3001a06085b1758026878042478075b1a5002657a0924a90a53770a5b174802657a0a247a0b5b174002657b0b6817c00306207a0121f9005b18c8035b12d8035b13c0035b1ad0035b1750021c780b24780c52705b14580224430953b90c5b174802707a0b247a0a5b17400270720770a70724cb0a70a70770cb0b7008087098080c87077043080cb8080c78080cb7076a88206977200c87070f0711f91443085b1738025a18580206207c013eac0707fcf802680407015b1958024e0b115b1738025b1830020c87075b1828025b1920020c98080c87070f0747015d21480204065d2150025d2158020217e0045a1738020217c0045a1730020217a0045a172802115d21f8045d21f0045d21e8045d21e004025d21d8045d21d0045d21c8045d21c0045d21b0045d21b8045d21a8045d21a00400010409ff04075b1838025b1a30025b1b28024e05115b17d8045b18c0045b12d0045b1ac8045b1c58021c7c0b247c075b19500224290c54b70c1ca6075a16400224a60a5b164802248608547a081c29090cb909549c080f080605c1105b17c8015a176817c0020408045b19c0015a19080409040a040b5b1cd0015b14d80106207e0174bd5b1bd8025b1ad0025b19c8025b18c0025b1758025a17086817a0025b1c50025a1c5b164802526c5b1440020620800143bd6866011b67015b1840026578085a1648020c860752861b77015b1850026587072487085b1958026589095a1958025a17500205e7fe5d2190015d2188015d2180015d2158010218e004021ac004021ba0045b1c380127c75a17505b1730010cc70727775a17485b17280127775a17405a1850015a1a48015a1b4001115d21f8045d21f0045d21e8045d21e004025d21d8045d21d0045d21c8045d21c0045d21b0045d21b8045d21a8045d21a00400010409ff04074e05115b17d8045b18c0045b12d0045b16c8045b1b58011c7b03247b075b1a8001242a0c54370c5b1988011c69042469075b1690012486085447081c2a070c3707547c0807086d0f529452b252a35b17c8015a176817a0030408045b19c0015a19080409040a040b5b1cd0015a1488015b14d8015a16900152265a138001062082010bbc5b1bb8035b1ab0035b19a8035b18a0035a1608681780035b1c80015a1c5b1c90015b14880106208401e0bb5b1880035b1b98035b1a88035b1c90036887025a187801248708658a095a1a700124a90a53880a65ca0a5a1c600124ca085a1b680165b8085a17e0045a19e8045a1af0045a18f8045d21d8045d21d0045d21c8045d21c0045d21b0045d21b8045d21a8045d21a00400010409ff04075b1850015b1a48015b1b40014e05115b10c0045b12c8045b17d8045a1758025b17d0045b19200139900871920b65b80824b80b39920c65bc045b16280171600b65b8085a18e00124b80839600b65b80865840371620c653c085a1850025b1a3001710a0b5a1b480224c80b24430839620c65c80865b8085a18400271a2085b1c3801710c0c658c0b7176085b1c5802719c066568087197065b144802656404390a0a5a1a080265ba0a3997035a1318026583032464085a1a100265a3066586065b1840020cc20c5a1748020c70070cc7075b1a5002654a0c52945a1ce80124ac0c65860665c60907078a001c890724890b547b0c5b1710025b180802248707272852965b19501798085b19380139090b27bb0cb8085b19300139920a27aa0ca80852390c78035b1718022479085b175802277a5b1940179a0a39470b27bb0cba0a5b1948025b1b2801399b0b27bb0cba0a0ca8080c790927995b1a4817a9090c980852690c38070cc7071277010f07670e71400a5a1af0015b1b38025b1430020cb4075b1c28025b1620020cc6080c87071b77015b12e8010c2a085b10e00152930c90090c98081b88010c87075a1758028cb86889408cc853c9088c496899408c6a53690a68a980000ccb0b53b90824a90a56ba8c296899408c3b53390b5b17f0018c796899408c0c53090c68c980000c320653690b24c90756671c7a09247a0c24b80653960c1bc9016899ff88c4707a0a706a0a70b8062747279853970827a71b6b00011fbb0154a70b54c80b5b18f0015b1758020cb7075a13b80156735a135802522c567c5a1c5002520c567c5a1c4002528c567c5a1c48020f073c0852631f67ff000c47070c9a080c87075b1878015b1670015b1b68015b1c600107072a086838015a1858021b870165a7075a1708020c87071b77016547075a1700022447076597075a1710025b17f001101760031a215f031a215e031a215d031a215c031a215b031a215a031a2159031a2158031a2157031a2156031a2155031a2154031a2153031a2152031a2151031a2150031a214f031a214e031a214d031a214c031a214b031a214a031a2149031a2148031a2147031a2146031a2145031a2144031a2143031a2142031a2141031a214003101068036a78385a18e800101867036a78305a18e000101866036a78285a18d800101865036a78205a18d000101864036a78185a18c800101863036a78105a18c000101862036a77085a17b800101761035b18e801101870036a07385a17b00010176f036a07305a17a80010176e036a07285a17a00010176d036a07205a17980010176c036a07185a17900010176b036a07105a17880010176a036a07085a178000101769035b14b801101478036a87385a1778101777036a87305a1770101776036a87285a1768101775036a87205a1760101774036a87185a1758101773036a87105a17b001101772036a87085a17a801101771036a47385a17a00110177f036a47305a17980110177e036a47285a17100110177d036a47205a17080110177c036a47185a17000110177b036a47105a17f80010177a036a47085a17f000101779032832ff006927386a773b681a6003707a0a0ba7190ba8180bab1a0bac1b6977080c870769bb1069cc180ccb0b0cb7070ba81d0bab1c0bac1e0ba61f6988080cb80869cc106966180c6c0c0cc8086988200c780c0ba7110ba8100bab120ba6136977080c870769bb106966180c6b0b0cb7070ba8150bab140ba6160ba9176988080cb8086966106999180c69090c98086988200c7803122907649c076a38011f923f6c28080c87075a1750020ba7090ba8080bab0a0bac0b6977080c870769bb1069cc180ccb0b0cb7070ba80d0bab0c0bac0e0ba60f6988080cb80869cc106966180c6c0c0cc8086988200c780c6ac7011f98ff6c87076493085b1358020c87075a1748020ba7010ba80bab020ba6036977080c870769bb106966180c6b0b0cb7070ba8050bab040ba6060baa076988080cb8085b1b080269661069aa180c6a0a0ca8086988200c87076a78016c2808649c0a5b1c00020ca8085a1818025b1810020cb8080cc30a0ca8086497075a17400207085b045d11385d21f8015b17f001101700035b17e001101708035b17e800101707035b17e000101706035b17d800101705035b17d000101704035b17c800101703035b17c000101702035b17b800101701035b17e801101710035b17b00010170f035b17a80010170e035b17a00010170d035b17980010170c035b17900010170b035b17880010170a035b17800010170903101418035b1778101717035b1770101716035b1768101715035b1760101714035b1758101713031a213f031a213e031a213d031a213c031a213b031a213a031a2139031a2138031a2137031a2136031a2135031a2134031a2133031a2132031a2131031a2130031a212f031a212e031a212d031a212c031a212b031a212a031a2129031a2128031a2127031a2126031a2125031a2124031a2123031a2122031a2121031a2120035b17b001101712035b17a801101711035b17a00110171f035b17980110171e035b17100110171d035b17080110171c035b17000110171b035b17f80010171a035b17f000101719036937386a773b681900036579090b97110b98100b9a120b9b136977080c870769aa1069bb180cba0a0ca7070b98150b9a140b9b160b9c176988080ca80869bb1069cc180ccb0b0cb8086988200c7802123a076ca2030b97190b9b180b9c1a0b961b6977080cb70769cc106966180c6c0c0cc7070b9b1d0b9c1c0b961e0b981f69bb080ccb0b6966106988180c68080cb8086988200c78006907011fa43f6447070c73075a17f0010b97090b98080b9b0a0b960b6977080c870769bb106966180c6b0b0cb7070b980d0b9b0c0b960e0b9c0f6988080cb80869661069cc180c6c0c0cc8086988200c78086ca8076922011fabff64b20b5b12380cb7030b97010b9b0b9c020b96036977080cb70769cc106966180c6c0c0cc7070b9b050b9c040b96060b990769bb080ccb0b6966106999180c69090cb9096999200c97076ca70769880164480c0c7c0c6ca0005b1830021b87015b1920027079075a17b0010c98071b77015b19380270790a5a1aa8012479075b1928027079095a19a0016888ff5a189801115d21b8016ac83f6936010c860469cc015b1950026a983f0cc8085a18e8015b17b0011c4706522c2447025b1798012487085462086906015b1bf0016aba3f0ca6025a12e0016a363f69bb010cb606699b015b1948026a973f0c7b03699b015b1718026a793f0cb9096977015b1b40026aba3f0c7a0a69bb010ccb0b5a1b40025b10f8010ca0075a1718020c90075a1748020c30075a1750025b19a8017069072487072469085b19a0017029097089097079086b883f5b1730021778025b1920021789091c940324940b5b17e80124270a533a0b5b1c380217c80370360070b00c5a1cf00124b0002436065b1c2802178c0c5b1be00170cb0c706c0c700c0070940970a90370270c5b1658025b1b08020cb6071b77015b1a0002247a09707a071b6a0170ab0b5b1a1002709a0a6866ff5a1b08025a1a10020cab095a1658020c760a0ca9091282015a1700025d21f8010f09b1fe050904025d21b801115b1a48026aa73f5b1850026988010c87075b1b18026ab83f69aa010ca8085b1c40026aca3f69bb0169cc010cc2095a1948025b19b8010c9a0a0cba0a5a1a40020c98085a1850020c97075a175802115b1878015b1670015b1b68015b1c60011168890324890765760a246a0853770865c80824c80765b7075a1918025a19e0045a1a10025a1ae8045a1808025a18f0045a1700025a17f8045d21d8045d21d0045d21c8045d21c0045d21b0045d21b8045d21a8045d21a00400010218e004021ac004021ba0040409ff04074e05115b1bc8045b19c0045b12d8045b17d0045b1c400265bc0c5b1048026509085a18f80124980a65ac0c1cbc095a1cf00124bc0b5b14500265470c5b135802653208247c0665680852a6549b0665c60624c60c658c0c1fa8011fba01549a082476091c2c0a242c0b53a90b1c67070ca7071fb901547908070817045b1710025a17c8045b1718025a17c0045b1708025a17d0045b1700025a17d8045d21b8045d21b0045d21a8045d21a0045d2190045d2198045d2188045d21800400010218c004021aa004021b80040409ff04075a1358025a1450025a1048025a1ce8014e055b1700025a17f8045b1708025a17f0045b1710025a17e8045b1718025a17e0045b17e8015a1778045a1670045b17f0015a1768045b17f8015a1760040218e004021a60040409ff040b2004074e0d5b1768015a17f8045b1760015a17f0045b1770015a17e8045b1778015a17e0045d21d8045d21d0045d21c8045d21c0045d21b0045d21b8045d21a804040600015a16a0040218e004021ac004021ba0040409ff04074e055b17c0045b18c8045b19d004127cff1284ff5b1718011779095d11086817e0020408055a190409040a040b06208601eac15b1af8025b19f0025b18e8025b17e0025a1a00025a1af8045a1908025a19f0045a1810025a18e8045a1718025a17e0045d21d8045d21d0045d21c8045d21c0045d21b0045d21b8045d21a8045a16a0040218e004021ac004021ba0040409ff04074e05115b1ac8045b18c0045b12d8045b19d0045b1c400265ac0c5b17480265780424840b65bc001ca00324a00a1fbc01543a0b5b17500265970765b70624760b5b185802652808249707658707657b0b2496071c2b085a1b5802242b0b53870b1fb7011c69090c98081fa90154390c54870c070c1e025b1710025a17c8045b1718025a17c0045b1708025a17d0045b1700025a17d8045d21b8045d21b0045d21a8045d21a0045d2190045d2198045d2188045d21800400010218c004021aa004021b80040409ff04075a1450025a1048024e055b1700025a17f8045b1708025a17f0045b1710025a17e8045b1718025a17e0045b1758025a1778045a1670045b1748025a1768045b1750025a1760040218e004021a60040409ff040b2004074e0d5b1890016888011b87015b1988016579095a1890015a1988010c98071b77015b1880016587072487085b1958016589095a1958015a1780015b1850015b1a48015b1b4001051af05b17285a17c8045b17305a17c0045b17205a17d0045b16185a16d8045d21b8045d21b0045d21a8045d21a0045d2190045d2198045d2188045d21800400010218c004021aa004021b80040409ff04074e055b17a0045b18a8045b19b0045b1ab804127700ff3177015a16f8045b1b205a1bf0045b1b285a1be8045b1b305a1be0045a1a78045a1970045a1868045a1760040218e004021a60040409ff040b2004074e0d04074004082006208801ef990f070605aae604065000025f079800025f08a800025f099000025f0aa000029d7b9d870cb7080ca9099d990c98086a88200cb9096999200c98080708060570e602775a17580206208a01a3990f0706055ee65b185802086808040704094e0b11040820040706208c0184990f0706053fe60406500002055beb040820040706208e016b990f07060526e604065000020542eb04082004070620900152990f0706050de604065000020529eb040850000202880407010409040092014e0b11681120ff5a10d8005a15d0005a16c8006815e0001211e05d11585d11505d11485d11400217404e0e115b17505b18585b19485b1a400c98080ca7070c87070f075d5f086004035f097804035f0a6804035f07700403688bfc248b08658a0b68bbff1cab0c24ab0a53c80a6878ff658a0a248a081b77017079096598082d082e0407040806209401a8980707200408500002028804070104094e0b1104070408062096018c980f079f01005d21b8005d21b0005d21a8005d21a000025d2198005d2190005d2188005d2180005d11705d11785d11685d116000010218a000021a8000021b600409ff04074e055b1798005a17285b1790005a17305b1788005a17385b1680000407400408200620980121980707995a162004065000025f079800025f08a800025f099000025f0aa000029d7b9d870cb7080ca9099d990c98086a88200cb9096999200c98080f085fff02770408205a171806209a01d59707074dff5b17186576065b18289d8c5b18309d885b19389d995b1a209daa106a186aab38106b1f6aab30106b1e6aab28106b1d6aab20106b1c6aab18106b1b6aab10106b1a6aaa08106a191069106a9a38106a176a9a30106a166a9a28106a156a9a20106a146a9a18106a136a9a10106a126a99081069111068086a893810690f6a893010690e6a892810690d6a892010690c6a891810690b6a891010690a6a8808106809106c6ac8381068076ac8301068066ac8281068056ac8201068046ac8181068036ac8101068026acc08106c0104082006209c01fb96070773fe026804092004074e0b1104085000020288040701040904009e014e0b11681140ff5a10b8005a15b0005a16a8006815c0001211e05d11385d11305d11285d11200217204e0e115b17305b18385b19285b1a200c98080ca7070c87070f075d5f086004035f097804035f0a6804035f07700403688bfc248b08658a0b68bbff1cab0c24ab0a53c80a6878ff658a0a248a081b77017079096598082d082e040704080620a00151960707200408500002028804070104094e0b11040704080620a20135960f076a01005d2198005d2190005d2188005d2180005d11785d11705d11685d11605d11505d11585d11485d1140000102188000021a60021b400409ff04074e056317705a17105b17685a17185b16600407400408200620a401da950707a95a160804065000025f079800025f08a800025f099000025f0aa000029d7b9d870cb7080ca9099d990c98086a88200cb9096999200c98080f086fff02770408205a170620a6018f9507075eff5b176576065b18109d8b5b18189d885b19089d991069181a160b1a160a1a16091a16071a16061a16051a16041a16031a16021a16011a066a9a38106a1f6a9a30106a1e6a9a28106a1d6a9a20106a1c6a9a18106a1b6a9a10106a1a6a99081069191068106a89381069176a89301069166a89281069156a89201069146a89181069136a89101069126a8808106811106b086ab83810680f6ab83010680e6ab82810680d6abb20106b0c0408200620a801d9940707a8fe026804092004074e0b110408500002028804070104090400aa014e0b116811a05a10585a15505a16486815601211e05d11385d11305d11285d11200217204e0e115b17305b18385b19285b1a200c98080ca7070c87070f075d5f086004035f097804035f0a6804035f07700403688bfc248b08658a0b68bbff1cab0c24ab0a53c80a6878ff658a0a248a081b77017079096598082d082e040704080620ac0134940707200408500002028804070104094e0b11040704080620ae0118940f07da00000407400408200620b00107940707f304065000025f079800025f08a800025f099000025f0aa000029d7b9d870cb7080ca9099d990c98086a88200cb9096999200c98080f08bc02770408205a17180620b201bf930707ab5b17186576061a161f1a161e751a161d121a161c1a161b1a161a1a16191a16181a16171a16161a16151a16141a16131a16121a16111a16101a160f1a160e1a160d1a160c1a160b1a160a1a16091a16081a16071a16061a16051a16041a16031a16021a16011a060408200620b4014c93070738ff026804092004074e0b110408500002028804070104090400b6014e0b11681120ff5a10d8005a15d0005a16c8006815e0001211e05d11585d11505d11485d11400217404e0e115b17505b18585b19485b1a400c98080ca7070c87070f075d5f086004035f097804035f0a6804035f07700403688bfc248b08658a0b68bbff1cab0c24ab0a53c80a6878ff658a0a248a081b77017079096598082d082e040704080620b801a2920707200408500002028804070104094e0b11040704080620ba0186920f07800100021780004e5b1788005b188000011990005a17a8005a18a0000319b0000217a0000218604e015b17785a17285b17705a17305b17685a17385b16600407400408200620bc013a920707b85a162004065000025f079800025f08a800025f099000025f0aa000029d7b9d870cb7080ca9099d990c98086a88200cb9096999200c98080f087eff02770408205a17180620be01ee9107076cff5b17186576065b18289d8c5b18309d885b19389d995b1a209daa106a186aab38106b1f6aab30106b1e6aab28106b1d6aab20106b1c6aab18106b1b6aab10106b1a6aaa08106a191069106a9a38106a176a9a30106a166a9a28106a156a9a20106a146a9a18106a136a9a10106a126a99081069111068086a893810690f6a893010690e6a892810690d6a892010690c6a891810690b6a891010690a6a8808106809106c6ac8381068076ac8301068066ac8281068056ac8201068046ac8181068036ac8101068026acc08106c010408200620c0011491070792fe026804092004074e0b110408500002028804070104090400c2014e0b116811a05a10585a15505a16486815601211e05d11385d11305d11285d11200217204e0e115b17305b18385b19285b1a200c98080ca7070c87070f075d5f086004035f097804035f0a6804035f07700403688bfc248b08658a0b68bbff1cab0c24ab0a53c80a6878ff658a0a248a081b77017079096598082d082e040704080620c4016f900707200408500002028804070104094e0b11040704080620c60153900f07db00000407400408200620c80142900707f304065000025f079800025f08a800025f099000025f0aa000029d7b9d870cb7080ca9099d990c98086a88200cb9096999200c98080f08bc02770408205a17180620ca01fa8f0707ab5b17186576061a161f1a161e8d001a161d271a161c1a161b1a161a1a16191a16181a16171a16161a16151a16141a16131a16121a16111a16101a160f1a160e1a160d1a160c1a160b1a160a1a16091a16081a16071a16061a16051a16041a16031a16021a16011a060408200620cc01868f070737ff026804092004074e0b110408500002028804070104090400ce014e0b11681120ff5a10d8005a15d0005a16c8006815e0001211e05d11585d11505d11485d11400217404e0e115b17505b18585b19485b1a400c98080ca7070c87070f075d5f086004035f097804035f0a6804035f07700403688bfc248b08658a0b68bbff1cab0c24ab0a53c80a6878ff658a0a248a081b77017079096598082d082e040704080620d001dc8e0707200408500002028804070104094e0b11040704080620d201c08e0f079f01005d21b8005d21b0005d21a8005d21a000015d2198005d2190005d2188005d2180005d11705d11785d11685d116000010218a000021a8000021b600409ff04074e055b1798005a17285b1790005a17305b1788005a17385b1680000407400408200620d401558e0707995a162004065000025f079800025f08a800025f099000025f0aa000029d7b9d870cb7080ca9099d990c98086a88200cb9096999200c98080f085fff02770408205a17180620d601098e07074dff5b17186576065b18289d8c5b18309d885b19389d995b1a209daa106a186aab38106b1f6aab30106b1e6aab28106b1d6aab20106b1c6aab18106b1b6aab10106b1a6aaa08106a191069106a9a38106a176a9a30106a166a9a28106a156a9a20106a146a9a18106a136a9a10106a126a99081069111068086a893810690f6a893010690e6a892810690d6a892010690c6a891810690b6a891010690a6a8808106809106c6ac8381068076ac8301068066ac8281068056ac8201068046ac8181068036ac8101068026acc08106c010408200620d8012f8d070773fe026804092004074e0b110408500002028804070104090400da014e0b116811a05a10585a15505a16486815601211e05d11385d11305d11285d11200217204e0e115b17305b18385b19285b1a200c98080ca7070c87070f075d5f086004035f097804035f0a6804035f07700403688bfc248b08658a0b68bbff1cab0c24ab0a53c80a6878ff658a0a248a081b77017079096598082d082e040704080620dc018a8c0707200408500002028804070104094e0b11040704080620de016e8c0f07dc00000407400408200620e0015d8c0707f304065000025f079800025f08a800025f099000025f0aa000029d7b9d870cb7080ca9099d990c98086a88200cb9096999200c98080f08bc02770408205a17180620e201158c0707ab5b17186576061a161f80001a161e3a1a161d091a161c1a161b1a161a1a16191a16181a16171a16161a16151a16141a16131a16121a16111a16101a160f1a160e1a160d1a160c1a160b1a160a1a16091a16081a16071a16061a16051a16041a16031a16021a16011a060408200620e401a08b070736ff026804092004074e0b110408500002028804070104090400e6014e0b116811c0fb5a1038045a1530045a162804681540041211e05d21b8035d21b0035d21a8035d21a0030217a0030400e8014e0e115b17b0035b18b8035b19a8035b1aa0030c98080ca7070c870704065000020f07765a1678025f086004035f097804035f0a6804035f07700403688bfc248b08658a0c68ccff1cac0624ac0a53680a6878ff658a0a248a081b77017079096598083d8727a95487090ca80827c71bba401faa0154c70a54890a0f0a2d040704080620ea01c88a07071f0118780204070104094e0b11040704080620ec01af8a07070605283800040c6000035f077c00035f087400035f096c00035f066400030c790a0c860b0cba0a0f0a18010407400408200620ee01768a0707cd5b1678025b67485b68405b69505b6a589d7c9d829d9b9da90c2b070cc9080c78086a88200cc7076977200c87070f079d5a1258025a1c60025a1b68025a19700202970408205a1750020620f001248a07077bff5b1750026576061a161f1a161e1a161d1a161c1a161b1a161a1a16191a16181a16171a16161a16151a16141a16131a16121a16111a16101a160f1a160e1a160d1a160c1a160b1a160a1a16091a16081a16071a16061a16051a16041a1603a0001a1602791a1601c3001a06085b1770026878042478075b1a6802657a0924a90a53770a5b176002657a0a247a0b5b175802657b0b681780020620f201ebd8005b1888025b1298025b1380025b1a9002057e065f029c00035f039400035f0b8400035f048c00030c3b0c0c240a0cca0a0f0a1a010407400408200620f4014189070798fe5b1678025b67485b68405b69505b6a589d7c9d829d9b9da90c2b070cc9080c78086a88200cc7076977200c87070f0767fe5a1258025a1c60025a1b68025a19700202970408205a1750020620f601ed88070744fe5b1750026576061a161f1a161e1a161d1a161c1a161b1a161a1a16191a16181a16171a16161a16151a16141a16131a16121a16111a16101a160f1a160e1a160d1a160c1a160b1a160a1a16091a16081a16071a16061a16051a16041a1603a0001a1602791a1601c3001a06085b1770026878042478075b1a6802657a0924a90a53770a5b176002657a0a247a0b5b175802657b0b6817a0020620f80110da005b18a8025b12b8025b13a0025b1ab0020547059d6a9d969d889d775a1b70029d339d290c870b1bbb0124b60c70ca0270b6061b7a0170a80a6870ff399008719a0b65b80824b80b399a0c65cb0b71300c65c8085a18f00124c80839300c65c80865b80824b80b393a0c65cb0b713a0c65c8085a18600224c80865b8085a1858025b1770029d779d485a17400271070b3908075a172802657b0b718a0c65cb0b5a1b50025a13480271630b3996075a173802657b0b522771920465b4045a18680271080b5a197002719602652b0b242b0c5b1250025b19580265240865c8085a1720020c7a0c5a1630020c60070cc7075b1c600265bc0324c30b65980865b8065a13e8010707a5001c960724960854780b5b17280224720727a85b124002272c17c80839020c27cc0cc8085b196802399a0a27aa0ca8080c87075a1760025b1738022474045b182002278a5b174802277c17ca0a5b19700239980c27cc0cca0a5b13300239370c27cc0cca0a0c830927995b1768020c270c27cc17c9090c49080ca8085b1760020c87070cb70712770107071904082004070620fa01ad865b167802070700fc0546025b1770027170075a17e0015d2118045d2110045d2108045d210004025d21f8035d21f0035d21e8035d21e0035d21d0035d21d8035d21c8035d21c003000102180004021ae003021bc0030409ff04074e05115b14e0015b12e8015b17f8035b18e0035b19f0035b1ae8031c760b24760724920c54b70c52635b16f0011ca60724a60a248408547a081c92070cb707547c0807080a025b1070026540002440085b17480265670765870c1c6c07246c09528a54790a5b1b6802652b0b65ab0624b60a242b0b65ba0a1f88015b1b4002653b0b65ab0b24260a1f99015479081c3b07243b09537a091c260a0ca7071f990154790807083d015a13c0015d2118045d2110045d2108045d210004025d21f8035d21f0035d21e8035d21e0035d21d0035d21d8035d21c8035d21c003000102180004021ae0035a1bc801021bc0030409ff04075a10d8015a1cd0014e05115b13d0015b12d8015b17f8035b18e0035b19f0035b1ae8035b10c8011c700b24070724690c54b70c1ca307243a0a242808547a081c96070cb707547c08526407085a5d2118045d2110045d2108045d210004025d21f8035d21f0035d21e8035d21e0035d21d0035d21d8035d21c8035d21c003000102180004021ae003021bc0030409ff04074e055b10f8035b14f0035b13e8035b12e003115b17e0015a12d8012472075b1bf0011cb30924b3085a1960015a1770025397085b1ce80124c4095b16c0011c600224600a53290a1cc4075a1258015a1768020c270253280a070afe0104082004070620fc0168840707bff95b167802115d16185d16105d16085d064e487b710407040408200620fe01448407079bf9040700000011110367200d161c0d16180d16140d16100d160c0d16080d1604040824040706200002168407076df902680407010409244e0b1104074004082006200202fb83070752f95b1678025b67485b68405b69505b6a589d7c9d829d9b9da90c2b070cc9080c78086a88200cc7076977200c87070f0721f95a1258025a1c60025a1b68025a19700202970408205a17500206200402a7830707fef85b1750026576061a161f1a161e1a161d1a161c1a161b1a161a1a16191a16181a16171a16161a16151a16141a16131a16121a16111a16101a160f1a160e1a160d1a160c1a160b1a160a1a16091a16081a16071a16061a16051a16041a1603a0001a1602791a1601c3001a06085b1770026878042478075b1a6802657a0924a90a53770a5b176002657a0a247a0b5b175802657b0b681780030620060229d7005b1888035b1298035b1380035b1a9003115b1768021c780b24780c52705b14700224430953b90c5b176002707a0b247a0a5b17580270720770a70724cb0a70a70770cb0b7008087098080c87077043080cb8080c78080cb7076a88206977200c87070f07f9f71443085b1750025a187802062008028d820707e4f702680407015b19780204000a024e0b1170c40a708a0c248a0870600a659808708a0670b3085b1770027078090c6c071b980156780f083e040820040706200c02478207079ef75b1678025d16185d16105d16085d064e487b7104070404082006200e02248207077bf704070000004105e1fd5a1960025a1c70025a1250015a10c8015a14b8015a13d00104074004082006201002f38107074af75b17e0015b18d80170780b5b1970026a973b5a1658026968050c78025b1a60026aa73b6998050c78096ab73b69a8050c78085a1b500269b705687b205a179001247b0765780c5a189801248c045377046594045a19a0012494075a12a8016572025b1778025b78405b79485b73505b77589d8a5a1a40029d969d385a1838029d775a1730025a12526906201202d1895b1930025b1838025b1740020c87070c69080c78086a88205a1628020c67076977200c87070f0792f602960408205267062014022a81070781f65b1778025a16480165670a5b1750029d776a783810a81f6a783010a81e6a782810a81d6a782010a81c6a781810a81b6a781010a81a5b1860029d8810a7186a770810a7196a873810a7176a873010a7166a872810a7156a872010a7146a871810a7136a871010a7125b1770029d7910a8106a880810a8116a973810a70f6a973010a70e6a972810a70d6a972010a70c6a971810a70b6a971010a70a5b1758029d7710a9086a990810a9096a783810a8076a783010a8066a782810a8056a782010a8046a781810a8036a781010a8025b18e0015b19d8011c98085b1968020c98085b1960015b1b58010cb9090c980810a76a77085a1a400110a7010f084e085b17e0015b18d8012487075b18f0015b19d0012498085b1960015397085b17e8015b19b8012497075b19c0015b1ac80124a9095b1a580153a7095b1750015378090709e4025b1ce0015b13f0015b17e8015b19c001115a1c58025a1950025a1748025a17681760030408035a19080409040a040b5236523406201602ea915b1778035a1720025b1770035a1718025b1b68035b13e0015b1a5802243a025b10f0011c060824060c526953820c5b14e8015b17480270470670c6085a18700224c60c2447085b16c0015b1750027067067086065b18600370c6065a19f80170090c702c075a176802703a075a1760026817400352b95b1a18025b1b200206201802f53d5b1758035a1700025b1750035a1708025b1748035a1710025b1740035a1718025a1620025a1608681720035b1870025a185b1830025b1938025b1a28025b1b40025b1c60025b14680206201a0250d5005b1730035b1838035b1928035b1620030c98080c76090c89096a99200c87076977200c97070f0708f40266040820526706201c02a07eff0707f6f35b1778026576065b1700029d775b1808029d885b1910029d995b1a18029daa106a186aab38106b1f6aab30106b1e6aab28106b1d6aab20106b1c6aab18106b1b6aab10106b1a6aaa08106a191069106a9a38106a176a9a30106a166a9a28106a156a9a20106a146a9a18106a136a9a10106a126a99081069111068086a893810690f6a893010690e6a892810690d6a892010690c6a891810690b6a891010690a6a880810680910676a78381068076a78301068066a78281068056a78201068046a78181068036a78101068026a77081067015b1720025a1708681700035b1870025a185b1830025b1938025b1a28025b1b40025b1c60025b14680206201e0213d4005b1818035b1910035b1a08035b1700030ca8080c970a0c8a0a6aaa200c98086988200ca8080f08cbf2027704082006202002657dff0707bbf25b1c580268cc011bc7015b13f8016573030c3c071b77015b1848026587072487085b1950026589095b18d801248c085b1ad0011ca30b24a30a53b80a5b18b8012487025b1bc8011cb90624b90b53620b1c78080c6808538a0b0f0b35fd04074004082006202202f77cff07074df25b1a78025ba7485ba8405ba9505baa589d7b9d8c9d979da85a17385a1c280cc7075a18400cb8080c78086a88205a1b300cb7076977200c87070f0710f20117400408200406205a172006202402a37cff0707f9f15b1778025b182065870710761f1a171e1a171d1a171c1a171b1a171a1a17191a17181a17171a17161a17151a17141a17131a17121a17111a17101a170f1a170e1a170d1a170c1a170b1a170a1a17091a17081a17071a17061a17051a17041a17031a17021a17015a17181a070408205b17480106202602257cff0f07060578f15b1b3027b75b1c2827c853c7087607dfffffff000000005b19402497075b1a3827a953a7090ccb075478090709060547f15b1740010b78185a1870010b76190b781a5a1860010b781b5a1858010b781c5a1888010b781d5a1868010b781e5a1880010b781f5a1878010b78105a18b0010b78115a1890010b78125a18a0010b78135a1898010b78145a1870020b78155a18a8010b78165a1868020b78175a18b8010b78085a18e0010b78095a18c0010b780a5a18d0010b780b5a18c8010b780c5a18f8010b780d5a18d8010b780e5a18f0010b780f5a18e8010b785a1820020b78015a1800020b78025a1810020b78035a1808020b78045a1858020b78055a1818020b78065a1850020b77075a1748025b17200277200408205a17600206202802fb7aff0f0706054ef06966085b1770010c67075b1860016988105b1958016999180c98080c87075b1868016988085b1988010c98085b1980016999105b1a780169aa180ca9090c98086988200c78045b1890016988085b17b0010c78085b19a0016999105b1a980169aa180ca9090c98085b19a8016999085b1770020c79095b1a680269aa105b1bb80169bb180cba0a0ca9096999200c98089d8a5a1a80009d4b6ab93b69aa050ca9095b1740687c405a1b5869ba0565ca0b5a1b700224ab0b5a1c78247c005b123865020765790c65bc0a1c9a0c5a1a6802249a0353cb035b1bc00169bb085b19e0010c9b0b5b1cd00169cc105b16c8016966180c6c0c0ccb0b5b1cd80169cc085b19f8010c9c0c5b16f0016966105b1ae80169aa180c6a0a0cca0a69aa200cab0b5b1a000269aa085b1920020c9a0a5b1c100269cc105b1608026966180c6c0c0cca0a5b1c180269cc085b1958020c9c0c5b1650026966105b1948026999180c69090cc9096999200ca90c5b1678025b1960026596066ac9381069076ac9301069066ac9281069056ac9201069046ac9181069036ac9101069026ac9081069016ab93810690f6ab93010690e6ab92810690d6ab92010690c6ab91810690b6ab91010690a6ab9081069096a89381069176a89301069166a89281069156a89201069146a89181069136a89101069126a89081069116a493810691f6a493010691e6a492810691d6a492010691c6a491810691b6a491010691a6a4908106919106b08106c1068101064185a17702427095300099dc69db76a7a3b5a16506966050ca6025b1680006a663b5a17486977050c67075b163065960a246a095b16286596065a1a6865a7092479075a166065620a65a7070cc8080c4b0a0ca8086593035a1318022493096597075a1710020f0816085b1770025b1668025b1218025b141002115b104024070c52735b17381c7608247609538c095b1a3070a20824a20a5b1b2865ba0a70a40a24980b70ba0a70980865c7077076070ca7077003090c89090c79090c87076a99206977200c9707070706055aed5b17401473065b1720526806202a02ef77ff0f07060542ed011818040752694e0b115d2110025d2118025d2120025d2148025b1730026878205a1880012478075b1838026578095a1978012489085377085b1728026578085a1870012478075b1840026587075a176801760700000000010000005a1750027607e0ffffff000000005a1788011104074004082006202c026d77ff0f070605c0ec5b1778025b7a405b79485b78505b77585a1ab0019daa5a1a60025a19f8019d965a1800029d885a1870025a1708029d775a176802040b00015d015269040c040406202e02917fff5b1870025b1760020c87075b1968020c69080c78086a88205a1658020c67076977200c8707070706054eec0296040820526706203002e776ff0f0706053aec5b1778026567071a171f1a171e1a171d1a171c1a171b1a171a1a17191a17181a17171a17161a17151a17141a17131a17121a17111a17101a170f1a170e1a170d1a170c1a170b1a170a1a17091a17081a17071a17061a17051a17041a17031a17021a17015b1860025b1a58020c8a0a5b1888015b1968022489085b19700256985a1a600256a81a070f080605aceb5a1658020266200408205267062032024076ff0f07060593eb5b1778026576061a161f601a161e1a161d1a161c1a161b1a161a1a16191a16181a16171a16161a16151a16141a16131a16121a16111a16101a160f1a160e1a160d1a160c1a160b1a160a1a16091a16081a16071a16061a16051a16041a16031a16021a16015b1750026877c05b1868022478075b18700256875b18600256871a060f0706050ceb5b175802027640040820526706203402a075ff0f070605f3ea5b1778026576061a161f601a161e1a161d1a161c1a161b1a161a1a16191a16181a16171a16161a16151a16141a16131a16121a16111a16101a160f1a160e1a160d1a160c1a160b1a160a1a16091a16081a16071a16061a16051a16041a16031a16021a16015b1750026877a05b1868022478075b18700256875b18600256871a060f0706056cea5b1758020276600408205267062036020075ff0f07060553ea5b1778026576061a161f1a161e1a161d1a161c1a161b1a161a1a16191a16181a16171a16161a16151a16141a16131a16121a16111a16101a160f1a160e1a160d1a160c1a160b1a160a1a16091a16081a16071a16061a16051a16041a16031a16021a16015b1750026877805b1868022478075b18700256875b18600256871a060f070605cde95b175802027680000408205267062038026074ff0f070605b3e95b1778026576061a161f1a161e1a161d1a161c1a161b1a161a1a16191a16181a16171a16161a16151a16141a16131a16121a16111a16101a160f1a160e1a160d1a160c1a160b1a160a1a16091a16081a16071a16061a16051a16041a16031a16021a16015b175002687760ff5b1868022478075b18700256875b18600256871a060f0706052ce95b1758020276a000040820526706203a02bf73ff0f07060512e95b1778026576061a161f1a161e1a161d1a161c1a161b1a161a1a16191a16181a16171a16161a16151a16141a16131a16121a16111a16101a160f1a160e1a160d1a160c1a160b1a160a1a16091a16081a16071a16061a16051a16041a16031a16021a16015b175002687740ff5b1868022478075b18700256875b18600256871a060f0706058be85b1758020276c000040820526706203c021e73ff0f07060571e85b175002687720ff5b1868022478075b1878026586061a161f1a161e1a161d1a161c1a161b1a161a1a16191a16181a16171a16161a16151a16141a16131a16121a16111a16101a160f1a160e1a160d1a160c1a160b1a160a1a16091a16081a16071a16061a16051a16041a16031a16021a16015b18700256875b18600256871a060f070605eae75b1758020277e0000408205a17700206203e027b72ff0f070605cee75b1280015b1310026532072427085b1b78015b19180265b9096589091cb90a24b90b53a80b5b1a70015b18200265a80824a80a5b1c48025b166801656c0c65ca0a658b0b248b0865a8080c98080cb7070c87070cb8086a77206988200c87075b1878025b1670026586061a161f1a161e1a161d1a161c1a161b1a161a1a16191a16181a16171a16161a16151a16141a16131a16121a16111a16101a160f1a160e1a160d1a160c1a160b1a160a1a16091a16081a16071a16061a16051a16041a16031a16021a16011a0607070605ffe60832070408205a1770025236062040029371ff0f070605e6e66862202462095b17180265970324730a53990a5b17200265a70924790a5b1c480265ac0c5b17900124720b5b1798011c730824730a538b0a5b1ba00124b9065b17a8011c7c085a1c4802247c075386071c9b0b0c8b0b54b70a5b1778025b1670026576065b18b0016a87381067076a87301067066a87281067056a87201067046a87181067036a87101067026a870810670110685b18f8016a873810670f6a873010670e6a872810670d6a872010670c6a871810670b6a871010670a1068086a87081067095b1800026a87381067176a87301067166a87281067156a87201067146a87181067136a87101067121068106a87081067115b1808026a873810671f6a873010671e6a872810671d6a872010671c6a871810671b6a871010671a1068186a87081067195a1210025a1318025a1920020f0ae0f8052df05d21c000040304095d21b800760700000000010000005a1760027607e0ffffff000000005a17f8015b1a785b10705b1c685b1860115a19a0005a13b0000cca075a18a8005a1090000c80080c87076a77205a1c98000cc8086988200c87070707060548e55a1a880002a6040820526706204202dd6fff0f07060530e55b13785b1470022434005b17705b1a68021c7a0b247a0853b0085b1b685b19180270b90c708c02248c0824b90c5b1b605b19100270b90b70cb0b708b08707a0a700a0a7034095b1b780265b6069d996a9b38106b1f6a9b30106b1e6a9b28106b1d6a9b20106b1c6a9b18106b1b6a9b10106b1a9daa1069186a99081069196aa9381069176aa9301069166aa9281069156aa9201069146aa9181069136aa9101069129d889d27106a106aaa08106a111067086a793810690f6a793010690e6a792810690d6a792010690c6a791810690b6a791010690a6a77081067096a87381067076a87301067066a87281067056a87201067046a87181067036a87101067025b1740025b1928020c97075b1b30025b19f801249b095b1a380256a9567910686a88081068010f09060504e468b6205a16e8010266040820526706204402966eff0f070605e9e35b1778026576060b67190b68180b691a0b6a1b6977080c870769991069aa180ca9090c97070b681d0b691c0b6a1e0b6b1f6988080c980869aa1069bb180cba0a0ca8086988200c78020b68110b69100b6a120b6b136988080c980869aa1069bb180cba0a0ca8080b69150b6a140b6b160b6c176999080ca90969bb1069cc180ccb0b0cb9096999200c98080b69010b6a0b6b020b6c036999080ca90969bb1069cc180ccb0b0cb9090b6a050b6b040b6c060b670769aa080cba0a69cc106977180cc7070ca7076977200c79090b67090b6a080b6b0a0b6c0b6977080ca70769bb1069cc180ccb0b0cb7070b6a0d0b6b0c0b6c0e0b660f69aa080cba0a69cc106966180c6c0c0cca0a69aa200ca7079d7a9d999d879d265a1748025a1900020c97070ca6080c78086a88205a1a08020ca7076977200c870707070605ace202670408205a17580206204602436dff0f07060596e25a1620025b1970025b1a18020ca9075b1868025b1b10020cb8080c87076a77200ca8086988200c87075b1878020707060563e25b1758026587070b7a185a1a50010b76190b781a5a1840010b781b5a1838010b781c5a1868010b781d5a1848010b781e5a1860010b781f5a1858010b78105a1890010b78115a1870010b78125a1880010b78135a1878010b78145a18a8010b78155a1888010b78165a18a0010b78175a1898010b78085a18d0010b78095a18b0010b780a5a18c0010b780b5a18b8010b780c5a18f0010b780d5a18c8010b780e5a18e0010b770f5a17d80102970408205a175002062048024f6cff0f070605a2e16966085b1750010c67075b1840016988105b1938016999180c98080c87075b1848016988085b1968010c98085b1960016999105b1a580169aa180ca9090c98086988200c87075b1870016988085b1990010c98085b1980016999105b1a780169aa180ca9090c98085b1988016999085b1aa8010ca9095b1aa00169aa105b1b980169bb180cba0a0ca9096999200c89095b18b0016988085b1ad0010ca8085b1ac00169aa105b1bb80169bb180cba0a0ca8085b1ac80169aa085b1bf0010cba0a5b1be00169bb105b1cd80169cc180ccb0b0cba0a69aa200c8a0a5b1878025b1b500265b8086aab38108b0f6aab30108b0e6aab28108b0d6aaa20108a0c6a9a38108a176a9a30108a166a9a28108a156a9a20108a146a9a18108a136a9a10108a121089106a99081089116a793810891f6a793010891e6a792810891d6a792010891c6a791810891b6a791010891a1087186a77081087191a180b1a180a1a18091a18081a18071a18061a18051a18041a18031a18021a18015b1708025b1a00020c7a0a5b17f8015b1920022479075b19480256975a1a080256a71a080f07060500e05b175802027620040820526706204a02946aff0f070605e7df5b1718025b1910020c79095b17f8015b1870022478075b18680256875a19000256975b1850020f070605bbdf5b1778026567070b79185a1908010b76190b791a5a19f8000b791b5a19f0000b791c5a1920010b791d5a1900010b791e5a1918010b791f5a1910010b79105a1948010b79115a1928010b79125a1938010b79135a1930010b79145a1960010b79155a1940010b79165a1958010b79175a1950010b79085a1988010b79095a1968010b790a5a1978010b790b5a1970010b790c5a19a0010b790d5a1980010b790e5a1998010b790f5a1990010b795a19c8010b79015a19a8010b79025a19b8010b79035a19b0010b79045a19e0010b79055a19c0010b79065a19d8010b77075a17d0010287200408205a17f00106204c026f69ff0f070605c2de5b177002687c0001247c075b1868026578042484095377096966085b1708010c67075b18f8006988105b1af00069aa180ca8080c87075b1800016988085b1a20010ca8085b1a180169aa105b1b100169bb180cba0a0ca8086988200c78025b1828016988085b1748010c78085b1a380169aa105b1b300169bb180cba0a0ca8085b1a400169aa085b1760010c7a0a5b1b580169bb105b1650016966180c6b0b0cba0a69aa200c8a035b1a680169aa085b1788010c7a0a5b1b780169bb105b1670016966180c6b0b0cba0a5b1b800169bb085b17a0010c7b0b5b1698016966105b1790016977180c67070cb7076977200c7a0a5b17a8016977085b18c8010c87075b1bb80169bb105b16b0016966180c6b0b0cb7075b1bc00169bb085b18e0010c8b0b5b16d8016966105b18d0016988180c68080cb8086988200c780b5b1818026598065b1978025b17f0016579091a191f1a191e011a191d1a191c1a191b1a191a1a19191a19181a19171a19161a19151a19141a19131a19121a19111a19101a190f1a190e1a190d1a190c1a190b1a190a1a19091a19081a19071a19061a19051a19041a19031a19021a19011a092486075b1810026587079dbb9daa9d399d285a17086817e0025a1606204e02cb7aff5b1760026878c05b1720025a18e0012487075b18480256875b18080256870f070605cedc5b17f8025a17f0015b17f0025a17c8015b17e8025a17d8015b17e0025a17d0015b1758020276400408205267062050024267ff0f07060595dc5b1770025b18e0012487075b18680256875b18000256875b1850020f07060574dc5b1778026576060b67185a17f0000b67195a17d0000b671a5a17e0000b671b5a17d8000b671c5a1708010b671d5a17e8000b671e5a1700010b671f5a17f8000b67105a1730010b67115a1710010b67125a1720010b67135a1718010b67145a1748010b67155a1728010b67165a1740010b67175a1738010b67085a1770010b67095a1750010b670a5a1760010b670b5a1758010b670c5a1788010b670d5a1768010b670e5a1780010b670f5a1778010b675a17b0010b67015a1790010b67025a17a0010b67035a1798010b67045a17e0010b67055a17a8010b67065a17c0010b67075a17b8010287400408205a17c800062052022466ff0f07060577db5b1370025b1cd001243c095b1868025b14d8011c840724840a53790a5b1b18025b10c80170b00770a70224a70724b00a5b1b10025b16f00170b60b70ab0b707b0770840a709a095b1678025b18c800658606703c0a9daa6aab38106b1f6aab30106b1e6aab28106b1d6aab20106b1c6aab18106b1b6aab10106b1a106a186aaa08106a199d996a9a38106a176a9a30106a166a9a28106a156a9a20106a146a9a18106a136a9a10106a121069106a99081069119d286a893810690f6a893010690e6a892810690d6a892010690c6a891810690b6a891010690a1068086a88081068099d776a78381068076a78301068066a78281068056a78201068046a78181068036a781010680210676a77081067015b17d0006977085b18f0000c87075b18e0006988105b19d8006999180c98080c87075b18e8006988085b1908010c98085b1900016999105b1af80069aa180ca9090c98086988200c78025b1810016988085b1730010c78085b1920016999105b1a180169aa180ca9090c98085b1928016999085b1748010c79095b1a400169aa105b1b380169bb180cba0a0ca9096999200c98085b1950016999085b1770010c79095b1a600169aa105b1b580169bb180cba0a0ca9095b1a680169aa085b1788010c7a0a5b1680016966105b1b780169bb180c6b0b0cba0a69aa200ca9095b1a900169aa085b17b0010c7a0a5b16a0016966105b1b980169bb180c6b0b0cba0a5b1ba80169bb085b17e0010c7b0b5b17c0016977105b16b8016966180c67070c7b0b69bb200cba0a9dab9d9a9d899d285b17f0015a17086817c0025a1006205402fc76ff5b1760026877a05b1820022478075b18480256875b18080256870f07060503d95b17d8025a17d8005b17d0025a17d0005b17c8025a17e0005b17c0025a17e8005b1758020276600408205267062056027763ff0f070605cad85b17180227775b18100227895387095b17600268779f5b1870022487075b186802278a5a1a1002548a075b1800025a1918025489075b185002070706058bd85b1778026567070b79185a1908010b76190b791a5a19f8000b791b5a19f0000b791c5a1920010b791d5a1900010b791e5a1918010b791f5a1910010b79105a1948010b79115a1928010b79125a1938010b79135a1930010b79145a1960010b79155a1940010b79165a1958010b79175a1950010b79085a1988010b79095a1968010b790a5a1978010b790b5a1970010b790c5a19a0010b790d5a1980010b790e5a1998010b790f5a1990010b795a19c8010b79015a19a8010b79025a19b8010b79035a19b0010b79045a19e0010b79055a19c0010b79065a19d8010b77075a17d0010287600408205a17f001062058023f62ff0f07060592d76966085b1708010c67075b18f8006988105b19f0006999180c98080c87075b1800016988085b1920010c98085b1918016999105b1a100169aa180ca9090c98086988200c87075b1828016988085b1948010c98085b1938016999105b1a300169aa180ca9090c98085b1940016999085b1a60010ca9095b1a580169aa105b1b500169bb180cba0a0ca9096999200c98085b1968016999085b1a88010ca9095b1a780169aa105b1b700169bb180cba0a0ca9095b1a800169aa085b1ba0010cba0a5b1b980169bb105b1c900169cc180ccb0b0cba0a69aa200ca9095b1aa80169aa085b1bc8010cba0a5b1bb80169bb105b1cb00169cc180ccb0b0cba0a5b1bc00169bb085b1ce0010ccb0b5b1cd80169cc105b16d0016966180c6c0c0ccb0b69bb200cba0a5b1678025b1bf00165b6066aab38106b076aab30106b066aab28106b056aab20106b046aab18106b036aab10106b026aab08106b01106a6a9a38106a0f6a9a30106a0e6a9a28106a0d6a9a20106a0c6a9a18106a0b6a9a10106a0a1069086a99081069096a89381069176a89301069166a89281069156a89201069146a89181069136a89101069121068101067186a88081068116a783810681f6a783010681e6a782810681d6a782010681c6a781810681b6a781010681a6a77085b1860026888805b1920022489085b19480256985b19080256981067190f08060590d55b17580202768000040820526706205a022360ff0f07060576d55b17600268777fff5b1870022487075b1868025b1910025489075b1800025b1918025489075b1850020707060547d55b1778026567070b79185a1908010b76190b791a5a19f8000b791b5a19f0000b791c5a1920010b791d5a1900010b791e5a1918010b791f5a1910010b79105a1948010b79115a1928010b79125a1938010b79135a1930010b79145a1960010b79155a1940010b79165a1958010b79175a1950010b79085a1988010b79095a1968010b790a5a1978010b790b5a1970010b790c5a19a0010b790d5a1980010b790e5a1998010b790f5a1990010b795a19c8010b79015a19a8010b79025a19b8010b79035a19b0010b79045a19e0010b79055a19c0010b79065a19d8010b77075a17d001028780000408205a17f00106205c02fa5eff0f0706054dd46966085b1708010c67075b18f8006988105b19f0006999180c98080c87075b1800016988085b1920010c98085b1918016999105b1a100169aa180ca9090c98086988200c87075b1828016988085b1948010c98085b1938016999105b1a300169aa180ca9090c98085b1940016999085b1a60010ca9095b1a580169aa105b1b500169bb180cba0a0ca9096999200c98085b1968016999085b1a88010ca9095b1a780169aa105b1b700169bb180cba0a0ca9095b1a800169aa085b1ba0010cba0a5b1b980169bb105b1c900169cc180ccb0b0cba0a69aa200ca9095b1aa80169aa085b1bc8010cba0a5b1bb80169bb105b1cb00169cc180ccb0b0cba0a5b1bc00169bb085b1ce0010ccb0b5b1cd80169cc105b16d0016966180c6c0c0ccb0b69bb200cba0a5b1678025b1bf00165b6066aab38106b076aab30106b066aab28106b056aab20106b046aab18106b036aab10106b026aab08106b01106a6a9a38106a0f6a9a30106a0e6a9a28106a0d6a9a20106a0c6a9a18106a0b6a9a10106a0a1069086a99081069096a89381069176a89301069166a89281069156a89201069146a89181069136a89101069121068101067186a88081068116a783810681f6a783010681e6a782810681d6a782010681c6a781810681b6a781010681a6a77085b186002688860ff5b1920022489085b19480256985b19080256981067190f0806054ad25b1758020276a000040820526706205e02dd5cff0f07060530d25b17600268775fff5b1870022487075b1868025b1910025489075b1800025b1918025489075b1850020707060501d25b1778026567070b79185a1908010b76190b791a5a19f8000b791b5a19f0000b791c5a1920010b791d5a1900010b791e5a1918010b791f5a1910010b79105a1948010b79115a1928010b79125a1938010b79135a1930010b79145a1960010b79155a1940010b79165a1958010b79175a1950010b79085a1988010b79095a1968010b790a5a1978010b790b5a1970010b790c5a19a0010b790d5a1980010b790e5a1998010b790f5a1990010b795a19c8010b79015a19a8010b79025a19b8010b79035a19b0010b79045a19e0010b79055a19c0010b79065a19d8010b77075a17d0010287a0000408205a17f00106206002b45bff0f07060507d16966085b1708010c67075b18f8006988105b19f0006999180c98080c87075b1800016988085b1920010c98085b1918016999105b1a100169aa180ca9090c98086988200c87075b1828016988085b1948010c98085b1938016999105b1a300169aa180ca9090c98085b1940016999085b1a60010ca9095b1a580169aa105b1b500169bb180cba0a0ca9096999200c98085b1968016999085b1a88010ca9095b1a780169aa105b1b700169bb180cba0a0ca9095b1a800169aa085b1ba0010cba0a5b1b980169bb105b1c900169cc180ccb0b0cba0a69aa200ca9095b1aa80169aa085b1bc8010cba0a5b1bb80169bb105b1cb00169cc180ccb0b0cba0a5b1bc00169bb085b1ce0010ccb0b5b1cd80169cc105b16d0016966180c6c0c0ccb0b69bb200cba0a5b1678025b1bf00165b6066aab38106b076aab30106b066aab28106b056aab20106b046aab18106b036aab10106b026aab08106b01106a6a9a38106a0f6a9a30106a0e6a9a28106a0d6a9a20106a0c6a9a18106a0b6a9a10106a0a1069086a99081069096a89381069176a89301069166a89281069156a89201069146a89181069136a89101069121068101067186a88081068116a783810681f6a783010681e6a782810681d6a782010681c6a781810681b6a781010681a6a77085b186002688840ff5b1920022489085b19480256985b19080256981067190f08060504cf5b1758020276c0000408205267062062029759ff0f070605eace5b17600268773fff5b1870022487075b1868025b1910025489075b1800025b1918025489075b18500207070605bbce5b1778026567070b79185a1908010b76190b791a5a19f8000b791b5a19f0000b791c5a1920010b791d5a1900010b791e5a1918010b791f5a1910010b79105a1948010b79115a1928010b79125a1938010b79135a1930010b79145a1960010b79155a1940010b79165a1958010b79175a1950010b79085a1988010b79095a1968010b790a5a1978010b790b5a1970010b790c5a19a0010b790d5a1980010b790e5a1998010b790f5a1990010b795a19c8010b79015a19a8010b79025a19b8010b79035a19b0010b79045a19e0010b79055a19c0010b79065a19d8010b77075a17d0010287c0000408205a17f001062064026e58ff0f070605c1cd6966085b1708010c67075b18f8006988105b19f0006999180c98080c87075b1800016988085b1920010c98085b1918016999105b1a100169aa180ca9090c98086988200c87075b1828016988085b1948010c98085b1938016999105b1a300169aa180ca9090c98085b1940016999085b1a60010ca9095b1a580169aa105b1b500169bb180cba0a0ca9096999200c98085b1968016999085b1a88010ca9095b1a780169aa105b1b700169bb180cba0a0ca9095b1a800169aa085b1ba0010cba0a5b1b980169bb105b1c900169cc180ccb0b0cba0a69aa200ca9095b1aa80169aa085b1bc8010cba0a5b1bb80169bb105b1cb00169cc180ccb0b0cba0a5b1bc00169bb085b1ce0010ccb0b5b1cd80169cc105b16d0016966180c6c0c0ccb0b69bb200cba0a0ca8080c97070c870727775b1678025b18f00165860610671f5b176002687720ff5b1820022478075b18480256875b18080256871a161e1a161d1a161c1a161b1a161a1a16191a16181a16171a16161a16151a16141a16131a16121a16111a16101a160f1a160e1a160d1a160c1a160b1a160a1a16091a16081a16071a16061a16051a16041a16031a16021a16011a060f07060507cc5b1758020276e0000408205267062066029a56ff0f070605edcb5b17600268771fff5b1870022487075b1868025b1910025489075b1800025b1918025489075b18500207070605becb5b1778026567070b79185a1950010b76190b791a5a1940010b791b5a1938010b791c5a1968010b791d5a1948010b791e5a1960010b791f5a1958010b79105a1990010b79115a1970010b79125a1980010b79135a1978010b79145a19a8010b79155a1988010b79165a19a0010b79175a1998010b79085a19d0010b79095a19b0010b790a5a19c0010b790b5a19b8010b790c5a19f0010b790d5a19c8010b790e5a19e0010b790f5a19d8010b795a1920020b79015a1900020b79025a1910020b79035a1908020b79045a1968020b79055a1918020b79065a1958020b77075a1748020287e0000408205a177002062068027155ff5b12c0005b13b0005b14b8000f070605b8ca5b1730025b18e8012478085b1738026587095a1950022479095388095b1728026579095a1930012479095b1740026597075a1740026966085b1950010c69095b1a400169aa105b1b380169bb180cba0a0ca9095b1a480169aa085b1768010c7a0a5b1b600169bb105b1c580169cc180ccb0b0cba0a69aa200ca9095b1a700169aa085b1790010c7a0a5b1b800169bb105b1c780169cc180ccb0b0cba0a5b1b880169bb085b17a8010c7b0b5b1ca00169cc105b1698016966180c6c0c0ccb0b69bb200cba0a5b1bb00169bb085b17d0010c7b0b5b1cc00169cc105b16b8016966180c6c0c0ccb0b5b1cc80169cc085b17f0010c7c0c5b16e0016966105b17d8016977180c67070cc7076977200c7b0b5b1700026977085b1820020c87075b1c100269cc105b1608026966180c6c0c0cc7075b1c180269cc085b1868020c8c0c5b1658026966105b1848026988180c68080cc8086988200c87075b1678025b1870026586066a78381068076a78301068066a78281068056a78201068046a78181068036a78101068026a780810680110676ab73810670f6ab73010670e6ab72810670d6ab72010670c6ab71810670b6ab71010670a106b08106a106abb08106b091069186aa7381067176aa7301067166aa7281067156aa7201067146aa7181067136aa7101067126aaa08106a116a973810671f6a973010671e6a972810671d6a972010671c6a971810671b6a971010671a6a99081069195b1788006878205a1858022478075b18900065780024800c53770c6822011b27016573030c32071b77015b18a0006587072487086584045b18585a12c0002482085b1980001c930b24930653b8065b184824870a5b1b501cb4095a14b80024b40b539a0b1c78080c98085b199800659c0c249c0953860b5b18a80065980852795b17e8015a1730025b1750025a1738025b1730015a1728025b17e8005a1770025b16e0005a1668025b12d0005a1218025b1a58025b14d8005a141002070b38da056ae20268040701040904006a024e0b116811f85a100407040806206c026752ff0f07040004085000020288040701040904006e024e0b116811a05a10585a15505a164852b6528b5a19400c69080cab090c89096a99205a1a300ca8086988200c98085a17200f082a0202b504082052575a1b38062070020d52ff0707150204075000025a17286557071a171f201a171e1a171d1a171c1a171b1a171a1a17191a17181a17171a17161a17151a17141a17131a17121a17111a17101a170f1a170e1a170d1a170c1a170b1a170a1a17091a17081a17071a17061a17051a17041a17031a17021a17015b1a3027a8526927665398067608dfffffff000000005b1b3824b8085b1b4027bc5a1c1854bc085a19080ca9095a19105496081a070f0873015a150255200408205257062072025651ff07075e015b17286575051a151f171a151e1a151d1a151c1a151b1a151a1a15191a15181a15171a15161a15151a15141a15131a15121a15111a15101a150f1a150e1a150d1a150c1a150b1a150a1a15091a15081a15071a15061a15051a15041a15031a15021a15017607bfffffff000000005b18382487075b18405b19185489075b18105486071a050f07d5005b17027640040820040520526706207402b550ff0707bd005b17286576061a1613781a1609641a161f1a161e1a161d1a161c1a161b1a161a1a16191a16181a161710651110650d1065081a160e6e1a16076e1a160f6f1a160a6f1a16066f1a1614691a1605691a1616741a1610741a1604741a1615731a160c731a1603731a1612651a160b651a1602651a1601751a06515b18386887602487085b1a40658a0924a90a53880a5b1830658a0a248a085b1b0865b8085b1b205ab75ab9085aba105ab8185b10585b15505b16486811601300006811905a10685a15605a16586815701211f00408317731770707146851905b10685b15605b1658681170130004074004082006207602be4fff0707680104065000025f079800025f089000025f09a000025f0aa800029d7b9d8c9d979da85a17205a1c100cc7075a18280cb8080c78086a88205a1b180cb7076977200c87070f0722010117280408205a170806207802644fff07070e015b17086576061a161f1a161e1a161d1a161c1a161b1a161a1a16191a16181a16171a16161a16151a16141a16131a16121a16111a16101a160f1a160e1a160d1a160c1a160b1a160a1a16091a16081a16071a16061a16051a16041a1603a0001a1602791a1601c3001a06085b17286878042478075b1a20657a0924a90a53770a5b1718657a0a247a0b5b1710657b0b68173006207a027efc5b18385b12485b13305b1a405b17201c780b24780c52705b142824430953b90c5b1718707a0b247a0a5b171070720770a70724cb0a70a70770cb0b7008087098080c87077043080cb8080c78080cb7076a88206977200c87070f07195b17281473085b17085a182806207c02594eff0f07040002680407015b192804007e024e0b116811a05a10585a15505a164852b6528b5a19400c69080cab090c89096a99205a1a300ca8086988200c98085a17200f082d0202b504082052575a1b3806208002034eff0707180204075000025a17286557071a171f201a171e1a171d1a171c1a171b1a171a1a17191a17181a17171a17161a17151a17141a17131a17121a17111a17101a170f1a170e1a170d1a170c1a170b1a170a1a17091a17081a17071a17061a17051a17041a17031a17021a17015b1a3027a8526927665398067608dfffffff000000005b1b3824b8085b1b4027bc5a1c1854bc085a19080ca9095a19105496081a070f0876015a150255200408205257062082024c4dff070761015b17286575051a151f1a1a151e1a151d1a151c1a151b1a151a1a15191a15181a15171a15161a15151a15141a15131a15121a15111a15101a150f1a150e1a150d1a150c1a150b1a150a1a15091a15081a15071a15061a15051a15041a15031a15021a15017607bfffffff000000005b18382487075b18405b19185489075b18105486071a050f07d8005b17027640040820040520526706208402ab4cff0707c0005b17286576061a1614631a1612791a1619641a1611641a160e721a16156c1a160d6c1a1610611a160c611a161f1a161e1a161d1a161c1a161b1a161a10651310650b1065081a16076e1a16166f1a16066f1a1609691a1605691a1604741a1617731a160a731a1603731a1618651a160f651a1602651a1601751a06515b18386887602487085b1a40658a0924a90a53880a5b1830658a0a248a085b1b0865b8085b1b205ab75ab9085aba105ab8185b10585b15505b16486811601300006811905a10685a15605a16586815701211f00408317731770707146851905b10685b15605b1658681170130004074004082006208602b14bff0707680104065000025f079800025f089000025f09a000025f0aa800029d7b9d8c9d979da85a17205a1c100cc7075a18280cb8080c78086a88205a1b180cb7076977200c87070f0722010117280408205a170806208802574bff07070e015b17086576061a161f1a161e1a161d1a161c1a161b1a161a1a16191a16181a16171a16161a16151a16141a16131a16121a16111a16101a160f1a160e1a160d1a160c1a160b1a160a1a16091a16081a16071a16061a16051a16041a1603a0001a1602791a1601c3001a06085b17286878042478075b1a20657a0924a90a53770a5b1718657a0a247a0b5b1710657b0b68173006208a027bfc5b18385b12485b13305b1a405b17201c780b24780c52705b142824430953b90c5b1718707a0b247a0a5b171070720770a70724cb0a70a70770cb0b7008087098080c87077043080cb8080c78080cb7076a88206977200c87070f07195b17281473085b17085a182806208c024c4aff0f07040002680407015b192804008e024e0b116811a05a10585a15505a164852b6528b5a19400c69080cab090c89096a99205a1a300ca8086988200c98085a17200f082f0202b504082052575a1b3806209002f649ff07071a0204075000025a17286557071a171f201a171e1a171d1a171c1a171b1a171a1a17191a17181a17171a17161a17151a17141a17131a17121a17111a17101a170f1a170e1a170d1a170c1a170b1a170a1a17091a17081a17071a17061a17051a17041a17031a17021a17015b1a3027a8526927665398067608dfffffff000000005b1b3824b8085b1b4027bc5a1c1854bc085a19080ca9095a19105496081a070f0878015a150255200408205257062092023f49ff070763015b17286575051a151f1d1a151e1a151d1a151c1a151b1a151a1a15191a15181a15171a15161a15151a15141a15131a15121a15111a15101a150f1a150e1a150d1a150c1a150b1a150a1a15091a15081a15071a15061a15051a15041a15031a15021a15017607bfffffff000000005b18382487075b18405b19185489075b18105486071a050f07da005b170276400408200405205267062094029e48ff0707c2005b17286576061a161a691a1619741a1616751a1615711a161b6f1a16116f1a160f631a160b631a1609721a1617651a1613651a1608651a16076b1a1618731a1612731a1606731a160c611a1605611a161f1a161e1a161d10651410650e10650a1065041a1603791a16106c1a16026c1a161c6e1a160d6e1a16016e1a064f5b18386887602487085b1a40658a0924a90a53880a5b1830658a0a248a085b1b0865b8085b1b205ab75ab9085aba105ab8185b10585b15505b16486811601300006811105b67b8005a67785b67b0005a67705b67a8005a67685b67a0005a67600267c0004e035b67c8005b68c0000169d0009d776a7a209d88698b200cba0a5a6a406977209d996a99200c97075a67386a88205a68305b67785a6778015b67705a6770015b67685a6768015b67605a6760015d2658015d2650015d2648015d2640015d2630015d2638015d2628015d262001000102686001026a4001026b20010409ff04074e0511636750015b6840015b6948015b6a301ca7075b6a381ca8080c87075b68401c98080c87070f0744045b575a67405b67606879065a69382479075b686865780a5a6a30248a085377085b677065870b5a6b28247b075b68786587075a67205a6940015a6a48015a6b50015a6758015d2638015d2630015d2628015d2620015d2610015d2618015d2608015d260001000102684001026a2001026b00010409ff04074e055b6720015b6828015b6930015b6a3801127700ff3177015b6b205a6b78015b6b285a6b70015b6b305a6b68015b6b385a6b60015a6af8005a69f0005a68e8005a67e00002686001026ae0000409ff040b2004074e0d5b676068780724780752895a68385b686865780a5a6a60248a085377085b677065870b5a6b68247b075b68786587075a67785a6758015a6b50015a6a48015a6940015d2638015d2630015d2628015d2620015d2610015d2618015d2608015d260001000102684001026a2001026b00010409ff04074e055b67785a6778015b67685a6770015b67605a6768015b67385a6760015b67405a67f8005b67485a67f0005b67505a67e8005b67585a67e00002686001026ae0000409ff040b2004074e0d040740040820062098026f45ff07072604040a5000025f079800025f089000025f09a000025a6a705f0aa800029d7b9d879d989da95a67605a68380c87070cb9080c78086a88205a6b680cb7076977200c87070f07e0035a693002970408205a677806209a021345ff0707ca037607dfffffff000000005b68302487085b693827975398075b6a6827a85b6b6027b953b8090cba085489075b68785b697065890a5b689d886a893810a91f6a893010a91e6a892810a91d6a892010a91c6a891810a91b6a891010a91a5b69089d9910a8186a880810a8196a983810a8176a983010a8166a982810a8156a982010a8146a981810a8136a981010a8125b68109d8810a9106a990810a9116a893810a90f6a893010a90e6a892810a90d6a892010a90c6a891810a90b6a891010a90a5b69189d9910a8086a880810a8096a983810a8076a983010a8066a982810a8056a982010a8046a981810a8036a981010a80210a96a99085a6a6810a9010f07c9025b67780277200408205a676006209c02fb43ff0707b2025b67705b68606587075b68409d885b69489d995b6a509daa5b6b589dbb107b186abc38107c1f6abc30107c1e6abc28107c1d6abc20107c1c6abc18107c1b6abc10107c1a6abb08107b19107a106aab38107b176aab30107b166aab28107b156aab20107b146aab18107b136aab10107b126aaa08107a111079086a9a38107a0f6a9a30107a0e6a9a28107a0d6a9a20107a0c6a9a18107a0b6a9a10107a0a6a990810790910786a89381079076a89301079066a89281079056a89201079046a89181079036a89101079026a88081078010408405b677806209e021a43ff0707d1016817e01277e052715f080000025f090800025f0a1000025f0b1800025a78185a79105a7a085a7b0169680277040801040a404e04685160fe5b1098015b1590015b1688016811a00113000407400408200620a002bf42ff07077601040a5000025f079800025f089000025f09a000025a6a585f0aa800029d7b9d8c9d979da85a67705a6c600cc7075a68780cb8080c78086a88205a6b680cb7076977200c87070f072d010167780408205a67500620a2026242ff070719015b67505b68586578081a181f1a181e1a181d1a181c1a181b1a181a1a18191a18181a18171a18161a18151a18141a18131a18121a18111a18101a180f1a180e1a180d1a180c1a180b1a180a1a18091a18081a18071a18061a18051a18041a1803a0001a1802791a1801c3005a68581a08085b67786878042478075b6a70657a0924a90a53770a5b6768657a0a247a0b5b6760657b0b686780000620a4028cf75b6888005b6298005b6380005b6a90005b67701c780b24780c52705b647824430953b90c5b6768707a0b247a0a5b676070720770a70724cb0a70a70770cb0b7008087098080c87077043080cb8080c78080cb7076a88206977200c87070f07195b67781473085b67505a68780620a6024c41ff0f0704000168580407015b69780400a8024e0b11681180fe5a1078015a1570015a166801681580011211e05a1ba0005a1a98005a1990005a1888005a17100407400408200620aa020141ff07070d0d040a5000025f079000025f089800025f09a000025a1ab8005f0ba800029d7a5a1a609d869d985a18b0009db75a17a8005d01040b00015269040c04040620ac022b49ff5b17a0005a1758015b1798005a1750015b1790005a1748015b1788005a1740015d2138015d2130015d2128015d2120015d2110015d2118015d2108015d210001000102184001021a2001021b00010409ff04074e05115b19a8005b18b0005b17600c87070c69080c78086a88205a16580c67076977200c87070f074d0c631730015a17685b1728015a17705b1720015a1778029604082052670620ae021a40ff0707260c5a1680005b17b8006567075b18689d885b19709d995b1a789daa107a181a170b1a170a1a17091a17071a17061a17051a17041a17031a17021a17011a076aab38107b1f6aab30107b1e6aab28107b1d6aab20107b1c6aab18107b1b6aab10107b1a6aaa08107a191079106a9a38107a176a9a30107a166a9a28107a156a9a20107a146a9a18107a136a9a10107a126a99081079111078086a893810790f6a893010790e6a892810790d6a882010780c0407400408200620b0025a3fff0707660b5b1888006888011b89015b1790006579090c98071b7a015b179800657a0a247a0b5b17a000657b0b5b17b8005b73585b7c505b76485b72405a13489d335a1c409dc45a14505a16389d6c5a1c705a12309d275a17785a17086817e0005a1c5236523c0620b202a3765b17e8005b14f8005b13e0005b1af0005b12501c270b24270c24630053b00c5b1970709a0b70cb085a186824cb0b249a085b1a7870a40c708c0c70bc0870270770070c70630b52675a1852285b14680620b4020947ff5b185827875b1960279b53970b7607dfffffff000000005b1aa80024a7075b1ab00027ac5a1c7054ac070c98085a1b785a1868548b070f076e0a5b17800002762004082052670620b6024b3eff0707570a5b17b8006576065b18381068085b19306a97381067076a97301067066a97281067056a97201067046a97181067036a97101067026a970810670110695b19401069106a873810670f6a873010670e6a872810670d6a872010670c6a871810670b6a871010670a6a87081067095b18481068186a97381067176a97301067166a97281067156a97201067146a97181067136a97101067126a97081067116a873810671f6a873010671e6a872810671d6a872010671c6a871810671b6a871010671a6a87081067190407400408200620b802743dff070780095b1788006878022478075b1a9000657a0924a90a53770a5b179800657a0a247a0b5b17a000657b0b5b17b8005b73585b7c505b76485b72405a13309d335a1c289dc45a14385a16209d6c5a1c485a12189d275a17505a17086817c0005a1c5236523c0620ba02bd745b17c8005b14d8005b13c0005b1ad0005b12381c270b24270c24630053b00c5b1948709a0b70cb085a184024cb0b249a085b1a5070a40c708c0c70bc0870270770070c70630b52675a1852285b14400620bc022345ff7607bfffffff000000005b18a8002487075b18b0005b19705489075b18785b19685498070f079a085b17800002764004082052670620be02773cff070783085b17b8006576065b18201068085b19186a97381067076a97301067066a97281067056a97201067046a97181067036a97101067026a970810670110695b19281069106a873810670f6a873010670e6a872810670d6a872010670c6a871810670b6a871010670a6a87081067095b18301068186a97381067176a97301067166a97281067156a97201067146a97181067136a97101067126a97081067116a873810671f6a873010671e6a872810671d6a872010671c6a871810671b6a871010671a6a87081067195b1888006887032487085b1a9000658a0924a90a53880a5b189800658a0a248a085b1ba00065b8085a1a50015a1948015a1740015a1858015d2138015d2130015d2128015d2120015d2110015d2118015d2108015d210001000102184001021a2001021b00010409ff04074e051176079fffffff000000005b18a8002487075b18b0005b19705489075b18785b19685498070f0727075b1738015a17385b1730015a17405b1728015a17485b1720015a17505b17800002766004082052670620c002e83aff0707f4065b17b8006576065b17389d775b18409d885b19489d995b1a509daa106a186aab38106b1f6aab30106b1e6aab28106b1d6aab20106b1c6aab18106b1b6aab10106b1a6aaa08106a191069106a9a38106a176a9a30106a166a9a28106a156a9a20106a146a9a18106a136a9a10106a126a99081069111068086a893810690f6a893010690e6a892810690d6a892010690c6a891810690b6a891010690a6a880810680910676a78381068076a78301068066a78281068056a78201068046a78181068036a78101068026a77081067015b1888006887042487085b1a9000658a0924a90a53880a5b189800658a0a248a085b1ba00065b8085a1a50015a1948015a1740015a1858015d2138015d2130015d2128015d2120015d2110015d2118015d2108015d210001000102184001021a2001021b00010409ff04074e051176077fffffff000000005b18a8002487075b18b0005b19705489075b18785b19685498070f0790055b1738015a17385b1730015a17405b1728015a17485b1720015a17505b1780000276800004082052670620c2025039ff07075c055b17b8006576065b17389d775b18409d885b19489d995b1a509daa106a186aab38106b1f6aab30106b1e6aab28106b1d6aab20106b1c6aab18106b1b6aab10106b1a6aaa08106a191069106a9a38106a176a9a30106a166a9a28106a156a9a20106a146a9a18106a136a9a10106a126a99081069111068086a893810690f6a893010690e6a892810690d6a892010690c6a891810690b6a891010690a6a880810680910676a78381068076a78301068066a78281068056a78201068046a78181068036a78101068026a77081067015b1888006887052487085b1a9000658a0924a90a53880a5b189800658a0a248a085b1ba00065b8085a1a50015a1948015a1740015a1858015d2138015d2130015d2128015d2120015d2110015d2118015d2108015d210001000102184001021a2001021b00010409ff04074e051176075fffffff000000005b18a8002487075b18b0005b19705489075b18785b19685498070f07f8035b1738015a17385b1730015a17405b1728015a17485b1720015a17505b1780000276a00004082052670620c402b837ff0707c4035b17b8006576065b17389d775b18409d885b19489d995b1a509daa106a186aab38106b1f6aab30106b1e6aab28106b1d6aab20106b1c6aab18106b1b6aab10106b1a6aaa08106a191069106a9a38106a176a9a30106a166a9a28106a156a9a20106a146a9a18106a136a9a10106a126a99081069111068086a893810690f6a893010690e6a892810690d6a892010690c6a891810690b6a891010690a6a880810680910676a78381068076a78301068066a78281068056a78201068046a78181068036a78101068026a77081067015b1888006887062487085b1a9000658a0924a90a53880a5b189800658a0a248a085b1ba00065b8085a1a50015a1948015a1740015a1858015d2138015d2130015d2128015d2120015d2110015d2118015d2108015d210001000102184001021a2001021b00010409ff04074e051176073fffffff000000005b18a8002487075b18b0005b19705489075b18785b19685498070f0760020b1720015a17505b1780000276c00004082052670620c6023536ff070741025b175027775b18b80065860610671f1a161e1a161d1a161c1a161b1a161a1a16191a16181a16171a16161a16151a16141a16131a16121a16111a16101a160f1a160e1a160d1a160c1a160b1a160a1a16091a16081a16071a16061a16051a16041a16031a16021a16011a065b1888006887072487085b1a9000658a0924a90a53880a5b189800658a0a248a085b1ba00065b8085a1948015a1740015a1a50015a1858015d2138015d2130015d2128015d2120015d2110015d2118015d2108015d210001000102184001021a2001021b00010409ff04074e051176071fffffff000000005b18a8002487075b18b0005b19705489075b18785b19685498070f0740015b1738015a1788005b1730015a1790005b1728015a1798005b1720015a17a0005b1780000276e00004082052670620c802fc34ff070708015b17b8006576065b1788009d775b1890009d885b1998009d995b1aa0009daa106a186aab38106b1f6aab30106b1e6aab28106b1d6aab20106b1c6aab18106b1b6aab10106b1a6aaa08106a191069106a9a38106a176a9a30106a166a9a28106a156a9a20106a146a9a18106a136a9a10106a126a99081069111068086a893810690f6a893010690e6a892810690d6a892010690c6a891810690b6a891010690a6a880810680910676a78381068076a78301068066a78281068056a78201068046a78181068036a78101068026a77081067015b17105b18a8005a785b18605a78185b18b0005a78085b18585a7810685180fe5b1078015b1570015b166801681180011300006811a05a10585a15505a164852b6528b5a19400c69080cab090c89096a99205a1a300ca8086988200c98085a17200f082f0202b504082052575a1b380620ca02b033ff07071a0204075000025a17286557071a171f201a171e1a171d1a171c1a171b1a171a1a17191a17181a17171a17161a17151a17141a17131a17121a17111a17101a170f1a170e1a170d1a170c1a170b1a170a1a17091a17081a17071a17061a17051a17041a17031a17021a17015b1a3027a8526927665398067608dfffffff000000005b1b3824b8085b1b4027bc5a1c1854bc085a19080ca9095a19105496081a070f0878015a1502552004082052570620cc02f932ff070763015b17286575051a151f1c1a151e1a151d1a151c1a151b1a151a1a15191a15181a15171a15161a15151a15141a15131a15121a15111a15101a150f1a150e1a150d1a150c1a150b1a150a1a15091a15081a15071a15061a15051a15041a15031a15021a15017607bfffffff000000005b18382487075b18405b19185489075b18105486071a050f07da005b1702764004082004052052670620ce025832ff0707c2005b17286576061a1616701a1612681a160d6c1a1617611a1613611a160b611a161b641a160c641a1609641a161f1a161e1a161d1a161c1065151065111065081a160f6e1a16076e1a16066f1a160e691a1605691a1604741a1619731a1618731a1614731a1603731a161a651a1610651a160a651a1602651a1601751a06515b18386887602487085b1a40658a0924a90a53880a5b1830658a0a248a085b1b0865b8085b1b205ab75ab9085aba105ab8185b10585b15505b1648681160130000681100fd5a10f8025a15f0025a16e802681500031211e052165b525a62605a6c580c2c020c4b0c0c2c0c6ac3205a64680c420c69cc200c3c0c5a6a385a69305a68285a6720070c0605e6115a6b7002b70408205a6788000620d0023731ff0f070605cd1104075000025a67505b6888006587070b78090b79080b7a0a0b7b0b6988080c980869aa1069bb180cba0a0ca8080b790d0b7a0c0b7b0e0b7c0f6999080ca90969bb1069cc180ccb0b0cb9096999200c89020b78010b790b7a020b7b036988080c980869aa1069bb180cba0a0ca8080b79050b7a040b7b060b7c076999080ca90969bb1069cc180ccb0b0cb9096999200c89030b78110b79100b7a120b7b136988080c980869aa1069bb180cba0a0ca8080b79150b7a140b7b160b7c176999080ca90969bb1069cc180ccb0b0cb9096999200c98085a68489d8a5a63789d385a6280009d295a68185a69400c89095a6a101ba8015a6998005698070835100b78185a68b8000b78195a6890000b781a5a68a8000b781b5a68a0000b781c5a68d0000b781d5a68b0000b781e5a68c8000b771f5a67c0005b67205a67a0015b67285a67a8015b67305a67b0015b67385a67b8016817e01277e052715d17185d17105d17085d07527a5a67d8006817f81277e052715d17185d17105d17085d07000102aa027b0268a0010409ff04074e05115b6ad8005ba7105ba8085ba95baa18697b3f6a8c010ccb0b69ac3f6a77010cc70769883f6a9c010cc8086aaa01129901889c1b920112847f177c0317bc0054980417ac0c1b472056070cc30856871e728b0f5b6890006988085b69b8000c98085b69a8006999105b6aa00069aa180ca9090c98085b69b0006999085b6ad0000ca9095b6ac80069aa105b6bc00069bb180cba0a0ca9096999200c98085a689d885a68081b88205a6890000f078a02686780015b68205b69285b6a305b6b385a63d8005a6cd0005a64b0005a60b8000620d202c6655b6380015b670868781f2478075b691065790b249b0a53770a5b6c4065ca0a5a6ac80069aa3b6abc050cca0a5b62880169bb3b6a88050c8b0b5b68900056985b6798005678568a568b523c65b30324c30765720b65ab041c240b24240953b7095a69c0005b67b00068701f24700a5b69b80065a90724970b53aa0b5b69d80065b9095a69a800699a3b6a79050ca90969773b6a0a050ca707657c0024c00765720a65a9091c290a24290b53a70b5a6ba0001c94075a69b00024940a5a60b800240300547a005b6ac8005b6740247a075b69186579096aaa0569973b0ca7076a99055b6a98015b6290015687568965a9096527072427086598085b6bc000657b0b247b0765780c5b67d8005b69a8002479075b68d0006587076a990569783b0c98086a770565a70752ca524c6528082428096597075b64a000658404248408658709244b071c9a085a69a800249a095387091c4b070c87075479000700060152b25a64a000115a62c0005a6ac8005a6cd0005a63d8005a6ca8025a63a0025a62b0025a6ab8025d2698025d2690025d2688025d2680025d2670025d2678025d2668025d26600200010268a002026a8002026b60020409ff04074e055b67c8005a67d8025b67c0005a67d0025b67d0005a67c8025b67d8005a67c0025d2658025d2650025d2648025d2640020268c002026a40020409ff040b2004070400d4024e0d115b64a0005b6ac8005b6cd0005b63d8006833011b3701657c0c0cc3071b77015b68c000658707248708658a0a5b68b8002483025b6bb0001cbc0824bc095382092447085b6ba8001cba0224ba0b53280b1c47080c280853890b52720f0b09ff5b691027975b6890001f88015497085b674027775b6a1827a953a7095b6798005378090709f4025b67081277e05a6748686720015b68205b69285b6a305b6b380620d60220635b6738015a67d0005b6c30015b6728015a67c8005b6720015a67c0005b67480707d9065d26a8000407040b5d26b0000403040404085d26d800205a6cb8005b6270115a6790005a6b98005b69d80065290052872490085b69586539096589091c390a5a63800024390b53a80b5b68686548085a64880024480a5b6c605a67a000657c0c65ca0a658b0b248b0865a8080c98080cb0070c87070cb8086a77206988200c87070f071d0c5b67d8000827070408205a67780620d8026c2bff0707050c5b67505b68786587070b78010b790b7a020b7b036988080c980869aa1069bb180cba0a0ca8080b79050b7a040b7b060b7c076999080ca90969bb1069cc180ccb0b0cb9096999200c89020b79090b7a080b7b0a0b7c0b6999080ca90969bb1069cc180ccb0b0cb9090b7a0d0b7b0c0b7c0e0b780f69aa080cba0a69cc106988180cc8080ca8086988200c98030b78110b7a100b7b120b7c136988080ca80869bb1069cc180ccb0b0cb8080b7a150b7b140b7c160b791769aa080cba0a69cc106999180cc9090ca9096999200c890a0b78190b79180b7b1a0b7c1b6988080c980869bb1069cc180ccb0b0cb8080b791d0b7b1c0b7c1e0b771f6999080cb90969cc106977180cc7070c97076977200c87079d779da89d399d2a5b6bc0005a6bc0015b6bc8005a6bc8015b6bb8005a6bd0015b6bd0005a6bd801681be012bbe052b15aba185ab9105ab8085ab702ba0268c0010409ff040b2004074e0d115b68c0006888011b87015b69c8006579095a69c8005a68c0000c98071b77015b68b8006578022482075b68d0006578085a68d0005b67d8006879202479085b67800065870424740a53880a5b67880065a7002470035b67a800687c20247c0a5b68900065a80724870b53aa0b5b689800658b0b248b0a5b68b00065a8085a68b0000cb8085b6a4824ac0a567a568a5b68a0006538085a6ca8005a69d8005a64a00052435204522c5a62b8005b62700f0a78fd0539045b67785b68480c87075b6880005b690c98080c87070707e2085b67685b68600c87077608e0ffffff000000005b69702489085b6958569856780708b7095b6788000277200408205a67d8000620da020529ff07079e095b6a505b67d800657a0a0ba7190ba8180ba91a0bab1b6977080c870769991069bb180cb9090c97070ba81d0ba91c0bab1e0bac1f6988080c980869bb1069cc180ccb0b0cb8086988200c78020ba7110ba8100ba9120bab136977080c870769991069bb180cb9090c97070ba8150ba9140bab160bac176988080c980869bb1069cc180ccb0b0cb8086988200c87075a67d8000ba7090ba8080ba90a0bab0b6977080c870769991069bb180cb9090c97070ba80d0ba90c0bab0e0bac0f6988080c980869bb1069cc180ccb0b0cb8086988200c87075a67d0000ba7010ba80bab020bac036977080c870769bb1069cc180ccb0b0cb7070ba8050bab040bac060baa076988080cb80869cc1069aa180cca0a0ca8086988200c87075a67c8001a267f011a267e011a267d011a267c011a267b011a267a011a2679011a2678011a2677011a2676011a2675011a2674011a2673011a2672011a2671011a2670011a266f011a266e011a266d011a266c011a266b011a266a011a2669011a2668011a2667011a2666011a2665011a2664011a2663011a2662011a2661011a2660011a265f01ff001a265e01ff001a265d01ff001a265b01ff001a265801ff1a265701ff001a265601ff001a265501ff001a265301ff001a265001ff1a264f01ff001a264e01ff001a264d01ff001a264b01ff001a264801ff1a264701ff001a264601ff001a264501ff001a264301ff001a264001ff7608ffffffff0000000010685c011068540110684c01106844017608ffffffffffff000010685a017607ffffffffffffff0010675901106852011067510110684a011067490110684201106741015b6408124b1f68674001657b0b0bb7190bb8180bbc1a0bb91b6977080c870769cc106999180cc9090c97070bb81d0bb91c0bbc1e0bba1f6988080c980869cc1069aa180cca0a0ca8086988200c87075a67c0000bb7110bb8100bb9120bba136977080c870769991069aa180ca9090c790c0bb8150bb9140bba160bb7176988080c980869aa106977180ca7070c87076977200cc7000bb8090bb9080bba0a0bbc0b6988080c980869aa1069cc180cca0a0ca8080bb90d0bba0c0bbc0e0bb70f6999080ca90969cc106977180cc7070c97076977200c78080bb7010bb90bba020bbc036977080c970769aa1069cc180cca0a0ca7070bb9050bba040bbc060bbb076999080ca90969cc1069bb180ccb0b0cb9096999200c97079d29a279035b67d8009d77a287025b67c8009d785b67d0009d79a209095b67c000a278086a4a3f5b6710697c010cac0c6a7a3f5b6740697b010cab0b6a7a3f5b67186977010ca7070c780a0cb9090cc2086947010c730705da045d26a000040004080409205b6270115b64a000522352c25b6c085b6a481cca0a5b67400c7a0a5b67185b6b100c7b0b0cba0a070a3f045a62d800529265390a249a07528c5b68586548086578081c480b24480953b7095b676065c7075b6b68650b0b240b0c65c70765b90924b90b65b7070c87070c9a0a0c7a0a0c97076aaa206977200ca7070f0743050832070408205a67b8000620dc029524ff07072e055b6a505b67b800657a0a0ba7190ba8180ba91a0bab1b6977080c870769991069bb180cb9090c97070ba81d0ba91c0bab1e0bac1f6988080c980869bb1069cc180ccb0b0cb8086988200c87075a67b8000ba7110ba8100ba9120bab136977080c870769991069bb180cb9090c97070ba8150ba9140bab160bac176988080c980869bb1069cc180ccb0b0cb8086988200c87075a67b0000ba7090ba8080ba90a0bab0b6977080c870769991069bb180cb9090c97070ba80d0ba90c0bab0e0bac0f6988080c980869bb1069cc180ccb0b0cb8086988200c78040ba7010ba80bab020bac036977080c870769bb1069cc180ccb0b0cb7070ba8050bab040bac060baa076988080cb80869cc1069aa180cca0a0ca8086988200c78001a261f011a261e011a261d011a261c011a261b011a261a011a2619011a2618011a2617011a2616011a2615011a2614011a2613011a2612011a2611011a2610011a260f011a260e011a260d011a260c011a260b011a260a011a2609011a2608011a2607011a2606011a2605011a2604011a2603011a2602011a2601011a2600011a26ff00ff001a26fe00ff001a26fd00ff001a26fb00ff001a26f800ff1a26f700ff001a26f600ff001a26f500ff001a26f300ff001a26f000ff1a26ef00ff001a26ee00ff001a26ed00ff001a26eb00ff001a26e800ff1a26e700ff001a26e600ff001a26e500ff001a26e300ff001a26e000ff7608ffffffff000000001068fc001068f4001068ec001068e4007608ffffffffffff00001068fa007607ffffffffffffff001067f9001068f2001067f1001068ea001067e9001068e2001067e1005b6b0812bb1f6867e000657b0b0bb7190bb8180bbc1a0bb91b6977080c870769cc106999180cc9090c97070bb81d0bb91c0bbc1e0bba1f6988080c980869cc1069aa180cca0a0ca8086988200c78030bb7110bb8100bb9120bba136977080c870769991069aa180ca9090c790c0bb8150bb9140bba160bb7176988080c980869aa106977180ca7070c87076977200cc7020bb8090bb9080bba0a0bbc0b6988080c980869aa1069cc180cca0a0ca8080bb90d0bba0c0bbc0e0bb70f6999080ca90969cc106977180cc7070c97076977200c78080bb7010bb90bba020bbc036977080c970769aa1069cc180cca0a0ca7070bb9050bba040bbc060bbb076999080ca90969cc1069bb180ccb0b0cb9096999200c97075b69b8009d99a279075b69b0009d99a289089d49a229099d0aa23a0a5b6bc0005a6be0015b6bc8005a6be8015b6bd8005a6bf0015b6bd0005a6bf801681be012bbe052b15aba185ab9105ab8085ab702ba0268e0010409ff040b2004074e0d5b6c08116ac73f5b69106998010c87076a983f5b6a4069a9010c98086aa93f5b6a1869aa010ca90969ca0168aa015b6b205a6b00025b6b285a6b08025b6b305a6b10025b6b385a6b1802681be012bbe052b15ab9185ab8105ab7085aba02680002053d04080409040a115b6b205a6b20025b6b285a6b28025b6b305a6b30025b6b385a6b3802681be012bbe052b15aba185ab9105ab8085ab7026820021102ba0409ff040b2004074e0d685100fd5b10f8025b15f0025b16e80268110003130004082004070620de02f71fff070790005b68505d18185d18105d18085d084e487b710407040408200620e002d41fff07076d040700000041053a04082004070620e202bd1fff0707565b68505d18185d18105d18085d084e487b710407040408200620e4029b1fff070734040700000022115b68500387200d181c0d18180d18140d18100d180c0d18080d180404082404070620e6026a1fff0f0704000168500407010409240400e8024e0b11681120fd5a10d8025a15d0025a16c8026815e0021211e052165a64505a6c485a6b405284527c6811f05a6a205a1a08686760010408035a69285a190409040a040b5a6c305a64380620ea024831ff6811105b6b78015b6a70015b6968015b686001686740010620ec02b9dd5b6758015a67d8005b6750015a67d0005b6748015a67c8005b6740015a67c000026780014e08115b6bc00068b7a00024b7085b6ac800658a0924a90a53880a5b68d000658a0a248a085b6cd80065c8080ca7070c98080c87076a77200ca8086988200c8707070706051b175b6798015a67c8005b6790015a67d0005b6788015a67b0005b6780015a67b80002b7a0000408205a67c0000620ee024e1eff0f070605e31604075000025a67d8005b68c0006587070b78010b790b7a020b7b036988080c980869aa1069bb180cba0a0ca8080b79050b7a040b7b060b7c076999080ca90969bb1069cc180ccb0b0cb9096999200c89020b79090b7a080b7b0a0b7c0b6999080ca90969bb1069cc180ccb0b0c9b030b7a110b7b100b7c120b781369aa080cba0a69cc106988180cc8080ca8080b7a150b7b140b7c160b791769aa080cba0a69cc106999180cc9090ca9096999200c89040b78190b79180b7b1a0b7c1b6988080c980869bb1069cc180ccb0b0cb8080b791d0b7b1c0b7c1e0b7a1f6999080cb90969cc1069aa180cca0a0ca9096999200c98089d495b6ab0001c9a0b24a9099d885b6ab80024a80a0b780d54b90a0b790c0b7b0e0b770f6988080c980869bb106977180cb7070c87076977200c37079d779d285b6bc8001c8b0924b8085b6cd00024c70b54980b1cc7070c9707547b0a070a060502140267a0014e036367b0015a67a8005b67a8015a67a0005b67a0015a6798000267c0014e085b67d8015a67685b67d0015a67705b67c8015a67605b67c0015a67580407400408200620f002a51cff0f0706053a155b6ad8005ba7405ba8485ba9505baa589d729d8c9d989da9689b20249b0765780a5a68c000248a0853770865c8085a6cc80024c8075a62d0006572025a6b80000c8b075a6a90005a62780c2a0a0ca7076a77205a6888000ca8086988200c870707070605d4145a69b0000297200408205a67b8000620f202241cff0f070605b9147607ebffffff000000005b6880002487085b69900027975398075b6a880027a85b6b7827b953b8090cba085489075b68d8005b6bb80065b8095b6a98006aa8381098076aa8301098066aa8281098056aa8201098046aa8181098036aa8101098026aa808109801109a5b6aa0006aa83810980f6aa83010980e6aa82810980d6aa82010980c6aa81810980b6aa81010980a109a086aa8081098095b6aa8006aa8181098136aa810109812109a106aa8081098111a191f1a191e1a191d1a191c1a191b1a191a1a19191a19181a19171a19161a19155a69a0001a191407070605d81302b7140408205a67a8000620f4022c1bff0f070605c1135b67d8005b68a8006587075b68589d886a893810791f6a893010791e6a892810791d6a892010791c6a891810791b6a891010791a5b69609d991078186a88081078196a98381078176a98301078166a98281078156a98201078146a98181078136a98101078125b68689d885b6a709daa1079106a9908107911107a086aa93810790f6aa93010790e6aa92810790d6aa92010790c6aa91810790b6aa91010790a6aaa08107a096a89381079076a89301079066a89281079056a89201079046a89181079036a89101079025b6bc8005b62b0000cb2095b6ad0005b6cc0000cca0a0ca9096a99200cba0a69aa200ca90910786a880810780107090605c41202270408205a67a8000620f602191aff0f070605ae125b67d8005b68a8006578081a181f341a181e1a181d1a181c1a181b1a181a1a18191a18181a18171a18161a18151a18141a18131a18121a18111a18101a180f1a180e1a180d1a180c1a180b1a180a1a18091a18081a18071a18061a18051a18041a18031a18021a18015a6898001a086811f8040b545d015b67b0005b68c0005b69c8005b6ad000040c04040620f802f221ff6811080408205b67a8000620fa027019ff0f07060505125b6098000b07190b08180b091a0b0a1b6977080c870769991069aa180ca9090c97070b081d0b091c0b0a1e0b0b1f6988080c980869aa1069bb180cba0a0ca8086988200c78020b08090b09080b0a0a0b0b0b6988080c980869aa1069bb180cba0a0ca8080b090d0b0a0c0b0b0e0b0c0f6999080ca90969bb1069cc180ccb0b0cb9096999200c89030b09010b0a0b0b020b0c036999080ca90969bb1069cc180ccb0b0c9b040b0a110b0b100b0c120b071369aa080cba0a69cc106977180cc7070c7a0a0b07050b0b040b0c060b08076977080cb70769cc106988180cc8080c78080b07150b0b140b0c160b09176977080cb70769cc106999180cc9090c79099d3b9d270cb70c0c98086988200c4a090c98089d880c8c0c6acc200cb8086988200cc80807080605dc1002785b67b8005a68d0000620fc023018ff0f070605c5106817e01279e05a69c80052910167a00002995b68d0004e065b68c8005b87185a6788005b87105a6780005b87085a67785b875a67700267e0014e030167f0015a67a8005b67e0015a67a0005b67e8015a679800026700024e085b6718025a67685b6710025a67605b6708025a67585b6700025a67180407400408200620fe02a817ff0f0706053d105b6ad8005ba7405ba8485bac505bab589d7a5a6ac0009d895a69b0009dc85a68d0009db75a67c8006811f8040ba0005d01040c040406200003d71fff5b69c8006811085b68d0005b67c0000c87075b6ab0000ca9080c78086a88200ca7076977200c87070f07d60f02970408205a67b800062002032a17ff0707c20f5b6798009d796a98205b67a0009d77697a200ca8086999205b6aa8009daa6aaa200ca9095b6ad8005b62b800652a0b9d996a9a3810ba1f6a9a3010ba1e6a9a2810ba1d6a9a2010ba1c6a9a1810ba1b6a9a1010ba1a9d8810b9186a990810b9196a893810b9176a893010b9166a892810b9156a892010b9146a891810b9136a891010b9126a77209d771a1b0b1a1b0a1a1b091a1b071a1b061a1b051a1b041a1b031a1b021a1b0110b8106a880810b81110b7086a783810b80f6a783010b80e6a782810b80d6a772010b70c5b6ab00027a75b68c00027895387097607dfffffff000000005b6cc80024c7070c8a0a5b68d000278c5a6ca800548c075a69c0005a6ab00054a9075a6b101a0b0f07b30e0227200408205a67a000062004030616ff07079e0e5b67d8005b6aa000657a0a5b67409d776a783810a81f6a783010a81e6a782810a81d6a782010a81c6a781810a81b6a781010a81a5b68489d8810a7186a770810a7196a873810a7176a873010a7166a872810a7156a872010a7146a871810a7136a871010a7125b575b69509d9910a8106a880810a8116a983810a80f6a983010a80e6a982810a80d6a982010a80c6a981810a80b6a981010a80a9d7710a9086a990810a90910a76a783810a8076a783010a8066a782810a8056a782010a8046a781810a8036a781010a8026a77087608bfffffff000000005b69c8002498085b69d0005b6ba800549b085b69c0005b6bb00054b9085a6a5010a7010f089f0d5b67b8000277400408205a67980006200603ee14ff0707860d5b67d8005b6898006578081a181f1a181e1a181d1a181c1a181b1a181a1a18191a18181a18171a18161a18151a18141a18131a18121a18111a18101a180f1a180e1a180d1a180c1a180b1a180a1a18091a18081a18071a18061a18051a18041a18031a18021a180176079fffffff000000005b69c8002497075b69d0005b6aa800549a075b69c0005b6ab00054a9075a68481a080f07ee0c5b67b8000277600408205a679000062008033d14ff0707d50c5b67d8005b6890006578081a181f1a181e1a181d1a181c1a181b1a181a1a18191a18181a18171a18161a18151a18141a18131a18121a18111a18101a180f1a180e1a180d1a180c1a180b1a180a1a18091a18081a18071a18061a18051a18041a18031a18021a180176077fffffff000000005b69c8002497075b69d0005b6aa800549a075b69c0005b6ab00054a9075a68a8001a080f073c0c5b67b800027780000408205a67b00006200a038a13ff0707220c5b67d8005b69b0006579095b67189d776a783810981f6a783010981e6a782810981d6a782010981c6a781810981b6a781010981a5b68589d881097186a77081097196a87381097176a87301097166a87281097156a87201097146a87181097136a87101097125b67609d771098106a88081098116a783810980f6a783010980e6a782810980d6a782010980c6a781810980b6a781010980a5b68689d881097086a77081097096a87381097076a87301097066a87281097056a87201097046a87181097036a871010970210986a88085a69681098015b67709d775a67c0005b67789d775a67c8005b6780009d775a67d8005b6788009d775a67d0006811f05b67205a1708686720010408045b69285a190409040a040b5b6c305b643806200c03a324ff6811105b6b38015b6a30015b6928015b6820016811f05b67c0005a1708686700015b6cc8005a1c5b6cd0005b64d80006200e036d24ff6811105b6718015a67d8005b6710015a67d0005b6708015a67c8005b6700015a67c0000408205b67b80006201003fc11ff0707940a5b62100b27110b28100b29120b2a136977080c870769991069aa180ca9090c97070b28150b29140b2a160b2b176988080c980869aa1069bb180cba0a0ca8086988200c87070b28190b29180b2a1a0b2b1b6988080c980869aa1069bb180cba0a0ca8080b291d0b2a1c0b2b1e0b2c1f6999080ca90969bb1069cc180ccb0b0cb9096999200c98080b290d0b2a0c0b2b0e0b2c0f6999080ca90969bb1069cc180ccb0b0cb9099d885a68b8009d775a6788009d976a77205a6780005b67d8005a6798025b67d0005a6790025b67c8005a6788025b67c0005a6780025d2678025d2670025d2668025d2660025d2650025d2658025d2648025d264002000102688002026a6002026b40020409ff04074e05636774026977205b6878025b6980000c97075b69d8005a69b8025b69d0005a69b0025b69c8005a69a8025b69c0005a69a0025b6988005a6928025b69b8005a6920025a6838025a6730020268a002026a20020409ff040b2004074e0d0408205b67a000062012037f10ff070717095b6c500bc7010bc80bc9020bca036977080c870769991069aa180ca9090c97070bc8050bc9040bca060bcb076988080c980869aa1069bb180cba0a0ca8086988200c78020bc7090bc8080bc90a0bca0b6977080c870769991069aa180ca9090c97070bc80d0bc90c0bca0e0bcb0f6988080c980869aa1069bb180cba0a0ca8086988200c78030bc7110bc8100bc9120bca136977080c870769991069aa180ca9090c97070bc8150bc9140bca160bcb176988080c980869aa1069bb180cba0a0ca8086988200c78040bc7190bc8180bc91a0bca1b6977080c870769991069aa180bc81d0ca9090c790a0bc71c6988080bc91e0bcb1f0c780c5b67c00068770169991069bb180cb9091b78015b6bc80065b8080c9c0c0c87091b99015b6bd00065b90969cc200cac0c24b90a5b6bd80065ba0a9dcb9d4c9d349d226811f85a1206201403a7dd6811080408205b67980006201603250fff0707bd075b67c00068790224790852905a6980005b67c8006587022472045a62785388045b67480b78010b790b7a020b7b036988080c980869aa1069bb180cba0a0ca8080b79050b7a040b7b060b7c076999080ca90969bb1069cc180ccb0b0cb9096999200c98085a68b8000b79090b7a080b7b0a0b7c0b6999080ca90969bb1069cc180ccb0b0cb9090b7a0d0b7b0c0b7c0e0b780f69aa080cba0a69cc106988180cc8080ca8086988200c98030b78110b7a100b7b120b7c136988080ca80869bb1069cc180ccb0b0cb8080b7a150b7b140b7c160b791769aa080cba0a69cc106999180cc9090ca9096999200c890a0b78190b79180b7b1a0b7c1b6988080c980869bb1069cc180ccb0b0cb8080b791d0b7b1c0b7c1e0b771f6999080cb90969cc106977180cc7075b6bd00065b4045a64700c970724b4095b6bd80065b9095a69606977200c87079d775a67a0009da75a6798009d375a6788005b67b8009d775a67b8005a6288025a6080025a6490025a6998025d2678025d2670025d2668025d2660025d2650025d2658025d2648025d264002000102688002026a6002026b40020409ff04074e055b67605a67b8025b67705a67b0025b67785a67a8025b6780005a67a0025b67b8005a6738025b6788005a6730025b6798005a6728025b67a0005a6720020268a002026a20020409ff040b2004074e0d0408205b679000062018031e0dff0707b6055b67c0006872032472085a6288005b67c8006587095a69b8002479005388005b67a8000b78010b790b7a020b7b036988080c980869aa1069bb180cba0a0ca8080b79050b7a040b7b060b7c076999080ca90969bb1069cc180ccb0b0cb9096999200c98085a68a0000b79090b7a080b7b0a0b7c0b6999080ca90969bb1069cc180ccb0b0cb9090b7a0d0b7b0c0b7c0e0b780f69aa080cba0a69cc106988180cc8080ca8086988200c98030b78110b7a100b7b120b7c136988080ca80869bb1069cc180ccb0b0cb8080b7a150b7b140b7c160b791769aa080cba0a69cc106999180cc9090ca9096999200c89040b78190b79180b7b1a0b7c1b6988080c980869bb1069cc180ccb0b0cb8080b791d0b7b1c0b7c1e0b7a1f6999080cb90969cc1069aa180cca0a0ca9096999200c890b5b67d0006570005a6080005d26400200012470075b68d8006578085a68789db75a67a8009d475a6798009d375a6790005b67a0009d775a67a0005b67b8005a6788025a6280025a6090025a6898025d2678025d2670025d2668025d2660025d2650025d2658025d26480202688002026a6002026b40020409ff04074e055b67785a67b8025b6780005a67b0025b67b8005a67a8025b6788005a67a0025b67a0005a6738025b6790005a6730025b6798005a6728025b67a8005a6720020268a002026a20020409ff040b2004074e0d0408205b67b00006201a03100bff0707a8035b67c00068780424780752805a68a8005b68c8006578022482085a62a0005377085b67d0006578085a68c8002478075b68d8006587075a67d8005b64680b47010b480b49020b4a036977080c870769991069aa180ca9090c97070b48050b49040b4a060b4b076988080c980869aa1069bb180cba0a0ca8086988200c87075a67d0000b48090b49080b4a0a0b4b0b6988080c980869aa1069bb180cba0a0ca8080b490d0b4a0c0b4b0e0b4c0f6999080ca90969bb1069cc180ccb0b0cb9096999200c89030b49110b4a100b4b120b4c136999080ca90969bb1069cc180ccb0b0cb9090b4a150b4b140b4c160b471769aa080cba0a69cc106977180cc7070ca7076977200c79090b47190b4a180b4b1a0b4c1b6977080ca70769bb1069cc180ccb0b0cb7070b4a1d0b4b1c0b4c1e0b481f69aa080cba0a69cc106988180cc8080ca8086988200c87075d26400200019d775a67c0009d975a67b8009d375a67b0005b67d0009d775a67d0005a6288025a6080025b67c8005a6790025b67d8005a6798025d2678025d2670025d2668025d2660025d2650025d2658025d26480202688002026a6002026b40020409ff04074e055b67d8005a67b8025b67c8005a67b0025b67a0005a67a8025b67a8005a67a0025b67d0005a6738025b67b0005a6730025b67b8005a6728025b67c0005a6720020268a002026a20020409ff040b2004074e0d685120fd5b10d8025b15d0025b16c8026811e002130004074004082006201c03e608ff07077e015b6ad8005ba7485ba8405ba9505baa589d7b9d8c9d979da85a67c8005a6cb8000cc7075a68d0000cb8080c78086a88205a6bc0000cb7076977200c87070f073d010167d0000408205a67b00006201e038f08ff070727015b67d8005b68b0006578081a181f1a181e1a181d1a181c1a181b1a181a1a18191a18181a18171a18161a18151a18141a18131a18121a18111a18101a180f1a180e1a180d1a180c1a180b1a180a1a18091a18081a18071a18061a18051a18041a1803a0001a1802791a1801c3005a68d8001a08085b67d0006878042478075b6ac800657a0924a90a53770a5b67c000657a0a247a0b5b67b800657b0b6867e00006202003f8d35b68e8005b62f8005b63e0005b6af0005b67c8001c780b24780c52705b64d00024430953b90c5b67c000707a0b247a0a5b67b80070720770a70724cb0a70a70770cb0b7008087098080c87077043080cb8080c78080cb7076a88206977200c87070f071c5b67d0001473085b67b0005a68d000062022036b07ff0f0704000168d8000407015b69d000040024034e0b116811a05a10585a15505a164852b6528b5a19400c69080cab090c89096a99205a1a300ca8086988200c98085a17200f082a0202b504082052575a1b38062026031207ff0707150204075000025a17286557071a171f201a171e1a171d1a171c1a171b1a171a1a17191a17181a17171a17161a17151a17141a17131a17121a17111a17101a170f1a170e1a170d1a170c1a170b1a170a1a17091a17081a17071a17061a17051a17041a17031a17021a17015b1a3027a8526927665398067608dfffffff000000005b1b3824b8085b1b4027bc5a1c1854bc085a19080ca9095a19105496081a070f0873015a150255200408205257062028035b06ff07075e015b17286575051a151f171a151e1a151d1a151c1a151b1a151a1a15191a15181a15171a15161a15151a15141a15131a15121a15111a15101a150f1a150e1a150d1a150c1a150b1a150a1a15091a15081a15071a15061a15051a15041a15031a15021a15017607bfffffff000000005b18382487075b18405b19185489075b18105486071a050f07d5005b17027640040820040520526706202a03ba05ff0707bd005b17286576061a161f1a161e1a161d1a161c1a161b1a161a1a16191a16181a16171a1616641a1615651a1614641a16136e1a1612651065111a1610731a160f611a160e6810650d1a160c641a160b6f1a160a691a1609721a1608651a1607701065061a1605671a16046e1a1603691a1602741a16016f1a06565b18386887602487085b1a40658a0924a90a53880a5b1830658a0a248a085b1b0865b8085b1b205ab75ab9085aba105ab8185b10585b15505b16486811601300006811a05a10585a15505a164852b6528b5a19400c69080cab090c89096a99205a1a300ca8086988200c98085a17200f08260202b504082052575a1b3806202c03b904ff0707110204075000025a17286557071a171f201a171e1a171d1a171c1a171b1a171a1a17191a17181a17171a17161a17151a17141a17131a17121a17111a17101a170f1a170e1a170d1a170c1a170b1a170a1a17091a17081a17071a17061a17051a17041a17031a17021a17015b1a3027a8526927665398067608dfffffff000000005b1b3824b8085b1b4027bc5a1c1854bc085a19080ca9095a19105496081a070f086f015a15025520040820525706202e030204ff07075a015b17286575051a151f121a151e1a151d1a151c1a151b1a151a1a15191a15181a15171a15161a15151a15141a15131a15121a15111a15101a150f1a150e1a150d1a150c1a150b1a150a1a15091a15081a15071a15061a15051a15041a15031a15021a15017607bfffffff000000005b18382487075b18405b19185489075b18105486071a050f07d1005b170276400408200405205267062030036103ff0707b9005b17286576061a161f1a161e1a161d1a161c1a161b1a161a1a16191a16181a16171a16161a16151a16141a16131a16121a1611651a1610651a160f6610650e1a160d651a160c741a160b6f1a160a761065091a1608741a1607631a1606651a1605721a1604721a16036f1a1602631a16016e1a06495b18386887602487085b1a40658a0924a90a53880a5b1830658a0a248a085b1b0865b8085b1b205ab75ab9085aba105ab8185b10585b15505b16486811601300006811105b6b58015b6a50015b6948015b684001686720010620340358c15b6738015a67585b6730015a67505b6728015a67485b6720015a6740026760014e08115b6b4068b7a00024b7085b6a48658a0924a90a53880a5b6850658a0a248a085b6c5865c8080ca7070c98080c87076a77200ca8086988200c87070f07fa085b6778015a67505b6770015a67585b6768015a67385b6760015a674802b7a0000408205a674006203603fc01ff0707c90804075000025a67185b68406587070b78010b790b7a020b7b036988080c980869aa1069bb180cba0a0ca8080b79050b7a040b7b060b7c076999080ca90969bb1069cc180ccb0b0cb9096999200c89020b79090b7a080b7b0a0b7c0b6999080ca90969bb1069cc180ccb0b0c9b030b7a110b7b100b7c120b781369aa080cba0a69cc106988180cc8080ca8080b7a150b7b140b7c160b791769aa080cba0a69cc106999180cc9090ca9096999200c89040b78190b79180b7b1a0b7c1b6988080c980869bb1069cc180ccb0b0cb8080b791d0b7b1c0b7c1e0b7a1f6999080cb90969cc1069aa180cca0a0ca9096999200c98089d495b6a381c9a0b24a9099d885b6a4824a80a0b780d54b90a0b790c0b7b0e0b770f6988080c980869bb106977180cb7070c87076977200c37079d779d285b6b501c8b0924b8085b6c5824c70b54980b1cc7070c9707547b0a0f0a6f046817e01277e05a674052715d17185d17105d17085d0702774e0e5b68405b875a67585b87105a67505b87085a67485b87185a67405d2618025d2610025d2608025d260002015d26f8015d26f0015d26e8015d26e0015d26d0015d26d8015d26c8015d26c001000102680002026ae001026bc0010409ff04074e05115b67f8015b68e8015b69e0015b6af0015b6b401cb7075b6b481cb8080c87075b68501ca8085b6a581ca9090c98080c87070f07d2045b575a67586811f05b67685a176867e0000408045b69605a19080409040a040b5b6c705b6478062038030d12ff6811105b6bf8005b6af0005b69e8005b68e0006811f05b67585a17086867c0005b6c205a1c5b6c285b643006203a03db11ff6811105b67c0005b68d8005b69c8005b6ad000687b02247b0765790c249c0953770965a90924a9076587075a6b585a6b00025a6c505a6c08025a69485a6910025a67405a6718025d26f8015d26f0015d26e8015d26e0015d26d0015d26d8015d26c8015d26c001000102680002026ae001026bc0010409ff04074e05115b67e0015b68f8015b69e8015b6af001687b011bb7016579090c9b071b7701657a0c24ac076587075a69305a67200c97075a6b385a6c280ccb080c8707070744055b67505a67e8015b67585a67e0015b67485a67f0015b67405a67f8015d26d8015d26d0015d26c8015d26c0015d26b0015d26b8015d26a8015d26a00100010268e001026ac001026ba0010409ff04074e055b67405a6718025b67485a6710025b67505a6708025b67585a6700025b67205a6798015b67285a6790015b67305a6788015b67385a67800102680002026a80010409ff040b2004074e0d6817e01277e05a674052715d17185d17105d17085d0702774e0e5b68405b87185a67585b87105a67505b875a67485b87085a67406811f05b67605a17086867a0000408035b69685a190409040a040b5b6c705b647806203c032610ff6811105b67a0005b68b8005b69a8005b6ab000687b03247b0765790c249c0953770965a90924a9076587075a6b785a6b00025a6c705a6c08025a69685a6910025a67605a6718025d26f8015d26f0015d26e8015d26e0015d26d0015d26d8015d26c8015d26c001000102680002026ae001026bc0010409ff04074e05115b6be8015b69e0015b62f8015b64f0015b6c4065bc0c5b68486598085a684824980a65ac0c1cbc035a6c4024bc0b5b6c50654c0c5b6858652808244c0965980852a9543b09659c0724c70965980c1fa8011fb9015439082447091c2c0a5a6c50242c0b53a90b5a67581c47070ca7071fb901547908070862035b67705a67e8015b67785a67e0015b67685a67f0015b67605a67f8015d26d8015d26d0015d26c8015d26c0015d26b0015d26b8015d26a8015d26a00100010268e001026ac001026ba0010409ff04074e055b67605a6718025b67685a6710025b67705a6708025b67785a6700025b67505a6798015b67585a6790015b67405a6788015b67485a67800102680002026a80010409ff040b2004074e0d6851c0fd5b1038025b1530025b16280268114002130004074004082006203e0332fcfe0707ff025b6a185ba7485ba8405ba9505baa589d7b9d8c9d979da85a67705a6c600cc7075a68780cb8080c78086a88205a6b680cb7076977200c87070f07c3020167780408205a675806204003e2fbfe0707af025b67185b68586578081a181f1a181e1a181d1a181c1a181b1a181a1a18191a18181a18171a18161a18151a18141a18131a18121a18111a18101a180f1a180e1a180d1a180c1a180b1a180a1a18091a18081a18071a18061a18051a18041a1803a0001a1802791a1801c3005a68501a08085b67786878042478075b6a70657a0924a90a53770a5b6768657a0a247a0b5b6760657b0b6867800006204203f0f35b6888005b6298005b6380005b6a9000051401040740040820062044031ffbfe0707ec015b6a185ba7485ba8405ba9505baa589d7b9d8c9d979da85a67705a6c600cc7075a68780cb8080c78086a88205a6b680cb7076977200c87070f07b0010167780408205a675806204603cffafe07079c015b67185b68586578081a181f1a181e1a181d1a181c1a181b1a181a1a18191a18181a18171a18161a18151a18141a18131a18121a18111a18101a180f1a180e1a180d1a180c1a180b1a180a1a18091a18081a18071a18061a18051a18041a1803a0001a1802791a1801c3005a68501a08085b67786878042478075b6a70657a0924a90a53770a5b6768657a0a247a0b5b6760657b0b686700010620480336f55b6808015b6218015b6300015b6a1001115b67701c780b24780c52705b647824430953b90c5b6768707a0b247a0a5b676070720770a70724cb0a70a70770cb0b7008087098080c87077043080cb8080c78080cb7076a88206977200c87070f079b005b67781473085b67585a687806204a03b7f9fe070784000168500407015b69784e0b04082004004c03059af9fe04082004004c03058ff9fe040820040706204c0386f9fe0707535b68185d18185d18105d18085d084e487b7104070404082006204e0364f9fe0707315b68180d1820000000110d181c0d18180d18140d18100d180c0d18080d180404082404070620500336f9fe0f070400016818040701040924040052034e0b116811a05a10585a15505a164852b6528b5a19400c69080cab090c89096a99205a1a300ca8086988200c98085a17200f08270202b504082052575a1b3806205403dff8fe0707120204075000025a17286557071a171f201a171e1a171d1a171c1a171b1a171a1a17191a17181a17171a17161a17151a17141a17131a17121a17111a17101a170f1a170e1a170d1a170c1a170b1a170a1a17091a17081a17071a17061a17051a17041a17031a17021a17015b1a3027a8526927665398067608dfffffff000000005b1b3824b8085b1b4027bc5a1c1854bc085a19080ca9095a19105496081a070f0870015a1502552004082052570620560328f8fe07075b015b17286575051a151f141a151e1a151d1a151c1a151b1a151a1a15191a15181a15171a15161a15151a15141a15131a15121a15111a15101a150f1a150e1a150d1a150c1a150b1a150a1a15091a15081a15071a15061a15051a15041a15031a15021a15017607bfffffff000000005b18382487075b18405b19185489075b18105486071a050f07d2005b1702764004082004052052670620580387f7fe0707ba005b17286576061a161f1a161e1a161d1a161c1a161b1a161a1a16191a16181a16171a16161a16151a16141a1613771a1612611a1611721a1610641a160f681a160e741a160d691a160c7710650b1a160a6f1a1609741065081a1607731a1606641a16056e1a1604751a1603661065021a16016f1a064e5b18386887602487085b1a40658a0924a90a53880a5b1830658a0a248a085b1b0865b8085b1b205ab75ab9085aba105ab8185b10585b15505b16486811601300006811a05a10585a15505a164852b6528b5a19400c69080cab090c89096a99205a1a300ca8086988200c98085a17200f08310202b504082052575a1b3806205a0389f6fe07071c0204075000025a17286557071a171f201a171e1a171d1a171c1a171b1a171a1a17191a17181a17171a17161a17151a17141a17131a17121a17111a17101a170f1a170e1a170d1a170c1a170b1a170a1a17091a17081a17071a17061a17051a17041a17031a17021a17015b1a3027a8526927665398067608dfffffff000000005b1b3824b8085b1b4027bc5a1c1854bc085a19080ca9095a19105496081a070f087a015a15025520040820525706205c03d2f5fe070765015b17286575051a151f201a151e1a151d1a151c1a151b1a151a1a15191a15181a15171a15161a15151a15141a15131a15121a15111a15101a150f1a150e1a150d1a150c1a150b1a150a1a15091a15081a15071a15061a15051a15041a15031a15021a15017607bfffffff000000005b18382487075b18405b19185489075b18105486071a050f07dc005b17027640040820040520526706205e0331f5fe0707c4005b17286576061a161f6f1a161e721a161d651a161c7a10651b1a161a6e1a1619611a1618681a1617741065161a1615721a1614651a1613741a1612611a1611651a1610721a160f6710650e1a160d651a160c6210650b1a160a741a1609731a1608751a16076d1065061a1605641a1604721a1603611a1602771a1601651a06525b18386887602487085b1a40658a0924a90a53880a5b1830658a0a248a085b1b0865b8085b1b205ab75ab9085aba105ab8185b10585b15505b16486811601300006811a05a10585a15505a164852b6528b5a19400c69080cab090c89096a99205a1a300ca8086988200c98085a17200f082b0202b504082052575a1b380620600329f4fe0707160204075000025a17286557071a171f201a171e1a171d1a171c1a171b1a171a1a17191a17181a17171a17161a17151a17141a17131a17121a17111a17101a170f1a170e1a170d1a170c1a170b1a170a1a17091a17081a17071a17061a17051a17041a17031a17021a17015b1a3027a8526927665398067608dfffffff000000005b1b3824b8085b1b4027bc5a1c1854bc085a19080ca9095a19105496081a070f0874015a1502552004082052570620620372f3fe07075f015b17286575051a151f181a151e1a151d1a151c1a151b1a151a1a15191a15181a15171a15161a15151a15141a15131a15121a15111a15101a150f1a150e1a150d1a150c1a150b1a150a1a15091a15081a15071a15061a15051a15041a15031a15021a15017607bfffffff000000005b18382487075b18405b19185489075b18105486071a050f07d6005b17027640040820040520526706206403d1f2fe0707be005b17286576061a1615701a16146d1a1610621a160c6e1a160b6e1a1609631a161f1a161e1a161d1a161c1a161b1a161a1a16191a161810651210650f1065081a1617791a1607791a1606721a160d6f1a16056f1a1604671a1613651a1611651a1603651a1616741a160e741a1602741a160a611a1601611a06435b18386887602487085b1a40658a0924a90a53880a5b1830658a0a248a085b1b0865b8085b1b205ab75ab9085aba105ab8185b10585b15505b16486811601300005b67f0015b68f8015b69e8015b6ae0010c98080ca7070c87070f070605de215b585b69f0005b6a00010ca9075a68b8005b6bf8000cb8080c87076a77200ca8086988200c8707070706059e2502970408205a67300106206803b6f1fe0f070605882504075000025a6738015b6830016587070b78110b79100b7a120b7b136988080c980869aa1069bb180cba0a0ca8085a6830010b78010b790b7a020b7b036988080c980869aa1069bb180cab090c89030b78150b7a140b7b160b7c176988080ca80869bb1069cc180cbc0a0c8a040b78050b7b040b7c060b79076988080cb80869cc106999180cc9090c89000b78190b79180b7c1a0b7a1b6988080c980869cc1069aa180cca0a0c8a020b78090b79080b7a0a0b7b0b6988080c980869aa1069bb180cba0a0c8a0c0b791d0b7a1c0b7b1e0b781f6999080ca90969bb106988180cb8080c98080b790d0b7a0c0b7b0e0b770f6999080ca90969bb106977180cb7070c97070c87070c2c086977200c87070c40085b6930010c93096988200c98080c87070f0706051b225b58205b57085b59105b5a181b7b03569b0ca808568b0f0b06059a231277030707500f17019400026720024e08115b6a38025b6830025b6928025b64200268a2011bacff1b8bff542c0b1b42008bed6893011b9cff53320c17a807687701547b0c0f0c06058a230407007512059000026740024e08115b6a58025b6850025b6948025b64400268a2011bacff1b8bff542c0b1b4280c5f66893011b9cff53320c17a807687701547b0c0f0c060542230407803a090548026700024e08115b6a18025b6810025b6908025b64000268a2011bacff1b8bff542c0b1b420073d86893011b9cff53320c17a807687701547b0c0f0c0605fb220407008d27116547075a673024470765790b5a6b38249b095377096589095a694024890765a7075a67485d2658035d2650035d2648035d264003025d2638035d2630035d2628035d2620035d2610035d2618035d2608035d260003000102684003026a2003026b00030409ff04074e05115b6720035b6938035b6828035b6a30035a67a000687b011bb7015a6898006578080c8b071b7701657a0c5a6a880024ac075a6990006597075a6828015a6718010c87075a6b30015a6c20010ccb080c87070f07060540225d2638035d2630035d2628035d262003025d2618035d2610035d2608035d2600035d26f0025d26f8025d26e8025d26e002000102682003026a0003026be0020409ff04074e055d2658035d2650035d2648035d264003025b6718015a67d8025b6720015a67d0025b6728015a67c8025b6730015a67c00202684003026ac0020409ff040b2004074e0d026760024e03016770025a6708015b6760025a67e8005b6768025a67c0006817e01277e05a67300152715d17185d17105d17085d0702774e0e5b6830015b87185a67a8005b87105a6780005b87085a67785b875a6770026780024e085b6798025a67685b6790025a67605b6788025a67585b6780025a675004074004082006206a03bcedfe0f0706058e215b6a38015ba7405ba8485bac505bab589d7a5a6a20019d895a6918019dc85a6830019db75a6728016811f8040b00015d01040c040406206c03ebf5fe5b6928016811085b6830015b6720010c87075b6a18010ca9080c78086a88200ca7076977200c870707070605242102970408205a67100106206e033cedfe0f0706050e215b67c0009d796a98205b67e8009d77697a200ca8086999205b6a08019daa6aaa200ca9095b6a38015b621001652a0b9d996a9a3810ba1f6a9a3010ba1e6a9a2810ba1d6a9a2010ba1c6a9a1810ba1b6a9a1010ba1a9d8810b9186a990810b9196a893810b9176a893010b9166a892810b9156a892010b9146a891810b9136a891010b9126a77209d771a1b0b1a1b0a1a1b091a1b071a1b061a1b051a1b041a1b031a1b021a1b0110b8106a880810b81110b7086a783810b80f6a783010b80e6a782810b80d6a772010b70c5b6a180127a75b68200127895387097607dfffffff000000005b6c280124c7070c8a0a5b683001278c5a6c0801548c075a6920015a6a180154a9075a6b281a0b07070605fd1f0227200408205a67e8000620700314ecfe0f070605e61f5b6738015b69e8006579095b67c8009d776a783810981f6a783010981e6a782810981d6a782010981c6a781810981b6a781010981a5b68d0009d881097186a77081097196a87381097176a87301097166a87281097156a87201097146a87181097136a87101097125b67d8009d771098106a88081098116a783810980f6a783010980e6a782810980d6a782010980c6a781810980b6a781010980a5b68e0009d881097086a770810970910986a87381097076a87301097066a87281097056a87201097046a87181097036a87101097026a88087607bfffffff000000005b6a280124a7075b6a30015b6b080154ab075b6a20015b6b180154ba075a692010980107070605e01e5b6710010277400408205a67c00006207203f3eafe0f070605c51e5b6738015b69c0006579095b67f0009d776a783810981f6a783010981e6a782810981d6a782010981c6a781810981b6a781010981a5b68f8009d881097186a77081097196a87381097176a87301097166a87281097156a87201097146a87181097136a87101097125b6700019d771098106a88081098116a783810980f6a783010980e6a782810980d6a782010980c6a781810980b6a781010980a5b68b8009d881097086a770810970910986a87381097076a87301097066a87281097056a87201097046a87181097036a87101097026a880876079fffffff000000005b6a280124a7075b6a30015b6b080154ab075b6a20015b6b180154ba075a691810980107070605bf1d5b6710010277600408205a67b00006207403d2e9fe0f070605a41d5b6738015b69b0006579095b67709d776a783810981f6a783010981e6a782810981d6a782010981c6a781810981b6a781010981a5b68789d881097186a77081097196a87381097176a87301097166a87281097156a87201097146a87181097136a87101097125b6780009d771098106a88081098116a783810980f6a783010980e6a782810980d6a782010980c6a781810980b6a781010980a5b68a8009d881097086a770810970910986a87381097076a87301097066a87281097056a87201097046a87181097036a87101097026a880876077fffffff000000005b6a280124a7075b6a30015b6b080154ab075b6a20015b6b180154ba075a697010980107070605a01c5b671001027780000408205a67a80006207603b2e8fe0f070605841c5b6738015b69a8006579095b67509d776a783810981f6a783010981e6a782810981d6a782010981c6a781810981b6a781010981a5b68589d881097186a77081097196a87381097176a87301097166a87281097156a87201097146a87181097136a87101097125b67609d771098106a88081098116a783810980f6a783010980e6a782810980d6a782010980c6a781810980b6a781010980a5b68689d881097086a770810970910986a87381097076a87301097066a87281097056a87201097046a87181097036a87101097026a880876075fffffff000000005b6a280124a7075b6a30015b6b080154ab075b6a20015b6b180154ba075a696810980107070605821b5b6710010277a0000408205a6780000620780394e7fe0f070605661b5b6738015b6980006579095b67309d776a783810981f6a783010981e6a782810981d6a782010981c6a781810981b6a781010981a5b68389d881097186a77081097196a87381097176a87301097166a87281097156a87201097146a87181097136a87101097125b67409d771098106a88081098116a783810980f6a783010980e6a782810980d6a782010980c6a781810980b6a781010980a5b68489d881097086a770810970910986a87381097076a87301097066a87281097056a87201097046a87181097036a87101097026a880876073fffffff000000005b6a280124a7075b6a30015b6b080154ab075b6a20015b6b180154ba075a696010980107070605641a5b6710010277c0000408205a677806207a0377e6fe0f070605491a5b6738015b68786578081a181f1a181e1a181d1a181c1a181b1a181a1a18191a18181a18171a18161a18151a18141a18131a18121a18111a18101a180f1a180e1a180d1a180c1a180b1a180a1a18091a18081a18071a18061a18051a18041a18031a18021a180176071fffffff000000005b6928012497075b6930015b6a0801549a075b6920015b6a180154a9075a68481a0807070605b0195b6710010277e0000408205a67080106207c03c2e5fe0f07060594195b6738015b6808016587071a171f1a171e1a171d1a171c1a171b1a171a1a17191a17181a17171a17161a17151a17141a17131a17121a17111a17101a170f1a170e1a170d1a170c1a170b1a170a1a17091a17081a17071a17061a17051a17041a17031a17021a17015a67401a076811f05b6790005a17086867c0010408035b6988005a190409040a040b5b6ca0005b64980006207e0363f7fe6811105b67d8015a6730015b67d0015a6728015b67c8015a6720015b67c0015a6718010408205b67100106208003f2e4fe0f070605c4185b62280b27110b28100b29120b2a136977080c870769991069aa180ca9090c97070b28150b29140b2a160b2b176988080c980869aa1069bb180cba0a0ca8086988200c87070b28190b29180b2a1a0b2b1b6988080c980869aa1069bb180cba0a0ca8080b291d0b2a1c0b2b1e0b2c1f6999080ca90969bb1069cc180ccb0b0cb9096999200c98080b290d0b2a0c0b2b0e0b2c0f6999080ca90969bb1069cc180ccb0b0cb9099d885a6810019d775a67589d976a77205a67505b6730015a6738035b6728015a6730035b6720015a6728035b6718015a6720035d2618035d2610035d2608035d2600035d26f0025d26f8025d26e8025d26e002000102682003026a0003026be0020409ff04074e05636714036977205b6818035b69500c97075b6930015a6958035b6928015a6950035b6920015a6948035b6918015a6940035b69585a69c8025b6910015a69c0025a68d8025a67d00202684003026ac0020409ff040b2004074e0d0408205b67e8000620820377e3fe0f07060549175b6c200bc7010bc80bc9020bca036977080c870769991069aa180ca9090c97070bc8050bc9040bca060bcb076988080c980869aa1069bb180cba0a0ca8086988200c78020bc7090bc8080bc90a0bca0b6977080c870769991069aa180ca9090c97070bc80d0bc90c0bca0e0bcb0f6988080c980869aa1069bb180cba0a0ca8086988200c78030bc7110bc8100bc9120bca136977080c870769991069aa180ca9090c97070bc8150bc9140bca160bcb176988080c980869aa1069bb180cba0a0ca8086988200c78040bc7190bc8180bc91a0bca1b6977080c870769991069aa180bc81d0ca9090c790a0bc71c6988080bc91e0bcb1f0c780c5b67180168770169991069bb180cb9091b78015b6b200165b8080c9c0c0c87091b99015b6b280165b90969cc200cac0c24b90a5b6b300165ba0a9dcb9d4c9d349d226811f85a12062084039db06811080408205b67c000062086031be2fe0f070605ed155b6718016878025a68100124780a5b67200165a70824780453aa045b67180b7a010b7b0b7c020b790369aa080cba0a69cc106999180cc9090ca9020b7a050b7b040b7c060b790769aa080cba0a69cc106999180cc9090ca9096999200c29020b79090b7a080b7b0a0b7c0b6999080ca90969bb1069cc180ccb0b0c9b030b7a0d0b7b0c0b7c0e0b790f69aa080cba0a69cc106999180cc9090ca9096999200c39030b79110b7a100b7b120b7c136999080ca90969bb1069cc180ccb0b0c9b000b7a150b7b140b7c160b791769aa080cba0a69cc106999180cc9090ca9096999200c09000b79190b7a180b7b1a0b7c1b6999080ca90969bb1069cc180ccb0b0c9b0b0b791d0b7a1c0b7c1e0b771f6999080ca90969cc106977180cc7070c97075b6a2801654a096977200cb70724a90a5b6b300165ba0a9d7b9d0c9d349d276811f85a175b6710010620880339af6811080408205b67b00006208a03b7e0fe0f07060589145b67180168790324790852905a69585b6720016587022472045a62505388045b67700b78010b790b7a020b7b036988080c980869aa1069bb180cba0a0ca8080b79050b7a040b7b060b7c076999080ca90969bb1069cc180ccb0b0cb9096999200c98085a6810010b79090b7a080b7b0a0b7c0b6999080ca90969bb1069cc180ccb0b0cb9090b7a0d0b7b0c0b7c0e0b780f69aa080cba0a69cc106988180cc8080ca8086988200c98030b78110b7a100b7b120b7c136988080ca80869bb1069cc180ccb0b0cb8080b7a150b7b140b7c160b791769aa080cba0a69cc106999180cc9090ca9096999200c890a0b78190b79180b7b1a0b7c1b6988080c980869bb1069cc180ccb0b0cb8080b791d0b7b1c0b7c1e0b771f6999080cb90969cc106977180cc7075b6b280165b4045a64700c970724b4095b6b300165b9095a69386977200c87079d775a67e8009da75a67c0009d375a67b0005b6710019d775a6710015a6228035a6020035a6430035a6938035d2618035d2610035d2608035d2600035d26f0025d26f8025d26e8025d26e002000102682003026a0003026be0020409ff04074e055b67385a6758035b67705a6750035b67505a6748035b67585a6740035b6710015a67d8025b67b0005a67d0025b67c0005a67c8025b67e8005a67c00202684003026ac0020409ff040b2004074e0d0408205b67a80006208c03b0defe0f07060582125b6718016872042472085a62705b6720016587095a6910012479005388005b67680b78010b790b7a020b7b036988080c980869aa1069bb180cba0a0ca8080b79050b7a040b7b060b7c076999080ca90969bb1069cc180ccb0b0cb9096999200c98085a68e8000b79090b7a080b7b0a0b7c0b6999080ca90969bb1069cc180ccb0b0cb9090b7a0d0b7b0c0b7c0e0b780f69aa080cba0a69cc106988180cc8080ca8086988200c98030b78110b7a100b7b120b7c136988080ca80869bb1069cc180ccb0b0cb8080b7a150b7b140b7c160b791769aa080cba0a69cc106999180cc9090ca9096999200c89040b78190b79180b7b1a0b7c1b6988080c980869bb1069cc180ccb0b0cb8080b791d0b7b1c0b7c1e0b7a1f6999080cb90969cc1069aa180cca0a0ca9096999200c890b5b6828016580005a60685d26e00200012480075b6830016578085a68589db75a67c0009d475a67b0009d375a67a8005b67e8009d775a67e8005b6710015a6728035a6220035a6030035a6838035d2618035d2610035d2608035d2600035d26f0025d26f8025d26e80202682003026a0003026be0020409ff04074e055b67585a6758035b67685a6750035b6710015a6748035b67705a6740035b67e8005a67d8025b67a8005a67d0025b67b0005a67c8025b67c0005a67c00202684003026ac0020409ff040b2004074e0d0408205b67800006208e03a5dcfe0f07060577105b67180168790524790852905a69a8005b6720016587022472045a6280005388045b67600b78010b790b7a020b7b036988080c980869aa1069bb180cba0a0ca8080b79050b7a040b7b060b7c076999080ca90969bb1069cc180ccb0b0cb9096999200c98085a6810010b79090b7a080b7b0a0b7c0b6999080ca90969bb1069cc180ccb0b0cb9090b7a0d0b7b0c0b7c0e0b780f69aa080cba0a69cc106988180cc8080ca8086988200c98030b78110b7a100b7b120b7c136988080ca80869bb1069cc180ccb0b0cb8080b7a150b7b140b7c160b791769aa080cba0a69cc106999180cc9090ca9096999200c890a0b78190b79180b7b1a0b7c1b6988080c980869bb1069cc180ccb0b0cb8080b791d0b7b1c0b7c1e0b771f6999080cb90969cc106977180cc7075b6b280165b4045a64700c970724b4095b6b300165b9095a69686977200c87079d775a67e8009da75a67c0009d375a67b0005b6710019d775a6710015a6228035a6020035a6430035a6938035d2618035d2610035d2608035d2600035d26f0025d26f8025d26e8025d26e002000102682003026a0003026be0020409ff04074e055b67685a6758035b67705a6750035b6780005a6748035b67a8005a6740035b6710015a67d8025b67b0005a67d0025b67c0005a67c8025b67e8005a67c00202684003026ac0020409ff040b2004074e0d0408205b6778062090039bdafe0707700e5b6718016878065a6810012478085b6720016587095a69e8002479045388045b62480b28110b29100b2a120b2b136988080c980869aa1069bb180cba0a0ca8085a68c0000b28010b290b2a020b2b036988080c980869aa1069bb180cab090c98085a68b0000b28150b2a140b2b160b2c176988080ca80869bb1069cc180cbc0a0ca8085a68a8000b28050b2b040b2c060b29076988080cb80869cc106999180cc9090c89000b28190b29180b2c1a0b2a1b6988080c980869cc1069aa180cca0a0c8a030b28090b29080b2a0a0b2b0b6988080c980869aa1069bb180cba0a0c8a0c0b291d0b2a1c0b2b1e0b271f6999080ca90969bb106977180cb7070c97080b290d0b2a0c0b2b0e0b270f6999080ca90969bb106977180cb7070c97070c87070c3c086977200c87075b68a8000c80085b69c0005b6ab0000ca9096988200c98080c87075b6828016584045a64b0005d26e00200012484085b6930016598085a68a80027775a67c0005b67e8005a6728035b6710015a6720035a6430035a6838035d2618035d2610035d2608035d2600035d26f0025d26f8025d26e80202682003026a0003026be0020409ff04074e055b6700035b6808035b6910035b6a1803127700ff5b6bc0000cb7075b6ba8005a6b58035b6bb0005a6b50035b6be8005a6b48035b6b10015a6b40035a6ad8025a69d0025a68c8025a67c00202684003026ac0020409ff040b2004074e0d0408205b670801062092037cd8fe0707510c5b67180168780724780752805a68e8005b6820016578022482085a62c0005377085b6728016578085a6820012478075b6830016587075a6730015b64400b47010b480b49020b4a036977080c870769991069aa180ca9090c97070b48050b49040b4a060b4b076988080c980869aa1069bb180cba0a0ca8086988200c87075a6728010b48090b49080b4a0a0b4b0b6988080c980869aa1069bb180cba0a0ca8080b490d0b4a0c0b4b0e0b4c0f6999080ca90969bb1069cc180ccb0b0cb9096999200c89030b49110b4a100b4b120b4c136999080ca90969bb1069cc180ccb0b0cb9090b4a150b4b140b4c160b471769aa080cba0a69cc106977180cc7070ca7076977200c79090b47190b4a180b4b1a0b4c1b6977080ca70769bb1069cc180ccb0b0cb7070b4a1d0b4b1c0b4c1e0b481f69aa080cba0a69cc106988180cc8080ca8086988200c87075d26e00200019d775a6718019d975a6710019d375a6708015b6728019d775a6728015a6228035a6020035b6720015a6730035b6730015a6738035d2618035d2610035d2608035d2600035d26f0025d26f8025d26e80202682003026a0003026be0020409ff04074e055b6730015a6758035b6720015a6750035b67c0005a6748035b67e8005a6740035b6728015a67d8025b6708015a67d0025b6710015a67c8025b6718015a67c00202684003026ac0020409ff040b2004074e0d0267a0024e036367b0025a67705b67a8025a67685b67a0025a67786817e01277e05a67300152715d17185d17105d17085d0702774e0e5b6830015b87185a6780005b87105a67a8005b87085a67b0005b875a67c0000407400408200620940313d6fe0707e8095b6a38015ba7405ba8485ba9505baa589d7b9d8c9d979da95a6730015a6b20010cb7070cc9080c78086a88205a6c18010cc7076977200c87070f07ab0902970408205a6710015a69280106209603bed5fe070793095b6738015b64100165470c5b6790009d775b6888009d885b6998009d995b6aa0009daa10ca186aab3810cb1f6aab3010cb1e6aab2810cb1d6aab2010cb1c6aab1810cb1b6aab1010cb1a6aaa0810ca1910c9106a9a3810ca176a9a3010ca166a9a2810ca156a9a2010ca146a9a1810ca136a9a1010ca126a990810c91110c8086a893810c90f6a893010c90e6a892810c90d6a892010c90c6a891810c90b6a891010c90a6a880810c80910c76a783810c8076a783010c8066a782810c8056a782010c8046a781810c8036a781010c8026a72085b63180127385b6a200127a753a8077608dfffffff000000005b6928012498085b693001279b5a6ba000549b080ca30a5a6a08015a67e80054a7085a6c900010c2010f087a080247200408205a6798000620980390d4fe070765085b672801687c8000247c075b6830016578042484085377085b6738015b6998006597071a171f80005b6918016598081a171e1a171d1a171c1a171b1a171a1a17191a17181a17171a17161a17151a17141a17131a17121a17111a17101a170f1a170e1a170d1a170c1a170b1a170a1a17091a17081a17071a17061a17051a17041a17031a17021a17011a072498075b6920016597076811f05a17086867a0015a185b68c8005b69d0005b6ad8005b6be00006209a0306e7fe6811107607bfffffff000000005b6828012487075b68a0005b6930015498075b6808015b69e8005489070f077f075b67b8015a67e0005b67b0015a67e8005b67a8015a67d0005b67a0015a67c8005b6710010277400408205a67d80006209c0371d3fe070746075b6738015b68d8006587075b6880009d885b69a8009d995b6ab0009daa5b6bc0009dbb107b186abc38107c1f6abc30107c1e6abc28107c1d6abc20107c1c6abc18107c1b6abc10107c1a6abb08107b19107a106aab38107b176aab30107b166aab28107b156aab20107b146aab18107b136aab10107b126aaa08107a111079086a9a38107a0f6a9a30107a0e6a9a28107a0d6a9a20107a0c6a9a18107a0b6a9a10107a0a6a990810790910786a89381079076a89301079066a89281079056a89201079046a89181079036a89101079026a88087609a0ffffff000000005b6a2801249a095b6a300156a95b6a080156a910780107094f065b6710010277600408205a67080106209e0361d2fe070736065b6228015b63c80024230c5b6930015b60d0001c900824900a538c0a5b6718015b6be800707b0470a4085a68d80024a404247b0a5b6720015b6be000707b0b70ab0b704b0470900a70ca0a70230b5b6738015b6808016587079db86a8b38107b1f6a8b30107b1e6a8b28107b1d6a8b20107b1c6a8b18107b1b6a8b10107b1a9daa1078186a8b08107b196aab38107b176aab30107b166aab28107b156aab20107b146aab18107b136aab10107b125b68d8009d89107a106aaa08107a116a9a38107a0f6a9a30107a0e6a9a28107a0d6a9a20107a0c6a9a18107a0b6a9a10107a0a9d481079086a99081079096a89381079076a89301079066a89281079056a89201079046a89181079036a891010790210786a88081078016811f05b67e0005a1708686780015b68e8005a185b68f0005b69f8005b6a00015b6bb800523c52040620a00348e4fe6811105b6888015b6298015b6380015b6a90015b6730011c780b24780c52705b64280124430953b90c5b671801707a0b247a0a5b67200170720770a70724cb0a70a70770cb0b7008087098080c87077043080cb8080c78080cb7076a88206977200c87070f0787041443085b6710015a6838010620a2039cd0fe070771045b63789d376977205b68689d896a98200c87026999205b67709d776a77200c79096817c01277e052715f0a2000025f0b2800025f0c3000025f083800025a7a185a7b105a7c085a789d989d29693a205a79305a7a285d17205a78380169900002770408025b6a38014e04685180fc5b1078035b1570035b1668036811800313000407400408200620a4030bd0fe0707e003040a5000025f079800025f089000025f09a000025a6a18015f0aa800029d7b9d8c9d979da85a6730015a6c20010cc7075a6838010cb8080c78086a88205a6b28010cb7076977200c87070f079203016738010408205a6710010620a603a7cffe07077c035b6710015b6818016578081a181f1a181e1a181d1a181c1a181b1a181a1a18191a18181a18171a18161a18151a18141a18131a18121a18111a18101a180f1a180e1a180d1a180c1a180b1a180a1a18091a18081a18071a18061a18051a18041a1803a0001a1802791a1801c3005a6818011a08085b6738016878042478075b6a3001657a0924a90a53770a5b672801657a0a247a0b5b672001657b0b686740010620a80337d85b6848015b6258015b6340015b6a50015b6730011c780b24780c52705b64380124430953b90c5b672801707a0b247a0a5b67200170720770a70724cb0a70a70770cb0b7008087098080c87077043080cb8080c78080cb7076a88206977200c87070f0771025b6738011473085b6710015a6838010620aa0382cefe07075702016818010407015b6938014e0b110407400408200620ac0363cefe070738025b6a38015ba7485ba8405ba9505baa589d7b9d8c9d979da85a6728015a6c18010cc7075a6830010cb8080c78086a88205a6b20010cb7076977200c87070f07f701016730010408205a6710010620ae030ccefe0707e1015b6738015b6810016578081a181f1a181e1a181d1a181c1a181b1a181a1a18191a18181a18171a18161a18151a18141a18131a18121a18111a18101a180f1a180e1a180d1a180c1a180b1a180a1a18091a18081a18071a18061a18051a18041a1803a0001a1802791a1801c3005a6838011a08085b6730016878042478075b6a2801657a0924a90a53770a5b672001657a0a247a0b5b671801657b0b686760010620b003fcd85b6868015b6278015b6360015b6a70015b6728011c780b24780c52705b64300124430953b90c5b672001707a0b247a0a5b67180170720770a70724cb0a70a70770cb0b7008087098080c87077043080cb8080c78080cb7076a88206977200c87070f07d6005b6730011473085b6710015a6830010620b203e7ccfe0707bc00016838010407015b6930014e0b1104082004070620b403c9ccfe07079e005b6838015d18185d18105d18085d084e487b710407040408200620b603a5ccfe07077a040700000021054604082004070400b803058accfe0408200620b80383ccfe0707585b6838015d18185d18105d18085d084e487b710407040408200620ba0360ccfe070735040700000011115b6838010387200d181c0d18180d18140d18100d180c0d18080d180404082404070620bc032eccfe0f070400016838010407010409240400be034e0b116811885a10705a15685a166052b552a60cab0b5a19501b9a0156ba5a18485a1710070a73020407400408200620c003e7cbfe0707c9026a673b5a15206958050c87075b1a506aa83b5a16186969050c98085b1b486ab93b69aa050ca90969ba0568ab205a1a0824ab0a65a90c249c0453aa0465840424840865870204075000025f089000025f099800025f05a000025a17285f07a800029d8a5a1a589d969d559d775a17405a12525852690620c203d8d3fe5a15385b17580c57075b15400c65080c78086a88205a16300c67076977200c87070f072802025604082052670620c40334cbfe070716025b172852636567075b1c3027c85b1a5827a953a8097608dfffffff000000002458065b1b3827b853b6080cca0a54a9085b16489d696a9a38107a1f6a9a30107a1e6a9a28107a1d6a9a20107a1c6a9a18107a1b6a9a10107a1a5b1c509dca1079186a99081079196aa9381079176aa9301079166aa9281079156aa9201079146aa9181079136aa9101079125b15189d59107a106aaa08107a116a9a38107a0f6a9a30107a0e6a9a28107a0d6a9a20107a0c6a9a18107a0b6a9a10107a0a5b1b209dba1079086a99081079096aa9381079076aa9301079066aa9281079056aa9201079046aa9181079036aa910107902107a6aaa08107a010f081b010c56070cbc080c87076a771b0c58086988250c87070f0702015f087804035a18485f067004035f086804035a18205f076004035a175002352001180852575a18180620c603edc9fe0707cf005b19500c69075b18485b1a200ca8080c87076a77200c68086988200c87070f07ad005b1728655707029804096000036598085b19180620c803f7c9fe5b17105b18585a78185b18305a78105b18385a78085b18405a785b10705b15685b1660681178130004082004070620ca0379c9fe07075b040550000262036800026203600002620358000262035000024e487b710407040408200620cc034cc9fe07072e0d1520000000410d151c0d15180d15140d15100d150c0d15080d150404082404070620ce0321c9fe0f07040002580407010409240400d0034e0b116811a05a10585a15505a16486815601211e052165a6b205a6a285a69305a68385a671804082004070620d203dfc8fe07078d005b67209d775b68289d885b69309d995b6a389daa040b500002600a680002600960000260085800025a6b38600750000204082004070620d4039fc8fe07074d6817e01279e05a6930529101673802990408204e065b6a305ba7185ba8105ba9085baa9d779d889d999daa5b6b185aba185ab9105ab8085ab76851a05b10585b15505b1648681160130000681160fe5a1098015a1590015a1688016815a0011211e052165a64d8005a6cd0005a67205a6b88005a6b58015a6a80005a6a50015a69785a6948015a68285a6840015d2638015d2630015d2628015d2620015d2618015d2610015d2608015d260001000102684001026a2001026b00010409ff04074e05115b6930015b6428015b6238015b60200169973f6a48010c870769283f5a69b8006a99010c980869493f6a0a010c9a0b6a2901120301883a17a808177a0c17a90912ba7f533a0b5a6b701bb7205a6c6056c75a68685a69580c980856875a63c8001b38011e78ca055a6098005a64a0005a6a185a62a8005b5a5b58085b69d0000ca9075a68b0005b6bd8000cb8080c87076a77205a6ac0000ca8086988200c87070f07fc0502970408205a6790000620d60325c7fe0707e80504075000025a67305b6890006587075b68589d885b69709d996a9a38107a1f6a9a30107a1e6a9a28107a1d6a9a20107a1c6a9a18107a1b6a9a10107a1a5b6a609daa1079186a99081079196aa9381079176aa9301079166aa9281079156aa9201079146aa9181079136aa9101079125b69689d99107a106aaa08107a111079086a9a38107a0f6a9a30107a0e6a9a28107a0d6a9a20107a0c6a9a18107a0b6a9a10107a0a6a990810790910786a89381079076a89301079066a89281079056a89201079046a89181079036a89101079026a88081078015b69d000689a20249a075b6bd800657b085a683824b8085377085b6cc00065c8085a684824c8075b68b0006587075a67505a6a405b67c8000f07290127c727825387027607dfffffff0000000024970727b953b7090c8c075472090f09b30402a70408205a67d8000620d803dcc5fe07079f045d26c0005d26c80004045b679800127a00ff5b69305b67d8006579099daa6aab38109b1f6aab30109b1e6aab28109b1d6aab20109b1c6aab18109b1b6aab10109b1a5b67a0009d7b109a186aaa08109a196aba38109a176aba30109a166aba28109a156aba20109a146aba18109a136aba10109a125b67b8009d7a109b106abb08109b116aab38109b0f6aab30109b0e6aab28109b0d6aab20109b0c6aab18109b0b6aab10109b0a5b67a8009d7b109a086aaa08109a09109b6aba38109a076aba30109a066aba28109a056aba20109a046aba18109a036aba10109a026abb08109b015b6718277969980505df026867e0005b68285b69785b6a80005b6b88000620da03cafb5b6798001b77025b68a00056875b68a8005b69b8000c9808568707071204085d26c0005d26c8000404059b025b67f8005b6bf0005b60e8005b63e00004025d26d000040c0404026860015a6828115a6cc0005a64c8005a62b8005a63a0005a6360015a60d8005a6068015a6b98005a6b70015a67a8005a6778016817e0127ae052a15d1a185d1a105d1a085d0a6817f81277e052715d17185d17105d17085d0700015a6ab00002aa027b0409ff04075b68284e05115b6ab8005b6340653a0224a2085b69385b67d0006579096589091c790c24790b53c80b5b68485b67c0006578082478045b6c505b67c800657c0c654c07658b0b248b086578080c98080cb2070c87070cb8086a77206988200c87070f0785025b67b0005b78185a6888005b78105a6890005b78085a6880005b775a67b000083a070408205a67780620dc038fc3fe070752025b67305b68786587075b68b0009d886a893810791f6a893010791e6a892810791d6a892010791c6a891810791b6a891010791a5b6980009d991078186a88081078196a98381078176a98301078166a98281078156a98201078146a98181078136a98101078125b6888009d885b6a90009daa1079106a9908107911107a086aa93810790f6aa93010790e6aa92810790d6aa92010790c6aa91810790b6aa91010790a6aaa08107a0910786a89381079076a89301079066a89281079056a89201079046a89181079036a89101079026a88081078015b63a0006833011b37015b68d8006578085a68d8005b67b8006872202472085b67d00065870024700a53880a5b67c00065a70424740a5b69c80065a9095b6b6824b4075a67d0005b677024720c5b67601c700824700a538c0a5b67581c790824790c5b67d00053870c1cb40b0cb8085b67d8000c730b1bbb015b679800657b0b247b07548c0a5b68a800658707520c5b60d80052285a6cc0005a6cd0005a64c800524c52940f0a8efd5b6a40658a0a248a095b6b385b67c000657b0b659b0b1c7b0c247b0753c9075b69485b68c80065890965970724970c2489085b695065490965980865c8085b69205a9a5a9b085a97105a9818685160fe5b1098015b1590015b1688016811a001130004082004070620de03a0c1fe07076304085000026203680002620360000262035800025a68d80062035000024e487b710407040408200620e0036fc1fe0707325b68d8000d1820000000220d181c0d18180d18140d18100d180c0d18080d180404082404070620e20340c1fe0f0704000168d8000407010409240400e4034e0b11681100fd5a10f8025a15f0025a16e802681500031211e052165a6b28015a6a20015a6918015a6830015a67085d26d8025d26d0025d26c8025d26c002025d26b8025d26b0025d26a8025d26a0025d2690025d2698025d2688025d26800200010268c002026aa002026b80020409ff04075a6800015a6af8005a6bf0004e055b6bb8025b6ab0025b69a8025b68a002686760020620e60380f45d2650015d2648015d2638015d2640015d2668015d2660015d2670015d2658010408500002760900000000010000005b6778025a67485b6770025a67405b6768025a67385b6760025a67305b6a300102a702aa205a67e0006587075a67d0005a6888015a6ac80008a8085a68c0005a69d8007607dfffffff000000005a67e800053c5b6368015b6460015b605801115b6870016833015a6368011b37016574045a6460010c43071b77016587072487086580005a6058015a677001115d26d8025d26d0025d26c8025d26c002025d26b8025d26b0025d26a8025d26a0025d2690025d2698025d2688025d26800200010409ff04075b6800015b6af8005b6bf0004e05115b67b8025b68a0025b62b0025b6aa8025b6958011c79002479075b6b7001242b0c54070c5b6460011ca40324a4075b6a6801248a085437081c2b070c0707547c080708a80652ac6811f05a1b6867e0010408035a19080409040a040b0620e8036dd1fe6811105b67f8015a6798015b67f0015a6790015b67e8015a6780015b67e0015a6778010407400408200620ea03fdbefe0707500b5b6778016878022478075b6a8001657a0924a90a53770a5b679001657a0a247a0b5b679801657b0b5b6788015b74505b7c585b72485b73409d445a6498019dcc5a6c90019d225a6280019d375a6778016811f05a17086867c0015a120620ec034cf66811105b69c8015b67d8015a6708015b63c0015b62d0015b6798011c790b24790c5b67900124730053b00c5b68800170820a70ca0b5a6b100124ca04248202528b5b6a78015b6c080170ac0c702c0c704c025b68980170890c700c0c7073036811f85a1252b9523b5b6410010620ee0395c6fe6811085b6898015b6778010c87075b6980015b6890010c98080c78086a88200c97076977200c87070f074f0a016790010408205a6710010620f003e6bdfe0707390a5b6b800127b75b6c780127c853c7085b67e8005b6990012497075b6a980127a953a7090ccb075478090f090c0a5b6788015b6010016507070b78190b79180b7a1a0b7b1b6988080c980869aa1069bb180cba0a0ca8080b791d0b7a1c0b7b1e0b7c1f6999080ca90969bb1069cc180ccb0b0cb9096999200c98085a6898010b79090b7a080b7b0a0b7c0b6999080ca90969bb1069cc180ccb0b0cb9090b7a0d0b7b0c0b7c0e0b780f69aa080cba0a69cc106988180cc8080ca8086988200c98030b78010b7a0b7b020b7c036988080ca80869bb1069cc180cbc0a0c8a040b78110b7b100b7c120b79136988080cb80869cc106999180cc9090c89020b78050b79040b7c060b7a076988080c980869cc1069aa180cca0a0ca8080b79150b7a140b7c160b77176999080ca90969cc106977180cc7070c79099d3a5b6798019d7b0cab0c0c98086988200c42090c98089d880c8c0c6acc200ca8086988200cc8080f08d60802072002b85a6790015a6898010620f2036bbcfe0707be085b6920015b6730010c97075b6828015b6a18010ca8080c87076a77200c98086988200c87075a6780015b6788015b6890010887076818e01288e052815a68900102895b6898014e06115b6780010f076d085b6890015b87185a6780015b87105a6798015b87085a6778015b875a6790010408205b67e0000620f403e9bbfe07073c085b6728015b6820010c87075b68d8006888e05b6930012489085b69180156985678070817085b60d0000b07190b08180b091a0b0a1b6977080c870769991069aa180ca9090c97070b081d0b091c0b0a1e0b0b1f6988080c980869aa1069bb180cba0a0ca8086988200c78020b08090b09080b0a0a0b0b0b6988080c980869aa1069bb180cba0a0ca8080b090d0b0a0c0b0b0e0b0c0f6999080ca90969bb1069cc180ccb0b0cb9096999200c89030b09010b0a0b0b020b0c036999080ca90969bb1069cc180ccb0b0c9b040b0a110b0b100b0c120b071369aa080cba0a69cc106977180cc7070c7a0a0b07050b0b040b0c060b08076977080cb70769cc106988180cc8080c78080b07150b0b140b0c160b09176977080cb70769cc106999180cc9090c79099d3b9d270cb70c0c98086988200c4a090c98089d880c8c0c6acc200cb8086988200cc8080f08f00602785b67c8005a6810010620f60388bafe0707db066817e01277e05a670801527102795b67c0005b6810014e06115b6a08015ba7185ba8085ba95baa105b6b80011cb7075b6b78011cb8080c87075b6898011ca8085b6a90011ca9090c98080c87070f0726fa6811f05b6738015a176867a0015b6840015a18085b68305b69385b6a405b6b485b6c50015b6448010620f8037d106811105b68b0015b69b8015b6aa8015b67a0010ca9090c870a0c9a0a6aaa200c98086988200ca8080f08300602770408205a6798010620fa03c9b9fe07071c065b6788015b6898016587075b6058019d025b6368019d396a9a38107a1f6a9a30107a1e6a9a28107a1d6a9a20107a1c6a9a18107a1b6a9a10107a1a5b6460019d4a1079186a99081079196aa9381079176aa9301079166aa9281079156aa9201079146aa9181079136aa9101079125b6870019d89107a106aaa08107a111079086a9a38107a0f6a9a30107a0e6a9a28107a0d6a9a20107a0c6a9a18107a0b6a9a10107a0a6a99081079096a29381079076a29301079066a29281079056a29201079046a29181079036a29101079025b6b500168bb011bb9015b6c4801659c0c0ccb091b99015b68380165890924890a5b68400165a8085a6c48015a6840010c8c0a5a6b50010c9b0b0cba0a10726a2808107801070aa4045a69380105a6f8686740025b6850015b6948015b6a38015b6b40010620fc037aec5b6758025a67285b6750025a67205b6748025a67185b6740025a67105b6750015b6838010c87075b6848015b6940010c98080c870707071a04040c040404070403116811f05a6778015a17686720025a6380015a13085b68305b69385b6a405b6b485a6c98015a6490010620fe03950e6811105b6830025b6938025b6a28025b6720020ca9090c870a0c9a0a6aaa200c98086988200ca8080f08480402770408205a67700106200004e1b7fe070734045b6788015b6870016587070b78185a68780b78195a68580b781a5a68680b781b5a68600b781c5a6890000b781d5a68700b781e5a6888000b781f5a6880000b78105a68b8000b78115a6898000b78125a68a8000b78135a68a0000b78145a68d0000b78155a68b0000b78165a68c8000b78175a68c0000b78085a68f8000b78095a68d8000b780a5a68e8000b780b5a68e0000b780c5a6810010b780d5a68f0000b780e5a6808010b780f5a6800010b785a6858010b78015a6818010b78025a6828010b78035a6820010b78045a6870010b78055a6830010b78065a6868010b77075a6760016811f05b6780015a1708686700025b6878015a185b68105b69185b6a205b6b285b6c98015b64900106200204420d6811105b6810025b6918025b6a08025b6700020ca9090c870a0c9a0a6aaa200c98086988200ca8080f08f50202770408205a6750062004048fb6fe0707e2025b6c980168cc011bc7015b6490016574045b675001247c075b6948011c94082494005387000c4c071b77015b6878016587075a6798012487085b6380016583035b6838012487025b6a40011ca30b24a30953b2091c870a0cba0a53a0095a6990015b69586999085b67780c79095b6a6869aa105b6b6069bb180cba0a0ca9095b6a7069aa085b6790000c7a0a5b6b880069bb105b6780006977180c7b0b0cba0a69aa200c9a005b6a980069aa085b67b8000c7a0a5b6ba80069bb105b67a0006977180c7b0b0cba0a5b6bb00069bb085b67d0000c7b0b5b68c8006988105b67c0006977180c87070cb7076977200c7a0a5b67d8006977085b68f8000c87075b6be80069bb105b68e0006988180c8b0b0cb7075b6bf00069bb085b6810010c8b0b5b6908016999105b6800016988180c98080cb8086988200c78095b6718016977085b6858010c87075b6828016988105b6b200169bb180cb8080c78025b6830016988085b6770010c78085b6b680169bb105b6760016977180cb7070c87076977200c27075b6b88015b6850658b0b6a783810b8076a783010b8066a782810b8056a782010b8046a781810b8036a781010b8026a780810b80110b76a973810b70f6a973010b70e6a972810b70d6a972010b70c6a971810b70b6a971010b70a10b9086a990810b9096aa73810b7176aa73010b7166aa72810b7156aa72010b7146aa71810b7136aa71010b71210ba106aaa0810ba116a073810b71f6a073010b71e6a072810b71d6a072010b71c6a071810b71b6a071010b71a10b0186a090810b9195b6798015b6890010f08f7fb5b67085b68105a785b68185a78085b68205a78105b68285a7818685100fd5b10f8025b15f0025b16e80268110003130004082004070620060402b4fe0707555b6888015d18185d18105d18085d084e487b7104070404082006200804dfb3fe0707325b6888010d1820000000110d181c0d18180d18140d18100d180c0d18080d1804040824040706200a04b0b3fe0f0704000168880104070104092404000c044e0b116811a05a10585a15505a164852b6528b5a19400c69080cab090c89096a99205a1a280ca8086988200c98085a17080f08ce0202b504082052575a1b3806200e0458b3fe0707b90204075000025a17306557071a171f201a171e1a171d1a171c1a171b1a171a1a17191a17181a17171a17161a17151a17141a17131a17121a17111a17101a170f1a170e1a170d1a170c1a170b1a170a1a17091a17081a17071a17061a17051a17041a17031a17021a17015b1a2827a8526927665398067608dfffffff000000005b1b3824b8085b1b4027bc5a1c1054bc085a190ca9095a19205496081a070f0818025a1518025520040820525706201004a1b2fe070702025b17306575051a151f211a151e1a151d1a151c1a151b1a151a1a15191a15181a15171a15161a15151a15141a15131a15121a15111a15101a150f1a150e1a150d1a150c1a150b1a150a1a15091a15081a15071a15061a15051a15041a15031a15021a15017607bfffffff000000005b18382487075b18405b19105489075b18205486071a050f0779015b1718027540040820040620525706201204ffb1fe070760015b17306575051a151d6c1a1514661a151a651a1517651a1513651a1510651a150e751a1512621a150d621a1516721a150b721a1509731a151e691a150c691a1508691a151c641a1519641a1507641056181056111056061a150f741a150a741a1505741a15156f1a15046f1a151f6e1a15036e1a15026e1a151b611a1501617607a0ffffff000000005b18382478075b184056875b182056871a05430707c0005b171802756004082052570620140449b1fe5b1b0707a8005b17306575051a151f1a151e1a151d1a151c1a151b1a151a1a15191a15181a15171a15161a15151a15141a15131a15121a15111a15101a150f1a150e1a150d1a150c1a150b1a150a1a15091a15081a15071a15061a15051a15041a15031a15021a15011a05655b1838688780002487085b1a40658a0924a90a53880a5b1828658a0a248a0865b8085b1b085ab75ab9085aba105ab8185b10585b15505b16486811601300006811a05a10585a15505a164852b6528b5a19400c69080cab090c89096a99205a1a300ca8086988200c98085a17200f082d0202b504082052575a1b38062016045bb0fe0707180204075000025a17286557071a171f201a171e1a171d1a171c1a171b1a171a1a17191a17181a17171a17161a17151a17141a17131a17121a17111a17101a170f1a170e1a170d1a170c1a170b1a170a1a17091a17081a17071a17061a17051a17041a17031a17021a17015b1a3027a8526927665398067608dfffffff000000005b1b3824b8085b1b4027bc5a1c1854bc085a19080ca9095a19105496081a070f0876015a15025520040820525706201804a4affe070761015b17286575051a151f1c1a151e1a151d1a151c1a151b1a151a1a15191a15181a15171a15161a15151a15141a15131a15121a15111a15101a150f1a150e1a150d1a150c1a150b1a150a1a15091a15081a15071a15061a15051a15041a15031a15021a15017607bfffffff000000005b18382487075b18405b19185489075b18105486071a050f07d8005b17027640040820040520526706201a0403affe0707c0005b17286576061a161f1a161e1a161d1a161c1a161b3110651a1a16196d1a16186f1a1617721a1616661065151a1614741a1613721a1612611a1611741a16107310650f1a160e741a160d731a160c751a160b6d10650a1a1609781a1608651a1607641a16066e1a1605691065041a1603651a1602671a1601611a06505b18386887602487085b1a40658a0924a90a53880a5b1830658a0a248a085b1b0865b8085b1b205ab75ab9085aba105ab8185b10585b15505b16486811601300006811a05a10585a15505a164852b6528b5a19400c69080cab090c89096a99205a1a300ca8086988200c98085a17200f08300202b504082052575a1b3806201c04ffadfe07071b0204075000025a17286557071a171f201a171e1a171d1a171c1a171b1a171a1a17191a17181a17171a17161a17151a17141a17131a17121a17111a17101a170f1a170e1a170d1a170c1a170b1a170a1a17091a17081a17071a17061a17051a17041a17031a17021a17015b1a3027a8526927665398067608dfffffff000000005b1b3824b8085b1b4027bc5a1c1854bc085a19080ca9095a19105496081a070f0879015a15025520040820525706201e0448adfe070764015b17286575051a151f201a151e1a151d1a151c1a151b1a151a1a15191a15181a15171a15161a15151a15141a15131a15121a15111a15101a150f1a150e1a150d1a150c1a150b1a150a1a15091a15081a15071a15061a15051a15041a15031a15021a15017607bfffffff000000005b18382487075b18405b19185489075b18105486071a050f07db005b17027640040820040520526706202004a7acfe0707c3005b17286576061a161f3010651e1a161d6e1a161c611a161b681a161a741065191a1618721a1617651a1616741a1615611a1614651a1613721a1612671065111a1610651a160f6210650e1a160d741a160c731a160b751a160a6d1065091a1608651a16077a1a1606691a1605731065041a1603651a1602671a1601611a06505b18386887602487085b1a40658a0924a90a53880a5b1830658a0a248a085b1b0865b8085b1b205ab75ab9085aba105ab8185b10585b15505b16486811601300006811a05a10585a15505a164852b6528b5a19400c69080cab090c89096a99205a1a300ca8086988200c98085a17200f08260202b504082052575a1b3806202204a0abfe0707110204075000025a17286557071a171f201a171e1a171d1a171c1a171b1a171a1a17191a17181a17171a17161a17151a17141a17131a17121a17111a17101a170f1a170e1a170d1a170c1a170b1a170a1a17091a17081a17071a17061a17051a17041a17031a17021a17015b1a3027a8526927665398067608dfffffff000000005b1b3824b8085b1b4027bc5a1c1854bc085a19080ca9095a19105496081a070f086f015a15025520040820525706202404e9aafe07075a015b17286575051a151f121a151e1a151d1a151c1a151b1a151a1a15191a15181a15171a15161a15151a15141a15131a15121a15111a15101a150f1a150e1a150d1a150c1a150b1a150a1a15091a15081a15071a15061a15051a15041a15031a15021a15017607bfffffff000000005b18382487075b18405b19185489075b18105486071a050f07d1005b1702764004082004052052670620260448aafe0707b9005b17286576061a161f1a161e1a161d1a161c1a161b1a161a1a16191a16181a16171a16161a16151a16141a16131a16121a1611781a1610651a160f641a160e6e1a160d6910650c1a160b651a160a671a1609611a1608701065071a1606641a1605691a16046c1a1603611a1602761a16016e1a06495b18386887602487085b1a40658a0924a90a53880a5b1830658a0a248a085b1b0865b8085b1b205ab75ab9085aba105ab8185b10585b15505b16486811601300006811b85a10405a15385a16305a1b185a19080c9b0b0ca8090cb9096a99205a1a100cba0a69aa200ca9095a1c285a17200f09440252455a18028604082052670620280448a9fe07072e025b145004005000026506060b68010b690b6a020b6b036988080c980869aa1069bb180cba0a0ca8080b69050b6a040b6b060b6c076999080ca90969bb1069cc180ccb0b0cb9096999200c89020b69090b6a080b6b0a0b6c0b6999080ca90969bb1069cc180ccb0b0cb9090b6a0d0b6b0c0b6c0e0b680f69aa080cba0a69cc106988180cc8080ca8086988200c98030b68110b6a100b6b120b6c136988080ca80869bb1069cc180ccb0b0cb8080b6a150b6b140b6c160b691769aa080cba0a69cc106999180cc9090ca9096999200c890a0b68190b69180b6b1a0b6c1b6988080c980869bb1069cc180b691d0ccb0b0cb8080b6b1c6999080b6c1e0b661f0cb9095b1b4869cc106966180c6c0c0cc9096999200c98089d889da99d3a9d2c1c4c0724c40c24ab06547c061c590224950c5b1928248908542c081cba0a0ca70754760807088b006ab73b6944050c74076a583b69bb050cb8086a9a3b6955050ca505699a055b1b65ba0a24ba0b5b1c08655c0965b9091cc90524c906535b065b1c1065c80865860624860b24c8085b1c1865c70765870765b70768a82024a80a65a90b249b0953aa0965690924690a65a7075b1a205aa85aab085aa9105aa7185b10405b15385b163068114813000405500002040820040706202a0467a7fe07074d5d15185d15105d15085d054e487b7104070404082006202c0448a7fe07072e0d1520000000320d151c0d15180d15140d15100d150c0d15080d1504040824040706202e041da7fe0f07040002580407010409244e0b04070400300405d6a7fe040706203004d0a7fe04070106203204c6a7fe00a58424092a24145248252da99424495292b4a452d2924ac994949424492a8408d542082111222222252142082180842425a9264949222242444492109154448424012492544a524a9292a488888888242122a9489488882449224925214992aa2449921212126a0a4952ad9049694a4286104208a12495009210a104020101010121101010101082404020048140204404422410020221201082908888484444949088884892a44408218488884844443422224942082149922449524949920a09a55688218450292584104a292591aa42444444444444440411918a88a40a92245525244992244944444444440411918a54904a922411119192549248aa4a2409114208a1929224514224d5504a93a424499224499224499254529224499224294988aa14420821494a2121841020090924499214b2248d88889224492292249224491249921492524a118914499210299148922409218408454555884892481229098924892492244992244922914492244992248924499224499294244992244992244992244992244992244912519400922849248944244912894a42244992248948924812494942441249924892882449922489a410912449922449922449922449525224128988a842845253480821044842024992248594b442464a2322221111d188882409218424499224492525490a09a5568821845025a54242a929499294925292244912854824124922a94a09111111111111111144442a22922a4892549542922449924444444444441011a94805524a92049220420821545292244a10493594a249929424495210a9520a21848424484a292549529024a59424552549499246444424492489a8281144119188249124424492244992244992244992244922914824128944914824128944a244414451022851922449922449922449922449922449922491482492442291489244229148128944224912912449922449922449922449922449922449922449929444440288444555224992481411444424228848224924128988442288482292241149129124499244240511499224499224499224499224450248249122895492888846442449082124499224492a2949524142a915c41042a80a2184a2284aa42a8888484411414444444444444444440411918a88882488882492441209218408154591a8404444124924492449521444124922894444444444441011a94822491289484422129188888808222215894422914492241211111111114144a42222222209222249aa9224492429092292488aa2244992244992244992244992244992244992a49400929214119124059148499224898424499224499224499224492a121111049044221211111111490a2292922449922425499224499294244992244952929224499224012489442491a42002481289482425499224494a9224499224294992244992a424499224495212891444244a92244992288a922449922449922449922449922449922491249224924492244992244949249282483594a211119110424892244992545292a48208a5861042a594104228a59444aa0a2222222222222222888854442455204952558224499224898888888888202252910aa4922489888848492a492455492409124208a1929224294126154d92a4244992822829a51042484882a4945292240549524a49525592942469922449082124499224492a2949524142a915c4102a8024a908a14a5205491211111111114144a4229148244124841042252549a2248824a5949224499224499224499224499224499224254992244992204aad2042a9a1148d88884444442322922484109224499224959424a920a1d40a62082154255215444444444444444444441011a988884882884822492491104288505114890a44442491449244922445411244249124924824494551242a1011914412491249921405914492482211111111111144442a924812492222222222222222222288885424912492484444444444444444440411918a2492249188442422118988888820225291482249128988888888882022521111119104119124554992249294144424518aa2244992244992244992244992244992244992a494009294a488249144109124499244249124499224499224499224295144445000495144444444445210892492249248124992444a922449929224499224499424499224494a92244992242545a2888882009224918888888888a420225192244992444992244992244a922449922451929224499224012449124944a420225192244992444992244992244a922449922451929224499224012449124944a42022294992244952922449922449499224499224252949922449124092249144440a2245922449922449922449922449004992448a881444244a92244992288a922449922449922449922449922449922491249224924492244992244949241205916a28452322221111d188882409218424499224492a4828b58218454429494912a90a22222222222222228888d48888249104114208a12a499244929404912449922449922449922449889024499224492049929424499224499224492409a2a49124454429494912a90a2291484444444444441011a9442211111111494511111189442251415410112222028888101111d124412449252549a20491549320922429259a244949928888489224514a8248245123118d88489224511244923494a211119110424892244992545292a42042a921845025a58208a5a624499214494a8224a54a4a05114a8d24128994244992922441925425950a22941a9124494912111191222222222222a24882841042a8a424494a9049452322221111d188882409218424499224492525490a124aad2086104295940a124a4d4992244582888808444444442441841042a84a92241149520a221249922449922449922449924424224992222905915202485292882412894422914824128944229148241289442291481489442291482412a52022914824894422912489442291241289449224128944924824124992482412492291482449224992244992a424499224499224499224499224499224492249244992481211b124491249124992244992445210a9685511914492484a29258088888818119548918824222222222988284a44a224119144922491482412894422914824128944229148248a4422914824122582888848128924128944224992442291489244229148128944224912894422492412892449241289249148249224114992244992a42449922449922449922449922449922449922492244992249124894422914422918844441451442494a211119188886844449284104292244992a49292241524945a413284108aa22891aa20222222222222228288484544520591485445041111111125124922222222229148444444440411911a11914412492449228088249244124924128988888808222215a92089249144222222222222888854444444544544c4888888081111111144446a44442491441249928822912a2288888844141144442449924444444444441011a91111914892241249922449922491482211492491884841842184004910812449928228691244082184aa24491211112582882449922449922449922449889048224924910844444452249144922449922489440451a2118948228a8888881811212222228214118d88882492442249924491481511444444228a2248229112492422111111112552a244c4880811111111a44644441249249124892a8a44aa8888228888484411414444228924914844444444440429221a111191244924912449442249128924912492482289241249a4481249225249a4444a8944494a444a52929244222211492251924429a544924a89522249499294a45224894814151515512489888844124922898888888888888888888888888888888888484422129188442422111189484422129188442422228924924822894424221189484422129188444412499224499224499224499224499224499224492249922449922449922489444a922449922492244912894892884444444444444444444444444444444444442412894422222222222222222222222222222222222222222222222222228924499224499224499224499224499224499224912449922449922449922429499224499224499224914824914824122349228948892491449244924812491291482422492449249244124922894492241149244924118924115131124924892489482291181131499224222222222222228288488d88884422492412494a922449922411111111111111114144a48888222222222222222222a9888888888888888888885444249144aa828888888888888888888888488d888844922489249124492449924444444444444444041191228a8888888888888888a4228944249144222222894422111111114144a4222222914824222222924a822484104225254992224822d5142421294842529084845234222292246992244908212449922449524142a915c488081111494244529148249220092184504949922809224929a52449922449922449922449922449922449499224499224885243291a111149923449922484109224499224a920a1d40a62444492240991a492244990841042a8a4244994822829a524499224254992244992244992244992244992204a0da5689224499226499284104292244992241524945a414c82841042a8a424494a82248948922449922449922449921244a9a1148d888824499a244912420849922449925490506a0531464444444a92244990841042a8a42449940491a4945292244992244992244992244992244992a424499224491244a9a1144d922449d224499210424892244992a48284522b884990104208959424494990242192244992244992244992a404516a2845232222499226499284104292244992241524945a418c881011912444241589442209921042089594248992209294524a9224499224499224499224499224499294244992244982283594a2499224499a244912420849922449925490506a053109124208a19292242909928488244992244992244992242941941a4ad18888484444442322928444082124499224492a2949524122b582640821842491048924a94a92248988281144244992244992244992244942844412492289442022222184902492202249aa922449444494082292244992244992244992242142228924914422101191aaa8244992244992489224492411154924894822259148129144228924894812294a4aa42422519448899414294924490a22128988081111111144446a4444449214499224228924299124492449922449444484888888082222524423222222499224498988101111114144a422224624928844224922924841c424411244304992240551d224884892aa24491211112582882449922449922449922449889048224924910844448ca44822892449922449128908a24434499244929282882441124490888888248888442289244922892492442291244545514144244924895210118992244992244a9224499224519224499224899224499224494422114989444422128948442291888818114552551011111189a444249144249148221145041111111191882222220211114992244a818844511425499224499224499224499224499224494a922449922412514444442022224992440944249124924824924422499248021149529524499224922410912449922449922449922449929408242925802425492291442291482412894422914824128944229148248a44229148241249229024128924914824922491482492442291489214254992449224492491482492442291489244229148128944224912912449922449922449922449922449922449922449929424a9248924499224499224914444444c4a922449922449922449920249aa1111914824924824120144003109249124514451441155818844924892940249244992244992244992244992442422515412498124124992244992244992244992442251541249812412499224499224499224499244225154124981249224499224499224499224492291282a8948812492244992244992244992244922225154129102492449922449922449922449924444a2a8242205928848244992244992244992244992445149442290442411499288242249922449229224499224499224499224494a92289024912492482492442291248948244992244952244992244992489224499224912449922449222212150144009124231291249224510a24892492249224912449a4244992242949922449925492244992244992244992241189485449922805924892244992244992244992244992244992a4244992244992244992244992244992a42a224922495222904444229224892492482291482412894422914824128944229148241225024922914812894422491289442249241289244924128924914824922411499224499224499224499224499224499224494422124525911448221291288a24924822914824128944229148241289442291482412452291482412892402494422492291481289442249128944224924128924492412892491482492249148249244229148924422924892244992244992244992944855a240242251944444444444522089481445124924128944229148241289442291482412894422912812894422914824114822129124224922922411494992244992a4244992244952922449922429499224494a22914824894422912489442291241289449224128944924824124992482412492291482449aa2251201289a224222222229202491425128922118924924822914824128944229148241289442291482412452291482412892402492291481289442249128944224924128924492412892491482492249148249244229148924424499224499292244992244992244992244992244992241289a224112990444422129148228924128944229148241289442291482412894422512412894422918844204924124922914824492291482489442291248944229124128944922412894492482412499288244992244952922449922449922449922449922449924444a22849440a24119188442492482289442291482412894422914824128944229148148944229148242211481289449248241249924824124922914824492291482489442291248944229124128944922422499224499294244992244992244992244992244992241191284a1291024944242211892492482291482412894422914824128944229148241245229148241289480492442291241289449224128944924824124992482412492291482449229148248944229124495244121189a224499224499224499224494a225220898844242291441249241289442291482412894422914824128944a2482412894422118940442411894412894422914824894422912489442291241289449224128944924824124992482412492291482449229224499224494992244992244992244992244992244992482492244922492291244922492249a4888888888888888894a2a902194ad124a9244992244a094448224992244992244992244992540920494992142505228924499224499224499224490248922445490a4412912449922411111111111111119124499224494992a449925449929404228410425592244992481288244992244992244992244942842449922449822449529224499224499224499240964493a4922449922825102189244992244992244992244952258024254952941488249224499224499224499224092049921425291049444444442449922422222222222292244992242949923449922a49929240841042a84a922449124902912449922449922449922449889024499224499024494a92244992244992244912c89268925492244912a5042224912449922449922449922449aa0490a424498a92029144922449922449922449922401244992a224052289888888888888888848922411111149922449929424499a4824128922a294242549128944222222228288488d882449922849922449922411111111111144442a222292482412111111492529499224491211111111114144a41289442291482422924a02114208095549922449a424100124292925495249922449929224499224494a9224499224294992244992942492241049524a294992244992244992244992244992244952922449922449209242082149292922224a0211420809554992244922492092244992244992244992244988902449922449041111494a92244992244992244912c824d188884844449240841042845251145520222222222222228288488d4892244944229152202292524a922449529224499224499224499224499224492022892491442249524a4a4aa20a2222922449922449922a81941240244a92242229109124499224499294244992244992244992244992244992244912884822492491489294929292a8828888244992244992a44a20804824492292021149922449922449499224499224499224499224499224499244124922894444444444441011a9014422491291482412498188a4945292244992244992244992244992244992a4244992244922892491442222222222228888d4002291248948241289488188a4945292244992244992244992244992244992a4244992244922892491442222222222228888d4002291248948241289488188a4945292244992244992244992244992244992a4244992244922892491442222222222228888d4002291248948440a448a24499224499224499224499222892491442222222222228888d40022912489888888888814884814455192244992244992244992244992244992a424499224491225912422229a249524499244298108492449922449922449922449922a0124294992a2a44024912449922449922449922449004992a42849814822222222224992444444444444444492244992242549924644442a4992244992242502494824499224499224499294244992244992244992244992244992a4142549a24824128944229148241289a424154949a222359292244992a42449528a4824124922914824492a898824898808224992249124924451952449229248128924499224492412492449924454924492884492249524922491248962444444444444440411918a888888888888488a46442449224924922492242952242925124922498288888848444515222322254922492289244992248948128824294992244992244992244992244992244992244992244992244992244992244992aa88888888a42415498d24129144128948224924914492482291a4221151452249a224920490a4229208442249922449922449922449922449922449124992244992244992444a92244992244992888888888888888888888888888888880882200841100421088220044110840022220288002222222289244992244992244912499224499224499224499224499224499292244992244992a44489a24492244992244992a86454922449224a4a92244992244992249208442249922449922449924492244992244992249124499224499224494a922449922449928888888888888888888888888888888820088210044110822008421004410820222280082022222292489224499224499224499224499224499224499224499224499292244992244992244a94522222222292925424954992244992241289445292a26a2291482425299654444494029124411248500a2449822490609224495220934423222225a9249154258144444410111111118d482489249224499288888888480492109194244992244992244992244992244992244992244992244992244992144991244992244945124992248a88888822914824092491245549224924128924892449241148028844895292884492244992244592244992248924499224499224922411482292922449922425499224499294922449922449922449922489484492242549894012914892244992244992244992244a8a88a8401281249224499224499224499224499224499224254992244992244992244992244952499292244911812489a2281289a4441111115124128924812492a4288a2251052211892449a24420a24449a22422254992244949922449922425499224499224491245092092281291144904222229499224495292244992242925499224499292942449922409201291882411490422224992244992244992244992248048442292229208444492244992244992244992244900918844248a8844202292922449922425499224499294244992244952922449922429498a145144912492aa2490888844228a08242222222211882449922449922449922449922449922449922449521425222222222222222288885424221111111111111111492502919424499224499224499224499224499224499224499224499224499224491249924892489248550a92084424452449529224499224499244922449922449922449922449922449922449922449922489248924298a228a8888888888082222954824222222222222924a042292884412294992244992244922499224499224499224499224499224499224499224499224894490488aa288222222222222222252898888888888888888a4128188a4882412894422294992244992244922499224499224499224499224499224499224499224499224098aa2882222222222222222221511111111111111119154444494042292a42a22912492442402119124499224499224499224091122914492482211444444522491449224499224492422909188264925499224514a2042124992244992244992244992a44a00494a92a428291049244992244992244992244912409224294a522092244992444444222211111189888824499224494a92244d924a922449a294408424922449922449922449922449950092942449515220924892244992244992244992248024495294a44024499224499244442222121111119124499224494992a489888820128944a289244992244992442412894412889024254992244992244992244992244992244992244992244992244992242529499224499254922449224949aa9424492222444444441011a9111149922449a22445922a0924222249a424908888244992442291888888882022522322922449922449241289444444440411914a24128944229188482a4949aa24494992445295041211912449924824121111111144446a444492244992244949922449922489442291888888882022528944229148241211494544444920922455499224492249209224499224499224499224498890244992244904111149029124a94a9224491249029124499224499224499224494284244992244922888898a4244992244992244922490291a44424220592244112480249922405324934492a4992248952021192489224499224499224499224550248529224454981482249922449922449922449920092244951920291244992244944444444221211118924499224494a92244d924a922449a294408424922449922449922449922449950092942449515220924892244992244992244992248024495294a4402411118988484444442422111189888824499224494a92244d924a922449a294408424922449922449922449922449950092942449515220924892244992244992244992248024495294a4402411111149922449222222222222229224499224294992342222495244229224494a04921091244992245292244992244992244992244992244992244992244992244992244922499224492949423422224942922449483422224942922449281a119124214992244c9224499288081111111144446a444424912491484422922422424444440411918a8810111111119154141111914449aa4824921245229148124822498aa2281255201291489224291148a24449a224222549922449499224499224254992244992244912450920922812919424114822122549922449942449922449a22449922449122529499224491240242211499248229044244a92244992284992244992444992244992244a52922449922480484422922491442089484a92244992942449922449a22449922449122529499224491240242211499288442089484a9224499294244992244952922449922449494a92244992041089484492242211482292922449922425499224499294244992244952929224499224014422129124894802492449922449922449922449922480484422929288442089489224499224499224499224498944a22a229088888888442049922449922449922449922449922449922449922445298988888888888888202252914822222222121111114925024952922449922449922449922449922449922449922449922449922449922449244922492249225529482290442291242949922449922449922449922449922449922449922449922449922449922449224922552982240249242592242949922449922449224992244992244992244992244992244992244992244992449244921445114544444444440411914a2412898888888888a4128124924422494a92244992244992489224499224499224499224499224499224499224499224492209124951145144444444444444442a91884844444444442495082491149144929224499224499224922449922449922449922449922449922449922449922449244924495114514444444444441011a9442222222222222222a9241091482492244992249192244922499224892449922449922449922449922449922449922449221149128920912822222222222222225211111189888888888888482a1188488a482291482492922449922449922492244992244992244992244992244992244992244992244992a0288a2822222222222222225211111111111111111149459148248992549148248a241091245511491249a24404222251144549922449922449922449922449922449929224499224519400225124118944128188482489488824499224499224499224495222491411114800918844242222222222894044248aa2284992244992244992244992244992244952922449922480481425228940442422494412494492241129499224494a922449922451922449922429499224499294241251444405121111499144124992244992241211889494242549218490a44a9244892222a22410218410a12a229124924424021191244992244992244992240911229144924822114444445224914492244992248948442022d1241091245511892491242211888824499224499224499224498810892492441289202222922289249224499224494422021189a64044922009242845249048122481042349922405329268925492924802912449922449922449420821a154a90249922449a214889494124052929424499224294992244992a42449922449929224499224494924499208092121490944922449124921092449929424a540420821401248204992a440964493242949920291524a218490900249524a495255929424694444a488444424121111111144446a444492449224294992a4244522225122114922499408444824a524499224494992244992242549922449922425499224491249244924892411950052922811888822122949922449a224499224491225499224499228494992244992a4249288201245a4145122228a8a8c8888888888a424252589a89446924492249124922449922422914814490291244a9224499228499224499244519224499224495292244992249144229248124924892449924492482249a428222a9224922489244992942422224a818410420448028940922449818c241a1111292222111122222222888814114544441011111111028844229128918848440051448c44124992881111222222224811d18888482289249224518aa40a2422222222094424912492482449511445120589888848228924922292449254114844229224894804228a1291284944244992244992244992489224499224499224254992244992244992244992244952942429491229221011894892242292144523229148148940442412898a489224499224499224499224499224499294244992244992244992244992244925494a9244118148a2221a498944128924912822491211242222499244894044248a92244992244a922449922451922449922449922449922491449248221189a4242211111144229148442292a89a28224912112422224992448940442449922491241289442291482412894422914824124522914824128944224a92882011114992244a0211492412499248241289244922499224492291489244229148128944224912894422492412892449241289249148249224912449922449529224499224499224499224499224499224229292248988885220912448028940922449818c249a249524499244298108492449922449922449922449922a012429294991a44024912449922449922449922449004992a4489202914444444444444444442489888888880820492991a44091244992244992244992244992249224499292244993a49224499228251021892449922449922449922449522580242549529414882492244992244992244992240920499214252910499244222212111189884844442422922449922429499234492a499224895202119248922449922449922449922455024852922445498148224992244992244992244992009224495192029144222212111111894844442222121149922449929424499a249524499244298108492449922449922449922449922a0124294992a2a44024912449922449922449922449004992a42849814892244992248988884444242222224992244992922449932449922449a24a8148484a922449922449922449922449922449922449922449922449922449922449922455499224491249922449499224499224499224494992a4900249122481049224490a64494514482000"
				},
				"methodIdentifiers": {
					"MONTH()": "d5999a5c",
					"TWO_WEEKS()": "934d1fa4",
					"WEEK()": "f4359ce5",
					"answers(uint256,uint256)": "2401519c",
					"askQuestion(string,string,uint8)": "48c9438f",
					"balance()": "b69ef8a8",
					"balances(address)": "27e235e3",
					"closeQuestion(uint256,uint256)": "01b49d47",
					"distributeRewards(uint256)": "59974e38",
					"getQuestions(uint256,uint256)": "fd1df035",
					"getQuestionsByCategory(string)": "55ce8034",
					"owner()": "8da5cb5b",
					"questionIdCounter()": "61e78617",
					"questions(uint256)": "31b1b978",
					"submitAnswer(uint256,string)": "01fa3bec",
					"voteFee()": "da2b4c1e",
					"voteForAnswer(uint256,uint256)": "2690567e",
					"withdraw()": "3ccfd60b"
				}
			},
			"hash": "48c9dc94f3659acc20f129f2ce35111a614ee6c2619aef711f35691d2d05a920",
			"factoryDependencies": {}
		}
	}
}