{
	"contracts/InquireA.sol": {
		"InquireA": {
			"abi": [
				{
					"inputs": [],
					"stateMutability": "nonpayable",
					"type": "constructor"
				},
				{
					"anonymous": false,
					"inputs": [
						{
							"indexed": false,
							"internalType": "uint256",
							"name": "questionId",
							"type": "uint256"
						},
						{
							"indexed": false,
							"internalType": "uint256",
							"name": "answerId",
							"type": "uint256"
						},
						{
							"indexed": true,
							"internalType": "address",
							"name": "responder",
							"type": "address"
						},
						{
							"indexed": false,
							"internalType": "string",
							"name": "answerText",
							"type": "string"
						}
					],
					"name": "AnswerSubmitted",
					"type": "event"
				},
				{
					"anonymous": false,
					"inputs": [
						{
							"indexed": false,
							"internalType": "uint256",
							"name": "questionId",
							"type": "uint256"
						},
						{
							"indexed": true,
							"internalType": "address",
							"name": "asker",
							"type": "address"
						},
						{
							"indexed": false,
							"internalType": "string",
							"name": "questionText",
							"type": "string"
						},
						{
							"indexed": false,
							"internalType": "uint256",
							"name": "rewardAmount",
							"type": "uint256"
						},
						{
							"indexed": false,
							"internalType": "string",
							"name": "category",
							"type": "string"
						}
					],
					"name": "QuestionAsked",
					"type": "event"
				},
				{
					"anonymous": false,
					"inputs": [
						{
							"indexed": false,
							"internalType": "uint256",
							"name": "questionId",
							"type": "uint256"
						},
						{
							"indexed": false,
							"internalType": "uint256",
							"name": "chosenAnswerId",
							"type": "uint256"
						}
					],
					"name": "QuestionClosed",
					"type": "event"
				},
				{
					"anonymous": false,
					"inputs": [
						{
							"indexed": false,
							"internalType": "uint256",
							"name": "questionId",
							"type": "uint256"
						},
						{
							"indexed": false,
							"internalType": "uint256",
							"name": "answerId",
							"type": "uint256"
						},
						{
							"indexed": true,
							"internalType": "address",
							"name": "voter",
							"type": "address"
						}
					],
					"name": "Voted",
					"type": "event"
				},
				{
					"inputs": [],
					"name": "MONTH",
					"outputs": [
						{
							"internalType": "uint256",
							"name": "",
							"type": "uint256"
						}
					],
					"stateMutability": "view",
					"type": "function"
				},
				{
					"inputs": [],
					"name": "TWO_WEEKS",
					"outputs": [
						{
							"internalType": "uint256",
							"name": "",
							"type": "uint256"
						}
					],
					"stateMutability": "view",
					"type": "function"
				},
				{
					"inputs": [],
					"name": "WEEK",
					"outputs": [
						{
							"internalType": "uint256",
							"name": "",
							"type": "uint256"
						}
					],
					"stateMutability": "view",
					"type": "function"
				},
				{
					"inputs": [],
					"name": "answerIdCounter",
					"outputs": [
						{
							"internalType": "uint256",
							"name": "",
							"type": "uint256"
						}
					],
					"stateMutability": "view",
					"type": "function"
				},
				{
					"inputs": [
						{
							"internalType": "uint256",
							"name": "",
							"type": "uint256"
						},
						{
							"internalType": "uint256",
							"name": "",
							"type": "uint256"
						}
					],
					"name": "answers",
					"outputs": [
						{
							"internalType": "address",
							"name": "responder",
							"type": "address"
						},
						{
							"internalType": "string",
							"name": "answerText",
							"type": "string"
						},
						{
							"internalType": "uint256",
							"name": "upvotes",
							"type": "uint256"
						},
						{
							"internalType": "uint256",
							"name": "rewardAmount",
							"type": "uint256"
						},
						{
							"internalType": "uint256",
							"name": "createdAt",
							"type": "uint256"
						}
					],
					"stateMutability": "view",
					"type": "function"
				},
				{
					"inputs": [
						{
							"internalType": "string",
							"name": "_questionText",
							"type": "string"
						},
						{
							"internalType": "string",
							"name": "_questionContent",
							"type": "string"
						},
						{
							"internalType": "string",
							"name": "_category",
							"type": "string"
						},
						{
							"internalType": "enum InquireA.DeadlinePeriod",
							"name": "_deadlinePeriod",
							"type": "uint8"
						}
					],
					"name": "askQuestion",
					"outputs": [],
					"stateMutability": "payable",
					"type": "function"
				},
				{
					"inputs": [],
					"name": "balance",
					"outputs": [
						{
							"internalType": "uint256",
							"name": "",
							"type": "uint256"
						}
					],
					"stateMutability": "view",
					"type": "function"
				},
				{
					"inputs": [
						{
							"internalType": "address",
							"name": "",
							"type": "address"
						}
					],
					"name": "balances",
					"outputs": [
						{
							"internalType": "uint256",
							"name": "",
							"type": "uint256"
						}
					],
					"stateMutability": "view",
					"type": "function"
				},
				{
					"inputs": [
						{
							"internalType": "uint256",
							"name": "questionId",
							"type": "uint256"
						},
						{
							"internalType": "uint256",
							"name": "answerId",
							"type": "uint256"
						}
					],
					"name": "closeQuestion",
					"outputs": [],
					"stateMutability": "nonpayable",
					"type": "function"
				},
				{
					"inputs": [
						{
							"internalType": "uint256",
							"name": "questionId",
							"type": "uint256"
						}
					],
					"name": "distributeRewards",
					"outputs": [],
					"stateMutability": "nonpayable",
					"type": "function"
				},
				{
					"inputs": [
						{
							"internalType": "uint256",
							"name": "questionId",
							"type": "uint256"
						},
						{
							"internalType": "uint256",
							"name": "answerId",
							"type": "uint256"
						}
					],
					"name": "getAnswerById",
					"outputs": [
						{
							"components": [
								{
									"internalType": "address",
									"name": "responder",
									"type": "address"
								},
								{
									"internalType": "string",
									"name": "answerText",
									"type": "string"
								},
								{
									"internalType": "uint256",
									"name": "upvotes",
									"type": "uint256"
								},
								{
									"internalType": "uint256",
									"name": "rewardAmount",
									"type": "uint256"
								},
								{
									"internalType": "uint256",
									"name": "createdAt",
									"type": "uint256"
								}
							],
							"internalType": "struct InquireA.Answer",
							"name": "",
							"type": "tuple"
						}
					],
					"stateMutability": "view",
					"type": "function"
				},
				{
					"inputs": [
						{
							"internalType": "uint256",
							"name": "questionId",
							"type": "uint256"
						}
					],
					"name": "getQuestionById",
					"outputs": [
						{
							"components": [
								{
									"internalType": "uint256",
									"name": "id",
									"type": "uint256"
								},
								{
									"internalType": "address",
									"name": "asker",
									"type": "address"
								},
								{
									"internalType": "string",
									"name": "questionText",
									"type": "string"
								},
								{
									"internalType": "string",
									"name": "questionContent",
									"type": "string"
								},
								{
									"internalType": "string",
									"name": "category",
									"type": "string"
								},
								{
									"internalType": "uint256",
									"name": "rewardAmount",
									"type": "uint256"
								},
								{
									"internalType": "uint256",
									"name": "createdAt",
									"type": "uint256"
								},
								{
									"internalType": "uint256",
									"name": "deadline",
									"type": "uint256"
								},
								{
									"internalType": "bool",
									"name": "isClosed",
									"type": "bool"
								},
								{
									"internalType": "uint256",
									"name": "chosenAnswerId",
									"type": "uint256"
								}
							],
							"internalType": "struct InquireA.Question",
							"name": "",
							"type": "tuple"
						}
					],
					"stateMutability": "view",
					"type": "function"
				},
				{
					"inputs": [
						{
							"internalType": "uint256",
							"name": "pageIndex",
							"type": "uint256"
						},
						{
							"internalType": "uint256",
							"name": "pageSize",
							"type": "uint256"
						}
					],
					"name": "getQuestions",
					"outputs": [
						{
							"components": [
								{
									"internalType": "uint256",
									"name": "id",
									"type": "uint256"
								},
								{
									"internalType": "address",
									"name": "asker",
									"type": "address"
								},
								{
									"internalType": "string",
									"name": "questionText",
									"type": "string"
								},
								{
									"internalType": "string",
									"name": "questionContent",
									"type": "string"
								},
								{
									"internalType": "string",
									"name": "category",
									"type": "string"
								},
								{
									"internalType": "uint256",
									"name": "rewardAmount",
									"type": "uint256"
								},
								{
									"internalType": "uint256",
									"name": "createdAt",
									"type": "uint256"
								},
								{
									"internalType": "uint256",
									"name": "deadline",
									"type": "uint256"
								},
								{
									"internalType": "bool",
									"name": "isClosed",
									"type": "bool"
								},
								{
									"internalType": "uint256",
									"name": "chosenAnswerId",
									"type": "uint256"
								}
							],
							"internalType": "struct InquireA.Question[]",
							"name": "questionsList",
							"type": "tuple[]"
						},
						{
							"internalType": "uint256",
							"name": "totalQuestions",
							"type": "uint256"
						},
						{
							"internalType": "uint256",
							"name": "totalPages",
							"type": "uint256"
						}
					],
					"stateMutability": "view",
					"type": "function"
				},
				{
					"inputs": [
						{
							"internalType": "string",
							"name": "_category",
							"type": "string"
						}
					],
					"name": "getQuestionsByCategory",
					"outputs": [
						{
							"internalType": "uint256[]",
							"name": "",
							"type": "uint256[]"
						}
					],
					"stateMutability": "view",
					"type": "function"
				},
				{
					"inputs": [],
					"name": "owner",
					"outputs": [
						{
							"internalType": "address",
							"name": "",
							"type": "address"
						}
					],
					"stateMutability": "view",
					"type": "function"
				},
				{
					"inputs": [],
					"name": "questionIdCounter",
					"outputs": [
						{
							"internalType": "uint256",
							"name": "",
							"type": "uint256"
						}
					],
					"stateMutability": "view",
					"type": "function"
				},
				{
					"inputs": [
						{
							"internalType": "uint256",
							"name": "",
							"type": "uint256"
						}
					],
					"name": "questions",
					"outputs": [
						{
							"internalType": "uint256",
							"name": "id",
							"type": "uint256"
						},
						{
							"internalType": "address",
							"name": "asker",
							"type": "address"
						},
						{
							"internalType": "string",
							"name": "questionText",
							"type": "string"
						},
						{
							"internalType": "string",
							"name": "questionContent",
							"type": "string"
						},
						{
							"internalType": "string",
							"name": "category",
							"type": "string"
						},
						{
							"internalType": "uint256",
							"name": "rewardAmount",
							"type": "uint256"
						},
						{
							"internalType": "uint256",
							"name": "createdAt",
							"type": "uint256"
						},
						{
							"internalType": "uint256",
							"name": "deadline",
							"type": "uint256"
						},
						{
							"internalType": "bool",
							"name": "isClosed",
							"type": "bool"
						},
						{
							"internalType": "uint256",
							"name": "chosenAnswerId",
							"type": "uint256"
						}
					],
					"stateMutability": "view",
					"type": "function"
				},
				{
					"inputs": [
						{
							"internalType": "uint256",
							"name": "questionId",
							"type": "uint256"
						},
						{
							"internalType": "string",
							"name": "_answerText",
							"type": "string"
						}
					],
					"name": "submitAnswer",
					"outputs": [],
					"stateMutability": "nonpayable",
					"type": "function"
				},
				{
					"inputs": [],
					"name": "voteFee",
					"outputs": [
						{
							"internalType": "uint256",
							"name": "",
							"type": "uint256"
						}
					],
					"stateMutability": "view",
					"type": "function"
				},
				{
					"inputs": [
						{
							"internalType": "uint256",
							"name": "questionId",
							"type": "uint256"
						},
						{
							"internalType": "uint256",
							"name": "answerId",
							"type": "uint256"
						}
					],
					"name": "voteForAnswer",
					"outputs": [],
					"stateMutability": "payable",
					"type": "function"
				},
				{
					"inputs": [],
					"name": "withdraw",
					"outputs": [],
					"stateMutability": "nonpayable",
					"type": "function"
				}
			],
			"devdoc": {
				"kind": "dev",
				"methods": {},
				"version": 1
			},
			"evm": {
				"assembly": "    /* \"contracts/InquireA.sol\":60:9072  contract InquireA {... */\n  mstore(0x40, 0x80)\n    /* \"contracts/InquireA.sol\":137:147  0.01 ether */\n  0x2386f26fc10000\n    /* \"contracts/InquireA.sol\":112:147  uint256 public voteFee = 0.01 ether */\n  0x01\n  sstore\n    /* \"contracts/InquireA.sol\":1596:1713  constructor() {... */\n  callvalue\n  dup1\n  iszero\n  tag_1\n  jumpi\n  0x00\n  dup1\n  revert\ntag_1:\n  pop\n    /* \"contracts/InquireA.sol\":1629:1639  msg.sender */\n  caller\n    /* \"contracts/InquireA.sol\":1621:1626  owner */\n  0x00\n  dup1\n    /* \"contracts/InquireA.sol\":1621:1639  owner = msg.sender */\n  0x0100\n  exp\n  dup2\n  sload\n  dup2\n  0xffffffffffffffffffffffffffffffffffffffff\n  mul\n  not\n  and\n  swap1\n  dup4\n  0xffffffffffffffffffffffffffffffffffffffff\n  and\n  mul\n  or\n  swap1\n  sstore\n  pop\n    /* \"contracts/InquireA.sol\":1670:1671  1 */\n  0x01\n    /* \"contracts/InquireA.sol\":1650:1667  questionIdCounter */\n  0x02\n    /* \"contracts/InquireA.sol\":1650:1671  questionIdCounter = 1 */\n  dup2\n  swap1\n  sstore\n  pop\n    /* \"contracts/InquireA.sol\":1702:1703  1 */\n  0x01\n    /* \"contracts/InquireA.sol\":1684:1699  answerIdCounter */\n  0x03\n    /* \"contracts/InquireA.sol\":1684:1703  answerIdCounter = 1 */\n  dup2\n  swap1\n  sstore\n  pop\n    /* \"contracts/InquireA.sol\":60:9072  contract InquireA {... */\n  dataSize(sub_0)\n  dup1\n  dataOffset(sub_0)\n  0x00\n  codecopy\n  0x00\n  return\nstop\n\nsub_0: assembly {\n        /* \"contracts/InquireA.sol\":60:9072  contract InquireA {... */\n      mstore(0x40, 0x80)\n      jumpi(tag_1, lt(calldatasize, 0x04))\n      shr(0xe0, calldataload(0x00))\n      dup1\n      0x59974e38\n      gt\n      tag_23\n      jumpi\n      dup1\n      0xcba13030\n      gt\n      tag_24\n      jumpi\n      dup1\n      0xcba13030\n      eq\n      tag_17\n      jumpi\n      dup1\n      0xd5999a5c\n      eq\n      tag_18\n      jumpi\n      dup1\n      0xda2b4c1e\n      eq\n      tag_19\n      jumpi\n      dup1\n      0xe25f3e02\n      eq\n      tag_20\n      jumpi\n      dup1\n      0xf4359ce5\n      eq\n      tag_21\n      jumpi\n      dup1\n      0xfd1df035\n      eq\n      tag_22\n      jumpi\n      jump(tag_1)\n    tag_24:\n      dup1\n      0x59974e38\n      eq\n      tag_12\n      jumpi\n      dup1\n      0x61e78617\n      eq\n      tag_13\n      jumpi\n      dup1\n      0x8da5cb5b\n      eq\n      tag_14\n      jumpi\n      dup1\n      0x934d1fa4\n      eq\n      tag_15\n      jumpi\n      dup1\n      0xb69ef8a8\n      eq\n      tag_16\n      jumpi\n      jump(tag_1)\n    tag_23:\n      dup1\n      0x31b1b978\n      gt\n      tag_25\n      jumpi\n      dup1\n      0x31b1b978\n      eq\n      tag_7\n      jumpi\n      dup1\n      0x3ccfd60b\n      eq\n      tag_8\n      jumpi\n      dup1\n      0x4a8f164f\n      eq\n      tag_9\n      jumpi\n      dup1\n      0x55ce8034\n      eq\n      tag_10\n      jumpi\n      dup1\n      0x572491c3\n      eq\n      tag_11\n      jumpi\n      jump(tag_1)\n    tag_25:\n      dup1\n      0x01b49d47\n      eq\n      tag_2\n      jumpi\n      dup1\n      0x01fa3bec\n      eq\n      tag_3\n      jumpi\n      dup1\n      0x2401519c\n      eq\n      tag_4\n      jumpi\n      dup1\n      0x2690567e\n      eq\n      tag_5\n      jumpi\n      dup1\n      0x27e235e3\n      eq\n      tag_6\n      jumpi\n    tag_1:\n      0x00\n      dup1\n      revert\n        /* \"contracts/InquireA.sol\":6559:6961  function closeQuestion(uint256 questionId, uint256 answerId) public questionExists(questionId) notClosed(questionId) {... */\n    tag_2:\n      callvalue\n      dup1\n      iszero\n      tag_26\n      jumpi\n      0x00\n      dup1\n      revert\n    tag_26:\n      pop\n      tag_27\n      0x04\n      dup1\n      calldatasize\n      sub\n      dup2\n      add\n      swap1\n      tag_28\n      swap2\n      swap1\n      tag_29\n      jump\t// in\n    tag_28:\n      tag_30\n      jump\t// in\n    tag_27:\n      stop\n        /* \"contracts/InquireA.sol\":3577:4218  function submitAnswer(uint256 questionId, string memory _answerText) public questionExists(questionId) notClosed(questionId) {... */\n    tag_3:\n      callvalue\n      dup1\n      iszero\n      tag_31\n      jumpi\n      0x00\n      dup1\n      revert\n    tag_31:\n      pop\n      tag_32\n      0x04\n      dup1\n      calldatasize\n      sub\n      dup2\n      add\n      swap1\n      tag_33\n      swap2\n      swap1\n      tag_34\n      jump\t// in\n    tag_33:\n      tag_35\n      jump\t// in\n    tag_32:\n      stop\n        /* \"contracts/InquireA.sol\":1028:1089  mapping(uint256 => mapping(uint256 => Answer)) public answers */\n    tag_4:\n      callvalue\n      dup1\n      iszero\n      tag_36\n      jumpi\n      0x00\n      dup1\n      revert\n    tag_36:\n      pop\n      tag_37\n      0x04\n      dup1\n      calldatasize\n      sub\n      dup2\n      add\n      swap1\n      tag_38\n      swap2\n      swap1\n      tag_29\n      jump\t// in\n    tag_38:\n      tag_39\n      jump\t// in\n    tag_37:\n      mload(0x40)\n      tag_40\n      swap6\n      swap5\n      swap4\n      swap3\n      swap2\n      swap1\n      tag_41\n      jump\t// in\n    tag_40:\n      mload(0x40)\n      dup1\n      swap2\n      sub\n      swap1\n      return\n        /* \"contracts/InquireA.sol\":6001:6551  function voteForAnswer(uint256 questionId, uint256 answerId) public payable questionExists(questionId) notClosed(questionId) {... */\n    tag_5:\n      tag_42\n      0x04\n      dup1\n      calldatasize\n      sub\n      dup2\n      add\n      swap1\n      tag_43\n      swap2\n      swap1\n      tag_29\n      jump\t// in\n    tag_43:\n      tag_44\n      jump\t// in\n    tag_42:\n      stop\n        /* \"contracts/InquireA.sol\":1096:1139  mapping(address => uint256) public balances */\n    tag_6:\n      callvalue\n      dup1\n      iszero\n      tag_45\n      jumpi\n      0x00\n      dup1\n      revert\n    tag_45:\n      pop\n      tag_46\n      0x04\n      dup1\n      calldatasize\n      sub\n      dup2\n      add\n      swap1\n      tag_47\n      swap2\n      swap1\n      tag_48\n      jump\t// in\n    tag_47:\n      tag_49\n      jump\t// in\n    tag_46:\n      mload(0x40)\n      tag_50\n      swap2\n      swap1\n      tag_51\n      jump\t// in\n    tag_50:\n      mload(0x40)\n      dup1\n      swap2\n      sub\n      swap1\n      return\n        /* \"contracts/InquireA.sol\":976:1021  mapping(uint256 => Question) public questions */\n    tag_7:\n      callvalue\n      dup1\n      iszero\n      tag_52\n      jumpi\n      0x00\n      dup1\n      revert\n    tag_52:\n      pop\n      tag_53\n      0x04\n      dup1\n      calldatasize\n      sub\n      dup2\n      add\n      swap1\n      tag_54\n      swap2\n      swap1\n      tag_55\n      jump\t// in\n    tag_54:\n      tag_56\n      jump\t// in\n    tag_53:\n      mload(0x40)\n      tag_57\n      swap11\n      swap10\n      swap9\n      swap8\n      swap7\n      swap6\n      swap5\n      swap4\n      swap3\n      swap2\n      swap1\n      tag_58\n      jump\t// in\n    tag_57:\n      mload(0x40)\n      dup1\n      swap2\n      sub\n      swap1\n      return\n        /* \"contracts/InquireA.sol\":8016:8237  function withdraw() public {... */\n    tag_8:\n      callvalue\n      dup1\n      iszero\n      tag_59\n      jumpi\n      0x00\n      dup1\n      revert\n    tag_59:\n      pop\n      tag_60\n      tag_61\n      jump\t// in\n    tag_60:\n      stop\n        /* \"contracts/InquireA.sol\":5743:5993  function getAnswerById(uint256 questionId, uint256 answerId) public view returns (Answer memory) {... */\n    tag_9:\n      callvalue\n      dup1\n      iszero\n      tag_62\n      jumpi\n      0x00\n      dup1\n      revert\n    tag_62:\n      pop\n      tag_63\n      0x04\n      dup1\n      calldatasize\n      sub\n      dup2\n      add\n      swap1\n      tag_64\n      swap2\n      swap1\n      tag_29\n      jump\t// in\n    tag_64:\n      tag_65\n      jump\t// in\n    tag_63:\n      mload(0x40)\n      tag_66\n      swap2\n      swap1\n      tag_67\n      jump\t// in\n    tag_66:\n      mload(0x40)\n      dup1\n      swap2\n      sub\n      swap1\n      return\n        /* \"contracts/InquireA.sol\":8393:9069  function getQuestionsByCategory(string memory _category) public view returns (uint256[] memory) {... */\n    tag_10:\n      callvalue\n      dup1\n      iszero\n      tag_68\n      jumpi\n      0x00\n      dup1\n      revert\n    tag_68:\n      pop\n      tag_69\n      0x04\n      dup1\n      calldatasize\n      sub\n      dup2\n      add\n      swap1\n      tag_70\n      swap2\n      swap1\n      tag_71\n      jump\t// in\n    tag_70:\n      tag_72\n      jump\t// in\n    tag_69:\n      mload(0x40)\n      tag_73\n      swap2\n      swap1\n      tag_74\n      jump\t// in\n    tag_73:\n      mload(0x40)\n      dup1\n      swap2\n      sub\n      swap1\n      return\n        /* \"contracts/InquireA.sol\":2200:3538  function askQuestion(... */\n    tag_11:\n      tag_75\n      0x04\n      dup1\n      calldatasize\n      sub\n      dup2\n      add\n      swap1\n      tag_76\n      swap2\n      swap1\n      tag_77\n      jump\t// in\n    tag_76:\n      tag_78\n      jump\t// in\n    tag_75:\n      stop\n        /* \"contracts/InquireA.sol\":7007:8008  function distributeRewards(uint256 questionId) public questionExists(questionId) {... */\n    tag_12:\n      callvalue\n      dup1\n      iszero\n      tag_79\n      jumpi\n      0x00\n      dup1\n      revert\n    tag_79:\n      pop\n      tag_80\n      0x04\n      dup1\n      calldatasize\n      sub\n      dup2\n      add\n      swap1\n      tag_81\n      swap2\n      swap1\n      tag_55\n      jump\t// in\n    tag_81:\n      tag_82\n      jump\t// in\n    tag_80:\n      stop\n        /* \"contracts/InquireA.sol\":154:186  uint256 public questionIdCounter */\n    tag_13:\n      callvalue\n      dup1\n      iszero\n      tag_83\n      jumpi\n      0x00\n      dup1\n      revert\n    tag_83:\n      pop\n      tag_84\n      tag_85\n      jump\t// in\n    tag_84:\n      mload(0x40)\n      tag_86\n      swap2\n      swap1\n      tag_51\n      jump\t// in\n    tag_86:\n      mload(0x40)\n      dup1\n      swap2\n      sub\n      swap1\n      return\n        /* \"contracts/InquireA.sol\":85:105  address public owner */\n    tag_14:\n      callvalue\n      dup1\n      iszero\n      tag_87\n      jumpi\n      0x00\n      dup1\n      revert\n    tag_87:\n      pop\n      tag_88\n      tag_89\n      jump\t// in\n    tag_88:\n      mload(0x40)\n      tag_90\n      swap2\n      swap1\n      tag_91\n      jump\t// in\n    tag_90:\n      mload(0x40)\n      dup1\n      swap2\n      sub\n      swap1\n      return\n        /* \"contracts/InquireA.sol\":274:317  uint256 public constant TWO_WEEKS = 14 days */\n    tag_15:\n      callvalue\n      dup1\n      iszero\n      tag_92\n      jumpi\n      0x00\n      dup1\n      revert\n    tag_92:\n      pop\n      tag_93\n      tag_94\n      jump\t// in\n    tag_93:\n      mload(0x40)\n      tag_95\n      swap2\n      swap1\n      tag_51\n      jump\t// in\n    tag_95:\n      mload(0x40)\n      dup1\n      swap2\n      sub\n      swap1\n      return\n        /* \"contracts/InquireA.sol\":8245:8341  function balance() public view returns (uint256) {... */\n    tag_16:\n      callvalue\n      dup1\n      iszero\n      tag_96\n      jumpi\n      0x00\n      dup1\n      revert\n    tag_96:\n      pop\n      tag_97\n      tag_98\n      jump\t// in\n    tag_97:\n      mload(0x40)\n      tag_99\n      swap2\n      swap1\n      tag_51\n      jump\t// in\n    tag_99:\n      mload(0x40)\n      dup1\n      swap2\n      sub\n      swap1\n      return\n        /* \"contracts/InquireA.sol\":193:223  uint256 public answerIdCounter */\n    tag_17:\n      callvalue\n      dup1\n      iszero\n      tag_100\n      jumpi\n      0x00\n      dup1\n      revert\n    tag_100:\n      pop\n      tag_101\n      tag_102\n      jump\t// in\n    tag_101:\n      mload(0x40)\n      tag_103\n      swap2\n      swap1\n      tag_51\n      jump\t// in\n    tag_103:\n      mload(0x40)\n      dup1\n      swap2\n      sub\n      swap1\n      return\n        /* \"contracts/InquireA.sol\":324:363  uint256 public constant MONTH = 30 days */\n    tag_18:\n      callvalue\n      dup1\n      iszero\n      tag_104\n      jumpi\n      0x00\n      dup1\n      revert\n    tag_104:\n      pop\n      tag_105\n      tag_106\n      jump\t// in\n    tag_105:\n      mload(0x40)\n      tag_107\n      swap2\n      swap1\n      tag_51\n      jump\t// in\n    tag_107:\n      mload(0x40)\n      dup1\n      swap2\n      sub\n      swap1\n      return\n        /* \"contracts/InquireA.sol\":112:147  uint256 public voteFee = 0.01 ether */\n    tag_19:\n      callvalue\n      dup1\n      iszero\n      tag_108\n      jumpi\n      0x00\n      dup1\n      revert\n    tag_108:\n      pop\n      tag_109\n      tag_110\n      jump\t// in\n    tag_109:\n      mload(0x40)\n      tag_111\n      swap2\n      swap1\n      tag_51\n      jump\t// in\n    tag_111:\n      mload(0x40)\n      dup1\n      swap2\n      sub\n      swap1\n      return\n        /* \"contracts/InquireA.sol\":5517:5735  function getQuestionById(uint256 questionId) public view returns (Question memory) {... */\n    tag_20:\n      callvalue\n      dup1\n      iszero\n      tag_112\n      jumpi\n      0x00\n      dup1\n      revert\n    tag_112:\n      pop\n      tag_113\n      0x04\n      dup1\n      calldatasize\n      sub\n      dup2\n      add\n      swap1\n      tag_114\n      swap2\n      swap1\n      tag_55\n      jump\t// in\n    tag_114:\n      tag_115\n      jump\t// in\n    tag_113:\n      mload(0x40)\n      tag_116\n      swap2\n      swap1\n      tag_117\n      jump\t// in\n    tag_116:\n      mload(0x40)\n      dup1\n      swap2\n      sub\n      swap1\n      return\n        /* \"contracts/InquireA.sol\":230:267  uint256 public constant WEEK = 7 days */\n    tag_21:\n      callvalue\n      dup1\n      iszero\n      tag_118\n      jumpi\n      0x00\n      dup1\n      revert\n    tag_118:\n      pop\n      tag_119\n      tag_120\n      jump\t// in\n    tag_119:\n      mload(0x40)\n      tag_121\n      swap2\n      swap1\n      tag_51\n      jump\t// in\n    tag_121:\n      mload(0x40)\n      dup1\n      swap2\n      sub\n      swap1\n      return\n        /* \"contracts/InquireA.sol\":4277:5505  function getQuestions(uint256 pageIndex, uint256 pageSize) ... */\n    tag_22:\n      callvalue\n      dup1\n      iszero\n      tag_122\n      jumpi\n      0x00\n      dup1\n      revert\n    tag_122:\n      pop\n      tag_123\n      0x04\n      dup1\n      calldatasize\n      sub\n      dup2\n      add\n      swap1\n      tag_124\n      swap2\n      swap1\n      tag_29\n      jump\t// in\n    tag_124:\n      tag_125\n      jump\t// in\n    tag_123:\n      mload(0x40)\n      tag_126\n      swap4\n      swap3\n      swap2\n      swap1\n      tag_127\n      jump\t// in\n    tag_126:\n      mload(0x40)\n      dup1\n      swap2\n      sub\n      swap1\n      return\n        /* \"contracts/InquireA.sol\":6559:6961  function closeQuestion(uint256 questionId, uint256 answerId) public questionExists(questionId) notClosed(questionId) {... */\n    tag_30:\n        /* \"contracts/InquireA.sol\":6642:6652  questionId */\n      dup2\n        /* \"contracts/InquireA.sol\":1942:1943  0 */\n      0x00\n        /* \"contracts/InquireA.sol\":1903:1944  questions[questionId].asker != address(0) */\n      0xffffffffffffffffffffffffffffffffffffffff\n      and\n        /* \"contracts/InquireA.sol\":1903:1912  questions */\n      0x04\n        /* \"contracts/InquireA.sol\":1903:1924  questions[questionId] */\n      0x00\n        /* \"contracts/InquireA.sol\":1913:1923  questionId */\n      dup4\n        /* \"contracts/InquireA.sol\":1903:1924  questions[questionId] */\n      dup2\n      mstore\n      0x20\n      add\n      swap1\n      dup2\n      mstore\n      0x20\n      add\n      0x00\n      keccak256\n        /* \"contracts/InquireA.sol\":1903:1930  questions[questionId].asker */\n      0x01\n      add\n      0x00\n      swap1\n      sload\n      swap1\n      0x0100\n      exp\n      swap1\n      div\n      0xffffffffffffffffffffffffffffffffffffffff\n      and\n        /* \"contracts/InquireA.sol\":1903:1944  questions[questionId].asker != address(0) */\n      0xffffffffffffffffffffffffffffffffffffffff\n      and\n      sub\n        /* \"contracts/InquireA.sol\":1895:1972  require(questions[questionId].asker != address(0), \"Question does not exist\") */\n      tag_129\n      jumpi\n      mload(0x40)\n      0x08c379a000000000000000000000000000000000000000000000000000000000\n      dup2\n      mstore\n      0x04\n      add\n      tag_130\n      swap1\n      tag_131\n      jump\t// in\n    tag_130:\n      mload(0x40)\n      dup1\n      swap2\n      sub\n      swap1\n      revert\n    tag_129:\n        /* \"contracts/InquireA.sol\":6664:6674  questionId */\n      dup3\n        /* \"contracts/InquireA.sol\":2059:2068  questions */\n      0x04\n        /* \"contracts/InquireA.sol\":2059:2080  questions[questionId] */\n      0x00\n        /* \"contracts/InquireA.sol\":2069:2079  questionId */\n      dup3\n        /* \"contracts/InquireA.sol\":2059:2080  questions[questionId] */\n      dup2\n      mstore\n      0x20\n      add\n      swap1\n      dup2\n      mstore\n      0x20\n      add\n      0x00\n      keccak256\n        /* \"contracts/InquireA.sol\":2059:2089  questions[questionId].isClosed */\n      0x08\n      add\n      0x00\n      swap1\n      sload\n      swap1\n      0x0100\n      exp\n      swap1\n      div\n      0xff\n      and\n        /* \"contracts/InquireA.sol\":2058:2089  !questions[questionId].isClosed */\n      iszero\n        /* \"contracts/InquireA.sol\":2050:2120  require(!questions[questionId].isClosed, \"Question is already closed\") */\n      tag_133\n      jumpi\n      mload(0x40)\n      0x08c379a000000000000000000000000000000000000000000000000000000000\n      dup2\n      mstore\n      0x04\n      add\n      tag_134\n      swap1\n      tag_135\n      jump\t// in\n    tag_134:\n      mload(0x40)\n      dup1\n      swap2\n      sub\n      swap1\n      revert\n    tag_133:\n        /* \"contracts/InquireA.sol\":6687:6712  Question storage question */\n      0x00\n        /* \"contracts/InquireA.sol\":6715:6724  questions */\n      0x04\n        /* \"contracts/InquireA.sol\":6715:6736  questions[questionId] */\n      0x00\n        /* \"contracts/InquireA.sol\":6725:6735  questionId */\n      dup7\n        /* \"contracts/InquireA.sol\":6715:6736  questions[questionId] */\n      dup2\n      mstore\n      0x20\n      add\n      swap1\n      dup2\n      mstore\n      0x20\n      add\n      0x00\n      keccak256\n        /* \"contracts/InquireA.sol\":6687:6736  Question storage question = questions[questionId] */\n      swap1\n      pop\n        /* \"contracts/InquireA.sol\":6769:6777  question */\n      dup1\n        /* \"contracts/InquireA.sol\":6769:6783  question.asker */\n      0x01\n      add\n      0x00\n      swap1\n      sload\n      swap1\n      0x0100\n      exp\n      swap1\n      div\n      0xffffffffffffffffffffffffffffffffffffffff\n      and\n        /* \"contracts/InquireA.sol\":6755:6783  msg.sender == question.asker */\n      0xffffffffffffffffffffffffffffffffffffffff\n      and\n        /* \"contracts/InquireA.sol\":6755:6765  msg.sender */\n      caller\n        /* \"contracts/InquireA.sol\":6755:6783  msg.sender == question.asker */\n      0xffffffffffffffffffffffffffffffffffffffff\n      and\n      eq\n        /* \"contracts/InquireA.sol\":6747:6817  require(msg.sender == question.asker, \"Only asker can close question\") */\n      tag_137\n      jumpi\n      mload(0x40)\n      0x08c379a000000000000000000000000000000000000000000000000000000000\n      dup2\n      mstore\n      0x04\n      add\n      tag_138\n      swap1\n      tag_139\n      jump\t// in\n    tag_138:\n      mload(0x40)\n      dup1\n      swap2\n      sub\n      swap1\n      revert\n    tag_137:\n        /* \"contracts/InquireA.sol\":6850:6854  true */\n      0x01\n        /* \"contracts/InquireA.sol\":6830:6838  question */\n      dup2\n        /* \"contracts/InquireA.sol\":6830:6847  question.isClosed */\n      0x08\n      add\n      0x00\n        /* \"contracts/InquireA.sol\":6830:6854  question.isClosed = true */\n      0x0100\n      exp\n      dup2\n      sload\n      dup2\n      0xff\n      mul\n      not\n      and\n      swap1\n      dup4\n      iszero\n      iszero\n      mul\n      or\n      swap1\n      sstore\n      pop\n        /* \"contracts/InquireA.sol\":6891:6899  answerId */\n      dup4\n        /* \"contracts/InquireA.sol\":6865:6873  question */\n      dup2\n        /* \"contracts/InquireA.sol\":6865:6888  question.chosenAnswerId */\n      0x09\n      add\n        /* \"contracts/InquireA.sol\":6865:6899  question.chosenAnswerId = answerId */\n      dup2\n      swap1\n      sstore\n      pop\n        /* \"contracts/InquireA.sol\":6917:6953  QuestionClosed(questionId, answerId) */\n      0x99fe2c8abd13b610e7f7d4a51a49e1391ba19454b72305176b884d66010e475a\n        /* \"contracts/InquireA.sol\":6932:6942  questionId */\n      dup6\n        /* \"contracts/InquireA.sol\":6944:6952  answerId */\n      dup6\n        /* \"contracts/InquireA.sol\":6917:6953  QuestionClosed(questionId, answerId) */\n      mload(0x40)\n      tag_140\n      swap3\n      swap2\n      swap1\n      tag_141\n      jump\t// in\n    tag_140:\n      mload(0x40)\n      dup1\n      swap2\n      sub\n      swap1\n      log1\n        /* \"contracts/InquireA.sol\":6676:6961  {... */\n      pop\n        /* \"contracts/InquireA.sol\":1983:1984  _ */\n      pop\n        /* \"contracts/InquireA.sol\":6559:6961  function closeQuestion(uint256 questionId, uint256 answerId) public questionExists(questionId) notClosed(questionId) {... */\n      pop\n      pop\n      pop\n      jump\t// out\n        /* \"contracts/InquireA.sol\":3577:4218  function submitAnswer(uint256 questionId, string memory _answerText) public questionExists(questionId) notClosed(questionId) {... */\n    tag_35:\n        /* \"contracts/InquireA.sol\":3668:3678  questionId */\n      dup2\n        /* \"contracts/InquireA.sol\":1942:1943  0 */\n      0x00\n        /* \"contracts/InquireA.sol\":1903:1944  questions[questionId].asker != address(0) */\n      0xffffffffffffffffffffffffffffffffffffffff\n      and\n        /* \"contracts/InquireA.sol\":1903:1912  questions */\n      0x04\n        /* \"contracts/InquireA.sol\":1903:1924  questions[questionId] */\n      0x00\n        /* \"contracts/InquireA.sol\":1913:1923  questionId */\n      dup4\n        /* \"contracts/InquireA.sol\":1903:1924  questions[questionId] */\n      dup2\n      mstore\n      0x20\n      add\n      swap1\n      dup2\n      mstore\n      0x20\n      add\n      0x00\n      keccak256\n        /* \"contracts/InquireA.sol\":1903:1930  questions[questionId].asker */\n      0x01\n      add\n      0x00\n      swap1\n      sload\n      swap1\n      0x0100\n      exp\n      swap1\n      div\n      0xffffffffffffffffffffffffffffffffffffffff\n      and\n        /* \"contracts/InquireA.sol\":1903:1944  questions[questionId].asker != address(0) */\n      0xffffffffffffffffffffffffffffffffffffffff\n      and\n      sub\n        /* \"contracts/InquireA.sol\":1895:1972  require(questions[questionId].asker != address(0), \"Question does not exist\") */\n      tag_143\n      jumpi\n      mload(0x40)\n      0x08c379a000000000000000000000000000000000000000000000000000000000\n      dup2\n      mstore\n      0x04\n      add\n      tag_144\n      swap1\n      tag_131\n      jump\t// in\n    tag_144:\n      mload(0x40)\n      dup1\n      swap2\n      sub\n      swap1\n      revert\n    tag_143:\n        /* \"contracts/InquireA.sol\":3690:3700  questionId */\n      dup3\n        /* \"contracts/InquireA.sol\":2059:2068  questions */\n      0x04\n        /* \"contracts/InquireA.sol\":2059:2080  questions[questionId] */\n      0x00\n        /* \"contracts/InquireA.sol\":2069:2079  questionId */\n      dup3\n        /* \"contracts/InquireA.sol\":2059:2080  questions[questionId] */\n      dup2\n      mstore\n      0x20\n      add\n      swap1\n      dup2\n      mstore\n      0x20\n      add\n      0x00\n      keccak256\n        /* \"contracts/InquireA.sol\":2059:2089  questions[questionId].isClosed */\n      0x08\n      add\n      0x00\n      swap1\n      sload\n      swap1\n      0x0100\n      exp\n      swap1\n      div\n      0xff\n      and\n        /* \"contracts/InquireA.sol\":2058:2089  !questions[questionId].isClosed */\n      iszero\n        /* \"contracts/InquireA.sol\":2050:2120  require(!questions[questionId].isClosed, \"Question is already closed\") */\n      tag_146\n      jumpi\n      mload(0x40)\n      0x08c379a000000000000000000000000000000000000000000000000000000000\n      dup2\n      mstore\n      0x04\n      add\n      tag_147\n      swap1\n      tag_135\n      jump\t// in\n    tag_147:\n      mload(0x40)\n      dup1\n      swap2\n      sub\n      swap1\n      revert\n    tag_146:\n        /* \"contracts/InquireA.sol\":3713:3737  Question memory question */\n      0x00\n        /* \"contracts/InquireA.sol\":3740:3749  questions */\n      0x04\n        /* \"contracts/InquireA.sol\":3740:3761  questions[questionId] */\n      0x00\n        /* \"contracts/InquireA.sol\":3750:3760  questionId */\n      dup7\n        /* \"contracts/InquireA.sol\":3740:3761  questions[questionId] */\n      dup2\n      mstore\n      0x20\n      add\n      swap1\n      dup2\n      mstore\n      0x20\n      add\n      0x00\n      keccak256\n        /* \"contracts/InquireA.sol\":3713:3761  Question memory question = questions[questionId] */\n      mload(0x40)\n      dup1\n      0x0140\n      add\n      0x40\n      mstore\n      swap1\n      dup2\n      0x00\n      dup3\n      add\n      sload\n      dup2\n      mstore\n      0x20\n      add\n      0x01\n      dup3\n      add\n      0x00\n      swap1\n      sload\n      swap1\n      0x0100\n      exp\n      swap1\n      div\n      0xffffffffffffffffffffffffffffffffffffffff\n      and\n      0xffffffffffffffffffffffffffffffffffffffff\n      and\n      0xffffffffffffffffffffffffffffffffffffffff\n      and\n      dup2\n      mstore\n      0x20\n      add\n      0x02\n      dup3\n      add\n      dup1\n      sload\n      tag_149\n      swap1\n      tag_150\n      jump\t// in\n    tag_149:\n      dup1\n      0x1f\n      add\n      0x20\n      dup1\n      swap2\n      div\n      mul\n      0x20\n      add\n      mload(0x40)\n      swap1\n      dup2\n      add\n      0x40\n      mstore\n      dup1\n      swap3\n      swap2\n      swap1\n      dup2\n      dup2\n      mstore\n      0x20\n      add\n      dup3\n      dup1\n      sload\n      tag_151\n      swap1\n      tag_150\n      jump\t// in\n    tag_151:\n      dup1\n      iszero\n      tag_152\n      jumpi\n      dup1\n      0x1f\n      lt\n      tag_153\n      jumpi\n      0x0100\n      dup1\n      dup4\n      sload\n      div\n      mul\n      dup4\n      mstore\n      swap2\n      0x20\n      add\n      swap2\n      jump(tag_152)\n    tag_153:\n      dup3\n      add\n      swap2\n      swap1\n      0x00\n      mstore\n      keccak256(0x00, 0x20)\n      swap1\n    tag_154:\n      dup2\n      sload\n      dup2\n      mstore\n      swap1\n      0x01\n      add\n      swap1\n      0x20\n      add\n      dup1\n      dup4\n      gt\n      tag_154\n      jumpi\n      dup3\n      swap1\n      sub\n      0x1f\n      and\n      dup3\n      add\n      swap2\n    tag_152:\n      pop\n      pop\n      pop\n      pop\n      pop\n      dup2\n      mstore\n      0x20\n      add\n      0x03\n      dup3\n      add\n      dup1\n      sload\n      tag_155\n      swap1\n      tag_150\n      jump\t// in\n    tag_155:\n      dup1\n      0x1f\n      add\n      0x20\n      dup1\n      swap2\n      div\n      mul\n      0x20\n      add\n      mload(0x40)\n      swap1\n      dup2\n      add\n      0x40\n      mstore\n      dup1\n      swap3\n      swap2\n      swap1\n      dup2\n      dup2\n      mstore\n      0x20\n      add\n      dup3\n      dup1\n      sload\n      tag_156\n      swap1\n      tag_150\n      jump\t// in\n    tag_156:\n      dup1\n      iszero\n      tag_157\n      jumpi\n      dup1\n      0x1f\n      lt\n      tag_158\n      jumpi\n      0x0100\n      dup1\n      dup4\n      sload\n      div\n      mul\n      dup4\n      mstore\n      swap2\n      0x20\n      add\n      swap2\n      jump(tag_157)\n    tag_158:\n      dup3\n      add\n      swap2\n      swap1\n      0x00\n      mstore\n      keccak256(0x00, 0x20)\n      swap1\n    tag_159:\n      dup2\n      sload\n      dup2\n      mstore\n      swap1\n      0x01\n      add\n      swap1\n      0x20\n      add\n      dup1\n      dup4\n      gt\n      tag_159\n      jumpi\n      dup3\n      swap1\n      sub\n      0x1f\n      and\n      dup3\n      add\n      swap2\n    tag_157:\n      pop\n      pop\n      pop\n      pop\n      pop\n      dup2\n      mstore\n      0x20\n      add\n      0x04\n      dup3\n      add\n      dup1\n      sload\n      tag_160\n      swap1\n      tag_150\n      jump\t// in\n    tag_160:\n      dup1\n      0x1f\n      add\n      0x20\n      dup1\n      swap2\n      div\n      mul\n      0x20\n      add\n      mload(0x40)\n      swap1\n      dup2\n      add\n      0x40\n      mstore\n      dup1\n      swap3\n      swap2\n      swap1\n      dup2\n      dup2\n      mstore\n      0x20\n      add\n      dup3\n      dup1\n      sload\n      tag_161\n      swap1\n      tag_150\n      jump\t// in\n    tag_161:\n      dup1\n      iszero\n      tag_162\n      jumpi\n      dup1\n      0x1f\n      lt\n      tag_163\n      jumpi\n      0x0100\n      dup1\n      dup4\n      sload\n      div\n      mul\n      dup4\n      mstore\n      swap2\n      0x20\n      add\n      swap2\n      jump(tag_162)\n    tag_163:\n      dup3\n      add\n      swap2\n      swap1\n      0x00\n      mstore\n      keccak256(0x00, 0x20)\n      swap1\n    tag_164:\n      dup2\n      sload\n      dup2\n      mstore\n      swap1\n      0x01\n      add\n      swap1\n      0x20\n      add\n      dup1\n      dup4\n      gt\n      tag_164\n      jumpi\n      dup3\n      swap1\n      sub\n      0x1f\n      and\n      dup3\n      add\n      swap2\n    tag_162:\n      pop\n      pop\n      pop\n      pop\n      pop\n      dup2\n      mstore\n      0x20\n      add\n      0x05\n      dup3\n      add\n      sload\n      dup2\n      mstore\n      0x20\n      add\n      0x06\n      dup3\n      add\n      sload\n      dup2\n      mstore\n      0x20\n      add\n      0x07\n      dup3\n      add\n      sload\n      dup2\n      mstore\n      0x20\n      add\n      0x08\n      dup3\n      add\n      0x00\n      swap1\n      sload\n      swap1\n      0x0100\n      exp\n      swap1\n      div\n      0xff\n      and\n      iszero\n      iszero\n      iszero\n      iszero\n      dup2\n      mstore\n      0x20\n      add\n      0x09\n      dup3\n      add\n      sload\n      dup2\n      mstore\n      pop\n      pop\n      swap1\n      pop\n        /* \"contracts/InquireA.sol\":3799:3807  question */\n      dup1\n        /* \"contracts/InquireA.sol\":3799:3816  question.deadline */\n      0xe0\n      add\n      mload\n        /* \"contracts/InquireA.sol\":3780:3795  block.timestamp */\n      timestamp\n        /* \"contracts/InquireA.sol\":3780:3816  block.timestamp <= question.deadline */\n      gt\n      iszero\n        /* \"contracts/InquireA.sol\":3772:3849  require(block.timestamp <= question.deadline, \"Question deadline has passed\") */\n      tag_165\n      jumpi\n      mload(0x40)\n      0x08c379a000000000000000000000000000000000000000000000000000000000\n      dup2\n      mstore\n      0x04\n      add\n      tag_166\n      swap1\n      tag_167\n      jump\t// in\n    tag_166:\n      mload(0x40)\n      dup1\n      swap2\n      sub\n      swap1\n      revert\n    tag_165:\n        /* \"contracts/InquireA.sol\":3862:3878  uint256 answerId */\n      0x00\n        /* \"contracts/InquireA.sol\":3881:3896  answerIdCounter */\n      0x03\n      0x00\n        /* \"contracts/InquireA.sol\":3881:3898  answerIdCounter++ */\n      dup2\n      sload\n      dup1\n      swap3\n      swap2\n      swap1\n      tag_168\n      swap1\n      tag_169\n      jump\t// in\n    tag_168:\n      swap2\n      swap1\n      pop\n      sstore\n        /* \"contracts/InquireA.sol\":3862:3898  uint256 answerId = answerIdCounter++ */\n      swap1\n      pop\n        /* \"contracts/InquireA.sol\":3941:4130  Answer({... */\n      mload(0x40)\n      dup1\n      0xa0\n      add\n      0x40\n      mstore\n      dup1\n        /* \"contracts/InquireA.sol\":3974:3984  msg.sender */\n      caller\n        /* \"contracts/InquireA.sol\":3941:4130  Answer({... */\n      0xffffffffffffffffffffffffffffffffffffffff\n      and\n      dup2\n      mstore\n      0x20\n      add\n        /* \"contracts/InquireA.sol\":4011:4022  _answerText */\n      dup7\n        /* \"contracts/InquireA.sol\":3941:4130  Answer({... */\n      dup2\n      mstore\n      0x20\n      add\n        /* \"contracts/InquireA.sol\":4046:4047  0 */\n      0x00\n        /* \"contracts/InquireA.sol\":3941:4130  Answer({... */\n      dup2\n      mstore\n      0x20\n      add\n        /* \"contracts/InquireA.sol\":4076:4077  0 */\n      0x00\n        /* \"contracts/InquireA.sol\":3941:4130  Answer({... */\n      dup2\n      mstore\n      0x20\n      add\n        /* \"contracts/InquireA.sol\":4103:4118  block.timestamp */\n      timestamp\n        /* \"contracts/InquireA.sol\":3941:4130  Answer({... */\n      dup2\n      mstore\n      pop\n        /* \"contracts/InquireA.sol\":3909:3916  answers */\n      0x05\n        /* \"contracts/InquireA.sol\":3909:3928  answers[questionId] */\n      0x00\n        /* \"contracts/InquireA.sol\":3917:3927  questionId */\n      dup9\n        /* \"contracts/InquireA.sol\":3909:3928  answers[questionId] */\n      dup2\n      mstore\n      0x20\n      add\n      swap1\n      dup2\n      mstore\n      0x20\n      add\n      0x00\n      keccak256\n        /* \"contracts/InquireA.sol\":3909:3938  answers[questionId][answerId] */\n      0x00\n        /* \"contracts/InquireA.sol\":3929:3937  answerId */\n      dup4\n        /* \"contracts/InquireA.sol\":3909:3938  answers[questionId][answerId] */\n      dup2\n      mstore\n      0x20\n      add\n      swap1\n      dup2\n      mstore\n      0x20\n      add\n      0x00\n      keccak256\n        /* \"contracts/InquireA.sol\":3909:4130  answers[questionId][answerId] = Answer({... */\n      0x00\n      dup3\n      add\n      mload\n      dup2\n      0x00\n      add\n      exp(0x0100, 0x00)\n      dup2\n      sload\n      dup2\n      0xffffffffffffffffffffffffffffffffffffffff\n      mul\n      not\n      and\n      swap1\n      dup4\n      0xffffffffffffffffffffffffffffffffffffffff\n      and\n      mul\n      or\n      swap1\n      sstore\n      pop\n      0x20\n      dup3\n      add\n      mload\n      dup2\n      0x01\n      add\n      swap1\n      dup2\n      tag_170\n      swap2\n      swap1\n      tag_171\n      jump\t// in\n    tag_170:\n      pop\n      0x40\n      dup3\n      add\n      mload\n      dup2\n      0x02\n      add\n      sstore\n      0x60\n      dup3\n      add\n      mload\n      dup2\n      0x03\n      add\n      sstore\n      0x80\n      dup3\n      add\n      mload\n      dup2\n      0x04\n      add\n      sstore\n      swap1\n      pop\n      pop\n        /* \"contracts/InquireA.sol\":4186:4196  msg.sender */\n      caller\n        /* \"contracts/InquireA.sol\":4148:4210  AnswerSubmitted(questionId, answerId, msg.sender, _answerText) */\n      0xffffffffffffffffffffffffffffffffffffffff\n      and\n      0x1b72a809869907cac4c4e55b8bf6920ff492d2ff53307bb77ba492366b61387c\n        /* \"contracts/InquireA.sol\":4164:4174  questionId */\n      dup8\n        /* \"contracts/InquireA.sol\":4176:4184  answerId */\n      dup4\n        /* \"contracts/InquireA.sol\":4198:4209  _answerText */\n      dup9\n        /* \"contracts/InquireA.sol\":4148:4210  AnswerSubmitted(questionId, answerId, msg.sender, _answerText) */\n      mload(0x40)\n      tag_172\n      swap4\n      swap3\n      swap2\n      swap1\n      tag_173\n      jump\t// in\n    tag_172:\n      mload(0x40)\n      dup1\n      swap2\n      sub\n      swap1\n      log2\n        /* \"contracts/InquireA.sol\":3702:4218  {... */\n      pop\n      pop\n        /* \"contracts/InquireA.sol\":1983:1984  _ */\n      pop\n        /* \"contracts/InquireA.sol\":3577:4218  function submitAnswer(uint256 questionId, string memory _answerText) public questionExists(questionId) notClosed(questionId) {... */\n      pop\n      pop\n      pop\n      jump\t// out\n        /* \"contracts/InquireA.sol\":1028:1089  mapping(uint256 => mapping(uint256 => Answer)) public answers */\n    tag_39:\n      mstore(0x20, 0x05)\n      dup2\n      0x00\n      mstore\n      mstore(0x20, keccak256(0x00, 0x40))\n      dup1\n      0x00\n      mstore\n      keccak256(0x00, 0x40)\n      0x00\n      swap2\n      pop\n      swap2\n      pop\n      pop\n      dup1\n      0x00\n      add\n      0x00\n      swap1\n      sload\n      swap1\n      0x0100\n      exp\n      swap1\n      div\n      0xffffffffffffffffffffffffffffffffffffffff\n      and\n      swap1\n      dup1\n      0x01\n      add\n      dup1\n      sload\n      tag_174\n      swap1\n      tag_150\n      jump\t// in\n    tag_174:\n      dup1\n      0x1f\n      add\n      0x20\n      dup1\n      swap2\n      div\n      mul\n      0x20\n      add\n      mload(0x40)\n      swap1\n      dup2\n      add\n      0x40\n      mstore\n      dup1\n      swap3\n      swap2\n      swap1\n      dup2\n      dup2\n      mstore\n      0x20\n      add\n      dup3\n      dup1\n      sload\n      tag_175\n      swap1\n      tag_150\n      jump\t// in\n    tag_175:\n      dup1\n      iszero\n      tag_176\n      jumpi\n      dup1\n      0x1f\n      lt\n      tag_177\n      jumpi\n      0x0100\n      dup1\n      dup4\n      sload\n      div\n      mul\n      dup4\n      mstore\n      swap2\n      0x20\n      add\n      swap2\n      jump(tag_176)\n    tag_177:\n      dup3\n      add\n      swap2\n      swap1\n      0x00\n      mstore\n      keccak256(0x00, 0x20)\n      swap1\n    tag_178:\n      dup2\n      sload\n      dup2\n      mstore\n      swap1\n      0x01\n      add\n      swap1\n      0x20\n      add\n      dup1\n      dup4\n      gt\n      tag_178\n      jumpi\n      dup3\n      swap1\n      sub\n      0x1f\n      and\n      dup3\n      add\n      swap2\n    tag_176:\n      pop\n      pop\n      pop\n      pop\n      pop\n      swap1\n      dup1\n      0x02\n      add\n      sload\n      swap1\n      dup1\n      0x03\n      add\n      sload\n      swap1\n      dup1\n      0x04\n      add\n      sload\n      swap1\n      pop\n      dup6\n      jump\t// out\n        /* \"contracts/InquireA.sol\":6001:6551  function voteForAnswer(uint256 questionId, uint256 answerId) public payable questionExists(questionId) notClosed(questionId) {... */\n    tag_44:\n        /* \"contracts/InquireA.sol\":6092:6102  questionId */\n      dup2\n        /* \"contracts/InquireA.sol\":1942:1943  0 */\n      0x00\n        /* \"contracts/InquireA.sol\":1903:1944  questions[questionId].asker != address(0) */\n      0xffffffffffffffffffffffffffffffffffffffff\n      and\n        /* \"contracts/InquireA.sol\":1903:1912  questions */\n      0x04\n        /* \"contracts/InquireA.sol\":1903:1924  questions[questionId] */\n      0x00\n        /* \"contracts/InquireA.sol\":1913:1923  questionId */\n      dup4\n        /* \"contracts/InquireA.sol\":1903:1924  questions[questionId] */\n      dup2\n      mstore\n      0x20\n      add\n      swap1\n      dup2\n      mstore\n      0x20\n      add\n      0x00\n      keccak256\n        /* \"contracts/InquireA.sol\":1903:1930  questions[questionId].asker */\n      0x01\n      add\n      0x00\n      swap1\n      sload\n      swap1\n      0x0100\n      exp\n      swap1\n      div\n      0xffffffffffffffffffffffffffffffffffffffff\n      and\n        /* \"contracts/InquireA.sol\":1903:1944  questions[questionId].asker != address(0) */\n      0xffffffffffffffffffffffffffffffffffffffff\n      and\n      sub\n        /* \"contracts/InquireA.sol\":1895:1972  require(questions[questionId].asker != address(0), \"Question does not exist\") */\n      tag_180\n      jumpi\n      mload(0x40)\n      0x08c379a000000000000000000000000000000000000000000000000000000000\n      dup2\n      mstore\n      0x04\n      add\n      tag_181\n      swap1\n      tag_131\n      jump\t// in\n    tag_181:\n      mload(0x40)\n      dup1\n      swap2\n      sub\n      swap1\n      revert\n    tag_180:\n        /* \"contracts/InquireA.sol\":6114:6124  questionId */\n      dup3\n        /* \"contracts/InquireA.sol\":2059:2068  questions */\n      0x04\n        /* \"contracts/InquireA.sol\":2059:2080  questions[questionId] */\n      0x00\n        /* \"contracts/InquireA.sol\":2069:2079  questionId */\n      dup3\n        /* \"contracts/InquireA.sol\":2059:2080  questions[questionId] */\n      dup2\n      mstore\n      0x20\n      add\n      swap1\n      dup2\n      mstore\n      0x20\n      add\n      0x00\n      keccak256\n        /* \"contracts/InquireA.sol\":2059:2089  questions[questionId].isClosed */\n      0x08\n      add\n      0x00\n      swap1\n      sload\n      swap1\n      0x0100\n      exp\n      swap1\n      div\n      0xff\n      and\n        /* \"contracts/InquireA.sol\":2058:2089  !questions[questionId].isClosed */\n      iszero\n        /* \"contracts/InquireA.sol\":2050:2120  require(!questions[questionId].isClosed, \"Question is already closed\") */\n      tag_183\n      jumpi\n      mload(0x40)\n      0x08c379a000000000000000000000000000000000000000000000000000000000\n      dup2\n      mstore\n      0x04\n      add\n      tag_184\n      swap1\n      tag_135\n      jump\t// in\n    tag_184:\n      mload(0x40)\n      dup1\n      swap2\n      sub\n      swap1\n      revert\n    tag_183:\n        /* \"contracts/InquireA.sol\":6137:6161  Question memory question */\n      0x00\n        /* \"contracts/InquireA.sol\":6164:6173  questions */\n      0x04\n        /* \"contracts/InquireA.sol\":6164:6185  questions[questionId] */\n      0x00\n        /* \"contracts/InquireA.sol\":6174:6184  questionId */\n      dup7\n        /* \"contracts/InquireA.sol\":6164:6185  questions[questionId] */\n      dup2\n      mstore\n      0x20\n      add\n      swap1\n      dup2\n      mstore\n      0x20\n      add\n      0x00\n      keccak256\n        /* \"contracts/InquireA.sol\":6137:6185  Question memory question = questions[questionId] */\n      mload(0x40)\n      dup1\n      0x0140\n      add\n      0x40\n      mstore\n      swap1\n      dup2\n      0x00\n      dup3\n      add\n      sload\n      dup2\n      mstore\n      0x20\n      add\n      0x01\n      dup3\n      add\n      0x00\n      swap1\n      sload\n      swap1\n      0x0100\n      exp\n      swap1\n      div\n      0xffffffffffffffffffffffffffffffffffffffff\n      and\n      0xffffffffffffffffffffffffffffffffffffffff\n      and\n      0xffffffffffffffffffffffffffffffffffffffff\n      and\n      dup2\n      mstore\n      0x20\n      add\n      0x02\n      dup3\n      add\n      dup1\n      sload\n      tag_186\n      swap1\n      tag_150\n      jump\t// in\n    tag_186:\n      dup1\n      0x1f\n      add\n      0x20\n      dup1\n      swap2\n      div\n      mul\n      0x20\n      add\n      mload(0x40)\n      swap1\n      dup2\n      add\n      0x40\n      mstore\n      dup1\n      swap3\n      swap2\n      swap1\n      dup2\n      dup2\n      mstore\n      0x20\n      add\n      dup3\n      dup1\n      sload\n      tag_187\n      swap1\n      tag_150\n      jump\t// in\n    tag_187:\n      dup1\n      iszero\n      tag_188\n      jumpi\n      dup1\n      0x1f\n      lt\n      tag_189\n      jumpi\n      0x0100\n      dup1\n      dup4\n      sload\n      div\n      mul\n      dup4\n      mstore\n      swap2\n      0x20\n      add\n      swap2\n      jump(tag_188)\n    tag_189:\n      dup3\n      add\n      swap2\n      swap1\n      0x00\n      mstore\n      keccak256(0x00, 0x20)\n      swap1\n    tag_190:\n      dup2\n      sload\n      dup2\n      mstore\n      swap1\n      0x01\n      add\n      swap1\n      0x20\n      add\n      dup1\n      dup4\n      gt\n      tag_190\n      jumpi\n      dup3\n      swap1\n      sub\n      0x1f\n      and\n      dup3\n      add\n      swap2\n    tag_188:\n      pop\n      pop\n      pop\n      pop\n      pop\n      dup2\n      mstore\n      0x20\n      add\n      0x03\n      dup3\n      add\n      dup1\n      sload\n      tag_191\n      swap1\n      tag_150\n      jump\t// in\n    tag_191:\n      dup1\n      0x1f\n      add\n      0x20\n      dup1\n      swap2\n      div\n      mul\n      0x20\n      add\n      mload(0x40)\n      swap1\n      dup2\n      add\n      0x40\n      mstore\n      dup1\n      swap3\n      swap2\n      swap1\n      dup2\n      dup2\n      mstore\n      0x20\n      add\n      dup3\n      dup1\n      sload\n      tag_192\n      swap1\n      tag_150\n      jump\t// in\n    tag_192:\n      dup1\n      iszero\n      tag_193\n      jumpi\n      dup1\n      0x1f\n      lt\n      tag_194\n      jumpi\n      0x0100\n      dup1\n      dup4\n      sload\n      div\n      mul\n      dup4\n      mstore\n      swap2\n      0x20\n      add\n      swap2\n      jump(tag_193)\n    tag_194:\n      dup3\n      add\n      swap2\n      swap1\n      0x00\n      mstore\n      keccak256(0x00, 0x20)\n      swap1\n    tag_195:\n      dup2\n      sload\n      dup2\n      mstore\n      swap1\n      0x01\n      add\n      swap1\n      0x20\n      add\n      dup1\n      dup4\n      gt\n      tag_195\n      jumpi\n      dup3\n      swap1\n      sub\n      0x1f\n      and\n      dup3\n      add\n      swap2\n    tag_193:\n      pop\n      pop\n      pop\n      pop\n      pop\n      dup2\n      mstore\n      0x20\n      add\n      0x04\n      dup3\n      add\n      dup1\n      sload\n      tag_196\n      swap1\n      tag_150\n      jump\t// in\n    tag_196:\n      dup1\n      0x1f\n      add\n      0x20\n      dup1\n      swap2\n      div\n      mul\n      0x20\n      add\n      mload(0x40)\n      swap1\n      dup2\n      add\n      0x40\n      mstore\n      dup1\n      swap3\n      swap2\n      swap1\n      dup2\n      dup2\n      mstore\n      0x20\n      add\n      dup3\n      dup1\n      sload\n      tag_197\n      swap1\n      tag_150\n      jump\t// in\n    tag_197:\n      dup1\n      iszero\n      tag_198\n      jumpi\n      dup1\n      0x1f\n      lt\n      tag_199\n      jumpi\n      0x0100\n      dup1\n      dup4\n      sload\n      div\n      mul\n      dup4\n      mstore\n      swap2\n      0x20\n      add\n      swap2\n      jump(tag_198)\n    tag_199:\n      dup3\n      add\n      swap2\n      swap1\n      0x00\n      mstore\n      keccak256(0x00, 0x20)\n      swap1\n    tag_200:\n      dup2\n      sload\n      dup2\n      mstore\n      swap1\n      0x01\n      add\n      swap1\n      0x20\n      add\n      dup1\n      dup4\n      gt\n      tag_200\n      jumpi\n      dup3\n      swap1\n      sub\n      0x1f\n      and\n      dup3\n      add\n      swap2\n    tag_198:\n      pop\n      pop\n      pop\n      pop\n      pop\n      dup2\n      mstore\n      0x20\n      add\n      0x05\n      dup3\n      add\n      sload\n      dup2\n      mstore\n      0x20\n      add\n      0x06\n      dup3\n      add\n      sload\n      dup2\n      mstore\n      0x20\n      add\n      0x07\n      dup3\n      add\n      sload\n      dup2\n      mstore\n      0x20\n      add\n      0x08\n      dup3\n      add\n      0x00\n      swap1\n      sload\n      swap1\n      0x0100\n      exp\n      swap1\n      div\n      0xff\n      and\n      iszero\n      iszero\n      iszero\n      iszero\n      dup2\n      mstore\n      0x20\n      add\n      0x09\n      dup3\n      add\n      sload\n      dup2\n      mstore\n      pop\n      pop\n      swap1\n      pop\n        /* \"contracts/InquireA.sol\":6223:6231  question */\n      dup1\n        /* \"contracts/InquireA.sol\":6223:6240  question.deadline */\n      0xe0\n      add\n      mload\n        /* \"contracts/InquireA.sol\":6204:6219  block.timestamp */\n      timestamp\n        /* \"contracts/InquireA.sol\":6204:6240  block.timestamp <= question.deadline */\n      gt\n      iszero\n        /* \"contracts/InquireA.sol\":6196:6268  require(block.timestamp <= question.deadline, \"Voting period has ended\") */\n      tag_201\n      jumpi\n      mload(0x40)\n      0x08c379a000000000000000000000000000000000000000000000000000000000\n      dup2\n      mstore\n      0x04\n      add\n      tag_202\n      swap1\n      tag_203\n      jump\t// in\n    tag_202:\n      mload(0x40)\n      dup1\n      swap2\n      sub\n      swap1\n      revert\n    tag_201:\n        /* \"contracts/InquireA.sol\":6302:6309  voteFee */\n      sload(0x01)\n        /* \"contracts/InquireA.sol\":6289:6298  msg.value */\n      callvalue\n        /* \"contracts/InquireA.sol\":6289:6309  msg.value == voteFee */\n      eq\n        /* \"contracts/InquireA.sol\":6281:6332  require(msg.value == voteFee, \"Incorrect vote fee\") */\n      tag_204\n      jumpi\n      mload(0x40)\n      0x08c379a000000000000000000000000000000000000000000000000000000000\n      dup2\n      mstore\n      0x04\n      add\n      tag_205\n      swap1\n      tag_206\n      jump\t// in\n    tag_205:\n      mload(0x40)\n      dup1\n      swap2\n      sub\n      swap1\n      revert\n    tag_204:\n        /* \"contracts/InquireA.sol\":6345:6366  Answer storage answer */\n      0x00\n        /* \"contracts/InquireA.sol\":6369:6376  answers */\n      0x05\n        /* \"contracts/InquireA.sol\":6369:6388  answers[questionId] */\n      0x00\n        /* \"contracts/InquireA.sol\":6377:6387  questionId */\n      dup8\n        /* \"contracts/InquireA.sol\":6369:6388  answers[questionId] */\n      dup2\n      mstore\n      0x20\n      add\n      swap1\n      dup2\n      mstore\n      0x20\n      add\n      0x00\n      keccak256\n        /* \"contracts/InquireA.sol\":6369:6398  answers[questionId][answerId] */\n      0x00\n        /* \"contracts/InquireA.sol\":6389:6397  answerId */\n      dup7\n        /* \"contracts/InquireA.sol\":6369:6398  answers[questionId][answerId] */\n      dup2\n      mstore\n      0x20\n      add\n      swap1\n      dup2\n      mstore\n      0x20\n      add\n      0x00\n      keccak256\n        /* \"contracts/InquireA.sol\":6345:6398  Answer storage answer = answers[questionId][answerId] */\n      swap1\n      pop\n        /* \"contracts/InquireA.sol\":6427:6428  1 */\n      0x01\n        /* \"contracts/InquireA.sol\":6409:6415  answer */\n      dup2\n        /* \"contracts/InquireA.sol\":6409:6423  answer.upvotes */\n      0x02\n      add\n      0x00\n        /* \"contracts/InquireA.sol\":6409:6428  answer.upvotes += 1 */\n      dup3\n      dup3\n      sload\n      tag_207\n      swap2\n      swap1\n      tag_208\n      jump\t// in\n    tag_207:\n      swap3\n      pop\n      pop\n      dup2\n      swap1\n      sstore\n      pop\n        /* \"contracts/InquireA.sol\":6477:6486  msg.value */\n      callvalue\n        /* \"contracts/InquireA.sol\":6439:6448  questions */\n      0x04\n        /* \"contracts/InquireA.sol\":6439:6460  questions[questionId] */\n      0x00\n        /* \"contracts/InquireA.sol\":6449:6459  questionId */\n      dup9\n        /* \"contracts/InquireA.sol\":6439:6460  questions[questionId] */\n      dup2\n      mstore\n      0x20\n      add\n      swap1\n      dup2\n      mstore\n      0x20\n      add\n      0x00\n      keccak256\n        /* \"contracts/InquireA.sol\":6439:6473  questions[questionId].rewardAmount */\n      0x05\n      add\n      0x00\n        /* \"contracts/InquireA.sol\":6439:6486  questions[questionId].rewardAmount += msg.value */\n      dup3\n      dup3\n      sload\n      tag_209\n      swap2\n      swap1\n      tag_208\n      jump\t// in\n    tag_209:\n      swap3\n      pop\n      pop\n      dup2\n      swap1\n      sstore\n      pop\n        /* \"contracts/InquireA.sol\":6532:6542  msg.sender */\n      caller\n        /* \"contracts/InquireA.sol\":6504:6543  Voted(questionId, answerId, msg.sender) */\n      0xffffffffffffffffffffffffffffffffffffffff\n      and\n      0xd91ecafccf238642dccd41161308b3eebe62a12bc5819daf5164780c221ec95b\n        /* \"contracts/InquireA.sol\":6510:6520  questionId */\n      dup8\n        /* \"contracts/InquireA.sol\":6522:6530  answerId */\n      dup8\n        /* \"contracts/InquireA.sol\":6504:6543  Voted(questionId, answerId, msg.sender) */\n      mload(0x40)\n      tag_210\n      swap3\n      swap2\n      swap1\n      tag_141\n      jump\t// in\n    tag_210:\n      mload(0x40)\n      dup1\n      swap2\n      sub\n      swap1\n      log2\n        /* \"contracts/InquireA.sol\":6126:6551  {... */\n      pop\n      pop\n        /* \"contracts/InquireA.sol\":1983:1984  _ */\n      pop\n        /* \"contracts/InquireA.sol\":6001:6551  function voteForAnswer(uint256 questionId, uint256 answerId) public payable questionExists(questionId) notClosed(questionId) {... */\n      pop\n      pop\n      pop\n      jump\t// out\n        /* \"contracts/InquireA.sol\":1096:1139  mapping(address => uint256) public balances */\n    tag_49:\n      mstore(0x20, 0x06)\n      dup1\n      0x00\n      mstore\n      keccak256(0x00, 0x40)\n      0x00\n      swap2\n      pop\n      swap1\n      pop\n      sload\n      dup2\n      jump\t// out\n        /* \"contracts/InquireA.sol\":976:1021  mapping(uint256 => Question) public questions */\n    tag_56:\n      mstore(0x20, 0x04)\n      dup1\n      0x00\n      mstore\n      keccak256(0x00, 0x40)\n      0x00\n      swap2\n      pop\n      swap1\n      pop\n      dup1\n      0x00\n      add\n      sload\n      swap1\n      dup1\n      0x01\n      add\n      0x00\n      swap1\n      sload\n      swap1\n      0x0100\n      exp\n      swap1\n      div\n      0xffffffffffffffffffffffffffffffffffffffff\n      and\n      swap1\n      dup1\n      0x02\n      add\n      dup1\n      sload\n      tag_211\n      swap1\n      tag_150\n      jump\t// in\n    tag_211:\n      dup1\n      0x1f\n      add\n      0x20\n      dup1\n      swap2\n      div\n      mul\n      0x20\n      add\n      mload(0x40)\n      swap1\n      dup2\n      add\n      0x40\n      mstore\n      dup1\n      swap3\n      swap2\n      swap1\n      dup2\n      dup2\n      mstore\n      0x20\n      add\n      dup3\n      dup1\n      sload\n      tag_212\n      swap1\n      tag_150\n      jump\t// in\n    tag_212:\n      dup1\n      iszero\n      tag_213\n      jumpi\n      dup1\n      0x1f\n      lt\n      tag_214\n      jumpi\n      0x0100\n      dup1\n      dup4\n      sload\n      div\n      mul\n      dup4\n      mstore\n      swap2\n      0x20\n      add\n      swap2\n      jump(tag_213)\n    tag_214:\n      dup3\n      add\n      swap2\n      swap1\n      0x00\n      mstore\n      keccak256(0x00, 0x20)\n      swap1\n    tag_215:\n      dup2\n      sload\n      dup2\n      mstore\n      swap1\n      0x01\n      add\n      swap1\n      0x20\n      add\n      dup1\n      dup4\n      gt\n      tag_215\n      jumpi\n      dup3\n      swap1\n      sub\n      0x1f\n      and\n      dup3\n      add\n      swap2\n    tag_213:\n      pop\n      pop\n      pop\n      pop\n      pop\n      swap1\n      dup1\n      0x03\n      add\n      dup1\n      sload\n      tag_216\n      swap1\n      tag_150\n      jump\t// in\n    tag_216:\n      dup1\n      0x1f\n      add\n      0x20\n      dup1\n      swap2\n      div\n      mul\n      0x20\n      add\n      mload(0x40)\n      swap1\n      dup2\n      add\n      0x40\n      mstore\n      dup1\n      swap3\n      swap2\n      swap1\n      dup2\n      dup2\n      mstore\n      0x20\n      add\n      dup3\n      dup1\n      sload\n      tag_217\n      swap1\n      tag_150\n      jump\t// in\n    tag_217:\n      dup1\n      iszero\n      tag_218\n      jumpi\n      dup1\n      0x1f\n      lt\n      tag_219\n      jumpi\n      0x0100\n      dup1\n      dup4\n      sload\n      div\n      mul\n      dup4\n      mstore\n      swap2\n      0x20\n      add\n      swap2\n      jump(tag_218)\n    tag_219:\n      dup3\n      add\n      swap2\n      swap1\n      0x00\n      mstore\n      keccak256(0x00, 0x20)\n      swap1\n    tag_220:\n      dup2\n      sload\n      dup2\n      mstore\n      swap1\n      0x01\n      add\n      swap1\n      0x20\n      add\n      dup1\n      dup4\n      gt\n      tag_220\n      jumpi\n      dup3\n      swap1\n      sub\n      0x1f\n      and\n      dup3\n      add\n      swap2\n    tag_218:\n      pop\n      pop\n      pop\n      pop\n      pop\n      swap1\n      dup1\n      0x04\n      add\n      dup1\n      sload\n      tag_221\n      swap1\n      tag_150\n      jump\t// in\n    tag_221:\n      dup1\n      0x1f\n      add\n      0x20\n      dup1\n      swap2\n      div\n      mul\n      0x20\n      add\n      mload(0x40)\n      swap1\n      dup2\n      add\n      0x40\n      mstore\n      dup1\n      swap3\n      swap2\n      swap1\n      dup2\n      dup2\n      mstore\n      0x20\n      add\n      dup3\n      dup1\n      sload\n      tag_222\n      swap1\n      tag_150\n      jump\t// in\n    tag_222:\n      dup1\n      iszero\n      tag_223\n      jumpi\n      dup1\n      0x1f\n      lt\n      tag_224\n      jumpi\n      0x0100\n      dup1\n      dup4\n      sload\n      div\n      mul\n      dup4\n      mstore\n      swap2\n      0x20\n      add\n      swap2\n      jump(tag_223)\n    tag_224:\n      dup3\n      add\n      swap2\n      swap1\n      0x00\n      mstore\n      keccak256(0x00, 0x20)\n      swap1\n    tag_225:\n      dup2\n      sload\n      dup2\n      mstore\n      swap1\n      0x01\n      add\n      swap1\n      0x20\n      add\n      dup1\n      dup4\n      gt\n      tag_225\n      jumpi\n      dup3\n      swap1\n      sub\n      0x1f\n      and\n      dup3\n      add\n      swap2\n    tag_223:\n      pop\n      pop\n      pop\n      pop\n      pop\n      swap1\n      dup1\n      0x05\n      add\n      sload\n      swap1\n      dup1\n      0x06\n      add\n      sload\n      swap1\n      dup1\n      0x07\n      add\n      sload\n      swap1\n      dup1\n      0x08\n      add\n      0x00\n      swap1\n      sload\n      swap1\n      0x0100\n      exp\n      swap1\n      div\n      0xff\n      and\n      swap1\n      dup1\n      0x09\n      add\n      sload\n      swap1\n      pop\n      dup11\n      jump\t// out\n        /* \"contracts/InquireA.sol\":8016:8237  function withdraw() public {... */\n    tag_61:\n        /* \"contracts/InquireA.sol\":8054:8068  uint256 amount */\n      0x00\n        /* \"contracts/InquireA.sol\":8071:8079  balances */\n      0x06\n        /* \"contracts/InquireA.sol\":8071:8091  balances[msg.sender] */\n      0x00\n        /* \"contracts/InquireA.sol\":8080:8090  msg.sender */\n      caller\n        /* \"contracts/InquireA.sol\":8071:8091  balances[msg.sender] */\n      0xffffffffffffffffffffffffffffffffffffffff\n      and\n      0xffffffffffffffffffffffffffffffffffffffff\n      and\n      dup2\n      mstore\n      0x20\n      add\n      swap1\n      dup2\n      mstore\n      0x20\n      add\n      0x00\n      keccak256\n      sload\n        /* \"contracts/InquireA.sol\":8054:8091  uint256 amount = balances[msg.sender] */\n      swap1\n      pop\n        /* \"contracts/InquireA.sol\":8119:8120  0 */\n      0x00\n        /* \"contracts/InquireA.sol\":8110:8116  amount */\n      dup2\n        /* \"contracts/InquireA.sol\":8110:8120  amount > 0 */\n      gt\n        /* \"contracts/InquireA.sol\":8102:8145  require(amount > 0, \"No funds to withdraw\") */\n      tag_227\n      jumpi\n      mload(0x40)\n      0x08c379a000000000000000000000000000000000000000000000000000000000\n      dup2\n      mstore\n      0x04\n      add\n      tag_228\n      swap1\n      tag_229\n      jump\t// in\n    tag_228:\n      mload(0x40)\n      dup1\n      swap2\n      sub\n      swap1\n      revert\n    tag_227:\n        /* \"contracts/InquireA.sol\":8181:8182  0 */\n      0x00\n        /* \"contracts/InquireA.sol\":8158:8166  balances */\n      0x06\n        /* \"contracts/InquireA.sol\":8158:8178  balances[msg.sender] */\n      0x00\n        /* \"contracts/InquireA.sol\":8167:8177  msg.sender */\n      caller\n        /* \"contracts/InquireA.sol\":8158:8178  balances[msg.sender] */\n      0xffffffffffffffffffffffffffffffffffffffff\n      and\n      0xffffffffffffffffffffffffffffffffffffffff\n      and\n      dup2\n      mstore\n      0x20\n      add\n      swap1\n      dup2\n      mstore\n      0x20\n      add\n      0x00\n      keccak256\n        /* \"contracts/InquireA.sol\":8158:8182  balances[msg.sender] = 0 */\n      dup2\n      swap1\n      sstore\n      pop\n        /* \"contracts/InquireA.sol\":8201:8211  msg.sender */\n      caller\n        /* \"contracts/InquireA.sol\":8193:8221  payable(msg.sender).transfer */\n      0xffffffffffffffffffffffffffffffffffffffff\n      and\n        /* \"contracts/InquireA.sol\":8193:8229  payable(msg.sender).transfer(amount) */\n      0x08fc\n        /* \"contracts/InquireA.sol\":8222:8228  amount */\n      dup3\n        /* \"contracts/InquireA.sol\":8193:8229  payable(msg.sender).transfer(amount) */\n      swap1\n      dup2\n      iszero\n      mul\n      swap1\n      mload(0x40)\n      0x00\n      mload(0x40)\n      dup1\n      dup4\n      sub\n      dup2\n      dup6\n      dup9\n      dup9\n      call\n      swap4\n      pop\n      pop\n      pop\n      pop\n      iszero\n      dup1\n      iszero\n      tag_231\n      jumpi\n      returndatasize\n      0x00\n      dup1\n      returndatacopy\n      revert(0x00, returndatasize)\n    tag_231:\n      pop\n        /* \"contracts/InquireA.sol\":8043:8237  {... */\n      pop\n        /* \"contracts/InquireA.sol\":8016:8237  function withdraw() public {... */\n      jump\t// out\n        /* \"contracts/InquireA.sol\":5743:5993  function getAnswerById(uint256 questionId, uint256 answerId) public view returns (Answer memory) {... */\n    tag_65:\n        /* \"contracts/InquireA.sol\":5825:5838  Answer memory */\n      tag_232\n      tag_233\n      jump\t// in\n    tag_232:\n        /* \"contracts/InquireA.sol\":5910:5911  0 */\n      0x00\n        /* \"contracts/InquireA.sol\":5859:5912  answers[questionId][answerId].responder != address(0) */\n      0xffffffffffffffffffffffffffffffffffffffff\n      and\n        /* \"contracts/InquireA.sol\":5859:5866  answers */\n      0x05\n        /* \"contracts/InquireA.sol\":5859:5878  answers[questionId] */\n      0x00\n        /* \"contracts/InquireA.sol\":5867:5877  questionId */\n      dup6\n        /* \"contracts/InquireA.sol\":5859:5878  answers[questionId] */\n      dup2\n      mstore\n      0x20\n      add\n      swap1\n      dup2\n      mstore\n      0x20\n      add\n      0x00\n      keccak256\n        /* \"contracts/InquireA.sol\":5859:5888  answers[questionId][answerId] */\n      0x00\n        /* \"contracts/InquireA.sol\":5879:5887  answerId */\n      dup5\n        /* \"contracts/InquireA.sol\":5859:5888  answers[questionId][answerId] */\n      dup2\n      mstore\n      0x20\n      add\n      swap1\n      dup2\n      mstore\n      0x20\n      add\n      0x00\n      keccak256\n        /* \"contracts/InquireA.sol\":5859:5898  answers[questionId][answerId].responder */\n      0x00\n      add\n      0x00\n      swap1\n      sload\n      swap1\n      0x0100\n      exp\n      swap1\n      div\n      0xffffffffffffffffffffffffffffffffffffffff\n      and\n        /* \"contracts/InquireA.sol\":5859:5912  answers[questionId][answerId].responder != address(0) */\n      0xffffffffffffffffffffffffffffffffffffffff\n      and\n      sub\n        /* \"contracts/InquireA.sol\":5851:5938  require(answers[questionId][answerId].responder != address(0), \"Answer does not exist\") */\n      tag_235\n      jumpi\n      mload(0x40)\n      0x08c379a000000000000000000000000000000000000000000000000000000000\n      dup2\n      mstore\n      0x04\n      add\n      tag_236\n      swap1\n      tag_237\n      jump\t// in\n    tag_236:\n      mload(0x40)\n      dup1\n      swap2\n      sub\n      swap1\n      revert\n    tag_235:\n        /* \"contracts/InquireA.sol\":5956:5963  answers */\n      0x05\n        /* \"contracts/InquireA.sol\":5956:5975  answers[questionId] */\n      0x00\n        /* \"contracts/InquireA.sol\":5964:5974  questionId */\n      dup5\n        /* \"contracts/InquireA.sol\":5956:5975  answers[questionId] */\n      dup2\n      mstore\n      0x20\n      add\n      swap1\n      dup2\n      mstore\n      0x20\n      add\n      0x00\n      keccak256\n        /* \"contracts/InquireA.sol\":5956:5985  answers[questionId][answerId] */\n      0x00\n        /* \"contracts/InquireA.sol\":5976:5984  answerId */\n      dup4\n        /* \"contracts/InquireA.sol\":5956:5985  answers[questionId][answerId] */\n      dup2\n      mstore\n      0x20\n      add\n      swap1\n      dup2\n      mstore\n      0x20\n      add\n      0x00\n      keccak256\n        /* \"contracts/InquireA.sol\":5949:5985  return answers[questionId][answerId] */\n      mload(0x40)\n      dup1\n      0xa0\n      add\n      0x40\n      mstore\n      swap1\n      dup2\n      0x00\n      dup3\n      add\n      0x00\n      swap1\n      sload\n      swap1\n      0x0100\n      exp\n      swap1\n      div\n      0xffffffffffffffffffffffffffffffffffffffff\n      and\n      0xffffffffffffffffffffffffffffffffffffffff\n      and\n      0xffffffffffffffffffffffffffffffffffffffff\n      and\n      dup2\n      mstore\n      0x20\n      add\n      0x01\n      dup3\n      add\n      dup1\n      sload\n      tag_238\n      swap1\n      tag_150\n      jump\t// in\n    tag_238:\n      dup1\n      0x1f\n      add\n      0x20\n      dup1\n      swap2\n      div\n      mul\n      0x20\n      add\n      mload(0x40)\n      swap1\n      dup2\n      add\n      0x40\n      mstore\n      dup1\n      swap3\n      swap2\n      swap1\n      dup2\n      dup2\n      mstore\n      0x20\n      add\n      dup3\n      dup1\n      sload\n      tag_239\n      swap1\n      tag_150\n      jump\t// in\n    tag_239:\n      dup1\n      iszero\n      tag_240\n      jumpi\n      dup1\n      0x1f\n      lt\n      tag_241\n      jumpi\n      0x0100\n      dup1\n      dup4\n      sload\n      div\n      mul\n      dup4\n      mstore\n      swap2\n      0x20\n      add\n      swap2\n      jump(tag_240)\n    tag_241:\n      dup3\n      add\n      swap2\n      swap1\n      0x00\n      mstore\n      keccak256(0x00, 0x20)\n      swap1\n    tag_242:\n      dup2\n      sload\n      dup2\n      mstore\n      swap1\n      0x01\n      add\n      swap1\n      0x20\n      add\n      dup1\n      dup4\n      gt\n      tag_242\n      jumpi\n      dup3\n      swap1\n      sub\n      0x1f\n      and\n      dup3\n      add\n      swap2\n    tag_240:\n      pop\n      pop\n      pop\n      pop\n      pop\n      dup2\n      mstore\n      0x20\n      add\n      0x02\n      dup3\n      add\n      sload\n      dup2\n      mstore\n      0x20\n      add\n      0x03\n      dup3\n      add\n      sload\n      dup2\n      mstore\n      0x20\n      add\n      0x04\n      dup3\n      add\n      sload\n      dup2\n      mstore\n      pop\n      pop\n      swap1\n      pop\n        /* \"contracts/InquireA.sol\":5743:5993  function getAnswerById(uint256 questionId, uint256 answerId) public view returns (Answer memory) {... */\n      swap3\n      swap2\n      pop\n      pop\n      jump\t// out\n        /* \"contracts/InquireA.sol\":8393:9069  function getQuestionsByCategory(string memory _category) public view returns (uint256[] memory) {... */\n    tag_72:\n        /* \"contracts/InquireA.sol\":8471:8487  uint256[] memory */\n      0x60\n        /* \"contracts/InquireA.sol\":8500:8533  uint256[] memory matchedQuestions */\n      0x00\n        /* \"contracts/InquireA.sol\":8550:8567  questionIdCounter */\n      sload(0x02)\n        /* \"contracts/InquireA.sol\":8536:8568  new uint256[](questionIdCounter) */\n      0xffffffffffffffff\n      dup2\n      gt\n      iszero\n      tag_244\n      jumpi\n      tag_245\n      tag_246\n      jump\t// in\n    tag_245:\n    tag_244:\n      mload(0x40)\n      swap1\n      dup1\n      dup3\n      mstore\n      dup1\n      0x20\n      mul\n      0x20\n      add\n      dup3\n      add\n      0x40\n      mstore\n      dup1\n      iszero\n      tag_247\n      jumpi\n      dup2\n      0x20\n      add\n      0x20\n      dup3\n      mul\n      dup1\n      calldatasize\n      dup4\n      calldatacopy\n      dup1\n      dup3\n      add\n      swap2\n      pop\n      pop\n      swap1\n      pop\n    tag_247:\n      pop\n        /* \"contracts/InquireA.sol\":8500:8568  uint256[] memory matchedQuestions = new uint256[](questionIdCounter) */\n      swap1\n      pop\n        /* \"contracts/InquireA.sol\":8579:8592  uint256 count */\n      0x00\n        /* \"contracts/InquireA.sol\":8614:8623  uint256 i */\n      dup1\n        /* \"contracts/InquireA.sol\":8626:8627  1 */\n      0x01\n        /* \"contracts/InquireA.sol\":8614:8627  uint256 i = 1 */\n      swap1\n      pop\n        /* \"contracts/InquireA.sol\":8609:8847  for (uint256 i = 1; i < questionIdCounter; i++) {... */\n    tag_248:\n        /* \"contracts/InquireA.sol\":8633:8650  questionIdCounter */\n      sload(0x02)\n        /* \"contracts/InquireA.sol\":8629:8630  i */\n      dup2\n        /* \"contracts/InquireA.sol\":8629:8650  i < questionIdCounter */\n      lt\n        /* \"contracts/InquireA.sol\":8609:8847  for (uint256 i = 1; i < questionIdCounter; i++) {... */\n      iszero\n      tag_249\n      jumpi\n        /* \"contracts/InquireA.sol\":8735:8744  _category */\n      dup5\n        /* \"contracts/InquireA.sol\":8719:8746  keccak256(bytes(_category)) */\n      dup1\n      mload\n      swap1\n      0x20\n      add\n      keccak256\n        /* \"contracts/InquireA.sol\":8692:8701  questions */\n      0x04\n        /* \"contracts/InquireA.sol\":8692:8704  questions[i] */\n      0x00\n        /* \"contracts/InquireA.sol\":8702:8703  i */\n      dup4\n        /* \"contracts/InquireA.sol\":8692:8704  questions[i] */\n      dup2\n      mstore\n      0x20\n      add\n      swap1\n      dup2\n      mstore\n      0x20\n      add\n      0x00\n      keccak256\n        /* \"contracts/InquireA.sol\":8692:8713  questions[i].category */\n      0x04\n      add\n        /* \"contracts/InquireA.sol\":8676:8715  keccak256(bytes(questions[i].category)) */\n      mload(0x40)\n      tag_251\n      swap2\n      swap1\n      tag_252\n      jump\t// in\n    tag_251:\n      mload(0x40)\n      dup1\n      swap2\n      sub\n      swap1\n      keccak256\n        /* \"contracts/InquireA.sol\":8676:8746  keccak256(bytes(questions[i].category)) == keccak256(bytes(_category)) */\n      sub\n        /* \"contracts/InquireA.sol\":8672:8836  if (keccak256(bytes(questions[i].category)) == keccak256(bytes(_category))) {... */\n      tag_253\n      jumpi\n        /* \"contracts/InquireA.sol\":8793:8794  i */\n      dup1\n        /* \"contracts/InquireA.sol\":8767:8783  matchedQuestions */\n      dup4\n        /* \"contracts/InquireA.sol\":8784:8789  count */\n      dup4\n        /* \"contracts/InquireA.sol\":8767:8790  matchedQuestions[count] */\n      dup2\n      mload\n      dup2\n      lt\n      tag_254\n      jumpi\n      tag_255\n      tag_256\n      jump\t// in\n    tag_255:\n    tag_254:\n      0x20\n      mul\n      0x20\n      add\n      add\n        /* \"contracts/InquireA.sol\":8767:8794  matchedQuestions[count] = i */\n      dup2\n      dup2\n      mstore\n      pop\n      pop\n        /* \"contracts/InquireA.sol\":8813:8820  count++ */\n      dup2\n      dup1\n      tag_257\n      swap1\n      tag_169\n      jump\t// in\n    tag_257:\n      swap3\n      pop\n      pop\n        /* \"contracts/InquireA.sol\":8672:8836  if (keccak256(bytes(questions[i].category)) == keccak256(bytes(_category))) {... */\n    tag_253:\n        /* \"contracts/InquireA.sol\":8652:8655  i++ */\n      dup1\n      dup1\n      0x01\n      add\n      swap2\n      pop\n      pop\n        /* \"contracts/InquireA.sol\":8609:8847  for (uint256 i = 1; i < questionIdCounter; i++) {... */\n      jump(tag_248)\n    tag_249:\n      pop\n        /* \"contracts/InquireA.sol\":8885:8908  uint256[] memory result */\n      0x00\n        /* \"contracts/InquireA.sol\":8925:8930  count */\n      dup2\n        /* \"contracts/InquireA.sol\":8911:8931  new uint256[](count) */\n      0xffffffffffffffff\n      dup2\n      gt\n      iszero\n      tag_258\n      jumpi\n      tag_259\n      tag_246\n      jump\t// in\n    tag_259:\n    tag_258:\n      mload(0x40)\n      swap1\n      dup1\n      dup3\n      mstore\n      dup1\n      0x20\n      mul\n      0x20\n      add\n      dup3\n      add\n      0x40\n      mstore\n      dup1\n      iszero\n      tag_260\n      jumpi\n      dup2\n      0x20\n      add\n      0x20\n      dup3\n      mul\n      dup1\n      calldatasize\n      dup4\n      calldatacopy\n      dup1\n      dup3\n      add\n      swap2\n      pop\n      pop\n      swap1\n      pop\n    tag_260:\n      pop\n        /* \"contracts/InquireA.sol\":8885:8931  uint256[] memory result = new uint256[](count) */\n      swap1\n      pop\n        /* \"contracts/InquireA.sol\":8947:8956  uint256 i */\n      0x00\n        /* \"contracts/InquireA.sol\":8942:9036  for (uint256 i = 0; i < count; i++) {... */\n    tag_261:\n        /* \"contracts/InquireA.sol\":8966:8971  count */\n      dup3\n        /* \"contracts/InquireA.sol\":8962:8963  i */\n      dup2\n        /* \"contracts/InquireA.sol\":8962:8971  i < count */\n      lt\n        /* \"contracts/InquireA.sol\":8942:9036  for (uint256 i = 0; i < count; i++) {... */\n      iszero\n      tag_262\n      jumpi\n        /* \"contracts/InquireA.sol\":9005:9021  matchedQuestions */\n      dup4\n        /* \"contracts/InquireA.sol\":9022:9023  i */\n      dup2\n        /* \"contracts/InquireA.sol\":9005:9024  matchedQuestions[i] */\n      dup2\n      mload\n      dup2\n      lt\n      tag_264\n      jumpi\n      tag_265\n      tag_256\n      jump\t// in\n    tag_265:\n    tag_264:\n      0x20\n      mul\n      0x20\n      add\n      add\n      mload\n        /* \"contracts/InquireA.sol\":8993:8999  result */\n      dup3\n        /* \"contracts/InquireA.sol\":9000:9001  i */\n      dup3\n        /* \"contracts/InquireA.sol\":8993:9002  result[i] */\n      dup2\n      mload\n      dup2\n      lt\n      tag_266\n      jumpi\n      tag_267\n      tag_256\n      jump\t// in\n    tag_267:\n    tag_266:\n      0x20\n      mul\n      0x20\n      add\n      add\n        /* \"contracts/InquireA.sol\":8993:9024  result[i] = matchedQuestions[i] */\n      dup2\n      dup2\n      mstore\n      pop\n      pop\n        /* \"contracts/InquireA.sol\":8973:8976  i++ */\n      dup1\n      dup1\n      0x01\n      add\n      swap2\n      pop\n      pop\n        /* \"contracts/InquireA.sol\":8942:9036  for (uint256 i = 0; i < count; i++) {... */\n      jump(tag_261)\n    tag_262:\n      pop\n        /* \"contracts/InquireA.sol\":9055:9061  result */\n      dup1\n        /* \"contracts/InquireA.sol\":9048:9061  return result */\n      swap4\n      pop\n      pop\n      pop\n      pop\n        /* \"contracts/InquireA.sol\":8393:9069  function getQuestionsByCategory(string memory _category) public view returns (uint256[] memory) {... */\n      swap2\n      swap1\n      pop\n      jump\t// out\n        /* \"contracts/InquireA.sol\":2200:3538  function askQuestion(... */\n    tag_78:\n        /* \"contracts/InquireA.sol\":2429:2430  0 */\n      0x00\n        /* \"contracts/InquireA.sol\":2417:2426  msg.value */\n      callvalue\n        /* \"contracts/InquireA.sol\":2417:2430  msg.value > 0 */\n      gt\n        /* \"contracts/InquireA.sol\":2409:2467  require(msg.value > 0, \"Reward must be greater than zero\") */\n      tag_269\n      jumpi\n      mload(0x40)\n      0x08c379a000000000000000000000000000000000000000000000000000000000\n      dup2\n      mstore\n      0x04\n      add\n      tag_270\n      swap1\n      tag_271\n      jump\t// in\n    tag_270:\n      mload(0x40)\n      dup1\n      swap2\n      sub\n      swap1\n      revert\n    tag_269:\n        /* \"contracts/InquireA.sol\":2512:2513  0 */\n      0x00\n        /* \"contracts/InquireA.sol\":2492:2501  _category */\n      dup3\n        /* \"contracts/InquireA.sol\":2486:2509  bytes(_category).length */\n      mload\n        /* \"contracts/InquireA.sol\":2486:2513  bytes(_category).length > 0 */\n      gt\n        /* \"contracts/InquireA.sol\":2478:2542  require(bytes(_category).length > 0, \"Category cannot be empty\") */\n      tag_272\n      jumpi\n      mload(0x40)\n      0x08c379a000000000000000000000000000000000000000000000000000000000\n      dup2\n      mstore\n      0x04\n      add\n      tag_273\n      swap1\n      tag_274\n      jump\t// in\n    tag_273:\n      mload(0x40)\n      dup1\n      swap2\n      sub\n      swap1\n      revert\n    tag_272:\n        /* \"contracts/InquireA.sol\":2555:2571  uint256 deadline */\n      0x00\n        /* \"contracts/InquireA.sol\":2605:2627  DeadlinePeriod.OneWeek */\n      dup1\n        /* \"contracts/InquireA.sol\":2586:2627  _deadlinePeriod == DeadlinePeriod.OneWeek */\n      0x02\n      dup2\n      gt\n      iszero\n      tag_275\n      jumpi\n      tag_276\n      tag_277\n      jump\t// in\n    tag_276:\n    tag_275:\n        /* \"contracts/InquireA.sol\":2586:2601  _deadlinePeriod */\n      dup3\n        /* \"contracts/InquireA.sol\":2586:2627  _deadlinePeriod == DeadlinePeriod.OneWeek */\n      0x02\n      dup2\n      gt\n      iszero\n      tag_278\n      jumpi\n      tag_279\n      tag_277\n      jump\t// in\n    tag_279:\n    tag_278:\n      sub\n        /* \"contracts/InquireA.sol\":2582:2923  if (_deadlinePeriod == DeadlinePeriod.OneWeek) {... */\n      tag_280\n      jumpi\n        /* \"contracts/InquireA.sol\":261:267  7 days */\n      0x093a80\n        /* \"contracts/InquireA.sol\":2655:2670  block.timestamp */\n      timestamp\n        /* \"contracts/InquireA.sol\":2655:2677  block.timestamp + WEEK */\n      tag_281\n      swap2\n      swap1\n      tag_208\n      jump\t// in\n    tag_281:\n        /* \"contracts/InquireA.sol\":2644:2677  deadline = block.timestamp + WEEK */\n      swap1\n      pop\n        /* \"contracts/InquireA.sol\":2582:2923  if (_deadlinePeriod == DeadlinePeriod.OneWeek) {... */\n      jump(tag_282)\n    tag_280:\n        /* \"contracts/InquireA.sol\":2718:2741  DeadlinePeriod.TwoWeeks */\n      0x01\n        /* \"contracts/InquireA.sol\":2699:2741  _deadlinePeriod == DeadlinePeriod.TwoWeeks */\n      0x02\n      dup2\n      gt\n      iszero\n      tag_283\n      jumpi\n      tag_284\n      tag_277\n      jump\t// in\n    tag_284:\n    tag_283:\n        /* \"contracts/InquireA.sol\":2699:2714  _deadlinePeriod */\n      dup3\n        /* \"contracts/InquireA.sol\":2699:2741  _deadlinePeriod == DeadlinePeriod.TwoWeeks */\n      0x02\n      dup2\n      gt\n      iszero\n      tag_285\n      jumpi\n      tag_286\n      tag_277\n      jump\t// in\n    tag_286:\n    tag_285:\n      sub\n        /* \"contracts/InquireA.sol\":2695:2923  if (_deadlinePeriod == DeadlinePeriod.TwoWeeks) {... */\n      tag_287\n      jumpi\n        /* \"contracts/InquireA.sol\":310:317  14 days */\n      0x127500\n        /* \"contracts/InquireA.sol\":2769:2784  block.timestamp */\n      timestamp\n        /* \"contracts/InquireA.sol\":2769:2796  block.timestamp + TWO_WEEKS */\n      tag_288\n      swap2\n      swap1\n      tag_208\n      jump\t// in\n    tag_288:\n        /* \"contracts/InquireA.sol\":2758:2796  deadline = block.timestamp + TWO_WEEKS */\n      swap1\n      pop\n        /* \"contracts/InquireA.sol\":2695:2923  if (_deadlinePeriod == DeadlinePeriod.TwoWeeks) {... */\n      jump(tag_289)\n    tag_287:\n        /* \"contracts/InquireA.sol\":2837:2860  DeadlinePeriod.OneMonth */\n      0x02\n        /* \"contracts/InquireA.sol\":2818:2860  _deadlinePeriod == DeadlinePeriod.OneMonth */\n      dup1\n      dup2\n      gt\n      iszero\n      tag_290\n      jumpi\n      tag_291\n      tag_277\n      jump\t// in\n    tag_291:\n    tag_290:\n        /* \"contracts/InquireA.sol\":2818:2833  _deadlinePeriod */\n      dup3\n        /* \"contracts/InquireA.sol\":2818:2860  _deadlinePeriod == DeadlinePeriod.OneMonth */\n      0x02\n      dup2\n      gt\n      iszero\n      tag_292\n      jumpi\n      tag_293\n      tag_277\n      jump\t// in\n    tag_293:\n    tag_292:\n      sub\n        /* \"contracts/InquireA.sol\":2814:2923  if (_deadlinePeriod == DeadlinePeriod.OneMonth) {... */\n      tag_294\n      jumpi\n        /* \"contracts/InquireA.sol\":356:363  30 days */\n      0x278d00\n        /* \"contracts/InquireA.sol\":2888:2903  block.timestamp */\n      timestamp\n        /* \"contracts/InquireA.sol\":2888:2911  block.timestamp + MONTH */\n      tag_295\n      swap2\n      swap1\n      tag_208\n      jump\t// in\n    tag_295:\n        /* \"contracts/InquireA.sol\":2877:2911  deadline = block.timestamp + MONTH */\n      swap1\n      pop\n        /* \"contracts/InquireA.sol\":2814:2923  if (_deadlinePeriod == DeadlinePeriod.OneMonth) {... */\n    tag_294:\n        /* \"contracts/InquireA.sol\":2695:2923  if (_deadlinePeriod == DeadlinePeriod.TwoWeeks) {... */\n    tag_289:\n        /* \"contracts/InquireA.sol\":2582:2923  if (_deadlinePeriod == DeadlinePeriod.OneWeek) {... */\n    tag_282:\n        /* \"contracts/InquireA.sol\":2943:2961  uint256 questionId */\n      0x00\n        /* \"contracts/InquireA.sol\":2964:2981  questionIdCounter */\n      0x02\n      0x00\n        /* \"contracts/InquireA.sol\":2964:2983  questionIdCounter++ */\n      dup2\n      sload\n      dup1\n      swap3\n      swap2\n      swap1\n      tag_296\n      swap1\n      tag_169\n      jump\t// in\n    tag_296:\n      swap2\n      swap1\n      pop\n      sstore\n        /* \"contracts/InquireA.sol\":2943:2983  uint256 questionId = questionIdCounter++ */\n      swap1\n      pop\n        /* \"contracts/InquireA.sol\":3018:3438  Question({... */\n      mload(0x40)\n      dup1\n      0x0140\n      add\n      0x40\n      mstore\n      dup1\n        /* \"contracts/InquireA.sol\":3046:3056  questionId */\n      dup3\n        /* \"contracts/InquireA.sol\":3018:3438  Question({... */\n      dup2\n      mstore\n      0x20\n      add\n        /* \"contracts/InquireA.sol\":3117:3127  msg.sender */\n      caller\n        /* \"contracts/InquireA.sol\":3018:3438  Question({... */\n      0xffffffffffffffffffffffffffffffffffffffff\n      and\n      dup2\n      mstore\n      0x20\n      add\n        /* \"contracts/InquireA.sol\":3156:3169  _questionText */\n      dup8\n        /* \"contracts/InquireA.sol\":3018:3438  Question({... */\n      dup2\n      mstore\n      0x20\n      add\n        /* \"contracts/InquireA.sol\":3201:3217  _questionContent */\n      dup7\n        /* \"contracts/InquireA.sol\":3018:3438  Question({... */\n      dup2\n      mstore\n      0x20\n      add\n        /* \"contracts/InquireA.sol\":3243:3252  _category */\n      dup6\n        /* \"contracts/InquireA.sol\":3018:3438  Question({... */\n      dup2\n      mstore\n      0x20\n      add\n        /* \"contracts/InquireA.sol\":3281:3290  msg.value */\n      callvalue\n        /* \"contracts/InquireA.sol\":3018:3438  Question({... */\n      dup2\n      mstore\n      0x20\n      add\n        /* \"contracts/InquireA.sol\":3316:3331  block.timestamp */\n      timestamp\n        /* \"contracts/InquireA.sol\":3018:3438  Question({... */\n      dup2\n      mstore\n      0x20\n      add\n        /* \"contracts/InquireA.sol\":3356:3364  deadline */\n      dup4\n        /* \"contracts/InquireA.sol\":3018:3438  Question({... */\n      dup2\n      mstore\n      0x20\n      add\n        /* \"contracts/InquireA.sol\":3389:3394  false */\n      0x00\n        /* \"contracts/InquireA.sol\":3018:3438  Question({... */\n      iszero\n      iszero\n      dup2\n      mstore\n      0x20\n      add\n        /* \"contracts/InquireA.sol\":3425:3426  0 */\n      0x00\n        /* \"contracts/InquireA.sol\":3018:3438  Question({... */\n      dup2\n      mstore\n      pop\n        /* \"contracts/InquireA.sol\":2994:3003  questions */\n      0x04\n        /* \"contracts/InquireA.sol\":2994:3015  questions[questionId] */\n      0x00\n        /* \"contracts/InquireA.sol\":3004:3014  questionId */\n      dup4\n        /* \"contracts/InquireA.sol\":2994:3015  questions[questionId] */\n      dup2\n      mstore\n      0x20\n      add\n      swap1\n      dup2\n      mstore\n      0x20\n      add\n      0x00\n      keccak256\n        /* \"contracts/InquireA.sol\":2994:3438  questions[questionId] = Question({... */\n      0x00\n      dup3\n      add\n      mload\n      dup2\n      0x00\n      add\n      sstore\n      0x20\n      dup3\n      add\n      mload\n      dup2\n      0x01\n      add\n      exp(0x0100, 0x00)\n      dup2\n      sload\n      dup2\n      0xffffffffffffffffffffffffffffffffffffffff\n      mul\n      not\n      and\n      swap1\n      dup4\n      0xffffffffffffffffffffffffffffffffffffffff\n      and\n      mul\n      or\n      swap1\n      sstore\n      pop\n      0x40\n      dup3\n      add\n      mload\n      dup2\n      0x02\n      add\n      swap1\n      dup2\n      tag_297\n      swap2\n      swap1\n      tag_171\n      jump\t// in\n    tag_297:\n      pop\n      0x60\n      dup3\n      add\n      mload\n      dup2\n      0x03\n      add\n      swap1\n      dup2\n      tag_298\n      swap2\n      swap1\n      tag_171\n      jump\t// in\n    tag_298:\n      pop\n      0x80\n      dup3\n      add\n      mload\n      dup2\n      0x04\n      add\n      swap1\n      dup2\n      tag_299\n      swap2\n      swap1\n      tag_171\n      jump\t// in\n    tag_299:\n      pop\n      0xa0\n      dup3\n      add\n      mload\n      dup2\n      0x05\n      add\n      sstore\n      0xc0\n      dup3\n      add\n      mload\n      dup2\n      0x06\n      add\n      sstore\n      0xe0\n      dup3\n      add\n      mload\n      dup2\n      0x07\n      add\n      sstore\n      0x0100\n      dup3\n      add\n      mload\n      dup2\n      0x08\n      add\n      exp(0x0100, 0x00)\n      dup2\n      sload\n      dup2\n      0xff\n      mul\n      not\n      and\n      swap1\n      dup4\n      iszero\n      iszero\n      mul\n      or\n      swap1\n      sstore\n      pop\n      0x0120\n      dup3\n      add\n      mload\n      dup2\n      0x09\n      add\n      sstore\n      swap1\n      pop\n      pop\n        /* \"contracts/InquireA.sol\":3482:3492  msg.sender */\n      caller\n        /* \"contracts/InquireA.sol\":3456:3530  QuestionAsked(questionId, msg.sender, _questionText, msg.value, _category) */\n      0xffffffffffffffffffffffffffffffffffffffff\n      and\n      0xb8105899d34d8481e717a601e8d7a732c27b0ab23778e01145f2f3eb24a1120c\n        /* \"contracts/InquireA.sol\":3470:3480  questionId */\n      dup3\n        /* \"contracts/InquireA.sol\":3494:3507  _questionText */\n      dup9\n        /* \"contracts/InquireA.sol\":3509:3518  msg.value */\n      callvalue\n        /* \"contracts/InquireA.sol\":3520:3529  _category */\n      dup9\n        /* \"contracts/InquireA.sol\":3456:3530  QuestionAsked(questionId, msg.sender, _questionText, msg.value, _category) */\n      mload(0x40)\n      tag_300\n      swap5\n      swap4\n      swap3\n      swap2\n      swap1\n      tag_301\n      jump\t// in\n    tag_300:\n      mload(0x40)\n      dup1\n      swap2\n      sub\n      swap1\n      log2\n        /* \"contracts/InquireA.sol\":2398:3538  {... */\n      pop\n      pop\n        /* \"contracts/InquireA.sol\":2200:3538  function askQuestion(... */\n      pop\n      pop\n      pop\n      pop\n      jump\t// out\n        /* \"contracts/InquireA.sol\":7007:8008  function distributeRewards(uint256 questionId) public questionExists(questionId) {... */\n    tag_82:\n        /* \"contracts/InquireA.sol\":7076:7086  questionId */\n      dup1\n        /* \"contracts/InquireA.sol\":1942:1943  0 */\n      0x00\n        /* \"contracts/InquireA.sol\":1903:1944  questions[questionId].asker != address(0) */\n      0xffffffffffffffffffffffffffffffffffffffff\n      and\n        /* \"contracts/InquireA.sol\":1903:1912  questions */\n      0x04\n        /* \"contracts/InquireA.sol\":1903:1924  questions[questionId] */\n      0x00\n        /* \"contracts/InquireA.sol\":1913:1923  questionId */\n      dup4\n        /* \"contracts/InquireA.sol\":1903:1924  questions[questionId] */\n      dup2\n      mstore\n      0x20\n      add\n      swap1\n      dup2\n      mstore\n      0x20\n      add\n      0x00\n      keccak256\n        /* \"contracts/InquireA.sol\":1903:1930  questions[questionId].asker */\n      0x01\n      add\n      0x00\n      swap1\n      sload\n      swap1\n      0x0100\n      exp\n      swap1\n      div\n      0xffffffffffffffffffffffffffffffffffffffff\n      and\n        /* \"contracts/InquireA.sol\":1903:1944  questions[questionId].asker != address(0) */\n      0xffffffffffffffffffffffffffffffffffffffff\n      and\n      sub\n        /* \"contracts/InquireA.sol\":1895:1972  require(questions[questionId].asker != address(0), \"Question does not exist\") */\n      tag_303\n      jumpi\n      mload(0x40)\n      0x08c379a000000000000000000000000000000000000000000000000000000000\n      dup2\n      mstore\n      0x04\n      add\n      tag_304\n      swap1\n      tag_131\n      jump\t// in\n    tag_304:\n      mload(0x40)\n      dup1\n      swap2\n      sub\n      swap1\n      revert\n    tag_303:\n        /* \"contracts/InquireA.sol\":7099:7124  Question storage question */\n      0x00\n        /* \"contracts/InquireA.sol\":7127:7136  questions */\n      0x04\n        /* \"contracts/InquireA.sol\":7127:7148  questions[questionId] */\n      0x00\n        /* \"contracts/InquireA.sol\":7137:7147  questionId */\n      dup5\n        /* \"contracts/InquireA.sol\":7127:7148  questions[questionId] */\n      dup2\n      mstore\n      0x20\n      add\n      swap1\n      dup2\n      mstore\n      0x20\n      add\n      0x00\n      keccak256\n        /* \"contracts/InquireA.sol\":7099:7148  Question storage question = questions[questionId] */\n      swap1\n      pop\n        /* \"contracts/InquireA.sol\":7185:7193  question */\n      dup1\n        /* \"contracts/InquireA.sol\":7185:7202  question.deadline */\n      0x07\n      add\n      sload\n        /* \"contracts/InquireA.sol\":7167:7182  block.timestamp */\n      timestamp\n        /* \"contracts/InquireA.sol\":7167:7202  block.timestamp > question.deadline */\n      gt\n        /* \"contracts/InquireA.sol\":7159:7240  require(block.timestamp > question.deadline, \"Cannot distribute before deadline\") */\n      tag_306\n      jumpi\n      mload(0x40)\n      0x08c379a000000000000000000000000000000000000000000000000000000000\n      dup2\n      mstore\n      0x04\n      add\n      tag_307\n      swap1\n      tag_308\n      jump\t// in\n    tag_307:\n      mload(0x40)\n      dup1\n      swap2\n      sub\n      swap1\n      revert\n    tag_306:\n        /* \"contracts/InquireA.sol\":7260:7268  question */\n      dup1\n        /* \"contracts/InquireA.sol\":7260:7277  question.isClosed */\n      0x08\n      add\n      0x00\n      swap1\n      sload\n      swap1\n      0x0100\n      exp\n      swap1\n      div\n      0xff\n      and\n        /* \"contracts/InquireA.sol\":7259:7277  !question.isClosed */\n      iszero\n        /* \"contracts/InquireA.sol\":7251:7308  require(!question.isClosed, \"Question is already closed\") */\n      tag_309\n      jumpi\n      mload(0x40)\n      0x08c379a000000000000000000000000000000000000000000000000000000000\n      dup2\n      mstore\n      0x04\n      add\n      tag_310\n      swap1\n      tag_135\n      jump\t// in\n    tag_310:\n      mload(0x40)\n      dup1\n      swap2\n      sub\n      swap1\n      revert\n    tag_309:\n        /* \"contracts/InquireA.sol\":7321:7341  uint256 totalUpvotes */\n      0x00\n        /* \"contracts/InquireA.sol\":7356:7375  uint256 totalReward */\n      dup1\n        /* \"contracts/InquireA.sol\":7378:7386  question */\n      dup3\n        /* \"contracts/InquireA.sol\":7378:7399  question.rewardAmount */\n      0x05\n      add\n      sload\n        /* \"contracts/InquireA.sol\":7356:7399  uint256 totalReward = question.rewardAmount */\n      swap1\n      pop\n        /* \"contracts/InquireA.sol\":7449:7458  uint256 i */\n      0x00\n        /* \"contracts/InquireA.sol\":7444:7563  for (uint256 i = 0; i < answerIdCounter; i++) {... */\n    tag_311:\n        /* \"contracts/InquireA.sol\":7468:7483  answerIdCounter */\n      sload(0x03)\n        /* \"contracts/InquireA.sol\":7464:7465  i */\n      dup2\n        /* \"contracts/InquireA.sol\":7464:7483  i < answerIdCounter */\n      lt\n        /* \"contracts/InquireA.sol\":7444:7563  for (uint256 i = 0; i < answerIdCounter; i++) {... */\n      iszero\n      tag_312\n      jumpi\n        /* \"contracts/InquireA.sol\":7521:7528  answers */\n      0x05\n        /* \"contracts/InquireA.sol\":7521:7540  answers[questionId] */\n      0x00\n        /* \"contracts/InquireA.sol\":7529:7539  questionId */\n      dup8\n        /* \"contracts/InquireA.sol\":7521:7540  answers[questionId] */\n      dup2\n      mstore\n      0x20\n      add\n      swap1\n      dup2\n      mstore\n      0x20\n      add\n      0x00\n      keccak256\n        /* \"contracts/InquireA.sol\":7521:7543  answers[questionId][i] */\n      0x00\n        /* \"contracts/InquireA.sol\":7541:7542  i */\n      dup3\n        /* \"contracts/InquireA.sol\":7521:7543  answers[questionId][i] */\n      dup2\n      mstore\n      0x20\n      add\n      swap1\n      dup2\n      mstore\n      0x20\n      add\n      0x00\n      keccak256\n        /* \"contracts/InquireA.sol\":7521:7551  answers[questionId][i].upvotes */\n      0x02\n      add\n      sload\n        /* \"contracts/InquireA.sol\":7505:7551  totalUpvotes += answers[questionId][i].upvotes */\n      dup4\n      tag_314\n      swap2\n      swap1\n      tag_208\n      jump\t// in\n    tag_314:\n      swap3\n      pop\n        /* \"contracts/InquireA.sol\":7485:7488  i++ */\n      dup1\n      dup1\n      0x01\n      add\n      swap2\n      pop\n      pop\n        /* \"contracts/InquireA.sol\":7444:7563  for (uint256 i = 0; i < answerIdCounter; i++) {... */\n      jump(tag_311)\n    tag_312:\n      pop\n        /* \"contracts/InquireA.sol\":7614:7623  uint256 i */\n      0x00\n        /* \"contracts/InquireA.sol\":7609:7964  for (uint256 i = 0; i < answerIdCounter; i++) {... */\n    tag_315:\n        /* \"contracts/InquireA.sol\":7633:7648  answerIdCounter */\n      sload(0x03)\n        /* \"contracts/InquireA.sol\":7629:7630  i */\n      dup2\n        /* \"contracts/InquireA.sol\":7629:7648  i < answerIdCounter */\n      lt\n        /* \"contracts/InquireA.sol\":7609:7964  for (uint256 i = 0; i < answerIdCounter; i++) {... */\n      iszero\n      tag_316\n      jumpi\n        /* \"contracts/InquireA.sol\":7670:7691  Answer storage answer */\n      0x00\n        /* \"contracts/InquireA.sol\":7694:7701  answers */\n      0x05\n        /* \"contracts/InquireA.sol\":7694:7713  answers[questionId] */\n      0x00\n        /* \"contracts/InquireA.sol\":7702:7712  questionId */\n      dup9\n        /* \"contracts/InquireA.sol\":7694:7713  answers[questionId] */\n      dup2\n      mstore\n      0x20\n      add\n      swap1\n      dup2\n      mstore\n      0x20\n      add\n      0x00\n      keccak256\n        /* \"contracts/InquireA.sol\":7694:7716  answers[questionId][i] */\n      0x00\n        /* \"contracts/InquireA.sol\":7714:7715  i */\n      dup4\n        /* \"contracts/InquireA.sol\":7694:7716  answers[questionId][i] */\n      dup2\n      mstore\n      0x20\n      add\n      swap1\n      dup2\n      mstore\n      0x20\n      add\n      0x00\n      keccak256\n        /* \"contracts/InquireA.sol\":7670:7716  Answer storage answer = answers[questionId][i] */\n      swap1\n      pop\n        /* \"contracts/InquireA.sol\":7750:7751  0 */\n      0x00\n        /* \"contracts/InquireA.sol\":7735:7747  totalUpvotes */\n      dup5\n        /* \"contracts/InquireA.sol\":7735:7751  totalUpvotes > 0 */\n      gt\n        /* \"contracts/InquireA.sol\":7731:7953  if (totalUpvotes > 0) {... */\n      iszero\n      tag_318\n      jumpi\n        /* \"contracts/InquireA.sol\":7772:7786  uint256 reward */\n      0x00\n        /* \"contracts/InquireA.sol\":7822:7834  totalUpvotes */\n      dup5\n        /* \"contracts/InquireA.sol\":7807:7818  totalReward */\n      dup5\n        /* \"contracts/InquireA.sol\":7790:7796  answer */\n      dup4\n        /* \"contracts/InquireA.sol\":7790:7804  answer.upvotes */\n      0x02\n      add\n      sload\n        /* \"contracts/InquireA.sol\":7790:7818  answer.upvotes * totalReward */\n      tag_319\n      swap2\n      swap1\n      tag_320\n      jump\t// in\n    tag_319:\n        /* \"contracts/InquireA.sol\":7789:7834  (answer.upvotes * totalReward) / totalUpvotes */\n      tag_321\n      swap2\n      swap1\n      tag_322\n      jump\t// in\n    tag_321:\n        /* \"contracts/InquireA.sol\":7772:7834  uint256 reward = (answer.upvotes * totalReward) / totalUpvotes */\n      swap1\n      pop\n        /* \"contracts/InquireA.sol\":7876:7882  reward */\n      dup1\n        /* \"contracts/InquireA.sol\":7853:7859  answer */\n      dup3\n        /* \"contracts/InquireA.sol\":7853:7872  answer.rewardAmount */\n      0x03\n      add\n      0x00\n        /* \"contracts/InquireA.sol\":7853:7882  answer.rewardAmount += reward */\n      dup3\n      dup3\n      sload\n      tag_323\n      swap2\n      swap1\n      tag_208\n      jump\t// in\n    tag_323:\n      swap3\n      pop\n      pop\n      dup2\n      swap1\n      sstore\n      pop\n        /* \"contracts/InquireA.sol\":7931:7937  reward */\n      dup1\n        /* \"contracts/InquireA.sol\":7901:7909  balances */\n      0x06\n        /* \"contracts/InquireA.sol\":7901:7927  balances[answer.responder] */\n      0x00\n        /* \"contracts/InquireA.sol\":7910:7916  answer */\n      dup5\n        /* \"contracts/InquireA.sol\":7910:7926  answer.responder */\n      0x00\n      add\n      0x00\n      swap1\n      sload\n      swap1\n      0x0100\n      exp\n      swap1\n      div\n      0xffffffffffffffffffffffffffffffffffffffff\n      and\n        /* \"contracts/InquireA.sol\":7901:7927  balances[answer.responder] */\n      0xffffffffffffffffffffffffffffffffffffffff\n      and\n      0xffffffffffffffffffffffffffffffffffffffff\n      and\n      dup2\n      mstore\n      0x20\n      add\n      swap1\n      dup2\n      mstore\n      0x20\n      add\n      0x00\n      keccak256\n      0x00\n        /* \"contracts/InquireA.sol\":7901:7937  balances[answer.responder] += reward */\n      dup3\n      dup3\n      sload\n      tag_324\n      swap2\n      swap1\n      tag_208\n      jump\t// in\n    tag_324:\n      swap3\n      pop\n      pop\n      dup2\n      swap1\n      sstore\n      pop\n        /* \"contracts/InquireA.sol\":7753:7953  {... */\n      pop\n        /* \"contracts/InquireA.sol\":7731:7953  if (totalUpvotes > 0) {... */\n    tag_318:\n        /* \"contracts/InquireA.sol\":7655:7964  {... */\n      pop\n        /* \"contracts/InquireA.sol\":7650:7653  i++ */\n      dup1\n      dup1\n      0x01\n      add\n      swap2\n      pop\n      pop\n        /* \"contracts/InquireA.sol\":7609:7964  for (uint256 i = 0; i < answerIdCounter; i++) {... */\n      jump(tag_315)\n    tag_316:\n      pop\n        /* \"contracts/InquireA.sol\":7996:8000  true */\n      0x01\n        /* \"contracts/InquireA.sol\":7976:7984  question */\n      dup4\n        /* \"contracts/InquireA.sol\":7976:7993  question.isClosed */\n      0x08\n      add\n      0x00\n        /* \"contracts/InquireA.sol\":7976:8000  question.isClosed = true */\n      0x0100\n      exp\n      dup2\n      sload\n      dup2\n      0xff\n      mul\n      not\n      and\n      swap1\n      dup4\n      iszero\n      iszero\n      mul\n      or\n      swap1\n      sstore\n      pop\n        /* \"contracts/InquireA.sol\":7088:8008  {... */\n      pop\n      pop\n      pop\n        /* \"contracts/InquireA.sol\":7007:8008  function distributeRewards(uint256 questionId) public questionExists(questionId) {... */\n      pop\n      pop\n      jump\t// out\n        /* \"contracts/InquireA.sol\":154:186  uint256 public questionIdCounter */\n    tag_85:\n      sload(0x02)\n      dup2\n      jump\t// out\n        /* \"contracts/InquireA.sol\":85:105  address public owner */\n    tag_89:\n      0x00\n      dup1\n      sload\n      swap1\n      0x0100\n      exp\n      swap1\n      div\n      0xffffffffffffffffffffffffffffffffffffffff\n      and\n      dup2\n      jump\t// out\n        /* \"contracts/InquireA.sol\":274:317  uint256 public constant TWO_WEEKS = 14 days */\n    tag_94:\n        /* \"contracts/InquireA.sol\":310:317  14 days */\n      0x127500\n        /* \"contracts/InquireA.sol\":274:317  uint256 public constant TWO_WEEKS = 14 days */\n      dup2\n      jump\t// out\n        /* \"contracts/InquireA.sol\":8245:8341  function balance() public view returns (uint256) {... */\n    tag_98:\n        /* \"contracts/InquireA.sol\":8285:8292  uint256 */\n      0x00\n        /* \"contracts/InquireA.sol\":8312:8333  address(this).balance */\n      selfbalance\n        /* \"contracts/InquireA.sol\":8305:8333  return address(this).balance */\n      swap1\n      pop\n        /* \"contracts/InquireA.sol\":8245:8341  function balance() public view returns (uint256) {... */\n      swap1\n      jump\t// out\n        /* \"contracts/InquireA.sol\":193:223  uint256 public answerIdCounter */\n    tag_102:\n      sload(0x03)\n      dup2\n      jump\t// out\n        /* \"contracts/InquireA.sol\":324:363  uint256 public constant MONTH = 30 days */\n    tag_106:\n        /* \"contracts/InquireA.sol\":356:363  30 days */\n      0x278d00\n        /* \"contracts/InquireA.sol\":324:363  uint256 public constant MONTH = 30 days */\n      dup2\n      jump\t// out\n        /* \"contracts/InquireA.sol\":112:147  uint256 public voteFee = 0.01 ether */\n    tag_110:\n      sload(0x01)\n      dup2\n      jump\t// out\n        /* \"contracts/InquireA.sol\":5517:5735  function getQuestionById(uint256 questionId) public view returns (Question memory) {... */\n    tag_115:\n        /* \"contracts/InquireA.sol\":5583:5598  Question memory */\n      tag_326\n      tag_327\n      jump\t// in\n    tag_326:\n        /* \"contracts/InquireA.sol\":5658:5659  0 */\n      0x00\n        /* \"contracts/InquireA.sol\":5619:5660  questions[questionId].asker != address(0) */\n      0xffffffffffffffffffffffffffffffffffffffff\n      and\n        /* \"contracts/InquireA.sol\":5619:5628  questions */\n      0x04\n        /* \"contracts/InquireA.sol\":5619:5640  questions[questionId] */\n      0x00\n        /* \"contracts/InquireA.sol\":5629:5639  questionId */\n      dup5\n        /* \"contracts/InquireA.sol\":5619:5640  questions[questionId] */\n      dup2\n      mstore\n      0x20\n      add\n      swap1\n      dup2\n      mstore\n      0x20\n      add\n      0x00\n      keccak256\n        /* \"contracts/InquireA.sol\":5619:5646  questions[questionId].asker */\n      0x01\n      add\n      0x00\n      swap1\n      sload\n      swap1\n      0x0100\n      exp\n      swap1\n      div\n      0xffffffffffffffffffffffffffffffffffffffff\n      and\n        /* \"contracts/InquireA.sol\":5619:5660  questions[questionId].asker != address(0) */\n      0xffffffffffffffffffffffffffffffffffffffff\n      and\n      sub\n        /* \"contracts/InquireA.sol\":5611:5688  require(questions[questionId].asker != address(0), \"Question does not exist\") */\n      tag_329\n      jumpi\n      mload(0x40)\n      0x08c379a000000000000000000000000000000000000000000000000000000000\n      dup2\n      mstore\n      0x04\n      add\n      tag_330\n      swap1\n      tag_131\n      jump\t// in\n    tag_330:\n      mload(0x40)\n      dup1\n      swap2\n      sub\n      swap1\n      revert\n    tag_329:\n        /* \"contracts/InquireA.sol\":5706:5715  questions */\n      0x04\n        /* \"contracts/InquireA.sol\":5706:5727  questions[questionId] */\n      0x00\n        /* \"contracts/InquireA.sol\":5716:5726  questionId */\n      dup4\n        /* \"contracts/InquireA.sol\":5706:5727  questions[questionId] */\n      dup2\n      mstore\n      0x20\n      add\n      swap1\n      dup2\n      mstore\n      0x20\n      add\n      0x00\n      keccak256\n        /* \"contracts/InquireA.sol\":5699:5727  return questions[questionId] */\n      mload(0x40)\n      dup1\n      0x0140\n      add\n      0x40\n      mstore\n      swap1\n      dup2\n      0x00\n      dup3\n      add\n      sload\n      dup2\n      mstore\n      0x20\n      add\n      0x01\n      dup3\n      add\n      0x00\n      swap1\n      sload\n      swap1\n      0x0100\n      exp\n      swap1\n      div\n      0xffffffffffffffffffffffffffffffffffffffff\n      and\n      0xffffffffffffffffffffffffffffffffffffffff\n      and\n      0xffffffffffffffffffffffffffffffffffffffff\n      and\n      dup2\n      mstore\n      0x20\n      add\n      0x02\n      dup3\n      add\n      dup1\n      sload\n      tag_331\n      swap1\n      tag_150\n      jump\t// in\n    tag_331:\n      dup1\n      0x1f\n      add\n      0x20\n      dup1\n      swap2\n      div\n      mul\n      0x20\n      add\n      mload(0x40)\n      swap1\n      dup2\n      add\n      0x40\n      mstore\n      dup1\n      swap3\n      swap2\n      swap1\n      dup2\n      dup2\n      mstore\n      0x20\n      add\n      dup3\n      dup1\n      sload\n      tag_332\n      swap1\n      tag_150\n      jump\t// in\n    tag_332:\n      dup1\n      iszero\n      tag_333\n      jumpi\n      dup1\n      0x1f\n      lt\n      tag_334\n      jumpi\n      0x0100\n      dup1\n      dup4\n      sload\n      div\n      mul\n      dup4\n      mstore\n      swap2\n      0x20\n      add\n      swap2\n      jump(tag_333)\n    tag_334:\n      dup3\n      add\n      swap2\n      swap1\n      0x00\n      mstore\n      keccak256(0x00, 0x20)\n      swap1\n    tag_335:\n      dup2\n      sload\n      dup2\n      mstore\n      swap1\n      0x01\n      add\n      swap1\n      0x20\n      add\n      dup1\n      dup4\n      gt\n      tag_335\n      jumpi\n      dup3\n      swap1\n      sub\n      0x1f\n      and\n      dup3\n      add\n      swap2\n    tag_333:\n      pop\n      pop\n      pop\n      pop\n      pop\n      dup2\n      mstore\n      0x20\n      add\n      0x03\n      dup3\n      add\n      dup1\n      sload\n      tag_336\n      swap1\n      tag_150\n      jump\t// in\n    tag_336:\n      dup1\n      0x1f\n      add\n      0x20\n      dup1\n      swap2\n      div\n      mul\n      0x20\n      add\n      mload(0x40)\n      swap1\n      dup2\n      add\n      0x40\n      mstore\n      dup1\n      swap3\n      swap2\n      swap1\n      dup2\n      dup2\n      mstore\n      0x20\n      add\n      dup3\n      dup1\n      sload\n      tag_337\n      swap1\n      tag_150\n      jump\t// in\n    tag_337:\n      dup1\n      iszero\n      tag_338\n      jumpi\n      dup1\n      0x1f\n      lt\n      tag_339\n      jumpi\n      0x0100\n      dup1\n      dup4\n      sload\n      div\n      mul\n      dup4\n      mstore\n      swap2\n      0x20\n      add\n      swap2\n      jump(tag_338)\n    tag_339:\n      dup3\n      add\n      swap2\n      swap1\n      0x00\n      mstore\n      keccak256(0x00, 0x20)\n      swap1\n    tag_340:\n      dup2\n      sload\n      dup2\n      mstore\n      swap1\n      0x01\n      add\n      swap1\n      0x20\n      add\n      dup1\n      dup4\n      gt\n      tag_340\n      jumpi\n      dup3\n      swap1\n      sub\n      0x1f\n      and\n      dup3\n      add\n      swap2\n    tag_338:\n      pop\n      pop\n      pop\n      pop\n      pop\n      dup2\n      mstore\n      0x20\n      add\n      0x04\n      dup3\n      add\n      dup1\n      sload\n      tag_341\n      swap1\n      tag_150\n      jump\t// in\n    tag_341:\n      dup1\n      0x1f\n      add\n      0x20\n      dup1\n      swap2\n      div\n      mul\n      0x20\n      add\n      mload(0x40)\n      swap1\n      dup2\n      add\n      0x40\n      mstore\n      dup1\n      swap3\n      swap2\n      swap1\n      dup2\n      dup2\n      mstore\n      0x20\n      add\n      dup3\n      dup1\n      sload\n      tag_342\n      swap1\n      tag_150\n      jump\t// in\n    tag_342:\n      dup1\n      iszero\n      tag_343\n      jumpi\n      dup1\n      0x1f\n      lt\n      tag_344\n      jumpi\n      0x0100\n      dup1\n      dup4\n      sload\n      div\n      mul\n      dup4\n      mstore\n      swap2\n      0x20\n      add\n      swap2\n      jump(tag_343)\n    tag_344:\n      dup3\n      add\n      swap2\n      swap1\n      0x00\n      mstore\n      keccak256(0x00, 0x20)\n      swap1\n    tag_345:\n      dup2\n      sload\n      dup2\n      mstore\n      swap1\n      0x01\n      add\n      swap1\n      0x20\n      add\n      dup1\n      dup4\n      gt\n      tag_345\n      jumpi\n      dup3\n      swap1\n      sub\n      0x1f\n      and\n      dup3\n      add\n      swap2\n    tag_343:\n      pop\n      pop\n      pop\n      pop\n      pop\n      dup2\n      mstore\n      0x20\n      add\n      0x05\n      dup3\n      add\n      sload\n      dup2\n      mstore\n      0x20\n      add\n      0x06\n      dup3\n      add\n      sload\n      dup2\n      mstore\n      0x20\n      add\n      0x07\n      dup3\n      add\n      sload\n      dup2\n      mstore\n      0x20\n      add\n      0x08\n      dup3\n      add\n      0x00\n      swap1\n      sload\n      swap1\n      0x0100\n      exp\n      swap1\n      div\n      0xff\n      and\n      iszero\n      iszero\n      iszero\n      iszero\n      dup2\n      mstore\n      0x20\n      add\n      0x09\n      dup3\n      add\n      sload\n      dup2\n      mstore\n      pop\n      pop\n      swap1\n      pop\n        /* \"contracts/InquireA.sol\":5517:5735  function getQuestionById(uint256 questionId) public view returns (Question memory) {... */\n      swap2\n      swap1\n      pop\n      jump\t// out\n        /* \"contracts/InquireA.sol\":230:267  uint256 public constant WEEK = 7 days */\n    tag_120:\n        /* \"contracts/InquireA.sol\":261:267  7 days */\n      0x093a80\n        /* \"contracts/InquireA.sol\":230:267  uint256 public constant WEEK = 7 days */\n      dup2\n      jump\t// out\n        /* \"contracts/InquireA.sol\":4277:5505  function getQuestions(uint256 pageIndex, uint256 pageSize) ... */\n    tag_125:\n        /* \"contracts/InquireA.sol\":4385:4416  Question[] memory questionsList */\n      0x60\n        /* \"contracts/InquireA.sol\":4428:4450  uint256 totalQuestions */\n      0x00\n        /* \"contracts/InquireA.sol\":4462:4480  uint256 totalPages */\n      dup1\n        /* \"contracts/InquireA.sol\":4517:4518  0 */\n      0x00\n        /* \"contracts/InquireA.sol\":4505:4514  pageIndex */\n      dup6\n        /* \"contracts/InquireA.sol\":4505:4518  pageIndex > 0 */\n      gt\n        /* \"contracts/InquireA.sol\":4497:4551  require(pageIndex > 0, \"Page index must start from 1\") */\n      tag_347\n      jumpi\n      mload(0x40)\n      0x08c379a000000000000000000000000000000000000000000000000000000000\n      dup2\n      mstore\n      0x04\n      add\n      tag_348\n      swap1\n      tag_349\n      jump\t// in\n    tag_348:\n      mload(0x40)\n      dup1\n      swap2\n      sub\n      swap1\n      revert\n    tag_347:\n        /* \"contracts/InquireA.sol\":4577:4578  0 */\n      0x00\n        /* \"contracts/InquireA.sol\":4566:4574  pageSize */\n      dup5\n        /* \"contracts/InquireA.sol\":4566:4578  pageSize > 0 */\n      gt\n        /* \"contracts/InquireA.sol\":4558:4615  require(pageSize > 0, \"Page size must be greater than 0\") */\n      tag_350\n      jumpi\n      mload(0x40)\n      0x08c379a000000000000000000000000000000000000000000000000000000000\n      dup2\n      mstore\n      0x04\n      add\n      tag_351\n      swap1\n      tag_352\n      jump\t// in\n    tag_351:\n      mload(0x40)\n      dup1\n      swap2\n      sub\n      swap1\n      revert\n    tag_350:\n        /* \"contracts/InquireA.sol\":4661:4662  1 */\n      0x01\n        /* \"contracts/InquireA.sol\":4641:4658  questionIdCounter */\n      sload(0x02)\n        /* \"contracts/InquireA.sol\":4641:4662  questionIdCounter - 1 */\n      tag_353\n      swap2\n      swap1\n      tag_354\n      jump\t// in\n    tag_353:\n        /* \"contracts/InquireA.sol\":4624:4662  totalQuestions = questionIdCounter - 1 */\n      swap2\n      pop\n        /* \"contracts/InquireA.sol\":4744:4745  0 */\n      0x00\n        /* \"contracts/InquireA.sol\":4726:4740  totalQuestions */\n      dup3\n        /* \"contracts/InquireA.sol\":4726:4745  totalQuestions == 0 */\n      sub\n        /* \"contracts/InquireA.sol\":4722:4798  if (totalQuestions == 0) {... */\n      tag_355\n      jumpi\n        /* \"contracts/InquireA.sol\":4781:4782  0 */\n      0x00\n        /* \"contracts/InquireA.sol\":4766:4783  new Question[](0) */\n      0xffffffffffffffff\n      dup2\n      gt\n      iszero\n      tag_356\n      jumpi\n      tag_357\n      tag_246\n      jump\t// in\n    tag_357:\n    tag_356:\n      mload(0x40)\n      swap1\n      dup1\n      dup3\n      mstore\n      dup1\n      0x20\n      mul\n      0x20\n      add\n      dup3\n      add\n      0x40\n      mstore\n      dup1\n      iszero\n      tag_358\n      jumpi\n      dup2\n      0x20\n      add\n    tag_359:\n      tag_360\n      tag_327\n      jump\t// in\n    tag_360:\n      dup2\n      mstore\n      0x20\n      add\n      swap1\n      0x01\n      swap1\n      sub\n      swap1\n      dup2\n      tag_359\n      jumpi\n      swap1\n      pop\n    tag_358:\n      pop\n        /* \"contracts/InquireA.sol\":4785:4786  0 */\n      0x00\n        /* \"contracts/InquireA.sol\":4788:4789  0 */\n      dup1\n        /* \"contracts/InquireA.sol\":4758:4790  return (new Question[](0), 0, 0) */\n      swap3\n      pop\n      swap3\n      pop\n      swap3\n      pop\n      jump(tag_346)\n        /* \"contracts/InquireA.sol\":4722:4798  if (totalQuestions == 0) {... */\n    tag_355:\n        /* \"contracts/InquireA.sol\":4853:4861  pageSize */\n      dup4\n        /* \"contracts/InquireA.sol\":4848:4849  1 */\n      0x01\n        /* \"contracts/InquireA.sol\":4837:4845  pageSize */\n      dup6\n        /* \"contracts/InquireA.sol\":4820:4834  totalQuestions */\n      dup5\n        /* \"contracts/InquireA.sol\":4820:4845  totalQuestions + pageSize */\n      tag_361\n      swap2\n      swap1\n      tag_208\n      jump\t// in\n    tag_361:\n        /* \"contracts/InquireA.sol\":4820:4849  totalQuestions + pageSize - 1 */\n      tag_362\n      swap2\n      swap1\n      tag_354\n      jump\t// in\n    tag_362:\n        /* \"contracts/InquireA.sol\":4819:4861  (totalQuestions + pageSize - 1) / pageSize */\n      tag_363\n      swap2\n      swap1\n      tag_322\n      jump\t// in\n    tag_363:\n        /* \"contracts/InquireA.sol\":4806:4861  totalPages = (totalQuestions + pageSize - 1) / pageSize */\n      swap1\n      pop\n        /* \"contracts/InquireA.sol\":4944:4954  totalPages */\n      dup1\n        /* \"contracts/InquireA.sol\":4931:4940  pageIndex */\n      dup6\n        /* \"contracts/InquireA.sol\":4931:4954  pageIndex <= totalPages */\n      gt\n      iszero\n        /* \"contracts/InquireA.sol\":4923:4977  require(pageIndex <= totalPages, \"Invalid page index\") */\n      tag_364\n      jumpi\n      mload(0x40)\n      0x08c379a000000000000000000000000000000000000000000000000000000000\n      dup2\n      mstore\n      0x04\n      add\n      tag_365\n      swap1\n      tag_366\n      jump\t// in\n    tag_365:\n      mload(0x40)\n      dup1\n      swap2\n      sub\n      swap1\n      revert\n    tag_364:\n        /* \"contracts/InquireA.sol\":4986:5004  uint256 startIndex */\n      0x00\n        /* \"contracts/InquireA.sol\":5036:5037  1 */\n      0x01\n        /* \"contracts/InquireA.sol\":5025:5033  pageSize */\n      dup6\n        /* \"contracts/InquireA.sol\":5020:5021  1 */\n      0x01\n        /* \"contracts/InquireA.sol\":5008:5017  pageIndex */\n      dup9\n        /* \"contracts/InquireA.sol\":5008:5021  pageIndex - 1 */\n      tag_367\n      swap2\n      swap1\n      tag_354\n      jump\t// in\n    tag_367:\n        /* \"contracts/InquireA.sol\":5007:5033  (pageIndex - 1) * pageSize */\n      tag_368\n      swap2\n      swap1\n      tag_320\n      jump\t// in\n    tag_368:\n        /* \"contracts/InquireA.sol\":5007:5037  (pageIndex - 1) * pageSize + 1 */\n      tag_369\n      swap2\n      swap1\n      tag_208\n      jump\t// in\n    tag_369:\n        /* \"contracts/InquireA.sol\":4986:5037  uint256 startIndex = (pageIndex - 1) * pageSize + 1 */\n      swap1\n      pop\n        /* \"contracts/InquireA.sol\":5044:5060  uint256 endIndex */\n      0x00\n        /* \"contracts/InquireA.sol\":5087:5088  1 */\n      0x01\n        /* \"contracts/InquireA.sol\":5076:5084  pageSize */\n      dup7\n        /* \"contracts/InquireA.sol\":5063:5073  startIndex */\n      dup4\n        /* \"contracts/InquireA.sol\":5063:5084  startIndex + pageSize */\n      tag_370\n      swap2\n      swap1\n      tag_208\n      jump\t// in\n    tag_370:\n        /* \"contracts/InquireA.sol\":5063:5088  startIndex + pageSize - 1 */\n      tag_371\n      swap2\n      swap1\n      tag_354\n      jump\t// in\n    tag_371:\n        /* \"contracts/InquireA.sol\":5044:5088  uint256 endIndex = startIndex + pageSize - 1 */\n      swap1\n      pop\n        /* \"contracts/InquireA.sol\":5132:5133  1 */\n      0x01\n        /* \"contracts/InquireA.sol\":5112:5129  questionIdCounter */\n      sload(0x02)\n        /* \"contracts/InquireA.sol\":5112:5133  questionIdCounter - 1 */\n      tag_372\n      swap2\n      swap1\n      tag_354\n      jump\t// in\n    tag_372:\n        /* \"contracts/InquireA.sol\":5101:5109  endIndex */\n      dup2\n        /* \"contracts/InquireA.sol\":5101:5133  endIndex > questionIdCounter - 1 */\n      gt\n        /* \"contracts/InquireA.sol\":5097:5186  if (endIndex > questionIdCounter - 1) {... */\n      iszero\n      tag_373\n      jumpi\n        /* \"contracts/InquireA.sol\":5177:5178  1 */\n      0x01\n        /* \"contracts/InquireA.sol\":5157:5174  questionIdCounter */\n      sload(0x02)\n        /* \"contracts/InquireA.sol\":5157:5178  questionIdCounter - 1 */\n      tag_374\n      swap2\n      swap1\n      tag_354\n      jump\t// in\n    tag_374:\n        /* \"contracts/InquireA.sol\":5146:5178  endIndex = questionIdCounter - 1 */\n      swap1\n      pop\n        /* \"contracts/InquireA.sol\":5097:5186  if (endIndex > questionIdCounter - 1) {... */\n    tag_373:\n        /* \"contracts/InquireA.sol\":5194:5212  uint256 resultSize */\n      0x00\n        /* \"contracts/InquireA.sol\":5239:5240  1 */\n      0x01\n        /* \"contracts/InquireA.sol\":5226:5236  startIndex */\n      dup4\n        /* \"contracts/InquireA.sol\":5215:5223  endIndex */\n      dup4\n        /* \"contracts/InquireA.sol\":5215:5236  endIndex - startIndex */\n      tag_375\n      swap2\n      swap1\n      tag_354\n      jump\t// in\n    tag_375:\n        /* \"contracts/InquireA.sol\":5215:5240  endIndex - startIndex + 1 */\n      tag_376\n      swap2\n      swap1\n      tag_208\n      jump\t// in\n    tag_376:\n        /* \"contracts/InquireA.sol\":5194:5240  uint256 resultSize = endIndex - startIndex + 1 */\n      swap1\n      pop\n        /* \"contracts/InquireA.sol\":5278:5288  resultSize */\n      dup1\n        /* \"contracts/InquireA.sol\":5263:5289  new Question[](resultSize) */\n      0xffffffffffffffff\n      dup2\n      gt\n      iszero\n      tag_377\n      jumpi\n      tag_378\n      tag_246\n      jump\t// in\n    tag_378:\n    tag_377:\n      mload(0x40)\n      swap1\n      dup1\n      dup3\n      mstore\n      dup1\n      0x20\n      mul\n      0x20\n      add\n      dup3\n      add\n      0x40\n      mstore\n      dup1\n      iszero\n      tag_379\n      jumpi\n      dup2\n      0x20\n      add\n    tag_380:\n      tag_381\n      tag_327\n      jump\t// in\n    tag_381:\n      dup2\n      mstore\n      0x20\n      add\n      swap1\n      0x01\n      swap1\n      sub\n      swap1\n      dup2\n      tag_380\n      jumpi\n      swap1\n      pop\n    tag_379:\n      pop\n        /* \"contracts/InquireA.sol\":5247:5289  questionsList = new Question[](resultSize) */\n      swap6\n      pop\n        /* \"contracts/InquireA.sol\":5298:5311  uint256 index */\n      0x00\n        /* \"contracts/InquireA.sol\":5327:5336  uint256 i */\n      dup1\n        /* \"contracts/InquireA.sol\":5339:5349  startIndex */\n      dup5\n        /* \"contracts/InquireA.sol\":5327:5349  uint256 i = startIndex */\n      swap1\n      pop\n        /* \"contracts/InquireA.sol\":5322:5443  for (uint256 i = startIndex; i <= endIndex; i++) {... */\n    tag_382:\n        /* \"contracts/InquireA.sol\":5356:5364  endIndex */\n      dup4\n        /* \"contracts/InquireA.sol\":5351:5352  i */\n      dup2\n        /* \"contracts/InquireA.sol\":5351:5364  i <= endIndex */\n      gt\n        /* \"contracts/InquireA.sol\":5322:5443  for (uint256 i = startIndex; i <= endIndex; i++) {... */\n      tag_383\n      jumpi\n        /* \"contracts/InquireA.sol\":5405:5414  questions */\n      0x04\n        /* \"contracts/InquireA.sol\":5405:5417  questions[i] */\n      0x00\n        /* \"contracts/InquireA.sol\":5415:5416  i */\n      dup3\n        /* \"contracts/InquireA.sol\":5405:5417  questions[i] */\n      dup2\n      mstore\n      0x20\n      add\n      swap1\n      dup2\n      mstore\n      0x20\n      add\n      0x00\n      keccak256\n        /* \"contracts/InquireA.sol\":5382:5417  questionsList[index] = questions[i] */\n      mload(0x40)\n      dup1\n      0x0140\n      add\n      0x40\n      mstore\n      swap1\n      dup2\n      0x00\n      dup3\n      add\n      sload\n      dup2\n      mstore\n      0x20\n      add\n      0x01\n      dup3\n      add\n      0x00\n      swap1\n      sload\n      swap1\n      0x0100\n      exp\n      swap1\n      div\n      0xffffffffffffffffffffffffffffffffffffffff\n      and\n      0xffffffffffffffffffffffffffffffffffffffff\n      and\n      0xffffffffffffffffffffffffffffffffffffffff\n      and\n      dup2\n      mstore\n      0x20\n      add\n      0x02\n      dup3\n      add\n      dup1\n      sload\n      tag_385\n      swap1\n      tag_150\n      jump\t// in\n    tag_385:\n      dup1\n      0x1f\n      add\n      0x20\n      dup1\n      swap2\n      div\n      mul\n      0x20\n      add\n      mload(0x40)\n      swap1\n      dup2\n      add\n      0x40\n      mstore\n      dup1\n      swap3\n      swap2\n      swap1\n      dup2\n      dup2\n      mstore\n      0x20\n      add\n      dup3\n      dup1\n      sload\n      tag_386\n      swap1\n      tag_150\n      jump\t// in\n    tag_386:\n      dup1\n      iszero\n      tag_387\n      jumpi\n      dup1\n      0x1f\n      lt\n      tag_388\n      jumpi\n      0x0100\n      dup1\n      dup4\n      sload\n      div\n      mul\n      dup4\n      mstore\n      swap2\n      0x20\n      add\n      swap2\n      jump(tag_387)\n    tag_388:\n      dup3\n      add\n      swap2\n      swap1\n      0x00\n      mstore\n      keccak256(0x00, 0x20)\n      swap1\n    tag_389:\n      dup2\n      sload\n      dup2\n      mstore\n      swap1\n      0x01\n      add\n      swap1\n      0x20\n      add\n      dup1\n      dup4\n      gt\n      tag_389\n      jumpi\n      dup3\n      swap1\n      sub\n      0x1f\n      and\n      dup3\n      add\n      swap2\n    tag_387:\n      pop\n      pop\n      pop\n      pop\n      pop\n      dup2\n      mstore\n      0x20\n      add\n      0x03\n      dup3\n      add\n      dup1\n      sload\n      tag_390\n      swap1\n      tag_150\n      jump\t// in\n    tag_390:\n      dup1\n      0x1f\n      add\n      0x20\n      dup1\n      swap2\n      div\n      mul\n      0x20\n      add\n      mload(0x40)\n      swap1\n      dup2\n      add\n      0x40\n      mstore\n      dup1\n      swap3\n      swap2\n      swap1\n      dup2\n      dup2\n      mstore\n      0x20\n      add\n      dup3\n      dup1\n      sload\n      tag_391\n      swap1\n      tag_150\n      jump\t// in\n    tag_391:\n      dup1\n      iszero\n      tag_392\n      jumpi\n      dup1\n      0x1f\n      lt\n      tag_393\n      jumpi\n      0x0100\n      dup1\n      dup4\n      sload\n      div\n      mul\n      dup4\n      mstore\n      swap2\n      0x20\n      add\n      swap2\n      jump(tag_392)\n    tag_393:\n      dup3\n      add\n      swap2\n      swap1\n      0x00\n      mstore\n      keccak256(0x00, 0x20)\n      swap1\n    tag_394:\n      dup2\n      sload\n      dup2\n      mstore\n      swap1\n      0x01\n      add\n      swap1\n      0x20\n      add\n      dup1\n      dup4\n      gt\n      tag_394\n      jumpi\n      dup3\n      swap1\n      sub\n      0x1f\n      and\n      dup3\n      add\n      swap2\n    tag_392:\n      pop\n      pop\n      pop\n      pop\n      pop\n      dup2\n      mstore\n      0x20\n      add\n      0x04\n      dup3\n      add\n      dup1\n      sload\n      tag_395\n      swap1\n      tag_150\n      jump\t// in\n    tag_395:\n      dup1\n      0x1f\n      add\n      0x20\n      dup1\n      swap2\n      div\n      mul\n      0x20\n      add\n      mload(0x40)\n      swap1\n      dup2\n      add\n      0x40\n      mstore\n      dup1\n      swap3\n      swap2\n      swap1\n      dup2\n      dup2\n      mstore\n      0x20\n      add\n      dup3\n      dup1\n      sload\n      tag_396\n      swap1\n      tag_150\n      jump\t// in\n    tag_396:\n      dup1\n      iszero\n      tag_397\n      jumpi\n      dup1\n      0x1f\n      lt\n      tag_398\n      jumpi\n      0x0100\n      dup1\n      dup4\n      sload\n      div\n      mul\n      dup4\n      mstore\n      swap2\n      0x20\n      add\n      swap2\n      jump(tag_397)\n    tag_398:\n      dup3\n      add\n      swap2\n      swap1\n      0x00\n      mstore\n      keccak256(0x00, 0x20)\n      swap1\n    tag_399:\n      dup2\n      sload\n      dup2\n      mstore\n      swap1\n      0x01\n      add\n      swap1\n      0x20\n      add\n      dup1\n      dup4\n      gt\n      tag_399\n      jumpi\n      dup3\n      swap1\n      sub\n      0x1f\n      and\n      dup3\n      add\n      swap2\n    tag_397:\n      pop\n      pop\n      pop\n      pop\n      pop\n      dup2\n      mstore\n      0x20\n      add\n      0x05\n      dup3\n      add\n      sload\n      dup2\n      mstore\n      0x20\n      add\n      0x06\n      dup3\n      add\n      sload\n      dup2\n      mstore\n      0x20\n      add\n      0x07\n      dup3\n      add\n      sload\n      dup2\n      mstore\n      0x20\n      add\n      0x08\n      dup3\n      add\n      0x00\n      swap1\n      sload\n      swap1\n      0x0100\n      exp\n      swap1\n      div\n      0xff\n      and\n      iszero\n      iszero\n      iszero\n      iszero\n      dup2\n      mstore\n      0x20\n      add\n      0x09\n      dup3\n      add\n      sload\n      dup2\n      mstore\n      pop\n      pop\n        /* \"contracts/InquireA.sol\":5382:5395  questionsList */\n      dup9\n        /* \"contracts/InquireA.sol\":5396:5401  index */\n      dup4\n        /* \"contracts/InquireA.sol\":5382:5402  questionsList[index] */\n      dup2\n      mload\n      dup2\n      lt\n      tag_400\n      jumpi\n      tag_401\n      tag_256\n      jump\t// in\n    tag_401:\n    tag_400:\n      0x20\n      mul\n      0x20\n      add\n      add\n        /* \"contracts/InquireA.sol\":5382:5417  questionsList[index] = questions[i] */\n      dup2\n      swap1\n      mstore\n      pop\n        /* \"contracts/InquireA.sol\":5428:5435  index++ */\n      dup2\n      dup1\n      tag_402\n      swap1\n      tag_169\n      jump\t// in\n    tag_402:\n      swap3\n      pop\n      pop\n        /* \"contracts/InquireA.sol\":5366:5369  i++ */\n      dup1\n      dup1\n      tag_403\n      swap1\n      tag_169\n      jump\t// in\n    tag_403:\n      swap2\n      pop\n      pop\n        /* \"contracts/InquireA.sol\":5322:5443  for (uint256 i = startIndex; i <= endIndex; i++) {... */\n      jump(tag_382)\n    tag_383:\n      pop\n        /* \"contracts/InquireA.sol\":5451:5501  return (questionsList, totalQuestions, totalPages) */\n      pop\n      pop\n      pop\n      pop\n        /* \"contracts/InquireA.sol\":4277:5505  function getQuestions(uint256 pageIndex, uint256 pageSize) ... */\n    tag_346:\n      swap3\n      pop\n      swap3\n      pop\n      swap3\n      jump\t// out\n    tag_233:\n      mload(0x40)\n      dup1\n      0xa0\n      add\n      0x40\n      mstore\n      dup1\n      and(0xffffffffffffffffffffffffffffffffffffffff, 0x00)\n      dup2\n      mstore\n      0x20\n      add\n      0x60\n      dup2\n      mstore\n      0x20\n      add\n      0x00\n      dup2\n      mstore\n      0x20\n      add\n      0x00\n      dup2\n      mstore\n      0x20\n      add\n      0x00\n      dup2\n      mstore\n      pop\n      swap1\n      jump\t// out\n    tag_327:\n      mload(0x40)\n      dup1\n      0x0140\n      add\n      0x40\n      mstore\n      dup1\n      0x00\n      dup2\n      mstore\n      0x20\n      add\n      and(0xffffffffffffffffffffffffffffffffffffffff, 0x00)\n      dup2\n      mstore\n      0x20\n      add\n      0x60\n      dup2\n      mstore\n      0x20\n      add\n      0x60\n      dup2\n      mstore\n      0x20\n      add\n      0x60\n      dup2\n      mstore\n      0x20\n      add\n      0x00\n      dup2\n      mstore\n      0x20\n      add\n      0x00\n      dup2\n      mstore\n      0x20\n      add\n      0x00\n      dup2\n      mstore\n      0x20\n      add\n      iszero(iszero(0x00))\n      dup2\n      mstore\n      0x20\n      add\n      0x00\n      dup2\n      mstore\n      pop\n      swap1\n      jump\t// out\n        /* \"#utility.yul\":7:82   */\n    tag_404:\n        /* \"#utility.yul\":40:46   */\n      0x00\n        /* \"#utility.yul\":73:75   */\n      0x40\n        /* \"#utility.yul\":67:76   */\n      mload\n        /* \"#utility.yul\":57:76   */\n      swap1\n      pop\n        /* \"#utility.yul\":7:82   */\n      swap1\n      jump\t// out\n        /* \"#utility.yul\":88:205   */\n    tag_405:\n        /* \"#utility.yul\":197:198   */\n      0x00\n        /* \"#utility.yul\":194:195   */\n      dup1\n        /* \"#utility.yul\":187:199   */\n      revert\n        /* \"#utility.yul\":211:328   */\n    tag_406:\n        /* \"#utility.yul\":320:321   */\n      0x00\n        /* \"#utility.yul\":317:318   */\n      dup1\n        /* \"#utility.yul\":310:322   */\n      revert\n        /* \"#utility.yul\":334:411   */\n    tag_407:\n        /* \"#utility.yul\":371:378   */\n      0x00\n        /* \"#utility.yul\":400:405   */\n      dup2\n        /* \"#utility.yul\":389:405   */\n      swap1\n      pop\n        /* \"#utility.yul\":334:411   */\n      swap2\n      swap1\n      pop\n      jump\t// out\n        /* \"#utility.yul\":417:539   */\n    tag_408:\n        /* \"#utility.yul\":490:514   */\n      tag_508\n        /* \"#utility.yul\":508:513   */\n      dup2\n        /* \"#utility.yul\":490:514   */\n      tag_407\n      jump\t// in\n    tag_508:\n        /* \"#utility.yul\":483:488   */\n      dup2\n        /* \"#utility.yul\":480:515   */\n      eq\n        /* \"#utility.yul\":470:533   */\n      tag_509\n      jumpi\n        /* \"#utility.yul\":529:530   */\n      0x00\n        /* \"#utility.yul\":526:527   */\n      dup1\n        /* \"#utility.yul\":519:531   */\n      revert\n        /* \"#utility.yul\":470:533   */\n    tag_509:\n        /* \"#utility.yul\":417:539   */\n      pop\n      jump\t// out\n        /* \"#utility.yul\":545:684   */\n    tag_409:\n        /* \"#utility.yul\":591:596   */\n      0x00\n        /* \"#utility.yul\":629:635   */\n      dup2\n        /* \"#utility.yul\":616:636   */\n      calldataload\n        /* \"#utility.yul\":607:636   */\n      swap1\n      pop\n        /* \"#utility.yul\":645:678   */\n      tag_511\n        /* \"#utility.yul\":672:677   */\n      dup2\n        /* \"#utility.yul\":645:678   */\n      tag_408\n      jump\t// in\n    tag_511:\n        /* \"#utility.yul\":545:684   */\n      swap3\n      swap2\n      pop\n      pop\n      jump\t// out\n        /* \"#utility.yul\":690:1164   */\n    tag_29:\n        /* \"#utility.yul\":758:764   */\n      0x00\n        /* \"#utility.yul\":766:772   */\n      dup1\n        /* \"#utility.yul\":815:817   */\n      0x40\n        /* \"#utility.yul\":803:812   */\n      dup4\n        /* \"#utility.yul\":794:801   */\n      dup6\n        /* \"#utility.yul\":790:813   */\n      sub\n        /* \"#utility.yul\":786:818   */\n      slt\n        /* \"#utility.yul\":783:902   */\n      iszero\n      tag_513\n      jumpi\n        /* \"#utility.yul\":821:900   */\n      tag_514\n      tag_405\n      jump\t// in\n    tag_514:\n        /* \"#utility.yul\":783:902   */\n    tag_513:\n        /* \"#utility.yul\":941:942   */\n      0x00\n        /* \"#utility.yul\":966:1019   */\n      tag_515\n        /* \"#utility.yul\":1011:1018   */\n      dup6\n        /* \"#utility.yul\":1002:1008   */\n      dup3\n        /* \"#utility.yul\":991:1000   */\n      dup7\n        /* \"#utility.yul\":987:1009   */\n      add\n        /* \"#utility.yul\":966:1019   */\n      tag_409\n      jump\t// in\n    tag_515:\n        /* \"#utility.yul\":956:1019   */\n      swap3\n      pop\n        /* \"#utility.yul\":912:1029   */\n      pop\n        /* \"#utility.yul\":1068:1070   */\n      0x20\n        /* \"#utility.yul\":1094:1147   */\n      tag_516\n        /* \"#utility.yul\":1139:1146   */\n      dup6\n        /* \"#utility.yul\":1130:1136   */\n      dup3\n        /* \"#utility.yul\":1119:1128   */\n      dup7\n        /* \"#utility.yul\":1115:1137   */\n      add\n        /* \"#utility.yul\":1094:1147   */\n      tag_409\n      jump\t// in\n    tag_516:\n        /* \"#utility.yul\":1084:1147   */\n      swap2\n      pop\n        /* \"#utility.yul\":1039:1157   */\n      pop\n        /* \"#utility.yul\":690:1164   */\n      swap3\n      pop\n      swap3\n      swap1\n      pop\n      jump\t// out\n        /* \"#utility.yul\":1170:1287   */\n    tag_410:\n        /* \"#utility.yul\":1279:1280   */\n      0x00\n        /* \"#utility.yul\":1276:1277   */\n      dup1\n        /* \"#utility.yul\":1269:1281   */\n      revert\n        /* \"#utility.yul\":1293:1410   */\n    tag_411:\n        /* \"#utility.yul\":1402:1403   */\n      0x00\n        /* \"#utility.yul\":1399:1400   */\n      dup1\n        /* \"#utility.yul\":1392:1404   */\n      revert\n        /* \"#utility.yul\":1416:1518   */\n    tag_412:\n        /* \"#utility.yul\":1457:1463   */\n      0x00\n        /* \"#utility.yul\":1508:1510   */\n      0x1f\n        /* \"#utility.yul\":1504:1511   */\n      not\n        /* \"#utility.yul\":1499:1501   */\n      0x1f\n        /* \"#utility.yul\":1492:1497   */\n      dup4\n        /* \"#utility.yul\":1488:1502   */\n      add\n        /* \"#utility.yul\":1484:1512   */\n      and\n        /* \"#utility.yul\":1474:1512   */\n      swap1\n      pop\n        /* \"#utility.yul\":1416:1518   */\n      swap2\n      swap1\n      pop\n      jump\t// out\n        /* \"#utility.yul\":1524:1704   */\n    tag_246:\n        /* \"#utility.yul\":1572:1649   */\n      0x4e487b7100000000000000000000000000000000000000000000000000000000\n        /* \"#utility.yul\":1569:1570   */\n      0x00\n        /* \"#utility.yul\":1562:1650   */\n      mstore\n        /* \"#utility.yul\":1669:1673   */\n      0x41\n        /* \"#utility.yul\":1666:1667   */\n      0x04\n        /* \"#utility.yul\":1659:1674   */\n      mstore\n        /* \"#utility.yul\":1693:1697   */\n      0x24\n        /* \"#utility.yul\":1690:1691   */\n      0x00\n        /* \"#utility.yul\":1683:1698   */\n      revert\n        /* \"#utility.yul\":1710:1991   */\n    tag_413:\n        /* \"#utility.yul\":1793:1820   */\n      tag_522\n        /* \"#utility.yul\":1815:1819   */\n      dup3\n        /* \"#utility.yul\":1793:1820   */\n      tag_412\n      jump\t// in\n    tag_522:\n        /* \"#utility.yul\":1785:1791   */\n      dup2\n        /* \"#utility.yul\":1781:1821   */\n      add\n        /* \"#utility.yul\":1923:1929   */\n      dup2\n        /* \"#utility.yul\":1911:1921   */\n      dup2\n        /* \"#utility.yul\":1908:1930   */\n      lt\n        /* \"#utility.yul\":1887:1905   */\n      0xffffffffffffffff\n        /* \"#utility.yul\":1875:1885   */\n      dup3\n        /* \"#utility.yul\":1872:1906   */\n      gt\n        /* \"#utility.yul\":1869:1931   */\n      or\n        /* \"#utility.yul\":1866:1954   */\n      iszero\n      tag_523\n      jumpi\n        /* \"#utility.yul\":1934:1952   */\n      tag_524\n      tag_246\n      jump\t// in\n    tag_524:\n        /* \"#utility.yul\":1866:1954   */\n    tag_523:\n        /* \"#utility.yul\":1974:1984   */\n      dup1\n        /* \"#utility.yul\":1970:1972   */\n      0x40\n        /* \"#utility.yul\":1963:1985   */\n      mstore\n        /* \"#utility.yul\":1753:1991   */\n      pop\n        /* \"#utility.yul\":1710:1991   */\n      pop\n      pop\n      jump\t// out\n        /* \"#utility.yul\":1997:2126   */\n    tag_414:\n        /* \"#utility.yul\":2031:2037   */\n      0x00\n        /* \"#utility.yul\":2058:2078   */\n      tag_526\n      tag_404\n      jump\t// in\n    tag_526:\n        /* \"#utility.yul\":2048:2078   */\n      swap1\n      pop\n        /* \"#utility.yul\":2087:2120   */\n      tag_527\n        /* \"#utility.yul\":2115:2119   */\n      dup3\n        /* \"#utility.yul\":2107:2113   */\n      dup3\n        /* \"#utility.yul\":2087:2120   */\n      tag_413\n      jump\t// in\n    tag_527:\n        /* \"#utility.yul\":1997:2126   */\n      swap2\n      swap1\n      pop\n      jump\t// out\n        /* \"#utility.yul\":2132:2440   */\n    tag_415:\n        /* \"#utility.yul\":2194:2198   */\n      0x00\n        /* \"#utility.yul\":2284:2302   */\n      0xffffffffffffffff\n        /* \"#utility.yul\":2276:2282   */\n      dup3\n        /* \"#utility.yul\":2273:2303   */\n      gt\n        /* \"#utility.yul\":2270:2326   */\n      iszero\n      tag_529\n      jumpi\n        /* \"#utility.yul\":2306:2324   */\n      tag_530\n      tag_246\n      jump\t// in\n    tag_530:\n        /* \"#utility.yul\":2270:2326   */\n    tag_529:\n        /* \"#utility.yul\":2344:2373   */\n      tag_531\n        /* \"#utility.yul\":2366:2372   */\n      dup3\n        /* \"#utility.yul\":2344:2373   */\n      tag_412\n      jump\t// in\n    tag_531:\n        /* \"#utility.yul\":2336:2373   */\n      swap1\n      pop\n        /* \"#utility.yul\":2428:2432   */\n      0x20\n        /* \"#utility.yul\":2422:2426   */\n      dup2\n        /* \"#utility.yul\":2418:2433   */\n      add\n        /* \"#utility.yul\":2410:2433   */\n      swap1\n      pop\n        /* \"#utility.yul\":2132:2440   */\n      swap2\n      swap1\n      pop\n      jump\t// out\n        /* \"#utility.yul\":2446:2594   */\n    tag_416:\n        /* \"#utility.yul\":2544:2550   */\n      dup3\n        /* \"#utility.yul\":2539:2542   */\n      dup2\n        /* \"#utility.yul\":2534:2537   */\n      dup4\n        /* \"#utility.yul\":2521:2551   */\n      calldatacopy\n        /* \"#utility.yul\":2585:2586   */\n      0x00\n        /* \"#utility.yul\":2576:2582   */\n      dup4\n        /* \"#utility.yul\":2571:2574   */\n      dup4\n        /* \"#utility.yul\":2567:2583   */\n      add\n        /* \"#utility.yul\":2560:2587   */\n      mstore\n        /* \"#utility.yul\":2446:2594   */\n      pop\n      pop\n      pop\n      jump\t// out\n        /* \"#utility.yul\":2600:3025   */\n    tag_417:\n        /* \"#utility.yul\":2678:2683   */\n      0x00\n        /* \"#utility.yul\":2703:2769   */\n      tag_534\n        /* \"#utility.yul\":2719:2768   */\n      tag_535\n        /* \"#utility.yul\":2761:2767   */\n      dup5\n        /* \"#utility.yul\":2719:2768   */\n      tag_415\n      jump\t// in\n    tag_535:\n        /* \"#utility.yul\":2703:2769   */\n      tag_414\n      jump\t// in\n    tag_534:\n        /* \"#utility.yul\":2694:2769   */\n      swap1\n      pop\n        /* \"#utility.yul\":2792:2798   */\n      dup3\n        /* \"#utility.yul\":2785:2790   */\n      dup2\n        /* \"#utility.yul\":2778:2799   */\n      mstore\n        /* \"#utility.yul\":2830:2834   */\n      0x20\n        /* \"#utility.yul\":2823:2828   */\n      dup2\n        /* \"#utility.yul\":2819:2835   */\n      add\n        /* \"#utility.yul\":2868:2871   */\n      dup5\n        /* \"#utility.yul\":2859:2865   */\n      dup5\n        /* \"#utility.yul\":2854:2857   */\n      dup5\n        /* \"#utility.yul\":2850:2866   */\n      add\n        /* \"#utility.yul\":2847:2872   */\n      gt\n        /* \"#utility.yul\":2844:2956   */\n      iszero\n      tag_536\n      jumpi\n        /* \"#utility.yul\":2875:2954   */\n      tag_537\n      tag_411\n      jump\t// in\n    tag_537:\n        /* \"#utility.yul\":2844:2956   */\n    tag_536:\n        /* \"#utility.yul\":2965:3019   */\n      tag_538\n        /* \"#utility.yul\":3012:3018   */\n      dup5\n        /* \"#utility.yul\":3007:3010   */\n      dup3\n        /* \"#utility.yul\":3002:3005   */\n      dup6\n        /* \"#utility.yul\":2965:3019   */\n      tag_416\n      jump\t// in\n    tag_538:\n        /* \"#utility.yul\":2684:3025   */\n      pop\n        /* \"#utility.yul\":2600:3025   */\n      swap4\n      swap3\n      pop\n      pop\n      pop\n      jump\t// out\n        /* \"#utility.yul\":3045:3385   */\n    tag_418:\n        /* \"#utility.yul\":3101:3106   */\n      0x00\n        /* \"#utility.yul\":3150:3153   */\n      dup3\n        /* \"#utility.yul\":3143:3147   */\n      0x1f\n        /* \"#utility.yul\":3135:3141   */\n      dup4\n        /* \"#utility.yul\":3131:3148   */\n      add\n        /* \"#utility.yul\":3127:3154   */\n      slt\n        /* \"#utility.yul\":3117:3239   */\n      tag_540\n      jumpi\n        /* \"#utility.yul\":3158:3237   */\n      tag_541\n      tag_410\n      jump\t// in\n    tag_541:\n        /* \"#utility.yul\":3117:3239   */\n    tag_540:\n        /* \"#utility.yul\":3275:3281   */\n      dup2\n        /* \"#utility.yul\":3262:3282   */\n      calldataload\n        /* \"#utility.yul\":3300:3379   */\n      tag_542\n        /* \"#utility.yul\":3375:3378   */\n      dup5\n        /* \"#utility.yul\":3367:3373   */\n      dup3\n        /* \"#utility.yul\":3360:3364   */\n      0x20\n        /* \"#utility.yul\":3352:3358   */\n      dup7\n        /* \"#utility.yul\":3348:3365   */\n      add\n        /* \"#utility.yul\":3300:3379   */\n      tag_417\n      jump\t// in\n    tag_542:\n        /* \"#utility.yul\":3291:3379   */\n      swap2\n      pop\n        /* \"#utility.yul\":3107:3385   */\n      pop\n        /* \"#utility.yul\":3045:3385   */\n      swap3\n      swap2\n      pop\n      pop\n      jump\t// out\n        /* \"#utility.yul\":3391:4045   */\n    tag_34:\n        /* \"#utility.yul\":3469:3475   */\n      0x00\n        /* \"#utility.yul\":3477:3483   */\n      dup1\n        /* \"#utility.yul\":3526:3528   */\n      0x40\n        /* \"#utility.yul\":3514:3523   */\n      dup4\n        /* \"#utility.yul\":3505:3512   */\n      dup6\n        /* \"#utility.yul\":3501:3524   */\n      sub\n        /* \"#utility.yul\":3497:3529   */\n      slt\n        /* \"#utility.yul\":3494:3613   */\n      iszero\n      tag_544\n      jumpi\n        /* \"#utility.yul\":3532:3611   */\n      tag_545\n      tag_405\n      jump\t// in\n    tag_545:\n        /* \"#utility.yul\":3494:3613   */\n    tag_544:\n        /* \"#utility.yul\":3652:3653   */\n      0x00\n        /* \"#utility.yul\":3677:3730   */\n      tag_546\n        /* \"#utility.yul\":3722:3729   */\n      dup6\n        /* \"#utility.yul\":3713:3719   */\n      dup3\n        /* \"#utility.yul\":3702:3711   */\n      dup7\n        /* \"#utility.yul\":3698:3720   */\n      add\n        /* \"#utility.yul\":3677:3730   */\n      tag_409\n      jump\t// in\n    tag_546:\n        /* \"#utility.yul\":3667:3730   */\n      swap3\n      pop\n        /* \"#utility.yul\":3623:3740   */\n      pop\n        /* \"#utility.yul\":3807:3809   */\n      0x20\n        /* \"#utility.yul\":3796:3805   */\n      dup4\n        /* \"#utility.yul\":3792:3810   */\n      add\n        /* \"#utility.yul\":3779:3811   */\n      calldataload\n        /* \"#utility.yul\":3838:3856   */\n      0xffffffffffffffff\n        /* \"#utility.yul\":3830:3836   */\n      dup2\n        /* \"#utility.yul\":3827:3857   */\n      gt\n        /* \"#utility.yul\":3824:3941   */\n      iszero\n      tag_547\n      jumpi\n        /* \"#utility.yul\":3860:3939   */\n      tag_548\n      tag_406\n      jump\t// in\n    tag_548:\n        /* \"#utility.yul\":3824:3941   */\n    tag_547:\n        /* \"#utility.yul\":3965:4028   */\n      tag_549\n        /* \"#utility.yul\":4020:4027   */\n      dup6\n        /* \"#utility.yul\":4011:4017   */\n      dup3\n        /* \"#utility.yul\":4000:4009   */\n      dup7\n        /* \"#utility.yul\":3996:4018   */\n      add\n        /* \"#utility.yul\":3965:4028   */\n      tag_418\n      jump\t// in\n    tag_549:\n        /* \"#utility.yul\":3955:4028   */\n      swap2\n      pop\n        /* \"#utility.yul\":3750:4038   */\n      pop\n        /* \"#utility.yul\":3391:4045   */\n      swap3\n      pop\n      swap3\n      swap1\n      pop\n      jump\t// out\n        /* \"#utility.yul\":4051:4177   */\n    tag_419:\n        /* \"#utility.yul\":4088:4095   */\n      0x00\n        /* \"#utility.yul\":4128:4170   */\n      0xffffffffffffffffffffffffffffffffffffffff\n        /* \"#utility.yul\":4121:4126   */\n      dup3\n        /* \"#utility.yul\":4117:4171   */\n      and\n        /* \"#utility.yul\":4106:4171   */\n      swap1\n      pop\n        /* \"#utility.yul\":4051:4177   */\n      swap2\n      swap1\n      pop\n      jump\t// out\n        /* \"#utility.yul\":4183:4279   */\n    tag_420:\n        /* \"#utility.yul\":4220:4227   */\n      0x00\n        /* \"#utility.yul\":4249:4273   */\n      tag_552\n        /* \"#utility.yul\":4267:4272   */\n      dup3\n        /* \"#utility.yul\":4249:4273   */\n      tag_419\n      jump\t// in\n    tag_552:\n        /* \"#utility.yul\":4238:4273   */\n      swap1\n      pop\n        /* \"#utility.yul\":4183:4279   */\n      swap2\n      swap1\n      pop\n      jump\t// out\n        /* \"#utility.yul\":4285:4403   */\n    tag_421:\n        /* \"#utility.yul\":4372:4396   */\n      tag_554\n        /* \"#utility.yul\":4390:4395   */\n      dup2\n        /* \"#utility.yul\":4372:4396   */\n      tag_420\n      jump\t// in\n    tag_554:\n        /* \"#utility.yul\":4367:4370   */\n      dup3\n        /* \"#utility.yul\":4360:4397   */\n      mstore\n        /* \"#utility.yul\":4285:4403   */\n      pop\n      pop\n      jump\t// out\n        /* \"#utility.yul\":4409:4508   */\n    tag_422:\n        /* \"#utility.yul\":4461:4467   */\n      0x00\n        /* \"#utility.yul\":4495:4500   */\n      dup2\n        /* \"#utility.yul\":4489:4501   */\n      mload\n        /* \"#utility.yul\":4479:4501   */\n      swap1\n      pop\n        /* \"#utility.yul\":4409:4508   */\n      swap2\n      swap1\n      pop\n      jump\t// out\n        /* \"#utility.yul\":4514:4683   */\n    tag_423:\n        /* \"#utility.yul\":4598:4609   */\n      0x00\n        /* \"#utility.yul\":4632:4638   */\n      dup3\n        /* \"#utility.yul\":4627:4630   */\n      dup3\n        /* \"#utility.yul\":4620:4639   */\n      mstore\n        /* \"#utility.yul\":4672:4676   */\n      0x20\n        /* \"#utility.yul\":4667:4670   */\n      dup3\n        /* \"#utility.yul\":4663:4677   */\n      add\n        /* \"#utility.yul\":4648:4677   */\n      swap1\n      pop\n        /* \"#utility.yul\":4514:4683   */\n      swap3\n      swap2\n      pop\n      pop\n      jump\t// out\n        /* \"#utility.yul\":4689:4828   */\n    tag_424:\n        /* \"#utility.yul\":4778:4784   */\n      dup3\n        /* \"#utility.yul\":4773:4776   */\n      dup2\n        /* \"#utility.yul\":4768:4771   */\n      dup4\n        /* \"#utility.yul\":4762:4785   */\n      mcopy\n        /* \"#utility.yul\":4819:4820   */\n      0x00\n        /* \"#utility.yul\":4810:4816   */\n      dup4\n        /* \"#utility.yul\":4805:4808   */\n      dup4\n        /* \"#utility.yul\":4801:4817   */\n      add\n        /* \"#utility.yul\":4794:4821   */\n      mstore\n        /* \"#utility.yul\":4689:4828   */\n      pop\n      pop\n      pop\n      jump\t// out\n        /* \"#utility.yul\":4834:5211   */\n    tag_425:\n        /* \"#utility.yul\":4922:4925   */\n      0x00\n        /* \"#utility.yul\":4950:4989   */\n      tag_559\n        /* \"#utility.yul\":4983:4988   */\n      dup3\n        /* \"#utility.yul\":4950:4989   */\n      tag_422\n      jump\t// in\n    tag_559:\n        /* \"#utility.yul\":5005:5076   */\n      tag_560\n        /* \"#utility.yul\":5069:5075   */\n      dup2\n        /* \"#utility.yul\":5064:5067   */\n      dup6\n        /* \"#utility.yul\":5005:5076   */\n      tag_423\n      jump\t// in\n    tag_560:\n        /* \"#utility.yul\":4998:5076   */\n      swap4\n      pop\n        /* \"#utility.yul\":5085:5150   */\n      tag_561\n        /* \"#utility.yul\":5143:5149   */\n      dup2\n        /* \"#utility.yul\":5138:5141   */\n      dup6\n        /* \"#utility.yul\":5131:5135   */\n      0x20\n        /* \"#utility.yul\":5124:5129   */\n      dup7\n        /* \"#utility.yul\":5120:5136   */\n      add\n        /* \"#utility.yul\":5085:5150   */\n      tag_424\n      jump\t// in\n    tag_561:\n        /* \"#utility.yul\":5175:5204   */\n      tag_562\n        /* \"#utility.yul\":5197:5203   */\n      dup2\n        /* \"#utility.yul\":5175:5204   */\n      tag_412\n      jump\t// in\n    tag_562:\n        /* \"#utility.yul\":5170:5173   */\n      dup5\n        /* \"#utility.yul\":5166:5205   */\n      add\n        /* \"#utility.yul\":5159:5205   */\n      swap2\n      pop\n        /* \"#utility.yul\":4926:5211   */\n      pop\n        /* \"#utility.yul\":4834:5211   */\n      swap3\n      swap2\n      pop\n      pop\n      jump\t// out\n        /* \"#utility.yul\":5217:5335   */\n    tag_426:\n        /* \"#utility.yul\":5304:5328   */\n      tag_564\n        /* \"#utility.yul\":5322:5327   */\n      dup2\n        /* \"#utility.yul\":5304:5328   */\n      tag_407\n      jump\t// in\n    tag_564:\n        /* \"#utility.yul\":5299:5302   */\n      dup3\n        /* \"#utility.yul\":5292:5329   */\n      mstore\n        /* \"#utility.yul\":5217:5335   */\n      pop\n      pop\n      jump\t// out\n        /* \"#utility.yul\":5341:6096   */\n    tag_41:\n        /* \"#utility.yul\":5566:5570   */\n      0x00\n        /* \"#utility.yul\":5604:5607   */\n      0xa0\n        /* \"#utility.yul\":5593:5602   */\n      dup3\n        /* \"#utility.yul\":5589:5608   */\n      add\n        /* \"#utility.yul\":5581:5608   */\n      swap1\n      pop\n        /* \"#utility.yul\":5618:5689   */\n      tag_566\n        /* \"#utility.yul\":5686:5687   */\n      0x00\n        /* \"#utility.yul\":5675:5684   */\n      dup4\n        /* \"#utility.yul\":5671:5688   */\n      add\n        /* \"#utility.yul\":5662:5668   */\n      dup9\n        /* \"#utility.yul\":5618:5689   */\n      tag_421\n      jump\t// in\n    tag_566:\n        /* \"#utility.yul\":5736:5745   */\n      dup2\n        /* \"#utility.yul\":5730:5734   */\n      dup2\n        /* \"#utility.yul\":5726:5746   */\n      sub\n        /* \"#utility.yul\":5721:5723   */\n      0x20\n        /* \"#utility.yul\":5710:5719   */\n      dup4\n        /* \"#utility.yul\":5706:5724   */\n      add\n        /* \"#utility.yul\":5699:5747   */\n      mstore\n        /* \"#utility.yul\":5764:5842   */\n      tag_567\n        /* \"#utility.yul\":5837:5841   */\n      dup2\n        /* \"#utility.yul\":5828:5834   */\n      dup8\n        /* \"#utility.yul\":5764:5842   */\n      tag_425\n      jump\t// in\n    tag_567:\n        /* \"#utility.yul\":5756:5842   */\n      swap1\n      pop\n        /* \"#utility.yul\":5852:5924   */\n      tag_568\n        /* \"#utility.yul\":5920:5922   */\n      0x40\n        /* \"#utility.yul\":5909:5918   */\n      dup4\n        /* \"#utility.yul\":5905:5923   */\n      add\n        /* \"#utility.yul\":5896:5902   */\n      dup7\n        /* \"#utility.yul\":5852:5924   */\n      tag_426\n      jump\t// in\n    tag_568:\n        /* \"#utility.yul\":5934:6006   */\n      tag_569\n        /* \"#utility.yul\":6002:6004   */\n      0x60\n        /* \"#utility.yul\":5991:6000   */\n      dup4\n        /* \"#utility.yul\":5987:6005   */\n      add\n        /* \"#utility.yul\":5978:5984   */\n      dup6\n        /* \"#utility.yul\":5934:6006   */\n      tag_426\n      jump\t// in\n    tag_569:\n        /* \"#utility.yul\":6016:6089   */\n      tag_570\n        /* \"#utility.yul\":6084:6087   */\n      0x80\n        /* \"#utility.yul\":6073:6082   */\n      dup4\n        /* \"#utility.yul\":6069:6088   */\n      add\n        /* \"#utility.yul\":6060:6066   */\n      dup5\n        /* \"#utility.yul\":6016:6089   */\n      tag_426\n      jump\t// in\n    tag_570:\n        /* \"#utility.yul\":5341:6096   */\n      swap7\n      swap6\n      pop\n      pop\n      pop\n      pop\n      pop\n      pop\n      jump\t// out\n        /* \"#utility.yul\":6102:6224   */\n    tag_427:\n        /* \"#utility.yul\":6175:6199   */\n      tag_572\n        /* \"#utility.yul\":6193:6198   */\n      dup2\n        /* \"#utility.yul\":6175:6199   */\n      tag_420\n      jump\t// in\n    tag_572:\n        /* \"#utility.yul\":6168:6173   */\n      dup2\n        /* \"#utility.yul\":6165:6200   */\n      eq\n        /* \"#utility.yul\":6155:6218   */\n      tag_573\n      jumpi\n        /* \"#utility.yul\":6214:6215   */\n      0x00\n        /* \"#utility.yul\":6211:6212   */\n      dup1\n        /* \"#utility.yul\":6204:6216   */\n      revert\n        /* \"#utility.yul\":6155:6218   */\n    tag_573:\n        /* \"#utility.yul\":6102:6224   */\n      pop\n      jump\t// out\n        /* \"#utility.yul\":6230:6369   */\n    tag_428:\n        /* \"#utility.yul\":6276:6281   */\n      0x00\n        /* \"#utility.yul\":6314:6320   */\n      dup2\n        /* \"#utility.yul\":6301:6321   */\n      calldataload\n        /* \"#utility.yul\":6292:6321   */\n      swap1\n      pop\n        /* \"#utility.yul\":6330:6363   */\n      tag_575\n        /* \"#utility.yul\":6357:6362   */\n      dup2\n        /* \"#utility.yul\":6330:6363   */\n      tag_427\n      jump\t// in\n    tag_575:\n        /* \"#utility.yul\":6230:6369   */\n      swap3\n      swap2\n      pop\n      pop\n      jump\t// out\n        /* \"#utility.yul\":6375:6704   */\n    tag_48:\n        /* \"#utility.yul\":6434:6440   */\n      0x00\n        /* \"#utility.yul\":6483:6485   */\n      0x20\n        /* \"#utility.yul\":6471:6480   */\n      dup3\n        /* \"#utility.yul\":6462:6469   */\n      dup5\n        /* \"#utility.yul\":6458:6481   */\n      sub\n        /* \"#utility.yul\":6454:6486   */\n      slt\n        /* \"#utility.yul\":6451:6570   */\n      iszero\n      tag_577\n      jumpi\n        /* \"#utility.yul\":6489:6568   */\n      tag_578\n      tag_405\n      jump\t// in\n    tag_578:\n        /* \"#utility.yul\":6451:6570   */\n    tag_577:\n        /* \"#utility.yul\":6609:6610   */\n      0x00\n        /* \"#utility.yul\":6634:6687   */\n      tag_579\n        /* \"#utility.yul\":6679:6686   */\n      dup5\n        /* \"#utility.yul\":6670:6676   */\n      dup3\n        /* \"#utility.yul\":6659:6668   */\n      dup6\n        /* \"#utility.yul\":6655:6677   */\n      add\n        /* \"#utility.yul\":6634:6687   */\n      tag_428\n      jump\t// in\n    tag_579:\n        /* \"#utility.yul\":6624:6687   */\n      swap2\n      pop\n        /* \"#utility.yul\":6580:6697   */\n      pop\n        /* \"#utility.yul\":6375:6704   */\n      swap3\n      swap2\n      pop\n      pop\n      jump\t// out\n        /* \"#utility.yul\":6710:6932   */\n    tag_51:\n        /* \"#utility.yul\":6803:6807   */\n      0x00\n        /* \"#utility.yul\":6841:6843   */\n      0x20\n        /* \"#utility.yul\":6830:6839   */\n      dup3\n        /* \"#utility.yul\":6826:6844   */\n      add\n        /* \"#utility.yul\":6818:6844   */\n      swap1\n      pop\n        /* \"#utility.yul\":6854:6925   */\n      tag_581\n        /* \"#utility.yul\":6922:6923   */\n      0x00\n        /* \"#utility.yul\":6911:6920   */\n      dup4\n        /* \"#utility.yul\":6907:6924   */\n      add\n        /* \"#utility.yul\":6898:6904   */\n      dup5\n        /* \"#utility.yul\":6854:6925   */\n      tag_426\n      jump\t// in\n    tag_581:\n        /* \"#utility.yul\":6710:6932   */\n      swap3\n      swap2\n      pop\n      pop\n      jump\t// out\n        /* \"#utility.yul\":6938:7267   */\n    tag_55:\n        /* \"#utility.yul\":6997:7003   */\n      0x00\n        /* \"#utility.yul\":7046:7048   */\n      0x20\n        /* \"#utility.yul\":7034:7043   */\n      dup3\n        /* \"#utility.yul\":7025:7032   */\n      dup5\n        /* \"#utility.yul\":7021:7044   */\n      sub\n        /* \"#utility.yul\":7017:7049   */\n      slt\n        /* \"#utility.yul\":7014:7133   */\n      iszero\n      tag_583\n      jumpi\n        /* \"#utility.yul\":7052:7131   */\n      tag_584\n      tag_405\n      jump\t// in\n    tag_584:\n        /* \"#utility.yul\":7014:7133   */\n    tag_583:\n        /* \"#utility.yul\":7172:7173   */\n      0x00\n        /* \"#utility.yul\":7197:7250   */\n      tag_585\n        /* \"#utility.yul\":7242:7249   */\n      dup5\n        /* \"#utility.yul\":7233:7239   */\n      dup3\n        /* \"#utility.yul\":7222:7231   */\n      dup6\n        /* \"#utility.yul\":7218:7240   */\n      add\n        /* \"#utility.yul\":7197:7250   */\n      tag_409\n      jump\t// in\n    tag_585:\n        /* \"#utility.yul\":7187:7250   */\n      swap2\n      pop\n        /* \"#utility.yul\":7143:7260   */\n      pop\n        /* \"#utility.yul\":6938:7267   */\n      swap3\n      swap2\n      pop\n      pop\n      jump\t// out\n        /* \"#utility.yul\":7273:7363   */\n    tag_429:\n        /* \"#utility.yul\":7307:7314   */\n      0x00\n        /* \"#utility.yul\":7350:7355   */\n      dup2\n        /* \"#utility.yul\":7343:7356   */\n      iszero\n        /* \"#utility.yul\":7336:7357   */\n      iszero\n        /* \"#utility.yul\":7325:7357   */\n      swap1\n      pop\n        /* \"#utility.yul\":7273:7363   */\n      swap2\n      swap1\n      pop\n      jump\t// out\n        /* \"#utility.yul\":7369:7478   */\n    tag_430:\n        /* \"#utility.yul\":7450:7471   */\n      tag_588\n        /* \"#utility.yul\":7465:7470   */\n      dup2\n        /* \"#utility.yul\":7450:7471   */\n      tag_429\n      jump\t// in\n    tag_588:\n        /* \"#utility.yul\":7445:7448   */\n      dup3\n        /* \"#utility.yul\":7438:7472   */\n      mstore\n        /* \"#utility.yul\":7369:7478   */\n      pop\n      pop\n      jump\t// out\n        /* \"#utility.yul\":7484:8964   */\n    tag_58:\n        /* \"#utility.yul\":7883:7887   */\n      0x00\n        /* \"#utility.yul\":7921:7924   */\n      0x0140\n        /* \"#utility.yul\":7910:7919   */\n      dup3\n        /* \"#utility.yul\":7906:7925   */\n      add\n        /* \"#utility.yul\":7898:7925   */\n      swap1\n      pop\n        /* \"#utility.yul\":7935:8006   */\n      tag_590\n        /* \"#utility.yul\":8003:8004   */\n      0x00\n        /* \"#utility.yul\":7992:8001   */\n      dup4\n        /* \"#utility.yul\":7988:8005   */\n      add\n        /* \"#utility.yul\":7979:7985   */\n      dup14\n        /* \"#utility.yul\":7935:8006   */\n      tag_426\n      jump\t// in\n    tag_590:\n        /* \"#utility.yul\":8016:8088   */\n      tag_591\n        /* \"#utility.yul\":8084:8086   */\n      0x20\n        /* \"#utility.yul\":8073:8082   */\n      dup4\n        /* \"#utility.yul\":8069:8087   */\n      add\n        /* \"#utility.yul\":8060:8066   */\n      dup13\n        /* \"#utility.yul\":8016:8088   */\n      tag_421\n      jump\t// in\n    tag_591:\n        /* \"#utility.yul\":8135:8144   */\n      dup2\n        /* \"#utility.yul\":8129:8133   */\n      dup2\n        /* \"#utility.yul\":8125:8145   */\n      sub\n        /* \"#utility.yul\":8120:8122   */\n      0x40\n        /* \"#utility.yul\":8109:8118   */\n      dup4\n        /* \"#utility.yul\":8105:8123   */\n      add\n        /* \"#utility.yul\":8098:8146   */\n      mstore\n        /* \"#utility.yul\":8163:8241   */\n      tag_592\n        /* \"#utility.yul\":8236:8240   */\n      dup2\n        /* \"#utility.yul\":8227:8233   */\n      dup12\n        /* \"#utility.yul\":8163:8241   */\n      tag_425\n      jump\t// in\n    tag_592:\n        /* \"#utility.yul\":8155:8241   */\n      swap1\n      pop\n        /* \"#utility.yul\":8288:8297   */\n      dup2\n        /* \"#utility.yul\":8282:8286   */\n      dup2\n        /* \"#utility.yul\":8278:8298   */\n      sub\n        /* \"#utility.yul\":8273:8275   */\n      0x60\n        /* \"#utility.yul\":8262:8271   */\n      dup4\n        /* \"#utility.yul\":8258:8276   */\n      add\n        /* \"#utility.yul\":8251:8299   */\n      mstore\n        /* \"#utility.yul\":8316:8394   */\n      tag_593\n        /* \"#utility.yul\":8389:8393   */\n      dup2\n        /* \"#utility.yul\":8380:8386   */\n      dup11\n        /* \"#utility.yul\":8316:8394   */\n      tag_425\n      jump\t// in\n    tag_593:\n        /* \"#utility.yul\":8308:8394   */\n      swap1\n      pop\n        /* \"#utility.yul\":8442:8451   */\n      dup2\n        /* \"#utility.yul\":8436:8440   */\n      dup2\n        /* \"#utility.yul\":8432:8452   */\n      sub\n        /* \"#utility.yul\":8426:8429   */\n      0x80\n        /* \"#utility.yul\":8415:8424   */\n      dup4\n        /* \"#utility.yul\":8411:8430   */\n      add\n        /* \"#utility.yul\":8404:8453   */\n      mstore\n        /* \"#utility.yul\":8470:8548   */\n      tag_594\n        /* \"#utility.yul\":8543:8547   */\n      dup2\n        /* \"#utility.yul\":8534:8540   */\n      dup10\n        /* \"#utility.yul\":8470:8548   */\n      tag_425\n      jump\t// in\n    tag_594:\n        /* \"#utility.yul\":8462:8548   */\n      swap1\n      pop\n        /* \"#utility.yul\":8558:8631   */\n      tag_595\n        /* \"#utility.yul\":8626:8629   */\n      0xa0\n        /* \"#utility.yul\":8615:8624   */\n      dup4\n        /* \"#utility.yul\":8611:8630   */\n      add\n        /* \"#utility.yul\":8602:8608   */\n      dup9\n        /* \"#utility.yul\":8558:8631   */\n      tag_426\n      jump\t// in\n    tag_595:\n        /* \"#utility.yul\":8641:8714   */\n      tag_596\n        /* \"#utility.yul\":8709:8712   */\n      0xc0\n        /* \"#utility.yul\":8698:8707   */\n      dup4\n        /* \"#utility.yul\":8694:8713   */\n      add\n        /* \"#utility.yul\":8685:8691   */\n      dup8\n        /* \"#utility.yul\":8641:8714   */\n      tag_426\n      jump\t// in\n    tag_596:\n        /* \"#utility.yul\":8724:8797   */\n      tag_597\n        /* \"#utility.yul\":8792:8795   */\n      0xe0\n        /* \"#utility.yul\":8781:8790   */\n      dup4\n        /* \"#utility.yul\":8777:8796   */\n      add\n        /* \"#utility.yul\":8768:8774   */\n      dup7\n        /* \"#utility.yul\":8724:8797   */\n      tag_426\n      jump\t// in\n    tag_597:\n        /* \"#utility.yul\":8807:8874   */\n      tag_598\n        /* \"#utility.yul\":8869:8872   */\n      0x0100\n        /* \"#utility.yul\":8858:8867   */\n      dup4\n        /* \"#utility.yul\":8854:8873   */\n      add\n        /* \"#utility.yul\":8845:8851   */\n      dup6\n        /* \"#utility.yul\":8807:8874   */\n      tag_430\n      jump\t// in\n    tag_598:\n        /* \"#utility.yul\":8884:8957   */\n      tag_599\n        /* \"#utility.yul\":8952:8955   */\n      0x0120\n        /* \"#utility.yul\":8941:8950   */\n      dup4\n        /* \"#utility.yul\":8937:8956   */\n      add\n        /* \"#utility.yul\":8928:8934   */\n      dup5\n        /* \"#utility.yul\":8884:8957   */\n      tag_426\n      jump\t// in\n    tag_599:\n        /* \"#utility.yul\":7484:8964   */\n      swap12\n      swap11\n      pop\n      pop\n      pop\n      pop\n      pop\n      pop\n      pop\n      pop\n      pop\n      pop\n      pop\n      jump\t// out\n        /* \"#utility.yul\":8970:9078   */\n    tag_431:\n        /* \"#utility.yul\":9047:9071   */\n      tag_601\n        /* \"#utility.yul\":9065:9070   */\n      dup2\n        /* \"#utility.yul\":9047:9071   */\n      tag_420\n      jump\t// in\n    tag_601:\n        /* \"#utility.yul\":9042:9045   */\n      dup3\n        /* \"#utility.yul\":9035:9072   */\n      mstore\n        /* \"#utility.yul\":8970:9078   */\n      pop\n      pop\n      jump\t// out\n        /* \"#utility.yul\":9084:9243   */\n    tag_432:\n        /* \"#utility.yul\":9158:9169   */\n      0x00\n        /* \"#utility.yul\":9192:9198   */\n      dup3\n        /* \"#utility.yul\":9187:9190   */\n      dup3\n        /* \"#utility.yul\":9180:9199   */\n      mstore\n        /* \"#utility.yul\":9232:9236   */\n      0x20\n        /* \"#utility.yul\":9227:9230   */\n      dup3\n        /* \"#utility.yul\":9223:9237   */\n      add\n        /* \"#utility.yul\":9208:9237   */\n      swap1\n      pop\n        /* \"#utility.yul\":9084:9243   */\n      swap3\n      swap2\n      pop\n      pop\n      jump\t// out\n        /* \"#utility.yul\":9249:9606   */\n    tag_433:\n        /* \"#utility.yul\":9327:9330   */\n      0x00\n        /* \"#utility.yul\":9355:9394   */\n      tag_604\n        /* \"#utility.yul\":9388:9393   */\n      dup3\n        /* \"#utility.yul\":9355:9394   */\n      tag_422\n      jump\t// in\n    tag_604:\n        /* \"#utility.yul\":9410:9471   */\n      tag_605\n        /* \"#utility.yul\":9464:9470   */\n      dup2\n        /* \"#utility.yul\":9459:9462   */\n      dup6\n        /* \"#utility.yul\":9410:9471   */\n      tag_432\n      jump\t// in\n    tag_605:\n        /* \"#utility.yul\":9403:9471   */\n      swap4\n      pop\n        /* \"#utility.yul\":9480:9545   */\n      tag_606\n        /* \"#utility.yul\":9538:9544   */\n      dup2\n        /* \"#utility.yul\":9533:9536   */\n      dup6\n        /* \"#utility.yul\":9526:9530   */\n      0x20\n        /* \"#utility.yul\":9519:9524   */\n      dup7\n        /* \"#utility.yul\":9515:9531   */\n      add\n        /* \"#utility.yul\":9480:9545   */\n      tag_424\n      jump\t// in\n    tag_606:\n        /* \"#utility.yul\":9570:9599   */\n      tag_607\n        /* \"#utility.yul\":9592:9598   */\n      dup2\n        /* \"#utility.yul\":9570:9599   */\n      tag_412\n      jump\t// in\n    tag_607:\n        /* \"#utility.yul\":9565:9568   */\n      dup5\n        /* \"#utility.yul\":9561:9600   */\n      add\n        /* \"#utility.yul\":9554:9600   */\n      swap2\n      pop\n        /* \"#utility.yul\":9331:9606   */\n      pop\n        /* \"#utility.yul\":9249:9606   */\n      swap3\n      swap2\n      pop\n      pop\n      jump\t// out\n        /* \"#utility.yul\":9612:9720   */\n    tag_434:\n        /* \"#utility.yul\":9689:9713   */\n      tag_609\n        /* \"#utility.yul\":9707:9712   */\n      dup2\n        /* \"#utility.yul\":9689:9713   */\n      tag_407\n      jump\t// in\n    tag_609:\n        /* \"#utility.yul\":9684:9687   */\n      dup3\n        /* \"#utility.yul\":9677:9714   */\n      mstore\n        /* \"#utility.yul\":9612:9720   */\n      pop\n      pop\n      jump\t// out\n        /* \"#utility.yul\":9782:10931   */\n    tag_435:\n        /* \"#utility.yul\":9895:9898   */\n      0x00\n        /* \"#utility.yul\":9931:9935   */\n      0xa0\n        /* \"#utility.yul\":9926:9929   */\n      dup4\n        /* \"#utility.yul\":9922:9936   */\n      add\n        /* \"#utility.yul\":10023:10027   */\n      0x00\n        /* \"#utility.yul\":10016:10021   */\n      dup4\n        /* \"#utility.yul\":10012:10028   */\n      add\n        /* \"#utility.yul\":10006:10029   */\n      mload\n        /* \"#utility.yul\":10042:10105   */\n      tag_611\n        /* \"#utility.yul\":10099:10103   */\n      0x00\n        /* \"#utility.yul\":10094:10097   */\n      dup7\n        /* \"#utility.yul\":10090:10104   */\n      add\n        /* \"#utility.yul\":10076:10088   */\n      dup3\n        /* \"#utility.yul\":10042:10105   */\n      tag_431\n      jump\t// in\n    tag_611:\n        /* \"#utility.yul\":9946:10115   */\n      pop\n        /* \"#utility.yul\":10203:10207   */\n      0x20\n        /* \"#utility.yul\":10196:10201   */\n      dup4\n        /* \"#utility.yul\":10192:10208   */\n      add\n        /* \"#utility.yul\":10186:10209   */\n      mload\n        /* \"#utility.yul\":10256:10259   */\n      dup5\n        /* \"#utility.yul\":10250:10254   */\n      dup3\n        /* \"#utility.yul\":10246:10260   */\n      sub\n        /* \"#utility.yul\":10239:10243   */\n      0x20\n        /* \"#utility.yul\":10234:10237   */\n      dup7\n        /* \"#utility.yul\":10230:10244   */\n      add\n        /* \"#utility.yul\":10223:10261   */\n      mstore\n        /* \"#utility.yul\":10282:10355   */\n      tag_612\n        /* \"#utility.yul\":10350:10354   */\n      dup3\n        /* \"#utility.yul\":10336:10348   */\n      dup3\n        /* \"#utility.yul\":10282:10355   */\n      tag_433\n      jump\t// in\n    tag_612:\n        /* \"#utility.yul\":10274:10355   */\n      swap2\n      pop\n        /* \"#utility.yul\":10125:10366   */\n      pop\n        /* \"#utility.yul\":10451:10455   */\n      0x40\n        /* \"#utility.yul\":10444:10449   */\n      dup4\n        /* \"#utility.yul\":10440:10456   */\n      add\n        /* \"#utility.yul\":10434:10457   */\n      mload\n        /* \"#utility.yul\":10470:10533   */\n      tag_613\n        /* \"#utility.yul\":10527:10531   */\n      0x40\n        /* \"#utility.yul\":10522:10525   */\n      dup7\n        /* \"#utility.yul\":10518:10532   */\n      add\n        /* \"#utility.yul\":10504:10516   */\n      dup3\n        /* \"#utility.yul\":10470:10533   */\n      tag_434\n      jump\t// in\n    tag_613:\n        /* \"#utility.yul\":10376:10543   */\n      pop\n        /* \"#utility.yul\":10633:10637   */\n      0x60\n        /* \"#utility.yul\":10626:10631   */\n      dup4\n        /* \"#utility.yul\":10622:10638   */\n      add\n        /* \"#utility.yul\":10616:10639   */\n      mload\n        /* \"#utility.yul\":10652:10715   */\n      tag_614\n        /* \"#utility.yul\":10709:10713   */\n      0x60\n        /* \"#utility.yul\":10704:10707   */\n      dup7\n        /* \"#utility.yul\":10700:10714   */\n      add\n        /* \"#utility.yul\":10686:10698   */\n      dup3\n        /* \"#utility.yul\":10652:10715   */\n      tag_434\n      jump\t// in\n    tag_614:\n        /* \"#utility.yul\":10553:10725   */\n      pop\n        /* \"#utility.yul\":10812:10816   */\n      0x80\n        /* \"#utility.yul\":10805:10810   */\n      dup4\n        /* \"#utility.yul\":10801:10817   */\n      add\n        /* \"#utility.yul\":10795:10818   */\n      mload\n        /* \"#utility.yul\":10831:10894   */\n      tag_615\n        /* \"#utility.yul\":10888:10892   */\n      0x80\n        /* \"#utility.yul\":10883:10886   */\n      dup7\n        /* \"#utility.yul\":10879:10893   */\n      add\n        /* \"#utility.yul\":10865:10877   */\n      dup3\n        /* \"#utility.yul\":10831:10894   */\n      tag_434\n      jump\t// in\n    tag_615:\n        /* \"#utility.yul\":10735:10904   */\n      pop\n        /* \"#utility.yul\":10921:10925   */\n      dup1\n        /* \"#utility.yul\":10914:10925   */\n      swap2\n      pop\n        /* \"#utility.yul\":9900:10931   */\n      pop\n        /* \"#utility.yul\":9782:10931   */\n      swap3\n      swap2\n      pop\n      pop\n      jump\t// out\n        /* \"#utility.yul\":10937:11298   */\n    tag_67:\n        /* \"#utility.yul\":11074:11078   */\n      0x00\n        /* \"#utility.yul\":11112:11114   */\n      0x20\n        /* \"#utility.yul\":11101:11110   */\n      dup3\n        /* \"#utility.yul\":11097:11115   */\n      add\n        /* \"#utility.yul\":11089:11115   */\n      swap1\n      pop\n        /* \"#utility.yul\":11161:11170   */\n      dup2\n        /* \"#utility.yul\":11155:11159   */\n      dup2\n        /* \"#utility.yul\":11151:11171   */\n      sub\n        /* \"#utility.yul\":11147:11148   */\n      0x00\n        /* \"#utility.yul\":11136:11145   */\n      dup4\n        /* \"#utility.yul\":11132:11149   */\n      add\n        /* \"#utility.yul\":11125:11172   */\n      mstore\n        /* \"#utility.yul\":11189:11291   */\n      tag_617\n        /* \"#utility.yul\":11286:11290   */\n      dup2\n        /* \"#utility.yul\":11277:11283   */\n      dup5\n        /* \"#utility.yul\":11189:11291   */\n      tag_435\n      jump\t// in\n    tag_617:\n        /* \"#utility.yul\":11181:11291   */\n      swap1\n      pop\n        /* \"#utility.yul\":10937:11298   */\n      swap3\n      swap2\n      pop\n      pop\n      jump\t// out\n        /* \"#utility.yul\":11304:11813   */\n    tag_71:\n        /* \"#utility.yul\":11373:11379   */\n      0x00\n        /* \"#utility.yul\":11422:11424   */\n      0x20\n        /* \"#utility.yul\":11410:11419   */\n      dup3\n        /* \"#utility.yul\":11401:11408   */\n      dup5\n        /* \"#utility.yul\":11397:11420   */\n      sub\n        /* \"#utility.yul\":11393:11425   */\n      slt\n        /* \"#utility.yul\":11390:11509   */\n      iszero\n      tag_619\n      jumpi\n        /* \"#utility.yul\":11428:11507   */\n      tag_620\n      tag_405\n      jump\t// in\n    tag_620:\n        /* \"#utility.yul\":11390:11509   */\n    tag_619:\n        /* \"#utility.yul\":11576:11577   */\n      0x00\n        /* \"#utility.yul\":11565:11574   */\n      dup3\n        /* \"#utility.yul\":11561:11578   */\n      add\n        /* \"#utility.yul\":11548:11579   */\n      calldataload\n        /* \"#utility.yul\":11606:11624   */\n      0xffffffffffffffff\n        /* \"#utility.yul\":11598:11604   */\n      dup2\n        /* \"#utility.yul\":11595:11625   */\n      gt\n        /* \"#utility.yul\":11592:11709   */\n      iszero\n      tag_621\n      jumpi\n        /* \"#utility.yul\":11628:11707   */\n      tag_622\n      tag_406\n      jump\t// in\n    tag_622:\n        /* \"#utility.yul\":11592:11709   */\n    tag_621:\n        /* \"#utility.yul\":11733:11796   */\n      tag_623\n        /* \"#utility.yul\":11788:11795   */\n      dup5\n        /* \"#utility.yul\":11779:11785   */\n      dup3\n        /* \"#utility.yul\":11768:11777   */\n      dup6\n        /* \"#utility.yul\":11764:11786   */\n      add\n        /* \"#utility.yul\":11733:11796   */\n      tag_418\n      jump\t// in\n    tag_623:\n        /* \"#utility.yul\":11723:11796   */\n      swap2\n      pop\n        /* \"#utility.yul\":11519:11806   */\n      pop\n        /* \"#utility.yul\":11304:11813   */\n      swap3\n      swap2\n      pop\n      pop\n      jump\t// out\n        /* \"#utility.yul\":11819:11933   */\n    tag_436:\n        /* \"#utility.yul\":11886:11892   */\n      0x00\n        /* \"#utility.yul\":11920:11925   */\n      dup2\n        /* \"#utility.yul\":11914:11926   */\n      mload\n        /* \"#utility.yul\":11904:11926   */\n      swap1\n      pop\n        /* \"#utility.yul\":11819:11933   */\n      swap2\n      swap1\n      pop\n      jump\t// out\n        /* \"#utility.yul\":11939:12123   */\n    tag_437:\n        /* \"#utility.yul\":12038:12049   */\n      0x00\n        /* \"#utility.yul\":12072:12078   */\n      dup3\n        /* \"#utility.yul\":12067:12070   */\n      dup3\n        /* \"#utility.yul\":12060:12079   */\n      mstore\n        /* \"#utility.yul\":12112:12116   */\n      0x20\n        /* \"#utility.yul\":12107:12110   */\n      dup3\n        /* \"#utility.yul\":12103:12117   */\n      add\n        /* \"#utility.yul\":12088:12117   */\n      swap1\n      pop\n        /* \"#utility.yul\":11939:12123   */\n      swap3\n      swap2\n      pop\n      pop\n      jump\t// out\n        /* \"#utility.yul\":12129:12261   */\n    tag_438:\n        /* \"#utility.yul\":12196:12200   */\n      0x00\n        /* \"#utility.yul\":12219:12222   */\n      dup2\n        /* \"#utility.yul\":12211:12222   */\n      swap1\n      pop\n        /* \"#utility.yul\":12249:12253   */\n      0x20\n        /* \"#utility.yul\":12244:12247   */\n      dup3\n        /* \"#utility.yul\":12240:12254   */\n      add\n        /* \"#utility.yul\":12232:12254   */\n      swap1\n      pop\n        /* \"#utility.yul\":12129:12261   */\n      swap2\n      swap1\n      pop\n      jump\t// out\n        /* \"#utility.yul\":12267:12446   */\n    tag_439:\n        /* \"#utility.yul\":12336:12346   */\n      0x00\n        /* \"#utility.yul\":12357:12403   */\n      tag_628\n        /* \"#utility.yul\":12399:12402   */\n      dup4\n        /* \"#utility.yul\":12391:12397   */\n      dup4\n        /* \"#utility.yul\":12357:12403   */\n      tag_434\n      jump\t// in\n    tag_628:\n        /* \"#utility.yul\":12435:12439   */\n      0x20\n        /* \"#utility.yul\":12430:12433   */\n      dup4\n        /* \"#utility.yul\":12426:12440   */\n      add\n        /* \"#utility.yul\":12412:12440   */\n      swap1\n      pop\n        /* \"#utility.yul\":12267:12446   */\n      swap3\n      swap2\n      pop\n      pop\n      jump\t// out\n        /* \"#utility.yul\":12452:12565   */\n    tag_440:\n        /* \"#utility.yul\":12522:12526   */\n      0x00\n        /* \"#utility.yul\":12554:12558   */\n      0x20\n        /* \"#utility.yul\":12549:12552   */\n      dup3\n        /* \"#utility.yul\":12545:12559   */\n      add\n        /* \"#utility.yul\":12537:12559   */\n      swap1\n      pop\n        /* \"#utility.yul\":12452:12565   */\n      swap2\n      swap1\n      pop\n      jump\t// out\n        /* \"#utility.yul\":12601:13333   */\n    tag_441:\n        /* \"#utility.yul\":12720:12723   */\n      0x00\n        /* \"#utility.yul\":12749:12803   */\n      tag_631\n        /* \"#utility.yul\":12797:12802   */\n      dup3\n        /* \"#utility.yul\":12749:12803   */\n      tag_436\n      jump\t// in\n    tag_631:\n        /* \"#utility.yul\":12819:12905   */\n      tag_632\n        /* \"#utility.yul\":12898:12904   */\n      dup2\n        /* \"#utility.yul\":12893:12896   */\n      dup6\n        /* \"#utility.yul\":12819:12905   */\n      tag_437\n      jump\t// in\n    tag_632:\n        /* \"#utility.yul\":12812:12905   */\n      swap4\n      pop\n        /* \"#utility.yul\":12929:12985   */\n      tag_633\n        /* \"#utility.yul\":12979:12984   */\n      dup4\n        /* \"#utility.yul\":12929:12985   */\n      tag_438\n      jump\t// in\n    tag_633:\n        /* \"#utility.yul\":13008:13015   */\n      dup1\n        /* \"#utility.yul\":13039:13040   */\n      0x00\n        /* \"#utility.yul\":13024:13308   */\n    tag_634:\n        /* \"#utility.yul\":13049:13055   */\n      dup4\n        /* \"#utility.yul\":13046:13047   */\n      dup2\n        /* \"#utility.yul\":13043:13056   */\n      lt\n        /* \"#utility.yul\":13024:13308   */\n      iszero\n      tag_636\n      jumpi\n        /* \"#utility.yul\":13125:13131   */\n      dup2\n        /* \"#utility.yul\":13119:13132   */\n      mload\n        /* \"#utility.yul\":13152:13215   */\n      tag_637\n        /* \"#utility.yul\":13211:13214   */\n      dup9\n        /* \"#utility.yul\":13196:13209   */\n      dup3\n        /* \"#utility.yul\":13152:13215   */\n      tag_439\n      jump\t// in\n    tag_637:\n        /* \"#utility.yul\":13145:13215   */\n      swap8\n      pop\n        /* \"#utility.yul\":13238:13298   */\n      tag_638\n        /* \"#utility.yul\":13291:13297   */\n      dup4\n        /* \"#utility.yul\":13238:13298   */\n      tag_440\n      jump\t// in\n    tag_638:\n        /* \"#utility.yul\":13228:13298   */\n      swap3\n      pop\n        /* \"#utility.yul\":13084:13308   */\n      pop\n        /* \"#utility.yul\":13071:13072   */\n      0x01\n        /* \"#utility.yul\":13068:13069   */\n      dup2\n        /* \"#utility.yul\":13064:13073   */\n      add\n        /* \"#utility.yul\":13059:13073   */\n      swap1\n      pop\n        /* \"#utility.yul\":13024:13308   */\n      jump(tag_634)\n    tag_636:\n        /* \"#utility.yul\":13028:13042   */\n      pop\n        /* \"#utility.yul\":13324:13327   */\n      dup6\n        /* \"#utility.yul\":13317:13327   */\n      swap4\n      pop\n        /* \"#utility.yul\":12725:13333   */\n      pop\n      pop\n      pop\n        /* \"#utility.yul\":12601:13333   */\n      swap3\n      swap2\n      pop\n      pop\n      jump\t// out\n        /* \"#utility.yul\":13339:13712   */\n    tag_74:\n        /* \"#utility.yul\":13482:13486   */\n      0x00\n        /* \"#utility.yul\":13520:13522   */\n      0x20\n        /* \"#utility.yul\":13509:13518   */\n      dup3\n        /* \"#utility.yul\":13505:13523   */\n      add\n        /* \"#utility.yul\":13497:13523   */\n      swap1\n      pop\n        /* \"#utility.yul\":13569:13578   */\n      dup2\n        /* \"#utility.yul\":13563:13567   */\n      dup2\n        /* \"#utility.yul\":13559:13579   */\n      sub\n        /* \"#utility.yul\":13555:13556   */\n      0x00\n        /* \"#utility.yul\":13544:13553   */\n      dup4\n        /* \"#utility.yul\":13540:13557   */\n      add\n        /* \"#utility.yul\":13533:13580   */\n      mstore\n        /* \"#utility.yul\":13597:13705   */\n      tag_640\n        /* \"#utility.yul\":13700:13704   */\n      dup2\n        /* \"#utility.yul\":13691:13697   */\n      dup5\n        /* \"#utility.yul\":13597:13705   */\n      tag_441\n      jump\t// in\n    tag_640:\n        /* \"#utility.yul\":13589:13705   */\n      swap1\n      pop\n        /* \"#utility.yul\":13339:13712   */\n      swap3\n      swap2\n      pop\n      pop\n      jump\t// out\n        /* \"#utility.yul\":13718:13834   */\n    tag_442:\n        /* \"#utility.yul\":13808:13809   */\n      0x03\n        /* \"#utility.yul\":13801:13806   */\n      dup2\n        /* \"#utility.yul\":13798:13810   */\n      lt\n        /* \"#utility.yul\":13788:13828   */\n      tag_642\n      jumpi\n        /* \"#utility.yul\":13824:13825   */\n      0x00\n        /* \"#utility.yul\":13821:13822   */\n      dup1\n        /* \"#utility.yul\":13814:13826   */\n      revert\n        /* \"#utility.yul\":13788:13828   */\n    tag_642:\n        /* \"#utility.yul\":13718:13834   */\n      pop\n      jump\t// out\n        /* \"#utility.yul\":13840:14013   */\n    tag_443:\n        /* \"#utility.yul\":13903:13908   */\n      0x00\n        /* \"#utility.yul\":13941:13947   */\n      dup2\n        /* \"#utility.yul\":13928:13948   */\n      calldataload\n        /* \"#utility.yul\":13919:13948   */\n      swap1\n      pop\n        /* \"#utility.yul\":13957:14007   */\n      tag_644\n        /* \"#utility.yul\":14001:14006   */\n      dup2\n        /* \"#utility.yul\":13957:14007   */\n      tag_442\n      jump\t// in\n    tag_644:\n        /* \"#utility.yul\":13840:14013   */\n      swap3\n      swap2\n      pop\n      pop\n      jump\t// out\n        /* \"#utility.yul\":14019:15358   */\n    tag_77:\n        /* \"#utility.yul\":14152:14158   */\n      0x00\n        /* \"#utility.yul\":14160:14166   */\n      dup1\n        /* \"#utility.yul\":14168:14174   */\n      0x00\n        /* \"#utility.yul\":14176:14182   */\n      dup1\n        /* \"#utility.yul\":14225:14228   */\n      0x80\n        /* \"#utility.yul\":14213:14222   */\n      dup6\n        /* \"#utility.yul\":14204:14211   */\n      dup8\n        /* \"#utility.yul\":14200:14223   */\n      sub\n        /* \"#utility.yul\":14196:14229   */\n      slt\n        /* \"#utility.yul\":14193:14313   */\n      iszero\n      tag_646\n      jumpi\n        /* \"#utility.yul\":14232:14311   */\n      tag_647\n      tag_405\n      jump\t// in\n    tag_647:\n        /* \"#utility.yul\":14193:14313   */\n    tag_646:\n        /* \"#utility.yul\":14380:14381   */\n      0x00\n        /* \"#utility.yul\":14369:14378   */\n      dup6\n        /* \"#utility.yul\":14365:14382   */\n      add\n        /* \"#utility.yul\":14352:14383   */\n      calldataload\n        /* \"#utility.yul\":14410:14428   */\n      0xffffffffffffffff\n        /* \"#utility.yul\":14402:14408   */\n      dup2\n        /* \"#utility.yul\":14399:14429   */\n      gt\n        /* \"#utility.yul\":14396:14513   */\n      iszero\n      tag_648\n      jumpi\n        /* \"#utility.yul\":14432:14511   */\n      tag_649\n      tag_406\n      jump\t// in\n    tag_649:\n        /* \"#utility.yul\":14396:14513   */\n    tag_648:\n        /* \"#utility.yul\":14537:14600   */\n      tag_650\n        /* \"#utility.yul\":14592:14599   */\n      dup8\n        /* \"#utility.yul\":14583:14589   */\n      dup3\n        /* \"#utility.yul\":14572:14581   */\n      dup9\n        /* \"#utility.yul\":14568:14590   */\n      add\n        /* \"#utility.yul\":14537:14600   */\n      tag_418\n      jump\t// in\n    tag_650:\n        /* \"#utility.yul\":14527:14600   */\n      swap5\n      pop\n        /* \"#utility.yul\":14323:14610   */\n      pop\n        /* \"#utility.yul\":14677:14679   */\n      0x20\n        /* \"#utility.yul\":14666:14675   */\n      dup6\n        /* \"#utility.yul\":14662:14680   */\n      add\n        /* \"#utility.yul\":14649:14681   */\n      calldataload\n        /* \"#utility.yul\":14708:14726   */\n      0xffffffffffffffff\n        /* \"#utility.yul\":14700:14706   */\n      dup2\n        /* \"#utility.yul\":14697:14727   */\n      gt\n        /* \"#utility.yul\":14694:14811   */\n      iszero\n      tag_651\n      jumpi\n        /* \"#utility.yul\":14730:14809   */\n      tag_652\n      tag_406\n      jump\t// in\n    tag_652:\n        /* \"#utility.yul\":14694:14811   */\n    tag_651:\n        /* \"#utility.yul\":14835:14898   */\n      tag_653\n        /* \"#utility.yul\":14890:14897   */\n      dup8\n        /* \"#utility.yul\":14881:14887   */\n      dup3\n        /* \"#utility.yul\":14870:14879   */\n      dup9\n        /* \"#utility.yul\":14866:14888   */\n      add\n        /* \"#utility.yul\":14835:14898   */\n      tag_418\n      jump\t// in\n    tag_653:\n        /* \"#utility.yul\":14825:14898   */\n      swap4\n      pop\n        /* \"#utility.yul\":14620:14908   */\n      pop\n        /* \"#utility.yul\":14975:14977   */\n      0x40\n        /* \"#utility.yul\":14964:14973   */\n      dup6\n        /* \"#utility.yul\":14960:14978   */\n      add\n        /* \"#utility.yul\":14947:14979   */\n      calldataload\n        /* \"#utility.yul\":15006:15024   */\n      0xffffffffffffffff\n        /* \"#utility.yul\":14998:15004   */\n      dup2\n        /* \"#utility.yul\":14995:15025   */\n      gt\n        /* \"#utility.yul\":14992:15109   */\n      iszero\n      tag_654\n      jumpi\n        /* \"#utility.yul\":15028:15107   */\n      tag_655\n      tag_406\n      jump\t// in\n    tag_655:\n        /* \"#utility.yul\":14992:15109   */\n    tag_654:\n        /* \"#utility.yul\":15133:15196   */\n      tag_656\n        /* \"#utility.yul\":15188:15195   */\n      dup8\n        /* \"#utility.yul\":15179:15185   */\n      dup3\n        /* \"#utility.yul\":15168:15177   */\n      dup9\n        /* \"#utility.yul\":15164:15186   */\n      add\n        /* \"#utility.yul\":15133:15196   */\n      tag_418\n      jump\t// in\n    tag_656:\n        /* \"#utility.yul\":15123:15196   */\n      swap3\n      pop\n        /* \"#utility.yul\":14918:15206   */\n      pop\n        /* \"#utility.yul\":15245:15247   */\n      0x60\n        /* \"#utility.yul\":15271:15341   */\n      tag_657\n        /* \"#utility.yul\":15333:15340   */\n      dup8\n        /* \"#utility.yul\":15324:15330   */\n      dup3\n        /* \"#utility.yul\":15313:15322   */\n      dup9\n        /* \"#utility.yul\":15309:15331   */\n      add\n        /* \"#utility.yul\":15271:15341   */\n      tag_443\n      jump\t// in\n    tag_657:\n        /* \"#utility.yul\":15261:15341   */\n      swap2\n      pop\n        /* \"#utility.yul\":15216:15351   */\n      pop\n        /* \"#utility.yul\":14019:15358   */\n      swap3\n      swap6\n      swap2\n      swap5\n      pop\n      swap3\n      pop\n      jump\t// out\n        /* \"#utility.yul\":15364:15586   */\n    tag_91:\n        /* \"#utility.yul\":15457:15461   */\n      0x00\n        /* \"#utility.yul\":15495:15497   */\n      0x20\n        /* \"#utility.yul\":15484:15493   */\n      dup3\n        /* \"#utility.yul\":15480:15498   */\n      add\n        /* \"#utility.yul\":15472:15498   */\n      swap1\n      pop\n        /* \"#utility.yul\":15508:15579   */\n      tag_659\n        /* \"#utility.yul\":15576:15577   */\n      0x00\n        /* \"#utility.yul\":15565:15574   */\n      dup4\n        /* \"#utility.yul\":15561:15578   */\n      add\n        /* \"#utility.yul\":15552:15558   */\n      dup5\n        /* \"#utility.yul\":15508:15579   */\n      tag_421\n      jump\t// in\n    tag_659:\n        /* \"#utility.yul\":15364:15586   */\n      swap3\n      swap2\n      pop\n      pop\n      jump\t// out\n        /* \"#utility.yul\":15592:15691   */\n    tag_444:\n        /* \"#utility.yul\":15663:15684   */\n      tag_661\n        /* \"#utility.yul\":15678:15683   */\n      dup2\n        /* \"#utility.yul\":15663:15684   */\n      tag_429\n      jump\t// in\n    tag_661:\n        /* \"#utility.yul\":15658:15661   */\n      dup3\n        /* \"#utility.yul\":15651:15685   */\n      mstore\n        /* \"#utility.yul\":15592:15691   */\n      pop\n      pop\n      jump\t// out\n        /* \"#utility.yul\":15757:17952   */\n    tag_445:\n        /* \"#utility.yul\":15874:15877   */\n      0x00\n        /* \"#utility.yul\":15910:15916   */\n      0x0140\n        /* \"#utility.yul\":15905:15908   */\n      dup4\n        /* \"#utility.yul\":15901:15917   */\n      add\n        /* \"#utility.yul\":15997:16001   */\n      0x00\n        /* \"#utility.yul\":15990:15995   */\n      dup4\n        /* \"#utility.yul\":15986:16002   */\n      add\n        /* \"#utility.yul\":15980:16003   */\n      mload\n        /* \"#utility.yul\":16016:16079   */\n      tag_663\n        /* \"#utility.yul\":16073:16077   */\n      0x00\n        /* \"#utility.yul\":16068:16071   */\n      dup7\n        /* \"#utility.yul\":16064:16078   */\n      add\n        /* \"#utility.yul\":16050:16062   */\n      dup3\n        /* \"#utility.yul\":16016:16079   */\n      tag_434\n      jump\t// in\n    tag_663:\n        /* \"#utility.yul\":15927:16089   */\n      pop\n        /* \"#utility.yul\":16172:16176   */\n      0x20\n        /* \"#utility.yul\":16165:16170   */\n      dup4\n        /* \"#utility.yul\":16161:16177   */\n      add\n        /* \"#utility.yul\":16155:16178   */\n      mload\n        /* \"#utility.yul\":16191:16254   */\n      tag_664\n        /* \"#utility.yul\":16248:16252   */\n      0x20\n        /* \"#utility.yul\":16243:16246   */\n      dup7\n        /* \"#utility.yul\":16239:16253   */\n      add\n        /* \"#utility.yul\":16225:16237   */\n      dup3\n        /* \"#utility.yul\":16191:16254   */\n      tag_431\n      jump\t// in\n    tag_664:\n        /* \"#utility.yul\":16099:16264   */\n      pop\n        /* \"#utility.yul\":16354:16358   */\n      0x40\n        /* \"#utility.yul\":16347:16352   */\n      dup4\n        /* \"#utility.yul\":16343:16359   */\n      add\n        /* \"#utility.yul\":16337:16360   */\n      mload\n        /* \"#utility.yul\":16407:16410   */\n      dup5\n        /* \"#utility.yul\":16401:16405   */\n      dup3\n        /* \"#utility.yul\":16397:16411   */\n      sub\n        /* \"#utility.yul\":16390:16394   */\n      0x40\n        /* \"#utility.yul\":16385:16388   */\n      dup7\n        /* \"#utility.yul\":16381:16395   */\n      add\n        /* \"#utility.yul\":16374:16412   */\n      mstore\n        /* \"#utility.yul\":16433:16506   */\n      tag_665\n        /* \"#utility.yul\":16501:16505   */\n      dup3\n        /* \"#utility.yul\":16487:16499   */\n      dup3\n        /* \"#utility.yul\":16433:16506   */\n      tag_433\n      jump\t// in\n    tag_665:\n        /* \"#utility.yul\":16425:16506   */\n      swap2\n      pop\n        /* \"#utility.yul\":16274:16517   */\n      pop\n        /* \"#utility.yul\":16610:16614   */\n      0x60\n        /* \"#utility.yul\":16603:16608   */\n      dup4\n        /* \"#utility.yul\":16599:16615   */\n      add\n        /* \"#utility.yul\":16593:16616   */\n      mload\n        /* \"#utility.yul\":16663:16666   */\n      dup5\n        /* \"#utility.yul\":16657:16661   */\n      dup3\n        /* \"#utility.yul\":16653:16667   */\n      sub\n        /* \"#utility.yul\":16646:16650   */\n      0x60\n        /* \"#utility.yul\":16641:16644   */\n      dup7\n        /* \"#utility.yul\":16637:16651   */\n      add\n        /* \"#utility.yul\":16630:16668   */\n      mstore\n        /* \"#utility.yul\":16689:16762   */\n      tag_666\n        /* \"#utility.yul\":16757:16761   */\n      dup3\n        /* \"#utility.yul\":16743:16755   */\n      dup3\n        /* \"#utility.yul\":16689:16762   */\n      tag_433\n      jump\t// in\n    tag_666:\n        /* \"#utility.yul\":16681:16762   */\n      swap2\n      pop\n        /* \"#utility.yul\":16527:16773   */\n      pop\n        /* \"#utility.yul\":16859:16863   */\n      0x80\n        /* \"#utility.yul\":16852:16857   */\n      dup4\n        /* \"#utility.yul\":16848:16864   */\n      add\n        /* \"#utility.yul\":16842:16865   */\n      mload\n        /* \"#utility.yul\":16912:16915   */\n      dup5\n        /* \"#utility.yul\":16906:16910   */\n      dup3\n        /* \"#utility.yul\":16902:16916   */\n      sub\n        /* \"#utility.yul\":16895:16899   */\n      0x80\n        /* \"#utility.yul\":16890:16893   */\n      dup7\n        /* \"#utility.yul\":16886:16900   */\n      add\n        /* \"#utility.yul\":16879:16917   */\n      mstore\n        /* \"#utility.yul\":16938:17011   */\n      tag_667\n        /* \"#utility.yul\":17006:17010   */\n      dup3\n        /* \"#utility.yul\":16992:17004   */\n      dup3\n        /* \"#utility.yul\":16938:17011   */\n      tag_433\n      jump\t// in\n    tag_667:\n        /* \"#utility.yul\":16930:17011   */\n      swap2\n      pop\n        /* \"#utility.yul\":16783:17022   */\n      pop\n        /* \"#utility.yul\":17112:17116   */\n      0xa0\n        /* \"#utility.yul\":17105:17110   */\n      dup4\n        /* \"#utility.yul\":17101:17117   */\n      add\n        /* \"#utility.yul\":17095:17118   */\n      mload\n        /* \"#utility.yul\":17131:17194   */\n      tag_668\n        /* \"#utility.yul\":17188:17192   */\n      0xa0\n        /* \"#utility.yul\":17183:17186   */\n      dup7\n        /* \"#utility.yul\":17179:17193   */\n      add\n        /* \"#utility.yul\":17165:17177   */\n      dup3\n        /* \"#utility.yul\":17131:17194   */\n      tag_434\n      jump\t// in\n    tag_668:\n        /* \"#utility.yul\":17032:17204   */\n      pop\n        /* \"#utility.yul\":17291:17295   */\n      0xc0\n        /* \"#utility.yul\":17284:17289   */\n      dup4\n        /* \"#utility.yul\":17280:17296   */\n      add\n        /* \"#utility.yul\":17274:17297   */\n      mload\n        /* \"#utility.yul\":17310:17373   */\n      tag_669\n        /* \"#utility.yul\":17367:17371   */\n      0xc0\n        /* \"#utility.yul\":17362:17365   */\n      dup7\n        /* \"#utility.yul\":17358:17372   */\n      add\n        /* \"#utility.yul\":17344:17356   */\n      dup3\n        /* \"#utility.yul\":17310:17373   */\n      tag_434\n      jump\t// in\n    tag_669:\n        /* \"#utility.yul\":17214:17383   */\n      pop\n        /* \"#utility.yul\":17469:17473   */\n      0xe0\n        /* \"#utility.yul\":17462:17467   */\n      dup4\n        /* \"#utility.yul\":17458:17474   */\n      add\n        /* \"#utility.yul\":17452:17475   */\n      mload\n        /* \"#utility.yul\":17488:17551   */\n      tag_670\n        /* \"#utility.yul\":17545:17549   */\n      0xe0\n        /* \"#utility.yul\":17540:17543   */\n      dup7\n        /* \"#utility.yul\":17536:17550   */\n      add\n        /* \"#utility.yul\":17522:17534   */\n      dup3\n        /* \"#utility.yul\":17488:17551   */\n      tag_434\n      jump\t// in\n    tag_670:\n        /* \"#utility.yul\":17393:17561   */\n      pop\n        /* \"#utility.yul\":17647:17653   */\n      0x0100\n        /* \"#utility.yul\":17640:17645   */\n      dup4\n        /* \"#utility.yul\":17636:17654   */\n      add\n        /* \"#utility.yul\":17630:17655   */\n      mload\n        /* \"#utility.yul\":17668:17727   */\n      tag_671\n        /* \"#utility.yul\":17719:17725   */\n      0x0100\n        /* \"#utility.yul\":17714:17717   */\n      dup7\n        /* \"#utility.yul\":17710:17726   */\n      add\n        /* \"#utility.yul\":17696:17708   */\n      dup3\n        /* \"#utility.yul\":17668:17727   */\n      tag_444\n      jump\t// in\n    tag_671:\n        /* \"#utility.yul\":17571:17737   */\n      pop\n        /* \"#utility.yul\":17829:17835   */\n      0x0120\n        /* \"#utility.yul\":17822:17827   */\n      dup4\n        /* \"#utility.yul\":17818:17836   */\n      add\n        /* \"#utility.yul\":17812:17837   */\n      mload\n        /* \"#utility.yul\":17850:17915   */\n      tag_672\n        /* \"#utility.yul\":17907:17913   */\n      0x0120\n        /* \"#utility.yul\":17902:17905   */\n      dup7\n        /* \"#utility.yul\":17898:17914   */\n      add\n        /* \"#utility.yul\":17884:17896   */\n      dup3\n        /* \"#utility.yul\":17850:17915   */\n      tag_434\n      jump\t// in\n    tag_672:\n        /* \"#utility.yul\":17747:17925   */\n      pop\n        /* \"#utility.yul\":17942:17946   */\n      dup1\n        /* \"#utility.yul\":17935:17946   */\n      swap2\n      pop\n        /* \"#utility.yul\":15879:17952   */\n      pop\n        /* \"#utility.yul\":15757:17952   */\n      swap3\n      swap2\n      pop\n      pop\n      jump\t// out\n        /* \"#utility.yul\":17958:18327   */\n    tag_117:\n        /* \"#utility.yul\":18099:18103   */\n      0x00\n        /* \"#utility.yul\":18137:18139   */\n      0x20\n        /* \"#utility.yul\":18126:18135   */\n      dup3\n        /* \"#utility.yul\":18122:18140   */\n      add\n        /* \"#utility.yul\":18114:18140   */\n      swap1\n      pop\n        /* \"#utility.yul\":18186:18195   */\n      dup2\n        /* \"#utility.yul\":18180:18184   */\n      dup2\n        /* \"#utility.yul\":18176:18196   */\n      sub\n        /* \"#utility.yul\":18172:18173   */\n      0x00\n        /* \"#utility.yul\":18161:18170   */\n      dup4\n        /* \"#utility.yul\":18157:18174   */\n      add\n        /* \"#utility.yul\":18150:18197   */\n      mstore\n        /* \"#utility.yul\":18214:18320   */\n      tag_674\n        /* \"#utility.yul\":18315:18319   */\n      dup2\n        /* \"#utility.yul\":18306:18312   */\n      dup5\n        /* \"#utility.yul\":18214:18320   */\n      tag_445\n      jump\t// in\n    tag_674:\n        /* \"#utility.yul\":18206:18320   */\n      swap1\n      pop\n        /* \"#utility.yul\":17958:18327   */\n      swap3\n      swap2\n      pop\n      pop\n      jump\t// out\n        /* \"#utility.yul\":18333:18471   */\n    tag_446:\n        /* \"#utility.yul\":18424:18430   */\n      0x00\n        /* \"#utility.yul\":18458:18463   */\n      dup2\n        /* \"#utility.yul\":18452:18464   */\n      mload\n        /* \"#utility.yul\":18442:18464   */\n      swap1\n      pop\n        /* \"#utility.yul\":18333:18471   */\n      swap2\n      swap1\n      pop\n      jump\t// out\n        /* \"#utility.yul\":18477:18685   */\n    tag_447:\n        /* \"#utility.yul\":18600:18611   */\n      0x00\n        /* \"#utility.yul\":18634:18640   */\n      dup3\n        /* \"#utility.yul\":18629:18632   */\n      dup3\n        /* \"#utility.yul\":18622:18641   */\n      mstore\n        /* \"#utility.yul\":18674:18678   */\n      0x20\n        /* \"#utility.yul\":18669:18672   */\n      dup3\n        /* \"#utility.yul\":18665:18679   */\n      add\n        /* \"#utility.yul\":18650:18679   */\n      swap1\n      pop\n        /* \"#utility.yul\":18477:18685   */\n      swap3\n      swap2\n      pop\n      pop\n      jump\t// out\n        /* \"#utility.yul\":18691:18847   */\n    tag_448:\n        /* \"#utility.yul\":18782:18786   */\n      0x00\n        /* \"#utility.yul\":18805:18808   */\n      dup2\n        /* \"#utility.yul\":18797:18808   */\n      swap1\n      pop\n        /* \"#utility.yul\":18835:18839   */\n      0x20\n        /* \"#utility.yul\":18830:18833   */\n      dup3\n        /* \"#utility.yul\":18826:18840   */\n      add\n        /* \"#utility.yul\":18818:18840   */\n      swap1\n      pop\n        /* \"#utility.yul\":18691:18847   */\n      swap2\n      swap1\n      pop\n      jump\t// out\n        /* \"#utility.yul\":18913:21098   */\n    tag_449:\n        /* \"#utility.yul\":19020:19023   */\n      0x00\n        /* \"#utility.yul\":19056:19062   */\n      0x0140\n        /* \"#utility.yul\":19051:19054   */\n      dup4\n        /* \"#utility.yul\":19047:19063   */\n      add\n        /* \"#utility.yul\":19143:19147   */\n      0x00\n        /* \"#utility.yul\":19136:19141   */\n      dup4\n        /* \"#utility.yul\":19132:19148   */\n      add\n        /* \"#utility.yul\":19126:19149   */\n      mload\n        /* \"#utility.yul\":19162:19225   */\n      tag_679\n        /* \"#utility.yul\":19219:19223   */\n      0x00\n        /* \"#utility.yul\":19214:19217   */\n      dup7\n        /* \"#utility.yul\":19210:19224   */\n      add\n        /* \"#utility.yul\":19196:19208   */\n      dup3\n        /* \"#utility.yul\":19162:19225   */\n      tag_434\n      jump\t// in\n    tag_679:\n        /* \"#utility.yul\":19073:19235   */\n      pop\n        /* \"#utility.yul\":19318:19322   */\n      0x20\n        /* \"#utility.yul\":19311:19316   */\n      dup4\n        /* \"#utility.yul\":19307:19323   */\n      add\n        /* \"#utility.yul\":19301:19324   */\n      mload\n        /* \"#utility.yul\":19337:19400   */\n      tag_680\n        /* \"#utility.yul\":19394:19398   */\n      0x20\n        /* \"#utility.yul\":19389:19392   */\n      dup7\n        /* \"#utility.yul\":19385:19399   */\n      add\n        /* \"#utility.yul\":19371:19383   */\n      dup3\n        /* \"#utility.yul\":19337:19400   */\n      tag_431\n      jump\t// in\n    tag_680:\n        /* \"#utility.yul\":19245:19410   */\n      pop\n        /* \"#utility.yul\":19500:19504   */\n      0x40\n        /* \"#utility.yul\":19493:19498   */\n      dup4\n        /* \"#utility.yul\":19489:19505   */\n      add\n        /* \"#utility.yul\":19483:19506   */\n      mload\n        /* \"#utility.yul\":19553:19556   */\n      dup5\n        /* \"#utility.yul\":19547:19551   */\n      dup3\n        /* \"#utility.yul\":19543:19557   */\n      sub\n        /* \"#utility.yul\":19536:19540   */\n      0x40\n        /* \"#utility.yul\":19531:19534   */\n      dup7\n        /* \"#utility.yul\":19527:19541   */\n      add\n        /* \"#utility.yul\":19520:19558   */\n      mstore\n        /* \"#utility.yul\":19579:19652   */\n      tag_681\n        /* \"#utility.yul\":19647:19651   */\n      dup3\n        /* \"#utility.yul\":19633:19645   */\n      dup3\n        /* \"#utility.yul\":19579:19652   */\n      tag_433\n      jump\t// in\n    tag_681:\n        /* \"#utility.yul\":19571:19652   */\n      swap2\n      pop\n        /* \"#utility.yul\":19420:19663   */\n      pop\n        /* \"#utility.yul\":19756:19760   */\n      0x60\n        /* \"#utility.yul\":19749:19754   */\n      dup4\n        /* \"#utility.yul\":19745:19761   */\n      add\n        /* \"#utility.yul\":19739:19762   */\n      mload\n        /* \"#utility.yul\":19809:19812   */\n      dup5\n        /* \"#utility.yul\":19803:19807   */\n      dup3\n        /* \"#utility.yul\":19799:19813   */\n      sub\n        /* \"#utility.yul\":19792:19796   */\n      0x60\n        /* \"#utility.yul\":19787:19790   */\n      dup7\n        /* \"#utility.yul\":19783:19797   */\n      add\n        /* \"#utility.yul\":19776:19814   */\n      mstore\n        /* \"#utility.yul\":19835:19908   */\n      tag_682\n        /* \"#utility.yul\":19903:19907   */\n      dup3\n        /* \"#utility.yul\":19889:19901   */\n      dup3\n        /* \"#utility.yul\":19835:19908   */\n      tag_433\n      jump\t// in\n    tag_682:\n        /* \"#utility.yul\":19827:19908   */\n      swap2\n      pop\n        /* \"#utility.yul\":19673:19919   */\n      pop\n        /* \"#utility.yul\":20005:20009   */\n      0x80\n        /* \"#utility.yul\":19998:20003   */\n      dup4\n        /* \"#utility.yul\":19994:20010   */\n      add\n        /* \"#utility.yul\":19988:20011   */\n      mload\n        /* \"#utility.yul\":20058:20061   */\n      dup5\n        /* \"#utility.yul\":20052:20056   */\n      dup3\n        /* \"#utility.yul\":20048:20062   */\n      sub\n        /* \"#utility.yul\":20041:20045   */\n      0x80\n        /* \"#utility.yul\":20036:20039   */\n      dup7\n        /* \"#utility.yul\":20032:20046   */\n      add\n        /* \"#utility.yul\":20025:20063   */\n      mstore\n        /* \"#utility.yul\":20084:20157   */\n      tag_683\n        /* \"#utility.yul\":20152:20156   */\n      dup3\n        /* \"#utility.yul\":20138:20150   */\n      dup3\n        /* \"#utility.yul\":20084:20157   */\n      tag_433\n      jump\t// in\n    tag_683:\n        /* \"#utility.yul\":20076:20157   */\n      swap2\n      pop\n        /* \"#utility.yul\":19929:20168   */\n      pop\n        /* \"#utility.yul\":20258:20262   */\n      0xa0\n        /* \"#utility.yul\":20251:20256   */\n      dup4\n        /* \"#utility.yul\":20247:20263   */\n      add\n        /* \"#utility.yul\":20241:20264   */\n      mload\n        /* \"#utility.yul\":20277:20340   */\n      tag_684\n        /* \"#utility.yul\":20334:20338   */\n      0xa0\n        /* \"#utility.yul\":20329:20332   */\n      dup7\n        /* \"#utility.yul\":20325:20339   */\n      add\n        /* \"#utility.yul\":20311:20323   */\n      dup3\n        /* \"#utility.yul\":20277:20340   */\n      tag_434\n      jump\t// in\n    tag_684:\n        /* \"#utility.yul\":20178:20350   */\n      pop\n        /* \"#utility.yul\":20437:20441   */\n      0xc0\n        /* \"#utility.yul\":20430:20435   */\n      dup4\n        /* \"#utility.yul\":20426:20442   */\n      add\n        /* \"#utility.yul\":20420:20443   */\n      mload\n        /* \"#utility.yul\":20456:20519   */\n      tag_685\n        /* \"#utility.yul\":20513:20517   */\n      0xc0\n        /* \"#utility.yul\":20508:20511   */\n      dup7\n        /* \"#utility.yul\":20504:20518   */\n      add\n        /* \"#utility.yul\":20490:20502   */\n      dup3\n        /* \"#utility.yul\":20456:20519   */\n      tag_434\n      jump\t// in\n    tag_685:\n        /* \"#utility.yul\":20360:20529   */\n      pop\n        /* \"#utility.yul\":20615:20619   */\n      0xe0\n        /* \"#utility.yul\":20608:20613   */\n      dup4\n        /* \"#utility.yul\":20604:20620   */\n      add\n        /* \"#utility.yul\":20598:20621   */\n      mload\n        /* \"#utility.yul\":20634:20697   */\n      tag_686\n        /* \"#utility.yul\":20691:20695   */\n      0xe0\n        /* \"#utility.yul\":20686:20689   */\n      dup7\n        /* \"#utility.yul\":20682:20696   */\n      add\n        /* \"#utility.yul\":20668:20680   */\n      dup3\n        /* \"#utility.yul\":20634:20697   */\n      tag_434\n      jump\t// in\n    tag_686:\n        /* \"#utility.yul\":20539:20707   */\n      pop\n        /* \"#utility.yul\":20793:20799   */\n      0x0100\n        /* \"#utility.yul\":20786:20791   */\n      dup4\n        /* \"#utility.yul\":20782:20800   */\n      add\n        /* \"#utility.yul\":20776:20801   */\n      mload\n        /* \"#utility.yul\":20814:20873   */\n      tag_687\n        /* \"#utility.yul\":20865:20871   */\n      0x0100\n        /* \"#utility.yul\":20860:20863   */\n      dup7\n        /* \"#utility.yul\":20856:20872   */\n      add\n        /* \"#utility.yul\":20842:20854   */\n      dup3\n        /* \"#utility.yul\":20814:20873   */\n      tag_444\n      jump\t// in\n    tag_687:\n        /* \"#utility.yul\":20717:20883   */\n      pop\n        /* \"#utility.yul\":20975:20981   */\n      0x0120\n        /* \"#utility.yul\":20968:20973   */\n      dup4\n        /* \"#utility.yul\":20964:20982   */\n      add\n        /* \"#utility.yul\":20958:20983   */\n      mload\n        /* \"#utility.yul\":20996:21061   */\n      tag_688\n        /* \"#utility.yul\":21053:21059   */\n      0x0120\n        /* \"#utility.yul\":21048:21051   */\n      dup7\n        /* \"#utility.yul\":21044:21060   */\n      add\n        /* \"#utility.yul\":21030:21042   */\n      dup3\n        /* \"#utility.yul\":20996:21061   */\n      tag_434\n      jump\t// in\n    tag_688:\n        /* \"#utility.yul\":20893:21071   */\n      pop\n        /* \"#utility.yul\":21088:21092   */\n      dup1\n        /* \"#utility.yul\":21081:21092   */\n      swap2\n      pop\n        /* \"#utility.yul\":19025:21098   */\n      pop\n        /* \"#utility.yul\":18913:21098   */\n      swap3\n      swap2\n      pop\n      pop\n      jump\t// out\n        /* \"#utility.yul\":21104:21356   */\n    tag_450:\n        /* \"#utility.yul\":21221:21231   */\n      0x00\n        /* \"#utility.yul\":21256:21350   */\n      tag_690\n        /* \"#utility.yul\":21346:21349   */\n      dup4\n        /* \"#utility.yul\":21338:21344   */\n      dup4\n        /* \"#utility.yul\":21256:21350   */\n      tag_449\n      jump\t// in\n    tag_690:\n        /* \"#utility.yul\":21242:21350   */\n      swap1\n      pop\n        /* \"#utility.yul\":21104:21356   */\n      swap3\n      swap2\n      pop\n      pop\n      jump\t// out\n        /* \"#utility.yul\":21362:21499   */\n    tag_451:\n        /* \"#utility.yul\":21456:21460   */\n      0x00\n        /* \"#utility.yul\":21488:21492   */\n      0x20\n        /* \"#utility.yul\":21483:21486   */\n      dup3\n        /* \"#utility.yul\":21479:21493   */\n      add\n        /* \"#utility.yul\":21471:21493   */\n      swap1\n      pop\n        /* \"#utility.yul\":21362:21499   */\n      swap2\n      swap1\n      pop\n      jump\t// out\n        /* \"#utility.yul\":21569:22672   */\n    tag_452:\n        /* \"#utility.yul\":21736:21739   */\n      0x00\n        /* \"#utility.yul\":21765:21843   */\n      tag_693\n        /* \"#utility.yul\":21837:21842   */\n      dup3\n        /* \"#utility.yul\":21765:21843   */\n      tag_446\n      jump\t// in\n    tag_693:\n        /* \"#utility.yul\":21859:21969   */\n      tag_694\n        /* \"#utility.yul\":21962:21968   */\n      dup2\n        /* \"#utility.yul\":21957:21960   */\n      dup6\n        /* \"#utility.yul\":21859:21969   */\n      tag_447\n      jump\t// in\n    tag_694:\n        /* \"#utility.yul\":21852:21969   */\n      swap4\n      pop\n        /* \"#utility.yul\":21995:21998   */\n      dup4\n        /* \"#utility.yul\":22040:22044   */\n      0x20\n        /* \"#utility.yul\":22032:22038   */\n      dup3\n        /* \"#utility.yul\":22028:22045   */\n      mul\n        /* \"#utility.yul\":22023:22026   */\n      dup6\n        /* \"#utility.yul\":22019:22046   */\n      add\n        /* \"#utility.yul\":22070:22150   */\n      tag_695\n        /* \"#utility.yul\":22144:22149   */\n      dup6\n        /* \"#utility.yul\":22070:22150   */\n      tag_448\n      jump\t// in\n    tag_695:\n        /* \"#utility.yul\":22173:22180   */\n      dup1\n        /* \"#utility.yul\":22204:22205   */\n      0x00\n        /* \"#utility.yul\":22189:22627   */\n    tag_696:\n        /* \"#utility.yul\":22214:22220   */\n      dup6\n        /* \"#utility.yul\":22211:22212   */\n      dup2\n        /* \"#utility.yul\":22208:22221   */\n      lt\n        /* \"#utility.yul\":22189:22627   */\n      iszero\n      tag_698\n      jumpi\n        /* \"#utility.yul\":22285:22294   */\n      dup5\n        /* \"#utility.yul\":22279:22283   */\n      dup5\n        /* \"#utility.yul\":22275:22295   */\n      sub\n        /* \"#utility.yul\":22270:22273   */\n      dup10\n        /* \"#utility.yul\":22263:22296   */\n      mstore\n        /* \"#utility.yul\":22336:22342   */\n      dup2\n        /* \"#utility.yul\":22330:22343   */\n      mload\n        /* \"#utility.yul\":22364:22476   */\n      tag_699\n        /* \"#utility.yul\":22471:22475   */\n      dup6\n        /* \"#utility.yul\":22456:22469   */\n      dup3\n        /* \"#utility.yul\":22364:22476   */\n      tag_450\n      jump\t// in\n    tag_699:\n        /* \"#utility.yul\":22356:22476   */\n      swap5\n      pop\n        /* \"#utility.yul\":22499:22583   */\n      tag_700\n        /* \"#utility.yul\":22576:22582   */\n      dup4\n        /* \"#utility.yul\":22499:22583   */\n      tag_451\n      jump\t// in\n    tag_700:\n        /* \"#utility.yul\":22489:22583   */\n      swap3\n      pop\n        /* \"#utility.yul\":22612:22616   */\n      0x20\n        /* \"#utility.yul\":22607:22610   */\n      dup11\n        /* \"#utility.yul\":22603:22617   */\n      add\n        /* \"#utility.yul\":22596:22617   */\n      swap10\n      pop\n        /* \"#utility.yul\":22249:22627   */\n      pop\n        /* \"#utility.yul\":22236:22237   */\n      0x01\n        /* \"#utility.yul\":22233:22234   */\n      dup2\n        /* \"#utility.yul\":22229:22238   */\n      add\n        /* \"#utility.yul\":22224:22238   */\n      swap1\n      pop\n        /* \"#utility.yul\":22189:22627   */\n      jump(tag_696)\n    tag_698:\n        /* \"#utility.yul\":22193:22207   */\n      pop\n        /* \"#utility.yul\":22643:22647   */\n      dup3\n        /* \"#utility.yul\":22636:22647   */\n      swap8\n      pop\n        /* \"#utility.yul\":22663:22666   */\n      dup8\n        /* \"#utility.yul\":22656:22666   */\n      swap6\n      pop\n        /* \"#utility.yul\":21741:22672   */\n      pop\n      pop\n      pop\n      pop\n      pop\n        /* \"#utility.yul\":21569:22672   */\n      swap3\n      swap2\n      pop\n      pop\n      jump\t// out\n        /* \"#utility.yul\":22678:23367   */\n    tag_127:\n        /* \"#utility.yul\":22925:22929   */\n      0x00\n        /* \"#utility.yul\":22963:22965   */\n      0x60\n        /* \"#utility.yul\":22952:22961   */\n      dup3\n        /* \"#utility.yul\":22948:22966   */\n      add\n        /* \"#utility.yul\":22940:22966   */\n      swap1\n      pop\n        /* \"#utility.yul\":23012:23021   */\n      dup2\n        /* \"#utility.yul\":23006:23010   */\n      dup2\n        /* \"#utility.yul\":23002:23022   */\n      sub\n        /* \"#utility.yul\":22998:22999   */\n      0x00\n        /* \"#utility.yul\":22987:22996   */\n      dup4\n        /* \"#utility.yul\":22983:23000   */\n      add\n        /* \"#utility.yul\":22976:23023   */\n      mstore\n        /* \"#utility.yul\":23040:23196   */\n      tag_702\n        /* \"#utility.yul\":23191:23195   */\n      dup2\n        /* \"#utility.yul\":23182:23188   */\n      dup7\n        /* \"#utility.yul\":23040:23196   */\n      tag_452\n      jump\t// in\n    tag_702:\n        /* \"#utility.yul\":23032:23196   */\n      swap1\n      pop\n        /* \"#utility.yul\":23206:23278   */\n      tag_703\n        /* \"#utility.yul\":23274:23276   */\n      0x20\n        /* \"#utility.yul\":23263:23272   */\n      dup4\n        /* \"#utility.yul\":23259:23277   */\n      add\n        /* \"#utility.yul\":23250:23256   */\n      dup6\n        /* \"#utility.yul\":23206:23278   */\n      tag_426\n      jump\t// in\n    tag_703:\n        /* \"#utility.yul\":23288:23360   */\n      tag_704\n        /* \"#utility.yul\":23356:23358   */\n      0x40\n        /* \"#utility.yul\":23345:23354   */\n      dup4\n        /* \"#utility.yul\":23341:23359   */\n      add\n        /* \"#utility.yul\":23332:23338   */\n      dup5\n        /* \"#utility.yul\":23288:23360   */\n      tag_426\n      jump\t// in\n    tag_704:\n        /* \"#utility.yul\":22678:23367   */\n      swap5\n      swap4\n      pop\n      pop\n      pop\n      pop\n      jump\t// out\n        /* \"#utility.yul\":23373:23546   */\n    tag_453:\n        /* \"#utility.yul\":23513:23538   */\n      0x5175657374696f6e20646f6573206e6f74206578697374000000000000000000\n        /* \"#utility.yul\":23509:23510   */\n      0x00\n        /* \"#utility.yul\":23501:23507   */\n      dup3\n        /* \"#utility.yul\":23497:23511   */\n      add\n        /* \"#utility.yul\":23490:23539   */\n      mstore\n        /* \"#utility.yul\":23373:23546   */\n      pop\n      jump\t// out\n        /* \"#utility.yul\":23552:23918   */\n    tag_454:\n        /* \"#utility.yul\":23694:23697   */\n      0x00\n        /* \"#utility.yul\":23715:23782   */\n      tag_707\n        /* \"#utility.yul\":23779:23781   */\n      0x17\n        /* \"#utility.yul\":23774:23777   */\n      dup4\n        /* \"#utility.yul\":23715:23782   */\n      tag_423\n      jump\t// in\n    tag_707:\n        /* \"#utility.yul\":23708:23782   */\n      swap2\n      pop\n        /* \"#utility.yul\":23791:23884   */\n      tag_708\n        /* \"#utility.yul\":23880:23883   */\n      dup3\n        /* \"#utility.yul\":23791:23884   */\n      tag_453\n      jump\t// in\n    tag_708:\n        /* \"#utility.yul\":23909:23911   */\n      0x20\n        /* \"#utility.yul\":23904:23907   */\n      dup3\n        /* \"#utility.yul\":23900:23912   */\n      add\n        /* \"#utility.yul\":23893:23912   */\n      swap1\n      pop\n        /* \"#utility.yul\":23552:23918   */\n      swap2\n      swap1\n      pop\n      jump\t// out\n        /* \"#utility.yul\":23924:24343   */\n    tag_131:\n        /* \"#utility.yul\":24090:24094   */\n      0x00\n        /* \"#utility.yul\":24128:24130   */\n      0x20\n        /* \"#utility.yul\":24117:24126   */\n      dup3\n        /* \"#utility.yul\":24113:24131   */\n      add\n        /* \"#utility.yul\":24105:24131   */\n      swap1\n      pop\n        /* \"#utility.yul\":24177:24186   */\n      dup2\n        /* \"#utility.yul\":24171:24175   */\n      dup2\n        /* \"#utility.yul\":24167:24187   */\n      sub\n        /* \"#utility.yul\":24163:24164   */\n      0x00\n        /* \"#utility.yul\":24152:24161   */\n      dup4\n        /* \"#utility.yul\":24148:24165   */\n      add\n        /* \"#utility.yul\":24141:24188   */\n      mstore\n        /* \"#utility.yul\":24205:24336   */\n      tag_710\n        /* \"#utility.yul\":24331:24335   */\n      dup2\n        /* \"#utility.yul\":24205:24336   */\n      tag_454\n      jump\t// in\n    tag_710:\n        /* \"#utility.yul\":24197:24336   */\n      swap1\n      pop\n        /* \"#utility.yul\":23924:24343   */\n      swap2\n      swap1\n      pop\n      jump\t// out\n        /* \"#utility.yul\":24349:24525   */\n    tag_455:\n        /* \"#utility.yul\":24489:24517   */\n      0x5175657374696f6e20697320616c726561647920636c6f736564000000000000\n        /* \"#utility.yul\":24485:24486   */\n      0x00\n        /* \"#utility.yul\":24477:24483   */\n      dup3\n        /* \"#utility.yul\":24473:24487   */\n      add\n        /* \"#utility.yul\":24466:24518   */\n      mstore\n        /* \"#utility.yul\":24349:24525   */\n      pop\n      jump\t// out\n        /* \"#utility.yul\":24531:24897   */\n    tag_456:\n        /* \"#utility.yul\":24673:24676   */\n      0x00\n        /* \"#utility.yul\":24694:24761   */\n      tag_713\n        /* \"#utility.yul\":24758:24760   */\n      0x1a\n        /* \"#utility.yul\":24753:24756   */\n      dup4\n        /* \"#utility.yul\":24694:24761   */\n      tag_423\n      jump\t// in\n    tag_713:\n        /* \"#utility.yul\":24687:24761   */\n      swap2\n      pop\n        /* \"#utility.yul\":24770:24863   */\n      tag_714\n        /* \"#utility.yul\":24859:24862   */\n      dup3\n        /* \"#utility.yul\":24770:24863   */\n      tag_455\n      jump\t// in\n    tag_714:\n        /* \"#utility.yul\":24888:24890   */\n      0x20\n        /* \"#utility.yul\":24883:24886   */\n      dup3\n        /* \"#utility.yul\":24879:24891   */\n      add\n        /* \"#utility.yul\":24872:24891   */\n      swap1\n      pop\n        /* \"#utility.yul\":24531:24897   */\n      swap2\n      swap1\n      pop\n      jump\t// out\n        /* \"#utility.yul\":24903:25322   */\n    tag_135:\n        /* \"#utility.yul\":25069:25073   */\n      0x00\n        /* \"#utility.yul\":25107:25109   */\n      0x20\n        /* \"#utility.yul\":25096:25105   */\n      dup3\n        /* \"#utility.yul\":25092:25110   */\n      add\n        /* \"#utility.yul\":25084:25110   */\n      swap1\n      pop\n        /* \"#utility.yul\":25156:25165   */\n      dup2\n        /* \"#utility.yul\":25150:25154   */\n      dup2\n        /* \"#utility.yul\":25146:25166   */\n      sub\n        /* \"#utility.yul\":25142:25143   */\n      0x00\n        /* \"#utility.yul\":25131:25140   */\n      dup4\n        /* \"#utility.yul\":25127:25144   */\n      add\n        /* \"#utility.yul\":25120:25167   */\n      mstore\n        /* \"#utility.yul\":25184:25315   */\n      tag_716\n        /* \"#utility.yul\":25310:25314   */\n      dup2\n        /* \"#utility.yul\":25184:25315   */\n      tag_456\n      jump\t// in\n    tag_716:\n        /* \"#utility.yul\":25176:25315   */\n      swap1\n      pop\n        /* \"#utility.yul\":24903:25322   */\n      swap2\n      swap1\n      pop\n      jump\t// out\n        /* \"#utility.yul\":25328:25507   */\n    tag_457:\n        /* \"#utility.yul\":25468:25499   */\n      0x4f6e6c792061736b65722063616e20636c6f7365207175657374696f6e000000\n        /* \"#utility.yul\":25464:25465   */\n      0x00\n        /* \"#utility.yul\":25456:25462   */\n      dup3\n        /* \"#utility.yul\":25452:25466   */\n      add\n        /* \"#utility.yul\":25445:25500   */\n      mstore\n        /* \"#utility.yul\":25328:25507   */\n      pop\n      jump\t// out\n        /* \"#utility.yul\":25513:25879   */\n    tag_458:\n        /* \"#utility.yul\":25655:25658   */\n      0x00\n        /* \"#utility.yul\":25676:25743   */\n      tag_719\n        /* \"#utility.yul\":25740:25742   */\n      0x1d\n        /* \"#utility.yul\":25735:25738   */\n      dup4\n        /* \"#utility.yul\":25676:25743   */\n      tag_423\n      jump\t// in\n    tag_719:\n        /* \"#utility.yul\":25669:25743   */\n      swap2\n      pop\n        /* \"#utility.yul\":25752:25845   */\n      tag_720\n        /* \"#utility.yul\":25841:25844   */\n      dup3\n        /* \"#utility.yul\":25752:25845   */\n      tag_457\n      jump\t// in\n    tag_720:\n        /* \"#utility.yul\":25870:25872   */\n      0x20\n        /* \"#utility.yul\":25865:25868   */\n      dup3\n        /* \"#utility.yul\":25861:25873   */\n      add\n        /* \"#utility.yul\":25854:25873   */\n      swap1\n      pop\n        /* \"#utility.yul\":25513:25879   */\n      swap2\n      swap1\n      pop\n      jump\t// out\n        /* \"#utility.yul\":25885:26304   */\n    tag_139:\n        /* \"#utility.yul\":26051:26055   */\n      0x00\n        /* \"#utility.yul\":26089:26091   */\n      0x20\n        /* \"#utility.yul\":26078:26087   */\n      dup3\n        /* \"#utility.yul\":26074:26092   */\n      add\n        /* \"#utility.yul\":26066:26092   */\n      swap1\n      pop\n        /* \"#utility.yul\":26138:26147   */\n      dup2\n        /* \"#utility.yul\":26132:26136   */\n      dup2\n        /* \"#utility.yul\":26128:26148   */\n      sub\n        /* \"#utility.yul\":26124:26125   */\n      0x00\n        /* \"#utility.yul\":26113:26122   */\n      dup4\n        /* \"#utility.yul\":26109:26126   */\n      add\n        /* \"#utility.yul\":26102:26149   */\n      mstore\n        /* \"#utility.yul\":26166:26297   */\n      tag_722\n        /* \"#utility.yul\":26292:26296   */\n      dup2\n        /* \"#utility.yul\":26166:26297   */\n      tag_458\n      jump\t// in\n    tag_722:\n        /* \"#utility.yul\":26158:26297   */\n      swap1\n      pop\n        /* \"#utility.yul\":25885:26304   */\n      swap2\n      swap1\n      pop\n      jump\t// out\n        /* \"#utility.yul\":26310:26642   */\n    tag_141:\n        /* \"#utility.yul\":26431:26435   */\n      0x00\n        /* \"#utility.yul\":26469:26471   */\n      0x40\n        /* \"#utility.yul\":26458:26467   */\n      dup3\n        /* \"#utility.yul\":26454:26472   */\n      add\n        /* \"#utility.yul\":26446:26472   */\n      swap1\n      pop\n        /* \"#utility.yul\":26482:26553   */\n      tag_724\n        /* \"#utility.yul\":26550:26551   */\n      0x00\n        /* \"#utility.yul\":26539:26548   */\n      dup4\n        /* \"#utility.yul\":26535:26552   */\n      add\n        /* \"#utility.yul\":26526:26532   */\n      dup6\n        /* \"#utility.yul\":26482:26553   */\n      tag_426\n      jump\t// in\n    tag_724:\n        /* \"#utility.yul\":26563:26635   */\n      tag_725\n        /* \"#utility.yul\":26631:26633   */\n      0x20\n        /* \"#utility.yul\":26620:26629   */\n      dup4\n        /* \"#utility.yul\":26616:26634   */\n      add\n        /* \"#utility.yul\":26607:26613   */\n      dup5\n        /* \"#utility.yul\":26563:26635   */\n      tag_426\n      jump\t// in\n    tag_725:\n        /* \"#utility.yul\":26310:26642   */\n      swap4\n      swap3\n      pop\n      pop\n      pop\n      jump\t// out\n        /* \"#utility.yul\":26648:26828   */\n    tag_459:\n        /* \"#utility.yul\":26696:26773   */\n      0x4e487b7100000000000000000000000000000000000000000000000000000000\n        /* \"#utility.yul\":26693:26694   */\n      0x00\n        /* \"#utility.yul\":26686:26774   */\n      mstore\n        /* \"#utility.yul\":26793:26797   */\n      0x22\n        /* \"#utility.yul\":26790:26791   */\n      0x04\n        /* \"#utility.yul\":26783:26798   */\n      mstore\n        /* \"#utility.yul\":26817:26821   */\n      0x24\n        /* \"#utility.yul\":26814:26815   */\n      0x00\n        /* \"#utility.yul\":26807:26822   */\n      revert\n        /* \"#utility.yul\":26834:27154   */\n    tag_150:\n        /* \"#utility.yul\":26878:26884   */\n      0x00\n        /* \"#utility.yul\":26915:26916   */\n      0x02\n        /* \"#utility.yul\":26909:26913   */\n      dup3\n        /* \"#utility.yul\":26905:26917   */\n      div\n        /* \"#utility.yul\":26895:26917   */\n      swap1\n      pop\n        /* \"#utility.yul\":26962:26963   */\n      0x01\n        /* \"#utility.yul\":26956:26960   */\n      dup3\n        /* \"#utility.yul\":26952:26964   */\n      and\n        /* \"#utility.yul\":26983:27001   */\n      dup1\n        /* \"#utility.yul\":26973:27054   */\n      tag_728\n      jumpi\n        /* \"#utility.yul\":27039:27043   */\n      0x7f\n        /* \"#utility.yul\":27031:27037   */\n      dup3\n        /* \"#utility.yul\":27027:27044   */\n      and\n        /* \"#utility.yul\":27017:27044   */\n      swap2\n      pop\n        /* \"#utility.yul\":26973:27054   */\n    tag_728:\n        /* \"#utility.yul\":27101:27103   */\n      0x20\n        /* \"#utility.yul\":27093:27099   */\n      dup3\n        /* \"#utility.yul\":27090:27104   */\n      lt\n        /* \"#utility.yul\":27070:27088   */\n      dup2\n        /* \"#utility.yul\":27067:27105   */\n      sub\n        /* \"#utility.yul\":27064:27148   */\n      tag_729\n      jumpi\n        /* \"#utility.yul\":27120:27138   */\n      tag_730\n      tag_459\n      jump\t// in\n    tag_730:\n        /* \"#utility.yul\":27064:27148   */\n    tag_729:\n        /* \"#utility.yul\":26885:27154   */\n      pop\n        /* \"#utility.yul\":26834:27154   */\n      swap2\n      swap1\n      pop\n      jump\t// out\n        /* \"#utility.yul\":27160:27338   */\n    tag_460:\n        /* \"#utility.yul\":27300:27330   */\n      0x5175657374696f6e20646561646c696e65206861732070617373656400000000\n        /* \"#utility.yul\":27296:27297   */\n      0x00\n        /* \"#utility.yul\":27288:27294   */\n      dup3\n        /* \"#utility.yul\":27284:27298   */\n      add\n        /* \"#utility.yul\":27277:27331   */\n      mstore\n        /* \"#utility.yul\":27160:27338   */\n      pop\n      jump\t// out\n        /* \"#utility.yul\":27344:27710   */\n    tag_461:\n        /* \"#utility.yul\":27486:27489   */\n      0x00\n        /* \"#utility.yul\":27507:27574   */\n      tag_733\n        /* \"#utility.yul\":27571:27573   */\n      0x1c\n        /* \"#utility.yul\":27566:27569   */\n      dup4\n        /* \"#utility.yul\":27507:27574   */\n      tag_423\n      jump\t// in\n    tag_733:\n        /* \"#utility.yul\":27500:27574   */\n      swap2\n      pop\n        /* \"#utility.yul\":27583:27676   */\n      tag_734\n        /* \"#utility.yul\":27672:27675   */\n      dup3\n        /* \"#utility.yul\":27583:27676   */\n      tag_460\n      jump\t// in\n    tag_734:\n        /* \"#utility.yul\":27701:27703   */\n      0x20\n        /* \"#utility.yul\":27696:27699   */\n      dup3\n        /* \"#utility.yul\":27692:27704   */\n      add\n        /* \"#utility.yul\":27685:27704   */\n      swap1\n      pop\n        /* \"#utility.yul\":27344:27710   */\n      swap2\n      swap1\n      pop\n      jump\t// out\n        /* \"#utility.yul\":27716:28135   */\n    tag_167:\n        /* \"#utility.yul\":27882:27886   */\n      0x00\n        /* \"#utility.yul\":27920:27922   */\n      0x20\n        /* \"#utility.yul\":27909:27918   */\n      dup3\n        /* \"#utility.yul\":27905:27923   */\n      add\n        /* \"#utility.yul\":27897:27923   */\n      swap1\n      pop\n        /* \"#utility.yul\":27969:27978   */\n      dup2\n        /* \"#utility.yul\":27963:27967   */\n      dup2\n        /* \"#utility.yul\":27959:27979   */\n      sub\n        /* \"#utility.yul\":27955:27956   */\n      0x00\n        /* \"#utility.yul\":27944:27953   */\n      dup4\n        /* \"#utility.yul\":27940:27957   */\n      add\n        /* \"#utility.yul\":27933:27980   */\n      mstore\n        /* \"#utility.yul\":27997:28128   */\n      tag_736\n        /* \"#utility.yul\":28123:28127   */\n      dup2\n        /* \"#utility.yul\":27997:28128   */\n      tag_461\n      jump\t// in\n    tag_736:\n        /* \"#utility.yul\":27989:28128   */\n      swap1\n      pop\n        /* \"#utility.yul\":27716:28135   */\n      swap2\n      swap1\n      pop\n      jump\t// out\n        /* \"#utility.yul\":28141:28321   */\n    tag_462:\n        /* \"#utility.yul\":28189:28266   */\n      0x4e487b7100000000000000000000000000000000000000000000000000000000\n        /* \"#utility.yul\":28186:28187   */\n      0x00\n        /* \"#utility.yul\":28179:28267   */\n      mstore\n        /* \"#utility.yul\":28286:28290   */\n      0x11\n        /* \"#utility.yul\":28283:28284   */\n      0x04\n        /* \"#utility.yul\":28276:28291   */\n      mstore\n        /* \"#utility.yul\":28310:28314   */\n      0x24\n        /* \"#utility.yul\":28307:28308   */\n      0x00\n        /* \"#utility.yul\":28300:28315   */\n      revert\n        /* \"#utility.yul\":28327:28560   */\n    tag_169:\n        /* \"#utility.yul\":28366:28369   */\n      0x00\n        /* \"#utility.yul\":28389:28413   */\n      tag_739\n        /* \"#utility.yul\":28407:28412   */\n      dup3\n        /* \"#utility.yul\":28389:28413   */\n      tag_407\n      jump\t// in\n    tag_739:\n        /* \"#utility.yul\":28380:28413   */\n      swap2\n      pop\n        /* \"#utility.yul\":28435:28501   */\n      0xffffffffffffffffffffffffffffffffffffffffffffffffffffffffffffffff\n        /* \"#utility.yul\":28428:28433   */\n      dup3\n        /* \"#utility.yul\":28425:28502   */\n      sub\n        /* \"#utility.yul\":28422:28525   */\n      tag_740\n      jumpi\n        /* \"#utility.yul\":28505:28523   */\n      tag_741\n      tag_462\n      jump\t// in\n    tag_741:\n        /* \"#utility.yul\":28422:28525   */\n    tag_740:\n        /* \"#utility.yul\":28552:28553   */\n      0x01\n        /* \"#utility.yul\":28545:28550   */\n      dup3\n        /* \"#utility.yul\":28541:28554   */\n      add\n        /* \"#utility.yul\":28534:28554   */\n      swap1\n      pop\n        /* \"#utility.yul\":28327:28560   */\n      swap2\n      swap1\n      pop\n      jump\t// out\n        /* \"#utility.yul\":28566:28707   */\n    tag_463:\n        /* \"#utility.yul\":28615:28619   */\n      0x00\n        /* \"#utility.yul\":28638:28641   */\n      dup2\n        /* \"#utility.yul\":28630:28641   */\n      swap1\n      pop\n        /* \"#utility.yul\":28661:28664   */\n      dup2\n        /* \"#utility.yul\":28658:28659   */\n      0x00\n        /* \"#utility.yul\":28651:28665   */\n      mstore\n        /* \"#utility.yul\":28695:28699   */\n      0x20\n        /* \"#utility.yul\":28692:28693   */\n      0x00\n        /* \"#utility.yul\":28682:28700   */\n      keccak256\n        /* \"#utility.yul\":28674:28700   */\n      swap1\n      pop\n        /* \"#utility.yul\":28566:28707   */\n      swap2\n      swap1\n      pop\n      jump\t// out\n        /* \"#utility.yul\":28713:28806   */\n    tag_464:\n        /* \"#utility.yul\":28750:28756   */\n      0x00\n        /* \"#utility.yul\":28797:28799   */\n      0x20\n        /* \"#utility.yul\":28792:28794   */\n      0x1f\n        /* \"#utility.yul\":28785:28790   */\n      dup4\n        /* \"#utility.yul\":28781:28795   */\n      add\n        /* \"#utility.yul\":28777:28800   */\n      div\n        /* \"#utility.yul\":28767:28800   */\n      swap1\n      pop\n        /* \"#utility.yul\":28713:28806   */\n      swap2\n      swap1\n      pop\n      jump\t// out\n        /* \"#utility.yul\":28812:28919   */\n    tag_465:\n        /* \"#utility.yul\":28856:28864   */\n      0x00\n        /* \"#utility.yul\":28906:28911   */\n      dup3\n        /* \"#utility.yul\":28900:28904   */\n      dup3\n        /* \"#utility.yul\":28896:28912   */\n      shl\n        /* \"#utility.yul\":28875:28912   */\n      swap1\n      pop\n        /* \"#utility.yul\":28812:28919   */\n      swap3\n      swap2\n      pop\n      pop\n      jump\t// out\n        /* \"#utility.yul\":28925:29318   */\n    tag_466:\n        /* \"#utility.yul\":28994:29000   */\n      0x00\n        /* \"#utility.yul\":29044:29045   */\n      0x08\n        /* \"#utility.yul\":29032:29042   */\n      dup4\n        /* \"#utility.yul\":29028:29046   */\n      mul\n        /* \"#utility.yul\":29067:29164   */\n      tag_746\n        /* \"#utility.yul\":29097:29163   */\n      0xffffffffffffffffffffffffffffffffffffffffffffffffffffffffffffffff\n        /* \"#utility.yul\":29086:29095   */\n      dup3\n        /* \"#utility.yul\":29067:29164   */\n      tag_465\n      jump\t// in\n    tag_746:\n        /* \"#utility.yul\":29185:29224   */\n      tag_747\n        /* \"#utility.yul\":29215:29223   */\n      dup7\n        /* \"#utility.yul\":29204:29213   */\n      dup4\n        /* \"#utility.yul\":29185:29224   */\n      tag_465\n      jump\t// in\n    tag_747:\n        /* \"#utility.yul\":29173:29224   */\n      swap6\n      pop\n        /* \"#utility.yul\":29257:29261   */\n      dup1\n        /* \"#utility.yul\":29253:29262   */\n      not\n        /* \"#utility.yul\":29246:29251   */\n      dup5\n        /* \"#utility.yul\":29242:29263   */\n      and\n        /* \"#utility.yul\":29233:29263   */\n      swap4\n      pop\n        /* \"#utility.yul\":29306:29310   */\n      dup1\n        /* \"#utility.yul\":29296:29304   */\n      dup7\n        /* \"#utility.yul\":29292:29311   */\n      and\n        /* \"#utility.yul\":29285:29290   */\n      dup5\n        /* \"#utility.yul\":29282:29312   */\n      or\n        /* \"#utility.yul\":29272:29312   */\n      swap3\n      pop\n        /* \"#utility.yul\":29001:29318   */\n      pop\n      pop\n        /* \"#utility.yul\":28925:29318   */\n      swap4\n      swap3\n      pop\n      pop\n      pop\n      jump\t// out\n        /* \"#utility.yul\":29324:29384   */\n    tag_467:\n        /* \"#utility.yul\":29352:29355   */\n      0x00\n        /* \"#utility.yul\":29373:29378   */\n      dup2\n        /* \"#utility.yul\":29366:29378   */\n      swap1\n      pop\n        /* \"#utility.yul\":29324:29384   */\n      swap2\n      swap1\n      pop\n      jump\t// out\n        /* \"#utility.yul\":29390:29532   */\n    tag_468:\n        /* \"#utility.yul\":29440:29449   */\n      0x00\n        /* \"#utility.yul\":29473:29526   */\n      tag_750\n        /* \"#utility.yul\":29491:29525   */\n      tag_751\n        /* \"#utility.yul\":29500:29524   */\n      tag_752\n        /* \"#utility.yul\":29518:29523   */\n      dup5\n        /* \"#utility.yul\":29500:29524   */\n      tag_407\n      jump\t// in\n    tag_752:\n        /* \"#utility.yul\":29491:29525   */\n      tag_467\n      jump\t// in\n    tag_751:\n        /* \"#utility.yul\":29473:29526   */\n      tag_407\n      jump\t// in\n    tag_750:\n        /* \"#utility.yul\":29460:29526   */\n      swap1\n      pop\n        /* \"#utility.yul\":29390:29532   */\n      swap2\n      swap1\n      pop\n      jump\t// out\n        /* \"#utility.yul\":29538:29613   */\n    tag_469:\n        /* \"#utility.yul\":29581:29584   */\n      0x00\n        /* \"#utility.yul\":29602:29607   */\n      dup2\n        /* \"#utility.yul\":29595:29607   */\n      swap1\n      pop\n        /* \"#utility.yul\":29538:29613   */\n      swap2\n      swap1\n      pop\n      jump\t// out\n        /* \"#utility.yul\":29619:29888   */\n    tag_470:\n        /* \"#utility.yul\":29729:29768   */\n      tag_755\n        /* \"#utility.yul\":29760:29767   */\n      dup4\n        /* \"#utility.yul\":29729:29768   */\n      tag_468\n      jump\t// in\n    tag_755:\n        /* \"#utility.yul\":29790:29881   */\n      tag_756\n        /* \"#utility.yul\":29839:29880   */\n      tag_757\n        /* \"#utility.yul\":29863:29879   */\n      dup3\n        /* \"#utility.yul\":29839:29880   */\n      tag_469\n      jump\t// in\n    tag_757:\n        /* \"#utility.yul\":29831:29837   */\n      dup5\n        /* \"#utility.yul\":29824:29828   */\n      dup5\n        /* \"#utility.yul\":29818:29829   */\n      sload\n        /* \"#utility.yul\":29790:29881   */\n      tag_466\n      jump\t// in\n    tag_756:\n        /* \"#utility.yul\":29784:29788   */\n      dup3\n        /* \"#utility.yul\":29777:29882   */\n      sstore\n        /* \"#utility.yul\":29695:29888   */\n      pop\n        /* \"#utility.yul\":29619:29888   */\n      pop\n      pop\n      pop\n      jump\t// out\n        /* \"#utility.yul\":29894:29967   */\n    tag_471:\n        /* \"#utility.yul\":29939:29942   */\n      0x00\n        /* \"#utility.yul\":29894:29967   */\n      swap1\n      jump\t// out\n        /* \"#utility.yul\":29973:30162   */\n    tag_472:\n        /* \"#utility.yul\":30050:30082   */\n      tag_760\n      tag_471\n      jump\t// in\n    tag_760:\n        /* \"#utility.yul\":30091:30156   */\n      tag_761\n        /* \"#utility.yul\":30149:30155   */\n      dup2\n        /* \"#utility.yul\":30141:30147   */\n      dup5\n        /* \"#utility.yul\":30135:30139   */\n      dup5\n        /* \"#utility.yul\":30091:30156   */\n      tag_470\n      jump\t// in\n    tag_761:\n        /* \"#utility.yul\":30026:30162   */\n      pop\n        /* \"#utility.yul\":29973:30162   */\n      pop\n      pop\n      jump\t// out\n        /* \"#utility.yul\":30168:30354   */\n    tag_473:\n        /* \"#utility.yul\":30228:30348   */\n    tag_763:\n        /* \"#utility.yul\":30245:30248   */\n      dup2\n        /* \"#utility.yul\":30238:30243   */\n      dup2\n        /* \"#utility.yul\":30235:30249   */\n      lt\n        /* \"#utility.yul\":30228:30348   */\n      iszero\n      tag_765\n      jumpi\n        /* \"#utility.yul\":30299:30338   */\n      tag_766\n        /* \"#utility.yul\":30336:30337   */\n      0x00\n        /* \"#utility.yul\":30329:30334   */\n      dup3\n        /* \"#utility.yul\":30299:30338   */\n      tag_472\n      jump\t// in\n    tag_766:\n        /* \"#utility.yul\":30272:30273   */\n      0x01\n        /* \"#utility.yul\":30265:30270   */\n      dup2\n        /* \"#utility.yul\":30261:30274   */\n      add\n        /* \"#utility.yul\":30252:30274   */\n      swap1\n      pop\n        /* \"#utility.yul\":30228:30348   */\n      jump(tag_763)\n    tag_765:\n        /* \"#utility.yul\":30168:30354   */\n      pop\n      pop\n      jump\t// out\n        /* \"#utility.yul\":30360:30903   */\n    tag_474:\n        /* \"#utility.yul\":30461:30463   */\n      0x1f\n        /* \"#utility.yul\":30456:30459   */\n      dup3\n        /* \"#utility.yul\":30453:30464   */\n      gt\n        /* \"#utility.yul\":30450:30896   */\n      iszero\n      tag_768\n      jumpi\n        /* \"#utility.yul\":30495:30533   */\n      tag_769\n        /* \"#utility.yul\":30527:30532   */\n      dup2\n        /* \"#utility.yul\":30495:30533   */\n      tag_463\n      jump\t// in\n    tag_769:\n        /* \"#utility.yul\":30579:30608   */\n      tag_770\n        /* \"#utility.yul\":30597:30607   */\n      dup5\n        /* \"#utility.yul\":30579:30608   */\n      tag_464\n      jump\t// in\n    tag_770:\n        /* \"#utility.yul\":30569:30577   */\n      dup2\n        /* \"#utility.yul\":30565:30609   */\n      add\n        /* \"#utility.yul\":30762:30764   */\n      0x20\n        /* \"#utility.yul\":30750:30760   */\n      dup6\n        /* \"#utility.yul\":30747:30765   */\n      lt\n        /* \"#utility.yul\":30744:30793   */\n      iszero\n      tag_771\n      jumpi\n        /* \"#utility.yul\":30783:30791   */\n      dup2\n        /* \"#utility.yul\":30768:30791   */\n      swap1\n      pop\n        /* \"#utility.yul\":30744:30793   */\n    tag_771:\n        /* \"#utility.yul\":30806:30886   */\n      tag_772\n        /* \"#utility.yul\":30862:30884   */\n      tag_773\n        /* \"#utility.yul\":30880:30883   */\n      dup6\n        /* \"#utility.yul\":30862:30884   */\n      tag_464\n      jump\t// in\n    tag_773:\n        /* \"#utility.yul\":30852:30860   */\n      dup4\n        /* \"#utility.yul\":30848:30885   */\n      add\n        /* \"#utility.yul\":30835:30846   */\n      dup3\n        /* \"#utility.yul\":30806:30886   */\n      tag_473\n      jump\t// in\n    tag_772:\n        /* \"#utility.yul\":30465:30896   */\n      pop\n      pop\n        /* \"#utility.yul\":30450:30896   */\n    tag_768:\n        /* \"#utility.yul\":30360:30903   */\n      pop\n      pop\n      pop\n      jump\t// out\n        /* \"#utility.yul\":30909:31026   */\n    tag_475:\n        /* \"#utility.yul\":30963:30971   */\n      0x00\n        /* \"#utility.yul\":31013:31018   */\n      dup3\n        /* \"#utility.yul\":31007:31011   */\n      dup3\n        /* \"#utility.yul\":31003:31019   */\n      shr\n        /* \"#utility.yul\":30982:31019   */\n      swap1\n      pop\n        /* \"#utility.yul\":30909:31026   */\n      swap3\n      swap2\n      pop\n      pop\n      jump\t// out\n        /* \"#utility.yul\":31032:31201   */\n    tag_476:\n        /* \"#utility.yul\":31076:31082   */\n      0x00\n        /* \"#utility.yul\":31109:31160   */\n      tag_776\n        /* \"#utility.yul\":31157:31158   */\n      0x00\n        /* \"#utility.yul\":31153:31159   */\n      not\n        /* \"#utility.yul\":31145:31150   */\n      dup5\n        /* \"#utility.yul\":31142:31143   */\n      0x08\n        /* \"#utility.yul\":31138:31151   */\n      mul\n        /* \"#utility.yul\":31109:31160   */\n      tag_475\n      jump\t// in\n    tag_776:\n        /* \"#utility.yul\":31105:31161   */\n      not\n        /* \"#utility.yul\":31190:31194   */\n      dup1\n        /* \"#utility.yul\":31184:31188   */\n      dup4\n        /* \"#utility.yul\":31180:31195   */\n      and\n        /* \"#utility.yul\":31170:31195   */\n      swap2\n      pop\n        /* \"#utility.yul\":31083:31201   */\n      pop\n        /* \"#utility.yul\":31032:31201   */\n      swap3\n      swap2\n      pop\n      pop\n      jump\t// out\n        /* \"#utility.yul\":31206:31501   */\n    tag_477:\n        /* \"#utility.yul\":31282:31286   */\n      0x00\n        /* \"#utility.yul\":31428:31457   */\n      tag_778\n        /* \"#utility.yul\":31453:31456   */\n      dup4\n        /* \"#utility.yul\":31447:31451   */\n      dup4\n        /* \"#utility.yul\":31428:31457   */\n      tag_476\n      jump\t// in\n    tag_778:\n        /* \"#utility.yul\":31420:31457   */\n      swap2\n      pop\n        /* \"#utility.yul\":31490:31493   */\n      dup3\n        /* \"#utility.yul\":31487:31488   */\n      0x02\n        /* \"#utility.yul\":31483:31494   */\n      mul\n        /* \"#utility.yul\":31477:31481   */\n      dup3\n        /* \"#utility.yul\":31474:31495   */\n      or\n        /* \"#utility.yul\":31466:31495   */\n      swap1\n      pop\n        /* \"#utility.yul\":31206:31501   */\n      swap3\n      swap2\n      pop\n      pop\n      jump\t// out\n        /* \"#utility.yul\":31506:32901   */\n    tag_171:\n        /* \"#utility.yul\":31623:31660   */\n      tag_780\n        /* \"#utility.yul\":31656:31659   */\n      dup3\n        /* \"#utility.yul\":31623:31660   */\n      tag_422\n      jump\t// in\n    tag_780:\n        /* \"#utility.yul\":31725:31743   */\n      0xffffffffffffffff\n        /* \"#utility.yul\":31717:31723   */\n      dup2\n        /* \"#utility.yul\":31714:31744   */\n      gt\n        /* \"#utility.yul\":31711:31767   */\n      iszero\n      tag_781\n      jumpi\n        /* \"#utility.yul\":31747:31765   */\n      tag_782\n      tag_246\n      jump\t// in\n    tag_782:\n        /* \"#utility.yul\":31711:31767   */\n    tag_781:\n        /* \"#utility.yul\":31791:31829   */\n      tag_783\n        /* \"#utility.yul\":31823:31827   */\n      dup3\n        /* \"#utility.yul\":31817:31828   */\n      sload\n        /* \"#utility.yul\":31791:31829   */\n      tag_150\n      jump\t// in\n    tag_783:\n        /* \"#utility.yul\":31876:31943   */\n      tag_784\n        /* \"#utility.yul\":31936:31942   */\n      dup3\n        /* \"#utility.yul\":31928:31934   */\n      dup3\n        /* \"#utility.yul\":31922:31926   */\n      dup6\n        /* \"#utility.yul\":31876:31943   */\n      tag_474\n      jump\t// in\n    tag_784:\n        /* \"#utility.yul\":31970:31971   */\n      0x00\n        /* \"#utility.yul\":31994:31998   */\n      0x20\n        /* \"#utility.yul\":31981:31998   */\n      swap1\n      pop\n        /* \"#utility.yul\":32026:32028   */\n      0x1f\n        /* \"#utility.yul\":32018:32024   */\n      dup4\n        /* \"#utility.yul\":32015:32029   */\n      gt\n        /* \"#utility.yul\":32043:32044   */\n      0x01\n        /* \"#utility.yul\":32038:32656   */\n      dup2\n      eq\n      tag_786\n      jumpi\n        /* \"#utility.yul\":32700:32701   */\n      0x00\n        /* \"#utility.yul\":32717:32723   */\n      dup5\n        /* \"#utility.yul\":32714:32791   */\n      iszero\n      tag_787\n      jumpi\n        /* \"#utility.yul\":32766:32775   */\n      dup3\n        /* \"#utility.yul\":32761:32764   */\n      dup8\n        /* \"#utility.yul\":32757:32776   */\n      add\n        /* \"#utility.yul\":32751:32777   */\n      mload\n        /* \"#utility.yul\":32742:32777   */\n      swap1\n      pop\n        /* \"#utility.yul\":32714:32791   */\n    tag_787:\n        /* \"#utility.yul\":32817:32884   */\n      tag_788\n        /* \"#utility.yul\":32877:32883   */\n      dup6\n        /* \"#utility.yul\":32870:32875   */\n      dup3\n        /* \"#utility.yul\":32817:32884   */\n      tag_477\n      jump\t// in\n    tag_788:\n        /* \"#utility.yul\":32811:32815   */\n      dup7\n        /* \"#utility.yul\":32804:32885   */\n      sstore\n        /* \"#utility.yul\":32673:32895   */\n      pop\n        /* \"#utility.yul\":32008:32895   */\n      jump(tag_785)\n        /* \"#utility.yul\":32038:32656   */\n    tag_786:\n        /* \"#utility.yul\":32090:32094   */\n      0x1f\n        /* \"#utility.yul\":32086:32095   */\n      not\n        /* \"#utility.yul\":32078:32084   */\n      dup5\n        /* \"#utility.yul\":32074:32096   */\n      and\n        /* \"#utility.yul\":32124:32161   */\n      tag_789\n        /* \"#utility.yul\":32156:32160   */\n      dup7\n        /* \"#utility.yul\":32124:32161   */\n      tag_463\n      jump\t// in\n    tag_789:\n        /* \"#utility.yul\":32183:32184   */\n      0x00\n        /* \"#utility.yul\":32197:32405   */\n    tag_790:\n        /* \"#utility.yul\":32211:32218   */\n      dup3\n        /* \"#utility.yul\":32208:32209   */\n      dup2\n        /* \"#utility.yul\":32205:32219   */\n      lt\n        /* \"#utility.yul\":32197:32405   */\n      iszero\n      tag_792\n      jumpi\n        /* \"#utility.yul\":32290:32299   */\n      dup5\n        /* \"#utility.yul\":32285:32288   */\n      dup10\n        /* \"#utility.yul\":32281:32300   */\n      add\n        /* \"#utility.yul\":32275:32301   */\n      mload\n        /* \"#utility.yul\":32267:32273   */\n      dup3\n        /* \"#utility.yul\":32260:32302   */\n      sstore\n        /* \"#utility.yul\":32341:32342   */\n      0x01\n        /* \"#utility.yul\":32333:32339   */\n      dup3\n        /* \"#utility.yul\":32329:32343   */\n      add\n        /* \"#utility.yul\":32319:32343   */\n      swap2\n      pop\n        /* \"#utility.yul\":32388:32390   */\n      0x20\n        /* \"#utility.yul\":32377:32386   */\n      dup6\n        /* \"#utility.yul\":32373:32391   */\n      add\n        /* \"#utility.yul\":32360:32391   */\n      swap5\n      pop\n        /* \"#utility.yul\":32234:32238   */\n      0x20\n        /* \"#utility.yul\":32231:32232   */\n      dup2\n        /* \"#utility.yul\":32227:32239   */\n      add\n        /* \"#utility.yul\":32222:32239   */\n      swap1\n      pop\n        /* \"#utility.yul\":32197:32405   */\n      jump(tag_790)\n    tag_792:\n        /* \"#utility.yul\":32433:32439   */\n      dup7\n        /* \"#utility.yul\":32424:32431   */\n      dup4\n        /* \"#utility.yul\":32421:32440   */\n      lt\n        /* \"#utility.yul\":32418:32597   */\n      iszero\n      tag_793\n      jumpi\n        /* \"#utility.yul\":32491:32500   */\n      dup5\n        /* \"#utility.yul\":32486:32489   */\n      dup10\n        /* \"#utility.yul\":32482:32501   */\n      add\n        /* \"#utility.yul\":32476:32502   */\n      mload\n        /* \"#utility.yul\":32534:32582   */\n      tag_794\n        /* \"#utility.yul\":32576:32580   */\n      0x1f\n        /* \"#utility.yul\":32568:32574   */\n      dup10\n        /* \"#utility.yul\":32564:32581   */\n      and\n        /* \"#utility.yul\":32553:32562   */\n      dup3\n        /* \"#utility.yul\":32534:32582   */\n      tag_476\n      jump\t// in\n    tag_794:\n        /* \"#utility.yul\":32526:32532   */\n      dup4\n        /* \"#utility.yul\":32519:32583   */\n      sstore\n        /* \"#utility.yul\":32441:32597   */\n      pop\n        /* \"#utility.yul\":32418:32597   */\n    tag_793:\n        /* \"#utility.yul\":32643:32644   */\n      0x01\n        /* \"#utility.yul\":32639:32640   */\n      0x02\n        /* \"#utility.yul\":32631:32637   */\n      dup9\n        /* \"#utility.yul\":32627:32641   */\n      mul\n        /* \"#utility.yul\":32623:32645   */\n      add\n        /* \"#utility.yul\":32617:32621   */\n      dup9\n        /* \"#utility.yul\":32610:32646   */\n      sstore\n        /* \"#utility.yul\":32045:32656   */\n      pop\n      pop\n      pop\n        /* \"#utility.yul\":32008:32895   */\n    tag_785:\n      pop\n        /* \"#utility.yul\":31598:32901   */\n      pop\n      pop\n      pop\n        /* \"#utility.yul\":31506:32901   */\n      pop\n      pop\n      jump\t// out\n        /* \"#utility.yul\":32907:33440   */\n    tag_173:\n        /* \"#utility.yul\":33076:33080   */\n      0x00\n        /* \"#utility.yul\":33114:33116   */\n      0x60\n        /* \"#utility.yul\":33103:33112   */\n      dup3\n        /* \"#utility.yul\":33099:33117   */\n      add\n        /* \"#utility.yul\":33091:33117   */\n      swap1\n      pop\n        /* \"#utility.yul\":33127:33198   */\n      tag_796\n        /* \"#utility.yul\":33195:33196   */\n      0x00\n        /* \"#utility.yul\":33184:33193   */\n      dup4\n        /* \"#utility.yul\":33180:33197   */\n      add\n        /* \"#utility.yul\":33171:33177   */\n      dup7\n        /* \"#utility.yul\":33127:33198   */\n      tag_426\n      jump\t// in\n    tag_796:\n        /* \"#utility.yul\":33208:33280   */\n      tag_797\n        /* \"#utility.yul\":33276:33278   */\n      0x20\n        /* \"#utility.yul\":33265:33274   */\n      dup4\n        /* \"#utility.yul\":33261:33279   */\n      add\n        /* \"#utility.yul\":33252:33258   */\n      dup6\n        /* \"#utility.yul\":33208:33280   */\n      tag_426\n      jump\t// in\n    tag_797:\n        /* \"#utility.yul\":33327:33336   */\n      dup2\n        /* \"#utility.yul\":33321:33325   */\n      dup2\n        /* \"#utility.yul\":33317:33337   */\n      sub\n        /* \"#utility.yul\":33312:33314   */\n      0x40\n        /* \"#utility.yul\":33301:33310   */\n      dup4\n        /* \"#utility.yul\":33297:33315   */\n      add\n        /* \"#utility.yul\":33290:33338   */\n      mstore\n        /* \"#utility.yul\":33355:33433   */\n      tag_798\n        /* \"#utility.yul\":33428:33432   */\n      dup2\n        /* \"#utility.yul\":33419:33425   */\n      dup5\n        /* \"#utility.yul\":33355:33433   */\n      tag_425\n      jump\t// in\n    tag_798:\n        /* \"#utility.yul\":33347:33433   */\n      swap1\n      pop\n        /* \"#utility.yul\":32907:33440   */\n      swap5\n      swap4\n      pop\n      pop\n      pop\n      pop\n      jump\t// out\n        /* \"#utility.yul\":33446:33619   */\n    tag_478:\n        /* \"#utility.yul\":33586:33611   */\n      0x566f74696e6720706572696f642068617320656e646564000000000000000000\n        /* \"#utility.yul\":33582:33583   */\n      0x00\n        /* \"#utility.yul\":33574:33580   */\n      dup3\n        /* \"#utility.yul\":33570:33584   */\n      add\n        /* \"#utility.yul\":33563:33612   */\n      mstore\n        /* \"#utility.yul\":33446:33619   */\n      pop\n      jump\t// out\n        /* \"#utility.yul\":33625:33991   */\n    tag_479:\n        /* \"#utility.yul\":33767:33770   */\n      0x00\n        /* \"#utility.yul\":33788:33855   */\n      tag_801\n        /* \"#utility.yul\":33852:33854   */\n      0x17\n        /* \"#utility.yul\":33847:33850   */\n      dup4\n        /* \"#utility.yul\":33788:33855   */\n      tag_423\n      jump\t// in\n    tag_801:\n        /* \"#utility.yul\":33781:33855   */\n      swap2\n      pop\n        /* \"#utility.yul\":33864:33957   */\n      tag_802\n        /* \"#utility.yul\":33953:33956   */\n      dup3\n        /* \"#utility.yul\":33864:33957   */\n      tag_478\n      jump\t// in\n    tag_802:\n        /* \"#utility.yul\":33982:33984   */\n      0x20\n        /* \"#utility.yul\":33977:33980   */\n      dup3\n        /* \"#utility.yul\":33973:33985   */\n      add\n        /* \"#utility.yul\":33966:33985   */\n      swap1\n      pop\n        /* \"#utility.yul\":33625:33991   */\n      swap2\n      swap1\n      pop\n      jump\t// out\n        /* \"#utility.yul\":33997:34416   */\n    tag_203:\n        /* \"#utility.yul\":34163:34167   */\n      0x00\n        /* \"#utility.yul\":34201:34203   */\n      0x20\n        /* \"#utility.yul\":34190:34199   */\n      dup3\n        /* \"#utility.yul\":34186:34204   */\n      add\n        /* \"#utility.yul\":34178:34204   */\n      swap1\n      pop\n        /* \"#utility.yul\":34250:34259   */\n      dup2\n        /* \"#utility.yul\":34244:34248   */\n      dup2\n        /* \"#utility.yul\":34240:34260   */\n      sub\n        /* \"#utility.yul\":34236:34237   */\n      0x00\n        /* \"#utility.yul\":34225:34234   */\n      dup4\n        /* \"#utility.yul\":34221:34238   */\n      add\n        /* \"#utility.yul\":34214:34261   */\n      mstore\n        /* \"#utility.yul\":34278:34409   */\n      tag_804\n        /* \"#utility.yul\":34404:34408   */\n      dup2\n        /* \"#utility.yul\":34278:34409   */\n      tag_479\n      jump\t// in\n    tag_804:\n        /* \"#utility.yul\":34270:34409   */\n      swap1\n      pop\n        /* \"#utility.yul\":33997:34416   */\n      swap2\n      swap1\n      pop\n      jump\t// out\n        /* \"#utility.yul\":34422:34590   */\n    tag_480:\n        /* \"#utility.yul\":34562:34582   */\n      0x496e636f727265637420766f7465206665650000000000000000000000000000\n        /* \"#utility.yul\":34558:34559   */\n      0x00\n        /* \"#utility.yul\":34550:34556   */\n      dup3\n        /* \"#utility.yul\":34546:34560   */\n      add\n        /* \"#utility.yul\":34539:34583   */\n      mstore\n        /* \"#utility.yul\":34422:34590   */\n      pop\n      jump\t// out\n        /* \"#utility.yul\":34596:34962   */\n    tag_481:\n        /* \"#utility.yul\":34738:34741   */\n      0x00\n        /* \"#utility.yul\":34759:34826   */\n      tag_807\n        /* \"#utility.yul\":34823:34825   */\n      0x12\n        /* \"#utility.yul\":34818:34821   */\n      dup4\n        /* \"#utility.yul\":34759:34826   */\n      tag_423\n      jump\t// in\n    tag_807:\n        /* \"#utility.yul\":34752:34826   */\n      swap2\n      pop\n        /* \"#utility.yul\":34835:34928   */\n      tag_808\n        /* \"#utility.yul\":34924:34927   */\n      dup3\n        /* \"#utility.yul\":34835:34928   */\n      tag_480\n      jump\t// in\n    tag_808:\n        /* \"#utility.yul\":34953:34955   */\n      0x20\n        /* \"#utility.yul\":34948:34951   */\n      dup3\n        /* \"#utility.yul\":34944:34956   */\n      add\n        /* \"#utility.yul\":34937:34956   */\n      swap1\n      pop\n        /* \"#utility.yul\":34596:34962   */\n      swap2\n      swap1\n      pop\n      jump\t// out\n        /* \"#utility.yul\":34968:35387   */\n    tag_206:\n        /* \"#utility.yul\":35134:35138   */\n      0x00\n        /* \"#utility.yul\":35172:35174   */\n      0x20\n        /* \"#utility.yul\":35161:35170   */\n      dup3\n        /* \"#utility.yul\":35157:35175   */\n      add\n        /* \"#utility.yul\":35149:35175   */\n      swap1\n      pop\n        /* \"#utility.yul\":35221:35230   */\n      dup2\n        /* \"#utility.yul\":35215:35219   */\n      dup2\n        /* \"#utility.yul\":35211:35231   */\n      sub\n        /* \"#utility.yul\":35207:35208   */\n      0x00\n        /* \"#utility.yul\":35196:35205   */\n      dup4\n        /* \"#utility.yul\":35192:35209   */\n      add\n        /* \"#utility.yul\":35185:35232   */\n      mstore\n        /* \"#utility.yul\":35249:35380   */\n      tag_810\n        /* \"#utility.yul\":35375:35379   */\n      dup2\n        /* \"#utility.yul\":35249:35380   */\n      tag_481\n      jump\t// in\n    tag_810:\n        /* \"#utility.yul\":35241:35380   */\n      swap1\n      pop\n        /* \"#utility.yul\":34968:35387   */\n      swap2\n      swap1\n      pop\n      jump\t// out\n        /* \"#utility.yul\":35393:35584   */\n    tag_208:\n        /* \"#utility.yul\":35433:35436   */\n      0x00\n        /* \"#utility.yul\":35452:35472   */\n      tag_812\n        /* \"#utility.yul\":35470:35471   */\n      dup3\n        /* \"#utility.yul\":35452:35472   */\n      tag_407\n      jump\t// in\n    tag_812:\n        /* \"#utility.yul\":35447:35472   */\n      swap2\n      pop\n        /* \"#utility.yul\":35486:35506   */\n      tag_813\n        /* \"#utility.yul\":35504:35505   */\n      dup4\n        /* \"#utility.yul\":35486:35506   */\n      tag_407\n      jump\t// in\n    tag_813:\n        /* \"#utility.yul\":35481:35506   */\n      swap3\n      pop\n        /* \"#utility.yul\":35529:35530   */\n      dup3\n        /* \"#utility.yul\":35526:35527   */\n      dup3\n        /* \"#utility.yul\":35522:35531   */\n      add\n        /* \"#utility.yul\":35515:35531   */\n      swap1\n      pop\n        /* \"#utility.yul\":35550:35553   */\n      dup1\n        /* \"#utility.yul\":35547:35548   */\n      dup3\n        /* \"#utility.yul\":35544:35554   */\n      gt\n        /* \"#utility.yul\":35541:35577   */\n      iszero\n      tag_814\n      jumpi\n        /* \"#utility.yul\":35557:35575   */\n      tag_815\n      tag_462\n      jump\t// in\n    tag_815:\n        /* \"#utility.yul\":35541:35577   */\n    tag_814:\n        /* \"#utility.yul\":35393:35584   */\n      swap3\n      swap2\n      pop\n      pop\n      jump\t// out\n        /* \"#utility.yul\":35590:35760   */\n    tag_482:\n        /* \"#utility.yul\":35730:35752   */\n      0x4e6f2066756e647320746f207769746864726177000000000000000000000000\n        /* \"#utility.yul\":35726:35727   */\n      0x00\n        /* \"#utility.yul\":35718:35724   */\n      dup3\n        /* \"#utility.yul\":35714:35728   */\n      add\n        /* \"#utility.yul\":35707:35753   */\n      mstore\n        /* \"#utility.yul\":35590:35760   */\n      pop\n      jump\t// out\n        /* \"#utility.yul\":35766:36132   */\n    tag_483:\n        /* \"#utility.yul\":35908:35911   */\n      0x00\n        /* \"#utility.yul\":35929:35996   */\n      tag_818\n        /* \"#utility.yul\":35993:35995   */\n      0x14\n        /* \"#utility.yul\":35988:35991   */\n      dup4\n        /* \"#utility.yul\":35929:35996   */\n      tag_423\n      jump\t// in\n    tag_818:\n        /* \"#utility.yul\":35922:35996   */\n      swap2\n      pop\n        /* \"#utility.yul\":36005:36098   */\n      tag_819\n        /* \"#utility.yul\":36094:36097   */\n      dup3\n        /* \"#utility.yul\":36005:36098   */\n      tag_482\n      jump\t// in\n    tag_819:\n        /* \"#utility.yul\":36123:36125   */\n      0x20\n        /* \"#utility.yul\":36118:36121   */\n      dup3\n        /* \"#utility.yul\":36114:36126   */\n      add\n        /* \"#utility.yul\":36107:36126   */\n      swap1\n      pop\n        /* \"#utility.yul\":35766:36132   */\n      swap2\n      swap1\n      pop\n      jump\t// out\n        /* \"#utility.yul\":36138:36557   */\n    tag_229:\n        /* \"#utility.yul\":36304:36308   */\n      0x00\n        /* \"#utility.yul\":36342:36344   */\n      0x20\n        /* \"#utility.yul\":36331:36340   */\n      dup3\n        /* \"#utility.yul\":36327:36345   */\n      add\n        /* \"#utility.yul\":36319:36345   */\n      swap1\n      pop\n        /* \"#utility.yul\":36391:36400   */\n      dup2\n        /* \"#utility.yul\":36385:36389   */\n      dup2\n        /* \"#utility.yul\":36381:36401   */\n      sub\n        /* \"#utility.yul\":36377:36378   */\n      0x00\n        /* \"#utility.yul\":36366:36375   */\n      dup4\n        /* \"#utility.yul\":36362:36379   */\n      add\n        /* \"#utility.yul\":36355:36402   */\n      mstore\n        /* \"#utility.yul\":36419:36550   */\n      tag_821\n        /* \"#utility.yul\":36545:36549   */\n      dup2\n        /* \"#utility.yul\":36419:36550   */\n      tag_483\n      jump\t// in\n    tag_821:\n        /* \"#utility.yul\":36411:36550   */\n      swap1\n      pop\n        /* \"#utility.yul\":36138:36557   */\n      swap2\n      swap1\n      pop\n      jump\t// out\n        /* \"#utility.yul\":36563:36734   */\n    tag_484:\n        /* \"#utility.yul\":36703:36726   */\n      0x416e7377657220646f6573206e6f742065786973740000000000000000000000\n        /* \"#utility.yul\":36699:36700   */\n      0x00\n        /* \"#utility.yul\":36691:36697   */\n      dup3\n        /* \"#utility.yul\":36687:36701   */\n      add\n        /* \"#utility.yul\":36680:36727   */\n      mstore\n        /* \"#utility.yul\":36563:36734   */\n      pop\n      jump\t// out\n        /* \"#utility.yul\":36740:37106   */\n    tag_485:\n        /* \"#utility.yul\":36882:36885   */\n      0x00\n        /* \"#utility.yul\":36903:36970   */\n      tag_824\n        /* \"#utility.yul\":36967:36969   */\n      0x15\n        /* \"#utility.yul\":36962:36965   */\n      dup4\n        /* \"#utility.yul\":36903:36970   */\n      tag_423\n      jump\t// in\n    tag_824:\n        /* \"#utility.yul\":36896:36970   */\n      swap2\n      pop\n        /* \"#utility.yul\":36979:37072   */\n      tag_825\n        /* \"#utility.yul\":37068:37071   */\n      dup3\n        /* \"#utility.yul\":36979:37072   */\n      tag_484\n      jump\t// in\n    tag_825:\n        /* \"#utility.yul\":37097:37099   */\n      0x20\n        /* \"#utility.yul\":37092:37095   */\n      dup3\n        /* \"#utility.yul\":37088:37100   */\n      add\n        /* \"#utility.yul\":37081:37100   */\n      swap1\n      pop\n        /* \"#utility.yul\":36740:37106   */\n      swap2\n      swap1\n      pop\n      jump\t// out\n        /* \"#utility.yul\":37112:37531   */\n    tag_237:\n        /* \"#utility.yul\":37278:37282   */\n      0x00\n        /* \"#utility.yul\":37316:37318   */\n      0x20\n        /* \"#utility.yul\":37305:37314   */\n      dup3\n        /* \"#utility.yul\":37301:37319   */\n      add\n        /* \"#utility.yul\":37293:37319   */\n      swap1\n      pop\n        /* \"#utility.yul\":37365:37374   */\n      dup2\n        /* \"#utility.yul\":37359:37363   */\n      dup2\n        /* \"#utility.yul\":37355:37375   */\n      sub\n        /* \"#utility.yul\":37351:37352   */\n      0x00\n        /* \"#utility.yul\":37340:37349   */\n      dup4\n        /* \"#utility.yul\":37336:37353   */\n      add\n        /* \"#utility.yul\":37329:37376   */\n      mstore\n        /* \"#utility.yul\":37393:37524   */\n      tag_827\n        /* \"#utility.yul\":37519:37523   */\n      dup2\n        /* \"#utility.yul\":37393:37524   */\n      tag_485\n      jump\t// in\n    tag_827:\n        /* \"#utility.yul\":37385:37524   */\n      swap1\n      pop\n        /* \"#utility.yul\":37112:37531   */\n      swap2\n      swap1\n      pop\n      jump\t// out\n        /* \"#utility.yul\":37537:37684   */\n    tag_486:\n        /* \"#utility.yul\":37638:37649   */\n      0x00\n        /* \"#utility.yul\":37675:37678   */\n      dup2\n        /* \"#utility.yul\":37660:37678   */\n      swap1\n      pop\n        /* \"#utility.yul\":37537:37684   */\n      swap3\n      swap2\n      pop\n      pop\n      jump\t// out\n        /* \"#utility.yul\":37690:37834   */\n    tag_487:\n        /* \"#utility.yul\":37742:37746   */\n      0x00\n        /* \"#utility.yul\":37765:37768   */\n      dup2\n        /* \"#utility.yul\":37757:37768   */\n      swap1\n      pop\n        /* \"#utility.yul\":37788:37791   */\n      dup2\n        /* \"#utility.yul\":37785:37786   */\n      0x00\n        /* \"#utility.yul\":37778:37792   */\n      mstore\n        /* \"#utility.yul\":37822:37826   */\n      0x20\n        /* \"#utility.yul\":37819:37820   */\n      0x00\n        /* \"#utility.yul\":37809:37827   */\n      keccak256\n        /* \"#utility.yul\":37801:37827   */\n      swap1\n      pop\n        /* \"#utility.yul\":37690:37834   */\n      swap2\n      swap1\n      pop\n      jump\t// out\n        /* \"#utility.yul\":37862:38740   */\n    tag_488:\n        /* \"#utility.yul\":37967:37970   */\n      0x00\n        /* \"#utility.yul\":38004:38009   */\n      dup2\n        /* \"#utility.yul\":37998:38010   */\n      sload\n        /* \"#utility.yul\":38033:38069   */\n      tag_831\n        /* \"#utility.yul\":38059:38068   */\n      dup2\n        /* \"#utility.yul\":38033:38069   */\n      tag_150\n      jump\t// in\n    tag_831:\n        /* \"#utility.yul\":38085:38173   */\n      tag_832\n        /* \"#utility.yul\":38166:38172   */\n      dup2\n        /* \"#utility.yul\":38161:38164   */\n      dup7\n        /* \"#utility.yul\":38085:38173   */\n      tag_486\n      jump\t// in\n    tag_832:\n        /* \"#utility.yul\":38078:38173   */\n      swap5\n      pop\n        /* \"#utility.yul\":38204:38205   */\n      0x01\n        /* \"#utility.yul\":38193:38202   */\n      dup3\n        /* \"#utility.yul\":38189:38206   */\n      and\n        /* \"#utility.yul\":38220:38221   */\n      0x00\n        /* \"#utility.yul\":38215:38381   */\n      dup2\n      eq\n      tag_834\n      jumpi\n        /* \"#utility.yul\":38395:38396   */\n      0x01\n        /* \"#utility.yul\":38390:38734   */\n      dup2\n      eq\n      tag_835\n      jumpi\n        /* \"#utility.yul\":38182:38734   */\n      jump(tag_833)\n        /* \"#utility.yul\":38215:38381   */\n    tag_834:\n        /* \"#utility.yul\":38299:38303   */\n      0xff\n        /* \"#utility.yul\":38295:38304   */\n      not\n        /* \"#utility.yul\":38284:38293   */\n      dup4\n        /* \"#utility.yul\":38280:38305   */\n      and\n        /* \"#utility.yul\":38275:38278   */\n      dup7\n        /* \"#utility.yul\":38268:38306   */\n      mstore\n        /* \"#utility.yul\":38361:38367   */\n      dup2\n        /* \"#utility.yul\":38354:38368   */\n      iszero\n        /* \"#utility.yul\":38347:38369   */\n      iszero\n        /* \"#utility.yul\":38339:38345   */\n      dup3\n        /* \"#utility.yul\":38335:38370   */\n      mul\n        /* \"#utility.yul\":38330:38333   */\n      dup7\n        /* \"#utility.yul\":38326:38371   */\n      add\n        /* \"#utility.yul\":38319:38371   */\n      swap4\n      pop\n        /* \"#utility.yul\":38215:38381   */\n      jump(tag_833)\n        /* \"#utility.yul\":38390:38734   */\n    tag_835:\n        /* \"#utility.yul\":38457:38498   */\n      tag_836\n        /* \"#utility.yul\":38492:38497   */\n      dup6\n        /* \"#utility.yul\":38457:38498   */\n      tag_487\n      jump\t// in\n    tag_836:\n        /* \"#utility.yul\":38520:38521   */\n      0x00\n        /* \"#utility.yul\":38534:38688   */\n    tag_837:\n        /* \"#utility.yul\":38548:38554   */\n      dup4\n        /* \"#utility.yul\":38545:38546   */\n      dup2\n        /* \"#utility.yul\":38542:38555   */\n      lt\n        /* \"#utility.yul\":38534:38688   */\n      iszero\n      tag_839\n      jumpi\n        /* \"#utility.yul\":38622:38629   */\n      dup2\n        /* \"#utility.yul\":38616:38630   */\n      sload\n        /* \"#utility.yul\":38612:38613   */\n      dup2\n        /* \"#utility.yul\":38607:38610   */\n      dup10\n        /* \"#utility.yul\":38603:38614   */\n      add\n        /* \"#utility.yul\":38596:38631   */\n      mstore\n        /* \"#utility.yul\":38672:38673   */\n      0x01\n        /* \"#utility.yul\":38663:38670   */\n      dup3\n        /* \"#utility.yul\":38659:38674   */\n      add\n        /* \"#utility.yul\":38648:38674   */\n      swap2\n      pop\n        /* \"#utility.yul\":38570:38574   */\n      0x20\n        /* \"#utility.yul\":38567:38568   */\n      dup2\n        /* \"#utility.yul\":38563:38575   */\n      add\n        /* \"#utility.yul\":38558:38575   */\n      swap1\n      pop\n        /* \"#utility.yul\":38534:38688   */\n      jump(tag_837)\n    tag_839:\n        /* \"#utility.yul\":38717:38723   */\n      dup4\n        /* \"#utility.yul\":38712:38715   */\n      dup9\n        /* \"#utility.yul\":38708:38724   */\n      add\n        /* \"#utility.yul\":38701:38724   */\n      swap6\n      pop\n        /* \"#utility.yul\":38397:38734   */\n      pop\n      pop\n        /* \"#utility.yul\":38182:38734   */\n    tag_833:\n      pop\n        /* \"#utility.yul\":37971:38740   */\n      pop\n      pop\n        /* \"#utility.yul\":37862:38740   */\n      swap3\n      swap2\n      pop\n      pop\n      jump\t// out\n        /* \"#utility.yul\":38746:39019   */\n    tag_252:\n        /* \"#utility.yul\":38877:38880   */\n      0x00\n        /* \"#utility.yul\":38899:38993   */\n      tag_841\n        /* \"#utility.yul\":38989:38992   */\n      dup3\n        /* \"#utility.yul\":38980:38986   */\n      dup5\n        /* \"#utility.yul\":38899:38993   */\n      tag_488\n      jump\t// in\n    tag_841:\n        /* \"#utility.yul\":38892:38993   */\n      swap2\n      pop\n        /* \"#utility.yul\":39010:39013   */\n      dup2\n        /* \"#utility.yul\":39003:39013   */\n      swap1\n      pop\n        /* \"#utility.yul\":38746:39019   */\n      swap3\n      swap2\n      pop\n      pop\n      jump\t// out\n        /* \"#utility.yul\":39025:39205   */\n    tag_256:\n        /* \"#utility.yul\":39073:39150   */\n      0x4e487b7100000000000000000000000000000000000000000000000000000000\n        /* \"#utility.yul\":39070:39071   */\n      0x00\n        /* \"#utility.yul\":39063:39151   */\n      mstore\n        /* \"#utility.yul\":39170:39174   */\n      0x32\n        /* \"#utility.yul\":39167:39168   */\n      0x04\n        /* \"#utility.yul\":39160:39175   */\n      mstore\n        /* \"#utility.yul\":39194:39198   */\n      0x24\n        /* \"#utility.yul\":39191:39192   */\n      0x00\n        /* \"#utility.yul\":39184:39199   */\n      revert\n        /* \"#utility.yul\":39211:39393   */\n    tag_489:\n        /* \"#utility.yul\":39351:39385   */\n      0x526577617264206d7573742062652067726561746572207468616e207a65726f\n        /* \"#utility.yul\":39347:39348   */\n      0x00\n        /* \"#utility.yul\":39339:39345   */\n      dup3\n        /* \"#utility.yul\":39335:39349   */\n      add\n        /* \"#utility.yul\":39328:39386   */\n      mstore\n        /* \"#utility.yul\":39211:39393   */\n      pop\n      jump\t// out\n        /* \"#utility.yul\":39399:39765   */\n    tag_490:\n        /* \"#utility.yul\":39541:39544   */\n      0x00\n        /* \"#utility.yul\":39562:39629   */\n      tag_845\n        /* \"#utility.yul\":39626:39628   */\n      0x20\n        /* \"#utility.yul\":39621:39624   */\n      dup4\n        /* \"#utility.yul\":39562:39629   */\n      tag_423\n      jump\t// in\n    tag_845:\n        /* \"#utility.yul\":39555:39629   */\n      swap2\n      pop\n        /* \"#utility.yul\":39638:39731   */\n      tag_846\n        /* \"#utility.yul\":39727:39730   */\n      dup3\n        /* \"#utility.yul\":39638:39731   */\n      tag_489\n      jump\t// in\n    tag_846:\n        /* \"#utility.yul\":39756:39758   */\n      0x20\n        /* \"#utility.yul\":39751:39754   */\n      dup3\n        /* \"#utility.yul\":39747:39759   */\n      add\n        /* \"#utility.yul\":39740:39759   */\n      swap1\n      pop\n        /* \"#utility.yul\":39399:39765   */\n      swap2\n      swap1\n      pop\n      jump\t// out\n        /* \"#utility.yul\":39771:40190   */\n    tag_271:\n        /* \"#utility.yul\":39937:39941   */\n      0x00\n        /* \"#utility.yul\":39975:39977   */\n      0x20\n        /* \"#utility.yul\":39964:39973   */\n      dup3\n        /* \"#utility.yul\":39960:39978   */\n      add\n        /* \"#utility.yul\":39952:39978   */\n      swap1\n      pop\n        /* \"#utility.yul\":40024:40033   */\n      dup2\n        /* \"#utility.yul\":40018:40022   */\n      dup2\n        /* \"#utility.yul\":40014:40034   */\n      sub\n        /* \"#utility.yul\":40010:40011   */\n      0x00\n        /* \"#utility.yul\":39999:40008   */\n      dup4\n        /* \"#utility.yul\":39995:40012   */\n      add\n        /* \"#utility.yul\":39988:40035   */\n      mstore\n        /* \"#utility.yul\":40052:40183   */\n      tag_848\n        /* \"#utility.yul\":40178:40182   */\n      dup2\n        /* \"#utility.yul\":40052:40183   */\n      tag_490\n      jump\t// in\n    tag_848:\n        /* \"#utility.yul\":40044:40183   */\n      swap1\n      pop\n        /* \"#utility.yul\":39771:40190   */\n      swap2\n      swap1\n      pop\n      jump\t// out\n        /* \"#utility.yul\":40196:40370   */\n    tag_491:\n        /* \"#utility.yul\":40336:40362   */\n      0x43617465676f72792063616e6e6f7420626520656d7074790000000000000000\n        /* \"#utility.yul\":40332:40333   */\n      0x00\n        /* \"#utility.yul\":40324:40330   */\n      dup3\n        /* \"#utility.yul\":40320:40334   */\n      add\n        /* \"#utility.yul\":40313:40363   */\n      mstore\n        /* \"#utility.yul\":40196:40370   */\n      pop\n      jump\t// out\n        /* \"#utility.yul\":40376:40742   */\n    tag_492:\n        /* \"#utility.yul\":40518:40521   */\n      0x00\n        /* \"#utility.yul\":40539:40606   */\n      tag_851\n        /* \"#utility.yul\":40603:40605   */\n      0x18\n        /* \"#utility.yul\":40598:40601   */\n      dup4\n        /* \"#utility.yul\":40539:40606   */\n      tag_423\n      jump\t// in\n    tag_851:\n        /* \"#utility.yul\":40532:40606   */\n      swap2\n      pop\n        /* \"#utility.yul\":40615:40708   */\n      tag_852\n        /* \"#utility.yul\":40704:40707   */\n      dup3\n        /* \"#utility.yul\":40615:40708   */\n      tag_491\n      jump\t// in\n    tag_852:\n        /* \"#utility.yul\":40733:40735   */\n      0x20\n        /* \"#utility.yul\":40728:40731   */\n      dup3\n        /* \"#utility.yul\":40724:40736   */\n      add\n        /* \"#utility.yul\":40717:40736   */\n      swap1\n      pop\n        /* \"#utility.yul\":40376:40742   */\n      swap2\n      swap1\n      pop\n      jump\t// out\n        /* \"#utility.yul\":40748:41167   */\n    tag_274:\n        /* \"#utility.yul\":40914:40918   */\n      0x00\n        /* \"#utility.yul\":40952:40954   */\n      0x20\n        /* \"#utility.yul\":40941:40950   */\n      dup3\n        /* \"#utility.yul\":40937:40955   */\n      add\n        /* \"#utility.yul\":40929:40955   */\n      swap1\n      pop\n        /* \"#utility.yul\":41001:41010   */\n      dup2\n        /* \"#utility.yul\":40995:40999   */\n      dup2\n        /* \"#utility.yul\":40991:41011   */\n      sub\n        /* \"#utility.yul\":40987:40988   */\n      0x00\n        /* \"#utility.yul\":40976:40985   */\n      dup4\n        /* \"#utility.yul\":40972:40989   */\n      add\n        /* \"#utility.yul\":40965:41012   */\n      mstore\n        /* \"#utility.yul\":41029:41160   */\n      tag_854\n        /* \"#utility.yul\":41155:41159   */\n      dup2\n        /* \"#utility.yul\":41029:41160   */\n      tag_492\n      jump\t// in\n    tag_854:\n        /* \"#utility.yul\":41021:41160   */\n      swap1\n      pop\n        /* \"#utility.yul\":40748:41167   */\n      swap2\n      swap1\n      pop\n      jump\t// out\n        /* \"#utility.yul\":41173:41353   */\n    tag_277:\n        /* \"#utility.yul\":41221:41298   */\n      0x4e487b7100000000000000000000000000000000000000000000000000000000\n        /* \"#utility.yul\":41218:41219   */\n      0x00\n        /* \"#utility.yul\":41211:41299   */\n      mstore\n        /* \"#utility.yul\":41318:41322   */\n      0x21\n        /* \"#utility.yul\":41315:41316   */\n      0x04\n        /* \"#utility.yul\":41308:41323   */\n      mstore\n        /* \"#utility.yul\":41342:41346   */\n      0x24\n        /* \"#utility.yul\":41339:41340   */\n      0x00\n        /* \"#utility.yul\":41332:41347   */\n      revert\n        /* \"#utility.yul\":41359:42094   */\n    tag_301:\n        /* \"#utility.yul\":41576:41580   */\n      0x00\n        /* \"#utility.yul\":41614:41617   */\n      0x80\n        /* \"#utility.yul\":41603:41612   */\n      dup3\n        /* \"#utility.yul\":41599:41618   */\n      add\n        /* \"#utility.yul\":41591:41618   */\n      swap1\n      pop\n        /* \"#utility.yul\":41628:41699   */\n      tag_857\n        /* \"#utility.yul\":41696:41697   */\n      0x00\n        /* \"#utility.yul\":41685:41694   */\n      dup4\n        /* \"#utility.yul\":41681:41698   */\n      add\n        /* \"#utility.yul\":41672:41678   */\n      dup8\n        /* \"#utility.yul\":41628:41699   */\n      tag_426\n      jump\t// in\n    tag_857:\n        /* \"#utility.yul\":41746:41755   */\n      dup2\n        /* \"#utility.yul\":41740:41744   */\n      dup2\n        /* \"#utility.yul\":41736:41756   */\n      sub\n        /* \"#utility.yul\":41731:41733   */\n      0x20\n        /* \"#utility.yul\":41720:41729   */\n      dup4\n        /* \"#utility.yul\":41716:41734   */\n      add\n        /* \"#utility.yul\":41709:41757   */\n      mstore\n        /* \"#utility.yul\":41774:41852   */\n      tag_858\n        /* \"#utility.yul\":41847:41851   */\n      dup2\n        /* \"#utility.yul\":41838:41844   */\n      dup7\n        /* \"#utility.yul\":41774:41852   */\n      tag_425\n      jump\t// in\n    tag_858:\n        /* \"#utility.yul\":41766:41852   */\n      swap1\n      pop\n        /* \"#utility.yul\":41862:41934   */\n      tag_859\n        /* \"#utility.yul\":41930:41932   */\n      0x40\n        /* \"#utility.yul\":41919:41928   */\n      dup4\n        /* \"#utility.yul\":41915:41933   */\n      add\n        /* \"#utility.yul\":41906:41912   */\n      dup6\n        /* \"#utility.yul\":41862:41934   */\n      tag_426\n      jump\t// in\n    tag_859:\n        /* \"#utility.yul\":41981:41990   */\n      dup2\n        /* \"#utility.yul\":41975:41979   */\n      dup2\n        /* \"#utility.yul\":41971:41991   */\n      sub\n        /* \"#utility.yul\":41966:41968   */\n      0x60\n        /* \"#utility.yul\":41955:41964   */\n      dup4\n        /* \"#utility.yul\":41951:41969   */\n      add\n        /* \"#utility.yul\":41944:41992   */\n      mstore\n        /* \"#utility.yul\":42009:42087   */\n      tag_860\n        /* \"#utility.yul\":42082:42086   */\n      dup2\n        /* \"#utility.yul\":42073:42079   */\n      dup5\n        /* \"#utility.yul\":42009:42087   */\n      tag_425\n      jump\t// in\n    tag_860:\n        /* \"#utility.yul\":42001:42087   */\n      swap1\n      pop\n        /* \"#utility.yul\":41359:42094   */\n      swap6\n      swap5\n      pop\n      pop\n      pop\n      pop\n      pop\n      jump\t// out\n        /* \"#utility.yul\":42100:42320   */\n    tag_493:\n        /* \"#utility.yul\":42240:42274   */\n      0x43616e6e6f742064697374726962757465206265666f726520646561646c696e\n        /* \"#utility.yul\":42236:42237   */\n      0x00\n        /* \"#utility.yul\":42228:42234   */\n      dup3\n        /* \"#utility.yul\":42224:42238   */\n      add\n        /* \"#utility.yul\":42217:42275   */\n      mstore\n        /* \"#utility.yul\":42309:42312   */\n      0x6500000000000000000000000000000000000000000000000000000000000000\n        /* \"#utility.yul\":42304:42306   */\n      0x20\n        /* \"#utility.yul\":42296:42302   */\n      dup3\n        /* \"#utility.yul\":42292:42307   */\n      add\n        /* \"#utility.yul\":42285:42313   */\n      mstore\n        /* \"#utility.yul\":42100:42320   */\n      pop\n      jump\t// out\n        /* \"#utility.yul\":42326:42692   */\n    tag_494:\n        /* \"#utility.yul\":42468:42471   */\n      0x00\n        /* \"#utility.yul\":42489:42556   */\n      tag_863\n        /* \"#utility.yul\":42553:42555   */\n      0x21\n        /* \"#utility.yul\":42548:42551   */\n      dup4\n        /* \"#utility.yul\":42489:42556   */\n      tag_423\n      jump\t// in\n    tag_863:\n        /* \"#utility.yul\":42482:42556   */\n      swap2\n      pop\n        /* \"#utility.yul\":42565:42658   */\n      tag_864\n        /* \"#utility.yul\":42654:42657   */\n      dup3\n        /* \"#utility.yul\":42565:42658   */\n      tag_493\n      jump\t// in\n    tag_864:\n        /* \"#utility.yul\":42683:42685   */\n      0x40\n        /* \"#utility.yul\":42678:42681   */\n      dup3\n        /* \"#utility.yul\":42674:42686   */\n      add\n        /* \"#utility.yul\":42667:42686   */\n      swap1\n      pop\n        /* \"#utility.yul\":42326:42692   */\n      swap2\n      swap1\n      pop\n      jump\t// out\n        /* \"#utility.yul\":42698:43117   */\n    tag_308:\n        /* \"#utility.yul\":42864:42868   */\n      0x00\n        /* \"#utility.yul\":42902:42904   */\n      0x20\n        /* \"#utility.yul\":42891:42900   */\n      dup3\n        /* \"#utility.yul\":42887:42905   */\n      add\n        /* \"#utility.yul\":42879:42905   */\n      swap1\n      pop\n        /* \"#utility.yul\":42951:42960   */\n      dup2\n        /* \"#utility.yul\":42945:42949   */\n      dup2\n        /* \"#utility.yul\":42941:42961   */\n      sub\n        /* \"#utility.yul\":42937:42938   */\n      0x00\n        /* \"#utility.yul\":42926:42935   */\n      dup4\n        /* \"#utility.yul\":42922:42939   */\n      add\n        /* \"#utility.yul\":42915:42962   */\n      mstore\n        /* \"#utility.yul\":42979:43110   */\n      tag_866\n        /* \"#utility.yul\":43105:43109   */\n      dup2\n        /* \"#utility.yul\":42979:43110   */\n      tag_494\n      jump\t// in\n    tag_866:\n        /* \"#utility.yul\":42971:43110   */\n      swap1\n      pop\n        /* \"#utility.yul\":42698:43117   */\n      swap2\n      swap1\n      pop\n      jump\t// out\n        /* \"#utility.yul\":43123:43533   */\n    tag_320:\n        /* \"#utility.yul\":43163:43170   */\n      0x00\n        /* \"#utility.yul\":43186:43206   */\n      tag_868\n        /* \"#utility.yul\":43204:43205   */\n      dup3\n        /* \"#utility.yul\":43186:43206   */\n      tag_407\n      jump\t// in\n    tag_868:\n        /* \"#utility.yul\":43181:43206   */\n      swap2\n      pop\n        /* \"#utility.yul\":43220:43240   */\n      tag_869\n        /* \"#utility.yul\":43238:43239   */\n      dup4\n        /* \"#utility.yul\":43220:43240   */\n      tag_407\n      jump\t// in\n    tag_869:\n        /* \"#utility.yul\":43215:43240   */\n      swap3\n      pop\n        /* \"#utility.yul\":43275:43276   */\n      dup3\n        /* \"#utility.yul\":43272:43273   */\n      dup3\n        /* \"#utility.yul\":43268:43277   */\n      mul\n        /* \"#utility.yul\":43297:43327   */\n      tag_870\n        /* \"#utility.yul\":43315:43326   */\n      dup2\n        /* \"#utility.yul\":43297:43327   */\n      tag_407\n      jump\t// in\n    tag_870:\n        /* \"#utility.yul\":43286:43327   */\n      swap2\n      pop\n        /* \"#utility.yul\":43476:43477   */\n      dup3\n        /* \"#utility.yul\":43467:43474   */\n      dup3\n        /* \"#utility.yul\":43463:43478   */\n      div\n        /* \"#utility.yul\":43460:43461   */\n      dup5\n        /* \"#utility.yul\":43457:43479   */\n      eq\n        /* \"#utility.yul\":43437:43438   */\n      dup4\n        /* \"#utility.yul\":43430:43439   */\n      iszero\n        /* \"#utility.yul\":43410:43493   */\n      or\n        /* \"#utility.yul\":43387:43526   */\n      tag_871\n      jumpi\n        /* \"#utility.yul\":43506:43524   */\n      tag_872\n      tag_462\n      jump\t// in\n    tag_872:\n        /* \"#utility.yul\":43387:43526   */\n    tag_871:\n        /* \"#utility.yul\":43171:43533   */\n      pop\n        /* \"#utility.yul\":43123:43533   */\n      swap3\n      swap2\n      pop\n      pop\n      jump\t// out\n        /* \"#utility.yul\":43539:43719   */\n    tag_495:\n        /* \"#utility.yul\":43587:43664   */\n      0x4e487b7100000000000000000000000000000000000000000000000000000000\n        /* \"#utility.yul\":43584:43585   */\n      0x00\n        /* \"#utility.yul\":43577:43665   */\n      mstore\n        /* \"#utility.yul\":43684:43688   */\n      0x12\n        /* \"#utility.yul\":43681:43682   */\n      0x04\n        /* \"#utility.yul\":43674:43689   */\n      mstore\n        /* \"#utility.yul\":43708:43712   */\n      0x24\n        /* \"#utility.yul\":43705:43706   */\n      0x00\n        /* \"#utility.yul\":43698:43713   */\n      revert\n        /* \"#utility.yul\":43725:43910   */\n    tag_322:\n        /* \"#utility.yul\":43765:43766   */\n      0x00\n        /* \"#utility.yul\":43782:43802   */\n      tag_875\n        /* \"#utility.yul\":43800:43801   */\n      dup3\n        /* \"#utility.yul\":43782:43802   */\n      tag_407\n      jump\t// in\n    tag_875:\n        /* \"#utility.yul\":43777:43802   */\n      swap2\n      pop\n        /* \"#utility.yul\":43816:43836   */\n      tag_876\n        /* \"#utility.yul\":43834:43835   */\n      dup4\n        /* \"#utility.yul\":43816:43836   */\n      tag_407\n      jump\t// in\n    tag_876:\n        /* \"#utility.yul\":43811:43836   */\n      swap3\n      pop\n        /* \"#utility.yul\":43855:43856   */\n      dup3\n        /* \"#utility.yul\":43845:43880   */\n      tag_877\n      jumpi\n        /* \"#utility.yul\":43860:43878   */\n      tag_878\n      tag_495\n      jump\t// in\n    tag_878:\n        /* \"#utility.yul\":43845:43880   */\n    tag_877:\n        /* \"#utility.yul\":43902:43903   */\n      dup3\n        /* \"#utility.yul\":43899:43900   */\n      dup3\n        /* \"#utility.yul\":43895:43904   */\n      div\n        /* \"#utility.yul\":43890:43904   */\n      swap1\n      pop\n        /* \"#utility.yul\":43725:43910   */\n      swap3\n      swap2\n      pop\n      pop\n      jump\t// out\n        /* \"#utility.yul\":43916:44094   */\n    tag_496:\n        /* \"#utility.yul\":44056:44086   */\n      0x5061676520696e646578206d7573742073746172742066726f6d203100000000\n        /* \"#utility.yul\":44052:44053   */\n      0x00\n        /* \"#utility.yul\":44044:44050   */\n      dup3\n        /* \"#utility.yul\":44040:44054   */\n      add\n        /* \"#utility.yul\":44033:44087   */\n      mstore\n        /* \"#utility.yul\":43916:44094   */\n      pop\n      jump\t// out\n        /* \"#utility.yul\":44100:44466   */\n    tag_497:\n        /* \"#utility.yul\":44242:44245   */\n      0x00\n        /* \"#utility.yul\":44263:44330   */\n      tag_881\n        /* \"#utility.yul\":44327:44329   */\n      0x1c\n        /* \"#utility.yul\":44322:44325   */\n      dup4\n        /* \"#utility.yul\":44263:44330   */\n      tag_423\n      jump\t// in\n    tag_881:\n        /* \"#utility.yul\":44256:44330   */\n      swap2\n      pop\n        /* \"#utility.yul\":44339:44432   */\n      tag_882\n        /* \"#utility.yul\":44428:44431   */\n      dup3\n        /* \"#utility.yul\":44339:44432   */\n      tag_496\n      jump\t// in\n    tag_882:\n        /* \"#utility.yul\":44457:44459   */\n      0x20\n        /* \"#utility.yul\":44452:44455   */\n      dup3\n        /* \"#utility.yul\":44448:44460   */\n      add\n        /* \"#utility.yul\":44441:44460   */\n      swap1\n      pop\n        /* \"#utility.yul\":44100:44466   */\n      swap2\n      swap1\n      pop\n      jump\t// out\n        /* \"#utility.yul\":44472:44891   */\n    tag_349:\n        /* \"#utility.yul\":44638:44642   */\n      0x00\n        /* \"#utility.yul\":44676:44678   */\n      0x20\n        /* \"#utility.yul\":44665:44674   */\n      dup3\n        /* \"#utility.yul\":44661:44679   */\n      add\n        /* \"#utility.yul\":44653:44679   */\n      swap1\n      pop\n        /* \"#utility.yul\":44725:44734   */\n      dup2\n        /* \"#utility.yul\":44719:44723   */\n      dup2\n        /* \"#utility.yul\":44715:44735   */\n      sub\n        /* \"#utility.yul\":44711:44712   */\n      0x00\n        /* \"#utility.yul\":44700:44709   */\n      dup4\n        /* \"#utility.yul\":44696:44713   */\n      add\n        /* \"#utility.yul\":44689:44736   */\n      mstore\n        /* \"#utility.yul\":44753:44884   */\n      tag_884\n        /* \"#utility.yul\":44879:44883   */\n      dup2\n        /* \"#utility.yul\":44753:44884   */\n      tag_497\n      jump\t// in\n    tag_884:\n        /* \"#utility.yul\":44745:44884   */\n      swap1\n      pop\n        /* \"#utility.yul\":44472:44891   */\n      swap2\n      swap1\n      pop\n      jump\t// out\n        /* \"#utility.yul\":44897:45079   */\n    tag_498:\n        /* \"#utility.yul\":45037:45071   */\n      0x506167652073697a65206d7573742062652067726561746572207468616e2030\n        /* \"#utility.yul\":45033:45034   */\n      0x00\n        /* \"#utility.yul\":45025:45031   */\n      dup3\n        /* \"#utility.yul\":45021:45035   */\n      add\n        /* \"#utility.yul\":45014:45072   */\n      mstore\n        /* \"#utility.yul\":44897:45079   */\n      pop\n      jump\t// out\n        /* \"#utility.yul\":45085:45451   */\n    tag_499:\n        /* \"#utility.yul\":45227:45230   */\n      0x00\n        /* \"#utility.yul\":45248:45315   */\n      tag_887\n        /* \"#utility.yul\":45312:45314   */\n      0x20\n        /* \"#utility.yul\":45307:45310   */\n      dup4\n        /* \"#utility.yul\":45248:45315   */\n      tag_423\n      jump\t// in\n    tag_887:\n        /* \"#utility.yul\":45241:45315   */\n      swap2\n      pop\n        /* \"#utility.yul\":45324:45417   */\n      tag_888\n        /* \"#utility.yul\":45413:45416   */\n      dup3\n        /* \"#utility.yul\":45324:45417   */\n      tag_498\n      jump\t// in\n    tag_888:\n        /* \"#utility.yul\":45442:45444   */\n      0x20\n        /* \"#utility.yul\":45437:45440   */\n      dup3\n        /* \"#utility.yul\":45433:45445   */\n      add\n        /* \"#utility.yul\":45426:45445   */\n      swap1\n      pop\n        /* \"#utility.yul\":45085:45451   */\n      swap2\n      swap1\n      pop\n      jump\t// out\n        /* \"#utility.yul\":45457:45876   */\n    tag_352:\n        /* \"#utility.yul\":45623:45627   */\n      0x00\n        /* \"#utility.yul\":45661:45663   */\n      0x20\n        /* \"#utility.yul\":45650:45659   */\n      dup3\n        /* \"#utility.yul\":45646:45664   */\n      add\n        /* \"#utility.yul\":45638:45664   */\n      swap1\n      pop\n        /* \"#utility.yul\":45710:45719   */\n      dup2\n        /* \"#utility.yul\":45704:45708   */\n      dup2\n        /* \"#utility.yul\":45700:45720   */\n      sub\n        /* \"#utility.yul\":45696:45697   */\n      0x00\n        /* \"#utility.yul\":45685:45694   */\n      dup4\n        /* \"#utility.yul\":45681:45698   */\n      add\n        /* \"#utility.yul\":45674:45721   */\n      mstore\n        /* \"#utility.yul\":45738:45869   */\n      tag_890\n        /* \"#utility.yul\":45864:45868   */\n      dup2\n        /* \"#utility.yul\":45738:45869   */\n      tag_499\n      jump\t// in\n    tag_890:\n        /* \"#utility.yul\":45730:45869   */\n      swap1\n      pop\n        /* \"#utility.yul\":45457:45876   */\n      swap2\n      swap1\n      pop\n      jump\t// out\n        /* \"#utility.yul\":45882:46076   */\n    tag_354:\n        /* \"#utility.yul\":45922:45926   */\n      0x00\n        /* \"#utility.yul\":45942:45962   */\n      tag_892\n        /* \"#utility.yul\":45960:45961   */\n      dup3\n        /* \"#utility.yul\":45942:45962   */\n      tag_407\n      jump\t// in\n    tag_892:\n        /* \"#utility.yul\":45937:45962   */\n      swap2\n      pop\n        /* \"#utility.yul\":45976:45996   */\n      tag_893\n        /* \"#utility.yul\":45994:45995   */\n      dup4\n        /* \"#utility.yul\":45976:45996   */\n      tag_407\n      jump\t// in\n    tag_893:\n        /* \"#utility.yul\":45971:45996   */\n      swap3\n      pop\n        /* \"#utility.yul\":46020:46021   */\n      dup3\n        /* \"#utility.yul\":46017:46018   */\n      dup3\n        /* \"#utility.yul\":46013:46022   */\n      sub\n        /* \"#utility.yul\":46005:46022   */\n      swap1\n      pop\n        /* \"#utility.yul\":46044:46045   */\n      dup2\n        /* \"#utility.yul\":46038:46042   */\n      dup2\n        /* \"#utility.yul\":46035:46046   */\n      gt\n        /* \"#utility.yul\":46032:46069   */\n      iszero\n      tag_894\n      jumpi\n        /* \"#utility.yul\":46049:46067   */\n      tag_895\n      tag_462\n      jump\t// in\n    tag_895:\n        /* \"#utility.yul\":46032:46069   */\n    tag_894:\n        /* \"#utility.yul\":45882:46076   */\n      swap3\n      swap2\n      pop\n      pop\n      jump\t// out\n        /* \"#utility.yul\":46082:46250   */\n    tag_500:\n        /* \"#utility.yul\":46222:46242   */\n      0x496e76616c6964207061676520696e6465780000000000000000000000000000\n        /* \"#utility.yul\":46218:46219   */\n      0x00\n        /* \"#utility.yul\":46210:46216   */\n      dup3\n        /* \"#utility.yul\":46206:46220   */\n      add\n        /* \"#utility.yul\":46199:46243   */\n      mstore\n        /* \"#utility.yul\":46082:46250   */\n      pop\n      jump\t// out\n        /* \"#utility.yul\":46256:46622   */\n    tag_501:\n        /* \"#utility.yul\":46398:46401   */\n      0x00\n        /* \"#utility.yul\":46419:46486   */\n      tag_898\n        /* \"#utility.yul\":46483:46485   */\n      0x12\n        /* \"#utility.yul\":46478:46481   */\n      dup4\n        /* \"#utility.yul\":46419:46486   */\n      tag_423\n      jump\t// in\n    tag_898:\n        /* \"#utility.yul\":46412:46486   */\n      swap2\n      pop\n        /* \"#utility.yul\":46495:46588   */\n      tag_899\n        /* \"#utility.yul\":46584:46587   */\n      dup3\n        /* \"#utility.yul\":46495:46588   */\n      tag_500\n      jump\t// in\n    tag_899:\n        /* \"#utility.yul\":46613:46615   */\n      0x20\n        /* \"#utility.yul\":46608:46611   */\n      dup3\n        /* \"#utility.yul\":46604:46616   */\n      add\n        /* \"#utility.yul\":46597:46616   */\n      swap1\n      pop\n        /* \"#utility.yul\":46256:46622   */\n      swap2\n      swap1\n      pop\n      jump\t// out\n        /* \"#utility.yul\":46628:47047   */\n    tag_366:\n        /* \"#utility.yul\":46794:46798   */\n      0x00\n        /* \"#utility.yul\":46832:46834   */\n      0x20\n        /* \"#utility.yul\":46821:46830   */\n      dup3\n        /* \"#utility.yul\":46817:46835   */\n      add\n        /* \"#utility.yul\":46809:46835   */\n      swap1\n      pop\n        /* \"#utility.yul\":46881:46890   */\n      dup2\n        /* \"#utility.yul\":46875:46879   */\n      dup2\n        /* \"#utility.yul\":46871:46891   */\n      sub\n        /* \"#utility.yul\":46867:46868   */\n      0x00\n        /* \"#utility.yul\":46856:46865   */\n      dup4\n        /* \"#utility.yul\":46852:46869   */\n      add\n        /* \"#utility.yul\":46845:46892   */\n      mstore\n        /* \"#utility.yul\":46909:47040   */\n      tag_901\n        /* \"#utility.yul\":47035:47039   */\n      dup2\n        /* \"#utility.yul\":46909:47040   */\n      tag_501\n      jump\t// in\n    tag_901:\n        /* \"#utility.yul\":46901:47040   */\n      swap1\n      pop\n        /* \"#utility.yul\":46628:47047   */\n      swap2\n      swap1\n      pop\n      jump\t// out\n\n    auxdata: 0xa264697066735822122034402651de7985c0f00734f8bcc149c33ebfcac158f39f082e4d1d79dcb4584264736f6c634300081a0033\n}\n",
				"bytecode": {
					"linkReferences": {},
					"object": "6080604052662386f26fc100006001553480156019575f80fd5b50335f806101000a81548173ffffffffffffffffffffffffffffffffffffffff021916908373ffffffffffffffffffffffffffffffffffffffff16021790555060016002819055506001600381905550613d99806100765f395ff3fe608060405260043610610129575f3560e01c806359974e38116100aa578063cba130301161006e578063cba13030146103d4578063d5999a5c146103fe578063da2b4c1e14610428578063e25f3e0214610452578063f4359ce51461048e578063fd1df035146104b857610129565b806359974e381461030457806361e786171461032c5780638da5cb5b14610356578063934d1fa414610380578063b69ef8a8146103aa57610129565b806331b1b978116100f157806331b1b978146102155780633ccfd60b1461025a5780634a8f164f1461027057806355ce8034146102ac578063572491c3146102e857610129565b806301b49d471461012d57806301fa3bec146101555780632401519c1461017d5780632690567e146101bd57806327e235e3146101d9575b5f80fd5b348015610138575f80fd5b50610153600480360381019061014e9190612764565b6104f6565b005b348015610160575f80fd5b5061017b600480360381019061017691906128de565b610704565b005b348015610188575f80fd5b506101a3600480360381019061019e9190612764565b610c0a565b6040516101b49594939291906129e6565b60405180910390f35b6101d760048036038101906101d29190612764565b610cec565b005b3480156101e4575f80fd5b506101ff60048036038101906101fa9190612a68565b6111ab565b60405161020c9190612a93565b60405180910390f35b348015610220575f80fd5b5061023b60048036038101906102369190612aac565b6111c0565b6040516102519a99989796959493929190612af1565b60405180910390f35b348015610265575f80fd5b5061026e6113cd565b005b34801561027b575f80fd5b5061029660048036038101906102919190612764565b6114d9565b6040516102a39190612c79565b60405180910390f35b3480156102b7575f80fd5b506102d260048036038101906102cd9190612c99565b6116c5565b6040516102df9190612d88565b60405180910390f35b61030260048036038101906102fd9190612dcb565b611842565b005b34801561030f575f80fd5b5061032a60048036038101906103259190612aac565b611b4a565b005b348015610337575f80fd5b50610340611e03565b60405161034d9190612a93565b60405180910390f35b348015610361575f80fd5b5061036a611e09565b6040516103779190612e83565b60405180910390f35b34801561038b575f80fd5b50610394611e2c565b6040516103a19190612a93565b60405180910390f35b3480156103b5575f80fd5b506103be611e33565b6040516103cb9190612a93565b60405180910390f35b3480156103df575f80fd5b506103e8611e3a565b6040516103f59190612a93565b60405180910390f35b348015610409575f80fd5b50610412611e40565b60405161041f9190612a93565b60405180910390f35b348015610433575f80fd5b5061043c611e47565b6040516104499190612a93565b60405180910390f35b34801561045d575f80fd5b5061047860048036038101906104739190612aac565b611e4d565b6040516104859190612f90565b60405180910390f35b348015610499575f80fd5b506104a261216a565b6040516104af9190612a93565b60405180910390f35b3480156104c3575f80fd5b506104de60048036038101906104d99190612764565b612171565b6040516104ed93929190613150565b60405180910390f35b815f73ffffffffffffffffffffffffffffffffffffffff1660045f8381526020019081526020015f206001015f9054906101000a900473ffffffffffffffffffffffffffffffffffffffff1673ffffffffffffffffffffffffffffffffffffffff1603610598576040517f08c379a000000000000000000000000000000000000000000000000000000000815260040161058f906131d6565b60405180910390fd5b8260045f8281526020019081526020015f206008015f9054906101000a900460ff16156105fa576040517f08c379a00000000000000000000000000000000000000000000000000000000081526004016105f19061323e565b60405180910390fd5b5f60045f8681526020019081526020015f209050806001015f9054906101000a900473ffffffffffffffffffffffffffffffffffffffff1673ffffffffffffffffffffffffffffffffffffffff163373ffffffffffffffffffffffffffffffffffffffff161461069f576040517f08c379a0000000000000000000000000000000000000000000000000000000008152600401610696906132a6565b60405180910390fd5b6001816008015f6101000a81548160ff0219169083151502179055508381600901819055507f99fe2c8abd13b610e7f7d4a51a49e1391ba19454b72305176b884d66010e475a85856040516106f59291906132c4565b60405180910390a15050505050565b815f73ffffffffffffffffffffffffffffffffffffffff1660045f8381526020019081526020015f206001015f9054906101000a900473ffffffffffffffffffffffffffffffffffffffff1673ffffffffffffffffffffffffffffffffffffffff16036107a6576040517f08c379a000000000000000000000000000000000000000000000000000000000815260040161079d906131d6565b60405180910390fd5b8260045f8281526020019081526020015f206008015f9054906101000a900460ff1615610808576040517f08c379a00000000000000000000000000000000000000000000000000000000081526004016107ff9061323e565b60405180910390fd5b5f60045f8681526020019081526020015f20604051806101400160405290815f8201548152602001600182015f9054906101000a900473ffffffffffffffffffffffffffffffffffffffff1673ffffffffffffffffffffffffffffffffffffffff1673ffffffffffffffffffffffffffffffffffffffff16815260200160028201805461089490613318565b80601f01602080910402602001604051908101604052809291908181526020018280546108c090613318565b801561090b5780601f106108e25761010080835404028352916020019161090b565b820191905f5260205f20905b8154815290600101906020018083116108ee57829003601f168201915b5050505050815260200160038201805461092490613318565b80601f016020809104026020016040519081016040528092919081815260200182805461095090613318565b801561099b5780601f106109725761010080835404028352916020019161099b565b820191905f5260205f20905b81548152906001019060200180831161097e57829003601f168201915b505050505081526020016004820180546109b490613318565b80601f01602080910402602001604051908101604052809291908181526020018280546109e090613318565b8015610a2b5780601f10610a0257610100808354040283529160200191610a2b565b820191905f5260205f20905b815481529060010190602001808311610a0e57829003601f168201915b50505050508152602001600582015481526020016006820154815260200160078201548152602001600882015f9054906101000a900460ff1615151515815260200160098201548152505090508060e00151421115610abf576040517f08c379a0000000000000000000000000000000000000000000000000000000008152600401610ab690613392565b60405180910390fd5b5f60035f815480929190610ad2906133dd565b9190505590506040518060a001604052803373ffffffffffffffffffffffffffffffffffffffff1681526020018681526020015f81526020015f81526020014281525060055f8881526020019081526020015f205f8381526020019081526020015f205f820151815f015f6101000a81548173ffffffffffffffffffffffffffffffffffffffff021916908373ffffffffffffffffffffffffffffffffffffffff1602179055506020820151816001019081610b8e91906135c1565b506040820151816002015560608201518160030155608082015181600401559050503373ffffffffffffffffffffffffffffffffffffffff167f1b72a809869907cac4c4e55b8bf6920ff492d2ff53307bb77ba492366b61387c878388604051610bfa93929190613690565b60405180910390a2505050505050565b6005602052815f5260405f20602052805f5260405f205f9150915050805f015f9054906101000a900473ffffffffffffffffffffffffffffffffffffffff1690806001018054610c5990613318565b80601f0160208091040260200160405190810160405280929190818152602001828054610c8590613318565b8015610cd05780601f10610ca757610100808354040283529160200191610cd0565b820191905f5260205f20905b815481529060010190602001808311610cb357829003601f168201915b5050505050908060020154908060030154908060040154905085565b815f73ffffffffffffffffffffffffffffffffffffffff1660045f8381526020019081526020015f206001015f9054906101000a900473ffffffffffffffffffffffffffffffffffffffff1673ffffffffffffffffffffffffffffffffffffffff1603610d8e576040517f08c379a0000000000000000000000000000000000000000000000000000000008152600401610d85906131d6565b60405180910390fd5b8260045f8281526020019081526020015f206008015f9054906101000a900460ff1615610df0576040517f08c379a0000000000000000000000000000000000000000000000000000000008152600401610de79061323e565b60405180910390fd5b5f60045f8681526020019081526020015f20604051806101400160405290815f8201548152602001600182015f9054906101000a900473ffffffffffffffffffffffffffffffffffffffff1673ffffffffffffffffffffffffffffffffffffffff1673ffffffffffffffffffffffffffffffffffffffff168152602001600282018054610e7c90613318565b80601f0160208091040260200160405190810160405280929190818152602001828054610ea890613318565b8015610ef35780601f10610eca57610100808354040283529160200191610ef3565b820191905f5260205f20905b815481529060010190602001808311610ed657829003601f168201915b50505050508152602001600382018054610f0c90613318565b80601f0160208091040260200160405190810160405280929190818152602001828054610f3890613318565b8015610f835780601f10610f5a57610100808354040283529160200191610f83565b820191905f5260205f20905b815481529060010190602001808311610f6657829003601f168201915b50505050508152602001600482018054610f9c90613318565b80601f0160208091040260200160405190810160405280929190818152602001828054610fc890613318565b80156110135780601f10610fea57610100808354040283529160200191611013565b820191905f5260205f20905b815481529060010190602001808311610ff657829003601f168201915b50505050508152602001600582015481526020016006820154815260200160078201548152602001600882015f9054906101000a900460ff1615151515815260200160098201548152505090508060e001514211156110a7576040517f08c379a000000000000000000000000000000000000000000000000000000000815260040161109e90613716565b60405180910390fd5b60015434146110eb576040517f08c379a00000000000000000000000000000000000000000000000000000000081526004016110e29061377e565b60405180910390fd5b5f60055f8781526020019081526020015f205f8681526020019081526020015f2090506001816002015f828254611122919061379c565b925050819055503460045f8881526020019081526020015f206005015f82825461114c919061379c565b925050819055503373ffffffffffffffffffffffffffffffffffffffff167fd91ecafccf238642dccd41161308b3eebe62a12bc5819daf5164780c221ec95b878760405161119b9291906132c4565b60405180910390a2505050505050565b6006602052805f5260405f205f915090505481565b6004602052805f5260405f205f91509050805f015490806001015f9054906101000a900473ffffffffffffffffffffffffffffffffffffffff169080600201805461120a90613318565b80601f016020809104026020016040519081016040528092919081815260200182805461123690613318565b80156112815780601f1061125857610100808354040283529160200191611281565b820191905f5260205f20905b81548152906001019060200180831161126457829003601f168201915b50505050509080600301805461129690613318565b80601f01602080910402602001604051908101604052809291908181526020018280546112c290613318565b801561130d5780601f106112e45761010080835404028352916020019161130d565b820191905f5260205f20905b8154815290600101906020018083116112f057829003601f168201915b50505050509080600401805461132290613318565b80601f016020809104026020016040519081016040528092919081815260200182805461134e90613318565b80156113995780601f1061137057610100808354040283529160200191611399565b820191905f5260205f20905b81548152906001019060200180831161137c57829003601f168201915b505050505090806005015490806006015490806007015490806008015f9054906101000a900460ff1690806009015490508a565b5f60065f3373ffffffffffffffffffffffffffffffffffffffff1673ffffffffffffffffffffffffffffffffffffffff1681526020019081526020015f205490505f8111611450576040517f08c379a000000000000000000000000000000000000000000000000000000000815260040161144790613819565b60405180910390fd5b5f60065f3373ffffffffffffffffffffffffffffffffffffffff1673ffffffffffffffffffffffffffffffffffffffff1681526020019081526020015f20819055503373ffffffffffffffffffffffffffffffffffffffff166108fc8290811502906040515f60405180830381858888f193505050501580156114d5573d5f803e3d5ffd5b5050565b6114e161267b565b5f73ffffffffffffffffffffffffffffffffffffffff1660055f8581526020019081526020015f205f8481526020019081526020015f205f015f9054906101000a900473ffffffffffffffffffffffffffffffffffffffff1673ffffffffffffffffffffffffffffffffffffffff1603611590576040517f08c379a000000000000000000000000000000000000000000000000000000000815260040161158790613881565b60405180910390fd5b60055f8481526020019081526020015f205f8381526020019081526020015f206040518060a00160405290815f82015f9054906101000a900473ffffffffffffffffffffffffffffffffffffffff1673ffffffffffffffffffffffffffffffffffffffff1673ffffffffffffffffffffffffffffffffffffffff16815260200160018201805461161f90613318565b80601f016020809104026020016040519081016040528092919081815260200182805461164b90613318565b80156116965780601f1061166d57610100808354040283529160200191611696565b820191905f5260205f20905b81548152906001019060200180831161167957829003601f168201915b505050505081526020016002820154815260200160038201548152602001600482015481525050905092915050565b60605f60025467ffffffffffffffff8111156116e4576116e36127ba565b5b6040519080825280602002602001820160405280156117125781602001602082028036833780820191505090505b5090505f80600190505b60025481101561179857848051906020012060045f8381526020019081526020015f2060040160405161174f919061393b565b60405180910390200361178b57808383815181106117705761176f613951565b5b6020026020010181815250508180611787906133dd565b9250505b808060010191505061171c565b505f8167ffffffffffffffff8111156117b4576117b36127ba565b5b6040519080825280602002602001820160405280156117e25781602001602082028036833780820191505090505b5090505f5b828110156118365783818151811061180257611801613951565b5b602002602001015182828151811061181d5761181c613951565b5b60200260200101818152505080806001019150506117e7565b50809350505050919050565b5f3411611884576040517f08c379a000000000000000000000000000000000000000000000000000000000815260040161187b906139c8565b60405180910390fd5b5f8251116118c7576040517f08c379a00000000000000000000000000000000000000000000000000000000081526004016118be90613a30565b60405180910390fd5b5f8060028111156118db576118da613a4e565b5b8260028111156118ee576118ed613a4e565b5b036119095762093a8042611902919061379c565b905061198a565b6001600281111561191d5761191c613a4e565b5b8260028111156119305761192f613a4e565b5b0361194b576212750042611944919061379c565b9050611989565b60028081111561195e5761195d613a4e565b5b82600281111561197157611970613a4e565b5b036119885762278d0042611985919061379c565b90505b5b5b5f60025f81548092919061199d906133dd565b9190505590506040518061014001604052808281526020013373ffffffffffffffffffffffffffffffffffffffff1681526020018781526020018681526020018581526020013481526020014281526020018381526020015f151581526020015f81525060045f8381526020019081526020015f205f820151815f01556020820151816001015f6101000a81548173ffffffffffffffffffffffffffffffffffffffff021916908373ffffffffffffffffffffffffffffffffffffffff1602179055506040820151816002019081611a7591906135c1565b506060820151816003019081611a8b91906135c1565b506080820151816004019081611aa191906135c1565b5060a0820151816005015560c0820151816006015560e08201518160070155610100820151816008015f6101000a81548160ff02191690831515021790555061012082015181600901559050503373ffffffffffffffffffffffffffffffffffffffff167fb8105899d34d8481e717a601e8d7a732c27b0ab23778e01145f2f3eb24a1120c82883488604051611b3a9493929190613a7b565b60405180910390a2505050505050565b805f73ffffffffffffffffffffffffffffffffffffffff1660045f8381526020019081526020015f206001015f9054906101000a900473ffffffffffffffffffffffffffffffffffffffff1673ffffffffffffffffffffffffffffffffffffffff1603611bec576040517f08c379a0000000000000000000000000000000000000000000000000000000008152600401611be3906131d6565b60405180910390fd5b5f60045f8481526020019081526020015f20905080600701544211611c46576040517f08c379a0000000000000000000000000000000000000000000000000000000008152600401611c3d90613b3c565b60405180910390fd5b806008015f9054906101000a900460ff1615611c97576040517f08c379a0000000000000000000000000000000000000000000000000000000008152600401611c8e9061323e565b60405180910390fd5b5f80826005015490505f5b600354811015611cea5760055f8781526020019081526020015f205f8281526020019081526020015f206002015483611cdb919061379c565b92508080600101915050611ca2565b505f5b600354811015611ddf575f60055f8881526020019081526020015f205f8381526020019081526020015f2090505f841115611dd1575f84848360020154611d349190613b5a565b611d3e9190613bc8565b905080826003015f828254611d53919061379c565b925050819055508060065f845f015f9054906101000a900473ffffffffffffffffffffffffffffffffffffffff1673ffffffffffffffffffffffffffffffffffffffff1673ffffffffffffffffffffffffffffffffffffffff1681526020019081526020015f205f828254611dc8919061379c565b92505081905550505b508080600101915050611ced565b506001836008015f6101000a81548160ff0219169083151502179055505050505050565b60025481565b5f8054906101000a900473ffffffffffffffffffffffffffffffffffffffff1681565b6212750081565b5f47905090565b60035481565b62278d0081565b60015481565b611e556126bc565b5f73ffffffffffffffffffffffffffffffffffffffff1660045f8481526020019081526020015f206001015f9054906101000a900473ffffffffffffffffffffffffffffffffffffffff1673ffffffffffffffffffffffffffffffffffffffff1603611ef6576040517f08c379a0000000000000000000000000000000000000000000000000000000008152600401611eed906131d6565b60405180910390fd5b60045f8381526020019081526020015f20604051806101400160405290815f8201548152602001600182015f9054906101000a900473ffffffffffffffffffffffffffffffffffffffff1673ffffffffffffffffffffffffffffffffffffffff1673ffffffffffffffffffffffffffffffffffffffff168152602001600282018054611f8190613318565b80601f0160208091040260200160405190810160405280929190818152602001828054611fad90613318565b8015611ff85780601f10611fcf57610100808354040283529160200191611ff8565b820191905f5260205f20905b815481529060010190602001808311611fdb57829003601f168201915b5050505050815260200160038201805461201190613318565b80601f016020809104026020016040519081016040528092919081815260200182805461203d90613318565b80156120885780601f1061205f57610100808354040283529160200191612088565b820191905f5260205f20905b81548152906001019060200180831161206b57829003601f168201915b505050505081526020016004820180546120a190613318565b80601f01602080910402602001604051908101604052809291908181526020018280546120cd90613318565b80156121185780601f106120ef57610100808354040283529160200191612118565b820191905f5260205f20905b8154815290600101906020018083116120fb57829003601f168201915b50505050508152602001600582015481526020016006820154815260200160078201548152602001600882015f9054906101000a900460ff161515151581526020016009820154815250509050919050565b62093a8081565b60605f805f85116121b7576040517f08c379a00000000000000000000000000000000000000000000000000000000081526004016121ae90613c42565b60405180910390fd5b5f84116121f9576040517f08c379a00000000000000000000000000000000000000000000000000000000081526004016121f090613caa565b60405180910390fd5b60016002546122089190613cc8565b91505f8203612272575f67ffffffffffffffff81111561222b5761222a6127ba565b5b60405190808252806020026020018201604052801561226457816020015b6122516126bc565b8152602001906001900390816122495790505b505f80925092509250612674565b8360018584612281919061379c565b61228b9190613cc8565b6122959190613bc8565b9050808511156122da576040517f08c379a00000000000000000000000000000000000000000000000000000000081526004016122d190613d45565b60405180910390fd5b5f6001856001886122eb9190613cc8565b6122f59190613b5a565b6122ff919061379c565b90505f60018683612310919061379c565b61231a9190613cc8565b9050600160025461232b9190613cc8565b8111156123445760016002546123419190613cc8565b90505b5f600183836123539190613cc8565b61235d919061379c565b90508067ffffffffffffffff811115612379576123786127ba565b5b6040519080825280602002602001820160405280156123b257816020015b61239f6126bc565b8152602001906001900390816123975790505b5095505f808490505b83811161266e5760045f8281526020019081526020015f20604051806101400160405290815f8201548152602001600182015f9054906101000a900473ffffffffffffffffffffffffffffffffffffffff1673ffffffffffffffffffffffffffffffffffffffff1673ffffffffffffffffffffffffffffffffffffffff16815260200160028201805461244d90613318565b80601f016020809104026020016040519081016040528092919081815260200182805461247990613318565b80156124c45780601f1061249b576101008083540402835291602001916124c4565b820191905f5260205f20905b8154815290600101906020018083116124a757829003601f168201915b505050505081526020016003820180546124dd90613318565b80601f016020809104026020016040519081016040528092919081815260200182805461250990613318565b80156125545780601f1061252b57610100808354040283529160200191612554565b820191905f5260205f20905b81548152906001019060200180831161253757829003601f168201915b5050505050815260200160048201805461256d90613318565b80601f016020809104026020016040519081016040528092919081815260200182805461259990613318565b80156125e45780601f106125bb576101008083540402835291602001916125e4565b820191905f5260205f20905b8154815290600101906020018083116125c757829003601f168201915b50505050508152602001600582015481526020016006820154815260200160078201548152602001600882015f9054906101000a900460ff1615151515815260200160098201548152505088838151811061264257612641613951565b5b60200260200101819052508180612658906133dd565b9250508080612666906133dd565b9150506123bb565b50505050505b9250925092565b6040518060a001604052805f73ffffffffffffffffffffffffffffffffffffffff168152602001606081526020015f81526020015f81526020015f81525090565b6040518061014001604052805f81526020015f73ffffffffffffffffffffffffffffffffffffffff1681526020016060815260200160608152602001606081526020015f81526020015f81526020015f81526020015f151581526020015f81525090565b5f604051905090565b5f80fd5b5f80fd5b5f819050919050565b61274381612731565b811461274d575f80fd5b50565b5f8135905061275e8161273a565b92915050565b5f806040838503121561277a57612779612729565b5b5f61278785828601612750565b925050602061279885828601612750565b9150509250929050565b5f80fd5b5f80fd5b5f601f19601f8301169050919050565b7f4e487b71000000000000000000000000000000000000000000000000000000005f52604160045260245ffd5b6127f0826127aa565b810181811067ffffffffffffffff8211171561280f5761280e6127ba565b5b80604052505050565b5f612821612720565b905061282d82826127e7565b919050565b5f67ffffffffffffffff82111561284c5761284b6127ba565b5b612855826127aa565b9050602081019050919050565b828183375f83830152505050565b5f61288261287d84612832565b612818565b90508281526020810184848401111561289e5761289d6127a6565b5b6128a9848285612862565b509392505050565b5f82601f8301126128c5576128c46127a2565b5b81356128d5848260208601612870565b91505092915050565b5f80604083850312156128f4576128f3612729565b5b5f61290185828601612750565b925050602083013567ffffffffffffffff8111156129225761292161272d565b5b61292e858286016128b1565b9150509250929050565b5f73ffffffffffffffffffffffffffffffffffffffff82169050919050565b5f61296182612938565b9050919050565b61297181612957565b82525050565b5f81519050919050565b5f82825260208201905092915050565b8281835e5f83830152505050565b5f6129a982612977565b6129b38185612981565b93506129c3818560208601612991565b6129cc816127aa565b840191505092915050565b6129e081612731565b82525050565b5f60a0820190506129f95f830188612968565b8181036020830152612a0b818761299f565b9050612a1a60408301866129d7565b612a2760608301856129d7565b612a3460808301846129d7565b9695505050505050565b612a4781612957565b8114612a51575f80fd5b50565b5f81359050612a6281612a3e565b92915050565b5f60208284031215612a7d57612a7c612729565b5b5f612a8a84828501612a54565b91505092915050565b5f602082019050612aa65f8301846129d7565b92915050565b5f60208284031215612ac157612ac0612729565b5b5f612ace84828501612750565b91505092915050565b5f8115159050919050565b612aeb81612ad7565b82525050565b5f61014082019050612b055f83018d6129d7565b612b12602083018c612968565b8181036040830152612b24818b61299f565b90508181036060830152612b38818a61299f565b90508181036080830152612b4c818961299f565b9050612b5b60a08301886129d7565b612b6860c08301876129d7565b612b7560e08301866129d7565b612b83610100830185612ae2565b612b916101208301846129d7565b9b9a5050505050505050505050565b612ba981612957565b82525050565b5f82825260208201905092915050565b5f612bc982612977565b612bd38185612baf565b9350612be3818560208601612991565b612bec816127aa565b840191505092915050565b612c0081612731565b82525050565b5f60a083015f830151612c1b5f860182612ba0565b5060208301518482036020860152612c338282612bbf565b9150506040830151612c486040860182612bf7565b506060830151612c5b6060860182612bf7565b506080830151612c6e6080860182612bf7565b508091505092915050565b5f6020820190508181035f830152612c918184612c06565b905092915050565b5f60208284031215612cae57612cad612729565b5b5f82013567ffffffffffffffff811115612ccb57612cca61272d565b5b612cd7848285016128b1565b91505092915050565b5f81519050919050565b5f82825260208201905092915050565b5f819050602082019050919050565b5f612d148383612bf7565b60208301905092915050565b5f602082019050919050565b5f612d3682612ce0565b612d408185612cea565b9350612d4b83612cfa565b805f5b83811015612d7b578151612d628882612d09565b9750612d6d83612d20565b925050600181019050612d4e565b5085935050505092915050565b5f6020820190508181035f830152612da08184612d2c565b905092915050565b60038110612db4575f80fd5b50565b5f81359050612dc581612da8565b92915050565b5f805f8060808587031215612de357612de2612729565b5b5f85013567ffffffffffffffff811115612e0057612dff61272d565b5b612e0c878288016128b1565b945050602085013567ffffffffffffffff811115612e2d57612e2c61272d565b5b612e39878288016128b1565b935050604085013567ffffffffffffffff811115612e5a57612e5961272d565b5b612e66878288016128b1565b9250506060612e7787828801612db7565b91505092959194509250565b5f602082019050612e965f830184612968565b92915050565b612ea581612ad7565b82525050565b5f61014083015f830151612ec15f860182612bf7565b506020830151612ed46020860182612ba0565b5060408301518482036040860152612eec8282612bbf565b91505060608301518482036060860152612f068282612bbf565b91505060808301518482036080860152612f208282612bbf565b91505060a0830151612f3560a0860182612bf7565b5060c0830151612f4860c0860182612bf7565b5060e0830151612f5b60e0860182612bf7565b50610100830151612f70610100860182612e9c565b50610120830151612f85610120860182612bf7565b508091505092915050565b5f6020820190508181035f830152612fa88184612eab565b905092915050565b5f81519050919050565b5f82825260208201905092915050565b5f819050602082019050919050565b5f61014083015f830151612fef5f860182612bf7565b5060208301516130026020860182612ba0565b506040830151848203604086015261301a8282612bbf565b915050606083015184820360608601526130348282612bbf565b9150506080830151848203608086015261304e8282612bbf565b91505060a083015161306360a0860182612bf7565b5060c083015161307660c0860182612bf7565b5060e083015161308960e0860182612bf7565b5061010083015161309e610100860182612e9c565b506101208301516130b3610120860182612bf7565b508091505092915050565b5f6130c98383612fd9565b905092915050565b5f602082019050919050565b5f6130e782612fb0565b6130f18185612fba565b93508360208202850161310385612fca565b805f5b8581101561313e578484038952815161311f85826130be565b945061312a836130d1565b925060208a01995050600181019050613106565b50829750879550505050505092915050565b5f6060820190508181035f83015261316881866130dd565b905061317760208301856129d7565b61318460408301846129d7565b949350505050565b7f5175657374696f6e20646f6573206e6f742065786973740000000000000000005f82015250565b5f6131c0601783612981565b91506131cb8261318c565b602082019050919050565b5f6020820190508181035f8301526131ed816131b4565b9050919050565b7f5175657374696f6e20697320616c726561647920636c6f7365640000000000005f82015250565b5f613228601a83612981565b9150613233826131f4565b602082019050919050565b5f6020820190508181035f8301526132558161321c565b9050919050565b7f4f6e6c792061736b65722063616e20636c6f7365207175657374696f6e0000005f82015250565b5f613290601d83612981565b915061329b8261325c565b602082019050919050565b5f6020820190508181035f8301526132bd81613284565b9050919050565b5f6040820190506132d75f8301856129d7565b6132e460208301846129d7565b9392505050565b7f4e487b71000000000000000000000000000000000000000000000000000000005f52602260045260245ffd5b5f600282049050600182168061332f57607f821691505b602082108103613342576133416132eb565b5b50919050565b7f5175657374696f6e20646561646c696e652068617320706173736564000000005f82015250565b5f61337c601c83612981565b915061338782613348565b602082019050919050565b5f6020820190508181035f8301526133a981613370565b9050919050565b7f4e487b71000000000000000000000000000000000000000000000000000000005f52601160045260245ffd5b5f6133e782612731565b91507fffffffffffffffffffffffffffffffffffffffffffffffffffffffffffffffff8203613419576134186133b0565b5b600182019050919050565b5f819050815f5260205f209050919050565b5f6020601f8301049050919050565b5f82821b905092915050565b5f600883026134807fffffffffffffffffffffffffffffffffffffffffffffffffffffffffffffffff82613445565b61348a8683613445565b95508019841693508086168417925050509392505050565b5f819050919050565b5f6134c56134c06134bb84612731565b6134a2565b612731565b9050919050565b5f819050919050565b6134de836134ab565b6134f26134ea826134cc565b848454613451565b825550505050565b5f90565b6135066134fa565b6135118184846134d5565b505050565b5b81811015613534576135295f826134fe565b600181019050613517565b5050565b601f8211156135795761354a81613424565b61355384613436565b81016020851015613562578190505b61357661356e85613436565b830182613516565b50505b505050565b5f82821c905092915050565b5f6135995f198460080261357e565b1980831691505092915050565b5f6135b1838361358a565b9150826002028217905092915050565b6135ca82612977565b67ffffffffffffffff8111156135e3576135e26127ba565b5b6135ed8254613318565b6135f8828285613538565b5f60209050601f831160018114613629575f8415613617578287015190505b61362185826135a6565b865550613688565b601f19841661363786613424565b5f5b8281101561365e57848901518255600182019150602085019450602081019050613639565b8683101561367b5784890151613677601f89168261358a565b8355505b6001600288020188555050505b505050505050565b5f6060820190506136a35f8301866129d7565b6136b060208301856129d7565b81810360408301526136c2818461299f565b9050949350505050565b7f566f74696e6720706572696f642068617320656e6465640000000000000000005f82015250565b5f613700601783612981565b915061370b826136cc565b602082019050919050565b5f6020820190508181035f83015261372d816136f4565b9050919050565b7f496e636f727265637420766f74652066656500000000000000000000000000005f82015250565b5f613768601283612981565b915061377382613734565b602082019050919050565b5f6020820190508181035f8301526137958161375c565b9050919050565b5f6137a682612731565b91506137b183612731565b92508282019050808211156137c9576137c86133b0565b5b92915050565b7f4e6f2066756e647320746f2077697468647261770000000000000000000000005f82015250565b5f613803601483612981565b915061380e826137cf565b602082019050919050565b5f6020820190508181035f830152613830816137f7565b9050919050565b7f416e7377657220646f6573206e6f7420657869737400000000000000000000005f82015250565b5f61386b601583612981565b915061387682613837565b602082019050919050565b5f6020820190508181035f8301526138988161385f565b9050919050565b5f81905092915050565b5f819050815f5260205f209050919050565b5f81546138c781613318565b6138d1818661389f565b9450600182165f81146138eb576001811461390057613932565b60ff1983168652811515820286019350613932565b613909856138a9565b5f5b8381101561392a5781548189015260018201915060208101905061390b565b838801955050505b50505092915050565b5f61394682846138bb565b915081905092915050565b7f4e487b71000000000000000000000000000000000000000000000000000000005f52603260045260245ffd5b7f526577617264206d7573742062652067726561746572207468616e207a65726f5f82015250565b5f6139b2602083612981565b91506139bd8261397e565b602082019050919050565b5f6020820190508181035f8301526139df816139a6565b9050919050565b7f43617465676f72792063616e6e6f7420626520656d70747900000000000000005f82015250565b5f613a1a601883612981565b9150613a25826139e6565b602082019050919050565b5f6020820190508181035f830152613a4781613a0e565b9050919050565b7f4e487b71000000000000000000000000000000000000000000000000000000005f52602160045260245ffd5b5f608082019050613a8e5f8301876129d7565b8181036020830152613aa0818661299f565b9050613aaf60408301856129d7565b8181036060830152613ac1818461299f565b905095945050505050565b7f43616e6e6f742064697374726962757465206265666f726520646561646c696e5f8201527f6500000000000000000000000000000000000000000000000000000000000000602082015250565b5f613b26602183612981565b9150613b3182613acc565b604082019050919050565b5f6020820190508181035f830152613b5381613b1a565b9050919050565b5f613b6482612731565b9150613b6f83612731565b9250828202613b7d81612731565b91508282048414831517613b9457613b936133b0565b5b5092915050565b7f4e487b71000000000000000000000000000000000000000000000000000000005f52601260045260245ffd5b5f613bd282612731565b9150613bdd83612731565b925082613bed57613bec613b9b565b5b828204905092915050565b7f5061676520696e646578206d7573742073746172742066726f6d2031000000005f82015250565b5f613c2c601c83612981565b9150613c3782613bf8565b602082019050919050565b5f6020820190508181035f830152613c5981613c20565b9050919050565b7f506167652073697a65206d7573742062652067726561746572207468616e20305f82015250565b5f613c94602083612981565b9150613c9f82613c60565b602082019050919050565b5f6020820190508181035f830152613cc181613c88565b9050919050565b5f613cd282612731565b9150613cdd83612731565b9250828203905081811115613cf557613cf46133b0565b5b92915050565b7f496e76616c6964207061676520696e64657800000000000000000000000000005f82015250565b5f613d2f601283612981565b9150613d3a82613cfb565b602082019050919050565b5f6020820190508181035f830152613d5c81613d23565b905091905056fea264697066735822122034402651de7985c0f00734f8bcc149c33ebfcac158f39f082e4d1d79dcb4584264736f6c634300081a0033",
					"opcodes": "PUSH1 0x80 PUSH1 0x40 MSTORE PUSH7 0x2386F26FC10000 PUSH1 0x1 SSTORE CALLVALUE DUP1 ISZERO PUSH1 0x19 JUMPI PUSH0 DUP1 REVERT JUMPDEST POP CALLER PUSH0 DUP1 PUSH2 0x100 EXP DUP2 SLOAD DUP2 PUSH20 0xFFFFFFFFFFFFFFFFFFFFFFFFFFFFFFFFFFFFFFFF MUL NOT AND SWAP1 DUP4 PUSH20 0xFFFFFFFFFFFFFFFFFFFFFFFFFFFFFFFFFFFFFFFF AND MUL OR SWAP1 SSTORE POP PUSH1 0x1 PUSH1 0x2 DUP2 SWAP1 SSTORE POP PUSH1 0x1 PUSH1 0x3 DUP2 SWAP1 SSTORE POP PUSH2 0x3D99 DUP1 PUSH2 0x76 PUSH0 CODECOPY PUSH0 RETURN INVALID PUSH1 0x80 PUSH1 0x40 MSTORE PUSH1 0x4 CALLDATASIZE LT PUSH2 0x129 JUMPI PUSH0 CALLDATALOAD PUSH1 0xE0 SHR DUP1 PUSH4 0x59974E38 GT PUSH2 0xAA JUMPI DUP1 PUSH4 0xCBA13030 GT PUSH2 0x6E JUMPI DUP1 PUSH4 0xCBA13030 EQ PUSH2 0x3D4 JUMPI DUP1 PUSH4 0xD5999A5C EQ PUSH2 0x3FE JUMPI DUP1 PUSH4 0xDA2B4C1E EQ PUSH2 0x428 JUMPI DUP1 PUSH4 0xE25F3E02 EQ PUSH2 0x452 JUMPI DUP1 PUSH4 0xF4359CE5 EQ PUSH2 0x48E JUMPI DUP1 PUSH4 0xFD1DF035 EQ PUSH2 0x4B8 JUMPI PUSH2 0x129 JUMP JUMPDEST DUP1 PUSH4 0x59974E38 EQ PUSH2 0x304 JUMPI DUP1 PUSH4 0x61E78617 EQ PUSH2 0x32C JUMPI DUP1 PUSH4 0x8DA5CB5B EQ PUSH2 0x356 JUMPI DUP1 PUSH4 0x934D1FA4 EQ PUSH2 0x380 JUMPI DUP1 PUSH4 0xB69EF8A8 EQ PUSH2 0x3AA JUMPI PUSH2 0x129 JUMP JUMPDEST DUP1 PUSH4 0x31B1B978 GT PUSH2 0xF1 JUMPI DUP1 PUSH4 0x31B1B978 EQ PUSH2 0x215 JUMPI DUP1 PUSH4 0x3CCFD60B EQ PUSH2 0x25A JUMPI DUP1 PUSH4 0x4A8F164F EQ PUSH2 0x270 JUMPI DUP1 PUSH4 0x55CE8034 EQ PUSH2 0x2AC JUMPI DUP1 PUSH4 0x572491C3 EQ PUSH2 0x2E8 JUMPI PUSH2 0x129 JUMP JUMPDEST DUP1 PUSH4 0x1B49D47 EQ PUSH2 0x12D JUMPI DUP1 PUSH4 0x1FA3BEC EQ PUSH2 0x155 JUMPI DUP1 PUSH4 0x2401519C EQ PUSH2 0x17D JUMPI DUP1 PUSH4 0x2690567E EQ PUSH2 0x1BD JUMPI DUP1 PUSH4 0x27E235E3 EQ PUSH2 0x1D9 JUMPI JUMPDEST PUSH0 DUP1 REVERT JUMPDEST CALLVALUE DUP1 ISZERO PUSH2 0x138 JUMPI PUSH0 DUP1 REVERT JUMPDEST POP PUSH2 0x153 PUSH1 0x4 DUP1 CALLDATASIZE SUB DUP2 ADD SWAP1 PUSH2 0x14E SWAP2 SWAP1 PUSH2 0x2764 JUMP JUMPDEST PUSH2 0x4F6 JUMP JUMPDEST STOP JUMPDEST CALLVALUE DUP1 ISZERO PUSH2 0x160 JUMPI PUSH0 DUP1 REVERT JUMPDEST POP PUSH2 0x17B PUSH1 0x4 DUP1 CALLDATASIZE SUB DUP2 ADD SWAP1 PUSH2 0x176 SWAP2 SWAP1 PUSH2 0x28DE JUMP JUMPDEST PUSH2 0x704 JUMP JUMPDEST STOP JUMPDEST CALLVALUE DUP1 ISZERO PUSH2 0x188 JUMPI PUSH0 DUP1 REVERT JUMPDEST POP PUSH2 0x1A3 PUSH1 0x4 DUP1 CALLDATASIZE SUB DUP2 ADD SWAP1 PUSH2 0x19E SWAP2 SWAP1 PUSH2 0x2764 JUMP JUMPDEST PUSH2 0xC0A JUMP JUMPDEST PUSH1 0x40 MLOAD PUSH2 0x1B4 SWAP6 SWAP5 SWAP4 SWAP3 SWAP2 SWAP1 PUSH2 0x29E6 JUMP JUMPDEST PUSH1 0x40 MLOAD DUP1 SWAP2 SUB SWAP1 RETURN JUMPDEST PUSH2 0x1D7 PUSH1 0x4 DUP1 CALLDATASIZE SUB DUP2 ADD SWAP1 PUSH2 0x1D2 SWAP2 SWAP1 PUSH2 0x2764 JUMP JUMPDEST PUSH2 0xCEC JUMP JUMPDEST STOP JUMPDEST CALLVALUE DUP1 ISZERO PUSH2 0x1E4 JUMPI PUSH0 DUP1 REVERT JUMPDEST POP PUSH2 0x1FF PUSH1 0x4 DUP1 CALLDATASIZE SUB DUP2 ADD SWAP1 PUSH2 0x1FA SWAP2 SWAP1 PUSH2 0x2A68 JUMP JUMPDEST PUSH2 0x11AB JUMP JUMPDEST PUSH1 0x40 MLOAD PUSH2 0x20C SWAP2 SWAP1 PUSH2 0x2A93 JUMP JUMPDEST PUSH1 0x40 MLOAD DUP1 SWAP2 SUB SWAP1 RETURN JUMPDEST CALLVALUE DUP1 ISZERO PUSH2 0x220 JUMPI PUSH0 DUP1 REVERT JUMPDEST POP PUSH2 0x23B PUSH1 0x4 DUP1 CALLDATASIZE SUB DUP2 ADD SWAP1 PUSH2 0x236 SWAP2 SWAP1 PUSH2 0x2AAC JUMP JUMPDEST PUSH2 0x11C0 JUMP JUMPDEST PUSH1 0x40 MLOAD PUSH2 0x251 SWAP11 SWAP10 SWAP9 SWAP8 SWAP7 SWAP6 SWAP5 SWAP4 SWAP3 SWAP2 SWAP1 PUSH2 0x2AF1 JUMP JUMPDEST PUSH1 0x40 MLOAD DUP1 SWAP2 SUB SWAP1 RETURN JUMPDEST CALLVALUE DUP1 ISZERO PUSH2 0x265 JUMPI PUSH0 DUP1 REVERT JUMPDEST POP PUSH2 0x26E PUSH2 0x13CD JUMP JUMPDEST STOP JUMPDEST CALLVALUE DUP1 ISZERO PUSH2 0x27B JUMPI PUSH0 DUP1 REVERT JUMPDEST POP PUSH2 0x296 PUSH1 0x4 DUP1 CALLDATASIZE SUB DUP2 ADD SWAP1 PUSH2 0x291 SWAP2 SWAP1 PUSH2 0x2764 JUMP JUMPDEST PUSH2 0x14D9 JUMP JUMPDEST PUSH1 0x40 MLOAD PUSH2 0x2A3 SWAP2 SWAP1 PUSH2 0x2C79 JUMP JUMPDEST PUSH1 0x40 MLOAD DUP1 SWAP2 SUB SWAP1 RETURN JUMPDEST CALLVALUE DUP1 ISZERO PUSH2 0x2B7 JUMPI PUSH0 DUP1 REVERT JUMPDEST POP PUSH2 0x2D2 PUSH1 0x4 DUP1 CALLDATASIZE SUB DUP2 ADD SWAP1 PUSH2 0x2CD SWAP2 SWAP1 PUSH2 0x2C99 JUMP JUMPDEST PUSH2 0x16C5 JUMP JUMPDEST PUSH1 0x40 MLOAD PUSH2 0x2DF SWAP2 SWAP1 PUSH2 0x2D88 JUMP JUMPDEST PUSH1 0x40 MLOAD DUP1 SWAP2 SUB SWAP1 RETURN JUMPDEST PUSH2 0x302 PUSH1 0x4 DUP1 CALLDATASIZE SUB DUP2 ADD SWAP1 PUSH2 0x2FD SWAP2 SWAP1 PUSH2 0x2DCB JUMP JUMPDEST PUSH2 0x1842 JUMP JUMPDEST STOP JUMPDEST CALLVALUE DUP1 ISZERO PUSH2 0x30F JUMPI PUSH0 DUP1 REVERT JUMPDEST POP PUSH2 0x32A PUSH1 0x4 DUP1 CALLDATASIZE SUB DUP2 ADD SWAP1 PUSH2 0x325 SWAP2 SWAP1 PUSH2 0x2AAC JUMP JUMPDEST PUSH2 0x1B4A JUMP JUMPDEST STOP JUMPDEST CALLVALUE DUP1 ISZERO PUSH2 0x337 JUMPI PUSH0 DUP1 REVERT JUMPDEST POP PUSH2 0x340 PUSH2 0x1E03 JUMP JUMPDEST PUSH1 0x40 MLOAD PUSH2 0x34D SWAP2 SWAP1 PUSH2 0x2A93 JUMP JUMPDEST PUSH1 0x40 MLOAD DUP1 SWAP2 SUB SWAP1 RETURN JUMPDEST CALLVALUE DUP1 ISZERO PUSH2 0x361 JUMPI PUSH0 DUP1 REVERT JUMPDEST POP PUSH2 0x36A PUSH2 0x1E09 JUMP JUMPDEST PUSH1 0x40 MLOAD PUSH2 0x377 SWAP2 SWAP1 PUSH2 0x2E83 JUMP JUMPDEST PUSH1 0x40 MLOAD DUP1 SWAP2 SUB SWAP1 RETURN JUMPDEST CALLVALUE DUP1 ISZERO PUSH2 0x38B JUMPI PUSH0 DUP1 REVERT JUMPDEST POP PUSH2 0x394 PUSH2 0x1E2C JUMP JUMPDEST PUSH1 0x40 MLOAD PUSH2 0x3A1 SWAP2 SWAP1 PUSH2 0x2A93 JUMP JUMPDEST PUSH1 0x40 MLOAD DUP1 SWAP2 SUB SWAP1 RETURN JUMPDEST CALLVALUE DUP1 ISZERO PUSH2 0x3B5 JUMPI PUSH0 DUP1 REVERT JUMPDEST POP PUSH2 0x3BE PUSH2 0x1E33 JUMP JUMPDEST PUSH1 0x40 MLOAD PUSH2 0x3CB SWAP2 SWAP1 PUSH2 0x2A93 JUMP JUMPDEST PUSH1 0x40 MLOAD DUP1 SWAP2 SUB SWAP1 RETURN JUMPDEST CALLVALUE DUP1 ISZERO PUSH2 0x3DF JUMPI PUSH0 DUP1 REVERT JUMPDEST POP PUSH2 0x3E8 PUSH2 0x1E3A JUMP JUMPDEST PUSH1 0x40 MLOAD PUSH2 0x3F5 SWAP2 SWAP1 PUSH2 0x2A93 JUMP JUMPDEST PUSH1 0x40 MLOAD DUP1 SWAP2 SUB SWAP1 RETURN JUMPDEST CALLVALUE DUP1 ISZERO PUSH2 0x409 JUMPI PUSH0 DUP1 REVERT JUMPDEST POP PUSH2 0x412 PUSH2 0x1E40 JUMP JUMPDEST PUSH1 0x40 MLOAD PUSH2 0x41F SWAP2 SWAP1 PUSH2 0x2A93 JUMP JUMPDEST PUSH1 0x40 MLOAD DUP1 SWAP2 SUB SWAP1 RETURN JUMPDEST CALLVALUE DUP1 ISZERO PUSH2 0x433 JUMPI PUSH0 DUP1 REVERT JUMPDEST POP PUSH2 0x43C PUSH2 0x1E47 JUMP JUMPDEST PUSH1 0x40 MLOAD PUSH2 0x449 SWAP2 SWAP1 PUSH2 0x2A93 JUMP JUMPDEST PUSH1 0x40 MLOAD DUP1 SWAP2 SUB SWAP1 RETURN JUMPDEST CALLVALUE DUP1 ISZERO PUSH2 0x45D JUMPI PUSH0 DUP1 REVERT JUMPDEST POP PUSH2 0x478 PUSH1 0x4 DUP1 CALLDATASIZE SUB DUP2 ADD SWAP1 PUSH2 0x473 SWAP2 SWAP1 PUSH2 0x2AAC JUMP JUMPDEST PUSH2 0x1E4D JUMP JUMPDEST PUSH1 0x40 MLOAD PUSH2 0x485 SWAP2 SWAP1 PUSH2 0x2F90 JUMP JUMPDEST PUSH1 0x40 MLOAD DUP1 SWAP2 SUB SWAP1 RETURN JUMPDEST CALLVALUE DUP1 ISZERO PUSH2 0x499 JUMPI PUSH0 DUP1 REVERT JUMPDEST POP PUSH2 0x4A2 PUSH2 0x216A JUMP JUMPDEST PUSH1 0x40 MLOAD PUSH2 0x4AF SWAP2 SWAP1 PUSH2 0x2A93 JUMP JUMPDEST PUSH1 0x40 MLOAD DUP1 SWAP2 SUB SWAP1 RETURN JUMPDEST CALLVALUE DUP1 ISZERO PUSH2 0x4C3 JUMPI PUSH0 DUP1 REVERT JUMPDEST POP PUSH2 0x4DE PUSH1 0x4 DUP1 CALLDATASIZE SUB DUP2 ADD SWAP1 PUSH2 0x4D9 SWAP2 SWAP1 PUSH2 0x2764 JUMP JUMPDEST PUSH2 0x2171 JUMP JUMPDEST PUSH1 0x40 MLOAD PUSH2 0x4ED SWAP4 SWAP3 SWAP2 SWAP1 PUSH2 0x3150 JUMP JUMPDEST PUSH1 0x40 MLOAD DUP1 SWAP2 SUB SWAP1 RETURN JUMPDEST DUP2 PUSH0 PUSH20 0xFFFFFFFFFFFFFFFFFFFFFFFFFFFFFFFFFFFFFFFF AND PUSH1 0x4 PUSH0 DUP4 DUP2 MSTORE PUSH1 0x20 ADD SWAP1 DUP2 MSTORE PUSH1 0x20 ADD PUSH0 KECCAK256 PUSH1 0x1 ADD PUSH0 SWAP1 SLOAD SWAP1 PUSH2 0x100 EXP SWAP1 DIV PUSH20 0xFFFFFFFFFFFFFFFFFFFFFFFFFFFFFFFFFFFFFFFF AND PUSH20 0xFFFFFFFFFFFFFFFFFFFFFFFFFFFFFFFFFFFFFFFF AND SUB PUSH2 0x598 JUMPI PUSH1 0x40 MLOAD PUSH32 0x8C379A000000000000000000000000000000000000000000000000000000000 DUP2 MSTORE PUSH1 0x4 ADD PUSH2 0x58F SWAP1 PUSH2 0x31D6 JUMP JUMPDEST PUSH1 0x40 MLOAD DUP1 SWAP2 SUB SWAP1 REVERT JUMPDEST DUP3 PUSH1 0x4 PUSH0 DUP3 DUP2 MSTORE PUSH1 0x20 ADD SWAP1 DUP2 MSTORE PUSH1 0x20 ADD PUSH0 KECCAK256 PUSH1 0x8 ADD PUSH0 SWAP1 SLOAD SWAP1 PUSH2 0x100 EXP SWAP1 DIV PUSH1 0xFF AND ISZERO PUSH2 0x5FA JUMPI PUSH1 0x40 MLOAD PUSH32 0x8C379A000000000000000000000000000000000000000000000000000000000 DUP2 MSTORE PUSH1 0x4 ADD PUSH2 0x5F1 SWAP1 PUSH2 0x323E JUMP JUMPDEST PUSH1 0x40 MLOAD DUP1 SWAP2 SUB SWAP1 REVERT JUMPDEST PUSH0 PUSH1 0x4 PUSH0 DUP7 DUP2 MSTORE PUSH1 0x20 ADD SWAP1 DUP2 MSTORE PUSH1 0x20 ADD PUSH0 KECCAK256 SWAP1 POP DUP1 PUSH1 0x1 ADD PUSH0 SWAP1 SLOAD SWAP1 PUSH2 0x100 EXP SWAP1 DIV PUSH20 0xFFFFFFFFFFFFFFFFFFFFFFFFFFFFFFFFFFFFFFFF AND PUSH20 0xFFFFFFFFFFFFFFFFFFFFFFFFFFFFFFFFFFFFFFFF AND CALLER PUSH20 0xFFFFFFFFFFFFFFFFFFFFFFFFFFFFFFFFFFFFFFFF AND EQ PUSH2 0x69F JUMPI PUSH1 0x40 MLOAD PUSH32 0x8C379A000000000000000000000000000000000000000000000000000000000 DUP2 MSTORE PUSH1 0x4 ADD PUSH2 0x696 SWAP1 PUSH2 0x32A6 JUMP JUMPDEST PUSH1 0x40 MLOAD DUP1 SWAP2 SUB SWAP1 REVERT JUMPDEST PUSH1 0x1 DUP2 PUSH1 0x8 ADD PUSH0 PUSH2 0x100 EXP DUP2 SLOAD DUP2 PUSH1 0xFF MUL NOT AND SWAP1 DUP4 ISZERO ISZERO MUL OR SWAP1 SSTORE POP DUP4 DUP2 PUSH1 0x9 ADD DUP2 SWAP1 SSTORE POP PUSH32 0x99FE2C8ABD13B610E7F7D4A51A49E1391BA19454B72305176B884D66010E475A DUP6 DUP6 PUSH1 0x40 MLOAD PUSH2 0x6F5 SWAP3 SWAP2 SWAP1 PUSH2 0x32C4 JUMP JUMPDEST PUSH1 0x40 MLOAD DUP1 SWAP2 SUB SWAP1 LOG1 POP POP POP POP POP JUMP JUMPDEST DUP2 PUSH0 PUSH20 0xFFFFFFFFFFFFFFFFFFFFFFFFFFFFFFFFFFFFFFFF AND PUSH1 0x4 PUSH0 DUP4 DUP2 MSTORE PUSH1 0x20 ADD SWAP1 DUP2 MSTORE PUSH1 0x20 ADD PUSH0 KECCAK256 PUSH1 0x1 ADD PUSH0 SWAP1 SLOAD SWAP1 PUSH2 0x100 EXP SWAP1 DIV PUSH20 0xFFFFFFFFFFFFFFFFFFFFFFFFFFFFFFFFFFFFFFFF AND PUSH20 0xFFFFFFFFFFFFFFFFFFFFFFFFFFFFFFFFFFFFFFFF AND SUB PUSH2 0x7A6 JUMPI PUSH1 0x40 MLOAD PUSH32 0x8C379A000000000000000000000000000000000000000000000000000000000 DUP2 MSTORE PUSH1 0x4 ADD PUSH2 0x79D SWAP1 PUSH2 0x31D6 JUMP JUMPDEST PUSH1 0x40 MLOAD DUP1 SWAP2 SUB SWAP1 REVERT JUMPDEST DUP3 PUSH1 0x4 PUSH0 DUP3 DUP2 MSTORE PUSH1 0x20 ADD SWAP1 DUP2 MSTORE PUSH1 0x20 ADD PUSH0 KECCAK256 PUSH1 0x8 ADD PUSH0 SWAP1 SLOAD SWAP1 PUSH2 0x100 EXP SWAP1 DIV PUSH1 0xFF AND ISZERO PUSH2 0x808 JUMPI PUSH1 0x40 MLOAD PUSH32 0x8C379A000000000000000000000000000000000000000000000000000000000 DUP2 MSTORE PUSH1 0x4 ADD PUSH2 0x7FF SWAP1 PUSH2 0x323E JUMP JUMPDEST PUSH1 0x40 MLOAD DUP1 SWAP2 SUB SWAP1 REVERT JUMPDEST PUSH0 PUSH1 0x4 PUSH0 DUP7 DUP2 MSTORE PUSH1 0x20 ADD SWAP1 DUP2 MSTORE PUSH1 0x20 ADD PUSH0 KECCAK256 PUSH1 0x40 MLOAD DUP1 PUSH2 0x140 ADD PUSH1 0x40 MSTORE SWAP1 DUP2 PUSH0 DUP3 ADD SLOAD DUP2 MSTORE PUSH1 0x20 ADD PUSH1 0x1 DUP3 ADD PUSH0 SWAP1 SLOAD SWAP1 PUSH2 0x100 EXP SWAP1 DIV PUSH20 0xFFFFFFFFFFFFFFFFFFFFFFFFFFFFFFFFFFFFFFFF AND PUSH20 0xFFFFFFFFFFFFFFFFFFFFFFFFFFFFFFFFFFFFFFFF AND PUSH20 0xFFFFFFFFFFFFFFFFFFFFFFFFFFFFFFFFFFFFFFFF AND DUP2 MSTORE PUSH1 0x20 ADD PUSH1 0x2 DUP3 ADD DUP1 SLOAD PUSH2 0x894 SWAP1 PUSH2 0x3318 JUMP JUMPDEST DUP1 PUSH1 0x1F ADD PUSH1 0x20 DUP1 SWAP2 DIV MUL PUSH1 0x20 ADD PUSH1 0x40 MLOAD SWAP1 DUP2 ADD PUSH1 0x40 MSTORE DUP1 SWAP3 SWAP2 SWAP1 DUP2 DUP2 MSTORE PUSH1 0x20 ADD DUP3 DUP1 SLOAD PUSH2 0x8C0 SWAP1 PUSH2 0x3318 JUMP JUMPDEST DUP1 ISZERO PUSH2 0x90B JUMPI DUP1 PUSH1 0x1F LT PUSH2 0x8E2 JUMPI PUSH2 0x100 DUP1 DUP4 SLOAD DIV MUL DUP4 MSTORE SWAP2 PUSH1 0x20 ADD SWAP2 PUSH2 0x90B JUMP JUMPDEST DUP3 ADD SWAP2 SWAP1 PUSH0 MSTORE PUSH1 0x20 PUSH0 KECCAK256 SWAP1 JUMPDEST DUP2 SLOAD DUP2 MSTORE SWAP1 PUSH1 0x1 ADD SWAP1 PUSH1 0x20 ADD DUP1 DUP4 GT PUSH2 0x8EE JUMPI DUP3 SWAP1 SUB PUSH1 0x1F AND DUP3 ADD SWAP2 JUMPDEST POP POP POP POP POP DUP2 MSTORE PUSH1 0x20 ADD PUSH1 0x3 DUP3 ADD DUP1 SLOAD PUSH2 0x924 SWAP1 PUSH2 0x3318 JUMP JUMPDEST DUP1 PUSH1 0x1F ADD PUSH1 0x20 DUP1 SWAP2 DIV MUL PUSH1 0x20 ADD PUSH1 0x40 MLOAD SWAP1 DUP2 ADD PUSH1 0x40 MSTORE DUP1 SWAP3 SWAP2 SWAP1 DUP2 DUP2 MSTORE PUSH1 0x20 ADD DUP3 DUP1 SLOAD PUSH2 0x950 SWAP1 PUSH2 0x3318 JUMP JUMPDEST DUP1 ISZERO PUSH2 0x99B JUMPI DUP1 PUSH1 0x1F LT PUSH2 0x972 JUMPI PUSH2 0x100 DUP1 DUP4 SLOAD DIV MUL DUP4 MSTORE SWAP2 PUSH1 0x20 ADD SWAP2 PUSH2 0x99B JUMP JUMPDEST DUP3 ADD SWAP2 SWAP1 PUSH0 MSTORE PUSH1 0x20 PUSH0 KECCAK256 SWAP1 JUMPDEST DUP2 SLOAD DUP2 MSTORE SWAP1 PUSH1 0x1 ADD SWAP1 PUSH1 0x20 ADD DUP1 DUP4 GT PUSH2 0x97E JUMPI DUP3 SWAP1 SUB PUSH1 0x1F AND DUP3 ADD SWAP2 JUMPDEST POP POP POP POP POP DUP2 MSTORE PUSH1 0x20 ADD PUSH1 0x4 DUP3 ADD DUP1 SLOAD PUSH2 0x9B4 SWAP1 PUSH2 0x3318 JUMP JUMPDEST DUP1 PUSH1 0x1F ADD PUSH1 0x20 DUP1 SWAP2 DIV MUL PUSH1 0x20 ADD PUSH1 0x40 MLOAD SWAP1 DUP2 ADD PUSH1 0x40 MSTORE DUP1 SWAP3 SWAP2 SWAP1 DUP2 DUP2 MSTORE PUSH1 0x20 ADD DUP3 DUP1 SLOAD PUSH2 0x9E0 SWAP1 PUSH2 0x3318 JUMP JUMPDEST DUP1 ISZERO PUSH2 0xA2B JUMPI DUP1 PUSH1 0x1F LT PUSH2 0xA02 JUMPI PUSH2 0x100 DUP1 DUP4 SLOAD DIV MUL DUP4 MSTORE SWAP2 PUSH1 0x20 ADD SWAP2 PUSH2 0xA2B JUMP JUMPDEST DUP3 ADD SWAP2 SWAP1 PUSH0 MSTORE PUSH1 0x20 PUSH0 KECCAK256 SWAP1 JUMPDEST DUP2 SLOAD DUP2 MSTORE SWAP1 PUSH1 0x1 ADD SWAP1 PUSH1 0x20 ADD DUP1 DUP4 GT PUSH2 0xA0E JUMPI DUP3 SWAP1 SUB PUSH1 0x1F AND DUP3 ADD SWAP2 JUMPDEST POP POP POP POP POP DUP2 MSTORE PUSH1 0x20 ADD PUSH1 0x5 DUP3 ADD SLOAD DUP2 MSTORE PUSH1 0x20 ADD PUSH1 0x6 DUP3 ADD SLOAD DUP2 MSTORE PUSH1 0x20 ADD PUSH1 0x7 DUP3 ADD SLOAD DUP2 MSTORE PUSH1 0x20 ADD PUSH1 0x8 DUP3 ADD PUSH0 SWAP1 SLOAD SWAP1 PUSH2 0x100 EXP SWAP1 DIV PUSH1 0xFF AND ISZERO ISZERO ISZERO ISZERO DUP2 MSTORE PUSH1 0x20 ADD PUSH1 0x9 DUP3 ADD SLOAD DUP2 MSTORE POP POP SWAP1 POP DUP1 PUSH1 0xE0 ADD MLOAD TIMESTAMP GT ISZERO PUSH2 0xABF JUMPI PUSH1 0x40 MLOAD PUSH32 0x8C379A000000000000000000000000000000000000000000000000000000000 DUP2 MSTORE PUSH1 0x4 ADD PUSH2 0xAB6 SWAP1 PUSH2 0x3392 JUMP JUMPDEST PUSH1 0x40 MLOAD DUP1 SWAP2 SUB SWAP1 REVERT JUMPDEST PUSH0 PUSH1 0x3 PUSH0 DUP2 SLOAD DUP1 SWAP3 SWAP2 SWAP1 PUSH2 0xAD2 SWAP1 PUSH2 0x33DD JUMP JUMPDEST SWAP2 SWAP1 POP SSTORE SWAP1 POP PUSH1 0x40 MLOAD DUP1 PUSH1 0xA0 ADD PUSH1 0x40 MSTORE DUP1 CALLER PUSH20 0xFFFFFFFFFFFFFFFFFFFFFFFFFFFFFFFFFFFFFFFF AND DUP2 MSTORE PUSH1 0x20 ADD DUP7 DUP2 MSTORE PUSH1 0x20 ADD PUSH0 DUP2 MSTORE PUSH1 0x20 ADD PUSH0 DUP2 MSTORE PUSH1 0x20 ADD TIMESTAMP DUP2 MSTORE POP PUSH1 0x5 PUSH0 DUP9 DUP2 MSTORE PUSH1 0x20 ADD SWAP1 DUP2 MSTORE PUSH1 0x20 ADD PUSH0 KECCAK256 PUSH0 DUP4 DUP2 MSTORE PUSH1 0x20 ADD SWAP1 DUP2 MSTORE PUSH1 0x20 ADD PUSH0 KECCAK256 PUSH0 DUP3 ADD MLOAD DUP2 PUSH0 ADD PUSH0 PUSH2 0x100 EXP DUP2 SLOAD DUP2 PUSH20 0xFFFFFFFFFFFFFFFFFFFFFFFFFFFFFFFFFFFFFFFF MUL NOT AND SWAP1 DUP4 PUSH20 0xFFFFFFFFFFFFFFFFFFFFFFFFFFFFFFFFFFFFFFFF AND MUL OR SWAP1 SSTORE POP PUSH1 0x20 DUP3 ADD MLOAD DUP2 PUSH1 0x1 ADD SWAP1 DUP2 PUSH2 0xB8E SWAP2 SWAP1 PUSH2 0x35C1 JUMP JUMPDEST POP PUSH1 0x40 DUP3 ADD MLOAD DUP2 PUSH1 0x2 ADD SSTORE PUSH1 0x60 DUP3 ADD MLOAD DUP2 PUSH1 0x3 ADD SSTORE PUSH1 0x80 DUP3 ADD MLOAD DUP2 PUSH1 0x4 ADD SSTORE SWAP1 POP POP CALLER PUSH20 0xFFFFFFFFFFFFFFFFFFFFFFFFFFFFFFFFFFFFFFFF AND PUSH32 0x1B72A809869907CAC4C4E55B8BF6920FF492D2FF53307BB77BA492366B61387C DUP8 DUP4 DUP9 PUSH1 0x40 MLOAD PUSH2 0xBFA SWAP4 SWAP3 SWAP2 SWAP1 PUSH2 0x3690 JUMP JUMPDEST PUSH1 0x40 MLOAD DUP1 SWAP2 SUB SWAP1 LOG2 POP POP POP POP POP POP JUMP JUMPDEST PUSH1 0x5 PUSH1 0x20 MSTORE DUP2 PUSH0 MSTORE PUSH1 0x40 PUSH0 KECCAK256 PUSH1 0x20 MSTORE DUP1 PUSH0 MSTORE PUSH1 0x40 PUSH0 KECCAK256 PUSH0 SWAP2 POP SWAP2 POP POP DUP1 PUSH0 ADD PUSH0 SWAP1 SLOAD SWAP1 PUSH2 0x100 EXP SWAP1 DIV PUSH20 0xFFFFFFFFFFFFFFFFFFFFFFFFFFFFFFFFFFFFFFFF AND SWAP1 DUP1 PUSH1 0x1 ADD DUP1 SLOAD PUSH2 0xC59 SWAP1 PUSH2 0x3318 JUMP JUMPDEST DUP1 PUSH1 0x1F ADD PUSH1 0x20 DUP1 SWAP2 DIV MUL PUSH1 0x20 ADD PUSH1 0x40 MLOAD SWAP1 DUP2 ADD PUSH1 0x40 MSTORE DUP1 SWAP3 SWAP2 SWAP1 DUP2 DUP2 MSTORE PUSH1 0x20 ADD DUP3 DUP1 SLOAD PUSH2 0xC85 SWAP1 PUSH2 0x3318 JUMP JUMPDEST DUP1 ISZERO PUSH2 0xCD0 JUMPI DUP1 PUSH1 0x1F LT PUSH2 0xCA7 JUMPI PUSH2 0x100 DUP1 DUP4 SLOAD DIV MUL DUP4 MSTORE SWAP2 PUSH1 0x20 ADD SWAP2 PUSH2 0xCD0 JUMP JUMPDEST DUP3 ADD SWAP2 SWAP1 PUSH0 MSTORE PUSH1 0x20 PUSH0 KECCAK256 SWAP1 JUMPDEST DUP2 SLOAD DUP2 MSTORE SWAP1 PUSH1 0x1 ADD SWAP1 PUSH1 0x20 ADD DUP1 DUP4 GT PUSH2 0xCB3 JUMPI DUP3 SWAP1 SUB PUSH1 0x1F AND DUP3 ADD SWAP2 JUMPDEST POP POP POP POP POP SWAP1 DUP1 PUSH1 0x2 ADD SLOAD SWAP1 DUP1 PUSH1 0x3 ADD SLOAD SWAP1 DUP1 PUSH1 0x4 ADD SLOAD SWAP1 POP DUP6 JUMP JUMPDEST DUP2 PUSH0 PUSH20 0xFFFFFFFFFFFFFFFFFFFFFFFFFFFFFFFFFFFFFFFF AND PUSH1 0x4 PUSH0 DUP4 DUP2 MSTORE PUSH1 0x20 ADD SWAP1 DUP2 MSTORE PUSH1 0x20 ADD PUSH0 KECCAK256 PUSH1 0x1 ADD PUSH0 SWAP1 SLOAD SWAP1 PUSH2 0x100 EXP SWAP1 DIV PUSH20 0xFFFFFFFFFFFFFFFFFFFFFFFFFFFFFFFFFFFFFFFF AND PUSH20 0xFFFFFFFFFFFFFFFFFFFFFFFFFFFFFFFFFFFFFFFF AND SUB PUSH2 0xD8E JUMPI PUSH1 0x40 MLOAD PUSH32 0x8C379A000000000000000000000000000000000000000000000000000000000 DUP2 MSTORE PUSH1 0x4 ADD PUSH2 0xD85 SWAP1 PUSH2 0x31D6 JUMP JUMPDEST PUSH1 0x40 MLOAD DUP1 SWAP2 SUB SWAP1 REVERT JUMPDEST DUP3 PUSH1 0x4 PUSH0 DUP3 DUP2 MSTORE PUSH1 0x20 ADD SWAP1 DUP2 MSTORE PUSH1 0x20 ADD PUSH0 KECCAK256 PUSH1 0x8 ADD PUSH0 SWAP1 SLOAD SWAP1 PUSH2 0x100 EXP SWAP1 DIV PUSH1 0xFF AND ISZERO PUSH2 0xDF0 JUMPI PUSH1 0x40 MLOAD PUSH32 0x8C379A000000000000000000000000000000000000000000000000000000000 DUP2 MSTORE PUSH1 0x4 ADD PUSH2 0xDE7 SWAP1 PUSH2 0x323E JUMP JUMPDEST PUSH1 0x40 MLOAD DUP1 SWAP2 SUB SWAP1 REVERT JUMPDEST PUSH0 PUSH1 0x4 PUSH0 DUP7 DUP2 MSTORE PUSH1 0x20 ADD SWAP1 DUP2 MSTORE PUSH1 0x20 ADD PUSH0 KECCAK256 PUSH1 0x40 MLOAD DUP1 PUSH2 0x140 ADD PUSH1 0x40 MSTORE SWAP1 DUP2 PUSH0 DUP3 ADD SLOAD DUP2 MSTORE PUSH1 0x20 ADD PUSH1 0x1 DUP3 ADD PUSH0 SWAP1 SLOAD SWAP1 PUSH2 0x100 EXP SWAP1 DIV PUSH20 0xFFFFFFFFFFFFFFFFFFFFFFFFFFFFFFFFFFFFFFFF AND PUSH20 0xFFFFFFFFFFFFFFFFFFFFFFFFFFFFFFFFFFFFFFFF AND PUSH20 0xFFFFFFFFFFFFFFFFFFFFFFFFFFFFFFFFFFFFFFFF AND DUP2 MSTORE PUSH1 0x20 ADD PUSH1 0x2 DUP3 ADD DUP1 SLOAD PUSH2 0xE7C SWAP1 PUSH2 0x3318 JUMP JUMPDEST DUP1 PUSH1 0x1F ADD PUSH1 0x20 DUP1 SWAP2 DIV MUL PUSH1 0x20 ADD PUSH1 0x40 MLOAD SWAP1 DUP2 ADD PUSH1 0x40 MSTORE DUP1 SWAP3 SWAP2 SWAP1 DUP2 DUP2 MSTORE PUSH1 0x20 ADD DUP3 DUP1 SLOAD PUSH2 0xEA8 SWAP1 PUSH2 0x3318 JUMP JUMPDEST DUP1 ISZERO PUSH2 0xEF3 JUMPI DUP1 PUSH1 0x1F LT PUSH2 0xECA JUMPI PUSH2 0x100 DUP1 DUP4 SLOAD DIV MUL DUP4 MSTORE SWAP2 PUSH1 0x20 ADD SWAP2 PUSH2 0xEF3 JUMP JUMPDEST DUP3 ADD SWAP2 SWAP1 PUSH0 MSTORE PUSH1 0x20 PUSH0 KECCAK256 SWAP1 JUMPDEST DUP2 SLOAD DUP2 MSTORE SWAP1 PUSH1 0x1 ADD SWAP1 PUSH1 0x20 ADD DUP1 DUP4 GT PUSH2 0xED6 JUMPI DUP3 SWAP1 SUB PUSH1 0x1F AND DUP3 ADD SWAP2 JUMPDEST POP POP POP POP POP DUP2 MSTORE PUSH1 0x20 ADD PUSH1 0x3 DUP3 ADD DUP1 SLOAD PUSH2 0xF0C SWAP1 PUSH2 0x3318 JUMP JUMPDEST DUP1 PUSH1 0x1F ADD PUSH1 0x20 DUP1 SWAP2 DIV MUL PUSH1 0x20 ADD PUSH1 0x40 MLOAD SWAP1 DUP2 ADD PUSH1 0x40 MSTORE DUP1 SWAP3 SWAP2 SWAP1 DUP2 DUP2 MSTORE PUSH1 0x20 ADD DUP3 DUP1 SLOAD PUSH2 0xF38 SWAP1 PUSH2 0x3318 JUMP JUMPDEST DUP1 ISZERO PUSH2 0xF83 JUMPI DUP1 PUSH1 0x1F LT PUSH2 0xF5A JUMPI PUSH2 0x100 DUP1 DUP4 SLOAD DIV MUL DUP4 MSTORE SWAP2 PUSH1 0x20 ADD SWAP2 PUSH2 0xF83 JUMP JUMPDEST DUP3 ADD SWAP2 SWAP1 PUSH0 MSTORE PUSH1 0x20 PUSH0 KECCAK256 SWAP1 JUMPDEST DUP2 SLOAD DUP2 MSTORE SWAP1 PUSH1 0x1 ADD SWAP1 PUSH1 0x20 ADD DUP1 DUP4 GT PUSH2 0xF66 JUMPI DUP3 SWAP1 SUB PUSH1 0x1F AND DUP3 ADD SWAP2 JUMPDEST POP POP POP POP POP DUP2 MSTORE PUSH1 0x20 ADD PUSH1 0x4 DUP3 ADD DUP1 SLOAD PUSH2 0xF9C SWAP1 PUSH2 0x3318 JUMP JUMPDEST DUP1 PUSH1 0x1F ADD PUSH1 0x20 DUP1 SWAP2 DIV MUL PUSH1 0x20 ADD PUSH1 0x40 MLOAD SWAP1 DUP2 ADD PUSH1 0x40 MSTORE DUP1 SWAP3 SWAP2 SWAP1 DUP2 DUP2 MSTORE PUSH1 0x20 ADD DUP3 DUP1 SLOAD PUSH2 0xFC8 SWAP1 PUSH2 0x3318 JUMP JUMPDEST DUP1 ISZERO PUSH2 0x1013 JUMPI DUP1 PUSH1 0x1F LT PUSH2 0xFEA JUMPI PUSH2 0x100 DUP1 DUP4 SLOAD DIV MUL DUP4 MSTORE SWAP2 PUSH1 0x20 ADD SWAP2 PUSH2 0x1013 JUMP JUMPDEST DUP3 ADD SWAP2 SWAP1 PUSH0 MSTORE PUSH1 0x20 PUSH0 KECCAK256 SWAP1 JUMPDEST DUP2 SLOAD DUP2 MSTORE SWAP1 PUSH1 0x1 ADD SWAP1 PUSH1 0x20 ADD DUP1 DUP4 GT PUSH2 0xFF6 JUMPI DUP3 SWAP1 SUB PUSH1 0x1F AND DUP3 ADD SWAP2 JUMPDEST POP POP POP POP POP DUP2 MSTORE PUSH1 0x20 ADD PUSH1 0x5 DUP3 ADD SLOAD DUP2 MSTORE PUSH1 0x20 ADD PUSH1 0x6 DUP3 ADD SLOAD DUP2 MSTORE PUSH1 0x20 ADD PUSH1 0x7 DUP3 ADD SLOAD DUP2 MSTORE PUSH1 0x20 ADD PUSH1 0x8 DUP3 ADD PUSH0 SWAP1 SLOAD SWAP1 PUSH2 0x100 EXP SWAP1 DIV PUSH1 0xFF AND ISZERO ISZERO ISZERO ISZERO DUP2 MSTORE PUSH1 0x20 ADD PUSH1 0x9 DUP3 ADD SLOAD DUP2 MSTORE POP POP SWAP1 POP DUP1 PUSH1 0xE0 ADD MLOAD TIMESTAMP GT ISZERO PUSH2 0x10A7 JUMPI PUSH1 0x40 MLOAD PUSH32 0x8C379A000000000000000000000000000000000000000000000000000000000 DUP2 MSTORE PUSH1 0x4 ADD PUSH2 0x109E SWAP1 PUSH2 0x3716 JUMP JUMPDEST PUSH1 0x40 MLOAD DUP1 SWAP2 SUB SWAP1 REVERT JUMPDEST PUSH1 0x1 SLOAD CALLVALUE EQ PUSH2 0x10EB JUMPI PUSH1 0x40 MLOAD PUSH32 0x8C379A000000000000000000000000000000000000000000000000000000000 DUP2 MSTORE PUSH1 0x4 ADD PUSH2 0x10E2 SWAP1 PUSH2 0x377E JUMP JUMPDEST PUSH1 0x40 MLOAD DUP1 SWAP2 SUB SWAP1 REVERT JUMPDEST PUSH0 PUSH1 0x5 PUSH0 DUP8 DUP2 MSTORE PUSH1 0x20 ADD SWAP1 DUP2 MSTORE PUSH1 0x20 ADD PUSH0 KECCAK256 PUSH0 DUP7 DUP2 MSTORE PUSH1 0x20 ADD SWAP1 DUP2 MSTORE PUSH1 0x20 ADD PUSH0 KECCAK256 SWAP1 POP PUSH1 0x1 DUP2 PUSH1 0x2 ADD PUSH0 DUP3 DUP3 SLOAD PUSH2 0x1122 SWAP2 SWAP1 PUSH2 0x379C JUMP JUMPDEST SWAP3 POP POP DUP2 SWAP1 SSTORE POP CALLVALUE PUSH1 0x4 PUSH0 DUP9 DUP2 MSTORE PUSH1 0x20 ADD SWAP1 DUP2 MSTORE PUSH1 0x20 ADD PUSH0 KECCAK256 PUSH1 0x5 ADD PUSH0 DUP3 DUP3 SLOAD PUSH2 0x114C SWAP2 SWAP1 PUSH2 0x379C JUMP JUMPDEST SWAP3 POP POP DUP2 SWAP1 SSTORE POP CALLER PUSH20 0xFFFFFFFFFFFFFFFFFFFFFFFFFFFFFFFFFFFFFFFF AND PUSH32 0xD91ECAFCCF238642DCCD41161308B3EEBE62A12BC5819DAF5164780C221EC95B DUP8 DUP8 PUSH1 0x40 MLOAD PUSH2 0x119B SWAP3 SWAP2 SWAP1 PUSH2 0x32C4 JUMP JUMPDEST PUSH1 0x40 MLOAD DUP1 SWAP2 SUB SWAP1 LOG2 POP POP POP POP POP POP JUMP JUMPDEST PUSH1 0x6 PUSH1 0x20 MSTORE DUP1 PUSH0 MSTORE PUSH1 0x40 PUSH0 KECCAK256 PUSH0 SWAP2 POP SWAP1 POP SLOAD DUP2 JUMP JUMPDEST PUSH1 0x4 PUSH1 0x20 MSTORE DUP1 PUSH0 MSTORE PUSH1 0x40 PUSH0 KECCAK256 PUSH0 SWAP2 POP SWAP1 POP DUP1 PUSH0 ADD SLOAD SWAP1 DUP1 PUSH1 0x1 ADD PUSH0 SWAP1 SLOAD SWAP1 PUSH2 0x100 EXP SWAP1 DIV PUSH20 0xFFFFFFFFFFFFFFFFFFFFFFFFFFFFFFFFFFFFFFFF AND SWAP1 DUP1 PUSH1 0x2 ADD DUP1 SLOAD PUSH2 0x120A SWAP1 PUSH2 0x3318 JUMP JUMPDEST DUP1 PUSH1 0x1F ADD PUSH1 0x20 DUP1 SWAP2 DIV MUL PUSH1 0x20 ADD PUSH1 0x40 MLOAD SWAP1 DUP2 ADD PUSH1 0x40 MSTORE DUP1 SWAP3 SWAP2 SWAP1 DUP2 DUP2 MSTORE PUSH1 0x20 ADD DUP3 DUP1 SLOAD PUSH2 0x1236 SWAP1 PUSH2 0x3318 JUMP JUMPDEST DUP1 ISZERO PUSH2 0x1281 JUMPI DUP1 PUSH1 0x1F LT PUSH2 0x1258 JUMPI PUSH2 0x100 DUP1 DUP4 SLOAD DIV MUL DUP4 MSTORE SWAP2 PUSH1 0x20 ADD SWAP2 PUSH2 0x1281 JUMP JUMPDEST DUP3 ADD SWAP2 SWAP1 PUSH0 MSTORE PUSH1 0x20 PUSH0 KECCAK256 SWAP1 JUMPDEST DUP2 SLOAD DUP2 MSTORE SWAP1 PUSH1 0x1 ADD SWAP1 PUSH1 0x20 ADD DUP1 DUP4 GT PUSH2 0x1264 JUMPI DUP3 SWAP1 SUB PUSH1 0x1F AND DUP3 ADD SWAP2 JUMPDEST POP POP POP POP POP SWAP1 DUP1 PUSH1 0x3 ADD DUP1 SLOAD PUSH2 0x1296 SWAP1 PUSH2 0x3318 JUMP JUMPDEST DUP1 PUSH1 0x1F ADD PUSH1 0x20 DUP1 SWAP2 DIV MUL PUSH1 0x20 ADD PUSH1 0x40 MLOAD SWAP1 DUP2 ADD PUSH1 0x40 MSTORE DUP1 SWAP3 SWAP2 SWAP1 DUP2 DUP2 MSTORE PUSH1 0x20 ADD DUP3 DUP1 SLOAD PUSH2 0x12C2 SWAP1 PUSH2 0x3318 JUMP JUMPDEST DUP1 ISZERO PUSH2 0x130D JUMPI DUP1 PUSH1 0x1F LT PUSH2 0x12E4 JUMPI PUSH2 0x100 DUP1 DUP4 SLOAD DIV MUL DUP4 MSTORE SWAP2 PUSH1 0x20 ADD SWAP2 PUSH2 0x130D JUMP JUMPDEST DUP3 ADD SWAP2 SWAP1 PUSH0 MSTORE PUSH1 0x20 PUSH0 KECCAK256 SWAP1 JUMPDEST DUP2 SLOAD DUP2 MSTORE SWAP1 PUSH1 0x1 ADD SWAP1 PUSH1 0x20 ADD DUP1 DUP4 GT PUSH2 0x12F0 JUMPI DUP3 SWAP1 SUB PUSH1 0x1F AND DUP3 ADD SWAP2 JUMPDEST POP POP POP POP POP SWAP1 DUP1 PUSH1 0x4 ADD DUP1 SLOAD PUSH2 0x1322 SWAP1 PUSH2 0x3318 JUMP JUMPDEST DUP1 PUSH1 0x1F ADD PUSH1 0x20 DUP1 SWAP2 DIV MUL PUSH1 0x20 ADD PUSH1 0x40 MLOAD SWAP1 DUP2 ADD PUSH1 0x40 MSTORE DUP1 SWAP3 SWAP2 SWAP1 DUP2 DUP2 MSTORE PUSH1 0x20 ADD DUP3 DUP1 SLOAD PUSH2 0x134E SWAP1 PUSH2 0x3318 JUMP JUMPDEST DUP1 ISZERO PUSH2 0x1399 JUMPI DUP1 PUSH1 0x1F LT PUSH2 0x1370 JUMPI PUSH2 0x100 DUP1 DUP4 SLOAD DIV MUL DUP4 MSTORE SWAP2 PUSH1 0x20 ADD SWAP2 PUSH2 0x1399 JUMP JUMPDEST DUP3 ADD SWAP2 SWAP1 PUSH0 MSTORE PUSH1 0x20 PUSH0 KECCAK256 SWAP1 JUMPDEST DUP2 SLOAD DUP2 MSTORE SWAP1 PUSH1 0x1 ADD SWAP1 PUSH1 0x20 ADD DUP1 DUP4 GT PUSH2 0x137C JUMPI DUP3 SWAP1 SUB PUSH1 0x1F AND DUP3 ADD SWAP2 JUMPDEST POP POP POP POP POP SWAP1 DUP1 PUSH1 0x5 ADD SLOAD SWAP1 DUP1 PUSH1 0x6 ADD SLOAD SWAP1 DUP1 PUSH1 0x7 ADD SLOAD SWAP1 DUP1 PUSH1 0x8 ADD PUSH0 SWAP1 SLOAD SWAP1 PUSH2 0x100 EXP SWAP1 DIV PUSH1 0xFF AND SWAP1 DUP1 PUSH1 0x9 ADD SLOAD SWAP1 POP DUP11 JUMP JUMPDEST PUSH0 PUSH1 0x6 PUSH0 CALLER PUSH20 0xFFFFFFFFFFFFFFFFFFFFFFFFFFFFFFFFFFFFFFFF AND PUSH20 0xFFFFFFFFFFFFFFFFFFFFFFFFFFFFFFFFFFFFFFFF AND DUP2 MSTORE PUSH1 0x20 ADD SWAP1 DUP2 MSTORE PUSH1 0x20 ADD PUSH0 KECCAK256 SLOAD SWAP1 POP PUSH0 DUP2 GT PUSH2 0x1450 JUMPI PUSH1 0x40 MLOAD PUSH32 0x8C379A000000000000000000000000000000000000000000000000000000000 DUP2 MSTORE PUSH1 0x4 ADD PUSH2 0x1447 SWAP1 PUSH2 0x3819 JUMP JUMPDEST PUSH1 0x40 MLOAD DUP1 SWAP2 SUB SWAP1 REVERT JUMPDEST PUSH0 PUSH1 0x6 PUSH0 CALLER PUSH20 0xFFFFFFFFFFFFFFFFFFFFFFFFFFFFFFFFFFFFFFFF AND PUSH20 0xFFFFFFFFFFFFFFFFFFFFFFFFFFFFFFFFFFFFFFFF AND DUP2 MSTORE PUSH1 0x20 ADD SWAP1 DUP2 MSTORE PUSH1 0x20 ADD PUSH0 KECCAK256 DUP2 SWAP1 SSTORE POP CALLER PUSH20 0xFFFFFFFFFFFFFFFFFFFFFFFFFFFFFFFFFFFFFFFF AND PUSH2 0x8FC DUP3 SWAP1 DUP2 ISZERO MUL SWAP1 PUSH1 0x40 MLOAD PUSH0 PUSH1 0x40 MLOAD DUP1 DUP4 SUB DUP2 DUP6 DUP9 DUP9 CALL SWAP4 POP POP POP POP ISZERO DUP1 ISZERO PUSH2 0x14D5 JUMPI RETURNDATASIZE PUSH0 DUP1 RETURNDATACOPY RETURNDATASIZE PUSH0 REVERT JUMPDEST POP POP JUMP JUMPDEST PUSH2 0x14E1 PUSH2 0x267B JUMP JUMPDEST PUSH0 PUSH20 0xFFFFFFFFFFFFFFFFFFFFFFFFFFFFFFFFFFFFFFFF AND PUSH1 0x5 PUSH0 DUP6 DUP2 MSTORE PUSH1 0x20 ADD SWAP1 DUP2 MSTORE PUSH1 0x20 ADD PUSH0 KECCAK256 PUSH0 DUP5 DUP2 MSTORE PUSH1 0x20 ADD SWAP1 DUP2 MSTORE PUSH1 0x20 ADD PUSH0 KECCAK256 PUSH0 ADD PUSH0 SWAP1 SLOAD SWAP1 PUSH2 0x100 EXP SWAP1 DIV PUSH20 0xFFFFFFFFFFFFFFFFFFFFFFFFFFFFFFFFFFFFFFFF AND PUSH20 0xFFFFFFFFFFFFFFFFFFFFFFFFFFFFFFFFFFFFFFFF AND SUB PUSH2 0x1590 JUMPI PUSH1 0x40 MLOAD PUSH32 0x8C379A000000000000000000000000000000000000000000000000000000000 DUP2 MSTORE PUSH1 0x4 ADD PUSH2 0x1587 SWAP1 PUSH2 0x3881 JUMP JUMPDEST PUSH1 0x40 MLOAD DUP1 SWAP2 SUB SWAP1 REVERT JUMPDEST PUSH1 0x5 PUSH0 DUP5 DUP2 MSTORE PUSH1 0x20 ADD SWAP1 DUP2 MSTORE PUSH1 0x20 ADD PUSH0 KECCAK256 PUSH0 DUP4 DUP2 MSTORE PUSH1 0x20 ADD SWAP1 DUP2 MSTORE PUSH1 0x20 ADD PUSH0 KECCAK256 PUSH1 0x40 MLOAD DUP1 PUSH1 0xA0 ADD PUSH1 0x40 MSTORE SWAP1 DUP2 PUSH0 DUP3 ADD PUSH0 SWAP1 SLOAD SWAP1 PUSH2 0x100 EXP SWAP1 DIV PUSH20 0xFFFFFFFFFFFFFFFFFFFFFFFFFFFFFFFFFFFFFFFF AND PUSH20 0xFFFFFFFFFFFFFFFFFFFFFFFFFFFFFFFFFFFFFFFF AND PUSH20 0xFFFFFFFFFFFFFFFFFFFFFFFFFFFFFFFFFFFFFFFF AND DUP2 MSTORE PUSH1 0x20 ADD PUSH1 0x1 DUP3 ADD DUP1 SLOAD PUSH2 0x161F SWAP1 PUSH2 0x3318 JUMP JUMPDEST DUP1 PUSH1 0x1F ADD PUSH1 0x20 DUP1 SWAP2 DIV MUL PUSH1 0x20 ADD PUSH1 0x40 MLOAD SWAP1 DUP2 ADD PUSH1 0x40 MSTORE DUP1 SWAP3 SWAP2 SWAP1 DUP2 DUP2 MSTORE PUSH1 0x20 ADD DUP3 DUP1 SLOAD PUSH2 0x164B SWAP1 PUSH2 0x3318 JUMP JUMPDEST DUP1 ISZERO PUSH2 0x1696 JUMPI DUP1 PUSH1 0x1F LT PUSH2 0x166D JUMPI PUSH2 0x100 DUP1 DUP4 SLOAD DIV MUL DUP4 MSTORE SWAP2 PUSH1 0x20 ADD SWAP2 PUSH2 0x1696 JUMP JUMPDEST DUP3 ADD SWAP2 SWAP1 PUSH0 MSTORE PUSH1 0x20 PUSH0 KECCAK256 SWAP1 JUMPDEST DUP2 SLOAD DUP2 MSTORE SWAP1 PUSH1 0x1 ADD SWAP1 PUSH1 0x20 ADD DUP1 DUP4 GT PUSH2 0x1679 JUMPI DUP3 SWAP1 SUB PUSH1 0x1F AND DUP3 ADD SWAP2 JUMPDEST POP POP POP POP POP DUP2 MSTORE PUSH1 0x20 ADD PUSH1 0x2 DUP3 ADD SLOAD DUP2 MSTORE PUSH1 0x20 ADD PUSH1 0x3 DUP3 ADD SLOAD DUP2 MSTORE PUSH1 0x20 ADD PUSH1 0x4 DUP3 ADD SLOAD DUP2 MSTORE POP POP SWAP1 POP SWAP3 SWAP2 POP POP JUMP JUMPDEST PUSH1 0x60 PUSH0 PUSH1 0x2 SLOAD PUSH8 0xFFFFFFFFFFFFFFFF DUP2 GT ISZERO PUSH2 0x16E4 JUMPI PUSH2 0x16E3 PUSH2 0x27BA JUMP JUMPDEST JUMPDEST PUSH1 0x40 MLOAD SWAP1 DUP1 DUP3 MSTORE DUP1 PUSH1 0x20 MUL PUSH1 0x20 ADD DUP3 ADD PUSH1 0x40 MSTORE DUP1 ISZERO PUSH2 0x1712 JUMPI DUP2 PUSH1 0x20 ADD PUSH1 0x20 DUP3 MUL DUP1 CALLDATASIZE DUP4 CALLDATACOPY DUP1 DUP3 ADD SWAP2 POP POP SWAP1 POP JUMPDEST POP SWAP1 POP PUSH0 DUP1 PUSH1 0x1 SWAP1 POP JUMPDEST PUSH1 0x2 SLOAD DUP2 LT ISZERO PUSH2 0x1798 JUMPI DUP5 DUP1 MLOAD SWAP1 PUSH1 0x20 ADD KECCAK256 PUSH1 0x4 PUSH0 DUP4 DUP2 MSTORE PUSH1 0x20 ADD SWAP1 DUP2 MSTORE PUSH1 0x20 ADD PUSH0 KECCAK256 PUSH1 0x4 ADD PUSH1 0x40 MLOAD PUSH2 0x174F SWAP2 SWAP1 PUSH2 0x393B JUMP JUMPDEST PUSH1 0x40 MLOAD DUP1 SWAP2 SUB SWAP1 KECCAK256 SUB PUSH2 0x178B JUMPI DUP1 DUP4 DUP4 DUP2 MLOAD DUP2 LT PUSH2 0x1770 JUMPI PUSH2 0x176F PUSH2 0x3951 JUMP JUMPDEST JUMPDEST PUSH1 0x20 MUL PUSH1 0x20 ADD ADD DUP2 DUP2 MSTORE POP POP DUP2 DUP1 PUSH2 0x1787 SWAP1 PUSH2 0x33DD JUMP JUMPDEST SWAP3 POP POP JUMPDEST DUP1 DUP1 PUSH1 0x1 ADD SWAP2 POP POP PUSH2 0x171C JUMP JUMPDEST POP PUSH0 DUP2 PUSH8 0xFFFFFFFFFFFFFFFF DUP2 GT ISZERO PUSH2 0x17B4 JUMPI PUSH2 0x17B3 PUSH2 0x27BA JUMP JUMPDEST JUMPDEST PUSH1 0x40 MLOAD SWAP1 DUP1 DUP3 MSTORE DUP1 PUSH1 0x20 MUL PUSH1 0x20 ADD DUP3 ADD PUSH1 0x40 MSTORE DUP1 ISZERO PUSH2 0x17E2 JUMPI DUP2 PUSH1 0x20 ADD PUSH1 0x20 DUP3 MUL DUP1 CALLDATASIZE DUP4 CALLDATACOPY DUP1 DUP3 ADD SWAP2 POP POP SWAP1 POP JUMPDEST POP SWAP1 POP PUSH0 JUMPDEST DUP3 DUP2 LT ISZERO PUSH2 0x1836 JUMPI DUP4 DUP2 DUP2 MLOAD DUP2 LT PUSH2 0x1802 JUMPI PUSH2 0x1801 PUSH2 0x3951 JUMP JUMPDEST JUMPDEST PUSH1 0x20 MUL PUSH1 0x20 ADD ADD MLOAD DUP3 DUP3 DUP2 MLOAD DUP2 LT PUSH2 0x181D JUMPI PUSH2 0x181C PUSH2 0x3951 JUMP JUMPDEST JUMPDEST PUSH1 0x20 MUL PUSH1 0x20 ADD ADD DUP2 DUP2 MSTORE POP POP DUP1 DUP1 PUSH1 0x1 ADD SWAP2 POP POP PUSH2 0x17E7 JUMP JUMPDEST POP DUP1 SWAP4 POP POP POP POP SWAP2 SWAP1 POP JUMP JUMPDEST PUSH0 CALLVALUE GT PUSH2 0x1884 JUMPI PUSH1 0x40 MLOAD PUSH32 0x8C379A000000000000000000000000000000000000000000000000000000000 DUP2 MSTORE PUSH1 0x4 ADD PUSH2 0x187B SWAP1 PUSH2 0x39C8 JUMP JUMPDEST PUSH1 0x40 MLOAD DUP1 SWAP2 SUB SWAP1 REVERT JUMPDEST PUSH0 DUP3 MLOAD GT PUSH2 0x18C7 JUMPI PUSH1 0x40 MLOAD PUSH32 0x8C379A000000000000000000000000000000000000000000000000000000000 DUP2 MSTORE PUSH1 0x4 ADD PUSH2 0x18BE SWAP1 PUSH2 0x3A30 JUMP JUMPDEST PUSH1 0x40 MLOAD DUP1 SWAP2 SUB SWAP1 REVERT JUMPDEST PUSH0 DUP1 PUSH1 0x2 DUP2 GT ISZERO PUSH2 0x18DB JUMPI PUSH2 0x18DA PUSH2 0x3A4E JUMP JUMPDEST JUMPDEST DUP3 PUSH1 0x2 DUP2 GT ISZERO PUSH2 0x18EE JUMPI PUSH2 0x18ED PUSH2 0x3A4E JUMP JUMPDEST JUMPDEST SUB PUSH2 0x1909 JUMPI PUSH3 0x93A80 TIMESTAMP PUSH2 0x1902 SWAP2 SWAP1 PUSH2 0x379C JUMP JUMPDEST SWAP1 POP PUSH2 0x198A JUMP JUMPDEST PUSH1 0x1 PUSH1 0x2 DUP2 GT ISZERO PUSH2 0x191D JUMPI PUSH2 0x191C PUSH2 0x3A4E JUMP JUMPDEST JUMPDEST DUP3 PUSH1 0x2 DUP2 GT ISZERO PUSH2 0x1930 JUMPI PUSH2 0x192F PUSH2 0x3A4E JUMP JUMPDEST JUMPDEST SUB PUSH2 0x194B JUMPI PUSH3 0x127500 TIMESTAMP PUSH2 0x1944 SWAP2 SWAP1 PUSH2 0x379C JUMP JUMPDEST SWAP1 POP PUSH2 0x1989 JUMP JUMPDEST PUSH1 0x2 DUP1 DUP2 GT ISZERO PUSH2 0x195E JUMPI PUSH2 0x195D PUSH2 0x3A4E JUMP JUMPDEST JUMPDEST DUP3 PUSH1 0x2 DUP2 GT ISZERO PUSH2 0x1971 JUMPI PUSH2 0x1970 PUSH2 0x3A4E JUMP JUMPDEST JUMPDEST SUB PUSH2 0x1988 JUMPI PUSH3 0x278D00 TIMESTAMP PUSH2 0x1985 SWAP2 SWAP1 PUSH2 0x379C JUMP JUMPDEST SWAP1 POP JUMPDEST JUMPDEST JUMPDEST PUSH0 PUSH1 0x2 PUSH0 DUP2 SLOAD DUP1 SWAP3 SWAP2 SWAP1 PUSH2 0x199D SWAP1 PUSH2 0x33DD JUMP JUMPDEST SWAP2 SWAP1 POP SSTORE SWAP1 POP PUSH1 0x40 MLOAD DUP1 PUSH2 0x140 ADD PUSH1 0x40 MSTORE DUP1 DUP3 DUP2 MSTORE PUSH1 0x20 ADD CALLER PUSH20 0xFFFFFFFFFFFFFFFFFFFFFFFFFFFFFFFFFFFFFFFF AND DUP2 MSTORE PUSH1 0x20 ADD DUP8 DUP2 MSTORE PUSH1 0x20 ADD DUP7 DUP2 MSTORE PUSH1 0x20 ADD DUP6 DUP2 MSTORE PUSH1 0x20 ADD CALLVALUE DUP2 MSTORE PUSH1 0x20 ADD TIMESTAMP DUP2 MSTORE PUSH1 0x20 ADD DUP4 DUP2 MSTORE PUSH1 0x20 ADD PUSH0 ISZERO ISZERO DUP2 MSTORE PUSH1 0x20 ADD PUSH0 DUP2 MSTORE POP PUSH1 0x4 PUSH0 DUP4 DUP2 MSTORE PUSH1 0x20 ADD SWAP1 DUP2 MSTORE PUSH1 0x20 ADD PUSH0 KECCAK256 PUSH0 DUP3 ADD MLOAD DUP2 PUSH0 ADD SSTORE PUSH1 0x20 DUP3 ADD MLOAD DUP2 PUSH1 0x1 ADD PUSH0 PUSH2 0x100 EXP DUP2 SLOAD DUP2 PUSH20 0xFFFFFFFFFFFFFFFFFFFFFFFFFFFFFFFFFFFFFFFF MUL NOT AND SWAP1 DUP4 PUSH20 0xFFFFFFFFFFFFFFFFFFFFFFFFFFFFFFFFFFFFFFFF AND MUL OR SWAP1 SSTORE POP PUSH1 0x40 DUP3 ADD MLOAD DUP2 PUSH1 0x2 ADD SWAP1 DUP2 PUSH2 0x1A75 SWAP2 SWAP1 PUSH2 0x35C1 JUMP JUMPDEST POP PUSH1 0x60 DUP3 ADD MLOAD DUP2 PUSH1 0x3 ADD SWAP1 DUP2 PUSH2 0x1A8B SWAP2 SWAP1 PUSH2 0x35C1 JUMP JUMPDEST POP PUSH1 0x80 DUP3 ADD MLOAD DUP2 PUSH1 0x4 ADD SWAP1 DUP2 PUSH2 0x1AA1 SWAP2 SWAP1 PUSH2 0x35C1 JUMP JUMPDEST POP PUSH1 0xA0 DUP3 ADD MLOAD DUP2 PUSH1 0x5 ADD SSTORE PUSH1 0xC0 DUP3 ADD MLOAD DUP2 PUSH1 0x6 ADD SSTORE PUSH1 0xE0 DUP3 ADD MLOAD DUP2 PUSH1 0x7 ADD SSTORE PUSH2 0x100 DUP3 ADD MLOAD DUP2 PUSH1 0x8 ADD PUSH0 PUSH2 0x100 EXP DUP2 SLOAD DUP2 PUSH1 0xFF MUL NOT AND SWAP1 DUP4 ISZERO ISZERO MUL OR SWAP1 SSTORE POP PUSH2 0x120 DUP3 ADD MLOAD DUP2 PUSH1 0x9 ADD SSTORE SWAP1 POP POP CALLER PUSH20 0xFFFFFFFFFFFFFFFFFFFFFFFFFFFFFFFFFFFFFFFF AND PUSH32 0xB8105899D34D8481E717A601E8D7A732C27B0AB23778E01145F2F3EB24A1120C DUP3 DUP9 CALLVALUE DUP9 PUSH1 0x40 MLOAD PUSH2 0x1B3A SWAP5 SWAP4 SWAP3 SWAP2 SWAP1 PUSH2 0x3A7B JUMP JUMPDEST PUSH1 0x40 MLOAD DUP1 SWAP2 SUB SWAP1 LOG2 POP POP POP POP POP POP JUMP JUMPDEST DUP1 PUSH0 PUSH20 0xFFFFFFFFFFFFFFFFFFFFFFFFFFFFFFFFFFFFFFFF AND PUSH1 0x4 PUSH0 DUP4 DUP2 MSTORE PUSH1 0x20 ADD SWAP1 DUP2 MSTORE PUSH1 0x20 ADD PUSH0 KECCAK256 PUSH1 0x1 ADD PUSH0 SWAP1 SLOAD SWAP1 PUSH2 0x100 EXP SWAP1 DIV PUSH20 0xFFFFFFFFFFFFFFFFFFFFFFFFFFFFFFFFFFFFFFFF AND PUSH20 0xFFFFFFFFFFFFFFFFFFFFFFFFFFFFFFFFFFFFFFFF AND SUB PUSH2 0x1BEC JUMPI PUSH1 0x40 MLOAD PUSH32 0x8C379A000000000000000000000000000000000000000000000000000000000 DUP2 MSTORE PUSH1 0x4 ADD PUSH2 0x1BE3 SWAP1 PUSH2 0x31D6 JUMP JUMPDEST PUSH1 0x40 MLOAD DUP1 SWAP2 SUB SWAP1 REVERT JUMPDEST PUSH0 PUSH1 0x4 PUSH0 DUP5 DUP2 MSTORE PUSH1 0x20 ADD SWAP1 DUP2 MSTORE PUSH1 0x20 ADD PUSH0 KECCAK256 SWAP1 POP DUP1 PUSH1 0x7 ADD SLOAD TIMESTAMP GT PUSH2 0x1C46 JUMPI PUSH1 0x40 MLOAD PUSH32 0x8C379A000000000000000000000000000000000000000000000000000000000 DUP2 MSTORE PUSH1 0x4 ADD PUSH2 0x1C3D SWAP1 PUSH2 0x3B3C JUMP JUMPDEST PUSH1 0x40 MLOAD DUP1 SWAP2 SUB SWAP1 REVERT JUMPDEST DUP1 PUSH1 0x8 ADD PUSH0 SWAP1 SLOAD SWAP1 PUSH2 0x100 EXP SWAP1 DIV PUSH1 0xFF AND ISZERO PUSH2 0x1C97 JUMPI PUSH1 0x40 MLOAD PUSH32 0x8C379A000000000000000000000000000000000000000000000000000000000 DUP2 MSTORE PUSH1 0x4 ADD PUSH2 0x1C8E SWAP1 PUSH2 0x323E JUMP JUMPDEST PUSH1 0x40 MLOAD DUP1 SWAP2 SUB SWAP1 REVERT JUMPDEST PUSH0 DUP1 DUP3 PUSH1 0x5 ADD SLOAD SWAP1 POP PUSH0 JUMPDEST PUSH1 0x3 SLOAD DUP2 LT ISZERO PUSH2 0x1CEA JUMPI PUSH1 0x5 PUSH0 DUP8 DUP2 MSTORE PUSH1 0x20 ADD SWAP1 DUP2 MSTORE PUSH1 0x20 ADD PUSH0 KECCAK256 PUSH0 DUP3 DUP2 MSTORE PUSH1 0x20 ADD SWAP1 DUP2 MSTORE PUSH1 0x20 ADD PUSH0 KECCAK256 PUSH1 0x2 ADD SLOAD DUP4 PUSH2 0x1CDB SWAP2 SWAP1 PUSH2 0x379C JUMP JUMPDEST SWAP3 POP DUP1 DUP1 PUSH1 0x1 ADD SWAP2 POP POP PUSH2 0x1CA2 JUMP JUMPDEST POP PUSH0 JUMPDEST PUSH1 0x3 SLOAD DUP2 LT ISZERO PUSH2 0x1DDF JUMPI PUSH0 PUSH1 0x5 PUSH0 DUP9 DUP2 MSTORE PUSH1 0x20 ADD SWAP1 DUP2 MSTORE PUSH1 0x20 ADD PUSH0 KECCAK256 PUSH0 DUP4 DUP2 MSTORE PUSH1 0x20 ADD SWAP1 DUP2 MSTORE PUSH1 0x20 ADD PUSH0 KECCAK256 SWAP1 POP PUSH0 DUP5 GT ISZERO PUSH2 0x1DD1 JUMPI PUSH0 DUP5 DUP5 DUP4 PUSH1 0x2 ADD SLOAD PUSH2 0x1D34 SWAP2 SWAP1 PUSH2 0x3B5A JUMP JUMPDEST PUSH2 0x1D3E SWAP2 SWAP1 PUSH2 0x3BC8 JUMP JUMPDEST SWAP1 POP DUP1 DUP3 PUSH1 0x3 ADD PUSH0 DUP3 DUP3 SLOAD PUSH2 0x1D53 SWAP2 SWAP1 PUSH2 0x379C JUMP JUMPDEST SWAP3 POP POP DUP2 SWAP1 SSTORE POP DUP1 PUSH1 0x6 PUSH0 DUP5 PUSH0 ADD PUSH0 SWAP1 SLOAD SWAP1 PUSH2 0x100 EXP SWAP1 DIV PUSH20 0xFFFFFFFFFFFFFFFFFFFFFFFFFFFFFFFFFFFFFFFF AND PUSH20 0xFFFFFFFFFFFFFFFFFFFFFFFFFFFFFFFFFFFFFFFF AND PUSH20 0xFFFFFFFFFFFFFFFFFFFFFFFFFFFFFFFFFFFFFFFF AND DUP2 MSTORE PUSH1 0x20 ADD SWAP1 DUP2 MSTORE PUSH1 0x20 ADD PUSH0 KECCAK256 PUSH0 DUP3 DUP3 SLOAD PUSH2 0x1DC8 SWAP2 SWAP1 PUSH2 0x379C JUMP JUMPDEST SWAP3 POP POP DUP2 SWAP1 SSTORE POP POP JUMPDEST POP DUP1 DUP1 PUSH1 0x1 ADD SWAP2 POP POP PUSH2 0x1CED JUMP JUMPDEST POP PUSH1 0x1 DUP4 PUSH1 0x8 ADD PUSH0 PUSH2 0x100 EXP DUP2 SLOAD DUP2 PUSH1 0xFF MUL NOT AND SWAP1 DUP4 ISZERO ISZERO MUL OR SWAP1 SSTORE POP POP POP POP POP POP JUMP JUMPDEST PUSH1 0x2 SLOAD DUP2 JUMP JUMPDEST PUSH0 DUP1 SLOAD SWAP1 PUSH2 0x100 EXP SWAP1 DIV PUSH20 0xFFFFFFFFFFFFFFFFFFFFFFFFFFFFFFFFFFFFFFFF AND DUP2 JUMP JUMPDEST PUSH3 0x127500 DUP2 JUMP JUMPDEST PUSH0 SELFBALANCE SWAP1 POP SWAP1 JUMP JUMPDEST PUSH1 0x3 SLOAD DUP2 JUMP JUMPDEST PUSH3 0x278D00 DUP2 JUMP JUMPDEST PUSH1 0x1 SLOAD DUP2 JUMP JUMPDEST PUSH2 0x1E55 PUSH2 0x26BC JUMP JUMPDEST PUSH0 PUSH20 0xFFFFFFFFFFFFFFFFFFFFFFFFFFFFFFFFFFFFFFFF AND PUSH1 0x4 PUSH0 DUP5 DUP2 MSTORE PUSH1 0x20 ADD SWAP1 DUP2 MSTORE PUSH1 0x20 ADD PUSH0 KECCAK256 PUSH1 0x1 ADD PUSH0 SWAP1 SLOAD SWAP1 PUSH2 0x100 EXP SWAP1 DIV PUSH20 0xFFFFFFFFFFFFFFFFFFFFFFFFFFFFFFFFFFFFFFFF AND PUSH20 0xFFFFFFFFFFFFFFFFFFFFFFFFFFFFFFFFFFFFFFFF AND SUB PUSH2 0x1EF6 JUMPI PUSH1 0x40 MLOAD PUSH32 0x8C379A000000000000000000000000000000000000000000000000000000000 DUP2 MSTORE PUSH1 0x4 ADD PUSH2 0x1EED SWAP1 PUSH2 0x31D6 JUMP JUMPDEST PUSH1 0x40 MLOAD DUP1 SWAP2 SUB SWAP1 REVERT JUMPDEST PUSH1 0x4 PUSH0 DUP4 DUP2 MSTORE PUSH1 0x20 ADD SWAP1 DUP2 MSTORE PUSH1 0x20 ADD PUSH0 KECCAK256 PUSH1 0x40 MLOAD DUP1 PUSH2 0x140 ADD PUSH1 0x40 MSTORE SWAP1 DUP2 PUSH0 DUP3 ADD SLOAD DUP2 MSTORE PUSH1 0x20 ADD PUSH1 0x1 DUP3 ADD PUSH0 SWAP1 SLOAD SWAP1 PUSH2 0x100 EXP SWAP1 DIV PUSH20 0xFFFFFFFFFFFFFFFFFFFFFFFFFFFFFFFFFFFFFFFF AND PUSH20 0xFFFFFFFFFFFFFFFFFFFFFFFFFFFFFFFFFFFFFFFF AND PUSH20 0xFFFFFFFFFFFFFFFFFFFFFFFFFFFFFFFFFFFFFFFF AND DUP2 MSTORE PUSH1 0x20 ADD PUSH1 0x2 DUP3 ADD DUP1 SLOAD PUSH2 0x1F81 SWAP1 PUSH2 0x3318 JUMP JUMPDEST DUP1 PUSH1 0x1F ADD PUSH1 0x20 DUP1 SWAP2 DIV MUL PUSH1 0x20 ADD PUSH1 0x40 MLOAD SWAP1 DUP2 ADD PUSH1 0x40 MSTORE DUP1 SWAP3 SWAP2 SWAP1 DUP2 DUP2 MSTORE PUSH1 0x20 ADD DUP3 DUP1 SLOAD PUSH2 0x1FAD SWAP1 PUSH2 0x3318 JUMP JUMPDEST DUP1 ISZERO PUSH2 0x1FF8 JUMPI DUP1 PUSH1 0x1F LT PUSH2 0x1FCF JUMPI PUSH2 0x100 DUP1 DUP4 SLOAD DIV MUL DUP4 MSTORE SWAP2 PUSH1 0x20 ADD SWAP2 PUSH2 0x1FF8 JUMP JUMPDEST DUP3 ADD SWAP2 SWAP1 PUSH0 MSTORE PUSH1 0x20 PUSH0 KECCAK256 SWAP1 JUMPDEST DUP2 SLOAD DUP2 MSTORE SWAP1 PUSH1 0x1 ADD SWAP1 PUSH1 0x20 ADD DUP1 DUP4 GT PUSH2 0x1FDB JUMPI DUP3 SWAP1 SUB PUSH1 0x1F AND DUP3 ADD SWAP2 JUMPDEST POP POP POP POP POP DUP2 MSTORE PUSH1 0x20 ADD PUSH1 0x3 DUP3 ADD DUP1 SLOAD PUSH2 0x2011 SWAP1 PUSH2 0x3318 JUMP JUMPDEST DUP1 PUSH1 0x1F ADD PUSH1 0x20 DUP1 SWAP2 DIV MUL PUSH1 0x20 ADD PUSH1 0x40 MLOAD SWAP1 DUP2 ADD PUSH1 0x40 MSTORE DUP1 SWAP3 SWAP2 SWAP1 DUP2 DUP2 MSTORE PUSH1 0x20 ADD DUP3 DUP1 SLOAD PUSH2 0x203D SWAP1 PUSH2 0x3318 JUMP JUMPDEST DUP1 ISZERO PUSH2 0x2088 JUMPI DUP1 PUSH1 0x1F LT PUSH2 0x205F JUMPI PUSH2 0x100 DUP1 DUP4 SLOAD DIV MUL DUP4 MSTORE SWAP2 PUSH1 0x20 ADD SWAP2 PUSH2 0x2088 JUMP JUMPDEST DUP3 ADD SWAP2 SWAP1 PUSH0 MSTORE PUSH1 0x20 PUSH0 KECCAK256 SWAP1 JUMPDEST DUP2 SLOAD DUP2 MSTORE SWAP1 PUSH1 0x1 ADD SWAP1 PUSH1 0x20 ADD DUP1 DUP4 GT PUSH2 0x206B JUMPI DUP3 SWAP1 SUB PUSH1 0x1F AND DUP3 ADD SWAP2 JUMPDEST POP POP POP POP POP DUP2 MSTORE PUSH1 0x20 ADD PUSH1 0x4 DUP3 ADD DUP1 SLOAD PUSH2 0x20A1 SWAP1 PUSH2 0x3318 JUMP JUMPDEST DUP1 PUSH1 0x1F ADD PUSH1 0x20 DUP1 SWAP2 DIV MUL PUSH1 0x20 ADD PUSH1 0x40 MLOAD SWAP1 DUP2 ADD PUSH1 0x40 MSTORE DUP1 SWAP3 SWAP2 SWAP1 DUP2 DUP2 MSTORE PUSH1 0x20 ADD DUP3 DUP1 SLOAD PUSH2 0x20CD SWAP1 PUSH2 0x3318 JUMP JUMPDEST DUP1 ISZERO PUSH2 0x2118 JUMPI DUP1 PUSH1 0x1F LT PUSH2 0x20EF JUMPI PUSH2 0x100 DUP1 DUP4 SLOAD DIV MUL DUP4 MSTORE SWAP2 PUSH1 0x20 ADD SWAP2 PUSH2 0x2118 JUMP JUMPDEST DUP3 ADD SWAP2 SWAP1 PUSH0 MSTORE PUSH1 0x20 PUSH0 KECCAK256 SWAP1 JUMPDEST DUP2 SLOAD DUP2 MSTORE SWAP1 PUSH1 0x1 ADD SWAP1 PUSH1 0x20 ADD DUP1 DUP4 GT PUSH2 0x20FB JUMPI DUP3 SWAP1 SUB PUSH1 0x1F AND DUP3 ADD SWAP2 JUMPDEST POP POP POP POP POP DUP2 MSTORE PUSH1 0x20 ADD PUSH1 0x5 DUP3 ADD SLOAD DUP2 MSTORE PUSH1 0x20 ADD PUSH1 0x6 DUP3 ADD SLOAD DUP2 MSTORE PUSH1 0x20 ADD PUSH1 0x7 DUP3 ADD SLOAD DUP2 MSTORE PUSH1 0x20 ADD PUSH1 0x8 DUP3 ADD PUSH0 SWAP1 SLOAD SWAP1 PUSH2 0x100 EXP SWAP1 DIV PUSH1 0xFF AND ISZERO ISZERO ISZERO ISZERO DUP2 MSTORE PUSH1 0x20 ADD PUSH1 0x9 DUP3 ADD SLOAD DUP2 MSTORE POP POP SWAP1 POP SWAP2 SWAP1 POP JUMP JUMPDEST PUSH3 0x93A80 DUP2 JUMP JUMPDEST PUSH1 0x60 PUSH0 DUP1 PUSH0 DUP6 GT PUSH2 0x21B7 JUMPI PUSH1 0x40 MLOAD PUSH32 0x8C379A000000000000000000000000000000000000000000000000000000000 DUP2 MSTORE PUSH1 0x4 ADD PUSH2 0x21AE SWAP1 PUSH2 0x3C42 JUMP JUMPDEST PUSH1 0x40 MLOAD DUP1 SWAP2 SUB SWAP1 REVERT JUMPDEST PUSH0 DUP5 GT PUSH2 0x21F9 JUMPI PUSH1 0x40 MLOAD PUSH32 0x8C379A000000000000000000000000000000000000000000000000000000000 DUP2 MSTORE PUSH1 0x4 ADD PUSH2 0x21F0 SWAP1 PUSH2 0x3CAA JUMP JUMPDEST PUSH1 0x40 MLOAD DUP1 SWAP2 SUB SWAP1 REVERT JUMPDEST PUSH1 0x1 PUSH1 0x2 SLOAD PUSH2 0x2208 SWAP2 SWAP1 PUSH2 0x3CC8 JUMP JUMPDEST SWAP2 POP PUSH0 DUP3 SUB PUSH2 0x2272 JUMPI PUSH0 PUSH8 0xFFFFFFFFFFFFFFFF DUP2 GT ISZERO PUSH2 0x222B JUMPI PUSH2 0x222A PUSH2 0x27BA JUMP JUMPDEST JUMPDEST PUSH1 0x40 MLOAD SWAP1 DUP1 DUP3 MSTORE DUP1 PUSH1 0x20 MUL PUSH1 0x20 ADD DUP3 ADD PUSH1 0x40 MSTORE DUP1 ISZERO PUSH2 0x2264 JUMPI DUP2 PUSH1 0x20 ADD JUMPDEST PUSH2 0x2251 PUSH2 0x26BC JUMP JUMPDEST DUP2 MSTORE PUSH1 0x20 ADD SWAP1 PUSH1 0x1 SWAP1 SUB SWAP1 DUP2 PUSH2 0x2249 JUMPI SWAP1 POP JUMPDEST POP PUSH0 DUP1 SWAP3 POP SWAP3 POP SWAP3 POP PUSH2 0x2674 JUMP JUMPDEST DUP4 PUSH1 0x1 DUP6 DUP5 PUSH2 0x2281 SWAP2 SWAP1 PUSH2 0x379C JUMP JUMPDEST PUSH2 0x228B SWAP2 SWAP1 PUSH2 0x3CC8 JUMP JUMPDEST PUSH2 0x2295 SWAP2 SWAP1 PUSH2 0x3BC8 JUMP JUMPDEST SWAP1 POP DUP1 DUP6 GT ISZERO PUSH2 0x22DA JUMPI PUSH1 0x40 MLOAD PUSH32 0x8C379A000000000000000000000000000000000000000000000000000000000 DUP2 MSTORE PUSH1 0x4 ADD PUSH2 0x22D1 SWAP1 PUSH2 0x3D45 JUMP JUMPDEST PUSH1 0x40 MLOAD DUP1 SWAP2 SUB SWAP1 REVERT JUMPDEST PUSH0 PUSH1 0x1 DUP6 PUSH1 0x1 DUP9 PUSH2 0x22EB SWAP2 SWAP1 PUSH2 0x3CC8 JUMP JUMPDEST PUSH2 0x22F5 SWAP2 SWAP1 PUSH2 0x3B5A JUMP JUMPDEST PUSH2 0x22FF SWAP2 SWAP1 PUSH2 0x379C JUMP JUMPDEST SWAP1 POP PUSH0 PUSH1 0x1 DUP7 DUP4 PUSH2 0x2310 SWAP2 SWAP1 PUSH2 0x379C JUMP JUMPDEST PUSH2 0x231A SWAP2 SWAP1 PUSH2 0x3CC8 JUMP JUMPDEST SWAP1 POP PUSH1 0x1 PUSH1 0x2 SLOAD PUSH2 0x232B SWAP2 SWAP1 PUSH2 0x3CC8 JUMP JUMPDEST DUP2 GT ISZERO PUSH2 0x2344 JUMPI PUSH1 0x1 PUSH1 0x2 SLOAD PUSH2 0x2341 SWAP2 SWAP1 PUSH2 0x3CC8 JUMP JUMPDEST SWAP1 POP JUMPDEST PUSH0 PUSH1 0x1 DUP4 DUP4 PUSH2 0x2353 SWAP2 SWAP1 PUSH2 0x3CC8 JUMP JUMPDEST PUSH2 0x235D SWAP2 SWAP1 PUSH2 0x379C JUMP JUMPDEST SWAP1 POP DUP1 PUSH8 0xFFFFFFFFFFFFFFFF DUP2 GT ISZERO PUSH2 0x2379 JUMPI PUSH2 0x2378 PUSH2 0x27BA JUMP JUMPDEST JUMPDEST PUSH1 0x40 MLOAD SWAP1 DUP1 DUP3 MSTORE DUP1 PUSH1 0x20 MUL PUSH1 0x20 ADD DUP3 ADD PUSH1 0x40 MSTORE DUP1 ISZERO PUSH2 0x23B2 JUMPI DUP2 PUSH1 0x20 ADD JUMPDEST PUSH2 0x239F PUSH2 0x26BC JUMP JUMPDEST DUP2 MSTORE PUSH1 0x20 ADD SWAP1 PUSH1 0x1 SWAP1 SUB SWAP1 DUP2 PUSH2 0x2397 JUMPI SWAP1 POP JUMPDEST POP SWAP6 POP PUSH0 DUP1 DUP5 SWAP1 POP JUMPDEST DUP4 DUP2 GT PUSH2 0x266E JUMPI PUSH1 0x4 PUSH0 DUP3 DUP2 MSTORE PUSH1 0x20 ADD SWAP1 DUP2 MSTORE PUSH1 0x20 ADD PUSH0 KECCAK256 PUSH1 0x40 MLOAD DUP1 PUSH2 0x140 ADD PUSH1 0x40 MSTORE SWAP1 DUP2 PUSH0 DUP3 ADD SLOAD DUP2 MSTORE PUSH1 0x20 ADD PUSH1 0x1 DUP3 ADD PUSH0 SWAP1 SLOAD SWAP1 PUSH2 0x100 EXP SWAP1 DIV PUSH20 0xFFFFFFFFFFFFFFFFFFFFFFFFFFFFFFFFFFFFFFFF AND PUSH20 0xFFFFFFFFFFFFFFFFFFFFFFFFFFFFFFFFFFFFFFFF AND PUSH20 0xFFFFFFFFFFFFFFFFFFFFFFFFFFFFFFFFFFFFFFFF AND DUP2 MSTORE PUSH1 0x20 ADD PUSH1 0x2 DUP3 ADD DUP1 SLOAD PUSH2 0x244D SWAP1 PUSH2 0x3318 JUMP JUMPDEST DUP1 PUSH1 0x1F ADD PUSH1 0x20 DUP1 SWAP2 DIV MUL PUSH1 0x20 ADD PUSH1 0x40 MLOAD SWAP1 DUP2 ADD PUSH1 0x40 MSTORE DUP1 SWAP3 SWAP2 SWAP1 DUP2 DUP2 MSTORE PUSH1 0x20 ADD DUP3 DUP1 SLOAD PUSH2 0x2479 SWAP1 PUSH2 0x3318 JUMP JUMPDEST DUP1 ISZERO PUSH2 0x24C4 JUMPI DUP1 PUSH1 0x1F LT PUSH2 0x249B JUMPI PUSH2 0x100 DUP1 DUP4 SLOAD DIV MUL DUP4 MSTORE SWAP2 PUSH1 0x20 ADD SWAP2 PUSH2 0x24C4 JUMP JUMPDEST DUP3 ADD SWAP2 SWAP1 PUSH0 MSTORE PUSH1 0x20 PUSH0 KECCAK256 SWAP1 JUMPDEST DUP2 SLOAD DUP2 MSTORE SWAP1 PUSH1 0x1 ADD SWAP1 PUSH1 0x20 ADD DUP1 DUP4 GT PUSH2 0x24A7 JUMPI DUP3 SWAP1 SUB PUSH1 0x1F AND DUP3 ADD SWAP2 JUMPDEST POP POP POP POP POP DUP2 MSTORE PUSH1 0x20 ADD PUSH1 0x3 DUP3 ADD DUP1 SLOAD PUSH2 0x24DD SWAP1 PUSH2 0x3318 JUMP JUMPDEST DUP1 PUSH1 0x1F ADD PUSH1 0x20 DUP1 SWAP2 DIV MUL PUSH1 0x20 ADD PUSH1 0x40 MLOAD SWAP1 DUP2 ADD PUSH1 0x40 MSTORE DUP1 SWAP3 SWAP2 SWAP1 DUP2 DUP2 MSTORE PUSH1 0x20 ADD DUP3 DUP1 SLOAD PUSH2 0x2509 SWAP1 PUSH2 0x3318 JUMP JUMPDEST DUP1 ISZERO PUSH2 0x2554 JUMPI DUP1 PUSH1 0x1F LT PUSH2 0x252B JUMPI PUSH2 0x100 DUP1 DUP4 SLOAD DIV MUL DUP4 MSTORE SWAP2 PUSH1 0x20 ADD SWAP2 PUSH2 0x2554 JUMP JUMPDEST DUP3 ADD SWAP2 SWAP1 PUSH0 MSTORE PUSH1 0x20 PUSH0 KECCAK256 SWAP1 JUMPDEST DUP2 SLOAD DUP2 MSTORE SWAP1 PUSH1 0x1 ADD SWAP1 PUSH1 0x20 ADD DUP1 DUP4 GT PUSH2 0x2537 JUMPI DUP3 SWAP1 SUB PUSH1 0x1F AND DUP3 ADD SWAP2 JUMPDEST POP POP POP POP POP DUP2 MSTORE PUSH1 0x20 ADD PUSH1 0x4 DUP3 ADD DUP1 SLOAD PUSH2 0x256D SWAP1 PUSH2 0x3318 JUMP JUMPDEST DUP1 PUSH1 0x1F ADD PUSH1 0x20 DUP1 SWAP2 DIV MUL PUSH1 0x20 ADD PUSH1 0x40 MLOAD SWAP1 DUP2 ADD PUSH1 0x40 MSTORE DUP1 SWAP3 SWAP2 SWAP1 DUP2 DUP2 MSTORE PUSH1 0x20 ADD DUP3 DUP1 SLOAD PUSH2 0x2599 SWAP1 PUSH2 0x3318 JUMP JUMPDEST DUP1 ISZERO PUSH2 0x25E4 JUMPI DUP1 PUSH1 0x1F LT PUSH2 0x25BB JUMPI PUSH2 0x100 DUP1 DUP4 SLOAD DIV MUL DUP4 MSTORE SWAP2 PUSH1 0x20 ADD SWAP2 PUSH2 0x25E4 JUMP JUMPDEST DUP3 ADD SWAP2 SWAP1 PUSH0 MSTORE PUSH1 0x20 PUSH0 KECCAK256 SWAP1 JUMPDEST DUP2 SLOAD DUP2 MSTORE SWAP1 PUSH1 0x1 ADD SWAP1 PUSH1 0x20 ADD DUP1 DUP4 GT PUSH2 0x25C7 JUMPI DUP3 SWAP1 SUB PUSH1 0x1F AND DUP3 ADD SWAP2 JUMPDEST POP POP POP POP POP DUP2 MSTORE PUSH1 0x20 ADD PUSH1 0x5 DUP3 ADD SLOAD DUP2 MSTORE PUSH1 0x20 ADD PUSH1 0x6 DUP3 ADD SLOAD DUP2 MSTORE PUSH1 0x20 ADD PUSH1 0x7 DUP3 ADD SLOAD DUP2 MSTORE PUSH1 0x20 ADD PUSH1 0x8 DUP3 ADD PUSH0 SWAP1 SLOAD SWAP1 PUSH2 0x100 EXP SWAP1 DIV PUSH1 0xFF AND ISZERO ISZERO ISZERO ISZERO DUP2 MSTORE PUSH1 0x20 ADD PUSH1 0x9 DUP3 ADD SLOAD DUP2 MSTORE POP POP DUP9 DUP4 DUP2 MLOAD DUP2 LT PUSH2 0x2642 JUMPI PUSH2 0x2641 PUSH2 0x3951 JUMP JUMPDEST JUMPDEST PUSH1 0x20 MUL PUSH1 0x20 ADD ADD DUP2 SWAP1 MSTORE POP DUP2 DUP1 PUSH2 0x2658 SWAP1 PUSH2 0x33DD JUMP JUMPDEST SWAP3 POP POP DUP1 DUP1 PUSH2 0x2666 SWAP1 PUSH2 0x33DD JUMP JUMPDEST SWAP2 POP POP PUSH2 0x23BB JUMP JUMPDEST POP POP POP POP POP JUMPDEST SWAP3 POP SWAP3 POP SWAP3 JUMP JUMPDEST PUSH1 0x40 MLOAD DUP1 PUSH1 0xA0 ADD PUSH1 0x40 MSTORE DUP1 PUSH0 PUSH20 0xFFFFFFFFFFFFFFFFFFFFFFFFFFFFFFFFFFFFFFFF AND DUP2 MSTORE PUSH1 0x20 ADD PUSH1 0x60 DUP2 MSTORE PUSH1 0x20 ADD PUSH0 DUP2 MSTORE PUSH1 0x20 ADD PUSH0 DUP2 MSTORE PUSH1 0x20 ADD PUSH0 DUP2 MSTORE POP SWAP1 JUMP JUMPDEST PUSH1 0x40 MLOAD DUP1 PUSH2 0x140 ADD PUSH1 0x40 MSTORE DUP1 PUSH0 DUP2 MSTORE PUSH1 0x20 ADD PUSH0 PUSH20 0xFFFFFFFFFFFFFFFFFFFFFFFFFFFFFFFFFFFFFFFF AND DUP2 MSTORE PUSH1 0x20 ADD PUSH1 0x60 DUP2 MSTORE PUSH1 0x20 ADD PUSH1 0x60 DUP2 MSTORE PUSH1 0x20 ADD PUSH1 0x60 DUP2 MSTORE PUSH1 0x20 ADD PUSH0 DUP2 MSTORE PUSH1 0x20 ADD PUSH0 DUP2 MSTORE PUSH1 0x20 ADD PUSH0 DUP2 MSTORE PUSH1 0x20 ADD PUSH0 ISZERO ISZERO DUP2 MSTORE PUSH1 0x20 ADD PUSH0 DUP2 MSTORE POP SWAP1 JUMP JUMPDEST PUSH0 PUSH1 0x40 MLOAD SWAP1 POP SWAP1 JUMP JUMPDEST PUSH0 DUP1 REVERT JUMPDEST PUSH0 DUP1 REVERT JUMPDEST PUSH0 DUP2 SWAP1 POP SWAP2 SWAP1 POP JUMP JUMPDEST PUSH2 0x2743 DUP2 PUSH2 0x2731 JUMP JUMPDEST DUP2 EQ PUSH2 0x274D JUMPI PUSH0 DUP1 REVERT JUMPDEST POP JUMP JUMPDEST PUSH0 DUP2 CALLDATALOAD SWAP1 POP PUSH2 0x275E DUP2 PUSH2 0x273A JUMP JUMPDEST SWAP3 SWAP2 POP POP JUMP JUMPDEST PUSH0 DUP1 PUSH1 0x40 DUP4 DUP6 SUB SLT ISZERO PUSH2 0x277A JUMPI PUSH2 0x2779 PUSH2 0x2729 JUMP JUMPDEST JUMPDEST PUSH0 PUSH2 0x2787 DUP6 DUP3 DUP7 ADD PUSH2 0x2750 JUMP JUMPDEST SWAP3 POP POP PUSH1 0x20 PUSH2 0x2798 DUP6 DUP3 DUP7 ADD PUSH2 0x2750 JUMP JUMPDEST SWAP2 POP POP SWAP3 POP SWAP3 SWAP1 POP JUMP JUMPDEST PUSH0 DUP1 REVERT JUMPDEST PUSH0 DUP1 REVERT JUMPDEST PUSH0 PUSH1 0x1F NOT PUSH1 0x1F DUP4 ADD AND SWAP1 POP SWAP2 SWAP1 POP JUMP JUMPDEST PUSH32 0x4E487B7100000000000000000000000000000000000000000000000000000000 PUSH0 MSTORE PUSH1 0x41 PUSH1 0x4 MSTORE PUSH1 0x24 PUSH0 REVERT JUMPDEST PUSH2 0x27F0 DUP3 PUSH2 0x27AA JUMP JUMPDEST DUP2 ADD DUP2 DUP2 LT PUSH8 0xFFFFFFFFFFFFFFFF DUP3 GT OR ISZERO PUSH2 0x280F JUMPI PUSH2 0x280E PUSH2 0x27BA JUMP JUMPDEST JUMPDEST DUP1 PUSH1 0x40 MSTORE POP POP POP JUMP JUMPDEST PUSH0 PUSH2 0x2821 PUSH2 0x2720 JUMP JUMPDEST SWAP1 POP PUSH2 0x282D DUP3 DUP3 PUSH2 0x27E7 JUMP JUMPDEST SWAP2 SWAP1 POP JUMP JUMPDEST PUSH0 PUSH8 0xFFFFFFFFFFFFFFFF DUP3 GT ISZERO PUSH2 0x284C JUMPI PUSH2 0x284B PUSH2 0x27BA JUMP JUMPDEST JUMPDEST PUSH2 0x2855 DUP3 PUSH2 0x27AA JUMP JUMPDEST SWAP1 POP PUSH1 0x20 DUP2 ADD SWAP1 POP SWAP2 SWAP1 POP JUMP JUMPDEST DUP3 DUP2 DUP4 CALLDATACOPY PUSH0 DUP4 DUP4 ADD MSTORE POP POP POP JUMP JUMPDEST PUSH0 PUSH2 0x2882 PUSH2 0x287D DUP5 PUSH2 0x2832 JUMP JUMPDEST PUSH2 0x2818 JUMP JUMPDEST SWAP1 POP DUP3 DUP2 MSTORE PUSH1 0x20 DUP2 ADD DUP5 DUP5 DUP5 ADD GT ISZERO PUSH2 0x289E JUMPI PUSH2 0x289D PUSH2 0x27A6 JUMP JUMPDEST JUMPDEST PUSH2 0x28A9 DUP5 DUP3 DUP6 PUSH2 0x2862 JUMP JUMPDEST POP SWAP4 SWAP3 POP POP POP JUMP JUMPDEST PUSH0 DUP3 PUSH1 0x1F DUP4 ADD SLT PUSH2 0x28C5 JUMPI PUSH2 0x28C4 PUSH2 0x27A2 JUMP JUMPDEST JUMPDEST DUP2 CALLDATALOAD PUSH2 0x28D5 DUP5 DUP3 PUSH1 0x20 DUP7 ADD PUSH2 0x2870 JUMP JUMPDEST SWAP2 POP POP SWAP3 SWAP2 POP POP JUMP JUMPDEST PUSH0 DUP1 PUSH1 0x40 DUP4 DUP6 SUB SLT ISZERO PUSH2 0x28F4 JUMPI PUSH2 0x28F3 PUSH2 0x2729 JUMP JUMPDEST JUMPDEST PUSH0 PUSH2 0x2901 DUP6 DUP3 DUP7 ADD PUSH2 0x2750 JUMP JUMPDEST SWAP3 POP POP PUSH1 0x20 DUP4 ADD CALLDATALOAD PUSH8 0xFFFFFFFFFFFFFFFF DUP2 GT ISZERO PUSH2 0x2922 JUMPI PUSH2 0x2921 PUSH2 0x272D JUMP JUMPDEST JUMPDEST PUSH2 0x292E DUP6 DUP3 DUP7 ADD PUSH2 0x28B1 JUMP JUMPDEST SWAP2 POP POP SWAP3 POP SWAP3 SWAP1 POP JUMP JUMPDEST PUSH0 PUSH20 0xFFFFFFFFFFFFFFFFFFFFFFFFFFFFFFFFFFFFFFFF DUP3 AND SWAP1 POP SWAP2 SWAP1 POP JUMP JUMPDEST PUSH0 PUSH2 0x2961 DUP3 PUSH2 0x2938 JUMP JUMPDEST SWAP1 POP SWAP2 SWAP1 POP JUMP JUMPDEST PUSH2 0x2971 DUP2 PUSH2 0x2957 JUMP JUMPDEST DUP3 MSTORE POP POP JUMP JUMPDEST PUSH0 DUP2 MLOAD SWAP1 POP SWAP2 SWAP1 POP JUMP JUMPDEST PUSH0 DUP3 DUP3 MSTORE PUSH1 0x20 DUP3 ADD SWAP1 POP SWAP3 SWAP2 POP POP JUMP JUMPDEST DUP3 DUP2 DUP4 MCOPY PUSH0 DUP4 DUP4 ADD MSTORE POP POP POP JUMP JUMPDEST PUSH0 PUSH2 0x29A9 DUP3 PUSH2 0x2977 JUMP JUMPDEST PUSH2 0x29B3 DUP2 DUP6 PUSH2 0x2981 JUMP JUMPDEST SWAP4 POP PUSH2 0x29C3 DUP2 DUP6 PUSH1 0x20 DUP7 ADD PUSH2 0x2991 JUMP JUMPDEST PUSH2 0x29CC DUP2 PUSH2 0x27AA JUMP JUMPDEST DUP5 ADD SWAP2 POP POP SWAP3 SWAP2 POP POP JUMP JUMPDEST PUSH2 0x29E0 DUP2 PUSH2 0x2731 JUMP JUMPDEST DUP3 MSTORE POP POP JUMP JUMPDEST PUSH0 PUSH1 0xA0 DUP3 ADD SWAP1 POP PUSH2 0x29F9 PUSH0 DUP4 ADD DUP9 PUSH2 0x2968 JUMP JUMPDEST DUP2 DUP2 SUB PUSH1 0x20 DUP4 ADD MSTORE PUSH2 0x2A0B DUP2 DUP8 PUSH2 0x299F JUMP JUMPDEST SWAP1 POP PUSH2 0x2A1A PUSH1 0x40 DUP4 ADD DUP7 PUSH2 0x29D7 JUMP JUMPDEST PUSH2 0x2A27 PUSH1 0x60 DUP4 ADD DUP6 PUSH2 0x29D7 JUMP JUMPDEST PUSH2 0x2A34 PUSH1 0x80 DUP4 ADD DUP5 PUSH2 0x29D7 JUMP JUMPDEST SWAP7 SWAP6 POP POP POP POP POP POP JUMP JUMPDEST PUSH2 0x2A47 DUP2 PUSH2 0x2957 JUMP JUMPDEST DUP2 EQ PUSH2 0x2A51 JUMPI PUSH0 DUP1 REVERT JUMPDEST POP JUMP JUMPDEST PUSH0 DUP2 CALLDATALOAD SWAP1 POP PUSH2 0x2A62 DUP2 PUSH2 0x2A3E JUMP JUMPDEST SWAP3 SWAP2 POP POP JUMP JUMPDEST PUSH0 PUSH1 0x20 DUP3 DUP5 SUB SLT ISZERO PUSH2 0x2A7D JUMPI PUSH2 0x2A7C PUSH2 0x2729 JUMP JUMPDEST JUMPDEST PUSH0 PUSH2 0x2A8A DUP5 DUP3 DUP6 ADD PUSH2 0x2A54 JUMP JUMPDEST SWAP2 POP POP SWAP3 SWAP2 POP POP JUMP JUMPDEST PUSH0 PUSH1 0x20 DUP3 ADD SWAP1 POP PUSH2 0x2AA6 PUSH0 DUP4 ADD DUP5 PUSH2 0x29D7 JUMP JUMPDEST SWAP3 SWAP2 POP POP JUMP JUMPDEST PUSH0 PUSH1 0x20 DUP3 DUP5 SUB SLT ISZERO PUSH2 0x2AC1 JUMPI PUSH2 0x2AC0 PUSH2 0x2729 JUMP JUMPDEST JUMPDEST PUSH0 PUSH2 0x2ACE DUP5 DUP3 DUP6 ADD PUSH2 0x2750 JUMP JUMPDEST SWAP2 POP POP SWAP3 SWAP2 POP POP JUMP JUMPDEST PUSH0 DUP2 ISZERO ISZERO SWAP1 POP SWAP2 SWAP1 POP JUMP JUMPDEST PUSH2 0x2AEB DUP2 PUSH2 0x2AD7 JUMP JUMPDEST DUP3 MSTORE POP POP JUMP JUMPDEST PUSH0 PUSH2 0x140 DUP3 ADD SWAP1 POP PUSH2 0x2B05 PUSH0 DUP4 ADD DUP14 PUSH2 0x29D7 JUMP JUMPDEST PUSH2 0x2B12 PUSH1 0x20 DUP4 ADD DUP13 PUSH2 0x2968 JUMP JUMPDEST DUP2 DUP2 SUB PUSH1 0x40 DUP4 ADD MSTORE PUSH2 0x2B24 DUP2 DUP12 PUSH2 0x299F JUMP JUMPDEST SWAP1 POP DUP2 DUP2 SUB PUSH1 0x60 DUP4 ADD MSTORE PUSH2 0x2B38 DUP2 DUP11 PUSH2 0x299F JUMP JUMPDEST SWAP1 POP DUP2 DUP2 SUB PUSH1 0x80 DUP4 ADD MSTORE PUSH2 0x2B4C DUP2 DUP10 PUSH2 0x299F JUMP JUMPDEST SWAP1 POP PUSH2 0x2B5B PUSH1 0xA0 DUP4 ADD DUP9 PUSH2 0x29D7 JUMP JUMPDEST PUSH2 0x2B68 PUSH1 0xC0 DUP4 ADD DUP8 PUSH2 0x29D7 JUMP JUMPDEST PUSH2 0x2B75 PUSH1 0xE0 DUP4 ADD DUP7 PUSH2 0x29D7 JUMP JUMPDEST PUSH2 0x2B83 PUSH2 0x100 DUP4 ADD DUP6 PUSH2 0x2AE2 JUMP JUMPDEST PUSH2 0x2B91 PUSH2 0x120 DUP4 ADD DUP5 PUSH2 0x29D7 JUMP JUMPDEST SWAP12 SWAP11 POP POP POP POP POP POP POP POP POP POP POP JUMP JUMPDEST PUSH2 0x2BA9 DUP2 PUSH2 0x2957 JUMP JUMPDEST DUP3 MSTORE POP POP JUMP JUMPDEST PUSH0 DUP3 DUP3 MSTORE PUSH1 0x20 DUP3 ADD SWAP1 POP SWAP3 SWAP2 POP POP JUMP JUMPDEST PUSH0 PUSH2 0x2BC9 DUP3 PUSH2 0x2977 JUMP JUMPDEST PUSH2 0x2BD3 DUP2 DUP6 PUSH2 0x2BAF JUMP JUMPDEST SWAP4 POP PUSH2 0x2BE3 DUP2 DUP6 PUSH1 0x20 DUP7 ADD PUSH2 0x2991 JUMP JUMPDEST PUSH2 0x2BEC DUP2 PUSH2 0x27AA JUMP JUMPDEST DUP5 ADD SWAP2 POP POP SWAP3 SWAP2 POP POP JUMP JUMPDEST PUSH2 0x2C00 DUP2 PUSH2 0x2731 JUMP JUMPDEST DUP3 MSTORE POP POP JUMP JUMPDEST PUSH0 PUSH1 0xA0 DUP4 ADD PUSH0 DUP4 ADD MLOAD PUSH2 0x2C1B PUSH0 DUP7 ADD DUP3 PUSH2 0x2BA0 JUMP JUMPDEST POP PUSH1 0x20 DUP4 ADD MLOAD DUP5 DUP3 SUB PUSH1 0x20 DUP7 ADD MSTORE PUSH2 0x2C33 DUP3 DUP3 PUSH2 0x2BBF JUMP JUMPDEST SWAP2 POP POP PUSH1 0x40 DUP4 ADD MLOAD PUSH2 0x2C48 PUSH1 0x40 DUP7 ADD DUP3 PUSH2 0x2BF7 JUMP JUMPDEST POP PUSH1 0x60 DUP4 ADD MLOAD PUSH2 0x2C5B PUSH1 0x60 DUP7 ADD DUP3 PUSH2 0x2BF7 JUMP JUMPDEST POP PUSH1 0x80 DUP4 ADD MLOAD PUSH2 0x2C6E PUSH1 0x80 DUP7 ADD DUP3 PUSH2 0x2BF7 JUMP JUMPDEST POP DUP1 SWAP2 POP POP SWAP3 SWAP2 POP POP JUMP JUMPDEST PUSH0 PUSH1 0x20 DUP3 ADD SWAP1 POP DUP2 DUP2 SUB PUSH0 DUP4 ADD MSTORE PUSH2 0x2C91 DUP2 DUP5 PUSH2 0x2C06 JUMP JUMPDEST SWAP1 POP SWAP3 SWAP2 POP POP JUMP JUMPDEST PUSH0 PUSH1 0x20 DUP3 DUP5 SUB SLT ISZERO PUSH2 0x2CAE JUMPI PUSH2 0x2CAD PUSH2 0x2729 JUMP JUMPDEST JUMPDEST PUSH0 DUP3 ADD CALLDATALOAD PUSH8 0xFFFFFFFFFFFFFFFF DUP2 GT ISZERO PUSH2 0x2CCB JUMPI PUSH2 0x2CCA PUSH2 0x272D JUMP JUMPDEST JUMPDEST PUSH2 0x2CD7 DUP5 DUP3 DUP6 ADD PUSH2 0x28B1 JUMP JUMPDEST SWAP2 POP POP SWAP3 SWAP2 POP POP JUMP JUMPDEST PUSH0 DUP2 MLOAD SWAP1 POP SWAP2 SWAP1 POP JUMP JUMPDEST PUSH0 DUP3 DUP3 MSTORE PUSH1 0x20 DUP3 ADD SWAP1 POP SWAP3 SWAP2 POP POP JUMP JUMPDEST PUSH0 DUP2 SWAP1 POP PUSH1 0x20 DUP3 ADD SWAP1 POP SWAP2 SWAP1 POP JUMP JUMPDEST PUSH0 PUSH2 0x2D14 DUP4 DUP4 PUSH2 0x2BF7 JUMP JUMPDEST PUSH1 0x20 DUP4 ADD SWAP1 POP SWAP3 SWAP2 POP POP JUMP JUMPDEST PUSH0 PUSH1 0x20 DUP3 ADD SWAP1 POP SWAP2 SWAP1 POP JUMP JUMPDEST PUSH0 PUSH2 0x2D36 DUP3 PUSH2 0x2CE0 JUMP JUMPDEST PUSH2 0x2D40 DUP2 DUP6 PUSH2 0x2CEA JUMP JUMPDEST SWAP4 POP PUSH2 0x2D4B DUP4 PUSH2 0x2CFA JUMP JUMPDEST DUP1 PUSH0 JUMPDEST DUP4 DUP2 LT ISZERO PUSH2 0x2D7B JUMPI DUP2 MLOAD PUSH2 0x2D62 DUP9 DUP3 PUSH2 0x2D09 JUMP JUMPDEST SWAP8 POP PUSH2 0x2D6D DUP4 PUSH2 0x2D20 JUMP JUMPDEST SWAP3 POP POP PUSH1 0x1 DUP2 ADD SWAP1 POP PUSH2 0x2D4E JUMP JUMPDEST POP DUP6 SWAP4 POP POP POP POP SWAP3 SWAP2 POP POP JUMP JUMPDEST PUSH0 PUSH1 0x20 DUP3 ADD SWAP1 POP DUP2 DUP2 SUB PUSH0 DUP4 ADD MSTORE PUSH2 0x2DA0 DUP2 DUP5 PUSH2 0x2D2C JUMP JUMPDEST SWAP1 POP SWAP3 SWAP2 POP POP JUMP JUMPDEST PUSH1 0x3 DUP2 LT PUSH2 0x2DB4 JUMPI PUSH0 DUP1 REVERT JUMPDEST POP JUMP JUMPDEST PUSH0 DUP2 CALLDATALOAD SWAP1 POP PUSH2 0x2DC5 DUP2 PUSH2 0x2DA8 JUMP JUMPDEST SWAP3 SWAP2 POP POP JUMP JUMPDEST PUSH0 DUP1 PUSH0 DUP1 PUSH1 0x80 DUP6 DUP8 SUB SLT ISZERO PUSH2 0x2DE3 JUMPI PUSH2 0x2DE2 PUSH2 0x2729 JUMP JUMPDEST JUMPDEST PUSH0 DUP6 ADD CALLDATALOAD PUSH8 0xFFFFFFFFFFFFFFFF DUP2 GT ISZERO PUSH2 0x2E00 JUMPI PUSH2 0x2DFF PUSH2 0x272D JUMP JUMPDEST JUMPDEST PUSH2 0x2E0C DUP8 DUP3 DUP9 ADD PUSH2 0x28B1 JUMP JUMPDEST SWAP5 POP POP PUSH1 0x20 DUP6 ADD CALLDATALOAD PUSH8 0xFFFFFFFFFFFFFFFF DUP2 GT ISZERO PUSH2 0x2E2D JUMPI PUSH2 0x2E2C PUSH2 0x272D JUMP JUMPDEST JUMPDEST PUSH2 0x2E39 DUP8 DUP3 DUP9 ADD PUSH2 0x28B1 JUMP JUMPDEST SWAP4 POP POP PUSH1 0x40 DUP6 ADD CALLDATALOAD PUSH8 0xFFFFFFFFFFFFFFFF DUP2 GT ISZERO PUSH2 0x2E5A JUMPI PUSH2 0x2E59 PUSH2 0x272D JUMP JUMPDEST JUMPDEST PUSH2 0x2E66 DUP8 DUP3 DUP9 ADD PUSH2 0x28B1 JUMP JUMPDEST SWAP3 POP POP PUSH1 0x60 PUSH2 0x2E77 DUP8 DUP3 DUP9 ADD PUSH2 0x2DB7 JUMP JUMPDEST SWAP2 POP POP SWAP3 SWAP6 SWAP2 SWAP5 POP SWAP3 POP JUMP JUMPDEST PUSH0 PUSH1 0x20 DUP3 ADD SWAP1 POP PUSH2 0x2E96 PUSH0 DUP4 ADD DUP5 PUSH2 0x2968 JUMP JUMPDEST SWAP3 SWAP2 POP POP JUMP JUMPDEST PUSH2 0x2EA5 DUP2 PUSH2 0x2AD7 JUMP JUMPDEST DUP3 MSTORE POP POP JUMP JUMPDEST PUSH0 PUSH2 0x140 DUP4 ADD PUSH0 DUP4 ADD MLOAD PUSH2 0x2EC1 PUSH0 DUP7 ADD DUP3 PUSH2 0x2BF7 JUMP JUMPDEST POP PUSH1 0x20 DUP4 ADD MLOAD PUSH2 0x2ED4 PUSH1 0x20 DUP7 ADD DUP3 PUSH2 0x2BA0 JUMP JUMPDEST POP PUSH1 0x40 DUP4 ADD MLOAD DUP5 DUP3 SUB PUSH1 0x40 DUP7 ADD MSTORE PUSH2 0x2EEC DUP3 DUP3 PUSH2 0x2BBF JUMP JUMPDEST SWAP2 POP POP PUSH1 0x60 DUP4 ADD MLOAD DUP5 DUP3 SUB PUSH1 0x60 DUP7 ADD MSTORE PUSH2 0x2F06 DUP3 DUP3 PUSH2 0x2BBF JUMP JUMPDEST SWAP2 POP POP PUSH1 0x80 DUP4 ADD MLOAD DUP5 DUP3 SUB PUSH1 0x80 DUP7 ADD MSTORE PUSH2 0x2F20 DUP3 DUP3 PUSH2 0x2BBF JUMP JUMPDEST SWAP2 POP POP PUSH1 0xA0 DUP4 ADD MLOAD PUSH2 0x2F35 PUSH1 0xA0 DUP7 ADD DUP3 PUSH2 0x2BF7 JUMP JUMPDEST POP PUSH1 0xC0 DUP4 ADD MLOAD PUSH2 0x2F48 PUSH1 0xC0 DUP7 ADD DUP3 PUSH2 0x2BF7 JUMP JUMPDEST POP PUSH1 0xE0 DUP4 ADD MLOAD PUSH2 0x2F5B PUSH1 0xE0 DUP7 ADD DUP3 PUSH2 0x2BF7 JUMP JUMPDEST POP PUSH2 0x100 DUP4 ADD MLOAD PUSH2 0x2F70 PUSH2 0x100 DUP7 ADD DUP3 PUSH2 0x2E9C JUMP JUMPDEST POP PUSH2 0x120 DUP4 ADD MLOAD PUSH2 0x2F85 PUSH2 0x120 DUP7 ADD DUP3 PUSH2 0x2BF7 JUMP JUMPDEST POP DUP1 SWAP2 POP POP SWAP3 SWAP2 POP POP JUMP JUMPDEST PUSH0 PUSH1 0x20 DUP3 ADD SWAP1 POP DUP2 DUP2 SUB PUSH0 DUP4 ADD MSTORE PUSH2 0x2FA8 DUP2 DUP5 PUSH2 0x2EAB JUMP JUMPDEST SWAP1 POP SWAP3 SWAP2 POP POP JUMP JUMPDEST PUSH0 DUP2 MLOAD SWAP1 POP SWAP2 SWAP1 POP JUMP JUMPDEST PUSH0 DUP3 DUP3 MSTORE PUSH1 0x20 DUP3 ADD SWAP1 POP SWAP3 SWAP2 POP POP JUMP JUMPDEST PUSH0 DUP2 SWAP1 POP PUSH1 0x20 DUP3 ADD SWAP1 POP SWAP2 SWAP1 POP JUMP JUMPDEST PUSH0 PUSH2 0x140 DUP4 ADD PUSH0 DUP4 ADD MLOAD PUSH2 0x2FEF PUSH0 DUP7 ADD DUP3 PUSH2 0x2BF7 JUMP JUMPDEST POP PUSH1 0x20 DUP4 ADD MLOAD PUSH2 0x3002 PUSH1 0x20 DUP7 ADD DUP3 PUSH2 0x2BA0 JUMP JUMPDEST POP PUSH1 0x40 DUP4 ADD MLOAD DUP5 DUP3 SUB PUSH1 0x40 DUP7 ADD MSTORE PUSH2 0x301A DUP3 DUP3 PUSH2 0x2BBF JUMP JUMPDEST SWAP2 POP POP PUSH1 0x60 DUP4 ADD MLOAD DUP5 DUP3 SUB PUSH1 0x60 DUP7 ADD MSTORE PUSH2 0x3034 DUP3 DUP3 PUSH2 0x2BBF JUMP JUMPDEST SWAP2 POP POP PUSH1 0x80 DUP4 ADD MLOAD DUP5 DUP3 SUB PUSH1 0x80 DUP7 ADD MSTORE PUSH2 0x304E DUP3 DUP3 PUSH2 0x2BBF JUMP JUMPDEST SWAP2 POP POP PUSH1 0xA0 DUP4 ADD MLOAD PUSH2 0x3063 PUSH1 0xA0 DUP7 ADD DUP3 PUSH2 0x2BF7 JUMP JUMPDEST POP PUSH1 0xC0 DUP4 ADD MLOAD PUSH2 0x3076 PUSH1 0xC0 DUP7 ADD DUP3 PUSH2 0x2BF7 JUMP JUMPDEST POP PUSH1 0xE0 DUP4 ADD MLOAD PUSH2 0x3089 PUSH1 0xE0 DUP7 ADD DUP3 PUSH2 0x2BF7 JUMP JUMPDEST POP PUSH2 0x100 DUP4 ADD MLOAD PUSH2 0x309E PUSH2 0x100 DUP7 ADD DUP3 PUSH2 0x2E9C JUMP JUMPDEST POP PUSH2 0x120 DUP4 ADD MLOAD PUSH2 0x30B3 PUSH2 0x120 DUP7 ADD DUP3 PUSH2 0x2BF7 JUMP JUMPDEST POP DUP1 SWAP2 POP POP SWAP3 SWAP2 POP POP JUMP JUMPDEST PUSH0 PUSH2 0x30C9 DUP4 DUP4 PUSH2 0x2FD9 JUMP JUMPDEST SWAP1 POP SWAP3 SWAP2 POP POP JUMP JUMPDEST PUSH0 PUSH1 0x20 DUP3 ADD SWAP1 POP SWAP2 SWAP1 POP JUMP JUMPDEST PUSH0 PUSH2 0x30E7 DUP3 PUSH2 0x2FB0 JUMP JUMPDEST PUSH2 0x30F1 DUP2 DUP6 PUSH2 0x2FBA JUMP JUMPDEST SWAP4 POP DUP4 PUSH1 0x20 DUP3 MUL DUP6 ADD PUSH2 0x3103 DUP6 PUSH2 0x2FCA JUMP JUMPDEST DUP1 PUSH0 JUMPDEST DUP6 DUP2 LT ISZERO PUSH2 0x313E JUMPI DUP5 DUP5 SUB DUP10 MSTORE DUP2 MLOAD PUSH2 0x311F DUP6 DUP3 PUSH2 0x30BE JUMP JUMPDEST SWAP5 POP PUSH2 0x312A DUP4 PUSH2 0x30D1 JUMP JUMPDEST SWAP3 POP PUSH1 0x20 DUP11 ADD SWAP10 POP POP PUSH1 0x1 DUP2 ADD SWAP1 POP PUSH2 0x3106 JUMP JUMPDEST POP DUP3 SWAP8 POP DUP8 SWAP6 POP POP POP POP POP POP SWAP3 SWAP2 POP POP JUMP JUMPDEST PUSH0 PUSH1 0x60 DUP3 ADD SWAP1 POP DUP2 DUP2 SUB PUSH0 DUP4 ADD MSTORE PUSH2 0x3168 DUP2 DUP7 PUSH2 0x30DD JUMP JUMPDEST SWAP1 POP PUSH2 0x3177 PUSH1 0x20 DUP4 ADD DUP6 PUSH2 0x29D7 JUMP JUMPDEST PUSH2 0x3184 PUSH1 0x40 DUP4 ADD DUP5 PUSH2 0x29D7 JUMP JUMPDEST SWAP5 SWAP4 POP POP POP POP JUMP JUMPDEST PUSH32 0x5175657374696F6E20646F6573206E6F74206578697374000000000000000000 PUSH0 DUP3 ADD MSTORE POP JUMP JUMPDEST PUSH0 PUSH2 0x31C0 PUSH1 0x17 DUP4 PUSH2 0x2981 JUMP JUMPDEST SWAP2 POP PUSH2 0x31CB DUP3 PUSH2 0x318C JUMP JUMPDEST PUSH1 0x20 DUP3 ADD SWAP1 POP SWAP2 SWAP1 POP JUMP JUMPDEST PUSH0 PUSH1 0x20 DUP3 ADD SWAP1 POP DUP2 DUP2 SUB PUSH0 DUP4 ADD MSTORE PUSH2 0x31ED DUP2 PUSH2 0x31B4 JUMP JUMPDEST SWAP1 POP SWAP2 SWAP1 POP JUMP JUMPDEST PUSH32 0x5175657374696F6E20697320616C726561647920636C6F736564000000000000 PUSH0 DUP3 ADD MSTORE POP JUMP JUMPDEST PUSH0 PUSH2 0x3228 PUSH1 0x1A DUP4 PUSH2 0x2981 JUMP JUMPDEST SWAP2 POP PUSH2 0x3233 DUP3 PUSH2 0x31F4 JUMP JUMPDEST PUSH1 0x20 DUP3 ADD SWAP1 POP SWAP2 SWAP1 POP JUMP JUMPDEST PUSH0 PUSH1 0x20 DUP3 ADD SWAP1 POP DUP2 DUP2 SUB PUSH0 DUP4 ADD MSTORE PUSH2 0x3255 DUP2 PUSH2 0x321C JUMP JUMPDEST SWAP1 POP SWAP2 SWAP1 POP JUMP JUMPDEST PUSH32 0x4F6E6C792061736B65722063616E20636C6F7365207175657374696F6E000000 PUSH0 DUP3 ADD MSTORE POP JUMP JUMPDEST PUSH0 PUSH2 0x3290 PUSH1 0x1D DUP4 PUSH2 0x2981 JUMP JUMPDEST SWAP2 POP PUSH2 0x329B DUP3 PUSH2 0x325C JUMP JUMPDEST PUSH1 0x20 DUP3 ADD SWAP1 POP SWAP2 SWAP1 POP JUMP JUMPDEST PUSH0 PUSH1 0x20 DUP3 ADD SWAP1 POP DUP2 DUP2 SUB PUSH0 DUP4 ADD MSTORE PUSH2 0x32BD DUP2 PUSH2 0x3284 JUMP JUMPDEST SWAP1 POP SWAP2 SWAP1 POP JUMP JUMPDEST PUSH0 PUSH1 0x40 DUP3 ADD SWAP1 POP PUSH2 0x32D7 PUSH0 DUP4 ADD DUP6 PUSH2 0x29D7 JUMP JUMPDEST PUSH2 0x32E4 PUSH1 0x20 DUP4 ADD DUP5 PUSH2 0x29D7 JUMP JUMPDEST SWAP4 SWAP3 POP POP POP JUMP JUMPDEST PUSH32 0x4E487B7100000000000000000000000000000000000000000000000000000000 PUSH0 MSTORE PUSH1 0x22 PUSH1 0x4 MSTORE PUSH1 0x24 PUSH0 REVERT JUMPDEST PUSH0 PUSH1 0x2 DUP3 DIV SWAP1 POP PUSH1 0x1 DUP3 AND DUP1 PUSH2 0x332F JUMPI PUSH1 0x7F DUP3 AND SWAP2 POP JUMPDEST PUSH1 0x20 DUP3 LT DUP2 SUB PUSH2 0x3342 JUMPI PUSH2 0x3341 PUSH2 0x32EB JUMP JUMPDEST JUMPDEST POP SWAP2 SWAP1 POP JUMP JUMPDEST PUSH32 0x5175657374696F6E20646561646C696E65206861732070617373656400000000 PUSH0 DUP3 ADD MSTORE POP JUMP JUMPDEST PUSH0 PUSH2 0x337C PUSH1 0x1C DUP4 PUSH2 0x2981 JUMP JUMPDEST SWAP2 POP PUSH2 0x3387 DUP3 PUSH2 0x3348 JUMP JUMPDEST PUSH1 0x20 DUP3 ADD SWAP1 POP SWAP2 SWAP1 POP JUMP JUMPDEST PUSH0 PUSH1 0x20 DUP3 ADD SWAP1 POP DUP2 DUP2 SUB PUSH0 DUP4 ADD MSTORE PUSH2 0x33A9 DUP2 PUSH2 0x3370 JUMP JUMPDEST SWAP1 POP SWAP2 SWAP1 POP JUMP JUMPDEST PUSH32 0x4E487B7100000000000000000000000000000000000000000000000000000000 PUSH0 MSTORE PUSH1 0x11 PUSH1 0x4 MSTORE PUSH1 0x24 PUSH0 REVERT JUMPDEST PUSH0 PUSH2 0x33E7 DUP3 PUSH2 0x2731 JUMP JUMPDEST SWAP2 POP PUSH32 0xFFFFFFFFFFFFFFFFFFFFFFFFFFFFFFFFFFFFFFFFFFFFFFFFFFFFFFFFFFFFFFFF DUP3 SUB PUSH2 0x3419 JUMPI PUSH2 0x3418 PUSH2 0x33B0 JUMP JUMPDEST JUMPDEST PUSH1 0x1 DUP3 ADD SWAP1 POP SWAP2 SWAP1 POP JUMP JUMPDEST PUSH0 DUP2 SWAP1 POP DUP2 PUSH0 MSTORE PUSH1 0x20 PUSH0 KECCAK256 SWAP1 POP SWAP2 SWAP1 POP JUMP JUMPDEST PUSH0 PUSH1 0x20 PUSH1 0x1F DUP4 ADD DIV SWAP1 POP SWAP2 SWAP1 POP JUMP JUMPDEST PUSH0 DUP3 DUP3 SHL SWAP1 POP SWAP3 SWAP2 POP POP JUMP JUMPDEST PUSH0 PUSH1 0x8 DUP4 MUL PUSH2 0x3480 PUSH32 0xFFFFFFFFFFFFFFFFFFFFFFFFFFFFFFFFFFFFFFFFFFFFFFFFFFFFFFFFFFFFFFFF DUP3 PUSH2 0x3445 JUMP JUMPDEST PUSH2 0x348A DUP7 DUP4 PUSH2 0x3445 JUMP JUMPDEST SWAP6 POP DUP1 NOT DUP5 AND SWAP4 POP DUP1 DUP7 AND DUP5 OR SWAP3 POP POP POP SWAP4 SWAP3 POP POP POP JUMP JUMPDEST PUSH0 DUP2 SWAP1 POP SWAP2 SWAP1 POP JUMP JUMPDEST PUSH0 PUSH2 0x34C5 PUSH2 0x34C0 PUSH2 0x34BB DUP5 PUSH2 0x2731 JUMP JUMPDEST PUSH2 0x34A2 JUMP JUMPDEST PUSH2 0x2731 JUMP JUMPDEST SWAP1 POP SWAP2 SWAP1 POP JUMP JUMPDEST PUSH0 DUP2 SWAP1 POP SWAP2 SWAP1 POP JUMP JUMPDEST PUSH2 0x34DE DUP4 PUSH2 0x34AB JUMP JUMPDEST PUSH2 0x34F2 PUSH2 0x34EA DUP3 PUSH2 0x34CC JUMP JUMPDEST DUP5 DUP5 SLOAD PUSH2 0x3451 JUMP JUMPDEST DUP3 SSTORE POP POP POP POP JUMP JUMPDEST PUSH0 SWAP1 JUMP JUMPDEST PUSH2 0x3506 PUSH2 0x34FA JUMP JUMPDEST PUSH2 0x3511 DUP2 DUP5 DUP5 PUSH2 0x34D5 JUMP JUMPDEST POP POP POP JUMP JUMPDEST JUMPDEST DUP2 DUP2 LT ISZERO PUSH2 0x3534 JUMPI PUSH2 0x3529 PUSH0 DUP3 PUSH2 0x34FE JUMP JUMPDEST PUSH1 0x1 DUP2 ADD SWAP1 POP PUSH2 0x3517 JUMP JUMPDEST POP POP JUMP JUMPDEST PUSH1 0x1F DUP3 GT ISZERO PUSH2 0x3579 JUMPI PUSH2 0x354A DUP2 PUSH2 0x3424 JUMP JUMPDEST PUSH2 0x3553 DUP5 PUSH2 0x3436 JUMP JUMPDEST DUP2 ADD PUSH1 0x20 DUP6 LT ISZERO PUSH2 0x3562 JUMPI DUP2 SWAP1 POP JUMPDEST PUSH2 0x3576 PUSH2 0x356E DUP6 PUSH2 0x3436 JUMP JUMPDEST DUP4 ADD DUP3 PUSH2 0x3516 JUMP JUMPDEST POP POP JUMPDEST POP POP POP JUMP JUMPDEST PUSH0 DUP3 DUP3 SHR SWAP1 POP SWAP3 SWAP2 POP POP JUMP JUMPDEST PUSH0 PUSH2 0x3599 PUSH0 NOT DUP5 PUSH1 0x8 MUL PUSH2 0x357E JUMP JUMPDEST NOT DUP1 DUP4 AND SWAP2 POP POP SWAP3 SWAP2 POP POP JUMP JUMPDEST PUSH0 PUSH2 0x35B1 DUP4 DUP4 PUSH2 0x358A JUMP JUMPDEST SWAP2 POP DUP3 PUSH1 0x2 MUL DUP3 OR SWAP1 POP SWAP3 SWAP2 POP POP JUMP JUMPDEST PUSH2 0x35CA DUP3 PUSH2 0x2977 JUMP JUMPDEST PUSH8 0xFFFFFFFFFFFFFFFF DUP2 GT ISZERO PUSH2 0x35E3 JUMPI PUSH2 0x35E2 PUSH2 0x27BA JUMP JUMPDEST JUMPDEST PUSH2 0x35ED DUP3 SLOAD PUSH2 0x3318 JUMP JUMPDEST PUSH2 0x35F8 DUP3 DUP3 DUP6 PUSH2 0x3538 JUMP JUMPDEST PUSH0 PUSH1 0x20 SWAP1 POP PUSH1 0x1F DUP4 GT PUSH1 0x1 DUP2 EQ PUSH2 0x3629 JUMPI PUSH0 DUP5 ISZERO PUSH2 0x3617 JUMPI DUP3 DUP8 ADD MLOAD SWAP1 POP JUMPDEST PUSH2 0x3621 DUP6 DUP3 PUSH2 0x35A6 JUMP JUMPDEST DUP7 SSTORE POP PUSH2 0x3688 JUMP JUMPDEST PUSH1 0x1F NOT DUP5 AND PUSH2 0x3637 DUP7 PUSH2 0x3424 JUMP JUMPDEST PUSH0 JUMPDEST DUP3 DUP2 LT ISZERO PUSH2 0x365E JUMPI DUP5 DUP10 ADD MLOAD DUP3 SSTORE PUSH1 0x1 DUP3 ADD SWAP2 POP PUSH1 0x20 DUP6 ADD SWAP5 POP PUSH1 0x20 DUP2 ADD SWAP1 POP PUSH2 0x3639 JUMP JUMPDEST DUP7 DUP4 LT ISZERO PUSH2 0x367B JUMPI DUP5 DUP10 ADD MLOAD PUSH2 0x3677 PUSH1 0x1F DUP10 AND DUP3 PUSH2 0x358A JUMP JUMPDEST DUP4 SSTORE POP JUMPDEST PUSH1 0x1 PUSH1 0x2 DUP9 MUL ADD DUP9 SSTORE POP POP POP JUMPDEST POP POP POP POP POP POP JUMP JUMPDEST PUSH0 PUSH1 0x60 DUP3 ADD SWAP1 POP PUSH2 0x36A3 PUSH0 DUP4 ADD DUP7 PUSH2 0x29D7 JUMP JUMPDEST PUSH2 0x36B0 PUSH1 0x20 DUP4 ADD DUP6 PUSH2 0x29D7 JUMP JUMPDEST DUP2 DUP2 SUB PUSH1 0x40 DUP4 ADD MSTORE PUSH2 0x36C2 DUP2 DUP5 PUSH2 0x299F JUMP JUMPDEST SWAP1 POP SWAP5 SWAP4 POP POP POP POP JUMP JUMPDEST PUSH32 0x566F74696E6720706572696F642068617320656E646564000000000000000000 PUSH0 DUP3 ADD MSTORE POP JUMP JUMPDEST PUSH0 PUSH2 0x3700 PUSH1 0x17 DUP4 PUSH2 0x2981 JUMP JUMPDEST SWAP2 POP PUSH2 0x370B DUP3 PUSH2 0x36CC JUMP JUMPDEST PUSH1 0x20 DUP3 ADD SWAP1 POP SWAP2 SWAP1 POP JUMP JUMPDEST PUSH0 PUSH1 0x20 DUP3 ADD SWAP1 POP DUP2 DUP2 SUB PUSH0 DUP4 ADD MSTORE PUSH2 0x372D DUP2 PUSH2 0x36F4 JUMP JUMPDEST SWAP1 POP SWAP2 SWAP1 POP JUMP JUMPDEST PUSH32 0x496E636F727265637420766F7465206665650000000000000000000000000000 PUSH0 DUP3 ADD MSTORE POP JUMP JUMPDEST PUSH0 PUSH2 0x3768 PUSH1 0x12 DUP4 PUSH2 0x2981 JUMP JUMPDEST SWAP2 POP PUSH2 0x3773 DUP3 PUSH2 0x3734 JUMP JUMPDEST PUSH1 0x20 DUP3 ADD SWAP1 POP SWAP2 SWAP1 POP JUMP JUMPDEST PUSH0 PUSH1 0x20 DUP3 ADD SWAP1 POP DUP2 DUP2 SUB PUSH0 DUP4 ADD MSTORE PUSH2 0x3795 DUP2 PUSH2 0x375C JUMP JUMPDEST SWAP1 POP SWAP2 SWAP1 POP JUMP JUMPDEST PUSH0 PUSH2 0x37A6 DUP3 PUSH2 0x2731 JUMP JUMPDEST SWAP2 POP PUSH2 0x37B1 DUP4 PUSH2 0x2731 JUMP JUMPDEST SWAP3 POP DUP3 DUP3 ADD SWAP1 POP DUP1 DUP3 GT ISZERO PUSH2 0x37C9 JUMPI PUSH2 0x37C8 PUSH2 0x33B0 JUMP JUMPDEST JUMPDEST SWAP3 SWAP2 POP POP JUMP JUMPDEST PUSH32 0x4E6F2066756E647320746F207769746864726177000000000000000000000000 PUSH0 DUP3 ADD MSTORE POP JUMP JUMPDEST PUSH0 PUSH2 0x3803 PUSH1 0x14 DUP4 PUSH2 0x2981 JUMP JUMPDEST SWAP2 POP PUSH2 0x380E DUP3 PUSH2 0x37CF JUMP JUMPDEST PUSH1 0x20 DUP3 ADD SWAP1 POP SWAP2 SWAP1 POP JUMP JUMPDEST PUSH0 PUSH1 0x20 DUP3 ADD SWAP1 POP DUP2 DUP2 SUB PUSH0 DUP4 ADD MSTORE PUSH2 0x3830 DUP2 PUSH2 0x37F7 JUMP JUMPDEST SWAP1 POP SWAP2 SWAP1 POP JUMP JUMPDEST PUSH32 0x416E7377657220646F6573206E6F742065786973740000000000000000000000 PUSH0 DUP3 ADD MSTORE POP JUMP JUMPDEST PUSH0 PUSH2 0x386B PUSH1 0x15 DUP4 PUSH2 0x2981 JUMP JUMPDEST SWAP2 POP PUSH2 0x3876 DUP3 PUSH2 0x3837 JUMP JUMPDEST PUSH1 0x20 DUP3 ADD SWAP1 POP SWAP2 SWAP1 POP JUMP JUMPDEST PUSH0 PUSH1 0x20 DUP3 ADD SWAP1 POP DUP2 DUP2 SUB PUSH0 DUP4 ADD MSTORE PUSH2 0x3898 DUP2 PUSH2 0x385F JUMP JUMPDEST SWAP1 POP SWAP2 SWAP1 POP JUMP JUMPDEST PUSH0 DUP2 SWAP1 POP SWAP3 SWAP2 POP POP JUMP JUMPDEST PUSH0 DUP2 SWAP1 POP DUP2 PUSH0 MSTORE PUSH1 0x20 PUSH0 KECCAK256 SWAP1 POP SWAP2 SWAP1 POP JUMP JUMPDEST PUSH0 DUP2 SLOAD PUSH2 0x38C7 DUP2 PUSH2 0x3318 JUMP JUMPDEST PUSH2 0x38D1 DUP2 DUP7 PUSH2 0x389F JUMP JUMPDEST SWAP5 POP PUSH1 0x1 DUP3 AND PUSH0 DUP2 EQ PUSH2 0x38EB JUMPI PUSH1 0x1 DUP2 EQ PUSH2 0x3900 JUMPI PUSH2 0x3932 JUMP JUMPDEST PUSH1 0xFF NOT DUP4 AND DUP7 MSTORE DUP2 ISZERO ISZERO DUP3 MUL DUP7 ADD SWAP4 POP PUSH2 0x3932 JUMP JUMPDEST PUSH2 0x3909 DUP6 PUSH2 0x38A9 JUMP JUMPDEST PUSH0 JUMPDEST DUP4 DUP2 LT ISZERO PUSH2 0x392A JUMPI DUP2 SLOAD DUP2 DUP10 ADD MSTORE PUSH1 0x1 DUP3 ADD SWAP2 POP PUSH1 0x20 DUP2 ADD SWAP1 POP PUSH2 0x390B JUMP JUMPDEST DUP4 DUP9 ADD SWAP6 POP POP POP JUMPDEST POP POP POP SWAP3 SWAP2 POP POP JUMP JUMPDEST PUSH0 PUSH2 0x3946 DUP3 DUP5 PUSH2 0x38BB JUMP JUMPDEST SWAP2 POP DUP2 SWAP1 POP SWAP3 SWAP2 POP POP JUMP JUMPDEST PUSH32 0x4E487B7100000000000000000000000000000000000000000000000000000000 PUSH0 MSTORE PUSH1 0x32 PUSH1 0x4 MSTORE PUSH1 0x24 PUSH0 REVERT JUMPDEST PUSH32 0x526577617264206D7573742062652067726561746572207468616E207A65726F PUSH0 DUP3 ADD MSTORE POP JUMP JUMPDEST PUSH0 PUSH2 0x39B2 PUSH1 0x20 DUP4 PUSH2 0x2981 JUMP JUMPDEST SWAP2 POP PUSH2 0x39BD DUP3 PUSH2 0x397E JUMP JUMPDEST PUSH1 0x20 DUP3 ADD SWAP1 POP SWAP2 SWAP1 POP JUMP JUMPDEST PUSH0 PUSH1 0x20 DUP3 ADD SWAP1 POP DUP2 DUP2 SUB PUSH0 DUP4 ADD MSTORE PUSH2 0x39DF DUP2 PUSH2 0x39A6 JUMP JUMPDEST SWAP1 POP SWAP2 SWAP1 POP JUMP JUMPDEST PUSH32 0x43617465676F72792063616E6E6F7420626520656D7074790000000000000000 PUSH0 DUP3 ADD MSTORE POP JUMP JUMPDEST PUSH0 PUSH2 0x3A1A PUSH1 0x18 DUP4 PUSH2 0x2981 JUMP JUMPDEST SWAP2 POP PUSH2 0x3A25 DUP3 PUSH2 0x39E6 JUMP JUMPDEST PUSH1 0x20 DUP3 ADD SWAP1 POP SWAP2 SWAP1 POP JUMP JUMPDEST PUSH0 PUSH1 0x20 DUP3 ADD SWAP1 POP DUP2 DUP2 SUB PUSH0 DUP4 ADD MSTORE PUSH2 0x3A47 DUP2 PUSH2 0x3A0E JUMP JUMPDEST SWAP1 POP SWAP2 SWAP1 POP JUMP JUMPDEST PUSH32 0x4E487B7100000000000000000000000000000000000000000000000000000000 PUSH0 MSTORE PUSH1 0x21 PUSH1 0x4 MSTORE PUSH1 0x24 PUSH0 REVERT JUMPDEST PUSH0 PUSH1 0x80 DUP3 ADD SWAP1 POP PUSH2 0x3A8E PUSH0 DUP4 ADD DUP8 PUSH2 0x29D7 JUMP JUMPDEST DUP2 DUP2 SUB PUSH1 0x20 DUP4 ADD MSTORE PUSH2 0x3AA0 DUP2 DUP7 PUSH2 0x299F JUMP JUMPDEST SWAP1 POP PUSH2 0x3AAF PUSH1 0x40 DUP4 ADD DUP6 PUSH2 0x29D7 JUMP JUMPDEST DUP2 DUP2 SUB PUSH1 0x60 DUP4 ADD MSTORE PUSH2 0x3AC1 DUP2 DUP5 PUSH2 0x299F JUMP JUMPDEST SWAP1 POP SWAP6 SWAP5 POP POP POP POP POP JUMP JUMPDEST PUSH32 0x43616E6E6F742064697374726962757465206265666F726520646561646C696E PUSH0 DUP3 ADD MSTORE PUSH32 0x6500000000000000000000000000000000000000000000000000000000000000 PUSH1 0x20 DUP3 ADD MSTORE POP JUMP JUMPDEST PUSH0 PUSH2 0x3B26 PUSH1 0x21 DUP4 PUSH2 0x2981 JUMP JUMPDEST SWAP2 POP PUSH2 0x3B31 DUP3 PUSH2 0x3ACC JUMP JUMPDEST PUSH1 0x40 DUP3 ADD SWAP1 POP SWAP2 SWAP1 POP JUMP JUMPDEST PUSH0 PUSH1 0x20 DUP3 ADD SWAP1 POP DUP2 DUP2 SUB PUSH0 DUP4 ADD MSTORE PUSH2 0x3B53 DUP2 PUSH2 0x3B1A JUMP JUMPDEST SWAP1 POP SWAP2 SWAP1 POP JUMP JUMPDEST PUSH0 PUSH2 0x3B64 DUP3 PUSH2 0x2731 JUMP JUMPDEST SWAP2 POP PUSH2 0x3B6F DUP4 PUSH2 0x2731 JUMP JUMPDEST SWAP3 POP DUP3 DUP3 MUL PUSH2 0x3B7D DUP2 PUSH2 0x2731 JUMP JUMPDEST SWAP2 POP DUP3 DUP3 DIV DUP5 EQ DUP4 ISZERO OR PUSH2 0x3B94 JUMPI PUSH2 0x3B93 PUSH2 0x33B0 JUMP JUMPDEST JUMPDEST POP SWAP3 SWAP2 POP POP JUMP JUMPDEST PUSH32 0x4E487B7100000000000000000000000000000000000000000000000000000000 PUSH0 MSTORE PUSH1 0x12 PUSH1 0x4 MSTORE PUSH1 0x24 PUSH0 REVERT JUMPDEST PUSH0 PUSH2 0x3BD2 DUP3 PUSH2 0x2731 JUMP JUMPDEST SWAP2 POP PUSH2 0x3BDD DUP4 PUSH2 0x2731 JUMP JUMPDEST SWAP3 POP DUP3 PUSH2 0x3BED JUMPI PUSH2 0x3BEC PUSH2 0x3B9B JUMP JUMPDEST JUMPDEST DUP3 DUP3 DIV SWAP1 POP SWAP3 SWAP2 POP POP JUMP JUMPDEST PUSH32 0x5061676520696E646578206D7573742073746172742066726F6D203100000000 PUSH0 DUP3 ADD MSTORE POP JUMP JUMPDEST PUSH0 PUSH2 0x3C2C PUSH1 0x1C DUP4 PUSH2 0x2981 JUMP JUMPDEST SWAP2 POP PUSH2 0x3C37 DUP3 PUSH2 0x3BF8 JUMP JUMPDEST PUSH1 0x20 DUP3 ADD SWAP1 POP SWAP2 SWAP1 POP JUMP JUMPDEST PUSH0 PUSH1 0x20 DUP3 ADD SWAP1 POP DUP2 DUP2 SUB PUSH0 DUP4 ADD MSTORE PUSH2 0x3C59 DUP2 PUSH2 0x3C20 JUMP JUMPDEST SWAP1 POP SWAP2 SWAP1 POP JUMP JUMPDEST PUSH32 0x506167652073697A65206D7573742062652067726561746572207468616E2030 PUSH0 DUP3 ADD MSTORE POP JUMP JUMPDEST PUSH0 PUSH2 0x3C94 PUSH1 0x20 DUP4 PUSH2 0x2981 JUMP JUMPDEST SWAP2 POP PUSH2 0x3C9F DUP3 PUSH2 0x3C60 JUMP JUMPDEST PUSH1 0x20 DUP3 ADD SWAP1 POP SWAP2 SWAP1 POP JUMP JUMPDEST PUSH0 PUSH1 0x20 DUP3 ADD SWAP1 POP DUP2 DUP2 SUB PUSH0 DUP4 ADD MSTORE PUSH2 0x3CC1 DUP2 PUSH2 0x3C88 JUMP JUMPDEST SWAP1 POP SWAP2 SWAP1 POP JUMP JUMPDEST PUSH0 PUSH2 0x3CD2 DUP3 PUSH2 0x2731 JUMP JUMPDEST SWAP2 POP PUSH2 0x3CDD DUP4 PUSH2 0x2731 JUMP JUMPDEST SWAP3 POP DUP3 DUP3 SUB SWAP1 POP DUP2 DUP2 GT ISZERO PUSH2 0x3CF5 JUMPI PUSH2 0x3CF4 PUSH2 0x33B0 JUMP JUMPDEST JUMPDEST SWAP3 SWAP2 POP POP JUMP JUMPDEST PUSH32 0x496E76616C6964207061676520696E6465780000000000000000000000000000 PUSH0 DUP3 ADD MSTORE POP JUMP JUMPDEST PUSH0 PUSH2 0x3D2F PUSH1 0x12 DUP4 PUSH2 0x2981 JUMP JUMPDEST SWAP2 POP PUSH2 0x3D3A DUP3 PUSH2 0x3CFB JUMP JUMPDEST PUSH1 0x20 DUP3 ADD SWAP1 POP SWAP2 SWAP1 POP JUMP JUMPDEST PUSH0 PUSH1 0x20 DUP3 ADD SWAP1 POP DUP2 DUP2 SUB PUSH0 DUP4 ADD MSTORE PUSH2 0x3D5C DUP2 PUSH2 0x3D23 JUMP JUMPDEST SWAP1 POP SWAP2 SWAP1 POP JUMP INVALID LOG2 PUSH5 0x6970667358 0x22 SLT KECCAK256 CALLVALUE BLOCKHASH 0x26 MLOAD 0xDE PUSH26 0x85C0F00734F8BCC149C33EBFCAC158F39F082E4D1D79DCB45842 PUSH5 0x736F6C6343 STOP ADDMOD BYTE STOP CALLER "
				},
				"gasEstimates": {
					"creation": {
						"codeDepositCost": "3153800",
						"executionCost": "94080",
						"totalCost": "3247880"
					},
					"external": {
						"MONTH()": "369",
						"TWO_WEEKS()": "414",
						"WEEK()": "435",
						"answerIdCounter()": "2447",
						"answers(uint256,uint256)": "infinite",
						"askQuestion(string,string,string,uint8)": "infinite",
						"balance()": "445",
						"balances(address)": "2914",
						"closeQuestion(uint256,uint256)": "infinite",
						"distributeRewards(uint256)": "infinite",
						"getAnswerById(uint256,uint256)": "infinite",
						"getQuestionById(uint256)": "infinite",
						"getQuestions(uint256,uint256)": "infinite",
						"getQuestionsByCategory(string)": "infinite",
						"owner()": "2572",
						"questionIdCounter()": "2470",
						"questions(uint256)": "infinite",
						"submitAnswer(uint256,string)": "infinite",
						"voteFee()": "2491",
						"voteForAnswer(uint256,uint256)": "infinite",
						"withdraw()": "infinite"
					}
				},
				"methodIdentifiers": {
					"MONTH()": "d5999a5c",
					"TWO_WEEKS()": "934d1fa4",
					"WEEK()": "f4359ce5",
					"answerIdCounter()": "cba13030",
					"answers(uint256,uint256)": "2401519c",
					"askQuestion(string,string,string,uint8)": "572491c3",
					"balance()": "b69ef8a8",
					"balances(address)": "27e235e3",
					"closeQuestion(uint256,uint256)": "01b49d47",
					"distributeRewards(uint256)": "59974e38",
					"getAnswerById(uint256,uint256)": "4a8f164f",
					"getQuestionById(uint256)": "e25f3e02",
					"getQuestions(uint256,uint256)": "fd1df035",
					"getQuestionsByCategory(string)": "55ce8034",
					"owner()": "8da5cb5b",
					"questionIdCounter()": "61e78617",
					"questions(uint256)": "31b1b978",
					"submitAnswer(uint256,string)": "01fa3bec",
					"voteFee()": "da2b4c1e",
					"voteForAnswer(uint256,uint256)": "2690567e",
					"withdraw()": "3ccfd60b"
				}
			},
			"storageLayout": {
				"storage": [
					{
						"astId": 3,
						"contract": "contracts/InquireA.sol:InquireA",
						"label": "owner",
						"offset": 0,
						"slot": "0",
						"type": "t_address"
					},
					{
						"astId": 6,
						"contract": "contracts/InquireA.sol:InquireA",
						"label": "voteFee",
						"offset": 0,
						"slot": "1",
						"type": "t_uint256"
					},
					{
						"astId": 8,
						"contract": "contracts/InquireA.sol:InquireA",
						"label": "questionIdCounter",
						"offset": 0,
						"slot": "2",
						"type": "t_uint256"
					},
					{
						"astId": 10,
						"contract": "contracts/InquireA.sol:InquireA",
						"label": "answerIdCounter",
						"offset": 0,
						"slot": "3",
						"type": "t_uint256"
					},
					{
						"astId": 60,
						"contract": "contracts/InquireA.sol:InquireA",
						"label": "questions",
						"offset": 0,
						"slot": "4",
						"type": "t_mapping(t_uint256,t_struct(Question)44_storage)"
					},
					{
						"astId": 67,
						"contract": "contracts/InquireA.sol:InquireA",
						"label": "answers",
						"offset": 0,
						"slot": "5",
						"type": "t_mapping(t_uint256,t_mapping(t_uint256,t_struct(Answer)55_storage))"
					},
					{
						"astId": 71,
						"contract": "contracts/InquireA.sol:InquireA",
						"label": "balances",
						"offset": 0,
						"slot": "6",
						"type": "t_mapping(t_address,t_uint256)"
					}
				],
				"types": {
					"t_address": {
						"encoding": "inplace",
						"label": "address",
						"numberOfBytes": "20"
					},
					"t_bool": {
						"encoding": "inplace",
						"label": "bool",
						"numberOfBytes": "1"
					},
					"t_mapping(t_address,t_uint256)": {
						"encoding": "mapping",
						"key": "t_address",
						"label": "mapping(address => uint256)",
						"numberOfBytes": "32",
						"value": "t_uint256"
					},
					"t_mapping(t_uint256,t_mapping(t_uint256,t_struct(Answer)55_storage))": {
						"encoding": "mapping",
						"key": "t_uint256",
						"label": "mapping(uint256 => mapping(uint256 => struct InquireA.Answer))",
						"numberOfBytes": "32",
						"value": "t_mapping(t_uint256,t_struct(Answer)55_storage)"
					},
					"t_mapping(t_uint256,t_struct(Answer)55_storage)": {
						"encoding": "mapping",
						"key": "t_uint256",
						"label": "mapping(uint256 => struct InquireA.Answer)",
						"numberOfBytes": "32",
						"value": "t_struct(Answer)55_storage"
					},
					"t_mapping(t_uint256,t_struct(Question)44_storage)": {
						"encoding": "mapping",
						"key": "t_uint256",
						"label": "mapping(uint256 => struct InquireA.Question)",
						"numberOfBytes": "32",
						"value": "t_struct(Question)44_storage"
					},
					"t_string_storage": {
						"encoding": "bytes",
						"label": "string",
						"numberOfBytes": "32"
					},
					"t_struct(Answer)55_storage": {
						"encoding": "inplace",
						"label": "struct InquireA.Answer",
						"members": [
							{
								"astId": 46,
								"contract": "contracts/InquireA.sol:InquireA",
								"label": "responder",
								"offset": 0,
								"slot": "0",
								"type": "t_address"
							},
							{
								"astId": 48,
								"contract": "contracts/InquireA.sol:InquireA",
								"label": "answerText",
								"offset": 0,
								"slot": "1",
								"type": "t_string_storage"
							},
							{
								"astId": 50,
								"contract": "contracts/InquireA.sol:InquireA",
								"label": "upvotes",
								"offset": 0,
								"slot": "2",
								"type": "t_uint256"
							},
							{
								"astId": 52,
								"contract": "contracts/InquireA.sol:InquireA",
								"label": "rewardAmount",
								"offset": 0,
								"slot": "3",
								"type": "t_uint256"
							},
							{
								"astId": 54,
								"contract": "contracts/InquireA.sol:InquireA",
								"label": "createdAt",
								"offset": 0,
								"slot": "4",
								"type": "t_uint256"
							}
						],
						"numberOfBytes": "160"
					},
					"t_struct(Question)44_storage": {
						"encoding": "inplace",
						"label": "struct InquireA.Question",
						"members": [
							{
								"astId": 25,
								"contract": "contracts/InquireA.sol:InquireA",
								"label": "id",
								"offset": 0,
								"slot": "0",
								"type": "t_uint256"
							},
							{
								"astId": 27,
								"contract": "contracts/InquireA.sol:InquireA",
								"label": "asker",
								"offset": 0,
								"slot": "1",
								"type": "t_address"
							},
							{
								"astId": 29,
								"contract": "contracts/InquireA.sol:InquireA",
								"label": "questionText",
								"offset": 0,
								"slot": "2",
								"type": "t_string_storage"
							},
							{
								"astId": 31,
								"contract": "contracts/InquireA.sol:InquireA",
								"label": "questionContent",
								"offset": 0,
								"slot": "3",
								"type": "t_string_storage"
							},
							{
								"astId": 33,
								"contract": "contracts/InquireA.sol:InquireA",
								"label": "category",
								"offset": 0,
								"slot": "4",
								"type": "t_string_storage"
							},
							{
								"astId": 35,
								"contract": "contracts/InquireA.sol:InquireA",
								"label": "rewardAmount",
								"offset": 0,
								"slot": "5",
								"type": "t_uint256"
							},
							{
								"astId": 37,
								"contract": "contracts/InquireA.sol:InquireA",
								"label": "createdAt",
								"offset": 0,
								"slot": "6",
								"type": "t_uint256"
							},
							{
								"astId": 39,
								"contract": "contracts/InquireA.sol:InquireA",
								"label": "deadline",
								"offset": 0,
								"slot": "7",
								"type": "t_uint256"
							},
							{
								"astId": 41,
								"contract": "contracts/InquireA.sol:InquireA",
								"label": "isClosed",
								"offset": 0,
								"slot": "8",
								"type": "t_bool"
							},
							{
								"astId": 43,
								"contract": "contracts/InquireA.sol:InquireA",
								"label": "chosenAnswerId",
								"offset": 0,
								"slot": "9",
								"type": "t_uint256"
							}
						],
						"numberOfBytes": "320"
					},
					"t_uint256": {
						"encoding": "inplace",
						"label": "uint256",
						"numberOfBytes": "32"
					}
				}
			},
			"userdoc": {
				"kind": "user",
				"methods": {},
				"version": 1
			}
		}
	}
}