{
	"contracts/InquireA.sol": {
		"InquireA": {
			"abi": [
				{
					"inputs": [],
					"stateMutability": "nonpayable",
					"type": "constructor"
				},
				{
					"anonymous": false,
					"inputs": [
						{
							"indexed": false,
							"internalType": "uint256",
							"name": "questionId",
							"type": "uint256"
						},
						{
							"indexed": false,
							"internalType": "uint256",
							"name": "answerId",
							"type": "uint256"
						},
						{
							"indexed": true,
							"internalType": "address",
							"name": "responder",
							"type": "address"
						},
						{
							"indexed": false,
							"internalType": "string",
							"name": "answerText",
							"type": "string"
						}
					],
					"name": "AnswerSubmitted",
					"type": "event"
				},
				{
					"anonymous": false,
					"inputs": [
						{
							"indexed": false,
							"internalType": "uint256",
							"name": "questionId",
							"type": "uint256"
						},
						{
							"indexed": true,
							"internalType": "address",
							"name": "asker",
							"type": "address"
						},
						{
							"indexed": false,
							"internalType": "string",
							"name": "questionText",
							"type": "string"
						},
						{
							"indexed": false,
							"internalType": "uint256",
							"name": "rewardAmount",
							"type": "uint256"
						},
						{
							"indexed": false,
							"internalType": "string",
							"name": "category",
							"type": "string"
						}
					],
					"name": "QuestionAsked",
					"type": "event"
				},
				{
					"anonymous": false,
					"inputs": [
						{
							"indexed": false,
							"internalType": "uint256",
							"name": "questionId",
							"type": "uint256"
						},
						{
							"indexed": false,
							"internalType": "uint256",
							"name": "chosenAnswerId",
							"type": "uint256"
						}
					],
					"name": "QuestionClosed",
					"type": "event"
				},
				{
					"anonymous": false,
					"inputs": [
						{
							"indexed": false,
							"internalType": "uint256",
							"name": "questionId",
							"type": "uint256"
						},
						{
							"indexed": false,
							"internalType": "uint256",
							"name": "answerId",
							"type": "uint256"
						},
						{
							"indexed": true,
							"internalType": "address",
							"name": "voter",
							"type": "address"
						}
					],
					"name": "Voted",
					"type": "event"
				},
				{
					"inputs": [],
					"name": "MONTH",
					"outputs": [
						{
							"internalType": "uint256",
							"name": "",
							"type": "uint256"
						}
					],
					"stateMutability": "view",
					"type": "function"
				},
				{
					"inputs": [],
					"name": "TWO_WEEKS",
					"outputs": [
						{
							"internalType": "uint256",
							"name": "",
							"type": "uint256"
						}
					],
					"stateMutability": "view",
					"type": "function"
				},
				{
					"inputs": [],
					"name": "WEEK",
					"outputs": [
						{
							"internalType": "uint256",
							"name": "",
							"type": "uint256"
						}
					],
					"stateMutability": "view",
					"type": "function"
				},
				{
					"inputs": [],
					"name": "answerIdCounter",
					"outputs": [
						{
							"internalType": "uint256",
							"name": "",
							"type": "uint256"
						}
					],
					"stateMutability": "view",
					"type": "function"
				},
				{
					"inputs": [
						{
							"internalType": "uint256",
							"name": "",
							"type": "uint256"
						},
						{
							"internalType": "uint256",
							"name": "",
							"type": "uint256"
						}
					],
					"name": "answers",
					"outputs": [
						{
							"internalType": "uint256",
							"name": "id",
							"type": "uint256"
						},
						{
							"internalType": "address",
							"name": "responder",
							"type": "address"
						},
						{
							"internalType": "string",
							"name": "answerText",
							"type": "string"
						},
						{
							"internalType": "uint256",
							"name": "upvotes",
							"type": "uint256"
						},
						{
							"internalType": "uint256",
							"name": "rewardAmount",
							"type": "uint256"
						},
						{
							"internalType": "uint256",
							"name": "createdAt",
							"type": "uint256"
						}
					],
					"stateMutability": "view",
					"type": "function"
				},
				{
					"inputs": [
						{
							"internalType": "string",
							"name": "_questionText",
							"type": "string"
						},
						{
							"internalType": "string",
							"name": "_questionContent",
							"type": "string"
						},
						{
							"internalType": "string",
							"name": "_category",
							"type": "string"
						},
						{
							"internalType": "enum InquireA.DeadlinePeriod",
							"name": "_deadlinePeriod",
							"type": "uint8"
						}
					],
					"name": "askQuestion",
					"outputs": [],
					"stateMutability": "payable",
					"type": "function"
				},
				{
					"inputs": [],
					"name": "balance",
					"outputs": [
						{
							"internalType": "uint256",
							"name": "",
							"type": "uint256"
						}
					],
					"stateMutability": "view",
					"type": "function"
				},
				{
					"inputs": [
						{
							"internalType": "address",
							"name": "",
							"type": "address"
						}
					],
					"name": "balances",
					"outputs": [
						{
							"internalType": "uint256",
							"name": "",
							"type": "uint256"
						}
					],
					"stateMutability": "view",
					"type": "function"
				},
				{
					"inputs": [
						{
							"internalType": "uint256",
							"name": "questionId",
							"type": "uint256"
						},
						{
							"internalType": "uint256",
							"name": "answerId",
							"type": "uint256"
						}
					],
					"name": "closeQuestion",
					"outputs": [],
					"stateMutability": "nonpayable",
					"type": "function"
				},
				{
					"inputs": [
						{
							"internalType": "uint256",
							"name": "questionId",
							"type": "uint256"
						}
					],
					"name": "distributeRewards",
					"outputs": [],
					"stateMutability": "nonpayable",
					"type": "function"
				},
				{
					"inputs": [
						{
							"internalType": "uint256",
							"name": "questionId",
							"type": "uint256"
						},
						{
							"internalType": "uint256",
							"name": "answerId",
							"type": "uint256"
						}
					],
					"name": "getAnswerById",
					"outputs": [
						{
							"components": [
								{
									"internalType": "uint256",
									"name": "id",
									"type": "uint256"
								},
								{
									"internalType": "address",
									"name": "responder",
									"type": "address"
								},
								{
									"internalType": "string",
									"name": "answerText",
									"type": "string"
								},
								{
									"internalType": "uint256",
									"name": "upvotes",
									"type": "uint256"
								},
								{
									"internalType": "uint256",
									"name": "rewardAmount",
									"type": "uint256"
								},
								{
									"internalType": "uint256",
									"name": "createdAt",
									"type": "uint256"
								}
							],
							"internalType": "struct InquireA.Answer",
							"name": "",
							"type": "tuple"
						}
					],
					"stateMutability": "view",
					"type": "function"
				},
				{
					"inputs": [
						{
							"internalType": "uint256",
							"name": "questionId",
							"type": "uint256"
						},
						{
							"internalType": "uint256",
							"name": "pageIndex",
							"type": "uint256"
						},
						{
							"internalType": "uint256",
							"name": "pageSize",
							"type": "uint256"
						}
					],
					"name": "getAnswersByQuestionId",
					"outputs": [
						{
							"components": [
								{
									"internalType": "uint256",
									"name": "id",
									"type": "uint256"
								},
								{
									"internalType": "address",
									"name": "responder",
									"type": "address"
								},
								{
									"internalType": "string",
									"name": "answerText",
									"type": "string"
								},
								{
									"internalType": "uint256",
									"name": "upvotes",
									"type": "uint256"
								},
								{
									"internalType": "uint256",
									"name": "rewardAmount",
									"type": "uint256"
								},
								{
									"internalType": "uint256",
									"name": "createdAt",
									"type": "uint256"
								}
							],
							"internalType": "struct InquireA.Answer[]",
							"name": "answersList",
							"type": "tuple[]"
						},
						{
							"internalType": "uint256",
							"name": "totalAnswers",
							"type": "uint256"
						},
						{
							"internalType": "uint256",
							"name": "totalPages",
							"type": "uint256"
						}
					],
					"stateMutability": "view",
					"type": "function"
				},
				{
					"inputs": [
						{
							"internalType": "uint256",
							"name": "questionId",
							"type": "uint256"
						}
					],
					"name": "getQuestionById",
					"outputs": [
						{
							"components": [
								{
									"internalType": "uint256",
									"name": "id",
									"type": "uint256"
								},
								{
									"internalType": "address",
									"name": "asker",
									"type": "address"
								},
								{
									"internalType": "string",
									"name": "questionText",
									"type": "string"
								},
								{
									"internalType": "string",
									"name": "questionContent",
									"type": "string"
								},
								{
									"internalType": "string",
									"name": "category",
									"type": "string"
								},
								{
									"internalType": "uint256",
									"name": "rewardAmount",
									"type": "uint256"
								},
								{
									"internalType": "uint256",
									"name": "createdAt",
									"type": "uint256"
								},
								{
									"internalType": "uint256",
									"name": "deadline",
									"type": "uint256"
								},
								{
									"internalType": "bool",
									"name": "isClosed",
									"type": "bool"
								},
								{
									"internalType": "uint256",
									"name": "chosenAnswerId",
									"type": "uint256"
								}
							],
							"internalType": "struct InquireA.Question",
							"name": "",
							"type": "tuple"
						}
					],
					"stateMutability": "view",
					"type": "function"
				},
				{
					"inputs": [
						{
							"internalType": "uint256",
							"name": "pageIndex",
							"type": "uint256"
						},
						{
							"internalType": "uint256",
							"name": "pageSize",
							"type": "uint256"
						}
					],
					"name": "getQuestions",
					"outputs": [
						{
							"components": [
								{
									"internalType": "uint256",
									"name": "id",
									"type": "uint256"
								},
								{
									"internalType": "address",
									"name": "asker",
									"type": "address"
								},
								{
									"internalType": "string",
									"name": "questionText",
									"type": "string"
								},
								{
									"internalType": "string",
									"name": "questionContent",
									"type": "string"
								},
								{
									"internalType": "string",
									"name": "category",
									"type": "string"
								},
								{
									"internalType": "uint256",
									"name": "rewardAmount",
									"type": "uint256"
								},
								{
									"internalType": "uint256",
									"name": "createdAt",
									"type": "uint256"
								},
								{
									"internalType": "uint256",
									"name": "deadline",
									"type": "uint256"
								},
								{
									"internalType": "bool",
									"name": "isClosed",
									"type": "bool"
								},
								{
									"internalType": "uint256",
									"name": "chosenAnswerId",
									"type": "uint256"
								}
							],
							"internalType": "struct InquireA.Question[]",
							"name": "questionsList",
							"type": "tuple[]"
						},
						{
							"internalType": "uint256",
							"name": "totalQuestions",
							"type": "uint256"
						},
						{
							"internalType": "uint256",
							"name": "totalPages",
							"type": "uint256"
						}
					],
					"stateMutability": "view",
					"type": "function"
				},
				{
					"inputs": [
						{
							"internalType": "string",
							"name": "_category",
							"type": "string"
						}
					],
					"name": "getQuestionsByCategory",
					"outputs": [
						{
							"internalType": "uint256[]",
							"name": "",
							"type": "uint256[]"
						}
					],
					"stateMutability": "view",
					"type": "function"
				},
				{
					"inputs": [],
					"name": "owner",
					"outputs": [
						{
							"internalType": "address",
							"name": "",
							"type": "address"
						}
					],
					"stateMutability": "view",
					"type": "function"
				},
				{
					"inputs": [],
					"name": "questionIdCounter",
					"outputs": [
						{
							"internalType": "uint256",
							"name": "",
							"type": "uint256"
						}
					],
					"stateMutability": "view",
					"type": "function"
				},
				{
					"inputs": [
						{
							"internalType": "uint256",
							"name": "",
							"type": "uint256"
						}
					],
					"name": "questions",
					"outputs": [
						{
							"internalType": "uint256",
							"name": "id",
							"type": "uint256"
						},
						{
							"internalType": "address",
							"name": "asker",
							"type": "address"
						},
						{
							"internalType": "string",
							"name": "questionText",
							"type": "string"
						},
						{
							"internalType": "string",
							"name": "questionContent",
							"type": "string"
						},
						{
							"internalType": "string",
							"name": "category",
							"type": "string"
						},
						{
							"internalType": "uint256",
							"name": "rewardAmount",
							"type": "uint256"
						},
						{
							"internalType": "uint256",
							"name": "createdAt",
							"type": "uint256"
						},
						{
							"internalType": "uint256",
							"name": "deadline",
							"type": "uint256"
						},
						{
							"internalType": "bool",
							"name": "isClosed",
							"type": "bool"
						},
						{
							"internalType": "uint256",
							"name": "chosenAnswerId",
							"type": "uint256"
						}
					],
					"stateMutability": "view",
					"type": "function"
				},
				{
					"inputs": [
						{
							"internalType": "uint256",
							"name": "questionId",
							"type": "uint256"
						},
						{
							"internalType": "string",
							"name": "_answerText",
							"type": "string"
						}
					],
					"name": "submitAnswer",
					"outputs": [],
					"stateMutability": "nonpayable",
					"type": "function"
				},
				{
					"inputs": [],
					"name": "voteFee",
					"outputs": [
						{
							"internalType": "uint256",
							"name": "",
							"type": "uint256"
						}
					],
					"stateMutability": "view",
					"type": "function"
				},
				{
					"inputs": [
						{
							"internalType": "uint256",
							"name": "questionId",
							"type": "uint256"
						},
						{
							"internalType": "uint256",
							"name": "answerId",
							"type": "uint256"
						}
					],
					"name": "voteForAnswer",
					"outputs": [],
					"stateMutability": "payable",
					"type": "function"
				},
				{
					"inputs": [],
					"name": "withdraw",
					"outputs": [],
					"stateMutability": "nonpayable",
					"type": "function"
				}
			],
			"devdoc": {
				"kind": "dev",
				"methods": {},
				"version": 1
			},
			"evm": {
				"assembly": "    /* \"contracts/InquireA.sol\":60:11701  contract InquireA {... */\n  mstore(0x40, 0x80)\n    /* \"contracts/InquireA.sol\":137:147  0.01 ether */\n  0x2386f26fc10000\n    /* \"contracts/InquireA.sol\":112:147  uint256 public voteFee = 0.01 ether */\n  0x01\n  sstore\n    /* \"contracts/InquireA.sol\":1640:1757  constructor() {... */\n  callvalue\n  dup1\n  iszero\n  tag_1\n  jumpi\n  0x00\n  dup1\n  revert\ntag_1:\n  pop\n    /* \"contracts/InquireA.sol\":1673:1683  msg.sender */\n  caller\n    /* \"contracts/InquireA.sol\":1665:1670  owner */\n  0x00\n  dup1\n    /* \"contracts/InquireA.sol\":1665:1683  owner = msg.sender */\n  0x0100\n  exp\n  dup2\n  sload\n  dup2\n  0xffffffffffffffffffffffffffffffffffffffff\n  mul\n  not\n  and\n  swap1\n  dup4\n  0xffffffffffffffffffffffffffffffffffffffff\n  and\n  mul\n  or\n  swap1\n  sstore\n  pop\n    /* \"contracts/InquireA.sol\":1714:1715  1 */\n  0x01\n    /* \"contracts/InquireA.sol\":1694:1711  questionIdCounter */\n  0x02\n    /* \"contracts/InquireA.sol\":1694:1715  questionIdCounter = 1 */\n  dup2\n  swap1\n  sstore\n  pop\n    /* \"contracts/InquireA.sol\":1746:1747  1 */\n  0x01\n    /* \"contracts/InquireA.sol\":1728:1743  answerIdCounter */\n  0x03\n    /* \"contracts/InquireA.sol\":1728:1747  answerIdCounter = 1 */\n  dup2\n  swap1\n  sstore\n  pop\n    /* \"contracts/InquireA.sol\":60:11701  contract InquireA {... */\n  dataSize(sub_0)\n  dup1\n  dataOffset(sub_0)\n  0x00\n  codecopy\n  0x00\n  return\nstop\n\nsub_0: assembly {\n        /* \"contracts/InquireA.sol\":60:11701  contract InquireA {... */\n      mstore(0x40, 0x80)\n      jumpi(tag_1, lt(calldatasize, 0x04))\n      shr(0xe0, calldataload(0x00))\n      dup1\n      0x61e78617\n      gt\n      tag_24\n      jumpi\n      dup1\n      0xd5999a5c\n      gt\n      tag_25\n      jumpi\n      dup1\n      0xd5999a5c\n      eq\n      tag_18\n      jumpi\n      dup1\n      0xda2b4c1e\n      eq\n      tag_19\n      jumpi\n      dup1\n      0xe25f3e02\n      eq\n      tag_20\n      jumpi\n      dup1\n      0xee1589a5\n      eq\n      tag_21\n      jumpi\n      dup1\n      0xf4359ce5\n      eq\n      tag_22\n      jumpi\n      dup1\n      0xfd1df035\n      eq\n      tag_23\n      jumpi\n      jump(tag_1)\n    tag_25:\n      dup1\n      0x61e78617\n      eq\n      tag_13\n      jumpi\n      dup1\n      0x8da5cb5b\n      eq\n      tag_14\n      jumpi\n      dup1\n      0x934d1fa4\n      eq\n      tag_15\n      jumpi\n      dup1\n      0xb69ef8a8\n      eq\n      tag_16\n      jumpi\n      dup1\n      0xcba13030\n      eq\n      tag_17\n      jumpi\n      jump(tag_1)\n    tag_24:\n      dup1\n      0x31b1b978\n      gt\n      tag_26\n      jumpi\n      dup1\n      0x31b1b978\n      eq\n      tag_7\n      jumpi\n      dup1\n      0x3ccfd60b\n      eq\n      tag_8\n      jumpi\n      dup1\n      0x4a8f164f\n      eq\n      tag_9\n      jumpi\n      dup1\n      0x55ce8034\n      eq\n      tag_10\n      jumpi\n      dup1\n      0x572491c3\n      eq\n      tag_11\n      jumpi\n      dup1\n      0x59974e38\n      eq\n      tag_12\n      jumpi\n      jump(tag_1)\n    tag_26:\n      dup1\n      0x01b49d47\n      eq\n      tag_2\n      jumpi\n      dup1\n      0x01fa3bec\n      eq\n      tag_3\n      jumpi\n      dup1\n      0x2401519c\n      eq\n      tag_4\n      jumpi\n      dup1\n      0x2690567e\n      eq\n      tag_5\n      jumpi\n      dup1\n      0x27e235e3\n      eq\n      tag_6\n      jumpi\n    tag_1:\n      0x00\n      dup1\n      revert\n        /* \"contracts/InquireA.sol\":9188:9590  function closeQuestion(uint256 questionId, uint256 answerId) public questionExists(questionId) notClosed(questionId) {... */\n    tag_2:\n      callvalue\n      dup1\n      iszero\n      tag_27\n      jumpi\n      0x00\n      dup1\n      revert\n    tag_27:\n      pop\n      tag_28\n      0x04\n      dup1\n      calldatasize\n      sub\n      dup2\n      add\n      swap1\n      tag_29\n      swap2\n      swap1\n      tag_30\n      jump\t// in\n    tag_29:\n      tag_31\n      jump\t// in\n    tag_28:\n      stop\n        /* \"contracts/InquireA.sol\":3621:4319  function submitAnswer(uint256 questionId, string memory _answerText) public questionExists(questionId) notClosed(questionId) {... */\n    tag_3:\n      callvalue\n      dup1\n      iszero\n      tag_32\n      jumpi\n      0x00\n      dup1\n      revert\n    tag_32:\n      pop\n      tag_33\n      0x04\n      dup1\n      calldatasize\n      sub\n      dup2\n      add\n      swap1\n      tag_34\n      swap2\n      swap1\n      tag_35\n      jump\t// in\n    tag_34:\n      tag_36\n      jump\t// in\n    tag_33:\n      stop\n        /* \"contracts/InquireA.sol\":1072:1133  mapping(uint256 => mapping(uint256 => Answer)) public answers */\n    tag_4:\n      callvalue\n      dup1\n      iszero\n      tag_37\n      jumpi\n      0x00\n      dup1\n      revert\n    tag_37:\n      pop\n      tag_38\n      0x04\n      dup1\n      calldatasize\n      sub\n      dup2\n      add\n      swap1\n      tag_39\n      swap2\n      swap1\n      tag_30\n      jump\t// in\n    tag_39:\n      tag_40\n      jump\t// in\n    tag_38:\n      mload(0x40)\n      tag_41\n      swap7\n      swap6\n      swap5\n      swap4\n      swap3\n      swap2\n      swap1\n      tag_42\n      jump\t// in\n    tag_41:\n      mload(0x40)\n      dup1\n      swap2\n      sub\n      swap1\n      return\n        /* \"contracts/InquireA.sol\":8630:9180  function voteForAnswer(uint256 questionId, uint256 answerId) public payable questionExists(questionId) notClosed(questionId) {... */\n    tag_5:\n      tag_43\n      0x04\n      dup1\n      calldatasize\n      sub\n      dup2\n      add\n      swap1\n      tag_44\n      swap2\n      swap1\n      tag_30\n      jump\t// in\n    tag_44:\n      tag_45\n      jump\t// in\n    tag_43:\n      stop\n        /* \"contracts/InquireA.sol\":1140:1183  mapping(address => uint256) public balances */\n    tag_6:\n      callvalue\n      dup1\n      iszero\n      tag_46\n      jumpi\n      0x00\n      dup1\n      revert\n    tag_46:\n      pop\n      tag_47\n      0x04\n      dup1\n      calldatasize\n      sub\n      dup2\n      add\n      swap1\n      tag_48\n      swap2\n      swap1\n      tag_49\n      jump\t// in\n    tag_48:\n      tag_50\n      jump\t// in\n    tag_47:\n      mload(0x40)\n      tag_51\n      swap2\n      swap1\n      tag_52\n      jump\t// in\n    tag_51:\n      mload(0x40)\n      dup1\n      swap2\n      sub\n      swap1\n      return\n        /* \"contracts/InquireA.sol\":1020:1065  mapping(uint256 => Question) public questions */\n    tag_7:\n      callvalue\n      dup1\n      iszero\n      tag_53\n      jumpi\n      0x00\n      dup1\n      revert\n    tag_53:\n      pop\n      tag_54\n      0x04\n      dup1\n      calldatasize\n      sub\n      dup2\n      add\n      swap1\n      tag_55\n      swap2\n      swap1\n      tag_56\n      jump\t// in\n    tag_55:\n      tag_57\n      jump\t// in\n    tag_54:\n      mload(0x40)\n      tag_58\n      swap11\n      swap10\n      swap9\n      swap8\n      swap7\n      swap6\n      swap5\n      swap4\n      swap3\n      swap2\n      swap1\n      tag_59\n      jump\t// in\n    tag_58:\n      mload(0x40)\n      dup1\n      swap2\n      sub\n      swap1\n      return\n        /* \"contracts/InquireA.sol\":10645:10866  function withdraw() public {... */\n    tag_8:\n      callvalue\n      dup1\n      iszero\n      tag_60\n      jumpi\n      0x00\n      dup1\n      revert\n    tag_60:\n      pop\n      tag_61\n      tag_62\n      jump\t// in\n    tag_61:\n      stop\n        /* \"contracts/InquireA.sol\":8372:8622  function getAnswerById(uint256 questionId, uint256 answerId) public view returns (Answer memory) {... */\n    tag_9:\n      callvalue\n      dup1\n      iszero\n      tag_63\n      jumpi\n      0x00\n      dup1\n      revert\n    tag_63:\n      pop\n      tag_64\n      0x04\n      dup1\n      calldatasize\n      sub\n      dup2\n      add\n      swap1\n      tag_65\n      swap2\n      swap1\n      tag_30\n      jump\t// in\n    tag_65:\n      tag_66\n      jump\t// in\n    tag_64:\n      mload(0x40)\n      tag_67\n      swap2\n      swap1\n      tag_68\n      jump\t// in\n    tag_67:\n      mload(0x40)\n      dup1\n      swap2\n      sub\n      swap1\n      return\n        /* \"contracts/InquireA.sol\":11022:11698  function getQuestionsByCategory(string memory _category) public view returns (uint256[] memory) {... */\n    tag_10:\n      callvalue\n      dup1\n      iszero\n      tag_69\n      jumpi\n      0x00\n      dup1\n      revert\n    tag_69:\n      pop\n      tag_70\n      0x04\n      dup1\n      calldatasize\n      sub\n      dup2\n      add\n      swap1\n      tag_71\n      swap2\n      swap1\n      tag_72\n      jump\t// in\n    tag_71:\n      tag_73\n      jump\t// in\n    tag_70:\n      mload(0x40)\n      tag_74\n      swap2\n      swap1\n      tag_75\n      jump\t// in\n    tag_74:\n      mload(0x40)\n      dup1\n      swap2\n      sub\n      swap1\n      return\n        /* \"contracts/InquireA.sol\":2244:3582  function askQuestion(... */\n    tag_11:\n      tag_76\n      0x04\n      dup1\n      calldatasize\n      sub\n      dup2\n      add\n      swap1\n      tag_77\n      swap2\n      swap1\n      tag_78\n      jump\t// in\n    tag_77:\n      tag_79\n      jump\t// in\n    tag_76:\n      stop\n        /* \"contracts/InquireA.sol\":9636:10637  function distributeRewards(uint256 questionId) public questionExists(questionId) {... */\n    tag_12:\n      callvalue\n      dup1\n      iszero\n      tag_80\n      jumpi\n      0x00\n      dup1\n      revert\n    tag_80:\n      pop\n      tag_81\n      0x04\n      dup1\n      calldatasize\n      sub\n      dup2\n      add\n      swap1\n      tag_82\n      swap2\n      swap1\n      tag_56\n      jump\t// in\n    tag_82:\n      tag_83\n      jump\t// in\n    tag_81:\n      stop\n        /* \"contracts/InquireA.sol\":154:186  uint256 public questionIdCounter */\n    tag_13:\n      callvalue\n      dup1\n      iszero\n      tag_84\n      jumpi\n      0x00\n      dup1\n      revert\n    tag_84:\n      pop\n      tag_85\n      tag_86\n      jump\t// in\n    tag_85:\n      mload(0x40)\n      tag_87\n      swap2\n      swap1\n      tag_52\n      jump\t// in\n    tag_87:\n      mload(0x40)\n      dup1\n      swap2\n      sub\n      swap1\n      return\n        /* \"contracts/InquireA.sol\":85:105  address public owner */\n    tag_14:\n      callvalue\n      dup1\n      iszero\n      tag_88\n      jumpi\n      0x00\n      dup1\n      revert\n    tag_88:\n      pop\n      tag_89\n      tag_90\n      jump\t// in\n    tag_89:\n      mload(0x40)\n      tag_91\n      swap2\n      swap1\n      tag_92\n      jump\t// in\n    tag_91:\n      mload(0x40)\n      dup1\n      swap2\n      sub\n      swap1\n      return\n        /* \"contracts/InquireA.sol\":274:317  uint256 public constant TWO_WEEKS = 14 days */\n    tag_15:\n      callvalue\n      dup1\n      iszero\n      tag_93\n      jumpi\n      0x00\n      dup1\n      revert\n    tag_93:\n      pop\n      tag_94\n      tag_95\n      jump\t// in\n    tag_94:\n      mload(0x40)\n      tag_96\n      swap2\n      swap1\n      tag_52\n      jump\t// in\n    tag_96:\n      mload(0x40)\n      dup1\n      swap2\n      sub\n      swap1\n      return\n        /* \"contracts/InquireA.sol\":10874:10970  function balance() public view returns (uint256) {... */\n    tag_16:\n      callvalue\n      dup1\n      iszero\n      tag_97\n      jumpi\n      0x00\n      dup1\n      revert\n    tag_97:\n      pop\n      tag_98\n      tag_99\n      jump\t// in\n    tag_98:\n      mload(0x40)\n      tag_100\n      swap2\n      swap1\n      tag_52\n      jump\t// in\n    tag_100:\n      mload(0x40)\n      dup1\n      swap2\n      sub\n      swap1\n      return\n        /* \"contracts/InquireA.sol\":193:223  uint256 public answerIdCounter */\n    tag_17:\n      callvalue\n      dup1\n      iszero\n      tag_101\n      jumpi\n      0x00\n      dup1\n      revert\n    tag_101:\n      pop\n      tag_102\n      tag_103\n      jump\t// in\n    tag_102:\n      mload(0x40)\n      tag_104\n      swap2\n      swap1\n      tag_52\n      jump\t// in\n    tag_104:\n      mload(0x40)\n      dup1\n      swap2\n      sub\n      swap1\n      return\n        /* \"contracts/InquireA.sol\":324:363  uint256 public constant MONTH = 30 days */\n    tag_18:\n      callvalue\n      dup1\n      iszero\n      tag_105\n      jumpi\n      0x00\n      dup1\n      revert\n    tag_105:\n      pop\n      tag_106\n      tag_107\n      jump\t// in\n    tag_106:\n      mload(0x40)\n      tag_108\n      swap2\n      swap1\n      tag_52\n      jump\t// in\n    tag_108:\n      mload(0x40)\n      dup1\n      swap2\n      sub\n      swap1\n      return\n        /* \"contracts/InquireA.sol\":112:147  uint256 public voteFee = 0.01 ether */\n    tag_19:\n      callvalue\n      dup1\n      iszero\n      tag_109\n      jumpi\n      0x00\n      dup1\n      revert\n    tag_109:\n      pop\n      tag_110\n      tag_111\n      jump\t// in\n    tag_110:\n      mload(0x40)\n      tag_112\n      swap2\n      swap1\n      tag_52\n      jump\t// in\n    tag_112:\n      mload(0x40)\n      dup1\n      swap2\n      sub\n      swap1\n      return\n        /* \"contracts/InquireA.sol\":5750:5968  function getQuestionById(uint256 questionId) public view returns (Question memory) {... */\n    tag_20:\n      callvalue\n      dup1\n      iszero\n      tag_113\n      jumpi\n      0x00\n      dup1\n      revert\n    tag_113:\n      pop\n      tag_114\n      0x04\n      dup1\n      calldatasize\n      sub\n      dup2\n      add\n      swap1\n      tag_115\n      swap2\n      swap1\n      tag_56\n      jump\t// in\n    tag_115:\n      tag_116\n      jump\t// in\n    tag_114:\n      mload(0x40)\n      tag_117\n      swap2\n      swap1\n      tag_118\n      jump\t// in\n    tag_117:\n      mload(0x40)\n      dup1\n      swap2\n      sub\n      swap1\n      return\n        /* \"contracts/InquireA.sol\":5976:8364  function getAnswersByQuestionId(... */\n    tag_21:\n      callvalue\n      dup1\n      iszero\n      tag_119\n      jumpi\n      0x00\n      dup1\n      revert\n    tag_119:\n      pop\n      tag_120\n      0x04\n      dup1\n      calldatasize\n      sub\n      dup2\n      add\n      swap1\n      tag_121\n      swap2\n      swap1\n      tag_122\n      jump\t// in\n    tag_121:\n      tag_123\n      jump\t// in\n    tag_120:\n      mload(0x40)\n      tag_124\n      swap4\n      swap3\n      swap2\n      swap1\n      tag_125\n      jump\t// in\n    tag_124:\n      mload(0x40)\n      dup1\n      swap2\n      sub\n      swap1\n      return\n        /* \"contracts/InquireA.sol\":230:267  uint256 public constant WEEK = 7 days */\n    tag_22:\n      callvalue\n      dup1\n      iszero\n      tag_126\n      jumpi\n      0x00\n      dup1\n      revert\n    tag_126:\n      pop\n      tag_127\n      tag_128\n      jump\t// in\n    tag_127:\n      mload(0x40)\n      tag_129\n      swap2\n      swap1\n      tag_52\n      jump\t// in\n    tag_129:\n      mload(0x40)\n      dup1\n      swap2\n      sub\n      swap1\n      return\n        /* \"contracts/InquireA.sol\":4382:5738  function getQuestions(uint256 pageIndex, uint256 pageSize) ... */\n    tag_23:\n      callvalue\n      dup1\n      iszero\n      tag_130\n      jumpi\n      0x00\n      dup1\n      revert\n    tag_130:\n      pop\n      tag_131\n      0x04\n      dup1\n      calldatasize\n      sub\n      dup2\n      add\n      swap1\n      tag_132\n      swap2\n      swap1\n      tag_30\n      jump\t// in\n    tag_132:\n      tag_133\n      jump\t// in\n    tag_131:\n      mload(0x40)\n      tag_134\n      swap4\n      swap3\n      swap2\n      swap1\n      tag_135\n      jump\t// in\n    tag_134:\n      mload(0x40)\n      dup1\n      swap2\n      sub\n      swap1\n      return\n        /* \"contracts/InquireA.sol\":9188:9590  function closeQuestion(uint256 questionId, uint256 answerId) public questionExists(questionId) notClosed(questionId) {... */\n    tag_31:\n        /* \"contracts/InquireA.sol\":9271:9281  questionId */\n      dup2\n        /* \"contracts/InquireA.sol\":1986:1987  0 */\n      0x00\n        /* \"contracts/InquireA.sol\":1947:1988  questions[questionId].asker != address(0) */\n      0xffffffffffffffffffffffffffffffffffffffff\n      and\n        /* \"contracts/InquireA.sol\":1947:1956  questions */\n      0x04\n        /* \"contracts/InquireA.sol\":1947:1968  questions[questionId] */\n      0x00\n        /* \"contracts/InquireA.sol\":1957:1967  questionId */\n      dup4\n        /* \"contracts/InquireA.sol\":1947:1968  questions[questionId] */\n      dup2\n      mstore\n      0x20\n      add\n      swap1\n      dup2\n      mstore\n      0x20\n      add\n      0x00\n      keccak256\n        /* \"contracts/InquireA.sol\":1947:1974  questions[questionId].asker */\n      0x01\n      add\n      0x00\n      swap1\n      sload\n      swap1\n      0x0100\n      exp\n      swap1\n      div\n      0xffffffffffffffffffffffffffffffffffffffff\n      and\n        /* \"contracts/InquireA.sol\":1947:1988  questions[questionId].asker != address(0) */\n      0xffffffffffffffffffffffffffffffffffffffff\n      and\n      sub\n        /* \"contracts/InquireA.sol\":1939:2016  require(questions[questionId].asker != address(0), \"Question does not exist\") */\n      tag_137\n      jumpi\n      mload(0x40)\n      0x08c379a000000000000000000000000000000000000000000000000000000000\n      dup2\n      mstore\n      0x04\n      add\n      tag_138\n      swap1\n      tag_139\n      jump\t// in\n    tag_138:\n      mload(0x40)\n      dup1\n      swap2\n      sub\n      swap1\n      revert\n    tag_137:\n        /* \"contracts/InquireA.sol\":9293:9303  questionId */\n      dup3\n        /* \"contracts/InquireA.sol\":2103:2112  questions */\n      0x04\n        /* \"contracts/InquireA.sol\":2103:2124  questions[questionId] */\n      0x00\n        /* \"contracts/InquireA.sol\":2113:2123  questionId */\n      dup3\n        /* \"contracts/InquireA.sol\":2103:2124  questions[questionId] */\n      dup2\n      mstore\n      0x20\n      add\n      swap1\n      dup2\n      mstore\n      0x20\n      add\n      0x00\n      keccak256\n        /* \"contracts/InquireA.sol\":2103:2133  questions[questionId].isClosed */\n      0x08\n      add\n      0x00\n      swap1\n      sload\n      swap1\n      0x0100\n      exp\n      swap1\n      div\n      0xff\n      and\n        /* \"contracts/InquireA.sol\":2102:2133  !questions[questionId].isClosed */\n      iszero\n        /* \"contracts/InquireA.sol\":2094:2164  require(!questions[questionId].isClosed, \"Question is already closed\") */\n      tag_141\n      jumpi\n      mload(0x40)\n      0x08c379a000000000000000000000000000000000000000000000000000000000\n      dup2\n      mstore\n      0x04\n      add\n      tag_142\n      swap1\n      tag_143\n      jump\t// in\n    tag_142:\n      mload(0x40)\n      dup1\n      swap2\n      sub\n      swap1\n      revert\n    tag_141:\n        /* \"contracts/InquireA.sol\":9316:9341  Question storage question */\n      0x00\n        /* \"contracts/InquireA.sol\":9344:9353  questions */\n      0x04\n        /* \"contracts/InquireA.sol\":9344:9365  questions[questionId] */\n      0x00\n        /* \"contracts/InquireA.sol\":9354:9364  questionId */\n      dup7\n        /* \"contracts/InquireA.sol\":9344:9365  questions[questionId] */\n      dup2\n      mstore\n      0x20\n      add\n      swap1\n      dup2\n      mstore\n      0x20\n      add\n      0x00\n      keccak256\n        /* \"contracts/InquireA.sol\":9316:9365  Question storage question = questions[questionId] */\n      swap1\n      pop\n        /* \"contracts/InquireA.sol\":9398:9406  question */\n      dup1\n        /* \"contracts/InquireA.sol\":9398:9412  question.asker */\n      0x01\n      add\n      0x00\n      swap1\n      sload\n      swap1\n      0x0100\n      exp\n      swap1\n      div\n      0xffffffffffffffffffffffffffffffffffffffff\n      and\n        /* \"contracts/InquireA.sol\":9384:9412  msg.sender == question.asker */\n      0xffffffffffffffffffffffffffffffffffffffff\n      and\n        /* \"contracts/InquireA.sol\":9384:9394  msg.sender */\n      caller\n        /* \"contracts/InquireA.sol\":9384:9412  msg.sender == question.asker */\n      0xffffffffffffffffffffffffffffffffffffffff\n      and\n      eq\n        /* \"contracts/InquireA.sol\":9376:9446  require(msg.sender == question.asker, \"Only asker can close question\") */\n      tag_145\n      jumpi\n      mload(0x40)\n      0x08c379a000000000000000000000000000000000000000000000000000000000\n      dup2\n      mstore\n      0x04\n      add\n      tag_146\n      swap1\n      tag_147\n      jump\t// in\n    tag_146:\n      mload(0x40)\n      dup1\n      swap2\n      sub\n      swap1\n      revert\n    tag_145:\n        /* \"contracts/InquireA.sol\":9479:9483  true */\n      0x01\n        /* \"contracts/InquireA.sol\":9459:9467  question */\n      dup2\n        /* \"contracts/InquireA.sol\":9459:9476  question.isClosed */\n      0x08\n      add\n      0x00\n        /* \"contracts/InquireA.sol\":9459:9483  question.isClosed = true */\n      0x0100\n      exp\n      dup2\n      sload\n      dup2\n      0xff\n      mul\n      not\n      and\n      swap1\n      dup4\n      iszero\n      iszero\n      mul\n      or\n      swap1\n      sstore\n      pop\n        /* \"contracts/InquireA.sol\":9520:9528  answerId */\n      dup4\n        /* \"contracts/InquireA.sol\":9494:9502  question */\n      dup2\n        /* \"contracts/InquireA.sol\":9494:9517  question.chosenAnswerId */\n      0x09\n      add\n        /* \"contracts/InquireA.sol\":9494:9528  question.chosenAnswerId = answerId */\n      dup2\n      swap1\n      sstore\n      pop\n        /* \"contracts/InquireA.sol\":9546:9582  QuestionClosed(questionId, answerId) */\n      0x99fe2c8abd13b610e7f7d4a51a49e1391ba19454b72305176b884d66010e475a\n        /* \"contracts/InquireA.sol\":9561:9571  questionId */\n      dup6\n        /* \"contracts/InquireA.sol\":9573:9581  answerId */\n      dup6\n        /* \"contracts/InquireA.sol\":9546:9582  QuestionClosed(questionId, answerId) */\n      mload(0x40)\n      tag_148\n      swap3\n      swap2\n      swap1\n      tag_149\n      jump\t// in\n    tag_148:\n      mload(0x40)\n      dup1\n      swap2\n      sub\n      swap1\n      log1\n        /* \"contracts/InquireA.sol\":9305:9590  {... */\n      pop\n        /* \"contracts/InquireA.sol\":2027:2028  _ */\n      pop\n        /* \"contracts/InquireA.sol\":9188:9590  function closeQuestion(uint256 questionId, uint256 answerId) public questionExists(questionId) notClosed(questionId) {... */\n      pop\n      pop\n      pop\n      jump\t// out\n        /* \"contracts/InquireA.sol\":3621:4319  function submitAnswer(uint256 questionId, string memory _answerText) public questionExists(questionId) notClosed(questionId) {... */\n    tag_36:\n        /* \"contracts/InquireA.sol\":3712:3722  questionId */\n      dup2\n        /* \"contracts/InquireA.sol\":1986:1987  0 */\n      0x00\n        /* \"contracts/InquireA.sol\":1947:1988  questions[questionId].asker != address(0) */\n      0xffffffffffffffffffffffffffffffffffffffff\n      and\n        /* \"contracts/InquireA.sol\":1947:1956  questions */\n      0x04\n        /* \"contracts/InquireA.sol\":1947:1968  questions[questionId] */\n      0x00\n        /* \"contracts/InquireA.sol\":1957:1967  questionId */\n      dup4\n        /* \"contracts/InquireA.sol\":1947:1968  questions[questionId] */\n      dup2\n      mstore\n      0x20\n      add\n      swap1\n      dup2\n      mstore\n      0x20\n      add\n      0x00\n      keccak256\n        /* \"contracts/InquireA.sol\":1947:1974  questions[questionId].asker */\n      0x01\n      add\n      0x00\n      swap1\n      sload\n      swap1\n      0x0100\n      exp\n      swap1\n      div\n      0xffffffffffffffffffffffffffffffffffffffff\n      and\n        /* \"contracts/InquireA.sol\":1947:1988  questions[questionId].asker != address(0) */\n      0xffffffffffffffffffffffffffffffffffffffff\n      and\n      sub\n        /* \"contracts/InquireA.sol\":1939:2016  require(questions[questionId].asker != address(0), \"Question does not exist\") */\n      tag_151\n      jumpi\n      mload(0x40)\n      0x08c379a000000000000000000000000000000000000000000000000000000000\n      dup2\n      mstore\n      0x04\n      add\n      tag_152\n      swap1\n      tag_139\n      jump\t// in\n    tag_152:\n      mload(0x40)\n      dup1\n      swap2\n      sub\n      swap1\n      revert\n    tag_151:\n        /* \"contracts/InquireA.sol\":3734:3744  questionId */\n      dup3\n        /* \"contracts/InquireA.sol\":2103:2112  questions */\n      0x04\n        /* \"contracts/InquireA.sol\":2103:2124  questions[questionId] */\n      0x00\n        /* \"contracts/InquireA.sol\":2113:2123  questionId */\n      dup3\n        /* \"contracts/InquireA.sol\":2103:2124  questions[questionId] */\n      dup2\n      mstore\n      0x20\n      add\n      swap1\n      dup2\n      mstore\n      0x20\n      add\n      0x00\n      keccak256\n        /* \"contracts/InquireA.sol\":2103:2133  questions[questionId].isClosed */\n      0x08\n      add\n      0x00\n      swap1\n      sload\n      swap1\n      0x0100\n      exp\n      swap1\n      div\n      0xff\n      and\n        /* \"contracts/InquireA.sol\":2102:2133  !questions[questionId].isClosed */\n      iszero\n        /* \"contracts/InquireA.sol\":2094:2164  require(!questions[questionId].isClosed, \"Question is already closed\") */\n      tag_154\n      jumpi\n      mload(0x40)\n      0x08c379a000000000000000000000000000000000000000000000000000000000\n      dup2\n      mstore\n      0x04\n      add\n      tag_155\n      swap1\n      tag_143\n      jump\t// in\n    tag_155:\n      mload(0x40)\n      dup1\n      swap2\n      sub\n      swap1\n      revert\n    tag_154:\n        /* \"contracts/InquireA.sol\":3757:3781  Question memory question */\n      0x00\n        /* \"contracts/InquireA.sol\":3784:3793  questions */\n      0x04\n        /* \"contracts/InquireA.sol\":3784:3805  questions[questionId] */\n      0x00\n        /* \"contracts/InquireA.sol\":3794:3804  questionId */\n      dup7\n        /* \"contracts/InquireA.sol\":3784:3805  questions[questionId] */\n      dup2\n      mstore\n      0x20\n      add\n      swap1\n      dup2\n      mstore\n      0x20\n      add\n      0x00\n      keccak256\n        /* \"contracts/InquireA.sol\":3757:3805  Question memory question = questions[questionId] */\n      mload(0x40)\n      dup1\n      0x0140\n      add\n      0x40\n      mstore\n      swap1\n      dup2\n      0x00\n      dup3\n      add\n      sload\n      dup2\n      mstore\n      0x20\n      add\n      0x01\n      dup3\n      add\n      0x00\n      swap1\n      sload\n      swap1\n      0x0100\n      exp\n      swap1\n      div\n      0xffffffffffffffffffffffffffffffffffffffff\n      and\n      0xffffffffffffffffffffffffffffffffffffffff\n      and\n      0xffffffffffffffffffffffffffffffffffffffff\n      and\n      dup2\n      mstore\n      0x20\n      add\n      0x02\n      dup3\n      add\n      dup1\n      sload\n      tag_157\n      swap1\n      tag_158\n      jump\t// in\n    tag_157:\n      dup1\n      0x1f\n      add\n      0x20\n      dup1\n      swap2\n      div\n      mul\n      0x20\n      add\n      mload(0x40)\n      swap1\n      dup2\n      add\n      0x40\n      mstore\n      dup1\n      swap3\n      swap2\n      swap1\n      dup2\n      dup2\n      mstore\n      0x20\n      add\n      dup3\n      dup1\n      sload\n      tag_159\n      swap1\n      tag_158\n      jump\t// in\n    tag_159:\n      dup1\n      iszero\n      tag_160\n      jumpi\n      dup1\n      0x1f\n      lt\n      tag_161\n      jumpi\n      0x0100\n      dup1\n      dup4\n      sload\n      div\n      mul\n      dup4\n      mstore\n      swap2\n      0x20\n      add\n      swap2\n      jump(tag_160)\n    tag_161:\n      dup3\n      add\n      swap2\n      swap1\n      0x00\n      mstore\n      keccak256(0x00, 0x20)\n      swap1\n    tag_162:\n      dup2\n      sload\n      dup2\n      mstore\n      swap1\n      0x01\n      add\n      swap1\n      0x20\n      add\n      dup1\n      dup4\n      gt\n      tag_162\n      jumpi\n      dup3\n      swap1\n      sub\n      0x1f\n      and\n      dup3\n      add\n      swap2\n    tag_160:\n      pop\n      pop\n      pop\n      pop\n      pop\n      dup2\n      mstore\n      0x20\n      add\n      0x03\n      dup3\n      add\n      dup1\n      sload\n      tag_163\n      swap1\n      tag_158\n      jump\t// in\n    tag_163:\n      dup1\n      0x1f\n      add\n      0x20\n      dup1\n      swap2\n      div\n      mul\n      0x20\n      add\n      mload(0x40)\n      swap1\n      dup2\n      add\n      0x40\n      mstore\n      dup1\n      swap3\n      swap2\n      swap1\n      dup2\n      dup2\n      mstore\n      0x20\n      add\n      dup3\n      dup1\n      sload\n      tag_164\n      swap1\n      tag_158\n      jump\t// in\n    tag_164:\n      dup1\n      iszero\n      tag_165\n      jumpi\n      dup1\n      0x1f\n      lt\n      tag_166\n      jumpi\n      0x0100\n      dup1\n      dup4\n      sload\n      div\n      mul\n      dup4\n      mstore\n      swap2\n      0x20\n      add\n      swap2\n      jump(tag_165)\n    tag_166:\n      dup3\n      add\n      swap2\n      swap1\n      0x00\n      mstore\n      keccak256(0x00, 0x20)\n      swap1\n    tag_167:\n      dup2\n      sload\n      dup2\n      mstore\n      swap1\n      0x01\n      add\n      swap1\n      0x20\n      add\n      dup1\n      dup4\n      gt\n      tag_167\n      jumpi\n      dup3\n      swap1\n      sub\n      0x1f\n      and\n      dup3\n      add\n      swap2\n    tag_165:\n      pop\n      pop\n      pop\n      pop\n      pop\n      dup2\n      mstore\n      0x20\n      add\n      0x04\n      dup3\n      add\n      dup1\n      sload\n      tag_168\n      swap1\n      tag_158\n      jump\t// in\n    tag_168:\n      dup1\n      0x1f\n      add\n      0x20\n      dup1\n      swap2\n      div\n      mul\n      0x20\n      add\n      mload(0x40)\n      swap1\n      dup2\n      add\n      0x40\n      mstore\n      dup1\n      swap3\n      swap2\n      swap1\n      dup2\n      dup2\n      mstore\n      0x20\n      add\n      dup3\n      dup1\n      sload\n      tag_169\n      swap1\n      tag_158\n      jump\t// in\n    tag_169:\n      dup1\n      iszero\n      tag_170\n      jumpi\n      dup1\n      0x1f\n      lt\n      tag_171\n      jumpi\n      0x0100\n      dup1\n      dup4\n      sload\n      div\n      mul\n      dup4\n      mstore\n      swap2\n      0x20\n      add\n      swap2\n      jump(tag_170)\n    tag_171:\n      dup3\n      add\n      swap2\n      swap1\n      0x00\n      mstore\n      keccak256(0x00, 0x20)\n      swap1\n    tag_172:\n      dup2\n      sload\n      dup2\n      mstore\n      swap1\n      0x01\n      add\n      swap1\n      0x20\n      add\n      dup1\n      dup4\n      gt\n      tag_172\n      jumpi\n      dup3\n      swap1\n      sub\n      0x1f\n      and\n      dup3\n      add\n      swap2\n    tag_170:\n      pop\n      pop\n      pop\n      pop\n      pop\n      dup2\n      mstore\n      0x20\n      add\n      0x05\n      dup3\n      add\n      sload\n      dup2\n      mstore\n      0x20\n      add\n      0x06\n      dup3\n      add\n      sload\n      dup2\n      mstore\n      0x20\n      add\n      0x07\n      dup3\n      add\n      sload\n      dup2\n      mstore\n      0x20\n      add\n      0x08\n      dup3\n      add\n      0x00\n      swap1\n      sload\n      swap1\n      0x0100\n      exp\n      swap1\n      div\n      0xff\n      and\n      iszero\n      iszero\n      iszero\n      iszero\n      dup2\n      mstore\n      0x20\n      add\n      0x09\n      dup3\n      add\n      sload\n      dup2\n      mstore\n      pop\n      pop\n      swap1\n      pop\n        /* \"contracts/InquireA.sol\":3843:3851  question */\n      dup1\n        /* \"contracts/InquireA.sol\":3843:3860  question.deadline */\n      0xe0\n      add\n      mload\n        /* \"contracts/InquireA.sol\":3824:3839  block.timestamp */\n      timestamp\n        /* \"contracts/InquireA.sol\":3824:3860  block.timestamp <= question.deadline */\n      gt\n      iszero\n        /* \"contracts/InquireA.sol\":3816:3893  require(block.timestamp <= question.deadline, \"Question deadline has passed\") */\n      tag_173\n      jumpi\n      mload(0x40)\n      0x08c379a000000000000000000000000000000000000000000000000000000000\n      dup2\n      mstore\n      0x04\n      add\n      tag_174\n      swap1\n      tag_175\n      jump\t// in\n    tag_174:\n      mload(0x40)\n      dup1\n      swap2\n      sub\n      swap1\n      revert\n    tag_173:\n        /* \"contracts/InquireA.sol\":3906:3922  uint256 answerId */\n      0x00\n        /* \"contracts/InquireA.sol\":3925:3940  answerIdCounter */\n      0x03\n      0x00\n        /* \"contracts/InquireA.sol\":3925:3942  answerIdCounter++ */\n      dup2\n      sload\n      dup1\n      swap3\n      swap2\n      swap1\n      tag_176\n      swap1\n      tag_177\n      jump\t// in\n    tag_176:\n      swap2\n      swap1\n      pop\n      sstore\n        /* \"contracts/InquireA.sol\":3906:3942  uint256 answerId = answerIdCounter++ */\n      swap1\n      pop\n        /* \"contracts/InquireA.sol\":3985:4231  Answer({... */\n      mload(0x40)\n      dup1\n      0xc0\n      add\n      0x40\n      mstore\n      dup1\n        /* \"contracts/InquireA.sol\":4011:4019  answerId */\n      dup3\n        /* \"contracts/InquireA.sol\":3985:4231  Answer({... */\n      dup2\n      mstore\n      0x20\n      add\n        /* \"contracts/InquireA.sol\":4075:4085  msg.sender */\n      caller\n        /* \"contracts/InquireA.sol\":3985:4231  Answer({... */\n      0xffffffffffffffffffffffffffffffffffffffff\n      and\n      dup2\n      mstore\n      0x20\n      add\n        /* \"contracts/InquireA.sol\":4112:4123  _answerText */\n      dup7\n        /* \"contracts/InquireA.sol\":3985:4231  Answer({... */\n      dup2\n      mstore\n      0x20\n      add\n        /* \"contracts/InquireA.sol\":4147:4148  0 */\n      0x00\n        /* \"contracts/InquireA.sol\":3985:4231  Answer({... */\n      dup2\n      mstore\n      0x20\n      add\n        /* \"contracts/InquireA.sol\":4177:4178  0 */\n      0x00\n        /* \"contracts/InquireA.sol\":3985:4231  Answer({... */\n      dup2\n      mstore\n      0x20\n      add\n        /* \"contracts/InquireA.sol\":4204:4219  block.timestamp */\n      timestamp\n        /* \"contracts/InquireA.sol\":3985:4231  Answer({... */\n      dup2\n      mstore\n      pop\n        /* \"contracts/InquireA.sol\":3953:3960  answers */\n      0x05\n        /* \"contracts/InquireA.sol\":3953:3972  answers[questionId] */\n      0x00\n        /* \"contracts/InquireA.sol\":3961:3971  questionId */\n      dup9\n        /* \"contracts/InquireA.sol\":3953:3972  answers[questionId] */\n      dup2\n      mstore\n      0x20\n      add\n      swap1\n      dup2\n      mstore\n      0x20\n      add\n      0x00\n      keccak256\n        /* \"contracts/InquireA.sol\":3953:3982  answers[questionId][answerId] */\n      0x00\n        /* \"contracts/InquireA.sol\":3973:3981  answerId */\n      dup4\n        /* \"contracts/InquireA.sol\":3953:3982  answers[questionId][answerId] */\n      dup2\n      mstore\n      0x20\n      add\n      swap1\n      dup2\n      mstore\n      0x20\n      add\n      0x00\n      keccak256\n        /* \"contracts/InquireA.sol\":3953:4231  answers[questionId][answerId] = Answer({... */\n      0x00\n      dup3\n      add\n      mload\n      dup2\n      0x00\n      add\n      sstore\n      0x20\n      dup3\n      add\n      mload\n      dup2\n      0x01\n      add\n      exp(0x0100, 0x00)\n      dup2\n      sload\n      dup2\n      0xffffffffffffffffffffffffffffffffffffffff\n      mul\n      not\n      and\n      swap1\n      dup4\n      0xffffffffffffffffffffffffffffffffffffffff\n      and\n      mul\n      or\n      swap1\n      sstore\n      pop\n      0x40\n      dup3\n      add\n      mload\n      dup2\n      0x02\n      add\n      swap1\n      dup2\n      tag_178\n      swap2\n      swap1\n      tag_179\n      jump\t// in\n    tag_178:\n      pop\n      0x60\n      dup3\n      add\n      mload\n      dup2\n      0x03\n      add\n      sstore\n      0x80\n      dup3\n      add\n      mload\n      dup2\n      0x04\n      add\n      sstore\n      0xa0\n      dup3\n      add\n      mload\n      dup2\n      0x05\n      add\n      sstore\n      swap1\n      pop\n      pop\n        /* \"contracts/InquireA.sol\":4287:4297  msg.sender */\n      caller\n        /* \"contracts/InquireA.sol\":4249:4311  AnswerSubmitted(questionId, answerId, msg.sender, _answerText) */\n      0xffffffffffffffffffffffffffffffffffffffff\n      and\n      0x1b72a809869907cac4c4e55b8bf6920ff492d2ff53307bb77ba492366b61387c\n        /* \"contracts/InquireA.sol\":4265:4275  questionId */\n      dup8\n        /* \"contracts/InquireA.sol\":4277:4285  answerId */\n      dup4\n        /* \"contracts/InquireA.sol\":4299:4310  _answerText */\n      dup9\n        /* \"contracts/InquireA.sol\":4249:4311  AnswerSubmitted(questionId, answerId, msg.sender, _answerText) */\n      mload(0x40)\n      tag_180\n      swap4\n      swap3\n      swap2\n      swap1\n      tag_181\n      jump\t// in\n    tag_180:\n      mload(0x40)\n      dup1\n      swap2\n      sub\n      swap1\n      log2\n        /* \"contracts/InquireA.sol\":3746:4319  {... */\n      pop\n      pop\n        /* \"contracts/InquireA.sol\":2027:2028  _ */\n      pop\n        /* \"contracts/InquireA.sol\":3621:4319  function submitAnswer(uint256 questionId, string memory _answerText) public questionExists(questionId) notClosed(questionId) {... */\n      pop\n      pop\n      pop\n      jump\t// out\n        /* \"contracts/InquireA.sol\":1072:1133  mapping(uint256 => mapping(uint256 => Answer)) public answers */\n    tag_40:\n      mstore(0x20, 0x05)\n      dup2\n      0x00\n      mstore\n      mstore(0x20, keccak256(0x00, 0x40))\n      dup1\n      0x00\n      mstore\n      keccak256(0x00, 0x40)\n      0x00\n      swap2\n      pop\n      swap2\n      pop\n      pop\n      dup1\n      0x00\n      add\n      sload\n      swap1\n      dup1\n      0x01\n      add\n      0x00\n      swap1\n      sload\n      swap1\n      0x0100\n      exp\n      swap1\n      div\n      0xffffffffffffffffffffffffffffffffffffffff\n      and\n      swap1\n      dup1\n      0x02\n      add\n      dup1\n      sload\n      tag_182\n      swap1\n      tag_158\n      jump\t// in\n    tag_182:\n      dup1\n      0x1f\n      add\n      0x20\n      dup1\n      swap2\n      div\n      mul\n      0x20\n      add\n      mload(0x40)\n      swap1\n      dup2\n      add\n      0x40\n      mstore\n      dup1\n      swap3\n      swap2\n      swap1\n      dup2\n      dup2\n      mstore\n      0x20\n      add\n      dup3\n      dup1\n      sload\n      tag_183\n      swap1\n      tag_158\n      jump\t// in\n    tag_183:\n      dup1\n      iszero\n      tag_184\n      jumpi\n      dup1\n      0x1f\n      lt\n      tag_185\n      jumpi\n      0x0100\n      dup1\n      dup4\n      sload\n      div\n      mul\n      dup4\n      mstore\n      swap2\n      0x20\n      add\n      swap2\n      jump(tag_184)\n    tag_185:\n      dup3\n      add\n      swap2\n      swap1\n      0x00\n      mstore\n      keccak256(0x00, 0x20)\n      swap1\n    tag_186:\n      dup2\n      sload\n      dup2\n      mstore\n      swap1\n      0x01\n      add\n      swap1\n      0x20\n      add\n      dup1\n      dup4\n      gt\n      tag_186\n      jumpi\n      dup3\n      swap1\n      sub\n      0x1f\n      and\n      dup3\n      add\n      swap2\n    tag_184:\n      pop\n      pop\n      pop\n      pop\n      pop\n      swap1\n      dup1\n      0x03\n      add\n      sload\n      swap1\n      dup1\n      0x04\n      add\n      sload\n      swap1\n      dup1\n      0x05\n      add\n      sload\n      swap1\n      pop\n      dup7\n      jump\t// out\n        /* \"contracts/InquireA.sol\":8630:9180  function voteForAnswer(uint256 questionId, uint256 answerId) public payable questionExists(questionId) notClosed(questionId) {... */\n    tag_45:\n        /* \"contracts/InquireA.sol\":8721:8731  questionId */\n      dup2\n        /* \"contracts/InquireA.sol\":1986:1987  0 */\n      0x00\n        /* \"contracts/InquireA.sol\":1947:1988  questions[questionId].asker != address(0) */\n      0xffffffffffffffffffffffffffffffffffffffff\n      and\n        /* \"contracts/InquireA.sol\":1947:1956  questions */\n      0x04\n        /* \"contracts/InquireA.sol\":1947:1968  questions[questionId] */\n      0x00\n        /* \"contracts/InquireA.sol\":1957:1967  questionId */\n      dup4\n        /* \"contracts/InquireA.sol\":1947:1968  questions[questionId] */\n      dup2\n      mstore\n      0x20\n      add\n      swap1\n      dup2\n      mstore\n      0x20\n      add\n      0x00\n      keccak256\n        /* \"contracts/InquireA.sol\":1947:1974  questions[questionId].asker */\n      0x01\n      add\n      0x00\n      swap1\n      sload\n      swap1\n      0x0100\n      exp\n      swap1\n      div\n      0xffffffffffffffffffffffffffffffffffffffff\n      and\n        /* \"contracts/InquireA.sol\":1947:1988  questions[questionId].asker != address(0) */\n      0xffffffffffffffffffffffffffffffffffffffff\n      and\n      sub\n        /* \"contracts/InquireA.sol\":1939:2016  require(questions[questionId].asker != address(0), \"Question does not exist\") */\n      tag_188\n      jumpi\n      mload(0x40)\n      0x08c379a000000000000000000000000000000000000000000000000000000000\n      dup2\n      mstore\n      0x04\n      add\n      tag_189\n      swap1\n      tag_139\n      jump\t// in\n    tag_189:\n      mload(0x40)\n      dup1\n      swap2\n      sub\n      swap1\n      revert\n    tag_188:\n        /* \"contracts/InquireA.sol\":8743:8753  questionId */\n      dup3\n        /* \"contracts/InquireA.sol\":2103:2112  questions */\n      0x04\n        /* \"contracts/InquireA.sol\":2103:2124  questions[questionId] */\n      0x00\n        /* \"contracts/InquireA.sol\":2113:2123  questionId */\n      dup3\n        /* \"contracts/InquireA.sol\":2103:2124  questions[questionId] */\n      dup2\n      mstore\n      0x20\n      add\n      swap1\n      dup2\n      mstore\n      0x20\n      add\n      0x00\n      keccak256\n        /* \"contracts/InquireA.sol\":2103:2133  questions[questionId].isClosed */\n      0x08\n      add\n      0x00\n      swap1\n      sload\n      swap1\n      0x0100\n      exp\n      swap1\n      div\n      0xff\n      and\n        /* \"contracts/InquireA.sol\":2102:2133  !questions[questionId].isClosed */\n      iszero\n        /* \"contracts/InquireA.sol\":2094:2164  require(!questions[questionId].isClosed, \"Question is already closed\") */\n      tag_191\n      jumpi\n      mload(0x40)\n      0x08c379a000000000000000000000000000000000000000000000000000000000\n      dup2\n      mstore\n      0x04\n      add\n      tag_192\n      swap1\n      tag_143\n      jump\t// in\n    tag_192:\n      mload(0x40)\n      dup1\n      swap2\n      sub\n      swap1\n      revert\n    tag_191:\n        /* \"contracts/InquireA.sol\":8766:8790  Question memory question */\n      0x00\n        /* \"contracts/InquireA.sol\":8793:8802  questions */\n      0x04\n        /* \"contracts/InquireA.sol\":8793:8814  questions[questionId] */\n      0x00\n        /* \"contracts/InquireA.sol\":8803:8813  questionId */\n      dup7\n        /* \"contracts/InquireA.sol\":8793:8814  questions[questionId] */\n      dup2\n      mstore\n      0x20\n      add\n      swap1\n      dup2\n      mstore\n      0x20\n      add\n      0x00\n      keccak256\n        /* \"contracts/InquireA.sol\":8766:8814  Question memory question = questions[questionId] */\n      mload(0x40)\n      dup1\n      0x0140\n      add\n      0x40\n      mstore\n      swap1\n      dup2\n      0x00\n      dup3\n      add\n      sload\n      dup2\n      mstore\n      0x20\n      add\n      0x01\n      dup3\n      add\n      0x00\n      swap1\n      sload\n      swap1\n      0x0100\n      exp\n      swap1\n      div\n      0xffffffffffffffffffffffffffffffffffffffff\n      and\n      0xffffffffffffffffffffffffffffffffffffffff\n      and\n      0xffffffffffffffffffffffffffffffffffffffff\n      and\n      dup2\n      mstore\n      0x20\n      add\n      0x02\n      dup3\n      add\n      dup1\n      sload\n      tag_194\n      swap1\n      tag_158\n      jump\t// in\n    tag_194:\n      dup1\n      0x1f\n      add\n      0x20\n      dup1\n      swap2\n      div\n      mul\n      0x20\n      add\n      mload(0x40)\n      swap1\n      dup2\n      add\n      0x40\n      mstore\n      dup1\n      swap3\n      swap2\n      swap1\n      dup2\n      dup2\n      mstore\n      0x20\n      add\n      dup3\n      dup1\n      sload\n      tag_195\n      swap1\n      tag_158\n      jump\t// in\n    tag_195:\n      dup1\n      iszero\n      tag_196\n      jumpi\n      dup1\n      0x1f\n      lt\n      tag_197\n      jumpi\n      0x0100\n      dup1\n      dup4\n      sload\n      div\n      mul\n      dup4\n      mstore\n      swap2\n      0x20\n      add\n      swap2\n      jump(tag_196)\n    tag_197:\n      dup3\n      add\n      swap2\n      swap1\n      0x00\n      mstore\n      keccak256(0x00, 0x20)\n      swap1\n    tag_198:\n      dup2\n      sload\n      dup2\n      mstore\n      swap1\n      0x01\n      add\n      swap1\n      0x20\n      add\n      dup1\n      dup4\n      gt\n      tag_198\n      jumpi\n      dup3\n      swap1\n      sub\n      0x1f\n      and\n      dup3\n      add\n      swap2\n    tag_196:\n      pop\n      pop\n      pop\n      pop\n      pop\n      dup2\n      mstore\n      0x20\n      add\n      0x03\n      dup3\n      add\n      dup1\n      sload\n      tag_199\n      swap1\n      tag_158\n      jump\t// in\n    tag_199:\n      dup1\n      0x1f\n      add\n      0x20\n      dup1\n      swap2\n      div\n      mul\n      0x20\n      add\n      mload(0x40)\n      swap1\n      dup2\n      add\n      0x40\n      mstore\n      dup1\n      swap3\n      swap2\n      swap1\n      dup2\n      dup2\n      mstore\n      0x20\n      add\n      dup3\n      dup1\n      sload\n      tag_200\n      swap1\n      tag_158\n      jump\t// in\n    tag_200:\n      dup1\n      iszero\n      tag_201\n      jumpi\n      dup1\n      0x1f\n      lt\n      tag_202\n      jumpi\n      0x0100\n      dup1\n      dup4\n      sload\n      div\n      mul\n      dup4\n      mstore\n      swap2\n      0x20\n      add\n      swap2\n      jump(tag_201)\n    tag_202:\n      dup3\n      add\n      swap2\n      swap1\n      0x00\n      mstore\n      keccak256(0x00, 0x20)\n      swap1\n    tag_203:\n      dup2\n      sload\n      dup2\n      mstore\n      swap1\n      0x01\n      add\n      swap1\n      0x20\n      add\n      dup1\n      dup4\n      gt\n      tag_203\n      jumpi\n      dup3\n      swap1\n      sub\n      0x1f\n      and\n      dup3\n      add\n      swap2\n    tag_201:\n      pop\n      pop\n      pop\n      pop\n      pop\n      dup2\n      mstore\n      0x20\n      add\n      0x04\n      dup3\n      add\n      dup1\n      sload\n      tag_204\n      swap1\n      tag_158\n      jump\t// in\n    tag_204:\n      dup1\n      0x1f\n      add\n      0x20\n      dup1\n      swap2\n      div\n      mul\n      0x20\n      add\n      mload(0x40)\n      swap1\n      dup2\n      add\n      0x40\n      mstore\n      dup1\n      swap3\n      swap2\n      swap1\n      dup2\n      dup2\n      mstore\n      0x20\n      add\n      dup3\n      dup1\n      sload\n      tag_205\n      swap1\n      tag_158\n      jump\t// in\n    tag_205:\n      dup1\n      iszero\n      tag_206\n      jumpi\n      dup1\n      0x1f\n      lt\n      tag_207\n      jumpi\n      0x0100\n      dup1\n      dup4\n      sload\n      div\n      mul\n      dup4\n      mstore\n      swap2\n      0x20\n      add\n      swap2\n      jump(tag_206)\n    tag_207:\n      dup3\n      add\n      swap2\n      swap1\n      0x00\n      mstore\n      keccak256(0x00, 0x20)\n      swap1\n    tag_208:\n      dup2\n      sload\n      dup2\n      mstore\n      swap1\n      0x01\n      add\n      swap1\n      0x20\n      add\n      dup1\n      dup4\n      gt\n      tag_208\n      jumpi\n      dup3\n      swap1\n      sub\n      0x1f\n      and\n      dup3\n      add\n      swap2\n    tag_206:\n      pop\n      pop\n      pop\n      pop\n      pop\n      dup2\n      mstore\n      0x20\n      add\n      0x05\n      dup3\n      add\n      sload\n      dup2\n      mstore\n      0x20\n      add\n      0x06\n      dup3\n      add\n      sload\n      dup2\n      mstore\n      0x20\n      add\n      0x07\n      dup3\n      add\n      sload\n      dup2\n      mstore\n      0x20\n      add\n      0x08\n      dup3\n      add\n      0x00\n      swap1\n      sload\n      swap1\n      0x0100\n      exp\n      swap1\n      div\n      0xff\n      and\n      iszero\n      iszero\n      iszero\n      iszero\n      dup2\n      mstore\n      0x20\n      add\n      0x09\n      dup3\n      add\n      sload\n      dup2\n      mstore\n      pop\n      pop\n      swap1\n      pop\n        /* \"contracts/InquireA.sol\":8852:8860  question */\n      dup1\n        /* \"contracts/InquireA.sol\":8852:8869  question.deadline */\n      0xe0\n      add\n      mload\n        /* \"contracts/InquireA.sol\":8833:8848  block.timestamp */\n      timestamp\n        /* \"contracts/InquireA.sol\":8833:8869  block.timestamp <= question.deadline */\n      gt\n      iszero\n        /* \"contracts/InquireA.sol\":8825:8897  require(block.timestamp <= question.deadline, \"Voting period has ended\") */\n      tag_209\n      jumpi\n      mload(0x40)\n      0x08c379a000000000000000000000000000000000000000000000000000000000\n      dup2\n      mstore\n      0x04\n      add\n      tag_210\n      swap1\n      tag_211\n      jump\t// in\n    tag_210:\n      mload(0x40)\n      dup1\n      swap2\n      sub\n      swap1\n      revert\n    tag_209:\n        /* \"contracts/InquireA.sol\":8931:8938  voteFee */\n      sload(0x01)\n        /* \"contracts/InquireA.sol\":8918:8927  msg.value */\n      callvalue\n        /* \"contracts/InquireA.sol\":8918:8938  msg.value == voteFee */\n      eq\n        /* \"contracts/InquireA.sol\":8910:8961  require(msg.value == voteFee, \"Incorrect vote fee\") */\n      tag_212\n      jumpi\n      mload(0x40)\n      0x08c379a000000000000000000000000000000000000000000000000000000000\n      dup2\n      mstore\n      0x04\n      add\n      tag_213\n      swap1\n      tag_214\n      jump\t// in\n    tag_213:\n      mload(0x40)\n      dup1\n      swap2\n      sub\n      swap1\n      revert\n    tag_212:\n        /* \"contracts/InquireA.sol\":8974:8995  Answer storage answer */\n      0x00\n        /* \"contracts/InquireA.sol\":8998:9005  answers */\n      0x05\n        /* \"contracts/InquireA.sol\":8998:9017  answers[questionId] */\n      0x00\n        /* \"contracts/InquireA.sol\":9006:9016  questionId */\n      dup8\n        /* \"contracts/InquireA.sol\":8998:9017  answers[questionId] */\n      dup2\n      mstore\n      0x20\n      add\n      swap1\n      dup2\n      mstore\n      0x20\n      add\n      0x00\n      keccak256\n        /* \"contracts/InquireA.sol\":8998:9027  answers[questionId][answerId] */\n      0x00\n        /* \"contracts/InquireA.sol\":9018:9026  answerId */\n      dup7\n        /* \"contracts/InquireA.sol\":8998:9027  answers[questionId][answerId] */\n      dup2\n      mstore\n      0x20\n      add\n      swap1\n      dup2\n      mstore\n      0x20\n      add\n      0x00\n      keccak256\n        /* \"contracts/InquireA.sol\":8974:9027  Answer storage answer = answers[questionId][answerId] */\n      swap1\n      pop\n        /* \"contracts/InquireA.sol\":9056:9057  1 */\n      0x01\n        /* \"contracts/InquireA.sol\":9038:9044  answer */\n      dup2\n        /* \"contracts/InquireA.sol\":9038:9052  answer.upvotes */\n      0x03\n      add\n      0x00\n        /* \"contracts/InquireA.sol\":9038:9057  answer.upvotes += 1 */\n      dup3\n      dup3\n      sload\n      tag_215\n      swap2\n      swap1\n      tag_216\n      jump\t// in\n    tag_215:\n      swap3\n      pop\n      pop\n      dup2\n      swap1\n      sstore\n      pop\n        /* \"contracts/InquireA.sol\":9106:9115  msg.value */\n      callvalue\n        /* \"contracts/InquireA.sol\":9068:9077  questions */\n      0x04\n        /* \"contracts/InquireA.sol\":9068:9089  questions[questionId] */\n      0x00\n        /* \"contracts/InquireA.sol\":9078:9088  questionId */\n      dup9\n        /* \"contracts/InquireA.sol\":9068:9089  questions[questionId] */\n      dup2\n      mstore\n      0x20\n      add\n      swap1\n      dup2\n      mstore\n      0x20\n      add\n      0x00\n      keccak256\n        /* \"contracts/InquireA.sol\":9068:9102  questions[questionId].rewardAmount */\n      0x05\n      add\n      0x00\n        /* \"contracts/InquireA.sol\":9068:9115  questions[questionId].rewardAmount += msg.value */\n      dup3\n      dup3\n      sload\n      tag_217\n      swap2\n      swap1\n      tag_216\n      jump\t// in\n    tag_217:\n      swap3\n      pop\n      pop\n      dup2\n      swap1\n      sstore\n      pop\n        /* \"contracts/InquireA.sol\":9161:9171  msg.sender */\n      caller\n        /* \"contracts/InquireA.sol\":9133:9172  Voted(questionId, answerId, msg.sender) */\n      0xffffffffffffffffffffffffffffffffffffffff\n      and\n      0xd91ecafccf238642dccd41161308b3eebe62a12bc5819daf5164780c221ec95b\n        /* \"contracts/InquireA.sol\":9139:9149  questionId */\n      dup8\n        /* \"contracts/InquireA.sol\":9151:9159  answerId */\n      dup8\n        /* \"contracts/InquireA.sol\":9133:9172  Voted(questionId, answerId, msg.sender) */\n      mload(0x40)\n      tag_218\n      swap3\n      swap2\n      swap1\n      tag_149\n      jump\t// in\n    tag_218:\n      mload(0x40)\n      dup1\n      swap2\n      sub\n      swap1\n      log2\n        /* \"contracts/InquireA.sol\":8755:9180  {... */\n      pop\n      pop\n        /* \"contracts/InquireA.sol\":2027:2028  _ */\n      pop\n        /* \"contracts/InquireA.sol\":8630:9180  function voteForAnswer(uint256 questionId, uint256 answerId) public payable questionExists(questionId) notClosed(questionId) {... */\n      pop\n      pop\n      pop\n      jump\t// out\n        /* \"contracts/InquireA.sol\":1140:1183  mapping(address => uint256) public balances */\n    tag_50:\n      mstore(0x20, 0x06)\n      dup1\n      0x00\n      mstore\n      keccak256(0x00, 0x40)\n      0x00\n      swap2\n      pop\n      swap1\n      pop\n      sload\n      dup2\n      jump\t// out\n        /* \"contracts/InquireA.sol\":1020:1065  mapping(uint256 => Question) public questions */\n    tag_57:\n      mstore(0x20, 0x04)\n      dup1\n      0x00\n      mstore\n      keccak256(0x00, 0x40)\n      0x00\n      swap2\n      pop\n      swap1\n      pop\n      dup1\n      0x00\n      add\n      sload\n      swap1\n      dup1\n      0x01\n      add\n      0x00\n      swap1\n      sload\n      swap1\n      0x0100\n      exp\n      swap1\n      div\n      0xffffffffffffffffffffffffffffffffffffffff\n      and\n      swap1\n      dup1\n      0x02\n      add\n      dup1\n      sload\n      tag_219\n      swap1\n      tag_158\n      jump\t// in\n    tag_219:\n      dup1\n      0x1f\n      add\n      0x20\n      dup1\n      swap2\n      div\n      mul\n      0x20\n      add\n      mload(0x40)\n      swap1\n      dup2\n      add\n      0x40\n      mstore\n      dup1\n      swap3\n      swap2\n      swap1\n      dup2\n      dup2\n      mstore\n      0x20\n      add\n      dup3\n      dup1\n      sload\n      tag_220\n      swap1\n      tag_158\n      jump\t// in\n    tag_220:\n      dup1\n      iszero\n      tag_221\n      jumpi\n      dup1\n      0x1f\n      lt\n      tag_222\n      jumpi\n      0x0100\n      dup1\n      dup4\n      sload\n      div\n      mul\n      dup4\n      mstore\n      swap2\n      0x20\n      add\n      swap2\n      jump(tag_221)\n    tag_222:\n      dup3\n      add\n      swap2\n      swap1\n      0x00\n      mstore\n      keccak256(0x00, 0x20)\n      swap1\n    tag_223:\n      dup2\n      sload\n      dup2\n      mstore\n      swap1\n      0x01\n      add\n      swap1\n      0x20\n      add\n      dup1\n      dup4\n      gt\n      tag_223\n      jumpi\n      dup3\n      swap1\n      sub\n      0x1f\n      and\n      dup3\n      add\n      swap2\n    tag_221:\n      pop\n      pop\n      pop\n      pop\n      pop\n      swap1\n      dup1\n      0x03\n      add\n      dup1\n      sload\n      tag_224\n      swap1\n      tag_158\n      jump\t// in\n    tag_224:\n      dup1\n      0x1f\n      add\n      0x20\n      dup1\n      swap2\n      div\n      mul\n      0x20\n      add\n      mload(0x40)\n      swap1\n      dup2\n      add\n      0x40\n      mstore\n      dup1\n      swap3\n      swap2\n      swap1\n      dup2\n      dup2\n      mstore\n      0x20\n      add\n      dup3\n      dup1\n      sload\n      tag_225\n      swap1\n      tag_158\n      jump\t// in\n    tag_225:\n      dup1\n      iszero\n      tag_226\n      jumpi\n      dup1\n      0x1f\n      lt\n      tag_227\n      jumpi\n      0x0100\n      dup1\n      dup4\n      sload\n      div\n      mul\n      dup4\n      mstore\n      swap2\n      0x20\n      add\n      swap2\n      jump(tag_226)\n    tag_227:\n      dup3\n      add\n      swap2\n      swap1\n      0x00\n      mstore\n      keccak256(0x00, 0x20)\n      swap1\n    tag_228:\n      dup2\n      sload\n      dup2\n      mstore\n      swap1\n      0x01\n      add\n      swap1\n      0x20\n      add\n      dup1\n      dup4\n      gt\n      tag_228\n      jumpi\n      dup3\n      swap1\n      sub\n      0x1f\n      and\n      dup3\n      add\n      swap2\n    tag_226:\n      pop\n      pop\n      pop\n      pop\n      pop\n      swap1\n      dup1\n      0x04\n      add\n      dup1\n      sload\n      tag_229\n      swap1\n      tag_158\n      jump\t// in\n    tag_229:\n      dup1\n      0x1f\n      add\n      0x20\n      dup1\n      swap2\n      div\n      mul\n      0x20\n      add\n      mload(0x40)\n      swap1\n      dup2\n      add\n      0x40\n      mstore\n      dup1\n      swap3\n      swap2\n      swap1\n      dup2\n      dup2\n      mstore\n      0x20\n      add\n      dup3\n      dup1\n      sload\n      tag_230\n      swap1\n      tag_158\n      jump\t// in\n    tag_230:\n      dup1\n      iszero\n      tag_231\n      jumpi\n      dup1\n      0x1f\n      lt\n      tag_232\n      jumpi\n      0x0100\n      dup1\n      dup4\n      sload\n      div\n      mul\n      dup4\n      mstore\n      swap2\n      0x20\n      add\n      swap2\n      jump(tag_231)\n    tag_232:\n      dup3\n      add\n      swap2\n      swap1\n      0x00\n      mstore\n      keccak256(0x00, 0x20)\n      swap1\n    tag_233:\n      dup2\n      sload\n      dup2\n      mstore\n      swap1\n      0x01\n      add\n      swap1\n      0x20\n      add\n      dup1\n      dup4\n      gt\n      tag_233\n      jumpi\n      dup3\n      swap1\n      sub\n      0x1f\n      and\n      dup3\n      add\n      swap2\n    tag_231:\n      pop\n      pop\n      pop\n      pop\n      pop\n      swap1\n      dup1\n      0x05\n      add\n      sload\n      swap1\n      dup1\n      0x06\n      add\n      sload\n      swap1\n      dup1\n      0x07\n      add\n      sload\n      swap1\n      dup1\n      0x08\n      add\n      0x00\n      swap1\n      sload\n      swap1\n      0x0100\n      exp\n      swap1\n      div\n      0xff\n      and\n      swap1\n      dup1\n      0x09\n      add\n      sload\n      swap1\n      pop\n      dup11\n      jump\t// out\n        /* \"contracts/InquireA.sol\":10645:10866  function withdraw() public {... */\n    tag_62:\n        /* \"contracts/InquireA.sol\":10683:10697  uint256 amount */\n      0x00\n        /* \"contracts/InquireA.sol\":10700:10708  balances */\n      0x06\n        /* \"contracts/InquireA.sol\":10700:10720  balances[msg.sender] */\n      0x00\n        /* \"contracts/InquireA.sol\":10709:10719  msg.sender */\n      caller\n        /* \"contracts/InquireA.sol\":10700:10720  balances[msg.sender] */\n      0xffffffffffffffffffffffffffffffffffffffff\n      and\n      0xffffffffffffffffffffffffffffffffffffffff\n      and\n      dup2\n      mstore\n      0x20\n      add\n      swap1\n      dup2\n      mstore\n      0x20\n      add\n      0x00\n      keccak256\n      sload\n        /* \"contracts/InquireA.sol\":10683:10720  uint256 amount = balances[msg.sender] */\n      swap1\n      pop\n        /* \"contracts/InquireA.sol\":10748:10749  0 */\n      0x00\n        /* \"contracts/InquireA.sol\":10739:10745  amount */\n      dup2\n        /* \"contracts/InquireA.sol\":10739:10749  amount > 0 */\n      gt\n        /* \"contracts/InquireA.sol\":10731:10774  require(amount > 0, \"No funds to withdraw\") */\n      tag_235\n      jumpi\n      mload(0x40)\n      0x08c379a000000000000000000000000000000000000000000000000000000000\n      dup2\n      mstore\n      0x04\n      add\n      tag_236\n      swap1\n      tag_237\n      jump\t// in\n    tag_236:\n      mload(0x40)\n      dup1\n      swap2\n      sub\n      swap1\n      revert\n    tag_235:\n        /* \"contracts/InquireA.sol\":10810:10811  0 */\n      0x00\n        /* \"contracts/InquireA.sol\":10787:10795  balances */\n      0x06\n        /* \"contracts/InquireA.sol\":10787:10807  balances[msg.sender] */\n      0x00\n        /* \"contracts/InquireA.sol\":10796:10806  msg.sender */\n      caller\n        /* \"contracts/InquireA.sol\":10787:10807  balances[msg.sender] */\n      0xffffffffffffffffffffffffffffffffffffffff\n      and\n      0xffffffffffffffffffffffffffffffffffffffff\n      and\n      dup2\n      mstore\n      0x20\n      add\n      swap1\n      dup2\n      mstore\n      0x20\n      add\n      0x00\n      keccak256\n        /* \"contracts/InquireA.sol\":10787:10811  balances[msg.sender] = 0 */\n      dup2\n      swap1\n      sstore\n      pop\n        /* \"contracts/InquireA.sol\":10830:10840  msg.sender */\n      caller\n        /* \"contracts/InquireA.sol\":10822:10850  payable(msg.sender).transfer */\n      0xffffffffffffffffffffffffffffffffffffffff\n      and\n        /* \"contracts/InquireA.sol\":10822:10858  payable(msg.sender).transfer(amount) */\n      0x08fc\n        /* \"contracts/InquireA.sol\":10851:10857  amount */\n      dup3\n        /* \"contracts/InquireA.sol\":10822:10858  payable(msg.sender).transfer(amount) */\n      swap1\n      dup2\n      iszero\n      mul\n      swap1\n      mload(0x40)\n      0x00\n      mload(0x40)\n      dup1\n      dup4\n      sub\n      dup2\n      dup6\n      dup9\n      dup9\n      call\n      swap4\n      pop\n      pop\n      pop\n      pop\n      iszero\n      dup1\n      iszero\n      tag_239\n      jumpi\n      returndatasize\n      0x00\n      dup1\n      returndatacopy\n      revert(0x00, returndatasize)\n    tag_239:\n      pop\n        /* \"contracts/InquireA.sol\":10672:10866  {... */\n      pop\n        /* \"contracts/InquireA.sol\":10645:10866  function withdraw() public {... */\n      jump\t// out\n        /* \"contracts/InquireA.sol\":8372:8622  function getAnswerById(uint256 questionId, uint256 answerId) public view returns (Answer memory) {... */\n    tag_66:\n        /* \"contracts/InquireA.sol\":8454:8467  Answer memory */\n      tag_240\n      tag_241\n      jump\t// in\n    tag_240:\n        /* \"contracts/InquireA.sol\":8539:8540  0 */\n      0x00\n        /* \"contracts/InquireA.sol\":8488:8541  answers[questionId][answerId].responder != address(0) */\n      0xffffffffffffffffffffffffffffffffffffffff\n      and\n        /* \"contracts/InquireA.sol\":8488:8495  answers */\n      0x05\n        /* \"contracts/InquireA.sol\":8488:8507  answers[questionId] */\n      0x00\n        /* \"contracts/InquireA.sol\":8496:8506  questionId */\n      dup6\n        /* \"contracts/InquireA.sol\":8488:8507  answers[questionId] */\n      dup2\n      mstore\n      0x20\n      add\n      swap1\n      dup2\n      mstore\n      0x20\n      add\n      0x00\n      keccak256\n        /* \"contracts/InquireA.sol\":8488:8517  answers[questionId][answerId] */\n      0x00\n        /* \"contracts/InquireA.sol\":8508:8516  answerId */\n      dup5\n        /* \"contracts/InquireA.sol\":8488:8517  answers[questionId][answerId] */\n      dup2\n      mstore\n      0x20\n      add\n      swap1\n      dup2\n      mstore\n      0x20\n      add\n      0x00\n      keccak256\n        /* \"contracts/InquireA.sol\":8488:8527  answers[questionId][answerId].responder */\n      0x01\n      add\n      0x00\n      swap1\n      sload\n      swap1\n      0x0100\n      exp\n      swap1\n      div\n      0xffffffffffffffffffffffffffffffffffffffff\n      and\n        /* \"contracts/InquireA.sol\":8488:8541  answers[questionId][answerId].responder != address(0) */\n      0xffffffffffffffffffffffffffffffffffffffff\n      and\n      sub\n        /* \"contracts/InquireA.sol\":8480:8567  require(answers[questionId][answerId].responder != address(0), \"Answer does not exist\") */\n      tag_243\n      jumpi\n      mload(0x40)\n      0x08c379a000000000000000000000000000000000000000000000000000000000\n      dup2\n      mstore\n      0x04\n      add\n      tag_244\n      swap1\n      tag_245\n      jump\t// in\n    tag_244:\n      mload(0x40)\n      dup1\n      swap2\n      sub\n      swap1\n      revert\n    tag_243:\n        /* \"contracts/InquireA.sol\":8585:8592  answers */\n      0x05\n        /* \"contracts/InquireA.sol\":8585:8604  answers[questionId] */\n      0x00\n        /* \"contracts/InquireA.sol\":8593:8603  questionId */\n      dup5\n        /* \"contracts/InquireA.sol\":8585:8604  answers[questionId] */\n      dup2\n      mstore\n      0x20\n      add\n      swap1\n      dup2\n      mstore\n      0x20\n      add\n      0x00\n      keccak256\n        /* \"contracts/InquireA.sol\":8585:8614  answers[questionId][answerId] */\n      0x00\n        /* \"contracts/InquireA.sol\":8605:8613  answerId */\n      dup4\n        /* \"contracts/InquireA.sol\":8585:8614  answers[questionId][answerId] */\n      dup2\n      mstore\n      0x20\n      add\n      swap1\n      dup2\n      mstore\n      0x20\n      add\n      0x00\n      keccak256\n        /* \"contracts/InquireA.sol\":8578:8614  return answers[questionId][answerId] */\n      mload(0x40)\n      dup1\n      0xc0\n      add\n      0x40\n      mstore\n      swap1\n      dup2\n      0x00\n      dup3\n      add\n      sload\n      dup2\n      mstore\n      0x20\n      add\n      0x01\n      dup3\n      add\n      0x00\n      swap1\n      sload\n      swap1\n      0x0100\n      exp\n      swap1\n      div\n      0xffffffffffffffffffffffffffffffffffffffff\n      and\n      0xffffffffffffffffffffffffffffffffffffffff\n      and\n      0xffffffffffffffffffffffffffffffffffffffff\n      and\n      dup2\n      mstore\n      0x20\n      add\n      0x02\n      dup3\n      add\n      dup1\n      sload\n      tag_246\n      swap1\n      tag_158\n      jump\t// in\n    tag_246:\n      dup1\n      0x1f\n      add\n      0x20\n      dup1\n      swap2\n      div\n      mul\n      0x20\n      add\n      mload(0x40)\n      swap1\n      dup2\n      add\n      0x40\n      mstore\n      dup1\n      swap3\n      swap2\n      swap1\n      dup2\n      dup2\n      mstore\n      0x20\n      add\n      dup3\n      dup1\n      sload\n      tag_247\n      swap1\n      tag_158\n      jump\t// in\n    tag_247:\n      dup1\n      iszero\n      tag_248\n      jumpi\n      dup1\n      0x1f\n      lt\n      tag_249\n      jumpi\n      0x0100\n      dup1\n      dup4\n      sload\n      div\n      mul\n      dup4\n      mstore\n      swap2\n      0x20\n      add\n      swap2\n      jump(tag_248)\n    tag_249:\n      dup3\n      add\n      swap2\n      swap1\n      0x00\n      mstore\n      keccak256(0x00, 0x20)\n      swap1\n    tag_250:\n      dup2\n      sload\n      dup2\n      mstore\n      swap1\n      0x01\n      add\n      swap1\n      0x20\n      add\n      dup1\n      dup4\n      gt\n      tag_250\n      jumpi\n      dup3\n      swap1\n      sub\n      0x1f\n      and\n      dup3\n      add\n      swap2\n    tag_248:\n      pop\n      pop\n      pop\n      pop\n      pop\n      dup2\n      mstore\n      0x20\n      add\n      0x03\n      dup3\n      add\n      sload\n      dup2\n      mstore\n      0x20\n      add\n      0x04\n      dup3\n      add\n      sload\n      dup2\n      mstore\n      0x20\n      add\n      0x05\n      dup3\n      add\n      sload\n      dup2\n      mstore\n      pop\n      pop\n      swap1\n      pop\n        /* \"contracts/InquireA.sol\":8372:8622  function getAnswerById(uint256 questionId, uint256 answerId) public view returns (Answer memory) {... */\n      swap3\n      swap2\n      pop\n      pop\n      jump\t// out\n        /* \"contracts/InquireA.sol\":11022:11698  function getQuestionsByCategory(string memory _category) public view returns (uint256[] memory) {... */\n    tag_73:\n        /* \"contracts/InquireA.sol\":11100:11116  uint256[] memory */\n      0x60\n        /* \"contracts/InquireA.sol\":11129:11162  uint256[] memory matchedQuestions */\n      0x00\n        /* \"contracts/InquireA.sol\":11179:11196  questionIdCounter */\n      sload(0x02)\n        /* \"contracts/InquireA.sol\":11165:11197  new uint256[](questionIdCounter) */\n      0xffffffffffffffff\n      dup2\n      gt\n      iszero\n      tag_252\n      jumpi\n      tag_253\n      tag_254\n      jump\t// in\n    tag_253:\n    tag_252:\n      mload(0x40)\n      swap1\n      dup1\n      dup3\n      mstore\n      dup1\n      0x20\n      mul\n      0x20\n      add\n      dup3\n      add\n      0x40\n      mstore\n      dup1\n      iszero\n      tag_255\n      jumpi\n      dup2\n      0x20\n      add\n      0x20\n      dup3\n      mul\n      dup1\n      calldatasize\n      dup4\n      calldatacopy\n      dup1\n      dup3\n      add\n      swap2\n      pop\n      pop\n      swap1\n      pop\n    tag_255:\n      pop\n        /* \"contracts/InquireA.sol\":11129:11197  uint256[] memory matchedQuestions = new uint256[](questionIdCounter) */\n      swap1\n      pop\n        /* \"contracts/InquireA.sol\":11208:11221  uint256 count */\n      0x00\n        /* \"contracts/InquireA.sol\":11243:11252  uint256 i */\n      dup1\n        /* \"contracts/InquireA.sol\":11255:11256  1 */\n      0x01\n        /* \"contracts/InquireA.sol\":11243:11256  uint256 i = 1 */\n      swap1\n      pop\n        /* \"contracts/InquireA.sol\":11238:11476  for (uint256 i = 1; i < questionIdCounter; i++) {... */\n    tag_256:\n        /* \"contracts/InquireA.sol\":11262:11279  questionIdCounter */\n      sload(0x02)\n        /* \"contracts/InquireA.sol\":11258:11259  i */\n      dup2\n        /* \"contracts/InquireA.sol\":11258:11279  i < questionIdCounter */\n      lt\n        /* \"contracts/InquireA.sol\":11238:11476  for (uint256 i = 1; i < questionIdCounter; i++) {... */\n      iszero\n      tag_257\n      jumpi\n        /* \"contracts/InquireA.sol\":11364:11373  _category */\n      dup5\n        /* \"contracts/InquireA.sol\":11348:11375  keccak256(bytes(_category)) */\n      dup1\n      mload\n      swap1\n      0x20\n      add\n      keccak256\n        /* \"contracts/InquireA.sol\":11321:11330  questions */\n      0x04\n        /* \"contracts/InquireA.sol\":11321:11333  questions[i] */\n      0x00\n        /* \"contracts/InquireA.sol\":11331:11332  i */\n      dup4\n        /* \"contracts/InquireA.sol\":11321:11333  questions[i] */\n      dup2\n      mstore\n      0x20\n      add\n      swap1\n      dup2\n      mstore\n      0x20\n      add\n      0x00\n      keccak256\n        /* \"contracts/InquireA.sol\":11321:11342  questions[i].category */\n      0x04\n      add\n        /* \"contracts/InquireA.sol\":11305:11344  keccak256(bytes(questions[i].category)) */\n      mload(0x40)\n      tag_259\n      swap2\n      swap1\n      tag_260\n      jump\t// in\n    tag_259:\n      mload(0x40)\n      dup1\n      swap2\n      sub\n      swap1\n      keccak256\n        /* \"contracts/InquireA.sol\":11305:11375  keccak256(bytes(questions[i].category)) == keccak256(bytes(_category)) */\n      sub\n        /* \"contracts/InquireA.sol\":11301:11465  if (keccak256(bytes(questions[i].category)) == keccak256(bytes(_category))) {... */\n      tag_261\n      jumpi\n        /* \"contracts/InquireA.sol\":11422:11423  i */\n      dup1\n        /* \"contracts/InquireA.sol\":11396:11412  matchedQuestions */\n      dup4\n        /* \"contracts/InquireA.sol\":11413:11418  count */\n      dup4\n        /* \"contracts/InquireA.sol\":11396:11419  matchedQuestions[count] */\n      dup2\n      mload\n      dup2\n      lt\n      tag_262\n      jumpi\n      tag_263\n      tag_264\n      jump\t// in\n    tag_263:\n    tag_262:\n      0x20\n      mul\n      0x20\n      add\n      add\n        /* \"contracts/InquireA.sol\":11396:11423  matchedQuestions[count] = i */\n      dup2\n      dup2\n      mstore\n      pop\n      pop\n        /* \"contracts/InquireA.sol\":11442:11449  count++ */\n      dup2\n      dup1\n      tag_265\n      swap1\n      tag_177\n      jump\t// in\n    tag_265:\n      swap3\n      pop\n      pop\n        /* \"contracts/InquireA.sol\":11301:11465  if (keccak256(bytes(questions[i].category)) == keccak256(bytes(_category))) {... */\n    tag_261:\n        /* \"contracts/InquireA.sol\":11281:11284  i++ */\n      dup1\n      dup1\n      0x01\n      add\n      swap2\n      pop\n      pop\n        /* \"contracts/InquireA.sol\":11238:11476  for (uint256 i = 1; i < questionIdCounter; i++) {... */\n      jump(tag_256)\n    tag_257:\n      pop\n        /* \"contracts/InquireA.sol\":11514:11537  uint256[] memory result */\n      0x00\n        /* \"contracts/InquireA.sol\":11554:11559  count */\n      dup2\n        /* \"contracts/InquireA.sol\":11540:11560  new uint256[](count) */\n      0xffffffffffffffff\n      dup2\n      gt\n      iszero\n      tag_266\n      jumpi\n      tag_267\n      tag_254\n      jump\t// in\n    tag_267:\n    tag_266:\n      mload(0x40)\n      swap1\n      dup1\n      dup3\n      mstore\n      dup1\n      0x20\n      mul\n      0x20\n      add\n      dup3\n      add\n      0x40\n      mstore\n      dup1\n      iszero\n      tag_268\n      jumpi\n      dup2\n      0x20\n      add\n      0x20\n      dup3\n      mul\n      dup1\n      calldatasize\n      dup4\n      calldatacopy\n      dup1\n      dup3\n      add\n      swap2\n      pop\n      pop\n      swap1\n      pop\n    tag_268:\n      pop\n        /* \"contracts/InquireA.sol\":11514:11560  uint256[] memory result = new uint256[](count) */\n      swap1\n      pop\n        /* \"contracts/InquireA.sol\":11576:11585  uint256 i */\n      0x00\n        /* \"contracts/InquireA.sol\":11571:11665  for (uint256 i = 0; i < count; i++) {... */\n    tag_269:\n        /* \"contracts/InquireA.sol\":11595:11600  count */\n      dup3\n        /* \"contracts/InquireA.sol\":11591:11592  i */\n      dup2\n        /* \"contracts/InquireA.sol\":11591:11600  i < count */\n      lt\n        /* \"contracts/InquireA.sol\":11571:11665  for (uint256 i = 0; i < count; i++) {... */\n      iszero\n      tag_270\n      jumpi\n        /* \"contracts/InquireA.sol\":11634:11650  matchedQuestions */\n      dup4\n        /* \"contracts/InquireA.sol\":11651:11652  i */\n      dup2\n        /* \"contracts/InquireA.sol\":11634:11653  matchedQuestions[i] */\n      dup2\n      mload\n      dup2\n      lt\n      tag_272\n      jumpi\n      tag_273\n      tag_264\n      jump\t// in\n    tag_273:\n    tag_272:\n      0x20\n      mul\n      0x20\n      add\n      add\n      mload\n        /* \"contracts/InquireA.sol\":11622:11628  result */\n      dup3\n        /* \"contracts/InquireA.sol\":11629:11630  i */\n      dup3\n        /* \"contracts/InquireA.sol\":11622:11631  result[i] */\n      dup2\n      mload\n      dup2\n      lt\n      tag_274\n      jumpi\n      tag_275\n      tag_264\n      jump\t// in\n    tag_275:\n    tag_274:\n      0x20\n      mul\n      0x20\n      add\n      add\n        /* \"contracts/InquireA.sol\":11622:11653  result[i] = matchedQuestions[i] */\n      dup2\n      dup2\n      mstore\n      pop\n      pop\n        /* \"contracts/InquireA.sol\":11602:11605  i++ */\n      dup1\n      dup1\n      0x01\n      add\n      swap2\n      pop\n      pop\n        /* \"contracts/InquireA.sol\":11571:11665  for (uint256 i = 0; i < count; i++) {... */\n      jump(tag_269)\n    tag_270:\n      pop\n        /* \"contracts/InquireA.sol\":11684:11690  result */\n      dup1\n        /* \"contracts/InquireA.sol\":11677:11690  return result */\n      swap4\n      pop\n      pop\n      pop\n      pop\n        /* \"contracts/InquireA.sol\":11022:11698  function getQuestionsByCategory(string memory _category) public view returns (uint256[] memory) {... */\n      swap2\n      swap1\n      pop\n      jump\t// out\n        /* \"contracts/InquireA.sol\":2244:3582  function askQuestion(... */\n    tag_79:\n        /* \"contracts/InquireA.sol\":2473:2474  0 */\n      0x00\n        /* \"contracts/InquireA.sol\":2461:2470  msg.value */\n      callvalue\n        /* \"contracts/InquireA.sol\":2461:2474  msg.value > 0 */\n      gt\n        /* \"contracts/InquireA.sol\":2453:2511  require(msg.value > 0, \"Reward must be greater than zero\") */\n      tag_277\n      jumpi\n      mload(0x40)\n      0x08c379a000000000000000000000000000000000000000000000000000000000\n      dup2\n      mstore\n      0x04\n      add\n      tag_278\n      swap1\n      tag_279\n      jump\t// in\n    tag_278:\n      mload(0x40)\n      dup1\n      swap2\n      sub\n      swap1\n      revert\n    tag_277:\n        /* \"contracts/InquireA.sol\":2556:2557  0 */\n      0x00\n        /* \"contracts/InquireA.sol\":2536:2545  _category */\n      dup3\n        /* \"contracts/InquireA.sol\":2530:2553  bytes(_category).length */\n      mload\n        /* \"contracts/InquireA.sol\":2530:2557  bytes(_category).length > 0 */\n      gt\n        /* \"contracts/InquireA.sol\":2522:2586  require(bytes(_category).length > 0, \"Category cannot be empty\") */\n      tag_280\n      jumpi\n      mload(0x40)\n      0x08c379a000000000000000000000000000000000000000000000000000000000\n      dup2\n      mstore\n      0x04\n      add\n      tag_281\n      swap1\n      tag_282\n      jump\t// in\n    tag_281:\n      mload(0x40)\n      dup1\n      swap2\n      sub\n      swap1\n      revert\n    tag_280:\n        /* \"contracts/InquireA.sol\":2599:2615  uint256 deadline */\n      0x00\n        /* \"contracts/InquireA.sol\":2649:2671  DeadlinePeriod.OneWeek */\n      dup1\n        /* \"contracts/InquireA.sol\":2630:2671  _deadlinePeriod == DeadlinePeriod.OneWeek */\n      0x02\n      dup2\n      gt\n      iszero\n      tag_283\n      jumpi\n      tag_284\n      tag_285\n      jump\t// in\n    tag_284:\n    tag_283:\n        /* \"contracts/InquireA.sol\":2630:2645  _deadlinePeriod */\n      dup3\n        /* \"contracts/InquireA.sol\":2630:2671  _deadlinePeriod == DeadlinePeriod.OneWeek */\n      0x02\n      dup2\n      gt\n      iszero\n      tag_286\n      jumpi\n      tag_287\n      tag_285\n      jump\t// in\n    tag_287:\n    tag_286:\n      sub\n        /* \"contracts/InquireA.sol\":2626:2967  if (_deadlinePeriod == DeadlinePeriod.OneWeek) {... */\n      tag_288\n      jumpi\n        /* \"contracts/InquireA.sol\":261:267  7 days */\n      0x093a80\n        /* \"contracts/InquireA.sol\":2699:2714  block.timestamp */\n      timestamp\n        /* \"contracts/InquireA.sol\":2699:2721  block.timestamp + WEEK */\n      tag_289\n      swap2\n      swap1\n      tag_216\n      jump\t// in\n    tag_289:\n        /* \"contracts/InquireA.sol\":2688:2721  deadline = block.timestamp + WEEK */\n      swap1\n      pop\n        /* \"contracts/InquireA.sol\":2626:2967  if (_deadlinePeriod == DeadlinePeriod.OneWeek) {... */\n      jump(tag_290)\n    tag_288:\n        /* \"contracts/InquireA.sol\":2762:2785  DeadlinePeriod.TwoWeeks */\n      0x01\n        /* \"contracts/InquireA.sol\":2743:2785  _deadlinePeriod == DeadlinePeriod.TwoWeeks */\n      0x02\n      dup2\n      gt\n      iszero\n      tag_291\n      jumpi\n      tag_292\n      tag_285\n      jump\t// in\n    tag_292:\n    tag_291:\n        /* \"contracts/InquireA.sol\":2743:2758  _deadlinePeriod */\n      dup3\n        /* \"contracts/InquireA.sol\":2743:2785  _deadlinePeriod == DeadlinePeriod.TwoWeeks */\n      0x02\n      dup2\n      gt\n      iszero\n      tag_293\n      jumpi\n      tag_294\n      tag_285\n      jump\t// in\n    tag_294:\n    tag_293:\n      sub\n        /* \"contracts/InquireA.sol\":2739:2967  if (_deadlinePeriod == DeadlinePeriod.TwoWeeks) {... */\n      tag_295\n      jumpi\n        /* \"contracts/InquireA.sol\":310:317  14 days */\n      0x127500\n        /* \"contracts/InquireA.sol\":2813:2828  block.timestamp */\n      timestamp\n        /* \"contracts/InquireA.sol\":2813:2840  block.timestamp + TWO_WEEKS */\n      tag_296\n      swap2\n      swap1\n      tag_216\n      jump\t// in\n    tag_296:\n        /* \"contracts/InquireA.sol\":2802:2840  deadline = block.timestamp + TWO_WEEKS */\n      swap1\n      pop\n        /* \"contracts/InquireA.sol\":2739:2967  if (_deadlinePeriod == DeadlinePeriod.TwoWeeks) {... */\n      jump(tag_297)\n    tag_295:\n        /* \"contracts/InquireA.sol\":2881:2904  DeadlinePeriod.OneMonth */\n      0x02\n        /* \"contracts/InquireA.sol\":2862:2904  _deadlinePeriod == DeadlinePeriod.OneMonth */\n      dup1\n      dup2\n      gt\n      iszero\n      tag_298\n      jumpi\n      tag_299\n      tag_285\n      jump\t// in\n    tag_299:\n    tag_298:\n        /* \"contracts/InquireA.sol\":2862:2877  _deadlinePeriod */\n      dup3\n        /* \"contracts/InquireA.sol\":2862:2904  _deadlinePeriod == DeadlinePeriod.OneMonth */\n      0x02\n      dup2\n      gt\n      iszero\n      tag_300\n      jumpi\n      tag_301\n      tag_285\n      jump\t// in\n    tag_301:\n    tag_300:\n      sub\n        /* \"contracts/InquireA.sol\":2858:2967  if (_deadlinePeriod == DeadlinePeriod.OneMonth) {... */\n      tag_302\n      jumpi\n        /* \"contracts/InquireA.sol\":356:363  30 days */\n      0x278d00\n        /* \"contracts/InquireA.sol\":2932:2947  block.timestamp */\n      timestamp\n        /* \"contracts/InquireA.sol\":2932:2955  block.timestamp + MONTH */\n      tag_303\n      swap2\n      swap1\n      tag_216\n      jump\t// in\n    tag_303:\n        /* \"contracts/InquireA.sol\":2921:2955  deadline = block.timestamp + MONTH */\n      swap1\n      pop\n        /* \"contracts/InquireA.sol\":2858:2967  if (_deadlinePeriod == DeadlinePeriod.OneMonth) {... */\n    tag_302:\n        /* \"contracts/InquireA.sol\":2739:2967  if (_deadlinePeriod == DeadlinePeriod.TwoWeeks) {... */\n    tag_297:\n        /* \"contracts/InquireA.sol\":2626:2967  if (_deadlinePeriod == DeadlinePeriod.OneWeek) {... */\n    tag_290:\n        /* \"contracts/InquireA.sol\":2987:3005  uint256 questionId */\n      0x00\n        /* \"contracts/InquireA.sol\":3008:3025  questionIdCounter */\n      0x02\n      0x00\n        /* \"contracts/InquireA.sol\":3008:3027  questionIdCounter++ */\n      dup2\n      sload\n      dup1\n      swap3\n      swap2\n      swap1\n      tag_304\n      swap1\n      tag_177\n      jump\t// in\n    tag_304:\n      swap2\n      swap1\n      pop\n      sstore\n        /* \"contracts/InquireA.sol\":2987:3027  uint256 questionId = questionIdCounter++ */\n      swap1\n      pop\n        /* \"contracts/InquireA.sol\":3062:3482  Question({... */\n      mload(0x40)\n      dup1\n      0x0140\n      add\n      0x40\n      mstore\n      dup1\n        /* \"contracts/InquireA.sol\":3090:3100  questionId */\n      dup3\n        /* \"contracts/InquireA.sol\":3062:3482  Question({... */\n      dup2\n      mstore\n      0x20\n      add\n        /* \"contracts/InquireA.sol\":3161:3171  msg.sender */\n      caller\n        /* \"contracts/InquireA.sol\":3062:3482  Question({... */\n      0xffffffffffffffffffffffffffffffffffffffff\n      and\n      dup2\n      mstore\n      0x20\n      add\n        /* \"contracts/InquireA.sol\":3200:3213  _questionText */\n      dup8\n        /* \"contracts/InquireA.sol\":3062:3482  Question({... */\n      dup2\n      mstore\n      0x20\n      add\n        /* \"contracts/InquireA.sol\":3245:3261  _questionContent */\n      dup7\n        /* \"contracts/InquireA.sol\":3062:3482  Question({... */\n      dup2\n      mstore\n      0x20\n      add\n        /* \"contracts/InquireA.sol\":3287:3296  _category */\n      dup6\n        /* \"contracts/InquireA.sol\":3062:3482  Question({... */\n      dup2\n      mstore\n      0x20\n      add\n        /* \"contracts/InquireA.sol\":3325:3334  msg.value */\n      callvalue\n        /* \"contracts/InquireA.sol\":3062:3482  Question({... */\n      dup2\n      mstore\n      0x20\n      add\n        /* \"contracts/InquireA.sol\":3360:3375  block.timestamp */\n      timestamp\n        /* \"contracts/InquireA.sol\":3062:3482  Question({... */\n      dup2\n      mstore\n      0x20\n      add\n        /* \"contracts/InquireA.sol\":3400:3408  deadline */\n      dup4\n        /* \"contracts/InquireA.sol\":3062:3482  Question({... */\n      dup2\n      mstore\n      0x20\n      add\n        /* \"contracts/InquireA.sol\":3433:3438  false */\n      0x00\n        /* \"contracts/InquireA.sol\":3062:3482  Question({... */\n      iszero\n      iszero\n      dup2\n      mstore\n      0x20\n      add\n        /* \"contracts/InquireA.sol\":3469:3470  0 */\n      0x00\n        /* \"contracts/InquireA.sol\":3062:3482  Question({... */\n      dup2\n      mstore\n      pop\n        /* \"contracts/InquireA.sol\":3038:3047  questions */\n      0x04\n        /* \"contracts/InquireA.sol\":3038:3059  questions[questionId] */\n      0x00\n        /* \"contracts/InquireA.sol\":3048:3058  questionId */\n      dup4\n        /* \"contracts/InquireA.sol\":3038:3059  questions[questionId] */\n      dup2\n      mstore\n      0x20\n      add\n      swap1\n      dup2\n      mstore\n      0x20\n      add\n      0x00\n      keccak256\n        /* \"contracts/InquireA.sol\":3038:3482  questions[questionId] = Question({... */\n      0x00\n      dup3\n      add\n      mload\n      dup2\n      0x00\n      add\n      sstore\n      0x20\n      dup3\n      add\n      mload\n      dup2\n      0x01\n      add\n      exp(0x0100, 0x00)\n      dup2\n      sload\n      dup2\n      0xffffffffffffffffffffffffffffffffffffffff\n      mul\n      not\n      and\n      swap1\n      dup4\n      0xffffffffffffffffffffffffffffffffffffffff\n      and\n      mul\n      or\n      swap1\n      sstore\n      pop\n      0x40\n      dup3\n      add\n      mload\n      dup2\n      0x02\n      add\n      swap1\n      dup2\n      tag_305\n      swap2\n      swap1\n      tag_179\n      jump\t// in\n    tag_305:\n      pop\n      0x60\n      dup3\n      add\n      mload\n      dup2\n      0x03\n      add\n      swap1\n      dup2\n      tag_306\n      swap2\n      swap1\n      tag_179\n      jump\t// in\n    tag_306:\n      pop\n      0x80\n      dup3\n      add\n      mload\n      dup2\n      0x04\n      add\n      swap1\n      dup2\n      tag_307\n      swap2\n      swap1\n      tag_179\n      jump\t// in\n    tag_307:\n      pop\n      0xa0\n      dup3\n      add\n      mload\n      dup2\n      0x05\n      add\n      sstore\n      0xc0\n      dup3\n      add\n      mload\n      dup2\n      0x06\n      add\n      sstore\n      0xe0\n      dup3\n      add\n      mload\n      dup2\n      0x07\n      add\n      sstore\n      0x0100\n      dup3\n      add\n      mload\n      dup2\n      0x08\n      add\n      exp(0x0100, 0x00)\n      dup2\n      sload\n      dup2\n      0xff\n      mul\n      not\n      and\n      swap1\n      dup4\n      iszero\n      iszero\n      mul\n      or\n      swap1\n      sstore\n      pop\n      0x0120\n      dup3\n      add\n      mload\n      dup2\n      0x09\n      add\n      sstore\n      swap1\n      pop\n      pop\n        /* \"contracts/InquireA.sol\":3526:3536  msg.sender */\n      caller\n        /* \"contracts/InquireA.sol\":3500:3574  QuestionAsked(questionId, msg.sender, _questionText, msg.value, _category) */\n      0xffffffffffffffffffffffffffffffffffffffff\n      and\n      0xb8105899d34d8481e717a601e8d7a732c27b0ab23778e01145f2f3eb24a1120c\n        /* \"contracts/InquireA.sol\":3514:3524  questionId */\n      dup3\n        /* \"contracts/InquireA.sol\":3538:3551  _questionText */\n      dup9\n        /* \"contracts/InquireA.sol\":3553:3562  msg.value */\n      callvalue\n        /* \"contracts/InquireA.sol\":3564:3573  _category */\n      dup9\n        /* \"contracts/InquireA.sol\":3500:3574  QuestionAsked(questionId, msg.sender, _questionText, msg.value, _category) */\n      mload(0x40)\n      tag_308\n      swap5\n      swap4\n      swap3\n      swap2\n      swap1\n      tag_309\n      jump\t// in\n    tag_308:\n      mload(0x40)\n      dup1\n      swap2\n      sub\n      swap1\n      log2\n        /* \"contracts/InquireA.sol\":2442:3582  {... */\n      pop\n      pop\n        /* \"contracts/InquireA.sol\":2244:3582  function askQuestion(... */\n      pop\n      pop\n      pop\n      pop\n      jump\t// out\n        /* \"contracts/InquireA.sol\":9636:10637  function distributeRewards(uint256 questionId) public questionExists(questionId) {... */\n    tag_83:\n        /* \"contracts/InquireA.sol\":9705:9715  questionId */\n      dup1\n        /* \"contracts/InquireA.sol\":1986:1987  0 */\n      0x00\n        /* \"contracts/InquireA.sol\":1947:1988  questions[questionId].asker != address(0) */\n      0xffffffffffffffffffffffffffffffffffffffff\n      and\n        /* \"contracts/InquireA.sol\":1947:1956  questions */\n      0x04\n        /* \"contracts/InquireA.sol\":1947:1968  questions[questionId] */\n      0x00\n        /* \"contracts/InquireA.sol\":1957:1967  questionId */\n      dup4\n        /* \"contracts/InquireA.sol\":1947:1968  questions[questionId] */\n      dup2\n      mstore\n      0x20\n      add\n      swap1\n      dup2\n      mstore\n      0x20\n      add\n      0x00\n      keccak256\n        /* \"contracts/InquireA.sol\":1947:1974  questions[questionId].asker */\n      0x01\n      add\n      0x00\n      swap1\n      sload\n      swap1\n      0x0100\n      exp\n      swap1\n      div\n      0xffffffffffffffffffffffffffffffffffffffff\n      and\n        /* \"contracts/InquireA.sol\":1947:1988  questions[questionId].asker != address(0) */\n      0xffffffffffffffffffffffffffffffffffffffff\n      and\n      sub\n        /* \"contracts/InquireA.sol\":1939:2016  require(questions[questionId].asker != address(0), \"Question does not exist\") */\n      tag_311\n      jumpi\n      mload(0x40)\n      0x08c379a000000000000000000000000000000000000000000000000000000000\n      dup2\n      mstore\n      0x04\n      add\n      tag_312\n      swap1\n      tag_139\n      jump\t// in\n    tag_312:\n      mload(0x40)\n      dup1\n      swap2\n      sub\n      swap1\n      revert\n    tag_311:\n        /* \"contracts/InquireA.sol\":9728:9753  Question storage question */\n      0x00\n        /* \"contracts/InquireA.sol\":9756:9765  questions */\n      0x04\n        /* \"contracts/InquireA.sol\":9756:9777  questions[questionId] */\n      0x00\n        /* \"contracts/InquireA.sol\":9766:9776  questionId */\n      dup5\n        /* \"contracts/InquireA.sol\":9756:9777  questions[questionId] */\n      dup2\n      mstore\n      0x20\n      add\n      swap1\n      dup2\n      mstore\n      0x20\n      add\n      0x00\n      keccak256\n        /* \"contracts/InquireA.sol\":9728:9777  Question storage question = questions[questionId] */\n      swap1\n      pop\n        /* \"contracts/InquireA.sol\":9814:9822  question */\n      dup1\n        /* \"contracts/InquireA.sol\":9814:9831  question.deadline */\n      0x07\n      add\n      sload\n        /* \"contracts/InquireA.sol\":9796:9811  block.timestamp */\n      timestamp\n        /* \"contracts/InquireA.sol\":9796:9831  block.timestamp > question.deadline */\n      gt\n        /* \"contracts/InquireA.sol\":9788:9869  require(block.timestamp > question.deadline, \"Cannot distribute before deadline\") */\n      tag_314\n      jumpi\n      mload(0x40)\n      0x08c379a000000000000000000000000000000000000000000000000000000000\n      dup2\n      mstore\n      0x04\n      add\n      tag_315\n      swap1\n      tag_316\n      jump\t// in\n    tag_315:\n      mload(0x40)\n      dup1\n      swap2\n      sub\n      swap1\n      revert\n    tag_314:\n        /* \"contracts/InquireA.sol\":9889:9897  question */\n      dup1\n        /* \"contracts/InquireA.sol\":9889:9906  question.isClosed */\n      0x08\n      add\n      0x00\n      swap1\n      sload\n      swap1\n      0x0100\n      exp\n      swap1\n      div\n      0xff\n      and\n        /* \"contracts/InquireA.sol\":9888:9906  !question.isClosed */\n      iszero\n        /* \"contracts/InquireA.sol\":9880:9937  require(!question.isClosed, \"Question is already closed\") */\n      tag_317\n      jumpi\n      mload(0x40)\n      0x08c379a000000000000000000000000000000000000000000000000000000000\n      dup2\n      mstore\n      0x04\n      add\n      tag_318\n      swap1\n      tag_143\n      jump\t// in\n    tag_318:\n      mload(0x40)\n      dup1\n      swap2\n      sub\n      swap1\n      revert\n    tag_317:\n        /* \"contracts/InquireA.sol\":9950:9970  uint256 totalUpvotes */\n      0x00\n        /* \"contracts/InquireA.sol\":9985:10004  uint256 totalReward */\n      dup1\n        /* \"contracts/InquireA.sol\":10007:10015  question */\n      dup3\n        /* \"contracts/InquireA.sol\":10007:10028  question.rewardAmount */\n      0x05\n      add\n      sload\n        /* \"contracts/InquireA.sol\":9985:10028  uint256 totalReward = question.rewardAmount */\n      swap1\n      pop\n        /* \"contracts/InquireA.sol\":10078:10087  uint256 i */\n      0x00\n        /* \"contracts/InquireA.sol\":10073:10192  for (uint256 i = 0; i < answerIdCounter; i++) {... */\n    tag_319:\n        /* \"contracts/InquireA.sol\":10097:10112  answerIdCounter */\n      sload(0x03)\n        /* \"contracts/InquireA.sol\":10093:10094  i */\n      dup2\n        /* \"contracts/InquireA.sol\":10093:10112  i < answerIdCounter */\n      lt\n        /* \"contracts/InquireA.sol\":10073:10192  for (uint256 i = 0; i < answerIdCounter; i++) {... */\n      iszero\n      tag_320\n      jumpi\n        /* \"contracts/InquireA.sol\":10150:10157  answers */\n      0x05\n        /* \"contracts/InquireA.sol\":10150:10169  answers[questionId] */\n      0x00\n        /* \"contracts/InquireA.sol\":10158:10168  questionId */\n      dup8\n        /* \"contracts/InquireA.sol\":10150:10169  answers[questionId] */\n      dup2\n      mstore\n      0x20\n      add\n      swap1\n      dup2\n      mstore\n      0x20\n      add\n      0x00\n      keccak256\n        /* \"contracts/InquireA.sol\":10150:10172  answers[questionId][i] */\n      0x00\n        /* \"contracts/InquireA.sol\":10170:10171  i */\n      dup3\n        /* \"contracts/InquireA.sol\":10150:10172  answers[questionId][i] */\n      dup2\n      mstore\n      0x20\n      add\n      swap1\n      dup2\n      mstore\n      0x20\n      add\n      0x00\n      keccak256\n        /* \"contracts/InquireA.sol\":10150:10180  answers[questionId][i].upvotes */\n      0x03\n      add\n      sload\n        /* \"contracts/InquireA.sol\":10134:10180  totalUpvotes += answers[questionId][i].upvotes */\n      dup4\n      tag_322\n      swap2\n      swap1\n      tag_216\n      jump\t// in\n    tag_322:\n      swap3\n      pop\n        /* \"contracts/InquireA.sol\":10114:10117  i++ */\n      dup1\n      dup1\n      0x01\n      add\n      swap2\n      pop\n      pop\n        /* \"contracts/InquireA.sol\":10073:10192  for (uint256 i = 0; i < answerIdCounter; i++) {... */\n      jump(tag_319)\n    tag_320:\n      pop\n        /* \"contracts/InquireA.sol\":10243:10252  uint256 i */\n      0x00\n        /* \"contracts/InquireA.sol\":10238:10593  for (uint256 i = 0; i < answerIdCounter; i++) {... */\n    tag_323:\n        /* \"contracts/InquireA.sol\":10262:10277  answerIdCounter */\n      sload(0x03)\n        /* \"contracts/InquireA.sol\":10258:10259  i */\n      dup2\n        /* \"contracts/InquireA.sol\":10258:10277  i < answerIdCounter */\n      lt\n        /* \"contracts/InquireA.sol\":10238:10593  for (uint256 i = 0; i < answerIdCounter; i++) {... */\n      iszero\n      tag_324\n      jumpi\n        /* \"contracts/InquireA.sol\":10299:10320  Answer storage answer */\n      0x00\n        /* \"contracts/InquireA.sol\":10323:10330  answers */\n      0x05\n        /* \"contracts/InquireA.sol\":10323:10342  answers[questionId] */\n      0x00\n        /* \"contracts/InquireA.sol\":10331:10341  questionId */\n      dup9\n        /* \"contracts/InquireA.sol\":10323:10342  answers[questionId] */\n      dup2\n      mstore\n      0x20\n      add\n      swap1\n      dup2\n      mstore\n      0x20\n      add\n      0x00\n      keccak256\n        /* \"contracts/InquireA.sol\":10323:10345  answers[questionId][i] */\n      0x00\n        /* \"contracts/InquireA.sol\":10343:10344  i */\n      dup4\n        /* \"contracts/InquireA.sol\":10323:10345  answers[questionId][i] */\n      dup2\n      mstore\n      0x20\n      add\n      swap1\n      dup2\n      mstore\n      0x20\n      add\n      0x00\n      keccak256\n        /* \"contracts/InquireA.sol\":10299:10345  Answer storage answer = answers[questionId][i] */\n      swap1\n      pop\n        /* \"contracts/InquireA.sol\":10379:10380  0 */\n      0x00\n        /* \"contracts/InquireA.sol\":10364:10376  totalUpvotes */\n      dup5\n        /* \"contracts/InquireA.sol\":10364:10380  totalUpvotes > 0 */\n      gt\n        /* \"contracts/InquireA.sol\":10360:10582  if (totalUpvotes > 0) {... */\n      iszero\n      tag_326\n      jumpi\n        /* \"contracts/InquireA.sol\":10401:10415  uint256 reward */\n      0x00\n        /* \"contracts/InquireA.sol\":10451:10463  totalUpvotes */\n      dup5\n        /* \"contracts/InquireA.sol\":10436:10447  totalReward */\n      dup5\n        /* \"contracts/InquireA.sol\":10419:10425  answer */\n      dup4\n        /* \"contracts/InquireA.sol\":10419:10433  answer.upvotes */\n      0x03\n      add\n      sload\n        /* \"contracts/InquireA.sol\":10419:10447  answer.upvotes * totalReward */\n      tag_327\n      swap2\n      swap1\n      tag_328\n      jump\t// in\n    tag_327:\n        /* \"contracts/InquireA.sol\":10418:10463  (answer.upvotes * totalReward) / totalUpvotes */\n      tag_329\n      swap2\n      swap1\n      tag_330\n      jump\t// in\n    tag_329:\n        /* \"contracts/InquireA.sol\":10401:10463  uint256 reward = (answer.upvotes * totalReward) / totalUpvotes */\n      swap1\n      pop\n        /* \"contracts/InquireA.sol\":10505:10511  reward */\n      dup1\n        /* \"contracts/InquireA.sol\":10482:10488  answer */\n      dup3\n        /* \"contracts/InquireA.sol\":10482:10501  answer.rewardAmount */\n      0x04\n      add\n      0x00\n        /* \"contracts/InquireA.sol\":10482:10511  answer.rewardAmount += reward */\n      dup3\n      dup3\n      sload\n      tag_331\n      swap2\n      swap1\n      tag_216\n      jump\t// in\n    tag_331:\n      swap3\n      pop\n      pop\n      dup2\n      swap1\n      sstore\n      pop\n        /* \"contracts/InquireA.sol\":10560:10566  reward */\n      dup1\n        /* \"contracts/InquireA.sol\":10530:10538  balances */\n      0x06\n        /* \"contracts/InquireA.sol\":10530:10556  balances[answer.responder] */\n      0x00\n        /* \"contracts/InquireA.sol\":10539:10545  answer */\n      dup5\n        /* \"contracts/InquireA.sol\":10539:10555  answer.responder */\n      0x01\n      add\n      0x00\n      swap1\n      sload\n      swap1\n      0x0100\n      exp\n      swap1\n      div\n      0xffffffffffffffffffffffffffffffffffffffff\n      and\n        /* \"contracts/InquireA.sol\":10530:10556  balances[answer.responder] */\n      0xffffffffffffffffffffffffffffffffffffffff\n      and\n      0xffffffffffffffffffffffffffffffffffffffff\n      and\n      dup2\n      mstore\n      0x20\n      add\n      swap1\n      dup2\n      mstore\n      0x20\n      add\n      0x00\n      keccak256\n      0x00\n        /* \"contracts/InquireA.sol\":10530:10566  balances[answer.responder] += reward */\n      dup3\n      dup3\n      sload\n      tag_332\n      swap2\n      swap1\n      tag_216\n      jump\t// in\n    tag_332:\n      swap3\n      pop\n      pop\n      dup2\n      swap1\n      sstore\n      pop\n        /* \"contracts/InquireA.sol\":10382:10582  {... */\n      pop\n        /* \"contracts/InquireA.sol\":10360:10582  if (totalUpvotes > 0) {... */\n    tag_326:\n        /* \"contracts/InquireA.sol\":10284:10593  {... */\n      pop\n        /* \"contracts/InquireA.sol\":10279:10282  i++ */\n      dup1\n      dup1\n      0x01\n      add\n      swap2\n      pop\n      pop\n        /* \"contracts/InquireA.sol\":10238:10593  for (uint256 i = 0; i < answerIdCounter; i++) {... */\n      jump(tag_323)\n    tag_324:\n      pop\n        /* \"contracts/InquireA.sol\":10625:10629  true */\n      0x01\n        /* \"contracts/InquireA.sol\":10605:10613  question */\n      dup4\n        /* \"contracts/InquireA.sol\":10605:10622  question.isClosed */\n      0x08\n      add\n      0x00\n        /* \"contracts/InquireA.sol\":10605:10629  question.isClosed = true */\n      0x0100\n      exp\n      dup2\n      sload\n      dup2\n      0xff\n      mul\n      not\n      and\n      swap1\n      dup4\n      iszero\n      iszero\n      mul\n      or\n      swap1\n      sstore\n      pop\n        /* \"contracts/InquireA.sol\":9717:10637  {... */\n      pop\n      pop\n      pop\n        /* \"contracts/InquireA.sol\":9636:10637  function distributeRewards(uint256 questionId) public questionExists(questionId) {... */\n      pop\n      pop\n      jump\t// out\n        /* \"contracts/InquireA.sol\":154:186  uint256 public questionIdCounter */\n    tag_86:\n      sload(0x02)\n      dup2\n      jump\t// out\n        /* \"contracts/InquireA.sol\":85:105  address public owner */\n    tag_90:\n      0x00\n      dup1\n      sload\n      swap1\n      0x0100\n      exp\n      swap1\n      div\n      0xffffffffffffffffffffffffffffffffffffffff\n      and\n      dup2\n      jump\t// out\n        /* \"contracts/InquireA.sol\":274:317  uint256 public constant TWO_WEEKS = 14 days */\n    tag_95:\n        /* \"contracts/InquireA.sol\":310:317  14 days */\n      0x127500\n        /* \"contracts/InquireA.sol\":274:317  uint256 public constant TWO_WEEKS = 14 days */\n      dup2\n      jump\t// out\n        /* \"contracts/InquireA.sol\":10874:10970  function balance() public view returns (uint256) {... */\n    tag_99:\n        /* \"contracts/InquireA.sol\":10914:10921  uint256 */\n      0x00\n        /* \"contracts/InquireA.sol\":10941:10962  address(this).balance */\n      selfbalance\n        /* \"contracts/InquireA.sol\":10934:10962  return address(this).balance */\n      swap1\n      pop\n        /* \"contracts/InquireA.sol\":10874:10970  function balance() public view returns (uint256) {... */\n      swap1\n      jump\t// out\n        /* \"contracts/InquireA.sol\":193:223  uint256 public answerIdCounter */\n    tag_103:\n      sload(0x03)\n      dup2\n      jump\t// out\n        /* \"contracts/InquireA.sol\":324:363  uint256 public constant MONTH = 30 days */\n    tag_107:\n        /* \"contracts/InquireA.sol\":356:363  30 days */\n      0x278d00\n        /* \"contracts/InquireA.sol\":324:363  uint256 public constant MONTH = 30 days */\n      dup2\n      jump\t// out\n        /* \"contracts/InquireA.sol\":112:147  uint256 public voteFee = 0.01 ether */\n    tag_111:\n      sload(0x01)\n      dup2\n      jump\t// out\n        /* \"contracts/InquireA.sol\":5750:5968  function getQuestionById(uint256 questionId) public view returns (Question memory) {... */\n    tag_116:\n        /* \"contracts/InquireA.sol\":5816:5831  Question memory */\n      tag_334\n      tag_335\n      jump\t// in\n    tag_334:\n        /* \"contracts/InquireA.sol\":5891:5892  0 */\n      0x00\n        /* \"contracts/InquireA.sol\":5852:5893  questions[questionId].asker != address(0) */\n      0xffffffffffffffffffffffffffffffffffffffff\n      and\n        /* \"contracts/InquireA.sol\":5852:5861  questions */\n      0x04\n        /* \"contracts/InquireA.sol\":5852:5873  questions[questionId] */\n      0x00\n        /* \"contracts/InquireA.sol\":5862:5872  questionId */\n      dup5\n        /* \"contracts/InquireA.sol\":5852:5873  questions[questionId] */\n      dup2\n      mstore\n      0x20\n      add\n      swap1\n      dup2\n      mstore\n      0x20\n      add\n      0x00\n      keccak256\n        /* \"contracts/InquireA.sol\":5852:5879  questions[questionId].asker */\n      0x01\n      add\n      0x00\n      swap1\n      sload\n      swap1\n      0x0100\n      exp\n      swap1\n      div\n      0xffffffffffffffffffffffffffffffffffffffff\n      and\n        /* \"contracts/InquireA.sol\":5852:5893  questions[questionId].asker != address(0) */\n      0xffffffffffffffffffffffffffffffffffffffff\n      and\n      sub\n        /* \"contracts/InquireA.sol\":5844:5921  require(questions[questionId].asker != address(0), \"Question does not exist\") */\n      tag_337\n      jumpi\n      mload(0x40)\n      0x08c379a000000000000000000000000000000000000000000000000000000000\n      dup2\n      mstore\n      0x04\n      add\n      tag_338\n      swap1\n      tag_139\n      jump\t// in\n    tag_338:\n      mload(0x40)\n      dup1\n      swap2\n      sub\n      swap1\n      revert\n    tag_337:\n        /* \"contracts/InquireA.sol\":5939:5948  questions */\n      0x04\n        /* \"contracts/InquireA.sol\":5939:5960  questions[questionId] */\n      0x00\n        /* \"contracts/InquireA.sol\":5949:5959  questionId */\n      dup4\n        /* \"contracts/InquireA.sol\":5939:5960  questions[questionId] */\n      dup2\n      mstore\n      0x20\n      add\n      swap1\n      dup2\n      mstore\n      0x20\n      add\n      0x00\n      keccak256\n        /* \"contracts/InquireA.sol\":5932:5960  return questions[questionId] */\n      mload(0x40)\n      dup1\n      0x0140\n      add\n      0x40\n      mstore\n      swap1\n      dup2\n      0x00\n      dup3\n      add\n      sload\n      dup2\n      mstore\n      0x20\n      add\n      0x01\n      dup3\n      add\n      0x00\n      swap1\n      sload\n      swap1\n      0x0100\n      exp\n      swap1\n      div\n      0xffffffffffffffffffffffffffffffffffffffff\n      and\n      0xffffffffffffffffffffffffffffffffffffffff\n      and\n      0xffffffffffffffffffffffffffffffffffffffff\n      and\n      dup2\n      mstore\n      0x20\n      add\n      0x02\n      dup3\n      add\n      dup1\n      sload\n      tag_339\n      swap1\n      tag_158\n      jump\t// in\n    tag_339:\n      dup1\n      0x1f\n      add\n      0x20\n      dup1\n      swap2\n      div\n      mul\n      0x20\n      add\n      mload(0x40)\n      swap1\n      dup2\n      add\n      0x40\n      mstore\n      dup1\n      swap3\n      swap2\n      swap1\n      dup2\n      dup2\n      mstore\n      0x20\n      add\n      dup3\n      dup1\n      sload\n      tag_340\n      swap1\n      tag_158\n      jump\t// in\n    tag_340:\n      dup1\n      iszero\n      tag_341\n      jumpi\n      dup1\n      0x1f\n      lt\n      tag_342\n      jumpi\n      0x0100\n      dup1\n      dup4\n      sload\n      div\n      mul\n      dup4\n      mstore\n      swap2\n      0x20\n      add\n      swap2\n      jump(tag_341)\n    tag_342:\n      dup3\n      add\n      swap2\n      swap1\n      0x00\n      mstore\n      keccak256(0x00, 0x20)\n      swap1\n    tag_343:\n      dup2\n      sload\n      dup2\n      mstore\n      swap1\n      0x01\n      add\n      swap1\n      0x20\n      add\n      dup1\n      dup4\n      gt\n      tag_343\n      jumpi\n      dup3\n      swap1\n      sub\n      0x1f\n      and\n      dup3\n      add\n      swap2\n    tag_341:\n      pop\n      pop\n      pop\n      pop\n      pop\n      dup2\n      mstore\n      0x20\n      add\n      0x03\n      dup3\n      add\n      dup1\n      sload\n      tag_344\n      swap1\n      tag_158\n      jump\t// in\n    tag_344:\n      dup1\n      0x1f\n      add\n      0x20\n      dup1\n      swap2\n      div\n      mul\n      0x20\n      add\n      mload(0x40)\n      swap1\n      dup2\n      add\n      0x40\n      mstore\n      dup1\n      swap3\n      swap2\n      swap1\n      dup2\n      dup2\n      mstore\n      0x20\n      add\n      dup3\n      dup1\n      sload\n      tag_345\n      swap1\n      tag_158\n      jump\t// in\n    tag_345:\n      dup1\n      iszero\n      tag_346\n      jumpi\n      dup1\n      0x1f\n      lt\n      tag_347\n      jumpi\n      0x0100\n      dup1\n      dup4\n      sload\n      div\n      mul\n      dup4\n      mstore\n      swap2\n      0x20\n      add\n      swap2\n      jump(tag_346)\n    tag_347:\n      dup3\n      add\n      swap2\n      swap1\n      0x00\n      mstore\n      keccak256(0x00, 0x20)\n      swap1\n    tag_348:\n      dup2\n      sload\n      dup2\n      mstore\n      swap1\n      0x01\n      add\n      swap1\n      0x20\n      add\n      dup1\n      dup4\n      gt\n      tag_348\n      jumpi\n      dup3\n      swap1\n      sub\n      0x1f\n      and\n      dup3\n      add\n      swap2\n    tag_346:\n      pop\n      pop\n      pop\n      pop\n      pop\n      dup2\n      mstore\n      0x20\n      add\n      0x04\n      dup3\n      add\n      dup1\n      sload\n      tag_349\n      swap1\n      tag_158\n      jump\t// in\n    tag_349:\n      dup1\n      0x1f\n      add\n      0x20\n      dup1\n      swap2\n      div\n      mul\n      0x20\n      add\n      mload(0x40)\n      swap1\n      dup2\n      add\n      0x40\n      mstore\n      dup1\n      swap3\n      swap2\n      swap1\n      dup2\n      dup2\n      mstore\n      0x20\n      add\n      dup3\n      dup1\n      sload\n      tag_350\n      swap1\n      tag_158\n      jump\t// in\n    tag_350:\n      dup1\n      iszero\n      tag_351\n      jumpi\n      dup1\n      0x1f\n      lt\n      tag_352\n      jumpi\n      0x0100\n      dup1\n      dup4\n      sload\n      div\n      mul\n      dup4\n      mstore\n      swap2\n      0x20\n      add\n      swap2\n      jump(tag_351)\n    tag_352:\n      dup3\n      add\n      swap2\n      swap1\n      0x00\n      mstore\n      keccak256(0x00, 0x20)\n      swap1\n    tag_353:\n      dup2\n      sload\n      dup2\n      mstore\n      swap1\n      0x01\n      add\n      swap1\n      0x20\n      add\n      dup1\n      dup4\n      gt\n      tag_353\n      jumpi\n      dup3\n      swap1\n      sub\n      0x1f\n      and\n      dup3\n      add\n      swap2\n    tag_351:\n      pop\n      pop\n      pop\n      pop\n      pop\n      dup2\n      mstore\n      0x20\n      add\n      0x05\n      dup3\n      add\n      sload\n      dup2\n      mstore\n      0x20\n      add\n      0x06\n      dup3\n      add\n      sload\n      dup2\n      mstore\n      0x20\n      add\n      0x07\n      dup3\n      add\n      sload\n      dup2\n      mstore\n      0x20\n      add\n      0x08\n      dup3\n      add\n      0x00\n      swap1\n      sload\n      swap1\n      0x0100\n      exp\n      swap1\n      div\n      0xff\n      and\n      iszero\n      iszero\n      iszero\n      iszero\n      dup2\n      mstore\n      0x20\n      add\n      0x09\n      dup3\n      add\n      sload\n      dup2\n      mstore\n      pop\n      pop\n      swap1\n      pop\n        /* \"contracts/InquireA.sol\":5750:5968  function getQuestionById(uint256 questionId) public view returns (Question memory) {... */\n      swap2\n      swap1\n      pop\n      jump\t// out\n        /* \"contracts/InquireA.sol\":5976:8364  function getAnswersByQuestionId(... */\n    tag_123:\n        /* \"contracts/InquireA.sol\":6132:6159  Answer[] memory answersList */\n      0x60\n        /* \"contracts/InquireA.sol\":6171:6191  uint256 totalAnswers */\n      0x00\n        /* \"contracts/InquireA.sol\":6203:6221  uint256 totalPages */\n      dup1\n        /* \"contracts/InquireA.sol\":6333:6334  0 */\n      0x00\n        /* \"contracts/InquireA.sol\":6294:6335  questions[questionId].asker != address(0) */\n      0xffffffffffffffffffffffffffffffffffffffff\n      and\n        /* \"contracts/InquireA.sol\":6294:6303  questions */\n      0x04\n        /* \"contracts/InquireA.sol\":6294:6315  questions[questionId] */\n      0x00\n        /* \"contracts/InquireA.sol\":6304:6314  questionId */\n      dup9\n        /* \"contracts/InquireA.sol\":6294:6315  questions[questionId] */\n      dup2\n      mstore\n      0x20\n      add\n      swap1\n      dup2\n      mstore\n      0x20\n      add\n      0x00\n      keccak256\n        /* \"contracts/InquireA.sol\":6294:6321  questions[questionId].asker */\n      0x01\n      add\n      0x00\n      swap1\n      sload\n      swap1\n      0x0100\n      exp\n      swap1\n      div\n      0xffffffffffffffffffffffffffffffffffffffff\n      and\n        /* \"contracts/InquireA.sol\":6294:6335  questions[questionId].asker != address(0) */\n      0xffffffffffffffffffffffffffffffffffffffff\n      and\n      sub\n        /* \"contracts/InquireA.sol\":6286:6363  require(questions[questionId].asker != address(0), \"Question does not exist\") */\n      tag_355\n      jumpi\n      mload(0x40)\n      0x08c379a000000000000000000000000000000000000000000000000000000000\n      dup2\n      mstore\n      0x04\n      add\n      tag_356\n      swap1\n      tag_139\n      jump\t// in\n    tag_356:\n      mload(0x40)\n      dup1\n      swap2\n      sub\n      swap1\n      revert\n    tag_355:\n        /* \"contracts/InquireA.sol\":6462:6463  0 */\n      0x00\n        /* \"contracts/InquireA.sol\":6450:6459  pageIndex */\n      dup6\n        /* \"contracts/InquireA.sol\":6450:6463  pageIndex > 0 */\n      gt\n        /* \"contracts/InquireA.sol\":6442:6496  require(pageIndex > 0, \"Page index must start from 1\") */\n      tag_357\n      jumpi\n      mload(0x40)\n      0x08c379a000000000000000000000000000000000000000000000000000000000\n      dup2\n      mstore\n      0x04\n      add\n      tag_358\n      swap1\n      tag_359\n      jump\t// in\n    tag_358:\n      mload(0x40)\n      dup1\n      swap2\n      sub\n      swap1\n      revert\n    tag_357:\n        /* \"contracts/InquireA.sol\":6526:6527  0 */\n      0x00\n        /* \"contracts/InquireA.sol\":6515:6523  pageSize */\n      dup5\n        /* \"contracts/InquireA.sol\":6515:6527  pageSize > 0 */\n      gt\n        /* \"contracts/InquireA.sol\":6507:6564  require(pageSize > 0, \"Page size must be greater than 0\") */\n      tag_360\n      jumpi\n      mload(0x40)\n      0x08c379a000000000000000000000000000000000000000000000000000000000\n      dup2\n      mstore\n      0x04\n      add\n      tag_361\n      swap1\n      tag_362\n      jump\t// in\n    tag_361:\n      mload(0x40)\n      dup1\n      swap2\n      sub\n      swap1\n      revert\n    tag_360:\n        /* \"contracts/InquireA.sol\":6645:6665  uint256 answersCount */\n      0x00\n        /* \"contracts/InquireA.sol\":6685:6694  uint256 i */\n      dup1\n        /* \"contracts/InquireA.sol\":6697:6698  1 */\n      0x01\n        /* \"contracts/InquireA.sol\":6685:6698  uint256 i = 1 */\n      swap1\n      pop\n        /* \"contracts/InquireA.sol\":6680:6853  for (uint256 i = 1; i < answerIdCounter; i++) {... */\n    tag_363:\n        /* \"contracts/InquireA.sol\":6704:6719  answerIdCounter */\n      sload(0x03)\n        /* \"contracts/InquireA.sol\":6700:6701  i */\n      dup2\n        /* \"contracts/InquireA.sol\":6700:6719  i < answerIdCounter */\n      lt\n        /* \"contracts/InquireA.sol\":6680:6853  for (uint256 i = 1; i < answerIdCounter; i++) {... */\n      iszero\n      tag_364\n      jumpi\n        /* \"contracts/InquireA.sol\":6789:6790  0 */\n      0x00\n        /* \"contracts/InquireA.sol\":6745:6791  answers[questionId][i].responder != address(0) */\n      0xffffffffffffffffffffffffffffffffffffffff\n      and\n        /* \"contracts/InquireA.sol\":6745:6752  answers */\n      0x05\n        /* \"contracts/InquireA.sol\":6745:6764  answers[questionId] */\n      0x00\n        /* \"contracts/InquireA.sol\":6753:6763  questionId */\n      dup11\n        /* \"contracts/InquireA.sol\":6745:6764  answers[questionId] */\n      dup2\n      mstore\n      0x20\n      add\n      swap1\n      dup2\n      mstore\n      0x20\n      add\n      0x00\n      keccak256\n        /* \"contracts/InquireA.sol\":6745:6767  answers[questionId][i] */\n      0x00\n        /* \"contracts/InquireA.sol\":6765:6766  i */\n      dup4\n        /* \"contracts/InquireA.sol\":6745:6767  answers[questionId][i] */\n      dup2\n      mstore\n      0x20\n      add\n      swap1\n      dup2\n      mstore\n      0x20\n      add\n      0x00\n      keccak256\n        /* \"contracts/InquireA.sol\":6745:6777  answers[questionId][i].responder */\n      0x01\n      add\n      0x00\n      swap1\n      sload\n      swap1\n      0x0100\n      exp\n      swap1\n      div\n      0xffffffffffffffffffffffffffffffffffffffff\n      and\n        /* \"contracts/InquireA.sol\":6745:6791  answers[questionId][i].responder != address(0) */\n      0xffffffffffffffffffffffffffffffffffffffff\n      and\n      eq\n        /* \"contracts/InquireA.sol\":6741:6842  if (answers[questionId][i].responder != address(0)) {... */\n      tag_366\n      jumpi\n        /* \"contracts/InquireA.sol\":6812:6826  answersCount++ */\n      dup2\n      dup1\n      tag_367\n      swap1\n      tag_177\n      jump\t// in\n    tag_367:\n      swap3\n      pop\n      pop\n        /* \"contracts/InquireA.sol\":6741:6842  if (answers[questionId][i].responder != address(0)) {... */\n    tag_366:\n        /* \"contracts/InquireA.sol\":6721:6724  i++ */\n      dup1\n      dup1\n      0x01\n      add\n      swap2\n      pop\n      pop\n        /* \"contracts/InquireA.sol\":6680:6853  for (uint256 i = 1; i < answerIdCounter; i++) {... */\n      jump(tag_363)\n    tag_364:\n      pop\n        /* \"contracts/InquireA.sol\":6880:6892  answersCount */\n      dup1\n        /* \"contracts/InquireA.sol\":6865:6892  totalAnswers = answersCount */\n      swap3\n      pop\n        /* \"contracts/InquireA.sol\":6981:6982  0 */\n      0x00\n        /* \"contracts/InquireA.sol\":6965:6977  totalAnswers */\n      dup4\n        /* \"contracts/InquireA.sol\":6965:6982  totalAnswers == 0 */\n      sub\n        /* \"contracts/InquireA.sol\":6961:7041  if (totalAnswers == 0) {... */\n      tag_368\n      jumpi\n        /* \"contracts/InquireA.sol\":7020:7021  0 */\n      0x00\n        /* \"contracts/InquireA.sol\":7007:7022  new Answer[](0) */\n      0xffffffffffffffff\n      dup2\n      gt\n      iszero\n      tag_369\n      jumpi\n      tag_370\n      tag_254\n      jump\t// in\n    tag_370:\n    tag_369:\n      mload(0x40)\n      swap1\n      dup1\n      dup3\n      mstore\n      dup1\n      0x20\n      mul\n      0x20\n      add\n      dup3\n      add\n      0x40\n      mstore\n      dup1\n      iszero\n      tag_371\n      jumpi\n      dup2\n      0x20\n      add\n    tag_372:\n      tag_373\n      tag_241\n      jump\t// in\n    tag_373:\n      dup2\n      mstore\n      0x20\n      add\n      swap1\n      0x01\n      swap1\n      sub\n      swap1\n      dup2\n      tag_372\n      jumpi\n      swap1\n      pop\n    tag_371:\n      pop\n        /* \"contracts/InquireA.sol\":7024:7025  0 */\n      0x00\n        /* \"contracts/InquireA.sol\":7027:7028  0 */\n      dup1\n        /* \"contracts/InquireA.sol\":6999:7029  return (new Answer[](0), 0, 0) */\n      swap4\n      pop\n      swap4\n      pop\n      swap4\n      pop\n      pop\n      jump(tag_354)\n        /* \"contracts/InquireA.sol\":6961:7041  if (totalAnswers == 0) {... */\n    tag_368:\n        /* \"contracts/InquireA.sol\":7134:7142  pageSize */\n      dup5\n        /* \"contracts/InquireA.sol\":7129:7130  1 */\n      0x01\n        /* \"contracts/InquireA.sol\":7118:7126  pageSize */\n      dup7\n        /* \"contracts/InquireA.sol\":7103:7115  totalAnswers */\n      dup6\n        /* \"contracts/InquireA.sol\":7103:7126  totalAnswers + pageSize */\n      tag_374\n      swap2\n      swap1\n      tag_216\n      jump\t// in\n    tag_374:\n        /* \"contracts/InquireA.sol\":7103:7130  totalAnswers + pageSize - 1 */\n      tag_375\n      swap2\n      swap1\n      tag_376\n      jump\t// in\n    tag_375:\n        /* \"contracts/InquireA.sol\":7102:7142  (totalAnswers + pageSize - 1) / pageSize */\n      tag_377\n      swap2\n      swap1\n      tag_330\n      jump\t// in\n    tag_377:\n        /* \"contracts/InquireA.sol\":7089:7142  totalPages = (totalAnswers + pageSize - 1) / pageSize */\n      swap2\n      pop\n        /* \"contracts/InquireA.sol\":7240:7250  totalPages */\n      dup2\n        /* \"contracts/InquireA.sol\":7227:7236  pageIndex */\n      dup7\n        /* \"contracts/InquireA.sol\":7227:7250  pageIndex <= totalPages */\n      gt\n      iszero\n        /* \"contracts/InquireA.sol\":7219:7273  require(pageIndex <= totalPages, \"Invalid page index\") */\n      tag_378\n      jumpi\n      mload(0x40)\n      0x08c379a000000000000000000000000000000000000000000000000000000000\n      dup2\n      mstore\n      0x04\n      add\n      tag_379\n      swap1\n      tag_380\n      jump\t// in\n    tag_379:\n      mload(0x40)\n      dup1\n      swap2\n      sub\n      swap1\n      revert\n    tag_378:\n        /* \"contracts/InquireA.sol\":7360:7378  uint256 startIndex */\n      0x00\n        /* \"contracts/InquireA.sol\":7410:7411  1 */\n      0x01\n        /* \"contracts/InquireA.sol\":7399:7407  pageSize */\n      dup7\n        /* \"contracts/InquireA.sol\":7394:7395  1 */\n      0x01\n        /* \"contracts/InquireA.sol\":7382:7391  pageIndex */\n      dup10\n        /* \"contracts/InquireA.sol\":7382:7395  pageIndex - 1 */\n      tag_381\n      swap2\n      swap1\n      tag_376\n      jump\t// in\n    tag_381:\n        /* \"contracts/InquireA.sol\":7381:7407  (pageIndex - 1) * pageSize */\n      tag_382\n      swap2\n      swap1\n      tag_328\n      jump\t// in\n    tag_382:\n        /* \"contracts/InquireA.sol\":7381:7411  (pageIndex - 1) * pageSize + 1 */\n      tag_383\n      swap2\n      swap1\n      tag_216\n      jump\t// in\n    tag_383:\n        /* \"contracts/InquireA.sol\":7360:7411  uint256 startIndex = (pageIndex - 1) * pageSize + 1 */\n      swap1\n      pop\n        /* \"contracts/InquireA.sol\":7422:7438  uint256 endIndex */\n      0x00\n        /* \"contracts/InquireA.sol\":7465:7466  1 */\n      0x01\n        /* \"contracts/InquireA.sol\":7454:7462  pageSize */\n      dup8\n        /* \"contracts/InquireA.sol\":7441:7451  startIndex */\n      dup4\n        /* \"contracts/InquireA.sol\":7441:7462  startIndex + pageSize */\n      tag_384\n      swap2\n      swap1\n      tag_216\n      jump\t// in\n    tag_384:\n        /* \"contracts/InquireA.sol\":7441:7466  startIndex + pageSize - 1 */\n      tag_385\n      swap2\n      swap1\n      tag_376\n      jump\t// in\n    tag_385:\n        /* \"contracts/InquireA.sol\":7422:7466  uint256 endIndex = startIndex + pageSize - 1 */\n      swap1\n      pop\n        /* \"contracts/InquireA.sol\":7599:7600  1 */\n      0x01\n        /* \"contracts/InquireA.sol\":7581:7596  answerIdCounter */\n      sload(0x03)\n        /* \"contracts/InquireA.sol\":7581:7600  answerIdCounter - 1 */\n      tag_386\n      swap2\n      swap1\n      tag_376\n      jump\t// in\n    tag_386:\n        /* \"contracts/InquireA.sol\":7570:7578  endIndex */\n      dup2\n        /* \"contracts/InquireA.sol\":7570:7600  endIndex > answerIdCounter - 1 */\n      gt\n        /* \"contracts/InquireA.sol\":7566:7659  if (endIndex > answerIdCounter - 1) {... */\n      iszero\n      tag_387\n      jumpi\n        /* \"contracts/InquireA.sol\":7646:7647  1 */\n      0x01\n        /* \"contracts/InquireA.sol\":7628:7643  answerIdCounter */\n      sload(0x03)\n        /* \"contracts/InquireA.sol\":7628:7647  answerIdCounter - 1 */\n      tag_388\n      swap2\n      swap1\n      tag_376\n      jump\t// in\n    tag_388:\n        /* \"contracts/InquireA.sol\":7617:7647  endIndex = answerIdCounter - 1 */\n      swap1\n      pop\n        /* \"contracts/InquireA.sol\":7566:7659  if (endIndex > answerIdCounter - 1) {... */\n    tag_387:\n        /* \"contracts/InquireA.sol\":7713:7731  uint256 resultSize */\n      0x00\n        /* \"contracts/InquireA.sol\":7751:7760  uint256 i */\n      dup1\n        /* \"contracts/InquireA.sol\":7763:7773  startIndex */\n      dup4\n        /* \"contracts/InquireA.sol\":7751:7773  uint256 i = startIndex */\n      swap1\n      pop\n        /* \"contracts/InquireA.sol\":7746:7920  for (uint256 i = startIndex; i <= endIndex; i++) {... */\n    tag_389:\n        /* \"contracts/InquireA.sol\":7780:7788  endIndex */\n      dup3\n        /* \"contracts/InquireA.sol\":7775:7776  i */\n      dup2\n        /* \"contracts/InquireA.sol\":7775:7788  i <= endIndex */\n      gt\n        /* \"contracts/InquireA.sol\":7746:7920  for (uint256 i = startIndex; i <= endIndex; i++) {... */\n      tag_390\n      jumpi\n        /* \"contracts/InquireA.sol\":7858:7859  0 */\n      0x00\n        /* \"contracts/InquireA.sol\":7814:7860  answers[questionId][i].responder != address(0) */\n      0xffffffffffffffffffffffffffffffffffffffff\n      and\n        /* \"contracts/InquireA.sol\":7814:7821  answers */\n      0x05\n        /* \"contracts/InquireA.sol\":7814:7833  answers[questionId] */\n      0x00\n        /* \"contracts/InquireA.sol\":7822:7832  questionId */\n      dup14\n        /* \"contracts/InquireA.sol\":7814:7833  answers[questionId] */\n      dup2\n      mstore\n      0x20\n      add\n      swap1\n      dup2\n      mstore\n      0x20\n      add\n      0x00\n      keccak256\n        /* \"contracts/InquireA.sol\":7814:7836  answers[questionId][i] */\n      0x00\n        /* \"contracts/InquireA.sol\":7834:7835  i */\n      dup4\n        /* \"contracts/InquireA.sol\":7814:7836  answers[questionId][i] */\n      dup2\n      mstore\n      0x20\n      add\n      swap1\n      dup2\n      mstore\n      0x20\n      add\n      0x00\n      keccak256\n        /* \"contracts/InquireA.sol\":7814:7846  answers[questionId][i].responder */\n      0x01\n      add\n      0x00\n      swap1\n      sload\n      swap1\n      0x0100\n      exp\n      swap1\n      div\n      0xffffffffffffffffffffffffffffffffffffffff\n      and\n        /* \"contracts/InquireA.sol\":7814:7860  answers[questionId][i].responder != address(0) */\n      0xffffffffffffffffffffffffffffffffffffffff\n      and\n      eq\n        /* \"contracts/InquireA.sol\":7810:7909  if (answers[questionId][i].responder != address(0)) {... */\n      tag_392\n      jumpi\n        /* \"contracts/InquireA.sol\":7881:7893  resultSize++ */\n      dup2\n      dup1\n      tag_393\n      swap1\n      tag_177\n      jump\t// in\n    tag_393:\n      swap3\n      pop\n      pop\n        /* \"contracts/InquireA.sol\":7810:7909  if (answers[questionId][i].responder != address(0)) {... */\n    tag_392:\n        /* \"contracts/InquireA.sol\":7790:7793  i++ */\n      dup1\n      dup1\n      tag_394\n      swap1\n      tag_177\n      jump\t// in\n    tag_394:\n      swap2\n      pop\n      pop\n        /* \"contracts/InquireA.sol\":7746:7920  for (uint256 i = startIndex; i <= endIndex; i++) {... */\n      jump(tag_389)\n    tag_390:\n      pop\n        /* \"contracts/InquireA.sol\":7959:7969  resultSize */\n      dup1\n        /* \"contracts/InquireA.sol\":7946:7970  new Answer[](resultSize) */\n      0xffffffffffffffff\n      dup2\n      gt\n      iszero\n      tag_395\n      jumpi\n      tag_396\n      tag_254\n      jump\t// in\n    tag_396:\n    tag_395:\n      mload(0x40)\n      swap1\n      dup1\n      dup3\n      mstore\n      dup1\n      0x20\n      mul\n      0x20\n      add\n      dup3\n      add\n      0x40\n      mstore\n      dup1\n      iszero\n      tag_397\n      jumpi\n      dup2\n      0x20\n      add\n    tag_398:\n      tag_399\n      tag_241\n      jump\t// in\n    tag_399:\n      dup2\n      mstore\n      0x20\n      add\n      swap1\n      0x01\n      swap1\n      sub\n      swap1\n      dup2\n      tag_398\n      jumpi\n      swap1\n      pop\n    tag_397:\n      pop\n        /* \"contracts/InquireA.sol\":7932:7970  answersList = new Answer[](resultSize) */\n      swap7\n      pop\n        /* \"contracts/InquireA.sol\":7981:7994  uint256 index */\n      0x00\n        /* \"contracts/InquireA.sol\":8072:8081  uint256 i */\n      dup1\n        /* \"contracts/InquireA.sol\":8084:8094  startIndex */\n      dup5\n        /* \"contracts/InquireA.sol\":8072:8094  uint256 i = startIndex */\n      swap1\n      pop\n        /* \"contracts/InquireA.sol\":8067:8298  for (uint256 i = startIndex; i <= endIndex; i++) {... */\n    tag_400:\n        /* \"contracts/InquireA.sol\":8101:8109  endIndex */\n      dup4\n        /* \"contracts/InquireA.sol\":8096:8097  i */\n      dup2\n        /* \"contracts/InquireA.sol\":8096:8109  i <= endIndex */\n      gt\n        /* \"contracts/InquireA.sol\":8067:8298  for (uint256 i = startIndex; i <= endIndex; i++) {... */\n      tag_401\n      jumpi\n        /* \"contracts/InquireA.sol\":8179:8180  0 */\n      0x00\n        /* \"contracts/InquireA.sol\":8135:8181  answers[questionId][i].responder != address(0) */\n      0xffffffffffffffffffffffffffffffffffffffff\n      and\n        /* \"contracts/InquireA.sol\":8135:8142  answers */\n      0x05\n        /* \"contracts/InquireA.sol\":8135:8154  answers[questionId] */\n      0x00\n        /* \"contracts/InquireA.sol\":8143:8153  questionId */\n      dup15\n        /* \"contracts/InquireA.sol\":8135:8154  answers[questionId] */\n      dup2\n      mstore\n      0x20\n      add\n      swap1\n      dup2\n      mstore\n      0x20\n      add\n      0x00\n      keccak256\n        /* \"contracts/InquireA.sol\":8135:8157  answers[questionId][i] */\n      0x00\n        /* \"contracts/InquireA.sol\":8155:8156  i */\n      dup4\n        /* \"contracts/InquireA.sol\":8135:8157  answers[questionId][i] */\n      dup2\n      mstore\n      0x20\n      add\n      swap1\n      dup2\n      mstore\n      0x20\n      add\n      0x00\n      keccak256\n        /* \"contracts/InquireA.sol\":8135:8167  answers[questionId][i].responder */\n      0x01\n      add\n      0x00\n      swap1\n      sload\n      swap1\n      0x0100\n      exp\n      swap1\n      div\n      0xffffffffffffffffffffffffffffffffffffffff\n      and\n        /* \"contracts/InquireA.sol\":8135:8181  answers[questionId][i].responder != address(0) */\n      0xffffffffffffffffffffffffffffffffffffffff\n      and\n      eq\n        /* \"contracts/InquireA.sol\":8131:8287  if (answers[questionId][i].responder != address(0)) {... */\n      tag_403\n      jumpi\n        /* \"contracts/InquireA.sol\":8223:8230  answers */\n      0x05\n        /* \"contracts/InquireA.sol\":8223:8242  answers[questionId] */\n      0x00\n        /* \"contracts/InquireA.sol\":8231:8241  questionId */\n      dup14\n        /* \"contracts/InquireA.sol\":8223:8242  answers[questionId] */\n      dup2\n      mstore\n      0x20\n      add\n      swap1\n      dup2\n      mstore\n      0x20\n      add\n      0x00\n      keccak256\n        /* \"contracts/InquireA.sol\":8223:8245  answers[questionId][i] */\n      0x00\n        /* \"contracts/InquireA.sol\":8243:8244  i */\n      dup3\n        /* \"contracts/InquireA.sol\":8223:8245  answers[questionId][i] */\n      dup2\n      mstore\n      0x20\n      add\n      swap1\n      dup2\n      mstore\n      0x20\n      add\n      0x00\n      keccak256\n        /* \"contracts/InquireA.sol\":8202:8245  answersList[index] = answers[questionId][i] */\n      mload(0x40)\n      dup1\n      0xc0\n      add\n      0x40\n      mstore\n      swap1\n      dup2\n      0x00\n      dup3\n      add\n      sload\n      dup2\n      mstore\n      0x20\n      add\n      0x01\n      dup3\n      add\n      0x00\n      swap1\n      sload\n      swap1\n      0x0100\n      exp\n      swap1\n      div\n      0xffffffffffffffffffffffffffffffffffffffff\n      and\n      0xffffffffffffffffffffffffffffffffffffffff\n      and\n      0xffffffffffffffffffffffffffffffffffffffff\n      and\n      dup2\n      mstore\n      0x20\n      add\n      0x02\n      dup3\n      add\n      dup1\n      sload\n      tag_404\n      swap1\n      tag_158\n      jump\t// in\n    tag_404:\n      dup1\n      0x1f\n      add\n      0x20\n      dup1\n      swap2\n      div\n      mul\n      0x20\n      add\n      mload(0x40)\n      swap1\n      dup2\n      add\n      0x40\n      mstore\n      dup1\n      swap3\n      swap2\n      swap1\n      dup2\n      dup2\n      mstore\n      0x20\n      add\n      dup3\n      dup1\n      sload\n      tag_405\n      swap1\n      tag_158\n      jump\t// in\n    tag_405:\n      dup1\n      iszero\n      tag_406\n      jumpi\n      dup1\n      0x1f\n      lt\n      tag_407\n      jumpi\n      0x0100\n      dup1\n      dup4\n      sload\n      div\n      mul\n      dup4\n      mstore\n      swap2\n      0x20\n      add\n      swap2\n      jump(tag_406)\n    tag_407:\n      dup3\n      add\n      swap2\n      swap1\n      0x00\n      mstore\n      keccak256(0x00, 0x20)\n      swap1\n    tag_408:\n      dup2\n      sload\n      dup2\n      mstore\n      swap1\n      0x01\n      add\n      swap1\n      0x20\n      add\n      dup1\n      dup4\n      gt\n      tag_408\n      jumpi\n      dup3\n      swap1\n      sub\n      0x1f\n      and\n      dup3\n      add\n      swap2\n    tag_406:\n      pop\n      pop\n      pop\n      pop\n      pop\n      dup2\n      mstore\n      0x20\n      add\n      0x03\n      dup3\n      add\n      sload\n      dup2\n      mstore\n      0x20\n      add\n      0x04\n      dup3\n      add\n      sload\n      dup2\n      mstore\n      0x20\n      add\n      0x05\n      dup3\n      add\n      sload\n      dup2\n      mstore\n      pop\n      pop\n        /* \"contracts/InquireA.sol\":8202:8213  answersList */\n      dup10\n        /* \"contracts/InquireA.sol\":8214:8219  index */\n      dup4\n        /* \"contracts/InquireA.sol\":8202:8220  answersList[index] */\n      dup2\n      mload\n      dup2\n      lt\n      tag_409\n      jumpi\n      tag_410\n      tag_264\n      jump\t// in\n    tag_410:\n    tag_409:\n      0x20\n      mul\n      0x20\n      add\n      add\n        /* \"contracts/InquireA.sol\":8202:8245  answersList[index] = answers[questionId][i] */\n      dup2\n      swap1\n      mstore\n      pop\n        /* \"contracts/InquireA.sol\":8264:8271  index++ */\n      dup2\n      dup1\n      tag_411\n      swap1\n      tag_177\n      jump\t// in\n    tag_411:\n      swap3\n      pop\n      pop\n        /* \"contracts/InquireA.sol\":8131:8287  if (answers[questionId][i].responder != address(0)) {... */\n    tag_403:\n        /* \"contracts/InquireA.sol\":8111:8114  i++ */\n      dup1\n      dup1\n      tag_412\n      swap1\n      tag_177\n      jump\t// in\n    tag_412:\n      swap2\n      pop\n      pop\n        /* \"contracts/InquireA.sol\":8067:8298  for (uint256 i = startIndex; i <= endIndex; i++) {... */\n      jump(tag_400)\n    tag_401:\n      pop\n        /* \"contracts/InquireA.sol\":8310:8356  return (answersList, totalAnswers, totalPages) */\n      pop\n      pop\n      pop\n      pop\n      pop\n        /* \"contracts/InquireA.sol\":5976:8364  function getAnswersByQuestionId(... */\n    tag_354:\n      swap4\n      pop\n      swap4\n      pop\n      swap4\n      swap1\n      pop\n      jump\t// out\n        /* \"contracts/InquireA.sol\":230:267  uint256 public constant WEEK = 7 days */\n    tag_128:\n        /* \"contracts/InquireA.sol\":261:267  7 days */\n      0x093a80\n        /* \"contracts/InquireA.sol\":230:267  uint256 public constant WEEK = 7 days */\n      dup2\n      jump\t// out\n        /* \"contracts/InquireA.sol\":4382:5738  function getQuestions(uint256 pageIndex, uint256 pageSize) ... */\n    tag_133:\n        /* \"contracts/InquireA.sol\":4506:4537  Question[] memory questionsList */\n      0x60\n        /* \"contracts/InquireA.sol\":4553:4575  uint256 totalQuestions */\n      0x00\n        /* \"contracts/InquireA.sol\":4591:4609  uint256 totalPages */\n      dup1\n        /* \"contracts/InquireA.sol\":4658:4659  0 */\n      0x00\n        /* \"contracts/InquireA.sol\":4646:4655  pageIndex */\n      dup6\n        /* \"contracts/InquireA.sol\":4646:4659  pageIndex > 0 */\n      gt\n        /* \"contracts/InquireA.sol\":4638:4692  require(pageIndex > 0, \"Page index must start from 1\") */\n      tag_414\n      jumpi\n      mload(0x40)\n      0x08c379a000000000000000000000000000000000000000000000000000000000\n      dup2\n      mstore\n      0x04\n      add\n      tag_415\n      swap1\n      tag_359\n      jump\t// in\n    tag_415:\n      mload(0x40)\n      dup1\n      swap2\n      sub\n      swap1\n      revert\n    tag_414:\n        /* \"contracts/InquireA.sol\":4722:4723  0 */\n      0x00\n        /* \"contracts/InquireA.sol\":4711:4719  pageSize */\n      dup5\n        /* \"contracts/InquireA.sol\":4711:4723  pageSize > 0 */\n      gt\n        /* \"contracts/InquireA.sol\":4703:4760  require(pageSize > 0, \"Page size must be greater than 0\") */\n      tag_416\n      jumpi\n      mload(0x40)\n      0x08c379a000000000000000000000000000000000000000000000000000000000\n      dup2\n      mstore\n      0x04\n      add\n      tag_417\n      swap1\n      tag_362\n      jump\t// in\n    tag_417:\n      mload(0x40)\n      dup1\n      swap2\n      sub\n      swap1\n      revert\n    tag_416:\n        /* \"contracts/InquireA.sol\":4810:4811  1 */\n      0x01\n        /* \"contracts/InquireA.sol\":4790:4807  questionIdCounter */\n      sload(0x02)\n        /* \"contracts/InquireA.sol\":4790:4811  questionIdCounter - 1 */\n      tag_418\n      swap2\n      swap1\n      tag_376\n      jump\t// in\n    tag_418:\n        /* \"contracts/InquireA.sol\":4773:4811  totalQuestions = questionIdCounter - 1 */\n      swap2\n      pop\n        /* \"contracts/InquireA.sol\":4901:4902  0 */\n      0x00\n        /* \"contracts/InquireA.sol\":4883:4897  totalQuestions */\n      dup3\n        /* \"contracts/InquireA.sol\":4883:4902  totalQuestions == 0 */\n      sub\n        /* \"contracts/InquireA.sol\":4879:4963  if (totalQuestions == 0) {... */\n      tag_419\n      jumpi\n        /* \"contracts/InquireA.sol\":4942:4943  0 */\n      0x00\n        /* \"contracts/InquireA.sol\":4927:4944  new Question[](0) */\n      0xffffffffffffffff\n      dup2\n      gt\n      iszero\n      tag_420\n      jumpi\n      tag_421\n      tag_254\n      jump\t// in\n    tag_421:\n    tag_420:\n      mload(0x40)\n      swap1\n      dup1\n      dup3\n      mstore\n      dup1\n      0x20\n      mul\n      0x20\n      add\n      dup3\n      add\n      0x40\n      mstore\n      dup1\n      iszero\n      tag_422\n      jumpi\n      dup2\n      0x20\n      add\n    tag_423:\n      tag_424\n      tag_335\n      jump\t// in\n    tag_424:\n      dup2\n      mstore\n      0x20\n      add\n      swap1\n      0x01\n      swap1\n      sub\n      swap1\n      dup2\n      tag_423\n      jumpi\n      swap1\n      pop\n    tag_422:\n      pop\n        /* \"contracts/InquireA.sol\":4946:4947  0 */\n      0x00\n        /* \"contracts/InquireA.sol\":4949:4950  0 */\n      dup1\n        /* \"contracts/InquireA.sol\":4919:4951  return (new Question[](0), 0, 0) */\n      swap3\n      pop\n      swap3\n      pop\n      swap3\n      pop\n      jump(tag_413)\n        /* \"contracts/InquireA.sol\":4879:4963  if (totalQuestions == 0) {... */\n    tag_419:\n        /* \"contracts/InquireA.sol\":5022:5030  pageSize */\n      dup4\n        /* \"contracts/InquireA.sol\":5017:5018  1 */\n      0x01\n        /* \"contracts/InquireA.sol\":5006:5014  pageSize */\n      dup6\n        /* \"contracts/InquireA.sol\":4989:5003  totalQuestions */\n      dup5\n        /* \"contracts/InquireA.sol\":4989:5014  totalQuestions + pageSize */\n      tag_425\n      swap2\n      swap1\n      tag_216\n      jump\t// in\n    tag_425:\n        /* \"contracts/InquireA.sol\":4989:5018  totalQuestions + pageSize - 1 */\n      tag_426\n      swap2\n      swap1\n      tag_376\n      jump\t// in\n    tag_426:\n        /* \"contracts/InquireA.sol\":4988:5030  (totalQuestions + pageSize - 1) / pageSize */\n      tag_427\n      swap2\n      swap1\n      tag_330\n      jump\t// in\n    tag_427:\n        /* \"contracts/InquireA.sol\":4975:5030  totalPages = (totalQuestions + pageSize - 1) / pageSize */\n      swap1\n      pop\n        /* \"contracts/InquireA.sol\":5121:5131  totalPages */\n      dup1\n        /* \"contracts/InquireA.sol\":5108:5117  pageIndex */\n      dup6\n        /* \"contracts/InquireA.sol\":5108:5131  pageIndex <= totalPages */\n      gt\n      iszero\n        /* \"contracts/InquireA.sol\":5100:5154  require(pageIndex <= totalPages, \"Invalid page index\") */\n      tag_428\n      jumpi\n      mload(0x40)\n      0x08c379a000000000000000000000000000000000000000000000000000000000\n      dup2\n      mstore\n      0x04\n      add\n      tag_429\n      swap1\n      tag_380\n      jump\t// in\n    tag_429:\n      mload(0x40)\n      dup1\n      swap2\n      sub\n      swap1\n      revert\n    tag_428:\n        /* \"contracts/InquireA.sol\":5167:5185  uint256 startIndex */\n      0x00\n        /* \"contracts/InquireA.sol\":5217:5218  1 */\n      0x01\n        /* \"contracts/InquireA.sol\":5206:5214  pageSize */\n      dup6\n        /* \"contracts/InquireA.sol\":5201:5202  1 */\n      0x01\n        /* \"contracts/InquireA.sol\":5189:5198  pageIndex */\n      dup9\n        /* \"contracts/InquireA.sol\":5189:5202  pageIndex - 1 */\n      tag_430\n      swap2\n      swap1\n      tag_376\n      jump\t// in\n    tag_430:\n        /* \"contracts/InquireA.sol\":5188:5214  (pageIndex - 1) * pageSize */\n      tag_431\n      swap2\n      swap1\n      tag_328\n      jump\t// in\n    tag_431:\n        /* \"contracts/InquireA.sol\":5188:5218  (pageIndex - 1) * pageSize + 1 */\n      tag_432\n      swap2\n      swap1\n      tag_216\n      jump\t// in\n    tag_432:\n        /* \"contracts/InquireA.sol\":5167:5218  uint256 startIndex = (pageIndex - 1) * pageSize + 1 */\n      swap1\n      pop\n        /* \"contracts/InquireA.sol\":5229:5245  uint256 endIndex */\n      0x00\n        /* \"contracts/InquireA.sol\":5272:5273  1 */\n      0x01\n        /* \"contracts/InquireA.sol\":5261:5269  pageSize */\n      dup7\n        /* \"contracts/InquireA.sol\":5248:5258  startIndex */\n      dup4\n        /* \"contracts/InquireA.sol\":5248:5269  startIndex + pageSize */\n      tag_433\n      swap2\n      swap1\n      tag_216\n      jump\t// in\n    tag_433:\n        /* \"contracts/InquireA.sol\":5248:5273  startIndex + pageSize - 1 */\n      tag_434\n      swap2\n      swap1\n      tag_376\n      jump\t// in\n    tag_434:\n        /* \"contracts/InquireA.sol\":5229:5273  uint256 endIndex = startIndex + pageSize - 1 */\n      swap1\n      pop\n        /* \"contracts/InquireA.sol\":5321:5322  1 */\n      0x01\n        /* \"contracts/InquireA.sol\":5301:5318  questionIdCounter */\n      sload(0x02)\n        /* \"contracts/InquireA.sol\":5301:5322  questionIdCounter - 1 */\n      tag_435\n      swap2\n      swap1\n      tag_376\n      jump\t// in\n    tag_435:\n        /* \"contracts/InquireA.sol\":5290:5298  endIndex */\n      dup2\n        /* \"contracts/InquireA.sol\":5290:5322  endIndex > questionIdCounter - 1 */\n      gt\n        /* \"contracts/InquireA.sol\":5286:5383  if (endIndex > questionIdCounter - 1) {... */\n      iszero\n      tag_436\n      jumpi\n        /* \"contracts/InquireA.sol\":5370:5371  1 */\n      0x01\n        /* \"contracts/InquireA.sol\":5350:5367  questionIdCounter */\n      sload(0x02)\n        /* \"contracts/InquireA.sol\":5350:5371  questionIdCounter - 1 */\n      tag_437\n      swap2\n      swap1\n      tag_376\n      jump\t// in\n    tag_437:\n        /* \"contracts/InquireA.sol\":5339:5371  endIndex = questionIdCounter - 1 */\n      swap1\n      pop\n        /* \"contracts/InquireA.sol\":5286:5383  if (endIndex > questionIdCounter - 1) {... */\n    tag_436:\n        /* \"contracts/InquireA.sol\":5395:5413  uint256 resultSize */\n      0x00\n        /* \"contracts/InquireA.sol\":5440:5441  1 */\n      0x01\n        /* \"contracts/InquireA.sol\":5427:5437  startIndex */\n      dup4\n        /* \"contracts/InquireA.sol\":5416:5424  endIndex */\n      dup4\n        /* \"contracts/InquireA.sol\":5416:5437  endIndex - startIndex */\n      tag_438\n      swap2\n      swap1\n      tag_376\n      jump\t// in\n    tag_438:\n        /* \"contracts/InquireA.sol\":5416:5441  endIndex - startIndex + 1 */\n      tag_439\n      swap2\n      swap1\n      tag_216\n      jump\t// in\n    tag_439:\n        /* \"contracts/InquireA.sol\":5395:5441  uint256 resultSize = endIndex - startIndex + 1 */\n      swap1\n      pop\n        /* \"contracts/InquireA.sol\":5483:5493  resultSize */\n      dup1\n        /* \"contracts/InquireA.sol\":5468:5494  new Question[](resultSize) */\n      0xffffffffffffffff\n      dup2\n      gt\n      iszero\n      tag_440\n      jumpi\n      tag_441\n      tag_254\n      jump\t// in\n    tag_441:\n    tag_440:\n      mload(0x40)\n      swap1\n      dup1\n      dup3\n      mstore\n      dup1\n      0x20\n      mul\n      0x20\n      add\n      dup3\n      add\n      0x40\n      mstore\n      dup1\n      iszero\n      tag_442\n      jumpi\n      dup2\n      0x20\n      add\n    tag_443:\n      tag_444\n      tag_335\n      jump\t// in\n    tag_444:\n      dup2\n      mstore\n      0x20\n      add\n      swap1\n      0x01\n      swap1\n      sub\n      swap1\n      dup2\n      tag_443\n      jumpi\n      swap1\n      pop\n    tag_442:\n      pop\n        /* \"contracts/InquireA.sol\":5452:5494  questionsList = new Question[](resultSize) */\n      swap6\n      pop\n        /* \"contracts/InquireA.sol\":5507:5520  uint256 index */\n      0x00\n        /* \"contracts/InquireA.sol\":5540:5549  uint256 i */\n      dup1\n        /* \"contracts/InquireA.sol\":5552:5562  startIndex */\n      dup5\n        /* \"contracts/InquireA.sol\":5540:5562  uint256 i = startIndex */\n      swap1\n      pop\n        /* \"contracts/InquireA.sol\":5535:5668  for (uint256 i = startIndex; i <= endIndex; i++) {... */\n    tag_445:\n        /* \"contracts/InquireA.sol\":5569:5577  endIndex */\n      dup4\n        /* \"contracts/InquireA.sol\":5564:5565  i */\n      dup2\n        /* \"contracts/InquireA.sol\":5564:5577  i <= endIndex */\n      gt\n        /* \"contracts/InquireA.sol\":5535:5668  for (uint256 i = startIndex; i <= endIndex; i++) {... */\n      tag_446\n      jumpi\n        /* \"contracts/InquireA.sol\":5622:5631  questions */\n      0x04\n        /* \"contracts/InquireA.sol\":5622:5634  questions[i] */\n      0x00\n        /* \"contracts/InquireA.sol\":5632:5633  i */\n      dup3\n        /* \"contracts/InquireA.sol\":5622:5634  questions[i] */\n      dup2\n      mstore\n      0x20\n      add\n      swap1\n      dup2\n      mstore\n      0x20\n      add\n      0x00\n      keccak256\n        /* \"contracts/InquireA.sol\":5599:5634  questionsList[index] = questions[i] */\n      mload(0x40)\n      dup1\n      0x0140\n      add\n      0x40\n      mstore\n      swap1\n      dup2\n      0x00\n      dup3\n      add\n      sload\n      dup2\n      mstore\n      0x20\n      add\n      0x01\n      dup3\n      add\n      0x00\n      swap1\n      sload\n      swap1\n      0x0100\n      exp\n      swap1\n      div\n      0xffffffffffffffffffffffffffffffffffffffff\n      and\n      0xffffffffffffffffffffffffffffffffffffffff\n      and\n      0xffffffffffffffffffffffffffffffffffffffff\n      and\n      dup2\n      mstore\n      0x20\n      add\n      0x02\n      dup3\n      add\n      dup1\n      sload\n      tag_448\n      swap1\n      tag_158\n      jump\t// in\n    tag_448:\n      dup1\n      0x1f\n      add\n      0x20\n      dup1\n      swap2\n      div\n      mul\n      0x20\n      add\n      mload(0x40)\n      swap1\n      dup2\n      add\n      0x40\n      mstore\n      dup1\n      swap3\n      swap2\n      swap1\n      dup2\n      dup2\n      mstore\n      0x20\n      add\n      dup3\n      dup1\n      sload\n      tag_449\n      swap1\n      tag_158\n      jump\t// in\n    tag_449:\n      dup1\n      iszero\n      tag_450\n      jumpi\n      dup1\n      0x1f\n      lt\n      tag_451\n      jumpi\n      0x0100\n      dup1\n      dup4\n      sload\n      div\n      mul\n      dup4\n      mstore\n      swap2\n      0x20\n      add\n      swap2\n      jump(tag_450)\n    tag_451:\n      dup3\n      add\n      swap2\n      swap1\n      0x00\n      mstore\n      keccak256(0x00, 0x20)\n      swap1\n    tag_452:\n      dup2\n      sload\n      dup2\n      mstore\n      swap1\n      0x01\n      add\n      swap1\n      0x20\n      add\n      dup1\n      dup4\n      gt\n      tag_452\n      jumpi\n      dup3\n      swap1\n      sub\n      0x1f\n      and\n      dup3\n      add\n      swap2\n    tag_450:\n      pop\n      pop\n      pop\n      pop\n      pop\n      dup2\n      mstore\n      0x20\n      add\n      0x03\n      dup3\n      add\n      dup1\n      sload\n      tag_453\n      swap1\n      tag_158\n      jump\t// in\n    tag_453:\n      dup1\n      0x1f\n      add\n      0x20\n      dup1\n      swap2\n      div\n      mul\n      0x20\n      add\n      mload(0x40)\n      swap1\n      dup2\n      add\n      0x40\n      mstore\n      dup1\n      swap3\n      swap2\n      swap1\n      dup2\n      dup2\n      mstore\n      0x20\n      add\n      dup3\n      dup1\n      sload\n      tag_454\n      swap1\n      tag_158\n      jump\t// in\n    tag_454:\n      dup1\n      iszero\n      tag_455\n      jumpi\n      dup1\n      0x1f\n      lt\n      tag_456\n      jumpi\n      0x0100\n      dup1\n      dup4\n      sload\n      div\n      mul\n      dup4\n      mstore\n      swap2\n      0x20\n      add\n      swap2\n      jump(tag_455)\n    tag_456:\n      dup3\n      add\n      swap2\n      swap1\n      0x00\n      mstore\n      keccak256(0x00, 0x20)\n      swap1\n    tag_457:\n      dup2\n      sload\n      dup2\n      mstore\n      swap1\n      0x01\n      add\n      swap1\n      0x20\n      add\n      dup1\n      dup4\n      gt\n      tag_457\n      jumpi\n      dup3\n      swap1\n      sub\n      0x1f\n      and\n      dup3\n      add\n      swap2\n    tag_455:\n      pop\n      pop\n      pop\n      pop\n      pop\n      dup2\n      mstore\n      0x20\n      add\n      0x04\n      dup3\n      add\n      dup1\n      sload\n      tag_458\n      swap1\n      tag_158\n      jump\t// in\n    tag_458:\n      dup1\n      0x1f\n      add\n      0x20\n      dup1\n      swap2\n      div\n      mul\n      0x20\n      add\n      mload(0x40)\n      swap1\n      dup2\n      add\n      0x40\n      mstore\n      dup1\n      swap3\n      swap2\n      swap1\n      dup2\n      dup2\n      mstore\n      0x20\n      add\n      dup3\n      dup1\n      sload\n      tag_459\n      swap1\n      tag_158\n      jump\t// in\n    tag_459:\n      dup1\n      iszero\n      tag_460\n      jumpi\n      dup1\n      0x1f\n      lt\n      tag_461\n      jumpi\n      0x0100\n      dup1\n      dup4\n      sload\n      div\n      mul\n      dup4\n      mstore\n      swap2\n      0x20\n      add\n      swap2\n      jump(tag_460)\n    tag_461:\n      dup3\n      add\n      swap2\n      swap1\n      0x00\n      mstore\n      keccak256(0x00, 0x20)\n      swap1\n    tag_462:\n      dup2\n      sload\n      dup2\n      mstore\n      swap1\n      0x01\n      add\n      swap1\n      0x20\n      add\n      dup1\n      dup4\n      gt\n      tag_462\n      jumpi\n      dup3\n      swap1\n      sub\n      0x1f\n      and\n      dup3\n      add\n      swap2\n    tag_460:\n      pop\n      pop\n      pop\n      pop\n      pop\n      dup2\n      mstore\n      0x20\n      add\n      0x05\n      dup3\n      add\n      sload\n      dup2\n      mstore\n      0x20\n      add\n      0x06\n      dup3\n      add\n      sload\n      dup2\n      mstore\n      0x20\n      add\n      0x07\n      dup3\n      add\n      sload\n      dup2\n      mstore\n      0x20\n      add\n      0x08\n      dup3\n      add\n      0x00\n      swap1\n      sload\n      swap1\n      0x0100\n      exp\n      swap1\n      div\n      0xff\n      and\n      iszero\n      iszero\n      iszero\n      iszero\n      dup2\n      mstore\n      0x20\n      add\n      0x09\n      dup3\n      add\n      sload\n      dup2\n      mstore\n      pop\n      pop\n        /* \"contracts/InquireA.sol\":5599:5612  questionsList */\n      dup9\n        /* \"contracts/InquireA.sol\":5613:5618  index */\n      dup4\n        /* \"contracts/InquireA.sol\":5599:5619  questionsList[index] */\n      dup2\n      mload\n      dup2\n      lt\n      tag_463\n      jumpi\n      tag_464\n      tag_264\n      jump\t// in\n    tag_464:\n    tag_463:\n      0x20\n      mul\n      0x20\n      add\n      add\n        /* \"contracts/InquireA.sol\":5599:5634  questionsList[index] = questions[i] */\n      dup2\n      swap1\n      mstore\n      pop\n        /* \"contracts/InquireA.sol\":5649:5656  index++ */\n      dup2\n      dup1\n      tag_465\n      swap1\n      tag_177\n      jump\t// in\n    tag_465:\n      swap3\n      pop\n      pop\n        /* \"contracts/InquireA.sol\":5579:5582  i++ */\n      dup1\n      dup1\n      tag_466\n      swap1\n      tag_177\n      jump\t// in\n    tag_466:\n      swap2\n      pop\n      pop\n        /* \"contracts/InquireA.sol\":5535:5668  for (uint256 i = startIndex; i <= endIndex; i++) {... */\n      jump(tag_445)\n    tag_446:\n      pop\n        /* \"contracts/InquireA.sol\":5680:5730  return (questionsList, totalQuestions, totalPages) */\n      pop\n      pop\n      pop\n      pop\n        /* \"contracts/InquireA.sol\":4382:5738  function getQuestions(uint256 pageIndex, uint256 pageSize) ... */\n    tag_413:\n      swap3\n      pop\n      swap3\n      pop\n      swap3\n      jump\t// out\n    tag_241:\n      mload(0x40)\n      dup1\n      0xc0\n      add\n      0x40\n      mstore\n      dup1\n      0x00\n      dup2\n      mstore\n      0x20\n      add\n      and(0xffffffffffffffffffffffffffffffffffffffff, 0x00)\n      dup2\n      mstore\n      0x20\n      add\n      0x60\n      dup2\n      mstore\n      0x20\n      add\n      0x00\n      dup2\n      mstore\n      0x20\n      add\n      0x00\n      dup2\n      mstore\n      0x20\n      add\n      0x00\n      dup2\n      mstore\n      pop\n      swap1\n      jump\t// out\n    tag_335:\n      mload(0x40)\n      dup1\n      0x0140\n      add\n      0x40\n      mstore\n      dup1\n      0x00\n      dup2\n      mstore\n      0x20\n      add\n      and(0xffffffffffffffffffffffffffffffffffffffff, 0x00)\n      dup2\n      mstore\n      0x20\n      add\n      0x60\n      dup2\n      mstore\n      0x20\n      add\n      0x60\n      dup2\n      mstore\n      0x20\n      add\n      0x60\n      dup2\n      mstore\n      0x20\n      add\n      0x00\n      dup2\n      mstore\n      0x20\n      add\n      0x00\n      dup2\n      mstore\n      0x20\n      add\n      0x00\n      dup2\n      mstore\n      0x20\n      add\n      iszero(iszero(0x00))\n      dup2\n      mstore\n      0x20\n      add\n      0x00\n      dup2\n      mstore\n      pop\n      swap1\n      jump\t// out\n        /* \"#utility.yul\":7:82   */\n    tag_467:\n        /* \"#utility.yul\":40:46   */\n      0x00\n        /* \"#utility.yul\":73:75   */\n      0x40\n        /* \"#utility.yul\":67:76   */\n      mload\n        /* \"#utility.yul\":57:76   */\n      swap1\n      pop\n        /* \"#utility.yul\":7:82   */\n      swap1\n      jump\t// out\n        /* \"#utility.yul\":88:205   */\n    tag_468:\n        /* \"#utility.yul\":197:198   */\n      0x00\n        /* \"#utility.yul\":194:195   */\n      dup1\n        /* \"#utility.yul\":187:199   */\n      revert\n        /* \"#utility.yul\":211:328   */\n    tag_469:\n        /* \"#utility.yul\":320:321   */\n      0x00\n        /* \"#utility.yul\":317:318   */\n      dup1\n        /* \"#utility.yul\":310:322   */\n      revert\n        /* \"#utility.yul\":334:411   */\n    tag_470:\n        /* \"#utility.yul\":371:378   */\n      0x00\n        /* \"#utility.yul\":400:405   */\n      dup2\n        /* \"#utility.yul\":389:405   */\n      swap1\n      pop\n        /* \"#utility.yul\":334:411   */\n      swap2\n      swap1\n      pop\n      jump\t// out\n        /* \"#utility.yul\":417:539   */\n    tag_471:\n        /* \"#utility.yul\":490:514   */\n      tag_578\n        /* \"#utility.yul\":508:513   */\n      dup2\n        /* \"#utility.yul\":490:514   */\n      tag_470\n      jump\t// in\n    tag_578:\n        /* \"#utility.yul\":483:488   */\n      dup2\n        /* \"#utility.yul\":480:515   */\n      eq\n        /* \"#utility.yul\":470:533   */\n      tag_579\n      jumpi\n        /* \"#utility.yul\":529:530   */\n      0x00\n        /* \"#utility.yul\":526:527   */\n      dup1\n        /* \"#utility.yul\":519:531   */\n      revert\n        /* \"#utility.yul\":470:533   */\n    tag_579:\n        /* \"#utility.yul\":417:539   */\n      pop\n      jump\t// out\n        /* \"#utility.yul\":545:684   */\n    tag_472:\n        /* \"#utility.yul\":591:596   */\n      0x00\n        /* \"#utility.yul\":629:635   */\n      dup2\n        /* \"#utility.yul\":616:636   */\n      calldataload\n        /* \"#utility.yul\":607:636   */\n      swap1\n      pop\n        /* \"#utility.yul\":645:678   */\n      tag_581\n        /* \"#utility.yul\":672:677   */\n      dup2\n        /* \"#utility.yul\":645:678   */\n      tag_471\n      jump\t// in\n    tag_581:\n        /* \"#utility.yul\":545:684   */\n      swap3\n      swap2\n      pop\n      pop\n      jump\t// out\n        /* \"#utility.yul\":690:1164   */\n    tag_30:\n        /* \"#utility.yul\":758:764   */\n      0x00\n        /* \"#utility.yul\":766:772   */\n      dup1\n        /* \"#utility.yul\":815:817   */\n      0x40\n        /* \"#utility.yul\":803:812   */\n      dup4\n        /* \"#utility.yul\":794:801   */\n      dup6\n        /* \"#utility.yul\":790:813   */\n      sub\n        /* \"#utility.yul\":786:818   */\n      slt\n        /* \"#utility.yul\":783:902   */\n      iszero\n      tag_583\n      jumpi\n        /* \"#utility.yul\":821:900   */\n      tag_584\n      tag_468\n      jump\t// in\n    tag_584:\n        /* \"#utility.yul\":783:902   */\n    tag_583:\n        /* \"#utility.yul\":941:942   */\n      0x00\n        /* \"#utility.yul\":966:1019   */\n      tag_585\n        /* \"#utility.yul\":1011:1018   */\n      dup6\n        /* \"#utility.yul\":1002:1008   */\n      dup3\n        /* \"#utility.yul\":991:1000   */\n      dup7\n        /* \"#utility.yul\":987:1009   */\n      add\n        /* \"#utility.yul\":966:1019   */\n      tag_472\n      jump\t// in\n    tag_585:\n        /* \"#utility.yul\":956:1019   */\n      swap3\n      pop\n        /* \"#utility.yul\":912:1029   */\n      pop\n        /* \"#utility.yul\":1068:1070   */\n      0x20\n        /* \"#utility.yul\":1094:1147   */\n      tag_586\n        /* \"#utility.yul\":1139:1146   */\n      dup6\n        /* \"#utility.yul\":1130:1136   */\n      dup3\n        /* \"#utility.yul\":1119:1128   */\n      dup7\n        /* \"#utility.yul\":1115:1137   */\n      add\n        /* \"#utility.yul\":1094:1147   */\n      tag_472\n      jump\t// in\n    tag_586:\n        /* \"#utility.yul\":1084:1147   */\n      swap2\n      pop\n        /* \"#utility.yul\":1039:1157   */\n      pop\n        /* \"#utility.yul\":690:1164   */\n      swap3\n      pop\n      swap3\n      swap1\n      pop\n      jump\t// out\n        /* \"#utility.yul\":1170:1287   */\n    tag_473:\n        /* \"#utility.yul\":1279:1280   */\n      0x00\n        /* \"#utility.yul\":1276:1277   */\n      dup1\n        /* \"#utility.yul\":1269:1281   */\n      revert\n        /* \"#utility.yul\":1293:1410   */\n    tag_474:\n        /* \"#utility.yul\":1402:1403   */\n      0x00\n        /* \"#utility.yul\":1399:1400   */\n      dup1\n        /* \"#utility.yul\":1392:1404   */\n      revert\n        /* \"#utility.yul\":1416:1518   */\n    tag_475:\n        /* \"#utility.yul\":1457:1463   */\n      0x00\n        /* \"#utility.yul\":1508:1510   */\n      0x1f\n        /* \"#utility.yul\":1504:1511   */\n      not\n        /* \"#utility.yul\":1499:1501   */\n      0x1f\n        /* \"#utility.yul\":1492:1497   */\n      dup4\n        /* \"#utility.yul\":1488:1502   */\n      add\n        /* \"#utility.yul\":1484:1512   */\n      and\n        /* \"#utility.yul\":1474:1512   */\n      swap1\n      pop\n        /* \"#utility.yul\":1416:1518   */\n      swap2\n      swap1\n      pop\n      jump\t// out\n        /* \"#utility.yul\":1524:1704   */\n    tag_254:\n        /* \"#utility.yul\":1572:1649   */\n      0x4e487b7100000000000000000000000000000000000000000000000000000000\n        /* \"#utility.yul\":1569:1570   */\n      0x00\n        /* \"#utility.yul\":1562:1650   */\n      mstore\n        /* \"#utility.yul\":1669:1673   */\n      0x41\n        /* \"#utility.yul\":1666:1667   */\n      0x04\n        /* \"#utility.yul\":1659:1674   */\n      mstore\n        /* \"#utility.yul\":1693:1697   */\n      0x24\n        /* \"#utility.yul\":1690:1691   */\n      0x00\n        /* \"#utility.yul\":1683:1698   */\n      revert\n        /* \"#utility.yul\":1710:1991   */\n    tag_476:\n        /* \"#utility.yul\":1793:1820   */\n      tag_592\n        /* \"#utility.yul\":1815:1819   */\n      dup3\n        /* \"#utility.yul\":1793:1820   */\n      tag_475\n      jump\t// in\n    tag_592:\n        /* \"#utility.yul\":1785:1791   */\n      dup2\n        /* \"#utility.yul\":1781:1821   */\n      add\n        /* \"#utility.yul\":1923:1929   */\n      dup2\n        /* \"#utility.yul\":1911:1921   */\n      dup2\n        /* \"#utility.yul\":1908:1930   */\n      lt\n        /* \"#utility.yul\":1887:1905   */\n      0xffffffffffffffff\n        /* \"#utility.yul\":1875:1885   */\n      dup3\n        /* \"#utility.yul\":1872:1906   */\n      gt\n        /* \"#utility.yul\":1869:1931   */\n      or\n        /* \"#utility.yul\":1866:1954   */\n      iszero\n      tag_593\n      jumpi\n        /* \"#utility.yul\":1934:1952   */\n      tag_594\n      tag_254\n      jump\t// in\n    tag_594:\n        /* \"#utility.yul\":1866:1954   */\n    tag_593:\n        /* \"#utility.yul\":1974:1984   */\n      dup1\n        /* \"#utility.yul\":1970:1972   */\n      0x40\n        /* \"#utility.yul\":1963:1985   */\n      mstore\n        /* \"#utility.yul\":1753:1991   */\n      pop\n        /* \"#utility.yul\":1710:1991   */\n      pop\n      pop\n      jump\t// out\n        /* \"#utility.yul\":1997:2126   */\n    tag_477:\n        /* \"#utility.yul\":2031:2037   */\n      0x00\n        /* \"#utility.yul\":2058:2078   */\n      tag_596\n      tag_467\n      jump\t// in\n    tag_596:\n        /* \"#utility.yul\":2048:2078   */\n      swap1\n      pop\n        /* \"#utility.yul\":2087:2120   */\n      tag_597\n        /* \"#utility.yul\":2115:2119   */\n      dup3\n        /* \"#utility.yul\":2107:2113   */\n      dup3\n        /* \"#utility.yul\":2087:2120   */\n      tag_476\n      jump\t// in\n    tag_597:\n        /* \"#utility.yul\":1997:2126   */\n      swap2\n      swap1\n      pop\n      jump\t// out\n        /* \"#utility.yul\":2132:2440   */\n    tag_478:\n        /* \"#utility.yul\":2194:2198   */\n      0x00\n        /* \"#utility.yul\":2284:2302   */\n      0xffffffffffffffff\n        /* \"#utility.yul\":2276:2282   */\n      dup3\n        /* \"#utility.yul\":2273:2303   */\n      gt\n        /* \"#utility.yul\":2270:2326   */\n      iszero\n      tag_599\n      jumpi\n        /* \"#utility.yul\":2306:2324   */\n      tag_600\n      tag_254\n      jump\t// in\n    tag_600:\n        /* \"#utility.yul\":2270:2326   */\n    tag_599:\n        /* \"#utility.yul\":2344:2373   */\n      tag_601\n        /* \"#utility.yul\":2366:2372   */\n      dup3\n        /* \"#utility.yul\":2344:2373   */\n      tag_475\n      jump\t// in\n    tag_601:\n        /* \"#utility.yul\":2336:2373   */\n      swap1\n      pop\n        /* \"#utility.yul\":2428:2432   */\n      0x20\n        /* \"#utility.yul\":2422:2426   */\n      dup2\n        /* \"#utility.yul\":2418:2433   */\n      add\n        /* \"#utility.yul\":2410:2433   */\n      swap1\n      pop\n        /* \"#utility.yul\":2132:2440   */\n      swap2\n      swap1\n      pop\n      jump\t// out\n        /* \"#utility.yul\":2446:2594   */\n    tag_479:\n        /* \"#utility.yul\":2544:2550   */\n      dup3\n        /* \"#utility.yul\":2539:2542   */\n      dup2\n        /* \"#utility.yul\":2534:2537   */\n      dup4\n        /* \"#utility.yul\":2521:2551   */\n      calldatacopy\n        /* \"#utility.yul\":2585:2586   */\n      0x00\n        /* \"#utility.yul\":2576:2582   */\n      dup4\n        /* \"#utility.yul\":2571:2574   */\n      dup4\n        /* \"#utility.yul\":2567:2583   */\n      add\n        /* \"#utility.yul\":2560:2587   */\n      mstore\n        /* \"#utility.yul\":2446:2594   */\n      pop\n      pop\n      pop\n      jump\t// out\n        /* \"#utility.yul\":2600:3025   */\n    tag_480:\n        /* \"#utility.yul\":2678:2683   */\n      0x00\n        /* \"#utility.yul\":2703:2769   */\n      tag_604\n        /* \"#utility.yul\":2719:2768   */\n      tag_605\n        /* \"#utility.yul\":2761:2767   */\n      dup5\n        /* \"#utility.yul\":2719:2768   */\n      tag_478\n      jump\t// in\n    tag_605:\n        /* \"#utility.yul\":2703:2769   */\n      tag_477\n      jump\t// in\n    tag_604:\n        /* \"#utility.yul\":2694:2769   */\n      swap1\n      pop\n        /* \"#utility.yul\":2792:2798   */\n      dup3\n        /* \"#utility.yul\":2785:2790   */\n      dup2\n        /* \"#utility.yul\":2778:2799   */\n      mstore\n        /* \"#utility.yul\":2830:2834   */\n      0x20\n        /* \"#utility.yul\":2823:2828   */\n      dup2\n        /* \"#utility.yul\":2819:2835   */\n      add\n        /* \"#utility.yul\":2868:2871   */\n      dup5\n        /* \"#utility.yul\":2859:2865   */\n      dup5\n        /* \"#utility.yul\":2854:2857   */\n      dup5\n        /* \"#utility.yul\":2850:2866   */\n      add\n        /* \"#utility.yul\":2847:2872   */\n      gt\n        /* \"#utility.yul\":2844:2956   */\n      iszero\n      tag_606\n      jumpi\n        /* \"#utility.yul\":2875:2954   */\n      tag_607\n      tag_474\n      jump\t// in\n    tag_607:\n        /* \"#utility.yul\":2844:2956   */\n    tag_606:\n        /* \"#utility.yul\":2965:3019   */\n      tag_608\n        /* \"#utility.yul\":3012:3018   */\n      dup5\n        /* \"#utility.yul\":3007:3010   */\n      dup3\n        /* \"#utility.yul\":3002:3005   */\n      dup6\n        /* \"#utility.yul\":2965:3019   */\n      tag_479\n      jump\t// in\n    tag_608:\n        /* \"#utility.yul\":2684:3025   */\n      pop\n        /* \"#utility.yul\":2600:3025   */\n      swap4\n      swap3\n      pop\n      pop\n      pop\n      jump\t// out\n        /* \"#utility.yul\":3045:3385   */\n    tag_481:\n        /* \"#utility.yul\":3101:3106   */\n      0x00\n        /* \"#utility.yul\":3150:3153   */\n      dup3\n        /* \"#utility.yul\":3143:3147   */\n      0x1f\n        /* \"#utility.yul\":3135:3141   */\n      dup4\n        /* \"#utility.yul\":3131:3148   */\n      add\n        /* \"#utility.yul\":3127:3154   */\n      slt\n        /* \"#utility.yul\":3117:3239   */\n      tag_610\n      jumpi\n        /* \"#utility.yul\":3158:3237   */\n      tag_611\n      tag_473\n      jump\t// in\n    tag_611:\n        /* \"#utility.yul\":3117:3239   */\n    tag_610:\n        /* \"#utility.yul\":3275:3281   */\n      dup2\n        /* \"#utility.yul\":3262:3282   */\n      calldataload\n        /* \"#utility.yul\":3300:3379   */\n      tag_612\n        /* \"#utility.yul\":3375:3378   */\n      dup5\n        /* \"#utility.yul\":3367:3373   */\n      dup3\n        /* \"#utility.yul\":3360:3364   */\n      0x20\n        /* \"#utility.yul\":3352:3358   */\n      dup7\n        /* \"#utility.yul\":3348:3365   */\n      add\n        /* \"#utility.yul\":3300:3379   */\n      tag_480\n      jump\t// in\n    tag_612:\n        /* \"#utility.yul\":3291:3379   */\n      swap2\n      pop\n        /* \"#utility.yul\":3107:3385   */\n      pop\n        /* \"#utility.yul\":3045:3385   */\n      swap3\n      swap2\n      pop\n      pop\n      jump\t// out\n        /* \"#utility.yul\":3391:4045   */\n    tag_35:\n        /* \"#utility.yul\":3469:3475   */\n      0x00\n        /* \"#utility.yul\":3477:3483   */\n      dup1\n        /* \"#utility.yul\":3526:3528   */\n      0x40\n        /* \"#utility.yul\":3514:3523   */\n      dup4\n        /* \"#utility.yul\":3505:3512   */\n      dup6\n        /* \"#utility.yul\":3501:3524   */\n      sub\n        /* \"#utility.yul\":3497:3529   */\n      slt\n        /* \"#utility.yul\":3494:3613   */\n      iszero\n      tag_614\n      jumpi\n        /* \"#utility.yul\":3532:3611   */\n      tag_615\n      tag_468\n      jump\t// in\n    tag_615:\n        /* \"#utility.yul\":3494:3613   */\n    tag_614:\n        /* \"#utility.yul\":3652:3653   */\n      0x00\n        /* \"#utility.yul\":3677:3730   */\n      tag_616\n        /* \"#utility.yul\":3722:3729   */\n      dup6\n        /* \"#utility.yul\":3713:3719   */\n      dup3\n        /* \"#utility.yul\":3702:3711   */\n      dup7\n        /* \"#utility.yul\":3698:3720   */\n      add\n        /* \"#utility.yul\":3677:3730   */\n      tag_472\n      jump\t// in\n    tag_616:\n        /* \"#utility.yul\":3667:3730   */\n      swap3\n      pop\n        /* \"#utility.yul\":3623:3740   */\n      pop\n        /* \"#utility.yul\":3807:3809   */\n      0x20\n        /* \"#utility.yul\":3796:3805   */\n      dup4\n        /* \"#utility.yul\":3792:3810   */\n      add\n        /* \"#utility.yul\":3779:3811   */\n      calldataload\n        /* \"#utility.yul\":3838:3856   */\n      0xffffffffffffffff\n        /* \"#utility.yul\":3830:3836   */\n      dup2\n        /* \"#utility.yul\":3827:3857   */\n      gt\n        /* \"#utility.yul\":3824:3941   */\n      iszero\n      tag_617\n      jumpi\n        /* \"#utility.yul\":3860:3939   */\n      tag_618\n      tag_469\n      jump\t// in\n    tag_618:\n        /* \"#utility.yul\":3824:3941   */\n    tag_617:\n        /* \"#utility.yul\":3965:4028   */\n      tag_619\n        /* \"#utility.yul\":4020:4027   */\n      dup6\n        /* \"#utility.yul\":4011:4017   */\n      dup3\n        /* \"#utility.yul\":4000:4009   */\n      dup7\n        /* \"#utility.yul\":3996:4018   */\n      add\n        /* \"#utility.yul\":3965:4028   */\n      tag_481\n      jump\t// in\n    tag_619:\n        /* \"#utility.yul\":3955:4028   */\n      swap2\n      pop\n        /* \"#utility.yul\":3750:4038   */\n      pop\n        /* \"#utility.yul\":3391:4045   */\n      swap3\n      pop\n      swap3\n      swap1\n      pop\n      jump\t// out\n        /* \"#utility.yul\":4051:4169   */\n    tag_482:\n        /* \"#utility.yul\":4138:4162   */\n      tag_621\n        /* \"#utility.yul\":4156:4161   */\n      dup2\n        /* \"#utility.yul\":4138:4162   */\n      tag_470\n      jump\t// in\n    tag_621:\n        /* \"#utility.yul\":4133:4136   */\n      dup3\n        /* \"#utility.yul\":4126:4163   */\n      mstore\n        /* \"#utility.yul\":4051:4169   */\n      pop\n      pop\n      jump\t// out\n        /* \"#utility.yul\":4175:4301   */\n    tag_483:\n        /* \"#utility.yul\":4212:4219   */\n      0x00\n        /* \"#utility.yul\":4252:4294   */\n      0xffffffffffffffffffffffffffffffffffffffff\n        /* \"#utility.yul\":4245:4250   */\n      dup3\n        /* \"#utility.yul\":4241:4295   */\n      and\n        /* \"#utility.yul\":4230:4295   */\n      swap1\n      pop\n        /* \"#utility.yul\":4175:4301   */\n      swap2\n      swap1\n      pop\n      jump\t// out\n        /* \"#utility.yul\":4307:4403   */\n    tag_484:\n        /* \"#utility.yul\":4344:4351   */\n      0x00\n        /* \"#utility.yul\":4373:4397   */\n      tag_624\n        /* \"#utility.yul\":4391:4396   */\n      dup3\n        /* \"#utility.yul\":4373:4397   */\n      tag_483\n      jump\t// in\n    tag_624:\n        /* \"#utility.yul\":4362:4397   */\n      swap1\n      pop\n        /* \"#utility.yul\":4307:4403   */\n      swap2\n      swap1\n      pop\n      jump\t// out\n        /* \"#utility.yul\":4409:4527   */\n    tag_485:\n        /* \"#utility.yul\":4496:4520   */\n      tag_626\n        /* \"#utility.yul\":4514:4519   */\n      dup2\n        /* \"#utility.yul\":4496:4520   */\n      tag_484\n      jump\t// in\n    tag_626:\n        /* \"#utility.yul\":4491:4494   */\n      dup3\n        /* \"#utility.yul\":4484:4521   */\n      mstore\n        /* \"#utility.yul\":4409:4527   */\n      pop\n      pop\n      jump\t// out\n        /* \"#utility.yul\":4533:4632   */\n    tag_486:\n        /* \"#utility.yul\":4585:4591   */\n      0x00\n        /* \"#utility.yul\":4619:4624   */\n      dup2\n        /* \"#utility.yul\":4613:4625   */\n      mload\n        /* \"#utility.yul\":4603:4625   */\n      swap1\n      pop\n        /* \"#utility.yul\":4533:4632   */\n      swap2\n      swap1\n      pop\n      jump\t// out\n        /* \"#utility.yul\":4638:4807   */\n    tag_487:\n        /* \"#utility.yul\":4722:4733   */\n      0x00\n        /* \"#utility.yul\":4756:4762   */\n      dup3\n        /* \"#utility.yul\":4751:4754   */\n      dup3\n        /* \"#utility.yul\":4744:4763   */\n      mstore\n        /* \"#utility.yul\":4796:4800   */\n      0x20\n        /* \"#utility.yul\":4791:4794   */\n      dup3\n        /* \"#utility.yul\":4787:4801   */\n      add\n        /* \"#utility.yul\":4772:4801   */\n      swap1\n      pop\n        /* \"#utility.yul\":4638:4807   */\n      swap3\n      swap2\n      pop\n      pop\n      jump\t// out\n        /* \"#utility.yul\":4813:4952   */\n    tag_488:\n        /* \"#utility.yul\":4902:4908   */\n      dup3\n        /* \"#utility.yul\":4897:4900   */\n      dup2\n        /* \"#utility.yul\":4892:4895   */\n      dup4\n        /* \"#utility.yul\":4886:4909   */\n      mcopy\n        /* \"#utility.yul\":4943:4944   */\n      0x00\n        /* \"#utility.yul\":4934:4940   */\n      dup4\n        /* \"#utility.yul\":4929:4932   */\n      dup4\n        /* \"#utility.yul\":4925:4941   */\n      add\n        /* \"#utility.yul\":4918:4945   */\n      mstore\n        /* \"#utility.yul\":4813:4952   */\n      pop\n      pop\n      pop\n      jump\t// out\n        /* \"#utility.yul\":4958:5335   */\n    tag_489:\n        /* \"#utility.yul\":5046:5049   */\n      0x00\n        /* \"#utility.yul\":5074:5113   */\n      tag_631\n        /* \"#utility.yul\":5107:5112   */\n      dup3\n        /* \"#utility.yul\":5074:5113   */\n      tag_486\n      jump\t// in\n    tag_631:\n        /* \"#utility.yul\":5129:5200   */\n      tag_632\n        /* \"#utility.yul\":5193:5199   */\n      dup2\n        /* \"#utility.yul\":5188:5191   */\n      dup6\n        /* \"#utility.yul\":5129:5200   */\n      tag_487\n      jump\t// in\n    tag_632:\n        /* \"#utility.yul\":5122:5200   */\n      swap4\n      pop\n        /* \"#utility.yul\":5209:5274   */\n      tag_633\n        /* \"#utility.yul\":5267:5273   */\n      dup2\n        /* \"#utility.yul\":5262:5265   */\n      dup6\n        /* \"#utility.yul\":5255:5259   */\n      0x20\n        /* \"#utility.yul\":5248:5253   */\n      dup7\n        /* \"#utility.yul\":5244:5260   */\n      add\n        /* \"#utility.yul\":5209:5274   */\n      tag_488\n      jump\t// in\n    tag_633:\n        /* \"#utility.yul\":5299:5328   */\n      tag_634\n        /* \"#utility.yul\":5321:5327   */\n      dup2\n        /* \"#utility.yul\":5299:5328   */\n      tag_475\n      jump\t// in\n    tag_634:\n        /* \"#utility.yul\":5294:5297   */\n      dup5\n        /* \"#utility.yul\":5290:5329   */\n      add\n        /* \"#utility.yul\":5283:5329   */\n      swap2\n      pop\n        /* \"#utility.yul\":5050:5335   */\n      pop\n        /* \"#utility.yul\":4958:5335   */\n      swap3\n      swap2\n      pop\n      pop\n      jump\t// out\n        /* \"#utility.yul\":5341:6207   */\n    tag_42:\n        /* \"#utility.yul\":5594:5598   */\n      0x00\n        /* \"#utility.yul\":5632:5635   */\n      0xc0\n        /* \"#utility.yul\":5621:5630   */\n      dup3\n        /* \"#utility.yul\":5617:5636   */\n      add\n        /* \"#utility.yul\":5609:5636   */\n      swap1\n      pop\n        /* \"#utility.yul\":5646:5717   */\n      tag_636\n        /* \"#utility.yul\":5714:5715   */\n      0x00\n        /* \"#utility.yul\":5703:5712   */\n      dup4\n        /* \"#utility.yul\":5699:5716   */\n      add\n        /* \"#utility.yul\":5690:5696   */\n      dup10\n        /* \"#utility.yul\":5646:5717   */\n      tag_482\n      jump\t// in\n    tag_636:\n        /* \"#utility.yul\":5727:5799   */\n      tag_637\n        /* \"#utility.yul\":5795:5797   */\n      0x20\n        /* \"#utility.yul\":5784:5793   */\n      dup4\n        /* \"#utility.yul\":5780:5798   */\n      add\n        /* \"#utility.yul\":5771:5777   */\n      dup9\n        /* \"#utility.yul\":5727:5799   */\n      tag_485\n      jump\t// in\n    tag_637:\n        /* \"#utility.yul\":5846:5855   */\n      dup2\n        /* \"#utility.yul\":5840:5844   */\n      dup2\n        /* \"#utility.yul\":5836:5856   */\n      sub\n        /* \"#utility.yul\":5831:5833   */\n      0x40\n        /* \"#utility.yul\":5820:5829   */\n      dup4\n        /* \"#utility.yul\":5816:5834   */\n      add\n        /* \"#utility.yul\":5809:5857   */\n      mstore\n        /* \"#utility.yul\":5874:5952   */\n      tag_638\n        /* \"#utility.yul\":5947:5951   */\n      dup2\n        /* \"#utility.yul\":5938:5944   */\n      dup8\n        /* \"#utility.yul\":5874:5952   */\n      tag_489\n      jump\t// in\n    tag_638:\n        /* \"#utility.yul\":5866:5952   */\n      swap1\n      pop\n        /* \"#utility.yul\":5962:6034   */\n      tag_639\n        /* \"#utility.yul\":6030:6032   */\n      0x60\n        /* \"#utility.yul\":6019:6028   */\n      dup4\n        /* \"#utility.yul\":6015:6033   */\n      add\n        /* \"#utility.yul\":6006:6012   */\n      dup7\n        /* \"#utility.yul\":5962:6034   */\n      tag_482\n      jump\t// in\n    tag_639:\n        /* \"#utility.yul\":6044:6117   */\n      tag_640\n        /* \"#utility.yul\":6112:6115   */\n      0x80\n        /* \"#utility.yul\":6101:6110   */\n      dup4\n        /* \"#utility.yul\":6097:6116   */\n      add\n        /* \"#utility.yul\":6088:6094   */\n      dup6\n        /* \"#utility.yul\":6044:6117   */\n      tag_482\n      jump\t// in\n    tag_640:\n        /* \"#utility.yul\":6127:6200   */\n      tag_641\n        /* \"#utility.yul\":6195:6198   */\n      0xa0\n        /* \"#utility.yul\":6184:6193   */\n      dup4\n        /* \"#utility.yul\":6180:6199   */\n      add\n        /* \"#utility.yul\":6171:6177   */\n      dup5\n        /* \"#utility.yul\":6127:6200   */\n      tag_482\n      jump\t// in\n    tag_641:\n        /* \"#utility.yul\":5341:6207   */\n      swap8\n      swap7\n      pop\n      pop\n      pop\n      pop\n      pop\n      pop\n      pop\n      jump\t// out\n        /* \"#utility.yul\":6213:6335   */\n    tag_490:\n        /* \"#utility.yul\":6286:6310   */\n      tag_643\n        /* \"#utility.yul\":6304:6309   */\n      dup2\n        /* \"#utility.yul\":6286:6310   */\n      tag_484\n      jump\t// in\n    tag_643:\n        /* \"#utility.yul\":6279:6284   */\n      dup2\n        /* \"#utility.yul\":6276:6311   */\n      eq\n        /* \"#utility.yul\":6266:6329   */\n      tag_644\n      jumpi\n        /* \"#utility.yul\":6325:6326   */\n      0x00\n        /* \"#utility.yul\":6322:6323   */\n      dup1\n        /* \"#utility.yul\":6315:6327   */\n      revert\n        /* \"#utility.yul\":6266:6329   */\n    tag_644:\n        /* \"#utility.yul\":6213:6335   */\n      pop\n      jump\t// out\n        /* \"#utility.yul\":6341:6480   */\n    tag_491:\n        /* \"#utility.yul\":6387:6392   */\n      0x00\n        /* \"#utility.yul\":6425:6431   */\n      dup2\n        /* \"#utility.yul\":6412:6432   */\n      calldataload\n        /* \"#utility.yul\":6403:6432   */\n      swap1\n      pop\n        /* \"#utility.yul\":6441:6474   */\n      tag_646\n        /* \"#utility.yul\":6468:6473   */\n      dup2\n        /* \"#utility.yul\":6441:6474   */\n      tag_490\n      jump\t// in\n    tag_646:\n        /* \"#utility.yul\":6341:6480   */\n      swap3\n      swap2\n      pop\n      pop\n      jump\t// out\n        /* \"#utility.yul\":6486:6815   */\n    tag_49:\n        /* \"#utility.yul\":6545:6551   */\n      0x00\n        /* \"#utility.yul\":6594:6596   */\n      0x20\n        /* \"#utility.yul\":6582:6591   */\n      dup3\n        /* \"#utility.yul\":6573:6580   */\n      dup5\n        /* \"#utility.yul\":6569:6592   */\n      sub\n        /* \"#utility.yul\":6565:6597   */\n      slt\n        /* \"#utility.yul\":6562:6681   */\n      iszero\n      tag_648\n      jumpi\n        /* \"#utility.yul\":6600:6679   */\n      tag_649\n      tag_468\n      jump\t// in\n    tag_649:\n        /* \"#utility.yul\":6562:6681   */\n    tag_648:\n        /* \"#utility.yul\":6720:6721   */\n      0x00\n        /* \"#utility.yul\":6745:6798   */\n      tag_650\n        /* \"#utility.yul\":6790:6797   */\n      dup5\n        /* \"#utility.yul\":6781:6787   */\n      dup3\n        /* \"#utility.yul\":6770:6779   */\n      dup6\n        /* \"#utility.yul\":6766:6788   */\n      add\n        /* \"#utility.yul\":6745:6798   */\n      tag_491\n      jump\t// in\n    tag_650:\n        /* \"#utility.yul\":6735:6798   */\n      swap2\n      pop\n        /* \"#utility.yul\":6691:6808   */\n      pop\n        /* \"#utility.yul\":6486:6815   */\n      swap3\n      swap2\n      pop\n      pop\n      jump\t// out\n        /* \"#utility.yul\":6821:7043   */\n    tag_52:\n        /* \"#utility.yul\":6914:6918   */\n      0x00\n        /* \"#utility.yul\":6952:6954   */\n      0x20\n        /* \"#utility.yul\":6941:6950   */\n      dup3\n        /* \"#utility.yul\":6937:6955   */\n      add\n        /* \"#utility.yul\":6929:6955   */\n      swap1\n      pop\n        /* \"#utility.yul\":6965:7036   */\n      tag_652\n        /* \"#utility.yul\":7033:7034   */\n      0x00\n        /* \"#utility.yul\":7022:7031   */\n      dup4\n        /* \"#utility.yul\":7018:7035   */\n      add\n        /* \"#utility.yul\":7009:7015   */\n      dup5\n        /* \"#utility.yul\":6965:7036   */\n      tag_482\n      jump\t// in\n    tag_652:\n        /* \"#utility.yul\":6821:7043   */\n      swap3\n      swap2\n      pop\n      pop\n      jump\t// out\n        /* \"#utility.yul\":7049:7378   */\n    tag_56:\n        /* \"#utility.yul\":7108:7114   */\n      0x00\n        /* \"#utility.yul\":7157:7159   */\n      0x20\n        /* \"#utility.yul\":7145:7154   */\n      dup3\n        /* \"#utility.yul\":7136:7143   */\n      dup5\n        /* \"#utility.yul\":7132:7155   */\n      sub\n        /* \"#utility.yul\":7128:7160   */\n      slt\n        /* \"#utility.yul\":7125:7244   */\n      iszero\n      tag_654\n      jumpi\n        /* \"#utility.yul\":7163:7242   */\n      tag_655\n      tag_468\n      jump\t// in\n    tag_655:\n        /* \"#utility.yul\":7125:7244   */\n    tag_654:\n        /* \"#utility.yul\":7283:7284   */\n      0x00\n        /* \"#utility.yul\":7308:7361   */\n      tag_656\n        /* \"#utility.yul\":7353:7360   */\n      dup5\n        /* \"#utility.yul\":7344:7350   */\n      dup3\n        /* \"#utility.yul\":7333:7342   */\n      dup6\n        /* \"#utility.yul\":7329:7351   */\n      add\n        /* \"#utility.yul\":7308:7361   */\n      tag_472\n      jump\t// in\n    tag_656:\n        /* \"#utility.yul\":7298:7361   */\n      swap2\n      pop\n        /* \"#utility.yul\":7254:7371   */\n      pop\n        /* \"#utility.yul\":7049:7378   */\n      swap3\n      swap2\n      pop\n      pop\n      jump\t// out\n        /* \"#utility.yul\":7384:7474   */\n    tag_492:\n        /* \"#utility.yul\":7418:7425   */\n      0x00\n        /* \"#utility.yul\":7461:7466   */\n      dup2\n        /* \"#utility.yul\":7454:7467   */\n      iszero\n        /* \"#utility.yul\":7447:7468   */\n      iszero\n        /* \"#utility.yul\":7436:7468   */\n      swap1\n      pop\n        /* \"#utility.yul\":7384:7474   */\n      swap2\n      swap1\n      pop\n      jump\t// out\n        /* \"#utility.yul\":7480:7589   */\n    tag_493:\n        /* \"#utility.yul\":7561:7582   */\n      tag_659\n        /* \"#utility.yul\":7576:7581   */\n      dup2\n        /* \"#utility.yul\":7561:7582   */\n      tag_492\n      jump\t// in\n    tag_659:\n        /* \"#utility.yul\":7556:7559   */\n      dup3\n        /* \"#utility.yul\":7549:7583   */\n      mstore\n        /* \"#utility.yul\":7480:7589   */\n      pop\n      pop\n      jump\t// out\n        /* \"#utility.yul\":7595:9075   */\n    tag_59:\n        /* \"#utility.yul\":7994:7998   */\n      0x00\n        /* \"#utility.yul\":8032:8035   */\n      0x0140\n        /* \"#utility.yul\":8021:8030   */\n      dup3\n        /* \"#utility.yul\":8017:8036   */\n      add\n        /* \"#utility.yul\":8009:8036   */\n      swap1\n      pop\n        /* \"#utility.yul\":8046:8117   */\n      tag_661\n        /* \"#utility.yul\":8114:8115   */\n      0x00\n        /* \"#utility.yul\":8103:8112   */\n      dup4\n        /* \"#utility.yul\":8099:8116   */\n      add\n        /* \"#utility.yul\":8090:8096   */\n      dup14\n        /* \"#utility.yul\":8046:8117   */\n      tag_482\n      jump\t// in\n    tag_661:\n        /* \"#utility.yul\":8127:8199   */\n      tag_662\n        /* \"#utility.yul\":8195:8197   */\n      0x20\n        /* \"#utility.yul\":8184:8193   */\n      dup4\n        /* \"#utility.yul\":8180:8198   */\n      add\n        /* \"#utility.yul\":8171:8177   */\n      dup13\n        /* \"#utility.yul\":8127:8199   */\n      tag_485\n      jump\t// in\n    tag_662:\n        /* \"#utility.yul\":8246:8255   */\n      dup2\n        /* \"#utility.yul\":8240:8244   */\n      dup2\n        /* \"#utility.yul\":8236:8256   */\n      sub\n        /* \"#utility.yul\":8231:8233   */\n      0x40\n        /* \"#utility.yul\":8220:8229   */\n      dup4\n        /* \"#utility.yul\":8216:8234   */\n      add\n        /* \"#utility.yul\":8209:8257   */\n      mstore\n        /* \"#utility.yul\":8274:8352   */\n      tag_663\n        /* \"#utility.yul\":8347:8351   */\n      dup2\n        /* \"#utility.yul\":8338:8344   */\n      dup12\n        /* \"#utility.yul\":8274:8352   */\n      tag_489\n      jump\t// in\n    tag_663:\n        /* \"#utility.yul\":8266:8352   */\n      swap1\n      pop\n        /* \"#utility.yul\":8399:8408   */\n      dup2\n        /* \"#utility.yul\":8393:8397   */\n      dup2\n        /* \"#utility.yul\":8389:8409   */\n      sub\n        /* \"#utility.yul\":8384:8386   */\n      0x60\n        /* \"#utility.yul\":8373:8382   */\n      dup4\n        /* \"#utility.yul\":8369:8387   */\n      add\n        /* \"#utility.yul\":8362:8410   */\n      mstore\n        /* \"#utility.yul\":8427:8505   */\n      tag_664\n        /* \"#utility.yul\":8500:8504   */\n      dup2\n        /* \"#utility.yul\":8491:8497   */\n      dup11\n        /* \"#utility.yul\":8427:8505   */\n      tag_489\n      jump\t// in\n    tag_664:\n        /* \"#utility.yul\":8419:8505   */\n      swap1\n      pop\n        /* \"#utility.yul\":8553:8562   */\n      dup2\n        /* \"#utility.yul\":8547:8551   */\n      dup2\n        /* \"#utility.yul\":8543:8563   */\n      sub\n        /* \"#utility.yul\":8537:8540   */\n      0x80\n        /* \"#utility.yul\":8526:8535   */\n      dup4\n        /* \"#utility.yul\":8522:8541   */\n      add\n        /* \"#utility.yul\":8515:8564   */\n      mstore\n        /* \"#utility.yul\":8581:8659   */\n      tag_665\n        /* \"#utility.yul\":8654:8658   */\n      dup2\n        /* \"#utility.yul\":8645:8651   */\n      dup10\n        /* \"#utility.yul\":8581:8659   */\n      tag_489\n      jump\t// in\n    tag_665:\n        /* \"#utility.yul\":8573:8659   */\n      swap1\n      pop\n        /* \"#utility.yul\":8669:8742   */\n      tag_666\n        /* \"#utility.yul\":8737:8740   */\n      0xa0\n        /* \"#utility.yul\":8726:8735   */\n      dup4\n        /* \"#utility.yul\":8722:8741   */\n      add\n        /* \"#utility.yul\":8713:8719   */\n      dup9\n        /* \"#utility.yul\":8669:8742   */\n      tag_482\n      jump\t// in\n    tag_666:\n        /* \"#utility.yul\":8752:8825   */\n      tag_667\n        /* \"#utility.yul\":8820:8823   */\n      0xc0\n        /* \"#utility.yul\":8809:8818   */\n      dup4\n        /* \"#utility.yul\":8805:8824   */\n      add\n        /* \"#utility.yul\":8796:8802   */\n      dup8\n        /* \"#utility.yul\":8752:8825   */\n      tag_482\n      jump\t// in\n    tag_667:\n        /* \"#utility.yul\":8835:8908   */\n      tag_668\n        /* \"#utility.yul\":8903:8906   */\n      0xe0\n        /* \"#utility.yul\":8892:8901   */\n      dup4\n        /* \"#utility.yul\":8888:8907   */\n      add\n        /* \"#utility.yul\":8879:8885   */\n      dup7\n        /* \"#utility.yul\":8835:8908   */\n      tag_482\n      jump\t// in\n    tag_668:\n        /* \"#utility.yul\":8918:8985   */\n      tag_669\n        /* \"#utility.yul\":8980:8983   */\n      0x0100\n        /* \"#utility.yul\":8969:8978   */\n      dup4\n        /* \"#utility.yul\":8965:8984   */\n      add\n        /* \"#utility.yul\":8956:8962   */\n      dup6\n        /* \"#utility.yul\":8918:8985   */\n      tag_493\n      jump\t// in\n    tag_669:\n        /* \"#utility.yul\":8995:9068   */\n      tag_670\n        /* \"#utility.yul\":9063:9066   */\n      0x0120\n        /* \"#utility.yul\":9052:9061   */\n      dup4\n        /* \"#utility.yul\":9048:9067   */\n      add\n        /* \"#utility.yul\":9039:9045   */\n      dup5\n        /* \"#utility.yul\":8995:9068   */\n      tag_482\n      jump\t// in\n    tag_670:\n        /* \"#utility.yul\":7595:9075   */\n      swap12\n      swap11\n      pop\n      pop\n      pop\n      pop\n      pop\n      pop\n      pop\n      pop\n      pop\n      pop\n      pop\n      jump\t// out\n        /* \"#utility.yul\":9081:9189   */\n    tag_494:\n        /* \"#utility.yul\":9158:9182   */\n      tag_672\n        /* \"#utility.yul\":9176:9181   */\n      dup2\n        /* \"#utility.yul\":9158:9182   */\n      tag_470\n      jump\t// in\n    tag_672:\n        /* \"#utility.yul\":9153:9156   */\n      dup3\n        /* \"#utility.yul\":9146:9183   */\n      mstore\n        /* \"#utility.yul\":9081:9189   */\n      pop\n      pop\n      jump\t// out\n        /* \"#utility.yul\":9195:9303   */\n    tag_495:\n        /* \"#utility.yul\":9272:9296   */\n      tag_674\n        /* \"#utility.yul\":9290:9295   */\n      dup2\n        /* \"#utility.yul\":9272:9296   */\n      tag_484\n      jump\t// in\n    tag_674:\n        /* \"#utility.yul\":9267:9270   */\n      dup3\n        /* \"#utility.yul\":9260:9297   */\n      mstore\n        /* \"#utility.yul\":9195:9303   */\n      pop\n      pop\n      jump\t// out\n        /* \"#utility.yul\":9309:9468   */\n    tag_496:\n        /* \"#utility.yul\":9383:9394   */\n      0x00\n        /* \"#utility.yul\":9417:9423   */\n      dup3\n        /* \"#utility.yul\":9412:9415   */\n      dup3\n        /* \"#utility.yul\":9405:9424   */\n      mstore\n        /* \"#utility.yul\":9457:9461   */\n      0x20\n        /* \"#utility.yul\":9452:9455   */\n      dup3\n        /* \"#utility.yul\":9448:9462   */\n      add\n        /* \"#utility.yul\":9433:9462   */\n      swap1\n      pop\n        /* \"#utility.yul\":9309:9468   */\n      swap3\n      swap2\n      pop\n      pop\n      jump\t// out\n        /* \"#utility.yul\":9474:9831   */\n    tag_497:\n        /* \"#utility.yul\":9552:9555   */\n      0x00\n        /* \"#utility.yul\":9580:9619   */\n      tag_677\n        /* \"#utility.yul\":9613:9618   */\n      dup3\n        /* \"#utility.yul\":9580:9619   */\n      tag_486\n      jump\t// in\n    tag_677:\n        /* \"#utility.yul\":9635:9696   */\n      tag_678\n        /* \"#utility.yul\":9689:9695   */\n      dup2\n        /* \"#utility.yul\":9684:9687   */\n      dup6\n        /* \"#utility.yul\":9635:9696   */\n      tag_496\n      jump\t// in\n    tag_678:\n        /* \"#utility.yul\":9628:9696   */\n      swap4\n      pop\n        /* \"#utility.yul\":9705:9770   */\n      tag_679\n        /* \"#utility.yul\":9763:9769   */\n      dup2\n        /* \"#utility.yul\":9758:9761   */\n      dup6\n        /* \"#utility.yul\":9751:9755   */\n      0x20\n        /* \"#utility.yul\":9744:9749   */\n      dup7\n        /* \"#utility.yul\":9740:9756   */\n      add\n        /* \"#utility.yul\":9705:9770   */\n      tag_488\n      jump\t// in\n    tag_679:\n        /* \"#utility.yul\":9795:9824   */\n      tag_680\n        /* \"#utility.yul\":9817:9823   */\n      dup2\n        /* \"#utility.yul\":9795:9824   */\n      tag_475\n      jump\t// in\n    tag_680:\n        /* \"#utility.yul\":9790:9793   */\n      dup5\n        /* \"#utility.yul\":9786:9825   */\n      add\n        /* \"#utility.yul\":9779:9825   */\n      swap2\n      pop\n        /* \"#utility.yul\":9556:9831   */\n      pop\n        /* \"#utility.yul\":9474:9831   */\n      swap3\n      swap2\n      pop\n      pop\n      jump\t// out\n        /* \"#utility.yul\":9893:11214   */\n    tag_498:\n        /* \"#utility.yul\":10006:10009   */\n      0x00\n        /* \"#utility.yul\":10042:10046   */\n      0xc0\n        /* \"#utility.yul\":10037:10040   */\n      dup4\n        /* \"#utility.yul\":10033:10047   */\n      add\n        /* \"#utility.yul\":10127:10131   */\n      0x00\n        /* \"#utility.yul\":10120:10125   */\n      dup4\n        /* \"#utility.yul\":10116:10132   */\n      add\n        /* \"#utility.yul\":10110:10133   */\n      mload\n        /* \"#utility.yul\":10146:10209   */\n      tag_682\n        /* \"#utility.yul\":10203:10207   */\n      0x00\n        /* \"#utility.yul\":10198:10201   */\n      dup7\n        /* \"#utility.yul\":10194:10208   */\n      add\n        /* \"#utility.yul\":10180:10192   */\n      dup3\n        /* \"#utility.yul\":10146:10209   */\n      tag_494\n      jump\t// in\n    tag_682:\n        /* \"#utility.yul\":10057:10219   */\n      pop\n        /* \"#utility.yul\":10306:10310   */\n      0x20\n        /* \"#utility.yul\":10299:10304   */\n      dup4\n        /* \"#utility.yul\":10295:10311   */\n      add\n        /* \"#utility.yul\":10289:10312   */\n      mload\n        /* \"#utility.yul\":10325:10388   */\n      tag_683\n        /* \"#utility.yul\":10382:10386   */\n      0x20\n        /* \"#utility.yul\":10377:10380   */\n      dup7\n        /* \"#utility.yul\":10373:10387   */\n      add\n        /* \"#utility.yul\":10359:10371   */\n      dup3\n        /* \"#utility.yul\":10325:10388   */\n      tag_495\n      jump\t// in\n    tag_683:\n        /* \"#utility.yul\":10229:10398   */\n      pop\n        /* \"#utility.yul\":10486:10490   */\n      0x40\n        /* \"#utility.yul\":10479:10484   */\n      dup4\n        /* \"#utility.yul\":10475:10491   */\n      add\n        /* \"#utility.yul\":10469:10492   */\n      mload\n        /* \"#utility.yul\":10539:10542   */\n      dup5\n        /* \"#utility.yul\":10533:10537   */\n      dup3\n        /* \"#utility.yul\":10529:10543   */\n      sub\n        /* \"#utility.yul\":10522:10526   */\n      0x40\n        /* \"#utility.yul\":10517:10520   */\n      dup7\n        /* \"#utility.yul\":10513:10527   */\n      add\n        /* \"#utility.yul\":10506:10544   */\n      mstore\n        /* \"#utility.yul\":10565:10638   */\n      tag_684\n        /* \"#utility.yul\":10633:10637   */\n      dup3\n        /* \"#utility.yul\":10619:10631   */\n      dup3\n        /* \"#utility.yul\":10565:10638   */\n      tag_497\n      jump\t// in\n    tag_684:\n        /* \"#utility.yul\":10557:10638   */\n      swap2\n      pop\n        /* \"#utility.yul\":10408:10649   */\n      pop\n        /* \"#utility.yul\":10734:10738   */\n      0x60\n        /* \"#utility.yul\":10727:10732   */\n      dup4\n        /* \"#utility.yul\":10723:10739   */\n      add\n        /* \"#utility.yul\":10717:10740   */\n      mload\n        /* \"#utility.yul\":10753:10816   */\n      tag_685\n        /* \"#utility.yul\":10810:10814   */\n      0x60\n        /* \"#utility.yul\":10805:10808   */\n      dup7\n        /* \"#utility.yul\":10801:10815   */\n      add\n        /* \"#utility.yul\":10787:10799   */\n      dup3\n        /* \"#utility.yul\":10753:10816   */\n      tag_494\n      jump\t// in\n    tag_685:\n        /* \"#utility.yul\":10659:10826   */\n      pop\n        /* \"#utility.yul\":10916:10920   */\n      0x80\n        /* \"#utility.yul\":10909:10914   */\n      dup4\n        /* \"#utility.yul\":10905:10921   */\n      add\n        /* \"#utility.yul\":10899:10922   */\n      mload\n        /* \"#utility.yul\":10935:10998   */\n      tag_686\n        /* \"#utility.yul\":10992:10996   */\n      0x80\n        /* \"#utility.yul\":10987:10990   */\n      dup7\n        /* \"#utility.yul\":10983:10997   */\n      add\n        /* \"#utility.yul\":10969:10981   */\n      dup3\n        /* \"#utility.yul\":10935:10998   */\n      tag_494\n      jump\t// in\n    tag_686:\n        /* \"#utility.yul\":10836:11008   */\n      pop\n        /* \"#utility.yul\":11095:11099   */\n      0xa0\n        /* \"#utility.yul\":11088:11093   */\n      dup4\n        /* \"#utility.yul\":11084:11100   */\n      add\n        /* \"#utility.yul\":11078:11101   */\n      mload\n        /* \"#utility.yul\":11114:11177   */\n      tag_687\n        /* \"#utility.yul\":11171:11175   */\n      0xa0\n        /* \"#utility.yul\":11166:11169   */\n      dup7\n        /* \"#utility.yul\":11162:11176   */\n      add\n        /* \"#utility.yul\":11148:11160   */\n      dup3\n        /* \"#utility.yul\":11114:11177   */\n      tag_494\n      jump\t// in\n    tag_687:\n        /* \"#utility.yul\":11018:11187   */\n      pop\n        /* \"#utility.yul\":11204:11208   */\n      dup1\n        /* \"#utility.yul\":11197:11208   */\n      swap2\n      pop\n        /* \"#utility.yul\":10011:11214   */\n      pop\n        /* \"#utility.yul\":9893:11214   */\n      swap3\n      swap2\n      pop\n      pop\n      jump\t// out\n        /* \"#utility.yul\":11220:11581   */\n    tag_68:\n        /* \"#utility.yul\":11357:11361   */\n      0x00\n        /* \"#utility.yul\":11395:11397   */\n      0x20\n        /* \"#utility.yul\":11384:11393   */\n      dup3\n        /* \"#utility.yul\":11380:11398   */\n      add\n        /* \"#utility.yul\":11372:11398   */\n      swap1\n      pop\n        /* \"#utility.yul\":11444:11453   */\n      dup2\n        /* \"#utility.yul\":11438:11442   */\n      dup2\n        /* \"#utility.yul\":11434:11454   */\n      sub\n        /* \"#utility.yul\":11430:11431   */\n      0x00\n        /* \"#utility.yul\":11419:11428   */\n      dup4\n        /* \"#utility.yul\":11415:11432   */\n      add\n        /* \"#utility.yul\":11408:11455   */\n      mstore\n        /* \"#utility.yul\":11472:11574   */\n      tag_689\n        /* \"#utility.yul\":11569:11573   */\n      dup2\n        /* \"#utility.yul\":11560:11566   */\n      dup5\n        /* \"#utility.yul\":11472:11574   */\n      tag_498\n      jump\t// in\n    tag_689:\n        /* \"#utility.yul\":11464:11574   */\n      swap1\n      pop\n        /* \"#utility.yul\":11220:11581   */\n      swap3\n      swap2\n      pop\n      pop\n      jump\t// out\n        /* \"#utility.yul\":11587:12096   */\n    tag_72:\n        /* \"#utility.yul\":11656:11662   */\n      0x00\n        /* \"#utility.yul\":11705:11707   */\n      0x20\n        /* \"#utility.yul\":11693:11702   */\n      dup3\n        /* \"#utility.yul\":11684:11691   */\n      dup5\n        /* \"#utility.yul\":11680:11703   */\n      sub\n        /* \"#utility.yul\":11676:11708   */\n      slt\n        /* \"#utility.yul\":11673:11792   */\n      iszero\n      tag_691\n      jumpi\n        /* \"#utility.yul\":11711:11790   */\n      tag_692\n      tag_468\n      jump\t// in\n    tag_692:\n        /* \"#utility.yul\":11673:11792   */\n    tag_691:\n        /* \"#utility.yul\":11859:11860   */\n      0x00\n        /* \"#utility.yul\":11848:11857   */\n      dup3\n        /* \"#utility.yul\":11844:11861   */\n      add\n        /* \"#utility.yul\":11831:11862   */\n      calldataload\n        /* \"#utility.yul\":11889:11907   */\n      0xffffffffffffffff\n        /* \"#utility.yul\":11881:11887   */\n      dup2\n        /* \"#utility.yul\":11878:11908   */\n      gt\n        /* \"#utility.yul\":11875:11992   */\n      iszero\n      tag_693\n      jumpi\n        /* \"#utility.yul\":11911:11990   */\n      tag_694\n      tag_469\n      jump\t// in\n    tag_694:\n        /* \"#utility.yul\":11875:11992   */\n    tag_693:\n        /* \"#utility.yul\":12016:12079   */\n      tag_695\n        /* \"#utility.yul\":12071:12078   */\n      dup5\n        /* \"#utility.yul\":12062:12068   */\n      dup3\n        /* \"#utility.yul\":12051:12060   */\n      dup6\n        /* \"#utility.yul\":12047:12069   */\n      add\n        /* \"#utility.yul\":12016:12079   */\n      tag_481\n      jump\t// in\n    tag_695:\n        /* \"#utility.yul\":12006:12079   */\n      swap2\n      pop\n        /* \"#utility.yul\":11802:12089   */\n      pop\n        /* \"#utility.yul\":11587:12096   */\n      swap3\n      swap2\n      pop\n      pop\n      jump\t// out\n        /* \"#utility.yul\":12102:12216   */\n    tag_499:\n        /* \"#utility.yul\":12169:12175   */\n      0x00\n        /* \"#utility.yul\":12203:12208   */\n      dup2\n        /* \"#utility.yul\":12197:12209   */\n      mload\n        /* \"#utility.yul\":12187:12209   */\n      swap1\n      pop\n        /* \"#utility.yul\":12102:12216   */\n      swap2\n      swap1\n      pop\n      jump\t// out\n        /* \"#utility.yul\":12222:12406   */\n    tag_500:\n        /* \"#utility.yul\":12321:12332   */\n      0x00\n        /* \"#utility.yul\":12355:12361   */\n      dup3\n        /* \"#utility.yul\":12350:12353   */\n      dup3\n        /* \"#utility.yul\":12343:12362   */\n      mstore\n        /* \"#utility.yul\":12395:12399   */\n      0x20\n        /* \"#utility.yul\":12390:12393   */\n      dup3\n        /* \"#utility.yul\":12386:12400   */\n      add\n        /* \"#utility.yul\":12371:12400   */\n      swap1\n      pop\n        /* \"#utility.yul\":12222:12406   */\n      swap3\n      swap2\n      pop\n      pop\n      jump\t// out\n        /* \"#utility.yul\":12412:12544   */\n    tag_501:\n        /* \"#utility.yul\":12479:12483   */\n      0x00\n        /* \"#utility.yul\":12502:12505   */\n      dup2\n        /* \"#utility.yul\":12494:12505   */\n      swap1\n      pop\n        /* \"#utility.yul\":12532:12536   */\n      0x20\n        /* \"#utility.yul\":12527:12530   */\n      dup3\n        /* \"#utility.yul\":12523:12537   */\n      add\n        /* \"#utility.yul\":12515:12537   */\n      swap1\n      pop\n        /* \"#utility.yul\":12412:12544   */\n      swap2\n      swap1\n      pop\n      jump\t// out\n        /* \"#utility.yul\":12550:12729   */\n    tag_502:\n        /* \"#utility.yul\":12619:12629   */\n      0x00\n        /* \"#utility.yul\":12640:12686   */\n      tag_700\n        /* \"#utility.yul\":12682:12685   */\n      dup4\n        /* \"#utility.yul\":12674:12680   */\n      dup4\n        /* \"#utility.yul\":12640:12686   */\n      tag_494\n      jump\t// in\n    tag_700:\n        /* \"#utility.yul\":12718:12722   */\n      0x20\n        /* \"#utility.yul\":12713:12716   */\n      dup4\n        /* \"#utility.yul\":12709:12723   */\n      add\n        /* \"#utility.yul\":12695:12723   */\n      swap1\n      pop\n        /* \"#utility.yul\":12550:12729   */\n      swap3\n      swap2\n      pop\n      pop\n      jump\t// out\n        /* \"#utility.yul\":12735:12848   */\n    tag_503:\n        /* \"#utility.yul\":12805:12809   */\n      0x00\n        /* \"#utility.yul\":12837:12841   */\n      0x20\n        /* \"#utility.yul\":12832:12835   */\n      dup3\n        /* \"#utility.yul\":12828:12842   */\n      add\n        /* \"#utility.yul\":12820:12842   */\n      swap1\n      pop\n        /* \"#utility.yul\":12735:12848   */\n      swap2\n      swap1\n      pop\n      jump\t// out\n        /* \"#utility.yul\":12884:13616   */\n    tag_504:\n        /* \"#utility.yul\":13003:13006   */\n      0x00\n        /* \"#utility.yul\":13032:13086   */\n      tag_703\n        /* \"#utility.yul\":13080:13085   */\n      dup3\n        /* \"#utility.yul\":13032:13086   */\n      tag_499\n      jump\t// in\n    tag_703:\n        /* \"#utility.yul\":13102:13188   */\n      tag_704\n        /* \"#utility.yul\":13181:13187   */\n      dup2\n        /* \"#utility.yul\":13176:13179   */\n      dup6\n        /* \"#utility.yul\":13102:13188   */\n      tag_500\n      jump\t// in\n    tag_704:\n        /* \"#utility.yul\":13095:13188   */\n      swap4\n      pop\n        /* \"#utility.yul\":13212:13268   */\n      tag_705\n        /* \"#utility.yul\":13262:13267   */\n      dup4\n        /* \"#utility.yul\":13212:13268   */\n      tag_501\n      jump\t// in\n    tag_705:\n        /* \"#utility.yul\":13291:13298   */\n      dup1\n        /* \"#utility.yul\":13322:13323   */\n      0x00\n        /* \"#utility.yul\":13307:13591   */\n    tag_706:\n        /* \"#utility.yul\":13332:13338   */\n      dup4\n        /* \"#utility.yul\":13329:13330   */\n      dup2\n        /* \"#utility.yul\":13326:13339   */\n      lt\n        /* \"#utility.yul\":13307:13591   */\n      iszero\n      tag_708\n      jumpi\n        /* \"#utility.yul\":13408:13414   */\n      dup2\n        /* \"#utility.yul\":13402:13415   */\n      mload\n        /* \"#utility.yul\":13435:13498   */\n      tag_709\n        /* \"#utility.yul\":13494:13497   */\n      dup9\n        /* \"#utility.yul\":13479:13492   */\n      dup3\n        /* \"#utility.yul\":13435:13498   */\n      tag_502\n      jump\t// in\n    tag_709:\n        /* \"#utility.yul\":13428:13498   */\n      swap8\n      pop\n        /* \"#utility.yul\":13521:13581   */\n      tag_710\n        /* \"#utility.yul\":13574:13580   */\n      dup4\n        /* \"#utility.yul\":13521:13581   */\n      tag_503\n      jump\t// in\n    tag_710:\n        /* \"#utility.yul\":13511:13581   */\n      swap3\n      pop\n        /* \"#utility.yul\":13367:13591   */\n      pop\n        /* \"#utility.yul\":13354:13355   */\n      0x01\n        /* \"#utility.yul\":13351:13352   */\n      dup2\n        /* \"#utility.yul\":13347:13356   */\n      add\n        /* \"#utility.yul\":13342:13356   */\n      swap1\n      pop\n        /* \"#utility.yul\":13307:13591   */\n      jump(tag_706)\n    tag_708:\n        /* \"#utility.yul\":13311:13325   */\n      pop\n        /* \"#utility.yul\":13607:13610   */\n      dup6\n        /* \"#utility.yul\":13600:13610   */\n      swap4\n      pop\n        /* \"#utility.yul\":13008:13616   */\n      pop\n      pop\n      pop\n        /* \"#utility.yul\":12884:13616   */\n      swap3\n      swap2\n      pop\n      pop\n      jump\t// out\n        /* \"#utility.yul\":13622:13995   */\n    tag_75:\n        /* \"#utility.yul\":13765:13769   */\n      0x00\n        /* \"#utility.yul\":13803:13805   */\n      0x20\n        /* \"#utility.yul\":13792:13801   */\n      dup3\n        /* \"#utility.yul\":13788:13806   */\n      add\n        /* \"#utility.yul\":13780:13806   */\n      swap1\n      pop\n        /* \"#utility.yul\":13852:13861   */\n      dup2\n        /* \"#utility.yul\":13846:13850   */\n      dup2\n        /* \"#utility.yul\":13842:13862   */\n      sub\n        /* \"#utility.yul\":13838:13839   */\n      0x00\n        /* \"#utility.yul\":13827:13836   */\n      dup4\n        /* \"#utility.yul\":13823:13840   */\n      add\n        /* \"#utility.yul\":13816:13863   */\n      mstore\n        /* \"#utility.yul\":13880:13988   */\n      tag_712\n        /* \"#utility.yul\":13983:13987   */\n      dup2\n        /* \"#utility.yul\":13974:13980   */\n      dup5\n        /* \"#utility.yul\":13880:13988   */\n      tag_504\n      jump\t// in\n    tag_712:\n        /* \"#utility.yul\":13872:13988   */\n      swap1\n      pop\n        /* \"#utility.yul\":13622:13995   */\n      swap3\n      swap2\n      pop\n      pop\n      jump\t// out\n        /* \"#utility.yul\":14001:14117   */\n    tag_505:\n        /* \"#utility.yul\":14091:14092   */\n      0x03\n        /* \"#utility.yul\":14084:14089   */\n      dup2\n        /* \"#utility.yul\":14081:14093   */\n      lt\n        /* \"#utility.yul\":14071:14111   */\n      tag_714\n      jumpi\n        /* \"#utility.yul\":14107:14108   */\n      0x00\n        /* \"#utility.yul\":14104:14105   */\n      dup1\n        /* \"#utility.yul\":14097:14109   */\n      revert\n        /* \"#utility.yul\":14071:14111   */\n    tag_714:\n        /* \"#utility.yul\":14001:14117   */\n      pop\n      jump\t// out\n        /* \"#utility.yul\":14123:14296   */\n    tag_506:\n        /* \"#utility.yul\":14186:14191   */\n      0x00\n        /* \"#utility.yul\":14224:14230   */\n      dup2\n        /* \"#utility.yul\":14211:14231   */\n      calldataload\n        /* \"#utility.yul\":14202:14231   */\n      swap1\n      pop\n        /* \"#utility.yul\":14240:14290   */\n      tag_716\n        /* \"#utility.yul\":14284:14289   */\n      dup2\n        /* \"#utility.yul\":14240:14290   */\n      tag_505\n      jump\t// in\n    tag_716:\n        /* \"#utility.yul\":14123:14296   */\n      swap3\n      swap2\n      pop\n      pop\n      jump\t// out\n        /* \"#utility.yul\":14302:15641   */\n    tag_78:\n        /* \"#utility.yul\":14435:14441   */\n      0x00\n        /* \"#utility.yul\":14443:14449   */\n      dup1\n        /* \"#utility.yul\":14451:14457   */\n      0x00\n        /* \"#utility.yul\":14459:14465   */\n      dup1\n        /* \"#utility.yul\":14508:14511   */\n      0x80\n        /* \"#utility.yul\":14496:14505   */\n      dup6\n        /* \"#utility.yul\":14487:14494   */\n      dup8\n        /* \"#utility.yul\":14483:14506   */\n      sub\n        /* \"#utility.yul\":14479:14512   */\n      slt\n        /* \"#utility.yul\":14476:14596   */\n      iszero\n      tag_718\n      jumpi\n        /* \"#utility.yul\":14515:14594   */\n      tag_719\n      tag_468\n      jump\t// in\n    tag_719:\n        /* \"#utility.yul\":14476:14596   */\n    tag_718:\n        /* \"#utility.yul\":14663:14664   */\n      0x00\n        /* \"#utility.yul\":14652:14661   */\n      dup6\n        /* \"#utility.yul\":14648:14665   */\n      add\n        /* \"#utility.yul\":14635:14666   */\n      calldataload\n        /* \"#utility.yul\":14693:14711   */\n      0xffffffffffffffff\n        /* \"#utility.yul\":14685:14691   */\n      dup2\n        /* \"#utility.yul\":14682:14712   */\n      gt\n        /* \"#utility.yul\":14679:14796   */\n      iszero\n      tag_720\n      jumpi\n        /* \"#utility.yul\":14715:14794   */\n      tag_721\n      tag_469\n      jump\t// in\n    tag_721:\n        /* \"#utility.yul\":14679:14796   */\n    tag_720:\n        /* \"#utility.yul\":14820:14883   */\n      tag_722\n        /* \"#utility.yul\":14875:14882   */\n      dup8\n        /* \"#utility.yul\":14866:14872   */\n      dup3\n        /* \"#utility.yul\":14855:14864   */\n      dup9\n        /* \"#utility.yul\":14851:14873   */\n      add\n        /* \"#utility.yul\":14820:14883   */\n      tag_481\n      jump\t// in\n    tag_722:\n        /* \"#utility.yul\":14810:14883   */\n      swap5\n      pop\n        /* \"#utility.yul\":14606:14893   */\n      pop\n        /* \"#utility.yul\":14960:14962   */\n      0x20\n        /* \"#utility.yul\":14949:14958   */\n      dup6\n        /* \"#utility.yul\":14945:14963   */\n      add\n        /* \"#utility.yul\":14932:14964   */\n      calldataload\n        /* \"#utility.yul\":14991:15009   */\n      0xffffffffffffffff\n        /* \"#utility.yul\":14983:14989   */\n      dup2\n        /* \"#utility.yul\":14980:15010   */\n      gt\n        /* \"#utility.yul\":14977:15094   */\n      iszero\n      tag_723\n      jumpi\n        /* \"#utility.yul\":15013:15092   */\n      tag_724\n      tag_469\n      jump\t// in\n    tag_724:\n        /* \"#utility.yul\":14977:15094   */\n    tag_723:\n        /* \"#utility.yul\":15118:15181   */\n      tag_725\n        /* \"#utility.yul\":15173:15180   */\n      dup8\n        /* \"#utility.yul\":15164:15170   */\n      dup3\n        /* \"#utility.yul\":15153:15162   */\n      dup9\n        /* \"#utility.yul\":15149:15171   */\n      add\n        /* \"#utility.yul\":15118:15181   */\n      tag_481\n      jump\t// in\n    tag_725:\n        /* \"#utility.yul\":15108:15181   */\n      swap4\n      pop\n        /* \"#utility.yul\":14903:15191   */\n      pop\n        /* \"#utility.yul\":15258:15260   */\n      0x40\n        /* \"#utility.yul\":15247:15256   */\n      dup6\n        /* \"#utility.yul\":15243:15261   */\n      add\n        /* \"#utility.yul\":15230:15262   */\n      calldataload\n        /* \"#utility.yul\":15289:15307   */\n      0xffffffffffffffff\n        /* \"#utility.yul\":15281:15287   */\n      dup2\n        /* \"#utility.yul\":15278:15308   */\n      gt\n        /* \"#utility.yul\":15275:15392   */\n      iszero\n      tag_726\n      jumpi\n        /* \"#utility.yul\":15311:15390   */\n      tag_727\n      tag_469\n      jump\t// in\n    tag_727:\n        /* \"#utility.yul\":15275:15392   */\n    tag_726:\n        /* \"#utility.yul\":15416:15479   */\n      tag_728\n        /* \"#utility.yul\":15471:15478   */\n      dup8\n        /* \"#utility.yul\":15462:15468   */\n      dup3\n        /* \"#utility.yul\":15451:15460   */\n      dup9\n        /* \"#utility.yul\":15447:15469   */\n      add\n        /* \"#utility.yul\":15416:15479   */\n      tag_481\n      jump\t// in\n    tag_728:\n        /* \"#utility.yul\":15406:15479   */\n      swap3\n      pop\n        /* \"#utility.yul\":15201:15489   */\n      pop\n        /* \"#utility.yul\":15528:15530   */\n      0x60\n        /* \"#utility.yul\":15554:15624   */\n      tag_729\n        /* \"#utility.yul\":15616:15623   */\n      dup8\n        /* \"#utility.yul\":15607:15613   */\n      dup3\n        /* \"#utility.yul\":15596:15605   */\n      dup9\n        /* \"#utility.yul\":15592:15614   */\n      add\n        /* \"#utility.yul\":15554:15624   */\n      tag_506\n      jump\t// in\n    tag_729:\n        /* \"#utility.yul\":15544:15624   */\n      swap2\n      pop\n        /* \"#utility.yul\":15499:15634   */\n      pop\n        /* \"#utility.yul\":14302:15641   */\n      swap3\n      swap6\n      swap2\n      swap5\n      pop\n      swap3\n      pop\n      jump\t// out\n        /* \"#utility.yul\":15647:15869   */\n    tag_92:\n        /* \"#utility.yul\":15740:15744   */\n      0x00\n        /* \"#utility.yul\":15778:15780   */\n      0x20\n        /* \"#utility.yul\":15767:15776   */\n      dup3\n        /* \"#utility.yul\":15763:15781   */\n      add\n        /* \"#utility.yul\":15755:15781   */\n      swap1\n      pop\n        /* \"#utility.yul\":15791:15862   */\n      tag_731\n        /* \"#utility.yul\":15859:15860   */\n      0x00\n        /* \"#utility.yul\":15848:15857   */\n      dup4\n        /* \"#utility.yul\":15844:15861   */\n      add\n        /* \"#utility.yul\":15835:15841   */\n      dup5\n        /* \"#utility.yul\":15791:15862   */\n      tag_485\n      jump\t// in\n    tag_731:\n        /* \"#utility.yul\":15647:15869   */\n      swap3\n      swap2\n      pop\n      pop\n      jump\t// out\n        /* \"#utility.yul\":15875:15974   */\n    tag_507:\n        /* \"#utility.yul\":15946:15967   */\n      tag_733\n        /* \"#utility.yul\":15961:15966   */\n      dup2\n        /* \"#utility.yul\":15946:15967   */\n      tag_492\n      jump\t// in\n    tag_733:\n        /* \"#utility.yul\":15941:15944   */\n      dup3\n        /* \"#utility.yul\":15934:15968   */\n      mstore\n        /* \"#utility.yul\":15875:15974   */\n      pop\n      pop\n      jump\t// out\n        /* \"#utility.yul\":16040:18235   */\n    tag_508:\n        /* \"#utility.yul\":16157:16160   */\n      0x00\n        /* \"#utility.yul\":16193:16199   */\n      0x0140\n        /* \"#utility.yul\":16188:16191   */\n      dup4\n        /* \"#utility.yul\":16184:16200   */\n      add\n        /* \"#utility.yul\":16280:16284   */\n      0x00\n        /* \"#utility.yul\":16273:16278   */\n      dup4\n        /* \"#utility.yul\":16269:16285   */\n      add\n        /* \"#utility.yul\":16263:16286   */\n      mload\n        /* \"#utility.yul\":16299:16362   */\n      tag_735\n        /* \"#utility.yul\":16356:16360   */\n      0x00\n        /* \"#utility.yul\":16351:16354   */\n      dup7\n        /* \"#utility.yul\":16347:16361   */\n      add\n        /* \"#utility.yul\":16333:16345   */\n      dup3\n        /* \"#utility.yul\":16299:16362   */\n      tag_494\n      jump\t// in\n    tag_735:\n        /* \"#utility.yul\":16210:16372   */\n      pop\n        /* \"#utility.yul\":16455:16459   */\n      0x20\n        /* \"#utility.yul\":16448:16453   */\n      dup4\n        /* \"#utility.yul\":16444:16460   */\n      add\n        /* \"#utility.yul\":16438:16461   */\n      mload\n        /* \"#utility.yul\":16474:16537   */\n      tag_736\n        /* \"#utility.yul\":16531:16535   */\n      0x20\n        /* \"#utility.yul\":16526:16529   */\n      dup7\n        /* \"#utility.yul\":16522:16536   */\n      add\n        /* \"#utility.yul\":16508:16520   */\n      dup3\n        /* \"#utility.yul\":16474:16537   */\n      tag_495\n      jump\t// in\n    tag_736:\n        /* \"#utility.yul\":16382:16547   */\n      pop\n        /* \"#utility.yul\":16637:16641   */\n      0x40\n        /* \"#utility.yul\":16630:16635   */\n      dup4\n        /* \"#utility.yul\":16626:16642   */\n      add\n        /* \"#utility.yul\":16620:16643   */\n      mload\n        /* \"#utility.yul\":16690:16693   */\n      dup5\n        /* \"#utility.yul\":16684:16688   */\n      dup3\n        /* \"#utility.yul\":16680:16694   */\n      sub\n        /* \"#utility.yul\":16673:16677   */\n      0x40\n        /* \"#utility.yul\":16668:16671   */\n      dup7\n        /* \"#utility.yul\":16664:16678   */\n      add\n        /* \"#utility.yul\":16657:16695   */\n      mstore\n        /* \"#utility.yul\":16716:16789   */\n      tag_737\n        /* \"#utility.yul\":16784:16788   */\n      dup3\n        /* \"#utility.yul\":16770:16782   */\n      dup3\n        /* \"#utility.yul\":16716:16789   */\n      tag_497\n      jump\t// in\n    tag_737:\n        /* \"#utility.yul\":16708:16789   */\n      swap2\n      pop\n        /* \"#utility.yul\":16557:16800   */\n      pop\n        /* \"#utility.yul\":16893:16897   */\n      0x60\n        /* \"#utility.yul\":16886:16891   */\n      dup4\n        /* \"#utility.yul\":16882:16898   */\n      add\n        /* \"#utility.yul\":16876:16899   */\n      mload\n        /* \"#utility.yul\":16946:16949   */\n      dup5\n        /* \"#utility.yul\":16940:16944   */\n      dup3\n        /* \"#utility.yul\":16936:16950   */\n      sub\n        /* \"#utility.yul\":16929:16933   */\n      0x60\n        /* \"#utility.yul\":16924:16927   */\n      dup7\n        /* \"#utility.yul\":16920:16934   */\n      add\n        /* \"#utility.yul\":16913:16951   */\n      mstore\n        /* \"#utility.yul\":16972:17045   */\n      tag_738\n        /* \"#utility.yul\":17040:17044   */\n      dup3\n        /* \"#utility.yul\":17026:17038   */\n      dup3\n        /* \"#utility.yul\":16972:17045   */\n      tag_497\n      jump\t// in\n    tag_738:\n        /* \"#utility.yul\":16964:17045   */\n      swap2\n      pop\n        /* \"#utility.yul\":16810:17056   */\n      pop\n        /* \"#utility.yul\":17142:17146   */\n      0x80\n        /* \"#utility.yul\":17135:17140   */\n      dup4\n        /* \"#utility.yul\":17131:17147   */\n      add\n        /* \"#utility.yul\":17125:17148   */\n      mload\n        /* \"#utility.yul\":17195:17198   */\n      dup5\n        /* \"#utility.yul\":17189:17193   */\n      dup3\n        /* \"#utility.yul\":17185:17199   */\n      sub\n        /* \"#utility.yul\":17178:17182   */\n      0x80\n        /* \"#utility.yul\":17173:17176   */\n      dup7\n        /* \"#utility.yul\":17169:17183   */\n      add\n        /* \"#utility.yul\":17162:17200   */\n      mstore\n        /* \"#utility.yul\":17221:17294   */\n      tag_739\n        /* \"#utility.yul\":17289:17293   */\n      dup3\n        /* \"#utility.yul\":17275:17287   */\n      dup3\n        /* \"#utility.yul\":17221:17294   */\n      tag_497\n      jump\t// in\n    tag_739:\n        /* \"#utility.yul\":17213:17294   */\n      swap2\n      pop\n        /* \"#utility.yul\":17066:17305   */\n      pop\n        /* \"#utility.yul\":17395:17399   */\n      0xa0\n        /* \"#utility.yul\":17388:17393   */\n      dup4\n        /* \"#utility.yul\":17384:17400   */\n      add\n        /* \"#utility.yul\":17378:17401   */\n      mload\n        /* \"#utility.yul\":17414:17477   */\n      tag_740\n        /* \"#utility.yul\":17471:17475   */\n      0xa0\n        /* \"#utility.yul\":17466:17469   */\n      dup7\n        /* \"#utility.yul\":17462:17476   */\n      add\n        /* \"#utility.yul\":17448:17460   */\n      dup3\n        /* \"#utility.yul\":17414:17477   */\n      tag_494\n      jump\t// in\n    tag_740:\n        /* \"#utility.yul\":17315:17487   */\n      pop\n        /* \"#utility.yul\":17574:17578   */\n      0xc0\n        /* \"#utility.yul\":17567:17572   */\n      dup4\n        /* \"#utility.yul\":17563:17579   */\n      add\n        /* \"#utility.yul\":17557:17580   */\n      mload\n        /* \"#utility.yul\":17593:17656   */\n      tag_741\n        /* \"#utility.yul\":17650:17654   */\n      0xc0\n        /* \"#utility.yul\":17645:17648   */\n      dup7\n        /* \"#utility.yul\":17641:17655   */\n      add\n        /* \"#utility.yul\":17627:17639   */\n      dup3\n        /* \"#utility.yul\":17593:17656   */\n      tag_494\n      jump\t// in\n    tag_741:\n        /* \"#utility.yul\":17497:17666   */\n      pop\n        /* \"#utility.yul\":17752:17756   */\n      0xe0\n        /* \"#utility.yul\":17745:17750   */\n      dup4\n        /* \"#utility.yul\":17741:17757   */\n      add\n        /* \"#utility.yul\":17735:17758   */\n      mload\n        /* \"#utility.yul\":17771:17834   */\n      tag_742\n        /* \"#utility.yul\":17828:17832   */\n      0xe0\n        /* \"#utility.yul\":17823:17826   */\n      dup7\n        /* \"#utility.yul\":17819:17833   */\n      add\n        /* \"#utility.yul\":17805:17817   */\n      dup3\n        /* \"#utility.yul\":17771:17834   */\n      tag_494\n      jump\t// in\n    tag_742:\n        /* \"#utility.yul\":17676:17844   */\n      pop\n        /* \"#utility.yul\":17930:17936   */\n      0x0100\n        /* \"#utility.yul\":17923:17928   */\n      dup4\n        /* \"#utility.yul\":17919:17937   */\n      add\n        /* \"#utility.yul\":17913:17938   */\n      mload\n        /* \"#utility.yul\":17951:18010   */\n      tag_743\n        /* \"#utility.yul\":18002:18008   */\n      0x0100\n        /* \"#utility.yul\":17997:18000   */\n      dup7\n        /* \"#utility.yul\":17993:18009   */\n      add\n        /* \"#utility.yul\":17979:17991   */\n      dup3\n        /* \"#utility.yul\":17951:18010   */\n      tag_507\n      jump\t// in\n    tag_743:\n        /* \"#utility.yul\":17854:18020   */\n      pop\n        /* \"#utility.yul\":18112:18118   */\n      0x0120\n        /* \"#utility.yul\":18105:18110   */\n      dup4\n        /* \"#utility.yul\":18101:18119   */\n      add\n        /* \"#utility.yul\":18095:18120   */\n      mload\n        /* \"#utility.yul\":18133:18198   */\n      tag_744\n        /* \"#utility.yul\":18190:18196   */\n      0x0120\n        /* \"#utility.yul\":18185:18188   */\n      dup7\n        /* \"#utility.yul\":18181:18197   */\n      add\n        /* \"#utility.yul\":18167:18179   */\n      dup3\n        /* \"#utility.yul\":18133:18198   */\n      tag_494\n      jump\t// in\n    tag_744:\n        /* \"#utility.yul\":18030:18208   */\n      pop\n        /* \"#utility.yul\":18225:18229   */\n      dup1\n        /* \"#utility.yul\":18218:18229   */\n      swap2\n      pop\n        /* \"#utility.yul\":16162:18235   */\n      pop\n        /* \"#utility.yul\":16040:18235   */\n      swap3\n      swap2\n      pop\n      pop\n      jump\t// out\n        /* \"#utility.yul\":18241:18610   */\n    tag_118:\n        /* \"#utility.yul\":18382:18386   */\n      0x00\n        /* \"#utility.yul\":18420:18422   */\n      0x20\n        /* \"#utility.yul\":18409:18418   */\n      dup3\n        /* \"#utility.yul\":18405:18423   */\n      add\n        /* \"#utility.yul\":18397:18423   */\n      swap1\n      pop\n        /* \"#utility.yul\":18469:18478   */\n      dup2\n        /* \"#utility.yul\":18463:18467   */\n      dup2\n        /* \"#utility.yul\":18459:18479   */\n      sub\n        /* \"#utility.yul\":18455:18456   */\n      0x00\n        /* \"#utility.yul\":18444:18453   */\n      dup4\n        /* \"#utility.yul\":18440:18457   */\n      add\n        /* \"#utility.yul\":18433:18480   */\n      mstore\n        /* \"#utility.yul\":18497:18603   */\n      tag_746\n        /* \"#utility.yul\":18598:18602   */\n      dup2\n        /* \"#utility.yul\":18589:18595   */\n      dup5\n        /* \"#utility.yul\":18497:18603   */\n      tag_508\n      jump\t// in\n    tag_746:\n        /* \"#utility.yul\":18489:18603   */\n      swap1\n      pop\n        /* \"#utility.yul\":18241:18610   */\n      swap3\n      swap2\n      pop\n      pop\n      jump\t// out\n        /* \"#utility.yul\":18616:19235   */\n    tag_122:\n        /* \"#utility.yul\":18693:18699   */\n      0x00\n        /* \"#utility.yul\":18701:18707   */\n      dup1\n        /* \"#utility.yul\":18709:18715   */\n      0x00\n        /* \"#utility.yul\":18758:18760   */\n      0x60\n        /* \"#utility.yul\":18746:18755   */\n      dup5\n        /* \"#utility.yul\":18737:18744   */\n      dup7\n        /* \"#utility.yul\":18733:18756   */\n      sub\n        /* \"#utility.yul\":18729:18761   */\n      slt\n        /* \"#utility.yul\":18726:18845   */\n      iszero\n      tag_748\n      jumpi\n        /* \"#utility.yul\":18764:18843   */\n      tag_749\n      tag_468\n      jump\t// in\n    tag_749:\n        /* \"#utility.yul\":18726:18845   */\n    tag_748:\n        /* \"#utility.yul\":18884:18885   */\n      0x00\n        /* \"#utility.yul\":18909:18962   */\n      tag_750\n        /* \"#utility.yul\":18954:18961   */\n      dup7\n        /* \"#utility.yul\":18945:18951   */\n      dup3\n        /* \"#utility.yul\":18934:18943   */\n      dup8\n        /* \"#utility.yul\":18930:18952   */\n      add\n        /* \"#utility.yul\":18909:18962   */\n      tag_472\n      jump\t// in\n    tag_750:\n        /* \"#utility.yul\":18899:18962   */\n      swap4\n      pop\n        /* \"#utility.yul\":18855:18972   */\n      pop\n        /* \"#utility.yul\":19011:19013   */\n      0x20\n        /* \"#utility.yul\":19037:19090   */\n      tag_751\n        /* \"#utility.yul\":19082:19089   */\n      dup7\n        /* \"#utility.yul\":19073:19079   */\n      dup3\n        /* \"#utility.yul\":19062:19071   */\n      dup8\n        /* \"#utility.yul\":19058:19080   */\n      add\n        /* \"#utility.yul\":19037:19090   */\n      tag_472\n      jump\t// in\n    tag_751:\n        /* \"#utility.yul\":19027:19090   */\n      swap3\n      pop\n        /* \"#utility.yul\":18982:19100   */\n      pop\n        /* \"#utility.yul\":19139:19141   */\n      0x40\n        /* \"#utility.yul\":19165:19218   */\n      tag_752\n        /* \"#utility.yul\":19210:19217   */\n      dup7\n        /* \"#utility.yul\":19201:19207   */\n      dup3\n        /* \"#utility.yul\":19190:19199   */\n      dup8\n        /* \"#utility.yul\":19186:19208   */\n      add\n        /* \"#utility.yul\":19165:19218   */\n      tag_472\n      jump\t// in\n    tag_752:\n        /* \"#utility.yul\":19155:19218   */\n      swap2\n      pop\n        /* \"#utility.yul\":19110:19228   */\n      pop\n        /* \"#utility.yul\":18616:19235   */\n      swap3\n      pop\n      swap3\n      pop\n      swap3\n      jump\t// out\n        /* \"#utility.yul\":19241:19377   */\n    tag_509:\n        /* \"#utility.yul\":19330:19336   */\n      0x00\n        /* \"#utility.yul\":19364:19369   */\n      dup2\n        /* \"#utility.yul\":19358:19370   */\n      mload\n        /* \"#utility.yul\":19348:19370   */\n      swap1\n      pop\n        /* \"#utility.yul\":19241:19377   */\n      swap2\n      swap1\n      pop\n      jump\t// out\n        /* \"#utility.yul\":19383:19589   */\n    tag_510:\n        /* \"#utility.yul\":19504:19515   */\n      0x00\n        /* \"#utility.yul\":19538:19544   */\n      dup3\n        /* \"#utility.yul\":19533:19536   */\n      dup3\n        /* \"#utility.yul\":19526:19545   */\n      mstore\n        /* \"#utility.yul\":19578:19582   */\n      0x20\n        /* \"#utility.yul\":19573:19576   */\n      dup3\n        /* \"#utility.yul\":19569:19583   */\n      add\n        /* \"#utility.yul\":19554:19583   */\n      swap1\n      pop\n        /* \"#utility.yul\":19383:19589   */\n      swap3\n      swap2\n      pop\n      pop\n      jump\t// out\n        /* \"#utility.yul\":19595:19749   */\n    tag_511:\n        /* \"#utility.yul\":19684:19688   */\n      0x00\n        /* \"#utility.yul\":19707:19710   */\n      dup2\n        /* \"#utility.yul\":19699:19710   */\n      swap1\n      pop\n        /* \"#utility.yul\":19737:19741   */\n      0x20\n        /* \"#utility.yul\":19732:19735   */\n      dup3\n        /* \"#utility.yul\":19728:19742   */\n      add\n        /* \"#utility.yul\":19720:19742   */\n      swap1\n      pop\n        /* \"#utility.yul\":19595:19749   */\n      swap2\n      swap1\n      pop\n      jump\t// out\n        /* \"#utility.yul\":19811:21122   */\n    tag_512:\n        /* \"#utility.yul\":19914:19917   */\n      0x00\n        /* \"#utility.yul\":19950:19954   */\n      0xc0\n        /* \"#utility.yul\":19945:19948   */\n      dup4\n        /* \"#utility.yul\":19941:19955   */\n      add\n        /* \"#utility.yul\":20035:20039   */\n      0x00\n        /* \"#utility.yul\":20028:20033   */\n      dup4\n        /* \"#utility.yul\":20024:20040   */\n      add\n        /* \"#utility.yul\":20018:20041   */\n      mload\n        /* \"#utility.yul\":20054:20117   */\n      tag_757\n        /* \"#utility.yul\":20111:20115   */\n      0x00\n        /* \"#utility.yul\":20106:20109   */\n      dup7\n        /* \"#utility.yul\":20102:20116   */\n      add\n        /* \"#utility.yul\":20088:20100   */\n      dup3\n        /* \"#utility.yul\":20054:20117   */\n      tag_494\n      jump\t// in\n    tag_757:\n        /* \"#utility.yul\":19965:20127   */\n      pop\n        /* \"#utility.yul\":20214:20218   */\n      0x20\n        /* \"#utility.yul\":20207:20212   */\n      dup4\n        /* \"#utility.yul\":20203:20219   */\n      add\n        /* \"#utility.yul\":20197:20220   */\n      mload\n        /* \"#utility.yul\":20233:20296   */\n      tag_758\n        /* \"#utility.yul\":20290:20294   */\n      0x20\n        /* \"#utility.yul\":20285:20288   */\n      dup7\n        /* \"#utility.yul\":20281:20295   */\n      add\n        /* \"#utility.yul\":20267:20279   */\n      dup3\n        /* \"#utility.yul\":20233:20296   */\n      tag_495\n      jump\t// in\n    tag_758:\n        /* \"#utility.yul\":20137:20306   */\n      pop\n        /* \"#utility.yul\":20394:20398   */\n      0x40\n        /* \"#utility.yul\":20387:20392   */\n      dup4\n        /* \"#utility.yul\":20383:20399   */\n      add\n        /* \"#utility.yul\":20377:20400   */\n      mload\n        /* \"#utility.yul\":20447:20450   */\n      dup5\n        /* \"#utility.yul\":20441:20445   */\n      dup3\n        /* \"#utility.yul\":20437:20451   */\n      sub\n        /* \"#utility.yul\":20430:20434   */\n      0x40\n        /* \"#utility.yul\":20425:20428   */\n      dup7\n        /* \"#utility.yul\":20421:20435   */\n      add\n        /* \"#utility.yul\":20414:20452   */\n      mstore\n        /* \"#utility.yul\":20473:20546   */\n      tag_759\n        /* \"#utility.yul\":20541:20545   */\n      dup3\n        /* \"#utility.yul\":20527:20539   */\n      dup3\n        /* \"#utility.yul\":20473:20546   */\n      tag_497\n      jump\t// in\n    tag_759:\n        /* \"#utility.yul\":20465:20546   */\n      swap2\n      pop\n        /* \"#utility.yul\":20316:20557   */\n      pop\n        /* \"#utility.yul\":20642:20646   */\n      0x60\n        /* \"#utility.yul\":20635:20640   */\n      dup4\n        /* \"#utility.yul\":20631:20647   */\n      add\n        /* \"#utility.yul\":20625:20648   */\n      mload\n        /* \"#utility.yul\":20661:20724   */\n      tag_760\n        /* \"#utility.yul\":20718:20722   */\n      0x60\n        /* \"#utility.yul\":20713:20716   */\n      dup7\n        /* \"#utility.yul\":20709:20723   */\n      add\n        /* \"#utility.yul\":20695:20707   */\n      dup3\n        /* \"#utility.yul\":20661:20724   */\n      tag_494\n      jump\t// in\n    tag_760:\n        /* \"#utility.yul\":20567:20734   */\n      pop\n        /* \"#utility.yul\":20824:20828   */\n      0x80\n        /* \"#utility.yul\":20817:20822   */\n      dup4\n        /* \"#utility.yul\":20813:20829   */\n      add\n        /* \"#utility.yul\":20807:20830   */\n      mload\n        /* \"#utility.yul\":20843:20906   */\n      tag_761\n        /* \"#utility.yul\":20900:20904   */\n      0x80\n        /* \"#utility.yul\":20895:20898   */\n      dup7\n        /* \"#utility.yul\":20891:20905   */\n      add\n        /* \"#utility.yul\":20877:20889   */\n      dup3\n        /* \"#utility.yul\":20843:20906   */\n      tag_494\n      jump\t// in\n    tag_761:\n        /* \"#utility.yul\":20744:20916   */\n      pop\n        /* \"#utility.yul\":21003:21007   */\n      0xa0\n        /* \"#utility.yul\":20996:21001   */\n      dup4\n        /* \"#utility.yul\":20992:21008   */\n      add\n        /* \"#utility.yul\":20986:21009   */\n      mload\n        /* \"#utility.yul\":21022:21085   */\n      tag_762\n        /* \"#utility.yul\":21079:21083   */\n      0xa0\n        /* \"#utility.yul\":21074:21077   */\n      dup7\n        /* \"#utility.yul\":21070:21084   */\n      add\n        /* \"#utility.yul\":21056:21068   */\n      dup3\n        /* \"#utility.yul\":21022:21085   */\n      tag_494\n      jump\t// in\n    tag_762:\n        /* \"#utility.yul\":20926:21095   */\n      pop\n        /* \"#utility.yul\":21112:21116   */\n      dup1\n        /* \"#utility.yul\":21105:21116   */\n      swap2\n      pop\n        /* \"#utility.yul\":19919:21122   */\n      pop\n        /* \"#utility.yul\":19811:21122   */\n      swap3\n      swap2\n      pop\n      pop\n      jump\t// out\n        /* \"#utility.yul\":21128:21372   */\n    tag_513:\n        /* \"#utility.yul\":21241:21251   */\n      0x00\n        /* \"#utility.yul\":21276:21366   */\n      tag_764\n        /* \"#utility.yul\":21362:21365   */\n      dup4\n        /* \"#utility.yul\":21354:21360   */\n      dup4\n        /* \"#utility.yul\":21276:21366   */\n      tag_512\n      jump\t// in\n    tag_764:\n        /* \"#utility.yul\":21262:21366   */\n      swap1\n      pop\n        /* \"#utility.yul\":21128:21372   */\n      swap3\n      swap2\n      pop\n      pop\n      jump\t// out\n        /* \"#utility.yul\":21378:21513   */\n    tag_514:\n        /* \"#utility.yul\":21470:21474   */\n      0x00\n        /* \"#utility.yul\":21502:21506   */\n      0x20\n        /* \"#utility.yul\":21497:21500   */\n      dup3\n        /* \"#utility.yul\":21493:21507   */\n      add\n        /* \"#utility.yul\":21485:21507   */\n      swap1\n      pop\n        /* \"#utility.yul\":21378:21513   */\n      swap2\n      swap1\n      pop\n      jump\t// out\n        /* \"#utility.yul\":21579:22666   */\n    tag_515:\n        /* \"#utility.yul\":21742:21745   */\n      0x00\n        /* \"#utility.yul\":21771:21847   */\n      tag_767\n        /* \"#utility.yul\":21841:21846   */\n      dup3\n        /* \"#utility.yul\":21771:21847   */\n      tag_509\n      jump\t// in\n    tag_767:\n        /* \"#utility.yul\":21863:21971   */\n      tag_768\n        /* \"#utility.yul\":21964:21970   */\n      dup2\n        /* \"#utility.yul\":21959:21962   */\n      dup6\n        /* \"#utility.yul\":21863:21971   */\n      tag_510\n      jump\t// in\n    tag_768:\n        /* \"#utility.yul\":21856:21971   */\n      swap4\n      pop\n        /* \"#utility.yul\":21997:22000   */\n      dup4\n        /* \"#utility.yul\":22042:22046   */\n      0x20\n        /* \"#utility.yul\":22034:22040   */\n      dup3\n        /* \"#utility.yul\":22030:22047   */\n      mul\n        /* \"#utility.yul\":22025:22028   */\n      dup6\n        /* \"#utility.yul\":22021:22048   */\n      add\n        /* \"#utility.yul\":22072:22150   */\n      tag_769\n        /* \"#utility.yul\":22144:22149   */\n      dup6\n        /* \"#utility.yul\":22072:22150   */\n      tag_511\n      jump\t// in\n    tag_769:\n        /* \"#utility.yul\":22173:22180   */\n      dup1\n        /* \"#utility.yul\":22204:22205   */\n      0x00\n        /* \"#utility.yul\":22189:22621   */\n    tag_770:\n        /* \"#utility.yul\":22214:22220   */\n      dup6\n        /* \"#utility.yul\":22211:22212   */\n      dup2\n        /* \"#utility.yul\":22208:22221   */\n      lt\n        /* \"#utility.yul\":22189:22621   */\n      iszero\n      tag_772\n      jumpi\n        /* \"#utility.yul\":22285:22294   */\n      dup5\n        /* \"#utility.yul\":22279:22283   */\n      dup5\n        /* \"#utility.yul\":22275:22295   */\n      sub\n        /* \"#utility.yul\":22270:22273   */\n      dup10\n        /* \"#utility.yul\":22263:22296   */\n      mstore\n        /* \"#utility.yul\":22336:22342   */\n      dup2\n        /* \"#utility.yul\":22330:22343   */\n      mload\n        /* \"#utility.yul\":22364:22472   */\n      tag_773\n        /* \"#utility.yul\":22467:22471   */\n      dup6\n        /* \"#utility.yul\":22452:22465   */\n      dup3\n        /* \"#utility.yul\":22364:22472   */\n      tag_513\n      jump\t// in\n    tag_773:\n        /* \"#utility.yul\":22356:22472   */\n      swap5\n      pop\n        /* \"#utility.yul\":22495:22577   */\n      tag_774\n        /* \"#utility.yul\":22570:22576   */\n      dup4\n        /* \"#utility.yul\":22495:22577   */\n      tag_514\n      jump\t// in\n    tag_774:\n        /* \"#utility.yul\":22485:22577   */\n      swap3\n      pop\n        /* \"#utility.yul\":22606:22610   */\n      0x20\n        /* \"#utility.yul\":22601:22604   */\n      dup11\n        /* \"#utility.yul\":22597:22611   */\n      add\n        /* \"#utility.yul\":22590:22611   */\n      swap10\n      pop\n        /* \"#utility.yul\":22249:22621   */\n      pop\n        /* \"#utility.yul\":22236:22237   */\n      0x01\n        /* \"#utility.yul\":22233:22234   */\n      dup2\n        /* \"#utility.yul\":22229:22238   */\n      add\n        /* \"#utility.yul\":22224:22238   */\n      swap1\n      pop\n        /* \"#utility.yul\":22189:22621   */\n      jump(tag_770)\n    tag_772:\n        /* \"#utility.yul\":22193:22207   */\n      pop\n        /* \"#utility.yul\":22637:22641   */\n      dup3\n        /* \"#utility.yul\":22630:22641   */\n      swap8\n      pop\n        /* \"#utility.yul\":22657:22660   */\n      dup8\n        /* \"#utility.yul\":22650:22660   */\n      swap6\n      pop\n        /* \"#utility.yul\":21747:22666   */\n      pop\n      pop\n      pop\n      pop\n      pop\n        /* \"#utility.yul\":21579:22666   */\n      swap3\n      swap2\n      pop\n      pop\n      jump\t// out\n        /* \"#utility.yul\":22672:23353   */\n    tag_125:\n        /* \"#utility.yul\":22915:22919   */\n      0x00\n        /* \"#utility.yul\":22953:22955   */\n      0x60\n        /* \"#utility.yul\":22942:22951   */\n      dup3\n        /* \"#utility.yul\":22938:22956   */\n      add\n        /* \"#utility.yul\":22930:22956   */\n      swap1\n      pop\n        /* \"#utility.yul\":23002:23011   */\n      dup2\n        /* \"#utility.yul\":22996:23000   */\n      dup2\n        /* \"#utility.yul\":22992:23012   */\n      sub\n        /* \"#utility.yul\":22988:22989   */\n      0x00\n        /* \"#utility.yul\":22977:22986   */\n      dup4\n        /* \"#utility.yul\":22973:22990   */\n      add\n        /* \"#utility.yul\":22966:23013   */\n      mstore\n        /* \"#utility.yul\":23030:23182   */\n      tag_776\n        /* \"#utility.yul\":23177:23181   */\n      dup2\n        /* \"#utility.yul\":23168:23174   */\n      dup7\n        /* \"#utility.yul\":23030:23182   */\n      tag_515\n      jump\t// in\n    tag_776:\n        /* \"#utility.yul\":23022:23182   */\n      swap1\n      pop\n        /* \"#utility.yul\":23192:23264   */\n      tag_777\n        /* \"#utility.yul\":23260:23262   */\n      0x20\n        /* \"#utility.yul\":23249:23258   */\n      dup4\n        /* \"#utility.yul\":23245:23263   */\n      add\n        /* \"#utility.yul\":23236:23242   */\n      dup6\n        /* \"#utility.yul\":23192:23264   */\n      tag_482\n      jump\t// in\n    tag_777:\n        /* \"#utility.yul\":23274:23346   */\n      tag_778\n        /* \"#utility.yul\":23342:23344   */\n      0x40\n        /* \"#utility.yul\":23331:23340   */\n      dup4\n        /* \"#utility.yul\":23327:23345   */\n      add\n        /* \"#utility.yul\":23318:23324   */\n      dup5\n        /* \"#utility.yul\":23274:23346   */\n      tag_482\n      jump\t// in\n    tag_778:\n        /* \"#utility.yul\":22672:23353   */\n      swap5\n      swap4\n      pop\n      pop\n      pop\n      pop\n      jump\t// out\n        /* \"#utility.yul\":23359:23497   */\n    tag_516:\n        /* \"#utility.yul\":23450:23456   */\n      0x00\n        /* \"#utility.yul\":23484:23489   */\n      dup2\n        /* \"#utility.yul\":23478:23490   */\n      mload\n        /* \"#utility.yul\":23468:23490   */\n      swap1\n      pop\n        /* \"#utility.yul\":23359:23497   */\n      swap2\n      swap1\n      pop\n      jump\t// out\n        /* \"#utility.yul\":23503:23711   */\n    tag_517:\n        /* \"#utility.yul\":23626:23637   */\n      0x00\n        /* \"#utility.yul\":23660:23666   */\n      dup3\n        /* \"#utility.yul\":23655:23658   */\n      dup3\n        /* \"#utility.yul\":23648:23667   */\n      mstore\n        /* \"#utility.yul\":23700:23704   */\n      0x20\n        /* \"#utility.yul\":23695:23698   */\n      dup3\n        /* \"#utility.yul\":23691:23705   */\n      add\n        /* \"#utility.yul\":23676:23705   */\n      swap1\n      pop\n        /* \"#utility.yul\":23503:23711   */\n      swap3\n      swap2\n      pop\n      pop\n      jump\t// out\n        /* \"#utility.yul\":23717:23873   */\n    tag_518:\n        /* \"#utility.yul\":23808:23812   */\n      0x00\n        /* \"#utility.yul\":23831:23834   */\n      dup2\n        /* \"#utility.yul\":23823:23834   */\n      swap1\n      pop\n        /* \"#utility.yul\":23861:23865   */\n      0x20\n        /* \"#utility.yul\":23856:23859   */\n      dup3\n        /* \"#utility.yul\":23852:23866   */\n      add\n        /* \"#utility.yul\":23844:23866   */\n      swap1\n      pop\n        /* \"#utility.yul\":23717:23873   */\n      swap2\n      swap1\n      pop\n      jump\t// out\n        /* \"#utility.yul\":23939:26124   */\n    tag_519:\n        /* \"#utility.yul\":24046:24049   */\n      0x00\n        /* \"#utility.yul\":24082:24088   */\n      0x0140\n        /* \"#utility.yul\":24077:24080   */\n      dup4\n        /* \"#utility.yul\":24073:24089   */\n      add\n        /* \"#utility.yul\":24169:24173   */\n      0x00\n        /* \"#utility.yul\":24162:24167   */\n      dup4\n        /* \"#utility.yul\":24158:24174   */\n      add\n        /* \"#utility.yul\":24152:24175   */\n      mload\n        /* \"#utility.yul\":24188:24251   */\n      tag_783\n        /* \"#utility.yul\":24245:24249   */\n      0x00\n        /* \"#utility.yul\":24240:24243   */\n      dup7\n        /* \"#utility.yul\":24236:24250   */\n      add\n        /* \"#utility.yul\":24222:24234   */\n      dup3\n        /* \"#utility.yul\":24188:24251   */\n      tag_494\n      jump\t// in\n    tag_783:\n        /* \"#utility.yul\":24099:24261   */\n      pop\n        /* \"#utility.yul\":24344:24348   */\n      0x20\n        /* \"#utility.yul\":24337:24342   */\n      dup4\n        /* \"#utility.yul\":24333:24349   */\n      add\n        /* \"#utility.yul\":24327:24350   */\n      mload\n        /* \"#utility.yul\":24363:24426   */\n      tag_784\n        /* \"#utility.yul\":24420:24424   */\n      0x20\n        /* \"#utility.yul\":24415:24418   */\n      dup7\n        /* \"#utility.yul\":24411:24425   */\n      add\n        /* \"#utility.yul\":24397:24409   */\n      dup3\n        /* \"#utility.yul\":24363:24426   */\n      tag_495\n      jump\t// in\n    tag_784:\n        /* \"#utility.yul\":24271:24436   */\n      pop\n        /* \"#utility.yul\":24526:24530   */\n      0x40\n        /* \"#utility.yul\":24519:24524   */\n      dup4\n        /* \"#utility.yul\":24515:24531   */\n      add\n        /* \"#utility.yul\":24509:24532   */\n      mload\n        /* \"#utility.yul\":24579:24582   */\n      dup5\n        /* \"#utility.yul\":24573:24577   */\n      dup3\n        /* \"#utility.yul\":24569:24583   */\n      sub\n        /* \"#utility.yul\":24562:24566   */\n      0x40\n        /* \"#utility.yul\":24557:24560   */\n      dup7\n        /* \"#utility.yul\":24553:24567   */\n      add\n        /* \"#utility.yul\":24546:24584   */\n      mstore\n        /* \"#utility.yul\":24605:24678   */\n      tag_785\n        /* \"#utility.yul\":24673:24677   */\n      dup3\n        /* \"#utility.yul\":24659:24671   */\n      dup3\n        /* \"#utility.yul\":24605:24678   */\n      tag_497\n      jump\t// in\n    tag_785:\n        /* \"#utility.yul\":24597:24678   */\n      swap2\n      pop\n        /* \"#utility.yul\":24446:24689   */\n      pop\n        /* \"#utility.yul\":24782:24786   */\n      0x60\n        /* \"#utility.yul\":24775:24780   */\n      dup4\n        /* \"#utility.yul\":24771:24787   */\n      add\n        /* \"#utility.yul\":24765:24788   */\n      mload\n        /* \"#utility.yul\":24835:24838   */\n      dup5\n        /* \"#utility.yul\":24829:24833   */\n      dup3\n        /* \"#utility.yul\":24825:24839   */\n      sub\n        /* \"#utility.yul\":24818:24822   */\n      0x60\n        /* \"#utility.yul\":24813:24816   */\n      dup7\n        /* \"#utility.yul\":24809:24823   */\n      add\n        /* \"#utility.yul\":24802:24840   */\n      mstore\n        /* \"#utility.yul\":24861:24934   */\n      tag_786\n        /* \"#utility.yul\":24929:24933   */\n      dup3\n        /* \"#utility.yul\":24915:24927   */\n      dup3\n        /* \"#utility.yul\":24861:24934   */\n      tag_497\n      jump\t// in\n    tag_786:\n        /* \"#utility.yul\":24853:24934   */\n      swap2\n      pop\n        /* \"#utility.yul\":24699:24945   */\n      pop\n        /* \"#utility.yul\":25031:25035   */\n      0x80\n        /* \"#utility.yul\":25024:25029   */\n      dup4\n        /* \"#utility.yul\":25020:25036   */\n      add\n        /* \"#utility.yul\":25014:25037   */\n      mload\n        /* \"#utility.yul\":25084:25087   */\n      dup5\n        /* \"#utility.yul\":25078:25082   */\n      dup3\n        /* \"#utility.yul\":25074:25088   */\n      sub\n        /* \"#utility.yul\":25067:25071   */\n      0x80\n        /* \"#utility.yul\":25062:25065   */\n      dup7\n        /* \"#utility.yul\":25058:25072   */\n      add\n        /* \"#utility.yul\":25051:25089   */\n      mstore\n        /* \"#utility.yul\":25110:25183   */\n      tag_787\n        /* \"#utility.yul\":25178:25182   */\n      dup3\n        /* \"#utility.yul\":25164:25176   */\n      dup3\n        /* \"#utility.yul\":25110:25183   */\n      tag_497\n      jump\t// in\n    tag_787:\n        /* \"#utility.yul\":25102:25183   */\n      swap2\n      pop\n        /* \"#utility.yul\":24955:25194   */\n      pop\n        /* \"#utility.yul\":25284:25288   */\n      0xa0\n        /* \"#utility.yul\":25277:25282   */\n      dup4\n        /* \"#utility.yul\":25273:25289   */\n      add\n        /* \"#utility.yul\":25267:25290   */\n      mload\n        /* \"#utility.yul\":25303:25366   */\n      tag_788\n        /* \"#utility.yul\":25360:25364   */\n      0xa0\n        /* \"#utility.yul\":25355:25358   */\n      dup7\n        /* \"#utility.yul\":25351:25365   */\n      add\n        /* \"#utility.yul\":25337:25349   */\n      dup3\n        /* \"#utility.yul\":25303:25366   */\n      tag_494\n      jump\t// in\n    tag_788:\n        /* \"#utility.yul\":25204:25376   */\n      pop\n        /* \"#utility.yul\":25463:25467   */\n      0xc0\n        /* \"#utility.yul\":25456:25461   */\n      dup4\n        /* \"#utility.yul\":25452:25468   */\n      add\n        /* \"#utility.yul\":25446:25469   */\n      mload\n        /* \"#utility.yul\":25482:25545   */\n      tag_789\n        /* \"#utility.yul\":25539:25543   */\n      0xc0\n        /* \"#utility.yul\":25534:25537   */\n      dup7\n        /* \"#utility.yul\":25530:25544   */\n      add\n        /* \"#utility.yul\":25516:25528   */\n      dup3\n        /* \"#utility.yul\":25482:25545   */\n      tag_494\n      jump\t// in\n    tag_789:\n        /* \"#utility.yul\":25386:25555   */\n      pop\n        /* \"#utility.yul\":25641:25645   */\n      0xe0\n        /* \"#utility.yul\":25634:25639   */\n      dup4\n        /* \"#utility.yul\":25630:25646   */\n      add\n        /* \"#utility.yul\":25624:25647   */\n      mload\n        /* \"#utility.yul\":25660:25723   */\n      tag_790\n        /* \"#utility.yul\":25717:25721   */\n      0xe0\n        /* \"#utility.yul\":25712:25715   */\n      dup7\n        /* \"#utility.yul\":25708:25722   */\n      add\n        /* \"#utility.yul\":25694:25706   */\n      dup3\n        /* \"#utility.yul\":25660:25723   */\n      tag_494\n      jump\t// in\n    tag_790:\n        /* \"#utility.yul\":25565:25733   */\n      pop\n        /* \"#utility.yul\":25819:25825   */\n      0x0100\n        /* \"#utility.yul\":25812:25817   */\n      dup4\n        /* \"#utility.yul\":25808:25826   */\n      add\n        /* \"#utility.yul\":25802:25827   */\n      mload\n        /* \"#utility.yul\":25840:25899   */\n      tag_791\n        /* \"#utility.yul\":25891:25897   */\n      0x0100\n        /* \"#utility.yul\":25886:25889   */\n      dup7\n        /* \"#utility.yul\":25882:25898   */\n      add\n        /* \"#utility.yul\":25868:25880   */\n      dup3\n        /* \"#utility.yul\":25840:25899   */\n      tag_507\n      jump\t// in\n    tag_791:\n        /* \"#utility.yul\":25743:25909   */\n      pop\n        /* \"#utility.yul\":26001:26007   */\n      0x0120\n        /* \"#utility.yul\":25994:25999   */\n      dup4\n        /* \"#utility.yul\":25990:26008   */\n      add\n        /* \"#utility.yul\":25984:26009   */\n      mload\n        /* \"#utility.yul\":26022:26087   */\n      tag_792\n        /* \"#utility.yul\":26079:26085   */\n      0x0120\n        /* \"#utility.yul\":26074:26077   */\n      dup7\n        /* \"#utility.yul\":26070:26086   */\n      add\n        /* \"#utility.yul\":26056:26068   */\n      dup3\n        /* \"#utility.yul\":26022:26087   */\n      tag_494\n      jump\t// in\n    tag_792:\n        /* \"#utility.yul\":25919:26097   */\n      pop\n        /* \"#utility.yul\":26114:26118   */\n      dup1\n        /* \"#utility.yul\":26107:26118   */\n      swap2\n      pop\n        /* \"#utility.yul\":24051:26124   */\n      pop\n        /* \"#utility.yul\":23939:26124   */\n      swap3\n      swap2\n      pop\n      pop\n      jump\t// out\n        /* \"#utility.yul\":26130:26382   */\n    tag_520:\n        /* \"#utility.yul\":26247:26257   */\n      0x00\n        /* \"#utility.yul\":26282:26376   */\n      tag_794\n        /* \"#utility.yul\":26372:26375   */\n      dup4\n        /* \"#utility.yul\":26364:26370   */\n      dup4\n        /* \"#utility.yul\":26282:26376   */\n      tag_519\n      jump\t// in\n    tag_794:\n        /* \"#utility.yul\":26268:26376   */\n      swap1\n      pop\n        /* \"#utility.yul\":26130:26382   */\n      swap3\n      swap2\n      pop\n      pop\n      jump\t// out\n        /* \"#utility.yul\":26388:26525   */\n    tag_521:\n        /* \"#utility.yul\":26482:26486   */\n      0x00\n        /* \"#utility.yul\":26514:26518   */\n      0x20\n        /* \"#utility.yul\":26509:26512   */\n      dup3\n        /* \"#utility.yul\":26505:26519   */\n      add\n        /* \"#utility.yul\":26497:26519   */\n      swap1\n      pop\n        /* \"#utility.yul\":26388:26525   */\n      swap2\n      swap1\n      pop\n      jump\t// out\n        /* \"#utility.yul\":26595:27698   */\n    tag_522:\n        /* \"#utility.yul\":26762:26765   */\n      0x00\n        /* \"#utility.yul\":26791:26869   */\n      tag_797\n        /* \"#utility.yul\":26863:26868   */\n      dup3\n        /* \"#utility.yul\":26791:26869   */\n      tag_516\n      jump\t// in\n    tag_797:\n        /* \"#utility.yul\":26885:26995   */\n      tag_798\n        /* \"#utility.yul\":26988:26994   */\n      dup2\n        /* \"#utility.yul\":26983:26986   */\n      dup6\n        /* \"#utility.yul\":26885:26995   */\n      tag_517\n      jump\t// in\n    tag_798:\n        /* \"#utility.yul\":26878:26995   */\n      swap4\n      pop\n        /* \"#utility.yul\":27021:27024   */\n      dup4\n        /* \"#utility.yul\":27066:27070   */\n      0x20\n        /* \"#utility.yul\":27058:27064   */\n      dup3\n        /* \"#utility.yul\":27054:27071   */\n      mul\n        /* \"#utility.yul\":27049:27052   */\n      dup6\n        /* \"#utility.yul\":27045:27072   */\n      add\n        /* \"#utility.yul\":27096:27176   */\n      tag_799\n        /* \"#utility.yul\":27170:27175   */\n      dup6\n        /* \"#utility.yul\":27096:27176   */\n      tag_518\n      jump\t// in\n    tag_799:\n        /* \"#utility.yul\":27199:27206   */\n      dup1\n        /* \"#utility.yul\":27230:27231   */\n      0x00\n        /* \"#utility.yul\":27215:27653   */\n    tag_800:\n        /* \"#utility.yul\":27240:27246   */\n      dup6\n        /* \"#utility.yul\":27237:27238   */\n      dup2\n        /* \"#utility.yul\":27234:27247   */\n      lt\n        /* \"#utility.yul\":27215:27653   */\n      iszero\n      tag_802\n      jumpi\n        /* \"#utility.yul\":27311:27320   */\n      dup5\n        /* \"#utility.yul\":27305:27309   */\n      dup5\n        /* \"#utility.yul\":27301:27321   */\n      sub\n        /* \"#utility.yul\":27296:27299   */\n      dup10\n        /* \"#utility.yul\":27289:27322   */\n      mstore\n        /* \"#utility.yul\":27362:27368   */\n      dup2\n        /* \"#utility.yul\":27356:27369   */\n      mload\n        /* \"#utility.yul\":27390:27502   */\n      tag_803\n        /* \"#utility.yul\":27497:27501   */\n      dup6\n        /* \"#utility.yul\":27482:27495   */\n      dup3\n        /* \"#utility.yul\":27390:27502   */\n      tag_520\n      jump\t// in\n    tag_803:\n        /* \"#utility.yul\":27382:27502   */\n      swap5\n      pop\n        /* \"#utility.yul\":27525:27609   */\n      tag_804\n        /* \"#utility.yul\":27602:27608   */\n      dup4\n        /* \"#utility.yul\":27525:27609   */\n      tag_521\n      jump\t// in\n    tag_804:\n        /* \"#utility.yul\":27515:27609   */\n      swap3\n      pop\n        /* \"#utility.yul\":27638:27642   */\n      0x20\n        /* \"#utility.yul\":27633:27636   */\n      dup11\n        /* \"#utility.yul\":27629:27643   */\n      add\n        /* \"#utility.yul\":27622:27643   */\n      swap10\n      pop\n        /* \"#utility.yul\":27275:27653   */\n      pop\n        /* \"#utility.yul\":27262:27263   */\n      0x01\n        /* \"#utility.yul\":27259:27260   */\n      dup2\n        /* \"#utility.yul\":27255:27264   */\n      add\n        /* \"#utility.yul\":27250:27264   */\n      swap1\n      pop\n        /* \"#utility.yul\":27215:27653   */\n      jump(tag_800)\n    tag_802:\n        /* \"#utility.yul\":27219:27233   */\n      pop\n        /* \"#utility.yul\":27669:27673   */\n      dup3\n        /* \"#utility.yul\":27662:27673   */\n      swap8\n      pop\n        /* \"#utility.yul\":27689:27692   */\n      dup8\n        /* \"#utility.yul\":27682:27692   */\n      swap6\n      pop\n        /* \"#utility.yul\":26767:27698   */\n      pop\n      pop\n      pop\n      pop\n      pop\n        /* \"#utility.yul\":26595:27698   */\n      swap3\n      swap2\n      pop\n      pop\n      jump\t// out\n        /* \"#utility.yul\":27704:28393   */\n    tag_135:\n        /* \"#utility.yul\":27951:27955   */\n      0x00\n        /* \"#utility.yul\":27989:27991   */\n      0x60\n        /* \"#utility.yul\":27978:27987   */\n      dup3\n        /* \"#utility.yul\":27974:27992   */\n      add\n        /* \"#utility.yul\":27966:27992   */\n      swap1\n      pop\n        /* \"#utility.yul\":28038:28047   */\n      dup2\n        /* \"#utility.yul\":28032:28036   */\n      dup2\n        /* \"#utility.yul\":28028:28048   */\n      sub\n        /* \"#utility.yul\":28024:28025   */\n      0x00\n        /* \"#utility.yul\":28013:28022   */\n      dup4\n        /* \"#utility.yul\":28009:28026   */\n      add\n        /* \"#utility.yul\":28002:28049   */\n      mstore\n        /* \"#utility.yul\":28066:28222   */\n      tag_806\n        /* \"#utility.yul\":28217:28221   */\n      dup2\n        /* \"#utility.yul\":28208:28214   */\n      dup7\n        /* \"#utility.yul\":28066:28222   */\n      tag_522\n      jump\t// in\n    tag_806:\n        /* \"#utility.yul\":28058:28222   */\n      swap1\n      pop\n        /* \"#utility.yul\":28232:28304   */\n      tag_807\n        /* \"#utility.yul\":28300:28302   */\n      0x20\n        /* \"#utility.yul\":28289:28298   */\n      dup4\n        /* \"#utility.yul\":28285:28303   */\n      add\n        /* \"#utility.yul\":28276:28282   */\n      dup6\n        /* \"#utility.yul\":28232:28304   */\n      tag_482\n      jump\t// in\n    tag_807:\n        /* \"#utility.yul\":28314:28386   */\n      tag_808\n        /* \"#utility.yul\":28382:28384   */\n      0x40\n        /* \"#utility.yul\":28371:28380   */\n      dup4\n        /* \"#utility.yul\":28367:28385   */\n      add\n        /* \"#utility.yul\":28358:28364   */\n      dup5\n        /* \"#utility.yul\":28314:28386   */\n      tag_482\n      jump\t// in\n    tag_808:\n        /* \"#utility.yul\":27704:28393   */\n      swap5\n      swap4\n      pop\n      pop\n      pop\n      pop\n      jump\t// out\n        /* \"#utility.yul\":28399:28572   */\n    tag_523:\n        /* \"#utility.yul\":28539:28564   */\n      0x5175657374696f6e20646f6573206e6f74206578697374000000000000000000\n        /* \"#utility.yul\":28535:28536   */\n      0x00\n        /* \"#utility.yul\":28527:28533   */\n      dup3\n        /* \"#utility.yul\":28523:28537   */\n      add\n        /* \"#utility.yul\":28516:28565   */\n      mstore\n        /* \"#utility.yul\":28399:28572   */\n      pop\n      jump\t// out\n        /* \"#utility.yul\":28578:28944   */\n    tag_524:\n        /* \"#utility.yul\":28720:28723   */\n      0x00\n        /* \"#utility.yul\":28741:28808   */\n      tag_811\n        /* \"#utility.yul\":28805:28807   */\n      0x17\n        /* \"#utility.yul\":28800:28803   */\n      dup4\n        /* \"#utility.yul\":28741:28808   */\n      tag_487\n      jump\t// in\n    tag_811:\n        /* \"#utility.yul\":28734:28808   */\n      swap2\n      pop\n        /* \"#utility.yul\":28817:28910   */\n      tag_812\n        /* \"#utility.yul\":28906:28909   */\n      dup3\n        /* \"#utility.yul\":28817:28910   */\n      tag_523\n      jump\t// in\n    tag_812:\n        /* \"#utility.yul\":28935:28937   */\n      0x20\n        /* \"#utility.yul\":28930:28933   */\n      dup3\n        /* \"#utility.yul\":28926:28938   */\n      add\n        /* \"#utility.yul\":28919:28938   */\n      swap1\n      pop\n        /* \"#utility.yul\":28578:28944   */\n      swap2\n      swap1\n      pop\n      jump\t// out\n        /* \"#utility.yul\":28950:29369   */\n    tag_139:\n        /* \"#utility.yul\":29116:29120   */\n      0x00\n        /* \"#utility.yul\":29154:29156   */\n      0x20\n        /* \"#utility.yul\":29143:29152   */\n      dup3\n        /* \"#utility.yul\":29139:29157   */\n      add\n        /* \"#utility.yul\":29131:29157   */\n      swap1\n      pop\n        /* \"#utility.yul\":29203:29212   */\n      dup2\n        /* \"#utility.yul\":29197:29201   */\n      dup2\n        /* \"#utility.yul\":29193:29213   */\n      sub\n        /* \"#utility.yul\":29189:29190   */\n      0x00\n        /* \"#utility.yul\":29178:29187   */\n      dup4\n        /* \"#utility.yul\":29174:29191   */\n      add\n        /* \"#utility.yul\":29167:29214   */\n      mstore\n        /* \"#utility.yul\":29231:29362   */\n      tag_814\n        /* \"#utility.yul\":29357:29361   */\n      dup2\n        /* \"#utility.yul\":29231:29362   */\n      tag_524\n      jump\t// in\n    tag_814:\n        /* \"#utility.yul\":29223:29362   */\n      swap1\n      pop\n        /* \"#utility.yul\":28950:29369   */\n      swap2\n      swap1\n      pop\n      jump\t// out\n        /* \"#utility.yul\":29375:29551   */\n    tag_525:\n        /* \"#utility.yul\":29515:29543   */\n      0x5175657374696f6e20697320616c726561647920636c6f736564000000000000\n        /* \"#utility.yul\":29511:29512   */\n      0x00\n        /* \"#utility.yul\":29503:29509   */\n      dup3\n        /* \"#utility.yul\":29499:29513   */\n      add\n        /* \"#utility.yul\":29492:29544   */\n      mstore\n        /* \"#utility.yul\":29375:29551   */\n      pop\n      jump\t// out\n        /* \"#utility.yul\":29557:29923   */\n    tag_526:\n        /* \"#utility.yul\":29699:29702   */\n      0x00\n        /* \"#utility.yul\":29720:29787   */\n      tag_817\n        /* \"#utility.yul\":29784:29786   */\n      0x1a\n        /* \"#utility.yul\":29779:29782   */\n      dup4\n        /* \"#utility.yul\":29720:29787   */\n      tag_487\n      jump\t// in\n    tag_817:\n        /* \"#utility.yul\":29713:29787   */\n      swap2\n      pop\n        /* \"#utility.yul\":29796:29889   */\n      tag_818\n        /* \"#utility.yul\":29885:29888   */\n      dup3\n        /* \"#utility.yul\":29796:29889   */\n      tag_525\n      jump\t// in\n    tag_818:\n        /* \"#utility.yul\":29914:29916   */\n      0x20\n        /* \"#utility.yul\":29909:29912   */\n      dup3\n        /* \"#utility.yul\":29905:29917   */\n      add\n        /* \"#utility.yul\":29898:29917   */\n      swap1\n      pop\n        /* \"#utility.yul\":29557:29923   */\n      swap2\n      swap1\n      pop\n      jump\t// out\n        /* \"#utility.yul\":29929:30348   */\n    tag_143:\n        /* \"#utility.yul\":30095:30099   */\n      0x00\n        /* \"#utility.yul\":30133:30135   */\n      0x20\n        /* \"#utility.yul\":30122:30131   */\n      dup3\n        /* \"#utility.yul\":30118:30136   */\n      add\n        /* \"#utility.yul\":30110:30136   */\n      swap1\n      pop\n        /* \"#utility.yul\":30182:30191   */\n      dup2\n        /* \"#utility.yul\":30176:30180   */\n      dup2\n        /* \"#utility.yul\":30172:30192   */\n      sub\n        /* \"#utility.yul\":30168:30169   */\n      0x00\n        /* \"#utility.yul\":30157:30166   */\n      dup4\n        /* \"#utility.yul\":30153:30170   */\n      add\n        /* \"#utility.yul\":30146:30193   */\n      mstore\n        /* \"#utility.yul\":30210:30341   */\n      tag_820\n        /* \"#utility.yul\":30336:30340   */\n      dup2\n        /* \"#utility.yul\":30210:30341   */\n      tag_526\n      jump\t// in\n    tag_820:\n        /* \"#utility.yul\":30202:30341   */\n      swap1\n      pop\n        /* \"#utility.yul\":29929:30348   */\n      swap2\n      swap1\n      pop\n      jump\t// out\n        /* \"#utility.yul\":30354:30533   */\n    tag_527:\n        /* \"#utility.yul\":30494:30525   */\n      0x4f6e6c792061736b65722063616e20636c6f7365207175657374696f6e000000\n        /* \"#utility.yul\":30490:30491   */\n      0x00\n        /* \"#utility.yul\":30482:30488   */\n      dup3\n        /* \"#utility.yul\":30478:30492   */\n      add\n        /* \"#utility.yul\":30471:30526   */\n      mstore\n        /* \"#utility.yul\":30354:30533   */\n      pop\n      jump\t// out\n        /* \"#utility.yul\":30539:30905   */\n    tag_528:\n        /* \"#utility.yul\":30681:30684   */\n      0x00\n        /* \"#utility.yul\":30702:30769   */\n      tag_823\n        /* \"#utility.yul\":30766:30768   */\n      0x1d\n        /* \"#utility.yul\":30761:30764   */\n      dup4\n        /* \"#utility.yul\":30702:30769   */\n      tag_487\n      jump\t// in\n    tag_823:\n        /* \"#utility.yul\":30695:30769   */\n      swap2\n      pop\n        /* \"#utility.yul\":30778:30871   */\n      tag_824\n        /* \"#utility.yul\":30867:30870   */\n      dup3\n        /* \"#utility.yul\":30778:30871   */\n      tag_527\n      jump\t// in\n    tag_824:\n        /* \"#utility.yul\":30896:30898   */\n      0x20\n        /* \"#utility.yul\":30891:30894   */\n      dup3\n        /* \"#utility.yul\":30887:30899   */\n      add\n        /* \"#utility.yul\":30880:30899   */\n      swap1\n      pop\n        /* \"#utility.yul\":30539:30905   */\n      swap2\n      swap1\n      pop\n      jump\t// out\n        /* \"#utility.yul\":30911:31330   */\n    tag_147:\n        /* \"#utility.yul\":31077:31081   */\n      0x00\n        /* \"#utility.yul\":31115:31117   */\n      0x20\n        /* \"#utility.yul\":31104:31113   */\n      dup3\n        /* \"#utility.yul\":31100:31118   */\n      add\n        /* \"#utility.yul\":31092:31118   */\n      swap1\n      pop\n        /* \"#utility.yul\":31164:31173   */\n      dup2\n        /* \"#utility.yul\":31158:31162   */\n      dup2\n        /* \"#utility.yul\":31154:31174   */\n      sub\n        /* \"#utility.yul\":31150:31151   */\n      0x00\n        /* \"#utility.yul\":31139:31148   */\n      dup4\n        /* \"#utility.yul\":31135:31152   */\n      add\n        /* \"#utility.yul\":31128:31175   */\n      mstore\n        /* \"#utility.yul\":31192:31323   */\n      tag_826\n        /* \"#utility.yul\":31318:31322   */\n      dup2\n        /* \"#utility.yul\":31192:31323   */\n      tag_528\n      jump\t// in\n    tag_826:\n        /* \"#utility.yul\":31184:31323   */\n      swap1\n      pop\n        /* \"#utility.yul\":30911:31330   */\n      swap2\n      swap1\n      pop\n      jump\t// out\n        /* \"#utility.yul\":31336:31668   */\n    tag_149:\n        /* \"#utility.yul\":31457:31461   */\n      0x00\n        /* \"#utility.yul\":31495:31497   */\n      0x40\n        /* \"#utility.yul\":31484:31493   */\n      dup3\n        /* \"#utility.yul\":31480:31498   */\n      add\n        /* \"#utility.yul\":31472:31498   */\n      swap1\n      pop\n        /* \"#utility.yul\":31508:31579   */\n      tag_828\n        /* \"#utility.yul\":31576:31577   */\n      0x00\n        /* \"#utility.yul\":31565:31574   */\n      dup4\n        /* \"#utility.yul\":31561:31578   */\n      add\n        /* \"#utility.yul\":31552:31558   */\n      dup6\n        /* \"#utility.yul\":31508:31579   */\n      tag_482\n      jump\t// in\n    tag_828:\n        /* \"#utility.yul\":31589:31661   */\n      tag_829\n        /* \"#utility.yul\":31657:31659   */\n      0x20\n        /* \"#utility.yul\":31646:31655   */\n      dup4\n        /* \"#utility.yul\":31642:31660   */\n      add\n        /* \"#utility.yul\":31633:31639   */\n      dup5\n        /* \"#utility.yul\":31589:31661   */\n      tag_482\n      jump\t// in\n    tag_829:\n        /* \"#utility.yul\":31336:31668   */\n      swap4\n      swap3\n      pop\n      pop\n      pop\n      jump\t// out\n        /* \"#utility.yul\":31674:31854   */\n    tag_529:\n        /* \"#utility.yul\":31722:31799   */\n      0x4e487b7100000000000000000000000000000000000000000000000000000000\n        /* \"#utility.yul\":31719:31720   */\n      0x00\n        /* \"#utility.yul\":31712:31800   */\n      mstore\n        /* \"#utility.yul\":31819:31823   */\n      0x22\n        /* \"#utility.yul\":31816:31817   */\n      0x04\n        /* \"#utility.yul\":31809:31824   */\n      mstore\n        /* \"#utility.yul\":31843:31847   */\n      0x24\n        /* \"#utility.yul\":31840:31841   */\n      0x00\n        /* \"#utility.yul\":31833:31848   */\n      revert\n        /* \"#utility.yul\":31860:32180   */\n    tag_158:\n        /* \"#utility.yul\":31904:31910   */\n      0x00\n        /* \"#utility.yul\":31941:31942   */\n      0x02\n        /* \"#utility.yul\":31935:31939   */\n      dup3\n        /* \"#utility.yul\":31931:31943   */\n      div\n        /* \"#utility.yul\":31921:31943   */\n      swap1\n      pop\n        /* \"#utility.yul\":31988:31989   */\n      0x01\n        /* \"#utility.yul\":31982:31986   */\n      dup3\n        /* \"#utility.yul\":31978:31990   */\n      and\n        /* \"#utility.yul\":32009:32027   */\n      dup1\n        /* \"#utility.yul\":31999:32080   */\n      tag_832\n      jumpi\n        /* \"#utility.yul\":32065:32069   */\n      0x7f\n        /* \"#utility.yul\":32057:32063   */\n      dup3\n        /* \"#utility.yul\":32053:32070   */\n      and\n        /* \"#utility.yul\":32043:32070   */\n      swap2\n      pop\n        /* \"#utility.yul\":31999:32080   */\n    tag_832:\n        /* \"#utility.yul\":32127:32129   */\n      0x20\n        /* \"#utility.yul\":32119:32125   */\n      dup3\n        /* \"#utility.yul\":32116:32130   */\n      lt\n        /* \"#utility.yul\":32096:32114   */\n      dup2\n        /* \"#utility.yul\":32093:32131   */\n      sub\n        /* \"#utility.yul\":32090:32174   */\n      tag_833\n      jumpi\n        /* \"#utility.yul\":32146:32164   */\n      tag_834\n      tag_529\n      jump\t// in\n    tag_834:\n        /* \"#utility.yul\":32090:32174   */\n    tag_833:\n        /* \"#utility.yul\":31911:32180   */\n      pop\n        /* \"#utility.yul\":31860:32180   */\n      swap2\n      swap1\n      pop\n      jump\t// out\n        /* \"#utility.yul\":32186:32364   */\n    tag_530:\n        /* \"#utility.yul\":32326:32356   */\n      0x5175657374696f6e20646561646c696e65206861732070617373656400000000\n        /* \"#utility.yul\":32322:32323   */\n      0x00\n        /* \"#utility.yul\":32314:32320   */\n      dup3\n        /* \"#utility.yul\":32310:32324   */\n      add\n        /* \"#utility.yul\":32303:32357   */\n      mstore\n        /* \"#utility.yul\":32186:32364   */\n      pop\n      jump\t// out\n        /* \"#utility.yul\":32370:32736   */\n    tag_531:\n        /* \"#utility.yul\":32512:32515   */\n      0x00\n        /* \"#utility.yul\":32533:32600   */\n      tag_837\n        /* \"#utility.yul\":32597:32599   */\n      0x1c\n        /* \"#utility.yul\":32592:32595   */\n      dup4\n        /* \"#utility.yul\":32533:32600   */\n      tag_487\n      jump\t// in\n    tag_837:\n        /* \"#utility.yul\":32526:32600   */\n      swap2\n      pop\n        /* \"#utility.yul\":32609:32702   */\n      tag_838\n        /* \"#utility.yul\":32698:32701   */\n      dup3\n        /* \"#utility.yul\":32609:32702   */\n      tag_530\n      jump\t// in\n    tag_838:\n        /* \"#utility.yul\":32727:32729   */\n      0x20\n        /* \"#utility.yul\":32722:32725   */\n      dup3\n        /* \"#utility.yul\":32718:32730   */\n      add\n        /* \"#utility.yul\":32711:32730   */\n      swap1\n      pop\n        /* \"#utility.yul\":32370:32736   */\n      swap2\n      swap1\n      pop\n      jump\t// out\n        /* \"#utility.yul\":32742:33161   */\n    tag_175:\n        /* \"#utility.yul\":32908:32912   */\n      0x00\n        /* \"#utility.yul\":32946:32948   */\n      0x20\n        /* \"#utility.yul\":32935:32944   */\n      dup3\n        /* \"#utility.yul\":32931:32949   */\n      add\n        /* \"#utility.yul\":32923:32949   */\n      swap1\n      pop\n        /* \"#utility.yul\":32995:33004   */\n      dup2\n        /* \"#utility.yul\":32989:32993   */\n      dup2\n        /* \"#utility.yul\":32985:33005   */\n      sub\n        /* \"#utility.yul\":32981:32982   */\n      0x00\n        /* \"#utility.yul\":32970:32979   */\n      dup4\n        /* \"#utility.yul\":32966:32983   */\n      add\n        /* \"#utility.yul\":32959:33006   */\n      mstore\n        /* \"#utility.yul\":33023:33154   */\n      tag_840\n        /* \"#utility.yul\":33149:33153   */\n      dup2\n        /* \"#utility.yul\":33023:33154   */\n      tag_531\n      jump\t// in\n    tag_840:\n        /* \"#utility.yul\":33015:33154   */\n      swap1\n      pop\n        /* \"#utility.yul\":32742:33161   */\n      swap2\n      swap1\n      pop\n      jump\t// out\n        /* \"#utility.yul\":33167:33347   */\n    tag_532:\n        /* \"#utility.yul\":33215:33292   */\n      0x4e487b7100000000000000000000000000000000000000000000000000000000\n        /* \"#utility.yul\":33212:33213   */\n      0x00\n        /* \"#utility.yul\":33205:33293   */\n      mstore\n        /* \"#utility.yul\":33312:33316   */\n      0x11\n        /* \"#utility.yul\":33309:33310   */\n      0x04\n        /* \"#utility.yul\":33302:33317   */\n      mstore\n        /* \"#utility.yul\":33336:33340   */\n      0x24\n        /* \"#utility.yul\":33333:33334   */\n      0x00\n        /* \"#utility.yul\":33326:33341   */\n      revert\n        /* \"#utility.yul\":33353:33586   */\n    tag_177:\n        /* \"#utility.yul\":33392:33395   */\n      0x00\n        /* \"#utility.yul\":33415:33439   */\n      tag_843\n        /* \"#utility.yul\":33433:33438   */\n      dup3\n        /* \"#utility.yul\":33415:33439   */\n      tag_470\n      jump\t// in\n    tag_843:\n        /* \"#utility.yul\":33406:33439   */\n      swap2\n      pop\n        /* \"#utility.yul\":33461:33527   */\n      0xffffffffffffffffffffffffffffffffffffffffffffffffffffffffffffffff\n        /* \"#utility.yul\":33454:33459   */\n      dup3\n        /* \"#utility.yul\":33451:33528   */\n      sub\n        /* \"#utility.yul\":33448:33551   */\n      tag_844\n      jumpi\n        /* \"#utility.yul\":33531:33549   */\n      tag_845\n      tag_532\n      jump\t// in\n    tag_845:\n        /* \"#utility.yul\":33448:33551   */\n    tag_844:\n        /* \"#utility.yul\":33578:33579   */\n      0x01\n        /* \"#utility.yul\":33571:33576   */\n      dup3\n        /* \"#utility.yul\":33567:33580   */\n      add\n        /* \"#utility.yul\":33560:33580   */\n      swap1\n      pop\n        /* \"#utility.yul\":33353:33586   */\n      swap2\n      swap1\n      pop\n      jump\t// out\n        /* \"#utility.yul\":33592:33733   */\n    tag_533:\n        /* \"#utility.yul\":33641:33645   */\n      0x00\n        /* \"#utility.yul\":33664:33667   */\n      dup2\n        /* \"#utility.yul\":33656:33667   */\n      swap1\n      pop\n        /* \"#utility.yul\":33687:33690   */\n      dup2\n        /* \"#utility.yul\":33684:33685   */\n      0x00\n        /* \"#utility.yul\":33677:33691   */\n      mstore\n        /* \"#utility.yul\":33721:33725   */\n      0x20\n        /* \"#utility.yul\":33718:33719   */\n      0x00\n        /* \"#utility.yul\":33708:33726   */\n      keccak256\n        /* \"#utility.yul\":33700:33726   */\n      swap1\n      pop\n        /* \"#utility.yul\":33592:33733   */\n      swap2\n      swap1\n      pop\n      jump\t// out\n        /* \"#utility.yul\":33739:33832   */\n    tag_534:\n        /* \"#utility.yul\":33776:33782   */\n      0x00\n        /* \"#utility.yul\":33823:33825   */\n      0x20\n        /* \"#utility.yul\":33818:33820   */\n      0x1f\n        /* \"#utility.yul\":33811:33816   */\n      dup4\n        /* \"#utility.yul\":33807:33821   */\n      add\n        /* \"#utility.yul\":33803:33826   */\n      div\n        /* \"#utility.yul\":33793:33826   */\n      swap1\n      pop\n        /* \"#utility.yul\":33739:33832   */\n      swap2\n      swap1\n      pop\n      jump\t// out\n        /* \"#utility.yul\":33838:33945   */\n    tag_535:\n        /* \"#utility.yul\":33882:33890   */\n      0x00\n        /* \"#utility.yul\":33932:33937   */\n      dup3\n        /* \"#utility.yul\":33926:33930   */\n      dup3\n        /* \"#utility.yul\":33922:33938   */\n      shl\n        /* \"#utility.yul\":33901:33938   */\n      swap1\n      pop\n        /* \"#utility.yul\":33838:33945   */\n      swap3\n      swap2\n      pop\n      pop\n      jump\t// out\n        /* \"#utility.yul\":33951:34344   */\n    tag_536:\n        /* \"#utility.yul\":34020:34026   */\n      0x00\n        /* \"#utility.yul\":34070:34071   */\n      0x08\n        /* \"#utility.yul\":34058:34068   */\n      dup4\n        /* \"#utility.yul\":34054:34072   */\n      mul\n        /* \"#utility.yul\":34093:34190   */\n      tag_850\n        /* \"#utility.yul\":34123:34189   */\n      0xffffffffffffffffffffffffffffffffffffffffffffffffffffffffffffffff\n        /* \"#utility.yul\":34112:34121   */\n      dup3\n        /* \"#utility.yul\":34093:34190   */\n      tag_535\n      jump\t// in\n    tag_850:\n        /* \"#utility.yul\":34211:34250   */\n      tag_851\n        /* \"#utility.yul\":34241:34249   */\n      dup7\n        /* \"#utility.yul\":34230:34239   */\n      dup4\n        /* \"#utility.yul\":34211:34250   */\n      tag_535\n      jump\t// in\n    tag_851:\n        /* \"#utility.yul\":34199:34250   */\n      swap6\n      pop\n        /* \"#utility.yul\":34283:34287   */\n      dup1\n        /* \"#utility.yul\":34279:34288   */\n      not\n        /* \"#utility.yul\":34272:34277   */\n      dup5\n        /* \"#utility.yul\":34268:34289   */\n      and\n        /* \"#utility.yul\":34259:34289   */\n      swap4\n      pop\n        /* \"#utility.yul\":34332:34336   */\n      dup1\n        /* \"#utility.yul\":34322:34330   */\n      dup7\n        /* \"#utility.yul\":34318:34337   */\n      and\n        /* \"#utility.yul\":34311:34316   */\n      dup5\n        /* \"#utility.yul\":34308:34338   */\n      or\n        /* \"#utility.yul\":34298:34338   */\n      swap3\n      pop\n        /* \"#utility.yul\":34027:34344   */\n      pop\n      pop\n        /* \"#utility.yul\":33951:34344   */\n      swap4\n      swap3\n      pop\n      pop\n      pop\n      jump\t// out\n        /* \"#utility.yul\":34350:34410   */\n    tag_537:\n        /* \"#utility.yul\":34378:34381   */\n      0x00\n        /* \"#utility.yul\":34399:34404   */\n      dup2\n        /* \"#utility.yul\":34392:34404   */\n      swap1\n      pop\n        /* \"#utility.yul\":34350:34410   */\n      swap2\n      swap1\n      pop\n      jump\t// out\n        /* \"#utility.yul\":34416:34558   */\n    tag_538:\n        /* \"#utility.yul\":34466:34475   */\n      0x00\n        /* \"#utility.yul\":34499:34552   */\n      tag_854\n        /* \"#utility.yul\":34517:34551   */\n      tag_855\n        /* \"#utility.yul\":34526:34550   */\n      tag_856\n        /* \"#utility.yul\":34544:34549   */\n      dup5\n        /* \"#utility.yul\":34526:34550   */\n      tag_470\n      jump\t// in\n    tag_856:\n        /* \"#utility.yul\":34517:34551   */\n      tag_537\n      jump\t// in\n    tag_855:\n        /* \"#utility.yul\":34499:34552   */\n      tag_470\n      jump\t// in\n    tag_854:\n        /* \"#utility.yul\":34486:34552   */\n      swap1\n      pop\n        /* \"#utility.yul\":34416:34558   */\n      swap2\n      swap1\n      pop\n      jump\t// out\n        /* \"#utility.yul\":34564:34639   */\n    tag_539:\n        /* \"#utility.yul\":34607:34610   */\n      0x00\n        /* \"#utility.yul\":34628:34633   */\n      dup2\n        /* \"#utility.yul\":34621:34633   */\n      swap1\n      pop\n        /* \"#utility.yul\":34564:34639   */\n      swap2\n      swap1\n      pop\n      jump\t// out\n        /* \"#utility.yul\":34645:34914   */\n    tag_540:\n        /* \"#utility.yul\":34755:34794   */\n      tag_859\n        /* \"#utility.yul\":34786:34793   */\n      dup4\n        /* \"#utility.yul\":34755:34794   */\n      tag_538\n      jump\t// in\n    tag_859:\n        /* \"#utility.yul\":34816:34907   */\n      tag_860\n        /* \"#utility.yul\":34865:34906   */\n      tag_861\n        /* \"#utility.yul\":34889:34905   */\n      dup3\n        /* \"#utility.yul\":34865:34906   */\n      tag_539\n      jump\t// in\n    tag_861:\n        /* \"#utility.yul\":34857:34863   */\n      dup5\n        /* \"#utility.yul\":34850:34854   */\n      dup5\n        /* \"#utility.yul\":34844:34855   */\n      sload\n        /* \"#utility.yul\":34816:34907   */\n      tag_536\n      jump\t// in\n    tag_860:\n        /* \"#utility.yul\":34810:34814   */\n      dup3\n        /* \"#utility.yul\":34803:34908   */\n      sstore\n        /* \"#utility.yul\":34721:34914   */\n      pop\n        /* \"#utility.yul\":34645:34914   */\n      pop\n      pop\n      pop\n      jump\t// out\n        /* \"#utility.yul\":34920:34993   */\n    tag_541:\n        /* \"#utility.yul\":34965:34968   */\n      0x00\n        /* \"#utility.yul\":34920:34993   */\n      swap1\n      jump\t// out\n        /* \"#utility.yul\":34999:35188   */\n    tag_542:\n        /* \"#utility.yul\":35076:35108   */\n      tag_864\n      tag_541\n      jump\t// in\n    tag_864:\n        /* \"#utility.yul\":35117:35182   */\n      tag_865\n        /* \"#utility.yul\":35175:35181   */\n      dup2\n        /* \"#utility.yul\":35167:35173   */\n      dup5\n        /* \"#utility.yul\":35161:35165   */\n      dup5\n        /* \"#utility.yul\":35117:35182   */\n      tag_540\n      jump\t// in\n    tag_865:\n        /* \"#utility.yul\":35052:35188   */\n      pop\n        /* \"#utility.yul\":34999:35188   */\n      pop\n      pop\n      jump\t// out\n        /* \"#utility.yul\":35194:35380   */\n    tag_543:\n        /* \"#utility.yul\":35254:35374   */\n    tag_867:\n        /* \"#utility.yul\":35271:35274   */\n      dup2\n        /* \"#utility.yul\":35264:35269   */\n      dup2\n        /* \"#utility.yul\":35261:35275   */\n      lt\n        /* \"#utility.yul\":35254:35374   */\n      iszero\n      tag_869\n      jumpi\n        /* \"#utility.yul\":35325:35364   */\n      tag_870\n        /* \"#utility.yul\":35362:35363   */\n      0x00\n        /* \"#utility.yul\":35355:35360   */\n      dup3\n        /* \"#utility.yul\":35325:35364   */\n      tag_542\n      jump\t// in\n    tag_870:\n        /* \"#utility.yul\":35298:35299   */\n      0x01\n        /* \"#utility.yul\":35291:35296   */\n      dup2\n        /* \"#utility.yul\":35287:35300   */\n      add\n        /* \"#utility.yul\":35278:35300   */\n      swap1\n      pop\n        /* \"#utility.yul\":35254:35374   */\n      jump(tag_867)\n    tag_869:\n        /* \"#utility.yul\":35194:35380   */\n      pop\n      pop\n      jump\t// out\n        /* \"#utility.yul\":35386:35929   */\n    tag_544:\n        /* \"#utility.yul\":35487:35489   */\n      0x1f\n        /* \"#utility.yul\":35482:35485   */\n      dup3\n        /* \"#utility.yul\":35479:35490   */\n      gt\n        /* \"#utility.yul\":35476:35922   */\n      iszero\n      tag_872\n      jumpi\n        /* \"#utility.yul\":35521:35559   */\n      tag_873\n        /* \"#utility.yul\":35553:35558   */\n      dup2\n        /* \"#utility.yul\":35521:35559   */\n      tag_533\n      jump\t// in\n    tag_873:\n        /* \"#utility.yul\":35605:35634   */\n      tag_874\n        /* \"#utility.yul\":35623:35633   */\n      dup5\n        /* \"#utility.yul\":35605:35634   */\n      tag_534\n      jump\t// in\n    tag_874:\n        /* \"#utility.yul\":35595:35603   */\n      dup2\n        /* \"#utility.yul\":35591:35635   */\n      add\n        /* \"#utility.yul\":35788:35790   */\n      0x20\n        /* \"#utility.yul\":35776:35786   */\n      dup6\n        /* \"#utility.yul\":35773:35791   */\n      lt\n        /* \"#utility.yul\":35770:35819   */\n      iszero\n      tag_875\n      jumpi\n        /* \"#utility.yul\":35809:35817   */\n      dup2\n        /* \"#utility.yul\":35794:35817   */\n      swap1\n      pop\n        /* \"#utility.yul\":35770:35819   */\n    tag_875:\n        /* \"#utility.yul\":35832:35912   */\n      tag_876\n        /* \"#utility.yul\":35888:35910   */\n      tag_877\n        /* \"#utility.yul\":35906:35909   */\n      dup6\n        /* \"#utility.yul\":35888:35910   */\n      tag_534\n      jump\t// in\n    tag_877:\n        /* \"#utility.yul\":35878:35886   */\n      dup4\n        /* \"#utility.yul\":35874:35911   */\n      add\n        /* \"#utility.yul\":35861:35872   */\n      dup3\n        /* \"#utility.yul\":35832:35912   */\n      tag_543\n      jump\t// in\n    tag_876:\n        /* \"#utility.yul\":35491:35922   */\n      pop\n      pop\n        /* \"#utility.yul\":35476:35922   */\n    tag_872:\n        /* \"#utility.yul\":35386:35929   */\n      pop\n      pop\n      pop\n      jump\t// out\n        /* \"#utility.yul\":35935:36052   */\n    tag_545:\n        /* \"#utility.yul\":35989:35997   */\n      0x00\n        /* \"#utility.yul\":36039:36044   */\n      dup3\n        /* \"#utility.yul\":36033:36037   */\n      dup3\n        /* \"#utility.yul\":36029:36045   */\n      shr\n        /* \"#utility.yul\":36008:36045   */\n      swap1\n      pop\n        /* \"#utility.yul\":35935:36052   */\n      swap3\n      swap2\n      pop\n      pop\n      jump\t// out\n        /* \"#utility.yul\":36058:36227   */\n    tag_546:\n        /* \"#utility.yul\":36102:36108   */\n      0x00\n        /* \"#utility.yul\":36135:36186   */\n      tag_880\n        /* \"#utility.yul\":36183:36184   */\n      0x00\n        /* \"#utility.yul\":36179:36185   */\n      not\n        /* \"#utility.yul\":36171:36176   */\n      dup5\n        /* \"#utility.yul\":36168:36169   */\n      0x08\n        /* \"#utility.yul\":36164:36177   */\n      mul\n        /* \"#utility.yul\":36135:36186   */\n      tag_545\n      jump\t// in\n    tag_880:\n        /* \"#utility.yul\":36131:36187   */\n      not\n        /* \"#utility.yul\":36216:36220   */\n      dup1\n        /* \"#utility.yul\":36210:36214   */\n      dup4\n        /* \"#utility.yul\":36206:36221   */\n      and\n        /* \"#utility.yul\":36196:36221   */\n      swap2\n      pop\n        /* \"#utility.yul\":36109:36227   */\n      pop\n        /* \"#utility.yul\":36058:36227   */\n      swap3\n      swap2\n      pop\n      pop\n      jump\t// out\n        /* \"#utility.yul\":36232:36527   */\n    tag_547:\n        /* \"#utility.yul\":36308:36312   */\n      0x00\n        /* \"#utility.yul\":36454:36483   */\n      tag_882\n        /* \"#utility.yul\":36479:36482   */\n      dup4\n        /* \"#utility.yul\":36473:36477   */\n      dup4\n        /* \"#utility.yul\":36454:36483   */\n      tag_546\n      jump\t// in\n    tag_882:\n        /* \"#utility.yul\":36446:36483   */\n      swap2\n      pop\n        /* \"#utility.yul\":36516:36519   */\n      dup3\n        /* \"#utility.yul\":36513:36514   */\n      0x02\n        /* \"#utility.yul\":36509:36520   */\n      mul\n        /* \"#utility.yul\":36503:36507   */\n      dup3\n        /* \"#utility.yul\":36500:36521   */\n      or\n        /* \"#utility.yul\":36492:36521   */\n      swap1\n      pop\n        /* \"#utility.yul\":36232:36527   */\n      swap3\n      swap2\n      pop\n      pop\n      jump\t// out\n        /* \"#utility.yul\":36532:37927   */\n    tag_179:\n        /* \"#utility.yul\":36649:36686   */\n      tag_884\n        /* \"#utility.yul\":36682:36685   */\n      dup3\n        /* \"#utility.yul\":36649:36686   */\n      tag_486\n      jump\t// in\n    tag_884:\n        /* \"#utility.yul\":36751:36769   */\n      0xffffffffffffffff\n        /* \"#utility.yul\":36743:36749   */\n      dup2\n        /* \"#utility.yul\":36740:36770   */\n      gt\n        /* \"#utility.yul\":36737:36793   */\n      iszero\n      tag_885\n      jumpi\n        /* \"#utility.yul\":36773:36791   */\n      tag_886\n      tag_254\n      jump\t// in\n    tag_886:\n        /* \"#utility.yul\":36737:36793   */\n    tag_885:\n        /* \"#utility.yul\":36817:36855   */\n      tag_887\n        /* \"#utility.yul\":36849:36853   */\n      dup3\n        /* \"#utility.yul\":36843:36854   */\n      sload\n        /* \"#utility.yul\":36817:36855   */\n      tag_158\n      jump\t// in\n    tag_887:\n        /* \"#utility.yul\":36902:36969   */\n      tag_888\n        /* \"#utility.yul\":36962:36968   */\n      dup3\n        /* \"#utility.yul\":36954:36960   */\n      dup3\n        /* \"#utility.yul\":36948:36952   */\n      dup6\n        /* \"#utility.yul\":36902:36969   */\n      tag_544\n      jump\t// in\n    tag_888:\n        /* \"#utility.yul\":36996:36997   */\n      0x00\n        /* \"#utility.yul\":37020:37024   */\n      0x20\n        /* \"#utility.yul\":37007:37024   */\n      swap1\n      pop\n        /* \"#utility.yul\":37052:37054   */\n      0x1f\n        /* \"#utility.yul\":37044:37050   */\n      dup4\n        /* \"#utility.yul\":37041:37055   */\n      gt\n        /* \"#utility.yul\":37069:37070   */\n      0x01\n        /* \"#utility.yul\":37064:37682   */\n      dup2\n      eq\n      tag_890\n      jumpi\n        /* \"#utility.yul\":37726:37727   */\n      0x00\n        /* \"#utility.yul\":37743:37749   */\n      dup5\n        /* \"#utility.yul\":37740:37817   */\n      iszero\n      tag_891\n      jumpi\n        /* \"#utility.yul\":37792:37801   */\n      dup3\n        /* \"#utility.yul\":37787:37790   */\n      dup8\n        /* \"#utility.yul\":37783:37802   */\n      add\n        /* \"#utility.yul\":37777:37803   */\n      mload\n        /* \"#utility.yul\":37768:37803   */\n      swap1\n      pop\n        /* \"#utility.yul\":37740:37817   */\n    tag_891:\n        /* \"#utility.yul\":37843:37910   */\n      tag_892\n        /* \"#utility.yul\":37903:37909   */\n      dup6\n        /* \"#utility.yul\":37896:37901   */\n      dup3\n        /* \"#utility.yul\":37843:37910   */\n      tag_547\n      jump\t// in\n    tag_892:\n        /* \"#utility.yul\":37837:37841   */\n      dup7\n        /* \"#utility.yul\":37830:37911   */\n      sstore\n        /* \"#utility.yul\":37699:37921   */\n      pop\n        /* \"#utility.yul\":37034:37921   */\n      jump(tag_889)\n        /* \"#utility.yul\":37064:37682   */\n    tag_890:\n        /* \"#utility.yul\":37116:37120   */\n      0x1f\n        /* \"#utility.yul\":37112:37121   */\n      not\n        /* \"#utility.yul\":37104:37110   */\n      dup5\n        /* \"#utility.yul\":37100:37122   */\n      and\n        /* \"#utility.yul\":37150:37187   */\n      tag_893\n        /* \"#utility.yul\":37182:37186   */\n      dup7\n        /* \"#utility.yul\":37150:37187   */\n      tag_533\n      jump\t// in\n    tag_893:\n        /* \"#utility.yul\":37209:37210   */\n      0x00\n        /* \"#utility.yul\":37223:37431   */\n    tag_894:\n        /* \"#utility.yul\":37237:37244   */\n      dup3\n        /* \"#utility.yul\":37234:37235   */\n      dup2\n        /* \"#utility.yul\":37231:37245   */\n      lt\n        /* \"#utility.yul\":37223:37431   */\n      iszero\n      tag_896\n      jumpi\n        /* \"#utility.yul\":37316:37325   */\n      dup5\n        /* \"#utility.yul\":37311:37314   */\n      dup10\n        /* \"#utility.yul\":37307:37326   */\n      add\n        /* \"#utility.yul\":37301:37327   */\n      mload\n        /* \"#utility.yul\":37293:37299   */\n      dup3\n        /* \"#utility.yul\":37286:37328   */\n      sstore\n        /* \"#utility.yul\":37367:37368   */\n      0x01\n        /* \"#utility.yul\":37359:37365   */\n      dup3\n        /* \"#utility.yul\":37355:37369   */\n      add\n        /* \"#utility.yul\":37345:37369   */\n      swap2\n      pop\n        /* \"#utility.yul\":37414:37416   */\n      0x20\n        /* \"#utility.yul\":37403:37412   */\n      dup6\n        /* \"#utility.yul\":37399:37417   */\n      add\n        /* \"#utility.yul\":37386:37417   */\n      swap5\n      pop\n        /* \"#utility.yul\":37260:37264   */\n      0x20\n        /* \"#utility.yul\":37257:37258   */\n      dup2\n        /* \"#utility.yul\":37253:37265   */\n      add\n        /* \"#utility.yul\":37248:37265   */\n      swap1\n      pop\n        /* \"#utility.yul\":37223:37431   */\n      jump(tag_894)\n    tag_896:\n        /* \"#utility.yul\":37459:37465   */\n      dup7\n        /* \"#utility.yul\":37450:37457   */\n      dup4\n        /* \"#utility.yul\":37447:37466   */\n      lt\n        /* \"#utility.yul\":37444:37623   */\n      iszero\n      tag_897\n      jumpi\n        /* \"#utility.yul\":37517:37526   */\n      dup5\n        /* \"#utility.yul\":37512:37515   */\n      dup10\n        /* \"#utility.yul\":37508:37527   */\n      add\n        /* \"#utility.yul\":37502:37528   */\n      mload\n        /* \"#utility.yul\":37560:37608   */\n      tag_898\n        /* \"#utility.yul\":37602:37606   */\n      0x1f\n        /* \"#utility.yul\":37594:37600   */\n      dup10\n        /* \"#utility.yul\":37590:37607   */\n      and\n        /* \"#utility.yul\":37579:37588   */\n      dup3\n        /* \"#utility.yul\":37560:37608   */\n      tag_546\n      jump\t// in\n    tag_898:\n        /* \"#utility.yul\":37552:37558   */\n      dup4\n        /* \"#utility.yul\":37545:37609   */\n      sstore\n        /* \"#utility.yul\":37467:37623   */\n      pop\n        /* \"#utility.yul\":37444:37623   */\n    tag_897:\n        /* \"#utility.yul\":37669:37670   */\n      0x01\n        /* \"#utility.yul\":37665:37666   */\n      0x02\n        /* \"#utility.yul\":37657:37663   */\n      dup9\n        /* \"#utility.yul\":37653:37667   */\n      mul\n        /* \"#utility.yul\":37649:37671   */\n      add\n        /* \"#utility.yul\":37643:37647   */\n      dup9\n        /* \"#utility.yul\":37636:37672   */\n      sstore\n        /* \"#utility.yul\":37071:37682   */\n      pop\n      pop\n      pop\n        /* \"#utility.yul\":37034:37921   */\n    tag_889:\n      pop\n        /* \"#utility.yul\":36624:37927   */\n      pop\n      pop\n      pop\n        /* \"#utility.yul\":36532:37927   */\n      pop\n      pop\n      jump\t// out\n        /* \"#utility.yul\":37933:38466   */\n    tag_181:\n        /* \"#utility.yul\":38102:38106   */\n      0x00\n        /* \"#utility.yul\":38140:38142   */\n      0x60\n        /* \"#utility.yul\":38129:38138   */\n      dup3\n        /* \"#utility.yul\":38125:38143   */\n      add\n        /* \"#utility.yul\":38117:38143   */\n      swap1\n      pop\n        /* \"#utility.yul\":38153:38224   */\n      tag_900\n        /* \"#utility.yul\":38221:38222   */\n      0x00\n        /* \"#utility.yul\":38210:38219   */\n      dup4\n        /* \"#utility.yul\":38206:38223   */\n      add\n        /* \"#utility.yul\":38197:38203   */\n      dup7\n        /* \"#utility.yul\":38153:38224   */\n      tag_482\n      jump\t// in\n    tag_900:\n        /* \"#utility.yul\":38234:38306   */\n      tag_901\n        /* \"#utility.yul\":38302:38304   */\n      0x20\n        /* \"#utility.yul\":38291:38300   */\n      dup4\n        /* \"#utility.yul\":38287:38305   */\n      add\n        /* \"#utility.yul\":38278:38284   */\n      dup6\n        /* \"#utility.yul\":38234:38306   */\n      tag_482\n      jump\t// in\n    tag_901:\n        /* \"#utility.yul\":38353:38362   */\n      dup2\n        /* \"#utility.yul\":38347:38351   */\n      dup2\n        /* \"#utility.yul\":38343:38363   */\n      sub\n        /* \"#utility.yul\":38338:38340   */\n      0x40\n        /* \"#utility.yul\":38327:38336   */\n      dup4\n        /* \"#utility.yul\":38323:38341   */\n      add\n        /* \"#utility.yul\":38316:38364   */\n      mstore\n        /* \"#utility.yul\":38381:38459   */\n      tag_902\n        /* \"#utility.yul\":38454:38458   */\n      dup2\n        /* \"#utility.yul\":38445:38451   */\n      dup5\n        /* \"#utility.yul\":38381:38459   */\n      tag_489\n      jump\t// in\n    tag_902:\n        /* \"#utility.yul\":38373:38459   */\n      swap1\n      pop\n        /* \"#utility.yul\":37933:38466   */\n      swap5\n      swap4\n      pop\n      pop\n      pop\n      pop\n      jump\t// out\n        /* \"#utility.yul\":38472:38645   */\n    tag_548:\n        /* \"#utility.yul\":38612:38637   */\n      0x566f74696e6720706572696f642068617320656e646564000000000000000000\n        /* \"#utility.yul\":38608:38609   */\n      0x00\n        /* \"#utility.yul\":38600:38606   */\n      dup3\n        /* \"#utility.yul\":38596:38610   */\n      add\n        /* \"#utility.yul\":38589:38638   */\n      mstore\n        /* \"#utility.yul\":38472:38645   */\n      pop\n      jump\t// out\n        /* \"#utility.yul\":38651:39017   */\n    tag_549:\n        /* \"#utility.yul\":38793:38796   */\n      0x00\n        /* \"#utility.yul\":38814:38881   */\n      tag_905\n        /* \"#utility.yul\":38878:38880   */\n      0x17\n        /* \"#utility.yul\":38873:38876   */\n      dup4\n        /* \"#utility.yul\":38814:38881   */\n      tag_487\n      jump\t// in\n    tag_905:\n        /* \"#utility.yul\":38807:38881   */\n      swap2\n      pop\n        /* \"#utility.yul\":38890:38983   */\n      tag_906\n        /* \"#utility.yul\":38979:38982   */\n      dup3\n        /* \"#utility.yul\":38890:38983   */\n      tag_548\n      jump\t// in\n    tag_906:\n        /* \"#utility.yul\":39008:39010   */\n      0x20\n        /* \"#utility.yul\":39003:39006   */\n      dup3\n        /* \"#utility.yul\":38999:39011   */\n      add\n        /* \"#utility.yul\":38992:39011   */\n      swap1\n      pop\n        /* \"#utility.yul\":38651:39017   */\n      swap2\n      swap1\n      pop\n      jump\t// out\n        /* \"#utility.yul\":39023:39442   */\n    tag_211:\n        /* \"#utility.yul\":39189:39193   */\n      0x00\n        /* \"#utility.yul\":39227:39229   */\n      0x20\n        /* \"#utility.yul\":39216:39225   */\n      dup3\n        /* \"#utility.yul\":39212:39230   */\n      add\n        /* \"#utility.yul\":39204:39230   */\n      swap1\n      pop\n        /* \"#utility.yul\":39276:39285   */\n      dup2\n        /* \"#utility.yul\":39270:39274   */\n      dup2\n        /* \"#utility.yul\":39266:39286   */\n      sub\n        /* \"#utility.yul\":39262:39263   */\n      0x00\n        /* \"#utility.yul\":39251:39260   */\n      dup4\n        /* \"#utility.yul\":39247:39264   */\n      add\n        /* \"#utility.yul\":39240:39287   */\n      mstore\n        /* \"#utility.yul\":39304:39435   */\n      tag_908\n        /* \"#utility.yul\":39430:39434   */\n      dup2\n        /* \"#utility.yul\":39304:39435   */\n      tag_549\n      jump\t// in\n    tag_908:\n        /* \"#utility.yul\":39296:39435   */\n      swap1\n      pop\n        /* \"#utility.yul\":39023:39442   */\n      swap2\n      swap1\n      pop\n      jump\t// out\n        /* \"#utility.yul\":39448:39616   */\n    tag_550:\n        /* \"#utility.yul\":39588:39608   */\n      0x496e636f727265637420766f7465206665650000000000000000000000000000\n        /* \"#utility.yul\":39584:39585   */\n      0x00\n        /* \"#utility.yul\":39576:39582   */\n      dup3\n        /* \"#utility.yul\":39572:39586   */\n      add\n        /* \"#utility.yul\":39565:39609   */\n      mstore\n        /* \"#utility.yul\":39448:39616   */\n      pop\n      jump\t// out\n        /* \"#utility.yul\":39622:39988   */\n    tag_551:\n        /* \"#utility.yul\":39764:39767   */\n      0x00\n        /* \"#utility.yul\":39785:39852   */\n      tag_911\n        /* \"#utility.yul\":39849:39851   */\n      0x12\n        /* \"#utility.yul\":39844:39847   */\n      dup4\n        /* \"#utility.yul\":39785:39852   */\n      tag_487\n      jump\t// in\n    tag_911:\n        /* \"#utility.yul\":39778:39852   */\n      swap2\n      pop\n        /* \"#utility.yul\":39861:39954   */\n      tag_912\n        /* \"#utility.yul\":39950:39953   */\n      dup3\n        /* \"#utility.yul\":39861:39954   */\n      tag_550\n      jump\t// in\n    tag_912:\n        /* \"#utility.yul\":39979:39981   */\n      0x20\n        /* \"#utility.yul\":39974:39977   */\n      dup3\n        /* \"#utility.yul\":39970:39982   */\n      add\n        /* \"#utility.yul\":39963:39982   */\n      swap1\n      pop\n        /* \"#utility.yul\":39622:39988   */\n      swap2\n      swap1\n      pop\n      jump\t// out\n        /* \"#utility.yul\":39994:40413   */\n    tag_214:\n        /* \"#utility.yul\":40160:40164   */\n      0x00\n        /* \"#utility.yul\":40198:40200   */\n      0x20\n        /* \"#utility.yul\":40187:40196   */\n      dup3\n        /* \"#utility.yul\":40183:40201   */\n      add\n        /* \"#utility.yul\":40175:40201   */\n      swap1\n      pop\n        /* \"#utility.yul\":40247:40256   */\n      dup2\n        /* \"#utility.yul\":40241:40245   */\n      dup2\n        /* \"#utility.yul\":40237:40257   */\n      sub\n        /* \"#utility.yul\":40233:40234   */\n      0x00\n        /* \"#utility.yul\":40222:40231   */\n      dup4\n        /* \"#utility.yul\":40218:40235   */\n      add\n        /* \"#utility.yul\":40211:40258   */\n      mstore\n        /* \"#utility.yul\":40275:40406   */\n      tag_914\n        /* \"#utility.yul\":40401:40405   */\n      dup2\n        /* \"#utility.yul\":40275:40406   */\n      tag_551\n      jump\t// in\n    tag_914:\n        /* \"#utility.yul\":40267:40406   */\n      swap1\n      pop\n        /* \"#utility.yul\":39994:40413   */\n      swap2\n      swap1\n      pop\n      jump\t// out\n        /* \"#utility.yul\":40419:40610   */\n    tag_216:\n        /* \"#utility.yul\":40459:40462   */\n      0x00\n        /* \"#utility.yul\":40478:40498   */\n      tag_916\n        /* \"#utility.yul\":40496:40497   */\n      dup3\n        /* \"#utility.yul\":40478:40498   */\n      tag_470\n      jump\t// in\n    tag_916:\n        /* \"#utility.yul\":40473:40498   */\n      swap2\n      pop\n        /* \"#utility.yul\":40512:40532   */\n      tag_917\n        /* \"#utility.yul\":40530:40531   */\n      dup4\n        /* \"#utility.yul\":40512:40532   */\n      tag_470\n      jump\t// in\n    tag_917:\n        /* \"#utility.yul\":40507:40532   */\n      swap3\n      pop\n        /* \"#utility.yul\":40555:40556   */\n      dup3\n        /* \"#utility.yul\":40552:40553   */\n      dup3\n        /* \"#utility.yul\":40548:40557   */\n      add\n        /* \"#utility.yul\":40541:40557   */\n      swap1\n      pop\n        /* \"#utility.yul\":40576:40579   */\n      dup1\n        /* \"#utility.yul\":40573:40574   */\n      dup3\n        /* \"#utility.yul\":40570:40580   */\n      gt\n        /* \"#utility.yul\":40567:40603   */\n      iszero\n      tag_918\n      jumpi\n        /* \"#utility.yul\":40583:40601   */\n      tag_919\n      tag_532\n      jump\t// in\n    tag_919:\n        /* \"#utility.yul\":40567:40603   */\n    tag_918:\n        /* \"#utility.yul\":40419:40610   */\n      swap3\n      swap2\n      pop\n      pop\n      jump\t// out\n        /* \"#utility.yul\":40616:40786   */\n    tag_552:\n        /* \"#utility.yul\":40756:40778   */\n      0x4e6f2066756e647320746f207769746864726177000000000000000000000000\n        /* \"#utility.yul\":40752:40753   */\n      0x00\n        /* \"#utility.yul\":40744:40750   */\n      dup3\n        /* \"#utility.yul\":40740:40754   */\n      add\n        /* \"#utility.yul\":40733:40779   */\n      mstore\n        /* \"#utility.yul\":40616:40786   */\n      pop\n      jump\t// out\n        /* \"#utility.yul\":40792:41158   */\n    tag_553:\n        /* \"#utility.yul\":40934:40937   */\n      0x00\n        /* \"#utility.yul\":40955:41022   */\n      tag_922\n        /* \"#utility.yul\":41019:41021   */\n      0x14\n        /* \"#utility.yul\":41014:41017   */\n      dup4\n        /* \"#utility.yul\":40955:41022   */\n      tag_487\n      jump\t// in\n    tag_922:\n        /* \"#utility.yul\":40948:41022   */\n      swap2\n      pop\n        /* \"#utility.yul\":41031:41124   */\n      tag_923\n        /* \"#utility.yul\":41120:41123   */\n      dup3\n        /* \"#utility.yul\":41031:41124   */\n      tag_552\n      jump\t// in\n    tag_923:\n        /* \"#utility.yul\":41149:41151   */\n      0x20\n        /* \"#utility.yul\":41144:41147   */\n      dup3\n        /* \"#utility.yul\":41140:41152   */\n      add\n        /* \"#utility.yul\":41133:41152   */\n      swap1\n      pop\n        /* \"#utility.yul\":40792:41158   */\n      swap2\n      swap1\n      pop\n      jump\t// out\n        /* \"#utility.yul\":41164:41583   */\n    tag_237:\n        /* \"#utility.yul\":41330:41334   */\n      0x00\n        /* \"#utility.yul\":41368:41370   */\n      0x20\n        /* \"#utility.yul\":41357:41366   */\n      dup3\n        /* \"#utility.yul\":41353:41371   */\n      add\n        /* \"#utility.yul\":41345:41371   */\n      swap1\n      pop\n        /* \"#utility.yul\":41417:41426   */\n      dup2\n        /* \"#utility.yul\":41411:41415   */\n      dup2\n        /* \"#utility.yul\":41407:41427   */\n      sub\n        /* \"#utility.yul\":41403:41404   */\n      0x00\n        /* \"#utility.yul\":41392:41401   */\n      dup4\n        /* \"#utility.yul\":41388:41405   */\n      add\n        /* \"#utility.yul\":41381:41428   */\n      mstore\n        /* \"#utility.yul\":41445:41576   */\n      tag_925\n        /* \"#utility.yul\":41571:41575   */\n      dup2\n        /* \"#utility.yul\":41445:41576   */\n      tag_553\n      jump\t// in\n    tag_925:\n        /* \"#utility.yul\":41437:41576   */\n      swap1\n      pop\n        /* \"#utility.yul\":41164:41583   */\n      swap2\n      swap1\n      pop\n      jump\t// out\n        /* \"#utility.yul\":41589:41760   */\n    tag_554:\n        /* \"#utility.yul\":41729:41752   */\n      0x416e7377657220646f6573206e6f742065786973740000000000000000000000\n        /* \"#utility.yul\":41725:41726   */\n      0x00\n        /* \"#utility.yul\":41717:41723   */\n      dup3\n        /* \"#utility.yul\":41713:41727   */\n      add\n        /* \"#utility.yul\":41706:41753   */\n      mstore\n        /* \"#utility.yul\":41589:41760   */\n      pop\n      jump\t// out\n        /* \"#utility.yul\":41766:42132   */\n    tag_555:\n        /* \"#utility.yul\":41908:41911   */\n      0x00\n        /* \"#utility.yul\":41929:41996   */\n      tag_928\n        /* \"#utility.yul\":41993:41995   */\n      0x15\n        /* \"#utility.yul\":41988:41991   */\n      dup4\n        /* \"#utility.yul\":41929:41996   */\n      tag_487\n      jump\t// in\n    tag_928:\n        /* \"#utility.yul\":41922:41996   */\n      swap2\n      pop\n        /* \"#utility.yul\":42005:42098   */\n      tag_929\n        /* \"#utility.yul\":42094:42097   */\n      dup3\n        /* \"#utility.yul\":42005:42098   */\n      tag_554\n      jump\t// in\n    tag_929:\n        /* \"#utility.yul\":42123:42125   */\n      0x20\n        /* \"#utility.yul\":42118:42121   */\n      dup3\n        /* \"#utility.yul\":42114:42126   */\n      add\n        /* \"#utility.yul\":42107:42126   */\n      swap1\n      pop\n        /* \"#utility.yul\":41766:42132   */\n      swap2\n      swap1\n      pop\n      jump\t// out\n        /* \"#utility.yul\":42138:42557   */\n    tag_245:\n        /* \"#utility.yul\":42304:42308   */\n      0x00\n        /* \"#utility.yul\":42342:42344   */\n      0x20\n        /* \"#utility.yul\":42331:42340   */\n      dup3\n        /* \"#utility.yul\":42327:42345   */\n      add\n        /* \"#utility.yul\":42319:42345   */\n      swap1\n      pop\n        /* \"#utility.yul\":42391:42400   */\n      dup2\n        /* \"#utility.yul\":42385:42389   */\n      dup2\n        /* \"#utility.yul\":42381:42401   */\n      sub\n        /* \"#utility.yul\":42377:42378   */\n      0x00\n        /* \"#utility.yul\":42366:42375   */\n      dup4\n        /* \"#utility.yul\":42362:42379   */\n      add\n        /* \"#utility.yul\":42355:42402   */\n      mstore\n        /* \"#utility.yul\":42419:42550   */\n      tag_931\n        /* \"#utility.yul\":42545:42549   */\n      dup2\n        /* \"#utility.yul\":42419:42550   */\n      tag_555\n      jump\t// in\n    tag_931:\n        /* \"#utility.yul\":42411:42550   */\n      swap1\n      pop\n        /* \"#utility.yul\":42138:42557   */\n      swap2\n      swap1\n      pop\n      jump\t// out\n        /* \"#utility.yul\":42563:42710   */\n    tag_556:\n        /* \"#utility.yul\":42664:42675   */\n      0x00\n        /* \"#utility.yul\":42701:42704   */\n      dup2\n        /* \"#utility.yul\":42686:42704   */\n      swap1\n      pop\n        /* \"#utility.yul\":42563:42710   */\n      swap3\n      swap2\n      pop\n      pop\n      jump\t// out\n        /* \"#utility.yul\":42716:42860   */\n    tag_557:\n        /* \"#utility.yul\":42768:42772   */\n      0x00\n        /* \"#utility.yul\":42791:42794   */\n      dup2\n        /* \"#utility.yul\":42783:42794   */\n      swap1\n      pop\n        /* \"#utility.yul\":42814:42817   */\n      dup2\n        /* \"#utility.yul\":42811:42812   */\n      0x00\n        /* \"#utility.yul\":42804:42818   */\n      mstore\n        /* \"#utility.yul\":42848:42852   */\n      0x20\n        /* \"#utility.yul\":42845:42846   */\n      0x00\n        /* \"#utility.yul\":42835:42853   */\n      keccak256\n        /* \"#utility.yul\":42827:42853   */\n      swap1\n      pop\n        /* \"#utility.yul\":42716:42860   */\n      swap2\n      swap1\n      pop\n      jump\t// out\n        /* \"#utility.yul\":42888:43766   */\n    tag_558:\n        /* \"#utility.yul\":42993:42996   */\n      0x00\n        /* \"#utility.yul\":43030:43035   */\n      dup2\n        /* \"#utility.yul\":43024:43036   */\n      sload\n        /* \"#utility.yul\":43059:43095   */\n      tag_935\n        /* \"#utility.yul\":43085:43094   */\n      dup2\n        /* \"#utility.yul\":43059:43095   */\n      tag_158\n      jump\t// in\n    tag_935:\n        /* \"#utility.yul\":43111:43199   */\n      tag_936\n        /* \"#utility.yul\":43192:43198   */\n      dup2\n        /* \"#utility.yul\":43187:43190   */\n      dup7\n        /* \"#utility.yul\":43111:43199   */\n      tag_556\n      jump\t// in\n    tag_936:\n        /* \"#utility.yul\":43104:43199   */\n      swap5\n      pop\n        /* \"#utility.yul\":43230:43231   */\n      0x01\n        /* \"#utility.yul\":43219:43228   */\n      dup3\n        /* \"#utility.yul\":43215:43232   */\n      and\n        /* \"#utility.yul\":43246:43247   */\n      0x00\n        /* \"#utility.yul\":43241:43407   */\n      dup2\n      eq\n      tag_938\n      jumpi\n        /* \"#utility.yul\":43421:43422   */\n      0x01\n        /* \"#utility.yul\":43416:43760   */\n      dup2\n      eq\n      tag_939\n      jumpi\n        /* \"#utility.yul\":43208:43760   */\n      jump(tag_937)\n        /* \"#utility.yul\":43241:43407   */\n    tag_938:\n        /* \"#utility.yul\":43325:43329   */\n      0xff\n        /* \"#utility.yul\":43321:43330   */\n      not\n        /* \"#utility.yul\":43310:43319   */\n      dup4\n        /* \"#utility.yul\":43306:43331   */\n      and\n        /* \"#utility.yul\":43301:43304   */\n      dup7\n        /* \"#utility.yul\":43294:43332   */\n      mstore\n        /* \"#utility.yul\":43387:43393   */\n      dup2\n        /* \"#utility.yul\":43380:43394   */\n      iszero\n        /* \"#utility.yul\":43373:43395   */\n      iszero\n        /* \"#utility.yul\":43365:43371   */\n      dup3\n        /* \"#utility.yul\":43361:43396   */\n      mul\n        /* \"#utility.yul\":43356:43359   */\n      dup7\n        /* \"#utility.yul\":43352:43397   */\n      add\n        /* \"#utility.yul\":43345:43397   */\n      swap4\n      pop\n        /* \"#utility.yul\":43241:43407   */\n      jump(tag_937)\n        /* \"#utility.yul\":43416:43760   */\n    tag_939:\n        /* \"#utility.yul\":43483:43524   */\n      tag_940\n        /* \"#utility.yul\":43518:43523   */\n      dup6\n        /* \"#utility.yul\":43483:43524   */\n      tag_557\n      jump\t// in\n    tag_940:\n        /* \"#utility.yul\":43546:43547   */\n      0x00\n        /* \"#utility.yul\":43560:43714   */\n    tag_941:\n        /* \"#utility.yul\":43574:43580   */\n      dup4\n        /* \"#utility.yul\":43571:43572   */\n      dup2\n        /* \"#utility.yul\":43568:43581   */\n      lt\n        /* \"#utility.yul\":43560:43714   */\n      iszero\n      tag_943\n      jumpi\n        /* \"#utility.yul\":43648:43655   */\n      dup2\n        /* \"#utility.yul\":43642:43656   */\n      sload\n        /* \"#utility.yul\":43638:43639   */\n      dup2\n        /* \"#utility.yul\":43633:43636   */\n      dup10\n        /* \"#utility.yul\":43629:43640   */\n      add\n        /* \"#utility.yul\":43622:43657   */\n      mstore\n        /* \"#utility.yul\":43698:43699   */\n      0x01\n        /* \"#utility.yul\":43689:43696   */\n      dup3\n        /* \"#utility.yul\":43685:43700   */\n      add\n        /* \"#utility.yul\":43674:43700   */\n      swap2\n      pop\n        /* \"#utility.yul\":43596:43600   */\n      0x20\n        /* \"#utility.yul\":43593:43594   */\n      dup2\n        /* \"#utility.yul\":43589:43601   */\n      add\n        /* \"#utility.yul\":43584:43601   */\n      swap1\n      pop\n        /* \"#utility.yul\":43560:43714   */\n      jump(tag_941)\n    tag_943:\n        /* \"#utility.yul\":43743:43749   */\n      dup4\n        /* \"#utility.yul\":43738:43741   */\n      dup9\n        /* \"#utility.yul\":43734:43750   */\n      add\n        /* \"#utility.yul\":43727:43750   */\n      swap6\n      pop\n        /* \"#utility.yul\":43423:43760   */\n      pop\n      pop\n        /* \"#utility.yul\":43208:43760   */\n    tag_937:\n      pop\n        /* \"#utility.yul\":42997:43766   */\n      pop\n      pop\n        /* \"#utility.yul\":42888:43766   */\n      swap3\n      swap2\n      pop\n      pop\n      jump\t// out\n        /* \"#utility.yul\":43772:44045   */\n    tag_260:\n        /* \"#utility.yul\":43903:43906   */\n      0x00\n        /* \"#utility.yul\":43925:44019   */\n      tag_945\n        /* \"#utility.yul\":44015:44018   */\n      dup3\n        /* \"#utility.yul\":44006:44012   */\n      dup5\n        /* \"#utility.yul\":43925:44019   */\n      tag_558\n      jump\t// in\n    tag_945:\n        /* \"#utility.yul\":43918:44019   */\n      swap2\n      pop\n        /* \"#utility.yul\":44036:44039   */\n      dup2\n        /* \"#utility.yul\":44029:44039   */\n      swap1\n      pop\n        /* \"#utility.yul\":43772:44045   */\n      swap3\n      swap2\n      pop\n      pop\n      jump\t// out\n        /* \"#utility.yul\":44051:44231   */\n    tag_264:\n        /* \"#utility.yul\":44099:44176   */\n      0x4e487b7100000000000000000000000000000000000000000000000000000000\n        /* \"#utility.yul\":44096:44097   */\n      0x00\n        /* \"#utility.yul\":44089:44177   */\n      mstore\n        /* \"#utility.yul\":44196:44200   */\n      0x32\n        /* \"#utility.yul\":44193:44194   */\n      0x04\n        /* \"#utility.yul\":44186:44201   */\n      mstore\n        /* \"#utility.yul\":44220:44224   */\n      0x24\n        /* \"#utility.yul\":44217:44218   */\n      0x00\n        /* \"#utility.yul\":44210:44225   */\n      revert\n        /* \"#utility.yul\":44237:44419   */\n    tag_559:\n        /* \"#utility.yul\":44377:44411   */\n      0x526577617264206d7573742062652067726561746572207468616e207a65726f\n        /* \"#utility.yul\":44373:44374   */\n      0x00\n        /* \"#utility.yul\":44365:44371   */\n      dup3\n        /* \"#utility.yul\":44361:44375   */\n      add\n        /* \"#utility.yul\":44354:44412   */\n      mstore\n        /* \"#utility.yul\":44237:44419   */\n      pop\n      jump\t// out\n        /* \"#utility.yul\":44425:44791   */\n    tag_560:\n        /* \"#utility.yul\":44567:44570   */\n      0x00\n        /* \"#utility.yul\":44588:44655   */\n      tag_949\n        /* \"#utility.yul\":44652:44654   */\n      0x20\n        /* \"#utility.yul\":44647:44650   */\n      dup4\n        /* \"#utility.yul\":44588:44655   */\n      tag_487\n      jump\t// in\n    tag_949:\n        /* \"#utility.yul\":44581:44655   */\n      swap2\n      pop\n        /* \"#utility.yul\":44664:44757   */\n      tag_950\n        /* \"#utility.yul\":44753:44756   */\n      dup3\n        /* \"#utility.yul\":44664:44757   */\n      tag_559\n      jump\t// in\n    tag_950:\n        /* \"#utility.yul\":44782:44784   */\n      0x20\n        /* \"#utility.yul\":44777:44780   */\n      dup3\n        /* \"#utility.yul\":44773:44785   */\n      add\n        /* \"#utility.yul\":44766:44785   */\n      swap1\n      pop\n        /* \"#utility.yul\":44425:44791   */\n      swap2\n      swap1\n      pop\n      jump\t// out\n        /* \"#utility.yul\":44797:45216   */\n    tag_279:\n        /* \"#utility.yul\":44963:44967   */\n      0x00\n        /* \"#utility.yul\":45001:45003   */\n      0x20\n        /* \"#utility.yul\":44990:44999   */\n      dup3\n        /* \"#utility.yul\":44986:45004   */\n      add\n        /* \"#utility.yul\":44978:45004   */\n      swap1\n      pop\n        /* \"#utility.yul\":45050:45059   */\n      dup2\n        /* \"#utility.yul\":45044:45048   */\n      dup2\n        /* \"#utility.yul\":45040:45060   */\n      sub\n        /* \"#utility.yul\":45036:45037   */\n      0x00\n        /* \"#utility.yul\":45025:45034   */\n      dup4\n        /* \"#utility.yul\":45021:45038   */\n      add\n        /* \"#utility.yul\":45014:45061   */\n      mstore\n        /* \"#utility.yul\":45078:45209   */\n      tag_952\n        /* \"#utility.yul\":45204:45208   */\n      dup2\n        /* \"#utility.yul\":45078:45209   */\n      tag_560\n      jump\t// in\n    tag_952:\n        /* \"#utility.yul\":45070:45209   */\n      swap1\n      pop\n        /* \"#utility.yul\":44797:45216   */\n      swap2\n      swap1\n      pop\n      jump\t// out\n        /* \"#utility.yul\":45222:45396   */\n    tag_561:\n        /* \"#utility.yul\":45362:45388   */\n      0x43617465676f72792063616e6e6f7420626520656d7074790000000000000000\n        /* \"#utility.yul\":45358:45359   */\n      0x00\n        /* \"#utility.yul\":45350:45356   */\n      dup3\n        /* \"#utility.yul\":45346:45360   */\n      add\n        /* \"#utility.yul\":45339:45389   */\n      mstore\n        /* \"#utility.yul\":45222:45396   */\n      pop\n      jump\t// out\n        /* \"#utility.yul\":45402:45768   */\n    tag_562:\n        /* \"#utility.yul\":45544:45547   */\n      0x00\n        /* \"#utility.yul\":45565:45632   */\n      tag_955\n        /* \"#utility.yul\":45629:45631   */\n      0x18\n        /* \"#utility.yul\":45624:45627   */\n      dup4\n        /* \"#utility.yul\":45565:45632   */\n      tag_487\n      jump\t// in\n    tag_955:\n        /* \"#utility.yul\":45558:45632   */\n      swap2\n      pop\n        /* \"#utility.yul\":45641:45734   */\n      tag_956\n        /* \"#utility.yul\":45730:45733   */\n      dup3\n        /* \"#utility.yul\":45641:45734   */\n      tag_561\n      jump\t// in\n    tag_956:\n        /* \"#utility.yul\":45759:45761   */\n      0x20\n        /* \"#utility.yul\":45754:45757   */\n      dup3\n        /* \"#utility.yul\":45750:45762   */\n      add\n        /* \"#utility.yul\":45743:45762   */\n      swap1\n      pop\n        /* \"#utility.yul\":45402:45768   */\n      swap2\n      swap1\n      pop\n      jump\t// out\n        /* \"#utility.yul\":45774:46193   */\n    tag_282:\n        /* \"#utility.yul\":45940:45944   */\n      0x00\n        /* \"#utility.yul\":45978:45980   */\n      0x20\n        /* \"#utility.yul\":45967:45976   */\n      dup3\n        /* \"#utility.yul\":45963:45981   */\n      add\n        /* \"#utility.yul\":45955:45981   */\n      swap1\n      pop\n        /* \"#utility.yul\":46027:46036   */\n      dup2\n        /* \"#utility.yul\":46021:46025   */\n      dup2\n        /* \"#utility.yul\":46017:46037   */\n      sub\n        /* \"#utility.yul\":46013:46014   */\n      0x00\n        /* \"#utility.yul\":46002:46011   */\n      dup4\n        /* \"#utility.yul\":45998:46015   */\n      add\n        /* \"#utility.yul\":45991:46038   */\n      mstore\n        /* \"#utility.yul\":46055:46186   */\n      tag_958\n        /* \"#utility.yul\":46181:46185   */\n      dup2\n        /* \"#utility.yul\":46055:46186   */\n      tag_562\n      jump\t// in\n    tag_958:\n        /* \"#utility.yul\":46047:46186   */\n      swap1\n      pop\n        /* \"#utility.yul\":45774:46193   */\n      swap2\n      swap1\n      pop\n      jump\t// out\n        /* \"#utility.yul\":46199:46379   */\n    tag_285:\n        /* \"#utility.yul\":46247:46324   */\n      0x4e487b7100000000000000000000000000000000000000000000000000000000\n        /* \"#utility.yul\":46244:46245   */\n      0x00\n        /* \"#utility.yul\":46237:46325   */\n      mstore\n        /* \"#utility.yul\":46344:46348   */\n      0x21\n        /* \"#utility.yul\":46341:46342   */\n      0x04\n        /* \"#utility.yul\":46334:46349   */\n      mstore\n        /* \"#utility.yul\":46368:46372   */\n      0x24\n        /* \"#utility.yul\":46365:46366   */\n      0x00\n        /* \"#utility.yul\":46358:46373   */\n      revert\n        /* \"#utility.yul\":46385:47120   */\n    tag_309:\n        /* \"#utility.yul\":46602:46606   */\n      0x00\n        /* \"#utility.yul\":46640:46643   */\n      0x80\n        /* \"#utility.yul\":46629:46638   */\n      dup3\n        /* \"#utility.yul\":46625:46644   */\n      add\n        /* \"#utility.yul\":46617:46644   */\n      swap1\n      pop\n        /* \"#utility.yul\":46654:46725   */\n      tag_961\n        /* \"#utility.yul\":46722:46723   */\n      0x00\n        /* \"#utility.yul\":46711:46720   */\n      dup4\n        /* \"#utility.yul\":46707:46724   */\n      add\n        /* \"#utility.yul\":46698:46704   */\n      dup8\n        /* \"#utility.yul\":46654:46725   */\n      tag_482\n      jump\t// in\n    tag_961:\n        /* \"#utility.yul\":46772:46781   */\n      dup2\n        /* \"#utility.yul\":46766:46770   */\n      dup2\n        /* \"#utility.yul\":46762:46782   */\n      sub\n        /* \"#utility.yul\":46757:46759   */\n      0x20\n        /* \"#utility.yul\":46746:46755   */\n      dup4\n        /* \"#utility.yul\":46742:46760   */\n      add\n        /* \"#utility.yul\":46735:46783   */\n      mstore\n        /* \"#utility.yul\":46800:46878   */\n      tag_962\n        /* \"#utility.yul\":46873:46877   */\n      dup2\n        /* \"#utility.yul\":46864:46870   */\n      dup7\n        /* \"#utility.yul\":46800:46878   */\n      tag_489\n      jump\t// in\n    tag_962:\n        /* \"#utility.yul\":46792:46878   */\n      swap1\n      pop\n        /* \"#utility.yul\":46888:46960   */\n      tag_963\n        /* \"#utility.yul\":46956:46958   */\n      0x40\n        /* \"#utility.yul\":46945:46954   */\n      dup4\n        /* \"#utility.yul\":46941:46959   */\n      add\n        /* \"#utility.yul\":46932:46938   */\n      dup6\n        /* \"#utility.yul\":46888:46960   */\n      tag_482\n      jump\t// in\n    tag_963:\n        /* \"#utility.yul\":47007:47016   */\n      dup2\n        /* \"#utility.yul\":47001:47005   */\n      dup2\n        /* \"#utility.yul\":46997:47017   */\n      sub\n        /* \"#utility.yul\":46992:46994   */\n      0x60\n        /* \"#utility.yul\":46981:46990   */\n      dup4\n        /* \"#utility.yul\":46977:46995   */\n      add\n        /* \"#utility.yul\":46970:47018   */\n      mstore\n        /* \"#utility.yul\":47035:47113   */\n      tag_964\n        /* \"#utility.yul\":47108:47112   */\n      dup2\n        /* \"#utility.yul\":47099:47105   */\n      dup5\n        /* \"#utility.yul\":47035:47113   */\n      tag_489\n      jump\t// in\n    tag_964:\n        /* \"#utility.yul\":47027:47113   */\n      swap1\n      pop\n        /* \"#utility.yul\":46385:47120   */\n      swap6\n      swap5\n      pop\n      pop\n      pop\n      pop\n      pop\n      jump\t// out\n        /* \"#utility.yul\":47126:47346   */\n    tag_563:\n        /* \"#utility.yul\":47266:47300   */\n      0x43616e6e6f742064697374726962757465206265666f726520646561646c696e\n        /* \"#utility.yul\":47262:47263   */\n      0x00\n        /* \"#utility.yul\":47254:47260   */\n      dup3\n        /* \"#utility.yul\":47250:47264   */\n      add\n        /* \"#utility.yul\":47243:47301   */\n      mstore\n        /* \"#utility.yul\":47335:47338   */\n      0x6500000000000000000000000000000000000000000000000000000000000000\n        /* \"#utility.yul\":47330:47332   */\n      0x20\n        /* \"#utility.yul\":47322:47328   */\n      dup3\n        /* \"#utility.yul\":47318:47333   */\n      add\n        /* \"#utility.yul\":47311:47339   */\n      mstore\n        /* \"#utility.yul\":47126:47346   */\n      pop\n      jump\t// out\n        /* \"#utility.yul\":47352:47718   */\n    tag_564:\n        /* \"#utility.yul\":47494:47497   */\n      0x00\n        /* \"#utility.yul\":47515:47582   */\n      tag_967\n        /* \"#utility.yul\":47579:47581   */\n      0x21\n        /* \"#utility.yul\":47574:47577   */\n      dup4\n        /* \"#utility.yul\":47515:47582   */\n      tag_487\n      jump\t// in\n    tag_967:\n        /* \"#utility.yul\":47508:47582   */\n      swap2\n      pop\n        /* \"#utility.yul\":47591:47684   */\n      tag_968\n        /* \"#utility.yul\":47680:47683   */\n      dup3\n        /* \"#utility.yul\":47591:47684   */\n      tag_563\n      jump\t// in\n    tag_968:\n        /* \"#utility.yul\":47709:47711   */\n      0x40\n        /* \"#utility.yul\":47704:47707   */\n      dup3\n        /* \"#utility.yul\":47700:47712   */\n      add\n        /* \"#utility.yul\":47693:47712   */\n      swap1\n      pop\n        /* \"#utility.yul\":47352:47718   */\n      swap2\n      swap1\n      pop\n      jump\t// out\n        /* \"#utility.yul\":47724:48143   */\n    tag_316:\n        /* \"#utility.yul\":47890:47894   */\n      0x00\n        /* \"#utility.yul\":47928:47930   */\n      0x20\n        /* \"#utility.yul\":47917:47926   */\n      dup3\n        /* \"#utility.yul\":47913:47931   */\n      add\n        /* \"#utility.yul\":47905:47931   */\n      swap1\n      pop\n        /* \"#utility.yul\":47977:47986   */\n      dup2\n        /* \"#utility.yul\":47971:47975   */\n      dup2\n        /* \"#utility.yul\":47967:47987   */\n      sub\n        /* \"#utility.yul\":47963:47964   */\n      0x00\n        /* \"#utility.yul\":47952:47961   */\n      dup4\n        /* \"#utility.yul\":47948:47965   */\n      add\n        /* \"#utility.yul\":47941:47988   */\n      mstore\n        /* \"#utility.yul\":48005:48136   */\n      tag_970\n        /* \"#utility.yul\":48131:48135   */\n      dup2\n        /* \"#utility.yul\":48005:48136   */\n      tag_564\n      jump\t// in\n    tag_970:\n        /* \"#utility.yul\":47997:48136   */\n      swap1\n      pop\n        /* \"#utility.yul\":47724:48143   */\n      swap2\n      swap1\n      pop\n      jump\t// out\n        /* \"#utility.yul\":48149:48559   */\n    tag_328:\n        /* \"#utility.yul\":48189:48196   */\n      0x00\n        /* \"#utility.yul\":48212:48232   */\n      tag_972\n        /* \"#utility.yul\":48230:48231   */\n      dup3\n        /* \"#utility.yul\":48212:48232   */\n      tag_470\n      jump\t// in\n    tag_972:\n        /* \"#utility.yul\":48207:48232   */\n      swap2\n      pop\n        /* \"#utility.yul\":48246:48266   */\n      tag_973\n        /* \"#utility.yul\":48264:48265   */\n      dup4\n        /* \"#utility.yul\":48246:48266   */\n      tag_470\n      jump\t// in\n    tag_973:\n        /* \"#utility.yul\":48241:48266   */\n      swap3\n      pop\n        /* \"#utility.yul\":48301:48302   */\n      dup3\n        /* \"#utility.yul\":48298:48299   */\n      dup3\n        /* \"#utility.yul\":48294:48303   */\n      mul\n        /* \"#utility.yul\":48323:48353   */\n      tag_974\n        /* \"#utility.yul\":48341:48352   */\n      dup2\n        /* \"#utility.yul\":48323:48353   */\n      tag_470\n      jump\t// in\n    tag_974:\n        /* \"#utility.yul\":48312:48353   */\n      swap2\n      pop\n        /* \"#utility.yul\":48502:48503   */\n      dup3\n        /* \"#utility.yul\":48493:48500   */\n      dup3\n        /* \"#utility.yul\":48489:48504   */\n      div\n        /* \"#utility.yul\":48486:48487   */\n      dup5\n        /* \"#utility.yul\":48483:48505   */\n      eq\n        /* \"#utility.yul\":48463:48464   */\n      dup4\n        /* \"#utility.yul\":48456:48465   */\n      iszero\n        /* \"#utility.yul\":48436:48519   */\n      or\n        /* \"#utility.yul\":48413:48552   */\n      tag_975\n      jumpi\n        /* \"#utility.yul\":48532:48550   */\n      tag_976\n      tag_532\n      jump\t// in\n    tag_976:\n        /* \"#utility.yul\":48413:48552   */\n    tag_975:\n        /* \"#utility.yul\":48197:48559   */\n      pop\n        /* \"#utility.yul\":48149:48559   */\n      swap3\n      swap2\n      pop\n      pop\n      jump\t// out\n        /* \"#utility.yul\":48565:48745   */\n    tag_565:\n        /* \"#utility.yul\":48613:48690   */\n      0x4e487b7100000000000000000000000000000000000000000000000000000000\n        /* \"#utility.yul\":48610:48611   */\n      0x00\n        /* \"#utility.yul\":48603:48691   */\n      mstore\n        /* \"#utility.yul\":48710:48714   */\n      0x12\n        /* \"#utility.yul\":48707:48708   */\n      0x04\n        /* \"#utility.yul\":48700:48715   */\n      mstore\n        /* \"#utility.yul\":48734:48738   */\n      0x24\n        /* \"#utility.yul\":48731:48732   */\n      0x00\n        /* \"#utility.yul\":48724:48739   */\n      revert\n        /* \"#utility.yul\":48751:48936   */\n    tag_330:\n        /* \"#utility.yul\":48791:48792   */\n      0x00\n        /* \"#utility.yul\":48808:48828   */\n      tag_979\n        /* \"#utility.yul\":48826:48827   */\n      dup3\n        /* \"#utility.yul\":48808:48828   */\n      tag_470\n      jump\t// in\n    tag_979:\n        /* \"#utility.yul\":48803:48828   */\n      swap2\n      pop\n        /* \"#utility.yul\":48842:48862   */\n      tag_980\n        /* \"#utility.yul\":48860:48861   */\n      dup4\n        /* \"#utility.yul\":48842:48862   */\n      tag_470\n      jump\t// in\n    tag_980:\n        /* \"#utility.yul\":48837:48862   */\n      swap3\n      pop\n        /* \"#utility.yul\":48881:48882   */\n      dup3\n        /* \"#utility.yul\":48871:48906   */\n      tag_981\n      jumpi\n        /* \"#utility.yul\":48886:48904   */\n      tag_982\n      tag_565\n      jump\t// in\n    tag_982:\n        /* \"#utility.yul\":48871:48906   */\n    tag_981:\n        /* \"#utility.yul\":48928:48929   */\n      dup3\n        /* \"#utility.yul\":48925:48926   */\n      dup3\n        /* \"#utility.yul\":48921:48930   */\n      div\n        /* \"#utility.yul\":48916:48930   */\n      swap1\n      pop\n        /* \"#utility.yul\":48751:48936   */\n      swap3\n      swap2\n      pop\n      pop\n      jump\t// out\n        /* \"#utility.yul\":48942:49120   */\n    tag_566:\n        /* \"#utility.yul\":49082:49112   */\n      0x5061676520696e646578206d7573742073746172742066726f6d203100000000\n        /* \"#utility.yul\":49078:49079   */\n      0x00\n        /* \"#utility.yul\":49070:49076   */\n      dup3\n        /* \"#utility.yul\":49066:49080   */\n      add\n        /* \"#utility.yul\":49059:49113   */\n      mstore\n        /* \"#utility.yul\":48942:49120   */\n      pop\n      jump\t// out\n        /* \"#utility.yul\":49126:49492   */\n    tag_567:\n        /* \"#utility.yul\":49268:49271   */\n      0x00\n        /* \"#utility.yul\":49289:49356   */\n      tag_985\n        /* \"#utility.yul\":49353:49355   */\n      0x1c\n        /* \"#utility.yul\":49348:49351   */\n      dup4\n        /* \"#utility.yul\":49289:49356   */\n      tag_487\n      jump\t// in\n    tag_985:\n        /* \"#utility.yul\":49282:49356   */\n      swap2\n      pop\n        /* \"#utility.yul\":49365:49458   */\n      tag_986\n        /* \"#utility.yul\":49454:49457   */\n      dup3\n        /* \"#utility.yul\":49365:49458   */\n      tag_566\n      jump\t// in\n    tag_986:\n        /* \"#utility.yul\":49483:49485   */\n      0x20\n        /* \"#utility.yul\":49478:49481   */\n      dup3\n        /* \"#utility.yul\":49474:49486   */\n      add\n        /* \"#utility.yul\":49467:49486   */\n      swap1\n      pop\n        /* \"#utility.yul\":49126:49492   */\n      swap2\n      swap1\n      pop\n      jump\t// out\n        /* \"#utility.yul\":49498:49917   */\n    tag_359:\n        /* \"#utility.yul\":49664:49668   */\n      0x00\n        /* \"#utility.yul\":49702:49704   */\n      0x20\n        /* \"#utility.yul\":49691:49700   */\n      dup3\n        /* \"#utility.yul\":49687:49705   */\n      add\n        /* \"#utility.yul\":49679:49705   */\n      swap1\n      pop\n        /* \"#utility.yul\":49751:49760   */\n      dup2\n        /* \"#utility.yul\":49745:49749   */\n      dup2\n        /* \"#utility.yul\":49741:49761   */\n      sub\n        /* \"#utility.yul\":49737:49738   */\n      0x00\n        /* \"#utility.yul\":49726:49735   */\n      dup4\n        /* \"#utility.yul\":49722:49739   */\n      add\n        /* \"#utility.yul\":49715:49762   */\n      mstore\n        /* \"#utility.yul\":49779:49910   */\n      tag_988\n        /* \"#utility.yul\":49905:49909   */\n      dup2\n        /* \"#utility.yul\":49779:49910   */\n      tag_567\n      jump\t// in\n    tag_988:\n        /* \"#utility.yul\":49771:49910   */\n      swap1\n      pop\n        /* \"#utility.yul\":49498:49917   */\n      swap2\n      swap1\n      pop\n      jump\t// out\n        /* \"#utility.yul\":49923:50105   */\n    tag_568:\n        /* \"#utility.yul\":50063:50097   */\n      0x506167652073697a65206d7573742062652067726561746572207468616e2030\n        /* \"#utility.yul\":50059:50060   */\n      0x00\n        /* \"#utility.yul\":50051:50057   */\n      dup3\n        /* \"#utility.yul\":50047:50061   */\n      add\n        /* \"#utility.yul\":50040:50098   */\n      mstore\n        /* \"#utility.yul\":49923:50105   */\n      pop\n      jump\t// out\n        /* \"#utility.yul\":50111:50477   */\n    tag_569:\n        /* \"#utility.yul\":50253:50256   */\n      0x00\n        /* \"#utility.yul\":50274:50341   */\n      tag_991\n        /* \"#utility.yul\":50338:50340   */\n      0x20\n        /* \"#utility.yul\":50333:50336   */\n      dup4\n        /* \"#utility.yul\":50274:50341   */\n      tag_487\n      jump\t// in\n    tag_991:\n        /* \"#utility.yul\":50267:50341   */\n      swap2\n      pop\n        /* \"#utility.yul\":50350:50443   */\n      tag_992\n        /* \"#utility.yul\":50439:50442   */\n      dup3\n        /* \"#utility.yul\":50350:50443   */\n      tag_568\n      jump\t// in\n    tag_992:\n        /* \"#utility.yul\":50468:50470   */\n      0x20\n        /* \"#utility.yul\":50463:50466   */\n      dup3\n        /* \"#utility.yul\":50459:50471   */\n      add\n        /* \"#utility.yul\":50452:50471   */\n      swap1\n      pop\n        /* \"#utility.yul\":50111:50477   */\n      swap2\n      swap1\n      pop\n      jump\t// out\n        /* \"#utility.yul\":50483:50902   */\n    tag_362:\n        /* \"#utility.yul\":50649:50653   */\n      0x00\n        /* \"#utility.yul\":50687:50689   */\n      0x20\n        /* \"#utility.yul\":50676:50685   */\n      dup3\n        /* \"#utility.yul\":50672:50690   */\n      add\n        /* \"#utility.yul\":50664:50690   */\n      swap1\n      pop\n        /* \"#utility.yul\":50736:50745   */\n      dup2\n        /* \"#utility.yul\":50730:50734   */\n      dup2\n        /* \"#utility.yul\":50726:50746   */\n      sub\n        /* \"#utility.yul\":50722:50723   */\n      0x00\n        /* \"#utility.yul\":50711:50720   */\n      dup4\n        /* \"#utility.yul\":50707:50724   */\n      add\n        /* \"#utility.yul\":50700:50747   */\n      mstore\n        /* \"#utility.yul\":50764:50895   */\n      tag_994\n        /* \"#utility.yul\":50890:50894   */\n      dup2\n        /* \"#utility.yul\":50764:50895   */\n      tag_569\n      jump\t// in\n    tag_994:\n        /* \"#utility.yul\":50756:50895   */\n      swap1\n      pop\n        /* \"#utility.yul\":50483:50902   */\n      swap2\n      swap1\n      pop\n      jump\t// out\n        /* \"#utility.yul\":50908:51102   */\n    tag_376:\n        /* \"#utility.yul\":50948:50952   */\n      0x00\n        /* \"#utility.yul\":50968:50988   */\n      tag_996\n        /* \"#utility.yul\":50986:50987   */\n      dup3\n        /* \"#utility.yul\":50968:50988   */\n      tag_470\n      jump\t// in\n    tag_996:\n        /* \"#utility.yul\":50963:50988   */\n      swap2\n      pop\n        /* \"#utility.yul\":51002:51022   */\n      tag_997\n        /* \"#utility.yul\":51020:51021   */\n      dup4\n        /* \"#utility.yul\":51002:51022   */\n      tag_470\n      jump\t// in\n    tag_997:\n        /* \"#utility.yul\":50997:51022   */\n      swap3\n      pop\n        /* \"#utility.yul\":51046:51047   */\n      dup3\n        /* \"#utility.yul\":51043:51044   */\n      dup3\n        /* \"#utility.yul\":51039:51048   */\n      sub\n        /* \"#utility.yul\":51031:51048   */\n      swap1\n      pop\n        /* \"#utility.yul\":51070:51071   */\n      dup2\n        /* \"#utility.yul\":51064:51068   */\n      dup2\n        /* \"#utility.yul\":51061:51072   */\n      gt\n        /* \"#utility.yul\":51058:51095   */\n      iszero\n      tag_998\n      jumpi\n        /* \"#utility.yul\":51075:51093   */\n      tag_999\n      tag_532\n      jump\t// in\n    tag_999:\n        /* \"#utility.yul\":51058:51095   */\n    tag_998:\n        /* \"#utility.yul\":50908:51102   */\n      swap3\n      swap2\n      pop\n      pop\n      jump\t// out\n        /* \"#utility.yul\":51108:51276   */\n    tag_570:\n        /* \"#utility.yul\":51248:51268   */\n      0x496e76616c6964207061676520696e6465780000000000000000000000000000\n        /* \"#utility.yul\":51244:51245   */\n      0x00\n        /* \"#utility.yul\":51236:51242   */\n      dup3\n        /* \"#utility.yul\":51232:51246   */\n      add\n        /* \"#utility.yul\":51225:51269   */\n      mstore\n        /* \"#utility.yul\":51108:51276   */\n      pop\n      jump\t// out\n        /* \"#utility.yul\":51282:51648   */\n    tag_571:\n        /* \"#utility.yul\":51424:51427   */\n      0x00\n        /* \"#utility.yul\":51445:51512   */\n      tag_1002\n        /* \"#utility.yul\":51509:51511   */\n      0x12\n        /* \"#utility.yul\":51504:51507   */\n      dup4\n        /* \"#utility.yul\":51445:51512   */\n      tag_487\n      jump\t// in\n    tag_1002:\n        /* \"#utility.yul\":51438:51512   */\n      swap2\n      pop\n        /* \"#utility.yul\":51521:51614   */\n      tag_1003\n        /* \"#utility.yul\":51610:51613   */\n      dup3\n        /* \"#utility.yul\":51521:51614   */\n      tag_570\n      jump\t// in\n    tag_1003:\n        /* \"#utility.yul\":51639:51641   */\n      0x20\n        /* \"#utility.yul\":51634:51637   */\n      dup3\n        /* \"#utility.yul\":51630:51642   */\n      add\n        /* \"#utility.yul\":51623:51642   */\n      swap1\n      pop\n        /* \"#utility.yul\":51282:51648   */\n      swap2\n      swap1\n      pop\n      jump\t// out\n        /* \"#utility.yul\":51654:52073   */\n    tag_380:\n        /* \"#utility.yul\":51820:51824   */\n      0x00\n        /* \"#utility.yul\":51858:51860   */\n      0x20\n        /* \"#utility.yul\":51847:51856   */\n      dup3\n        /* \"#utility.yul\":51843:51861   */\n      add\n        /* \"#utility.yul\":51835:51861   */\n      swap1\n      pop\n        /* \"#utility.yul\":51907:51916   */\n      dup2\n        /* \"#utility.yul\":51901:51905   */\n      dup2\n        /* \"#utility.yul\":51897:51917   */\n      sub\n        /* \"#utility.yul\":51893:51894   */\n      0x00\n        /* \"#utility.yul\":51882:51891   */\n      dup4\n        /* \"#utility.yul\":51878:51895   */\n      add\n        /* \"#utility.yul\":51871:51918   */\n      mstore\n        /* \"#utility.yul\":51935:52066   */\n      tag_1005\n        /* \"#utility.yul\":52061:52065   */\n      dup2\n        /* \"#utility.yul\":51935:52066   */\n      tag_571\n      jump\t// in\n    tag_1005:\n        /* \"#utility.yul\":51927:52066   */\n      swap1\n      pop\n        /* \"#utility.yul\":51654:52073   */\n      swap2\n      swap1\n      pop\n      jump\t// out\n\n    auxdata: 0xa2646970667358221220bed44e082a7247784138b6417d8207d7352a3bff7ea442cf035fc6b322294a5664736f6c634300081a0033\n}\n",
				"bytecode": {
					"linkReferences": {},
					"object": "6080604052662386f26fc100006001553480156019575f80fd5b50335f806101000a81548173ffffffffffffffffffffffffffffffffffffffff021916908373ffffffffffffffffffffffffffffffffffffffff16021790555060016002819055506001600381905550614607806100765f395ff3fe608060405260043610610134575f3560e01c806361e78617116100aa578063d5999a5c1161006e578063d5999a5c1461040a578063da2b4c1e14610434578063e25f3e021461045e578063ee1589a51461049a578063f4359ce5146104d8578063fd1df0351461050257610134565b806361e78617146103385780638da5cb5b14610362578063934d1fa41461038c578063b69ef8a8146103b6578063cba13030146103e057610134565b806331b1b978116100fc57806331b1b978146102215780633ccfd60b146102665780634a8f164f1461027c57806355ce8034146102b8578063572491c3146102f457806359974e381461031057610134565b806301b49d471461013857806301fa3bec146101605780632401519c146101885780632690567e146101c957806327e235e3146101e5575b5f80fd5b348015610143575f80fd5b5061015e60048036038101906101599190612de4565b610540565b005b34801561016b575f80fd5b5061018660048036038101906101819190612f5e565b61074e565b005b348015610193575f80fd5b506101ae60048036038101906101a99190612de4565b610c64565b6040516101c096959493929190613066565b60405180910390f35b6101e360048036038101906101de9190612de4565b610d4c565b005b3480156101f0575f80fd5b5061020b600480360381019061020691906130f6565b61120b565b6040516102189190613121565b60405180910390f35b34801561022c575f80fd5b506102476004803603810190610242919061313a565b611220565b60405161025d9a9998979695949392919061317f565b60405180910390f35b348015610271575f80fd5b5061027a61142d565b005b348015610287575f80fd5b506102a2600480360381019061029d9190612de4565b611539565b6040516102af919061331a565b60405180910390f35b3480156102c3575f80fd5b506102de60048036038101906102d9919061333a565b611730565b6040516102eb9190613429565b60405180910390f35b61030e6004803603810190610309919061346c565b6118ad565b005b34801561031b575f80fd5b506103366004803603810190610331919061313a565b611bb5565b005b348015610343575f80fd5b5061034c611e6f565b6040516103599190613121565b60405180910390f35b34801561036d575f80fd5b50610376611e75565b6040516103839190613524565b60405180910390f35b348015610397575f80fd5b506103a0611e98565b6040516103ad9190613121565b60405180910390f35b3480156103c1575f80fd5b506103ca611e9f565b6040516103d79190613121565b60405180910390f35b3480156103eb575f80fd5b506103f4611ea6565b6040516104019190613121565b60405180910390f35b348015610415575f80fd5b5061041e611eac565b60405161042b9190613121565b60405180910390f35b34801561043f575f80fd5b50610448611eb3565b6040516104559190613121565b60405180910390f35b348015610469575f80fd5b50610484600480360381019061047f919061313a565b611eb9565b6040516104919190613631565b60405180910390f35b3480156104a5575f80fd5b506104c060048036038101906104bb9190613651565b6121d6565b6040516104cf939291906137e2565b60405180910390f35b3480156104e3575f80fd5b506104ec6127e4565b6040516104f99190613121565b60405180910390f35b34801561050d575f80fd5b5061052860048036038101906105239190612de4565b6127eb565b604051610537939291906139be565b60405180910390f35b815f73ffffffffffffffffffffffffffffffffffffffff1660045f8381526020019081526020015f206001015f9054906101000a900473ffffffffffffffffffffffffffffffffffffffff1673ffffffffffffffffffffffffffffffffffffffff16036105e2576040517f08c379a00000000000000000000000000000000000000000000000000000000081526004016105d990613a44565b60405180910390fd5b8260045f8281526020019081526020015f206008015f9054906101000a900460ff1615610644576040517f08c379a000000000000000000000000000000000000000000000000000000000815260040161063b90613aac565b60405180910390fd5b5f60045f8681526020019081526020015f209050806001015f9054906101000a900473ffffffffffffffffffffffffffffffffffffffff1673ffffffffffffffffffffffffffffffffffffffff163373ffffffffffffffffffffffffffffffffffffffff16146106e9576040517f08c379a00000000000000000000000000000000000000000000000000000000081526004016106e090613b14565b60405180910390fd5b6001816008015f6101000a81548160ff0219169083151502179055508381600901819055507f99fe2c8abd13b610e7f7d4a51a49e1391ba19454b72305176b884d66010e475a858560405161073f929190613b32565b60405180910390a15050505050565b815f73ffffffffffffffffffffffffffffffffffffffff1660045f8381526020019081526020015f206001015f9054906101000a900473ffffffffffffffffffffffffffffffffffffffff1673ffffffffffffffffffffffffffffffffffffffff16036107f0576040517f08c379a00000000000000000000000000000000000000000000000000000000081526004016107e790613a44565b60405180910390fd5b8260045f8281526020019081526020015f206008015f9054906101000a900460ff1615610852576040517f08c379a000000000000000000000000000000000000000000000000000000000815260040161084990613aac565b60405180910390fd5b5f60045f8681526020019081526020015f20604051806101400160405290815f8201548152602001600182015f9054906101000a900473ffffffffffffffffffffffffffffffffffffffff1673ffffffffffffffffffffffffffffffffffffffff1673ffffffffffffffffffffffffffffffffffffffff1681526020016002820180546108de90613b86565b80601f016020809104026020016040519081016040528092919081815260200182805461090a90613b86565b80156109555780601f1061092c57610100808354040283529160200191610955565b820191905f5260205f20905b81548152906001019060200180831161093857829003601f168201915b5050505050815260200160038201805461096e90613b86565b80601f016020809104026020016040519081016040528092919081815260200182805461099a90613b86565b80156109e55780601f106109bc576101008083540402835291602001916109e5565b820191905f5260205f20905b8154815290600101906020018083116109c857829003601f168201915b505050505081526020016004820180546109fe90613b86565b80601f0160208091040260200160405190810160405280929190818152602001828054610a2a90613b86565b8015610a755780601f10610a4c57610100808354040283529160200191610a75565b820191905f5260205f20905b815481529060010190602001808311610a5857829003601f168201915b50505050508152602001600582015481526020016006820154815260200160078201548152602001600882015f9054906101000a900460ff1615151515815260200160098201548152505090508060e00151421115610b09576040517f08c379a0000000000000000000000000000000000000000000000000000000008152600401610b0090613c00565b60405180910390fd5b5f60035f815480929190610b1c90613c4b565b9190505590506040518060c001604052808281526020013373ffffffffffffffffffffffffffffffffffffffff1681526020018681526020015f81526020015f81526020014281525060055f8881526020019081526020015f205f8381526020019081526020015f205f820151815f01556020820151816001015f6101000a81548173ffffffffffffffffffffffffffffffffffffffff021916908373ffffffffffffffffffffffffffffffffffffffff1602179055506040820151816002019081610be89190613e2f565b50606082015181600301556080820151816004015560a082015181600501559050503373ffffffffffffffffffffffffffffffffffffffff167f1b72a809869907cac4c4e55b8bf6920ff492d2ff53307bb77ba492366b61387c878388604051610c5493929190613efe565b60405180910390a2505050505050565b6005602052815f5260405f20602052805f5260405f205f9150915050805f015490806001015f9054906101000a900473ffffffffffffffffffffffffffffffffffffffff1690806002018054610cb990613b86565b80601f0160208091040260200160405190810160405280929190818152602001828054610ce590613b86565b8015610d305780601f10610d0757610100808354040283529160200191610d30565b820191905f5260205f20905b815481529060010190602001808311610d1357829003601f168201915b5050505050908060030154908060040154908060050154905086565b815f73ffffffffffffffffffffffffffffffffffffffff1660045f8381526020019081526020015f206001015f9054906101000a900473ffffffffffffffffffffffffffffffffffffffff1673ffffffffffffffffffffffffffffffffffffffff1603610dee576040517f08c379a0000000000000000000000000000000000000000000000000000000008152600401610de590613a44565b60405180910390fd5b8260045f8281526020019081526020015f206008015f9054906101000a900460ff1615610e50576040517f08c379a0000000000000000000000000000000000000000000000000000000008152600401610e4790613aac565b60405180910390fd5b5f60045f8681526020019081526020015f20604051806101400160405290815f8201548152602001600182015f9054906101000a900473ffffffffffffffffffffffffffffffffffffffff1673ffffffffffffffffffffffffffffffffffffffff1673ffffffffffffffffffffffffffffffffffffffff168152602001600282018054610edc90613b86565b80601f0160208091040260200160405190810160405280929190818152602001828054610f0890613b86565b8015610f535780601f10610f2a57610100808354040283529160200191610f53565b820191905f5260205f20905b815481529060010190602001808311610f3657829003601f168201915b50505050508152602001600382018054610f6c90613b86565b80601f0160208091040260200160405190810160405280929190818152602001828054610f9890613b86565b8015610fe35780601f10610fba57610100808354040283529160200191610fe3565b820191905f5260205f20905b815481529060010190602001808311610fc657829003601f168201915b50505050508152602001600482018054610ffc90613b86565b80601f016020809104026020016040519081016040528092919081815260200182805461102890613b86565b80156110735780601f1061104a57610100808354040283529160200191611073565b820191905f5260205f20905b81548152906001019060200180831161105657829003601f168201915b50505050508152602001600582015481526020016006820154815260200160078201548152602001600882015f9054906101000a900460ff1615151515815260200160098201548152505090508060e00151421115611107576040517f08c379a00000000000000000000000000000000000000000000000000000000081526004016110fe90613f84565b60405180910390fd5b600154341461114b576040517f08c379a000000000000000000000000000000000000000000000000000000000815260040161114290613fec565b60405180910390fd5b5f60055f8781526020019081526020015f205f8681526020019081526020015f2090506001816003015f828254611182919061400a565b925050819055503460045f8881526020019081526020015f206005015f8282546111ac919061400a565b925050819055503373ffffffffffffffffffffffffffffffffffffffff167fd91ecafccf238642dccd41161308b3eebe62a12bc5819daf5164780c221ec95b87876040516111fb929190613b32565b60405180910390a2505050505050565b6006602052805f5260405f205f915090505481565b6004602052805f5260405f205f91509050805f015490806001015f9054906101000a900473ffffffffffffffffffffffffffffffffffffffff169080600201805461126a90613b86565b80601f016020809104026020016040519081016040528092919081815260200182805461129690613b86565b80156112e15780601f106112b8576101008083540402835291602001916112e1565b820191905f5260205f20905b8154815290600101906020018083116112c457829003601f168201915b5050505050908060030180546112f690613b86565b80601f016020809104026020016040519081016040528092919081815260200182805461132290613b86565b801561136d5780601f106113445761010080835404028352916020019161136d565b820191905f5260205f20905b81548152906001019060200180831161135057829003601f168201915b50505050509080600401805461138290613b86565b80601f01602080910402602001604051908101604052809291908181526020018280546113ae90613b86565b80156113f95780601f106113d0576101008083540402835291602001916113f9565b820191905f5260205f20905b8154815290600101906020018083116113dc57829003601f168201915b505050505090806005015490806006015490806007015490806008015f9054906101000a900460ff1690806009015490508a565b5f60065f3373ffffffffffffffffffffffffffffffffffffffff1673ffffffffffffffffffffffffffffffffffffffff1681526020019081526020015f205490505f81116114b0576040517f08c379a00000000000000000000000000000000000000000000000000000000081526004016114a790614087565b60405180910390fd5b5f60065f3373ffffffffffffffffffffffffffffffffffffffff1673ffffffffffffffffffffffffffffffffffffffff1681526020019081526020015f20819055503373ffffffffffffffffffffffffffffffffffffffff166108fc8290811502906040515f60405180830381858888f19350505050158015611535573d5f803e3d5ffd5b5050565b611541612cf5565b5f73ffffffffffffffffffffffffffffffffffffffff1660055f8581526020019081526020015f205f8481526020019081526020015f206001015f9054906101000a900473ffffffffffffffffffffffffffffffffffffffff1673ffffffffffffffffffffffffffffffffffffffff16036115f1576040517f08c379a00000000000000000000000000000000000000000000000000000000081526004016115e8906140ef565b60405180910390fd5b60055f8481526020019081526020015f205f8381526020019081526020015f206040518060c00160405290815f8201548152602001600182015f9054906101000a900473ffffffffffffffffffffffffffffffffffffffff1673ffffffffffffffffffffffffffffffffffffffff1673ffffffffffffffffffffffffffffffffffffffff16815260200160028201805461168a90613b86565b80601f01602080910402602001604051908101604052809291908181526020018280546116b690613b86565b80156117015780601f106116d857610100808354040283529160200191611701565b820191905f5260205f20905b8154815290600101906020018083116116e457829003601f168201915b505050505081526020016003820154815260200160048201548152602001600582015481525050905092915050565b60605f60025467ffffffffffffffff81111561174f5761174e612e3a565b5b60405190808252806020026020018201604052801561177d5781602001602082028036833780820191505090505b5090505f80600190505b60025481101561180357848051906020012060045f8381526020019081526020015f206004016040516117ba91906141a9565b6040518091039020036117f657808383815181106117db576117da6141bf565b5b60200260200101818152505081806117f290613c4b565b9250505b8080600101915050611787565b505f8167ffffffffffffffff81111561181f5761181e612e3a565b5b60405190808252806020026020018201604052801561184d5781602001602082028036833780820191505090505b5090505f5b828110156118a15783818151811061186d5761186c6141bf565b5b6020026020010151828281518110611888576118876141bf565b5b6020026020010181815250508080600101915050611852565b50809350505050919050565b5f34116118ef576040517f08c379a00000000000000000000000000000000000000000000000000000000081526004016118e690614236565b60405180910390fd5b5f825111611932576040517f08c379a00000000000000000000000000000000000000000000000000000000081526004016119299061429e565b60405180910390fd5b5f806002811115611946576119456142bc565b5b826002811115611959576119586142bc565b5b036119745762093a804261196d919061400a565b90506119f5565b60016002811115611988576119876142bc565b5b82600281111561199b5761199a6142bc565b5b036119b65762127500426119af919061400a565b90506119f4565b6002808111156119c9576119c86142bc565b5b8260028111156119dc576119db6142bc565b5b036119f35762278d00426119f0919061400a565b90505b5b5b5f60025f815480929190611a0890613c4b565b9190505590506040518061014001604052808281526020013373ffffffffffffffffffffffffffffffffffffffff1681526020018781526020018681526020018581526020013481526020014281526020018381526020015f151581526020015f81525060045f8381526020019081526020015f205f820151815f01556020820151816001015f6101000a81548173ffffffffffffffffffffffffffffffffffffffff021916908373ffffffffffffffffffffffffffffffffffffffff1602179055506040820151816002019081611ae09190613e2f565b506060820151816003019081611af69190613e2f565b506080820151816004019081611b0c9190613e2f565b5060a0820151816005015560c0820151816006015560e08201518160070155610100820151816008015f6101000a81548160ff02191690831515021790555061012082015181600901559050503373ffffffffffffffffffffffffffffffffffffffff167fb8105899d34d8481e717a601e8d7a732c27b0ab23778e01145f2f3eb24a1120c82883488604051611ba594939291906142e9565b60405180910390a2505050505050565b805f73ffffffffffffffffffffffffffffffffffffffff1660045f8381526020019081526020015f206001015f9054906101000a900473ffffffffffffffffffffffffffffffffffffffff1673ffffffffffffffffffffffffffffffffffffffff1603611c57576040517f08c379a0000000000000000000000000000000000000000000000000000000008152600401611c4e90613a44565b60405180910390fd5b5f60045f8481526020019081526020015f20905080600701544211611cb1576040517f08c379a0000000000000000000000000000000000000000000000000000000008152600401611ca8906143aa565b60405180910390fd5b806008015f9054906101000a900460ff1615611d02576040517f08c379a0000000000000000000000000000000000000000000000000000000008152600401611cf990613aac565b60405180910390fd5b5f80826005015490505f5b600354811015611d555760055f8781526020019081526020015f205f8281526020019081526020015f206003015483611d46919061400a565b92508080600101915050611d0d565b505f5b600354811015611e4b575f60055f8881526020019081526020015f205f8381526020019081526020015f2090505f841115611e3d575f84848360030154611d9f91906143c8565b611da99190614436565b905080826004015f828254611dbe919061400a565b925050819055508060065f846001015f9054906101000a900473ffffffffffffffffffffffffffffffffffffffff1673ffffffffffffffffffffffffffffffffffffffff1673ffffffffffffffffffffffffffffffffffffffff1681526020019081526020015f205f828254611e34919061400a565b92505081905550505b508080600101915050611d58565b506001836008015f6101000a81548160ff0219169083151502179055505050505050565b60025481565b5f8054906101000a900473ffffffffffffffffffffffffffffffffffffffff1681565b6212750081565b5f47905090565b60035481565b62278d0081565b60015481565b611ec1612d3c565b5f73ffffffffffffffffffffffffffffffffffffffff1660045f8481526020019081526020015f206001015f9054906101000a900473ffffffffffffffffffffffffffffffffffffffff1673ffffffffffffffffffffffffffffffffffffffff1603611f62576040517f08c379a0000000000000000000000000000000000000000000000000000000008152600401611f5990613a44565b60405180910390fd5b60045f8381526020019081526020015f20604051806101400160405290815f8201548152602001600182015f9054906101000a900473ffffffffffffffffffffffffffffffffffffffff1673ffffffffffffffffffffffffffffffffffffffff1673ffffffffffffffffffffffffffffffffffffffff168152602001600282018054611fed90613b86565b80601f016020809104026020016040519081016040528092919081815260200182805461201990613b86565b80156120645780601f1061203b57610100808354040283529160200191612064565b820191905f5260205f20905b81548152906001019060200180831161204757829003601f168201915b5050505050815260200160038201805461207d90613b86565b80601f01602080910402602001604051908101604052809291908181526020018280546120a990613b86565b80156120f45780601f106120cb576101008083540402835291602001916120f4565b820191905f5260205f20905b8154815290600101906020018083116120d757829003601f168201915b5050505050815260200160048201805461210d90613b86565b80601f016020809104026020016040519081016040528092919081815260200182805461213990613b86565b80156121845780601f1061215b57610100808354040283529160200191612184565b820191905f5260205f20905b81548152906001019060200180831161216757829003601f168201915b50505050508152602001600582015481526020016006820154815260200160078201548152602001600882015f9054906101000a900460ff161515151581526020016009820154815250509050919050565b60605f805f73ffffffffffffffffffffffffffffffffffffffff1660045f8881526020019081526020015f206001015f9054906101000a900473ffffffffffffffffffffffffffffffffffffffff1673ffffffffffffffffffffffffffffffffffffffff160361227b576040517f08c379a000000000000000000000000000000000000000000000000000000000815260040161227290613a44565b60405180910390fd5b5f85116122bd576040517f08c379a00000000000000000000000000000000000000000000000000000000081526004016122b4906144b0565b60405180910390fd5b5f84116122ff576040517f08c379a00000000000000000000000000000000000000000000000000000000081526004016122f690614518565b60405180910390fd5b5f80600190505b6003548110156123a1575f73ffffffffffffffffffffffffffffffffffffffff1660055f8a81526020019081526020015f205f8381526020019081526020015f206001015f9054906101000a900473ffffffffffffffffffffffffffffffffffffffff1673ffffffffffffffffffffffffffffffffffffffff161461239457818061239090613c4b565b9250505b8080600101915050612306565b508092505f830361240e575f67ffffffffffffffff8111156123c6576123c5612e3a565b5b6040519080825280602002602001820160405280156123ff57816020015b6123ec612cf5565b8152602001906001900390816123e45790505b505f80935093509350506127db565b846001868561241d919061400a565b6124279190614536565b6124319190614436565b915081861115612476576040517f08c379a000000000000000000000000000000000000000000000000000000000815260040161246d906145b3565b60405180910390fd5b5f6001866001896124879190614536565b61249191906143c8565b61249b919061400a565b90505f600187836124ac919061400a565b6124b69190614536565b905060016003546124c79190614536565b8111156124e05760016003546124dd9190614536565b90505b5f808390505b828111612584575f73ffffffffffffffffffffffffffffffffffffffff1660055f8d81526020019081526020015f205f8381526020019081526020015f206001015f9054906101000a900473ffffffffffffffffffffffffffffffffffffffff1673ffffffffffffffffffffffffffffffffffffffff161461257157818061256d90613c4b565b9250505b808061257c90613c4b565b9150506124e6565b508067ffffffffffffffff81111561259f5761259e612e3a565b5b6040519080825280602002602001820160405280156125d857816020015b6125c5612cf5565b8152602001906001900390816125bd5790505b5096505f808490505b8381116127d4575f73ffffffffffffffffffffffffffffffffffffffff1660055f8e81526020019081526020015f205f8381526020019081526020015f206001015f9054906101000a900473ffffffffffffffffffffffffffffffffffffffff1673ffffffffffffffffffffffffffffffffffffffff16146127c15760055f8d81526020019081526020015f205f8281526020019081526020015f206040518060c00160405290815f8201548152602001600182015f9054906101000a900473ffffffffffffffffffffffffffffffffffffffff1673ffffffffffffffffffffffffffffffffffffffff1673ffffffffffffffffffffffffffffffffffffffff1681526020016002820180546126f690613b86565b80601f016020809104026020016040519081016040528092919081815260200182805461272290613b86565b801561276d5780601f106127445761010080835404028352916020019161276d565b820191905f5260205f20905b81548152906001019060200180831161275057829003601f168201915b5050505050815260200160038201548152602001600482015481526020016005820154815250508983815181106127a7576127a66141bf565b5b602002602001018190525081806127bd90613c4b565b9250505b80806127cc90613c4b565b9150506125e1565b5050505050505b93509350939050565b62093a8081565b60605f805f8511612831576040517f08c379a0000000000000000000000000000000000000000000000000000000008152600401612828906144b0565b60405180910390fd5b5f8411612873576040517f08c379a000000000000000000000000000000000000000000000000000000000815260040161286a90614518565b60405180910390fd5b60016002546128829190614536565b91505f82036128ec575f67ffffffffffffffff8111156128a5576128a4612e3a565b5b6040519080825280602002602001820160405280156128de57816020015b6128cb612d3c565b8152602001906001900390816128c35790505b505f80925092509250612cee565b83600185846128fb919061400a565b6129059190614536565b61290f9190614436565b905080851115612954576040517f08c379a000000000000000000000000000000000000000000000000000000000815260040161294b906145b3565b60405180910390fd5b5f6001856001886129659190614536565b61296f91906143c8565b612979919061400a565b90505f6001868361298a919061400a565b6129949190614536565b905060016002546129a59190614536565b8111156129be5760016002546129bb9190614536565b90505b5f600183836129cd9190614536565b6129d7919061400a565b90508067ffffffffffffffff8111156129f3576129f2612e3a565b5b604051908082528060200260200182016040528015612a2c57816020015b612a19612d3c565b815260200190600190039081612a115790505b5095505f808490505b838111612ce85760045f8281526020019081526020015f20604051806101400160405290815f8201548152602001600182015f9054906101000a900473ffffffffffffffffffffffffffffffffffffffff1673ffffffffffffffffffffffffffffffffffffffff1673ffffffffffffffffffffffffffffffffffffffff168152602001600282018054612ac790613b86565b80601f0160208091040260200160405190810160405280929190818152602001828054612af390613b86565b8015612b3e5780601f10612b1557610100808354040283529160200191612b3e565b820191905f5260205f20905b815481529060010190602001808311612b2157829003601f168201915b50505050508152602001600382018054612b5790613b86565b80601f0160208091040260200160405190810160405280929190818152602001828054612b8390613b86565b8015612bce5780601f10612ba557610100808354040283529160200191612bce565b820191905f5260205f20905b815481529060010190602001808311612bb157829003601f168201915b50505050508152602001600482018054612be790613b86565b80601f0160208091040260200160405190810160405280929190818152602001828054612c1390613b86565b8015612c5e5780601f10612c3557610100808354040283529160200191612c5e565b820191905f5260205f20905b815481529060010190602001808311612c4157829003601f168201915b50505050508152602001600582015481526020016006820154815260200160078201548152602001600882015f9054906101000a900460ff16151515158152602001600982015481525050888381518110612cbc57612cbb6141bf565b5b60200260200101819052508180612cd290613c4b565b9250508080612ce090613c4b565b915050612a35565b50505050505b9250925092565b6040518060c001604052805f81526020015f73ffffffffffffffffffffffffffffffffffffffff168152602001606081526020015f81526020015f81526020015f81525090565b6040518061014001604052805f81526020015f73ffffffffffffffffffffffffffffffffffffffff1681526020016060815260200160608152602001606081526020015f81526020015f81526020015f81526020015f151581526020015f81525090565b5f604051905090565b5f80fd5b5f80fd5b5f819050919050565b612dc381612db1565b8114612dcd575f80fd5b50565b5f81359050612dde81612dba565b92915050565b5f8060408385031215612dfa57612df9612da9565b5b5f612e0785828601612dd0565b9250506020612e1885828601612dd0565b9150509250929050565b5f80fd5b5f80fd5b5f601f19601f8301169050919050565b7f4e487b71000000000000000000000000000000000000000000000000000000005f52604160045260245ffd5b612e7082612e2a565b810181811067ffffffffffffffff82111715612e8f57612e8e612e3a565b5b80604052505050565b5f612ea1612da0565b9050612ead8282612e67565b919050565b5f67ffffffffffffffff821115612ecc57612ecb612e3a565b5b612ed582612e2a565b9050602081019050919050565b828183375f83830152505050565b5f612f02612efd84612eb2565b612e98565b905082815260208101848484011115612f1e57612f1d612e26565b5b612f29848285612ee2565b509392505050565b5f82601f830112612f4557612f44612e22565b5b8135612f55848260208601612ef0565b91505092915050565b5f8060408385031215612f7457612f73612da9565b5b5f612f8185828601612dd0565b925050602083013567ffffffffffffffff811115612fa257612fa1612dad565b5b612fae85828601612f31565b9150509250929050565b612fc181612db1565b82525050565b5f73ffffffffffffffffffffffffffffffffffffffff82169050919050565b5f612ff082612fc7565b9050919050565b61300081612fe6565b82525050565b5f81519050919050565b5f82825260208201905092915050565b8281835e5f83830152505050565b5f61303882613006565b6130428185613010565b9350613052818560208601613020565b61305b81612e2a565b840191505092915050565b5f60c0820190506130795f830189612fb8565b6130866020830188612ff7565b8181036040830152613098818761302e565b90506130a76060830186612fb8565b6130b46080830185612fb8565b6130c160a0830184612fb8565b979650505050505050565b6130d581612fe6565b81146130df575f80fd5b50565b5f813590506130f0816130cc565b92915050565b5f6020828403121561310b5761310a612da9565b5b5f613118848285016130e2565b91505092915050565b5f6020820190506131345f830184612fb8565b92915050565b5f6020828403121561314f5761314e612da9565b5b5f61315c84828501612dd0565b91505092915050565b5f8115159050919050565b61317981613165565b82525050565b5f610140820190506131935f83018d612fb8565b6131a0602083018c612ff7565b81810360408301526131b2818b61302e565b905081810360608301526131c6818a61302e565b905081810360808301526131da818961302e565b90506131e960a0830188612fb8565b6131f660c0830187612fb8565b61320360e0830186612fb8565b613211610100830185613170565b61321f610120830184612fb8565b9b9a5050505050505050505050565b61323781612db1565b82525050565b61324681612fe6565b82525050565b5f82825260208201905092915050565b5f61326682613006565b613270818561324c565b9350613280818560208601613020565b61328981612e2a565b840191505092915050565b5f60c083015f8301516132a95f86018261322e565b5060208301516132bc602086018261323d565b50604083015184820360408601526132d4828261325c565b91505060608301516132e9606086018261322e565b5060808301516132fc608086018261322e565b5060a083015161330f60a086018261322e565b508091505092915050565b5f6020820190508181035f8301526133328184613294565b905092915050565b5f6020828403121561334f5761334e612da9565b5b5f82013567ffffffffffffffff81111561336c5761336b612dad565b5b61337884828501612f31565b91505092915050565b5f81519050919050565b5f82825260208201905092915050565b5f819050602082019050919050565b5f6133b5838361322e565b60208301905092915050565b5f602082019050919050565b5f6133d782613381565b6133e1818561338b565b93506133ec8361339b565b805f5b8381101561341c57815161340388826133aa565b975061340e836133c1565b9250506001810190506133ef565b5085935050505092915050565b5f6020820190508181035f83015261344181846133cd565b905092915050565b60038110613455575f80fd5b50565b5f8135905061346681613449565b92915050565b5f805f806080858703121561348457613483612da9565b5b5f85013567ffffffffffffffff8111156134a1576134a0612dad565b5b6134ad87828801612f31565b945050602085013567ffffffffffffffff8111156134ce576134cd612dad565b5b6134da87828801612f31565b935050604085013567ffffffffffffffff8111156134fb576134fa612dad565b5b61350787828801612f31565b925050606061351887828801613458565b91505092959194509250565b5f6020820190506135375f830184612ff7565b92915050565b61354681613165565b82525050565b5f61014083015f8301516135625f86018261322e565b506020830151613575602086018261323d565b506040830151848203604086015261358d828261325c565b915050606083015184820360608601526135a7828261325c565b915050608083015184820360808601526135c1828261325c565b91505060a08301516135d660a086018261322e565b5060c08301516135e960c086018261322e565b5060e08301516135fc60e086018261322e565b5061010083015161361161010086018261353d565b5061012083015161362661012086018261322e565b508091505092915050565b5f6020820190508181035f830152613649818461354c565b905092915050565b5f805f6060848603121561366857613667612da9565b5b5f61367586828701612dd0565b935050602061368686828701612dd0565b925050604061369786828701612dd0565b9150509250925092565b5f81519050919050565b5f82825260208201905092915050565b5f819050602082019050919050565b5f60c083015f8301516136df5f86018261322e565b5060208301516136f2602086018261323d565b506040830151848203604086015261370a828261325c565b915050606083015161371f606086018261322e565b506080830151613732608086018261322e565b5060a083015161374560a086018261322e565b508091505092915050565b5f61375b83836136ca565b905092915050565b5f602082019050919050565b5f613779826136a1565b61378381856136ab565b935083602082028501613795856136bb565b805f5b858110156137d057848403895281516137b18582613750565b94506137bc83613763565b925060208a01995050600181019050613798565b50829750879550505050505092915050565b5f6060820190508181035f8301526137fa818661376f565b90506138096020830185612fb8565b6138166040830184612fb8565b949350505050565b5f81519050919050565b5f82825260208201905092915050565b5f819050602082019050919050565b5f61014083015f83015161385d5f86018261322e565b506020830151613870602086018261323d565b5060408301518482036040860152613888828261325c565b915050606083015184820360608601526138a2828261325c565b915050608083015184820360808601526138bc828261325c565b91505060a08301516138d160a086018261322e565b5060c08301516138e460c086018261322e565b5060e08301516138f760e086018261322e565b5061010083015161390c61010086018261353d565b5061012083015161392161012086018261322e565b508091505092915050565b5f6139378383613847565b905092915050565b5f602082019050919050565b5f6139558261381e565b61395f8185613828565b93508360208202850161397185613838565b805f5b858110156139ac578484038952815161398d858261392c565b94506139988361393f565b925060208a01995050600181019050613974565b50829750879550505050505092915050565b5f6060820190508181035f8301526139d6818661394b565b90506139e56020830185612fb8565b6139f26040830184612fb8565b949350505050565b7f5175657374696f6e20646f6573206e6f742065786973740000000000000000005f82015250565b5f613a2e601783613010565b9150613a39826139fa565b602082019050919050565b5f6020820190508181035f830152613a5b81613a22565b9050919050565b7f5175657374696f6e20697320616c726561647920636c6f7365640000000000005f82015250565b5f613a96601a83613010565b9150613aa182613a62565b602082019050919050565b5f6020820190508181035f830152613ac381613a8a565b9050919050565b7f4f6e6c792061736b65722063616e20636c6f7365207175657374696f6e0000005f82015250565b5f613afe601d83613010565b9150613b0982613aca565b602082019050919050565b5f6020820190508181035f830152613b2b81613af2565b9050919050565b5f604082019050613b455f830185612fb8565b613b526020830184612fb8565b9392505050565b7f4e487b71000000000000000000000000000000000000000000000000000000005f52602260045260245ffd5b5f6002820490506001821680613b9d57607f821691505b602082108103613bb057613baf613b59565b5b50919050565b7f5175657374696f6e20646561646c696e652068617320706173736564000000005f82015250565b5f613bea601c83613010565b9150613bf582613bb6565b602082019050919050565b5f6020820190508181035f830152613c1781613bde565b9050919050565b7f4e487b71000000000000000000000000000000000000000000000000000000005f52601160045260245ffd5b5f613c5582612db1565b91507fffffffffffffffffffffffffffffffffffffffffffffffffffffffffffffffff8203613c8757613c86613c1e565b5b600182019050919050565b5f819050815f5260205f209050919050565b5f6020601f8301049050919050565b5f82821b905092915050565b5f60088302613cee7fffffffffffffffffffffffffffffffffffffffffffffffffffffffffffffffff82613cb3565b613cf88683613cb3565b95508019841693508086168417925050509392505050565b5f819050919050565b5f613d33613d2e613d2984612db1565b613d10565b612db1565b9050919050565b5f819050919050565b613d4c83613d19565b613d60613d5882613d3a565b848454613cbf565b825550505050565b5f90565b613d74613d68565b613d7f818484613d43565b505050565b5b81811015613da257613d975f82613d6c565b600181019050613d85565b5050565b601f821115613de757613db881613c92565b613dc184613ca4565b81016020851015613dd0578190505b613de4613ddc85613ca4565b830182613d84565b50505b505050565b5f82821c905092915050565b5f613e075f1984600802613dec565b1980831691505092915050565b5f613e1f8383613df8565b9150826002028217905092915050565b613e3882613006565b67ffffffffffffffff811115613e5157613e50612e3a565b5b613e5b8254613b86565b613e66828285613da6565b5f60209050601f831160018114613e97575f8415613e85578287015190505b613e8f8582613e14565b865550613ef6565b601f198416613ea586613c92565b5f5b82811015613ecc57848901518255600182019150602085019450602081019050613ea7565b86831015613ee95784890151613ee5601f891682613df8565b8355505b6001600288020188555050505b505050505050565b5f606082019050613f115f830186612fb8565b613f1e6020830185612fb8565b8181036040830152613f30818461302e565b9050949350505050565b7f566f74696e6720706572696f642068617320656e6465640000000000000000005f82015250565b5f613f6e601783613010565b9150613f7982613f3a565b602082019050919050565b5f6020820190508181035f830152613f9b81613f62565b9050919050565b7f496e636f727265637420766f74652066656500000000000000000000000000005f82015250565b5f613fd6601283613010565b9150613fe182613fa2565b602082019050919050565b5f6020820190508181035f83015261400381613fca565b9050919050565b5f61401482612db1565b915061401f83612db1565b925082820190508082111561403757614036613c1e565b5b92915050565b7f4e6f2066756e647320746f2077697468647261770000000000000000000000005f82015250565b5f614071601483613010565b915061407c8261403d565b602082019050919050565b5f6020820190508181035f83015261409e81614065565b9050919050565b7f416e7377657220646f6573206e6f7420657869737400000000000000000000005f82015250565b5f6140d9601583613010565b91506140e4826140a5565b602082019050919050565b5f6020820190508181035f830152614106816140cd565b9050919050565b5f81905092915050565b5f819050815f5260205f209050919050565b5f815461413581613b86565b61413f818661410d565b9450600182165f8114614159576001811461416e576141a0565b60ff19831686528115158202860193506141a0565b61417785614117565b5f5b8381101561419857815481890152600182019150602081019050614179565b838801955050505b50505092915050565b5f6141b48284614129565b915081905092915050565b7f4e487b71000000000000000000000000000000000000000000000000000000005f52603260045260245ffd5b7f526577617264206d7573742062652067726561746572207468616e207a65726f5f82015250565b5f614220602083613010565b915061422b826141ec565b602082019050919050565b5f6020820190508181035f83015261424d81614214565b9050919050565b7f43617465676f72792063616e6e6f7420626520656d70747900000000000000005f82015250565b5f614288601883613010565b915061429382614254565b602082019050919050565b5f6020820190508181035f8301526142b58161427c565b9050919050565b7f4e487b71000000000000000000000000000000000000000000000000000000005f52602160045260245ffd5b5f6080820190506142fc5f830187612fb8565b818103602083015261430e818661302e565b905061431d6040830185612fb8565b818103606083015261432f818461302e565b905095945050505050565b7f43616e6e6f742064697374726962757465206265666f726520646561646c696e5f8201527f6500000000000000000000000000000000000000000000000000000000000000602082015250565b5f614394602183613010565b915061439f8261433a565b604082019050919050565b5f6020820190508181035f8301526143c181614388565b9050919050565b5f6143d282612db1565b91506143dd83612db1565b92508282026143eb81612db1565b9150828204841483151761440257614401613c1e565b5b5092915050565b7f4e487b71000000000000000000000000000000000000000000000000000000005f52601260045260245ffd5b5f61444082612db1565b915061444b83612db1565b92508261445b5761445a614409565b5b828204905092915050565b7f5061676520696e646578206d7573742073746172742066726f6d2031000000005f82015250565b5f61449a601c83613010565b91506144a582614466565b602082019050919050565b5f6020820190508181035f8301526144c78161448e565b9050919050565b7f506167652073697a65206d7573742062652067726561746572207468616e20305f82015250565b5f614502602083613010565b915061450d826144ce565b602082019050919050565b5f6020820190508181035f83015261452f816144f6565b9050919050565b5f61454082612db1565b915061454b83612db1565b925082820390508181111561456357614562613c1e565b5b92915050565b7f496e76616c6964207061676520696e64657800000000000000000000000000005f82015250565b5f61459d601283613010565b91506145a882614569565b602082019050919050565b5f6020820190508181035f8301526145ca81614591565b905091905056fea2646970667358221220bed44e082a7247784138b6417d8207d7352a3bff7ea442cf035fc6b322294a5664736f6c634300081a0033",
					"opcodes": "PUSH1 0x80 PUSH1 0x40 MSTORE PUSH7 0x2386F26FC10000 PUSH1 0x1 SSTORE CALLVALUE DUP1 ISZERO PUSH1 0x19 JUMPI PUSH0 DUP1 REVERT JUMPDEST POP CALLER PUSH0 DUP1 PUSH2 0x100 EXP DUP2 SLOAD DUP2 PUSH20 0xFFFFFFFFFFFFFFFFFFFFFFFFFFFFFFFFFFFFFFFF MUL NOT AND SWAP1 DUP4 PUSH20 0xFFFFFFFFFFFFFFFFFFFFFFFFFFFFFFFFFFFFFFFF AND MUL OR SWAP1 SSTORE POP PUSH1 0x1 PUSH1 0x2 DUP2 SWAP1 SSTORE POP PUSH1 0x1 PUSH1 0x3 DUP2 SWAP1 SSTORE POP PUSH2 0x4607 DUP1 PUSH2 0x76 PUSH0 CODECOPY PUSH0 RETURN INVALID PUSH1 0x80 PUSH1 0x40 MSTORE PUSH1 0x4 CALLDATASIZE LT PUSH2 0x134 JUMPI PUSH0 CALLDATALOAD PUSH1 0xE0 SHR DUP1 PUSH4 0x61E78617 GT PUSH2 0xAA JUMPI DUP1 PUSH4 0xD5999A5C GT PUSH2 0x6E JUMPI DUP1 PUSH4 0xD5999A5C EQ PUSH2 0x40A JUMPI DUP1 PUSH4 0xDA2B4C1E EQ PUSH2 0x434 JUMPI DUP1 PUSH4 0xE25F3E02 EQ PUSH2 0x45E JUMPI DUP1 PUSH4 0xEE1589A5 EQ PUSH2 0x49A JUMPI DUP1 PUSH4 0xF4359CE5 EQ PUSH2 0x4D8 JUMPI DUP1 PUSH4 0xFD1DF035 EQ PUSH2 0x502 JUMPI PUSH2 0x134 JUMP JUMPDEST DUP1 PUSH4 0x61E78617 EQ PUSH2 0x338 JUMPI DUP1 PUSH4 0x8DA5CB5B EQ PUSH2 0x362 JUMPI DUP1 PUSH4 0x934D1FA4 EQ PUSH2 0x38C JUMPI DUP1 PUSH4 0xB69EF8A8 EQ PUSH2 0x3B6 JUMPI DUP1 PUSH4 0xCBA13030 EQ PUSH2 0x3E0 JUMPI PUSH2 0x134 JUMP JUMPDEST DUP1 PUSH4 0x31B1B978 GT PUSH2 0xFC JUMPI DUP1 PUSH4 0x31B1B978 EQ PUSH2 0x221 JUMPI DUP1 PUSH4 0x3CCFD60B EQ PUSH2 0x266 JUMPI DUP1 PUSH4 0x4A8F164F EQ PUSH2 0x27C JUMPI DUP1 PUSH4 0x55CE8034 EQ PUSH2 0x2B8 JUMPI DUP1 PUSH4 0x572491C3 EQ PUSH2 0x2F4 JUMPI DUP1 PUSH4 0x59974E38 EQ PUSH2 0x310 JUMPI PUSH2 0x134 JUMP JUMPDEST DUP1 PUSH4 0x1B49D47 EQ PUSH2 0x138 JUMPI DUP1 PUSH4 0x1FA3BEC EQ PUSH2 0x160 JUMPI DUP1 PUSH4 0x2401519C EQ PUSH2 0x188 JUMPI DUP1 PUSH4 0x2690567E EQ PUSH2 0x1C9 JUMPI DUP1 PUSH4 0x27E235E3 EQ PUSH2 0x1E5 JUMPI JUMPDEST PUSH0 DUP1 REVERT JUMPDEST CALLVALUE DUP1 ISZERO PUSH2 0x143 JUMPI PUSH0 DUP1 REVERT JUMPDEST POP PUSH2 0x15E PUSH1 0x4 DUP1 CALLDATASIZE SUB DUP2 ADD SWAP1 PUSH2 0x159 SWAP2 SWAP1 PUSH2 0x2DE4 JUMP JUMPDEST PUSH2 0x540 JUMP JUMPDEST STOP JUMPDEST CALLVALUE DUP1 ISZERO PUSH2 0x16B JUMPI PUSH0 DUP1 REVERT JUMPDEST POP PUSH2 0x186 PUSH1 0x4 DUP1 CALLDATASIZE SUB DUP2 ADD SWAP1 PUSH2 0x181 SWAP2 SWAP1 PUSH2 0x2F5E JUMP JUMPDEST PUSH2 0x74E JUMP JUMPDEST STOP JUMPDEST CALLVALUE DUP1 ISZERO PUSH2 0x193 JUMPI PUSH0 DUP1 REVERT JUMPDEST POP PUSH2 0x1AE PUSH1 0x4 DUP1 CALLDATASIZE SUB DUP2 ADD SWAP1 PUSH2 0x1A9 SWAP2 SWAP1 PUSH2 0x2DE4 JUMP JUMPDEST PUSH2 0xC64 JUMP JUMPDEST PUSH1 0x40 MLOAD PUSH2 0x1C0 SWAP7 SWAP6 SWAP5 SWAP4 SWAP3 SWAP2 SWAP1 PUSH2 0x3066 JUMP JUMPDEST PUSH1 0x40 MLOAD DUP1 SWAP2 SUB SWAP1 RETURN JUMPDEST PUSH2 0x1E3 PUSH1 0x4 DUP1 CALLDATASIZE SUB DUP2 ADD SWAP1 PUSH2 0x1DE SWAP2 SWAP1 PUSH2 0x2DE4 JUMP JUMPDEST PUSH2 0xD4C JUMP JUMPDEST STOP JUMPDEST CALLVALUE DUP1 ISZERO PUSH2 0x1F0 JUMPI PUSH0 DUP1 REVERT JUMPDEST POP PUSH2 0x20B PUSH1 0x4 DUP1 CALLDATASIZE SUB DUP2 ADD SWAP1 PUSH2 0x206 SWAP2 SWAP1 PUSH2 0x30F6 JUMP JUMPDEST PUSH2 0x120B JUMP JUMPDEST PUSH1 0x40 MLOAD PUSH2 0x218 SWAP2 SWAP1 PUSH2 0x3121 JUMP JUMPDEST PUSH1 0x40 MLOAD DUP1 SWAP2 SUB SWAP1 RETURN JUMPDEST CALLVALUE DUP1 ISZERO PUSH2 0x22C JUMPI PUSH0 DUP1 REVERT JUMPDEST POP PUSH2 0x247 PUSH1 0x4 DUP1 CALLDATASIZE SUB DUP2 ADD SWAP1 PUSH2 0x242 SWAP2 SWAP1 PUSH2 0x313A JUMP JUMPDEST PUSH2 0x1220 JUMP JUMPDEST PUSH1 0x40 MLOAD PUSH2 0x25D SWAP11 SWAP10 SWAP9 SWAP8 SWAP7 SWAP6 SWAP5 SWAP4 SWAP3 SWAP2 SWAP1 PUSH2 0x317F JUMP JUMPDEST PUSH1 0x40 MLOAD DUP1 SWAP2 SUB SWAP1 RETURN JUMPDEST CALLVALUE DUP1 ISZERO PUSH2 0x271 JUMPI PUSH0 DUP1 REVERT JUMPDEST POP PUSH2 0x27A PUSH2 0x142D JUMP JUMPDEST STOP JUMPDEST CALLVALUE DUP1 ISZERO PUSH2 0x287 JUMPI PUSH0 DUP1 REVERT JUMPDEST POP PUSH2 0x2A2 PUSH1 0x4 DUP1 CALLDATASIZE SUB DUP2 ADD SWAP1 PUSH2 0x29D SWAP2 SWAP1 PUSH2 0x2DE4 JUMP JUMPDEST PUSH2 0x1539 JUMP JUMPDEST PUSH1 0x40 MLOAD PUSH2 0x2AF SWAP2 SWAP1 PUSH2 0x331A JUMP JUMPDEST PUSH1 0x40 MLOAD DUP1 SWAP2 SUB SWAP1 RETURN JUMPDEST CALLVALUE DUP1 ISZERO PUSH2 0x2C3 JUMPI PUSH0 DUP1 REVERT JUMPDEST POP PUSH2 0x2DE PUSH1 0x4 DUP1 CALLDATASIZE SUB DUP2 ADD SWAP1 PUSH2 0x2D9 SWAP2 SWAP1 PUSH2 0x333A JUMP JUMPDEST PUSH2 0x1730 JUMP JUMPDEST PUSH1 0x40 MLOAD PUSH2 0x2EB SWAP2 SWAP1 PUSH2 0x3429 JUMP JUMPDEST PUSH1 0x40 MLOAD DUP1 SWAP2 SUB SWAP1 RETURN JUMPDEST PUSH2 0x30E PUSH1 0x4 DUP1 CALLDATASIZE SUB DUP2 ADD SWAP1 PUSH2 0x309 SWAP2 SWAP1 PUSH2 0x346C JUMP JUMPDEST PUSH2 0x18AD JUMP JUMPDEST STOP JUMPDEST CALLVALUE DUP1 ISZERO PUSH2 0x31B JUMPI PUSH0 DUP1 REVERT JUMPDEST POP PUSH2 0x336 PUSH1 0x4 DUP1 CALLDATASIZE SUB DUP2 ADD SWAP1 PUSH2 0x331 SWAP2 SWAP1 PUSH2 0x313A JUMP JUMPDEST PUSH2 0x1BB5 JUMP JUMPDEST STOP JUMPDEST CALLVALUE DUP1 ISZERO PUSH2 0x343 JUMPI PUSH0 DUP1 REVERT JUMPDEST POP PUSH2 0x34C PUSH2 0x1E6F JUMP JUMPDEST PUSH1 0x40 MLOAD PUSH2 0x359 SWAP2 SWAP1 PUSH2 0x3121 JUMP JUMPDEST PUSH1 0x40 MLOAD DUP1 SWAP2 SUB SWAP1 RETURN JUMPDEST CALLVALUE DUP1 ISZERO PUSH2 0x36D JUMPI PUSH0 DUP1 REVERT JUMPDEST POP PUSH2 0x376 PUSH2 0x1E75 JUMP JUMPDEST PUSH1 0x40 MLOAD PUSH2 0x383 SWAP2 SWAP1 PUSH2 0x3524 JUMP JUMPDEST PUSH1 0x40 MLOAD DUP1 SWAP2 SUB SWAP1 RETURN JUMPDEST CALLVALUE DUP1 ISZERO PUSH2 0x397 JUMPI PUSH0 DUP1 REVERT JUMPDEST POP PUSH2 0x3A0 PUSH2 0x1E98 JUMP JUMPDEST PUSH1 0x40 MLOAD PUSH2 0x3AD SWAP2 SWAP1 PUSH2 0x3121 JUMP JUMPDEST PUSH1 0x40 MLOAD DUP1 SWAP2 SUB SWAP1 RETURN JUMPDEST CALLVALUE DUP1 ISZERO PUSH2 0x3C1 JUMPI PUSH0 DUP1 REVERT JUMPDEST POP PUSH2 0x3CA PUSH2 0x1E9F JUMP JUMPDEST PUSH1 0x40 MLOAD PUSH2 0x3D7 SWAP2 SWAP1 PUSH2 0x3121 JUMP JUMPDEST PUSH1 0x40 MLOAD DUP1 SWAP2 SUB SWAP1 RETURN JUMPDEST CALLVALUE DUP1 ISZERO PUSH2 0x3EB JUMPI PUSH0 DUP1 REVERT JUMPDEST POP PUSH2 0x3F4 PUSH2 0x1EA6 JUMP JUMPDEST PUSH1 0x40 MLOAD PUSH2 0x401 SWAP2 SWAP1 PUSH2 0x3121 JUMP JUMPDEST PUSH1 0x40 MLOAD DUP1 SWAP2 SUB SWAP1 RETURN JUMPDEST CALLVALUE DUP1 ISZERO PUSH2 0x415 JUMPI PUSH0 DUP1 REVERT JUMPDEST POP PUSH2 0x41E PUSH2 0x1EAC JUMP JUMPDEST PUSH1 0x40 MLOAD PUSH2 0x42B SWAP2 SWAP1 PUSH2 0x3121 JUMP JUMPDEST PUSH1 0x40 MLOAD DUP1 SWAP2 SUB SWAP1 RETURN JUMPDEST CALLVALUE DUP1 ISZERO PUSH2 0x43F JUMPI PUSH0 DUP1 REVERT JUMPDEST POP PUSH2 0x448 PUSH2 0x1EB3 JUMP JUMPDEST PUSH1 0x40 MLOAD PUSH2 0x455 SWAP2 SWAP1 PUSH2 0x3121 JUMP JUMPDEST PUSH1 0x40 MLOAD DUP1 SWAP2 SUB SWAP1 RETURN JUMPDEST CALLVALUE DUP1 ISZERO PUSH2 0x469 JUMPI PUSH0 DUP1 REVERT JUMPDEST POP PUSH2 0x484 PUSH1 0x4 DUP1 CALLDATASIZE SUB DUP2 ADD SWAP1 PUSH2 0x47F SWAP2 SWAP1 PUSH2 0x313A JUMP JUMPDEST PUSH2 0x1EB9 JUMP JUMPDEST PUSH1 0x40 MLOAD PUSH2 0x491 SWAP2 SWAP1 PUSH2 0x3631 JUMP JUMPDEST PUSH1 0x40 MLOAD DUP1 SWAP2 SUB SWAP1 RETURN JUMPDEST CALLVALUE DUP1 ISZERO PUSH2 0x4A5 JUMPI PUSH0 DUP1 REVERT JUMPDEST POP PUSH2 0x4C0 PUSH1 0x4 DUP1 CALLDATASIZE SUB DUP2 ADD SWAP1 PUSH2 0x4BB SWAP2 SWAP1 PUSH2 0x3651 JUMP JUMPDEST PUSH2 0x21D6 JUMP JUMPDEST PUSH1 0x40 MLOAD PUSH2 0x4CF SWAP4 SWAP3 SWAP2 SWAP1 PUSH2 0x37E2 JUMP JUMPDEST PUSH1 0x40 MLOAD DUP1 SWAP2 SUB SWAP1 RETURN JUMPDEST CALLVALUE DUP1 ISZERO PUSH2 0x4E3 JUMPI PUSH0 DUP1 REVERT JUMPDEST POP PUSH2 0x4EC PUSH2 0x27E4 JUMP JUMPDEST PUSH1 0x40 MLOAD PUSH2 0x4F9 SWAP2 SWAP1 PUSH2 0x3121 JUMP JUMPDEST PUSH1 0x40 MLOAD DUP1 SWAP2 SUB SWAP1 RETURN JUMPDEST CALLVALUE DUP1 ISZERO PUSH2 0x50D JUMPI PUSH0 DUP1 REVERT JUMPDEST POP PUSH2 0x528 PUSH1 0x4 DUP1 CALLDATASIZE SUB DUP2 ADD SWAP1 PUSH2 0x523 SWAP2 SWAP1 PUSH2 0x2DE4 JUMP JUMPDEST PUSH2 0x27EB JUMP JUMPDEST PUSH1 0x40 MLOAD PUSH2 0x537 SWAP4 SWAP3 SWAP2 SWAP1 PUSH2 0x39BE JUMP JUMPDEST PUSH1 0x40 MLOAD DUP1 SWAP2 SUB SWAP1 RETURN JUMPDEST DUP2 PUSH0 PUSH20 0xFFFFFFFFFFFFFFFFFFFFFFFFFFFFFFFFFFFFFFFF AND PUSH1 0x4 PUSH0 DUP4 DUP2 MSTORE PUSH1 0x20 ADD SWAP1 DUP2 MSTORE PUSH1 0x20 ADD PUSH0 KECCAK256 PUSH1 0x1 ADD PUSH0 SWAP1 SLOAD SWAP1 PUSH2 0x100 EXP SWAP1 DIV PUSH20 0xFFFFFFFFFFFFFFFFFFFFFFFFFFFFFFFFFFFFFFFF AND PUSH20 0xFFFFFFFFFFFFFFFFFFFFFFFFFFFFFFFFFFFFFFFF AND SUB PUSH2 0x5E2 JUMPI PUSH1 0x40 MLOAD PUSH32 0x8C379A000000000000000000000000000000000000000000000000000000000 DUP2 MSTORE PUSH1 0x4 ADD PUSH2 0x5D9 SWAP1 PUSH2 0x3A44 JUMP JUMPDEST PUSH1 0x40 MLOAD DUP1 SWAP2 SUB SWAP1 REVERT JUMPDEST DUP3 PUSH1 0x4 PUSH0 DUP3 DUP2 MSTORE PUSH1 0x20 ADD SWAP1 DUP2 MSTORE PUSH1 0x20 ADD PUSH0 KECCAK256 PUSH1 0x8 ADD PUSH0 SWAP1 SLOAD SWAP1 PUSH2 0x100 EXP SWAP1 DIV PUSH1 0xFF AND ISZERO PUSH2 0x644 JUMPI PUSH1 0x40 MLOAD PUSH32 0x8C379A000000000000000000000000000000000000000000000000000000000 DUP2 MSTORE PUSH1 0x4 ADD PUSH2 0x63B SWAP1 PUSH2 0x3AAC JUMP JUMPDEST PUSH1 0x40 MLOAD DUP1 SWAP2 SUB SWAP1 REVERT JUMPDEST PUSH0 PUSH1 0x4 PUSH0 DUP7 DUP2 MSTORE PUSH1 0x20 ADD SWAP1 DUP2 MSTORE PUSH1 0x20 ADD PUSH0 KECCAK256 SWAP1 POP DUP1 PUSH1 0x1 ADD PUSH0 SWAP1 SLOAD SWAP1 PUSH2 0x100 EXP SWAP1 DIV PUSH20 0xFFFFFFFFFFFFFFFFFFFFFFFFFFFFFFFFFFFFFFFF AND PUSH20 0xFFFFFFFFFFFFFFFFFFFFFFFFFFFFFFFFFFFFFFFF AND CALLER PUSH20 0xFFFFFFFFFFFFFFFFFFFFFFFFFFFFFFFFFFFFFFFF AND EQ PUSH2 0x6E9 JUMPI PUSH1 0x40 MLOAD PUSH32 0x8C379A000000000000000000000000000000000000000000000000000000000 DUP2 MSTORE PUSH1 0x4 ADD PUSH2 0x6E0 SWAP1 PUSH2 0x3B14 JUMP JUMPDEST PUSH1 0x40 MLOAD DUP1 SWAP2 SUB SWAP1 REVERT JUMPDEST PUSH1 0x1 DUP2 PUSH1 0x8 ADD PUSH0 PUSH2 0x100 EXP DUP2 SLOAD DUP2 PUSH1 0xFF MUL NOT AND SWAP1 DUP4 ISZERO ISZERO MUL OR SWAP1 SSTORE POP DUP4 DUP2 PUSH1 0x9 ADD DUP2 SWAP1 SSTORE POP PUSH32 0x99FE2C8ABD13B610E7F7D4A51A49E1391BA19454B72305176B884D66010E475A DUP6 DUP6 PUSH1 0x40 MLOAD PUSH2 0x73F SWAP3 SWAP2 SWAP1 PUSH2 0x3B32 JUMP JUMPDEST PUSH1 0x40 MLOAD DUP1 SWAP2 SUB SWAP1 LOG1 POP POP POP POP POP JUMP JUMPDEST DUP2 PUSH0 PUSH20 0xFFFFFFFFFFFFFFFFFFFFFFFFFFFFFFFFFFFFFFFF AND PUSH1 0x4 PUSH0 DUP4 DUP2 MSTORE PUSH1 0x20 ADD SWAP1 DUP2 MSTORE PUSH1 0x20 ADD PUSH0 KECCAK256 PUSH1 0x1 ADD PUSH0 SWAP1 SLOAD SWAP1 PUSH2 0x100 EXP SWAP1 DIV PUSH20 0xFFFFFFFFFFFFFFFFFFFFFFFFFFFFFFFFFFFFFFFF AND PUSH20 0xFFFFFFFFFFFFFFFFFFFFFFFFFFFFFFFFFFFFFFFF AND SUB PUSH2 0x7F0 JUMPI PUSH1 0x40 MLOAD PUSH32 0x8C379A000000000000000000000000000000000000000000000000000000000 DUP2 MSTORE PUSH1 0x4 ADD PUSH2 0x7E7 SWAP1 PUSH2 0x3A44 JUMP JUMPDEST PUSH1 0x40 MLOAD DUP1 SWAP2 SUB SWAP1 REVERT JUMPDEST DUP3 PUSH1 0x4 PUSH0 DUP3 DUP2 MSTORE PUSH1 0x20 ADD SWAP1 DUP2 MSTORE PUSH1 0x20 ADD PUSH0 KECCAK256 PUSH1 0x8 ADD PUSH0 SWAP1 SLOAD SWAP1 PUSH2 0x100 EXP SWAP1 DIV PUSH1 0xFF AND ISZERO PUSH2 0x852 JUMPI PUSH1 0x40 MLOAD PUSH32 0x8C379A000000000000000000000000000000000000000000000000000000000 DUP2 MSTORE PUSH1 0x4 ADD PUSH2 0x849 SWAP1 PUSH2 0x3AAC JUMP JUMPDEST PUSH1 0x40 MLOAD DUP1 SWAP2 SUB SWAP1 REVERT JUMPDEST PUSH0 PUSH1 0x4 PUSH0 DUP7 DUP2 MSTORE PUSH1 0x20 ADD SWAP1 DUP2 MSTORE PUSH1 0x20 ADD PUSH0 KECCAK256 PUSH1 0x40 MLOAD DUP1 PUSH2 0x140 ADD PUSH1 0x40 MSTORE SWAP1 DUP2 PUSH0 DUP3 ADD SLOAD DUP2 MSTORE PUSH1 0x20 ADD PUSH1 0x1 DUP3 ADD PUSH0 SWAP1 SLOAD SWAP1 PUSH2 0x100 EXP SWAP1 DIV PUSH20 0xFFFFFFFFFFFFFFFFFFFFFFFFFFFFFFFFFFFFFFFF AND PUSH20 0xFFFFFFFFFFFFFFFFFFFFFFFFFFFFFFFFFFFFFFFF AND PUSH20 0xFFFFFFFFFFFFFFFFFFFFFFFFFFFFFFFFFFFFFFFF AND DUP2 MSTORE PUSH1 0x20 ADD PUSH1 0x2 DUP3 ADD DUP1 SLOAD PUSH2 0x8DE SWAP1 PUSH2 0x3B86 JUMP JUMPDEST DUP1 PUSH1 0x1F ADD PUSH1 0x20 DUP1 SWAP2 DIV MUL PUSH1 0x20 ADD PUSH1 0x40 MLOAD SWAP1 DUP2 ADD PUSH1 0x40 MSTORE DUP1 SWAP3 SWAP2 SWAP1 DUP2 DUP2 MSTORE PUSH1 0x20 ADD DUP3 DUP1 SLOAD PUSH2 0x90A SWAP1 PUSH2 0x3B86 JUMP JUMPDEST DUP1 ISZERO PUSH2 0x955 JUMPI DUP1 PUSH1 0x1F LT PUSH2 0x92C JUMPI PUSH2 0x100 DUP1 DUP4 SLOAD DIV MUL DUP4 MSTORE SWAP2 PUSH1 0x20 ADD SWAP2 PUSH2 0x955 JUMP JUMPDEST DUP3 ADD SWAP2 SWAP1 PUSH0 MSTORE PUSH1 0x20 PUSH0 KECCAK256 SWAP1 JUMPDEST DUP2 SLOAD DUP2 MSTORE SWAP1 PUSH1 0x1 ADD SWAP1 PUSH1 0x20 ADD DUP1 DUP4 GT PUSH2 0x938 JUMPI DUP3 SWAP1 SUB PUSH1 0x1F AND DUP3 ADD SWAP2 JUMPDEST POP POP POP POP POP DUP2 MSTORE PUSH1 0x20 ADD PUSH1 0x3 DUP3 ADD DUP1 SLOAD PUSH2 0x96E SWAP1 PUSH2 0x3B86 JUMP JUMPDEST DUP1 PUSH1 0x1F ADD PUSH1 0x20 DUP1 SWAP2 DIV MUL PUSH1 0x20 ADD PUSH1 0x40 MLOAD SWAP1 DUP2 ADD PUSH1 0x40 MSTORE DUP1 SWAP3 SWAP2 SWAP1 DUP2 DUP2 MSTORE PUSH1 0x20 ADD DUP3 DUP1 SLOAD PUSH2 0x99A SWAP1 PUSH2 0x3B86 JUMP JUMPDEST DUP1 ISZERO PUSH2 0x9E5 JUMPI DUP1 PUSH1 0x1F LT PUSH2 0x9BC JUMPI PUSH2 0x100 DUP1 DUP4 SLOAD DIV MUL DUP4 MSTORE SWAP2 PUSH1 0x20 ADD SWAP2 PUSH2 0x9E5 JUMP JUMPDEST DUP3 ADD SWAP2 SWAP1 PUSH0 MSTORE PUSH1 0x20 PUSH0 KECCAK256 SWAP1 JUMPDEST DUP2 SLOAD DUP2 MSTORE SWAP1 PUSH1 0x1 ADD SWAP1 PUSH1 0x20 ADD DUP1 DUP4 GT PUSH2 0x9C8 JUMPI DUP3 SWAP1 SUB PUSH1 0x1F AND DUP3 ADD SWAP2 JUMPDEST POP POP POP POP POP DUP2 MSTORE PUSH1 0x20 ADD PUSH1 0x4 DUP3 ADD DUP1 SLOAD PUSH2 0x9FE SWAP1 PUSH2 0x3B86 JUMP JUMPDEST DUP1 PUSH1 0x1F ADD PUSH1 0x20 DUP1 SWAP2 DIV MUL PUSH1 0x20 ADD PUSH1 0x40 MLOAD SWAP1 DUP2 ADD PUSH1 0x40 MSTORE DUP1 SWAP3 SWAP2 SWAP1 DUP2 DUP2 MSTORE PUSH1 0x20 ADD DUP3 DUP1 SLOAD PUSH2 0xA2A SWAP1 PUSH2 0x3B86 JUMP JUMPDEST DUP1 ISZERO PUSH2 0xA75 JUMPI DUP1 PUSH1 0x1F LT PUSH2 0xA4C JUMPI PUSH2 0x100 DUP1 DUP4 SLOAD DIV MUL DUP4 MSTORE SWAP2 PUSH1 0x20 ADD SWAP2 PUSH2 0xA75 JUMP JUMPDEST DUP3 ADD SWAP2 SWAP1 PUSH0 MSTORE PUSH1 0x20 PUSH0 KECCAK256 SWAP1 JUMPDEST DUP2 SLOAD DUP2 MSTORE SWAP1 PUSH1 0x1 ADD SWAP1 PUSH1 0x20 ADD DUP1 DUP4 GT PUSH2 0xA58 JUMPI DUP3 SWAP1 SUB PUSH1 0x1F AND DUP3 ADD SWAP2 JUMPDEST POP POP POP POP POP DUP2 MSTORE PUSH1 0x20 ADD PUSH1 0x5 DUP3 ADD SLOAD DUP2 MSTORE PUSH1 0x20 ADD PUSH1 0x6 DUP3 ADD SLOAD DUP2 MSTORE PUSH1 0x20 ADD PUSH1 0x7 DUP3 ADD SLOAD DUP2 MSTORE PUSH1 0x20 ADD PUSH1 0x8 DUP3 ADD PUSH0 SWAP1 SLOAD SWAP1 PUSH2 0x100 EXP SWAP1 DIV PUSH1 0xFF AND ISZERO ISZERO ISZERO ISZERO DUP2 MSTORE PUSH1 0x20 ADD PUSH1 0x9 DUP3 ADD SLOAD DUP2 MSTORE POP POP SWAP1 POP DUP1 PUSH1 0xE0 ADD MLOAD TIMESTAMP GT ISZERO PUSH2 0xB09 JUMPI PUSH1 0x40 MLOAD PUSH32 0x8C379A000000000000000000000000000000000000000000000000000000000 DUP2 MSTORE PUSH1 0x4 ADD PUSH2 0xB00 SWAP1 PUSH2 0x3C00 JUMP JUMPDEST PUSH1 0x40 MLOAD DUP1 SWAP2 SUB SWAP1 REVERT JUMPDEST PUSH0 PUSH1 0x3 PUSH0 DUP2 SLOAD DUP1 SWAP3 SWAP2 SWAP1 PUSH2 0xB1C SWAP1 PUSH2 0x3C4B JUMP JUMPDEST SWAP2 SWAP1 POP SSTORE SWAP1 POP PUSH1 0x40 MLOAD DUP1 PUSH1 0xC0 ADD PUSH1 0x40 MSTORE DUP1 DUP3 DUP2 MSTORE PUSH1 0x20 ADD CALLER PUSH20 0xFFFFFFFFFFFFFFFFFFFFFFFFFFFFFFFFFFFFFFFF AND DUP2 MSTORE PUSH1 0x20 ADD DUP7 DUP2 MSTORE PUSH1 0x20 ADD PUSH0 DUP2 MSTORE PUSH1 0x20 ADD PUSH0 DUP2 MSTORE PUSH1 0x20 ADD TIMESTAMP DUP2 MSTORE POP PUSH1 0x5 PUSH0 DUP9 DUP2 MSTORE PUSH1 0x20 ADD SWAP1 DUP2 MSTORE PUSH1 0x20 ADD PUSH0 KECCAK256 PUSH0 DUP4 DUP2 MSTORE PUSH1 0x20 ADD SWAP1 DUP2 MSTORE PUSH1 0x20 ADD PUSH0 KECCAK256 PUSH0 DUP3 ADD MLOAD DUP2 PUSH0 ADD SSTORE PUSH1 0x20 DUP3 ADD MLOAD DUP2 PUSH1 0x1 ADD PUSH0 PUSH2 0x100 EXP DUP2 SLOAD DUP2 PUSH20 0xFFFFFFFFFFFFFFFFFFFFFFFFFFFFFFFFFFFFFFFF MUL NOT AND SWAP1 DUP4 PUSH20 0xFFFFFFFFFFFFFFFFFFFFFFFFFFFFFFFFFFFFFFFF AND MUL OR SWAP1 SSTORE POP PUSH1 0x40 DUP3 ADD MLOAD DUP2 PUSH1 0x2 ADD SWAP1 DUP2 PUSH2 0xBE8 SWAP2 SWAP1 PUSH2 0x3E2F JUMP JUMPDEST POP PUSH1 0x60 DUP3 ADD MLOAD DUP2 PUSH1 0x3 ADD SSTORE PUSH1 0x80 DUP3 ADD MLOAD DUP2 PUSH1 0x4 ADD SSTORE PUSH1 0xA0 DUP3 ADD MLOAD DUP2 PUSH1 0x5 ADD SSTORE SWAP1 POP POP CALLER PUSH20 0xFFFFFFFFFFFFFFFFFFFFFFFFFFFFFFFFFFFFFFFF AND PUSH32 0x1B72A809869907CAC4C4E55B8BF6920FF492D2FF53307BB77BA492366B61387C DUP8 DUP4 DUP9 PUSH1 0x40 MLOAD PUSH2 0xC54 SWAP4 SWAP3 SWAP2 SWAP1 PUSH2 0x3EFE JUMP JUMPDEST PUSH1 0x40 MLOAD DUP1 SWAP2 SUB SWAP1 LOG2 POP POP POP POP POP POP JUMP JUMPDEST PUSH1 0x5 PUSH1 0x20 MSTORE DUP2 PUSH0 MSTORE PUSH1 0x40 PUSH0 KECCAK256 PUSH1 0x20 MSTORE DUP1 PUSH0 MSTORE PUSH1 0x40 PUSH0 KECCAK256 PUSH0 SWAP2 POP SWAP2 POP POP DUP1 PUSH0 ADD SLOAD SWAP1 DUP1 PUSH1 0x1 ADD PUSH0 SWAP1 SLOAD SWAP1 PUSH2 0x100 EXP SWAP1 DIV PUSH20 0xFFFFFFFFFFFFFFFFFFFFFFFFFFFFFFFFFFFFFFFF AND SWAP1 DUP1 PUSH1 0x2 ADD DUP1 SLOAD PUSH2 0xCB9 SWAP1 PUSH2 0x3B86 JUMP JUMPDEST DUP1 PUSH1 0x1F ADD PUSH1 0x20 DUP1 SWAP2 DIV MUL PUSH1 0x20 ADD PUSH1 0x40 MLOAD SWAP1 DUP2 ADD PUSH1 0x40 MSTORE DUP1 SWAP3 SWAP2 SWAP1 DUP2 DUP2 MSTORE PUSH1 0x20 ADD DUP3 DUP1 SLOAD PUSH2 0xCE5 SWAP1 PUSH2 0x3B86 JUMP JUMPDEST DUP1 ISZERO PUSH2 0xD30 JUMPI DUP1 PUSH1 0x1F LT PUSH2 0xD07 JUMPI PUSH2 0x100 DUP1 DUP4 SLOAD DIV MUL DUP4 MSTORE SWAP2 PUSH1 0x20 ADD SWAP2 PUSH2 0xD30 JUMP JUMPDEST DUP3 ADD SWAP2 SWAP1 PUSH0 MSTORE PUSH1 0x20 PUSH0 KECCAK256 SWAP1 JUMPDEST DUP2 SLOAD DUP2 MSTORE SWAP1 PUSH1 0x1 ADD SWAP1 PUSH1 0x20 ADD DUP1 DUP4 GT PUSH2 0xD13 JUMPI DUP3 SWAP1 SUB PUSH1 0x1F AND DUP3 ADD SWAP2 JUMPDEST POP POP POP POP POP SWAP1 DUP1 PUSH1 0x3 ADD SLOAD SWAP1 DUP1 PUSH1 0x4 ADD SLOAD SWAP1 DUP1 PUSH1 0x5 ADD SLOAD SWAP1 POP DUP7 JUMP JUMPDEST DUP2 PUSH0 PUSH20 0xFFFFFFFFFFFFFFFFFFFFFFFFFFFFFFFFFFFFFFFF AND PUSH1 0x4 PUSH0 DUP4 DUP2 MSTORE PUSH1 0x20 ADD SWAP1 DUP2 MSTORE PUSH1 0x20 ADD PUSH0 KECCAK256 PUSH1 0x1 ADD PUSH0 SWAP1 SLOAD SWAP1 PUSH2 0x100 EXP SWAP1 DIV PUSH20 0xFFFFFFFFFFFFFFFFFFFFFFFFFFFFFFFFFFFFFFFF AND PUSH20 0xFFFFFFFFFFFFFFFFFFFFFFFFFFFFFFFFFFFFFFFF AND SUB PUSH2 0xDEE JUMPI PUSH1 0x40 MLOAD PUSH32 0x8C379A000000000000000000000000000000000000000000000000000000000 DUP2 MSTORE PUSH1 0x4 ADD PUSH2 0xDE5 SWAP1 PUSH2 0x3A44 JUMP JUMPDEST PUSH1 0x40 MLOAD DUP1 SWAP2 SUB SWAP1 REVERT JUMPDEST DUP3 PUSH1 0x4 PUSH0 DUP3 DUP2 MSTORE PUSH1 0x20 ADD SWAP1 DUP2 MSTORE PUSH1 0x20 ADD PUSH0 KECCAK256 PUSH1 0x8 ADD PUSH0 SWAP1 SLOAD SWAP1 PUSH2 0x100 EXP SWAP1 DIV PUSH1 0xFF AND ISZERO PUSH2 0xE50 JUMPI PUSH1 0x40 MLOAD PUSH32 0x8C379A000000000000000000000000000000000000000000000000000000000 DUP2 MSTORE PUSH1 0x4 ADD PUSH2 0xE47 SWAP1 PUSH2 0x3AAC JUMP JUMPDEST PUSH1 0x40 MLOAD DUP1 SWAP2 SUB SWAP1 REVERT JUMPDEST PUSH0 PUSH1 0x4 PUSH0 DUP7 DUP2 MSTORE PUSH1 0x20 ADD SWAP1 DUP2 MSTORE PUSH1 0x20 ADD PUSH0 KECCAK256 PUSH1 0x40 MLOAD DUP1 PUSH2 0x140 ADD PUSH1 0x40 MSTORE SWAP1 DUP2 PUSH0 DUP3 ADD SLOAD DUP2 MSTORE PUSH1 0x20 ADD PUSH1 0x1 DUP3 ADD PUSH0 SWAP1 SLOAD SWAP1 PUSH2 0x100 EXP SWAP1 DIV PUSH20 0xFFFFFFFFFFFFFFFFFFFFFFFFFFFFFFFFFFFFFFFF AND PUSH20 0xFFFFFFFFFFFFFFFFFFFFFFFFFFFFFFFFFFFFFFFF AND PUSH20 0xFFFFFFFFFFFFFFFFFFFFFFFFFFFFFFFFFFFFFFFF AND DUP2 MSTORE PUSH1 0x20 ADD PUSH1 0x2 DUP3 ADD DUP1 SLOAD PUSH2 0xEDC SWAP1 PUSH2 0x3B86 JUMP JUMPDEST DUP1 PUSH1 0x1F ADD PUSH1 0x20 DUP1 SWAP2 DIV MUL PUSH1 0x20 ADD PUSH1 0x40 MLOAD SWAP1 DUP2 ADD PUSH1 0x40 MSTORE DUP1 SWAP3 SWAP2 SWAP1 DUP2 DUP2 MSTORE PUSH1 0x20 ADD DUP3 DUP1 SLOAD PUSH2 0xF08 SWAP1 PUSH2 0x3B86 JUMP JUMPDEST DUP1 ISZERO PUSH2 0xF53 JUMPI DUP1 PUSH1 0x1F LT PUSH2 0xF2A JUMPI PUSH2 0x100 DUP1 DUP4 SLOAD DIV MUL DUP4 MSTORE SWAP2 PUSH1 0x20 ADD SWAP2 PUSH2 0xF53 JUMP JUMPDEST DUP3 ADD SWAP2 SWAP1 PUSH0 MSTORE PUSH1 0x20 PUSH0 KECCAK256 SWAP1 JUMPDEST DUP2 SLOAD DUP2 MSTORE SWAP1 PUSH1 0x1 ADD SWAP1 PUSH1 0x20 ADD DUP1 DUP4 GT PUSH2 0xF36 JUMPI DUP3 SWAP1 SUB PUSH1 0x1F AND DUP3 ADD SWAP2 JUMPDEST POP POP POP POP POP DUP2 MSTORE PUSH1 0x20 ADD PUSH1 0x3 DUP3 ADD DUP1 SLOAD PUSH2 0xF6C SWAP1 PUSH2 0x3B86 JUMP JUMPDEST DUP1 PUSH1 0x1F ADD PUSH1 0x20 DUP1 SWAP2 DIV MUL PUSH1 0x20 ADD PUSH1 0x40 MLOAD SWAP1 DUP2 ADD PUSH1 0x40 MSTORE DUP1 SWAP3 SWAP2 SWAP1 DUP2 DUP2 MSTORE PUSH1 0x20 ADD DUP3 DUP1 SLOAD PUSH2 0xF98 SWAP1 PUSH2 0x3B86 JUMP JUMPDEST DUP1 ISZERO PUSH2 0xFE3 JUMPI DUP1 PUSH1 0x1F LT PUSH2 0xFBA JUMPI PUSH2 0x100 DUP1 DUP4 SLOAD DIV MUL DUP4 MSTORE SWAP2 PUSH1 0x20 ADD SWAP2 PUSH2 0xFE3 JUMP JUMPDEST DUP3 ADD SWAP2 SWAP1 PUSH0 MSTORE PUSH1 0x20 PUSH0 KECCAK256 SWAP1 JUMPDEST DUP2 SLOAD DUP2 MSTORE SWAP1 PUSH1 0x1 ADD SWAP1 PUSH1 0x20 ADD DUP1 DUP4 GT PUSH2 0xFC6 JUMPI DUP3 SWAP1 SUB PUSH1 0x1F AND DUP3 ADD SWAP2 JUMPDEST POP POP POP POP POP DUP2 MSTORE PUSH1 0x20 ADD PUSH1 0x4 DUP3 ADD DUP1 SLOAD PUSH2 0xFFC SWAP1 PUSH2 0x3B86 JUMP JUMPDEST DUP1 PUSH1 0x1F ADD PUSH1 0x20 DUP1 SWAP2 DIV MUL PUSH1 0x20 ADD PUSH1 0x40 MLOAD SWAP1 DUP2 ADD PUSH1 0x40 MSTORE DUP1 SWAP3 SWAP2 SWAP1 DUP2 DUP2 MSTORE PUSH1 0x20 ADD DUP3 DUP1 SLOAD PUSH2 0x1028 SWAP1 PUSH2 0x3B86 JUMP JUMPDEST DUP1 ISZERO PUSH2 0x1073 JUMPI DUP1 PUSH1 0x1F LT PUSH2 0x104A JUMPI PUSH2 0x100 DUP1 DUP4 SLOAD DIV MUL DUP4 MSTORE SWAP2 PUSH1 0x20 ADD SWAP2 PUSH2 0x1073 JUMP JUMPDEST DUP3 ADD SWAP2 SWAP1 PUSH0 MSTORE PUSH1 0x20 PUSH0 KECCAK256 SWAP1 JUMPDEST DUP2 SLOAD DUP2 MSTORE SWAP1 PUSH1 0x1 ADD SWAP1 PUSH1 0x20 ADD DUP1 DUP4 GT PUSH2 0x1056 JUMPI DUP3 SWAP1 SUB PUSH1 0x1F AND DUP3 ADD SWAP2 JUMPDEST POP POP POP POP POP DUP2 MSTORE PUSH1 0x20 ADD PUSH1 0x5 DUP3 ADD SLOAD DUP2 MSTORE PUSH1 0x20 ADD PUSH1 0x6 DUP3 ADD SLOAD DUP2 MSTORE PUSH1 0x20 ADD PUSH1 0x7 DUP3 ADD SLOAD DUP2 MSTORE PUSH1 0x20 ADD PUSH1 0x8 DUP3 ADD PUSH0 SWAP1 SLOAD SWAP1 PUSH2 0x100 EXP SWAP1 DIV PUSH1 0xFF AND ISZERO ISZERO ISZERO ISZERO DUP2 MSTORE PUSH1 0x20 ADD PUSH1 0x9 DUP3 ADD SLOAD DUP2 MSTORE POP POP SWAP1 POP DUP1 PUSH1 0xE0 ADD MLOAD TIMESTAMP GT ISZERO PUSH2 0x1107 JUMPI PUSH1 0x40 MLOAD PUSH32 0x8C379A000000000000000000000000000000000000000000000000000000000 DUP2 MSTORE PUSH1 0x4 ADD PUSH2 0x10FE SWAP1 PUSH2 0x3F84 JUMP JUMPDEST PUSH1 0x40 MLOAD DUP1 SWAP2 SUB SWAP1 REVERT JUMPDEST PUSH1 0x1 SLOAD CALLVALUE EQ PUSH2 0x114B JUMPI PUSH1 0x40 MLOAD PUSH32 0x8C379A000000000000000000000000000000000000000000000000000000000 DUP2 MSTORE PUSH1 0x4 ADD PUSH2 0x1142 SWAP1 PUSH2 0x3FEC JUMP JUMPDEST PUSH1 0x40 MLOAD DUP1 SWAP2 SUB SWAP1 REVERT JUMPDEST PUSH0 PUSH1 0x5 PUSH0 DUP8 DUP2 MSTORE PUSH1 0x20 ADD SWAP1 DUP2 MSTORE PUSH1 0x20 ADD PUSH0 KECCAK256 PUSH0 DUP7 DUP2 MSTORE PUSH1 0x20 ADD SWAP1 DUP2 MSTORE PUSH1 0x20 ADD PUSH0 KECCAK256 SWAP1 POP PUSH1 0x1 DUP2 PUSH1 0x3 ADD PUSH0 DUP3 DUP3 SLOAD PUSH2 0x1182 SWAP2 SWAP1 PUSH2 0x400A JUMP JUMPDEST SWAP3 POP POP DUP2 SWAP1 SSTORE POP CALLVALUE PUSH1 0x4 PUSH0 DUP9 DUP2 MSTORE PUSH1 0x20 ADD SWAP1 DUP2 MSTORE PUSH1 0x20 ADD PUSH0 KECCAK256 PUSH1 0x5 ADD PUSH0 DUP3 DUP3 SLOAD PUSH2 0x11AC SWAP2 SWAP1 PUSH2 0x400A JUMP JUMPDEST SWAP3 POP POP DUP2 SWAP1 SSTORE POP CALLER PUSH20 0xFFFFFFFFFFFFFFFFFFFFFFFFFFFFFFFFFFFFFFFF AND PUSH32 0xD91ECAFCCF238642DCCD41161308B3EEBE62A12BC5819DAF5164780C221EC95B DUP8 DUP8 PUSH1 0x40 MLOAD PUSH2 0x11FB SWAP3 SWAP2 SWAP1 PUSH2 0x3B32 JUMP JUMPDEST PUSH1 0x40 MLOAD DUP1 SWAP2 SUB SWAP1 LOG2 POP POP POP POP POP POP JUMP JUMPDEST PUSH1 0x6 PUSH1 0x20 MSTORE DUP1 PUSH0 MSTORE PUSH1 0x40 PUSH0 KECCAK256 PUSH0 SWAP2 POP SWAP1 POP SLOAD DUP2 JUMP JUMPDEST PUSH1 0x4 PUSH1 0x20 MSTORE DUP1 PUSH0 MSTORE PUSH1 0x40 PUSH0 KECCAK256 PUSH0 SWAP2 POP SWAP1 POP DUP1 PUSH0 ADD SLOAD SWAP1 DUP1 PUSH1 0x1 ADD PUSH0 SWAP1 SLOAD SWAP1 PUSH2 0x100 EXP SWAP1 DIV PUSH20 0xFFFFFFFFFFFFFFFFFFFFFFFFFFFFFFFFFFFFFFFF AND SWAP1 DUP1 PUSH1 0x2 ADD DUP1 SLOAD PUSH2 0x126A SWAP1 PUSH2 0x3B86 JUMP JUMPDEST DUP1 PUSH1 0x1F ADD PUSH1 0x20 DUP1 SWAP2 DIV MUL PUSH1 0x20 ADD PUSH1 0x40 MLOAD SWAP1 DUP2 ADD PUSH1 0x40 MSTORE DUP1 SWAP3 SWAP2 SWAP1 DUP2 DUP2 MSTORE PUSH1 0x20 ADD DUP3 DUP1 SLOAD PUSH2 0x1296 SWAP1 PUSH2 0x3B86 JUMP JUMPDEST DUP1 ISZERO PUSH2 0x12E1 JUMPI DUP1 PUSH1 0x1F LT PUSH2 0x12B8 JUMPI PUSH2 0x100 DUP1 DUP4 SLOAD DIV MUL DUP4 MSTORE SWAP2 PUSH1 0x20 ADD SWAP2 PUSH2 0x12E1 JUMP JUMPDEST DUP3 ADD SWAP2 SWAP1 PUSH0 MSTORE PUSH1 0x20 PUSH0 KECCAK256 SWAP1 JUMPDEST DUP2 SLOAD DUP2 MSTORE SWAP1 PUSH1 0x1 ADD SWAP1 PUSH1 0x20 ADD DUP1 DUP4 GT PUSH2 0x12C4 JUMPI DUP3 SWAP1 SUB PUSH1 0x1F AND DUP3 ADD SWAP2 JUMPDEST POP POP POP POP POP SWAP1 DUP1 PUSH1 0x3 ADD DUP1 SLOAD PUSH2 0x12F6 SWAP1 PUSH2 0x3B86 JUMP JUMPDEST DUP1 PUSH1 0x1F ADD PUSH1 0x20 DUP1 SWAP2 DIV MUL PUSH1 0x20 ADD PUSH1 0x40 MLOAD SWAP1 DUP2 ADD PUSH1 0x40 MSTORE DUP1 SWAP3 SWAP2 SWAP1 DUP2 DUP2 MSTORE PUSH1 0x20 ADD DUP3 DUP1 SLOAD PUSH2 0x1322 SWAP1 PUSH2 0x3B86 JUMP JUMPDEST DUP1 ISZERO PUSH2 0x136D JUMPI DUP1 PUSH1 0x1F LT PUSH2 0x1344 JUMPI PUSH2 0x100 DUP1 DUP4 SLOAD DIV MUL DUP4 MSTORE SWAP2 PUSH1 0x20 ADD SWAP2 PUSH2 0x136D JUMP JUMPDEST DUP3 ADD SWAP2 SWAP1 PUSH0 MSTORE PUSH1 0x20 PUSH0 KECCAK256 SWAP1 JUMPDEST DUP2 SLOAD DUP2 MSTORE SWAP1 PUSH1 0x1 ADD SWAP1 PUSH1 0x20 ADD DUP1 DUP4 GT PUSH2 0x1350 JUMPI DUP3 SWAP1 SUB PUSH1 0x1F AND DUP3 ADD SWAP2 JUMPDEST POP POP POP POP POP SWAP1 DUP1 PUSH1 0x4 ADD DUP1 SLOAD PUSH2 0x1382 SWAP1 PUSH2 0x3B86 JUMP JUMPDEST DUP1 PUSH1 0x1F ADD PUSH1 0x20 DUP1 SWAP2 DIV MUL PUSH1 0x20 ADD PUSH1 0x40 MLOAD SWAP1 DUP2 ADD PUSH1 0x40 MSTORE DUP1 SWAP3 SWAP2 SWAP1 DUP2 DUP2 MSTORE PUSH1 0x20 ADD DUP3 DUP1 SLOAD PUSH2 0x13AE SWAP1 PUSH2 0x3B86 JUMP JUMPDEST DUP1 ISZERO PUSH2 0x13F9 JUMPI DUP1 PUSH1 0x1F LT PUSH2 0x13D0 JUMPI PUSH2 0x100 DUP1 DUP4 SLOAD DIV MUL DUP4 MSTORE SWAP2 PUSH1 0x20 ADD SWAP2 PUSH2 0x13F9 JUMP JUMPDEST DUP3 ADD SWAP2 SWAP1 PUSH0 MSTORE PUSH1 0x20 PUSH0 KECCAK256 SWAP1 JUMPDEST DUP2 SLOAD DUP2 MSTORE SWAP1 PUSH1 0x1 ADD SWAP1 PUSH1 0x20 ADD DUP1 DUP4 GT PUSH2 0x13DC JUMPI DUP3 SWAP1 SUB PUSH1 0x1F AND DUP3 ADD SWAP2 JUMPDEST POP POP POP POP POP SWAP1 DUP1 PUSH1 0x5 ADD SLOAD SWAP1 DUP1 PUSH1 0x6 ADD SLOAD SWAP1 DUP1 PUSH1 0x7 ADD SLOAD SWAP1 DUP1 PUSH1 0x8 ADD PUSH0 SWAP1 SLOAD SWAP1 PUSH2 0x100 EXP SWAP1 DIV PUSH1 0xFF AND SWAP1 DUP1 PUSH1 0x9 ADD SLOAD SWAP1 POP DUP11 JUMP JUMPDEST PUSH0 PUSH1 0x6 PUSH0 CALLER PUSH20 0xFFFFFFFFFFFFFFFFFFFFFFFFFFFFFFFFFFFFFFFF AND PUSH20 0xFFFFFFFFFFFFFFFFFFFFFFFFFFFFFFFFFFFFFFFF AND DUP2 MSTORE PUSH1 0x20 ADD SWAP1 DUP2 MSTORE PUSH1 0x20 ADD PUSH0 KECCAK256 SLOAD SWAP1 POP PUSH0 DUP2 GT PUSH2 0x14B0 JUMPI PUSH1 0x40 MLOAD PUSH32 0x8C379A000000000000000000000000000000000000000000000000000000000 DUP2 MSTORE PUSH1 0x4 ADD PUSH2 0x14A7 SWAP1 PUSH2 0x4087 JUMP JUMPDEST PUSH1 0x40 MLOAD DUP1 SWAP2 SUB SWAP1 REVERT JUMPDEST PUSH0 PUSH1 0x6 PUSH0 CALLER PUSH20 0xFFFFFFFFFFFFFFFFFFFFFFFFFFFFFFFFFFFFFFFF AND PUSH20 0xFFFFFFFFFFFFFFFFFFFFFFFFFFFFFFFFFFFFFFFF AND DUP2 MSTORE PUSH1 0x20 ADD SWAP1 DUP2 MSTORE PUSH1 0x20 ADD PUSH0 KECCAK256 DUP2 SWAP1 SSTORE POP CALLER PUSH20 0xFFFFFFFFFFFFFFFFFFFFFFFFFFFFFFFFFFFFFFFF AND PUSH2 0x8FC DUP3 SWAP1 DUP2 ISZERO MUL SWAP1 PUSH1 0x40 MLOAD PUSH0 PUSH1 0x40 MLOAD DUP1 DUP4 SUB DUP2 DUP6 DUP9 DUP9 CALL SWAP4 POP POP POP POP ISZERO DUP1 ISZERO PUSH2 0x1535 JUMPI RETURNDATASIZE PUSH0 DUP1 RETURNDATACOPY RETURNDATASIZE PUSH0 REVERT JUMPDEST POP POP JUMP JUMPDEST PUSH2 0x1541 PUSH2 0x2CF5 JUMP JUMPDEST PUSH0 PUSH20 0xFFFFFFFFFFFFFFFFFFFFFFFFFFFFFFFFFFFFFFFF AND PUSH1 0x5 PUSH0 DUP6 DUP2 MSTORE PUSH1 0x20 ADD SWAP1 DUP2 MSTORE PUSH1 0x20 ADD PUSH0 KECCAK256 PUSH0 DUP5 DUP2 MSTORE PUSH1 0x20 ADD SWAP1 DUP2 MSTORE PUSH1 0x20 ADD PUSH0 KECCAK256 PUSH1 0x1 ADD PUSH0 SWAP1 SLOAD SWAP1 PUSH2 0x100 EXP SWAP1 DIV PUSH20 0xFFFFFFFFFFFFFFFFFFFFFFFFFFFFFFFFFFFFFFFF AND PUSH20 0xFFFFFFFFFFFFFFFFFFFFFFFFFFFFFFFFFFFFFFFF AND SUB PUSH2 0x15F1 JUMPI PUSH1 0x40 MLOAD PUSH32 0x8C379A000000000000000000000000000000000000000000000000000000000 DUP2 MSTORE PUSH1 0x4 ADD PUSH2 0x15E8 SWAP1 PUSH2 0x40EF JUMP JUMPDEST PUSH1 0x40 MLOAD DUP1 SWAP2 SUB SWAP1 REVERT JUMPDEST PUSH1 0x5 PUSH0 DUP5 DUP2 MSTORE PUSH1 0x20 ADD SWAP1 DUP2 MSTORE PUSH1 0x20 ADD PUSH0 KECCAK256 PUSH0 DUP4 DUP2 MSTORE PUSH1 0x20 ADD SWAP1 DUP2 MSTORE PUSH1 0x20 ADD PUSH0 KECCAK256 PUSH1 0x40 MLOAD DUP1 PUSH1 0xC0 ADD PUSH1 0x40 MSTORE SWAP1 DUP2 PUSH0 DUP3 ADD SLOAD DUP2 MSTORE PUSH1 0x20 ADD PUSH1 0x1 DUP3 ADD PUSH0 SWAP1 SLOAD SWAP1 PUSH2 0x100 EXP SWAP1 DIV PUSH20 0xFFFFFFFFFFFFFFFFFFFFFFFFFFFFFFFFFFFFFFFF AND PUSH20 0xFFFFFFFFFFFFFFFFFFFFFFFFFFFFFFFFFFFFFFFF AND PUSH20 0xFFFFFFFFFFFFFFFFFFFFFFFFFFFFFFFFFFFFFFFF AND DUP2 MSTORE PUSH1 0x20 ADD PUSH1 0x2 DUP3 ADD DUP1 SLOAD PUSH2 0x168A SWAP1 PUSH2 0x3B86 JUMP JUMPDEST DUP1 PUSH1 0x1F ADD PUSH1 0x20 DUP1 SWAP2 DIV MUL PUSH1 0x20 ADD PUSH1 0x40 MLOAD SWAP1 DUP2 ADD PUSH1 0x40 MSTORE DUP1 SWAP3 SWAP2 SWAP1 DUP2 DUP2 MSTORE PUSH1 0x20 ADD DUP3 DUP1 SLOAD PUSH2 0x16B6 SWAP1 PUSH2 0x3B86 JUMP JUMPDEST DUP1 ISZERO PUSH2 0x1701 JUMPI DUP1 PUSH1 0x1F LT PUSH2 0x16D8 JUMPI PUSH2 0x100 DUP1 DUP4 SLOAD DIV MUL DUP4 MSTORE SWAP2 PUSH1 0x20 ADD SWAP2 PUSH2 0x1701 JUMP JUMPDEST DUP3 ADD SWAP2 SWAP1 PUSH0 MSTORE PUSH1 0x20 PUSH0 KECCAK256 SWAP1 JUMPDEST DUP2 SLOAD DUP2 MSTORE SWAP1 PUSH1 0x1 ADD SWAP1 PUSH1 0x20 ADD DUP1 DUP4 GT PUSH2 0x16E4 JUMPI DUP3 SWAP1 SUB PUSH1 0x1F AND DUP3 ADD SWAP2 JUMPDEST POP POP POP POP POP DUP2 MSTORE PUSH1 0x20 ADD PUSH1 0x3 DUP3 ADD SLOAD DUP2 MSTORE PUSH1 0x20 ADD PUSH1 0x4 DUP3 ADD SLOAD DUP2 MSTORE PUSH1 0x20 ADD PUSH1 0x5 DUP3 ADD SLOAD DUP2 MSTORE POP POP SWAP1 POP SWAP3 SWAP2 POP POP JUMP JUMPDEST PUSH1 0x60 PUSH0 PUSH1 0x2 SLOAD PUSH8 0xFFFFFFFFFFFFFFFF DUP2 GT ISZERO PUSH2 0x174F JUMPI PUSH2 0x174E PUSH2 0x2E3A JUMP JUMPDEST JUMPDEST PUSH1 0x40 MLOAD SWAP1 DUP1 DUP3 MSTORE DUP1 PUSH1 0x20 MUL PUSH1 0x20 ADD DUP3 ADD PUSH1 0x40 MSTORE DUP1 ISZERO PUSH2 0x177D JUMPI DUP2 PUSH1 0x20 ADD PUSH1 0x20 DUP3 MUL DUP1 CALLDATASIZE DUP4 CALLDATACOPY DUP1 DUP3 ADD SWAP2 POP POP SWAP1 POP JUMPDEST POP SWAP1 POP PUSH0 DUP1 PUSH1 0x1 SWAP1 POP JUMPDEST PUSH1 0x2 SLOAD DUP2 LT ISZERO PUSH2 0x1803 JUMPI DUP5 DUP1 MLOAD SWAP1 PUSH1 0x20 ADD KECCAK256 PUSH1 0x4 PUSH0 DUP4 DUP2 MSTORE PUSH1 0x20 ADD SWAP1 DUP2 MSTORE PUSH1 0x20 ADD PUSH0 KECCAK256 PUSH1 0x4 ADD PUSH1 0x40 MLOAD PUSH2 0x17BA SWAP2 SWAP1 PUSH2 0x41A9 JUMP JUMPDEST PUSH1 0x40 MLOAD DUP1 SWAP2 SUB SWAP1 KECCAK256 SUB PUSH2 0x17F6 JUMPI DUP1 DUP4 DUP4 DUP2 MLOAD DUP2 LT PUSH2 0x17DB JUMPI PUSH2 0x17DA PUSH2 0x41BF JUMP JUMPDEST JUMPDEST PUSH1 0x20 MUL PUSH1 0x20 ADD ADD DUP2 DUP2 MSTORE POP POP DUP2 DUP1 PUSH2 0x17F2 SWAP1 PUSH2 0x3C4B JUMP JUMPDEST SWAP3 POP POP JUMPDEST DUP1 DUP1 PUSH1 0x1 ADD SWAP2 POP POP PUSH2 0x1787 JUMP JUMPDEST POP PUSH0 DUP2 PUSH8 0xFFFFFFFFFFFFFFFF DUP2 GT ISZERO PUSH2 0x181F JUMPI PUSH2 0x181E PUSH2 0x2E3A JUMP JUMPDEST JUMPDEST PUSH1 0x40 MLOAD SWAP1 DUP1 DUP3 MSTORE DUP1 PUSH1 0x20 MUL PUSH1 0x20 ADD DUP3 ADD PUSH1 0x40 MSTORE DUP1 ISZERO PUSH2 0x184D JUMPI DUP2 PUSH1 0x20 ADD PUSH1 0x20 DUP3 MUL DUP1 CALLDATASIZE DUP4 CALLDATACOPY DUP1 DUP3 ADD SWAP2 POP POP SWAP1 POP JUMPDEST POP SWAP1 POP PUSH0 JUMPDEST DUP3 DUP2 LT ISZERO PUSH2 0x18A1 JUMPI DUP4 DUP2 DUP2 MLOAD DUP2 LT PUSH2 0x186D JUMPI PUSH2 0x186C PUSH2 0x41BF JUMP JUMPDEST JUMPDEST PUSH1 0x20 MUL PUSH1 0x20 ADD ADD MLOAD DUP3 DUP3 DUP2 MLOAD DUP2 LT PUSH2 0x1888 JUMPI PUSH2 0x1887 PUSH2 0x41BF JUMP JUMPDEST JUMPDEST PUSH1 0x20 MUL PUSH1 0x20 ADD ADD DUP2 DUP2 MSTORE POP POP DUP1 DUP1 PUSH1 0x1 ADD SWAP2 POP POP PUSH2 0x1852 JUMP JUMPDEST POP DUP1 SWAP4 POP POP POP POP SWAP2 SWAP1 POP JUMP JUMPDEST PUSH0 CALLVALUE GT PUSH2 0x18EF JUMPI PUSH1 0x40 MLOAD PUSH32 0x8C379A000000000000000000000000000000000000000000000000000000000 DUP2 MSTORE PUSH1 0x4 ADD PUSH2 0x18E6 SWAP1 PUSH2 0x4236 JUMP JUMPDEST PUSH1 0x40 MLOAD DUP1 SWAP2 SUB SWAP1 REVERT JUMPDEST PUSH0 DUP3 MLOAD GT PUSH2 0x1932 JUMPI PUSH1 0x40 MLOAD PUSH32 0x8C379A000000000000000000000000000000000000000000000000000000000 DUP2 MSTORE PUSH1 0x4 ADD PUSH2 0x1929 SWAP1 PUSH2 0x429E JUMP JUMPDEST PUSH1 0x40 MLOAD DUP1 SWAP2 SUB SWAP1 REVERT JUMPDEST PUSH0 DUP1 PUSH1 0x2 DUP2 GT ISZERO PUSH2 0x1946 JUMPI PUSH2 0x1945 PUSH2 0x42BC JUMP JUMPDEST JUMPDEST DUP3 PUSH1 0x2 DUP2 GT ISZERO PUSH2 0x1959 JUMPI PUSH2 0x1958 PUSH2 0x42BC JUMP JUMPDEST JUMPDEST SUB PUSH2 0x1974 JUMPI PUSH3 0x93A80 TIMESTAMP PUSH2 0x196D SWAP2 SWAP1 PUSH2 0x400A JUMP JUMPDEST SWAP1 POP PUSH2 0x19F5 JUMP JUMPDEST PUSH1 0x1 PUSH1 0x2 DUP2 GT ISZERO PUSH2 0x1988 JUMPI PUSH2 0x1987 PUSH2 0x42BC JUMP JUMPDEST JUMPDEST DUP3 PUSH1 0x2 DUP2 GT ISZERO PUSH2 0x199B JUMPI PUSH2 0x199A PUSH2 0x42BC JUMP JUMPDEST JUMPDEST SUB PUSH2 0x19B6 JUMPI PUSH3 0x127500 TIMESTAMP PUSH2 0x19AF SWAP2 SWAP1 PUSH2 0x400A JUMP JUMPDEST SWAP1 POP PUSH2 0x19F4 JUMP JUMPDEST PUSH1 0x2 DUP1 DUP2 GT ISZERO PUSH2 0x19C9 JUMPI PUSH2 0x19C8 PUSH2 0x42BC JUMP JUMPDEST JUMPDEST DUP3 PUSH1 0x2 DUP2 GT ISZERO PUSH2 0x19DC JUMPI PUSH2 0x19DB PUSH2 0x42BC JUMP JUMPDEST JUMPDEST SUB PUSH2 0x19F3 JUMPI PUSH3 0x278D00 TIMESTAMP PUSH2 0x19F0 SWAP2 SWAP1 PUSH2 0x400A JUMP JUMPDEST SWAP1 POP JUMPDEST JUMPDEST JUMPDEST PUSH0 PUSH1 0x2 PUSH0 DUP2 SLOAD DUP1 SWAP3 SWAP2 SWAP1 PUSH2 0x1A08 SWAP1 PUSH2 0x3C4B JUMP JUMPDEST SWAP2 SWAP1 POP SSTORE SWAP1 POP PUSH1 0x40 MLOAD DUP1 PUSH2 0x140 ADD PUSH1 0x40 MSTORE DUP1 DUP3 DUP2 MSTORE PUSH1 0x20 ADD CALLER PUSH20 0xFFFFFFFFFFFFFFFFFFFFFFFFFFFFFFFFFFFFFFFF AND DUP2 MSTORE PUSH1 0x20 ADD DUP8 DUP2 MSTORE PUSH1 0x20 ADD DUP7 DUP2 MSTORE PUSH1 0x20 ADD DUP6 DUP2 MSTORE PUSH1 0x20 ADD CALLVALUE DUP2 MSTORE PUSH1 0x20 ADD TIMESTAMP DUP2 MSTORE PUSH1 0x20 ADD DUP4 DUP2 MSTORE PUSH1 0x20 ADD PUSH0 ISZERO ISZERO DUP2 MSTORE PUSH1 0x20 ADD PUSH0 DUP2 MSTORE POP PUSH1 0x4 PUSH0 DUP4 DUP2 MSTORE PUSH1 0x20 ADD SWAP1 DUP2 MSTORE PUSH1 0x20 ADD PUSH0 KECCAK256 PUSH0 DUP3 ADD MLOAD DUP2 PUSH0 ADD SSTORE PUSH1 0x20 DUP3 ADD MLOAD DUP2 PUSH1 0x1 ADD PUSH0 PUSH2 0x100 EXP DUP2 SLOAD DUP2 PUSH20 0xFFFFFFFFFFFFFFFFFFFFFFFFFFFFFFFFFFFFFFFF MUL NOT AND SWAP1 DUP4 PUSH20 0xFFFFFFFFFFFFFFFFFFFFFFFFFFFFFFFFFFFFFFFF AND MUL OR SWAP1 SSTORE POP PUSH1 0x40 DUP3 ADD MLOAD DUP2 PUSH1 0x2 ADD SWAP1 DUP2 PUSH2 0x1AE0 SWAP2 SWAP1 PUSH2 0x3E2F JUMP JUMPDEST POP PUSH1 0x60 DUP3 ADD MLOAD DUP2 PUSH1 0x3 ADD SWAP1 DUP2 PUSH2 0x1AF6 SWAP2 SWAP1 PUSH2 0x3E2F JUMP JUMPDEST POP PUSH1 0x80 DUP3 ADD MLOAD DUP2 PUSH1 0x4 ADD SWAP1 DUP2 PUSH2 0x1B0C SWAP2 SWAP1 PUSH2 0x3E2F JUMP JUMPDEST POP PUSH1 0xA0 DUP3 ADD MLOAD DUP2 PUSH1 0x5 ADD SSTORE PUSH1 0xC0 DUP3 ADD MLOAD DUP2 PUSH1 0x6 ADD SSTORE PUSH1 0xE0 DUP3 ADD MLOAD DUP2 PUSH1 0x7 ADD SSTORE PUSH2 0x100 DUP3 ADD MLOAD DUP2 PUSH1 0x8 ADD PUSH0 PUSH2 0x100 EXP DUP2 SLOAD DUP2 PUSH1 0xFF MUL NOT AND SWAP1 DUP4 ISZERO ISZERO MUL OR SWAP1 SSTORE POP PUSH2 0x120 DUP3 ADD MLOAD DUP2 PUSH1 0x9 ADD SSTORE SWAP1 POP POP CALLER PUSH20 0xFFFFFFFFFFFFFFFFFFFFFFFFFFFFFFFFFFFFFFFF AND PUSH32 0xB8105899D34D8481E717A601E8D7A732C27B0AB23778E01145F2F3EB24A1120C DUP3 DUP9 CALLVALUE DUP9 PUSH1 0x40 MLOAD PUSH2 0x1BA5 SWAP5 SWAP4 SWAP3 SWAP2 SWAP1 PUSH2 0x42E9 JUMP JUMPDEST PUSH1 0x40 MLOAD DUP1 SWAP2 SUB SWAP1 LOG2 POP POP POP POP POP POP JUMP JUMPDEST DUP1 PUSH0 PUSH20 0xFFFFFFFFFFFFFFFFFFFFFFFFFFFFFFFFFFFFFFFF AND PUSH1 0x4 PUSH0 DUP4 DUP2 MSTORE PUSH1 0x20 ADD SWAP1 DUP2 MSTORE PUSH1 0x20 ADD PUSH0 KECCAK256 PUSH1 0x1 ADD PUSH0 SWAP1 SLOAD SWAP1 PUSH2 0x100 EXP SWAP1 DIV PUSH20 0xFFFFFFFFFFFFFFFFFFFFFFFFFFFFFFFFFFFFFFFF AND PUSH20 0xFFFFFFFFFFFFFFFFFFFFFFFFFFFFFFFFFFFFFFFF AND SUB PUSH2 0x1C57 JUMPI PUSH1 0x40 MLOAD PUSH32 0x8C379A000000000000000000000000000000000000000000000000000000000 DUP2 MSTORE PUSH1 0x4 ADD PUSH2 0x1C4E SWAP1 PUSH2 0x3A44 JUMP JUMPDEST PUSH1 0x40 MLOAD DUP1 SWAP2 SUB SWAP1 REVERT JUMPDEST PUSH0 PUSH1 0x4 PUSH0 DUP5 DUP2 MSTORE PUSH1 0x20 ADD SWAP1 DUP2 MSTORE PUSH1 0x20 ADD PUSH0 KECCAK256 SWAP1 POP DUP1 PUSH1 0x7 ADD SLOAD TIMESTAMP GT PUSH2 0x1CB1 JUMPI PUSH1 0x40 MLOAD PUSH32 0x8C379A000000000000000000000000000000000000000000000000000000000 DUP2 MSTORE PUSH1 0x4 ADD PUSH2 0x1CA8 SWAP1 PUSH2 0x43AA JUMP JUMPDEST PUSH1 0x40 MLOAD DUP1 SWAP2 SUB SWAP1 REVERT JUMPDEST DUP1 PUSH1 0x8 ADD PUSH0 SWAP1 SLOAD SWAP1 PUSH2 0x100 EXP SWAP1 DIV PUSH1 0xFF AND ISZERO PUSH2 0x1D02 JUMPI PUSH1 0x40 MLOAD PUSH32 0x8C379A000000000000000000000000000000000000000000000000000000000 DUP2 MSTORE PUSH1 0x4 ADD PUSH2 0x1CF9 SWAP1 PUSH2 0x3AAC JUMP JUMPDEST PUSH1 0x40 MLOAD DUP1 SWAP2 SUB SWAP1 REVERT JUMPDEST PUSH0 DUP1 DUP3 PUSH1 0x5 ADD SLOAD SWAP1 POP PUSH0 JUMPDEST PUSH1 0x3 SLOAD DUP2 LT ISZERO PUSH2 0x1D55 JUMPI PUSH1 0x5 PUSH0 DUP8 DUP2 MSTORE PUSH1 0x20 ADD SWAP1 DUP2 MSTORE PUSH1 0x20 ADD PUSH0 KECCAK256 PUSH0 DUP3 DUP2 MSTORE PUSH1 0x20 ADD SWAP1 DUP2 MSTORE PUSH1 0x20 ADD PUSH0 KECCAK256 PUSH1 0x3 ADD SLOAD DUP4 PUSH2 0x1D46 SWAP2 SWAP1 PUSH2 0x400A JUMP JUMPDEST SWAP3 POP DUP1 DUP1 PUSH1 0x1 ADD SWAP2 POP POP PUSH2 0x1D0D JUMP JUMPDEST POP PUSH0 JUMPDEST PUSH1 0x3 SLOAD DUP2 LT ISZERO PUSH2 0x1E4B JUMPI PUSH0 PUSH1 0x5 PUSH0 DUP9 DUP2 MSTORE PUSH1 0x20 ADD SWAP1 DUP2 MSTORE PUSH1 0x20 ADD PUSH0 KECCAK256 PUSH0 DUP4 DUP2 MSTORE PUSH1 0x20 ADD SWAP1 DUP2 MSTORE PUSH1 0x20 ADD PUSH0 KECCAK256 SWAP1 POP PUSH0 DUP5 GT ISZERO PUSH2 0x1E3D JUMPI PUSH0 DUP5 DUP5 DUP4 PUSH1 0x3 ADD SLOAD PUSH2 0x1D9F SWAP2 SWAP1 PUSH2 0x43C8 JUMP JUMPDEST PUSH2 0x1DA9 SWAP2 SWAP1 PUSH2 0x4436 JUMP JUMPDEST SWAP1 POP DUP1 DUP3 PUSH1 0x4 ADD PUSH0 DUP3 DUP3 SLOAD PUSH2 0x1DBE SWAP2 SWAP1 PUSH2 0x400A JUMP JUMPDEST SWAP3 POP POP DUP2 SWAP1 SSTORE POP DUP1 PUSH1 0x6 PUSH0 DUP5 PUSH1 0x1 ADD PUSH0 SWAP1 SLOAD SWAP1 PUSH2 0x100 EXP SWAP1 DIV PUSH20 0xFFFFFFFFFFFFFFFFFFFFFFFFFFFFFFFFFFFFFFFF AND PUSH20 0xFFFFFFFFFFFFFFFFFFFFFFFFFFFFFFFFFFFFFFFF AND PUSH20 0xFFFFFFFFFFFFFFFFFFFFFFFFFFFFFFFFFFFFFFFF AND DUP2 MSTORE PUSH1 0x20 ADD SWAP1 DUP2 MSTORE PUSH1 0x20 ADD PUSH0 KECCAK256 PUSH0 DUP3 DUP3 SLOAD PUSH2 0x1E34 SWAP2 SWAP1 PUSH2 0x400A JUMP JUMPDEST SWAP3 POP POP DUP2 SWAP1 SSTORE POP POP JUMPDEST POP DUP1 DUP1 PUSH1 0x1 ADD SWAP2 POP POP PUSH2 0x1D58 JUMP JUMPDEST POP PUSH1 0x1 DUP4 PUSH1 0x8 ADD PUSH0 PUSH2 0x100 EXP DUP2 SLOAD DUP2 PUSH1 0xFF MUL NOT AND SWAP1 DUP4 ISZERO ISZERO MUL OR SWAP1 SSTORE POP POP POP POP POP POP JUMP JUMPDEST PUSH1 0x2 SLOAD DUP2 JUMP JUMPDEST PUSH0 DUP1 SLOAD SWAP1 PUSH2 0x100 EXP SWAP1 DIV PUSH20 0xFFFFFFFFFFFFFFFFFFFFFFFFFFFFFFFFFFFFFFFF AND DUP2 JUMP JUMPDEST PUSH3 0x127500 DUP2 JUMP JUMPDEST PUSH0 SELFBALANCE SWAP1 POP SWAP1 JUMP JUMPDEST PUSH1 0x3 SLOAD DUP2 JUMP JUMPDEST PUSH3 0x278D00 DUP2 JUMP JUMPDEST PUSH1 0x1 SLOAD DUP2 JUMP JUMPDEST PUSH2 0x1EC1 PUSH2 0x2D3C JUMP JUMPDEST PUSH0 PUSH20 0xFFFFFFFFFFFFFFFFFFFFFFFFFFFFFFFFFFFFFFFF AND PUSH1 0x4 PUSH0 DUP5 DUP2 MSTORE PUSH1 0x20 ADD SWAP1 DUP2 MSTORE PUSH1 0x20 ADD PUSH0 KECCAK256 PUSH1 0x1 ADD PUSH0 SWAP1 SLOAD SWAP1 PUSH2 0x100 EXP SWAP1 DIV PUSH20 0xFFFFFFFFFFFFFFFFFFFFFFFFFFFFFFFFFFFFFFFF AND PUSH20 0xFFFFFFFFFFFFFFFFFFFFFFFFFFFFFFFFFFFFFFFF AND SUB PUSH2 0x1F62 JUMPI PUSH1 0x40 MLOAD PUSH32 0x8C379A000000000000000000000000000000000000000000000000000000000 DUP2 MSTORE PUSH1 0x4 ADD PUSH2 0x1F59 SWAP1 PUSH2 0x3A44 JUMP JUMPDEST PUSH1 0x40 MLOAD DUP1 SWAP2 SUB SWAP1 REVERT JUMPDEST PUSH1 0x4 PUSH0 DUP4 DUP2 MSTORE PUSH1 0x20 ADD SWAP1 DUP2 MSTORE PUSH1 0x20 ADD PUSH0 KECCAK256 PUSH1 0x40 MLOAD DUP1 PUSH2 0x140 ADD PUSH1 0x40 MSTORE SWAP1 DUP2 PUSH0 DUP3 ADD SLOAD DUP2 MSTORE PUSH1 0x20 ADD PUSH1 0x1 DUP3 ADD PUSH0 SWAP1 SLOAD SWAP1 PUSH2 0x100 EXP SWAP1 DIV PUSH20 0xFFFFFFFFFFFFFFFFFFFFFFFFFFFFFFFFFFFFFFFF AND PUSH20 0xFFFFFFFFFFFFFFFFFFFFFFFFFFFFFFFFFFFFFFFF AND PUSH20 0xFFFFFFFFFFFFFFFFFFFFFFFFFFFFFFFFFFFFFFFF AND DUP2 MSTORE PUSH1 0x20 ADD PUSH1 0x2 DUP3 ADD DUP1 SLOAD PUSH2 0x1FED SWAP1 PUSH2 0x3B86 JUMP JUMPDEST DUP1 PUSH1 0x1F ADD PUSH1 0x20 DUP1 SWAP2 DIV MUL PUSH1 0x20 ADD PUSH1 0x40 MLOAD SWAP1 DUP2 ADD PUSH1 0x40 MSTORE DUP1 SWAP3 SWAP2 SWAP1 DUP2 DUP2 MSTORE PUSH1 0x20 ADD DUP3 DUP1 SLOAD PUSH2 0x2019 SWAP1 PUSH2 0x3B86 JUMP JUMPDEST DUP1 ISZERO PUSH2 0x2064 JUMPI DUP1 PUSH1 0x1F LT PUSH2 0x203B JUMPI PUSH2 0x100 DUP1 DUP4 SLOAD DIV MUL DUP4 MSTORE SWAP2 PUSH1 0x20 ADD SWAP2 PUSH2 0x2064 JUMP JUMPDEST DUP3 ADD SWAP2 SWAP1 PUSH0 MSTORE PUSH1 0x20 PUSH0 KECCAK256 SWAP1 JUMPDEST DUP2 SLOAD DUP2 MSTORE SWAP1 PUSH1 0x1 ADD SWAP1 PUSH1 0x20 ADD DUP1 DUP4 GT PUSH2 0x2047 JUMPI DUP3 SWAP1 SUB PUSH1 0x1F AND DUP3 ADD SWAP2 JUMPDEST POP POP POP POP POP DUP2 MSTORE PUSH1 0x20 ADD PUSH1 0x3 DUP3 ADD DUP1 SLOAD PUSH2 0x207D SWAP1 PUSH2 0x3B86 JUMP JUMPDEST DUP1 PUSH1 0x1F ADD PUSH1 0x20 DUP1 SWAP2 DIV MUL PUSH1 0x20 ADD PUSH1 0x40 MLOAD SWAP1 DUP2 ADD PUSH1 0x40 MSTORE DUP1 SWAP3 SWAP2 SWAP1 DUP2 DUP2 MSTORE PUSH1 0x20 ADD DUP3 DUP1 SLOAD PUSH2 0x20A9 SWAP1 PUSH2 0x3B86 JUMP JUMPDEST DUP1 ISZERO PUSH2 0x20F4 JUMPI DUP1 PUSH1 0x1F LT PUSH2 0x20CB JUMPI PUSH2 0x100 DUP1 DUP4 SLOAD DIV MUL DUP4 MSTORE SWAP2 PUSH1 0x20 ADD SWAP2 PUSH2 0x20F4 JUMP JUMPDEST DUP3 ADD SWAP2 SWAP1 PUSH0 MSTORE PUSH1 0x20 PUSH0 KECCAK256 SWAP1 JUMPDEST DUP2 SLOAD DUP2 MSTORE SWAP1 PUSH1 0x1 ADD SWAP1 PUSH1 0x20 ADD DUP1 DUP4 GT PUSH2 0x20D7 JUMPI DUP3 SWAP1 SUB PUSH1 0x1F AND DUP3 ADD SWAP2 JUMPDEST POP POP POP POP POP DUP2 MSTORE PUSH1 0x20 ADD PUSH1 0x4 DUP3 ADD DUP1 SLOAD PUSH2 0x210D SWAP1 PUSH2 0x3B86 JUMP JUMPDEST DUP1 PUSH1 0x1F ADD PUSH1 0x20 DUP1 SWAP2 DIV MUL PUSH1 0x20 ADD PUSH1 0x40 MLOAD SWAP1 DUP2 ADD PUSH1 0x40 MSTORE DUP1 SWAP3 SWAP2 SWAP1 DUP2 DUP2 MSTORE PUSH1 0x20 ADD DUP3 DUP1 SLOAD PUSH2 0x2139 SWAP1 PUSH2 0x3B86 JUMP JUMPDEST DUP1 ISZERO PUSH2 0x2184 JUMPI DUP1 PUSH1 0x1F LT PUSH2 0x215B JUMPI PUSH2 0x100 DUP1 DUP4 SLOAD DIV MUL DUP4 MSTORE SWAP2 PUSH1 0x20 ADD SWAP2 PUSH2 0x2184 JUMP JUMPDEST DUP3 ADD SWAP2 SWAP1 PUSH0 MSTORE PUSH1 0x20 PUSH0 KECCAK256 SWAP1 JUMPDEST DUP2 SLOAD DUP2 MSTORE SWAP1 PUSH1 0x1 ADD SWAP1 PUSH1 0x20 ADD DUP1 DUP4 GT PUSH2 0x2167 JUMPI DUP3 SWAP1 SUB PUSH1 0x1F AND DUP3 ADD SWAP2 JUMPDEST POP POP POP POP POP DUP2 MSTORE PUSH1 0x20 ADD PUSH1 0x5 DUP3 ADD SLOAD DUP2 MSTORE PUSH1 0x20 ADD PUSH1 0x6 DUP3 ADD SLOAD DUP2 MSTORE PUSH1 0x20 ADD PUSH1 0x7 DUP3 ADD SLOAD DUP2 MSTORE PUSH1 0x20 ADD PUSH1 0x8 DUP3 ADD PUSH0 SWAP1 SLOAD SWAP1 PUSH2 0x100 EXP SWAP1 DIV PUSH1 0xFF AND ISZERO ISZERO ISZERO ISZERO DUP2 MSTORE PUSH1 0x20 ADD PUSH1 0x9 DUP3 ADD SLOAD DUP2 MSTORE POP POP SWAP1 POP SWAP2 SWAP1 POP JUMP JUMPDEST PUSH1 0x60 PUSH0 DUP1 PUSH0 PUSH20 0xFFFFFFFFFFFFFFFFFFFFFFFFFFFFFFFFFFFFFFFF AND PUSH1 0x4 PUSH0 DUP9 DUP2 MSTORE PUSH1 0x20 ADD SWAP1 DUP2 MSTORE PUSH1 0x20 ADD PUSH0 KECCAK256 PUSH1 0x1 ADD PUSH0 SWAP1 SLOAD SWAP1 PUSH2 0x100 EXP SWAP1 DIV PUSH20 0xFFFFFFFFFFFFFFFFFFFFFFFFFFFFFFFFFFFFFFFF AND PUSH20 0xFFFFFFFFFFFFFFFFFFFFFFFFFFFFFFFFFFFFFFFF AND SUB PUSH2 0x227B JUMPI PUSH1 0x40 MLOAD PUSH32 0x8C379A000000000000000000000000000000000000000000000000000000000 DUP2 MSTORE PUSH1 0x4 ADD PUSH2 0x2272 SWAP1 PUSH2 0x3A44 JUMP JUMPDEST PUSH1 0x40 MLOAD DUP1 SWAP2 SUB SWAP1 REVERT JUMPDEST PUSH0 DUP6 GT PUSH2 0x22BD JUMPI PUSH1 0x40 MLOAD PUSH32 0x8C379A000000000000000000000000000000000000000000000000000000000 DUP2 MSTORE PUSH1 0x4 ADD PUSH2 0x22B4 SWAP1 PUSH2 0x44B0 JUMP JUMPDEST PUSH1 0x40 MLOAD DUP1 SWAP2 SUB SWAP1 REVERT JUMPDEST PUSH0 DUP5 GT PUSH2 0x22FF JUMPI PUSH1 0x40 MLOAD PUSH32 0x8C379A000000000000000000000000000000000000000000000000000000000 DUP2 MSTORE PUSH1 0x4 ADD PUSH2 0x22F6 SWAP1 PUSH2 0x4518 JUMP JUMPDEST PUSH1 0x40 MLOAD DUP1 SWAP2 SUB SWAP1 REVERT JUMPDEST PUSH0 DUP1 PUSH1 0x1 SWAP1 POP JUMPDEST PUSH1 0x3 SLOAD DUP2 LT ISZERO PUSH2 0x23A1 JUMPI PUSH0 PUSH20 0xFFFFFFFFFFFFFFFFFFFFFFFFFFFFFFFFFFFFFFFF AND PUSH1 0x5 PUSH0 DUP11 DUP2 MSTORE PUSH1 0x20 ADD SWAP1 DUP2 MSTORE PUSH1 0x20 ADD PUSH0 KECCAK256 PUSH0 DUP4 DUP2 MSTORE PUSH1 0x20 ADD SWAP1 DUP2 MSTORE PUSH1 0x20 ADD PUSH0 KECCAK256 PUSH1 0x1 ADD PUSH0 SWAP1 SLOAD SWAP1 PUSH2 0x100 EXP SWAP1 DIV PUSH20 0xFFFFFFFFFFFFFFFFFFFFFFFFFFFFFFFFFFFFFFFF AND PUSH20 0xFFFFFFFFFFFFFFFFFFFFFFFFFFFFFFFFFFFFFFFF AND EQ PUSH2 0x2394 JUMPI DUP2 DUP1 PUSH2 0x2390 SWAP1 PUSH2 0x3C4B JUMP JUMPDEST SWAP3 POP POP JUMPDEST DUP1 DUP1 PUSH1 0x1 ADD SWAP2 POP POP PUSH2 0x2306 JUMP JUMPDEST POP DUP1 SWAP3 POP PUSH0 DUP4 SUB PUSH2 0x240E JUMPI PUSH0 PUSH8 0xFFFFFFFFFFFFFFFF DUP2 GT ISZERO PUSH2 0x23C6 JUMPI PUSH2 0x23C5 PUSH2 0x2E3A JUMP JUMPDEST JUMPDEST PUSH1 0x40 MLOAD SWAP1 DUP1 DUP3 MSTORE DUP1 PUSH1 0x20 MUL PUSH1 0x20 ADD DUP3 ADD PUSH1 0x40 MSTORE DUP1 ISZERO PUSH2 0x23FF JUMPI DUP2 PUSH1 0x20 ADD JUMPDEST PUSH2 0x23EC PUSH2 0x2CF5 JUMP JUMPDEST DUP2 MSTORE PUSH1 0x20 ADD SWAP1 PUSH1 0x1 SWAP1 SUB SWAP1 DUP2 PUSH2 0x23E4 JUMPI SWAP1 POP JUMPDEST POP PUSH0 DUP1 SWAP4 POP SWAP4 POP SWAP4 POP POP PUSH2 0x27DB JUMP JUMPDEST DUP5 PUSH1 0x1 DUP7 DUP6 PUSH2 0x241D SWAP2 SWAP1 PUSH2 0x400A JUMP JUMPDEST PUSH2 0x2427 SWAP2 SWAP1 PUSH2 0x4536 JUMP JUMPDEST PUSH2 0x2431 SWAP2 SWAP1 PUSH2 0x4436 JUMP JUMPDEST SWAP2 POP DUP2 DUP7 GT ISZERO PUSH2 0x2476 JUMPI PUSH1 0x40 MLOAD PUSH32 0x8C379A000000000000000000000000000000000000000000000000000000000 DUP2 MSTORE PUSH1 0x4 ADD PUSH2 0x246D SWAP1 PUSH2 0x45B3 JUMP JUMPDEST PUSH1 0x40 MLOAD DUP1 SWAP2 SUB SWAP1 REVERT JUMPDEST PUSH0 PUSH1 0x1 DUP7 PUSH1 0x1 DUP10 PUSH2 0x2487 SWAP2 SWAP1 PUSH2 0x4536 JUMP JUMPDEST PUSH2 0x2491 SWAP2 SWAP1 PUSH2 0x43C8 JUMP JUMPDEST PUSH2 0x249B SWAP2 SWAP1 PUSH2 0x400A JUMP JUMPDEST SWAP1 POP PUSH0 PUSH1 0x1 DUP8 DUP4 PUSH2 0x24AC SWAP2 SWAP1 PUSH2 0x400A JUMP JUMPDEST PUSH2 0x24B6 SWAP2 SWAP1 PUSH2 0x4536 JUMP JUMPDEST SWAP1 POP PUSH1 0x1 PUSH1 0x3 SLOAD PUSH2 0x24C7 SWAP2 SWAP1 PUSH2 0x4536 JUMP JUMPDEST DUP2 GT ISZERO PUSH2 0x24E0 JUMPI PUSH1 0x1 PUSH1 0x3 SLOAD PUSH2 0x24DD SWAP2 SWAP1 PUSH2 0x4536 JUMP JUMPDEST SWAP1 POP JUMPDEST PUSH0 DUP1 DUP4 SWAP1 POP JUMPDEST DUP3 DUP2 GT PUSH2 0x2584 JUMPI PUSH0 PUSH20 0xFFFFFFFFFFFFFFFFFFFFFFFFFFFFFFFFFFFFFFFF AND PUSH1 0x5 PUSH0 DUP14 DUP2 MSTORE PUSH1 0x20 ADD SWAP1 DUP2 MSTORE PUSH1 0x20 ADD PUSH0 KECCAK256 PUSH0 DUP4 DUP2 MSTORE PUSH1 0x20 ADD SWAP1 DUP2 MSTORE PUSH1 0x20 ADD PUSH0 KECCAK256 PUSH1 0x1 ADD PUSH0 SWAP1 SLOAD SWAP1 PUSH2 0x100 EXP SWAP1 DIV PUSH20 0xFFFFFFFFFFFFFFFFFFFFFFFFFFFFFFFFFFFFFFFF AND PUSH20 0xFFFFFFFFFFFFFFFFFFFFFFFFFFFFFFFFFFFFFFFF AND EQ PUSH2 0x2571 JUMPI DUP2 DUP1 PUSH2 0x256D SWAP1 PUSH2 0x3C4B JUMP JUMPDEST SWAP3 POP POP JUMPDEST DUP1 DUP1 PUSH2 0x257C SWAP1 PUSH2 0x3C4B JUMP JUMPDEST SWAP2 POP POP PUSH2 0x24E6 JUMP JUMPDEST POP DUP1 PUSH8 0xFFFFFFFFFFFFFFFF DUP2 GT ISZERO PUSH2 0x259F JUMPI PUSH2 0x259E PUSH2 0x2E3A JUMP JUMPDEST JUMPDEST PUSH1 0x40 MLOAD SWAP1 DUP1 DUP3 MSTORE DUP1 PUSH1 0x20 MUL PUSH1 0x20 ADD DUP3 ADD PUSH1 0x40 MSTORE DUP1 ISZERO PUSH2 0x25D8 JUMPI DUP2 PUSH1 0x20 ADD JUMPDEST PUSH2 0x25C5 PUSH2 0x2CF5 JUMP JUMPDEST DUP2 MSTORE PUSH1 0x20 ADD SWAP1 PUSH1 0x1 SWAP1 SUB SWAP1 DUP2 PUSH2 0x25BD JUMPI SWAP1 POP JUMPDEST POP SWAP7 POP PUSH0 DUP1 DUP5 SWAP1 POP JUMPDEST DUP4 DUP2 GT PUSH2 0x27D4 JUMPI PUSH0 PUSH20 0xFFFFFFFFFFFFFFFFFFFFFFFFFFFFFFFFFFFFFFFF AND PUSH1 0x5 PUSH0 DUP15 DUP2 MSTORE PUSH1 0x20 ADD SWAP1 DUP2 MSTORE PUSH1 0x20 ADD PUSH0 KECCAK256 PUSH0 DUP4 DUP2 MSTORE PUSH1 0x20 ADD SWAP1 DUP2 MSTORE PUSH1 0x20 ADD PUSH0 KECCAK256 PUSH1 0x1 ADD PUSH0 SWAP1 SLOAD SWAP1 PUSH2 0x100 EXP SWAP1 DIV PUSH20 0xFFFFFFFFFFFFFFFFFFFFFFFFFFFFFFFFFFFFFFFF AND PUSH20 0xFFFFFFFFFFFFFFFFFFFFFFFFFFFFFFFFFFFFFFFF AND EQ PUSH2 0x27C1 JUMPI PUSH1 0x5 PUSH0 DUP14 DUP2 MSTORE PUSH1 0x20 ADD SWAP1 DUP2 MSTORE PUSH1 0x20 ADD PUSH0 KECCAK256 PUSH0 DUP3 DUP2 MSTORE PUSH1 0x20 ADD SWAP1 DUP2 MSTORE PUSH1 0x20 ADD PUSH0 KECCAK256 PUSH1 0x40 MLOAD DUP1 PUSH1 0xC0 ADD PUSH1 0x40 MSTORE SWAP1 DUP2 PUSH0 DUP3 ADD SLOAD DUP2 MSTORE PUSH1 0x20 ADD PUSH1 0x1 DUP3 ADD PUSH0 SWAP1 SLOAD SWAP1 PUSH2 0x100 EXP SWAP1 DIV PUSH20 0xFFFFFFFFFFFFFFFFFFFFFFFFFFFFFFFFFFFFFFFF AND PUSH20 0xFFFFFFFFFFFFFFFFFFFFFFFFFFFFFFFFFFFFFFFF AND PUSH20 0xFFFFFFFFFFFFFFFFFFFFFFFFFFFFFFFFFFFFFFFF AND DUP2 MSTORE PUSH1 0x20 ADD PUSH1 0x2 DUP3 ADD DUP1 SLOAD PUSH2 0x26F6 SWAP1 PUSH2 0x3B86 JUMP JUMPDEST DUP1 PUSH1 0x1F ADD PUSH1 0x20 DUP1 SWAP2 DIV MUL PUSH1 0x20 ADD PUSH1 0x40 MLOAD SWAP1 DUP2 ADD PUSH1 0x40 MSTORE DUP1 SWAP3 SWAP2 SWAP1 DUP2 DUP2 MSTORE PUSH1 0x20 ADD DUP3 DUP1 SLOAD PUSH2 0x2722 SWAP1 PUSH2 0x3B86 JUMP JUMPDEST DUP1 ISZERO PUSH2 0x276D JUMPI DUP1 PUSH1 0x1F LT PUSH2 0x2744 JUMPI PUSH2 0x100 DUP1 DUP4 SLOAD DIV MUL DUP4 MSTORE SWAP2 PUSH1 0x20 ADD SWAP2 PUSH2 0x276D JUMP JUMPDEST DUP3 ADD SWAP2 SWAP1 PUSH0 MSTORE PUSH1 0x20 PUSH0 KECCAK256 SWAP1 JUMPDEST DUP2 SLOAD DUP2 MSTORE SWAP1 PUSH1 0x1 ADD SWAP1 PUSH1 0x20 ADD DUP1 DUP4 GT PUSH2 0x2750 JUMPI DUP3 SWAP1 SUB PUSH1 0x1F AND DUP3 ADD SWAP2 JUMPDEST POP POP POP POP POP DUP2 MSTORE PUSH1 0x20 ADD PUSH1 0x3 DUP3 ADD SLOAD DUP2 MSTORE PUSH1 0x20 ADD PUSH1 0x4 DUP3 ADD SLOAD DUP2 MSTORE PUSH1 0x20 ADD PUSH1 0x5 DUP3 ADD SLOAD DUP2 MSTORE POP POP DUP10 DUP4 DUP2 MLOAD DUP2 LT PUSH2 0x27A7 JUMPI PUSH2 0x27A6 PUSH2 0x41BF JUMP JUMPDEST JUMPDEST PUSH1 0x20 MUL PUSH1 0x20 ADD ADD DUP2 SWAP1 MSTORE POP DUP2 DUP1 PUSH2 0x27BD SWAP1 PUSH2 0x3C4B JUMP JUMPDEST SWAP3 POP POP JUMPDEST DUP1 DUP1 PUSH2 0x27CC SWAP1 PUSH2 0x3C4B JUMP JUMPDEST SWAP2 POP POP PUSH2 0x25E1 JUMP JUMPDEST POP POP POP POP POP POP JUMPDEST SWAP4 POP SWAP4 POP SWAP4 SWAP1 POP JUMP JUMPDEST PUSH3 0x93A80 DUP2 JUMP JUMPDEST PUSH1 0x60 PUSH0 DUP1 PUSH0 DUP6 GT PUSH2 0x2831 JUMPI PUSH1 0x40 MLOAD PUSH32 0x8C379A000000000000000000000000000000000000000000000000000000000 DUP2 MSTORE PUSH1 0x4 ADD PUSH2 0x2828 SWAP1 PUSH2 0x44B0 JUMP JUMPDEST PUSH1 0x40 MLOAD DUP1 SWAP2 SUB SWAP1 REVERT JUMPDEST PUSH0 DUP5 GT PUSH2 0x2873 JUMPI PUSH1 0x40 MLOAD PUSH32 0x8C379A000000000000000000000000000000000000000000000000000000000 DUP2 MSTORE PUSH1 0x4 ADD PUSH2 0x286A SWAP1 PUSH2 0x4518 JUMP JUMPDEST PUSH1 0x40 MLOAD DUP1 SWAP2 SUB SWAP1 REVERT JUMPDEST PUSH1 0x1 PUSH1 0x2 SLOAD PUSH2 0x2882 SWAP2 SWAP1 PUSH2 0x4536 JUMP JUMPDEST SWAP2 POP PUSH0 DUP3 SUB PUSH2 0x28EC JUMPI PUSH0 PUSH8 0xFFFFFFFFFFFFFFFF DUP2 GT ISZERO PUSH2 0x28A5 JUMPI PUSH2 0x28A4 PUSH2 0x2E3A JUMP JUMPDEST JUMPDEST PUSH1 0x40 MLOAD SWAP1 DUP1 DUP3 MSTORE DUP1 PUSH1 0x20 MUL PUSH1 0x20 ADD DUP3 ADD PUSH1 0x40 MSTORE DUP1 ISZERO PUSH2 0x28DE JUMPI DUP2 PUSH1 0x20 ADD JUMPDEST PUSH2 0x28CB PUSH2 0x2D3C JUMP JUMPDEST DUP2 MSTORE PUSH1 0x20 ADD SWAP1 PUSH1 0x1 SWAP1 SUB SWAP1 DUP2 PUSH2 0x28C3 JUMPI SWAP1 POP JUMPDEST POP PUSH0 DUP1 SWAP3 POP SWAP3 POP SWAP3 POP PUSH2 0x2CEE JUMP JUMPDEST DUP4 PUSH1 0x1 DUP6 DUP5 PUSH2 0x28FB SWAP2 SWAP1 PUSH2 0x400A JUMP JUMPDEST PUSH2 0x2905 SWAP2 SWAP1 PUSH2 0x4536 JUMP JUMPDEST PUSH2 0x290F SWAP2 SWAP1 PUSH2 0x4436 JUMP JUMPDEST SWAP1 POP DUP1 DUP6 GT ISZERO PUSH2 0x2954 JUMPI PUSH1 0x40 MLOAD PUSH32 0x8C379A000000000000000000000000000000000000000000000000000000000 DUP2 MSTORE PUSH1 0x4 ADD PUSH2 0x294B SWAP1 PUSH2 0x45B3 JUMP JUMPDEST PUSH1 0x40 MLOAD DUP1 SWAP2 SUB SWAP1 REVERT JUMPDEST PUSH0 PUSH1 0x1 DUP6 PUSH1 0x1 DUP9 PUSH2 0x2965 SWAP2 SWAP1 PUSH2 0x4536 JUMP JUMPDEST PUSH2 0x296F SWAP2 SWAP1 PUSH2 0x43C8 JUMP JUMPDEST PUSH2 0x2979 SWAP2 SWAP1 PUSH2 0x400A JUMP JUMPDEST SWAP1 POP PUSH0 PUSH1 0x1 DUP7 DUP4 PUSH2 0x298A SWAP2 SWAP1 PUSH2 0x400A JUMP JUMPDEST PUSH2 0x2994 SWAP2 SWAP1 PUSH2 0x4536 JUMP JUMPDEST SWAP1 POP PUSH1 0x1 PUSH1 0x2 SLOAD PUSH2 0x29A5 SWAP2 SWAP1 PUSH2 0x4536 JUMP JUMPDEST DUP2 GT ISZERO PUSH2 0x29BE JUMPI PUSH1 0x1 PUSH1 0x2 SLOAD PUSH2 0x29BB SWAP2 SWAP1 PUSH2 0x4536 JUMP JUMPDEST SWAP1 POP JUMPDEST PUSH0 PUSH1 0x1 DUP4 DUP4 PUSH2 0x29CD SWAP2 SWAP1 PUSH2 0x4536 JUMP JUMPDEST PUSH2 0x29D7 SWAP2 SWAP1 PUSH2 0x400A JUMP JUMPDEST SWAP1 POP DUP1 PUSH8 0xFFFFFFFFFFFFFFFF DUP2 GT ISZERO PUSH2 0x29F3 JUMPI PUSH2 0x29F2 PUSH2 0x2E3A JUMP JUMPDEST JUMPDEST PUSH1 0x40 MLOAD SWAP1 DUP1 DUP3 MSTORE DUP1 PUSH1 0x20 MUL PUSH1 0x20 ADD DUP3 ADD PUSH1 0x40 MSTORE DUP1 ISZERO PUSH2 0x2A2C JUMPI DUP2 PUSH1 0x20 ADD JUMPDEST PUSH2 0x2A19 PUSH2 0x2D3C JUMP JUMPDEST DUP2 MSTORE PUSH1 0x20 ADD SWAP1 PUSH1 0x1 SWAP1 SUB SWAP1 DUP2 PUSH2 0x2A11 JUMPI SWAP1 POP JUMPDEST POP SWAP6 POP PUSH0 DUP1 DUP5 SWAP1 POP JUMPDEST DUP4 DUP2 GT PUSH2 0x2CE8 JUMPI PUSH1 0x4 PUSH0 DUP3 DUP2 MSTORE PUSH1 0x20 ADD SWAP1 DUP2 MSTORE PUSH1 0x20 ADD PUSH0 KECCAK256 PUSH1 0x40 MLOAD DUP1 PUSH2 0x140 ADD PUSH1 0x40 MSTORE SWAP1 DUP2 PUSH0 DUP3 ADD SLOAD DUP2 MSTORE PUSH1 0x20 ADD PUSH1 0x1 DUP3 ADD PUSH0 SWAP1 SLOAD SWAP1 PUSH2 0x100 EXP SWAP1 DIV PUSH20 0xFFFFFFFFFFFFFFFFFFFFFFFFFFFFFFFFFFFFFFFF AND PUSH20 0xFFFFFFFFFFFFFFFFFFFFFFFFFFFFFFFFFFFFFFFF AND PUSH20 0xFFFFFFFFFFFFFFFFFFFFFFFFFFFFFFFFFFFFFFFF AND DUP2 MSTORE PUSH1 0x20 ADD PUSH1 0x2 DUP3 ADD DUP1 SLOAD PUSH2 0x2AC7 SWAP1 PUSH2 0x3B86 JUMP JUMPDEST DUP1 PUSH1 0x1F ADD PUSH1 0x20 DUP1 SWAP2 DIV MUL PUSH1 0x20 ADD PUSH1 0x40 MLOAD SWAP1 DUP2 ADD PUSH1 0x40 MSTORE DUP1 SWAP3 SWAP2 SWAP1 DUP2 DUP2 MSTORE PUSH1 0x20 ADD DUP3 DUP1 SLOAD PUSH2 0x2AF3 SWAP1 PUSH2 0x3B86 JUMP JUMPDEST DUP1 ISZERO PUSH2 0x2B3E JUMPI DUP1 PUSH1 0x1F LT PUSH2 0x2B15 JUMPI PUSH2 0x100 DUP1 DUP4 SLOAD DIV MUL DUP4 MSTORE SWAP2 PUSH1 0x20 ADD SWAP2 PUSH2 0x2B3E JUMP JUMPDEST DUP3 ADD SWAP2 SWAP1 PUSH0 MSTORE PUSH1 0x20 PUSH0 KECCAK256 SWAP1 JUMPDEST DUP2 SLOAD DUP2 MSTORE SWAP1 PUSH1 0x1 ADD SWAP1 PUSH1 0x20 ADD DUP1 DUP4 GT PUSH2 0x2B21 JUMPI DUP3 SWAP1 SUB PUSH1 0x1F AND DUP3 ADD SWAP2 JUMPDEST POP POP POP POP POP DUP2 MSTORE PUSH1 0x20 ADD PUSH1 0x3 DUP3 ADD DUP1 SLOAD PUSH2 0x2B57 SWAP1 PUSH2 0x3B86 JUMP JUMPDEST DUP1 PUSH1 0x1F ADD PUSH1 0x20 DUP1 SWAP2 DIV MUL PUSH1 0x20 ADD PUSH1 0x40 MLOAD SWAP1 DUP2 ADD PUSH1 0x40 MSTORE DUP1 SWAP3 SWAP2 SWAP1 DUP2 DUP2 MSTORE PUSH1 0x20 ADD DUP3 DUP1 SLOAD PUSH2 0x2B83 SWAP1 PUSH2 0x3B86 JUMP JUMPDEST DUP1 ISZERO PUSH2 0x2BCE JUMPI DUP1 PUSH1 0x1F LT PUSH2 0x2BA5 JUMPI PUSH2 0x100 DUP1 DUP4 SLOAD DIV MUL DUP4 MSTORE SWAP2 PUSH1 0x20 ADD SWAP2 PUSH2 0x2BCE JUMP JUMPDEST DUP3 ADD SWAP2 SWAP1 PUSH0 MSTORE PUSH1 0x20 PUSH0 KECCAK256 SWAP1 JUMPDEST DUP2 SLOAD DUP2 MSTORE SWAP1 PUSH1 0x1 ADD SWAP1 PUSH1 0x20 ADD DUP1 DUP4 GT PUSH2 0x2BB1 JUMPI DUP3 SWAP1 SUB PUSH1 0x1F AND DUP3 ADD SWAP2 JUMPDEST POP POP POP POP POP DUP2 MSTORE PUSH1 0x20 ADD PUSH1 0x4 DUP3 ADD DUP1 SLOAD PUSH2 0x2BE7 SWAP1 PUSH2 0x3B86 JUMP JUMPDEST DUP1 PUSH1 0x1F ADD PUSH1 0x20 DUP1 SWAP2 DIV MUL PUSH1 0x20 ADD PUSH1 0x40 MLOAD SWAP1 DUP2 ADD PUSH1 0x40 MSTORE DUP1 SWAP3 SWAP2 SWAP1 DUP2 DUP2 MSTORE PUSH1 0x20 ADD DUP3 DUP1 SLOAD PUSH2 0x2C13 SWAP1 PUSH2 0x3B86 JUMP JUMPDEST DUP1 ISZERO PUSH2 0x2C5E JUMPI DUP1 PUSH1 0x1F LT PUSH2 0x2C35 JUMPI PUSH2 0x100 DUP1 DUP4 SLOAD DIV MUL DUP4 MSTORE SWAP2 PUSH1 0x20 ADD SWAP2 PUSH2 0x2C5E JUMP JUMPDEST DUP3 ADD SWAP2 SWAP1 PUSH0 MSTORE PUSH1 0x20 PUSH0 KECCAK256 SWAP1 JUMPDEST DUP2 SLOAD DUP2 MSTORE SWAP1 PUSH1 0x1 ADD SWAP1 PUSH1 0x20 ADD DUP1 DUP4 GT PUSH2 0x2C41 JUMPI DUP3 SWAP1 SUB PUSH1 0x1F AND DUP3 ADD SWAP2 JUMPDEST POP POP POP POP POP DUP2 MSTORE PUSH1 0x20 ADD PUSH1 0x5 DUP3 ADD SLOAD DUP2 MSTORE PUSH1 0x20 ADD PUSH1 0x6 DUP3 ADD SLOAD DUP2 MSTORE PUSH1 0x20 ADD PUSH1 0x7 DUP3 ADD SLOAD DUP2 MSTORE PUSH1 0x20 ADD PUSH1 0x8 DUP3 ADD PUSH0 SWAP1 SLOAD SWAP1 PUSH2 0x100 EXP SWAP1 DIV PUSH1 0xFF AND ISZERO ISZERO ISZERO ISZERO DUP2 MSTORE PUSH1 0x20 ADD PUSH1 0x9 DUP3 ADD SLOAD DUP2 MSTORE POP POP DUP9 DUP4 DUP2 MLOAD DUP2 LT PUSH2 0x2CBC JUMPI PUSH2 0x2CBB PUSH2 0x41BF JUMP JUMPDEST JUMPDEST PUSH1 0x20 MUL PUSH1 0x20 ADD ADD DUP2 SWAP1 MSTORE POP DUP2 DUP1 PUSH2 0x2CD2 SWAP1 PUSH2 0x3C4B JUMP JUMPDEST SWAP3 POP POP DUP1 DUP1 PUSH2 0x2CE0 SWAP1 PUSH2 0x3C4B JUMP JUMPDEST SWAP2 POP POP PUSH2 0x2A35 JUMP JUMPDEST POP POP POP POP POP JUMPDEST SWAP3 POP SWAP3 POP SWAP3 JUMP JUMPDEST PUSH1 0x40 MLOAD DUP1 PUSH1 0xC0 ADD PUSH1 0x40 MSTORE DUP1 PUSH0 DUP2 MSTORE PUSH1 0x20 ADD PUSH0 PUSH20 0xFFFFFFFFFFFFFFFFFFFFFFFFFFFFFFFFFFFFFFFF AND DUP2 MSTORE PUSH1 0x20 ADD PUSH1 0x60 DUP2 MSTORE PUSH1 0x20 ADD PUSH0 DUP2 MSTORE PUSH1 0x20 ADD PUSH0 DUP2 MSTORE PUSH1 0x20 ADD PUSH0 DUP2 MSTORE POP SWAP1 JUMP JUMPDEST PUSH1 0x40 MLOAD DUP1 PUSH2 0x140 ADD PUSH1 0x40 MSTORE DUP1 PUSH0 DUP2 MSTORE PUSH1 0x20 ADD PUSH0 PUSH20 0xFFFFFFFFFFFFFFFFFFFFFFFFFFFFFFFFFFFFFFFF AND DUP2 MSTORE PUSH1 0x20 ADD PUSH1 0x60 DUP2 MSTORE PUSH1 0x20 ADD PUSH1 0x60 DUP2 MSTORE PUSH1 0x20 ADD PUSH1 0x60 DUP2 MSTORE PUSH1 0x20 ADD PUSH0 DUP2 MSTORE PUSH1 0x20 ADD PUSH0 DUP2 MSTORE PUSH1 0x20 ADD PUSH0 DUP2 MSTORE PUSH1 0x20 ADD PUSH0 ISZERO ISZERO DUP2 MSTORE PUSH1 0x20 ADD PUSH0 DUP2 MSTORE POP SWAP1 JUMP JUMPDEST PUSH0 PUSH1 0x40 MLOAD SWAP1 POP SWAP1 JUMP JUMPDEST PUSH0 DUP1 REVERT JUMPDEST PUSH0 DUP1 REVERT JUMPDEST PUSH0 DUP2 SWAP1 POP SWAP2 SWAP1 POP JUMP JUMPDEST PUSH2 0x2DC3 DUP2 PUSH2 0x2DB1 JUMP JUMPDEST DUP2 EQ PUSH2 0x2DCD JUMPI PUSH0 DUP1 REVERT JUMPDEST POP JUMP JUMPDEST PUSH0 DUP2 CALLDATALOAD SWAP1 POP PUSH2 0x2DDE DUP2 PUSH2 0x2DBA JUMP JUMPDEST SWAP3 SWAP2 POP POP JUMP JUMPDEST PUSH0 DUP1 PUSH1 0x40 DUP4 DUP6 SUB SLT ISZERO PUSH2 0x2DFA JUMPI PUSH2 0x2DF9 PUSH2 0x2DA9 JUMP JUMPDEST JUMPDEST PUSH0 PUSH2 0x2E07 DUP6 DUP3 DUP7 ADD PUSH2 0x2DD0 JUMP JUMPDEST SWAP3 POP POP PUSH1 0x20 PUSH2 0x2E18 DUP6 DUP3 DUP7 ADD PUSH2 0x2DD0 JUMP JUMPDEST SWAP2 POP POP SWAP3 POP SWAP3 SWAP1 POP JUMP JUMPDEST PUSH0 DUP1 REVERT JUMPDEST PUSH0 DUP1 REVERT JUMPDEST PUSH0 PUSH1 0x1F NOT PUSH1 0x1F DUP4 ADD AND SWAP1 POP SWAP2 SWAP1 POP JUMP JUMPDEST PUSH32 0x4E487B7100000000000000000000000000000000000000000000000000000000 PUSH0 MSTORE PUSH1 0x41 PUSH1 0x4 MSTORE PUSH1 0x24 PUSH0 REVERT JUMPDEST PUSH2 0x2E70 DUP3 PUSH2 0x2E2A JUMP JUMPDEST DUP2 ADD DUP2 DUP2 LT PUSH8 0xFFFFFFFFFFFFFFFF DUP3 GT OR ISZERO PUSH2 0x2E8F JUMPI PUSH2 0x2E8E PUSH2 0x2E3A JUMP JUMPDEST JUMPDEST DUP1 PUSH1 0x40 MSTORE POP POP POP JUMP JUMPDEST PUSH0 PUSH2 0x2EA1 PUSH2 0x2DA0 JUMP JUMPDEST SWAP1 POP PUSH2 0x2EAD DUP3 DUP3 PUSH2 0x2E67 JUMP JUMPDEST SWAP2 SWAP1 POP JUMP JUMPDEST PUSH0 PUSH8 0xFFFFFFFFFFFFFFFF DUP3 GT ISZERO PUSH2 0x2ECC JUMPI PUSH2 0x2ECB PUSH2 0x2E3A JUMP JUMPDEST JUMPDEST PUSH2 0x2ED5 DUP3 PUSH2 0x2E2A JUMP JUMPDEST SWAP1 POP PUSH1 0x20 DUP2 ADD SWAP1 POP SWAP2 SWAP1 POP JUMP JUMPDEST DUP3 DUP2 DUP4 CALLDATACOPY PUSH0 DUP4 DUP4 ADD MSTORE POP POP POP JUMP JUMPDEST PUSH0 PUSH2 0x2F02 PUSH2 0x2EFD DUP5 PUSH2 0x2EB2 JUMP JUMPDEST PUSH2 0x2E98 JUMP JUMPDEST SWAP1 POP DUP3 DUP2 MSTORE PUSH1 0x20 DUP2 ADD DUP5 DUP5 DUP5 ADD GT ISZERO PUSH2 0x2F1E JUMPI PUSH2 0x2F1D PUSH2 0x2E26 JUMP JUMPDEST JUMPDEST PUSH2 0x2F29 DUP5 DUP3 DUP6 PUSH2 0x2EE2 JUMP JUMPDEST POP SWAP4 SWAP3 POP POP POP JUMP JUMPDEST PUSH0 DUP3 PUSH1 0x1F DUP4 ADD SLT PUSH2 0x2F45 JUMPI PUSH2 0x2F44 PUSH2 0x2E22 JUMP JUMPDEST JUMPDEST DUP2 CALLDATALOAD PUSH2 0x2F55 DUP5 DUP3 PUSH1 0x20 DUP7 ADD PUSH2 0x2EF0 JUMP JUMPDEST SWAP2 POP POP SWAP3 SWAP2 POP POP JUMP JUMPDEST PUSH0 DUP1 PUSH1 0x40 DUP4 DUP6 SUB SLT ISZERO PUSH2 0x2F74 JUMPI PUSH2 0x2F73 PUSH2 0x2DA9 JUMP JUMPDEST JUMPDEST PUSH0 PUSH2 0x2F81 DUP6 DUP3 DUP7 ADD PUSH2 0x2DD0 JUMP JUMPDEST SWAP3 POP POP PUSH1 0x20 DUP4 ADD CALLDATALOAD PUSH8 0xFFFFFFFFFFFFFFFF DUP2 GT ISZERO PUSH2 0x2FA2 JUMPI PUSH2 0x2FA1 PUSH2 0x2DAD JUMP JUMPDEST JUMPDEST PUSH2 0x2FAE DUP6 DUP3 DUP7 ADD PUSH2 0x2F31 JUMP JUMPDEST SWAP2 POP POP SWAP3 POP SWAP3 SWAP1 POP JUMP JUMPDEST PUSH2 0x2FC1 DUP2 PUSH2 0x2DB1 JUMP JUMPDEST DUP3 MSTORE POP POP JUMP JUMPDEST PUSH0 PUSH20 0xFFFFFFFFFFFFFFFFFFFFFFFFFFFFFFFFFFFFFFFF DUP3 AND SWAP1 POP SWAP2 SWAP1 POP JUMP JUMPDEST PUSH0 PUSH2 0x2FF0 DUP3 PUSH2 0x2FC7 JUMP JUMPDEST SWAP1 POP SWAP2 SWAP1 POP JUMP JUMPDEST PUSH2 0x3000 DUP2 PUSH2 0x2FE6 JUMP JUMPDEST DUP3 MSTORE POP POP JUMP JUMPDEST PUSH0 DUP2 MLOAD SWAP1 POP SWAP2 SWAP1 POP JUMP JUMPDEST PUSH0 DUP3 DUP3 MSTORE PUSH1 0x20 DUP3 ADD SWAP1 POP SWAP3 SWAP2 POP POP JUMP JUMPDEST DUP3 DUP2 DUP4 MCOPY PUSH0 DUP4 DUP4 ADD MSTORE POP POP POP JUMP JUMPDEST PUSH0 PUSH2 0x3038 DUP3 PUSH2 0x3006 JUMP JUMPDEST PUSH2 0x3042 DUP2 DUP6 PUSH2 0x3010 JUMP JUMPDEST SWAP4 POP PUSH2 0x3052 DUP2 DUP6 PUSH1 0x20 DUP7 ADD PUSH2 0x3020 JUMP JUMPDEST PUSH2 0x305B DUP2 PUSH2 0x2E2A JUMP JUMPDEST DUP5 ADD SWAP2 POP POP SWAP3 SWAP2 POP POP JUMP JUMPDEST PUSH0 PUSH1 0xC0 DUP3 ADD SWAP1 POP PUSH2 0x3079 PUSH0 DUP4 ADD DUP10 PUSH2 0x2FB8 JUMP JUMPDEST PUSH2 0x3086 PUSH1 0x20 DUP4 ADD DUP9 PUSH2 0x2FF7 JUMP JUMPDEST DUP2 DUP2 SUB PUSH1 0x40 DUP4 ADD MSTORE PUSH2 0x3098 DUP2 DUP8 PUSH2 0x302E JUMP JUMPDEST SWAP1 POP PUSH2 0x30A7 PUSH1 0x60 DUP4 ADD DUP7 PUSH2 0x2FB8 JUMP JUMPDEST PUSH2 0x30B4 PUSH1 0x80 DUP4 ADD DUP6 PUSH2 0x2FB8 JUMP JUMPDEST PUSH2 0x30C1 PUSH1 0xA0 DUP4 ADD DUP5 PUSH2 0x2FB8 JUMP JUMPDEST SWAP8 SWAP7 POP POP POP POP POP POP POP JUMP JUMPDEST PUSH2 0x30D5 DUP2 PUSH2 0x2FE6 JUMP JUMPDEST DUP2 EQ PUSH2 0x30DF JUMPI PUSH0 DUP1 REVERT JUMPDEST POP JUMP JUMPDEST PUSH0 DUP2 CALLDATALOAD SWAP1 POP PUSH2 0x30F0 DUP2 PUSH2 0x30CC JUMP JUMPDEST SWAP3 SWAP2 POP POP JUMP JUMPDEST PUSH0 PUSH1 0x20 DUP3 DUP5 SUB SLT ISZERO PUSH2 0x310B JUMPI PUSH2 0x310A PUSH2 0x2DA9 JUMP JUMPDEST JUMPDEST PUSH0 PUSH2 0x3118 DUP5 DUP3 DUP6 ADD PUSH2 0x30E2 JUMP JUMPDEST SWAP2 POP POP SWAP3 SWAP2 POP POP JUMP JUMPDEST PUSH0 PUSH1 0x20 DUP3 ADD SWAP1 POP PUSH2 0x3134 PUSH0 DUP4 ADD DUP5 PUSH2 0x2FB8 JUMP JUMPDEST SWAP3 SWAP2 POP POP JUMP JUMPDEST PUSH0 PUSH1 0x20 DUP3 DUP5 SUB SLT ISZERO PUSH2 0x314F JUMPI PUSH2 0x314E PUSH2 0x2DA9 JUMP JUMPDEST JUMPDEST PUSH0 PUSH2 0x315C DUP5 DUP3 DUP6 ADD PUSH2 0x2DD0 JUMP JUMPDEST SWAP2 POP POP SWAP3 SWAP2 POP POP JUMP JUMPDEST PUSH0 DUP2 ISZERO ISZERO SWAP1 POP SWAP2 SWAP1 POP JUMP JUMPDEST PUSH2 0x3179 DUP2 PUSH2 0x3165 JUMP JUMPDEST DUP3 MSTORE POP POP JUMP JUMPDEST PUSH0 PUSH2 0x140 DUP3 ADD SWAP1 POP PUSH2 0x3193 PUSH0 DUP4 ADD DUP14 PUSH2 0x2FB8 JUMP JUMPDEST PUSH2 0x31A0 PUSH1 0x20 DUP4 ADD DUP13 PUSH2 0x2FF7 JUMP JUMPDEST DUP2 DUP2 SUB PUSH1 0x40 DUP4 ADD MSTORE PUSH2 0x31B2 DUP2 DUP12 PUSH2 0x302E JUMP JUMPDEST SWAP1 POP DUP2 DUP2 SUB PUSH1 0x60 DUP4 ADD MSTORE PUSH2 0x31C6 DUP2 DUP11 PUSH2 0x302E JUMP JUMPDEST SWAP1 POP DUP2 DUP2 SUB PUSH1 0x80 DUP4 ADD MSTORE PUSH2 0x31DA DUP2 DUP10 PUSH2 0x302E JUMP JUMPDEST SWAP1 POP PUSH2 0x31E9 PUSH1 0xA0 DUP4 ADD DUP9 PUSH2 0x2FB8 JUMP JUMPDEST PUSH2 0x31F6 PUSH1 0xC0 DUP4 ADD DUP8 PUSH2 0x2FB8 JUMP JUMPDEST PUSH2 0x3203 PUSH1 0xE0 DUP4 ADD DUP7 PUSH2 0x2FB8 JUMP JUMPDEST PUSH2 0x3211 PUSH2 0x100 DUP4 ADD DUP6 PUSH2 0x3170 JUMP JUMPDEST PUSH2 0x321F PUSH2 0x120 DUP4 ADD DUP5 PUSH2 0x2FB8 JUMP JUMPDEST SWAP12 SWAP11 POP POP POP POP POP POP POP POP POP POP POP JUMP JUMPDEST PUSH2 0x3237 DUP2 PUSH2 0x2DB1 JUMP JUMPDEST DUP3 MSTORE POP POP JUMP JUMPDEST PUSH2 0x3246 DUP2 PUSH2 0x2FE6 JUMP JUMPDEST DUP3 MSTORE POP POP JUMP JUMPDEST PUSH0 DUP3 DUP3 MSTORE PUSH1 0x20 DUP3 ADD SWAP1 POP SWAP3 SWAP2 POP POP JUMP JUMPDEST PUSH0 PUSH2 0x3266 DUP3 PUSH2 0x3006 JUMP JUMPDEST PUSH2 0x3270 DUP2 DUP6 PUSH2 0x324C JUMP JUMPDEST SWAP4 POP PUSH2 0x3280 DUP2 DUP6 PUSH1 0x20 DUP7 ADD PUSH2 0x3020 JUMP JUMPDEST PUSH2 0x3289 DUP2 PUSH2 0x2E2A JUMP JUMPDEST DUP5 ADD SWAP2 POP POP SWAP3 SWAP2 POP POP JUMP JUMPDEST PUSH0 PUSH1 0xC0 DUP4 ADD PUSH0 DUP4 ADD MLOAD PUSH2 0x32A9 PUSH0 DUP7 ADD DUP3 PUSH2 0x322E JUMP JUMPDEST POP PUSH1 0x20 DUP4 ADD MLOAD PUSH2 0x32BC PUSH1 0x20 DUP7 ADD DUP3 PUSH2 0x323D JUMP JUMPDEST POP PUSH1 0x40 DUP4 ADD MLOAD DUP5 DUP3 SUB PUSH1 0x40 DUP7 ADD MSTORE PUSH2 0x32D4 DUP3 DUP3 PUSH2 0x325C JUMP JUMPDEST SWAP2 POP POP PUSH1 0x60 DUP4 ADD MLOAD PUSH2 0x32E9 PUSH1 0x60 DUP7 ADD DUP3 PUSH2 0x322E JUMP JUMPDEST POP PUSH1 0x80 DUP4 ADD MLOAD PUSH2 0x32FC PUSH1 0x80 DUP7 ADD DUP3 PUSH2 0x322E JUMP JUMPDEST POP PUSH1 0xA0 DUP4 ADD MLOAD PUSH2 0x330F PUSH1 0xA0 DUP7 ADD DUP3 PUSH2 0x322E JUMP JUMPDEST POP DUP1 SWAP2 POP POP SWAP3 SWAP2 POP POP JUMP JUMPDEST PUSH0 PUSH1 0x20 DUP3 ADD SWAP1 POP DUP2 DUP2 SUB PUSH0 DUP4 ADD MSTORE PUSH2 0x3332 DUP2 DUP5 PUSH2 0x3294 JUMP JUMPDEST SWAP1 POP SWAP3 SWAP2 POP POP JUMP JUMPDEST PUSH0 PUSH1 0x20 DUP3 DUP5 SUB SLT ISZERO PUSH2 0x334F JUMPI PUSH2 0x334E PUSH2 0x2DA9 JUMP JUMPDEST JUMPDEST PUSH0 DUP3 ADD CALLDATALOAD PUSH8 0xFFFFFFFFFFFFFFFF DUP2 GT ISZERO PUSH2 0x336C JUMPI PUSH2 0x336B PUSH2 0x2DAD JUMP JUMPDEST JUMPDEST PUSH2 0x3378 DUP5 DUP3 DUP6 ADD PUSH2 0x2F31 JUMP JUMPDEST SWAP2 POP POP SWAP3 SWAP2 POP POP JUMP JUMPDEST PUSH0 DUP2 MLOAD SWAP1 POP SWAP2 SWAP1 POP JUMP JUMPDEST PUSH0 DUP3 DUP3 MSTORE PUSH1 0x20 DUP3 ADD SWAP1 POP SWAP3 SWAP2 POP POP JUMP JUMPDEST PUSH0 DUP2 SWAP1 POP PUSH1 0x20 DUP3 ADD SWAP1 POP SWAP2 SWAP1 POP JUMP JUMPDEST PUSH0 PUSH2 0x33B5 DUP4 DUP4 PUSH2 0x322E JUMP JUMPDEST PUSH1 0x20 DUP4 ADD SWAP1 POP SWAP3 SWAP2 POP POP JUMP JUMPDEST PUSH0 PUSH1 0x20 DUP3 ADD SWAP1 POP SWAP2 SWAP1 POP JUMP JUMPDEST PUSH0 PUSH2 0x33D7 DUP3 PUSH2 0x3381 JUMP JUMPDEST PUSH2 0x33E1 DUP2 DUP6 PUSH2 0x338B JUMP JUMPDEST SWAP4 POP PUSH2 0x33EC DUP4 PUSH2 0x339B JUMP JUMPDEST DUP1 PUSH0 JUMPDEST DUP4 DUP2 LT ISZERO PUSH2 0x341C JUMPI DUP2 MLOAD PUSH2 0x3403 DUP9 DUP3 PUSH2 0x33AA JUMP JUMPDEST SWAP8 POP PUSH2 0x340E DUP4 PUSH2 0x33C1 JUMP JUMPDEST SWAP3 POP POP PUSH1 0x1 DUP2 ADD SWAP1 POP PUSH2 0x33EF JUMP JUMPDEST POP DUP6 SWAP4 POP POP POP POP SWAP3 SWAP2 POP POP JUMP JUMPDEST PUSH0 PUSH1 0x20 DUP3 ADD SWAP1 POP DUP2 DUP2 SUB PUSH0 DUP4 ADD MSTORE PUSH2 0x3441 DUP2 DUP5 PUSH2 0x33CD JUMP JUMPDEST SWAP1 POP SWAP3 SWAP2 POP POP JUMP JUMPDEST PUSH1 0x3 DUP2 LT PUSH2 0x3455 JUMPI PUSH0 DUP1 REVERT JUMPDEST POP JUMP JUMPDEST PUSH0 DUP2 CALLDATALOAD SWAP1 POP PUSH2 0x3466 DUP2 PUSH2 0x3449 JUMP JUMPDEST SWAP3 SWAP2 POP POP JUMP JUMPDEST PUSH0 DUP1 PUSH0 DUP1 PUSH1 0x80 DUP6 DUP8 SUB SLT ISZERO PUSH2 0x3484 JUMPI PUSH2 0x3483 PUSH2 0x2DA9 JUMP JUMPDEST JUMPDEST PUSH0 DUP6 ADD CALLDATALOAD PUSH8 0xFFFFFFFFFFFFFFFF DUP2 GT ISZERO PUSH2 0x34A1 JUMPI PUSH2 0x34A0 PUSH2 0x2DAD JUMP JUMPDEST JUMPDEST PUSH2 0x34AD DUP8 DUP3 DUP9 ADD PUSH2 0x2F31 JUMP JUMPDEST SWAP5 POP POP PUSH1 0x20 DUP6 ADD CALLDATALOAD PUSH8 0xFFFFFFFFFFFFFFFF DUP2 GT ISZERO PUSH2 0x34CE JUMPI PUSH2 0x34CD PUSH2 0x2DAD JUMP JUMPDEST JUMPDEST PUSH2 0x34DA DUP8 DUP3 DUP9 ADD PUSH2 0x2F31 JUMP JUMPDEST SWAP4 POP POP PUSH1 0x40 DUP6 ADD CALLDATALOAD PUSH8 0xFFFFFFFFFFFFFFFF DUP2 GT ISZERO PUSH2 0x34FB JUMPI PUSH2 0x34FA PUSH2 0x2DAD JUMP JUMPDEST JUMPDEST PUSH2 0x3507 DUP8 DUP3 DUP9 ADD PUSH2 0x2F31 JUMP JUMPDEST SWAP3 POP POP PUSH1 0x60 PUSH2 0x3518 DUP8 DUP3 DUP9 ADD PUSH2 0x3458 JUMP JUMPDEST SWAP2 POP POP SWAP3 SWAP6 SWAP2 SWAP5 POP SWAP3 POP JUMP JUMPDEST PUSH0 PUSH1 0x20 DUP3 ADD SWAP1 POP PUSH2 0x3537 PUSH0 DUP4 ADD DUP5 PUSH2 0x2FF7 JUMP JUMPDEST SWAP3 SWAP2 POP POP JUMP JUMPDEST PUSH2 0x3546 DUP2 PUSH2 0x3165 JUMP JUMPDEST DUP3 MSTORE POP POP JUMP JUMPDEST PUSH0 PUSH2 0x140 DUP4 ADD PUSH0 DUP4 ADD MLOAD PUSH2 0x3562 PUSH0 DUP7 ADD DUP3 PUSH2 0x322E JUMP JUMPDEST POP PUSH1 0x20 DUP4 ADD MLOAD PUSH2 0x3575 PUSH1 0x20 DUP7 ADD DUP3 PUSH2 0x323D JUMP JUMPDEST POP PUSH1 0x40 DUP4 ADD MLOAD DUP5 DUP3 SUB PUSH1 0x40 DUP7 ADD MSTORE PUSH2 0x358D DUP3 DUP3 PUSH2 0x325C JUMP JUMPDEST SWAP2 POP POP PUSH1 0x60 DUP4 ADD MLOAD DUP5 DUP3 SUB PUSH1 0x60 DUP7 ADD MSTORE PUSH2 0x35A7 DUP3 DUP3 PUSH2 0x325C JUMP JUMPDEST SWAP2 POP POP PUSH1 0x80 DUP4 ADD MLOAD DUP5 DUP3 SUB PUSH1 0x80 DUP7 ADD MSTORE PUSH2 0x35C1 DUP3 DUP3 PUSH2 0x325C JUMP JUMPDEST SWAP2 POP POP PUSH1 0xA0 DUP4 ADD MLOAD PUSH2 0x35D6 PUSH1 0xA0 DUP7 ADD DUP3 PUSH2 0x322E JUMP JUMPDEST POP PUSH1 0xC0 DUP4 ADD MLOAD PUSH2 0x35E9 PUSH1 0xC0 DUP7 ADD DUP3 PUSH2 0x322E JUMP JUMPDEST POP PUSH1 0xE0 DUP4 ADD MLOAD PUSH2 0x35FC PUSH1 0xE0 DUP7 ADD DUP3 PUSH2 0x322E JUMP JUMPDEST POP PUSH2 0x100 DUP4 ADD MLOAD PUSH2 0x3611 PUSH2 0x100 DUP7 ADD DUP3 PUSH2 0x353D JUMP JUMPDEST POP PUSH2 0x120 DUP4 ADD MLOAD PUSH2 0x3626 PUSH2 0x120 DUP7 ADD DUP3 PUSH2 0x322E JUMP JUMPDEST POP DUP1 SWAP2 POP POP SWAP3 SWAP2 POP POP JUMP JUMPDEST PUSH0 PUSH1 0x20 DUP3 ADD SWAP1 POP DUP2 DUP2 SUB PUSH0 DUP4 ADD MSTORE PUSH2 0x3649 DUP2 DUP5 PUSH2 0x354C JUMP JUMPDEST SWAP1 POP SWAP3 SWAP2 POP POP JUMP JUMPDEST PUSH0 DUP1 PUSH0 PUSH1 0x60 DUP5 DUP7 SUB SLT ISZERO PUSH2 0x3668 JUMPI PUSH2 0x3667 PUSH2 0x2DA9 JUMP JUMPDEST JUMPDEST PUSH0 PUSH2 0x3675 DUP7 DUP3 DUP8 ADD PUSH2 0x2DD0 JUMP JUMPDEST SWAP4 POP POP PUSH1 0x20 PUSH2 0x3686 DUP7 DUP3 DUP8 ADD PUSH2 0x2DD0 JUMP JUMPDEST SWAP3 POP POP PUSH1 0x40 PUSH2 0x3697 DUP7 DUP3 DUP8 ADD PUSH2 0x2DD0 JUMP JUMPDEST SWAP2 POP POP SWAP3 POP SWAP3 POP SWAP3 JUMP JUMPDEST PUSH0 DUP2 MLOAD SWAP1 POP SWAP2 SWAP1 POP JUMP JUMPDEST PUSH0 DUP3 DUP3 MSTORE PUSH1 0x20 DUP3 ADD SWAP1 POP SWAP3 SWAP2 POP POP JUMP JUMPDEST PUSH0 DUP2 SWAP1 POP PUSH1 0x20 DUP3 ADD SWAP1 POP SWAP2 SWAP1 POP JUMP JUMPDEST PUSH0 PUSH1 0xC0 DUP4 ADD PUSH0 DUP4 ADD MLOAD PUSH2 0x36DF PUSH0 DUP7 ADD DUP3 PUSH2 0x322E JUMP JUMPDEST POP PUSH1 0x20 DUP4 ADD MLOAD PUSH2 0x36F2 PUSH1 0x20 DUP7 ADD DUP3 PUSH2 0x323D JUMP JUMPDEST POP PUSH1 0x40 DUP4 ADD MLOAD DUP5 DUP3 SUB PUSH1 0x40 DUP7 ADD MSTORE PUSH2 0x370A DUP3 DUP3 PUSH2 0x325C JUMP JUMPDEST SWAP2 POP POP PUSH1 0x60 DUP4 ADD MLOAD PUSH2 0x371F PUSH1 0x60 DUP7 ADD DUP3 PUSH2 0x322E JUMP JUMPDEST POP PUSH1 0x80 DUP4 ADD MLOAD PUSH2 0x3732 PUSH1 0x80 DUP7 ADD DUP3 PUSH2 0x322E JUMP JUMPDEST POP PUSH1 0xA0 DUP4 ADD MLOAD PUSH2 0x3745 PUSH1 0xA0 DUP7 ADD DUP3 PUSH2 0x322E JUMP JUMPDEST POP DUP1 SWAP2 POP POP SWAP3 SWAP2 POP POP JUMP JUMPDEST PUSH0 PUSH2 0x375B DUP4 DUP4 PUSH2 0x36CA JUMP JUMPDEST SWAP1 POP SWAP3 SWAP2 POP POP JUMP JUMPDEST PUSH0 PUSH1 0x20 DUP3 ADD SWAP1 POP SWAP2 SWAP1 POP JUMP JUMPDEST PUSH0 PUSH2 0x3779 DUP3 PUSH2 0x36A1 JUMP JUMPDEST PUSH2 0x3783 DUP2 DUP6 PUSH2 0x36AB JUMP JUMPDEST SWAP4 POP DUP4 PUSH1 0x20 DUP3 MUL DUP6 ADD PUSH2 0x3795 DUP6 PUSH2 0x36BB JUMP JUMPDEST DUP1 PUSH0 JUMPDEST DUP6 DUP2 LT ISZERO PUSH2 0x37D0 JUMPI DUP5 DUP5 SUB DUP10 MSTORE DUP2 MLOAD PUSH2 0x37B1 DUP6 DUP3 PUSH2 0x3750 JUMP JUMPDEST SWAP5 POP PUSH2 0x37BC DUP4 PUSH2 0x3763 JUMP JUMPDEST SWAP3 POP PUSH1 0x20 DUP11 ADD SWAP10 POP POP PUSH1 0x1 DUP2 ADD SWAP1 POP PUSH2 0x3798 JUMP JUMPDEST POP DUP3 SWAP8 POP DUP8 SWAP6 POP POP POP POP POP POP SWAP3 SWAP2 POP POP JUMP JUMPDEST PUSH0 PUSH1 0x60 DUP3 ADD SWAP1 POP DUP2 DUP2 SUB PUSH0 DUP4 ADD MSTORE PUSH2 0x37FA DUP2 DUP7 PUSH2 0x376F JUMP JUMPDEST SWAP1 POP PUSH2 0x3809 PUSH1 0x20 DUP4 ADD DUP6 PUSH2 0x2FB8 JUMP JUMPDEST PUSH2 0x3816 PUSH1 0x40 DUP4 ADD DUP5 PUSH2 0x2FB8 JUMP JUMPDEST SWAP5 SWAP4 POP POP POP POP JUMP JUMPDEST PUSH0 DUP2 MLOAD SWAP1 POP SWAP2 SWAP1 POP JUMP JUMPDEST PUSH0 DUP3 DUP3 MSTORE PUSH1 0x20 DUP3 ADD SWAP1 POP SWAP3 SWAP2 POP POP JUMP JUMPDEST PUSH0 DUP2 SWAP1 POP PUSH1 0x20 DUP3 ADD SWAP1 POP SWAP2 SWAP1 POP JUMP JUMPDEST PUSH0 PUSH2 0x140 DUP4 ADD PUSH0 DUP4 ADD MLOAD PUSH2 0x385D PUSH0 DUP7 ADD DUP3 PUSH2 0x322E JUMP JUMPDEST POP PUSH1 0x20 DUP4 ADD MLOAD PUSH2 0x3870 PUSH1 0x20 DUP7 ADD DUP3 PUSH2 0x323D JUMP JUMPDEST POP PUSH1 0x40 DUP4 ADD MLOAD DUP5 DUP3 SUB PUSH1 0x40 DUP7 ADD MSTORE PUSH2 0x3888 DUP3 DUP3 PUSH2 0x325C JUMP JUMPDEST SWAP2 POP POP PUSH1 0x60 DUP4 ADD MLOAD DUP5 DUP3 SUB PUSH1 0x60 DUP7 ADD MSTORE PUSH2 0x38A2 DUP3 DUP3 PUSH2 0x325C JUMP JUMPDEST SWAP2 POP POP PUSH1 0x80 DUP4 ADD MLOAD DUP5 DUP3 SUB PUSH1 0x80 DUP7 ADD MSTORE PUSH2 0x38BC DUP3 DUP3 PUSH2 0x325C JUMP JUMPDEST SWAP2 POP POP PUSH1 0xA0 DUP4 ADD MLOAD PUSH2 0x38D1 PUSH1 0xA0 DUP7 ADD DUP3 PUSH2 0x322E JUMP JUMPDEST POP PUSH1 0xC0 DUP4 ADD MLOAD PUSH2 0x38E4 PUSH1 0xC0 DUP7 ADD DUP3 PUSH2 0x322E JUMP JUMPDEST POP PUSH1 0xE0 DUP4 ADD MLOAD PUSH2 0x38F7 PUSH1 0xE0 DUP7 ADD DUP3 PUSH2 0x322E JUMP JUMPDEST POP PUSH2 0x100 DUP4 ADD MLOAD PUSH2 0x390C PUSH2 0x100 DUP7 ADD DUP3 PUSH2 0x353D JUMP JUMPDEST POP PUSH2 0x120 DUP4 ADD MLOAD PUSH2 0x3921 PUSH2 0x120 DUP7 ADD DUP3 PUSH2 0x322E JUMP JUMPDEST POP DUP1 SWAP2 POP POP SWAP3 SWAP2 POP POP JUMP JUMPDEST PUSH0 PUSH2 0x3937 DUP4 DUP4 PUSH2 0x3847 JUMP JUMPDEST SWAP1 POP SWAP3 SWAP2 POP POP JUMP JUMPDEST PUSH0 PUSH1 0x20 DUP3 ADD SWAP1 POP SWAP2 SWAP1 POP JUMP JUMPDEST PUSH0 PUSH2 0x3955 DUP3 PUSH2 0x381E JUMP JUMPDEST PUSH2 0x395F DUP2 DUP6 PUSH2 0x3828 JUMP JUMPDEST SWAP4 POP DUP4 PUSH1 0x20 DUP3 MUL DUP6 ADD PUSH2 0x3971 DUP6 PUSH2 0x3838 JUMP JUMPDEST DUP1 PUSH0 JUMPDEST DUP6 DUP2 LT ISZERO PUSH2 0x39AC JUMPI DUP5 DUP5 SUB DUP10 MSTORE DUP2 MLOAD PUSH2 0x398D DUP6 DUP3 PUSH2 0x392C JUMP JUMPDEST SWAP5 POP PUSH2 0x3998 DUP4 PUSH2 0x393F JUMP JUMPDEST SWAP3 POP PUSH1 0x20 DUP11 ADD SWAP10 POP POP PUSH1 0x1 DUP2 ADD SWAP1 POP PUSH2 0x3974 JUMP JUMPDEST POP DUP3 SWAP8 POP DUP8 SWAP6 POP POP POP POP POP POP SWAP3 SWAP2 POP POP JUMP JUMPDEST PUSH0 PUSH1 0x60 DUP3 ADD SWAP1 POP DUP2 DUP2 SUB PUSH0 DUP4 ADD MSTORE PUSH2 0x39D6 DUP2 DUP7 PUSH2 0x394B JUMP JUMPDEST SWAP1 POP PUSH2 0x39E5 PUSH1 0x20 DUP4 ADD DUP6 PUSH2 0x2FB8 JUMP JUMPDEST PUSH2 0x39F2 PUSH1 0x40 DUP4 ADD DUP5 PUSH2 0x2FB8 JUMP JUMPDEST SWAP5 SWAP4 POP POP POP POP JUMP JUMPDEST PUSH32 0x5175657374696F6E20646F6573206E6F74206578697374000000000000000000 PUSH0 DUP3 ADD MSTORE POP JUMP JUMPDEST PUSH0 PUSH2 0x3A2E PUSH1 0x17 DUP4 PUSH2 0x3010 JUMP JUMPDEST SWAP2 POP PUSH2 0x3A39 DUP3 PUSH2 0x39FA JUMP JUMPDEST PUSH1 0x20 DUP3 ADD SWAP1 POP SWAP2 SWAP1 POP JUMP JUMPDEST PUSH0 PUSH1 0x20 DUP3 ADD SWAP1 POP DUP2 DUP2 SUB PUSH0 DUP4 ADD MSTORE PUSH2 0x3A5B DUP2 PUSH2 0x3A22 JUMP JUMPDEST SWAP1 POP SWAP2 SWAP1 POP JUMP JUMPDEST PUSH32 0x5175657374696F6E20697320616C726561647920636C6F736564000000000000 PUSH0 DUP3 ADD MSTORE POP JUMP JUMPDEST PUSH0 PUSH2 0x3A96 PUSH1 0x1A DUP4 PUSH2 0x3010 JUMP JUMPDEST SWAP2 POP PUSH2 0x3AA1 DUP3 PUSH2 0x3A62 JUMP JUMPDEST PUSH1 0x20 DUP3 ADD SWAP1 POP SWAP2 SWAP1 POP JUMP JUMPDEST PUSH0 PUSH1 0x20 DUP3 ADD SWAP1 POP DUP2 DUP2 SUB PUSH0 DUP4 ADD MSTORE PUSH2 0x3AC3 DUP2 PUSH2 0x3A8A JUMP JUMPDEST SWAP1 POP SWAP2 SWAP1 POP JUMP JUMPDEST PUSH32 0x4F6E6C792061736B65722063616E20636C6F7365207175657374696F6E000000 PUSH0 DUP3 ADD MSTORE POP JUMP JUMPDEST PUSH0 PUSH2 0x3AFE PUSH1 0x1D DUP4 PUSH2 0x3010 JUMP JUMPDEST SWAP2 POP PUSH2 0x3B09 DUP3 PUSH2 0x3ACA JUMP JUMPDEST PUSH1 0x20 DUP3 ADD SWAP1 POP SWAP2 SWAP1 POP JUMP JUMPDEST PUSH0 PUSH1 0x20 DUP3 ADD SWAP1 POP DUP2 DUP2 SUB PUSH0 DUP4 ADD MSTORE PUSH2 0x3B2B DUP2 PUSH2 0x3AF2 JUMP JUMPDEST SWAP1 POP SWAP2 SWAP1 POP JUMP JUMPDEST PUSH0 PUSH1 0x40 DUP3 ADD SWAP1 POP PUSH2 0x3B45 PUSH0 DUP4 ADD DUP6 PUSH2 0x2FB8 JUMP JUMPDEST PUSH2 0x3B52 PUSH1 0x20 DUP4 ADD DUP5 PUSH2 0x2FB8 JUMP JUMPDEST SWAP4 SWAP3 POP POP POP JUMP JUMPDEST PUSH32 0x4E487B7100000000000000000000000000000000000000000000000000000000 PUSH0 MSTORE PUSH1 0x22 PUSH1 0x4 MSTORE PUSH1 0x24 PUSH0 REVERT JUMPDEST PUSH0 PUSH1 0x2 DUP3 DIV SWAP1 POP PUSH1 0x1 DUP3 AND DUP1 PUSH2 0x3B9D JUMPI PUSH1 0x7F DUP3 AND SWAP2 POP JUMPDEST PUSH1 0x20 DUP3 LT DUP2 SUB PUSH2 0x3BB0 JUMPI PUSH2 0x3BAF PUSH2 0x3B59 JUMP JUMPDEST JUMPDEST POP SWAP2 SWAP1 POP JUMP JUMPDEST PUSH32 0x5175657374696F6E20646561646C696E65206861732070617373656400000000 PUSH0 DUP3 ADD MSTORE POP JUMP JUMPDEST PUSH0 PUSH2 0x3BEA PUSH1 0x1C DUP4 PUSH2 0x3010 JUMP JUMPDEST SWAP2 POP PUSH2 0x3BF5 DUP3 PUSH2 0x3BB6 JUMP JUMPDEST PUSH1 0x20 DUP3 ADD SWAP1 POP SWAP2 SWAP1 POP JUMP JUMPDEST PUSH0 PUSH1 0x20 DUP3 ADD SWAP1 POP DUP2 DUP2 SUB PUSH0 DUP4 ADD MSTORE PUSH2 0x3C17 DUP2 PUSH2 0x3BDE JUMP JUMPDEST SWAP1 POP SWAP2 SWAP1 POP JUMP JUMPDEST PUSH32 0x4E487B7100000000000000000000000000000000000000000000000000000000 PUSH0 MSTORE PUSH1 0x11 PUSH1 0x4 MSTORE PUSH1 0x24 PUSH0 REVERT JUMPDEST PUSH0 PUSH2 0x3C55 DUP3 PUSH2 0x2DB1 JUMP JUMPDEST SWAP2 POP PUSH32 0xFFFFFFFFFFFFFFFFFFFFFFFFFFFFFFFFFFFFFFFFFFFFFFFFFFFFFFFFFFFFFFFF DUP3 SUB PUSH2 0x3C87 JUMPI PUSH2 0x3C86 PUSH2 0x3C1E JUMP JUMPDEST JUMPDEST PUSH1 0x1 DUP3 ADD SWAP1 POP SWAP2 SWAP1 POP JUMP JUMPDEST PUSH0 DUP2 SWAP1 POP DUP2 PUSH0 MSTORE PUSH1 0x20 PUSH0 KECCAK256 SWAP1 POP SWAP2 SWAP1 POP JUMP JUMPDEST PUSH0 PUSH1 0x20 PUSH1 0x1F DUP4 ADD DIV SWAP1 POP SWAP2 SWAP1 POP JUMP JUMPDEST PUSH0 DUP3 DUP3 SHL SWAP1 POP SWAP3 SWAP2 POP POP JUMP JUMPDEST PUSH0 PUSH1 0x8 DUP4 MUL PUSH2 0x3CEE PUSH32 0xFFFFFFFFFFFFFFFFFFFFFFFFFFFFFFFFFFFFFFFFFFFFFFFFFFFFFFFFFFFFFFFF DUP3 PUSH2 0x3CB3 JUMP JUMPDEST PUSH2 0x3CF8 DUP7 DUP4 PUSH2 0x3CB3 JUMP JUMPDEST SWAP6 POP DUP1 NOT DUP5 AND SWAP4 POP DUP1 DUP7 AND DUP5 OR SWAP3 POP POP POP SWAP4 SWAP3 POP POP POP JUMP JUMPDEST PUSH0 DUP2 SWAP1 POP SWAP2 SWAP1 POP JUMP JUMPDEST PUSH0 PUSH2 0x3D33 PUSH2 0x3D2E PUSH2 0x3D29 DUP5 PUSH2 0x2DB1 JUMP JUMPDEST PUSH2 0x3D10 JUMP JUMPDEST PUSH2 0x2DB1 JUMP JUMPDEST SWAP1 POP SWAP2 SWAP1 POP JUMP JUMPDEST PUSH0 DUP2 SWAP1 POP SWAP2 SWAP1 POP JUMP JUMPDEST PUSH2 0x3D4C DUP4 PUSH2 0x3D19 JUMP JUMPDEST PUSH2 0x3D60 PUSH2 0x3D58 DUP3 PUSH2 0x3D3A JUMP JUMPDEST DUP5 DUP5 SLOAD PUSH2 0x3CBF JUMP JUMPDEST DUP3 SSTORE POP POP POP POP JUMP JUMPDEST PUSH0 SWAP1 JUMP JUMPDEST PUSH2 0x3D74 PUSH2 0x3D68 JUMP JUMPDEST PUSH2 0x3D7F DUP2 DUP5 DUP5 PUSH2 0x3D43 JUMP JUMPDEST POP POP POP JUMP JUMPDEST JUMPDEST DUP2 DUP2 LT ISZERO PUSH2 0x3DA2 JUMPI PUSH2 0x3D97 PUSH0 DUP3 PUSH2 0x3D6C JUMP JUMPDEST PUSH1 0x1 DUP2 ADD SWAP1 POP PUSH2 0x3D85 JUMP JUMPDEST POP POP JUMP JUMPDEST PUSH1 0x1F DUP3 GT ISZERO PUSH2 0x3DE7 JUMPI PUSH2 0x3DB8 DUP2 PUSH2 0x3C92 JUMP JUMPDEST PUSH2 0x3DC1 DUP5 PUSH2 0x3CA4 JUMP JUMPDEST DUP2 ADD PUSH1 0x20 DUP6 LT ISZERO PUSH2 0x3DD0 JUMPI DUP2 SWAP1 POP JUMPDEST PUSH2 0x3DE4 PUSH2 0x3DDC DUP6 PUSH2 0x3CA4 JUMP JUMPDEST DUP4 ADD DUP3 PUSH2 0x3D84 JUMP JUMPDEST POP POP JUMPDEST POP POP POP JUMP JUMPDEST PUSH0 DUP3 DUP3 SHR SWAP1 POP SWAP3 SWAP2 POP POP JUMP JUMPDEST PUSH0 PUSH2 0x3E07 PUSH0 NOT DUP5 PUSH1 0x8 MUL PUSH2 0x3DEC JUMP JUMPDEST NOT DUP1 DUP4 AND SWAP2 POP POP SWAP3 SWAP2 POP POP JUMP JUMPDEST PUSH0 PUSH2 0x3E1F DUP4 DUP4 PUSH2 0x3DF8 JUMP JUMPDEST SWAP2 POP DUP3 PUSH1 0x2 MUL DUP3 OR SWAP1 POP SWAP3 SWAP2 POP POP JUMP JUMPDEST PUSH2 0x3E38 DUP3 PUSH2 0x3006 JUMP JUMPDEST PUSH8 0xFFFFFFFFFFFFFFFF DUP2 GT ISZERO PUSH2 0x3E51 JUMPI PUSH2 0x3E50 PUSH2 0x2E3A JUMP JUMPDEST JUMPDEST PUSH2 0x3E5B DUP3 SLOAD PUSH2 0x3B86 JUMP JUMPDEST PUSH2 0x3E66 DUP3 DUP3 DUP6 PUSH2 0x3DA6 JUMP JUMPDEST PUSH0 PUSH1 0x20 SWAP1 POP PUSH1 0x1F DUP4 GT PUSH1 0x1 DUP2 EQ PUSH2 0x3E97 JUMPI PUSH0 DUP5 ISZERO PUSH2 0x3E85 JUMPI DUP3 DUP8 ADD MLOAD SWAP1 POP JUMPDEST PUSH2 0x3E8F DUP6 DUP3 PUSH2 0x3E14 JUMP JUMPDEST DUP7 SSTORE POP PUSH2 0x3EF6 JUMP JUMPDEST PUSH1 0x1F NOT DUP5 AND PUSH2 0x3EA5 DUP7 PUSH2 0x3C92 JUMP JUMPDEST PUSH0 JUMPDEST DUP3 DUP2 LT ISZERO PUSH2 0x3ECC JUMPI DUP5 DUP10 ADD MLOAD DUP3 SSTORE PUSH1 0x1 DUP3 ADD SWAP2 POP PUSH1 0x20 DUP6 ADD SWAP5 POP PUSH1 0x20 DUP2 ADD SWAP1 POP PUSH2 0x3EA7 JUMP JUMPDEST DUP7 DUP4 LT ISZERO PUSH2 0x3EE9 JUMPI DUP5 DUP10 ADD MLOAD PUSH2 0x3EE5 PUSH1 0x1F DUP10 AND DUP3 PUSH2 0x3DF8 JUMP JUMPDEST DUP4 SSTORE POP JUMPDEST PUSH1 0x1 PUSH1 0x2 DUP9 MUL ADD DUP9 SSTORE POP POP POP JUMPDEST POP POP POP POP POP POP JUMP JUMPDEST PUSH0 PUSH1 0x60 DUP3 ADD SWAP1 POP PUSH2 0x3F11 PUSH0 DUP4 ADD DUP7 PUSH2 0x2FB8 JUMP JUMPDEST PUSH2 0x3F1E PUSH1 0x20 DUP4 ADD DUP6 PUSH2 0x2FB8 JUMP JUMPDEST DUP2 DUP2 SUB PUSH1 0x40 DUP4 ADD MSTORE PUSH2 0x3F30 DUP2 DUP5 PUSH2 0x302E JUMP JUMPDEST SWAP1 POP SWAP5 SWAP4 POP POP POP POP JUMP JUMPDEST PUSH32 0x566F74696E6720706572696F642068617320656E646564000000000000000000 PUSH0 DUP3 ADD MSTORE POP JUMP JUMPDEST PUSH0 PUSH2 0x3F6E PUSH1 0x17 DUP4 PUSH2 0x3010 JUMP JUMPDEST SWAP2 POP PUSH2 0x3F79 DUP3 PUSH2 0x3F3A JUMP JUMPDEST PUSH1 0x20 DUP3 ADD SWAP1 POP SWAP2 SWAP1 POP JUMP JUMPDEST PUSH0 PUSH1 0x20 DUP3 ADD SWAP1 POP DUP2 DUP2 SUB PUSH0 DUP4 ADD MSTORE PUSH2 0x3F9B DUP2 PUSH2 0x3F62 JUMP JUMPDEST SWAP1 POP SWAP2 SWAP1 POP JUMP JUMPDEST PUSH32 0x496E636F727265637420766F7465206665650000000000000000000000000000 PUSH0 DUP3 ADD MSTORE POP JUMP JUMPDEST PUSH0 PUSH2 0x3FD6 PUSH1 0x12 DUP4 PUSH2 0x3010 JUMP JUMPDEST SWAP2 POP PUSH2 0x3FE1 DUP3 PUSH2 0x3FA2 JUMP JUMPDEST PUSH1 0x20 DUP3 ADD SWAP1 POP SWAP2 SWAP1 POP JUMP JUMPDEST PUSH0 PUSH1 0x20 DUP3 ADD SWAP1 POP DUP2 DUP2 SUB PUSH0 DUP4 ADD MSTORE PUSH2 0x4003 DUP2 PUSH2 0x3FCA JUMP JUMPDEST SWAP1 POP SWAP2 SWAP1 POP JUMP JUMPDEST PUSH0 PUSH2 0x4014 DUP3 PUSH2 0x2DB1 JUMP JUMPDEST SWAP2 POP PUSH2 0x401F DUP4 PUSH2 0x2DB1 JUMP JUMPDEST SWAP3 POP DUP3 DUP3 ADD SWAP1 POP DUP1 DUP3 GT ISZERO PUSH2 0x4037 JUMPI PUSH2 0x4036 PUSH2 0x3C1E JUMP JUMPDEST JUMPDEST SWAP3 SWAP2 POP POP JUMP JUMPDEST PUSH32 0x4E6F2066756E647320746F207769746864726177000000000000000000000000 PUSH0 DUP3 ADD MSTORE POP JUMP JUMPDEST PUSH0 PUSH2 0x4071 PUSH1 0x14 DUP4 PUSH2 0x3010 JUMP JUMPDEST SWAP2 POP PUSH2 0x407C DUP3 PUSH2 0x403D JUMP JUMPDEST PUSH1 0x20 DUP3 ADD SWAP1 POP SWAP2 SWAP1 POP JUMP JUMPDEST PUSH0 PUSH1 0x20 DUP3 ADD SWAP1 POP DUP2 DUP2 SUB PUSH0 DUP4 ADD MSTORE PUSH2 0x409E DUP2 PUSH2 0x4065 JUMP JUMPDEST SWAP1 POP SWAP2 SWAP1 POP JUMP JUMPDEST PUSH32 0x416E7377657220646F6573206E6F742065786973740000000000000000000000 PUSH0 DUP3 ADD MSTORE POP JUMP JUMPDEST PUSH0 PUSH2 0x40D9 PUSH1 0x15 DUP4 PUSH2 0x3010 JUMP JUMPDEST SWAP2 POP PUSH2 0x40E4 DUP3 PUSH2 0x40A5 JUMP JUMPDEST PUSH1 0x20 DUP3 ADD SWAP1 POP SWAP2 SWAP1 POP JUMP JUMPDEST PUSH0 PUSH1 0x20 DUP3 ADD SWAP1 POP DUP2 DUP2 SUB PUSH0 DUP4 ADD MSTORE PUSH2 0x4106 DUP2 PUSH2 0x40CD JUMP JUMPDEST SWAP1 POP SWAP2 SWAP1 POP JUMP JUMPDEST PUSH0 DUP2 SWAP1 POP SWAP3 SWAP2 POP POP JUMP JUMPDEST PUSH0 DUP2 SWAP1 POP DUP2 PUSH0 MSTORE PUSH1 0x20 PUSH0 KECCAK256 SWAP1 POP SWAP2 SWAP1 POP JUMP JUMPDEST PUSH0 DUP2 SLOAD PUSH2 0x4135 DUP2 PUSH2 0x3B86 JUMP JUMPDEST PUSH2 0x413F DUP2 DUP7 PUSH2 0x410D JUMP JUMPDEST SWAP5 POP PUSH1 0x1 DUP3 AND PUSH0 DUP2 EQ PUSH2 0x4159 JUMPI PUSH1 0x1 DUP2 EQ PUSH2 0x416E JUMPI PUSH2 0x41A0 JUMP JUMPDEST PUSH1 0xFF NOT DUP4 AND DUP7 MSTORE DUP2 ISZERO ISZERO DUP3 MUL DUP7 ADD SWAP4 POP PUSH2 0x41A0 JUMP JUMPDEST PUSH2 0x4177 DUP6 PUSH2 0x4117 JUMP JUMPDEST PUSH0 JUMPDEST DUP4 DUP2 LT ISZERO PUSH2 0x4198 JUMPI DUP2 SLOAD DUP2 DUP10 ADD MSTORE PUSH1 0x1 DUP3 ADD SWAP2 POP PUSH1 0x20 DUP2 ADD SWAP1 POP PUSH2 0x4179 JUMP JUMPDEST DUP4 DUP9 ADD SWAP6 POP POP POP JUMPDEST POP POP POP SWAP3 SWAP2 POP POP JUMP JUMPDEST PUSH0 PUSH2 0x41B4 DUP3 DUP5 PUSH2 0x4129 JUMP JUMPDEST SWAP2 POP DUP2 SWAP1 POP SWAP3 SWAP2 POP POP JUMP JUMPDEST PUSH32 0x4E487B7100000000000000000000000000000000000000000000000000000000 PUSH0 MSTORE PUSH1 0x32 PUSH1 0x4 MSTORE PUSH1 0x24 PUSH0 REVERT JUMPDEST PUSH32 0x526577617264206D7573742062652067726561746572207468616E207A65726F PUSH0 DUP3 ADD MSTORE POP JUMP JUMPDEST PUSH0 PUSH2 0x4220 PUSH1 0x20 DUP4 PUSH2 0x3010 JUMP JUMPDEST SWAP2 POP PUSH2 0x422B DUP3 PUSH2 0x41EC JUMP JUMPDEST PUSH1 0x20 DUP3 ADD SWAP1 POP SWAP2 SWAP1 POP JUMP JUMPDEST PUSH0 PUSH1 0x20 DUP3 ADD SWAP1 POP DUP2 DUP2 SUB PUSH0 DUP4 ADD MSTORE PUSH2 0x424D DUP2 PUSH2 0x4214 JUMP JUMPDEST SWAP1 POP SWAP2 SWAP1 POP JUMP JUMPDEST PUSH32 0x43617465676F72792063616E6E6F7420626520656D7074790000000000000000 PUSH0 DUP3 ADD MSTORE POP JUMP JUMPDEST PUSH0 PUSH2 0x4288 PUSH1 0x18 DUP4 PUSH2 0x3010 JUMP JUMPDEST SWAP2 POP PUSH2 0x4293 DUP3 PUSH2 0x4254 JUMP JUMPDEST PUSH1 0x20 DUP3 ADD SWAP1 POP SWAP2 SWAP1 POP JUMP JUMPDEST PUSH0 PUSH1 0x20 DUP3 ADD SWAP1 POP DUP2 DUP2 SUB PUSH0 DUP4 ADD MSTORE PUSH2 0x42B5 DUP2 PUSH2 0x427C JUMP JUMPDEST SWAP1 POP SWAP2 SWAP1 POP JUMP JUMPDEST PUSH32 0x4E487B7100000000000000000000000000000000000000000000000000000000 PUSH0 MSTORE PUSH1 0x21 PUSH1 0x4 MSTORE PUSH1 0x24 PUSH0 REVERT JUMPDEST PUSH0 PUSH1 0x80 DUP3 ADD SWAP1 POP PUSH2 0x42FC PUSH0 DUP4 ADD DUP8 PUSH2 0x2FB8 JUMP JUMPDEST DUP2 DUP2 SUB PUSH1 0x20 DUP4 ADD MSTORE PUSH2 0x430E DUP2 DUP7 PUSH2 0x302E JUMP JUMPDEST SWAP1 POP PUSH2 0x431D PUSH1 0x40 DUP4 ADD DUP6 PUSH2 0x2FB8 JUMP JUMPDEST DUP2 DUP2 SUB PUSH1 0x60 DUP4 ADD MSTORE PUSH2 0x432F DUP2 DUP5 PUSH2 0x302E JUMP JUMPDEST SWAP1 POP SWAP6 SWAP5 POP POP POP POP POP JUMP JUMPDEST PUSH32 0x43616E6E6F742064697374726962757465206265666F726520646561646C696E PUSH0 DUP3 ADD MSTORE PUSH32 0x6500000000000000000000000000000000000000000000000000000000000000 PUSH1 0x20 DUP3 ADD MSTORE POP JUMP JUMPDEST PUSH0 PUSH2 0x4394 PUSH1 0x21 DUP4 PUSH2 0x3010 JUMP JUMPDEST SWAP2 POP PUSH2 0x439F DUP3 PUSH2 0x433A JUMP JUMPDEST PUSH1 0x40 DUP3 ADD SWAP1 POP SWAP2 SWAP1 POP JUMP JUMPDEST PUSH0 PUSH1 0x20 DUP3 ADD SWAP1 POP DUP2 DUP2 SUB PUSH0 DUP4 ADD MSTORE PUSH2 0x43C1 DUP2 PUSH2 0x4388 JUMP JUMPDEST SWAP1 POP SWAP2 SWAP1 POP JUMP JUMPDEST PUSH0 PUSH2 0x43D2 DUP3 PUSH2 0x2DB1 JUMP JUMPDEST SWAP2 POP PUSH2 0x43DD DUP4 PUSH2 0x2DB1 JUMP JUMPDEST SWAP3 POP DUP3 DUP3 MUL PUSH2 0x43EB DUP2 PUSH2 0x2DB1 JUMP JUMPDEST SWAP2 POP DUP3 DUP3 DIV DUP5 EQ DUP4 ISZERO OR PUSH2 0x4402 JUMPI PUSH2 0x4401 PUSH2 0x3C1E JUMP JUMPDEST JUMPDEST POP SWAP3 SWAP2 POP POP JUMP JUMPDEST PUSH32 0x4E487B7100000000000000000000000000000000000000000000000000000000 PUSH0 MSTORE PUSH1 0x12 PUSH1 0x4 MSTORE PUSH1 0x24 PUSH0 REVERT JUMPDEST PUSH0 PUSH2 0x4440 DUP3 PUSH2 0x2DB1 JUMP JUMPDEST SWAP2 POP PUSH2 0x444B DUP4 PUSH2 0x2DB1 JUMP JUMPDEST SWAP3 POP DUP3 PUSH2 0x445B JUMPI PUSH2 0x445A PUSH2 0x4409 JUMP JUMPDEST JUMPDEST DUP3 DUP3 DIV SWAP1 POP SWAP3 SWAP2 POP POP JUMP JUMPDEST PUSH32 0x5061676520696E646578206D7573742073746172742066726F6D203100000000 PUSH0 DUP3 ADD MSTORE POP JUMP JUMPDEST PUSH0 PUSH2 0x449A PUSH1 0x1C DUP4 PUSH2 0x3010 JUMP JUMPDEST SWAP2 POP PUSH2 0x44A5 DUP3 PUSH2 0x4466 JUMP JUMPDEST PUSH1 0x20 DUP3 ADD SWAP1 POP SWAP2 SWAP1 POP JUMP JUMPDEST PUSH0 PUSH1 0x20 DUP3 ADD SWAP1 POP DUP2 DUP2 SUB PUSH0 DUP4 ADD MSTORE PUSH2 0x44C7 DUP2 PUSH2 0x448E JUMP JUMPDEST SWAP1 POP SWAP2 SWAP1 POP JUMP JUMPDEST PUSH32 0x506167652073697A65206D7573742062652067726561746572207468616E2030 PUSH0 DUP3 ADD MSTORE POP JUMP JUMPDEST PUSH0 PUSH2 0x4502 PUSH1 0x20 DUP4 PUSH2 0x3010 JUMP JUMPDEST SWAP2 POP PUSH2 0x450D DUP3 PUSH2 0x44CE JUMP JUMPDEST PUSH1 0x20 DUP3 ADD SWAP1 POP SWAP2 SWAP1 POP JUMP JUMPDEST PUSH0 PUSH1 0x20 DUP3 ADD SWAP1 POP DUP2 DUP2 SUB PUSH0 DUP4 ADD MSTORE PUSH2 0x452F DUP2 PUSH2 0x44F6 JUMP JUMPDEST SWAP1 POP SWAP2 SWAP1 POP JUMP JUMPDEST PUSH0 PUSH2 0x4540 DUP3 PUSH2 0x2DB1 JUMP JUMPDEST SWAP2 POP PUSH2 0x454B DUP4 PUSH2 0x2DB1 JUMP JUMPDEST SWAP3 POP DUP3 DUP3 SUB SWAP1 POP DUP2 DUP2 GT ISZERO PUSH2 0x4563 JUMPI PUSH2 0x4562 PUSH2 0x3C1E JUMP JUMPDEST JUMPDEST SWAP3 SWAP2 POP POP JUMP JUMPDEST PUSH32 0x496E76616C6964207061676520696E6465780000000000000000000000000000 PUSH0 DUP3 ADD MSTORE POP JUMP JUMPDEST PUSH0 PUSH2 0x459D PUSH1 0x12 DUP4 PUSH2 0x3010 JUMP JUMPDEST SWAP2 POP PUSH2 0x45A8 DUP3 PUSH2 0x4569 JUMP JUMPDEST PUSH1 0x20 DUP3 ADD SWAP1 POP SWAP2 SWAP1 POP JUMP JUMPDEST PUSH0 PUSH1 0x20 DUP3 ADD SWAP1 POP DUP2 DUP2 SUB PUSH0 DUP4 ADD MSTORE PUSH2 0x45CA DUP2 PUSH2 0x4591 JUMP JUMPDEST SWAP1 POP SWAP2 SWAP1 POP JUMP INVALID LOG2 PUSH5 0x6970667358 0x22 SLT KECCAK256 0xBE 0xD4 0x4E ADDMOD 0x2A PUSH19 0x47784138B6417D8207D7352A3BFF7EA442CF03 PUSH0 0xC6 0xB3 0x22 0x29 BLOBBASEFEE JUMP PUSH5 0x736F6C6343 STOP ADDMOD BYTE STOP CALLER "
				},
				"gasEstimates": {
					"creation": {
						"codeDepositCost": "3585400",
						"executionCost": "94628",
						"totalCost": "3680028"
					},
					"external": {
						"MONTH()": "347",
						"TWO_WEEKS()": "392",
						"WEEK()": "435",
						"answerIdCounter()": "2536",
						"answers(uint256,uint256)": "infinite",
						"askQuestion(string,string,string,uint8)": "infinite",
						"balance()": "423",
						"balances(address)": "2914",
						"closeQuestion(uint256,uint256)": "infinite",
						"distributeRewards(uint256)": "infinite",
						"getAnswerById(uint256,uint256)": "infinite",
						"getAnswersByQuestionId(uint256,uint256,uint256)": "infinite",
						"getQuestionById(uint256)": "infinite",
						"getQuestions(uint256,uint256)": "infinite",
						"getQuestionsByCategory(string)": "infinite",
						"owner()": "2550",
						"questionIdCounter()": "2448",
						"questions(uint256)": "infinite",
						"submitAnswer(uint256,string)": "infinite",
						"voteFee()": "2469",
						"voteForAnswer(uint256,uint256)": "infinite",
						"withdraw()": "infinite"
					}
				},
				"methodIdentifiers": {
					"MONTH()": "d5999a5c",
					"TWO_WEEKS()": "934d1fa4",
					"WEEK()": "f4359ce5",
					"answerIdCounter()": "cba13030",
					"answers(uint256,uint256)": "2401519c",
					"askQuestion(string,string,string,uint8)": "572491c3",
					"balance()": "b69ef8a8",
					"balances(address)": "27e235e3",
					"closeQuestion(uint256,uint256)": "01b49d47",
					"distributeRewards(uint256)": "59974e38",
					"getAnswerById(uint256,uint256)": "4a8f164f",
					"getAnswersByQuestionId(uint256,uint256,uint256)": "ee1589a5",
					"getQuestionById(uint256)": "e25f3e02",
					"getQuestions(uint256,uint256)": "fd1df035",
					"getQuestionsByCategory(string)": "55ce8034",
					"owner()": "8da5cb5b",
					"questionIdCounter()": "61e78617",
					"questions(uint256)": "31b1b978",
					"submitAnswer(uint256,string)": "01fa3bec",
					"voteFee()": "da2b4c1e",
					"voteForAnswer(uint256,uint256)": "2690567e",
					"withdraw()": "3ccfd60b"
				}
			},
			"storageLayout": {
				"storage": [
					{
						"astId": 3,
						"contract": "contracts/InquireA.sol:InquireA",
						"label": "owner",
						"offset": 0,
						"slot": "0",
						"type": "t_address"
					},
					{
						"astId": 6,
						"contract": "contracts/InquireA.sol:InquireA",
						"label": "voteFee",
						"offset": 0,
						"slot": "1",
						"type": "t_uint256"
					},
					{
						"astId": 8,
						"contract": "contracts/InquireA.sol:InquireA",
						"label": "questionIdCounter",
						"offset": 0,
						"slot": "2",
						"type": "t_uint256"
					},
					{
						"astId": 10,
						"contract": "contracts/InquireA.sol:InquireA",
						"label": "answerIdCounter",
						"offset": 0,
						"slot": "3",
						"type": "t_uint256"
					},
					{
						"astId": 62,
						"contract": "contracts/InquireA.sol:InquireA",
						"label": "questions",
						"offset": 0,
						"slot": "4",
						"type": "t_mapping(t_uint256,t_struct(Question)44_storage)"
					},
					{
						"astId": 69,
						"contract": "contracts/InquireA.sol:InquireA",
						"label": "answers",
						"offset": 0,
						"slot": "5",
						"type": "t_mapping(t_uint256,t_mapping(t_uint256,t_struct(Answer)57_storage))"
					},
					{
						"astId": 73,
						"contract": "contracts/InquireA.sol:InquireA",
						"label": "balances",
						"offset": 0,
						"slot": "6",
						"type": "t_mapping(t_address,t_uint256)"
					}
				],
				"types": {
					"t_address": {
						"encoding": "inplace",
						"label": "address",
						"numberOfBytes": "20"
					},
					"t_bool": {
						"encoding": "inplace",
						"label": "bool",
						"numberOfBytes": "1"
					},
					"t_mapping(t_address,t_uint256)": {
						"encoding": "mapping",
						"key": "t_address",
						"label": "mapping(address => uint256)",
						"numberOfBytes": "32",
						"value": "t_uint256"
					},
					"t_mapping(t_uint256,t_mapping(t_uint256,t_struct(Answer)57_storage))": {
						"encoding": "mapping",
						"key": "t_uint256",
						"label": "mapping(uint256 => mapping(uint256 => struct InquireA.Answer))",
						"numberOfBytes": "32",
						"value": "t_mapping(t_uint256,t_struct(Answer)57_storage)"
					},
					"t_mapping(t_uint256,t_struct(Answer)57_storage)": {
						"encoding": "mapping",
						"key": "t_uint256",
						"label": "mapping(uint256 => struct InquireA.Answer)",
						"numberOfBytes": "32",
						"value": "t_struct(Answer)57_storage"
					},
					"t_mapping(t_uint256,t_struct(Question)44_storage)": {
						"encoding": "mapping",
						"key": "t_uint256",
						"label": "mapping(uint256 => struct InquireA.Question)",
						"numberOfBytes": "32",
						"value": "t_struct(Question)44_storage"
					},
					"t_string_storage": {
						"encoding": "bytes",
						"label": "string",
						"numberOfBytes": "32"
					},
					"t_struct(Answer)57_storage": {
						"encoding": "inplace",
						"label": "struct InquireA.Answer",
						"members": [
							{
								"astId": 46,
								"contract": "contracts/InquireA.sol:InquireA",
								"label": "id",
								"offset": 0,
								"slot": "0",
								"type": "t_uint256"
							},
							{
								"astId": 48,
								"contract": "contracts/InquireA.sol:InquireA",
								"label": "responder",
								"offset": 0,
								"slot": "1",
								"type": "t_address"
							},
							{
								"astId": 50,
								"contract": "contracts/InquireA.sol:InquireA",
								"label": "answerText",
								"offset": 0,
								"slot": "2",
								"type": "t_string_storage"
							},
							{
								"astId": 52,
								"contract": "contracts/InquireA.sol:InquireA",
								"label": "upvotes",
								"offset": 0,
								"slot": "3",
								"type": "t_uint256"
							},
							{
								"astId": 54,
								"contract": "contracts/InquireA.sol:InquireA",
								"label": "rewardAmount",
								"offset": 0,
								"slot": "4",
								"type": "t_uint256"
							},
							{
								"astId": 56,
								"contract": "contracts/InquireA.sol:InquireA",
								"label": "createdAt",
								"offset": 0,
								"slot": "5",
								"type": "t_uint256"
							}
						],
						"numberOfBytes": "192"
					},
					"t_struct(Question)44_storage": {
						"encoding": "inplace",
						"label": "struct InquireA.Question",
						"members": [
							{
								"astId": 25,
								"contract": "contracts/InquireA.sol:InquireA",
								"label": "id",
								"offset": 0,
								"slot": "0",
								"type": "t_uint256"
							},
							{
								"astId": 27,
								"contract": "contracts/InquireA.sol:InquireA",
								"label": "asker",
								"offset": 0,
								"slot": "1",
								"type": "t_address"
							},
							{
								"astId": 29,
								"contract": "contracts/InquireA.sol:InquireA",
								"label": "questionText",
								"offset": 0,
								"slot": "2",
								"type": "t_string_storage"
							},
							{
								"astId": 31,
								"contract": "contracts/InquireA.sol:InquireA",
								"label": "questionContent",
								"offset": 0,
								"slot": "3",
								"type": "t_string_storage"
							},
							{
								"astId": 33,
								"contract": "contracts/InquireA.sol:InquireA",
								"label": "category",
								"offset": 0,
								"slot": "4",
								"type": "t_string_storage"
							},
							{
								"astId": 35,
								"contract": "contracts/InquireA.sol:InquireA",
								"label": "rewardAmount",
								"offset": 0,
								"slot": "5",
								"type": "t_uint256"
							},
							{
								"astId": 37,
								"contract": "contracts/InquireA.sol:InquireA",
								"label": "createdAt",
								"offset": 0,
								"slot": "6",
								"type": "t_uint256"
							},
							{
								"astId": 39,
								"contract": "contracts/InquireA.sol:InquireA",
								"label": "deadline",
								"offset": 0,
								"slot": "7",
								"type": "t_uint256"
							},
							{
								"astId": 41,
								"contract": "contracts/InquireA.sol:InquireA",
								"label": "isClosed",
								"offset": 0,
								"slot": "8",
								"type": "t_bool"
							},
							{
								"astId": 43,
								"contract": "contracts/InquireA.sol:InquireA",
								"label": "chosenAnswerId",
								"offset": 0,
								"slot": "9",
								"type": "t_uint256"
							}
						],
						"numberOfBytes": "320"
					},
					"t_uint256": {
						"encoding": "inplace",
						"label": "uint256",
						"numberOfBytes": "32"
					}
				}
			},
			"userdoc": {
				"kind": "user",
				"methods": {},
				"version": 1
			}
		}
	}
}