{
	"contracts/InquireA.sol": {
		"InquireA": {
			"abi": [
				{
					"inputs": [],
					"stateMutability": "nonpayable",
					"type": "constructor"
				},
				{
					"anonymous": false,
					"inputs": [
						{
							"indexed": false,
							"internalType": "uint256",
							"name": "questionId",
							"type": "uint256"
						},
						{
							"indexed": false,
							"internalType": "uint256",
							"name": "answerId",
							"type": "uint256"
						},
						{
							"indexed": true,
							"internalType": "address",
							"name": "responder",
							"type": "address"
						},
						{
							"indexed": false,
							"internalType": "string",
							"name": "answerText",
							"type": "string"
						}
					],
					"name": "AnswerSubmitted",
					"type": "event"
				},
				{
					"anonymous": false,
					"inputs": [
						{
							"indexed": false,
							"internalType": "uint256",
							"name": "questionId",
							"type": "uint256"
						},
						{
							"indexed": true,
							"internalType": "address",
							"name": "asker",
							"type": "address"
						},
						{
							"indexed": false,
							"internalType": "string",
							"name": "questionText",
							"type": "string"
						},
						{
							"indexed": false,
							"internalType": "uint256",
							"name": "rewardAmount",
							"type": "uint256"
						},
						{
							"indexed": false,
							"internalType": "string",
							"name": "category",
							"type": "string"
						}
					],
					"name": "QuestionAsked",
					"type": "event"
				},
				{
					"anonymous": false,
					"inputs": [
						{
							"indexed": false,
							"internalType": "uint256",
							"name": "questionId",
							"type": "uint256"
						},
						{
							"indexed": false,
							"internalType": "uint256",
							"name": "chosenAnswerId",
							"type": "uint256"
						}
					],
					"name": "QuestionClosed",
					"type": "event"
				},
				{
					"anonymous": false,
					"inputs": [
						{
							"indexed": false,
							"internalType": "uint256",
							"name": "questionId",
							"type": "uint256"
						},
						{
							"indexed": false,
							"internalType": "uint256",
							"name": "answerId",
							"type": "uint256"
						},
						{
							"indexed": true,
							"internalType": "address",
							"name": "voter",
							"type": "address"
						}
					],
					"name": "Voted",
					"type": "event"
				},
				{
					"inputs": [],
					"name": "MONTH",
					"outputs": [
						{
							"internalType": "uint256",
							"name": "",
							"type": "uint256"
						}
					],
					"stateMutability": "view",
					"type": "function"
				},
				{
					"inputs": [],
					"name": "TWO_WEEKS",
					"outputs": [
						{
							"internalType": "uint256",
							"name": "",
							"type": "uint256"
						}
					],
					"stateMutability": "view",
					"type": "function"
				},
				{
					"inputs": [],
					"name": "WEEK",
					"outputs": [
						{
							"internalType": "uint256",
							"name": "",
							"type": "uint256"
						}
					],
					"stateMutability": "view",
					"type": "function"
				},
				{
					"inputs": [],
					"name": "answerIdCounter",
					"outputs": [
						{
							"internalType": "uint256",
							"name": "",
							"type": "uint256"
						}
					],
					"stateMutability": "view",
					"type": "function"
				},
				{
					"inputs": [
						{
							"internalType": "uint256",
							"name": "",
							"type": "uint256"
						},
						{
							"internalType": "uint256",
							"name": "",
							"type": "uint256"
						}
					],
					"name": "answers",
					"outputs": [
						{
							"internalType": "uint256",
							"name": "id",
							"type": "uint256"
						},
						{
							"internalType": "address",
							"name": "responder",
							"type": "address"
						},
						{
							"internalType": "string",
							"name": "answerText",
							"type": "string"
						},
						{
							"internalType": "uint256",
							"name": "upvotes",
							"type": "uint256"
						},
						{
							"internalType": "uint256",
							"name": "rewardAmount",
							"type": "uint256"
						},
						{
							"internalType": "uint256",
							"name": "createdAt",
							"type": "uint256"
						}
					],
					"stateMutability": "view",
					"type": "function"
				},
				{
					"inputs": [
						{
							"internalType": "string",
							"name": "_questionText",
							"type": "string"
						},
						{
							"internalType": "string",
							"name": "_questionContent",
							"type": "string"
						},
						{
							"internalType": "string",
							"name": "_category",
							"type": "string"
						},
						{
							"internalType": "enum InquireA.DeadlinePeriod",
							"name": "_deadlinePeriod",
							"type": "uint8"
						}
					],
					"name": "askQuestion",
					"outputs": [],
					"stateMutability": "payable",
					"type": "function"
				},
				{
					"inputs": [],
					"name": "balance",
					"outputs": [
						{
							"internalType": "uint256",
							"name": "",
							"type": "uint256"
						}
					],
					"stateMutability": "view",
					"type": "function"
				},
				{
					"inputs": [
						{
							"internalType": "address",
							"name": "",
							"type": "address"
						}
					],
					"name": "balances",
					"outputs": [
						{
							"internalType": "uint256",
							"name": "",
							"type": "uint256"
						}
					],
					"stateMutability": "view",
					"type": "function"
				},
				{
					"inputs": [
						{
							"internalType": "uint256",
							"name": "questionId",
							"type": "uint256"
						},
						{
							"internalType": "uint256",
							"name": "answerId",
							"type": "uint256"
						}
					],
					"name": "closeQuestion",
					"outputs": [],
					"stateMutability": "nonpayable",
					"type": "function"
				},
				{
					"inputs": [
						{
							"internalType": "uint256",
							"name": "questionId",
							"type": "uint256"
						}
					],
					"name": "distributeRewards",
					"outputs": [],
					"stateMutability": "nonpayable",
					"type": "function"
				},
				{
					"inputs": [
						{
							"internalType": "uint256",
							"name": "questionId",
							"type": "uint256"
						},
						{
							"internalType": "uint256",
							"name": "answerId",
							"type": "uint256"
						}
					],
					"name": "getAnswerById",
					"outputs": [
						{
							"components": [
								{
									"internalType": "uint256",
									"name": "id",
									"type": "uint256"
								},
								{
									"internalType": "address",
									"name": "responder",
									"type": "address"
								},
								{
									"internalType": "string",
									"name": "answerText",
									"type": "string"
								},
								{
									"internalType": "uint256",
									"name": "upvotes",
									"type": "uint256"
								},
								{
									"internalType": "uint256",
									"name": "rewardAmount",
									"type": "uint256"
								},
								{
									"internalType": "uint256",
									"name": "createdAt",
									"type": "uint256"
								}
							],
							"internalType": "struct InquireA.Answer",
							"name": "",
							"type": "tuple"
						}
					],
					"stateMutability": "view",
					"type": "function"
				},
				{
					"inputs": [
						{
							"internalType": "uint256",
							"name": "questionId",
							"type": "uint256"
						}
					],
					"name": "getQuestionById",
					"outputs": [
						{
							"components": [
								{
									"internalType": "uint256",
									"name": "id",
									"type": "uint256"
								},
								{
									"internalType": "address",
									"name": "asker",
									"type": "address"
								},
								{
									"internalType": "string",
									"name": "questionText",
									"type": "string"
								},
								{
									"internalType": "string",
									"name": "questionContent",
									"type": "string"
								},
								{
									"internalType": "string",
									"name": "category",
									"type": "string"
								},
								{
									"internalType": "uint256",
									"name": "rewardAmount",
									"type": "uint256"
								},
								{
									"internalType": "uint256",
									"name": "createdAt",
									"type": "uint256"
								},
								{
									"internalType": "uint256",
									"name": "deadline",
									"type": "uint256"
								},
								{
									"internalType": "bool",
									"name": "isClosed",
									"type": "bool"
								},
								{
									"internalType": "uint256",
									"name": "chosenAnswerId",
									"type": "uint256"
								}
							],
							"internalType": "struct InquireA.Question",
							"name": "",
							"type": "tuple"
						}
					],
					"stateMutability": "view",
					"type": "function"
				},
				{
					"inputs": [
						{
							"internalType": "uint256",
							"name": "pageIndex",
							"type": "uint256"
						},
						{
							"internalType": "uint256",
							"name": "pageSize",
							"type": "uint256"
						}
					],
					"name": "getQuestions",
					"outputs": [
						{
							"components": [
								{
									"internalType": "uint256",
									"name": "id",
									"type": "uint256"
								},
								{
									"internalType": "address",
									"name": "asker",
									"type": "address"
								},
								{
									"internalType": "string",
									"name": "questionText",
									"type": "string"
								},
								{
									"internalType": "string",
									"name": "questionContent",
									"type": "string"
								},
								{
									"internalType": "string",
									"name": "category",
									"type": "string"
								},
								{
									"internalType": "uint256",
									"name": "rewardAmount",
									"type": "uint256"
								},
								{
									"internalType": "uint256",
									"name": "createdAt",
									"type": "uint256"
								},
								{
									"internalType": "uint256",
									"name": "deadline",
									"type": "uint256"
								},
								{
									"internalType": "bool",
									"name": "isClosed",
									"type": "bool"
								},
								{
									"internalType": "uint256",
									"name": "chosenAnswerId",
									"type": "uint256"
								}
							],
							"internalType": "struct InquireA.Question[]",
							"name": "",
							"type": "tuple[]"
						}
					],
					"stateMutability": "view",
					"type": "function"
				},
				{
					"inputs": [
						{
							"internalType": "string",
							"name": "_category",
							"type": "string"
						}
					],
					"name": "getQuestionsByCategory",
					"outputs": [
						{
							"internalType": "uint256[]",
							"name": "",
							"type": "uint256[]"
						}
					],
					"stateMutability": "view",
					"type": "function"
				},
				{
					"inputs": [],
					"name": "owner",
					"outputs": [
						{
							"internalType": "address",
							"name": "",
							"type": "address"
						}
					],
					"stateMutability": "view",
					"type": "function"
				},
				{
					"inputs": [],
					"name": "questionIdCounter",
					"outputs": [
						{
							"internalType": "uint256",
							"name": "",
							"type": "uint256"
						}
					],
					"stateMutability": "view",
					"type": "function"
				},
				{
					"inputs": [
						{
							"internalType": "uint256",
							"name": "",
							"type": "uint256"
						}
					],
					"name": "questions",
					"outputs": [
						{
							"internalType": "uint256",
							"name": "id",
							"type": "uint256"
						},
						{
							"internalType": "address",
							"name": "asker",
							"type": "address"
						},
						{
							"internalType": "string",
							"name": "questionText",
							"type": "string"
						},
						{
							"internalType": "string",
							"name": "questionContent",
							"type": "string"
						},
						{
							"internalType": "string",
							"name": "category",
							"type": "string"
						},
						{
							"internalType": "uint256",
							"name": "rewardAmount",
							"type": "uint256"
						},
						{
							"internalType": "uint256",
							"name": "createdAt",
							"type": "uint256"
						},
						{
							"internalType": "uint256",
							"name": "deadline",
							"type": "uint256"
						},
						{
							"internalType": "bool",
							"name": "isClosed",
							"type": "bool"
						},
						{
							"internalType": "uint256",
							"name": "chosenAnswerId",
							"type": "uint256"
						}
					],
					"stateMutability": "view",
					"type": "function"
				},
				{
					"inputs": [
						{
							"internalType": "uint256",
							"name": "questionId",
							"type": "uint256"
						},
						{
							"internalType": "string",
							"name": "_answerText",
							"type": "string"
						}
					],
					"name": "submitAnswer",
					"outputs": [],
					"stateMutability": "nonpayable",
					"type": "function"
				},
				{
					"inputs": [],
					"name": "voteFee",
					"outputs": [
						{
							"internalType": "uint256",
							"name": "",
							"type": "uint256"
						}
					],
					"stateMutability": "view",
					"type": "function"
				},
				{
					"inputs": [
						{
							"internalType": "uint256",
							"name": "questionId",
							"type": "uint256"
						},
						{
							"internalType": "uint256",
							"name": "answerId",
							"type": "uint256"
						}
					],
					"name": "voteForAnswer",
					"outputs": [],
					"stateMutability": "payable",
					"type": "function"
				},
				{
					"inputs": [],
					"name": "withdraw",
					"outputs": [],
					"stateMutability": "nonpayable",
					"type": "function"
				}
			],
			"devdoc": {
				"kind": "dev",
				"methods": {},
				"version": 1
			},
			"evm": {
				"assembly": "    /* \"contracts/InquireA.sol\":60:8889  contract InquireA {... */\n  mstore(0x40, 0x80)\n    /* \"contracts/InquireA.sol\":137:147  0.01 ether */\n  0x2386f26fc10000\n    /* \"contracts/InquireA.sol\":112:147  uint256 public voteFee = 0.01 ether */\n  0x01\n  sstore\n    /* \"contracts/InquireA.sol\":1692:1859  constructor() {... */\n  callvalue\n  dup1\n  iszero\n  tag_1\n  jumpi\n  0x00\n  dup1\n  revert\ntag_1:\n  pop\n    /* \"contracts/InquireA.sol\":1725:1735  msg.sender */\n  caller\n    /* \"contracts/InquireA.sol\":1717:1722  owner */\n  0x00\n  dup1\n    /* \"contracts/InquireA.sol\":1717:1735  owner = msg.sender */\n  0x0100\n  exp\n  dup2\n  sload\n  dup2\n  0xffffffffffffffffffffffffffffffffffffffff\n  mul\n  not\n  and\n  swap1\n  dup4\n  0xffffffffffffffffffffffffffffffffffffffff\n  and\n  mul\n  or\n  swap1\n  sstore\n  pop\n    /* \"contracts/InquireA.sol\":1766:1767  1 */\n  0x01\n    /* \"contracts/InquireA.sol\":1746:1763  questionIdCounter */\n  0x02\n    /* \"contracts/InquireA.sol\":1746:1767  questionIdCounter = 1 */\n  dup2\n  swap1\n  sstore\n  pop\n    /* \"contracts/InquireA.sol\":1823:1824  1 */\n  0x01\n    /* \"contracts/InquireA.sol\":1805:1820  answerIdCounter */\n  0x03\n    /* \"contracts/InquireA.sol\":1805:1824  answerIdCounter = 1 */\n  dup2\n  swap1\n  sstore\n  pop\n    /* \"contracts/InquireA.sol\":60:8889  contract InquireA {... */\n  dataSize(sub_0)\n  dup1\n  dataOffset(sub_0)\n  0x00\n  codecopy\n  0x00\n  return\nstop\n\nsub_0: assembly {\n        /* \"contracts/InquireA.sol\":60:8889  contract InquireA {... */\n      mstore(0x40, 0x80)\n      jumpi(tag_1, lt(calldatasize, 0x04))\n      shr(0xe0, calldataload(0x00))\n      dup1\n      0x59974e38\n      gt\n      tag_23\n      jumpi\n      dup1\n      0xcba13030\n      gt\n      tag_24\n      jumpi\n      dup1\n      0xcba13030\n      eq\n      tag_17\n      jumpi\n      dup1\n      0xd5999a5c\n      eq\n      tag_18\n      jumpi\n      dup1\n      0xda2b4c1e\n      eq\n      tag_19\n      jumpi\n      dup1\n      0xe25f3e02\n      eq\n      tag_20\n      jumpi\n      dup1\n      0xf4359ce5\n      eq\n      tag_21\n      jumpi\n      dup1\n      0xfd1df035\n      eq\n      tag_22\n      jumpi\n      jump(tag_1)\n    tag_24:\n      dup1\n      0x59974e38\n      eq\n      tag_12\n      jumpi\n      dup1\n      0x61e78617\n      eq\n      tag_13\n      jumpi\n      dup1\n      0x8da5cb5b\n      eq\n      tag_14\n      jumpi\n      dup1\n      0x934d1fa4\n      eq\n      tag_15\n      jumpi\n      dup1\n      0xb69ef8a8\n      eq\n      tag_16\n      jumpi\n      jump(tag_1)\n    tag_23:\n      dup1\n      0x31b1b978\n      gt\n      tag_25\n      jumpi\n      dup1\n      0x31b1b978\n      eq\n      tag_7\n      jumpi\n      dup1\n      0x3ccfd60b\n      eq\n      tag_8\n      jumpi\n      dup1\n      0x4a8f164f\n      eq\n      tag_9\n      jumpi\n      dup1\n      0x55ce8034\n      eq\n      tag_10\n      jumpi\n      dup1\n      0x572491c3\n      eq\n      tag_11\n      jumpi\n      jump(tag_1)\n    tag_25:\n      dup1\n      0x01b49d47\n      eq\n      tag_2\n      jumpi\n      dup1\n      0x01fa3bec\n      eq\n      tag_3\n      jumpi\n      dup1\n      0x2401519c\n      eq\n      tag_4\n      jumpi\n      dup1\n      0x2690567e\n      eq\n      tag_5\n      jumpi\n      dup1\n      0x27e235e3\n      eq\n      tag_6\n      jumpi\n    tag_1:\n      0x00\n      dup1\n      revert\n        /* \"contracts/InquireA.sol\":6336:6738  function closeQuestion(uint256 questionId, uint256 answerId) public questionExists(questionId) notClosed(questionId) {... */\n    tag_2:\n      callvalue\n      dup1\n      iszero\n      tag_26\n      jumpi\n      0x00\n      dup1\n      revert\n    tag_26:\n      pop\n      tag_27\n      0x04\n      dup1\n      calldatasize\n      sub\n      dup2\n      add\n      swap1\n      tag_28\n      swap2\n      swap1\n      tag_29\n      jump\t// in\n    tag_28:\n      tag_30\n      jump\t// in\n    tag_27:\n      stop\n        /* \"contracts/InquireA.sol\":3684:4352  function submitAnswer(uint256 questionId, string memory _answerText) public questionExists(questionId) notClosed(questionId) {... */\n    tag_3:\n      callvalue\n      dup1\n      iszero\n      tag_31\n      jumpi\n      0x00\n      dup1\n      revert\n    tag_31:\n      pop\n      tag_32\n      0x04\n      dup1\n      calldatasize\n      sub\n      dup2\n      add\n      swap1\n      tag_33\n      swap2\n      swap1\n      tag_34\n      jump\t// in\n    tag_33:\n      tag_35\n      jump\t// in\n    tag_32:\n      stop\n        /* \"contracts/InquireA.sol\":1124:1185  mapping(uint256 => mapping(uint256 => Answer)) public answers */\n    tag_4:\n      callvalue\n      dup1\n      iszero\n      tag_36\n      jumpi\n      0x00\n      dup1\n      revert\n    tag_36:\n      pop\n      tag_37\n      0x04\n      dup1\n      calldatasize\n      sub\n      dup2\n      add\n      swap1\n      tag_38\n      swap2\n      swap1\n      tag_29\n      jump\t// in\n    tag_38:\n      tag_39\n      jump\t// in\n    tag_37:\n      mload(0x40)\n      tag_40\n      swap7\n      swap6\n      swap5\n      swap4\n      swap3\n      swap2\n      swap1\n      tag_41\n      jump\t// in\n    tag_40:\n      mload(0x40)\n      dup1\n      swap2\n      sub\n      swap1\n      return\n        /* \"contracts/InquireA.sol\":5778:6328  function voteForAnswer(uint256 questionId, uint256 answerId) public payable questionExists(questionId) notClosed(questionId) {... */\n    tag_5:\n      tag_42\n      0x04\n      dup1\n      calldatasize\n      sub\n      dup2\n      add\n      swap1\n      tag_43\n      swap2\n      swap1\n      tag_29\n      jump\t// in\n    tag_43:\n      tag_44\n      jump\t// in\n    tag_42:\n      stop\n        /* \"contracts/InquireA.sol\":1192:1235  mapping(address => uint256) public balances */\n    tag_6:\n      callvalue\n      dup1\n      iszero\n      tag_45\n      jumpi\n      0x00\n      dup1\n      revert\n    tag_45:\n      pop\n      tag_46\n      0x04\n      dup1\n      calldatasize\n      sub\n      dup2\n      add\n      swap1\n      tag_47\n      swap2\n      swap1\n      tag_48\n      jump\t// in\n    tag_47:\n      tag_49\n      jump\t// in\n    tag_46:\n      mload(0x40)\n      tag_50\n      swap2\n      swap1\n      tag_51\n      jump\t// in\n    tag_50:\n      mload(0x40)\n      dup1\n      swap2\n      sub\n      swap1\n      return\n        /* \"contracts/InquireA.sol\":1072:1117  mapping(uint256 => Question) public questions */\n    tag_7:\n      callvalue\n      dup1\n      iszero\n      tag_52\n      jumpi\n      0x00\n      dup1\n      revert\n    tag_52:\n      pop\n      tag_53\n      0x04\n      dup1\n      calldatasize\n      sub\n      dup2\n      add\n      swap1\n      tag_54\n      swap2\n      swap1\n      tag_55\n      jump\t// in\n    tag_54:\n      tag_56\n      jump\t// in\n    tag_53:\n      mload(0x40)\n      tag_57\n      swap11\n      swap10\n      swap9\n      swap8\n      swap7\n      swap6\n      swap5\n      swap4\n      swap3\n      swap2\n      swap1\n      tag_58\n      jump\t// in\n    tag_57:\n      mload(0x40)\n      dup1\n      swap2\n      sub\n      swap1\n      return\n        /* \"contracts/InquireA.sol\":7831:8052  function withdraw() public {... */\n    tag_8:\n      callvalue\n      dup1\n      iszero\n      tag_59\n      jumpi\n      0x00\n      dup1\n      revert\n    tag_59:\n      pop\n      tag_60\n      tag_61\n      jump\t// in\n    tag_60:\n      stop\n        /* \"contracts/InquireA.sol\":5520:5770  function getAnswerById(uint256 questionId, uint256 answerId) public view returns (Answer memory) {... */\n    tag_9:\n      callvalue\n      dup1\n      iszero\n      tag_62\n      jumpi\n      0x00\n      dup1\n      revert\n    tag_62:\n      pop\n      tag_63\n      0x04\n      dup1\n      calldatasize\n      sub\n      dup2\n      add\n      swap1\n      tag_64\n      swap2\n      swap1\n      tag_29\n      jump\t// in\n    tag_64:\n      tag_65\n      jump\t// in\n    tag_63:\n      mload(0x40)\n      tag_66\n      swap2\n      swap1\n      tag_67\n      jump\t// in\n    tag_66:\n      mload(0x40)\n      dup1\n      swap2\n      sub\n      swap1\n      return\n        /* \"contracts/InquireA.sol\":8210:8886  function getQuestionsByCategory(string memory _category) public view returns (uint256[] memory) {... */\n    tag_10:\n      callvalue\n      dup1\n      iszero\n      tag_68\n      jumpi\n      0x00\n      dup1\n      revert\n    tag_68:\n      pop\n      tag_69\n      0x04\n      dup1\n      calldatasize\n      sub\n      dup2\n      add\n      swap1\n      tag_70\n      swap2\n      swap1\n      tag_71\n      jump\t// in\n    tag_70:\n      tag_72\n      jump\t// in\n    tag_69:\n      mload(0x40)\n      tag_73\n      swap2\n      swap1\n      tag_74\n      jump\t// in\n    tag_73:\n      mload(0x40)\n      dup1\n      swap2\n      sub\n      swap1\n      return\n        /* \"contracts/InquireA.sol\":2346:3645  function askQuestion(... */\n    tag_11:\n      tag_75\n      0x04\n      dup1\n      calldatasize\n      sub\n      dup2\n      add\n      swap1\n      tag_76\n      swap2\n      swap1\n      tag_77\n      jump\t// in\n    tag_76:\n      tag_78\n      jump\t// in\n    tag_75:\n      stop\n        /* \"contracts/InquireA.sol\":6784:7785  function distributeRewards(uint256 questionId) public questionExists(questionId) {... */\n    tag_12:\n      callvalue\n      dup1\n      iszero\n      tag_79\n      jumpi\n      0x00\n      dup1\n      revert\n    tag_79:\n      pop\n      tag_80\n      0x04\n      dup1\n      calldatasize\n      sub\n      dup2\n      add\n      swap1\n      tag_81\n      swap2\n      swap1\n      tag_55\n      jump\t// in\n    tag_81:\n      tag_82\n      jump\t// in\n    tag_80:\n      stop\n        /* \"contracts/InquireA.sol\":155:187  uint256 public questionIdCounter */\n    tag_13:\n      callvalue\n      dup1\n      iszero\n      tag_83\n      jumpi\n      0x00\n      dup1\n      revert\n    tag_83:\n      pop\n      tag_84\n      tag_85\n      jump\t// in\n    tag_84:\n      mload(0x40)\n      tag_86\n      swap2\n      swap1\n      tag_51\n      jump\t// in\n    tag_86:\n      mload(0x40)\n      dup1\n      swap2\n      sub\n      swap1\n      return\n        /* \"contracts/InquireA.sol\":85:105  address public owner */\n    tag_14:\n      callvalue\n      dup1\n      iszero\n      tag_87\n      jumpi\n      0x00\n      dup1\n      revert\n    tag_87:\n      pop\n      tag_88\n      tag_89\n      jump\t// in\n    tag_88:\n      mload(0x40)\n      tag_90\n      swap2\n      swap1\n      tag_91\n      jump\t// in\n    tag_90:\n      mload(0x40)\n      dup1\n      swap2\n      sub\n      swap1\n      return\n        /* \"contracts/InquireA.sol\":312:355  uint256 public constant TWO_WEEKS = 14 days */\n    tag_15:\n      callvalue\n      dup1\n      iszero\n      tag_92\n      jumpi\n      0x00\n      dup1\n      revert\n    tag_92:\n      pop\n      tag_93\n      tag_94\n      jump\t// in\n    tag_93:\n      mload(0x40)\n      tag_95\n      swap2\n      swap1\n      tag_51\n      jump\t// in\n    tag_95:\n      mload(0x40)\n      dup1\n      swap2\n      sub\n      swap1\n      return\n        /* \"contracts/InquireA.sol\":8060:8156  function balance() public view returns (uint256) {... */\n    tag_16:\n      callvalue\n      dup1\n      iszero\n      tag_96\n      jumpi\n      0x00\n      dup1\n      revert\n    tag_96:\n      pop\n      tag_97\n      tag_98\n      jump\t// in\n    tag_97:\n      mload(0x40)\n      tag_99\n      swap2\n      swap1\n      tag_51\n      jump\t// in\n    tag_99:\n      mload(0x40)\n      dup1\n      swap2\n      sub\n      swap1\n      return\n        /* \"contracts/InquireA.sol\":194:224  uint256 public answerIdCounter */\n    tag_17:\n      callvalue\n      dup1\n      iszero\n      tag_100\n      jumpi\n      0x00\n      dup1\n      revert\n    tag_100:\n      pop\n      tag_101\n      tag_102\n      jump\t// in\n    tag_101:\n      mload(0x40)\n      tag_103\n      swap2\n      swap1\n      tag_51\n      jump\t// in\n    tag_103:\n      mload(0x40)\n      dup1\n      swap2\n      sub\n      swap1\n      return\n        /* \"contracts/InquireA.sol\":362:401  uint256 public constant MONTH = 30 days */\n    tag_18:\n      callvalue\n      dup1\n      iszero\n      tag_104\n      jumpi\n      0x00\n      dup1\n      revert\n    tag_104:\n      pop\n      tag_105\n      tag_106\n      jump\t// in\n    tag_105:\n      mload(0x40)\n      tag_107\n      swap2\n      swap1\n      tag_51\n      jump\t// in\n    tag_107:\n      mload(0x40)\n      dup1\n      swap2\n      sub\n      swap1\n      return\n        /* \"contracts/InquireA.sol\":112:147  uint256 public voteFee = 0.01 ether */\n    tag_19:\n      callvalue\n      dup1\n      iszero\n      tag_108\n      jumpi\n      0x00\n      dup1\n      revert\n    tag_108:\n      pop\n      tag_109\n      tag_110\n      jump\t// in\n    tag_109:\n      mload(0x40)\n      tag_111\n      swap2\n      swap1\n      tag_51\n      jump\t// in\n    tag_111:\n      mload(0x40)\n      dup1\n      swap2\n      sub\n      swap1\n      return\n        /* \"contracts/InquireA.sol\":5294:5512  function getQuestionById(uint256 questionId) public view returns (Question memory) {... */\n    tag_20:\n      callvalue\n      dup1\n      iszero\n      tag_112\n      jumpi\n      0x00\n      dup1\n      revert\n    tag_112:\n      pop\n      tag_113\n      0x04\n      dup1\n      calldatasize\n      sub\n      dup2\n      add\n      swap1\n      tag_114\n      swap2\n      swap1\n      tag_55\n      jump\t// in\n    tag_114:\n      tag_115\n      jump\t// in\n    tag_113:\n      mload(0x40)\n      tag_116\n      swap2\n      swap1\n      tag_117\n      jump\t// in\n    tag_116:\n      mload(0x40)\n      dup1\n      swap2\n      sub\n      swap1\n      return\n        /* \"contracts/InquireA.sol\":268:305  uint256 public constant WEEK = 7 days */\n    tag_21:\n      callvalue\n      dup1\n      iszero\n      tag_118\n      jumpi\n      0x00\n      dup1\n      revert\n    tag_118:\n      pop\n      tag_119\n      tag_120\n      jump\t// in\n    tag_119:\n      mload(0x40)\n      tag_121\n      swap2\n      swap1\n      tag_51\n      jump\t// in\n    tag_121:\n      mload(0x40)\n      dup1\n      swap2\n      sub\n      swap1\n      return\n        /* \"contracts/InquireA.sol\":4360:5286  function getQuestions(uint256 pageIndex, uint256 pageSize) ... */\n    tag_22:\n      callvalue\n      dup1\n      iszero\n      tag_122\n      jumpi\n      0x00\n      dup1\n      revert\n    tag_122:\n      pop\n      tag_123\n      0x04\n      dup1\n      calldatasize\n      sub\n      dup2\n      add\n      swap1\n      tag_124\n      swap2\n      swap1\n      tag_29\n      jump\t// in\n    tag_124:\n      tag_125\n      jump\t// in\n    tag_123:\n      mload(0x40)\n      tag_126\n      swap2\n      swap1\n      tag_127\n      jump\t// in\n    tag_126:\n      mload(0x40)\n      dup1\n      swap2\n      sub\n      swap1\n      return\n        /* \"contracts/InquireA.sol\":6336:6738  function closeQuestion(uint256 questionId, uint256 answerId) public questionExists(questionId) notClosed(questionId) {... */\n    tag_30:\n        /* \"contracts/InquireA.sol\":6419:6429  questionId */\n      dup2\n        /* \"contracts/InquireA.sol\":2088:2089  0 */\n      0x00\n        /* \"contracts/InquireA.sol\":2049:2090  questions[questionId].asker != address(0) */\n      0xffffffffffffffffffffffffffffffffffffffff\n      and\n        /* \"contracts/InquireA.sol\":2049:2058  questions */\n      0x04\n        /* \"contracts/InquireA.sol\":2049:2070  questions[questionId] */\n      0x00\n        /* \"contracts/InquireA.sol\":2059:2069  questionId */\n      dup4\n        /* \"contracts/InquireA.sol\":2049:2070  questions[questionId] */\n      dup2\n      mstore\n      0x20\n      add\n      swap1\n      dup2\n      mstore\n      0x20\n      add\n      0x00\n      keccak256\n        /* \"contracts/InquireA.sol\":2049:2076  questions[questionId].asker */\n      0x01\n      add\n      0x00\n      swap1\n      sload\n      swap1\n      0x0100\n      exp\n      swap1\n      div\n      0xffffffffffffffffffffffffffffffffffffffff\n      and\n        /* \"contracts/InquireA.sol\":2049:2090  questions[questionId].asker != address(0) */\n      0xffffffffffffffffffffffffffffffffffffffff\n      and\n      sub\n        /* \"contracts/InquireA.sol\":2041:2118  require(questions[questionId].asker != address(0), \"Question does not exist\") */\n      tag_129\n      jumpi\n      mload(0x40)\n      0x08c379a000000000000000000000000000000000000000000000000000000000\n      dup2\n      mstore\n      0x04\n      add\n      tag_130\n      swap1\n      tag_131\n      jump\t// in\n    tag_130:\n      mload(0x40)\n      dup1\n      swap2\n      sub\n      swap1\n      revert\n    tag_129:\n        /* \"contracts/InquireA.sol\":6441:6451  questionId */\n      dup3\n        /* \"contracts/InquireA.sol\":2205:2214  questions */\n      0x04\n        /* \"contracts/InquireA.sol\":2205:2226  questions[questionId] */\n      0x00\n        /* \"contracts/InquireA.sol\":2215:2225  questionId */\n      dup3\n        /* \"contracts/InquireA.sol\":2205:2226  questions[questionId] */\n      dup2\n      mstore\n      0x20\n      add\n      swap1\n      dup2\n      mstore\n      0x20\n      add\n      0x00\n      keccak256\n        /* \"contracts/InquireA.sol\":2205:2235  questions[questionId].isClosed */\n      0x08\n      add\n      0x00\n      swap1\n      sload\n      swap1\n      0x0100\n      exp\n      swap1\n      div\n      0xff\n      and\n        /* \"contracts/InquireA.sol\":2204:2235  !questions[questionId].isClosed */\n      iszero\n        /* \"contracts/InquireA.sol\":2196:2266  require(!questions[questionId].isClosed, \"Question is already closed\") */\n      tag_133\n      jumpi\n      mload(0x40)\n      0x08c379a000000000000000000000000000000000000000000000000000000000\n      dup2\n      mstore\n      0x04\n      add\n      tag_134\n      swap1\n      tag_135\n      jump\t// in\n    tag_134:\n      mload(0x40)\n      dup1\n      swap2\n      sub\n      swap1\n      revert\n    tag_133:\n        /* \"contracts/InquireA.sol\":6464:6489  Question storage question */\n      0x00\n        /* \"contracts/InquireA.sol\":6492:6501  questions */\n      0x04\n        /* \"contracts/InquireA.sol\":6492:6513  questions[questionId] */\n      0x00\n        /* \"contracts/InquireA.sol\":6502:6512  questionId */\n      dup7\n        /* \"contracts/InquireA.sol\":6492:6513  questions[questionId] */\n      dup2\n      mstore\n      0x20\n      add\n      swap1\n      dup2\n      mstore\n      0x20\n      add\n      0x00\n      keccak256\n        /* \"contracts/InquireA.sol\":6464:6513  Question storage question = questions[questionId] */\n      swap1\n      pop\n        /* \"contracts/InquireA.sol\":6546:6554  question */\n      dup1\n        /* \"contracts/InquireA.sol\":6546:6560  question.asker */\n      0x01\n      add\n      0x00\n      swap1\n      sload\n      swap1\n      0x0100\n      exp\n      swap1\n      div\n      0xffffffffffffffffffffffffffffffffffffffff\n      and\n        /* \"contracts/InquireA.sol\":6532:6560  msg.sender == question.asker */\n      0xffffffffffffffffffffffffffffffffffffffff\n      and\n        /* \"contracts/InquireA.sol\":6532:6542  msg.sender */\n      caller\n        /* \"contracts/InquireA.sol\":6532:6560  msg.sender == question.asker */\n      0xffffffffffffffffffffffffffffffffffffffff\n      and\n      eq\n        /* \"contracts/InquireA.sol\":6524:6594  require(msg.sender == question.asker, \"Only asker can close question\") */\n      tag_137\n      jumpi\n      mload(0x40)\n      0x08c379a000000000000000000000000000000000000000000000000000000000\n      dup2\n      mstore\n      0x04\n      add\n      tag_138\n      swap1\n      tag_139\n      jump\t// in\n    tag_138:\n      mload(0x40)\n      dup1\n      swap2\n      sub\n      swap1\n      revert\n    tag_137:\n        /* \"contracts/InquireA.sol\":6627:6631  true */\n      0x01\n        /* \"contracts/InquireA.sol\":6607:6615  question */\n      dup2\n        /* \"contracts/InquireA.sol\":6607:6624  question.isClosed */\n      0x08\n      add\n      0x00\n        /* \"contracts/InquireA.sol\":6607:6631  question.isClosed = true */\n      0x0100\n      exp\n      dup2\n      sload\n      dup2\n      0xff\n      mul\n      not\n      and\n      swap1\n      dup4\n      iszero\n      iszero\n      mul\n      or\n      swap1\n      sstore\n      pop\n        /* \"contracts/InquireA.sol\":6668:6676  answerId */\n      dup4\n        /* \"contracts/InquireA.sol\":6642:6650  question */\n      dup2\n        /* \"contracts/InquireA.sol\":6642:6665  question.chosenAnswerId */\n      0x09\n      add\n        /* \"contracts/InquireA.sol\":6642:6676  question.chosenAnswerId = answerId */\n      dup2\n      swap1\n      sstore\n      pop\n        /* \"contracts/InquireA.sol\":6694:6730  QuestionClosed(questionId, answerId) */\n      0x99fe2c8abd13b610e7f7d4a51a49e1391ba19454b72305176b884d66010e475a\n        /* \"contracts/InquireA.sol\":6709:6719  questionId */\n      dup6\n        /* \"contracts/InquireA.sol\":6721:6729  answerId */\n      dup6\n        /* \"contracts/InquireA.sol\":6694:6730  QuestionClosed(questionId, answerId) */\n      mload(0x40)\n      tag_140\n      swap3\n      swap2\n      swap1\n      tag_141\n      jump\t// in\n    tag_140:\n      mload(0x40)\n      dup1\n      swap2\n      sub\n      swap1\n      log1\n        /* \"contracts/InquireA.sol\":6453:6738  {... */\n      pop\n        /* \"contracts/InquireA.sol\":2129:2130  _ */\n      pop\n        /* \"contracts/InquireA.sol\":6336:6738  function closeQuestion(uint256 questionId, uint256 answerId) public questionExists(questionId) notClosed(questionId) {... */\n      pop\n      pop\n      pop\n      jump\t// out\n        /* \"contracts/InquireA.sol\":3684:4352  function submitAnswer(uint256 questionId, string memory _answerText) public questionExists(questionId) notClosed(questionId) {... */\n    tag_35:\n        /* \"contracts/InquireA.sol\":3775:3785  questionId */\n      dup2\n        /* \"contracts/InquireA.sol\":2088:2089  0 */\n      0x00\n        /* \"contracts/InquireA.sol\":2049:2090  questions[questionId].asker != address(0) */\n      0xffffffffffffffffffffffffffffffffffffffff\n      and\n        /* \"contracts/InquireA.sol\":2049:2058  questions */\n      0x04\n        /* \"contracts/InquireA.sol\":2049:2070  questions[questionId] */\n      0x00\n        /* \"contracts/InquireA.sol\":2059:2069  questionId */\n      dup4\n        /* \"contracts/InquireA.sol\":2049:2070  questions[questionId] */\n      dup2\n      mstore\n      0x20\n      add\n      swap1\n      dup2\n      mstore\n      0x20\n      add\n      0x00\n      keccak256\n        /* \"contracts/InquireA.sol\":2049:2076  questions[questionId].asker */\n      0x01\n      add\n      0x00\n      swap1\n      sload\n      swap1\n      0x0100\n      exp\n      swap1\n      div\n      0xffffffffffffffffffffffffffffffffffffffff\n      and\n        /* \"contracts/InquireA.sol\":2049:2090  questions[questionId].asker != address(0) */\n      0xffffffffffffffffffffffffffffffffffffffff\n      and\n      sub\n        /* \"contracts/InquireA.sol\":2041:2118  require(questions[questionId].asker != address(0), \"Question does not exist\") */\n      tag_143\n      jumpi\n      mload(0x40)\n      0x08c379a000000000000000000000000000000000000000000000000000000000\n      dup2\n      mstore\n      0x04\n      add\n      tag_144\n      swap1\n      tag_131\n      jump\t// in\n    tag_144:\n      mload(0x40)\n      dup1\n      swap2\n      sub\n      swap1\n      revert\n    tag_143:\n        /* \"contracts/InquireA.sol\":3797:3807  questionId */\n      dup3\n        /* \"contracts/InquireA.sol\":2205:2214  questions */\n      0x04\n        /* \"contracts/InquireA.sol\":2205:2226  questions[questionId] */\n      0x00\n        /* \"contracts/InquireA.sol\":2215:2225  questionId */\n      dup3\n        /* \"contracts/InquireA.sol\":2205:2226  questions[questionId] */\n      dup2\n      mstore\n      0x20\n      add\n      swap1\n      dup2\n      mstore\n      0x20\n      add\n      0x00\n      keccak256\n        /* \"contracts/InquireA.sol\":2205:2235  questions[questionId].isClosed */\n      0x08\n      add\n      0x00\n      swap1\n      sload\n      swap1\n      0x0100\n      exp\n      swap1\n      div\n      0xff\n      and\n        /* \"contracts/InquireA.sol\":2204:2235  !questions[questionId].isClosed */\n      iszero\n        /* \"contracts/InquireA.sol\":2196:2266  require(!questions[questionId].isClosed, \"Question is already closed\") */\n      tag_146\n      jumpi\n      mload(0x40)\n      0x08c379a000000000000000000000000000000000000000000000000000000000\n      dup2\n      mstore\n      0x04\n      add\n      tag_147\n      swap1\n      tag_135\n      jump\t// in\n    tag_147:\n      mload(0x40)\n      dup1\n      swap2\n      sub\n      swap1\n      revert\n    tag_146:\n        /* \"contracts/InquireA.sol\":3820:3844  Question memory question */\n      0x00\n        /* \"contracts/InquireA.sol\":3847:3856  questions */\n      0x04\n        /* \"contracts/InquireA.sol\":3847:3868  questions[questionId] */\n      0x00\n        /* \"contracts/InquireA.sol\":3857:3867  questionId */\n      dup7\n        /* \"contracts/InquireA.sol\":3847:3868  questions[questionId] */\n      dup2\n      mstore\n      0x20\n      add\n      swap1\n      dup2\n      mstore\n      0x20\n      add\n      0x00\n      keccak256\n        /* \"contracts/InquireA.sol\":3820:3868  Question memory question = questions[questionId] */\n      mload(0x40)\n      dup1\n      0x0140\n      add\n      0x40\n      mstore\n      swap1\n      dup2\n      0x00\n      dup3\n      add\n      sload\n      dup2\n      mstore\n      0x20\n      add\n      0x01\n      dup3\n      add\n      0x00\n      swap1\n      sload\n      swap1\n      0x0100\n      exp\n      swap1\n      div\n      0xffffffffffffffffffffffffffffffffffffffff\n      and\n      0xffffffffffffffffffffffffffffffffffffffff\n      and\n      0xffffffffffffffffffffffffffffffffffffffff\n      and\n      dup2\n      mstore\n      0x20\n      add\n      0x02\n      dup3\n      add\n      dup1\n      sload\n      tag_149\n      swap1\n      tag_150\n      jump\t// in\n    tag_149:\n      dup1\n      0x1f\n      add\n      0x20\n      dup1\n      swap2\n      div\n      mul\n      0x20\n      add\n      mload(0x40)\n      swap1\n      dup2\n      add\n      0x40\n      mstore\n      dup1\n      swap3\n      swap2\n      swap1\n      dup2\n      dup2\n      mstore\n      0x20\n      add\n      dup3\n      dup1\n      sload\n      tag_151\n      swap1\n      tag_150\n      jump\t// in\n    tag_151:\n      dup1\n      iszero\n      tag_152\n      jumpi\n      dup1\n      0x1f\n      lt\n      tag_153\n      jumpi\n      0x0100\n      dup1\n      dup4\n      sload\n      div\n      mul\n      dup4\n      mstore\n      swap2\n      0x20\n      add\n      swap2\n      jump(tag_152)\n    tag_153:\n      dup3\n      add\n      swap2\n      swap1\n      0x00\n      mstore\n      keccak256(0x00, 0x20)\n      swap1\n    tag_154:\n      dup2\n      sload\n      dup2\n      mstore\n      swap1\n      0x01\n      add\n      swap1\n      0x20\n      add\n      dup1\n      dup4\n      gt\n      tag_154\n      jumpi\n      dup3\n      swap1\n      sub\n      0x1f\n      and\n      dup3\n      add\n      swap2\n    tag_152:\n      pop\n      pop\n      pop\n      pop\n      pop\n      dup2\n      mstore\n      0x20\n      add\n      0x03\n      dup3\n      add\n      dup1\n      sload\n      tag_155\n      swap1\n      tag_150\n      jump\t// in\n    tag_155:\n      dup1\n      0x1f\n      add\n      0x20\n      dup1\n      swap2\n      div\n      mul\n      0x20\n      add\n      mload(0x40)\n      swap1\n      dup2\n      add\n      0x40\n      mstore\n      dup1\n      swap3\n      swap2\n      swap1\n      dup2\n      dup2\n      mstore\n      0x20\n      add\n      dup3\n      dup1\n      sload\n      tag_156\n      swap1\n      tag_150\n      jump\t// in\n    tag_156:\n      dup1\n      iszero\n      tag_157\n      jumpi\n      dup1\n      0x1f\n      lt\n      tag_158\n      jumpi\n      0x0100\n      dup1\n      dup4\n      sload\n      div\n      mul\n      dup4\n      mstore\n      swap2\n      0x20\n      add\n      swap2\n      jump(tag_157)\n    tag_158:\n      dup3\n      add\n      swap2\n      swap1\n      0x00\n      mstore\n      keccak256(0x00, 0x20)\n      swap1\n    tag_159:\n      dup2\n      sload\n      dup2\n      mstore\n      swap1\n      0x01\n      add\n      swap1\n      0x20\n      add\n      dup1\n      dup4\n      gt\n      tag_159\n      jumpi\n      dup3\n      swap1\n      sub\n      0x1f\n      and\n      dup3\n      add\n      swap2\n    tag_157:\n      pop\n      pop\n      pop\n      pop\n      pop\n      dup2\n      mstore\n      0x20\n      add\n      0x04\n      dup3\n      add\n      dup1\n      sload\n      tag_160\n      swap1\n      tag_150\n      jump\t// in\n    tag_160:\n      dup1\n      0x1f\n      add\n      0x20\n      dup1\n      swap2\n      div\n      mul\n      0x20\n      add\n      mload(0x40)\n      swap1\n      dup2\n      add\n      0x40\n      mstore\n      dup1\n      swap3\n      swap2\n      swap1\n      dup2\n      dup2\n      mstore\n      0x20\n      add\n      dup3\n      dup1\n      sload\n      tag_161\n      swap1\n      tag_150\n      jump\t// in\n    tag_161:\n      dup1\n      iszero\n      tag_162\n      jumpi\n      dup1\n      0x1f\n      lt\n      tag_163\n      jumpi\n      0x0100\n      dup1\n      dup4\n      sload\n      div\n      mul\n      dup4\n      mstore\n      swap2\n      0x20\n      add\n      swap2\n      jump(tag_162)\n    tag_163:\n      dup3\n      add\n      swap2\n      swap1\n      0x00\n      mstore\n      keccak256(0x00, 0x20)\n      swap1\n    tag_164:\n      dup2\n      sload\n      dup2\n      mstore\n      swap1\n      0x01\n      add\n      swap1\n      0x20\n      add\n      dup1\n      dup4\n      gt\n      tag_164\n      jumpi\n      dup3\n      swap1\n      sub\n      0x1f\n      and\n      dup3\n      add\n      swap2\n    tag_162:\n      pop\n      pop\n      pop\n      pop\n      pop\n      dup2\n      mstore\n      0x20\n      add\n      0x05\n      dup3\n      add\n      sload\n      dup2\n      mstore\n      0x20\n      add\n      0x06\n      dup3\n      add\n      sload\n      dup2\n      mstore\n      0x20\n      add\n      0x07\n      dup3\n      add\n      sload\n      dup2\n      mstore\n      0x20\n      add\n      0x08\n      dup3\n      add\n      0x00\n      swap1\n      sload\n      swap1\n      0x0100\n      exp\n      swap1\n      div\n      0xff\n      and\n      iszero\n      iszero\n      iszero\n      iszero\n      dup2\n      mstore\n      0x20\n      add\n      0x09\n      dup3\n      add\n      sload\n      dup2\n      mstore\n      pop\n      pop\n      swap1\n      pop\n        /* \"contracts/InquireA.sol\":3906:3914  question */\n      dup1\n        /* \"contracts/InquireA.sol\":3906:3923  question.deadline */\n      0xe0\n      add\n      mload\n        /* \"contracts/InquireA.sol\":3887:3902  block.timestamp */\n      timestamp\n        /* \"contracts/InquireA.sol\":3887:3923  block.timestamp <= question.deadline */\n      gt\n      iszero\n        /* \"contracts/InquireA.sol\":3879:3956  require(block.timestamp <= question.deadline, \"Question deadline has passed\") */\n      tag_165\n      jumpi\n      mload(0x40)\n      0x08c379a000000000000000000000000000000000000000000000000000000000\n      dup2\n      mstore\n      0x04\n      add\n      tag_166\n      swap1\n      tag_167\n      jump\t// in\n    tag_166:\n      mload(0x40)\n      dup1\n      swap2\n      sub\n      swap1\n      revert\n    tag_165:\n        /* \"contracts/InquireA.sol\":3969:3985  uint256 answerId */\n      0x00\n        /* \"contracts/InquireA.sol\":3988:4003  answerIdCounter */\n      0x03\n      0x00\n        /* \"contracts/InquireA.sol\":3988:4005  answerIdCounter++ */\n      dup2\n      sload\n      dup1\n      swap3\n      swap2\n      swap1\n      tag_168\n      swap1\n      tag_169\n      jump\t// in\n    tag_168:\n      swap2\n      swap1\n      pop\n      sstore\n        /* \"contracts/InquireA.sol\":3969:4005  uint256 answerId = answerIdCounter++ */\n      swap1\n      pop\n        /* \"contracts/InquireA.sol\":4048:4264  Answer({... */\n      mload(0x40)\n      dup1\n      0xc0\n      add\n      0x40\n      mstore\n      dup1\n        /* \"contracts/InquireA.sol\":4074:4082  answerId */\n      dup3\n        /* \"contracts/InquireA.sol\":4048:4264  Answer({... */\n      dup2\n      mstore\n      0x20\n      add\n        /* \"contracts/InquireA.sol\":4108:4118  msg.sender */\n      caller\n        /* \"contracts/InquireA.sol\":4048:4264  Answer({... */\n      0xffffffffffffffffffffffffffffffffffffffff\n      and\n      dup2\n      mstore\n      0x20\n      add\n        /* \"contracts/InquireA.sol\":4145:4156  _answerText */\n      dup7\n        /* \"contracts/InquireA.sol\":4048:4264  Answer({... */\n      dup2\n      mstore\n      0x20\n      add\n        /* \"contracts/InquireA.sol\":4180:4181  0 */\n      0x00\n        /* \"contracts/InquireA.sol\":4048:4264  Answer({... */\n      dup2\n      mstore\n      0x20\n      add\n        /* \"contracts/InquireA.sol\":4210:4211  0 */\n      0x00\n        /* \"contracts/InquireA.sol\":4048:4264  Answer({... */\n      dup2\n      mstore\n      0x20\n      add\n        /* \"contracts/InquireA.sol\":4237:4252  block.timestamp */\n      timestamp\n        /* \"contracts/InquireA.sol\":4048:4264  Answer({... */\n      dup2\n      mstore\n      pop\n        /* \"contracts/InquireA.sol\":4016:4023  answers */\n      0x05\n        /* \"contracts/InquireA.sol\":4016:4035  answers[questionId] */\n      0x00\n        /* \"contracts/InquireA.sol\":4024:4034  questionId */\n      dup9\n        /* \"contracts/InquireA.sol\":4016:4035  answers[questionId] */\n      dup2\n      mstore\n      0x20\n      add\n      swap1\n      dup2\n      mstore\n      0x20\n      add\n      0x00\n      keccak256\n        /* \"contracts/InquireA.sol\":4016:4045  answers[questionId][answerId] */\n      0x00\n        /* \"contracts/InquireA.sol\":4036:4044  answerId */\n      dup4\n        /* \"contracts/InquireA.sol\":4016:4045  answers[questionId][answerId] */\n      dup2\n      mstore\n      0x20\n      add\n      swap1\n      dup2\n      mstore\n      0x20\n      add\n      0x00\n      keccak256\n        /* \"contracts/InquireA.sol\":4016:4264  answers[questionId][answerId] = Answer({... */\n      0x00\n      dup3\n      add\n      mload\n      dup2\n      0x00\n      add\n      sstore\n      0x20\n      dup3\n      add\n      mload\n      dup2\n      0x01\n      add\n      exp(0x0100, 0x00)\n      dup2\n      sload\n      dup2\n      0xffffffffffffffffffffffffffffffffffffffff\n      mul\n      not\n      and\n      swap1\n      dup4\n      0xffffffffffffffffffffffffffffffffffffffff\n      and\n      mul\n      or\n      swap1\n      sstore\n      pop\n      0x40\n      dup3\n      add\n      mload\n      dup2\n      0x02\n      add\n      swap1\n      dup2\n      tag_170\n      swap2\n      swap1\n      tag_171\n      jump\t// in\n    tag_170:\n      pop\n      0x60\n      dup3\n      add\n      mload\n      dup2\n      0x03\n      add\n      sstore\n      0x80\n      dup3\n      add\n      mload\n      dup2\n      0x04\n      add\n      sstore\n      0xa0\n      dup3\n      add\n      mload\n      dup2\n      0x05\n      add\n      sstore\n      swap1\n      pop\n      pop\n        /* \"contracts/InquireA.sol\":4320:4330  msg.sender */\n      caller\n        /* \"contracts/InquireA.sol\":4282:4344  AnswerSubmitted(questionId, answerId, msg.sender, _answerText) */\n      0xffffffffffffffffffffffffffffffffffffffff\n      and\n      0x1b72a809869907cac4c4e55b8bf6920ff492d2ff53307bb77ba492366b61387c\n        /* \"contracts/InquireA.sol\":4298:4308  questionId */\n      dup8\n        /* \"contracts/InquireA.sol\":4310:4318  answerId */\n      dup4\n        /* \"contracts/InquireA.sol\":4332:4343  _answerText */\n      dup9\n        /* \"contracts/InquireA.sol\":4282:4344  AnswerSubmitted(questionId, answerId, msg.sender, _answerText) */\n      mload(0x40)\n      tag_172\n      swap4\n      swap3\n      swap2\n      swap1\n      tag_173\n      jump\t// in\n    tag_172:\n      mload(0x40)\n      dup1\n      swap2\n      sub\n      swap1\n      log2\n        /* \"contracts/InquireA.sol\":3809:4352  {... */\n      pop\n      pop\n        /* \"contracts/InquireA.sol\":2129:2130  _ */\n      pop\n        /* \"contracts/InquireA.sol\":3684:4352  function submitAnswer(uint256 questionId, string memory _answerText) public questionExists(questionId) notClosed(questionId) {... */\n      pop\n      pop\n      pop\n      jump\t// out\n        /* \"contracts/InquireA.sol\":1124:1185  mapping(uint256 => mapping(uint256 => Answer)) public answers */\n    tag_39:\n      mstore(0x20, 0x05)\n      dup2\n      0x00\n      mstore\n      mstore(0x20, keccak256(0x00, 0x40))\n      dup1\n      0x00\n      mstore\n      keccak256(0x00, 0x40)\n      0x00\n      swap2\n      pop\n      swap2\n      pop\n      pop\n      dup1\n      0x00\n      add\n      sload\n      swap1\n      dup1\n      0x01\n      add\n      0x00\n      swap1\n      sload\n      swap1\n      0x0100\n      exp\n      swap1\n      div\n      0xffffffffffffffffffffffffffffffffffffffff\n      and\n      swap1\n      dup1\n      0x02\n      add\n      dup1\n      sload\n      tag_174\n      swap1\n      tag_150\n      jump\t// in\n    tag_174:\n      dup1\n      0x1f\n      add\n      0x20\n      dup1\n      swap2\n      div\n      mul\n      0x20\n      add\n      mload(0x40)\n      swap1\n      dup2\n      add\n      0x40\n      mstore\n      dup1\n      swap3\n      swap2\n      swap1\n      dup2\n      dup2\n      mstore\n      0x20\n      add\n      dup3\n      dup1\n      sload\n      tag_175\n      swap1\n      tag_150\n      jump\t// in\n    tag_175:\n      dup1\n      iszero\n      tag_176\n      jumpi\n      dup1\n      0x1f\n      lt\n      tag_177\n      jumpi\n      0x0100\n      dup1\n      dup4\n      sload\n      div\n      mul\n      dup4\n      mstore\n      swap2\n      0x20\n      add\n      swap2\n      jump(tag_176)\n    tag_177:\n      dup3\n      add\n      swap2\n      swap1\n      0x00\n      mstore\n      keccak256(0x00, 0x20)\n      swap1\n    tag_178:\n      dup2\n      sload\n      dup2\n      mstore\n      swap1\n      0x01\n      add\n      swap1\n      0x20\n      add\n      dup1\n      dup4\n      gt\n      tag_178\n      jumpi\n      dup3\n      swap1\n      sub\n      0x1f\n      and\n      dup3\n      add\n      swap2\n    tag_176:\n      pop\n      pop\n      pop\n      pop\n      pop\n      swap1\n      dup1\n      0x03\n      add\n      sload\n      swap1\n      dup1\n      0x04\n      add\n      sload\n      swap1\n      dup1\n      0x05\n      add\n      sload\n      swap1\n      pop\n      dup7\n      jump\t// out\n        /* \"contracts/InquireA.sol\":5778:6328  function voteForAnswer(uint256 questionId, uint256 answerId) public payable questionExists(questionId) notClosed(questionId) {... */\n    tag_44:\n        /* \"contracts/InquireA.sol\":5869:5879  questionId */\n      dup2\n        /* \"contracts/InquireA.sol\":2088:2089  0 */\n      0x00\n        /* \"contracts/InquireA.sol\":2049:2090  questions[questionId].asker != address(0) */\n      0xffffffffffffffffffffffffffffffffffffffff\n      and\n        /* \"contracts/InquireA.sol\":2049:2058  questions */\n      0x04\n        /* \"contracts/InquireA.sol\":2049:2070  questions[questionId] */\n      0x00\n        /* \"contracts/InquireA.sol\":2059:2069  questionId */\n      dup4\n        /* \"contracts/InquireA.sol\":2049:2070  questions[questionId] */\n      dup2\n      mstore\n      0x20\n      add\n      swap1\n      dup2\n      mstore\n      0x20\n      add\n      0x00\n      keccak256\n        /* \"contracts/InquireA.sol\":2049:2076  questions[questionId].asker */\n      0x01\n      add\n      0x00\n      swap1\n      sload\n      swap1\n      0x0100\n      exp\n      swap1\n      div\n      0xffffffffffffffffffffffffffffffffffffffff\n      and\n        /* \"contracts/InquireA.sol\":2049:2090  questions[questionId].asker != address(0) */\n      0xffffffffffffffffffffffffffffffffffffffff\n      and\n      sub\n        /* \"contracts/InquireA.sol\":2041:2118  require(questions[questionId].asker != address(0), \"Question does not exist\") */\n      tag_180\n      jumpi\n      mload(0x40)\n      0x08c379a000000000000000000000000000000000000000000000000000000000\n      dup2\n      mstore\n      0x04\n      add\n      tag_181\n      swap1\n      tag_131\n      jump\t// in\n    tag_181:\n      mload(0x40)\n      dup1\n      swap2\n      sub\n      swap1\n      revert\n    tag_180:\n        /* \"contracts/InquireA.sol\":5891:5901  questionId */\n      dup3\n        /* \"contracts/InquireA.sol\":2205:2214  questions */\n      0x04\n        /* \"contracts/InquireA.sol\":2205:2226  questions[questionId] */\n      0x00\n        /* \"contracts/InquireA.sol\":2215:2225  questionId */\n      dup3\n        /* \"contracts/InquireA.sol\":2205:2226  questions[questionId] */\n      dup2\n      mstore\n      0x20\n      add\n      swap1\n      dup2\n      mstore\n      0x20\n      add\n      0x00\n      keccak256\n        /* \"contracts/InquireA.sol\":2205:2235  questions[questionId].isClosed */\n      0x08\n      add\n      0x00\n      swap1\n      sload\n      swap1\n      0x0100\n      exp\n      swap1\n      div\n      0xff\n      and\n        /* \"contracts/InquireA.sol\":2204:2235  !questions[questionId].isClosed */\n      iszero\n        /* \"contracts/InquireA.sol\":2196:2266  require(!questions[questionId].isClosed, \"Question is already closed\") */\n      tag_183\n      jumpi\n      mload(0x40)\n      0x08c379a000000000000000000000000000000000000000000000000000000000\n      dup2\n      mstore\n      0x04\n      add\n      tag_184\n      swap1\n      tag_135\n      jump\t// in\n    tag_184:\n      mload(0x40)\n      dup1\n      swap2\n      sub\n      swap1\n      revert\n    tag_183:\n        /* \"contracts/InquireA.sol\":5914:5938  Question memory question */\n      0x00\n        /* \"contracts/InquireA.sol\":5941:5950  questions */\n      0x04\n        /* \"contracts/InquireA.sol\":5941:5962  questions[questionId] */\n      0x00\n        /* \"contracts/InquireA.sol\":5951:5961  questionId */\n      dup7\n        /* \"contracts/InquireA.sol\":5941:5962  questions[questionId] */\n      dup2\n      mstore\n      0x20\n      add\n      swap1\n      dup2\n      mstore\n      0x20\n      add\n      0x00\n      keccak256\n        /* \"contracts/InquireA.sol\":5914:5962  Question memory question = questions[questionId] */\n      mload(0x40)\n      dup1\n      0x0140\n      add\n      0x40\n      mstore\n      swap1\n      dup2\n      0x00\n      dup3\n      add\n      sload\n      dup2\n      mstore\n      0x20\n      add\n      0x01\n      dup3\n      add\n      0x00\n      swap1\n      sload\n      swap1\n      0x0100\n      exp\n      swap1\n      div\n      0xffffffffffffffffffffffffffffffffffffffff\n      and\n      0xffffffffffffffffffffffffffffffffffffffff\n      and\n      0xffffffffffffffffffffffffffffffffffffffff\n      and\n      dup2\n      mstore\n      0x20\n      add\n      0x02\n      dup3\n      add\n      dup1\n      sload\n      tag_186\n      swap1\n      tag_150\n      jump\t// in\n    tag_186:\n      dup1\n      0x1f\n      add\n      0x20\n      dup1\n      swap2\n      div\n      mul\n      0x20\n      add\n      mload(0x40)\n      swap1\n      dup2\n      add\n      0x40\n      mstore\n      dup1\n      swap3\n      swap2\n      swap1\n      dup2\n      dup2\n      mstore\n      0x20\n      add\n      dup3\n      dup1\n      sload\n      tag_187\n      swap1\n      tag_150\n      jump\t// in\n    tag_187:\n      dup1\n      iszero\n      tag_188\n      jumpi\n      dup1\n      0x1f\n      lt\n      tag_189\n      jumpi\n      0x0100\n      dup1\n      dup4\n      sload\n      div\n      mul\n      dup4\n      mstore\n      swap2\n      0x20\n      add\n      swap2\n      jump(tag_188)\n    tag_189:\n      dup3\n      add\n      swap2\n      swap1\n      0x00\n      mstore\n      keccak256(0x00, 0x20)\n      swap1\n    tag_190:\n      dup2\n      sload\n      dup2\n      mstore\n      swap1\n      0x01\n      add\n      swap1\n      0x20\n      add\n      dup1\n      dup4\n      gt\n      tag_190\n      jumpi\n      dup3\n      swap1\n      sub\n      0x1f\n      and\n      dup3\n      add\n      swap2\n    tag_188:\n      pop\n      pop\n      pop\n      pop\n      pop\n      dup2\n      mstore\n      0x20\n      add\n      0x03\n      dup3\n      add\n      dup1\n      sload\n      tag_191\n      swap1\n      tag_150\n      jump\t// in\n    tag_191:\n      dup1\n      0x1f\n      add\n      0x20\n      dup1\n      swap2\n      div\n      mul\n      0x20\n      add\n      mload(0x40)\n      swap1\n      dup2\n      add\n      0x40\n      mstore\n      dup1\n      swap3\n      swap2\n      swap1\n      dup2\n      dup2\n      mstore\n      0x20\n      add\n      dup3\n      dup1\n      sload\n      tag_192\n      swap1\n      tag_150\n      jump\t// in\n    tag_192:\n      dup1\n      iszero\n      tag_193\n      jumpi\n      dup1\n      0x1f\n      lt\n      tag_194\n      jumpi\n      0x0100\n      dup1\n      dup4\n      sload\n      div\n      mul\n      dup4\n      mstore\n      swap2\n      0x20\n      add\n      swap2\n      jump(tag_193)\n    tag_194:\n      dup3\n      add\n      swap2\n      swap1\n      0x00\n      mstore\n      keccak256(0x00, 0x20)\n      swap1\n    tag_195:\n      dup2\n      sload\n      dup2\n      mstore\n      swap1\n      0x01\n      add\n      swap1\n      0x20\n      add\n      dup1\n      dup4\n      gt\n      tag_195\n      jumpi\n      dup3\n      swap1\n      sub\n      0x1f\n      and\n      dup3\n      add\n      swap2\n    tag_193:\n      pop\n      pop\n      pop\n      pop\n      pop\n      dup2\n      mstore\n      0x20\n      add\n      0x04\n      dup3\n      add\n      dup1\n      sload\n      tag_196\n      swap1\n      tag_150\n      jump\t// in\n    tag_196:\n      dup1\n      0x1f\n      add\n      0x20\n      dup1\n      swap2\n      div\n      mul\n      0x20\n      add\n      mload(0x40)\n      swap1\n      dup2\n      add\n      0x40\n      mstore\n      dup1\n      swap3\n      swap2\n      swap1\n      dup2\n      dup2\n      mstore\n      0x20\n      add\n      dup3\n      dup1\n      sload\n      tag_197\n      swap1\n      tag_150\n      jump\t// in\n    tag_197:\n      dup1\n      iszero\n      tag_198\n      jumpi\n      dup1\n      0x1f\n      lt\n      tag_199\n      jumpi\n      0x0100\n      dup1\n      dup4\n      sload\n      div\n      mul\n      dup4\n      mstore\n      swap2\n      0x20\n      add\n      swap2\n      jump(tag_198)\n    tag_199:\n      dup3\n      add\n      swap2\n      swap1\n      0x00\n      mstore\n      keccak256(0x00, 0x20)\n      swap1\n    tag_200:\n      dup2\n      sload\n      dup2\n      mstore\n      swap1\n      0x01\n      add\n      swap1\n      0x20\n      add\n      dup1\n      dup4\n      gt\n      tag_200\n      jumpi\n      dup3\n      swap1\n      sub\n      0x1f\n      and\n      dup3\n      add\n      swap2\n    tag_198:\n      pop\n      pop\n      pop\n      pop\n      pop\n      dup2\n      mstore\n      0x20\n      add\n      0x05\n      dup3\n      add\n      sload\n      dup2\n      mstore\n      0x20\n      add\n      0x06\n      dup3\n      add\n      sload\n      dup2\n      mstore\n      0x20\n      add\n      0x07\n      dup3\n      add\n      sload\n      dup2\n      mstore\n      0x20\n      add\n      0x08\n      dup3\n      add\n      0x00\n      swap1\n      sload\n      swap1\n      0x0100\n      exp\n      swap1\n      div\n      0xff\n      and\n      iszero\n      iszero\n      iszero\n      iszero\n      dup2\n      mstore\n      0x20\n      add\n      0x09\n      dup3\n      add\n      sload\n      dup2\n      mstore\n      pop\n      pop\n      swap1\n      pop\n        /* \"contracts/InquireA.sol\":6000:6008  question */\n      dup1\n        /* \"contracts/InquireA.sol\":6000:6017  question.deadline */\n      0xe0\n      add\n      mload\n        /* \"contracts/InquireA.sol\":5981:5996  block.timestamp */\n      timestamp\n        /* \"contracts/InquireA.sol\":5981:6017  block.timestamp <= question.deadline */\n      gt\n      iszero\n        /* \"contracts/InquireA.sol\":5973:6045  require(block.timestamp <= question.deadline, \"Voting period has ended\") */\n      tag_201\n      jumpi\n      mload(0x40)\n      0x08c379a000000000000000000000000000000000000000000000000000000000\n      dup2\n      mstore\n      0x04\n      add\n      tag_202\n      swap1\n      tag_203\n      jump\t// in\n    tag_202:\n      mload(0x40)\n      dup1\n      swap2\n      sub\n      swap1\n      revert\n    tag_201:\n        /* \"contracts/InquireA.sol\":6079:6086  voteFee */\n      sload(0x01)\n        /* \"contracts/InquireA.sol\":6066:6075  msg.value */\n      callvalue\n        /* \"contracts/InquireA.sol\":6066:6086  msg.value == voteFee */\n      eq\n        /* \"contracts/InquireA.sol\":6058:6109  require(msg.value == voteFee, \"Incorrect vote fee\") */\n      tag_204\n      jumpi\n      mload(0x40)\n      0x08c379a000000000000000000000000000000000000000000000000000000000\n      dup2\n      mstore\n      0x04\n      add\n      tag_205\n      swap1\n      tag_206\n      jump\t// in\n    tag_205:\n      mload(0x40)\n      dup1\n      swap2\n      sub\n      swap1\n      revert\n    tag_204:\n        /* \"contracts/InquireA.sol\":6122:6143  Answer storage answer */\n      0x00\n        /* \"contracts/InquireA.sol\":6146:6153  answers */\n      0x05\n        /* \"contracts/InquireA.sol\":6146:6165  answers[questionId] */\n      0x00\n        /* \"contracts/InquireA.sol\":6154:6164  questionId */\n      dup8\n        /* \"contracts/InquireA.sol\":6146:6165  answers[questionId] */\n      dup2\n      mstore\n      0x20\n      add\n      swap1\n      dup2\n      mstore\n      0x20\n      add\n      0x00\n      keccak256\n        /* \"contracts/InquireA.sol\":6146:6175  answers[questionId][answerId] */\n      0x00\n        /* \"contracts/InquireA.sol\":6166:6174  answerId */\n      dup7\n        /* \"contracts/InquireA.sol\":6146:6175  answers[questionId][answerId] */\n      dup2\n      mstore\n      0x20\n      add\n      swap1\n      dup2\n      mstore\n      0x20\n      add\n      0x00\n      keccak256\n        /* \"contracts/InquireA.sol\":6122:6175  Answer storage answer = answers[questionId][answerId] */\n      swap1\n      pop\n        /* \"contracts/InquireA.sol\":6204:6205  1 */\n      0x01\n        /* \"contracts/InquireA.sol\":6186:6192  answer */\n      dup2\n        /* \"contracts/InquireA.sol\":6186:6200  answer.upvotes */\n      0x03\n      add\n      0x00\n        /* \"contracts/InquireA.sol\":6186:6205  answer.upvotes += 1 */\n      dup3\n      dup3\n      sload\n      tag_207\n      swap2\n      swap1\n      tag_208\n      jump\t// in\n    tag_207:\n      swap3\n      pop\n      pop\n      dup2\n      swap1\n      sstore\n      pop\n        /* \"contracts/InquireA.sol\":6254:6263  msg.value */\n      callvalue\n        /* \"contracts/InquireA.sol\":6216:6225  questions */\n      0x04\n        /* \"contracts/InquireA.sol\":6216:6237  questions[questionId] */\n      0x00\n        /* \"contracts/InquireA.sol\":6226:6236  questionId */\n      dup9\n        /* \"contracts/InquireA.sol\":6216:6237  questions[questionId] */\n      dup2\n      mstore\n      0x20\n      add\n      swap1\n      dup2\n      mstore\n      0x20\n      add\n      0x00\n      keccak256\n        /* \"contracts/InquireA.sol\":6216:6250  questions[questionId].rewardAmount */\n      0x05\n      add\n      0x00\n        /* \"contracts/InquireA.sol\":6216:6263  questions[questionId].rewardAmount += msg.value */\n      dup3\n      dup3\n      sload\n      tag_209\n      swap2\n      swap1\n      tag_208\n      jump\t// in\n    tag_209:\n      swap3\n      pop\n      pop\n      dup2\n      swap1\n      sstore\n      pop\n        /* \"contracts/InquireA.sol\":6309:6319  msg.sender */\n      caller\n        /* \"contracts/InquireA.sol\":6281:6320  Voted(questionId, answerId, msg.sender) */\n      0xffffffffffffffffffffffffffffffffffffffff\n      and\n      0xd91ecafccf238642dccd41161308b3eebe62a12bc5819daf5164780c221ec95b\n        /* \"contracts/InquireA.sol\":6287:6297  questionId */\n      dup8\n        /* \"contracts/InquireA.sol\":6299:6307  answerId */\n      dup8\n        /* \"contracts/InquireA.sol\":6281:6320  Voted(questionId, answerId, msg.sender) */\n      mload(0x40)\n      tag_210\n      swap3\n      swap2\n      swap1\n      tag_141\n      jump\t// in\n    tag_210:\n      mload(0x40)\n      dup1\n      swap2\n      sub\n      swap1\n      log2\n        /* \"contracts/InquireA.sol\":5903:6328  {... */\n      pop\n      pop\n        /* \"contracts/InquireA.sol\":2129:2130  _ */\n      pop\n        /* \"contracts/InquireA.sol\":5778:6328  function voteForAnswer(uint256 questionId, uint256 answerId) public payable questionExists(questionId) notClosed(questionId) {... */\n      pop\n      pop\n      pop\n      jump\t// out\n        /* \"contracts/InquireA.sol\":1192:1235  mapping(address => uint256) public balances */\n    tag_49:\n      mstore(0x20, 0x06)\n      dup1\n      0x00\n      mstore\n      keccak256(0x00, 0x40)\n      0x00\n      swap2\n      pop\n      swap1\n      pop\n      sload\n      dup2\n      jump\t// out\n        /* \"contracts/InquireA.sol\":1072:1117  mapping(uint256 => Question) public questions */\n    tag_56:\n      mstore(0x20, 0x04)\n      dup1\n      0x00\n      mstore\n      keccak256(0x00, 0x40)\n      0x00\n      swap2\n      pop\n      swap1\n      pop\n      dup1\n      0x00\n      add\n      sload\n      swap1\n      dup1\n      0x01\n      add\n      0x00\n      swap1\n      sload\n      swap1\n      0x0100\n      exp\n      swap1\n      div\n      0xffffffffffffffffffffffffffffffffffffffff\n      and\n      swap1\n      dup1\n      0x02\n      add\n      dup1\n      sload\n      tag_211\n      swap1\n      tag_150\n      jump\t// in\n    tag_211:\n      dup1\n      0x1f\n      add\n      0x20\n      dup1\n      swap2\n      div\n      mul\n      0x20\n      add\n      mload(0x40)\n      swap1\n      dup2\n      add\n      0x40\n      mstore\n      dup1\n      swap3\n      swap2\n      swap1\n      dup2\n      dup2\n      mstore\n      0x20\n      add\n      dup3\n      dup1\n      sload\n      tag_212\n      swap1\n      tag_150\n      jump\t// in\n    tag_212:\n      dup1\n      iszero\n      tag_213\n      jumpi\n      dup1\n      0x1f\n      lt\n      tag_214\n      jumpi\n      0x0100\n      dup1\n      dup4\n      sload\n      div\n      mul\n      dup4\n      mstore\n      swap2\n      0x20\n      add\n      swap2\n      jump(tag_213)\n    tag_214:\n      dup3\n      add\n      swap2\n      swap1\n      0x00\n      mstore\n      keccak256(0x00, 0x20)\n      swap1\n    tag_215:\n      dup2\n      sload\n      dup2\n      mstore\n      swap1\n      0x01\n      add\n      swap1\n      0x20\n      add\n      dup1\n      dup4\n      gt\n      tag_215\n      jumpi\n      dup3\n      swap1\n      sub\n      0x1f\n      and\n      dup3\n      add\n      swap2\n    tag_213:\n      pop\n      pop\n      pop\n      pop\n      pop\n      swap1\n      dup1\n      0x03\n      add\n      dup1\n      sload\n      tag_216\n      swap1\n      tag_150\n      jump\t// in\n    tag_216:\n      dup1\n      0x1f\n      add\n      0x20\n      dup1\n      swap2\n      div\n      mul\n      0x20\n      add\n      mload(0x40)\n      swap1\n      dup2\n      add\n      0x40\n      mstore\n      dup1\n      swap3\n      swap2\n      swap1\n      dup2\n      dup2\n      mstore\n      0x20\n      add\n      dup3\n      dup1\n      sload\n      tag_217\n      swap1\n      tag_150\n      jump\t// in\n    tag_217:\n      dup1\n      iszero\n      tag_218\n      jumpi\n      dup1\n      0x1f\n      lt\n      tag_219\n      jumpi\n      0x0100\n      dup1\n      dup4\n      sload\n      div\n      mul\n      dup4\n      mstore\n      swap2\n      0x20\n      add\n      swap2\n      jump(tag_218)\n    tag_219:\n      dup3\n      add\n      swap2\n      swap1\n      0x00\n      mstore\n      keccak256(0x00, 0x20)\n      swap1\n    tag_220:\n      dup2\n      sload\n      dup2\n      mstore\n      swap1\n      0x01\n      add\n      swap1\n      0x20\n      add\n      dup1\n      dup4\n      gt\n      tag_220\n      jumpi\n      dup3\n      swap1\n      sub\n      0x1f\n      and\n      dup3\n      add\n      swap2\n    tag_218:\n      pop\n      pop\n      pop\n      pop\n      pop\n      swap1\n      dup1\n      0x04\n      add\n      dup1\n      sload\n      tag_221\n      swap1\n      tag_150\n      jump\t// in\n    tag_221:\n      dup1\n      0x1f\n      add\n      0x20\n      dup1\n      swap2\n      div\n      mul\n      0x20\n      add\n      mload(0x40)\n      swap1\n      dup2\n      add\n      0x40\n      mstore\n      dup1\n      swap3\n      swap2\n      swap1\n      dup2\n      dup2\n      mstore\n      0x20\n      add\n      dup3\n      dup1\n      sload\n      tag_222\n      swap1\n      tag_150\n      jump\t// in\n    tag_222:\n      dup1\n      iszero\n      tag_223\n      jumpi\n      dup1\n      0x1f\n      lt\n      tag_224\n      jumpi\n      0x0100\n      dup1\n      dup4\n      sload\n      div\n      mul\n      dup4\n      mstore\n      swap2\n      0x20\n      add\n      swap2\n      jump(tag_223)\n    tag_224:\n      dup3\n      add\n      swap2\n      swap1\n      0x00\n      mstore\n      keccak256(0x00, 0x20)\n      swap1\n    tag_225:\n      dup2\n      sload\n      dup2\n      mstore\n      swap1\n      0x01\n      add\n      swap1\n      0x20\n      add\n      dup1\n      dup4\n      gt\n      tag_225\n      jumpi\n      dup3\n      swap1\n      sub\n      0x1f\n      and\n      dup3\n      add\n      swap2\n    tag_223:\n      pop\n      pop\n      pop\n      pop\n      pop\n      swap1\n      dup1\n      0x05\n      add\n      sload\n      swap1\n      dup1\n      0x06\n      add\n      sload\n      swap1\n      dup1\n      0x07\n      add\n      sload\n      swap1\n      dup1\n      0x08\n      add\n      0x00\n      swap1\n      sload\n      swap1\n      0x0100\n      exp\n      swap1\n      div\n      0xff\n      and\n      swap1\n      dup1\n      0x09\n      add\n      sload\n      swap1\n      pop\n      dup11\n      jump\t// out\n        /* \"contracts/InquireA.sol\":7831:8052  function withdraw() public {... */\n    tag_61:\n        /* \"contracts/InquireA.sol\":7869:7883  uint256 amount */\n      0x00\n        /* \"contracts/InquireA.sol\":7886:7894  balances */\n      0x06\n        /* \"contracts/InquireA.sol\":7886:7906  balances[msg.sender] */\n      0x00\n        /* \"contracts/InquireA.sol\":7895:7905  msg.sender */\n      caller\n        /* \"contracts/InquireA.sol\":7886:7906  balances[msg.sender] */\n      0xffffffffffffffffffffffffffffffffffffffff\n      and\n      0xffffffffffffffffffffffffffffffffffffffff\n      and\n      dup2\n      mstore\n      0x20\n      add\n      swap1\n      dup2\n      mstore\n      0x20\n      add\n      0x00\n      keccak256\n      sload\n        /* \"contracts/InquireA.sol\":7869:7906  uint256 amount = balances[msg.sender] */\n      swap1\n      pop\n        /* \"contracts/InquireA.sol\":7934:7935  0 */\n      0x00\n        /* \"contracts/InquireA.sol\":7925:7931  amount */\n      dup2\n        /* \"contracts/InquireA.sol\":7925:7935  amount > 0 */\n      gt\n        /* \"contracts/InquireA.sol\":7917:7960  require(amount > 0, \"No funds to withdraw\") */\n      tag_227\n      jumpi\n      mload(0x40)\n      0x08c379a000000000000000000000000000000000000000000000000000000000\n      dup2\n      mstore\n      0x04\n      add\n      tag_228\n      swap1\n      tag_229\n      jump\t// in\n    tag_228:\n      mload(0x40)\n      dup1\n      swap2\n      sub\n      swap1\n      revert\n    tag_227:\n        /* \"contracts/InquireA.sol\":7996:7997  0 */\n      0x00\n        /* \"contracts/InquireA.sol\":7973:7981  balances */\n      0x06\n        /* \"contracts/InquireA.sol\":7973:7993  balances[msg.sender] */\n      0x00\n        /* \"contracts/InquireA.sol\":7982:7992  msg.sender */\n      caller\n        /* \"contracts/InquireA.sol\":7973:7993  balances[msg.sender] */\n      0xffffffffffffffffffffffffffffffffffffffff\n      and\n      0xffffffffffffffffffffffffffffffffffffffff\n      and\n      dup2\n      mstore\n      0x20\n      add\n      swap1\n      dup2\n      mstore\n      0x20\n      add\n      0x00\n      keccak256\n        /* \"contracts/InquireA.sol\":7973:7997  balances[msg.sender] = 0 */\n      dup2\n      swap1\n      sstore\n      pop\n        /* \"contracts/InquireA.sol\":8016:8026  msg.sender */\n      caller\n        /* \"contracts/InquireA.sol\":8008:8036  payable(msg.sender).transfer */\n      0xffffffffffffffffffffffffffffffffffffffff\n      and\n        /* \"contracts/InquireA.sol\":8008:8044  payable(msg.sender).transfer(amount) */\n      0x08fc\n        /* \"contracts/InquireA.sol\":8037:8043  amount */\n      dup3\n        /* \"contracts/InquireA.sol\":8008:8044  payable(msg.sender).transfer(amount) */\n      swap1\n      dup2\n      iszero\n      mul\n      swap1\n      mload(0x40)\n      0x00\n      mload(0x40)\n      dup1\n      dup4\n      sub\n      dup2\n      dup6\n      dup9\n      dup9\n      call\n      swap4\n      pop\n      pop\n      pop\n      pop\n      iszero\n      dup1\n      iszero\n      tag_231\n      jumpi\n      returndatasize\n      0x00\n      dup1\n      returndatacopy\n      revert(0x00, returndatasize)\n    tag_231:\n      pop\n        /* \"contracts/InquireA.sol\":7858:8052  {... */\n      pop\n        /* \"contracts/InquireA.sol\":7831:8052  function withdraw() public {... */\n      jump\t// out\n        /* \"contracts/InquireA.sol\":5520:5770  function getAnswerById(uint256 questionId, uint256 answerId) public view returns (Answer memory) {... */\n    tag_65:\n        /* \"contracts/InquireA.sol\":5602:5615  Answer memory */\n      tag_232\n      tag_233\n      jump\t// in\n    tag_232:\n        /* \"contracts/InquireA.sol\":5687:5688  0 */\n      0x00\n        /* \"contracts/InquireA.sol\":5636:5689  answers[questionId][answerId].responder != address(0) */\n      0xffffffffffffffffffffffffffffffffffffffff\n      and\n        /* \"contracts/InquireA.sol\":5636:5643  answers */\n      0x05\n        /* \"contracts/InquireA.sol\":5636:5655  answers[questionId] */\n      0x00\n        /* \"contracts/InquireA.sol\":5644:5654  questionId */\n      dup6\n        /* \"contracts/InquireA.sol\":5636:5655  answers[questionId] */\n      dup2\n      mstore\n      0x20\n      add\n      swap1\n      dup2\n      mstore\n      0x20\n      add\n      0x00\n      keccak256\n        /* \"contracts/InquireA.sol\":5636:5665  answers[questionId][answerId] */\n      0x00\n        /* \"contracts/InquireA.sol\":5656:5664  answerId */\n      dup5\n        /* \"contracts/InquireA.sol\":5636:5665  answers[questionId][answerId] */\n      dup2\n      mstore\n      0x20\n      add\n      swap1\n      dup2\n      mstore\n      0x20\n      add\n      0x00\n      keccak256\n        /* \"contracts/InquireA.sol\":5636:5675  answers[questionId][answerId].responder */\n      0x01\n      add\n      0x00\n      swap1\n      sload\n      swap1\n      0x0100\n      exp\n      swap1\n      div\n      0xffffffffffffffffffffffffffffffffffffffff\n      and\n        /* \"contracts/InquireA.sol\":5636:5689  answers[questionId][answerId].responder != address(0) */\n      0xffffffffffffffffffffffffffffffffffffffff\n      and\n      sub\n        /* \"contracts/InquireA.sol\":5628:5715  require(answers[questionId][answerId].responder != address(0), \"Answer does not exist\") */\n      tag_235\n      jumpi\n      mload(0x40)\n      0x08c379a000000000000000000000000000000000000000000000000000000000\n      dup2\n      mstore\n      0x04\n      add\n      tag_236\n      swap1\n      tag_237\n      jump\t// in\n    tag_236:\n      mload(0x40)\n      dup1\n      swap2\n      sub\n      swap1\n      revert\n    tag_235:\n        /* \"contracts/InquireA.sol\":5733:5740  answers */\n      0x05\n        /* \"contracts/InquireA.sol\":5733:5752  answers[questionId] */\n      0x00\n        /* \"contracts/InquireA.sol\":5741:5751  questionId */\n      dup5\n        /* \"contracts/InquireA.sol\":5733:5752  answers[questionId] */\n      dup2\n      mstore\n      0x20\n      add\n      swap1\n      dup2\n      mstore\n      0x20\n      add\n      0x00\n      keccak256\n        /* \"contracts/InquireA.sol\":5733:5762  answers[questionId][answerId] */\n      0x00\n        /* \"contracts/InquireA.sol\":5753:5761  answerId */\n      dup4\n        /* \"contracts/InquireA.sol\":5733:5762  answers[questionId][answerId] */\n      dup2\n      mstore\n      0x20\n      add\n      swap1\n      dup2\n      mstore\n      0x20\n      add\n      0x00\n      keccak256\n        /* \"contracts/InquireA.sol\":5726:5762  return answers[questionId][answerId] */\n      mload(0x40)\n      dup1\n      0xc0\n      add\n      0x40\n      mstore\n      swap1\n      dup2\n      0x00\n      dup3\n      add\n      sload\n      dup2\n      mstore\n      0x20\n      add\n      0x01\n      dup3\n      add\n      0x00\n      swap1\n      sload\n      swap1\n      0x0100\n      exp\n      swap1\n      div\n      0xffffffffffffffffffffffffffffffffffffffff\n      and\n      0xffffffffffffffffffffffffffffffffffffffff\n      and\n      0xffffffffffffffffffffffffffffffffffffffff\n      and\n      dup2\n      mstore\n      0x20\n      add\n      0x02\n      dup3\n      add\n      dup1\n      sload\n      tag_238\n      swap1\n      tag_150\n      jump\t// in\n    tag_238:\n      dup1\n      0x1f\n      add\n      0x20\n      dup1\n      swap2\n      div\n      mul\n      0x20\n      add\n      mload(0x40)\n      swap1\n      dup2\n      add\n      0x40\n      mstore\n      dup1\n      swap3\n      swap2\n      swap1\n      dup2\n      dup2\n      mstore\n      0x20\n      add\n      dup3\n      dup1\n      sload\n      tag_239\n      swap1\n      tag_150\n      jump\t// in\n    tag_239:\n      dup1\n      iszero\n      tag_240\n      jumpi\n      dup1\n      0x1f\n      lt\n      tag_241\n      jumpi\n      0x0100\n      dup1\n      dup4\n      sload\n      div\n      mul\n      dup4\n      mstore\n      swap2\n      0x20\n      add\n      swap2\n      jump(tag_240)\n    tag_241:\n      dup3\n      add\n      swap2\n      swap1\n      0x00\n      mstore\n      keccak256(0x00, 0x20)\n      swap1\n    tag_242:\n      dup2\n      sload\n      dup2\n      mstore\n      swap1\n      0x01\n      add\n      swap1\n      0x20\n      add\n      dup1\n      dup4\n      gt\n      tag_242\n      jumpi\n      dup3\n      swap1\n      sub\n      0x1f\n      and\n      dup3\n      add\n      swap2\n    tag_240:\n      pop\n      pop\n      pop\n      pop\n      pop\n      dup2\n      mstore\n      0x20\n      add\n      0x03\n      dup3\n      add\n      sload\n      dup2\n      mstore\n      0x20\n      add\n      0x04\n      dup3\n      add\n      sload\n      dup2\n      mstore\n      0x20\n      add\n      0x05\n      dup3\n      add\n      sload\n      dup2\n      mstore\n      pop\n      pop\n      swap1\n      pop\n        /* \"contracts/InquireA.sol\":5520:5770  function getAnswerById(uint256 questionId, uint256 answerId) public view returns (Answer memory) {... */\n      swap3\n      swap2\n      pop\n      pop\n      jump\t// out\n        /* \"contracts/InquireA.sol\":8210:8886  function getQuestionsByCategory(string memory _category) public view returns (uint256[] memory) {... */\n    tag_72:\n        /* \"contracts/InquireA.sol\":8288:8304  uint256[] memory */\n      0x60\n        /* \"contracts/InquireA.sol\":8317:8350  uint256[] memory matchedQuestions */\n      0x00\n        /* \"contracts/InquireA.sol\":8367:8384  questionIdCounter */\n      sload(0x02)\n        /* \"contracts/InquireA.sol\":8353:8385  new uint256[](questionIdCounter) */\n      0xffffffffffffffff\n      dup2\n      gt\n      iszero\n      tag_244\n      jumpi\n      tag_245\n      tag_246\n      jump\t// in\n    tag_245:\n    tag_244:\n      mload(0x40)\n      swap1\n      dup1\n      dup3\n      mstore\n      dup1\n      0x20\n      mul\n      0x20\n      add\n      dup3\n      add\n      0x40\n      mstore\n      dup1\n      iszero\n      tag_247\n      jumpi\n      dup2\n      0x20\n      add\n      0x20\n      dup3\n      mul\n      dup1\n      calldatasize\n      dup4\n      calldatacopy\n      dup1\n      dup3\n      add\n      swap2\n      pop\n      pop\n      swap1\n      pop\n    tag_247:\n      pop\n        /* \"contracts/InquireA.sol\":8317:8385  uint256[] memory matchedQuestions = new uint256[](questionIdCounter) */\n      swap1\n      pop\n        /* \"contracts/InquireA.sol\":8396:8409  uint256 count */\n      0x00\n        /* \"contracts/InquireA.sol\":8431:8440  uint256 i */\n      dup1\n        /* \"contracts/InquireA.sol\":8426:8664  for (uint256 i = 0; i < questionIdCounter; i++) {... */\n    tag_248:\n        /* \"contracts/InquireA.sol\":8450:8467  questionIdCounter */\n      sload(0x02)\n        /* \"contracts/InquireA.sol\":8446:8447  i */\n      dup2\n        /* \"contracts/InquireA.sol\":8446:8467  i < questionIdCounter */\n      lt\n        /* \"contracts/InquireA.sol\":8426:8664  for (uint256 i = 0; i < questionIdCounter; i++) {... */\n      iszero\n      tag_249\n      jumpi\n        /* \"contracts/InquireA.sol\":8552:8561  _category */\n      dup5\n        /* \"contracts/InquireA.sol\":8536:8563  keccak256(bytes(_category)) */\n      dup1\n      mload\n      swap1\n      0x20\n      add\n      keccak256\n        /* \"contracts/InquireA.sol\":8509:8518  questions */\n      0x04\n        /* \"contracts/InquireA.sol\":8509:8521  questions[i] */\n      0x00\n        /* \"contracts/InquireA.sol\":8519:8520  i */\n      dup4\n        /* \"contracts/InquireA.sol\":8509:8521  questions[i] */\n      dup2\n      mstore\n      0x20\n      add\n      swap1\n      dup2\n      mstore\n      0x20\n      add\n      0x00\n      keccak256\n        /* \"contracts/InquireA.sol\":8509:8530  questions[i].category */\n      0x04\n      add\n        /* \"contracts/InquireA.sol\":8493:8532  keccak256(bytes(questions[i].category)) */\n      mload(0x40)\n      tag_251\n      swap2\n      swap1\n      tag_252\n      jump\t// in\n    tag_251:\n      mload(0x40)\n      dup1\n      swap2\n      sub\n      swap1\n      keccak256\n        /* \"contracts/InquireA.sol\":8493:8563  keccak256(bytes(questions[i].category)) == keccak256(bytes(_category)) */\n      sub\n        /* \"contracts/InquireA.sol\":8489:8653  if (keccak256(bytes(questions[i].category)) == keccak256(bytes(_category))) {... */\n      tag_253\n      jumpi\n        /* \"contracts/InquireA.sol\":8610:8611  i */\n      dup1\n        /* \"contracts/InquireA.sol\":8584:8600  matchedQuestions */\n      dup4\n        /* \"contracts/InquireA.sol\":8601:8606  count */\n      dup4\n        /* \"contracts/InquireA.sol\":8584:8607  matchedQuestions[count] */\n      dup2\n      mload\n      dup2\n      lt\n      tag_254\n      jumpi\n      tag_255\n      tag_256\n      jump\t// in\n    tag_255:\n    tag_254:\n      0x20\n      mul\n      0x20\n      add\n      add\n        /* \"contracts/InquireA.sol\":8584:8611  matchedQuestions[count] = i */\n      dup2\n      dup2\n      mstore\n      pop\n      pop\n        /* \"contracts/InquireA.sol\":8630:8637  count++ */\n      dup2\n      dup1\n      tag_257\n      swap1\n      tag_169\n      jump\t// in\n    tag_257:\n      swap3\n      pop\n      pop\n        /* \"contracts/InquireA.sol\":8489:8653  if (keccak256(bytes(questions[i].category)) == keccak256(bytes(_category))) {... */\n    tag_253:\n        /* \"contracts/InquireA.sol\":8469:8472  i++ */\n      dup1\n      dup1\n      0x01\n      add\n      swap2\n      pop\n      pop\n        /* \"contracts/InquireA.sol\":8426:8664  for (uint256 i = 0; i < questionIdCounter; i++) {... */\n      jump(tag_248)\n    tag_249:\n      pop\n        /* \"contracts/InquireA.sol\":8702:8725  uint256[] memory result */\n      0x00\n        /* \"contracts/InquireA.sol\":8742:8747  count */\n      dup2\n        /* \"contracts/InquireA.sol\":8728:8748  new uint256[](count) */\n      0xffffffffffffffff\n      dup2\n      gt\n      iszero\n      tag_258\n      jumpi\n      tag_259\n      tag_246\n      jump\t// in\n    tag_259:\n    tag_258:\n      mload(0x40)\n      swap1\n      dup1\n      dup3\n      mstore\n      dup1\n      0x20\n      mul\n      0x20\n      add\n      dup3\n      add\n      0x40\n      mstore\n      dup1\n      iszero\n      tag_260\n      jumpi\n      dup2\n      0x20\n      add\n      0x20\n      dup3\n      mul\n      dup1\n      calldatasize\n      dup4\n      calldatacopy\n      dup1\n      dup3\n      add\n      swap2\n      pop\n      pop\n      swap1\n      pop\n    tag_260:\n      pop\n        /* \"contracts/InquireA.sol\":8702:8748  uint256[] memory result = new uint256[](count) */\n      swap1\n      pop\n        /* \"contracts/InquireA.sol\":8764:8773  uint256 i */\n      0x00\n        /* \"contracts/InquireA.sol\":8759:8853  for (uint256 i = 0; i < count; i++) {... */\n    tag_261:\n        /* \"contracts/InquireA.sol\":8783:8788  count */\n      dup3\n        /* \"contracts/InquireA.sol\":8779:8780  i */\n      dup2\n        /* \"contracts/InquireA.sol\":8779:8788  i < count */\n      lt\n        /* \"contracts/InquireA.sol\":8759:8853  for (uint256 i = 0; i < count; i++) {... */\n      iszero\n      tag_262\n      jumpi\n        /* \"contracts/InquireA.sol\":8822:8838  matchedQuestions */\n      dup4\n        /* \"contracts/InquireA.sol\":8839:8840  i */\n      dup2\n        /* \"contracts/InquireA.sol\":8822:8841  matchedQuestions[i] */\n      dup2\n      mload\n      dup2\n      lt\n      tag_264\n      jumpi\n      tag_265\n      tag_256\n      jump\t// in\n    tag_265:\n    tag_264:\n      0x20\n      mul\n      0x20\n      add\n      add\n      mload\n        /* \"contracts/InquireA.sol\":8810:8816  result */\n      dup3\n        /* \"contracts/InquireA.sol\":8817:8818  i */\n      dup3\n        /* \"contracts/InquireA.sol\":8810:8819  result[i] */\n      dup2\n      mload\n      dup2\n      lt\n      tag_266\n      jumpi\n      tag_267\n      tag_256\n      jump\t// in\n    tag_267:\n    tag_266:\n      0x20\n      mul\n      0x20\n      add\n      add\n        /* \"contracts/InquireA.sol\":8810:8841  result[i] = matchedQuestions[i] */\n      dup2\n      dup2\n      mstore\n      pop\n      pop\n        /* \"contracts/InquireA.sol\":8790:8793  i++ */\n      dup1\n      dup1\n      0x01\n      add\n      swap2\n      pop\n      pop\n        /* \"contracts/InquireA.sol\":8759:8853  for (uint256 i = 0; i < count; i++) {... */\n      jump(tag_261)\n    tag_262:\n      pop\n        /* \"contracts/InquireA.sol\":8872:8878  result */\n      dup1\n        /* \"contracts/InquireA.sol\":8865:8878  return result */\n      swap4\n      pop\n      pop\n      pop\n      pop\n        /* \"contracts/InquireA.sol\":8210:8886  function getQuestionsByCategory(string memory _category) public view returns (uint256[] memory) {... */\n      swap2\n      swap1\n      pop\n      jump\t// out\n        /* \"contracts/InquireA.sol\":2346:3645  function askQuestion(... */\n    tag_78:\n        /* \"contracts/InquireA.sol\":2575:2576  0 */\n      0x00\n        /* \"contracts/InquireA.sol\":2563:2572  msg.value */\n      callvalue\n        /* \"contracts/InquireA.sol\":2563:2576  msg.value > 0 */\n      gt\n        /* \"contracts/InquireA.sol\":2555:2613  require(msg.value > 0, \"Reward must be greater than zero\") */\n      tag_269\n      jumpi\n      mload(0x40)\n      0x08c379a000000000000000000000000000000000000000000000000000000000\n      dup2\n      mstore\n      0x04\n      add\n      tag_270\n      swap1\n      tag_271\n      jump\t// in\n    tag_270:\n      mload(0x40)\n      dup1\n      swap2\n      sub\n      swap1\n      revert\n    tag_269:\n        /* \"contracts/InquireA.sol\":2658:2659  0 */\n      0x00\n        /* \"contracts/InquireA.sol\":2638:2647  _category */\n      dup3\n        /* \"contracts/InquireA.sol\":2632:2655  bytes(_category).length */\n      mload\n        /* \"contracts/InquireA.sol\":2632:2659  bytes(_category).length > 0 */\n      gt\n        /* \"contracts/InquireA.sol\":2624:2688  require(bytes(_category).length > 0, \"Category cannot be empty\") */\n      tag_272\n      jumpi\n      mload(0x40)\n      0x08c379a000000000000000000000000000000000000000000000000000000000\n      dup2\n      mstore\n      0x04\n      add\n      tag_273\n      swap1\n      tag_274\n      jump\t// in\n    tag_273:\n      mload(0x40)\n      dup1\n      swap2\n      sub\n      swap1\n      revert\n    tag_272:\n        /* \"contracts/InquireA.sol\":2701:2717  uint256 deadline */\n      0x00\n        /* \"contracts/InquireA.sol\":2751:2773  DeadlinePeriod.OneWeek */\n      dup1\n        /* \"contracts/InquireA.sol\":2732:2773  _deadlinePeriod == DeadlinePeriod.OneWeek */\n      0x02\n      dup2\n      gt\n      iszero\n      tag_275\n      jumpi\n      tag_276\n      tag_277\n      jump\t// in\n    tag_276:\n    tag_275:\n        /* \"contracts/InquireA.sol\":2732:2747  _deadlinePeriod */\n      dup3\n        /* \"contracts/InquireA.sol\":2732:2773  _deadlinePeriod == DeadlinePeriod.OneWeek */\n      0x02\n      dup2\n      gt\n      iszero\n      tag_278\n      jumpi\n      tag_279\n      tag_277\n      jump\t// in\n    tag_279:\n    tag_278:\n      sub\n        /* \"contracts/InquireA.sol\":2728:3069  if (_deadlinePeriod == DeadlinePeriod.OneWeek) {... */\n      tag_280\n      jumpi\n        /* \"contracts/InquireA.sol\":299:305  7 days */\n      0x093a80\n        /* \"contracts/InquireA.sol\":2801:2816  block.timestamp */\n      timestamp\n        /* \"contracts/InquireA.sol\":2801:2823  block.timestamp + WEEK */\n      tag_281\n      swap2\n      swap1\n      tag_208\n      jump\t// in\n    tag_281:\n        /* \"contracts/InquireA.sol\":2790:2823  deadline = block.timestamp + WEEK */\n      swap1\n      pop\n        /* \"contracts/InquireA.sol\":2728:3069  if (_deadlinePeriod == DeadlinePeriod.OneWeek) {... */\n      jump(tag_282)\n    tag_280:\n        /* \"contracts/InquireA.sol\":2864:2887  DeadlinePeriod.TwoWeeks */\n      0x01\n        /* \"contracts/InquireA.sol\":2845:2887  _deadlinePeriod == DeadlinePeriod.TwoWeeks */\n      0x02\n      dup2\n      gt\n      iszero\n      tag_283\n      jumpi\n      tag_284\n      tag_277\n      jump\t// in\n    tag_284:\n    tag_283:\n        /* \"contracts/InquireA.sol\":2845:2860  _deadlinePeriod */\n      dup3\n        /* \"contracts/InquireA.sol\":2845:2887  _deadlinePeriod == DeadlinePeriod.TwoWeeks */\n      0x02\n      dup2\n      gt\n      iszero\n      tag_285\n      jumpi\n      tag_286\n      tag_277\n      jump\t// in\n    tag_286:\n    tag_285:\n      sub\n        /* \"contracts/InquireA.sol\":2841:3069  if (_deadlinePeriod == DeadlinePeriod.TwoWeeks) {... */\n      tag_287\n      jumpi\n        /* \"contracts/InquireA.sol\":348:355  14 days */\n      0x127500\n        /* \"contracts/InquireA.sol\":2915:2930  block.timestamp */\n      timestamp\n        /* \"contracts/InquireA.sol\":2915:2942  block.timestamp + TWO_WEEKS */\n      tag_288\n      swap2\n      swap1\n      tag_208\n      jump\t// in\n    tag_288:\n        /* \"contracts/InquireA.sol\":2904:2942  deadline = block.timestamp + TWO_WEEKS */\n      swap1\n      pop\n        /* \"contracts/InquireA.sol\":2841:3069  if (_deadlinePeriod == DeadlinePeriod.TwoWeeks) {... */\n      jump(tag_289)\n    tag_287:\n        /* \"contracts/InquireA.sol\":2983:3006  DeadlinePeriod.OneMonth */\n      0x02\n        /* \"contracts/InquireA.sol\":2964:3006  _deadlinePeriod == DeadlinePeriod.OneMonth */\n      dup1\n      dup2\n      gt\n      iszero\n      tag_290\n      jumpi\n      tag_291\n      tag_277\n      jump\t// in\n    tag_291:\n    tag_290:\n        /* \"contracts/InquireA.sol\":2964:2979  _deadlinePeriod */\n      dup3\n        /* \"contracts/InquireA.sol\":2964:3006  _deadlinePeriod == DeadlinePeriod.OneMonth */\n      0x02\n      dup2\n      gt\n      iszero\n      tag_292\n      jumpi\n      tag_293\n      tag_277\n      jump\t// in\n    tag_293:\n    tag_292:\n      sub\n        /* \"contracts/InquireA.sol\":2960:3069  if (_deadlinePeriod == DeadlinePeriod.OneMonth) {... */\n      tag_294\n      jumpi\n        /* \"contracts/InquireA.sol\":394:401  30 days */\n      0x278d00\n        /* \"contracts/InquireA.sol\":3034:3049  block.timestamp */\n      timestamp\n        /* \"contracts/InquireA.sol\":3034:3057  block.timestamp + MONTH */\n      tag_295\n      swap2\n      swap1\n      tag_208\n      jump\t// in\n    tag_295:\n        /* \"contracts/InquireA.sol\":3023:3057  deadline = block.timestamp + MONTH */\n      swap1\n      pop\n        /* \"contracts/InquireA.sol\":2960:3069  if (_deadlinePeriod == DeadlinePeriod.OneMonth) {... */\n    tag_294:\n        /* \"contracts/InquireA.sol\":2841:3069  if (_deadlinePeriod == DeadlinePeriod.TwoWeeks) {... */\n    tag_289:\n        /* \"contracts/InquireA.sol\":2728:3069  if (_deadlinePeriod == DeadlinePeriod.OneWeek) {... */\n    tag_282:\n        /* \"contracts/InquireA.sol\":3089:3107  uint256 questionId */\n      0x00\n        /* \"contracts/InquireA.sol\":3110:3127  questionIdCounter */\n      0x02\n      0x00\n        /* \"contracts/InquireA.sol\":3110:3129  questionIdCounter++ */\n      dup2\n      sload\n      dup1\n      swap3\n      swap2\n      swap1\n      tag_296\n      swap1\n      tag_169\n      jump\t// in\n    tag_296:\n      swap2\n      swap1\n      pop\n      sstore\n        /* \"contracts/InquireA.sol\":3089:3129  uint256 questionId = questionIdCounter++ */\n      swap1\n      pop\n        /* \"contracts/InquireA.sol\":3164:3545  Question({... */\n      mload(0x40)\n      dup1\n      0x0140\n      add\n      0x40\n      mstore\n      dup1\n        /* \"contracts/InquireA.sol\":3192:3202  questionId */\n      dup3\n        /* \"contracts/InquireA.sol\":3164:3545  Question({... */\n      dup2\n      mstore\n      0x20\n      add\n        /* \"contracts/InquireA.sol\":3224:3234  msg.sender */\n      caller\n        /* \"contracts/InquireA.sol\":3164:3545  Question({... */\n      0xffffffffffffffffffffffffffffffffffffffff\n      and\n      dup2\n      mstore\n      0x20\n      add\n        /* \"contracts/InquireA.sol\":3263:3276  _questionText */\n      dup8\n        /* \"contracts/InquireA.sol\":3164:3545  Question({... */\n      dup2\n      mstore\n      0x20\n      add\n        /* \"contracts/InquireA.sol\":3308:3324  _questionContent */\n      dup7\n        /* \"contracts/InquireA.sol\":3164:3545  Question({... */\n      dup2\n      mstore\n      0x20\n      add\n        /* \"contracts/InquireA.sol\":3350:3359  _category */\n      dup6\n        /* \"contracts/InquireA.sol\":3164:3545  Question({... */\n      dup2\n      mstore\n      0x20\n      add\n        /* \"contracts/InquireA.sol\":3388:3397  msg.value */\n      callvalue\n        /* \"contracts/InquireA.sol\":3164:3545  Question({... */\n      dup2\n      mstore\n      0x20\n      add\n        /* \"contracts/InquireA.sol\":3423:3438  block.timestamp */\n      timestamp\n        /* \"contracts/InquireA.sol\":3164:3545  Question({... */\n      dup2\n      mstore\n      0x20\n      add\n        /* \"contracts/InquireA.sol\":3463:3471  deadline */\n      dup4\n        /* \"contracts/InquireA.sol\":3164:3545  Question({... */\n      dup2\n      mstore\n      0x20\n      add\n        /* \"contracts/InquireA.sol\":3496:3501  false */\n      0x00\n        /* \"contracts/InquireA.sol\":3164:3545  Question({... */\n      iszero\n      iszero\n      dup2\n      mstore\n      0x20\n      add\n        /* \"contracts/InquireA.sol\":3532:3533  0 */\n      0x00\n        /* \"contracts/InquireA.sol\":3164:3545  Question({... */\n      dup2\n      mstore\n      pop\n        /* \"contracts/InquireA.sol\":3140:3149  questions */\n      0x04\n        /* \"contracts/InquireA.sol\":3140:3161  questions[questionId] */\n      0x00\n        /* \"contracts/InquireA.sol\":3150:3160  questionId */\n      dup4\n        /* \"contracts/InquireA.sol\":3140:3161  questions[questionId] */\n      dup2\n      mstore\n      0x20\n      add\n      swap1\n      dup2\n      mstore\n      0x20\n      add\n      0x00\n      keccak256\n        /* \"contracts/InquireA.sol\":3140:3545  questions[questionId] = Question({... */\n      0x00\n      dup3\n      add\n      mload\n      dup2\n      0x00\n      add\n      sstore\n      0x20\n      dup3\n      add\n      mload\n      dup2\n      0x01\n      add\n      exp(0x0100, 0x00)\n      dup2\n      sload\n      dup2\n      0xffffffffffffffffffffffffffffffffffffffff\n      mul\n      not\n      and\n      swap1\n      dup4\n      0xffffffffffffffffffffffffffffffffffffffff\n      and\n      mul\n      or\n      swap1\n      sstore\n      pop\n      0x40\n      dup3\n      add\n      mload\n      dup2\n      0x02\n      add\n      swap1\n      dup2\n      tag_297\n      swap2\n      swap1\n      tag_171\n      jump\t// in\n    tag_297:\n      pop\n      0x60\n      dup3\n      add\n      mload\n      dup2\n      0x03\n      add\n      swap1\n      dup2\n      tag_298\n      swap2\n      swap1\n      tag_171\n      jump\t// in\n    tag_298:\n      pop\n      0x80\n      dup3\n      add\n      mload\n      dup2\n      0x04\n      add\n      swap1\n      dup2\n      tag_299\n      swap2\n      swap1\n      tag_171\n      jump\t// in\n    tag_299:\n      pop\n      0xa0\n      dup3\n      add\n      mload\n      dup2\n      0x05\n      add\n      sstore\n      0xc0\n      dup3\n      add\n      mload\n      dup2\n      0x06\n      add\n      sstore\n      0xe0\n      dup3\n      add\n      mload\n      dup2\n      0x07\n      add\n      sstore\n      0x0100\n      dup3\n      add\n      mload\n      dup2\n      0x08\n      add\n      exp(0x0100, 0x00)\n      dup2\n      sload\n      dup2\n      0xff\n      mul\n      not\n      and\n      swap1\n      dup4\n      iszero\n      iszero\n      mul\n      or\n      swap1\n      sstore\n      pop\n      0x0120\n      dup3\n      add\n      mload\n      dup2\n      0x09\n      add\n      sstore\n      swap1\n      pop\n      pop\n        /* \"contracts/InquireA.sol\":3589:3599  msg.sender */\n      caller\n        /* \"contracts/InquireA.sol\":3563:3637  QuestionAsked(questionId, msg.sender, _questionText, msg.value, _category) */\n      0xffffffffffffffffffffffffffffffffffffffff\n      and\n      0xb8105899d34d8481e717a601e8d7a732c27b0ab23778e01145f2f3eb24a1120c\n        /* \"contracts/InquireA.sol\":3577:3587  questionId */\n      dup3\n        /* \"contracts/InquireA.sol\":3601:3614  _questionText */\n      dup9\n        /* \"contracts/InquireA.sol\":3616:3625  msg.value */\n      callvalue\n        /* \"contracts/InquireA.sol\":3627:3636  _category */\n      dup9\n        /* \"contracts/InquireA.sol\":3563:3637  QuestionAsked(questionId, msg.sender, _questionText, msg.value, _category) */\n      mload(0x40)\n      tag_300\n      swap5\n      swap4\n      swap3\n      swap2\n      swap1\n      tag_301\n      jump\t// in\n    tag_300:\n      mload(0x40)\n      dup1\n      swap2\n      sub\n      swap1\n      log2\n        /* \"contracts/InquireA.sol\":2544:3645  {... */\n      pop\n      pop\n        /* \"contracts/InquireA.sol\":2346:3645  function askQuestion(... */\n      pop\n      pop\n      pop\n      pop\n      jump\t// out\n        /* \"contracts/InquireA.sol\":6784:7785  function distributeRewards(uint256 questionId) public questionExists(questionId) {... */\n    tag_82:\n        /* \"contracts/InquireA.sol\":6853:6863  questionId */\n      dup1\n        /* \"contracts/InquireA.sol\":2088:2089  0 */\n      0x00\n        /* \"contracts/InquireA.sol\":2049:2090  questions[questionId].asker != address(0) */\n      0xffffffffffffffffffffffffffffffffffffffff\n      and\n        /* \"contracts/InquireA.sol\":2049:2058  questions */\n      0x04\n        /* \"contracts/InquireA.sol\":2049:2070  questions[questionId] */\n      0x00\n        /* \"contracts/InquireA.sol\":2059:2069  questionId */\n      dup4\n        /* \"contracts/InquireA.sol\":2049:2070  questions[questionId] */\n      dup2\n      mstore\n      0x20\n      add\n      swap1\n      dup2\n      mstore\n      0x20\n      add\n      0x00\n      keccak256\n        /* \"contracts/InquireA.sol\":2049:2076  questions[questionId].asker */\n      0x01\n      add\n      0x00\n      swap1\n      sload\n      swap1\n      0x0100\n      exp\n      swap1\n      div\n      0xffffffffffffffffffffffffffffffffffffffff\n      and\n        /* \"contracts/InquireA.sol\":2049:2090  questions[questionId].asker != address(0) */\n      0xffffffffffffffffffffffffffffffffffffffff\n      and\n      sub\n        /* \"contracts/InquireA.sol\":2041:2118  require(questions[questionId].asker != address(0), \"Question does not exist\") */\n      tag_303\n      jumpi\n      mload(0x40)\n      0x08c379a000000000000000000000000000000000000000000000000000000000\n      dup2\n      mstore\n      0x04\n      add\n      tag_304\n      swap1\n      tag_131\n      jump\t// in\n    tag_304:\n      mload(0x40)\n      dup1\n      swap2\n      sub\n      swap1\n      revert\n    tag_303:\n        /* \"contracts/InquireA.sol\":6876:6901  Question storage question */\n      0x00\n        /* \"contracts/InquireA.sol\":6904:6913  questions */\n      0x04\n        /* \"contracts/InquireA.sol\":6904:6925  questions[questionId] */\n      0x00\n        /* \"contracts/InquireA.sol\":6914:6924  questionId */\n      dup5\n        /* \"contracts/InquireA.sol\":6904:6925  questions[questionId] */\n      dup2\n      mstore\n      0x20\n      add\n      swap1\n      dup2\n      mstore\n      0x20\n      add\n      0x00\n      keccak256\n        /* \"contracts/InquireA.sol\":6876:6925  Question storage question = questions[questionId] */\n      swap1\n      pop\n        /* \"contracts/InquireA.sol\":6962:6970  question */\n      dup1\n        /* \"contracts/InquireA.sol\":6962:6979  question.deadline */\n      0x07\n      add\n      sload\n        /* \"contracts/InquireA.sol\":6944:6959  block.timestamp */\n      timestamp\n        /* \"contracts/InquireA.sol\":6944:6979  block.timestamp > question.deadline */\n      gt\n        /* \"contracts/InquireA.sol\":6936:7017  require(block.timestamp > question.deadline, \"Cannot distribute before deadline\") */\n      tag_306\n      jumpi\n      mload(0x40)\n      0x08c379a000000000000000000000000000000000000000000000000000000000\n      dup2\n      mstore\n      0x04\n      add\n      tag_307\n      swap1\n      tag_308\n      jump\t// in\n    tag_307:\n      mload(0x40)\n      dup1\n      swap2\n      sub\n      swap1\n      revert\n    tag_306:\n        /* \"contracts/InquireA.sol\":7037:7045  question */\n      dup1\n        /* \"contracts/InquireA.sol\":7037:7054  question.isClosed */\n      0x08\n      add\n      0x00\n      swap1\n      sload\n      swap1\n      0x0100\n      exp\n      swap1\n      div\n      0xff\n      and\n        /* \"contracts/InquireA.sol\":7036:7054  !question.isClosed */\n      iszero\n        /* \"contracts/InquireA.sol\":7028:7085  require(!question.isClosed, \"Question is already closed\") */\n      tag_309\n      jumpi\n      mload(0x40)\n      0x08c379a000000000000000000000000000000000000000000000000000000000\n      dup2\n      mstore\n      0x04\n      add\n      tag_310\n      swap1\n      tag_135\n      jump\t// in\n    tag_310:\n      mload(0x40)\n      dup1\n      swap2\n      sub\n      swap1\n      revert\n    tag_309:\n        /* \"contracts/InquireA.sol\":7098:7118  uint256 totalUpvotes */\n      0x00\n        /* \"contracts/InquireA.sol\":7133:7152  uint256 totalReward */\n      dup1\n        /* \"contracts/InquireA.sol\":7155:7163  question */\n      dup3\n        /* \"contracts/InquireA.sol\":7155:7176  question.rewardAmount */\n      0x05\n      add\n      sload\n        /* \"contracts/InquireA.sol\":7133:7176  uint256 totalReward = question.rewardAmount */\n      swap1\n      pop\n        /* \"contracts/InquireA.sol\":7226:7235  uint256 i */\n      0x00\n        /* \"contracts/InquireA.sol\":7221:7340  for (uint256 i = 0; i < answerIdCounter; i++) {... */\n    tag_311:\n        /* \"contracts/InquireA.sol\":7245:7260  answerIdCounter */\n      sload(0x03)\n        /* \"contracts/InquireA.sol\":7241:7242  i */\n      dup2\n        /* \"contracts/InquireA.sol\":7241:7260  i < answerIdCounter */\n      lt\n        /* \"contracts/InquireA.sol\":7221:7340  for (uint256 i = 0; i < answerIdCounter; i++) {... */\n      iszero\n      tag_312\n      jumpi\n        /* \"contracts/InquireA.sol\":7298:7305  answers */\n      0x05\n        /* \"contracts/InquireA.sol\":7298:7317  answers[questionId] */\n      0x00\n        /* \"contracts/InquireA.sol\":7306:7316  questionId */\n      dup8\n        /* \"contracts/InquireA.sol\":7298:7317  answers[questionId] */\n      dup2\n      mstore\n      0x20\n      add\n      swap1\n      dup2\n      mstore\n      0x20\n      add\n      0x00\n      keccak256\n        /* \"contracts/InquireA.sol\":7298:7320  answers[questionId][i] */\n      0x00\n        /* \"contracts/InquireA.sol\":7318:7319  i */\n      dup3\n        /* \"contracts/InquireA.sol\":7298:7320  answers[questionId][i] */\n      dup2\n      mstore\n      0x20\n      add\n      swap1\n      dup2\n      mstore\n      0x20\n      add\n      0x00\n      keccak256\n        /* \"contracts/InquireA.sol\":7298:7328  answers[questionId][i].upvotes */\n      0x03\n      add\n      sload\n        /* \"contracts/InquireA.sol\":7282:7328  totalUpvotes += answers[questionId][i].upvotes */\n      dup4\n      tag_314\n      swap2\n      swap1\n      tag_208\n      jump\t// in\n    tag_314:\n      swap3\n      pop\n        /* \"contracts/InquireA.sol\":7262:7265  i++ */\n      dup1\n      dup1\n      0x01\n      add\n      swap2\n      pop\n      pop\n        /* \"contracts/InquireA.sol\":7221:7340  for (uint256 i = 0; i < answerIdCounter; i++) {... */\n      jump(tag_311)\n    tag_312:\n      pop\n        /* \"contracts/InquireA.sol\":7391:7400  uint256 i */\n      0x00\n        /* \"contracts/InquireA.sol\":7386:7741  for (uint256 i = 0; i < answerIdCounter; i++) {... */\n    tag_315:\n        /* \"contracts/InquireA.sol\":7410:7425  answerIdCounter */\n      sload(0x03)\n        /* \"contracts/InquireA.sol\":7406:7407  i */\n      dup2\n        /* \"contracts/InquireA.sol\":7406:7425  i < answerIdCounter */\n      lt\n        /* \"contracts/InquireA.sol\":7386:7741  for (uint256 i = 0; i < answerIdCounter; i++) {... */\n      iszero\n      tag_316\n      jumpi\n        /* \"contracts/InquireA.sol\":7447:7468  Answer storage answer */\n      0x00\n        /* \"contracts/InquireA.sol\":7471:7478  answers */\n      0x05\n        /* \"contracts/InquireA.sol\":7471:7490  answers[questionId] */\n      0x00\n        /* \"contracts/InquireA.sol\":7479:7489  questionId */\n      dup9\n        /* \"contracts/InquireA.sol\":7471:7490  answers[questionId] */\n      dup2\n      mstore\n      0x20\n      add\n      swap1\n      dup2\n      mstore\n      0x20\n      add\n      0x00\n      keccak256\n        /* \"contracts/InquireA.sol\":7471:7493  answers[questionId][i] */\n      0x00\n        /* \"contracts/InquireA.sol\":7491:7492  i */\n      dup4\n        /* \"contracts/InquireA.sol\":7471:7493  answers[questionId][i] */\n      dup2\n      mstore\n      0x20\n      add\n      swap1\n      dup2\n      mstore\n      0x20\n      add\n      0x00\n      keccak256\n        /* \"contracts/InquireA.sol\":7447:7493  Answer storage answer = answers[questionId][i] */\n      swap1\n      pop\n        /* \"contracts/InquireA.sol\":7527:7528  0 */\n      0x00\n        /* \"contracts/InquireA.sol\":7512:7524  totalUpvotes */\n      dup5\n        /* \"contracts/InquireA.sol\":7512:7528  totalUpvotes > 0 */\n      gt\n        /* \"contracts/InquireA.sol\":7508:7730  if (totalUpvotes > 0) {... */\n      iszero\n      tag_318\n      jumpi\n        /* \"contracts/InquireA.sol\":7549:7563  uint256 reward */\n      0x00\n        /* \"contracts/InquireA.sol\":7599:7611  totalUpvotes */\n      dup5\n        /* \"contracts/InquireA.sol\":7584:7595  totalReward */\n      dup5\n        /* \"contracts/InquireA.sol\":7567:7573  answer */\n      dup4\n        /* \"contracts/InquireA.sol\":7567:7581  answer.upvotes */\n      0x03\n      add\n      sload\n        /* \"contracts/InquireA.sol\":7567:7595  answer.upvotes * totalReward */\n      tag_319\n      swap2\n      swap1\n      tag_320\n      jump\t// in\n    tag_319:\n        /* \"contracts/InquireA.sol\":7566:7611  (answer.upvotes * totalReward) / totalUpvotes */\n      tag_321\n      swap2\n      swap1\n      tag_322\n      jump\t// in\n    tag_321:\n        /* \"contracts/InquireA.sol\":7549:7611  uint256 reward = (answer.upvotes * totalReward) / totalUpvotes */\n      swap1\n      pop\n        /* \"contracts/InquireA.sol\":7653:7659  reward */\n      dup1\n        /* \"contracts/InquireA.sol\":7630:7636  answer */\n      dup3\n        /* \"contracts/InquireA.sol\":7630:7649  answer.rewardAmount */\n      0x04\n      add\n      0x00\n        /* \"contracts/InquireA.sol\":7630:7659  answer.rewardAmount += reward */\n      dup3\n      dup3\n      sload\n      tag_323\n      swap2\n      swap1\n      tag_208\n      jump\t// in\n    tag_323:\n      swap3\n      pop\n      pop\n      dup2\n      swap1\n      sstore\n      pop\n        /* \"contracts/InquireA.sol\":7708:7714  reward */\n      dup1\n        /* \"contracts/InquireA.sol\":7678:7686  balances */\n      0x06\n        /* \"contracts/InquireA.sol\":7678:7704  balances[answer.responder] */\n      0x00\n        /* \"contracts/InquireA.sol\":7687:7693  answer */\n      dup5\n        /* \"contracts/InquireA.sol\":7687:7703  answer.responder */\n      0x01\n      add\n      0x00\n      swap1\n      sload\n      swap1\n      0x0100\n      exp\n      swap1\n      div\n      0xffffffffffffffffffffffffffffffffffffffff\n      and\n        /* \"contracts/InquireA.sol\":7678:7704  balances[answer.responder] */\n      0xffffffffffffffffffffffffffffffffffffffff\n      and\n      0xffffffffffffffffffffffffffffffffffffffff\n      and\n      dup2\n      mstore\n      0x20\n      add\n      swap1\n      dup2\n      mstore\n      0x20\n      add\n      0x00\n      keccak256\n      0x00\n        /* \"contracts/InquireA.sol\":7678:7714  balances[answer.responder] += reward */\n      dup3\n      dup3\n      sload\n      tag_324\n      swap2\n      swap1\n      tag_208\n      jump\t// in\n    tag_324:\n      swap3\n      pop\n      pop\n      dup2\n      swap1\n      sstore\n      pop\n        /* \"contracts/InquireA.sol\":7530:7730  {... */\n      pop\n        /* \"contracts/InquireA.sol\":7508:7730  if (totalUpvotes > 0) {... */\n    tag_318:\n        /* \"contracts/InquireA.sol\":7432:7741  {... */\n      pop\n        /* \"contracts/InquireA.sol\":7427:7430  i++ */\n      dup1\n      dup1\n      0x01\n      add\n      swap2\n      pop\n      pop\n        /* \"contracts/InquireA.sol\":7386:7741  for (uint256 i = 0; i < answerIdCounter; i++) {... */\n      jump(tag_315)\n    tag_316:\n      pop\n        /* \"contracts/InquireA.sol\":7773:7777  true */\n      0x01\n        /* \"contracts/InquireA.sol\":7753:7761  question */\n      dup4\n        /* \"contracts/InquireA.sol\":7753:7770  question.isClosed */\n      0x08\n      add\n      0x00\n        /* \"contracts/InquireA.sol\":7753:7777  question.isClosed = true */\n      0x0100\n      exp\n      dup2\n      sload\n      dup2\n      0xff\n      mul\n      not\n      and\n      swap1\n      dup4\n      iszero\n      iszero\n      mul\n      or\n      swap1\n      sstore\n      pop\n        /* \"contracts/InquireA.sol\":6865:7785  {... */\n      pop\n      pop\n      pop\n        /* \"contracts/InquireA.sol\":6784:7785  function distributeRewards(uint256 questionId) public questionExists(questionId) {... */\n      pop\n      pop\n      jump\t// out\n        /* \"contracts/InquireA.sol\":155:187  uint256 public questionIdCounter */\n    tag_85:\n      sload(0x02)\n      dup2\n      jump\t// out\n        /* \"contracts/InquireA.sol\":85:105  address public owner */\n    tag_89:\n      0x00\n      dup1\n      sload\n      swap1\n      0x0100\n      exp\n      swap1\n      div\n      0xffffffffffffffffffffffffffffffffffffffff\n      and\n      dup2\n      jump\t// out\n        /* \"contracts/InquireA.sol\":312:355  uint256 public constant TWO_WEEKS = 14 days */\n    tag_94:\n        /* \"contracts/InquireA.sol\":348:355  14 days */\n      0x127500\n        /* \"contracts/InquireA.sol\":312:355  uint256 public constant TWO_WEEKS = 14 days */\n      dup2\n      jump\t// out\n        /* \"contracts/InquireA.sol\":8060:8156  function balance() public view returns (uint256) {... */\n    tag_98:\n        /* \"contracts/InquireA.sol\":8100:8107  uint256 */\n      0x00\n        /* \"contracts/InquireA.sol\":8127:8148  address(this).balance */\n      selfbalance\n        /* \"contracts/InquireA.sol\":8120:8148  return address(this).balance */\n      swap1\n      pop\n        /* \"contracts/InquireA.sol\":8060:8156  function balance() public view returns (uint256) {... */\n      swap1\n      jump\t// out\n        /* \"contracts/InquireA.sol\":194:224  uint256 public answerIdCounter */\n    tag_102:\n      sload(0x03)\n      dup2\n      jump\t// out\n        /* \"contracts/InquireA.sol\":362:401  uint256 public constant MONTH = 30 days */\n    tag_106:\n        /* \"contracts/InquireA.sol\":394:401  30 days */\n      0x278d00\n        /* \"contracts/InquireA.sol\":362:401  uint256 public constant MONTH = 30 days */\n      dup2\n      jump\t// out\n        /* \"contracts/InquireA.sol\":112:147  uint256 public voteFee = 0.01 ether */\n    tag_110:\n      sload(0x01)\n      dup2\n      jump\t// out\n        /* \"contracts/InquireA.sol\":5294:5512  function getQuestionById(uint256 questionId) public view returns (Question memory) {... */\n    tag_115:\n        /* \"contracts/InquireA.sol\":5360:5375  Question memory */\n      tag_326\n      tag_327\n      jump\t// in\n    tag_326:\n        /* \"contracts/InquireA.sol\":5435:5436  0 */\n      0x00\n        /* \"contracts/InquireA.sol\":5396:5437  questions[questionId].asker != address(0) */\n      0xffffffffffffffffffffffffffffffffffffffff\n      and\n        /* \"contracts/InquireA.sol\":5396:5405  questions */\n      0x04\n        /* \"contracts/InquireA.sol\":5396:5417  questions[questionId] */\n      0x00\n        /* \"contracts/InquireA.sol\":5406:5416  questionId */\n      dup5\n        /* \"contracts/InquireA.sol\":5396:5417  questions[questionId] */\n      dup2\n      mstore\n      0x20\n      add\n      swap1\n      dup2\n      mstore\n      0x20\n      add\n      0x00\n      keccak256\n        /* \"contracts/InquireA.sol\":5396:5423  questions[questionId].asker */\n      0x01\n      add\n      0x00\n      swap1\n      sload\n      swap1\n      0x0100\n      exp\n      swap1\n      div\n      0xffffffffffffffffffffffffffffffffffffffff\n      and\n        /* \"contracts/InquireA.sol\":5396:5437  questions[questionId].asker != address(0) */\n      0xffffffffffffffffffffffffffffffffffffffff\n      and\n      sub\n        /* \"contracts/InquireA.sol\":5388:5465  require(questions[questionId].asker != address(0), \"Question does not exist\") */\n      tag_329\n      jumpi\n      mload(0x40)\n      0x08c379a000000000000000000000000000000000000000000000000000000000\n      dup2\n      mstore\n      0x04\n      add\n      tag_330\n      swap1\n      tag_131\n      jump\t// in\n    tag_330:\n      mload(0x40)\n      dup1\n      swap2\n      sub\n      swap1\n      revert\n    tag_329:\n        /* \"contracts/InquireA.sol\":5483:5492  questions */\n      0x04\n        /* \"contracts/InquireA.sol\":5483:5504  questions[questionId] */\n      0x00\n        /* \"contracts/InquireA.sol\":5493:5503  questionId */\n      dup4\n        /* \"contracts/InquireA.sol\":5483:5504  questions[questionId] */\n      dup2\n      mstore\n      0x20\n      add\n      swap1\n      dup2\n      mstore\n      0x20\n      add\n      0x00\n      keccak256\n        /* \"contracts/InquireA.sol\":5476:5504  return questions[questionId] */\n      mload(0x40)\n      dup1\n      0x0140\n      add\n      0x40\n      mstore\n      swap1\n      dup2\n      0x00\n      dup3\n      add\n      sload\n      dup2\n      mstore\n      0x20\n      add\n      0x01\n      dup3\n      add\n      0x00\n      swap1\n      sload\n      swap1\n      0x0100\n      exp\n      swap1\n      div\n      0xffffffffffffffffffffffffffffffffffffffff\n      and\n      0xffffffffffffffffffffffffffffffffffffffff\n      and\n      0xffffffffffffffffffffffffffffffffffffffff\n      and\n      dup2\n      mstore\n      0x20\n      add\n      0x02\n      dup3\n      add\n      dup1\n      sload\n      tag_331\n      swap1\n      tag_150\n      jump\t// in\n    tag_331:\n      dup1\n      0x1f\n      add\n      0x20\n      dup1\n      swap2\n      div\n      mul\n      0x20\n      add\n      mload(0x40)\n      swap1\n      dup2\n      add\n      0x40\n      mstore\n      dup1\n      swap3\n      swap2\n      swap1\n      dup2\n      dup2\n      mstore\n      0x20\n      add\n      dup3\n      dup1\n      sload\n      tag_332\n      swap1\n      tag_150\n      jump\t// in\n    tag_332:\n      dup1\n      iszero\n      tag_333\n      jumpi\n      dup1\n      0x1f\n      lt\n      tag_334\n      jumpi\n      0x0100\n      dup1\n      dup4\n      sload\n      div\n      mul\n      dup4\n      mstore\n      swap2\n      0x20\n      add\n      swap2\n      jump(tag_333)\n    tag_334:\n      dup3\n      add\n      swap2\n      swap1\n      0x00\n      mstore\n      keccak256(0x00, 0x20)\n      swap1\n    tag_335:\n      dup2\n      sload\n      dup2\n      mstore\n      swap1\n      0x01\n      add\n      swap1\n      0x20\n      add\n      dup1\n      dup4\n      gt\n      tag_335\n      jumpi\n      dup3\n      swap1\n      sub\n      0x1f\n      and\n      dup3\n      add\n      swap2\n    tag_333:\n      pop\n      pop\n      pop\n      pop\n      pop\n      dup2\n      mstore\n      0x20\n      add\n      0x03\n      dup3\n      add\n      dup1\n      sload\n      tag_336\n      swap1\n      tag_150\n      jump\t// in\n    tag_336:\n      dup1\n      0x1f\n      add\n      0x20\n      dup1\n      swap2\n      div\n      mul\n      0x20\n      add\n      mload(0x40)\n      swap1\n      dup2\n      add\n      0x40\n      mstore\n      dup1\n      swap3\n      swap2\n      swap1\n      dup2\n      dup2\n      mstore\n      0x20\n      add\n      dup3\n      dup1\n      sload\n      tag_337\n      swap1\n      tag_150\n      jump\t// in\n    tag_337:\n      dup1\n      iszero\n      tag_338\n      jumpi\n      dup1\n      0x1f\n      lt\n      tag_339\n      jumpi\n      0x0100\n      dup1\n      dup4\n      sload\n      div\n      mul\n      dup4\n      mstore\n      swap2\n      0x20\n      add\n      swap2\n      jump(tag_338)\n    tag_339:\n      dup3\n      add\n      swap2\n      swap1\n      0x00\n      mstore\n      keccak256(0x00, 0x20)\n      swap1\n    tag_340:\n      dup2\n      sload\n      dup2\n      mstore\n      swap1\n      0x01\n      add\n      swap1\n      0x20\n      add\n      dup1\n      dup4\n      gt\n      tag_340\n      jumpi\n      dup3\n      swap1\n      sub\n      0x1f\n      and\n      dup3\n      add\n      swap2\n    tag_338:\n      pop\n      pop\n      pop\n      pop\n      pop\n      dup2\n      mstore\n      0x20\n      add\n      0x04\n      dup3\n      add\n      dup1\n      sload\n      tag_341\n      swap1\n      tag_150\n      jump\t// in\n    tag_341:\n      dup1\n      0x1f\n      add\n      0x20\n      dup1\n      swap2\n      div\n      mul\n      0x20\n      add\n      mload(0x40)\n      swap1\n      dup2\n      add\n      0x40\n      mstore\n      dup1\n      swap3\n      swap2\n      swap1\n      dup2\n      dup2\n      mstore\n      0x20\n      add\n      dup3\n      dup1\n      sload\n      tag_342\n      swap1\n      tag_150\n      jump\t// in\n    tag_342:\n      dup1\n      iszero\n      tag_343\n      jumpi\n      dup1\n      0x1f\n      lt\n      tag_344\n      jumpi\n      0x0100\n      dup1\n      dup4\n      sload\n      div\n      mul\n      dup4\n      mstore\n      swap2\n      0x20\n      add\n      swap2\n      jump(tag_343)\n    tag_344:\n      dup3\n      add\n      swap2\n      swap1\n      0x00\n      mstore\n      keccak256(0x00, 0x20)\n      swap1\n    tag_345:\n      dup2\n      sload\n      dup2\n      mstore\n      swap1\n      0x01\n      add\n      swap1\n      0x20\n      add\n      dup1\n      dup4\n      gt\n      tag_345\n      jumpi\n      dup3\n      swap1\n      sub\n      0x1f\n      and\n      dup3\n      add\n      swap2\n    tag_343:\n      pop\n      pop\n      pop\n      pop\n      pop\n      dup2\n      mstore\n      0x20\n      add\n      0x05\n      dup3\n      add\n      sload\n      dup2\n      mstore\n      0x20\n      add\n      0x06\n      dup3\n      add\n      sload\n      dup2\n      mstore\n      0x20\n      add\n      0x07\n      dup3\n      add\n      sload\n      dup2\n      mstore\n      0x20\n      add\n      0x08\n      dup3\n      add\n      0x00\n      swap1\n      sload\n      swap1\n      0x0100\n      exp\n      swap1\n      div\n      0xff\n      and\n      iszero\n      iszero\n      iszero\n      iszero\n      dup2\n      mstore\n      0x20\n      add\n      0x09\n      dup3\n      add\n      sload\n      dup2\n      mstore\n      pop\n      pop\n      swap1\n      pop\n        /* \"contracts/InquireA.sol\":5294:5512  function getQuestionById(uint256 questionId) public view returns (Question memory) {... */\n      swap2\n      swap1\n      pop\n      jump\t// out\n        /* \"contracts/InquireA.sol\":268:305  uint256 public constant WEEK = 7 days */\n    tag_120:\n        /* \"contracts/InquireA.sol\":299:305  7 days */\n      0x093a80\n        /* \"contracts/InquireA.sol\":268:305  uint256 public constant WEEK = 7 days */\n      dup2\n      jump\t// out\n        /* \"contracts/InquireA.sol\":4360:5286  function getQuestions(uint256 pageIndex, uint256 pageSize) ... */\n    tag_125:\n        /* \"contracts/InquireA.sol\":4470:4487  Question[] memory */\n      0x60\n        /* \"contracts/InquireA.sol\":4526:4527  0 */\n      0x00\n        /* \"contracts/InquireA.sol\":4514:4523  pageIndex */\n      dup4\n        /* \"contracts/InquireA.sol\":4514:4527  pageIndex > 0 */\n      gt\n        /* \"contracts/InquireA.sol\":4506:4560  require(pageIndex > 0, \"Page index must start from 1\") */\n      tag_347\n      jumpi\n      mload(0x40)\n      0x08c379a000000000000000000000000000000000000000000000000000000000\n      dup2\n      mstore\n      0x04\n      add\n      tag_348\n      swap1\n      tag_349\n      jump\t// in\n    tag_348:\n      mload(0x40)\n      dup1\n      swap2\n      sub\n      swap1\n      revert\n    tag_347:\n        /* \"contracts/InquireA.sol\":4590:4591  0 */\n      0x00\n        /* \"contracts/InquireA.sol\":4579:4587  pageSize */\n      dup3\n        /* \"contracts/InquireA.sol\":4579:4591  pageSize > 0 */\n      gt\n        /* \"contracts/InquireA.sol\":4571:4628  require(pageSize > 0, \"Page size must be greater than 0\") */\n      tag_350\n      jumpi\n      mload(0x40)\n      0x08c379a000000000000000000000000000000000000000000000000000000000\n      dup2\n      mstore\n      0x04\n      add\n      tag_351\n      swap1\n      tag_352\n      jump\t// in\n    tag_351:\n      mload(0x40)\n      dup1\n      swap2\n      sub\n      swap1\n      revert\n    tag_350:\n        /* \"contracts/InquireA.sol\":4641:4659  uint256 startIndex */\n      0x00\n        /* \"contracts/InquireA.sol\":4680:4688  pageSize */\n      dup3\n        /* \"contracts/InquireA.sol\":4675:4676  1 */\n      0x01\n        /* \"contracts/InquireA.sol\":4663:4672  pageIndex */\n      dup6\n        /* \"contracts/InquireA.sol\":4663:4676  pageIndex - 1 */\n      tag_353\n      swap2\n      swap1\n      tag_354\n      jump\t// in\n    tag_353:\n        /* \"contracts/InquireA.sol\":4662:4688  (pageIndex - 1) * pageSize */\n      tag_355\n      swap2\n      swap1\n      tag_320\n      jump\t// in\n    tag_355:\n        /* \"contracts/InquireA.sol\":4641:4688  uint256 startIndex = (pageIndex - 1) * pageSize */\n      swap1\n      pop\n        /* \"contracts/InquireA.sol\":4720:4737  questionIdCounter */\n      sload(0x02)\n        /* \"contracts/InquireA.sol\":4707:4717  startIndex */\n      dup2\n        /* \"contracts/InquireA.sol\":4707:4737  startIndex < questionIdCounter */\n      lt\n        /* \"contracts/InquireA.sol\":4699:4760  require(startIndex < questionIdCounter, \"Invalid page index\") */\n      tag_356\n      jumpi\n      mload(0x40)\n      0x08c379a000000000000000000000000000000000000000000000000000000000\n      dup2\n      mstore\n      0x04\n      add\n      tag_357\n      swap1\n      tag_358\n      jump\t// in\n    tag_357:\n      mload(0x40)\n      dup1\n      swap2\n      sub\n      swap1\n      revert\n    tag_356:\n        /* \"contracts/InquireA.sol\":4773:4789  uint256 endIndex */\n      0x00\n        /* \"contracts/InquireA.sol\":4805:4813  pageSize */\n      dup4\n        /* \"contracts/InquireA.sol\":4792:4802  startIndex */\n      dup3\n        /* \"contracts/InquireA.sol\":4792:4813  startIndex + pageSize */\n      tag_359\n      swap2\n      swap1\n      tag_208\n      jump\t// in\n    tag_359:\n        /* \"contracts/InquireA.sol\":4773:4813  uint256 endIndex = startIndex + pageSize */\n      swap1\n      pop\n        /* \"contracts/InquireA.sol\":4839:4856  questionIdCounter */\n      sload(0x02)\n        /* \"contracts/InquireA.sol\":4828:4836  endIndex */\n      dup2\n        /* \"contracts/InquireA.sol\":4828:4856  endIndex > questionIdCounter */\n      gt\n        /* \"contracts/InquireA.sol\":4824:4974  if (endIndex > questionIdCounter) {... */\n      iszero\n      tag_360\n      jumpi\n        /* \"contracts/InquireA.sol\":4884:4901  questionIdCounter */\n      sload(0x02)\n        /* \"contracts/InquireA.sol\":4873:4901  endIndex = questionIdCounter */\n      swap1\n      pop\n        /* \"contracts/InquireA.sol\":4824:4974  if (endIndex > questionIdCounter) {... */\n    tag_360:\n        /* \"contracts/InquireA.sol\":4986:5004  uint256 resultSize */\n      0x00\n        /* \"contracts/InquireA.sol\":5018:5028  startIndex */\n      dup3\n        /* \"contracts/InquireA.sol\":5007:5015  endIndex */\n      dup3\n        /* \"contracts/InquireA.sol\":5007:5028  endIndex - startIndex */\n      tag_361\n      swap2\n      swap1\n      tag_354\n      jump\t// in\n    tag_361:\n        /* \"contracts/InquireA.sol\":4986:5028  uint256 resultSize = endIndex - startIndex */\n      swap1\n      pop\n        /* \"contracts/InquireA.sol\":5039:5075  Question[] memory paginatedQuestions */\n      0x00\n        /* \"contracts/InquireA.sol\":5093:5103  resultSize */\n      dup2\n        /* \"contracts/InquireA.sol\":5078:5104  new Question[](resultSize) */\n      0xffffffffffffffff\n      dup2\n      gt\n      iszero\n      tag_362\n      jumpi\n      tag_363\n      tag_246\n      jump\t// in\n    tag_363:\n    tag_362:\n      mload(0x40)\n      swap1\n      dup1\n      dup3\n      mstore\n      dup1\n      0x20\n      mul\n      0x20\n      add\n      dup3\n      add\n      0x40\n      mstore\n      dup1\n      iszero\n      tag_364\n      jumpi\n      dup2\n      0x20\n      add\n    tag_365:\n      tag_366\n      tag_327\n      jump\t// in\n    tag_366:\n      dup2\n      mstore\n      0x20\n      add\n      swap1\n      0x01\n      swap1\n      sub\n      swap1\n      dup2\n      tag_365\n      jumpi\n      swap1\n      pop\n    tag_364:\n      pop\n        /* \"contracts/InquireA.sol\":5039:5104  Question[] memory paginatedQuestions = new Question[](resultSize) */\n      swap1\n      pop\n        /* \"contracts/InquireA.sol\":5122:5131  uint256 i */\n      0x00\n        /* \"contracts/InquireA.sol\":5134:5144  startIndex */\n      dup5\n        /* \"contracts/InquireA.sol\":5122:5144  uint256 i = startIndex */\n      swap1\n      pop\n        /* \"contracts/InquireA.sol\":5117:5241  for (uint256 i = startIndex; i < endIndex; i++) {... */\n    tag_367:\n        /* \"contracts/InquireA.sol\":5150:5158  endIndex */\n      dup4\n        /* \"contracts/InquireA.sol\":5146:5147  i */\n      dup2\n        /* \"contracts/InquireA.sol\":5146:5158  i < endIndex */\n      lt\n        /* \"contracts/InquireA.sol\":5117:5241  for (uint256 i = startIndex; i < endIndex; i++) {... */\n      iszero\n      tag_368\n      jumpi\n        /* \"contracts/InquireA.sol\":5217:5226  questions */\n      0x04\n        /* \"contracts/InquireA.sol\":5217:5229  questions[i] */\n      0x00\n        /* \"contracts/InquireA.sol\":5227:5228  i */\n      dup3\n        /* \"contracts/InquireA.sol\":5217:5229  questions[i] */\n      dup2\n      mstore\n      0x20\n      add\n      swap1\n      dup2\n      mstore\n      0x20\n      add\n      0x00\n      keccak256\n        /* \"contracts/InquireA.sol\":5180:5229  paginatedQuestions[i - startIndex] = questions[i] */\n      mload(0x40)\n      dup1\n      0x0140\n      add\n      0x40\n      mstore\n      swap1\n      dup2\n      0x00\n      dup3\n      add\n      sload\n      dup2\n      mstore\n      0x20\n      add\n      0x01\n      dup3\n      add\n      0x00\n      swap1\n      sload\n      swap1\n      0x0100\n      exp\n      swap1\n      div\n      0xffffffffffffffffffffffffffffffffffffffff\n      and\n      0xffffffffffffffffffffffffffffffffffffffff\n      and\n      0xffffffffffffffffffffffffffffffffffffffff\n      and\n      dup2\n      mstore\n      0x20\n      add\n      0x02\n      dup3\n      add\n      dup1\n      sload\n      tag_370\n      swap1\n      tag_150\n      jump\t// in\n    tag_370:\n      dup1\n      0x1f\n      add\n      0x20\n      dup1\n      swap2\n      div\n      mul\n      0x20\n      add\n      mload(0x40)\n      swap1\n      dup2\n      add\n      0x40\n      mstore\n      dup1\n      swap3\n      swap2\n      swap1\n      dup2\n      dup2\n      mstore\n      0x20\n      add\n      dup3\n      dup1\n      sload\n      tag_371\n      swap1\n      tag_150\n      jump\t// in\n    tag_371:\n      dup1\n      iszero\n      tag_372\n      jumpi\n      dup1\n      0x1f\n      lt\n      tag_373\n      jumpi\n      0x0100\n      dup1\n      dup4\n      sload\n      div\n      mul\n      dup4\n      mstore\n      swap2\n      0x20\n      add\n      swap2\n      jump(tag_372)\n    tag_373:\n      dup3\n      add\n      swap2\n      swap1\n      0x00\n      mstore\n      keccak256(0x00, 0x20)\n      swap1\n    tag_374:\n      dup2\n      sload\n      dup2\n      mstore\n      swap1\n      0x01\n      add\n      swap1\n      0x20\n      add\n      dup1\n      dup4\n      gt\n      tag_374\n      jumpi\n      dup3\n      swap1\n      sub\n      0x1f\n      and\n      dup3\n      add\n      swap2\n    tag_372:\n      pop\n      pop\n      pop\n      pop\n      pop\n      dup2\n      mstore\n      0x20\n      add\n      0x03\n      dup3\n      add\n      dup1\n      sload\n      tag_375\n      swap1\n      tag_150\n      jump\t// in\n    tag_375:\n      dup1\n      0x1f\n      add\n      0x20\n      dup1\n      swap2\n      div\n      mul\n      0x20\n      add\n      mload(0x40)\n      swap1\n      dup2\n      add\n      0x40\n      mstore\n      dup1\n      swap3\n      swap2\n      swap1\n      dup2\n      dup2\n      mstore\n      0x20\n      add\n      dup3\n      dup1\n      sload\n      tag_376\n      swap1\n      tag_150\n      jump\t// in\n    tag_376:\n      dup1\n      iszero\n      tag_377\n      jumpi\n      dup1\n      0x1f\n      lt\n      tag_378\n      jumpi\n      0x0100\n      dup1\n      dup4\n      sload\n      div\n      mul\n      dup4\n      mstore\n      swap2\n      0x20\n      add\n      swap2\n      jump(tag_377)\n    tag_378:\n      dup3\n      add\n      swap2\n      swap1\n      0x00\n      mstore\n      keccak256(0x00, 0x20)\n      swap1\n    tag_379:\n      dup2\n      sload\n      dup2\n      mstore\n      swap1\n      0x01\n      add\n      swap1\n      0x20\n      add\n      dup1\n      dup4\n      gt\n      tag_379\n      jumpi\n      dup3\n      swap1\n      sub\n      0x1f\n      and\n      dup3\n      add\n      swap2\n    tag_377:\n      pop\n      pop\n      pop\n      pop\n      pop\n      dup2\n      mstore\n      0x20\n      add\n      0x04\n      dup3\n      add\n      dup1\n      sload\n      tag_380\n      swap1\n      tag_150\n      jump\t// in\n    tag_380:\n      dup1\n      0x1f\n      add\n      0x20\n      dup1\n      swap2\n      div\n      mul\n      0x20\n      add\n      mload(0x40)\n      swap1\n      dup2\n      add\n      0x40\n      mstore\n      dup1\n      swap3\n      swap2\n      swap1\n      dup2\n      dup2\n      mstore\n      0x20\n      add\n      dup3\n      dup1\n      sload\n      tag_381\n      swap1\n      tag_150\n      jump\t// in\n    tag_381:\n      dup1\n      iszero\n      tag_382\n      jumpi\n      dup1\n      0x1f\n      lt\n      tag_383\n      jumpi\n      0x0100\n      dup1\n      dup4\n      sload\n      div\n      mul\n      dup4\n      mstore\n      swap2\n      0x20\n      add\n      swap2\n      jump(tag_382)\n    tag_383:\n      dup3\n      add\n      swap2\n      swap1\n      0x00\n      mstore\n      keccak256(0x00, 0x20)\n      swap1\n    tag_384:\n      dup2\n      sload\n      dup2\n      mstore\n      swap1\n      0x01\n      add\n      swap1\n      0x20\n      add\n      dup1\n      dup4\n      gt\n      tag_384\n      jumpi\n      dup3\n      swap1\n      sub\n      0x1f\n      and\n      dup3\n      add\n      swap2\n    tag_382:\n      pop\n      pop\n      pop\n      pop\n      pop\n      dup2\n      mstore\n      0x20\n      add\n      0x05\n      dup3\n      add\n      sload\n      dup2\n      mstore\n      0x20\n      add\n      0x06\n      dup3\n      add\n      sload\n      dup2\n      mstore\n      0x20\n      add\n      0x07\n      dup3\n      add\n      sload\n      dup2\n      mstore\n      0x20\n      add\n      0x08\n      dup3\n      add\n      0x00\n      swap1\n      sload\n      swap1\n      0x0100\n      exp\n      swap1\n      div\n      0xff\n      and\n      iszero\n      iszero\n      iszero\n      iszero\n      dup2\n      mstore\n      0x20\n      add\n      0x09\n      dup3\n      add\n      sload\n      dup2\n      mstore\n      pop\n      pop\n        /* \"contracts/InquireA.sol\":5180:5198  paginatedQuestions */\n      dup3\n        /* \"contracts/InquireA.sol\":5203:5213  startIndex */\n      dup7\n        /* \"contracts/InquireA.sol\":5199:5200  i */\n      dup4\n        /* \"contracts/InquireA.sol\":5199:5213  i - startIndex */\n      tag_385\n      swap2\n      swap1\n      tag_354\n      jump\t// in\n    tag_385:\n        /* \"contracts/InquireA.sol\":5180:5214  paginatedQuestions[i - startIndex] */\n      dup2\n      mload\n      dup2\n      lt\n      tag_386\n      jumpi\n      tag_387\n      tag_256\n      jump\t// in\n    tag_387:\n    tag_386:\n      0x20\n      mul\n      0x20\n      add\n      add\n        /* \"contracts/InquireA.sol\":5180:5229  paginatedQuestions[i - startIndex] = questions[i] */\n      dup2\n      swap1\n      mstore\n      pop\n        /* \"contracts/InquireA.sol\":5160:5163  i++ */\n      dup1\n      dup1\n      0x01\n      add\n      swap2\n      pop\n      pop\n        /* \"contracts/InquireA.sol\":5117:5241  for (uint256 i = startIndex; i < endIndex; i++) {... */\n      jump(tag_367)\n    tag_368:\n      pop\n        /* \"contracts/InquireA.sol\":5260:5278  paginatedQuestions */\n      dup1\n        /* \"contracts/InquireA.sol\":5253:5278  return paginatedQuestions */\n      swap5\n      pop\n      pop\n      pop\n      pop\n      pop\n        /* \"contracts/InquireA.sol\":4360:5286  function getQuestions(uint256 pageIndex, uint256 pageSize) ... */\n      swap3\n      swap2\n      pop\n      pop\n      jump\t// out\n    tag_233:\n      mload(0x40)\n      dup1\n      0xc0\n      add\n      0x40\n      mstore\n      dup1\n      0x00\n      dup2\n      mstore\n      0x20\n      add\n      and(0xffffffffffffffffffffffffffffffffffffffff, 0x00)\n      dup2\n      mstore\n      0x20\n      add\n      0x60\n      dup2\n      mstore\n      0x20\n      add\n      0x00\n      dup2\n      mstore\n      0x20\n      add\n      0x00\n      dup2\n      mstore\n      0x20\n      add\n      0x00\n      dup2\n      mstore\n      pop\n      swap1\n      jump\t// out\n    tag_327:\n      mload(0x40)\n      dup1\n      0x0140\n      add\n      0x40\n      mstore\n      dup1\n      0x00\n      dup2\n      mstore\n      0x20\n      add\n      and(0xffffffffffffffffffffffffffffffffffffffff, 0x00)\n      dup2\n      mstore\n      0x20\n      add\n      0x60\n      dup2\n      mstore\n      0x20\n      add\n      0x60\n      dup2\n      mstore\n      0x20\n      add\n      0x60\n      dup2\n      mstore\n      0x20\n      add\n      0x00\n      dup2\n      mstore\n      0x20\n      add\n      0x00\n      dup2\n      mstore\n      0x20\n      add\n      0x00\n      dup2\n      mstore\n      0x20\n      add\n      iszero(iszero(0x00))\n      dup2\n      mstore\n      0x20\n      add\n      0x00\n      dup2\n      mstore\n      pop\n      swap1\n      jump\t// out\n        /* \"#utility.yul\":7:82   */\n    tag_388:\n        /* \"#utility.yul\":40:46   */\n      0x00\n        /* \"#utility.yul\":73:75   */\n      0x40\n        /* \"#utility.yul\":67:76   */\n      mload\n        /* \"#utility.yul\":57:76   */\n      swap1\n      pop\n        /* \"#utility.yul\":7:82   */\n      swap1\n      jump\t// out\n        /* \"#utility.yul\":88:205   */\n    tag_389:\n        /* \"#utility.yul\":197:198   */\n      0x00\n        /* \"#utility.yul\":194:195   */\n      dup1\n        /* \"#utility.yul\":187:199   */\n      revert\n        /* \"#utility.yul\":211:328   */\n    tag_390:\n        /* \"#utility.yul\":320:321   */\n      0x00\n        /* \"#utility.yul\":317:318   */\n      dup1\n        /* \"#utility.yul\":310:322   */\n      revert\n        /* \"#utility.yul\":334:411   */\n    tag_391:\n        /* \"#utility.yul\":371:378   */\n      0x00\n        /* \"#utility.yul\":400:405   */\n      dup2\n        /* \"#utility.yul\":389:405   */\n      swap1\n      pop\n        /* \"#utility.yul\":334:411   */\n      swap2\n      swap1\n      pop\n      jump\t// out\n        /* \"#utility.yul\":417:539   */\n    tag_392:\n        /* \"#utility.yul\":490:514   */\n      tag_492\n        /* \"#utility.yul\":508:513   */\n      dup2\n        /* \"#utility.yul\":490:514   */\n      tag_391\n      jump\t// in\n    tag_492:\n        /* \"#utility.yul\":483:488   */\n      dup2\n        /* \"#utility.yul\":480:515   */\n      eq\n        /* \"#utility.yul\":470:533   */\n      tag_493\n      jumpi\n        /* \"#utility.yul\":529:530   */\n      0x00\n        /* \"#utility.yul\":526:527   */\n      dup1\n        /* \"#utility.yul\":519:531   */\n      revert\n        /* \"#utility.yul\":470:533   */\n    tag_493:\n        /* \"#utility.yul\":417:539   */\n      pop\n      jump\t// out\n        /* \"#utility.yul\":545:684   */\n    tag_393:\n        /* \"#utility.yul\":591:596   */\n      0x00\n        /* \"#utility.yul\":629:635   */\n      dup2\n        /* \"#utility.yul\":616:636   */\n      calldataload\n        /* \"#utility.yul\":607:636   */\n      swap1\n      pop\n        /* \"#utility.yul\":645:678   */\n      tag_495\n        /* \"#utility.yul\":672:677   */\n      dup2\n        /* \"#utility.yul\":645:678   */\n      tag_392\n      jump\t// in\n    tag_495:\n        /* \"#utility.yul\":545:684   */\n      swap3\n      swap2\n      pop\n      pop\n      jump\t// out\n        /* \"#utility.yul\":690:1164   */\n    tag_29:\n        /* \"#utility.yul\":758:764   */\n      0x00\n        /* \"#utility.yul\":766:772   */\n      dup1\n        /* \"#utility.yul\":815:817   */\n      0x40\n        /* \"#utility.yul\":803:812   */\n      dup4\n        /* \"#utility.yul\":794:801   */\n      dup6\n        /* \"#utility.yul\":790:813   */\n      sub\n        /* \"#utility.yul\":786:818   */\n      slt\n        /* \"#utility.yul\":783:902   */\n      iszero\n      tag_497\n      jumpi\n        /* \"#utility.yul\":821:900   */\n      tag_498\n      tag_389\n      jump\t// in\n    tag_498:\n        /* \"#utility.yul\":783:902   */\n    tag_497:\n        /* \"#utility.yul\":941:942   */\n      0x00\n        /* \"#utility.yul\":966:1019   */\n      tag_499\n        /* \"#utility.yul\":1011:1018   */\n      dup6\n        /* \"#utility.yul\":1002:1008   */\n      dup3\n        /* \"#utility.yul\":991:1000   */\n      dup7\n        /* \"#utility.yul\":987:1009   */\n      add\n        /* \"#utility.yul\":966:1019   */\n      tag_393\n      jump\t// in\n    tag_499:\n        /* \"#utility.yul\":956:1019   */\n      swap3\n      pop\n        /* \"#utility.yul\":912:1029   */\n      pop\n        /* \"#utility.yul\":1068:1070   */\n      0x20\n        /* \"#utility.yul\":1094:1147   */\n      tag_500\n        /* \"#utility.yul\":1139:1146   */\n      dup6\n        /* \"#utility.yul\":1130:1136   */\n      dup3\n        /* \"#utility.yul\":1119:1128   */\n      dup7\n        /* \"#utility.yul\":1115:1137   */\n      add\n        /* \"#utility.yul\":1094:1147   */\n      tag_393\n      jump\t// in\n    tag_500:\n        /* \"#utility.yul\":1084:1147   */\n      swap2\n      pop\n        /* \"#utility.yul\":1039:1157   */\n      pop\n        /* \"#utility.yul\":690:1164   */\n      swap3\n      pop\n      swap3\n      swap1\n      pop\n      jump\t// out\n        /* \"#utility.yul\":1170:1287   */\n    tag_394:\n        /* \"#utility.yul\":1279:1280   */\n      0x00\n        /* \"#utility.yul\":1276:1277   */\n      dup1\n        /* \"#utility.yul\":1269:1281   */\n      revert\n        /* \"#utility.yul\":1293:1410   */\n    tag_395:\n        /* \"#utility.yul\":1402:1403   */\n      0x00\n        /* \"#utility.yul\":1399:1400   */\n      dup1\n        /* \"#utility.yul\":1392:1404   */\n      revert\n        /* \"#utility.yul\":1416:1518   */\n    tag_396:\n        /* \"#utility.yul\":1457:1463   */\n      0x00\n        /* \"#utility.yul\":1508:1510   */\n      0x1f\n        /* \"#utility.yul\":1504:1511   */\n      not\n        /* \"#utility.yul\":1499:1501   */\n      0x1f\n        /* \"#utility.yul\":1492:1497   */\n      dup4\n        /* \"#utility.yul\":1488:1502   */\n      add\n        /* \"#utility.yul\":1484:1512   */\n      and\n        /* \"#utility.yul\":1474:1512   */\n      swap1\n      pop\n        /* \"#utility.yul\":1416:1518   */\n      swap2\n      swap1\n      pop\n      jump\t// out\n        /* \"#utility.yul\":1524:1704   */\n    tag_246:\n        /* \"#utility.yul\":1572:1649   */\n      0x4e487b7100000000000000000000000000000000000000000000000000000000\n        /* \"#utility.yul\":1569:1570   */\n      0x00\n        /* \"#utility.yul\":1562:1650   */\n      mstore\n        /* \"#utility.yul\":1669:1673   */\n      0x41\n        /* \"#utility.yul\":1666:1667   */\n      0x04\n        /* \"#utility.yul\":1659:1674   */\n      mstore\n        /* \"#utility.yul\":1693:1697   */\n      0x24\n        /* \"#utility.yul\":1690:1691   */\n      0x00\n        /* \"#utility.yul\":1683:1698   */\n      revert\n        /* \"#utility.yul\":1710:1991   */\n    tag_397:\n        /* \"#utility.yul\":1793:1820   */\n      tag_506\n        /* \"#utility.yul\":1815:1819   */\n      dup3\n        /* \"#utility.yul\":1793:1820   */\n      tag_396\n      jump\t// in\n    tag_506:\n        /* \"#utility.yul\":1785:1791   */\n      dup2\n        /* \"#utility.yul\":1781:1821   */\n      add\n        /* \"#utility.yul\":1923:1929   */\n      dup2\n        /* \"#utility.yul\":1911:1921   */\n      dup2\n        /* \"#utility.yul\":1908:1930   */\n      lt\n        /* \"#utility.yul\":1887:1905   */\n      0xffffffffffffffff\n        /* \"#utility.yul\":1875:1885   */\n      dup3\n        /* \"#utility.yul\":1872:1906   */\n      gt\n        /* \"#utility.yul\":1869:1931   */\n      or\n        /* \"#utility.yul\":1866:1954   */\n      iszero\n      tag_507\n      jumpi\n        /* \"#utility.yul\":1934:1952   */\n      tag_508\n      tag_246\n      jump\t// in\n    tag_508:\n        /* \"#utility.yul\":1866:1954   */\n    tag_507:\n        /* \"#utility.yul\":1974:1984   */\n      dup1\n        /* \"#utility.yul\":1970:1972   */\n      0x40\n        /* \"#utility.yul\":1963:1985   */\n      mstore\n        /* \"#utility.yul\":1753:1991   */\n      pop\n        /* \"#utility.yul\":1710:1991   */\n      pop\n      pop\n      jump\t// out\n        /* \"#utility.yul\":1997:2126   */\n    tag_398:\n        /* \"#utility.yul\":2031:2037   */\n      0x00\n        /* \"#utility.yul\":2058:2078   */\n      tag_510\n      tag_388\n      jump\t// in\n    tag_510:\n        /* \"#utility.yul\":2048:2078   */\n      swap1\n      pop\n        /* \"#utility.yul\":2087:2120   */\n      tag_511\n        /* \"#utility.yul\":2115:2119   */\n      dup3\n        /* \"#utility.yul\":2107:2113   */\n      dup3\n        /* \"#utility.yul\":2087:2120   */\n      tag_397\n      jump\t// in\n    tag_511:\n        /* \"#utility.yul\":1997:2126   */\n      swap2\n      swap1\n      pop\n      jump\t// out\n        /* \"#utility.yul\":2132:2440   */\n    tag_399:\n        /* \"#utility.yul\":2194:2198   */\n      0x00\n        /* \"#utility.yul\":2284:2302   */\n      0xffffffffffffffff\n        /* \"#utility.yul\":2276:2282   */\n      dup3\n        /* \"#utility.yul\":2273:2303   */\n      gt\n        /* \"#utility.yul\":2270:2326   */\n      iszero\n      tag_513\n      jumpi\n        /* \"#utility.yul\":2306:2324   */\n      tag_514\n      tag_246\n      jump\t// in\n    tag_514:\n        /* \"#utility.yul\":2270:2326   */\n    tag_513:\n        /* \"#utility.yul\":2344:2373   */\n      tag_515\n        /* \"#utility.yul\":2366:2372   */\n      dup3\n        /* \"#utility.yul\":2344:2373   */\n      tag_396\n      jump\t// in\n    tag_515:\n        /* \"#utility.yul\":2336:2373   */\n      swap1\n      pop\n        /* \"#utility.yul\":2428:2432   */\n      0x20\n        /* \"#utility.yul\":2422:2426   */\n      dup2\n        /* \"#utility.yul\":2418:2433   */\n      add\n        /* \"#utility.yul\":2410:2433   */\n      swap1\n      pop\n        /* \"#utility.yul\":2132:2440   */\n      swap2\n      swap1\n      pop\n      jump\t// out\n        /* \"#utility.yul\":2446:2594   */\n    tag_400:\n        /* \"#utility.yul\":2544:2550   */\n      dup3\n        /* \"#utility.yul\":2539:2542   */\n      dup2\n        /* \"#utility.yul\":2534:2537   */\n      dup4\n        /* \"#utility.yul\":2521:2551   */\n      calldatacopy\n        /* \"#utility.yul\":2585:2586   */\n      0x00\n        /* \"#utility.yul\":2576:2582   */\n      dup4\n        /* \"#utility.yul\":2571:2574   */\n      dup4\n        /* \"#utility.yul\":2567:2583   */\n      add\n        /* \"#utility.yul\":2560:2587   */\n      mstore\n        /* \"#utility.yul\":2446:2594   */\n      pop\n      pop\n      pop\n      jump\t// out\n        /* \"#utility.yul\":2600:3025   */\n    tag_401:\n        /* \"#utility.yul\":2678:2683   */\n      0x00\n        /* \"#utility.yul\":2703:2769   */\n      tag_518\n        /* \"#utility.yul\":2719:2768   */\n      tag_519\n        /* \"#utility.yul\":2761:2767   */\n      dup5\n        /* \"#utility.yul\":2719:2768   */\n      tag_399\n      jump\t// in\n    tag_519:\n        /* \"#utility.yul\":2703:2769   */\n      tag_398\n      jump\t// in\n    tag_518:\n        /* \"#utility.yul\":2694:2769   */\n      swap1\n      pop\n        /* \"#utility.yul\":2792:2798   */\n      dup3\n        /* \"#utility.yul\":2785:2790   */\n      dup2\n        /* \"#utility.yul\":2778:2799   */\n      mstore\n        /* \"#utility.yul\":2830:2834   */\n      0x20\n        /* \"#utility.yul\":2823:2828   */\n      dup2\n        /* \"#utility.yul\":2819:2835   */\n      add\n        /* \"#utility.yul\":2868:2871   */\n      dup5\n        /* \"#utility.yul\":2859:2865   */\n      dup5\n        /* \"#utility.yul\":2854:2857   */\n      dup5\n        /* \"#utility.yul\":2850:2866   */\n      add\n        /* \"#utility.yul\":2847:2872   */\n      gt\n        /* \"#utility.yul\":2844:2956   */\n      iszero\n      tag_520\n      jumpi\n        /* \"#utility.yul\":2875:2954   */\n      tag_521\n      tag_395\n      jump\t// in\n    tag_521:\n        /* \"#utility.yul\":2844:2956   */\n    tag_520:\n        /* \"#utility.yul\":2965:3019   */\n      tag_522\n        /* \"#utility.yul\":3012:3018   */\n      dup5\n        /* \"#utility.yul\":3007:3010   */\n      dup3\n        /* \"#utility.yul\":3002:3005   */\n      dup6\n        /* \"#utility.yul\":2965:3019   */\n      tag_400\n      jump\t// in\n    tag_522:\n        /* \"#utility.yul\":2684:3025   */\n      pop\n        /* \"#utility.yul\":2600:3025   */\n      swap4\n      swap3\n      pop\n      pop\n      pop\n      jump\t// out\n        /* \"#utility.yul\":3045:3385   */\n    tag_402:\n        /* \"#utility.yul\":3101:3106   */\n      0x00\n        /* \"#utility.yul\":3150:3153   */\n      dup3\n        /* \"#utility.yul\":3143:3147   */\n      0x1f\n        /* \"#utility.yul\":3135:3141   */\n      dup4\n        /* \"#utility.yul\":3131:3148   */\n      add\n        /* \"#utility.yul\":3127:3154   */\n      slt\n        /* \"#utility.yul\":3117:3239   */\n      tag_524\n      jumpi\n        /* \"#utility.yul\":3158:3237   */\n      tag_525\n      tag_394\n      jump\t// in\n    tag_525:\n        /* \"#utility.yul\":3117:3239   */\n    tag_524:\n        /* \"#utility.yul\":3275:3281   */\n      dup2\n        /* \"#utility.yul\":3262:3282   */\n      calldataload\n        /* \"#utility.yul\":3300:3379   */\n      tag_526\n        /* \"#utility.yul\":3375:3378   */\n      dup5\n        /* \"#utility.yul\":3367:3373   */\n      dup3\n        /* \"#utility.yul\":3360:3364   */\n      0x20\n        /* \"#utility.yul\":3352:3358   */\n      dup7\n        /* \"#utility.yul\":3348:3365   */\n      add\n        /* \"#utility.yul\":3300:3379   */\n      tag_401\n      jump\t// in\n    tag_526:\n        /* \"#utility.yul\":3291:3379   */\n      swap2\n      pop\n        /* \"#utility.yul\":3107:3385   */\n      pop\n        /* \"#utility.yul\":3045:3385   */\n      swap3\n      swap2\n      pop\n      pop\n      jump\t// out\n        /* \"#utility.yul\":3391:4045   */\n    tag_34:\n        /* \"#utility.yul\":3469:3475   */\n      0x00\n        /* \"#utility.yul\":3477:3483   */\n      dup1\n        /* \"#utility.yul\":3526:3528   */\n      0x40\n        /* \"#utility.yul\":3514:3523   */\n      dup4\n        /* \"#utility.yul\":3505:3512   */\n      dup6\n        /* \"#utility.yul\":3501:3524   */\n      sub\n        /* \"#utility.yul\":3497:3529   */\n      slt\n        /* \"#utility.yul\":3494:3613   */\n      iszero\n      tag_528\n      jumpi\n        /* \"#utility.yul\":3532:3611   */\n      tag_529\n      tag_389\n      jump\t// in\n    tag_529:\n        /* \"#utility.yul\":3494:3613   */\n    tag_528:\n        /* \"#utility.yul\":3652:3653   */\n      0x00\n        /* \"#utility.yul\":3677:3730   */\n      tag_530\n        /* \"#utility.yul\":3722:3729   */\n      dup6\n        /* \"#utility.yul\":3713:3719   */\n      dup3\n        /* \"#utility.yul\":3702:3711   */\n      dup7\n        /* \"#utility.yul\":3698:3720   */\n      add\n        /* \"#utility.yul\":3677:3730   */\n      tag_393\n      jump\t// in\n    tag_530:\n        /* \"#utility.yul\":3667:3730   */\n      swap3\n      pop\n        /* \"#utility.yul\":3623:3740   */\n      pop\n        /* \"#utility.yul\":3807:3809   */\n      0x20\n        /* \"#utility.yul\":3796:3805   */\n      dup4\n        /* \"#utility.yul\":3792:3810   */\n      add\n        /* \"#utility.yul\":3779:3811   */\n      calldataload\n        /* \"#utility.yul\":3838:3856   */\n      0xffffffffffffffff\n        /* \"#utility.yul\":3830:3836   */\n      dup2\n        /* \"#utility.yul\":3827:3857   */\n      gt\n        /* \"#utility.yul\":3824:3941   */\n      iszero\n      tag_531\n      jumpi\n        /* \"#utility.yul\":3860:3939   */\n      tag_532\n      tag_390\n      jump\t// in\n    tag_532:\n        /* \"#utility.yul\":3824:3941   */\n    tag_531:\n        /* \"#utility.yul\":3965:4028   */\n      tag_533\n        /* \"#utility.yul\":4020:4027   */\n      dup6\n        /* \"#utility.yul\":4011:4017   */\n      dup3\n        /* \"#utility.yul\":4000:4009   */\n      dup7\n        /* \"#utility.yul\":3996:4018   */\n      add\n        /* \"#utility.yul\":3965:4028   */\n      tag_402\n      jump\t// in\n    tag_533:\n        /* \"#utility.yul\":3955:4028   */\n      swap2\n      pop\n        /* \"#utility.yul\":3750:4038   */\n      pop\n        /* \"#utility.yul\":3391:4045   */\n      swap3\n      pop\n      swap3\n      swap1\n      pop\n      jump\t// out\n        /* \"#utility.yul\":4051:4169   */\n    tag_403:\n        /* \"#utility.yul\":4138:4162   */\n      tag_535\n        /* \"#utility.yul\":4156:4161   */\n      dup2\n        /* \"#utility.yul\":4138:4162   */\n      tag_391\n      jump\t// in\n    tag_535:\n        /* \"#utility.yul\":4133:4136   */\n      dup3\n        /* \"#utility.yul\":4126:4163   */\n      mstore\n        /* \"#utility.yul\":4051:4169   */\n      pop\n      pop\n      jump\t// out\n        /* \"#utility.yul\":4175:4301   */\n    tag_404:\n        /* \"#utility.yul\":4212:4219   */\n      0x00\n        /* \"#utility.yul\":4252:4294   */\n      0xffffffffffffffffffffffffffffffffffffffff\n        /* \"#utility.yul\":4245:4250   */\n      dup3\n        /* \"#utility.yul\":4241:4295   */\n      and\n        /* \"#utility.yul\":4230:4295   */\n      swap1\n      pop\n        /* \"#utility.yul\":4175:4301   */\n      swap2\n      swap1\n      pop\n      jump\t// out\n        /* \"#utility.yul\":4307:4403   */\n    tag_405:\n        /* \"#utility.yul\":4344:4351   */\n      0x00\n        /* \"#utility.yul\":4373:4397   */\n      tag_538\n        /* \"#utility.yul\":4391:4396   */\n      dup3\n        /* \"#utility.yul\":4373:4397   */\n      tag_404\n      jump\t// in\n    tag_538:\n        /* \"#utility.yul\":4362:4397   */\n      swap1\n      pop\n        /* \"#utility.yul\":4307:4403   */\n      swap2\n      swap1\n      pop\n      jump\t// out\n        /* \"#utility.yul\":4409:4527   */\n    tag_406:\n        /* \"#utility.yul\":4496:4520   */\n      tag_540\n        /* \"#utility.yul\":4514:4519   */\n      dup2\n        /* \"#utility.yul\":4496:4520   */\n      tag_405\n      jump\t// in\n    tag_540:\n        /* \"#utility.yul\":4491:4494   */\n      dup3\n        /* \"#utility.yul\":4484:4521   */\n      mstore\n        /* \"#utility.yul\":4409:4527   */\n      pop\n      pop\n      jump\t// out\n        /* \"#utility.yul\":4533:4632   */\n    tag_407:\n        /* \"#utility.yul\":4585:4591   */\n      0x00\n        /* \"#utility.yul\":4619:4624   */\n      dup2\n        /* \"#utility.yul\":4613:4625   */\n      mload\n        /* \"#utility.yul\":4603:4625   */\n      swap1\n      pop\n        /* \"#utility.yul\":4533:4632   */\n      swap2\n      swap1\n      pop\n      jump\t// out\n        /* \"#utility.yul\":4638:4807   */\n    tag_408:\n        /* \"#utility.yul\":4722:4733   */\n      0x00\n        /* \"#utility.yul\":4756:4762   */\n      dup3\n        /* \"#utility.yul\":4751:4754   */\n      dup3\n        /* \"#utility.yul\":4744:4763   */\n      mstore\n        /* \"#utility.yul\":4796:4800   */\n      0x20\n        /* \"#utility.yul\":4791:4794   */\n      dup3\n        /* \"#utility.yul\":4787:4801   */\n      add\n        /* \"#utility.yul\":4772:4801   */\n      swap1\n      pop\n        /* \"#utility.yul\":4638:4807   */\n      swap3\n      swap2\n      pop\n      pop\n      jump\t// out\n        /* \"#utility.yul\":4813:4952   */\n    tag_409:\n        /* \"#utility.yul\":4902:4908   */\n      dup3\n        /* \"#utility.yul\":4897:4900   */\n      dup2\n        /* \"#utility.yul\":4892:4895   */\n      dup4\n        /* \"#utility.yul\":4886:4909   */\n      mcopy\n        /* \"#utility.yul\":4943:4944   */\n      0x00\n        /* \"#utility.yul\":4934:4940   */\n      dup4\n        /* \"#utility.yul\":4929:4932   */\n      dup4\n        /* \"#utility.yul\":4925:4941   */\n      add\n        /* \"#utility.yul\":4918:4945   */\n      mstore\n        /* \"#utility.yul\":4813:4952   */\n      pop\n      pop\n      pop\n      jump\t// out\n        /* \"#utility.yul\":4958:5335   */\n    tag_410:\n        /* \"#utility.yul\":5046:5049   */\n      0x00\n        /* \"#utility.yul\":5074:5113   */\n      tag_545\n        /* \"#utility.yul\":5107:5112   */\n      dup3\n        /* \"#utility.yul\":5074:5113   */\n      tag_407\n      jump\t// in\n    tag_545:\n        /* \"#utility.yul\":5129:5200   */\n      tag_546\n        /* \"#utility.yul\":5193:5199   */\n      dup2\n        /* \"#utility.yul\":5188:5191   */\n      dup6\n        /* \"#utility.yul\":5129:5200   */\n      tag_408\n      jump\t// in\n    tag_546:\n        /* \"#utility.yul\":5122:5200   */\n      swap4\n      pop\n        /* \"#utility.yul\":5209:5274   */\n      tag_547\n        /* \"#utility.yul\":5267:5273   */\n      dup2\n        /* \"#utility.yul\":5262:5265   */\n      dup6\n        /* \"#utility.yul\":5255:5259   */\n      0x20\n        /* \"#utility.yul\":5248:5253   */\n      dup7\n        /* \"#utility.yul\":5244:5260   */\n      add\n        /* \"#utility.yul\":5209:5274   */\n      tag_409\n      jump\t// in\n    tag_547:\n        /* \"#utility.yul\":5299:5328   */\n      tag_548\n        /* \"#utility.yul\":5321:5327   */\n      dup2\n        /* \"#utility.yul\":5299:5328   */\n      tag_396\n      jump\t// in\n    tag_548:\n        /* \"#utility.yul\":5294:5297   */\n      dup5\n        /* \"#utility.yul\":5290:5329   */\n      add\n        /* \"#utility.yul\":5283:5329   */\n      swap2\n      pop\n        /* \"#utility.yul\":5050:5335   */\n      pop\n        /* \"#utility.yul\":4958:5335   */\n      swap3\n      swap2\n      pop\n      pop\n      jump\t// out\n        /* \"#utility.yul\":5341:6207   */\n    tag_41:\n        /* \"#utility.yul\":5594:5598   */\n      0x00\n        /* \"#utility.yul\":5632:5635   */\n      0xc0\n        /* \"#utility.yul\":5621:5630   */\n      dup3\n        /* \"#utility.yul\":5617:5636   */\n      add\n        /* \"#utility.yul\":5609:5636   */\n      swap1\n      pop\n        /* \"#utility.yul\":5646:5717   */\n      tag_550\n        /* \"#utility.yul\":5714:5715   */\n      0x00\n        /* \"#utility.yul\":5703:5712   */\n      dup4\n        /* \"#utility.yul\":5699:5716   */\n      add\n        /* \"#utility.yul\":5690:5696   */\n      dup10\n        /* \"#utility.yul\":5646:5717   */\n      tag_403\n      jump\t// in\n    tag_550:\n        /* \"#utility.yul\":5727:5799   */\n      tag_551\n        /* \"#utility.yul\":5795:5797   */\n      0x20\n        /* \"#utility.yul\":5784:5793   */\n      dup4\n        /* \"#utility.yul\":5780:5798   */\n      add\n        /* \"#utility.yul\":5771:5777   */\n      dup9\n        /* \"#utility.yul\":5727:5799   */\n      tag_406\n      jump\t// in\n    tag_551:\n        /* \"#utility.yul\":5846:5855   */\n      dup2\n        /* \"#utility.yul\":5840:5844   */\n      dup2\n        /* \"#utility.yul\":5836:5856   */\n      sub\n        /* \"#utility.yul\":5831:5833   */\n      0x40\n        /* \"#utility.yul\":5820:5829   */\n      dup4\n        /* \"#utility.yul\":5816:5834   */\n      add\n        /* \"#utility.yul\":5809:5857   */\n      mstore\n        /* \"#utility.yul\":5874:5952   */\n      tag_552\n        /* \"#utility.yul\":5947:5951   */\n      dup2\n        /* \"#utility.yul\":5938:5944   */\n      dup8\n        /* \"#utility.yul\":5874:5952   */\n      tag_410\n      jump\t// in\n    tag_552:\n        /* \"#utility.yul\":5866:5952   */\n      swap1\n      pop\n        /* \"#utility.yul\":5962:6034   */\n      tag_553\n        /* \"#utility.yul\":6030:6032   */\n      0x60\n        /* \"#utility.yul\":6019:6028   */\n      dup4\n        /* \"#utility.yul\":6015:6033   */\n      add\n        /* \"#utility.yul\":6006:6012   */\n      dup7\n        /* \"#utility.yul\":5962:6034   */\n      tag_403\n      jump\t// in\n    tag_553:\n        /* \"#utility.yul\":6044:6117   */\n      tag_554\n        /* \"#utility.yul\":6112:6115   */\n      0x80\n        /* \"#utility.yul\":6101:6110   */\n      dup4\n        /* \"#utility.yul\":6097:6116   */\n      add\n        /* \"#utility.yul\":6088:6094   */\n      dup6\n        /* \"#utility.yul\":6044:6117   */\n      tag_403\n      jump\t// in\n    tag_554:\n        /* \"#utility.yul\":6127:6200   */\n      tag_555\n        /* \"#utility.yul\":6195:6198   */\n      0xa0\n        /* \"#utility.yul\":6184:6193   */\n      dup4\n        /* \"#utility.yul\":6180:6199   */\n      add\n        /* \"#utility.yul\":6171:6177   */\n      dup5\n        /* \"#utility.yul\":6127:6200   */\n      tag_403\n      jump\t// in\n    tag_555:\n        /* \"#utility.yul\":5341:6207   */\n      swap8\n      swap7\n      pop\n      pop\n      pop\n      pop\n      pop\n      pop\n      pop\n      jump\t// out\n        /* \"#utility.yul\":6213:6335   */\n    tag_411:\n        /* \"#utility.yul\":6286:6310   */\n      tag_557\n        /* \"#utility.yul\":6304:6309   */\n      dup2\n        /* \"#utility.yul\":6286:6310   */\n      tag_405\n      jump\t// in\n    tag_557:\n        /* \"#utility.yul\":6279:6284   */\n      dup2\n        /* \"#utility.yul\":6276:6311   */\n      eq\n        /* \"#utility.yul\":6266:6329   */\n      tag_558\n      jumpi\n        /* \"#utility.yul\":6325:6326   */\n      0x00\n        /* \"#utility.yul\":6322:6323   */\n      dup1\n        /* \"#utility.yul\":6315:6327   */\n      revert\n        /* \"#utility.yul\":6266:6329   */\n    tag_558:\n        /* \"#utility.yul\":6213:6335   */\n      pop\n      jump\t// out\n        /* \"#utility.yul\":6341:6480   */\n    tag_412:\n        /* \"#utility.yul\":6387:6392   */\n      0x00\n        /* \"#utility.yul\":6425:6431   */\n      dup2\n        /* \"#utility.yul\":6412:6432   */\n      calldataload\n        /* \"#utility.yul\":6403:6432   */\n      swap1\n      pop\n        /* \"#utility.yul\":6441:6474   */\n      tag_560\n        /* \"#utility.yul\":6468:6473   */\n      dup2\n        /* \"#utility.yul\":6441:6474   */\n      tag_411\n      jump\t// in\n    tag_560:\n        /* \"#utility.yul\":6341:6480   */\n      swap3\n      swap2\n      pop\n      pop\n      jump\t// out\n        /* \"#utility.yul\":6486:6815   */\n    tag_48:\n        /* \"#utility.yul\":6545:6551   */\n      0x00\n        /* \"#utility.yul\":6594:6596   */\n      0x20\n        /* \"#utility.yul\":6582:6591   */\n      dup3\n        /* \"#utility.yul\":6573:6580   */\n      dup5\n        /* \"#utility.yul\":6569:6592   */\n      sub\n        /* \"#utility.yul\":6565:6597   */\n      slt\n        /* \"#utility.yul\":6562:6681   */\n      iszero\n      tag_562\n      jumpi\n        /* \"#utility.yul\":6600:6679   */\n      tag_563\n      tag_389\n      jump\t// in\n    tag_563:\n        /* \"#utility.yul\":6562:6681   */\n    tag_562:\n        /* \"#utility.yul\":6720:6721   */\n      0x00\n        /* \"#utility.yul\":6745:6798   */\n      tag_564\n        /* \"#utility.yul\":6790:6797   */\n      dup5\n        /* \"#utility.yul\":6781:6787   */\n      dup3\n        /* \"#utility.yul\":6770:6779   */\n      dup6\n        /* \"#utility.yul\":6766:6788   */\n      add\n        /* \"#utility.yul\":6745:6798   */\n      tag_412\n      jump\t// in\n    tag_564:\n        /* \"#utility.yul\":6735:6798   */\n      swap2\n      pop\n        /* \"#utility.yul\":6691:6808   */\n      pop\n        /* \"#utility.yul\":6486:6815   */\n      swap3\n      swap2\n      pop\n      pop\n      jump\t// out\n        /* \"#utility.yul\":6821:7043   */\n    tag_51:\n        /* \"#utility.yul\":6914:6918   */\n      0x00\n        /* \"#utility.yul\":6952:6954   */\n      0x20\n        /* \"#utility.yul\":6941:6950   */\n      dup3\n        /* \"#utility.yul\":6937:6955   */\n      add\n        /* \"#utility.yul\":6929:6955   */\n      swap1\n      pop\n        /* \"#utility.yul\":6965:7036   */\n      tag_566\n        /* \"#utility.yul\":7033:7034   */\n      0x00\n        /* \"#utility.yul\":7022:7031   */\n      dup4\n        /* \"#utility.yul\":7018:7035   */\n      add\n        /* \"#utility.yul\":7009:7015   */\n      dup5\n        /* \"#utility.yul\":6965:7036   */\n      tag_403\n      jump\t// in\n    tag_566:\n        /* \"#utility.yul\":6821:7043   */\n      swap3\n      swap2\n      pop\n      pop\n      jump\t// out\n        /* \"#utility.yul\":7049:7378   */\n    tag_55:\n        /* \"#utility.yul\":7108:7114   */\n      0x00\n        /* \"#utility.yul\":7157:7159   */\n      0x20\n        /* \"#utility.yul\":7145:7154   */\n      dup3\n        /* \"#utility.yul\":7136:7143   */\n      dup5\n        /* \"#utility.yul\":7132:7155   */\n      sub\n        /* \"#utility.yul\":7128:7160   */\n      slt\n        /* \"#utility.yul\":7125:7244   */\n      iszero\n      tag_568\n      jumpi\n        /* \"#utility.yul\":7163:7242   */\n      tag_569\n      tag_389\n      jump\t// in\n    tag_569:\n        /* \"#utility.yul\":7125:7244   */\n    tag_568:\n        /* \"#utility.yul\":7283:7284   */\n      0x00\n        /* \"#utility.yul\":7308:7361   */\n      tag_570\n        /* \"#utility.yul\":7353:7360   */\n      dup5\n        /* \"#utility.yul\":7344:7350   */\n      dup3\n        /* \"#utility.yul\":7333:7342   */\n      dup6\n        /* \"#utility.yul\":7329:7351   */\n      add\n        /* \"#utility.yul\":7308:7361   */\n      tag_393\n      jump\t// in\n    tag_570:\n        /* \"#utility.yul\":7298:7361   */\n      swap2\n      pop\n        /* \"#utility.yul\":7254:7371   */\n      pop\n        /* \"#utility.yul\":7049:7378   */\n      swap3\n      swap2\n      pop\n      pop\n      jump\t// out\n        /* \"#utility.yul\":7384:7474   */\n    tag_413:\n        /* \"#utility.yul\":7418:7425   */\n      0x00\n        /* \"#utility.yul\":7461:7466   */\n      dup2\n        /* \"#utility.yul\":7454:7467   */\n      iszero\n        /* \"#utility.yul\":7447:7468   */\n      iszero\n        /* \"#utility.yul\":7436:7468   */\n      swap1\n      pop\n        /* \"#utility.yul\":7384:7474   */\n      swap2\n      swap1\n      pop\n      jump\t// out\n        /* \"#utility.yul\":7480:7589   */\n    tag_414:\n        /* \"#utility.yul\":7561:7582   */\n      tag_573\n        /* \"#utility.yul\":7576:7581   */\n      dup2\n        /* \"#utility.yul\":7561:7582   */\n      tag_413\n      jump\t// in\n    tag_573:\n        /* \"#utility.yul\":7556:7559   */\n      dup3\n        /* \"#utility.yul\":7549:7583   */\n      mstore\n        /* \"#utility.yul\":7480:7589   */\n      pop\n      pop\n      jump\t// out\n        /* \"#utility.yul\":7595:9075   */\n    tag_58:\n        /* \"#utility.yul\":7994:7998   */\n      0x00\n        /* \"#utility.yul\":8032:8035   */\n      0x0140\n        /* \"#utility.yul\":8021:8030   */\n      dup3\n        /* \"#utility.yul\":8017:8036   */\n      add\n        /* \"#utility.yul\":8009:8036   */\n      swap1\n      pop\n        /* \"#utility.yul\":8046:8117   */\n      tag_575\n        /* \"#utility.yul\":8114:8115   */\n      0x00\n        /* \"#utility.yul\":8103:8112   */\n      dup4\n        /* \"#utility.yul\":8099:8116   */\n      add\n        /* \"#utility.yul\":8090:8096   */\n      dup14\n        /* \"#utility.yul\":8046:8117   */\n      tag_403\n      jump\t// in\n    tag_575:\n        /* \"#utility.yul\":8127:8199   */\n      tag_576\n        /* \"#utility.yul\":8195:8197   */\n      0x20\n        /* \"#utility.yul\":8184:8193   */\n      dup4\n        /* \"#utility.yul\":8180:8198   */\n      add\n        /* \"#utility.yul\":8171:8177   */\n      dup13\n        /* \"#utility.yul\":8127:8199   */\n      tag_406\n      jump\t// in\n    tag_576:\n        /* \"#utility.yul\":8246:8255   */\n      dup2\n        /* \"#utility.yul\":8240:8244   */\n      dup2\n        /* \"#utility.yul\":8236:8256   */\n      sub\n        /* \"#utility.yul\":8231:8233   */\n      0x40\n        /* \"#utility.yul\":8220:8229   */\n      dup4\n        /* \"#utility.yul\":8216:8234   */\n      add\n        /* \"#utility.yul\":8209:8257   */\n      mstore\n        /* \"#utility.yul\":8274:8352   */\n      tag_577\n        /* \"#utility.yul\":8347:8351   */\n      dup2\n        /* \"#utility.yul\":8338:8344   */\n      dup12\n        /* \"#utility.yul\":8274:8352   */\n      tag_410\n      jump\t// in\n    tag_577:\n        /* \"#utility.yul\":8266:8352   */\n      swap1\n      pop\n        /* \"#utility.yul\":8399:8408   */\n      dup2\n        /* \"#utility.yul\":8393:8397   */\n      dup2\n        /* \"#utility.yul\":8389:8409   */\n      sub\n        /* \"#utility.yul\":8384:8386   */\n      0x60\n        /* \"#utility.yul\":8373:8382   */\n      dup4\n        /* \"#utility.yul\":8369:8387   */\n      add\n        /* \"#utility.yul\":8362:8410   */\n      mstore\n        /* \"#utility.yul\":8427:8505   */\n      tag_578\n        /* \"#utility.yul\":8500:8504   */\n      dup2\n        /* \"#utility.yul\":8491:8497   */\n      dup11\n        /* \"#utility.yul\":8427:8505   */\n      tag_410\n      jump\t// in\n    tag_578:\n        /* \"#utility.yul\":8419:8505   */\n      swap1\n      pop\n        /* \"#utility.yul\":8553:8562   */\n      dup2\n        /* \"#utility.yul\":8547:8551   */\n      dup2\n        /* \"#utility.yul\":8543:8563   */\n      sub\n        /* \"#utility.yul\":8537:8540   */\n      0x80\n        /* \"#utility.yul\":8526:8535   */\n      dup4\n        /* \"#utility.yul\":8522:8541   */\n      add\n        /* \"#utility.yul\":8515:8564   */\n      mstore\n        /* \"#utility.yul\":8581:8659   */\n      tag_579\n        /* \"#utility.yul\":8654:8658   */\n      dup2\n        /* \"#utility.yul\":8645:8651   */\n      dup10\n        /* \"#utility.yul\":8581:8659   */\n      tag_410\n      jump\t// in\n    tag_579:\n        /* \"#utility.yul\":8573:8659   */\n      swap1\n      pop\n        /* \"#utility.yul\":8669:8742   */\n      tag_580\n        /* \"#utility.yul\":8737:8740   */\n      0xa0\n        /* \"#utility.yul\":8726:8735   */\n      dup4\n        /* \"#utility.yul\":8722:8741   */\n      add\n        /* \"#utility.yul\":8713:8719   */\n      dup9\n        /* \"#utility.yul\":8669:8742   */\n      tag_403\n      jump\t// in\n    tag_580:\n        /* \"#utility.yul\":8752:8825   */\n      tag_581\n        /* \"#utility.yul\":8820:8823   */\n      0xc0\n        /* \"#utility.yul\":8809:8818   */\n      dup4\n        /* \"#utility.yul\":8805:8824   */\n      add\n        /* \"#utility.yul\":8796:8802   */\n      dup8\n        /* \"#utility.yul\":8752:8825   */\n      tag_403\n      jump\t// in\n    tag_581:\n        /* \"#utility.yul\":8835:8908   */\n      tag_582\n        /* \"#utility.yul\":8903:8906   */\n      0xe0\n        /* \"#utility.yul\":8892:8901   */\n      dup4\n        /* \"#utility.yul\":8888:8907   */\n      add\n        /* \"#utility.yul\":8879:8885   */\n      dup7\n        /* \"#utility.yul\":8835:8908   */\n      tag_403\n      jump\t// in\n    tag_582:\n        /* \"#utility.yul\":8918:8985   */\n      tag_583\n        /* \"#utility.yul\":8980:8983   */\n      0x0100\n        /* \"#utility.yul\":8969:8978   */\n      dup4\n        /* \"#utility.yul\":8965:8984   */\n      add\n        /* \"#utility.yul\":8956:8962   */\n      dup6\n        /* \"#utility.yul\":8918:8985   */\n      tag_414\n      jump\t// in\n    tag_583:\n        /* \"#utility.yul\":8995:9068   */\n      tag_584\n        /* \"#utility.yul\":9063:9066   */\n      0x0120\n        /* \"#utility.yul\":9052:9061   */\n      dup4\n        /* \"#utility.yul\":9048:9067   */\n      add\n        /* \"#utility.yul\":9039:9045   */\n      dup5\n        /* \"#utility.yul\":8995:9068   */\n      tag_403\n      jump\t// in\n    tag_584:\n        /* \"#utility.yul\":7595:9075   */\n      swap12\n      swap11\n      pop\n      pop\n      pop\n      pop\n      pop\n      pop\n      pop\n      pop\n      pop\n      pop\n      pop\n      jump\t// out\n        /* \"#utility.yul\":9081:9189   */\n    tag_415:\n        /* \"#utility.yul\":9158:9182   */\n      tag_586\n        /* \"#utility.yul\":9176:9181   */\n      dup2\n        /* \"#utility.yul\":9158:9182   */\n      tag_391\n      jump\t// in\n    tag_586:\n        /* \"#utility.yul\":9153:9156   */\n      dup3\n        /* \"#utility.yul\":9146:9183   */\n      mstore\n        /* \"#utility.yul\":9081:9189   */\n      pop\n      pop\n      jump\t// out\n        /* \"#utility.yul\":9195:9303   */\n    tag_416:\n        /* \"#utility.yul\":9272:9296   */\n      tag_588\n        /* \"#utility.yul\":9290:9295   */\n      dup2\n        /* \"#utility.yul\":9272:9296   */\n      tag_405\n      jump\t// in\n    tag_588:\n        /* \"#utility.yul\":9267:9270   */\n      dup3\n        /* \"#utility.yul\":9260:9297   */\n      mstore\n        /* \"#utility.yul\":9195:9303   */\n      pop\n      pop\n      jump\t// out\n        /* \"#utility.yul\":9309:9468   */\n    tag_417:\n        /* \"#utility.yul\":9383:9394   */\n      0x00\n        /* \"#utility.yul\":9417:9423   */\n      dup3\n        /* \"#utility.yul\":9412:9415   */\n      dup3\n        /* \"#utility.yul\":9405:9424   */\n      mstore\n        /* \"#utility.yul\":9457:9461   */\n      0x20\n        /* \"#utility.yul\":9452:9455   */\n      dup3\n        /* \"#utility.yul\":9448:9462   */\n      add\n        /* \"#utility.yul\":9433:9462   */\n      swap1\n      pop\n        /* \"#utility.yul\":9309:9468   */\n      swap3\n      swap2\n      pop\n      pop\n      jump\t// out\n        /* \"#utility.yul\":9474:9831   */\n    tag_418:\n        /* \"#utility.yul\":9552:9555   */\n      0x00\n        /* \"#utility.yul\":9580:9619   */\n      tag_591\n        /* \"#utility.yul\":9613:9618   */\n      dup3\n        /* \"#utility.yul\":9580:9619   */\n      tag_407\n      jump\t// in\n    tag_591:\n        /* \"#utility.yul\":9635:9696   */\n      tag_592\n        /* \"#utility.yul\":9689:9695   */\n      dup2\n        /* \"#utility.yul\":9684:9687   */\n      dup6\n        /* \"#utility.yul\":9635:9696   */\n      tag_417\n      jump\t// in\n    tag_592:\n        /* \"#utility.yul\":9628:9696   */\n      swap4\n      pop\n        /* \"#utility.yul\":9705:9770   */\n      tag_593\n        /* \"#utility.yul\":9763:9769   */\n      dup2\n        /* \"#utility.yul\":9758:9761   */\n      dup6\n        /* \"#utility.yul\":9751:9755   */\n      0x20\n        /* \"#utility.yul\":9744:9749   */\n      dup7\n        /* \"#utility.yul\":9740:9756   */\n      add\n        /* \"#utility.yul\":9705:9770   */\n      tag_409\n      jump\t// in\n    tag_593:\n        /* \"#utility.yul\":9795:9824   */\n      tag_594\n        /* \"#utility.yul\":9817:9823   */\n      dup2\n        /* \"#utility.yul\":9795:9824   */\n      tag_396\n      jump\t// in\n    tag_594:\n        /* \"#utility.yul\":9790:9793   */\n      dup5\n        /* \"#utility.yul\":9786:9825   */\n      add\n        /* \"#utility.yul\":9779:9825   */\n      swap2\n      pop\n        /* \"#utility.yul\":9556:9831   */\n      pop\n        /* \"#utility.yul\":9474:9831   */\n      swap3\n      swap2\n      pop\n      pop\n      jump\t// out\n        /* \"#utility.yul\":9893:11214   */\n    tag_419:\n        /* \"#utility.yul\":10006:10009   */\n      0x00\n        /* \"#utility.yul\":10042:10046   */\n      0xc0\n        /* \"#utility.yul\":10037:10040   */\n      dup4\n        /* \"#utility.yul\":10033:10047   */\n      add\n        /* \"#utility.yul\":10127:10131   */\n      0x00\n        /* \"#utility.yul\":10120:10125   */\n      dup4\n        /* \"#utility.yul\":10116:10132   */\n      add\n        /* \"#utility.yul\":10110:10133   */\n      mload\n        /* \"#utility.yul\":10146:10209   */\n      tag_596\n        /* \"#utility.yul\":10203:10207   */\n      0x00\n        /* \"#utility.yul\":10198:10201   */\n      dup7\n        /* \"#utility.yul\":10194:10208   */\n      add\n        /* \"#utility.yul\":10180:10192   */\n      dup3\n        /* \"#utility.yul\":10146:10209   */\n      tag_415\n      jump\t// in\n    tag_596:\n        /* \"#utility.yul\":10057:10219   */\n      pop\n        /* \"#utility.yul\":10306:10310   */\n      0x20\n        /* \"#utility.yul\":10299:10304   */\n      dup4\n        /* \"#utility.yul\":10295:10311   */\n      add\n        /* \"#utility.yul\":10289:10312   */\n      mload\n        /* \"#utility.yul\":10325:10388   */\n      tag_597\n        /* \"#utility.yul\":10382:10386   */\n      0x20\n        /* \"#utility.yul\":10377:10380   */\n      dup7\n        /* \"#utility.yul\":10373:10387   */\n      add\n        /* \"#utility.yul\":10359:10371   */\n      dup3\n        /* \"#utility.yul\":10325:10388   */\n      tag_416\n      jump\t// in\n    tag_597:\n        /* \"#utility.yul\":10229:10398   */\n      pop\n        /* \"#utility.yul\":10486:10490   */\n      0x40\n        /* \"#utility.yul\":10479:10484   */\n      dup4\n        /* \"#utility.yul\":10475:10491   */\n      add\n        /* \"#utility.yul\":10469:10492   */\n      mload\n        /* \"#utility.yul\":10539:10542   */\n      dup5\n        /* \"#utility.yul\":10533:10537   */\n      dup3\n        /* \"#utility.yul\":10529:10543   */\n      sub\n        /* \"#utility.yul\":10522:10526   */\n      0x40\n        /* \"#utility.yul\":10517:10520   */\n      dup7\n        /* \"#utility.yul\":10513:10527   */\n      add\n        /* \"#utility.yul\":10506:10544   */\n      mstore\n        /* \"#utility.yul\":10565:10638   */\n      tag_598\n        /* \"#utility.yul\":10633:10637   */\n      dup3\n        /* \"#utility.yul\":10619:10631   */\n      dup3\n        /* \"#utility.yul\":10565:10638   */\n      tag_418\n      jump\t// in\n    tag_598:\n        /* \"#utility.yul\":10557:10638   */\n      swap2\n      pop\n        /* \"#utility.yul\":10408:10649   */\n      pop\n        /* \"#utility.yul\":10734:10738   */\n      0x60\n        /* \"#utility.yul\":10727:10732   */\n      dup4\n        /* \"#utility.yul\":10723:10739   */\n      add\n        /* \"#utility.yul\":10717:10740   */\n      mload\n        /* \"#utility.yul\":10753:10816   */\n      tag_599\n        /* \"#utility.yul\":10810:10814   */\n      0x60\n        /* \"#utility.yul\":10805:10808   */\n      dup7\n        /* \"#utility.yul\":10801:10815   */\n      add\n        /* \"#utility.yul\":10787:10799   */\n      dup3\n        /* \"#utility.yul\":10753:10816   */\n      tag_415\n      jump\t// in\n    tag_599:\n        /* \"#utility.yul\":10659:10826   */\n      pop\n        /* \"#utility.yul\":10916:10920   */\n      0x80\n        /* \"#utility.yul\":10909:10914   */\n      dup4\n        /* \"#utility.yul\":10905:10921   */\n      add\n        /* \"#utility.yul\":10899:10922   */\n      mload\n        /* \"#utility.yul\":10935:10998   */\n      tag_600\n        /* \"#utility.yul\":10992:10996   */\n      0x80\n        /* \"#utility.yul\":10987:10990   */\n      dup7\n        /* \"#utility.yul\":10983:10997   */\n      add\n        /* \"#utility.yul\":10969:10981   */\n      dup3\n        /* \"#utility.yul\":10935:10998   */\n      tag_415\n      jump\t// in\n    tag_600:\n        /* \"#utility.yul\":10836:11008   */\n      pop\n        /* \"#utility.yul\":11095:11099   */\n      0xa0\n        /* \"#utility.yul\":11088:11093   */\n      dup4\n        /* \"#utility.yul\":11084:11100   */\n      add\n        /* \"#utility.yul\":11078:11101   */\n      mload\n        /* \"#utility.yul\":11114:11177   */\n      tag_601\n        /* \"#utility.yul\":11171:11175   */\n      0xa0\n        /* \"#utility.yul\":11166:11169   */\n      dup7\n        /* \"#utility.yul\":11162:11176   */\n      add\n        /* \"#utility.yul\":11148:11160   */\n      dup3\n        /* \"#utility.yul\":11114:11177   */\n      tag_415\n      jump\t// in\n    tag_601:\n        /* \"#utility.yul\":11018:11187   */\n      pop\n        /* \"#utility.yul\":11204:11208   */\n      dup1\n        /* \"#utility.yul\":11197:11208   */\n      swap2\n      pop\n        /* \"#utility.yul\":10011:11214   */\n      pop\n        /* \"#utility.yul\":9893:11214   */\n      swap3\n      swap2\n      pop\n      pop\n      jump\t// out\n        /* \"#utility.yul\":11220:11581   */\n    tag_67:\n        /* \"#utility.yul\":11357:11361   */\n      0x00\n        /* \"#utility.yul\":11395:11397   */\n      0x20\n        /* \"#utility.yul\":11384:11393   */\n      dup3\n        /* \"#utility.yul\":11380:11398   */\n      add\n        /* \"#utility.yul\":11372:11398   */\n      swap1\n      pop\n        /* \"#utility.yul\":11444:11453   */\n      dup2\n        /* \"#utility.yul\":11438:11442   */\n      dup2\n        /* \"#utility.yul\":11434:11454   */\n      sub\n        /* \"#utility.yul\":11430:11431   */\n      0x00\n        /* \"#utility.yul\":11419:11428   */\n      dup4\n        /* \"#utility.yul\":11415:11432   */\n      add\n        /* \"#utility.yul\":11408:11455   */\n      mstore\n        /* \"#utility.yul\":11472:11574   */\n      tag_603\n        /* \"#utility.yul\":11569:11573   */\n      dup2\n        /* \"#utility.yul\":11560:11566   */\n      dup5\n        /* \"#utility.yul\":11472:11574   */\n      tag_419\n      jump\t// in\n    tag_603:\n        /* \"#utility.yul\":11464:11574   */\n      swap1\n      pop\n        /* \"#utility.yul\":11220:11581   */\n      swap3\n      swap2\n      pop\n      pop\n      jump\t// out\n        /* \"#utility.yul\":11587:12096   */\n    tag_71:\n        /* \"#utility.yul\":11656:11662   */\n      0x00\n        /* \"#utility.yul\":11705:11707   */\n      0x20\n        /* \"#utility.yul\":11693:11702   */\n      dup3\n        /* \"#utility.yul\":11684:11691   */\n      dup5\n        /* \"#utility.yul\":11680:11703   */\n      sub\n        /* \"#utility.yul\":11676:11708   */\n      slt\n        /* \"#utility.yul\":11673:11792   */\n      iszero\n      tag_605\n      jumpi\n        /* \"#utility.yul\":11711:11790   */\n      tag_606\n      tag_389\n      jump\t// in\n    tag_606:\n        /* \"#utility.yul\":11673:11792   */\n    tag_605:\n        /* \"#utility.yul\":11859:11860   */\n      0x00\n        /* \"#utility.yul\":11848:11857   */\n      dup3\n        /* \"#utility.yul\":11844:11861   */\n      add\n        /* \"#utility.yul\":11831:11862   */\n      calldataload\n        /* \"#utility.yul\":11889:11907   */\n      0xffffffffffffffff\n        /* \"#utility.yul\":11881:11887   */\n      dup2\n        /* \"#utility.yul\":11878:11908   */\n      gt\n        /* \"#utility.yul\":11875:11992   */\n      iszero\n      tag_607\n      jumpi\n        /* \"#utility.yul\":11911:11990   */\n      tag_608\n      tag_390\n      jump\t// in\n    tag_608:\n        /* \"#utility.yul\":11875:11992   */\n    tag_607:\n        /* \"#utility.yul\":12016:12079   */\n      tag_609\n        /* \"#utility.yul\":12071:12078   */\n      dup5\n        /* \"#utility.yul\":12062:12068   */\n      dup3\n        /* \"#utility.yul\":12051:12060   */\n      dup6\n        /* \"#utility.yul\":12047:12069   */\n      add\n        /* \"#utility.yul\":12016:12079   */\n      tag_402\n      jump\t// in\n    tag_609:\n        /* \"#utility.yul\":12006:12079   */\n      swap2\n      pop\n        /* \"#utility.yul\":11802:12089   */\n      pop\n        /* \"#utility.yul\":11587:12096   */\n      swap3\n      swap2\n      pop\n      pop\n      jump\t// out\n        /* \"#utility.yul\":12102:12216   */\n    tag_420:\n        /* \"#utility.yul\":12169:12175   */\n      0x00\n        /* \"#utility.yul\":12203:12208   */\n      dup2\n        /* \"#utility.yul\":12197:12209   */\n      mload\n        /* \"#utility.yul\":12187:12209   */\n      swap1\n      pop\n        /* \"#utility.yul\":12102:12216   */\n      swap2\n      swap1\n      pop\n      jump\t// out\n        /* \"#utility.yul\":12222:12406   */\n    tag_421:\n        /* \"#utility.yul\":12321:12332   */\n      0x00\n        /* \"#utility.yul\":12355:12361   */\n      dup3\n        /* \"#utility.yul\":12350:12353   */\n      dup3\n        /* \"#utility.yul\":12343:12362   */\n      mstore\n        /* \"#utility.yul\":12395:12399   */\n      0x20\n        /* \"#utility.yul\":12390:12393   */\n      dup3\n        /* \"#utility.yul\":12386:12400   */\n      add\n        /* \"#utility.yul\":12371:12400   */\n      swap1\n      pop\n        /* \"#utility.yul\":12222:12406   */\n      swap3\n      swap2\n      pop\n      pop\n      jump\t// out\n        /* \"#utility.yul\":12412:12544   */\n    tag_422:\n        /* \"#utility.yul\":12479:12483   */\n      0x00\n        /* \"#utility.yul\":12502:12505   */\n      dup2\n        /* \"#utility.yul\":12494:12505   */\n      swap1\n      pop\n        /* \"#utility.yul\":12532:12536   */\n      0x20\n        /* \"#utility.yul\":12527:12530   */\n      dup3\n        /* \"#utility.yul\":12523:12537   */\n      add\n        /* \"#utility.yul\":12515:12537   */\n      swap1\n      pop\n        /* \"#utility.yul\":12412:12544   */\n      swap2\n      swap1\n      pop\n      jump\t// out\n        /* \"#utility.yul\":12550:12729   */\n    tag_423:\n        /* \"#utility.yul\":12619:12629   */\n      0x00\n        /* \"#utility.yul\":12640:12686   */\n      tag_614\n        /* \"#utility.yul\":12682:12685   */\n      dup4\n        /* \"#utility.yul\":12674:12680   */\n      dup4\n        /* \"#utility.yul\":12640:12686   */\n      tag_415\n      jump\t// in\n    tag_614:\n        /* \"#utility.yul\":12718:12722   */\n      0x20\n        /* \"#utility.yul\":12713:12716   */\n      dup4\n        /* \"#utility.yul\":12709:12723   */\n      add\n        /* \"#utility.yul\":12695:12723   */\n      swap1\n      pop\n        /* \"#utility.yul\":12550:12729   */\n      swap3\n      swap2\n      pop\n      pop\n      jump\t// out\n        /* \"#utility.yul\":12735:12848   */\n    tag_424:\n        /* \"#utility.yul\":12805:12809   */\n      0x00\n        /* \"#utility.yul\":12837:12841   */\n      0x20\n        /* \"#utility.yul\":12832:12835   */\n      dup3\n        /* \"#utility.yul\":12828:12842   */\n      add\n        /* \"#utility.yul\":12820:12842   */\n      swap1\n      pop\n        /* \"#utility.yul\":12735:12848   */\n      swap2\n      swap1\n      pop\n      jump\t// out\n        /* \"#utility.yul\":12884:13616   */\n    tag_425:\n        /* \"#utility.yul\":13003:13006   */\n      0x00\n        /* \"#utility.yul\":13032:13086   */\n      tag_617\n        /* \"#utility.yul\":13080:13085   */\n      dup3\n        /* \"#utility.yul\":13032:13086   */\n      tag_420\n      jump\t// in\n    tag_617:\n        /* \"#utility.yul\":13102:13188   */\n      tag_618\n        /* \"#utility.yul\":13181:13187   */\n      dup2\n        /* \"#utility.yul\":13176:13179   */\n      dup6\n        /* \"#utility.yul\":13102:13188   */\n      tag_421\n      jump\t// in\n    tag_618:\n        /* \"#utility.yul\":13095:13188   */\n      swap4\n      pop\n        /* \"#utility.yul\":13212:13268   */\n      tag_619\n        /* \"#utility.yul\":13262:13267   */\n      dup4\n        /* \"#utility.yul\":13212:13268   */\n      tag_422\n      jump\t// in\n    tag_619:\n        /* \"#utility.yul\":13291:13298   */\n      dup1\n        /* \"#utility.yul\":13322:13323   */\n      0x00\n        /* \"#utility.yul\":13307:13591   */\n    tag_620:\n        /* \"#utility.yul\":13332:13338   */\n      dup4\n        /* \"#utility.yul\":13329:13330   */\n      dup2\n        /* \"#utility.yul\":13326:13339   */\n      lt\n        /* \"#utility.yul\":13307:13591   */\n      iszero\n      tag_622\n      jumpi\n        /* \"#utility.yul\":13408:13414   */\n      dup2\n        /* \"#utility.yul\":13402:13415   */\n      mload\n        /* \"#utility.yul\":13435:13498   */\n      tag_623\n        /* \"#utility.yul\":13494:13497   */\n      dup9\n        /* \"#utility.yul\":13479:13492   */\n      dup3\n        /* \"#utility.yul\":13435:13498   */\n      tag_423\n      jump\t// in\n    tag_623:\n        /* \"#utility.yul\":13428:13498   */\n      swap8\n      pop\n        /* \"#utility.yul\":13521:13581   */\n      tag_624\n        /* \"#utility.yul\":13574:13580   */\n      dup4\n        /* \"#utility.yul\":13521:13581   */\n      tag_424\n      jump\t// in\n    tag_624:\n        /* \"#utility.yul\":13511:13581   */\n      swap3\n      pop\n        /* \"#utility.yul\":13367:13591   */\n      pop\n        /* \"#utility.yul\":13354:13355   */\n      0x01\n        /* \"#utility.yul\":13351:13352   */\n      dup2\n        /* \"#utility.yul\":13347:13356   */\n      add\n        /* \"#utility.yul\":13342:13356   */\n      swap1\n      pop\n        /* \"#utility.yul\":13307:13591   */\n      jump(tag_620)\n    tag_622:\n        /* \"#utility.yul\":13311:13325   */\n      pop\n        /* \"#utility.yul\":13607:13610   */\n      dup6\n        /* \"#utility.yul\":13600:13610   */\n      swap4\n      pop\n        /* \"#utility.yul\":13008:13616   */\n      pop\n      pop\n      pop\n        /* \"#utility.yul\":12884:13616   */\n      swap3\n      swap2\n      pop\n      pop\n      jump\t// out\n        /* \"#utility.yul\":13622:13995   */\n    tag_74:\n        /* \"#utility.yul\":13765:13769   */\n      0x00\n        /* \"#utility.yul\":13803:13805   */\n      0x20\n        /* \"#utility.yul\":13792:13801   */\n      dup3\n        /* \"#utility.yul\":13788:13806   */\n      add\n        /* \"#utility.yul\":13780:13806   */\n      swap1\n      pop\n        /* \"#utility.yul\":13852:13861   */\n      dup2\n        /* \"#utility.yul\":13846:13850   */\n      dup2\n        /* \"#utility.yul\":13842:13862   */\n      sub\n        /* \"#utility.yul\":13838:13839   */\n      0x00\n        /* \"#utility.yul\":13827:13836   */\n      dup4\n        /* \"#utility.yul\":13823:13840   */\n      add\n        /* \"#utility.yul\":13816:13863   */\n      mstore\n        /* \"#utility.yul\":13880:13988   */\n      tag_626\n        /* \"#utility.yul\":13983:13987   */\n      dup2\n        /* \"#utility.yul\":13974:13980   */\n      dup5\n        /* \"#utility.yul\":13880:13988   */\n      tag_425\n      jump\t// in\n    tag_626:\n        /* \"#utility.yul\":13872:13988   */\n      swap1\n      pop\n        /* \"#utility.yul\":13622:13995   */\n      swap3\n      swap2\n      pop\n      pop\n      jump\t// out\n        /* \"#utility.yul\":14001:14117   */\n    tag_426:\n        /* \"#utility.yul\":14091:14092   */\n      0x03\n        /* \"#utility.yul\":14084:14089   */\n      dup2\n        /* \"#utility.yul\":14081:14093   */\n      lt\n        /* \"#utility.yul\":14071:14111   */\n      tag_628\n      jumpi\n        /* \"#utility.yul\":14107:14108   */\n      0x00\n        /* \"#utility.yul\":14104:14105   */\n      dup1\n        /* \"#utility.yul\":14097:14109   */\n      revert\n        /* \"#utility.yul\":14071:14111   */\n    tag_628:\n        /* \"#utility.yul\":14001:14117   */\n      pop\n      jump\t// out\n        /* \"#utility.yul\":14123:14296   */\n    tag_427:\n        /* \"#utility.yul\":14186:14191   */\n      0x00\n        /* \"#utility.yul\":14224:14230   */\n      dup2\n        /* \"#utility.yul\":14211:14231   */\n      calldataload\n        /* \"#utility.yul\":14202:14231   */\n      swap1\n      pop\n        /* \"#utility.yul\":14240:14290   */\n      tag_630\n        /* \"#utility.yul\":14284:14289   */\n      dup2\n        /* \"#utility.yul\":14240:14290   */\n      tag_426\n      jump\t// in\n    tag_630:\n        /* \"#utility.yul\":14123:14296   */\n      swap3\n      swap2\n      pop\n      pop\n      jump\t// out\n        /* \"#utility.yul\":14302:15641   */\n    tag_77:\n        /* \"#utility.yul\":14435:14441   */\n      0x00\n        /* \"#utility.yul\":14443:14449   */\n      dup1\n        /* \"#utility.yul\":14451:14457   */\n      0x00\n        /* \"#utility.yul\":14459:14465   */\n      dup1\n        /* \"#utility.yul\":14508:14511   */\n      0x80\n        /* \"#utility.yul\":14496:14505   */\n      dup6\n        /* \"#utility.yul\":14487:14494   */\n      dup8\n        /* \"#utility.yul\":14483:14506   */\n      sub\n        /* \"#utility.yul\":14479:14512   */\n      slt\n        /* \"#utility.yul\":14476:14596   */\n      iszero\n      tag_632\n      jumpi\n        /* \"#utility.yul\":14515:14594   */\n      tag_633\n      tag_389\n      jump\t// in\n    tag_633:\n        /* \"#utility.yul\":14476:14596   */\n    tag_632:\n        /* \"#utility.yul\":14663:14664   */\n      0x00\n        /* \"#utility.yul\":14652:14661   */\n      dup6\n        /* \"#utility.yul\":14648:14665   */\n      add\n        /* \"#utility.yul\":14635:14666   */\n      calldataload\n        /* \"#utility.yul\":14693:14711   */\n      0xffffffffffffffff\n        /* \"#utility.yul\":14685:14691   */\n      dup2\n        /* \"#utility.yul\":14682:14712   */\n      gt\n        /* \"#utility.yul\":14679:14796   */\n      iszero\n      tag_634\n      jumpi\n        /* \"#utility.yul\":14715:14794   */\n      tag_635\n      tag_390\n      jump\t// in\n    tag_635:\n        /* \"#utility.yul\":14679:14796   */\n    tag_634:\n        /* \"#utility.yul\":14820:14883   */\n      tag_636\n        /* \"#utility.yul\":14875:14882   */\n      dup8\n        /* \"#utility.yul\":14866:14872   */\n      dup3\n        /* \"#utility.yul\":14855:14864   */\n      dup9\n        /* \"#utility.yul\":14851:14873   */\n      add\n        /* \"#utility.yul\":14820:14883   */\n      tag_402\n      jump\t// in\n    tag_636:\n        /* \"#utility.yul\":14810:14883   */\n      swap5\n      pop\n        /* \"#utility.yul\":14606:14893   */\n      pop\n        /* \"#utility.yul\":14960:14962   */\n      0x20\n        /* \"#utility.yul\":14949:14958   */\n      dup6\n        /* \"#utility.yul\":14945:14963   */\n      add\n        /* \"#utility.yul\":14932:14964   */\n      calldataload\n        /* \"#utility.yul\":14991:15009   */\n      0xffffffffffffffff\n        /* \"#utility.yul\":14983:14989   */\n      dup2\n        /* \"#utility.yul\":14980:15010   */\n      gt\n        /* \"#utility.yul\":14977:15094   */\n      iszero\n      tag_637\n      jumpi\n        /* \"#utility.yul\":15013:15092   */\n      tag_638\n      tag_390\n      jump\t// in\n    tag_638:\n        /* \"#utility.yul\":14977:15094   */\n    tag_637:\n        /* \"#utility.yul\":15118:15181   */\n      tag_639\n        /* \"#utility.yul\":15173:15180   */\n      dup8\n        /* \"#utility.yul\":15164:15170   */\n      dup3\n        /* \"#utility.yul\":15153:15162   */\n      dup9\n        /* \"#utility.yul\":15149:15171   */\n      add\n        /* \"#utility.yul\":15118:15181   */\n      tag_402\n      jump\t// in\n    tag_639:\n        /* \"#utility.yul\":15108:15181   */\n      swap4\n      pop\n        /* \"#utility.yul\":14903:15191   */\n      pop\n        /* \"#utility.yul\":15258:15260   */\n      0x40\n        /* \"#utility.yul\":15247:15256   */\n      dup6\n        /* \"#utility.yul\":15243:15261   */\n      add\n        /* \"#utility.yul\":15230:15262   */\n      calldataload\n        /* \"#utility.yul\":15289:15307   */\n      0xffffffffffffffff\n        /* \"#utility.yul\":15281:15287   */\n      dup2\n        /* \"#utility.yul\":15278:15308   */\n      gt\n        /* \"#utility.yul\":15275:15392   */\n      iszero\n      tag_640\n      jumpi\n        /* \"#utility.yul\":15311:15390   */\n      tag_641\n      tag_390\n      jump\t// in\n    tag_641:\n        /* \"#utility.yul\":15275:15392   */\n    tag_640:\n        /* \"#utility.yul\":15416:15479   */\n      tag_642\n        /* \"#utility.yul\":15471:15478   */\n      dup8\n        /* \"#utility.yul\":15462:15468   */\n      dup3\n        /* \"#utility.yul\":15451:15460   */\n      dup9\n        /* \"#utility.yul\":15447:15469   */\n      add\n        /* \"#utility.yul\":15416:15479   */\n      tag_402\n      jump\t// in\n    tag_642:\n        /* \"#utility.yul\":15406:15479   */\n      swap3\n      pop\n        /* \"#utility.yul\":15201:15489   */\n      pop\n        /* \"#utility.yul\":15528:15530   */\n      0x60\n        /* \"#utility.yul\":15554:15624   */\n      tag_643\n        /* \"#utility.yul\":15616:15623   */\n      dup8\n        /* \"#utility.yul\":15607:15613   */\n      dup3\n        /* \"#utility.yul\":15596:15605   */\n      dup9\n        /* \"#utility.yul\":15592:15614   */\n      add\n        /* \"#utility.yul\":15554:15624   */\n      tag_427\n      jump\t// in\n    tag_643:\n        /* \"#utility.yul\":15544:15624   */\n      swap2\n      pop\n        /* \"#utility.yul\":15499:15634   */\n      pop\n        /* \"#utility.yul\":14302:15641   */\n      swap3\n      swap6\n      swap2\n      swap5\n      pop\n      swap3\n      pop\n      jump\t// out\n        /* \"#utility.yul\":15647:15869   */\n    tag_91:\n        /* \"#utility.yul\":15740:15744   */\n      0x00\n        /* \"#utility.yul\":15778:15780   */\n      0x20\n        /* \"#utility.yul\":15767:15776   */\n      dup3\n        /* \"#utility.yul\":15763:15781   */\n      add\n        /* \"#utility.yul\":15755:15781   */\n      swap1\n      pop\n        /* \"#utility.yul\":15791:15862   */\n      tag_645\n        /* \"#utility.yul\":15859:15860   */\n      0x00\n        /* \"#utility.yul\":15848:15857   */\n      dup4\n        /* \"#utility.yul\":15844:15861   */\n      add\n        /* \"#utility.yul\":15835:15841   */\n      dup5\n        /* \"#utility.yul\":15791:15862   */\n      tag_406\n      jump\t// in\n    tag_645:\n        /* \"#utility.yul\":15647:15869   */\n      swap3\n      swap2\n      pop\n      pop\n      jump\t// out\n        /* \"#utility.yul\":15875:15974   */\n    tag_428:\n        /* \"#utility.yul\":15946:15967   */\n      tag_647\n        /* \"#utility.yul\":15961:15966   */\n      dup2\n        /* \"#utility.yul\":15946:15967   */\n      tag_413\n      jump\t// in\n    tag_647:\n        /* \"#utility.yul\":15941:15944   */\n      dup3\n        /* \"#utility.yul\":15934:15968   */\n      mstore\n        /* \"#utility.yul\":15875:15974   */\n      pop\n      pop\n      jump\t// out\n        /* \"#utility.yul\":16040:18235   */\n    tag_429:\n        /* \"#utility.yul\":16157:16160   */\n      0x00\n        /* \"#utility.yul\":16193:16199   */\n      0x0140\n        /* \"#utility.yul\":16188:16191   */\n      dup4\n        /* \"#utility.yul\":16184:16200   */\n      add\n        /* \"#utility.yul\":16280:16284   */\n      0x00\n        /* \"#utility.yul\":16273:16278   */\n      dup4\n        /* \"#utility.yul\":16269:16285   */\n      add\n        /* \"#utility.yul\":16263:16286   */\n      mload\n        /* \"#utility.yul\":16299:16362   */\n      tag_649\n        /* \"#utility.yul\":16356:16360   */\n      0x00\n        /* \"#utility.yul\":16351:16354   */\n      dup7\n        /* \"#utility.yul\":16347:16361   */\n      add\n        /* \"#utility.yul\":16333:16345   */\n      dup3\n        /* \"#utility.yul\":16299:16362   */\n      tag_415\n      jump\t// in\n    tag_649:\n        /* \"#utility.yul\":16210:16372   */\n      pop\n        /* \"#utility.yul\":16455:16459   */\n      0x20\n        /* \"#utility.yul\":16448:16453   */\n      dup4\n        /* \"#utility.yul\":16444:16460   */\n      add\n        /* \"#utility.yul\":16438:16461   */\n      mload\n        /* \"#utility.yul\":16474:16537   */\n      tag_650\n        /* \"#utility.yul\":16531:16535   */\n      0x20\n        /* \"#utility.yul\":16526:16529   */\n      dup7\n        /* \"#utility.yul\":16522:16536   */\n      add\n        /* \"#utility.yul\":16508:16520   */\n      dup3\n        /* \"#utility.yul\":16474:16537   */\n      tag_416\n      jump\t// in\n    tag_650:\n        /* \"#utility.yul\":16382:16547   */\n      pop\n        /* \"#utility.yul\":16637:16641   */\n      0x40\n        /* \"#utility.yul\":16630:16635   */\n      dup4\n        /* \"#utility.yul\":16626:16642   */\n      add\n        /* \"#utility.yul\":16620:16643   */\n      mload\n        /* \"#utility.yul\":16690:16693   */\n      dup5\n        /* \"#utility.yul\":16684:16688   */\n      dup3\n        /* \"#utility.yul\":16680:16694   */\n      sub\n        /* \"#utility.yul\":16673:16677   */\n      0x40\n        /* \"#utility.yul\":16668:16671   */\n      dup7\n        /* \"#utility.yul\":16664:16678   */\n      add\n        /* \"#utility.yul\":16657:16695   */\n      mstore\n        /* \"#utility.yul\":16716:16789   */\n      tag_651\n        /* \"#utility.yul\":16784:16788   */\n      dup3\n        /* \"#utility.yul\":16770:16782   */\n      dup3\n        /* \"#utility.yul\":16716:16789   */\n      tag_418\n      jump\t// in\n    tag_651:\n        /* \"#utility.yul\":16708:16789   */\n      swap2\n      pop\n        /* \"#utility.yul\":16557:16800   */\n      pop\n        /* \"#utility.yul\":16893:16897   */\n      0x60\n        /* \"#utility.yul\":16886:16891   */\n      dup4\n        /* \"#utility.yul\":16882:16898   */\n      add\n        /* \"#utility.yul\":16876:16899   */\n      mload\n        /* \"#utility.yul\":16946:16949   */\n      dup5\n        /* \"#utility.yul\":16940:16944   */\n      dup3\n        /* \"#utility.yul\":16936:16950   */\n      sub\n        /* \"#utility.yul\":16929:16933   */\n      0x60\n        /* \"#utility.yul\":16924:16927   */\n      dup7\n        /* \"#utility.yul\":16920:16934   */\n      add\n        /* \"#utility.yul\":16913:16951   */\n      mstore\n        /* \"#utility.yul\":16972:17045   */\n      tag_652\n        /* \"#utility.yul\":17040:17044   */\n      dup3\n        /* \"#utility.yul\":17026:17038   */\n      dup3\n        /* \"#utility.yul\":16972:17045   */\n      tag_418\n      jump\t// in\n    tag_652:\n        /* \"#utility.yul\":16964:17045   */\n      swap2\n      pop\n        /* \"#utility.yul\":16810:17056   */\n      pop\n        /* \"#utility.yul\":17142:17146   */\n      0x80\n        /* \"#utility.yul\":17135:17140   */\n      dup4\n        /* \"#utility.yul\":17131:17147   */\n      add\n        /* \"#utility.yul\":17125:17148   */\n      mload\n        /* \"#utility.yul\":17195:17198   */\n      dup5\n        /* \"#utility.yul\":17189:17193   */\n      dup3\n        /* \"#utility.yul\":17185:17199   */\n      sub\n        /* \"#utility.yul\":17178:17182   */\n      0x80\n        /* \"#utility.yul\":17173:17176   */\n      dup7\n        /* \"#utility.yul\":17169:17183   */\n      add\n        /* \"#utility.yul\":17162:17200   */\n      mstore\n        /* \"#utility.yul\":17221:17294   */\n      tag_653\n        /* \"#utility.yul\":17289:17293   */\n      dup3\n        /* \"#utility.yul\":17275:17287   */\n      dup3\n        /* \"#utility.yul\":17221:17294   */\n      tag_418\n      jump\t// in\n    tag_653:\n        /* \"#utility.yul\":17213:17294   */\n      swap2\n      pop\n        /* \"#utility.yul\":17066:17305   */\n      pop\n        /* \"#utility.yul\":17395:17399   */\n      0xa0\n        /* \"#utility.yul\":17388:17393   */\n      dup4\n        /* \"#utility.yul\":17384:17400   */\n      add\n        /* \"#utility.yul\":17378:17401   */\n      mload\n        /* \"#utility.yul\":17414:17477   */\n      tag_654\n        /* \"#utility.yul\":17471:17475   */\n      0xa0\n        /* \"#utility.yul\":17466:17469   */\n      dup7\n        /* \"#utility.yul\":17462:17476   */\n      add\n        /* \"#utility.yul\":17448:17460   */\n      dup3\n        /* \"#utility.yul\":17414:17477   */\n      tag_415\n      jump\t// in\n    tag_654:\n        /* \"#utility.yul\":17315:17487   */\n      pop\n        /* \"#utility.yul\":17574:17578   */\n      0xc0\n        /* \"#utility.yul\":17567:17572   */\n      dup4\n        /* \"#utility.yul\":17563:17579   */\n      add\n        /* \"#utility.yul\":17557:17580   */\n      mload\n        /* \"#utility.yul\":17593:17656   */\n      tag_655\n        /* \"#utility.yul\":17650:17654   */\n      0xc0\n        /* \"#utility.yul\":17645:17648   */\n      dup7\n        /* \"#utility.yul\":17641:17655   */\n      add\n        /* \"#utility.yul\":17627:17639   */\n      dup3\n        /* \"#utility.yul\":17593:17656   */\n      tag_415\n      jump\t// in\n    tag_655:\n        /* \"#utility.yul\":17497:17666   */\n      pop\n        /* \"#utility.yul\":17752:17756   */\n      0xe0\n        /* \"#utility.yul\":17745:17750   */\n      dup4\n        /* \"#utility.yul\":17741:17757   */\n      add\n        /* \"#utility.yul\":17735:17758   */\n      mload\n        /* \"#utility.yul\":17771:17834   */\n      tag_656\n        /* \"#utility.yul\":17828:17832   */\n      0xe0\n        /* \"#utility.yul\":17823:17826   */\n      dup7\n        /* \"#utility.yul\":17819:17833   */\n      add\n        /* \"#utility.yul\":17805:17817   */\n      dup3\n        /* \"#utility.yul\":17771:17834   */\n      tag_415\n      jump\t// in\n    tag_656:\n        /* \"#utility.yul\":17676:17844   */\n      pop\n        /* \"#utility.yul\":17930:17936   */\n      0x0100\n        /* \"#utility.yul\":17923:17928   */\n      dup4\n        /* \"#utility.yul\":17919:17937   */\n      add\n        /* \"#utility.yul\":17913:17938   */\n      mload\n        /* \"#utility.yul\":17951:18010   */\n      tag_657\n        /* \"#utility.yul\":18002:18008   */\n      0x0100\n        /* \"#utility.yul\":17997:18000   */\n      dup7\n        /* \"#utility.yul\":17993:18009   */\n      add\n        /* \"#utility.yul\":17979:17991   */\n      dup3\n        /* \"#utility.yul\":17951:18010   */\n      tag_428\n      jump\t// in\n    tag_657:\n        /* \"#utility.yul\":17854:18020   */\n      pop\n        /* \"#utility.yul\":18112:18118   */\n      0x0120\n        /* \"#utility.yul\":18105:18110   */\n      dup4\n        /* \"#utility.yul\":18101:18119   */\n      add\n        /* \"#utility.yul\":18095:18120   */\n      mload\n        /* \"#utility.yul\":18133:18198   */\n      tag_658\n        /* \"#utility.yul\":18190:18196   */\n      0x0120\n        /* \"#utility.yul\":18185:18188   */\n      dup7\n        /* \"#utility.yul\":18181:18197   */\n      add\n        /* \"#utility.yul\":18167:18179   */\n      dup3\n        /* \"#utility.yul\":18133:18198   */\n      tag_415\n      jump\t// in\n    tag_658:\n        /* \"#utility.yul\":18030:18208   */\n      pop\n        /* \"#utility.yul\":18225:18229   */\n      dup1\n        /* \"#utility.yul\":18218:18229   */\n      swap2\n      pop\n        /* \"#utility.yul\":16162:18235   */\n      pop\n        /* \"#utility.yul\":16040:18235   */\n      swap3\n      swap2\n      pop\n      pop\n      jump\t// out\n        /* \"#utility.yul\":18241:18610   */\n    tag_117:\n        /* \"#utility.yul\":18382:18386   */\n      0x00\n        /* \"#utility.yul\":18420:18422   */\n      0x20\n        /* \"#utility.yul\":18409:18418   */\n      dup3\n        /* \"#utility.yul\":18405:18423   */\n      add\n        /* \"#utility.yul\":18397:18423   */\n      swap1\n      pop\n        /* \"#utility.yul\":18469:18478   */\n      dup2\n        /* \"#utility.yul\":18463:18467   */\n      dup2\n        /* \"#utility.yul\":18459:18479   */\n      sub\n        /* \"#utility.yul\":18455:18456   */\n      0x00\n        /* \"#utility.yul\":18444:18453   */\n      dup4\n        /* \"#utility.yul\":18440:18457   */\n      add\n        /* \"#utility.yul\":18433:18480   */\n      mstore\n        /* \"#utility.yul\":18497:18603   */\n      tag_660\n        /* \"#utility.yul\":18598:18602   */\n      dup2\n        /* \"#utility.yul\":18589:18595   */\n      dup5\n        /* \"#utility.yul\":18497:18603   */\n      tag_429\n      jump\t// in\n    tag_660:\n        /* \"#utility.yul\":18489:18603   */\n      swap1\n      pop\n        /* \"#utility.yul\":18241:18610   */\n      swap3\n      swap2\n      pop\n      pop\n      jump\t// out\n        /* \"#utility.yul\":18616:18754   */\n    tag_430:\n        /* \"#utility.yul\":18707:18713   */\n      0x00\n        /* \"#utility.yul\":18741:18746   */\n      dup2\n        /* \"#utility.yul\":18735:18747   */\n      mload\n        /* \"#utility.yul\":18725:18747   */\n      swap1\n      pop\n        /* \"#utility.yul\":18616:18754   */\n      swap2\n      swap1\n      pop\n      jump\t// out\n        /* \"#utility.yul\":18760:18968   */\n    tag_431:\n        /* \"#utility.yul\":18883:18894   */\n      0x00\n        /* \"#utility.yul\":18917:18923   */\n      dup3\n        /* \"#utility.yul\":18912:18915   */\n      dup3\n        /* \"#utility.yul\":18905:18924   */\n      mstore\n        /* \"#utility.yul\":18957:18961   */\n      0x20\n        /* \"#utility.yul\":18952:18955   */\n      dup3\n        /* \"#utility.yul\":18948:18962   */\n      add\n        /* \"#utility.yul\":18933:18962   */\n      swap1\n      pop\n        /* \"#utility.yul\":18760:18968   */\n      swap3\n      swap2\n      pop\n      pop\n      jump\t// out\n        /* \"#utility.yul\":18974:19130   */\n    tag_432:\n        /* \"#utility.yul\":19065:19069   */\n      0x00\n        /* \"#utility.yul\":19088:19091   */\n      dup2\n        /* \"#utility.yul\":19080:19091   */\n      swap1\n      pop\n        /* \"#utility.yul\":19118:19122   */\n      0x20\n        /* \"#utility.yul\":19113:19116   */\n      dup3\n        /* \"#utility.yul\":19109:19123   */\n      add\n        /* \"#utility.yul\":19101:19123   */\n      swap1\n      pop\n        /* \"#utility.yul\":18974:19130   */\n      swap2\n      swap1\n      pop\n      jump\t// out\n        /* \"#utility.yul\":19196:21381   */\n    tag_433:\n        /* \"#utility.yul\":19303:19306   */\n      0x00\n        /* \"#utility.yul\":19339:19345   */\n      0x0140\n        /* \"#utility.yul\":19334:19337   */\n      dup4\n        /* \"#utility.yul\":19330:19346   */\n      add\n        /* \"#utility.yul\":19426:19430   */\n      0x00\n        /* \"#utility.yul\":19419:19424   */\n      dup4\n        /* \"#utility.yul\":19415:19431   */\n      add\n        /* \"#utility.yul\":19409:19432   */\n      mload\n        /* \"#utility.yul\":19445:19508   */\n      tag_665\n        /* \"#utility.yul\":19502:19506   */\n      0x00\n        /* \"#utility.yul\":19497:19500   */\n      dup7\n        /* \"#utility.yul\":19493:19507   */\n      add\n        /* \"#utility.yul\":19479:19491   */\n      dup3\n        /* \"#utility.yul\":19445:19508   */\n      tag_415\n      jump\t// in\n    tag_665:\n        /* \"#utility.yul\":19356:19518   */\n      pop\n        /* \"#utility.yul\":19601:19605   */\n      0x20\n        /* \"#utility.yul\":19594:19599   */\n      dup4\n        /* \"#utility.yul\":19590:19606   */\n      add\n        /* \"#utility.yul\":19584:19607   */\n      mload\n        /* \"#utility.yul\":19620:19683   */\n      tag_666\n        /* \"#utility.yul\":19677:19681   */\n      0x20\n        /* \"#utility.yul\":19672:19675   */\n      dup7\n        /* \"#utility.yul\":19668:19682   */\n      add\n        /* \"#utility.yul\":19654:19666   */\n      dup3\n        /* \"#utility.yul\":19620:19683   */\n      tag_416\n      jump\t// in\n    tag_666:\n        /* \"#utility.yul\":19528:19693   */\n      pop\n        /* \"#utility.yul\":19783:19787   */\n      0x40\n        /* \"#utility.yul\":19776:19781   */\n      dup4\n        /* \"#utility.yul\":19772:19788   */\n      add\n        /* \"#utility.yul\":19766:19789   */\n      mload\n        /* \"#utility.yul\":19836:19839   */\n      dup5\n        /* \"#utility.yul\":19830:19834   */\n      dup3\n        /* \"#utility.yul\":19826:19840   */\n      sub\n        /* \"#utility.yul\":19819:19823   */\n      0x40\n        /* \"#utility.yul\":19814:19817   */\n      dup7\n        /* \"#utility.yul\":19810:19824   */\n      add\n        /* \"#utility.yul\":19803:19841   */\n      mstore\n        /* \"#utility.yul\":19862:19935   */\n      tag_667\n        /* \"#utility.yul\":19930:19934   */\n      dup3\n        /* \"#utility.yul\":19916:19928   */\n      dup3\n        /* \"#utility.yul\":19862:19935   */\n      tag_418\n      jump\t// in\n    tag_667:\n        /* \"#utility.yul\":19854:19935   */\n      swap2\n      pop\n        /* \"#utility.yul\":19703:19946   */\n      pop\n        /* \"#utility.yul\":20039:20043   */\n      0x60\n        /* \"#utility.yul\":20032:20037   */\n      dup4\n        /* \"#utility.yul\":20028:20044   */\n      add\n        /* \"#utility.yul\":20022:20045   */\n      mload\n        /* \"#utility.yul\":20092:20095   */\n      dup5\n        /* \"#utility.yul\":20086:20090   */\n      dup3\n        /* \"#utility.yul\":20082:20096   */\n      sub\n        /* \"#utility.yul\":20075:20079   */\n      0x60\n        /* \"#utility.yul\":20070:20073   */\n      dup7\n        /* \"#utility.yul\":20066:20080   */\n      add\n        /* \"#utility.yul\":20059:20097   */\n      mstore\n        /* \"#utility.yul\":20118:20191   */\n      tag_668\n        /* \"#utility.yul\":20186:20190   */\n      dup3\n        /* \"#utility.yul\":20172:20184   */\n      dup3\n        /* \"#utility.yul\":20118:20191   */\n      tag_418\n      jump\t// in\n    tag_668:\n        /* \"#utility.yul\":20110:20191   */\n      swap2\n      pop\n        /* \"#utility.yul\":19956:20202   */\n      pop\n        /* \"#utility.yul\":20288:20292   */\n      0x80\n        /* \"#utility.yul\":20281:20286   */\n      dup4\n        /* \"#utility.yul\":20277:20293   */\n      add\n        /* \"#utility.yul\":20271:20294   */\n      mload\n        /* \"#utility.yul\":20341:20344   */\n      dup5\n        /* \"#utility.yul\":20335:20339   */\n      dup3\n        /* \"#utility.yul\":20331:20345   */\n      sub\n        /* \"#utility.yul\":20324:20328   */\n      0x80\n        /* \"#utility.yul\":20319:20322   */\n      dup7\n        /* \"#utility.yul\":20315:20329   */\n      add\n        /* \"#utility.yul\":20308:20346   */\n      mstore\n        /* \"#utility.yul\":20367:20440   */\n      tag_669\n        /* \"#utility.yul\":20435:20439   */\n      dup3\n        /* \"#utility.yul\":20421:20433   */\n      dup3\n        /* \"#utility.yul\":20367:20440   */\n      tag_418\n      jump\t// in\n    tag_669:\n        /* \"#utility.yul\":20359:20440   */\n      swap2\n      pop\n        /* \"#utility.yul\":20212:20451   */\n      pop\n        /* \"#utility.yul\":20541:20545   */\n      0xa0\n        /* \"#utility.yul\":20534:20539   */\n      dup4\n        /* \"#utility.yul\":20530:20546   */\n      add\n        /* \"#utility.yul\":20524:20547   */\n      mload\n        /* \"#utility.yul\":20560:20623   */\n      tag_670\n        /* \"#utility.yul\":20617:20621   */\n      0xa0\n        /* \"#utility.yul\":20612:20615   */\n      dup7\n        /* \"#utility.yul\":20608:20622   */\n      add\n        /* \"#utility.yul\":20594:20606   */\n      dup3\n        /* \"#utility.yul\":20560:20623   */\n      tag_415\n      jump\t// in\n    tag_670:\n        /* \"#utility.yul\":20461:20633   */\n      pop\n        /* \"#utility.yul\":20720:20724   */\n      0xc0\n        /* \"#utility.yul\":20713:20718   */\n      dup4\n        /* \"#utility.yul\":20709:20725   */\n      add\n        /* \"#utility.yul\":20703:20726   */\n      mload\n        /* \"#utility.yul\":20739:20802   */\n      tag_671\n        /* \"#utility.yul\":20796:20800   */\n      0xc0\n        /* \"#utility.yul\":20791:20794   */\n      dup7\n        /* \"#utility.yul\":20787:20801   */\n      add\n        /* \"#utility.yul\":20773:20785   */\n      dup3\n        /* \"#utility.yul\":20739:20802   */\n      tag_415\n      jump\t// in\n    tag_671:\n        /* \"#utility.yul\":20643:20812   */\n      pop\n        /* \"#utility.yul\":20898:20902   */\n      0xe0\n        /* \"#utility.yul\":20891:20896   */\n      dup4\n        /* \"#utility.yul\":20887:20903   */\n      add\n        /* \"#utility.yul\":20881:20904   */\n      mload\n        /* \"#utility.yul\":20917:20980   */\n      tag_672\n        /* \"#utility.yul\":20974:20978   */\n      0xe0\n        /* \"#utility.yul\":20969:20972   */\n      dup7\n        /* \"#utility.yul\":20965:20979   */\n      add\n        /* \"#utility.yul\":20951:20963   */\n      dup3\n        /* \"#utility.yul\":20917:20980   */\n      tag_415\n      jump\t// in\n    tag_672:\n        /* \"#utility.yul\":20822:20990   */\n      pop\n        /* \"#utility.yul\":21076:21082   */\n      0x0100\n        /* \"#utility.yul\":21069:21074   */\n      dup4\n        /* \"#utility.yul\":21065:21083   */\n      add\n        /* \"#utility.yul\":21059:21084   */\n      mload\n        /* \"#utility.yul\":21097:21156   */\n      tag_673\n        /* \"#utility.yul\":21148:21154   */\n      0x0100\n        /* \"#utility.yul\":21143:21146   */\n      dup7\n        /* \"#utility.yul\":21139:21155   */\n      add\n        /* \"#utility.yul\":21125:21137   */\n      dup3\n        /* \"#utility.yul\":21097:21156   */\n      tag_428\n      jump\t// in\n    tag_673:\n        /* \"#utility.yul\":21000:21166   */\n      pop\n        /* \"#utility.yul\":21258:21264   */\n      0x0120\n        /* \"#utility.yul\":21251:21256   */\n      dup4\n        /* \"#utility.yul\":21247:21265   */\n      add\n        /* \"#utility.yul\":21241:21266   */\n      mload\n        /* \"#utility.yul\":21279:21344   */\n      tag_674\n        /* \"#utility.yul\":21336:21342   */\n      0x0120\n        /* \"#utility.yul\":21331:21334   */\n      dup7\n        /* \"#utility.yul\":21327:21343   */\n      add\n        /* \"#utility.yul\":21313:21325   */\n      dup3\n        /* \"#utility.yul\":21279:21344   */\n      tag_415\n      jump\t// in\n    tag_674:\n        /* \"#utility.yul\":21176:21354   */\n      pop\n        /* \"#utility.yul\":21371:21375   */\n      dup1\n        /* \"#utility.yul\":21364:21375   */\n      swap2\n      pop\n        /* \"#utility.yul\":19308:21381   */\n      pop\n        /* \"#utility.yul\":19196:21381   */\n      swap3\n      swap2\n      pop\n      pop\n      jump\t// out\n        /* \"#utility.yul\":21387:21639   */\n    tag_434:\n        /* \"#utility.yul\":21504:21514   */\n      0x00\n        /* \"#utility.yul\":21539:21633   */\n      tag_676\n        /* \"#utility.yul\":21629:21632   */\n      dup4\n        /* \"#utility.yul\":21621:21627   */\n      dup4\n        /* \"#utility.yul\":21539:21633   */\n      tag_433\n      jump\t// in\n    tag_676:\n        /* \"#utility.yul\":21525:21633   */\n      swap1\n      pop\n        /* \"#utility.yul\":21387:21639   */\n      swap3\n      swap2\n      pop\n      pop\n      jump\t// out\n        /* \"#utility.yul\":21645:21782   */\n    tag_435:\n        /* \"#utility.yul\":21739:21743   */\n      0x00\n        /* \"#utility.yul\":21771:21775   */\n      0x20\n        /* \"#utility.yul\":21766:21769   */\n      dup3\n        /* \"#utility.yul\":21762:21776   */\n      add\n        /* \"#utility.yul\":21754:21776   */\n      swap1\n      pop\n        /* \"#utility.yul\":21645:21782   */\n      swap2\n      swap1\n      pop\n      jump\t// out\n        /* \"#utility.yul\":21852:22955   */\n    tag_436:\n        /* \"#utility.yul\":22019:22022   */\n      0x00\n        /* \"#utility.yul\":22048:22126   */\n      tag_679\n        /* \"#utility.yul\":22120:22125   */\n      dup3\n        /* \"#utility.yul\":22048:22126   */\n      tag_430\n      jump\t// in\n    tag_679:\n        /* \"#utility.yul\":22142:22252   */\n      tag_680\n        /* \"#utility.yul\":22245:22251   */\n      dup2\n        /* \"#utility.yul\":22240:22243   */\n      dup6\n        /* \"#utility.yul\":22142:22252   */\n      tag_431\n      jump\t// in\n    tag_680:\n        /* \"#utility.yul\":22135:22252   */\n      swap4\n      pop\n        /* \"#utility.yul\":22278:22281   */\n      dup4\n        /* \"#utility.yul\":22323:22327   */\n      0x20\n        /* \"#utility.yul\":22315:22321   */\n      dup3\n        /* \"#utility.yul\":22311:22328   */\n      mul\n        /* \"#utility.yul\":22306:22309   */\n      dup6\n        /* \"#utility.yul\":22302:22329   */\n      add\n        /* \"#utility.yul\":22353:22433   */\n      tag_681\n        /* \"#utility.yul\":22427:22432   */\n      dup6\n        /* \"#utility.yul\":22353:22433   */\n      tag_432\n      jump\t// in\n    tag_681:\n        /* \"#utility.yul\":22456:22463   */\n      dup1\n        /* \"#utility.yul\":22487:22488   */\n      0x00\n        /* \"#utility.yul\":22472:22910   */\n    tag_682:\n        /* \"#utility.yul\":22497:22503   */\n      dup6\n        /* \"#utility.yul\":22494:22495   */\n      dup2\n        /* \"#utility.yul\":22491:22504   */\n      lt\n        /* \"#utility.yul\":22472:22910   */\n      iszero\n      tag_684\n      jumpi\n        /* \"#utility.yul\":22568:22577   */\n      dup5\n        /* \"#utility.yul\":22562:22566   */\n      dup5\n        /* \"#utility.yul\":22558:22578   */\n      sub\n        /* \"#utility.yul\":22553:22556   */\n      dup10\n        /* \"#utility.yul\":22546:22579   */\n      mstore\n        /* \"#utility.yul\":22619:22625   */\n      dup2\n        /* \"#utility.yul\":22613:22626   */\n      mload\n        /* \"#utility.yul\":22647:22759   */\n      tag_685\n        /* \"#utility.yul\":22754:22758   */\n      dup6\n        /* \"#utility.yul\":22739:22752   */\n      dup3\n        /* \"#utility.yul\":22647:22759   */\n      tag_434\n      jump\t// in\n    tag_685:\n        /* \"#utility.yul\":22639:22759   */\n      swap5\n      pop\n        /* \"#utility.yul\":22782:22866   */\n      tag_686\n        /* \"#utility.yul\":22859:22865   */\n      dup4\n        /* \"#utility.yul\":22782:22866   */\n      tag_435\n      jump\t// in\n    tag_686:\n        /* \"#utility.yul\":22772:22866   */\n      swap3\n      pop\n        /* \"#utility.yul\":22895:22899   */\n      0x20\n        /* \"#utility.yul\":22890:22893   */\n      dup11\n        /* \"#utility.yul\":22886:22900   */\n      add\n        /* \"#utility.yul\":22879:22900   */\n      swap10\n      pop\n        /* \"#utility.yul\":22532:22910   */\n      pop\n        /* \"#utility.yul\":22519:22520   */\n      0x01\n        /* \"#utility.yul\":22516:22517   */\n      dup2\n        /* \"#utility.yul\":22512:22521   */\n      add\n        /* \"#utility.yul\":22507:22521   */\n      swap1\n      pop\n        /* \"#utility.yul\":22472:22910   */\n      jump(tag_682)\n    tag_684:\n        /* \"#utility.yul\":22476:22490   */\n      pop\n        /* \"#utility.yul\":22926:22930   */\n      dup3\n        /* \"#utility.yul\":22919:22930   */\n      swap8\n      pop\n        /* \"#utility.yul\":22946:22949   */\n      dup8\n        /* \"#utility.yul\":22939:22949   */\n      swap6\n      pop\n        /* \"#utility.yul\":22024:22955   */\n      pop\n      pop\n      pop\n      pop\n      pop\n        /* \"#utility.yul\":21852:22955   */\n      swap3\n      swap2\n      pop\n      pop\n      jump\t// out\n        /* \"#utility.yul\":22961:23430   */\n    tag_127:\n        /* \"#utility.yul\":23152:23156   */\n      0x00\n        /* \"#utility.yul\":23190:23192   */\n      0x20\n        /* \"#utility.yul\":23179:23188   */\n      dup3\n        /* \"#utility.yul\":23175:23193   */\n      add\n        /* \"#utility.yul\":23167:23193   */\n      swap1\n      pop\n        /* \"#utility.yul\":23239:23248   */\n      dup2\n        /* \"#utility.yul\":23233:23237   */\n      dup2\n        /* \"#utility.yul\":23229:23249   */\n      sub\n        /* \"#utility.yul\":23225:23226   */\n      0x00\n        /* \"#utility.yul\":23214:23223   */\n      dup4\n        /* \"#utility.yul\":23210:23227   */\n      add\n        /* \"#utility.yul\":23203:23250   */\n      mstore\n        /* \"#utility.yul\":23267:23423   */\n      tag_688\n        /* \"#utility.yul\":23418:23422   */\n      dup2\n        /* \"#utility.yul\":23409:23415   */\n      dup5\n        /* \"#utility.yul\":23267:23423   */\n      tag_436\n      jump\t// in\n    tag_688:\n        /* \"#utility.yul\":23259:23423   */\n      swap1\n      pop\n        /* \"#utility.yul\":22961:23430   */\n      swap3\n      swap2\n      pop\n      pop\n      jump\t// out\n        /* \"#utility.yul\":23436:23609   */\n    tag_437:\n        /* \"#utility.yul\":23576:23601   */\n      0x5175657374696f6e20646f6573206e6f74206578697374000000000000000000\n        /* \"#utility.yul\":23572:23573   */\n      0x00\n        /* \"#utility.yul\":23564:23570   */\n      dup3\n        /* \"#utility.yul\":23560:23574   */\n      add\n        /* \"#utility.yul\":23553:23602   */\n      mstore\n        /* \"#utility.yul\":23436:23609   */\n      pop\n      jump\t// out\n        /* \"#utility.yul\":23615:23981   */\n    tag_438:\n        /* \"#utility.yul\":23757:23760   */\n      0x00\n        /* \"#utility.yul\":23778:23845   */\n      tag_691\n        /* \"#utility.yul\":23842:23844   */\n      0x17\n        /* \"#utility.yul\":23837:23840   */\n      dup4\n        /* \"#utility.yul\":23778:23845   */\n      tag_408\n      jump\t// in\n    tag_691:\n        /* \"#utility.yul\":23771:23845   */\n      swap2\n      pop\n        /* \"#utility.yul\":23854:23947   */\n      tag_692\n        /* \"#utility.yul\":23943:23946   */\n      dup3\n        /* \"#utility.yul\":23854:23947   */\n      tag_437\n      jump\t// in\n    tag_692:\n        /* \"#utility.yul\":23972:23974   */\n      0x20\n        /* \"#utility.yul\":23967:23970   */\n      dup3\n        /* \"#utility.yul\":23963:23975   */\n      add\n        /* \"#utility.yul\":23956:23975   */\n      swap1\n      pop\n        /* \"#utility.yul\":23615:23981   */\n      swap2\n      swap1\n      pop\n      jump\t// out\n        /* \"#utility.yul\":23987:24406   */\n    tag_131:\n        /* \"#utility.yul\":24153:24157   */\n      0x00\n        /* \"#utility.yul\":24191:24193   */\n      0x20\n        /* \"#utility.yul\":24180:24189   */\n      dup3\n        /* \"#utility.yul\":24176:24194   */\n      add\n        /* \"#utility.yul\":24168:24194   */\n      swap1\n      pop\n        /* \"#utility.yul\":24240:24249   */\n      dup2\n        /* \"#utility.yul\":24234:24238   */\n      dup2\n        /* \"#utility.yul\":24230:24250   */\n      sub\n        /* \"#utility.yul\":24226:24227   */\n      0x00\n        /* \"#utility.yul\":24215:24224   */\n      dup4\n        /* \"#utility.yul\":24211:24228   */\n      add\n        /* \"#utility.yul\":24204:24251   */\n      mstore\n        /* \"#utility.yul\":24268:24399   */\n      tag_694\n        /* \"#utility.yul\":24394:24398   */\n      dup2\n        /* \"#utility.yul\":24268:24399   */\n      tag_438\n      jump\t// in\n    tag_694:\n        /* \"#utility.yul\":24260:24399   */\n      swap1\n      pop\n        /* \"#utility.yul\":23987:24406   */\n      swap2\n      swap1\n      pop\n      jump\t// out\n        /* \"#utility.yul\":24412:24588   */\n    tag_439:\n        /* \"#utility.yul\":24552:24580   */\n      0x5175657374696f6e20697320616c726561647920636c6f736564000000000000\n        /* \"#utility.yul\":24548:24549   */\n      0x00\n        /* \"#utility.yul\":24540:24546   */\n      dup3\n        /* \"#utility.yul\":24536:24550   */\n      add\n        /* \"#utility.yul\":24529:24581   */\n      mstore\n        /* \"#utility.yul\":24412:24588   */\n      pop\n      jump\t// out\n        /* \"#utility.yul\":24594:24960   */\n    tag_440:\n        /* \"#utility.yul\":24736:24739   */\n      0x00\n        /* \"#utility.yul\":24757:24824   */\n      tag_697\n        /* \"#utility.yul\":24821:24823   */\n      0x1a\n        /* \"#utility.yul\":24816:24819   */\n      dup4\n        /* \"#utility.yul\":24757:24824   */\n      tag_408\n      jump\t// in\n    tag_697:\n        /* \"#utility.yul\":24750:24824   */\n      swap2\n      pop\n        /* \"#utility.yul\":24833:24926   */\n      tag_698\n        /* \"#utility.yul\":24922:24925   */\n      dup3\n        /* \"#utility.yul\":24833:24926   */\n      tag_439\n      jump\t// in\n    tag_698:\n        /* \"#utility.yul\":24951:24953   */\n      0x20\n        /* \"#utility.yul\":24946:24949   */\n      dup3\n        /* \"#utility.yul\":24942:24954   */\n      add\n        /* \"#utility.yul\":24935:24954   */\n      swap1\n      pop\n        /* \"#utility.yul\":24594:24960   */\n      swap2\n      swap1\n      pop\n      jump\t// out\n        /* \"#utility.yul\":24966:25385   */\n    tag_135:\n        /* \"#utility.yul\":25132:25136   */\n      0x00\n        /* \"#utility.yul\":25170:25172   */\n      0x20\n        /* \"#utility.yul\":25159:25168   */\n      dup3\n        /* \"#utility.yul\":25155:25173   */\n      add\n        /* \"#utility.yul\":25147:25173   */\n      swap1\n      pop\n        /* \"#utility.yul\":25219:25228   */\n      dup2\n        /* \"#utility.yul\":25213:25217   */\n      dup2\n        /* \"#utility.yul\":25209:25229   */\n      sub\n        /* \"#utility.yul\":25205:25206   */\n      0x00\n        /* \"#utility.yul\":25194:25203   */\n      dup4\n        /* \"#utility.yul\":25190:25207   */\n      add\n        /* \"#utility.yul\":25183:25230   */\n      mstore\n        /* \"#utility.yul\":25247:25378   */\n      tag_700\n        /* \"#utility.yul\":25373:25377   */\n      dup2\n        /* \"#utility.yul\":25247:25378   */\n      tag_440\n      jump\t// in\n    tag_700:\n        /* \"#utility.yul\":25239:25378   */\n      swap1\n      pop\n        /* \"#utility.yul\":24966:25385   */\n      swap2\n      swap1\n      pop\n      jump\t// out\n        /* \"#utility.yul\":25391:25570   */\n    tag_441:\n        /* \"#utility.yul\":25531:25562   */\n      0x4f6e6c792061736b65722063616e20636c6f7365207175657374696f6e000000\n        /* \"#utility.yul\":25527:25528   */\n      0x00\n        /* \"#utility.yul\":25519:25525   */\n      dup3\n        /* \"#utility.yul\":25515:25529   */\n      add\n        /* \"#utility.yul\":25508:25563   */\n      mstore\n        /* \"#utility.yul\":25391:25570   */\n      pop\n      jump\t// out\n        /* \"#utility.yul\":25576:25942   */\n    tag_442:\n        /* \"#utility.yul\":25718:25721   */\n      0x00\n        /* \"#utility.yul\":25739:25806   */\n      tag_703\n        /* \"#utility.yul\":25803:25805   */\n      0x1d\n        /* \"#utility.yul\":25798:25801   */\n      dup4\n        /* \"#utility.yul\":25739:25806   */\n      tag_408\n      jump\t// in\n    tag_703:\n        /* \"#utility.yul\":25732:25806   */\n      swap2\n      pop\n        /* \"#utility.yul\":25815:25908   */\n      tag_704\n        /* \"#utility.yul\":25904:25907   */\n      dup3\n        /* \"#utility.yul\":25815:25908   */\n      tag_441\n      jump\t// in\n    tag_704:\n        /* \"#utility.yul\":25933:25935   */\n      0x20\n        /* \"#utility.yul\":25928:25931   */\n      dup3\n        /* \"#utility.yul\":25924:25936   */\n      add\n        /* \"#utility.yul\":25917:25936   */\n      swap1\n      pop\n        /* \"#utility.yul\":25576:25942   */\n      swap2\n      swap1\n      pop\n      jump\t// out\n        /* \"#utility.yul\":25948:26367   */\n    tag_139:\n        /* \"#utility.yul\":26114:26118   */\n      0x00\n        /* \"#utility.yul\":26152:26154   */\n      0x20\n        /* \"#utility.yul\":26141:26150   */\n      dup3\n        /* \"#utility.yul\":26137:26155   */\n      add\n        /* \"#utility.yul\":26129:26155   */\n      swap1\n      pop\n        /* \"#utility.yul\":26201:26210   */\n      dup2\n        /* \"#utility.yul\":26195:26199   */\n      dup2\n        /* \"#utility.yul\":26191:26211   */\n      sub\n        /* \"#utility.yul\":26187:26188   */\n      0x00\n        /* \"#utility.yul\":26176:26185   */\n      dup4\n        /* \"#utility.yul\":26172:26189   */\n      add\n        /* \"#utility.yul\":26165:26212   */\n      mstore\n        /* \"#utility.yul\":26229:26360   */\n      tag_706\n        /* \"#utility.yul\":26355:26359   */\n      dup2\n        /* \"#utility.yul\":26229:26360   */\n      tag_442\n      jump\t// in\n    tag_706:\n        /* \"#utility.yul\":26221:26360   */\n      swap1\n      pop\n        /* \"#utility.yul\":25948:26367   */\n      swap2\n      swap1\n      pop\n      jump\t// out\n        /* \"#utility.yul\":26373:26705   */\n    tag_141:\n        /* \"#utility.yul\":26494:26498   */\n      0x00\n        /* \"#utility.yul\":26532:26534   */\n      0x40\n        /* \"#utility.yul\":26521:26530   */\n      dup3\n        /* \"#utility.yul\":26517:26535   */\n      add\n        /* \"#utility.yul\":26509:26535   */\n      swap1\n      pop\n        /* \"#utility.yul\":26545:26616   */\n      tag_708\n        /* \"#utility.yul\":26613:26614   */\n      0x00\n        /* \"#utility.yul\":26602:26611   */\n      dup4\n        /* \"#utility.yul\":26598:26615   */\n      add\n        /* \"#utility.yul\":26589:26595   */\n      dup6\n        /* \"#utility.yul\":26545:26616   */\n      tag_403\n      jump\t// in\n    tag_708:\n        /* \"#utility.yul\":26626:26698   */\n      tag_709\n        /* \"#utility.yul\":26694:26696   */\n      0x20\n        /* \"#utility.yul\":26683:26692   */\n      dup4\n        /* \"#utility.yul\":26679:26697   */\n      add\n        /* \"#utility.yul\":26670:26676   */\n      dup5\n        /* \"#utility.yul\":26626:26698   */\n      tag_403\n      jump\t// in\n    tag_709:\n        /* \"#utility.yul\":26373:26705   */\n      swap4\n      swap3\n      pop\n      pop\n      pop\n      jump\t// out\n        /* \"#utility.yul\":26711:26891   */\n    tag_443:\n        /* \"#utility.yul\":26759:26836   */\n      0x4e487b7100000000000000000000000000000000000000000000000000000000\n        /* \"#utility.yul\":26756:26757   */\n      0x00\n        /* \"#utility.yul\":26749:26837   */\n      mstore\n        /* \"#utility.yul\":26856:26860   */\n      0x22\n        /* \"#utility.yul\":26853:26854   */\n      0x04\n        /* \"#utility.yul\":26846:26861   */\n      mstore\n        /* \"#utility.yul\":26880:26884   */\n      0x24\n        /* \"#utility.yul\":26877:26878   */\n      0x00\n        /* \"#utility.yul\":26870:26885   */\n      revert\n        /* \"#utility.yul\":26897:27217   */\n    tag_150:\n        /* \"#utility.yul\":26941:26947   */\n      0x00\n        /* \"#utility.yul\":26978:26979   */\n      0x02\n        /* \"#utility.yul\":26972:26976   */\n      dup3\n        /* \"#utility.yul\":26968:26980   */\n      div\n        /* \"#utility.yul\":26958:26980   */\n      swap1\n      pop\n        /* \"#utility.yul\":27025:27026   */\n      0x01\n        /* \"#utility.yul\":27019:27023   */\n      dup3\n        /* \"#utility.yul\":27015:27027   */\n      and\n        /* \"#utility.yul\":27046:27064   */\n      dup1\n        /* \"#utility.yul\":27036:27117   */\n      tag_712\n      jumpi\n        /* \"#utility.yul\":27102:27106   */\n      0x7f\n        /* \"#utility.yul\":27094:27100   */\n      dup3\n        /* \"#utility.yul\":27090:27107   */\n      and\n        /* \"#utility.yul\":27080:27107   */\n      swap2\n      pop\n        /* \"#utility.yul\":27036:27117   */\n    tag_712:\n        /* \"#utility.yul\":27164:27166   */\n      0x20\n        /* \"#utility.yul\":27156:27162   */\n      dup3\n        /* \"#utility.yul\":27153:27167   */\n      lt\n        /* \"#utility.yul\":27133:27151   */\n      dup2\n        /* \"#utility.yul\":27130:27168   */\n      sub\n        /* \"#utility.yul\":27127:27211   */\n      tag_713\n      jumpi\n        /* \"#utility.yul\":27183:27201   */\n      tag_714\n      tag_443\n      jump\t// in\n    tag_714:\n        /* \"#utility.yul\":27127:27211   */\n    tag_713:\n        /* \"#utility.yul\":26948:27217   */\n      pop\n        /* \"#utility.yul\":26897:27217   */\n      swap2\n      swap1\n      pop\n      jump\t// out\n        /* \"#utility.yul\":27223:27401   */\n    tag_444:\n        /* \"#utility.yul\":27363:27393   */\n      0x5175657374696f6e20646561646c696e65206861732070617373656400000000\n        /* \"#utility.yul\":27359:27360   */\n      0x00\n        /* \"#utility.yul\":27351:27357   */\n      dup3\n        /* \"#utility.yul\":27347:27361   */\n      add\n        /* \"#utility.yul\":27340:27394   */\n      mstore\n        /* \"#utility.yul\":27223:27401   */\n      pop\n      jump\t// out\n        /* \"#utility.yul\":27407:27773   */\n    tag_445:\n        /* \"#utility.yul\":27549:27552   */\n      0x00\n        /* \"#utility.yul\":27570:27637   */\n      tag_717\n        /* \"#utility.yul\":27634:27636   */\n      0x1c\n        /* \"#utility.yul\":27629:27632   */\n      dup4\n        /* \"#utility.yul\":27570:27637   */\n      tag_408\n      jump\t// in\n    tag_717:\n        /* \"#utility.yul\":27563:27637   */\n      swap2\n      pop\n        /* \"#utility.yul\":27646:27739   */\n      tag_718\n        /* \"#utility.yul\":27735:27738   */\n      dup3\n        /* \"#utility.yul\":27646:27739   */\n      tag_444\n      jump\t// in\n    tag_718:\n        /* \"#utility.yul\":27764:27766   */\n      0x20\n        /* \"#utility.yul\":27759:27762   */\n      dup3\n        /* \"#utility.yul\":27755:27767   */\n      add\n        /* \"#utility.yul\":27748:27767   */\n      swap1\n      pop\n        /* \"#utility.yul\":27407:27773   */\n      swap2\n      swap1\n      pop\n      jump\t// out\n        /* \"#utility.yul\":27779:28198   */\n    tag_167:\n        /* \"#utility.yul\":27945:27949   */\n      0x00\n        /* \"#utility.yul\":27983:27985   */\n      0x20\n        /* \"#utility.yul\":27972:27981   */\n      dup3\n        /* \"#utility.yul\":27968:27986   */\n      add\n        /* \"#utility.yul\":27960:27986   */\n      swap1\n      pop\n        /* \"#utility.yul\":28032:28041   */\n      dup2\n        /* \"#utility.yul\":28026:28030   */\n      dup2\n        /* \"#utility.yul\":28022:28042   */\n      sub\n        /* \"#utility.yul\":28018:28019   */\n      0x00\n        /* \"#utility.yul\":28007:28016   */\n      dup4\n        /* \"#utility.yul\":28003:28020   */\n      add\n        /* \"#utility.yul\":27996:28043   */\n      mstore\n        /* \"#utility.yul\":28060:28191   */\n      tag_720\n        /* \"#utility.yul\":28186:28190   */\n      dup2\n        /* \"#utility.yul\":28060:28191   */\n      tag_445\n      jump\t// in\n    tag_720:\n        /* \"#utility.yul\":28052:28191   */\n      swap1\n      pop\n        /* \"#utility.yul\":27779:28198   */\n      swap2\n      swap1\n      pop\n      jump\t// out\n        /* \"#utility.yul\":28204:28384   */\n    tag_446:\n        /* \"#utility.yul\":28252:28329   */\n      0x4e487b7100000000000000000000000000000000000000000000000000000000\n        /* \"#utility.yul\":28249:28250   */\n      0x00\n        /* \"#utility.yul\":28242:28330   */\n      mstore\n        /* \"#utility.yul\":28349:28353   */\n      0x11\n        /* \"#utility.yul\":28346:28347   */\n      0x04\n        /* \"#utility.yul\":28339:28354   */\n      mstore\n        /* \"#utility.yul\":28373:28377   */\n      0x24\n        /* \"#utility.yul\":28370:28371   */\n      0x00\n        /* \"#utility.yul\":28363:28378   */\n      revert\n        /* \"#utility.yul\":28390:28623   */\n    tag_169:\n        /* \"#utility.yul\":28429:28432   */\n      0x00\n        /* \"#utility.yul\":28452:28476   */\n      tag_723\n        /* \"#utility.yul\":28470:28475   */\n      dup3\n        /* \"#utility.yul\":28452:28476   */\n      tag_391\n      jump\t// in\n    tag_723:\n        /* \"#utility.yul\":28443:28476   */\n      swap2\n      pop\n        /* \"#utility.yul\":28498:28564   */\n      0xffffffffffffffffffffffffffffffffffffffffffffffffffffffffffffffff\n        /* \"#utility.yul\":28491:28496   */\n      dup3\n        /* \"#utility.yul\":28488:28565   */\n      sub\n        /* \"#utility.yul\":28485:28588   */\n      tag_724\n      jumpi\n        /* \"#utility.yul\":28568:28586   */\n      tag_725\n      tag_446\n      jump\t// in\n    tag_725:\n        /* \"#utility.yul\":28485:28588   */\n    tag_724:\n        /* \"#utility.yul\":28615:28616   */\n      0x01\n        /* \"#utility.yul\":28608:28613   */\n      dup3\n        /* \"#utility.yul\":28604:28617   */\n      add\n        /* \"#utility.yul\":28597:28617   */\n      swap1\n      pop\n        /* \"#utility.yul\":28390:28623   */\n      swap2\n      swap1\n      pop\n      jump\t// out\n        /* \"#utility.yul\":28629:28770   */\n    tag_447:\n        /* \"#utility.yul\":28678:28682   */\n      0x00\n        /* \"#utility.yul\":28701:28704   */\n      dup2\n        /* \"#utility.yul\":28693:28704   */\n      swap1\n      pop\n        /* \"#utility.yul\":28724:28727   */\n      dup2\n        /* \"#utility.yul\":28721:28722   */\n      0x00\n        /* \"#utility.yul\":28714:28728   */\n      mstore\n        /* \"#utility.yul\":28758:28762   */\n      0x20\n        /* \"#utility.yul\":28755:28756   */\n      0x00\n        /* \"#utility.yul\":28745:28763   */\n      keccak256\n        /* \"#utility.yul\":28737:28763   */\n      swap1\n      pop\n        /* \"#utility.yul\":28629:28770   */\n      swap2\n      swap1\n      pop\n      jump\t// out\n        /* \"#utility.yul\":28776:28869   */\n    tag_448:\n        /* \"#utility.yul\":28813:28819   */\n      0x00\n        /* \"#utility.yul\":28860:28862   */\n      0x20\n        /* \"#utility.yul\":28855:28857   */\n      0x1f\n        /* \"#utility.yul\":28848:28853   */\n      dup4\n        /* \"#utility.yul\":28844:28858   */\n      add\n        /* \"#utility.yul\":28840:28863   */\n      div\n        /* \"#utility.yul\":28830:28863   */\n      swap1\n      pop\n        /* \"#utility.yul\":28776:28869   */\n      swap2\n      swap1\n      pop\n      jump\t// out\n        /* \"#utility.yul\":28875:28982   */\n    tag_449:\n        /* \"#utility.yul\":28919:28927   */\n      0x00\n        /* \"#utility.yul\":28969:28974   */\n      dup3\n        /* \"#utility.yul\":28963:28967   */\n      dup3\n        /* \"#utility.yul\":28959:28975   */\n      shl\n        /* \"#utility.yul\":28938:28975   */\n      swap1\n      pop\n        /* \"#utility.yul\":28875:28982   */\n      swap3\n      swap2\n      pop\n      pop\n      jump\t// out\n        /* \"#utility.yul\":28988:29381   */\n    tag_450:\n        /* \"#utility.yul\":29057:29063   */\n      0x00\n        /* \"#utility.yul\":29107:29108   */\n      0x08\n        /* \"#utility.yul\":29095:29105   */\n      dup4\n        /* \"#utility.yul\":29091:29109   */\n      mul\n        /* \"#utility.yul\":29130:29227   */\n      tag_730\n        /* \"#utility.yul\":29160:29226   */\n      0xffffffffffffffffffffffffffffffffffffffffffffffffffffffffffffffff\n        /* \"#utility.yul\":29149:29158   */\n      dup3\n        /* \"#utility.yul\":29130:29227   */\n      tag_449\n      jump\t// in\n    tag_730:\n        /* \"#utility.yul\":29248:29287   */\n      tag_731\n        /* \"#utility.yul\":29278:29286   */\n      dup7\n        /* \"#utility.yul\":29267:29276   */\n      dup4\n        /* \"#utility.yul\":29248:29287   */\n      tag_449\n      jump\t// in\n    tag_731:\n        /* \"#utility.yul\":29236:29287   */\n      swap6\n      pop\n        /* \"#utility.yul\":29320:29324   */\n      dup1\n        /* \"#utility.yul\":29316:29325   */\n      not\n        /* \"#utility.yul\":29309:29314   */\n      dup5\n        /* \"#utility.yul\":29305:29326   */\n      and\n        /* \"#utility.yul\":29296:29326   */\n      swap4\n      pop\n        /* \"#utility.yul\":29369:29373   */\n      dup1\n        /* \"#utility.yul\":29359:29367   */\n      dup7\n        /* \"#utility.yul\":29355:29374   */\n      and\n        /* \"#utility.yul\":29348:29353   */\n      dup5\n        /* \"#utility.yul\":29345:29375   */\n      or\n        /* \"#utility.yul\":29335:29375   */\n      swap3\n      pop\n        /* \"#utility.yul\":29064:29381   */\n      pop\n      pop\n        /* \"#utility.yul\":28988:29381   */\n      swap4\n      swap3\n      pop\n      pop\n      pop\n      jump\t// out\n        /* \"#utility.yul\":29387:29447   */\n    tag_451:\n        /* \"#utility.yul\":29415:29418   */\n      0x00\n        /* \"#utility.yul\":29436:29441   */\n      dup2\n        /* \"#utility.yul\":29429:29441   */\n      swap1\n      pop\n        /* \"#utility.yul\":29387:29447   */\n      swap2\n      swap1\n      pop\n      jump\t// out\n        /* \"#utility.yul\":29453:29595   */\n    tag_452:\n        /* \"#utility.yul\":29503:29512   */\n      0x00\n        /* \"#utility.yul\":29536:29589   */\n      tag_734\n        /* \"#utility.yul\":29554:29588   */\n      tag_735\n        /* \"#utility.yul\":29563:29587   */\n      tag_736\n        /* \"#utility.yul\":29581:29586   */\n      dup5\n        /* \"#utility.yul\":29563:29587   */\n      tag_391\n      jump\t// in\n    tag_736:\n        /* \"#utility.yul\":29554:29588   */\n      tag_451\n      jump\t// in\n    tag_735:\n        /* \"#utility.yul\":29536:29589   */\n      tag_391\n      jump\t// in\n    tag_734:\n        /* \"#utility.yul\":29523:29589   */\n      swap1\n      pop\n        /* \"#utility.yul\":29453:29595   */\n      swap2\n      swap1\n      pop\n      jump\t// out\n        /* \"#utility.yul\":29601:29676   */\n    tag_453:\n        /* \"#utility.yul\":29644:29647   */\n      0x00\n        /* \"#utility.yul\":29665:29670   */\n      dup2\n        /* \"#utility.yul\":29658:29670   */\n      swap1\n      pop\n        /* \"#utility.yul\":29601:29676   */\n      swap2\n      swap1\n      pop\n      jump\t// out\n        /* \"#utility.yul\":29682:29951   */\n    tag_454:\n        /* \"#utility.yul\":29792:29831   */\n      tag_739\n        /* \"#utility.yul\":29823:29830   */\n      dup4\n        /* \"#utility.yul\":29792:29831   */\n      tag_452\n      jump\t// in\n    tag_739:\n        /* \"#utility.yul\":29853:29944   */\n      tag_740\n        /* \"#utility.yul\":29902:29943   */\n      tag_741\n        /* \"#utility.yul\":29926:29942   */\n      dup3\n        /* \"#utility.yul\":29902:29943   */\n      tag_453\n      jump\t// in\n    tag_741:\n        /* \"#utility.yul\":29894:29900   */\n      dup5\n        /* \"#utility.yul\":29887:29891   */\n      dup5\n        /* \"#utility.yul\":29881:29892   */\n      sload\n        /* \"#utility.yul\":29853:29944   */\n      tag_450\n      jump\t// in\n    tag_740:\n        /* \"#utility.yul\":29847:29851   */\n      dup3\n        /* \"#utility.yul\":29840:29945   */\n      sstore\n        /* \"#utility.yul\":29758:29951   */\n      pop\n        /* \"#utility.yul\":29682:29951   */\n      pop\n      pop\n      pop\n      jump\t// out\n        /* \"#utility.yul\":29957:30030   */\n    tag_455:\n        /* \"#utility.yul\":30002:30005   */\n      0x00\n        /* \"#utility.yul\":29957:30030   */\n      swap1\n      jump\t// out\n        /* \"#utility.yul\":30036:30225   */\n    tag_456:\n        /* \"#utility.yul\":30113:30145   */\n      tag_744\n      tag_455\n      jump\t// in\n    tag_744:\n        /* \"#utility.yul\":30154:30219   */\n      tag_745\n        /* \"#utility.yul\":30212:30218   */\n      dup2\n        /* \"#utility.yul\":30204:30210   */\n      dup5\n        /* \"#utility.yul\":30198:30202   */\n      dup5\n        /* \"#utility.yul\":30154:30219   */\n      tag_454\n      jump\t// in\n    tag_745:\n        /* \"#utility.yul\":30089:30225   */\n      pop\n        /* \"#utility.yul\":30036:30225   */\n      pop\n      pop\n      jump\t// out\n        /* \"#utility.yul\":30231:30417   */\n    tag_457:\n        /* \"#utility.yul\":30291:30411   */\n    tag_747:\n        /* \"#utility.yul\":30308:30311   */\n      dup2\n        /* \"#utility.yul\":30301:30306   */\n      dup2\n        /* \"#utility.yul\":30298:30312   */\n      lt\n        /* \"#utility.yul\":30291:30411   */\n      iszero\n      tag_749\n      jumpi\n        /* \"#utility.yul\":30362:30401   */\n      tag_750\n        /* \"#utility.yul\":30399:30400   */\n      0x00\n        /* \"#utility.yul\":30392:30397   */\n      dup3\n        /* \"#utility.yul\":30362:30401   */\n      tag_456\n      jump\t// in\n    tag_750:\n        /* \"#utility.yul\":30335:30336   */\n      0x01\n        /* \"#utility.yul\":30328:30333   */\n      dup2\n        /* \"#utility.yul\":30324:30337   */\n      add\n        /* \"#utility.yul\":30315:30337   */\n      swap1\n      pop\n        /* \"#utility.yul\":30291:30411   */\n      jump(tag_747)\n    tag_749:\n        /* \"#utility.yul\":30231:30417   */\n      pop\n      pop\n      jump\t// out\n        /* \"#utility.yul\":30423:30966   */\n    tag_458:\n        /* \"#utility.yul\":30524:30526   */\n      0x1f\n        /* \"#utility.yul\":30519:30522   */\n      dup3\n        /* \"#utility.yul\":30516:30527   */\n      gt\n        /* \"#utility.yul\":30513:30959   */\n      iszero\n      tag_752\n      jumpi\n        /* \"#utility.yul\":30558:30596   */\n      tag_753\n        /* \"#utility.yul\":30590:30595   */\n      dup2\n        /* \"#utility.yul\":30558:30596   */\n      tag_447\n      jump\t// in\n    tag_753:\n        /* \"#utility.yul\":30642:30671   */\n      tag_754\n        /* \"#utility.yul\":30660:30670   */\n      dup5\n        /* \"#utility.yul\":30642:30671   */\n      tag_448\n      jump\t// in\n    tag_754:\n        /* \"#utility.yul\":30632:30640   */\n      dup2\n        /* \"#utility.yul\":30628:30672   */\n      add\n        /* \"#utility.yul\":30825:30827   */\n      0x20\n        /* \"#utility.yul\":30813:30823   */\n      dup6\n        /* \"#utility.yul\":30810:30828   */\n      lt\n        /* \"#utility.yul\":30807:30856   */\n      iszero\n      tag_755\n      jumpi\n        /* \"#utility.yul\":30846:30854   */\n      dup2\n        /* \"#utility.yul\":30831:30854   */\n      swap1\n      pop\n        /* \"#utility.yul\":30807:30856   */\n    tag_755:\n        /* \"#utility.yul\":30869:30949   */\n      tag_756\n        /* \"#utility.yul\":30925:30947   */\n      tag_757\n        /* \"#utility.yul\":30943:30946   */\n      dup6\n        /* \"#utility.yul\":30925:30947   */\n      tag_448\n      jump\t// in\n    tag_757:\n        /* \"#utility.yul\":30915:30923   */\n      dup4\n        /* \"#utility.yul\":30911:30948   */\n      add\n        /* \"#utility.yul\":30898:30909   */\n      dup3\n        /* \"#utility.yul\":30869:30949   */\n      tag_457\n      jump\t// in\n    tag_756:\n        /* \"#utility.yul\":30528:30959   */\n      pop\n      pop\n        /* \"#utility.yul\":30513:30959   */\n    tag_752:\n        /* \"#utility.yul\":30423:30966   */\n      pop\n      pop\n      pop\n      jump\t// out\n        /* \"#utility.yul\":30972:31089   */\n    tag_459:\n        /* \"#utility.yul\":31026:31034   */\n      0x00\n        /* \"#utility.yul\":31076:31081   */\n      dup3\n        /* \"#utility.yul\":31070:31074   */\n      dup3\n        /* \"#utility.yul\":31066:31082   */\n      shr\n        /* \"#utility.yul\":31045:31082   */\n      swap1\n      pop\n        /* \"#utility.yul\":30972:31089   */\n      swap3\n      swap2\n      pop\n      pop\n      jump\t// out\n        /* \"#utility.yul\":31095:31264   */\n    tag_460:\n        /* \"#utility.yul\":31139:31145   */\n      0x00\n        /* \"#utility.yul\":31172:31223   */\n      tag_760\n        /* \"#utility.yul\":31220:31221   */\n      0x00\n        /* \"#utility.yul\":31216:31222   */\n      not\n        /* \"#utility.yul\":31208:31213   */\n      dup5\n        /* \"#utility.yul\":31205:31206   */\n      0x08\n        /* \"#utility.yul\":31201:31214   */\n      mul\n        /* \"#utility.yul\":31172:31223   */\n      tag_459\n      jump\t// in\n    tag_760:\n        /* \"#utility.yul\":31168:31224   */\n      not\n        /* \"#utility.yul\":31253:31257   */\n      dup1\n        /* \"#utility.yul\":31247:31251   */\n      dup4\n        /* \"#utility.yul\":31243:31258   */\n      and\n        /* \"#utility.yul\":31233:31258   */\n      swap2\n      pop\n        /* \"#utility.yul\":31146:31264   */\n      pop\n        /* \"#utility.yul\":31095:31264   */\n      swap3\n      swap2\n      pop\n      pop\n      jump\t// out\n        /* \"#utility.yul\":31269:31564   */\n    tag_461:\n        /* \"#utility.yul\":31345:31349   */\n      0x00\n        /* \"#utility.yul\":31491:31520   */\n      tag_762\n        /* \"#utility.yul\":31516:31519   */\n      dup4\n        /* \"#utility.yul\":31510:31514   */\n      dup4\n        /* \"#utility.yul\":31491:31520   */\n      tag_460\n      jump\t// in\n    tag_762:\n        /* \"#utility.yul\":31483:31520   */\n      swap2\n      pop\n        /* \"#utility.yul\":31553:31556   */\n      dup3\n        /* \"#utility.yul\":31550:31551   */\n      0x02\n        /* \"#utility.yul\":31546:31557   */\n      mul\n        /* \"#utility.yul\":31540:31544   */\n      dup3\n        /* \"#utility.yul\":31537:31558   */\n      or\n        /* \"#utility.yul\":31529:31558   */\n      swap1\n      pop\n        /* \"#utility.yul\":31269:31564   */\n      swap3\n      swap2\n      pop\n      pop\n      jump\t// out\n        /* \"#utility.yul\":31569:32964   */\n    tag_171:\n        /* \"#utility.yul\":31686:31723   */\n      tag_764\n        /* \"#utility.yul\":31719:31722   */\n      dup3\n        /* \"#utility.yul\":31686:31723   */\n      tag_407\n      jump\t// in\n    tag_764:\n        /* \"#utility.yul\":31788:31806   */\n      0xffffffffffffffff\n        /* \"#utility.yul\":31780:31786   */\n      dup2\n        /* \"#utility.yul\":31777:31807   */\n      gt\n        /* \"#utility.yul\":31774:31830   */\n      iszero\n      tag_765\n      jumpi\n        /* \"#utility.yul\":31810:31828   */\n      tag_766\n      tag_246\n      jump\t// in\n    tag_766:\n        /* \"#utility.yul\":31774:31830   */\n    tag_765:\n        /* \"#utility.yul\":31854:31892   */\n      tag_767\n        /* \"#utility.yul\":31886:31890   */\n      dup3\n        /* \"#utility.yul\":31880:31891   */\n      sload\n        /* \"#utility.yul\":31854:31892   */\n      tag_150\n      jump\t// in\n    tag_767:\n        /* \"#utility.yul\":31939:32006   */\n      tag_768\n        /* \"#utility.yul\":31999:32005   */\n      dup3\n        /* \"#utility.yul\":31991:31997   */\n      dup3\n        /* \"#utility.yul\":31985:31989   */\n      dup6\n        /* \"#utility.yul\":31939:32006   */\n      tag_458\n      jump\t// in\n    tag_768:\n        /* \"#utility.yul\":32033:32034   */\n      0x00\n        /* \"#utility.yul\":32057:32061   */\n      0x20\n        /* \"#utility.yul\":32044:32061   */\n      swap1\n      pop\n        /* \"#utility.yul\":32089:32091   */\n      0x1f\n        /* \"#utility.yul\":32081:32087   */\n      dup4\n        /* \"#utility.yul\":32078:32092   */\n      gt\n        /* \"#utility.yul\":32106:32107   */\n      0x01\n        /* \"#utility.yul\":32101:32719   */\n      dup2\n      eq\n      tag_770\n      jumpi\n        /* \"#utility.yul\":32763:32764   */\n      0x00\n        /* \"#utility.yul\":32780:32786   */\n      dup5\n        /* \"#utility.yul\":32777:32854   */\n      iszero\n      tag_771\n      jumpi\n        /* \"#utility.yul\":32829:32838   */\n      dup3\n        /* \"#utility.yul\":32824:32827   */\n      dup8\n        /* \"#utility.yul\":32820:32839   */\n      add\n        /* \"#utility.yul\":32814:32840   */\n      mload\n        /* \"#utility.yul\":32805:32840   */\n      swap1\n      pop\n        /* \"#utility.yul\":32777:32854   */\n    tag_771:\n        /* \"#utility.yul\":32880:32947   */\n      tag_772\n        /* \"#utility.yul\":32940:32946   */\n      dup6\n        /* \"#utility.yul\":32933:32938   */\n      dup3\n        /* \"#utility.yul\":32880:32947   */\n      tag_461\n      jump\t// in\n    tag_772:\n        /* \"#utility.yul\":32874:32878   */\n      dup7\n        /* \"#utility.yul\":32867:32948   */\n      sstore\n        /* \"#utility.yul\":32736:32958   */\n      pop\n        /* \"#utility.yul\":32071:32958   */\n      jump(tag_769)\n        /* \"#utility.yul\":32101:32719   */\n    tag_770:\n        /* \"#utility.yul\":32153:32157   */\n      0x1f\n        /* \"#utility.yul\":32149:32158   */\n      not\n        /* \"#utility.yul\":32141:32147   */\n      dup5\n        /* \"#utility.yul\":32137:32159   */\n      and\n        /* \"#utility.yul\":32187:32224   */\n      tag_773\n        /* \"#utility.yul\":32219:32223   */\n      dup7\n        /* \"#utility.yul\":32187:32224   */\n      tag_447\n      jump\t// in\n    tag_773:\n        /* \"#utility.yul\":32246:32247   */\n      0x00\n        /* \"#utility.yul\":32260:32468   */\n    tag_774:\n        /* \"#utility.yul\":32274:32281   */\n      dup3\n        /* \"#utility.yul\":32271:32272   */\n      dup2\n        /* \"#utility.yul\":32268:32282   */\n      lt\n        /* \"#utility.yul\":32260:32468   */\n      iszero\n      tag_776\n      jumpi\n        /* \"#utility.yul\":32353:32362   */\n      dup5\n        /* \"#utility.yul\":32348:32351   */\n      dup10\n        /* \"#utility.yul\":32344:32363   */\n      add\n        /* \"#utility.yul\":32338:32364   */\n      mload\n        /* \"#utility.yul\":32330:32336   */\n      dup3\n        /* \"#utility.yul\":32323:32365   */\n      sstore\n        /* \"#utility.yul\":32404:32405   */\n      0x01\n        /* \"#utility.yul\":32396:32402   */\n      dup3\n        /* \"#utility.yul\":32392:32406   */\n      add\n        /* \"#utility.yul\":32382:32406   */\n      swap2\n      pop\n        /* \"#utility.yul\":32451:32453   */\n      0x20\n        /* \"#utility.yul\":32440:32449   */\n      dup6\n        /* \"#utility.yul\":32436:32454   */\n      add\n        /* \"#utility.yul\":32423:32454   */\n      swap5\n      pop\n        /* \"#utility.yul\":32297:32301   */\n      0x20\n        /* \"#utility.yul\":32294:32295   */\n      dup2\n        /* \"#utility.yul\":32290:32302   */\n      add\n        /* \"#utility.yul\":32285:32302   */\n      swap1\n      pop\n        /* \"#utility.yul\":32260:32468   */\n      jump(tag_774)\n    tag_776:\n        /* \"#utility.yul\":32496:32502   */\n      dup7\n        /* \"#utility.yul\":32487:32494   */\n      dup4\n        /* \"#utility.yul\":32484:32503   */\n      lt\n        /* \"#utility.yul\":32481:32660   */\n      iszero\n      tag_777\n      jumpi\n        /* \"#utility.yul\":32554:32563   */\n      dup5\n        /* \"#utility.yul\":32549:32552   */\n      dup10\n        /* \"#utility.yul\":32545:32564   */\n      add\n        /* \"#utility.yul\":32539:32565   */\n      mload\n        /* \"#utility.yul\":32597:32645   */\n      tag_778\n        /* \"#utility.yul\":32639:32643   */\n      0x1f\n        /* \"#utility.yul\":32631:32637   */\n      dup10\n        /* \"#utility.yul\":32627:32644   */\n      and\n        /* \"#utility.yul\":32616:32625   */\n      dup3\n        /* \"#utility.yul\":32597:32645   */\n      tag_460\n      jump\t// in\n    tag_778:\n        /* \"#utility.yul\":32589:32595   */\n      dup4\n        /* \"#utility.yul\":32582:32646   */\n      sstore\n        /* \"#utility.yul\":32504:32660   */\n      pop\n        /* \"#utility.yul\":32481:32660   */\n    tag_777:\n        /* \"#utility.yul\":32706:32707   */\n      0x01\n        /* \"#utility.yul\":32702:32703   */\n      0x02\n        /* \"#utility.yul\":32694:32700   */\n      dup9\n        /* \"#utility.yul\":32690:32704   */\n      mul\n        /* \"#utility.yul\":32686:32708   */\n      add\n        /* \"#utility.yul\":32680:32684   */\n      dup9\n        /* \"#utility.yul\":32673:32709   */\n      sstore\n        /* \"#utility.yul\":32108:32719   */\n      pop\n      pop\n      pop\n        /* \"#utility.yul\":32071:32958   */\n    tag_769:\n      pop\n        /* \"#utility.yul\":31661:32964   */\n      pop\n      pop\n      pop\n        /* \"#utility.yul\":31569:32964   */\n      pop\n      pop\n      jump\t// out\n        /* \"#utility.yul\":32970:33503   */\n    tag_173:\n        /* \"#utility.yul\":33139:33143   */\n      0x00\n        /* \"#utility.yul\":33177:33179   */\n      0x60\n        /* \"#utility.yul\":33166:33175   */\n      dup3\n        /* \"#utility.yul\":33162:33180   */\n      add\n        /* \"#utility.yul\":33154:33180   */\n      swap1\n      pop\n        /* \"#utility.yul\":33190:33261   */\n      tag_780\n        /* \"#utility.yul\":33258:33259   */\n      0x00\n        /* \"#utility.yul\":33247:33256   */\n      dup4\n        /* \"#utility.yul\":33243:33260   */\n      add\n        /* \"#utility.yul\":33234:33240   */\n      dup7\n        /* \"#utility.yul\":33190:33261   */\n      tag_403\n      jump\t// in\n    tag_780:\n        /* \"#utility.yul\":33271:33343   */\n      tag_781\n        /* \"#utility.yul\":33339:33341   */\n      0x20\n        /* \"#utility.yul\":33328:33337   */\n      dup4\n        /* \"#utility.yul\":33324:33342   */\n      add\n        /* \"#utility.yul\":33315:33321   */\n      dup6\n        /* \"#utility.yul\":33271:33343   */\n      tag_403\n      jump\t// in\n    tag_781:\n        /* \"#utility.yul\":33390:33399   */\n      dup2\n        /* \"#utility.yul\":33384:33388   */\n      dup2\n        /* \"#utility.yul\":33380:33400   */\n      sub\n        /* \"#utility.yul\":33375:33377   */\n      0x40\n        /* \"#utility.yul\":33364:33373   */\n      dup4\n        /* \"#utility.yul\":33360:33378   */\n      add\n        /* \"#utility.yul\":33353:33401   */\n      mstore\n        /* \"#utility.yul\":33418:33496   */\n      tag_782\n        /* \"#utility.yul\":33491:33495   */\n      dup2\n        /* \"#utility.yul\":33482:33488   */\n      dup5\n        /* \"#utility.yul\":33418:33496   */\n      tag_410\n      jump\t// in\n    tag_782:\n        /* \"#utility.yul\":33410:33496   */\n      swap1\n      pop\n        /* \"#utility.yul\":32970:33503   */\n      swap5\n      swap4\n      pop\n      pop\n      pop\n      pop\n      jump\t// out\n        /* \"#utility.yul\":33509:33682   */\n    tag_462:\n        /* \"#utility.yul\":33649:33674   */\n      0x566f74696e6720706572696f642068617320656e646564000000000000000000\n        /* \"#utility.yul\":33645:33646   */\n      0x00\n        /* \"#utility.yul\":33637:33643   */\n      dup3\n        /* \"#utility.yul\":33633:33647   */\n      add\n        /* \"#utility.yul\":33626:33675   */\n      mstore\n        /* \"#utility.yul\":33509:33682   */\n      pop\n      jump\t// out\n        /* \"#utility.yul\":33688:34054   */\n    tag_463:\n        /* \"#utility.yul\":33830:33833   */\n      0x00\n        /* \"#utility.yul\":33851:33918   */\n      tag_785\n        /* \"#utility.yul\":33915:33917   */\n      0x17\n        /* \"#utility.yul\":33910:33913   */\n      dup4\n        /* \"#utility.yul\":33851:33918   */\n      tag_408\n      jump\t// in\n    tag_785:\n        /* \"#utility.yul\":33844:33918   */\n      swap2\n      pop\n        /* \"#utility.yul\":33927:34020   */\n      tag_786\n        /* \"#utility.yul\":34016:34019   */\n      dup3\n        /* \"#utility.yul\":33927:34020   */\n      tag_462\n      jump\t// in\n    tag_786:\n        /* \"#utility.yul\":34045:34047   */\n      0x20\n        /* \"#utility.yul\":34040:34043   */\n      dup3\n        /* \"#utility.yul\":34036:34048   */\n      add\n        /* \"#utility.yul\":34029:34048   */\n      swap1\n      pop\n        /* \"#utility.yul\":33688:34054   */\n      swap2\n      swap1\n      pop\n      jump\t// out\n        /* \"#utility.yul\":34060:34479   */\n    tag_203:\n        /* \"#utility.yul\":34226:34230   */\n      0x00\n        /* \"#utility.yul\":34264:34266   */\n      0x20\n        /* \"#utility.yul\":34253:34262   */\n      dup3\n        /* \"#utility.yul\":34249:34267   */\n      add\n        /* \"#utility.yul\":34241:34267   */\n      swap1\n      pop\n        /* \"#utility.yul\":34313:34322   */\n      dup2\n        /* \"#utility.yul\":34307:34311   */\n      dup2\n        /* \"#utility.yul\":34303:34323   */\n      sub\n        /* \"#utility.yul\":34299:34300   */\n      0x00\n        /* \"#utility.yul\":34288:34297   */\n      dup4\n        /* \"#utility.yul\":34284:34301   */\n      add\n        /* \"#utility.yul\":34277:34324   */\n      mstore\n        /* \"#utility.yul\":34341:34472   */\n      tag_788\n        /* \"#utility.yul\":34467:34471   */\n      dup2\n        /* \"#utility.yul\":34341:34472   */\n      tag_463\n      jump\t// in\n    tag_788:\n        /* \"#utility.yul\":34333:34472   */\n      swap1\n      pop\n        /* \"#utility.yul\":34060:34479   */\n      swap2\n      swap1\n      pop\n      jump\t// out\n        /* \"#utility.yul\":34485:34653   */\n    tag_464:\n        /* \"#utility.yul\":34625:34645   */\n      0x496e636f727265637420766f7465206665650000000000000000000000000000\n        /* \"#utility.yul\":34621:34622   */\n      0x00\n        /* \"#utility.yul\":34613:34619   */\n      dup3\n        /* \"#utility.yul\":34609:34623   */\n      add\n        /* \"#utility.yul\":34602:34646   */\n      mstore\n        /* \"#utility.yul\":34485:34653   */\n      pop\n      jump\t// out\n        /* \"#utility.yul\":34659:35025   */\n    tag_465:\n        /* \"#utility.yul\":34801:34804   */\n      0x00\n        /* \"#utility.yul\":34822:34889   */\n      tag_791\n        /* \"#utility.yul\":34886:34888   */\n      0x12\n        /* \"#utility.yul\":34881:34884   */\n      dup4\n        /* \"#utility.yul\":34822:34889   */\n      tag_408\n      jump\t// in\n    tag_791:\n        /* \"#utility.yul\":34815:34889   */\n      swap2\n      pop\n        /* \"#utility.yul\":34898:34991   */\n      tag_792\n        /* \"#utility.yul\":34987:34990   */\n      dup3\n        /* \"#utility.yul\":34898:34991   */\n      tag_464\n      jump\t// in\n    tag_792:\n        /* \"#utility.yul\":35016:35018   */\n      0x20\n        /* \"#utility.yul\":35011:35014   */\n      dup3\n        /* \"#utility.yul\":35007:35019   */\n      add\n        /* \"#utility.yul\":35000:35019   */\n      swap1\n      pop\n        /* \"#utility.yul\":34659:35025   */\n      swap2\n      swap1\n      pop\n      jump\t// out\n        /* \"#utility.yul\":35031:35450   */\n    tag_206:\n        /* \"#utility.yul\":35197:35201   */\n      0x00\n        /* \"#utility.yul\":35235:35237   */\n      0x20\n        /* \"#utility.yul\":35224:35233   */\n      dup3\n        /* \"#utility.yul\":35220:35238   */\n      add\n        /* \"#utility.yul\":35212:35238   */\n      swap1\n      pop\n        /* \"#utility.yul\":35284:35293   */\n      dup2\n        /* \"#utility.yul\":35278:35282   */\n      dup2\n        /* \"#utility.yul\":35274:35294   */\n      sub\n        /* \"#utility.yul\":35270:35271   */\n      0x00\n        /* \"#utility.yul\":35259:35268   */\n      dup4\n        /* \"#utility.yul\":35255:35272   */\n      add\n        /* \"#utility.yul\":35248:35295   */\n      mstore\n        /* \"#utility.yul\":35312:35443   */\n      tag_794\n        /* \"#utility.yul\":35438:35442   */\n      dup2\n        /* \"#utility.yul\":35312:35443   */\n      tag_465\n      jump\t// in\n    tag_794:\n        /* \"#utility.yul\":35304:35443   */\n      swap1\n      pop\n        /* \"#utility.yul\":35031:35450   */\n      swap2\n      swap1\n      pop\n      jump\t// out\n        /* \"#utility.yul\":35456:35647   */\n    tag_208:\n        /* \"#utility.yul\":35496:35499   */\n      0x00\n        /* \"#utility.yul\":35515:35535   */\n      tag_796\n        /* \"#utility.yul\":35533:35534   */\n      dup3\n        /* \"#utility.yul\":35515:35535   */\n      tag_391\n      jump\t// in\n    tag_796:\n        /* \"#utility.yul\":35510:35535   */\n      swap2\n      pop\n        /* \"#utility.yul\":35549:35569   */\n      tag_797\n        /* \"#utility.yul\":35567:35568   */\n      dup4\n        /* \"#utility.yul\":35549:35569   */\n      tag_391\n      jump\t// in\n    tag_797:\n        /* \"#utility.yul\":35544:35569   */\n      swap3\n      pop\n        /* \"#utility.yul\":35592:35593   */\n      dup3\n        /* \"#utility.yul\":35589:35590   */\n      dup3\n        /* \"#utility.yul\":35585:35594   */\n      add\n        /* \"#utility.yul\":35578:35594   */\n      swap1\n      pop\n        /* \"#utility.yul\":35613:35616   */\n      dup1\n        /* \"#utility.yul\":35610:35611   */\n      dup3\n        /* \"#utility.yul\":35607:35617   */\n      gt\n        /* \"#utility.yul\":35604:35640   */\n      iszero\n      tag_798\n      jumpi\n        /* \"#utility.yul\":35620:35638   */\n      tag_799\n      tag_446\n      jump\t// in\n    tag_799:\n        /* \"#utility.yul\":35604:35640   */\n    tag_798:\n        /* \"#utility.yul\":35456:35647   */\n      swap3\n      swap2\n      pop\n      pop\n      jump\t// out\n        /* \"#utility.yul\":35653:35823   */\n    tag_466:\n        /* \"#utility.yul\":35793:35815   */\n      0x4e6f2066756e647320746f207769746864726177000000000000000000000000\n        /* \"#utility.yul\":35789:35790   */\n      0x00\n        /* \"#utility.yul\":35781:35787   */\n      dup3\n        /* \"#utility.yul\":35777:35791   */\n      add\n        /* \"#utility.yul\":35770:35816   */\n      mstore\n        /* \"#utility.yul\":35653:35823   */\n      pop\n      jump\t// out\n        /* \"#utility.yul\":35829:36195   */\n    tag_467:\n        /* \"#utility.yul\":35971:35974   */\n      0x00\n        /* \"#utility.yul\":35992:36059   */\n      tag_802\n        /* \"#utility.yul\":36056:36058   */\n      0x14\n        /* \"#utility.yul\":36051:36054   */\n      dup4\n        /* \"#utility.yul\":35992:36059   */\n      tag_408\n      jump\t// in\n    tag_802:\n        /* \"#utility.yul\":35985:36059   */\n      swap2\n      pop\n        /* \"#utility.yul\":36068:36161   */\n      tag_803\n        /* \"#utility.yul\":36157:36160   */\n      dup3\n        /* \"#utility.yul\":36068:36161   */\n      tag_466\n      jump\t// in\n    tag_803:\n        /* \"#utility.yul\":36186:36188   */\n      0x20\n        /* \"#utility.yul\":36181:36184   */\n      dup3\n        /* \"#utility.yul\":36177:36189   */\n      add\n        /* \"#utility.yul\":36170:36189   */\n      swap1\n      pop\n        /* \"#utility.yul\":35829:36195   */\n      swap2\n      swap1\n      pop\n      jump\t// out\n        /* \"#utility.yul\":36201:36620   */\n    tag_229:\n        /* \"#utility.yul\":36367:36371   */\n      0x00\n        /* \"#utility.yul\":36405:36407   */\n      0x20\n        /* \"#utility.yul\":36394:36403   */\n      dup3\n        /* \"#utility.yul\":36390:36408   */\n      add\n        /* \"#utility.yul\":36382:36408   */\n      swap1\n      pop\n        /* \"#utility.yul\":36454:36463   */\n      dup2\n        /* \"#utility.yul\":36448:36452   */\n      dup2\n        /* \"#utility.yul\":36444:36464   */\n      sub\n        /* \"#utility.yul\":36440:36441   */\n      0x00\n        /* \"#utility.yul\":36429:36438   */\n      dup4\n        /* \"#utility.yul\":36425:36442   */\n      add\n        /* \"#utility.yul\":36418:36465   */\n      mstore\n        /* \"#utility.yul\":36482:36613   */\n      tag_805\n        /* \"#utility.yul\":36608:36612   */\n      dup2\n        /* \"#utility.yul\":36482:36613   */\n      tag_467\n      jump\t// in\n    tag_805:\n        /* \"#utility.yul\":36474:36613   */\n      swap1\n      pop\n        /* \"#utility.yul\":36201:36620   */\n      swap2\n      swap1\n      pop\n      jump\t// out\n        /* \"#utility.yul\":36626:36797   */\n    tag_468:\n        /* \"#utility.yul\":36766:36789   */\n      0x416e7377657220646f6573206e6f742065786973740000000000000000000000\n        /* \"#utility.yul\":36762:36763   */\n      0x00\n        /* \"#utility.yul\":36754:36760   */\n      dup3\n        /* \"#utility.yul\":36750:36764   */\n      add\n        /* \"#utility.yul\":36743:36790   */\n      mstore\n        /* \"#utility.yul\":36626:36797   */\n      pop\n      jump\t// out\n        /* \"#utility.yul\":36803:37169   */\n    tag_469:\n        /* \"#utility.yul\":36945:36948   */\n      0x00\n        /* \"#utility.yul\":36966:37033   */\n      tag_808\n        /* \"#utility.yul\":37030:37032   */\n      0x15\n        /* \"#utility.yul\":37025:37028   */\n      dup4\n        /* \"#utility.yul\":36966:37033   */\n      tag_408\n      jump\t// in\n    tag_808:\n        /* \"#utility.yul\":36959:37033   */\n      swap2\n      pop\n        /* \"#utility.yul\":37042:37135   */\n      tag_809\n        /* \"#utility.yul\":37131:37134   */\n      dup3\n        /* \"#utility.yul\":37042:37135   */\n      tag_468\n      jump\t// in\n    tag_809:\n        /* \"#utility.yul\":37160:37162   */\n      0x20\n        /* \"#utility.yul\":37155:37158   */\n      dup3\n        /* \"#utility.yul\":37151:37163   */\n      add\n        /* \"#utility.yul\":37144:37163   */\n      swap1\n      pop\n        /* \"#utility.yul\":36803:37169   */\n      swap2\n      swap1\n      pop\n      jump\t// out\n        /* \"#utility.yul\":37175:37594   */\n    tag_237:\n        /* \"#utility.yul\":37341:37345   */\n      0x00\n        /* \"#utility.yul\":37379:37381   */\n      0x20\n        /* \"#utility.yul\":37368:37377   */\n      dup3\n        /* \"#utility.yul\":37364:37382   */\n      add\n        /* \"#utility.yul\":37356:37382   */\n      swap1\n      pop\n        /* \"#utility.yul\":37428:37437   */\n      dup2\n        /* \"#utility.yul\":37422:37426   */\n      dup2\n        /* \"#utility.yul\":37418:37438   */\n      sub\n        /* \"#utility.yul\":37414:37415   */\n      0x00\n        /* \"#utility.yul\":37403:37412   */\n      dup4\n        /* \"#utility.yul\":37399:37416   */\n      add\n        /* \"#utility.yul\":37392:37439   */\n      mstore\n        /* \"#utility.yul\":37456:37587   */\n      tag_811\n        /* \"#utility.yul\":37582:37586   */\n      dup2\n        /* \"#utility.yul\":37456:37587   */\n      tag_469\n      jump\t// in\n    tag_811:\n        /* \"#utility.yul\":37448:37587   */\n      swap1\n      pop\n        /* \"#utility.yul\":37175:37594   */\n      swap2\n      swap1\n      pop\n      jump\t// out\n        /* \"#utility.yul\":37600:37747   */\n    tag_470:\n        /* \"#utility.yul\":37701:37712   */\n      0x00\n        /* \"#utility.yul\":37738:37741   */\n      dup2\n        /* \"#utility.yul\":37723:37741   */\n      swap1\n      pop\n        /* \"#utility.yul\":37600:37747   */\n      swap3\n      swap2\n      pop\n      pop\n      jump\t// out\n        /* \"#utility.yul\":37753:37897   */\n    tag_471:\n        /* \"#utility.yul\":37805:37809   */\n      0x00\n        /* \"#utility.yul\":37828:37831   */\n      dup2\n        /* \"#utility.yul\":37820:37831   */\n      swap1\n      pop\n        /* \"#utility.yul\":37851:37854   */\n      dup2\n        /* \"#utility.yul\":37848:37849   */\n      0x00\n        /* \"#utility.yul\":37841:37855   */\n      mstore\n        /* \"#utility.yul\":37885:37889   */\n      0x20\n        /* \"#utility.yul\":37882:37883   */\n      0x00\n        /* \"#utility.yul\":37872:37890   */\n      keccak256\n        /* \"#utility.yul\":37864:37890   */\n      swap1\n      pop\n        /* \"#utility.yul\":37753:37897   */\n      swap2\n      swap1\n      pop\n      jump\t// out\n        /* \"#utility.yul\":37925:38803   */\n    tag_472:\n        /* \"#utility.yul\":38030:38033   */\n      0x00\n        /* \"#utility.yul\":38067:38072   */\n      dup2\n        /* \"#utility.yul\":38061:38073   */\n      sload\n        /* \"#utility.yul\":38096:38132   */\n      tag_815\n        /* \"#utility.yul\":38122:38131   */\n      dup2\n        /* \"#utility.yul\":38096:38132   */\n      tag_150\n      jump\t// in\n    tag_815:\n        /* \"#utility.yul\":38148:38236   */\n      tag_816\n        /* \"#utility.yul\":38229:38235   */\n      dup2\n        /* \"#utility.yul\":38224:38227   */\n      dup7\n        /* \"#utility.yul\":38148:38236   */\n      tag_470\n      jump\t// in\n    tag_816:\n        /* \"#utility.yul\":38141:38236   */\n      swap5\n      pop\n        /* \"#utility.yul\":38267:38268   */\n      0x01\n        /* \"#utility.yul\":38256:38265   */\n      dup3\n        /* \"#utility.yul\":38252:38269   */\n      and\n        /* \"#utility.yul\":38283:38284   */\n      0x00\n        /* \"#utility.yul\":38278:38444   */\n      dup2\n      eq\n      tag_818\n      jumpi\n        /* \"#utility.yul\":38458:38459   */\n      0x01\n        /* \"#utility.yul\":38453:38797   */\n      dup2\n      eq\n      tag_819\n      jumpi\n        /* \"#utility.yul\":38245:38797   */\n      jump(tag_817)\n        /* \"#utility.yul\":38278:38444   */\n    tag_818:\n        /* \"#utility.yul\":38362:38366   */\n      0xff\n        /* \"#utility.yul\":38358:38367   */\n      not\n        /* \"#utility.yul\":38347:38356   */\n      dup4\n        /* \"#utility.yul\":38343:38368   */\n      and\n        /* \"#utility.yul\":38338:38341   */\n      dup7\n        /* \"#utility.yul\":38331:38369   */\n      mstore\n        /* \"#utility.yul\":38424:38430   */\n      dup2\n        /* \"#utility.yul\":38417:38431   */\n      iszero\n        /* \"#utility.yul\":38410:38432   */\n      iszero\n        /* \"#utility.yul\":38402:38408   */\n      dup3\n        /* \"#utility.yul\":38398:38433   */\n      mul\n        /* \"#utility.yul\":38393:38396   */\n      dup7\n        /* \"#utility.yul\":38389:38434   */\n      add\n        /* \"#utility.yul\":38382:38434   */\n      swap4\n      pop\n        /* \"#utility.yul\":38278:38444   */\n      jump(tag_817)\n        /* \"#utility.yul\":38453:38797   */\n    tag_819:\n        /* \"#utility.yul\":38520:38561   */\n      tag_820\n        /* \"#utility.yul\":38555:38560   */\n      dup6\n        /* \"#utility.yul\":38520:38561   */\n      tag_471\n      jump\t// in\n    tag_820:\n        /* \"#utility.yul\":38583:38584   */\n      0x00\n        /* \"#utility.yul\":38597:38751   */\n    tag_821:\n        /* \"#utility.yul\":38611:38617   */\n      dup4\n        /* \"#utility.yul\":38608:38609   */\n      dup2\n        /* \"#utility.yul\":38605:38618   */\n      lt\n        /* \"#utility.yul\":38597:38751   */\n      iszero\n      tag_823\n      jumpi\n        /* \"#utility.yul\":38685:38692   */\n      dup2\n        /* \"#utility.yul\":38679:38693   */\n      sload\n        /* \"#utility.yul\":38675:38676   */\n      dup2\n        /* \"#utility.yul\":38670:38673   */\n      dup10\n        /* \"#utility.yul\":38666:38677   */\n      add\n        /* \"#utility.yul\":38659:38694   */\n      mstore\n        /* \"#utility.yul\":38735:38736   */\n      0x01\n        /* \"#utility.yul\":38726:38733   */\n      dup3\n        /* \"#utility.yul\":38722:38737   */\n      add\n        /* \"#utility.yul\":38711:38737   */\n      swap2\n      pop\n        /* \"#utility.yul\":38633:38637   */\n      0x20\n        /* \"#utility.yul\":38630:38631   */\n      dup2\n        /* \"#utility.yul\":38626:38638   */\n      add\n        /* \"#utility.yul\":38621:38638   */\n      swap1\n      pop\n        /* \"#utility.yul\":38597:38751   */\n      jump(tag_821)\n    tag_823:\n        /* \"#utility.yul\":38780:38786   */\n      dup4\n        /* \"#utility.yul\":38775:38778   */\n      dup9\n        /* \"#utility.yul\":38771:38787   */\n      add\n        /* \"#utility.yul\":38764:38787   */\n      swap6\n      pop\n        /* \"#utility.yul\":38460:38797   */\n      pop\n      pop\n        /* \"#utility.yul\":38245:38797   */\n    tag_817:\n      pop\n        /* \"#utility.yul\":38034:38803   */\n      pop\n      pop\n        /* \"#utility.yul\":37925:38803   */\n      swap3\n      swap2\n      pop\n      pop\n      jump\t// out\n        /* \"#utility.yul\":38809:39082   */\n    tag_252:\n        /* \"#utility.yul\":38940:38943   */\n      0x00\n        /* \"#utility.yul\":38962:39056   */\n      tag_825\n        /* \"#utility.yul\":39052:39055   */\n      dup3\n        /* \"#utility.yul\":39043:39049   */\n      dup5\n        /* \"#utility.yul\":38962:39056   */\n      tag_472\n      jump\t// in\n    tag_825:\n        /* \"#utility.yul\":38955:39056   */\n      swap2\n      pop\n        /* \"#utility.yul\":39073:39076   */\n      dup2\n        /* \"#utility.yul\":39066:39076   */\n      swap1\n      pop\n        /* \"#utility.yul\":38809:39082   */\n      swap3\n      swap2\n      pop\n      pop\n      jump\t// out\n        /* \"#utility.yul\":39088:39268   */\n    tag_256:\n        /* \"#utility.yul\":39136:39213   */\n      0x4e487b7100000000000000000000000000000000000000000000000000000000\n        /* \"#utility.yul\":39133:39134   */\n      0x00\n        /* \"#utility.yul\":39126:39214   */\n      mstore\n        /* \"#utility.yul\":39233:39237   */\n      0x32\n        /* \"#utility.yul\":39230:39231   */\n      0x04\n        /* \"#utility.yul\":39223:39238   */\n      mstore\n        /* \"#utility.yul\":39257:39261   */\n      0x24\n        /* \"#utility.yul\":39254:39255   */\n      0x00\n        /* \"#utility.yul\":39247:39262   */\n      revert\n        /* \"#utility.yul\":39274:39456   */\n    tag_473:\n        /* \"#utility.yul\":39414:39448   */\n      0x526577617264206d7573742062652067726561746572207468616e207a65726f\n        /* \"#utility.yul\":39410:39411   */\n      0x00\n        /* \"#utility.yul\":39402:39408   */\n      dup3\n        /* \"#utility.yul\":39398:39412   */\n      add\n        /* \"#utility.yul\":39391:39449   */\n      mstore\n        /* \"#utility.yul\":39274:39456   */\n      pop\n      jump\t// out\n        /* \"#utility.yul\":39462:39828   */\n    tag_474:\n        /* \"#utility.yul\":39604:39607   */\n      0x00\n        /* \"#utility.yul\":39625:39692   */\n      tag_829\n        /* \"#utility.yul\":39689:39691   */\n      0x20\n        /* \"#utility.yul\":39684:39687   */\n      dup4\n        /* \"#utility.yul\":39625:39692   */\n      tag_408\n      jump\t// in\n    tag_829:\n        /* \"#utility.yul\":39618:39692   */\n      swap2\n      pop\n        /* \"#utility.yul\":39701:39794   */\n      tag_830\n        /* \"#utility.yul\":39790:39793   */\n      dup3\n        /* \"#utility.yul\":39701:39794   */\n      tag_473\n      jump\t// in\n    tag_830:\n        /* \"#utility.yul\":39819:39821   */\n      0x20\n        /* \"#utility.yul\":39814:39817   */\n      dup3\n        /* \"#utility.yul\":39810:39822   */\n      add\n        /* \"#utility.yul\":39803:39822   */\n      swap1\n      pop\n        /* \"#utility.yul\":39462:39828   */\n      swap2\n      swap1\n      pop\n      jump\t// out\n        /* \"#utility.yul\":39834:40253   */\n    tag_271:\n        /* \"#utility.yul\":40000:40004   */\n      0x00\n        /* \"#utility.yul\":40038:40040   */\n      0x20\n        /* \"#utility.yul\":40027:40036   */\n      dup3\n        /* \"#utility.yul\":40023:40041   */\n      add\n        /* \"#utility.yul\":40015:40041   */\n      swap1\n      pop\n        /* \"#utility.yul\":40087:40096   */\n      dup2\n        /* \"#utility.yul\":40081:40085   */\n      dup2\n        /* \"#utility.yul\":40077:40097   */\n      sub\n        /* \"#utility.yul\":40073:40074   */\n      0x00\n        /* \"#utility.yul\":40062:40071   */\n      dup4\n        /* \"#utility.yul\":40058:40075   */\n      add\n        /* \"#utility.yul\":40051:40098   */\n      mstore\n        /* \"#utility.yul\":40115:40246   */\n      tag_832\n        /* \"#utility.yul\":40241:40245   */\n      dup2\n        /* \"#utility.yul\":40115:40246   */\n      tag_474\n      jump\t// in\n    tag_832:\n        /* \"#utility.yul\":40107:40246   */\n      swap1\n      pop\n        /* \"#utility.yul\":39834:40253   */\n      swap2\n      swap1\n      pop\n      jump\t// out\n        /* \"#utility.yul\":40259:40433   */\n    tag_475:\n        /* \"#utility.yul\":40399:40425   */\n      0x43617465676f72792063616e6e6f7420626520656d7074790000000000000000\n        /* \"#utility.yul\":40395:40396   */\n      0x00\n        /* \"#utility.yul\":40387:40393   */\n      dup3\n        /* \"#utility.yul\":40383:40397   */\n      add\n        /* \"#utility.yul\":40376:40426   */\n      mstore\n        /* \"#utility.yul\":40259:40433   */\n      pop\n      jump\t// out\n        /* \"#utility.yul\":40439:40805   */\n    tag_476:\n        /* \"#utility.yul\":40581:40584   */\n      0x00\n        /* \"#utility.yul\":40602:40669   */\n      tag_835\n        /* \"#utility.yul\":40666:40668   */\n      0x18\n        /* \"#utility.yul\":40661:40664   */\n      dup4\n        /* \"#utility.yul\":40602:40669   */\n      tag_408\n      jump\t// in\n    tag_835:\n        /* \"#utility.yul\":40595:40669   */\n      swap2\n      pop\n        /* \"#utility.yul\":40678:40771   */\n      tag_836\n        /* \"#utility.yul\":40767:40770   */\n      dup3\n        /* \"#utility.yul\":40678:40771   */\n      tag_475\n      jump\t// in\n    tag_836:\n        /* \"#utility.yul\":40796:40798   */\n      0x20\n        /* \"#utility.yul\":40791:40794   */\n      dup3\n        /* \"#utility.yul\":40787:40799   */\n      add\n        /* \"#utility.yul\":40780:40799   */\n      swap1\n      pop\n        /* \"#utility.yul\":40439:40805   */\n      swap2\n      swap1\n      pop\n      jump\t// out\n        /* \"#utility.yul\":40811:41230   */\n    tag_274:\n        /* \"#utility.yul\":40977:40981   */\n      0x00\n        /* \"#utility.yul\":41015:41017   */\n      0x20\n        /* \"#utility.yul\":41004:41013   */\n      dup3\n        /* \"#utility.yul\":41000:41018   */\n      add\n        /* \"#utility.yul\":40992:41018   */\n      swap1\n      pop\n        /* \"#utility.yul\":41064:41073   */\n      dup2\n        /* \"#utility.yul\":41058:41062   */\n      dup2\n        /* \"#utility.yul\":41054:41074   */\n      sub\n        /* \"#utility.yul\":41050:41051   */\n      0x00\n        /* \"#utility.yul\":41039:41048   */\n      dup4\n        /* \"#utility.yul\":41035:41052   */\n      add\n        /* \"#utility.yul\":41028:41075   */\n      mstore\n        /* \"#utility.yul\":41092:41223   */\n      tag_838\n        /* \"#utility.yul\":41218:41222   */\n      dup2\n        /* \"#utility.yul\":41092:41223   */\n      tag_476\n      jump\t// in\n    tag_838:\n        /* \"#utility.yul\":41084:41223   */\n      swap1\n      pop\n        /* \"#utility.yul\":40811:41230   */\n      swap2\n      swap1\n      pop\n      jump\t// out\n        /* \"#utility.yul\":41236:41416   */\n    tag_277:\n        /* \"#utility.yul\":41284:41361   */\n      0x4e487b7100000000000000000000000000000000000000000000000000000000\n        /* \"#utility.yul\":41281:41282   */\n      0x00\n        /* \"#utility.yul\":41274:41362   */\n      mstore\n        /* \"#utility.yul\":41381:41385   */\n      0x21\n        /* \"#utility.yul\":41378:41379   */\n      0x04\n        /* \"#utility.yul\":41371:41386   */\n      mstore\n        /* \"#utility.yul\":41405:41409   */\n      0x24\n        /* \"#utility.yul\":41402:41403   */\n      0x00\n        /* \"#utility.yul\":41395:41410   */\n      revert\n        /* \"#utility.yul\":41422:42157   */\n    tag_301:\n        /* \"#utility.yul\":41639:41643   */\n      0x00\n        /* \"#utility.yul\":41677:41680   */\n      0x80\n        /* \"#utility.yul\":41666:41675   */\n      dup3\n        /* \"#utility.yul\":41662:41681   */\n      add\n        /* \"#utility.yul\":41654:41681   */\n      swap1\n      pop\n        /* \"#utility.yul\":41691:41762   */\n      tag_841\n        /* \"#utility.yul\":41759:41760   */\n      0x00\n        /* \"#utility.yul\":41748:41757   */\n      dup4\n        /* \"#utility.yul\":41744:41761   */\n      add\n        /* \"#utility.yul\":41735:41741   */\n      dup8\n        /* \"#utility.yul\":41691:41762   */\n      tag_403\n      jump\t// in\n    tag_841:\n        /* \"#utility.yul\":41809:41818   */\n      dup2\n        /* \"#utility.yul\":41803:41807   */\n      dup2\n        /* \"#utility.yul\":41799:41819   */\n      sub\n        /* \"#utility.yul\":41794:41796   */\n      0x20\n        /* \"#utility.yul\":41783:41792   */\n      dup4\n        /* \"#utility.yul\":41779:41797   */\n      add\n        /* \"#utility.yul\":41772:41820   */\n      mstore\n        /* \"#utility.yul\":41837:41915   */\n      tag_842\n        /* \"#utility.yul\":41910:41914   */\n      dup2\n        /* \"#utility.yul\":41901:41907   */\n      dup7\n        /* \"#utility.yul\":41837:41915   */\n      tag_410\n      jump\t// in\n    tag_842:\n        /* \"#utility.yul\":41829:41915   */\n      swap1\n      pop\n        /* \"#utility.yul\":41925:41997   */\n      tag_843\n        /* \"#utility.yul\":41993:41995   */\n      0x40\n        /* \"#utility.yul\":41982:41991   */\n      dup4\n        /* \"#utility.yul\":41978:41996   */\n      add\n        /* \"#utility.yul\":41969:41975   */\n      dup6\n        /* \"#utility.yul\":41925:41997   */\n      tag_403\n      jump\t// in\n    tag_843:\n        /* \"#utility.yul\":42044:42053   */\n      dup2\n        /* \"#utility.yul\":42038:42042   */\n      dup2\n        /* \"#utility.yul\":42034:42054   */\n      sub\n        /* \"#utility.yul\":42029:42031   */\n      0x60\n        /* \"#utility.yul\":42018:42027   */\n      dup4\n        /* \"#utility.yul\":42014:42032   */\n      add\n        /* \"#utility.yul\":42007:42055   */\n      mstore\n        /* \"#utility.yul\":42072:42150   */\n      tag_844\n        /* \"#utility.yul\":42145:42149   */\n      dup2\n        /* \"#utility.yul\":42136:42142   */\n      dup5\n        /* \"#utility.yul\":42072:42150   */\n      tag_410\n      jump\t// in\n    tag_844:\n        /* \"#utility.yul\":42064:42150   */\n      swap1\n      pop\n        /* \"#utility.yul\":41422:42157   */\n      swap6\n      swap5\n      pop\n      pop\n      pop\n      pop\n      pop\n      jump\t// out\n        /* \"#utility.yul\":42163:42383   */\n    tag_477:\n        /* \"#utility.yul\":42303:42337   */\n      0x43616e6e6f742064697374726962757465206265666f726520646561646c696e\n        /* \"#utility.yul\":42299:42300   */\n      0x00\n        /* \"#utility.yul\":42291:42297   */\n      dup3\n        /* \"#utility.yul\":42287:42301   */\n      add\n        /* \"#utility.yul\":42280:42338   */\n      mstore\n        /* \"#utility.yul\":42372:42375   */\n      0x6500000000000000000000000000000000000000000000000000000000000000\n        /* \"#utility.yul\":42367:42369   */\n      0x20\n        /* \"#utility.yul\":42359:42365   */\n      dup3\n        /* \"#utility.yul\":42355:42370   */\n      add\n        /* \"#utility.yul\":42348:42376   */\n      mstore\n        /* \"#utility.yul\":42163:42383   */\n      pop\n      jump\t// out\n        /* \"#utility.yul\":42389:42755   */\n    tag_478:\n        /* \"#utility.yul\":42531:42534   */\n      0x00\n        /* \"#utility.yul\":42552:42619   */\n      tag_847\n        /* \"#utility.yul\":42616:42618   */\n      0x21\n        /* \"#utility.yul\":42611:42614   */\n      dup4\n        /* \"#utility.yul\":42552:42619   */\n      tag_408\n      jump\t// in\n    tag_847:\n        /* \"#utility.yul\":42545:42619   */\n      swap2\n      pop\n        /* \"#utility.yul\":42628:42721   */\n      tag_848\n        /* \"#utility.yul\":42717:42720   */\n      dup3\n        /* \"#utility.yul\":42628:42721   */\n      tag_477\n      jump\t// in\n    tag_848:\n        /* \"#utility.yul\":42746:42748   */\n      0x40\n        /* \"#utility.yul\":42741:42744   */\n      dup3\n        /* \"#utility.yul\":42737:42749   */\n      add\n        /* \"#utility.yul\":42730:42749   */\n      swap1\n      pop\n        /* \"#utility.yul\":42389:42755   */\n      swap2\n      swap1\n      pop\n      jump\t// out\n        /* \"#utility.yul\":42761:43180   */\n    tag_308:\n        /* \"#utility.yul\":42927:42931   */\n      0x00\n        /* \"#utility.yul\":42965:42967   */\n      0x20\n        /* \"#utility.yul\":42954:42963   */\n      dup3\n        /* \"#utility.yul\":42950:42968   */\n      add\n        /* \"#utility.yul\":42942:42968   */\n      swap1\n      pop\n        /* \"#utility.yul\":43014:43023   */\n      dup2\n        /* \"#utility.yul\":43008:43012   */\n      dup2\n        /* \"#utility.yul\":43004:43024   */\n      sub\n        /* \"#utility.yul\":43000:43001   */\n      0x00\n        /* \"#utility.yul\":42989:42998   */\n      dup4\n        /* \"#utility.yul\":42985:43002   */\n      add\n        /* \"#utility.yul\":42978:43025   */\n      mstore\n        /* \"#utility.yul\":43042:43173   */\n      tag_850\n        /* \"#utility.yul\":43168:43172   */\n      dup2\n        /* \"#utility.yul\":43042:43173   */\n      tag_478\n      jump\t// in\n    tag_850:\n        /* \"#utility.yul\":43034:43173   */\n      swap1\n      pop\n        /* \"#utility.yul\":42761:43180   */\n      swap2\n      swap1\n      pop\n      jump\t// out\n        /* \"#utility.yul\":43186:43596   */\n    tag_320:\n        /* \"#utility.yul\":43226:43233   */\n      0x00\n        /* \"#utility.yul\":43249:43269   */\n      tag_852\n        /* \"#utility.yul\":43267:43268   */\n      dup3\n        /* \"#utility.yul\":43249:43269   */\n      tag_391\n      jump\t// in\n    tag_852:\n        /* \"#utility.yul\":43244:43269   */\n      swap2\n      pop\n        /* \"#utility.yul\":43283:43303   */\n      tag_853\n        /* \"#utility.yul\":43301:43302   */\n      dup4\n        /* \"#utility.yul\":43283:43303   */\n      tag_391\n      jump\t// in\n    tag_853:\n        /* \"#utility.yul\":43278:43303   */\n      swap3\n      pop\n        /* \"#utility.yul\":43338:43339   */\n      dup3\n        /* \"#utility.yul\":43335:43336   */\n      dup3\n        /* \"#utility.yul\":43331:43340   */\n      mul\n        /* \"#utility.yul\":43360:43390   */\n      tag_854\n        /* \"#utility.yul\":43378:43389   */\n      dup2\n        /* \"#utility.yul\":43360:43390   */\n      tag_391\n      jump\t// in\n    tag_854:\n        /* \"#utility.yul\":43349:43390   */\n      swap2\n      pop\n        /* \"#utility.yul\":43539:43540   */\n      dup3\n        /* \"#utility.yul\":43530:43537   */\n      dup3\n        /* \"#utility.yul\":43526:43541   */\n      div\n        /* \"#utility.yul\":43523:43524   */\n      dup5\n        /* \"#utility.yul\":43520:43542   */\n      eq\n        /* \"#utility.yul\":43500:43501   */\n      dup4\n        /* \"#utility.yul\":43493:43502   */\n      iszero\n        /* \"#utility.yul\":43473:43556   */\n      or\n        /* \"#utility.yul\":43450:43589   */\n      tag_855\n      jumpi\n        /* \"#utility.yul\":43569:43587   */\n      tag_856\n      tag_446\n      jump\t// in\n    tag_856:\n        /* \"#utility.yul\":43450:43589   */\n    tag_855:\n        /* \"#utility.yul\":43234:43596   */\n      pop\n        /* \"#utility.yul\":43186:43596   */\n      swap3\n      swap2\n      pop\n      pop\n      jump\t// out\n        /* \"#utility.yul\":43602:43782   */\n    tag_479:\n        /* \"#utility.yul\":43650:43727   */\n      0x4e487b7100000000000000000000000000000000000000000000000000000000\n        /* \"#utility.yul\":43647:43648   */\n      0x00\n        /* \"#utility.yul\":43640:43728   */\n      mstore\n        /* \"#utility.yul\":43747:43751   */\n      0x12\n        /* \"#utility.yul\":43744:43745   */\n      0x04\n        /* \"#utility.yul\":43737:43752   */\n      mstore\n        /* \"#utility.yul\":43771:43775   */\n      0x24\n        /* \"#utility.yul\":43768:43769   */\n      0x00\n        /* \"#utility.yul\":43761:43776   */\n      revert\n        /* \"#utility.yul\":43788:43973   */\n    tag_322:\n        /* \"#utility.yul\":43828:43829   */\n      0x00\n        /* \"#utility.yul\":43845:43865   */\n      tag_859\n        /* \"#utility.yul\":43863:43864   */\n      dup3\n        /* \"#utility.yul\":43845:43865   */\n      tag_391\n      jump\t// in\n    tag_859:\n        /* \"#utility.yul\":43840:43865   */\n      swap2\n      pop\n        /* \"#utility.yul\":43879:43899   */\n      tag_860\n        /* \"#utility.yul\":43897:43898   */\n      dup4\n        /* \"#utility.yul\":43879:43899   */\n      tag_391\n      jump\t// in\n    tag_860:\n        /* \"#utility.yul\":43874:43899   */\n      swap3\n      pop\n        /* \"#utility.yul\":43918:43919   */\n      dup3\n        /* \"#utility.yul\":43908:43943   */\n      tag_861\n      jumpi\n        /* \"#utility.yul\":43923:43941   */\n      tag_862\n      tag_479\n      jump\t// in\n    tag_862:\n        /* \"#utility.yul\":43908:43943   */\n    tag_861:\n        /* \"#utility.yul\":43965:43966   */\n      dup3\n        /* \"#utility.yul\":43962:43963   */\n      dup3\n        /* \"#utility.yul\":43958:43967   */\n      div\n        /* \"#utility.yul\":43953:43967   */\n      swap1\n      pop\n        /* \"#utility.yul\":43788:43973   */\n      swap3\n      swap2\n      pop\n      pop\n      jump\t// out\n        /* \"#utility.yul\":43979:44157   */\n    tag_480:\n        /* \"#utility.yul\":44119:44149   */\n      0x5061676520696e646578206d7573742073746172742066726f6d203100000000\n        /* \"#utility.yul\":44115:44116   */\n      0x00\n        /* \"#utility.yul\":44107:44113   */\n      dup3\n        /* \"#utility.yul\":44103:44117   */\n      add\n        /* \"#utility.yul\":44096:44150   */\n      mstore\n        /* \"#utility.yul\":43979:44157   */\n      pop\n      jump\t// out\n        /* \"#utility.yul\":44163:44529   */\n    tag_481:\n        /* \"#utility.yul\":44305:44308   */\n      0x00\n        /* \"#utility.yul\":44326:44393   */\n      tag_865\n        /* \"#utility.yul\":44390:44392   */\n      0x1c\n        /* \"#utility.yul\":44385:44388   */\n      dup4\n        /* \"#utility.yul\":44326:44393   */\n      tag_408\n      jump\t// in\n    tag_865:\n        /* \"#utility.yul\":44319:44393   */\n      swap2\n      pop\n        /* \"#utility.yul\":44402:44495   */\n      tag_866\n        /* \"#utility.yul\":44491:44494   */\n      dup3\n        /* \"#utility.yul\":44402:44495   */\n      tag_480\n      jump\t// in\n    tag_866:\n        /* \"#utility.yul\":44520:44522   */\n      0x20\n        /* \"#utility.yul\":44515:44518   */\n      dup3\n        /* \"#utility.yul\":44511:44523   */\n      add\n        /* \"#utility.yul\":44504:44523   */\n      swap1\n      pop\n        /* \"#utility.yul\":44163:44529   */\n      swap2\n      swap1\n      pop\n      jump\t// out\n        /* \"#utility.yul\":44535:44954   */\n    tag_349:\n        /* \"#utility.yul\":44701:44705   */\n      0x00\n        /* \"#utility.yul\":44739:44741   */\n      0x20\n        /* \"#utility.yul\":44728:44737   */\n      dup3\n        /* \"#utility.yul\":44724:44742   */\n      add\n        /* \"#utility.yul\":44716:44742   */\n      swap1\n      pop\n        /* \"#utility.yul\":44788:44797   */\n      dup2\n        /* \"#utility.yul\":44782:44786   */\n      dup2\n        /* \"#utility.yul\":44778:44798   */\n      sub\n        /* \"#utility.yul\":44774:44775   */\n      0x00\n        /* \"#utility.yul\":44763:44772   */\n      dup4\n        /* \"#utility.yul\":44759:44776   */\n      add\n        /* \"#utility.yul\":44752:44799   */\n      mstore\n        /* \"#utility.yul\":44816:44947   */\n      tag_868\n        /* \"#utility.yul\":44942:44946   */\n      dup2\n        /* \"#utility.yul\":44816:44947   */\n      tag_481\n      jump\t// in\n    tag_868:\n        /* \"#utility.yul\":44808:44947   */\n      swap1\n      pop\n        /* \"#utility.yul\":44535:44954   */\n      swap2\n      swap1\n      pop\n      jump\t// out\n        /* \"#utility.yul\":44960:45142   */\n    tag_482:\n        /* \"#utility.yul\":45100:45134   */\n      0x506167652073697a65206d7573742062652067726561746572207468616e2030\n        /* \"#utility.yul\":45096:45097   */\n      0x00\n        /* \"#utility.yul\":45088:45094   */\n      dup3\n        /* \"#utility.yul\":45084:45098   */\n      add\n        /* \"#utility.yul\":45077:45135   */\n      mstore\n        /* \"#utility.yul\":44960:45142   */\n      pop\n      jump\t// out\n        /* \"#utility.yul\":45148:45514   */\n    tag_483:\n        /* \"#utility.yul\":45290:45293   */\n      0x00\n        /* \"#utility.yul\":45311:45378   */\n      tag_871\n        /* \"#utility.yul\":45375:45377   */\n      0x20\n        /* \"#utility.yul\":45370:45373   */\n      dup4\n        /* \"#utility.yul\":45311:45378   */\n      tag_408\n      jump\t// in\n    tag_871:\n        /* \"#utility.yul\":45304:45378   */\n      swap2\n      pop\n        /* \"#utility.yul\":45387:45480   */\n      tag_872\n        /* \"#utility.yul\":45476:45479   */\n      dup3\n        /* \"#utility.yul\":45387:45480   */\n      tag_482\n      jump\t// in\n    tag_872:\n        /* \"#utility.yul\":45505:45507   */\n      0x20\n        /* \"#utility.yul\":45500:45503   */\n      dup3\n        /* \"#utility.yul\":45496:45508   */\n      add\n        /* \"#utility.yul\":45489:45508   */\n      swap1\n      pop\n        /* \"#utility.yul\":45148:45514   */\n      swap2\n      swap1\n      pop\n      jump\t// out\n        /* \"#utility.yul\":45520:45939   */\n    tag_352:\n        /* \"#utility.yul\":45686:45690   */\n      0x00\n        /* \"#utility.yul\":45724:45726   */\n      0x20\n        /* \"#utility.yul\":45713:45722   */\n      dup3\n        /* \"#utility.yul\":45709:45727   */\n      add\n        /* \"#utility.yul\":45701:45727   */\n      swap1\n      pop\n        /* \"#utility.yul\":45773:45782   */\n      dup2\n        /* \"#utility.yul\":45767:45771   */\n      dup2\n        /* \"#utility.yul\":45763:45783   */\n      sub\n        /* \"#utility.yul\":45759:45760   */\n      0x00\n        /* \"#utility.yul\":45748:45757   */\n      dup4\n        /* \"#utility.yul\":45744:45761   */\n      add\n        /* \"#utility.yul\":45737:45784   */\n      mstore\n        /* \"#utility.yul\":45801:45932   */\n      tag_874\n        /* \"#utility.yul\":45927:45931   */\n      dup2\n        /* \"#utility.yul\":45801:45932   */\n      tag_483\n      jump\t// in\n    tag_874:\n        /* \"#utility.yul\":45793:45932   */\n      swap1\n      pop\n        /* \"#utility.yul\":45520:45939   */\n      swap2\n      swap1\n      pop\n      jump\t// out\n        /* \"#utility.yul\":45945:46139   */\n    tag_354:\n        /* \"#utility.yul\":45985:45989   */\n      0x00\n        /* \"#utility.yul\":46005:46025   */\n      tag_876\n        /* \"#utility.yul\":46023:46024   */\n      dup3\n        /* \"#utility.yul\":46005:46025   */\n      tag_391\n      jump\t// in\n    tag_876:\n        /* \"#utility.yul\":46000:46025   */\n      swap2\n      pop\n        /* \"#utility.yul\":46039:46059   */\n      tag_877\n        /* \"#utility.yul\":46057:46058   */\n      dup4\n        /* \"#utility.yul\":46039:46059   */\n      tag_391\n      jump\t// in\n    tag_877:\n        /* \"#utility.yul\":46034:46059   */\n      swap3\n      pop\n        /* \"#utility.yul\":46083:46084   */\n      dup3\n        /* \"#utility.yul\":46080:46081   */\n      dup3\n        /* \"#utility.yul\":46076:46085   */\n      sub\n        /* \"#utility.yul\":46068:46085   */\n      swap1\n      pop\n        /* \"#utility.yul\":46107:46108   */\n      dup2\n        /* \"#utility.yul\":46101:46105   */\n      dup2\n        /* \"#utility.yul\":46098:46109   */\n      gt\n        /* \"#utility.yul\":46095:46132   */\n      iszero\n      tag_878\n      jumpi\n        /* \"#utility.yul\":46112:46130   */\n      tag_879\n      tag_446\n      jump\t// in\n    tag_879:\n        /* \"#utility.yul\":46095:46132   */\n    tag_878:\n        /* \"#utility.yul\":45945:46139   */\n      swap3\n      swap2\n      pop\n      pop\n      jump\t// out\n        /* \"#utility.yul\":46145:46313   */\n    tag_484:\n        /* \"#utility.yul\":46285:46305   */\n      0x496e76616c6964207061676520696e6465780000000000000000000000000000\n        /* \"#utility.yul\":46281:46282   */\n      0x00\n        /* \"#utility.yul\":46273:46279   */\n      dup3\n        /* \"#utility.yul\":46269:46283   */\n      add\n        /* \"#utility.yul\":46262:46306   */\n      mstore\n        /* \"#utility.yul\":46145:46313   */\n      pop\n      jump\t// out\n        /* \"#utility.yul\":46319:46685   */\n    tag_485:\n        /* \"#utility.yul\":46461:46464   */\n      0x00\n        /* \"#utility.yul\":46482:46549   */\n      tag_882\n        /* \"#utility.yul\":46546:46548   */\n      0x12\n        /* \"#utility.yul\":46541:46544   */\n      dup4\n        /* \"#utility.yul\":46482:46549   */\n      tag_408\n      jump\t// in\n    tag_882:\n        /* \"#utility.yul\":46475:46549   */\n      swap2\n      pop\n        /* \"#utility.yul\":46558:46651   */\n      tag_883\n        /* \"#utility.yul\":46647:46650   */\n      dup3\n        /* \"#utility.yul\":46558:46651   */\n      tag_484\n      jump\t// in\n    tag_883:\n        /* \"#utility.yul\":46676:46678   */\n      0x20\n        /* \"#utility.yul\":46671:46674   */\n      dup3\n        /* \"#utility.yul\":46667:46679   */\n      add\n        /* \"#utility.yul\":46660:46679   */\n      swap1\n      pop\n        /* \"#utility.yul\":46319:46685   */\n      swap2\n      swap1\n      pop\n      jump\t// out\n        /* \"#utility.yul\":46691:47110   */\n    tag_358:\n        /* \"#utility.yul\":46857:46861   */\n      0x00\n        /* \"#utility.yul\":46895:46897   */\n      0x20\n        /* \"#utility.yul\":46884:46893   */\n      dup3\n        /* \"#utility.yul\":46880:46898   */\n      add\n        /* \"#utility.yul\":46872:46898   */\n      swap1\n      pop\n        /* \"#utility.yul\":46944:46953   */\n      dup2\n        /* \"#utility.yul\":46938:46942   */\n      dup2\n        /* \"#utility.yul\":46934:46954   */\n      sub\n        /* \"#utility.yul\":46930:46931   */\n      0x00\n        /* \"#utility.yul\":46919:46928   */\n      dup4\n        /* \"#utility.yul\":46915:46932   */\n      add\n        /* \"#utility.yul\":46908:46955   */\n      mstore\n        /* \"#utility.yul\":46972:47103   */\n      tag_885\n        /* \"#utility.yul\":47098:47102   */\n      dup2\n        /* \"#utility.yul\":46972:47103   */\n      tag_485\n      jump\t// in\n    tag_885:\n        /* \"#utility.yul\":46964:47103   */\n      swap1\n      pop\n        /* \"#utility.yul\":46691:47110   */\n      swap2\n      swap1\n      pop\n      jump\t// out\n\n    auxdata: 0xa26469706673582212204376caf1c8b8f7e626b3818cd9189a3e8afcf788bc0d3d373363bae198b14c6864736f6c634300081a0033\n}\n",
				"bytecode": {
					"linkReferences": {},
					"object": "6080604052662386f26fc100006001553480156019575f80fd5b50335f806101000a81548173ffffffffffffffffffffffffffffffffffffffff021916908373ffffffffffffffffffffffffffffffffffffffff16021790555060016002819055506001600381905550613cdf806100765f395ff3fe608060405260043610610129575f3560e01c806359974e38116100aa578063cba130301161006e578063cba13030146103d5578063d5999a5c146103ff578063da2b4c1e14610429578063e25f3e0214610453578063f4359ce51461048f578063fd1df035146104b957610129565b806359974e381461030557806361e786171461032d5780638da5cb5b14610357578063934d1fa414610381578063b69ef8a8146103ab57610129565b806331b1b978116100f157806331b1b978146102165780633ccfd60b1461025b5780634a8f164f1461027157806355ce8034146102ad578063572491c3146102e957610129565b806301b49d471461012d57806301fa3bec146101555780632401519c1461017d5780632690567e146101be57806327e235e3146101da575b5f80fd5b348015610138575f80fd5b50610153600480360381019061014e91906126a5565b6104f5565b005b348015610160575f80fd5b5061017b6004803603810190610176919061281f565b610703565b005b348015610188575f80fd5b506101a3600480360381019061019e91906126a5565b610c19565b6040516101b596959493929190612927565b60405180910390f35b6101d860048036038101906101d391906126a5565b610d01565b005b3480156101e5575f80fd5b5061020060048036038101906101fb91906129b7565b6111c0565b60405161020d91906129e2565b60405180910390f35b348015610221575f80fd5b5061023c600480360381019061023791906129fb565b6111d5565b6040516102529a99989796959493929190612a40565b60405180910390f35b348015610266575f80fd5b5061026f6113e2565b005b34801561027c575f80fd5b50610297600480360381019061029291906126a5565b6114ee565b6040516102a49190612bdb565b60405180910390f35b3480156102b8575f80fd5b506102d360048036038101906102ce9190612bfb565b6116e5565b6040516102e09190612cea565b60405180910390f35b61030360048036038101906102fe9190612d2d565b61185e565b005b348015610310575f80fd5b5061032b600480360381019061032691906129fb565b611b66565b005b348015610338575f80fd5b50610341611e20565b60405161034e91906129e2565b60405180910390f35b348015610362575f80fd5b5061036b611e26565b6040516103789190612de5565b60405180910390f35b34801561038c575f80fd5b50610395611e49565b6040516103a291906129e2565b60405180910390f35b3480156103b6575f80fd5b506103bf611e50565b6040516103cc91906129e2565b60405180910390f35b3480156103e0575f80fd5b506103e9611e57565b6040516103f691906129e2565b60405180910390f35b34801561040a575f80fd5b50610413611e5d565b60405161042091906129e2565b60405180910390f35b348015610434575f80fd5b5061043d611e64565b60405161044a91906129e2565b60405180910390f35b34801561045e575f80fd5b50610479600480360381019061047491906129fb565b611e6a565b6040516104869190612ef2565b60405180910390f35b34801561049a575f80fd5b506104a3612187565b6040516104b091906129e2565b60405180910390f35b3480156104c4575f80fd5b506104df60048036038101906104da91906126a5565b61218e565b6040516104ec91906130b2565b60405180910390f35b815f73ffffffffffffffffffffffffffffffffffffffff1660045f8381526020019081526020015f206001015f9054906101000a900473ffffffffffffffffffffffffffffffffffffffff1673ffffffffffffffffffffffffffffffffffffffff1603610597576040517f08c379a000000000000000000000000000000000000000000000000000000000815260040161058e9061311c565b60405180910390fd5b8260045f8281526020019081526020015f206008015f9054906101000a900460ff16156105f9576040517f08c379a00000000000000000000000000000000000000000000000000000000081526004016105f090613184565b60405180910390fd5b5f60045f8681526020019081526020015f209050806001015f9054906101000a900473ffffffffffffffffffffffffffffffffffffffff1673ffffffffffffffffffffffffffffffffffffffff163373ffffffffffffffffffffffffffffffffffffffff161461069e576040517f08c379a0000000000000000000000000000000000000000000000000000000008152600401610695906131ec565b60405180910390fd5b6001816008015f6101000a81548160ff0219169083151502179055508381600901819055507f99fe2c8abd13b610e7f7d4a51a49e1391ba19454b72305176b884d66010e475a85856040516106f492919061320a565b60405180910390a15050505050565b815f73ffffffffffffffffffffffffffffffffffffffff1660045f8381526020019081526020015f206001015f9054906101000a900473ffffffffffffffffffffffffffffffffffffffff1673ffffffffffffffffffffffffffffffffffffffff16036107a5576040517f08c379a000000000000000000000000000000000000000000000000000000000815260040161079c9061311c565b60405180910390fd5b8260045f8281526020019081526020015f206008015f9054906101000a900460ff1615610807576040517f08c379a00000000000000000000000000000000000000000000000000000000081526004016107fe90613184565b60405180910390fd5b5f60045f8681526020019081526020015f20604051806101400160405290815f8201548152602001600182015f9054906101000a900473ffffffffffffffffffffffffffffffffffffffff1673ffffffffffffffffffffffffffffffffffffffff1673ffffffffffffffffffffffffffffffffffffffff1681526020016002820180546108939061325e565b80601f01602080910402602001604051908101604052809291908181526020018280546108bf9061325e565b801561090a5780601f106108e15761010080835404028352916020019161090a565b820191905f5260205f20905b8154815290600101906020018083116108ed57829003601f168201915b505050505081526020016003820180546109239061325e565b80601f016020809104026020016040519081016040528092919081815260200182805461094f9061325e565b801561099a5780601f106109715761010080835404028352916020019161099a565b820191905f5260205f20905b81548152906001019060200180831161097d57829003601f168201915b505050505081526020016004820180546109b39061325e565b80601f01602080910402602001604051908101604052809291908181526020018280546109df9061325e565b8015610a2a5780601f10610a0157610100808354040283529160200191610a2a565b820191905f5260205f20905b815481529060010190602001808311610a0d57829003601f168201915b50505050508152602001600582015481526020016006820154815260200160078201548152602001600882015f9054906101000a900460ff1615151515815260200160098201548152505090508060e00151421115610abe576040517f08c379a0000000000000000000000000000000000000000000000000000000008152600401610ab5906132d8565b60405180910390fd5b5f60035f815480929190610ad190613323565b9190505590506040518060c001604052808281526020013373ffffffffffffffffffffffffffffffffffffffff1681526020018681526020015f81526020015f81526020014281525060055f8881526020019081526020015f205f8381526020019081526020015f205f820151815f01556020820151816001015f6101000a81548173ffffffffffffffffffffffffffffffffffffffff021916908373ffffffffffffffffffffffffffffffffffffffff1602179055506040820151816002019081610b9d9190613507565b50606082015181600301556080820151816004015560a082015181600501559050503373ffffffffffffffffffffffffffffffffffffffff167f1b72a809869907cac4c4e55b8bf6920ff492d2ff53307bb77ba492366b61387c878388604051610c09939291906135d6565b60405180910390a2505050505050565b6005602052815f5260405f20602052805f5260405f205f9150915050805f015490806001015f9054906101000a900473ffffffffffffffffffffffffffffffffffffffff1690806002018054610c6e9061325e565b80601f0160208091040260200160405190810160405280929190818152602001828054610c9a9061325e565b8015610ce55780601f10610cbc57610100808354040283529160200191610ce5565b820191905f5260205f20905b815481529060010190602001808311610cc857829003601f168201915b5050505050908060030154908060040154908060050154905086565b815f73ffffffffffffffffffffffffffffffffffffffff1660045f8381526020019081526020015f206001015f9054906101000a900473ffffffffffffffffffffffffffffffffffffffff1673ffffffffffffffffffffffffffffffffffffffff1603610da3576040517f08c379a0000000000000000000000000000000000000000000000000000000008152600401610d9a9061311c565b60405180910390fd5b8260045f8281526020019081526020015f206008015f9054906101000a900460ff1615610e05576040517f08c379a0000000000000000000000000000000000000000000000000000000008152600401610dfc90613184565b60405180910390fd5b5f60045f8681526020019081526020015f20604051806101400160405290815f8201548152602001600182015f9054906101000a900473ffffffffffffffffffffffffffffffffffffffff1673ffffffffffffffffffffffffffffffffffffffff1673ffffffffffffffffffffffffffffffffffffffff168152602001600282018054610e919061325e565b80601f0160208091040260200160405190810160405280929190818152602001828054610ebd9061325e565b8015610f085780601f10610edf57610100808354040283529160200191610f08565b820191905f5260205f20905b815481529060010190602001808311610eeb57829003601f168201915b50505050508152602001600382018054610f219061325e565b80601f0160208091040260200160405190810160405280929190818152602001828054610f4d9061325e565b8015610f985780601f10610f6f57610100808354040283529160200191610f98565b820191905f5260205f20905b815481529060010190602001808311610f7b57829003601f168201915b50505050508152602001600482018054610fb19061325e565b80601f0160208091040260200160405190810160405280929190818152602001828054610fdd9061325e565b80156110285780601f10610fff57610100808354040283529160200191611028565b820191905f5260205f20905b81548152906001019060200180831161100b57829003601f168201915b50505050508152602001600582015481526020016006820154815260200160078201548152602001600882015f9054906101000a900460ff1615151515815260200160098201548152505090508060e001514211156110bc576040517f08c379a00000000000000000000000000000000000000000000000000000000081526004016110b39061365c565b60405180910390fd5b6001543414611100576040517f08c379a00000000000000000000000000000000000000000000000000000000081526004016110f7906136c4565b60405180910390fd5b5f60055f8781526020019081526020015f205f8681526020019081526020015f2090506001816003015f82825461113791906136e2565b925050819055503460045f8881526020019081526020015f206005015f82825461116191906136e2565b925050819055503373ffffffffffffffffffffffffffffffffffffffff167fd91ecafccf238642dccd41161308b3eebe62a12bc5819daf5164780c221ec95b87876040516111b092919061320a565b60405180910390a2505050505050565b6006602052805f5260405f205f915090505481565b6004602052805f5260405f205f91509050805f015490806001015f9054906101000a900473ffffffffffffffffffffffffffffffffffffffff169080600201805461121f9061325e565b80601f016020809104026020016040519081016040528092919081815260200182805461124b9061325e565b80156112965780601f1061126d57610100808354040283529160200191611296565b820191905f5260205f20905b81548152906001019060200180831161127957829003601f168201915b5050505050908060030180546112ab9061325e565b80601f01602080910402602001604051908101604052809291908181526020018280546112d79061325e565b80156113225780601f106112f957610100808354040283529160200191611322565b820191905f5260205f20905b81548152906001019060200180831161130557829003601f168201915b5050505050908060040180546113379061325e565b80601f01602080910402602001604051908101604052809291908181526020018280546113639061325e565b80156113ae5780601f10611385576101008083540402835291602001916113ae565b820191905f5260205f20905b81548152906001019060200180831161139157829003601f168201915b505050505090806005015490806006015490806007015490806008015f9054906101000a900460ff1690806009015490508a565b5f60065f3373ffffffffffffffffffffffffffffffffffffffff1673ffffffffffffffffffffffffffffffffffffffff1681526020019081526020015f205490505f8111611465576040517f08c379a000000000000000000000000000000000000000000000000000000000815260040161145c9061375f565b60405180910390fd5b5f60065f3373ffffffffffffffffffffffffffffffffffffffff1673ffffffffffffffffffffffffffffffffffffffff1681526020019081526020015f20819055503373ffffffffffffffffffffffffffffffffffffffff166108fc8290811502906040515f60405180830381858888f193505050501580156114ea573d5f803e3d5ffd5b5050565b6114f66125b6565b5f73ffffffffffffffffffffffffffffffffffffffff1660055f8581526020019081526020015f205f8481526020019081526020015f206001015f9054906101000a900473ffffffffffffffffffffffffffffffffffffffff1673ffffffffffffffffffffffffffffffffffffffff16036115a6576040517f08c379a000000000000000000000000000000000000000000000000000000000815260040161159d906137c7565b60405180910390fd5b60055f8481526020019081526020015f205f8381526020019081526020015f206040518060c00160405290815f8201548152602001600182015f9054906101000a900473ffffffffffffffffffffffffffffffffffffffff1673ffffffffffffffffffffffffffffffffffffffff1673ffffffffffffffffffffffffffffffffffffffff16815260200160028201805461163f9061325e565b80601f016020809104026020016040519081016040528092919081815260200182805461166b9061325e565b80156116b65780601f1061168d576101008083540402835291602001916116b6565b820191905f5260205f20905b81548152906001019060200180831161169957829003601f168201915b505050505081526020016003820154815260200160048201548152602001600582015481525050905092915050565b60605f60025467ffffffffffffffff811115611704576117036126fb565b5b6040519080825280602002602001820160405280156117325781602001602082028036833780820191505090505b5090505f805b6002548110156117b457848051906020012060045f8381526020019081526020015f2060040160405161176b9190613881565b6040518091039020036117a7578083838151811061178c5761178b613897565b5b60200260200101818152505081806117a390613323565b9250505b8080600101915050611738565b505f8167ffffffffffffffff8111156117d0576117cf6126fb565b5b6040519080825280602002602001820160405280156117fe5781602001602082028036833780820191505090505b5090505f5b828110156118525783818151811061181e5761181d613897565b5b602002602001015182828151811061183957611838613897565b5b6020026020010181815250508080600101915050611803565b50809350505050919050565b5f34116118a0576040517f08c379a00000000000000000000000000000000000000000000000000000000081526004016118979061390e565b60405180910390fd5b5f8251116118e3576040517f08c379a00000000000000000000000000000000000000000000000000000000081526004016118da90613976565b60405180910390fd5b5f8060028111156118f7576118f6613994565b5b82600281111561190a57611909613994565b5b036119255762093a804261191e91906136e2565b90506119a6565b6001600281111561193957611938613994565b5b82600281111561194c5761194b613994565b5b0361196757621275004261196091906136e2565b90506119a5565b60028081111561197a57611979613994565b5b82600281111561198d5761198c613994565b5b036119a45762278d00426119a191906136e2565b90505b5b5b5f60025f8154809291906119b990613323565b9190505590506040518061014001604052808281526020013373ffffffffffffffffffffffffffffffffffffffff1681526020018781526020018681526020018581526020013481526020014281526020018381526020015f151581526020015f81525060045f8381526020019081526020015f205f820151815f01556020820151816001015f6101000a81548173ffffffffffffffffffffffffffffffffffffffff021916908373ffffffffffffffffffffffffffffffffffffffff1602179055506040820151816002019081611a919190613507565b506060820151816003019081611aa79190613507565b506080820151816004019081611abd9190613507565b5060a0820151816005015560c0820151816006015560e08201518160070155610100820151816008015f6101000a81548160ff02191690831515021790555061012082015181600901559050503373ffffffffffffffffffffffffffffffffffffffff167fb8105899d34d8481e717a601e8d7a732c27b0ab23778e01145f2f3eb24a1120c82883488604051611b5694939291906139c1565b60405180910390a2505050505050565b805f73ffffffffffffffffffffffffffffffffffffffff1660045f8381526020019081526020015f206001015f9054906101000a900473ffffffffffffffffffffffffffffffffffffffff1673ffffffffffffffffffffffffffffffffffffffff1603611c08576040517f08c379a0000000000000000000000000000000000000000000000000000000008152600401611bff9061311c565b60405180910390fd5b5f60045f8481526020019081526020015f20905080600701544211611c62576040517f08c379a0000000000000000000000000000000000000000000000000000000008152600401611c5990613a82565b60405180910390fd5b806008015f9054906101000a900460ff1615611cb3576040517f08c379a0000000000000000000000000000000000000000000000000000000008152600401611caa90613184565b60405180910390fd5b5f80826005015490505f5b600354811015611d065760055f8781526020019081526020015f205f8281526020019081526020015f206003015483611cf791906136e2565b92508080600101915050611cbe565b505f5b600354811015611dfc575f60055f8881526020019081526020015f205f8381526020019081526020015f2090505f841115611dee575f84848360030154611d509190613aa0565b611d5a9190613b0e565b905080826004015f828254611d6f91906136e2565b925050819055508060065f846001015f9054906101000a900473ffffffffffffffffffffffffffffffffffffffff1673ffffffffffffffffffffffffffffffffffffffff1673ffffffffffffffffffffffffffffffffffffffff1681526020019081526020015f205f828254611de591906136e2565b92505081905550505b508080600101915050611d09565b506001836008015f6101000a81548160ff0219169083151502179055505050505050565b60025481565b5f8054906101000a900473ffffffffffffffffffffffffffffffffffffffff1681565b6212750081565b5f47905090565b60035481565b62278d0081565b60015481565b611e726125fd565b5f73ffffffffffffffffffffffffffffffffffffffff1660045f8481526020019081526020015f206001015f9054906101000a900473ffffffffffffffffffffffffffffffffffffffff1673ffffffffffffffffffffffffffffffffffffffff1603611f13576040517f08c379a0000000000000000000000000000000000000000000000000000000008152600401611f0a9061311c565b60405180910390fd5b60045f8381526020019081526020015f20604051806101400160405290815f8201548152602001600182015f9054906101000a900473ffffffffffffffffffffffffffffffffffffffff1673ffffffffffffffffffffffffffffffffffffffff1673ffffffffffffffffffffffffffffffffffffffff168152602001600282018054611f9e9061325e565b80601f0160208091040260200160405190810160405280929190818152602001828054611fca9061325e565b80156120155780601f10611fec57610100808354040283529160200191612015565b820191905f5260205f20905b815481529060010190602001808311611ff857829003601f168201915b5050505050815260200160038201805461202e9061325e565b80601f016020809104026020016040519081016040528092919081815260200182805461205a9061325e565b80156120a55780601f1061207c576101008083540402835291602001916120a5565b820191905f5260205f20905b81548152906001019060200180831161208857829003601f168201915b505050505081526020016004820180546120be9061325e565b80601f01602080910402602001604051908101604052809291908181526020018280546120ea9061325e565b80156121355780601f1061210c57610100808354040283529160200191612135565b820191905f5260205f20905b81548152906001019060200180831161211857829003601f168201915b50505050508152602001600582015481526020016006820154815260200160078201548152602001600882015f9054906101000a900460ff161515151581526020016009820154815250509050919050565b62093a8081565b60605f83116121d2576040517f08c379a00000000000000000000000000000000000000000000000000000000081526004016121c990613b88565b60405180910390fd5b5f8211612214576040517f08c379a000000000000000000000000000000000000000000000000000000000815260040161220b90613bf0565b60405180910390fd5b5f826001856122239190613c0e565b61222d9190613aa0565b90506002548110612273576040517f08c379a000000000000000000000000000000000000000000000000000000000815260040161226a90613c8b565b60405180910390fd5b5f838261228091906136e2565b90506002548111156122925760025490505b5f828261229f9190613c0e565b90505f8167ffffffffffffffff8111156122bc576122bb6126fb565b5b6040519080825280602002602001820160405280156122f557816020015b6122e26125fd565b8152602001906001900390816122da5790505b5090505f8490505b838110156125a85760045f8281526020019081526020015f20604051806101400160405290815f8201548152602001600182015f9054906101000a900473ffffffffffffffffffffffffffffffffffffffff1673ffffffffffffffffffffffffffffffffffffffff1673ffffffffffffffffffffffffffffffffffffffff1681526020016002820180546123909061325e565b80601f01602080910402602001604051908101604052809291908181526020018280546123bc9061325e565b80156124075780601f106123de57610100808354040283529160200191612407565b820191905f5260205f20905b8154815290600101906020018083116123ea57829003601f168201915b505050505081526020016003820180546124209061325e565b80601f016020809104026020016040519081016040528092919081815260200182805461244c9061325e565b80156124975780601f1061246e57610100808354040283529160200191612497565b820191905f5260205f20905b81548152906001019060200180831161247a57829003601f168201915b505050505081526020016004820180546124b09061325e565b80601f01602080910402602001604051908101604052809291908181526020018280546124dc9061325e565b80156125275780601f106124fe57610100808354040283529160200191612527565b820191905f5260205f20905b81548152906001019060200180831161250a57829003601f168201915b50505050508152602001600582015481526020016006820154815260200160078201548152602001600882015f9054906101000a900460ff1615151515815260200160098201548152505082868361257f9190613c0e565b815181106125905761258f613897565b5b602002602001018190525080806001019150506122fd565b508094505050505092915050565b6040518060c001604052805f81526020015f73ffffffffffffffffffffffffffffffffffffffff168152602001606081526020015f81526020015f81526020015f81525090565b6040518061014001604052805f81526020015f73ffffffffffffffffffffffffffffffffffffffff1681526020016060815260200160608152602001606081526020015f81526020015f81526020015f81526020015f151581526020015f81525090565b5f604051905090565b5f80fd5b5f80fd5b5f819050919050565b61268481612672565b811461268e575f80fd5b50565b5f8135905061269f8161267b565b92915050565b5f80604083850312156126bb576126ba61266a565b5b5f6126c885828601612691565b92505060206126d985828601612691565b9150509250929050565b5f80fd5b5f80fd5b5f601f19601f8301169050919050565b7f4e487b71000000000000000000000000000000000000000000000000000000005f52604160045260245ffd5b612731826126eb565b810181811067ffffffffffffffff821117156127505761274f6126fb565b5b80604052505050565b5f612762612661565b905061276e8282612728565b919050565b5f67ffffffffffffffff82111561278d5761278c6126fb565b5b612796826126eb565b9050602081019050919050565b828183375f83830152505050565b5f6127c36127be84612773565b612759565b9050828152602081018484840111156127df576127de6126e7565b5b6127ea8482856127a3565b509392505050565b5f82601f830112612806576128056126e3565b5b81356128168482602086016127b1565b91505092915050565b5f80604083850312156128355761283461266a565b5b5f61284285828601612691565b925050602083013567ffffffffffffffff8111156128635761286261266e565b5b61286f858286016127f2565b9150509250929050565b61288281612672565b82525050565b5f73ffffffffffffffffffffffffffffffffffffffff82169050919050565b5f6128b182612888565b9050919050565b6128c1816128a7565b82525050565b5f81519050919050565b5f82825260208201905092915050565b8281835e5f83830152505050565b5f6128f9826128c7565b61290381856128d1565b93506129138185602086016128e1565b61291c816126eb565b840191505092915050565b5f60c08201905061293a5f830189612879565b61294760208301886128b8565b818103604083015261295981876128ef565b90506129686060830186612879565b6129756080830185612879565b61298260a0830184612879565b979650505050505050565b612996816128a7565b81146129a0575f80fd5b50565b5f813590506129b18161298d565b92915050565b5f602082840312156129cc576129cb61266a565b5b5f6129d9848285016129a3565b91505092915050565b5f6020820190506129f55f830184612879565b92915050565b5f60208284031215612a1057612a0f61266a565b5b5f612a1d84828501612691565b91505092915050565b5f8115159050919050565b612a3a81612a26565b82525050565b5f61014082019050612a545f83018d612879565b612a61602083018c6128b8565b8181036040830152612a73818b6128ef565b90508181036060830152612a87818a6128ef565b90508181036080830152612a9b81896128ef565b9050612aaa60a0830188612879565b612ab760c0830187612879565b612ac460e0830186612879565b612ad2610100830185612a31565b612ae0610120830184612879565b9b9a5050505050505050505050565b612af881612672565b82525050565b612b07816128a7565b82525050565b5f82825260208201905092915050565b5f612b27826128c7565b612b318185612b0d565b9350612b418185602086016128e1565b612b4a816126eb565b840191505092915050565b5f60c083015f830151612b6a5f860182612aef565b506020830151612b7d6020860182612afe565b5060408301518482036040860152612b958282612b1d565b9150506060830151612baa6060860182612aef565b506080830151612bbd6080860182612aef565b5060a0830151612bd060a0860182612aef565b508091505092915050565b5f6020820190508181035f830152612bf38184612b55565b905092915050565b5f60208284031215612c1057612c0f61266a565b5b5f82013567ffffffffffffffff811115612c2d57612c2c61266e565b5b612c39848285016127f2565b91505092915050565b5f81519050919050565b5f82825260208201905092915050565b5f819050602082019050919050565b5f612c768383612aef565b60208301905092915050565b5f602082019050919050565b5f612c9882612c42565b612ca28185612c4c565b9350612cad83612c5c565b805f5b83811015612cdd578151612cc48882612c6b565b9750612ccf83612c82565b925050600181019050612cb0565b5085935050505092915050565b5f6020820190508181035f830152612d028184612c8e565b905092915050565b60038110612d16575f80fd5b50565b5f81359050612d2781612d0a565b92915050565b5f805f8060808587031215612d4557612d4461266a565b5b5f85013567ffffffffffffffff811115612d6257612d6161266e565b5b612d6e878288016127f2565b945050602085013567ffffffffffffffff811115612d8f57612d8e61266e565b5b612d9b878288016127f2565b935050604085013567ffffffffffffffff811115612dbc57612dbb61266e565b5b612dc8878288016127f2565b9250506060612dd987828801612d19565b91505092959194509250565b5f602082019050612df85f8301846128b8565b92915050565b612e0781612a26565b82525050565b5f61014083015f830151612e235f860182612aef565b506020830151612e366020860182612afe565b5060408301518482036040860152612e4e8282612b1d565b91505060608301518482036060860152612e688282612b1d565b91505060808301518482036080860152612e828282612b1d565b91505060a0830151612e9760a0860182612aef565b5060c0830151612eaa60c0860182612aef565b5060e0830151612ebd60e0860182612aef565b50610100830151612ed2610100860182612dfe565b50610120830151612ee7610120860182612aef565b508091505092915050565b5f6020820190508181035f830152612f0a8184612e0d565b905092915050565b5f81519050919050565b5f82825260208201905092915050565b5f819050602082019050919050565b5f61014083015f830151612f515f860182612aef565b506020830151612f646020860182612afe565b5060408301518482036040860152612f7c8282612b1d565b91505060608301518482036060860152612f968282612b1d565b91505060808301518482036080860152612fb08282612b1d565b91505060a0830151612fc560a0860182612aef565b5060c0830151612fd860c0860182612aef565b5060e0830151612feb60e0860182612aef565b50610100830151613000610100860182612dfe565b50610120830151613015610120860182612aef565b508091505092915050565b5f61302b8383612f3b565b905092915050565b5f602082019050919050565b5f61304982612f12565b6130538185612f1c565b93508360208202850161306585612f2c565b805f5b858110156130a057848403895281516130818582613020565b945061308c83613033565b925060208a01995050600181019050613068565b50829750879550505050505092915050565b5f6020820190508181035f8301526130ca818461303f565b905092915050565b7f5175657374696f6e20646f6573206e6f742065786973740000000000000000005f82015250565b5f6131066017836128d1565b9150613111826130d2565b602082019050919050565b5f6020820190508181035f830152613133816130fa565b9050919050565b7f5175657374696f6e20697320616c726561647920636c6f7365640000000000005f82015250565b5f61316e601a836128d1565b91506131798261313a565b602082019050919050565b5f6020820190508181035f83015261319b81613162565b9050919050565b7f4f6e6c792061736b65722063616e20636c6f7365207175657374696f6e0000005f82015250565b5f6131d6601d836128d1565b91506131e1826131a2565b602082019050919050565b5f6020820190508181035f830152613203816131ca565b9050919050565b5f60408201905061321d5f830185612879565b61322a6020830184612879565b9392505050565b7f4e487b71000000000000000000000000000000000000000000000000000000005f52602260045260245ffd5b5f600282049050600182168061327557607f821691505b60208210810361328857613287613231565b5b50919050565b7f5175657374696f6e20646561646c696e652068617320706173736564000000005f82015250565b5f6132c2601c836128d1565b91506132cd8261328e565b602082019050919050565b5f6020820190508181035f8301526132ef816132b6565b9050919050565b7f4e487b71000000000000000000000000000000000000000000000000000000005f52601160045260245ffd5b5f61332d82612672565b91507fffffffffffffffffffffffffffffffffffffffffffffffffffffffffffffffff820361335f5761335e6132f6565b5b600182019050919050565b5f819050815f5260205f209050919050565b5f6020601f8301049050919050565b5f82821b905092915050565b5f600883026133c67fffffffffffffffffffffffffffffffffffffffffffffffffffffffffffffffff8261338b565b6133d0868361338b565b95508019841693508086168417925050509392505050565b5f819050919050565b5f61340b61340661340184612672565b6133e8565b612672565b9050919050565b5f819050919050565b613424836133f1565b61343861343082613412565b848454613397565b825550505050565b5f90565b61344c613440565b61345781848461341b565b505050565b5b8181101561347a5761346f5f82613444565b60018101905061345d565b5050565b601f8211156134bf576134908161336a565b6134998461337c565b810160208510156134a8578190505b6134bc6134b48561337c565b83018261345c565b50505b505050565b5f82821c905092915050565b5f6134df5f19846008026134c4565b1980831691505092915050565b5f6134f783836134d0565b9150826002028217905092915050565b613510826128c7565b67ffffffffffffffff811115613529576135286126fb565b5b613533825461325e565b61353e82828561347e565b5f60209050601f83116001811461356f575f841561355d578287015190505b61356785826134ec565b8655506135ce565b601f19841661357d8661336a565b5f5b828110156135a45784890151825560018201915060208501945060208101905061357f565b868310156135c157848901516135bd601f8916826134d0565b8355505b6001600288020188555050505b505050505050565b5f6060820190506135e95f830186612879565b6135f66020830185612879565b818103604083015261360881846128ef565b9050949350505050565b7f566f74696e6720706572696f642068617320656e6465640000000000000000005f82015250565b5f6136466017836128d1565b915061365182613612565b602082019050919050565b5f6020820190508181035f8301526136738161363a565b9050919050565b7f496e636f727265637420766f74652066656500000000000000000000000000005f82015250565b5f6136ae6012836128d1565b91506136b98261367a565b602082019050919050565b5f6020820190508181035f8301526136db816136a2565b9050919050565b5f6136ec82612672565b91506136f783612672565b925082820190508082111561370f5761370e6132f6565b5b92915050565b7f4e6f2066756e647320746f2077697468647261770000000000000000000000005f82015250565b5f6137496014836128d1565b915061375482613715565b602082019050919050565b5f6020820190508181035f8301526137768161373d565b9050919050565b7f416e7377657220646f6573206e6f7420657869737400000000000000000000005f82015250565b5f6137b16015836128d1565b91506137bc8261377d565b602082019050919050565b5f6020820190508181035f8301526137de816137a5565b9050919050565b5f81905092915050565b5f819050815f5260205f209050919050565b5f815461380d8161325e565b61381781866137e5565b9450600182165f8114613831576001811461384657613878565b60ff1983168652811515820286019350613878565b61384f856137ef565b5f5b8381101561387057815481890152600182019150602081019050613851565b838801955050505b50505092915050565b5f61388c8284613801565b915081905092915050565b7f4e487b71000000000000000000000000000000000000000000000000000000005f52603260045260245ffd5b7f526577617264206d7573742062652067726561746572207468616e207a65726f5f82015250565b5f6138f86020836128d1565b9150613903826138c4565b602082019050919050565b5f6020820190508181035f830152613925816138ec565b9050919050565b7f43617465676f72792063616e6e6f7420626520656d70747900000000000000005f82015250565b5f6139606018836128d1565b915061396b8261392c565b602082019050919050565b5f6020820190508181035f83015261398d81613954565b9050919050565b7f4e487b71000000000000000000000000000000000000000000000000000000005f52602160045260245ffd5b5f6080820190506139d45f830187612879565b81810360208301526139e681866128ef565b90506139f56040830185612879565b8181036060830152613a0781846128ef565b905095945050505050565b7f43616e6e6f742064697374726962757465206265666f726520646561646c696e5f8201527f6500000000000000000000000000000000000000000000000000000000000000602082015250565b5f613a6c6021836128d1565b9150613a7782613a12565b604082019050919050565b5f6020820190508181035f830152613a9981613a60565b9050919050565b5f613aaa82612672565b9150613ab583612672565b9250828202613ac381612672565b91508282048414831517613ada57613ad96132f6565b5b5092915050565b7f4e487b71000000000000000000000000000000000000000000000000000000005f52601260045260245ffd5b5f613b1882612672565b9150613b2383612672565b925082613b3357613b32613ae1565b5b828204905092915050565b7f5061676520696e646578206d7573742073746172742066726f6d2031000000005f82015250565b5f613b72601c836128d1565b9150613b7d82613b3e565b602082019050919050565b5f6020820190508181035f830152613b9f81613b66565b9050919050565b7f506167652073697a65206d7573742062652067726561746572207468616e20305f82015250565b5f613bda6020836128d1565b9150613be582613ba6565b602082019050919050565b5f6020820190508181035f830152613c0781613bce565b9050919050565b5f613c1882612672565b9150613c2383612672565b9250828203905081811115613c3b57613c3a6132f6565b5b92915050565b7f496e76616c6964207061676520696e64657800000000000000000000000000005f82015250565b5f613c756012836128d1565b9150613c8082613c41565b602082019050919050565b5f6020820190508181035f830152613ca281613c69565b905091905056fea26469706673582212204376caf1c8b8f7e626b3818cd9189a3e8afcf788bc0d3d373363bae198b14c6864736f6c634300081a0033",
					"opcodes": "PUSH1 0x80 PUSH1 0x40 MSTORE PUSH7 0x2386F26FC10000 PUSH1 0x1 SSTORE CALLVALUE DUP1 ISZERO PUSH1 0x19 JUMPI PUSH0 DUP1 REVERT JUMPDEST POP CALLER PUSH0 DUP1 PUSH2 0x100 EXP DUP2 SLOAD DUP2 PUSH20 0xFFFFFFFFFFFFFFFFFFFFFFFFFFFFFFFFFFFFFFFF MUL NOT AND SWAP1 DUP4 PUSH20 0xFFFFFFFFFFFFFFFFFFFFFFFFFFFFFFFFFFFFFFFF AND MUL OR SWAP1 SSTORE POP PUSH1 0x1 PUSH1 0x2 DUP2 SWAP1 SSTORE POP PUSH1 0x1 PUSH1 0x3 DUP2 SWAP1 SSTORE POP PUSH2 0x3CDF DUP1 PUSH2 0x76 PUSH0 CODECOPY PUSH0 RETURN INVALID PUSH1 0x80 PUSH1 0x40 MSTORE PUSH1 0x4 CALLDATASIZE LT PUSH2 0x129 JUMPI PUSH0 CALLDATALOAD PUSH1 0xE0 SHR DUP1 PUSH4 0x59974E38 GT PUSH2 0xAA JUMPI DUP1 PUSH4 0xCBA13030 GT PUSH2 0x6E JUMPI DUP1 PUSH4 0xCBA13030 EQ PUSH2 0x3D5 JUMPI DUP1 PUSH4 0xD5999A5C EQ PUSH2 0x3FF JUMPI DUP1 PUSH4 0xDA2B4C1E EQ PUSH2 0x429 JUMPI DUP1 PUSH4 0xE25F3E02 EQ PUSH2 0x453 JUMPI DUP1 PUSH4 0xF4359CE5 EQ PUSH2 0x48F JUMPI DUP1 PUSH4 0xFD1DF035 EQ PUSH2 0x4B9 JUMPI PUSH2 0x129 JUMP JUMPDEST DUP1 PUSH4 0x59974E38 EQ PUSH2 0x305 JUMPI DUP1 PUSH4 0x61E78617 EQ PUSH2 0x32D JUMPI DUP1 PUSH4 0x8DA5CB5B EQ PUSH2 0x357 JUMPI DUP1 PUSH4 0x934D1FA4 EQ PUSH2 0x381 JUMPI DUP1 PUSH4 0xB69EF8A8 EQ PUSH2 0x3AB JUMPI PUSH2 0x129 JUMP JUMPDEST DUP1 PUSH4 0x31B1B978 GT PUSH2 0xF1 JUMPI DUP1 PUSH4 0x31B1B978 EQ PUSH2 0x216 JUMPI DUP1 PUSH4 0x3CCFD60B EQ PUSH2 0x25B JUMPI DUP1 PUSH4 0x4A8F164F EQ PUSH2 0x271 JUMPI DUP1 PUSH4 0x55CE8034 EQ PUSH2 0x2AD JUMPI DUP1 PUSH4 0x572491C3 EQ PUSH2 0x2E9 JUMPI PUSH2 0x129 JUMP JUMPDEST DUP1 PUSH4 0x1B49D47 EQ PUSH2 0x12D JUMPI DUP1 PUSH4 0x1FA3BEC EQ PUSH2 0x155 JUMPI DUP1 PUSH4 0x2401519C EQ PUSH2 0x17D JUMPI DUP1 PUSH4 0x2690567E EQ PUSH2 0x1BE JUMPI DUP1 PUSH4 0x27E235E3 EQ PUSH2 0x1DA JUMPI JUMPDEST PUSH0 DUP1 REVERT JUMPDEST CALLVALUE DUP1 ISZERO PUSH2 0x138 JUMPI PUSH0 DUP1 REVERT JUMPDEST POP PUSH2 0x153 PUSH1 0x4 DUP1 CALLDATASIZE SUB DUP2 ADD SWAP1 PUSH2 0x14E SWAP2 SWAP1 PUSH2 0x26A5 JUMP JUMPDEST PUSH2 0x4F5 JUMP JUMPDEST STOP JUMPDEST CALLVALUE DUP1 ISZERO PUSH2 0x160 JUMPI PUSH0 DUP1 REVERT JUMPDEST POP PUSH2 0x17B PUSH1 0x4 DUP1 CALLDATASIZE SUB DUP2 ADD SWAP1 PUSH2 0x176 SWAP2 SWAP1 PUSH2 0x281F JUMP JUMPDEST PUSH2 0x703 JUMP JUMPDEST STOP JUMPDEST CALLVALUE DUP1 ISZERO PUSH2 0x188 JUMPI PUSH0 DUP1 REVERT JUMPDEST POP PUSH2 0x1A3 PUSH1 0x4 DUP1 CALLDATASIZE SUB DUP2 ADD SWAP1 PUSH2 0x19E SWAP2 SWAP1 PUSH2 0x26A5 JUMP JUMPDEST PUSH2 0xC19 JUMP JUMPDEST PUSH1 0x40 MLOAD PUSH2 0x1B5 SWAP7 SWAP6 SWAP5 SWAP4 SWAP3 SWAP2 SWAP1 PUSH2 0x2927 JUMP JUMPDEST PUSH1 0x40 MLOAD DUP1 SWAP2 SUB SWAP1 RETURN JUMPDEST PUSH2 0x1D8 PUSH1 0x4 DUP1 CALLDATASIZE SUB DUP2 ADD SWAP1 PUSH2 0x1D3 SWAP2 SWAP1 PUSH2 0x26A5 JUMP JUMPDEST PUSH2 0xD01 JUMP JUMPDEST STOP JUMPDEST CALLVALUE DUP1 ISZERO PUSH2 0x1E5 JUMPI PUSH0 DUP1 REVERT JUMPDEST POP PUSH2 0x200 PUSH1 0x4 DUP1 CALLDATASIZE SUB DUP2 ADD SWAP1 PUSH2 0x1FB SWAP2 SWAP1 PUSH2 0x29B7 JUMP JUMPDEST PUSH2 0x11C0 JUMP JUMPDEST PUSH1 0x40 MLOAD PUSH2 0x20D SWAP2 SWAP1 PUSH2 0x29E2 JUMP JUMPDEST PUSH1 0x40 MLOAD DUP1 SWAP2 SUB SWAP1 RETURN JUMPDEST CALLVALUE DUP1 ISZERO PUSH2 0x221 JUMPI PUSH0 DUP1 REVERT JUMPDEST POP PUSH2 0x23C PUSH1 0x4 DUP1 CALLDATASIZE SUB DUP2 ADD SWAP1 PUSH2 0x237 SWAP2 SWAP1 PUSH2 0x29FB JUMP JUMPDEST PUSH2 0x11D5 JUMP JUMPDEST PUSH1 0x40 MLOAD PUSH2 0x252 SWAP11 SWAP10 SWAP9 SWAP8 SWAP7 SWAP6 SWAP5 SWAP4 SWAP3 SWAP2 SWAP1 PUSH2 0x2A40 JUMP JUMPDEST PUSH1 0x40 MLOAD DUP1 SWAP2 SUB SWAP1 RETURN JUMPDEST CALLVALUE DUP1 ISZERO PUSH2 0x266 JUMPI PUSH0 DUP1 REVERT JUMPDEST POP PUSH2 0x26F PUSH2 0x13E2 JUMP JUMPDEST STOP JUMPDEST CALLVALUE DUP1 ISZERO PUSH2 0x27C JUMPI PUSH0 DUP1 REVERT JUMPDEST POP PUSH2 0x297 PUSH1 0x4 DUP1 CALLDATASIZE SUB DUP2 ADD SWAP1 PUSH2 0x292 SWAP2 SWAP1 PUSH2 0x26A5 JUMP JUMPDEST PUSH2 0x14EE JUMP JUMPDEST PUSH1 0x40 MLOAD PUSH2 0x2A4 SWAP2 SWAP1 PUSH2 0x2BDB JUMP JUMPDEST PUSH1 0x40 MLOAD DUP1 SWAP2 SUB SWAP1 RETURN JUMPDEST CALLVALUE DUP1 ISZERO PUSH2 0x2B8 JUMPI PUSH0 DUP1 REVERT JUMPDEST POP PUSH2 0x2D3 PUSH1 0x4 DUP1 CALLDATASIZE SUB DUP2 ADD SWAP1 PUSH2 0x2CE SWAP2 SWAP1 PUSH2 0x2BFB JUMP JUMPDEST PUSH2 0x16E5 JUMP JUMPDEST PUSH1 0x40 MLOAD PUSH2 0x2E0 SWAP2 SWAP1 PUSH2 0x2CEA JUMP JUMPDEST PUSH1 0x40 MLOAD DUP1 SWAP2 SUB SWAP1 RETURN JUMPDEST PUSH2 0x303 PUSH1 0x4 DUP1 CALLDATASIZE SUB DUP2 ADD SWAP1 PUSH2 0x2FE SWAP2 SWAP1 PUSH2 0x2D2D JUMP JUMPDEST PUSH2 0x185E JUMP JUMPDEST STOP JUMPDEST CALLVALUE DUP1 ISZERO PUSH2 0x310 JUMPI PUSH0 DUP1 REVERT JUMPDEST POP PUSH2 0x32B PUSH1 0x4 DUP1 CALLDATASIZE SUB DUP2 ADD SWAP1 PUSH2 0x326 SWAP2 SWAP1 PUSH2 0x29FB JUMP JUMPDEST PUSH2 0x1B66 JUMP JUMPDEST STOP JUMPDEST CALLVALUE DUP1 ISZERO PUSH2 0x338 JUMPI PUSH0 DUP1 REVERT JUMPDEST POP PUSH2 0x341 PUSH2 0x1E20 JUMP JUMPDEST PUSH1 0x40 MLOAD PUSH2 0x34E SWAP2 SWAP1 PUSH2 0x29E2 JUMP JUMPDEST PUSH1 0x40 MLOAD DUP1 SWAP2 SUB SWAP1 RETURN JUMPDEST CALLVALUE DUP1 ISZERO PUSH2 0x362 JUMPI PUSH0 DUP1 REVERT JUMPDEST POP PUSH2 0x36B PUSH2 0x1E26 JUMP JUMPDEST PUSH1 0x40 MLOAD PUSH2 0x378 SWAP2 SWAP1 PUSH2 0x2DE5 JUMP JUMPDEST PUSH1 0x40 MLOAD DUP1 SWAP2 SUB SWAP1 RETURN JUMPDEST CALLVALUE DUP1 ISZERO PUSH2 0x38C JUMPI PUSH0 DUP1 REVERT JUMPDEST POP PUSH2 0x395 PUSH2 0x1E49 JUMP JUMPDEST PUSH1 0x40 MLOAD PUSH2 0x3A2 SWAP2 SWAP1 PUSH2 0x29E2 JUMP JUMPDEST PUSH1 0x40 MLOAD DUP1 SWAP2 SUB SWAP1 RETURN JUMPDEST CALLVALUE DUP1 ISZERO PUSH2 0x3B6 JUMPI PUSH0 DUP1 REVERT JUMPDEST POP PUSH2 0x3BF PUSH2 0x1E50 JUMP JUMPDEST PUSH1 0x40 MLOAD PUSH2 0x3CC SWAP2 SWAP1 PUSH2 0x29E2 JUMP JUMPDEST PUSH1 0x40 MLOAD DUP1 SWAP2 SUB SWAP1 RETURN JUMPDEST CALLVALUE DUP1 ISZERO PUSH2 0x3E0 JUMPI PUSH0 DUP1 REVERT JUMPDEST POP PUSH2 0x3E9 PUSH2 0x1E57 JUMP JUMPDEST PUSH1 0x40 MLOAD PUSH2 0x3F6 SWAP2 SWAP1 PUSH2 0x29E2 JUMP JUMPDEST PUSH1 0x40 MLOAD DUP1 SWAP2 SUB SWAP1 RETURN JUMPDEST CALLVALUE DUP1 ISZERO PUSH2 0x40A JUMPI PUSH0 DUP1 REVERT JUMPDEST POP PUSH2 0x413 PUSH2 0x1E5D JUMP JUMPDEST PUSH1 0x40 MLOAD PUSH2 0x420 SWAP2 SWAP1 PUSH2 0x29E2 JUMP JUMPDEST PUSH1 0x40 MLOAD DUP1 SWAP2 SUB SWAP1 RETURN JUMPDEST CALLVALUE DUP1 ISZERO PUSH2 0x434 JUMPI PUSH0 DUP1 REVERT JUMPDEST POP PUSH2 0x43D PUSH2 0x1E64 JUMP JUMPDEST PUSH1 0x40 MLOAD PUSH2 0x44A SWAP2 SWAP1 PUSH2 0x29E2 JUMP JUMPDEST PUSH1 0x40 MLOAD DUP1 SWAP2 SUB SWAP1 RETURN JUMPDEST CALLVALUE DUP1 ISZERO PUSH2 0x45E JUMPI PUSH0 DUP1 REVERT JUMPDEST POP PUSH2 0x479 PUSH1 0x4 DUP1 CALLDATASIZE SUB DUP2 ADD SWAP1 PUSH2 0x474 SWAP2 SWAP1 PUSH2 0x29FB JUMP JUMPDEST PUSH2 0x1E6A JUMP JUMPDEST PUSH1 0x40 MLOAD PUSH2 0x486 SWAP2 SWAP1 PUSH2 0x2EF2 JUMP JUMPDEST PUSH1 0x40 MLOAD DUP1 SWAP2 SUB SWAP1 RETURN JUMPDEST CALLVALUE DUP1 ISZERO PUSH2 0x49A JUMPI PUSH0 DUP1 REVERT JUMPDEST POP PUSH2 0x4A3 PUSH2 0x2187 JUMP JUMPDEST PUSH1 0x40 MLOAD PUSH2 0x4B0 SWAP2 SWAP1 PUSH2 0x29E2 JUMP JUMPDEST PUSH1 0x40 MLOAD DUP1 SWAP2 SUB SWAP1 RETURN JUMPDEST CALLVALUE DUP1 ISZERO PUSH2 0x4C4 JUMPI PUSH0 DUP1 REVERT JUMPDEST POP PUSH2 0x4DF PUSH1 0x4 DUP1 CALLDATASIZE SUB DUP2 ADD SWAP1 PUSH2 0x4DA SWAP2 SWAP1 PUSH2 0x26A5 JUMP JUMPDEST PUSH2 0x218E JUMP JUMPDEST PUSH1 0x40 MLOAD PUSH2 0x4EC SWAP2 SWAP1 PUSH2 0x30B2 JUMP JUMPDEST PUSH1 0x40 MLOAD DUP1 SWAP2 SUB SWAP1 RETURN JUMPDEST DUP2 PUSH0 PUSH20 0xFFFFFFFFFFFFFFFFFFFFFFFFFFFFFFFFFFFFFFFF AND PUSH1 0x4 PUSH0 DUP4 DUP2 MSTORE PUSH1 0x20 ADD SWAP1 DUP2 MSTORE PUSH1 0x20 ADD PUSH0 KECCAK256 PUSH1 0x1 ADD PUSH0 SWAP1 SLOAD SWAP1 PUSH2 0x100 EXP SWAP1 DIV PUSH20 0xFFFFFFFFFFFFFFFFFFFFFFFFFFFFFFFFFFFFFFFF AND PUSH20 0xFFFFFFFFFFFFFFFFFFFFFFFFFFFFFFFFFFFFFFFF AND SUB PUSH2 0x597 JUMPI PUSH1 0x40 MLOAD PUSH32 0x8C379A000000000000000000000000000000000000000000000000000000000 DUP2 MSTORE PUSH1 0x4 ADD PUSH2 0x58E SWAP1 PUSH2 0x311C JUMP JUMPDEST PUSH1 0x40 MLOAD DUP1 SWAP2 SUB SWAP1 REVERT JUMPDEST DUP3 PUSH1 0x4 PUSH0 DUP3 DUP2 MSTORE PUSH1 0x20 ADD SWAP1 DUP2 MSTORE PUSH1 0x20 ADD PUSH0 KECCAK256 PUSH1 0x8 ADD PUSH0 SWAP1 SLOAD SWAP1 PUSH2 0x100 EXP SWAP1 DIV PUSH1 0xFF AND ISZERO PUSH2 0x5F9 JUMPI PUSH1 0x40 MLOAD PUSH32 0x8C379A000000000000000000000000000000000000000000000000000000000 DUP2 MSTORE PUSH1 0x4 ADD PUSH2 0x5F0 SWAP1 PUSH2 0x3184 JUMP JUMPDEST PUSH1 0x40 MLOAD DUP1 SWAP2 SUB SWAP1 REVERT JUMPDEST PUSH0 PUSH1 0x4 PUSH0 DUP7 DUP2 MSTORE PUSH1 0x20 ADD SWAP1 DUP2 MSTORE PUSH1 0x20 ADD PUSH0 KECCAK256 SWAP1 POP DUP1 PUSH1 0x1 ADD PUSH0 SWAP1 SLOAD SWAP1 PUSH2 0x100 EXP SWAP1 DIV PUSH20 0xFFFFFFFFFFFFFFFFFFFFFFFFFFFFFFFFFFFFFFFF AND PUSH20 0xFFFFFFFFFFFFFFFFFFFFFFFFFFFFFFFFFFFFFFFF AND CALLER PUSH20 0xFFFFFFFFFFFFFFFFFFFFFFFFFFFFFFFFFFFFFFFF AND EQ PUSH2 0x69E JUMPI PUSH1 0x40 MLOAD PUSH32 0x8C379A000000000000000000000000000000000000000000000000000000000 DUP2 MSTORE PUSH1 0x4 ADD PUSH2 0x695 SWAP1 PUSH2 0x31EC JUMP JUMPDEST PUSH1 0x40 MLOAD DUP1 SWAP2 SUB SWAP1 REVERT JUMPDEST PUSH1 0x1 DUP2 PUSH1 0x8 ADD PUSH0 PUSH2 0x100 EXP DUP2 SLOAD DUP2 PUSH1 0xFF MUL NOT AND SWAP1 DUP4 ISZERO ISZERO MUL OR SWAP1 SSTORE POP DUP4 DUP2 PUSH1 0x9 ADD DUP2 SWAP1 SSTORE POP PUSH32 0x99FE2C8ABD13B610E7F7D4A51A49E1391BA19454B72305176B884D66010E475A DUP6 DUP6 PUSH1 0x40 MLOAD PUSH2 0x6F4 SWAP3 SWAP2 SWAP1 PUSH2 0x320A JUMP JUMPDEST PUSH1 0x40 MLOAD DUP1 SWAP2 SUB SWAP1 LOG1 POP POP POP POP POP JUMP JUMPDEST DUP2 PUSH0 PUSH20 0xFFFFFFFFFFFFFFFFFFFFFFFFFFFFFFFFFFFFFFFF AND PUSH1 0x4 PUSH0 DUP4 DUP2 MSTORE PUSH1 0x20 ADD SWAP1 DUP2 MSTORE PUSH1 0x20 ADD PUSH0 KECCAK256 PUSH1 0x1 ADD PUSH0 SWAP1 SLOAD SWAP1 PUSH2 0x100 EXP SWAP1 DIV PUSH20 0xFFFFFFFFFFFFFFFFFFFFFFFFFFFFFFFFFFFFFFFF AND PUSH20 0xFFFFFFFFFFFFFFFFFFFFFFFFFFFFFFFFFFFFFFFF AND SUB PUSH2 0x7A5 JUMPI PUSH1 0x40 MLOAD PUSH32 0x8C379A000000000000000000000000000000000000000000000000000000000 DUP2 MSTORE PUSH1 0x4 ADD PUSH2 0x79C SWAP1 PUSH2 0x311C JUMP JUMPDEST PUSH1 0x40 MLOAD DUP1 SWAP2 SUB SWAP1 REVERT JUMPDEST DUP3 PUSH1 0x4 PUSH0 DUP3 DUP2 MSTORE PUSH1 0x20 ADD SWAP1 DUP2 MSTORE PUSH1 0x20 ADD PUSH0 KECCAK256 PUSH1 0x8 ADD PUSH0 SWAP1 SLOAD SWAP1 PUSH2 0x100 EXP SWAP1 DIV PUSH1 0xFF AND ISZERO PUSH2 0x807 JUMPI PUSH1 0x40 MLOAD PUSH32 0x8C379A000000000000000000000000000000000000000000000000000000000 DUP2 MSTORE PUSH1 0x4 ADD PUSH2 0x7FE SWAP1 PUSH2 0x3184 JUMP JUMPDEST PUSH1 0x40 MLOAD DUP1 SWAP2 SUB SWAP1 REVERT JUMPDEST PUSH0 PUSH1 0x4 PUSH0 DUP7 DUP2 MSTORE PUSH1 0x20 ADD SWAP1 DUP2 MSTORE PUSH1 0x20 ADD PUSH0 KECCAK256 PUSH1 0x40 MLOAD DUP1 PUSH2 0x140 ADD PUSH1 0x40 MSTORE SWAP1 DUP2 PUSH0 DUP3 ADD SLOAD DUP2 MSTORE PUSH1 0x20 ADD PUSH1 0x1 DUP3 ADD PUSH0 SWAP1 SLOAD SWAP1 PUSH2 0x100 EXP SWAP1 DIV PUSH20 0xFFFFFFFFFFFFFFFFFFFFFFFFFFFFFFFFFFFFFFFF AND PUSH20 0xFFFFFFFFFFFFFFFFFFFFFFFFFFFFFFFFFFFFFFFF AND PUSH20 0xFFFFFFFFFFFFFFFFFFFFFFFFFFFFFFFFFFFFFFFF AND DUP2 MSTORE PUSH1 0x20 ADD PUSH1 0x2 DUP3 ADD DUP1 SLOAD PUSH2 0x893 SWAP1 PUSH2 0x325E JUMP JUMPDEST DUP1 PUSH1 0x1F ADD PUSH1 0x20 DUP1 SWAP2 DIV MUL PUSH1 0x20 ADD PUSH1 0x40 MLOAD SWAP1 DUP2 ADD PUSH1 0x40 MSTORE DUP1 SWAP3 SWAP2 SWAP1 DUP2 DUP2 MSTORE PUSH1 0x20 ADD DUP3 DUP1 SLOAD PUSH2 0x8BF SWAP1 PUSH2 0x325E JUMP JUMPDEST DUP1 ISZERO PUSH2 0x90A JUMPI DUP1 PUSH1 0x1F LT PUSH2 0x8E1 JUMPI PUSH2 0x100 DUP1 DUP4 SLOAD DIV MUL DUP4 MSTORE SWAP2 PUSH1 0x20 ADD SWAP2 PUSH2 0x90A JUMP JUMPDEST DUP3 ADD SWAP2 SWAP1 PUSH0 MSTORE PUSH1 0x20 PUSH0 KECCAK256 SWAP1 JUMPDEST DUP2 SLOAD DUP2 MSTORE SWAP1 PUSH1 0x1 ADD SWAP1 PUSH1 0x20 ADD DUP1 DUP4 GT PUSH2 0x8ED JUMPI DUP3 SWAP1 SUB PUSH1 0x1F AND DUP3 ADD SWAP2 JUMPDEST POP POP POP POP POP DUP2 MSTORE PUSH1 0x20 ADD PUSH1 0x3 DUP3 ADD DUP1 SLOAD PUSH2 0x923 SWAP1 PUSH2 0x325E JUMP JUMPDEST DUP1 PUSH1 0x1F ADD PUSH1 0x20 DUP1 SWAP2 DIV MUL PUSH1 0x20 ADD PUSH1 0x40 MLOAD SWAP1 DUP2 ADD PUSH1 0x40 MSTORE DUP1 SWAP3 SWAP2 SWAP1 DUP2 DUP2 MSTORE PUSH1 0x20 ADD DUP3 DUP1 SLOAD PUSH2 0x94F SWAP1 PUSH2 0x325E JUMP JUMPDEST DUP1 ISZERO PUSH2 0x99A JUMPI DUP1 PUSH1 0x1F LT PUSH2 0x971 JUMPI PUSH2 0x100 DUP1 DUP4 SLOAD DIV MUL DUP4 MSTORE SWAP2 PUSH1 0x20 ADD SWAP2 PUSH2 0x99A JUMP JUMPDEST DUP3 ADD SWAP2 SWAP1 PUSH0 MSTORE PUSH1 0x20 PUSH0 KECCAK256 SWAP1 JUMPDEST DUP2 SLOAD DUP2 MSTORE SWAP1 PUSH1 0x1 ADD SWAP1 PUSH1 0x20 ADD DUP1 DUP4 GT PUSH2 0x97D JUMPI DUP3 SWAP1 SUB PUSH1 0x1F AND DUP3 ADD SWAP2 JUMPDEST POP POP POP POP POP DUP2 MSTORE PUSH1 0x20 ADD PUSH1 0x4 DUP3 ADD DUP1 SLOAD PUSH2 0x9B3 SWAP1 PUSH2 0x325E JUMP JUMPDEST DUP1 PUSH1 0x1F ADD PUSH1 0x20 DUP1 SWAP2 DIV MUL PUSH1 0x20 ADD PUSH1 0x40 MLOAD SWAP1 DUP2 ADD PUSH1 0x40 MSTORE DUP1 SWAP3 SWAP2 SWAP1 DUP2 DUP2 MSTORE PUSH1 0x20 ADD DUP3 DUP1 SLOAD PUSH2 0x9DF SWAP1 PUSH2 0x325E JUMP JUMPDEST DUP1 ISZERO PUSH2 0xA2A JUMPI DUP1 PUSH1 0x1F LT PUSH2 0xA01 JUMPI PUSH2 0x100 DUP1 DUP4 SLOAD DIV MUL DUP4 MSTORE SWAP2 PUSH1 0x20 ADD SWAP2 PUSH2 0xA2A JUMP JUMPDEST DUP3 ADD SWAP2 SWAP1 PUSH0 MSTORE PUSH1 0x20 PUSH0 KECCAK256 SWAP1 JUMPDEST DUP2 SLOAD DUP2 MSTORE SWAP1 PUSH1 0x1 ADD SWAP1 PUSH1 0x20 ADD DUP1 DUP4 GT PUSH2 0xA0D JUMPI DUP3 SWAP1 SUB PUSH1 0x1F AND DUP3 ADD SWAP2 JUMPDEST POP POP POP POP POP DUP2 MSTORE PUSH1 0x20 ADD PUSH1 0x5 DUP3 ADD SLOAD DUP2 MSTORE PUSH1 0x20 ADD PUSH1 0x6 DUP3 ADD SLOAD DUP2 MSTORE PUSH1 0x20 ADD PUSH1 0x7 DUP3 ADD SLOAD DUP2 MSTORE PUSH1 0x20 ADD PUSH1 0x8 DUP3 ADD PUSH0 SWAP1 SLOAD SWAP1 PUSH2 0x100 EXP SWAP1 DIV PUSH1 0xFF AND ISZERO ISZERO ISZERO ISZERO DUP2 MSTORE PUSH1 0x20 ADD PUSH1 0x9 DUP3 ADD SLOAD DUP2 MSTORE POP POP SWAP1 POP DUP1 PUSH1 0xE0 ADD MLOAD TIMESTAMP GT ISZERO PUSH2 0xABE JUMPI PUSH1 0x40 MLOAD PUSH32 0x8C379A000000000000000000000000000000000000000000000000000000000 DUP2 MSTORE PUSH1 0x4 ADD PUSH2 0xAB5 SWAP1 PUSH2 0x32D8 JUMP JUMPDEST PUSH1 0x40 MLOAD DUP1 SWAP2 SUB SWAP1 REVERT JUMPDEST PUSH0 PUSH1 0x3 PUSH0 DUP2 SLOAD DUP1 SWAP3 SWAP2 SWAP1 PUSH2 0xAD1 SWAP1 PUSH2 0x3323 JUMP JUMPDEST SWAP2 SWAP1 POP SSTORE SWAP1 POP PUSH1 0x40 MLOAD DUP1 PUSH1 0xC0 ADD PUSH1 0x40 MSTORE DUP1 DUP3 DUP2 MSTORE PUSH1 0x20 ADD CALLER PUSH20 0xFFFFFFFFFFFFFFFFFFFFFFFFFFFFFFFFFFFFFFFF AND DUP2 MSTORE PUSH1 0x20 ADD DUP7 DUP2 MSTORE PUSH1 0x20 ADD PUSH0 DUP2 MSTORE PUSH1 0x20 ADD PUSH0 DUP2 MSTORE PUSH1 0x20 ADD TIMESTAMP DUP2 MSTORE POP PUSH1 0x5 PUSH0 DUP9 DUP2 MSTORE PUSH1 0x20 ADD SWAP1 DUP2 MSTORE PUSH1 0x20 ADD PUSH0 KECCAK256 PUSH0 DUP4 DUP2 MSTORE PUSH1 0x20 ADD SWAP1 DUP2 MSTORE PUSH1 0x20 ADD PUSH0 KECCAK256 PUSH0 DUP3 ADD MLOAD DUP2 PUSH0 ADD SSTORE PUSH1 0x20 DUP3 ADD MLOAD DUP2 PUSH1 0x1 ADD PUSH0 PUSH2 0x100 EXP DUP2 SLOAD DUP2 PUSH20 0xFFFFFFFFFFFFFFFFFFFFFFFFFFFFFFFFFFFFFFFF MUL NOT AND SWAP1 DUP4 PUSH20 0xFFFFFFFFFFFFFFFFFFFFFFFFFFFFFFFFFFFFFFFF AND MUL OR SWAP1 SSTORE POP PUSH1 0x40 DUP3 ADD MLOAD DUP2 PUSH1 0x2 ADD SWAP1 DUP2 PUSH2 0xB9D SWAP2 SWAP1 PUSH2 0x3507 JUMP JUMPDEST POP PUSH1 0x60 DUP3 ADD MLOAD DUP2 PUSH1 0x3 ADD SSTORE PUSH1 0x80 DUP3 ADD MLOAD DUP2 PUSH1 0x4 ADD SSTORE PUSH1 0xA0 DUP3 ADD MLOAD DUP2 PUSH1 0x5 ADD SSTORE SWAP1 POP POP CALLER PUSH20 0xFFFFFFFFFFFFFFFFFFFFFFFFFFFFFFFFFFFFFFFF AND PUSH32 0x1B72A809869907CAC4C4E55B8BF6920FF492D2FF53307BB77BA492366B61387C DUP8 DUP4 DUP9 PUSH1 0x40 MLOAD PUSH2 0xC09 SWAP4 SWAP3 SWAP2 SWAP1 PUSH2 0x35D6 JUMP JUMPDEST PUSH1 0x40 MLOAD DUP1 SWAP2 SUB SWAP1 LOG2 POP POP POP POP POP POP JUMP JUMPDEST PUSH1 0x5 PUSH1 0x20 MSTORE DUP2 PUSH0 MSTORE PUSH1 0x40 PUSH0 KECCAK256 PUSH1 0x20 MSTORE DUP1 PUSH0 MSTORE PUSH1 0x40 PUSH0 KECCAK256 PUSH0 SWAP2 POP SWAP2 POP POP DUP1 PUSH0 ADD SLOAD SWAP1 DUP1 PUSH1 0x1 ADD PUSH0 SWAP1 SLOAD SWAP1 PUSH2 0x100 EXP SWAP1 DIV PUSH20 0xFFFFFFFFFFFFFFFFFFFFFFFFFFFFFFFFFFFFFFFF AND SWAP1 DUP1 PUSH1 0x2 ADD DUP1 SLOAD PUSH2 0xC6E SWAP1 PUSH2 0x325E JUMP JUMPDEST DUP1 PUSH1 0x1F ADD PUSH1 0x20 DUP1 SWAP2 DIV MUL PUSH1 0x20 ADD PUSH1 0x40 MLOAD SWAP1 DUP2 ADD PUSH1 0x40 MSTORE DUP1 SWAP3 SWAP2 SWAP1 DUP2 DUP2 MSTORE PUSH1 0x20 ADD DUP3 DUP1 SLOAD PUSH2 0xC9A SWAP1 PUSH2 0x325E JUMP JUMPDEST DUP1 ISZERO PUSH2 0xCE5 JUMPI DUP1 PUSH1 0x1F LT PUSH2 0xCBC JUMPI PUSH2 0x100 DUP1 DUP4 SLOAD DIV MUL DUP4 MSTORE SWAP2 PUSH1 0x20 ADD SWAP2 PUSH2 0xCE5 JUMP JUMPDEST DUP3 ADD SWAP2 SWAP1 PUSH0 MSTORE PUSH1 0x20 PUSH0 KECCAK256 SWAP1 JUMPDEST DUP2 SLOAD DUP2 MSTORE SWAP1 PUSH1 0x1 ADD SWAP1 PUSH1 0x20 ADD DUP1 DUP4 GT PUSH2 0xCC8 JUMPI DUP3 SWAP1 SUB PUSH1 0x1F AND DUP3 ADD SWAP2 JUMPDEST POP POP POP POP POP SWAP1 DUP1 PUSH1 0x3 ADD SLOAD SWAP1 DUP1 PUSH1 0x4 ADD SLOAD SWAP1 DUP1 PUSH1 0x5 ADD SLOAD SWAP1 POP DUP7 JUMP JUMPDEST DUP2 PUSH0 PUSH20 0xFFFFFFFFFFFFFFFFFFFFFFFFFFFFFFFFFFFFFFFF AND PUSH1 0x4 PUSH0 DUP4 DUP2 MSTORE PUSH1 0x20 ADD SWAP1 DUP2 MSTORE PUSH1 0x20 ADD PUSH0 KECCAK256 PUSH1 0x1 ADD PUSH0 SWAP1 SLOAD SWAP1 PUSH2 0x100 EXP SWAP1 DIV PUSH20 0xFFFFFFFFFFFFFFFFFFFFFFFFFFFFFFFFFFFFFFFF AND PUSH20 0xFFFFFFFFFFFFFFFFFFFFFFFFFFFFFFFFFFFFFFFF AND SUB PUSH2 0xDA3 JUMPI PUSH1 0x40 MLOAD PUSH32 0x8C379A000000000000000000000000000000000000000000000000000000000 DUP2 MSTORE PUSH1 0x4 ADD PUSH2 0xD9A SWAP1 PUSH2 0x311C JUMP JUMPDEST PUSH1 0x40 MLOAD DUP1 SWAP2 SUB SWAP1 REVERT JUMPDEST DUP3 PUSH1 0x4 PUSH0 DUP3 DUP2 MSTORE PUSH1 0x20 ADD SWAP1 DUP2 MSTORE PUSH1 0x20 ADD PUSH0 KECCAK256 PUSH1 0x8 ADD PUSH0 SWAP1 SLOAD SWAP1 PUSH2 0x100 EXP SWAP1 DIV PUSH1 0xFF AND ISZERO PUSH2 0xE05 JUMPI PUSH1 0x40 MLOAD PUSH32 0x8C379A000000000000000000000000000000000000000000000000000000000 DUP2 MSTORE PUSH1 0x4 ADD PUSH2 0xDFC SWAP1 PUSH2 0x3184 JUMP JUMPDEST PUSH1 0x40 MLOAD DUP1 SWAP2 SUB SWAP1 REVERT JUMPDEST PUSH0 PUSH1 0x4 PUSH0 DUP7 DUP2 MSTORE PUSH1 0x20 ADD SWAP1 DUP2 MSTORE PUSH1 0x20 ADD PUSH0 KECCAK256 PUSH1 0x40 MLOAD DUP1 PUSH2 0x140 ADD PUSH1 0x40 MSTORE SWAP1 DUP2 PUSH0 DUP3 ADD SLOAD DUP2 MSTORE PUSH1 0x20 ADD PUSH1 0x1 DUP3 ADD PUSH0 SWAP1 SLOAD SWAP1 PUSH2 0x100 EXP SWAP1 DIV PUSH20 0xFFFFFFFFFFFFFFFFFFFFFFFFFFFFFFFFFFFFFFFF AND PUSH20 0xFFFFFFFFFFFFFFFFFFFFFFFFFFFFFFFFFFFFFFFF AND PUSH20 0xFFFFFFFFFFFFFFFFFFFFFFFFFFFFFFFFFFFFFFFF AND DUP2 MSTORE PUSH1 0x20 ADD PUSH1 0x2 DUP3 ADD DUP1 SLOAD PUSH2 0xE91 SWAP1 PUSH2 0x325E JUMP JUMPDEST DUP1 PUSH1 0x1F ADD PUSH1 0x20 DUP1 SWAP2 DIV MUL PUSH1 0x20 ADD PUSH1 0x40 MLOAD SWAP1 DUP2 ADD PUSH1 0x40 MSTORE DUP1 SWAP3 SWAP2 SWAP1 DUP2 DUP2 MSTORE PUSH1 0x20 ADD DUP3 DUP1 SLOAD PUSH2 0xEBD SWAP1 PUSH2 0x325E JUMP JUMPDEST DUP1 ISZERO PUSH2 0xF08 JUMPI DUP1 PUSH1 0x1F LT PUSH2 0xEDF JUMPI PUSH2 0x100 DUP1 DUP4 SLOAD DIV MUL DUP4 MSTORE SWAP2 PUSH1 0x20 ADD SWAP2 PUSH2 0xF08 JUMP JUMPDEST DUP3 ADD SWAP2 SWAP1 PUSH0 MSTORE PUSH1 0x20 PUSH0 KECCAK256 SWAP1 JUMPDEST DUP2 SLOAD DUP2 MSTORE SWAP1 PUSH1 0x1 ADD SWAP1 PUSH1 0x20 ADD DUP1 DUP4 GT PUSH2 0xEEB JUMPI DUP3 SWAP1 SUB PUSH1 0x1F AND DUP3 ADD SWAP2 JUMPDEST POP POP POP POP POP DUP2 MSTORE PUSH1 0x20 ADD PUSH1 0x3 DUP3 ADD DUP1 SLOAD PUSH2 0xF21 SWAP1 PUSH2 0x325E JUMP JUMPDEST DUP1 PUSH1 0x1F ADD PUSH1 0x20 DUP1 SWAP2 DIV MUL PUSH1 0x20 ADD PUSH1 0x40 MLOAD SWAP1 DUP2 ADD PUSH1 0x40 MSTORE DUP1 SWAP3 SWAP2 SWAP1 DUP2 DUP2 MSTORE PUSH1 0x20 ADD DUP3 DUP1 SLOAD PUSH2 0xF4D SWAP1 PUSH2 0x325E JUMP JUMPDEST DUP1 ISZERO PUSH2 0xF98 JUMPI DUP1 PUSH1 0x1F LT PUSH2 0xF6F JUMPI PUSH2 0x100 DUP1 DUP4 SLOAD DIV MUL DUP4 MSTORE SWAP2 PUSH1 0x20 ADD SWAP2 PUSH2 0xF98 JUMP JUMPDEST DUP3 ADD SWAP2 SWAP1 PUSH0 MSTORE PUSH1 0x20 PUSH0 KECCAK256 SWAP1 JUMPDEST DUP2 SLOAD DUP2 MSTORE SWAP1 PUSH1 0x1 ADD SWAP1 PUSH1 0x20 ADD DUP1 DUP4 GT PUSH2 0xF7B JUMPI DUP3 SWAP1 SUB PUSH1 0x1F AND DUP3 ADD SWAP2 JUMPDEST POP POP POP POP POP DUP2 MSTORE PUSH1 0x20 ADD PUSH1 0x4 DUP3 ADD DUP1 SLOAD PUSH2 0xFB1 SWAP1 PUSH2 0x325E JUMP JUMPDEST DUP1 PUSH1 0x1F ADD PUSH1 0x20 DUP1 SWAP2 DIV MUL PUSH1 0x20 ADD PUSH1 0x40 MLOAD SWAP1 DUP2 ADD PUSH1 0x40 MSTORE DUP1 SWAP3 SWAP2 SWAP1 DUP2 DUP2 MSTORE PUSH1 0x20 ADD DUP3 DUP1 SLOAD PUSH2 0xFDD SWAP1 PUSH2 0x325E JUMP JUMPDEST DUP1 ISZERO PUSH2 0x1028 JUMPI DUP1 PUSH1 0x1F LT PUSH2 0xFFF JUMPI PUSH2 0x100 DUP1 DUP4 SLOAD DIV MUL DUP4 MSTORE SWAP2 PUSH1 0x20 ADD SWAP2 PUSH2 0x1028 JUMP JUMPDEST DUP3 ADD SWAP2 SWAP1 PUSH0 MSTORE PUSH1 0x20 PUSH0 KECCAK256 SWAP1 JUMPDEST DUP2 SLOAD DUP2 MSTORE SWAP1 PUSH1 0x1 ADD SWAP1 PUSH1 0x20 ADD DUP1 DUP4 GT PUSH2 0x100B JUMPI DUP3 SWAP1 SUB PUSH1 0x1F AND DUP3 ADD SWAP2 JUMPDEST POP POP POP POP POP DUP2 MSTORE PUSH1 0x20 ADD PUSH1 0x5 DUP3 ADD SLOAD DUP2 MSTORE PUSH1 0x20 ADD PUSH1 0x6 DUP3 ADD SLOAD DUP2 MSTORE PUSH1 0x20 ADD PUSH1 0x7 DUP3 ADD SLOAD DUP2 MSTORE PUSH1 0x20 ADD PUSH1 0x8 DUP3 ADD PUSH0 SWAP1 SLOAD SWAP1 PUSH2 0x100 EXP SWAP1 DIV PUSH1 0xFF AND ISZERO ISZERO ISZERO ISZERO DUP2 MSTORE PUSH1 0x20 ADD PUSH1 0x9 DUP3 ADD SLOAD DUP2 MSTORE POP POP SWAP1 POP DUP1 PUSH1 0xE0 ADD MLOAD TIMESTAMP GT ISZERO PUSH2 0x10BC JUMPI PUSH1 0x40 MLOAD PUSH32 0x8C379A000000000000000000000000000000000000000000000000000000000 DUP2 MSTORE PUSH1 0x4 ADD PUSH2 0x10B3 SWAP1 PUSH2 0x365C JUMP JUMPDEST PUSH1 0x40 MLOAD DUP1 SWAP2 SUB SWAP1 REVERT JUMPDEST PUSH1 0x1 SLOAD CALLVALUE EQ PUSH2 0x1100 JUMPI PUSH1 0x40 MLOAD PUSH32 0x8C379A000000000000000000000000000000000000000000000000000000000 DUP2 MSTORE PUSH1 0x4 ADD PUSH2 0x10F7 SWAP1 PUSH2 0x36C4 JUMP JUMPDEST PUSH1 0x40 MLOAD DUP1 SWAP2 SUB SWAP1 REVERT JUMPDEST PUSH0 PUSH1 0x5 PUSH0 DUP8 DUP2 MSTORE PUSH1 0x20 ADD SWAP1 DUP2 MSTORE PUSH1 0x20 ADD PUSH0 KECCAK256 PUSH0 DUP7 DUP2 MSTORE PUSH1 0x20 ADD SWAP1 DUP2 MSTORE PUSH1 0x20 ADD PUSH0 KECCAK256 SWAP1 POP PUSH1 0x1 DUP2 PUSH1 0x3 ADD PUSH0 DUP3 DUP3 SLOAD PUSH2 0x1137 SWAP2 SWAP1 PUSH2 0x36E2 JUMP JUMPDEST SWAP3 POP POP DUP2 SWAP1 SSTORE POP CALLVALUE PUSH1 0x4 PUSH0 DUP9 DUP2 MSTORE PUSH1 0x20 ADD SWAP1 DUP2 MSTORE PUSH1 0x20 ADD PUSH0 KECCAK256 PUSH1 0x5 ADD PUSH0 DUP3 DUP3 SLOAD PUSH2 0x1161 SWAP2 SWAP1 PUSH2 0x36E2 JUMP JUMPDEST SWAP3 POP POP DUP2 SWAP1 SSTORE POP CALLER PUSH20 0xFFFFFFFFFFFFFFFFFFFFFFFFFFFFFFFFFFFFFFFF AND PUSH32 0xD91ECAFCCF238642DCCD41161308B3EEBE62A12BC5819DAF5164780C221EC95B DUP8 DUP8 PUSH1 0x40 MLOAD PUSH2 0x11B0 SWAP3 SWAP2 SWAP1 PUSH2 0x320A JUMP JUMPDEST PUSH1 0x40 MLOAD DUP1 SWAP2 SUB SWAP1 LOG2 POP POP POP POP POP POP JUMP JUMPDEST PUSH1 0x6 PUSH1 0x20 MSTORE DUP1 PUSH0 MSTORE PUSH1 0x40 PUSH0 KECCAK256 PUSH0 SWAP2 POP SWAP1 POP SLOAD DUP2 JUMP JUMPDEST PUSH1 0x4 PUSH1 0x20 MSTORE DUP1 PUSH0 MSTORE PUSH1 0x40 PUSH0 KECCAK256 PUSH0 SWAP2 POP SWAP1 POP DUP1 PUSH0 ADD SLOAD SWAP1 DUP1 PUSH1 0x1 ADD PUSH0 SWAP1 SLOAD SWAP1 PUSH2 0x100 EXP SWAP1 DIV PUSH20 0xFFFFFFFFFFFFFFFFFFFFFFFFFFFFFFFFFFFFFFFF AND SWAP1 DUP1 PUSH1 0x2 ADD DUP1 SLOAD PUSH2 0x121F SWAP1 PUSH2 0x325E JUMP JUMPDEST DUP1 PUSH1 0x1F ADD PUSH1 0x20 DUP1 SWAP2 DIV MUL PUSH1 0x20 ADD PUSH1 0x40 MLOAD SWAP1 DUP2 ADD PUSH1 0x40 MSTORE DUP1 SWAP3 SWAP2 SWAP1 DUP2 DUP2 MSTORE PUSH1 0x20 ADD DUP3 DUP1 SLOAD PUSH2 0x124B SWAP1 PUSH2 0x325E JUMP JUMPDEST DUP1 ISZERO PUSH2 0x1296 JUMPI DUP1 PUSH1 0x1F LT PUSH2 0x126D JUMPI PUSH2 0x100 DUP1 DUP4 SLOAD DIV MUL DUP4 MSTORE SWAP2 PUSH1 0x20 ADD SWAP2 PUSH2 0x1296 JUMP JUMPDEST DUP3 ADD SWAP2 SWAP1 PUSH0 MSTORE PUSH1 0x20 PUSH0 KECCAK256 SWAP1 JUMPDEST DUP2 SLOAD DUP2 MSTORE SWAP1 PUSH1 0x1 ADD SWAP1 PUSH1 0x20 ADD DUP1 DUP4 GT PUSH2 0x1279 JUMPI DUP3 SWAP1 SUB PUSH1 0x1F AND DUP3 ADD SWAP2 JUMPDEST POP POP POP POP POP SWAP1 DUP1 PUSH1 0x3 ADD DUP1 SLOAD PUSH2 0x12AB SWAP1 PUSH2 0x325E JUMP JUMPDEST DUP1 PUSH1 0x1F ADD PUSH1 0x20 DUP1 SWAP2 DIV MUL PUSH1 0x20 ADD PUSH1 0x40 MLOAD SWAP1 DUP2 ADD PUSH1 0x40 MSTORE DUP1 SWAP3 SWAP2 SWAP1 DUP2 DUP2 MSTORE PUSH1 0x20 ADD DUP3 DUP1 SLOAD PUSH2 0x12D7 SWAP1 PUSH2 0x325E JUMP JUMPDEST DUP1 ISZERO PUSH2 0x1322 JUMPI DUP1 PUSH1 0x1F LT PUSH2 0x12F9 JUMPI PUSH2 0x100 DUP1 DUP4 SLOAD DIV MUL DUP4 MSTORE SWAP2 PUSH1 0x20 ADD SWAP2 PUSH2 0x1322 JUMP JUMPDEST DUP3 ADD SWAP2 SWAP1 PUSH0 MSTORE PUSH1 0x20 PUSH0 KECCAK256 SWAP1 JUMPDEST DUP2 SLOAD DUP2 MSTORE SWAP1 PUSH1 0x1 ADD SWAP1 PUSH1 0x20 ADD DUP1 DUP4 GT PUSH2 0x1305 JUMPI DUP3 SWAP1 SUB PUSH1 0x1F AND DUP3 ADD SWAP2 JUMPDEST POP POP POP POP POP SWAP1 DUP1 PUSH1 0x4 ADD DUP1 SLOAD PUSH2 0x1337 SWAP1 PUSH2 0x325E JUMP JUMPDEST DUP1 PUSH1 0x1F ADD PUSH1 0x20 DUP1 SWAP2 DIV MUL PUSH1 0x20 ADD PUSH1 0x40 MLOAD SWAP1 DUP2 ADD PUSH1 0x40 MSTORE DUP1 SWAP3 SWAP2 SWAP1 DUP2 DUP2 MSTORE PUSH1 0x20 ADD DUP3 DUP1 SLOAD PUSH2 0x1363 SWAP1 PUSH2 0x325E JUMP JUMPDEST DUP1 ISZERO PUSH2 0x13AE JUMPI DUP1 PUSH1 0x1F LT PUSH2 0x1385 JUMPI PUSH2 0x100 DUP1 DUP4 SLOAD DIV MUL DUP4 MSTORE SWAP2 PUSH1 0x20 ADD SWAP2 PUSH2 0x13AE JUMP JUMPDEST DUP3 ADD SWAP2 SWAP1 PUSH0 MSTORE PUSH1 0x20 PUSH0 KECCAK256 SWAP1 JUMPDEST DUP2 SLOAD DUP2 MSTORE SWAP1 PUSH1 0x1 ADD SWAP1 PUSH1 0x20 ADD DUP1 DUP4 GT PUSH2 0x1391 JUMPI DUP3 SWAP1 SUB PUSH1 0x1F AND DUP3 ADD SWAP2 JUMPDEST POP POP POP POP POP SWAP1 DUP1 PUSH1 0x5 ADD SLOAD SWAP1 DUP1 PUSH1 0x6 ADD SLOAD SWAP1 DUP1 PUSH1 0x7 ADD SLOAD SWAP1 DUP1 PUSH1 0x8 ADD PUSH0 SWAP1 SLOAD SWAP1 PUSH2 0x100 EXP SWAP1 DIV PUSH1 0xFF AND SWAP1 DUP1 PUSH1 0x9 ADD SLOAD SWAP1 POP DUP11 JUMP JUMPDEST PUSH0 PUSH1 0x6 PUSH0 CALLER PUSH20 0xFFFFFFFFFFFFFFFFFFFFFFFFFFFFFFFFFFFFFFFF AND PUSH20 0xFFFFFFFFFFFFFFFFFFFFFFFFFFFFFFFFFFFFFFFF AND DUP2 MSTORE PUSH1 0x20 ADD SWAP1 DUP2 MSTORE PUSH1 0x20 ADD PUSH0 KECCAK256 SLOAD SWAP1 POP PUSH0 DUP2 GT PUSH2 0x1465 JUMPI PUSH1 0x40 MLOAD PUSH32 0x8C379A000000000000000000000000000000000000000000000000000000000 DUP2 MSTORE PUSH1 0x4 ADD PUSH2 0x145C SWAP1 PUSH2 0x375F JUMP JUMPDEST PUSH1 0x40 MLOAD DUP1 SWAP2 SUB SWAP1 REVERT JUMPDEST PUSH0 PUSH1 0x6 PUSH0 CALLER PUSH20 0xFFFFFFFFFFFFFFFFFFFFFFFFFFFFFFFFFFFFFFFF AND PUSH20 0xFFFFFFFFFFFFFFFFFFFFFFFFFFFFFFFFFFFFFFFF AND DUP2 MSTORE PUSH1 0x20 ADD SWAP1 DUP2 MSTORE PUSH1 0x20 ADD PUSH0 KECCAK256 DUP2 SWAP1 SSTORE POP CALLER PUSH20 0xFFFFFFFFFFFFFFFFFFFFFFFFFFFFFFFFFFFFFFFF AND PUSH2 0x8FC DUP3 SWAP1 DUP2 ISZERO MUL SWAP1 PUSH1 0x40 MLOAD PUSH0 PUSH1 0x40 MLOAD DUP1 DUP4 SUB DUP2 DUP6 DUP9 DUP9 CALL SWAP4 POP POP POP POP ISZERO DUP1 ISZERO PUSH2 0x14EA JUMPI RETURNDATASIZE PUSH0 DUP1 RETURNDATACOPY RETURNDATASIZE PUSH0 REVERT JUMPDEST POP POP JUMP JUMPDEST PUSH2 0x14F6 PUSH2 0x25B6 JUMP JUMPDEST PUSH0 PUSH20 0xFFFFFFFFFFFFFFFFFFFFFFFFFFFFFFFFFFFFFFFF AND PUSH1 0x5 PUSH0 DUP6 DUP2 MSTORE PUSH1 0x20 ADD SWAP1 DUP2 MSTORE PUSH1 0x20 ADD PUSH0 KECCAK256 PUSH0 DUP5 DUP2 MSTORE PUSH1 0x20 ADD SWAP1 DUP2 MSTORE PUSH1 0x20 ADD PUSH0 KECCAK256 PUSH1 0x1 ADD PUSH0 SWAP1 SLOAD SWAP1 PUSH2 0x100 EXP SWAP1 DIV PUSH20 0xFFFFFFFFFFFFFFFFFFFFFFFFFFFFFFFFFFFFFFFF AND PUSH20 0xFFFFFFFFFFFFFFFFFFFFFFFFFFFFFFFFFFFFFFFF AND SUB PUSH2 0x15A6 JUMPI PUSH1 0x40 MLOAD PUSH32 0x8C379A000000000000000000000000000000000000000000000000000000000 DUP2 MSTORE PUSH1 0x4 ADD PUSH2 0x159D SWAP1 PUSH2 0x37C7 JUMP JUMPDEST PUSH1 0x40 MLOAD DUP1 SWAP2 SUB SWAP1 REVERT JUMPDEST PUSH1 0x5 PUSH0 DUP5 DUP2 MSTORE PUSH1 0x20 ADD SWAP1 DUP2 MSTORE PUSH1 0x20 ADD PUSH0 KECCAK256 PUSH0 DUP4 DUP2 MSTORE PUSH1 0x20 ADD SWAP1 DUP2 MSTORE PUSH1 0x20 ADD PUSH0 KECCAK256 PUSH1 0x40 MLOAD DUP1 PUSH1 0xC0 ADD PUSH1 0x40 MSTORE SWAP1 DUP2 PUSH0 DUP3 ADD SLOAD DUP2 MSTORE PUSH1 0x20 ADD PUSH1 0x1 DUP3 ADD PUSH0 SWAP1 SLOAD SWAP1 PUSH2 0x100 EXP SWAP1 DIV PUSH20 0xFFFFFFFFFFFFFFFFFFFFFFFFFFFFFFFFFFFFFFFF AND PUSH20 0xFFFFFFFFFFFFFFFFFFFFFFFFFFFFFFFFFFFFFFFF AND PUSH20 0xFFFFFFFFFFFFFFFFFFFFFFFFFFFFFFFFFFFFFFFF AND DUP2 MSTORE PUSH1 0x20 ADD PUSH1 0x2 DUP3 ADD DUP1 SLOAD PUSH2 0x163F SWAP1 PUSH2 0x325E JUMP JUMPDEST DUP1 PUSH1 0x1F ADD PUSH1 0x20 DUP1 SWAP2 DIV MUL PUSH1 0x20 ADD PUSH1 0x40 MLOAD SWAP1 DUP2 ADD PUSH1 0x40 MSTORE DUP1 SWAP3 SWAP2 SWAP1 DUP2 DUP2 MSTORE PUSH1 0x20 ADD DUP3 DUP1 SLOAD PUSH2 0x166B SWAP1 PUSH2 0x325E JUMP JUMPDEST DUP1 ISZERO PUSH2 0x16B6 JUMPI DUP1 PUSH1 0x1F LT PUSH2 0x168D JUMPI PUSH2 0x100 DUP1 DUP4 SLOAD DIV MUL DUP4 MSTORE SWAP2 PUSH1 0x20 ADD SWAP2 PUSH2 0x16B6 JUMP JUMPDEST DUP3 ADD SWAP2 SWAP1 PUSH0 MSTORE PUSH1 0x20 PUSH0 KECCAK256 SWAP1 JUMPDEST DUP2 SLOAD DUP2 MSTORE SWAP1 PUSH1 0x1 ADD SWAP1 PUSH1 0x20 ADD DUP1 DUP4 GT PUSH2 0x1699 JUMPI DUP3 SWAP1 SUB PUSH1 0x1F AND DUP3 ADD SWAP2 JUMPDEST POP POP POP POP POP DUP2 MSTORE PUSH1 0x20 ADD PUSH1 0x3 DUP3 ADD SLOAD DUP2 MSTORE PUSH1 0x20 ADD PUSH1 0x4 DUP3 ADD SLOAD DUP2 MSTORE PUSH1 0x20 ADD PUSH1 0x5 DUP3 ADD SLOAD DUP2 MSTORE POP POP SWAP1 POP SWAP3 SWAP2 POP POP JUMP JUMPDEST PUSH1 0x60 PUSH0 PUSH1 0x2 SLOAD PUSH8 0xFFFFFFFFFFFFFFFF DUP2 GT ISZERO PUSH2 0x1704 JUMPI PUSH2 0x1703 PUSH2 0x26FB JUMP JUMPDEST JUMPDEST PUSH1 0x40 MLOAD SWAP1 DUP1 DUP3 MSTORE DUP1 PUSH1 0x20 MUL PUSH1 0x20 ADD DUP3 ADD PUSH1 0x40 MSTORE DUP1 ISZERO PUSH2 0x1732 JUMPI DUP2 PUSH1 0x20 ADD PUSH1 0x20 DUP3 MUL DUP1 CALLDATASIZE DUP4 CALLDATACOPY DUP1 DUP3 ADD SWAP2 POP POP SWAP1 POP JUMPDEST POP SWAP1 POP PUSH0 DUP1 JUMPDEST PUSH1 0x2 SLOAD DUP2 LT ISZERO PUSH2 0x17B4 JUMPI DUP5 DUP1 MLOAD SWAP1 PUSH1 0x20 ADD KECCAK256 PUSH1 0x4 PUSH0 DUP4 DUP2 MSTORE PUSH1 0x20 ADD SWAP1 DUP2 MSTORE PUSH1 0x20 ADD PUSH0 KECCAK256 PUSH1 0x4 ADD PUSH1 0x40 MLOAD PUSH2 0x176B SWAP2 SWAP1 PUSH2 0x3881 JUMP JUMPDEST PUSH1 0x40 MLOAD DUP1 SWAP2 SUB SWAP1 KECCAK256 SUB PUSH2 0x17A7 JUMPI DUP1 DUP4 DUP4 DUP2 MLOAD DUP2 LT PUSH2 0x178C JUMPI PUSH2 0x178B PUSH2 0x3897 JUMP JUMPDEST JUMPDEST PUSH1 0x20 MUL PUSH1 0x20 ADD ADD DUP2 DUP2 MSTORE POP POP DUP2 DUP1 PUSH2 0x17A3 SWAP1 PUSH2 0x3323 JUMP JUMPDEST SWAP3 POP POP JUMPDEST DUP1 DUP1 PUSH1 0x1 ADD SWAP2 POP POP PUSH2 0x1738 JUMP JUMPDEST POP PUSH0 DUP2 PUSH8 0xFFFFFFFFFFFFFFFF DUP2 GT ISZERO PUSH2 0x17D0 JUMPI PUSH2 0x17CF PUSH2 0x26FB JUMP JUMPDEST JUMPDEST PUSH1 0x40 MLOAD SWAP1 DUP1 DUP3 MSTORE DUP1 PUSH1 0x20 MUL PUSH1 0x20 ADD DUP3 ADD PUSH1 0x40 MSTORE DUP1 ISZERO PUSH2 0x17FE JUMPI DUP2 PUSH1 0x20 ADD PUSH1 0x20 DUP3 MUL DUP1 CALLDATASIZE DUP4 CALLDATACOPY DUP1 DUP3 ADD SWAP2 POP POP SWAP1 POP JUMPDEST POP SWAP1 POP PUSH0 JUMPDEST DUP3 DUP2 LT ISZERO PUSH2 0x1852 JUMPI DUP4 DUP2 DUP2 MLOAD DUP2 LT PUSH2 0x181E JUMPI PUSH2 0x181D PUSH2 0x3897 JUMP JUMPDEST JUMPDEST PUSH1 0x20 MUL PUSH1 0x20 ADD ADD MLOAD DUP3 DUP3 DUP2 MLOAD DUP2 LT PUSH2 0x1839 JUMPI PUSH2 0x1838 PUSH2 0x3897 JUMP JUMPDEST JUMPDEST PUSH1 0x20 MUL PUSH1 0x20 ADD ADD DUP2 DUP2 MSTORE POP POP DUP1 DUP1 PUSH1 0x1 ADD SWAP2 POP POP PUSH2 0x1803 JUMP JUMPDEST POP DUP1 SWAP4 POP POP POP POP SWAP2 SWAP1 POP JUMP JUMPDEST PUSH0 CALLVALUE GT PUSH2 0x18A0 JUMPI PUSH1 0x40 MLOAD PUSH32 0x8C379A000000000000000000000000000000000000000000000000000000000 DUP2 MSTORE PUSH1 0x4 ADD PUSH2 0x1897 SWAP1 PUSH2 0x390E JUMP JUMPDEST PUSH1 0x40 MLOAD DUP1 SWAP2 SUB SWAP1 REVERT JUMPDEST PUSH0 DUP3 MLOAD GT PUSH2 0x18E3 JUMPI PUSH1 0x40 MLOAD PUSH32 0x8C379A000000000000000000000000000000000000000000000000000000000 DUP2 MSTORE PUSH1 0x4 ADD PUSH2 0x18DA SWAP1 PUSH2 0x3976 JUMP JUMPDEST PUSH1 0x40 MLOAD DUP1 SWAP2 SUB SWAP1 REVERT JUMPDEST PUSH0 DUP1 PUSH1 0x2 DUP2 GT ISZERO PUSH2 0x18F7 JUMPI PUSH2 0x18F6 PUSH2 0x3994 JUMP JUMPDEST JUMPDEST DUP3 PUSH1 0x2 DUP2 GT ISZERO PUSH2 0x190A JUMPI PUSH2 0x1909 PUSH2 0x3994 JUMP JUMPDEST JUMPDEST SUB PUSH2 0x1925 JUMPI PUSH3 0x93A80 TIMESTAMP PUSH2 0x191E SWAP2 SWAP1 PUSH2 0x36E2 JUMP JUMPDEST SWAP1 POP PUSH2 0x19A6 JUMP JUMPDEST PUSH1 0x1 PUSH1 0x2 DUP2 GT ISZERO PUSH2 0x1939 JUMPI PUSH2 0x1938 PUSH2 0x3994 JUMP JUMPDEST JUMPDEST DUP3 PUSH1 0x2 DUP2 GT ISZERO PUSH2 0x194C JUMPI PUSH2 0x194B PUSH2 0x3994 JUMP JUMPDEST JUMPDEST SUB PUSH2 0x1967 JUMPI PUSH3 0x127500 TIMESTAMP PUSH2 0x1960 SWAP2 SWAP1 PUSH2 0x36E2 JUMP JUMPDEST SWAP1 POP PUSH2 0x19A5 JUMP JUMPDEST PUSH1 0x2 DUP1 DUP2 GT ISZERO PUSH2 0x197A JUMPI PUSH2 0x1979 PUSH2 0x3994 JUMP JUMPDEST JUMPDEST DUP3 PUSH1 0x2 DUP2 GT ISZERO PUSH2 0x198D JUMPI PUSH2 0x198C PUSH2 0x3994 JUMP JUMPDEST JUMPDEST SUB PUSH2 0x19A4 JUMPI PUSH3 0x278D00 TIMESTAMP PUSH2 0x19A1 SWAP2 SWAP1 PUSH2 0x36E2 JUMP JUMPDEST SWAP1 POP JUMPDEST JUMPDEST JUMPDEST PUSH0 PUSH1 0x2 PUSH0 DUP2 SLOAD DUP1 SWAP3 SWAP2 SWAP1 PUSH2 0x19B9 SWAP1 PUSH2 0x3323 JUMP JUMPDEST SWAP2 SWAP1 POP SSTORE SWAP1 POP PUSH1 0x40 MLOAD DUP1 PUSH2 0x140 ADD PUSH1 0x40 MSTORE DUP1 DUP3 DUP2 MSTORE PUSH1 0x20 ADD CALLER PUSH20 0xFFFFFFFFFFFFFFFFFFFFFFFFFFFFFFFFFFFFFFFF AND DUP2 MSTORE PUSH1 0x20 ADD DUP8 DUP2 MSTORE PUSH1 0x20 ADD DUP7 DUP2 MSTORE PUSH1 0x20 ADD DUP6 DUP2 MSTORE PUSH1 0x20 ADD CALLVALUE DUP2 MSTORE PUSH1 0x20 ADD TIMESTAMP DUP2 MSTORE PUSH1 0x20 ADD DUP4 DUP2 MSTORE PUSH1 0x20 ADD PUSH0 ISZERO ISZERO DUP2 MSTORE PUSH1 0x20 ADD PUSH0 DUP2 MSTORE POP PUSH1 0x4 PUSH0 DUP4 DUP2 MSTORE PUSH1 0x20 ADD SWAP1 DUP2 MSTORE PUSH1 0x20 ADD PUSH0 KECCAK256 PUSH0 DUP3 ADD MLOAD DUP2 PUSH0 ADD SSTORE PUSH1 0x20 DUP3 ADD MLOAD DUP2 PUSH1 0x1 ADD PUSH0 PUSH2 0x100 EXP DUP2 SLOAD DUP2 PUSH20 0xFFFFFFFFFFFFFFFFFFFFFFFFFFFFFFFFFFFFFFFF MUL NOT AND SWAP1 DUP4 PUSH20 0xFFFFFFFFFFFFFFFFFFFFFFFFFFFFFFFFFFFFFFFF AND MUL OR SWAP1 SSTORE POP PUSH1 0x40 DUP3 ADD MLOAD DUP2 PUSH1 0x2 ADD SWAP1 DUP2 PUSH2 0x1A91 SWAP2 SWAP1 PUSH2 0x3507 JUMP JUMPDEST POP PUSH1 0x60 DUP3 ADD MLOAD DUP2 PUSH1 0x3 ADD SWAP1 DUP2 PUSH2 0x1AA7 SWAP2 SWAP1 PUSH2 0x3507 JUMP JUMPDEST POP PUSH1 0x80 DUP3 ADD MLOAD DUP2 PUSH1 0x4 ADD SWAP1 DUP2 PUSH2 0x1ABD SWAP2 SWAP1 PUSH2 0x3507 JUMP JUMPDEST POP PUSH1 0xA0 DUP3 ADD MLOAD DUP2 PUSH1 0x5 ADD SSTORE PUSH1 0xC0 DUP3 ADD MLOAD DUP2 PUSH1 0x6 ADD SSTORE PUSH1 0xE0 DUP3 ADD MLOAD DUP2 PUSH1 0x7 ADD SSTORE PUSH2 0x100 DUP3 ADD MLOAD DUP2 PUSH1 0x8 ADD PUSH0 PUSH2 0x100 EXP DUP2 SLOAD DUP2 PUSH1 0xFF MUL NOT AND SWAP1 DUP4 ISZERO ISZERO MUL OR SWAP1 SSTORE POP PUSH2 0x120 DUP3 ADD MLOAD DUP2 PUSH1 0x9 ADD SSTORE SWAP1 POP POP CALLER PUSH20 0xFFFFFFFFFFFFFFFFFFFFFFFFFFFFFFFFFFFFFFFF AND PUSH32 0xB8105899D34D8481E717A601E8D7A732C27B0AB23778E01145F2F3EB24A1120C DUP3 DUP9 CALLVALUE DUP9 PUSH1 0x40 MLOAD PUSH2 0x1B56 SWAP5 SWAP4 SWAP3 SWAP2 SWAP1 PUSH2 0x39C1 JUMP JUMPDEST PUSH1 0x40 MLOAD DUP1 SWAP2 SUB SWAP1 LOG2 POP POP POP POP POP POP JUMP JUMPDEST DUP1 PUSH0 PUSH20 0xFFFFFFFFFFFFFFFFFFFFFFFFFFFFFFFFFFFFFFFF AND PUSH1 0x4 PUSH0 DUP4 DUP2 MSTORE PUSH1 0x20 ADD SWAP1 DUP2 MSTORE PUSH1 0x20 ADD PUSH0 KECCAK256 PUSH1 0x1 ADD PUSH0 SWAP1 SLOAD SWAP1 PUSH2 0x100 EXP SWAP1 DIV PUSH20 0xFFFFFFFFFFFFFFFFFFFFFFFFFFFFFFFFFFFFFFFF AND PUSH20 0xFFFFFFFFFFFFFFFFFFFFFFFFFFFFFFFFFFFFFFFF AND SUB PUSH2 0x1C08 JUMPI PUSH1 0x40 MLOAD PUSH32 0x8C379A000000000000000000000000000000000000000000000000000000000 DUP2 MSTORE PUSH1 0x4 ADD PUSH2 0x1BFF SWAP1 PUSH2 0x311C JUMP JUMPDEST PUSH1 0x40 MLOAD DUP1 SWAP2 SUB SWAP1 REVERT JUMPDEST PUSH0 PUSH1 0x4 PUSH0 DUP5 DUP2 MSTORE PUSH1 0x20 ADD SWAP1 DUP2 MSTORE PUSH1 0x20 ADD PUSH0 KECCAK256 SWAP1 POP DUP1 PUSH1 0x7 ADD SLOAD TIMESTAMP GT PUSH2 0x1C62 JUMPI PUSH1 0x40 MLOAD PUSH32 0x8C379A000000000000000000000000000000000000000000000000000000000 DUP2 MSTORE PUSH1 0x4 ADD PUSH2 0x1C59 SWAP1 PUSH2 0x3A82 JUMP JUMPDEST PUSH1 0x40 MLOAD DUP1 SWAP2 SUB SWAP1 REVERT JUMPDEST DUP1 PUSH1 0x8 ADD PUSH0 SWAP1 SLOAD SWAP1 PUSH2 0x100 EXP SWAP1 DIV PUSH1 0xFF AND ISZERO PUSH2 0x1CB3 JUMPI PUSH1 0x40 MLOAD PUSH32 0x8C379A000000000000000000000000000000000000000000000000000000000 DUP2 MSTORE PUSH1 0x4 ADD PUSH2 0x1CAA SWAP1 PUSH2 0x3184 JUMP JUMPDEST PUSH1 0x40 MLOAD DUP1 SWAP2 SUB SWAP1 REVERT JUMPDEST PUSH0 DUP1 DUP3 PUSH1 0x5 ADD SLOAD SWAP1 POP PUSH0 JUMPDEST PUSH1 0x3 SLOAD DUP2 LT ISZERO PUSH2 0x1D06 JUMPI PUSH1 0x5 PUSH0 DUP8 DUP2 MSTORE PUSH1 0x20 ADD SWAP1 DUP2 MSTORE PUSH1 0x20 ADD PUSH0 KECCAK256 PUSH0 DUP3 DUP2 MSTORE PUSH1 0x20 ADD SWAP1 DUP2 MSTORE PUSH1 0x20 ADD PUSH0 KECCAK256 PUSH1 0x3 ADD SLOAD DUP4 PUSH2 0x1CF7 SWAP2 SWAP1 PUSH2 0x36E2 JUMP JUMPDEST SWAP3 POP DUP1 DUP1 PUSH1 0x1 ADD SWAP2 POP POP PUSH2 0x1CBE JUMP JUMPDEST POP PUSH0 JUMPDEST PUSH1 0x3 SLOAD DUP2 LT ISZERO PUSH2 0x1DFC JUMPI PUSH0 PUSH1 0x5 PUSH0 DUP9 DUP2 MSTORE PUSH1 0x20 ADD SWAP1 DUP2 MSTORE PUSH1 0x20 ADD PUSH0 KECCAK256 PUSH0 DUP4 DUP2 MSTORE PUSH1 0x20 ADD SWAP1 DUP2 MSTORE PUSH1 0x20 ADD PUSH0 KECCAK256 SWAP1 POP PUSH0 DUP5 GT ISZERO PUSH2 0x1DEE JUMPI PUSH0 DUP5 DUP5 DUP4 PUSH1 0x3 ADD SLOAD PUSH2 0x1D50 SWAP2 SWAP1 PUSH2 0x3AA0 JUMP JUMPDEST PUSH2 0x1D5A SWAP2 SWAP1 PUSH2 0x3B0E JUMP JUMPDEST SWAP1 POP DUP1 DUP3 PUSH1 0x4 ADD PUSH0 DUP3 DUP3 SLOAD PUSH2 0x1D6F SWAP2 SWAP1 PUSH2 0x36E2 JUMP JUMPDEST SWAP3 POP POP DUP2 SWAP1 SSTORE POP DUP1 PUSH1 0x6 PUSH0 DUP5 PUSH1 0x1 ADD PUSH0 SWAP1 SLOAD SWAP1 PUSH2 0x100 EXP SWAP1 DIV PUSH20 0xFFFFFFFFFFFFFFFFFFFFFFFFFFFFFFFFFFFFFFFF AND PUSH20 0xFFFFFFFFFFFFFFFFFFFFFFFFFFFFFFFFFFFFFFFF AND PUSH20 0xFFFFFFFFFFFFFFFFFFFFFFFFFFFFFFFFFFFFFFFF AND DUP2 MSTORE PUSH1 0x20 ADD SWAP1 DUP2 MSTORE PUSH1 0x20 ADD PUSH0 KECCAK256 PUSH0 DUP3 DUP3 SLOAD PUSH2 0x1DE5 SWAP2 SWAP1 PUSH2 0x36E2 JUMP JUMPDEST SWAP3 POP POP DUP2 SWAP1 SSTORE POP POP JUMPDEST POP DUP1 DUP1 PUSH1 0x1 ADD SWAP2 POP POP PUSH2 0x1D09 JUMP JUMPDEST POP PUSH1 0x1 DUP4 PUSH1 0x8 ADD PUSH0 PUSH2 0x100 EXP DUP2 SLOAD DUP2 PUSH1 0xFF MUL NOT AND SWAP1 DUP4 ISZERO ISZERO MUL OR SWAP1 SSTORE POP POP POP POP POP POP JUMP JUMPDEST PUSH1 0x2 SLOAD DUP2 JUMP JUMPDEST PUSH0 DUP1 SLOAD SWAP1 PUSH2 0x100 EXP SWAP1 DIV PUSH20 0xFFFFFFFFFFFFFFFFFFFFFFFFFFFFFFFFFFFFFFFF AND DUP2 JUMP JUMPDEST PUSH3 0x127500 DUP2 JUMP JUMPDEST PUSH0 SELFBALANCE SWAP1 POP SWAP1 JUMP JUMPDEST PUSH1 0x3 SLOAD DUP2 JUMP JUMPDEST PUSH3 0x278D00 DUP2 JUMP JUMPDEST PUSH1 0x1 SLOAD DUP2 JUMP JUMPDEST PUSH2 0x1E72 PUSH2 0x25FD JUMP JUMPDEST PUSH0 PUSH20 0xFFFFFFFFFFFFFFFFFFFFFFFFFFFFFFFFFFFFFFFF AND PUSH1 0x4 PUSH0 DUP5 DUP2 MSTORE PUSH1 0x20 ADD SWAP1 DUP2 MSTORE PUSH1 0x20 ADD PUSH0 KECCAK256 PUSH1 0x1 ADD PUSH0 SWAP1 SLOAD SWAP1 PUSH2 0x100 EXP SWAP1 DIV PUSH20 0xFFFFFFFFFFFFFFFFFFFFFFFFFFFFFFFFFFFFFFFF AND PUSH20 0xFFFFFFFFFFFFFFFFFFFFFFFFFFFFFFFFFFFFFFFF AND SUB PUSH2 0x1F13 JUMPI PUSH1 0x40 MLOAD PUSH32 0x8C379A000000000000000000000000000000000000000000000000000000000 DUP2 MSTORE PUSH1 0x4 ADD PUSH2 0x1F0A SWAP1 PUSH2 0x311C JUMP JUMPDEST PUSH1 0x40 MLOAD DUP1 SWAP2 SUB SWAP1 REVERT JUMPDEST PUSH1 0x4 PUSH0 DUP4 DUP2 MSTORE PUSH1 0x20 ADD SWAP1 DUP2 MSTORE PUSH1 0x20 ADD PUSH0 KECCAK256 PUSH1 0x40 MLOAD DUP1 PUSH2 0x140 ADD PUSH1 0x40 MSTORE SWAP1 DUP2 PUSH0 DUP3 ADD SLOAD DUP2 MSTORE PUSH1 0x20 ADD PUSH1 0x1 DUP3 ADD PUSH0 SWAP1 SLOAD SWAP1 PUSH2 0x100 EXP SWAP1 DIV PUSH20 0xFFFFFFFFFFFFFFFFFFFFFFFFFFFFFFFFFFFFFFFF AND PUSH20 0xFFFFFFFFFFFFFFFFFFFFFFFFFFFFFFFFFFFFFFFF AND PUSH20 0xFFFFFFFFFFFFFFFFFFFFFFFFFFFFFFFFFFFFFFFF AND DUP2 MSTORE PUSH1 0x20 ADD PUSH1 0x2 DUP3 ADD DUP1 SLOAD PUSH2 0x1F9E SWAP1 PUSH2 0x325E JUMP JUMPDEST DUP1 PUSH1 0x1F ADD PUSH1 0x20 DUP1 SWAP2 DIV MUL PUSH1 0x20 ADD PUSH1 0x40 MLOAD SWAP1 DUP2 ADD PUSH1 0x40 MSTORE DUP1 SWAP3 SWAP2 SWAP1 DUP2 DUP2 MSTORE PUSH1 0x20 ADD DUP3 DUP1 SLOAD PUSH2 0x1FCA SWAP1 PUSH2 0x325E JUMP JUMPDEST DUP1 ISZERO PUSH2 0x2015 JUMPI DUP1 PUSH1 0x1F LT PUSH2 0x1FEC JUMPI PUSH2 0x100 DUP1 DUP4 SLOAD DIV MUL DUP4 MSTORE SWAP2 PUSH1 0x20 ADD SWAP2 PUSH2 0x2015 JUMP JUMPDEST DUP3 ADD SWAP2 SWAP1 PUSH0 MSTORE PUSH1 0x20 PUSH0 KECCAK256 SWAP1 JUMPDEST DUP2 SLOAD DUP2 MSTORE SWAP1 PUSH1 0x1 ADD SWAP1 PUSH1 0x20 ADD DUP1 DUP4 GT PUSH2 0x1FF8 JUMPI DUP3 SWAP1 SUB PUSH1 0x1F AND DUP3 ADD SWAP2 JUMPDEST POP POP POP POP POP DUP2 MSTORE PUSH1 0x20 ADD PUSH1 0x3 DUP3 ADD DUP1 SLOAD PUSH2 0x202E SWAP1 PUSH2 0x325E JUMP JUMPDEST DUP1 PUSH1 0x1F ADD PUSH1 0x20 DUP1 SWAP2 DIV MUL PUSH1 0x20 ADD PUSH1 0x40 MLOAD SWAP1 DUP2 ADD PUSH1 0x40 MSTORE DUP1 SWAP3 SWAP2 SWAP1 DUP2 DUP2 MSTORE PUSH1 0x20 ADD DUP3 DUP1 SLOAD PUSH2 0x205A SWAP1 PUSH2 0x325E JUMP JUMPDEST DUP1 ISZERO PUSH2 0x20A5 JUMPI DUP1 PUSH1 0x1F LT PUSH2 0x207C JUMPI PUSH2 0x100 DUP1 DUP4 SLOAD DIV MUL DUP4 MSTORE SWAP2 PUSH1 0x20 ADD SWAP2 PUSH2 0x20A5 JUMP JUMPDEST DUP3 ADD SWAP2 SWAP1 PUSH0 MSTORE PUSH1 0x20 PUSH0 KECCAK256 SWAP1 JUMPDEST DUP2 SLOAD DUP2 MSTORE SWAP1 PUSH1 0x1 ADD SWAP1 PUSH1 0x20 ADD DUP1 DUP4 GT PUSH2 0x2088 JUMPI DUP3 SWAP1 SUB PUSH1 0x1F AND DUP3 ADD SWAP2 JUMPDEST POP POP POP POP POP DUP2 MSTORE PUSH1 0x20 ADD PUSH1 0x4 DUP3 ADD DUP1 SLOAD PUSH2 0x20BE SWAP1 PUSH2 0x325E JUMP JUMPDEST DUP1 PUSH1 0x1F ADD PUSH1 0x20 DUP1 SWAP2 DIV MUL PUSH1 0x20 ADD PUSH1 0x40 MLOAD SWAP1 DUP2 ADD PUSH1 0x40 MSTORE DUP1 SWAP3 SWAP2 SWAP1 DUP2 DUP2 MSTORE PUSH1 0x20 ADD DUP3 DUP1 SLOAD PUSH2 0x20EA SWAP1 PUSH2 0x325E JUMP JUMPDEST DUP1 ISZERO PUSH2 0x2135 JUMPI DUP1 PUSH1 0x1F LT PUSH2 0x210C JUMPI PUSH2 0x100 DUP1 DUP4 SLOAD DIV MUL DUP4 MSTORE SWAP2 PUSH1 0x20 ADD SWAP2 PUSH2 0x2135 JUMP JUMPDEST DUP3 ADD SWAP2 SWAP1 PUSH0 MSTORE PUSH1 0x20 PUSH0 KECCAK256 SWAP1 JUMPDEST DUP2 SLOAD DUP2 MSTORE SWAP1 PUSH1 0x1 ADD SWAP1 PUSH1 0x20 ADD DUP1 DUP4 GT PUSH2 0x2118 JUMPI DUP3 SWAP1 SUB PUSH1 0x1F AND DUP3 ADD SWAP2 JUMPDEST POP POP POP POP POP DUP2 MSTORE PUSH1 0x20 ADD PUSH1 0x5 DUP3 ADD SLOAD DUP2 MSTORE PUSH1 0x20 ADD PUSH1 0x6 DUP3 ADD SLOAD DUP2 MSTORE PUSH1 0x20 ADD PUSH1 0x7 DUP3 ADD SLOAD DUP2 MSTORE PUSH1 0x20 ADD PUSH1 0x8 DUP3 ADD PUSH0 SWAP1 SLOAD SWAP1 PUSH2 0x100 EXP SWAP1 DIV PUSH1 0xFF AND ISZERO ISZERO ISZERO ISZERO DUP2 MSTORE PUSH1 0x20 ADD PUSH1 0x9 DUP3 ADD SLOAD DUP2 MSTORE POP POP SWAP1 POP SWAP2 SWAP1 POP JUMP JUMPDEST PUSH3 0x93A80 DUP2 JUMP JUMPDEST PUSH1 0x60 PUSH0 DUP4 GT PUSH2 0x21D2 JUMPI PUSH1 0x40 MLOAD PUSH32 0x8C379A000000000000000000000000000000000000000000000000000000000 DUP2 MSTORE PUSH1 0x4 ADD PUSH2 0x21C9 SWAP1 PUSH2 0x3B88 JUMP JUMPDEST PUSH1 0x40 MLOAD DUP1 SWAP2 SUB SWAP1 REVERT JUMPDEST PUSH0 DUP3 GT PUSH2 0x2214 JUMPI PUSH1 0x40 MLOAD PUSH32 0x8C379A000000000000000000000000000000000000000000000000000000000 DUP2 MSTORE PUSH1 0x4 ADD PUSH2 0x220B SWAP1 PUSH2 0x3BF0 JUMP JUMPDEST PUSH1 0x40 MLOAD DUP1 SWAP2 SUB SWAP1 REVERT JUMPDEST PUSH0 DUP3 PUSH1 0x1 DUP6 PUSH2 0x2223 SWAP2 SWAP1 PUSH2 0x3C0E JUMP JUMPDEST PUSH2 0x222D SWAP2 SWAP1 PUSH2 0x3AA0 JUMP JUMPDEST SWAP1 POP PUSH1 0x2 SLOAD DUP2 LT PUSH2 0x2273 JUMPI PUSH1 0x40 MLOAD PUSH32 0x8C379A000000000000000000000000000000000000000000000000000000000 DUP2 MSTORE PUSH1 0x4 ADD PUSH2 0x226A SWAP1 PUSH2 0x3C8B JUMP JUMPDEST PUSH1 0x40 MLOAD DUP1 SWAP2 SUB SWAP1 REVERT JUMPDEST PUSH0 DUP4 DUP3 PUSH2 0x2280 SWAP2 SWAP1 PUSH2 0x36E2 JUMP JUMPDEST SWAP1 POP PUSH1 0x2 SLOAD DUP2 GT ISZERO PUSH2 0x2292 JUMPI PUSH1 0x2 SLOAD SWAP1 POP JUMPDEST PUSH0 DUP3 DUP3 PUSH2 0x229F SWAP2 SWAP1 PUSH2 0x3C0E JUMP JUMPDEST SWAP1 POP PUSH0 DUP2 PUSH8 0xFFFFFFFFFFFFFFFF DUP2 GT ISZERO PUSH2 0x22BC JUMPI PUSH2 0x22BB PUSH2 0x26FB JUMP JUMPDEST JUMPDEST PUSH1 0x40 MLOAD SWAP1 DUP1 DUP3 MSTORE DUP1 PUSH1 0x20 MUL PUSH1 0x20 ADD DUP3 ADD PUSH1 0x40 MSTORE DUP1 ISZERO PUSH2 0x22F5 JUMPI DUP2 PUSH1 0x20 ADD JUMPDEST PUSH2 0x22E2 PUSH2 0x25FD JUMP JUMPDEST DUP2 MSTORE PUSH1 0x20 ADD SWAP1 PUSH1 0x1 SWAP1 SUB SWAP1 DUP2 PUSH2 0x22DA JUMPI SWAP1 POP JUMPDEST POP SWAP1 POP PUSH0 DUP5 SWAP1 POP JUMPDEST DUP4 DUP2 LT ISZERO PUSH2 0x25A8 JUMPI PUSH1 0x4 PUSH0 DUP3 DUP2 MSTORE PUSH1 0x20 ADD SWAP1 DUP2 MSTORE PUSH1 0x20 ADD PUSH0 KECCAK256 PUSH1 0x40 MLOAD DUP1 PUSH2 0x140 ADD PUSH1 0x40 MSTORE SWAP1 DUP2 PUSH0 DUP3 ADD SLOAD DUP2 MSTORE PUSH1 0x20 ADD PUSH1 0x1 DUP3 ADD PUSH0 SWAP1 SLOAD SWAP1 PUSH2 0x100 EXP SWAP1 DIV PUSH20 0xFFFFFFFFFFFFFFFFFFFFFFFFFFFFFFFFFFFFFFFF AND PUSH20 0xFFFFFFFFFFFFFFFFFFFFFFFFFFFFFFFFFFFFFFFF AND PUSH20 0xFFFFFFFFFFFFFFFFFFFFFFFFFFFFFFFFFFFFFFFF AND DUP2 MSTORE PUSH1 0x20 ADD PUSH1 0x2 DUP3 ADD DUP1 SLOAD PUSH2 0x2390 SWAP1 PUSH2 0x325E JUMP JUMPDEST DUP1 PUSH1 0x1F ADD PUSH1 0x20 DUP1 SWAP2 DIV MUL PUSH1 0x20 ADD PUSH1 0x40 MLOAD SWAP1 DUP2 ADD PUSH1 0x40 MSTORE DUP1 SWAP3 SWAP2 SWAP1 DUP2 DUP2 MSTORE PUSH1 0x20 ADD DUP3 DUP1 SLOAD PUSH2 0x23BC SWAP1 PUSH2 0x325E JUMP JUMPDEST DUP1 ISZERO PUSH2 0x2407 JUMPI DUP1 PUSH1 0x1F LT PUSH2 0x23DE JUMPI PUSH2 0x100 DUP1 DUP4 SLOAD DIV MUL DUP4 MSTORE SWAP2 PUSH1 0x20 ADD SWAP2 PUSH2 0x2407 JUMP JUMPDEST DUP3 ADD SWAP2 SWAP1 PUSH0 MSTORE PUSH1 0x20 PUSH0 KECCAK256 SWAP1 JUMPDEST DUP2 SLOAD DUP2 MSTORE SWAP1 PUSH1 0x1 ADD SWAP1 PUSH1 0x20 ADD DUP1 DUP4 GT PUSH2 0x23EA JUMPI DUP3 SWAP1 SUB PUSH1 0x1F AND DUP3 ADD SWAP2 JUMPDEST POP POP POP POP POP DUP2 MSTORE PUSH1 0x20 ADD PUSH1 0x3 DUP3 ADD DUP1 SLOAD PUSH2 0x2420 SWAP1 PUSH2 0x325E JUMP JUMPDEST DUP1 PUSH1 0x1F ADD PUSH1 0x20 DUP1 SWAP2 DIV MUL PUSH1 0x20 ADD PUSH1 0x40 MLOAD SWAP1 DUP2 ADD PUSH1 0x40 MSTORE DUP1 SWAP3 SWAP2 SWAP1 DUP2 DUP2 MSTORE PUSH1 0x20 ADD DUP3 DUP1 SLOAD PUSH2 0x244C SWAP1 PUSH2 0x325E JUMP JUMPDEST DUP1 ISZERO PUSH2 0x2497 JUMPI DUP1 PUSH1 0x1F LT PUSH2 0x246E JUMPI PUSH2 0x100 DUP1 DUP4 SLOAD DIV MUL DUP4 MSTORE SWAP2 PUSH1 0x20 ADD SWAP2 PUSH2 0x2497 JUMP JUMPDEST DUP3 ADD SWAP2 SWAP1 PUSH0 MSTORE PUSH1 0x20 PUSH0 KECCAK256 SWAP1 JUMPDEST DUP2 SLOAD DUP2 MSTORE SWAP1 PUSH1 0x1 ADD SWAP1 PUSH1 0x20 ADD DUP1 DUP4 GT PUSH2 0x247A JUMPI DUP3 SWAP1 SUB PUSH1 0x1F AND DUP3 ADD SWAP2 JUMPDEST POP POP POP POP POP DUP2 MSTORE PUSH1 0x20 ADD PUSH1 0x4 DUP3 ADD DUP1 SLOAD PUSH2 0x24B0 SWAP1 PUSH2 0x325E JUMP JUMPDEST DUP1 PUSH1 0x1F ADD PUSH1 0x20 DUP1 SWAP2 DIV MUL PUSH1 0x20 ADD PUSH1 0x40 MLOAD SWAP1 DUP2 ADD PUSH1 0x40 MSTORE DUP1 SWAP3 SWAP2 SWAP1 DUP2 DUP2 MSTORE PUSH1 0x20 ADD DUP3 DUP1 SLOAD PUSH2 0x24DC SWAP1 PUSH2 0x325E JUMP JUMPDEST DUP1 ISZERO PUSH2 0x2527 JUMPI DUP1 PUSH1 0x1F LT PUSH2 0x24FE JUMPI PUSH2 0x100 DUP1 DUP4 SLOAD DIV MUL DUP4 MSTORE SWAP2 PUSH1 0x20 ADD SWAP2 PUSH2 0x2527 JUMP JUMPDEST DUP3 ADD SWAP2 SWAP1 PUSH0 MSTORE PUSH1 0x20 PUSH0 KECCAK256 SWAP1 JUMPDEST DUP2 SLOAD DUP2 MSTORE SWAP1 PUSH1 0x1 ADD SWAP1 PUSH1 0x20 ADD DUP1 DUP4 GT PUSH2 0x250A JUMPI DUP3 SWAP1 SUB PUSH1 0x1F AND DUP3 ADD SWAP2 JUMPDEST POP POP POP POP POP DUP2 MSTORE PUSH1 0x20 ADD PUSH1 0x5 DUP3 ADD SLOAD DUP2 MSTORE PUSH1 0x20 ADD PUSH1 0x6 DUP3 ADD SLOAD DUP2 MSTORE PUSH1 0x20 ADD PUSH1 0x7 DUP3 ADD SLOAD DUP2 MSTORE PUSH1 0x20 ADD PUSH1 0x8 DUP3 ADD PUSH0 SWAP1 SLOAD SWAP1 PUSH2 0x100 EXP SWAP1 DIV PUSH1 0xFF AND ISZERO ISZERO ISZERO ISZERO DUP2 MSTORE PUSH1 0x20 ADD PUSH1 0x9 DUP3 ADD SLOAD DUP2 MSTORE POP POP DUP3 DUP7 DUP4 PUSH2 0x257F SWAP2 SWAP1 PUSH2 0x3C0E JUMP JUMPDEST DUP2 MLOAD DUP2 LT PUSH2 0x2590 JUMPI PUSH2 0x258F PUSH2 0x3897 JUMP JUMPDEST JUMPDEST PUSH1 0x20 MUL PUSH1 0x20 ADD ADD DUP2 SWAP1 MSTORE POP DUP1 DUP1 PUSH1 0x1 ADD SWAP2 POP POP PUSH2 0x22FD JUMP JUMPDEST POP DUP1 SWAP5 POP POP POP POP POP SWAP3 SWAP2 POP POP JUMP JUMPDEST PUSH1 0x40 MLOAD DUP1 PUSH1 0xC0 ADD PUSH1 0x40 MSTORE DUP1 PUSH0 DUP2 MSTORE PUSH1 0x20 ADD PUSH0 PUSH20 0xFFFFFFFFFFFFFFFFFFFFFFFFFFFFFFFFFFFFFFFF AND DUP2 MSTORE PUSH1 0x20 ADD PUSH1 0x60 DUP2 MSTORE PUSH1 0x20 ADD PUSH0 DUP2 MSTORE PUSH1 0x20 ADD PUSH0 DUP2 MSTORE PUSH1 0x20 ADD PUSH0 DUP2 MSTORE POP SWAP1 JUMP JUMPDEST PUSH1 0x40 MLOAD DUP1 PUSH2 0x140 ADD PUSH1 0x40 MSTORE DUP1 PUSH0 DUP2 MSTORE PUSH1 0x20 ADD PUSH0 PUSH20 0xFFFFFFFFFFFFFFFFFFFFFFFFFFFFFFFFFFFFFFFF AND DUP2 MSTORE PUSH1 0x20 ADD PUSH1 0x60 DUP2 MSTORE PUSH1 0x20 ADD PUSH1 0x60 DUP2 MSTORE PUSH1 0x20 ADD PUSH1 0x60 DUP2 MSTORE PUSH1 0x20 ADD PUSH0 DUP2 MSTORE PUSH1 0x20 ADD PUSH0 DUP2 MSTORE PUSH1 0x20 ADD PUSH0 DUP2 MSTORE PUSH1 0x20 ADD PUSH0 ISZERO ISZERO DUP2 MSTORE PUSH1 0x20 ADD PUSH0 DUP2 MSTORE POP SWAP1 JUMP JUMPDEST PUSH0 PUSH1 0x40 MLOAD SWAP1 POP SWAP1 JUMP JUMPDEST PUSH0 DUP1 REVERT JUMPDEST PUSH0 DUP1 REVERT JUMPDEST PUSH0 DUP2 SWAP1 POP SWAP2 SWAP1 POP JUMP JUMPDEST PUSH2 0x2684 DUP2 PUSH2 0x2672 JUMP JUMPDEST DUP2 EQ PUSH2 0x268E JUMPI PUSH0 DUP1 REVERT JUMPDEST POP JUMP JUMPDEST PUSH0 DUP2 CALLDATALOAD SWAP1 POP PUSH2 0x269F DUP2 PUSH2 0x267B JUMP JUMPDEST SWAP3 SWAP2 POP POP JUMP JUMPDEST PUSH0 DUP1 PUSH1 0x40 DUP4 DUP6 SUB SLT ISZERO PUSH2 0x26BB JUMPI PUSH2 0x26BA PUSH2 0x266A JUMP JUMPDEST JUMPDEST PUSH0 PUSH2 0x26C8 DUP6 DUP3 DUP7 ADD PUSH2 0x2691 JUMP JUMPDEST SWAP3 POP POP PUSH1 0x20 PUSH2 0x26D9 DUP6 DUP3 DUP7 ADD PUSH2 0x2691 JUMP JUMPDEST SWAP2 POP POP SWAP3 POP SWAP3 SWAP1 POP JUMP JUMPDEST PUSH0 DUP1 REVERT JUMPDEST PUSH0 DUP1 REVERT JUMPDEST PUSH0 PUSH1 0x1F NOT PUSH1 0x1F DUP4 ADD AND SWAP1 POP SWAP2 SWAP1 POP JUMP JUMPDEST PUSH32 0x4E487B7100000000000000000000000000000000000000000000000000000000 PUSH0 MSTORE PUSH1 0x41 PUSH1 0x4 MSTORE PUSH1 0x24 PUSH0 REVERT JUMPDEST PUSH2 0x2731 DUP3 PUSH2 0x26EB JUMP JUMPDEST DUP2 ADD DUP2 DUP2 LT PUSH8 0xFFFFFFFFFFFFFFFF DUP3 GT OR ISZERO PUSH2 0x2750 JUMPI PUSH2 0x274F PUSH2 0x26FB JUMP JUMPDEST JUMPDEST DUP1 PUSH1 0x40 MSTORE POP POP POP JUMP JUMPDEST PUSH0 PUSH2 0x2762 PUSH2 0x2661 JUMP JUMPDEST SWAP1 POP PUSH2 0x276E DUP3 DUP3 PUSH2 0x2728 JUMP JUMPDEST SWAP2 SWAP1 POP JUMP JUMPDEST PUSH0 PUSH8 0xFFFFFFFFFFFFFFFF DUP3 GT ISZERO PUSH2 0x278D JUMPI PUSH2 0x278C PUSH2 0x26FB JUMP JUMPDEST JUMPDEST PUSH2 0x2796 DUP3 PUSH2 0x26EB JUMP JUMPDEST SWAP1 POP PUSH1 0x20 DUP2 ADD SWAP1 POP SWAP2 SWAP1 POP JUMP JUMPDEST DUP3 DUP2 DUP4 CALLDATACOPY PUSH0 DUP4 DUP4 ADD MSTORE POP POP POP JUMP JUMPDEST PUSH0 PUSH2 0x27C3 PUSH2 0x27BE DUP5 PUSH2 0x2773 JUMP JUMPDEST PUSH2 0x2759 JUMP JUMPDEST SWAP1 POP DUP3 DUP2 MSTORE PUSH1 0x20 DUP2 ADD DUP5 DUP5 DUP5 ADD GT ISZERO PUSH2 0x27DF JUMPI PUSH2 0x27DE PUSH2 0x26E7 JUMP JUMPDEST JUMPDEST PUSH2 0x27EA DUP5 DUP3 DUP6 PUSH2 0x27A3 JUMP JUMPDEST POP SWAP4 SWAP3 POP POP POP JUMP JUMPDEST PUSH0 DUP3 PUSH1 0x1F DUP4 ADD SLT PUSH2 0x2806 JUMPI PUSH2 0x2805 PUSH2 0x26E3 JUMP JUMPDEST JUMPDEST DUP2 CALLDATALOAD PUSH2 0x2816 DUP5 DUP3 PUSH1 0x20 DUP7 ADD PUSH2 0x27B1 JUMP JUMPDEST SWAP2 POP POP SWAP3 SWAP2 POP POP JUMP JUMPDEST PUSH0 DUP1 PUSH1 0x40 DUP4 DUP6 SUB SLT ISZERO PUSH2 0x2835 JUMPI PUSH2 0x2834 PUSH2 0x266A JUMP JUMPDEST JUMPDEST PUSH0 PUSH2 0x2842 DUP6 DUP3 DUP7 ADD PUSH2 0x2691 JUMP JUMPDEST SWAP3 POP POP PUSH1 0x20 DUP4 ADD CALLDATALOAD PUSH8 0xFFFFFFFFFFFFFFFF DUP2 GT ISZERO PUSH2 0x2863 JUMPI PUSH2 0x2862 PUSH2 0x266E JUMP JUMPDEST JUMPDEST PUSH2 0x286F DUP6 DUP3 DUP7 ADD PUSH2 0x27F2 JUMP JUMPDEST SWAP2 POP POP SWAP3 POP SWAP3 SWAP1 POP JUMP JUMPDEST PUSH2 0x2882 DUP2 PUSH2 0x2672 JUMP JUMPDEST DUP3 MSTORE POP POP JUMP JUMPDEST PUSH0 PUSH20 0xFFFFFFFFFFFFFFFFFFFFFFFFFFFFFFFFFFFFFFFF DUP3 AND SWAP1 POP SWAP2 SWAP1 POP JUMP JUMPDEST PUSH0 PUSH2 0x28B1 DUP3 PUSH2 0x2888 JUMP JUMPDEST SWAP1 POP SWAP2 SWAP1 POP JUMP JUMPDEST PUSH2 0x28C1 DUP2 PUSH2 0x28A7 JUMP JUMPDEST DUP3 MSTORE POP POP JUMP JUMPDEST PUSH0 DUP2 MLOAD SWAP1 POP SWAP2 SWAP1 POP JUMP JUMPDEST PUSH0 DUP3 DUP3 MSTORE PUSH1 0x20 DUP3 ADD SWAP1 POP SWAP3 SWAP2 POP POP JUMP JUMPDEST DUP3 DUP2 DUP4 MCOPY PUSH0 DUP4 DUP4 ADD MSTORE POP POP POP JUMP JUMPDEST PUSH0 PUSH2 0x28F9 DUP3 PUSH2 0x28C7 JUMP JUMPDEST PUSH2 0x2903 DUP2 DUP6 PUSH2 0x28D1 JUMP JUMPDEST SWAP4 POP PUSH2 0x2913 DUP2 DUP6 PUSH1 0x20 DUP7 ADD PUSH2 0x28E1 JUMP JUMPDEST PUSH2 0x291C DUP2 PUSH2 0x26EB JUMP JUMPDEST DUP5 ADD SWAP2 POP POP SWAP3 SWAP2 POP POP JUMP JUMPDEST PUSH0 PUSH1 0xC0 DUP3 ADD SWAP1 POP PUSH2 0x293A PUSH0 DUP4 ADD DUP10 PUSH2 0x2879 JUMP JUMPDEST PUSH2 0x2947 PUSH1 0x20 DUP4 ADD DUP9 PUSH2 0x28B8 JUMP JUMPDEST DUP2 DUP2 SUB PUSH1 0x40 DUP4 ADD MSTORE PUSH2 0x2959 DUP2 DUP8 PUSH2 0x28EF JUMP JUMPDEST SWAP1 POP PUSH2 0x2968 PUSH1 0x60 DUP4 ADD DUP7 PUSH2 0x2879 JUMP JUMPDEST PUSH2 0x2975 PUSH1 0x80 DUP4 ADD DUP6 PUSH2 0x2879 JUMP JUMPDEST PUSH2 0x2982 PUSH1 0xA0 DUP4 ADD DUP5 PUSH2 0x2879 JUMP JUMPDEST SWAP8 SWAP7 POP POP POP POP POP POP POP JUMP JUMPDEST PUSH2 0x2996 DUP2 PUSH2 0x28A7 JUMP JUMPDEST DUP2 EQ PUSH2 0x29A0 JUMPI PUSH0 DUP1 REVERT JUMPDEST POP JUMP JUMPDEST PUSH0 DUP2 CALLDATALOAD SWAP1 POP PUSH2 0x29B1 DUP2 PUSH2 0x298D JUMP JUMPDEST SWAP3 SWAP2 POP POP JUMP JUMPDEST PUSH0 PUSH1 0x20 DUP3 DUP5 SUB SLT ISZERO PUSH2 0x29CC JUMPI PUSH2 0x29CB PUSH2 0x266A JUMP JUMPDEST JUMPDEST PUSH0 PUSH2 0x29D9 DUP5 DUP3 DUP6 ADD PUSH2 0x29A3 JUMP JUMPDEST SWAP2 POP POP SWAP3 SWAP2 POP POP JUMP JUMPDEST PUSH0 PUSH1 0x20 DUP3 ADD SWAP1 POP PUSH2 0x29F5 PUSH0 DUP4 ADD DUP5 PUSH2 0x2879 JUMP JUMPDEST SWAP3 SWAP2 POP POP JUMP JUMPDEST PUSH0 PUSH1 0x20 DUP3 DUP5 SUB SLT ISZERO PUSH2 0x2A10 JUMPI PUSH2 0x2A0F PUSH2 0x266A JUMP JUMPDEST JUMPDEST PUSH0 PUSH2 0x2A1D DUP5 DUP3 DUP6 ADD PUSH2 0x2691 JUMP JUMPDEST SWAP2 POP POP SWAP3 SWAP2 POP POP JUMP JUMPDEST PUSH0 DUP2 ISZERO ISZERO SWAP1 POP SWAP2 SWAP1 POP JUMP JUMPDEST PUSH2 0x2A3A DUP2 PUSH2 0x2A26 JUMP JUMPDEST DUP3 MSTORE POP POP JUMP JUMPDEST PUSH0 PUSH2 0x140 DUP3 ADD SWAP1 POP PUSH2 0x2A54 PUSH0 DUP4 ADD DUP14 PUSH2 0x2879 JUMP JUMPDEST PUSH2 0x2A61 PUSH1 0x20 DUP4 ADD DUP13 PUSH2 0x28B8 JUMP JUMPDEST DUP2 DUP2 SUB PUSH1 0x40 DUP4 ADD MSTORE PUSH2 0x2A73 DUP2 DUP12 PUSH2 0x28EF JUMP JUMPDEST SWAP1 POP DUP2 DUP2 SUB PUSH1 0x60 DUP4 ADD MSTORE PUSH2 0x2A87 DUP2 DUP11 PUSH2 0x28EF JUMP JUMPDEST SWAP1 POP DUP2 DUP2 SUB PUSH1 0x80 DUP4 ADD MSTORE PUSH2 0x2A9B DUP2 DUP10 PUSH2 0x28EF JUMP JUMPDEST SWAP1 POP PUSH2 0x2AAA PUSH1 0xA0 DUP4 ADD DUP9 PUSH2 0x2879 JUMP JUMPDEST PUSH2 0x2AB7 PUSH1 0xC0 DUP4 ADD DUP8 PUSH2 0x2879 JUMP JUMPDEST PUSH2 0x2AC4 PUSH1 0xE0 DUP4 ADD DUP7 PUSH2 0x2879 JUMP JUMPDEST PUSH2 0x2AD2 PUSH2 0x100 DUP4 ADD DUP6 PUSH2 0x2A31 JUMP JUMPDEST PUSH2 0x2AE0 PUSH2 0x120 DUP4 ADD DUP5 PUSH2 0x2879 JUMP JUMPDEST SWAP12 SWAP11 POP POP POP POP POP POP POP POP POP POP POP JUMP JUMPDEST PUSH2 0x2AF8 DUP2 PUSH2 0x2672 JUMP JUMPDEST DUP3 MSTORE POP POP JUMP JUMPDEST PUSH2 0x2B07 DUP2 PUSH2 0x28A7 JUMP JUMPDEST DUP3 MSTORE POP POP JUMP JUMPDEST PUSH0 DUP3 DUP3 MSTORE PUSH1 0x20 DUP3 ADD SWAP1 POP SWAP3 SWAP2 POP POP JUMP JUMPDEST PUSH0 PUSH2 0x2B27 DUP3 PUSH2 0x28C7 JUMP JUMPDEST PUSH2 0x2B31 DUP2 DUP6 PUSH2 0x2B0D JUMP JUMPDEST SWAP4 POP PUSH2 0x2B41 DUP2 DUP6 PUSH1 0x20 DUP7 ADD PUSH2 0x28E1 JUMP JUMPDEST PUSH2 0x2B4A DUP2 PUSH2 0x26EB JUMP JUMPDEST DUP5 ADD SWAP2 POP POP SWAP3 SWAP2 POP POP JUMP JUMPDEST PUSH0 PUSH1 0xC0 DUP4 ADD PUSH0 DUP4 ADD MLOAD PUSH2 0x2B6A PUSH0 DUP7 ADD DUP3 PUSH2 0x2AEF JUMP JUMPDEST POP PUSH1 0x20 DUP4 ADD MLOAD PUSH2 0x2B7D PUSH1 0x20 DUP7 ADD DUP3 PUSH2 0x2AFE JUMP JUMPDEST POP PUSH1 0x40 DUP4 ADD MLOAD DUP5 DUP3 SUB PUSH1 0x40 DUP7 ADD MSTORE PUSH2 0x2B95 DUP3 DUP3 PUSH2 0x2B1D JUMP JUMPDEST SWAP2 POP POP PUSH1 0x60 DUP4 ADD MLOAD PUSH2 0x2BAA PUSH1 0x60 DUP7 ADD DUP3 PUSH2 0x2AEF JUMP JUMPDEST POP PUSH1 0x80 DUP4 ADD MLOAD PUSH2 0x2BBD PUSH1 0x80 DUP7 ADD DUP3 PUSH2 0x2AEF JUMP JUMPDEST POP PUSH1 0xA0 DUP4 ADD MLOAD PUSH2 0x2BD0 PUSH1 0xA0 DUP7 ADD DUP3 PUSH2 0x2AEF JUMP JUMPDEST POP DUP1 SWAP2 POP POP SWAP3 SWAP2 POP POP JUMP JUMPDEST PUSH0 PUSH1 0x20 DUP3 ADD SWAP1 POP DUP2 DUP2 SUB PUSH0 DUP4 ADD MSTORE PUSH2 0x2BF3 DUP2 DUP5 PUSH2 0x2B55 JUMP JUMPDEST SWAP1 POP SWAP3 SWAP2 POP POP JUMP JUMPDEST PUSH0 PUSH1 0x20 DUP3 DUP5 SUB SLT ISZERO PUSH2 0x2C10 JUMPI PUSH2 0x2C0F PUSH2 0x266A JUMP JUMPDEST JUMPDEST PUSH0 DUP3 ADD CALLDATALOAD PUSH8 0xFFFFFFFFFFFFFFFF DUP2 GT ISZERO PUSH2 0x2C2D JUMPI PUSH2 0x2C2C PUSH2 0x266E JUMP JUMPDEST JUMPDEST PUSH2 0x2C39 DUP5 DUP3 DUP6 ADD PUSH2 0x27F2 JUMP JUMPDEST SWAP2 POP POP SWAP3 SWAP2 POP POP JUMP JUMPDEST PUSH0 DUP2 MLOAD SWAP1 POP SWAP2 SWAP1 POP JUMP JUMPDEST PUSH0 DUP3 DUP3 MSTORE PUSH1 0x20 DUP3 ADD SWAP1 POP SWAP3 SWAP2 POP POP JUMP JUMPDEST PUSH0 DUP2 SWAP1 POP PUSH1 0x20 DUP3 ADD SWAP1 POP SWAP2 SWAP1 POP JUMP JUMPDEST PUSH0 PUSH2 0x2C76 DUP4 DUP4 PUSH2 0x2AEF JUMP JUMPDEST PUSH1 0x20 DUP4 ADD SWAP1 POP SWAP3 SWAP2 POP POP JUMP JUMPDEST PUSH0 PUSH1 0x20 DUP3 ADD SWAP1 POP SWAP2 SWAP1 POP JUMP JUMPDEST PUSH0 PUSH2 0x2C98 DUP3 PUSH2 0x2C42 JUMP JUMPDEST PUSH2 0x2CA2 DUP2 DUP6 PUSH2 0x2C4C JUMP JUMPDEST SWAP4 POP PUSH2 0x2CAD DUP4 PUSH2 0x2C5C JUMP JUMPDEST DUP1 PUSH0 JUMPDEST DUP4 DUP2 LT ISZERO PUSH2 0x2CDD JUMPI DUP2 MLOAD PUSH2 0x2CC4 DUP9 DUP3 PUSH2 0x2C6B JUMP JUMPDEST SWAP8 POP PUSH2 0x2CCF DUP4 PUSH2 0x2C82 JUMP JUMPDEST SWAP3 POP POP PUSH1 0x1 DUP2 ADD SWAP1 POP PUSH2 0x2CB0 JUMP JUMPDEST POP DUP6 SWAP4 POP POP POP POP SWAP3 SWAP2 POP POP JUMP JUMPDEST PUSH0 PUSH1 0x20 DUP3 ADD SWAP1 POP DUP2 DUP2 SUB PUSH0 DUP4 ADD MSTORE PUSH2 0x2D02 DUP2 DUP5 PUSH2 0x2C8E JUMP JUMPDEST SWAP1 POP SWAP3 SWAP2 POP POP JUMP JUMPDEST PUSH1 0x3 DUP2 LT PUSH2 0x2D16 JUMPI PUSH0 DUP1 REVERT JUMPDEST POP JUMP JUMPDEST PUSH0 DUP2 CALLDATALOAD SWAP1 POP PUSH2 0x2D27 DUP2 PUSH2 0x2D0A JUMP JUMPDEST SWAP3 SWAP2 POP POP JUMP JUMPDEST PUSH0 DUP1 PUSH0 DUP1 PUSH1 0x80 DUP6 DUP8 SUB SLT ISZERO PUSH2 0x2D45 JUMPI PUSH2 0x2D44 PUSH2 0x266A JUMP JUMPDEST JUMPDEST PUSH0 DUP6 ADD CALLDATALOAD PUSH8 0xFFFFFFFFFFFFFFFF DUP2 GT ISZERO PUSH2 0x2D62 JUMPI PUSH2 0x2D61 PUSH2 0x266E JUMP JUMPDEST JUMPDEST PUSH2 0x2D6E DUP8 DUP3 DUP9 ADD PUSH2 0x27F2 JUMP JUMPDEST SWAP5 POP POP PUSH1 0x20 DUP6 ADD CALLDATALOAD PUSH8 0xFFFFFFFFFFFFFFFF DUP2 GT ISZERO PUSH2 0x2D8F JUMPI PUSH2 0x2D8E PUSH2 0x266E JUMP JUMPDEST JUMPDEST PUSH2 0x2D9B DUP8 DUP3 DUP9 ADD PUSH2 0x27F2 JUMP JUMPDEST SWAP4 POP POP PUSH1 0x40 DUP6 ADD CALLDATALOAD PUSH8 0xFFFFFFFFFFFFFFFF DUP2 GT ISZERO PUSH2 0x2DBC JUMPI PUSH2 0x2DBB PUSH2 0x266E JUMP JUMPDEST JUMPDEST PUSH2 0x2DC8 DUP8 DUP3 DUP9 ADD PUSH2 0x27F2 JUMP JUMPDEST SWAP3 POP POP PUSH1 0x60 PUSH2 0x2DD9 DUP8 DUP3 DUP9 ADD PUSH2 0x2D19 JUMP JUMPDEST SWAP2 POP POP SWAP3 SWAP6 SWAP2 SWAP5 POP SWAP3 POP JUMP JUMPDEST PUSH0 PUSH1 0x20 DUP3 ADD SWAP1 POP PUSH2 0x2DF8 PUSH0 DUP4 ADD DUP5 PUSH2 0x28B8 JUMP JUMPDEST SWAP3 SWAP2 POP POP JUMP JUMPDEST PUSH2 0x2E07 DUP2 PUSH2 0x2A26 JUMP JUMPDEST DUP3 MSTORE POP POP JUMP JUMPDEST PUSH0 PUSH2 0x140 DUP4 ADD PUSH0 DUP4 ADD MLOAD PUSH2 0x2E23 PUSH0 DUP7 ADD DUP3 PUSH2 0x2AEF JUMP JUMPDEST POP PUSH1 0x20 DUP4 ADD MLOAD PUSH2 0x2E36 PUSH1 0x20 DUP7 ADD DUP3 PUSH2 0x2AFE JUMP JUMPDEST POP PUSH1 0x40 DUP4 ADD MLOAD DUP5 DUP3 SUB PUSH1 0x40 DUP7 ADD MSTORE PUSH2 0x2E4E DUP3 DUP3 PUSH2 0x2B1D JUMP JUMPDEST SWAP2 POP POP PUSH1 0x60 DUP4 ADD MLOAD DUP5 DUP3 SUB PUSH1 0x60 DUP7 ADD MSTORE PUSH2 0x2E68 DUP3 DUP3 PUSH2 0x2B1D JUMP JUMPDEST SWAP2 POP POP PUSH1 0x80 DUP4 ADD MLOAD DUP5 DUP3 SUB PUSH1 0x80 DUP7 ADD MSTORE PUSH2 0x2E82 DUP3 DUP3 PUSH2 0x2B1D JUMP JUMPDEST SWAP2 POP POP PUSH1 0xA0 DUP4 ADD MLOAD PUSH2 0x2E97 PUSH1 0xA0 DUP7 ADD DUP3 PUSH2 0x2AEF JUMP JUMPDEST POP PUSH1 0xC0 DUP4 ADD MLOAD PUSH2 0x2EAA PUSH1 0xC0 DUP7 ADD DUP3 PUSH2 0x2AEF JUMP JUMPDEST POP PUSH1 0xE0 DUP4 ADD MLOAD PUSH2 0x2EBD PUSH1 0xE0 DUP7 ADD DUP3 PUSH2 0x2AEF JUMP JUMPDEST POP PUSH2 0x100 DUP4 ADD MLOAD PUSH2 0x2ED2 PUSH2 0x100 DUP7 ADD DUP3 PUSH2 0x2DFE JUMP JUMPDEST POP PUSH2 0x120 DUP4 ADD MLOAD PUSH2 0x2EE7 PUSH2 0x120 DUP7 ADD DUP3 PUSH2 0x2AEF JUMP JUMPDEST POP DUP1 SWAP2 POP POP SWAP3 SWAP2 POP POP JUMP JUMPDEST PUSH0 PUSH1 0x20 DUP3 ADD SWAP1 POP DUP2 DUP2 SUB PUSH0 DUP4 ADD MSTORE PUSH2 0x2F0A DUP2 DUP5 PUSH2 0x2E0D JUMP JUMPDEST SWAP1 POP SWAP3 SWAP2 POP POP JUMP JUMPDEST PUSH0 DUP2 MLOAD SWAP1 POP SWAP2 SWAP1 POP JUMP JUMPDEST PUSH0 DUP3 DUP3 MSTORE PUSH1 0x20 DUP3 ADD SWAP1 POP SWAP3 SWAP2 POP POP JUMP JUMPDEST PUSH0 DUP2 SWAP1 POP PUSH1 0x20 DUP3 ADD SWAP1 POP SWAP2 SWAP1 POP JUMP JUMPDEST PUSH0 PUSH2 0x140 DUP4 ADD PUSH0 DUP4 ADD MLOAD PUSH2 0x2F51 PUSH0 DUP7 ADD DUP3 PUSH2 0x2AEF JUMP JUMPDEST POP PUSH1 0x20 DUP4 ADD MLOAD PUSH2 0x2F64 PUSH1 0x20 DUP7 ADD DUP3 PUSH2 0x2AFE JUMP JUMPDEST POP PUSH1 0x40 DUP4 ADD MLOAD DUP5 DUP3 SUB PUSH1 0x40 DUP7 ADD MSTORE PUSH2 0x2F7C DUP3 DUP3 PUSH2 0x2B1D JUMP JUMPDEST SWAP2 POP POP PUSH1 0x60 DUP4 ADD MLOAD DUP5 DUP3 SUB PUSH1 0x60 DUP7 ADD MSTORE PUSH2 0x2F96 DUP3 DUP3 PUSH2 0x2B1D JUMP JUMPDEST SWAP2 POP POP PUSH1 0x80 DUP4 ADD MLOAD DUP5 DUP3 SUB PUSH1 0x80 DUP7 ADD MSTORE PUSH2 0x2FB0 DUP3 DUP3 PUSH2 0x2B1D JUMP JUMPDEST SWAP2 POP POP PUSH1 0xA0 DUP4 ADD MLOAD PUSH2 0x2FC5 PUSH1 0xA0 DUP7 ADD DUP3 PUSH2 0x2AEF JUMP JUMPDEST POP PUSH1 0xC0 DUP4 ADD MLOAD PUSH2 0x2FD8 PUSH1 0xC0 DUP7 ADD DUP3 PUSH2 0x2AEF JUMP JUMPDEST POP PUSH1 0xE0 DUP4 ADD MLOAD PUSH2 0x2FEB PUSH1 0xE0 DUP7 ADD DUP3 PUSH2 0x2AEF JUMP JUMPDEST POP PUSH2 0x100 DUP4 ADD MLOAD PUSH2 0x3000 PUSH2 0x100 DUP7 ADD DUP3 PUSH2 0x2DFE JUMP JUMPDEST POP PUSH2 0x120 DUP4 ADD MLOAD PUSH2 0x3015 PUSH2 0x120 DUP7 ADD DUP3 PUSH2 0x2AEF JUMP JUMPDEST POP DUP1 SWAP2 POP POP SWAP3 SWAP2 POP POP JUMP JUMPDEST PUSH0 PUSH2 0x302B DUP4 DUP4 PUSH2 0x2F3B JUMP JUMPDEST SWAP1 POP SWAP3 SWAP2 POP POP JUMP JUMPDEST PUSH0 PUSH1 0x20 DUP3 ADD SWAP1 POP SWAP2 SWAP1 POP JUMP JUMPDEST PUSH0 PUSH2 0x3049 DUP3 PUSH2 0x2F12 JUMP JUMPDEST PUSH2 0x3053 DUP2 DUP6 PUSH2 0x2F1C JUMP JUMPDEST SWAP4 POP DUP4 PUSH1 0x20 DUP3 MUL DUP6 ADD PUSH2 0x3065 DUP6 PUSH2 0x2F2C JUMP JUMPDEST DUP1 PUSH0 JUMPDEST DUP6 DUP2 LT ISZERO PUSH2 0x30A0 JUMPI DUP5 DUP5 SUB DUP10 MSTORE DUP2 MLOAD PUSH2 0x3081 DUP6 DUP3 PUSH2 0x3020 JUMP JUMPDEST SWAP5 POP PUSH2 0x308C DUP4 PUSH2 0x3033 JUMP JUMPDEST SWAP3 POP PUSH1 0x20 DUP11 ADD SWAP10 POP POP PUSH1 0x1 DUP2 ADD SWAP1 POP PUSH2 0x3068 JUMP JUMPDEST POP DUP3 SWAP8 POP DUP8 SWAP6 POP POP POP POP POP POP SWAP3 SWAP2 POP POP JUMP JUMPDEST PUSH0 PUSH1 0x20 DUP3 ADD SWAP1 POP DUP2 DUP2 SUB PUSH0 DUP4 ADD MSTORE PUSH2 0x30CA DUP2 DUP5 PUSH2 0x303F JUMP JUMPDEST SWAP1 POP SWAP3 SWAP2 POP POP JUMP JUMPDEST PUSH32 0x5175657374696F6E20646F6573206E6F74206578697374000000000000000000 PUSH0 DUP3 ADD MSTORE POP JUMP JUMPDEST PUSH0 PUSH2 0x3106 PUSH1 0x17 DUP4 PUSH2 0x28D1 JUMP JUMPDEST SWAP2 POP PUSH2 0x3111 DUP3 PUSH2 0x30D2 JUMP JUMPDEST PUSH1 0x20 DUP3 ADD SWAP1 POP SWAP2 SWAP1 POP JUMP JUMPDEST PUSH0 PUSH1 0x20 DUP3 ADD SWAP1 POP DUP2 DUP2 SUB PUSH0 DUP4 ADD MSTORE PUSH2 0x3133 DUP2 PUSH2 0x30FA JUMP JUMPDEST SWAP1 POP SWAP2 SWAP1 POP JUMP JUMPDEST PUSH32 0x5175657374696F6E20697320616C726561647920636C6F736564000000000000 PUSH0 DUP3 ADD MSTORE POP JUMP JUMPDEST PUSH0 PUSH2 0x316E PUSH1 0x1A DUP4 PUSH2 0x28D1 JUMP JUMPDEST SWAP2 POP PUSH2 0x3179 DUP3 PUSH2 0x313A JUMP JUMPDEST PUSH1 0x20 DUP3 ADD SWAP1 POP SWAP2 SWAP1 POP JUMP JUMPDEST PUSH0 PUSH1 0x20 DUP3 ADD SWAP1 POP DUP2 DUP2 SUB PUSH0 DUP4 ADD MSTORE PUSH2 0x319B DUP2 PUSH2 0x3162 JUMP JUMPDEST SWAP1 POP SWAP2 SWAP1 POP JUMP JUMPDEST PUSH32 0x4F6E6C792061736B65722063616E20636C6F7365207175657374696F6E000000 PUSH0 DUP3 ADD MSTORE POP JUMP JUMPDEST PUSH0 PUSH2 0x31D6 PUSH1 0x1D DUP4 PUSH2 0x28D1 JUMP JUMPDEST SWAP2 POP PUSH2 0x31E1 DUP3 PUSH2 0x31A2 JUMP JUMPDEST PUSH1 0x20 DUP3 ADD SWAP1 POP SWAP2 SWAP1 POP JUMP JUMPDEST PUSH0 PUSH1 0x20 DUP3 ADD SWAP1 POP DUP2 DUP2 SUB PUSH0 DUP4 ADD MSTORE PUSH2 0x3203 DUP2 PUSH2 0x31CA JUMP JUMPDEST SWAP1 POP SWAP2 SWAP1 POP JUMP JUMPDEST PUSH0 PUSH1 0x40 DUP3 ADD SWAP1 POP PUSH2 0x321D PUSH0 DUP4 ADD DUP6 PUSH2 0x2879 JUMP JUMPDEST PUSH2 0x322A PUSH1 0x20 DUP4 ADD DUP5 PUSH2 0x2879 JUMP JUMPDEST SWAP4 SWAP3 POP POP POP JUMP JUMPDEST PUSH32 0x4E487B7100000000000000000000000000000000000000000000000000000000 PUSH0 MSTORE PUSH1 0x22 PUSH1 0x4 MSTORE PUSH1 0x24 PUSH0 REVERT JUMPDEST PUSH0 PUSH1 0x2 DUP3 DIV SWAP1 POP PUSH1 0x1 DUP3 AND DUP1 PUSH2 0x3275 JUMPI PUSH1 0x7F DUP3 AND SWAP2 POP JUMPDEST PUSH1 0x20 DUP3 LT DUP2 SUB PUSH2 0x3288 JUMPI PUSH2 0x3287 PUSH2 0x3231 JUMP JUMPDEST JUMPDEST POP SWAP2 SWAP1 POP JUMP JUMPDEST PUSH32 0x5175657374696F6E20646561646C696E65206861732070617373656400000000 PUSH0 DUP3 ADD MSTORE POP JUMP JUMPDEST PUSH0 PUSH2 0x32C2 PUSH1 0x1C DUP4 PUSH2 0x28D1 JUMP JUMPDEST SWAP2 POP PUSH2 0x32CD DUP3 PUSH2 0x328E JUMP JUMPDEST PUSH1 0x20 DUP3 ADD SWAP1 POP SWAP2 SWAP1 POP JUMP JUMPDEST PUSH0 PUSH1 0x20 DUP3 ADD SWAP1 POP DUP2 DUP2 SUB PUSH0 DUP4 ADD MSTORE PUSH2 0x32EF DUP2 PUSH2 0x32B6 JUMP JUMPDEST SWAP1 POP SWAP2 SWAP1 POP JUMP JUMPDEST PUSH32 0x4E487B7100000000000000000000000000000000000000000000000000000000 PUSH0 MSTORE PUSH1 0x11 PUSH1 0x4 MSTORE PUSH1 0x24 PUSH0 REVERT JUMPDEST PUSH0 PUSH2 0x332D DUP3 PUSH2 0x2672 JUMP JUMPDEST SWAP2 POP PUSH32 0xFFFFFFFFFFFFFFFFFFFFFFFFFFFFFFFFFFFFFFFFFFFFFFFFFFFFFFFFFFFFFFFF DUP3 SUB PUSH2 0x335F JUMPI PUSH2 0x335E PUSH2 0x32F6 JUMP JUMPDEST JUMPDEST PUSH1 0x1 DUP3 ADD SWAP1 POP SWAP2 SWAP1 POP JUMP JUMPDEST PUSH0 DUP2 SWAP1 POP DUP2 PUSH0 MSTORE PUSH1 0x20 PUSH0 KECCAK256 SWAP1 POP SWAP2 SWAP1 POP JUMP JUMPDEST PUSH0 PUSH1 0x20 PUSH1 0x1F DUP4 ADD DIV SWAP1 POP SWAP2 SWAP1 POP JUMP JUMPDEST PUSH0 DUP3 DUP3 SHL SWAP1 POP SWAP3 SWAP2 POP POP JUMP JUMPDEST PUSH0 PUSH1 0x8 DUP4 MUL PUSH2 0x33C6 PUSH32 0xFFFFFFFFFFFFFFFFFFFFFFFFFFFFFFFFFFFFFFFFFFFFFFFFFFFFFFFFFFFFFFFF DUP3 PUSH2 0x338B JUMP JUMPDEST PUSH2 0x33D0 DUP7 DUP4 PUSH2 0x338B JUMP JUMPDEST SWAP6 POP DUP1 NOT DUP5 AND SWAP4 POP DUP1 DUP7 AND DUP5 OR SWAP3 POP POP POP SWAP4 SWAP3 POP POP POP JUMP JUMPDEST PUSH0 DUP2 SWAP1 POP SWAP2 SWAP1 POP JUMP JUMPDEST PUSH0 PUSH2 0x340B PUSH2 0x3406 PUSH2 0x3401 DUP5 PUSH2 0x2672 JUMP JUMPDEST PUSH2 0x33E8 JUMP JUMPDEST PUSH2 0x2672 JUMP JUMPDEST SWAP1 POP SWAP2 SWAP1 POP JUMP JUMPDEST PUSH0 DUP2 SWAP1 POP SWAP2 SWAP1 POP JUMP JUMPDEST PUSH2 0x3424 DUP4 PUSH2 0x33F1 JUMP JUMPDEST PUSH2 0x3438 PUSH2 0x3430 DUP3 PUSH2 0x3412 JUMP JUMPDEST DUP5 DUP5 SLOAD PUSH2 0x3397 JUMP JUMPDEST DUP3 SSTORE POP POP POP POP JUMP JUMPDEST PUSH0 SWAP1 JUMP JUMPDEST PUSH2 0x344C PUSH2 0x3440 JUMP JUMPDEST PUSH2 0x3457 DUP2 DUP5 DUP5 PUSH2 0x341B JUMP JUMPDEST POP POP POP JUMP JUMPDEST JUMPDEST DUP2 DUP2 LT ISZERO PUSH2 0x347A JUMPI PUSH2 0x346F PUSH0 DUP3 PUSH2 0x3444 JUMP JUMPDEST PUSH1 0x1 DUP2 ADD SWAP1 POP PUSH2 0x345D JUMP JUMPDEST POP POP JUMP JUMPDEST PUSH1 0x1F DUP3 GT ISZERO PUSH2 0x34BF JUMPI PUSH2 0x3490 DUP2 PUSH2 0x336A JUMP JUMPDEST PUSH2 0x3499 DUP5 PUSH2 0x337C JUMP JUMPDEST DUP2 ADD PUSH1 0x20 DUP6 LT ISZERO PUSH2 0x34A8 JUMPI DUP2 SWAP1 POP JUMPDEST PUSH2 0x34BC PUSH2 0x34B4 DUP6 PUSH2 0x337C JUMP JUMPDEST DUP4 ADD DUP3 PUSH2 0x345C JUMP JUMPDEST POP POP JUMPDEST POP POP POP JUMP JUMPDEST PUSH0 DUP3 DUP3 SHR SWAP1 POP SWAP3 SWAP2 POP POP JUMP JUMPDEST PUSH0 PUSH2 0x34DF PUSH0 NOT DUP5 PUSH1 0x8 MUL PUSH2 0x34C4 JUMP JUMPDEST NOT DUP1 DUP4 AND SWAP2 POP POP SWAP3 SWAP2 POP POP JUMP JUMPDEST PUSH0 PUSH2 0x34F7 DUP4 DUP4 PUSH2 0x34D0 JUMP JUMPDEST SWAP2 POP DUP3 PUSH1 0x2 MUL DUP3 OR SWAP1 POP SWAP3 SWAP2 POP POP JUMP JUMPDEST PUSH2 0x3510 DUP3 PUSH2 0x28C7 JUMP JUMPDEST PUSH8 0xFFFFFFFFFFFFFFFF DUP2 GT ISZERO PUSH2 0x3529 JUMPI PUSH2 0x3528 PUSH2 0x26FB JUMP JUMPDEST JUMPDEST PUSH2 0x3533 DUP3 SLOAD PUSH2 0x325E JUMP JUMPDEST PUSH2 0x353E DUP3 DUP3 DUP6 PUSH2 0x347E JUMP JUMPDEST PUSH0 PUSH1 0x20 SWAP1 POP PUSH1 0x1F DUP4 GT PUSH1 0x1 DUP2 EQ PUSH2 0x356F JUMPI PUSH0 DUP5 ISZERO PUSH2 0x355D JUMPI DUP3 DUP8 ADD MLOAD SWAP1 POP JUMPDEST PUSH2 0x3567 DUP6 DUP3 PUSH2 0x34EC JUMP JUMPDEST DUP7 SSTORE POP PUSH2 0x35CE JUMP JUMPDEST PUSH1 0x1F NOT DUP5 AND PUSH2 0x357D DUP7 PUSH2 0x336A JUMP JUMPDEST PUSH0 JUMPDEST DUP3 DUP2 LT ISZERO PUSH2 0x35A4 JUMPI DUP5 DUP10 ADD MLOAD DUP3 SSTORE PUSH1 0x1 DUP3 ADD SWAP2 POP PUSH1 0x20 DUP6 ADD SWAP5 POP PUSH1 0x20 DUP2 ADD SWAP1 POP PUSH2 0x357F JUMP JUMPDEST DUP7 DUP4 LT ISZERO PUSH2 0x35C1 JUMPI DUP5 DUP10 ADD MLOAD PUSH2 0x35BD PUSH1 0x1F DUP10 AND DUP3 PUSH2 0x34D0 JUMP JUMPDEST DUP4 SSTORE POP JUMPDEST PUSH1 0x1 PUSH1 0x2 DUP9 MUL ADD DUP9 SSTORE POP POP POP JUMPDEST POP POP POP POP POP POP JUMP JUMPDEST PUSH0 PUSH1 0x60 DUP3 ADD SWAP1 POP PUSH2 0x35E9 PUSH0 DUP4 ADD DUP7 PUSH2 0x2879 JUMP JUMPDEST PUSH2 0x35F6 PUSH1 0x20 DUP4 ADD DUP6 PUSH2 0x2879 JUMP JUMPDEST DUP2 DUP2 SUB PUSH1 0x40 DUP4 ADD MSTORE PUSH2 0x3608 DUP2 DUP5 PUSH2 0x28EF JUMP JUMPDEST SWAP1 POP SWAP5 SWAP4 POP POP POP POP JUMP JUMPDEST PUSH32 0x566F74696E6720706572696F642068617320656E646564000000000000000000 PUSH0 DUP3 ADD MSTORE POP JUMP JUMPDEST PUSH0 PUSH2 0x3646 PUSH1 0x17 DUP4 PUSH2 0x28D1 JUMP JUMPDEST SWAP2 POP PUSH2 0x3651 DUP3 PUSH2 0x3612 JUMP JUMPDEST PUSH1 0x20 DUP3 ADD SWAP1 POP SWAP2 SWAP1 POP JUMP JUMPDEST PUSH0 PUSH1 0x20 DUP3 ADD SWAP1 POP DUP2 DUP2 SUB PUSH0 DUP4 ADD MSTORE PUSH2 0x3673 DUP2 PUSH2 0x363A JUMP JUMPDEST SWAP1 POP SWAP2 SWAP1 POP JUMP JUMPDEST PUSH32 0x496E636F727265637420766F7465206665650000000000000000000000000000 PUSH0 DUP3 ADD MSTORE POP JUMP JUMPDEST PUSH0 PUSH2 0x36AE PUSH1 0x12 DUP4 PUSH2 0x28D1 JUMP JUMPDEST SWAP2 POP PUSH2 0x36B9 DUP3 PUSH2 0x367A JUMP JUMPDEST PUSH1 0x20 DUP3 ADD SWAP1 POP SWAP2 SWAP1 POP JUMP JUMPDEST PUSH0 PUSH1 0x20 DUP3 ADD SWAP1 POP DUP2 DUP2 SUB PUSH0 DUP4 ADD MSTORE PUSH2 0x36DB DUP2 PUSH2 0x36A2 JUMP JUMPDEST SWAP1 POP SWAP2 SWAP1 POP JUMP JUMPDEST PUSH0 PUSH2 0x36EC DUP3 PUSH2 0x2672 JUMP JUMPDEST SWAP2 POP PUSH2 0x36F7 DUP4 PUSH2 0x2672 JUMP JUMPDEST SWAP3 POP DUP3 DUP3 ADD SWAP1 POP DUP1 DUP3 GT ISZERO PUSH2 0x370F JUMPI PUSH2 0x370E PUSH2 0x32F6 JUMP JUMPDEST JUMPDEST SWAP3 SWAP2 POP POP JUMP JUMPDEST PUSH32 0x4E6F2066756E647320746F207769746864726177000000000000000000000000 PUSH0 DUP3 ADD MSTORE POP JUMP JUMPDEST PUSH0 PUSH2 0x3749 PUSH1 0x14 DUP4 PUSH2 0x28D1 JUMP JUMPDEST SWAP2 POP PUSH2 0x3754 DUP3 PUSH2 0x3715 JUMP JUMPDEST PUSH1 0x20 DUP3 ADD SWAP1 POP SWAP2 SWAP1 POP JUMP JUMPDEST PUSH0 PUSH1 0x20 DUP3 ADD SWAP1 POP DUP2 DUP2 SUB PUSH0 DUP4 ADD MSTORE PUSH2 0x3776 DUP2 PUSH2 0x373D JUMP JUMPDEST SWAP1 POP SWAP2 SWAP1 POP JUMP JUMPDEST PUSH32 0x416E7377657220646F6573206E6F742065786973740000000000000000000000 PUSH0 DUP3 ADD MSTORE POP JUMP JUMPDEST PUSH0 PUSH2 0x37B1 PUSH1 0x15 DUP4 PUSH2 0x28D1 JUMP JUMPDEST SWAP2 POP PUSH2 0x37BC DUP3 PUSH2 0x377D JUMP JUMPDEST PUSH1 0x20 DUP3 ADD SWAP1 POP SWAP2 SWAP1 POP JUMP JUMPDEST PUSH0 PUSH1 0x20 DUP3 ADD SWAP1 POP DUP2 DUP2 SUB PUSH0 DUP4 ADD MSTORE PUSH2 0x37DE DUP2 PUSH2 0x37A5 JUMP JUMPDEST SWAP1 POP SWAP2 SWAP1 POP JUMP JUMPDEST PUSH0 DUP2 SWAP1 POP SWAP3 SWAP2 POP POP JUMP JUMPDEST PUSH0 DUP2 SWAP1 POP DUP2 PUSH0 MSTORE PUSH1 0x20 PUSH0 KECCAK256 SWAP1 POP SWAP2 SWAP1 POP JUMP JUMPDEST PUSH0 DUP2 SLOAD PUSH2 0x380D DUP2 PUSH2 0x325E JUMP JUMPDEST PUSH2 0x3817 DUP2 DUP7 PUSH2 0x37E5 JUMP JUMPDEST SWAP5 POP PUSH1 0x1 DUP3 AND PUSH0 DUP2 EQ PUSH2 0x3831 JUMPI PUSH1 0x1 DUP2 EQ PUSH2 0x3846 JUMPI PUSH2 0x3878 JUMP JUMPDEST PUSH1 0xFF NOT DUP4 AND DUP7 MSTORE DUP2 ISZERO ISZERO DUP3 MUL DUP7 ADD SWAP4 POP PUSH2 0x3878 JUMP JUMPDEST PUSH2 0x384F DUP6 PUSH2 0x37EF JUMP JUMPDEST PUSH0 JUMPDEST DUP4 DUP2 LT ISZERO PUSH2 0x3870 JUMPI DUP2 SLOAD DUP2 DUP10 ADD MSTORE PUSH1 0x1 DUP3 ADD SWAP2 POP PUSH1 0x20 DUP2 ADD SWAP1 POP PUSH2 0x3851 JUMP JUMPDEST DUP4 DUP9 ADD SWAP6 POP POP POP JUMPDEST POP POP POP SWAP3 SWAP2 POP POP JUMP JUMPDEST PUSH0 PUSH2 0x388C DUP3 DUP5 PUSH2 0x3801 JUMP JUMPDEST SWAP2 POP DUP2 SWAP1 POP SWAP3 SWAP2 POP POP JUMP JUMPDEST PUSH32 0x4E487B7100000000000000000000000000000000000000000000000000000000 PUSH0 MSTORE PUSH1 0x32 PUSH1 0x4 MSTORE PUSH1 0x24 PUSH0 REVERT JUMPDEST PUSH32 0x526577617264206D7573742062652067726561746572207468616E207A65726F PUSH0 DUP3 ADD MSTORE POP JUMP JUMPDEST PUSH0 PUSH2 0x38F8 PUSH1 0x20 DUP4 PUSH2 0x28D1 JUMP JUMPDEST SWAP2 POP PUSH2 0x3903 DUP3 PUSH2 0x38C4 JUMP JUMPDEST PUSH1 0x20 DUP3 ADD SWAP1 POP SWAP2 SWAP1 POP JUMP JUMPDEST PUSH0 PUSH1 0x20 DUP3 ADD SWAP1 POP DUP2 DUP2 SUB PUSH0 DUP4 ADD MSTORE PUSH2 0x3925 DUP2 PUSH2 0x38EC JUMP JUMPDEST SWAP1 POP SWAP2 SWAP1 POP JUMP JUMPDEST PUSH32 0x43617465676F72792063616E6E6F7420626520656D7074790000000000000000 PUSH0 DUP3 ADD MSTORE POP JUMP JUMPDEST PUSH0 PUSH2 0x3960 PUSH1 0x18 DUP4 PUSH2 0x28D1 JUMP JUMPDEST SWAP2 POP PUSH2 0x396B DUP3 PUSH2 0x392C JUMP JUMPDEST PUSH1 0x20 DUP3 ADD SWAP1 POP SWAP2 SWAP1 POP JUMP JUMPDEST PUSH0 PUSH1 0x20 DUP3 ADD SWAP1 POP DUP2 DUP2 SUB PUSH0 DUP4 ADD MSTORE PUSH2 0x398D DUP2 PUSH2 0x3954 JUMP JUMPDEST SWAP1 POP SWAP2 SWAP1 POP JUMP JUMPDEST PUSH32 0x4E487B7100000000000000000000000000000000000000000000000000000000 PUSH0 MSTORE PUSH1 0x21 PUSH1 0x4 MSTORE PUSH1 0x24 PUSH0 REVERT JUMPDEST PUSH0 PUSH1 0x80 DUP3 ADD SWAP1 POP PUSH2 0x39D4 PUSH0 DUP4 ADD DUP8 PUSH2 0x2879 JUMP JUMPDEST DUP2 DUP2 SUB PUSH1 0x20 DUP4 ADD MSTORE PUSH2 0x39E6 DUP2 DUP7 PUSH2 0x28EF JUMP JUMPDEST SWAP1 POP PUSH2 0x39F5 PUSH1 0x40 DUP4 ADD DUP6 PUSH2 0x2879 JUMP JUMPDEST DUP2 DUP2 SUB PUSH1 0x60 DUP4 ADD MSTORE PUSH2 0x3A07 DUP2 DUP5 PUSH2 0x28EF JUMP JUMPDEST SWAP1 POP SWAP6 SWAP5 POP POP POP POP POP JUMP JUMPDEST PUSH32 0x43616E6E6F742064697374726962757465206265666F726520646561646C696E PUSH0 DUP3 ADD MSTORE PUSH32 0x6500000000000000000000000000000000000000000000000000000000000000 PUSH1 0x20 DUP3 ADD MSTORE POP JUMP JUMPDEST PUSH0 PUSH2 0x3A6C PUSH1 0x21 DUP4 PUSH2 0x28D1 JUMP JUMPDEST SWAP2 POP PUSH2 0x3A77 DUP3 PUSH2 0x3A12 JUMP JUMPDEST PUSH1 0x40 DUP3 ADD SWAP1 POP SWAP2 SWAP1 POP JUMP JUMPDEST PUSH0 PUSH1 0x20 DUP3 ADD SWAP1 POP DUP2 DUP2 SUB PUSH0 DUP4 ADD MSTORE PUSH2 0x3A99 DUP2 PUSH2 0x3A60 JUMP JUMPDEST SWAP1 POP SWAP2 SWAP1 POP JUMP JUMPDEST PUSH0 PUSH2 0x3AAA DUP3 PUSH2 0x2672 JUMP JUMPDEST SWAP2 POP PUSH2 0x3AB5 DUP4 PUSH2 0x2672 JUMP JUMPDEST SWAP3 POP DUP3 DUP3 MUL PUSH2 0x3AC3 DUP2 PUSH2 0x2672 JUMP JUMPDEST SWAP2 POP DUP3 DUP3 DIV DUP5 EQ DUP4 ISZERO OR PUSH2 0x3ADA JUMPI PUSH2 0x3AD9 PUSH2 0x32F6 JUMP JUMPDEST JUMPDEST POP SWAP3 SWAP2 POP POP JUMP JUMPDEST PUSH32 0x4E487B7100000000000000000000000000000000000000000000000000000000 PUSH0 MSTORE PUSH1 0x12 PUSH1 0x4 MSTORE PUSH1 0x24 PUSH0 REVERT JUMPDEST PUSH0 PUSH2 0x3B18 DUP3 PUSH2 0x2672 JUMP JUMPDEST SWAP2 POP PUSH2 0x3B23 DUP4 PUSH2 0x2672 JUMP JUMPDEST SWAP3 POP DUP3 PUSH2 0x3B33 JUMPI PUSH2 0x3B32 PUSH2 0x3AE1 JUMP JUMPDEST JUMPDEST DUP3 DUP3 DIV SWAP1 POP SWAP3 SWAP2 POP POP JUMP JUMPDEST PUSH32 0x5061676520696E646578206D7573742073746172742066726F6D203100000000 PUSH0 DUP3 ADD MSTORE POP JUMP JUMPDEST PUSH0 PUSH2 0x3B72 PUSH1 0x1C DUP4 PUSH2 0x28D1 JUMP JUMPDEST SWAP2 POP PUSH2 0x3B7D DUP3 PUSH2 0x3B3E JUMP JUMPDEST PUSH1 0x20 DUP3 ADD SWAP1 POP SWAP2 SWAP1 POP JUMP JUMPDEST PUSH0 PUSH1 0x20 DUP3 ADD SWAP1 POP DUP2 DUP2 SUB PUSH0 DUP4 ADD MSTORE PUSH2 0x3B9F DUP2 PUSH2 0x3B66 JUMP JUMPDEST SWAP1 POP SWAP2 SWAP1 POP JUMP JUMPDEST PUSH32 0x506167652073697A65206D7573742062652067726561746572207468616E2030 PUSH0 DUP3 ADD MSTORE POP JUMP JUMPDEST PUSH0 PUSH2 0x3BDA PUSH1 0x20 DUP4 PUSH2 0x28D1 JUMP JUMPDEST SWAP2 POP PUSH2 0x3BE5 DUP3 PUSH2 0x3BA6 JUMP JUMPDEST PUSH1 0x20 DUP3 ADD SWAP1 POP SWAP2 SWAP1 POP JUMP JUMPDEST PUSH0 PUSH1 0x20 DUP3 ADD SWAP1 POP DUP2 DUP2 SUB PUSH0 DUP4 ADD MSTORE PUSH2 0x3C07 DUP2 PUSH2 0x3BCE JUMP JUMPDEST SWAP1 POP SWAP2 SWAP1 POP JUMP JUMPDEST PUSH0 PUSH2 0x3C18 DUP3 PUSH2 0x2672 JUMP JUMPDEST SWAP2 POP PUSH2 0x3C23 DUP4 PUSH2 0x2672 JUMP JUMPDEST SWAP3 POP DUP3 DUP3 SUB SWAP1 POP DUP2 DUP2 GT ISZERO PUSH2 0x3C3B JUMPI PUSH2 0x3C3A PUSH2 0x32F6 JUMP JUMPDEST JUMPDEST SWAP3 SWAP2 POP POP JUMP JUMPDEST PUSH32 0x496E76616C6964207061676520696E6465780000000000000000000000000000 PUSH0 DUP3 ADD MSTORE POP JUMP JUMPDEST PUSH0 PUSH2 0x3C75 PUSH1 0x12 DUP4 PUSH2 0x28D1 JUMP JUMPDEST SWAP2 POP PUSH2 0x3C80 DUP3 PUSH2 0x3C41 JUMP JUMPDEST PUSH1 0x20 DUP3 ADD SWAP1 POP SWAP2 SWAP1 POP JUMP JUMPDEST PUSH0 PUSH1 0x20 DUP3 ADD SWAP1 POP DUP2 DUP2 SUB PUSH0 DUP4 ADD MSTORE PUSH2 0x3CA2 DUP2 PUSH2 0x3C69 JUMP JUMPDEST SWAP1 POP SWAP2 SWAP1 POP JUMP INVALID LOG2 PUSH5 0x6970667358 0x22 SLT KECCAK256 NUMBER PUSH23 0xCAF1C8B8F7E626B3818CD9189A3E8AFCF788BC0D3D3733 PUSH4 0xBAE198B1 0x4C PUSH9 0x64736F6C634300081A STOP CALLER "
				},
				"gasEstimates": {
					"creation": {
						"codeDepositCost": "3116600",
						"executionCost": "94033",
						"totalCost": "3210633"
					},
					"external": {
						"MONTH()": "369",
						"TWO_WEEKS()": "414",
						"WEEK()": "435",
						"answerIdCounter()": "2447",
						"answers(uint256,uint256)": "infinite",
						"askQuestion(string,string,string,uint8)": "infinite",
						"balance()": "445",
						"balances(address)": "2914",
						"closeQuestion(uint256,uint256)": "infinite",
						"distributeRewards(uint256)": "infinite",
						"getAnswerById(uint256,uint256)": "infinite",
						"getQuestionById(uint256)": "infinite",
						"getQuestions(uint256,uint256)": "infinite",
						"getQuestionsByCategory(string)": "infinite",
						"owner()": "2572",
						"questionIdCounter()": "2470",
						"questions(uint256)": "infinite",
						"submitAnswer(uint256,string)": "infinite",
						"voteFee()": "2491",
						"voteForAnswer(uint256,uint256)": "infinite",
						"withdraw()": "infinite"
					}
				},
				"methodIdentifiers": {
					"MONTH()": "d5999a5c",
					"TWO_WEEKS()": "934d1fa4",
					"WEEK()": "f4359ce5",
					"answerIdCounter()": "cba13030",
					"answers(uint256,uint256)": "2401519c",
					"askQuestion(string,string,string,uint8)": "572491c3",
					"balance()": "b69ef8a8",
					"balances(address)": "27e235e3",
					"closeQuestion(uint256,uint256)": "01b49d47",
					"distributeRewards(uint256)": "59974e38",
					"getAnswerById(uint256,uint256)": "4a8f164f",
					"getQuestionById(uint256)": "e25f3e02",
					"getQuestions(uint256,uint256)": "fd1df035",
					"getQuestionsByCategory(string)": "55ce8034",
					"owner()": "8da5cb5b",
					"questionIdCounter()": "61e78617",
					"questions(uint256)": "31b1b978",
					"submitAnswer(uint256,string)": "01fa3bec",
					"voteFee()": "da2b4c1e",
					"voteForAnswer(uint256,uint256)": "2690567e",
					"withdraw()": "3ccfd60b"
				}
			},
			"storageLayout": {
				"storage": [
					{
						"astId": 3,
						"contract": "contracts/InquireA.sol:InquireA",
						"label": "owner",
						"offset": 0,
						"slot": "0",
						"type": "t_address"
					},
					{
						"astId": 6,
						"contract": "contracts/InquireA.sol:InquireA",
						"label": "voteFee",
						"offset": 0,
						"slot": "1",
						"type": "t_uint256"
					},
					{
						"astId": 8,
						"contract": "contracts/InquireA.sol:InquireA",
						"label": "questionIdCounter",
						"offset": 0,
						"slot": "2",
						"type": "t_uint256"
					},
					{
						"astId": 10,
						"contract": "contracts/InquireA.sol:InquireA",
						"label": "answerIdCounter",
						"offset": 0,
						"slot": "3",
						"type": "t_uint256"
					},
					{
						"astId": 62,
						"contract": "contracts/InquireA.sol:InquireA",
						"label": "questions",
						"offset": 0,
						"slot": "4",
						"type": "t_mapping(t_uint256,t_struct(Question)44_storage)"
					},
					{
						"astId": 69,
						"contract": "contracts/InquireA.sol:InquireA",
						"label": "answers",
						"offset": 0,
						"slot": "5",
						"type": "t_mapping(t_uint256,t_mapping(t_uint256,t_struct(Answer)57_storage))"
					},
					{
						"astId": 73,
						"contract": "contracts/InquireA.sol:InquireA",
						"label": "balances",
						"offset": 0,
						"slot": "6",
						"type": "t_mapping(t_address,t_uint256)"
					}
				],
				"types": {
					"t_address": {
						"encoding": "inplace",
						"label": "address",
						"numberOfBytes": "20"
					},
					"t_bool": {
						"encoding": "inplace",
						"label": "bool",
						"numberOfBytes": "1"
					},
					"t_mapping(t_address,t_uint256)": {
						"encoding": "mapping",
						"key": "t_address",
						"label": "mapping(address => uint256)",
						"numberOfBytes": "32",
						"value": "t_uint256"
					},
					"t_mapping(t_uint256,t_mapping(t_uint256,t_struct(Answer)57_storage))": {
						"encoding": "mapping",
						"key": "t_uint256",
						"label": "mapping(uint256 => mapping(uint256 => struct InquireA.Answer))",
						"numberOfBytes": "32",
						"value": "t_mapping(t_uint256,t_struct(Answer)57_storage)"
					},
					"t_mapping(t_uint256,t_struct(Answer)57_storage)": {
						"encoding": "mapping",
						"key": "t_uint256",
						"label": "mapping(uint256 => struct InquireA.Answer)",
						"numberOfBytes": "32",
						"value": "t_struct(Answer)57_storage"
					},
					"t_mapping(t_uint256,t_struct(Question)44_storage)": {
						"encoding": "mapping",
						"key": "t_uint256",
						"label": "mapping(uint256 => struct InquireA.Question)",
						"numberOfBytes": "32",
						"value": "t_struct(Question)44_storage"
					},
					"t_string_storage": {
						"encoding": "bytes",
						"label": "string",
						"numberOfBytes": "32"
					},
					"t_struct(Answer)57_storage": {
						"encoding": "inplace",
						"label": "struct InquireA.Answer",
						"members": [
							{
								"astId": 46,
								"contract": "contracts/InquireA.sol:InquireA",
								"label": "id",
								"offset": 0,
								"slot": "0",
								"type": "t_uint256"
							},
							{
								"astId": 48,
								"contract": "contracts/InquireA.sol:InquireA",
								"label": "responder",
								"offset": 0,
								"slot": "1",
								"type": "t_address"
							},
							{
								"astId": 50,
								"contract": "contracts/InquireA.sol:InquireA",
								"label": "answerText",
								"offset": 0,
								"slot": "2",
								"type": "t_string_storage"
							},
							{
								"astId": 52,
								"contract": "contracts/InquireA.sol:InquireA",
								"label": "upvotes",
								"offset": 0,
								"slot": "3",
								"type": "t_uint256"
							},
							{
								"astId": 54,
								"contract": "contracts/InquireA.sol:InquireA",
								"label": "rewardAmount",
								"offset": 0,
								"slot": "4",
								"type": "t_uint256"
							},
							{
								"astId": 56,
								"contract": "contracts/InquireA.sol:InquireA",
								"label": "createdAt",
								"offset": 0,
								"slot": "5",
								"type": "t_uint256"
							}
						],
						"numberOfBytes": "192"
					},
					"t_struct(Question)44_storage": {
						"encoding": "inplace",
						"label": "struct InquireA.Question",
						"members": [
							{
								"astId": 25,
								"contract": "contracts/InquireA.sol:InquireA",
								"label": "id",
								"offset": 0,
								"slot": "0",
								"type": "t_uint256"
							},
							{
								"astId": 27,
								"contract": "contracts/InquireA.sol:InquireA",
								"label": "asker",
								"offset": 0,
								"slot": "1",
								"type": "t_address"
							},
							{
								"astId": 29,
								"contract": "contracts/InquireA.sol:InquireA",
								"label": "questionText",
								"offset": 0,
								"slot": "2",
								"type": "t_string_storage"
							},
							{
								"astId": 31,
								"contract": "contracts/InquireA.sol:InquireA",
								"label": "questionContent",
								"offset": 0,
								"slot": "3",
								"type": "t_string_storage"
							},
							{
								"astId": 33,
								"contract": "contracts/InquireA.sol:InquireA",
								"label": "category",
								"offset": 0,
								"slot": "4",
								"type": "t_string_storage"
							},
							{
								"astId": 35,
								"contract": "contracts/InquireA.sol:InquireA",
								"label": "rewardAmount",
								"offset": 0,
								"slot": "5",
								"type": "t_uint256"
							},
							{
								"astId": 37,
								"contract": "contracts/InquireA.sol:InquireA",
								"label": "createdAt",
								"offset": 0,
								"slot": "6",
								"type": "t_uint256"
							},
							{
								"astId": 39,
								"contract": "contracts/InquireA.sol:InquireA",
								"label": "deadline",
								"offset": 0,
								"slot": "7",
								"type": "t_uint256"
							},
							{
								"astId": 41,
								"contract": "contracts/InquireA.sol:InquireA",
								"label": "isClosed",
								"offset": 0,
								"slot": "8",
								"type": "t_bool"
							},
							{
								"astId": 43,
								"contract": "contracts/InquireA.sol:InquireA",
								"label": "chosenAnswerId",
								"offset": 0,
								"slot": "9",
								"type": "t_uint256"
							}
						],
						"numberOfBytes": "320"
					},
					"t_uint256": {
						"encoding": "inplace",
						"label": "uint256",
						"numberOfBytes": "32"
					}
				}
			},
			"userdoc": {
				"kind": "user",
				"methods": {},
				"version": 1
			}
		}
	}
}