{
	"contracts/InquireA.sol": {
		"InquireA": {
			"abi": [
				{
					"inputs": [],
					"stateMutability": "nonpayable",
					"type": "constructor"
				},
				{
					"anonymous": false,
					"inputs": [
						{
							"indexed": false,
							"internalType": "uint256",
							"name": "questionId",
							"type": "uint256"
						},
						{
							"indexed": false,
							"internalType": "uint256",
							"name": "answerId",
							"type": "uint256"
						},
						{
							"indexed": true,
							"internalType": "address",
							"name": "responder",
							"type": "address"
						},
						{
							"indexed": false,
							"internalType": "string",
							"name": "answerText",
							"type": "string"
						}
					],
					"name": "AnswerSubmitted",
					"type": "event"
				},
				{
					"anonymous": false,
					"inputs": [
						{
							"indexed": false,
							"internalType": "uint256",
							"name": "questionId",
							"type": "uint256"
						},
						{
							"indexed": true,
							"internalType": "address",
							"name": "asker",
							"type": "address"
						},
						{
							"indexed": false,
							"internalType": "string",
							"name": "questionText",
							"type": "string"
						},
						{
							"indexed": false,
							"internalType": "uint256",
							"name": "rewardAmount",
							"type": "uint256"
						},
						{
							"indexed": false,
							"internalType": "string",
							"name": "category",
							"type": "string"
						}
					],
					"name": "QuestionAsked",
					"type": "event"
				},
				{
					"anonymous": false,
					"inputs": [
						{
							"indexed": false,
							"internalType": "uint256",
							"name": "questionId",
							"type": "uint256"
						},
						{
							"indexed": false,
							"internalType": "uint256",
							"name": "chosenAnswerId",
							"type": "uint256"
						}
					],
					"name": "QuestionClosed",
					"type": "event"
				},
				{
					"anonymous": false,
					"inputs": [
						{
							"indexed": false,
							"internalType": "uint256",
							"name": "questionId",
							"type": "uint256"
						},
						{
							"indexed": false,
							"internalType": "uint256",
							"name": "answerId",
							"type": "uint256"
						},
						{
							"indexed": true,
							"internalType": "address",
							"name": "voter",
							"type": "address"
						}
					],
					"name": "Voted",
					"type": "event"
				},
				{
					"inputs": [],
					"name": "MONTH",
					"outputs": [
						{
							"internalType": "uint256",
							"name": "",
							"type": "uint256"
						}
					],
					"stateMutability": "view",
					"type": "function"
				},
				{
					"inputs": [],
					"name": "TWO_WEEKS",
					"outputs": [
						{
							"internalType": "uint256",
							"name": "",
							"type": "uint256"
						}
					],
					"stateMutability": "view",
					"type": "function"
				},
				{
					"inputs": [],
					"name": "WEEK",
					"outputs": [
						{
							"internalType": "uint256",
							"name": "",
							"type": "uint256"
						}
					],
					"stateMutability": "view",
					"type": "function"
				},
				{
					"inputs": [],
					"name": "answerIdCounter",
					"outputs": [
						{
							"internalType": "uint256",
							"name": "",
							"type": "uint256"
						}
					],
					"stateMutability": "view",
					"type": "function"
				},
				{
					"inputs": [
						{
							"internalType": "uint256",
							"name": "",
							"type": "uint256"
						},
						{
							"internalType": "uint256",
							"name": "",
							"type": "uint256"
						}
					],
					"name": "answers",
					"outputs": [
						{
							"internalType": "uint256",
							"name": "id",
							"type": "uint256"
						},
						{
							"internalType": "address",
							"name": "responder",
							"type": "address"
						},
						{
							"internalType": "string",
							"name": "answerText",
							"type": "string"
						},
						{
							"internalType": "uint256",
							"name": "upvotes",
							"type": "uint256"
						},
						{
							"internalType": "uint256",
							"name": "rewardAmount",
							"type": "uint256"
						},
						{
							"internalType": "uint256",
							"name": "createdAt",
							"type": "uint256"
						}
					],
					"stateMutability": "view",
					"type": "function"
				},
				{
					"inputs": [
						{
							"internalType": "string",
							"name": "_questionText",
							"type": "string"
						},
						{
							"internalType": "string",
							"name": "_questionContent",
							"type": "string"
						},
						{
							"internalType": "string",
							"name": "_category",
							"type": "string"
						},
						{
							"internalType": "enum InquireA.DeadlinePeriod",
							"name": "_deadlinePeriod",
							"type": "uint8"
						}
					],
					"name": "askQuestion",
					"outputs": [],
					"stateMutability": "payable",
					"type": "function"
				},
				{
					"inputs": [],
					"name": "balance",
					"outputs": [
						{
							"internalType": "uint256",
							"name": "",
							"type": "uint256"
						}
					],
					"stateMutability": "view",
					"type": "function"
				},
				{
					"inputs": [
						{
							"internalType": "address",
							"name": "",
							"type": "address"
						}
					],
					"name": "balances",
					"outputs": [
						{
							"internalType": "uint256",
							"name": "",
							"type": "uint256"
						}
					],
					"stateMutability": "view",
					"type": "function"
				},
				{
					"inputs": [
						{
							"internalType": "uint256",
							"name": "questionId",
							"type": "uint256"
						},
						{
							"internalType": "uint256",
							"name": "answerId",
							"type": "uint256"
						}
					],
					"name": "closeQuestion",
					"outputs": [],
					"stateMutability": "nonpayable",
					"type": "function"
				},
				{
					"inputs": [
						{
							"internalType": "uint256",
							"name": "questionId",
							"type": "uint256"
						}
					],
					"name": "distributeRewards",
					"outputs": [],
					"stateMutability": "nonpayable",
					"type": "function"
				},
				{
					"inputs": [
						{
							"internalType": "uint256",
							"name": "questionId",
							"type": "uint256"
						},
						{
							"internalType": "uint256",
							"name": "answerId",
							"type": "uint256"
						}
					],
					"name": "getAnswerById",
					"outputs": [
						{
							"components": [
								{
									"internalType": "uint256",
									"name": "id",
									"type": "uint256"
								},
								{
									"internalType": "address",
									"name": "responder",
									"type": "address"
								},
								{
									"internalType": "string",
									"name": "answerText",
									"type": "string"
								},
								{
									"internalType": "uint256",
									"name": "upvotes",
									"type": "uint256"
								},
								{
									"internalType": "uint256",
									"name": "rewardAmount",
									"type": "uint256"
								},
								{
									"internalType": "uint256",
									"name": "createdAt",
									"type": "uint256"
								}
							],
							"internalType": "struct InquireA.Answer",
							"name": "",
							"type": "tuple"
						}
					],
					"stateMutability": "view",
					"type": "function"
				},
				{
					"inputs": [
						{
							"internalType": "uint256",
							"name": "questionId",
							"type": "uint256"
						},
						{
							"internalType": "uint256",
							"name": "pageIndex",
							"type": "uint256"
						},
						{
							"internalType": "uint256",
							"name": "pageSize",
							"type": "uint256"
						}
					],
					"name": "getAnswersByQuestionId",
					"outputs": [
						{
							"components": [
								{
									"internalType": "uint256",
									"name": "id",
									"type": "uint256"
								},
								{
									"internalType": "address",
									"name": "responder",
									"type": "address"
								},
								{
									"internalType": "string",
									"name": "answerText",
									"type": "string"
								},
								{
									"internalType": "uint256",
									"name": "upvotes",
									"type": "uint256"
								},
								{
									"internalType": "uint256",
									"name": "rewardAmount",
									"type": "uint256"
								},
								{
									"internalType": "uint256",
									"name": "createdAt",
									"type": "uint256"
								}
							],
							"internalType": "struct InquireA.Answer[]",
							"name": "answersList",
							"type": "tuple[]"
						},
						{
							"internalType": "uint256",
							"name": "totalAnswers",
							"type": "uint256"
						},
						{
							"internalType": "uint256",
							"name": "totalPages",
							"type": "uint256"
						}
					],
					"stateMutability": "view",
					"type": "function"
				},
				{
					"inputs": [
						{
							"internalType": "uint256",
							"name": "questionId",
							"type": "uint256"
						}
					],
					"name": "getQuestionById",
					"outputs": [
						{
							"components": [
								{
									"internalType": "uint256",
									"name": "id",
									"type": "uint256"
								},
								{
									"internalType": "address",
									"name": "asker",
									"type": "address"
								},
								{
									"internalType": "string",
									"name": "questionText",
									"type": "string"
								},
								{
									"internalType": "string",
									"name": "questionContent",
									"type": "string"
								},
								{
									"internalType": "string",
									"name": "category",
									"type": "string"
								},
								{
									"internalType": "uint256",
									"name": "rewardAmount",
									"type": "uint256"
								},
								{
									"internalType": "uint256",
									"name": "createdAt",
									"type": "uint256"
								},
								{
									"internalType": "uint256",
									"name": "deadline",
									"type": "uint256"
								},
								{
									"internalType": "bool",
									"name": "isClosed",
									"type": "bool"
								},
								{
									"internalType": "uint256",
									"name": "chosenAnswerId",
									"type": "uint256"
								}
							],
							"internalType": "struct InquireA.Question",
							"name": "",
							"type": "tuple"
						}
					],
					"stateMutability": "view",
					"type": "function"
				},
				{
					"inputs": [
						{
							"internalType": "uint256",
							"name": "pageIndex",
							"type": "uint256"
						},
						{
							"internalType": "uint256",
							"name": "pageSize",
							"type": "uint256"
						}
					],
					"name": "getQuestions",
					"outputs": [
						{
							"components": [
								{
									"internalType": "uint256",
									"name": "id",
									"type": "uint256"
								},
								{
									"internalType": "address",
									"name": "asker",
									"type": "address"
								},
								{
									"internalType": "string",
									"name": "questionText",
									"type": "string"
								},
								{
									"internalType": "string",
									"name": "questionContent",
									"type": "string"
								},
								{
									"internalType": "string",
									"name": "category",
									"type": "string"
								},
								{
									"internalType": "uint256",
									"name": "rewardAmount",
									"type": "uint256"
								},
								{
									"internalType": "uint256",
									"name": "createdAt",
									"type": "uint256"
								},
								{
									"internalType": "uint256",
									"name": "deadline",
									"type": "uint256"
								},
								{
									"internalType": "bool",
									"name": "isClosed",
									"type": "bool"
								},
								{
									"internalType": "uint256",
									"name": "chosenAnswerId",
									"type": "uint256"
								}
							],
							"internalType": "struct InquireA.Question[]",
							"name": "questionsList",
							"type": "tuple[]"
						},
						{
							"internalType": "uint256",
							"name": "totalQuestions",
							"type": "uint256"
						},
						{
							"internalType": "uint256",
							"name": "totalPages",
							"type": "uint256"
						}
					],
					"stateMutability": "view",
					"type": "function"
				},
				{
					"inputs": [
						{
							"internalType": "string",
							"name": "_category",
							"type": "string"
						}
					],
					"name": "getQuestionsByCategory",
					"outputs": [
						{
							"internalType": "uint256[]",
							"name": "",
							"type": "uint256[]"
						}
					],
					"stateMutability": "view",
					"type": "function"
				},
				{
					"inputs": [],
					"name": "owner",
					"outputs": [
						{
							"internalType": "address",
							"name": "",
							"type": "address"
						}
					],
					"stateMutability": "view",
					"type": "function"
				},
				{
					"inputs": [],
					"name": "questionIdCounter",
					"outputs": [
						{
							"internalType": "uint256",
							"name": "",
							"type": "uint256"
						}
					],
					"stateMutability": "view",
					"type": "function"
				},
				{
					"inputs": [
						{
							"internalType": "uint256",
							"name": "",
							"type": "uint256"
						}
					],
					"name": "questions",
					"outputs": [
						{
							"internalType": "uint256",
							"name": "id",
							"type": "uint256"
						},
						{
							"internalType": "address",
							"name": "asker",
							"type": "address"
						},
						{
							"internalType": "string",
							"name": "questionText",
							"type": "string"
						},
						{
							"internalType": "string",
							"name": "questionContent",
							"type": "string"
						},
						{
							"internalType": "string",
							"name": "category",
							"type": "string"
						},
						{
							"internalType": "uint256",
							"name": "rewardAmount",
							"type": "uint256"
						},
						{
							"internalType": "uint256",
							"name": "createdAt",
							"type": "uint256"
						},
						{
							"internalType": "uint256",
							"name": "deadline",
							"type": "uint256"
						},
						{
							"internalType": "bool",
							"name": "isClosed",
							"type": "bool"
						},
						{
							"internalType": "uint256",
							"name": "chosenAnswerId",
							"type": "uint256"
						}
					],
					"stateMutability": "view",
					"type": "function"
				},
				{
					"inputs": [
						{
							"internalType": "uint256",
							"name": "questionId",
							"type": "uint256"
						},
						{
							"internalType": "uint256",
							"name": "answerId",
							"type": "uint256"
						}
					],
					"name": "selectBestAnswer",
					"outputs": [],
					"stateMutability": "payable",
					"type": "function"
				},
				{
					"inputs": [
						{
							"internalType": "uint256",
							"name": "questionId",
							"type": "uint256"
						},
						{
							"internalType": "string",
							"name": "_answerText",
							"type": "string"
						}
					],
					"name": "submitAnswer",
					"outputs": [],
					"stateMutability": "nonpayable",
					"type": "function"
				},
				{
					"inputs": [],
					"name": "voteFee",
					"outputs": [
						{
							"internalType": "uint256",
							"name": "",
							"type": "uint256"
						}
					],
					"stateMutability": "view",
					"type": "function"
				},
				{
					"inputs": [
						{
							"internalType": "uint256",
							"name": "questionId",
							"type": "uint256"
						},
						{
							"internalType": "uint256",
							"name": "answerId",
							"type": "uint256"
						}
					],
					"name": "voteForAnswer",
					"outputs": [],
					"stateMutability": "nonpayable",
					"type": "function"
				},
				{
					"inputs": [],
					"name": "withdraw",
					"outputs": [],
					"stateMutability": "nonpayable",
					"type": "function"
				}
			],
			"devdoc": {
				"kind": "dev",
				"methods": {},
				"version": 1
			},
			"evm": {
				"assembly": "    /* \"contracts/InquireA.sol\":60:12670  contract InquireA {... */\n  mstore(0x40, 0x80)\n    /* \"contracts/InquireA.sol\":137:147  0.01 ether */\n  0x2386f26fc10000\n    /* \"contracts/InquireA.sol\":112:147  uint256 public voteFee = 0.01 ether */\n  0x01\n  sstore\n    /* \"contracts/InquireA.sol\":1640:1757  constructor() {... */\n  callvalue\n  dup1\n  iszero\n  tag_1\n  jumpi\n  0x00\n  dup1\n  revert\ntag_1:\n  pop\n    /* \"contracts/InquireA.sol\":1673:1683  msg.sender */\n  caller\n    /* \"contracts/InquireA.sol\":1665:1670  owner */\n  0x00\n  dup1\n    /* \"contracts/InquireA.sol\":1665:1683  owner = msg.sender */\n  0x0100\n  exp\n  dup2\n  sload\n  dup2\n  0xffffffffffffffffffffffffffffffffffffffff\n  mul\n  not\n  and\n  swap1\n  dup4\n  0xffffffffffffffffffffffffffffffffffffffff\n  and\n  mul\n  or\n  swap1\n  sstore\n  pop\n    /* \"contracts/InquireA.sol\":1714:1715  1 */\n  0x01\n    /* \"contracts/InquireA.sol\":1694:1711  questionIdCounter */\n  0x02\n    /* \"contracts/InquireA.sol\":1694:1715  questionIdCounter = 1 */\n  dup2\n  swap1\n  sstore\n  pop\n    /* \"contracts/InquireA.sol\":1746:1747  1 */\n  0x01\n    /* \"contracts/InquireA.sol\":1728:1743  answerIdCounter */\n  0x03\n    /* \"contracts/InquireA.sol\":1728:1747  answerIdCounter = 1 */\n  dup2\n  swap1\n  sstore\n  pop\n    /* \"contracts/InquireA.sol\":60:12670  contract InquireA {... */\n  dataSize(sub_0)\n  dup1\n  dataOffset(sub_0)\n  0x00\n  codecopy\n  0x00\n  return\nstop\n\nsub_0: assembly {\n        /* \"contracts/InquireA.sol\":60:12670  contract InquireA {... */\n      mstore(0x40, 0x80)\n      jumpi(tag_1, lt(calldatasize, 0x04))\n      shr(0xe0, calldataload(0x00))\n      dup1\n      0x61e78617\n      gt\n      tag_25\n      jumpi\n      dup1\n      0xd5999a5c\n      gt\n      tag_26\n      jumpi\n      dup1\n      0xd5999a5c\n      eq\n      tag_19\n      jumpi\n      dup1\n      0xda2b4c1e\n      eq\n      tag_20\n      jumpi\n      dup1\n      0xe25f3e02\n      eq\n      tag_21\n      jumpi\n      dup1\n      0xee1589a5\n      eq\n      tag_22\n      jumpi\n      dup1\n      0xf4359ce5\n      eq\n      tag_23\n      jumpi\n      dup1\n      0xfd1df035\n      eq\n      tag_24\n      jumpi\n      jump(tag_1)\n    tag_26:\n      dup1\n      0x61e78617\n      eq\n      tag_13\n      jumpi\n      dup1\n      0x8da5cb5b\n      eq\n      tag_14\n      jumpi\n      dup1\n      0x90a3f588\n      eq\n      tag_15\n      jumpi\n      dup1\n      0x934d1fa4\n      eq\n      tag_16\n      jumpi\n      dup1\n      0xb69ef8a8\n      eq\n      tag_17\n      jumpi\n      dup1\n      0xcba13030\n      eq\n      tag_18\n      jumpi\n      jump(tag_1)\n    tag_25:\n      dup1\n      0x31b1b978\n      gt\n      tag_27\n      jumpi\n      dup1\n      0x31b1b978\n      eq\n      tag_7\n      jumpi\n      dup1\n      0x3ccfd60b\n      eq\n      tag_8\n      jumpi\n      dup1\n      0x4a8f164f\n      eq\n      tag_9\n      jumpi\n      dup1\n      0x55ce8034\n      eq\n      tag_10\n      jumpi\n      dup1\n      0x572491c3\n      eq\n      tag_11\n      jumpi\n      dup1\n      0x59974e38\n      eq\n      tag_12\n      jumpi\n      jump(tag_1)\n    tag_27:\n      dup1\n      0x01b49d47\n      eq\n      tag_2\n      jumpi\n      dup1\n      0x01fa3bec\n      eq\n      tag_3\n      jumpi\n      dup1\n      0x2401519c\n      eq\n      tag_4\n      jumpi\n      dup1\n      0x2690567e\n      eq\n      tag_5\n      jumpi\n      dup1\n      0x27e235e3\n      eq\n      tag_6\n      jumpi\n    tag_1:\n      0x00\n      dup1\n      revert\n        /* \"contracts/InquireA.sol\":10157:10559  function closeQuestion(uint256 questionId, uint256 answerId) public questionExists(questionId) notClosed(questionId) {... */\n    tag_2:\n      callvalue\n      dup1\n      iszero\n      tag_28\n      jumpi\n      0x00\n      dup1\n      revert\n    tag_28:\n      pop\n      tag_29\n      0x04\n      dup1\n      calldatasize\n      sub\n      dup2\n      add\n      swap1\n      tag_30\n      swap2\n      swap1\n      tag_31\n      jump\t// in\n    tag_30:\n      tag_32\n      jump\t// in\n    tag_29:\n      stop\n        /* \"contracts/InquireA.sol\":3621:4319  function submitAnswer(uint256 questionId, string memory _answerText) public questionExists(questionId) notClosed(questionId) {... */\n    tag_3:\n      callvalue\n      dup1\n      iszero\n      tag_33\n      jumpi\n      0x00\n      dup1\n      revert\n    tag_33:\n      pop\n      tag_34\n      0x04\n      dup1\n      calldatasize\n      sub\n      dup2\n      add\n      swap1\n      tag_35\n      swap2\n      swap1\n      tag_36\n      jump\t// in\n    tag_35:\n      tag_37\n      jump\t// in\n    tag_34:\n      stop\n        /* \"contracts/InquireA.sol\":1072:1133  mapping(uint256 => mapping(uint256 => Answer)) public answers */\n    tag_4:\n      callvalue\n      dup1\n      iszero\n      tag_38\n      jumpi\n      0x00\n      dup1\n      revert\n    tag_38:\n      pop\n      tag_39\n      0x04\n      dup1\n      calldatasize\n      sub\n      dup2\n      add\n      swap1\n      tag_40\n      swap2\n      swap1\n      tag_31\n      jump\t// in\n    tag_40:\n      tag_41\n      jump\t// in\n    tag_39:\n      mload(0x40)\n      tag_42\n      swap7\n      swap6\n      swap5\n      swap4\n      swap3\n      swap2\n      swap1\n      tag_43\n      jump\t// in\n    tag_42:\n      mload(0x40)\n      dup1\n      swap2\n      sub\n      swap1\n      return\n        /* \"contracts/InquireA.sol\":9691:10147  function voteForAnswer(uint256 questionId, uint256 answerId) ... */\n    tag_5:\n      callvalue\n      dup1\n      iszero\n      tag_44\n      jumpi\n      0x00\n      dup1\n      revert\n    tag_44:\n      pop\n      tag_45\n      0x04\n      dup1\n      calldatasize\n      sub\n      dup2\n      add\n      swap1\n      tag_46\n      swap2\n      swap1\n      tag_31\n      jump\t// in\n    tag_46:\n      tag_47\n      jump\t// in\n    tag_45:\n      stop\n        /* \"contracts/InquireA.sol\":1140:1183  mapping(address => uint256) public balances */\n    tag_6:\n      callvalue\n      dup1\n      iszero\n      tag_48\n      jumpi\n      0x00\n      dup1\n      revert\n    tag_48:\n      pop\n      tag_49\n      0x04\n      dup1\n      calldatasize\n      sub\n      dup2\n      add\n      swap1\n      tag_50\n      swap2\n      swap1\n      tag_51\n      jump\t// in\n    tag_50:\n      tag_52\n      jump\t// in\n    tag_49:\n      mload(0x40)\n      tag_53\n      swap2\n      swap1\n      tag_54\n      jump\t// in\n    tag_53:\n      mload(0x40)\n      dup1\n      swap2\n      sub\n      swap1\n      return\n        /* \"contracts/InquireA.sol\":1020:1065  mapping(uint256 => Question) public questions */\n    tag_7:\n      callvalue\n      dup1\n      iszero\n      tag_55\n      jumpi\n      0x00\n      dup1\n      revert\n    tag_55:\n      pop\n      tag_56\n      0x04\n      dup1\n      calldatasize\n      sub\n      dup2\n      add\n      swap1\n      tag_57\n      swap2\n      swap1\n      tag_58\n      jump\t// in\n    tag_57:\n      tag_59\n      jump\t// in\n    tag_56:\n      mload(0x40)\n      tag_60\n      swap11\n      swap10\n      swap9\n      swap8\n      swap7\n      swap6\n      swap5\n      swap4\n      swap3\n      swap2\n      swap1\n      tag_61\n      jump\t// in\n    tag_60:\n      mload(0x40)\n      dup1\n      swap2\n      sub\n      swap1\n      return\n        /* \"contracts/InquireA.sol\":11614:11835  function withdraw() public {... */\n    tag_8:\n      callvalue\n      dup1\n      iszero\n      tag_62\n      jumpi\n      0x00\n      dup1\n      revert\n    tag_62:\n      pop\n      tag_63\n      tag_64\n      jump\t// in\n    tag_63:\n      stop\n        /* \"contracts/InquireA.sol\":9433:9683  function getAnswerById(uint256 questionId, uint256 answerId) public view returns (Answer memory) {... */\n    tag_9:\n      callvalue\n      dup1\n      iszero\n      tag_65\n      jumpi\n      0x00\n      dup1\n      revert\n    tag_65:\n      pop\n      tag_66\n      0x04\n      dup1\n      calldatasize\n      sub\n      dup2\n      add\n      swap1\n      tag_67\n      swap2\n      swap1\n      tag_31\n      jump\t// in\n    tag_67:\n      tag_68\n      jump\t// in\n    tag_66:\n      mload(0x40)\n      tag_69\n      swap2\n      swap1\n      tag_70\n      jump\t// in\n    tag_69:\n      mload(0x40)\n      dup1\n      swap2\n      sub\n      swap1\n      return\n        /* \"contracts/InquireA.sol\":11991:12667  function getQuestionsByCategory(string memory _category) public view returns (uint256[] memory) {... */\n    tag_10:\n      callvalue\n      dup1\n      iszero\n      tag_71\n      jumpi\n      0x00\n      dup1\n      revert\n    tag_71:\n      pop\n      tag_72\n      0x04\n      dup1\n      calldatasize\n      sub\n      dup2\n      add\n      swap1\n      tag_73\n      swap2\n      swap1\n      tag_74\n      jump\t// in\n    tag_73:\n      tag_75\n      jump\t// in\n    tag_72:\n      mload(0x40)\n      tag_76\n      swap2\n      swap1\n      tag_77\n      jump\t// in\n    tag_76:\n      mload(0x40)\n      dup1\n      swap2\n      sub\n      swap1\n      return\n        /* \"contracts/InquireA.sol\":2244:3582  function askQuestion(... */\n    tag_11:\n      tag_78\n      0x04\n      dup1\n      calldatasize\n      sub\n      dup2\n      add\n      swap1\n      tag_79\n      swap2\n      swap1\n      tag_80\n      jump\t// in\n    tag_79:\n      tag_81\n      jump\t// in\n    tag_78:\n      stop\n        /* \"contracts/InquireA.sol\":10605:11606  function distributeRewards(uint256 questionId) public questionExists(questionId) {... */\n    tag_12:\n      callvalue\n      dup1\n      iszero\n      tag_82\n      jumpi\n      0x00\n      dup1\n      revert\n    tag_82:\n      pop\n      tag_83\n      0x04\n      dup1\n      calldatasize\n      sub\n      dup2\n      add\n      swap1\n      tag_84\n      swap2\n      swap1\n      tag_58\n      jump\t// in\n    tag_84:\n      tag_85\n      jump\t// in\n    tag_83:\n      stop\n        /* \"contracts/InquireA.sol\":154:186  uint256 public questionIdCounter */\n    tag_13:\n      callvalue\n      dup1\n      iszero\n      tag_86\n      jumpi\n      0x00\n      dup1\n      revert\n    tag_86:\n      pop\n      tag_87\n      tag_88\n      jump\t// in\n    tag_87:\n      mload(0x40)\n      tag_89\n      swap2\n      swap1\n      tag_54\n      jump\t// in\n    tag_89:\n      mload(0x40)\n      dup1\n      swap2\n      sub\n      swap1\n      return\n        /* \"contracts/InquireA.sol\":85:105  address public owner */\n    tag_14:\n      callvalue\n      dup1\n      iszero\n      tag_90\n      jumpi\n      0x00\n      dup1\n      revert\n    tag_90:\n      pop\n      tag_91\n      tag_92\n      jump\t// in\n    tag_91:\n      mload(0x40)\n      tag_93\n      swap2\n      swap1\n      tag_94\n      jump\t// in\n    tag_93:\n      mload(0x40)\n      dup1\n      swap2\n      sub\n      swap1\n      return\n        /* \"contracts/InquireA.sol\":5746:6803  function selectBestAnswer(uint256 questionId, uint256 answerId) public payable {... */\n    tag_15:\n      tag_95\n      0x04\n      dup1\n      calldatasize\n      sub\n      dup2\n      add\n      swap1\n      tag_96\n      swap2\n      swap1\n      tag_31\n      jump\t// in\n    tag_96:\n      tag_97\n      jump\t// in\n    tag_95:\n      stop\n        /* \"contracts/InquireA.sol\":274:317  uint256 public constant TWO_WEEKS = 14 days */\n    tag_16:\n      callvalue\n      dup1\n      iszero\n      tag_98\n      jumpi\n      0x00\n      dup1\n      revert\n    tag_98:\n      pop\n      tag_99\n      tag_100\n      jump\t// in\n    tag_99:\n      mload(0x40)\n      tag_101\n      swap2\n      swap1\n      tag_54\n      jump\t// in\n    tag_101:\n      mload(0x40)\n      dup1\n      swap2\n      sub\n      swap1\n      return\n        /* \"contracts/InquireA.sol\":11843:11939  function balance() public view returns (uint256) {... */\n    tag_17:\n      callvalue\n      dup1\n      iszero\n      tag_102\n      jumpi\n      0x00\n      dup1\n      revert\n    tag_102:\n      pop\n      tag_103\n      tag_104\n      jump\t// in\n    tag_103:\n      mload(0x40)\n      tag_105\n      swap2\n      swap1\n      tag_54\n      jump\t// in\n    tag_105:\n      mload(0x40)\n      dup1\n      swap2\n      sub\n      swap1\n      return\n        /* \"contracts/InquireA.sol\":193:223  uint256 public answerIdCounter */\n    tag_18:\n      callvalue\n      dup1\n      iszero\n      tag_106\n      jumpi\n      0x00\n      dup1\n      revert\n    tag_106:\n      pop\n      tag_107\n      tag_108\n      jump\t// in\n    tag_107:\n      mload(0x40)\n      tag_109\n      swap2\n      swap1\n      tag_54\n      jump\t// in\n    tag_109:\n      mload(0x40)\n      dup1\n      swap2\n      sub\n      swap1\n      return\n        /* \"contracts/InquireA.sol\":324:363  uint256 public constant MONTH = 30 days */\n    tag_19:\n      callvalue\n      dup1\n      iszero\n      tag_110\n      jumpi\n      0x00\n      dup1\n      revert\n    tag_110:\n      pop\n      tag_111\n      tag_112\n      jump\t// in\n    tag_111:\n      mload(0x40)\n      tag_113\n      swap2\n      swap1\n      tag_54\n      jump\t// in\n    tag_113:\n      mload(0x40)\n      dup1\n      swap2\n      sub\n      swap1\n      return\n        /* \"contracts/InquireA.sol\":112:147  uint256 public voteFee = 0.01 ether */\n    tag_20:\n      callvalue\n      dup1\n      iszero\n      tag_114\n      jumpi\n      0x00\n      dup1\n      revert\n    tag_114:\n      pop\n      tag_115\n      tag_116\n      jump\t// in\n    tag_115:\n      mload(0x40)\n      tag_117\n      swap2\n      swap1\n      tag_54\n      jump\t// in\n    tag_117:\n      mload(0x40)\n      dup1\n      swap2\n      sub\n      swap1\n      return\n        /* \"contracts/InquireA.sol\":6811:7029  function getQuestionById(uint256 questionId) public view returns (Question memory) {... */\n    tag_21:\n      callvalue\n      dup1\n      iszero\n      tag_118\n      jumpi\n      0x00\n      dup1\n      revert\n    tag_118:\n      pop\n      tag_119\n      0x04\n      dup1\n      calldatasize\n      sub\n      dup2\n      add\n      swap1\n      tag_120\n      swap2\n      swap1\n      tag_58\n      jump\t// in\n    tag_120:\n      tag_121\n      jump\t// in\n    tag_119:\n      mload(0x40)\n      tag_122\n      swap2\n      swap1\n      tag_123\n      jump\t// in\n    tag_122:\n      mload(0x40)\n      dup1\n      swap2\n      sub\n      swap1\n      return\n        /* \"contracts/InquireA.sol\":7037:9425  function getAnswersByQuestionId(... */\n    tag_22:\n      callvalue\n      dup1\n      iszero\n      tag_124\n      jumpi\n      0x00\n      dup1\n      revert\n    tag_124:\n      pop\n      tag_125\n      0x04\n      dup1\n      calldatasize\n      sub\n      dup2\n      add\n      swap1\n      tag_126\n      swap2\n      swap1\n      tag_127\n      jump\t// in\n    tag_126:\n      tag_128\n      jump\t// in\n    tag_125:\n      mload(0x40)\n      tag_129\n      swap4\n      swap3\n      swap2\n      swap1\n      tag_130\n      jump\t// in\n    tag_129:\n      mload(0x40)\n      dup1\n      swap2\n      sub\n      swap1\n      return\n        /* \"contracts/InquireA.sol\":230:267  uint256 public constant WEEK = 7 days */\n    tag_23:\n      callvalue\n      dup1\n      iszero\n      tag_131\n      jumpi\n      0x00\n      dup1\n      revert\n    tag_131:\n      pop\n      tag_132\n      tag_133\n      jump\t// in\n    tag_132:\n      mload(0x40)\n      tag_134\n      swap2\n      swap1\n      tag_54\n      jump\t// in\n    tag_134:\n      mload(0x40)\n      dup1\n      swap2\n      sub\n      swap1\n      return\n        /* \"contracts/InquireA.sol\":4382:5738  function getQuestions(uint256 pageIndex, uint256 pageSize) ... */\n    tag_24:\n      callvalue\n      dup1\n      iszero\n      tag_135\n      jumpi\n      0x00\n      dup1\n      revert\n    tag_135:\n      pop\n      tag_136\n      0x04\n      dup1\n      calldatasize\n      sub\n      dup2\n      add\n      swap1\n      tag_137\n      swap2\n      swap1\n      tag_31\n      jump\t// in\n    tag_137:\n      tag_138\n      jump\t// in\n    tag_136:\n      mload(0x40)\n      tag_139\n      swap4\n      swap3\n      swap2\n      swap1\n      tag_140\n      jump\t// in\n    tag_139:\n      mload(0x40)\n      dup1\n      swap2\n      sub\n      swap1\n      return\n        /* \"contracts/InquireA.sol\":10157:10559  function closeQuestion(uint256 questionId, uint256 answerId) public questionExists(questionId) notClosed(questionId) {... */\n    tag_32:\n        /* \"contracts/InquireA.sol\":10240:10250  questionId */\n      dup2\n        /* \"contracts/InquireA.sol\":1986:1987  0 */\n      0x00\n        /* \"contracts/InquireA.sol\":1947:1988  questions[questionId].asker != address(0) */\n      0xffffffffffffffffffffffffffffffffffffffff\n      and\n        /* \"contracts/InquireA.sol\":1947:1956  questions */\n      0x04\n        /* \"contracts/InquireA.sol\":1947:1968  questions[questionId] */\n      0x00\n        /* \"contracts/InquireA.sol\":1957:1967  questionId */\n      dup4\n        /* \"contracts/InquireA.sol\":1947:1968  questions[questionId] */\n      dup2\n      mstore\n      0x20\n      add\n      swap1\n      dup2\n      mstore\n      0x20\n      add\n      0x00\n      keccak256\n        /* \"contracts/InquireA.sol\":1947:1974  questions[questionId].asker */\n      0x01\n      add\n      0x00\n      swap1\n      sload\n      swap1\n      0x0100\n      exp\n      swap1\n      div\n      0xffffffffffffffffffffffffffffffffffffffff\n      and\n        /* \"contracts/InquireA.sol\":1947:1988  questions[questionId].asker != address(0) */\n      0xffffffffffffffffffffffffffffffffffffffff\n      and\n      sub\n        /* \"contracts/InquireA.sol\":1939:2016  require(questions[questionId].asker != address(0), \"Question does not exist\") */\n      tag_142\n      jumpi\n      mload(0x40)\n      0x08c379a000000000000000000000000000000000000000000000000000000000\n      dup2\n      mstore\n      0x04\n      add\n      tag_143\n      swap1\n      tag_144\n      jump\t// in\n    tag_143:\n      mload(0x40)\n      dup1\n      swap2\n      sub\n      swap1\n      revert\n    tag_142:\n        /* \"contracts/InquireA.sol\":10262:10272  questionId */\n      dup3\n        /* \"contracts/InquireA.sol\":2103:2112  questions */\n      0x04\n        /* \"contracts/InquireA.sol\":2103:2124  questions[questionId] */\n      0x00\n        /* \"contracts/InquireA.sol\":2113:2123  questionId */\n      dup3\n        /* \"contracts/InquireA.sol\":2103:2124  questions[questionId] */\n      dup2\n      mstore\n      0x20\n      add\n      swap1\n      dup2\n      mstore\n      0x20\n      add\n      0x00\n      keccak256\n        /* \"contracts/InquireA.sol\":2103:2133  questions[questionId].isClosed */\n      0x08\n      add\n      0x00\n      swap1\n      sload\n      swap1\n      0x0100\n      exp\n      swap1\n      div\n      0xff\n      and\n        /* \"contracts/InquireA.sol\":2102:2133  !questions[questionId].isClosed */\n      iszero\n        /* \"contracts/InquireA.sol\":2094:2164  require(!questions[questionId].isClosed, \"Question is already closed\") */\n      tag_146\n      jumpi\n      mload(0x40)\n      0x08c379a000000000000000000000000000000000000000000000000000000000\n      dup2\n      mstore\n      0x04\n      add\n      tag_147\n      swap1\n      tag_148\n      jump\t// in\n    tag_147:\n      mload(0x40)\n      dup1\n      swap2\n      sub\n      swap1\n      revert\n    tag_146:\n        /* \"contracts/InquireA.sol\":10285:10310  Question storage question */\n      0x00\n        /* \"contracts/InquireA.sol\":10313:10322  questions */\n      0x04\n        /* \"contracts/InquireA.sol\":10313:10334  questions[questionId] */\n      0x00\n        /* \"contracts/InquireA.sol\":10323:10333  questionId */\n      dup7\n        /* \"contracts/InquireA.sol\":10313:10334  questions[questionId] */\n      dup2\n      mstore\n      0x20\n      add\n      swap1\n      dup2\n      mstore\n      0x20\n      add\n      0x00\n      keccak256\n        /* \"contracts/InquireA.sol\":10285:10334  Question storage question = questions[questionId] */\n      swap1\n      pop\n        /* \"contracts/InquireA.sol\":10367:10375  question */\n      dup1\n        /* \"contracts/InquireA.sol\":10367:10381  question.asker */\n      0x01\n      add\n      0x00\n      swap1\n      sload\n      swap1\n      0x0100\n      exp\n      swap1\n      div\n      0xffffffffffffffffffffffffffffffffffffffff\n      and\n        /* \"contracts/InquireA.sol\":10353:10381  msg.sender == question.asker */\n      0xffffffffffffffffffffffffffffffffffffffff\n      and\n        /* \"contracts/InquireA.sol\":10353:10363  msg.sender */\n      caller\n        /* \"contracts/InquireA.sol\":10353:10381  msg.sender == question.asker */\n      0xffffffffffffffffffffffffffffffffffffffff\n      and\n      eq\n        /* \"contracts/InquireA.sol\":10345:10415  require(msg.sender == question.asker, \"Only asker can close question\") */\n      tag_150\n      jumpi\n      mload(0x40)\n      0x08c379a000000000000000000000000000000000000000000000000000000000\n      dup2\n      mstore\n      0x04\n      add\n      tag_151\n      swap1\n      tag_152\n      jump\t// in\n    tag_151:\n      mload(0x40)\n      dup1\n      swap2\n      sub\n      swap1\n      revert\n    tag_150:\n        /* \"contracts/InquireA.sol\":10448:10452  true */\n      0x01\n        /* \"contracts/InquireA.sol\":10428:10436  question */\n      dup2\n        /* \"contracts/InquireA.sol\":10428:10445  question.isClosed */\n      0x08\n      add\n      0x00\n        /* \"contracts/InquireA.sol\":10428:10452  question.isClosed = true */\n      0x0100\n      exp\n      dup2\n      sload\n      dup2\n      0xff\n      mul\n      not\n      and\n      swap1\n      dup4\n      iszero\n      iszero\n      mul\n      or\n      swap1\n      sstore\n      pop\n        /* \"contracts/InquireA.sol\":10489:10497  answerId */\n      dup4\n        /* \"contracts/InquireA.sol\":10463:10471  question */\n      dup2\n        /* \"contracts/InquireA.sol\":10463:10486  question.chosenAnswerId */\n      0x09\n      add\n        /* \"contracts/InquireA.sol\":10463:10497  question.chosenAnswerId = answerId */\n      dup2\n      swap1\n      sstore\n      pop\n        /* \"contracts/InquireA.sol\":10515:10551  QuestionClosed(questionId, answerId) */\n      0x99fe2c8abd13b610e7f7d4a51a49e1391ba19454b72305176b884d66010e475a\n        /* \"contracts/InquireA.sol\":10530:10540  questionId */\n      dup6\n        /* \"contracts/InquireA.sol\":10542:10550  answerId */\n      dup6\n        /* \"contracts/InquireA.sol\":10515:10551  QuestionClosed(questionId, answerId) */\n      mload(0x40)\n      tag_153\n      swap3\n      swap2\n      swap1\n      tag_154\n      jump\t// in\n    tag_153:\n      mload(0x40)\n      dup1\n      swap2\n      sub\n      swap1\n      log1\n        /* \"contracts/InquireA.sol\":10274:10559  {... */\n      pop\n        /* \"contracts/InquireA.sol\":2027:2028  _ */\n      pop\n        /* \"contracts/InquireA.sol\":10157:10559  function closeQuestion(uint256 questionId, uint256 answerId) public questionExists(questionId) notClosed(questionId) {... */\n      pop\n      pop\n      pop\n      jump\t// out\n        /* \"contracts/InquireA.sol\":3621:4319  function submitAnswer(uint256 questionId, string memory _answerText) public questionExists(questionId) notClosed(questionId) {... */\n    tag_37:\n        /* \"contracts/InquireA.sol\":3712:3722  questionId */\n      dup2\n        /* \"contracts/InquireA.sol\":1986:1987  0 */\n      0x00\n        /* \"contracts/InquireA.sol\":1947:1988  questions[questionId].asker != address(0) */\n      0xffffffffffffffffffffffffffffffffffffffff\n      and\n        /* \"contracts/InquireA.sol\":1947:1956  questions */\n      0x04\n        /* \"contracts/InquireA.sol\":1947:1968  questions[questionId] */\n      0x00\n        /* \"contracts/InquireA.sol\":1957:1967  questionId */\n      dup4\n        /* \"contracts/InquireA.sol\":1947:1968  questions[questionId] */\n      dup2\n      mstore\n      0x20\n      add\n      swap1\n      dup2\n      mstore\n      0x20\n      add\n      0x00\n      keccak256\n        /* \"contracts/InquireA.sol\":1947:1974  questions[questionId].asker */\n      0x01\n      add\n      0x00\n      swap1\n      sload\n      swap1\n      0x0100\n      exp\n      swap1\n      div\n      0xffffffffffffffffffffffffffffffffffffffff\n      and\n        /* \"contracts/InquireA.sol\":1947:1988  questions[questionId].asker != address(0) */\n      0xffffffffffffffffffffffffffffffffffffffff\n      and\n      sub\n        /* \"contracts/InquireA.sol\":1939:2016  require(questions[questionId].asker != address(0), \"Question does not exist\") */\n      tag_156\n      jumpi\n      mload(0x40)\n      0x08c379a000000000000000000000000000000000000000000000000000000000\n      dup2\n      mstore\n      0x04\n      add\n      tag_157\n      swap1\n      tag_144\n      jump\t// in\n    tag_157:\n      mload(0x40)\n      dup1\n      swap2\n      sub\n      swap1\n      revert\n    tag_156:\n        /* \"contracts/InquireA.sol\":3734:3744  questionId */\n      dup3\n        /* \"contracts/InquireA.sol\":2103:2112  questions */\n      0x04\n        /* \"contracts/InquireA.sol\":2103:2124  questions[questionId] */\n      0x00\n        /* \"contracts/InquireA.sol\":2113:2123  questionId */\n      dup3\n        /* \"contracts/InquireA.sol\":2103:2124  questions[questionId] */\n      dup2\n      mstore\n      0x20\n      add\n      swap1\n      dup2\n      mstore\n      0x20\n      add\n      0x00\n      keccak256\n        /* \"contracts/InquireA.sol\":2103:2133  questions[questionId].isClosed */\n      0x08\n      add\n      0x00\n      swap1\n      sload\n      swap1\n      0x0100\n      exp\n      swap1\n      div\n      0xff\n      and\n        /* \"contracts/InquireA.sol\":2102:2133  !questions[questionId].isClosed */\n      iszero\n        /* \"contracts/InquireA.sol\":2094:2164  require(!questions[questionId].isClosed, \"Question is already closed\") */\n      tag_159\n      jumpi\n      mload(0x40)\n      0x08c379a000000000000000000000000000000000000000000000000000000000\n      dup2\n      mstore\n      0x04\n      add\n      tag_160\n      swap1\n      tag_148\n      jump\t// in\n    tag_160:\n      mload(0x40)\n      dup1\n      swap2\n      sub\n      swap1\n      revert\n    tag_159:\n        /* \"contracts/InquireA.sol\":3757:3781  Question memory question */\n      0x00\n        /* \"contracts/InquireA.sol\":3784:3793  questions */\n      0x04\n        /* \"contracts/InquireA.sol\":3784:3805  questions[questionId] */\n      0x00\n        /* \"contracts/InquireA.sol\":3794:3804  questionId */\n      dup7\n        /* \"contracts/InquireA.sol\":3784:3805  questions[questionId] */\n      dup2\n      mstore\n      0x20\n      add\n      swap1\n      dup2\n      mstore\n      0x20\n      add\n      0x00\n      keccak256\n        /* \"contracts/InquireA.sol\":3757:3805  Question memory question = questions[questionId] */\n      mload(0x40)\n      dup1\n      0x0140\n      add\n      0x40\n      mstore\n      swap1\n      dup2\n      0x00\n      dup3\n      add\n      sload\n      dup2\n      mstore\n      0x20\n      add\n      0x01\n      dup3\n      add\n      0x00\n      swap1\n      sload\n      swap1\n      0x0100\n      exp\n      swap1\n      div\n      0xffffffffffffffffffffffffffffffffffffffff\n      and\n      0xffffffffffffffffffffffffffffffffffffffff\n      and\n      0xffffffffffffffffffffffffffffffffffffffff\n      and\n      dup2\n      mstore\n      0x20\n      add\n      0x02\n      dup3\n      add\n      dup1\n      sload\n      tag_162\n      swap1\n      tag_163\n      jump\t// in\n    tag_162:\n      dup1\n      0x1f\n      add\n      0x20\n      dup1\n      swap2\n      div\n      mul\n      0x20\n      add\n      mload(0x40)\n      swap1\n      dup2\n      add\n      0x40\n      mstore\n      dup1\n      swap3\n      swap2\n      swap1\n      dup2\n      dup2\n      mstore\n      0x20\n      add\n      dup3\n      dup1\n      sload\n      tag_164\n      swap1\n      tag_163\n      jump\t// in\n    tag_164:\n      dup1\n      iszero\n      tag_165\n      jumpi\n      dup1\n      0x1f\n      lt\n      tag_166\n      jumpi\n      0x0100\n      dup1\n      dup4\n      sload\n      div\n      mul\n      dup4\n      mstore\n      swap2\n      0x20\n      add\n      swap2\n      jump(tag_165)\n    tag_166:\n      dup3\n      add\n      swap2\n      swap1\n      0x00\n      mstore\n      keccak256(0x00, 0x20)\n      swap1\n    tag_167:\n      dup2\n      sload\n      dup2\n      mstore\n      swap1\n      0x01\n      add\n      swap1\n      0x20\n      add\n      dup1\n      dup4\n      gt\n      tag_167\n      jumpi\n      dup3\n      swap1\n      sub\n      0x1f\n      and\n      dup3\n      add\n      swap2\n    tag_165:\n      pop\n      pop\n      pop\n      pop\n      pop\n      dup2\n      mstore\n      0x20\n      add\n      0x03\n      dup3\n      add\n      dup1\n      sload\n      tag_168\n      swap1\n      tag_163\n      jump\t// in\n    tag_168:\n      dup1\n      0x1f\n      add\n      0x20\n      dup1\n      swap2\n      div\n      mul\n      0x20\n      add\n      mload(0x40)\n      swap1\n      dup2\n      add\n      0x40\n      mstore\n      dup1\n      swap3\n      swap2\n      swap1\n      dup2\n      dup2\n      mstore\n      0x20\n      add\n      dup3\n      dup1\n      sload\n      tag_169\n      swap1\n      tag_163\n      jump\t// in\n    tag_169:\n      dup1\n      iszero\n      tag_170\n      jumpi\n      dup1\n      0x1f\n      lt\n      tag_171\n      jumpi\n      0x0100\n      dup1\n      dup4\n      sload\n      div\n      mul\n      dup4\n      mstore\n      swap2\n      0x20\n      add\n      swap2\n      jump(tag_170)\n    tag_171:\n      dup3\n      add\n      swap2\n      swap1\n      0x00\n      mstore\n      keccak256(0x00, 0x20)\n      swap1\n    tag_172:\n      dup2\n      sload\n      dup2\n      mstore\n      swap1\n      0x01\n      add\n      swap1\n      0x20\n      add\n      dup1\n      dup4\n      gt\n      tag_172\n      jumpi\n      dup3\n      swap1\n      sub\n      0x1f\n      and\n      dup3\n      add\n      swap2\n    tag_170:\n      pop\n      pop\n      pop\n      pop\n      pop\n      dup2\n      mstore\n      0x20\n      add\n      0x04\n      dup3\n      add\n      dup1\n      sload\n      tag_173\n      swap1\n      tag_163\n      jump\t// in\n    tag_173:\n      dup1\n      0x1f\n      add\n      0x20\n      dup1\n      swap2\n      div\n      mul\n      0x20\n      add\n      mload(0x40)\n      swap1\n      dup2\n      add\n      0x40\n      mstore\n      dup1\n      swap3\n      swap2\n      swap1\n      dup2\n      dup2\n      mstore\n      0x20\n      add\n      dup3\n      dup1\n      sload\n      tag_174\n      swap1\n      tag_163\n      jump\t// in\n    tag_174:\n      dup1\n      iszero\n      tag_175\n      jumpi\n      dup1\n      0x1f\n      lt\n      tag_176\n      jumpi\n      0x0100\n      dup1\n      dup4\n      sload\n      div\n      mul\n      dup4\n      mstore\n      swap2\n      0x20\n      add\n      swap2\n      jump(tag_175)\n    tag_176:\n      dup3\n      add\n      swap2\n      swap1\n      0x00\n      mstore\n      keccak256(0x00, 0x20)\n      swap1\n    tag_177:\n      dup2\n      sload\n      dup2\n      mstore\n      swap1\n      0x01\n      add\n      swap1\n      0x20\n      add\n      dup1\n      dup4\n      gt\n      tag_177\n      jumpi\n      dup3\n      swap1\n      sub\n      0x1f\n      and\n      dup3\n      add\n      swap2\n    tag_175:\n      pop\n      pop\n      pop\n      pop\n      pop\n      dup2\n      mstore\n      0x20\n      add\n      0x05\n      dup3\n      add\n      sload\n      dup2\n      mstore\n      0x20\n      add\n      0x06\n      dup3\n      add\n      sload\n      dup2\n      mstore\n      0x20\n      add\n      0x07\n      dup3\n      add\n      sload\n      dup2\n      mstore\n      0x20\n      add\n      0x08\n      dup3\n      add\n      0x00\n      swap1\n      sload\n      swap1\n      0x0100\n      exp\n      swap1\n      div\n      0xff\n      and\n      iszero\n      iszero\n      iszero\n      iszero\n      dup2\n      mstore\n      0x20\n      add\n      0x09\n      dup3\n      add\n      sload\n      dup2\n      mstore\n      pop\n      pop\n      swap1\n      pop\n        /* \"contracts/InquireA.sol\":3843:3851  question */\n      dup1\n        /* \"contracts/InquireA.sol\":3843:3860  question.deadline */\n      0xe0\n      add\n      mload\n        /* \"contracts/InquireA.sol\":3824:3839  block.timestamp */\n      timestamp\n        /* \"contracts/InquireA.sol\":3824:3860  block.timestamp <= question.deadline */\n      gt\n      iszero\n        /* \"contracts/InquireA.sol\":3816:3893  require(block.timestamp <= question.deadline, \"Question deadline has passed\") */\n      tag_178\n      jumpi\n      mload(0x40)\n      0x08c379a000000000000000000000000000000000000000000000000000000000\n      dup2\n      mstore\n      0x04\n      add\n      tag_179\n      swap1\n      tag_180\n      jump\t// in\n    tag_179:\n      mload(0x40)\n      dup1\n      swap2\n      sub\n      swap1\n      revert\n    tag_178:\n        /* \"contracts/InquireA.sol\":3906:3922  uint256 answerId */\n      0x00\n        /* \"contracts/InquireA.sol\":3925:3940  answerIdCounter */\n      0x03\n      0x00\n        /* \"contracts/InquireA.sol\":3925:3942  answerIdCounter++ */\n      dup2\n      sload\n      dup1\n      swap3\n      swap2\n      swap1\n      tag_181\n      swap1\n      tag_182\n      jump\t// in\n    tag_181:\n      swap2\n      swap1\n      pop\n      sstore\n        /* \"contracts/InquireA.sol\":3906:3942  uint256 answerId = answerIdCounter++ */\n      swap1\n      pop\n        /* \"contracts/InquireA.sol\":3985:4231  Answer({... */\n      mload(0x40)\n      dup1\n      0xc0\n      add\n      0x40\n      mstore\n      dup1\n        /* \"contracts/InquireA.sol\":4011:4019  answerId */\n      dup3\n        /* \"contracts/InquireA.sol\":3985:4231  Answer({... */\n      dup2\n      mstore\n      0x20\n      add\n        /* \"contracts/InquireA.sol\":4075:4085  msg.sender */\n      caller\n        /* \"contracts/InquireA.sol\":3985:4231  Answer({... */\n      0xffffffffffffffffffffffffffffffffffffffff\n      and\n      dup2\n      mstore\n      0x20\n      add\n        /* \"contracts/InquireA.sol\":4112:4123  _answerText */\n      dup7\n        /* \"contracts/InquireA.sol\":3985:4231  Answer({... */\n      dup2\n      mstore\n      0x20\n      add\n        /* \"contracts/InquireA.sol\":4147:4148  0 */\n      0x00\n        /* \"contracts/InquireA.sol\":3985:4231  Answer({... */\n      dup2\n      mstore\n      0x20\n      add\n        /* \"contracts/InquireA.sol\":4177:4178  0 */\n      0x00\n        /* \"contracts/InquireA.sol\":3985:4231  Answer({... */\n      dup2\n      mstore\n      0x20\n      add\n        /* \"contracts/InquireA.sol\":4204:4219  block.timestamp */\n      timestamp\n        /* \"contracts/InquireA.sol\":3985:4231  Answer({... */\n      dup2\n      mstore\n      pop\n        /* \"contracts/InquireA.sol\":3953:3960  answers */\n      0x05\n        /* \"contracts/InquireA.sol\":3953:3972  answers[questionId] */\n      0x00\n        /* \"contracts/InquireA.sol\":3961:3971  questionId */\n      dup9\n        /* \"contracts/InquireA.sol\":3953:3972  answers[questionId] */\n      dup2\n      mstore\n      0x20\n      add\n      swap1\n      dup2\n      mstore\n      0x20\n      add\n      0x00\n      keccak256\n        /* \"contracts/InquireA.sol\":3953:3982  answers[questionId][answerId] */\n      0x00\n        /* \"contracts/InquireA.sol\":3973:3981  answerId */\n      dup4\n        /* \"contracts/InquireA.sol\":3953:3982  answers[questionId][answerId] */\n      dup2\n      mstore\n      0x20\n      add\n      swap1\n      dup2\n      mstore\n      0x20\n      add\n      0x00\n      keccak256\n        /* \"contracts/InquireA.sol\":3953:4231  answers[questionId][answerId] = Answer({... */\n      0x00\n      dup3\n      add\n      mload\n      dup2\n      0x00\n      add\n      sstore\n      0x20\n      dup3\n      add\n      mload\n      dup2\n      0x01\n      add\n      exp(0x0100, 0x00)\n      dup2\n      sload\n      dup2\n      0xffffffffffffffffffffffffffffffffffffffff\n      mul\n      not\n      and\n      swap1\n      dup4\n      0xffffffffffffffffffffffffffffffffffffffff\n      and\n      mul\n      or\n      swap1\n      sstore\n      pop\n      0x40\n      dup3\n      add\n      mload\n      dup2\n      0x02\n      add\n      swap1\n      dup2\n      tag_183\n      swap2\n      swap1\n      tag_184\n      jump\t// in\n    tag_183:\n      pop\n      0x60\n      dup3\n      add\n      mload\n      dup2\n      0x03\n      add\n      sstore\n      0x80\n      dup3\n      add\n      mload\n      dup2\n      0x04\n      add\n      sstore\n      0xa0\n      dup3\n      add\n      mload\n      dup2\n      0x05\n      add\n      sstore\n      swap1\n      pop\n      pop\n        /* \"contracts/InquireA.sol\":4287:4297  msg.sender */\n      caller\n        /* \"contracts/InquireA.sol\":4249:4311  AnswerSubmitted(questionId, answerId, msg.sender, _answerText) */\n      0xffffffffffffffffffffffffffffffffffffffff\n      and\n      0x1b72a809869907cac4c4e55b8bf6920ff492d2ff53307bb77ba492366b61387c\n        /* \"contracts/InquireA.sol\":4265:4275  questionId */\n      dup8\n        /* \"contracts/InquireA.sol\":4277:4285  answerId */\n      dup4\n        /* \"contracts/InquireA.sol\":4299:4310  _answerText */\n      dup9\n        /* \"contracts/InquireA.sol\":4249:4311  AnswerSubmitted(questionId, answerId, msg.sender, _answerText) */\n      mload(0x40)\n      tag_185\n      swap4\n      swap3\n      swap2\n      swap1\n      tag_186\n      jump\t// in\n    tag_185:\n      mload(0x40)\n      dup1\n      swap2\n      sub\n      swap1\n      log2\n        /* \"contracts/InquireA.sol\":3746:4319  {... */\n      pop\n      pop\n        /* \"contracts/InquireA.sol\":2027:2028  _ */\n      pop\n        /* \"contracts/InquireA.sol\":3621:4319  function submitAnswer(uint256 questionId, string memory _answerText) public questionExists(questionId) notClosed(questionId) {... */\n      pop\n      pop\n      pop\n      jump\t// out\n        /* \"contracts/InquireA.sol\":1072:1133  mapping(uint256 => mapping(uint256 => Answer)) public answers */\n    tag_41:\n      mstore(0x20, 0x05)\n      dup2\n      0x00\n      mstore\n      mstore(0x20, keccak256(0x00, 0x40))\n      dup1\n      0x00\n      mstore\n      keccak256(0x00, 0x40)\n      0x00\n      swap2\n      pop\n      swap2\n      pop\n      pop\n      dup1\n      0x00\n      add\n      sload\n      swap1\n      dup1\n      0x01\n      add\n      0x00\n      swap1\n      sload\n      swap1\n      0x0100\n      exp\n      swap1\n      div\n      0xffffffffffffffffffffffffffffffffffffffff\n      and\n      swap1\n      dup1\n      0x02\n      add\n      dup1\n      sload\n      tag_187\n      swap1\n      tag_163\n      jump\t// in\n    tag_187:\n      dup1\n      0x1f\n      add\n      0x20\n      dup1\n      swap2\n      div\n      mul\n      0x20\n      add\n      mload(0x40)\n      swap1\n      dup2\n      add\n      0x40\n      mstore\n      dup1\n      swap3\n      swap2\n      swap1\n      dup2\n      dup2\n      mstore\n      0x20\n      add\n      dup3\n      dup1\n      sload\n      tag_188\n      swap1\n      tag_163\n      jump\t// in\n    tag_188:\n      dup1\n      iszero\n      tag_189\n      jumpi\n      dup1\n      0x1f\n      lt\n      tag_190\n      jumpi\n      0x0100\n      dup1\n      dup4\n      sload\n      div\n      mul\n      dup4\n      mstore\n      swap2\n      0x20\n      add\n      swap2\n      jump(tag_189)\n    tag_190:\n      dup3\n      add\n      swap2\n      swap1\n      0x00\n      mstore\n      keccak256(0x00, 0x20)\n      swap1\n    tag_191:\n      dup2\n      sload\n      dup2\n      mstore\n      swap1\n      0x01\n      add\n      swap1\n      0x20\n      add\n      dup1\n      dup4\n      gt\n      tag_191\n      jumpi\n      dup3\n      swap1\n      sub\n      0x1f\n      and\n      dup3\n      add\n      swap2\n    tag_189:\n      pop\n      pop\n      pop\n      pop\n      pop\n      swap1\n      dup1\n      0x03\n      add\n      sload\n      swap1\n      dup1\n      0x04\n      add\n      sload\n      swap1\n      dup1\n      0x05\n      add\n      sload\n      swap1\n      pop\n      dup7\n      jump\t// out\n        /* \"contracts/InquireA.sol\":9691:10147  function voteForAnswer(uint256 questionId, uint256 answerId) ... */\n    tag_47:\n        /* \"contracts/InquireA.sol\":9794:9804  questionId */\n      dup2\n        /* \"contracts/InquireA.sol\":1986:1987  0 */\n      0x00\n        /* \"contracts/InquireA.sol\":1947:1988  questions[questionId].asker != address(0) */\n      0xffffffffffffffffffffffffffffffffffffffff\n      and\n        /* \"contracts/InquireA.sol\":1947:1956  questions */\n      0x04\n        /* \"contracts/InquireA.sol\":1947:1968  questions[questionId] */\n      0x00\n        /* \"contracts/InquireA.sol\":1957:1967  questionId */\n      dup4\n        /* \"contracts/InquireA.sol\":1947:1968  questions[questionId] */\n      dup2\n      mstore\n      0x20\n      add\n      swap1\n      dup2\n      mstore\n      0x20\n      add\n      0x00\n      keccak256\n        /* \"contracts/InquireA.sol\":1947:1974  questions[questionId].asker */\n      0x01\n      add\n      0x00\n      swap1\n      sload\n      swap1\n      0x0100\n      exp\n      swap1\n      div\n      0xffffffffffffffffffffffffffffffffffffffff\n      and\n        /* \"contracts/InquireA.sol\":1947:1988  questions[questionId].asker != address(0) */\n      0xffffffffffffffffffffffffffffffffffffffff\n      and\n      sub\n        /* \"contracts/InquireA.sol\":1939:2016  require(questions[questionId].asker != address(0), \"Question does not exist\") */\n      tag_193\n      jumpi\n      mload(0x40)\n      0x08c379a000000000000000000000000000000000000000000000000000000000\n      dup2\n      mstore\n      0x04\n      add\n      tag_194\n      swap1\n      tag_144\n      jump\t// in\n    tag_194:\n      mload(0x40)\n      dup1\n      swap2\n      sub\n      swap1\n      revert\n    tag_193:\n        /* \"contracts/InquireA.sol\":9826:9836  questionId */\n      dup3\n        /* \"contracts/InquireA.sol\":2103:2112  questions */\n      0x04\n        /* \"contracts/InquireA.sol\":2103:2124  questions[questionId] */\n      0x00\n        /* \"contracts/InquireA.sol\":2113:2123  questionId */\n      dup3\n        /* \"contracts/InquireA.sol\":2103:2124  questions[questionId] */\n      dup2\n      mstore\n      0x20\n      add\n      swap1\n      dup2\n      mstore\n      0x20\n      add\n      0x00\n      keccak256\n        /* \"contracts/InquireA.sol\":2103:2133  questions[questionId].isClosed */\n      0x08\n      add\n      0x00\n      swap1\n      sload\n      swap1\n      0x0100\n      exp\n      swap1\n      div\n      0xff\n      and\n        /* \"contracts/InquireA.sol\":2102:2133  !questions[questionId].isClosed */\n      iszero\n        /* \"contracts/InquireA.sol\":2094:2164  require(!questions[questionId].isClosed, \"Question is already closed\") */\n      tag_196\n      jumpi\n      mload(0x40)\n      0x08c379a000000000000000000000000000000000000000000000000000000000\n      dup2\n      mstore\n      0x04\n      add\n      tag_197\n      swap1\n      tag_148\n      jump\t// in\n    tag_197:\n      mload(0x40)\n      dup1\n      swap2\n      sub\n      swap1\n      revert\n    tag_196:\n        /* \"contracts/InquireA.sol\":9855:9879  Question memory question */\n      0x00\n        /* \"contracts/InquireA.sol\":9882:9891  questions */\n      0x04\n        /* \"contracts/InquireA.sol\":9882:9903  questions[questionId] */\n      0x00\n        /* \"contracts/InquireA.sol\":9892:9902  questionId */\n      dup7\n        /* \"contracts/InquireA.sol\":9882:9903  questions[questionId] */\n      dup2\n      mstore\n      0x20\n      add\n      swap1\n      dup2\n      mstore\n      0x20\n      add\n      0x00\n      keccak256\n        /* \"contracts/InquireA.sol\":9855:9903  Question memory question = questions[questionId] */\n      mload(0x40)\n      dup1\n      0x0140\n      add\n      0x40\n      mstore\n      swap1\n      dup2\n      0x00\n      dup3\n      add\n      sload\n      dup2\n      mstore\n      0x20\n      add\n      0x01\n      dup3\n      add\n      0x00\n      swap1\n      sload\n      swap1\n      0x0100\n      exp\n      swap1\n      div\n      0xffffffffffffffffffffffffffffffffffffffff\n      and\n      0xffffffffffffffffffffffffffffffffffffffff\n      and\n      0xffffffffffffffffffffffffffffffffffffffff\n      and\n      dup2\n      mstore\n      0x20\n      add\n      0x02\n      dup3\n      add\n      dup1\n      sload\n      tag_199\n      swap1\n      tag_163\n      jump\t// in\n    tag_199:\n      dup1\n      0x1f\n      add\n      0x20\n      dup1\n      swap2\n      div\n      mul\n      0x20\n      add\n      mload(0x40)\n      swap1\n      dup2\n      add\n      0x40\n      mstore\n      dup1\n      swap3\n      swap2\n      swap1\n      dup2\n      dup2\n      mstore\n      0x20\n      add\n      dup3\n      dup1\n      sload\n      tag_200\n      swap1\n      tag_163\n      jump\t// in\n    tag_200:\n      dup1\n      iszero\n      tag_201\n      jumpi\n      dup1\n      0x1f\n      lt\n      tag_202\n      jumpi\n      0x0100\n      dup1\n      dup4\n      sload\n      div\n      mul\n      dup4\n      mstore\n      swap2\n      0x20\n      add\n      swap2\n      jump(tag_201)\n    tag_202:\n      dup3\n      add\n      swap2\n      swap1\n      0x00\n      mstore\n      keccak256(0x00, 0x20)\n      swap1\n    tag_203:\n      dup2\n      sload\n      dup2\n      mstore\n      swap1\n      0x01\n      add\n      swap1\n      0x20\n      add\n      dup1\n      dup4\n      gt\n      tag_203\n      jumpi\n      dup3\n      swap1\n      sub\n      0x1f\n      and\n      dup3\n      add\n      swap2\n    tag_201:\n      pop\n      pop\n      pop\n      pop\n      pop\n      dup2\n      mstore\n      0x20\n      add\n      0x03\n      dup3\n      add\n      dup1\n      sload\n      tag_204\n      swap1\n      tag_163\n      jump\t// in\n    tag_204:\n      dup1\n      0x1f\n      add\n      0x20\n      dup1\n      swap2\n      div\n      mul\n      0x20\n      add\n      mload(0x40)\n      swap1\n      dup2\n      add\n      0x40\n      mstore\n      dup1\n      swap3\n      swap2\n      swap1\n      dup2\n      dup2\n      mstore\n      0x20\n      add\n      dup3\n      dup1\n      sload\n      tag_205\n      swap1\n      tag_163\n      jump\t// in\n    tag_205:\n      dup1\n      iszero\n      tag_206\n      jumpi\n      dup1\n      0x1f\n      lt\n      tag_207\n      jumpi\n      0x0100\n      dup1\n      dup4\n      sload\n      div\n      mul\n      dup4\n      mstore\n      swap2\n      0x20\n      add\n      swap2\n      jump(tag_206)\n    tag_207:\n      dup3\n      add\n      swap2\n      swap1\n      0x00\n      mstore\n      keccak256(0x00, 0x20)\n      swap1\n    tag_208:\n      dup2\n      sload\n      dup2\n      mstore\n      swap1\n      0x01\n      add\n      swap1\n      0x20\n      add\n      dup1\n      dup4\n      gt\n      tag_208\n      jumpi\n      dup3\n      swap1\n      sub\n      0x1f\n      and\n      dup3\n      add\n      swap2\n    tag_206:\n      pop\n      pop\n      pop\n      pop\n      pop\n      dup2\n      mstore\n      0x20\n      add\n      0x04\n      dup3\n      add\n      dup1\n      sload\n      tag_209\n      swap1\n      tag_163\n      jump\t// in\n    tag_209:\n      dup1\n      0x1f\n      add\n      0x20\n      dup1\n      swap2\n      div\n      mul\n      0x20\n      add\n      mload(0x40)\n      swap1\n      dup2\n      add\n      0x40\n      mstore\n      dup1\n      swap3\n      swap2\n      swap1\n      dup2\n      dup2\n      mstore\n      0x20\n      add\n      dup3\n      dup1\n      sload\n      tag_210\n      swap1\n      tag_163\n      jump\t// in\n    tag_210:\n      dup1\n      iszero\n      tag_211\n      jumpi\n      dup1\n      0x1f\n      lt\n      tag_212\n      jumpi\n      0x0100\n      dup1\n      dup4\n      sload\n      div\n      mul\n      dup4\n      mstore\n      swap2\n      0x20\n      add\n      swap2\n      jump(tag_211)\n    tag_212:\n      dup3\n      add\n      swap2\n      swap1\n      0x00\n      mstore\n      keccak256(0x00, 0x20)\n      swap1\n    tag_213:\n      dup2\n      sload\n      dup2\n      mstore\n      swap1\n      0x01\n      add\n      swap1\n      0x20\n      add\n      dup1\n      dup4\n      gt\n      tag_213\n      jumpi\n      dup3\n      swap1\n      sub\n      0x1f\n      and\n      dup3\n      add\n      swap2\n    tag_211:\n      pop\n      pop\n      pop\n      pop\n      pop\n      dup2\n      mstore\n      0x20\n      add\n      0x05\n      dup3\n      add\n      sload\n      dup2\n      mstore\n      0x20\n      add\n      0x06\n      dup3\n      add\n      sload\n      dup2\n      mstore\n      0x20\n      add\n      0x07\n      dup3\n      add\n      sload\n      dup2\n      mstore\n      0x20\n      add\n      0x08\n      dup3\n      add\n      0x00\n      swap1\n      sload\n      swap1\n      0x0100\n      exp\n      swap1\n      div\n      0xff\n      and\n      iszero\n      iszero\n      iszero\n      iszero\n      dup2\n      mstore\n      0x20\n      add\n      0x09\n      dup3\n      add\n      sload\n      dup2\n      mstore\n      pop\n      pop\n      swap1\n      pop\n        /* \"contracts/InquireA.sol\":9941:9949  question */\n      dup1\n        /* \"contracts/InquireA.sol\":9941:9958  question.deadline */\n      0xe0\n      add\n      mload\n        /* \"contracts/InquireA.sol\":9922:9937  block.timestamp */\n      timestamp\n        /* \"contracts/InquireA.sol\":9922:9958  block.timestamp <= question.deadline */\n      gt\n      iszero\n        /* \"contracts/InquireA.sol\":9914:9986  require(block.timestamp <= question.deadline, \"Voting period has ended\") */\n      tag_214\n      jumpi\n      mload(0x40)\n      0x08c379a000000000000000000000000000000000000000000000000000000000\n      dup2\n      mstore\n      0x04\n      add\n      tag_215\n      swap1\n      tag_216\n      jump\t// in\n    tag_215:\n      mload(0x40)\n      dup1\n      swap2\n      sub\n      swap1\n      revert\n    tag_214:\n        /* \"contracts/InquireA.sol\":9999:10020  Answer storage answer */\n      0x00\n        /* \"contracts/InquireA.sol\":10023:10030  answers */\n      0x05\n        /* \"contracts/InquireA.sol\":10023:10042  answers[questionId] */\n      0x00\n        /* \"contracts/InquireA.sol\":10031:10041  questionId */\n      dup8\n        /* \"contracts/InquireA.sol\":10023:10042  answers[questionId] */\n      dup2\n      mstore\n      0x20\n      add\n      swap1\n      dup2\n      mstore\n      0x20\n      add\n      0x00\n      keccak256\n        /* \"contracts/InquireA.sol\":10023:10052  answers[questionId][answerId] */\n      0x00\n        /* \"contracts/InquireA.sol\":10043:10051  answerId */\n      dup7\n        /* \"contracts/InquireA.sol\":10023:10052  answers[questionId][answerId] */\n      dup2\n      mstore\n      0x20\n      add\n      swap1\n      dup2\n      mstore\n      0x20\n      add\n      0x00\n      keccak256\n        /* \"contracts/InquireA.sol\":9999:10052  Answer storage answer = answers[questionId][answerId] */\n      swap1\n      pop\n        /* \"contracts/InquireA.sol\":10081:10082  1 */\n      0x01\n        /* \"contracts/InquireA.sol\":10063:10069  answer */\n      dup2\n        /* \"contracts/InquireA.sol\":10063:10077  answer.upvotes */\n      0x03\n      add\n      0x00\n        /* \"contracts/InquireA.sol\":10063:10082  answer.upvotes += 1 */\n      dup3\n      dup3\n      sload\n      tag_217\n      swap2\n      swap1\n      tag_218\n      jump\t// in\n    tag_217:\n      swap3\n      pop\n      pop\n      dup2\n      swap1\n      sstore\n      pop\n        /* \"contracts/InquireA.sol\":10128:10138  msg.sender */\n      caller\n        /* \"contracts/InquireA.sol\":10100:10139  Voted(questionId, answerId, msg.sender) */\n      0xffffffffffffffffffffffffffffffffffffffff\n      and\n      0xd91ecafccf238642dccd41161308b3eebe62a12bc5819daf5164780c221ec95b\n        /* \"contracts/InquireA.sol\":10106:10116  questionId */\n      dup8\n        /* \"contracts/InquireA.sol\":10118:10126  answerId */\n      dup8\n        /* \"contracts/InquireA.sol\":10100:10139  Voted(questionId, answerId, msg.sender) */\n      mload(0x40)\n      tag_219\n      swap3\n      swap2\n      swap1\n      tag_154\n      jump\t// in\n    tag_219:\n      mload(0x40)\n      dup1\n      swap2\n      sub\n      swap1\n      log2\n        /* \"contracts/InquireA.sol\":9844:10147  {... */\n      pop\n      pop\n        /* \"contracts/InquireA.sol\":2027:2028  _ */\n      pop\n        /* \"contracts/InquireA.sol\":9691:10147  function voteForAnswer(uint256 questionId, uint256 answerId) ... */\n      pop\n      pop\n      pop\n      jump\t// out\n        /* \"contracts/InquireA.sol\":1140:1183  mapping(address => uint256) public balances */\n    tag_52:\n      mstore(0x20, 0x06)\n      dup1\n      0x00\n      mstore\n      keccak256(0x00, 0x40)\n      0x00\n      swap2\n      pop\n      swap1\n      pop\n      sload\n      dup2\n      jump\t// out\n        /* \"contracts/InquireA.sol\":1020:1065  mapping(uint256 => Question) public questions */\n    tag_59:\n      mstore(0x20, 0x04)\n      dup1\n      0x00\n      mstore\n      keccak256(0x00, 0x40)\n      0x00\n      swap2\n      pop\n      swap1\n      pop\n      dup1\n      0x00\n      add\n      sload\n      swap1\n      dup1\n      0x01\n      add\n      0x00\n      swap1\n      sload\n      swap1\n      0x0100\n      exp\n      swap1\n      div\n      0xffffffffffffffffffffffffffffffffffffffff\n      and\n      swap1\n      dup1\n      0x02\n      add\n      dup1\n      sload\n      tag_220\n      swap1\n      tag_163\n      jump\t// in\n    tag_220:\n      dup1\n      0x1f\n      add\n      0x20\n      dup1\n      swap2\n      div\n      mul\n      0x20\n      add\n      mload(0x40)\n      swap1\n      dup2\n      add\n      0x40\n      mstore\n      dup1\n      swap3\n      swap2\n      swap1\n      dup2\n      dup2\n      mstore\n      0x20\n      add\n      dup3\n      dup1\n      sload\n      tag_221\n      swap1\n      tag_163\n      jump\t// in\n    tag_221:\n      dup1\n      iszero\n      tag_222\n      jumpi\n      dup1\n      0x1f\n      lt\n      tag_223\n      jumpi\n      0x0100\n      dup1\n      dup4\n      sload\n      div\n      mul\n      dup4\n      mstore\n      swap2\n      0x20\n      add\n      swap2\n      jump(tag_222)\n    tag_223:\n      dup3\n      add\n      swap2\n      swap1\n      0x00\n      mstore\n      keccak256(0x00, 0x20)\n      swap1\n    tag_224:\n      dup2\n      sload\n      dup2\n      mstore\n      swap1\n      0x01\n      add\n      swap1\n      0x20\n      add\n      dup1\n      dup4\n      gt\n      tag_224\n      jumpi\n      dup3\n      swap1\n      sub\n      0x1f\n      and\n      dup3\n      add\n      swap2\n    tag_222:\n      pop\n      pop\n      pop\n      pop\n      pop\n      swap1\n      dup1\n      0x03\n      add\n      dup1\n      sload\n      tag_225\n      swap1\n      tag_163\n      jump\t// in\n    tag_225:\n      dup1\n      0x1f\n      add\n      0x20\n      dup1\n      swap2\n      div\n      mul\n      0x20\n      add\n      mload(0x40)\n      swap1\n      dup2\n      add\n      0x40\n      mstore\n      dup1\n      swap3\n      swap2\n      swap1\n      dup2\n      dup2\n      mstore\n      0x20\n      add\n      dup3\n      dup1\n      sload\n      tag_226\n      swap1\n      tag_163\n      jump\t// in\n    tag_226:\n      dup1\n      iszero\n      tag_227\n      jumpi\n      dup1\n      0x1f\n      lt\n      tag_228\n      jumpi\n      0x0100\n      dup1\n      dup4\n      sload\n      div\n      mul\n      dup4\n      mstore\n      swap2\n      0x20\n      add\n      swap2\n      jump(tag_227)\n    tag_228:\n      dup3\n      add\n      swap2\n      swap1\n      0x00\n      mstore\n      keccak256(0x00, 0x20)\n      swap1\n    tag_229:\n      dup2\n      sload\n      dup2\n      mstore\n      swap1\n      0x01\n      add\n      swap1\n      0x20\n      add\n      dup1\n      dup4\n      gt\n      tag_229\n      jumpi\n      dup3\n      swap1\n      sub\n      0x1f\n      and\n      dup3\n      add\n      swap2\n    tag_227:\n      pop\n      pop\n      pop\n      pop\n      pop\n      swap1\n      dup1\n      0x04\n      add\n      dup1\n      sload\n      tag_230\n      swap1\n      tag_163\n      jump\t// in\n    tag_230:\n      dup1\n      0x1f\n      add\n      0x20\n      dup1\n      swap2\n      div\n      mul\n      0x20\n      add\n      mload(0x40)\n      swap1\n      dup2\n      add\n      0x40\n      mstore\n      dup1\n      swap3\n      swap2\n      swap1\n      dup2\n      dup2\n      mstore\n      0x20\n      add\n      dup3\n      dup1\n      sload\n      tag_231\n      swap1\n      tag_163\n      jump\t// in\n    tag_231:\n      dup1\n      iszero\n      tag_232\n      jumpi\n      dup1\n      0x1f\n      lt\n      tag_233\n      jumpi\n      0x0100\n      dup1\n      dup4\n      sload\n      div\n      mul\n      dup4\n      mstore\n      swap2\n      0x20\n      add\n      swap2\n      jump(tag_232)\n    tag_233:\n      dup3\n      add\n      swap2\n      swap1\n      0x00\n      mstore\n      keccak256(0x00, 0x20)\n      swap1\n    tag_234:\n      dup2\n      sload\n      dup2\n      mstore\n      swap1\n      0x01\n      add\n      swap1\n      0x20\n      add\n      dup1\n      dup4\n      gt\n      tag_234\n      jumpi\n      dup3\n      swap1\n      sub\n      0x1f\n      and\n      dup3\n      add\n      swap2\n    tag_232:\n      pop\n      pop\n      pop\n      pop\n      pop\n      swap1\n      dup1\n      0x05\n      add\n      sload\n      swap1\n      dup1\n      0x06\n      add\n      sload\n      swap1\n      dup1\n      0x07\n      add\n      sload\n      swap1\n      dup1\n      0x08\n      add\n      0x00\n      swap1\n      sload\n      swap1\n      0x0100\n      exp\n      swap1\n      div\n      0xff\n      and\n      swap1\n      dup1\n      0x09\n      add\n      sload\n      swap1\n      pop\n      dup11\n      jump\t// out\n        /* \"contracts/InquireA.sol\":11614:11835  function withdraw() public {... */\n    tag_64:\n        /* \"contracts/InquireA.sol\":11652:11666  uint256 amount */\n      0x00\n        /* \"contracts/InquireA.sol\":11669:11677  balances */\n      0x06\n        /* \"contracts/InquireA.sol\":11669:11689  balances[msg.sender] */\n      0x00\n        /* \"contracts/InquireA.sol\":11678:11688  msg.sender */\n      caller\n        /* \"contracts/InquireA.sol\":11669:11689  balances[msg.sender] */\n      0xffffffffffffffffffffffffffffffffffffffff\n      and\n      0xffffffffffffffffffffffffffffffffffffffff\n      and\n      dup2\n      mstore\n      0x20\n      add\n      swap1\n      dup2\n      mstore\n      0x20\n      add\n      0x00\n      keccak256\n      sload\n        /* \"contracts/InquireA.sol\":11652:11689  uint256 amount = balances[msg.sender] */\n      swap1\n      pop\n        /* \"contracts/InquireA.sol\":11717:11718  0 */\n      0x00\n        /* \"contracts/InquireA.sol\":11708:11714  amount */\n      dup2\n        /* \"contracts/InquireA.sol\":11708:11718  amount > 0 */\n      gt\n        /* \"contracts/InquireA.sol\":11700:11743  require(amount > 0, \"No funds to withdraw\") */\n      tag_236\n      jumpi\n      mload(0x40)\n      0x08c379a000000000000000000000000000000000000000000000000000000000\n      dup2\n      mstore\n      0x04\n      add\n      tag_237\n      swap1\n      tag_238\n      jump\t// in\n    tag_237:\n      mload(0x40)\n      dup1\n      swap2\n      sub\n      swap1\n      revert\n    tag_236:\n        /* \"contracts/InquireA.sol\":11779:11780  0 */\n      0x00\n        /* \"contracts/InquireA.sol\":11756:11764  balances */\n      0x06\n        /* \"contracts/InquireA.sol\":11756:11776  balances[msg.sender] */\n      0x00\n        /* \"contracts/InquireA.sol\":11765:11775  msg.sender */\n      caller\n        /* \"contracts/InquireA.sol\":11756:11776  balances[msg.sender] */\n      0xffffffffffffffffffffffffffffffffffffffff\n      and\n      0xffffffffffffffffffffffffffffffffffffffff\n      and\n      dup2\n      mstore\n      0x20\n      add\n      swap1\n      dup2\n      mstore\n      0x20\n      add\n      0x00\n      keccak256\n        /* \"contracts/InquireA.sol\":11756:11780  balances[msg.sender] = 0 */\n      dup2\n      swap1\n      sstore\n      pop\n        /* \"contracts/InquireA.sol\":11799:11809  msg.sender */\n      caller\n        /* \"contracts/InquireA.sol\":11791:11819  payable(msg.sender).transfer */\n      0xffffffffffffffffffffffffffffffffffffffff\n      and\n        /* \"contracts/InquireA.sol\":11791:11827  payable(msg.sender).transfer(amount) */\n      0x08fc\n        /* \"contracts/InquireA.sol\":11820:11826  amount */\n      dup3\n        /* \"contracts/InquireA.sol\":11791:11827  payable(msg.sender).transfer(amount) */\n      swap1\n      dup2\n      iszero\n      mul\n      swap1\n      mload(0x40)\n      0x00\n      mload(0x40)\n      dup1\n      dup4\n      sub\n      dup2\n      dup6\n      dup9\n      dup9\n      call\n      swap4\n      pop\n      pop\n      pop\n      pop\n      iszero\n      dup1\n      iszero\n      tag_240\n      jumpi\n      returndatasize\n      0x00\n      dup1\n      returndatacopy\n      revert(0x00, returndatasize)\n    tag_240:\n      pop\n        /* \"contracts/InquireA.sol\":11641:11835  {... */\n      pop\n        /* \"contracts/InquireA.sol\":11614:11835  function withdraw() public {... */\n      jump\t// out\n        /* \"contracts/InquireA.sol\":9433:9683  function getAnswerById(uint256 questionId, uint256 answerId) public view returns (Answer memory) {... */\n    tag_68:\n        /* \"contracts/InquireA.sol\":9515:9528  Answer memory */\n      tag_241\n      tag_242\n      jump\t// in\n    tag_241:\n        /* \"contracts/InquireA.sol\":9600:9601  0 */\n      0x00\n        /* \"contracts/InquireA.sol\":9549:9602  answers[questionId][answerId].responder != address(0) */\n      0xffffffffffffffffffffffffffffffffffffffff\n      and\n        /* \"contracts/InquireA.sol\":9549:9556  answers */\n      0x05\n        /* \"contracts/InquireA.sol\":9549:9568  answers[questionId] */\n      0x00\n        /* \"contracts/InquireA.sol\":9557:9567  questionId */\n      dup6\n        /* \"contracts/InquireA.sol\":9549:9568  answers[questionId] */\n      dup2\n      mstore\n      0x20\n      add\n      swap1\n      dup2\n      mstore\n      0x20\n      add\n      0x00\n      keccak256\n        /* \"contracts/InquireA.sol\":9549:9578  answers[questionId][answerId] */\n      0x00\n        /* \"contracts/InquireA.sol\":9569:9577  answerId */\n      dup5\n        /* \"contracts/InquireA.sol\":9549:9578  answers[questionId][answerId] */\n      dup2\n      mstore\n      0x20\n      add\n      swap1\n      dup2\n      mstore\n      0x20\n      add\n      0x00\n      keccak256\n        /* \"contracts/InquireA.sol\":9549:9588  answers[questionId][answerId].responder */\n      0x01\n      add\n      0x00\n      swap1\n      sload\n      swap1\n      0x0100\n      exp\n      swap1\n      div\n      0xffffffffffffffffffffffffffffffffffffffff\n      and\n        /* \"contracts/InquireA.sol\":9549:9602  answers[questionId][answerId].responder != address(0) */\n      0xffffffffffffffffffffffffffffffffffffffff\n      and\n      sub\n        /* \"contracts/InquireA.sol\":9541:9628  require(answers[questionId][answerId].responder != address(0), \"Answer does not exist\") */\n      tag_244\n      jumpi\n      mload(0x40)\n      0x08c379a000000000000000000000000000000000000000000000000000000000\n      dup2\n      mstore\n      0x04\n      add\n      tag_245\n      swap1\n      tag_246\n      jump\t// in\n    tag_245:\n      mload(0x40)\n      dup1\n      swap2\n      sub\n      swap1\n      revert\n    tag_244:\n        /* \"contracts/InquireA.sol\":9646:9653  answers */\n      0x05\n        /* \"contracts/InquireA.sol\":9646:9665  answers[questionId] */\n      0x00\n        /* \"contracts/InquireA.sol\":9654:9664  questionId */\n      dup5\n        /* \"contracts/InquireA.sol\":9646:9665  answers[questionId] */\n      dup2\n      mstore\n      0x20\n      add\n      swap1\n      dup2\n      mstore\n      0x20\n      add\n      0x00\n      keccak256\n        /* \"contracts/InquireA.sol\":9646:9675  answers[questionId][answerId] */\n      0x00\n        /* \"contracts/InquireA.sol\":9666:9674  answerId */\n      dup4\n        /* \"contracts/InquireA.sol\":9646:9675  answers[questionId][answerId] */\n      dup2\n      mstore\n      0x20\n      add\n      swap1\n      dup2\n      mstore\n      0x20\n      add\n      0x00\n      keccak256\n        /* \"contracts/InquireA.sol\":9639:9675  return answers[questionId][answerId] */\n      mload(0x40)\n      dup1\n      0xc0\n      add\n      0x40\n      mstore\n      swap1\n      dup2\n      0x00\n      dup3\n      add\n      sload\n      dup2\n      mstore\n      0x20\n      add\n      0x01\n      dup3\n      add\n      0x00\n      swap1\n      sload\n      swap1\n      0x0100\n      exp\n      swap1\n      div\n      0xffffffffffffffffffffffffffffffffffffffff\n      and\n      0xffffffffffffffffffffffffffffffffffffffff\n      and\n      0xffffffffffffffffffffffffffffffffffffffff\n      and\n      dup2\n      mstore\n      0x20\n      add\n      0x02\n      dup3\n      add\n      dup1\n      sload\n      tag_247\n      swap1\n      tag_163\n      jump\t// in\n    tag_247:\n      dup1\n      0x1f\n      add\n      0x20\n      dup1\n      swap2\n      div\n      mul\n      0x20\n      add\n      mload(0x40)\n      swap1\n      dup2\n      add\n      0x40\n      mstore\n      dup1\n      swap3\n      swap2\n      swap1\n      dup2\n      dup2\n      mstore\n      0x20\n      add\n      dup3\n      dup1\n      sload\n      tag_248\n      swap1\n      tag_163\n      jump\t// in\n    tag_248:\n      dup1\n      iszero\n      tag_249\n      jumpi\n      dup1\n      0x1f\n      lt\n      tag_250\n      jumpi\n      0x0100\n      dup1\n      dup4\n      sload\n      div\n      mul\n      dup4\n      mstore\n      swap2\n      0x20\n      add\n      swap2\n      jump(tag_249)\n    tag_250:\n      dup3\n      add\n      swap2\n      swap1\n      0x00\n      mstore\n      keccak256(0x00, 0x20)\n      swap1\n    tag_251:\n      dup2\n      sload\n      dup2\n      mstore\n      swap1\n      0x01\n      add\n      swap1\n      0x20\n      add\n      dup1\n      dup4\n      gt\n      tag_251\n      jumpi\n      dup3\n      swap1\n      sub\n      0x1f\n      and\n      dup3\n      add\n      swap2\n    tag_249:\n      pop\n      pop\n      pop\n      pop\n      pop\n      dup2\n      mstore\n      0x20\n      add\n      0x03\n      dup3\n      add\n      sload\n      dup2\n      mstore\n      0x20\n      add\n      0x04\n      dup3\n      add\n      sload\n      dup2\n      mstore\n      0x20\n      add\n      0x05\n      dup3\n      add\n      sload\n      dup2\n      mstore\n      pop\n      pop\n      swap1\n      pop\n        /* \"contracts/InquireA.sol\":9433:9683  function getAnswerById(uint256 questionId, uint256 answerId) public view returns (Answer memory) {... */\n      swap3\n      swap2\n      pop\n      pop\n      jump\t// out\n        /* \"contracts/InquireA.sol\":11991:12667  function getQuestionsByCategory(string memory _category) public view returns (uint256[] memory) {... */\n    tag_75:\n        /* \"contracts/InquireA.sol\":12069:12085  uint256[] memory */\n      0x60\n        /* \"contracts/InquireA.sol\":12098:12131  uint256[] memory matchedQuestions */\n      0x00\n        /* \"contracts/InquireA.sol\":12148:12165  questionIdCounter */\n      sload(0x02)\n        /* \"contracts/InquireA.sol\":12134:12166  new uint256[](questionIdCounter) */\n      0xffffffffffffffff\n      dup2\n      gt\n      iszero\n      tag_253\n      jumpi\n      tag_254\n      tag_255\n      jump\t// in\n    tag_254:\n    tag_253:\n      mload(0x40)\n      swap1\n      dup1\n      dup3\n      mstore\n      dup1\n      0x20\n      mul\n      0x20\n      add\n      dup3\n      add\n      0x40\n      mstore\n      dup1\n      iszero\n      tag_256\n      jumpi\n      dup2\n      0x20\n      add\n      0x20\n      dup3\n      mul\n      dup1\n      calldatasize\n      dup4\n      calldatacopy\n      dup1\n      dup3\n      add\n      swap2\n      pop\n      pop\n      swap1\n      pop\n    tag_256:\n      pop\n        /* \"contracts/InquireA.sol\":12098:12166  uint256[] memory matchedQuestions = new uint256[](questionIdCounter) */\n      swap1\n      pop\n        /* \"contracts/InquireA.sol\":12177:12190  uint256 count */\n      0x00\n        /* \"contracts/InquireA.sol\":12212:12221  uint256 i */\n      dup1\n        /* \"contracts/InquireA.sol\":12224:12225  1 */\n      0x01\n        /* \"contracts/InquireA.sol\":12212:12225  uint256 i = 1 */\n      swap1\n      pop\n        /* \"contracts/InquireA.sol\":12207:12445  for (uint256 i = 1; i < questionIdCounter; i++) {... */\n    tag_257:\n        /* \"contracts/InquireA.sol\":12231:12248  questionIdCounter */\n      sload(0x02)\n        /* \"contracts/InquireA.sol\":12227:12228  i */\n      dup2\n        /* \"contracts/InquireA.sol\":12227:12248  i < questionIdCounter */\n      lt\n        /* \"contracts/InquireA.sol\":12207:12445  for (uint256 i = 1; i < questionIdCounter; i++) {... */\n      iszero\n      tag_258\n      jumpi\n        /* \"contracts/InquireA.sol\":12333:12342  _category */\n      dup5\n        /* \"contracts/InquireA.sol\":12317:12344  keccak256(bytes(_category)) */\n      dup1\n      mload\n      swap1\n      0x20\n      add\n      keccak256\n        /* \"contracts/InquireA.sol\":12290:12299  questions */\n      0x04\n        /* \"contracts/InquireA.sol\":12290:12302  questions[i] */\n      0x00\n        /* \"contracts/InquireA.sol\":12300:12301  i */\n      dup4\n        /* \"contracts/InquireA.sol\":12290:12302  questions[i] */\n      dup2\n      mstore\n      0x20\n      add\n      swap1\n      dup2\n      mstore\n      0x20\n      add\n      0x00\n      keccak256\n        /* \"contracts/InquireA.sol\":12290:12311  questions[i].category */\n      0x04\n      add\n        /* \"contracts/InquireA.sol\":12274:12313  keccak256(bytes(questions[i].category)) */\n      mload(0x40)\n      tag_260\n      swap2\n      swap1\n      tag_261\n      jump\t// in\n    tag_260:\n      mload(0x40)\n      dup1\n      swap2\n      sub\n      swap1\n      keccak256\n        /* \"contracts/InquireA.sol\":12274:12344  keccak256(bytes(questions[i].category)) == keccak256(bytes(_category)) */\n      sub\n        /* \"contracts/InquireA.sol\":12270:12434  if (keccak256(bytes(questions[i].category)) == keccak256(bytes(_category))) {... */\n      tag_262\n      jumpi\n        /* \"contracts/InquireA.sol\":12391:12392  i */\n      dup1\n        /* \"contracts/InquireA.sol\":12365:12381  matchedQuestions */\n      dup4\n        /* \"contracts/InquireA.sol\":12382:12387  count */\n      dup4\n        /* \"contracts/InquireA.sol\":12365:12388  matchedQuestions[count] */\n      dup2\n      mload\n      dup2\n      lt\n      tag_263\n      jumpi\n      tag_264\n      tag_265\n      jump\t// in\n    tag_264:\n    tag_263:\n      0x20\n      mul\n      0x20\n      add\n      add\n        /* \"contracts/InquireA.sol\":12365:12392  matchedQuestions[count] = i */\n      dup2\n      dup2\n      mstore\n      pop\n      pop\n        /* \"contracts/InquireA.sol\":12411:12418  count++ */\n      dup2\n      dup1\n      tag_266\n      swap1\n      tag_182\n      jump\t// in\n    tag_266:\n      swap3\n      pop\n      pop\n        /* \"contracts/InquireA.sol\":12270:12434  if (keccak256(bytes(questions[i].category)) == keccak256(bytes(_category))) {... */\n    tag_262:\n        /* \"contracts/InquireA.sol\":12250:12253  i++ */\n      dup1\n      dup1\n      0x01\n      add\n      swap2\n      pop\n      pop\n        /* \"contracts/InquireA.sol\":12207:12445  for (uint256 i = 1; i < questionIdCounter; i++) {... */\n      jump(tag_257)\n    tag_258:\n      pop\n        /* \"contracts/InquireA.sol\":12483:12506  uint256[] memory result */\n      0x00\n        /* \"contracts/InquireA.sol\":12523:12528  count */\n      dup2\n        /* \"contracts/InquireA.sol\":12509:12529  new uint256[](count) */\n      0xffffffffffffffff\n      dup2\n      gt\n      iszero\n      tag_267\n      jumpi\n      tag_268\n      tag_255\n      jump\t// in\n    tag_268:\n    tag_267:\n      mload(0x40)\n      swap1\n      dup1\n      dup3\n      mstore\n      dup1\n      0x20\n      mul\n      0x20\n      add\n      dup3\n      add\n      0x40\n      mstore\n      dup1\n      iszero\n      tag_269\n      jumpi\n      dup2\n      0x20\n      add\n      0x20\n      dup3\n      mul\n      dup1\n      calldatasize\n      dup4\n      calldatacopy\n      dup1\n      dup3\n      add\n      swap2\n      pop\n      pop\n      swap1\n      pop\n    tag_269:\n      pop\n        /* \"contracts/InquireA.sol\":12483:12529  uint256[] memory result = new uint256[](count) */\n      swap1\n      pop\n        /* \"contracts/InquireA.sol\":12545:12554  uint256 i */\n      0x00\n        /* \"contracts/InquireA.sol\":12540:12634  for (uint256 i = 0; i < count; i++) {... */\n    tag_270:\n        /* \"contracts/InquireA.sol\":12564:12569  count */\n      dup3\n        /* \"contracts/InquireA.sol\":12560:12561  i */\n      dup2\n        /* \"contracts/InquireA.sol\":12560:12569  i < count */\n      lt\n        /* \"contracts/InquireA.sol\":12540:12634  for (uint256 i = 0; i < count; i++) {... */\n      iszero\n      tag_271\n      jumpi\n        /* \"contracts/InquireA.sol\":12603:12619  matchedQuestions */\n      dup4\n        /* \"contracts/InquireA.sol\":12620:12621  i */\n      dup2\n        /* \"contracts/InquireA.sol\":12603:12622  matchedQuestions[i] */\n      dup2\n      mload\n      dup2\n      lt\n      tag_273\n      jumpi\n      tag_274\n      tag_265\n      jump\t// in\n    tag_274:\n    tag_273:\n      0x20\n      mul\n      0x20\n      add\n      add\n      mload\n        /* \"contracts/InquireA.sol\":12591:12597  result */\n      dup3\n        /* \"contracts/InquireA.sol\":12598:12599  i */\n      dup3\n        /* \"contracts/InquireA.sol\":12591:12600  result[i] */\n      dup2\n      mload\n      dup2\n      lt\n      tag_275\n      jumpi\n      tag_276\n      tag_265\n      jump\t// in\n    tag_276:\n    tag_275:\n      0x20\n      mul\n      0x20\n      add\n      add\n        /* \"contracts/InquireA.sol\":12591:12622  result[i] = matchedQuestions[i] */\n      dup2\n      dup2\n      mstore\n      pop\n      pop\n        /* \"contracts/InquireA.sol\":12571:12574  i++ */\n      dup1\n      dup1\n      0x01\n      add\n      swap2\n      pop\n      pop\n        /* \"contracts/InquireA.sol\":12540:12634  for (uint256 i = 0; i < count; i++) {... */\n      jump(tag_270)\n    tag_271:\n      pop\n        /* \"contracts/InquireA.sol\":12653:12659  result */\n      dup1\n        /* \"contracts/InquireA.sol\":12646:12659  return result */\n      swap4\n      pop\n      pop\n      pop\n      pop\n        /* \"contracts/InquireA.sol\":11991:12667  function getQuestionsByCategory(string memory _category) public view returns (uint256[] memory) {... */\n      swap2\n      swap1\n      pop\n      jump\t// out\n        /* \"contracts/InquireA.sol\":2244:3582  function askQuestion(... */\n    tag_81:\n        /* \"contracts/InquireA.sol\":2473:2474  0 */\n      0x00\n        /* \"contracts/InquireA.sol\":2461:2470  msg.value */\n      callvalue\n        /* \"contracts/InquireA.sol\":2461:2474  msg.value > 0 */\n      gt\n        /* \"contracts/InquireA.sol\":2453:2511  require(msg.value > 0, \"Reward must be greater than zero\") */\n      tag_278\n      jumpi\n      mload(0x40)\n      0x08c379a000000000000000000000000000000000000000000000000000000000\n      dup2\n      mstore\n      0x04\n      add\n      tag_279\n      swap1\n      tag_280\n      jump\t// in\n    tag_279:\n      mload(0x40)\n      dup1\n      swap2\n      sub\n      swap1\n      revert\n    tag_278:\n        /* \"contracts/InquireA.sol\":2556:2557  0 */\n      0x00\n        /* \"contracts/InquireA.sol\":2536:2545  _category */\n      dup3\n        /* \"contracts/InquireA.sol\":2530:2553  bytes(_category).length */\n      mload\n        /* \"contracts/InquireA.sol\":2530:2557  bytes(_category).length > 0 */\n      gt\n        /* \"contracts/InquireA.sol\":2522:2586  require(bytes(_category).length > 0, \"Category cannot be empty\") */\n      tag_281\n      jumpi\n      mload(0x40)\n      0x08c379a000000000000000000000000000000000000000000000000000000000\n      dup2\n      mstore\n      0x04\n      add\n      tag_282\n      swap1\n      tag_283\n      jump\t// in\n    tag_282:\n      mload(0x40)\n      dup1\n      swap2\n      sub\n      swap1\n      revert\n    tag_281:\n        /* \"contracts/InquireA.sol\":2599:2615  uint256 deadline */\n      0x00\n        /* \"contracts/InquireA.sol\":2649:2671  DeadlinePeriod.OneWeek */\n      dup1\n        /* \"contracts/InquireA.sol\":2630:2671  _deadlinePeriod == DeadlinePeriod.OneWeek */\n      0x02\n      dup2\n      gt\n      iszero\n      tag_284\n      jumpi\n      tag_285\n      tag_286\n      jump\t// in\n    tag_285:\n    tag_284:\n        /* \"contracts/InquireA.sol\":2630:2645  _deadlinePeriod */\n      dup3\n        /* \"contracts/InquireA.sol\":2630:2671  _deadlinePeriod == DeadlinePeriod.OneWeek */\n      0x02\n      dup2\n      gt\n      iszero\n      tag_287\n      jumpi\n      tag_288\n      tag_286\n      jump\t// in\n    tag_288:\n    tag_287:\n      sub\n        /* \"contracts/InquireA.sol\":2626:2967  if (_deadlinePeriod == DeadlinePeriod.OneWeek) {... */\n      tag_289\n      jumpi\n        /* \"contracts/InquireA.sol\":261:267  7 days */\n      0x093a80\n        /* \"contracts/InquireA.sol\":2699:2714  block.timestamp */\n      timestamp\n        /* \"contracts/InquireA.sol\":2699:2721  block.timestamp + WEEK */\n      tag_290\n      swap2\n      swap1\n      tag_218\n      jump\t// in\n    tag_290:\n        /* \"contracts/InquireA.sol\":2688:2721  deadline = block.timestamp + WEEK */\n      swap1\n      pop\n        /* \"contracts/InquireA.sol\":2626:2967  if (_deadlinePeriod == DeadlinePeriod.OneWeek) {... */\n      jump(tag_291)\n    tag_289:\n        /* \"contracts/InquireA.sol\":2762:2785  DeadlinePeriod.TwoWeeks */\n      0x01\n        /* \"contracts/InquireA.sol\":2743:2785  _deadlinePeriod == DeadlinePeriod.TwoWeeks */\n      0x02\n      dup2\n      gt\n      iszero\n      tag_292\n      jumpi\n      tag_293\n      tag_286\n      jump\t// in\n    tag_293:\n    tag_292:\n        /* \"contracts/InquireA.sol\":2743:2758  _deadlinePeriod */\n      dup3\n        /* \"contracts/InquireA.sol\":2743:2785  _deadlinePeriod == DeadlinePeriod.TwoWeeks */\n      0x02\n      dup2\n      gt\n      iszero\n      tag_294\n      jumpi\n      tag_295\n      tag_286\n      jump\t// in\n    tag_295:\n    tag_294:\n      sub\n        /* \"contracts/InquireA.sol\":2739:2967  if (_deadlinePeriod == DeadlinePeriod.TwoWeeks) {... */\n      tag_296\n      jumpi\n        /* \"contracts/InquireA.sol\":310:317  14 days */\n      0x127500\n        /* \"contracts/InquireA.sol\":2813:2828  block.timestamp */\n      timestamp\n        /* \"contracts/InquireA.sol\":2813:2840  block.timestamp + TWO_WEEKS */\n      tag_297\n      swap2\n      swap1\n      tag_218\n      jump\t// in\n    tag_297:\n        /* \"contracts/InquireA.sol\":2802:2840  deadline = block.timestamp + TWO_WEEKS */\n      swap1\n      pop\n        /* \"contracts/InquireA.sol\":2739:2967  if (_deadlinePeriod == DeadlinePeriod.TwoWeeks) {... */\n      jump(tag_298)\n    tag_296:\n        /* \"contracts/InquireA.sol\":2881:2904  DeadlinePeriod.OneMonth */\n      0x02\n        /* \"contracts/InquireA.sol\":2862:2904  _deadlinePeriod == DeadlinePeriod.OneMonth */\n      dup1\n      dup2\n      gt\n      iszero\n      tag_299\n      jumpi\n      tag_300\n      tag_286\n      jump\t// in\n    tag_300:\n    tag_299:\n        /* \"contracts/InquireA.sol\":2862:2877  _deadlinePeriod */\n      dup3\n        /* \"contracts/InquireA.sol\":2862:2904  _deadlinePeriod == DeadlinePeriod.OneMonth */\n      0x02\n      dup2\n      gt\n      iszero\n      tag_301\n      jumpi\n      tag_302\n      tag_286\n      jump\t// in\n    tag_302:\n    tag_301:\n      sub\n        /* \"contracts/InquireA.sol\":2858:2967  if (_deadlinePeriod == DeadlinePeriod.OneMonth) {... */\n      tag_303\n      jumpi\n        /* \"contracts/InquireA.sol\":356:363  30 days */\n      0x278d00\n        /* \"contracts/InquireA.sol\":2932:2947  block.timestamp */\n      timestamp\n        /* \"contracts/InquireA.sol\":2932:2955  block.timestamp + MONTH */\n      tag_304\n      swap2\n      swap1\n      tag_218\n      jump\t// in\n    tag_304:\n        /* \"contracts/InquireA.sol\":2921:2955  deadline = block.timestamp + MONTH */\n      swap1\n      pop\n        /* \"contracts/InquireA.sol\":2858:2967  if (_deadlinePeriod == DeadlinePeriod.OneMonth) {... */\n    tag_303:\n        /* \"contracts/InquireA.sol\":2739:2967  if (_deadlinePeriod == DeadlinePeriod.TwoWeeks) {... */\n    tag_298:\n        /* \"contracts/InquireA.sol\":2626:2967  if (_deadlinePeriod == DeadlinePeriod.OneWeek) {... */\n    tag_291:\n        /* \"contracts/InquireA.sol\":2987:3005  uint256 questionId */\n      0x00\n        /* \"contracts/InquireA.sol\":3008:3025  questionIdCounter */\n      0x02\n      0x00\n        /* \"contracts/InquireA.sol\":3008:3027  questionIdCounter++ */\n      dup2\n      sload\n      dup1\n      swap3\n      swap2\n      swap1\n      tag_305\n      swap1\n      tag_182\n      jump\t// in\n    tag_305:\n      swap2\n      swap1\n      pop\n      sstore\n        /* \"contracts/InquireA.sol\":2987:3027  uint256 questionId = questionIdCounter++ */\n      swap1\n      pop\n        /* \"contracts/InquireA.sol\":3062:3482  Question({... */\n      mload(0x40)\n      dup1\n      0x0140\n      add\n      0x40\n      mstore\n      dup1\n        /* \"contracts/InquireA.sol\":3090:3100  questionId */\n      dup3\n        /* \"contracts/InquireA.sol\":3062:3482  Question({... */\n      dup2\n      mstore\n      0x20\n      add\n        /* \"contracts/InquireA.sol\":3161:3171  msg.sender */\n      caller\n        /* \"contracts/InquireA.sol\":3062:3482  Question({... */\n      0xffffffffffffffffffffffffffffffffffffffff\n      and\n      dup2\n      mstore\n      0x20\n      add\n        /* \"contracts/InquireA.sol\":3200:3213  _questionText */\n      dup8\n        /* \"contracts/InquireA.sol\":3062:3482  Question({... */\n      dup2\n      mstore\n      0x20\n      add\n        /* \"contracts/InquireA.sol\":3245:3261  _questionContent */\n      dup7\n        /* \"contracts/InquireA.sol\":3062:3482  Question({... */\n      dup2\n      mstore\n      0x20\n      add\n        /* \"contracts/InquireA.sol\":3287:3296  _category */\n      dup6\n        /* \"contracts/InquireA.sol\":3062:3482  Question({... */\n      dup2\n      mstore\n      0x20\n      add\n        /* \"contracts/InquireA.sol\":3325:3334  msg.value */\n      callvalue\n        /* \"contracts/InquireA.sol\":3062:3482  Question({... */\n      dup2\n      mstore\n      0x20\n      add\n        /* \"contracts/InquireA.sol\":3360:3375  block.timestamp */\n      timestamp\n        /* \"contracts/InquireA.sol\":3062:3482  Question({... */\n      dup2\n      mstore\n      0x20\n      add\n        /* \"contracts/InquireA.sol\":3400:3408  deadline */\n      dup4\n        /* \"contracts/InquireA.sol\":3062:3482  Question({... */\n      dup2\n      mstore\n      0x20\n      add\n        /* \"contracts/InquireA.sol\":3433:3438  false */\n      0x00\n        /* \"contracts/InquireA.sol\":3062:3482  Question({... */\n      iszero\n      iszero\n      dup2\n      mstore\n      0x20\n      add\n        /* \"contracts/InquireA.sol\":3469:3470  0 */\n      0x00\n        /* \"contracts/InquireA.sol\":3062:3482  Question({... */\n      dup2\n      mstore\n      pop\n        /* \"contracts/InquireA.sol\":3038:3047  questions */\n      0x04\n        /* \"contracts/InquireA.sol\":3038:3059  questions[questionId] */\n      0x00\n        /* \"contracts/InquireA.sol\":3048:3058  questionId */\n      dup4\n        /* \"contracts/InquireA.sol\":3038:3059  questions[questionId] */\n      dup2\n      mstore\n      0x20\n      add\n      swap1\n      dup2\n      mstore\n      0x20\n      add\n      0x00\n      keccak256\n        /* \"contracts/InquireA.sol\":3038:3482  questions[questionId] = Question({... */\n      0x00\n      dup3\n      add\n      mload\n      dup2\n      0x00\n      add\n      sstore\n      0x20\n      dup3\n      add\n      mload\n      dup2\n      0x01\n      add\n      exp(0x0100, 0x00)\n      dup2\n      sload\n      dup2\n      0xffffffffffffffffffffffffffffffffffffffff\n      mul\n      not\n      and\n      swap1\n      dup4\n      0xffffffffffffffffffffffffffffffffffffffff\n      and\n      mul\n      or\n      swap1\n      sstore\n      pop\n      0x40\n      dup3\n      add\n      mload\n      dup2\n      0x02\n      add\n      swap1\n      dup2\n      tag_306\n      swap2\n      swap1\n      tag_184\n      jump\t// in\n    tag_306:\n      pop\n      0x60\n      dup3\n      add\n      mload\n      dup2\n      0x03\n      add\n      swap1\n      dup2\n      tag_307\n      swap2\n      swap1\n      tag_184\n      jump\t// in\n    tag_307:\n      pop\n      0x80\n      dup3\n      add\n      mload\n      dup2\n      0x04\n      add\n      swap1\n      dup2\n      tag_308\n      swap2\n      swap1\n      tag_184\n      jump\t// in\n    tag_308:\n      pop\n      0xa0\n      dup3\n      add\n      mload\n      dup2\n      0x05\n      add\n      sstore\n      0xc0\n      dup3\n      add\n      mload\n      dup2\n      0x06\n      add\n      sstore\n      0xe0\n      dup3\n      add\n      mload\n      dup2\n      0x07\n      add\n      sstore\n      0x0100\n      dup3\n      add\n      mload\n      dup2\n      0x08\n      add\n      exp(0x0100, 0x00)\n      dup2\n      sload\n      dup2\n      0xff\n      mul\n      not\n      and\n      swap1\n      dup4\n      iszero\n      iszero\n      mul\n      or\n      swap1\n      sstore\n      pop\n      0x0120\n      dup3\n      add\n      mload\n      dup2\n      0x09\n      add\n      sstore\n      swap1\n      pop\n      pop\n        /* \"contracts/InquireA.sol\":3526:3536  msg.sender */\n      caller\n        /* \"contracts/InquireA.sol\":3500:3574  QuestionAsked(questionId, msg.sender, _questionText, msg.value, _category) */\n      0xffffffffffffffffffffffffffffffffffffffff\n      and\n      0xb8105899d34d8481e717a601e8d7a732c27b0ab23778e01145f2f3eb24a1120c\n        /* \"contracts/InquireA.sol\":3514:3524  questionId */\n      dup3\n        /* \"contracts/InquireA.sol\":3538:3551  _questionText */\n      dup9\n        /* \"contracts/InquireA.sol\":3553:3562  msg.value */\n      callvalue\n        /* \"contracts/InquireA.sol\":3564:3573  _category */\n      dup9\n        /* \"contracts/InquireA.sol\":3500:3574  QuestionAsked(questionId, msg.sender, _questionText, msg.value, _category) */\n      mload(0x40)\n      tag_309\n      swap5\n      swap4\n      swap3\n      swap2\n      swap1\n      tag_310\n      jump\t// in\n    tag_309:\n      mload(0x40)\n      dup1\n      swap2\n      sub\n      swap1\n      log2\n        /* \"contracts/InquireA.sol\":2442:3582  {... */\n      pop\n      pop\n        /* \"contracts/InquireA.sol\":2244:3582  function askQuestion(... */\n      pop\n      pop\n      pop\n      pop\n      jump\t// out\n        /* \"contracts/InquireA.sol\":10605:11606  function distributeRewards(uint256 questionId) public questionExists(questionId) {... */\n    tag_85:\n        /* \"contracts/InquireA.sol\":10674:10684  questionId */\n      dup1\n        /* \"contracts/InquireA.sol\":1986:1987  0 */\n      0x00\n        /* \"contracts/InquireA.sol\":1947:1988  questions[questionId].asker != address(0) */\n      0xffffffffffffffffffffffffffffffffffffffff\n      and\n        /* \"contracts/InquireA.sol\":1947:1956  questions */\n      0x04\n        /* \"contracts/InquireA.sol\":1947:1968  questions[questionId] */\n      0x00\n        /* \"contracts/InquireA.sol\":1957:1967  questionId */\n      dup4\n        /* \"contracts/InquireA.sol\":1947:1968  questions[questionId] */\n      dup2\n      mstore\n      0x20\n      add\n      swap1\n      dup2\n      mstore\n      0x20\n      add\n      0x00\n      keccak256\n        /* \"contracts/InquireA.sol\":1947:1974  questions[questionId].asker */\n      0x01\n      add\n      0x00\n      swap1\n      sload\n      swap1\n      0x0100\n      exp\n      swap1\n      div\n      0xffffffffffffffffffffffffffffffffffffffff\n      and\n        /* \"contracts/InquireA.sol\":1947:1988  questions[questionId].asker != address(0) */\n      0xffffffffffffffffffffffffffffffffffffffff\n      and\n      sub\n        /* \"contracts/InquireA.sol\":1939:2016  require(questions[questionId].asker != address(0), \"Question does not exist\") */\n      tag_312\n      jumpi\n      mload(0x40)\n      0x08c379a000000000000000000000000000000000000000000000000000000000\n      dup2\n      mstore\n      0x04\n      add\n      tag_313\n      swap1\n      tag_144\n      jump\t// in\n    tag_313:\n      mload(0x40)\n      dup1\n      swap2\n      sub\n      swap1\n      revert\n    tag_312:\n        /* \"contracts/InquireA.sol\":10697:10722  Question storage question */\n      0x00\n        /* \"contracts/InquireA.sol\":10725:10734  questions */\n      0x04\n        /* \"contracts/InquireA.sol\":10725:10746  questions[questionId] */\n      0x00\n        /* \"contracts/InquireA.sol\":10735:10745  questionId */\n      dup5\n        /* \"contracts/InquireA.sol\":10725:10746  questions[questionId] */\n      dup2\n      mstore\n      0x20\n      add\n      swap1\n      dup2\n      mstore\n      0x20\n      add\n      0x00\n      keccak256\n        /* \"contracts/InquireA.sol\":10697:10746  Question storage question = questions[questionId] */\n      swap1\n      pop\n        /* \"contracts/InquireA.sol\":10783:10791  question */\n      dup1\n        /* \"contracts/InquireA.sol\":10783:10800  question.deadline */\n      0x07\n      add\n      sload\n        /* \"contracts/InquireA.sol\":10765:10780  block.timestamp */\n      timestamp\n        /* \"contracts/InquireA.sol\":10765:10800  block.timestamp > question.deadline */\n      gt\n        /* \"contracts/InquireA.sol\":10757:10838  require(block.timestamp > question.deadline, \"Cannot distribute before deadline\") */\n      tag_315\n      jumpi\n      mload(0x40)\n      0x08c379a000000000000000000000000000000000000000000000000000000000\n      dup2\n      mstore\n      0x04\n      add\n      tag_316\n      swap1\n      tag_317\n      jump\t// in\n    tag_316:\n      mload(0x40)\n      dup1\n      swap2\n      sub\n      swap1\n      revert\n    tag_315:\n        /* \"contracts/InquireA.sol\":10858:10866  question */\n      dup1\n        /* \"contracts/InquireA.sol\":10858:10875  question.isClosed */\n      0x08\n      add\n      0x00\n      swap1\n      sload\n      swap1\n      0x0100\n      exp\n      swap1\n      div\n      0xff\n      and\n        /* \"contracts/InquireA.sol\":10857:10875  !question.isClosed */\n      iszero\n        /* \"contracts/InquireA.sol\":10849:10906  require(!question.isClosed, \"Question is already closed\") */\n      tag_318\n      jumpi\n      mload(0x40)\n      0x08c379a000000000000000000000000000000000000000000000000000000000\n      dup2\n      mstore\n      0x04\n      add\n      tag_319\n      swap1\n      tag_148\n      jump\t// in\n    tag_319:\n      mload(0x40)\n      dup1\n      swap2\n      sub\n      swap1\n      revert\n    tag_318:\n        /* \"contracts/InquireA.sol\":10919:10939  uint256 totalUpvotes */\n      0x00\n        /* \"contracts/InquireA.sol\":10954:10973  uint256 totalReward */\n      dup1\n        /* \"contracts/InquireA.sol\":10976:10984  question */\n      dup3\n        /* \"contracts/InquireA.sol\":10976:10997  question.rewardAmount */\n      0x05\n      add\n      sload\n        /* \"contracts/InquireA.sol\":10954:10997  uint256 totalReward = question.rewardAmount */\n      swap1\n      pop\n        /* \"contracts/InquireA.sol\":11047:11056  uint256 i */\n      0x00\n        /* \"contracts/InquireA.sol\":11042:11161  for (uint256 i = 0; i < answerIdCounter; i++) {... */\n    tag_320:\n        /* \"contracts/InquireA.sol\":11066:11081  answerIdCounter */\n      sload(0x03)\n        /* \"contracts/InquireA.sol\":11062:11063  i */\n      dup2\n        /* \"contracts/InquireA.sol\":11062:11081  i < answerIdCounter */\n      lt\n        /* \"contracts/InquireA.sol\":11042:11161  for (uint256 i = 0; i < answerIdCounter; i++) {... */\n      iszero\n      tag_321\n      jumpi\n        /* \"contracts/InquireA.sol\":11119:11126  answers */\n      0x05\n        /* \"contracts/InquireA.sol\":11119:11138  answers[questionId] */\n      0x00\n        /* \"contracts/InquireA.sol\":11127:11137  questionId */\n      dup8\n        /* \"contracts/InquireA.sol\":11119:11138  answers[questionId] */\n      dup2\n      mstore\n      0x20\n      add\n      swap1\n      dup2\n      mstore\n      0x20\n      add\n      0x00\n      keccak256\n        /* \"contracts/InquireA.sol\":11119:11141  answers[questionId][i] */\n      0x00\n        /* \"contracts/InquireA.sol\":11139:11140  i */\n      dup3\n        /* \"contracts/InquireA.sol\":11119:11141  answers[questionId][i] */\n      dup2\n      mstore\n      0x20\n      add\n      swap1\n      dup2\n      mstore\n      0x20\n      add\n      0x00\n      keccak256\n        /* \"contracts/InquireA.sol\":11119:11149  answers[questionId][i].upvotes */\n      0x03\n      add\n      sload\n        /* \"contracts/InquireA.sol\":11103:11149  totalUpvotes += answers[questionId][i].upvotes */\n      dup4\n      tag_323\n      swap2\n      swap1\n      tag_218\n      jump\t// in\n    tag_323:\n      swap3\n      pop\n        /* \"contracts/InquireA.sol\":11083:11086  i++ */\n      dup1\n      dup1\n      0x01\n      add\n      swap2\n      pop\n      pop\n        /* \"contracts/InquireA.sol\":11042:11161  for (uint256 i = 0; i < answerIdCounter; i++) {... */\n      jump(tag_320)\n    tag_321:\n      pop\n        /* \"contracts/InquireA.sol\":11212:11221  uint256 i */\n      0x00\n        /* \"contracts/InquireA.sol\":11207:11562  for (uint256 i = 0; i < answerIdCounter; i++) {... */\n    tag_324:\n        /* \"contracts/InquireA.sol\":11231:11246  answerIdCounter */\n      sload(0x03)\n        /* \"contracts/InquireA.sol\":11227:11228  i */\n      dup2\n        /* \"contracts/InquireA.sol\":11227:11246  i < answerIdCounter */\n      lt\n        /* \"contracts/InquireA.sol\":11207:11562  for (uint256 i = 0; i < answerIdCounter; i++) {... */\n      iszero\n      tag_325\n      jumpi\n        /* \"contracts/InquireA.sol\":11268:11289  Answer storage answer */\n      0x00\n        /* \"contracts/InquireA.sol\":11292:11299  answers */\n      0x05\n        /* \"contracts/InquireA.sol\":11292:11311  answers[questionId] */\n      0x00\n        /* \"contracts/InquireA.sol\":11300:11310  questionId */\n      dup9\n        /* \"contracts/InquireA.sol\":11292:11311  answers[questionId] */\n      dup2\n      mstore\n      0x20\n      add\n      swap1\n      dup2\n      mstore\n      0x20\n      add\n      0x00\n      keccak256\n        /* \"contracts/InquireA.sol\":11292:11314  answers[questionId][i] */\n      0x00\n        /* \"contracts/InquireA.sol\":11312:11313  i */\n      dup4\n        /* \"contracts/InquireA.sol\":11292:11314  answers[questionId][i] */\n      dup2\n      mstore\n      0x20\n      add\n      swap1\n      dup2\n      mstore\n      0x20\n      add\n      0x00\n      keccak256\n        /* \"contracts/InquireA.sol\":11268:11314  Answer storage answer = answers[questionId][i] */\n      swap1\n      pop\n        /* \"contracts/InquireA.sol\":11348:11349  0 */\n      0x00\n        /* \"contracts/InquireA.sol\":11333:11345  totalUpvotes */\n      dup5\n        /* \"contracts/InquireA.sol\":11333:11349  totalUpvotes > 0 */\n      gt\n        /* \"contracts/InquireA.sol\":11329:11551  if (totalUpvotes > 0) {... */\n      iszero\n      tag_327\n      jumpi\n        /* \"contracts/InquireA.sol\":11370:11384  uint256 reward */\n      0x00\n        /* \"contracts/InquireA.sol\":11420:11432  totalUpvotes */\n      dup5\n        /* \"contracts/InquireA.sol\":11405:11416  totalReward */\n      dup5\n        /* \"contracts/InquireA.sol\":11388:11394  answer */\n      dup4\n        /* \"contracts/InquireA.sol\":11388:11402  answer.upvotes */\n      0x03\n      add\n      sload\n        /* \"contracts/InquireA.sol\":11388:11416  answer.upvotes * totalReward */\n      tag_328\n      swap2\n      swap1\n      tag_329\n      jump\t// in\n    tag_328:\n        /* \"contracts/InquireA.sol\":11387:11432  (answer.upvotes * totalReward) / totalUpvotes */\n      tag_330\n      swap2\n      swap1\n      tag_331\n      jump\t// in\n    tag_330:\n        /* \"contracts/InquireA.sol\":11370:11432  uint256 reward = (answer.upvotes * totalReward) / totalUpvotes */\n      swap1\n      pop\n        /* \"contracts/InquireA.sol\":11474:11480  reward */\n      dup1\n        /* \"contracts/InquireA.sol\":11451:11457  answer */\n      dup3\n        /* \"contracts/InquireA.sol\":11451:11470  answer.rewardAmount */\n      0x04\n      add\n      0x00\n        /* \"contracts/InquireA.sol\":11451:11480  answer.rewardAmount += reward */\n      dup3\n      dup3\n      sload\n      tag_332\n      swap2\n      swap1\n      tag_218\n      jump\t// in\n    tag_332:\n      swap3\n      pop\n      pop\n      dup2\n      swap1\n      sstore\n      pop\n        /* \"contracts/InquireA.sol\":11529:11535  reward */\n      dup1\n        /* \"contracts/InquireA.sol\":11499:11507  balances */\n      0x06\n        /* \"contracts/InquireA.sol\":11499:11525  balances[answer.responder] */\n      0x00\n        /* \"contracts/InquireA.sol\":11508:11514  answer */\n      dup5\n        /* \"contracts/InquireA.sol\":11508:11524  answer.responder */\n      0x01\n      add\n      0x00\n      swap1\n      sload\n      swap1\n      0x0100\n      exp\n      swap1\n      div\n      0xffffffffffffffffffffffffffffffffffffffff\n      and\n        /* \"contracts/InquireA.sol\":11499:11525  balances[answer.responder] */\n      0xffffffffffffffffffffffffffffffffffffffff\n      and\n      0xffffffffffffffffffffffffffffffffffffffff\n      and\n      dup2\n      mstore\n      0x20\n      add\n      swap1\n      dup2\n      mstore\n      0x20\n      add\n      0x00\n      keccak256\n      0x00\n        /* \"contracts/InquireA.sol\":11499:11535  balances[answer.responder] += reward */\n      dup3\n      dup3\n      sload\n      tag_333\n      swap2\n      swap1\n      tag_218\n      jump\t// in\n    tag_333:\n      swap3\n      pop\n      pop\n      dup2\n      swap1\n      sstore\n      pop\n        /* \"contracts/InquireA.sol\":11351:11551  {... */\n      pop\n        /* \"contracts/InquireA.sol\":11329:11551  if (totalUpvotes > 0) {... */\n    tag_327:\n        /* \"contracts/InquireA.sol\":11253:11562  {... */\n      pop\n        /* \"contracts/InquireA.sol\":11248:11251  i++ */\n      dup1\n      dup1\n      0x01\n      add\n      swap2\n      pop\n      pop\n        /* \"contracts/InquireA.sol\":11207:11562  for (uint256 i = 0; i < answerIdCounter; i++) {... */\n      jump(tag_324)\n    tag_325:\n      pop\n        /* \"contracts/InquireA.sol\":11594:11598  true */\n      0x01\n        /* \"contracts/InquireA.sol\":11574:11582  question */\n      dup4\n        /* \"contracts/InquireA.sol\":11574:11591  question.isClosed */\n      0x08\n      add\n      0x00\n        /* \"contracts/InquireA.sol\":11574:11598  question.isClosed = true */\n      0x0100\n      exp\n      dup2\n      sload\n      dup2\n      0xff\n      mul\n      not\n      and\n      swap1\n      dup4\n      iszero\n      iszero\n      mul\n      or\n      swap1\n      sstore\n      pop\n        /* \"contracts/InquireA.sol\":10686:11606  {... */\n      pop\n      pop\n      pop\n        /* \"contracts/InquireA.sol\":10605:11606  function distributeRewards(uint256 questionId) public questionExists(questionId) {... */\n      pop\n      pop\n      jump\t// out\n        /* \"contracts/InquireA.sol\":154:186  uint256 public questionIdCounter */\n    tag_88:\n      sload(0x02)\n      dup2\n      jump\t// out\n        /* \"contracts/InquireA.sol\":85:105  address public owner */\n    tag_92:\n      0x00\n      dup1\n      sload\n      swap1\n      0x0100\n      exp\n      swap1\n      div\n      0xffffffffffffffffffffffffffffffffffffffff\n      and\n      dup2\n      jump\t// out\n        /* \"contracts/InquireA.sol\":5746:6803  function selectBestAnswer(uint256 questionId, uint256 answerId) public payable {... */\n    tag_97:\n        /* \"contracts/InquireA.sol\":5883:5884  0 */\n      0x00\n        /* \"contracts/InquireA.sol\":5844:5885  questions[questionId].asker != address(0) */\n      0xffffffffffffffffffffffffffffffffffffffff\n      and\n        /* \"contracts/InquireA.sol\":5844:5853  questions */\n      0x04\n        /* \"contracts/InquireA.sol\":5844:5865  questions[questionId] */\n      0x00\n        /* \"contracts/InquireA.sol\":5854:5864  questionId */\n      dup5\n        /* \"contracts/InquireA.sol\":5844:5865  questions[questionId] */\n      dup2\n      mstore\n      0x20\n      add\n      swap1\n      dup2\n      mstore\n      0x20\n      add\n      0x00\n      keccak256\n        /* \"contracts/InquireA.sol\":5844:5871  questions[questionId].asker */\n      0x01\n      add\n      0x00\n      swap1\n      sload\n      swap1\n      0x0100\n      exp\n      swap1\n      div\n      0xffffffffffffffffffffffffffffffffffffffff\n      and\n        /* \"contracts/InquireA.sol\":5844:5885  questions[questionId].asker != address(0) */\n      0xffffffffffffffffffffffffffffffffffffffff\n      and\n      sub\n        /* \"contracts/InquireA.sol\":5836:5913  require(questions[questionId].asker != address(0), \"Question does not exist\") */\n      tag_335\n      jumpi\n      mload(0x40)\n      0x08c379a000000000000000000000000000000000000000000000000000000000\n      dup2\n      mstore\n      0x04\n      add\n      tag_336\n      swap1\n      tag_144\n      jump\t// in\n    tag_336:\n      mload(0x40)\n      dup1\n      swap2\n      sub\n      swap1\n      revert\n    tag_335:\n        /* \"contracts/InquireA.sol\":5956:5965  questions */\n      0x04\n        /* \"contracts/InquireA.sol\":5956:5977  questions[questionId] */\n      0x00\n        /* \"contracts/InquireA.sol\":5966:5976  questionId */\n      dup4\n        /* \"contracts/InquireA.sol\":5956:5977  questions[questionId] */\n      dup2\n      mstore\n      0x20\n      add\n      swap1\n      dup2\n      mstore\n      0x20\n      add\n      0x00\n      keccak256\n        /* \"contracts/InquireA.sol\":5956:5983  questions[questionId].asker */\n      0x01\n      add\n      0x00\n      swap1\n      sload\n      swap1\n      0x0100\n      exp\n      swap1\n      div\n      0xffffffffffffffffffffffffffffffffffffffff\n      and\n        /* \"contracts/InquireA.sol\":5942:5983  msg.sender == questions[questionId].asker */\n      0xffffffffffffffffffffffffffffffffffffffff\n      and\n        /* \"contracts/InquireA.sol\":5942:5952  msg.sender */\n      caller\n        /* \"contracts/InquireA.sol\":5942:5983  msg.sender == questions[questionId].asker */\n      0xffffffffffffffffffffffffffffffffffffffff\n      and\n      eq\n        /* \"contracts/InquireA.sol\":5934:6034  require(msg.sender == questions[questionId].asker, \"Only question asker can select the best answer\") */\n      tag_337\n      jumpi\n      mload(0x40)\n      0x08c379a000000000000000000000000000000000000000000000000000000000\n      dup2\n      mstore\n      0x04\n      add\n      tag_338\n      swap1\n      tag_339\n      jump\t// in\n    tag_338:\n      mload(0x40)\n      dup1\n      swap2\n      sub\n      swap1\n      revert\n    tag_337:\n        /* \"contracts/InquireA.sol\":6114:6115  0 */\n      0x00\n        /* \"contracts/InquireA.sol\":6063:6116  answers[questionId][answerId].responder != address(0) */\n      0xffffffffffffffffffffffffffffffffffffffff\n      and\n        /* \"contracts/InquireA.sol\":6063:6070  answers */\n      0x05\n        /* \"contracts/InquireA.sol\":6063:6082  answers[questionId] */\n      0x00\n        /* \"contracts/InquireA.sol\":6071:6081  questionId */\n      dup5\n        /* \"contracts/InquireA.sol\":6063:6082  answers[questionId] */\n      dup2\n      mstore\n      0x20\n      add\n      swap1\n      dup2\n      mstore\n      0x20\n      add\n      0x00\n      keccak256\n        /* \"contracts/InquireA.sol\":6063:6092  answers[questionId][answerId] */\n      0x00\n        /* \"contracts/InquireA.sol\":6083:6091  answerId */\n      dup4\n        /* \"contracts/InquireA.sol\":6063:6092  answers[questionId][answerId] */\n      dup2\n      mstore\n      0x20\n      add\n      swap1\n      dup2\n      mstore\n      0x20\n      add\n      0x00\n      keccak256\n        /* \"contracts/InquireA.sol\":6063:6102  answers[questionId][answerId].responder */\n      0x01\n      add\n      0x00\n      swap1\n      sload\n      swap1\n      0x0100\n      exp\n      swap1\n      div\n      0xffffffffffffffffffffffffffffffffffffffff\n      and\n        /* \"contracts/InquireA.sol\":6063:6116  answers[questionId][answerId].responder != address(0) */\n      0xffffffffffffffffffffffffffffffffffffffff\n      and\n      sub\n        /* \"contracts/InquireA.sol\":6055:6142  require(answers[questionId][answerId].responder != address(0), \"Answer does not exist\") */\n      tag_340\n      jumpi\n      mload(0x40)\n      0x08c379a000000000000000000000000000000000000000000000000000000000\n      dup2\n      mstore\n      0x04\n      add\n      tag_341\n      swap1\n      tag_246\n      jump\t// in\n    tag_341:\n      mload(0x40)\n      dup1\n      swap2\n      sub\n      swap1\n      revert\n    tag_340:\n        /* \"contracts/InquireA.sol\":6172:6181  questions */\n      0x04\n        /* \"contracts/InquireA.sol\":6172:6193  questions[questionId] */\n      0x00\n        /* \"contracts/InquireA.sol\":6182:6192  questionId */\n      dup4\n        /* \"contracts/InquireA.sol\":6172:6193  questions[questionId] */\n      dup2\n      mstore\n      0x20\n      add\n      swap1\n      dup2\n      mstore\n      0x20\n      add\n      0x00\n      keccak256\n        /* \"contracts/InquireA.sol\":6172:6202  questions[questionId].isClosed */\n      0x08\n      add\n      0x00\n      swap1\n      sload\n      swap1\n      0x0100\n      exp\n      swap1\n      div\n      0xff\n      and\n        /* \"contracts/InquireA.sol\":6171:6202  !questions[questionId].isClosed */\n      iszero\n        /* \"contracts/InquireA.sol\":6163:6233  require(!questions[questionId].isClosed, \"Question is already closed\") */\n      tag_342\n      jumpi\n      mload(0x40)\n      0x08c379a000000000000000000000000000000000000000000000000000000000\n      dup2\n      mstore\n      0x04\n      add\n      tag_343\n      swap1\n      tag_148\n      jump\t// in\n    tag_343:\n      mload(0x40)\n      dup1\n      swap2\n      sub\n      swap1\n      revert\n    tag_342:\n        /* \"contracts/InquireA.sol\":6400:6404  true */\n      0x01\n        /* \"contracts/InquireA.sol\":6367:6376  questions */\n      0x04\n        /* \"contracts/InquireA.sol\":6367:6388  questions[questionId] */\n      0x00\n        /* \"contracts/InquireA.sol\":6377:6387  questionId */\n      dup5\n        /* \"contracts/InquireA.sol\":6367:6388  questions[questionId] */\n      dup2\n      mstore\n      0x20\n      add\n      swap1\n      dup2\n      mstore\n      0x20\n      add\n      0x00\n      keccak256\n        /* \"contracts/InquireA.sol\":6367:6397  questions[questionId].isClosed */\n      0x08\n      add\n      0x00\n        /* \"contracts/InquireA.sol\":6367:6404  questions[questionId].isClosed = true */\n      0x0100\n      exp\n      dup2\n      sload\n      dup2\n      0xff\n      mul\n      not\n      and\n      swap1\n      dup4\n      iszero\n      iszero\n      mul\n      or\n      swap1\n      sstore\n      pop\n        /* \"contracts/InquireA.sol\":6454:6462  answerId */\n      dup1\n        /* \"contracts/InquireA.sol\":6415:6424  questions */\n      0x04\n        /* \"contracts/InquireA.sol\":6415:6436  questions[questionId] */\n      0x00\n        /* \"contracts/InquireA.sol\":6425:6435  questionId */\n      dup5\n        /* \"contracts/InquireA.sol\":6415:6436  questions[questionId] */\n      dup2\n      mstore\n      0x20\n      add\n      swap1\n      dup2\n      mstore\n      0x20\n      add\n      0x00\n      keccak256\n        /* \"contracts/InquireA.sol\":6415:6451  questions[questionId].chosenAnswerId */\n      0x09\n      add\n        /* \"contracts/InquireA.sol\":6415:6462  questions[questionId].chosenAnswerId = answerId */\n      dup2\n      swap1\n      sstore\n      pop\n        /* \"contracts/InquireA.sol\":6475:6496  address bestResponder */\n      0x00\n        /* \"contracts/InquireA.sol\":6499:6506  answers */\n      0x05\n        /* \"contracts/InquireA.sol\":6499:6518  answers[questionId] */\n      0x00\n        /* \"contracts/InquireA.sol\":6507:6517  questionId */\n      dup5\n        /* \"contracts/InquireA.sol\":6499:6518  answers[questionId] */\n      dup2\n      mstore\n      0x20\n      add\n      swap1\n      dup2\n      mstore\n      0x20\n      add\n      0x00\n      keccak256\n        /* \"contracts/InquireA.sol\":6499:6528  answers[questionId][answerId] */\n      0x00\n        /* \"contracts/InquireA.sol\":6519:6527  answerId */\n      dup4\n        /* \"contracts/InquireA.sol\":6499:6528  answers[questionId][answerId] */\n      dup2\n      mstore\n      0x20\n      add\n      swap1\n      dup2\n      mstore\n      0x20\n      add\n      0x00\n      keccak256\n        /* \"contracts/InquireA.sol\":6499:6538  answers[questionId][answerId].responder */\n      0x01\n      add\n      0x00\n      swap1\n      sload\n      swap1\n      0x0100\n      exp\n      swap1\n      div\n      0xffffffffffffffffffffffffffffffffffffffff\n      and\n        /* \"contracts/InquireA.sol\":6475:6538  address bestResponder = answers[questionId][answerId].responder */\n      swap1\n      pop\n        /* \"contracts/InquireA.sol\":6559:6578  uint256 totalReward */\n      0x00\n        /* \"contracts/InquireA.sol\":6581:6590  questions */\n      0x04\n        /* \"contracts/InquireA.sol\":6581:6602  questions[questionId] */\n      0x00\n        /* \"contracts/InquireA.sol\":6591:6601  questionId */\n      dup6\n        /* \"contracts/InquireA.sol\":6581:6602  questions[questionId] */\n      dup2\n      mstore\n      0x20\n      add\n      swap1\n      dup2\n      mstore\n      0x20\n      add\n      0x00\n      keccak256\n        /* \"contracts/InquireA.sol\":6581:6615  questions[questionId].rewardAmount */\n      0x05\n      add\n      sload\n        /* \"contracts/InquireA.sol\":6559:6615  uint256 totalReward = questions[questionId].rewardAmount */\n      swap1\n      pop\n        /* \"contracts/InquireA.sol\":6673:6684  totalReward */\n      dup1\n        /* \"contracts/InquireA.sol\":6628:6635  answers */\n      0x05\n        /* \"contracts/InquireA.sol\":6628:6647  answers[questionId] */\n      0x00\n        /* \"contracts/InquireA.sol\":6636:6646  questionId */\n      dup7\n        /* \"contracts/InquireA.sol\":6628:6647  answers[questionId] */\n      dup2\n      mstore\n      0x20\n      add\n      swap1\n      dup2\n      mstore\n      0x20\n      add\n      0x00\n      keccak256\n        /* \"contracts/InquireA.sol\":6628:6657  answers[questionId][answerId] */\n      0x00\n        /* \"contracts/InquireA.sol\":6648:6656  answerId */\n      dup6\n        /* \"contracts/InquireA.sol\":6628:6657  answers[questionId][answerId] */\n      dup2\n      mstore\n      0x20\n      add\n      swap1\n      dup2\n      mstore\n      0x20\n      add\n      0x00\n      keccak256\n        /* \"contracts/InquireA.sol\":6628:6670  answers[questionId][answerId].rewardAmount */\n      0x04\n      add\n        /* \"contracts/InquireA.sol\":6628:6684  answers[questionId][answerId].rewardAmount = totalReward */\n      dup2\n      swap1\n      sstore\n      pop\n        /* \"contracts/InquireA.sol\":6705:6718  bestResponder */\n      dup2\n        /* \"contracts/InquireA.sol\":6697:6728  payable(bestResponder).transfer */\n      0xffffffffffffffffffffffffffffffffffffffff\n      and\n        /* \"contracts/InquireA.sol\":6697:6741  payable(bestResponder).transfer(totalReward) */\n      0x08fc\n        /* \"contracts/InquireA.sol\":6729:6740  totalReward */\n      dup3\n        /* \"contracts/InquireA.sol\":6697:6741  payable(bestResponder).transfer(totalReward) */\n      swap1\n      dup2\n      iszero\n      mul\n      swap1\n      mload(0x40)\n      0x00\n      mload(0x40)\n      dup1\n      dup4\n      sub\n      dup2\n      dup6\n      dup9\n      dup9\n      call\n      swap4\n      pop\n      pop\n      pop\n      pop\n      iszero\n      dup1\n      iszero\n      tag_345\n      jumpi\n      returndatasize\n      0x00\n      dup1\n      returndatacopy\n      revert(0x00, returndatasize)\n    tag_345:\n      pop\n        /* \"contracts/InquireA.sol\":6759:6795  QuestionClosed(questionId, answerId) */\n      0x99fe2c8abd13b610e7f7d4a51a49e1391ba19454b72305176b884d66010e475a\n        /* \"contracts/InquireA.sol\":6774:6784  questionId */\n      dup5\n        /* \"contracts/InquireA.sol\":6786:6794  answerId */\n      dup5\n        /* \"contracts/InquireA.sol\":6759:6795  QuestionClosed(questionId, answerId) */\n      mload(0x40)\n      tag_346\n      swap3\n      swap2\n      swap1\n      tag_154\n      jump\t// in\n    tag_346:\n      mload(0x40)\n      dup1\n      swap2\n      sub\n      swap1\n      log1\n        /* \"contracts/InquireA.sol\":5825:6803  {... */\n      pop\n      pop\n        /* \"contracts/InquireA.sol\":5746:6803  function selectBestAnswer(uint256 questionId, uint256 answerId) public payable {... */\n      pop\n      pop\n      jump\t// out\n        /* \"contracts/InquireA.sol\":274:317  uint256 public constant TWO_WEEKS = 14 days */\n    tag_100:\n        /* \"contracts/InquireA.sol\":310:317  14 days */\n      0x127500\n        /* \"contracts/InquireA.sol\":274:317  uint256 public constant TWO_WEEKS = 14 days */\n      dup2\n      jump\t// out\n        /* \"contracts/InquireA.sol\":11843:11939  function balance() public view returns (uint256) {... */\n    tag_104:\n        /* \"contracts/InquireA.sol\":11883:11890  uint256 */\n      0x00\n        /* \"contracts/InquireA.sol\":11910:11931  address(this).balance */\n      selfbalance\n        /* \"contracts/InquireA.sol\":11903:11931  return address(this).balance */\n      swap1\n      pop\n        /* \"contracts/InquireA.sol\":11843:11939  function balance() public view returns (uint256) {... */\n      swap1\n      jump\t// out\n        /* \"contracts/InquireA.sol\":193:223  uint256 public answerIdCounter */\n    tag_108:\n      sload(0x03)\n      dup2\n      jump\t// out\n        /* \"contracts/InquireA.sol\":324:363  uint256 public constant MONTH = 30 days */\n    tag_112:\n        /* \"contracts/InquireA.sol\":356:363  30 days */\n      0x278d00\n        /* \"contracts/InquireA.sol\":324:363  uint256 public constant MONTH = 30 days */\n      dup2\n      jump\t// out\n        /* \"contracts/InquireA.sol\":112:147  uint256 public voteFee = 0.01 ether */\n    tag_116:\n      sload(0x01)\n      dup2\n      jump\t// out\n        /* \"contracts/InquireA.sol\":6811:7029  function getQuestionById(uint256 questionId) public view returns (Question memory) {... */\n    tag_121:\n        /* \"contracts/InquireA.sol\":6877:6892  Question memory */\n      tag_348\n      tag_349\n      jump\t// in\n    tag_348:\n        /* \"contracts/InquireA.sol\":6952:6953  0 */\n      0x00\n        /* \"contracts/InquireA.sol\":6913:6954  questions[questionId].asker != address(0) */\n      0xffffffffffffffffffffffffffffffffffffffff\n      and\n        /* \"contracts/InquireA.sol\":6913:6922  questions */\n      0x04\n        /* \"contracts/InquireA.sol\":6913:6934  questions[questionId] */\n      0x00\n        /* \"contracts/InquireA.sol\":6923:6933  questionId */\n      dup5\n        /* \"contracts/InquireA.sol\":6913:6934  questions[questionId] */\n      dup2\n      mstore\n      0x20\n      add\n      swap1\n      dup2\n      mstore\n      0x20\n      add\n      0x00\n      keccak256\n        /* \"contracts/InquireA.sol\":6913:6940  questions[questionId].asker */\n      0x01\n      add\n      0x00\n      swap1\n      sload\n      swap1\n      0x0100\n      exp\n      swap1\n      div\n      0xffffffffffffffffffffffffffffffffffffffff\n      and\n        /* \"contracts/InquireA.sol\":6913:6954  questions[questionId].asker != address(0) */\n      0xffffffffffffffffffffffffffffffffffffffff\n      and\n      sub\n        /* \"contracts/InquireA.sol\":6905:6982  require(questions[questionId].asker != address(0), \"Question does not exist\") */\n      tag_351\n      jumpi\n      mload(0x40)\n      0x08c379a000000000000000000000000000000000000000000000000000000000\n      dup2\n      mstore\n      0x04\n      add\n      tag_352\n      swap1\n      tag_144\n      jump\t// in\n    tag_352:\n      mload(0x40)\n      dup1\n      swap2\n      sub\n      swap1\n      revert\n    tag_351:\n        /* \"contracts/InquireA.sol\":7000:7009  questions */\n      0x04\n        /* \"contracts/InquireA.sol\":7000:7021  questions[questionId] */\n      0x00\n        /* \"contracts/InquireA.sol\":7010:7020  questionId */\n      dup4\n        /* \"contracts/InquireA.sol\":7000:7021  questions[questionId] */\n      dup2\n      mstore\n      0x20\n      add\n      swap1\n      dup2\n      mstore\n      0x20\n      add\n      0x00\n      keccak256\n        /* \"contracts/InquireA.sol\":6993:7021  return questions[questionId] */\n      mload(0x40)\n      dup1\n      0x0140\n      add\n      0x40\n      mstore\n      swap1\n      dup2\n      0x00\n      dup3\n      add\n      sload\n      dup2\n      mstore\n      0x20\n      add\n      0x01\n      dup3\n      add\n      0x00\n      swap1\n      sload\n      swap1\n      0x0100\n      exp\n      swap1\n      div\n      0xffffffffffffffffffffffffffffffffffffffff\n      and\n      0xffffffffffffffffffffffffffffffffffffffff\n      and\n      0xffffffffffffffffffffffffffffffffffffffff\n      and\n      dup2\n      mstore\n      0x20\n      add\n      0x02\n      dup3\n      add\n      dup1\n      sload\n      tag_353\n      swap1\n      tag_163\n      jump\t// in\n    tag_353:\n      dup1\n      0x1f\n      add\n      0x20\n      dup1\n      swap2\n      div\n      mul\n      0x20\n      add\n      mload(0x40)\n      swap1\n      dup2\n      add\n      0x40\n      mstore\n      dup1\n      swap3\n      swap2\n      swap1\n      dup2\n      dup2\n      mstore\n      0x20\n      add\n      dup3\n      dup1\n      sload\n      tag_354\n      swap1\n      tag_163\n      jump\t// in\n    tag_354:\n      dup1\n      iszero\n      tag_355\n      jumpi\n      dup1\n      0x1f\n      lt\n      tag_356\n      jumpi\n      0x0100\n      dup1\n      dup4\n      sload\n      div\n      mul\n      dup4\n      mstore\n      swap2\n      0x20\n      add\n      swap2\n      jump(tag_355)\n    tag_356:\n      dup3\n      add\n      swap2\n      swap1\n      0x00\n      mstore\n      keccak256(0x00, 0x20)\n      swap1\n    tag_357:\n      dup2\n      sload\n      dup2\n      mstore\n      swap1\n      0x01\n      add\n      swap1\n      0x20\n      add\n      dup1\n      dup4\n      gt\n      tag_357\n      jumpi\n      dup3\n      swap1\n      sub\n      0x1f\n      and\n      dup3\n      add\n      swap2\n    tag_355:\n      pop\n      pop\n      pop\n      pop\n      pop\n      dup2\n      mstore\n      0x20\n      add\n      0x03\n      dup3\n      add\n      dup1\n      sload\n      tag_358\n      swap1\n      tag_163\n      jump\t// in\n    tag_358:\n      dup1\n      0x1f\n      add\n      0x20\n      dup1\n      swap2\n      div\n      mul\n      0x20\n      add\n      mload(0x40)\n      swap1\n      dup2\n      add\n      0x40\n      mstore\n      dup1\n      swap3\n      swap2\n      swap1\n      dup2\n      dup2\n      mstore\n      0x20\n      add\n      dup3\n      dup1\n      sload\n      tag_359\n      swap1\n      tag_163\n      jump\t// in\n    tag_359:\n      dup1\n      iszero\n      tag_360\n      jumpi\n      dup1\n      0x1f\n      lt\n      tag_361\n      jumpi\n      0x0100\n      dup1\n      dup4\n      sload\n      div\n      mul\n      dup4\n      mstore\n      swap2\n      0x20\n      add\n      swap2\n      jump(tag_360)\n    tag_361:\n      dup3\n      add\n      swap2\n      swap1\n      0x00\n      mstore\n      keccak256(0x00, 0x20)\n      swap1\n    tag_362:\n      dup2\n      sload\n      dup2\n      mstore\n      swap1\n      0x01\n      add\n      swap1\n      0x20\n      add\n      dup1\n      dup4\n      gt\n      tag_362\n      jumpi\n      dup3\n      swap1\n      sub\n      0x1f\n      and\n      dup3\n      add\n      swap2\n    tag_360:\n      pop\n      pop\n      pop\n      pop\n      pop\n      dup2\n      mstore\n      0x20\n      add\n      0x04\n      dup3\n      add\n      dup1\n      sload\n      tag_363\n      swap1\n      tag_163\n      jump\t// in\n    tag_363:\n      dup1\n      0x1f\n      add\n      0x20\n      dup1\n      swap2\n      div\n      mul\n      0x20\n      add\n      mload(0x40)\n      swap1\n      dup2\n      add\n      0x40\n      mstore\n      dup1\n      swap3\n      swap2\n      swap1\n      dup2\n      dup2\n      mstore\n      0x20\n      add\n      dup3\n      dup1\n      sload\n      tag_364\n      swap1\n      tag_163\n      jump\t// in\n    tag_364:\n      dup1\n      iszero\n      tag_365\n      jumpi\n      dup1\n      0x1f\n      lt\n      tag_366\n      jumpi\n      0x0100\n      dup1\n      dup4\n      sload\n      div\n      mul\n      dup4\n      mstore\n      swap2\n      0x20\n      add\n      swap2\n      jump(tag_365)\n    tag_366:\n      dup3\n      add\n      swap2\n      swap1\n      0x00\n      mstore\n      keccak256(0x00, 0x20)\n      swap1\n    tag_367:\n      dup2\n      sload\n      dup2\n      mstore\n      swap1\n      0x01\n      add\n      swap1\n      0x20\n      add\n      dup1\n      dup4\n      gt\n      tag_367\n      jumpi\n      dup3\n      swap1\n      sub\n      0x1f\n      and\n      dup3\n      add\n      swap2\n    tag_365:\n      pop\n      pop\n      pop\n      pop\n      pop\n      dup2\n      mstore\n      0x20\n      add\n      0x05\n      dup3\n      add\n      sload\n      dup2\n      mstore\n      0x20\n      add\n      0x06\n      dup3\n      add\n      sload\n      dup2\n      mstore\n      0x20\n      add\n      0x07\n      dup3\n      add\n      sload\n      dup2\n      mstore\n      0x20\n      add\n      0x08\n      dup3\n      add\n      0x00\n      swap1\n      sload\n      swap1\n      0x0100\n      exp\n      swap1\n      div\n      0xff\n      and\n      iszero\n      iszero\n      iszero\n      iszero\n      dup2\n      mstore\n      0x20\n      add\n      0x09\n      dup3\n      add\n      sload\n      dup2\n      mstore\n      pop\n      pop\n      swap1\n      pop\n        /* \"contracts/InquireA.sol\":6811:7029  function getQuestionById(uint256 questionId) public view returns (Question memory) {... */\n      swap2\n      swap1\n      pop\n      jump\t// out\n        /* \"contracts/InquireA.sol\":7037:9425  function getAnswersByQuestionId(... */\n    tag_128:\n        /* \"contracts/InquireA.sol\":7193:7220  Answer[] memory answersList */\n      0x60\n        /* \"contracts/InquireA.sol\":7232:7252  uint256 totalAnswers */\n      0x00\n        /* \"contracts/InquireA.sol\":7264:7282  uint256 totalPages */\n      dup1\n        /* \"contracts/InquireA.sol\":7394:7395  0 */\n      0x00\n        /* \"contracts/InquireA.sol\":7355:7396  questions[questionId].asker != address(0) */\n      0xffffffffffffffffffffffffffffffffffffffff\n      and\n        /* \"contracts/InquireA.sol\":7355:7364  questions */\n      0x04\n        /* \"contracts/InquireA.sol\":7355:7376  questions[questionId] */\n      0x00\n        /* \"contracts/InquireA.sol\":7365:7375  questionId */\n      dup9\n        /* \"contracts/InquireA.sol\":7355:7376  questions[questionId] */\n      dup2\n      mstore\n      0x20\n      add\n      swap1\n      dup2\n      mstore\n      0x20\n      add\n      0x00\n      keccak256\n        /* \"contracts/InquireA.sol\":7355:7382  questions[questionId].asker */\n      0x01\n      add\n      0x00\n      swap1\n      sload\n      swap1\n      0x0100\n      exp\n      swap1\n      div\n      0xffffffffffffffffffffffffffffffffffffffff\n      and\n        /* \"contracts/InquireA.sol\":7355:7396  questions[questionId].asker != address(0) */\n      0xffffffffffffffffffffffffffffffffffffffff\n      and\n      sub\n        /* \"contracts/InquireA.sol\":7347:7424  require(questions[questionId].asker != address(0), \"Question does not exist\") */\n      tag_369\n      jumpi\n      mload(0x40)\n      0x08c379a000000000000000000000000000000000000000000000000000000000\n      dup2\n      mstore\n      0x04\n      add\n      tag_370\n      swap1\n      tag_144\n      jump\t// in\n    tag_370:\n      mload(0x40)\n      dup1\n      swap2\n      sub\n      swap1\n      revert\n    tag_369:\n        /* \"contracts/InquireA.sol\":7523:7524  0 */\n      0x00\n        /* \"contracts/InquireA.sol\":7511:7520  pageIndex */\n      dup6\n        /* \"contracts/InquireA.sol\":7511:7524  pageIndex > 0 */\n      gt\n        /* \"contracts/InquireA.sol\":7503:7557  require(pageIndex > 0, \"Page index must start from 1\") */\n      tag_371\n      jumpi\n      mload(0x40)\n      0x08c379a000000000000000000000000000000000000000000000000000000000\n      dup2\n      mstore\n      0x04\n      add\n      tag_372\n      swap1\n      tag_373\n      jump\t// in\n    tag_372:\n      mload(0x40)\n      dup1\n      swap2\n      sub\n      swap1\n      revert\n    tag_371:\n        /* \"contracts/InquireA.sol\":7587:7588  0 */\n      0x00\n        /* \"contracts/InquireA.sol\":7576:7584  pageSize */\n      dup5\n        /* \"contracts/InquireA.sol\":7576:7588  pageSize > 0 */\n      gt\n        /* \"contracts/InquireA.sol\":7568:7625  require(pageSize > 0, \"Page size must be greater than 0\") */\n      tag_374\n      jumpi\n      mload(0x40)\n      0x08c379a000000000000000000000000000000000000000000000000000000000\n      dup2\n      mstore\n      0x04\n      add\n      tag_375\n      swap1\n      tag_376\n      jump\t// in\n    tag_375:\n      mload(0x40)\n      dup1\n      swap2\n      sub\n      swap1\n      revert\n    tag_374:\n        /* \"contracts/InquireA.sol\":7706:7726  uint256 answersCount */\n      0x00\n        /* \"contracts/InquireA.sol\":7746:7755  uint256 i */\n      dup1\n        /* \"contracts/InquireA.sol\":7758:7759  1 */\n      0x01\n        /* \"contracts/InquireA.sol\":7746:7759  uint256 i = 1 */\n      swap1\n      pop\n        /* \"contracts/InquireA.sol\":7741:7914  for (uint256 i = 1; i < answerIdCounter; i++) {... */\n    tag_377:\n        /* \"contracts/InquireA.sol\":7765:7780  answerIdCounter */\n      sload(0x03)\n        /* \"contracts/InquireA.sol\":7761:7762  i */\n      dup2\n        /* \"contracts/InquireA.sol\":7761:7780  i < answerIdCounter */\n      lt\n        /* \"contracts/InquireA.sol\":7741:7914  for (uint256 i = 1; i < answerIdCounter; i++) {... */\n      iszero\n      tag_378\n      jumpi\n        /* \"contracts/InquireA.sol\":7850:7851  0 */\n      0x00\n        /* \"contracts/InquireA.sol\":7806:7852  answers[questionId][i].responder != address(0) */\n      0xffffffffffffffffffffffffffffffffffffffff\n      and\n        /* \"contracts/InquireA.sol\":7806:7813  answers */\n      0x05\n        /* \"contracts/InquireA.sol\":7806:7825  answers[questionId] */\n      0x00\n        /* \"contracts/InquireA.sol\":7814:7824  questionId */\n      dup11\n        /* \"contracts/InquireA.sol\":7806:7825  answers[questionId] */\n      dup2\n      mstore\n      0x20\n      add\n      swap1\n      dup2\n      mstore\n      0x20\n      add\n      0x00\n      keccak256\n        /* \"contracts/InquireA.sol\":7806:7828  answers[questionId][i] */\n      0x00\n        /* \"contracts/InquireA.sol\":7826:7827  i */\n      dup4\n        /* \"contracts/InquireA.sol\":7806:7828  answers[questionId][i] */\n      dup2\n      mstore\n      0x20\n      add\n      swap1\n      dup2\n      mstore\n      0x20\n      add\n      0x00\n      keccak256\n        /* \"contracts/InquireA.sol\":7806:7838  answers[questionId][i].responder */\n      0x01\n      add\n      0x00\n      swap1\n      sload\n      swap1\n      0x0100\n      exp\n      swap1\n      div\n      0xffffffffffffffffffffffffffffffffffffffff\n      and\n        /* \"contracts/InquireA.sol\":7806:7852  answers[questionId][i].responder != address(0) */\n      0xffffffffffffffffffffffffffffffffffffffff\n      and\n      eq\n        /* \"contracts/InquireA.sol\":7802:7903  if (answers[questionId][i].responder != address(0)) {... */\n      tag_380\n      jumpi\n        /* \"contracts/InquireA.sol\":7873:7887  answersCount++ */\n      dup2\n      dup1\n      tag_381\n      swap1\n      tag_182\n      jump\t// in\n    tag_381:\n      swap3\n      pop\n      pop\n        /* \"contracts/InquireA.sol\":7802:7903  if (answers[questionId][i].responder != address(0)) {... */\n    tag_380:\n        /* \"contracts/InquireA.sol\":7782:7785  i++ */\n      dup1\n      dup1\n      0x01\n      add\n      swap2\n      pop\n      pop\n        /* \"contracts/InquireA.sol\":7741:7914  for (uint256 i = 1; i < answerIdCounter; i++) {... */\n      jump(tag_377)\n    tag_378:\n      pop\n        /* \"contracts/InquireA.sol\":7941:7953  answersCount */\n      dup1\n        /* \"contracts/InquireA.sol\":7926:7953  totalAnswers = answersCount */\n      swap3\n      pop\n        /* \"contracts/InquireA.sol\":8042:8043  0 */\n      0x00\n        /* \"contracts/InquireA.sol\":8026:8038  totalAnswers */\n      dup4\n        /* \"contracts/InquireA.sol\":8026:8043  totalAnswers == 0 */\n      sub\n        /* \"contracts/InquireA.sol\":8022:8102  if (totalAnswers == 0) {... */\n      tag_382\n      jumpi\n        /* \"contracts/InquireA.sol\":8081:8082  0 */\n      0x00\n        /* \"contracts/InquireA.sol\":8068:8083  new Answer[](0) */\n      0xffffffffffffffff\n      dup2\n      gt\n      iszero\n      tag_383\n      jumpi\n      tag_384\n      tag_255\n      jump\t// in\n    tag_384:\n    tag_383:\n      mload(0x40)\n      swap1\n      dup1\n      dup3\n      mstore\n      dup1\n      0x20\n      mul\n      0x20\n      add\n      dup3\n      add\n      0x40\n      mstore\n      dup1\n      iszero\n      tag_385\n      jumpi\n      dup2\n      0x20\n      add\n    tag_386:\n      tag_387\n      tag_242\n      jump\t// in\n    tag_387:\n      dup2\n      mstore\n      0x20\n      add\n      swap1\n      0x01\n      swap1\n      sub\n      swap1\n      dup2\n      tag_386\n      jumpi\n      swap1\n      pop\n    tag_385:\n      pop\n        /* \"contracts/InquireA.sol\":8085:8086  0 */\n      0x00\n        /* \"contracts/InquireA.sol\":8088:8089  0 */\n      dup1\n        /* \"contracts/InquireA.sol\":8060:8090  return (new Answer[](0), 0, 0) */\n      swap4\n      pop\n      swap4\n      pop\n      swap4\n      pop\n      pop\n      jump(tag_368)\n        /* \"contracts/InquireA.sol\":8022:8102  if (totalAnswers == 0) {... */\n    tag_382:\n        /* \"contracts/InquireA.sol\":8195:8203  pageSize */\n      dup5\n        /* \"contracts/InquireA.sol\":8190:8191  1 */\n      0x01\n        /* \"contracts/InquireA.sol\":8179:8187  pageSize */\n      dup7\n        /* \"contracts/InquireA.sol\":8164:8176  totalAnswers */\n      dup6\n        /* \"contracts/InquireA.sol\":8164:8187  totalAnswers + pageSize */\n      tag_388\n      swap2\n      swap1\n      tag_218\n      jump\t// in\n    tag_388:\n        /* \"contracts/InquireA.sol\":8164:8191  totalAnswers + pageSize - 1 */\n      tag_389\n      swap2\n      swap1\n      tag_390\n      jump\t// in\n    tag_389:\n        /* \"contracts/InquireA.sol\":8163:8203  (totalAnswers + pageSize - 1) / pageSize */\n      tag_391\n      swap2\n      swap1\n      tag_331\n      jump\t// in\n    tag_391:\n        /* \"contracts/InquireA.sol\":8150:8203  totalPages = (totalAnswers + pageSize - 1) / pageSize */\n      swap2\n      pop\n        /* \"contracts/InquireA.sol\":8301:8311  totalPages */\n      dup2\n        /* \"contracts/InquireA.sol\":8288:8297  pageIndex */\n      dup7\n        /* \"contracts/InquireA.sol\":8288:8311  pageIndex <= totalPages */\n      gt\n      iszero\n        /* \"contracts/InquireA.sol\":8280:8334  require(pageIndex <= totalPages, \"Invalid page index\") */\n      tag_392\n      jumpi\n      mload(0x40)\n      0x08c379a000000000000000000000000000000000000000000000000000000000\n      dup2\n      mstore\n      0x04\n      add\n      tag_393\n      swap1\n      tag_394\n      jump\t// in\n    tag_393:\n      mload(0x40)\n      dup1\n      swap2\n      sub\n      swap1\n      revert\n    tag_392:\n        /* \"contracts/InquireA.sol\":8421:8439  uint256 startIndex */\n      0x00\n        /* \"contracts/InquireA.sol\":8471:8472  1 */\n      0x01\n        /* \"contracts/InquireA.sol\":8460:8468  pageSize */\n      dup7\n        /* \"contracts/InquireA.sol\":8455:8456  1 */\n      0x01\n        /* \"contracts/InquireA.sol\":8443:8452  pageIndex */\n      dup10\n        /* \"contracts/InquireA.sol\":8443:8456  pageIndex - 1 */\n      tag_395\n      swap2\n      swap1\n      tag_390\n      jump\t// in\n    tag_395:\n        /* \"contracts/InquireA.sol\":8442:8468  (pageIndex - 1) * pageSize */\n      tag_396\n      swap2\n      swap1\n      tag_329\n      jump\t// in\n    tag_396:\n        /* \"contracts/InquireA.sol\":8442:8472  (pageIndex - 1) * pageSize + 1 */\n      tag_397\n      swap2\n      swap1\n      tag_218\n      jump\t// in\n    tag_397:\n        /* \"contracts/InquireA.sol\":8421:8472  uint256 startIndex = (pageIndex - 1) * pageSize + 1 */\n      swap1\n      pop\n        /* \"contracts/InquireA.sol\":8483:8499  uint256 endIndex */\n      0x00\n        /* \"contracts/InquireA.sol\":8526:8527  1 */\n      0x01\n        /* \"contracts/InquireA.sol\":8515:8523  pageSize */\n      dup8\n        /* \"contracts/InquireA.sol\":8502:8512  startIndex */\n      dup4\n        /* \"contracts/InquireA.sol\":8502:8523  startIndex + pageSize */\n      tag_398\n      swap2\n      swap1\n      tag_218\n      jump\t// in\n    tag_398:\n        /* \"contracts/InquireA.sol\":8502:8527  startIndex + pageSize - 1 */\n      tag_399\n      swap2\n      swap1\n      tag_390\n      jump\t// in\n    tag_399:\n        /* \"contracts/InquireA.sol\":8483:8527  uint256 endIndex = startIndex + pageSize - 1 */\n      swap1\n      pop\n        /* \"contracts/InquireA.sol\":8660:8661  1 */\n      0x01\n        /* \"contracts/InquireA.sol\":8642:8657  answerIdCounter */\n      sload(0x03)\n        /* \"contracts/InquireA.sol\":8642:8661  answerIdCounter - 1 */\n      tag_400\n      swap2\n      swap1\n      tag_390\n      jump\t// in\n    tag_400:\n        /* \"contracts/InquireA.sol\":8631:8639  endIndex */\n      dup2\n        /* \"contracts/InquireA.sol\":8631:8661  endIndex > answerIdCounter - 1 */\n      gt\n        /* \"contracts/InquireA.sol\":8627:8720  if (endIndex > answerIdCounter - 1) {... */\n      iszero\n      tag_401\n      jumpi\n        /* \"contracts/InquireA.sol\":8707:8708  1 */\n      0x01\n        /* \"contracts/InquireA.sol\":8689:8704  answerIdCounter */\n      sload(0x03)\n        /* \"contracts/InquireA.sol\":8689:8708  answerIdCounter - 1 */\n      tag_402\n      swap2\n      swap1\n      tag_390\n      jump\t// in\n    tag_402:\n        /* \"contracts/InquireA.sol\":8678:8708  endIndex = answerIdCounter - 1 */\n      swap1\n      pop\n        /* \"contracts/InquireA.sol\":8627:8720  if (endIndex > answerIdCounter - 1) {... */\n    tag_401:\n        /* \"contracts/InquireA.sol\":8774:8792  uint256 resultSize */\n      0x00\n        /* \"contracts/InquireA.sol\":8812:8821  uint256 i */\n      dup1\n        /* \"contracts/InquireA.sol\":8824:8834  startIndex */\n      dup4\n        /* \"contracts/InquireA.sol\":8812:8834  uint256 i = startIndex */\n      swap1\n      pop\n        /* \"contracts/InquireA.sol\":8807:8981  for (uint256 i = startIndex; i <= endIndex; i++) {... */\n    tag_403:\n        /* \"contracts/InquireA.sol\":8841:8849  endIndex */\n      dup3\n        /* \"contracts/InquireA.sol\":8836:8837  i */\n      dup2\n        /* \"contracts/InquireA.sol\":8836:8849  i <= endIndex */\n      gt\n        /* \"contracts/InquireA.sol\":8807:8981  for (uint256 i = startIndex; i <= endIndex; i++) {... */\n      tag_404\n      jumpi\n        /* \"contracts/InquireA.sol\":8919:8920  0 */\n      0x00\n        /* \"contracts/InquireA.sol\":8875:8921  answers[questionId][i].responder != address(0) */\n      0xffffffffffffffffffffffffffffffffffffffff\n      and\n        /* \"contracts/InquireA.sol\":8875:8882  answers */\n      0x05\n        /* \"contracts/InquireA.sol\":8875:8894  answers[questionId] */\n      0x00\n        /* \"contracts/InquireA.sol\":8883:8893  questionId */\n      dup14\n        /* \"contracts/InquireA.sol\":8875:8894  answers[questionId] */\n      dup2\n      mstore\n      0x20\n      add\n      swap1\n      dup2\n      mstore\n      0x20\n      add\n      0x00\n      keccak256\n        /* \"contracts/InquireA.sol\":8875:8897  answers[questionId][i] */\n      0x00\n        /* \"contracts/InquireA.sol\":8895:8896  i */\n      dup4\n        /* \"contracts/InquireA.sol\":8875:8897  answers[questionId][i] */\n      dup2\n      mstore\n      0x20\n      add\n      swap1\n      dup2\n      mstore\n      0x20\n      add\n      0x00\n      keccak256\n        /* \"contracts/InquireA.sol\":8875:8907  answers[questionId][i].responder */\n      0x01\n      add\n      0x00\n      swap1\n      sload\n      swap1\n      0x0100\n      exp\n      swap1\n      div\n      0xffffffffffffffffffffffffffffffffffffffff\n      and\n        /* \"contracts/InquireA.sol\":8875:8921  answers[questionId][i].responder != address(0) */\n      0xffffffffffffffffffffffffffffffffffffffff\n      and\n      eq\n        /* \"contracts/InquireA.sol\":8871:8970  if (answers[questionId][i].responder != address(0)) {... */\n      tag_406\n      jumpi\n        /* \"contracts/InquireA.sol\":8942:8954  resultSize++ */\n      dup2\n      dup1\n      tag_407\n      swap1\n      tag_182\n      jump\t// in\n    tag_407:\n      swap3\n      pop\n      pop\n        /* \"contracts/InquireA.sol\":8871:8970  if (answers[questionId][i].responder != address(0)) {... */\n    tag_406:\n        /* \"contracts/InquireA.sol\":8851:8854  i++ */\n      dup1\n      dup1\n      tag_408\n      swap1\n      tag_182\n      jump\t// in\n    tag_408:\n      swap2\n      pop\n      pop\n        /* \"contracts/InquireA.sol\":8807:8981  for (uint256 i = startIndex; i <= endIndex; i++) {... */\n      jump(tag_403)\n    tag_404:\n      pop\n        /* \"contracts/InquireA.sol\":9020:9030  resultSize */\n      dup1\n        /* \"contracts/InquireA.sol\":9007:9031  new Answer[](resultSize) */\n      0xffffffffffffffff\n      dup2\n      gt\n      iszero\n      tag_409\n      jumpi\n      tag_410\n      tag_255\n      jump\t// in\n    tag_410:\n    tag_409:\n      mload(0x40)\n      swap1\n      dup1\n      dup3\n      mstore\n      dup1\n      0x20\n      mul\n      0x20\n      add\n      dup3\n      add\n      0x40\n      mstore\n      dup1\n      iszero\n      tag_411\n      jumpi\n      dup2\n      0x20\n      add\n    tag_412:\n      tag_413\n      tag_242\n      jump\t// in\n    tag_413:\n      dup2\n      mstore\n      0x20\n      add\n      swap1\n      0x01\n      swap1\n      sub\n      swap1\n      dup2\n      tag_412\n      jumpi\n      swap1\n      pop\n    tag_411:\n      pop\n        /* \"contracts/InquireA.sol\":8993:9031  answersList = new Answer[](resultSize) */\n      swap7\n      pop\n        /* \"contracts/InquireA.sol\":9042:9055  uint256 index */\n      0x00\n        /* \"contracts/InquireA.sol\":9133:9142  uint256 i */\n      dup1\n        /* \"contracts/InquireA.sol\":9145:9155  startIndex */\n      dup5\n        /* \"contracts/InquireA.sol\":9133:9155  uint256 i = startIndex */\n      swap1\n      pop\n        /* \"contracts/InquireA.sol\":9128:9359  for (uint256 i = startIndex; i <= endIndex; i++) {... */\n    tag_414:\n        /* \"contracts/InquireA.sol\":9162:9170  endIndex */\n      dup4\n        /* \"contracts/InquireA.sol\":9157:9158  i */\n      dup2\n        /* \"contracts/InquireA.sol\":9157:9170  i <= endIndex */\n      gt\n        /* \"contracts/InquireA.sol\":9128:9359  for (uint256 i = startIndex; i <= endIndex; i++) {... */\n      tag_415\n      jumpi\n        /* \"contracts/InquireA.sol\":9240:9241  0 */\n      0x00\n        /* \"contracts/InquireA.sol\":9196:9242  answers[questionId][i].responder != address(0) */\n      0xffffffffffffffffffffffffffffffffffffffff\n      and\n        /* \"contracts/InquireA.sol\":9196:9203  answers */\n      0x05\n        /* \"contracts/InquireA.sol\":9196:9215  answers[questionId] */\n      0x00\n        /* \"contracts/InquireA.sol\":9204:9214  questionId */\n      dup15\n        /* \"contracts/InquireA.sol\":9196:9215  answers[questionId] */\n      dup2\n      mstore\n      0x20\n      add\n      swap1\n      dup2\n      mstore\n      0x20\n      add\n      0x00\n      keccak256\n        /* \"contracts/InquireA.sol\":9196:9218  answers[questionId][i] */\n      0x00\n        /* \"contracts/InquireA.sol\":9216:9217  i */\n      dup4\n        /* \"contracts/InquireA.sol\":9196:9218  answers[questionId][i] */\n      dup2\n      mstore\n      0x20\n      add\n      swap1\n      dup2\n      mstore\n      0x20\n      add\n      0x00\n      keccak256\n        /* \"contracts/InquireA.sol\":9196:9228  answers[questionId][i].responder */\n      0x01\n      add\n      0x00\n      swap1\n      sload\n      swap1\n      0x0100\n      exp\n      swap1\n      div\n      0xffffffffffffffffffffffffffffffffffffffff\n      and\n        /* \"contracts/InquireA.sol\":9196:9242  answers[questionId][i].responder != address(0) */\n      0xffffffffffffffffffffffffffffffffffffffff\n      and\n      eq\n        /* \"contracts/InquireA.sol\":9192:9348  if (answers[questionId][i].responder != address(0)) {... */\n      tag_417\n      jumpi\n        /* \"contracts/InquireA.sol\":9284:9291  answers */\n      0x05\n        /* \"contracts/InquireA.sol\":9284:9303  answers[questionId] */\n      0x00\n        /* \"contracts/InquireA.sol\":9292:9302  questionId */\n      dup14\n        /* \"contracts/InquireA.sol\":9284:9303  answers[questionId] */\n      dup2\n      mstore\n      0x20\n      add\n      swap1\n      dup2\n      mstore\n      0x20\n      add\n      0x00\n      keccak256\n        /* \"contracts/InquireA.sol\":9284:9306  answers[questionId][i] */\n      0x00\n        /* \"contracts/InquireA.sol\":9304:9305  i */\n      dup3\n        /* \"contracts/InquireA.sol\":9284:9306  answers[questionId][i] */\n      dup2\n      mstore\n      0x20\n      add\n      swap1\n      dup2\n      mstore\n      0x20\n      add\n      0x00\n      keccak256\n        /* \"contracts/InquireA.sol\":9263:9306  answersList[index] = answers[questionId][i] */\n      mload(0x40)\n      dup1\n      0xc0\n      add\n      0x40\n      mstore\n      swap1\n      dup2\n      0x00\n      dup3\n      add\n      sload\n      dup2\n      mstore\n      0x20\n      add\n      0x01\n      dup3\n      add\n      0x00\n      swap1\n      sload\n      swap1\n      0x0100\n      exp\n      swap1\n      div\n      0xffffffffffffffffffffffffffffffffffffffff\n      and\n      0xffffffffffffffffffffffffffffffffffffffff\n      and\n      0xffffffffffffffffffffffffffffffffffffffff\n      and\n      dup2\n      mstore\n      0x20\n      add\n      0x02\n      dup3\n      add\n      dup1\n      sload\n      tag_418\n      swap1\n      tag_163\n      jump\t// in\n    tag_418:\n      dup1\n      0x1f\n      add\n      0x20\n      dup1\n      swap2\n      div\n      mul\n      0x20\n      add\n      mload(0x40)\n      swap1\n      dup2\n      add\n      0x40\n      mstore\n      dup1\n      swap3\n      swap2\n      swap1\n      dup2\n      dup2\n      mstore\n      0x20\n      add\n      dup3\n      dup1\n      sload\n      tag_419\n      swap1\n      tag_163\n      jump\t// in\n    tag_419:\n      dup1\n      iszero\n      tag_420\n      jumpi\n      dup1\n      0x1f\n      lt\n      tag_421\n      jumpi\n      0x0100\n      dup1\n      dup4\n      sload\n      div\n      mul\n      dup4\n      mstore\n      swap2\n      0x20\n      add\n      swap2\n      jump(tag_420)\n    tag_421:\n      dup3\n      add\n      swap2\n      swap1\n      0x00\n      mstore\n      keccak256(0x00, 0x20)\n      swap1\n    tag_422:\n      dup2\n      sload\n      dup2\n      mstore\n      swap1\n      0x01\n      add\n      swap1\n      0x20\n      add\n      dup1\n      dup4\n      gt\n      tag_422\n      jumpi\n      dup3\n      swap1\n      sub\n      0x1f\n      and\n      dup3\n      add\n      swap2\n    tag_420:\n      pop\n      pop\n      pop\n      pop\n      pop\n      dup2\n      mstore\n      0x20\n      add\n      0x03\n      dup3\n      add\n      sload\n      dup2\n      mstore\n      0x20\n      add\n      0x04\n      dup3\n      add\n      sload\n      dup2\n      mstore\n      0x20\n      add\n      0x05\n      dup3\n      add\n      sload\n      dup2\n      mstore\n      pop\n      pop\n        /* \"contracts/InquireA.sol\":9263:9274  answersList */\n      dup10\n        /* \"contracts/InquireA.sol\":9275:9280  index */\n      dup4\n        /* \"contracts/InquireA.sol\":9263:9281  answersList[index] */\n      dup2\n      mload\n      dup2\n      lt\n      tag_423\n      jumpi\n      tag_424\n      tag_265\n      jump\t// in\n    tag_424:\n    tag_423:\n      0x20\n      mul\n      0x20\n      add\n      add\n        /* \"contracts/InquireA.sol\":9263:9306  answersList[index] = answers[questionId][i] */\n      dup2\n      swap1\n      mstore\n      pop\n        /* \"contracts/InquireA.sol\":9325:9332  index++ */\n      dup2\n      dup1\n      tag_425\n      swap1\n      tag_182\n      jump\t// in\n    tag_425:\n      swap3\n      pop\n      pop\n        /* \"contracts/InquireA.sol\":9192:9348  if (answers[questionId][i].responder != address(0)) {... */\n    tag_417:\n        /* \"contracts/InquireA.sol\":9172:9175  i++ */\n      dup1\n      dup1\n      tag_426\n      swap1\n      tag_182\n      jump\t// in\n    tag_426:\n      swap2\n      pop\n      pop\n        /* \"contracts/InquireA.sol\":9128:9359  for (uint256 i = startIndex; i <= endIndex; i++) {... */\n      jump(tag_414)\n    tag_415:\n      pop\n        /* \"contracts/InquireA.sol\":9371:9417  return (answersList, totalAnswers, totalPages) */\n      pop\n      pop\n      pop\n      pop\n      pop\n        /* \"contracts/InquireA.sol\":7037:9425  function getAnswersByQuestionId(... */\n    tag_368:\n      swap4\n      pop\n      swap4\n      pop\n      swap4\n      swap1\n      pop\n      jump\t// out\n        /* \"contracts/InquireA.sol\":230:267  uint256 public constant WEEK = 7 days */\n    tag_133:\n        /* \"contracts/InquireA.sol\":261:267  7 days */\n      0x093a80\n        /* \"contracts/InquireA.sol\":230:267  uint256 public constant WEEK = 7 days */\n      dup2\n      jump\t// out\n        /* \"contracts/InquireA.sol\":4382:5738  function getQuestions(uint256 pageIndex, uint256 pageSize) ... */\n    tag_138:\n        /* \"contracts/InquireA.sol\":4506:4537  Question[] memory questionsList */\n      0x60\n        /* \"contracts/InquireA.sol\":4553:4575  uint256 totalQuestions */\n      0x00\n        /* \"contracts/InquireA.sol\":4591:4609  uint256 totalPages */\n      dup1\n        /* \"contracts/InquireA.sol\":4658:4659  0 */\n      0x00\n        /* \"contracts/InquireA.sol\":4646:4655  pageIndex */\n      dup6\n        /* \"contracts/InquireA.sol\":4646:4659  pageIndex > 0 */\n      gt\n        /* \"contracts/InquireA.sol\":4638:4692  require(pageIndex > 0, \"Page index must start from 1\") */\n      tag_428\n      jumpi\n      mload(0x40)\n      0x08c379a000000000000000000000000000000000000000000000000000000000\n      dup2\n      mstore\n      0x04\n      add\n      tag_429\n      swap1\n      tag_373\n      jump\t// in\n    tag_429:\n      mload(0x40)\n      dup1\n      swap2\n      sub\n      swap1\n      revert\n    tag_428:\n        /* \"contracts/InquireA.sol\":4722:4723  0 */\n      0x00\n        /* \"contracts/InquireA.sol\":4711:4719  pageSize */\n      dup5\n        /* \"contracts/InquireA.sol\":4711:4723  pageSize > 0 */\n      gt\n        /* \"contracts/InquireA.sol\":4703:4760  require(pageSize > 0, \"Page size must be greater than 0\") */\n      tag_430\n      jumpi\n      mload(0x40)\n      0x08c379a000000000000000000000000000000000000000000000000000000000\n      dup2\n      mstore\n      0x04\n      add\n      tag_431\n      swap1\n      tag_376\n      jump\t// in\n    tag_431:\n      mload(0x40)\n      dup1\n      swap2\n      sub\n      swap1\n      revert\n    tag_430:\n        /* \"contracts/InquireA.sol\":4810:4811  1 */\n      0x01\n        /* \"contracts/InquireA.sol\":4790:4807  questionIdCounter */\n      sload(0x02)\n        /* \"contracts/InquireA.sol\":4790:4811  questionIdCounter - 1 */\n      tag_432\n      swap2\n      swap1\n      tag_390\n      jump\t// in\n    tag_432:\n        /* \"contracts/InquireA.sol\":4773:4811  totalQuestions = questionIdCounter - 1 */\n      swap2\n      pop\n        /* \"contracts/InquireA.sol\":4901:4902  0 */\n      0x00\n        /* \"contracts/InquireA.sol\":4883:4897  totalQuestions */\n      dup3\n        /* \"contracts/InquireA.sol\":4883:4902  totalQuestions == 0 */\n      sub\n        /* \"contracts/InquireA.sol\":4879:4963  if (totalQuestions == 0) {... */\n      tag_433\n      jumpi\n        /* \"contracts/InquireA.sol\":4942:4943  0 */\n      0x00\n        /* \"contracts/InquireA.sol\":4927:4944  new Question[](0) */\n      0xffffffffffffffff\n      dup2\n      gt\n      iszero\n      tag_434\n      jumpi\n      tag_435\n      tag_255\n      jump\t// in\n    tag_435:\n    tag_434:\n      mload(0x40)\n      swap1\n      dup1\n      dup3\n      mstore\n      dup1\n      0x20\n      mul\n      0x20\n      add\n      dup3\n      add\n      0x40\n      mstore\n      dup1\n      iszero\n      tag_436\n      jumpi\n      dup2\n      0x20\n      add\n    tag_437:\n      tag_438\n      tag_349\n      jump\t// in\n    tag_438:\n      dup2\n      mstore\n      0x20\n      add\n      swap1\n      0x01\n      swap1\n      sub\n      swap1\n      dup2\n      tag_437\n      jumpi\n      swap1\n      pop\n    tag_436:\n      pop\n        /* \"contracts/InquireA.sol\":4946:4947  0 */\n      0x00\n        /* \"contracts/InquireA.sol\":4949:4950  0 */\n      dup1\n        /* \"contracts/InquireA.sol\":4919:4951  return (new Question[](0), 0, 0) */\n      swap3\n      pop\n      swap3\n      pop\n      swap3\n      pop\n      jump(tag_427)\n        /* \"contracts/InquireA.sol\":4879:4963  if (totalQuestions == 0) {... */\n    tag_433:\n        /* \"contracts/InquireA.sol\":5022:5030  pageSize */\n      dup4\n        /* \"contracts/InquireA.sol\":5017:5018  1 */\n      0x01\n        /* \"contracts/InquireA.sol\":5006:5014  pageSize */\n      dup6\n        /* \"contracts/InquireA.sol\":4989:5003  totalQuestions */\n      dup5\n        /* \"contracts/InquireA.sol\":4989:5014  totalQuestions + pageSize */\n      tag_439\n      swap2\n      swap1\n      tag_218\n      jump\t// in\n    tag_439:\n        /* \"contracts/InquireA.sol\":4989:5018  totalQuestions + pageSize - 1 */\n      tag_440\n      swap2\n      swap1\n      tag_390\n      jump\t// in\n    tag_440:\n        /* \"contracts/InquireA.sol\":4988:5030  (totalQuestions + pageSize - 1) / pageSize */\n      tag_441\n      swap2\n      swap1\n      tag_331\n      jump\t// in\n    tag_441:\n        /* \"contracts/InquireA.sol\":4975:5030  totalPages = (totalQuestions + pageSize - 1) / pageSize */\n      swap1\n      pop\n        /* \"contracts/InquireA.sol\":5121:5131  totalPages */\n      dup1\n        /* \"contracts/InquireA.sol\":5108:5117  pageIndex */\n      dup6\n        /* \"contracts/InquireA.sol\":5108:5131  pageIndex <= totalPages */\n      gt\n      iszero\n        /* \"contracts/InquireA.sol\":5100:5154  require(pageIndex <= totalPages, \"Invalid page index\") */\n      tag_442\n      jumpi\n      mload(0x40)\n      0x08c379a000000000000000000000000000000000000000000000000000000000\n      dup2\n      mstore\n      0x04\n      add\n      tag_443\n      swap1\n      tag_394\n      jump\t// in\n    tag_443:\n      mload(0x40)\n      dup1\n      swap2\n      sub\n      swap1\n      revert\n    tag_442:\n        /* \"contracts/InquireA.sol\":5167:5185  uint256 startIndex */\n      0x00\n        /* \"contracts/InquireA.sol\":5217:5218  1 */\n      0x01\n        /* \"contracts/InquireA.sol\":5206:5214  pageSize */\n      dup6\n        /* \"contracts/InquireA.sol\":5201:5202  1 */\n      0x01\n        /* \"contracts/InquireA.sol\":5189:5198  pageIndex */\n      dup9\n        /* \"contracts/InquireA.sol\":5189:5202  pageIndex - 1 */\n      tag_444\n      swap2\n      swap1\n      tag_390\n      jump\t// in\n    tag_444:\n        /* \"contracts/InquireA.sol\":5188:5214  (pageIndex - 1) * pageSize */\n      tag_445\n      swap2\n      swap1\n      tag_329\n      jump\t// in\n    tag_445:\n        /* \"contracts/InquireA.sol\":5188:5218  (pageIndex - 1) * pageSize + 1 */\n      tag_446\n      swap2\n      swap1\n      tag_218\n      jump\t// in\n    tag_446:\n        /* \"contracts/InquireA.sol\":5167:5218  uint256 startIndex = (pageIndex - 1) * pageSize + 1 */\n      swap1\n      pop\n        /* \"contracts/InquireA.sol\":5229:5245  uint256 endIndex */\n      0x00\n        /* \"contracts/InquireA.sol\":5272:5273  1 */\n      0x01\n        /* \"contracts/InquireA.sol\":5261:5269  pageSize */\n      dup7\n        /* \"contracts/InquireA.sol\":5248:5258  startIndex */\n      dup4\n        /* \"contracts/InquireA.sol\":5248:5269  startIndex + pageSize */\n      tag_447\n      swap2\n      swap1\n      tag_218\n      jump\t// in\n    tag_447:\n        /* \"contracts/InquireA.sol\":5248:5273  startIndex + pageSize - 1 */\n      tag_448\n      swap2\n      swap1\n      tag_390\n      jump\t// in\n    tag_448:\n        /* \"contracts/InquireA.sol\":5229:5273  uint256 endIndex = startIndex + pageSize - 1 */\n      swap1\n      pop\n        /* \"contracts/InquireA.sol\":5321:5322  1 */\n      0x01\n        /* \"contracts/InquireA.sol\":5301:5318  questionIdCounter */\n      sload(0x02)\n        /* \"contracts/InquireA.sol\":5301:5322  questionIdCounter - 1 */\n      tag_449\n      swap2\n      swap1\n      tag_390\n      jump\t// in\n    tag_449:\n        /* \"contracts/InquireA.sol\":5290:5298  endIndex */\n      dup2\n        /* \"contracts/InquireA.sol\":5290:5322  endIndex > questionIdCounter - 1 */\n      gt\n        /* \"contracts/InquireA.sol\":5286:5383  if (endIndex > questionIdCounter - 1) {... */\n      iszero\n      tag_450\n      jumpi\n        /* \"contracts/InquireA.sol\":5370:5371  1 */\n      0x01\n        /* \"contracts/InquireA.sol\":5350:5367  questionIdCounter */\n      sload(0x02)\n        /* \"contracts/InquireA.sol\":5350:5371  questionIdCounter - 1 */\n      tag_451\n      swap2\n      swap1\n      tag_390\n      jump\t// in\n    tag_451:\n        /* \"contracts/InquireA.sol\":5339:5371  endIndex = questionIdCounter - 1 */\n      swap1\n      pop\n        /* \"contracts/InquireA.sol\":5286:5383  if (endIndex > questionIdCounter - 1) {... */\n    tag_450:\n        /* \"contracts/InquireA.sol\":5395:5413  uint256 resultSize */\n      0x00\n        /* \"contracts/InquireA.sol\":5440:5441  1 */\n      0x01\n        /* \"contracts/InquireA.sol\":5427:5437  startIndex */\n      dup4\n        /* \"contracts/InquireA.sol\":5416:5424  endIndex */\n      dup4\n        /* \"contracts/InquireA.sol\":5416:5437  endIndex - startIndex */\n      tag_452\n      swap2\n      swap1\n      tag_390\n      jump\t// in\n    tag_452:\n        /* \"contracts/InquireA.sol\":5416:5441  endIndex - startIndex + 1 */\n      tag_453\n      swap2\n      swap1\n      tag_218\n      jump\t// in\n    tag_453:\n        /* \"contracts/InquireA.sol\":5395:5441  uint256 resultSize = endIndex - startIndex + 1 */\n      swap1\n      pop\n        /* \"contracts/InquireA.sol\":5483:5493  resultSize */\n      dup1\n        /* \"contracts/InquireA.sol\":5468:5494  new Question[](resultSize) */\n      0xffffffffffffffff\n      dup2\n      gt\n      iszero\n      tag_454\n      jumpi\n      tag_455\n      tag_255\n      jump\t// in\n    tag_455:\n    tag_454:\n      mload(0x40)\n      swap1\n      dup1\n      dup3\n      mstore\n      dup1\n      0x20\n      mul\n      0x20\n      add\n      dup3\n      add\n      0x40\n      mstore\n      dup1\n      iszero\n      tag_456\n      jumpi\n      dup2\n      0x20\n      add\n    tag_457:\n      tag_458\n      tag_349\n      jump\t// in\n    tag_458:\n      dup2\n      mstore\n      0x20\n      add\n      swap1\n      0x01\n      swap1\n      sub\n      swap1\n      dup2\n      tag_457\n      jumpi\n      swap1\n      pop\n    tag_456:\n      pop\n        /* \"contracts/InquireA.sol\":5452:5494  questionsList = new Question[](resultSize) */\n      swap6\n      pop\n        /* \"contracts/InquireA.sol\":5507:5520  uint256 index */\n      0x00\n        /* \"contracts/InquireA.sol\":5540:5549  uint256 i */\n      dup1\n        /* \"contracts/InquireA.sol\":5552:5562  startIndex */\n      dup5\n        /* \"contracts/InquireA.sol\":5540:5562  uint256 i = startIndex */\n      swap1\n      pop\n        /* \"contracts/InquireA.sol\":5535:5668  for (uint256 i = startIndex; i <= endIndex; i++) {... */\n    tag_459:\n        /* \"contracts/InquireA.sol\":5569:5577  endIndex */\n      dup4\n        /* \"contracts/InquireA.sol\":5564:5565  i */\n      dup2\n        /* \"contracts/InquireA.sol\":5564:5577  i <= endIndex */\n      gt\n        /* \"contracts/InquireA.sol\":5535:5668  for (uint256 i = startIndex; i <= endIndex; i++) {... */\n      tag_460\n      jumpi\n        /* \"contracts/InquireA.sol\":5622:5631  questions */\n      0x04\n        /* \"contracts/InquireA.sol\":5622:5634  questions[i] */\n      0x00\n        /* \"contracts/InquireA.sol\":5632:5633  i */\n      dup3\n        /* \"contracts/InquireA.sol\":5622:5634  questions[i] */\n      dup2\n      mstore\n      0x20\n      add\n      swap1\n      dup2\n      mstore\n      0x20\n      add\n      0x00\n      keccak256\n        /* \"contracts/InquireA.sol\":5599:5634  questionsList[index] = questions[i] */\n      mload(0x40)\n      dup1\n      0x0140\n      add\n      0x40\n      mstore\n      swap1\n      dup2\n      0x00\n      dup3\n      add\n      sload\n      dup2\n      mstore\n      0x20\n      add\n      0x01\n      dup3\n      add\n      0x00\n      swap1\n      sload\n      swap1\n      0x0100\n      exp\n      swap1\n      div\n      0xffffffffffffffffffffffffffffffffffffffff\n      and\n      0xffffffffffffffffffffffffffffffffffffffff\n      and\n      0xffffffffffffffffffffffffffffffffffffffff\n      and\n      dup2\n      mstore\n      0x20\n      add\n      0x02\n      dup3\n      add\n      dup1\n      sload\n      tag_462\n      swap1\n      tag_163\n      jump\t// in\n    tag_462:\n      dup1\n      0x1f\n      add\n      0x20\n      dup1\n      swap2\n      div\n      mul\n      0x20\n      add\n      mload(0x40)\n      swap1\n      dup2\n      add\n      0x40\n      mstore\n      dup1\n      swap3\n      swap2\n      swap1\n      dup2\n      dup2\n      mstore\n      0x20\n      add\n      dup3\n      dup1\n      sload\n      tag_463\n      swap1\n      tag_163\n      jump\t// in\n    tag_463:\n      dup1\n      iszero\n      tag_464\n      jumpi\n      dup1\n      0x1f\n      lt\n      tag_465\n      jumpi\n      0x0100\n      dup1\n      dup4\n      sload\n      div\n      mul\n      dup4\n      mstore\n      swap2\n      0x20\n      add\n      swap2\n      jump(tag_464)\n    tag_465:\n      dup3\n      add\n      swap2\n      swap1\n      0x00\n      mstore\n      keccak256(0x00, 0x20)\n      swap1\n    tag_466:\n      dup2\n      sload\n      dup2\n      mstore\n      swap1\n      0x01\n      add\n      swap1\n      0x20\n      add\n      dup1\n      dup4\n      gt\n      tag_466\n      jumpi\n      dup3\n      swap1\n      sub\n      0x1f\n      and\n      dup3\n      add\n      swap2\n    tag_464:\n      pop\n      pop\n      pop\n      pop\n      pop\n      dup2\n      mstore\n      0x20\n      add\n      0x03\n      dup3\n      add\n      dup1\n      sload\n      tag_467\n      swap1\n      tag_163\n      jump\t// in\n    tag_467:\n      dup1\n      0x1f\n      add\n      0x20\n      dup1\n      swap2\n      div\n      mul\n      0x20\n      add\n      mload(0x40)\n      swap1\n      dup2\n      add\n      0x40\n      mstore\n      dup1\n      swap3\n      swap2\n      swap1\n      dup2\n      dup2\n      mstore\n      0x20\n      add\n      dup3\n      dup1\n      sload\n      tag_468\n      swap1\n      tag_163\n      jump\t// in\n    tag_468:\n      dup1\n      iszero\n      tag_469\n      jumpi\n      dup1\n      0x1f\n      lt\n      tag_470\n      jumpi\n      0x0100\n      dup1\n      dup4\n      sload\n      div\n      mul\n      dup4\n      mstore\n      swap2\n      0x20\n      add\n      swap2\n      jump(tag_469)\n    tag_470:\n      dup3\n      add\n      swap2\n      swap1\n      0x00\n      mstore\n      keccak256(0x00, 0x20)\n      swap1\n    tag_471:\n      dup2\n      sload\n      dup2\n      mstore\n      swap1\n      0x01\n      add\n      swap1\n      0x20\n      add\n      dup1\n      dup4\n      gt\n      tag_471\n      jumpi\n      dup3\n      swap1\n      sub\n      0x1f\n      and\n      dup3\n      add\n      swap2\n    tag_469:\n      pop\n      pop\n      pop\n      pop\n      pop\n      dup2\n      mstore\n      0x20\n      add\n      0x04\n      dup3\n      add\n      dup1\n      sload\n      tag_472\n      swap1\n      tag_163\n      jump\t// in\n    tag_472:\n      dup1\n      0x1f\n      add\n      0x20\n      dup1\n      swap2\n      div\n      mul\n      0x20\n      add\n      mload(0x40)\n      swap1\n      dup2\n      add\n      0x40\n      mstore\n      dup1\n      swap3\n      swap2\n      swap1\n      dup2\n      dup2\n      mstore\n      0x20\n      add\n      dup3\n      dup1\n      sload\n      tag_473\n      swap1\n      tag_163\n      jump\t// in\n    tag_473:\n      dup1\n      iszero\n      tag_474\n      jumpi\n      dup1\n      0x1f\n      lt\n      tag_475\n      jumpi\n      0x0100\n      dup1\n      dup4\n      sload\n      div\n      mul\n      dup4\n      mstore\n      swap2\n      0x20\n      add\n      swap2\n      jump(tag_474)\n    tag_475:\n      dup3\n      add\n      swap2\n      swap1\n      0x00\n      mstore\n      keccak256(0x00, 0x20)\n      swap1\n    tag_476:\n      dup2\n      sload\n      dup2\n      mstore\n      swap1\n      0x01\n      add\n      swap1\n      0x20\n      add\n      dup1\n      dup4\n      gt\n      tag_476\n      jumpi\n      dup3\n      swap1\n      sub\n      0x1f\n      and\n      dup3\n      add\n      swap2\n    tag_474:\n      pop\n      pop\n      pop\n      pop\n      pop\n      dup2\n      mstore\n      0x20\n      add\n      0x05\n      dup3\n      add\n      sload\n      dup2\n      mstore\n      0x20\n      add\n      0x06\n      dup3\n      add\n      sload\n      dup2\n      mstore\n      0x20\n      add\n      0x07\n      dup3\n      add\n      sload\n      dup2\n      mstore\n      0x20\n      add\n      0x08\n      dup3\n      add\n      0x00\n      swap1\n      sload\n      swap1\n      0x0100\n      exp\n      swap1\n      div\n      0xff\n      and\n      iszero\n      iszero\n      iszero\n      iszero\n      dup2\n      mstore\n      0x20\n      add\n      0x09\n      dup3\n      add\n      sload\n      dup2\n      mstore\n      pop\n      pop\n        /* \"contracts/InquireA.sol\":5599:5612  questionsList */\n      dup9\n        /* \"contracts/InquireA.sol\":5613:5618  index */\n      dup4\n        /* \"contracts/InquireA.sol\":5599:5619  questionsList[index] */\n      dup2\n      mload\n      dup2\n      lt\n      tag_477\n      jumpi\n      tag_478\n      tag_265\n      jump\t// in\n    tag_478:\n    tag_477:\n      0x20\n      mul\n      0x20\n      add\n      add\n        /* \"contracts/InquireA.sol\":5599:5634  questionsList[index] = questions[i] */\n      dup2\n      swap1\n      mstore\n      pop\n        /* \"contracts/InquireA.sol\":5649:5656  index++ */\n      dup2\n      dup1\n      tag_479\n      swap1\n      tag_182\n      jump\t// in\n    tag_479:\n      swap3\n      pop\n      pop\n        /* \"contracts/InquireA.sol\":5579:5582  i++ */\n      dup1\n      dup1\n      tag_480\n      swap1\n      tag_182\n      jump\t// in\n    tag_480:\n      swap2\n      pop\n      pop\n        /* \"contracts/InquireA.sol\":5535:5668  for (uint256 i = startIndex; i <= endIndex; i++) {... */\n      jump(tag_459)\n    tag_460:\n      pop\n        /* \"contracts/InquireA.sol\":5680:5730  return (questionsList, totalQuestions, totalPages) */\n      pop\n      pop\n      pop\n      pop\n        /* \"contracts/InquireA.sol\":4382:5738  function getQuestions(uint256 pageIndex, uint256 pageSize) ... */\n    tag_427:\n      swap3\n      pop\n      swap3\n      pop\n      swap3\n      jump\t// out\n    tag_242:\n      mload(0x40)\n      dup1\n      0xc0\n      add\n      0x40\n      mstore\n      dup1\n      0x00\n      dup2\n      mstore\n      0x20\n      add\n      and(0xffffffffffffffffffffffffffffffffffffffff, 0x00)\n      dup2\n      mstore\n      0x20\n      add\n      0x60\n      dup2\n      mstore\n      0x20\n      add\n      0x00\n      dup2\n      mstore\n      0x20\n      add\n      0x00\n      dup2\n      mstore\n      0x20\n      add\n      0x00\n      dup2\n      mstore\n      pop\n      swap1\n      jump\t// out\n    tag_349:\n      mload(0x40)\n      dup1\n      0x0140\n      add\n      0x40\n      mstore\n      dup1\n      0x00\n      dup2\n      mstore\n      0x20\n      add\n      and(0xffffffffffffffffffffffffffffffffffffffff, 0x00)\n      dup2\n      mstore\n      0x20\n      add\n      0x60\n      dup2\n      mstore\n      0x20\n      add\n      0x60\n      dup2\n      mstore\n      0x20\n      add\n      0x60\n      dup2\n      mstore\n      0x20\n      add\n      0x00\n      dup2\n      mstore\n      0x20\n      add\n      0x00\n      dup2\n      mstore\n      0x20\n      add\n      0x00\n      dup2\n      mstore\n      0x20\n      add\n      iszero(iszero(0x00))\n      dup2\n      mstore\n      0x20\n      add\n      0x00\n      dup2\n      mstore\n      pop\n      swap1\n      jump\t// out\n        /* \"#utility.yul\":7:82   */\n    tag_481:\n        /* \"#utility.yul\":40:46   */\n      0x00\n        /* \"#utility.yul\":73:75   */\n      0x40\n        /* \"#utility.yul\":67:76   */\n      mload\n        /* \"#utility.yul\":57:76   */\n      swap1\n      pop\n        /* \"#utility.yul\":7:82   */\n      swap1\n      jump\t// out\n        /* \"#utility.yul\":88:205   */\n    tag_482:\n        /* \"#utility.yul\":197:198   */\n      0x00\n        /* \"#utility.yul\":194:195   */\n      dup1\n        /* \"#utility.yul\":187:199   */\n      revert\n        /* \"#utility.yul\":211:328   */\n    tag_483:\n        /* \"#utility.yul\":320:321   */\n      0x00\n        /* \"#utility.yul\":317:318   */\n      dup1\n        /* \"#utility.yul\":310:322   */\n      revert\n        /* \"#utility.yul\":334:411   */\n    tag_484:\n        /* \"#utility.yul\":371:378   */\n      0x00\n        /* \"#utility.yul\":400:405   */\n      dup2\n        /* \"#utility.yul\":389:405   */\n      swap1\n      pop\n        /* \"#utility.yul\":334:411   */\n      swap2\n      swap1\n      pop\n      jump\t// out\n        /* \"#utility.yul\":417:539   */\n    tag_485:\n        /* \"#utility.yul\":490:514   */\n      tag_592\n        /* \"#utility.yul\":508:513   */\n      dup2\n        /* \"#utility.yul\":490:514   */\n      tag_484\n      jump\t// in\n    tag_592:\n        /* \"#utility.yul\":483:488   */\n      dup2\n        /* \"#utility.yul\":480:515   */\n      eq\n        /* \"#utility.yul\":470:533   */\n      tag_593\n      jumpi\n        /* \"#utility.yul\":529:530   */\n      0x00\n        /* \"#utility.yul\":526:527   */\n      dup1\n        /* \"#utility.yul\":519:531   */\n      revert\n        /* \"#utility.yul\":470:533   */\n    tag_593:\n        /* \"#utility.yul\":417:539   */\n      pop\n      jump\t// out\n        /* \"#utility.yul\":545:684   */\n    tag_486:\n        /* \"#utility.yul\":591:596   */\n      0x00\n        /* \"#utility.yul\":629:635   */\n      dup2\n        /* \"#utility.yul\":616:636   */\n      calldataload\n        /* \"#utility.yul\":607:636   */\n      swap1\n      pop\n        /* \"#utility.yul\":645:678   */\n      tag_595\n        /* \"#utility.yul\":672:677   */\n      dup2\n        /* \"#utility.yul\":645:678   */\n      tag_485\n      jump\t// in\n    tag_595:\n        /* \"#utility.yul\":545:684   */\n      swap3\n      swap2\n      pop\n      pop\n      jump\t// out\n        /* \"#utility.yul\":690:1164   */\n    tag_31:\n        /* \"#utility.yul\":758:764   */\n      0x00\n        /* \"#utility.yul\":766:772   */\n      dup1\n        /* \"#utility.yul\":815:817   */\n      0x40\n        /* \"#utility.yul\":803:812   */\n      dup4\n        /* \"#utility.yul\":794:801   */\n      dup6\n        /* \"#utility.yul\":790:813   */\n      sub\n        /* \"#utility.yul\":786:818   */\n      slt\n        /* \"#utility.yul\":783:902   */\n      iszero\n      tag_597\n      jumpi\n        /* \"#utility.yul\":821:900   */\n      tag_598\n      tag_482\n      jump\t// in\n    tag_598:\n        /* \"#utility.yul\":783:902   */\n    tag_597:\n        /* \"#utility.yul\":941:942   */\n      0x00\n        /* \"#utility.yul\":966:1019   */\n      tag_599\n        /* \"#utility.yul\":1011:1018   */\n      dup6\n        /* \"#utility.yul\":1002:1008   */\n      dup3\n        /* \"#utility.yul\":991:1000   */\n      dup7\n        /* \"#utility.yul\":987:1009   */\n      add\n        /* \"#utility.yul\":966:1019   */\n      tag_486\n      jump\t// in\n    tag_599:\n        /* \"#utility.yul\":956:1019   */\n      swap3\n      pop\n        /* \"#utility.yul\":912:1029   */\n      pop\n        /* \"#utility.yul\":1068:1070   */\n      0x20\n        /* \"#utility.yul\":1094:1147   */\n      tag_600\n        /* \"#utility.yul\":1139:1146   */\n      dup6\n        /* \"#utility.yul\":1130:1136   */\n      dup3\n        /* \"#utility.yul\":1119:1128   */\n      dup7\n        /* \"#utility.yul\":1115:1137   */\n      add\n        /* \"#utility.yul\":1094:1147   */\n      tag_486\n      jump\t// in\n    tag_600:\n        /* \"#utility.yul\":1084:1147   */\n      swap2\n      pop\n        /* \"#utility.yul\":1039:1157   */\n      pop\n        /* \"#utility.yul\":690:1164   */\n      swap3\n      pop\n      swap3\n      swap1\n      pop\n      jump\t// out\n        /* \"#utility.yul\":1170:1287   */\n    tag_487:\n        /* \"#utility.yul\":1279:1280   */\n      0x00\n        /* \"#utility.yul\":1276:1277   */\n      dup1\n        /* \"#utility.yul\":1269:1281   */\n      revert\n        /* \"#utility.yul\":1293:1410   */\n    tag_488:\n        /* \"#utility.yul\":1402:1403   */\n      0x00\n        /* \"#utility.yul\":1399:1400   */\n      dup1\n        /* \"#utility.yul\":1392:1404   */\n      revert\n        /* \"#utility.yul\":1416:1518   */\n    tag_489:\n        /* \"#utility.yul\":1457:1463   */\n      0x00\n        /* \"#utility.yul\":1508:1510   */\n      0x1f\n        /* \"#utility.yul\":1504:1511   */\n      not\n        /* \"#utility.yul\":1499:1501   */\n      0x1f\n        /* \"#utility.yul\":1492:1497   */\n      dup4\n        /* \"#utility.yul\":1488:1502   */\n      add\n        /* \"#utility.yul\":1484:1512   */\n      and\n        /* \"#utility.yul\":1474:1512   */\n      swap1\n      pop\n        /* \"#utility.yul\":1416:1518   */\n      swap2\n      swap1\n      pop\n      jump\t// out\n        /* \"#utility.yul\":1524:1704   */\n    tag_255:\n        /* \"#utility.yul\":1572:1649   */\n      0x4e487b7100000000000000000000000000000000000000000000000000000000\n        /* \"#utility.yul\":1569:1570   */\n      0x00\n        /* \"#utility.yul\":1562:1650   */\n      mstore\n        /* \"#utility.yul\":1669:1673   */\n      0x41\n        /* \"#utility.yul\":1666:1667   */\n      0x04\n        /* \"#utility.yul\":1659:1674   */\n      mstore\n        /* \"#utility.yul\":1693:1697   */\n      0x24\n        /* \"#utility.yul\":1690:1691   */\n      0x00\n        /* \"#utility.yul\":1683:1698   */\n      revert\n        /* \"#utility.yul\":1710:1991   */\n    tag_490:\n        /* \"#utility.yul\":1793:1820   */\n      tag_606\n        /* \"#utility.yul\":1815:1819   */\n      dup3\n        /* \"#utility.yul\":1793:1820   */\n      tag_489\n      jump\t// in\n    tag_606:\n        /* \"#utility.yul\":1785:1791   */\n      dup2\n        /* \"#utility.yul\":1781:1821   */\n      add\n        /* \"#utility.yul\":1923:1929   */\n      dup2\n        /* \"#utility.yul\":1911:1921   */\n      dup2\n        /* \"#utility.yul\":1908:1930   */\n      lt\n        /* \"#utility.yul\":1887:1905   */\n      0xffffffffffffffff\n        /* \"#utility.yul\":1875:1885   */\n      dup3\n        /* \"#utility.yul\":1872:1906   */\n      gt\n        /* \"#utility.yul\":1869:1931   */\n      or\n        /* \"#utility.yul\":1866:1954   */\n      iszero\n      tag_607\n      jumpi\n        /* \"#utility.yul\":1934:1952   */\n      tag_608\n      tag_255\n      jump\t// in\n    tag_608:\n        /* \"#utility.yul\":1866:1954   */\n    tag_607:\n        /* \"#utility.yul\":1974:1984   */\n      dup1\n        /* \"#utility.yul\":1970:1972   */\n      0x40\n        /* \"#utility.yul\":1963:1985   */\n      mstore\n        /* \"#utility.yul\":1753:1991   */\n      pop\n        /* \"#utility.yul\":1710:1991   */\n      pop\n      pop\n      jump\t// out\n        /* \"#utility.yul\":1997:2126   */\n    tag_491:\n        /* \"#utility.yul\":2031:2037   */\n      0x00\n        /* \"#utility.yul\":2058:2078   */\n      tag_610\n      tag_481\n      jump\t// in\n    tag_610:\n        /* \"#utility.yul\":2048:2078   */\n      swap1\n      pop\n        /* \"#utility.yul\":2087:2120   */\n      tag_611\n        /* \"#utility.yul\":2115:2119   */\n      dup3\n        /* \"#utility.yul\":2107:2113   */\n      dup3\n        /* \"#utility.yul\":2087:2120   */\n      tag_490\n      jump\t// in\n    tag_611:\n        /* \"#utility.yul\":1997:2126   */\n      swap2\n      swap1\n      pop\n      jump\t// out\n        /* \"#utility.yul\":2132:2440   */\n    tag_492:\n        /* \"#utility.yul\":2194:2198   */\n      0x00\n        /* \"#utility.yul\":2284:2302   */\n      0xffffffffffffffff\n        /* \"#utility.yul\":2276:2282   */\n      dup3\n        /* \"#utility.yul\":2273:2303   */\n      gt\n        /* \"#utility.yul\":2270:2326   */\n      iszero\n      tag_613\n      jumpi\n        /* \"#utility.yul\":2306:2324   */\n      tag_614\n      tag_255\n      jump\t// in\n    tag_614:\n        /* \"#utility.yul\":2270:2326   */\n    tag_613:\n        /* \"#utility.yul\":2344:2373   */\n      tag_615\n        /* \"#utility.yul\":2366:2372   */\n      dup3\n        /* \"#utility.yul\":2344:2373   */\n      tag_489\n      jump\t// in\n    tag_615:\n        /* \"#utility.yul\":2336:2373   */\n      swap1\n      pop\n        /* \"#utility.yul\":2428:2432   */\n      0x20\n        /* \"#utility.yul\":2422:2426   */\n      dup2\n        /* \"#utility.yul\":2418:2433   */\n      add\n        /* \"#utility.yul\":2410:2433   */\n      swap1\n      pop\n        /* \"#utility.yul\":2132:2440   */\n      swap2\n      swap1\n      pop\n      jump\t// out\n        /* \"#utility.yul\":2446:2594   */\n    tag_493:\n        /* \"#utility.yul\":2544:2550   */\n      dup3\n        /* \"#utility.yul\":2539:2542   */\n      dup2\n        /* \"#utility.yul\":2534:2537   */\n      dup4\n        /* \"#utility.yul\":2521:2551   */\n      calldatacopy\n        /* \"#utility.yul\":2585:2586   */\n      0x00\n        /* \"#utility.yul\":2576:2582   */\n      dup4\n        /* \"#utility.yul\":2571:2574   */\n      dup4\n        /* \"#utility.yul\":2567:2583   */\n      add\n        /* \"#utility.yul\":2560:2587   */\n      mstore\n        /* \"#utility.yul\":2446:2594   */\n      pop\n      pop\n      pop\n      jump\t// out\n        /* \"#utility.yul\":2600:3025   */\n    tag_494:\n        /* \"#utility.yul\":2678:2683   */\n      0x00\n        /* \"#utility.yul\":2703:2769   */\n      tag_618\n        /* \"#utility.yul\":2719:2768   */\n      tag_619\n        /* \"#utility.yul\":2761:2767   */\n      dup5\n        /* \"#utility.yul\":2719:2768   */\n      tag_492\n      jump\t// in\n    tag_619:\n        /* \"#utility.yul\":2703:2769   */\n      tag_491\n      jump\t// in\n    tag_618:\n        /* \"#utility.yul\":2694:2769   */\n      swap1\n      pop\n        /* \"#utility.yul\":2792:2798   */\n      dup3\n        /* \"#utility.yul\":2785:2790   */\n      dup2\n        /* \"#utility.yul\":2778:2799   */\n      mstore\n        /* \"#utility.yul\":2830:2834   */\n      0x20\n        /* \"#utility.yul\":2823:2828   */\n      dup2\n        /* \"#utility.yul\":2819:2835   */\n      add\n        /* \"#utility.yul\":2868:2871   */\n      dup5\n        /* \"#utility.yul\":2859:2865   */\n      dup5\n        /* \"#utility.yul\":2854:2857   */\n      dup5\n        /* \"#utility.yul\":2850:2866   */\n      add\n        /* \"#utility.yul\":2847:2872   */\n      gt\n        /* \"#utility.yul\":2844:2956   */\n      iszero\n      tag_620\n      jumpi\n        /* \"#utility.yul\":2875:2954   */\n      tag_621\n      tag_488\n      jump\t// in\n    tag_621:\n        /* \"#utility.yul\":2844:2956   */\n    tag_620:\n        /* \"#utility.yul\":2965:3019   */\n      tag_622\n        /* \"#utility.yul\":3012:3018   */\n      dup5\n        /* \"#utility.yul\":3007:3010   */\n      dup3\n        /* \"#utility.yul\":3002:3005   */\n      dup6\n        /* \"#utility.yul\":2965:3019   */\n      tag_493\n      jump\t// in\n    tag_622:\n        /* \"#utility.yul\":2684:3025   */\n      pop\n        /* \"#utility.yul\":2600:3025   */\n      swap4\n      swap3\n      pop\n      pop\n      pop\n      jump\t// out\n        /* \"#utility.yul\":3045:3385   */\n    tag_495:\n        /* \"#utility.yul\":3101:3106   */\n      0x00\n        /* \"#utility.yul\":3150:3153   */\n      dup3\n        /* \"#utility.yul\":3143:3147   */\n      0x1f\n        /* \"#utility.yul\":3135:3141   */\n      dup4\n        /* \"#utility.yul\":3131:3148   */\n      add\n        /* \"#utility.yul\":3127:3154   */\n      slt\n        /* \"#utility.yul\":3117:3239   */\n      tag_624\n      jumpi\n        /* \"#utility.yul\":3158:3237   */\n      tag_625\n      tag_487\n      jump\t// in\n    tag_625:\n        /* \"#utility.yul\":3117:3239   */\n    tag_624:\n        /* \"#utility.yul\":3275:3281   */\n      dup2\n        /* \"#utility.yul\":3262:3282   */\n      calldataload\n        /* \"#utility.yul\":3300:3379   */\n      tag_626\n        /* \"#utility.yul\":3375:3378   */\n      dup5\n        /* \"#utility.yul\":3367:3373   */\n      dup3\n        /* \"#utility.yul\":3360:3364   */\n      0x20\n        /* \"#utility.yul\":3352:3358   */\n      dup7\n        /* \"#utility.yul\":3348:3365   */\n      add\n        /* \"#utility.yul\":3300:3379   */\n      tag_494\n      jump\t// in\n    tag_626:\n        /* \"#utility.yul\":3291:3379   */\n      swap2\n      pop\n        /* \"#utility.yul\":3107:3385   */\n      pop\n        /* \"#utility.yul\":3045:3385   */\n      swap3\n      swap2\n      pop\n      pop\n      jump\t// out\n        /* \"#utility.yul\":3391:4045   */\n    tag_36:\n        /* \"#utility.yul\":3469:3475   */\n      0x00\n        /* \"#utility.yul\":3477:3483   */\n      dup1\n        /* \"#utility.yul\":3526:3528   */\n      0x40\n        /* \"#utility.yul\":3514:3523   */\n      dup4\n        /* \"#utility.yul\":3505:3512   */\n      dup6\n        /* \"#utility.yul\":3501:3524   */\n      sub\n        /* \"#utility.yul\":3497:3529   */\n      slt\n        /* \"#utility.yul\":3494:3613   */\n      iszero\n      tag_628\n      jumpi\n        /* \"#utility.yul\":3532:3611   */\n      tag_629\n      tag_482\n      jump\t// in\n    tag_629:\n        /* \"#utility.yul\":3494:3613   */\n    tag_628:\n        /* \"#utility.yul\":3652:3653   */\n      0x00\n        /* \"#utility.yul\":3677:3730   */\n      tag_630\n        /* \"#utility.yul\":3722:3729   */\n      dup6\n        /* \"#utility.yul\":3713:3719   */\n      dup3\n        /* \"#utility.yul\":3702:3711   */\n      dup7\n        /* \"#utility.yul\":3698:3720   */\n      add\n        /* \"#utility.yul\":3677:3730   */\n      tag_486\n      jump\t// in\n    tag_630:\n        /* \"#utility.yul\":3667:3730   */\n      swap3\n      pop\n        /* \"#utility.yul\":3623:3740   */\n      pop\n        /* \"#utility.yul\":3807:3809   */\n      0x20\n        /* \"#utility.yul\":3796:3805   */\n      dup4\n        /* \"#utility.yul\":3792:3810   */\n      add\n        /* \"#utility.yul\":3779:3811   */\n      calldataload\n        /* \"#utility.yul\":3838:3856   */\n      0xffffffffffffffff\n        /* \"#utility.yul\":3830:3836   */\n      dup2\n        /* \"#utility.yul\":3827:3857   */\n      gt\n        /* \"#utility.yul\":3824:3941   */\n      iszero\n      tag_631\n      jumpi\n        /* \"#utility.yul\":3860:3939   */\n      tag_632\n      tag_483\n      jump\t// in\n    tag_632:\n        /* \"#utility.yul\":3824:3941   */\n    tag_631:\n        /* \"#utility.yul\":3965:4028   */\n      tag_633\n        /* \"#utility.yul\":4020:4027   */\n      dup6\n        /* \"#utility.yul\":4011:4017   */\n      dup3\n        /* \"#utility.yul\":4000:4009   */\n      dup7\n        /* \"#utility.yul\":3996:4018   */\n      add\n        /* \"#utility.yul\":3965:4028   */\n      tag_495\n      jump\t// in\n    tag_633:\n        /* \"#utility.yul\":3955:4028   */\n      swap2\n      pop\n        /* \"#utility.yul\":3750:4038   */\n      pop\n        /* \"#utility.yul\":3391:4045   */\n      swap3\n      pop\n      swap3\n      swap1\n      pop\n      jump\t// out\n        /* \"#utility.yul\":4051:4169   */\n    tag_496:\n        /* \"#utility.yul\":4138:4162   */\n      tag_635\n        /* \"#utility.yul\":4156:4161   */\n      dup2\n        /* \"#utility.yul\":4138:4162   */\n      tag_484\n      jump\t// in\n    tag_635:\n        /* \"#utility.yul\":4133:4136   */\n      dup3\n        /* \"#utility.yul\":4126:4163   */\n      mstore\n        /* \"#utility.yul\":4051:4169   */\n      pop\n      pop\n      jump\t// out\n        /* \"#utility.yul\":4175:4301   */\n    tag_497:\n        /* \"#utility.yul\":4212:4219   */\n      0x00\n        /* \"#utility.yul\":4252:4294   */\n      0xffffffffffffffffffffffffffffffffffffffff\n        /* \"#utility.yul\":4245:4250   */\n      dup3\n        /* \"#utility.yul\":4241:4295   */\n      and\n        /* \"#utility.yul\":4230:4295   */\n      swap1\n      pop\n        /* \"#utility.yul\":4175:4301   */\n      swap2\n      swap1\n      pop\n      jump\t// out\n        /* \"#utility.yul\":4307:4403   */\n    tag_498:\n        /* \"#utility.yul\":4344:4351   */\n      0x00\n        /* \"#utility.yul\":4373:4397   */\n      tag_638\n        /* \"#utility.yul\":4391:4396   */\n      dup3\n        /* \"#utility.yul\":4373:4397   */\n      tag_497\n      jump\t// in\n    tag_638:\n        /* \"#utility.yul\":4362:4397   */\n      swap1\n      pop\n        /* \"#utility.yul\":4307:4403   */\n      swap2\n      swap1\n      pop\n      jump\t// out\n        /* \"#utility.yul\":4409:4527   */\n    tag_499:\n        /* \"#utility.yul\":4496:4520   */\n      tag_640\n        /* \"#utility.yul\":4514:4519   */\n      dup2\n        /* \"#utility.yul\":4496:4520   */\n      tag_498\n      jump\t// in\n    tag_640:\n        /* \"#utility.yul\":4491:4494   */\n      dup3\n        /* \"#utility.yul\":4484:4521   */\n      mstore\n        /* \"#utility.yul\":4409:4527   */\n      pop\n      pop\n      jump\t// out\n        /* \"#utility.yul\":4533:4632   */\n    tag_500:\n        /* \"#utility.yul\":4585:4591   */\n      0x00\n        /* \"#utility.yul\":4619:4624   */\n      dup2\n        /* \"#utility.yul\":4613:4625   */\n      mload\n        /* \"#utility.yul\":4603:4625   */\n      swap1\n      pop\n        /* \"#utility.yul\":4533:4632   */\n      swap2\n      swap1\n      pop\n      jump\t// out\n        /* \"#utility.yul\":4638:4807   */\n    tag_501:\n        /* \"#utility.yul\":4722:4733   */\n      0x00\n        /* \"#utility.yul\":4756:4762   */\n      dup3\n        /* \"#utility.yul\":4751:4754   */\n      dup3\n        /* \"#utility.yul\":4744:4763   */\n      mstore\n        /* \"#utility.yul\":4796:4800   */\n      0x20\n        /* \"#utility.yul\":4791:4794   */\n      dup3\n        /* \"#utility.yul\":4787:4801   */\n      add\n        /* \"#utility.yul\":4772:4801   */\n      swap1\n      pop\n        /* \"#utility.yul\":4638:4807   */\n      swap3\n      swap2\n      pop\n      pop\n      jump\t// out\n        /* \"#utility.yul\":4813:4952   */\n    tag_502:\n        /* \"#utility.yul\":4902:4908   */\n      dup3\n        /* \"#utility.yul\":4897:4900   */\n      dup2\n        /* \"#utility.yul\":4892:4895   */\n      dup4\n        /* \"#utility.yul\":4886:4909   */\n      mcopy\n        /* \"#utility.yul\":4943:4944   */\n      0x00\n        /* \"#utility.yul\":4934:4940   */\n      dup4\n        /* \"#utility.yul\":4929:4932   */\n      dup4\n        /* \"#utility.yul\":4925:4941   */\n      add\n        /* \"#utility.yul\":4918:4945   */\n      mstore\n        /* \"#utility.yul\":4813:4952   */\n      pop\n      pop\n      pop\n      jump\t// out\n        /* \"#utility.yul\":4958:5335   */\n    tag_503:\n        /* \"#utility.yul\":5046:5049   */\n      0x00\n        /* \"#utility.yul\":5074:5113   */\n      tag_645\n        /* \"#utility.yul\":5107:5112   */\n      dup3\n        /* \"#utility.yul\":5074:5113   */\n      tag_500\n      jump\t// in\n    tag_645:\n        /* \"#utility.yul\":5129:5200   */\n      tag_646\n        /* \"#utility.yul\":5193:5199   */\n      dup2\n        /* \"#utility.yul\":5188:5191   */\n      dup6\n        /* \"#utility.yul\":5129:5200   */\n      tag_501\n      jump\t// in\n    tag_646:\n        /* \"#utility.yul\":5122:5200   */\n      swap4\n      pop\n        /* \"#utility.yul\":5209:5274   */\n      tag_647\n        /* \"#utility.yul\":5267:5273   */\n      dup2\n        /* \"#utility.yul\":5262:5265   */\n      dup6\n        /* \"#utility.yul\":5255:5259   */\n      0x20\n        /* \"#utility.yul\":5248:5253   */\n      dup7\n        /* \"#utility.yul\":5244:5260   */\n      add\n        /* \"#utility.yul\":5209:5274   */\n      tag_502\n      jump\t// in\n    tag_647:\n        /* \"#utility.yul\":5299:5328   */\n      tag_648\n        /* \"#utility.yul\":5321:5327   */\n      dup2\n        /* \"#utility.yul\":5299:5328   */\n      tag_489\n      jump\t// in\n    tag_648:\n        /* \"#utility.yul\":5294:5297   */\n      dup5\n        /* \"#utility.yul\":5290:5329   */\n      add\n        /* \"#utility.yul\":5283:5329   */\n      swap2\n      pop\n        /* \"#utility.yul\":5050:5335   */\n      pop\n        /* \"#utility.yul\":4958:5335   */\n      swap3\n      swap2\n      pop\n      pop\n      jump\t// out\n        /* \"#utility.yul\":5341:6207   */\n    tag_43:\n        /* \"#utility.yul\":5594:5598   */\n      0x00\n        /* \"#utility.yul\":5632:5635   */\n      0xc0\n        /* \"#utility.yul\":5621:5630   */\n      dup3\n        /* \"#utility.yul\":5617:5636   */\n      add\n        /* \"#utility.yul\":5609:5636   */\n      swap1\n      pop\n        /* \"#utility.yul\":5646:5717   */\n      tag_650\n        /* \"#utility.yul\":5714:5715   */\n      0x00\n        /* \"#utility.yul\":5703:5712   */\n      dup4\n        /* \"#utility.yul\":5699:5716   */\n      add\n        /* \"#utility.yul\":5690:5696   */\n      dup10\n        /* \"#utility.yul\":5646:5717   */\n      tag_496\n      jump\t// in\n    tag_650:\n        /* \"#utility.yul\":5727:5799   */\n      tag_651\n        /* \"#utility.yul\":5795:5797   */\n      0x20\n        /* \"#utility.yul\":5784:5793   */\n      dup4\n        /* \"#utility.yul\":5780:5798   */\n      add\n        /* \"#utility.yul\":5771:5777   */\n      dup9\n        /* \"#utility.yul\":5727:5799   */\n      tag_499\n      jump\t// in\n    tag_651:\n        /* \"#utility.yul\":5846:5855   */\n      dup2\n        /* \"#utility.yul\":5840:5844   */\n      dup2\n        /* \"#utility.yul\":5836:5856   */\n      sub\n        /* \"#utility.yul\":5831:5833   */\n      0x40\n        /* \"#utility.yul\":5820:5829   */\n      dup4\n        /* \"#utility.yul\":5816:5834   */\n      add\n        /* \"#utility.yul\":5809:5857   */\n      mstore\n        /* \"#utility.yul\":5874:5952   */\n      tag_652\n        /* \"#utility.yul\":5947:5951   */\n      dup2\n        /* \"#utility.yul\":5938:5944   */\n      dup8\n        /* \"#utility.yul\":5874:5952   */\n      tag_503\n      jump\t// in\n    tag_652:\n        /* \"#utility.yul\":5866:5952   */\n      swap1\n      pop\n        /* \"#utility.yul\":5962:6034   */\n      tag_653\n        /* \"#utility.yul\":6030:6032   */\n      0x60\n        /* \"#utility.yul\":6019:6028   */\n      dup4\n        /* \"#utility.yul\":6015:6033   */\n      add\n        /* \"#utility.yul\":6006:6012   */\n      dup7\n        /* \"#utility.yul\":5962:6034   */\n      tag_496\n      jump\t// in\n    tag_653:\n        /* \"#utility.yul\":6044:6117   */\n      tag_654\n        /* \"#utility.yul\":6112:6115   */\n      0x80\n        /* \"#utility.yul\":6101:6110   */\n      dup4\n        /* \"#utility.yul\":6097:6116   */\n      add\n        /* \"#utility.yul\":6088:6094   */\n      dup6\n        /* \"#utility.yul\":6044:6117   */\n      tag_496\n      jump\t// in\n    tag_654:\n        /* \"#utility.yul\":6127:6200   */\n      tag_655\n        /* \"#utility.yul\":6195:6198   */\n      0xa0\n        /* \"#utility.yul\":6184:6193   */\n      dup4\n        /* \"#utility.yul\":6180:6199   */\n      add\n        /* \"#utility.yul\":6171:6177   */\n      dup5\n        /* \"#utility.yul\":6127:6200   */\n      tag_496\n      jump\t// in\n    tag_655:\n        /* \"#utility.yul\":5341:6207   */\n      swap8\n      swap7\n      pop\n      pop\n      pop\n      pop\n      pop\n      pop\n      pop\n      jump\t// out\n        /* \"#utility.yul\":6213:6335   */\n    tag_504:\n        /* \"#utility.yul\":6286:6310   */\n      tag_657\n        /* \"#utility.yul\":6304:6309   */\n      dup2\n        /* \"#utility.yul\":6286:6310   */\n      tag_498\n      jump\t// in\n    tag_657:\n        /* \"#utility.yul\":6279:6284   */\n      dup2\n        /* \"#utility.yul\":6276:6311   */\n      eq\n        /* \"#utility.yul\":6266:6329   */\n      tag_658\n      jumpi\n        /* \"#utility.yul\":6325:6326   */\n      0x00\n        /* \"#utility.yul\":6322:6323   */\n      dup1\n        /* \"#utility.yul\":6315:6327   */\n      revert\n        /* \"#utility.yul\":6266:6329   */\n    tag_658:\n        /* \"#utility.yul\":6213:6335   */\n      pop\n      jump\t// out\n        /* \"#utility.yul\":6341:6480   */\n    tag_505:\n        /* \"#utility.yul\":6387:6392   */\n      0x00\n        /* \"#utility.yul\":6425:6431   */\n      dup2\n        /* \"#utility.yul\":6412:6432   */\n      calldataload\n        /* \"#utility.yul\":6403:6432   */\n      swap1\n      pop\n        /* \"#utility.yul\":6441:6474   */\n      tag_660\n        /* \"#utility.yul\":6468:6473   */\n      dup2\n        /* \"#utility.yul\":6441:6474   */\n      tag_504\n      jump\t// in\n    tag_660:\n        /* \"#utility.yul\":6341:6480   */\n      swap3\n      swap2\n      pop\n      pop\n      jump\t// out\n        /* \"#utility.yul\":6486:6815   */\n    tag_51:\n        /* \"#utility.yul\":6545:6551   */\n      0x00\n        /* \"#utility.yul\":6594:6596   */\n      0x20\n        /* \"#utility.yul\":6582:6591   */\n      dup3\n        /* \"#utility.yul\":6573:6580   */\n      dup5\n        /* \"#utility.yul\":6569:6592   */\n      sub\n        /* \"#utility.yul\":6565:6597   */\n      slt\n        /* \"#utility.yul\":6562:6681   */\n      iszero\n      tag_662\n      jumpi\n        /* \"#utility.yul\":6600:6679   */\n      tag_663\n      tag_482\n      jump\t// in\n    tag_663:\n        /* \"#utility.yul\":6562:6681   */\n    tag_662:\n        /* \"#utility.yul\":6720:6721   */\n      0x00\n        /* \"#utility.yul\":6745:6798   */\n      tag_664\n        /* \"#utility.yul\":6790:6797   */\n      dup5\n        /* \"#utility.yul\":6781:6787   */\n      dup3\n        /* \"#utility.yul\":6770:6779   */\n      dup6\n        /* \"#utility.yul\":6766:6788   */\n      add\n        /* \"#utility.yul\":6745:6798   */\n      tag_505\n      jump\t// in\n    tag_664:\n        /* \"#utility.yul\":6735:6798   */\n      swap2\n      pop\n        /* \"#utility.yul\":6691:6808   */\n      pop\n        /* \"#utility.yul\":6486:6815   */\n      swap3\n      swap2\n      pop\n      pop\n      jump\t// out\n        /* \"#utility.yul\":6821:7043   */\n    tag_54:\n        /* \"#utility.yul\":6914:6918   */\n      0x00\n        /* \"#utility.yul\":6952:6954   */\n      0x20\n        /* \"#utility.yul\":6941:6950   */\n      dup3\n        /* \"#utility.yul\":6937:6955   */\n      add\n        /* \"#utility.yul\":6929:6955   */\n      swap1\n      pop\n        /* \"#utility.yul\":6965:7036   */\n      tag_666\n        /* \"#utility.yul\":7033:7034   */\n      0x00\n        /* \"#utility.yul\":7022:7031   */\n      dup4\n        /* \"#utility.yul\":7018:7035   */\n      add\n        /* \"#utility.yul\":7009:7015   */\n      dup5\n        /* \"#utility.yul\":6965:7036   */\n      tag_496\n      jump\t// in\n    tag_666:\n        /* \"#utility.yul\":6821:7043   */\n      swap3\n      swap2\n      pop\n      pop\n      jump\t// out\n        /* \"#utility.yul\":7049:7378   */\n    tag_58:\n        /* \"#utility.yul\":7108:7114   */\n      0x00\n        /* \"#utility.yul\":7157:7159   */\n      0x20\n        /* \"#utility.yul\":7145:7154   */\n      dup3\n        /* \"#utility.yul\":7136:7143   */\n      dup5\n        /* \"#utility.yul\":7132:7155   */\n      sub\n        /* \"#utility.yul\":7128:7160   */\n      slt\n        /* \"#utility.yul\":7125:7244   */\n      iszero\n      tag_668\n      jumpi\n        /* \"#utility.yul\":7163:7242   */\n      tag_669\n      tag_482\n      jump\t// in\n    tag_669:\n        /* \"#utility.yul\":7125:7244   */\n    tag_668:\n        /* \"#utility.yul\":7283:7284   */\n      0x00\n        /* \"#utility.yul\":7308:7361   */\n      tag_670\n        /* \"#utility.yul\":7353:7360   */\n      dup5\n        /* \"#utility.yul\":7344:7350   */\n      dup3\n        /* \"#utility.yul\":7333:7342   */\n      dup6\n        /* \"#utility.yul\":7329:7351   */\n      add\n        /* \"#utility.yul\":7308:7361   */\n      tag_486\n      jump\t// in\n    tag_670:\n        /* \"#utility.yul\":7298:7361   */\n      swap2\n      pop\n        /* \"#utility.yul\":7254:7371   */\n      pop\n        /* \"#utility.yul\":7049:7378   */\n      swap3\n      swap2\n      pop\n      pop\n      jump\t// out\n        /* \"#utility.yul\":7384:7474   */\n    tag_506:\n        /* \"#utility.yul\":7418:7425   */\n      0x00\n        /* \"#utility.yul\":7461:7466   */\n      dup2\n        /* \"#utility.yul\":7454:7467   */\n      iszero\n        /* \"#utility.yul\":7447:7468   */\n      iszero\n        /* \"#utility.yul\":7436:7468   */\n      swap1\n      pop\n        /* \"#utility.yul\":7384:7474   */\n      swap2\n      swap1\n      pop\n      jump\t// out\n        /* \"#utility.yul\":7480:7589   */\n    tag_507:\n        /* \"#utility.yul\":7561:7582   */\n      tag_673\n        /* \"#utility.yul\":7576:7581   */\n      dup2\n        /* \"#utility.yul\":7561:7582   */\n      tag_506\n      jump\t// in\n    tag_673:\n        /* \"#utility.yul\":7556:7559   */\n      dup3\n        /* \"#utility.yul\":7549:7583   */\n      mstore\n        /* \"#utility.yul\":7480:7589   */\n      pop\n      pop\n      jump\t// out\n        /* \"#utility.yul\":7595:9075   */\n    tag_61:\n        /* \"#utility.yul\":7994:7998   */\n      0x00\n        /* \"#utility.yul\":8032:8035   */\n      0x0140\n        /* \"#utility.yul\":8021:8030   */\n      dup3\n        /* \"#utility.yul\":8017:8036   */\n      add\n        /* \"#utility.yul\":8009:8036   */\n      swap1\n      pop\n        /* \"#utility.yul\":8046:8117   */\n      tag_675\n        /* \"#utility.yul\":8114:8115   */\n      0x00\n        /* \"#utility.yul\":8103:8112   */\n      dup4\n        /* \"#utility.yul\":8099:8116   */\n      add\n        /* \"#utility.yul\":8090:8096   */\n      dup14\n        /* \"#utility.yul\":8046:8117   */\n      tag_496\n      jump\t// in\n    tag_675:\n        /* \"#utility.yul\":8127:8199   */\n      tag_676\n        /* \"#utility.yul\":8195:8197   */\n      0x20\n        /* \"#utility.yul\":8184:8193   */\n      dup4\n        /* \"#utility.yul\":8180:8198   */\n      add\n        /* \"#utility.yul\":8171:8177   */\n      dup13\n        /* \"#utility.yul\":8127:8199   */\n      tag_499\n      jump\t// in\n    tag_676:\n        /* \"#utility.yul\":8246:8255   */\n      dup2\n        /* \"#utility.yul\":8240:8244   */\n      dup2\n        /* \"#utility.yul\":8236:8256   */\n      sub\n        /* \"#utility.yul\":8231:8233   */\n      0x40\n        /* \"#utility.yul\":8220:8229   */\n      dup4\n        /* \"#utility.yul\":8216:8234   */\n      add\n        /* \"#utility.yul\":8209:8257   */\n      mstore\n        /* \"#utility.yul\":8274:8352   */\n      tag_677\n        /* \"#utility.yul\":8347:8351   */\n      dup2\n        /* \"#utility.yul\":8338:8344   */\n      dup12\n        /* \"#utility.yul\":8274:8352   */\n      tag_503\n      jump\t// in\n    tag_677:\n        /* \"#utility.yul\":8266:8352   */\n      swap1\n      pop\n        /* \"#utility.yul\":8399:8408   */\n      dup2\n        /* \"#utility.yul\":8393:8397   */\n      dup2\n        /* \"#utility.yul\":8389:8409   */\n      sub\n        /* \"#utility.yul\":8384:8386   */\n      0x60\n        /* \"#utility.yul\":8373:8382   */\n      dup4\n        /* \"#utility.yul\":8369:8387   */\n      add\n        /* \"#utility.yul\":8362:8410   */\n      mstore\n        /* \"#utility.yul\":8427:8505   */\n      tag_678\n        /* \"#utility.yul\":8500:8504   */\n      dup2\n        /* \"#utility.yul\":8491:8497   */\n      dup11\n        /* \"#utility.yul\":8427:8505   */\n      tag_503\n      jump\t// in\n    tag_678:\n        /* \"#utility.yul\":8419:8505   */\n      swap1\n      pop\n        /* \"#utility.yul\":8553:8562   */\n      dup2\n        /* \"#utility.yul\":8547:8551   */\n      dup2\n        /* \"#utility.yul\":8543:8563   */\n      sub\n        /* \"#utility.yul\":8537:8540   */\n      0x80\n        /* \"#utility.yul\":8526:8535   */\n      dup4\n        /* \"#utility.yul\":8522:8541   */\n      add\n        /* \"#utility.yul\":8515:8564   */\n      mstore\n        /* \"#utility.yul\":8581:8659   */\n      tag_679\n        /* \"#utility.yul\":8654:8658   */\n      dup2\n        /* \"#utility.yul\":8645:8651   */\n      dup10\n        /* \"#utility.yul\":8581:8659   */\n      tag_503\n      jump\t// in\n    tag_679:\n        /* \"#utility.yul\":8573:8659   */\n      swap1\n      pop\n        /* \"#utility.yul\":8669:8742   */\n      tag_680\n        /* \"#utility.yul\":8737:8740   */\n      0xa0\n        /* \"#utility.yul\":8726:8735   */\n      dup4\n        /* \"#utility.yul\":8722:8741   */\n      add\n        /* \"#utility.yul\":8713:8719   */\n      dup9\n        /* \"#utility.yul\":8669:8742   */\n      tag_496\n      jump\t// in\n    tag_680:\n        /* \"#utility.yul\":8752:8825   */\n      tag_681\n        /* \"#utility.yul\":8820:8823   */\n      0xc0\n        /* \"#utility.yul\":8809:8818   */\n      dup4\n        /* \"#utility.yul\":8805:8824   */\n      add\n        /* \"#utility.yul\":8796:8802   */\n      dup8\n        /* \"#utility.yul\":8752:8825   */\n      tag_496\n      jump\t// in\n    tag_681:\n        /* \"#utility.yul\":8835:8908   */\n      tag_682\n        /* \"#utility.yul\":8903:8906   */\n      0xe0\n        /* \"#utility.yul\":8892:8901   */\n      dup4\n        /* \"#utility.yul\":8888:8907   */\n      add\n        /* \"#utility.yul\":8879:8885   */\n      dup7\n        /* \"#utility.yul\":8835:8908   */\n      tag_496\n      jump\t// in\n    tag_682:\n        /* \"#utility.yul\":8918:8985   */\n      tag_683\n        /* \"#utility.yul\":8980:8983   */\n      0x0100\n        /* \"#utility.yul\":8969:8978   */\n      dup4\n        /* \"#utility.yul\":8965:8984   */\n      add\n        /* \"#utility.yul\":8956:8962   */\n      dup6\n        /* \"#utility.yul\":8918:8985   */\n      tag_507\n      jump\t// in\n    tag_683:\n        /* \"#utility.yul\":8995:9068   */\n      tag_684\n        /* \"#utility.yul\":9063:9066   */\n      0x0120\n        /* \"#utility.yul\":9052:9061   */\n      dup4\n        /* \"#utility.yul\":9048:9067   */\n      add\n        /* \"#utility.yul\":9039:9045   */\n      dup5\n        /* \"#utility.yul\":8995:9068   */\n      tag_496\n      jump\t// in\n    tag_684:\n        /* \"#utility.yul\":7595:9075   */\n      swap12\n      swap11\n      pop\n      pop\n      pop\n      pop\n      pop\n      pop\n      pop\n      pop\n      pop\n      pop\n      pop\n      jump\t// out\n        /* \"#utility.yul\":9081:9189   */\n    tag_508:\n        /* \"#utility.yul\":9158:9182   */\n      tag_686\n        /* \"#utility.yul\":9176:9181   */\n      dup2\n        /* \"#utility.yul\":9158:9182   */\n      tag_484\n      jump\t// in\n    tag_686:\n        /* \"#utility.yul\":9153:9156   */\n      dup3\n        /* \"#utility.yul\":9146:9183   */\n      mstore\n        /* \"#utility.yul\":9081:9189   */\n      pop\n      pop\n      jump\t// out\n        /* \"#utility.yul\":9195:9303   */\n    tag_509:\n        /* \"#utility.yul\":9272:9296   */\n      tag_688\n        /* \"#utility.yul\":9290:9295   */\n      dup2\n        /* \"#utility.yul\":9272:9296   */\n      tag_498\n      jump\t// in\n    tag_688:\n        /* \"#utility.yul\":9267:9270   */\n      dup3\n        /* \"#utility.yul\":9260:9297   */\n      mstore\n        /* \"#utility.yul\":9195:9303   */\n      pop\n      pop\n      jump\t// out\n        /* \"#utility.yul\":9309:9468   */\n    tag_510:\n        /* \"#utility.yul\":9383:9394   */\n      0x00\n        /* \"#utility.yul\":9417:9423   */\n      dup3\n        /* \"#utility.yul\":9412:9415   */\n      dup3\n        /* \"#utility.yul\":9405:9424   */\n      mstore\n        /* \"#utility.yul\":9457:9461   */\n      0x20\n        /* \"#utility.yul\":9452:9455   */\n      dup3\n        /* \"#utility.yul\":9448:9462   */\n      add\n        /* \"#utility.yul\":9433:9462   */\n      swap1\n      pop\n        /* \"#utility.yul\":9309:9468   */\n      swap3\n      swap2\n      pop\n      pop\n      jump\t// out\n        /* \"#utility.yul\":9474:9831   */\n    tag_511:\n        /* \"#utility.yul\":9552:9555   */\n      0x00\n        /* \"#utility.yul\":9580:9619   */\n      tag_691\n        /* \"#utility.yul\":9613:9618   */\n      dup3\n        /* \"#utility.yul\":9580:9619   */\n      tag_500\n      jump\t// in\n    tag_691:\n        /* \"#utility.yul\":9635:9696   */\n      tag_692\n        /* \"#utility.yul\":9689:9695   */\n      dup2\n        /* \"#utility.yul\":9684:9687   */\n      dup6\n        /* \"#utility.yul\":9635:9696   */\n      tag_510\n      jump\t// in\n    tag_692:\n        /* \"#utility.yul\":9628:9696   */\n      swap4\n      pop\n        /* \"#utility.yul\":9705:9770   */\n      tag_693\n        /* \"#utility.yul\":9763:9769   */\n      dup2\n        /* \"#utility.yul\":9758:9761   */\n      dup6\n        /* \"#utility.yul\":9751:9755   */\n      0x20\n        /* \"#utility.yul\":9744:9749   */\n      dup7\n        /* \"#utility.yul\":9740:9756   */\n      add\n        /* \"#utility.yul\":9705:9770   */\n      tag_502\n      jump\t// in\n    tag_693:\n        /* \"#utility.yul\":9795:9824   */\n      tag_694\n        /* \"#utility.yul\":9817:9823   */\n      dup2\n        /* \"#utility.yul\":9795:9824   */\n      tag_489\n      jump\t// in\n    tag_694:\n        /* \"#utility.yul\":9790:9793   */\n      dup5\n        /* \"#utility.yul\":9786:9825   */\n      add\n        /* \"#utility.yul\":9779:9825   */\n      swap2\n      pop\n        /* \"#utility.yul\":9556:9831   */\n      pop\n        /* \"#utility.yul\":9474:9831   */\n      swap3\n      swap2\n      pop\n      pop\n      jump\t// out\n        /* \"#utility.yul\":9893:11214   */\n    tag_512:\n        /* \"#utility.yul\":10006:10009   */\n      0x00\n        /* \"#utility.yul\":10042:10046   */\n      0xc0\n        /* \"#utility.yul\":10037:10040   */\n      dup4\n        /* \"#utility.yul\":10033:10047   */\n      add\n        /* \"#utility.yul\":10127:10131   */\n      0x00\n        /* \"#utility.yul\":10120:10125   */\n      dup4\n        /* \"#utility.yul\":10116:10132   */\n      add\n        /* \"#utility.yul\":10110:10133   */\n      mload\n        /* \"#utility.yul\":10146:10209   */\n      tag_696\n        /* \"#utility.yul\":10203:10207   */\n      0x00\n        /* \"#utility.yul\":10198:10201   */\n      dup7\n        /* \"#utility.yul\":10194:10208   */\n      add\n        /* \"#utility.yul\":10180:10192   */\n      dup3\n        /* \"#utility.yul\":10146:10209   */\n      tag_508\n      jump\t// in\n    tag_696:\n        /* \"#utility.yul\":10057:10219   */\n      pop\n        /* \"#utility.yul\":10306:10310   */\n      0x20\n        /* \"#utility.yul\":10299:10304   */\n      dup4\n        /* \"#utility.yul\":10295:10311   */\n      add\n        /* \"#utility.yul\":10289:10312   */\n      mload\n        /* \"#utility.yul\":10325:10388   */\n      tag_697\n        /* \"#utility.yul\":10382:10386   */\n      0x20\n        /* \"#utility.yul\":10377:10380   */\n      dup7\n        /* \"#utility.yul\":10373:10387   */\n      add\n        /* \"#utility.yul\":10359:10371   */\n      dup3\n        /* \"#utility.yul\":10325:10388   */\n      tag_509\n      jump\t// in\n    tag_697:\n        /* \"#utility.yul\":10229:10398   */\n      pop\n        /* \"#utility.yul\":10486:10490   */\n      0x40\n        /* \"#utility.yul\":10479:10484   */\n      dup4\n        /* \"#utility.yul\":10475:10491   */\n      add\n        /* \"#utility.yul\":10469:10492   */\n      mload\n        /* \"#utility.yul\":10539:10542   */\n      dup5\n        /* \"#utility.yul\":10533:10537   */\n      dup3\n        /* \"#utility.yul\":10529:10543   */\n      sub\n        /* \"#utility.yul\":10522:10526   */\n      0x40\n        /* \"#utility.yul\":10517:10520   */\n      dup7\n        /* \"#utility.yul\":10513:10527   */\n      add\n        /* \"#utility.yul\":10506:10544   */\n      mstore\n        /* \"#utility.yul\":10565:10638   */\n      tag_698\n        /* \"#utility.yul\":10633:10637   */\n      dup3\n        /* \"#utility.yul\":10619:10631   */\n      dup3\n        /* \"#utility.yul\":10565:10638   */\n      tag_511\n      jump\t// in\n    tag_698:\n        /* \"#utility.yul\":10557:10638   */\n      swap2\n      pop\n        /* \"#utility.yul\":10408:10649   */\n      pop\n        /* \"#utility.yul\":10734:10738   */\n      0x60\n        /* \"#utility.yul\":10727:10732   */\n      dup4\n        /* \"#utility.yul\":10723:10739   */\n      add\n        /* \"#utility.yul\":10717:10740   */\n      mload\n        /* \"#utility.yul\":10753:10816   */\n      tag_699\n        /* \"#utility.yul\":10810:10814   */\n      0x60\n        /* \"#utility.yul\":10805:10808   */\n      dup7\n        /* \"#utility.yul\":10801:10815   */\n      add\n        /* \"#utility.yul\":10787:10799   */\n      dup3\n        /* \"#utility.yul\":10753:10816   */\n      tag_508\n      jump\t// in\n    tag_699:\n        /* \"#utility.yul\":10659:10826   */\n      pop\n        /* \"#utility.yul\":10916:10920   */\n      0x80\n        /* \"#utility.yul\":10909:10914   */\n      dup4\n        /* \"#utility.yul\":10905:10921   */\n      add\n        /* \"#utility.yul\":10899:10922   */\n      mload\n        /* \"#utility.yul\":10935:10998   */\n      tag_700\n        /* \"#utility.yul\":10992:10996   */\n      0x80\n        /* \"#utility.yul\":10987:10990   */\n      dup7\n        /* \"#utility.yul\":10983:10997   */\n      add\n        /* \"#utility.yul\":10969:10981   */\n      dup3\n        /* \"#utility.yul\":10935:10998   */\n      tag_508\n      jump\t// in\n    tag_700:\n        /* \"#utility.yul\":10836:11008   */\n      pop\n        /* \"#utility.yul\":11095:11099   */\n      0xa0\n        /* \"#utility.yul\":11088:11093   */\n      dup4\n        /* \"#utility.yul\":11084:11100   */\n      add\n        /* \"#utility.yul\":11078:11101   */\n      mload\n        /* \"#utility.yul\":11114:11177   */\n      tag_701\n        /* \"#utility.yul\":11171:11175   */\n      0xa0\n        /* \"#utility.yul\":11166:11169   */\n      dup7\n        /* \"#utility.yul\":11162:11176   */\n      add\n        /* \"#utility.yul\":11148:11160   */\n      dup3\n        /* \"#utility.yul\":11114:11177   */\n      tag_508\n      jump\t// in\n    tag_701:\n        /* \"#utility.yul\":11018:11187   */\n      pop\n        /* \"#utility.yul\":11204:11208   */\n      dup1\n        /* \"#utility.yul\":11197:11208   */\n      swap2\n      pop\n        /* \"#utility.yul\":10011:11214   */\n      pop\n        /* \"#utility.yul\":9893:11214   */\n      swap3\n      swap2\n      pop\n      pop\n      jump\t// out\n        /* \"#utility.yul\":11220:11581   */\n    tag_70:\n        /* \"#utility.yul\":11357:11361   */\n      0x00\n        /* \"#utility.yul\":11395:11397   */\n      0x20\n        /* \"#utility.yul\":11384:11393   */\n      dup3\n        /* \"#utility.yul\":11380:11398   */\n      add\n        /* \"#utility.yul\":11372:11398   */\n      swap1\n      pop\n        /* \"#utility.yul\":11444:11453   */\n      dup2\n        /* \"#utility.yul\":11438:11442   */\n      dup2\n        /* \"#utility.yul\":11434:11454   */\n      sub\n        /* \"#utility.yul\":11430:11431   */\n      0x00\n        /* \"#utility.yul\":11419:11428   */\n      dup4\n        /* \"#utility.yul\":11415:11432   */\n      add\n        /* \"#utility.yul\":11408:11455   */\n      mstore\n        /* \"#utility.yul\":11472:11574   */\n      tag_703\n        /* \"#utility.yul\":11569:11573   */\n      dup2\n        /* \"#utility.yul\":11560:11566   */\n      dup5\n        /* \"#utility.yul\":11472:11574   */\n      tag_512\n      jump\t// in\n    tag_703:\n        /* \"#utility.yul\":11464:11574   */\n      swap1\n      pop\n        /* \"#utility.yul\":11220:11581   */\n      swap3\n      swap2\n      pop\n      pop\n      jump\t// out\n        /* \"#utility.yul\":11587:12096   */\n    tag_74:\n        /* \"#utility.yul\":11656:11662   */\n      0x00\n        /* \"#utility.yul\":11705:11707   */\n      0x20\n        /* \"#utility.yul\":11693:11702   */\n      dup3\n        /* \"#utility.yul\":11684:11691   */\n      dup5\n        /* \"#utility.yul\":11680:11703   */\n      sub\n        /* \"#utility.yul\":11676:11708   */\n      slt\n        /* \"#utility.yul\":11673:11792   */\n      iszero\n      tag_705\n      jumpi\n        /* \"#utility.yul\":11711:11790   */\n      tag_706\n      tag_482\n      jump\t// in\n    tag_706:\n        /* \"#utility.yul\":11673:11792   */\n    tag_705:\n        /* \"#utility.yul\":11859:11860   */\n      0x00\n        /* \"#utility.yul\":11848:11857   */\n      dup3\n        /* \"#utility.yul\":11844:11861   */\n      add\n        /* \"#utility.yul\":11831:11862   */\n      calldataload\n        /* \"#utility.yul\":11889:11907   */\n      0xffffffffffffffff\n        /* \"#utility.yul\":11881:11887   */\n      dup2\n        /* \"#utility.yul\":11878:11908   */\n      gt\n        /* \"#utility.yul\":11875:11992   */\n      iszero\n      tag_707\n      jumpi\n        /* \"#utility.yul\":11911:11990   */\n      tag_708\n      tag_483\n      jump\t// in\n    tag_708:\n        /* \"#utility.yul\":11875:11992   */\n    tag_707:\n        /* \"#utility.yul\":12016:12079   */\n      tag_709\n        /* \"#utility.yul\":12071:12078   */\n      dup5\n        /* \"#utility.yul\":12062:12068   */\n      dup3\n        /* \"#utility.yul\":12051:12060   */\n      dup6\n        /* \"#utility.yul\":12047:12069   */\n      add\n        /* \"#utility.yul\":12016:12079   */\n      tag_495\n      jump\t// in\n    tag_709:\n        /* \"#utility.yul\":12006:12079   */\n      swap2\n      pop\n        /* \"#utility.yul\":11802:12089   */\n      pop\n        /* \"#utility.yul\":11587:12096   */\n      swap3\n      swap2\n      pop\n      pop\n      jump\t// out\n        /* \"#utility.yul\":12102:12216   */\n    tag_513:\n        /* \"#utility.yul\":12169:12175   */\n      0x00\n        /* \"#utility.yul\":12203:12208   */\n      dup2\n        /* \"#utility.yul\":12197:12209   */\n      mload\n        /* \"#utility.yul\":12187:12209   */\n      swap1\n      pop\n        /* \"#utility.yul\":12102:12216   */\n      swap2\n      swap1\n      pop\n      jump\t// out\n        /* \"#utility.yul\":12222:12406   */\n    tag_514:\n        /* \"#utility.yul\":12321:12332   */\n      0x00\n        /* \"#utility.yul\":12355:12361   */\n      dup3\n        /* \"#utility.yul\":12350:12353   */\n      dup3\n        /* \"#utility.yul\":12343:12362   */\n      mstore\n        /* \"#utility.yul\":12395:12399   */\n      0x20\n        /* \"#utility.yul\":12390:12393   */\n      dup3\n        /* \"#utility.yul\":12386:12400   */\n      add\n        /* \"#utility.yul\":12371:12400   */\n      swap1\n      pop\n        /* \"#utility.yul\":12222:12406   */\n      swap3\n      swap2\n      pop\n      pop\n      jump\t// out\n        /* \"#utility.yul\":12412:12544   */\n    tag_515:\n        /* \"#utility.yul\":12479:12483   */\n      0x00\n        /* \"#utility.yul\":12502:12505   */\n      dup2\n        /* \"#utility.yul\":12494:12505   */\n      swap1\n      pop\n        /* \"#utility.yul\":12532:12536   */\n      0x20\n        /* \"#utility.yul\":12527:12530   */\n      dup3\n        /* \"#utility.yul\":12523:12537   */\n      add\n        /* \"#utility.yul\":12515:12537   */\n      swap1\n      pop\n        /* \"#utility.yul\":12412:12544   */\n      swap2\n      swap1\n      pop\n      jump\t// out\n        /* \"#utility.yul\":12550:12729   */\n    tag_516:\n        /* \"#utility.yul\":12619:12629   */\n      0x00\n        /* \"#utility.yul\":12640:12686   */\n      tag_714\n        /* \"#utility.yul\":12682:12685   */\n      dup4\n        /* \"#utility.yul\":12674:12680   */\n      dup4\n        /* \"#utility.yul\":12640:12686   */\n      tag_508\n      jump\t// in\n    tag_714:\n        /* \"#utility.yul\":12718:12722   */\n      0x20\n        /* \"#utility.yul\":12713:12716   */\n      dup4\n        /* \"#utility.yul\":12709:12723   */\n      add\n        /* \"#utility.yul\":12695:12723   */\n      swap1\n      pop\n        /* \"#utility.yul\":12550:12729   */\n      swap3\n      swap2\n      pop\n      pop\n      jump\t// out\n        /* \"#utility.yul\":12735:12848   */\n    tag_517:\n        /* \"#utility.yul\":12805:12809   */\n      0x00\n        /* \"#utility.yul\":12837:12841   */\n      0x20\n        /* \"#utility.yul\":12832:12835   */\n      dup3\n        /* \"#utility.yul\":12828:12842   */\n      add\n        /* \"#utility.yul\":12820:12842   */\n      swap1\n      pop\n        /* \"#utility.yul\":12735:12848   */\n      swap2\n      swap1\n      pop\n      jump\t// out\n        /* \"#utility.yul\":12884:13616   */\n    tag_518:\n        /* \"#utility.yul\":13003:13006   */\n      0x00\n        /* \"#utility.yul\":13032:13086   */\n      tag_717\n        /* \"#utility.yul\":13080:13085   */\n      dup3\n        /* \"#utility.yul\":13032:13086   */\n      tag_513\n      jump\t// in\n    tag_717:\n        /* \"#utility.yul\":13102:13188   */\n      tag_718\n        /* \"#utility.yul\":13181:13187   */\n      dup2\n        /* \"#utility.yul\":13176:13179   */\n      dup6\n        /* \"#utility.yul\":13102:13188   */\n      tag_514\n      jump\t// in\n    tag_718:\n        /* \"#utility.yul\":13095:13188   */\n      swap4\n      pop\n        /* \"#utility.yul\":13212:13268   */\n      tag_719\n        /* \"#utility.yul\":13262:13267   */\n      dup4\n        /* \"#utility.yul\":13212:13268   */\n      tag_515\n      jump\t// in\n    tag_719:\n        /* \"#utility.yul\":13291:13298   */\n      dup1\n        /* \"#utility.yul\":13322:13323   */\n      0x00\n        /* \"#utility.yul\":13307:13591   */\n    tag_720:\n        /* \"#utility.yul\":13332:13338   */\n      dup4\n        /* \"#utility.yul\":13329:13330   */\n      dup2\n        /* \"#utility.yul\":13326:13339   */\n      lt\n        /* \"#utility.yul\":13307:13591   */\n      iszero\n      tag_722\n      jumpi\n        /* \"#utility.yul\":13408:13414   */\n      dup2\n        /* \"#utility.yul\":13402:13415   */\n      mload\n        /* \"#utility.yul\":13435:13498   */\n      tag_723\n        /* \"#utility.yul\":13494:13497   */\n      dup9\n        /* \"#utility.yul\":13479:13492   */\n      dup3\n        /* \"#utility.yul\":13435:13498   */\n      tag_516\n      jump\t// in\n    tag_723:\n        /* \"#utility.yul\":13428:13498   */\n      swap8\n      pop\n        /* \"#utility.yul\":13521:13581   */\n      tag_724\n        /* \"#utility.yul\":13574:13580   */\n      dup4\n        /* \"#utility.yul\":13521:13581   */\n      tag_517\n      jump\t// in\n    tag_724:\n        /* \"#utility.yul\":13511:13581   */\n      swap3\n      pop\n        /* \"#utility.yul\":13367:13591   */\n      pop\n        /* \"#utility.yul\":13354:13355   */\n      0x01\n        /* \"#utility.yul\":13351:13352   */\n      dup2\n        /* \"#utility.yul\":13347:13356   */\n      add\n        /* \"#utility.yul\":13342:13356   */\n      swap1\n      pop\n        /* \"#utility.yul\":13307:13591   */\n      jump(tag_720)\n    tag_722:\n        /* \"#utility.yul\":13311:13325   */\n      pop\n        /* \"#utility.yul\":13607:13610   */\n      dup6\n        /* \"#utility.yul\":13600:13610   */\n      swap4\n      pop\n        /* \"#utility.yul\":13008:13616   */\n      pop\n      pop\n      pop\n        /* \"#utility.yul\":12884:13616   */\n      swap3\n      swap2\n      pop\n      pop\n      jump\t// out\n        /* \"#utility.yul\":13622:13995   */\n    tag_77:\n        /* \"#utility.yul\":13765:13769   */\n      0x00\n        /* \"#utility.yul\":13803:13805   */\n      0x20\n        /* \"#utility.yul\":13792:13801   */\n      dup3\n        /* \"#utility.yul\":13788:13806   */\n      add\n        /* \"#utility.yul\":13780:13806   */\n      swap1\n      pop\n        /* \"#utility.yul\":13852:13861   */\n      dup2\n        /* \"#utility.yul\":13846:13850   */\n      dup2\n        /* \"#utility.yul\":13842:13862   */\n      sub\n        /* \"#utility.yul\":13838:13839   */\n      0x00\n        /* \"#utility.yul\":13827:13836   */\n      dup4\n        /* \"#utility.yul\":13823:13840   */\n      add\n        /* \"#utility.yul\":13816:13863   */\n      mstore\n        /* \"#utility.yul\":13880:13988   */\n      tag_726\n        /* \"#utility.yul\":13983:13987   */\n      dup2\n        /* \"#utility.yul\":13974:13980   */\n      dup5\n        /* \"#utility.yul\":13880:13988   */\n      tag_518\n      jump\t// in\n    tag_726:\n        /* \"#utility.yul\":13872:13988   */\n      swap1\n      pop\n        /* \"#utility.yul\":13622:13995   */\n      swap3\n      swap2\n      pop\n      pop\n      jump\t// out\n        /* \"#utility.yul\":14001:14117   */\n    tag_519:\n        /* \"#utility.yul\":14091:14092   */\n      0x03\n        /* \"#utility.yul\":14084:14089   */\n      dup2\n        /* \"#utility.yul\":14081:14093   */\n      lt\n        /* \"#utility.yul\":14071:14111   */\n      tag_728\n      jumpi\n        /* \"#utility.yul\":14107:14108   */\n      0x00\n        /* \"#utility.yul\":14104:14105   */\n      dup1\n        /* \"#utility.yul\":14097:14109   */\n      revert\n        /* \"#utility.yul\":14071:14111   */\n    tag_728:\n        /* \"#utility.yul\":14001:14117   */\n      pop\n      jump\t// out\n        /* \"#utility.yul\":14123:14296   */\n    tag_520:\n        /* \"#utility.yul\":14186:14191   */\n      0x00\n        /* \"#utility.yul\":14224:14230   */\n      dup2\n        /* \"#utility.yul\":14211:14231   */\n      calldataload\n        /* \"#utility.yul\":14202:14231   */\n      swap1\n      pop\n        /* \"#utility.yul\":14240:14290   */\n      tag_730\n        /* \"#utility.yul\":14284:14289   */\n      dup2\n        /* \"#utility.yul\":14240:14290   */\n      tag_519\n      jump\t// in\n    tag_730:\n        /* \"#utility.yul\":14123:14296   */\n      swap3\n      swap2\n      pop\n      pop\n      jump\t// out\n        /* \"#utility.yul\":14302:15641   */\n    tag_80:\n        /* \"#utility.yul\":14435:14441   */\n      0x00\n        /* \"#utility.yul\":14443:14449   */\n      dup1\n        /* \"#utility.yul\":14451:14457   */\n      0x00\n        /* \"#utility.yul\":14459:14465   */\n      dup1\n        /* \"#utility.yul\":14508:14511   */\n      0x80\n        /* \"#utility.yul\":14496:14505   */\n      dup6\n        /* \"#utility.yul\":14487:14494   */\n      dup8\n        /* \"#utility.yul\":14483:14506   */\n      sub\n        /* \"#utility.yul\":14479:14512   */\n      slt\n        /* \"#utility.yul\":14476:14596   */\n      iszero\n      tag_732\n      jumpi\n        /* \"#utility.yul\":14515:14594   */\n      tag_733\n      tag_482\n      jump\t// in\n    tag_733:\n        /* \"#utility.yul\":14476:14596   */\n    tag_732:\n        /* \"#utility.yul\":14663:14664   */\n      0x00\n        /* \"#utility.yul\":14652:14661   */\n      dup6\n        /* \"#utility.yul\":14648:14665   */\n      add\n        /* \"#utility.yul\":14635:14666   */\n      calldataload\n        /* \"#utility.yul\":14693:14711   */\n      0xffffffffffffffff\n        /* \"#utility.yul\":14685:14691   */\n      dup2\n        /* \"#utility.yul\":14682:14712   */\n      gt\n        /* \"#utility.yul\":14679:14796   */\n      iszero\n      tag_734\n      jumpi\n        /* \"#utility.yul\":14715:14794   */\n      tag_735\n      tag_483\n      jump\t// in\n    tag_735:\n        /* \"#utility.yul\":14679:14796   */\n    tag_734:\n        /* \"#utility.yul\":14820:14883   */\n      tag_736\n        /* \"#utility.yul\":14875:14882   */\n      dup8\n        /* \"#utility.yul\":14866:14872   */\n      dup3\n        /* \"#utility.yul\":14855:14864   */\n      dup9\n        /* \"#utility.yul\":14851:14873   */\n      add\n        /* \"#utility.yul\":14820:14883   */\n      tag_495\n      jump\t// in\n    tag_736:\n        /* \"#utility.yul\":14810:14883   */\n      swap5\n      pop\n        /* \"#utility.yul\":14606:14893   */\n      pop\n        /* \"#utility.yul\":14960:14962   */\n      0x20\n        /* \"#utility.yul\":14949:14958   */\n      dup6\n        /* \"#utility.yul\":14945:14963   */\n      add\n        /* \"#utility.yul\":14932:14964   */\n      calldataload\n        /* \"#utility.yul\":14991:15009   */\n      0xffffffffffffffff\n        /* \"#utility.yul\":14983:14989   */\n      dup2\n        /* \"#utility.yul\":14980:15010   */\n      gt\n        /* \"#utility.yul\":14977:15094   */\n      iszero\n      tag_737\n      jumpi\n        /* \"#utility.yul\":15013:15092   */\n      tag_738\n      tag_483\n      jump\t// in\n    tag_738:\n        /* \"#utility.yul\":14977:15094   */\n    tag_737:\n        /* \"#utility.yul\":15118:15181   */\n      tag_739\n        /* \"#utility.yul\":15173:15180   */\n      dup8\n        /* \"#utility.yul\":15164:15170   */\n      dup3\n        /* \"#utility.yul\":15153:15162   */\n      dup9\n        /* \"#utility.yul\":15149:15171   */\n      add\n        /* \"#utility.yul\":15118:15181   */\n      tag_495\n      jump\t// in\n    tag_739:\n        /* \"#utility.yul\":15108:15181   */\n      swap4\n      pop\n        /* \"#utility.yul\":14903:15191   */\n      pop\n        /* \"#utility.yul\":15258:15260   */\n      0x40\n        /* \"#utility.yul\":15247:15256   */\n      dup6\n        /* \"#utility.yul\":15243:15261   */\n      add\n        /* \"#utility.yul\":15230:15262   */\n      calldataload\n        /* \"#utility.yul\":15289:15307   */\n      0xffffffffffffffff\n        /* \"#utility.yul\":15281:15287   */\n      dup2\n        /* \"#utility.yul\":15278:15308   */\n      gt\n        /* \"#utility.yul\":15275:15392   */\n      iszero\n      tag_740\n      jumpi\n        /* \"#utility.yul\":15311:15390   */\n      tag_741\n      tag_483\n      jump\t// in\n    tag_741:\n        /* \"#utility.yul\":15275:15392   */\n    tag_740:\n        /* \"#utility.yul\":15416:15479   */\n      tag_742\n        /* \"#utility.yul\":15471:15478   */\n      dup8\n        /* \"#utility.yul\":15462:15468   */\n      dup3\n        /* \"#utility.yul\":15451:15460   */\n      dup9\n        /* \"#utility.yul\":15447:15469   */\n      add\n        /* \"#utility.yul\":15416:15479   */\n      tag_495\n      jump\t// in\n    tag_742:\n        /* \"#utility.yul\":15406:15479   */\n      swap3\n      pop\n        /* \"#utility.yul\":15201:15489   */\n      pop\n        /* \"#utility.yul\":15528:15530   */\n      0x60\n        /* \"#utility.yul\":15554:15624   */\n      tag_743\n        /* \"#utility.yul\":15616:15623   */\n      dup8\n        /* \"#utility.yul\":15607:15613   */\n      dup3\n        /* \"#utility.yul\":15596:15605   */\n      dup9\n        /* \"#utility.yul\":15592:15614   */\n      add\n        /* \"#utility.yul\":15554:15624   */\n      tag_520\n      jump\t// in\n    tag_743:\n        /* \"#utility.yul\":15544:15624   */\n      swap2\n      pop\n        /* \"#utility.yul\":15499:15634   */\n      pop\n        /* \"#utility.yul\":14302:15641   */\n      swap3\n      swap6\n      swap2\n      swap5\n      pop\n      swap3\n      pop\n      jump\t// out\n        /* \"#utility.yul\":15647:15869   */\n    tag_94:\n        /* \"#utility.yul\":15740:15744   */\n      0x00\n        /* \"#utility.yul\":15778:15780   */\n      0x20\n        /* \"#utility.yul\":15767:15776   */\n      dup3\n        /* \"#utility.yul\":15763:15781   */\n      add\n        /* \"#utility.yul\":15755:15781   */\n      swap1\n      pop\n        /* \"#utility.yul\":15791:15862   */\n      tag_745\n        /* \"#utility.yul\":15859:15860   */\n      0x00\n        /* \"#utility.yul\":15848:15857   */\n      dup4\n        /* \"#utility.yul\":15844:15861   */\n      add\n        /* \"#utility.yul\":15835:15841   */\n      dup5\n        /* \"#utility.yul\":15791:15862   */\n      tag_499\n      jump\t// in\n    tag_745:\n        /* \"#utility.yul\":15647:15869   */\n      swap3\n      swap2\n      pop\n      pop\n      jump\t// out\n        /* \"#utility.yul\":15875:15974   */\n    tag_521:\n        /* \"#utility.yul\":15946:15967   */\n      tag_747\n        /* \"#utility.yul\":15961:15966   */\n      dup2\n        /* \"#utility.yul\":15946:15967   */\n      tag_506\n      jump\t// in\n    tag_747:\n        /* \"#utility.yul\":15941:15944   */\n      dup3\n        /* \"#utility.yul\":15934:15968   */\n      mstore\n        /* \"#utility.yul\":15875:15974   */\n      pop\n      pop\n      jump\t// out\n        /* \"#utility.yul\":16040:18235   */\n    tag_522:\n        /* \"#utility.yul\":16157:16160   */\n      0x00\n        /* \"#utility.yul\":16193:16199   */\n      0x0140\n        /* \"#utility.yul\":16188:16191   */\n      dup4\n        /* \"#utility.yul\":16184:16200   */\n      add\n        /* \"#utility.yul\":16280:16284   */\n      0x00\n        /* \"#utility.yul\":16273:16278   */\n      dup4\n        /* \"#utility.yul\":16269:16285   */\n      add\n        /* \"#utility.yul\":16263:16286   */\n      mload\n        /* \"#utility.yul\":16299:16362   */\n      tag_749\n        /* \"#utility.yul\":16356:16360   */\n      0x00\n        /* \"#utility.yul\":16351:16354   */\n      dup7\n        /* \"#utility.yul\":16347:16361   */\n      add\n        /* \"#utility.yul\":16333:16345   */\n      dup3\n        /* \"#utility.yul\":16299:16362   */\n      tag_508\n      jump\t// in\n    tag_749:\n        /* \"#utility.yul\":16210:16372   */\n      pop\n        /* \"#utility.yul\":16455:16459   */\n      0x20\n        /* \"#utility.yul\":16448:16453   */\n      dup4\n        /* \"#utility.yul\":16444:16460   */\n      add\n        /* \"#utility.yul\":16438:16461   */\n      mload\n        /* \"#utility.yul\":16474:16537   */\n      tag_750\n        /* \"#utility.yul\":16531:16535   */\n      0x20\n        /* \"#utility.yul\":16526:16529   */\n      dup7\n        /* \"#utility.yul\":16522:16536   */\n      add\n        /* \"#utility.yul\":16508:16520   */\n      dup3\n        /* \"#utility.yul\":16474:16537   */\n      tag_509\n      jump\t// in\n    tag_750:\n        /* \"#utility.yul\":16382:16547   */\n      pop\n        /* \"#utility.yul\":16637:16641   */\n      0x40\n        /* \"#utility.yul\":16630:16635   */\n      dup4\n        /* \"#utility.yul\":16626:16642   */\n      add\n        /* \"#utility.yul\":16620:16643   */\n      mload\n        /* \"#utility.yul\":16690:16693   */\n      dup5\n        /* \"#utility.yul\":16684:16688   */\n      dup3\n        /* \"#utility.yul\":16680:16694   */\n      sub\n        /* \"#utility.yul\":16673:16677   */\n      0x40\n        /* \"#utility.yul\":16668:16671   */\n      dup7\n        /* \"#utility.yul\":16664:16678   */\n      add\n        /* \"#utility.yul\":16657:16695   */\n      mstore\n        /* \"#utility.yul\":16716:16789   */\n      tag_751\n        /* \"#utility.yul\":16784:16788   */\n      dup3\n        /* \"#utility.yul\":16770:16782   */\n      dup3\n        /* \"#utility.yul\":16716:16789   */\n      tag_511\n      jump\t// in\n    tag_751:\n        /* \"#utility.yul\":16708:16789   */\n      swap2\n      pop\n        /* \"#utility.yul\":16557:16800   */\n      pop\n        /* \"#utility.yul\":16893:16897   */\n      0x60\n        /* \"#utility.yul\":16886:16891   */\n      dup4\n        /* \"#utility.yul\":16882:16898   */\n      add\n        /* \"#utility.yul\":16876:16899   */\n      mload\n        /* \"#utility.yul\":16946:16949   */\n      dup5\n        /* \"#utility.yul\":16940:16944   */\n      dup3\n        /* \"#utility.yul\":16936:16950   */\n      sub\n        /* \"#utility.yul\":16929:16933   */\n      0x60\n        /* \"#utility.yul\":16924:16927   */\n      dup7\n        /* \"#utility.yul\":16920:16934   */\n      add\n        /* \"#utility.yul\":16913:16951   */\n      mstore\n        /* \"#utility.yul\":16972:17045   */\n      tag_752\n        /* \"#utility.yul\":17040:17044   */\n      dup3\n        /* \"#utility.yul\":17026:17038   */\n      dup3\n        /* \"#utility.yul\":16972:17045   */\n      tag_511\n      jump\t// in\n    tag_752:\n        /* \"#utility.yul\":16964:17045   */\n      swap2\n      pop\n        /* \"#utility.yul\":16810:17056   */\n      pop\n        /* \"#utility.yul\":17142:17146   */\n      0x80\n        /* \"#utility.yul\":17135:17140   */\n      dup4\n        /* \"#utility.yul\":17131:17147   */\n      add\n        /* \"#utility.yul\":17125:17148   */\n      mload\n        /* \"#utility.yul\":17195:17198   */\n      dup5\n        /* \"#utility.yul\":17189:17193   */\n      dup3\n        /* \"#utility.yul\":17185:17199   */\n      sub\n        /* \"#utility.yul\":17178:17182   */\n      0x80\n        /* \"#utility.yul\":17173:17176   */\n      dup7\n        /* \"#utility.yul\":17169:17183   */\n      add\n        /* \"#utility.yul\":17162:17200   */\n      mstore\n        /* \"#utility.yul\":17221:17294   */\n      tag_753\n        /* \"#utility.yul\":17289:17293   */\n      dup3\n        /* \"#utility.yul\":17275:17287   */\n      dup3\n        /* \"#utility.yul\":17221:17294   */\n      tag_511\n      jump\t// in\n    tag_753:\n        /* \"#utility.yul\":17213:17294   */\n      swap2\n      pop\n        /* \"#utility.yul\":17066:17305   */\n      pop\n        /* \"#utility.yul\":17395:17399   */\n      0xa0\n        /* \"#utility.yul\":17388:17393   */\n      dup4\n        /* \"#utility.yul\":17384:17400   */\n      add\n        /* \"#utility.yul\":17378:17401   */\n      mload\n        /* \"#utility.yul\":17414:17477   */\n      tag_754\n        /* \"#utility.yul\":17471:17475   */\n      0xa0\n        /* \"#utility.yul\":17466:17469   */\n      dup7\n        /* \"#utility.yul\":17462:17476   */\n      add\n        /* \"#utility.yul\":17448:17460   */\n      dup3\n        /* \"#utility.yul\":17414:17477   */\n      tag_508\n      jump\t// in\n    tag_754:\n        /* \"#utility.yul\":17315:17487   */\n      pop\n        /* \"#utility.yul\":17574:17578   */\n      0xc0\n        /* \"#utility.yul\":17567:17572   */\n      dup4\n        /* \"#utility.yul\":17563:17579   */\n      add\n        /* \"#utility.yul\":17557:17580   */\n      mload\n        /* \"#utility.yul\":17593:17656   */\n      tag_755\n        /* \"#utility.yul\":17650:17654   */\n      0xc0\n        /* \"#utility.yul\":17645:17648   */\n      dup7\n        /* \"#utility.yul\":17641:17655   */\n      add\n        /* \"#utility.yul\":17627:17639   */\n      dup3\n        /* \"#utility.yul\":17593:17656   */\n      tag_508\n      jump\t// in\n    tag_755:\n        /* \"#utility.yul\":17497:17666   */\n      pop\n        /* \"#utility.yul\":17752:17756   */\n      0xe0\n        /* \"#utility.yul\":17745:17750   */\n      dup4\n        /* \"#utility.yul\":17741:17757   */\n      add\n        /* \"#utility.yul\":17735:17758   */\n      mload\n        /* \"#utility.yul\":17771:17834   */\n      tag_756\n        /* \"#utility.yul\":17828:17832   */\n      0xe0\n        /* \"#utility.yul\":17823:17826   */\n      dup7\n        /* \"#utility.yul\":17819:17833   */\n      add\n        /* \"#utility.yul\":17805:17817   */\n      dup3\n        /* \"#utility.yul\":17771:17834   */\n      tag_508\n      jump\t// in\n    tag_756:\n        /* \"#utility.yul\":17676:17844   */\n      pop\n        /* \"#utility.yul\":17930:17936   */\n      0x0100\n        /* \"#utility.yul\":17923:17928   */\n      dup4\n        /* \"#utility.yul\":17919:17937   */\n      add\n        /* \"#utility.yul\":17913:17938   */\n      mload\n        /* \"#utility.yul\":17951:18010   */\n      tag_757\n        /* \"#utility.yul\":18002:18008   */\n      0x0100\n        /* \"#utility.yul\":17997:18000   */\n      dup7\n        /* \"#utility.yul\":17993:18009   */\n      add\n        /* \"#utility.yul\":17979:17991   */\n      dup3\n        /* \"#utility.yul\":17951:18010   */\n      tag_521\n      jump\t// in\n    tag_757:\n        /* \"#utility.yul\":17854:18020   */\n      pop\n        /* \"#utility.yul\":18112:18118   */\n      0x0120\n        /* \"#utility.yul\":18105:18110   */\n      dup4\n        /* \"#utility.yul\":18101:18119   */\n      add\n        /* \"#utility.yul\":18095:18120   */\n      mload\n        /* \"#utility.yul\":18133:18198   */\n      tag_758\n        /* \"#utility.yul\":18190:18196   */\n      0x0120\n        /* \"#utility.yul\":18185:18188   */\n      dup7\n        /* \"#utility.yul\":18181:18197   */\n      add\n        /* \"#utility.yul\":18167:18179   */\n      dup3\n        /* \"#utility.yul\":18133:18198   */\n      tag_508\n      jump\t// in\n    tag_758:\n        /* \"#utility.yul\":18030:18208   */\n      pop\n        /* \"#utility.yul\":18225:18229   */\n      dup1\n        /* \"#utility.yul\":18218:18229   */\n      swap2\n      pop\n        /* \"#utility.yul\":16162:18235   */\n      pop\n        /* \"#utility.yul\":16040:18235   */\n      swap3\n      swap2\n      pop\n      pop\n      jump\t// out\n        /* \"#utility.yul\":18241:18610   */\n    tag_123:\n        /* \"#utility.yul\":18382:18386   */\n      0x00\n        /* \"#utility.yul\":18420:18422   */\n      0x20\n        /* \"#utility.yul\":18409:18418   */\n      dup3\n        /* \"#utility.yul\":18405:18423   */\n      add\n        /* \"#utility.yul\":18397:18423   */\n      swap1\n      pop\n        /* \"#utility.yul\":18469:18478   */\n      dup2\n        /* \"#utility.yul\":18463:18467   */\n      dup2\n        /* \"#utility.yul\":18459:18479   */\n      sub\n        /* \"#utility.yul\":18455:18456   */\n      0x00\n        /* \"#utility.yul\":18444:18453   */\n      dup4\n        /* \"#utility.yul\":18440:18457   */\n      add\n        /* \"#utility.yul\":18433:18480   */\n      mstore\n        /* \"#utility.yul\":18497:18603   */\n      tag_760\n        /* \"#utility.yul\":18598:18602   */\n      dup2\n        /* \"#utility.yul\":18589:18595   */\n      dup5\n        /* \"#utility.yul\":18497:18603   */\n      tag_522\n      jump\t// in\n    tag_760:\n        /* \"#utility.yul\":18489:18603   */\n      swap1\n      pop\n        /* \"#utility.yul\":18241:18610   */\n      swap3\n      swap2\n      pop\n      pop\n      jump\t// out\n        /* \"#utility.yul\":18616:19235   */\n    tag_127:\n        /* \"#utility.yul\":18693:18699   */\n      0x00\n        /* \"#utility.yul\":18701:18707   */\n      dup1\n        /* \"#utility.yul\":18709:18715   */\n      0x00\n        /* \"#utility.yul\":18758:18760   */\n      0x60\n        /* \"#utility.yul\":18746:18755   */\n      dup5\n        /* \"#utility.yul\":18737:18744   */\n      dup7\n        /* \"#utility.yul\":18733:18756   */\n      sub\n        /* \"#utility.yul\":18729:18761   */\n      slt\n        /* \"#utility.yul\":18726:18845   */\n      iszero\n      tag_762\n      jumpi\n        /* \"#utility.yul\":18764:18843   */\n      tag_763\n      tag_482\n      jump\t// in\n    tag_763:\n        /* \"#utility.yul\":18726:18845   */\n    tag_762:\n        /* \"#utility.yul\":18884:18885   */\n      0x00\n        /* \"#utility.yul\":18909:18962   */\n      tag_764\n        /* \"#utility.yul\":18954:18961   */\n      dup7\n        /* \"#utility.yul\":18945:18951   */\n      dup3\n        /* \"#utility.yul\":18934:18943   */\n      dup8\n        /* \"#utility.yul\":18930:18952   */\n      add\n        /* \"#utility.yul\":18909:18962   */\n      tag_486\n      jump\t// in\n    tag_764:\n        /* \"#utility.yul\":18899:18962   */\n      swap4\n      pop\n        /* \"#utility.yul\":18855:18972   */\n      pop\n        /* \"#utility.yul\":19011:19013   */\n      0x20\n        /* \"#utility.yul\":19037:19090   */\n      tag_765\n        /* \"#utility.yul\":19082:19089   */\n      dup7\n        /* \"#utility.yul\":19073:19079   */\n      dup3\n        /* \"#utility.yul\":19062:19071   */\n      dup8\n        /* \"#utility.yul\":19058:19080   */\n      add\n        /* \"#utility.yul\":19037:19090   */\n      tag_486\n      jump\t// in\n    tag_765:\n        /* \"#utility.yul\":19027:19090   */\n      swap3\n      pop\n        /* \"#utility.yul\":18982:19100   */\n      pop\n        /* \"#utility.yul\":19139:19141   */\n      0x40\n        /* \"#utility.yul\":19165:19218   */\n      tag_766\n        /* \"#utility.yul\":19210:19217   */\n      dup7\n        /* \"#utility.yul\":19201:19207   */\n      dup3\n        /* \"#utility.yul\":19190:19199   */\n      dup8\n        /* \"#utility.yul\":19186:19208   */\n      add\n        /* \"#utility.yul\":19165:19218   */\n      tag_486\n      jump\t// in\n    tag_766:\n        /* \"#utility.yul\":19155:19218   */\n      swap2\n      pop\n        /* \"#utility.yul\":19110:19228   */\n      pop\n        /* \"#utility.yul\":18616:19235   */\n      swap3\n      pop\n      swap3\n      pop\n      swap3\n      jump\t// out\n        /* \"#utility.yul\":19241:19377   */\n    tag_523:\n        /* \"#utility.yul\":19330:19336   */\n      0x00\n        /* \"#utility.yul\":19364:19369   */\n      dup2\n        /* \"#utility.yul\":19358:19370   */\n      mload\n        /* \"#utility.yul\":19348:19370   */\n      swap1\n      pop\n        /* \"#utility.yul\":19241:19377   */\n      swap2\n      swap1\n      pop\n      jump\t// out\n        /* \"#utility.yul\":19383:19589   */\n    tag_524:\n        /* \"#utility.yul\":19504:19515   */\n      0x00\n        /* \"#utility.yul\":19538:19544   */\n      dup3\n        /* \"#utility.yul\":19533:19536   */\n      dup3\n        /* \"#utility.yul\":19526:19545   */\n      mstore\n        /* \"#utility.yul\":19578:19582   */\n      0x20\n        /* \"#utility.yul\":19573:19576   */\n      dup3\n        /* \"#utility.yul\":19569:19583   */\n      add\n        /* \"#utility.yul\":19554:19583   */\n      swap1\n      pop\n        /* \"#utility.yul\":19383:19589   */\n      swap3\n      swap2\n      pop\n      pop\n      jump\t// out\n        /* \"#utility.yul\":19595:19749   */\n    tag_525:\n        /* \"#utility.yul\":19684:19688   */\n      0x00\n        /* \"#utility.yul\":19707:19710   */\n      dup2\n        /* \"#utility.yul\":19699:19710   */\n      swap1\n      pop\n        /* \"#utility.yul\":19737:19741   */\n      0x20\n        /* \"#utility.yul\":19732:19735   */\n      dup3\n        /* \"#utility.yul\":19728:19742   */\n      add\n        /* \"#utility.yul\":19720:19742   */\n      swap1\n      pop\n        /* \"#utility.yul\":19595:19749   */\n      swap2\n      swap1\n      pop\n      jump\t// out\n        /* \"#utility.yul\":19811:21122   */\n    tag_526:\n        /* \"#utility.yul\":19914:19917   */\n      0x00\n        /* \"#utility.yul\":19950:19954   */\n      0xc0\n        /* \"#utility.yul\":19945:19948   */\n      dup4\n        /* \"#utility.yul\":19941:19955   */\n      add\n        /* \"#utility.yul\":20035:20039   */\n      0x00\n        /* \"#utility.yul\":20028:20033   */\n      dup4\n        /* \"#utility.yul\":20024:20040   */\n      add\n        /* \"#utility.yul\":20018:20041   */\n      mload\n        /* \"#utility.yul\":20054:20117   */\n      tag_771\n        /* \"#utility.yul\":20111:20115   */\n      0x00\n        /* \"#utility.yul\":20106:20109   */\n      dup7\n        /* \"#utility.yul\":20102:20116   */\n      add\n        /* \"#utility.yul\":20088:20100   */\n      dup3\n        /* \"#utility.yul\":20054:20117   */\n      tag_508\n      jump\t// in\n    tag_771:\n        /* \"#utility.yul\":19965:20127   */\n      pop\n        /* \"#utility.yul\":20214:20218   */\n      0x20\n        /* \"#utility.yul\":20207:20212   */\n      dup4\n        /* \"#utility.yul\":20203:20219   */\n      add\n        /* \"#utility.yul\":20197:20220   */\n      mload\n        /* \"#utility.yul\":20233:20296   */\n      tag_772\n        /* \"#utility.yul\":20290:20294   */\n      0x20\n        /* \"#utility.yul\":20285:20288   */\n      dup7\n        /* \"#utility.yul\":20281:20295   */\n      add\n        /* \"#utility.yul\":20267:20279   */\n      dup3\n        /* \"#utility.yul\":20233:20296   */\n      tag_509\n      jump\t// in\n    tag_772:\n        /* \"#utility.yul\":20137:20306   */\n      pop\n        /* \"#utility.yul\":20394:20398   */\n      0x40\n        /* \"#utility.yul\":20387:20392   */\n      dup4\n        /* \"#utility.yul\":20383:20399   */\n      add\n        /* \"#utility.yul\":20377:20400   */\n      mload\n        /* \"#utility.yul\":20447:20450   */\n      dup5\n        /* \"#utility.yul\":20441:20445   */\n      dup3\n        /* \"#utility.yul\":20437:20451   */\n      sub\n        /* \"#utility.yul\":20430:20434   */\n      0x40\n        /* \"#utility.yul\":20425:20428   */\n      dup7\n        /* \"#utility.yul\":20421:20435   */\n      add\n        /* \"#utility.yul\":20414:20452   */\n      mstore\n        /* \"#utility.yul\":20473:20546   */\n      tag_773\n        /* \"#utility.yul\":20541:20545   */\n      dup3\n        /* \"#utility.yul\":20527:20539   */\n      dup3\n        /* \"#utility.yul\":20473:20546   */\n      tag_511\n      jump\t// in\n    tag_773:\n        /* \"#utility.yul\":20465:20546   */\n      swap2\n      pop\n        /* \"#utility.yul\":20316:20557   */\n      pop\n        /* \"#utility.yul\":20642:20646   */\n      0x60\n        /* \"#utility.yul\":20635:20640   */\n      dup4\n        /* \"#utility.yul\":20631:20647   */\n      add\n        /* \"#utility.yul\":20625:20648   */\n      mload\n        /* \"#utility.yul\":20661:20724   */\n      tag_774\n        /* \"#utility.yul\":20718:20722   */\n      0x60\n        /* \"#utility.yul\":20713:20716   */\n      dup7\n        /* \"#utility.yul\":20709:20723   */\n      add\n        /* \"#utility.yul\":20695:20707   */\n      dup3\n        /* \"#utility.yul\":20661:20724   */\n      tag_508\n      jump\t// in\n    tag_774:\n        /* \"#utility.yul\":20567:20734   */\n      pop\n        /* \"#utility.yul\":20824:20828   */\n      0x80\n        /* \"#utility.yul\":20817:20822   */\n      dup4\n        /* \"#utility.yul\":20813:20829   */\n      add\n        /* \"#utility.yul\":20807:20830   */\n      mload\n        /* \"#utility.yul\":20843:20906   */\n      tag_775\n        /* \"#utility.yul\":20900:20904   */\n      0x80\n        /* \"#utility.yul\":20895:20898   */\n      dup7\n        /* \"#utility.yul\":20891:20905   */\n      add\n        /* \"#utility.yul\":20877:20889   */\n      dup3\n        /* \"#utility.yul\":20843:20906   */\n      tag_508\n      jump\t// in\n    tag_775:\n        /* \"#utility.yul\":20744:20916   */\n      pop\n        /* \"#utility.yul\":21003:21007   */\n      0xa0\n        /* \"#utility.yul\":20996:21001   */\n      dup4\n        /* \"#utility.yul\":20992:21008   */\n      add\n        /* \"#utility.yul\":20986:21009   */\n      mload\n        /* \"#utility.yul\":21022:21085   */\n      tag_776\n        /* \"#utility.yul\":21079:21083   */\n      0xa0\n        /* \"#utility.yul\":21074:21077   */\n      dup7\n        /* \"#utility.yul\":21070:21084   */\n      add\n        /* \"#utility.yul\":21056:21068   */\n      dup3\n        /* \"#utility.yul\":21022:21085   */\n      tag_508\n      jump\t// in\n    tag_776:\n        /* \"#utility.yul\":20926:21095   */\n      pop\n        /* \"#utility.yul\":21112:21116   */\n      dup1\n        /* \"#utility.yul\":21105:21116   */\n      swap2\n      pop\n        /* \"#utility.yul\":19919:21122   */\n      pop\n        /* \"#utility.yul\":19811:21122   */\n      swap3\n      swap2\n      pop\n      pop\n      jump\t// out\n        /* \"#utility.yul\":21128:21372   */\n    tag_527:\n        /* \"#utility.yul\":21241:21251   */\n      0x00\n        /* \"#utility.yul\":21276:21366   */\n      tag_778\n        /* \"#utility.yul\":21362:21365   */\n      dup4\n        /* \"#utility.yul\":21354:21360   */\n      dup4\n        /* \"#utility.yul\":21276:21366   */\n      tag_526\n      jump\t// in\n    tag_778:\n        /* \"#utility.yul\":21262:21366   */\n      swap1\n      pop\n        /* \"#utility.yul\":21128:21372   */\n      swap3\n      swap2\n      pop\n      pop\n      jump\t// out\n        /* \"#utility.yul\":21378:21513   */\n    tag_528:\n        /* \"#utility.yul\":21470:21474   */\n      0x00\n        /* \"#utility.yul\":21502:21506   */\n      0x20\n        /* \"#utility.yul\":21497:21500   */\n      dup3\n        /* \"#utility.yul\":21493:21507   */\n      add\n        /* \"#utility.yul\":21485:21507   */\n      swap1\n      pop\n        /* \"#utility.yul\":21378:21513   */\n      swap2\n      swap1\n      pop\n      jump\t// out\n        /* \"#utility.yul\":21579:22666   */\n    tag_529:\n        /* \"#utility.yul\":21742:21745   */\n      0x00\n        /* \"#utility.yul\":21771:21847   */\n      tag_781\n        /* \"#utility.yul\":21841:21846   */\n      dup3\n        /* \"#utility.yul\":21771:21847   */\n      tag_523\n      jump\t// in\n    tag_781:\n        /* \"#utility.yul\":21863:21971   */\n      tag_782\n        /* \"#utility.yul\":21964:21970   */\n      dup2\n        /* \"#utility.yul\":21959:21962   */\n      dup6\n        /* \"#utility.yul\":21863:21971   */\n      tag_524\n      jump\t// in\n    tag_782:\n        /* \"#utility.yul\":21856:21971   */\n      swap4\n      pop\n        /* \"#utility.yul\":21997:22000   */\n      dup4\n        /* \"#utility.yul\":22042:22046   */\n      0x20\n        /* \"#utility.yul\":22034:22040   */\n      dup3\n        /* \"#utility.yul\":22030:22047   */\n      mul\n        /* \"#utility.yul\":22025:22028   */\n      dup6\n        /* \"#utility.yul\":22021:22048   */\n      add\n        /* \"#utility.yul\":22072:22150   */\n      tag_783\n        /* \"#utility.yul\":22144:22149   */\n      dup6\n        /* \"#utility.yul\":22072:22150   */\n      tag_525\n      jump\t// in\n    tag_783:\n        /* \"#utility.yul\":22173:22180   */\n      dup1\n        /* \"#utility.yul\":22204:22205   */\n      0x00\n        /* \"#utility.yul\":22189:22621   */\n    tag_784:\n        /* \"#utility.yul\":22214:22220   */\n      dup6\n        /* \"#utility.yul\":22211:22212   */\n      dup2\n        /* \"#utility.yul\":22208:22221   */\n      lt\n        /* \"#utility.yul\":22189:22621   */\n      iszero\n      tag_786\n      jumpi\n        /* \"#utility.yul\":22285:22294   */\n      dup5\n        /* \"#utility.yul\":22279:22283   */\n      dup5\n        /* \"#utility.yul\":22275:22295   */\n      sub\n        /* \"#utility.yul\":22270:22273   */\n      dup10\n        /* \"#utility.yul\":22263:22296   */\n      mstore\n        /* \"#utility.yul\":22336:22342   */\n      dup2\n        /* \"#utility.yul\":22330:22343   */\n      mload\n        /* \"#utility.yul\":22364:22472   */\n      tag_787\n        /* \"#utility.yul\":22467:22471   */\n      dup6\n        /* \"#utility.yul\":22452:22465   */\n      dup3\n        /* \"#utility.yul\":22364:22472   */\n      tag_527\n      jump\t// in\n    tag_787:\n        /* \"#utility.yul\":22356:22472   */\n      swap5\n      pop\n        /* \"#utility.yul\":22495:22577   */\n      tag_788\n        /* \"#utility.yul\":22570:22576   */\n      dup4\n        /* \"#utility.yul\":22495:22577   */\n      tag_528\n      jump\t// in\n    tag_788:\n        /* \"#utility.yul\":22485:22577   */\n      swap3\n      pop\n        /* \"#utility.yul\":22606:22610   */\n      0x20\n        /* \"#utility.yul\":22601:22604   */\n      dup11\n        /* \"#utility.yul\":22597:22611   */\n      add\n        /* \"#utility.yul\":22590:22611   */\n      swap10\n      pop\n        /* \"#utility.yul\":22249:22621   */\n      pop\n        /* \"#utility.yul\":22236:22237   */\n      0x01\n        /* \"#utility.yul\":22233:22234   */\n      dup2\n        /* \"#utility.yul\":22229:22238   */\n      add\n        /* \"#utility.yul\":22224:22238   */\n      swap1\n      pop\n        /* \"#utility.yul\":22189:22621   */\n      jump(tag_784)\n    tag_786:\n        /* \"#utility.yul\":22193:22207   */\n      pop\n        /* \"#utility.yul\":22637:22641   */\n      dup3\n        /* \"#utility.yul\":22630:22641   */\n      swap8\n      pop\n        /* \"#utility.yul\":22657:22660   */\n      dup8\n        /* \"#utility.yul\":22650:22660   */\n      swap6\n      pop\n        /* \"#utility.yul\":21747:22666   */\n      pop\n      pop\n      pop\n      pop\n      pop\n        /* \"#utility.yul\":21579:22666   */\n      swap3\n      swap2\n      pop\n      pop\n      jump\t// out\n        /* \"#utility.yul\":22672:23353   */\n    tag_130:\n        /* \"#utility.yul\":22915:22919   */\n      0x00\n        /* \"#utility.yul\":22953:22955   */\n      0x60\n        /* \"#utility.yul\":22942:22951   */\n      dup3\n        /* \"#utility.yul\":22938:22956   */\n      add\n        /* \"#utility.yul\":22930:22956   */\n      swap1\n      pop\n        /* \"#utility.yul\":23002:23011   */\n      dup2\n        /* \"#utility.yul\":22996:23000   */\n      dup2\n        /* \"#utility.yul\":22992:23012   */\n      sub\n        /* \"#utility.yul\":22988:22989   */\n      0x00\n        /* \"#utility.yul\":22977:22986   */\n      dup4\n        /* \"#utility.yul\":22973:22990   */\n      add\n        /* \"#utility.yul\":22966:23013   */\n      mstore\n        /* \"#utility.yul\":23030:23182   */\n      tag_790\n        /* \"#utility.yul\":23177:23181   */\n      dup2\n        /* \"#utility.yul\":23168:23174   */\n      dup7\n        /* \"#utility.yul\":23030:23182   */\n      tag_529\n      jump\t// in\n    tag_790:\n        /* \"#utility.yul\":23022:23182   */\n      swap1\n      pop\n        /* \"#utility.yul\":23192:23264   */\n      tag_791\n        /* \"#utility.yul\":23260:23262   */\n      0x20\n        /* \"#utility.yul\":23249:23258   */\n      dup4\n        /* \"#utility.yul\":23245:23263   */\n      add\n        /* \"#utility.yul\":23236:23242   */\n      dup6\n        /* \"#utility.yul\":23192:23264   */\n      tag_496\n      jump\t// in\n    tag_791:\n        /* \"#utility.yul\":23274:23346   */\n      tag_792\n        /* \"#utility.yul\":23342:23344   */\n      0x40\n        /* \"#utility.yul\":23331:23340   */\n      dup4\n        /* \"#utility.yul\":23327:23345   */\n      add\n        /* \"#utility.yul\":23318:23324   */\n      dup5\n        /* \"#utility.yul\":23274:23346   */\n      tag_496\n      jump\t// in\n    tag_792:\n        /* \"#utility.yul\":22672:23353   */\n      swap5\n      swap4\n      pop\n      pop\n      pop\n      pop\n      jump\t// out\n        /* \"#utility.yul\":23359:23497   */\n    tag_530:\n        /* \"#utility.yul\":23450:23456   */\n      0x00\n        /* \"#utility.yul\":23484:23489   */\n      dup2\n        /* \"#utility.yul\":23478:23490   */\n      mload\n        /* \"#utility.yul\":23468:23490   */\n      swap1\n      pop\n        /* \"#utility.yul\":23359:23497   */\n      swap2\n      swap1\n      pop\n      jump\t// out\n        /* \"#utility.yul\":23503:23711   */\n    tag_531:\n        /* \"#utility.yul\":23626:23637   */\n      0x00\n        /* \"#utility.yul\":23660:23666   */\n      dup3\n        /* \"#utility.yul\":23655:23658   */\n      dup3\n        /* \"#utility.yul\":23648:23667   */\n      mstore\n        /* \"#utility.yul\":23700:23704   */\n      0x20\n        /* \"#utility.yul\":23695:23698   */\n      dup3\n        /* \"#utility.yul\":23691:23705   */\n      add\n        /* \"#utility.yul\":23676:23705   */\n      swap1\n      pop\n        /* \"#utility.yul\":23503:23711   */\n      swap3\n      swap2\n      pop\n      pop\n      jump\t// out\n        /* \"#utility.yul\":23717:23873   */\n    tag_532:\n        /* \"#utility.yul\":23808:23812   */\n      0x00\n        /* \"#utility.yul\":23831:23834   */\n      dup2\n        /* \"#utility.yul\":23823:23834   */\n      swap1\n      pop\n        /* \"#utility.yul\":23861:23865   */\n      0x20\n        /* \"#utility.yul\":23856:23859   */\n      dup3\n        /* \"#utility.yul\":23852:23866   */\n      add\n        /* \"#utility.yul\":23844:23866   */\n      swap1\n      pop\n        /* \"#utility.yul\":23717:23873   */\n      swap2\n      swap1\n      pop\n      jump\t// out\n        /* \"#utility.yul\":23939:26124   */\n    tag_533:\n        /* \"#utility.yul\":24046:24049   */\n      0x00\n        /* \"#utility.yul\":24082:24088   */\n      0x0140\n        /* \"#utility.yul\":24077:24080   */\n      dup4\n        /* \"#utility.yul\":24073:24089   */\n      add\n        /* \"#utility.yul\":24169:24173   */\n      0x00\n        /* \"#utility.yul\":24162:24167   */\n      dup4\n        /* \"#utility.yul\":24158:24174   */\n      add\n        /* \"#utility.yul\":24152:24175   */\n      mload\n        /* \"#utility.yul\":24188:24251   */\n      tag_797\n        /* \"#utility.yul\":24245:24249   */\n      0x00\n        /* \"#utility.yul\":24240:24243   */\n      dup7\n        /* \"#utility.yul\":24236:24250   */\n      add\n        /* \"#utility.yul\":24222:24234   */\n      dup3\n        /* \"#utility.yul\":24188:24251   */\n      tag_508\n      jump\t// in\n    tag_797:\n        /* \"#utility.yul\":24099:24261   */\n      pop\n        /* \"#utility.yul\":24344:24348   */\n      0x20\n        /* \"#utility.yul\":24337:24342   */\n      dup4\n        /* \"#utility.yul\":24333:24349   */\n      add\n        /* \"#utility.yul\":24327:24350   */\n      mload\n        /* \"#utility.yul\":24363:24426   */\n      tag_798\n        /* \"#utility.yul\":24420:24424   */\n      0x20\n        /* \"#utility.yul\":24415:24418   */\n      dup7\n        /* \"#utility.yul\":24411:24425   */\n      add\n        /* \"#utility.yul\":24397:24409   */\n      dup3\n        /* \"#utility.yul\":24363:24426   */\n      tag_509\n      jump\t// in\n    tag_798:\n        /* \"#utility.yul\":24271:24436   */\n      pop\n        /* \"#utility.yul\":24526:24530   */\n      0x40\n        /* \"#utility.yul\":24519:24524   */\n      dup4\n        /* \"#utility.yul\":24515:24531   */\n      add\n        /* \"#utility.yul\":24509:24532   */\n      mload\n        /* \"#utility.yul\":24579:24582   */\n      dup5\n        /* \"#utility.yul\":24573:24577   */\n      dup3\n        /* \"#utility.yul\":24569:24583   */\n      sub\n        /* \"#utility.yul\":24562:24566   */\n      0x40\n        /* \"#utility.yul\":24557:24560   */\n      dup7\n        /* \"#utility.yul\":24553:24567   */\n      add\n        /* \"#utility.yul\":24546:24584   */\n      mstore\n        /* \"#utility.yul\":24605:24678   */\n      tag_799\n        /* \"#utility.yul\":24673:24677   */\n      dup3\n        /* \"#utility.yul\":24659:24671   */\n      dup3\n        /* \"#utility.yul\":24605:24678   */\n      tag_511\n      jump\t// in\n    tag_799:\n        /* \"#utility.yul\":24597:24678   */\n      swap2\n      pop\n        /* \"#utility.yul\":24446:24689   */\n      pop\n        /* \"#utility.yul\":24782:24786   */\n      0x60\n        /* \"#utility.yul\":24775:24780   */\n      dup4\n        /* \"#utility.yul\":24771:24787   */\n      add\n        /* \"#utility.yul\":24765:24788   */\n      mload\n        /* \"#utility.yul\":24835:24838   */\n      dup5\n        /* \"#utility.yul\":24829:24833   */\n      dup3\n        /* \"#utility.yul\":24825:24839   */\n      sub\n        /* \"#utility.yul\":24818:24822   */\n      0x60\n        /* \"#utility.yul\":24813:24816   */\n      dup7\n        /* \"#utility.yul\":24809:24823   */\n      add\n        /* \"#utility.yul\":24802:24840   */\n      mstore\n        /* \"#utility.yul\":24861:24934   */\n      tag_800\n        /* \"#utility.yul\":24929:24933   */\n      dup3\n        /* \"#utility.yul\":24915:24927   */\n      dup3\n        /* \"#utility.yul\":24861:24934   */\n      tag_511\n      jump\t// in\n    tag_800:\n        /* \"#utility.yul\":24853:24934   */\n      swap2\n      pop\n        /* \"#utility.yul\":24699:24945   */\n      pop\n        /* \"#utility.yul\":25031:25035   */\n      0x80\n        /* \"#utility.yul\":25024:25029   */\n      dup4\n        /* \"#utility.yul\":25020:25036   */\n      add\n        /* \"#utility.yul\":25014:25037   */\n      mload\n        /* \"#utility.yul\":25084:25087   */\n      dup5\n        /* \"#utility.yul\":25078:25082   */\n      dup3\n        /* \"#utility.yul\":25074:25088   */\n      sub\n        /* \"#utility.yul\":25067:25071   */\n      0x80\n        /* \"#utility.yul\":25062:25065   */\n      dup7\n        /* \"#utility.yul\":25058:25072   */\n      add\n        /* \"#utility.yul\":25051:25089   */\n      mstore\n        /* \"#utility.yul\":25110:25183   */\n      tag_801\n        /* \"#utility.yul\":25178:25182   */\n      dup3\n        /* \"#utility.yul\":25164:25176   */\n      dup3\n        /* \"#utility.yul\":25110:25183   */\n      tag_511\n      jump\t// in\n    tag_801:\n        /* \"#utility.yul\":25102:25183   */\n      swap2\n      pop\n        /* \"#utility.yul\":24955:25194   */\n      pop\n        /* \"#utility.yul\":25284:25288   */\n      0xa0\n        /* \"#utility.yul\":25277:25282   */\n      dup4\n        /* \"#utility.yul\":25273:25289   */\n      add\n        /* \"#utility.yul\":25267:25290   */\n      mload\n        /* \"#utility.yul\":25303:25366   */\n      tag_802\n        /* \"#utility.yul\":25360:25364   */\n      0xa0\n        /* \"#utility.yul\":25355:25358   */\n      dup7\n        /* \"#utility.yul\":25351:25365   */\n      add\n        /* \"#utility.yul\":25337:25349   */\n      dup3\n        /* \"#utility.yul\":25303:25366   */\n      tag_508\n      jump\t// in\n    tag_802:\n        /* \"#utility.yul\":25204:25376   */\n      pop\n        /* \"#utility.yul\":25463:25467   */\n      0xc0\n        /* \"#utility.yul\":25456:25461   */\n      dup4\n        /* \"#utility.yul\":25452:25468   */\n      add\n        /* \"#utility.yul\":25446:25469   */\n      mload\n        /* \"#utility.yul\":25482:25545   */\n      tag_803\n        /* \"#utility.yul\":25539:25543   */\n      0xc0\n        /* \"#utility.yul\":25534:25537   */\n      dup7\n        /* \"#utility.yul\":25530:25544   */\n      add\n        /* \"#utility.yul\":25516:25528   */\n      dup3\n        /* \"#utility.yul\":25482:25545   */\n      tag_508\n      jump\t// in\n    tag_803:\n        /* \"#utility.yul\":25386:25555   */\n      pop\n        /* \"#utility.yul\":25641:25645   */\n      0xe0\n        /* \"#utility.yul\":25634:25639   */\n      dup4\n        /* \"#utility.yul\":25630:25646   */\n      add\n        /* \"#utility.yul\":25624:25647   */\n      mload\n        /* \"#utility.yul\":25660:25723   */\n      tag_804\n        /* \"#utility.yul\":25717:25721   */\n      0xe0\n        /* \"#utility.yul\":25712:25715   */\n      dup7\n        /* \"#utility.yul\":25708:25722   */\n      add\n        /* \"#utility.yul\":25694:25706   */\n      dup3\n        /* \"#utility.yul\":25660:25723   */\n      tag_508\n      jump\t// in\n    tag_804:\n        /* \"#utility.yul\":25565:25733   */\n      pop\n        /* \"#utility.yul\":25819:25825   */\n      0x0100\n        /* \"#utility.yul\":25812:25817   */\n      dup4\n        /* \"#utility.yul\":25808:25826   */\n      add\n        /* \"#utility.yul\":25802:25827   */\n      mload\n        /* \"#utility.yul\":25840:25899   */\n      tag_805\n        /* \"#utility.yul\":25891:25897   */\n      0x0100\n        /* \"#utility.yul\":25886:25889   */\n      dup7\n        /* \"#utility.yul\":25882:25898   */\n      add\n        /* \"#utility.yul\":25868:25880   */\n      dup3\n        /* \"#utility.yul\":25840:25899   */\n      tag_521\n      jump\t// in\n    tag_805:\n        /* \"#utility.yul\":25743:25909   */\n      pop\n        /* \"#utility.yul\":26001:26007   */\n      0x0120\n        /* \"#utility.yul\":25994:25999   */\n      dup4\n        /* \"#utility.yul\":25990:26008   */\n      add\n        /* \"#utility.yul\":25984:26009   */\n      mload\n        /* \"#utility.yul\":26022:26087   */\n      tag_806\n        /* \"#utility.yul\":26079:26085   */\n      0x0120\n        /* \"#utility.yul\":26074:26077   */\n      dup7\n        /* \"#utility.yul\":26070:26086   */\n      add\n        /* \"#utility.yul\":26056:26068   */\n      dup3\n        /* \"#utility.yul\":26022:26087   */\n      tag_508\n      jump\t// in\n    tag_806:\n        /* \"#utility.yul\":25919:26097   */\n      pop\n        /* \"#utility.yul\":26114:26118   */\n      dup1\n        /* \"#utility.yul\":26107:26118   */\n      swap2\n      pop\n        /* \"#utility.yul\":24051:26124   */\n      pop\n        /* \"#utility.yul\":23939:26124   */\n      swap3\n      swap2\n      pop\n      pop\n      jump\t// out\n        /* \"#utility.yul\":26130:26382   */\n    tag_534:\n        /* \"#utility.yul\":26247:26257   */\n      0x00\n        /* \"#utility.yul\":26282:26376   */\n      tag_808\n        /* \"#utility.yul\":26372:26375   */\n      dup4\n        /* \"#utility.yul\":26364:26370   */\n      dup4\n        /* \"#utility.yul\":26282:26376   */\n      tag_533\n      jump\t// in\n    tag_808:\n        /* \"#utility.yul\":26268:26376   */\n      swap1\n      pop\n        /* \"#utility.yul\":26130:26382   */\n      swap3\n      swap2\n      pop\n      pop\n      jump\t// out\n        /* \"#utility.yul\":26388:26525   */\n    tag_535:\n        /* \"#utility.yul\":26482:26486   */\n      0x00\n        /* \"#utility.yul\":26514:26518   */\n      0x20\n        /* \"#utility.yul\":26509:26512   */\n      dup3\n        /* \"#utility.yul\":26505:26519   */\n      add\n        /* \"#utility.yul\":26497:26519   */\n      swap1\n      pop\n        /* \"#utility.yul\":26388:26525   */\n      swap2\n      swap1\n      pop\n      jump\t// out\n        /* \"#utility.yul\":26595:27698   */\n    tag_536:\n        /* \"#utility.yul\":26762:26765   */\n      0x00\n        /* \"#utility.yul\":26791:26869   */\n      tag_811\n        /* \"#utility.yul\":26863:26868   */\n      dup3\n        /* \"#utility.yul\":26791:26869   */\n      tag_530\n      jump\t// in\n    tag_811:\n        /* \"#utility.yul\":26885:26995   */\n      tag_812\n        /* \"#utility.yul\":26988:26994   */\n      dup2\n        /* \"#utility.yul\":26983:26986   */\n      dup6\n        /* \"#utility.yul\":26885:26995   */\n      tag_531\n      jump\t// in\n    tag_812:\n        /* \"#utility.yul\":26878:26995   */\n      swap4\n      pop\n        /* \"#utility.yul\":27021:27024   */\n      dup4\n        /* \"#utility.yul\":27066:27070   */\n      0x20\n        /* \"#utility.yul\":27058:27064   */\n      dup3\n        /* \"#utility.yul\":27054:27071   */\n      mul\n        /* \"#utility.yul\":27049:27052   */\n      dup6\n        /* \"#utility.yul\":27045:27072   */\n      add\n        /* \"#utility.yul\":27096:27176   */\n      tag_813\n        /* \"#utility.yul\":27170:27175   */\n      dup6\n        /* \"#utility.yul\":27096:27176   */\n      tag_532\n      jump\t// in\n    tag_813:\n        /* \"#utility.yul\":27199:27206   */\n      dup1\n        /* \"#utility.yul\":27230:27231   */\n      0x00\n        /* \"#utility.yul\":27215:27653   */\n    tag_814:\n        /* \"#utility.yul\":27240:27246   */\n      dup6\n        /* \"#utility.yul\":27237:27238   */\n      dup2\n        /* \"#utility.yul\":27234:27247   */\n      lt\n        /* \"#utility.yul\":27215:27653   */\n      iszero\n      tag_816\n      jumpi\n        /* \"#utility.yul\":27311:27320   */\n      dup5\n        /* \"#utility.yul\":27305:27309   */\n      dup5\n        /* \"#utility.yul\":27301:27321   */\n      sub\n        /* \"#utility.yul\":27296:27299   */\n      dup10\n        /* \"#utility.yul\":27289:27322   */\n      mstore\n        /* \"#utility.yul\":27362:27368   */\n      dup2\n        /* \"#utility.yul\":27356:27369   */\n      mload\n        /* \"#utility.yul\":27390:27502   */\n      tag_817\n        /* \"#utility.yul\":27497:27501   */\n      dup6\n        /* \"#utility.yul\":27482:27495   */\n      dup3\n        /* \"#utility.yul\":27390:27502   */\n      tag_534\n      jump\t// in\n    tag_817:\n        /* \"#utility.yul\":27382:27502   */\n      swap5\n      pop\n        /* \"#utility.yul\":27525:27609   */\n      tag_818\n        /* \"#utility.yul\":27602:27608   */\n      dup4\n        /* \"#utility.yul\":27525:27609   */\n      tag_535\n      jump\t// in\n    tag_818:\n        /* \"#utility.yul\":27515:27609   */\n      swap3\n      pop\n        /* \"#utility.yul\":27638:27642   */\n      0x20\n        /* \"#utility.yul\":27633:27636   */\n      dup11\n        /* \"#utility.yul\":27629:27643   */\n      add\n        /* \"#utility.yul\":27622:27643   */\n      swap10\n      pop\n        /* \"#utility.yul\":27275:27653   */\n      pop\n        /* \"#utility.yul\":27262:27263   */\n      0x01\n        /* \"#utility.yul\":27259:27260   */\n      dup2\n        /* \"#utility.yul\":27255:27264   */\n      add\n        /* \"#utility.yul\":27250:27264   */\n      swap1\n      pop\n        /* \"#utility.yul\":27215:27653   */\n      jump(tag_814)\n    tag_816:\n        /* \"#utility.yul\":27219:27233   */\n      pop\n        /* \"#utility.yul\":27669:27673   */\n      dup3\n        /* \"#utility.yul\":27662:27673   */\n      swap8\n      pop\n        /* \"#utility.yul\":27689:27692   */\n      dup8\n        /* \"#utility.yul\":27682:27692   */\n      swap6\n      pop\n        /* \"#utility.yul\":26767:27698   */\n      pop\n      pop\n      pop\n      pop\n      pop\n        /* \"#utility.yul\":26595:27698   */\n      swap3\n      swap2\n      pop\n      pop\n      jump\t// out\n        /* \"#utility.yul\":27704:28393   */\n    tag_140:\n        /* \"#utility.yul\":27951:27955   */\n      0x00\n        /* \"#utility.yul\":27989:27991   */\n      0x60\n        /* \"#utility.yul\":27978:27987   */\n      dup3\n        /* \"#utility.yul\":27974:27992   */\n      add\n        /* \"#utility.yul\":27966:27992   */\n      swap1\n      pop\n        /* \"#utility.yul\":28038:28047   */\n      dup2\n        /* \"#utility.yul\":28032:28036   */\n      dup2\n        /* \"#utility.yul\":28028:28048   */\n      sub\n        /* \"#utility.yul\":28024:28025   */\n      0x00\n        /* \"#utility.yul\":28013:28022   */\n      dup4\n        /* \"#utility.yul\":28009:28026   */\n      add\n        /* \"#utility.yul\":28002:28049   */\n      mstore\n        /* \"#utility.yul\":28066:28222   */\n      tag_820\n        /* \"#utility.yul\":28217:28221   */\n      dup2\n        /* \"#utility.yul\":28208:28214   */\n      dup7\n        /* \"#utility.yul\":28066:28222   */\n      tag_536\n      jump\t// in\n    tag_820:\n        /* \"#utility.yul\":28058:28222   */\n      swap1\n      pop\n        /* \"#utility.yul\":28232:28304   */\n      tag_821\n        /* \"#utility.yul\":28300:28302   */\n      0x20\n        /* \"#utility.yul\":28289:28298   */\n      dup4\n        /* \"#utility.yul\":28285:28303   */\n      add\n        /* \"#utility.yul\":28276:28282   */\n      dup6\n        /* \"#utility.yul\":28232:28304   */\n      tag_496\n      jump\t// in\n    tag_821:\n        /* \"#utility.yul\":28314:28386   */\n      tag_822\n        /* \"#utility.yul\":28382:28384   */\n      0x40\n        /* \"#utility.yul\":28371:28380   */\n      dup4\n        /* \"#utility.yul\":28367:28385   */\n      add\n        /* \"#utility.yul\":28358:28364   */\n      dup5\n        /* \"#utility.yul\":28314:28386   */\n      tag_496\n      jump\t// in\n    tag_822:\n        /* \"#utility.yul\":27704:28393   */\n      swap5\n      swap4\n      pop\n      pop\n      pop\n      pop\n      jump\t// out\n        /* \"#utility.yul\":28399:28572   */\n    tag_537:\n        /* \"#utility.yul\":28539:28564   */\n      0x5175657374696f6e20646f6573206e6f74206578697374000000000000000000\n        /* \"#utility.yul\":28535:28536   */\n      0x00\n        /* \"#utility.yul\":28527:28533   */\n      dup3\n        /* \"#utility.yul\":28523:28537   */\n      add\n        /* \"#utility.yul\":28516:28565   */\n      mstore\n        /* \"#utility.yul\":28399:28572   */\n      pop\n      jump\t// out\n        /* \"#utility.yul\":28578:28944   */\n    tag_538:\n        /* \"#utility.yul\":28720:28723   */\n      0x00\n        /* \"#utility.yul\":28741:28808   */\n      tag_825\n        /* \"#utility.yul\":28805:28807   */\n      0x17\n        /* \"#utility.yul\":28800:28803   */\n      dup4\n        /* \"#utility.yul\":28741:28808   */\n      tag_501\n      jump\t// in\n    tag_825:\n        /* \"#utility.yul\":28734:28808   */\n      swap2\n      pop\n        /* \"#utility.yul\":28817:28910   */\n      tag_826\n        /* \"#utility.yul\":28906:28909   */\n      dup3\n        /* \"#utility.yul\":28817:28910   */\n      tag_537\n      jump\t// in\n    tag_826:\n        /* \"#utility.yul\":28935:28937   */\n      0x20\n        /* \"#utility.yul\":28930:28933   */\n      dup3\n        /* \"#utility.yul\":28926:28938   */\n      add\n        /* \"#utility.yul\":28919:28938   */\n      swap1\n      pop\n        /* \"#utility.yul\":28578:28944   */\n      swap2\n      swap1\n      pop\n      jump\t// out\n        /* \"#utility.yul\":28950:29369   */\n    tag_144:\n        /* \"#utility.yul\":29116:29120   */\n      0x00\n        /* \"#utility.yul\":29154:29156   */\n      0x20\n        /* \"#utility.yul\":29143:29152   */\n      dup3\n        /* \"#utility.yul\":29139:29157   */\n      add\n        /* \"#utility.yul\":29131:29157   */\n      swap1\n      pop\n        /* \"#utility.yul\":29203:29212   */\n      dup2\n        /* \"#utility.yul\":29197:29201   */\n      dup2\n        /* \"#utility.yul\":29193:29213   */\n      sub\n        /* \"#utility.yul\":29189:29190   */\n      0x00\n        /* \"#utility.yul\":29178:29187   */\n      dup4\n        /* \"#utility.yul\":29174:29191   */\n      add\n        /* \"#utility.yul\":29167:29214   */\n      mstore\n        /* \"#utility.yul\":29231:29362   */\n      tag_828\n        /* \"#utility.yul\":29357:29361   */\n      dup2\n        /* \"#utility.yul\":29231:29362   */\n      tag_538\n      jump\t// in\n    tag_828:\n        /* \"#utility.yul\":29223:29362   */\n      swap1\n      pop\n        /* \"#utility.yul\":28950:29369   */\n      swap2\n      swap1\n      pop\n      jump\t// out\n        /* \"#utility.yul\":29375:29551   */\n    tag_539:\n        /* \"#utility.yul\":29515:29543   */\n      0x5175657374696f6e20697320616c726561647920636c6f736564000000000000\n        /* \"#utility.yul\":29511:29512   */\n      0x00\n        /* \"#utility.yul\":29503:29509   */\n      dup3\n        /* \"#utility.yul\":29499:29513   */\n      add\n        /* \"#utility.yul\":29492:29544   */\n      mstore\n        /* \"#utility.yul\":29375:29551   */\n      pop\n      jump\t// out\n        /* \"#utility.yul\":29557:29923   */\n    tag_540:\n        /* \"#utility.yul\":29699:29702   */\n      0x00\n        /* \"#utility.yul\":29720:29787   */\n      tag_831\n        /* \"#utility.yul\":29784:29786   */\n      0x1a\n        /* \"#utility.yul\":29779:29782   */\n      dup4\n        /* \"#utility.yul\":29720:29787   */\n      tag_501\n      jump\t// in\n    tag_831:\n        /* \"#utility.yul\":29713:29787   */\n      swap2\n      pop\n        /* \"#utility.yul\":29796:29889   */\n      tag_832\n        /* \"#utility.yul\":29885:29888   */\n      dup3\n        /* \"#utility.yul\":29796:29889   */\n      tag_539\n      jump\t// in\n    tag_832:\n        /* \"#utility.yul\":29914:29916   */\n      0x20\n        /* \"#utility.yul\":29909:29912   */\n      dup3\n        /* \"#utility.yul\":29905:29917   */\n      add\n        /* \"#utility.yul\":29898:29917   */\n      swap1\n      pop\n        /* \"#utility.yul\":29557:29923   */\n      swap2\n      swap1\n      pop\n      jump\t// out\n        /* \"#utility.yul\":29929:30348   */\n    tag_148:\n        /* \"#utility.yul\":30095:30099   */\n      0x00\n        /* \"#utility.yul\":30133:30135   */\n      0x20\n        /* \"#utility.yul\":30122:30131   */\n      dup3\n        /* \"#utility.yul\":30118:30136   */\n      add\n        /* \"#utility.yul\":30110:30136   */\n      swap1\n      pop\n        /* \"#utility.yul\":30182:30191   */\n      dup2\n        /* \"#utility.yul\":30176:30180   */\n      dup2\n        /* \"#utility.yul\":30172:30192   */\n      sub\n        /* \"#utility.yul\":30168:30169   */\n      0x00\n        /* \"#utility.yul\":30157:30166   */\n      dup4\n        /* \"#utility.yul\":30153:30170   */\n      add\n        /* \"#utility.yul\":30146:30193   */\n      mstore\n        /* \"#utility.yul\":30210:30341   */\n      tag_834\n        /* \"#utility.yul\":30336:30340   */\n      dup2\n        /* \"#utility.yul\":30210:30341   */\n      tag_540\n      jump\t// in\n    tag_834:\n        /* \"#utility.yul\":30202:30341   */\n      swap1\n      pop\n        /* \"#utility.yul\":29929:30348   */\n      swap2\n      swap1\n      pop\n      jump\t// out\n        /* \"#utility.yul\":30354:30533   */\n    tag_541:\n        /* \"#utility.yul\":30494:30525   */\n      0x4f6e6c792061736b65722063616e20636c6f7365207175657374696f6e000000\n        /* \"#utility.yul\":30490:30491   */\n      0x00\n        /* \"#utility.yul\":30482:30488   */\n      dup3\n        /* \"#utility.yul\":30478:30492   */\n      add\n        /* \"#utility.yul\":30471:30526   */\n      mstore\n        /* \"#utility.yul\":30354:30533   */\n      pop\n      jump\t// out\n        /* \"#utility.yul\":30539:30905   */\n    tag_542:\n        /* \"#utility.yul\":30681:30684   */\n      0x00\n        /* \"#utility.yul\":30702:30769   */\n      tag_837\n        /* \"#utility.yul\":30766:30768   */\n      0x1d\n        /* \"#utility.yul\":30761:30764   */\n      dup4\n        /* \"#utility.yul\":30702:30769   */\n      tag_501\n      jump\t// in\n    tag_837:\n        /* \"#utility.yul\":30695:30769   */\n      swap2\n      pop\n        /* \"#utility.yul\":30778:30871   */\n      tag_838\n        /* \"#utility.yul\":30867:30870   */\n      dup3\n        /* \"#utility.yul\":30778:30871   */\n      tag_541\n      jump\t// in\n    tag_838:\n        /* \"#utility.yul\":30896:30898   */\n      0x20\n        /* \"#utility.yul\":30891:30894   */\n      dup3\n        /* \"#utility.yul\":30887:30899   */\n      add\n        /* \"#utility.yul\":30880:30899   */\n      swap1\n      pop\n        /* \"#utility.yul\":30539:30905   */\n      swap2\n      swap1\n      pop\n      jump\t// out\n        /* \"#utility.yul\":30911:31330   */\n    tag_152:\n        /* \"#utility.yul\":31077:31081   */\n      0x00\n        /* \"#utility.yul\":31115:31117   */\n      0x20\n        /* \"#utility.yul\":31104:31113   */\n      dup3\n        /* \"#utility.yul\":31100:31118   */\n      add\n        /* \"#utility.yul\":31092:31118   */\n      swap1\n      pop\n        /* \"#utility.yul\":31164:31173   */\n      dup2\n        /* \"#utility.yul\":31158:31162   */\n      dup2\n        /* \"#utility.yul\":31154:31174   */\n      sub\n        /* \"#utility.yul\":31150:31151   */\n      0x00\n        /* \"#utility.yul\":31139:31148   */\n      dup4\n        /* \"#utility.yul\":31135:31152   */\n      add\n        /* \"#utility.yul\":31128:31175   */\n      mstore\n        /* \"#utility.yul\":31192:31323   */\n      tag_840\n        /* \"#utility.yul\":31318:31322   */\n      dup2\n        /* \"#utility.yul\":31192:31323   */\n      tag_542\n      jump\t// in\n    tag_840:\n        /* \"#utility.yul\":31184:31323   */\n      swap1\n      pop\n        /* \"#utility.yul\":30911:31330   */\n      swap2\n      swap1\n      pop\n      jump\t// out\n        /* \"#utility.yul\":31336:31668   */\n    tag_154:\n        /* \"#utility.yul\":31457:31461   */\n      0x00\n        /* \"#utility.yul\":31495:31497   */\n      0x40\n        /* \"#utility.yul\":31484:31493   */\n      dup3\n        /* \"#utility.yul\":31480:31498   */\n      add\n        /* \"#utility.yul\":31472:31498   */\n      swap1\n      pop\n        /* \"#utility.yul\":31508:31579   */\n      tag_842\n        /* \"#utility.yul\":31576:31577   */\n      0x00\n        /* \"#utility.yul\":31565:31574   */\n      dup4\n        /* \"#utility.yul\":31561:31578   */\n      add\n        /* \"#utility.yul\":31552:31558   */\n      dup6\n        /* \"#utility.yul\":31508:31579   */\n      tag_496\n      jump\t// in\n    tag_842:\n        /* \"#utility.yul\":31589:31661   */\n      tag_843\n        /* \"#utility.yul\":31657:31659   */\n      0x20\n        /* \"#utility.yul\":31646:31655   */\n      dup4\n        /* \"#utility.yul\":31642:31660   */\n      add\n        /* \"#utility.yul\":31633:31639   */\n      dup5\n        /* \"#utility.yul\":31589:31661   */\n      tag_496\n      jump\t// in\n    tag_843:\n        /* \"#utility.yul\":31336:31668   */\n      swap4\n      swap3\n      pop\n      pop\n      pop\n      jump\t// out\n        /* \"#utility.yul\":31674:31854   */\n    tag_543:\n        /* \"#utility.yul\":31722:31799   */\n      0x4e487b7100000000000000000000000000000000000000000000000000000000\n        /* \"#utility.yul\":31719:31720   */\n      0x00\n        /* \"#utility.yul\":31712:31800   */\n      mstore\n        /* \"#utility.yul\":31819:31823   */\n      0x22\n        /* \"#utility.yul\":31816:31817   */\n      0x04\n        /* \"#utility.yul\":31809:31824   */\n      mstore\n        /* \"#utility.yul\":31843:31847   */\n      0x24\n        /* \"#utility.yul\":31840:31841   */\n      0x00\n        /* \"#utility.yul\":31833:31848   */\n      revert\n        /* \"#utility.yul\":31860:32180   */\n    tag_163:\n        /* \"#utility.yul\":31904:31910   */\n      0x00\n        /* \"#utility.yul\":31941:31942   */\n      0x02\n        /* \"#utility.yul\":31935:31939   */\n      dup3\n        /* \"#utility.yul\":31931:31943   */\n      div\n        /* \"#utility.yul\":31921:31943   */\n      swap1\n      pop\n        /* \"#utility.yul\":31988:31989   */\n      0x01\n        /* \"#utility.yul\":31982:31986   */\n      dup3\n        /* \"#utility.yul\":31978:31990   */\n      and\n        /* \"#utility.yul\":32009:32027   */\n      dup1\n        /* \"#utility.yul\":31999:32080   */\n      tag_846\n      jumpi\n        /* \"#utility.yul\":32065:32069   */\n      0x7f\n        /* \"#utility.yul\":32057:32063   */\n      dup3\n        /* \"#utility.yul\":32053:32070   */\n      and\n        /* \"#utility.yul\":32043:32070   */\n      swap2\n      pop\n        /* \"#utility.yul\":31999:32080   */\n    tag_846:\n        /* \"#utility.yul\":32127:32129   */\n      0x20\n        /* \"#utility.yul\":32119:32125   */\n      dup3\n        /* \"#utility.yul\":32116:32130   */\n      lt\n        /* \"#utility.yul\":32096:32114   */\n      dup2\n        /* \"#utility.yul\":32093:32131   */\n      sub\n        /* \"#utility.yul\":32090:32174   */\n      tag_847\n      jumpi\n        /* \"#utility.yul\":32146:32164   */\n      tag_848\n      tag_543\n      jump\t// in\n    tag_848:\n        /* \"#utility.yul\":32090:32174   */\n    tag_847:\n        /* \"#utility.yul\":31911:32180   */\n      pop\n        /* \"#utility.yul\":31860:32180   */\n      swap2\n      swap1\n      pop\n      jump\t// out\n        /* \"#utility.yul\":32186:32364   */\n    tag_544:\n        /* \"#utility.yul\":32326:32356   */\n      0x5175657374696f6e20646561646c696e65206861732070617373656400000000\n        /* \"#utility.yul\":32322:32323   */\n      0x00\n        /* \"#utility.yul\":32314:32320   */\n      dup3\n        /* \"#utility.yul\":32310:32324   */\n      add\n        /* \"#utility.yul\":32303:32357   */\n      mstore\n        /* \"#utility.yul\":32186:32364   */\n      pop\n      jump\t// out\n        /* \"#utility.yul\":32370:32736   */\n    tag_545:\n        /* \"#utility.yul\":32512:32515   */\n      0x00\n        /* \"#utility.yul\":32533:32600   */\n      tag_851\n        /* \"#utility.yul\":32597:32599   */\n      0x1c\n        /* \"#utility.yul\":32592:32595   */\n      dup4\n        /* \"#utility.yul\":32533:32600   */\n      tag_501\n      jump\t// in\n    tag_851:\n        /* \"#utility.yul\":32526:32600   */\n      swap2\n      pop\n        /* \"#utility.yul\":32609:32702   */\n      tag_852\n        /* \"#utility.yul\":32698:32701   */\n      dup3\n        /* \"#utility.yul\":32609:32702   */\n      tag_544\n      jump\t// in\n    tag_852:\n        /* \"#utility.yul\":32727:32729   */\n      0x20\n        /* \"#utility.yul\":32722:32725   */\n      dup3\n        /* \"#utility.yul\":32718:32730   */\n      add\n        /* \"#utility.yul\":32711:32730   */\n      swap1\n      pop\n        /* \"#utility.yul\":32370:32736   */\n      swap2\n      swap1\n      pop\n      jump\t// out\n        /* \"#utility.yul\":32742:33161   */\n    tag_180:\n        /* \"#utility.yul\":32908:32912   */\n      0x00\n        /* \"#utility.yul\":32946:32948   */\n      0x20\n        /* \"#utility.yul\":32935:32944   */\n      dup3\n        /* \"#utility.yul\":32931:32949   */\n      add\n        /* \"#utility.yul\":32923:32949   */\n      swap1\n      pop\n        /* \"#utility.yul\":32995:33004   */\n      dup2\n        /* \"#utility.yul\":32989:32993   */\n      dup2\n        /* \"#utility.yul\":32985:33005   */\n      sub\n        /* \"#utility.yul\":32981:32982   */\n      0x00\n        /* \"#utility.yul\":32970:32979   */\n      dup4\n        /* \"#utility.yul\":32966:32983   */\n      add\n        /* \"#utility.yul\":32959:33006   */\n      mstore\n        /* \"#utility.yul\":33023:33154   */\n      tag_854\n        /* \"#utility.yul\":33149:33153   */\n      dup2\n        /* \"#utility.yul\":33023:33154   */\n      tag_545\n      jump\t// in\n    tag_854:\n        /* \"#utility.yul\":33015:33154   */\n      swap1\n      pop\n        /* \"#utility.yul\":32742:33161   */\n      swap2\n      swap1\n      pop\n      jump\t// out\n        /* \"#utility.yul\":33167:33347   */\n    tag_546:\n        /* \"#utility.yul\":33215:33292   */\n      0x4e487b7100000000000000000000000000000000000000000000000000000000\n        /* \"#utility.yul\":33212:33213   */\n      0x00\n        /* \"#utility.yul\":33205:33293   */\n      mstore\n        /* \"#utility.yul\":33312:33316   */\n      0x11\n        /* \"#utility.yul\":33309:33310   */\n      0x04\n        /* \"#utility.yul\":33302:33317   */\n      mstore\n        /* \"#utility.yul\":33336:33340   */\n      0x24\n        /* \"#utility.yul\":33333:33334   */\n      0x00\n        /* \"#utility.yul\":33326:33341   */\n      revert\n        /* \"#utility.yul\":33353:33586   */\n    tag_182:\n        /* \"#utility.yul\":33392:33395   */\n      0x00\n        /* \"#utility.yul\":33415:33439   */\n      tag_857\n        /* \"#utility.yul\":33433:33438   */\n      dup3\n        /* \"#utility.yul\":33415:33439   */\n      tag_484\n      jump\t// in\n    tag_857:\n        /* \"#utility.yul\":33406:33439   */\n      swap2\n      pop\n        /* \"#utility.yul\":33461:33527   */\n      0xffffffffffffffffffffffffffffffffffffffffffffffffffffffffffffffff\n        /* \"#utility.yul\":33454:33459   */\n      dup3\n        /* \"#utility.yul\":33451:33528   */\n      sub\n        /* \"#utility.yul\":33448:33551   */\n      tag_858\n      jumpi\n        /* \"#utility.yul\":33531:33549   */\n      tag_859\n      tag_546\n      jump\t// in\n    tag_859:\n        /* \"#utility.yul\":33448:33551   */\n    tag_858:\n        /* \"#utility.yul\":33578:33579   */\n      0x01\n        /* \"#utility.yul\":33571:33576   */\n      dup3\n        /* \"#utility.yul\":33567:33580   */\n      add\n        /* \"#utility.yul\":33560:33580   */\n      swap1\n      pop\n        /* \"#utility.yul\":33353:33586   */\n      swap2\n      swap1\n      pop\n      jump\t// out\n        /* \"#utility.yul\":33592:33733   */\n    tag_547:\n        /* \"#utility.yul\":33641:33645   */\n      0x00\n        /* \"#utility.yul\":33664:33667   */\n      dup2\n        /* \"#utility.yul\":33656:33667   */\n      swap1\n      pop\n        /* \"#utility.yul\":33687:33690   */\n      dup2\n        /* \"#utility.yul\":33684:33685   */\n      0x00\n        /* \"#utility.yul\":33677:33691   */\n      mstore\n        /* \"#utility.yul\":33721:33725   */\n      0x20\n        /* \"#utility.yul\":33718:33719   */\n      0x00\n        /* \"#utility.yul\":33708:33726   */\n      keccak256\n        /* \"#utility.yul\":33700:33726   */\n      swap1\n      pop\n        /* \"#utility.yul\":33592:33733   */\n      swap2\n      swap1\n      pop\n      jump\t// out\n        /* \"#utility.yul\":33739:33832   */\n    tag_548:\n        /* \"#utility.yul\":33776:33782   */\n      0x00\n        /* \"#utility.yul\":33823:33825   */\n      0x20\n        /* \"#utility.yul\":33818:33820   */\n      0x1f\n        /* \"#utility.yul\":33811:33816   */\n      dup4\n        /* \"#utility.yul\":33807:33821   */\n      add\n        /* \"#utility.yul\":33803:33826   */\n      div\n        /* \"#utility.yul\":33793:33826   */\n      swap1\n      pop\n        /* \"#utility.yul\":33739:33832   */\n      swap2\n      swap1\n      pop\n      jump\t// out\n        /* \"#utility.yul\":33838:33945   */\n    tag_549:\n        /* \"#utility.yul\":33882:33890   */\n      0x00\n        /* \"#utility.yul\":33932:33937   */\n      dup3\n        /* \"#utility.yul\":33926:33930   */\n      dup3\n        /* \"#utility.yul\":33922:33938   */\n      shl\n        /* \"#utility.yul\":33901:33938   */\n      swap1\n      pop\n        /* \"#utility.yul\":33838:33945   */\n      swap3\n      swap2\n      pop\n      pop\n      jump\t// out\n        /* \"#utility.yul\":33951:34344   */\n    tag_550:\n        /* \"#utility.yul\":34020:34026   */\n      0x00\n        /* \"#utility.yul\":34070:34071   */\n      0x08\n        /* \"#utility.yul\":34058:34068   */\n      dup4\n        /* \"#utility.yul\":34054:34072   */\n      mul\n        /* \"#utility.yul\":34093:34190   */\n      tag_864\n        /* \"#utility.yul\":34123:34189   */\n      0xffffffffffffffffffffffffffffffffffffffffffffffffffffffffffffffff\n        /* \"#utility.yul\":34112:34121   */\n      dup3\n        /* \"#utility.yul\":34093:34190   */\n      tag_549\n      jump\t// in\n    tag_864:\n        /* \"#utility.yul\":34211:34250   */\n      tag_865\n        /* \"#utility.yul\":34241:34249   */\n      dup7\n        /* \"#utility.yul\":34230:34239   */\n      dup4\n        /* \"#utility.yul\":34211:34250   */\n      tag_549\n      jump\t// in\n    tag_865:\n        /* \"#utility.yul\":34199:34250   */\n      swap6\n      pop\n        /* \"#utility.yul\":34283:34287   */\n      dup1\n        /* \"#utility.yul\":34279:34288   */\n      not\n        /* \"#utility.yul\":34272:34277   */\n      dup5\n        /* \"#utility.yul\":34268:34289   */\n      and\n        /* \"#utility.yul\":34259:34289   */\n      swap4\n      pop\n        /* \"#utility.yul\":34332:34336   */\n      dup1\n        /* \"#utility.yul\":34322:34330   */\n      dup7\n        /* \"#utility.yul\":34318:34337   */\n      and\n        /* \"#utility.yul\":34311:34316   */\n      dup5\n        /* \"#utility.yul\":34308:34338   */\n      or\n        /* \"#utility.yul\":34298:34338   */\n      swap3\n      pop\n        /* \"#utility.yul\":34027:34344   */\n      pop\n      pop\n        /* \"#utility.yul\":33951:34344   */\n      swap4\n      swap3\n      pop\n      pop\n      pop\n      jump\t// out\n        /* \"#utility.yul\":34350:34410   */\n    tag_551:\n        /* \"#utility.yul\":34378:34381   */\n      0x00\n        /* \"#utility.yul\":34399:34404   */\n      dup2\n        /* \"#utility.yul\":34392:34404   */\n      swap1\n      pop\n        /* \"#utility.yul\":34350:34410   */\n      swap2\n      swap1\n      pop\n      jump\t// out\n        /* \"#utility.yul\":34416:34558   */\n    tag_552:\n        /* \"#utility.yul\":34466:34475   */\n      0x00\n        /* \"#utility.yul\":34499:34552   */\n      tag_868\n        /* \"#utility.yul\":34517:34551   */\n      tag_869\n        /* \"#utility.yul\":34526:34550   */\n      tag_870\n        /* \"#utility.yul\":34544:34549   */\n      dup5\n        /* \"#utility.yul\":34526:34550   */\n      tag_484\n      jump\t// in\n    tag_870:\n        /* \"#utility.yul\":34517:34551   */\n      tag_551\n      jump\t// in\n    tag_869:\n        /* \"#utility.yul\":34499:34552   */\n      tag_484\n      jump\t// in\n    tag_868:\n        /* \"#utility.yul\":34486:34552   */\n      swap1\n      pop\n        /* \"#utility.yul\":34416:34558   */\n      swap2\n      swap1\n      pop\n      jump\t// out\n        /* \"#utility.yul\":34564:34639   */\n    tag_553:\n        /* \"#utility.yul\":34607:34610   */\n      0x00\n        /* \"#utility.yul\":34628:34633   */\n      dup2\n        /* \"#utility.yul\":34621:34633   */\n      swap1\n      pop\n        /* \"#utility.yul\":34564:34639   */\n      swap2\n      swap1\n      pop\n      jump\t// out\n        /* \"#utility.yul\":34645:34914   */\n    tag_554:\n        /* \"#utility.yul\":34755:34794   */\n      tag_873\n        /* \"#utility.yul\":34786:34793   */\n      dup4\n        /* \"#utility.yul\":34755:34794   */\n      tag_552\n      jump\t// in\n    tag_873:\n        /* \"#utility.yul\":34816:34907   */\n      tag_874\n        /* \"#utility.yul\":34865:34906   */\n      tag_875\n        /* \"#utility.yul\":34889:34905   */\n      dup3\n        /* \"#utility.yul\":34865:34906   */\n      tag_553\n      jump\t// in\n    tag_875:\n        /* \"#utility.yul\":34857:34863   */\n      dup5\n        /* \"#utility.yul\":34850:34854   */\n      dup5\n        /* \"#utility.yul\":34844:34855   */\n      sload\n        /* \"#utility.yul\":34816:34907   */\n      tag_550\n      jump\t// in\n    tag_874:\n        /* \"#utility.yul\":34810:34814   */\n      dup3\n        /* \"#utility.yul\":34803:34908   */\n      sstore\n        /* \"#utility.yul\":34721:34914   */\n      pop\n        /* \"#utility.yul\":34645:34914   */\n      pop\n      pop\n      pop\n      jump\t// out\n        /* \"#utility.yul\":34920:34993   */\n    tag_555:\n        /* \"#utility.yul\":34965:34968   */\n      0x00\n        /* \"#utility.yul\":34920:34993   */\n      swap1\n      jump\t// out\n        /* \"#utility.yul\":34999:35188   */\n    tag_556:\n        /* \"#utility.yul\":35076:35108   */\n      tag_878\n      tag_555\n      jump\t// in\n    tag_878:\n        /* \"#utility.yul\":35117:35182   */\n      tag_879\n        /* \"#utility.yul\":35175:35181   */\n      dup2\n        /* \"#utility.yul\":35167:35173   */\n      dup5\n        /* \"#utility.yul\":35161:35165   */\n      dup5\n        /* \"#utility.yul\":35117:35182   */\n      tag_554\n      jump\t// in\n    tag_879:\n        /* \"#utility.yul\":35052:35188   */\n      pop\n        /* \"#utility.yul\":34999:35188   */\n      pop\n      pop\n      jump\t// out\n        /* \"#utility.yul\":35194:35380   */\n    tag_557:\n        /* \"#utility.yul\":35254:35374   */\n    tag_881:\n        /* \"#utility.yul\":35271:35274   */\n      dup2\n        /* \"#utility.yul\":35264:35269   */\n      dup2\n        /* \"#utility.yul\":35261:35275   */\n      lt\n        /* \"#utility.yul\":35254:35374   */\n      iszero\n      tag_883\n      jumpi\n        /* \"#utility.yul\":35325:35364   */\n      tag_884\n        /* \"#utility.yul\":35362:35363   */\n      0x00\n        /* \"#utility.yul\":35355:35360   */\n      dup3\n        /* \"#utility.yul\":35325:35364   */\n      tag_556\n      jump\t// in\n    tag_884:\n        /* \"#utility.yul\":35298:35299   */\n      0x01\n        /* \"#utility.yul\":35291:35296   */\n      dup2\n        /* \"#utility.yul\":35287:35300   */\n      add\n        /* \"#utility.yul\":35278:35300   */\n      swap1\n      pop\n        /* \"#utility.yul\":35254:35374   */\n      jump(tag_881)\n    tag_883:\n        /* \"#utility.yul\":35194:35380   */\n      pop\n      pop\n      jump\t// out\n        /* \"#utility.yul\":35386:35929   */\n    tag_558:\n        /* \"#utility.yul\":35487:35489   */\n      0x1f\n        /* \"#utility.yul\":35482:35485   */\n      dup3\n        /* \"#utility.yul\":35479:35490   */\n      gt\n        /* \"#utility.yul\":35476:35922   */\n      iszero\n      tag_886\n      jumpi\n        /* \"#utility.yul\":35521:35559   */\n      tag_887\n        /* \"#utility.yul\":35553:35558   */\n      dup2\n        /* \"#utility.yul\":35521:35559   */\n      tag_547\n      jump\t// in\n    tag_887:\n        /* \"#utility.yul\":35605:35634   */\n      tag_888\n        /* \"#utility.yul\":35623:35633   */\n      dup5\n        /* \"#utility.yul\":35605:35634   */\n      tag_548\n      jump\t// in\n    tag_888:\n        /* \"#utility.yul\":35595:35603   */\n      dup2\n        /* \"#utility.yul\":35591:35635   */\n      add\n        /* \"#utility.yul\":35788:35790   */\n      0x20\n        /* \"#utility.yul\":35776:35786   */\n      dup6\n        /* \"#utility.yul\":35773:35791   */\n      lt\n        /* \"#utility.yul\":35770:35819   */\n      iszero\n      tag_889\n      jumpi\n        /* \"#utility.yul\":35809:35817   */\n      dup2\n        /* \"#utility.yul\":35794:35817   */\n      swap1\n      pop\n        /* \"#utility.yul\":35770:35819   */\n    tag_889:\n        /* \"#utility.yul\":35832:35912   */\n      tag_890\n        /* \"#utility.yul\":35888:35910   */\n      tag_891\n        /* \"#utility.yul\":35906:35909   */\n      dup6\n        /* \"#utility.yul\":35888:35910   */\n      tag_548\n      jump\t// in\n    tag_891:\n        /* \"#utility.yul\":35878:35886   */\n      dup4\n        /* \"#utility.yul\":35874:35911   */\n      add\n        /* \"#utility.yul\":35861:35872   */\n      dup3\n        /* \"#utility.yul\":35832:35912   */\n      tag_557\n      jump\t// in\n    tag_890:\n        /* \"#utility.yul\":35491:35922   */\n      pop\n      pop\n        /* \"#utility.yul\":35476:35922   */\n    tag_886:\n        /* \"#utility.yul\":35386:35929   */\n      pop\n      pop\n      pop\n      jump\t// out\n        /* \"#utility.yul\":35935:36052   */\n    tag_559:\n        /* \"#utility.yul\":35989:35997   */\n      0x00\n        /* \"#utility.yul\":36039:36044   */\n      dup3\n        /* \"#utility.yul\":36033:36037   */\n      dup3\n        /* \"#utility.yul\":36029:36045   */\n      shr\n        /* \"#utility.yul\":36008:36045   */\n      swap1\n      pop\n        /* \"#utility.yul\":35935:36052   */\n      swap3\n      swap2\n      pop\n      pop\n      jump\t// out\n        /* \"#utility.yul\":36058:36227   */\n    tag_560:\n        /* \"#utility.yul\":36102:36108   */\n      0x00\n        /* \"#utility.yul\":36135:36186   */\n      tag_894\n        /* \"#utility.yul\":36183:36184   */\n      0x00\n        /* \"#utility.yul\":36179:36185   */\n      not\n        /* \"#utility.yul\":36171:36176   */\n      dup5\n        /* \"#utility.yul\":36168:36169   */\n      0x08\n        /* \"#utility.yul\":36164:36177   */\n      mul\n        /* \"#utility.yul\":36135:36186   */\n      tag_559\n      jump\t// in\n    tag_894:\n        /* \"#utility.yul\":36131:36187   */\n      not\n        /* \"#utility.yul\":36216:36220   */\n      dup1\n        /* \"#utility.yul\":36210:36214   */\n      dup4\n        /* \"#utility.yul\":36206:36221   */\n      and\n        /* \"#utility.yul\":36196:36221   */\n      swap2\n      pop\n        /* \"#utility.yul\":36109:36227   */\n      pop\n        /* \"#utility.yul\":36058:36227   */\n      swap3\n      swap2\n      pop\n      pop\n      jump\t// out\n        /* \"#utility.yul\":36232:36527   */\n    tag_561:\n        /* \"#utility.yul\":36308:36312   */\n      0x00\n        /* \"#utility.yul\":36454:36483   */\n      tag_896\n        /* \"#utility.yul\":36479:36482   */\n      dup4\n        /* \"#utility.yul\":36473:36477   */\n      dup4\n        /* \"#utility.yul\":36454:36483   */\n      tag_560\n      jump\t// in\n    tag_896:\n        /* \"#utility.yul\":36446:36483   */\n      swap2\n      pop\n        /* \"#utility.yul\":36516:36519   */\n      dup3\n        /* \"#utility.yul\":36513:36514   */\n      0x02\n        /* \"#utility.yul\":36509:36520   */\n      mul\n        /* \"#utility.yul\":36503:36507   */\n      dup3\n        /* \"#utility.yul\":36500:36521   */\n      or\n        /* \"#utility.yul\":36492:36521   */\n      swap1\n      pop\n        /* \"#utility.yul\":36232:36527   */\n      swap3\n      swap2\n      pop\n      pop\n      jump\t// out\n        /* \"#utility.yul\":36532:37927   */\n    tag_184:\n        /* \"#utility.yul\":36649:36686   */\n      tag_898\n        /* \"#utility.yul\":36682:36685   */\n      dup3\n        /* \"#utility.yul\":36649:36686   */\n      tag_500\n      jump\t// in\n    tag_898:\n        /* \"#utility.yul\":36751:36769   */\n      0xffffffffffffffff\n        /* \"#utility.yul\":36743:36749   */\n      dup2\n        /* \"#utility.yul\":36740:36770   */\n      gt\n        /* \"#utility.yul\":36737:36793   */\n      iszero\n      tag_899\n      jumpi\n        /* \"#utility.yul\":36773:36791   */\n      tag_900\n      tag_255\n      jump\t// in\n    tag_900:\n        /* \"#utility.yul\":36737:36793   */\n    tag_899:\n        /* \"#utility.yul\":36817:36855   */\n      tag_901\n        /* \"#utility.yul\":36849:36853   */\n      dup3\n        /* \"#utility.yul\":36843:36854   */\n      sload\n        /* \"#utility.yul\":36817:36855   */\n      tag_163\n      jump\t// in\n    tag_901:\n        /* \"#utility.yul\":36902:36969   */\n      tag_902\n        /* \"#utility.yul\":36962:36968   */\n      dup3\n        /* \"#utility.yul\":36954:36960   */\n      dup3\n        /* \"#utility.yul\":36948:36952   */\n      dup6\n        /* \"#utility.yul\":36902:36969   */\n      tag_558\n      jump\t// in\n    tag_902:\n        /* \"#utility.yul\":36996:36997   */\n      0x00\n        /* \"#utility.yul\":37020:37024   */\n      0x20\n        /* \"#utility.yul\":37007:37024   */\n      swap1\n      pop\n        /* \"#utility.yul\":37052:37054   */\n      0x1f\n        /* \"#utility.yul\":37044:37050   */\n      dup4\n        /* \"#utility.yul\":37041:37055   */\n      gt\n        /* \"#utility.yul\":37069:37070   */\n      0x01\n        /* \"#utility.yul\":37064:37682   */\n      dup2\n      eq\n      tag_904\n      jumpi\n        /* \"#utility.yul\":37726:37727   */\n      0x00\n        /* \"#utility.yul\":37743:37749   */\n      dup5\n        /* \"#utility.yul\":37740:37817   */\n      iszero\n      tag_905\n      jumpi\n        /* \"#utility.yul\":37792:37801   */\n      dup3\n        /* \"#utility.yul\":37787:37790   */\n      dup8\n        /* \"#utility.yul\":37783:37802   */\n      add\n        /* \"#utility.yul\":37777:37803   */\n      mload\n        /* \"#utility.yul\":37768:37803   */\n      swap1\n      pop\n        /* \"#utility.yul\":37740:37817   */\n    tag_905:\n        /* \"#utility.yul\":37843:37910   */\n      tag_906\n        /* \"#utility.yul\":37903:37909   */\n      dup6\n        /* \"#utility.yul\":37896:37901   */\n      dup3\n        /* \"#utility.yul\":37843:37910   */\n      tag_561\n      jump\t// in\n    tag_906:\n        /* \"#utility.yul\":37837:37841   */\n      dup7\n        /* \"#utility.yul\":37830:37911   */\n      sstore\n        /* \"#utility.yul\":37699:37921   */\n      pop\n        /* \"#utility.yul\":37034:37921   */\n      jump(tag_903)\n        /* \"#utility.yul\":37064:37682   */\n    tag_904:\n        /* \"#utility.yul\":37116:37120   */\n      0x1f\n        /* \"#utility.yul\":37112:37121   */\n      not\n        /* \"#utility.yul\":37104:37110   */\n      dup5\n        /* \"#utility.yul\":37100:37122   */\n      and\n        /* \"#utility.yul\":37150:37187   */\n      tag_907\n        /* \"#utility.yul\":37182:37186   */\n      dup7\n        /* \"#utility.yul\":37150:37187   */\n      tag_547\n      jump\t// in\n    tag_907:\n        /* \"#utility.yul\":37209:37210   */\n      0x00\n        /* \"#utility.yul\":37223:37431   */\n    tag_908:\n        /* \"#utility.yul\":37237:37244   */\n      dup3\n        /* \"#utility.yul\":37234:37235   */\n      dup2\n        /* \"#utility.yul\":37231:37245   */\n      lt\n        /* \"#utility.yul\":37223:37431   */\n      iszero\n      tag_910\n      jumpi\n        /* \"#utility.yul\":37316:37325   */\n      dup5\n        /* \"#utility.yul\":37311:37314   */\n      dup10\n        /* \"#utility.yul\":37307:37326   */\n      add\n        /* \"#utility.yul\":37301:37327   */\n      mload\n        /* \"#utility.yul\":37293:37299   */\n      dup3\n        /* \"#utility.yul\":37286:37328   */\n      sstore\n        /* \"#utility.yul\":37367:37368   */\n      0x01\n        /* \"#utility.yul\":37359:37365   */\n      dup3\n        /* \"#utility.yul\":37355:37369   */\n      add\n        /* \"#utility.yul\":37345:37369   */\n      swap2\n      pop\n        /* \"#utility.yul\":37414:37416   */\n      0x20\n        /* \"#utility.yul\":37403:37412   */\n      dup6\n        /* \"#utility.yul\":37399:37417   */\n      add\n        /* \"#utility.yul\":37386:37417   */\n      swap5\n      pop\n        /* \"#utility.yul\":37260:37264   */\n      0x20\n        /* \"#utility.yul\":37257:37258   */\n      dup2\n        /* \"#utility.yul\":37253:37265   */\n      add\n        /* \"#utility.yul\":37248:37265   */\n      swap1\n      pop\n        /* \"#utility.yul\":37223:37431   */\n      jump(tag_908)\n    tag_910:\n        /* \"#utility.yul\":37459:37465   */\n      dup7\n        /* \"#utility.yul\":37450:37457   */\n      dup4\n        /* \"#utility.yul\":37447:37466   */\n      lt\n        /* \"#utility.yul\":37444:37623   */\n      iszero\n      tag_911\n      jumpi\n        /* \"#utility.yul\":37517:37526   */\n      dup5\n        /* \"#utility.yul\":37512:37515   */\n      dup10\n        /* \"#utility.yul\":37508:37527   */\n      add\n        /* \"#utility.yul\":37502:37528   */\n      mload\n        /* \"#utility.yul\":37560:37608   */\n      tag_912\n        /* \"#utility.yul\":37602:37606   */\n      0x1f\n        /* \"#utility.yul\":37594:37600   */\n      dup10\n        /* \"#utility.yul\":37590:37607   */\n      and\n        /* \"#utility.yul\":37579:37588   */\n      dup3\n        /* \"#utility.yul\":37560:37608   */\n      tag_560\n      jump\t// in\n    tag_912:\n        /* \"#utility.yul\":37552:37558   */\n      dup4\n        /* \"#utility.yul\":37545:37609   */\n      sstore\n        /* \"#utility.yul\":37467:37623   */\n      pop\n        /* \"#utility.yul\":37444:37623   */\n    tag_911:\n        /* \"#utility.yul\":37669:37670   */\n      0x01\n        /* \"#utility.yul\":37665:37666   */\n      0x02\n        /* \"#utility.yul\":37657:37663   */\n      dup9\n        /* \"#utility.yul\":37653:37667   */\n      mul\n        /* \"#utility.yul\":37649:37671   */\n      add\n        /* \"#utility.yul\":37643:37647   */\n      dup9\n        /* \"#utility.yul\":37636:37672   */\n      sstore\n        /* \"#utility.yul\":37071:37682   */\n      pop\n      pop\n      pop\n        /* \"#utility.yul\":37034:37921   */\n    tag_903:\n      pop\n        /* \"#utility.yul\":36624:37927   */\n      pop\n      pop\n      pop\n        /* \"#utility.yul\":36532:37927   */\n      pop\n      pop\n      jump\t// out\n        /* \"#utility.yul\":37933:38466   */\n    tag_186:\n        /* \"#utility.yul\":38102:38106   */\n      0x00\n        /* \"#utility.yul\":38140:38142   */\n      0x60\n        /* \"#utility.yul\":38129:38138   */\n      dup3\n        /* \"#utility.yul\":38125:38143   */\n      add\n        /* \"#utility.yul\":38117:38143   */\n      swap1\n      pop\n        /* \"#utility.yul\":38153:38224   */\n      tag_914\n        /* \"#utility.yul\":38221:38222   */\n      0x00\n        /* \"#utility.yul\":38210:38219   */\n      dup4\n        /* \"#utility.yul\":38206:38223   */\n      add\n        /* \"#utility.yul\":38197:38203   */\n      dup7\n        /* \"#utility.yul\":38153:38224   */\n      tag_496\n      jump\t// in\n    tag_914:\n        /* \"#utility.yul\":38234:38306   */\n      tag_915\n        /* \"#utility.yul\":38302:38304   */\n      0x20\n        /* \"#utility.yul\":38291:38300   */\n      dup4\n        /* \"#utility.yul\":38287:38305   */\n      add\n        /* \"#utility.yul\":38278:38284   */\n      dup6\n        /* \"#utility.yul\":38234:38306   */\n      tag_496\n      jump\t// in\n    tag_915:\n        /* \"#utility.yul\":38353:38362   */\n      dup2\n        /* \"#utility.yul\":38347:38351   */\n      dup2\n        /* \"#utility.yul\":38343:38363   */\n      sub\n        /* \"#utility.yul\":38338:38340   */\n      0x40\n        /* \"#utility.yul\":38327:38336   */\n      dup4\n        /* \"#utility.yul\":38323:38341   */\n      add\n        /* \"#utility.yul\":38316:38364   */\n      mstore\n        /* \"#utility.yul\":38381:38459   */\n      tag_916\n        /* \"#utility.yul\":38454:38458   */\n      dup2\n        /* \"#utility.yul\":38445:38451   */\n      dup5\n        /* \"#utility.yul\":38381:38459   */\n      tag_503\n      jump\t// in\n    tag_916:\n        /* \"#utility.yul\":38373:38459   */\n      swap1\n      pop\n        /* \"#utility.yul\":37933:38466   */\n      swap5\n      swap4\n      pop\n      pop\n      pop\n      pop\n      jump\t// out\n        /* \"#utility.yul\":38472:38645   */\n    tag_562:\n        /* \"#utility.yul\":38612:38637   */\n      0x566f74696e6720706572696f642068617320656e646564000000000000000000\n        /* \"#utility.yul\":38608:38609   */\n      0x00\n        /* \"#utility.yul\":38600:38606   */\n      dup3\n        /* \"#utility.yul\":38596:38610   */\n      add\n        /* \"#utility.yul\":38589:38638   */\n      mstore\n        /* \"#utility.yul\":38472:38645   */\n      pop\n      jump\t// out\n        /* \"#utility.yul\":38651:39017   */\n    tag_563:\n        /* \"#utility.yul\":38793:38796   */\n      0x00\n        /* \"#utility.yul\":38814:38881   */\n      tag_919\n        /* \"#utility.yul\":38878:38880   */\n      0x17\n        /* \"#utility.yul\":38873:38876   */\n      dup4\n        /* \"#utility.yul\":38814:38881   */\n      tag_501\n      jump\t// in\n    tag_919:\n        /* \"#utility.yul\":38807:38881   */\n      swap2\n      pop\n        /* \"#utility.yul\":38890:38983   */\n      tag_920\n        /* \"#utility.yul\":38979:38982   */\n      dup3\n        /* \"#utility.yul\":38890:38983   */\n      tag_562\n      jump\t// in\n    tag_920:\n        /* \"#utility.yul\":39008:39010   */\n      0x20\n        /* \"#utility.yul\":39003:39006   */\n      dup3\n        /* \"#utility.yul\":38999:39011   */\n      add\n        /* \"#utility.yul\":38992:39011   */\n      swap1\n      pop\n        /* \"#utility.yul\":38651:39017   */\n      swap2\n      swap1\n      pop\n      jump\t// out\n        /* \"#utility.yul\":39023:39442   */\n    tag_216:\n        /* \"#utility.yul\":39189:39193   */\n      0x00\n        /* \"#utility.yul\":39227:39229   */\n      0x20\n        /* \"#utility.yul\":39216:39225   */\n      dup3\n        /* \"#utility.yul\":39212:39230   */\n      add\n        /* \"#utility.yul\":39204:39230   */\n      swap1\n      pop\n        /* \"#utility.yul\":39276:39285   */\n      dup2\n        /* \"#utility.yul\":39270:39274   */\n      dup2\n        /* \"#utility.yul\":39266:39286   */\n      sub\n        /* \"#utility.yul\":39262:39263   */\n      0x00\n        /* \"#utility.yul\":39251:39260   */\n      dup4\n        /* \"#utility.yul\":39247:39264   */\n      add\n        /* \"#utility.yul\":39240:39287   */\n      mstore\n        /* \"#utility.yul\":39304:39435   */\n      tag_922\n        /* \"#utility.yul\":39430:39434   */\n      dup2\n        /* \"#utility.yul\":39304:39435   */\n      tag_563\n      jump\t// in\n    tag_922:\n        /* \"#utility.yul\":39296:39435   */\n      swap1\n      pop\n        /* \"#utility.yul\":39023:39442   */\n      swap2\n      swap1\n      pop\n      jump\t// out\n        /* \"#utility.yul\":39448:39639   */\n    tag_218:\n        /* \"#utility.yul\":39488:39491   */\n      0x00\n        /* \"#utility.yul\":39507:39527   */\n      tag_924\n        /* \"#utility.yul\":39525:39526   */\n      dup3\n        /* \"#utility.yul\":39507:39527   */\n      tag_484\n      jump\t// in\n    tag_924:\n        /* \"#utility.yul\":39502:39527   */\n      swap2\n      pop\n        /* \"#utility.yul\":39541:39561   */\n      tag_925\n        /* \"#utility.yul\":39559:39560   */\n      dup4\n        /* \"#utility.yul\":39541:39561   */\n      tag_484\n      jump\t// in\n    tag_925:\n        /* \"#utility.yul\":39536:39561   */\n      swap3\n      pop\n        /* \"#utility.yul\":39584:39585   */\n      dup3\n        /* \"#utility.yul\":39581:39582   */\n      dup3\n        /* \"#utility.yul\":39577:39586   */\n      add\n        /* \"#utility.yul\":39570:39586   */\n      swap1\n      pop\n        /* \"#utility.yul\":39605:39608   */\n      dup1\n        /* \"#utility.yul\":39602:39603   */\n      dup3\n        /* \"#utility.yul\":39599:39609   */\n      gt\n        /* \"#utility.yul\":39596:39632   */\n      iszero\n      tag_926\n      jumpi\n        /* \"#utility.yul\":39612:39630   */\n      tag_927\n      tag_546\n      jump\t// in\n    tag_927:\n        /* \"#utility.yul\":39596:39632   */\n    tag_926:\n        /* \"#utility.yul\":39448:39639   */\n      swap3\n      swap2\n      pop\n      pop\n      jump\t// out\n        /* \"#utility.yul\":39645:39815   */\n    tag_564:\n        /* \"#utility.yul\":39785:39807   */\n      0x4e6f2066756e647320746f207769746864726177000000000000000000000000\n        /* \"#utility.yul\":39781:39782   */\n      0x00\n        /* \"#utility.yul\":39773:39779   */\n      dup3\n        /* \"#utility.yul\":39769:39783   */\n      add\n        /* \"#utility.yul\":39762:39808   */\n      mstore\n        /* \"#utility.yul\":39645:39815   */\n      pop\n      jump\t// out\n        /* \"#utility.yul\":39821:40187   */\n    tag_565:\n        /* \"#utility.yul\":39963:39966   */\n      0x00\n        /* \"#utility.yul\":39984:40051   */\n      tag_930\n        /* \"#utility.yul\":40048:40050   */\n      0x14\n        /* \"#utility.yul\":40043:40046   */\n      dup4\n        /* \"#utility.yul\":39984:40051   */\n      tag_501\n      jump\t// in\n    tag_930:\n        /* \"#utility.yul\":39977:40051   */\n      swap2\n      pop\n        /* \"#utility.yul\":40060:40153   */\n      tag_931\n        /* \"#utility.yul\":40149:40152   */\n      dup3\n        /* \"#utility.yul\":40060:40153   */\n      tag_564\n      jump\t// in\n    tag_931:\n        /* \"#utility.yul\":40178:40180   */\n      0x20\n        /* \"#utility.yul\":40173:40176   */\n      dup3\n        /* \"#utility.yul\":40169:40181   */\n      add\n        /* \"#utility.yul\":40162:40181   */\n      swap1\n      pop\n        /* \"#utility.yul\":39821:40187   */\n      swap2\n      swap1\n      pop\n      jump\t// out\n        /* \"#utility.yul\":40193:40612   */\n    tag_238:\n        /* \"#utility.yul\":40359:40363   */\n      0x00\n        /* \"#utility.yul\":40397:40399   */\n      0x20\n        /* \"#utility.yul\":40386:40395   */\n      dup3\n        /* \"#utility.yul\":40382:40400   */\n      add\n        /* \"#utility.yul\":40374:40400   */\n      swap1\n      pop\n        /* \"#utility.yul\":40446:40455   */\n      dup2\n        /* \"#utility.yul\":40440:40444   */\n      dup2\n        /* \"#utility.yul\":40436:40456   */\n      sub\n        /* \"#utility.yul\":40432:40433   */\n      0x00\n        /* \"#utility.yul\":40421:40430   */\n      dup4\n        /* \"#utility.yul\":40417:40434   */\n      add\n        /* \"#utility.yul\":40410:40457   */\n      mstore\n        /* \"#utility.yul\":40474:40605   */\n      tag_933\n        /* \"#utility.yul\":40600:40604   */\n      dup2\n        /* \"#utility.yul\":40474:40605   */\n      tag_565\n      jump\t// in\n    tag_933:\n        /* \"#utility.yul\":40466:40605   */\n      swap1\n      pop\n        /* \"#utility.yul\":40193:40612   */\n      swap2\n      swap1\n      pop\n      jump\t// out\n        /* \"#utility.yul\":40618:40789   */\n    tag_566:\n        /* \"#utility.yul\":40758:40781   */\n      0x416e7377657220646f6573206e6f742065786973740000000000000000000000\n        /* \"#utility.yul\":40754:40755   */\n      0x00\n        /* \"#utility.yul\":40746:40752   */\n      dup3\n        /* \"#utility.yul\":40742:40756   */\n      add\n        /* \"#utility.yul\":40735:40782   */\n      mstore\n        /* \"#utility.yul\":40618:40789   */\n      pop\n      jump\t// out\n        /* \"#utility.yul\":40795:41161   */\n    tag_567:\n        /* \"#utility.yul\":40937:40940   */\n      0x00\n        /* \"#utility.yul\":40958:41025   */\n      tag_936\n        /* \"#utility.yul\":41022:41024   */\n      0x15\n        /* \"#utility.yul\":41017:41020   */\n      dup4\n        /* \"#utility.yul\":40958:41025   */\n      tag_501\n      jump\t// in\n    tag_936:\n        /* \"#utility.yul\":40951:41025   */\n      swap2\n      pop\n        /* \"#utility.yul\":41034:41127   */\n      tag_937\n        /* \"#utility.yul\":41123:41126   */\n      dup3\n        /* \"#utility.yul\":41034:41127   */\n      tag_566\n      jump\t// in\n    tag_937:\n        /* \"#utility.yul\":41152:41154   */\n      0x20\n        /* \"#utility.yul\":41147:41150   */\n      dup3\n        /* \"#utility.yul\":41143:41155   */\n      add\n        /* \"#utility.yul\":41136:41155   */\n      swap1\n      pop\n        /* \"#utility.yul\":40795:41161   */\n      swap2\n      swap1\n      pop\n      jump\t// out\n        /* \"#utility.yul\":41167:41586   */\n    tag_246:\n        /* \"#utility.yul\":41333:41337   */\n      0x00\n        /* \"#utility.yul\":41371:41373   */\n      0x20\n        /* \"#utility.yul\":41360:41369   */\n      dup3\n        /* \"#utility.yul\":41356:41374   */\n      add\n        /* \"#utility.yul\":41348:41374   */\n      swap1\n      pop\n        /* \"#utility.yul\":41420:41429   */\n      dup2\n        /* \"#utility.yul\":41414:41418   */\n      dup2\n        /* \"#utility.yul\":41410:41430   */\n      sub\n        /* \"#utility.yul\":41406:41407   */\n      0x00\n        /* \"#utility.yul\":41395:41404   */\n      dup4\n        /* \"#utility.yul\":41391:41408   */\n      add\n        /* \"#utility.yul\":41384:41431   */\n      mstore\n        /* \"#utility.yul\":41448:41579   */\n      tag_939\n        /* \"#utility.yul\":41574:41578   */\n      dup2\n        /* \"#utility.yul\":41448:41579   */\n      tag_567\n      jump\t// in\n    tag_939:\n        /* \"#utility.yul\":41440:41579   */\n      swap1\n      pop\n        /* \"#utility.yul\":41167:41586   */\n      swap2\n      swap1\n      pop\n      jump\t// out\n        /* \"#utility.yul\":41592:41739   */\n    tag_568:\n        /* \"#utility.yul\":41693:41704   */\n      0x00\n        /* \"#utility.yul\":41730:41733   */\n      dup2\n        /* \"#utility.yul\":41715:41733   */\n      swap1\n      pop\n        /* \"#utility.yul\":41592:41739   */\n      swap3\n      swap2\n      pop\n      pop\n      jump\t// out\n        /* \"#utility.yul\":41745:41889   */\n    tag_569:\n        /* \"#utility.yul\":41797:41801   */\n      0x00\n        /* \"#utility.yul\":41820:41823   */\n      dup2\n        /* \"#utility.yul\":41812:41823   */\n      swap1\n      pop\n        /* \"#utility.yul\":41843:41846   */\n      dup2\n        /* \"#utility.yul\":41840:41841   */\n      0x00\n        /* \"#utility.yul\":41833:41847   */\n      mstore\n        /* \"#utility.yul\":41877:41881   */\n      0x20\n        /* \"#utility.yul\":41874:41875   */\n      0x00\n        /* \"#utility.yul\":41864:41882   */\n      keccak256\n        /* \"#utility.yul\":41856:41882   */\n      swap1\n      pop\n        /* \"#utility.yul\":41745:41889   */\n      swap2\n      swap1\n      pop\n      jump\t// out\n        /* \"#utility.yul\":41917:42795   */\n    tag_570:\n        /* \"#utility.yul\":42022:42025   */\n      0x00\n        /* \"#utility.yul\":42059:42064   */\n      dup2\n        /* \"#utility.yul\":42053:42065   */\n      sload\n        /* \"#utility.yul\":42088:42124   */\n      tag_943\n        /* \"#utility.yul\":42114:42123   */\n      dup2\n        /* \"#utility.yul\":42088:42124   */\n      tag_163\n      jump\t// in\n    tag_943:\n        /* \"#utility.yul\":42140:42228   */\n      tag_944\n        /* \"#utility.yul\":42221:42227   */\n      dup2\n        /* \"#utility.yul\":42216:42219   */\n      dup7\n        /* \"#utility.yul\":42140:42228   */\n      tag_568\n      jump\t// in\n    tag_944:\n        /* \"#utility.yul\":42133:42228   */\n      swap5\n      pop\n        /* \"#utility.yul\":42259:42260   */\n      0x01\n        /* \"#utility.yul\":42248:42257   */\n      dup3\n        /* \"#utility.yul\":42244:42261   */\n      and\n        /* \"#utility.yul\":42275:42276   */\n      0x00\n        /* \"#utility.yul\":42270:42436   */\n      dup2\n      eq\n      tag_946\n      jumpi\n        /* \"#utility.yul\":42450:42451   */\n      0x01\n        /* \"#utility.yul\":42445:42789   */\n      dup2\n      eq\n      tag_947\n      jumpi\n        /* \"#utility.yul\":42237:42789   */\n      jump(tag_945)\n        /* \"#utility.yul\":42270:42436   */\n    tag_946:\n        /* \"#utility.yul\":42354:42358   */\n      0xff\n        /* \"#utility.yul\":42350:42359   */\n      not\n        /* \"#utility.yul\":42339:42348   */\n      dup4\n        /* \"#utility.yul\":42335:42360   */\n      and\n        /* \"#utility.yul\":42330:42333   */\n      dup7\n        /* \"#utility.yul\":42323:42361   */\n      mstore\n        /* \"#utility.yul\":42416:42422   */\n      dup2\n        /* \"#utility.yul\":42409:42423   */\n      iszero\n        /* \"#utility.yul\":42402:42424   */\n      iszero\n        /* \"#utility.yul\":42394:42400   */\n      dup3\n        /* \"#utility.yul\":42390:42425   */\n      mul\n        /* \"#utility.yul\":42385:42388   */\n      dup7\n        /* \"#utility.yul\":42381:42426   */\n      add\n        /* \"#utility.yul\":42374:42426   */\n      swap4\n      pop\n        /* \"#utility.yul\":42270:42436   */\n      jump(tag_945)\n        /* \"#utility.yul\":42445:42789   */\n    tag_947:\n        /* \"#utility.yul\":42512:42553   */\n      tag_948\n        /* \"#utility.yul\":42547:42552   */\n      dup6\n        /* \"#utility.yul\":42512:42553   */\n      tag_569\n      jump\t// in\n    tag_948:\n        /* \"#utility.yul\":42575:42576   */\n      0x00\n        /* \"#utility.yul\":42589:42743   */\n    tag_949:\n        /* \"#utility.yul\":42603:42609   */\n      dup4\n        /* \"#utility.yul\":42600:42601   */\n      dup2\n        /* \"#utility.yul\":42597:42610   */\n      lt\n        /* \"#utility.yul\":42589:42743   */\n      iszero\n      tag_951\n      jumpi\n        /* \"#utility.yul\":42677:42684   */\n      dup2\n        /* \"#utility.yul\":42671:42685   */\n      sload\n        /* \"#utility.yul\":42667:42668   */\n      dup2\n        /* \"#utility.yul\":42662:42665   */\n      dup10\n        /* \"#utility.yul\":42658:42669   */\n      add\n        /* \"#utility.yul\":42651:42686   */\n      mstore\n        /* \"#utility.yul\":42727:42728   */\n      0x01\n        /* \"#utility.yul\":42718:42725   */\n      dup3\n        /* \"#utility.yul\":42714:42729   */\n      add\n        /* \"#utility.yul\":42703:42729   */\n      swap2\n      pop\n        /* \"#utility.yul\":42625:42629   */\n      0x20\n        /* \"#utility.yul\":42622:42623   */\n      dup2\n        /* \"#utility.yul\":42618:42630   */\n      add\n        /* \"#utility.yul\":42613:42630   */\n      swap1\n      pop\n        /* \"#utility.yul\":42589:42743   */\n      jump(tag_949)\n    tag_951:\n        /* \"#utility.yul\":42772:42778   */\n      dup4\n        /* \"#utility.yul\":42767:42770   */\n      dup9\n        /* \"#utility.yul\":42763:42779   */\n      add\n        /* \"#utility.yul\":42756:42779   */\n      swap6\n      pop\n        /* \"#utility.yul\":42452:42789   */\n      pop\n      pop\n        /* \"#utility.yul\":42237:42789   */\n    tag_945:\n      pop\n        /* \"#utility.yul\":42026:42795   */\n      pop\n      pop\n        /* \"#utility.yul\":41917:42795   */\n      swap3\n      swap2\n      pop\n      pop\n      jump\t// out\n        /* \"#utility.yul\":42801:43074   */\n    tag_261:\n        /* \"#utility.yul\":42932:42935   */\n      0x00\n        /* \"#utility.yul\":42954:43048   */\n      tag_953\n        /* \"#utility.yul\":43044:43047   */\n      dup3\n        /* \"#utility.yul\":43035:43041   */\n      dup5\n        /* \"#utility.yul\":42954:43048   */\n      tag_570\n      jump\t// in\n    tag_953:\n        /* \"#utility.yul\":42947:43048   */\n      swap2\n      pop\n        /* \"#utility.yul\":43065:43068   */\n      dup2\n        /* \"#utility.yul\":43058:43068   */\n      swap1\n      pop\n        /* \"#utility.yul\":42801:43074   */\n      swap3\n      swap2\n      pop\n      pop\n      jump\t// out\n        /* \"#utility.yul\":43080:43260   */\n    tag_265:\n        /* \"#utility.yul\":43128:43205   */\n      0x4e487b7100000000000000000000000000000000000000000000000000000000\n        /* \"#utility.yul\":43125:43126   */\n      0x00\n        /* \"#utility.yul\":43118:43206   */\n      mstore\n        /* \"#utility.yul\":43225:43229   */\n      0x32\n        /* \"#utility.yul\":43222:43223   */\n      0x04\n        /* \"#utility.yul\":43215:43230   */\n      mstore\n        /* \"#utility.yul\":43249:43253   */\n      0x24\n        /* \"#utility.yul\":43246:43247   */\n      0x00\n        /* \"#utility.yul\":43239:43254   */\n      revert\n        /* \"#utility.yul\":43266:43448   */\n    tag_571:\n        /* \"#utility.yul\":43406:43440   */\n      0x526577617264206d7573742062652067726561746572207468616e207a65726f\n        /* \"#utility.yul\":43402:43403   */\n      0x00\n        /* \"#utility.yul\":43394:43400   */\n      dup3\n        /* \"#utility.yul\":43390:43404   */\n      add\n        /* \"#utility.yul\":43383:43441   */\n      mstore\n        /* \"#utility.yul\":43266:43448   */\n      pop\n      jump\t// out\n        /* \"#utility.yul\":43454:43820   */\n    tag_572:\n        /* \"#utility.yul\":43596:43599   */\n      0x00\n        /* \"#utility.yul\":43617:43684   */\n      tag_957\n        /* \"#utility.yul\":43681:43683   */\n      0x20\n        /* \"#utility.yul\":43676:43679   */\n      dup4\n        /* \"#utility.yul\":43617:43684   */\n      tag_501\n      jump\t// in\n    tag_957:\n        /* \"#utility.yul\":43610:43684   */\n      swap2\n      pop\n        /* \"#utility.yul\":43693:43786   */\n      tag_958\n        /* \"#utility.yul\":43782:43785   */\n      dup3\n        /* \"#utility.yul\":43693:43786   */\n      tag_571\n      jump\t// in\n    tag_958:\n        /* \"#utility.yul\":43811:43813   */\n      0x20\n        /* \"#utility.yul\":43806:43809   */\n      dup3\n        /* \"#utility.yul\":43802:43814   */\n      add\n        /* \"#utility.yul\":43795:43814   */\n      swap1\n      pop\n        /* \"#utility.yul\":43454:43820   */\n      swap2\n      swap1\n      pop\n      jump\t// out\n        /* \"#utility.yul\":43826:44245   */\n    tag_280:\n        /* \"#utility.yul\":43992:43996   */\n      0x00\n        /* \"#utility.yul\":44030:44032   */\n      0x20\n        /* \"#utility.yul\":44019:44028   */\n      dup3\n        /* \"#utility.yul\":44015:44033   */\n      add\n        /* \"#utility.yul\":44007:44033   */\n      swap1\n      pop\n        /* \"#utility.yul\":44079:44088   */\n      dup2\n        /* \"#utility.yul\":44073:44077   */\n      dup2\n        /* \"#utility.yul\":44069:44089   */\n      sub\n        /* \"#utility.yul\":44065:44066   */\n      0x00\n        /* \"#utility.yul\":44054:44063   */\n      dup4\n        /* \"#utility.yul\":44050:44067   */\n      add\n        /* \"#utility.yul\":44043:44090   */\n      mstore\n        /* \"#utility.yul\":44107:44238   */\n      tag_960\n        /* \"#utility.yul\":44233:44237   */\n      dup2\n        /* \"#utility.yul\":44107:44238   */\n      tag_572\n      jump\t// in\n    tag_960:\n        /* \"#utility.yul\":44099:44238   */\n      swap1\n      pop\n        /* \"#utility.yul\":43826:44245   */\n      swap2\n      swap1\n      pop\n      jump\t// out\n        /* \"#utility.yul\":44251:44425   */\n    tag_573:\n        /* \"#utility.yul\":44391:44417   */\n      0x43617465676f72792063616e6e6f7420626520656d7074790000000000000000\n        /* \"#utility.yul\":44387:44388   */\n      0x00\n        /* \"#utility.yul\":44379:44385   */\n      dup3\n        /* \"#utility.yul\":44375:44389   */\n      add\n        /* \"#utility.yul\":44368:44418   */\n      mstore\n        /* \"#utility.yul\":44251:44425   */\n      pop\n      jump\t// out\n        /* \"#utility.yul\":44431:44797   */\n    tag_574:\n        /* \"#utility.yul\":44573:44576   */\n      0x00\n        /* \"#utility.yul\":44594:44661   */\n      tag_963\n        /* \"#utility.yul\":44658:44660   */\n      0x18\n        /* \"#utility.yul\":44653:44656   */\n      dup4\n        /* \"#utility.yul\":44594:44661   */\n      tag_501\n      jump\t// in\n    tag_963:\n        /* \"#utility.yul\":44587:44661   */\n      swap2\n      pop\n        /* \"#utility.yul\":44670:44763   */\n      tag_964\n        /* \"#utility.yul\":44759:44762   */\n      dup3\n        /* \"#utility.yul\":44670:44763   */\n      tag_573\n      jump\t// in\n    tag_964:\n        /* \"#utility.yul\":44788:44790   */\n      0x20\n        /* \"#utility.yul\":44783:44786   */\n      dup3\n        /* \"#utility.yul\":44779:44791   */\n      add\n        /* \"#utility.yul\":44772:44791   */\n      swap1\n      pop\n        /* \"#utility.yul\":44431:44797   */\n      swap2\n      swap1\n      pop\n      jump\t// out\n        /* \"#utility.yul\":44803:45222   */\n    tag_283:\n        /* \"#utility.yul\":44969:44973   */\n      0x00\n        /* \"#utility.yul\":45007:45009   */\n      0x20\n        /* \"#utility.yul\":44996:45005   */\n      dup3\n        /* \"#utility.yul\":44992:45010   */\n      add\n        /* \"#utility.yul\":44984:45010   */\n      swap1\n      pop\n        /* \"#utility.yul\":45056:45065   */\n      dup2\n        /* \"#utility.yul\":45050:45054   */\n      dup2\n        /* \"#utility.yul\":45046:45066   */\n      sub\n        /* \"#utility.yul\":45042:45043   */\n      0x00\n        /* \"#utility.yul\":45031:45040   */\n      dup4\n        /* \"#utility.yul\":45027:45044   */\n      add\n        /* \"#utility.yul\":45020:45067   */\n      mstore\n        /* \"#utility.yul\":45084:45215   */\n      tag_966\n        /* \"#utility.yul\":45210:45214   */\n      dup2\n        /* \"#utility.yul\":45084:45215   */\n      tag_574\n      jump\t// in\n    tag_966:\n        /* \"#utility.yul\":45076:45215   */\n      swap1\n      pop\n        /* \"#utility.yul\":44803:45222   */\n      swap2\n      swap1\n      pop\n      jump\t// out\n        /* \"#utility.yul\":45228:45408   */\n    tag_286:\n        /* \"#utility.yul\":45276:45353   */\n      0x4e487b7100000000000000000000000000000000000000000000000000000000\n        /* \"#utility.yul\":45273:45274   */\n      0x00\n        /* \"#utility.yul\":45266:45354   */\n      mstore\n        /* \"#utility.yul\":45373:45377   */\n      0x21\n        /* \"#utility.yul\":45370:45371   */\n      0x04\n        /* \"#utility.yul\":45363:45378   */\n      mstore\n        /* \"#utility.yul\":45397:45401   */\n      0x24\n        /* \"#utility.yul\":45394:45395   */\n      0x00\n        /* \"#utility.yul\":45387:45402   */\n      revert\n        /* \"#utility.yul\":45414:46149   */\n    tag_310:\n        /* \"#utility.yul\":45631:45635   */\n      0x00\n        /* \"#utility.yul\":45669:45672   */\n      0x80\n        /* \"#utility.yul\":45658:45667   */\n      dup3\n        /* \"#utility.yul\":45654:45673   */\n      add\n        /* \"#utility.yul\":45646:45673   */\n      swap1\n      pop\n        /* \"#utility.yul\":45683:45754   */\n      tag_969\n        /* \"#utility.yul\":45751:45752   */\n      0x00\n        /* \"#utility.yul\":45740:45749   */\n      dup4\n        /* \"#utility.yul\":45736:45753   */\n      add\n        /* \"#utility.yul\":45727:45733   */\n      dup8\n        /* \"#utility.yul\":45683:45754   */\n      tag_496\n      jump\t// in\n    tag_969:\n        /* \"#utility.yul\":45801:45810   */\n      dup2\n        /* \"#utility.yul\":45795:45799   */\n      dup2\n        /* \"#utility.yul\":45791:45811   */\n      sub\n        /* \"#utility.yul\":45786:45788   */\n      0x20\n        /* \"#utility.yul\":45775:45784   */\n      dup4\n        /* \"#utility.yul\":45771:45789   */\n      add\n        /* \"#utility.yul\":45764:45812   */\n      mstore\n        /* \"#utility.yul\":45829:45907   */\n      tag_970\n        /* \"#utility.yul\":45902:45906   */\n      dup2\n        /* \"#utility.yul\":45893:45899   */\n      dup7\n        /* \"#utility.yul\":45829:45907   */\n      tag_503\n      jump\t// in\n    tag_970:\n        /* \"#utility.yul\":45821:45907   */\n      swap1\n      pop\n        /* \"#utility.yul\":45917:45989   */\n      tag_971\n        /* \"#utility.yul\":45985:45987   */\n      0x40\n        /* \"#utility.yul\":45974:45983   */\n      dup4\n        /* \"#utility.yul\":45970:45988   */\n      add\n        /* \"#utility.yul\":45961:45967   */\n      dup6\n        /* \"#utility.yul\":45917:45989   */\n      tag_496\n      jump\t// in\n    tag_971:\n        /* \"#utility.yul\":46036:46045   */\n      dup2\n        /* \"#utility.yul\":46030:46034   */\n      dup2\n        /* \"#utility.yul\":46026:46046   */\n      sub\n        /* \"#utility.yul\":46021:46023   */\n      0x60\n        /* \"#utility.yul\":46010:46019   */\n      dup4\n        /* \"#utility.yul\":46006:46024   */\n      add\n        /* \"#utility.yul\":45999:46047   */\n      mstore\n        /* \"#utility.yul\":46064:46142   */\n      tag_972\n        /* \"#utility.yul\":46137:46141   */\n      dup2\n        /* \"#utility.yul\":46128:46134   */\n      dup5\n        /* \"#utility.yul\":46064:46142   */\n      tag_503\n      jump\t// in\n    tag_972:\n        /* \"#utility.yul\":46056:46142   */\n      swap1\n      pop\n        /* \"#utility.yul\":45414:46149   */\n      swap6\n      swap5\n      pop\n      pop\n      pop\n      pop\n      pop\n      jump\t// out\n        /* \"#utility.yul\":46155:46375   */\n    tag_575:\n        /* \"#utility.yul\":46295:46329   */\n      0x43616e6e6f742064697374726962757465206265666f726520646561646c696e\n        /* \"#utility.yul\":46291:46292   */\n      0x00\n        /* \"#utility.yul\":46283:46289   */\n      dup3\n        /* \"#utility.yul\":46279:46293   */\n      add\n        /* \"#utility.yul\":46272:46330   */\n      mstore\n        /* \"#utility.yul\":46364:46367   */\n      0x6500000000000000000000000000000000000000000000000000000000000000\n        /* \"#utility.yul\":46359:46361   */\n      0x20\n        /* \"#utility.yul\":46351:46357   */\n      dup3\n        /* \"#utility.yul\":46347:46362   */\n      add\n        /* \"#utility.yul\":46340:46368   */\n      mstore\n        /* \"#utility.yul\":46155:46375   */\n      pop\n      jump\t// out\n        /* \"#utility.yul\":46381:46747   */\n    tag_576:\n        /* \"#utility.yul\":46523:46526   */\n      0x00\n        /* \"#utility.yul\":46544:46611   */\n      tag_975\n        /* \"#utility.yul\":46608:46610   */\n      0x21\n        /* \"#utility.yul\":46603:46606   */\n      dup4\n        /* \"#utility.yul\":46544:46611   */\n      tag_501\n      jump\t// in\n    tag_975:\n        /* \"#utility.yul\":46537:46611   */\n      swap2\n      pop\n        /* \"#utility.yul\":46620:46713   */\n      tag_976\n        /* \"#utility.yul\":46709:46712   */\n      dup3\n        /* \"#utility.yul\":46620:46713   */\n      tag_575\n      jump\t// in\n    tag_976:\n        /* \"#utility.yul\":46738:46740   */\n      0x40\n        /* \"#utility.yul\":46733:46736   */\n      dup3\n        /* \"#utility.yul\":46729:46741   */\n      add\n        /* \"#utility.yul\":46722:46741   */\n      swap1\n      pop\n        /* \"#utility.yul\":46381:46747   */\n      swap2\n      swap1\n      pop\n      jump\t// out\n        /* \"#utility.yul\":46753:47172   */\n    tag_317:\n        /* \"#utility.yul\":46919:46923   */\n      0x00\n        /* \"#utility.yul\":46957:46959   */\n      0x20\n        /* \"#utility.yul\":46946:46955   */\n      dup3\n        /* \"#utility.yul\":46942:46960   */\n      add\n        /* \"#utility.yul\":46934:46960   */\n      swap1\n      pop\n        /* \"#utility.yul\":47006:47015   */\n      dup2\n        /* \"#utility.yul\":47000:47004   */\n      dup2\n        /* \"#utility.yul\":46996:47016   */\n      sub\n        /* \"#utility.yul\":46992:46993   */\n      0x00\n        /* \"#utility.yul\":46981:46990   */\n      dup4\n        /* \"#utility.yul\":46977:46994   */\n      add\n        /* \"#utility.yul\":46970:47017   */\n      mstore\n        /* \"#utility.yul\":47034:47165   */\n      tag_978\n        /* \"#utility.yul\":47160:47164   */\n      dup2\n        /* \"#utility.yul\":47034:47165   */\n      tag_576\n      jump\t// in\n    tag_978:\n        /* \"#utility.yul\":47026:47165   */\n      swap1\n      pop\n        /* \"#utility.yul\":46753:47172   */\n      swap2\n      swap1\n      pop\n      jump\t// out\n        /* \"#utility.yul\":47178:47588   */\n    tag_329:\n        /* \"#utility.yul\":47218:47225   */\n      0x00\n        /* \"#utility.yul\":47241:47261   */\n      tag_980\n        /* \"#utility.yul\":47259:47260   */\n      dup3\n        /* \"#utility.yul\":47241:47261   */\n      tag_484\n      jump\t// in\n    tag_980:\n        /* \"#utility.yul\":47236:47261   */\n      swap2\n      pop\n        /* \"#utility.yul\":47275:47295   */\n      tag_981\n        /* \"#utility.yul\":47293:47294   */\n      dup4\n        /* \"#utility.yul\":47275:47295   */\n      tag_484\n      jump\t// in\n    tag_981:\n        /* \"#utility.yul\":47270:47295   */\n      swap3\n      pop\n        /* \"#utility.yul\":47330:47331   */\n      dup3\n        /* \"#utility.yul\":47327:47328   */\n      dup3\n        /* \"#utility.yul\":47323:47332   */\n      mul\n        /* \"#utility.yul\":47352:47382   */\n      tag_982\n        /* \"#utility.yul\":47370:47381   */\n      dup2\n        /* \"#utility.yul\":47352:47382   */\n      tag_484\n      jump\t// in\n    tag_982:\n        /* \"#utility.yul\":47341:47382   */\n      swap2\n      pop\n        /* \"#utility.yul\":47531:47532   */\n      dup3\n        /* \"#utility.yul\":47522:47529   */\n      dup3\n        /* \"#utility.yul\":47518:47533   */\n      div\n        /* \"#utility.yul\":47515:47516   */\n      dup5\n        /* \"#utility.yul\":47512:47534   */\n      eq\n        /* \"#utility.yul\":47492:47493   */\n      dup4\n        /* \"#utility.yul\":47485:47494   */\n      iszero\n        /* \"#utility.yul\":47465:47548   */\n      or\n        /* \"#utility.yul\":47442:47581   */\n      tag_983\n      jumpi\n        /* \"#utility.yul\":47561:47579   */\n      tag_984\n      tag_546\n      jump\t// in\n    tag_984:\n        /* \"#utility.yul\":47442:47581   */\n    tag_983:\n        /* \"#utility.yul\":47226:47588   */\n      pop\n        /* \"#utility.yul\":47178:47588   */\n      swap3\n      swap2\n      pop\n      pop\n      jump\t// out\n        /* \"#utility.yul\":47594:47774   */\n    tag_577:\n        /* \"#utility.yul\":47642:47719   */\n      0x4e487b7100000000000000000000000000000000000000000000000000000000\n        /* \"#utility.yul\":47639:47640   */\n      0x00\n        /* \"#utility.yul\":47632:47720   */\n      mstore\n        /* \"#utility.yul\":47739:47743   */\n      0x12\n        /* \"#utility.yul\":47736:47737   */\n      0x04\n        /* \"#utility.yul\":47729:47744   */\n      mstore\n        /* \"#utility.yul\":47763:47767   */\n      0x24\n        /* \"#utility.yul\":47760:47761   */\n      0x00\n        /* \"#utility.yul\":47753:47768   */\n      revert\n        /* \"#utility.yul\":47780:47965   */\n    tag_331:\n        /* \"#utility.yul\":47820:47821   */\n      0x00\n        /* \"#utility.yul\":47837:47857   */\n      tag_987\n        /* \"#utility.yul\":47855:47856   */\n      dup3\n        /* \"#utility.yul\":47837:47857   */\n      tag_484\n      jump\t// in\n    tag_987:\n        /* \"#utility.yul\":47832:47857   */\n      swap2\n      pop\n        /* \"#utility.yul\":47871:47891   */\n      tag_988\n        /* \"#utility.yul\":47889:47890   */\n      dup4\n        /* \"#utility.yul\":47871:47891   */\n      tag_484\n      jump\t// in\n    tag_988:\n        /* \"#utility.yul\":47866:47891   */\n      swap3\n      pop\n        /* \"#utility.yul\":47910:47911   */\n      dup3\n        /* \"#utility.yul\":47900:47935   */\n      tag_989\n      jumpi\n        /* \"#utility.yul\":47915:47933   */\n      tag_990\n      tag_577\n      jump\t// in\n    tag_990:\n        /* \"#utility.yul\":47900:47935   */\n    tag_989:\n        /* \"#utility.yul\":47957:47958   */\n      dup3\n        /* \"#utility.yul\":47954:47955   */\n      dup3\n        /* \"#utility.yul\":47950:47959   */\n      div\n        /* \"#utility.yul\":47945:47959   */\n      swap1\n      pop\n        /* \"#utility.yul\":47780:47965   */\n      swap3\n      swap2\n      pop\n      pop\n      jump\t// out\n        /* \"#utility.yul\":47971:48204   */\n    tag_578:\n        /* \"#utility.yul\":48111:48145   */\n      0x4f6e6c79207175657374696f6e2061736b65722063616e2073656c6563742074\n        /* \"#utility.yul\":48107:48108   */\n      0x00\n        /* \"#utility.yul\":48099:48105   */\n      dup3\n        /* \"#utility.yul\":48095:48109   */\n      add\n        /* \"#utility.yul\":48088:48146   */\n      mstore\n        /* \"#utility.yul\":48180:48196   */\n      0x6865206265737420616e73776572000000000000000000000000000000000000\n        /* \"#utility.yul\":48175:48177   */\n      0x20\n        /* \"#utility.yul\":48167:48173   */\n      dup3\n        /* \"#utility.yul\":48163:48178   */\n      add\n        /* \"#utility.yul\":48156:48197   */\n      mstore\n        /* \"#utility.yul\":47971:48204   */\n      pop\n      jump\t// out\n        /* \"#utility.yul\":48210:48576   */\n    tag_579:\n        /* \"#utility.yul\":48352:48355   */\n      0x00\n        /* \"#utility.yul\":48373:48440   */\n      tag_993\n        /* \"#utility.yul\":48437:48439   */\n      0x2e\n        /* \"#utility.yul\":48432:48435   */\n      dup4\n        /* \"#utility.yul\":48373:48440   */\n      tag_501\n      jump\t// in\n    tag_993:\n        /* \"#utility.yul\":48366:48440   */\n      swap2\n      pop\n        /* \"#utility.yul\":48449:48542   */\n      tag_994\n        /* \"#utility.yul\":48538:48541   */\n      dup3\n        /* \"#utility.yul\":48449:48542   */\n      tag_578\n      jump\t// in\n    tag_994:\n        /* \"#utility.yul\":48567:48569   */\n      0x40\n        /* \"#utility.yul\":48562:48565   */\n      dup3\n        /* \"#utility.yul\":48558:48570   */\n      add\n        /* \"#utility.yul\":48551:48570   */\n      swap1\n      pop\n        /* \"#utility.yul\":48210:48576   */\n      swap2\n      swap1\n      pop\n      jump\t// out\n        /* \"#utility.yul\":48582:49001   */\n    tag_339:\n        /* \"#utility.yul\":48748:48752   */\n      0x00\n        /* \"#utility.yul\":48786:48788   */\n      0x20\n        /* \"#utility.yul\":48775:48784   */\n      dup3\n        /* \"#utility.yul\":48771:48789   */\n      add\n        /* \"#utility.yul\":48763:48789   */\n      swap1\n      pop\n        /* \"#utility.yul\":48835:48844   */\n      dup2\n        /* \"#utility.yul\":48829:48833   */\n      dup2\n        /* \"#utility.yul\":48825:48845   */\n      sub\n        /* \"#utility.yul\":48821:48822   */\n      0x00\n        /* \"#utility.yul\":48810:48819   */\n      dup4\n        /* \"#utility.yul\":48806:48823   */\n      add\n        /* \"#utility.yul\":48799:48846   */\n      mstore\n        /* \"#utility.yul\":48863:48994   */\n      tag_996\n        /* \"#utility.yul\":48989:48993   */\n      dup2\n        /* \"#utility.yul\":48863:48994   */\n      tag_579\n      jump\t// in\n    tag_996:\n        /* \"#utility.yul\":48855:48994   */\n      swap1\n      pop\n        /* \"#utility.yul\":48582:49001   */\n      swap2\n      swap1\n      pop\n      jump\t// out\n        /* \"#utility.yul\":49007:49185   */\n    tag_580:\n        /* \"#utility.yul\":49147:49177   */\n      0x5061676520696e646578206d7573742073746172742066726f6d203100000000\n        /* \"#utility.yul\":49143:49144   */\n      0x00\n        /* \"#utility.yul\":49135:49141   */\n      dup3\n        /* \"#utility.yul\":49131:49145   */\n      add\n        /* \"#utility.yul\":49124:49178   */\n      mstore\n        /* \"#utility.yul\":49007:49185   */\n      pop\n      jump\t// out\n        /* \"#utility.yul\":49191:49557   */\n    tag_581:\n        /* \"#utility.yul\":49333:49336   */\n      0x00\n        /* \"#utility.yul\":49354:49421   */\n      tag_999\n        /* \"#utility.yul\":49418:49420   */\n      0x1c\n        /* \"#utility.yul\":49413:49416   */\n      dup4\n        /* \"#utility.yul\":49354:49421   */\n      tag_501\n      jump\t// in\n    tag_999:\n        /* \"#utility.yul\":49347:49421   */\n      swap2\n      pop\n        /* \"#utility.yul\":49430:49523   */\n      tag_1000\n        /* \"#utility.yul\":49519:49522   */\n      dup3\n        /* \"#utility.yul\":49430:49523   */\n      tag_580\n      jump\t// in\n    tag_1000:\n        /* \"#utility.yul\":49548:49550   */\n      0x20\n        /* \"#utility.yul\":49543:49546   */\n      dup3\n        /* \"#utility.yul\":49539:49551   */\n      add\n        /* \"#utility.yul\":49532:49551   */\n      swap1\n      pop\n        /* \"#utility.yul\":49191:49557   */\n      swap2\n      swap1\n      pop\n      jump\t// out\n        /* \"#utility.yul\":49563:49982   */\n    tag_373:\n        /* \"#utility.yul\":49729:49733   */\n      0x00\n        /* \"#utility.yul\":49767:49769   */\n      0x20\n        /* \"#utility.yul\":49756:49765   */\n      dup3\n        /* \"#utility.yul\":49752:49770   */\n      add\n        /* \"#utility.yul\":49744:49770   */\n      swap1\n      pop\n        /* \"#utility.yul\":49816:49825   */\n      dup2\n        /* \"#utility.yul\":49810:49814   */\n      dup2\n        /* \"#utility.yul\":49806:49826   */\n      sub\n        /* \"#utility.yul\":49802:49803   */\n      0x00\n        /* \"#utility.yul\":49791:49800   */\n      dup4\n        /* \"#utility.yul\":49787:49804   */\n      add\n        /* \"#utility.yul\":49780:49827   */\n      mstore\n        /* \"#utility.yul\":49844:49975   */\n      tag_1002\n        /* \"#utility.yul\":49970:49974   */\n      dup2\n        /* \"#utility.yul\":49844:49975   */\n      tag_581\n      jump\t// in\n    tag_1002:\n        /* \"#utility.yul\":49836:49975   */\n      swap1\n      pop\n        /* \"#utility.yul\":49563:49982   */\n      swap2\n      swap1\n      pop\n      jump\t// out\n        /* \"#utility.yul\":49988:50170   */\n    tag_582:\n        /* \"#utility.yul\":50128:50162   */\n      0x506167652073697a65206d7573742062652067726561746572207468616e2030\n        /* \"#utility.yul\":50124:50125   */\n      0x00\n        /* \"#utility.yul\":50116:50122   */\n      dup3\n        /* \"#utility.yul\":50112:50126   */\n      add\n        /* \"#utility.yul\":50105:50163   */\n      mstore\n        /* \"#utility.yul\":49988:50170   */\n      pop\n      jump\t// out\n        /* \"#utility.yul\":50176:50542   */\n    tag_583:\n        /* \"#utility.yul\":50318:50321   */\n      0x00\n        /* \"#utility.yul\":50339:50406   */\n      tag_1005\n        /* \"#utility.yul\":50403:50405   */\n      0x20\n        /* \"#utility.yul\":50398:50401   */\n      dup4\n        /* \"#utility.yul\":50339:50406   */\n      tag_501\n      jump\t// in\n    tag_1005:\n        /* \"#utility.yul\":50332:50406   */\n      swap2\n      pop\n        /* \"#utility.yul\":50415:50508   */\n      tag_1006\n        /* \"#utility.yul\":50504:50507   */\n      dup3\n        /* \"#utility.yul\":50415:50508   */\n      tag_582\n      jump\t// in\n    tag_1006:\n        /* \"#utility.yul\":50533:50535   */\n      0x20\n        /* \"#utility.yul\":50528:50531   */\n      dup3\n        /* \"#utility.yul\":50524:50536   */\n      add\n        /* \"#utility.yul\":50517:50536   */\n      swap1\n      pop\n        /* \"#utility.yul\":50176:50542   */\n      swap2\n      swap1\n      pop\n      jump\t// out\n        /* \"#utility.yul\":50548:50967   */\n    tag_376:\n        /* \"#utility.yul\":50714:50718   */\n      0x00\n        /* \"#utility.yul\":50752:50754   */\n      0x20\n        /* \"#utility.yul\":50741:50750   */\n      dup3\n        /* \"#utility.yul\":50737:50755   */\n      add\n        /* \"#utility.yul\":50729:50755   */\n      swap1\n      pop\n        /* \"#utility.yul\":50801:50810   */\n      dup2\n        /* \"#utility.yul\":50795:50799   */\n      dup2\n        /* \"#utility.yul\":50791:50811   */\n      sub\n        /* \"#utility.yul\":50787:50788   */\n      0x00\n        /* \"#utility.yul\":50776:50785   */\n      dup4\n        /* \"#utility.yul\":50772:50789   */\n      add\n        /* \"#utility.yul\":50765:50812   */\n      mstore\n        /* \"#utility.yul\":50829:50960   */\n      tag_1008\n        /* \"#utility.yul\":50955:50959   */\n      dup2\n        /* \"#utility.yul\":50829:50960   */\n      tag_583\n      jump\t// in\n    tag_1008:\n        /* \"#utility.yul\":50821:50960   */\n      swap1\n      pop\n        /* \"#utility.yul\":50548:50967   */\n      swap2\n      swap1\n      pop\n      jump\t// out\n        /* \"#utility.yul\":50973:51167   */\n    tag_390:\n        /* \"#utility.yul\":51013:51017   */\n      0x00\n        /* \"#utility.yul\":51033:51053   */\n      tag_1010\n        /* \"#utility.yul\":51051:51052   */\n      dup3\n        /* \"#utility.yul\":51033:51053   */\n      tag_484\n      jump\t// in\n    tag_1010:\n        /* \"#utility.yul\":51028:51053   */\n      swap2\n      pop\n        /* \"#utility.yul\":51067:51087   */\n      tag_1011\n        /* \"#utility.yul\":51085:51086   */\n      dup4\n        /* \"#utility.yul\":51067:51087   */\n      tag_484\n      jump\t// in\n    tag_1011:\n        /* \"#utility.yul\":51062:51087   */\n      swap3\n      pop\n        /* \"#utility.yul\":51111:51112   */\n      dup3\n        /* \"#utility.yul\":51108:51109   */\n      dup3\n        /* \"#utility.yul\":51104:51113   */\n      sub\n        /* \"#utility.yul\":51096:51113   */\n      swap1\n      pop\n        /* \"#utility.yul\":51135:51136   */\n      dup2\n        /* \"#utility.yul\":51129:51133   */\n      dup2\n        /* \"#utility.yul\":51126:51137   */\n      gt\n        /* \"#utility.yul\":51123:51160   */\n      iszero\n      tag_1012\n      jumpi\n        /* \"#utility.yul\":51140:51158   */\n      tag_1013\n      tag_546\n      jump\t// in\n    tag_1013:\n        /* \"#utility.yul\":51123:51160   */\n    tag_1012:\n        /* \"#utility.yul\":50973:51167   */\n      swap3\n      swap2\n      pop\n      pop\n      jump\t// out\n        /* \"#utility.yul\":51173:51341   */\n    tag_584:\n        /* \"#utility.yul\":51313:51333   */\n      0x496e76616c6964207061676520696e6465780000000000000000000000000000\n        /* \"#utility.yul\":51309:51310   */\n      0x00\n        /* \"#utility.yul\":51301:51307   */\n      dup3\n        /* \"#utility.yul\":51297:51311   */\n      add\n        /* \"#utility.yul\":51290:51334   */\n      mstore\n        /* \"#utility.yul\":51173:51341   */\n      pop\n      jump\t// out\n        /* \"#utility.yul\":51347:51713   */\n    tag_585:\n        /* \"#utility.yul\":51489:51492   */\n      0x00\n        /* \"#utility.yul\":51510:51577   */\n      tag_1016\n        /* \"#utility.yul\":51574:51576   */\n      0x12\n        /* \"#utility.yul\":51569:51572   */\n      dup4\n        /* \"#utility.yul\":51510:51577   */\n      tag_501\n      jump\t// in\n    tag_1016:\n        /* \"#utility.yul\":51503:51577   */\n      swap2\n      pop\n        /* \"#utility.yul\":51586:51679   */\n      tag_1017\n        /* \"#utility.yul\":51675:51678   */\n      dup3\n        /* \"#utility.yul\":51586:51679   */\n      tag_584\n      jump\t// in\n    tag_1017:\n        /* \"#utility.yul\":51704:51706   */\n      0x20\n        /* \"#utility.yul\":51699:51702   */\n      dup3\n        /* \"#utility.yul\":51695:51707   */\n      add\n        /* \"#utility.yul\":51688:51707   */\n      swap1\n      pop\n        /* \"#utility.yul\":51347:51713   */\n      swap2\n      swap1\n      pop\n      jump\t// out\n        /* \"#utility.yul\":51719:52138   */\n    tag_394:\n        /* \"#utility.yul\":51885:51889   */\n      0x00\n        /* \"#utility.yul\":51923:51925   */\n      0x20\n        /* \"#utility.yul\":51912:51921   */\n      dup3\n        /* \"#utility.yul\":51908:51926   */\n      add\n        /* \"#utility.yul\":51900:51926   */\n      swap1\n      pop\n        /* \"#utility.yul\":51972:51981   */\n      dup2\n        /* \"#utility.yul\":51966:51970   */\n      dup2\n        /* \"#utility.yul\":51962:51982   */\n      sub\n        /* \"#utility.yul\":51958:51959   */\n      0x00\n        /* \"#utility.yul\":51947:51956   */\n      dup4\n        /* \"#utility.yul\":51943:51960   */\n      add\n        /* \"#utility.yul\":51936:51983   */\n      mstore\n        /* \"#utility.yul\":52000:52131   */\n      tag_1019\n        /* \"#utility.yul\":52126:52130   */\n      dup2\n        /* \"#utility.yul\":52000:52131   */\n      tag_585\n      jump\t// in\n    tag_1019:\n        /* \"#utility.yul\":51992:52131   */\n      swap1\n      pop\n        /* \"#utility.yul\":51719:52138   */\n      swap2\n      swap1\n      pop\n      jump\t// out\n\n    auxdata: 0xa2646970667358221220dc6fdca0255a56acc0692aea31f8f3423ff474db0c0adbc06e615e09559f9e8364736f6c634300081a0033\n}\n",
				"bytecode": {
					"linkReferences": {},
					"object": "6080604052662386f26fc100006001553480156019575f80fd5b50335f806101000a81548173ffffffffffffffffffffffffffffffffffffffff021916908373ffffffffffffffffffffffffffffffffffffffff16021790555060016002819055506001600381905550614993806100765f395ff3fe60806040526004361061013f575f3560e01c806361e78617116100b5578063d5999a5c1161006e578063d5999a5c1461043d578063da2b4c1e14610467578063e25f3e0214610491578063ee1589a5146104cd578063f4359ce51461050b578063fd1df035146105355761013f565b806361e786171461034f5780638da5cb5b1461037957806390a3f588146103a3578063934d1fa4146103bf578063b69ef8a8146103e9578063cba13030146104135761013f565b806331b1b9781161010757806331b1b978146102385780633ccfd60b1461027d5780634a8f164f1461029357806355ce8034146102cf578063572491c31461030b57806359974e38146103275761013f565b806301b49d471461014357806301fa3bec1461016b5780632401519c146101935780632690567e146101d457806327e235e3146101fc575b5f80fd5b34801561014e575f80fd5b506101696004803603810190610164919061314a565b610573565b005b348015610176575f80fd5b50610191600480360381019061018c91906132c4565b610781565b005b34801561019e575f80fd5b506101b960048036038101906101b4919061314a565b610c97565b6040516101cb969594939291906133cc565b60405180910390f35b3480156101df575f80fd5b506101fa60048036038101906101f5919061314a565b610d7f565b005b348015610207575f80fd5b50610222600480360381019061021d919061345c565b6111d0565b60405161022f9190613487565b60405180910390f35b348015610243575f80fd5b5061025e600480360381019061025991906134a0565b6111e5565b6040516102749a999897969594939291906134e5565b60405180910390f35b348015610288575f80fd5b506102916113f2565b005b34801561029e575f80fd5b506102b960048036038101906102b4919061314a565b6114fe565b6040516102c69190613680565b60405180910390f35b3480156102da575f80fd5b506102f560048036038101906102f091906136a0565b6116f5565b604051610302919061378f565b60405180910390f35b610325600480360381019061032091906137d2565b611872565b005b348015610332575f80fd5b5061034d600480360381019061034891906134a0565b611b7a565b005b34801561035a575f80fd5b50610363611e34565b6040516103709190613487565b60405180910390f35b348015610384575f80fd5b5061038d611e3a565b60405161039a919061388a565b60405180910390f35b6103bd60048036038101906103b8919061314a565b611e5d565b005b3480156103ca575f80fd5b506103d36121fe565b6040516103e09190613487565b60405180910390f35b3480156103f4575f80fd5b506103fd612205565b60405161040a9190613487565b60405180910390f35b34801561041e575f80fd5b5061042761220c565b6040516104349190613487565b60405180910390f35b348015610448575f80fd5b50610451612212565b60405161045e9190613487565b60405180910390f35b348015610472575f80fd5b5061047b612219565b6040516104889190613487565b60405180910390f35b34801561049c575f80fd5b506104b760048036038101906104b291906134a0565b61221f565b6040516104c49190613997565b60405180910390f35b3480156104d8575f80fd5b506104f360048036038101906104ee91906139b7565b61253c565b60405161050293929190613b48565b60405180910390f35b348015610516575f80fd5b5061051f612b4a565b60405161052c9190613487565b60405180910390f35b348015610540575f80fd5b5061055b6004803603810190610556919061314a565b612b51565b60405161056a93929190613d24565b60405180910390f35b815f73ffffffffffffffffffffffffffffffffffffffff1660045f8381526020019081526020015f206001015f9054906101000a900473ffffffffffffffffffffffffffffffffffffffff1673ffffffffffffffffffffffffffffffffffffffff1603610615576040517f08c379a000000000000000000000000000000000000000000000000000000000815260040161060c90613daa565b60405180910390fd5b8260045f8281526020019081526020015f206008015f9054906101000a900460ff1615610677576040517f08c379a000000000000000000000000000000000000000000000000000000000815260040161066e90613e12565b60405180910390fd5b5f60045f8681526020019081526020015f209050806001015f9054906101000a900473ffffffffffffffffffffffffffffffffffffffff1673ffffffffffffffffffffffffffffffffffffffff163373ffffffffffffffffffffffffffffffffffffffff161461071c576040517f08c379a000000000000000000000000000000000000000000000000000000000815260040161071390613e7a565b60405180910390fd5b6001816008015f6101000a81548160ff0219169083151502179055508381600901819055507f99fe2c8abd13b610e7f7d4a51a49e1391ba19454b72305176b884d66010e475a8585604051610772929190613e98565b60405180910390a15050505050565b815f73ffffffffffffffffffffffffffffffffffffffff1660045f8381526020019081526020015f206001015f9054906101000a900473ffffffffffffffffffffffffffffffffffffffff1673ffffffffffffffffffffffffffffffffffffffff1603610823576040517f08c379a000000000000000000000000000000000000000000000000000000000815260040161081a90613daa565b60405180910390fd5b8260045f8281526020019081526020015f206008015f9054906101000a900460ff1615610885576040517f08c379a000000000000000000000000000000000000000000000000000000000815260040161087c90613e12565b60405180910390fd5b5f60045f8681526020019081526020015f20604051806101400160405290815f8201548152602001600182015f9054906101000a900473ffffffffffffffffffffffffffffffffffffffff1673ffffffffffffffffffffffffffffffffffffffff1673ffffffffffffffffffffffffffffffffffffffff16815260200160028201805461091190613eec565b80601f016020809104026020016040519081016040528092919081815260200182805461093d90613eec565b80156109885780601f1061095f57610100808354040283529160200191610988565b820191905f5260205f20905b81548152906001019060200180831161096b57829003601f168201915b505050505081526020016003820180546109a190613eec565b80601f01602080910402602001604051908101604052809291908181526020018280546109cd90613eec565b8015610a185780601f106109ef57610100808354040283529160200191610a18565b820191905f5260205f20905b8154815290600101906020018083116109fb57829003601f168201915b50505050508152602001600482018054610a3190613eec565b80601f0160208091040260200160405190810160405280929190818152602001828054610a5d90613eec565b8015610aa85780601f10610a7f57610100808354040283529160200191610aa8565b820191905f5260205f20905b815481529060010190602001808311610a8b57829003601f168201915b50505050508152602001600582015481526020016006820154815260200160078201548152602001600882015f9054906101000a900460ff1615151515815260200160098201548152505090508060e00151421115610b3c576040517f08c379a0000000000000000000000000000000000000000000000000000000008152600401610b3390613f66565b60405180910390fd5b5f60035f815480929190610b4f90613fb1565b9190505590506040518060c001604052808281526020013373ffffffffffffffffffffffffffffffffffffffff1681526020018681526020015f81526020015f81526020014281525060055f8881526020019081526020015f205f8381526020019081526020015f205f820151815f01556020820151816001015f6101000a81548173ffffffffffffffffffffffffffffffffffffffff021916908373ffffffffffffffffffffffffffffffffffffffff1602179055506040820151816002019081610c1b9190614195565b50606082015181600301556080820151816004015560a082015181600501559050503373ffffffffffffffffffffffffffffffffffffffff167f1b72a809869907cac4c4e55b8bf6920ff492d2ff53307bb77ba492366b61387c878388604051610c8793929190614264565b60405180910390a2505050505050565b6005602052815f5260405f20602052805f5260405f205f9150915050805f015490806001015f9054906101000a900473ffffffffffffffffffffffffffffffffffffffff1690806002018054610cec90613eec565b80601f0160208091040260200160405190810160405280929190818152602001828054610d1890613eec565b8015610d635780601f10610d3a57610100808354040283529160200191610d63565b820191905f5260205f20905b815481529060010190602001808311610d4657829003601f168201915b5050505050908060030154908060040154908060050154905086565b815f73ffffffffffffffffffffffffffffffffffffffff1660045f8381526020019081526020015f206001015f9054906101000a900473ffffffffffffffffffffffffffffffffffffffff1673ffffffffffffffffffffffffffffffffffffffff1603610e21576040517f08c379a0000000000000000000000000000000000000000000000000000000008152600401610e1890613daa565b60405180910390fd5b8260045f8281526020019081526020015f206008015f9054906101000a900460ff1615610e83576040517f08c379a0000000000000000000000000000000000000000000000000000000008152600401610e7a90613e12565b60405180910390fd5b5f60045f8681526020019081526020015f20604051806101400160405290815f8201548152602001600182015f9054906101000a900473ffffffffffffffffffffffffffffffffffffffff1673ffffffffffffffffffffffffffffffffffffffff1673ffffffffffffffffffffffffffffffffffffffff168152602001600282018054610f0f90613eec565b80601f0160208091040260200160405190810160405280929190818152602001828054610f3b90613eec565b8015610f865780601f10610f5d57610100808354040283529160200191610f86565b820191905f5260205f20905b815481529060010190602001808311610f6957829003601f168201915b50505050508152602001600382018054610f9f90613eec565b80601f0160208091040260200160405190810160405280929190818152602001828054610fcb90613eec565b80156110165780601f10610fed57610100808354040283529160200191611016565b820191905f5260205f20905b815481529060010190602001808311610ff957829003601f168201915b5050505050815260200160048201805461102f90613eec565b80601f016020809104026020016040519081016040528092919081815260200182805461105b90613eec565b80156110a65780601f1061107d576101008083540402835291602001916110a6565b820191905f5260205f20905b81548152906001019060200180831161108957829003601f168201915b50505050508152602001600582015481526020016006820154815260200160078201548152602001600882015f9054906101000a900460ff1615151515815260200160098201548152505090508060e0015142111561113a576040517f08c379a0000000000000000000000000000000000000000000000000000000008152600401611131906142ea565b60405180910390fd5b5f60055f8781526020019081526020015f205f8681526020019081526020015f2090506001816003015f8282546111719190614308565b925050819055503373ffffffffffffffffffffffffffffffffffffffff167fd91ecafccf238642dccd41161308b3eebe62a12bc5819daf5164780c221ec95b87876040516111c0929190613e98565b60405180910390a2505050505050565b6006602052805f5260405f205f915090505481565b6004602052805f5260405f205f91509050805f015490806001015f9054906101000a900473ffffffffffffffffffffffffffffffffffffffff169080600201805461122f90613eec565b80601f016020809104026020016040519081016040528092919081815260200182805461125b90613eec565b80156112a65780601f1061127d576101008083540402835291602001916112a6565b820191905f5260205f20905b81548152906001019060200180831161128957829003601f168201915b5050505050908060030180546112bb90613eec565b80601f01602080910402602001604051908101604052809291908181526020018280546112e790613eec565b80156113325780601f1061130957610100808354040283529160200191611332565b820191905f5260205f20905b81548152906001019060200180831161131557829003601f168201915b50505050509080600401805461134790613eec565b80601f016020809104026020016040519081016040528092919081815260200182805461137390613eec565b80156113be5780601f10611395576101008083540402835291602001916113be565b820191905f5260205f20905b8154815290600101906020018083116113a157829003601f168201915b505050505090806005015490806006015490806007015490806008015f9054906101000a900460ff1690806009015490508a565b5f60065f3373ffffffffffffffffffffffffffffffffffffffff1673ffffffffffffffffffffffffffffffffffffffff1681526020019081526020015f205490505f8111611475576040517f08c379a000000000000000000000000000000000000000000000000000000000815260040161146c90614385565b60405180910390fd5b5f60065f3373ffffffffffffffffffffffffffffffffffffffff1673ffffffffffffffffffffffffffffffffffffffff1681526020019081526020015f20819055503373ffffffffffffffffffffffffffffffffffffffff166108fc8290811502906040515f60405180830381858888f193505050501580156114fa573d5f803e3d5ffd5b5050565b61150661305b565b5f73ffffffffffffffffffffffffffffffffffffffff1660055f8581526020019081526020015f205f8481526020019081526020015f206001015f9054906101000a900473ffffffffffffffffffffffffffffffffffffffff1673ffffffffffffffffffffffffffffffffffffffff16036115b6576040517f08c379a00000000000000000000000000000000000000000000000000000000081526004016115ad906143ed565b60405180910390fd5b60055f8481526020019081526020015f205f8381526020019081526020015f206040518060c00160405290815f8201548152602001600182015f9054906101000a900473ffffffffffffffffffffffffffffffffffffffff1673ffffffffffffffffffffffffffffffffffffffff1673ffffffffffffffffffffffffffffffffffffffff16815260200160028201805461164f90613eec565b80601f016020809104026020016040519081016040528092919081815260200182805461167b90613eec565b80156116c65780601f1061169d576101008083540402835291602001916116c6565b820191905f5260205f20905b8154815290600101906020018083116116a957829003601f168201915b505050505081526020016003820154815260200160048201548152602001600582015481525050905092915050565b60605f60025467ffffffffffffffff811115611714576117136131a0565b5b6040519080825280602002602001820160405280156117425781602001602082028036833780820191505090505b5090505f80600190505b6002548110156117c857848051906020012060045f8381526020019081526020015f2060040160405161177f91906144a7565b6040518091039020036117bb57808383815181106117a05761179f6144bd565b5b60200260200101818152505081806117b790613fb1565b9250505b808060010191505061174c565b505f8167ffffffffffffffff8111156117e4576117e36131a0565b5b6040519080825280602002602001820160405280156118125781602001602082028036833780820191505090505b5090505f5b8281101561186657838181518110611832576118316144bd565b5b602002602001015182828151811061184d5761184c6144bd565b5b6020026020010181815250508080600101915050611817565b50809350505050919050565b5f34116118b4576040517f08c379a00000000000000000000000000000000000000000000000000000000081526004016118ab90614534565b60405180910390fd5b5f8251116118f7576040517f08c379a00000000000000000000000000000000000000000000000000000000081526004016118ee9061459c565b60405180910390fd5b5f80600281111561190b5761190a6145ba565b5b82600281111561191e5761191d6145ba565b5b036119395762093a80426119329190614308565b90506119ba565b6001600281111561194d5761194c6145ba565b5b8260028111156119605761195f6145ba565b5b0361197b5762127500426119749190614308565b90506119b9565b60028081111561198e5761198d6145ba565b5b8260028111156119a1576119a06145ba565b5b036119b85762278d00426119b59190614308565b90505b5b5b5f60025f8154809291906119cd90613fb1565b9190505590506040518061014001604052808281526020013373ffffffffffffffffffffffffffffffffffffffff1681526020018781526020018681526020018581526020013481526020014281526020018381526020015f151581526020015f81525060045f8381526020019081526020015f205f820151815f01556020820151816001015f6101000a81548173ffffffffffffffffffffffffffffffffffffffff021916908373ffffffffffffffffffffffffffffffffffffffff1602179055506040820151816002019081611aa59190614195565b506060820151816003019081611abb9190614195565b506080820151816004019081611ad19190614195565b5060a0820151816005015560c0820151816006015560e08201518160070155610100820151816008015f6101000a81548160ff02191690831515021790555061012082015181600901559050503373ffffffffffffffffffffffffffffffffffffffff167fb8105899d34d8481e717a601e8d7a732c27b0ab23778e01145f2f3eb24a1120c82883488604051611b6a94939291906145e7565b60405180910390a2505050505050565b805f73ffffffffffffffffffffffffffffffffffffffff1660045f8381526020019081526020015f206001015f9054906101000a900473ffffffffffffffffffffffffffffffffffffffff1673ffffffffffffffffffffffffffffffffffffffff1603611c1c576040517f08c379a0000000000000000000000000000000000000000000000000000000008152600401611c1390613daa565b60405180910390fd5b5f60045f8481526020019081526020015f20905080600701544211611c76576040517f08c379a0000000000000000000000000000000000000000000000000000000008152600401611c6d906146a8565b60405180910390fd5b806008015f9054906101000a900460ff1615611cc7576040517f08c379a0000000000000000000000000000000000000000000000000000000008152600401611cbe90613e12565b60405180910390fd5b5f80826005015490505f5b600354811015611d1a5760055f8781526020019081526020015f205f8281526020019081526020015f206003015483611d0b9190614308565b92508080600101915050611cd2565b505f5b600354811015611e10575f60055f8881526020019081526020015f205f8381526020019081526020015f2090505f841115611e02575f84848360030154611d6491906146c6565b611d6e9190614734565b905080826004015f828254611d839190614308565b925050819055508060065f846001015f9054906101000a900473ffffffffffffffffffffffffffffffffffffffff1673ffffffffffffffffffffffffffffffffffffffff1673ffffffffffffffffffffffffffffffffffffffff1681526020019081526020015f205f828254611df99190614308565b92505081905550505b508080600101915050611d1d565b506001836008015f6101000a81548160ff0219169083151502179055505050505050565b60025481565b5f8054906101000a900473ffffffffffffffffffffffffffffffffffffffff1681565b5f73ffffffffffffffffffffffffffffffffffffffff1660045f8481526020019081526020015f206001015f9054906101000a900473ffffffffffffffffffffffffffffffffffffffff1673ffffffffffffffffffffffffffffffffffffffff1603611efe576040517f08c379a0000000000000000000000000000000000000000000000000000000008152600401611ef590613daa565b60405180910390fd5b60045f8381526020019081526020015f206001015f9054906101000a900473ffffffffffffffffffffffffffffffffffffffff1673ffffffffffffffffffffffffffffffffffffffff163373ffffffffffffffffffffffffffffffffffffffff1614611f9f576040517f08c379a0000000000000000000000000000000000000000000000000000000008152600401611f96906147d4565b60405180910390fd5b5f73ffffffffffffffffffffffffffffffffffffffff1660055f8481526020019081526020015f205f8381526020019081526020015f206001015f9054906101000a900473ffffffffffffffffffffffffffffffffffffffff1673ffffffffffffffffffffffffffffffffffffffff160361204f576040517f08c379a0000000000000000000000000000000000000000000000000000000008152600401612046906143ed565b60405180910390fd5b60045f8381526020019081526020015f206008015f9054906101000a900460ff16156120b0576040517f08c379a00000000000000000000000000000000000000000000000000000000081526004016120a790613e12565b60405180910390fd5b600160045f8481526020019081526020015f206008015f6101000a81548160ff0219169083151502179055508060045f8481526020019081526020015f20600901819055505f60055f8481526020019081526020015f205f8381526020019081526020015f206001015f9054906101000a900473ffffffffffffffffffffffffffffffffffffffff1690505f60045f8581526020019081526020015f206005015490508060055f8681526020019081526020015f205f8581526020019081526020015f20600401819055508173ffffffffffffffffffffffffffffffffffffffff166108fc8290811502906040515f60405180830381858888f193505050501580156121be573d5f803e3d5ffd5b507f99fe2c8abd13b610e7f7d4a51a49e1391ba19454b72305176b884d66010e475a84846040516121f0929190613e98565b60405180910390a150505050565b6212750081565b5f47905090565b60035481565b62278d0081565b60015481565b6122276130a2565b5f73ffffffffffffffffffffffffffffffffffffffff1660045f8481526020019081526020015f206001015f9054906101000a900473ffffffffffffffffffffffffffffffffffffffff1673ffffffffffffffffffffffffffffffffffffffff16036122c8576040517f08c379a00000000000000000000000000000000000000000000000000000000081526004016122bf90613daa565b60405180910390fd5b60045f8381526020019081526020015f20604051806101400160405290815f8201548152602001600182015f9054906101000a900473ffffffffffffffffffffffffffffffffffffffff1673ffffffffffffffffffffffffffffffffffffffff1673ffffffffffffffffffffffffffffffffffffffff16815260200160028201805461235390613eec565b80601f016020809104026020016040519081016040528092919081815260200182805461237f90613eec565b80156123ca5780601f106123a1576101008083540402835291602001916123ca565b820191905f5260205f20905b8154815290600101906020018083116123ad57829003601f168201915b505050505081526020016003820180546123e390613eec565b80601f016020809104026020016040519081016040528092919081815260200182805461240f90613eec565b801561245a5780601f106124315761010080835404028352916020019161245a565b820191905f5260205f20905b81548152906001019060200180831161243d57829003601f168201915b5050505050815260200160048201805461247390613eec565b80601f016020809104026020016040519081016040528092919081815260200182805461249f90613eec565b80156124ea5780601f106124c1576101008083540402835291602001916124ea565b820191905f5260205f20905b8154815290600101906020018083116124cd57829003601f168201915b50505050508152602001600582015481526020016006820154815260200160078201548152602001600882015f9054906101000a900460ff161515151581526020016009820154815250509050919050565b60605f805f73ffffffffffffffffffffffffffffffffffffffff1660045f8881526020019081526020015f206001015f9054906101000a900473ffffffffffffffffffffffffffffffffffffffff1673ffffffffffffffffffffffffffffffffffffffff16036125e1576040517f08c379a00000000000000000000000000000000000000000000000000000000081526004016125d890613daa565b60405180910390fd5b5f8511612623576040517f08c379a000000000000000000000000000000000000000000000000000000000815260040161261a9061483c565b60405180910390fd5b5f8411612665576040517f08c379a000000000000000000000000000000000000000000000000000000000815260040161265c906148a4565b60405180910390fd5b5f80600190505b600354811015612707575f73ffffffffffffffffffffffffffffffffffffffff1660055f8a81526020019081526020015f205f8381526020019081526020015f206001015f9054906101000a900473ffffffffffffffffffffffffffffffffffffffff1673ffffffffffffffffffffffffffffffffffffffff16146126fa5781806126f690613fb1565b9250505b808060010191505061266c565b508092505f8303612774575f67ffffffffffffffff81111561272c5761272b6131a0565b5b60405190808252806020026020018201604052801561276557816020015b61275261305b565b81526020019060019003908161274a5790505b505f8093509350935050612b41565b84600186856127839190614308565b61278d91906148c2565b6127979190614734565b9150818611156127dc576040517f08c379a00000000000000000000000000000000000000000000000000000000081526004016127d39061493f565b60405180910390fd5b5f6001866001896127ed91906148c2565b6127f791906146c6565b6128019190614308565b90505f600187836128129190614308565b61281c91906148c2565b9050600160035461282d91906148c2565b81111561284657600160035461284391906148c2565b90505b5f808390505b8281116128ea575f73ffffffffffffffffffffffffffffffffffffffff1660055f8d81526020019081526020015f205f8381526020019081526020015f206001015f9054906101000a900473ffffffffffffffffffffffffffffffffffffffff1673ffffffffffffffffffffffffffffffffffffffff16146128d75781806128d390613fb1565b9250505b80806128e290613fb1565b91505061284c565b508067ffffffffffffffff811115612905576129046131a0565b5b60405190808252806020026020018201604052801561293e57816020015b61292b61305b565b8152602001906001900390816129235790505b5096505f808490505b838111612b3a575f73ffffffffffffffffffffffffffffffffffffffff1660055f8e81526020019081526020015f205f8381526020019081526020015f206001015f9054906101000a900473ffffffffffffffffffffffffffffffffffffffff1673ffffffffffffffffffffffffffffffffffffffff1614612b275760055f8d81526020019081526020015f205f8281526020019081526020015f206040518060c00160405290815f8201548152602001600182015f9054906101000a900473ffffffffffffffffffffffffffffffffffffffff1673ffffffffffffffffffffffffffffffffffffffff1673ffffffffffffffffffffffffffffffffffffffff168152602001600282018054612a5c90613eec565b80601f0160208091040260200160405190810160405280929190818152602001828054612a8890613eec565b8015612ad35780601f10612aaa57610100808354040283529160200191612ad3565b820191905f5260205f20905b815481529060010190602001808311612ab657829003601f168201915b505050505081526020016003820154815260200160048201548152602001600582015481525050898381518110612b0d57612b0c6144bd565b5b60200260200101819052508180612b2390613fb1565b9250505b8080612b3290613fb1565b915050612947565b5050505050505b93509350939050565b62093a8081565b60605f805f8511612b97576040517f08c379a0000000000000000000000000000000000000000000000000000000008152600401612b8e9061483c565b60405180910390fd5b5f8411612bd9576040517f08c379a0000000000000000000000000000000000000000000000000000000008152600401612bd0906148a4565b60405180910390fd5b6001600254612be891906148c2565b91505f8203612c52575f67ffffffffffffffff811115612c0b57612c0a6131a0565b5b604051908082528060200260200182016040528015612c4457816020015b612c316130a2565b815260200190600190039081612c295790505b505f80925092509250613054565b8360018584612c619190614308565b612c6b91906148c2565b612c759190614734565b905080851115612cba576040517f08c379a0000000000000000000000000000000000000000000000000000000008152600401612cb19061493f565b60405180910390fd5b5f600185600188612ccb91906148c2565b612cd591906146c6565b612cdf9190614308565b90505f60018683612cf09190614308565b612cfa91906148c2565b90506001600254612d0b91906148c2565b811115612d24576001600254612d2191906148c2565b90505b5f60018383612d3391906148c2565b612d3d9190614308565b90508067ffffffffffffffff811115612d5957612d586131a0565b5b604051908082528060200260200182016040528015612d9257816020015b612d7f6130a2565b815260200190600190039081612d775790505b5095505f808490505b83811161304e5760045f8281526020019081526020015f20604051806101400160405290815f8201548152602001600182015f9054906101000a900473ffffffffffffffffffffffffffffffffffffffff1673ffffffffffffffffffffffffffffffffffffffff1673ffffffffffffffffffffffffffffffffffffffff168152602001600282018054612e2d90613eec565b80601f0160208091040260200160405190810160405280929190818152602001828054612e5990613eec565b8015612ea45780601f10612e7b57610100808354040283529160200191612ea4565b820191905f5260205f20905b815481529060010190602001808311612e8757829003601f168201915b50505050508152602001600382018054612ebd90613eec565b80601f0160208091040260200160405190810160405280929190818152602001828054612ee990613eec565b8015612f345780601f10612f0b57610100808354040283529160200191612f34565b820191905f5260205f20905b815481529060010190602001808311612f1757829003601f168201915b50505050508152602001600482018054612f4d90613eec565b80601f0160208091040260200160405190810160405280929190818152602001828054612f7990613eec565b8015612fc45780601f10612f9b57610100808354040283529160200191612fc4565b820191905f5260205f20905b815481529060010190602001808311612fa757829003601f168201915b50505050508152602001600582015481526020016006820154815260200160078201548152602001600882015f9054906101000a900460ff16151515158152602001600982015481525050888381518110613022576130216144bd565b5b6020026020010181905250818061303890613fb1565b925050808061304690613fb1565b915050612d9b565b50505050505b9250925092565b6040518060c001604052805f81526020015f73ffffffffffffffffffffffffffffffffffffffff168152602001606081526020015f81526020015f81526020015f81525090565b6040518061014001604052805f81526020015f73ffffffffffffffffffffffffffffffffffffffff1681526020016060815260200160608152602001606081526020015f81526020015f81526020015f81526020015f151581526020015f81525090565b5f604051905090565b5f80fd5b5f80fd5b5f819050919050565b61312981613117565b8114613133575f80fd5b50565b5f8135905061314481613120565b92915050565b5f80604083850312156131605761315f61310f565b5b5f61316d85828601613136565b925050602061317e85828601613136565b9150509250929050565b5f80fd5b5f80fd5b5f601f19601f8301169050919050565b7f4e487b71000000000000000000000000000000000000000000000000000000005f52604160045260245ffd5b6131d682613190565b810181811067ffffffffffffffff821117156131f5576131f46131a0565b5b80604052505050565b5f613207613106565b905061321382826131cd565b919050565b5f67ffffffffffffffff821115613232576132316131a0565b5b61323b82613190565b9050602081019050919050565b828183375f83830152505050565b5f61326861326384613218565b6131fe565b9050828152602081018484840111156132845761328361318c565b5b61328f848285613248565b509392505050565b5f82601f8301126132ab576132aa613188565b5b81356132bb848260208601613256565b91505092915050565b5f80604083850312156132da576132d961310f565b5b5f6132e785828601613136565b925050602083013567ffffffffffffffff81111561330857613307613113565b5b61331485828601613297565b9150509250929050565b61332781613117565b82525050565b5f73ffffffffffffffffffffffffffffffffffffffff82169050919050565b5f6133568261332d565b9050919050565b6133668161334c565b82525050565b5f81519050919050565b5f82825260208201905092915050565b8281835e5f83830152505050565b5f61339e8261336c565b6133a88185613376565b93506133b8818560208601613386565b6133c181613190565b840191505092915050565b5f60c0820190506133df5f83018961331e565b6133ec602083018861335d565b81810360408301526133fe8187613394565b905061340d606083018661331e565b61341a608083018561331e565b61342760a083018461331e565b979650505050505050565b61343b8161334c565b8114613445575f80fd5b50565b5f8135905061345681613432565b92915050565b5f602082840312156134715761347061310f565b5b5f61347e84828501613448565b91505092915050565b5f60208201905061349a5f83018461331e565b92915050565b5f602082840312156134b5576134b461310f565b5b5f6134c284828501613136565b91505092915050565b5f8115159050919050565b6134df816134cb565b82525050565b5f610140820190506134f95f83018d61331e565b613506602083018c61335d565b8181036040830152613518818b613394565b9050818103606083015261352c818a613394565b905081810360808301526135408189613394565b905061354f60a083018861331e565b61355c60c083018761331e565b61356960e083018661331e565b6135776101008301856134d6565b61358561012083018461331e565b9b9a5050505050505050505050565b61359d81613117565b82525050565b6135ac8161334c565b82525050565b5f82825260208201905092915050565b5f6135cc8261336c565b6135d681856135b2565b93506135e6818560208601613386565b6135ef81613190565b840191505092915050565b5f60c083015f83015161360f5f860182613594565b50602083015161362260208601826135a3565b506040830151848203604086015261363a82826135c2565b915050606083015161364f6060860182613594565b5060808301516136626080860182613594565b5060a083015161367560a0860182613594565b508091505092915050565b5f6020820190508181035f83015261369881846135fa565b905092915050565b5f602082840312156136b5576136b461310f565b5b5f82013567ffffffffffffffff8111156136d2576136d1613113565b5b6136de84828501613297565b91505092915050565b5f81519050919050565b5f82825260208201905092915050565b5f819050602082019050919050565b5f61371b8383613594565b60208301905092915050565b5f602082019050919050565b5f61373d826136e7565b61374781856136f1565b935061375283613701565b805f5b838110156137825781516137698882613710565b975061377483613727565b925050600181019050613755565b5085935050505092915050565b5f6020820190508181035f8301526137a78184613733565b905092915050565b600381106137bb575f80fd5b50565b5f813590506137cc816137af565b92915050565b5f805f80608085870312156137ea576137e961310f565b5b5f85013567ffffffffffffffff81111561380757613806613113565b5b61381387828801613297565b945050602085013567ffffffffffffffff81111561383457613833613113565b5b61384087828801613297565b935050604085013567ffffffffffffffff81111561386157613860613113565b5b61386d87828801613297565b925050606061387e878288016137be565b91505092959194509250565b5f60208201905061389d5f83018461335d565b92915050565b6138ac816134cb565b82525050565b5f61014083015f8301516138c85f860182613594565b5060208301516138db60208601826135a3565b50604083015184820360408601526138f382826135c2565b9150506060830151848203606086015261390d82826135c2565b9150506080830151848203608086015261392782826135c2565b91505060a083015161393c60a0860182613594565b5060c083015161394f60c0860182613594565b5060e083015161396260e0860182613594565b506101008301516139776101008601826138a3565b5061012083015161398c610120860182613594565b508091505092915050565b5f6020820190508181035f8301526139af81846138b2565b905092915050565b5f805f606084860312156139ce576139cd61310f565b5b5f6139db86828701613136565b93505060206139ec86828701613136565b92505060406139fd86828701613136565b9150509250925092565b5f81519050919050565b5f82825260208201905092915050565b5f819050602082019050919050565b5f60c083015f830151613a455f860182613594565b506020830151613a5860208601826135a3565b5060408301518482036040860152613a7082826135c2565b9150506060830151613a856060860182613594565b506080830151613a986080860182613594565b5060a0830151613aab60a0860182613594565b508091505092915050565b5f613ac18383613a30565b905092915050565b5f602082019050919050565b5f613adf82613a07565b613ae98185613a11565b935083602082028501613afb85613a21565b805f5b85811015613b365784840389528151613b178582613ab6565b9450613b2283613ac9565b925060208a01995050600181019050613afe565b50829750879550505050505092915050565b5f6060820190508181035f830152613b608186613ad5565b9050613b6f602083018561331e565b613b7c604083018461331e565b949350505050565b5f81519050919050565b5f82825260208201905092915050565b5f819050602082019050919050565b5f61014083015f830151613bc35f860182613594565b506020830151613bd660208601826135a3565b5060408301518482036040860152613bee82826135c2565b91505060608301518482036060860152613c0882826135c2565b91505060808301518482036080860152613c2282826135c2565b91505060a0830151613c3760a0860182613594565b5060c0830151613c4a60c0860182613594565b5060e0830151613c5d60e0860182613594565b50610100830151613c726101008601826138a3565b50610120830151613c87610120860182613594565b508091505092915050565b5f613c9d8383613bad565b905092915050565b5f602082019050919050565b5f613cbb82613b84565b613cc58185613b8e565b935083602082028501613cd785613b9e565b805f5b85811015613d125784840389528151613cf38582613c92565b9450613cfe83613ca5565b925060208a01995050600181019050613cda565b50829750879550505050505092915050565b5f6060820190508181035f830152613d3c8186613cb1565b9050613d4b602083018561331e565b613d58604083018461331e565b949350505050565b7f5175657374696f6e20646f6573206e6f742065786973740000000000000000005f82015250565b5f613d94601783613376565b9150613d9f82613d60565b602082019050919050565b5f6020820190508181035f830152613dc181613d88565b9050919050565b7f5175657374696f6e20697320616c726561647920636c6f7365640000000000005f82015250565b5f613dfc601a83613376565b9150613e0782613dc8565b602082019050919050565b5f6020820190508181035f830152613e2981613df0565b9050919050565b7f4f6e6c792061736b65722063616e20636c6f7365207175657374696f6e0000005f82015250565b5f613e64601d83613376565b9150613e6f82613e30565b602082019050919050565b5f6020820190508181035f830152613e9181613e58565b9050919050565b5f604082019050613eab5f83018561331e565b613eb8602083018461331e565b9392505050565b7f4e487b71000000000000000000000000000000000000000000000000000000005f52602260045260245ffd5b5f6002820490506001821680613f0357607f821691505b602082108103613f1657613f15613ebf565b5b50919050565b7f5175657374696f6e20646561646c696e652068617320706173736564000000005f82015250565b5f613f50601c83613376565b9150613f5b82613f1c565b602082019050919050565b5f6020820190508181035f830152613f7d81613f44565b9050919050565b7f4e487b71000000000000000000000000000000000000000000000000000000005f52601160045260245ffd5b5f613fbb82613117565b91507fffffffffffffffffffffffffffffffffffffffffffffffffffffffffffffffff8203613fed57613fec613f84565b5b600182019050919050565b5f819050815f5260205f209050919050565b5f6020601f8301049050919050565b5f82821b905092915050565b5f600883026140547fffffffffffffffffffffffffffffffffffffffffffffffffffffffffffffffff82614019565b61405e8683614019565b95508019841693508086168417925050509392505050565b5f819050919050565b5f61409961409461408f84613117565b614076565b613117565b9050919050565b5f819050919050565b6140b28361407f565b6140c66140be826140a0565b848454614025565b825550505050565b5f90565b6140da6140ce565b6140e58184846140a9565b505050565b5b81811015614108576140fd5f826140d2565b6001810190506140eb565b5050565b601f82111561414d5761411e81613ff8565b6141278461400a565b81016020851015614136578190505b61414a6141428561400a565b8301826140ea565b50505b505050565b5f82821c905092915050565b5f61416d5f1984600802614152565b1980831691505092915050565b5f614185838361415e565b9150826002028217905092915050565b61419e8261336c565b67ffffffffffffffff8111156141b7576141b66131a0565b5b6141c18254613eec565b6141cc82828561410c565b5f60209050601f8311600181146141fd575f84156141eb578287015190505b6141f5858261417a565b86555061425c565b601f19841661420b86613ff8565b5f5b828110156142325784890151825560018201915060208501945060208101905061420d565b8683101561424f578489015161424b601f89168261415e565b8355505b6001600288020188555050505b505050505050565b5f6060820190506142775f83018661331e565b614284602083018561331e565b81810360408301526142968184613394565b9050949350505050565b7f566f74696e6720706572696f642068617320656e6465640000000000000000005f82015250565b5f6142d4601783613376565b91506142df826142a0565b602082019050919050565b5f6020820190508181035f830152614301816142c8565b9050919050565b5f61431282613117565b915061431d83613117565b925082820190508082111561433557614334613f84565b5b92915050565b7f4e6f2066756e647320746f2077697468647261770000000000000000000000005f82015250565b5f61436f601483613376565b915061437a8261433b565b602082019050919050565b5f6020820190508181035f83015261439c81614363565b9050919050565b7f416e7377657220646f6573206e6f7420657869737400000000000000000000005f82015250565b5f6143d7601583613376565b91506143e2826143a3565b602082019050919050565b5f6020820190508181035f830152614404816143cb565b9050919050565b5f81905092915050565b5f819050815f5260205f209050919050565b5f815461443381613eec565b61443d818661440b565b9450600182165f8114614457576001811461446c5761449e565b60ff198316865281151582028601935061449e565b61447585614415565b5f5b8381101561449657815481890152600182019150602081019050614477565b838801955050505b50505092915050565b5f6144b28284614427565b915081905092915050565b7f4e487b71000000000000000000000000000000000000000000000000000000005f52603260045260245ffd5b7f526577617264206d7573742062652067726561746572207468616e207a65726f5f82015250565b5f61451e602083613376565b9150614529826144ea565b602082019050919050565b5f6020820190508181035f83015261454b81614512565b9050919050565b7f43617465676f72792063616e6e6f7420626520656d70747900000000000000005f82015250565b5f614586601883613376565b915061459182614552565b602082019050919050565b5f6020820190508181035f8301526145b38161457a565b9050919050565b7f4e487b71000000000000000000000000000000000000000000000000000000005f52602160045260245ffd5b5f6080820190506145fa5f83018761331e565b818103602083015261460c8186613394565b905061461b604083018561331e565b818103606083015261462d8184613394565b905095945050505050565b7f43616e6e6f742064697374726962757465206265666f726520646561646c696e5f8201527f6500000000000000000000000000000000000000000000000000000000000000602082015250565b5f614692602183613376565b915061469d82614638565b604082019050919050565b5f6020820190508181035f8301526146bf81614686565b9050919050565b5f6146d082613117565b91506146db83613117565b92508282026146e981613117565b91508282048414831517614700576146ff613f84565b5b5092915050565b7f4e487b71000000000000000000000000000000000000000000000000000000005f52601260045260245ffd5b5f61473e82613117565b915061474983613117565b92508261475957614758614707565b5b828204905092915050565b7f4f6e6c79207175657374696f6e2061736b65722063616e2073656c65637420745f8201527f6865206265737420616e73776572000000000000000000000000000000000000602082015250565b5f6147be602e83613376565b91506147c982614764565b604082019050919050565b5f6020820190508181035f8301526147eb816147b2565b9050919050565b7f5061676520696e646578206d7573742073746172742066726f6d2031000000005f82015250565b5f614826601c83613376565b9150614831826147f2565b602082019050919050565b5f6020820190508181035f8301526148538161481a565b9050919050565b7f506167652073697a65206d7573742062652067726561746572207468616e20305f82015250565b5f61488e602083613376565b91506148998261485a565b602082019050919050565b5f6020820190508181035f8301526148bb81614882565b9050919050565b5f6148cc82613117565b91506148d783613117565b92508282039050818111156148ef576148ee613f84565b5b92915050565b7f496e76616c6964207061676520696e64657800000000000000000000000000005f82015250565b5f614929601283613376565b9150614934826148f5565b602082019050919050565b5f6020820190508181035f8301526149568161491d565b905091905056fea2646970667358221220dc6fdca0255a56acc0692aea31f8f3423ff474db0c0adbc06e615e09559f9e8364736f6c634300081a0033",
					"opcodes": "PUSH1 0x80 PUSH1 0x40 MSTORE PUSH7 0x2386F26FC10000 PUSH1 0x1 SSTORE CALLVALUE DUP1 ISZERO PUSH1 0x19 JUMPI PUSH0 DUP1 REVERT JUMPDEST POP CALLER PUSH0 DUP1 PUSH2 0x100 EXP DUP2 SLOAD DUP2 PUSH20 0xFFFFFFFFFFFFFFFFFFFFFFFFFFFFFFFFFFFFFFFF MUL NOT AND SWAP1 DUP4 PUSH20 0xFFFFFFFFFFFFFFFFFFFFFFFFFFFFFFFFFFFFFFFF AND MUL OR SWAP1 SSTORE POP PUSH1 0x1 PUSH1 0x2 DUP2 SWAP1 SSTORE POP PUSH1 0x1 PUSH1 0x3 DUP2 SWAP1 SSTORE POP PUSH2 0x4993 DUP1 PUSH2 0x76 PUSH0 CODECOPY PUSH0 RETURN INVALID PUSH1 0x80 PUSH1 0x40 MSTORE PUSH1 0x4 CALLDATASIZE LT PUSH2 0x13F JUMPI PUSH0 CALLDATALOAD PUSH1 0xE0 SHR DUP1 PUSH4 0x61E78617 GT PUSH2 0xB5 JUMPI DUP1 PUSH4 0xD5999A5C GT PUSH2 0x6E JUMPI DUP1 PUSH4 0xD5999A5C EQ PUSH2 0x43D JUMPI DUP1 PUSH4 0xDA2B4C1E EQ PUSH2 0x467 JUMPI DUP1 PUSH4 0xE25F3E02 EQ PUSH2 0x491 JUMPI DUP1 PUSH4 0xEE1589A5 EQ PUSH2 0x4CD JUMPI DUP1 PUSH4 0xF4359CE5 EQ PUSH2 0x50B JUMPI DUP1 PUSH4 0xFD1DF035 EQ PUSH2 0x535 JUMPI PUSH2 0x13F JUMP JUMPDEST DUP1 PUSH4 0x61E78617 EQ PUSH2 0x34F JUMPI DUP1 PUSH4 0x8DA5CB5B EQ PUSH2 0x379 JUMPI DUP1 PUSH4 0x90A3F588 EQ PUSH2 0x3A3 JUMPI DUP1 PUSH4 0x934D1FA4 EQ PUSH2 0x3BF JUMPI DUP1 PUSH4 0xB69EF8A8 EQ PUSH2 0x3E9 JUMPI DUP1 PUSH4 0xCBA13030 EQ PUSH2 0x413 JUMPI PUSH2 0x13F JUMP JUMPDEST DUP1 PUSH4 0x31B1B978 GT PUSH2 0x107 JUMPI DUP1 PUSH4 0x31B1B978 EQ PUSH2 0x238 JUMPI DUP1 PUSH4 0x3CCFD60B EQ PUSH2 0x27D JUMPI DUP1 PUSH4 0x4A8F164F EQ PUSH2 0x293 JUMPI DUP1 PUSH4 0x55CE8034 EQ PUSH2 0x2CF JUMPI DUP1 PUSH4 0x572491C3 EQ PUSH2 0x30B JUMPI DUP1 PUSH4 0x59974E38 EQ PUSH2 0x327 JUMPI PUSH2 0x13F JUMP JUMPDEST DUP1 PUSH4 0x1B49D47 EQ PUSH2 0x143 JUMPI DUP1 PUSH4 0x1FA3BEC EQ PUSH2 0x16B JUMPI DUP1 PUSH4 0x2401519C EQ PUSH2 0x193 JUMPI DUP1 PUSH4 0x2690567E EQ PUSH2 0x1D4 JUMPI DUP1 PUSH4 0x27E235E3 EQ PUSH2 0x1FC JUMPI JUMPDEST PUSH0 DUP1 REVERT JUMPDEST CALLVALUE DUP1 ISZERO PUSH2 0x14E JUMPI PUSH0 DUP1 REVERT JUMPDEST POP PUSH2 0x169 PUSH1 0x4 DUP1 CALLDATASIZE SUB DUP2 ADD SWAP1 PUSH2 0x164 SWAP2 SWAP1 PUSH2 0x314A JUMP JUMPDEST PUSH2 0x573 JUMP JUMPDEST STOP JUMPDEST CALLVALUE DUP1 ISZERO PUSH2 0x176 JUMPI PUSH0 DUP1 REVERT JUMPDEST POP PUSH2 0x191 PUSH1 0x4 DUP1 CALLDATASIZE SUB DUP2 ADD SWAP1 PUSH2 0x18C SWAP2 SWAP1 PUSH2 0x32C4 JUMP JUMPDEST PUSH2 0x781 JUMP JUMPDEST STOP JUMPDEST CALLVALUE DUP1 ISZERO PUSH2 0x19E JUMPI PUSH0 DUP1 REVERT JUMPDEST POP PUSH2 0x1B9 PUSH1 0x4 DUP1 CALLDATASIZE SUB DUP2 ADD SWAP1 PUSH2 0x1B4 SWAP2 SWAP1 PUSH2 0x314A JUMP JUMPDEST PUSH2 0xC97 JUMP JUMPDEST PUSH1 0x40 MLOAD PUSH2 0x1CB SWAP7 SWAP6 SWAP5 SWAP4 SWAP3 SWAP2 SWAP1 PUSH2 0x33CC JUMP JUMPDEST PUSH1 0x40 MLOAD DUP1 SWAP2 SUB SWAP1 RETURN JUMPDEST CALLVALUE DUP1 ISZERO PUSH2 0x1DF JUMPI PUSH0 DUP1 REVERT JUMPDEST POP PUSH2 0x1FA PUSH1 0x4 DUP1 CALLDATASIZE SUB DUP2 ADD SWAP1 PUSH2 0x1F5 SWAP2 SWAP1 PUSH2 0x314A JUMP JUMPDEST PUSH2 0xD7F JUMP JUMPDEST STOP JUMPDEST CALLVALUE DUP1 ISZERO PUSH2 0x207 JUMPI PUSH0 DUP1 REVERT JUMPDEST POP PUSH2 0x222 PUSH1 0x4 DUP1 CALLDATASIZE SUB DUP2 ADD SWAP1 PUSH2 0x21D SWAP2 SWAP1 PUSH2 0x345C JUMP JUMPDEST PUSH2 0x11D0 JUMP JUMPDEST PUSH1 0x40 MLOAD PUSH2 0x22F SWAP2 SWAP1 PUSH2 0x3487 JUMP JUMPDEST PUSH1 0x40 MLOAD DUP1 SWAP2 SUB SWAP1 RETURN JUMPDEST CALLVALUE DUP1 ISZERO PUSH2 0x243 JUMPI PUSH0 DUP1 REVERT JUMPDEST POP PUSH2 0x25E PUSH1 0x4 DUP1 CALLDATASIZE SUB DUP2 ADD SWAP1 PUSH2 0x259 SWAP2 SWAP1 PUSH2 0x34A0 JUMP JUMPDEST PUSH2 0x11E5 JUMP JUMPDEST PUSH1 0x40 MLOAD PUSH2 0x274 SWAP11 SWAP10 SWAP9 SWAP8 SWAP7 SWAP6 SWAP5 SWAP4 SWAP3 SWAP2 SWAP1 PUSH2 0x34E5 JUMP JUMPDEST PUSH1 0x40 MLOAD DUP1 SWAP2 SUB SWAP1 RETURN JUMPDEST CALLVALUE DUP1 ISZERO PUSH2 0x288 JUMPI PUSH0 DUP1 REVERT JUMPDEST POP PUSH2 0x291 PUSH2 0x13F2 JUMP JUMPDEST STOP JUMPDEST CALLVALUE DUP1 ISZERO PUSH2 0x29E JUMPI PUSH0 DUP1 REVERT JUMPDEST POP PUSH2 0x2B9 PUSH1 0x4 DUP1 CALLDATASIZE SUB DUP2 ADD SWAP1 PUSH2 0x2B4 SWAP2 SWAP1 PUSH2 0x314A JUMP JUMPDEST PUSH2 0x14FE JUMP JUMPDEST PUSH1 0x40 MLOAD PUSH2 0x2C6 SWAP2 SWAP1 PUSH2 0x3680 JUMP JUMPDEST PUSH1 0x40 MLOAD DUP1 SWAP2 SUB SWAP1 RETURN JUMPDEST CALLVALUE DUP1 ISZERO PUSH2 0x2DA JUMPI PUSH0 DUP1 REVERT JUMPDEST POP PUSH2 0x2F5 PUSH1 0x4 DUP1 CALLDATASIZE SUB DUP2 ADD SWAP1 PUSH2 0x2F0 SWAP2 SWAP1 PUSH2 0x36A0 JUMP JUMPDEST PUSH2 0x16F5 JUMP JUMPDEST PUSH1 0x40 MLOAD PUSH2 0x302 SWAP2 SWAP1 PUSH2 0x378F JUMP JUMPDEST PUSH1 0x40 MLOAD DUP1 SWAP2 SUB SWAP1 RETURN JUMPDEST PUSH2 0x325 PUSH1 0x4 DUP1 CALLDATASIZE SUB DUP2 ADD SWAP1 PUSH2 0x320 SWAP2 SWAP1 PUSH2 0x37D2 JUMP JUMPDEST PUSH2 0x1872 JUMP JUMPDEST STOP JUMPDEST CALLVALUE DUP1 ISZERO PUSH2 0x332 JUMPI PUSH0 DUP1 REVERT JUMPDEST POP PUSH2 0x34D PUSH1 0x4 DUP1 CALLDATASIZE SUB DUP2 ADD SWAP1 PUSH2 0x348 SWAP2 SWAP1 PUSH2 0x34A0 JUMP JUMPDEST PUSH2 0x1B7A JUMP JUMPDEST STOP JUMPDEST CALLVALUE DUP1 ISZERO PUSH2 0x35A JUMPI PUSH0 DUP1 REVERT JUMPDEST POP PUSH2 0x363 PUSH2 0x1E34 JUMP JUMPDEST PUSH1 0x40 MLOAD PUSH2 0x370 SWAP2 SWAP1 PUSH2 0x3487 JUMP JUMPDEST PUSH1 0x40 MLOAD DUP1 SWAP2 SUB SWAP1 RETURN JUMPDEST CALLVALUE DUP1 ISZERO PUSH2 0x384 JUMPI PUSH0 DUP1 REVERT JUMPDEST POP PUSH2 0x38D PUSH2 0x1E3A JUMP JUMPDEST PUSH1 0x40 MLOAD PUSH2 0x39A SWAP2 SWAP1 PUSH2 0x388A JUMP JUMPDEST PUSH1 0x40 MLOAD DUP1 SWAP2 SUB SWAP1 RETURN JUMPDEST PUSH2 0x3BD PUSH1 0x4 DUP1 CALLDATASIZE SUB DUP2 ADD SWAP1 PUSH2 0x3B8 SWAP2 SWAP1 PUSH2 0x314A JUMP JUMPDEST PUSH2 0x1E5D JUMP JUMPDEST STOP JUMPDEST CALLVALUE DUP1 ISZERO PUSH2 0x3CA JUMPI PUSH0 DUP1 REVERT JUMPDEST POP PUSH2 0x3D3 PUSH2 0x21FE JUMP JUMPDEST PUSH1 0x40 MLOAD PUSH2 0x3E0 SWAP2 SWAP1 PUSH2 0x3487 JUMP JUMPDEST PUSH1 0x40 MLOAD DUP1 SWAP2 SUB SWAP1 RETURN JUMPDEST CALLVALUE DUP1 ISZERO PUSH2 0x3F4 JUMPI PUSH0 DUP1 REVERT JUMPDEST POP PUSH2 0x3FD PUSH2 0x2205 JUMP JUMPDEST PUSH1 0x40 MLOAD PUSH2 0x40A SWAP2 SWAP1 PUSH2 0x3487 JUMP JUMPDEST PUSH1 0x40 MLOAD DUP1 SWAP2 SUB SWAP1 RETURN JUMPDEST CALLVALUE DUP1 ISZERO PUSH2 0x41E JUMPI PUSH0 DUP1 REVERT JUMPDEST POP PUSH2 0x427 PUSH2 0x220C JUMP JUMPDEST PUSH1 0x40 MLOAD PUSH2 0x434 SWAP2 SWAP1 PUSH2 0x3487 JUMP JUMPDEST PUSH1 0x40 MLOAD DUP1 SWAP2 SUB SWAP1 RETURN JUMPDEST CALLVALUE DUP1 ISZERO PUSH2 0x448 JUMPI PUSH0 DUP1 REVERT JUMPDEST POP PUSH2 0x451 PUSH2 0x2212 JUMP JUMPDEST PUSH1 0x40 MLOAD PUSH2 0x45E SWAP2 SWAP1 PUSH2 0x3487 JUMP JUMPDEST PUSH1 0x40 MLOAD DUP1 SWAP2 SUB SWAP1 RETURN JUMPDEST CALLVALUE DUP1 ISZERO PUSH2 0x472 JUMPI PUSH0 DUP1 REVERT JUMPDEST POP PUSH2 0x47B PUSH2 0x2219 JUMP JUMPDEST PUSH1 0x40 MLOAD PUSH2 0x488 SWAP2 SWAP1 PUSH2 0x3487 JUMP JUMPDEST PUSH1 0x40 MLOAD DUP1 SWAP2 SUB SWAP1 RETURN JUMPDEST CALLVALUE DUP1 ISZERO PUSH2 0x49C JUMPI PUSH0 DUP1 REVERT JUMPDEST POP PUSH2 0x4B7 PUSH1 0x4 DUP1 CALLDATASIZE SUB DUP2 ADD SWAP1 PUSH2 0x4B2 SWAP2 SWAP1 PUSH2 0x34A0 JUMP JUMPDEST PUSH2 0x221F JUMP JUMPDEST PUSH1 0x40 MLOAD PUSH2 0x4C4 SWAP2 SWAP1 PUSH2 0x3997 JUMP JUMPDEST PUSH1 0x40 MLOAD DUP1 SWAP2 SUB SWAP1 RETURN JUMPDEST CALLVALUE DUP1 ISZERO PUSH2 0x4D8 JUMPI PUSH0 DUP1 REVERT JUMPDEST POP PUSH2 0x4F3 PUSH1 0x4 DUP1 CALLDATASIZE SUB DUP2 ADD SWAP1 PUSH2 0x4EE SWAP2 SWAP1 PUSH2 0x39B7 JUMP JUMPDEST PUSH2 0x253C JUMP JUMPDEST PUSH1 0x40 MLOAD PUSH2 0x502 SWAP4 SWAP3 SWAP2 SWAP1 PUSH2 0x3B48 JUMP JUMPDEST PUSH1 0x40 MLOAD DUP1 SWAP2 SUB SWAP1 RETURN JUMPDEST CALLVALUE DUP1 ISZERO PUSH2 0x516 JUMPI PUSH0 DUP1 REVERT JUMPDEST POP PUSH2 0x51F PUSH2 0x2B4A JUMP JUMPDEST PUSH1 0x40 MLOAD PUSH2 0x52C SWAP2 SWAP1 PUSH2 0x3487 JUMP JUMPDEST PUSH1 0x40 MLOAD DUP1 SWAP2 SUB SWAP1 RETURN JUMPDEST CALLVALUE DUP1 ISZERO PUSH2 0x540 JUMPI PUSH0 DUP1 REVERT JUMPDEST POP PUSH2 0x55B PUSH1 0x4 DUP1 CALLDATASIZE SUB DUP2 ADD SWAP1 PUSH2 0x556 SWAP2 SWAP1 PUSH2 0x314A JUMP JUMPDEST PUSH2 0x2B51 JUMP JUMPDEST PUSH1 0x40 MLOAD PUSH2 0x56A SWAP4 SWAP3 SWAP2 SWAP1 PUSH2 0x3D24 JUMP JUMPDEST PUSH1 0x40 MLOAD DUP1 SWAP2 SUB SWAP1 RETURN JUMPDEST DUP2 PUSH0 PUSH20 0xFFFFFFFFFFFFFFFFFFFFFFFFFFFFFFFFFFFFFFFF AND PUSH1 0x4 PUSH0 DUP4 DUP2 MSTORE PUSH1 0x20 ADD SWAP1 DUP2 MSTORE PUSH1 0x20 ADD PUSH0 KECCAK256 PUSH1 0x1 ADD PUSH0 SWAP1 SLOAD SWAP1 PUSH2 0x100 EXP SWAP1 DIV PUSH20 0xFFFFFFFFFFFFFFFFFFFFFFFFFFFFFFFFFFFFFFFF AND PUSH20 0xFFFFFFFFFFFFFFFFFFFFFFFFFFFFFFFFFFFFFFFF AND SUB PUSH2 0x615 JUMPI PUSH1 0x40 MLOAD PUSH32 0x8C379A000000000000000000000000000000000000000000000000000000000 DUP2 MSTORE PUSH1 0x4 ADD PUSH2 0x60C SWAP1 PUSH2 0x3DAA JUMP JUMPDEST PUSH1 0x40 MLOAD DUP1 SWAP2 SUB SWAP1 REVERT JUMPDEST DUP3 PUSH1 0x4 PUSH0 DUP3 DUP2 MSTORE PUSH1 0x20 ADD SWAP1 DUP2 MSTORE PUSH1 0x20 ADD PUSH0 KECCAK256 PUSH1 0x8 ADD PUSH0 SWAP1 SLOAD SWAP1 PUSH2 0x100 EXP SWAP1 DIV PUSH1 0xFF AND ISZERO PUSH2 0x677 JUMPI PUSH1 0x40 MLOAD PUSH32 0x8C379A000000000000000000000000000000000000000000000000000000000 DUP2 MSTORE PUSH1 0x4 ADD PUSH2 0x66E SWAP1 PUSH2 0x3E12 JUMP JUMPDEST PUSH1 0x40 MLOAD DUP1 SWAP2 SUB SWAP1 REVERT JUMPDEST PUSH0 PUSH1 0x4 PUSH0 DUP7 DUP2 MSTORE PUSH1 0x20 ADD SWAP1 DUP2 MSTORE PUSH1 0x20 ADD PUSH0 KECCAK256 SWAP1 POP DUP1 PUSH1 0x1 ADD PUSH0 SWAP1 SLOAD SWAP1 PUSH2 0x100 EXP SWAP1 DIV PUSH20 0xFFFFFFFFFFFFFFFFFFFFFFFFFFFFFFFFFFFFFFFF AND PUSH20 0xFFFFFFFFFFFFFFFFFFFFFFFFFFFFFFFFFFFFFFFF AND CALLER PUSH20 0xFFFFFFFFFFFFFFFFFFFFFFFFFFFFFFFFFFFFFFFF AND EQ PUSH2 0x71C JUMPI PUSH1 0x40 MLOAD PUSH32 0x8C379A000000000000000000000000000000000000000000000000000000000 DUP2 MSTORE PUSH1 0x4 ADD PUSH2 0x713 SWAP1 PUSH2 0x3E7A JUMP JUMPDEST PUSH1 0x40 MLOAD DUP1 SWAP2 SUB SWAP1 REVERT JUMPDEST PUSH1 0x1 DUP2 PUSH1 0x8 ADD PUSH0 PUSH2 0x100 EXP DUP2 SLOAD DUP2 PUSH1 0xFF MUL NOT AND SWAP1 DUP4 ISZERO ISZERO MUL OR SWAP1 SSTORE POP DUP4 DUP2 PUSH1 0x9 ADD DUP2 SWAP1 SSTORE POP PUSH32 0x99FE2C8ABD13B610E7F7D4A51A49E1391BA19454B72305176B884D66010E475A DUP6 DUP6 PUSH1 0x40 MLOAD PUSH2 0x772 SWAP3 SWAP2 SWAP1 PUSH2 0x3E98 JUMP JUMPDEST PUSH1 0x40 MLOAD DUP1 SWAP2 SUB SWAP1 LOG1 POP POP POP POP POP JUMP JUMPDEST DUP2 PUSH0 PUSH20 0xFFFFFFFFFFFFFFFFFFFFFFFFFFFFFFFFFFFFFFFF AND PUSH1 0x4 PUSH0 DUP4 DUP2 MSTORE PUSH1 0x20 ADD SWAP1 DUP2 MSTORE PUSH1 0x20 ADD PUSH0 KECCAK256 PUSH1 0x1 ADD PUSH0 SWAP1 SLOAD SWAP1 PUSH2 0x100 EXP SWAP1 DIV PUSH20 0xFFFFFFFFFFFFFFFFFFFFFFFFFFFFFFFFFFFFFFFF AND PUSH20 0xFFFFFFFFFFFFFFFFFFFFFFFFFFFFFFFFFFFFFFFF AND SUB PUSH2 0x823 JUMPI PUSH1 0x40 MLOAD PUSH32 0x8C379A000000000000000000000000000000000000000000000000000000000 DUP2 MSTORE PUSH1 0x4 ADD PUSH2 0x81A SWAP1 PUSH2 0x3DAA JUMP JUMPDEST PUSH1 0x40 MLOAD DUP1 SWAP2 SUB SWAP1 REVERT JUMPDEST DUP3 PUSH1 0x4 PUSH0 DUP3 DUP2 MSTORE PUSH1 0x20 ADD SWAP1 DUP2 MSTORE PUSH1 0x20 ADD PUSH0 KECCAK256 PUSH1 0x8 ADD PUSH0 SWAP1 SLOAD SWAP1 PUSH2 0x100 EXP SWAP1 DIV PUSH1 0xFF AND ISZERO PUSH2 0x885 JUMPI PUSH1 0x40 MLOAD PUSH32 0x8C379A000000000000000000000000000000000000000000000000000000000 DUP2 MSTORE PUSH1 0x4 ADD PUSH2 0x87C SWAP1 PUSH2 0x3E12 JUMP JUMPDEST PUSH1 0x40 MLOAD DUP1 SWAP2 SUB SWAP1 REVERT JUMPDEST PUSH0 PUSH1 0x4 PUSH0 DUP7 DUP2 MSTORE PUSH1 0x20 ADD SWAP1 DUP2 MSTORE PUSH1 0x20 ADD PUSH0 KECCAK256 PUSH1 0x40 MLOAD DUP1 PUSH2 0x140 ADD PUSH1 0x40 MSTORE SWAP1 DUP2 PUSH0 DUP3 ADD SLOAD DUP2 MSTORE PUSH1 0x20 ADD PUSH1 0x1 DUP3 ADD PUSH0 SWAP1 SLOAD SWAP1 PUSH2 0x100 EXP SWAP1 DIV PUSH20 0xFFFFFFFFFFFFFFFFFFFFFFFFFFFFFFFFFFFFFFFF AND PUSH20 0xFFFFFFFFFFFFFFFFFFFFFFFFFFFFFFFFFFFFFFFF AND PUSH20 0xFFFFFFFFFFFFFFFFFFFFFFFFFFFFFFFFFFFFFFFF AND DUP2 MSTORE PUSH1 0x20 ADD PUSH1 0x2 DUP3 ADD DUP1 SLOAD PUSH2 0x911 SWAP1 PUSH2 0x3EEC JUMP JUMPDEST DUP1 PUSH1 0x1F ADD PUSH1 0x20 DUP1 SWAP2 DIV MUL PUSH1 0x20 ADD PUSH1 0x40 MLOAD SWAP1 DUP2 ADD PUSH1 0x40 MSTORE DUP1 SWAP3 SWAP2 SWAP1 DUP2 DUP2 MSTORE PUSH1 0x20 ADD DUP3 DUP1 SLOAD PUSH2 0x93D SWAP1 PUSH2 0x3EEC JUMP JUMPDEST DUP1 ISZERO PUSH2 0x988 JUMPI DUP1 PUSH1 0x1F LT PUSH2 0x95F JUMPI PUSH2 0x100 DUP1 DUP4 SLOAD DIV MUL DUP4 MSTORE SWAP2 PUSH1 0x20 ADD SWAP2 PUSH2 0x988 JUMP JUMPDEST DUP3 ADD SWAP2 SWAP1 PUSH0 MSTORE PUSH1 0x20 PUSH0 KECCAK256 SWAP1 JUMPDEST DUP2 SLOAD DUP2 MSTORE SWAP1 PUSH1 0x1 ADD SWAP1 PUSH1 0x20 ADD DUP1 DUP4 GT PUSH2 0x96B JUMPI DUP3 SWAP1 SUB PUSH1 0x1F AND DUP3 ADD SWAP2 JUMPDEST POP POP POP POP POP DUP2 MSTORE PUSH1 0x20 ADD PUSH1 0x3 DUP3 ADD DUP1 SLOAD PUSH2 0x9A1 SWAP1 PUSH2 0x3EEC JUMP JUMPDEST DUP1 PUSH1 0x1F ADD PUSH1 0x20 DUP1 SWAP2 DIV MUL PUSH1 0x20 ADD PUSH1 0x40 MLOAD SWAP1 DUP2 ADD PUSH1 0x40 MSTORE DUP1 SWAP3 SWAP2 SWAP1 DUP2 DUP2 MSTORE PUSH1 0x20 ADD DUP3 DUP1 SLOAD PUSH2 0x9CD SWAP1 PUSH2 0x3EEC JUMP JUMPDEST DUP1 ISZERO PUSH2 0xA18 JUMPI DUP1 PUSH1 0x1F LT PUSH2 0x9EF JUMPI PUSH2 0x100 DUP1 DUP4 SLOAD DIV MUL DUP4 MSTORE SWAP2 PUSH1 0x20 ADD SWAP2 PUSH2 0xA18 JUMP JUMPDEST DUP3 ADD SWAP2 SWAP1 PUSH0 MSTORE PUSH1 0x20 PUSH0 KECCAK256 SWAP1 JUMPDEST DUP2 SLOAD DUP2 MSTORE SWAP1 PUSH1 0x1 ADD SWAP1 PUSH1 0x20 ADD DUP1 DUP4 GT PUSH2 0x9FB JUMPI DUP3 SWAP1 SUB PUSH1 0x1F AND DUP3 ADD SWAP2 JUMPDEST POP POP POP POP POP DUP2 MSTORE PUSH1 0x20 ADD PUSH1 0x4 DUP3 ADD DUP1 SLOAD PUSH2 0xA31 SWAP1 PUSH2 0x3EEC JUMP JUMPDEST DUP1 PUSH1 0x1F ADD PUSH1 0x20 DUP1 SWAP2 DIV MUL PUSH1 0x20 ADD PUSH1 0x40 MLOAD SWAP1 DUP2 ADD PUSH1 0x40 MSTORE DUP1 SWAP3 SWAP2 SWAP1 DUP2 DUP2 MSTORE PUSH1 0x20 ADD DUP3 DUP1 SLOAD PUSH2 0xA5D SWAP1 PUSH2 0x3EEC JUMP JUMPDEST DUP1 ISZERO PUSH2 0xAA8 JUMPI DUP1 PUSH1 0x1F LT PUSH2 0xA7F JUMPI PUSH2 0x100 DUP1 DUP4 SLOAD DIV MUL DUP4 MSTORE SWAP2 PUSH1 0x20 ADD SWAP2 PUSH2 0xAA8 JUMP JUMPDEST DUP3 ADD SWAP2 SWAP1 PUSH0 MSTORE PUSH1 0x20 PUSH0 KECCAK256 SWAP1 JUMPDEST DUP2 SLOAD DUP2 MSTORE SWAP1 PUSH1 0x1 ADD SWAP1 PUSH1 0x20 ADD DUP1 DUP4 GT PUSH2 0xA8B JUMPI DUP3 SWAP1 SUB PUSH1 0x1F AND DUP3 ADD SWAP2 JUMPDEST POP POP POP POP POP DUP2 MSTORE PUSH1 0x20 ADD PUSH1 0x5 DUP3 ADD SLOAD DUP2 MSTORE PUSH1 0x20 ADD PUSH1 0x6 DUP3 ADD SLOAD DUP2 MSTORE PUSH1 0x20 ADD PUSH1 0x7 DUP3 ADD SLOAD DUP2 MSTORE PUSH1 0x20 ADD PUSH1 0x8 DUP3 ADD PUSH0 SWAP1 SLOAD SWAP1 PUSH2 0x100 EXP SWAP1 DIV PUSH1 0xFF AND ISZERO ISZERO ISZERO ISZERO DUP2 MSTORE PUSH1 0x20 ADD PUSH1 0x9 DUP3 ADD SLOAD DUP2 MSTORE POP POP SWAP1 POP DUP1 PUSH1 0xE0 ADD MLOAD TIMESTAMP GT ISZERO PUSH2 0xB3C JUMPI PUSH1 0x40 MLOAD PUSH32 0x8C379A000000000000000000000000000000000000000000000000000000000 DUP2 MSTORE PUSH1 0x4 ADD PUSH2 0xB33 SWAP1 PUSH2 0x3F66 JUMP JUMPDEST PUSH1 0x40 MLOAD DUP1 SWAP2 SUB SWAP1 REVERT JUMPDEST PUSH0 PUSH1 0x3 PUSH0 DUP2 SLOAD DUP1 SWAP3 SWAP2 SWAP1 PUSH2 0xB4F SWAP1 PUSH2 0x3FB1 JUMP JUMPDEST SWAP2 SWAP1 POP SSTORE SWAP1 POP PUSH1 0x40 MLOAD DUP1 PUSH1 0xC0 ADD PUSH1 0x40 MSTORE DUP1 DUP3 DUP2 MSTORE PUSH1 0x20 ADD CALLER PUSH20 0xFFFFFFFFFFFFFFFFFFFFFFFFFFFFFFFFFFFFFFFF AND DUP2 MSTORE PUSH1 0x20 ADD DUP7 DUP2 MSTORE PUSH1 0x20 ADD PUSH0 DUP2 MSTORE PUSH1 0x20 ADD PUSH0 DUP2 MSTORE PUSH1 0x20 ADD TIMESTAMP DUP2 MSTORE POP PUSH1 0x5 PUSH0 DUP9 DUP2 MSTORE PUSH1 0x20 ADD SWAP1 DUP2 MSTORE PUSH1 0x20 ADD PUSH0 KECCAK256 PUSH0 DUP4 DUP2 MSTORE PUSH1 0x20 ADD SWAP1 DUP2 MSTORE PUSH1 0x20 ADD PUSH0 KECCAK256 PUSH0 DUP3 ADD MLOAD DUP2 PUSH0 ADD SSTORE PUSH1 0x20 DUP3 ADD MLOAD DUP2 PUSH1 0x1 ADD PUSH0 PUSH2 0x100 EXP DUP2 SLOAD DUP2 PUSH20 0xFFFFFFFFFFFFFFFFFFFFFFFFFFFFFFFFFFFFFFFF MUL NOT AND SWAP1 DUP4 PUSH20 0xFFFFFFFFFFFFFFFFFFFFFFFFFFFFFFFFFFFFFFFF AND MUL OR SWAP1 SSTORE POP PUSH1 0x40 DUP3 ADD MLOAD DUP2 PUSH1 0x2 ADD SWAP1 DUP2 PUSH2 0xC1B SWAP2 SWAP1 PUSH2 0x4195 JUMP JUMPDEST POP PUSH1 0x60 DUP3 ADD MLOAD DUP2 PUSH1 0x3 ADD SSTORE PUSH1 0x80 DUP3 ADD MLOAD DUP2 PUSH1 0x4 ADD SSTORE PUSH1 0xA0 DUP3 ADD MLOAD DUP2 PUSH1 0x5 ADD SSTORE SWAP1 POP POP CALLER PUSH20 0xFFFFFFFFFFFFFFFFFFFFFFFFFFFFFFFFFFFFFFFF AND PUSH32 0x1B72A809869907CAC4C4E55B8BF6920FF492D2FF53307BB77BA492366B61387C DUP8 DUP4 DUP9 PUSH1 0x40 MLOAD PUSH2 0xC87 SWAP4 SWAP3 SWAP2 SWAP1 PUSH2 0x4264 JUMP JUMPDEST PUSH1 0x40 MLOAD DUP1 SWAP2 SUB SWAP1 LOG2 POP POP POP POP POP POP JUMP JUMPDEST PUSH1 0x5 PUSH1 0x20 MSTORE DUP2 PUSH0 MSTORE PUSH1 0x40 PUSH0 KECCAK256 PUSH1 0x20 MSTORE DUP1 PUSH0 MSTORE PUSH1 0x40 PUSH0 KECCAK256 PUSH0 SWAP2 POP SWAP2 POP POP DUP1 PUSH0 ADD SLOAD SWAP1 DUP1 PUSH1 0x1 ADD PUSH0 SWAP1 SLOAD SWAP1 PUSH2 0x100 EXP SWAP1 DIV PUSH20 0xFFFFFFFFFFFFFFFFFFFFFFFFFFFFFFFFFFFFFFFF AND SWAP1 DUP1 PUSH1 0x2 ADD DUP1 SLOAD PUSH2 0xCEC SWAP1 PUSH2 0x3EEC JUMP JUMPDEST DUP1 PUSH1 0x1F ADD PUSH1 0x20 DUP1 SWAP2 DIV MUL PUSH1 0x20 ADD PUSH1 0x40 MLOAD SWAP1 DUP2 ADD PUSH1 0x40 MSTORE DUP1 SWAP3 SWAP2 SWAP1 DUP2 DUP2 MSTORE PUSH1 0x20 ADD DUP3 DUP1 SLOAD PUSH2 0xD18 SWAP1 PUSH2 0x3EEC JUMP JUMPDEST DUP1 ISZERO PUSH2 0xD63 JUMPI DUP1 PUSH1 0x1F LT PUSH2 0xD3A JUMPI PUSH2 0x100 DUP1 DUP4 SLOAD DIV MUL DUP4 MSTORE SWAP2 PUSH1 0x20 ADD SWAP2 PUSH2 0xD63 JUMP JUMPDEST DUP3 ADD SWAP2 SWAP1 PUSH0 MSTORE PUSH1 0x20 PUSH0 KECCAK256 SWAP1 JUMPDEST DUP2 SLOAD DUP2 MSTORE SWAP1 PUSH1 0x1 ADD SWAP1 PUSH1 0x20 ADD DUP1 DUP4 GT PUSH2 0xD46 JUMPI DUP3 SWAP1 SUB PUSH1 0x1F AND DUP3 ADD SWAP2 JUMPDEST POP POP POP POP POP SWAP1 DUP1 PUSH1 0x3 ADD SLOAD SWAP1 DUP1 PUSH1 0x4 ADD SLOAD SWAP1 DUP1 PUSH1 0x5 ADD SLOAD SWAP1 POP DUP7 JUMP JUMPDEST DUP2 PUSH0 PUSH20 0xFFFFFFFFFFFFFFFFFFFFFFFFFFFFFFFFFFFFFFFF AND PUSH1 0x4 PUSH0 DUP4 DUP2 MSTORE PUSH1 0x20 ADD SWAP1 DUP2 MSTORE PUSH1 0x20 ADD PUSH0 KECCAK256 PUSH1 0x1 ADD PUSH0 SWAP1 SLOAD SWAP1 PUSH2 0x100 EXP SWAP1 DIV PUSH20 0xFFFFFFFFFFFFFFFFFFFFFFFFFFFFFFFFFFFFFFFF AND PUSH20 0xFFFFFFFFFFFFFFFFFFFFFFFFFFFFFFFFFFFFFFFF AND SUB PUSH2 0xE21 JUMPI PUSH1 0x40 MLOAD PUSH32 0x8C379A000000000000000000000000000000000000000000000000000000000 DUP2 MSTORE PUSH1 0x4 ADD PUSH2 0xE18 SWAP1 PUSH2 0x3DAA JUMP JUMPDEST PUSH1 0x40 MLOAD DUP1 SWAP2 SUB SWAP1 REVERT JUMPDEST DUP3 PUSH1 0x4 PUSH0 DUP3 DUP2 MSTORE PUSH1 0x20 ADD SWAP1 DUP2 MSTORE PUSH1 0x20 ADD PUSH0 KECCAK256 PUSH1 0x8 ADD PUSH0 SWAP1 SLOAD SWAP1 PUSH2 0x100 EXP SWAP1 DIV PUSH1 0xFF AND ISZERO PUSH2 0xE83 JUMPI PUSH1 0x40 MLOAD PUSH32 0x8C379A000000000000000000000000000000000000000000000000000000000 DUP2 MSTORE PUSH1 0x4 ADD PUSH2 0xE7A SWAP1 PUSH2 0x3E12 JUMP JUMPDEST PUSH1 0x40 MLOAD DUP1 SWAP2 SUB SWAP1 REVERT JUMPDEST PUSH0 PUSH1 0x4 PUSH0 DUP7 DUP2 MSTORE PUSH1 0x20 ADD SWAP1 DUP2 MSTORE PUSH1 0x20 ADD PUSH0 KECCAK256 PUSH1 0x40 MLOAD DUP1 PUSH2 0x140 ADD PUSH1 0x40 MSTORE SWAP1 DUP2 PUSH0 DUP3 ADD SLOAD DUP2 MSTORE PUSH1 0x20 ADD PUSH1 0x1 DUP3 ADD PUSH0 SWAP1 SLOAD SWAP1 PUSH2 0x100 EXP SWAP1 DIV PUSH20 0xFFFFFFFFFFFFFFFFFFFFFFFFFFFFFFFFFFFFFFFF AND PUSH20 0xFFFFFFFFFFFFFFFFFFFFFFFFFFFFFFFFFFFFFFFF AND PUSH20 0xFFFFFFFFFFFFFFFFFFFFFFFFFFFFFFFFFFFFFFFF AND DUP2 MSTORE PUSH1 0x20 ADD PUSH1 0x2 DUP3 ADD DUP1 SLOAD PUSH2 0xF0F SWAP1 PUSH2 0x3EEC JUMP JUMPDEST DUP1 PUSH1 0x1F ADD PUSH1 0x20 DUP1 SWAP2 DIV MUL PUSH1 0x20 ADD PUSH1 0x40 MLOAD SWAP1 DUP2 ADD PUSH1 0x40 MSTORE DUP1 SWAP3 SWAP2 SWAP1 DUP2 DUP2 MSTORE PUSH1 0x20 ADD DUP3 DUP1 SLOAD PUSH2 0xF3B SWAP1 PUSH2 0x3EEC JUMP JUMPDEST DUP1 ISZERO PUSH2 0xF86 JUMPI DUP1 PUSH1 0x1F LT PUSH2 0xF5D JUMPI PUSH2 0x100 DUP1 DUP4 SLOAD DIV MUL DUP4 MSTORE SWAP2 PUSH1 0x20 ADD SWAP2 PUSH2 0xF86 JUMP JUMPDEST DUP3 ADD SWAP2 SWAP1 PUSH0 MSTORE PUSH1 0x20 PUSH0 KECCAK256 SWAP1 JUMPDEST DUP2 SLOAD DUP2 MSTORE SWAP1 PUSH1 0x1 ADD SWAP1 PUSH1 0x20 ADD DUP1 DUP4 GT PUSH2 0xF69 JUMPI DUP3 SWAP1 SUB PUSH1 0x1F AND DUP3 ADD SWAP2 JUMPDEST POP POP POP POP POP DUP2 MSTORE PUSH1 0x20 ADD PUSH1 0x3 DUP3 ADD DUP1 SLOAD PUSH2 0xF9F SWAP1 PUSH2 0x3EEC JUMP JUMPDEST DUP1 PUSH1 0x1F ADD PUSH1 0x20 DUP1 SWAP2 DIV MUL PUSH1 0x20 ADD PUSH1 0x40 MLOAD SWAP1 DUP2 ADD PUSH1 0x40 MSTORE DUP1 SWAP3 SWAP2 SWAP1 DUP2 DUP2 MSTORE PUSH1 0x20 ADD DUP3 DUP1 SLOAD PUSH2 0xFCB SWAP1 PUSH2 0x3EEC JUMP JUMPDEST DUP1 ISZERO PUSH2 0x1016 JUMPI DUP1 PUSH1 0x1F LT PUSH2 0xFED JUMPI PUSH2 0x100 DUP1 DUP4 SLOAD DIV MUL DUP4 MSTORE SWAP2 PUSH1 0x20 ADD SWAP2 PUSH2 0x1016 JUMP JUMPDEST DUP3 ADD SWAP2 SWAP1 PUSH0 MSTORE PUSH1 0x20 PUSH0 KECCAK256 SWAP1 JUMPDEST DUP2 SLOAD DUP2 MSTORE SWAP1 PUSH1 0x1 ADD SWAP1 PUSH1 0x20 ADD DUP1 DUP4 GT PUSH2 0xFF9 JUMPI DUP3 SWAP1 SUB PUSH1 0x1F AND DUP3 ADD SWAP2 JUMPDEST POP POP POP POP POP DUP2 MSTORE PUSH1 0x20 ADD PUSH1 0x4 DUP3 ADD DUP1 SLOAD PUSH2 0x102F SWAP1 PUSH2 0x3EEC JUMP JUMPDEST DUP1 PUSH1 0x1F ADD PUSH1 0x20 DUP1 SWAP2 DIV MUL PUSH1 0x20 ADD PUSH1 0x40 MLOAD SWAP1 DUP2 ADD PUSH1 0x40 MSTORE DUP1 SWAP3 SWAP2 SWAP1 DUP2 DUP2 MSTORE PUSH1 0x20 ADD DUP3 DUP1 SLOAD PUSH2 0x105B SWAP1 PUSH2 0x3EEC JUMP JUMPDEST DUP1 ISZERO PUSH2 0x10A6 JUMPI DUP1 PUSH1 0x1F LT PUSH2 0x107D JUMPI PUSH2 0x100 DUP1 DUP4 SLOAD DIV MUL DUP4 MSTORE SWAP2 PUSH1 0x20 ADD SWAP2 PUSH2 0x10A6 JUMP JUMPDEST DUP3 ADD SWAP2 SWAP1 PUSH0 MSTORE PUSH1 0x20 PUSH0 KECCAK256 SWAP1 JUMPDEST DUP2 SLOAD DUP2 MSTORE SWAP1 PUSH1 0x1 ADD SWAP1 PUSH1 0x20 ADD DUP1 DUP4 GT PUSH2 0x1089 JUMPI DUP3 SWAP1 SUB PUSH1 0x1F AND DUP3 ADD SWAP2 JUMPDEST POP POP POP POP POP DUP2 MSTORE PUSH1 0x20 ADD PUSH1 0x5 DUP3 ADD SLOAD DUP2 MSTORE PUSH1 0x20 ADD PUSH1 0x6 DUP3 ADD SLOAD DUP2 MSTORE PUSH1 0x20 ADD PUSH1 0x7 DUP3 ADD SLOAD DUP2 MSTORE PUSH1 0x20 ADD PUSH1 0x8 DUP3 ADD PUSH0 SWAP1 SLOAD SWAP1 PUSH2 0x100 EXP SWAP1 DIV PUSH1 0xFF AND ISZERO ISZERO ISZERO ISZERO DUP2 MSTORE PUSH1 0x20 ADD PUSH1 0x9 DUP3 ADD SLOAD DUP2 MSTORE POP POP SWAP1 POP DUP1 PUSH1 0xE0 ADD MLOAD TIMESTAMP GT ISZERO PUSH2 0x113A JUMPI PUSH1 0x40 MLOAD PUSH32 0x8C379A000000000000000000000000000000000000000000000000000000000 DUP2 MSTORE PUSH1 0x4 ADD PUSH2 0x1131 SWAP1 PUSH2 0x42EA JUMP JUMPDEST PUSH1 0x40 MLOAD DUP1 SWAP2 SUB SWAP1 REVERT JUMPDEST PUSH0 PUSH1 0x5 PUSH0 DUP8 DUP2 MSTORE PUSH1 0x20 ADD SWAP1 DUP2 MSTORE PUSH1 0x20 ADD PUSH0 KECCAK256 PUSH0 DUP7 DUP2 MSTORE PUSH1 0x20 ADD SWAP1 DUP2 MSTORE PUSH1 0x20 ADD PUSH0 KECCAK256 SWAP1 POP PUSH1 0x1 DUP2 PUSH1 0x3 ADD PUSH0 DUP3 DUP3 SLOAD PUSH2 0x1171 SWAP2 SWAP1 PUSH2 0x4308 JUMP JUMPDEST SWAP3 POP POP DUP2 SWAP1 SSTORE POP CALLER PUSH20 0xFFFFFFFFFFFFFFFFFFFFFFFFFFFFFFFFFFFFFFFF AND PUSH32 0xD91ECAFCCF238642DCCD41161308B3EEBE62A12BC5819DAF5164780C221EC95B DUP8 DUP8 PUSH1 0x40 MLOAD PUSH2 0x11C0 SWAP3 SWAP2 SWAP1 PUSH2 0x3E98 JUMP JUMPDEST PUSH1 0x40 MLOAD DUP1 SWAP2 SUB SWAP1 LOG2 POP POP POP POP POP POP JUMP JUMPDEST PUSH1 0x6 PUSH1 0x20 MSTORE DUP1 PUSH0 MSTORE PUSH1 0x40 PUSH0 KECCAK256 PUSH0 SWAP2 POP SWAP1 POP SLOAD DUP2 JUMP JUMPDEST PUSH1 0x4 PUSH1 0x20 MSTORE DUP1 PUSH0 MSTORE PUSH1 0x40 PUSH0 KECCAK256 PUSH0 SWAP2 POP SWAP1 POP DUP1 PUSH0 ADD SLOAD SWAP1 DUP1 PUSH1 0x1 ADD PUSH0 SWAP1 SLOAD SWAP1 PUSH2 0x100 EXP SWAP1 DIV PUSH20 0xFFFFFFFFFFFFFFFFFFFFFFFFFFFFFFFFFFFFFFFF AND SWAP1 DUP1 PUSH1 0x2 ADD DUP1 SLOAD PUSH2 0x122F SWAP1 PUSH2 0x3EEC JUMP JUMPDEST DUP1 PUSH1 0x1F ADD PUSH1 0x20 DUP1 SWAP2 DIV MUL PUSH1 0x20 ADD PUSH1 0x40 MLOAD SWAP1 DUP2 ADD PUSH1 0x40 MSTORE DUP1 SWAP3 SWAP2 SWAP1 DUP2 DUP2 MSTORE PUSH1 0x20 ADD DUP3 DUP1 SLOAD PUSH2 0x125B SWAP1 PUSH2 0x3EEC JUMP JUMPDEST DUP1 ISZERO PUSH2 0x12A6 JUMPI DUP1 PUSH1 0x1F LT PUSH2 0x127D JUMPI PUSH2 0x100 DUP1 DUP4 SLOAD DIV MUL DUP4 MSTORE SWAP2 PUSH1 0x20 ADD SWAP2 PUSH2 0x12A6 JUMP JUMPDEST DUP3 ADD SWAP2 SWAP1 PUSH0 MSTORE PUSH1 0x20 PUSH0 KECCAK256 SWAP1 JUMPDEST DUP2 SLOAD DUP2 MSTORE SWAP1 PUSH1 0x1 ADD SWAP1 PUSH1 0x20 ADD DUP1 DUP4 GT PUSH2 0x1289 JUMPI DUP3 SWAP1 SUB PUSH1 0x1F AND DUP3 ADD SWAP2 JUMPDEST POP POP POP POP POP SWAP1 DUP1 PUSH1 0x3 ADD DUP1 SLOAD PUSH2 0x12BB SWAP1 PUSH2 0x3EEC JUMP JUMPDEST DUP1 PUSH1 0x1F ADD PUSH1 0x20 DUP1 SWAP2 DIV MUL PUSH1 0x20 ADD PUSH1 0x40 MLOAD SWAP1 DUP2 ADD PUSH1 0x40 MSTORE DUP1 SWAP3 SWAP2 SWAP1 DUP2 DUP2 MSTORE PUSH1 0x20 ADD DUP3 DUP1 SLOAD PUSH2 0x12E7 SWAP1 PUSH2 0x3EEC JUMP JUMPDEST DUP1 ISZERO PUSH2 0x1332 JUMPI DUP1 PUSH1 0x1F LT PUSH2 0x1309 JUMPI PUSH2 0x100 DUP1 DUP4 SLOAD DIV MUL DUP4 MSTORE SWAP2 PUSH1 0x20 ADD SWAP2 PUSH2 0x1332 JUMP JUMPDEST DUP3 ADD SWAP2 SWAP1 PUSH0 MSTORE PUSH1 0x20 PUSH0 KECCAK256 SWAP1 JUMPDEST DUP2 SLOAD DUP2 MSTORE SWAP1 PUSH1 0x1 ADD SWAP1 PUSH1 0x20 ADD DUP1 DUP4 GT PUSH2 0x1315 JUMPI DUP3 SWAP1 SUB PUSH1 0x1F AND DUP3 ADD SWAP2 JUMPDEST POP POP POP POP POP SWAP1 DUP1 PUSH1 0x4 ADD DUP1 SLOAD PUSH2 0x1347 SWAP1 PUSH2 0x3EEC JUMP JUMPDEST DUP1 PUSH1 0x1F ADD PUSH1 0x20 DUP1 SWAP2 DIV MUL PUSH1 0x20 ADD PUSH1 0x40 MLOAD SWAP1 DUP2 ADD PUSH1 0x40 MSTORE DUP1 SWAP3 SWAP2 SWAP1 DUP2 DUP2 MSTORE PUSH1 0x20 ADD DUP3 DUP1 SLOAD PUSH2 0x1373 SWAP1 PUSH2 0x3EEC JUMP JUMPDEST DUP1 ISZERO PUSH2 0x13BE JUMPI DUP1 PUSH1 0x1F LT PUSH2 0x1395 JUMPI PUSH2 0x100 DUP1 DUP4 SLOAD DIV MUL DUP4 MSTORE SWAP2 PUSH1 0x20 ADD SWAP2 PUSH2 0x13BE JUMP JUMPDEST DUP3 ADD SWAP2 SWAP1 PUSH0 MSTORE PUSH1 0x20 PUSH0 KECCAK256 SWAP1 JUMPDEST DUP2 SLOAD DUP2 MSTORE SWAP1 PUSH1 0x1 ADD SWAP1 PUSH1 0x20 ADD DUP1 DUP4 GT PUSH2 0x13A1 JUMPI DUP3 SWAP1 SUB PUSH1 0x1F AND DUP3 ADD SWAP2 JUMPDEST POP POP POP POP POP SWAP1 DUP1 PUSH1 0x5 ADD SLOAD SWAP1 DUP1 PUSH1 0x6 ADD SLOAD SWAP1 DUP1 PUSH1 0x7 ADD SLOAD SWAP1 DUP1 PUSH1 0x8 ADD PUSH0 SWAP1 SLOAD SWAP1 PUSH2 0x100 EXP SWAP1 DIV PUSH1 0xFF AND SWAP1 DUP1 PUSH1 0x9 ADD SLOAD SWAP1 POP DUP11 JUMP JUMPDEST PUSH0 PUSH1 0x6 PUSH0 CALLER PUSH20 0xFFFFFFFFFFFFFFFFFFFFFFFFFFFFFFFFFFFFFFFF AND PUSH20 0xFFFFFFFFFFFFFFFFFFFFFFFFFFFFFFFFFFFFFFFF AND DUP2 MSTORE PUSH1 0x20 ADD SWAP1 DUP2 MSTORE PUSH1 0x20 ADD PUSH0 KECCAK256 SLOAD SWAP1 POP PUSH0 DUP2 GT PUSH2 0x1475 JUMPI PUSH1 0x40 MLOAD PUSH32 0x8C379A000000000000000000000000000000000000000000000000000000000 DUP2 MSTORE PUSH1 0x4 ADD PUSH2 0x146C SWAP1 PUSH2 0x4385 JUMP JUMPDEST PUSH1 0x40 MLOAD DUP1 SWAP2 SUB SWAP1 REVERT JUMPDEST PUSH0 PUSH1 0x6 PUSH0 CALLER PUSH20 0xFFFFFFFFFFFFFFFFFFFFFFFFFFFFFFFFFFFFFFFF AND PUSH20 0xFFFFFFFFFFFFFFFFFFFFFFFFFFFFFFFFFFFFFFFF AND DUP2 MSTORE PUSH1 0x20 ADD SWAP1 DUP2 MSTORE PUSH1 0x20 ADD PUSH0 KECCAK256 DUP2 SWAP1 SSTORE POP CALLER PUSH20 0xFFFFFFFFFFFFFFFFFFFFFFFFFFFFFFFFFFFFFFFF AND PUSH2 0x8FC DUP3 SWAP1 DUP2 ISZERO MUL SWAP1 PUSH1 0x40 MLOAD PUSH0 PUSH1 0x40 MLOAD DUP1 DUP4 SUB DUP2 DUP6 DUP9 DUP9 CALL SWAP4 POP POP POP POP ISZERO DUP1 ISZERO PUSH2 0x14FA JUMPI RETURNDATASIZE PUSH0 DUP1 RETURNDATACOPY RETURNDATASIZE PUSH0 REVERT JUMPDEST POP POP JUMP JUMPDEST PUSH2 0x1506 PUSH2 0x305B JUMP JUMPDEST PUSH0 PUSH20 0xFFFFFFFFFFFFFFFFFFFFFFFFFFFFFFFFFFFFFFFF AND PUSH1 0x5 PUSH0 DUP6 DUP2 MSTORE PUSH1 0x20 ADD SWAP1 DUP2 MSTORE PUSH1 0x20 ADD PUSH0 KECCAK256 PUSH0 DUP5 DUP2 MSTORE PUSH1 0x20 ADD SWAP1 DUP2 MSTORE PUSH1 0x20 ADD PUSH0 KECCAK256 PUSH1 0x1 ADD PUSH0 SWAP1 SLOAD SWAP1 PUSH2 0x100 EXP SWAP1 DIV PUSH20 0xFFFFFFFFFFFFFFFFFFFFFFFFFFFFFFFFFFFFFFFF AND PUSH20 0xFFFFFFFFFFFFFFFFFFFFFFFFFFFFFFFFFFFFFFFF AND SUB PUSH2 0x15B6 JUMPI PUSH1 0x40 MLOAD PUSH32 0x8C379A000000000000000000000000000000000000000000000000000000000 DUP2 MSTORE PUSH1 0x4 ADD PUSH2 0x15AD SWAP1 PUSH2 0x43ED JUMP JUMPDEST PUSH1 0x40 MLOAD DUP1 SWAP2 SUB SWAP1 REVERT JUMPDEST PUSH1 0x5 PUSH0 DUP5 DUP2 MSTORE PUSH1 0x20 ADD SWAP1 DUP2 MSTORE PUSH1 0x20 ADD PUSH0 KECCAK256 PUSH0 DUP4 DUP2 MSTORE PUSH1 0x20 ADD SWAP1 DUP2 MSTORE PUSH1 0x20 ADD PUSH0 KECCAK256 PUSH1 0x40 MLOAD DUP1 PUSH1 0xC0 ADD PUSH1 0x40 MSTORE SWAP1 DUP2 PUSH0 DUP3 ADD SLOAD DUP2 MSTORE PUSH1 0x20 ADD PUSH1 0x1 DUP3 ADD PUSH0 SWAP1 SLOAD SWAP1 PUSH2 0x100 EXP SWAP1 DIV PUSH20 0xFFFFFFFFFFFFFFFFFFFFFFFFFFFFFFFFFFFFFFFF AND PUSH20 0xFFFFFFFFFFFFFFFFFFFFFFFFFFFFFFFFFFFFFFFF AND PUSH20 0xFFFFFFFFFFFFFFFFFFFFFFFFFFFFFFFFFFFFFFFF AND DUP2 MSTORE PUSH1 0x20 ADD PUSH1 0x2 DUP3 ADD DUP1 SLOAD PUSH2 0x164F SWAP1 PUSH2 0x3EEC JUMP JUMPDEST DUP1 PUSH1 0x1F ADD PUSH1 0x20 DUP1 SWAP2 DIV MUL PUSH1 0x20 ADD PUSH1 0x40 MLOAD SWAP1 DUP2 ADD PUSH1 0x40 MSTORE DUP1 SWAP3 SWAP2 SWAP1 DUP2 DUP2 MSTORE PUSH1 0x20 ADD DUP3 DUP1 SLOAD PUSH2 0x167B SWAP1 PUSH2 0x3EEC JUMP JUMPDEST DUP1 ISZERO PUSH2 0x16C6 JUMPI DUP1 PUSH1 0x1F LT PUSH2 0x169D JUMPI PUSH2 0x100 DUP1 DUP4 SLOAD DIV MUL DUP4 MSTORE SWAP2 PUSH1 0x20 ADD SWAP2 PUSH2 0x16C6 JUMP JUMPDEST DUP3 ADD SWAP2 SWAP1 PUSH0 MSTORE PUSH1 0x20 PUSH0 KECCAK256 SWAP1 JUMPDEST DUP2 SLOAD DUP2 MSTORE SWAP1 PUSH1 0x1 ADD SWAP1 PUSH1 0x20 ADD DUP1 DUP4 GT PUSH2 0x16A9 JUMPI DUP3 SWAP1 SUB PUSH1 0x1F AND DUP3 ADD SWAP2 JUMPDEST POP POP POP POP POP DUP2 MSTORE PUSH1 0x20 ADD PUSH1 0x3 DUP3 ADD SLOAD DUP2 MSTORE PUSH1 0x20 ADD PUSH1 0x4 DUP3 ADD SLOAD DUP2 MSTORE PUSH1 0x20 ADD PUSH1 0x5 DUP3 ADD SLOAD DUP2 MSTORE POP POP SWAP1 POP SWAP3 SWAP2 POP POP JUMP JUMPDEST PUSH1 0x60 PUSH0 PUSH1 0x2 SLOAD PUSH8 0xFFFFFFFFFFFFFFFF DUP2 GT ISZERO PUSH2 0x1714 JUMPI PUSH2 0x1713 PUSH2 0x31A0 JUMP JUMPDEST JUMPDEST PUSH1 0x40 MLOAD SWAP1 DUP1 DUP3 MSTORE DUP1 PUSH1 0x20 MUL PUSH1 0x20 ADD DUP3 ADD PUSH1 0x40 MSTORE DUP1 ISZERO PUSH2 0x1742 JUMPI DUP2 PUSH1 0x20 ADD PUSH1 0x20 DUP3 MUL DUP1 CALLDATASIZE DUP4 CALLDATACOPY DUP1 DUP3 ADD SWAP2 POP POP SWAP1 POP JUMPDEST POP SWAP1 POP PUSH0 DUP1 PUSH1 0x1 SWAP1 POP JUMPDEST PUSH1 0x2 SLOAD DUP2 LT ISZERO PUSH2 0x17C8 JUMPI DUP5 DUP1 MLOAD SWAP1 PUSH1 0x20 ADD KECCAK256 PUSH1 0x4 PUSH0 DUP4 DUP2 MSTORE PUSH1 0x20 ADD SWAP1 DUP2 MSTORE PUSH1 0x20 ADD PUSH0 KECCAK256 PUSH1 0x4 ADD PUSH1 0x40 MLOAD PUSH2 0x177F SWAP2 SWAP1 PUSH2 0x44A7 JUMP JUMPDEST PUSH1 0x40 MLOAD DUP1 SWAP2 SUB SWAP1 KECCAK256 SUB PUSH2 0x17BB JUMPI DUP1 DUP4 DUP4 DUP2 MLOAD DUP2 LT PUSH2 0x17A0 JUMPI PUSH2 0x179F PUSH2 0x44BD JUMP JUMPDEST JUMPDEST PUSH1 0x20 MUL PUSH1 0x20 ADD ADD DUP2 DUP2 MSTORE POP POP DUP2 DUP1 PUSH2 0x17B7 SWAP1 PUSH2 0x3FB1 JUMP JUMPDEST SWAP3 POP POP JUMPDEST DUP1 DUP1 PUSH1 0x1 ADD SWAP2 POP POP PUSH2 0x174C JUMP JUMPDEST POP PUSH0 DUP2 PUSH8 0xFFFFFFFFFFFFFFFF DUP2 GT ISZERO PUSH2 0x17E4 JUMPI PUSH2 0x17E3 PUSH2 0x31A0 JUMP JUMPDEST JUMPDEST PUSH1 0x40 MLOAD SWAP1 DUP1 DUP3 MSTORE DUP1 PUSH1 0x20 MUL PUSH1 0x20 ADD DUP3 ADD PUSH1 0x40 MSTORE DUP1 ISZERO PUSH2 0x1812 JUMPI DUP2 PUSH1 0x20 ADD PUSH1 0x20 DUP3 MUL DUP1 CALLDATASIZE DUP4 CALLDATACOPY DUP1 DUP3 ADD SWAP2 POP POP SWAP1 POP JUMPDEST POP SWAP1 POP PUSH0 JUMPDEST DUP3 DUP2 LT ISZERO PUSH2 0x1866 JUMPI DUP4 DUP2 DUP2 MLOAD DUP2 LT PUSH2 0x1832 JUMPI PUSH2 0x1831 PUSH2 0x44BD JUMP JUMPDEST JUMPDEST PUSH1 0x20 MUL PUSH1 0x20 ADD ADD MLOAD DUP3 DUP3 DUP2 MLOAD DUP2 LT PUSH2 0x184D JUMPI PUSH2 0x184C PUSH2 0x44BD JUMP JUMPDEST JUMPDEST PUSH1 0x20 MUL PUSH1 0x20 ADD ADD DUP2 DUP2 MSTORE POP POP DUP1 DUP1 PUSH1 0x1 ADD SWAP2 POP POP PUSH2 0x1817 JUMP JUMPDEST POP DUP1 SWAP4 POP POP POP POP SWAP2 SWAP1 POP JUMP JUMPDEST PUSH0 CALLVALUE GT PUSH2 0x18B4 JUMPI PUSH1 0x40 MLOAD PUSH32 0x8C379A000000000000000000000000000000000000000000000000000000000 DUP2 MSTORE PUSH1 0x4 ADD PUSH2 0x18AB SWAP1 PUSH2 0x4534 JUMP JUMPDEST PUSH1 0x40 MLOAD DUP1 SWAP2 SUB SWAP1 REVERT JUMPDEST PUSH0 DUP3 MLOAD GT PUSH2 0x18F7 JUMPI PUSH1 0x40 MLOAD PUSH32 0x8C379A000000000000000000000000000000000000000000000000000000000 DUP2 MSTORE PUSH1 0x4 ADD PUSH2 0x18EE SWAP1 PUSH2 0x459C JUMP JUMPDEST PUSH1 0x40 MLOAD DUP1 SWAP2 SUB SWAP1 REVERT JUMPDEST PUSH0 DUP1 PUSH1 0x2 DUP2 GT ISZERO PUSH2 0x190B JUMPI PUSH2 0x190A PUSH2 0x45BA JUMP JUMPDEST JUMPDEST DUP3 PUSH1 0x2 DUP2 GT ISZERO PUSH2 0x191E JUMPI PUSH2 0x191D PUSH2 0x45BA JUMP JUMPDEST JUMPDEST SUB PUSH2 0x1939 JUMPI PUSH3 0x93A80 TIMESTAMP PUSH2 0x1932 SWAP2 SWAP1 PUSH2 0x4308 JUMP JUMPDEST SWAP1 POP PUSH2 0x19BA JUMP JUMPDEST PUSH1 0x1 PUSH1 0x2 DUP2 GT ISZERO PUSH2 0x194D JUMPI PUSH2 0x194C PUSH2 0x45BA JUMP JUMPDEST JUMPDEST DUP3 PUSH1 0x2 DUP2 GT ISZERO PUSH2 0x1960 JUMPI PUSH2 0x195F PUSH2 0x45BA JUMP JUMPDEST JUMPDEST SUB PUSH2 0x197B JUMPI PUSH3 0x127500 TIMESTAMP PUSH2 0x1974 SWAP2 SWAP1 PUSH2 0x4308 JUMP JUMPDEST SWAP1 POP PUSH2 0x19B9 JUMP JUMPDEST PUSH1 0x2 DUP1 DUP2 GT ISZERO PUSH2 0x198E JUMPI PUSH2 0x198D PUSH2 0x45BA JUMP JUMPDEST JUMPDEST DUP3 PUSH1 0x2 DUP2 GT ISZERO PUSH2 0x19A1 JUMPI PUSH2 0x19A0 PUSH2 0x45BA JUMP JUMPDEST JUMPDEST SUB PUSH2 0x19B8 JUMPI PUSH3 0x278D00 TIMESTAMP PUSH2 0x19B5 SWAP2 SWAP1 PUSH2 0x4308 JUMP JUMPDEST SWAP1 POP JUMPDEST JUMPDEST JUMPDEST PUSH0 PUSH1 0x2 PUSH0 DUP2 SLOAD DUP1 SWAP3 SWAP2 SWAP1 PUSH2 0x19CD SWAP1 PUSH2 0x3FB1 JUMP JUMPDEST SWAP2 SWAP1 POP SSTORE SWAP1 POP PUSH1 0x40 MLOAD DUP1 PUSH2 0x140 ADD PUSH1 0x40 MSTORE DUP1 DUP3 DUP2 MSTORE PUSH1 0x20 ADD CALLER PUSH20 0xFFFFFFFFFFFFFFFFFFFFFFFFFFFFFFFFFFFFFFFF AND DUP2 MSTORE PUSH1 0x20 ADD DUP8 DUP2 MSTORE PUSH1 0x20 ADD DUP7 DUP2 MSTORE PUSH1 0x20 ADD DUP6 DUP2 MSTORE PUSH1 0x20 ADD CALLVALUE DUP2 MSTORE PUSH1 0x20 ADD TIMESTAMP DUP2 MSTORE PUSH1 0x20 ADD DUP4 DUP2 MSTORE PUSH1 0x20 ADD PUSH0 ISZERO ISZERO DUP2 MSTORE PUSH1 0x20 ADD PUSH0 DUP2 MSTORE POP PUSH1 0x4 PUSH0 DUP4 DUP2 MSTORE PUSH1 0x20 ADD SWAP1 DUP2 MSTORE PUSH1 0x20 ADD PUSH0 KECCAK256 PUSH0 DUP3 ADD MLOAD DUP2 PUSH0 ADD SSTORE PUSH1 0x20 DUP3 ADD MLOAD DUP2 PUSH1 0x1 ADD PUSH0 PUSH2 0x100 EXP DUP2 SLOAD DUP2 PUSH20 0xFFFFFFFFFFFFFFFFFFFFFFFFFFFFFFFFFFFFFFFF MUL NOT AND SWAP1 DUP4 PUSH20 0xFFFFFFFFFFFFFFFFFFFFFFFFFFFFFFFFFFFFFFFF AND MUL OR SWAP1 SSTORE POP PUSH1 0x40 DUP3 ADD MLOAD DUP2 PUSH1 0x2 ADD SWAP1 DUP2 PUSH2 0x1AA5 SWAP2 SWAP1 PUSH2 0x4195 JUMP JUMPDEST POP PUSH1 0x60 DUP3 ADD MLOAD DUP2 PUSH1 0x3 ADD SWAP1 DUP2 PUSH2 0x1ABB SWAP2 SWAP1 PUSH2 0x4195 JUMP JUMPDEST POP PUSH1 0x80 DUP3 ADD MLOAD DUP2 PUSH1 0x4 ADD SWAP1 DUP2 PUSH2 0x1AD1 SWAP2 SWAP1 PUSH2 0x4195 JUMP JUMPDEST POP PUSH1 0xA0 DUP3 ADD MLOAD DUP2 PUSH1 0x5 ADD SSTORE PUSH1 0xC0 DUP3 ADD MLOAD DUP2 PUSH1 0x6 ADD SSTORE PUSH1 0xE0 DUP3 ADD MLOAD DUP2 PUSH1 0x7 ADD SSTORE PUSH2 0x100 DUP3 ADD MLOAD DUP2 PUSH1 0x8 ADD PUSH0 PUSH2 0x100 EXP DUP2 SLOAD DUP2 PUSH1 0xFF MUL NOT AND SWAP1 DUP4 ISZERO ISZERO MUL OR SWAP1 SSTORE POP PUSH2 0x120 DUP3 ADD MLOAD DUP2 PUSH1 0x9 ADD SSTORE SWAP1 POP POP CALLER PUSH20 0xFFFFFFFFFFFFFFFFFFFFFFFFFFFFFFFFFFFFFFFF AND PUSH32 0xB8105899D34D8481E717A601E8D7A732C27B0AB23778E01145F2F3EB24A1120C DUP3 DUP9 CALLVALUE DUP9 PUSH1 0x40 MLOAD PUSH2 0x1B6A SWAP5 SWAP4 SWAP3 SWAP2 SWAP1 PUSH2 0x45E7 JUMP JUMPDEST PUSH1 0x40 MLOAD DUP1 SWAP2 SUB SWAP1 LOG2 POP POP POP POP POP POP JUMP JUMPDEST DUP1 PUSH0 PUSH20 0xFFFFFFFFFFFFFFFFFFFFFFFFFFFFFFFFFFFFFFFF AND PUSH1 0x4 PUSH0 DUP4 DUP2 MSTORE PUSH1 0x20 ADD SWAP1 DUP2 MSTORE PUSH1 0x20 ADD PUSH0 KECCAK256 PUSH1 0x1 ADD PUSH0 SWAP1 SLOAD SWAP1 PUSH2 0x100 EXP SWAP1 DIV PUSH20 0xFFFFFFFFFFFFFFFFFFFFFFFFFFFFFFFFFFFFFFFF AND PUSH20 0xFFFFFFFFFFFFFFFFFFFFFFFFFFFFFFFFFFFFFFFF AND SUB PUSH2 0x1C1C JUMPI PUSH1 0x40 MLOAD PUSH32 0x8C379A000000000000000000000000000000000000000000000000000000000 DUP2 MSTORE PUSH1 0x4 ADD PUSH2 0x1C13 SWAP1 PUSH2 0x3DAA JUMP JUMPDEST PUSH1 0x40 MLOAD DUP1 SWAP2 SUB SWAP1 REVERT JUMPDEST PUSH0 PUSH1 0x4 PUSH0 DUP5 DUP2 MSTORE PUSH1 0x20 ADD SWAP1 DUP2 MSTORE PUSH1 0x20 ADD PUSH0 KECCAK256 SWAP1 POP DUP1 PUSH1 0x7 ADD SLOAD TIMESTAMP GT PUSH2 0x1C76 JUMPI PUSH1 0x40 MLOAD PUSH32 0x8C379A000000000000000000000000000000000000000000000000000000000 DUP2 MSTORE PUSH1 0x4 ADD PUSH2 0x1C6D SWAP1 PUSH2 0x46A8 JUMP JUMPDEST PUSH1 0x40 MLOAD DUP1 SWAP2 SUB SWAP1 REVERT JUMPDEST DUP1 PUSH1 0x8 ADD PUSH0 SWAP1 SLOAD SWAP1 PUSH2 0x100 EXP SWAP1 DIV PUSH1 0xFF AND ISZERO PUSH2 0x1CC7 JUMPI PUSH1 0x40 MLOAD PUSH32 0x8C379A000000000000000000000000000000000000000000000000000000000 DUP2 MSTORE PUSH1 0x4 ADD PUSH2 0x1CBE SWAP1 PUSH2 0x3E12 JUMP JUMPDEST PUSH1 0x40 MLOAD DUP1 SWAP2 SUB SWAP1 REVERT JUMPDEST PUSH0 DUP1 DUP3 PUSH1 0x5 ADD SLOAD SWAP1 POP PUSH0 JUMPDEST PUSH1 0x3 SLOAD DUP2 LT ISZERO PUSH2 0x1D1A JUMPI PUSH1 0x5 PUSH0 DUP8 DUP2 MSTORE PUSH1 0x20 ADD SWAP1 DUP2 MSTORE PUSH1 0x20 ADD PUSH0 KECCAK256 PUSH0 DUP3 DUP2 MSTORE PUSH1 0x20 ADD SWAP1 DUP2 MSTORE PUSH1 0x20 ADD PUSH0 KECCAK256 PUSH1 0x3 ADD SLOAD DUP4 PUSH2 0x1D0B SWAP2 SWAP1 PUSH2 0x4308 JUMP JUMPDEST SWAP3 POP DUP1 DUP1 PUSH1 0x1 ADD SWAP2 POP POP PUSH2 0x1CD2 JUMP JUMPDEST POP PUSH0 JUMPDEST PUSH1 0x3 SLOAD DUP2 LT ISZERO PUSH2 0x1E10 JUMPI PUSH0 PUSH1 0x5 PUSH0 DUP9 DUP2 MSTORE PUSH1 0x20 ADD SWAP1 DUP2 MSTORE PUSH1 0x20 ADD PUSH0 KECCAK256 PUSH0 DUP4 DUP2 MSTORE PUSH1 0x20 ADD SWAP1 DUP2 MSTORE PUSH1 0x20 ADD PUSH0 KECCAK256 SWAP1 POP PUSH0 DUP5 GT ISZERO PUSH2 0x1E02 JUMPI PUSH0 DUP5 DUP5 DUP4 PUSH1 0x3 ADD SLOAD PUSH2 0x1D64 SWAP2 SWAP1 PUSH2 0x46C6 JUMP JUMPDEST PUSH2 0x1D6E SWAP2 SWAP1 PUSH2 0x4734 JUMP JUMPDEST SWAP1 POP DUP1 DUP3 PUSH1 0x4 ADD PUSH0 DUP3 DUP3 SLOAD PUSH2 0x1D83 SWAP2 SWAP1 PUSH2 0x4308 JUMP JUMPDEST SWAP3 POP POP DUP2 SWAP1 SSTORE POP DUP1 PUSH1 0x6 PUSH0 DUP5 PUSH1 0x1 ADD PUSH0 SWAP1 SLOAD SWAP1 PUSH2 0x100 EXP SWAP1 DIV PUSH20 0xFFFFFFFFFFFFFFFFFFFFFFFFFFFFFFFFFFFFFFFF AND PUSH20 0xFFFFFFFFFFFFFFFFFFFFFFFFFFFFFFFFFFFFFFFF AND PUSH20 0xFFFFFFFFFFFFFFFFFFFFFFFFFFFFFFFFFFFFFFFF AND DUP2 MSTORE PUSH1 0x20 ADD SWAP1 DUP2 MSTORE PUSH1 0x20 ADD PUSH0 KECCAK256 PUSH0 DUP3 DUP3 SLOAD PUSH2 0x1DF9 SWAP2 SWAP1 PUSH2 0x4308 JUMP JUMPDEST SWAP3 POP POP DUP2 SWAP1 SSTORE POP POP JUMPDEST POP DUP1 DUP1 PUSH1 0x1 ADD SWAP2 POP POP PUSH2 0x1D1D JUMP JUMPDEST POP PUSH1 0x1 DUP4 PUSH1 0x8 ADD PUSH0 PUSH2 0x100 EXP DUP2 SLOAD DUP2 PUSH1 0xFF MUL NOT AND SWAP1 DUP4 ISZERO ISZERO MUL OR SWAP1 SSTORE POP POP POP POP POP POP JUMP JUMPDEST PUSH1 0x2 SLOAD DUP2 JUMP JUMPDEST PUSH0 DUP1 SLOAD SWAP1 PUSH2 0x100 EXP SWAP1 DIV PUSH20 0xFFFFFFFFFFFFFFFFFFFFFFFFFFFFFFFFFFFFFFFF AND DUP2 JUMP JUMPDEST PUSH0 PUSH20 0xFFFFFFFFFFFFFFFFFFFFFFFFFFFFFFFFFFFFFFFF AND PUSH1 0x4 PUSH0 DUP5 DUP2 MSTORE PUSH1 0x20 ADD SWAP1 DUP2 MSTORE PUSH1 0x20 ADD PUSH0 KECCAK256 PUSH1 0x1 ADD PUSH0 SWAP1 SLOAD SWAP1 PUSH2 0x100 EXP SWAP1 DIV PUSH20 0xFFFFFFFFFFFFFFFFFFFFFFFFFFFFFFFFFFFFFFFF AND PUSH20 0xFFFFFFFFFFFFFFFFFFFFFFFFFFFFFFFFFFFFFFFF AND SUB PUSH2 0x1EFE JUMPI PUSH1 0x40 MLOAD PUSH32 0x8C379A000000000000000000000000000000000000000000000000000000000 DUP2 MSTORE PUSH1 0x4 ADD PUSH2 0x1EF5 SWAP1 PUSH2 0x3DAA JUMP JUMPDEST PUSH1 0x40 MLOAD DUP1 SWAP2 SUB SWAP1 REVERT JUMPDEST PUSH1 0x4 PUSH0 DUP4 DUP2 MSTORE PUSH1 0x20 ADD SWAP1 DUP2 MSTORE PUSH1 0x20 ADD PUSH0 KECCAK256 PUSH1 0x1 ADD PUSH0 SWAP1 SLOAD SWAP1 PUSH2 0x100 EXP SWAP1 DIV PUSH20 0xFFFFFFFFFFFFFFFFFFFFFFFFFFFFFFFFFFFFFFFF AND PUSH20 0xFFFFFFFFFFFFFFFFFFFFFFFFFFFFFFFFFFFFFFFF AND CALLER PUSH20 0xFFFFFFFFFFFFFFFFFFFFFFFFFFFFFFFFFFFFFFFF AND EQ PUSH2 0x1F9F JUMPI PUSH1 0x40 MLOAD PUSH32 0x8C379A000000000000000000000000000000000000000000000000000000000 DUP2 MSTORE PUSH1 0x4 ADD PUSH2 0x1F96 SWAP1 PUSH2 0x47D4 JUMP JUMPDEST PUSH1 0x40 MLOAD DUP1 SWAP2 SUB SWAP1 REVERT JUMPDEST PUSH0 PUSH20 0xFFFFFFFFFFFFFFFFFFFFFFFFFFFFFFFFFFFFFFFF AND PUSH1 0x5 PUSH0 DUP5 DUP2 MSTORE PUSH1 0x20 ADD SWAP1 DUP2 MSTORE PUSH1 0x20 ADD PUSH0 KECCAK256 PUSH0 DUP4 DUP2 MSTORE PUSH1 0x20 ADD SWAP1 DUP2 MSTORE PUSH1 0x20 ADD PUSH0 KECCAK256 PUSH1 0x1 ADD PUSH0 SWAP1 SLOAD SWAP1 PUSH2 0x100 EXP SWAP1 DIV PUSH20 0xFFFFFFFFFFFFFFFFFFFFFFFFFFFFFFFFFFFFFFFF AND PUSH20 0xFFFFFFFFFFFFFFFFFFFFFFFFFFFFFFFFFFFFFFFF AND SUB PUSH2 0x204F JUMPI PUSH1 0x40 MLOAD PUSH32 0x8C379A000000000000000000000000000000000000000000000000000000000 DUP2 MSTORE PUSH1 0x4 ADD PUSH2 0x2046 SWAP1 PUSH2 0x43ED JUMP JUMPDEST PUSH1 0x40 MLOAD DUP1 SWAP2 SUB SWAP1 REVERT JUMPDEST PUSH1 0x4 PUSH0 DUP4 DUP2 MSTORE PUSH1 0x20 ADD SWAP1 DUP2 MSTORE PUSH1 0x20 ADD PUSH0 KECCAK256 PUSH1 0x8 ADD PUSH0 SWAP1 SLOAD SWAP1 PUSH2 0x100 EXP SWAP1 DIV PUSH1 0xFF AND ISZERO PUSH2 0x20B0 JUMPI PUSH1 0x40 MLOAD PUSH32 0x8C379A000000000000000000000000000000000000000000000000000000000 DUP2 MSTORE PUSH1 0x4 ADD PUSH2 0x20A7 SWAP1 PUSH2 0x3E12 JUMP JUMPDEST PUSH1 0x40 MLOAD DUP1 SWAP2 SUB SWAP1 REVERT JUMPDEST PUSH1 0x1 PUSH1 0x4 PUSH0 DUP5 DUP2 MSTORE PUSH1 0x20 ADD SWAP1 DUP2 MSTORE PUSH1 0x20 ADD PUSH0 KECCAK256 PUSH1 0x8 ADD PUSH0 PUSH2 0x100 EXP DUP2 SLOAD DUP2 PUSH1 0xFF MUL NOT AND SWAP1 DUP4 ISZERO ISZERO MUL OR SWAP1 SSTORE POP DUP1 PUSH1 0x4 PUSH0 DUP5 DUP2 MSTORE PUSH1 0x20 ADD SWAP1 DUP2 MSTORE PUSH1 0x20 ADD PUSH0 KECCAK256 PUSH1 0x9 ADD DUP2 SWAP1 SSTORE POP PUSH0 PUSH1 0x5 PUSH0 DUP5 DUP2 MSTORE PUSH1 0x20 ADD SWAP1 DUP2 MSTORE PUSH1 0x20 ADD PUSH0 KECCAK256 PUSH0 DUP4 DUP2 MSTORE PUSH1 0x20 ADD SWAP1 DUP2 MSTORE PUSH1 0x20 ADD PUSH0 KECCAK256 PUSH1 0x1 ADD PUSH0 SWAP1 SLOAD SWAP1 PUSH2 0x100 EXP SWAP1 DIV PUSH20 0xFFFFFFFFFFFFFFFFFFFFFFFFFFFFFFFFFFFFFFFF AND SWAP1 POP PUSH0 PUSH1 0x4 PUSH0 DUP6 DUP2 MSTORE PUSH1 0x20 ADD SWAP1 DUP2 MSTORE PUSH1 0x20 ADD PUSH0 KECCAK256 PUSH1 0x5 ADD SLOAD SWAP1 POP DUP1 PUSH1 0x5 PUSH0 DUP7 DUP2 MSTORE PUSH1 0x20 ADD SWAP1 DUP2 MSTORE PUSH1 0x20 ADD PUSH0 KECCAK256 PUSH0 DUP6 DUP2 MSTORE PUSH1 0x20 ADD SWAP1 DUP2 MSTORE PUSH1 0x20 ADD PUSH0 KECCAK256 PUSH1 0x4 ADD DUP2 SWAP1 SSTORE POP DUP2 PUSH20 0xFFFFFFFFFFFFFFFFFFFFFFFFFFFFFFFFFFFFFFFF AND PUSH2 0x8FC DUP3 SWAP1 DUP2 ISZERO MUL SWAP1 PUSH1 0x40 MLOAD PUSH0 PUSH1 0x40 MLOAD DUP1 DUP4 SUB DUP2 DUP6 DUP9 DUP9 CALL SWAP4 POP POP POP POP ISZERO DUP1 ISZERO PUSH2 0x21BE JUMPI RETURNDATASIZE PUSH0 DUP1 RETURNDATACOPY RETURNDATASIZE PUSH0 REVERT JUMPDEST POP PUSH32 0x99FE2C8ABD13B610E7F7D4A51A49E1391BA19454B72305176B884D66010E475A DUP5 DUP5 PUSH1 0x40 MLOAD PUSH2 0x21F0 SWAP3 SWAP2 SWAP1 PUSH2 0x3E98 JUMP JUMPDEST PUSH1 0x40 MLOAD DUP1 SWAP2 SUB SWAP1 LOG1 POP POP POP POP JUMP JUMPDEST PUSH3 0x127500 DUP2 JUMP JUMPDEST PUSH0 SELFBALANCE SWAP1 POP SWAP1 JUMP JUMPDEST PUSH1 0x3 SLOAD DUP2 JUMP JUMPDEST PUSH3 0x278D00 DUP2 JUMP JUMPDEST PUSH1 0x1 SLOAD DUP2 JUMP JUMPDEST PUSH2 0x2227 PUSH2 0x30A2 JUMP JUMPDEST PUSH0 PUSH20 0xFFFFFFFFFFFFFFFFFFFFFFFFFFFFFFFFFFFFFFFF AND PUSH1 0x4 PUSH0 DUP5 DUP2 MSTORE PUSH1 0x20 ADD SWAP1 DUP2 MSTORE PUSH1 0x20 ADD PUSH0 KECCAK256 PUSH1 0x1 ADD PUSH0 SWAP1 SLOAD SWAP1 PUSH2 0x100 EXP SWAP1 DIV PUSH20 0xFFFFFFFFFFFFFFFFFFFFFFFFFFFFFFFFFFFFFFFF AND PUSH20 0xFFFFFFFFFFFFFFFFFFFFFFFFFFFFFFFFFFFFFFFF AND SUB PUSH2 0x22C8 JUMPI PUSH1 0x40 MLOAD PUSH32 0x8C379A000000000000000000000000000000000000000000000000000000000 DUP2 MSTORE PUSH1 0x4 ADD PUSH2 0x22BF SWAP1 PUSH2 0x3DAA JUMP JUMPDEST PUSH1 0x40 MLOAD DUP1 SWAP2 SUB SWAP1 REVERT JUMPDEST PUSH1 0x4 PUSH0 DUP4 DUP2 MSTORE PUSH1 0x20 ADD SWAP1 DUP2 MSTORE PUSH1 0x20 ADD PUSH0 KECCAK256 PUSH1 0x40 MLOAD DUP1 PUSH2 0x140 ADD PUSH1 0x40 MSTORE SWAP1 DUP2 PUSH0 DUP3 ADD SLOAD DUP2 MSTORE PUSH1 0x20 ADD PUSH1 0x1 DUP3 ADD PUSH0 SWAP1 SLOAD SWAP1 PUSH2 0x100 EXP SWAP1 DIV PUSH20 0xFFFFFFFFFFFFFFFFFFFFFFFFFFFFFFFFFFFFFFFF AND PUSH20 0xFFFFFFFFFFFFFFFFFFFFFFFFFFFFFFFFFFFFFFFF AND PUSH20 0xFFFFFFFFFFFFFFFFFFFFFFFFFFFFFFFFFFFFFFFF AND DUP2 MSTORE PUSH1 0x20 ADD PUSH1 0x2 DUP3 ADD DUP1 SLOAD PUSH2 0x2353 SWAP1 PUSH2 0x3EEC JUMP JUMPDEST DUP1 PUSH1 0x1F ADD PUSH1 0x20 DUP1 SWAP2 DIV MUL PUSH1 0x20 ADD PUSH1 0x40 MLOAD SWAP1 DUP2 ADD PUSH1 0x40 MSTORE DUP1 SWAP3 SWAP2 SWAP1 DUP2 DUP2 MSTORE PUSH1 0x20 ADD DUP3 DUP1 SLOAD PUSH2 0x237F SWAP1 PUSH2 0x3EEC JUMP JUMPDEST DUP1 ISZERO PUSH2 0x23CA JUMPI DUP1 PUSH1 0x1F LT PUSH2 0x23A1 JUMPI PUSH2 0x100 DUP1 DUP4 SLOAD DIV MUL DUP4 MSTORE SWAP2 PUSH1 0x20 ADD SWAP2 PUSH2 0x23CA JUMP JUMPDEST DUP3 ADD SWAP2 SWAP1 PUSH0 MSTORE PUSH1 0x20 PUSH0 KECCAK256 SWAP1 JUMPDEST DUP2 SLOAD DUP2 MSTORE SWAP1 PUSH1 0x1 ADD SWAP1 PUSH1 0x20 ADD DUP1 DUP4 GT PUSH2 0x23AD JUMPI DUP3 SWAP1 SUB PUSH1 0x1F AND DUP3 ADD SWAP2 JUMPDEST POP POP POP POP POP DUP2 MSTORE PUSH1 0x20 ADD PUSH1 0x3 DUP3 ADD DUP1 SLOAD PUSH2 0x23E3 SWAP1 PUSH2 0x3EEC JUMP JUMPDEST DUP1 PUSH1 0x1F ADD PUSH1 0x20 DUP1 SWAP2 DIV MUL PUSH1 0x20 ADD PUSH1 0x40 MLOAD SWAP1 DUP2 ADD PUSH1 0x40 MSTORE DUP1 SWAP3 SWAP2 SWAP1 DUP2 DUP2 MSTORE PUSH1 0x20 ADD DUP3 DUP1 SLOAD PUSH2 0x240F SWAP1 PUSH2 0x3EEC JUMP JUMPDEST DUP1 ISZERO PUSH2 0x245A JUMPI DUP1 PUSH1 0x1F LT PUSH2 0x2431 JUMPI PUSH2 0x100 DUP1 DUP4 SLOAD DIV MUL DUP4 MSTORE SWAP2 PUSH1 0x20 ADD SWAP2 PUSH2 0x245A JUMP JUMPDEST DUP3 ADD SWAP2 SWAP1 PUSH0 MSTORE PUSH1 0x20 PUSH0 KECCAK256 SWAP1 JUMPDEST DUP2 SLOAD DUP2 MSTORE SWAP1 PUSH1 0x1 ADD SWAP1 PUSH1 0x20 ADD DUP1 DUP4 GT PUSH2 0x243D JUMPI DUP3 SWAP1 SUB PUSH1 0x1F AND DUP3 ADD SWAP2 JUMPDEST POP POP POP POP POP DUP2 MSTORE PUSH1 0x20 ADD PUSH1 0x4 DUP3 ADD DUP1 SLOAD PUSH2 0x2473 SWAP1 PUSH2 0x3EEC JUMP JUMPDEST DUP1 PUSH1 0x1F ADD PUSH1 0x20 DUP1 SWAP2 DIV MUL PUSH1 0x20 ADD PUSH1 0x40 MLOAD SWAP1 DUP2 ADD PUSH1 0x40 MSTORE DUP1 SWAP3 SWAP2 SWAP1 DUP2 DUP2 MSTORE PUSH1 0x20 ADD DUP3 DUP1 SLOAD PUSH2 0x249F SWAP1 PUSH2 0x3EEC JUMP JUMPDEST DUP1 ISZERO PUSH2 0x24EA JUMPI DUP1 PUSH1 0x1F LT PUSH2 0x24C1 JUMPI PUSH2 0x100 DUP1 DUP4 SLOAD DIV MUL DUP4 MSTORE SWAP2 PUSH1 0x20 ADD SWAP2 PUSH2 0x24EA JUMP JUMPDEST DUP3 ADD SWAP2 SWAP1 PUSH0 MSTORE PUSH1 0x20 PUSH0 KECCAK256 SWAP1 JUMPDEST DUP2 SLOAD DUP2 MSTORE SWAP1 PUSH1 0x1 ADD SWAP1 PUSH1 0x20 ADD DUP1 DUP4 GT PUSH2 0x24CD JUMPI DUP3 SWAP1 SUB PUSH1 0x1F AND DUP3 ADD SWAP2 JUMPDEST POP POP POP POP POP DUP2 MSTORE PUSH1 0x20 ADD PUSH1 0x5 DUP3 ADD SLOAD DUP2 MSTORE PUSH1 0x20 ADD PUSH1 0x6 DUP3 ADD SLOAD DUP2 MSTORE PUSH1 0x20 ADD PUSH1 0x7 DUP3 ADD SLOAD DUP2 MSTORE PUSH1 0x20 ADD PUSH1 0x8 DUP3 ADD PUSH0 SWAP1 SLOAD SWAP1 PUSH2 0x100 EXP SWAP1 DIV PUSH1 0xFF AND ISZERO ISZERO ISZERO ISZERO DUP2 MSTORE PUSH1 0x20 ADD PUSH1 0x9 DUP3 ADD SLOAD DUP2 MSTORE POP POP SWAP1 POP SWAP2 SWAP1 POP JUMP JUMPDEST PUSH1 0x60 PUSH0 DUP1 PUSH0 PUSH20 0xFFFFFFFFFFFFFFFFFFFFFFFFFFFFFFFFFFFFFFFF AND PUSH1 0x4 PUSH0 DUP9 DUP2 MSTORE PUSH1 0x20 ADD SWAP1 DUP2 MSTORE PUSH1 0x20 ADD PUSH0 KECCAK256 PUSH1 0x1 ADD PUSH0 SWAP1 SLOAD SWAP1 PUSH2 0x100 EXP SWAP1 DIV PUSH20 0xFFFFFFFFFFFFFFFFFFFFFFFFFFFFFFFFFFFFFFFF AND PUSH20 0xFFFFFFFFFFFFFFFFFFFFFFFFFFFFFFFFFFFFFFFF AND SUB PUSH2 0x25E1 JUMPI PUSH1 0x40 MLOAD PUSH32 0x8C379A000000000000000000000000000000000000000000000000000000000 DUP2 MSTORE PUSH1 0x4 ADD PUSH2 0x25D8 SWAP1 PUSH2 0x3DAA JUMP JUMPDEST PUSH1 0x40 MLOAD DUP1 SWAP2 SUB SWAP1 REVERT JUMPDEST PUSH0 DUP6 GT PUSH2 0x2623 JUMPI PUSH1 0x40 MLOAD PUSH32 0x8C379A000000000000000000000000000000000000000000000000000000000 DUP2 MSTORE PUSH1 0x4 ADD PUSH2 0x261A SWAP1 PUSH2 0x483C JUMP JUMPDEST PUSH1 0x40 MLOAD DUP1 SWAP2 SUB SWAP1 REVERT JUMPDEST PUSH0 DUP5 GT PUSH2 0x2665 JUMPI PUSH1 0x40 MLOAD PUSH32 0x8C379A000000000000000000000000000000000000000000000000000000000 DUP2 MSTORE PUSH1 0x4 ADD PUSH2 0x265C SWAP1 PUSH2 0x48A4 JUMP JUMPDEST PUSH1 0x40 MLOAD DUP1 SWAP2 SUB SWAP1 REVERT JUMPDEST PUSH0 DUP1 PUSH1 0x1 SWAP1 POP JUMPDEST PUSH1 0x3 SLOAD DUP2 LT ISZERO PUSH2 0x2707 JUMPI PUSH0 PUSH20 0xFFFFFFFFFFFFFFFFFFFFFFFFFFFFFFFFFFFFFFFF AND PUSH1 0x5 PUSH0 DUP11 DUP2 MSTORE PUSH1 0x20 ADD SWAP1 DUP2 MSTORE PUSH1 0x20 ADD PUSH0 KECCAK256 PUSH0 DUP4 DUP2 MSTORE PUSH1 0x20 ADD SWAP1 DUP2 MSTORE PUSH1 0x20 ADD PUSH0 KECCAK256 PUSH1 0x1 ADD PUSH0 SWAP1 SLOAD SWAP1 PUSH2 0x100 EXP SWAP1 DIV PUSH20 0xFFFFFFFFFFFFFFFFFFFFFFFFFFFFFFFFFFFFFFFF AND PUSH20 0xFFFFFFFFFFFFFFFFFFFFFFFFFFFFFFFFFFFFFFFF AND EQ PUSH2 0x26FA JUMPI DUP2 DUP1 PUSH2 0x26F6 SWAP1 PUSH2 0x3FB1 JUMP JUMPDEST SWAP3 POP POP JUMPDEST DUP1 DUP1 PUSH1 0x1 ADD SWAP2 POP POP PUSH2 0x266C JUMP JUMPDEST POP DUP1 SWAP3 POP PUSH0 DUP4 SUB PUSH2 0x2774 JUMPI PUSH0 PUSH8 0xFFFFFFFFFFFFFFFF DUP2 GT ISZERO PUSH2 0x272C JUMPI PUSH2 0x272B PUSH2 0x31A0 JUMP JUMPDEST JUMPDEST PUSH1 0x40 MLOAD SWAP1 DUP1 DUP3 MSTORE DUP1 PUSH1 0x20 MUL PUSH1 0x20 ADD DUP3 ADD PUSH1 0x40 MSTORE DUP1 ISZERO PUSH2 0x2765 JUMPI DUP2 PUSH1 0x20 ADD JUMPDEST PUSH2 0x2752 PUSH2 0x305B JUMP JUMPDEST DUP2 MSTORE PUSH1 0x20 ADD SWAP1 PUSH1 0x1 SWAP1 SUB SWAP1 DUP2 PUSH2 0x274A JUMPI SWAP1 POP JUMPDEST POP PUSH0 DUP1 SWAP4 POP SWAP4 POP SWAP4 POP POP PUSH2 0x2B41 JUMP JUMPDEST DUP5 PUSH1 0x1 DUP7 DUP6 PUSH2 0x2783 SWAP2 SWAP1 PUSH2 0x4308 JUMP JUMPDEST PUSH2 0x278D SWAP2 SWAP1 PUSH2 0x48C2 JUMP JUMPDEST PUSH2 0x2797 SWAP2 SWAP1 PUSH2 0x4734 JUMP JUMPDEST SWAP2 POP DUP2 DUP7 GT ISZERO PUSH2 0x27DC JUMPI PUSH1 0x40 MLOAD PUSH32 0x8C379A000000000000000000000000000000000000000000000000000000000 DUP2 MSTORE PUSH1 0x4 ADD PUSH2 0x27D3 SWAP1 PUSH2 0x493F JUMP JUMPDEST PUSH1 0x40 MLOAD DUP1 SWAP2 SUB SWAP1 REVERT JUMPDEST PUSH0 PUSH1 0x1 DUP7 PUSH1 0x1 DUP10 PUSH2 0x27ED SWAP2 SWAP1 PUSH2 0x48C2 JUMP JUMPDEST PUSH2 0x27F7 SWAP2 SWAP1 PUSH2 0x46C6 JUMP JUMPDEST PUSH2 0x2801 SWAP2 SWAP1 PUSH2 0x4308 JUMP JUMPDEST SWAP1 POP PUSH0 PUSH1 0x1 DUP8 DUP4 PUSH2 0x2812 SWAP2 SWAP1 PUSH2 0x4308 JUMP JUMPDEST PUSH2 0x281C SWAP2 SWAP1 PUSH2 0x48C2 JUMP JUMPDEST SWAP1 POP PUSH1 0x1 PUSH1 0x3 SLOAD PUSH2 0x282D SWAP2 SWAP1 PUSH2 0x48C2 JUMP JUMPDEST DUP2 GT ISZERO PUSH2 0x2846 JUMPI PUSH1 0x1 PUSH1 0x3 SLOAD PUSH2 0x2843 SWAP2 SWAP1 PUSH2 0x48C2 JUMP JUMPDEST SWAP1 POP JUMPDEST PUSH0 DUP1 DUP4 SWAP1 POP JUMPDEST DUP3 DUP2 GT PUSH2 0x28EA JUMPI PUSH0 PUSH20 0xFFFFFFFFFFFFFFFFFFFFFFFFFFFFFFFFFFFFFFFF AND PUSH1 0x5 PUSH0 DUP14 DUP2 MSTORE PUSH1 0x20 ADD SWAP1 DUP2 MSTORE PUSH1 0x20 ADD PUSH0 KECCAK256 PUSH0 DUP4 DUP2 MSTORE PUSH1 0x20 ADD SWAP1 DUP2 MSTORE PUSH1 0x20 ADD PUSH0 KECCAK256 PUSH1 0x1 ADD PUSH0 SWAP1 SLOAD SWAP1 PUSH2 0x100 EXP SWAP1 DIV PUSH20 0xFFFFFFFFFFFFFFFFFFFFFFFFFFFFFFFFFFFFFFFF AND PUSH20 0xFFFFFFFFFFFFFFFFFFFFFFFFFFFFFFFFFFFFFFFF AND EQ PUSH2 0x28D7 JUMPI DUP2 DUP1 PUSH2 0x28D3 SWAP1 PUSH2 0x3FB1 JUMP JUMPDEST SWAP3 POP POP JUMPDEST DUP1 DUP1 PUSH2 0x28E2 SWAP1 PUSH2 0x3FB1 JUMP JUMPDEST SWAP2 POP POP PUSH2 0x284C JUMP JUMPDEST POP DUP1 PUSH8 0xFFFFFFFFFFFFFFFF DUP2 GT ISZERO PUSH2 0x2905 JUMPI PUSH2 0x2904 PUSH2 0x31A0 JUMP JUMPDEST JUMPDEST PUSH1 0x40 MLOAD SWAP1 DUP1 DUP3 MSTORE DUP1 PUSH1 0x20 MUL PUSH1 0x20 ADD DUP3 ADD PUSH1 0x40 MSTORE DUP1 ISZERO PUSH2 0x293E JUMPI DUP2 PUSH1 0x20 ADD JUMPDEST PUSH2 0x292B PUSH2 0x305B JUMP JUMPDEST DUP2 MSTORE PUSH1 0x20 ADD SWAP1 PUSH1 0x1 SWAP1 SUB SWAP1 DUP2 PUSH2 0x2923 JUMPI SWAP1 POP JUMPDEST POP SWAP7 POP PUSH0 DUP1 DUP5 SWAP1 POP JUMPDEST DUP4 DUP2 GT PUSH2 0x2B3A JUMPI PUSH0 PUSH20 0xFFFFFFFFFFFFFFFFFFFFFFFFFFFFFFFFFFFFFFFF AND PUSH1 0x5 PUSH0 DUP15 DUP2 MSTORE PUSH1 0x20 ADD SWAP1 DUP2 MSTORE PUSH1 0x20 ADD PUSH0 KECCAK256 PUSH0 DUP4 DUP2 MSTORE PUSH1 0x20 ADD SWAP1 DUP2 MSTORE PUSH1 0x20 ADD PUSH0 KECCAK256 PUSH1 0x1 ADD PUSH0 SWAP1 SLOAD SWAP1 PUSH2 0x100 EXP SWAP1 DIV PUSH20 0xFFFFFFFFFFFFFFFFFFFFFFFFFFFFFFFFFFFFFFFF AND PUSH20 0xFFFFFFFFFFFFFFFFFFFFFFFFFFFFFFFFFFFFFFFF AND EQ PUSH2 0x2B27 JUMPI PUSH1 0x5 PUSH0 DUP14 DUP2 MSTORE PUSH1 0x20 ADD SWAP1 DUP2 MSTORE PUSH1 0x20 ADD PUSH0 KECCAK256 PUSH0 DUP3 DUP2 MSTORE PUSH1 0x20 ADD SWAP1 DUP2 MSTORE PUSH1 0x20 ADD PUSH0 KECCAK256 PUSH1 0x40 MLOAD DUP1 PUSH1 0xC0 ADD PUSH1 0x40 MSTORE SWAP1 DUP2 PUSH0 DUP3 ADD SLOAD DUP2 MSTORE PUSH1 0x20 ADD PUSH1 0x1 DUP3 ADD PUSH0 SWAP1 SLOAD SWAP1 PUSH2 0x100 EXP SWAP1 DIV PUSH20 0xFFFFFFFFFFFFFFFFFFFFFFFFFFFFFFFFFFFFFFFF AND PUSH20 0xFFFFFFFFFFFFFFFFFFFFFFFFFFFFFFFFFFFFFFFF AND PUSH20 0xFFFFFFFFFFFFFFFFFFFFFFFFFFFFFFFFFFFFFFFF AND DUP2 MSTORE PUSH1 0x20 ADD PUSH1 0x2 DUP3 ADD DUP1 SLOAD PUSH2 0x2A5C SWAP1 PUSH2 0x3EEC JUMP JUMPDEST DUP1 PUSH1 0x1F ADD PUSH1 0x20 DUP1 SWAP2 DIV MUL PUSH1 0x20 ADD PUSH1 0x40 MLOAD SWAP1 DUP2 ADD PUSH1 0x40 MSTORE DUP1 SWAP3 SWAP2 SWAP1 DUP2 DUP2 MSTORE PUSH1 0x20 ADD DUP3 DUP1 SLOAD PUSH2 0x2A88 SWAP1 PUSH2 0x3EEC JUMP JUMPDEST DUP1 ISZERO PUSH2 0x2AD3 JUMPI DUP1 PUSH1 0x1F LT PUSH2 0x2AAA JUMPI PUSH2 0x100 DUP1 DUP4 SLOAD DIV MUL DUP4 MSTORE SWAP2 PUSH1 0x20 ADD SWAP2 PUSH2 0x2AD3 JUMP JUMPDEST DUP3 ADD SWAP2 SWAP1 PUSH0 MSTORE PUSH1 0x20 PUSH0 KECCAK256 SWAP1 JUMPDEST DUP2 SLOAD DUP2 MSTORE SWAP1 PUSH1 0x1 ADD SWAP1 PUSH1 0x20 ADD DUP1 DUP4 GT PUSH2 0x2AB6 JUMPI DUP3 SWAP1 SUB PUSH1 0x1F AND DUP3 ADD SWAP2 JUMPDEST POP POP POP POP POP DUP2 MSTORE PUSH1 0x20 ADD PUSH1 0x3 DUP3 ADD SLOAD DUP2 MSTORE PUSH1 0x20 ADD PUSH1 0x4 DUP3 ADD SLOAD DUP2 MSTORE PUSH1 0x20 ADD PUSH1 0x5 DUP3 ADD SLOAD DUP2 MSTORE POP POP DUP10 DUP4 DUP2 MLOAD DUP2 LT PUSH2 0x2B0D JUMPI PUSH2 0x2B0C PUSH2 0x44BD JUMP JUMPDEST JUMPDEST PUSH1 0x20 MUL PUSH1 0x20 ADD ADD DUP2 SWAP1 MSTORE POP DUP2 DUP1 PUSH2 0x2B23 SWAP1 PUSH2 0x3FB1 JUMP JUMPDEST SWAP3 POP POP JUMPDEST DUP1 DUP1 PUSH2 0x2B32 SWAP1 PUSH2 0x3FB1 JUMP JUMPDEST SWAP2 POP POP PUSH2 0x2947 JUMP JUMPDEST POP POP POP POP POP POP JUMPDEST SWAP4 POP SWAP4 POP SWAP4 SWAP1 POP JUMP JUMPDEST PUSH3 0x93A80 DUP2 JUMP JUMPDEST PUSH1 0x60 PUSH0 DUP1 PUSH0 DUP6 GT PUSH2 0x2B97 JUMPI PUSH1 0x40 MLOAD PUSH32 0x8C379A000000000000000000000000000000000000000000000000000000000 DUP2 MSTORE PUSH1 0x4 ADD PUSH2 0x2B8E SWAP1 PUSH2 0x483C JUMP JUMPDEST PUSH1 0x40 MLOAD DUP1 SWAP2 SUB SWAP1 REVERT JUMPDEST PUSH0 DUP5 GT PUSH2 0x2BD9 JUMPI PUSH1 0x40 MLOAD PUSH32 0x8C379A000000000000000000000000000000000000000000000000000000000 DUP2 MSTORE PUSH1 0x4 ADD PUSH2 0x2BD0 SWAP1 PUSH2 0x48A4 JUMP JUMPDEST PUSH1 0x40 MLOAD DUP1 SWAP2 SUB SWAP1 REVERT JUMPDEST PUSH1 0x1 PUSH1 0x2 SLOAD PUSH2 0x2BE8 SWAP2 SWAP1 PUSH2 0x48C2 JUMP JUMPDEST SWAP2 POP PUSH0 DUP3 SUB PUSH2 0x2C52 JUMPI PUSH0 PUSH8 0xFFFFFFFFFFFFFFFF DUP2 GT ISZERO PUSH2 0x2C0B JUMPI PUSH2 0x2C0A PUSH2 0x31A0 JUMP JUMPDEST JUMPDEST PUSH1 0x40 MLOAD SWAP1 DUP1 DUP3 MSTORE DUP1 PUSH1 0x20 MUL PUSH1 0x20 ADD DUP3 ADD PUSH1 0x40 MSTORE DUP1 ISZERO PUSH2 0x2C44 JUMPI DUP2 PUSH1 0x20 ADD JUMPDEST PUSH2 0x2C31 PUSH2 0x30A2 JUMP JUMPDEST DUP2 MSTORE PUSH1 0x20 ADD SWAP1 PUSH1 0x1 SWAP1 SUB SWAP1 DUP2 PUSH2 0x2C29 JUMPI SWAP1 POP JUMPDEST POP PUSH0 DUP1 SWAP3 POP SWAP3 POP SWAP3 POP PUSH2 0x3054 JUMP JUMPDEST DUP4 PUSH1 0x1 DUP6 DUP5 PUSH2 0x2C61 SWAP2 SWAP1 PUSH2 0x4308 JUMP JUMPDEST PUSH2 0x2C6B SWAP2 SWAP1 PUSH2 0x48C2 JUMP JUMPDEST PUSH2 0x2C75 SWAP2 SWAP1 PUSH2 0x4734 JUMP JUMPDEST SWAP1 POP DUP1 DUP6 GT ISZERO PUSH2 0x2CBA JUMPI PUSH1 0x40 MLOAD PUSH32 0x8C379A000000000000000000000000000000000000000000000000000000000 DUP2 MSTORE PUSH1 0x4 ADD PUSH2 0x2CB1 SWAP1 PUSH2 0x493F JUMP JUMPDEST PUSH1 0x40 MLOAD DUP1 SWAP2 SUB SWAP1 REVERT JUMPDEST PUSH0 PUSH1 0x1 DUP6 PUSH1 0x1 DUP9 PUSH2 0x2CCB SWAP2 SWAP1 PUSH2 0x48C2 JUMP JUMPDEST PUSH2 0x2CD5 SWAP2 SWAP1 PUSH2 0x46C6 JUMP JUMPDEST PUSH2 0x2CDF SWAP2 SWAP1 PUSH2 0x4308 JUMP JUMPDEST SWAP1 POP PUSH0 PUSH1 0x1 DUP7 DUP4 PUSH2 0x2CF0 SWAP2 SWAP1 PUSH2 0x4308 JUMP JUMPDEST PUSH2 0x2CFA SWAP2 SWAP1 PUSH2 0x48C2 JUMP JUMPDEST SWAP1 POP PUSH1 0x1 PUSH1 0x2 SLOAD PUSH2 0x2D0B SWAP2 SWAP1 PUSH2 0x48C2 JUMP JUMPDEST DUP2 GT ISZERO PUSH2 0x2D24 JUMPI PUSH1 0x1 PUSH1 0x2 SLOAD PUSH2 0x2D21 SWAP2 SWAP1 PUSH2 0x48C2 JUMP JUMPDEST SWAP1 POP JUMPDEST PUSH0 PUSH1 0x1 DUP4 DUP4 PUSH2 0x2D33 SWAP2 SWAP1 PUSH2 0x48C2 JUMP JUMPDEST PUSH2 0x2D3D SWAP2 SWAP1 PUSH2 0x4308 JUMP JUMPDEST SWAP1 POP DUP1 PUSH8 0xFFFFFFFFFFFFFFFF DUP2 GT ISZERO PUSH2 0x2D59 JUMPI PUSH2 0x2D58 PUSH2 0x31A0 JUMP JUMPDEST JUMPDEST PUSH1 0x40 MLOAD SWAP1 DUP1 DUP3 MSTORE DUP1 PUSH1 0x20 MUL PUSH1 0x20 ADD DUP3 ADD PUSH1 0x40 MSTORE DUP1 ISZERO PUSH2 0x2D92 JUMPI DUP2 PUSH1 0x20 ADD JUMPDEST PUSH2 0x2D7F PUSH2 0x30A2 JUMP JUMPDEST DUP2 MSTORE PUSH1 0x20 ADD SWAP1 PUSH1 0x1 SWAP1 SUB SWAP1 DUP2 PUSH2 0x2D77 JUMPI SWAP1 POP JUMPDEST POP SWAP6 POP PUSH0 DUP1 DUP5 SWAP1 POP JUMPDEST DUP4 DUP2 GT PUSH2 0x304E JUMPI PUSH1 0x4 PUSH0 DUP3 DUP2 MSTORE PUSH1 0x20 ADD SWAP1 DUP2 MSTORE PUSH1 0x20 ADD PUSH0 KECCAK256 PUSH1 0x40 MLOAD DUP1 PUSH2 0x140 ADD PUSH1 0x40 MSTORE SWAP1 DUP2 PUSH0 DUP3 ADD SLOAD DUP2 MSTORE PUSH1 0x20 ADD PUSH1 0x1 DUP3 ADD PUSH0 SWAP1 SLOAD SWAP1 PUSH2 0x100 EXP SWAP1 DIV PUSH20 0xFFFFFFFFFFFFFFFFFFFFFFFFFFFFFFFFFFFFFFFF AND PUSH20 0xFFFFFFFFFFFFFFFFFFFFFFFFFFFFFFFFFFFFFFFF AND PUSH20 0xFFFFFFFFFFFFFFFFFFFFFFFFFFFFFFFFFFFFFFFF AND DUP2 MSTORE PUSH1 0x20 ADD PUSH1 0x2 DUP3 ADD DUP1 SLOAD PUSH2 0x2E2D SWAP1 PUSH2 0x3EEC JUMP JUMPDEST DUP1 PUSH1 0x1F ADD PUSH1 0x20 DUP1 SWAP2 DIV MUL PUSH1 0x20 ADD PUSH1 0x40 MLOAD SWAP1 DUP2 ADD PUSH1 0x40 MSTORE DUP1 SWAP3 SWAP2 SWAP1 DUP2 DUP2 MSTORE PUSH1 0x20 ADD DUP3 DUP1 SLOAD PUSH2 0x2E59 SWAP1 PUSH2 0x3EEC JUMP JUMPDEST DUP1 ISZERO PUSH2 0x2EA4 JUMPI DUP1 PUSH1 0x1F LT PUSH2 0x2E7B JUMPI PUSH2 0x100 DUP1 DUP4 SLOAD DIV MUL DUP4 MSTORE SWAP2 PUSH1 0x20 ADD SWAP2 PUSH2 0x2EA4 JUMP JUMPDEST DUP3 ADD SWAP2 SWAP1 PUSH0 MSTORE PUSH1 0x20 PUSH0 KECCAK256 SWAP1 JUMPDEST DUP2 SLOAD DUP2 MSTORE SWAP1 PUSH1 0x1 ADD SWAP1 PUSH1 0x20 ADD DUP1 DUP4 GT PUSH2 0x2E87 JUMPI DUP3 SWAP1 SUB PUSH1 0x1F AND DUP3 ADD SWAP2 JUMPDEST POP POP POP POP POP DUP2 MSTORE PUSH1 0x20 ADD PUSH1 0x3 DUP3 ADD DUP1 SLOAD PUSH2 0x2EBD SWAP1 PUSH2 0x3EEC JUMP JUMPDEST DUP1 PUSH1 0x1F ADD PUSH1 0x20 DUP1 SWAP2 DIV MUL PUSH1 0x20 ADD PUSH1 0x40 MLOAD SWAP1 DUP2 ADD PUSH1 0x40 MSTORE DUP1 SWAP3 SWAP2 SWAP1 DUP2 DUP2 MSTORE PUSH1 0x20 ADD DUP3 DUP1 SLOAD PUSH2 0x2EE9 SWAP1 PUSH2 0x3EEC JUMP JUMPDEST DUP1 ISZERO PUSH2 0x2F34 JUMPI DUP1 PUSH1 0x1F LT PUSH2 0x2F0B JUMPI PUSH2 0x100 DUP1 DUP4 SLOAD DIV MUL DUP4 MSTORE SWAP2 PUSH1 0x20 ADD SWAP2 PUSH2 0x2F34 JUMP JUMPDEST DUP3 ADD SWAP2 SWAP1 PUSH0 MSTORE PUSH1 0x20 PUSH0 KECCAK256 SWAP1 JUMPDEST DUP2 SLOAD DUP2 MSTORE SWAP1 PUSH1 0x1 ADD SWAP1 PUSH1 0x20 ADD DUP1 DUP4 GT PUSH2 0x2F17 JUMPI DUP3 SWAP1 SUB PUSH1 0x1F AND DUP3 ADD SWAP2 JUMPDEST POP POP POP POP POP DUP2 MSTORE PUSH1 0x20 ADD PUSH1 0x4 DUP3 ADD DUP1 SLOAD PUSH2 0x2F4D SWAP1 PUSH2 0x3EEC JUMP JUMPDEST DUP1 PUSH1 0x1F ADD PUSH1 0x20 DUP1 SWAP2 DIV MUL PUSH1 0x20 ADD PUSH1 0x40 MLOAD SWAP1 DUP2 ADD PUSH1 0x40 MSTORE DUP1 SWAP3 SWAP2 SWAP1 DUP2 DUP2 MSTORE PUSH1 0x20 ADD DUP3 DUP1 SLOAD PUSH2 0x2F79 SWAP1 PUSH2 0x3EEC JUMP JUMPDEST DUP1 ISZERO PUSH2 0x2FC4 JUMPI DUP1 PUSH1 0x1F LT PUSH2 0x2F9B JUMPI PUSH2 0x100 DUP1 DUP4 SLOAD DIV MUL DUP4 MSTORE SWAP2 PUSH1 0x20 ADD SWAP2 PUSH2 0x2FC4 JUMP JUMPDEST DUP3 ADD SWAP2 SWAP1 PUSH0 MSTORE PUSH1 0x20 PUSH0 KECCAK256 SWAP1 JUMPDEST DUP2 SLOAD DUP2 MSTORE SWAP1 PUSH1 0x1 ADD SWAP1 PUSH1 0x20 ADD DUP1 DUP4 GT PUSH2 0x2FA7 JUMPI DUP3 SWAP1 SUB PUSH1 0x1F AND DUP3 ADD SWAP2 JUMPDEST POP POP POP POP POP DUP2 MSTORE PUSH1 0x20 ADD PUSH1 0x5 DUP3 ADD SLOAD DUP2 MSTORE PUSH1 0x20 ADD PUSH1 0x6 DUP3 ADD SLOAD DUP2 MSTORE PUSH1 0x20 ADD PUSH1 0x7 DUP3 ADD SLOAD DUP2 MSTORE PUSH1 0x20 ADD PUSH1 0x8 DUP3 ADD PUSH0 SWAP1 SLOAD SWAP1 PUSH2 0x100 EXP SWAP1 DIV PUSH1 0xFF AND ISZERO ISZERO ISZERO ISZERO DUP2 MSTORE PUSH1 0x20 ADD PUSH1 0x9 DUP3 ADD SLOAD DUP2 MSTORE POP POP DUP9 DUP4 DUP2 MLOAD DUP2 LT PUSH2 0x3022 JUMPI PUSH2 0x3021 PUSH2 0x44BD JUMP JUMPDEST JUMPDEST PUSH1 0x20 MUL PUSH1 0x20 ADD ADD DUP2 SWAP1 MSTORE POP DUP2 DUP1 PUSH2 0x3038 SWAP1 PUSH2 0x3FB1 JUMP JUMPDEST SWAP3 POP POP DUP1 DUP1 PUSH2 0x3046 SWAP1 PUSH2 0x3FB1 JUMP JUMPDEST SWAP2 POP POP PUSH2 0x2D9B JUMP JUMPDEST POP POP POP POP POP JUMPDEST SWAP3 POP SWAP3 POP SWAP3 JUMP JUMPDEST PUSH1 0x40 MLOAD DUP1 PUSH1 0xC0 ADD PUSH1 0x40 MSTORE DUP1 PUSH0 DUP2 MSTORE PUSH1 0x20 ADD PUSH0 PUSH20 0xFFFFFFFFFFFFFFFFFFFFFFFFFFFFFFFFFFFFFFFF AND DUP2 MSTORE PUSH1 0x20 ADD PUSH1 0x60 DUP2 MSTORE PUSH1 0x20 ADD PUSH0 DUP2 MSTORE PUSH1 0x20 ADD PUSH0 DUP2 MSTORE PUSH1 0x20 ADD PUSH0 DUP2 MSTORE POP SWAP1 JUMP JUMPDEST PUSH1 0x40 MLOAD DUP1 PUSH2 0x140 ADD PUSH1 0x40 MSTORE DUP1 PUSH0 DUP2 MSTORE PUSH1 0x20 ADD PUSH0 PUSH20 0xFFFFFFFFFFFFFFFFFFFFFFFFFFFFFFFFFFFFFFFF AND DUP2 MSTORE PUSH1 0x20 ADD PUSH1 0x60 DUP2 MSTORE PUSH1 0x20 ADD PUSH1 0x60 DUP2 MSTORE PUSH1 0x20 ADD PUSH1 0x60 DUP2 MSTORE PUSH1 0x20 ADD PUSH0 DUP2 MSTORE PUSH1 0x20 ADD PUSH0 DUP2 MSTORE PUSH1 0x20 ADD PUSH0 DUP2 MSTORE PUSH1 0x20 ADD PUSH0 ISZERO ISZERO DUP2 MSTORE PUSH1 0x20 ADD PUSH0 DUP2 MSTORE POP SWAP1 JUMP JUMPDEST PUSH0 PUSH1 0x40 MLOAD SWAP1 POP SWAP1 JUMP JUMPDEST PUSH0 DUP1 REVERT JUMPDEST PUSH0 DUP1 REVERT JUMPDEST PUSH0 DUP2 SWAP1 POP SWAP2 SWAP1 POP JUMP JUMPDEST PUSH2 0x3129 DUP2 PUSH2 0x3117 JUMP JUMPDEST DUP2 EQ PUSH2 0x3133 JUMPI PUSH0 DUP1 REVERT JUMPDEST POP JUMP JUMPDEST PUSH0 DUP2 CALLDATALOAD SWAP1 POP PUSH2 0x3144 DUP2 PUSH2 0x3120 JUMP JUMPDEST SWAP3 SWAP2 POP POP JUMP JUMPDEST PUSH0 DUP1 PUSH1 0x40 DUP4 DUP6 SUB SLT ISZERO PUSH2 0x3160 JUMPI PUSH2 0x315F PUSH2 0x310F JUMP JUMPDEST JUMPDEST PUSH0 PUSH2 0x316D DUP6 DUP3 DUP7 ADD PUSH2 0x3136 JUMP JUMPDEST SWAP3 POP POP PUSH1 0x20 PUSH2 0x317E DUP6 DUP3 DUP7 ADD PUSH2 0x3136 JUMP JUMPDEST SWAP2 POP POP SWAP3 POP SWAP3 SWAP1 POP JUMP JUMPDEST PUSH0 DUP1 REVERT JUMPDEST PUSH0 DUP1 REVERT JUMPDEST PUSH0 PUSH1 0x1F NOT PUSH1 0x1F DUP4 ADD AND SWAP1 POP SWAP2 SWAP1 POP JUMP JUMPDEST PUSH32 0x4E487B7100000000000000000000000000000000000000000000000000000000 PUSH0 MSTORE PUSH1 0x41 PUSH1 0x4 MSTORE PUSH1 0x24 PUSH0 REVERT JUMPDEST PUSH2 0x31D6 DUP3 PUSH2 0x3190 JUMP JUMPDEST DUP2 ADD DUP2 DUP2 LT PUSH8 0xFFFFFFFFFFFFFFFF DUP3 GT OR ISZERO PUSH2 0x31F5 JUMPI PUSH2 0x31F4 PUSH2 0x31A0 JUMP JUMPDEST JUMPDEST DUP1 PUSH1 0x40 MSTORE POP POP POP JUMP JUMPDEST PUSH0 PUSH2 0x3207 PUSH2 0x3106 JUMP JUMPDEST SWAP1 POP PUSH2 0x3213 DUP3 DUP3 PUSH2 0x31CD JUMP JUMPDEST SWAP2 SWAP1 POP JUMP JUMPDEST PUSH0 PUSH8 0xFFFFFFFFFFFFFFFF DUP3 GT ISZERO PUSH2 0x3232 JUMPI PUSH2 0x3231 PUSH2 0x31A0 JUMP JUMPDEST JUMPDEST PUSH2 0x323B DUP3 PUSH2 0x3190 JUMP JUMPDEST SWAP1 POP PUSH1 0x20 DUP2 ADD SWAP1 POP SWAP2 SWAP1 POP JUMP JUMPDEST DUP3 DUP2 DUP4 CALLDATACOPY PUSH0 DUP4 DUP4 ADD MSTORE POP POP POP JUMP JUMPDEST PUSH0 PUSH2 0x3268 PUSH2 0x3263 DUP5 PUSH2 0x3218 JUMP JUMPDEST PUSH2 0x31FE JUMP JUMPDEST SWAP1 POP DUP3 DUP2 MSTORE PUSH1 0x20 DUP2 ADD DUP5 DUP5 DUP5 ADD GT ISZERO PUSH2 0x3284 JUMPI PUSH2 0x3283 PUSH2 0x318C JUMP JUMPDEST JUMPDEST PUSH2 0x328F DUP5 DUP3 DUP6 PUSH2 0x3248 JUMP JUMPDEST POP SWAP4 SWAP3 POP POP POP JUMP JUMPDEST PUSH0 DUP3 PUSH1 0x1F DUP4 ADD SLT PUSH2 0x32AB JUMPI PUSH2 0x32AA PUSH2 0x3188 JUMP JUMPDEST JUMPDEST DUP2 CALLDATALOAD PUSH2 0x32BB DUP5 DUP3 PUSH1 0x20 DUP7 ADD PUSH2 0x3256 JUMP JUMPDEST SWAP2 POP POP SWAP3 SWAP2 POP POP JUMP JUMPDEST PUSH0 DUP1 PUSH1 0x40 DUP4 DUP6 SUB SLT ISZERO PUSH2 0x32DA JUMPI PUSH2 0x32D9 PUSH2 0x310F JUMP JUMPDEST JUMPDEST PUSH0 PUSH2 0x32E7 DUP6 DUP3 DUP7 ADD PUSH2 0x3136 JUMP JUMPDEST SWAP3 POP POP PUSH1 0x20 DUP4 ADD CALLDATALOAD PUSH8 0xFFFFFFFFFFFFFFFF DUP2 GT ISZERO PUSH2 0x3308 JUMPI PUSH2 0x3307 PUSH2 0x3113 JUMP JUMPDEST JUMPDEST PUSH2 0x3314 DUP6 DUP3 DUP7 ADD PUSH2 0x3297 JUMP JUMPDEST SWAP2 POP POP SWAP3 POP SWAP3 SWAP1 POP JUMP JUMPDEST PUSH2 0x3327 DUP2 PUSH2 0x3117 JUMP JUMPDEST DUP3 MSTORE POP POP JUMP JUMPDEST PUSH0 PUSH20 0xFFFFFFFFFFFFFFFFFFFFFFFFFFFFFFFFFFFFFFFF DUP3 AND SWAP1 POP SWAP2 SWAP1 POP JUMP JUMPDEST PUSH0 PUSH2 0x3356 DUP3 PUSH2 0x332D JUMP JUMPDEST SWAP1 POP SWAP2 SWAP1 POP JUMP JUMPDEST PUSH2 0x3366 DUP2 PUSH2 0x334C JUMP JUMPDEST DUP3 MSTORE POP POP JUMP JUMPDEST PUSH0 DUP2 MLOAD SWAP1 POP SWAP2 SWAP1 POP JUMP JUMPDEST PUSH0 DUP3 DUP3 MSTORE PUSH1 0x20 DUP3 ADD SWAP1 POP SWAP3 SWAP2 POP POP JUMP JUMPDEST DUP3 DUP2 DUP4 MCOPY PUSH0 DUP4 DUP4 ADD MSTORE POP POP POP JUMP JUMPDEST PUSH0 PUSH2 0x339E DUP3 PUSH2 0x336C JUMP JUMPDEST PUSH2 0x33A8 DUP2 DUP6 PUSH2 0x3376 JUMP JUMPDEST SWAP4 POP PUSH2 0x33B8 DUP2 DUP6 PUSH1 0x20 DUP7 ADD PUSH2 0x3386 JUMP JUMPDEST PUSH2 0x33C1 DUP2 PUSH2 0x3190 JUMP JUMPDEST DUP5 ADD SWAP2 POP POP SWAP3 SWAP2 POP POP JUMP JUMPDEST PUSH0 PUSH1 0xC0 DUP3 ADD SWAP1 POP PUSH2 0x33DF PUSH0 DUP4 ADD DUP10 PUSH2 0x331E JUMP JUMPDEST PUSH2 0x33EC PUSH1 0x20 DUP4 ADD DUP9 PUSH2 0x335D JUMP JUMPDEST DUP2 DUP2 SUB PUSH1 0x40 DUP4 ADD MSTORE PUSH2 0x33FE DUP2 DUP8 PUSH2 0x3394 JUMP JUMPDEST SWAP1 POP PUSH2 0x340D PUSH1 0x60 DUP4 ADD DUP7 PUSH2 0x331E JUMP JUMPDEST PUSH2 0x341A PUSH1 0x80 DUP4 ADD DUP6 PUSH2 0x331E JUMP JUMPDEST PUSH2 0x3427 PUSH1 0xA0 DUP4 ADD DUP5 PUSH2 0x331E JUMP JUMPDEST SWAP8 SWAP7 POP POP POP POP POP POP POP JUMP JUMPDEST PUSH2 0x343B DUP2 PUSH2 0x334C JUMP JUMPDEST DUP2 EQ PUSH2 0x3445 JUMPI PUSH0 DUP1 REVERT JUMPDEST POP JUMP JUMPDEST PUSH0 DUP2 CALLDATALOAD SWAP1 POP PUSH2 0x3456 DUP2 PUSH2 0x3432 JUMP JUMPDEST SWAP3 SWAP2 POP POP JUMP JUMPDEST PUSH0 PUSH1 0x20 DUP3 DUP5 SUB SLT ISZERO PUSH2 0x3471 JUMPI PUSH2 0x3470 PUSH2 0x310F JUMP JUMPDEST JUMPDEST PUSH0 PUSH2 0x347E DUP5 DUP3 DUP6 ADD PUSH2 0x3448 JUMP JUMPDEST SWAP2 POP POP SWAP3 SWAP2 POP POP JUMP JUMPDEST PUSH0 PUSH1 0x20 DUP3 ADD SWAP1 POP PUSH2 0x349A PUSH0 DUP4 ADD DUP5 PUSH2 0x331E JUMP JUMPDEST SWAP3 SWAP2 POP POP JUMP JUMPDEST PUSH0 PUSH1 0x20 DUP3 DUP5 SUB SLT ISZERO PUSH2 0x34B5 JUMPI PUSH2 0x34B4 PUSH2 0x310F JUMP JUMPDEST JUMPDEST PUSH0 PUSH2 0x34C2 DUP5 DUP3 DUP6 ADD PUSH2 0x3136 JUMP JUMPDEST SWAP2 POP POP SWAP3 SWAP2 POP POP JUMP JUMPDEST PUSH0 DUP2 ISZERO ISZERO SWAP1 POP SWAP2 SWAP1 POP JUMP JUMPDEST PUSH2 0x34DF DUP2 PUSH2 0x34CB JUMP JUMPDEST DUP3 MSTORE POP POP JUMP JUMPDEST PUSH0 PUSH2 0x140 DUP3 ADD SWAP1 POP PUSH2 0x34F9 PUSH0 DUP4 ADD DUP14 PUSH2 0x331E JUMP JUMPDEST PUSH2 0x3506 PUSH1 0x20 DUP4 ADD DUP13 PUSH2 0x335D JUMP JUMPDEST DUP2 DUP2 SUB PUSH1 0x40 DUP4 ADD MSTORE PUSH2 0x3518 DUP2 DUP12 PUSH2 0x3394 JUMP JUMPDEST SWAP1 POP DUP2 DUP2 SUB PUSH1 0x60 DUP4 ADD MSTORE PUSH2 0x352C DUP2 DUP11 PUSH2 0x3394 JUMP JUMPDEST SWAP1 POP DUP2 DUP2 SUB PUSH1 0x80 DUP4 ADD MSTORE PUSH2 0x3540 DUP2 DUP10 PUSH2 0x3394 JUMP JUMPDEST SWAP1 POP PUSH2 0x354F PUSH1 0xA0 DUP4 ADD DUP9 PUSH2 0x331E JUMP JUMPDEST PUSH2 0x355C PUSH1 0xC0 DUP4 ADD DUP8 PUSH2 0x331E JUMP JUMPDEST PUSH2 0x3569 PUSH1 0xE0 DUP4 ADD DUP7 PUSH2 0x331E JUMP JUMPDEST PUSH2 0x3577 PUSH2 0x100 DUP4 ADD DUP6 PUSH2 0x34D6 JUMP JUMPDEST PUSH2 0x3585 PUSH2 0x120 DUP4 ADD DUP5 PUSH2 0x331E JUMP JUMPDEST SWAP12 SWAP11 POP POP POP POP POP POP POP POP POP POP POP JUMP JUMPDEST PUSH2 0x359D DUP2 PUSH2 0x3117 JUMP JUMPDEST DUP3 MSTORE POP POP JUMP JUMPDEST PUSH2 0x35AC DUP2 PUSH2 0x334C JUMP JUMPDEST DUP3 MSTORE POP POP JUMP JUMPDEST PUSH0 DUP3 DUP3 MSTORE PUSH1 0x20 DUP3 ADD SWAP1 POP SWAP3 SWAP2 POP POP JUMP JUMPDEST PUSH0 PUSH2 0x35CC DUP3 PUSH2 0x336C JUMP JUMPDEST PUSH2 0x35D6 DUP2 DUP6 PUSH2 0x35B2 JUMP JUMPDEST SWAP4 POP PUSH2 0x35E6 DUP2 DUP6 PUSH1 0x20 DUP7 ADD PUSH2 0x3386 JUMP JUMPDEST PUSH2 0x35EF DUP2 PUSH2 0x3190 JUMP JUMPDEST DUP5 ADD SWAP2 POP POP SWAP3 SWAP2 POP POP JUMP JUMPDEST PUSH0 PUSH1 0xC0 DUP4 ADD PUSH0 DUP4 ADD MLOAD PUSH2 0x360F PUSH0 DUP7 ADD DUP3 PUSH2 0x3594 JUMP JUMPDEST POP PUSH1 0x20 DUP4 ADD MLOAD PUSH2 0x3622 PUSH1 0x20 DUP7 ADD DUP3 PUSH2 0x35A3 JUMP JUMPDEST POP PUSH1 0x40 DUP4 ADD MLOAD DUP5 DUP3 SUB PUSH1 0x40 DUP7 ADD MSTORE PUSH2 0x363A DUP3 DUP3 PUSH2 0x35C2 JUMP JUMPDEST SWAP2 POP POP PUSH1 0x60 DUP4 ADD MLOAD PUSH2 0x364F PUSH1 0x60 DUP7 ADD DUP3 PUSH2 0x3594 JUMP JUMPDEST POP PUSH1 0x80 DUP4 ADD MLOAD PUSH2 0x3662 PUSH1 0x80 DUP7 ADD DUP3 PUSH2 0x3594 JUMP JUMPDEST POP PUSH1 0xA0 DUP4 ADD MLOAD PUSH2 0x3675 PUSH1 0xA0 DUP7 ADD DUP3 PUSH2 0x3594 JUMP JUMPDEST POP DUP1 SWAP2 POP POP SWAP3 SWAP2 POP POP JUMP JUMPDEST PUSH0 PUSH1 0x20 DUP3 ADD SWAP1 POP DUP2 DUP2 SUB PUSH0 DUP4 ADD MSTORE PUSH2 0x3698 DUP2 DUP5 PUSH2 0x35FA JUMP JUMPDEST SWAP1 POP SWAP3 SWAP2 POP POP JUMP JUMPDEST PUSH0 PUSH1 0x20 DUP3 DUP5 SUB SLT ISZERO PUSH2 0x36B5 JUMPI PUSH2 0x36B4 PUSH2 0x310F JUMP JUMPDEST JUMPDEST PUSH0 DUP3 ADD CALLDATALOAD PUSH8 0xFFFFFFFFFFFFFFFF DUP2 GT ISZERO PUSH2 0x36D2 JUMPI PUSH2 0x36D1 PUSH2 0x3113 JUMP JUMPDEST JUMPDEST PUSH2 0x36DE DUP5 DUP3 DUP6 ADD PUSH2 0x3297 JUMP JUMPDEST SWAP2 POP POP SWAP3 SWAP2 POP POP JUMP JUMPDEST PUSH0 DUP2 MLOAD SWAP1 POP SWAP2 SWAP1 POP JUMP JUMPDEST PUSH0 DUP3 DUP3 MSTORE PUSH1 0x20 DUP3 ADD SWAP1 POP SWAP3 SWAP2 POP POP JUMP JUMPDEST PUSH0 DUP2 SWAP1 POP PUSH1 0x20 DUP3 ADD SWAP1 POP SWAP2 SWAP1 POP JUMP JUMPDEST PUSH0 PUSH2 0x371B DUP4 DUP4 PUSH2 0x3594 JUMP JUMPDEST PUSH1 0x20 DUP4 ADD SWAP1 POP SWAP3 SWAP2 POP POP JUMP JUMPDEST PUSH0 PUSH1 0x20 DUP3 ADD SWAP1 POP SWAP2 SWAP1 POP JUMP JUMPDEST PUSH0 PUSH2 0x373D DUP3 PUSH2 0x36E7 JUMP JUMPDEST PUSH2 0x3747 DUP2 DUP6 PUSH2 0x36F1 JUMP JUMPDEST SWAP4 POP PUSH2 0x3752 DUP4 PUSH2 0x3701 JUMP JUMPDEST DUP1 PUSH0 JUMPDEST DUP4 DUP2 LT ISZERO PUSH2 0x3782 JUMPI DUP2 MLOAD PUSH2 0x3769 DUP9 DUP3 PUSH2 0x3710 JUMP JUMPDEST SWAP8 POP PUSH2 0x3774 DUP4 PUSH2 0x3727 JUMP JUMPDEST SWAP3 POP POP PUSH1 0x1 DUP2 ADD SWAP1 POP PUSH2 0x3755 JUMP JUMPDEST POP DUP6 SWAP4 POP POP POP POP SWAP3 SWAP2 POP POP JUMP JUMPDEST PUSH0 PUSH1 0x20 DUP3 ADD SWAP1 POP DUP2 DUP2 SUB PUSH0 DUP4 ADD MSTORE PUSH2 0x37A7 DUP2 DUP5 PUSH2 0x3733 JUMP JUMPDEST SWAP1 POP SWAP3 SWAP2 POP POP JUMP JUMPDEST PUSH1 0x3 DUP2 LT PUSH2 0x37BB JUMPI PUSH0 DUP1 REVERT JUMPDEST POP JUMP JUMPDEST PUSH0 DUP2 CALLDATALOAD SWAP1 POP PUSH2 0x37CC DUP2 PUSH2 0x37AF JUMP JUMPDEST SWAP3 SWAP2 POP POP JUMP JUMPDEST PUSH0 DUP1 PUSH0 DUP1 PUSH1 0x80 DUP6 DUP8 SUB SLT ISZERO PUSH2 0x37EA JUMPI PUSH2 0x37E9 PUSH2 0x310F JUMP JUMPDEST JUMPDEST PUSH0 DUP6 ADD CALLDATALOAD PUSH8 0xFFFFFFFFFFFFFFFF DUP2 GT ISZERO PUSH2 0x3807 JUMPI PUSH2 0x3806 PUSH2 0x3113 JUMP JUMPDEST JUMPDEST PUSH2 0x3813 DUP8 DUP3 DUP9 ADD PUSH2 0x3297 JUMP JUMPDEST SWAP5 POP POP PUSH1 0x20 DUP6 ADD CALLDATALOAD PUSH8 0xFFFFFFFFFFFFFFFF DUP2 GT ISZERO PUSH2 0x3834 JUMPI PUSH2 0x3833 PUSH2 0x3113 JUMP JUMPDEST JUMPDEST PUSH2 0x3840 DUP8 DUP3 DUP9 ADD PUSH2 0x3297 JUMP JUMPDEST SWAP4 POP POP PUSH1 0x40 DUP6 ADD CALLDATALOAD PUSH8 0xFFFFFFFFFFFFFFFF DUP2 GT ISZERO PUSH2 0x3861 JUMPI PUSH2 0x3860 PUSH2 0x3113 JUMP JUMPDEST JUMPDEST PUSH2 0x386D DUP8 DUP3 DUP9 ADD PUSH2 0x3297 JUMP JUMPDEST SWAP3 POP POP PUSH1 0x60 PUSH2 0x387E DUP8 DUP3 DUP9 ADD PUSH2 0x37BE JUMP JUMPDEST SWAP2 POP POP SWAP3 SWAP6 SWAP2 SWAP5 POP SWAP3 POP JUMP JUMPDEST PUSH0 PUSH1 0x20 DUP3 ADD SWAP1 POP PUSH2 0x389D PUSH0 DUP4 ADD DUP5 PUSH2 0x335D JUMP JUMPDEST SWAP3 SWAP2 POP POP JUMP JUMPDEST PUSH2 0x38AC DUP2 PUSH2 0x34CB JUMP JUMPDEST DUP3 MSTORE POP POP JUMP JUMPDEST PUSH0 PUSH2 0x140 DUP4 ADD PUSH0 DUP4 ADD MLOAD PUSH2 0x38C8 PUSH0 DUP7 ADD DUP3 PUSH2 0x3594 JUMP JUMPDEST POP PUSH1 0x20 DUP4 ADD MLOAD PUSH2 0x38DB PUSH1 0x20 DUP7 ADD DUP3 PUSH2 0x35A3 JUMP JUMPDEST POP PUSH1 0x40 DUP4 ADD MLOAD DUP5 DUP3 SUB PUSH1 0x40 DUP7 ADD MSTORE PUSH2 0x38F3 DUP3 DUP3 PUSH2 0x35C2 JUMP JUMPDEST SWAP2 POP POP PUSH1 0x60 DUP4 ADD MLOAD DUP5 DUP3 SUB PUSH1 0x60 DUP7 ADD MSTORE PUSH2 0x390D DUP3 DUP3 PUSH2 0x35C2 JUMP JUMPDEST SWAP2 POP POP PUSH1 0x80 DUP4 ADD MLOAD DUP5 DUP3 SUB PUSH1 0x80 DUP7 ADD MSTORE PUSH2 0x3927 DUP3 DUP3 PUSH2 0x35C2 JUMP JUMPDEST SWAP2 POP POP PUSH1 0xA0 DUP4 ADD MLOAD PUSH2 0x393C PUSH1 0xA0 DUP7 ADD DUP3 PUSH2 0x3594 JUMP JUMPDEST POP PUSH1 0xC0 DUP4 ADD MLOAD PUSH2 0x394F PUSH1 0xC0 DUP7 ADD DUP3 PUSH2 0x3594 JUMP JUMPDEST POP PUSH1 0xE0 DUP4 ADD MLOAD PUSH2 0x3962 PUSH1 0xE0 DUP7 ADD DUP3 PUSH2 0x3594 JUMP JUMPDEST POP PUSH2 0x100 DUP4 ADD MLOAD PUSH2 0x3977 PUSH2 0x100 DUP7 ADD DUP3 PUSH2 0x38A3 JUMP JUMPDEST POP PUSH2 0x120 DUP4 ADD MLOAD PUSH2 0x398C PUSH2 0x120 DUP7 ADD DUP3 PUSH2 0x3594 JUMP JUMPDEST POP DUP1 SWAP2 POP POP SWAP3 SWAP2 POP POP JUMP JUMPDEST PUSH0 PUSH1 0x20 DUP3 ADD SWAP1 POP DUP2 DUP2 SUB PUSH0 DUP4 ADD MSTORE PUSH2 0x39AF DUP2 DUP5 PUSH2 0x38B2 JUMP JUMPDEST SWAP1 POP SWAP3 SWAP2 POP POP JUMP JUMPDEST PUSH0 DUP1 PUSH0 PUSH1 0x60 DUP5 DUP7 SUB SLT ISZERO PUSH2 0x39CE JUMPI PUSH2 0x39CD PUSH2 0x310F JUMP JUMPDEST JUMPDEST PUSH0 PUSH2 0x39DB DUP7 DUP3 DUP8 ADD PUSH2 0x3136 JUMP JUMPDEST SWAP4 POP POP PUSH1 0x20 PUSH2 0x39EC DUP7 DUP3 DUP8 ADD PUSH2 0x3136 JUMP JUMPDEST SWAP3 POP POP PUSH1 0x40 PUSH2 0x39FD DUP7 DUP3 DUP8 ADD PUSH2 0x3136 JUMP JUMPDEST SWAP2 POP POP SWAP3 POP SWAP3 POP SWAP3 JUMP JUMPDEST PUSH0 DUP2 MLOAD SWAP1 POP SWAP2 SWAP1 POP JUMP JUMPDEST PUSH0 DUP3 DUP3 MSTORE PUSH1 0x20 DUP3 ADD SWAP1 POP SWAP3 SWAP2 POP POP JUMP JUMPDEST PUSH0 DUP2 SWAP1 POP PUSH1 0x20 DUP3 ADD SWAP1 POP SWAP2 SWAP1 POP JUMP JUMPDEST PUSH0 PUSH1 0xC0 DUP4 ADD PUSH0 DUP4 ADD MLOAD PUSH2 0x3A45 PUSH0 DUP7 ADD DUP3 PUSH2 0x3594 JUMP JUMPDEST POP PUSH1 0x20 DUP4 ADD MLOAD PUSH2 0x3A58 PUSH1 0x20 DUP7 ADD DUP3 PUSH2 0x35A3 JUMP JUMPDEST POP PUSH1 0x40 DUP4 ADD MLOAD DUP5 DUP3 SUB PUSH1 0x40 DUP7 ADD MSTORE PUSH2 0x3A70 DUP3 DUP3 PUSH2 0x35C2 JUMP JUMPDEST SWAP2 POP POP PUSH1 0x60 DUP4 ADD MLOAD PUSH2 0x3A85 PUSH1 0x60 DUP7 ADD DUP3 PUSH2 0x3594 JUMP JUMPDEST POP PUSH1 0x80 DUP4 ADD MLOAD PUSH2 0x3A98 PUSH1 0x80 DUP7 ADD DUP3 PUSH2 0x3594 JUMP JUMPDEST POP PUSH1 0xA0 DUP4 ADD MLOAD PUSH2 0x3AAB PUSH1 0xA0 DUP7 ADD DUP3 PUSH2 0x3594 JUMP JUMPDEST POP DUP1 SWAP2 POP POP SWAP3 SWAP2 POP POP JUMP JUMPDEST PUSH0 PUSH2 0x3AC1 DUP4 DUP4 PUSH2 0x3A30 JUMP JUMPDEST SWAP1 POP SWAP3 SWAP2 POP POP JUMP JUMPDEST PUSH0 PUSH1 0x20 DUP3 ADD SWAP1 POP SWAP2 SWAP1 POP JUMP JUMPDEST PUSH0 PUSH2 0x3ADF DUP3 PUSH2 0x3A07 JUMP JUMPDEST PUSH2 0x3AE9 DUP2 DUP6 PUSH2 0x3A11 JUMP JUMPDEST SWAP4 POP DUP4 PUSH1 0x20 DUP3 MUL DUP6 ADD PUSH2 0x3AFB DUP6 PUSH2 0x3A21 JUMP JUMPDEST DUP1 PUSH0 JUMPDEST DUP6 DUP2 LT ISZERO PUSH2 0x3B36 JUMPI DUP5 DUP5 SUB DUP10 MSTORE DUP2 MLOAD PUSH2 0x3B17 DUP6 DUP3 PUSH2 0x3AB6 JUMP JUMPDEST SWAP5 POP PUSH2 0x3B22 DUP4 PUSH2 0x3AC9 JUMP JUMPDEST SWAP3 POP PUSH1 0x20 DUP11 ADD SWAP10 POP POP PUSH1 0x1 DUP2 ADD SWAP1 POP PUSH2 0x3AFE JUMP JUMPDEST POP DUP3 SWAP8 POP DUP8 SWAP6 POP POP POP POP POP POP SWAP3 SWAP2 POP POP JUMP JUMPDEST PUSH0 PUSH1 0x60 DUP3 ADD SWAP1 POP DUP2 DUP2 SUB PUSH0 DUP4 ADD MSTORE PUSH2 0x3B60 DUP2 DUP7 PUSH2 0x3AD5 JUMP JUMPDEST SWAP1 POP PUSH2 0x3B6F PUSH1 0x20 DUP4 ADD DUP6 PUSH2 0x331E JUMP JUMPDEST PUSH2 0x3B7C PUSH1 0x40 DUP4 ADD DUP5 PUSH2 0x331E JUMP JUMPDEST SWAP5 SWAP4 POP POP POP POP JUMP JUMPDEST PUSH0 DUP2 MLOAD SWAP1 POP SWAP2 SWAP1 POP JUMP JUMPDEST PUSH0 DUP3 DUP3 MSTORE PUSH1 0x20 DUP3 ADD SWAP1 POP SWAP3 SWAP2 POP POP JUMP JUMPDEST PUSH0 DUP2 SWAP1 POP PUSH1 0x20 DUP3 ADD SWAP1 POP SWAP2 SWAP1 POP JUMP JUMPDEST PUSH0 PUSH2 0x140 DUP4 ADD PUSH0 DUP4 ADD MLOAD PUSH2 0x3BC3 PUSH0 DUP7 ADD DUP3 PUSH2 0x3594 JUMP JUMPDEST POP PUSH1 0x20 DUP4 ADD MLOAD PUSH2 0x3BD6 PUSH1 0x20 DUP7 ADD DUP3 PUSH2 0x35A3 JUMP JUMPDEST POP PUSH1 0x40 DUP4 ADD MLOAD DUP5 DUP3 SUB PUSH1 0x40 DUP7 ADD MSTORE PUSH2 0x3BEE DUP3 DUP3 PUSH2 0x35C2 JUMP JUMPDEST SWAP2 POP POP PUSH1 0x60 DUP4 ADD MLOAD DUP5 DUP3 SUB PUSH1 0x60 DUP7 ADD MSTORE PUSH2 0x3C08 DUP3 DUP3 PUSH2 0x35C2 JUMP JUMPDEST SWAP2 POP POP PUSH1 0x80 DUP4 ADD MLOAD DUP5 DUP3 SUB PUSH1 0x80 DUP7 ADD MSTORE PUSH2 0x3C22 DUP3 DUP3 PUSH2 0x35C2 JUMP JUMPDEST SWAP2 POP POP PUSH1 0xA0 DUP4 ADD MLOAD PUSH2 0x3C37 PUSH1 0xA0 DUP7 ADD DUP3 PUSH2 0x3594 JUMP JUMPDEST POP PUSH1 0xC0 DUP4 ADD MLOAD PUSH2 0x3C4A PUSH1 0xC0 DUP7 ADD DUP3 PUSH2 0x3594 JUMP JUMPDEST POP PUSH1 0xE0 DUP4 ADD MLOAD PUSH2 0x3C5D PUSH1 0xE0 DUP7 ADD DUP3 PUSH2 0x3594 JUMP JUMPDEST POP PUSH2 0x100 DUP4 ADD MLOAD PUSH2 0x3C72 PUSH2 0x100 DUP7 ADD DUP3 PUSH2 0x38A3 JUMP JUMPDEST POP PUSH2 0x120 DUP4 ADD MLOAD PUSH2 0x3C87 PUSH2 0x120 DUP7 ADD DUP3 PUSH2 0x3594 JUMP JUMPDEST POP DUP1 SWAP2 POP POP SWAP3 SWAP2 POP POP JUMP JUMPDEST PUSH0 PUSH2 0x3C9D DUP4 DUP4 PUSH2 0x3BAD JUMP JUMPDEST SWAP1 POP SWAP3 SWAP2 POP POP JUMP JUMPDEST PUSH0 PUSH1 0x20 DUP3 ADD SWAP1 POP SWAP2 SWAP1 POP JUMP JUMPDEST PUSH0 PUSH2 0x3CBB DUP3 PUSH2 0x3B84 JUMP JUMPDEST PUSH2 0x3CC5 DUP2 DUP6 PUSH2 0x3B8E JUMP JUMPDEST SWAP4 POP DUP4 PUSH1 0x20 DUP3 MUL DUP6 ADD PUSH2 0x3CD7 DUP6 PUSH2 0x3B9E JUMP JUMPDEST DUP1 PUSH0 JUMPDEST DUP6 DUP2 LT ISZERO PUSH2 0x3D12 JUMPI DUP5 DUP5 SUB DUP10 MSTORE DUP2 MLOAD PUSH2 0x3CF3 DUP6 DUP3 PUSH2 0x3C92 JUMP JUMPDEST SWAP5 POP PUSH2 0x3CFE DUP4 PUSH2 0x3CA5 JUMP JUMPDEST SWAP3 POP PUSH1 0x20 DUP11 ADD SWAP10 POP POP PUSH1 0x1 DUP2 ADD SWAP1 POP PUSH2 0x3CDA JUMP JUMPDEST POP DUP3 SWAP8 POP DUP8 SWAP6 POP POP POP POP POP POP SWAP3 SWAP2 POP POP JUMP JUMPDEST PUSH0 PUSH1 0x60 DUP3 ADD SWAP1 POP DUP2 DUP2 SUB PUSH0 DUP4 ADD MSTORE PUSH2 0x3D3C DUP2 DUP7 PUSH2 0x3CB1 JUMP JUMPDEST SWAP1 POP PUSH2 0x3D4B PUSH1 0x20 DUP4 ADD DUP6 PUSH2 0x331E JUMP JUMPDEST PUSH2 0x3D58 PUSH1 0x40 DUP4 ADD DUP5 PUSH2 0x331E JUMP JUMPDEST SWAP5 SWAP4 POP POP POP POP JUMP JUMPDEST PUSH32 0x5175657374696F6E20646F6573206E6F74206578697374000000000000000000 PUSH0 DUP3 ADD MSTORE POP JUMP JUMPDEST PUSH0 PUSH2 0x3D94 PUSH1 0x17 DUP4 PUSH2 0x3376 JUMP JUMPDEST SWAP2 POP PUSH2 0x3D9F DUP3 PUSH2 0x3D60 JUMP JUMPDEST PUSH1 0x20 DUP3 ADD SWAP1 POP SWAP2 SWAP1 POP JUMP JUMPDEST PUSH0 PUSH1 0x20 DUP3 ADD SWAP1 POP DUP2 DUP2 SUB PUSH0 DUP4 ADD MSTORE PUSH2 0x3DC1 DUP2 PUSH2 0x3D88 JUMP JUMPDEST SWAP1 POP SWAP2 SWAP1 POP JUMP JUMPDEST PUSH32 0x5175657374696F6E20697320616C726561647920636C6F736564000000000000 PUSH0 DUP3 ADD MSTORE POP JUMP JUMPDEST PUSH0 PUSH2 0x3DFC PUSH1 0x1A DUP4 PUSH2 0x3376 JUMP JUMPDEST SWAP2 POP PUSH2 0x3E07 DUP3 PUSH2 0x3DC8 JUMP JUMPDEST PUSH1 0x20 DUP3 ADD SWAP1 POP SWAP2 SWAP1 POP JUMP JUMPDEST PUSH0 PUSH1 0x20 DUP3 ADD SWAP1 POP DUP2 DUP2 SUB PUSH0 DUP4 ADD MSTORE PUSH2 0x3E29 DUP2 PUSH2 0x3DF0 JUMP JUMPDEST SWAP1 POP SWAP2 SWAP1 POP JUMP JUMPDEST PUSH32 0x4F6E6C792061736B65722063616E20636C6F7365207175657374696F6E000000 PUSH0 DUP3 ADD MSTORE POP JUMP JUMPDEST PUSH0 PUSH2 0x3E64 PUSH1 0x1D DUP4 PUSH2 0x3376 JUMP JUMPDEST SWAP2 POP PUSH2 0x3E6F DUP3 PUSH2 0x3E30 JUMP JUMPDEST PUSH1 0x20 DUP3 ADD SWAP1 POP SWAP2 SWAP1 POP JUMP JUMPDEST PUSH0 PUSH1 0x20 DUP3 ADD SWAP1 POP DUP2 DUP2 SUB PUSH0 DUP4 ADD MSTORE PUSH2 0x3E91 DUP2 PUSH2 0x3E58 JUMP JUMPDEST SWAP1 POP SWAP2 SWAP1 POP JUMP JUMPDEST PUSH0 PUSH1 0x40 DUP3 ADD SWAP1 POP PUSH2 0x3EAB PUSH0 DUP4 ADD DUP6 PUSH2 0x331E JUMP JUMPDEST PUSH2 0x3EB8 PUSH1 0x20 DUP4 ADD DUP5 PUSH2 0x331E JUMP JUMPDEST SWAP4 SWAP3 POP POP POP JUMP JUMPDEST PUSH32 0x4E487B7100000000000000000000000000000000000000000000000000000000 PUSH0 MSTORE PUSH1 0x22 PUSH1 0x4 MSTORE PUSH1 0x24 PUSH0 REVERT JUMPDEST PUSH0 PUSH1 0x2 DUP3 DIV SWAP1 POP PUSH1 0x1 DUP3 AND DUP1 PUSH2 0x3F03 JUMPI PUSH1 0x7F DUP3 AND SWAP2 POP JUMPDEST PUSH1 0x20 DUP3 LT DUP2 SUB PUSH2 0x3F16 JUMPI PUSH2 0x3F15 PUSH2 0x3EBF JUMP JUMPDEST JUMPDEST POP SWAP2 SWAP1 POP JUMP JUMPDEST PUSH32 0x5175657374696F6E20646561646C696E65206861732070617373656400000000 PUSH0 DUP3 ADD MSTORE POP JUMP JUMPDEST PUSH0 PUSH2 0x3F50 PUSH1 0x1C DUP4 PUSH2 0x3376 JUMP JUMPDEST SWAP2 POP PUSH2 0x3F5B DUP3 PUSH2 0x3F1C JUMP JUMPDEST PUSH1 0x20 DUP3 ADD SWAP1 POP SWAP2 SWAP1 POP JUMP JUMPDEST PUSH0 PUSH1 0x20 DUP3 ADD SWAP1 POP DUP2 DUP2 SUB PUSH0 DUP4 ADD MSTORE PUSH2 0x3F7D DUP2 PUSH2 0x3F44 JUMP JUMPDEST SWAP1 POP SWAP2 SWAP1 POP JUMP JUMPDEST PUSH32 0x4E487B7100000000000000000000000000000000000000000000000000000000 PUSH0 MSTORE PUSH1 0x11 PUSH1 0x4 MSTORE PUSH1 0x24 PUSH0 REVERT JUMPDEST PUSH0 PUSH2 0x3FBB DUP3 PUSH2 0x3117 JUMP JUMPDEST SWAP2 POP PUSH32 0xFFFFFFFFFFFFFFFFFFFFFFFFFFFFFFFFFFFFFFFFFFFFFFFFFFFFFFFFFFFFFFFF DUP3 SUB PUSH2 0x3FED JUMPI PUSH2 0x3FEC PUSH2 0x3F84 JUMP JUMPDEST JUMPDEST PUSH1 0x1 DUP3 ADD SWAP1 POP SWAP2 SWAP1 POP JUMP JUMPDEST PUSH0 DUP2 SWAP1 POP DUP2 PUSH0 MSTORE PUSH1 0x20 PUSH0 KECCAK256 SWAP1 POP SWAP2 SWAP1 POP JUMP JUMPDEST PUSH0 PUSH1 0x20 PUSH1 0x1F DUP4 ADD DIV SWAP1 POP SWAP2 SWAP1 POP JUMP JUMPDEST PUSH0 DUP3 DUP3 SHL SWAP1 POP SWAP3 SWAP2 POP POP JUMP JUMPDEST PUSH0 PUSH1 0x8 DUP4 MUL PUSH2 0x4054 PUSH32 0xFFFFFFFFFFFFFFFFFFFFFFFFFFFFFFFFFFFFFFFFFFFFFFFFFFFFFFFFFFFFFFFF DUP3 PUSH2 0x4019 JUMP JUMPDEST PUSH2 0x405E DUP7 DUP4 PUSH2 0x4019 JUMP JUMPDEST SWAP6 POP DUP1 NOT DUP5 AND SWAP4 POP DUP1 DUP7 AND DUP5 OR SWAP3 POP POP POP SWAP4 SWAP3 POP POP POP JUMP JUMPDEST PUSH0 DUP2 SWAP1 POP SWAP2 SWAP1 POP JUMP JUMPDEST PUSH0 PUSH2 0x4099 PUSH2 0x4094 PUSH2 0x408F DUP5 PUSH2 0x3117 JUMP JUMPDEST PUSH2 0x4076 JUMP JUMPDEST PUSH2 0x3117 JUMP JUMPDEST SWAP1 POP SWAP2 SWAP1 POP JUMP JUMPDEST PUSH0 DUP2 SWAP1 POP SWAP2 SWAP1 POP JUMP JUMPDEST PUSH2 0x40B2 DUP4 PUSH2 0x407F JUMP JUMPDEST PUSH2 0x40C6 PUSH2 0x40BE DUP3 PUSH2 0x40A0 JUMP JUMPDEST DUP5 DUP5 SLOAD PUSH2 0x4025 JUMP JUMPDEST DUP3 SSTORE POP POP POP POP JUMP JUMPDEST PUSH0 SWAP1 JUMP JUMPDEST PUSH2 0x40DA PUSH2 0x40CE JUMP JUMPDEST PUSH2 0x40E5 DUP2 DUP5 DUP5 PUSH2 0x40A9 JUMP JUMPDEST POP POP POP JUMP JUMPDEST JUMPDEST DUP2 DUP2 LT ISZERO PUSH2 0x4108 JUMPI PUSH2 0x40FD PUSH0 DUP3 PUSH2 0x40D2 JUMP JUMPDEST PUSH1 0x1 DUP2 ADD SWAP1 POP PUSH2 0x40EB JUMP JUMPDEST POP POP JUMP JUMPDEST PUSH1 0x1F DUP3 GT ISZERO PUSH2 0x414D JUMPI PUSH2 0x411E DUP2 PUSH2 0x3FF8 JUMP JUMPDEST PUSH2 0x4127 DUP5 PUSH2 0x400A JUMP JUMPDEST DUP2 ADD PUSH1 0x20 DUP6 LT ISZERO PUSH2 0x4136 JUMPI DUP2 SWAP1 POP JUMPDEST PUSH2 0x414A PUSH2 0x4142 DUP6 PUSH2 0x400A JUMP JUMPDEST DUP4 ADD DUP3 PUSH2 0x40EA JUMP JUMPDEST POP POP JUMPDEST POP POP POP JUMP JUMPDEST PUSH0 DUP3 DUP3 SHR SWAP1 POP SWAP3 SWAP2 POP POP JUMP JUMPDEST PUSH0 PUSH2 0x416D PUSH0 NOT DUP5 PUSH1 0x8 MUL PUSH2 0x4152 JUMP JUMPDEST NOT DUP1 DUP4 AND SWAP2 POP POP SWAP3 SWAP2 POP POP JUMP JUMPDEST PUSH0 PUSH2 0x4185 DUP4 DUP4 PUSH2 0x415E JUMP JUMPDEST SWAP2 POP DUP3 PUSH1 0x2 MUL DUP3 OR SWAP1 POP SWAP3 SWAP2 POP POP JUMP JUMPDEST PUSH2 0x419E DUP3 PUSH2 0x336C JUMP JUMPDEST PUSH8 0xFFFFFFFFFFFFFFFF DUP2 GT ISZERO PUSH2 0x41B7 JUMPI PUSH2 0x41B6 PUSH2 0x31A0 JUMP JUMPDEST JUMPDEST PUSH2 0x41C1 DUP3 SLOAD PUSH2 0x3EEC JUMP JUMPDEST PUSH2 0x41CC DUP3 DUP3 DUP6 PUSH2 0x410C JUMP JUMPDEST PUSH0 PUSH1 0x20 SWAP1 POP PUSH1 0x1F DUP4 GT PUSH1 0x1 DUP2 EQ PUSH2 0x41FD JUMPI PUSH0 DUP5 ISZERO PUSH2 0x41EB JUMPI DUP3 DUP8 ADD MLOAD SWAP1 POP JUMPDEST PUSH2 0x41F5 DUP6 DUP3 PUSH2 0x417A JUMP JUMPDEST DUP7 SSTORE POP PUSH2 0x425C JUMP JUMPDEST PUSH1 0x1F NOT DUP5 AND PUSH2 0x420B DUP7 PUSH2 0x3FF8 JUMP JUMPDEST PUSH0 JUMPDEST DUP3 DUP2 LT ISZERO PUSH2 0x4232 JUMPI DUP5 DUP10 ADD MLOAD DUP3 SSTORE PUSH1 0x1 DUP3 ADD SWAP2 POP PUSH1 0x20 DUP6 ADD SWAP5 POP PUSH1 0x20 DUP2 ADD SWAP1 POP PUSH2 0x420D JUMP JUMPDEST DUP7 DUP4 LT ISZERO PUSH2 0x424F JUMPI DUP5 DUP10 ADD MLOAD PUSH2 0x424B PUSH1 0x1F DUP10 AND DUP3 PUSH2 0x415E JUMP JUMPDEST DUP4 SSTORE POP JUMPDEST PUSH1 0x1 PUSH1 0x2 DUP9 MUL ADD DUP9 SSTORE POP POP POP JUMPDEST POP POP POP POP POP POP JUMP JUMPDEST PUSH0 PUSH1 0x60 DUP3 ADD SWAP1 POP PUSH2 0x4277 PUSH0 DUP4 ADD DUP7 PUSH2 0x331E JUMP JUMPDEST PUSH2 0x4284 PUSH1 0x20 DUP4 ADD DUP6 PUSH2 0x331E JUMP JUMPDEST DUP2 DUP2 SUB PUSH1 0x40 DUP4 ADD MSTORE PUSH2 0x4296 DUP2 DUP5 PUSH2 0x3394 JUMP JUMPDEST SWAP1 POP SWAP5 SWAP4 POP POP POP POP JUMP JUMPDEST PUSH32 0x566F74696E6720706572696F642068617320656E646564000000000000000000 PUSH0 DUP3 ADD MSTORE POP JUMP JUMPDEST PUSH0 PUSH2 0x42D4 PUSH1 0x17 DUP4 PUSH2 0x3376 JUMP JUMPDEST SWAP2 POP PUSH2 0x42DF DUP3 PUSH2 0x42A0 JUMP JUMPDEST PUSH1 0x20 DUP3 ADD SWAP1 POP SWAP2 SWAP1 POP JUMP JUMPDEST PUSH0 PUSH1 0x20 DUP3 ADD SWAP1 POP DUP2 DUP2 SUB PUSH0 DUP4 ADD MSTORE PUSH2 0x4301 DUP2 PUSH2 0x42C8 JUMP JUMPDEST SWAP1 POP SWAP2 SWAP1 POP JUMP JUMPDEST PUSH0 PUSH2 0x4312 DUP3 PUSH2 0x3117 JUMP JUMPDEST SWAP2 POP PUSH2 0x431D DUP4 PUSH2 0x3117 JUMP JUMPDEST SWAP3 POP DUP3 DUP3 ADD SWAP1 POP DUP1 DUP3 GT ISZERO PUSH2 0x4335 JUMPI PUSH2 0x4334 PUSH2 0x3F84 JUMP JUMPDEST JUMPDEST SWAP3 SWAP2 POP POP JUMP JUMPDEST PUSH32 0x4E6F2066756E647320746F207769746864726177000000000000000000000000 PUSH0 DUP3 ADD MSTORE POP JUMP JUMPDEST PUSH0 PUSH2 0x436F PUSH1 0x14 DUP4 PUSH2 0x3376 JUMP JUMPDEST SWAP2 POP PUSH2 0x437A DUP3 PUSH2 0x433B JUMP JUMPDEST PUSH1 0x20 DUP3 ADD SWAP1 POP SWAP2 SWAP1 POP JUMP JUMPDEST PUSH0 PUSH1 0x20 DUP3 ADD SWAP1 POP DUP2 DUP2 SUB PUSH0 DUP4 ADD MSTORE PUSH2 0x439C DUP2 PUSH2 0x4363 JUMP JUMPDEST SWAP1 POP SWAP2 SWAP1 POP JUMP JUMPDEST PUSH32 0x416E7377657220646F6573206E6F742065786973740000000000000000000000 PUSH0 DUP3 ADD MSTORE POP JUMP JUMPDEST PUSH0 PUSH2 0x43D7 PUSH1 0x15 DUP4 PUSH2 0x3376 JUMP JUMPDEST SWAP2 POP PUSH2 0x43E2 DUP3 PUSH2 0x43A3 JUMP JUMPDEST PUSH1 0x20 DUP3 ADD SWAP1 POP SWAP2 SWAP1 POP JUMP JUMPDEST PUSH0 PUSH1 0x20 DUP3 ADD SWAP1 POP DUP2 DUP2 SUB PUSH0 DUP4 ADD MSTORE PUSH2 0x4404 DUP2 PUSH2 0x43CB JUMP JUMPDEST SWAP1 POP SWAP2 SWAP1 POP JUMP JUMPDEST PUSH0 DUP2 SWAP1 POP SWAP3 SWAP2 POP POP JUMP JUMPDEST PUSH0 DUP2 SWAP1 POP DUP2 PUSH0 MSTORE PUSH1 0x20 PUSH0 KECCAK256 SWAP1 POP SWAP2 SWAP1 POP JUMP JUMPDEST PUSH0 DUP2 SLOAD PUSH2 0x4433 DUP2 PUSH2 0x3EEC JUMP JUMPDEST PUSH2 0x443D DUP2 DUP7 PUSH2 0x440B JUMP JUMPDEST SWAP5 POP PUSH1 0x1 DUP3 AND PUSH0 DUP2 EQ PUSH2 0x4457 JUMPI PUSH1 0x1 DUP2 EQ PUSH2 0x446C JUMPI PUSH2 0x449E JUMP JUMPDEST PUSH1 0xFF NOT DUP4 AND DUP7 MSTORE DUP2 ISZERO ISZERO DUP3 MUL DUP7 ADD SWAP4 POP PUSH2 0x449E JUMP JUMPDEST PUSH2 0x4475 DUP6 PUSH2 0x4415 JUMP JUMPDEST PUSH0 JUMPDEST DUP4 DUP2 LT ISZERO PUSH2 0x4496 JUMPI DUP2 SLOAD DUP2 DUP10 ADD MSTORE PUSH1 0x1 DUP3 ADD SWAP2 POP PUSH1 0x20 DUP2 ADD SWAP1 POP PUSH2 0x4477 JUMP JUMPDEST DUP4 DUP9 ADD SWAP6 POP POP POP JUMPDEST POP POP POP SWAP3 SWAP2 POP POP JUMP JUMPDEST PUSH0 PUSH2 0x44B2 DUP3 DUP5 PUSH2 0x4427 JUMP JUMPDEST SWAP2 POP DUP2 SWAP1 POP SWAP3 SWAP2 POP POP JUMP JUMPDEST PUSH32 0x4E487B7100000000000000000000000000000000000000000000000000000000 PUSH0 MSTORE PUSH1 0x32 PUSH1 0x4 MSTORE PUSH1 0x24 PUSH0 REVERT JUMPDEST PUSH32 0x526577617264206D7573742062652067726561746572207468616E207A65726F PUSH0 DUP3 ADD MSTORE POP JUMP JUMPDEST PUSH0 PUSH2 0x451E PUSH1 0x20 DUP4 PUSH2 0x3376 JUMP JUMPDEST SWAP2 POP PUSH2 0x4529 DUP3 PUSH2 0x44EA JUMP JUMPDEST PUSH1 0x20 DUP3 ADD SWAP1 POP SWAP2 SWAP1 POP JUMP JUMPDEST PUSH0 PUSH1 0x20 DUP3 ADD SWAP1 POP DUP2 DUP2 SUB PUSH0 DUP4 ADD MSTORE PUSH2 0x454B DUP2 PUSH2 0x4512 JUMP JUMPDEST SWAP1 POP SWAP2 SWAP1 POP JUMP JUMPDEST PUSH32 0x43617465676F72792063616E6E6F7420626520656D7074790000000000000000 PUSH0 DUP3 ADD MSTORE POP JUMP JUMPDEST PUSH0 PUSH2 0x4586 PUSH1 0x18 DUP4 PUSH2 0x3376 JUMP JUMPDEST SWAP2 POP PUSH2 0x4591 DUP3 PUSH2 0x4552 JUMP JUMPDEST PUSH1 0x20 DUP3 ADD SWAP1 POP SWAP2 SWAP1 POP JUMP JUMPDEST PUSH0 PUSH1 0x20 DUP3 ADD SWAP1 POP DUP2 DUP2 SUB PUSH0 DUP4 ADD MSTORE PUSH2 0x45B3 DUP2 PUSH2 0x457A JUMP JUMPDEST SWAP1 POP SWAP2 SWAP1 POP JUMP JUMPDEST PUSH32 0x4E487B7100000000000000000000000000000000000000000000000000000000 PUSH0 MSTORE PUSH1 0x21 PUSH1 0x4 MSTORE PUSH1 0x24 PUSH0 REVERT JUMPDEST PUSH0 PUSH1 0x80 DUP3 ADD SWAP1 POP PUSH2 0x45FA PUSH0 DUP4 ADD DUP8 PUSH2 0x331E JUMP JUMPDEST DUP2 DUP2 SUB PUSH1 0x20 DUP4 ADD MSTORE PUSH2 0x460C DUP2 DUP7 PUSH2 0x3394 JUMP JUMPDEST SWAP1 POP PUSH2 0x461B PUSH1 0x40 DUP4 ADD DUP6 PUSH2 0x331E JUMP JUMPDEST DUP2 DUP2 SUB PUSH1 0x60 DUP4 ADD MSTORE PUSH2 0x462D DUP2 DUP5 PUSH2 0x3394 JUMP JUMPDEST SWAP1 POP SWAP6 SWAP5 POP POP POP POP POP JUMP JUMPDEST PUSH32 0x43616E6E6F742064697374726962757465206265666F726520646561646C696E PUSH0 DUP3 ADD MSTORE PUSH32 0x6500000000000000000000000000000000000000000000000000000000000000 PUSH1 0x20 DUP3 ADD MSTORE POP JUMP JUMPDEST PUSH0 PUSH2 0x4692 PUSH1 0x21 DUP4 PUSH2 0x3376 JUMP JUMPDEST SWAP2 POP PUSH2 0x469D DUP3 PUSH2 0x4638 JUMP JUMPDEST PUSH1 0x40 DUP3 ADD SWAP1 POP SWAP2 SWAP1 POP JUMP JUMPDEST PUSH0 PUSH1 0x20 DUP3 ADD SWAP1 POP DUP2 DUP2 SUB PUSH0 DUP4 ADD MSTORE PUSH2 0x46BF DUP2 PUSH2 0x4686 JUMP JUMPDEST SWAP1 POP SWAP2 SWAP1 POP JUMP JUMPDEST PUSH0 PUSH2 0x46D0 DUP3 PUSH2 0x3117 JUMP JUMPDEST SWAP2 POP PUSH2 0x46DB DUP4 PUSH2 0x3117 JUMP JUMPDEST SWAP3 POP DUP3 DUP3 MUL PUSH2 0x46E9 DUP2 PUSH2 0x3117 JUMP JUMPDEST SWAP2 POP DUP3 DUP3 DIV DUP5 EQ DUP4 ISZERO OR PUSH2 0x4700 JUMPI PUSH2 0x46FF PUSH2 0x3F84 JUMP JUMPDEST JUMPDEST POP SWAP3 SWAP2 POP POP JUMP JUMPDEST PUSH32 0x4E487B7100000000000000000000000000000000000000000000000000000000 PUSH0 MSTORE PUSH1 0x12 PUSH1 0x4 MSTORE PUSH1 0x24 PUSH0 REVERT JUMPDEST PUSH0 PUSH2 0x473E DUP3 PUSH2 0x3117 JUMP JUMPDEST SWAP2 POP PUSH2 0x4749 DUP4 PUSH2 0x3117 JUMP JUMPDEST SWAP3 POP DUP3 PUSH2 0x4759 JUMPI PUSH2 0x4758 PUSH2 0x4707 JUMP JUMPDEST JUMPDEST DUP3 DUP3 DIV SWAP1 POP SWAP3 SWAP2 POP POP JUMP JUMPDEST PUSH32 0x4F6E6C79207175657374696F6E2061736B65722063616E2073656C6563742074 PUSH0 DUP3 ADD MSTORE PUSH32 0x6865206265737420616E73776572000000000000000000000000000000000000 PUSH1 0x20 DUP3 ADD MSTORE POP JUMP JUMPDEST PUSH0 PUSH2 0x47BE PUSH1 0x2E DUP4 PUSH2 0x3376 JUMP JUMPDEST SWAP2 POP PUSH2 0x47C9 DUP3 PUSH2 0x4764 JUMP JUMPDEST PUSH1 0x40 DUP3 ADD SWAP1 POP SWAP2 SWAP1 POP JUMP JUMPDEST PUSH0 PUSH1 0x20 DUP3 ADD SWAP1 POP DUP2 DUP2 SUB PUSH0 DUP4 ADD MSTORE PUSH2 0x47EB DUP2 PUSH2 0x47B2 JUMP JUMPDEST SWAP1 POP SWAP2 SWAP1 POP JUMP JUMPDEST PUSH32 0x5061676520696E646578206D7573742073746172742066726F6D203100000000 PUSH0 DUP3 ADD MSTORE POP JUMP JUMPDEST PUSH0 PUSH2 0x4826 PUSH1 0x1C DUP4 PUSH2 0x3376 JUMP JUMPDEST SWAP2 POP PUSH2 0x4831 DUP3 PUSH2 0x47F2 JUMP JUMPDEST PUSH1 0x20 DUP3 ADD SWAP1 POP SWAP2 SWAP1 POP JUMP JUMPDEST PUSH0 PUSH1 0x20 DUP3 ADD SWAP1 POP DUP2 DUP2 SUB PUSH0 DUP4 ADD MSTORE PUSH2 0x4853 DUP2 PUSH2 0x481A JUMP JUMPDEST SWAP1 POP SWAP2 SWAP1 POP JUMP JUMPDEST PUSH32 0x506167652073697A65206D7573742062652067726561746572207468616E2030 PUSH0 DUP3 ADD MSTORE POP JUMP JUMPDEST PUSH0 PUSH2 0x488E PUSH1 0x20 DUP4 PUSH2 0x3376 JUMP JUMPDEST SWAP2 POP PUSH2 0x4899 DUP3 PUSH2 0x485A JUMP JUMPDEST PUSH1 0x20 DUP3 ADD SWAP1 POP SWAP2 SWAP1 POP JUMP JUMPDEST PUSH0 PUSH1 0x20 DUP3 ADD SWAP1 POP DUP2 DUP2 SUB PUSH0 DUP4 ADD MSTORE PUSH2 0x48BB DUP2 PUSH2 0x4882 JUMP JUMPDEST SWAP1 POP SWAP2 SWAP1 POP JUMP JUMPDEST PUSH0 PUSH2 0x48CC DUP3 PUSH2 0x3117 JUMP JUMPDEST SWAP2 POP PUSH2 0x48D7 DUP4 PUSH2 0x3117 JUMP JUMPDEST SWAP3 POP DUP3 DUP3 SUB SWAP1 POP DUP2 DUP2 GT ISZERO PUSH2 0x48EF JUMPI PUSH2 0x48EE PUSH2 0x3F84 JUMP JUMPDEST JUMPDEST SWAP3 SWAP2 POP POP JUMP JUMPDEST PUSH32 0x496E76616C6964207061676520696E6465780000000000000000000000000000 PUSH0 DUP3 ADD MSTORE POP JUMP JUMPDEST PUSH0 PUSH2 0x4929 PUSH1 0x12 DUP4 PUSH2 0x3376 JUMP JUMPDEST SWAP2 POP PUSH2 0x4934 DUP3 PUSH2 0x48F5 JUMP JUMPDEST PUSH1 0x20 DUP3 ADD SWAP1 POP SWAP2 SWAP1 POP JUMP JUMPDEST PUSH0 PUSH1 0x20 DUP3 ADD SWAP1 POP DUP2 DUP2 SUB PUSH0 DUP4 ADD MSTORE PUSH2 0x4956 DUP2 PUSH2 0x491D JUMP JUMPDEST SWAP1 POP SWAP2 SWAP1 POP JUMP INVALID LOG2 PUSH5 0x6970667358 0x22 SLT KECCAK256 0xDC PUSH16 0xDCA0255A56ACC0692AEA31F8F3423FF4 PUSH21 0xDB0C0ADBC06E615E09559F9E8364736F6C63430008 BYTE STOP CALLER "
				},
				"gasEstimates": {
					"creation": {
						"codeDepositCost": "3767000",
						"executionCost": "94859",
						"totalCost": "3861859"
					},
					"external": {
						"MONTH()": "347",
						"TWO_WEEKS()": "414",
						"WEEK()": "435",
						"answerIdCounter()": "2558",
						"answers(uint256,uint256)": "infinite",
						"askQuestion(string,string,string,uint8)": "infinite",
						"balance()": "445",
						"balances(address)": "2914",
						"closeQuestion(uint256,uint256)": "infinite",
						"distributeRewards(uint256)": "infinite",
						"getAnswerById(uint256,uint256)": "infinite",
						"getAnswersByQuestionId(uint256,uint256,uint256)": "infinite",
						"getQuestionById(uint256)": "infinite",
						"getQuestions(uint256,uint256)": "infinite",
						"getQuestionsByCategory(string)": "infinite",
						"owner()": "2550",
						"questionIdCounter()": "2448",
						"questions(uint256)": "infinite",
						"selectBestAnswer(uint256,uint256)": "infinite",
						"submitAnswer(uint256,string)": "infinite",
						"voteFee()": "2469",
						"voteForAnswer(uint256,uint256)": "infinite",
						"withdraw()": "infinite"
					}
				},
				"methodIdentifiers": {
					"MONTH()": "d5999a5c",
					"TWO_WEEKS()": "934d1fa4",
					"WEEK()": "f4359ce5",
					"answerIdCounter()": "cba13030",
					"answers(uint256,uint256)": "2401519c",
					"askQuestion(string,string,string,uint8)": "572491c3",
					"balance()": "b69ef8a8",
					"balances(address)": "27e235e3",
					"closeQuestion(uint256,uint256)": "01b49d47",
					"distributeRewards(uint256)": "59974e38",
					"getAnswerById(uint256,uint256)": "4a8f164f",
					"getAnswersByQuestionId(uint256,uint256,uint256)": "ee1589a5",
					"getQuestionById(uint256)": "e25f3e02",
					"getQuestions(uint256,uint256)": "fd1df035",
					"getQuestionsByCategory(string)": "55ce8034",
					"owner()": "8da5cb5b",
					"questionIdCounter()": "61e78617",
					"questions(uint256)": "31b1b978",
					"selectBestAnswer(uint256,uint256)": "90a3f588",
					"submitAnswer(uint256,string)": "01fa3bec",
					"voteFee()": "da2b4c1e",
					"voteForAnswer(uint256,uint256)": "2690567e",
					"withdraw()": "3ccfd60b"
				}
			},
			"storageLayout": {
				"storage": [
					{
						"astId": 3,
						"contract": "contracts/InquireA.sol:InquireA",
						"label": "owner",
						"offset": 0,
						"slot": "0",
						"type": "t_address"
					},
					{
						"astId": 6,
						"contract": "contracts/InquireA.sol:InquireA",
						"label": "voteFee",
						"offset": 0,
						"slot": "1",
						"type": "t_uint256"
					},
					{
						"astId": 8,
						"contract": "contracts/InquireA.sol:InquireA",
						"label": "questionIdCounter",
						"offset": 0,
						"slot": "2",
						"type": "t_uint256"
					},
					{
						"astId": 10,
						"contract": "contracts/InquireA.sol:InquireA",
						"label": "answerIdCounter",
						"offset": 0,
						"slot": "3",
						"type": "t_uint256"
					},
					{
						"astId": 62,
						"contract": "contracts/InquireA.sol:InquireA",
						"label": "questions",
						"offset": 0,
						"slot": "4",
						"type": "t_mapping(t_uint256,t_struct(Question)44_storage)"
					},
					{
						"astId": 69,
						"contract": "contracts/InquireA.sol:InquireA",
						"label": "answers",
						"offset": 0,
						"slot": "5",
						"type": "t_mapping(t_uint256,t_mapping(t_uint256,t_struct(Answer)57_storage))"
					},
					{
						"astId": 73,
						"contract": "contracts/InquireA.sol:InquireA",
						"label": "balances",
						"offset": 0,
						"slot": "6",
						"type": "t_mapping(t_address,t_uint256)"
					}
				],
				"types": {
					"t_address": {
						"encoding": "inplace",
						"label": "address",
						"numberOfBytes": "20"
					},
					"t_bool": {
						"encoding": "inplace",
						"label": "bool",
						"numberOfBytes": "1"
					},
					"t_mapping(t_address,t_uint256)": {
						"encoding": "mapping",
						"key": "t_address",
						"label": "mapping(address => uint256)",
						"numberOfBytes": "32",
						"value": "t_uint256"
					},
					"t_mapping(t_uint256,t_mapping(t_uint256,t_struct(Answer)57_storage))": {
						"encoding": "mapping",
						"key": "t_uint256",
						"label": "mapping(uint256 => mapping(uint256 => struct InquireA.Answer))",
						"numberOfBytes": "32",
						"value": "t_mapping(t_uint256,t_struct(Answer)57_storage)"
					},
					"t_mapping(t_uint256,t_struct(Answer)57_storage)": {
						"encoding": "mapping",
						"key": "t_uint256",
						"label": "mapping(uint256 => struct InquireA.Answer)",
						"numberOfBytes": "32",
						"value": "t_struct(Answer)57_storage"
					},
					"t_mapping(t_uint256,t_struct(Question)44_storage)": {
						"encoding": "mapping",
						"key": "t_uint256",
						"label": "mapping(uint256 => struct InquireA.Question)",
						"numberOfBytes": "32",
						"value": "t_struct(Question)44_storage"
					},
					"t_string_storage": {
						"encoding": "bytes",
						"label": "string",
						"numberOfBytes": "32"
					},
					"t_struct(Answer)57_storage": {
						"encoding": "inplace",
						"label": "struct InquireA.Answer",
						"members": [
							{
								"astId": 46,
								"contract": "contracts/InquireA.sol:InquireA",
								"label": "id",
								"offset": 0,
								"slot": "0",
								"type": "t_uint256"
							},
							{
								"astId": 48,
								"contract": "contracts/InquireA.sol:InquireA",
								"label": "responder",
								"offset": 0,
								"slot": "1",
								"type": "t_address"
							},
							{
								"astId": 50,
								"contract": "contracts/InquireA.sol:InquireA",
								"label": "answerText",
								"offset": 0,
								"slot": "2",
								"type": "t_string_storage"
							},
							{
								"astId": 52,
								"contract": "contracts/InquireA.sol:InquireA",
								"label": "upvotes",
								"offset": 0,
								"slot": "3",
								"type": "t_uint256"
							},
							{
								"astId": 54,
								"contract": "contracts/InquireA.sol:InquireA",
								"label": "rewardAmount",
								"offset": 0,
								"slot": "4",
								"type": "t_uint256"
							},
							{
								"astId": 56,
								"contract": "contracts/InquireA.sol:InquireA",
								"label": "createdAt",
								"offset": 0,
								"slot": "5",
								"type": "t_uint256"
							}
						],
						"numberOfBytes": "192"
					},
					"t_struct(Question)44_storage": {
						"encoding": "inplace",
						"label": "struct InquireA.Question",
						"members": [
							{
								"astId": 25,
								"contract": "contracts/InquireA.sol:InquireA",
								"label": "id",
								"offset": 0,
								"slot": "0",
								"type": "t_uint256"
							},
							{
								"astId": 27,
								"contract": "contracts/InquireA.sol:InquireA",
								"label": "asker",
								"offset": 0,
								"slot": "1",
								"type": "t_address"
							},
							{
								"astId": 29,
								"contract": "contracts/InquireA.sol:InquireA",
								"label": "questionText",
								"offset": 0,
								"slot": "2",
								"type": "t_string_storage"
							},
							{
								"astId": 31,
								"contract": "contracts/InquireA.sol:InquireA",
								"label": "questionContent",
								"offset": 0,
								"slot": "3",
								"type": "t_string_storage"
							},
							{
								"astId": 33,
								"contract": "contracts/InquireA.sol:InquireA",
								"label": "category",
								"offset": 0,
								"slot": "4",
								"type": "t_string_storage"
							},
							{
								"astId": 35,
								"contract": "contracts/InquireA.sol:InquireA",
								"label": "rewardAmount",
								"offset": 0,
								"slot": "5",
								"type": "t_uint256"
							},
							{
								"astId": 37,
								"contract": "contracts/InquireA.sol:InquireA",
								"label": "createdAt",
								"offset": 0,
								"slot": "6",
								"type": "t_uint256"
							},
							{
								"astId": 39,
								"contract": "contracts/InquireA.sol:InquireA",
								"label": "deadline",
								"offset": 0,
								"slot": "7",
								"type": "t_uint256"
							},
							{
								"astId": 41,
								"contract": "contracts/InquireA.sol:InquireA",
								"label": "isClosed",
								"offset": 0,
								"slot": "8",
								"type": "t_bool"
							},
							{
								"astId": 43,
								"contract": "contracts/InquireA.sol:InquireA",
								"label": "chosenAnswerId",
								"offset": 0,
								"slot": "9",
								"type": "t_uint256"
							}
						],
						"numberOfBytes": "320"
					},
					"t_uint256": {
						"encoding": "inplace",
						"label": "uint256",
						"numberOfBytes": "32"
					}
				}
			},
			"userdoc": {
				"kind": "user",
				"methods": {},
				"version": 1
			}
		}
	}
}