{
	"contracts/InquireA.sol": {
		"InquireA": {
			"abi": [
				{
					"inputs": [],
					"stateMutability": "nonpayable",
					"type": "constructor"
				},
				{
					"anonymous": false,
					"inputs": [
						{
							"indexed": false,
							"internalType": "uint256",
							"name": "questionId",
							"type": "uint256"
						},
						{
							"indexed": false,
							"internalType": "uint256",
							"name": "answerId",
							"type": "uint256"
						},
						{
							"indexed": true,
							"internalType": "address",
							"name": "responder",
							"type": "address"
						},
						{
							"indexed": false,
							"internalType": "string",
							"name": "answerText",
							"type": "string"
						}
					],
					"name": "AnswerSubmitted",
					"type": "event"
				},
				{
					"anonymous": false,
					"inputs": [
						{
							"indexed": false,
							"internalType": "uint256",
							"name": "questionId",
							"type": "uint256"
						},
						{
							"indexed": true,
							"internalType": "address",
							"name": "asker",
							"type": "address"
						},
						{
							"indexed": false,
							"internalType": "string",
							"name": "questionText",
							"type": "string"
						},
						{
							"indexed": false,
							"internalType": "uint256",
							"name": "rewardAmount",
							"type": "uint256"
						},
						{
							"indexed": false,
							"internalType": "string",
							"name": "category",
							"type": "string"
						}
					],
					"name": "QuestionAsked",
					"type": "event"
				},
				{
					"anonymous": false,
					"inputs": [
						{
							"indexed": false,
							"internalType": "uint256",
							"name": "questionId",
							"type": "uint256"
						},
						{
							"indexed": false,
							"internalType": "uint256",
							"name": "chosenAnswerId",
							"type": "uint256"
						}
					],
					"name": "QuestionClosed",
					"type": "event"
				},
				{
					"anonymous": false,
					"inputs": [
						{
							"indexed": false,
							"internalType": "uint256",
							"name": "questionId",
							"type": "uint256"
						},
						{
							"indexed": false,
							"internalType": "uint256",
							"name": "answerId",
							"type": "uint256"
						},
						{
							"indexed": true,
							"internalType": "address",
							"name": "voter",
							"type": "address"
						}
					],
					"name": "Voted",
					"type": "event"
				},
				{
					"inputs": [],
					"name": "MONTH",
					"outputs": [
						{
							"internalType": "uint256",
							"name": "",
							"type": "uint256"
						}
					],
					"stateMutability": "view",
					"type": "function"
				},
				{
					"inputs": [],
					"name": "TWO_WEEKS",
					"outputs": [
						{
							"internalType": "uint256",
							"name": "",
							"type": "uint256"
						}
					],
					"stateMutability": "view",
					"type": "function"
				},
				{
					"inputs": [],
					"name": "WEEK",
					"outputs": [
						{
							"internalType": "uint256",
							"name": "",
							"type": "uint256"
						}
					],
					"stateMutability": "view",
					"type": "function"
				},
				{
					"inputs": [],
					"name": "answerIdCounter",
					"outputs": [
						{
							"internalType": "uint256",
							"name": "",
							"type": "uint256"
						}
					],
					"stateMutability": "view",
					"type": "function"
				},
				{
					"inputs": [
						{
							"internalType": "uint256",
							"name": "",
							"type": "uint256"
						},
						{
							"internalType": "uint256",
							"name": "",
							"type": "uint256"
						}
					],
					"name": "answers",
					"outputs": [
						{
							"internalType": "uint256",
							"name": "id",
							"type": "uint256"
						},
						{
							"internalType": "address",
							"name": "responder",
							"type": "address"
						},
						{
							"internalType": "string",
							"name": "answerText",
							"type": "string"
						},
						{
							"internalType": "uint256",
							"name": "upvotes",
							"type": "uint256"
						},
						{
							"internalType": "uint256",
							"name": "rewardAmount",
							"type": "uint256"
						},
						{
							"internalType": "uint256",
							"name": "createdAt",
							"type": "uint256"
						}
					],
					"stateMutability": "view",
					"type": "function"
				},
				{
					"inputs": [
						{
							"internalType": "string",
							"name": "_questionText",
							"type": "string"
						},
						{
							"internalType": "string",
							"name": "_questionContent",
							"type": "string"
						},
						{
							"internalType": "string",
							"name": "_category",
							"type": "string"
						},
						{
							"internalType": "enum InquireA.DeadlinePeriod",
							"name": "_deadlinePeriod",
							"type": "uint8"
						}
					],
					"name": "askQuestion",
					"outputs": [],
					"stateMutability": "payable",
					"type": "function"
				},
				{
					"inputs": [],
					"name": "balance",
					"outputs": [
						{
							"internalType": "uint256",
							"name": "",
							"type": "uint256"
						}
					],
					"stateMutability": "view",
					"type": "function"
				},
				{
					"inputs": [
						{
							"internalType": "address",
							"name": "",
							"type": "address"
						}
					],
					"name": "balances",
					"outputs": [
						{
							"internalType": "uint256",
							"name": "",
							"type": "uint256"
						}
					],
					"stateMutability": "view",
					"type": "function"
				},
				{
					"inputs": [
						{
							"internalType": "uint256",
							"name": "questionId",
							"type": "uint256"
						},
						{
							"internalType": "uint256",
							"name": "answerId",
							"type": "uint256"
						}
					],
					"name": "closeQuestion",
					"outputs": [],
					"stateMutability": "nonpayable",
					"type": "function"
				},
				{
					"inputs": [
						{
							"internalType": "uint256",
							"name": "questionId",
							"type": "uint256"
						}
					],
					"name": "distributeRewards",
					"outputs": [],
					"stateMutability": "nonpayable",
					"type": "function"
				},
				{
					"inputs": [
						{
							"internalType": "uint256",
							"name": "questionId",
							"type": "uint256"
						},
						{
							"internalType": "uint256",
							"name": "answerId",
							"type": "uint256"
						}
					],
					"name": "getAnswerById",
					"outputs": [
						{
							"components": [
								{
									"internalType": "uint256",
									"name": "id",
									"type": "uint256"
								},
								{
									"internalType": "address",
									"name": "responder",
									"type": "address"
								},
								{
									"internalType": "string",
									"name": "answerText",
									"type": "string"
								},
								{
									"internalType": "uint256",
									"name": "upvotes",
									"type": "uint256"
								},
								{
									"internalType": "uint256",
									"name": "rewardAmount",
									"type": "uint256"
								},
								{
									"internalType": "uint256",
									"name": "createdAt",
									"type": "uint256"
								}
							],
							"internalType": "struct InquireA.Answer",
							"name": "",
							"type": "tuple"
						}
					],
					"stateMutability": "view",
					"type": "function"
				},
				{
					"inputs": [
						{
							"internalType": "uint256",
							"name": "questionId",
							"type": "uint256"
						}
					],
					"name": "getQuestionById",
					"outputs": [
						{
							"components": [
								{
									"internalType": "uint256",
									"name": "id",
									"type": "uint256"
								},
								{
									"internalType": "address",
									"name": "asker",
									"type": "address"
								},
								{
									"internalType": "string",
									"name": "questionText",
									"type": "string"
								},
								{
									"internalType": "string",
									"name": "questionContent",
									"type": "string"
								},
								{
									"internalType": "string",
									"name": "category",
									"type": "string"
								},
								{
									"internalType": "uint256",
									"name": "rewardAmount",
									"type": "uint256"
								},
								{
									"internalType": "uint256",
									"name": "createdAt",
									"type": "uint256"
								},
								{
									"internalType": "uint256",
									"name": "deadline",
									"type": "uint256"
								},
								{
									"internalType": "bool",
									"name": "isClosed",
									"type": "bool"
								},
								{
									"internalType": "uint256",
									"name": "chosenAnswerId",
									"type": "uint256"
								}
							],
							"internalType": "struct InquireA.Question",
							"name": "",
							"type": "tuple"
						}
					],
					"stateMutability": "view",
					"type": "function"
				},
				{
					"inputs": [
						{
							"internalType": "string",
							"name": "_category",
							"type": "string"
						}
					],
					"name": "getQuestionsByCategory",
					"outputs": [
						{
							"internalType": "uint256[]",
							"name": "",
							"type": "uint256[]"
						}
					],
					"stateMutability": "view",
					"type": "function"
				},
				{
					"inputs": [],
					"name": "owner",
					"outputs": [
						{
							"internalType": "address",
							"name": "",
							"type": "address"
						}
					],
					"stateMutability": "view",
					"type": "function"
				},
				{
					"inputs": [],
					"name": "questionIdCounter",
					"outputs": [
						{
							"internalType": "uint256",
							"name": "",
							"type": "uint256"
						}
					],
					"stateMutability": "view",
					"type": "function"
				},
				{
					"inputs": [
						{
							"internalType": "uint256",
							"name": "",
							"type": "uint256"
						}
					],
					"name": "questions",
					"outputs": [
						{
							"internalType": "uint256",
							"name": "id",
							"type": "uint256"
						},
						{
							"internalType": "address",
							"name": "asker",
							"type": "address"
						},
						{
							"internalType": "string",
							"name": "questionText",
							"type": "string"
						},
						{
							"internalType": "string",
							"name": "questionContent",
							"type": "string"
						},
						{
							"internalType": "string",
							"name": "category",
							"type": "string"
						},
						{
							"internalType": "uint256",
							"name": "rewardAmount",
							"type": "uint256"
						},
						{
							"internalType": "uint256",
							"name": "createdAt",
							"type": "uint256"
						},
						{
							"internalType": "uint256",
							"name": "deadline",
							"type": "uint256"
						},
						{
							"internalType": "bool",
							"name": "isClosed",
							"type": "bool"
						},
						{
							"internalType": "uint256",
							"name": "chosenAnswerId",
							"type": "uint256"
						}
					],
					"stateMutability": "view",
					"type": "function"
				},
				{
					"inputs": [
						{
							"internalType": "uint256",
							"name": "questionId",
							"type": "uint256"
						},
						{
							"internalType": "string",
							"name": "_answerText",
							"type": "string"
						}
					],
					"name": "submitAnswer",
					"outputs": [],
					"stateMutability": "nonpayable",
					"type": "function"
				},
				{
					"inputs": [],
					"name": "voteFee",
					"outputs": [
						{
							"internalType": "uint256",
							"name": "",
							"type": "uint256"
						}
					],
					"stateMutability": "view",
					"type": "function"
				},
				{
					"inputs": [
						{
							"internalType": "uint256",
							"name": "questionId",
							"type": "uint256"
						},
						{
							"internalType": "uint256",
							"name": "answerId",
							"type": "uint256"
						}
					],
					"name": "voteForAnswer",
					"outputs": [],
					"stateMutability": "payable",
					"type": "function"
				},
				{
					"inputs": [],
					"name": "withdraw",
					"outputs": [],
					"stateMutability": "nonpayable",
					"type": "function"
				}
			],
			"devdoc": {
				"kind": "dev",
				"methods": {},
				"version": 1
			},
			"evm": {
				"assembly": "    /* \"contracts/InquireA.sol\":60:8101  contract InquireA {... */\n  mstore(0x40, 0x80)\n    /* \"contracts/InquireA.sol\":137:147  0.01 ether */\n  0x2386f26fc10000\n    /* \"contracts/InquireA.sol\":112:147  uint256 public voteFee = 0.01 ether */\n  0x01\n  sstore\n    /* \"contracts/InquireA.sol\":1692:1859  constructor() {... */\n  callvalue\n  dup1\n  iszero\n  tag_1\n  jumpi\n  0x00\n  dup1\n  revert\ntag_1:\n  pop\n    /* \"contracts/InquireA.sol\":1725:1735  msg.sender */\n  caller\n    /* \"contracts/InquireA.sol\":1717:1722  owner */\n  0x00\n  dup1\n    /* \"contracts/InquireA.sol\":1717:1735  owner = msg.sender */\n  0x0100\n  exp\n  dup2\n  sload\n  dup2\n  0xffffffffffffffffffffffffffffffffffffffff\n  mul\n  not\n  and\n  swap1\n  dup4\n  0xffffffffffffffffffffffffffffffffffffffff\n  and\n  mul\n  or\n  swap1\n  sstore\n  pop\n    /* \"contracts/InquireA.sol\":1766:1767  1 */\n  0x01\n    /* \"contracts/InquireA.sol\":1746:1763  questionIdCounter */\n  0x02\n    /* \"contracts/InquireA.sol\":1746:1767  questionIdCounter = 1 */\n  dup2\n  swap1\n  sstore\n  pop\n    /* \"contracts/InquireA.sol\":1823:1824  1 */\n  0x01\n    /* \"contracts/InquireA.sol\":1805:1820  answerIdCounter */\n  0x03\n    /* \"contracts/InquireA.sol\":1805:1824  answerIdCounter = 1 */\n  dup2\n  swap1\n  sstore\n  pop\n    /* \"contracts/InquireA.sol\":60:8101  contract InquireA {... */\n  dataSize(sub_0)\n  dup1\n  dataOffset(sub_0)\n  0x00\n  codecopy\n  0x00\n  return\nstop\n\nsub_0: assembly {\n        /* \"contracts/InquireA.sol\":60:8101  contract InquireA {... */\n      mstore(0x40, 0x80)\n      jumpi(tag_1, lt(calldatasize, 0x04))\n      shr(0xe0, calldataload(0x00))\n      dup1\n      0x59974e38\n      gt\n      tag_22\n      jumpi\n      dup1\n      0xcba13030\n      gt\n      tag_23\n      jumpi\n      dup1\n      0xcba13030\n      eq\n      tag_17\n      jumpi\n      dup1\n      0xd5999a5c\n      eq\n      tag_18\n      jumpi\n      dup1\n      0xda2b4c1e\n      eq\n      tag_19\n      jumpi\n      dup1\n      0xe25f3e02\n      eq\n      tag_20\n      jumpi\n      dup1\n      0xf4359ce5\n      eq\n      tag_21\n      jumpi\n      jump(tag_1)\n    tag_23:\n      dup1\n      0x59974e38\n      eq\n      tag_12\n      jumpi\n      dup1\n      0x61e78617\n      eq\n      tag_13\n      jumpi\n      dup1\n      0x8da5cb5b\n      eq\n      tag_14\n      jumpi\n      dup1\n      0x934d1fa4\n      eq\n      tag_15\n      jumpi\n      dup1\n      0xb69ef8a8\n      eq\n      tag_16\n      jumpi\n      jump(tag_1)\n    tag_22:\n      dup1\n      0x31b1b978\n      gt\n      tag_24\n      jumpi\n      dup1\n      0x31b1b978\n      eq\n      tag_7\n      jumpi\n      dup1\n      0x3ccfd60b\n      eq\n      tag_8\n      jumpi\n      dup1\n      0x4a8f164f\n      eq\n      tag_9\n      jumpi\n      dup1\n      0x55ce8034\n      eq\n      tag_10\n      jumpi\n      dup1\n      0x572491c3\n      eq\n      tag_11\n      jumpi\n      jump(tag_1)\n    tag_24:\n      dup1\n      0x01b49d47\n      eq\n      tag_2\n      jumpi\n      dup1\n      0x01fa3bec\n      eq\n      tag_3\n      jumpi\n      dup1\n      0x2401519c\n      eq\n      tag_4\n      jumpi\n      dup1\n      0x2690567e\n      eq\n      tag_5\n      jumpi\n      dup1\n      0x27e235e3\n      eq\n      tag_6\n      jumpi\n    tag_1:\n      0x00\n      dup1\n      revert\n        /* \"contracts/InquireA.sol\":5548:5950  function closeQuestion(uint256 questionId, uint256 answerId) public questionExists(questionId) notClosed(questionId) {... */\n    tag_2:\n      callvalue\n      dup1\n      iszero\n      tag_25\n      jumpi\n      0x00\n      dup1\n      revert\n    tag_25:\n      pop\n      tag_26\n      0x04\n      dup1\n      calldatasize\n      sub\n      dup2\n      add\n      swap1\n      tag_27\n      swap2\n      swap1\n      tag_28\n      jump\t// in\n    tag_27:\n      tag_29\n      jump\t// in\n    tag_26:\n      stop\n        /* \"contracts/InquireA.sol\":3684:4352  function submitAnswer(uint256 questionId, string memory _answerText) public questionExists(questionId) notClosed(questionId) {... */\n    tag_3:\n      callvalue\n      dup1\n      iszero\n      tag_30\n      jumpi\n      0x00\n      dup1\n      revert\n    tag_30:\n      pop\n      tag_31\n      0x04\n      dup1\n      calldatasize\n      sub\n      dup2\n      add\n      swap1\n      tag_32\n      swap2\n      swap1\n      tag_33\n      jump\t// in\n    tag_32:\n      tag_34\n      jump\t// in\n    tag_31:\n      stop\n        /* \"contracts/InquireA.sol\":1124:1185  mapping(uint256 => mapping(uint256 => Answer)) public answers */\n    tag_4:\n      callvalue\n      dup1\n      iszero\n      tag_35\n      jumpi\n      0x00\n      dup1\n      revert\n    tag_35:\n      pop\n      tag_36\n      0x04\n      dup1\n      calldatasize\n      sub\n      dup2\n      add\n      swap1\n      tag_37\n      swap2\n      swap1\n      tag_28\n      jump\t// in\n    tag_37:\n      tag_38\n      jump\t// in\n    tag_36:\n      mload(0x40)\n      tag_39\n      swap7\n      swap6\n      swap5\n      swap4\n      swap3\n      swap2\n      swap1\n      tag_40\n      jump\t// in\n    tag_39:\n      mload(0x40)\n      dup1\n      swap2\n      sub\n      swap1\n      return\n        /* \"contracts/InquireA.sol\":4964:5514  function voteForAnswer(uint256 questionId, uint256 answerId) public payable questionExists(questionId) notClosed(questionId) {... */\n    tag_5:\n      tag_41\n      0x04\n      dup1\n      calldatasize\n      sub\n      dup2\n      add\n      swap1\n      tag_42\n      swap2\n      swap1\n      tag_28\n      jump\t// in\n    tag_42:\n      tag_43\n      jump\t// in\n    tag_41:\n      stop\n        /* \"contracts/InquireA.sol\":1192:1235  mapping(address => uint256) public balances */\n    tag_6:\n      callvalue\n      dup1\n      iszero\n      tag_44\n      jumpi\n      0x00\n      dup1\n      revert\n    tag_44:\n      pop\n      tag_45\n      0x04\n      dup1\n      calldatasize\n      sub\n      dup2\n      add\n      swap1\n      tag_46\n      swap2\n      swap1\n      tag_47\n      jump\t// in\n    tag_46:\n      tag_48\n      jump\t// in\n    tag_45:\n      mload(0x40)\n      tag_49\n      swap2\n      swap1\n      tag_50\n      jump\t// in\n    tag_49:\n      mload(0x40)\n      dup1\n      swap2\n      sub\n      swap1\n      return\n        /* \"contracts/InquireA.sol\":1072:1117  mapping(uint256 => Question) public questions */\n    tag_7:\n      callvalue\n      dup1\n      iszero\n      tag_51\n      jumpi\n      0x00\n      dup1\n      revert\n    tag_51:\n      pop\n      tag_52\n      0x04\n      dup1\n      calldatasize\n      sub\n      dup2\n      add\n      swap1\n      tag_53\n      swap2\n      swap1\n      tag_54\n      jump\t// in\n    tag_53:\n      tag_55\n      jump\t// in\n    tag_52:\n      mload(0x40)\n      tag_56\n      swap11\n      swap10\n      swap9\n      swap8\n      swap7\n      swap6\n      swap5\n      swap4\n      swap3\n      swap2\n      swap1\n      tag_57\n      jump\t// in\n    tag_56:\n      mload(0x40)\n      dup1\n      swap2\n      sub\n      swap1\n      return\n        /* \"contracts/InquireA.sol\":7043:7264  function withdraw() public {... */\n    tag_8:\n      callvalue\n      dup1\n      iszero\n      tag_58\n      jumpi\n      0x00\n      dup1\n      revert\n    tag_58:\n      pop\n      tag_59\n      tag_60\n      jump\t// in\n    tag_59:\n      stop\n        /* \"contracts/InquireA.sol\":4668:4918  function getAnswerById(uint256 questionId, uint256 answerId) public view returns (Answer memory) {... */\n    tag_9:\n      callvalue\n      dup1\n      iszero\n      tag_61\n      jumpi\n      0x00\n      dup1\n      revert\n    tag_61:\n      pop\n      tag_62\n      0x04\n      dup1\n      calldatasize\n      sub\n      dup2\n      add\n      swap1\n      tag_63\n      swap2\n      swap1\n      tag_28\n      jump\t// in\n    tag_63:\n      tag_64\n      jump\t// in\n    tag_62:\n      mload(0x40)\n      tag_65\n      swap2\n      swap1\n      tag_66\n      jump\t// in\n    tag_65:\n      mload(0x40)\n      dup1\n      swap2\n      sub\n      swap1\n      return\n        /* \"contracts/InquireA.sol\":7422:8098  function getQuestionsByCategory(string memory _category) public view returns (uint256[] memory) {... */\n    tag_10:\n      callvalue\n      dup1\n      iszero\n      tag_67\n      jumpi\n      0x00\n      dup1\n      revert\n    tag_67:\n      pop\n      tag_68\n      0x04\n      dup1\n      calldatasize\n      sub\n      dup2\n      add\n      swap1\n      tag_69\n      swap2\n      swap1\n      tag_70\n      jump\t// in\n    tag_69:\n      tag_71\n      jump\t// in\n    tag_68:\n      mload(0x40)\n      tag_72\n      swap2\n      swap1\n      tag_73\n      jump\t// in\n    tag_72:\n      mload(0x40)\n      dup1\n      swap2\n      sub\n      swap1\n      return\n        /* \"contracts/InquireA.sol\":2346:3645  function askQuestion(... */\n    tag_11:\n      tag_74\n      0x04\n      dup1\n      calldatasize\n      sub\n      dup2\n      add\n      swap1\n      tag_75\n      swap2\n      swap1\n      tag_76\n      jump\t// in\n    tag_75:\n      tag_77\n      jump\t// in\n    tag_74:\n      stop\n        /* \"contracts/InquireA.sol\":5996:6997  function distributeRewards(uint256 questionId) public questionExists(questionId) {... */\n    tag_12:\n      callvalue\n      dup1\n      iszero\n      tag_78\n      jumpi\n      0x00\n      dup1\n      revert\n    tag_78:\n      pop\n      tag_79\n      0x04\n      dup1\n      calldatasize\n      sub\n      dup2\n      add\n      swap1\n      tag_80\n      swap2\n      swap1\n      tag_54\n      jump\t// in\n    tag_80:\n      tag_81\n      jump\t// in\n    tag_79:\n      stop\n        /* \"contracts/InquireA.sol\":155:187  uint256 public questionIdCounter */\n    tag_13:\n      callvalue\n      dup1\n      iszero\n      tag_82\n      jumpi\n      0x00\n      dup1\n      revert\n    tag_82:\n      pop\n      tag_83\n      tag_84\n      jump\t// in\n    tag_83:\n      mload(0x40)\n      tag_85\n      swap2\n      swap1\n      tag_50\n      jump\t// in\n    tag_85:\n      mload(0x40)\n      dup1\n      swap2\n      sub\n      swap1\n      return\n        /* \"contracts/InquireA.sol\":85:105  address public owner */\n    tag_14:\n      callvalue\n      dup1\n      iszero\n      tag_86\n      jumpi\n      0x00\n      dup1\n      revert\n    tag_86:\n      pop\n      tag_87\n      tag_88\n      jump\t// in\n    tag_87:\n      mload(0x40)\n      tag_89\n      swap2\n      swap1\n      tag_90\n      jump\t// in\n    tag_89:\n      mload(0x40)\n      dup1\n      swap2\n      sub\n      swap1\n      return\n        /* \"contracts/InquireA.sol\":312:355  uint256 public constant TWO_WEEKS = 14 days */\n    tag_15:\n      callvalue\n      dup1\n      iszero\n      tag_91\n      jumpi\n      0x00\n      dup1\n      revert\n    tag_91:\n      pop\n      tag_92\n      tag_93\n      jump\t// in\n    tag_92:\n      mload(0x40)\n      tag_94\n      swap2\n      swap1\n      tag_50\n      jump\t// in\n    tag_94:\n      mload(0x40)\n      dup1\n      swap2\n      sub\n      swap1\n      return\n        /* \"contracts/InquireA.sol\":7272:7368  function balance() public view returns (uint256) {... */\n    tag_16:\n      callvalue\n      dup1\n      iszero\n      tag_95\n      jumpi\n      0x00\n      dup1\n      revert\n    tag_95:\n      pop\n      tag_96\n      tag_97\n      jump\t// in\n    tag_96:\n      mload(0x40)\n      tag_98\n      swap2\n      swap1\n      tag_50\n      jump\t// in\n    tag_98:\n      mload(0x40)\n      dup1\n      swap2\n      sub\n      swap1\n      return\n        /* \"contracts/InquireA.sol\":194:224  uint256 public answerIdCounter */\n    tag_17:\n      callvalue\n      dup1\n      iszero\n      tag_99\n      jumpi\n      0x00\n      dup1\n      revert\n    tag_99:\n      pop\n      tag_100\n      tag_101\n      jump\t// in\n    tag_100:\n      mload(0x40)\n      tag_102\n      swap2\n      swap1\n      tag_50\n      jump\t// in\n    tag_102:\n      mload(0x40)\n      dup1\n      swap2\n      sub\n      swap1\n      return\n        /* \"contracts/InquireA.sol\":362:401  uint256 public constant MONTH = 30 days */\n    tag_18:\n      callvalue\n      dup1\n      iszero\n      tag_103\n      jumpi\n      0x00\n      dup1\n      revert\n    tag_103:\n      pop\n      tag_104\n      tag_105\n      jump\t// in\n    tag_104:\n      mload(0x40)\n      tag_106\n      swap2\n      swap1\n      tag_50\n      jump\t// in\n    tag_106:\n      mload(0x40)\n      dup1\n      swap2\n      sub\n      swap1\n      return\n        /* \"contracts/InquireA.sol\":112:147  uint256 public voteFee = 0.01 ether */\n    tag_19:\n      callvalue\n      dup1\n      iszero\n      tag_107\n      jumpi\n      0x00\n      dup1\n      revert\n    tag_107:\n      pop\n      tag_108\n      tag_109\n      jump\t// in\n    tag_108:\n      mload(0x40)\n      tag_110\n      swap2\n      swap1\n      tag_50\n      jump\t// in\n    tag_110:\n      mload(0x40)\n      dup1\n      swap2\n      sub\n      swap1\n      return\n        /* \"contracts/InquireA.sol\":4398:4616  function getQuestionById(uint256 questionId) public view returns (Question memory) {... */\n    tag_20:\n      callvalue\n      dup1\n      iszero\n      tag_111\n      jumpi\n      0x00\n      dup1\n      revert\n    tag_111:\n      pop\n      tag_112\n      0x04\n      dup1\n      calldatasize\n      sub\n      dup2\n      add\n      swap1\n      tag_113\n      swap2\n      swap1\n      tag_54\n      jump\t// in\n    tag_113:\n      tag_114\n      jump\t// in\n    tag_112:\n      mload(0x40)\n      tag_115\n      swap2\n      swap1\n      tag_116\n      jump\t// in\n    tag_115:\n      mload(0x40)\n      dup1\n      swap2\n      sub\n      swap1\n      return\n        /* \"contracts/InquireA.sol\":268:305  uint256 public constant WEEK = 7 days */\n    tag_21:\n      callvalue\n      dup1\n      iszero\n      tag_117\n      jumpi\n      0x00\n      dup1\n      revert\n    tag_117:\n      pop\n      tag_118\n      tag_119\n      jump\t// in\n    tag_118:\n      mload(0x40)\n      tag_120\n      swap2\n      swap1\n      tag_50\n      jump\t// in\n    tag_120:\n      mload(0x40)\n      dup1\n      swap2\n      sub\n      swap1\n      return\n        /* \"contracts/InquireA.sol\":5548:5950  function closeQuestion(uint256 questionId, uint256 answerId) public questionExists(questionId) notClosed(questionId) {... */\n    tag_29:\n        /* \"contracts/InquireA.sol\":5631:5641  questionId */\n      dup2\n        /* \"contracts/InquireA.sol\":2088:2089  0 */\n      0x00\n        /* \"contracts/InquireA.sol\":2049:2090  questions[questionId].asker != address(0) */\n      0xffffffffffffffffffffffffffffffffffffffff\n      and\n        /* \"contracts/InquireA.sol\":2049:2058  questions */\n      0x04\n        /* \"contracts/InquireA.sol\":2049:2070  questions[questionId] */\n      0x00\n        /* \"contracts/InquireA.sol\":2059:2069  questionId */\n      dup4\n        /* \"contracts/InquireA.sol\":2049:2070  questions[questionId] */\n      dup2\n      mstore\n      0x20\n      add\n      swap1\n      dup2\n      mstore\n      0x20\n      add\n      0x00\n      keccak256\n        /* \"contracts/InquireA.sol\":2049:2076  questions[questionId].asker */\n      0x01\n      add\n      0x00\n      swap1\n      sload\n      swap1\n      0x0100\n      exp\n      swap1\n      div\n      0xffffffffffffffffffffffffffffffffffffffff\n      and\n        /* \"contracts/InquireA.sol\":2049:2090  questions[questionId].asker != address(0) */\n      0xffffffffffffffffffffffffffffffffffffffff\n      and\n      sub\n        /* \"contracts/InquireA.sol\":2041:2118  require(questions[questionId].asker != address(0), \"Question does not exist\") */\n      tag_122\n      jumpi\n      mload(0x40)\n      0x08c379a000000000000000000000000000000000000000000000000000000000\n      dup2\n      mstore\n      0x04\n      add\n      tag_123\n      swap1\n      tag_124\n      jump\t// in\n    tag_123:\n      mload(0x40)\n      dup1\n      swap2\n      sub\n      swap1\n      revert\n    tag_122:\n        /* \"contracts/InquireA.sol\":5653:5663  questionId */\n      dup3\n        /* \"contracts/InquireA.sol\":2205:2214  questions */\n      0x04\n        /* \"contracts/InquireA.sol\":2205:2226  questions[questionId] */\n      0x00\n        /* \"contracts/InquireA.sol\":2215:2225  questionId */\n      dup3\n        /* \"contracts/InquireA.sol\":2205:2226  questions[questionId] */\n      dup2\n      mstore\n      0x20\n      add\n      swap1\n      dup2\n      mstore\n      0x20\n      add\n      0x00\n      keccak256\n        /* \"contracts/InquireA.sol\":2205:2235  questions[questionId].isClosed */\n      0x08\n      add\n      0x00\n      swap1\n      sload\n      swap1\n      0x0100\n      exp\n      swap1\n      div\n      0xff\n      and\n        /* \"contracts/InquireA.sol\":2204:2235  !questions[questionId].isClosed */\n      iszero\n        /* \"contracts/InquireA.sol\":2196:2266  require(!questions[questionId].isClosed, \"Question is already closed\") */\n      tag_126\n      jumpi\n      mload(0x40)\n      0x08c379a000000000000000000000000000000000000000000000000000000000\n      dup2\n      mstore\n      0x04\n      add\n      tag_127\n      swap1\n      tag_128\n      jump\t// in\n    tag_127:\n      mload(0x40)\n      dup1\n      swap2\n      sub\n      swap1\n      revert\n    tag_126:\n        /* \"contracts/InquireA.sol\":5676:5701  Question storage question */\n      0x00\n        /* \"contracts/InquireA.sol\":5704:5713  questions */\n      0x04\n        /* \"contracts/InquireA.sol\":5704:5725  questions[questionId] */\n      0x00\n        /* \"contracts/InquireA.sol\":5714:5724  questionId */\n      dup7\n        /* \"contracts/InquireA.sol\":5704:5725  questions[questionId] */\n      dup2\n      mstore\n      0x20\n      add\n      swap1\n      dup2\n      mstore\n      0x20\n      add\n      0x00\n      keccak256\n        /* \"contracts/InquireA.sol\":5676:5725  Question storage question = questions[questionId] */\n      swap1\n      pop\n        /* \"contracts/InquireA.sol\":5758:5766  question */\n      dup1\n        /* \"contracts/InquireA.sol\":5758:5772  question.asker */\n      0x01\n      add\n      0x00\n      swap1\n      sload\n      swap1\n      0x0100\n      exp\n      swap1\n      div\n      0xffffffffffffffffffffffffffffffffffffffff\n      and\n        /* \"contracts/InquireA.sol\":5744:5772  msg.sender == question.asker */\n      0xffffffffffffffffffffffffffffffffffffffff\n      and\n        /* \"contracts/InquireA.sol\":5744:5754  msg.sender */\n      caller\n        /* \"contracts/InquireA.sol\":5744:5772  msg.sender == question.asker */\n      0xffffffffffffffffffffffffffffffffffffffff\n      and\n      eq\n        /* \"contracts/InquireA.sol\":5736:5806  require(msg.sender == question.asker, \"Only asker can close question\") */\n      tag_130\n      jumpi\n      mload(0x40)\n      0x08c379a000000000000000000000000000000000000000000000000000000000\n      dup2\n      mstore\n      0x04\n      add\n      tag_131\n      swap1\n      tag_132\n      jump\t// in\n    tag_131:\n      mload(0x40)\n      dup1\n      swap2\n      sub\n      swap1\n      revert\n    tag_130:\n        /* \"contracts/InquireA.sol\":5839:5843  true */\n      0x01\n        /* \"contracts/InquireA.sol\":5819:5827  question */\n      dup2\n        /* \"contracts/InquireA.sol\":5819:5836  question.isClosed */\n      0x08\n      add\n      0x00\n        /* \"contracts/InquireA.sol\":5819:5843  question.isClosed = true */\n      0x0100\n      exp\n      dup2\n      sload\n      dup2\n      0xff\n      mul\n      not\n      and\n      swap1\n      dup4\n      iszero\n      iszero\n      mul\n      or\n      swap1\n      sstore\n      pop\n        /* \"contracts/InquireA.sol\":5880:5888  answerId */\n      dup4\n        /* \"contracts/InquireA.sol\":5854:5862  question */\n      dup2\n        /* \"contracts/InquireA.sol\":5854:5877  question.chosenAnswerId */\n      0x09\n      add\n        /* \"contracts/InquireA.sol\":5854:5888  question.chosenAnswerId = answerId */\n      dup2\n      swap1\n      sstore\n      pop\n        /* \"contracts/InquireA.sol\":5906:5942  QuestionClosed(questionId, answerId) */\n      0x99fe2c8abd13b610e7f7d4a51a49e1391ba19454b72305176b884d66010e475a\n        /* \"contracts/InquireA.sol\":5921:5931  questionId */\n      dup6\n        /* \"contracts/InquireA.sol\":5933:5941  answerId */\n      dup6\n        /* \"contracts/InquireA.sol\":5906:5942  QuestionClosed(questionId, answerId) */\n      mload(0x40)\n      tag_133\n      swap3\n      swap2\n      swap1\n      tag_134\n      jump\t// in\n    tag_133:\n      mload(0x40)\n      dup1\n      swap2\n      sub\n      swap1\n      log1\n        /* \"contracts/InquireA.sol\":5665:5950  {... */\n      pop\n        /* \"contracts/InquireA.sol\":2129:2130  _ */\n      pop\n        /* \"contracts/InquireA.sol\":5548:5950  function closeQuestion(uint256 questionId, uint256 answerId) public questionExists(questionId) notClosed(questionId) {... */\n      pop\n      pop\n      pop\n      jump\t// out\n        /* \"contracts/InquireA.sol\":3684:4352  function submitAnswer(uint256 questionId, string memory _answerText) public questionExists(questionId) notClosed(questionId) {... */\n    tag_34:\n        /* \"contracts/InquireA.sol\":3775:3785  questionId */\n      dup2\n        /* \"contracts/InquireA.sol\":2088:2089  0 */\n      0x00\n        /* \"contracts/InquireA.sol\":2049:2090  questions[questionId].asker != address(0) */\n      0xffffffffffffffffffffffffffffffffffffffff\n      and\n        /* \"contracts/InquireA.sol\":2049:2058  questions */\n      0x04\n        /* \"contracts/InquireA.sol\":2049:2070  questions[questionId] */\n      0x00\n        /* \"contracts/InquireA.sol\":2059:2069  questionId */\n      dup4\n        /* \"contracts/InquireA.sol\":2049:2070  questions[questionId] */\n      dup2\n      mstore\n      0x20\n      add\n      swap1\n      dup2\n      mstore\n      0x20\n      add\n      0x00\n      keccak256\n        /* \"contracts/InquireA.sol\":2049:2076  questions[questionId].asker */\n      0x01\n      add\n      0x00\n      swap1\n      sload\n      swap1\n      0x0100\n      exp\n      swap1\n      div\n      0xffffffffffffffffffffffffffffffffffffffff\n      and\n        /* \"contracts/InquireA.sol\":2049:2090  questions[questionId].asker != address(0) */\n      0xffffffffffffffffffffffffffffffffffffffff\n      and\n      sub\n        /* \"contracts/InquireA.sol\":2041:2118  require(questions[questionId].asker != address(0), \"Question does not exist\") */\n      tag_136\n      jumpi\n      mload(0x40)\n      0x08c379a000000000000000000000000000000000000000000000000000000000\n      dup2\n      mstore\n      0x04\n      add\n      tag_137\n      swap1\n      tag_124\n      jump\t// in\n    tag_137:\n      mload(0x40)\n      dup1\n      swap2\n      sub\n      swap1\n      revert\n    tag_136:\n        /* \"contracts/InquireA.sol\":3797:3807  questionId */\n      dup3\n        /* \"contracts/InquireA.sol\":2205:2214  questions */\n      0x04\n        /* \"contracts/InquireA.sol\":2205:2226  questions[questionId] */\n      0x00\n        /* \"contracts/InquireA.sol\":2215:2225  questionId */\n      dup3\n        /* \"contracts/InquireA.sol\":2205:2226  questions[questionId] */\n      dup2\n      mstore\n      0x20\n      add\n      swap1\n      dup2\n      mstore\n      0x20\n      add\n      0x00\n      keccak256\n        /* \"contracts/InquireA.sol\":2205:2235  questions[questionId].isClosed */\n      0x08\n      add\n      0x00\n      swap1\n      sload\n      swap1\n      0x0100\n      exp\n      swap1\n      div\n      0xff\n      and\n        /* \"contracts/InquireA.sol\":2204:2235  !questions[questionId].isClosed */\n      iszero\n        /* \"contracts/InquireA.sol\":2196:2266  require(!questions[questionId].isClosed, \"Question is already closed\") */\n      tag_139\n      jumpi\n      mload(0x40)\n      0x08c379a000000000000000000000000000000000000000000000000000000000\n      dup2\n      mstore\n      0x04\n      add\n      tag_140\n      swap1\n      tag_128\n      jump\t// in\n    tag_140:\n      mload(0x40)\n      dup1\n      swap2\n      sub\n      swap1\n      revert\n    tag_139:\n        /* \"contracts/InquireA.sol\":3820:3844  Question memory question */\n      0x00\n        /* \"contracts/InquireA.sol\":3847:3856  questions */\n      0x04\n        /* \"contracts/InquireA.sol\":3847:3868  questions[questionId] */\n      0x00\n        /* \"contracts/InquireA.sol\":3857:3867  questionId */\n      dup7\n        /* \"contracts/InquireA.sol\":3847:3868  questions[questionId] */\n      dup2\n      mstore\n      0x20\n      add\n      swap1\n      dup2\n      mstore\n      0x20\n      add\n      0x00\n      keccak256\n        /* \"contracts/InquireA.sol\":3820:3868  Question memory question = questions[questionId] */\n      mload(0x40)\n      dup1\n      0x0140\n      add\n      0x40\n      mstore\n      swap1\n      dup2\n      0x00\n      dup3\n      add\n      sload\n      dup2\n      mstore\n      0x20\n      add\n      0x01\n      dup3\n      add\n      0x00\n      swap1\n      sload\n      swap1\n      0x0100\n      exp\n      swap1\n      div\n      0xffffffffffffffffffffffffffffffffffffffff\n      and\n      0xffffffffffffffffffffffffffffffffffffffff\n      and\n      0xffffffffffffffffffffffffffffffffffffffff\n      and\n      dup2\n      mstore\n      0x20\n      add\n      0x02\n      dup3\n      add\n      dup1\n      sload\n      tag_142\n      swap1\n      tag_143\n      jump\t// in\n    tag_142:\n      dup1\n      0x1f\n      add\n      0x20\n      dup1\n      swap2\n      div\n      mul\n      0x20\n      add\n      mload(0x40)\n      swap1\n      dup2\n      add\n      0x40\n      mstore\n      dup1\n      swap3\n      swap2\n      swap1\n      dup2\n      dup2\n      mstore\n      0x20\n      add\n      dup3\n      dup1\n      sload\n      tag_144\n      swap1\n      tag_143\n      jump\t// in\n    tag_144:\n      dup1\n      iszero\n      tag_145\n      jumpi\n      dup1\n      0x1f\n      lt\n      tag_146\n      jumpi\n      0x0100\n      dup1\n      dup4\n      sload\n      div\n      mul\n      dup4\n      mstore\n      swap2\n      0x20\n      add\n      swap2\n      jump(tag_145)\n    tag_146:\n      dup3\n      add\n      swap2\n      swap1\n      0x00\n      mstore\n      keccak256(0x00, 0x20)\n      swap1\n    tag_147:\n      dup2\n      sload\n      dup2\n      mstore\n      swap1\n      0x01\n      add\n      swap1\n      0x20\n      add\n      dup1\n      dup4\n      gt\n      tag_147\n      jumpi\n      dup3\n      swap1\n      sub\n      0x1f\n      and\n      dup3\n      add\n      swap2\n    tag_145:\n      pop\n      pop\n      pop\n      pop\n      pop\n      dup2\n      mstore\n      0x20\n      add\n      0x03\n      dup3\n      add\n      dup1\n      sload\n      tag_148\n      swap1\n      tag_143\n      jump\t// in\n    tag_148:\n      dup1\n      0x1f\n      add\n      0x20\n      dup1\n      swap2\n      div\n      mul\n      0x20\n      add\n      mload(0x40)\n      swap1\n      dup2\n      add\n      0x40\n      mstore\n      dup1\n      swap3\n      swap2\n      swap1\n      dup2\n      dup2\n      mstore\n      0x20\n      add\n      dup3\n      dup1\n      sload\n      tag_149\n      swap1\n      tag_143\n      jump\t// in\n    tag_149:\n      dup1\n      iszero\n      tag_150\n      jumpi\n      dup1\n      0x1f\n      lt\n      tag_151\n      jumpi\n      0x0100\n      dup1\n      dup4\n      sload\n      div\n      mul\n      dup4\n      mstore\n      swap2\n      0x20\n      add\n      swap2\n      jump(tag_150)\n    tag_151:\n      dup3\n      add\n      swap2\n      swap1\n      0x00\n      mstore\n      keccak256(0x00, 0x20)\n      swap1\n    tag_152:\n      dup2\n      sload\n      dup2\n      mstore\n      swap1\n      0x01\n      add\n      swap1\n      0x20\n      add\n      dup1\n      dup4\n      gt\n      tag_152\n      jumpi\n      dup3\n      swap1\n      sub\n      0x1f\n      and\n      dup3\n      add\n      swap2\n    tag_150:\n      pop\n      pop\n      pop\n      pop\n      pop\n      dup2\n      mstore\n      0x20\n      add\n      0x04\n      dup3\n      add\n      dup1\n      sload\n      tag_153\n      swap1\n      tag_143\n      jump\t// in\n    tag_153:\n      dup1\n      0x1f\n      add\n      0x20\n      dup1\n      swap2\n      div\n      mul\n      0x20\n      add\n      mload(0x40)\n      swap1\n      dup2\n      add\n      0x40\n      mstore\n      dup1\n      swap3\n      swap2\n      swap1\n      dup2\n      dup2\n      mstore\n      0x20\n      add\n      dup3\n      dup1\n      sload\n      tag_154\n      swap1\n      tag_143\n      jump\t// in\n    tag_154:\n      dup1\n      iszero\n      tag_155\n      jumpi\n      dup1\n      0x1f\n      lt\n      tag_156\n      jumpi\n      0x0100\n      dup1\n      dup4\n      sload\n      div\n      mul\n      dup4\n      mstore\n      swap2\n      0x20\n      add\n      swap2\n      jump(tag_155)\n    tag_156:\n      dup3\n      add\n      swap2\n      swap1\n      0x00\n      mstore\n      keccak256(0x00, 0x20)\n      swap1\n    tag_157:\n      dup2\n      sload\n      dup2\n      mstore\n      swap1\n      0x01\n      add\n      swap1\n      0x20\n      add\n      dup1\n      dup4\n      gt\n      tag_157\n      jumpi\n      dup3\n      swap1\n      sub\n      0x1f\n      and\n      dup3\n      add\n      swap2\n    tag_155:\n      pop\n      pop\n      pop\n      pop\n      pop\n      dup2\n      mstore\n      0x20\n      add\n      0x05\n      dup3\n      add\n      sload\n      dup2\n      mstore\n      0x20\n      add\n      0x06\n      dup3\n      add\n      sload\n      dup2\n      mstore\n      0x20\n      add\n      0x07\n      dup3\n      add\n      sload\n      dup2\n      mstore\n      0x20\n      add\n      0x08\n      dup3\n      add\n      0x00\n      swap1\n      sload\n      swap1\n      0x0100\n      exp\n      swap1\n      div\n      0xff\n      and\n      iszero\n      iszero\n      iszero\n      iszero\n      dup2\n      mstore\n      0x20\n      add\n      0x09\n      dup3\n      add\n      sload\n      dup2\n      mstore\n      pop\n      pop\n      swap1\n      pop\n        /* \"contracts/InquireA.sol\":3906:3914  question */\n      dup1\n        /* \"contracts/InquireA.sol\":3906:3923  question.deadline */\n      0xe0\n      add\n      mload\n        /* \"contracts/InquireA.sol\":3887:3902  block.timestamp */\n      timestamp\n        /* \"contracts/InquireA.sol\":3887:3923  block.timestamp <= question.deadline */\n      gt\n      iszero\n        /* \"contracts/InquireA.sol\":3879:3956  require(block.timestamp <= question.deadline, \"Question deadline has passed\") */\n      tag_158\n      jumpi\n      mload(0x40)\n      0x08c379a000000000000000000000000000000000000000000000000000000000\n      dup2\n      mstore\n      0x04\n      add\n      tag_159\n      swap1\n      tag_160\n      jump\t// in\n    tag_159:\n      mload(0x40)\n      dup1\n      swap2\n      sub\n      swap1\n      revert\n    tag_158:\n        /* \"contracts/InquireA.sol\":3969:3985  uint256 answerId */\n      0x00\n        /* \"contracts/InquireA.sol\":3988:4003  answerIdCounter */\n      0x03\n      0x00\n        /* \"contracts/InquireA.sol\":3988:4005  answerIdCounter++ */\n      dup2\n      sload\n      dup1\n      swap3\n      swap2\n      swap1\n      tag_161\n      swap1\n      tag_162\n      jump\t// in\n    tag_161:\n      swap2\n      swap1\n      pop\n      sstore\n        /* \"contracts/InquireA.sol\":3969:4005  uint256 answerId = answerIdCounter++ */\n      swap1\n      pop\n        /* \"contracts/InquireA.sol\":4048:4264  Answer({... */\n      mload(0x40)\n      dup1\n      0xc0\n      add\n      0x40\n      mstore\n      dup1\n        /* \"contracts/InquireA.sol\":4074:4082  answerId */\n      dup3\n        /* \"contracts/InquireA.sol\":4048:4264  Answer({... */\n      dup2\n      mstore\n      0x20\n      add\n        /* \"contracts/InquireA.sol\":4108:4118  msg.sender */\n      caller\n        /* \"contracts/InquireA.sol\":4048:4264  Answer({... */\n      0xffffffffffffffffffffffffffffffffffffffff\n      and\n      dup2\n      mstore\n      0x20\n      add\n        /* \"contracts/InquireA.sol\":4145:4156  _answerText */\n      dup7\n        /* \"contracts/InquireA.sol\":4048:4264  Answer({... */\n      dup2\n      mstore\n      0x20\n      add\n        /* \"contracts/InquireA.sol\":4180:4181  0 */\n      0x00\n        /* \"contracts/InquireA.sol\":4048:4264  Answer({... */\n      dup2\n      mstore\n      0x20\n      add\n        /* \"contracts/InquireA.sol\":4210:4211  0 */\n      0x00\n        /* \"contracts/InquireA.sol\":4048:4264  Answer({... */\n      dup2\n      mstore\n      0x20\n      add\n        /* \"contracts/InquireA.sol\":4237:4252  block.timestamp */\n      timestamp\n        /* \"contracts/InquireA.sol\":4048:4264  Answer({... */\n      dup2\n      mstore\n      pop\n        /* \"contracts/InquireA.sol\":4016:4023  answers */\n      0x05\n        /* \"contracts/InquireA.sol\":4016:4035  answers[questionId] */\n      0x00\n        /* \"contracts/InquireA.sol\":4024:4034  questionId */\n      dup9\n        /* \"contracts/InquireA.sol\":4016:4035  answers[questionId] */\n      dup2\n      mstore\n      0x20\n      add\n      swap1\n      dup2\n      mstore\n      0x20\n      add\n      0x00\n      keccak256\n        /* \"contracts/InquireA.sol\":4016:4045  answers[questionId][answerId] */\n      0x00\n        /* \"contracts/InquireA.sol\":4036:4044  answerId */\n      dup4\n        /* \"contracts/InquireA.sol\":4016:4045  answers[questionId][answerId] */\n      dup2\n      mstore\n      0x20\n      add\n      swap1\n      dup2\n      mstore\n      0x20\n      add\n      0x00\n      keccak256\n        /* \"contracts/InquireA.sol\":4016:4264  answers[questionId][answerId] = Answer({... */\n      0x00\n      dup3\n      add\n      mload\n      dup2\n      0x00\n      add\n      sstore\n      0x20\n      dup3\n      add\n      mload\n      dup2\n      0x01\n      add\n      exp(0x0100, 0x00)\n      dup2\n      sload\n      dup2\n      0xffffffffffffffffffffffffffffffffffffffff\n      mul\n      not\n      and\n      swap1\n      dup4\n      0xffffffffffffffffffffffffffffffffffffffff\n      and\n      mul\n      or\n      swap1\n      sstore\n      pop\n      0x40\n      dup3\n      add\n      mload\n      dup2\n      0x02\n      add\n      swap1\n      dup2\n      tag_163\n      swap2\n      swap1\n      tag_164\n      jump\t// in\n    tag_163:\n      pop\n      0x60\n      dup3\n      add\n      mload\n      dup2\n      0x03\n      add\n      sstore\n      0x80\n      dup3\n      add\n      mload\n      dup2\n      0x04\n      add\n      sstore\n      0xa0\n      dup3\n      add\n      mload\n      dup2\n      0x05\n      add\n      sstore\n      swap1\n      pop\n      pop\n        /* \"contracts/InquireA.sol\":4320:4330  msg.sender */\n      caller\n        /* \"contracts/InquireA.sol\":4282:4344  AnswerSubmitted(questionId, answerId, msg.sender, _answerText) */\n      0xffffffffffffffffffffffffffffffffffffffff\n      and\n      0x1b72a809869907cac4c4e55b8bf6920ff492d2ff53307bb77ba492366b61387c\n        /* \"contracts/InquireA.sol\":4298:4308  questionId */\n      dup8\n        /* \"contracts/InquireA.sol\":4310:4318  answerId */\n      dup4\n        /* \"contracts/InquireA.sol\":4332:4343  _answerText */\n      dup9\n        /* \"contracts/InquireA.sol\":4282:4344  AnswerSubmitted(questionId, answerId, msg.sender, _answerText) */\n      mload(0x40)\n      tag_165\n      swap4\n      swap3\n      swap2\n      swap1\n      tag_166\n      jump\t// in\n    tag_165:\n      mload(0x40)\n      dup1\n      swap2\n      sub\n      swap1\n      log2\n        /* \"contracts/InquireA.sol\":3809:4352  {... */\n      pop\n      pop\n        /* \"contracts/InquireA.sol\":2129:2130  _ */\n      pop\n        /* \"contracts/InquireA.sol\":3684:4352  function submitAnswer(uint256 questionId, string memory _answerText) public questionExists(questionId) notClosed(questionId) {... */\n      pop\n      pop\n      pop\n      jump\t// out\n        /* \"contracts/InquireA.sol\":1124:1185  mapping(uint256 => mapping(uint256 => Answer)) public answers */\n    tag_38:\n      mstore(0x20, 0x05)\n      dup2\n      0x00\n      mstore\n      mstore(0x20, keccak256(0x00, 0x40))\n      dup1\n      0x00\n      mstore\n      keccak256(0x00, 0x40)\n      0x00\n      swap2\n      pop\n      swap2\n      pop\n      pop\n      dup1\n      0x00\n      add\n      sload\n      swap1\n      dup1\n      0x01\n      add\n      0x00\n      swap1\n      sload\n      swap1\n      0x0100\n      exp\n      swap1\n      div\n      0xffffffffffffffffffffffffffffffffffffffff\n      and\n      swap1\n      dup1\n      0x02\n      add\n      dup1\n      sload\n      tag_167\n      swap1\n      tag_143\n      jump\t// in\n    tag_167:\n      dup1\n      0x1f\n      add\n      0x20\n      dup1\n      swap2\n      div\n      mul\n      0x20\n      add\n      mload(0x40)\n      swap1\n      dup2\n      add\n      0x40\n      mstore\n      dup1\n      swap3\n      swap2\n      swap1\n      dup2\n      dup2\n      mstore\n      0x20\n      add\n      dup3\n      dup1\n      sload\n      tag_168\n      swap1\n      tag_143\n      jump\t// in\n    tag_168:\n      dup1\n      iszero\n      tag_169\n      jumpi\n      dup1\n      0x1f\n      lt\n      tag_170\n      jumpi\n      0x0100\n      dup1\n      dup4\n      sload\n      div\n      mul\n      dup4\n      mstore\n      swap2\n      0x20\n      add\n      swap2\n      jump(tag_169)\n    tag_170:\n      dup3\n      add\n      swap2\n      swap1\n      0x00\n      mstore\n      keccak256(0x00, 0x20)\n      swap1\n    tag_171:\n      dup2\n      sload\n      dup2\n      mstore\n      swap1\n      0x01\n      add\n      swap1\n      0x20\n      add\n      dup1\n      dup4\n      gt\n      tag_171\n      jumpi\n      dup3\n      swap1\n      sub\n      0x1f\n      and\n      dup3\n      add\n      swap2\n    tag_169:\n      pop\n      pop\n      pop\n      pop\n      pop\n      swap1\n      dup1\n      0x03\n      add\n      sload\n      swap1\n      dup1\n      0x04\n      add\n      sload\n      swap1\n      dup1\n      0x05\n      add\n      sload\n      swap1\n      pop\n      dup7\n      jump\t// out\n        /* \"contracts/InquireA.sol\":4964:5514  function voteForAnswer(uint256 questionId, uint256 answerId) public payable questionExists(questionId) notClosed(questionId) {... */\n    tag_43:\n        /* \"contracts/InquireA.sol\":5055:5065  questionId */\n      dup2\n        /* \"contracts/InquireA.sol\":2088:2089  0 */\n      0x00\n        /* \"contracts/InquireA.sol\":2049:2090  questions[questionId].asker != address(0) */\n      0xffffffffffffffffffffffffffffffffffffffff\n      and\n        /* \"contracts/InquireA.sol\":2049:2058  questions */\n      0x04\n        /* \"contracts/InquireA.sol\":2049:2070  questions[questionId] */\n      0x00\n        /* \"contracts/InquireA.sol\":2059:2069  questionId */\n      dup4\n        /* \"contracts/InquireA.sol\":2049:2070  questions[questionId] */\n      dup2\n      mstore\n      0x20\n      add\n      swap1\n      dup2\n      mstore\n      0x20\n      add\n      0x00\n      keccak256\n        /* \"contracts/InquireA.sol\":2049:2076  questions[questionId].asker */\n      0x01\n      add\n      0x00\n      swap1\n      sload\n      swap1\n      0x0100\n      exp\n      swap1\n      div\n      0xffffffffffffffffffffffffffffffffffffffff\n      and\n        /* \"contracts/InquireA.sol\":2049:2090  questions[questionId].asker != address(0) */\n      0xffffffffffffffffffffffffffffffffffffffff\n      and\n      sub\n        /* \"contracts/InquireA.sol\":2041:2118  require(questions[questionId].asker != address(0), \"Question does not exist\") */\n      tag_173\n      jumpi\n      mload(0x40)\n      0x08c379a000000000000000000000000000000000000000000000000000000000\n      dup2\n      mstore\n      0x04\n      add\n      tag_174\n      swap1\n      tag_124\n      jump\t// in\n    tag_174:\n      mload(0x40)\n      dup1\n      swap2\n      sub\n      swap1\n      revert\n    tag_173:\n        /* \"contracts/InquireA.sol\":5077:5087  questionId */\n      dup3\n        /* \"contracts/InquireA.sol\":2205:2214  questions */\n      0x04\n        /* \"contracts/InquireA.sol\":2205:2226  questions[questionId] */\n      0x00\n        /* \"contracts/InquireA.sol\":2215:2225  questionId */\n      dup3\n        /* \"contracts/InquireA.sol\":2205:2226  questions[questionId] */\n      dup2\n      mstore\n      0x20\n      add\n      swap1\n      dup2\n      mstore\n      0x20\n      add\n      0x00\n      keccak256\n        /* \"contracts/InquireA.sol\":2205:2235  questions[questionId].isClosed */\n      0x08\n      add\n      0x00\n      swap1\n      sload\n      swap1\n      0x0100\n      exp\n      swap1\n      div\n      0xff\n      and\n        /* \"contracts/InquireA.sol\":2204:2235  !questions[questionId].isClosed */\n      iszero\n        /* \"contracts/InquireA.sol\":2196:2266  require(!questions[questionId].isClosed, \"Question is already closed\") */\n      tag_176\n      jumpi\n      mload(0x40)\n      0x08c379a000000000000000000000000000000000000000000000000000000000\n      dup2\n      mstore\n      0x04\n      add\n      tag_177\n      swap1\n      tag_128\n      jump\t// in\n    tag_177:\n      mload(0x40)\n      dup1\n      swap2\n      sub\n      swap1\n      revert\n    tag_176:\n        /* \"contracts/InquireA.sol\":5100:5124  Question memory question */\n      0x00\n        /* \"contracts/InquireA.sol\":5127:5136  questions */\n      0x04\n        /* \"contracts/InquireA.sol\":5127:5148  questions[questionId] */\n      0x00\n        /* \"contracts/InquireA.sol\":5137:5147  questionId */\n      dup7\n        /* \"contracts/InquireA.sol\":5127:5148  questions[questionId] */\n      dup2\n      mstore\n      0x20\n      add\n      swap1\n      dup2\n      mstore\n      0x20\n      add\n      0x00\n      keccak256\n        /* \"contracts/InquireA.sol\":5100:5148  Question memory question = questions[questionId] */\n      mload(0x40)\n      dup1\n      0x0140\n      add\n      0x40\n      mstore\n      swap1\n      dup2\n      0x00\n      dup3\n      add\n      sload\n      dup2\n      mstore\n      0x20\n      add\n      0x01\n      dup3\n      add\n      0x00\n      swap1\n      sload\n      swap1\n      0x0100\n      exp\n      swap1\n      div\n      0xffffffffffffffffffffffffffffffffffffffff\n      and\n      0xffffffffffffffffffffffffffffffffffffffff\n      and\n      0xffffffffffffffffffffffffffffffffffffffff\n      and\n      dup2\n      mstore\n      0x20\n      add\n      0x02\n      dup3\n      add\n      dup1\n      sload\n      tag_179\n      swap1\n      tag_143\n      jump\t// in\n    tag_179:\n      dup1\n      0x1f\n      add\n      0x20\n      dup1\n      swap2\n      div\n      mul\n      0x20\n      add\n      mload(0x40)\n      swap1\n      dup2\n      add\n      0x40\n      mstore\n      dup1\n      swap3\n      swap2\n      swap1\n      dup2\n      dup2\n      mstore\n      0x20\n      add\n      dup3\n      dup1\n      sload\n      tag_180\n      swap1\n      tag_143\n      jump\t// in\n    tag_180:\n      dup1\n      iszero\n      tag_181\n      jumpi\n      dup1\n      0x1f\n      lt\n      tag_182\n      jumpi\n      0x0100\n      dup1\n      dup4\n      sload\n      div\n      mul\n      dup4\n      mstore\n      swap2\n      0x20\n      add\n      swap2\n      jump(tag_181)\n    tag_182:\n      dup3\n      add\n      swap2\n      swap1\n      0x00\n      mstore\n      keccak256(0x00, 0x20)\n      swap1\n    tag_183:\n      dup2\n      sload\n      dup2\n      mstore\n      swap1\n      0x01\n      add\n      swap1\n      0x20\n      add\n      dup1\n      dup4\n      gt\n      tag_183\n      jumpi\n      dup3\n      swap1\n      sub\n      0x1f\n      and\n      dup3\n      add\n      swap2\n    tag_181:\n      pop\n      pop\n      pop\n      pop\n      pop\n      dup2\n      mstore\n      0x20\n      add\n      0x03\n      dup3\n      add\n      dup1\n      sload\n      tag_184\n      swap1\n      tag_143\n      jump\t// in\n    tag_184:\n      dup1\n      0x1f\n      add\n      0x20\n      dup1\n      swap2\n      div\n      mul\n      0x20\n      add\n      mload(0x40)\n      swap1\n      dup2\n      add\n      0x40\n      mstore\n      dup1\n      swap3\n      swap2\n      swap1\n      dup2\n      dup2\n      mstore\n      0x20\n      add\n      dup3\n      dup1\n      sload\n      tag_185\n      swap1\n      tag_143\n      jump\t// in\n    tag_185:\n      dup1\n      iszero\n      tag_186\n      jumpi\n      dup1\n      0x1f\n      lt\n      tag_187\n      jumpi\n      0x0100\n      dup1\n      dup4\n      sload\n      div\n      mul\n      dup4\n      mstore\n      swap2\n      0x20\n      add\n      swap2\n      jump(tag_186)\n    tag_187:\n      dup3\n      add\n      swap2\n      swap1\n      0x00\n      mstore\n      keccak256(0x00, 0x20)\n      swap1\n    tag_188:\n      dup2\n      sload\n      dup2\n      mstore\n      swap1\n      0x01\n      add\n      swap1\n      0x20\n      add\n      dup1\n      dup4\n      gt\n      tag_188\n      jumpi\n      dup3\n      swap1\n      sub\n      0x1f\n      and\n      dup3\n      add\n      swap2\n    tag_186:\n      pop\n      pop\n      pop\n      pop\n      pop\n      dup2\n      mstore\n      0x20\n      add\n      0x04\n      dup3\n      add\n      dup1\n      sload\n      tag_189\n      swap1\n      tag_143\n      jump\t// in\n    tag_189:\n      dup1\n      0x1f\n      add\n      0x20\n      dup1\n      swap2\n      div\n      mul\n      0x20\n      add\n      mload(0x40)\n      swap1\n      dup2\n      add\n      0x40\n      mstore\n      dup1\n      swap3\n      swap2\n      swap1\n      dup2\n      dup2\n      mstore\n      0x20\n      add\n      dup3\n      dup1\n      sload\n      tag_190\n      swap1\n      tag_143\n      jump\t// in\n    tag_190:\n      dup1\n      iszero\n      tag_191\n      jumpi\n      dup1\n      0x1f\n      lt\n      tag_192\n      jumpi\n      0x0100\n      dup1\n      dup4\n      sload\n      div\n      mul\n      dup4\n      mstore\n      swap2\n      0x20\n      add\n      swap2\n      jump(tag_191)\n    tag_192:\n      dup3\n      add\n      swap2\n      swap1\n      0x00\n      mstore\n      keccak256(0x00, 0x20)\n      swap1\n    tag_193:\n      dup2\n      sload\n      dup2\n      mstore\n      swap1\n      0x01\n      add\n      swap1\n      0x20\n      add\n      dup1\n      dup4\n      gt\n      tag_193\n      jumpi\n      dup3\n      swap1\n      sub\n      0x1f\n      and\n      dup3\n      add\n      swap2\n    tag_191:\n      pop\n      pop\n      pop\n      pop\n      pop\n      dup2\n      mstore\n      0x20\n      add\n      0x05\n      dup3\n      add\n      sload\n      dup2\n      mstore\n      0x20\n      add\n      0x06\n      dup3\n      add\n      sload\n      dup2\n      mstore\n      0x20\n      add\n      0x07\n      dup3\n      add\n      sload\n      dup2\n      mstore\n      0x20\n      add\n      0x08\n      dup3\n      add\n      0x00\n      swap1\n      sload\n      swap1\n      0x0100\n      exp\n      swap1\n      div\n      0xff\n      and\n      iszero\n      iszero\n      iszero\n      iszero\n      dup2\n      mstore\n      0x20\n      add\n      0x09\n      dup3\n      add\n      sload\n      dup2\n      mstore\n      pop\n      pop\n      swap1\n      pop\n        /* \"contracts/InquireA.sol\":5186:5194  question */\n      dup1\n        /* \"contracts/InquireA.sol\":5186:5203  question.deadline */\n      0xe0\n      add\n      mload\n        /* \"contracts/InquireA.sol\":5167:5182  block.timestamp */\n      timestamp\n        /* \"contracts/InquireA.sol\":5167:5203  block.timestamp <= question.deadline */\n      gt\n      iszero\n        /* \"contracts/InquireA.sol\":5159:5231  require(block.timestamp <= question.deadline, \"Voting period has ended\") */\n      tag_194\n      jumpi\n      mload(0x40)\n      0x08c379a000000000000000000000000000000000000000000000000000000000\n      dup2\n      mstore\n      0x04\n      add\n      tag_195\n      swap1\n      tag_196\n      jump\t// in\n    tag_195:\n      mload(0x40)\n      dup1\n      swap2\n      sub\n      swap1\n      revert\n    tag_194:\n        /* \"contracts/InquireA.sol\":5265:5272  voteFee */\n      sload(0x01)\n        /* \"contracts/InquireA.sol\":5252:5261  msg.value */\n      callvalue\n        /* \"contracts/InquireA.sol\":5252:5272  msg.value == voteFee */\n      eq\n        /* \"contracts/InquireA.sol\":5244:5295  require(msg.value == voteFee, \"Incorrect vote fee\") */\n      tag_197\n      jumpi\n      mload(0x40)\n      0x08c379a000000000000000000000000000000000000000000000000000000000\n      dup2\n      mstore\n      0x04\n      add\n      tag_198\n      swap1\n      tag_199\n      jump\t// in\n    tag_198:\n      mload(0x40)\n      dup1\n      swap2\n      sub\n      swap1\n      revert\n    tag_197:\n        /* \"contracts/InquireA.sol\":5308:5329  Answer storage answer */\n      0x00\n        /* \"contracts/InquireA.sol\":5332:5339  answers */\n      0x05\n        /* \"contracts/InquireA.sol\":5332:5351  answers[questionId] */\n      0x00\n        /* \"contracts/InquireA.sol\":5340:5350  questionId */\n      dup8\n        /* \"contracts/InquireA.sol\":5332:5351  answers[questionId] */\n      dup2\n      mstore\n      0x20\n      add\n      swap1\n      dup2\n      mstore\n      0x20\n      add\n      0x00\n      keccak256\n        /* \"contracts/InquireA.sol\":5332:5361  answers[questionId][answerId] */\n      0x00\n        /* \"contracts/InquireA.sol\":5352:5360  answerId */\n      dup7\n        /* \"contracts/InquireA.sol\":5332:5361  answers[questionId][answerId] */\n      dup2\n      mstore\n      0x20\n      add\n      swap1\n      dup2\n      mstore\n      0x20\n      add\n      0x00\n      keccak256\n        /* \"contracts/InquireA.sol\":5308:5361  Answer storage answer = answers[questionId][answerId] */\n      swap1\n      pop\n        /* \"contracts/InquireA.sol\":5390:5391  1 */\n      0x01\n        /* \"contracts/InquireA.sol\":5372:5378  answer */\n      dup2\n        /* \"contracts/InquireA.sol\":5372:5386  answer.upvotes */\n      0x03\n      add\n      0x00\n        /* \"contracts/InquireA.sol\":5372:5391  answer.upvotes += 1 */\n      dup3\n      dup3\n      sload\n      tag_200\n      swap2\n      swap1\n      tag_201\n      jump\t// in\n    tag_200:\n      swap3\n      pop\n      pop\n      dup2\n      swap1\n      sstore\n      pop\n        /* \"contracts/InquireA.sol\":5440:5449  msg.value */\n      callvalue\n        /* \"contracts/InquireA.sol\":5402:5411  questions */\n      0x04\n        /* \"contracts/InquireA.sol\":5402:5423  questions[questionId] */\n      0x00\n        /* \"contracts/InquireA.sol\":5412:5422  questionId */\n      dup9\n        /* \"contracts/InquireA.sol\":5402:5423  questions[questionId] */\n      dup2\n      mstore\n      0x20\n      add\n      swap1\n      dup2\n      mstore\n      0x20\n      add\n      0x00\n      keccak256\n        /* \"contracts/InquireA.sol\":5402:5436  questions[questionId].rewardAmount */\n      0x05\n      add\n      0x00\n        /* \"contracts/InquireA.sol\":5402:5449  questions[questionId].rewardAmount += msg.value */\n      dup3\n      dup3\n      sload\n      tag_202\n      swap2\n      swap1\n      tag_201\n      jump\t// in\n    tag_202:\n      swap3\n      pop\n      pop\n      dup2\n      swap1\n      sstore\n      pop\n        /* \"contracts/InquireA.sol\":5495:5505  msg.sender */\n      caller\n        /* \"contracts/InquireA.sol\":5467:5506  Voted(questionId, answerId, msg.sender) */\n      0xffffffffffffffffffffffffffffffffffffffff\n      and\n      0xd91ecafccf238642dccd41161308b3eebe62a12bc5819daf5164780c221ec95b\n        /* \"contracts/InquireA.sol\":5473:5483  questionId */\n      dup8\n        /* \"contracts/InquireA.sol\":5485:5493  answerId */\n      dup8\n        /* \"contracts/InquireA.sol\":5467:5506  Voted(questionId, answerId, msg.sender) */\n      mload(0x40)\n      tag_203\n      swap3\n      swap2\n      swap1\n      tag_134\n      jump\t// in\n    tag_203:\n      mload(0x40)\n      dup1\n      swap2\n      sub\n      swap1\n      log2\n        /* \"contracts/InquireA.sol\":5089:5514  {... */\n      pop\n      pop\n        /* \"contracts/InquireA.sol\":2129:2130  _ */\n      pop\n        /* \"contracts/InquireA.sol\":4964:5514  function voteForAnswer(uint256 questionId, uint256 answerId) public payable questionExists(questionId) notClosed(questionId) {... */\n      pop\n      pop\n      pop\n      jump\t// out\n        /* \"contracts/InquireA.sol\":1192:1235  mapping(address => uint256) public balances */\n    tag_48:\n      mstore(0x20, 0x06)\n      dup1\n      0x00\n      mstore\n      keccak256(0x00, 0x40)\n      0x00\n      swap2\n      pop\n      swap1\n      pop\n      sload\n      dup2\n      jump\t// out\n        /* \"contracts/InquireA.sol\":1072:1117  mapping(uint256 => Question) public questions */\n    tag_55:\n      mstore(0x20, 0x04)\n      dup1\n      0x00\n      mstore\n      keccak256(0x00, 0x40)\n      0x00\n      swap2\n      pop\n      swap1\n      pop\n      dup1\n      0x00\n      add\n      sload\n      swap1\n      dup1\n      0x01\n      add\n      0x00\n      swap1\n      sload\n      swap1\n      0x0100\n      exp\n      swap1\n      div\n      0xffffffffffffffffffffffffffffffffffffffff\n      and\n      swap1\n      dup1\n      0x02\n      add\n      dup1\n      sload\n      tag_204\n      swap1\n      tag_143\n      jump\t// in\n    tag_204:\n      dup1\n      0x1f\n      add\n      0x20\n      dup1\n      swap2\n      div\n      mul\n      0x20\n      add\n      mload(0x40)\n      swap1\n      dup2\n      add\n      0x40\n      mstore\n      dup1\n      swap3\n      swap2\n      swap1\n      dup2\n      dup2\n      mstore\n      0x20\n      add\n      dup3\n      dup1\n      sload\n      tag_205\n      swap1\n      tag_143\n      jump\t// in\n    tag_205:\n      dup1\n      iszero\n      tag_206\n      jumpi\n      dup1\n      0x1f\n      lt\n      tag_207\n      jumpi\n      0x0100\n      dup1\n      dup4\n      sload\n      div\n      mul\n      dup4\n      mstore\n      swap2\n      0x20\n      add\n      swap2\n      jump(tag_206)\n    tag_207:\n      dup3\n      add\n      swap2\n      swap1\n      0x00\n      mstore\n      keccak256(0x00, 0x20)\n      swap1\n    tag_208:\n      dup2\n      sload\n      dup2\n      mstore\n      swap1\n      0x01\n      add\n      swap1\n      0x20\n      add\n      dup1\n      dup4\n      gt\n      tag_208\n      jumpi\n      dup3\n      swap1\n      sub\n      0x1f\n      and\n      dup3\n      add\n      swap2\n    tag_206:\n      pop\n      pop\n      pop\n      pop\n      pop\n      swap1\n      dup1\n      0x03\n      add\n      dup1\n      sload\n      tag_209\n      swap1\n      tag_143\n      jump\t// in\n    tag_209:\n      dup1\n      0x1f\n      add\n      0x20\n      dup1\n      swap2\n      div\n      mul\n      0x20\n      add\n      mload(0x40)\n      swap1\n      dup2\n      add\n      0x40\n      mstore\n      dup1\n      swap3\n      swap2\n      swap1\n      dup2\n      dup2\n      mstore\n      0x20\n      add\n      dup3\n      dup1\n      sload\n      tag_210\n      swap1\n      tag_143\n      jump\t// in\n    tag_210:\n      dup1\n      iszero\n      tag_211\n      jumpi\n      dup1\n      0x1f\n      lt\n      tag_212\n      jumpi\n      0x0100\n      dup1\n      dup4\n      sload\n      div\n      mul\n      dup4\n      mstore\n      swap2\n      0x20\n      add\n      swap2\n      jump(tag_211)\n    tag_212:\n      dup3\n      add\n      swap2\n      swap1\n      0x00\n      mstore\n      keccak256(0x00, 0x20)\n      swap1\n    tag_213:\n      dup2\n      sload\n      dup2\n      mstore\n      swap1\n      0x01\n      add\n      swap1\n      0x20\n      add\n      dup1\n      dup4\n      gt\n      tag_213\n      jumpi\n      dup3\n      swap1\n      sub\n      0x1f\n      and\n      dup3\n      add\n      swap2\n    tag_211:\n      pop\n      pop\n      pop\n      pop\n      pop\n      swap1\n      dup1\n      0x04\n      add\n      dup1\n      sload\n      tag_214\n      swap1\n      tag_143\n      jump\t// in\n    tag_214:\n      dup1\n      0x1f\n      add\n      0x20\n      dup1\n      swap2\n      div\n      mul\n      0x20\n      add\n      mload(0x40)\n      swap1\n      dup2\n      add\n      0x40\n      mstore\n      dup1\n      swap3\n      swap2\n      swap1\n      dup2\n      dup2\n      mstore\n      0x20\n      add\n      dup3\n      dup1\n      sload\n      tag_215\n      swap1\n      tag_143\n      jump\t// in\n    tag_215:\n      dup1\n      iszero\n      tag_216\n      jumpi\n      dup1\n      0x1f\n      lt\n      tag_217\n      jumpi\n      0x0100\n      dup1\n      dup4\n      sload\n      div\n      mul\n      dup4\n      mstore\n      swap2\n      0x20\n      add\n      swap2\n      jump(tag_216)\n    tag_217:\n      dup3\n      add\n      swap2\n      swap1\n      0x00\n      mstore\n      keccak256(0x00, 0x20)\n      swap1\n    tag_218:\n      dup2\n      sload\n      dup2\n      mstore\n      swap1\n      0x01\n      add\n      swap1\n      0x20\n      add\n      dup1\n      dup4\n      gt\n      tag_218\n      jumpi\n      dup3\n      swap1\n      sub\n      0x1f\n      and\n      dup3\n      add\n      swap2\n    tag_216:\n      pop\n      pop\n      pop\n      pop\n      pop\n      swap1\n      dup1\n      0x05\n      add\n      sload\n      swap1\n      dup1\n      0x06\n      add\n      sload\n      swap1\n      dup1\n      0x07\n      add\n      sload\n      swap1\n      dup1\n      0x08\n      add\n      0x00\n      swap1\n      sload\n      swap1\n      0x0100\n      exp\n      swap1\n      div\n      0xff\n      and\n      swap1\n      dup1\n      0x09\n      add\n      sload\n      swap1\n      pop\n      dup11\n      jump\t// out\n        /* \"contracts/InquireA.sol\":7043:7264  function withdraw() public {... */\n    tag_60:\n        /* \"contracts/InquireA.sol\":7081:7095  uint256 amount */\n      0x00\n        /* \"contracts/InquireA.sol\":7098:7106  balances */\n      0x06\n        /* \"contracts/InquireA.sol\":7098:7118  balances[msg.sender] */\n      0x00\n        /* \"contracts/InquireA.sol\":7107:7117  msg.sender */\n      caller\n        /* \"contracts/InquireA.sol\":7098:7118  balances[msg.sender] */\n      0xffffffffffffffffffffffffffffffffffffffff\n      and\n      0xffffffffffffffffffffffffffffffffffffffff\n      and\n      dup2\n      mstore\n      0x20\n      add\n      swap1\n      dup2\n      mstore\n      0x20\n      add\n      0x00\n      keccak256\n      sload\n        /* \"contracts/InquireA.sol\":7081:7118  uint256 amount = balances[msg.sender] */\n      swap1\n      pop\n        /* \"contracts/InquireA.sol\":7146:7147  0 */\n      0x00\n        /* \"contracts/InquireA.sol\":7137:7143  amount */\n      dup2\n        /* \"contracts/InquireA.sol\":7137:7147  amount > 0 */\n      gt\n        /* \"contracts/InquireA.sol\":7129:7172  require(amount > 0, \"No funds to withdraw\") */\n      tag_220\n      jumpi\n      mload(0x40)\n      0x08c379a000000000000000000000000000000000000000000000000000000000\n      dup2\n      mstore\n      0x04\n      add\n      tag_221\n      swap1\n      tag_222\n      jump\t// in\n    tag_221:\n      mload(0x40)\n      dup1\n      swap2\n      sub\n      swap1\n      revert\n    tag_220:\n        /* \"contracts/InquireA.sol\":7208:7209  0 */\n      0x00\n        /* \"contracts/InquireA.sol\":7185:7193  balances */\n      0x06\n        /* \"contracts/InquireA.sol\":7185:7205  balances[msg.sender] */\n      0x00\n        /* \"contracts/InquireA.sol\":7194:7204  msg.sender */\n      caller\n        /* \"contracts/InquireA.sol\":7185:7205  balances[msg.sender] */\n      0xffffffffffffffffffffffffffffffffffffffff\n      and\n      0xffffffffffffffffffffffffffffffffffffffff\n      and\n      dup2\n      mstore\n      0x20\n      add\n      swap1\n      dup2\n      mstore\n      0x20\n      add\n      0x00\n      keccak256\n        /* \"contracts/InquireA.sol\":7185:7209  balances[msg.sender] = 0 */\n      dup2\n      swap1\n      sstore\n      pop\n        /* \"contracts/InquireA.sol\":7228:7238  msg.sender */\n      caller\n        /* \"contracts/InquireA.sol\":7220:7248  payable(msg.sender).transfer */\n      0xffffffffffffffffffffffffffffffffffffffff\n      and\n        /* \"contracts/InquireA.sol\":7220:7256  payable(msg.sender).transfer(amount) */\n      0x08fc\n        /* \"contracts/InquireA.sol\":7249:7255  amount */\n      dup3\n        /* \"contracts/InquireA.sol\":7220:7256  payable(msg.sender).transfer(amount) */\n      swap1\n      dup2\n      iszero\n      mul\n      swap1\n      mload(0x40)\n      0x00\n      mload(0x40)\n      dup1\n      dup4\n      sub\n      dup2\n      dup6\n      dup9\n      dup9\n      call\n      swap4\n      pop\n      pop\n      pop\n      pop\n      iszero\n      dup1\n      iszero\n      tag_224\n      jumpi\n      returndatasize\n      0x00\n      dup1\n      returndatacopy\n      revert(0x00, returndatasize)\n    tag_224:\n      pop\n        /* \"contracts/InquireA.sol\":7070:7264  {... */\n      pop\n        /* \"contracts/InquireA.sol\":7043:7264  function withdraw() public {... */\n      jump\t// out\n        /* \"contracts/InquireA.sol\":4668:4918  function getAnswerById(uint256 questionId, uint256 answerId) public view returns (Answer memory) {... */\n    tag_64:\n        /* \"contracts/InquireA.sol\":4750:4763  Answer memory */\n      tag_225\n      tag_226\n      jump\t// in\n    tag_225:\n        /* \"contracts/InquireA.sol\":4835:4836  0 */\n      0x00\n        /* \"contracts/InquireA.sol\":4784:4837  answers[questionId][answerId].responder != address(0) */\n      0xffffffffffffffffffffffffffffffffffffffff\n      and\n        /* \"contracts/InquireA.sol\":4784:4791  answers */\n      0x05\n        /* \"contracts/InquireA.sol\":4784:4803  answers[questionId] */\n      0x00\n        /* \"contracts/InquireA.sol\":4792:4802  questionId */\n      dup6\n        /* \"contracts/InquireA.sol\":4784:4803  answers[questionId] */\n      dup2\n      mstore\n      0x20\n      add\n      swap1\n      dup2\n      mstore\n      0x20\n      add\n      0x00\n      keccak256\n        /* \"contracts/InquireA.sol\":4784:4813  answers[questionId][answerId] */\n      0x00\n        /* \"contracts/InquireA.sol\":4804:4812  answerId */\n      dup5\n        /* \"contracts/InquireA.sol\":4784:4813  answers[questionId][answerId] */\n      dup2\n      mstore\n      0x20\n      add\n      swap1\n      dup2\n      mstore\n      0x20\n      add\n      0x00\n      keccak256\n        /* \"contracts/InquireA.sol\":4784:4823  answers[questionId][answerId].responder */\n      0x01\n      add\n      0x00\n      swap1\n      sload\n      swap1\n      0x0100\n      exp\n      swap1\n      div\n      0xffffffffffffffffffffffffffffffffffffffff\n      and\n        /* \"contracts/InquireA.sol\":4784:4837  answers[questionId][answerId].responder != address(0) */\n      0xffffffffffffffffffffffffffffffffffffffff\n      and\n      sub\n        /* \"contracts/InquireA.sol\":4776:4863  require(answers[questionId][answerId].responder != address(0), \"Answer does not exist\") */\n      tag_228\n      jumpi\n      mload(0x40)\n      0x08c379a000000000000000000000000000000000000000000000000000000000\n      dup2\n      mstore\n      0x04\n      add\n      tag_229\n      swap1\n      tag_230\n      jump\t// in\n    tag_229:\n      mload(0x40)\n      dup1\n      swap2\n      sub\n      swap1\n      revert\n    tag_228:\n        /* \"contracts/InquireA.sol\":4881:4888  answers */\n      0x05\n        /* \"contracts/InquireA.sol\":4881:4900  answers[questionId] */\n      0x00\n        /* \"contracts/InquireA.sol\":4889:4899  questionId */\n      dup5\n        /* \"contracts/InquireA.sol\":4881:4900  answers[questionId] */\n      dup2\n      mstore\n      0x20\n      add\n      swap1\n      dup2\n      mstore\n      0x20\n      add\n      0x00\n      keccak256\n        /* \"contracts/InquireA.sol\":4881:4910  answers[questionId][answerId] */\n      0x00\n        /* \"contracts/InquireA.sol\":4901:4909  answerId */\n      dup4\n        /* \"contracts/InquireA.sol\":4881:4910  answers[questionId][answerId] */\n      dup2\n      mstore\n      0x20\n      add\n      swap1\n      dup2\n      mstore\n      0x20\n      add\n      0x00\n      keccak256\n        /* \"contracts/InquireA.sol\":4874:4910  return answers[questionId][answerId] */\n      mload(0x40)\n      dup1\n      0xc0\n      add\n      0x40\n      mstore\n      swap1\n      dup2\n      0x00\n      dup3\n      add\n      sload\n      dup2\n      mstore\n      0x20\n      add\n      0x01\n      dup3\n      add\n      0x00\n      swap1\n      sload\n      swap1\n      0x0100\n      exp\n      swap1\n      div\n      0xffffffffffffffffffffffffffffffffffffffff\n      and\n      0xffffffffffffffffffffffffffffffffffffffff\n      and\n      0xffffffffffffffffffffffffffffffffffffffff\n      and\n      dup2\n      mstore\n      0x20\n      add\n      0x02\n      dup3\n      add\n      dup1\n      sload\n      tag_231\n      swap1\n      tag_143\n      jump\t// in\n    tag_231:\n      dup1\n      0x1f\n      add\n      0x20\n      dup1\n      swap2\n      div\n      mul\n      0x20\n      add\n      mload(0x40)\n      swap1\n      dup2\n      add\n      0x40\n      mstore\n      dup1\n      swap3\n      swap2\n      swap1\n      dup2\n      dup2\n      mstore\n      0x20\n      add\n      dup3\n      dup1\n      sload\n      tag_232\n      swap1\n      tag_143\n      jump\t// in\n    tag_232:\n      dup1\n      iszero\n      tag_233\n      jumpi\n      dup1\n      0x1f\n      lt\n      tag_234\n      jumpi\n      0x0100\n      dup1\n      dup4\n      sload\n      div\n      mul\n      dup4\n      mstore\n      swap2\n      0x20\n      add\n      swap2\n      jump(tag_233)\n    tag_234:\n      dup3\n      add\n      swap2\n      swap1\n      0x00\n      mstore\n      keccak256(0x00, 0x20)\n      swap1\n    tag_235:\n      dup2\n      sload\n      dup2\n      mstore\n      swap1\n      0x01\n      add\n      swap1\n      0x20\n      add\n      dup1\n      dup4\n      gt\n      tag_235\n      jumpi\n      dup3\n      swap1\n      sub\n      0x1f\n      and\n      dup3\n      add\n      swap2\n    tag_233:\n      pop\n      pop\n      pop\n      pop\n      pop\n      dup2\n      mstore\n      0x20\n      add\n      0x03\n      dup3\n      add\n      sload\n      dup2\n      mstore\n      0x20\n      add\n      0x04\n      dup3\n      add\n      sload\n      dup2\n      mstore\n      0x20\n      add\n      0x05\n      dup3\n      add\n      sload\n      dup2\n      mstore\n      pop\n      pop\n      swap1\n      pop\n        /* \"contracts/InquireA.sol\":4668:4918  function getAnswerById(uint256 questionId, uint256 answerId) public view returns (Answer memory) {... */\n      swap3\n      swap2\n      pop\n      pop\n      jump\t// out\n        /* \"contracts/InquireA.sol\":7422:8098  function getQuestionsByCategory(string memory _category) public view returns (uint256[] memory) {... */\n    tag_71:\n        /* \"contracts/InquireA.sol\":7500:7516  uint256[] memory */\n      0x60\n        /* \"contracts/InquireA.sol\":7529:7562  uint256[] memory matchedQuestions */\n      0x00\n        /* \"contracts/InquireA.sol\":7579:7596  questionIdCounter */\n      sload(0x02)\n        /* \"contracts/InquireA.sol\":7565:7597  new uint256[](questionIdCounter) */\n      0xffffffffffffffff\n      dup2\n      gt\n      iszero\n      tag_237\n      jumpi\n      tag_238\n      tag_239\n      jump\t// in\n    tag_238:\n    tag_237:\n      mload(0x40)\n      swap1\n      dup1\n      dup3\n      mstore\n      dup1\n      0x20\n      mul\n      0x20\n      add\n      dup3\n      add\n      0x40\n      mstore\n      dup1\n      iszero\n      tag_240\n      jumpi\n      dup2\n      0x20\n      add\n      0x20\n      dup3\n      mul\n      dup1\n      calldatasize\n      dup4\n      calldatacopy\n      dup1\n      dup3\n      add\n      swap2\n      pop\n      pop\n      swap1\n      pop\n    tag_240:\n      pop\n        /* \"contracts/InquireA.sol\":7529:7597  uint256[] memory matchedQuestions = new uint256[](questionIdCounter) */\n      swap1\n      pop\n        /* \"contracts/InquireA.sol\":7608:7621  uint256 count */\n      0x00\n        /* \"contracts/InquireA.sol\":7643:7652  uint256 i */\n      dup1\n        /* \"contracts/InquireA.sol\":7638:7876  for (uint256 i = 0; i < questionIdCounter; i++) {... */\n    tag_241:\n        /* \"contracts/InquireA.sol\":7662:7679  questionIdCounter */\n      sload(0x02)\n        /* \"contracts/InquireA.sol\":7658:7659  i */\n      dup2\n        /* \"contracts/InquireA.sol\":7658:7679  i < questionIdCounter */\n      lt\n        /* \"contracts/InquireA.sol\":7638:7876  for (uint256 i = 0; i < questionIdCounter; i++) {... */\n      iszero\n      tag_242\n      jumpi\n        /* \"contracts/InquireA.sol\":7764:7773  _category */\n      dup5\n        /* \"contracts/InquireA.sol\":7748:7775  keccak256(bytes(_category)) */\n      dup1\n      mload\n      swap1\n      0x20\n      add\n      keccak256\n        /* \"contracts/InquireA.sol\":7721:7730  questions */\n      0x04\n        /* \"contracts/InquireA.sol\":7721:7733  questions[i] */\n      0x00\n        /* \"contracts/InquireA.sol\":7731:7732  i */\n      dup4\n        /* \"contracts/InquireA.sol\":7721:7733  questions[i] */\n      dup2\n      mstore\n      0x20\n      add\n      swap1\n      dup2\n      mstore\n      0x20\n      add\n      0x00\n      keccak256\n        /* \"contracts/InquireA.sol\":7721:7742  questions[i].category */\n      0x04\n      add\n        /* \"contracts/InquireA.sol\":7705:7744  keccak256(bytes(questions[i].category)) */\n      mload(0x40)\n      tag_244\n      swap2\n      swap1\n      tag_245\n      jump\t// in\n    tag_244:\n      mload(0x40)\n      dup1\n      swap2\n      sub\n      swap1\n      keccak256\n        /* \"contracts/InquireA.sol\":7705:7775  keccak256(bytes(questions[i].category)) == keccak256(bytes(_category)) */\n      sub\n        /* \"contracts/InquireA.sol\":7701:7865  if (keccak256(bytes(questions[i].category)) == keccak256(bytes(_category))) {... */\n      tag_246\n      jumpi\n        /* \"contracts/InquireA.sol\":7822:7823  i */\n      dup1\n        /* \"contracts/InquireA.sol\":7796:7812  matchedQuestions */\n      dup4\n        /* \"contracts/InquireA.sol\":7813:7818  count */\n      dup4\n        /* \"contracts/InquireA.sol\":7796:7819  matchedQuestions[count] */\n      dup2\n      mload\n      dup2\n      lt\n      tag_247\n      jumpi\n      tag_248\n      tag_249\n      jump\t// in\n    tag_248:\n    tag_247:\n      0x20\n      mul\n      0x20\n      add\n      add\n        /* \"contracts/InquireA.sol\":7796:7823  matchedQuestions[count] = i */\n      dup2\n      dup2\n      mstore\n      pop\n      pop\n        /* \"contracts/InquireA.sol\":7842:7849  count++ */\n      dup2\n      dup1\n      tag_250\n      swap1\n      tag_162\n      jump\t// in\n    tag_250:\n      swap3\n      pop\n      pop\n        /* \"contracts/InquireA.sol\":7701:7865  if (keccak256(bytes(questions[i].category)) == keccak256(bytes(_category))) {... */\n    tag_246:\n        /* \"contracts/InquireA.sol\":7681:7684  i++ */\n      dup1\n      dup1\n      0x01\n      add\n      swap2\n      pop\n      pop\n        /* \"contracts/InquireA.sol\":7638:7876  for (uint256 i = 0; i < questionIdCounter; i++) {... */\n      jump(tag_241)\n    tag_242:\n      pop\n        /* \"contracts/InquireA.sol\":7914:7937  uint256[] memory result */\n      0x00\n        /* \"contracts/InquireA.sol\":7954:7959  count */\n      dup2\n        /* \"contracts/InquireA.sol\":7940:7960  new uint256[](count) */\n      0xffffffffffffffff\n      dup2\n      gt\n      iszero\n      tag_251\n      jumpi\n      tag_252\n      tag_239\n      jump\t// in\n    tag_252:\n    tag_251:\n      mload(0x40)\n      swap1\n      dup1\n      dup3\n      mstore\n      dup1\n      0x20\n      mul\n      0x20\n      add\n      dup3\n      add\n      0x40\n      mstore\n      dup1\n      iszero\n      tag_253\n      jumpi\n      dup2\n      0x20\n      add\n      0x20\n      dup3\n      mul\n      dup1\n      calldatasize\n      dup4\n      calldatacopy\n      dup1\n      dup3\n      add\n      swap2\n      pop\n      pop\n      swap1\n      pop\n    tag_253:\n      pop\n        /* \"contracts/InquireA.sol\":7914:7960  uint256[] memory result = new uint256[](count) */\n      swap1\n      pop\n        /* \"contracts/InquireA.sol\":7976:7985  uint256 i */\n      0x00\n        /* \"contracts/InquireA.sol\":7971:8065  for (uint256 i = 0; i < count; i++) {... */\n    tag_254:\n        /* \"contracts/InquireA.sol\":7995:8000  count */\n      dup3\n        /* \"contracts/InquireA.sol\":7991:7992  i */\n      dup2\n        /* \"contracts/InquireA.sol\":7991:8000  i < count */\n      lt\n        /* \"contracts/InquireA.sol\":7971:8065  for (uint256 i = 0; i < count; i++) {... */\n      iszero\n      tag_255\n      jumpi\n        /* \"contracts/InquireA.sol\":8034:8050  matchedQuestions */\n      dup4\n        /* \"contracts/InquireA.sol\":8051:8052  i */\n      dup2\n        /* \"contracts/InquireA.sol\":8034:8053  matchedQuestions[i] */\n      dup2\n      mload\n      dup2\n      lt\n      tag_257\n      jumpi\n      tag_258\n      tag_249\n      jump\t// in\n    tag_258:\n    tag_257:\n      0x20\n      mul\n      0x20\n      add\n      add\n      mload\n        /* \"contracts/InquireA.sol\":8022:8028  result */\n      dup3\n        /* \"contracts/InquireA.sol\":8029:8030  i */\n      dup3\n        /* \"contracts/InquireA.sol\":8022:8031  result[i] */\n      dup2\n      mload\n      dup2\n      lt\n      tag_259\n      jumpi\n      tag_260\n      tag_249\n      jump\t// in\n    tag_260:\n    tag_259:\n      0x20\n      mul\n      0x20\n      add\n      add\n        /* \"contracts/InquireA.sol\":8022:8053  result[i] = matchedQuestions[i] */\n      dup2\n      dup2\n      mstore\n      pop\n      pop\n        /* \"contracts/InquireA.sol\":8002:8005  i++ */\n      dup1\n      dup1\n      0x01\n      add\n      swap2\n      pop\n      pop\n        /* \"contracts/InquireA.sol\":7971:8065  for (uint256 i = 0; i < count; i++) {... */\n      jump(tag_254)\n    tag_255:\n      pop\n        /* \"contracts/InquireA.sol\":8084:8090  result */\n      dup1\n        /* \"contracts/InquireA.sol\":8077:8090  return result */\n      swap4\n      pop\n      pop\n      pop\n      pop\n        /* \"contracts/InquireA.sol\":7422:8098  function getQuestionsByCategory(string memory _category) public view returns (uint256[] memory) {... */\n      swap2\n      swap1\n      pop\n      jump\t// out\n        /* \"contracts/InquireA.sol\":2346:3645  function askQuestion(... */\n    tag_77:\n        /* \"contracts/InquireA.sol\":2575:2576  0 */\n      0x00\n        /* \"contracts/InquireA.sol\":2563:2572  msg.value */\n      callvalue\n        /* \"contracts/InquireA.sol\":2563:2576  msg.value > 0 */\n      gt\n        /* \"contracts/InquireA.sol\":2555:2613  require(msg.value > 0, \"Reward must be greater than zero\") */\n      tag_262\n      jumpi\n      mload(0x40)\n      0x08c379a000000000000000000000000000000000000000000000000000000000\n      dup2\n      mstore\n      0x04\n      add\n      tag_263\n      swap1\n      tag_264\n      jump\t// in\n    tag_263:\n      mload(0x40)\n      dup1\n      swap2\n      sub\n      swap1\n      revert\n    tag_262:\n        /* \"contracts/InquireA.sol\":2658:2659  0 */\n      0x00\n        /* \"contracts/InquireA.sol\":2638:2647  _category */\n      dup3\n        /* \"contracts/InquireA.sol\":2632:2655  bytes(_category).length */\n      mload\n        /* \"contracts/InquireA.sol\":2632:2659  bytes(_category).length > 0 */\n      gt\n        /* \"contracts/InquireA.sol\":2624:2688  require(bytes(_category).length > 0, \"Category cannot be empty\") */\n      tag_265\n      jumpi\n      mload(0x40)\n      0x08c379a000000000000000000000000000000000000000000000000000000000\n      dup2\n      mstore\n      0x04\n      add\n      tag_266\n      swap1\n      tag_267\n      jump\t// in\n    tag_266:\n      mload(0x40)\n      dup1\n      swap2\n      sub\n      swap1\n      revert\n    tag_265:\n        /* \"contracts/InquireA.sol\":2701:2717  uint256 deadline */\n      0x00\n        /* \"contracts/InquireA.sol\":2751:2773  DeadlinePeriod.OneWeek */\n      dup1\n        /* \"contracts/InquireA.sol\":2732:2773  _deadlinePeriod == DeadlinePeriod.OneWeek */\n      0x02\n      dup2\n      gt\n      iszero\n      tag_268\n      jumpi\n      tag_269\n      tag_270\n      jump\t// in\n    tag_269:\n    tag_268:\n        /* \"contracts/InquireA.sol\":2732:2747  _deadlinePeriod */\n      dup3\n        /* \"contracts/InquireA.sol\":2732:2773  _deadlinePeriod == DeadlinePeriod.OneWeek */\n      0x02\n      dup2\n      gt\n      iszero\n      tag_271\n      jumpi\n      tag_272\n      tag_270\n      jump\t// in\n    tag_272:\n    tag_271:\n      sub\n        /* \"contracts/InquireA.sol\":2728:3069  if (_deadlinePeriod == DeadlinePeriod.OneWeek) {... */\n      tag_273\n      jumpi\n        /* \"contracts/InquireA.sol\":299:305  7 days */\n      0x093a80\n        /* \"contracts/InquireA.sol\":2801:2816  block.timestamp */\n      timestamp\n        /* \"contracts/InquireA.sol\":2801:2823  block.timestamp + WEEK */\n      tag_274\n      swap2\n      swap1\n      tag_201\n      jump\t// in\n    tag_274:\n        /* \"contracts/InquireA.sol\":2790:2823  deadline = block.timestamp + WEEK */\n      swap1\n      pop\n        /* \"contracts/InquireA.sol\":2728:3069  if (_deadlinePeriod == DeadlinePeriod.OneWeek) {... */\n      jump(tag_275)\n    tag_273:\n        /* \"contracts/InquireA.sol\":2864:2887  DeadlinePeriod.TwoWeeks */\n      0x01\n        /* \"contracts/InquireA.sol\":2845:2887  _deadlinePeriod == DeadlinePeriod.TwoWeeks */\n      0x02\n      dup2\n      gt\n      iszero\n      tag_276\n      jumpi\n      tag_277\n      tag_270\n      jump\t// in\n    tag_277:\n    tag_276:\n        /* \"contracts/InquireA.sol\":2845:2860  _deadlinePeriod */\n      dup3\n        /* \"contracts/InquireA.sol\":2845:2887  _deadlinePeriod == DeadlinePeriod.TwoWeeks */\n      0x02\n      dup2\n      gt\n      iszero\n      tag_278\n      jumpi\n      tag_279\n      tag_270\n      jump\t// in\n    tag_279:\n    tag_278:\n      sub\n        /* \"contracts/InquireA.sol\":2841:3069  if (_deadlinePeriod == DeadlinePeriod.TwoWeeks) {... */\n      tag_280\n      jumpi\n        /* \"contracts/InquireA.sol\":348:355  14 days */\n      0x127500\n        /* \"contracts/InquireA.sol\":2915:2930  block.timestamp */\n      timestamp\n        /* \"contracts/InquireA.sol\":2915:2942  block.timestamp + TWO_WEEKS */\n      tag_281\n      swap2\n      swap1\n      tag_201\n      jump\t// in\n    tag_281:\n        /* \"contracts/InquireA.sol\":2904:2942  deadline = block.timestamp + TWO_WEEKS */\n      swap1\n      pop\n        /* \"contracts/InquireA.sol\":2841:3069  if (_deadlinePeriod == DeadlinePeriod.TwoWeeks) {... */\n      jump(tag_282)\n    tag_280:\n        /* \"contracts/InquireA.sol\":2983:3006  DeadlinePeriod.OneMonth */\n      0x02\n        /* \"contracts/InquireA.sol\":2964:3006  _deadlinePeriod == DeadlinePeriod.OneMonth */\n      dup1\n      dup2\n      gt\n      iszero\n      tag_283\n      jumpi\n      tag_284\n      tag_270\n      jump\t// in\n    tag_284:\n    tag_283:\n        /* \"contracts/InquireA.sol\":2964:2979  _deadlinePeriod */\n      dup3\n        /* \"contracts/InquireA.sol\":2964:3006  _deadlinePeriod == DeadlinePeriod.OneMonth */\n      0x02\n      dup2\n      gt\n      iszero\n      tag_285\n      jumpi\n      tag_286\n      tag_270\n      jump\t// in\n    tag_286:\n    tag_285:\n      sub\n        /* \"contracts/InquireA.sol\":2960:3069  if (_deadlinePeriod == DeadlinePeriod.OneMonth) {... */\n      tag_287\n      jumpi\n        /* \"contracts/InquireA.sol\":394:401  30 days */\n      0x278d00\n        /* \"contracts/InquireA.sol\":3034:3049  block.timestamp */\n      timestamp\n        /* \"contracts/InquireA.sol\":3034:3057  block.timestamp + MONTH */\n      tag_288\n      swap2\n      swap1\n      tag_201\n      jump\t// in\n    tag_288:\n        /* \"contracts/InquireA.sol\":3023:3057  deadline = block.timestamp + MONTH */\n      swap1\n      pop\n        /* \"contracts/InquireA.sol\":2960:3069  if (_deadlinePeriod == DeadlinePeriod.OneMonth) {... */\n    tag_287:\n        /* \"contracts/InquireA.sol\":2841:3069  if (_deadlinePeriod == DeadlinePeriod.TwoWeeks) {... */\n    tag_282:\n        /* \"contracts/InquireA.sol\":2728:3069  if (_deadlinePeriod == DeadlinePeriod.OneWeek) {... */\n    tag_275:\n        /* \"contracts/InquireA.sol\":3089:3107  uint256 questionId */\n      0x00\n        /* \"contracts/InquireA.sol\":3110:3127  questionIdCounter */\n      0x02\n      0x00\n        /* \"contracts/InquireA.sol\":3110:3129  questionIdCounter++ */\n      dup2\n      sload\n      dup1\n      swap3\n      swap2\n      swap1\n      tag_289\n      swap1\n      tag_162\n      jump\t// in\n    tag_289:\n      swap2\n      swap1\n      pop\n      sstore\n        /* \"contracts/InquireA.sol\":3089:3129  uint256 questionId = questionIdCounter++ */\n      swap1\n      pop\n        /* \"contracts/InquireA.sol\":3164:3545  Question({... */\n      mload(0x40)\n      dup1\n      0x0140\n      add\n      0x40\n      mstore\n      dup1\n        /* \"contracts/InquireA.sol\":3192:3202  questionId */\n      dup3\n        /* \"contracts/InquireA.sol\":3164:3545  Question({... */\n      dup2\n      mstore\n      0x20\n      add\n        /* \"contracts/InquireA.sol\":3224:3234  msg.sender */\n      caller\n        /* \"contracts/InquireA.sol\":3164:3545  Question({... */\n      0xffffffffffffffffffffffffffffffffffffffff\n      and\n      dup2\n      mstore\n      0x20\n      add\n        /* \"contracts/InquireA.sol\":3263:3276  _questionText */\n      dup8\n        /* \"contracts/InquireA.sol\":3164:3545  Question({... */\n      dup2\n      mstore\n      0x20\n      add\n        /* \"contracts/InquireA.sol\":3308:3324  _questionContent */\n      dup7\n        /* \"contracts/InquireA.sol\":3164:3545  Question({... */\n      dup2\n      mstore\n      0x20\n      add\n        /* \"contracts/InquireA.sol\":3350:3359  _category */\n      dup6\n        /* \"contracts/InquireA.sol\":3164:3545  Question({... */\n      dup2\n      mstore\n      0x20\n      add\n        /* \"contracts/InquireA.sol\":3388:3397  msg.value */\n      callvalue\n        /* \"contracts/InquireA.sol\":3164:3545  Question({... */\n      dup2\n      mstore\n      0x20\n      add\n        /* \"contracts/InquireA.sol\":3423:3438  block.timestamp */\n      timestamp\n        /* \"contracts/InquireA.sol\":3164:3545  Question({... */\n      dup2\n      mstore\n      0x20\n      add\n        /* \"contracts/InquireA.sol\":3463:3471  deadline */\n      dup4\n        /* \"contracts/InquireA.sol\":3164:3545  Question({... */\n      dup2\n      mstore\n      0x20\n      add\n        /* \"contracts/InquireA.sol\":3496:3501  false */\n      0x00\n        /* \"contracts/InquireA.sol\":3164:3545  Question({... */\n      iszero\n      iszero\n      dup2\n      mstore\n      0x20\n      add\n        /* \"contracts/InquireA.sol\":3532:3533  0 */\n      0x00\n        /* \"contracts/InquireA.sol\":3164:3545  Question({... */\n      dup2\n      mstore\n      pop\n        /* \"contracts/InquireA.sol\":3140:3149  questions */\n      0x04\n        /* \"contracts/InquireA.sol\":3140:3161  questions[questionId] */\n      0x00\n        /* \"contracts/InquireA.sol\":3150:3160  questionId */\n      dup4\n        /* \"contracts/InquireA.sol\":3140:3161  questions[questionId] */\n      dup2\n      mstore\n      0x20\n      add\n      swap1\n      dup2\n      mstore\n      0x20\n      add\n      0x00\n      keccak256\n        /* \"contracts/InquireA.sol\":3140:3545  questions[questionId] = Question({... */\n      0x00\n      dup3\n      add\n      mload\n      dup2\n      0x00\n      add\n      sstore\n      0x20\n      dup3\n      add\n      mload\n      dup2\n      0x01\n      add\n      exp(0x0100, 0x00)\n      dup2\n      sload\n      dup2\n      0xffffffffffffffffffffffffffffffffffffffff\n      mul\n      not\n      and\n      swap1\n      dup4\n      0xffffffffffffffffffffffffffffffffffffffff\n      and\n      mul\n      or\n      swap1\n      sstore\n      pop\n      0x40\n      dup3\n      add\n      mload\n      dup2\n      0x02\n      add\n      swap1\n      dup2\n      tag_290\n      swap2\n      swap1\n      tag_164\n      jump\t// in\n    tag_290:\n      pop\n      0x60\n      dup3\n      add\n      mload\n      dup2\n      0x03\n      add\n      swap1\n      dup2\n      tag_291\n      swap2\n      swap1\n      tag_164\n      jump\t// in\n    tag_291:\n      pop\n      0x80\n      dup3\n      add\n      mload\n      dup2\n      0x04\n      add\n      swap1\n      dup2\n      tag_292\n      swap2\n      swap1\n      tag_164\n      jump\t// in\n    tag_292:\n      pop\n      0xa0\n      dup3\n      add\n      mload\n      dup2\n      0x05\n      add\n      sstore\n      0xc0\n      dup3\n      add\n      mload\n      dup2\n      0x06\n      add\n      sstore\n      0xe0\n      dup3\n      add\n      mload\n      dup2\n      0x07\n      add\n      sstore\n      0x0100\n      dup3\n      add\n      mload\n      dup2\n      0x08\n      add\n      exp(0x0100, 0x00)\n      dup2\n      sload\n      dup2\n      0xff\n      mul\n      not\n      and\n      swap1\n      dup4\n      iszero\n      iszero\n      mul\n      or\n      swap1\n      sstore\n      pop\n      0x0120\n      dup3\n      add\n      mload\n      dup2\n      0x09\n      add\n      sstore\n      swap1\n      pop\n      pop\n        /* \"contracts/InquireA.sol\":3589:3599  msg.sender */\n      caller\n        /* \"contracts/InquireA.sol\":3563:3637  QuestionAsked(questionId, msg.sender, _questionText, msg.value, _category) */\n      0xffffffffffffffffffffffffffffffffffffffff\n      and\n      0xb8105899d34d8481e717a601e8d7a732c27b0ab23778e01145f2f3eb24a1120c\n        /* \"contracts/InquireA.sol\":3577:3587  questionId */\n      dup3\n        /* \"contracts/InquireA.sol\":3601:3614  _questionText */\n      dup9\n        /* \"contracts/InquireA.sol\":3616:3625  msg.value */\n      callvalue\n        /* \"contracts/InquireA.sol\":3627:3636  _category */\n      dup9\n        /* \"contracts/InquireA.sol\":3563:3637  QuestionAsked(questionId, msg.sender, _questionText, msg.value, _category) */\n      mload(0x40)\n      tag_293\n      swap5\n      swap4\n      swap3\n      swap2\n      swap1\n      tag_294\n      jump\t// in\n    tag_293:\n      mload(0x40)\n      dup1\n      swap2\n      sub\n      swap1\n      log2\n        /* \"contracts/InquireA.sol\":2544:3645  {... */\n      pop\n      pop\n        /* \"contracts/InquireA.sol\":2346:3645  function askQuestion(... */\n      pop\n      pop\n      pop\n      pop\n      jump\t// out\n        /* \"contracts/InquireA.sol\":5996:6997  function distributeRewards(uint256 questionId) public questionExists(questionId) {... */\n    tag_81:\n        /* \"contracts/InquireA.sol\":6065:6075  questionId */\n      dup1\n        /* \"contracts/InquireA.sol\":2088:2089  0 */\n      0x00\n        /* \"contracts/InquireA.sol\":2049:2090  questions[questionId].asker != address(0) */\n      0xffffffffffffffffffffffffffffffffffffffff\n      and\n        /* \"contracts/InquireA.sol\":2049:2058  questions */\n      0x04\n        /* \"contracts/InquireA.sol\":2049:2070  questions[questionId] */\n      0x00\n        /* \"contracts/InquireA.sol\":2059:2069  questionId */\n      dup4\n        /* \"contracts/InquireA.sol\":2049:2070  questions[questionId] */\n      dup2\n      mstore\n      0x20\n      add\n      swap1\n      dup2\n      mstore\n      0x20\n      add\n      0x00\n      keccak256\n        /* \"contracts/InquireA.sol\":2049:2076  questions[questionId].asker */\n      0x01\n      add\n      0x00\n      swap1\n      sload\n      swap1\n      0x0100\n      exp\n      swap1\n      div\n      0xffffffffffffffffffffffffffffffffffffffff\n      and\n        /* \"contracts/InquireA.sol\":2049:2090  questions[questionId].asker != address(0) */\n      0xffffffffffffffffffffffffffffffffffffffff\n      and\n      sub\n        /* \"contracts/InquireA.sol\":2041:2118  require(questions[questionId].asker != address(0), \"Question does not exist\") */\n      tag_296\n      jumpi\n      mload(0x40)\n      0x08c379a000000000000000000000000000000000000000000000000000000000\n      dup2\n      mstore\n      0x04\n      add\n      tag_297\n      swap1\n      tag_124\n      jump\t// in\n    tag_297:\n      mload(0x40)\n      dup1\n      swap2\n      sub\n      swap1\n      revert\n    tag_296:\n        /* \"contracts/InquireA.sol\":6088:6113  Question storage question */\n      0x00\n        /* \"contracts/InquireA.sol\":6116:6125  questions */\n      0x04\n        /* \"contracts/InquireA.sol\":6116:6137  questions[questionId] */\n      0x00\n        /* \"contracts/InquireA.sol\":6126:6136  questionId */\n      dup5\n        /* \"contracts/InquireA.sol\":6116:6137  questions[questionId] */\n      dup2\n      mstore\n      0x20\n      add\n      swap1\n      dup2\n      mstore\n      0x20\n      add\n      0x00\n      keccak256\n        /* \"contracts/InquireA.sol\":6088:6137  Question storage question = questions[questionId] */\n      swap1\n      pop\n        /* \"contracts/InquireA.sol\":6174:6182  question */\n      dup1\n        /* \"contracts/InquireA.sol\":6174:6191  question.deadline */\n      0x07\n      add\n      sload\n        /* \"contracts/InquireA.sol\":6156:6171  block.timestamp */\n      timestamp\n        /* \"contracts/InquireA.sol\":6156:6191  block.timestamp > question.deadline */\n      gt\n        /* \"contracts/InquireA.sol\":6148:6229  require(block.timestamp > question.deadline, \"Cannot distribute before deadline\") */\n      tag_299\n      jumpi\n      mload(0x40)\n      0x08c379a000000000000000000000000000000000000000000000000000000000\n      dup2\n      mstore\n      0x04\n      add\n      tag_300\n      swap1\n      tag_301\n      jump\t// in\n    tag_300:\n      mload(0x40)\n      dup1\n      swap2\n      sub\n      swap1\n      revert\n    tag_299:\n        /* \"contracts/InquireA.sol\":6249:6257  question */\n      dup1\n        /* \"contracts/InquireA.sol\":6249:6266  question.isClosed */\n      0x08\n      add\n      0x00\n      swap1\n      sload\n      swap1\n      0x0100\n      exp\n      swap1\n      div\n      0xff\n      and\n        /* \"contracts/InquireA.sol\":6248:6266  !question.isClosed */\n      iszero\n        /* \"contracts/InquireA.sol\":6240:6297  require(!question.isClosed, \"Question is already closed\") */\n      tag_302\n      jumpi\n      mload(0x40)\n      0x08c379a000000000000000000000000000000000000000000000000000000000\n      dup2\n      mstore\n      0x04\n      add\n      tag_303\n      swap1\n      tag_128\n      jump\t// in\n    tag_303:\n      mload(0x40)\n      dup1\n      swap2\n      sub\n      swap1\n      revert\n    tag_302:\n        /* \"contracts/InquireA.sol\":6310:6330  uint256 totalUpvotes */\n      0x00\n        /* \"contracts/InquireA.sol\":6345:6364  uint256 totalReward */\n      dup1\n        /* \"contracts/InquireA.sol\":6367:6375  question */\n      dup3\n        /* \"contracts/InquireA.sol\":6367:6388  question.rewardAmount */\n      0x05\n      add\n      sload\n        /* \"contracts/InquireA.sol\":6345:6388  uint256 totalReward = question.rewardAmount */\n      swap1\n      pop\n        /* \"contracts/InquireA.sol\":6438:6447  uint256 i */\n      0x00\n        /* \"contracts/InquireA.sol\":6433:6552  for (uint256 i = 0; i < answerIdCounter; i++) {... */\n    tag_304:\n        /* \"contracts/InquireA.sol\":6457:6472  answerIdCounter */\n      sload(0x03)\n        /* \"contracts/InquireA.sol\":6453:6454  i */\n      dup2\n        /* \"contracts/InquireA.sol\":6453:6472  i < answerIdCounter */\n      lt\n        /* \"contracts/InquireA.sol\":6433:6552  for (uint256 i = 0; i < answerIdCounter; i++) {... */\n      iszero\n      tag_305\n      jumpi\n        /* \"contracts/InquireA.sol\":6510:6517  answers */\n      0x05\n        /* \"contracts/InquireA.sol\":6510:6529  answers[questionId] */\n      0x00\n        /* \"contracts/InquireA.sol\":6518:6528  questionId */\n      dup8\n        /* \"contracts/InquireA.sol\":6510:6529  answers[questionId] */\n      dup2\n      mstore\n      0x20\n      add\n      swap1\n      dup2\n      mstore\n      0x20\n      add\n      0x00\n      keccak256\n        /* \"contracts/InquireA.sol\":6510:6532  answers[questionId][i] */\n      0x00\n        /* \"contracts/InquireA.sol\":6530:6531  i */\n      dup3\n        /* \"contracts/InquireA.sol\":6510:6532  answers[questionId][i] */\n      dup2\n      mstore\n      0x20\n      add\n      swap1\n      dup2\n      mstore\n      0x20\n      add\n      0x00\n      keccak256\n        /* \"contracts/InquireA.sol\":6510:6540  answers[questionId][i].upvotes */\n      0x03\n      add\n      sload\n        /* \"contracts/InquireA.sol\":6494:6540  totalUpvotes += answers[questionId][i].upvotes */\n      dup4\n      tag_307\n      swap2\n      swap1\n      tag_201\n      jump\t// in\n    tag_307:\n      swap3\n      pop\n        /* \"contracts/InquireA.sol\":6474:6477  i++ */\n      dup1\n      dup1\n      0x01\n      add\n      swap2\n      pop\n      pop\n        /* \"contracts/InquireA.sol\":6433:6552  for (uint256 i = 0; i < answerIdCounter; i++) {... */\n      jump(tag_304)\n    tag_305:\n      pop\n        /* \"contracts/InquireA.sol\":6603:6612  uint256 i */\n      0x00\n        /* \"contracts/InquireA.sol\":6598:6953  for (uint256 i = 0; i < answerIdCounter; i++) {... */\n    tag_308:\n        /* \"contracts/InquireA.sol\":6622:6637  answerIdCounter */\n      sload(0x03)\n        /* \"contracts/InquireA.sol\":6618:6619  i */\n      dup2\n        /* \"contracts/InquireA.sol\":6618:6637  i < answerIdCounter */\n      lt\n        /* \"contracts/InquireA.sol\":6598:6953  for (uint256 i = 0; i < answerIdCounter; i++) {... */\n      iszero\n      tag_309\n      jumpi\n        /* \"contracts/InquireA.sol\":6659:6680  Answer storage answer */\n      0x00\n        /* \"contracts/InquireA.sol\":6683:6690  answers */\n      0x05\n        /* \"contracts/InquireA.sol\":6683:6702  answers[questionId] */\n      0x00\n        /* \"contracts/InquireA.sol\":6691:6701  questionId */\n      dup9\n        /* \"contracts/InquireA.sol\":6683:6702  answers[questionId] */\n      dup2\n      mstore\n      0x20\n      add\n      swap1\n      dup2\n      mstore\n      0x20\n      add\n      0x00\n      keccak256\n        /* \"contracts/InquireA.sol\":6683:6705  answers[questionId][i] */\n      0x00\n        /* \"contracts/InquireA.sol\":6703:6704  i */\n      dup4\n        /* \"contracts/InquireA.sol\":6683:6705  answers[questionId][i] */\n      dup2\n      mstore\n      0x20\n      add\n      swap1\n      dup2\n      mstore\n      0x20\n      add\n      0x00\n      keccak256\n        /* \"contracts/InquireA.sol\":6659:6705  Answer storage answer = answers[questionId][i] */\n      swap1\n      pop\n        /* \"contracts/InquireA.sol\":6739:6740  0 */\n      0x00\n        /* \"contracts/InquireA.sol\":6724:6736  totalUpvotes */\n      dup5\n        /* \"contracts/InquireA.sol\":6724:6740  totalUpvotes > 0 */\n      gt\n        /* \"contracts/InquireA.sol\":6720:6942  if (totalUpvotes > 0) {... */\n      iszero\n      tag_311\n      jumpi\n        /* \"contracts/InquireA.sol\":6761:6775  uint256 reward */\n      0x00\n        /* \"contracts/InquireA.sol\":6811:6823  totalUpvotes */\n      dup5\n        /* \"contracts/InquireA.sol\":6796:6807  totalReward */\n      dup5\n        /* \"contracts/InquireA.sol\":6779:6785  answer */\n      dup4\n        /* \"contracts/InquireA.sol\":6779:6793  answer.upvotes */\n      0x03\n      add\n      sload\n        /* \"contracts/InquireA.sol\":6779:6807  answer.upvotes * totalReward */\n      tag_312\n      swap2\n      swap1\n      tag_313\n      jump\t// in\n    tag_312:\n        /* \"contracts/InquireA.sol\":6778:6823  (answer.upvotes * totalReward) / totalUpvotes */\n      tag_314\n      swap2\n      swap1\n      tag_315\n      jump\t// in\n    tag_314:\n        /* \"contracts/InquireA.sol\":6761:6823  uint256 reward = (answer.upvotes * totalReward) / totalUpvotes */\n      swap1\n      pop\n        /* \"contracts/InquireA.sol\":6865:6871  reward */\n      dup1\n        /* \"contracts/InquireA.sol\":6842:6848  answer */\n      dup3\n        /* \"contracts/InquireA.sol\":6842:6861  answer.rewardAmount */\n      0x04\n      add\n      0x00\n        /* \"contracts/InquireA.sol\":6842:6871  answer.rewardAmount += reward */\n      dup3\n      dup3\n      sload\n      tag_316\n      swap2\n      swap1\n      tag_201\n      jump\t// in\n    tag_316:\n      swap3\n      pop\n      pop\n      dup2\n      swap1\n      sstore\n      pop\n        /* \"contracts/InquireA.sol\":6920:6926  reward */\n      dup1\n        /* \"contracts/InquireA.sol\":6890:6898  balances */\n      0x06\n        /* \"contracts/InquireA.sol\":6890:6916  balances[answer.responder] */\n      0x00\n        /* \"contracts/InquireA.sol\":6899:6905  answer */\n      dup5\n        /* \"contracts/InquireA.sol\":6899:6915  answer.responder */\n      0x01\n      add\n      0x00\n      swap1\n      sload\n      swap1\n      0x0100\n      exp\n      swap1\n      div\n      0xffffffffffffffffffffffffffffffffffffffff\n      and\n        /* \"contracts/InquireA.sol\":6890:6916  balances[answer.responder] */\n      0xffffffffffffffffffffffffffffffffffffffff\n      and\n      0xffffffffffffffffffffffffffffffffffffffff\n      and\n      dup2\n      mstore\n      0x20\n      add\n      swap1\n      dup2\n      mstore\n      0x20\n      add\n      0x00\n      keccak256\n      0x00\n        /* \"contracts/InquireA.sol\":6890:6926  balances[answer.responder] += reward */\n      dup3\n      dup3\n      sload\n      tag_317\n      swap2\n      swap1\n      tag_201\n      jump\t// in\n    tag_317:\n      swap3\n      pop\n      pop\n      dup2\n      swap1\n      sstore\n      pop\n        /* \"contracts/InquireA.sol\":6742:6942  {... */\n      pop\n        /* \"contracts/InquireA.sol\":6720:6942  if (totalUpvotes > 0) {... */\n    tag_311:\n        /* \"contracts/InquireA.sol\":6644:6953  {... */\n      pop\n        /* \"contracts/InquireA.sol\":6639:6642  i++ */\n      dup1\n      dup1\n      0x01\n      add\n      swap2\n      pop\n      pop\n        /* \"contracts/InquireA.sol\":6598:6953  for (uint256 i = 0; i < answerIdCounter; i++) {... */\n      jump(tag_308)\n    tag_309:\n      pop\n        /* \"contracts/InquireA.sol\":6985:6989  true */\n      0x01\n        /* \"contracts/InquireA.sol\":6965:6973  question */\n      dup4\n        /* \"contracts/InquireA.sol\":6965:6982  question.isClosed */\n      0x08\n      add\n      0x00\n        /* \"contracts/InquireA.sol\":6965:6989  question.isClosed = true */\n      0x0100\n      exp\n      dup2\n      sload\n      dup2\n      0xff\n      mul\n      not\n      and\n      swap1\n      dup4\n      iszero\n      iszero\n      mul\n      or\n      swap1\n      sstore\n      pop\n        /* \"contracts/InquireA.sol\":6077:6997  {... */\n      pop\n      pop\n      pop\n        /* \"contracts/InquireA.sol\":5996:6997  function distributeRewards(uint256 questionId) public questionExists(questionId) {... */\n      pop\n      pop\n      jump\t// out\n        /* \"contracts/InquireA.sol\":155:187  uint256 public questionIdCounter */\n    tag_84:\n      sload(0x02)\n      dup2\n      jump\t// out\n        /* \"contracts/InquireA.sol\":85:105  address public owner */\n    tag_88:\n      0x00\n      dup1\n      sload\n      swap1\n      0x0100\n      exp\n      swap1\n      div\n      0xffffffffffffffffffffffffffffffffffffffff\n      and\n      dup2\n      jump\t// out\n        /* \"contracts/InquireA.sol\":312:355  uint256 public constant TWO_WEEKS = 14 days */\n    tag_93:\n        /* \"contracts/InquireA.sol\":348:355  14 days */\n      0x127500\n        /* \"contracts/InquireA.sol\":312:355  uint256 public constant TWO_WEEKS = 14 days */\n      dup2\n      jump\t// out\n        /* \"contracts/InquireA.sol\":7272:7368  function balance() public view returns (uint256) {... */\n    tag_97:\n        /* \"contracts/InquireA.sol\":7312:7319  uint256 */\n      0x00\n        /* \"contracts/InquireA.sol\":7339:7360  address(this).balance */\n      selfbalance\n        /* \"contracts/InquireA.sol\":7332:7360  return address(this).balance */\n      swap1\n      pop\n        /* \"contracts/InquireA.sol\":7272:7368  function balance() public view returns (uint256) {... */\n      swap1\n      jump\t// out\n        /* \"contracts/InquireA.sol\":194:224  uint256 public answerIdCounter */\n    tag_101:\n      sload(0x03)\n      dup2\n      jump\t// out\n        /* \"contracts/InquireA.sol\":362:401  uint256 public constant MONTH = 30 days */\n    tag_105:\n        /* \"contracts/InquireA.sol\":394:401  30 days */\n      0x278d00\n        /* \"contracts/InquireA.sol\":362:401  uint256 public constant MONTH = 30 days */\n      dup2\n      jump\t// out\n        /* \"contracts/InquireA.sol\":112:147  uint256 public voteFee = 0.01 ether */\n    tag_109:\n      sload(0x01)\n      dup2\n      jump\t// out\n        /* \"contracts/InquireA.sol\":4398:4616  function getQuestionById(uint256 questionId) public view returns (Question memory) {... */\n    tag_114:\n        /* \"contracts/InquireA.sol\":4464:4479  Question memory */\n      tag_319\n      tag_320\n      jump\t// in\n    tag_319:\n        /* \"contracts/InquireA.sol\":4539:4540  0 */\n      0x00\n        /* \"contracts/InquireA.sol\":4500:4541  questions[questionId].asker != address(0) */\n      0xffffffffffffffffffffffffffffffffffffffff\n      and\n        /* \"contracts/InquireA.sol\":4500:4509  questions */\n      0x04\n        /* \"contracts/InquireA.sol\":4500:4521  questions[questionId] */\n      0x00\n        /* \"contracts/InquireA.sol\":4510:4520  questionId */\n      dup5\n        /* \"contracts/InquireA.sol\":4500:4521  questions[questionId] */\n      dup2\n      mstore\n      0x20\n      add\n      swap1\n      dup2\n      mstore\n      0x20\n      add\n      0x00\n      keccak256\n        /* \"contracts/InquireA.sol\":4500:4527  questions[questionId].asker */\n      0x01\n      add\n      0x00\n      swap1\n      sload\n      swap1\n      0x0100\n      exp\n      swap1\n      div\n      0xffffffffffffffffffffffffffffffffffffffff\n      and\n        /* \"contracts/InquireA.sol\":4500:4541  questions[questionId].asker != address(0) */\n      0xffffffffffffffffffffffffffffffffffffffff\n      and\n      sub\n        /* \"contracts/InquireA.sol\":4492:4569  require(questions[questionId].asker != address(0), \"Question does not exist\") */\n      tag_322\n      jumpi\n      mload(0x40)\n      0x08c379a000000000000000000000000000000000000000000000000000000000\n      dup2\n      mstore\n      0x04\n      add\n      tag_323\n      swap1\n      tag_124\n      jump\t// in\n    tag_323:\n      mload(0x40)\n      dup1\n      swap2\n      sub\n      swap1\n      revert\n    tag_322:\n        /* \"contracts/InquireA.sol\":4587:4596  questions */\n      0x04\n        /* \"contracts/InquireA.sol\":4587:4608  questions[questionId] */\n      0x00\n        /* \"contracts/InquireA.sol\":4597:4607  questionId */\n      dup4\n        /* \"contracts/InquireA.sol\":4587:4608  questions[questionId] */\n      dup2\n      mstore\n      0x20\n      add\n      swap1\n      dup2\n      mstore\n      0x20\n      add\n      0x00\n      keccak256\n        /* \"contracts/InquireA.sol\":4580:4608  return questions[questionId] */\n      mload(0x40)\n      dup1\n      0x0140\n      add\n      0x40\n      mstore\n      swap1\n      dup2\n      0x00\n      dup3\n      add\n      sload\n      dup2\n      mstore\n      0x20\n      add\n      0x01\n      dup3\n      add\n      0x00\n      swap1\n      sload\n      swap1\n      0x0100\n      exp\n      swap1\n      div\n      0xffffffffffffffffffffffffffffffffffffffff\n      and\n      0xffffffffffffffffffffffffffffffffffffffff\n      and\n      0xffffffffffffffffffffffffffffffffffffffff\n      and\n      dup2\n      mstore\n      0x20\n      add\n      0x02\n      dup3\n      add\n      dup1\n      sload\n      tag_324\n      swap1\n      tag_143\n      jump\t// in\n    tag_324:\n      dup1\n      0x1f\n      add\n      0x20\n      dup1\n      swap2\n      div\n      mul\n      0x20\n      add\n      mload(0x40)\n      swap1\n      dup2\n      add\n      0x40\n      mstore\n      dup1\n      swap3\n      swap2\n      swap1\n      dup2\n      dup2\n      mstore\n      0x20\n      add\n      dup3\n      dup1\n      sload\n      tag_325\n      swap1\n      tag_143\n      jump\t// in\n    tag_325:\n      dup1\n      iszero\n      tag_326\n      jumpi\n      dup1\n      0x1f\n      lt\n      tag_327\n      jumpi\n      0x0100\n      dup1\n      dup4\n      sload\n      div\n      mul\n      dup4\n      mstore\n      swap2\n      0x20\n      add\n      swap2\n      jump(tag_326)\n    tag_327:\n      dup3\n      add\n      swap2\n      swap1\n      0x00\n      mstore\n      keccak256(0x00, 0x20)\n      swap1\n    tag_328:\n      dup2\n      sload\n      dup2\n      mstore\n      swap1\n      0x01\n      add\n      swap1\n      0x20\n      add\n      dup1\n      dup4\n      gt\n      tag_328\n      jumpi\n      dup3\n      swap1\n      sub\n      0x1f\n      and\n      dup3\n      add\n      swap2\n    tag_326:\n      pop\n      pop\n      pop\n      pop\n      pop\n      dup2\n      mstore\n      0x20\n      add\n      0x03\n      dup3\n      add\n      dup1\n      sload\n      tag_329\n      swap1\n      tag_143\n      jump\t// in\n    tag_329:\n      dup1\n      0x1f\n      add\n      0x20\n      dup1\n      swap2\n      div\n      mul\n      0x20\n      add\n      mload(0x40)\n      swap1\n      dup2\n      add\n      0x40\n      mstore\n      dup1\n      swap3\n      swap2\n      swap1\n      dup2\n      dup2\n      mstore\n      0x20\n      add\n      dup3\n      dup1\n      sload\n      tag_330\n      swap1\n      tag_143\n      jump\t// in\n    tag_330:\n      dup1\n      iszero\n      tag_331\n      jumpi\n      dup1\n      0x1f\n      lt\n      tag_332\n      jumpi\n      0x0100\n      dup1\n      dup4\n      sload\n      div\n      mul\n      dup4\n      mstore\n      swap2\n      0x20\n      add\n      swap2\n      jump(tag_331)\n    tag_332:\n      dup3\n      add\n      swap2\n      swap1\n      0x00\n      mstore\n      keccak256(0x00, 0x20)\n      swap1\n    tag_333:\n      dup2\n      sload\n      dup2\n      mstore\n      swap1\n      0x01\n      add\n      swap1\n      0x20\n      add\n      dup1\n      dup4\n      gt\n      tag_333\n      jumpi\n      dup3\n      swap1\n      sub\n      0x1f\n      and\n      dup3\n      add\n      swap2\n    tag_331:\n      pop\n      pop\n      pop\n      pop\n      pop\n      dup2\n      mstore\n      0x20\n      add\n      0x04\n      dup3\n      add\n      dup1\n      sload\n      tag_334\n      swap1\n      tag_143\n      jump\t// in\n    tag_334:\n      dup1\n      0x1f\n      add\n      0x20\n      dup1\n      swap2\n      div\n      mul\n      0x20\n      add\n      mload(0x40)\n      swap1\n      dup2\n      add\n      0x40\n      mstore\n      dup1\n      swap3\n      swap2\n      swap1\n      dup2\n      dup2\n      mstore\n      0x20\n      add\n      dup3\n      dup1\n      sload\n      tag_335\n      swap1\n      tag_143\n      jump\t// in\n    tag_335:\n      dup1\n      iszero\n      tag_336\n      jumpi\n      dup1\n      0x1f\n      lt\n      tag_337\n      jumpi\n      0x0100\n      dup1\n      dup4\n      sload\n      div\n      mul\n      dup4\n      mstore\n      swap2\n      0x20\n      add\n      swap2\n      jump(tag_336)\n    tag_337:\n      dup3\n      add\n      swap2\n      swap1\n      0x00\n      mstore\n      keccak256(0x00, 0x20)\n      swap1\n    tag_338:\n      dup2\n      sload\n      dup2\n      mstore\n      swap1\n      0x01\n      add\n      swap1\n      0x20\n      add\n      dup1\n      dup4\n      gt\n      tag_338\n      jumpi\n      dup3\n      swap1\n      sub\n      0x1f\n      and\n      dup3\n      add\n      swap2\n    tag_336:\n      pop\n      pop\n      pop\n      pop\n      pop\n      dup2\n      mstore\n      0x20\n      add\n      0x05\n      dup3\n      add\n      sload\n      dup2\n      mstore\n      0x20\n      add\n      0x06\n      dup3\n      add\n      sload\n      dup2\n      mstore\n      0x20\n      add\n      0x07\n      dup3\n      add\n      sload\n      dup2\n      mstore\n      0x20\n      add\n      0x08\n      dup3\n      add\n      0x00\n      swap1\n      sload\n      swap1\n      0x0100\n      exp\n      swap1\n      div\n      0xff\n      and\n      iszero\n      iszero\n      iszero\n      iszero\n      dup2\n      mstore\n      0x20\n      add\n      0x09\n      dup3\n      add\n      sload\n      dup2\n      mstore\n      pop\n      pop\n      swap1\n      pop\n        /* \"contracts/InquireA.sol\":4398:4616  function getQuestionById(uint256 questionId) public view returns (Question memory) {... */\n      swap2\n      swap1\n      pop\n      jump\t// out\n        /* \"contracts/InquireA.sol\":268:305  uint256 public constant WEEK = 7 days */\n    tag_119:\n        /* \"contracts/InquireA.sol\":299:305  7 days */\n      0x093a80\n        /* \"contracts/InquireA.sol\":268:305  uint256 public constant WEEK = 7 days */\n      dup2\n      jump\t// out\n    tag_226:\n      mload(0x40)\n      dup1\n      0xc0\n      add\n      0x40\n      mstore\n      dup1\n      0x00\n      dup2\n      mstore\n      0x20\n      add\n      and(0xffffffffffffffffffffffffffffffffffffffff, 0x00)\n      dup2\n      mstore\n      0x20\n      add\n      0x60\n      dup2\n      mstore\n      0x20\n      add\n      0x00\n      dup2\n      mstore\n      0x20\n      add\n      0x00\n      dup2\n      mstore\n      0x20\n      add\n      0x00\n      dup2\n      mstore\n      pop\n      swap1\n      jump\t// out\n    tag_320:\n      mload(0x40)\n      dup1\n      0x0140\n      add\n      0x40\n      mstore\n      dup1\n      0x00\n      dup2\n      mstore\n      0x20\n      add\n      and(0xffffffffffffffffffffffffffffffffffffffff, 0x00)\n      dup2\n      mstore\n      0x20\n      add\n      0x60\n      dup2\n      mstore\n      0x20\n      add\n      0x60\n      dup2\n      mstore\n      0x20\n      add\n      0x60\n      dup2\n      mstore\n      0x20\n      add\n      0x00\n      dup2\n      mstore\n      0x20\n      add\n      0x00\n      dup2\n      mstore\n      0x20\n      add\n      0x00\n      dup2\n      mstore\n      0x20\n      add\n      iszero(iszero(0x00))\n      dup2\n      mstore\n      0x20\n      add\n      0x00\n      dup2\n      mstore\n      pop\n      swap1\n      jump\t// out\n        /* \"#utility.yul\":7:82   */\n    tag_339:\n        /* \"#utility.yul\":40:46   */\n      0x00\n        /* \"#utility.yul\":73:75   */\n      0x40\n        /* \"#utility.yul\":67:76   */\n      mload\n        /* \"#utility.yul\":57:76   */\n      swap1\n      pop\n        /* \"#utility.yul\":7:82   */\n      swap1\n      jump\t// out\n        /* \"#utility.yul\":88:205   */\n    tag_340:\n        /* \"#utility.yul\":197:198   */\n      0x00\n        /* \"#utility.yul\":194:195   */\n      dup1\n        /* \"#utility.yul\":187:199   */\n      revert\n        /* \"#utility.yul\":211:328   */\n    tag_341:\n        /* \"#utility.yul\":320:321   */\n      0x00\n        /* \"#utility.yul\":317:318   */\n      dup1\n        /* \"#utility.yul\":310:322   */\n      revert\n        /* \"#utility.yul\":334:411   */\n    tag_342:\n        /* \"#utility.yul\":371:378   */\n      0x00\n        /* \"#utility.yul\":400:405   */\n      dup2\n        /* \"#utility.yul\":389:405   */\n      swap1\n      pop\n        /* \"#utility.yul\":334:411   */\n      swap2\n      swap1\n      pop\n      jump\t// out\n        /* \"#utility.yul\":417:539   */\n    tag_343:\n        /* \"#utility.yul\":490:514   */\n      tag_430\n        /* \"#utility.yul\":508:513   */\n      dup2\n        /* \"#utility.yul\":490:514   */\n      tag_342\n      jump\t// in\n    tag_430:\n        /* \"#utility.yul\":483:488   */\n      dup2\n        /* \"#utility.yul\":480:515   */\n      eq\n        /* \"#utility.yul\":470:533   */\n      tag_431\n      jumpi\n        /* \"#utility.yul\":529:530   */\n      0x00\n        /* \"#utility.yul\":526:527   */\n      dup1\n        /* \"#utility.yul\":519:531   */\n      revert\n        /* \"#utility.yul\":470:533   */\n    tag_431:\n        /* \"#utility.yul\":417:539   */\n      pop\n      jump\t// out\n        /* \"#utility.yul\":545:684   */\n    tag_344:\n        /* \"#utility.yul\":591:596   */\n      0x00\n        /* \"#utility.yul\":629:635   */\n      dup2\n        /* \"#utility.yul\":616:636   */\n      calldataload\n        /* \"#utility.yul\":607:636   */\n      swap1\n      pop\n        /* \"#utility.yul\":645:678   */\n      tag_433\n        /* \"#utility.yul\":672:677   */\n      dup2\n        /* \"#utility.yul\":645:678   */\n      tag_343\n      jump\t// in\n    tag_433:\n        /* \"#utility.yul\":545:684   */\n      swap3\n      swap2\n      pop\n      pop\n      jump\t// out\n        /* \"#utility.yul\":690:1164   */\n    tag_28:\n        /* \"#utility.yul\":758:764   */\n      0x00\n        /* \"#utility.yul\":766:772   */\n      dup1\n        /* \"#utility.yul\":815:817   */\n      0x40\n        /* \"#utility.yul\":803:812   */\n      dup4\n        /* \"#utility.yul\":794:801   */\n      dup6\n        /* \"#utility.yul\":790:813   */\n      sub\n        /* \"#utility.yul\":786:818   */\n      slt\n        /* \"#utility.yul\":783:902   */\n      iszero\n      tag_435\n      jumpi\n        /* \"#utility.yul\":821:900   */\n      tag_436\n      tag_340\n      jump\t// in\n    tag_436:\n        /* \"#utility.yul\":783:902   */\n    tag_435:\n        /* \"#utility.yul\":941:942   */\n      0x00\n        /* \"#utility.yul\":966:1019   */\n      tag_437\n        /* \"#utility.yul\":1011:1018   */\n      dup6\n        /* \"#utility.yul\":1002:1008   */\n      dup3\n        /* \"#utility.yul\":991:1000   */\n      dup7\n        /* \"#utility.yul\":987:1009   */\n      add\n        /* \"#utility.yul\":966:1019   */\n      tag_344\n      jump\t// in\n    tag_437:\n        /* \"#utility.yul\":956:1019   */\n      swap3\n      pop\n        /* \"#utility.yul\":912:1029   */\n      pop\n        /* \"#utility.yul\":1068:1070   */\n      0x20\n        /* \"#utility.yul\":1094:1147   */\n      tag_438\n        /* \"#utility.yul\":1139:1146   */\n      dup6\n        /* \"#utility.yul\":1130:1136   */\n      dup3\n        /* \"#utility.yul\":1119:1128   */\n      dup7\n        /* \"#utility.yul\":1115:1137   */\n      add\n        /* \"#utility.yul\":1094:1147   */\n      tag_344\n      jump\t// in\n    tag_438:\n        /* \"#utility.yul\":1084:1147   */\n      swap2\n      pop\n        /* \"#utility.yul\":1039:1157   */\n      pop\n        /* \"#utility.yul\":690:1164   */\n      swap3\n      pop\n      swap3\n      swap1\n      pop\n      jump\t// out\n        /* \"#utility.yul\":1170:1287   */\n    tag_345:\n        /* \"#utility.yul\":1279:1280   */\n      0x00\n        /* \"#utility.yul\":1276:1277   */\n      dup1\n        /* \"#utility.yul\":1269:1281   */\n      revert\n        /* \"#utility.yul\":1293:1410   */\n    tag_346:\n        /* \"#utility.yul\":1402:1403   */\n      0x00\n        /* \"#utility.yul\":1399:1400   */\n      dup1\n        /* \"#utility.yul\":1392:1404   */\n      revert\n        /* \"#utility.yul\":1416:1518   */\n    tag_347:\n        /* \"#utility.yul\":1457:1463   */\n      0x00\n        /* \"#utility.yul\":1508:1510   */\n      0x1f\n        /* \"#utility.yul\":1504:1511   */\n      not\n        /* \"#utility.yul\":1499:1501   */\n      0x1f\n        /* \"#utility.yul\":1492:1497   */\n      dup4\n        /* \"#utility.yul\":1488:1502   */\n      add\n        /* \"#utility.yul\":1484:1512   */\n      and\n        /* \"#utility.yul\":1474:1512   */\n      swap1\n      pop\n        /* \"#utility.yul\":1416:1518   */\n      swap2\n      swap1\n      pop\n      jump\t// out\n        /* \"#utility.yul\":1524:1704   */\n    tag_239:\n        /* \"#utility.yul\":1572:1649   */\n      0x4e487b7100000000000000000000000000000000000000000000000000000000\n        /* \"#utility.yul\":1569:1570   */\n      0x00\n        /* \"#utility.yul\":1562:1650   */\n      mstore\n        /* \"#utility.yul\":1669:1673   */\n      0x41\n        /* \"#utility.yul\":1666:1667   */\n      0x04\n        /* \"#utility.yul\":1659:1674   */\n      mstore\n        /* \"#utility.yul\":1693:1697   */\n      0x24\n        /* \"#utility.yul\":1690:1691   */\n      0x00\n        /* \"#utility.yul\":1683:1698   */\n      revert\n        /* \"#utility.yul\":1710:1991   */\n    tag_348:\n        /* \"#utility.yul\":1793:1820   */\n      tag_444\n        /* \"#utility.yul\":1815:1819   */\n      dup3\n        /* \"#utility.yul\":1793:1820   */\n      tag_347\n      jump\t// in\n    tag_444:\n        /* \"#utility.yul\":1785:1791   */\n      dup2\n        /* \"#utility.yul\":1781:1821   */\n      add\n        /* \"#utility.yul\":1923:1929   */\n      dup2\n        /* \"#utility.yul\":1911:1921   */\n      dup2\n        /* \"#utility.yul\":1908:1930   */\n      lt\n        /* \"#utility.yul\":1887:1905   */\n      0xffffffffffffffff\n        /* \"#utility.yul\":1875:1885   */\n      dup3\n        /* \"#utility.yul\":1872:1906   */\n      gt\n        /* \"#utility.yul\":1869:1931   */\n      or\n        /* \"#utility.yul\":1866:1954   */\n      iszero\n      tag_445\n      jumpi\n        /* \"#utility.yul\":1934:1952   */\n      tag_446\n      tag_239\n      jump\t// in\n    tag_446:\n        /* \"#utility.yul\":1866:1954   */\n    tag_445:\n        /* \"#utility.yul\":1974:1984   */\n      dup1\n        /* \"#utility.yul\":1970:1972   */\n      0x40\n        /* \"#utility.yul\":1963:1985   */\n      mstore\n        /* \"#utility.yul\":1753:1991   */\n      pop\n        /* \"#utility.yul\":1710:1991   */\n      pop\n      pop\n      jump\t// out\n        /* \"#utility.yul\":1997:2126   */\n    tag_349:\n        /* \"#utility.yul\":2031:2037   */\n      0x00\n        /* \"#utility.yul\":2058:2078   */\n      tag_448\n      tag_339\n      jump\t// in\n    tag_448:\n        /* \"#utility.yul\":2048:2078   */\n      swap1\n      pop\n        /* \"#utility.yul\":2087:2120   */\n      tag_449\n        /* \"#utility.yul\":2115:2119   */\n      dup3\n        /* \"#utility.yul\":2107:2113   */\n      dup3\n        /* \"#utility.yul\":2087:2120   */\n      tag_348\n      jump\t// in\n    tag_449:\n        /* \"#utility.yul\":1997:2126   */\n      swap2\n      swap1\n      pop\n      jump\t// out\n        /* \"#utility.yul\":2132:2440   */\n    tag_350:\n        /* \"#utility.yul\":2194:2198   */\n      0x00\n        /* \"#utility.yul\":2284:2302   */\n      0xffffffffffffffff\n        /* \"#utility.yul\":2276:2282   */\n      dup3\n        /* \"#utility.yul\":2273:2303   */\n      gt\n        /* \"#utility.yul\":2270:2326   */\n      iszero\n      tag_451\n      jumpi\n        /* \"#utility.yul\":2306:2324   */\n      tag_452\n      tag_239\n      jump\t// in\n    tag_452:\n        /* \"#utility.yul\":2270:2326   */\n    tag_451:\n        /* \"#utility.yul\":2344:2373   */\n      tag_453\n        /* \"#utility.yul\":2366:2372   */\n      dup3\n        /* \"#utility.yul\":2344:2373   */\n      tag_347\n      jump\t// in\n    tag_453:\n        /* \"#utility.yul\":2336:2373   */\n      swap1\n      pop\n        /* \"#utility.yul\":2428:2432   */\n      0x20\n        /* \"#utility.yul\":2422:2426   */\n      dup2\n        /* \"#utility.yul\":2418:2433   */\n      add\n        /* \"#utility.yul\":2410:2433   */\n      swap1\n      pop\n        /* \"#utility.yul\":2132:2440   */\n      swap2\n      swap1\n      pop\n      jump\t// out\n        /* \"#utility.yul\":2446:2594   */\n    tag_351:\n        /* \"#utility.yul\":2544:2550   */\n      dup3\n        /* \"#utility.yul\":2539:2542   */\n      dup2\n        /* \"#utility.yul\":2534:2537   */\n      dup4\n        /* \"#utility.yul\":2521:2551   */\n      calldatacopy\n        /* \"#utility.yul\":2585:2586   */\n      0x00\n        /* \"#utility.yul\":2576:2582   */\n      dup4\n        /* \"#utility.yul\":2571:2574   */\n      dup4\n        /* \"#utility.yul\":2567:2583   */\n      add\n        /* \"#utility.yul\":2560:2587   */\n      mstore\n        /* \"#utility.yul\":2446:2594   */\n      pop\n      pop\n      pop\n      jump\t// out\n        /* \"#utility.yul\":2600:3025   */\n    tag_352:\n        /* \"#utility.yul\":2678:2683   */\n      0x00\n        /* \"#utility.yul\":2703:2769   */\n      tag_456\n        /* \"#utility.yul\":2719:2768   */\n      tag_457\n        /* \"#utility.yul\":2761:2767   */\n      dup5\n        /* \"#utility.yul\":2719:2768   */\n      tag_350\n      jump\t// in\n    tag_457:\n        /* \"#utility.yul\":2703:2769   */\n      tag_349\n      jump\t// in\n    tag_456:\n        /* \"#utility.yul\":2694:2769   */\n      swap1\n      pop\n        /* \"#utility.yul\":2792:2798   */\n      dup3\n        /* \"#utility.yul\":2785:2790   */\n      dup2\n        /* \"#utility.yul\":2778:2799   */\n      mstore\n        /* \"#utility.yul\":2830:2834   */\n      0x20\n        /* \"#utility.yul\":2823:2828   */\n      dup2\n        /* \"#utility.yul\":2819:2835   */\n      add\n        /* \"#utility.yul\":2868:2871   */\n      dup5\n        /* \"#utility.yul\":2859:2865   */\n      dup5\n        /* \"#utility.yul\":2854:2857   */\n      dup5\n        /* \"#utility.yul\":2850:2866   */\n      add\n        /* \"#utility.yul\":2847:2872   */\n      gt\n        /* \"#utility.yul\":2844:2956   */\n      iszero\n      tag_458\n      jumpi\n        /* \"#utility.yul\":2875:2954   */\n      tag_459\n      tag_346\n      jump\t// in\n    tag_459:\n        /* \"#utility.yul\":2844:2956   */\n    tag_458:\n        /* \"#utility.yul\":2965:3019   */\n      tag_460\n        /* \"#utility.yul\":3012:3018   */\n      dup5\n        /* \"#utility.yul\":3007:3010   */\n      dup3\n        /* \"#utility.yul\":3002:3005   */\n      dup6\n        /* \"#utility.yul\":2965:3019   */\n      tag_351\n      jump\t// in\n    tag_460:\n        /* \"#utility.yul\":2684:3025   */\n      pop\n        /* \"#utility.yul\":2600:3025   */\n      swap4\n      swap3\n      pop\n      pop\n      pop\n      jump\t// out\n        /* \"#utility.yul\":3045:3385   */\n    tag_353:\n        /* \"#utility.yul\":3101:3106   */\n      0x00\n        /* \"#utility.yul\":3150:3153   */\n      dup3\n        /* \"#utility.yul\":3143:3147   */\n      0x1f\n        /* \"#utility.yul\":3135:3141   */\n      dup4\n        /* \"#utility.yul\":3131:3148   */\n      add\n        /* \"#utility.yul\":3127:3154   */\n      slt\n        /* \"#utility.yul\":3117:3239   */\n      tag_462\n      jumpi\n        /* \"#utility.yul\":3158:3237   */\n      tag_463\n      tag_345\n      jump\t// in\n    tag_463:\n        /* \"#utility.yul\":3117:3239   */\n    tag_462:\n        /* \"#utility.yul\":3275:3281   */\n      dup2\n        /* \"#utility.yul\":3262:3282   */\n      calldataload\n        /* \"#utility.yul\":3300:3379   */\n      tag_464\n        /* \"#utility.yul\":3375:3378   */\n      dup5\n        /* \"#utility.yul\":3367:3373   */\n      dup3\n        /* \"#utility.yul\":3360:3364   */\n      0x20\n        /* \"#utility.yul\":3352:3358   */\n      dup7\n        /* \"#utility.yul\":3348:3365   */\n      add\n        /* \"#utility.yul\":3300:3379   */\n      tag_352\n      jump\t// in\n    tag_464:\n        /* \"#utility.yul\":3291:3379   */\n      swap2\n      pop\n        /* \"#utility.yul\":3107:3385   */\n      pop\n        /* \"#utility.yul\":3045:3385   */\n      swap3\n      swap2\n      pop\n      pop\n      jump\t// out\n        /* \"#utility.yul\":3391:4045   */\n    tag_33:\n        /* \"#utility.yul\":3469:3475   */\n      0x00\n        /* \"#utility.yul\":3477:3483   */\n      dup1\n        /* \"#utility.yul\":3526:3528   */\n      0x40\n        /* \"#utility.yul\":3514:3523   */\n      dup4\n        /* \"#utility.yul\":3505:3512   */\n      dup6\n        /* \"#utility.yul\":3501:3524   */\n      sub\n        /* \"#utility.yul\":3497:3529   */\n      slt\n        /* \"#utility.yul\":3494:3613   */\n      iszero\n      tag_466\n      jumpi\n        /* \"#utility.yul\":3532:3611   */\n      tag_467\n      tag_340\n      jump\t// in\n    tag_467:\n        /* \"#utility.yul\":3494:3613   */\n    tag_466:\n        /* \"#utility.yul\":3652:3653   */\n      0x00\n        /* \"#utility.yul\":3677:3730   */\n      tag_468\n        /* \"#utility.yul\":3722:3729   */\n      dup6\n        /* \"#utility.yul\":3713:3719   */\n      dup3\n        /* \"#utility.yul\":3702:3711   */\n      dup7\n        /* \"#utility.yul\":3698:3720   */\n      add\n        /* \"#utility.yul\":3677:3730   */\n      tag_344\n      jump\t// in\n    tag_468:\n        /* \"#utility.yul\":3667:3730   */\n      swap3\n      pop\n        /* \"#utility.yul\":3623:3740   */\n      pop\n        /* \"#utility.yul\":3807:3809   */\n      0x20\n        /* \"#utility.yul\":3796:3805   */\n      dup4\n        /* \"#utility.yul\":3792:3810   */\n      add\n        /* \"#utility.yul\":3779:3811   */\n      calldataload\n        /* \"#utility.yul\":3838:3856   */\n      0xffffffffffffffff\n        /* \"#utility.yul\":3830:3836   */\n      dup2\n        /* \"#utility.yul\":3827:3857   */\n      gt\n        /* \"#utility.yul\":3824:3941   */\n      iszero\n      tag_469\n      jumpi\n        /* \"#utility.yul\":3860:3939   */\n      tag_470\n      tag_341\n      jump\t// in\n    tag_470:\n        /* \"#utility.yul\":3824:3941   */\n    tag_469:\n        /* \"#utility.yul\":3965:4028   */\n      tag_471\n        /* \"#utility.yul\":4020:4027   */\n      dup6\n        /* \"#utility.yul\":4011:4017   */\n      dup3\n        /* \"#utility.yul\":4000:4009   */\n      dup7\n        /* \"#utility.yul\":3996:4018   */\n      add\n        /* \"#utility.yul\":3965:4028   */\n      tag_353\n      jump\t// in\n    tag_471:\n        /* \"#utility.yul\":3955:4028   */\n      swap2\n      pop\n        /* \"#utility.yul\":3750:4038   */\n      pop\n        /* \"#utility.yul\":3391:4045   */\n      swap3\n      pop\n      swap3\n      swap1\n      pop\n      jump\t// out\n        /* \"#utility.yul\":4051:4169   */\n    tag_354:\n        /* \"#utility.yul\":4138:4162   */\n      tag_473\n        /* \"#utility.yul\":4156:4161   */\n      dup2\n        /* \"#utility.yul\":4138:4162   */\n      tag_342\n      jump\t// in\n    tag_473:\n        /* \"#utility.yul\":4133:4136   */\n      dup3\n        /* \"#utility.yul\":4126:4163   */\n      mstore\n        /* \"#utility.yul\":4051:4169   */\n      pop\n      pop\n      jump\t// out\n        /* \"#utility.yul\":4175:4301   */\n    tag_355:\n        /* \"#utility.yul\":4212:4219   */\n      0x00\n        /* \"#utility.yul\":4252:4294   */\n      0xffffffffffffffffffffffffffffffffffffffff\n        /* \"#utility.yul\":4245:4250   */\n      dup3\n        /* \"#utility.yul\":4241:4295   */\n      and\n        /* \"#utility.yul\":4230:4295   */\n      swap1\n      pop\n        /* \"#utility.yul\":4175:4301   */\n      swap2\n      swap1\n      pop\n      jump\t// out\n        /* \"#utility.yul\":4307:4403   */\n    tag_356:\n        /* \"#utility.yul\":4344:4351   */\n      0x00\n        /* \"#utility.yul\":4373:4397   */\n      tag_476\n        /* \"#utility.yul\":4391:4396   */\n      dup3\n        /* \"#utility.yul\":4373:4397   */\n      tag_355\n      jump\t// in\n    tag_476:\n        /* \"#utility.yul\":4362:4397   */\n      swap1\n      pop\n        /* \"#utility.yul\":4307:4403   */\n      swap2\n      swap1\n      pop\n      jump\t// out\n        /* \"#utility.yul\":4409:4527   */\n    tag_357:\n        /* \"#utility.yul\":4496:4520   */\n      tag_478\n        /* \"#utility.yul\":4514:4519   */\n      dup2\n        /* \"#utility.yul\":4496:4520   */\n      tag_356\n      jump\t// in\n    tag_478:\n        /* \"#utility.yul\":4491:4494   */\n      dup3\n        /* \"#utility.yul\":4484:4521   */\n      mstore\n        /* \"#utility.yul\":4409:4527   */\n      pop\n      pop\n      jump\t// out\n        /* \"#utility.yul\":4533:4632   */\n    tag_358:\n        /* \"#utility.yul\":4585:4591   */\n      0x00\n        /* \"#utility.yul\":4619:4624   */\n      dup2\n        /* \"#utility.yul\":4613:4625   */\n      mload\n        /* \"#utility.yul\":4603:4625   */\n      swap1\n      pop\n        /* \"#utility.yul\":4533:4632   */\n      swap2\n      swap1\n      pop\n      jump\t// out\n        /* \"#utility.yul\":4638:4807   */\n    tag_359:\n        /* \"#utility.yul\":4722:4733   */\n      0x00\n        /* \"#utility.yul\":4756:4762   */\n      dup3\n        /* \"#utility.yul\":4751:4754   */\n      dup3\n        /* \"#utility.yul\":4744:4763   */\n      mstore\n        /* \"#utility.yul\":4796:4800   */\n      0x20\n        /* \"#utility.yul\":4791:4794   */\n      dup3\n        /* \"#utility.yul\":4787:4801   */\n      add\n        /* \"#utility.yul\":4772:4801   */\n      swap1\n      pop\n        /* \"#utility.yul\":4638:4807   */\n      swap3\n      swap2\n      pop\n      pop\n      jump\t// out\n        /* \"#utility.yul\":4813:4952   */\n    tag_360:\n        /* \"#utility.yul\":4902:4908   */\n      dup3\n        /* \"#utility.yul\":4897:4900   */\n      dup2\n        /* \"#utility.yul\":4892:4895   */\n      dup4\n        /* \"#utility.yul\":4886:4909   */\n      mcopy\n        /* \"#utility.yul\":4943:4944   */\n      0x00\n        /* \"#utility.yul\":4934:4940   */\n      dup4\n        /* \"#utility.yul\":4929:4932   */\n      dup4\n        /* \"#utility.yul\":4925:4941   */\n      add\n        /* \"#utility.yul\":4918:4945   */\n      mstore\n        /* \"#utility.yul\":4813:4952   */\n      pop\n      pop\n      pop\n      jump\t// out\n        /* \"#utility.yul\":4958:5335   */\n    tag_361:\n        /* \"#utility.yul\":5046:5049   */\n      0x00\n        /* \"#utility.yul\":5074:5113   */\n      tag_483\n        /* \"#utility.yul\":5107:5112   */\n      dup3\n        /* \"#utility.yul\":5074:5113   */\n      tag_358\n      jump\t// in\n    tag_483:\n        /* \"#utility.yul\":5129:5200   */\n      tag_484\n        /* \"#utility.yul\":5193:5199   */\n      dup2\n        /* \"#utility.yul\":5188:5191   */\n      dup6\n        /* \"#utility.yul\":5129:5200   */\n      tag_359\n      jump\t// in\n    tag_484:\n        /* \"#utility.yul\":5122:5200   */\n      swap4\n      pop\n        /* \"#utility.yul\":5209:5274   */\n      tag_485\n        /* \"#utility.yul\":5267:5273   */\n      dup2\n        /* \"#utility.yul\":5262:5265   */\n      dup6\n        /* \"#utility.yul\":5255:5259   */\n      0x20\n        /* \"#utility.yul\":5248:5253   */\n      dup7\n        /* \"#utility.yul\":5244:5260   */\n      add\n        /* \"#utility.yul\":5209:5274   */\n      tag_360\n      jump\t// in\n    tag_485:\n        /* \"#utility.yul\":5299:5328   */\n      tag_486\n        /* \"#utility.yul\":5321:5327   */\n      dup2\n        /* \"#utility.yul\":5299:5328   */\n      tag_347\n      jump\t// in\n    tag_486:\n        /* \"#utility.yul\":5294:5297   */\n      dup5\n        /* \"#utility.yul\":5290:5329   */\n      add\n        /* \"#utility.yul\":5283:5329   */\n      swap2\n      pop\n        /* \"#utility.yul\":5050:5335   */\n      pop\n        /* \"#utility.yul\":4958:5335   */\n      swap3\n      swap2\n      pop\n      pop\n      jump\t// out\n        /* \"#utility.yul\":5341:6207   */\n    tag_40:\n        /* \"#utility.yul\":5594:5598   */\n      0x00\n        /* \"#utility.yul\":5632:5635   */\n      0xc0\n        /* \"#utility.yul\":5621:5630   */\n      dup3\n        /* \"#utility.yul\":5617:5636   */\n      add\n        /* \"#utility.yul\":5609:5636   */\n      swap1\n      pop\n        /* \"#utility.yul\":5646:5717   */\n      tag_488\n        /* \"#utility.yul\":5714:5715   */\n      0x00\n        /* \"#utility.yul\":5703:5712   */\n      dup4\n        /* \"#utility.yul\":5699:5716   */\n      add\n        /* \"#utility.yul\":5690:5696   */\n      dup10\n        /* \"#utility.yul\":5646:5717   */\n      tag_354\n      jump\t// in\n    tag_488:\n        /* \"#utility.yul\":5727:5799   */\n      tag_489\n        /* \"#utility.yul\":5795:5797   */\n      0x20\n        /* \"#utility.yul\":5784:5793   */\n      dup4\n        /* \"#utility.yul\":5780:5798   */\n      add\n        /* \"#utility.yul\":5771:5777   */\n      dup9\n        /* \"#utility.yul\":5727:5799   */\n      tag_357\n      jump\t// in\n    tag_489:\n        /* \"#utility.yul\":5846:5855   */\n      dup2\n        /* \"#utility.yul\":5840:5844   */\n      dup2\n        /* \"#utility.yul\":5836:5856   */\n      sub\n        /* \"#utility.yul\":5831:5833   */\n      0x40\n        /* \"#utility.yul\":5820:5829   */\n      dup4\n        /* \"#utility.yul\":5816:5834   */\n      add\n        /* \"#utility.yul\":5809:5857   */\n      mstore\n        /* \"#utility.yul\":5874:5952   */\n      tag_490\n        /* \"#utility.yul\":5947:5951   */\n      dup2\n        /* \"#utility.yul\":5938:5944   */\n      dup8\n        /* \"#utility.yul\":5874:5952   */\n      tag_361\n      jump\t// in\n    tag_490:\n        /* \"#utility.yul\":5866:5952   */\n      swap1\n      pop\n        /* \"#utility.yul\":5962:6034   */\n      tag_491\n        /* \"#utility.yul\":6030:6032   */\n      0x60\n        /* \"#utility.yul\":6019:6028   */\n      dup4\n        /* \"#utility.yul\":6015:6033   */\n      add\n        /* \"#utility.yul\":6006:6012   */\n      dup7\n        /* \"#utility.yul\":5962:6034   */\n      tag_354\n      jump\t// in\n    tag_491:\n        /* \"#utility.yul\":6044:6117   */\n      tag_492\n        /* \"#utility.yul\":6112:6115   */\n      0x80\n        /* \"#utility.yul\":6101:6110   */\n      dup4\n        /* \"#utility.yul\":6097:6116   */\n      add\n        /* \"#utility.yul\":6088:6094   */\n      dup6\n        /* \"#utility.yul\":6044:6117   */\n      tag_354\n      jump\t// in\n    tag_492:\n        /* \"#utility.yul\":6127:6200   */\n      tag_493\n        /* \"#utility.yul\":6195:6198   */\n      0xa0\n        /* \"#utility.yul\":6184:6193   */\n      dup4\n        /* \"#utility.yul\":6180:6199   */\n      add\n        /* \"#utility.yul\":6171:6177   */\n      dup5\n        /* \"#utility.yul\":6127:6200   */\n      tag_354\n      jump\t// in\n    tag_493:\n        /* \"#utility.yul\":5341:6207   */\n      swap8\n      swap7\n      pop\n      pop\n      pop\n      pop\n      pop\n      pop\n      pop\n      jump\t// out\n        /* \"#utility.yul\":6213:6335   */\n    tag_362:\n        /* \"#utility.yul\":6286:6310   */\n      tag_495\n        /* \"#utility.yul\":6304:6309   */\n      dup2\n        /* \"#utility.yul\":6286:6310   */\n      tag_356\n      jump\t// in\n    tag_495:\n        /* \"#utility.yul\":6279:6284   */\n      dup2\n        /* \"#utility.yul\":6276:6311   */\n      eq\n        /* \"#utility.yul\":6266:6329   */\n      tag_496\n      jumpi\n        /* \"#utility.yul\":6325:6326   */\n      0x00\n        /* \"#utility.yul\":6322:6323   */\n      dup1\n        /* \"#utility.yul\":6315:6327   */\n      revert\n        /* \"#utility.yul\":6266:6329   */\n    tag_496:\n        /* \"#utility.yul\":6213:6335   */\n      pop\n      jump\t// out\n        /* \"#utility.yul\":6341:6480   */\n    tag_363:\n        /* \"#utility.yul\":6387:6392   */\n      0x00\n        /* \"#utility.yul\":6425:6431   */\n      dup2\n        /* \"#utility.yul\":6412:6432   */\n      calldataload\n        /* \"#utility.yul\":6403:6432   */\n      swap1\n      pop\n        /* \"#utility.yul\":6441:6474   */\n      tag_498\n        /* \"#utility.yul\":6468:6473   */\n      dup2\n        /* \"#utility.yul\":6441:6474   */\n      tag_362\n      jump\t// in\n    tag_498:\n        /* \"#utility.yul\":6341:6480   */\n      swap3\n      swap2\n      pop\n      pop\n      jump\t// out\n        /* \"#utility.yul\":6486:6815   */\n    tag_47:\n        /* \"#utility.yul\":6545:6551   */\n      0x00\n        /* \"#utility.yul\":6594:6596   */\n      0x20\n        /* \"#utility.yul\":6582:6591   */\n      dup3\n        /* \"#utility.yul\":6573:6580   */\n      dup5\n        /* \"#utility.yul\":6569:6592   */\n      sub\n        /* \"#utility.yul\":6565:6597   */\n      slt\n        /* \"#utility.yul\":6562:6681   */\n      iszero\n      tag_500\n      jumpi\n        /* \"#utility.yul\":6600:6679   */\n      tag_501\n      tag_340\n      jump\t// in\n    tag_501:\n        /* \"#utility.yul\":6562:6681   */\n    tag_500:\n        /* \"#utility.yul\":6720:6721   */\n      0x00\n        /* \"#utility.yul\":6745:6798   */\n      tag_502\n        /* \"#utility.yul\":6790:6797   */\n      dup5\n        /* \"#utility.yul\":6781:6787   */\n      dup3\n        /* \"#utility.yul\":6770:6779   */\n      dup6\n        /* \"#utility.yul\":6766:6788   */\n      add\n        /* \"#utility.yul\":6745:6798   */\n      tag_363\n      jump\t// in\n    tag_502:\n        /* \"#utility.yul\":6735:6798   */\n      swap2\n      pop\n        /* \"#utility.yul\":6691:6808   */\n      pop\n        /* \"#utility.yul\":6486:6815   */\n      swap3\n      swap2\n      pop\n      pop\n      jump\t// out\n        /* \"#utility.yul\":6821:7043   */\n    tag_50:\n        /* \"#utility.yul\":6914:6918   */\n      0x00\n        /* \"#utility.yul\":6952:6954   */\n      0x20\n        /* \"#utility.yul\":6941:6950   */\n      dup3\n        /* \"#utility.yul\":6937:6955   */\n      add\n        /* \"#utility.yul\":6929:6955   */\n      swap1\n      pop\n        /* \"#utility.yul\":6965:7036   */\n      tag_504\n        /* \"#utility.yul\":7033:7034   */\n      0x00\n        /* \"#utility.yul\":7022:7031   */\n      dup4\n        /* \"#utility.yul\":7018:7035   */\n      add\n        /* \"#utility.yul\":7009:7015   */\n      dup5\n        /* \"#utility.yul\":6965:7036   */\n      tag_354\n      jump\t// in\n    tag_504:\n        /* \"#utility.yul\":6821:7043   */\n      swap3\n      swap2\n      pop\n      pop\n      jump\t// out\n        /* \"#utility.yul\":7049:7378   */\n    tag_54:\n        /* \"#utility.yul\":7108:7114   */\n      0x00\n        /* \"#utility.yul\":7157:7159   */\n      0x20\n        /* \"#utility.yul\":7145:7154   */\n      dup3\n        /* \"#utility.yul\":7136:7143   */\n      dup5\n        /* \"#utility.yul\":7132:7155   */\n      sub\n        /* \"#utility.yul\":7128:7160   */\n      slt\n        /* \"#utility.yul\":7125:7244   */\n      iszero\n      tag_506\n      jumpi\n        /* \"#utility.yul\":7163:7242   */\n      tag_507\n      tag_340\n      jump\t// in\n    tag_507:\n        /* \"#utility.yul\":7125:7244   */\n    tag_506:\n        /* \"#utility.yul\":7283:7284   */\n      0x00\n        /* \"#utility.yul\":7308:7361   */\n      tag_508\n        /* \"#utility.yul\":7353:7360   */\n      dup5\n        /* \"#utility.yul\":7344:7350   */\n      dup3\n        /* \"#utility.yul\":7333:7342   */\n      dup6\n        /* \"#utility.yul\":7329:7351   */\n      add\n        /* \"#utility.yul\":7308:7361   */\n      tag_344\n      jump\t// in\n    tag_508:\n        /* \"#utility.yul\":7298:7361   */\n      swap2\n      pop\n        /* \"#utility.yul\":7254:7371   */\n      pop\n        /* \"#utility.yul\":7049:7378   */\n      swap3\n      swap2\n      pop\n      pop\n      jump\t// out\n        /* \"#utility.yul\":7384:7474   */\n    tag_364:\n        /* \"#utility.yul\":7418:7425   */\n      0x00\n        /* \"#utility.yul\":7461:7466   */\n      dup2\n        /* \"#utility.yul\":7454:7467   */\n      iszero\n        /* \"#utility.yul\":7447:7468   */\n      iszero\n        /* \"#utility.yul\":7436:7468   */\n      swap1\n      pop\n        /* \"#utility.yul\":7384:7474   */\n      swap2\n      swap1\n      pop\n      jump\t// out\n        /* \"#utility.yul\":7480:7589   */\n    tag_365:\n        /* \"#utility.yul\":7561:7582   */\n      tag_511\n        /* \"#utility.yul\":7576:7581   */\n      dup2\n        /* \"#utility.yul\":7561:7582   */\n      tag_364\n      jump\t// in\n    tag_511:\n        /* \"#utility.yul\":7556:7559   */\n      dup3\n        /* \"#utility.yul\":7549:7583   */\n      mstore\n        /* \"#utility.yul\":7480:7589   */\n      pop\n      pop\n      jump\t// out\n        /* \"#utility.yul\":7595:9075   */\n    tag_57:\n        /* \"#utility.yul\":7994:7998   */\n      0x00\n        /* \"#utility.yul\":8032:8035   */\n      0x0140\n        /* \"#utility.yul\":8021:8030   */\n      dup3\n        /* \"#utility.yul\":8017:8036   */\n      add\n        /* \"#utility.yul\":8009:8036   */\n      swap1\n      pop\n        /* \"#utility.yul\":8046:8117   */\n      tag_513\n        /* \"#utility.yul\":8114:8115   */\n      0x00\n        /* \"#utility.yul\":8103:8112   */\n      dup4\n        /* \"#utility.yul\":8099:8116   */\n      add\n        /* \"#utility.yul\":8090:8096   */\n      dup14\n        /* \"#utility.yul\":8046:8117   */\n      tag_354\n      jump\t// in\n    tag_513:\n        /* \"#utility.yul\":8127:8199   */\n      tag_514\n        /* \"#utility.yul\":8195:8197   */\n      0x20\n        /* \"#utility.yul\":8184:8193   */\n      dup4\n        /* \"#utility.yul\":8180:8198   */\n      add\n        /* \"#utility.yul\":8171:8177   */\n      dup13\n        /* \"#utility.yul\":8127:8199   */\n      tag_357\n      jump\t// in\n    tag_514:\n        /* \"#utility.yul\":8246:8255   */\n      dup2\n        /* \"#utility.yul\":8240:8244   */\n      dup2\n        /* \"#utility.yul\":8236:8256   */\n      sub\n        /* \"#utility.yul\":8231:8233   */\n      0x40\n        /* \"#utility.yul\":8220:8229   */\n      dup4\n        /* \"#utility.yul\":8216:8234   */\n      add\n        /* \"#utility.yul\":8209:8257   */\n      mstore\n        /* \"#utility.yul\":8274:8352   */\n      tag_515\n        /* \"#utility.yul\":8347:8351   */\n      dup2\n        /* \"#utility.yul\":8338:8344   */\n      dup12\n        /* \"#utility.yul\":8274:8352   */\n      tag_361\n      jump\t// in\n    tag_515:\n        /* \"#utility.yul\":8266:8352   */\n      swap1\n      pop\n        /* \"#utility.yul\":8399:8408   */\n      dup2\n        /* \"#utility.yul\":8393:8397   */\n      dup2\n        /* \"#utility.yul\":8389:8409   */\n      sub\n        /* \"#utility.yul\":8384:8386   */\n      0x60\n        /* \"#utility.yul\":8373:8382   */\n      dup4\n        /* \"#utility.yul\":8369:8387   */\n      add\n        /* \"#utility.yul\":8362:8410   */\n      mstore\n        /* \"#utility.yul\":8427:8505   */\n      tag_516\n        /* \"#utility.yul\":8500:8504   */\n      dup2\n        /* \"#utility.yul\":8491:8497   */\n      dup11\n        /* \"#utility.yul\":8427:8505   */\n      tag_361\n      jump\t// in\n    tag_516:\n        /* \"#utility.yul\":8419:8505   */\n      swap1\n      pop\n        /* \"#utility.yul\":8553:8562   */\n      dup2\n        /* \"#utility.yul\":8547:8551   */\n      dup2\n        /* \"#utility.yul\":8543:8563   */\n      sub\n        /* \"#utility.yul\":8537:8540   */\n      0x80\n        /* \"#utility.yul\":8526:8535   */\n      dup4\n        /* \"#utility.yul\":8522:8541   */\n      add\n        /* \"#utility.yul\":8515:8564   */\n      mstore\n        /* \"#utility.yul\":8581:8659   */\n      tag_517\n        /* \"#utility.yul\":8654:8658   */\n      dup2\n        /* \"#utility.yul\":8645:8651   */\n      dup10\n        /* \"#utility.yul\":8581:8659   */\n      tag_361\n      jump\t// in\n    tag_517:\n        /* \"#utility.yul\":8573:8659   */\n      swap1\n      pop\n        /* \"#utility.yul\":8669:8742   */\n      tag_518\n        /* \"#utility.yul\":8737:8740   */\n      0xa0\n        /* \"#utility.yul\":8726:8735   */\n      dup4\n        /* \"#utility.yul\":8722:8741   */\n      add\n        /* \"#utility.yul\":8713:8719   */\n      dup9\n        /* \"#utility.yul\":8669:8742   */\n      tag_354\n      jump\t// in\n    tag_518:\n        /* \"#utility.yul\":8752:8825   */\n      tag_519\n        /* \"#utility.yul\":8820:8823   */\n      0xc0\n        /* \"#utility.yul\":8809:8818   */\n      dup4\n        /* \"#utility.yul\":8805:8824   */\n      add\n        /* \"#utility.yul\":8796:8802   */\n      dup8\n        /* \"#utility.yul\":8752:8825   */\n      tag_354\n      jump\t// in\n    tag_519:\n        /* \"#utility.yul\":8835:8908   */\n      tag_520\n        /* \"#utility.yul\":8903:8906   */\n      0xe0\n        /* \"#utility.yul\":8892:8901   */\n      dup4\n        /* \"#utility.yul\":8888:8907   */\n      add\n        /* \"#utility.yul\":8879:8885   */\n      dup7\n        /* \"#utility.yul\":8835:8908   */\n      tag_354\n      jump\t// in\n    tag_520:\n        /* \"#utility.yul\":8918:8985   */\n      tag_521\n        /* \"#utility.yul\":8980:8983   */\n      0x0100\n        /* \"#utility.yul\":8969:8978   */\n      dup4\n        /* \"#utility.yul\":8965:8984   */\n      add\n        /* \"#utility.yul\":8956:8962   */\n      dup6\n        /* \"#utility.yul\":8918:8985   */\n      tag_365\n      jump\t// in\n    tag_521:\n        /* \"#utility.yul\":8995:9068   */\n      tag_522\n        /* \"#utility.yul\":9063:9066   */\n      0x0120\n        /* \"#utility.yul\":9052:9061   */\n      dup4\n        /* \"#utility.yul\":9048:9067   */\n      add\n        /* \"#utility.yul\":9039:9045   */\n      dup5\n        /* \"#utility.yul\":8995:9068   */\n      tag_354\n      jump\t// in\n    tag_522:\n        /* \"#utility.yul\":7595:9075   */\n      swap12\n      swap11\n      pop\n      pop\n      pop\n      pop\n      pop\n      pop\n      pop\n      pop\n      pop\n      pop\n      pop\n      jump\t// out\n        /* \"#utility.yul\":9081:9189   */\n    tag_366:\n        /* \"#utility.yul\":9158:9182   */\n      tag_524\n        /* \"#utility.yul\":9176:9181   */\n      dup2\n        /* \"#utility.yul\":9158:9182   */\n      tag_342\n      jump\t// in\n    tag_524:\n        /* \"#utility.yul\":9153:9156   */\n      dup3\n        /* \"#utility.yul\":9146:9183   */\n      mstore\n        /* \"#utility.yul\":9081:9189   */\n      pop\n      pop\n      jump\t// out\n        /* \"#utility.yul\":9195:9303   */\n    tag_367:\n        /* \"#utility.yul\":9272:9296   */\n      tag_526\n        /* \"#utility.yul\":9290:9295   */\n      dup2\n        /* \"#utility.yul\":9272:9296   */\n      tag_356\n      jump\t// in\n    tag_526:\n        /* \"#utility.yul\":9267:9270   */\n      dup3\n        /* \"#utility.yul\":9260:9297   */\n      mstore\n        /* \"#utility.yul\":9195:9303   */\n      pop\n      pop\n      jump\t// out\n        /* \"#utility.yul\":9309:9468   */\n    tag_368:\n        /* \"#utility.yul\":9383:9394   */\n      0x00\n        /* \"#utility.yul\":9417:9423   */\n      dup3\n        /* \"#utility.yul\":9412:9415   */\n      dup3\n        /* \"#utility.yul\":9405:9424   */\n      mstore\n        /* \"#utility.yul\":9457:9461   */\n      0x20\n        /* \"#utility.yul\":9452:9455   */\n      dup3\n        /* \"#utility.yul\":9448:9462   */\n      add\n        /* \"#utility.yul\":9433:9462   */\n      swap1\n      pop\n        /* \"#utility.yul\":9309:9468   */\n      swap3\n      swap2\n      pop\n      pop\n      jump\t// out\n        /* \"#utility.yul\":9474:9831   */\n    tag_369:\n        /* \"#utility.yul\":9552:9555   */\n      0x00\n        /* \"#utility.yul\":9580:9619   */\n      tag_529\n        /* \"#utility.yul\":9613:9618   */\n      dup3\n        /* \"#utility.yul\":9580:9619   */\n      tag_358\n      jump\t// in\n    tag_529:\n        /* \"#utility.yul\":9635:9696   */\n      tag_530\n        /* \"#utility.yul\":9689:9695   */\n      dup2\n        /* \"#utility.yul\":9684:9687   */\n      dup6\n        /* \"#utility.yul\":9635:9696   */\n      tag_368\n      jump\t// in\n    tag_530:\n        /* \"#utility.yul\":9628:9696   */\n      swap4\n      pop\n        /* \"#utility.yul\":9705:9770   */\n      tag_531\n        /* \"#utility.yul\":9763:9769   */\n      dup2\n        /* \"#utility.yul\":9758:9761   */\n      dup6\n        /* \"#utility.yul\":9751:9755   */\n      0x20\n        /* \"#utility.yul\":9744:9749   */\n      dup7\n        /* \"#utility.yul\":9740:9756   */\n      add\n        /* \"#utility.yul\":9705:9770   */\n      tag_360\n      jump\t// in\n    tag_531:\n        /* \"#utility.yul\":9795:9824   */\n      tag_532\n        /* \"#utility.yul\":9817:9823   */\n      dup2\n        /* \"#utility.yul\":9795:9824   */\n      tag_347\n      jump\t// in\n    tag_532:\n        /* \"#utility.yul\":9790:9793   */\n      dup5\n        /* \"#utility.yul\":9786:9825   */\n      add\n        /* \"#utility.yul\":9779:9825   */\n      swap2\n      pop\n        /* \"#utility.yul\":9556:9831   */\n      pop\n        /* \"#utility.yul\":9474:9831   */\n      swap3\n      swap2\n      pop\n      pop\n      jump\t// out\n        /* \"#utility.yul\":9893:11214   */\n    tag_370:\n        /* \"#utility.yul\":10006:10009   */\n      0x00\n        /* \"#utility.yul\":10042:10046   */\n      0xc0\n        /* \"#utility.yul\":10037:10040   */\n      dup4\n        /* \"#utility.yul\":10033:10047   */\n      add\n        /* \"#utility.yul\":10127:10131   */\n      0x00\n        /* \"#utility.yul\":10120:10125   */\n      dup4\n        /* \"#utility.yul\":10116:10132   */\n      add\n        /* \"#utility.yul\":10110:10133   */\n      mload\n        /* \"#utility.yul\":10146:10209   */\n      tag_534\n        /* \"#utility.yul\":10203:10207   */\n      0x00\n        /* \"#utility.yul\":10198:10201   */\n      dup7\n        /* \"#utility.yul\":10194:10208   */\n      add\n        /* \"#utility.yul\":10180:10192   */\n      dup3\n        /* \"#utility.yul\":10146:10209   */\n      tag_366\n      jump\t// in\n    tag_534:\n        /* \"#utility.yul\":10057:10219   */\n      pop\n        /* \"#utility.yul\":10306:10310   */\n      0x20\n        /* \"#utility.yul\":10299:10304   */\n      dup4\n        /* \"#utility.yul\":10295:10311   */\n      add\n        /* \"#utility.yul\":10289:10312   */\n      mload\n        /* \"#utility.yul\":10325:10388   */\n      tag_535\n        /* \"#utility.yul\":10382:10386   */\n      0x20\n        /* \"#utility.yul\":10377:10380   */\n      dup7\n        /* \"#utility.yul\":10373:10387   */\n      add\n        /* \"#utility.yul\":10359:10371   */\n      dup3\n        /* \"#utility.yul\":10325:10388   */\n      tag_367\n      jump\t// in\n    tag_535:\n        /* \"#utility.yul\":10229:10398   */\n      pop\n        /* \"#utility.yul\":10486:10490   */\n      0x40\n        /* \"#utility.yul\":10479:10484   */\n      dup4\n        /* \"#utility.yul\":10475:10491   */\n      add\n        /* \"#utility.yul\":10469:10492   */\n      mload\n        /* \"#utility.yul\":10539:10542   */\n      dup5\n        /* \"#utility.yul\":10533:10537   */\n      dup3\n        /* \"#utility.yul\":10529:10543   */\n      sub\n        /* \"#utility.yul\":10522:10526   */\n      0x40\n        /* \"#utility.yul\":10517:10520   */\n      dup7\n        /* \"#utility.yul\":10513:10527   */\n      add\n        /* \"#utility.yul\":10506:10544   */\n      mstore\n        /* \"#utility.yul\":10565:10638   */\n      tag_536\n        /* \"#utility.yul\":10633:10637   */\n      dup3\n        /* \"#utility.yul\":10619:10631   */\n      dup3\n        /* \"#utility.yul\":10565:10638   */\n      tag_369\n      jump\t// in\n    tag_536:\n        /* \"#utility.yul\":10557:10638   */\n      swap2\n      pop\n        /* \"#utility.yul\":10408:10649   */\n      pop\n        /* \"#utility.yul\":10734:10738   */\n      0x60\n        /* \"#utility.yul\":10727:10732   */\n      dup4\n        /* \"#utility.yul\":10723:10739   */\n      add\n        /* \"#utility.yul\":10717:10740   */\n      mload\n        /* \"#utility.yul\":10753:10816   */\n      tag_537\n        /* \"#utility.yul\":10810:10814   */\n      0x60\n        /* \"#utility.yul\":10805:10808   */\n      dup7\n        /* \"#utility.yul\":10801:10815   */\n      add\n        /* \"#utility.yul\":10787:10799   */\n      dup3\n        /* \"#utility.yul\":10753:10816   */\n      tag_366\n      jump\t// in\n    tag_537:\n        /* \"#utility.yul\":10659:10826   */\n      pop\n        /* \"#utility.yul\":10916:10920   */\n      0x80\n        /* \"#utility.yul\":10909:10914   */\n      dup4\n        /* \"#utility.yul\":10905:10921   */\n      add\n        /* \"#utility.yul\":10899:10922   */\n      mload\n        /* \"#utility.yul\":10935:10998   */\n      tag_538\n        /* \"#utility.yul\":10992:10996   */\n      0x80\n        /* \"#utility.yul\":10987:10990   */\n      dup7\n        /* \"#utility.yul\":10983:10997   */\n      add\n        /* \"#utility.yul\":10969:10981   */\n      dup3\n        /* \"#utility.yul\":10935:10998   */\n      tag_366\n      jump\t// in\n    tag_538:\n        /* \"#utility.yul\":10836:11008   */\n      pop\n        /* \"#utility.yul\":11095:11099   */\n      0xa0\n        /* \"#utility.yul\":11088:11093   */\n      dup4\n        /* \"#utility.yul\":11084:11100   */\n      add\n        /* \"#utility.yul\":11078:11101   */\n      mload\n        /* \"#utility.yul\":11114:11177   */\n      tag_539\n        /* \"#utility.yul\":11171:11175   */\n      0xa0\n        /* \"#utility.yul\":11166:11169   */\n      dup7\n        /* \"#utility.yul\":11162:11176   */\n      add\n        /* \"#utility.yul\":11148:11160   */\n      dup3\n        /* \"#utility.yul\":11114:11177   */\n      tag_366\n      jump\t// in\n    tag_539:\n        /* \"#utility.yul\":11018:11187   */\n      pop\n        /* \"#utility.yul\":11204:11208   */\n      dup1\n        /* \"#utility.yul\":11197:11208   */\n      swap2\n      pop\n        /* \"#utility.yul\":10011:11214   */\n      pop\n        /* \"#utility.yul\":9893:11214   */\n      swap3\n      swap2\n      pop\n      pop\n      jump\t// out\n        /* \"#utility.yul\":11220:11581   */\n    tag_66:\n        /* \"#utility.yul\":11357:11361   */\n      0x00\n        /* \"#utility.yul\":11395:11397   */\n      0x20\n        /* \"#utility.yul\":11384:11393   */\n      dup3\n        /* \"#utility.yul\":11380:11398   */\n      add\n        /* \"#utility.yul\":11372:11398   */\n      swap1\n      pop\n        /* \"#utility.yul\":11444:11453   */\n      dup2\n        /* \"#utility.yul\":11438:11442   */\n      dup2\n        /* \"#utility.yul\":11434:11454   */\n      sub\n        /* \"#utility.yul\":11430:11431   */\n      0x00\n        /* \"#utility.yul\":11419:11428   */\n      dup4\n        /* \"#utility.yul\":11415:11432   */\n      add\n        /* \"#utility.yul\":11408:11455   */\n      mstore\n        /* \"#utility.yul\":11472:11574   */\n      tag_541\n        /* \"#utility.yul\":11569:11573   */\n      dup2\n        /* \"#utility.yul\":11560:11566   */\n      dup5\n        /* \"#utility.yul\":11472:11574   */\n      tag_370\n      jump\t// in\n    tag_541:\n        /* \"#utility.yul\":11464:11574   */\n      swap1\n      pop\n        /* \"#utility.yul\":11220:11581   */\n      swap3\n      swap2\n      pop\n      pop\n      jump\t// out\n        /* \"#utility.yul\":11587:12096   */\n    tag_70:\n        /* \"#utility.yul\":11656:11662   */\n      0x00\n        /* \"#utility.yul\":11705:11707   */\n      0x20\n        /* \"#utility.yul\":11693:11702   */\n      dup3\n        /* \"#utility.yul\":11684:11691   */\n      dup5\n        /* \"#utility.yul\":11680:11703   */\n      sub\n        /* \"#utility.yul\":11676:11708   */\n      slt\n        /* \"#utility.yul\":11673:11792   */\n      iszero\n      tag_543\n      jumpi\n        /* \"#utility.yul\":11711:11790   */\n      tag_544\n      tag_340\n      jump\t// in\n    tag_544:\n        /* \"#utility.yul\":11673:11792   */\n    tag_543:\n        /* \"#utility.yul\":11859:11860   */\n      0x00\n        /* \"#utility.yul\":11848:11857   */\n      dup3\n        /* \"#utility.yul\":11844:11861   */\n      add\n        /* \"#utility.yul\":11831:11862   */\n      calldataload\n        /* \"#utility.yul\":11889:11907   */\n      0xffffffffffffffff\n        /* \"#utility.yul\":11881:11887   */\n      dup2\n        /* \"#utility.yul\":11878:11908   */\n      gt\n        /* \"#utility.yul\":11875:11992   */\n      iszero\n      tag_545\n      jumpi\n        /* \"#utility.yul\":11911:11990   */\n      tag_546\n      tag_341\n      jump\t// in\n    tag_546:\n        /* \"#utility.yul\":11875:11992   */\n    tag_545:\n        /* \"#utility.yul\":12016:12079   */\n      tag_547\n        /* \"#utility.yul\":12071:12078   */\n      dup5\n        /* \"#utility.yul\":12062:12068   */\n      dup3\n        /* \"#utility.yul\":12051:12060   */\n      dup6\n        /* \"#utility.yul\":12047:12069   */\n      add\n        /* \"#utility.yul\":12016:12079   */\n      tag_353\n      jump\t// in\n    tag_547:\n        /* \"#utility.yul\":12006:12079   */\n      swap2\n      pop\n        /* \"#utility.yul\":11802:12089   */\n      pop\n        /* \"#utility.yul\":11587:12096   */\n      swap3\n      swap2\n      pop\n      pop\n      jump\t// out\n        /* \"#utility.yul\":12102:12216   */\n    tag_371:\n        /* \"#utility.yul\":12169:12175   */\n      0x00\n        /* \"#utility.yul\":12203:12208   */\n      dup2\n        /* \"#utility.yul\":12197:12209   */\n      mload\n        /* \"#utility.yul\":12187:12209   */\n      swap1\n      pop\n        /* \"#utility.yul\":12102:12216   */\n      swap2\n      swap1\n      pop\n      jump\t// out\n        /* \"#utility.yul\":12222:12406   */\n    tag_372:\n        /* \"#utility.yul\":12321:12332   */\n      0x00\n        /* \"#utility.yul\":12355:12361   */\n      dup3\n        /* \"#utility.yul\":12350:12353   */\n      dup3\n        /* \"#utility.yul\":12343:12362   */\n      mstore\n        /* \"#utility.yul\":12395:12399   */\n      0x20\n        /* \"#utility.yul\":12390:12393   */\n      dup3\n        /* \"#utility.yul\":12386:12400   */\n      add\n        /* \"#utility.yul\":12371:12400   */\n      swap1\n      pop\n        /* \"#utility.yul\":12222:12406   */\n      swap3\n      swap2\n      pop\n      pop\n      jump\t// out\n        /* \"#utility.yul\":12412:12544   */\n    tag_373:\n        /* \"#utility.yul\":12479:12483   */\n      0x00\n        /* \"#utility.yul\":12502:12505   */\n      dup2\n        /* \"#utility.yul\":12494:12505   */\n      swap1\n      pop\n        /* \"#utility.yul\":12532:12536   */\n      0x20\n        /* \"#utility.yul\":12527:12530   */\n      dup3\n        /* \"#utility.yul\":12523:12537   */\n      add\n        /* \"#utility.yul\":12515:12537   */\n      swap1\n      pop\n        /* \"#utility.yul\":12412:12544   */\n      swap2\n      swap1\n      pop\n      jump\t// out\n        /* \"#utility.yul\":12550:12729   */\n    tag_374:\n        /* \"#utility.yul\":12619:12629   */\n      0x00\n        /* \"#utility.yul\":12640:12686   */\n      tag_552\n        /* \"#utility.yul\":12682:12685   */\n      dup4\n        /* \"#utility.yul\":12674:12680   */\n      dup4\n        /* \"#utility.yul\":12640:12686   */\n      tag_366\n      jump\t// in\n    tag_552:\n        /* \"#utility.yul\":12718:12722   */\n      0x20\n        /* \"#utility.yul\":12713:12716   */\n      dup4\n        /* \"#utility.yul\":12709:12723   */\n      add\n        /* \"#utility.yul\":12695:12723   */\n      swap1\n      pop\n        /* \"#utility.yul\":12550:12729   */\n      swap3\n      swap2\n      pop\n      pop\n      jump\t// out\n        /* \"#utility.yul\":12735:12848   */\n    tag_375:\n        /* \"#utility.yul\":12805:12809   */\n      0x00\n        /* \"#utility.yul\":12837:12841   */\n      0x20\n        /* \"#utility.yul\":12832:12835   */\n      dup3\n        /* \"#utility.yul\":12828:12842   */\n      add\n        /* \"#utility.yul\":12820:12842   */\n      swap1\n      pop\n        /* \"#utility.yul\":12735:12848   */\n      swap2\n      swap1\n      pop\n      jump\t// out\n        /* \"#utility.yul\":12884:13616   */\n    tag_376:\n        /* \"#utility.yul\":13003:13006   */\n      0x00\n        /* \"#utility.yul\":13032:13086   */\n      tag_555\n        /* \"#utility.yul\":13080:13085   */\n      dup3\n        /* \"#utility.yul\":13032:13086   */\n      tag_371\n      jump\t// in\n    tag_555:\n        /* \"#utility.yul\":13102:13188   */\n      tag_556\n        /* \"#utility.yul\":13181:13187   */\n      dup2\n        /* \"#utility.yul\":13176:13179   */\n      dup6\n        /* \"#utility.yul\":13102:13188   */\n      tag_372\n      jump\t// in\n    tag_556:\n        /* \"#utility.yul\":13095:13188   */\n      swap4\n      pop\n        /* \"#utility.yul\":13212:13268   */\n      tag_557\n        /* \"#utility.yul\":13262:13267   */\n      dup4\n        /* \"#utility.yul\":13212:13268   */\n      tag_373\n      jump\t// in\n    tag_557:\n        /* \"#utility.yul\":13291:13298   */\n      dup1\n        /* \"#utility.yul\":13322:13323   */\n      0x00\n        /* \"#utility.yul\":13307:13591   */\n    tag_558:\n        /* \"#utility.yul\":13332:13338   */\n      dup4\n        /* \"#utility.yul\":13329:13330   */\n      dup2\n        /* \"#utility.yul\":13326:13339   */\n      lt\n        /* \"#utility.yul\":13307:13591   */\n      iszero\n      tag_560\n      jumpi\n        /* \"#utility.yul\":13408:13414   */\n      dup2\n        /* \"#utility.yul\":13402:13415   */\n      mload\n        /* \"#utility.yul\":13435:13498   */\n      tag_561\n        /* \"#utility.yul\":13494:13497   */\n      dup9\n        /* \"#utility.yul\":13479:13492   */\n      dup3\n        /* \"#utility.yul\":13435:13498   */\n      tag_374\n      jump\t// in\n    tag_561:\n        /* \"#utility.yul\":13428:13498   */\n      swap8\n      pop\n        /* \"#utility.yul\":13521:13581   */\n      tag_562\n        /* \"#utility.yul\":13574:13580   */\n      dup4\n        /* \"#utility.yul\":13521:13581   */\n      tag_375\n      jump\t// in\n    tag_562:\n        /* \"#utility.yul\":13511:13581   */\n      swap3\n      pop\n        /* \"#utility.yul\":13367:13591   */\n      pop\n        /* \"#utility.yul\":13354:13355   */\n      0x01\n        /* \"#utility.yul\":13351:13352   */\n      dup2\n        /* \"#utility.yul\":13347:13356   */\n      add\n        /* \"#utility.yul\":13342:13356   */\n      swap1\n      pop\n        /* \"#utility.yul\":13307:13591   */\n      jump(tag_558)\n    tag_560:\n        /* \"#utility.yul\":13311:13325   */\n      pop\n        /* \"#utility.yul\":13607:13610   */\n      dup6\n        /* \"#utility.yul\":13600:13610   */\n      swap4\n      pop\n        /* \"#utility.yul\":13008:13616   */\n      pop\n      pop\n      pop\n        /* \"#utility.yul\":12884:13616   */\n      swap3\n      swap2\n      pop\n      pop\n      jump\t// out\n        /* \"#utility.yul\":13622:13995   */\n    tag_73:\n        /* \"#utility.yul\":13765:13769   */\n      0x00\n        /* \"#utility.yul\":13803:13805   */\n      0x20\n        /* \"#utility.yul\":13792:13801   */\n      dup3\n        /* \"#utility.yul\":13788:13806   */\n      add\n        /* \"#utility.yul\":13780:13806   */\n      swap1\n      pop\n        /* \"#utility.yul\":13852:13861   */\n      dup2\n        /* \"#utility.yul\":13846:13850   */\n      dup2\n        /* \"#utility.yul\":13842:13862   */\n      sub\n        /* \"#utility.yul\":13838:13839   */\n      0x00\n        /* \"#utility.yul\":13827:13836   */\n      dup4\n        /* \"#utility.yul\":13823:13840   */\n      add\n        /* \"#utility.yul\":13816:13863   */\n      mstore\n        /* \"#utility.yul\":13880:13988   */\n      tag_564\n        /* \"#utility.yul\":13983:13987   */\n      dup2\n        /* \"#utility.yul\":13974:13980   */\n      dup5\n        /* \"#utility.yul\":13880:13988   */\n      tag_376\n      jump\t// in\n    tag_564:\n        /* \"#utility.yul\":13872:13988   */\n      swap1\n      pop\n        /* \"#utility.yul\":13622:13995   */\n      swap3\n      swap2\n      pop\n      pop\n      jump\t// out\n        /* \"#utility.yul\":14001:14117   */\n    tag_377:\n        /* \"#utility.yul\":14091:14092   */\n      0x03\n        /* \"#utility.yul\":14084:14089   */\n      dup2\n        /* \"#utility.yul\":14081:14093   */\n      lt\n        /* \"#utility.yul\":14071:14111   */\n      tag_566\n      jumpi\n        /* \"#utility.yul\":14107:14108   */\n      0x00\n        /* \"#utility.yul\":14104:14105   */\n      dup1\n        /* \"#utility.yul\":14097:14109   */\n      revert\n        /* \"#utility.yul\":14071:14111   */\n    tag_566:\n        /* \"#utility.yul\":14001:14117   */\n      pop\n      jump\t// out\n        /* \"#utility.yul\":14123:14296   */\n    tag_378:\n        /* \"#utility.yul\":14186:14191   */\n      0x00\n        /* \"#utility.yul\":14224:14230   */\n      dup2\n        /* \"#utility.yul\":14211:14231   */\n      calldataload\n        /* \"#utility.yul\":14202:14231   */\n      swap1\n      pop\n        /* \"#utility.yul\":14240:14290   */\n      tag_568\n        /* \"#utility.yul\":14284:14289   */\n      dup2\n        /* \"#utility.yul\":14240:14290   */\n      tag_377\n      jump\t// in\n    tag_568:\n        /* \"#utility.yul\":14123:14296   */\n      swap3\n      swap2\n      pop\n      pop\n      jump\t// out\n        /* \"#utility.yul\":14302:15641   */\n    tag_76:\n        /* \"#utility.yul\":14435:14441   */\n      0x00\n        /* \"#utility.yul\":14443:14449   */\n      dup1\n        /* \"#utility.yul\":14451:14457   */\n      0x00\n        /* \"#utility.yul\":14459:14465   */\n      dup1\n        /* \"#utility.yul\":14508:14511   */\n      0x80\n        /* \"#utility.yul\":14496:14505   */\n      dup6\n        /* \"#utility.yul\":14487:14494   */\n      dup8\n        /* \"#utility.yul\":14483:14506   */\n      sub\n        /* \"#utility.yul\":14479:14512   */\n      slt\n        /* \"#utility.yul\":14476:14596   */\n      iszero\n      tag_570\n      jumpi\n        /* \"#utility.yul\":14515:14594   */\n      tag_571\n      tag_340\n      jump\t// in\n    tag_571:\n        /* \"#utility.yul\":14476:14596   */\n    tag_570:\n        /* \"#utility.yul\":14663:14664   */\n      0x00\n        /* \"#utility.yul\":14652:14661   */\n      dup6\n        /* \"#utility.yul\":14648:14665   */\n      add\n        /* \"#utility.yul\":14635:14666   */\n      calldataload\n        /* \"#utility.yul\":14693:14711   */\n      0xffffffffffffffff\n        /* \"#utility.yul\":14685:14691   */\n      dup2\n        /* \"#utility.yul\":14682:14712   */\n      gt\n        /* \"#utility.yul\":14679:14796   */\n      iszero\n      tag_572\n      jumpi\n        /* \"#utility.yul\":14715:14794   */\n      tag_573\n      tag_341\n      jump\t// in\n    tag_573:\n        /* \"#utility.yul\":14679:14796   */\n    tag_572:\n        /* \"#utility.yul\":14820:14883   */\n      tag_574\n        /* \"#utility.yul\":14875:14882   */\n      dup8\n        /* \"#utility.yul\":14866:14872   */\n      dup3\n        /* \"#utility.yul\":14855:14864   */\n      dup9\n        /* \"#utility.yul\":14851:14873   */\n      add\n        /* \"#utility.yul\":14820:14883   */\n      tag_353\n      jump\t// in\n    tag_574:\n        /* \"#utility.yul\":14810:14883   */\n      swap5\n      pop\n        /* \"#utility.yul\":14606:14893   */\n      pop\n        /* \"#utility.yul\":14960:14962   */\n      0x20\n        /* \"#utility.yul\":14949:14958   */\n      dup6\n        /* \"#utility.yul\":14945:14963   */\n      add\n        /* \"#utility.yul\":14932:14964   */\n      calldataload\n        /* \"#utility.yul\":14991:15009   */\n      0xffffffffffffffff\n        /* \"#utility.yul\":14983:14989   */\n      dup2\n        /* \"#utility.yul\":14980:15010   */\n      gt\n        /* \"#utility.yul\":14977:15094   */\n      iszero\n      tag_575\n      jumpi\n        /* \"#utility.yul\":15013:15092   */\n      tag_576\n      tag_341\n      jump\t// in\n    tag_576:\n        /* \"#utility.yul\":14977:15094   */\n    tag_575:\n        /* \"#utility.yul\":15118:15181   */\n      tag_577\n        /* \"#utility.yul\":15173:15180   */\n      dup8\n        /* \"#utility.yul\":15164:15170   */\n      dup3\n        /* \"#utility.yul\":15153:15162   */\n      dup9\n        /* \"#utility.yul\":15149:15171   */\n      add\n        /* \"#utility.yul\":15118:15181   */\n      tag_353\n      jump\t// in\n    tag_577:\n        /* \"#utility.yul\":15108:15181   */\n      swap4\n      pop\n        /* \"#utility.yul\":14903:15191   */\n      pop\n        /* \"#utility.yul\":15258:15260   */\n      0x40\n        /* \"#utility.yul\":15247:15256   */\n      dup6\n        /* \"#utility.yul\":15243:15261   */\n      add\n        /* \"#utility.yul\":15230:15262   */\n      calldataload\n        /* \"#utility.yul\":15289:15307   */\n      0xffffffffffffffff\n        /* \"#utility.yul\":15281:15287   */\n      dup2\n        /* \"#utility.yul\":15278:15308   */\n      gt\n        /* \"#utility.yul\":15275:15392   */\n      iszero\n      tag_578\n      jumpi\n        /* \"#utility.yul\":15311:15390   */\n      tag_579\n      tag_341\n      jump\t// in\n    tag_579:\n        /* \"#utility.yul\":15275:15392   */\n    tag_578:\n        /* \"#utility.yul\":15416:15479   */\n      tag_580\n        /* \"#utility.yul\":15471:15478   */\n      dup8\n        /* \"#utility.yul\":15462:15468   */\n      dup3\n        /* \"#utility.yul\":15451:15460   */\n      dup9\n        /* \"#utility.yul\":15447:15469   */\n      add\n        /* \"#utility.yul\":15416:15479   */\n      tag_353\n      jump\t// in\n    tag_580:\n        /* \"#utility.yul\":15406:15479   */\n      swap3\n      pop\n        /* \"#utility.yul\":15201:15489   */\n      pop\n        /* \"#utility.yul\":15528:15530   */\n      0x60\n        /* \"#utility.yul\":15554:15624   */\n      tag_581\n        /* \"#utility.yul\":15616:15623   */\n      dup8\n        /* \"#utility.yul\":15607:15613   */\n      dup3\n        /* \"#utility.yul\":15596:15605   */\n      dup9\n        /* \"#utility.yul\":15592:15614   */\n      add\n        /* \"#utility.yul\":15554:15624   */\n      tag_378\n      jump\t// in\n    tag_581:\n        /* \"#utility.yul\":15544:15624   */\n      swap2\n      pop\n        /* \"#utility.yul\":15499:15634   */\n      pop\n        /* \"#utility.yul\":14302:15641   */\n      swap3\n      swap6\n      swap2\n      swap5\n      pop\n      swap3\n      pop\n      jump\t// out\n        /* \"#utility.yul\":15647:15869   */\n    tag_90:\n        /* \"#utility.yul\":15740:15744   */\n      0x00\n        /* \"#utility.yul\":15778:15780   */\n      0x20\n        /* \"#utility.yul\":15767:15776   */\n      dup3\n        /* \"#utility.yul\":15763:15781   */\n      add\n        /* \"#utility.yul\":15755:15781   */\n      swap1\n      pop\n        /* \"#utility.yul\":15791:15862   */\n      tag_583\n        /* \"#utility.yul\":15859:15860   */\n      0x00\n        /* \"#utility.yul\":15848:15857   */\n      dup4\n        /* \"#utility.yul\":15844:15861   */\n      add\n        /* \"#utility.yul\":15835:15841   */\n      dup5\n        /* \"#utility.yul\":15791:15862   */\n      tag_357\n      jump\t// in\n    tag_583:\n        /* \"#utility.yul\":15647:15869   */\n      swap3\n      swap2\n      pop\n      pop\n      jump\t// out\n        /* \"#utility.yul\":15875:15974   */\n    tag_379:\n        /* \"#utility.yul\":15946:15967   */\n      tag_585\n        /* \"#utility.yul\":15961:15966   */\n      dup2\n        /* \"#utility.yul\":15946:15967   */\n      tag_364\n      jump\t// in\n    tag_585:\n        /* \"#utility.yul\":15941:15944   */\n      dup3\n        /* \"#utility.yul\":15934:15968   */\n      mstore\n        /* \"#utility.yul\":15875:15974   */\n      pop\n      pop\n      jump\t// out\n        /* \"#utility.yul\":16040:18235   */\n    tag_380:\n        /* \"#utility.yul\":16157:16160   */\n      0x00\n        /* \"#utility.yul\":16193:16199   */\n      0x0140\n        /* \"#utility.yul\":16188:16191   */\n      dup4\n        /* \"#utility.yul\":16184:16200   */\n      add\n        /* \"#utility.yul\":16280:16284   */\n      0x00\n        /* \"#utility.yul\":16273:16278   */\n      dup4\n        /* \"#utility.yul\":16269:16285   */\n      add\n        /* \"#utility.yul\":16263:16286   */\n      mload\n        /* \"#utility.yul\":16299:16362   */\n      tag_587\n        /* \"#utility.yul\":16356:16360   */\n      0x00\n        /* \"#utility.yul\":16351:16354   */\n      dup7\n        /* \"#utility.yul\":16347:16361   */\n      add\n        /* \"#utility.yul\":16333:16345   */\n      dup3\n        /* \"#utility.yul\":16299:16362   */\n      tag_366\n      jump\t// in\n    tag_587:\n        /* \"#utility.yul\":16210:16372   */\n      pop\n        /* \"#utility.yul\":16455:16459   */\n      0x20\n        /* \"#utility.yul\":16448:16453   */\n      dup4\n        /* \"#utility.yul\":16444:16460   */\n      add\n        /* \"#utility.yul\":16438:16461   */\n      mload\n        /* \"#utility.yul\":16474:16537   */\n      tag_588\n        /* \"#utility.yul\":16531:16535   */\n      0x20\n        /* \"#utility.yul\":16526:16529   */\n      dup7\n        /* \"#utility.yul\":16522:16536   */\n      add\n        /* \"#utility.yul\":16508:16520   */\n      dup3\n        /* \"#utility.yul\":16474:16537   */\n      tag_367\n      jump\t// in\n    tag_588:\n        /* \"#utility.yul\":16382:16547   */\n      pop\n        /* \"#utility.yul\":16637:16641   */\n      0x40\n        /* \"#utility.yul\":16630:16635   */\n      dup4\n        /* \"#utility.yul\":16626:16642   */\n      add\n        /* \"#utility.yul\":16620:16643   */\n      mload\n        /* \"#utility.yul\":16690:16693   */\n      dup5\n        /* \"#utility.yul\":16684:16688   */\n      dup3\n        /* \"#utility.yul\":16680:16694   */\n      sub\n        /* \"#utility.yul\":16673:16677   */\n      0x40\n        /* \"#utility.yul\":16668:16671   */\n      dup7\n        /* \"#utility.yul\":16664:16678   */\n      add\n        /* \"#utility.yul\":16657:16695   */\n      mstore\n        /* \"#utility.yul\":16716:16789   */\n      tag_589\n        /* \"#utility.yul\":16784:16788   */\n      dup3\n        /* \"#utility.yul\":16770:16782   */\n      dup3\n        /* \"#utility.yul\":16716:16789   */\n      tag_369\n      jump\t// in\n    tag_589:\n        /* \"#utility.yul\":16708:16789   */\n      swap2\n      pop\n        /* \"#utility.yul\":16557:16800   */\n      pop\n        /* \"#utility.yul\":16893:16897   */\n      0x60\n        /* \"#utility.yul\":16886:16891   */\n      dup4\n        /* \"#utility.yul\":16882:16898   */\n      add\n        /* \"#utility.yul\":16876:16899   */\n      mload\n        /* \"#utility.yul\":16946:16949   */\n      dup5\n        /* \"#utility.yul\":16940:16944   */\n      dup3\n        /* \"#utility.yul\":16936:16950   */\n      sub\n        /* \"#utility.yul\":16929:16933   */\n      0x60\n        /* \"#utility.yul\":16924:16927   */\n      dup7\n        /* \"#utility.yul\":16920:16934   */\n      add\n        /* \"#utility.yul\":16913:16951   */\n      mstore\n        /* \"#utility.yul\":16972:17045   */\n      tag_590\n        /* \"#utility.yul\":17040:17044   */\n      dup3\n        /* \"#utility.yul\":17026:17038   */\n      dup3\n        /* \"#utility.yul\":16972:17045   */\n      tag_369\n      jump\t// in\n    tag_590:\n        /* \"#utility.yul\":16964:17045   */\n      swap2\n      pop\n        /* \"#utility.yul\":16810:17056   */\n      pop\n        /* \"#utility.yul\":17142:17146   */\n      0x80\n        /* \"#utility.yul\":17135:17140   */\n      dup4\n        /* \"#utility.yul\":17131:17147   */\n      add\n        /* \"#utility.yul\":17125:17148   */\n      mload\n        /* \"#utility.yul\":17195:17198   */\n      dup5\n        /* \"#utility.yul\":17189:17193   */\n      dup3\n        /* \"#utility.yul\":17185:17199   */\n      sub\n        /* \"#utility.yul\":17178:17182   */\n      0x80\n        /* \"#utility.yul\":17173:17176   */\n      dup7\n        /* \"#utility.yul\":17169:17183   */\n      add\n        /* \"#utility.yul\":17162:17200   */\n      mstore\n        /* \"#utility.yul\":17221:17294   */\n      tag_591\n        /* \"#utility.yul\":17289:17293   */\n      dup3\n        /* \"#utility.yul\":17275:17287   */\n      dup3\n        /* \"#utility.yul\":17221:17294   */\n      tag_369\n      jump\t// in\n    tag_591:\n        /* \"#utility.yul\":17213:17294   */\n      swap2\n      pop\n        /* \"#utility.yul\":17066:17305   */\n      pop\n        /* \"#utility.yul\":17395:17399   */\n      0xa0\n        /* \"#utility.yul\":17388:17393   */\n      dup4\n        /* \"#utility.yul\":17384:17400   */\n      add\n        /* \"#utility.yul\":17378:17401   */\n      mload\n        /* \"#utility.yul\":17414:17477   */\n      tag_592\n        /* \"#utility.yul\":17471:17475   */\n      0xa0\n        /* \"#utility.yul\":17466:17469   */\n      dup7\n        /* \"#utility.yul\":17462:17476   */\n      add\n        /* \"#utility.yul\":17448:17460   */\n      dup3\n        /* \"#utility.yul\":17414:17477   */\n      tag_366\n      jump\t// in\n    tag_592:\n        /* \"#utility.yul\":17315:17487   */\n      pop\n        /* \"#utility.yul\":17574:17578   */\n      0xc0\n        /* \"#utility.yul\":17567:17572   */\n      dup4\n        /* \"#utility.yul\":17563:17579   */\n      add\n        /* \"#utility.yul\":17557:17580   */\n      mload\n        /* \"#utility.yul\":17593:17656   */\n      tag_593\n        /* \"#utility.yul\":17650:17654   */\n      0xc0\n        /* \"#utility.yul\":17645:17648   */\n      dup7\n        /* \"#utility.yul\":17641:17655   */\n      add\n        /* \"#utility.yul\":17627:17639   */\n      dup3\n        /* \"#utility.yul\":17593:17656   */\n      tag_366\n      jump\t// in\n    tag_593:\n        /* \"#utility.yul\":17497:17666   */\n      pop\n        /* \"#utility.yul\":17752:17756   */\n      0xe0\n        /* \"#utility.yul\":17745:17750   */\n      dup4\n        /* \"#utility.yul\":17741:17757   */\n      add\n        /* \"#utility.yul\":17735:17758   */\n      mload\n        /* \"#utility.yul\":17771:17834   */\n      tag_594\n        /* \"#utility.yul\":17828:17832   */\n      0xe0\n        /* \"#utility.yul\":17823:17826   */\n      dup7\n        /* \"#utility.yul\":17819:17833   */\n      add\n        /* \"#utility.yul\":17805:17817   */\n      dup3\n        /* \"#utility.yul\":17771:17834   */\n      tag_366\n      jump\t// in\n    tag_594:\n        /* \"#utility.yul\":17676:17844   */\n      pop\n        /* \"#utility.yul\":17930:17936   */\n      0x0100\n        /* \"#utility.yul\":17923:17928   */\n      dup4\n        /* \"#utility.yul\":17919:17937   */\n      add\n        /* \"#utility.yul\":17913:17938   */\n      mload\n        /* \"#utility.yul\":17951:18010   */\n      tag_595\n        /* \"#utility.yul\":18002:18008   */\n      0x0100\n        /* \"#utility.yul\":17997:18000   */\n      dup7\n        /* \"#utility.yul\":17993:18009   */\n      add\n        /* \"#utility.yul\":17979:17991   */\n      dup3\n        /* \"#utility.yul\":17951:18010   */\n      tag_379\n      jump\t// in\n    tag_595:\n        /* \"#utility.yul\":17854:18020   */\n      pop\n        /* \"#utility.yul\":18112:18118   */\n      0x0120\n        /* \"#utility.yul\":18105:18110   */\n      dup4\n        /* \"#utility.yul\":18101:18119   */\n      add\n        /* \"#utility.yul\":18095:18120   */\n      mload\n        /* \"#utility.yul\":18133:18198   */\n      tag_596\n        /* \"#utility.yul\":18190:18196   */\n      0x0120\n        /* \"#utility.yul\":18185:18188   */\n      dup7\n        /* \"#utility.yul\":18181:18197   */\n      add\n        /* \"#utility.yul\":18167:18179   */\n      dup3\n        /* \"#utility.yul\":18133:18198   */\n      tag_366\n      jump\t// in\n    tag_596:\n        /* \"#utility.yul\":18030:18208   */\n      pop\n        /* \"#utility.yul\":18225:18229   */\n      dup1\n        /* \"#utility.yul\":18218:18229   */\n      swap2\n      pop\n        /* \"#utility.yul\":16162:18235   */\n      pop\n        /* \"#utility.yul\":16040:18235   */\n      swap3\n      swap2\n      pop\n      pop\n      jump\t// out\n        /* \"#utility.yul\":18241:18610   */\n    tag_116:\n        /* \"#utility.yul\":18382:18386   */\n      0x00\n        /* \"#utility.yul\":18420:18422   */\n      0x20\n        /* \"#utility.yul\":18409:18418   */\n      dup3\n        /* \"#utility.yul\":18405:18423   */\n      add\n        /* \"#utility.yul\":18397:18423   */\n      swap1\n      pop\n        /* \"#utility.yul\":18469:18478   */\n      dup2\n        /* \"#utility.yul\":18463:18467   */\n      dup2\n        /* \"#utility.yul\":18459:18479   */\n      sub\n        /* \"#utility.yul\":18455:18456   */\n      0x00\n        /* \"#utility.yul\":18444:18453   */\n      dup4\n        /* \"#utility.yul\":18440:18457   */\n      add\n        /* \"#utility.yul\":18433:18480   */\n      mstore\n        /* \"#utility.yul\":18497:18603   */\n      tag_598\n        /* \"#utility.yul\":18598:18602   */\n      dup2\n        /* \"#utility.yul\":18589:18595   */\n      dup5\n        /* \"#utility.yul\":18497:18603   */\n      tag_380\n      jump\t// in\n    tag_598:\n        /* \"#utility.yul\":18489:18603   */\n      swap1\n      pop\n        /* \"#utility.yul\":18241:18610   */\n      swap3\n      swap2\n      pop\n      pop\n      jump\t// out\n        /* \"#utility.yul\":18616:18789   */\n    tag_381:\n        /* \"#utility.yul\":18756:18781   */\n      0x5175657374696f6e20646f6573206e6f74206578697374000000000000000000\n        /* \"#utility.yul\":18752:18753   */\n      0x00\n        /* \"#utility.yul\":18744:18750   */\n      dup3\n        /* \"#utility.yul\":18740:18754   */\n      add\n        /* \"#utility.yul\":18733:18782   */\n      mstore\n        /* \"#utility.yul\":18616:18789   */\n      pop\n      jump\t// out\n        /* \"#utility.yul\":18795:19161   */\n    tag_382:\n        /* \"#utility.yul\":18937:18940   */\n      0x00\n        /* \"#utility.yul\":18958:19025   */\n      tag_601\n        /* \"#utility.yul\":19022:19024   */\n      0x17\n        /* \"#utility.yul\":19017:19020   */\n      dup4\n        /* \"#utility.yul\":18958:19025   */\n      tag_359\n      jump\t// in\n    tag_601:\n        /* \"#utility.yul\":18951:19025   */\n      swap2\n      pop\n        /* \"#utility.yul\":19034:19127   */\n      tag_602\n        /* \"#utility.yul\":19123:19126   */\n      dup3\n        /* \"#utility.yul\":19034:19127   */\n      tag_381\n      jump\t// in\n    tag_602:\n        /* \"#utility.yul\":19152:19154   */\n      0x20\n        /* \"#utility.yul\":19147:19150   */\n      dup3\n        /* \"#utility.yul\":19143:19155   */\n      add\n        /* \"#utility.yul\":19136:19155   */\n      swap1\n      pop\n        /* \"#utility.yul\":18795:19161   */\n      swap2\n      swap1\n      pop\n      jump\t// out\n        /* \"#utility.yul\":19167:19586   */\n    tag_124:\n        /* \"#utility.yul\":19333:19337   */\n      0x00\n        /* \"#utility.yul\":19371:19373   */\n      0x20\n        /* \"#utility.yul\":19360:19369   */\n      dup3\n        /* \"#utility.yul\":19356:19374   */\n      add\n        /* \"#utility.yul\":19348:19374   */\n      swap1\n      pop\n        /* \"#utility.yul\":19420:19429   */\n      dup2\n        /* \"#utility.yul\":19414:19418   */\n      dup2\n        /* \"#utility.yul\":19410:19430   */\n      sub\n        /* \"#utility.yul\":19406:19407   */\n      0x00\n        /* \"#utility.yul\":19395:19404   */\n      dup4\n        /* \"#utility.yul\":19391:19408   */\n      add\n        /* \"#utility.yul\":19384:19431   */\n      mstore\n        /* \"#utility.yul\":19448:19579   */\n      tag_604\n        /* \"#utility.yul\":19574:19578   */\n      dup2\n        /* \"#utility.yul\":19448:19579   */\n      tag_382\n      jump\t// in\n    tag_604:\n        /* \"#utility.yul\":19440:19579   */\n      swap1\n      pop\n        /* \"#utility.yul\":19167:19586   */\n      swap2\n      swap1\n      pop\n      jump\t// out\n        /* \"#utility.yul\":19592:19768   */\n    tag_383:\n        /* \"#utility.yul\":19732:19760   */\n      0x5175657374696f6e20697320616c726561647920636c6f736564000000000000\n        /* \"#utility.yul\":19728:19729   */\n      0x00\n        /* \"#utility.yul\":19720:19726   */\n      dup3\n        /* \"#utility.yul\":19716:19730   */\n      add\n        /* \"#utility.yul\":19709:19761   */\n      mstore\n        /* \"#utility.yul\":19592:19768   */\n      pop\n      jump\t// out\n        /* \"#utility.yul\":19774:20140   */\n    tag_384:\n        /* \"#utility.yul\":19916:19919   */\n      0x00\n        /* \"#utility.yul\":19937:20004   */\n      tag_607\n        /* \"#utility.yul\":20001:20003   */\n      0x1a\n        /* \"#utility.yul\":19996:19999   */\n      dup4\n        /* \"#utility.yul\":19937:20004   */\n      tag_359\n      jump\t// in\n    tag_607:\n        /* \"#utility.yul\":19930:20004   */\n      swap2\n      pop\n        /* \"#utility.yul\":20013:20106   */\n      tag_608\n        /* \"#utility.yul\":20102:20105   */\n      dup3\n        /* \"#utility.yul\":20013:20106   */\n      tag_383\n      jump\t// in\n    tag_608:\n        /* \"#utility.yul\":20131:20133   */\n      0x20\n        /* \"#utility.yul\":20126:20129   */\n      dup3\n        /* \"#utility.yul\":20122:20134   */\n      add\n        /* \"#utility.yul\":20115:20134   */\n      swap1\n      pop\n        /* \"#utility.yul\":19774:20140   */\n      swap2\n      swap1\n      pop\n      jump\t// out\n        /* \"#utility.yul\":20146:20565   */\n    tag_128:\n        /* \"#utility.yul\":20312:20316   */\n      0x00\n        /* \"#utility.yul\":20350:20352   */\n      0x20\n        /* \"#utility.yul\":20339:20348   */\n      dup3\n        /* \"#utility.yul\":20335:20353   */\n      add\n        /* \"#utility.yul\":20327:20353   */\n      swap1\n      pop\n        /* \"#utility.yul\":20399:20408   */\n      dup2\n        /* \"#utility.yul\":20393:20397   */\n      dup2\n        /* \"#utility.yul\":20389:20409   */\n      sub\n        /* \"#utility.yul\":20385:20386   */\n      0x00\n        /* \"#utility.yul\":20374:20383   */\n      dup4\n        /* \"#utility.yul\":20370:20387   */\n      add\n        /* \"#utility.yul\":20363:20410   */\n      mstore\n        /* \"#utility.yul\":20427:20558   */\n      tag_610\n        /* \"#utility.yul\":20553:20557   */\n      dup2\n        /* \"#utility.yul\":20427:20558   */\n      tag_384\n      jump\t// in\n    tag_610:\n        /* \"#utility.yul\":20419:20558   */\n      swap1\n      pop\n        /* \"#utility.yul\":20146:20565   */\n      swap2\n      swap1\n      pop\n      jump\t// out\n        /* \"#utility.yul\":20571:20750   */\n    tag_385:\n        /* \"#utility.yul\":20711:20742   */\n      0x4f6e6c792061736b65722063616e20636c6f7365207175657374696f6e000000\n        /* \"#utility.yul\":20707:20708   */\n      0x00\n        /* \"#utility.yul\":20699:20705   */\n      dup3\n        /* \"#utility.yul\":20695:20709   */\n      add\n        /* \"#utility.yul\":20688:20743   */\n      mstore\n        /* \"#utility.yul\":20571:20750   */\n      pop\n      jump\t// out\n        /* \"#utility.yul\":20756:21122   */\n    tag_386:\n        /* \"#utility.yul\":20898:20901   */\n      0x00\n        /* \"#utility.yul\":20919:20986   */\n      tag_613\n        /* \"#utility.yul\":20983:20985   */\n      0x1d\n        /* \"#utility.yul\":20978:20981   */\n      dup4\n        /* \"#utility.yul\":20919:20986   */\n      tag_359\n      jump\t// in\n    tag_613:\n        /* \"#utility.yul\":20912:20986   */\n      swap2\n      pop\n        /* \"#utility.yul\":20995:21088   */\n      tag_614\n        /* \"#utility.yul\":21084:21087   */\n      dup3\n        /* \"#utility.yul\":20995:21088   */\n      tag_385\n      jump\t// in\n    tag_614:\n        /* \"#utility.yul\":21113:21115   */\n      0x20\n        /* \"#utility.yul\":21108:21111   */\n      dup3\n        /* \"#utility.yul\":21104:21116   */\n      add\n        /* \"#utility.yul\":21097:21116   */\n      swap1\n      pop\n        /* \"#utility.yul\":20756:21122   */\n      swap2\n      swap1\n      pop\n      jump\t// out\n        /* \"#utility.yul\":21128:21547   */\n    tag_132:\n        /* \"#utility.yul\":21294:21298   */\n      0x00\n        /* \"#utility.yul\":21332:21334   */\n      0x20\n        /* \"#utility.yul\":21321:21330   */\n      dup3\n        /* \"#utility.yul\":21317:21335   */\n      add\n        /* \"#utility.yul\":21309:21335   */\n      swap1\n      pop\n        /* \"#utility.yul\":21381:21390   */\n      dup2\n        /* \"#utility.yul\":21375:21379   */\n      dup2\n        /* \"#utility.yul\":21371:21391   */\n      sub\n        /* \"#utility.yul\":21367:21368   */\n      0x00\n        /* \"#utility.yul\":21356:21365   */\n      dup4\n        /* \"#utility.yul\":21352:21369   */\n      add\n        /* \"#utility.yul\":21345:21392   */\n      mstore\n        /* \"#utility.yul\":21409:21540   */\n      tag_616\n        /* \"#utility.yul\":21535:21539   */\n      dup2\n        /* \"#utility.yul\":21409:21540   */\n      tag_386\n      jump\t// in\n    tag_616:\n        /* \"#utility.yul\":21401:21540   */\n      swap1\n      pop\n        /* \"#utility.yul\":21128:21547   */\n      swap2\n      swap1\n      pop\n      jump\t// out\n        /* \"#utility.yul\":21553:21885   */\n    tag_134:\n        /* \"#utility.yul\":21674:21678   */\n      0x00\n        /* \"#utility.yul\":21712:21714   */\n      0x40\n        /* \"#utility.yul\":21701:21710   */\n      dup3\n        /* \"#utility.yul\":21697:21715   */\n      add\n        /* \"#utility.yul\":21689:21715   */\n      swap1\n      pop\n        /* \"#utility.yul\":21725:21796   */\n      tag_618\n        /* \"#utility.yul\":21793:21794   */\n      0x00\n        /* \"#utility.yul\":21782:21791   */\n      dup4\n        /* \"#utility.yul\":21778:21795   */\n      add\n        /* \"#utility.yul\":21769:21775   */\n      dup6\n        /* \"#utility.yul\":21725:21796   */\n      tag_354\n      jump\t// in\n    tag_618:\n        /* \"#utility.yul\":21806:21878   */\n      tag_619\n        /* \"#utility.yul\":21874:21876   */\n      0x20\n        /* \"#utility.yul\":21863:21872   */\n      dup4\n        /* \"#utility.yul\":21859:21877   */\n      add\n        /* \"#utility.yul\":21850:21856   */\n      dup5\n        /* \"#utility.yul\":21806:21878   */\n      tag_354\n      jump\t// in\n    tag_619:\n        /* \"#utility.yul\":21553:21885   */\n      swap4\n      swap3\n      pop\n      pop\n      pop\n      jump\t// out\n        /* \"#utility.yul\":21891:22071   */\n    tag_387:\n        /* \"#utility.yul\":21939:22016   */\n      0x4e487b7100000000000000000000000000000000000000000000000000000000\n        /* \"#utility.yul\":21936:21937   */\n      0x00\n        /* \"#utility.yul\":21929:22017   */\n      mstore\n        /* \"#utility.yul\":22036:22040   */\n      0x22\n        /* \"#utility.yul\":22033:22034   */\n      0x04\n        /* \"#utility.yul\":22026:22041   */\n      mstore\n        /* \"#utility.yul\":22060:22064   */\n      0x24\n        /* \"#utility.yul\":22057:22058   */\n      0x00\n        /* \"#utility.yul\":22050:22065   */\n      revert\n        /* \"#utility.yul\":22077:22397   */\n    tag_143:\n        /* \"#utility.yul\":22121:22127   */\n      0x00\n        /* \"#utility.yul\":22158:22159   */\n      0x02\n        /* \"#utility.yul\":22152:22156   */\n      dup3\n        /* \"#utility.yul\":22148:22160   */\n      div\n        /* \"#utility.yul\":22138:22160   */\n      swap1\n      pop\n        /* \"#utility.yul\":22205:22206   */\n      0x01\n        /* \"#utility.yul\":22199:22203   */\n      dup3\n        /* \"#utility.yul\":22195:22207   */\n      and\n        /* \"#utility.yul\":22226:22244   */\n      dup1\n        /* \"#utility.yul\":22216:22297   */\n      tag_622\n      jumpi\n        /* \"#utility.yul\":22282:22286   */\n      0x7f\n        /* \"#utility.yul\":22274:22280   */\n      dup3\n        /* \"#utility.yul\":22270:22287   */\n      and\n        /* \"#utility.yul\":22260:22287   */\n      swap2\n      pop\n        /* \"#utility.yul\":22216:22297   */\n    tag_622:\n        /* \"#utility.yul\":22344:22346   */\n      0x20\n        /* \"#utility.yul\":22336:22342   */\n      dup3\n        /* \"#utility.yul\":22333:22347   */\n      lt\n        /* \"#utility.yul\":22313:22331   */\n      dup2\n        /* \"#utility.yul\":22310:22348   */\n      sub\n        /* \"#utility.yul\":22307:22391   */\n      tag_623\n      jumpi\n        /* \"#utility.yul\":22363:22381   */\n      tag_624\n      tag_387\n      jump\t// in\n    tag_624:\n        /* \"#utility.yul\":22307:22391   */\n    tag_623:\n        /* \"#utility.yul\":22128:22397   */\n      pop\n        /* \"#utility.yul\":22077:22397   */\n      swap2\n      swap1\n      pop\n      jump\t// out\n        /* \"#utility.yul\":22403:22581   */\n    tag_388:\n        /* \"#utility.yul\":22543:22573   */\n      0x5175657374696f6e20646561646c696e65206861732070617373656400000000\n        /* \"#utility.yul\":22539:22540   */\n      0x00\n        /* \"#utility.yul\":22531:22537   */\n      dup3\n        /* \"#utility.yul\":22527:22541   */\n      add\n        /* \"#utility.yul\":22520:22574   */\n      mstore\n        /* \"#utility.yul\":22403:22581   */\n      pop\n      jump\t// out\n        /* \"#utility.yul\":22587:22953   */\n    tag_389:\n        /* \"#utility.yul\":22729:22732   */\n      0x00\n        /* \"#utility.yul\":22750:22817   */\n      tag_627\n        /* \"#utility.yul\":22814:22816   */\n      0x1c\n        /* \"#utility.yul\":22809:22812   */\n      dup4\n        /* \"#utility.yul\":22750:22817   */\n      tag_359\n      jump\t// in\n    tag_627:\n        /* \"#utility.yul\":22743:22817   */\n      swap2\n      pop\n        /* \"#utility.yul\":22826:22919   */\n      tag_628\n        /* \"#utility.yul\":22915:22918   */\n      dup3\n        /* \"#utility.yul\":22826:22919   */\n      tag_388\n      jump\t// in\n    tag_628:\n        /* \"#utility.yul\":22944:22946   */\n      0x20\n        /* \"#utility.yul\":22939:22942   */\n      dup3\n        /* \"#utility.yul\":22935:22947   */\n      add\n        /* \"#utility.yul\":22928:22947   */\n      swap1\n      pop\n        /* \"#utility.yul\":22587:22953   */\n      swap2\n      swap1\n      pop\n      jump\t// out\n        /* \"#utility.yul\":22959:23378   */\n    tag_160:\n        /* \"#utility.yul\":23125:23129   */\n      0x00\n        /* \"#utility.yul\":23163:23165   */\n      0x20\n        /* \"#utility.yul\":23152:23161   */\n      dup3\n        /* \"#utility.yul\":23148:23166   */\n      add\n        /* \"#utility.yul\":23140:23166   */\n      swap1\n      pop\n        /* \"#utility.yul\":23212:23221   */\n      dup2\n        /* \"#utility.yul\":23206:23210   */\n      dup2\n        /* \"#utility.yul\":23202:23222   */\n      sub\n        /* \"#utility.yul\":23198:23199   */\n      0x00\n        /* \"#utility.yul\":23187:23196   */\n      dup4\n        /* \"#utility.yul\":23183:23200   */\n      add\n        /* \"#utility.yul\":23176:23223   */\n      mstore\n        /* \"#utility.yul\":23240:23371   */\n      tag_630\n        /* \"#utility.yul\":23366:23370   */\n      dup2\n        /* \"#utility.yul\":23240:23371   */\n      tag_389\n      jump\t// in\n    tag_630:\n        /* \"#utility.yul\":23232:23371   */\n      swap1\n      pop\n        /* \"#utility.yul\":22959:23378   */\n      swap2\n      swap1\n      pop\n      jump\t// out\n        /* \"#utility.yul\":23384:23564   */\n    tag_390:\n        /* \"#utility.yul\":23432:23509   */\n      0x4e487b7100000000000000000000000000000000000000000000000000000000\n        /* \"#utility.yul\":23429:23430   */\n      0x00\n        /* \"#utility.yul\":23422:23510   */\n      mstore\n        /* \"#utility.yul\":23529:23533   */\n      0x11\n        /* \"#utility.yul\":23526:23527   */\n      0x04\n        /* \"#utility.yul\":23519:23534   */\n      mstore\n        /* \"#utility.yul\":23553:23557   */\n      0x24\n        /* \"#utility.yul\":23550:23551   */\n      0x00\n        /* \"#utility.yul\":23543:23558   */\n      revert\n        /* \"#utility.yul\":23570:23803   */\n    tag_162:\n        /* \"#utility.yul\":23609:23612   */\n      0x00\n        /* \"#utility.yul\":23632:23656   */\n      tag_633\n        /* \"#utility.yul\":23650:23655   */\n      dup3\n        /* \"#utility.yul\":23632:23656   */\n      tag_342\n      jump\t// in\n    tag_633:\n        /* \"#utility.yul\":23623:23656   */\n      swap2\n      pop\n        /* \"#utility.yul\":23678:23744   */\n      0xffffffffffffffffffffffffffffffffffffffffffffffffffffffffffffffff\n        /* \"#utility.yul\":23671:23676   */\n      dup3\n        /* \"#utility.yul\":23668:23745   */\n      sub\n        /* \"#utility.yul\":23665:23768   */\n      tag_634\n      jumpi\n        /* \"#utility.yul\":23748:23766   */\n      tag_635\n      tag_390\n      jump\t// in\n    tag_635:\n        /* \"#utility.yul\":23665:23768   */\n    tag_634:\n        /* \"#utility.yul\":23795:23796   */\n      0x01\n        /* \"#utility.yul\":23788:23793   */\n      dup3\n        /* \"#utility.yul\":23784:23797   */\n      add\n        /* \"#utility.yul\":23777:23797   */\n      swap1\n      pop\n        /* \"#utility.yul\":23570:23803   */\n      swap2\n      swap1\n      pop\n      jump\t// out\n        /* \"#utility.yul\":23809:23950   */\n    tag_391:\n        /* \"#utility.yul\":23858:23862   */\n      0x00\n        /* \"#utility.yul\":23881:23884   */\n      dup2\n        /* \"#utility.yul\":23873:23884   */\n      swap1\n      pop\n        /* \"#utility.yul\":23904:23907   */\n      dup2\n        /* \"#utility.yul\":23901:23902   */\n      0x00\n        /* \"#utility.yul\":23894:23908   */\n      mstore\n        /* \"#utility.yul\":23938:23942   */\n      0x20\n        /* \"#utility.yul\":23935:23936   */\n      0x00\n        /* \"#utility.yul\":23925:23943   */\n      keccak256\n        /* \"#utility.yul\":23917:23943   */\n      swap1\n      pop\n        /* \"#utility.yul\":23809:23950   */\n      swap2\n      swap1\n      pop\n      jump\t// out\n        /* \"#utility.yul\":23956:24049   */\n    tag_392:\n        /* \"#utility.yul\":23993:23999   */\n      0x00\n        /* \"#utility.yul\":24040:24042   */\n      0x20\n        /* \"#utility.yul\":24035:24037   */\n      0x1f\n        /* \"#utility.yul\":24028:24033   */\n      dup4\n        /* \"#utility.yul\":24024:24038   */\n      add\n        /* \"#utility.yul\":24020:24043   */\n      div\n        /* \"#utility.yul\":24010:24043   */\n      swap1\n      pop\n        /* \"#utility.yul\":23956:24049   */\n      swap2\n      swap1\n      pop\n      jump\t// out\n        /* \"#utility.yul\":24055:24162   */\n    tag_393:\n        /* \"#utility.yul\":24099:24107   */\n      0x00\n        /* \"#utility.yul\":24149:24154   */\n      dup3\n        /* \"#utility.yul\":24143:24147   */\n      dup3\n        /* \"#utility.yul\":24139:24155   */\n      shl\n        /* \"#utility.yul\":24118:24155   */\n      swap1\n      pop\n        /* \"#utility.yul\":24055:24162   */\n      swap3\n      swap2\n      pop\n      pop\n      jump\t// out\n        /* \"#utility.yul\":24168:24561   */\n    tag_394:\n        /* \"#utility.yul\":24237:24243   */\n      0x00\n        /* \"#utility.yul\":24287:24288   */\n      0x08\n        /* \"#utility.yul\":24275:24285   */\n      dup4\n        /* \"#utility.yul\":24271:24289   */\n      mul\n        /* \"#utility.yul\":24310:24407   */\n      tag_640\n        /* \"#utility.yul\":24340:24406   */\n      0xffffffffffffffffffffffffffffffffffffffffffffffffffffffffffffffff\n        /* \"#utility.yul\":24329:24338   */\n      dup3\n        /* \"#utility.yul\":24310:24407   */\n      tag_393\n      jump\t// in\n    tag_640:\n        /* \"#utility.yul\":24428:24467   */\n      tag_641\n        /* \"#utility.yul\":24458:24466   */\n      dup7\n        /* \"#utility.yul\":24447:24456   */\n      dup4\n        /* \"#utility.yul\":24428:24467   */\n      tag_393\n      jump\t// in\n    tag_641:\n        /* \"#utility.yul\":24416:24467   */\n      swap6\n      pop\n        /* \"#utility.yul\":24500:24504   */\n      dup1\n        /* \"#utility.yul\":24496:24505   */\n      not\n        /* \"#utility.yul\":24489:24494   */\n      dup5\n        /* \"#utility.yul\":24485:24506   */\n      and\n        /* \"#utility.yul\":24476:24506   */\n      swap4\n      pop\n        /* \"#utility.yul\":24549:24553   */\n      dup1\n        /* \"#utility.yul\":24539:24547   */\n      dup7\n        /* \"#utility.yul\":24535:24554   */\n      and\n        /* \"#utility.yul\":24528:24533   */\n      dup5\n        /* \"#utility.yul\":24525:24555   */\n      or\n        /* \"#utility.yul\":24515:24555   */\n      swap3\n      pop\n        /* \"#utility.yul\":24244:24561   */\n      pop\n      pop\n        /* \"#utility.yul\":24168:24561   */\n      swap4\n      swap3\n      pop\n      pop\n      pop\n      jump\t// out\n        /* \"#utility.yul\":24567:24627   */\n    tag_395:\n        /* \"#utility.yul\":24595:24598   */\n      0x00\n        /* \"#utility.yul\":24616:24621   */\n      dup2\n        /* \"#utility.yul\":24609:24621   */\n      swap1\n      pop\n        /* \"#utility.yul\":24567:24627   */\n      swap2\n      swap1\n      pop\n      jump\t// out\n        /* \"#utility.yul\":24633:24775   */\n    tag_396:\n        /* \"#utility.yul\":24683:24692   */\n      0x00\n        /* \"#utility.yul\":24716:24769   */\n      tag_644\n        /* \"#utility.yul\":24734:24768   */\n      tag_645\n        /* \"#utility.yul\":24743:24767   */\n      tag_646\n        /* \"#utility.yul\":24761:24766   */\n      dup5\n        /* \"#utility.yul\":24743:24767   */\n      tag_342\n      jump\t// in\n    tag_646:\n        /* \"#utility.yul\":24734:24768   */\n      tag_395\n      jump\t// in\n    tag_645:\n        /* \"#utility.yul\":24716:24769   */\n      tag_342\n      jump\t// in\n    tag_644:\n        /* \"#utility.yul\":24703:24769   */\n      swap1\n      pop\n        /* \"#utility.yul\":24633:24775   */\n      swap2\n      swap1\n      pop\n      jump\t// out\n        /* \"#utility.yul\":24781:24856   */\n    tag_397:\n        /* \"#utility.yul\":24824:24827   */\n      0x00\n        /* \"#utility.yul\":24845:24850   */\n      dup2\n        /* \"#utility.yul\":24838:24850   */\n      swap1\n      pop\n        /* \"#utility.yul\":24781:24856   */\n      swap2\n      swap1\n      pop\n      jump\t// out\n        /* \"#utility.yul\":24862:25131   */\n    tag_398:\n        /* \"#utility.yul\":24972:25011   */\n      tag_649\n        /* \"#utility.yul\":25003:25010   */\n      dup4\n        /* \"#utility.yul\":24972:25011   */\n      tag_396\n      jump\t// in\n    tag_649:\n        /* \"#utility.yul\":25033:25124   */\n      tag_650\n        /* \"#utility.yul\":25082:25123   */\n      tag_651\n        /* \"#utility.yul\":25106:25122   */\n      dup3\n        /* \"#utility.yul\":25082:25123   */\n      tag_397\n      jump\t// in\n    tag_651:\n        /* \"#utility.yul\":25074:25080   */\n      dup5\n        /* \"#utility.yul\":25067:25071   */\n      dup5\n        /* \"#utility.yul\":25061:25072   */\n      sload\n        /* \"#utility.yul\":25033:25124   */\n      tag_394\n      jump\t// in\n    tag_650:\n        /* \"#utility.yul\":25027:25031   */\n      dup3\n        /* \"#utility.yul\":25020:25125   */\n      sstore\n        /* \"#utility.yul\":24938:25131   */\n      pop\n        /* \"#utility.yul\":24862:25131   */\n      pop\n      pop\n      pop\n      jump\t// out\n        /* \"#utility.yul\":25137:25210   */\n    tag_399:\n        /* \"#utility.yul\":25182:25185   */\n      0x00\n        /* \"#utility.yul\":25137:25210   */\n      swap1\n      jump\t// out\n        /* \"#utility.yul\":25216:25405   */\n    tag_400:\n        /* \"#utility.yul\":25293:25325   */\n      tag_654\n      tag_399\n      jump\t// in\n    tag_654:\n        /* \"#utility.yul\":25334:25399   */\n      tag_655\n        /* \"#utility.yul\":25392:25398   */\n      dup2\n        /* \"#utility.yul\":25384:25390   */\n      dup5\n        /* \"#utility.yul\":25378:25382   */\n      dup5\n        /* \"#utility.yul\":25334:25399   */\n      tag_398\n      jump\t// in\n    tag_655:\n        /* \"#utility.yul\":25269:25405   */\n      pop\n        /* \"#utility.yul\":25216:25405   */\n      pop\n      pop\n      jump\t// out\n        /* \"#utility.yul\":25411:25597   */\n    tag_401:\n        /* \"#utility.yul\":25471:25591   */\n    tag_657:\n        /* \"#utility.yul\":25488:25491   */\n      dup2\n        /* \"#utility.yul\":25481:25486   */\n      dup2\n        /* \"#utility.yul\":25478:25492   */\n      lt\n        /* \"#utility.yul\":25471:25591   */\n      iszero\n      tag_659\n      jumpi\n        /* \"#utility.yul\":25542:25581   */\n      tag_660\n        /* \"#utility.yul\":25579:25580   */\n      0x00\n        /* \"#utility.yul\":25572:25577   */\n      dup3\n        /* \"#utility.yul\":25542:25581   */\n      tag_400\n      jump\t// in\n    tag_660:\n        /* \"#utility.yul\":25515:25516   */\n      0x01\n        /* \"#utility.yul\":25508:25513   */\n      dup2\n        /* \"#utility.yul\":25504:25517   */\n      add\n        /* \"#utility.yul\":25495:25517   */\n      swap1\n      pop\n        /* \"#utility.yul\":25471:25591   */\n      jump(tag_657)\n    tag_659:\n        /* \"#utility.yul\":25411:25597   */\n      pop\n      pop\n      jump\t// out\n        /* \"#utility.yul\":25603:26146   */\n    tag_402:\n        /* \"#utility.yul\":25704:25706   */\n      0x1f\n        /* \"#utility.yul\":25699:25702   */\n      dup3\n        /* \"#utility.yul\":25696:25707   */\n      gt\n        /* \"#utility.yul\":25693:26139   */\n      iszero\n      tag_662\n      jumpi\n        /* \"#utility.yul\":25738:25776   */\n      tag_663\n        /* \"#utility.yul\":25770:25775   */\n      dup2\n        /* \"#utility.yul\":25738:25776   */\n      tag_391\n      jump\t// in\n    tag_663:\n        /* \"#utility.yul\":25822:25851   */\n      tag_664\n        /* \"#utility.yul\":25840:25850   */\n      dup5\n        /* \"#utility.yul\":25822:25851   */\n      tag_392\n      jump\t// in\n    tag_664:\n        /* \"#utility.yul\":25812:25820   */\n      dup2\n        /* \"#utility.yul\":25808:25852   */\n      add\n        /* \"#utility.yul\":26005:26007   */\n      0x20\n        /* \"#utility.yul\":25993:26003   */\n      dup6\n        /* \"#utility.yul\":25990:26008   */\n      lt\n        /* \"#utility.yul\":25987:26036   */\n      iszero\n      tag_665\n      jumpi\n        /* \"#utility.yul\":26026:26034   */\n      dup2\n        /* \"#utility.yul\":26011:26034   */\n      swap1\n      pop\n        /* \"#utility.yul\":25987:26036   */\n    tag_665:\n        /* \"#utility.yul\":26049:26129   */\n      tag_666\n        /* \"#utility.yul\":26105:26127   */\n      tag_667\n        /* \"#utility.yul\":26123:26126   */\n      dup6\n        /* \"#utility.yul\":26105:26127   */\n      tag_392\n      jump\t// in\n    tag_667:\n        /* \"#utility.yul\":26095:26103   */\n      dup4\n        /* \"#utility.yul\":26091:26128   */\n      add\n        /* \"#utility.yul\":26078:26089   */\n      dup3\n        /* \"#utility.yul\":26049:26129   */\n      tag_401\n      jump\t// in\n    tag_666:\n        /* \"#utility.yul\":25708:26139   */\n      pop\n      pop\n        /* \"#utility.yul\":25693:26139   */\n    tag_662:\n        /* \"#utility.yul\":25603:26146   */\n      pop\n      pop\n      pop\n      jump\t// out\n        /* \"#utility.yul\":26152:26269   */\n    tag_403:\n        /* \"#utility.yul\":26206:26214   */\n      0x00\n        /* \"#utility.yul\":26256:26261   */\n      dup3\n        /* \"#utility.yul\":26250:26254   */\n      dup3\n        /* \"#utility.yul\":26246:26262   */\n      shr\n        /* \"#utility.yul\":26225:26262   */\n      swap1\n      pop\n        /* \"#utility.yul\":26152:26269   */\n      swap3\n      swap2\n      pop\n      pop\n      jump\t// out\n        /* \"#utility.yul\":26275:26444   */\n    tag_404:\n        /* \"#utility.yul\":26319:26325   */\n      0x00\n        /* \"#utility.yul\":26352:26403   */\n      tag_670\n        /* \"#utility.yul\":26400:26401   */\n      0x00\n        /* \"#utility.yul\":26396:26402   */\n      not\n        /* \"#utility.yul\":26388:26393   */\n      dup5\n        /* \"#utility.yul\":26385:26386   */\n      0x08\n        /* \"#utility.yul\":26381:26394   */\n      mul\n        /* \"#utility.yul\":26352:26403   */\n      tag_403\n      jump\t// in\n    tag_670:\n        /* \"#utility.yul\":26348:26404   */\n      not\n        /* \"#utility.yul\":26433:26437   */\n      dup1\n        /* \"#utility.yul\":26427:26431   */\n      dup4\n        /* \"#utility.yul\":26423:26438   */\n      and\n        /* \"#utility.yul\":26413:26438   */\n      swap2\n      pop\n        /* \"#utility.yul\":26326:26444   */\n      pop\n        /* \"#utility.yul\":26275:26444   */\n      swap3\n      swap2\n      pop\n      pop\n      jump\t// out\n        /* \"#utility.yul\":26449:26744   */\n    tag_405:\n        /* \"#utility.yul\":26525:26529   */\n      0x00\n        /* \"#utility.yul\":26671:26700   */\n      tag_672\n        /* \"#utility.yul\":26696:26699   */\n      dup4\n        /* \"#utility.yul\":26690:26694   */\n      dup4\n        /* \"#utility.yul\":26671:26700   */\n      tag_404\n      jump\t// in\n    tag_672:\n        /* \"#utility.yul\":26663:26700   */\n      swap2\n      pop\n        /* \"#utility.yul\":26733:26736   */\n      dup3\n        /* \"#utility.yul\":26730:26731   */\n      0x02\n        /* \"#utility.yul\":26726:26737   */\n      mul\n        /* \"#utility.yul\":26720:26724   */\n      dup3\n        /* \"#utility.yul\":26717:26738   */\n      or\n        /* \"#utility.yul\":26709:26738   */\n      swap1\n      pop\n        /* \"#utility.yul\":26449:26744   */\n      swap3\n      swap2\n      pop\n      pop\n      jump\t// out\n        /* \"#utility.yul\":26749:28144   */\n    tag_164:\n        /* \"#utility.yul\":26866:26903   */\n      tag_674\n        /* \"#utility.yul\":26899:26902   */\n      dup3\n        /* \"#utility.yul\":26866:26903   */\n      tag_358\n      jump\t// in\n    tag_674:\n        /* \"#utility.yul\":26968:26986   */\n      0xffffffffffffffff\n        /* \"#utility.yul\":26960:26966   */\n      dup2\n        /* \"#utility.yul\":26957:26987   */\n      gt\n        /* \"#utility.yul\":26954:27010   */\n      iszero\n      tag_675\n      jumpi\n        /* \"#utility.yul\":26990:27008   */\n      tag_676\n      tag_239\n      jump\t// in\n    tag_676:\n        /* \"#utility.yul\":26954:27010   */\n    tag_675:\n        /* \"#utility.yul\":27034:27072   */\n      tag_677\n        /* \"#utility.yul\":27066:27070   */\n      dup3\n        /* \"#utility.yul\":27060:27071   */\n      sload\n        /* \"#utility.yul\":27034:27072   */\n      tag_143\n      jump\t// in\n    tag_677:\n        /* \"#utility.yul\":27119:27186   */\n      tag_678\n        /* \"#utility.yul\":27179:27185   */\n      dup3\n        /* \"#utility.yul\":27171:27177   */\n      dup3\n        /* \"#utility.yul\":27165:27169   */\n      dup6\n        /* \"#utility.yul\":27119:27186   */\n      tag_402\n      jump\t// in\n    tag_678:\n        /* \"#utility.yul\":27213:27214   */\n      0x00\n        /* \"#utility.yul\":27237:27241   */\n      0x20\n        /* \"#utility.yul\":27224:27241   */\n      swap1\n      pop\n        /* \"#utility.yul\":27269:27271   */\n      0x1f\n        /* \"#utility.yul\":27261:27267   */\n      dup4\n        /* \"#utility.yul\":27258:27272   */\n      gt\n        /* \"#utility.yul\":27286:27287   */\n      0x01\n        /* \"#utility.yul\":27281:27899   */\n      dup2\n      eq\n      tag_680\n      jumpi\n        /* \"#utility.yul\":27943:27944   */\n      0x00\n        /* \"#utility.yul\":27960:27966   */\n      dup5\n        /* \"#utility.yul\":27957:28034   */\n      iszero\n      tag_681\n      jumpi\n        /* \"#utility.yul\":28009:28018   */\n      dup3\n        /* \"#utility.yul\":28004:28007   */\n      dup8\n        /* \"#utility.yul\":28000:28019   */\n      add\n        /* \"#utility.yul\":27994:28020   */\n      mload\n        /* \"#utility.yul\":27985:28020   */\n      swap1\n      pop\n        /* \"#utility.yul\":27957:28034   */\n    tag_681:\n        /* \"#utility.yul\":28060:28127   */\n      tag_682\n        /* \"#utility.yul\":28120:28126   */\n      dup6\n        /* \"#utility.yul\":28113:28118   */\n      dup3\n        /* \"#utility.yul\":28060:28127   */\n      tag_405\n      jump\t// in\n    tag_682:\n        /* \"#utility.yul\":28054:28058   */\n      dup7\n        /* \"#utility.yul\":28047:28128   */\n      sstore\n        /* \"#utility.yul\":27916:28138   */\n      pop\n        /* \"#utility.yul\":27251:28138   */\n      jump(tag_679)\n        /* \"#utility.yul\":27281:27899   */\n    tag_680:\n        /* \"#utility.yul\":27333:27337   */\n      0x1f\n        /* \"#utility.yul\":27329:27338   */\n      not\n        /* \"#utility.yul\":27321:27327   */\n      dup5\n        /* \"#utility.yul\":27317:27339   */\n      and\n        /* \"#utility.yul\":27367:27404   */\n      tag_683\n        /* \"#utility.yul\":27399:27403   */\n      dup7\n        /* \"#utility.yul\":27367:27404   */\n      tag_391\n      jump\t// in\n    tag_683:\n        /* \"#utility.yul\":27426:27427   */\n      0x00\n        /* \"#utility.yul\":27440:27648   */\n    tag_684:\n        /* \"#utility.yul\":27454:27461   */\n      dup3\n        /* \"#utility.yul\":27451:27452   */\n      dup2\n        /* \"#utility.yul\":27448:27462   */\n      lt\n        /* \"#utility.yul\":27440:27648   */\n      iszero\n      tag_686\n      jumpi\n        /* \"#utility.yul\":27533:27542   */\n      dup5\n        /* \"#utility.yul\":27528:27531   */\n      dup10\n        /* \"#utility.yul\":27524:27543   */\n      add\n        /* \"#utility.yul\":27518:27544   */\n      mload\n        /* \"#utility.yul\":27510:27516   */\n      dup3\n        /* \"#utility.yul\":27503:27545   */\n      sstore\n        /* \"#utility.yul\":27584:27585   */\n      0x01\n        /* \"#utility.yul\":27576:27582   */\n      dup3\n        /* \"#utility.yul\":27572:27586   */\n      add\n        /* \"#utility.yul\":27562:27586   */\n      swap2\n      pop\n        /* \"#utility.yul\":27631:27633   */\n      0x20\n        /* \"#utility.yul\":27620:27629   */\n      dup6\n        /* \"#utility.yul\":27616:27634   */\n      add\n        /* \"#utility.yul\":27603:27634   */\n      swap5\n      pop\n        /* \"#utility.yul\":27477:27481   */\n      0x20\n        /* \"#utility.yul\":27474:27475   */\n      dup2\n        /* \"#utility.yul\":27470:27482   */\n      add\n        /* \"#utility.yul\":27465:27482   */\n      swap1\n      pop\n        /* \"#utility.yul\":27440:27648   */\n      jump(tag_684)\n    tag_686:\n        /* \"#utility.yul\":27676:27682   */\n      dup7\n        /* \"#utility.yul\":27667:27674   */\n      dup4\n        /* \"#utility.yul\":27664:27683   */\n      lt\n        /* \"#utility.yul\":27661:27840   */\n      iszero\n      tag_687\n      jumpi\n        /* \"#utility.yul\":27734:27743   */\n      dup5\n        /* \"#utility.yul\":27729:27732   */\n      dup10\n        /* \"#utility.yul\":27725:27744   */\n      add\n        /* \"#utility.yul\":27719:27745   */\n      mload\n        /* \"#utility.yul\":27777:27825   */\n      tag_688\n        /* \"#utility.yul\":27819:27823   */\n      0x1f\n        /* \"#utility.yul\":27811:27817   */\n      dup10\n        /* \"#utility.yul\":27807:27824   */\n      and\n        /* \"#utility.yul\":27796:27805   */\n      dup3\n        /* \"#utility.yul\":27777:27825   */\n      tag_404\n      jump\t// in\n    tag_688:\n        /* \"#utility.yul\":27769:27775   */\n      dup4\n        /* \"#utility.yul\":27762:27826   */\n      sstore\n        /* \"#utility.yul\":27684:27840   */\n      pop\n        /* \"#utility.yul\":27661:27840   */\n    tag_687:\n        /* \"#utility.yul\":27886:27887   */\n      0x01\n        /* \"#utility.yul\":27882:27883   */\n      0x02\n        /* \"#utility.yul\":27874:27880   */\n      dup9\n        /* \"#utility.yul\":27870:27884   */\n      mul\n        /* \"#utility.yul\":27866:27888   */\n      add\n        /* \"#utility.yul\":27860:27864   */\n      dup9\n        /* \"#utility.yul\":27853:27889   */\n      sstore\n        /* \"#utility.yul\":27288:27899   */\n      pop\n      pop\n      pop\n        /* \"#utility.yul\":27251:28138   */\n    tag_679:\n      pop\n        /* \"#utility.yul\":26841:28144   */\n      pop\n      pop\n      pop\n        /* \"#utility.yul\":26749:28144   */\n      pop\n      pop\n      jump\t// out\n        /* \"#utility.yul\":28150:28683   */\n    tag_166:\n        /* \"#utility.yul\":28319:28323   */\n      0x00\n        /* \"#utility.yul\":28357:28359   */\n      0x60\n        /* \"#utility.yul\":28346:28355   */\n      dup3\n        /* \"#utility.yul\":28342:28360   */\n      add\n        /* \"#utility.yul\":28334:28360   */\n      swap1\n      pop\n        /* \"#utility.yul\":28370:28441   */\n      tag_690\n        /* \"#utility.yul\":28438:28439   */\n      0x00\n        /* \"#utility.yul\":28427:28436   */\n      dup4\n        /* \"#utility.yul\":28423:28440   */\n      add\n        /* \"#utility.yul\":28414:28420   */\n      dup7\n        /* \"#utility.yul\":28370:28441   */\n      tag_354\n      jump\t// in\n    tag_690:\n        /* \"#utility.yul\":28451:28523   */\n      tag_691\n        /* \"#utility.yul\":28519:28521   */\n      0x20\n        /* \"#utility.yul\":28508:28517   */\n      dup4\n        /* \"#utility.yul\":28504:28522   */\n      add\n        /* \"#utility.yul\":28495:28501   */\n      dup6\n        /* \"#utility.yul\":28451:28523   */\n      tag_354\n      jump\t// in\n    tag_691:\n        /* \"#utility.yul\":28570:28579   */\n      dup2\n        /* \"#utility.yul\":28564:28568   */\n      dup2\n        /* \"#utility.yul\":28560:28580   */\n      sub\n        /* \"#utility.yul\":28555:28557   */\n      0x40\n        /* \"#utility.yul\":28544:28553   */\n      dup4\n        /* \"#utility.yul\":28540:28558   */\n      add\n        /* \"#utility.yul\":28533:28581   */\n      mstore\n        /* \"#utility.yul\":28598:28676   */\n      tag_692\n        /* \"#utility.yul\":28671:28675   */\n      dup2\n        /* \"#utility.yul\":28662:28668   */\n      dup5\n        /* \"#utility.yul\":28598:28676   */\n      tag_361\n      jump\t// in\n    tag_692:\n        /* \"#utility.yul\":28590:28676   */\n      swap1\n      pop\n        /* \"#utility.yul\":28150:28683   */\n      swap5\n      swap4\n      pop\n      pop\n      pop\n      pop\n      jump\t// out\n        /* \"#utility.yul\":28689:28862   */\n    tag_406:\n        /* \"#utility.yul\":28829:28854   */\n      0x566f74696e6720706572696f642068617320656e646564000000000000000000\n        /* \"#utility.yul\":28825:28826   */\n      0x00\n        /* \"#utility.yul\":28817:28823   */\n      dup3\n        /* \"#utility.yul\":28813:28827   */\n      add\n        /* \"#utility.yul\":28806:28855   */\n      mstore\n        /* \"#utility.yul\":28689:28862   */\n      pop\n      jump\t// out\n        /* \"#utility.yul\":28868:29234   */\n    tag_407:\n        /* \"#utility.yul\":29010:29013   */\n      0x00\n        /* \"#utility.yul\":29031:29098   */\n      tag_695\n        /* \"#utility.yul\":29095:29097   */\n      0x17\n        /* \"#utility.yul\":29090:29093   */\n      dup4\n        /* \"#utility.yul\":29031:29098   */\n      tag_359\n      jump\t// in\n    tag_695:\n        /* \"#utility.yul\":29024:29098   */\n      swap2\n      pop\n        /* \"#utility.yul\":29107:29200   */\n      tag_696\n        /* \"#utility.yul\":29196:29199   */\n      dup3\n        /* \"#utility.yul\":29107:29200   */\n      tag_406\n      jump\t// in\n    tag_696:\n        /* \"#utility.yul\":29225:29227   */\n      0x20\n        /* \"#utility.yul\":29220:29223   */\n      dup3\n        /* \"#utility.yul\":29216:29228   */\n      add\n        /* \"#utility.yul\":29209:29228   */\n      swap1\n      pop\n        /* \"#utility.yul\":28868:29234   */\n      swap2\n      swap1\n      pop\n      jump\t// out\n        /* \"#utility.yul\":29240:29659   */\n    tag_196:\n        /* \"#utility.yul\":29406:29410   */\n      0x00\n        /* \"#utility.yul\":29444:29446   */\n      0x20\n        /* \"#utility.yul\":29433:29442   */\n      dup3\n        /* \"#utility.yul\":29429:29447   */\n      add\n        /* \"#utility.yul\":29421:29447   */\n      swap1\n      pop\n        /* \"#utility.yul\":29493:29502   */\n      dup2\n        /* \"#utility.yul\":29487:29491   */\n      dup2\n        /* \"#utility.yul\":29483:29503   */\n      sub\n        /* \"#utility.yul\":29479:29480   */\n      0x00\n        /* \"#utility.yul\":29468:29477   */\n      dup4\n        /* \"#utility.yul\":29464:29481   */\n      add\n        /* \"#utility.yul\":29457:29504   */\n      mstore\n        /* \"#utility.yul\":29521:29652   */\n      tag_698\n        /* \"#utility.yul\":29647:29651   */\n      dup2\n        /* \"#utility.yul\":29521:29652   */\n      tag_407\n      jump\t// in\n    tag_698:\n        /* \"#utility.yul\":29513:29652   */\n      swap1\n      pop\n        /* \"#utility.yul\":29240:29659   */\n      swap2\n      swap1\n      pop\n      jump\t// out\n        /* \"#utility.yul\":29665:29833   */\n    tag_408:\n        /* \"#utility.yul\":29805:29825   */\n      0x496e636f727265637420766f7465206665650000000000000000000000000000\n        /* \"#utility.yul\":29801:29802   */\n      0x00\n        /* \"#utility.yul\":29793:29799   */\n      dup3\n        /* \"#utility.yul\":29789:29803   */\n      add\n        /* \"#utility.yul\":29782:29826   */\n      mstore\n        /* \"#utility.yul\":29665:29833   */\n      pop\n      jump\t// out\n        /* \"#utility.yul\":29839:30205   */\n    tag_409:\n        /* \"#utility.yul\":29981:29984   */\n      0x00\n        /* \"#utility.yul\":30002:30069   */\n      tag_701\n        /* \"#utility.yul\":30066:30068   */\n      0x12\n        /* \"#utility.yul\":30061:30064   */\n      dup4\n        /* \"#utility.yul\":30002:30069   */\n      tag_359\n      jump\t// in\n    tag_701:\n        /* \"#utility.yul\":29995:30069   */\n      swap2\n      pop\n        /* \"#utility.yul\":30078:30171   */\n      tag_702\n        /* \"#utility.yul\":30167:30170   */\n      dup3\n        /* \"#utility.yul\":30078:30171   */\n      tag_408\n      jump\t// in\n    tag_702:\n        /* \"#utility.yul\":30196:30198   */\n      0x20\n        /* \"#utility.yul\":30191:30194   */\n      dup3\n        /* \"#utility.yul\":30187:30199   */\n      add\n        /* \"#utility.yul\":30180:30199   */\n      swap1\n      pop\n        /* \"#utility.yul\":29839:30205   */\n      swap2\n      swap1\n      pop\n      jump\t// out\n        /* \"#utility.yul\":30211:30630   */\n    tag_199:\n        /* \"#utility.yul\":30377:30381   */\n      0x00\n        /* \"#utility.yul\":30415:30417   */\n      0x20\n        /* \"#utility.yul\":30404:30413   */\n      dup3\n        /* \"#utility.yul\":30400:30418   */\n      add\n        /* \"#utility.yul\":30392:30418   */\n      swap1\n      pop\n        /* \"#utility.yul\":30464:30473   */\n      dup2\n        /* \"#utility.yul\":30458:30462   */\n      dup2\n        /* \"#utility.yul\":30454:30474   */\n      sub\n        /* \"#utility.yul\":30450:30451   */\n      0x00\n        /* \"#utility.yul\":30439:30448   */\n      dup4\n        /* \"#utility.yul\":30435:30452   */\n      add\n        /* \"#utility.yul\":30428:30475   */\n      mstore\n        /* \"#utility.yul\":30492:30623   */\n      tag_704\n        /* \"#utility.yul\":30618:30622   */\n      dup2\n        /* \"#utility.yul\":30492:30623   */\n      tag_409\n      jump\t// in\n    tag_704:\n        /* \"#utility.yul\":30484:30623   */\n      swap1\n      pop\n        /* \"#utility.yul\":30211:30630   */\n      swap2\n      swap1\n      pop\n      jump\t// out\n        /* \"#utility.yul\":30636:30827   */\n    tag_201:\n        /* \"#utility.yul\":30676:30679   */\n      0x00\n        /* \"#utility.yul\":30695:30715   */\n      tag_706\n        /* \"#utility.yul\":30713:30714   */\n      dup3\n        /* \"#utility.yul\":30695:30715   */\n      tag_342\n      jump\t// in\n    tag_706:\n        /* \"#utility.yul\":30690:30715   */\n      swap2\n      pop\n        /* \"#utility.yul\":30729:30749   */\n      tag_707\n        /* \"#utility.yul\":30747:30748   */\n      dup4\n        /* \"#utility.yul\":30729:30749   */\n      tag_342\n      jump\t// in\n    tag_707:\n        /* \"#utility.yul\":30724:30749   */\n      swap3\n      pop\n        /* \"#utility.yul\":30772:30773   */\n      dup3\n        /* \"#utility.yul\":30769:30770   */\n      dup3\n        /* \"#utility.yul\":30765:30774   */\n      add\n        /* \"#utility.yul\":30758:30774   */\n      swap1\n      pop\n        /* \"#utility.yul\":30793:30796   */\n      dup1\n        /* \"#utility.yul\":30790:30791   */\n      dup3\n        /* \"#utility.yul\":30787:30797   */\n      gt\n        /* \"#utility.yul\":30784:30820   */\n      iszero\n      tag_708\n      jumpi\n        /* \"#utility.yul\":30800:30818   */\n      tag_709\n      tag_390\n      jump\t// in\n    tag_709:\n        /* \"#utility.yul\":30784:30820   */\n    tag_708:\n        /* \"#utility.yul\":30636:30827   */\n      swap3\n      swap2\n      pop\n      pop\n      jump\t// out\n        /* \"#utility.yul\":30833:31003   */\n    tag_410:\n        /* \"#utility.yul\":30973:30995   */\n      0x4e6f2066756e647320746f207769746864726177000000000000000000000000\n        /* \"#utility.yul\":30969:30970   */\n      0x00\n        /* \"#utility.yul\":30961:30967   */\n      dup3\n        /* \"#utility.yul\":30957:30971   */\n      add\n        /* \"#utility.yul\":30950:30996   */\n      mstore\n        /* \"#utility.yul\":30833:31003   */\n      pop\n      jump\t// out\n        /* \"#utility.yul\":31009:31375   */\n    tag_411:\n        /* \"#utility.yul\":31151:31154   */\n      0x00\n        /* \"#utility.yul\":31172:31239   */\n      tag_712\n        /* \"#utility.yul\":31236:31238   */\n      0x14\n        /* \"#utility.yul\":31231:31234   */\n      dup4\n        /* \"#utility.yul\":31172:31239   */\n      tag_359\n      jump\t// in\n    tag_712:\n        /* \"#utility.yul\":31165:31239   */\n      swap2\n      pop\n        /* \"#utility.yul\":31248:31341   */\n      tag_713\n        /* \"#utility.yul\":31337:31340   */\n      dup3\n        /* \"#utility.yul\":31248:31341   */\n      tag_410\n      jump\t// in\n    tag_713:\n        /* \"#utility.yul\":31366:31368   */\n      0x20\n        /* \"#utility.yul\":31361:31364   */\n      dup3\n        /* \"#utility.yul\":31357:31369   */\n      add\n        /* \"#utility.yul\":31350:31369   */\n      swap1\n      pop\n        /* \"#utility.yul\":31009:31375   */\n      swap2\n      swap1\n      pop\n      jump\t// out\n        /* \"#utility.yul\":31381:31800   */\n    tag_222:\n        /* \"#utility.yul\":31547:31551   */\n      0x00\n        /* \"#utility.yul\":31585:31587   */\n      0x20\n        /* \"#utility.yul\":31574:31583   */\n      dup3\n        /* \"#utility.yul\":31570:31588   */\n      add\n        /* \"#utility.yul\":31562:31588   */\n      swap1\n      pop\n        /* \"#utility.yul\":31634:31643   */\n      dup2\n        /* \"#utility.yul\":31628:31632   */\n      dup2\n        /* \"#utility.yul\":31624:31644   */\n      sub\n        /* \"#utility.yul\":31620:31621   */\n      0x00\n        /* \"#utility.yul\":31609:31618   */\n      dup4\n        /* \"#utility.yul\":31605:31622   */\n      add\n        /* \"#utility.yul\":31598:31645   */\n      mstore\n        /* \"#utility.yul\":31662:31793   */\n      tag_715\n        /* \"#utility.yul\":31788:31792   */\n      dup2\n        /* \"#utility.yul\":31662:31793   */\n      tag_411\n      jump\t// in\n    tag_715:\n        /* \"#utility.yul\":31654:31793   */\n      swap1\n      pop\n        /* \"#utility.yul\":31381:31800   */\n      swap2\n      swap1\n      pop\n      jump\t// out\n        /* \"#utility.yul\":31806:31977   */\n    tag_412:\n        /* \"#utility.yul\":31946:31969   */\n      0x416e7377657220646f6573206e6f742065786973740000000000000000000000\n        /* \"#utility.yul\":31942:31943   */\n      0x00\n        /* \"#utility.yul\":31934:31940   */\n      dup3\n        /* \"#utility.yul\":31930:31944   */\n      add\n        /* \"#utility.yul\":31923:31970   */\n      mstore\n        /* \"#utility.yul\":31806:31977   */\n      pop\n      jump\t// out\n        /* \"#utility.yul\":31983:32349   */\n    tag_413:\n        /* \"#utility.yul\":32125:32128   */\n      0x00\n        /* \"#utility.yul\":32146:32213   */\n      tag_718\n        /* \"#utility.yul\":32210:32212   */\n      0x15\n        /* \"#utility.yul\":32205:32208   */\n      dup4\n        /* \"#utility.yul\":32146:32213   */\n      tag_359\n      jump\t// in\n    tag_718:\n        /* \"#utility.yul\":32139:32213   */\n      swap2\n      pop\n        /* \"#utility.yul\":32222:32315   */\n      tag_719\n        /* \"#utility.yul\":32311:32314   */\n      dup3\n        /* \"#utility.yul\":32222:32315   */\n      tag_412\n      jump\t// in\n    tag_719:\n        /* \"#utility.yul\":32340:32342   */\n      0x20\n        /* \"#utility.yul\":32335:32338   */\n      dup3\n        /* \"#utility.yul\":32331:32343   */\n      add\n        /* \"#utility.yul\":32324:32343   */\n      swap1\n      pop\n        /* \"#utility.yul\":31983:32349   */\n      swap2\n      swap1\n      pop\n      jump\t// out\n        /* \"#utility.yul\":32355:32774   */\n    tag_230:\n        /* \"#utility.yul\":32521:32525   */\n      0x00\n        /* \"#utility.yul\":32559:32561   */\n      0x20\n        /* \"#utility.yul\":32548:32557   */\n      dup3\n        /* \"#utility.yul\":32544:32562   */\n      add\n        /* \"#utility.yul\":32536:32562   */\n      swap1\n      pop\n        /* \"#utility.yul\":32608:32617   */\n      dup2\n        /* \"#utility.yul\":32602:32606   */\n      dup2\n        /* \"#utility.yul\":32598:32618   */\n      sub\n        /* \"#utility.yul\":32594:32595   */\n      0x00\n        /* \"#utility.yul\":32583:32592   */\n      dup4\n        /* \"#utility.yul\":32579:32596   */\n      add\n        /* \"#utility.yul\":32572:32619   */\n      mstore\n        /* \"#utility.yul\":32636:32767   */\n      tag_721\n        /* \"#utility.yul\":32762:32766   */\n      dup2\n        /* \"#utility.yul\":32636:32767   */\n      tag_413\n      jump\t// in\n    tag_721:\n        /* \"#utility.yul\":32628:32767   */\n      swap1\n      pop\n        /* \"#utility.yul\":32355:32774   */\n      swap2\n      swap1\n      pop\n      jump\t// out\n        /* \"#utility.yul\":32780:32927   */\n    tag_414:\n        /* \"#utility.yul\":32881:32892   */\n      0x00\n        /* \"#utility.yul\":32918:32921   */\n      dup2\n        /* \"#utility.yul\":32903:32921   */\n      swap1\n      pop\n        /* \"#utility.yul\":32780:32927   */\n      swap3\n      swap2\n      pop\n      pop\n      jump\t// out\n        /* \"#utility.yul\":32933:33077   */\n    tag_415:\n        /* \"#utility.yul\":32985:32989   */\n      0x00\n        /* \"#utility.yul\":33008:33011   */\n      dup2\n        /* \"#utility.yul\":33000:33011   */\n      swap1\n      pop\n        /* \"#utility.yul\":33031:33034   */\n      dup2\n        /* \"#utility.yul\":33028:33029   */\n      0x00\n        /* \"#utility.yul\":33021:33035   */\n      mstore\n        /* \"#utility.yul\":33065:33069   */\n      0x20\n        /* \"#utility.yul\":33062:33063   */\n      0x00\n        /* \"#utility.yul\":33052:33070   */\n      keccak256\n        /* \"#utility.yul\":33044:33070   */\n      swap1\n      pop\n        /* \"#utility.yul\":32933:33077   */\n      swap2\n      swap1\n      pop\n      jump\t// out\n        /* \"#utility.yul\":33105:33983   */\n    tag_416:\n        /* \"#utility.yul\":33210:33213   */\n      0x00\n        /* \"#utility.yul\":33247:33252   */\n      dup2\n        /* \"#utility.yul\":33241:33253   */\n      sload\n        /* \"#utility.yul\":33276:33312   */\n      tag_725\n        /* \"#utility.yul\":33302:33311   */\n      dup2\n        /* \"#utility.yul\":33276:33312   */\n      tag_143\n      jump\t// in\n    tag_725:\n        /* \"#utility.yul\":33328:33416   */\n      tag_726\n        /* \"#utility.yul\":33409:33415   */\n      dup2\n        /* \"#utility.yul\":33404:33407   */\n      dup7\n        /* \"#utility.yul\":33328:33416   */\n      tag_414\n      jump\t// in\n    tag_726:\n        /* \"#utility.yul\":33321:33416   */\n      swap5\n      pop\n        /* \"#utility.yul\":33447:33448   */\n      0x01\n        /* \"#utility.yul\":33436:33445   */\n      dup3\n        /* \"#utility.yul\":33432:33449   */\n      and\n        /* \"#utility.yul\":33463:33464   */\n      0x00\n        /* \"#utility.yul\":33458:33624   */\n      dup2\n      eq\n      tag_728\n      jumpi\n        /* \"#utility.yul\":33638:33639   */\n      0x01\n        /* \"#utility.yul\":33633:33977   */\n      dup2\n      eq\n      tag_729\n      jumpi\n        /* \"#utility.yul\":33425:33977   */\n      jump(tag_727)\n        /* \"#utility.yul\":33458:33624   */\n    tag_728:\n        /* \"#utility.yul\":33542:33546   */\n      0xff\n        /* \"#utility.yul\":33538:33547   */\n      not\n        /* \"#utility.yul\":33527:33536   */\n      dup4\n        /* \"#utility.yul\":33523:33548   */\n      and\n        /* \"#utility.yul\":33518:33521   */\n      dup7\n        /* \"#utility.yul\":33511:33549   */\n      mstore\n        /* \"#utility.yul\":33604:33610   */\n      dup2\n        /* \"#utility.yul\":33597:33611   */\n      iszero\n        /* \"#utility.yul\":33590:33612   */\n      iszero\n        /* \"#utility.yul\":33582:33588   */\n      dup3\n        /* \"#utility.yul\":33578:33613   */\n      mul\n        /* \"#utility.yul\":33573:33576   */\n      dup7\n        /* \"#utility.yul\":33569:33614   */\n      add\n        /* \"#utility.yul\":33562:33614   */\n      swap4\n      pop\n        /* \"#utility.yul\":33458:33624   */\n      jump(tag_727)\n        /* \"#utility.yul\":33633:33977   */\n    tag_729:\n        /* \"#utility.yul\":33700:33741   */\n      tag_730\n        /* \"#utility.yul\":33735:33740   */\n      dup6\n        /* \"#utility.yul\":33700:33741   */\n      tag_415\n      jump\t// in\n    tag_730:\n        /* \"#utility.yul\":33763:33764   */\n      0x00\n        /* \"#utility.yul\":33777:33931   */\n    tag_731:\n        /* \"#utility.yul\":33791:33797   */\n      dup4\n        /* \"#utility.yul\":33788:33789   */\n      dup2\n        /* \"#utility.yul\":33785:33798   */\n      lt\n        /* \"#utility.yul\":33777:33931   */\n      iszero\n      tag_733\n      jumpi\n        /* \"#utility.yul\":33865:33872   */\n      dup2\n        /* \"#utility.yul\":33859:33873   */\n      sload\n        /* \"#utility.yul\":33855:33856   */\n      dup2\n        /* \"#utility.yul\":33850:33853   */\n      dup10\n        /* \"#utility.yul\":33846:33857   */\n      add\n        /* \"#utility.yul\":33839:33874   */\n      mstore\n        /* \"#utility.yul\":33915:33916   */\n      0x01\n        /* \"#utility.yul\":33906:33913   */\n      dup3\n        /* \"#utility.yul\":33902:33917   */\n      add\n        /* \"#utility.yul\":33891:33917   */\n      swap2\n      pop\n        /* \"#utility.yul\":33813:33817   */\n      0x20\n        /* \"#utility.yul\":33810:33811   */\n      dup2\n        /* \"#utility.yul\":33806:33818   */\n      add\n        /* \"#utility.yul\":33801:33818   */\n      swap1\n      pop\n        /* \"#utility.yul\":33777:33931   */\n      jump(tag_731)\n    tag_733:\n        /* \"#utility.yul\":33960:33966   */\n      dup4\n        /* \"#utility.yul\":33955:33958   */\n      dup9\n        /* \"#utility.yul\":33951:33967   */\n      add\n        /* \"#utility.yul\":33944:33967   */\n      swap6\n      pop\n        /* \"#utility.yul\":33640:33977   */\n      pop\n      pop\n        /* \"#utility.yul\":33425:33977   */\n    tag_727:\n      pop\n        /* \"#utility.yul\":33214:33983   */\n      pop\n      pop\n        /* \"#utility.yul\":33105:33983   */\n      swap3\n      swap2\n      pop\n      pop\n      jump\t// out\n        /* \"#utility.yul\":33989:34262   */\n    tag_245:\n        /* \"#utility.yul\":34120:34123   */\n      0x00\n        /* \"#utility.yul\":34142:34236   */\n      tag_735\n        /* \"#utility.yul\":34232:34235   */\n      dup3\n        /* \"#utility.yul\":34223:34229   */\n      dup5\n        /* \"#utility.yul\":34142:34236   */\n      tag_416\n      jump\t// in\n    tag_735:\n        /* \"#utility.yul\":34135:34236   */\n      swap2\n      pop\n        /* \"#utility.yul\":34253:34256   */\n      dup2\n        /* \"#utility.yul\":34246:34256   */\n      swap1\n      pop\n        /* \"#utility.yul\":33989:34262   */\n      swap3\n      swap2\n      pop\n      pop\n      jump\t// out\n        /* \"#utility.yul\":34268:34448   */\n    tag_249:\n        /* \"#utility.yul\":34316:34393   */\n      0x4e487b7100000000000000000000000000000000000000000000000000000000\n        /* \"#utility.yul\":34313:34314   */\n      0x00\n        /* \"#utility.yul\":34306:34394   */\n      mstore\n        /* \"#utility.yul\":34413:34417   */\n      0x32\n        /* \"#utility.yul\":34410:34411   */\n      0x04\n        /* \"#utility.yul\":34403:34418   */\n      mstore\n        /* \"#utility.yul\":34437:34441   */\n      0x24\n        /* \"#utility.yul\":34434:34435   */\n      0x00\n        /* \"#utility.yul\":34427:34442   */\n      revert\n        /* \"#utility.yul\":34454:34636   */\n    tag_417:\n        /* \"#utility.yul\":34594:34628   */\n      0x526577617264206d7573742062652067726561746572207468616e207a65726f\n        /* \"#utility.yul\":34590:34591   */\n      0x00\n        /* \"#utility.yul\":34582:34588   */\n      dup3\n        /* \"#utility.yul\":34578:34592   */\n      add\n        /* \"#utility.yul\":34571:34629   */\n      mstore\n        /* \"#utility.yul\":34454:34636   */\n      pop\n      jump\t// out\n        /* \"#utility.yul\":34642:35008   */\n    tag_418:\n        /* \"#utility.yul\":34784:34787   */\n      0x00\n        /* \"#utility.yul\":34805:34872   */\n      tag_739\n        /* \"#utility.yul\":34869:34871   */\n      0x20\n        /* \"#utility.yul\":34864:34867   */\n      dup4\n        /* \"#utility.yul\":34805:34872   */\n      tag_359\n      jump\t// in\n    tag_739:\n        /* \"#utility.yul\":34798:34872   */\n      swap2\n      pop\n        /* \"#utility.yul\":34881:34974   */\n      tag_740\n        /* \"#utility.yul\":34970:34973   */\n      dup3\n        /* \"#utility.yul\":34881:34974   */\n      tag_417\n      jump\t// in\n    tag_740:\n        /* \"#utility.yul\":34999:35001   */\n      0x20\n        /* \"#utility.yul\":34994:34997   */\n      dup3\n        /* \"#utility.yul\":34990:35002   */\n      add\n        /* \"#utility.yul\":34983:35002   */\n      swap1\n      pop\n        /* \"#utility.yul\":34642:35008   */\n      swap2\n      swap1\n      pop\n      jump\t// out\n        /* \"#utility.yul\":35014:35433   */\n    tag_264:\n        /* \"#utility.yul\":35180:35184   */\n      0x00\n        /* \"#utility.yul\":35218:35220   */\n      0x20\n        /* \"#utility.yul\":35207:35216   */\n      dup3\n        /* \"#utility.yul\":35203:35221   */\n      add\n        /* \"#utility.yul\":35195:35221   */\n      swap1\n      pop\n        /* \"#utility.yul\":35267:35276   */\n      dup2\n        /* \"#utility.yul\":35261:35265   */\n      dup2\n        /* \"#utility.yul\":35257:35277   */\n      sub\n        /* \"#utility.yul\":35253:35254   */\n      0x00\n        /* \"#utility.yul\":35242:35251   */\n      dup4\n        /* \"#utility.yul\":35238:35255   */\n      add\n        /* \"#utility.yul\":35231:35278   */\n      mstore\n        /* \"#utility.yul\":35295:35426   */\n      tag_742\n        /* \"#utility.yul\":35421:35425   */\n      dup2\n        /* \"#utility.yul\":35295:35426   */\n      tag_418\n      jump\t// in\n    tag_742:\n        /* \"#utility.yul\":35287:35426   */\n      swap1\n      pop\n        /* \"#utility.yul\":35014:35433   */\n      swap2\n      swap1\n      pop\n      jump\t// out\n        /* \"#utility.yul\":35439:35613   */\n    tag_419:\n        /* \"#utility.yul\":35579:35605   */\n      0x43617465676f72792063616e6e6f7420626520656d7074790000000000000000\n        /* \"#utility.yul\":35575:35576   */\n      0x00\n        /* \"#utility.yul\":35567:35573   */\n      dup3\n        /* \"#utility.yul\":35563:35577   */\n      add\n        /* \"#utility.yul\":35556:35606   */\n      mstore\n        /* \"#utility.yul\":35439:35613   */\n      pop\n      jump\t// out\n        /* \"#utility.yul\":35619:35985   */\n    tag_420:\n        /* \"#utility.yul\":35761:35764   */\n      0x00\n        /* \"#utility.yul\":35782:35849   */\n      tag_745\n        /* \"#utility.yul\":35846:35848   */\n      0x18\n        /* \"#utility.yul\":35841:35844   */\n      dup4\n        /* \"#utility.yul\":35782:35849   */\n      tag_359\n      jump\t// in\n    tag_745:\n        /* \"#utility.yul\":35775:35849   */\n      swap2\n      pop\n        /* \"#utility.yul\":35858:35951   */\n      tag_746\n        /* \"#utility.yul\":35947:35950   */\n      dup3\n        /* \"#utility.yul\":35858:35951   */\n      tag_419\n      jump\t// in\n    tag_746:\n        /* \"#utility.yul\":35976:35978   */\n      0x20\n        /* \"#utility.yul\":35971:35974   */\n      dup3\n        /* \"#utility.yul\":35967:35979   */\n      add\n        /* \"#utility.yul\":35960:35979   */\n      swap1\n      pop\n        /* \"#utility.yul\":35619:35985   */\n      swap2\n      swap1\n      pop\n      jump\t// out\n        /* \"#utility.yul\":35991:36410   */\n    tag_267:\n        /* \"#utility.yul\":36157:36161   */\n      0x00\n        /* \"#utility.yul\":36195:36197   */\n      0x20\n        /* \"#utility.yul\":36184:36193   */\n      dup3\n        /* \"#utility.yul\":36180:36198   */\n      add\n        /* \"#utility.yul\":36172:36198   */\n      swap1\n      pop\n        /* \"#utility.yul\":36244:36253   */\n      dup2\n        /* \"#utility.yul\":36238:36242   */\n      dup2\n        /* \"#utility.yul\":36234:36254   */\n      sub\n        /* \"#utility.yul\":36230:36231   */\n      0x00\n        /* \"#utility.yul\":36219:36228   */\n      dup4\n        /* \"#utility.yul\":36215:36232   */\n      add\n        /* \"#utility.yul\":36208:36255   */\n      mstore\n        /* \"#utility.yul\":36272:36403   */\n      tag_748\n        /* \"#utility.yul\":36398:36402   */\n      dup2\n        /* \"#utility.yul\":36272:36403   */\n      tag_420\n      jump\t// in\n    tag_748:\n        /* \"#utility.yul\":36264:36403   */\n      swap1\n      pop\n        /* \"#utility.yul\":35991:36410   */\n      swap2\n      swap1\n      pop\n      jump\t// out\n        /* \"#utility.yul\":36416:36596   */\n    tag_270:\n        /* \"#utility.yul\":36464:36541   */\n      0x4e487b7100000000000000000000000000000000000000000000000000000000\n        /* \"#utility.yul\":36461:36462   */\n      0x00\n        /* \"#utility.yul\":36454:36542   */\n      mstore\n        /* \"#utility.yul\":36561:36565   */\n      0x21\n        /* \"#utility.yul\":36558:36559   */\n      0x04\n        /* \"#utility.yul\":36551:36566   */\n      mstore\n        /* \"#utility.yul\":36585:36589   */\n      0x24\n        /* \"#utility.yul\":36582:36583   */\n      0x00\n        /* \"#utility.yul\":36575:36590   */\n      revert\n        /* \"#utility.yul\":36602:37337   */\n    tag_294:\n        /* \"#utility.yul\":36819:36823   */\n      0x00\n        /* \"#utility.yul\":36857:36860   */\n      0x80\n        /* \"#utility.yul\":36846:36855   */\n      dup3\n        /* \"#utility.yul\":36842:36861   */\n      add\n        /* \"#utility.yul\":36834:36861   */\n      swap1\n      pop\n        /* \"#utility.yul\":36871:36942   */\n      tag_751\n        /* \"#utility.yul\":36939:36940   */\n      0x00\n        /* \"#utility.yul\":36928:36937   */\n      dup4\n        /* \"#utility.yul\":36924:36941   */\n      add\n        /* \"#utility.yul\":36915:36921   */\n      dup8\n        /* \"#utility.yul\":36871:36942   */\n      tag_354\n      jump\t// in\n    tag_751:\n        /* \"#utility.yul\":36989:36998   */\n      dup2\n        /* \"#utility.yul\":36983:36987   */\n      dup2\n        /* \"#utility.yul\":36979:36999   */\n      sub\n        /* \"#utility.yul\":36974:36976   */\n      0x20\n        /* \"#utility.yul\":36963:36972   */\n      dup4\n        /* \"#utility.yul\":36959:36977   */\n      add\n        /* \"#utility.yul\":36952:37000   */\n      mstore\n        /* \"#utility.yul\":37017:37095   */\n      tag_752\n        /* \"#utility.yul\":37090:37094   */\n      dup2\n        /* \"#utility.yul\":37081:37087   */\n      dup7\n        /* \"#utility.yul\":37017:37095   */\n      tag_361\n      jump\t// in\n    tag_752:\n        /* \"#utility.yul\":37009:37095   */\n      swap1\n      pop\n        /* \"#utility.yul\":37105:37177   */\n      tag_753\n        /* \"#utility.yul\":37173:37175   */\n      0x40\n        /* \"#utility.yul\":37162:37171   */\n      dup4\n        /* \"#utility.yul\":37158:37176   */\n      add\n        /* \"#utility.yul\":37149:37155   */\n      dup6\n        /* \"#utility.yul\":37105:37177   */\n      tag_354\n      jump\t// in\n    tag_753:\n        /* \"#utility.yul\":37224:37233   */\n      dup2\n        /* \"#utility.yul\":37218:37222   */\n      dup2\n        /* \"#utility.yul\":37214:37234   */\n      sub\n        /* \"#utility.yul\":37209:37211   */\n      0x60\n        /* \"#utility.yul\":37198:37207   */\n      dup4\n        /* \"#utility.yul\":37194:37212   */\n      add\n        /* \"#utility.yul\":37187:37235   */\n      mstore\n        /* \"#utility.yul\":37252:37330   */\n      tag_754\n        /* \"#utility.yul\":37325:37329   */\n      dup2\n        /* \"#utility.yul\":37316:37322   */\n      dup5\n        /* \"#utility.yul\":37252:37330   */\n      tag_361\n      jump\t// in\n    tag_754:\n        /* \"#utility.yul\":37244:37330   */\n      swap1\n      pop\n        /* \"#utility.yul\":36602:37337   */\n      swap6\n      swap5\n      pop\n      pop\n      pop\n      pop\n      pop\n      jump\t// out\n        /* \"#utility.yul\":37343:37563   */\n    tag_421:\n        /* \"#utility.yul\":37483:37517   */\n      0x43616e6e6f742064697374726962757465206265666f726520646561646c696e\n        /* \"#utility.yul\":37479:37480   */\n      0x00\n        /* \"#utility.yul\":37471:37477   */\n      dup3\n        /* \"#utility.yul\":37467:37481   */\n      add\n        /* \"#utility.yul\":37460:37518   */\n      mstore\n        /* \"#utility.yul\":37552:37555   */\n      0x6500000000000000000000000000000000000000000000000000000000000000\n        /* \"#utility.yul\":37547:37549   */\n      0x20\n        /* \"#utility.yul\":37539:37545   */\n      dup3\n        /* \"#utility.yul\":37535:37550   */\n      add\n        /* \"#utility.yul\":37528:37556   */\n      mstore\n        /* \"#utility.yul\":37343:37563   */\n      pop\n      jump\t// out\n        /* \"#utility.yul\":37569:37935   */\n    tag_422:\n        /* \"#utility.yul\":37711:37714   */\n      0x00\n        /* \"#utility.yul\":37732:37799   */\n      tag_757\n        /* \"#utility.yul\":37796:37798   */\n      0x21\n        /* \"#utility.yul\":37791:37794   */\n      dup4\n        /* \"#utility.yul\":37732:37799   */\n      tag_359\n      jump\t// in\n    tag_757:\n        /* \"#utility.yul\":37725:37799   */\n      swap2\n      pop\n        /* \"#utility.yul\":37808:37901   */\n      tag_758\n        /* \"#utility.yul\":37897:37900   */\n      dup3\n        /* \"#utility.yul\":37808:37901   */\n      tag_421\n      jump\t// in\n    tag_758:\n        /* \"#utility.yul\":37926:37928   */\n      0x40\n        /* \"#utility.yul\":37921:37924   */\n      dup3\n        /* \"#utility.yul\":37917:37929   */\n      add\n        /* \"#utility.yul\":37910:37929   */\n      swap1\n      pop\n        /* \"#utility.yul\":37569:37935   */\n      swap2\n      swap1\n      pop\n      jump\t// out\n        /* \"#utility.yul\":37941:38360   */\n    tag_301:\n        /* \"#utility.yul\":38107:38111   */\n      0x00\n        /* \"#utility.yul\":38145:38147   */\n      0x20\n        /* \"#utility.yul\":38134:38143   */\n      dup3\n        /* \"#utility.yul\":38130:38148   */\n      add\n        /* \"#utility.yul\":38122:38148   */\n      swap1\n      pop\n        /* \"#utility.yul\":38194:38203   */\n      dup2\n        /* \"#utility.yul\":38188:38192   */\n      dup2\n        /* \"#utility.yul\":38184:38204   */\n      sub\n        /* \"#utility.yul\":38180:38181   */\n      0x00\n        /* \"#utility.yul\":38169:38178   */\n      dup4\n        /* \"#utility.yul\":38165:38182   */\n      add\n        /* \"#utility.yul\":38158:38205   */\n      mstore\n        /* \"#utility.yul\":38222:38353   */\n      tag_760\n        /* \"#utility.yul\":38348:38352   */\n      dup2\n        /* \"#utility.yul\":38222:38353   */\n      tag_422\n      jump\t// in\n    tag_760:\n        /* \"#utility.yul\":38214:38353   */\n      swap1\n      pop\n        /* \"#utility.yul\":37941:38360   */\n      swap2\n      swap1\n      pop\n      jump\t// out\n        /* \"#utility.yul\":38366:38776   */\n    tag_313:\n        /* \"#utility.yul\":38406:38413   */\n      0x00\n        /* \"#utility.yul\":38429:38449   */\n      tag_762\n        /* \"#utility.yul\":38447:38448   */\n      dup3\n        /* \"#utility.yul\":38429:38449   */\n      tag_342\n      jump\t// in\n    tag_762:\n        /* \"#utility.yul\":38424:38449   */\n      swap2\n      pop\n        /* \"#utility.yul\":38463:38483   */\n      tag_763\n        /* \"#utility.yul\":38481:38482   */\n      dup4\n        /* \"#utility.yul\":38463:38483   */\n      tag_342\n      jump\t// in\n    tag_763:\n        /* \"#utility.yul\":38458:38483   */\n      swap3\n      pop\n        /* \"#utility.yul\":38518:38519   */\n      dup3\n        /* \"#utility.yul\":38515:38516   */\n      dup3\n        /* \"#utility.yul\":38511:38520   */\n      mul\n        /* \"#utility.yul\":38540:38570   */\n      tag_764\n        /* \"#utility.yul\":38558:38569   */\n      dup2\n        /* \"#utility.yul\":38540:38570   */\n      tag_342\n      jump\t// in\n    tag_764:\n        /* \"#utility.yul\":38529:38570   */\n      swap2\n      pop\n        /* \"#utility.yul\":38719:38720   */\n      dup3\n        /* \"#utility.yul\":38710:38717   */\n      dup3\n        /* \"#utility.yul\":38706:38721   */\n      div\n        /* \"#utility.yul\":38703:38704   */\n      dup5\n        /* \"#utility.yul\":38700:38722   */\n      eq\n        /* \"#utility.yul\":38680:38681   */\n      dup4\n        /* \"#utility.yul\":38673:38682   */\n      iszero\n        /* \"#utility.yul\":38653:38736   */\n      or\n        /* \"#utility.yul\":38630:38769   */\n      tag_765\n      jumpi\n        /* \"#utility.yul\":38749:38767   */\n      tag_766\n      tag_390\n      jump\t// in\n    tag_766:\n        /* \"#utility.yul\":38630:38769   */\n    tag_765:\n        /* \"#utility.yul\":38414:38776   */\n      pop\n        /* \"#utility.yul\":38366:38776   */\n      swap3\n      swap2\n      pop\n      pop\n      jump\t// out\n        /* \"#utility.yul\":38782:38962   */\n    tag_423:\n        /* \"#utility.yul\":38830:38907   */\n      0x4e487b7100000000000000000000000000000000000000000000000000000000\n        /* \"#utility.yul\":38827:38828   */\n      0x00\n        /* \"#utility.yul\":38820:38908   */\n      mstore\n        /* \"#utility.yul\":38927:38931   */\n      0x12\n        /* \"#utility.yul\":38924:38925   */\n      0x04\n        /* \"#utility.yul\":38917:38932   */\n      mstore\n        /* \"#utility.yul\":38951:38955   */\n      0x24\n        /* \"#utility.yul\":38948:38949   */\n      0x00\n        /* \"#utility.yul\":38941:38956   */\n      revert\n        /* \"#utility.yul\":38968:39153   */\n    tag_315:\n        /* \"#utility.yul\":39008:39009   */\n      0x00\n        /* \"#utility.yul\":39025:39045   */\n      tag_769\n        /* \"#utility.yul\":39043:39044   */\n      dup3\n        /* \"#utility.yul\":39025:39045   */\n      tag_342\n      jump\t// in\n    tag_769:\n        /* \"#utility.yul\":39020:39045   */\n      swap2\n      pop\n        /* \"#utility.yul\":39059:39079   */\n      tag_770\n        /* \"#utility.yul\":39077:39078   */\n      dup4\n        /* \"#utility.yul\":39059:39079   */\n      tag_342\n      jump\t// in\n    tag_770:\n        /* \"#utility.yul\":39054:39079   */\n      swap3\n      pop\n        /* \"#utility.yul\":39098:39099   */\n      dup3\n        /* \"#utility.yul\":39088:39123   */\n      tag_771\n      jumpi\n        /* \"#utility.yul\":39103:39121   */\n      tag_772\n      tag_423\n      jump\t// in\n    tag_772:\n        /* \"#utility.yul\":39088:39123   */\n    tag_771:\n        /* \"#utility.yul\":39145:39146   */\n      dup3\n        /* \"#utility.yul\":39142:39143   */\n      dup3\n        /* \"#utility.yul\":39138:39147   */\n      div\n        /* \"#utility.yul\":39133:39147   */\n      swap1\n      pop\n        /* \"#utility.yul\":38968:39153   */\n      swap3\n      swap2\n      pop\n      pop\n      jump\t// out\n\n    auxdata: 0xa2646970667358221220f01d9d07af2d8d71d06388bd5d8639d51227bfd4fb4e6eb08293eacb205f42b164736f6c634300081a0033\n}\n",
				"bytecode": {
					"linkReferences": {},
					"object": "6080604052662386f26fc100006001553480156019575f80fd5b50335f806101000a81548173ffffffffffffffffffffffffffffffffffffffff021916908373ffffffffffffffffffffffffffffffffffffffff16021790555060016002819055506001600381905550613545806100765f395ff3fe60806040526004361061011e575f3560e01c806359974e381161009f578063cba1303011610063578063cba13030146103ca578063d5999a5c146103f4578063da2b4c1e1461041e578063e25f3e0214610448578063f4359ce5146104845761011e565b806359974e38146102fa57806361e78617146103225780638da5cb5b1461034c578063934d1fa414610376578063b69ef8a8146103a05761011e565b806331b1b978116100e657806331b1b9781461020b5780633ccfd60b146102505780634a8f164f1461026657806355ce8034146102a2578063572491c3146102de5761011e565b806301b49d471461012257806301fa3bec1461014a5780632401519c146101725780632690567e146101b357806327e235e3146101cf575b5f80fd5b34801561012d575f80fd5b5061014860048036038101906101439190612236565b6104ae565b005b348015610155575f80fd5b50610170600480360381019061016b91906123b0565b6106bc565b005b34801561017d575f80fd5b5061019860048036038101906101939190612236565b610bd2565b6040516101aa969594939291906124b8565b60405180910390f35b6101cd60048036038101906101c89190612236565b610cba565b005b3480156101da575f80fd5b506101f560048036038101906101f09190612548565b611179565b6040516102029190612573565b60405180910390f35b348015610216575f80fd5b50610231600480360381019061022c919061258c565b61118e565b6040516102479a999897969594939291906125d1565b60405180910390f35b34801561025b575f80fd5b5061026461139b565b005b348015610271575f80fd5b5061028c60048036038101906102879190612236565b6114a7565b604051610299919061276c565b60405180910390f35b3480156102ad575f80fd5b506102c860048036038101906102c3919061278c565b61169e565b6040516102d5919061287b565b60405180910390f35b6102f860048036038101906102f391906128be565b611817565b005b348015610305575f80fd5b50610320600480360381019061031b919061258c565b611b1f565b005b34801561032d575f80fd5b50610336611dd9565b6040516103439190612573565b60405180910390f35b348015610357575f80fd5b50610360611ddf565b60405161036d9190612976565b60405180910390f35b348015610381575f80fd5b5061038a611e02565b6040516103979190612573565b60405180910390f35b3480156103ab575f80fd5b506103b4611e09565b6040516103c19190612573565b60405180910390f35b3480156103d5575f80fd5b506103de611e10565b6040516103eb9190612573565b60405180910390f35b3480156103ff575f80fd5b50610408611e16565b6040516104159190612573565b60405180910390f35b348015610429575f80fd5b50610432611e1d565b60405161043f9190612573565b60405180910390f35b348015610453575f80fd5b5061046e6004803603810190610469919061258c565b611e23565b60405161047b9190612a83565b60405180910390f35b34801561048f575f80fd5b50610498612140565b6040516104a59190612573565b60405180910390f35b815f73ffffffffffffffffffffffffffffffffffffffff1660045f8381526020019081526020015f206001015f9054906101000a900473ffffffffffffffffffffffffffffffffffffffff1673ffffffffffffffffffffffffffffffffffffffff1603610550576040517f08c379a000000000000000000000000000000000000000000000000000000000815260040161054790612aed565b60405180910390fd5b8260045f8281526020019081526020015f206008015f9054906101000a900460ff16156105b2576040517f08c379a00000000000000000000000000000000000000000000000000000000081526004016105a990612b55565b60405180910390fd5b5f60045f8681526020019081526020015f209050806001015f9054906101000a900473ffffffffffffffffffffffffffffffffffffffff1673ffffffffffffffffffffffffffffffffffffffff163373ffffffffffffffffffffffffffffffffffffffff1614610657576040517f08c379a000000000000000000000000000000000000000000000000000000000815260040161064e90612bbd565b60405180910390fd5b6001816008015f6101000a81548160ff0219169083151502179055508381600901819055507f99fe2c8abd13b610e7f7d4a51a49e1391ba19454b72305176b884d66010e475a85856040516106ad929190612bdb565b60405180910390a15050505050565b815f73ffffffffffffffffffffffffffffffffffffffff1660045f8381526020019081526020015f206001015f9054906101000a900473ffffffffffffffffffffffffffffffffffffffff1673ffffffffffffffffffffffffffffffffffffffff160361075e576040517f08c379a000000000000000000000000000000000000000000000000000000000815260040161075590612aed565b60405180910390fd5b8260045f8281526020019081526020015f206008015f9054906101000a900460ff16156107c0576040517f08c379a00000000000000000000000000000000000000000000000000000000081526004016107b790612b55565b60405180910390fd5b5f60045f8681526020019081526020015f20604051806101400160405290815f8201548152602001600182015f9054906101000a900473ffffffffffffffffffffffffffffffffffffffff1673ffffffffffffffffffffffffffffffffffffffff1673ffffffffffffffffffffffffffffffffffffffff16815260200160028201805461084c90612c2f565b80601f016020809104026020016040519081016040528092919081815260200182805461087890612c2f565b80156108c35780601f1061089a576101008083540402835291602001916108c3565b820191905f5260205f20905b8154815290600101906020018083116108a657829003601f168201915b505050505081526020016003820180546108dc90612c2f565b80601f016020809104026020016040519081016040528092919081815260200182805461090890612c2f565b80156109535780601f1061092a57610100808354040283529160200191610953565b820191905f5260205f20905b81548152906001019060200180831161093657829003601f168201915b5050505050815260200160048201805461096c90612c2f565b80601f016020809104026020016040519081016040528092919081815260200182805461099890612c2f565b80156109e35780601f106109ba576101008083540402835291602001916109e3565b820191905f5260205f20905b8154815290600101906020018083116109c657829003601f168201915b50505050508152602001600582015481526020016006820154815260200160078201548152602001600882015f9054906101000a900460ff1615151515815260200160098201548152505090508060e00151421115610a77576040517f08c379a0000000000000000000000000000000000000000000000000000000008152600401610a6e90612ca9565b60405180910390fd5b5f60035f815480929190610a8a90612cf4565b9190505590506040518060c001604052808281526020013373ffffffffffffffffffffffffffffffffffffffff1681526020018681526020015f81526020015f81526020014281525060055f8881526020019081526020015f205f8381526020019081526020015f205f820151815f01556020820151816001015f6101000a81548173ffffffffffffffffffffffffffffffffffffffff021916908373ffffffffffffffffffffffffffffffffffffffff1602179055506040820151816002019081610b569190612ed8565b50606082015181600301556080820151816004015560a082015181600501559050503373ffffffffffffffffffffffffffffffffffffffff167f1b72a809869907cac4c4e55b8bf6920ff492d2ff53307bb77ba492366b61387c878388604051610bc293929190612fa7565b60405180910390a2505050505050565b6005602052815f5260405f20602052805f5260405f205f9150915050805f015490806001015f9054906101000a900473ffffffffffffffffffffffffffffffffffffffff1690806002018054610c2790612c2f565b80601f0160208091040260200160405190810160405280929190818152602001828054610c5390612c2f565b8015610c9e5780601f10610c7557610100808354040283529160200191610c9e565b820191905f5260205f20905b815481529060010190602001808311610c8157829003601f168201915b5050505050908060030154908060040154908060050154905086565b815f73ffffffffffffffffffffffffffffffffffffffff1660045f8381526020019081526020015f206001015f9054906101000a900473ffffffffffffffffffffffffffffffffffffffff1673ffffffffffffffffffffffffffffffffffffffff1603610d5c576040517f08c379a0000000000000000000000000000000000000000000000000000000008152600401610d5390612aed565b60405180910390fd5b8260045f8281526020019081526020015f206008015f9054906101000a900460ff1615610dbe576040517f08c379a0000000000000000000000000000000000000000000000000000000008152600401610db590612b55565b60405180910390fd5b5f60045f8681526020019081526020015f20604051806101400160405290815f8201548152602001600182015f9054906101000a900473ffffffffffffffffffffffffffffffffffffffff1673ffffffffffffffffffffffffffffffffffffffff1673ffffffffffffffffffffffffffffffffffffffff168152602001600282018054610e4a90612c2f565b80601f0160208091040260200160405190810160405280929190818152602001828054610e7690612c2f565b8015610ec15780601f10610e9857610100808354040283529160200191610ec1565b820191905f5260205f20905b815481529060010190602001808311610ea457829003601f168201915b50505050508152602001600382018054610eda90612c2f565b80601f0160208091040260200160405190810160405280929190818152602001828054610f0690612c2f565b8015610f515780601f10610f2857610100808354040283529160200191610f51565b820191905f5260205f20905b815481529060010190602001808311610f3457829003601f168201915b50505050508152602001600482018054610f6a90612c2f565b80601f0160208091040260200160405190810160405280929190818152602001828054610f9690612c2f565b8015610fe15780601f10610fb857610100808354040283529160200191610fe1565b820191905f5260205f20905b815481529060010190602001808311610fc457829003601f168201915b50505050508152602001600582015481526020016006820154815260200160078201548152602001600882015f9054906101000a900460ff1615151515815260200160098201548152505090508060e00151421115611075576040517f08c379a000000000000000000000000000000000000000000000000000000000815260040161106c9061302d565b60405180910390fd5b60015434146110b9576040517f08c379a00000000000000000000000000000000000000000000000000000000081526004016110b090613095565b60405180910390fd5b5f60055f8781526020019081526020015f205f8681526020019081526020015f2090506001816003015f8282546110f091906130b3565b925050819055503460045f8881526020019081526020015f206005015f82825461111a91906130b3565b925050819055503373ffffffffffffffffffffffffffffffffffffffff167fd91ecafccf238642dccd41161308b3eebe62a12bc5819daf5164780c221ec95b8787604051611169929190612bdb565b60405180910390a2505050505050565b6006602052805f5260405f205f915090505481565b6004602052805f5260405f205f91509050805f015490806001015f9054906101000a900473ffffffffffffffffffffffffffffffffffffffff16908060020180546111d890612c2f565b80601f016020809104026020016040519081016040528092919081815260200182805461120490612c2f565b801561124f5780601f106112265761010080835404028352916020019161124f565b820191905f5260205f20905b81548152906001019060200180831161123257829003601f168201915b50505050509080600301805461126490612c2f565b80601f016020809104026020016040519081016040528092919081815260200182805461129090612c2f565b80156112db5780601f106112b2576101008083540402835291602001916112db565b820191905f5260205f20905b8154815290600101906020018083116112be57829003601f168201915b5050505050908060040180546112f090612c2f565b80601f016020809104026020016040519081016040528092919081815260200182805461131c90612c2f565b80156113675780601f1061133e57610100808354040283529160200191611367565b820191905f5260205f20905b81548152906001019060200180831161134a57829003601f168201915b505050505090806005015490806006015490806007015490806008015f9054906101000a900460ff1690806009015490508a565b5f60065f3373ffffffffffffffffffffffffffffffffffffffff1673ffffffffffffffffffffffffffffffffffffffff1681526020019081526020015f205490505f811161141e576040517f08c379a000000000000000000000000000000000000000000000000000000000815260040161141590613130565b60405180910390fd5b5f60065f3373ffffffffffffffffffffffffffffffffffffffff1673ffffffffffffffffffffffffffffffffffffffff1681526020019081526020015f20819055503373ffffffffffffffffffffffffffffffffffffffff166108fc8290811502906040515f60405180830381858888f193505050501580156114a3573d5f803e3d5ffd5b5050565b6114af612147565b5f73ffffffffffffffffffffffffffffffffffffffff1660055f8581526020019081526020015f205f8481526020019081526020015f206001015f9054906101000a900473ffffffffffffffffffffffffffffffffffffffff1673ffffffffffffffffffffffffffffffffffffffff160361155f576040517f08c379a000000000000000000000000000000000000000000000000000000000815260040161155690613198565b60405180910390fd5b60055f8481526020019081526020015f205f8381526020019081526020015f206040518060c00160405290815f8201548152602001600182015f9054906101000a900473ffffffffffffffffffffffffffffffffffffffff1673ffffffffffffffffffffffffffffffffffffffff1673ffffffffffffffffffffffffffffffffffffffff1681526020016002820180546115f890612c2f565b80601f016020809104026020016040519081016040528092919081815260200182805461162490612c2f565b801561166f5780601f106116465761010080835404028352916020019161166f565b820191905f5260205f20905b81548152906001019060200180831161165257829003601f168201915b505050505081526020016003820154815260200160048201548152602001600582015481525050905092915050565b60605f60025467ffffffffffffffff8111156116bd576116bc61228c565b5b6040519080825280602002602001820160405280156116eb5781602001602082028036833780820191505090505b5090505f805b60025481101561176d57848051906020012060045f8381526020019081526020015f206004016040516117249190613252565b604051809103902003611760578083838151811061174557611744613268565b5b602002602001018181525050818061175c90612cf4565b9250505b80806001019150506116f1565b505f8167ffffffffffffffff8111156117895761178861228c565b5b6040519080825280602002602001820160405280156117b75781602001602082028036833780820191505090505b5090505f5b8281101561180b578381815181106117d7576117d6613268565b5b60200260200101518282815181106117f2576117f1613268565b5b60200260200101818152505080806001019150506117bc565b50809350505050919050565b5f3411611859576040517f08c379a0000000000000000000000000000000000000000000000000000000008152600401611850906132df565b60405180910390fd5b5f82511161189c576040517f08c379a000000000000000000000000000000000000000000000000000000000815260040161189390613347565b60405180910390fd5b5f8060028111156118b0576118af613365565b5b8260028111156118c3576118c2613365565b5b036118de5762093a80426118d791906130b3565b905061195f565b600160028111156118f2576118f1613365565b5b82600281111561190557611904613365565b5b0361192057621275004261191991906130b3565b905061195e565b60028081111561193357611932613365565b5b82600281111561194657611945613365565b5b0361195d5762278d004261195a91906130b3565b90505b5b5b5f60025f81548092919061197290612cf4565b9190505590506040518061014001604052808281526020013373ffffffffffffffffffffffffffffffffffffffff1681526020018781526020018681526020018581526020013481526020014281526020018381526020015f151581526020015f81525060045f8381526020019081526020015f205f820151815f01556020820151816001015f6101000a81548173ffffffffffffffffffffffffffffffffffffffff021916908373ffffffffffffffffffffffffffffffffffffffff1602179055506040820151816002019081611a4a9190612ed8565b506060820151816003019081611a609190612ed8565b506080820151816004019081611a769190612ed8565b5060a0820151816005015560c0820151816006015560e08201518160070155610100820151816008015f6101000a81548160ff02191690831515021790555061012082015181600901559050503373ffffffffffffffffffffffffffffffffffffffff167fb8105899d34d8481e717a601e8d7a732c27b0ab23778e01145f2f3eb24a1120c82883488604051611b0f9493929190613392565b60405180910390a2505050505050565b805f73ffffffffffffffffffffffffffffffffffffffff1660045f8381526020019081526020015f206001015f9054906101000a900473ffffffffffffffffffffffffffffffffffffffff1673ffffffffffffffffffffffffffffffffffffffff1603611bc1576040517f08c379a0000000000000000000000000000000000000000000000000000000008152600401611bb890612aed565b60405180910390fd5b5f60045f8481526020019081526020015f20905080600701544211611c1b576040517f08c379a0000000000000000000000000000000000000000000000000000000008152600401611c1290613453565b60405180910390fd5b806008015f9054906101000a900460ff1615611c6c576040517f08c379a0000000000000000000000000000000000000000000000000000000008152600401611c6390612b55565b60405180910390fd5b5f80826005015490505f5b600354811015611cbf5760055f8781526020019081526020015f205f8281526020019081526020015f206003015483611cb091906130b3565b92508080600101915050611c77565b505f5b600354811015611db5575f60055f8881526020019081526020015f205f8381526020019081526020015f2090505f841115611da7575f84848360030154611d099190613471565b611d1391906134df565b905080826004015f828254611d2891906130b3565b925050819055508060065f846001015f9054906101000a900473ffffffffffffffffffffffffffffffffffffffff1673ffffffffffffffffffffffffffffffffffffffff1673ffffffffffffffffffffffffffffffffffffffff1681526020019081526020015f205f828254611d9e91906130b3565b92505081905550505b508080600101915050611cc2565b506001836008015f6101000a81548160ff0219169083151502179055505050505050565b60025481565b5f8054906101000a900473ffffffffffffffffffffffffffffffffffffffff1681565b6212750081565b5f47905090565b60035481565b62278d0081565b60015481565b611e2b61218e565b5f73ffffffffffffffffffffffffffffffffffffffff1660045f8481526020019081526020015f206001015f9054906101000a900473ffffffffffffffffffffffffffffffffffffffff1673ffffffffffffffffffffffffffffffffffffffff1603611ecc576040517f08c379a0000000000000000000000000000000000000000000000000000000008152600401611ec390612aed565b60405180910390fd5b60045f8381526020019081526020015f20604051806101400160405290815f8201548152602001600182015f9054906101000a900473ffffffffffffffffffffffffffffffffffffffff1673ffffffffffffffffffffffffffffffffffffffff1673ffffffffffffffffffffffffffffffffffffffff168152602001600282018054611f5790612c2f565b80601f0160208091040260200160405190810160405280929190818152602001828054611f8390612c2f565b8015611fce5780601f10611fa557610100808354040283529160200191611fce565b820191905f5260205f20905b815481529060010190602001808311611fb157829003601f168201915b50505050508152602001600382018054611fe790612c2f565b80601f016020809104026020016040519081016040528092919081815260200182805461201390612c2f565b801561205e5780601f106120355761010080835404028352916020019161205e565b820191905f5260205f20905b81548152906001019060200180831161204157829003601f168201915b5050505050815260200160048201805461207790612c2f565b80601f01602080910402602001604051908101604052809291908181526020018280546120a390612c2f565b80156120ee5780601f106120c5576101008083540402835291602001916120ee565b820191905f5260205f20905b8154815290600101906020018083116120d157829003601f168201915b50505050508152602001600582015481526020016006820154815260200160078201548152602001600882015f9054906101000a900460ff161515151581526020016009820154815250509050919050565b62093a8081565b6040518060c001604052805f81526020015f73ffffffffffffffffffffffffffffffffffffffff168152602001606081526020015f81526020015f81526020015f81525090565b6040518061014001604052805f81526020015f73ffffffffffffffffffffffffffffffffffffffff1681526020016060815260200160608152602001606081526020015f81526020015f81526020015f81526020015f151581526020015f81525090565b5f604051905090565b5f80fd5b5f80fd5b5f819050919050565b61221581612203565b811461221f575f80fd5b50565b5f813590506122308161220c565b92915050565b5f806040838503121561224c5761224b6121fb565b5b5f61225985828601612222565b925050602061226a85828601612222565b9150509250929050565b5f80fd5b5f80fd5b5f601f19601f8301169050919050565b7f4e487b71000000000000000000000000000000000000000000000000000000005f52604160045260245ffd5b6122c28261227c565b810181811067ffffffffffffffff821117156122e1576122e061228c565b5b80604052505050565b5f6122f36121f2565b90506122ff82826122b9565b919050565b5f67ffffffffffffffff82111561231e5761231d61228c565b5b6123278261227c565b9050602081019050919050565b828183375f83830152505050565b5f61235461234f84612304565b6122ea565b9050828152602081018484840111156123705761236f612278565b5b61237b848285612334565b509392505050565b5f82601f83011261239757612396612274565b5b81356123a7848260208601612342565b91505092915050565b5f80604083850312156123c6576123c56121fb565b5b5f6123d385828601612222565b925050602083013567ffffffffffffffff8111156123f4576123f36121ff565b5b61240085828601612383565b9150509250929050565b61241381612203565b82525050565b5f73ffffffffffffffffffffffffffffffffffffffff82169050919050565b5f61244282612419565b9050919050565b61245281612438565b82525050565b5f81519050919050565b5f82825260208201905092915050565b8281835e5f83830152505050565b5f61248a82612458565b6124948185612462565b93506124a4818560208601612472565b6124ad8161227c565b840191505092915050565b5f60c0820190506124cb5f83018961240a565b6124d86020830188612449565b81810360408301526124ea8187612480565b90506124f9606083018661240a565b612506608083018561240a565b61251360a083018461240a565b979650505050505050565b61252781612438565b8114612531575f80fd5b50565b5f813590506125428161251e565b92915050565b5f6020828403121561255d5761255c6121fb565b5b5f61256a84828501612534565b91505092915050565b5f6020820190506125865f83018461240a565b92915050565b5f602082840312156125a1576125a06121fb565b5b5f6125ae84828501612222565b91505092915050565b5f8115159050919050565b6125cb816125b7565b82525050565b5f610140820190506125e55f83018d61240a565b6125f2602083018c612449565b8181036040830152612604818b612480565b90508181036060830152612618818a612480565b9050818103608083015261262c8189612480565b905061263b60a083018861240a565b61264860c083018761240a565b61265560e083018661240a565b6126636101008301856125c2565b61267161012083018461240a565b9b9a5050505050505050505050565b61268981612203565b82525050565b61269881612438565b82525050565b5f82825260208201905092915050565b5f6126b882612458565b6126c2818561269e565b93506126d2818560208601612472565b6126db8161227c565b840191505092915050565b5f60c083015f8301516126fb5f860182612680565b50602083015161270e602086018261268f565b506040830151848203604086015261272682826126ae565b915050606083015161273b6060860182612680565b50608083015161274e6080860182612680565b5060a083015161276160a0860182612680565b508091505092915050565b5f6020820190508181035f83015261278481846126e6565b905092915050565b5f602082840312156127a1576127a06121fb565b5b5f82013567ffffffffffffffff8111156127be576127bd6121ff565b5b6127ca84828501612383565b91505092915050565b5f81519050919050565b5f82825260208201905092915050565b5f819050602082019050919050565b5f6128078383612680565b60208301905092915050565b5f602082019050919050565b5f612829826127d3565b61283381856127dd565b935061283e836127ed565b805f5b8381101561286e57815161285588826127fc565b975061286083612813565b925050600181019050612841565b5085935050505092915050565b5f6020820190508181035f830152612893818461281f565b905092915050565b600381106128a7575f80fd5b50565b5f813590506128b88161289b565b92915050565b5f805f80608085870312156128d6576128d56121fb565b5b5f85013567ffffffffffffffff8111156128f3576128f26121ff565b5b6128ff87828801612383565b945050602085013567ffffffffffffffff8111156129205761291f6121ff565b5b61292c87828801612383565b935050604085013567ffffffffffffffff81111561294d5761294c6121ff565b5b61295987828801612383565b925050606061296a878288016128aa565b91505092959194509250565b5f6020820190506129895f830184612449565b92915050565b612998816125b7565b82525050565b5f61014083015f8301516129b45f860182612680565b5060208301516129c7602086018261268f565b50604083015184820360408601526129df82826126ae565b915050606083015184820360608601526129f982826126ae565b91505060808301518482036080860152612a1382826126ae565b91505060a0830151612a2860a0860182612680565b5060c0830151612a3b60c0860182612680565b5060e0830151612a4e60e0860182612680565b50610100830151612a6361010086018261298f565b50610120830151612a78610120860182612680565b508091505092915050565b5f6020820190508181035f830152612a9b818461299e565b905092915050565b7f5175657374696f6e20646f6573206e6f742065786973740000000000000000005f82015250565b5f612ad7601783612462565b9150612ae282612aa3565b602082019050919050565b5f6020820190508181035f830152612b0481612acb565b9050919050565b7f5175657374696f6e20697320616c726561647920636c6f7365640000000000005f82015250565b5f612b3f601a83612462565b9150612b4a82612b0b565b602082019050919050565b5f6020820190508181035f830152612b6c81612b33565b9050919050565b7f4f6e6c792061736b65722063616e20636c6f7365207175657374696f6e0000005f82015250565b5f612ba7601d83612462565b9150612bb282612b73565b602082019050919050565b5f6020820190508181035f830152612bd481612b9b565b9050919050565b5f604082019050612bee5f83018561240a565b612bfb602083018461240a565b9392505050565b7f4e487b71000000000000000000000000000000000000000000000000000000005f52602260045260245ffd5b5f6002820490506001821680612c4657607f821691505b602082108103612c5957612c58612c02565b5b50919050565b7f5175657374696f6e20646561646c696e652068617320706173736564000000005f82015250565b5f612c93601c83612462565b9150612c9e82612c5f565b602082019050919050565b5f6020820190508181035f830152612cc081612c87565b9050919050565b7f4e487b71000000000000000000000000000000000000000000000000000000005f52601160045260245ffd5b5f612cfe82612203565b91507fffffffffffffffffffffffffffffffffffffffffffffffffffffffffffffffff8203612d3057612d2f612cc7565b5b600182019050919050565b5f819050815f5260205f209050919050565b5f6020601f8301049050919050565b5f82821b905092915050565b5f60088302612d977fffffffffffffffffffffffffffffffffffffffffffffffffffffffffffffffff82612d5c565b612da18683612d5c565b95508019841693508086168417925050509392505050565b5f819050919050565b5f612ddc612dd7612dd284612203565b612db9565b612203565b9050919050565b5f819050919050565b612df583612dc2565b612e09612e0182612de3565b848454612d68565b825550505050565b5f90565b612e1d612e11565b612e28818484612dec565b505050565b5b81811015612e4b57612e405f82612e15565b600181019050612e2e565b5050565b601f821115612e9057612e6181612d3b565b612e6a84612d4d565b81016020851015612e79578190505b612e8d612e8585612d4d565b830182612e2d565b50505b505050565b5f82821c905092915050565b5f612eb05f1984600802612e95565b1980831691505092915050565b5f612ec88383612ea1565b9150826002028217905092915050565b612ee182612458565b67ffffffffffffffff811115612efa57612ef961228c565b5b612f048254612c2f565b612f0f828285612e4f565b5f60209050601f831160018114612f40575f8415612f2e578287015190505b612f388582612ebd565b865550612f9f565b601f198416612f4e86612d3b565b5f5b82811015612f7557848901518255600182019150602085019450602081019050612f50565b86831015612f925784890151612f8e601f891682612ea1565b8355505b6001600288020188555050505b505050505050565b5f606082019050612fba5f83018661240a565b612fc7602083018561240a565b8181036040830152612fd98184612480565b9050949350505050565b7f566f74696e6720706572696f642068617320656e6465640000000000000000005f82015250565b5f613017601783612462565b915061302282612fe3565b602082019050919050565b5f6020820190508181035f8301526130448161300b565b9050919050565b7f496e636f727265637420766f74652066656500000000000000000000000000005f82015250565b5f61307f601283612462565b915061308a8261304b565b602082019050919050565b5f6020820190508181035f8301526130ac81613073565b9050919050565b5f6130bd82612203565b91506130c883612203565b92508282019050808211156130e0576130df612cc7565b5b92915050565b7f4e6f2066756e647320746f2077697468647261770000000000000000000000005f82015250565b5f61311a601483612462565b9150613125826130e6565b602082019050919050565b5f6020820190508181035f8301526131478161310e565b9050919050565b7f416e7377657220646f6573206e6f7420657869737400000000000000000000005f82015250565b5f613182601583612462565b915061318d8261314e565b602082019050919050565b5f6020820190508181035f8301526131af81613176565b9050919050565b5f81905092915050565b5f819050815f5260205f209050919050565b5f81546131de81612c2f565b6131e881866131b6565b9450600182165f8114613202576001811461321757613249565b60ff1983168652811515820286019350613249565b613220856131c0565b5f5b8381101561324157815481890152600182019150602081019050613222565b838801955050505b50505092915050565b5f61325d82846131d2565b915081905092915050565b7f4e487b71000000000000000000000000000000000000000000000000000000005f52603260045260245ffd5b7f526577617264206d7573742062652067726561746572207468616e207a65726f5f82015250565b5f6132c9602083612462565b91506132d482613295565b602082019050919050565b5f6020820190508181035f8301526132f6816132bd565b9050919050565b7f43617465676f72792063616e6e6f7420626520656d70747900000000000000005f82015250565b5f613331601883612462565b915061333c826132fd565b602082019050919050565b5f6020820190508181035f83015261335e81613325565b9050919050565b7f4e487b71000000000000000000000000000000000000000000000000000000005f52602160045260245ffd5b5f6080820190506133a55f83018761240a565b81810360208301526133b78186612480565b90506133c6604083018561240a565b81810360608301526133d88184612480565b905095945050505050565b7f43616e6e6f742064697374726962757465206265666f726520646561646c696e5f8201527f6500000000000000000000000000000000000000000000000000000000000000602082015250565b5f61343d602183612462565b9150613448826133e3565b604082019050919050565b5f6020820190508181035f83015261346a81613431565b9050919050565b5f61347b82612203565b915061348683612203565b925082820261349481612203565b915082820484148315176134ab576134aa612cc7565b5b5092915050565b7f4e487b71000000000000000000000000000000000000000000000000000000005f52601260045260245ffd5b5f6134e982612203565b91506134f483612203565b925082613504576135036134b2565b5b82820490509291505056fea2646970667358221220f01d9d07af2d8d71d06388bd5d8639d51227bfd4fb4e6eb08293eacb205f42b164736f6c634300081a0033",
					"opcodes": "PUSH1 0x80 PUSH1 0x40 MSTORE PUSH7 0x2386F26FC10000 PUSH1 0x1 SSTORE CALLVALUE DUP1 ISZERO PUSH1 0x19 JUMPI PUSH0 DUP1 REVERT JUMPDEST POP CALLER PUSH0 DUP1 PUSH2 0x100 EXP DUP2 SLOAD DUP2 PUSH20 0xFFFFFFFFFFFFFFFFFFFFFFFFFFFFFFFFFFFFFFFF MUL NOT AND SWAP1 DUP4 PUSH20 0xFFFFFFFFFFFFFFFFFFFFFFFFFFFFFFFFFFFFFFFF AND MUL OR SWAP1 SSTORE POP PUSH1 0x1 PUSH1 0x2 DUP2 SWAP1 SSTORE POP PUSH1 0x1 PUSH1 0x3 DUP2 SWAP1 SSTORE POP PUSH2 0x3545 DUP1 PUSH2 0x76 PUSH0 CODECOPY PUSH0 RETURN INVALID PUSH1 0x80 PUSH1 0x40 MSTORE PUSH1 0x4 CALLDATASIZE LT PUSH2 0x11E JUMPI PUSH0 CALLDATALOAD PUSH1 0xE0 SHR DUP1 PUSH4 0x59974E38 GT PUSH2 0x9F JUMPI DUP1 PUSH4 0xCBA13030 GT PUSH2 0x63 JUMPI DUP1 PUSH4 0xCBA13030 EQ PUSH2 0x3CA JUMPI DUP1 PUSH4 0xD5999A5C EQ PUSH2 0x3F4 JUMPI DUP1 PUSH4 0xDA2B4C1E EQ PUSH2 0x41E JUMPI DUP1 PUSH4 0xE25F3E02 EQ PUSH2 0x448 JUMPI DUP1 PUSH4 0xF4359CE5 EQ PUSH2 0x484 JUMPI PUSH2 0x11E JUMP JUMPDEST DUP1 PUSH4 0x59974E38 EQ PUSH2 0x2FA JUMPI DUP1 PUSH4 0x61E78617 EQ PUSH2 0x322 JUMPI DUP1 PUSH4 0x8DA5CB5B EQ PUSH2 0x34C JUMPI DUP1 PUSH4 0x934D1FA4 EQ PUSH2 0x376 JUMPI DUP1 PUSH4 0xB69EF8A8 EQ PUSH2 0x3A0 JUMPI PUSH2 0x11E JUMP JUMPDEST DUP1 PUSH4 0x31B1B978 GT PUSH2 0xE6 JUMPI DUP1 PUSH4 0x31B1B978 EQ PUSH2 0x20B JUMPI DUP1 PUSH4 0x3CCFD60B EQ PUSH2 0x250 JUMPI DUP1 PUSH4 0x4A8F164F EQ PUSH2 0x266 JUMPI DUP1 PUSH4 0x55CE8034 EQ PUSH2 0x2A2 JUMPI DUP1 PUSH4 0x572491C3 EQ PUSH2 0x2DE JUMPI PUSH2 0x11E JUMP JUMPDEST DUP1 PUSH4 0x1B49D47 EQ PUSH2 0x122 JUMPI DUP1 PUSH4 0x1FA3BEC EQ PUSH2 0x14A JUMPI DUP1 PUSH4 0x2401519C EQ PUSH2 0x172 JUMPI DUP1 PUSH4 0x2690567E EQ PUSH2 0x1B3 JUMPI DUP1 PUSH4 0x27E235E3 EQ PUSH2 0x1CF JUMPI JUMPDEST PUSH0 DUP1 REVERT JUMPDEST CALLVALUE DUP1 ISZERO PUSH2 0x12D JUMPI PUSH0 DUP1 REVERT JUMPDEST POP PUSH2 0x148 PUSH1 0x4 DUP1 CALLDATASIZE SUB DUP2 ADD SWAP1 PUSH2 0x143 SWAP2 SWAP1 PUSH2 0x2236 JUMP JUMPDEST PUSH2 0x4AE JUMP JUMPDEST STOP JUMPDEST CALLVALUE DUP1 ISZERO PUSH2 0x155 JUMPI PUSH0 DUP1 REVERT JUMPDEST POP PUSH2 0x170 PUSH1 0x4 DUP1 CALLDATASIZE SUB DUP2 ADD SWAP1 PUSH2 0x16B SWAP2 SWAP1 PUSH2 0x23B0 JUMP JUMPDEST PUSH2 0x6BC JUMP JUMPDEST STOP JUMPDEST CALLVALUE DUP1 ISZERO PUSH2 0x17D JUMPI PUSH0 DUP1 REVERT JUMPDEST POP PUSH2 0x198 PUSH1 0x4 DUP1 CALLDATASIZE SUB DUP2 ADD SWAP1 PUSH2 0x193 SWAP2 SWAP1 PUSH2 0x2236 JUMP JUMPDEST PUSH2 0xBD2 JUMP JUMPDEST PUSH1 0x40 MLOAD PUSH2 0x1AA SWAP7 SWAP6 SWAP5 SWAP4 SWAP3 SWAP2 SWAP1 PUSH2 0x24B8 JUMP JUMPDEST PUSH1 0x40 MLOAD DUP1 SWAP2 SUB SWAP1 RETURN JUMPDEST PUSH2 0x1CD PUSH1 0x4 DUP1 CALLDATASIZE SUB DUP2 ADD SWAP1 PUSH2 0x1C8 SWAP2 SWAP1 PUSH2 0x2236 JUMP JUMPDEST PUSH2 0xCBA JUMP JUMPDEST STOP JUMPDEST CALLVALUE DUP1 ISZERO PUSH2 0x1DA JUMPI PUSH0 DUP1 REVERT JUMPDEST POP PUSH2 0x1F5 PUSH1 0x4 DUP1 CALLDATASIZE SUB DUP2 ADD SWAP1 PUSH2 0x1F0 SWAP2 SWAP1 PUSH2 0x2548 JUMP JUMPDEST PUSH2 0x1179 JUMP JUMPDEST PUSH1 0x40 MLOAD PUSH2 0x202 SWAP2 SWAP1 PUSH2 0x2573 JUMP JUMPDEST PUSH1 0x40 MLOAD DUP1 SWAP2 SUB SWAP1 RETURN JUMPDEST CALLVALUE DUP1 ISZERO PUSH2 0x216 JUMPI PUSH0 DUP1 REVERT JUMPDEST POP PUSH2 0x231 PUSH1 0x4 DUP1 CALLDATASIZE SUB DUP2 ADD SWAP1 PUSH2 0x22C SWAP2 SWAP1 PUSH2 0x258C JUMP JUMPDEST PUSH2 0x118E JUMP JUMPDEST PUSH1 0x40 MLOAD PUSH2 0x247 SWAP11 SWAP10 SWAP9 SWAP8 SWAP7 SWAP6 SWAP5 SWAP4 SWAP3 SWAP2 SWAP1 PUSH2 0x25D1 JUMP JUMPDEST PUSH1 0x40 MLOAD DUP1 SWAP2 SUB SWAP1 RETURN JUMPDEST CALLVALUE DUP1 ISZERO PUSH2 0x25B JUMPI PUSH0 DUP1 REVERT JUMPDEST POP PUSH2 0x264 PUSH2 0x139B JUMP JUMPDEST STOP JUMPDEST CALLVALUE DUP1 ISZERO PUSH2 0x271 JUMPI PUSH0 DUP1 REVERT JUMPDEST POP PUSH2 0x28C PUSH1 0x4 DUP1 CALLDATASIZE SUB DUP2 ADD SWAP1 PUSH2 0x287 SWAP2 SWAP1 PUSH2 0x2236 JUMP JUMPDEST PUSH2 0x14A7 JUMP JUMPDEST PUSH1 0x40 MLOAD PUSH2 0x299 SWAP2 SWAP1 PUSH2 0x276C JUMP JUMPDEST PUSH1 0x40 MLOAD DUP1 SWAP2 SUB SWAP1 RETURN JUMPDEST CALLVALUE DUP1 ISZERO PUSH2 0x2AD JUMPI PUSH0 DUP1 REVERT JUMPDEST POP PUSH2 0x2C8 PUSH1 0x4 DUP1 CALLDATASIZE SUB DUP2 ADD SWAP1 PUSH2 0x2C3 SWAP2 SWAP1 PUSH2 0x278C JUMP JUMPDEST PUSH2 0x169E JUMP JUMPDEST PUSH1 0x40 MLOAD PUSH2 0x2D5 SWAP2 SWAP1 PUSH2 0x287B JUMP JUMPDEST PUSH1 0x40 MLOAD DUP1 SWAP2 SUB SWAP1 RETURN JUMPDEST PUSH2 0x2F8 PUSH1 0x4 DUP1 CALLDATASIZE SUB DUP2 ADD SWAP1 PUSH2 0x2F3 SWAP2 SWAP1 PUSH2 0x28BE JUMP JUMPDEST PUSH2 0x1817 JUMP JUMPDEST STOP JUMPDEST CALLVALUE DUP1 ISZERO PUSH2 0x305 JUMPI PUSH0 DUP1 REVERT JUMPDEST POP PUSH2 0x320 PUSH1 0x4 DUP1 CALLDATASIZE SUB DUP2 ADD SWAP1 PUSH2 0x31B SWAP2 SWAP1 PUSH2 0x258C JUMP JUMPDEST PUSH2 0x1B1F JUMP JUMPDEST STOP JUMPDEST CALLVALUE DUP1 ISZERO PUSH2 0x32D JUMPI PUSH0 DUP1 REVERT JUMPDEST POP PUSH2 0x336 PUSH2 0x1DD9 JUMP JUMPDEST PUSH1 0x40 MLOAD PUSH2 0x343 SWAP2 SWAP1 PUSH2 0x2573 JUMP JUMPDEST PUSH1 0x40 MLOAD DUP1 SWAP2 SUB SWAP1 RETURN JUMPDEST CALLVALUE DUP1 ISZERO PUSH2 0x357 JUMPI PUSH0 DUP1 REVERT JUMPDEST POP PUSH2 0x360 PUSH2 0x1DDF JUMP JUMPDEST PUSH1 0x40 MLOAD PUSH2 0x36D SWAP2 SWAP1 PUSH2 0x2976 JUMP JUMPDEST PUSH1 0x40 MLOAD DUP1 SWAP2 SUB SWAP1 RETURN JUMPDEST CALLVALUE DUP1 ISZERO PUSH2 0x381 JUMPI PUSH0 DUP1 REVERT JUMPDEST POP PUSH2 0x38A PUSH2 0x1E02 JUMP JUMPDEST PUSH1 0x40 MLOAD PUSH2 0x397 SWAP2 SWAP1 PUSH2 0x2573 JUMP JUMPDEST PUSH1 0x40 MLOAD DUP1 SWAP2 SUB SWAP1 RETURN JUMPDEST CALLVALUE DUP1 ISZERO PUSH2 0x3AB JUMPI PUSH0 DUP1 REVERT JUMPDEST POP PUSH2 0x3B4 PUSH2 0x1E09 JUMP JUMPDEST PUSH1 0x40 MLOAD PUSH2 0x3C1 SWAP2 SWAP1 PUSH2 0x2573 JUMP JUMPDEST PUSH1 0x40 MLOAD DUP1 SWAP2 SUB SWAP1 RETURN JUMPDEST CALLVALUE DUP1 ISZERO PUSH2 0x3D5 JUMPI PUSH0 DUP1 REVERT JUMPDEST POP PUSH2 0x3DE PUSH2 0x1E10 JUMP JUMPDEST PUSH1 0x40 MLOAD PUSH2 0x3EB SWAP2 SWAP1 PUSH2 0x2573 JUMP JUMPDEST PUSH1 0x40 MLOAD DUP1 SWAP2 SUB SWAP1 RETURN JUMPDEST CALLVALUE DUP1 ISZERO PUSH2 0x3FF JUMPI PUSH0 DUP1 REVERT JUMPDEST POP PUSH2 0x408 PUSH2 0x1E16 JUMP JUMPDEST PUSH1 0x40 MLOAD PUSH2 0x415 SWAP2 SWAP1 PUSH2 0x2573 JUMP JUMPDEST PUSH1 0x40 MLOAD DUP1 SWAP2 SUB SWAP1 RETURN JUMPDEST CALLVALUE DUP1 ISZERO PUSH2 0x429 JUMPI PUSH0 DUP1 REVERT JUMPDEST POP PUSH2 0x432 PUSH2 0x1E1D JUMP JUMPDEST PUSH1 0x40 MLOAD PUSH2 0x43F SWAP2 SWAP1 PUSH2 0x2573 JUMP JUMPDEST PUSH1 0x40 MLOAD DUP1 SWAP2 SUB SWAP1 RETURN JUMPDEST CALLVALUE DUP1 ISZERO PUSH2 0x453 JUMPI PUSH0 DUP1 REVERT JUMPDEST POP PUSH2 0x46E PUSH1 0x4 DUP1 CALLDATASIZE SUB DUP2 ADD SWAP1 PUSH2 0x469 SWAP2 SWAP1 PUSH2 0x258C JUMP JUMPDEST PUSH2 0x1E23 JUMP JUMPDEST PUSH1 0x40 MLOAD PUSH2 0x47B SWAP2 SWAP1 PUSH2 0x2A83 JUMP JUMPDEST PUSH1 0x40 MLOAD DUP1 SWAP2 SUB SWAP1 RETURN JUMPDEST CALLVALUE DUP1 ISZERO PUSH2 0x48F JUMPI PUSH0 DUP1 REVERT JUMPDEST POP PUSH2 0x498 PUSH2 0x2140 JUMP JUMPDEST PUSH1 0x40 MLOAD PUSH2 0x4A5 SWAP2 SWAP1 PUSH2 0x2573 JUMP JUMPDEST PUSH1 0x40 MLOAD DUP1 SWAP2 SUB SWAP1 RETURN JUMPDEST DUP2 PUSH0 PUSH20 0xFFFFFFFFFFFFFFFFFFFFFFFFFFFFFFFFFFFFFFFF AND PUSH1 0x4 PUSH0 DUP4 DUP2 MSTORE PUSH1 0x20 ADD SWAP1 DUP2 MSTORE PUSH1 0x20 ADD PUSH0 KECCAK256 PUSH1 0x1 ADD PUSH0 SWAP1 SLOAD SWAP1 PUSH2 0x100 EXP SWAP1 DIV PUSH20 0xFFFFFFFFFFFFFFFFFFFFFFFFFFFFFFFFFFFFFFFF AND PUSH20 0xFFFFFFFFFFFFFFFFFFFFFFFFFFFFFFFFFFFFFFFF AND SUB PUSH2 0x550 JUMPI PUSH1 0x40 MLOAD PUSH32 0x8C379A000000000000000000000000000000000000000000000000000000000 DUP2 MSTORE PUSH1 0x4 ADD PUSH2 0x547 SWAP1 PUSH2 0x2AED JUMP JUMPDEST PUSH1 0x40 MLOAD DUP1 SWAP2 SUB SWAP1 REVERT JUMPDEST DUP3 PUSH1 0x4 PUSH0 DUP3 DUP2 MSTORE PUSH1 0x20 ADD SWAP1 DUP2 MSTORE PUSH1 0x20 ADD PUSH0 KECCAK256 PUSH1 0x8 ADD PUSH0 SWAP1 SLOAD SWAP1 PUSH2 0x100 EXP SWAP1 DIV PUSH1 0xFF AND ISZERO PUSH2 0x5B2 JUMPI PUSH1 0x40 MLOAD PUSH32 0x8C379A000000000000000000000000000000000000000000000000000000000 DUP2 MSTORE PUSH1 0x4 ADD PUSH2 0x5A9 SWAP1 PUSH2 0x2B55 JUMP JUMPDEST PUSH1 0x40 MLOAD DUP1 SWAP2 SUB SWAP1 REVERT JUMPDEST PUSH0 PUSH1 0x4 PUSH0 DUP7 DUP2 MSTORE PUSH1 0x20 ADD SWAP1 DUP2 MSTORE PUSH1 0x20 ADD PUSH0 KECCAK256 SWAP1 POP DUP1 PUSH1 0x1 ADD PUSH0 SWAP1 SLOAD SWAP1 PUSH2 0x100 EXP SWAP1 DIV PUSH20 0xFFFFFFFFFFFFFFFFFFFFFFFFFFFFFFFFFFFFFFFF AND PUSH20 0xFFFFFFFFFFFFFFFFFFFFFFFFFFFFFFFFFFFFFFFF AND CALLER PUSH20 0xFFFFFFFFFFFFFFFFFFFFFFFFFFFFFFFFFFFFFFFF AND EQ PUSH2 0x657 JUMPI PUSH1 0x40 MLOAD PUSH32 0x8C379A000000000000000000000000000000000000000000000000000000000 DUP2 MSTORE PUSH1 0x4 ADD PUSH2 0x64E SWAP1 PUSH2 0x2BBD JUMP JUMPDEST PUSH1 0x40 MLOAD DUP1 SWAP2 SUB SWAP1 REVERT JUMPDEST PUSH1 0x1 DUP2 PUSH1 0x8 ADD PUSH0 PUSH2 0x100 EXP DUP2 SLOAD DUP2 PUSH1 0xFF MUL NOT AND SWAP1 DUP4 ISZERO ISZERO MUL OR SWAP1 SSTORE POP DUP4 DUP2 PUSH1 0x9 ADD DUP2 SWAP1 SSTORE POP PUSH32 0x99FE2C8ABD13B610E7F7D4A51A49E1391BA19454B72305176B884D66010E475A DUP6 DUP6 PUSH1 0x40 MLOAD PUSH2 0x6AD SWAP3 SWAP2 SWAP1 PUSH2 0x2BDB JUMP JUMPDEST PUSH1 0x40 MLOAD DUP1 SWAP2 SUB SWAP1 LOG1 POP POP POP POP POP JUMP JUMPDEST DUP2 PUSH0 PUSH20 0xFFFFFFFFFFFFFFFFFFFFFFFFFFFFFFFFFFFFFFFF AND PUSH1 0x4 PUSH0 DUP4 DUP2 MSTORE PUSH1 0x20 ADD SWAP1 DUP2 MSTORE PUSH1 0x20 ADD PUSH0 KECCAK256 PUSH1 0x1 ADD PUSH0 SWAP1 SLOAD SWAP1 PUSH2 0x100 EXP SWAP1 DIV PUSH20 0xFFFFFFFFFFFFFFFFFFFFFFFFFFFFFFFFFFFFFFFF AND PUSH20 0xFFFFFFFFFFFFFFFFFFFFFFFFFFFFFFFFFFFFFFFF AND SUB PUSH2 0x75E JUMPI PUSH1 0x40 MLOAD PUSH32 0x8C379A000000000000000000000000000000000000000000000000000000000 DUP2 MSTORE PUSH1 0x4 ADD PUSH2 0x755 SWAP1 PUSH2 0x2AED JUMP JUMPDEST PUSH1 0x40 MLOAD DUP1 SWAP2 SUB SWAP1 REVERT JUMPDEST DUP3 PUSH1 0x4 PUSH0 DUP3 DUP2 MSTORE PUSH1 0x20 ADD SWAP1 DUP2 MSTORE PUSH1 0x20 ADD PUSH0 KECCAK256 PUSH1 0x8 ADD PUSH0 SWAP1 SLOAD SWAP1 PUSH2 0x100 EXP SWAP1 DIV PUSH1 0xFF AND ISZERO PUSH2 0x7C0 JUMPI PUSH1 0x40 MLOAD PUSH32 0x8C379A000000000000000000000000000000000000000000000000000000000 DUP2 MSTORE PUSH1 0x4 ADD PUSH2 0x7B7 SWAP1 PUSH2 0x2B55 JUMP JUMPDEST PUSH1 0x40 MLOAD DUP1 SWAP2 SUB SWAP1 REVERT JUMPDEST PUSH0 PUSH1 0x4 PUSH0 DUP7 DUP2 MSTORE PUSH1 0x20 ADD SWAP1 DUP2 MSTORE PUSH1 0x20 ADD PUSH0 KECCAK256 PUSH1 0x40 MLOAD DUP1 PUSH2 0x140 ADD PUSH1 0x40 MSTORE SWAP1 DUP2 PUSH0 DUP3 ADD SLOAD DUP2 MSTORE PUSH1 0x20 ADD PUSH1 0x1 DUP3 ADD PUSH0 SWAP1 SLOAD SWAP1 PUSH2 0x100 EXP SWAP1 DIV PUSH20 0xFFFFFFFFFFFFFFFFFFFFFFFFFFFFFFFFFFFFFFFF AND PUSH20 0xFFFFFFFFFFFFFFFFFFFFFFFFFFFFFFFFFFFFFFFF AND PUSH20 0xFFFFFFFFFFFFFFFFFFFFFFFFFFFFFFFFFFFFFFFF AND DUP2 MSTORE PUSH1 0x20 ADD PUSH1 0x2 DUP3 ADD DUP1 SLOAD PUSH2 0x84C SWAP1 PUSH2 0x2C2F JUMP JUMPDEST DUP1 PUSH1 0x1F ADD PUSH1 0x20 DUP1 SWAP2 DIV MUL PUSH1 0x20 ADD PUSH1 0x40 MLOAD SWAP1 DUP2 ADD PUSH1 0x40 MSTORE DUP1 SWAP3 SWAP2 SWAP1 DUP2 DUP2 MSTORE PUSH1 0x20 ADD DUP3 DUP1 SLOAD PUSH2 0x878 SWAP1 PUSH2 0x2C2F JUMP JUMPDEST DUP1 ISZERO PUSH2 0x8C3 JUMPI DUP1 PUSH1 0x1F LT PUSH2 0x89A JUMPI PUSH2 0x100 DUP1 DUP4 SLOAD DIV MUL DUP4 MSTORE SWAP2 PUSH1 0x20 ADD SWAP2 PUSH2 0x8C3 JUMP JUMPDEST DUP3 ADD SWAP2 SWAP1 PUSH0 MSTORE PUSH1 0x20 PUSH0 KECCAK256 SWAP1 JUMPDEST DUP2 SLOAD DUP2 MSTORE SWAP1 PUSH1 0x1 ADD SWAP1 PUSH1 0x20 ADD DUP1 DUP4 GT PUSH2 0x8A6 JUMPI DUP3 SWAP1 SUB PUSH1 0x1F AND DUP3 ADD SWAP2 JUMPDEST POP POP POP POP POP DUP2 MSTORE PUSH1 0x20 ADD PUSH1 0x3 DUP3 ADD DUP1 SLOAD PUSH2 0x8DC SWAP1 PUSH2 0x2C2F JUMP JUMPDEST DUP1 PUSH1 0x1F ADD PUSH1 0x20 DUP1 SWAP2 DIV MUL PUSH1 0x20 ADD PUSH1 0x40 MLOAD SWAP1 DUP2 ADD PUSH1 0x40 MSTORE DUP1 SWAP3 SWAP2 SWAP1 DUP2 DUP2 MSTORE PUSH1 0x20 ADD DUP3 DUP1 SLOAD PUSH2 0x908 SWAP1 PUSH2 0x2C2F JUMP JUMPDEST DUP1 ISZERO PUSH2 0x953 JUMPI DUP1 PUSH1 0x1F LT PUSH2 0x92A JUMPI PUSH2 0x100 DUP1 DUP4 SLOAD DIV MUL DUP4 MSTORE SWAP2 PUSH1 0x20 ADD SWAP2 PUSH2 0x953 JUMP JUMPDEST DUP3 ADD SWAP2 SWAP1 PUSH0 MSTORE PUSH1 0x20 PUSH0 KECCAK256 SWAP1 JUMPDEST DUP2 SLOAD DUP2 MSTORE SWAP1 PUSH1 0x1 ADD SWAP1 PUSH1 0x20 ADD DUP1 DUP4 GT PUSH2 0x936 JUMPI DUP3 SWAP1 SUB PUSH1 0x1F AND DUP3 ADD SWAP2 JUMPDEST POP POP POP POP POP DUP2 MSTORE PUSH1 0x20 ADD PUSH1 0x4 DUP3 ADD DUP1 SLOAD PUSH2 0x96C SWAP1 PUSH2 0x2C2F JUMP JUMPDEST DUP1 PUSH1 0x1F ADD PUSH1 0x20 DUP1 SWAP2 DIV MUL PUSH1 0x20 ADD PUSH1 0x40 MLOAD SWAP1 DUP2 ADD PUSH1 0x40 MSTORE DUP1 SWAP3 SWAP2 SWAP1 DUP2 DUP2 MSTORE PUSH1 0x20 ADD DUP3 DUP1 SLOAD PUSH2 0x998 SWAP1 PUSH2 0x2C2F JUMP JUMPDEST DUP1 ISZERO PUSH2 0x9E3 JUMPI DUP1 PUSH1 0x1F LT PUSH2 0x9BA JUMPI PUSH2 0x100 DUP1 DUP4 SLOAD DIV MUL DUP4 MSTORE SWAP2 PUSH1 0x20 ADD SWAP2 PUSH2 0x9E3 JUMP JUMPDEST DUP3 ADD SWAP2 SWAP1 PUSH0 MSTORE PUSH1 0x20 PUSH0 KECCAK256 SWAP1 JUMPDEST DUP2 SLOAD DUP2 MSTORE SWAP1 PUSH1 0x1 ADD SWAP1 PUSH1 0x20 ADD DUP1 DUP4 GT PUSH2 0x9C6 JUMPI DUP3 SWAP1 SUB PUSH1 0x1F AND DUP3 ADD SWAP2 JUMPDEST POP POP POP POP POP DUP2 MSTORE PUSH1 0x20 ADD PUSH1 0x5 DUP3 ADD SLOAD DUP2 MSTORE PUSH1 0x20 ADD PUSH1 0x6 DUP3 ADD SLOAD DUP2 MSTORE PUSH1 0x20 ADD PUSH1 0x7 DUP3 ADD SLOAD DUP2 MSTORE PUSH1 0x20 ADD PUSH1 0x8 DUP3 ADD PUSH0 SWAP1 SLOAD SWAP1 PUSH2 0x100 EXP SWAP1 DIV PUSH1 0xFF AND ISZERO ISZERO ISZERO ISZERO DUP2 MSTORE PUSH1 0x20 ADD PUSH1 0x9 DUP3 ADD SLOAD DUP2 MSTORE POP POP SWAP1 POP DUP1 PUSH1 0xE0 ADD MLOAD TIMESTAMP GT ISZERO PUSH2 0xA77 JUMPI PUSH1 0x40 MLOAD PUSH32 0x8C379A000000000000000000000000000000000000000000000000000000000 DUP2 MSTORE PUSH1 0x4 ADD PUSH2 0xA6E SWAP1 PUSH2 0x2CA9 JUMP JUMPDEST PUSH1 0x40 MLOAD DUP1 SWAP2 SUB SWAP1 REVERT JUMPDEST PUSH0 PUSH1 0x3 PUSH0 DUP2 SLOAD DUP1 SWAP3 SWAP2 SWAP1 PUSH2 0xA8A SWAP1 PUSH2 0x2CF4 JUMP JUMPDEST SWAP2 SWAP1 POP SSTORE SWAP1 POP PUSH1 0x40 MLOAD DUP1 PUSH1 0xC0 ADD PUSH1 0x40 MSTORE DUP1 DUP3 DUP2 MSTORE PUSH1 0x20 ADD CALLER PUSH20 0xFFFFFFFFFFFFFFFFFFFFFFFFFFFFFFFFFFFFFFFF AND DUP2 MSTORE PUSH1 0x20 ADD DUP7 DUP2 MSTORE PUSH1 0x20 ADD PUSH0 DUP2 MSTORE PUSH1 0x20 ADD PUSH0 DUP2 MSTORE PUSH1 0x20 ADD TIMESTAMP DUP2 MSTORE POP PUSH1 0x5 PUSH0 DUP9 DUP2 MSTORE PUSH1 0x20 ADD SWAP1 DUP2 MSTORE PUSH1 0x20 ADD PUSH0 KECCAK256 PUSH0 DUP4 DUP2 MSTORE PUSH1 0x20 ADD SWAP1 DUP2 MSTORE PUSH1 0x20 ADD PUSH0 KECCAK256 PUSH0 DUP3 ADD MLOAD DUP2 PUSH0 ADD SSTORE PUSH1 0x20 DUP3 ADD MLOAD DUP2 PUSH1 0x1 ADD PUSH0 PUSH2 0x100 EXP DUP2 SLOAD DUP2 PUSH20 0xFFFFFFFFFFFFFFFFFFFFFFFFFFFFFFFFFFFFFFFF MUL NOT AND SWAP1 DUP4 PUSH20 0xFFFFFFFFFFFFFFFFFFFFFFFFFFFFFFFFFFFFFFFF AND MUL OR SWAP1 SSTORE POP PUSH1 0x40 DUP3 ADD MLOAD DUP2 PUSH1 0x2 ADD SWAP1 DUP2 PUSH2 0xB56 SWAP2 SWAP1 PUSH2 0x2ED8 JUMP JUMPDEST POP PUSH1 0x60 DUP3 ADD MLOAD DUP2 PUSH1 0x3 ADD SSTORE PUSH1 0x80 DUP3 ADD MLOAD DUP2 PUSH1 0x4 ADD SSTORE PUSH1 0xA0 DUP3 ADD MLOAD DUP2 PUSH1 0x5 ADD SSTORE SWAP1 POP POP CALLER PUSH20 0xFFFFFFFFFFFFFFFFFFFFFFFFFFFFFFFFFFFFFFFF AND PUSH32 0x1B72A809869907CAC4C4E55B8BF6920FF492D2FF53307BB77BA492366B61387C DUP8 DUP4 DUP9 PUSH1 0x40 MLOAD PUSH2 0xBC2 SWAP4 SWAP3 SWAP2 SWAP1 PUSH2 0x2FA7 JUMP JUMPDEST PUSH1 0x40 MLOAD DUP1 SWAP2 SUB SWAP1 LOG2 POP POP POP POP POP POP JUMP JUMPDEST PUSH1 0x5 PUSH1 0x20 MSTORE DUP2 PUSH0 MSTORE PUSH1 0x40 PUSH0 KECCAK256 PUSH1 0x20 MSTORE DUP1 PUSH0 MSTORE PUSH1 0x40 PUSH0 KECCAK256 PUSH0 SWAP2 POP SWAP2 POP POP DUP1 PUSH0 ADD SLOAD SWAP1 DUP1 PUSH1 0x1 ADD PUSH0 SWAP1 SLOAD SWAP1 PUSH2 0x100 EXP SWAP1 DIV PUSH20 0xFFFFFFFFFFFFFFFFFFFFFFFFFFFFFFFFFFFFFFFF AND SWAP1 DUP1 PUSH1 0x2 ADD DUP1 SLOAD PUSH2 0xC27 SWAP1 PUSH2 0x2C2F JUMP JUMPDEST DUP1 PUSH1 0x1F ADD PUSH1 0x20 DUP1 SWAP2 DIV MUL PUSH1 0x20 ADD PUSH1 0x40 MLOAD SWAP1 DUP2 ADD PUSH1 0x40 MSTORE DUP1 SWAP3 SWAP2 SWAP1 DUP2 DUP2 MSTORE PUSH1 0x20 ADD DUP3 DUP1 SLOAD PUSH2 0xC53 SWAP1 PUSH2 0x2C2F JUMP JUMPDEST DUP1 ISZERO PUSH2 0xC9E JUMPI DUP1 PUSH1 0x1F LT PUSH2 0xC75 JUMPI PUSH2 0x100 DUP1 DUP4 SLOAD DIV MUL DUP4 MSTORE SWAP2 PUSH1 0x20 ADD SWAP2 PUSH2 0xC9E JUMP JUMPDEST DUP3 ADD SWAP2 SWAP1 PUSH0 MSTORE PUSH1 0x20 PUSH0 KECCAK256 SWAP1 JUMPDEST DUP2 SLOAD DUP2 MSTORE SWAP1 PUSH1 0x1 ADD SWAP1 PUSH1 0x20 ADD DUP1 DUP4 GT PUSH2 0xC81 JUMPI DUP3 SWAP1 SUB PUSH1 0x1F AND DUP3 ADD SWAP2 JUMPDEST POP POP POP POP POP SWAP1 DUP1 PUSH1 0x3 ADD SLOAD SWAP1 DUP1 PUSH1 0x4 ADD SLOAD SWAP1 DUP1 PUSH1 0x5 ADD SLOAD SWAP1 POP DUP7 JUMP JUMPDEST DUP2 PUSH0 PUSH20 0xFFFFFFFFFFFFFFFFFFFFFFFFFFFFFFFFFFFFFFFF AND PUSH1 0x4 PUSH0 DUP4 DUP2 MSTORE PUSH1 0x20 ADD SWAP1 DUP2 MSTORE PUSH1 0x20 ADD PUSH0 KECCAK256 PUSH1 0x1 ADD PUSH0 SWAP1 SLOAD SWAP1 PUSH2 0x100 EXP SWAP1 DIV PUSH20 0xFFFFFFFFFFFFFFFFFFFFFFFFFFFFFFFFFFFFFFFF AND PUSH20 0xFFFFFFFFFFFFFFFFFFFFFFFFFFFFFFFFFFFFFFFF AND SUB PUSH2 0xD5C JUMPI PUSH1 0x40 MLOAD PUSH32 0x8C379A000000000000000000000000000000000000000000000000000000000 DUP2 MSTORE PUSH1 0x4 ADD PUSH2 0xD53 SWAP1 PUSH2 0x2AED JUMP JUMPDEST PUSH1 0x40 MLOAD DUP1 SWAP2 SUB SWAP1 REVERT JUMPDEST DUP3 PUSH1 0x4 PUSH0 DUP3 DUP2 MSTORE PUSH1 0x20 ADD SWAP1 DUP2 MSTORE PUSH1 0x20 ADD PUSH0 KECCAK256 PUSH1 0x8 ADD PUSH0 SWAP1 SLOAD SWAP1 PUSH2 0x100 EXP SWAP1 DIV PUSH1 0xFF AND ISZERO PUSH2 0xDBE JUMPI PUSH1 0x40 MLOAD PUSH32 0x8C379A000000000000000000000000000000000000000000000000000000000 DUP2 MSTORE PUSH1 0x4 ADD PUSH2 0xDB5 SWAP1 PUSH2 0x2B55 JUMP JUMPDEST PUSH1 0x40 MLOAD DUP1 SWAP2 SUB SWAP1 REVERT JUMPDEST PUSH0 PUSH1 0x4 PUSH0 DUP7 DUP2 MSTORE PUSH1 0x20 ADD SWAP1 DUP2 MSTORE PUSH1 0x20 ADD PUSH0 KECCAK256 PUSH1 0x40 MLOAD DUP1 PUSH2 0x140 ADD PUSH1 0x40 MSTORE SWAP1 DUP2 PUSH0 DUP3 ADD SLOAD DUP2 MSTORE PUSH1 0x20 ADD PUSH1 0x1 DUP3 ADD PUSH0 SWAP1 SLOAD SWAP1 PUSH2 0x100 EXP SWAP1 DIV PUSH20 0xFFFFFFFFFFFFFFFFFFFFFFFFFFFFFFFFFFFFFFFF AND PUSH20 0xFFFFFFFFFFFFFFFFFFFFFFFFFFFFFFFFFFFFFFFF AND PUSH20 0xFFFFFFFFFFFFFFFFFFFFFFFFFFFFFFFFFFFFFFFF AND DUP2 MSTORE PUSH1 0x20 ADD PUSH1 0x2 DUP3 ADD DUP1 SLOAD PUSH2 0xE4A SWAP1 PUSH2 0x2C2F JUMP JUMPDEST DUP1 PUSH1 0x1F ADD PUSH1 0x20 DUP1 SWAP2 DIV MUL PUSH1 0x20 ADD PUSH1 0x40 MLOAD SWAP1 DUP2 ADD PUSH1 0x40 MSTORE DUP1 SWAP3 SWAP2 SWAP1 DUP2 DUP2 MSTORE PUSH1 0x20 ADD DUP3 DUP1 SLOAD PUSH2 0xE76 SWAP1 PUSH2 0x2C2F JUMP JUMPDEST DUP1 ISZERO PUSH2 0xEC1 JUMPI DUP1 PUSH1 0x1F LT PUSH2 0xE98 JUMPI PUSH2 0x100 DUP1 DUP4 SLOAD DIV MUL DUP4 MSTORE SWAP2 PUSH1 0x20 ADD SWAP2 PUSH2 0xEC1 JUMP JUMPDEST DUP3 ADD SWAP2 SWAP1 PUSH0 MSTORE PUSH1 0x20 PUSH0 KECCAK256 SWAP1 JUMPDEST DUP2 SLOAD DUP2 MSTORE SWAP1 PUSH1 0x1 ADD SWAP1 PUSH1 0x20 ADD DUP1 DUP4 GT PUSH2 0xEA4 JUMPI DUP3 SWAP1 SUB PUSH1 0x1F AND DUP3 ADD SWAP2 JUMPDEST POP POP POP POP POP DUP2 MSTORE PUSH1 0x20 ADD PUSH1 0x3 DUP3 ADD DUP1 SLOAD PUSH2 0xEDA SWAP1 PUSH2 0x2C2F JUMP JUMPDEST DUP1 PUSH1 0x1F ADD PUSH1 0x20 DUP1 SWAP2 DIV MUL PUSH1 0x20 ADD PUSH1 0x40 MLOAD SWAP1 DUP2 ADD PUSH1 0x40 MSTORE DUP1 SWAP3 SWAP2 SWAP1 DUP2 DUP2 MSTORE PUSH1 0x20 ADD DUP3 DUP1 SLOAD PUSH2 0xF06 SWAP1 PUSH2 0x2C2F JUMP JUMPDEST DUP1 ISZERO PUSH2 0xF51 JUMPI DUP1 PUSH1 0x1F LT PUSH2 0xF28 JUMPI PUSH2 0x100 DUP1 DUP4 SLOAD DIV MUL DUP4 MSTORE SWAP2 PUSH1 0x20 ADD SWAP2 PUSH2 0xF51 JUMP JUMPDEST DUP3 ADD SWAP2 SWAP1 PUSH0 MSTORE PUSH1 0x20 PUSH0 KECCAK256 SWAP1 JUMPDEST DUP2 SLOAD DUP2 MSTORE SWAP1 PUSH1 0x1 ADD SWAP1 PUSH1 0x20 ADD DUP1 DUP4 GT PUSH2 0xF34 JUMPI DUP3 SWAP1 SUB PUSH1 0x1F AND DUP3 ADD SWAP2 JUMPDEST POP POP POP POP POP DUP2 MSTORE PUSH1 0x20 ADD PUSH1 0x4 DUP3 ADD DUP1 SLOAD PUSH2 0xF6A SWAP1 PUSH2 0x2C2F JUMP JUMPDEST DUP1 PUSH1 0x1F ADD PUSH1 0x20 DUP1 SWAP2 DIV MUL PUSH1 0x20 ADD PUSH1 0x40 MLOAD SWAP1 DUP2 ADD PUSH1 0x40 MSTORE DUP1 SWAP3 SWAP2 SWAP1 DUP2 DUP2 MSTORE PUSH1 0x20 ADD DUP3 DUP1 SLOAD PUSH2 0xF96 SWAP1 PUSH2 0x2C2F JUMP JUMPDEST DUP1 ISZERO PUSH2 0xFE1 JUMPI DUP1 PUSH1 0x1F LT PUSH2 0xFB8 JUMPI PUSH2 0x100 DUP1 DUP4 SLOAD DIV MUL DUP4 MSTORE SWAP2 PUSH1 0x20 ADD SWAP2 PUSH2 0xFE1 JUMP JUMPDEST DUP3 ADD SWAP2 SWAP1 PUSH0 MSTORE PUSH1 0x20 PUSH0 KECCAK256 SWAP1 JUMPDEST DUP2 SLOAD DUP2 MSTORE SWAP1 PUSH1 0x1 ADD SWAP1 PUSH1 0x20 ADD DUP1 DUP4 GT PUSH2 0xFC4 JUMPI DUP3 SWAP1 SUB PUSH1 0x1F AND DUP3 ADD SWAP2 JUMPDEST POP POP POP POP POP DUP2 MSTORE PUSH1 0x20 ADD PUSH1 0x5 DUP3 ADD SLOAD DUP2 MSTORE PUSH1 0x20 ADD PUSH1 0x6 DUP3 ADD SLOAD DUP2 MSTORE PUSH1 0x20 ADD PUSH1 0x7 DUP3 ADD SLOAD DUP2 MSTORE PUSH1 0x20 ADD PUSH1 0x8 DUP3 ADD PUSH0 SWAP1 SLOAD SWAP1 PUSH2 0x100 EXP SWAP1 DIV PUSH1 0xFF AND ISZERO ISZERO ISZERO ISZERO DUP2 MSTORE PUSH1 0x20 ADD PUSH1 0x9 DUP3 ADD SLOAD DUP2 MSTORE POP POP SWAP1 POP DUP1 PUSH1 0xE0 ADD MLOAD TIMESTAMP GT ISZERO PUSH2 0x1075 JUMPI PUSH1 0x40 MLOAD PUSH32 0x8C379A000000000000000000000000000000000000000000000000000000000 DUP2 MSTORE PUSH1 0x4 ADD PUSH2 0x106C SWAP1 PUSH2 0x302D JUMP JUMPDEST PUSH1 0x40 MLOAD DUP1 SWAP2 SUB SWAP1 REVERT JUMPDEST PUSH1 0x1 SLOAD CALLVALUE EQ PUSH2 0x10B9 JUMPI PUSH1 0x40 MLOAD PUSH32 0x8C379A000000000000000000000000000000000000000000000000000000000 DUP2 MSTORE PUSH1 0x4 ADD PUSH2 0x10B0 SWAP1 PUSH2 0x3095 JUMP JUMPDEST PUSH1 0x40 MLOAD DUP1 SWAP2 SUB SWAP1 REVERT JUMPDEST PUSH0 PUSH1 0x5 PUSH0 DUP8 DUP2 MSTORE PUSH1 0x20 ADD SWAP1 DUP2 MSTORE PUSH1 0x20 ADD PUSH0 KECCAK256 PUSH0 DUP7 DUP2 MSTORE PUSH1 0x20 ADD SWAP1 DUP2 MSTORE PUSH1 0x20 ADD PUSH0 KECCAK256 SWAP1 POP PUSH1 0x1 DUP2 PUSH1 0x3 ADD PUSH0 DUP3 DUP3 SLOAD PUSH2 0x10F0 SWAP2 SWAP1 PUSH2 0x30B3 JUMP JUMPDEST SWAP3 POP POP DUP2 SWAP1 SSTORE POP CALLVALUE PUSH1 0x4 PUSH0 DUP9 DUP2 MSTORE PUSH1 0x20 ADD SWAP1 DUP2 MSTORE PUSH1 0x20 ADD PUSH0 KECCAK256 PUSH1 0x5 ADD PUSH0 DUP3 DUP3 SLOAD PUSH2 0x111A SWAP2 SWAP1 PUSH2 0x30B3 JUMP JUMPDEST SWAP3 POP POP DUP2 SWAP1 SSTORE POP CALLER PUSH20 0xFFFFFFFFFFFFFFFFFFFFFFFFFFFFFFFFFFFFFFFF AND PUSH32 0xD91ECAFCCF238642DCCD41161308B3EEBE62A12BC5819DAF5164780C221EC95B DUP8 DUP8 PUSH1 0x40 MLOAD PUSH2 0x1169 SWAP3 SWAP2 SWAP1 PUSH2 0x2BDB JUMP JUMPDEST PUSH1 0x40 MLOAD DUP1 SWAP2 SUB SWAP1 LOG2 POP POP POP POP POP POP JUMP JUMPDEST PUSH1 0x6 PUSH1 0x20 MSTORE DUP1 PUSH0 MSTORE PUSH1 0x40 PUSH0 KECCAK256 PUSH0 SWAP2 POP SWAP1 POP SLOAD DUP2 JUMP JUMPDEST PUSH1 0x4 PUSH1 0x20 MSTORE DUP1 PUSH0 MSTORE PUSH1 0x40 PUSH0 KECCAK256 PUSH0 SWAP2 POP SWAP1 POP DUP1 PUSH0 ADD SLOAD SWAP1 DUP1 PUSH1 0x1 ADD PUSH0 SWAP1 SLOAD SWAP1 PUSH2 0x100 EXP SWAP1 DIV PUSH20 0xFFFFFFFFFFFFFFFFFFFFFFFFFFFFFFFFFFFFFFFF AND SWAP1 DUP1 PUSH1 0x2 ADD DUP1 SLOAD PUSH2 0x11D8 SWAP1 PUSH2 0x2C2F JUMP JUMPDEST DUP1 PUSH1 0x1F ADD PUSH1 0x20 DUP1 SWAP2 DIV MUL PUSH1 0x20 ADD PUSH1 0x40 MLOAD SWAP1 DUP2 ADD PUSH1 0x40 MSTORE DUP1 SWAP3 SWAP2 SWAP1 DUP2 DUP2 MSTORE PUSH1 0x20 ADD DUP3 DUP1 SLOAD PUSH2 0x1204 SWAP1 PUSH2 0x2C2F JUMP JUMPDEST DUP1 ISZERO PUSH2 0x124F JUMPI DUP1 PUSH1 0x1F LT PUSH2 0x1226 JUMPI PUSH2 0x100 DUP1 DUP4 SLOAD DIV MUL DUP4 MSTORE SWAP2 PUSH1 0x20 ADD SWAP2 PUSH2 0x124F JUMP JUMPDEST DUP3 ADD SWAP2 SWAP1 PUSH0 MSTORE PUSH1 0x20 PUSH0 KECCAK256 SWAP1 JUMPDEST DUP2 SLOAD DUP2 MSTORE SWAP1 PUSH1 0x1 ADD SWAP1 PUSH1 0x20 ADD DUP1 DUP4 GT PUSH2 0x1232 JUMPI DUP3 SWAP1 SUB PUSH1 0x1F AND DUP3 ADD SWAP2 JUMPDEST POP POP POP POP POP SWAP1 DUP1 PUSH1 0x3 ADD DUP1 SLOAD PUSH2 0x1264 SWAP1 PUSH2 0x2C2F JUMP JUMPDEST DUP1 PUSH1 0x1F ADD PUSH1 0x20 DUP1 SWAP2 DIV MUL PUSH1 0x20 ADD PUSH1 0x40 MLOAD SWAP1 DUP2 ADD PUSH1 0x40 MSTORE DUP1 SWAP3 SWAP2 SWAP1 DUP2 DUP2 MSTORE PUSH1 0x20 ADD DUP3 DUP1 SLOAD PUSH2 0x1290 SWAP1 PUSH2 0x2C2F JUMP JUMPDEST DUP1 ISZERO PUSH2 0x12DB JUMPI DUP1 PUSH1 0x1F LT PUSH2 0x12B2 JUMPI PUSH2 0x100 DUP1 DUP4 SLOAD DIV MUL DUP4 MSTORE SWAP2 PUSH1 0x20 ADD SWAP2 PUSH2 0x12DB JUMP JUMPDEST DUP3 ADD SWAP2 SWAP1 PUSH0 MSTORE PUSH1 0x20 PUSH0 KECCAK256 SWAP1 JUMPDEST DUP2 SLOAD DUP2 MSTORE SWAP1 PUSH1 0x1 ADD SWAP1 PUSH1 0x20 ADD DUP1 DUP4 GT PUSH2 0x12BE JUMPI DUP3 SWAP1 SUB PUSH1 0x1F AND DUP3 ADD SWAP2 JUMPDEST POP POP POP POP POP SWAP1 DUP1 PUSH1 0x4 ADD DUP1 SLOAD PUSH2 0x12F0 SWAP1 PUSH2 0x2C2F JUMP JUMPDEST DUP1 PUSH1 0x1F ADD PUSH1 0x20 DUP1 SWAP2 DIV MUL PUSH1 0x20 ADD PUSH1 0x40 MLOAD SWAP1 DUP2 ADD PUSH1 0x40 MSTORE DUP1 SWAP3 SWAP2 SWAP1 DUP2 DUP2 MSTORE PUSH1 0x20 ADD DUP3 DUP1 SLOAD PUSH2 0x131C SWAP1 PUSH2 0x2C2F JUMP JUMPDEST DUP1 ISZERO PUSH2 0x1367 JUMPI DUP1 PUSH1 0x1F LT PUSH2 0x133E JUMPI PUSH2 0x100 DUP1 DUP4 SLOAD DIV MUL DUP4 MSTORE SWAP2 PUSH1 0x20 ADD SWAP2 PUSH2 0x1367 JUMP JUMPDEST DUP3 ADD SWAP2 SWAP1 PUSH0 MSTORE PUSH1 0x20 PUSH0 KECCAK256 SWAP1 JUMPDEST DUP2 SLOAD DUP2 MSTORE SWAP1 PUSH1 0x1 ADD SWAP1 PUSH1 0x20 ADD DUP1 DUP4 GT PUSH2 0x134A JUMPI DUP3 SWAP1 SUB PUSH1 0x1F AND DUP3 ADD SWAP2 JUMPDEST POP POP POP POP POP SWAP1 DUP1 PUSH1 0x5 ADD SLOAD SWAP1 DUP1 PUSH1 0x6 ADD SLOAD SWAP1 DUP1 PUSH1 0x7 ADD SLOAD SWAP1 DUP1 PUSH1 0x8 ADD PUSH0 SWAP1 SLOAD SWAP1 PUSH2 0x100 EXP SWAP1 DIV PUSH1 0xFF AND SWAP1 DUP1 PUSH1 0x9 ADD SLOAD SWAP1 POP DUP11 JUMP JUMPDEST PUSH0 PUSH1 0x6 PUSH0 CALLER PUSH20 0xFFFFFFFFFFFFFFFFFFFFFFFFFFFFFFFFFFFFFFFF AND PUSH20 0xFFFFFFFFFFFFFFFFFFFFFFFFFFFFFFFFFFFFFFFF AND DUP2 MSTORE PUSH1 0x20 ADD SWAP1 DUP2 MSTORE PUSH1 0x20 ADD PUSH0 KECCAK256 SLOAD SWAP1 POP PUSH0 DUP2 GT PUSH2 0x141E JUMPI PUSH1 0x40 MLOAD PUSH32 0x8C379A000000000000000000000000000000000000000000000000000000000 DUP2 MSTORE PUSH1 0x4 ADD PUSH2 0x1415 SWAP1 PUSH2 0x3130 JUMP JUMPDEST PUSH1 0x40 MLOAD DUP1 SWAP2 SUB SWAP1 REVERT JUMPDEST PUSH0 PUSH1 0x6 PUSH0 CALLER PUSH20 0xFFFFFFFFFFFFFFFFFFFFFFFFFFFFFFFFFFFFFFFF AND PUSH20 0xFFFFFFFFFFFFFFFFFFFFFFFFFFFFFFFFFFFFFFFF AND DUP2 MSTORE PUSH1 0x20 ADD SWAP1 DUP2 MSTORE PUSH1 0x20 ADD PUSH0 KECCAK256 DUP2 SWAP1 SSTORE POP CALLER PUSH20 0xFFFFFFFFFFFFFFFFFFFFFFFFFFFFFFFFFFFFFFFF AND PUSH2 0x8FC DUP3 SWAP1 DUP2 ISZERO MUL SWAP1 PUSH1 0x40 MLOAD PUSH0 PUSH1 0x40 MLOAD DUP1 DUP4 SUB DUP2 DUP6 DUP9 DUP9 CALL SWAP4 POP POP POP POP ISZERO DUP1 ISZERO PUSH2 0x14A3 JUMPI RETURNDATASIZE PUSH0 DUP1 RETURNDATACOPY RETURNDATASIZE PUSH0 REVERT JUMPDEST POP POP JUMP JUMPDEST PUSH2 0x14AF PUSH2 0x2147 JUMP JUMPDEST PUSH0 PUSH20 0xFFFFFFFFFFFFFFFFFFFFFFFFFFFFFFFFFFFFFFFF AND PUSH1 0x5 PUSH0 DUP6 DUP2 MSTORE PUSH1 0x20 ADD SWAP1 DUP2 MSTORE PUSH1 0x20 ADD PUSH0 KECCAK256 PUSH0 DUP5 DUP2 MSTORE PUSH1 0x20 ADD SWAP1 DUP2 MSTORE PUSH1 0x20 ADD PUSH0 KECCAK256 PUSH1 0x1 ADD PUSH0 SWAP1 SLOAD SWAP1 PUSH2 0x100 EXP SWAP1 DIV PUSH20 0xFFFFFFFFFFFFFFFFFFFFFFFFFFFFFFFFFFFFFFFF AND PUSH20 0xFFFFFFFFFFFFFFFFFFFFFFFFFFFFFFFFFFFFFFFF AND SUB PUSH2 0x155F JUMPI PUSH1 0x40 MLOAD PUSH32 0x8C379A000000000000000000000000000000000000000000000000000000000 DUP2 MSTORE PUSH1 0x4 ADD PUSH2 0x1556 SWAP1 PUSH2 0x3198 JUMP JUMPDEST PUSH1 0x40 MLOAD DUP1 SWAP2 SUB SWAP1 REVERT JUMPDEST PUSH1 0x5 PUSH0 DUP5 DUP2 MSTORE PUSH1 0x20 ADD SWAP1 DUP2 MSTORE PUSH1 0x20 ADD PUSH0 KECCAK256 PUSH0 DUP4 DUP2 MSTORE PUSH1 0x20 ADD SWAP1 DUP2 MSTORE PUSH1 0x20 ADD PUSH0 KECCAK256 PUSH1 0x40 MLOAD DUP1 PUSH1 0xC0 ADD PUSH1 0x40 MSTORE SWAP1 DUP2 PUSH0 DUP3 ADD SLOAD DUP2 MSTORE PUSH1 0x20 ADD PUSH1 0x1 DUP3 ADD PUSH0 SWAP1 SLOAD SWAP1 PUSH2 0x100 EXP SWAP1 DIV PUSH20 0xFFFFFFFFFFFFFFFFFFFFFFFFFFFFFFFFFFFFFFFF AND PUSH20 0xFFFFFFFFFFFFFFFFFFFFFFFFFFFFFFFFFFFFFFFF AND PUSH20 0xFFFFFFFFFFFFFFFFFFFFFFFFFFFFFFFFFFFFFFFF AND DUP2 MSTORE PUSH1 0x20 ADD PUSH1 0x2 DUP3 ADD DUP1 SLOAD PUSH2 0x15F8 SWAP1 PUSH2 0x2C2F JUMP JUMPDEST DUP1 PUSH1 0x1F ADD PUSH1 0x20 DUP1 SWAP2 DIV MUL PUSH1 0x20 ADD PUSH1 0x40 MLOAD SWAP1 DUP2 ADD PUSH1 0x40 MSTORE DUP1 SWAP3 SWAP2 SWAP1 DUP2 DUP2 MSTORE PUSH1 0x20 ADD DUP3 DUP1 SLOAD PUSH2 0x1624 SWAP1 PUSH2 0x2C2F JUMP JUMPDEST DUP1 ISZERO PUSH2 0x166F JUMPI DUP1 PUSH1 0x1F LT PUSH2 0x1646 JUMPI PUSH2 0x100 DUP1 DUP4 SLOAD DIV MUL DUP4 MSTORE SWAP2 PUSH1 0x20 ADD SWAP2 PUSH2 0x166F JUMP JUMPDEST DUP3 ADD SWAP2 SWAP1 PUSH0 MSTORE PUSH1 0x20 PUSH0 KECCAK256 SWAP1 JUMPDEST DUP2 SLOAD DUP2 MSTORE SWAP1 PUSH1 0x1 ADD SWAP1 PUSH1 0x20 ADD DUP1 DUP4 GT PUSH2 0x1652 JUMPI DUP3 SWAP1 SUB PUSH1 0x1F AND DUP3 ADD SWAP2 JUMPDEST POP POP POP POP POP DUP2 MSTORE PUSH1 0x20 ADD PUSH1 0x3 DUP3 ADD SLOAD DUP2 MSTORE PUSH1 0x20 ADD PUSH1 0x4 DUP3 ADD SLOAD DUP2 MSTORE PUSH1 0x20 ADD PUSH1 0x5 DUP3 ADD SLOAD DUP2 MSTORE POP POP SWAP1 POP SWAP3 SWAP2 POP POP JUMP JUMPDEST PUSH1 0x60 PUSH0 PUSH1 0x2 SLOAD PUSH8 0xFFFFFFFFFFFFFFFF DUP2 GT ISZERO PUSH2 0x16BD JUMPI PUSH2 0x16BC PUSH2 0x228C JUMP JUMPDEST JUMPDEST PUSH1 0x40 MLOAD SWAP1 DUP1 DUP3 MSTORE DUP1 PUSH1 0x20 MUL PUSH1 0x20 ADD DUP3 ADD PUSH1 0x40 MSTORE DUP1 ISZERO PUSH2 0x16EB JUMPI DUP2 PUSH1 0x20 ADD PUSH1 0x20 DUP3 MUL DUP1 CALLDATASIZE DUP4 CALLDATACOPY DUP1 DUP3 ADD SWAP2 POP POP SWAP1 POP JUMPDEST POP SWAP1 POP PUSH0 DUP1 JUMPDEST PUSH1 0x2 SLOAD DUP2 LT ISZERO PUSH2 0x176D JUMPI DUP5 DUP1 MLOAD SWAP1 PUSH1 0x20 ADD KECCAK256 PUSH1 0x4 PUSH0 DUP4 DUP2 MSTORE PUSH1 0x20 ADD SWAP1 DUP2 MSTORE PUSH1 0x20 ADD PUSH0 KECCAK256 PUSH1 0x4 ADD PUSH1 0x40 MLOAD PUSH2 0x1724 SWAP2 SWAP1 PUSH2 0x3252 JUMP JUMPDEST PUSH1 0x40 MLOAD DUP1 SWAP2 SUB SWAP1 KECCAK256 SUB PUSH2 0x1760 JUMPI DUP1 DUP4 DUP4 DUP2 MLOAD DUP2 LT PUSH2 0x1745 JUMPI PUSH2 0x1744 PUSH2 0x3268 JUMP JUMPDEST JUMPDEST PUSH1 0x20 MUL PUSH1 0x20 ADD ADD DUP2 DUP2 MSTORE POP POP DUP2 DUP1 PUSH2 0x175C SWAP1 PUSH2 0x2CF4 JUMP JUMPDEST SWAP3 POP POP JUMPDEST DUP1 DUP1 PUSH1 0x1 ADD SWAP2 POP POP PUSH2 0x16F1 JUMP JUMPDEST POP PUSH0 DUP2 PUSH8 0xFFFFFFFFFFFFFFFF DUP2 GT ISZERO PUSH2 0x1789 JUMPI PUSH2 0x1788 PUSH2 0x228C JUMP JUMPDEST JUMPDEST PUSH1 0x40 MLOAD SWAP1 DUP1 DUP3 MSTORE DUP1 PUSH1 0x20 MUL PUSH1 0x20 ADD DUP3 ADD PUSH1 0x40 MSTORE DUP1 ISZERO PUSH2 0x17B7 JUMPI DUP2 PUSH1 0x20 ADD PUSH1 0x20 DUP3 MUL DUP1 CALLDATASIZE DUP4 CALLDATACOPY DUP1 DUP3 ADD SWAP2 POP POP SWAP1 POP JUMPDEST POP SWAP1 POP PUSH0 JUMPDEST DUP3 DUP2 LT ISZERO PUSH2 0x180B JUMPI DUP4 DUP2 DUP2 MLOAD DUP2 LT PUSH2 0x17D7 JUMPI PUSH2 0x17D6 PUSH2 0x3268 JUMP JUMPDEST JUMPDEST PUSH1 0x20 MUL PUSH1 0x20 ADD ADD MLOAD DUP3 DUP3 DUP2 MLOAD DUP2 LT PUSH2 0x17F2 JUMPI PUSH2 0x17F1 PUSH2 0x3268 JUMP JUMPDEST JUMPDEST PUSH1 0x20 MUL PUSH1 0x20 ADD ADD DUP2 DUP2 MSTORE POP POP DUP1 DUP1 PUSH1 0x1 ADD SWAP2 POP POP PUSH2 0x17BC JUMP JUMPDEST POP DUP1 SWAP4 POP POP POP POP SWAP2 SWAP1 POP JUMP JUMPDEST PUSH0 CALLVALUE GT PUSH2 0x1859 JUMPI PUSH1 0x40 MLOAD PUSH32 0x8C379A000000000000000000000000000000000000000000000000000000000 DUP2 MSTORE PUSH1 0x4 ADD PUSH2 0x1850 SWAP1 PUSH2 0x32DF JUMP JUMPDEST PUSH1 0x40 MLOAD DUP1 SWAP2 SUB SWAP1 REVERT JUMPDEST PUSH0 DUP3 MLOAD GT PUSH2 0x189C JUMPI PUSH1 0x40 MLOAD PUSH32 0x8C379A000000000000000000000000000000000000000000000000000000000 DUP2 MSTORE PUSH1 0x4 ADD PUSH2 0x1893 SWAP1 PUSH2 0x3347 JUMP JUMPDEST PUSH1 0x40 MLOAD DUP1 SWAP2 SUB SWAP1 REVERT JUMPDEST PUSH0 DUP1 PUSH1 0x2 DUP2 GT ISZERO PUSH2 0x18B0 JUMPI PUSH2 0x18AF PUSH2 0x3365 JUMP JUMPDEST JUMPDEST DUP3 PUSH1 0x2 DUP2 GT ISZERO PUSH2 0x18C3 JUMPI PUSH2 0x18C2 PUSH2 0x3365 JUMP JUMPDEST JUMPDEST SUB PUSH2 0x18DE JUMPI PUSH3 0x93A80 TIMESTAMP PUSH2 0x18D7 SWAP2 SWAP1 PUSH2 0x30B3 JUMP JUMPDEST SWAP1 POP PUSH2 0x195F JUMP JUMPDEST PUSH1 0x1 PUSH1 0x2 DUP2 GT ISZERO PUSH2 0x18F2 JUMPI PUSH2 0x18F1 PUSH2 0x3365 JUMP JUMPDEST JUMPDEST DUP3 PUSH1 0x2 DUP2 GT ISZERO PUSH2 0x1905 JUMPI PUSH2 0x1904 PUSH2 0x3365 JUMP JUMPDEST JUMPDEST SUB PUSH2 0x1920 JUMPI PUSH3 0x127500 TIMESTAMP PUSH2 0x1919 SWAP2 SWAP1 PUSH2 0x30B3 JUMP JUMPDEST SWAP1 POP PUSH2 0x195E JUMP JUMPDEST PUSH1 0x2 DUP1 DUP2 GT ISZERO PUSH2 0x1933 JUMPI PUSH2 0x1932 PUSH2 0x3365 JUMP JUMPDEST JUMPDEST DUP3 PUSH1 0x2 DUP2 GT ISZERO PUSH2 0x1946 JUMPI PUSH2 0x1945 PUSH2 0x3365 JUMP JUMPDEST JUMPDEST SUB PUSH2 0x195D JUMPI PUSH3 0x278D00 TIMESTAMP PUSH2 0x195A SWAP2 SWAP1 PUSH2 0x30B3 JUMP JUMPDEST SWAP1 POP JUMPDEST JUMPDEST JUMPDEST PUSH0 PUSH1 0x2 PUSH0 DUP2 SLOAD DUP1 SWAP3 SWAP2 SWAP1 PUSH2 0x1972 SWAP1 PUSH2 0x2CF4 JUMP JUMPDEST SWAP2 SWAP1 POP SSTORE SWAP1 POP PUSH1 0x40 MLOAD DUP1 PUSH2 0x140 ADD PUSH1 0x40 MSTORE DUP1 DUP3 DUP2 MSTORE PUSH1 0x20 ADD CALLER PUSH20 0xFFFFFFFFFFFFFFFFFFFFFFFFFFFFFFFFFFFFFFFF AND DUP2 MSTORE PUSH1 0x20 ADD DUP8 DUP2 MSTORE PUSH1 0x20 ADD DUP7 DUP2 MSTORE PUSH1 0x20 ADD DUP6 DUP2 MSTORE PUSH1 0x20 ADD CALLVALUE DUP2 MSTORE PUSH1 0x20 ADD TIMESTAMP DUP2 MSTORE PUSH1 0x20 ADD DUP4 DUP2 MSTORE PUSH1 0x20 ADD PUSH0 ISZERO ISZERO DUP2 MSTORE PUSH1 0x20 ADD PUSH0 DUP2 MSTORE POP PUSH1 0x4 PUSH0 DUP4 DUP2 MSTORE PUSH1 0x20 ADD SWAP1 DUP2 MSTORE PUSH1 0x20 ADD PUSH0 KECCAK256 PUSH0 DUP3 ADD MLOAD DUP2 PUSH0 ADD SSTORE PUSH1 0x20 DUP3 ADD MLOAD DUP2 PUSH1 0x1 ADD PUSH0 PUSH2 0x100 EXP DUP2 SLOAD DUP2 PUSH20 0xFFFFFFFFFFFFFFFFFFFFFFFFFFFFFFFFFFFFFFFF MUL NOT AND SWAP1 DUP4 PUSH20 0xFFFFFFFFFFFFFFFFFFFFFFFFFFFFFFFFFFFFFFFF AND MUL OR SWAP1 SSTORE POP PUSH1 0x40 DUP3 ADD MLOAD DUP2 PUSH1 0x2 ADD SWAP1 DUP2 PUSH2 0x1A4A SWAP2 SWAP1 PUSH2 0x2ED8 JUMP JUMPDEST POP PUSH1 0x60 DUP3 ADD MLOAD DUP2 PUSH1 0x3 ADD SWAP1 DUP2 PUSH2 0x1A60 SWAP2 SWAP1 PUSH2 0x2ED8 JUMP JUMPDEST POP PUSH1 0x80 DUP3 ADD MLOAD DUP2 PUSH1 0x4 ADD SWAP1 DUP2 PUSH2 0x1A76 SWAP2 SWAP1 PUSH2 0x2ED8 JUMP JUMPDEST POP PUSH1 0xA0 DUP3 ADD MLOAD DUP2 PUSH1 0x5 ADD SSTORE PUSH1 0xC0 DUP3 ADD MLOAD DUP2 PUSH1 0x6 ADD SSTORE PUSH1 0xE0 DUP3 ADD MLOAD DUP2 PUSH1 0x7 ADD SSTORE PUSH2 0x100 DUP3 ADD MLOAD DUP2 PUSH1 0x8 ADD PUSH0 PUSH2 0x100 EXP DUP2 SLOAD DUP2 PUSH1 0xFF MUL NOT AND SWAP1 DUP4 ISZERO ISZERO MUL OR SWAP1 SSTORE POP PUSH2 0x120 DUP3 ADD MLOAD DUP2 PUSH1 0x9 ADD SSTORE SWAP1 POP POP CALLER PUSH20 0xFFFFFFFFFFFFFFFFFFFFFFFFFFFFFFFFFFFFFFFF AND PUSH32 0xB8105899D34D8481E717A601E8D7A732C27B0AB23778E01145F2F3EB24A1120C DUP3 DUP9 CALLVALUE DUP9 PUSH1 0x40 MLOAD PUSH2 0x1B0F SWAP5 SWAP4 SWAP3 SWAP2 SWAP1 PUSH2 0x3392 JUMP JUMPDEST PUSH1 0x40 MLOAD DUP1 SWAP2 SUB SWAP1 LOG2 POP POP POP POP POP POP JUMP JUMPDEST DUP1 PUSH0 PUSH20 0xFFFFFFFFFFFFFFFFFFFFFFFFFFFFFFFFFFFFFFFF AND PUSH1 0x4 PUSH0 DUP4 DUP2 MSTORE PUSH1 0x20 ADD SWAP1 DUP2 MSTORE PUSH1 0x20 ADD PUSH0 KECCAK256 PUSH1 0x1 ADD PUSH0 SWAP1 SLOAD SWAP1 PUSH2 0x100 EXP SWAP1 DIV PUSH20 0xFFFFFFFFFFFFFFFFFFFFFFFFFFFFFFFFFFFFFFFF AND PUSH20 0xFFFFFFFFFFFFFFFFFFFFFFFFFFFFFFFFFFFFFFFF AND SUB PUSH2 0x1BC1 JUMPI PUSH1 0x40 MLOAD PUSH32 0x8C379A000000000000000000000000000000000000000000000000000000000 DUP2 MSTORE PUSH1 0x4 ADD PUSH2 0x1BB8 SWAP1 PUSH2 0x2AED JUMP JUMPDEST PUSH1 0x40 MLOAD DUP1 SWAP2 SUB SWAP1 REVERT JUMPDEST PUSH0 PUSH1 0x4 PUSH0 DUP5 DUP2 MSTORE PUSH1 0x20 ADD SWAP1 DUP2 MSTORE PUSH1 0x20 ADD PUSH0 KECCAK256 SWAP1 POP DUP1 PUSH1 0x7 ADD SLOAD TIMESTAMP GT PUSH2 0x1C1B JUMPI PUSH1 0x40 MLOAD PUSH32 0x8C379A000000000000000000000000000000000000000000000000000000000 DUP2 MSTORE PUSH1 0x4 ADD PUSH2 0x1C12 SWAP1 PUSH2 0x3453 JUMP JUMPDEST PUSH1 0x40 MLOAD DUP1 SWAP2 SUB SWAP1 REVERT JUMPDEST DUP1 PUSH1 0x8 ADD PUSH0 SWAP1 SLOAD SWAP1 PUSH2 0x100 EXP SWAP1 DIV PUSH1 0xFF AND ISZERO PUSH2 0x1C6C JUMPI PUSH1 0x40 MLOAD PUSH32 0x8C379A000000000000000000000000000000000000000000000000000000000 DUP2 MSTORE PUSH1 0x4 ADD PUSH2 0x1C63 SWAP1 PUSH2 0x2B55 JUMP JUMPDEST PUSH1 0x40 MLOAD DUP1 SWAP2 SUB SWAP1 REVERT JUMPDEST PUSH0 DUP1 DUP3 PUSH1 0x5 ADD SLOAD SWAP1 POP PUSH0 JUMPDEST PUSH1 0x3 SLOAD DUP2 LT ISZERO PUSH2 0x1CBF JUMPI PUSH1 0x5 PUSH0 DUP8 DUP2 MSTORE PUSH1 0x20 ADD SWAP1 DUP2 MSTORE PUSH1 0x20 ADD PUSH0 KECCAK256 PUSH0 DUP3 DUP2 MSTORE PUSH1 0x20 ADD SWAP1 DUP2 MSTORE PUSH1 0x20 ADD PUSH0 KECCAK256 PUSH1 0x3 ADD SLOAD DUP4 PUSH2 0x1CB0 SWAP2 SWAP1 PUSH2 0x30B3 JUMP JUMPDEST SWAP3 POP DUP1 DUP1 PUSH1 0x1 ADD SWAP2 POP POP PUSH2 0x1C77 JUMP JUMPDEST POP PUSH0 JUMPDEST PUSH1 0x3 SLOAD DUP2 LT ISZERO PUSH2 0x1DB5 JUMPI PUSH0 PUSH1 0x5 PUSH0 DUP9 DUP2 MSTORE PUSH1 0x20 ADD SWAP1 DUP2 MSTORE PUSH1 0x20 ADD PUSH0 KECCAK256 PUSH0 DUP4 DUP2 MSTORE PUSH1 0x20 ADD SWAP1 DUP2 MSTORE PUSH1 0x20 ADD PUSH0 KECCAK256 SWAP1 POP PUSH0 DUP5 GT ISZERO PUSH2 0x1DA7 JUMPI PUSH0 DUP5 DUP5 DUP4 PUSH1 0x3 ADD SLOAD PUSH2 0x1D09 SWAP2 SWAP1 PUSH2 0x3471 JUMP JUMPDEST PUSH2 0x1D13 SWAP2 SWAP1 PUSH2 0x34DF JUMP JUMPDEST SWAP1 POP DUP1 DUP3 PUSH1 0x4 ADD PUSH0 DUP3 DUP3 SLOAD PUSH2 0x1D28 SWAP2 SWAP1 PUSH2 0x30B3 JUMP JUMPDEST SWAP3 POP POP DUP2 SWAP1 SSTORE POP DUP1 PUSH1 0x6 PUSH0 DUP5 PUSH1 0x1 ADD PUSH0 SWAP1 SLOAD SWAP1 PUSH2 0x100 EXP SWAP1 DIV PUSH20 0xFFFFFFFFFFFFFFFFFFFFFFFFFFFFFFFFFFFFFFFF AND PUSH20 0xFFFFFFFFFFFFFFFFFFFFFFFFFFFFFFFFFFFFFFFF AND PUSH20 0xFFFFFFFFFFFFFFFFFFFFFFFFFFFFFFFFFFFFFFFF AND DUP2 MSTORE PUSH1 0x20 ADD SWAP1 DUP2 MSTORE PUSH1 0x20 ADD PUSH0 KECCAK256 PUSH0 DUP3 DUP3 SLOAD PUSH2 0x1D9E SWAP2 SWAP1 PUSH2 0x30B3 JUMP JUMPDEST SWAP3 POP POP DUP2 SWAP1 SSTORE POP POP JUMPDEST POP DUP1 DUP1 PUSH1 0x1 ADD SWAP2 POP POP PUSH2 0x1CC2 JUMP JUMPDEST POP PUSH1 0x1 DUP4 PUSH1 0x8 ADD PUSH0 PUSH2 0x100 EXP DUP2 SLOAD DUP2 PUSH1 0xFF MUL NOT AND SWAP1 DUP4 ISZERO ISZERO MUL OR SWAP1 SSTORE POP POP POP POP POP POP JUMP JUMPDEST PUSH1 0x2 SLOAD DUP2 JUMP JUMPDEST PUSH0 DUP1 SLOAD SWAP1 PUSH2 0x100 EXP SWAP1 DIV PUSH20 0xFFFFFFFFFFFFFFFFFFFFFFFFFFFFFFFFFFFFFFFF AND DUP2 JUMP JUMPDEST PUSH3 0x127500 DUP2 JUMP JUMPDEST PUSH0 SELFBALANCE SWAP1 POP SWAP1 JUMP JUMPDEST PUSH1 0x3 SLOAD DUP2 JUMP JUMPDEST PUSH3 0x278D00 DUP2 JUMP JUMPDEST PUSH1 0x1 SLOAD DUP2 JUMP JUMPDEST PUSH2 0x1E2B PUSH2 0x218E JUMP JUMPDEST PUSH0 PUSH20 0xFFFFFFFFFFFFFFFFFFFFFFFFFFFFFFFFFFFFFFFF AND PUSH1 0x4 PUSH0 DUP5 DUP2 MSTORE PUSH1 0x20 ADD SWAP1 DUP2 MSTORE PUSH1 0x20 ADD PUSH0 KECCAK256 PUSH1 0x1 ADD PUSH0 SWAP1 SLOAD SWAP1 PUSH2 0x100 EXP SWAP1 DIV PUSH20 0xFFFFFFFFFFFFFFFFFFFFFFFFFFFFFFFFFFFFFFFF AND PUSH20 0xFFFFFFFFFFFFFFFFFFFFFFFFFFFFFFFFFFFFFFFF AND SUB PUSH2 0x1ECC JUMPI PUSH1 0x40 MLOAD PUSH32 0x8C379A000000000000000000000000000000000000000000000000000000000 DUP2 MSTORE PUSH1 0x4 ADD PUSH2 0x1EC3 SWAP1 PUSH2 0x2AED JUMP JUMPDEST PUSH1 0x40 MLOAD DUP1 SWAP2 SUB SWAP1 REVERT JUMPDEST PUSH1 0x4 PUSH0 DUP4 DUP2 MSTORE PUSH1 0x20 ADD SWAP1 DUP2 MSTORE PUSH1 0x20 ADD PUSH0 KECCAK256 PUSH1 0x40 MLOAD DUP1 PUSH2 0x140 ADD PUSH1 0x40 MSTORE SWAP1 DUP2 PUSH0 DUP3 ADD SLOAD DUP2 MSTORE PUSH1 0x20 ADD PUSH1 0x1 DUP3 ADD PUSH0 SWAP1 SLOAD SWAP1 PUSH2 0x100 EXP SWAP1 DIV PUSH20 0xFFFFFFFFFFFFFFFFFFFFFFFFFFFFFFFFFFFFFFFF AND PUSH20 0xFFFFFFFFFFFFFFFFFFFFFFFFFFFFFFFFFFFFFFFF AND PUSH20 0xFFFFFFFFFFFFFFFFFFFFFFFFFFFFFFFFFFFFFFFF AND DUP2 MSTORE PUSH1 0x20 ADD PUSH1 0x2 DUP3 ADD DUP1 SLOAD PUSH2 0x1F57 SWAP1 PUSH2 0x2C2F JUMP JUMPDEST DUP1 PUSH1 0x1F ADD PUSH1 0x20 DUP1 SWAP2 DIV MUL PUSH1 0x20 ADD PUSH1 0x40 MLOAD SWAP1 DUP2 ADD PUSH1 0x40 MSTORE DUP1 SWAP3 SWAP2 SWAP1 DUP2 DUP2 MSTORE PUSH1 0x20 ADD DUP3 DUP1 SLOAD PUSH2 0x1F83 SWAP1 PUSH2 0x2C2F JUMP JUMPDEST DUP1 ISZERO PUSH2 0x1FCE JUMPI DUP1 PUSH1 0x1F LT PUSH2 0x1FA5 JUMPI PUSH2 0x100 DUP1 DUP4 SLOAD DIV MUL DUP4 MSTORE SWAP2 PUSH1 0x20 ADD SWAP2 PUSH2 0x1FCE JUMP JUMPDEST DUP3 ADD SWAP2 SWAP1 PUSH0 MSTORE PUSH1 0x20 PUSH0 KECCAK256 SWAP1 JUMPDEST DUP2 SLOAD DUP2 MSTORE SWAP1 PUSH1 0x1 ADD SWAP1 PUSH1 0x20 ADD DUP1 DUP4 GT PUSH2 0x1FB1 JUMPI DUP3 SWAP1 SUB PUSH1 0x1F AND DUP3 ADD SWAP2 JUMPDEST POP POP POP POP POP DUP2 MSTORE PUSH1 0x20 ADD PUSH1 0x3 DUP3 ADD DUP1 SLOAD PUSH2 0x1FE7 SWAP1 PUSH2 0x2C2F JUMP JUMPDEST DUP1 PUSH1 0x1F ADD PUSH1 0x20 DUP1 SWAP2 DIV MUL PUSH1 0x20 ADD PUSH1 0x40 MLOAD SWAP1 DUP2 ADD PUSH1 0x40 MSTORE DUP1 SWAP3 SWAP2 SWAP1 DUP2 DUP2 MSTORE PUSH1 0x20 ADD DUP3 DUP1 SLOAD PUSH2 0x2013 SWAP1 PUSH2 0x2C2F JUMP JUMPDEST DUP1 ISZERO PUSH2 0x205E JUMPI DUP1 PUSH1 0x1F LT PUSH2 0x2035 JUMPI PUSH2 0x100 DUP1 DUP4 SLOAD DIV MUL DUP4 MSTORE SWAP2 PUSH1 0x20 ADD SWAP2 PUSH2 0x205E JUMP JUMPDEST DUP3 ADD SWAP2 SWAP1 PUSH0 MSTORE PUSH1 0x20 PUSH0 KECCAK256 SWAP1 JUMPDEST DUP2 SLOAD DUP2 MSTORE SWAP1 PUSH1 0x1 ADD SWAP1 PUSH1 0x20 ADD DUP1 DUP4 GT PUSH2 0x2041 JUMPI DUP3 SWAP1 SUB PUSH1 0x1F AND DUP3 ADD SWAP2 JUMPDEST POP POP POP POP POP DUP2 MSTORE PUSH1 0x20 ADD PUSH1 0x4 DUP3 ADD DUP1 SLOAD PUSH2 0x2077 SWAP1 PUSH2 0x2C2F JUMP JUMPDEST DUP1 PUSH1 0x1F ADD PUSH1 0x20 DUP1 SWAP2 DIV MUL PUSH1 0x20 ADD PUSH1 0x40 MLOAD SWAP1 DUP2 ADD PUSH1 0x40 MSTORE DUP1 SWAP3 SWAP2 SWAP1 DUP2 DUP2 MSTORE PUSH1 0x20 ADD DUP3 DUP1 SLOAD PUSH2 0x20A3 SWAP1 PUSH2 0x2C2F JUMP JUMPDEST DUP1 ISZERO PUSH2 0x20EE JUMPI DUP1 PUSH1 0x1F LT PUSH2 0x20C5 JUMPI PUSH2 0x100 DUP1 DUP4 SLOAD DIV MUL DUP4 MSTORE SWAP2 PUSH1 0x20 ADD SWAP2 PUSH2 0x20EE JUMP JUMPDEST DUP3 ADD SWAP2 SWAP1 PUSH0 MSTORE PUSH1 0x20 PUSH0 KECCAK256 SWAP1 JUMPDEST DUP2 SLOAD DUP2 MSTORE SWAP1 PUSH1 0x1 ADD SWAP1 PUSH1 0x20 ADD DUP1 DUP4 GT PUSH2 0x20D1 JUMPI DUP3 SWAP1 SUB PUSH1 0x1F AND DUP3 ADD SWAP2 JUMPDEST POP POP POP POP POP DUP2 MSTORE PUSH1 0x20 ADD PUSH1 0x5 DUP3 ADD SLOAD DUP2 MSTORE PUSH1 0x20 ADD PUSH1 0x6 DUP3 ADD SLOAD DUP2 MSTORE PUSH1 0x20 ADD PUSH1 0x7 DUP3 ADD SLOAD DUP2 MSTORE PUSH1 0x20 ADD PUSH1 0x8 DUP3 ADD PUSH0 SWAP1 SLOAD SWAP1 PUSH2 0x100 EXP SWAP1 DIV PUSH1 0xFF AND ISZERO ISZERO ISZERO ISZERO DUP2 MSTORE PUSH1 0x20 ADD PUSH1 0x9 DUP3 ADD SLOAD DUP2 MSTORE POP POP SWAP1 POP SWAP2 SWAP1 POP JUMP JUMPDEST PUSH3 0x93A80 DUP2 JUMP JUMPDEST PUSH1 0x40 MLOAD DUP1 PUSH1 0xC0 ADD PUSH1 0x40 MSTORE DUP1 PUSH0 DUP2 MSTORE PUSH1 0x20 ADD PUSH0 PUSH20 0xFFFFFFFFFFFFFFFFFFFFFFFFFFFFFFFFFFFFFFFF AND DUP2 MSTORE PUSH1 0x20 ADD PUSH1 0x60 DUP2 MSTORE PUSH1 0x20 ADD PUSH0 DUP2 MSTORE PUSH1 0x20 ADD PUSH0 DUP2 MSTORE PUSH1 0x20 ADD PUSH0 DUP2 MSTORE POP SWAP1 JUMP JUMPDEST PUSH1 0x40 MLOAD DUP1 PUSH2 0x140 ADD PUSH1 0x40 MSTORE DUP1 PUSH0 DUP2 MSTORE PUSH1 0x20 ADD PUSH0 PUSH20 0xFFFFFFFFFFFFFFFFFFFFFFFFFFFFFFFFFFFFFFFF AND DUP2 MSTORE PUSH1 0x20 ADD PUSH1 0x60 DUP2 MSTORE PUSH1 0x20 ADD PUSH1 0x60 DUP2 MSTORE PUSH1 0x20 ADD PUSH1 0x60 DUP2 MSTORE PUSH1 0x20 ADD PUSH0 DUP2 MSTORE PUSH1 0x20 ADD PUSH0 DUP2 MSTORE PUSH1 0x20 ADD PUSH0 DUP2 MSTORE PUSH1 0x20 ADD PUSH0 ISZERO ISZERO DUP2 MSTORE PUSH1 0x20 ADD PUSH0 DUP2 MSTORE POP SWAP1 JUMP JUMPDEST PUSH0 PUSH1 0x40 MLOAD SWAP1 POP SWAP1 JUMP JUMPDEST PUSH0 DUP1 REVERT JUMPDEST PUSH0 DUP1 REVERT JUMPDEST PUSH0 DUP2 SWAP1 POP SWAP2 SWAP1 POP JUMP JUMPDEST PUSH2 0x2215 DUP2 PUSH2 0x2203 JUMP JUMPDEST DUP2 EQ PUSH2 0x221F JUMPI PUSH0 DUP1 REVERT JUMPDEST POP JUMP JUMPDEST PUSH0 DUP2 CALLDATALOAD SWAP1 POP PUSH2 0x2230 DUP2 PUSH2 0x220C JUMP JUMPDEST SWAP3 SWAP2 POP POP JUMP JUMPDEST PUSH0 DUP1 PUSH1 0x40 DUP4 DUP6 SUB SLT ISZERO PUSH2 0x224C JUMPI PUSH2 0x224B PUSH2 0x21FB JUMP JUMPDEST JUMPDEST PUSH0 PUSH2 0x2259 DUP6 DUP3 DUP7 ADD PUSH2 0x2222 JUMP JUMPDEST SWAP3 POP POP PUSH1 0x20 PUSH2 0x226A DUP6 DUP3 DUP7 ADD PUSH2 0x2222 JUMP JUMPDEST SWAP2 POP POP SWAP3 POP SWAP3 SWAP1 POP JUMP JUMPDEST PUSH0 DUP1 REVERT JUMPDEST PUSH0 DUP1 REVERT JUMPDEST PUSH0 PUSH1 0x1F NOT PUSH1 0x1F DUP4 ADD AND SWAP1 POP SWAP2 SWAP1 POP JUMP JUMPDEST PUSH32 0x4E487B7100000000000000000000000000000000000000000000000000000000 PUSH0 MSTORE PUSH1 0x41 PUSH1 0x4 MSTORE PUSH1 0x24 PUSH0 REVERT JUMPDEST PUSH2 0x22C2 DUP3 PUSH2 0x227C JUMP JUMPDEST DUP2 ADD DUP2 DUP2 LT PUSH8 0xFFFFFFFFFFFFFFFF DUP3 GT OR ISZERO PUSH2 0x22E1 JUMPI PUSH2 0x22E0 PUSH2 0x228C JUMP JUMPDEST JUMPDEST DUP1 PUSH1 0x40 MSTORE POP POP POP JUMP JUMPDEST PUSH0 PUSH2 0x22F3 PUSH2 0x21F2 JUMP JUMPDEST SWAP1 POP PUSH2 0x22FF DUP3 DUP3 PUSH2 0x22B9 JUMP JUMPDEST SWAP2 SWAP1 POP JUMP JUMPDEST PUSH0 PUSH8 0xFFFFFFFFFFFFFFFF DUP3 GT ISZERO PUSH2 0x231E JUMPI PUSH2 0x231D PUSH2 0x228C JUMP JUMPDEST JUMPDEST PUSH2 0x2327 DUP3 PUSH2 0x227C JUMP JUMPDEST SWAP1 POP PUSH1 0x20 DUP2 ADD SWAP1 POP SWAP2 SWAP1 POP JUMP JUMPDEST DUP3 DUP2 DUP4 CALLDATACOPY PUSH0 DUP4 DUP4 ADD MSTORE POP POP POP JUMP JUMPDEST PUSH0 PUSH2 0x2354 PUSH2 0x234F DUP5 PUSH2 0x2304 JUMP JUMPDEST PUSH2 0x22EA JUMP JUMPDEST SWAP1 POP DUP3 DUP2 MSTORE PUSH1 0x20 DUP2 ADD DUP5 DUP5 DUP5 ADD GT ISZERO PUSH2 0x2370 JUMPI PUSH2 0x236F PUSH2 0x2278 JUMP JUMPDEST JUMPDEST PUSH2 0x237B DUP5 DUP3 DUP6 PUSH2 0x2334 JUMP JUMPDEST POP SWAP4 SWAP3 POP POP POP JUMP JUMPDEST PUSH0 DUP3 PUSH1 0x1F DUP4 ADD SLT PUSH2 0x2397 JUMPI PUSH2 0x2396 PUSH2 0x2274 JUMP JUMPDEST JUMPDEST DUP2 CALLDATALOAD PUSH2 0x23A7 DUP5 DUP3 PUSH1 0x20 DUP7 ADD PUSH2 0x2342 JUMP JUMPDEST SWAP2 POP POP SWAP3 SWAP2 POP POP JUMP JUMPDEST PUSH0 DUP1 PUSH1 0x40 DUP4 DUP6 SUB SLT ISZERO PUSH2 0x23C6 JUMPI PUSH2 0x23C5 PUSH2 0x21FB JUMP JUMPDEST JUMPDEST PUSH0 PUSH2 0x23D3 DUP6 DUP3 DUP7 ADD PUSH2 0x2222 JUMP JUMPDEST SWAP3 POP POP PUSH1 0x20 DUP4 ADD CALLDATALOAD PUSH8 0xFFFFFFFFFFFFFFFF DUP2 GT ISZERO PUSH2 0x23F4 JUMPI PUSH2 0x23F3 PUSH2 0x21FF JUMP JUMPDEST JUMPDEST PUSH2 0x2400 DUP6 DUP3 DUP7 ADD PUSH2 0x2383 JUMP JUMPDEST SWAP2 POP POP SWAP3 POP SWAP3 SWAP1 POP JUMP JUMPDEST PUSH2 0x2413 DUP2 PUSH2 0x2203 JUMP JUMPDEST DUP3 MSTORE POP POP JUMP JUMPDEST PUSH0 PUSH20 0xFFFFFFFFFFFFFFFFFFFFFFFFFFFFFFFFFFFFFFFF DUP3 AND SWAP1 POP SWAP2 SWAP1 POP JUMP JUMPDEST PUSH0 PUSH2 0x2442 DUP3 PUSH2 0x2419 JUMP JUMPDEST SWAP1 POP SWAP2 SWAP1 POP JUMP JUMPDEST PUSH2 0x2452 DUP2 PUSH2 0x2438 JUMP JUMPDEST DUP3 MSTORE POP POP JUMP JUMPDEST PUSH0 DUP2 MLOAD SWAP1 POP SWAP2 SWAP1 POP JUMP JUMPDEST PUSH0 DUP3 DUP3 MSTORE PUSH1 0x20 DUP3 ADD SWAP1 POP SWAP3 SWAP2 POP POP JUMP JUMPDEST DUP3 DUP2 DUP4 MCOPY PUSH0 DUP4 DUP4 ADD MSTORE POP POP POP JUMP JUMPDEST PUSH0 PUSH2 0x248A DUP3 PUSH2 0x2458 JUMP JUMPDEST PUSH2 0x2494 DUP2 DUP6 PUSH2 0x2462 JUMP JUMPDEST SWAP4 POP PUSH2 0x24A4 DUP2 DUP6 PUSH1 0x20 DUP7 ADD PUSH2 0x2472 JUMP JUMPDEST PUSH2 0x24AD DUP2 PUSH2 0x227C JUMP JUMPDEST DUP5 ADD SWAP2 POP POP SWAP3 SWAP2 POP POP JUMP JUMPDEST PUSH0 PUSH1 0xC0 DUP3 ADD SWAP1 POP PUSH2 0x24CB PUSH0 DUP4 ADD DUP10 PUSH2 0x240A JUMP JUMPDEST PUSH2 0x24D8 PUSH1 0x20 DUP4 ADD DUP9 PUSH2 0x2449 JUMP JUMPDEST DUP2 DUP2 SUB PUSH1 0x40 DUP4 ADD MSTORE PUSH2 0x24EA DUP2 DUP8 PUSH2 0x2480 JUMP JUMPDEST SWAP1 POP PUSH2 0x24F9 PUSH1 0x60 DUP4 ADD DUP7 PUSH2 0x240A JUMP JUMPDEST PUSH2 0x2506 PUSH1 0x80 DUP4 ADD DUP6 PUSH2 0x240A JUMP JUMPDEST PUSH2 0x2513 PUSH1 0xA0 DUP4 ADD DUP5 PUSH2 0x240A JUMP JUMPDEST SWAP8 SWAP7 POP POP POP POP POP POP POP JUMP JUMPDEST PUSH2 0x2527 DUP2 PUSH2 0x2438 JUMP JUMPDEST DUP2 EQ PUSH2 0x2531 JUMPI PUSH0 DUP1 REVERT JUMPDEST POP JUMP JUMPDEST PUSH0 DUP2 CALLDATALOAD SWAP1 POP PUSH2 0x2542 DUP2 PUSH2 0x251E JUMP JUMPDEST SWAP3 SWAP2 POP POP JUMP JUMPDEST PUSH0 PUSH1 0x20 DUP3 DUP5 SUB SLT ISZERO PUSH2 0x255D JUMPI PUSH2 0x255C PUSH2 0x21FB JUMP JUMPDEST JUMPDEST PUSH0 PUSH2 0x256A DUP5 DUP3 DUP6 ADD PUSH2 0x2534 JUMP JUMPDEST SWAP2 POP POP SWAP3 SWAP2 POP POP JUMP JUMPDEST PUSH0 PUSH1 0x20 DUP3 ADD SWAP1 POP PUSH2 0x2586 PUSH0 DUP4 ADD DUP5 PUSH2 0x240A JUMP JUMPDEST SWAP3 SWAP2 POP POP JUMP JUMPDEST PUSH0 PUSH1 0x20 DUP3 DUP5 SUB SLT ISZERO PUSH2 0x25A1 JUMPI PUSH2 0x25A0 PUSH2 0x21FB JUMP JUMPDEST JUMPDEST PUSH0 PUSH2 0x25AE DUP5 DUP3 DUP6 ADD PUSH2 0x2222 JUMP JUMPDEST SWAP2 POP POP SWAP3 SWAP2 POP POP JUMP JUMPDEST PUSH0 DUP2 ISZERO ISZERO SWAP1 POP SWAP2 SWAP1 POP JUMP JUMPDEST PUSH2 0x25CB DUP2 PUSH2 0x25B7 JUMP JUMPDEST DUP3 MSTORE POP POP JUMP JUMPDEST PUSH0 PUSH2 0x140 DUP3 ADD SWAP1 POP PUSH2 0x25E5 PUSH0 DUP4 ADD DUP14 PUSH2 0x240A JUMP JUMPDEST PUSH2 0x25F2 PUSH1 0x20 DUP4 ADD DUP13 PUSH2 0x2449 JUMP JUMPDEST DUP2 DUP2 SUB PUSH1 0x40 DUP4 ADD MSTORE PUSH2 0x2604 DUP2 DUP12 PUSH2 0x2480 JUMP JUMPDEST SWAP1 POP DUP2 DUP2 SUB PUSH1 0x60 DUP4 ADD MSTORE PUSH2 0x2618 DUP2 DUP11 PUSH2 0x2480 JUMP JUMPDEST SWAP1 POP DUP2 DUP2 SUB PUSH1 0x80 DUP4 ADD MSTORE PUSH2 0x262C DUP2 DUP10 PUSH2 0x2480 JUMP JUMPDEST SWAP1 POP PUSH2 0x263B PUSH1 0xA0 DUP4 ADD DUP9 PUSH2 0x240A JUMP JUMPDEST PUSH2 0x2648 PUSH1 0xC0 DUP4 ADD DUP8 PUSH2 0x240A JUMP JUMPDEST PUSH2 0x2655 PUSH1 0xE0 DUP4 ADD DUP7 PUSH2 0x240A JUMP JUMPDEST PUSH2 0x2663 PUSH2 0x100 DUP4 ADD DUP6 PUSH2 0x25C2 JUMP JUMPDEST PUSH2 0x2671 PUSH2 0x120 DUP4 ADD DUP5 PUSH2 0x240A JUMP JUMPDEST SWAP12 SWAP11 POP POP POP POP POP POP POP POP POP POP POP JUMP JUMPDEST PUSH2 0x2689 DUP2 PUSH2 0x2203 JUMP JUMPDEST DUP3 MSTORE POP POP JUMP JUMPDEST PUSH2 0x2698 DUP2 PUSH2 0x2438 JUMP JUMPDEST DUP3 MSTORE POP POP JUMP JUMPDEST PUSH0 DUP3 DUP3 MSTORE PUSH1 0x20 DUP3 ADD SWAP1 POP SWAP3 SWAP2 POP POP JUMP JUMPDEST PUSH0 PUSH2 0x26B8 DUP3 PUSH2 0x2458 JUMP JUMPDEST PUSH2 0x26C2 DUP2 DUP6 PUSH2 0x269E JUMP JUMPDEST SWAP4 POP PUSH2 0x26D2 DUP2 DUP6 PUSH1 0x20 DUP7 ADD PUSH2 0x2472 JUMP JUMPDEST PUSH2 0x26DB DUP2 PUSH2 0x227C JUMP JUMPDEST DUP5 ADD SWAP2 POP POP SWAP3 SWAP2 POP POP JUMP JUMPDEST PUSH0 PUSH1 0xC0 DUP4 ADD PUSH0 DUP4 ADD MLOAD PUSH2 0x26FB PUSH0 DUP7 ADD DUP3 PUSH2 0x2680 JUMP JUMPDEST POP PUSH1 0x20 DUP4 ADD MLOAD PUSH2 0x270E PUSH1 0x20 DUP7 ADD DUP3 PUSH2 0x268F JUMP JUMPDEST POP PUSH1 0x40 DUP4 ADD MLOAD DUP5 DUP3 SUB PUSH1 0x40 DUP7 ADD MSTORE PUSH2 0x2726 DUP3 DUP3 PUSH2 0x26AE JUMP JUMPDEST SWAP2 POP POP PUSH1 0x60 DUP4 ADD MLOAD PUSH2 0x273B PUSH1 0x60 DUP7 ADD DUP3 PUSH2 0x2680 JUMP JUMPDEST POP PUSH1 0x80 DUP4 ADD MLOAD PUSH2 0x274E PUSH1 0x80 DUP7 ADD DUP3 PUSH2 0x2680 JUMP JUMPDEST POP PUSH1 0xA0 DUP4 ADD MLOAD PUSH2 0x2761 PUSH1 0xA0 DUP7 ADD DUP3 PUSH2 0x2680 JUMP JUMPDEST POP DUP1 SWAP2 POP POP SWAP3 SWAP2 POP POP JUMP JUMPDEST PUSH0 PUSH1 0x20 DUP3 ADD SWAP1 POP DUP2 DUP2 SUB PUSH0 DUP4 ADD MSTORE PUSH2 0x2784 DUP2 DUP5 PUSH2 0x26E6 JUMP JUMPDEST SWAP1 POP SWAP3 SWAP2 POP POP JUMP JUMPDEST PUSH0 PUSH1 0x20 DUP3 DUP5 SUB SLT ISZERO PUSH2 0x27A1 JUMPI PUSH2 0x27A0 PUSH2 0x21FB JUMP JUMPDEST JUMPDEST PUSH0 DUP3 ADD CALLDATALOAD PUSH8 0xFFFFFFFFFFFFFFFF DUP2 GT ISZERO PUSH2 0x27BE JUMPI PUSH2 0x27BD PUSH2 0x21FF JUMP JUMPDEST JUMPDEST PUSH2 0x27CA DUP5 DUP3 DUP6 ADD PUSH2 0x2383 JUMP JUMPDEST SWAP2 POP POP SWAP3 SWAP2 POP POP JUMP JUMPDEST PUSH0 DUP2 MLOAD SWAP1 POP SWAP2 SWAP1 POP JUMP JUMPDEST PUSH0 DUP3 DUP3 MSTORE PUSH1 0x20 DUP3 ADD SWAP1 POP SWAP3 SWAP2 POP POP JUMP JUMPDEST PUSH0 DUP2 SWAP1 POP PUSH1 0x20 DUP3 ADD SWAP1 POP SWAP2 SWAP1 POP JUMP JUMPDEST PUSH0 PUSH2 0x2807 DUP4 DUP4 PUSH2 0x2680 JUMP JUMPDEST PUSH1 0x20 DUP4 ADD SWAP1 POP SWAP3 SWAP2 POP POP JUMP JUMPDEST PUSH0 PUSH1 0x20 DUP3 ADD SWAP1 POP SWAP2 SWAP1 POP JUMP JUMPDEST PUSH0 PUSH2 0x2829 DUP3 PUSH2 0x27D3 JUMP JUMPDEST PUSH2 0x2833 DUP2 DUP6 PUSH2 0x27DD JUMP JUMPDEST SWAP4 POP PUSH2 0x283E DUP4 PUSH2 0x27ED JUMP JUMPDEST DUP1 PUSH0 JUMPDEST DUP4 DUP2 LT ISZERO PUSH2 0x286E JUMPI DUP2 MLOAD PUSH2 0x2855 DUP9 DUP3 PUSH2 0x27FC JUMP JUMPDEST SWAP8 POP PUSH2 0x2860 DUP4 PUSH2 0x2813 JUMP JUMPDEST SWAP3 POP POP PUSH1 0x1 DUP2 ADD SWAP1 POP PUSH2 0x2841 JUMP JUMPDEST POP DUP6 SWAP4 POP POP POP POP SWAP3 SWAP2 POP POP JUMP JUMPDEST PUSH0 PUSH1 0x20 DUP3 ADD SWAP1 POP DUP2 DUP2 SUB PUSH0 DUP4 ADD MSTORE PUSH2 0x2893 DUP2 DUP5 PUSH2 0x281F JUMP JUMPDEST SWAP1 POP SWAP3 SWAP2 POP POP JUMP JUMPDEST PUSH1 0x3 DUP2 LT PUSH2 0x28A7 JUMPI PUSH0 DUP1 REVERT JUMPDEST POP JUMP JUMPDEST PUSH0 DUP2 CALLDATALOAD SWAP1 POP PUSH2 0x28B8 DUP2 PUSH2 0x289B JUMP JUMPDEST SWAP3 SWAP2 POP POP JUMP JUMPDEST PUSH0 DUP1 PUSH0 DUP1 PUSH1 0x80 DUP6 DUP8 SUB SLT ISZERO PUSH2 0x28D6 JUMPI PUSH2 0x28D5 PUSH2 0x21FB JUMP JUMPDEST JUMPDEST PUSH0 DUP6 ADD CALLDATALOAD PUSH8 0xFFFFFFFFFFFFFFFF DUP2 GT ISZERO PUSH2 0x28F3 JUMPI PUSH2 0x28F2 PUSH2 0x21FF JUMP JUMPDEST JUMPDEST PUSH2 0x28FF DUP8 DUP3 DUP9 ADD PUSH2 0x2383 JUMP JUMPDEST SWAP5 POP POP PUSH1 0x20 DUP6 ADD CALLDATALOAD PUSH8 0xFFFFFFFFFFFFFFFF DUP2 GT ISZERO PUSH2 0x2920 JUMPI PUSH2 0x291F PUSH2 0x21FF JUMP JUMPDEST JUMPDEST PUSH2 0x292C DUP8 DUP3 DUP9 ADD PUSH2 0x2383 JUMP JUMPDEST SWAP4 POP POP PUSH1 0x40 DUP6 ADD CALLDATALOAD PUSH8 0xFFFFFFFFFFFFFFFF DUP2 GT ISZERO PUSH2 0x294D JUMPI PUSH2 0x294C PUSH2 0x21FF JUMP JUMPDEST JUMPDEST PUSH2 0x2959 DUP8 DUP3 DUP9 ADD PUSH2 0x2383 JUMP JUMPDEST SWAP3 POP POP PUSH1 0x60 PUSH2 0x296A DUP8 DUP3 DUP9 ADD PUSH2 0x28AA JUMP JUMPDEST SWAP2 POP POP SWAP3 SWAP6 SWAP2 SWAP5 POP SWAP3 POP JUMP JUMPDEST PUSH0 PUSH1 0x20 DUP3 ADD SWAP1 POP PUSH2 0x2989 PUSH0 DUP4 ADD DUP5 PUSH2 0x2449 JUMP JUMPDEST SWAP3 SWAP2 POP POP JUMP JUMPDEST PUSH2 0x2998 DUP2 PUSH2 0x25B7 JUMP JUMPDEST DUP3 MSTORE POP POP JUMP JUMPDEST PUSH0 PUSH2 0x140 DUP4 ADD PUSH0 DUP4 ADD MLOAD PUSH2 0x29B4 PUSH0 DUP7 ADD DUP3 PUSH2 0x2680 JUMP JUMPDEST POP PUSH1 0x20 DUP4 ADD MLOAD PUSH2 0x29C7 PUSH1 0x20 DUP7 ADD DUP3 PUSH2 0x268F JUMP JUMPDEST POP PUSH1 0x40 DUP4 ADD MLOAD DUP5 DUP3 SUB PUSH1 0x40 DUP7 ADD MSTORE PUSH2 0x29DF DUP3 DUP3 PUSH2 0x26AE JUMP JUMPDEST SWAP2 POP POP PUSH1 0x60 DUP4 ADD MLOAD DUP5 DUP3 SUB PUSH1 0x60 DUP7 ADD MSTORE PUSH2 0x29F9 DUP3 DUP3 PUSH2 0x26AE JUMP JUMPDEST SWAP2 POP POP PUSH1 0x80 DUP4 ADD MLOAD DUP5 DUP3 SUB PUSH1 0x80 DUP7 ADD MSTORE PUSH2 0x2A13 DUP3 DUP3 PUSH2 0x26AE JUMP JUMPDEST SWAP2 POP POP PUSH1 0xA0 DUP4 ADD MLOAD PUSH2 0x2A28 PUSH1 0xA0 DUP7 ADD DUP3 PUSH2 0x2680 JUMP JUMPDEST POP PUSH1 0xC0 DUP4 ADD MLOAD PUSH2 0x2A3B PUSH1 0xC0 DUP7 ADD DUP3 PUSH2 0x2680 JUMP JUMPDEST POP PUSH1 0xE0 DUP4 ADD MLOAD PUSH2 0x2A4E PUSH1 0xE0 DUP7 ADD DUP3 PUSH2 0x2680 JUMP JUMPDEST POP PUSH2 0x100 DUP4 ADD MLOAD PUSH2 0x2A63 PUSH2 0x100 DUP7 ADD DUP3 PUSH2 0x298F JUMP JUMPDEST POP PUSH2 0x120 DUP4 ADD MLOAD PUSH2 0x2A78 PUSH2 0x120 DUP7 ADD DUP3 PUSH2 0x2680 JUMP JUMPDEST POP DUP1 SWAP2 POP POP SWAP3 SWAP2 POP POP JUMP JUMPDEST PUSH0 PUSH1 0x20 DUP3 ADD SWAP1 POP DUP2 DUP2 SUB PUSH0 DUP4 ADD MSTORE PUSH2 0x2A9B DUP2 DUP5 PUSH2 0x299E JUMP JUMPDEST SWAP1 POP SWAP3 SWAP2 POP POP JUMP JUMPDEST PUSH32 0x5175657374696F6E20646F6573206E6F74206578697374000000000000000000 PUSH0 DUP3 ADD MSTORE POP JUMP JUMPDEST PUSH0 PUSH2 0x2AD7 PUSH1 0x17 DUP4 PUSH2 0x2462 JUMP JUMPDEST SWAP2 POP PUSH2 0x2AE2 DUP3 PUSH2 0x2AA3 JUMP JUMPDEST PUSH1 0x20 DUP3 ADD SWAP1 POP SWAP2 SWAP1 POP JUMP JUMPDEST PUSH0 PUSH1 0x20 DUP3 ADD SWAP1 POP DUP2 DUP2 SUB PUSH0 DUP4 ADD MSTORE PUSH2 0x2B04 DUP2 PUSH2 0x2ACB JUMP JUMPDEST SWAP1 POP SWAP2 SWAP1 POP JUMP JUMPDEST PUSH32 0x5175657374696F6E20697320616C726561647920636C6F736564000000000000 PUSH0 DUP3 ADD MSTORE POP JUMP JUMPDEST PUSH0 PUSH2 0x2B3F PUSH1 0x1A DUP4 PUSH2 0x2462 JUMP JUMPDEST SWAP2 POP PUSH2 0x2B4A DUP3 PUSH2 0x2B0B JUMP JUMPDEST PUSH1 0x20 DUP3 ADD SWAP1 POP SWAP2 SWAP1 POP JUMP JUMPDEST PUSH0 PUSH1 0x20 DUP3 ADD SWAP1 POP DUP2 DUP2 SUB PUSH0 DUP4 ADD MSTORE PUSH2 0x2B6C DUP2 PUSH2 0x2B33 JUMP JUMPDEST SWAP1 POP SWAP2 SWAP1 POP JUMP JUMPDEST PUSH32 0x4F6E6C792061736B65722063616E20636C6F7365207175657374696F6E000000 PUSH0 DUP3 ADD MSTORE POP JUMP JUMPDEST PUSH0 PUSH2 0x2BA7 PUSH1 0x1D DUP4 PUSH2 0x2462 JUMP JUMPDEST SWAP2 POP PUSH2 0x2BB2 DUP3 PUSH2 0x2B73 JUMP JUMPDEST PUSH1 0x20 DUP3 ADD SWAP1 POP SWAP2 SWAP1 POP JUMP JUMPDEST PUSH0 PUSH1 0x20 DUP3 ADD SWAP1 POP DUP2 DUP2 SUB PUSH0 DUP4 ADD MSTORE PUSH2 0x2BD4 DUP2 PUSH2 0x2B9B JUMP JUMPDEST SWAP1 POP SWAP2 SWAP1 POP JUMP JUMPDEST PUSH0 PUSH1 0x40 DUP3 ADD SWAP1 POP PUSH2 0x2BEE PUSH0 DUP4 ADD DUP6 PUSH2 0x240A JUMP JUMPDEST PUSH2 0x2BFB PUSH1 0x20 DUP4 ADD DUP5 PUSH2 0x240A JUMP JUMPDEST SWAP4 SWAP3 POP POP POP JUMP JUMPDEST PUSH32 0x4E487B7100000000000000000000000000000000000000000000000000000000 PUSH0 MSTORE PUSH1 0x22 PUSH1 0x4 MSTORE PUSH1 0x24 PUSH0 REVERT JUMPDEST PUSH0 PUSH1 0x2 DUP3 DIV SWAP1 POP PUSH1 0x1 DUP3 AND DUP1 PUSH2 0x2C46 JUMPI PUSH1 0x7F DUP3 AND SWAP2 POP JUMPDEST PUSH1 0x20 DUP3 LT DUP2 SUB PUSH2 0x2C59 JUMPI PUSH2 0x2C58 PUSH2 0x2C02 JUMP JUMPDEST JUMPDEST POP SWAP2 SWAP1 POP JUMP JUMPDEST PUSH32 0x5175657374696F6E20646561646C696E65206861732070617373656400000000 PUSH0 DUP3 ADD MSTORE POP JUMP JUMPDEST PUSH0 PUSH2 0x2C93 PUSH1 0x1C DUP4 PUSH2 0x2462 JUMP JUMPDEST SWAP2 POP PUSH2 0x2C9E DUP3 PUSH2 0x2C5F JUMP JUMPDEST PUSH1 0x20 DUP3 ADD SWAP1 POP SWAP2 SWAP1 POP JUMP JUMPDEST PUSH0 PUSH1 0x20 DUP3 ADD SWAP1 POP DUP2 DUP2 SUB PUSH0 DUP4 ADD MSTORE PUSH2 0x2CC0 DUP2 PUSH2 0x2C87 JUMP JUMPDEST SWAP1 POP SWAP2 SWAP1 POP JUMP JUMPDEST PUSH32 0x4E487B7100000000000000000000000000000000000000000000000000000000 PUSH0 MSTORE PUSH1 0x11 PUSH1 0x4 MSTORE PUSH1 0x24 PUSH0 REVERT JUMPDEST PUSH0 PUSH2 0x2CFE DUP3 PUSH2 0x2203 JUMP JUMPDEST SWAP2 POP PUSH32 0xFFFFFFFFFFFFFFFFFFFFFFFFFFFFFFFFFFFFFFFFFFFFFFFFFFFFFFFFFFFFFFFF DUP3 SUB PUSH2 0x2D30 JUMPI PUSH2 0x2D2F PUSH2 0x2CC7 JUMP JUMPDEST JUMPDEST PUSH1 0x1 DUP3 ADD SWAP1 POP SWAP2 SWAP1 POP JUMP JUMPDEST PUSH0 DUP2 SWAP1 POP DUP2 PUSH0 MSTORE PUSH1 0x20 PUSH0 KECCAK256 SWAP1 POP SWAP2 SWAP1 POP JUMP JUMPDEST PUSH0 PUSH1 0x20 PUSH1 0x1F DUP4 ADD DIV SWAP1 POP SWAP2 SWAP1 POP JUMP JUMPDEST PUSH0 DUP3 DUP3 SHL SWAP1 POP SWAP3 SWAP2 POP POP JUMP JUMPDEST PUSH0 PUSH1 0x8 DUP4 MUL PUSH2 0x2D97 PUSH32 0xFFFFFFFFFFFFFFFFFFFFFFFFFFFFFFFFFFFFFFFFFFFFFFFFFFFFFFFFFFFFFFFF DUP3 PUSH2 0x2D5C JUMP JUMPDEST PUSH2 0x2DA1 DUP7 DUP4 PUSH2 0x2D5C JUMP JUMPDEST SWAP6 POP DUP1 NOT DUP5 AND SWAP4 POP DUP1 DUP7 AND DUP5 OR SWAP3 POP POP POP SWAP4 SWAP3 POP POP POP JUMP JUMPDEST PUSH0 DUP2 SWAP1 POP SWAP2 SWAP1 POP JUMP JUMPDEST PUSH0 PUSH2 0x2DDC PUSH2 0x2DD7 PUSH2 0x2DD2 DUP5 PUSH2 0x2203 JUMP JUMPDEST PUSH2 0x2DB9 JUMP JUMPDEST PUSH2 0x2203 JUMP JUMPDEST SWAP1 POP SWAP2 SWAP1 POP JUMP JUMPDEST PUSH0 DUP2 SWAP1 POP SWAP2 SWAP1 POP JUMP JUMPDEST PUSH2 0x2DF5 DUP4 PUSH2 0x2DC2 JUMP JUMPDEST PUSH2 0x2E09 PUSH2 0x2E01 DUP3 PUSH2 0x2DE3 JUMP JUMPDEST DUP5 DUP5 SLOAD PUSH2 0x2D68 JUMP JUMPDEST DUP3 SSTORE POP POP POP POP JUMP JUMPDEST PUSH0 SWAP1 JUMP JUMPDEST PUSH2 0x2E1D PUSH2 0x2E11 JUMP JUMPDEST PUSH2 0x2E28 DUP2 DUP5 DUP5 PUSH2 0x2DEC JUMP JUMPDEST POP POP POP JUMP JUMPDEST JUMPDEST DUP2 DUP2 LT ISZERO PUSH2 0x2E4B JUMPI PUSH2 0x2E40 PUSH0 DUP3 PUSH2 0x2E15 JUMP JUMPDEST PUSH1 0x1 DUP2 ADD SWAP1 POP PUSH2 0x2E2E JUMP JUMPDEST POP POP JUMP JUMPDEST PUSH1 0x1F DUP3 GT ISZERO PUSH2 0x2E90 JUMPI PUSH2 0x2E61 DUP2 PUSH2 0x2D3B JUMP JUMPDEST PUSH2 0x2E6A DUP5 PUSH2 0x2D4D JUMP JUMPDEST DUP2 ADD PUSH1 0x20 DUP6 LT ISZERO PUSH2 0x2E79 JUMPI DUP2 SWAP1 POP JUMPDEST PUSH2 0x2E8D PUSH2 0x2E85 DUP6 PUSH2 0x2D4D JUMP JUMPDEST DUP4 ADD DUP3 PUSH2 0x2E2D JUMP JUMPDEST POP POP JUMPDEST POP POP POP JUMP JUMPDEST PUSH0 DUP3 DUP3 SHR SWAP1 POP SWAP3 SWAP2 POP POP JUMP JUMPDEST PUSH0 PUSH2 0x2EB0 PUSH0 NOT DUP5 PUSH1 0x8 MUL PUSH2 0x2E95 JUMP JUMPDEST NOT DUP1 DUP4 AND SWAP2 POP POP SWAP3 SWAP2 POP POP JUMP JUMPDEST PUSH0 PUSH2 0x2EC8 DUP4 DUP4 PUSH2 0x2EA1 JUMP JUMPDEST SWAP2 POP DUP3 PUSH1 0x2 MUL DUP3 OR SWAP1 POP SWAP3 SWAP2 POP POP JUMP JUMPDEST PUSH2 0x2EE1 DUP3 PUSH2 0x2458 JUMP JUMPDEST PUSH8 0xFFFFFFFFFFFFFFFF DUP2 GT ISZERO PUSH2 0x2EFA JUMPI PUSH2 0x2EF9 PUSH2 0x228C JUMP JUMPDEST JUMPDEST PUSH2 0x2F04 DUP3 SLOAD PUSH2 0x2C2F JUMP JUMPDEST PUSH2 0x2F0F DUP3 DUP3 DUP6 PUSH2 0x2E4F JUMP JUMPDEST PUSH0 PUSH1 0x20 SWAP1 POP PUSH1 0x1F DUP4 GT PUSH1 0x1 DUP2 EQ PUSH2 0x2F40 JUMPI PUSH0 DUP5 ISZERO PUSH2 0x2F2E JUMPI DUP3 DUP8 ADD MLOAD SWAP1 POP JUMPDEST PUSH2 0x2F38 DUP6 DUP3 PUSH2 0x2EBD JUMP JUMPDEST DUP7 SSTORE POP PUSH2 0x2F9F JUMP JUMPDEST PUSH1 0x1F NOT DUP5 AND PUSH2 0x2F4E DUP7 PUSH2 0x2D3B JUMP JUMPDEST PUSH0 JUMPDEST DUP3 DUP2 LT ISZERO PUSH2 0x2F75 JUMPI DUP5 DUP10 ADD MLOAD DUP3 SSTORE PUSH1 0x1 DUP3 ADD SWAP2 POP PUSH1 0x20 DUP6 ADD SWAP5 POP PUSH1 0x20 DUP2 ADD SWAP1 POP PUSH2 0x2F50 JUMP JUMPDEST DUP7 DUP4 LT ISZERO PUSH2 0x2F92 JUMPI DUP5 DUP10 ADD MLOAD PUSH2 0x2F8E PUSH1 0x1F DUP10 AND DUP3 PUSH2 0x2EA1 JUMP JUMPDEST DUP4 SSTORE POP JUMPDEST PUSH1 0x1 PUSH1 0x2 DUP9 MUL ADD DUP9 SSTORE POP POP POP JUMPDEST POP POP POP POP POP POP JUMP JUMPDEST PUSH0 PUSH1 0x60 DUP3 ADD SWAP1 POP PUSH2 0x2FBA PUSH0 DUP4 ADD DUP7 PUSH2 0x240A JUMP JUMPDEST PUSH2 0x2FC7 PUSH1 0x20 DUP4 ADD DUP6 PUSH2 0x240A JUMP JUMPDEST DUP2 DUP2 SUB PUSH1 0x40 DUP4 ADD MSTORE PUSH2 0x2FD9 DUP2 DUP5 PUSH2 0x2480 JUMP JUMPDEST SWAP1 POP SWAP5 SWAP4 POP POP POP POP JUMP JUMPDEST PUSH32 0x566F74696E6720706572696F642068617320656E646564000000000000000000 PUSH0 DUP3 ADD MSTORE POP JUMP JUMPDEST PUSH0 PUSH2 0x3017 PUSH1 0x17 DUP4 PUSH2 0x2462 JUMP JUMPDEST SWAP2 POP PUSH2 0x3022 DUP3 PUSH2 0x2FE3 JUMP JUMPDEST PUSH1 0x20 DUP3 ADD SWAP1 POP SWAP2 SWAP1 POP JUMP JUMPDEST PUSH0 PUSH1 0x20 DUP3 ADD SWAP1 POP DUP2 DUP2 SUB PUSH0 DUP4 ADD MSTORE PUSH2 0x3044 DUP2 PUSH2 0x300B JUMP JUMPDEST SWAP1 POP SWAP2 SWAP1 POP JUMP JUMPDEST PUSH32 0x496E636F727265637420766F7465206665650000000000000000000000000000 PUSH0 DUP3 ADD MSTORE POP JUMP JUMPDEST PUSH0 PUSH2 0x307F PUSH1 0x12 DUP4 PUSH2 0x2462 JUMP JUMPDEST SWAP2 POP PUSH2 0x308A DUP3 PUSH2 0x304B JUMP JUMPDEST PUSH1 0x20 DUP3 ADD SWAP1 POP SWAP2 SWAP1 POP JUMP JUMPDEST PUSH0 PUSH1 0x20 DUP3 ADD SWAP1 POP DUP2 DUP2 SUB PUSH0 DUP4 ADD MSTORE PUSH2 0x30AC DUP2 PUSH2 0x3073 JUMP JUMPDEST SWAP1 POP SWAP2 SWAP1 POP JUMP JUMPDEST PUSH0 PUSH2 0x30BD DUP3 PUSH2 0x2203 JUMP JUMPDEST SWAP2 POP PUSH2 0x30C8 DUP4 PUSH2 0x2203 JUMP JUMPDEST SWAP3 POP DUP3 DUP3 ADD SWAP1 POP DUP1 DUP3 GT ISZERO PUSH2 0x30E0 JUMPI PUSH2 0x30DF PUSH2 0x2CC7 JUMP JUMPDEST JUMPDEST SWAP3 SWAP2 POP POP JUMP JUMPDEST PUSH32 0x4E6F2066756E647320746F207769746864726177000000000000000000000000 PUSH0 DUP3 ADD MSTORE POP JUMP JUMPDEST PUSH0 PUSH2 0x311A PUSH1 0x14 DUP4 PUSH2 0x2462 JUMP JUMPDEST SWAP2 POP PUSH2 0x3125 DUP3 PUSH2 0x30E6 JUMP JUMPDEST PUSH1 0x20 DUP3 ADD SWAP1 POP SWAP2 SWAP1 POP JUMP JUMPDEST PUSH0 PUSH1 0x20 DUP3 ADD SWAP1 POP DUP2 DUP2 SUB PUSH0 DUP4 ADD MSTORE PUSH2 0x3147 DUP2 PUSH2 0x310E JUMP JUMPDEST SWAP1 POP SWAP2 SWAP1 POP JUMP JUMPDEST PUSH32 0x416E7377657220646F6573206E6F742065786973740000000000000000000000 PUSH0 DUP3 ADD MSTORE POP JUMP JUMPDEST PUSH0 PUSH2 0x3182 PUSH1 0x15 DUP4 PUSH2 0x2462 JUMP JUMPDEST SWAP2 POP PUSH2 0x318D DUP3 PUSH2 0x314E JUMP JUMPDEST PUSH1 0x20 DUP3 ADD SWAP1 POP SWAP2 SWAP1 POP JUMP JUMPDEST PUSH0 PUSH1 0x20 DUP3 ADD SWAP1 POP DUP2 DUP2 SUB PUSH0 DUP4 ADD MSTORE PUSH2 0x31AF DUP2 PUSH2 0x3176 JUMP JUMPDEST SWAP1 POP SWAP2 SWAP1 POP JUMP JUMPDEST PUSH0 DUP2 SWAP1 POP SWAP3 SWAP2 POP POP JUMP JUMPDEST PUSH0 DUP2 SWAP1 POP DUP2 PUSH0 MSTORE PUSH1 0x20 PUSH0 KECCAK256 SWAP1 POP SWAP2 SWAP1 POP JUMP JUMPDEST PUSH0 DUP2 SLOAD PUSH2 0x31DE DUP2 PUSH2 0x2C2F JUMP JUMPDEST PUSH2 0x31E8 DUP2 DUP7 PUSH2 0x31B6 JUMP JUMPDEST SWAP5 POP PUSH1 0x1 DUP3 AND PUSH0 DUP2 EQ PUSH2 0x3202 JUMPI PUSH1 0x1 DUP2 EQ PUSH2 0x3217 JUMPI PUSH2 0x3249 JUMP JUMPDEST PUSH1 0xFF NOT DUP4 AND DUP7 MSTORE DUP2 ISZERO ISZERO DUP3 MUL DUP7 ADD SWAP4 POP PUSH2 0x3249 JUMP JUMPDEST PUSH2 0x3220 DUP6 PUSH2 0x31C0 JUMP JUMPDEST PUSH0 JUMPDEST DUP4 DUP2 LT ISZERO PUSH2 0x3241 JUMPI DUP2 SLOAD DUP2 DUP10 ADD MSTORE PUSH1 0x1 DUP3 ADD SWAP2 POP PUSH1 0x20 DUP2 ADD SWAP1 POP PUSH2 0x3222 JUMP JUMPDEST DUP4 DUP9 ADD SWAP6 POP POP POP JUMPDEST POP POP POP SWAP3 SWAP2 POP POP JUMP JUMPDEST PUSH0 PUSH2 0x325D DUP3 DUP5 PUSH2 0x31D2 JUMP JUMPDEST SWAP2 POP DUP2 SWAP1 POP SWAP3 SWAP2 POP POP JUMP JUMPDEST PUSH32 0x4E487B7100000000000000000000000000000000000000000000000000000000 PUSH0 MSTORE PUSH1 0x32 PUSH1 0x4 MSTORE PUSH1 0x24 PUSH0 REVERT JUMPDEST PUSH32 0x526577617264206D7573742062652067726561746572207468616E207A65726F PUSH0 DUP3 ADD MSTORE POP JUMP JUMPDEST PUSH0 PUSH2 0x32C9 PUSH1 0x20 DUP4 PUSH2 0x2462 JUMP JUMPDEST SWAP2 POP PUSH2 0x32D4 DUP3 PUSH2 0x3295 JUMP JUMPDEST PUSH1 0x20 DUP3 ADD SWAP1 POP SWAP2 SWAP1 POP JUMP JUMPDEST PUSH0 PUSH1 0x20 DUP3 ADD SWAP1 POP DUP2 DUP2 SUB PUSH0 DUP4 ADD MSTORE PUSH2 0x32F6 DUP2 PUSH2 0x32BD JUMP JUMPDEST SWAP1 POP SWAP2 SWAP1 POP JUMP JUMPDEST PUSH32 0x43617465676F72792063616E6E6F7420626520656D7074790000000000000000 PUSH0 DUP3 ADD MSTORE POP JUMP JUMPDEST PUSH0 PUSH2 0x3331 PUSH1 0x18 DUP4 PUSH2 0x2462 JUMP JUMPDEST SWAP2 POP PUSH2 0x333C DUP3 PUSH2 0x32FD JUMP JUMPDEST PUSH1 0x20 DUP3 ADD SWAP1 POP SWAP2 SWAP1 POP JUMP JUMPDEST PUSH0 PUSH1 0x20 DUP3 ADD SWAP1 POP DUP2 DUP2 SUB PUSH0 DUP4 ADD MSTORE PUSH2 0x335E DUP2 PUSH2 0x3325 JUMP JUMPDEST SWAP1 POP SWAP2 SWAP1 POP JUMP JUMPDEST PUSH32 0x4E487B7100000000000000000000000000000000000000000000000000000000 PUSH0 MSTORE PUSH1 0x21 PUSH1 0x4 MSTORE PUSH1 0x24 PUSH0 REVERT JUMPDEST PUSH0 PUSH1 0x80 DUP3 ADD SWAP1 POP PUSH2 0x33A5 PUSH0 DUP4 ADD DUP8 PUSH2 0x240A JUMP JUMPDEST DUP2 DUP2 SUB PUSH1 0x20 DUP4 ADD MSTORE PUSH2 0x33B7 DUP2 DUP7 PUSH2 0x2480 JUMP JUMPDEST SWAP1 POP PUSH2 0x33C6 PUSH1 0x40 DUP4 ADD DUP6 PUSH2 0x240A JUMP JUMPDEST DUP2 DUP2 SUB PUSH1 0x60 DUP4 ADD MSTORE PUSH2 0x33D8 DUP2 DUP5 PUSH2 0x2480 JUMP JUMPDEST SWAP1 POP SWAP6 SWAP5 POP POP POP POP POP JUMP JUMPDEST PUSH32 0x43616E6E6F742064697374726962757465206265666F726520646561646C696E PUSH0 DUP3 ADD MSTORE PUSH32 0x6500000000000000000000000000000000000000000000000000000000000000 PUSH1 0x20 DUP3 ADD MSTORE POP JUMP JUMPDEST PUSH0 PUSH2 0x343D PUSH1 0x21 DUP4 PUSH2 0x2462 JUMP JUMPDEST SWAP2 POP PUSH2 0x3448 DUP3 PUSH2 0x33E3 JUMP JUMPDEST PUSH1 0x40 DUP3 ADD SWAP1 POP SWAP2 SWAP1 POP JUMP JUMPDEST PUSH0 PUSH1 0x20 DUP3 ADD SWAP1 POP DUP2 DUP2 SUB PUSH0 DUP4 ADD MSTORE PUSH2 0x346A DUP2 PUSH2 0x3431 JUMP JUMPDEST SWAP1 POP SWAP2 SWAP1 POP JUMP JUMPDEST PUSH0 PUSH2 0x347B DUP3 PUSH2 0x2203 JUMP JUMPDEST SWAP2 POP PUSH2 0x3486 DUP4 PUSH2 0x2203 JUMP JUMPDEST SWAP3 POP DUP3 DUP3 MUL PUSH2 0x3494 DUP2 PUSH2 0x2203 JUMP JUMPDEST SWAP2 POP DUP3 DUP3 DIV DUP5 EQ DUP4 ISZERO OR PUSH2 0x34AB JUMPI PUSH2 0x34AA PUSH2 0x2CC7 JUMP JUMPDEST JUMPDEST POP SWAP3 SWAP2 POP POP JUMP JUMPDEST PUSH32 0x4E487B7100000000000000000000000000000000000000000000000000000000 PUSH0 MSTORE PUSH1 0x12 PUSH1 0x4 MSTORE PUSH1 0x24 PUSH0 REVERT JUMPDEST PUSH0 PUSH2 0x34E9 DUP3 PUSH2 0x2203 JUMP JUMPDEST SWAP2 POP PUSH2 0x34F4 DUP4 PUSH2 0x2203 JUMP JUMPDEST SWAP3 POP DUP3 PUSH2 0x3504 JUMPI PUSH2 0x3503 PUSH2 0x34B2 JUMP JUMPDEST JUMPDEST DUP3 DUP3 DIV SWAP1 POP SWAP3 SWAP2 POP POP JUMP INVALID LOG2 PUSH5 0x6970667358 0x22 SLT KECCAK256 CREATE SAR SWAP14 SMOD 0xAF 0x2D DUP14 PUSH18 0xD06388BD5D8639D51227BFD4FB4E6EB08293 0xEA 0xCB KECCAK256 PUSH0 TIMESTAMP 0xB1 PUSH5 0x736F6C6343 STOP ADDMOD BYTE STOP CALLER "
				},
				"gasEstimates": {
					"creation": {
						"codeDepositCost": "2727400",
						"executionCost": "93566",
						"totalCost": "2820966"
					},
					"external": {
						"MONTH()": "369",
						"TWO_WEEKS()": "414",
						"WEEK()": "435",
						"answerIdCounter()": "2447",
						"answers(uint256,uint256)": "infinite",
						"askQuestion(string,string,string,uint8)": "infinite",
						"balance()": "445",
						"balances(address)": "2914",
						"closeQuestion(uint256,uint256)": "infinite",
						"distributeRewards(uint256)": "infinite",
						"getAnswerById(uint256,uint256)": "infinite",
						"getQuestionById(uint256)": "infinite",
						"getQuestionsByCategory(string)": "infinite",
						"owner()": "2572",
						"questionIdCounter()": "2470",
						"questions(uint256)": "infinite",
						"submitAnswer(uint256,string)": "infinite",
						"voteFee()": "2491",
						"voteForAnswer(uint256,uint256)": "infinite",
						"withdraw()": "infinite"
					}
				},
				"methodIdentifiers": {
					"MONTH()": "d5999a5c",
					"TWO_WEEKS()": "934d1fa4",
					"WEEK()": "f4359ce5",
					"answerIdCounter()": "cba13030",
					"answers(uint256,uint256)": "2401519c",
					"askQuestion(string,string,string,uint8)": "572491c3",
					"balance()": "b69ef8a8",
					"balances(address)": "27e235e3",
					"closeQuestion(uint256,uint256)": "01b49d47",
					"distributeRewards(uint256)": "59974e38",
					"getAnswerById(uint256,uint256)": "4a8f164f",
					"getQuestionById(uint256)": "e25f3e02",
					"getQuestionsByCategory(string)": "55ce8034",
					"owner()": "8da5cb5b",
					"questionIdCounter()": "61e78617",
					"questions(uint256)": "31b1b978",
					"submitAnswer(uint256,string)": "01fa3bec",
					"voteFee()": "da2b4c1e",
					"voteForAnswer(uint256,uint256)": "2690567e",
					"withdraw()": "3ccfd60b"
				}
			},
			"storageLayout": {
				"storage": [
					{
						"astId": 3,
						"contract": "contracts/InquireA.sol:InquireA",
						"label": "owner",
						"offset": 0,
						"slot": "0",
						"type": "t_address"
					},
					{
						"astId": 6,
						"contract": "contracts/InquireA.sol:InquireA",
						"label": "voteFee",
						"offset": 0,
						"slot": "1",
						"type": "t_uint256"
					},
					{
						"astId": 8,
						"contract": "contracts/InquireA.sol:InquireA",
						"label": "questionIdCounter",
						"offset": 0,
						"slot": "2",
						"type": "t_uint256"
					},
					{
						"astId": 10,
						"contract": "contracts/InquireA.sol:InquireA",
						"label": "answerIdCounter",
						"offset": 0,
						"slot": "3",
						"type": "t_uint256"
					},
					{
						"astId": 62,
						"contract": "contracts/InquireA.sol:InquireA",
						"label": "questions",
						"offset": 0,
						"slot": "4",
						"type": "t_mapping(t_uint256,t_struct(Question)44_storage)"
					},
					{
						"astId": 69,
						"contract": "contracts/InquireA.sol:InquireA",
						"label": "answers",
						"offset": 0,
						"slot": "5",
						"type": "t_mapping(t_uint256,t_mapping(t_uint256,t_struct(Answer)57_storage))"
					},
					{
						"astId": 73,
						"contract": "contracts/InquireA.sol:InquireA",
						"label": "balances",
						"offset": 0,
						"slot": "6",
						"type": "t_mapping(t_address,t_uint256)"
					}
				],
				"types": {
					"t_address": {
						"encoding": "inplace",
						"label": "address",
						"numberOfBytes": "20"
					},
					"t_bool": {
						"encoding": "inplace",
						"label": "bool",
						"numberOfBytes": "1"
					},
					"t_mapping(t_address,t_uint256)": {
						"encoding": "mapping",
						"key": "t_address",
						"label": "mapping(address => uint256)",
						"numberOfBytes": "32",
						"value": "t_uint256"
					},
					"t_mapping(t_uint256,t_mapping(t_uint256,t_struct(Answer)57_storage))": {
						"encoding": "mapping",
						"key": "t_uint256",
						"label": "mapping(uint256 => mapping(uint256 => struct InquireA.Answer))",
						"numberOfBytes": "32",
						"value": "t_mapping(t_uint256,t_struct(Answer)57_storage)"
					},
					"t_mapping(t_uint256,t_struct(Answer)57_storage)": {
						"encoding": "mapping",
						"key": "t_uint256",
						"label": "mapping(uint256 => struct InquireA.Answer)",
						"numberOfBytes": "32",
						"value": "t_struct(Answer)57_storage"
					},
					"t_mapping(t_uint256,t_struct(Question)44_storage)": {
						"encoding": "mapping",
						"key": "t_uint256",
						"label": "mapping(uint256 => struct InquireA.Question)",
						"numberOfBytes": "32",
						"value": "t_struct(Question)44_storage"
					},
					"t_string_storage": {
						"encoding": "bytes",
						"label": "string",
						"numberOfBytes": "32"
					},
					"t_struct(Answer)57_storage": {
						"encoding": "inplace",
						"label": "struct InquireA.Answer",
						"members": [
							{
								"astId": 46,
								"contract": "contracts/InquireA.sol:InquireA",
								"label": "id",
								"offset": 0,
								"slot": "0",
								"type": "t_uint256"
							},
							{
								"astId": 48,
								"contract": "contracts/InquireA.sol:InquireA",
								"label": "responder",
								"offset": 0,
								"slot": "1",
								"type": "t_address"
							},
							{
								"astId": 50,
								"contract": "contracts/InquireA.sol:InquireA",
								"label": "answerText",
								"offset": 0,
								"slot": "2",
								"type": "t_string_storage"
							},
							{
								"astId": 52,
								"contract": "contracts/InquireA.sol:InquireA",
								"label": "upvotes",
								"offset": 0,
								"slot": "3",
								"type": "t_uint256"
							},
							{
								"astId": 54,
								"contract": "contracts/InquireA.sol:InquireA",
								"label": "rewardAmount",
								"offset": 0,
								"slot": "4",
								"type": "t_uint256"
							},
							{
								"astId": 56,
								"contract": "contracts/InquireA.sol:InquireA",
								"label": "createdAt",
								"offset": 0,
								"slot": "5",
								"type": "t_uint256"
							}
						],
						"numberOfBytes": "192"
					},
					"t_struct(Question)44_storage": {
						"encoding": "inplace",
						"label": "struct InquireA.Question",
						"members": [
							{
								"astId": 25,
								"contract": "contracts/InquireA.sol:InquireA",
								"label": "id",
								"offset": 0,
								"slot": "0",
								"type": "t_uint256"
							},
							{
								"astId": 27,
								"contract": "contracts/InquireA.sol:InquireA",
								"label": "asker",
								"offset": 0,
								"slot": "1",
								"type": "t_address"
							},
							{
								"astId": 29,
								"contract": "contracts/InquireA.sol:InquireA",
								"label": "questionText",
								"offset": 0,
								"slot": "2",
								"type": "t_string_storage"
							},
							{
								"astId": 31,
								"contract": "contracts/InquireA.sol:InquireA",
								"label": "questionContent",
								"offset": 0,
								"slot": "3",
								"type": "t_string_storage"
							},
							{
								"astId": 33,
								"contract": "contracts/InquireA.sol:InquireA",
								"label": "category",
								"offset": 0,
								"slot": "4",
								"type": "t_string_storage"
							},
							{
								"astId": 35,
								"contract": "contracts/InquireA.sol:InquireA",
								"label": "rewardAmount",
								"offset": 0,
								"slot": "5",
								"type": "t_uint256"
							},
							{
								"astId": 37,
								"contract": "contracts/InquireA.sol:InquireA",
								"label": "createdAt",
								"offset": 0,
								"slot": "6",
								"type": "t_uint256"
							},
							{
								"astId": 39,
								"contract": "contracts/InquireA.sol:InquireA",
								"label": "deadline",
								"offset": 0,
								"slot": "7",
								"type": "t_uint256"
							},
							{
								"astId": 41,
								"contract": "contracts/InquireA.sol:InquireA",
								"label": "isClosed",
								"offset": 0,
								"slot": "8",
								"type": "t_bool"
							},
							{
								"astId": 43,
								"contract": "contracts/InquireA.sol:InquireA",
								"label": "chosenAnswerId",
								"offset": 0,
								"slot": "9",
								"type": "t_uint256"
							}
						],
						"numberOfBytes": "320"
					},
					"t_uint256": {
						"encoding": "inplace",
						"label": "uint256",
						"numberOfBytes": "32"
					}
				}
			},
			"userdoc": {
				"kind": "user",
				"methods": {},
				"version": 1
			}
		}
	}
}