{
	"contracts/InquireA.sol": {
		"InquireA": {
			"abi": [
				{
					"inputs": [],
					"stateMutability": "nonpayable",
					"type": "constructor"
				},
				{
					"anonymous": false,
					"inputs": [
						{
							"indexed": false,
							"internalType": "uint256",
							"name": "questionId",
							"type": "uint256"
						},
						{
							"indexed": false,
							"internalType": "uint256",
							"name": "answerId",
							"type": "uint256"
						},
						{
							"indexed": true,
							"internalType": "address",
							"name": "responder",
							"type": "address"
						},
						{
							"indexed": false,
							"internalType": "string",
							"name": "answerText",
							"type": "string"
						}
					],
					"name": "AnswerSubmitted",
					"type": "event"
				},
				{
					"anonymous": false,
					"inputs": [
						{
							"indexed": false,
							"internalType": "uint256",
							"name": "questionId",
							"type": "uint256"
						},
						{
							"indexed": true,
							"internalType": "address",
							"name": "asker",
							"type": "address"
						},
						{
							"indexed": false,
							"internalType": "string",
							"name": "questionText",
							"type": "string"
						},
						{
							"indexed": false,
							"internalType": "uint256",
							"name": "rewardAmount",
							"type": "uint256"
						},
						{
							"indexed": false,
							"internalType": "string",
							"name": "category",
							"type": "string"
						}
					],
					"name": "QuestionAsked",
					"type": "event"
				},
				{
					"anonymous": false,
					"inputs": [
						{
							"indexed": false,
							"internalType": "uint256",
							"name": "questionId",
							"type": "uint256"
						},
						{
							"indexed": false,
							"internalType": "uint256",
							"name": "chosenAnswerId",
							"type": "uint256"
						}
					],
					"name": "QuestionClosed",
					"type": "event"
				},
				{
					"anonymous": false,
					"inputs": [
						{
							"indexed": false,
							"internalType": "uint256",
							"name": "questionId",
							"type": "uint256"
						},
						{
							"indexed": false,
							"internalType": "uint256",
							"name": "answerId",
							"type": "uint256"
						},
						{
							"indexed": true,
							"internalType": "address",
							"name": "voter",
							"type": "address"
						}
					],
					"name": "Voted",
					"type": "event"
				},
				{
					"inputs": [],
					"name": "MONTH",
					"outputs": [
						{
							"internalType": "uint256",
							"name": "",
							"type": "uint256"
						}
					],
					"stateMutability": "view",
					"type": "function"
				},
				{
					"inputs": [],
					"name": "TWO_WEEKS",
					"outputs": [
						{
							"internalType": "uint256",
							"name": "",
							"type": "uint256"
						}
					],
					"stateMutability": "view",
					"type": "function"
				},
				{
					"inputs": [],
					"name": "WEEK",
					"outputs": [
						{
							"internalType": "uint256",
							"name": "",
							"type": "uint256"
						}
					],
					"stateMutability": "view",
					"type": "function"
				},
				{
					"inputs": [],
					"name": "answerIdCounter",
					"outputs": [
						{
							"internalType": "uint256",
							"name": "",
							"type": "uint256"
						}
					],
					"stateMutability": "view",
					"type": "function"
				},
				{
					"inputs": [
						{
							"internalType": "uint256",
							"name": "",
							"type": "uint256"
						},
						{
							"internalType": "uint256",
							"name": "",
							"type": "uint256"
						}
					],
					"name": "answers",
					"outputs": [
						{
							"internalType": "uint256",
							"name": "id",
							"type": "uint256"
						},
						{
							"internalType": "address",
							"name": "responder",
							"type": "address"
						},
						{
							"internalType": "string",
							"name": "answerText",
							"type": "string"
						},
						{
							"internalType": "uint256",
							"name": "upvotes",
							"type": "uint256"
						},
						{
							"internalType": "uint256",
							"name": "rewardAmount",
							"type": "uint256"
						},
						{
							"internalType": "uint256",
							"name": "createdAt",
							"type": "uint256"
						}
					],
					"stateMutability": "view",
					"type": "function"
				},
				{
					"inputs": [
						{
							"internalType": "string",
							"name": "_questionText",
							"type": "string"
						},
						{
							"internalType": "string",
							"name": "_questionContent",
							"type": "string"
						},
						{
							"internalType": "string",
							"name": "_category",
							"type": "string"
						},
						{
							"internalType": "enum InquireA.DeadlinePeriod",
							"name": "_deadlinePeriod",
							"type": "uint8"
						}
					],
					"name": "askQuestion",
					"outputs": [],
					"stateMutability": "payable",
					"type": "function"
				},
				{
					"inputs": [],
					"name": "balance",
					"outputs": [
						{
							"internalType": "uint256",
							"name": "",
							"type": "uint256"
						}
					],
					"stateMutability": "view",
					"type": "function"
				},
				{
					"inputs": [
						{
							"internalType": "address",
							"name": "",
							"type": "address"
						}
					],
					"name": "balances",
					"outputs": [
						{
							"internalType": "uint256",
							"name": "",
							"type": "uint256"
						}
					],
					"stateMutability": "view",
					"type": "function"
				},
				{
					"inputs": [
						{
							"internalType": "uint256",
							"name": "questionId",
							"type": "uint256"
						},
						{
							"internalType": "uint256",
							"name": "answerId",
							"type": "uint256"
						}
					],
					"name": "closeQuestion",
					"outputs": [],
					"stateMutability": "nonpayable",
					"type": "function"
				},
				{
					"inputs": [
						{
							"internalType": "uint256",
							"name": "questionId",
							"type": "uint256"
						}
					],
					"name": "distributeRewards",
					"outputs": [],
					"stateMutability": "nonpayable",
					"type": "function"
				},
				{
					"inputs": [
						{
							"internalType": "uint256",
							"name": "questionId",
							"type": "uint256"
						},
						{
							"internalType": "uint256",
							"name": "answerId",
							"type": "uint256"
						}
					],
					"name": "getAnswerById",
					"outputs": [
						{
							"components": [
								{
									"internalType": "uint256",
									"name": "id",
									"type": "uint256"
								},
								{
									"internalType": "address",
									"name": "responder",
									"type": "address"
								},
								{
									"internalType": "string",
									"name": "answerText",
									"type": "string"
								},
								{
									"internalType": "uint256",
									"name": "upvotes",
									"type": "uint256"
								},
								{
									"internalType": "uint256",
									"name": "rewardAmount",
									"type": "uint256"
								},
								{
									"internalType": "uint256",
									"name": "createdAt",
									"type": "uint256"
								}
							],
							"internalType": "struct InquireA.Answer",
							"name": "",
							"type": "tuple"
						}
					],
					"stateMutability": "view",
					"type": "function"
				},
				{
					"inputs": [
						{
							"internalType": "uint256",
							"name": "questionId",
							"type": "uint256"
						},
						{
							"internalType": "uint256",
							"name": "pageIndex",
							"type": "uint256"
						},
						{
							"internalType": "uint256",
							"name": "pageSize",
							"type": "uint256"
						}
					],
					"name": "getAnswersByQuestionId",
					"outputs": [
						{
							"components": [
								{
									"internalType": "uint256",
									"name": "id",
									"type": "uint256"
								},
								{
									"internalType": "address",
									"name": "responder",
									"type": "address"
								},
								{
									"internalType": "string",
									"name": "answerText",
									"type": "string"
								},
								{
									"internalType": "uint256",
									"name": "upvotes",
									"type": "uint256"
								},
								{
									"internalType": "uint256",
									"name": "rewardAmount",
									"type": "uint256"
								},
								{
									"internalType": "uint256",
									"name": "createdAt",
									"type": "uint256"
								}
							],
							"internalType": "struct InquireA.Answer[]",
							"name": "answersList",
							"type": "tuple[]"
						},
						{
							"internalType": "uint256",
							"name": "totalAnswers",
							"type": "uint256"
						},
						{
							"internalType": "uint256",
							"name": "totalPages",
							"type": "uint256"
						}
					],
					"stateMutability": "view",
					"type": "function"
				},
				{
					"inputs": [
						{
							"internalType": "uint256",
							"name": "questionId",
							"type": "uint256"
						}
					],
					"name": "getQuestionById",
					"outputs": [
						{
							"components": [
								{
									"internalType": "uint256",
									"name": "id",
									"type": "uint256"
								},
								{
									"internalType": "address",
									"name": "asker",
									"type": "address"
								},
								{
									"internalType": "string",
									"name": "questionText",
									"type": "string"
								},
								{
									"internalType": "string",
									"name": "questionContent",
									"type": "string"
								},
								{
									"internalType": "string",
									"name": "category",
									"type": "string"
								},
								{
									"internalType": "uint256",
									"name": "rewardAmount",
									"type": "uint256"
								},
								{
									"internalType": "uint256",
									"name": "createdAt",
									"type": "uint256"
								},
								{
									"internalType": "uint256",
									"name": "deadline",
									"type": "uint256"
								},
								{
									"internalType": "bool",
									"name": "isClosed",
									"type": "bool"
								},
								{
									"internalType": "uint256",
									"name": "chosenAnswerId",
									"type": "uint256"
								}
							],
							"internalType": "struct InquireA.Question",
							"name": "",
							"type": "tuple"
						}
					],
					"stateMutability": "view",
					"type": "function"
				},
				{
					"inputs": [
						{
							"internalType": "uint256",
							"name": "pageIndex",
							"type": "uint256"
						},
						{
							"internalType": "uint256",
							"name": "pageSize",
							"type": "uint256"
						}
					],
					"name": "getQuestions",
					"outputs": [
						{
							"components": [
								{
									"internalType": "uint256",
									"name": "id",
									"type": "uint256"
								},
								{
									"internalType": "address",
									"name": "asker",
									"type": "address"
								},
								{
									"internalType": "string",
									"name": "questionText",
									"type": "string"
								},
								{
									"internalType": "string",
									"name": "questionContent",
									"type": "string"
								},
								{
									"internalType": "string",
									"name": "category",
									"type": "string"
								},
								{
									"internalType": "uint256",
									"name": "rewardAmount",
									"type": "uint256"
								},
								{
									"internalType": "uint256",
									"name": "createdAt",
									"type": "uint256"
								},
								{
									"internalType": "uint256",
									"name": "deadline",
									"type": "uint256"
								},
								{
									"internalType": "bool",
									"name": "isClosed",
									"type": "bool"
								},
								{
									"internalType": "uint256",
									"name": "chosenAnswerId",
									"type": "uint256"
								}
							],
							"internalType": "struct InquireA.Question[]",
							"name": "questionsList",
							"type": "tuple[]"
						},
						{
							"internalType": "uint256",
							"name": "totalQuestions",
							"type": "uint256"
						},
						{
							"internalType": "uint256",
							"name": "totalPages",
							"type": "uint256"
						}
					],
					"stateMutability": "view",
					"type": "function"
				},
				{
					"inputs": [
						{
							"internalType": "string",
							"name": "_category",
							"type": "string"
						}
					],
					"name": "getQuestionsByCategory",
					"outputs": [
						{
							"internalType": "uint256[]",
							"name": "",
							"type": "uint256[]"
						}
					],
					"stateMutability": "view",
					"type": "function"
				},
				{
					"inputs": [],
					"name": "owner",
					"outputs": [
						{
							"internalType": "address",
							"name": "",
							"type": "address"
						}
					],
					"stateMutability": "view",
					"type": "function"
				},
				{
					"inputs": [],
					"name": "questionIdCounter",
					"outputs": [
						{
							"internalType": "uint256",
							"name": "",
							"type": "uint256"
						}
					],
					"stateMutability": "view",
					"type": "function"
				},
				{
					"inputs": [
						{
							"internalType": "uint256",
							"name": "",
							"type": "uint256"
						}
					],
					"name": "questions",
					"outputs": [
						{
							"internalType": "uint256",
							"name": "id",
							"type": "uint256"
						},
						{
							"internalType": "address",
							"name": "asker",
							"type": "address"
						},
						{
							"internalType": "string",
							"name": "questionText",
							"type": "string"
						},
						{
							"internalType": "string",
							"name": "questionContent",
							"type": "string"
						},
						{
							"internalType": "string",
							"name": "category",
							"type": "string"
						},
						{
							"internalType": "uint256",
							"name": "rewardAmount",
							"type": "uint256"
						},
						{
							"internalType": "uint256",
							"name": "createdAt",
							"type": "uint256"
						},
						{
							"internalType": "uint256",
							"name": "deadline",
							"type": "uint256"
						},
						{
							"internalType": "bool",
							"name": "isClosed",
							"type": "bool"
						},
						{
							"internalType": "uint256",
							"name": "chosenAnswerId",
							"type": "uint256"
						}
					],
					"stateMutability": "view",
					"type": "function"
				},
				{
					"inputs": [
						{
							"internalType": "uint256",
							"name": "questionId",
							"type": "uint256"
						},
						{
							"internalType": "uint256",
							"name": "answerId",
							"type": "uint256"
						}
					],
					"name": "selectBestAnswer",
					"outputs": [],
					"stateMutability": "payable",
					"type": "function"
				},
				{
					"inputs": [
						{
							"internalType": "uint256",
							"name": "questionId",
							"type": "uint256"
						},
						{
							"internalType": "string",
							"name": "_answerText",
							"type": "string"
						}
					],
					"name": "submitAnswer",
					"outputs": [],
					"stateMutability": "nonpayable",
					"type": "function"
				},
				{
					"inputs": [],
					"name": "voteFee",
					"outputs": [
						{
							"internalType": "uint256",
							"name": "",
							"type": "uint256"
						}
					],
					"stateMutability": "view",
					"type": "function"
				},
				{
					"inputs": [
						{
							"internalType": "uint256",
							"name": "questionId",
							"type": "uint256"
						},
						{
							"internalType": "uint256",
							"name": "answerId",
							"type": "uint256"
						}
					],
					"name": "voteForAnswer",
					"outputs": [],
					"stateMutability": "payable",
					"type": "function"
				},
				{
					"inputs": [],
					"name": "withdraw",
					"outputs": [],
					"stateMutability": "nonpayable",
					"type": "function"
				}
			],
			"devdoc": {
				"kind": "dev",
				"methods": {},
				"version": 1
			},
			"evm": {
				"assembly": "    /* \"contracts/InquireA.sol\":60:12762  contract InquireA {... */\n  mstore(0x40, 0x80)\n    /* \"contracts/InquireA.sol\":137:147  0.01 ether */\n  0x2386f26fc10000\n    /* \"contracts/InquireA.sol\":112:147  uint256 public voteFee = 0.01 ether */\n  0x01\n  sstore\n    /* \"contracts/InquireA.sol\":1640:1757  constructor() {... */\n  callvalue\n  dup1\n  iszero\n  tag_1\n  jumpi\n  0x00\n  dup1\n  revert\ntag_1:\n  pop\n    /* \"contracts/InquireA.sol\":1673:1683  msg.sender */\n  caller\n    /* \"contracts/InquireA.sol\":1665:1670  owner */\n  0x00\n  dup1\n    /* \"contracts/InquireA.sol\":1665:1683  owner = msg.sender */\n  0x0100\n  exp\n  dup2\n  sload\n  dup2\n  0xffffffffffffffffffffffffffffffffffffffff\n  mul\n  not\n  and\n  swap1\n  dup4\n  0xffffffffffffffffffffffffffffffffffffffff\n  and\n  mul\n  or\n  swap1\n  sstore\n  pop\n    /* \"contracts/InquireA.sol\":1714:1715  1 */\n  0x01\n    /* \"contracts/InquireA.sol\":1694:1711  questionIdCounter */\n  0x02\n    /* \"contracts/InquireA.sol\":1694:1715  questionIdCounter = 1 */\n  dup2\n  swap1\n  sstore\n  pop\n    /* \"contracts/InquireA.sol\":1746:1747  1 */\n  0x01\n    /* \"contracts/InquireA.sol\":1728:1743  answerIdCounter */\n  0x03\n    /* \"contracts/InquireA.sol\":1728:1747  answerIdCounter = 1 */\n  dup2\n  swap1\n  sstore\n  pop\n    /* \"contracts/InquireA.sol\":60:12762  contract InquireA {... */\n  dataSize(sub_0)\n  dup1\n  dataOffset(sub_0)\n  0x00\n  codecopy\n  0x00\n  return\nstop\n\nsub_0: assembly {\n        /* \"contracts/InquireA.sol\":60:12762  contract InquireA {... */\n      mstore(0x40, 0x80)\n      jumpi(tag_1, lt(calldatasize, 0x04))\n      shr(0xe0, calldataload(0x00))\n      dup1\n      0x61e78617\n      gt\n      tag_25\n      jumpi\n      dup1\n      0xd5999a5c\n      gt\n      tag_26\n      jumpi\n      dup1\n      0xd5999a5c\n      eq\n      tag_19\n      jumpi\n      dup1\n      0xda2b4c1e\n      eq\n      tag_20\n      jumpi\n      dup1\n      0xe25f3e02\n      eq\n      tag_21\n      jumpi\n      dup1\n      0xee1589a5\n      eq\n      tag_22\n      jumpi\n      dup1\n      0xf4359ce5\n      eq\n      tag_23\n      jumpi\n      dup1\n      0xfd1df035\n      eq\n      tag_24\n      jumpi\n      jump(tag_1)\n    tag_26:\n      dup1\n      0x61e78617\n      eq\n      tag_13\n      jumpi\n      dup1\n      0x8da5cb5b\n      eq\n      tag_14\n      jumpi\n      dup1\n      0x90a3f588\n      eq\n      tag_15\n      jumpi\n      dup1\n      0x934d1fa4\n      eq\n      tag_16\n      jumpi\n      dup1\n      0xb69ef8a8\n      eq\n      tag_17\n      jumpi\n      dup1\n      0xcba13030\n      eq\n      tag_18\n      jumpi\n      jump(tag_1)\n    tag_25:\n      dup1\n      0x31b1b978\n      gt\n      tag_27\n      jumpi\n      dup1\n      0x31b1b978\n      eq\n      tag_7\n      jumpi\n      dup1\n      0x3ccfd60b\n      eq\n      tag_8\n      jumpi\n      dup1\n      0x4a8f164f\n      eq\n      tag_9\n      jumpi\n      dup1\n      0x55ce8034\n      eq\n      tag_10\n      jumpi\n      dup1\n      0x572491c3\n      eq\n      tag_11\n      jumpi\n      dup1\n      0x59974e38\n      eq\n      tag_12\n      jumpi\n      jump(tag_1)\n    tag_27:\n      dup1\n      0x01b49d47\n      eq\n      tag_2\n      jumpi\n      dup1\n      0x01fa3bec\n      eq\n      tag_3\n      jumpi\n      dup1\n      0x2401519c\n      eq\n      tag_4\n      jumpi\n      dup1\n      0x2690567e\n      eq\n      tag_5\n      jumpi\n      dup1\n      0x27e235e3\n      eq\n      tag_6\n      jumpi\n    tag_1:\n      0x00\n      dup1\n      revert\n        /* \"contracts/InquireA.sol\":10249:10651  function closeQuestion(uint256 questionId, uint256 answerId) public questionExists(questionId) notClosed(questionId) {... */\n    tag_2:\n      callvalue\n      dup1\n      iszero\n      tag_28\n      jumpi\n      0x00\n      dup1\n      revert\n    tag_28:\n      pop\n      tag_29\n      0x04\n      dup1\n      calldatasize\n      sub\n      dup2\n      add\n      swap1\n      tag_30\n      swap2\n      swap1\n      tag_31\n      jump\t// in\n    tag_30:\n      tag_32\n      jump\t// in\n    tag_29:\n      stop\n        /* \"contracts/InquireA.sol\":3621:4319  function submitAnswer(uint256 questionId, string memory _answerText) public questionExists(questionId) notClosed(questionId) {... */\n    tag_3:\n      callvalue\n      dup1\n      iszero\n      tag_33\n      jumpi\n      0x00\n      dup1\n      revert\n    tag_33:\n      pop\n      tag_34\n      0x04\n      dup1\n      calldatasize\n      sub\n      dup2\n      add\n      swap1\n      tag_35\n      swap2\n      swap1\n      tag_36\n      jump\t// in\n    tag_35:\n      tag_37\n      jump\t// in\n    tag_34:\n      stop\n        /* \"contracts/InquireA.sol\":1072:1133  mapping(uint256 => mapping(uint256 => Answer)) public answers */\n    tag_4:\n      callvalue\n      dup1\n      iszero\n      tag_38\n      jumpi\n      0x00\n      dup1\n      revert\n    tag_38:\n      pop\n      tag_39\n      0x04\n      dup1\n      calldatasize\n      sub\n      dup2\n      add\n      swap1\n      tag_40\n      swap2\n      swap1\n      tag_31\n      jump\t// in\n    tag_40:\n      tag_41\n      jump\t// in\n    tag_39:\n      mload(0x40)\n      tag_42\n      swap7\n      swap6\n      swap5\n      swap4\n      swap3\n      swap2\n      swap1\n      tag_43\n      jump\t// in\n    tag_42:\n      mload(0x40)\n      dup1\n      swap2\n      sub\n      swap1\n      return\n        /* \"contracts/InquireA.sol\":9691:10241  function voteForAnswer(uint256 questionId, uint256 answerId) public payable questionExists(questionId) notClosed(questionId) {... */\n    tag_5:\n      tag_44\n      0x04\n      dup1\n      calldatasize\n      sub\n      dup2\n      add\n      swap1\n      tag_45\n      swap2\n      swap1\n      tag_31\n      jump\t// in\n    tag_45:\n      tag_46\n      jump\t// in\n    tag_44:\n      stop\n        /* \"contracts/InquireA.sol\":1140:1183  mapping(address => uint256) public balances */\n    tag_6:\n      callvalue\n      dup1\n      iszero\n      tag_47\n      jumpi\n      0x00\n      dup1\n      revert\n    tag_47:\n      pop\n      tag_48\n      0x04\n      dup1\n      calldatasize\n      sub\n      dup2\n      add\n      swap1\n      tag_49\n      swap2\n      swap1\n      tag_50\n      jump\t// in\n    tag_49:\n      tag_51\n      jump\t// in\n    tag_48:\n      mload(0x40)\n      tag_52\n      swap2\n      swap1\n      tag_53\n      jump\t// in\n    tag_52:\n      mload(0x40)\n      dup1\n      swap2\n      sub\n      swap1\n      return\n        /* \"contracts/InquireA.sol\":1020:1065  mapping(uint256 => Question) public questions */\n    tag_7:\n      callvalue\n      dup1\n      iszero\n      tag_54\n      jumpi\n      0x00\n      dup1\n      revert\n    tag_54:\n      pop\n      tag_55\n      0x04\n      dup1\n      calldatasize\n      sub\n      dup2\n      add\n      swap1\n      tag_56\n      swap2\n      swap1\n      tag_57\n      jump\t// in\n    tag_56:\n      tag_58\n      jump\t// in\n    tag_55:\n      mload(0x40)\n      tag_59\n      swap11\n      swap10\n      swap9\n      swap8\n      swap7\n      swap6\n      swap5\n      swap4\n      swap3\n      swap2\n      swap1\n      tag_60\n      jump\t// in\n    tag_59:\n      mload(0x40)\n      dup1\n      swap2\n      sub\n      swap1\n      return\n        /* \"contracts/InquireA.sol\":11706:11927  function withdraw() public {... */\n    tag_8:\n      callvalue\n      dup1\n      iszero\n      tag_61\n      jumpi\n      0x00\n      dup1\n      revert\n    tag_61:\n      pop\n      tag_62\n      tag_63\n      jump\t// in\n    tag_62:\n      stop\n        /* \"contracts/InquireA.sol\":9433:9683  function getAnswerById(uint256 questionId, uint256 answerId) public view returns (Answer memory) {... */\n    tag_9:\n      callvalue\n      dup1\n      iszero\n      tag_64\n      jumpi\n      0x00\n      dup1\n      revert\n    tag_64:\n      pop\n      tag_65\n      0x04\n      dup1\n      calldatasize\n      sub\n      dup2\n      add\n      swap1\n      tag_66\n      swap2\n      swap1\n      tag_31\n      jump\t// in\n    tag_66:\n      tag_67\n      jump\t// in\n    tag_65:\n      mload(0x40)\n      tag_68\n      swap2\n      swap1\n      tag_69\n      jump\t// in\n    tag_68:\n      mload(0x40)\n      dup1\n      swap2\n      sub\n      swap1\n      return\n        /* \"contracts/InquireA.sol\":12083:12759  function getQuestionsByCategory(string memory _category) public view returns (uint256[] memory) {... */\n    tag_10:\n      callvalue\n      dup1\n      iszero\n      tag_70\n      jumpi\n      0x00\n      dup1\n      revert\n    tag_70:\n      pop\n      tag_71\n      0x04\n      dup1\n      calldatasize\n      sub\n      dup2\n      add\n      swap1\n      tag_72\n      swap2\n      swap1\n      tag_73\n      jump\t// in\n    tag_72:\n      tag_74\n      jump\t// in\n    tag_71:\n      mload(0x40)\n      tag_75\n      swap2\n      swap1\n      tag_76\n      jump\t// in\n    tag_75:\n      mload(0x40)\n      dup1\n      swap2\n      sub\n      swap1\n      return\n        /* \"contracts/InquireA.sol\":2244:3582  function askQuestion(... */\n    tag_11:\n      tag_77\n      0x04\n      dup1\n      calldatasize\n      sub\n      dup2\n      add\n      swap1\n      tag_78\n      swap2\n      swap1\n      tag_79\n      jump\t// in\n    tag_78:\n      tag_80\n      jump\t// in\n    tag_77:\n      stop\n        /* \"contracts/InquireA.sol\":10697:11698  function distributeRewards(uint256 questionId) public questionExists(questionId) {... */\n    tag_12:\n      callvalue\n      dup1\n      iszero\n      tag_81\n      jumpi\n      0x00\n      dup1\n      revert\n    tag_81:\n      pop\n      tag_82\n      0x04\n      dup1\n      calldatasize\n      sub\n      dup2\n      add\n      swap1\n      tag_83\n      swap2\n      swap1\n      tag_57\n      jump\t// in\n    tag_83:\n      tag_84\n      jump\t// in\n    tag_82:\n      stop\n        /* \"contracts/InquireA.sol\":154:186  uint256 public questionIdCounter */\n    tag_13:\n      callvalue\n      dup1\n      iszero\n      tag_85\n      jumpi\n      0x00\n      dup1\n      revert\n    tag_85:\n      pop\n      tag_86\n      tag_87\n      jump\t// in\n    tag_86:\n      mload(0x40)\n      tag_88\n      swap2\n      swap1\n      tag_53\n      jump\t// in\n    tag_88:\n      mload(0x40)\n      dup1\n      swap2\n      sub\n      swap1\n      return\n        /* \"contracts/InquireA.sol\":85:105  address public owner */\n    tag_14:\n      callvalue\n      dup1\n      iszero\n      tag_89\n      jumpi\n      0x00\n      dup1\n      revert\n    tag_89:\n      pop\n      tag_90\n      tag_91\n      jump\t// in\n    tag_90:\n      mload(0x40)\n      tag_92\n      swap2\n      swap1\n      tag_93\n      jump\t// in\n    tag_92:\n      mload(0x40)\n      dup1\n      swap2\n      sub\n      swap1\n      return\n        /* \"contracts/InquireA.sol\":5746:6803  function selectBestAnswer(uint256 questionId, uint256 answerId) public payable {... */\n    tag_15:\n      tag_94\n      0x04\n      dup1\n      calldatasize\n      sub\n      dup2\n      add\n      swap1\n      tag_95\n      swap2\n      swap1\n      tag_31\n      jump\t// in\n    tag_95:\n      tag_96\n      jump\t// in\n    tag_94:\n      stop\n        /* \"contracts/InquireA.sol\":274:317  uint256 public constant TWO_WEEKS = 14 days */\n    tag_16:\n      callvalue\n      dup1\n      iszero\n      tag_97\n      jumpi\n      0x00\n      dup1\n      revert\n    tag_97:\n      pop\n      tag_98\n      tag_99\n      jump\t// in\n    tag_98:\n      mload(0x40)\n      tag_100\n      swap2\n      swap1\n      tag_53\n      jump\t// in\n    tag_100:\n      mload(0x40)\n      dup1\n      swap2\n      sub\n      swap1\n      return\n        /* \"contracts/InquireA.sol\":11935:12031  function balance() public view returns (uint256) {... */\n    tag_17:\n      callvalue\n      dup1\n      iszero\n      tag_101\n      jumpi\n      0x00\n      dup1\n      revert\n    tag_101:\n      pop\n      tag_102\n      tag_103\n      jump\t// in\n    tag_102:\n      mload(0x40)\n      tag_104\n      swap2\n      swap1\n      tag_53\n      jump\t// in\n    tag_104:\n      mload(0x40)\n      dup1\n      swap2\n      sub\n      swap1\n      return\n        /* \"contracts/InquireA.sol\":193:223  uint256 public answerIdCounter */\n    tag_18:\n      callvalue\n      dup1\n      iszero\n      tag_105\n      jumpi\n      0x00\n      dup1\n      revert\n    tag_105:\n      pop\n      tag_106\n      tag_107\n      jump\t// in\n    tag_106:\n      mload(0x40)\n      tag_108\n      swap2\n      swap1\n      tag_53\n      jump\t// in\n    tag_108:\n      mload(0x40)\n      dup1\n      swap2\n      sub\n      swap1\n      return\n        /* \"contracts/InquireA.sol\":324:363  uint256 public constant MONTH = 30 days */\n    tag_19:\n      callvalue\n      dup1\n      iszero\n      tag_109\n      jumpi\n      0x00\n      dup1\n      revert\n    tag_109:\n      pop\n      tag_110\n      tag_111\n      jump\t// in\n    tag_110:\n      mload(0x40)\n      tag_112\n      swap2\n      swap1\n      tag_53\n      jump\t// in\n    tag_112:\n      mload(0x40)\n      dup1\n      swap2\n      sub\n      swap1\n      return\n        /* \"contracts/InquireA.sol\":112:147  uint256 public voteFee = 0.01 ether */\n    tag_20:\n      callvalue\n      dup1\n      iszero\n      tag_113\n      jumpi\n      0x00\n      dup1\n      revert\n    tag_113:\n      pop\n      tag_114\n      tag_115\n      jump\t// in\n    tag_114:\n      mload(0x40)\n      tag_116\n      swap2\n      swap1\n      tag_53\n      jump\t// in\n    tag_116:\n      mload(0x40)\n      dup1\n      swap2\n      sub\n      swap1\n      return\n        /* \"contracts/InquireA.sol\":6811:7029  function getQuestionById(uint256 questionId) public view returns (Question memory) {... */\n    tag_21:\n      callvalue\n      dup1\n      iszero\n      tag_117\n      jumpi\n      0x00\n      dup1\n      revert\n    tag_117:\n      pop\n      tag_118\n      0x04\n      dup1\n      calldatasize\n      sub\n      dup2\n      add\n      swap1\n      tag_119\n      swap2\n      swap1\n      tag_57\n      jump\t// in\n    tag_119:\n      tag_120\n      jump\t// in\n    tag_118:\n      mload(0x40)\n      tag_121\n      swap2\n      swap1\n      tag_122\n      jump\t// in\n    tag_121:\n      mload(0x40)\n      dup1\n      swap2\n      sub\n      swap1\n      return\n        /* \"contracts/InquireA.sol\":7037:9425  function getAnswersByQuestionId(... */\n    tag_22:\n      callvalue\n      dup1\n      iszero\n      tag_123\n      jumpi\n      0x00\n      dup1\n      revert\n    tag_123:\n      pop\n      tag_124\n      0x04\n      dup1\n      calldatasize\n      sub\n      dup2\n      add\n      swap1\n      tag_125\n      swap2\n      swap1\n      tag_126\n      jump\t// in\n    tag_125:\n      tag_127\n      jump\t// in\n    tag_124:\n      mload(0x40)\n      tag_128\n      swap4\n      swap3\n      swap2\n      swap1\n      tag_129\n      jump\t// in\n    tag_128:\n      mload(0x40)\n      dup1\n      swap2\n      sub\n      swap1\n      return\n        /* \"contracts/InquireA.sol\":230:267  uint256 public constant WEEK = 7 days */\n    tag_23:\n      callvalue\n      dup1\n      iszero\n      tag_130\n      jumpi\n      0x00\n      dup1\n      revert\n    tag_130:\n      pop\n      tag_131\n      tag_132\n      jump\t// in\n    tag_131:\n      mload(0x40)\n      tag_133\n      swap2\n      swap1\n      tag_53\n      jump\t// in\n    tag_133:\n      mload(0x40)\n      dup1\n      swap2\n      sub\n      swap1\n      return\n        /* \"contracts/InquireA.sol\":4382:5738  function getQuestions(uint256 pageIndex, uint256 pageSize) ... */\n    tag_24:\n      callvalue\n      dup1\n      iszero\n      tag_134\n      jumpi\n      0x00\n      dup1\n      revert\n    tag_134:\n      pop\n      tag_135\n      0x04\n      dup1\n      calldatasize\n      sub\n      dup2\n      add\n      swap1\n      tag_136\n      swap2\n      swap1\n      tag_31\n      jump\t// in\n    tag_136:\n      tag_137\n      jump\t// in\n    tag_135:\n      mload(0x40)\n      tag_138\n      swap4\n      swap3\n      swap2\n      swap1\n      tag_139\n      jump\t// in\n    tag_138:\n      mload(0x40)\n      dup1\n      swap2\n      sub\n      swap1\n      return\n        /* \"contracts/InquireA.sol\":10249:10651  function closeQuestion(uint256 questionId, uint256 answerId) public questionExists(questionId) notClosed(questionId) {... */\n    tag_32:\n        /* \"contracts/InquireA.sol\":10332:10342  questionId */\n      dup2\n        /* \"contracts/InquireA.sol\":1986:1987  0 */\n      0x00\n        /* \"contracts/InquireA.sol\":1947:1988  questions[questionId].asker != address(0) */\n      0xffffffffffffffffffffffffffffffffffffffff\n      and\n        /* \"contracts/InquireA.sol\":1947:1956  questions */\n      0x04\n        /* \"contracts/InquireA.sol\":1947:1968  questions[questionId] */\n      0x00\n        /* \"contracts/InquireA.sol\":1957:1967  questionId */\n      dup4\n        /* \"contracts/InquireA.sol\":1947:1968  questions[questionId] */\n      dup2\n      mstore\n      0x20\n      add\n      swap1\n      dup2\n      mstore\n      0x20\n      add\n      0x00\n      keccak256\n        /* \"contracts/InquireA.sol\":1947:1974  questions[questionId].asker */\n      0x01\n      add\n      0x00\n      swap1\n      sload\n      swap1\n      0x0100\n      exp\n      swap1\n      div\n      0xffffffffffffffffffffffffffffffffffffffff\n      and\n        /* \"contracts/InquireA.sol\":1947:1988  questions[questionId].asker != address(0) */\n      0xffffffffffffffffffffffffffffffffffffffff\n      and\n      sub\n        /* \"contracts/InquireA.sol\":1939:2016  require(questions[questionId].asker != address(0), \"Question does not exist\") */\n      tag_141\n      jumpi\n      mload(0x40)\n      0x08c379a000000000000000000000000000000000000000000000000000000000\n      dup2\n      mstore\n      0x04\n      add\n      tag_142\n      swap1\n      tag_143\n      jump\t// in\n    tag_142:\n      mload(0x40)\n      dup1\n      swap2\n      sub\n      swap1\n      revert\n    tag_141:\n        /* \"contracts/InquireA.sol\":10354:10364  questionId */\n      dup3\n        /* \"contracts/InquireA.sol\":2103:2112  questions */\n      0x04\n        /* \"contracts/InquireA.sol\":2103:2124  questions[questionId] */\n      0x00\n        /* \"contracts/InquireA.sol\":2113:2123  questionId */\n      dup3\n        /* \"contracts/InquireA.sol\":2103:2124  questions[questionId] */\n      dup2\n      mstore\n      0x20\n      add\n      swap1\n      dup2\n      mstore\n      0x20\n      add\n      0x00\n      keccak256\n        /* \"contracts/InquireA.sol\":2103:2133  questions[questionId].isClosed */\n      0x08\n      add\n      0x00\n      swap1\n      sload\n      swap1\n      0x0100\n      exp\n      swap1\n      div\n      0xff\n      and\n        /* \"contracts/InquireA.sol\":2102:2133  !questions[questionId].isClosed */\n      iszero\n        /* \"contracts/InquireA.sol\":2094:2164  require(!questions[questionId].isClosed, \"Question is already closed\") */\n      tag_145\n      jumpi\n      mload(0x40)\n      0x08c379a000000000000000000000000000000000000000000000000000000000\n      dup2\n      mstore\n      0x04\n      add\n      tag_146\n      swap1\n      tag_147\n      jump\t// in\n    tag_146:\n      mload(0x40)\n      dup1\n      swap2\n      sub\n      swap1\n      revert\n    tag_145:\n        /* \"contracts/InquireA.sol\":10377:10402  Question storage question */\n      0x00\n        /* \"contracts/InquireA.sol\":10405:10414  questions */\n      0x04\n        /* \"contracts/InquireA.sol\":10405:10426  questions[questionId] */\n      0x00\n        /* \"contracts/InquireA.sol\":10415:10425  questionId */\n      dup7\n        /* \"contracts/InquireA.sol\":10405:10426  questions[questionId] */\n      dup2\n      mstore\n      0x20\n      add\n      swap1\n      dup2\n      mstore\n      0x20\n      add\n      0x00\n      keccak256\n        /* \"contracts/InquireA.sol\":10377:10426  Question storage question = questions[questionId] */\n      swap1\n      pop\n        /* \"contracts/InquireA.sol\":10459:10467  question */\n      dup1\n        /* \"contracts/InquireA.sol\":10459:10473  question.asker */\n      0x01\n      add\n      0x00\n      swap1\n      sload\n      swap1\n      0x0100\n      exp\n      swap1\n      div\n      0xffffffffffffffffffffffffffffffffffffffff\n      and\n        /* \"contracts/InquireA.sol\":10445:10473  msg.sender == question.asker */\n      0xffffffffffffffffffffffffffffffffffffffff\n      and\n        /* \"contracts/InquireA.sol\":10445:10455  msg.sender */\n      caller\n        /* \"contracts/InquireA.sol\":10445:10473  msg.sender == question.asker */\n      0xffffffffffffffffffffffffffffffffffffffff\n      and\n      eq\n        /* \"contracts/InquireA.sol\":10437:10507  require(msg.sender == question.asker, \"Only asker can close question\") */\n      tag_149\n      jumpi\n      mload(0x40)\n      0x08c379a000000000000000000000000000000000000000000000000000000000\n      dup2\n      mstore\n      0x04\n      add\n      tag_150\n      swap1\n      tag_151\n      jump\t// in\n    tag_150:\n      mload(0x40)\n      dup1\n      swap2\n      sub\n      swap1\n      revert\n    tag_149:\n        /* \"contracts/InquireA.sol\":10540:10544  true */\n      0x01\n        /* \"contracts/InquireA.sol\":10520:10528  question */\n      dup2\n        /* \"contracts/InquireA.sol\":10520:10537  question.isClosed */\n      0x08\n      add\n      0x00\n        /* \"contracts/InquireA.sol\":10520:10544  question.isClosed = true */\n      0x0100\n      exp\n      dup2\n      sload\n      dup2\n      0xff\n      mul\n      not\n      and\n      swap1\n      dup4\n      iszero\n      iszero\n      mul\n      or\n      swap1\n      sstore\n      pop\n        /* \"contracts/InquireA.sol\":10581:10589  answerId */\n      dup4\n        /* \"contracts/InquireA.sol\":10555:10563  question */\n      dup2\n        /* \"contracts/InquireA.sol\":10555:10578  question.chosenAnswerId */\n      0x09\n      add\n        /* \"contracts/InquireA.sol\":10555:10589  question.chosenAnswerId = answerId */\n      dup2\n      swap1\n      sstore\n      pop\n        /* \"contracts/InquireA.sol\":10607:10643  QuestionClosed(questionId, answerId) */\n      0x99fe2c8abd13b610e7f7d4a51a49e1391ba19454b72305176b884d66010e475a\n        /* \"contracts/InquireA.sol\":10622:10632  questionId */\n      dup6\n        /* \"contracts/InquireA.sol\":10634:10642  answerId */\n      dup6\n        /* \"contracts/InquireA.sol\":10607:10643  QuestionClosed(questionId, answerId) */\n      mload(0x40)\n      tag_152\n      swap3\n      swap2\n      swap1\n      tag_153\n      jump\t// in\n    tag_152:\n      mload(0x40)\n      dup1\n      swap2\n      sub\n      swap1\n      log1\n        /* \"contracts/InquireA.sol\":10366:10651  {... */\n      pop\n        /* \"contracts/InquireA.sol\":2027:2028  _ */\n      pop\n        /* \"contracts/InquireA.sol\":10249:10651  function closeQuestion(uint256 questionId, uint256 answerId) public questionExists(questionId) notClosed(questionId) {... */\n      pop\n      pop\n      pop\n      jump\t// out\n        /* \"contracts/InquireA.sol\":3621:4319  function submitAnswer(uint256 questionId, string memory _answerText) public questionExists(questionId) notClosed(questionId) {... */\n    tag_37:\n        /* \"contracts/InquireA.sol\":3712:3722  questionId */\n      dup2\n        /* \"contracts/InquireA.sol\":1986:1987  0 */\n      0x00\n        /* \"contracts/InquireA.sol\":1947:1988  questions[questionId].asker != address(0) */\n      0xffffffffffffffffffffffffffffffffffffffff\n      and\n        /* \"contracts/InquireA.sol\":1947:1956  questions */\n      0x04\n        /* \"contracts/InquireA.sol\":1947:1968  questions[questionId] */\n      0x00\n        /* \"contracts/InquireA.sol\":1957:1967  questionId */\n      dup4\n        /* \"contracts/InquireA.sol\":1947:1968  questions[questionId] */\n      dup2\n      mstore\n      0x20\n      add\n      swap1\n      dup2\n      mstore\n      0x20\n      add\n      0x00\n      keccak256\n        /* \"contracts/InquireA.sol\":1947:1974  questions[questionId].asker */\n      0x01\n      add\n      0x00\n      swap1\n      sload\n      swap1\n      0x0100\n      exp\n      swap1\n      div\n      0xffffffffffffffffffffffffffffffffffffffff\n      and\n        /* \"contracts/InquireA.sol\":1947:1988  questions[questionId].asker != address(0) */\n      0xffffffffffffffffffffffffffffffffffffffff\n      and\n      sub\n        /* \"contracts/InquireA.sol\":1939:2016  require(questions[questionId].asker != address(0), \"Question does not exist\") */\n      tag_155\n      jumpi\n      mload(0x40)\n      0x08c379a000000000000000000000000000000000000000000000000000000000\n      dup2\n      mstore\n      0x04\n      add\n      tag_156\n      swap1\n      tag_143\n      jump\t// in\n    tag_156:\n      mload(0x40)\n      dup1\n      swap2\n      sub\n      swap1\n      revert\n    tag_155:\n        /* \"contracts/InquireA.sol\":3734:3744  questionId */\n      dup3\n        /* \"contracts/InquireA.sol\":2103:2112  questions */\n      0x04\n        /* \"contracts/InquireA.sol\":2103:2124  questions[questionId] */\n      0x00\n        /* \"contracts/InquireA.sol\":2113:2123  questionId */\n      dup3\n        /* \"contracts/InquireA.sol\":2103:2124  questions[questionId] */\n      dup2\n      mstore\n      0x20\n      add\n      swap1\n      dup2\n      mstore\n      0x20\n      add\n      0x00\n      keccak256\n        /* \"contracts/InquireA.sol\":2103:2133  questions[questionId].isClosed */\n      0x08\n      add\n      0x00\n      swap1\n      sload\n      swap1\n      0x0100\n      exp\n      swap1\n      div\n      0xff\n      and\n        /* \"contracts/InquireA.sol\":2102:2133  !questions[questionId].isClosed */\n      iszero\n        /* \"contracts/InquireA.sol\":2094:2164  require(!questions[questionId].isClosed, \"Question is already closed\") */\n      tag_158\n      jumpi\n      mload(0x40)\n      0x08c379a000000000000000000000000000000000000000000000000000000000\n      dup2\n      mstore\n      0x04\n      add\n      tag_159\n      swap1\n      tag_147\n      jump\t// in\n    tag_159:\n      mload(0x40)\n      dup1\n      swap2\n      sub\n      swap1\n      revert\n    tag_158:\n        /* \"contracts/InquireA.sol\":3757:3781  Question memory question */\n      0x00\n        /* \"contracts/InquireA.sol\":3784:3793  questions */\n      0x04\n        /* \"contracts/InquireA.sol\":3784:3805  questions[questionId] */\n      0x00\n        /* \"contracts/InquireA.sol\":3794:3804  questionId */\n      dup7\n        /* \"contracts/InquireA.sol\":3784:3805  questions[questionId] */\n      dup2\n      mstore\n      0x20\n      add\n      swap1\n      dup2\n      mstore\n      0x20\n      add\n      0x00\n      keccak256\n        /* \"contracts/InquireA.sol\":3757:3805  Question memory question = questions[questionId] */\n      mload(0x40)\n      dup1\n      0x0140\n      add\n      0x40\n      mstore\n      swap1\n      dup2\n      0x00\n      dup3\n      add\n      sload\n      dup2\n      mstore\n      0x20\n      add\n      0x01\n      dup3\n      add\n      0x00\n      swap1\n      sload\n      swap1\n      0x0100\n      exp\n      swap1\n      div\n      0xffffffffffffffffffffffffffffffffffffffff\n      and\n      0xffffffffffffffffffffffffffffffffffffffff\n      and\n      0xffffffffffffffffffffffffffffffffffffffff\n      and\n      dup2\n      mstore\n      0x20\n      add\n      0x02\n      dup3\n      add\n      dup1\n      sload\n      tag_161\n      swap1\n      tag_162\n      jump\t// in\n    tag_161:\n      dup1\n      0x1f\n      add\n      0x20\n      dup1\n      swap2\n      div\n      mul\n      0x20\n      add\n      mload(0x40)\n      swap1\n      dup2\n      add\n      0x40\n      mstore\n      dup1\n      swap3\n      swap2\n      swap1\n      dup2\n      dup2\n      mstore\n      0x20\n      add\n      dup3\n      dup1\n      sload\n      tag_163\n      swap1\n      tag_162\n      jump\t// in\n    tag_163:\n      dup1\n      iszero\n      tag_164\n      jumpi\n      dup1\n      0x1f\n      lt\n      tag_165\n      jumpi\n      0x0100\n      dup1\n      dup4\n      sload\n      div\n      mul\n      dup4\n      mstore\n      swap2\n      0x20\n      add\n      swap2\n      jump(tag_164)\n    tag_165:\n      dup3\n      add\n      swap2\n      swap1\n      0x00\n      mstore\n      keccak256(0x00, 0x20)\n      swap1\n    tag_166:\n      dup2\n      sload\n      dup2\n      mstore\n      swap1\n      0x01\n      add\n      swap1\n      0x20\n      add\n      dup1\n      dup4\n      gt\n      tag_166\n      jumpi\n      dup3\n      swap1\n      sub\n      0x1f\n      and\n      dup3\n      add\n      swap2\n    tag_164:\n      pop\n      pop\n      pop\n      pop\n      pop\n      dup2\n      mstore\n      0x20\n      add\n      0x03\n      dup3\n      add\n      dup1\n      sload\n      tag_167\n      swap1\n      tag_162\n      jump\t// in\n    tag_167:\n      dup1\n      0x1f\n      add\n      0x20\n      dup1\n      swap2\n      div\n      mul\n      0x20\n      add\n      mload(0x40)\n      swap1\n      dup2\n      add\n      0x40\n      mstore\n      dup1\n      swap3\n      swap2\n      swap1\n      dup2\n      dup2\n      mstore\n      0x20\n      add\n      dup3\n      dup1\n      sload\n      tag_168\n      swap1\n      tag_162\n      jump\t// in\n    tag_168:\n      dup1\n      iszero\n      tag_169\n      jumpi\n      dup1\n      0x1f\n      lt\n      tag_170\n      jumpi\n      0x0100\n      dup1\n      dup4\n      sload\n      div\n      mul\n      dup4\n      mstore\n      swap2\n      0x20\n      add\n      swap2\n      jump(tag_169)\n    tag_170:\n      dup3\n      add\n      swap2\n      swap1\n      0x00\n      mstore\n      keccak256(0x00, 0x20)\n      swap1\n    tag_171:\n      dup2\n      sload\n      dup2\n      mstore\n      swap1\n      0x01\n      add\n      swap1\n      0x20\n      add\n      dup1\n      dup4\n      gt\n      tag_171\n      jumpi\n      dup3\n      swap1\n      sub\n      0x1f\n      and\n      dup3\n      add\n      swap2\n    tag_169:\n      pop\n      pop\n      pop\n      pop\n      pop\n      dup2\n      mstore\n      0x20\n      add\n      0x04\n      dup3\n      add\n      dup1\n      sload\n      tag_172\n      swap1\n      tag_162\n      jump\t// in\n    tag_172:\n      dup1\n      0x1f\n      add\n      0x20\n      dup1\n      swap2\n      div\n      mul\n      0x20\n      add\n      mload(0x40)\n      swap1\n      dup2\n      add\n      0x40\n      mstore\n      dup1\n      swap3\n      swap2\n      swap1\n      dup2\n      dup2\n      mstore\n      0x20\n      add\n      dup3\n      dup1\n      sload\n      tag_173\n      swap1\n      tag_162\n      jump\t// in\n    tag_173:\n      dup1\n      iszero\n      tag_174\n      jumpi\n      dup1\n      0x1f\n      lt\n      tag_175\n      jumpi\n      0x0100\n      dup1\n      dup4\n      sload\n      div\n      mul\n      dup4\n      mstore\n      swap2\n      0x20\n      add\n      swap2\n      jump(tag_174)\n    tag_175:\n      dup3\n      add\n      swap2\n      swap1\n      0x00\n      mstore\n      keccak256(0x00, 0x20)\n      swap1\n    tag_176:\n      dup2\n      sload\n      dup2\n      mstore\n      swap1\n      0x01\n      add\n      swap1\n      0x20\n      add\n      dup1\n      dup4\n      gt\n      tag_176\n      jumpi\n      dup3\n      swap1\n      sub\n      0x1f\n      and\n      dup3\n      add\n      swap2\n    tag_174:\n      pop\n      pop\n      pop\n      pop\n      pop\n      dup2\n      mstore\n      0x20\n      add\n      0x05\n      dup3\n      add\n      sload\n      dup2\n      mstore\n      0x20\n      add\n      0x06\n      dup3\n      add\n      sload\n      dup2\n      mstore\n      0x20\n      add\n      0x07\n      dup3\n      add\n      sload\n      dup2\n      mstore\n      0x20\n      add\n      0x08\n      dup3\n      add\n      0x00\n      swap1\n      sload\n      swap1\n      0x0100\n      exp\n      swap1\n      div\n      0xff\n      and\n      iszero\n      iszero\n      iszero\n      iszero\n      dup2\n      mstore\n      0x20\n      add\n      0x09\n      dup3\n      add\n      sload\n      dup2\n      mstore\n      pop\n      pop\n      swap1\n      pop\n        /* \"contracts/InquireA.sol\":3843:3851  question */\n      dup1\n        /* \"contracts/InquireA.sol\":3843:3860  question.deadline */\n      0xe0\n      add\n      mload\n        /* \"contracts/InquireA.sol\":3824:3839  block.timestamp */\n      timestamp\n        /* \"contracts/InquireA.sol\":3824:3860  block.timestamp <= question.deadline */\n      gt\n      iszero\n        /* \"contracts/InquireA.sol\":3816:3893  require(block.timestamp <= question.deadline, \"Question deadline has passed\") */\n      tag_177\n      jumpi\n      mload(0x40)\n      0x08c379a000000000000000000000000000000000000000000000000000000000\n      dup2\n      mstore\n      0x04\n      add\n      tag_178\n      swap1\n      tag_179\n      jump\t// in\n    tag_178:\n      mload(0x40)\n      dup1\n      swap2\n      sub\n      swap1\n      revert\n    tag_177:\n        /* \"contracts/InquireA.sol\":3906:3922  uint256 answerId */\n      0x00\n        /* \"contracts/InquireA.sol\":3925:3940  answerIdCounter */\n      0x03\n      0x00\n        /* \"contracts/InquireA.sol\":3925:3942  answerIdCounter++ */\n      dup2\n      sload\n      dup1\n      swap3\n      swap2\n      swap1\n      tag_180\n      swap1\n      tag_181\n      jump\t// in\n    tag_180:\n      swap2\n      swap1\n      pop\n      sstore\n        /* \"contracts/InquireA.sol\":3906:3942  uint256 answerId = answerIdCounter++ */\n      swap1\n      pop\n        /* \"contracts/InquireA.sol\":3985:4231  Answer({... */\n      mload(0x40)\n      dup1\n      0xc0\n      add\n      0x40\n      mstore\n      dup1\n        /* \"contracts/InquireA.sol\":4011:4019  answerId */\n      dup3\n        /* \"contracts/InquireA.sol\":3985:4231  Answer({... */\n      dup2\n      mstore\n      0x20\n      add\n        /* \"contracts/InquireA.sol\":4075:4085  msg.sender */\n      caller\n        /* \"contracts/InquireA.sol\":3985:4231  Answer({... */\n      0xffffffffffffffffffffffffffffffffffffffff\n      and\n      dup2\n      mstore\n      0x20\n      add\n        /* \"contracts/InquireA.sol\":4112:4123  _answerText */\n      dup7\n        /* \"contracts/InquireA.sol\":3985:4231  Answer({... */\n      dup2\n      mstore\n      0x20\n      add\n        /* \"contracts/InquireA.sol\":4147:4148  0 */\n      0x00\n        /* \"contracts/InquireA.sol\":3985:4231  Answer({... */\n      dup2\n      mstore\n      0x20\n      add\n        /* \"contracts/InquireA.sol\":4177:4178  0 */\n      0x00\n        /* \"contracts/InquireA.sol\":3985:4231  Answer({... */\n      dup2\n      mstore\n      0x20\n      add\n        /* \"contracts/InquireA.sol\":4204:4219  block.timestamp */\n      timestamp\n        /* \"contracts/InquireA.sol\":3985:4231  Answer({... */\n      dup2\n      mstore\n      pop\n        /* \"contracts/InquireA.sol\":3953:3960  answers */\n      0x05\n        /* \"contracts/InquireA.sol\":3953:3972  answers[questionId] */\n      0x00\n        /* \"contracts/InquireA.sol\":3961:3971  questionId */\n      dup9\n        /* \"contracts/InquireA.sol\":3953:3972  answers[questionId] */\n      dup2\n      mstore\n      0x20\n      add\n      swap1\n      dup2\n      mstore\n      0x20\n      add\n      0x00\n      keccak256\n        /* \"contracts/InquireA.sol\":3953:3982  answers[questionId][answerId] */\n      0x00\n        /* \"contracts/InquireA.sol\":3973:3981  answerId */\n      dup4\n        /* \"contracts/InquireA.sol\":3953:3982  answers[questionId][answerId] */\n      dup2\n      mstore\n      0x20\n      add\n      swap1\n      dup2\n      mstore\n      0x20\n      add\n      0x00\n      keccak256\n        /* \"contracts/InquireA.sol\":3953:4231  answers[questionId][answerId] = Answer({... */\n      0x00\n      dup3\n      add\n      mload\n      dup2\n      0x00\n      add\n      sstore\n      0x20\n      dup3\n      add\n      mload\n      dup2\n      0x01\n      add\n      exp(0x0100, 0x00)\n      dup2\n      sload\n      dup2\n      0xffffffffffffffffffffffffffffffffffffffff\n      mul\n      not\n      and\n      swap1\n      dup4\n      0xffffffffffffffffffffffffffffffffffffffff\n      and\n      mul\n      or\n      swap1\n      sstore\n      pop\n      0x40\n      dup3\n      add\n      mload\n      dup2\n      0x02\n      add\n      swap1\n      dup2\n      tag_182\n      swap2\n      swap1\n      tag_183\n      jump\t// in\n    tag_182:\n      pop\n      0x60\n      dup3\n      add\n      mload\n      dup2\n      0x03\n      add\n      sstore\n      0x80\n      dup3\n      add\n      mload\n      dup2\n      0x04\n      add\n      sstore\n      0xa0\n      dup3\n      add\n      mload\n      dup2\n      0x05\n      add\n      sstore\n      swap1\n      pop\n      pop\n        /* \"contracts/InquireA.sol\":4287:4297  msg.sender */\n      caller\n        /* \"contracts/InquireA.sol\":4249:4311  AnswerSubmitted(questionId, answerId, msg.sender, _answerText) */\n      0xffffffffffffffffffffffffffffffffffffffff\n      and\n      0x1b72a809869907cac4c4e55b8bf6920ff492d2ff53307bb77ba492366b61387c\n        /* \"contracts/InquireA.sol\":4265:4275  questionId */\n      dup8\n        /* \"contracts/InquireA.sol\":4277:4285  answerId */\n      dup4\n        /* \"contracts/InquireA.sol\":4299:4310  _answerText */\n      dup9\n        /* \"contracts/InquireA.sol\":4249:4311  AnswerSubmitted(questionId, answerId, msg.sender, _answerText) */\n      mload(0x40)\n      tag_184\n      swap4\n      swap3\n      swap2\n      swap1\n      tag_185\n      jump\t// in\n    tag_184:\n      mload(0x40)\n      dup1\n      swap2\n      sub\n      swap1\n      log2\n        /* \"contracts/InquireA.sol\":3746:4319  {... */\n      pop\n      pop\n        /* \"contracts/InquireA.sol\":2027:2028  _ */\n      pop\n        /* \"contracts/InquireA.sol\":3621:4319  function submitAnswer(uint256 questionId, string memory _answerText) public questionExists(questionId) notClosed(questionId) {... */\n      pop\n      pop\n      pop\n      jump\t// out\n        /* \"contracts/InquireA.sol\":1072:1133  mapping(uint256 => mapping(uint256 => Answer)) public answers */\n    tag_41:\n      mstore(0x20, 0x05)\n      dup2\n      0x00\n      mstore\n      mstore(0x20, keccak256(0x00, 0x40))\n      dup1\n      0x00\n      mstore\n      keccak256(0x00, 0x40)\n      0x00\n      swap2\n      pop\n      swap2\n      pop\n      pop\n      dup1\n      0x00\n      add\n      sload\n      swap1\n      dup1\n      0x01\n      add\n      0x00\n      swap1\n      sload\n      swap1\n      0x0100\n      exp\n      swap1\n      div\n      0xffffffffffffffffffffffffffffffffffffffff\n      and\n      swap1\n      dup1\n      0x02\n      add\n      dup1\n      sload\n      tag_186\n      swap1\n      tag_162\n      jump\t// in\n    tag_186:\n      dup1\n      0x1f\n      add\n      0x20\n      dup1\n      swap2\n      div\n      mul\n      0x20\n      add\n      mload(0x40)\n      swap1\n      dup2\n      add\n      0x40\n      mstore\n      dup1\n      swap3\n      swap2\n      swap1\n      dup2\n      dup2\n      mstore\n      0x20\n      add\n      dup3\n      dup1\n      sload\n      tag_187\n      swap1\n      tag_162\n      jump\t// in\n    tag_187:\n      dup1\n      iszero\n      tag_188\n      jumpi\n      dup1\n      0x1f\n      lt\n      tag_189\n      jumpi\n      0x0100\n      dup1\n      dup4\n      sload\n      div\n      mul\n      dup4\n      mstore\n      swap2\n      0x20\n      add\n      swap2\n      jump(tag_188)\n    tag_189:\n      dup3\n      add\n      swap2\n      swap1\n      0x00\n      mstore\n      keccak256(0x00, 0x20)\n      swap1\n    tag_190:\n      dup2\n      sload\n      dup2\n      mstore\n      swap1\n      0x01\n      add\n      swap1\n      0x20\n      add\n      dup1\n      dup4\n      gt\n      tag_190\n      jumpi\n      dup3\n      swap1\n      sub\n      0x1f\n      and\n      dup3\n      add\n      swap2\n    tag_188:\n      pop\n      pop\n      pop\n      pop\n      pop\n      swap1\n      dup1\n      0x03\n      add\n      sload\n      swap1\n      dup1\n      0x04\n      add\n      sload\n      swap1\n      dup1\n      0x05\n      add\n      sload\n      swap1\n      pop\n      dup7\n      jump\t// out\n        /* \"contracts/InquireA.sol\":9691:10241  function voteForAnswer(uint256 questionId, uint256 answerId) public payable questionExists(questionId) notClosed(questionId) {... */\n    tag_46:\n        /* \"contracts/InquireA.sol\":9782:9792  questionId */\n      dup2\n        /* \"contracts/InquireA.sol\":1986:1987  0 */\n      0x00\n        /* \"contracts/InquireA.sol\":1947:1988  questions[questionId].asker != address(0) */\n      0xffffffffffffffffffffffffffffffffffffffff\n      and\n        /* \"contracts/InquireA.sol\":1947:1956  questions */\n      0x04\n        /* \"contracts/InquireA.sol\":1947:1968  questions[questionId] */\n      0x00\n        /* \"contracts/InquireA.sol\":1957:1967  questionId */\n      dup4\n        /* \"contracts/InquireA.sol\":1947:1968  questions[questionId] */\n      dup2\n      mstore\n      0x20\n      add\n      swap1\n      dup2\n      mstore\n      0x20\n      add\n      0x00\n      keccak256\n        /* \"contracts/InquireA.sol\":1947:1974  questions[questionId].asker */\n      0x01\n      add\n      0x00\n      swap1\n      sload\n      swap1\n      0x0100\n      exp\n      swap1\n      div\n      0xffffffffffffffffffffffffffffffffffffffff\n      and\n        /* \"contracts/InquireA.sol\":1947:1988  questions[questionId].asker != address(0) */\n      0xffffffffffffffffffffffffffffffffffffffff\n      and\n      sub\n        /* \"contracts/InquireA.sol\":1939:2016  require(questions[questionId].asker != address(0), \"Question does not exist\") */\n      tag_192\n      jumpi\n      mload(0x40)\n      0x08c379a000000000000000000000000000000000000000000000000000000000\n      dup2\n      mstore\n      0x04\n      add\n      tag_193\n      swap1\n      tag_143\n      jump\t// in\n    tag_193:\n      mload(0x40)\n      dup1\n      swap2\n      sub\n      swap1\n      revert\n    tag_192:\n        /* \"contracts/InquireA.sol\":9804:9814  questionId */\n      dup3\n        /* \"contracts/InquireA.sol\":2103:2112  questions */\n      0x04\n        /* \"contracts/InquireA.sol\":2103:2124  questions[questionId] */\n      0x00\n        /* \"contracts/InquireA.sol\":2113:2123  questionId */\n      dup3\n        /* \"contracts/InquireA.sol\":2103:2124  questions[questionId] */\n      dup2\n      mstore\n      0x20\n      add\n      swap1\n      dup2\n      mstore\n      0x20\n      add\n      0x00\n      keccak256\n        /* \"contracts/InquireA.sol\":2103:2133  questions[questionId].isClosed */\n      0x08\n      add\n      0x00\n      swap1\n      sload\n      swap1\n      0x0100\n      exp\n      swap1\n      div\n      0xff\n      and\n        /* \"contracts/InquireA.sol\":2102:2133  !questions[questionId].isClosed */\n      iszero\n        /* \"contracts/InquireA.sol\":2094:2164  require(!questions[questionId].isClosed, \"Question is already closed\") */\n      tag_195\n      jumpi\n      mload(0x40)\n      0x08c379a000000000000000000000000000000000000000000000000000000000\n      dup2\n      mstore\n      0x04\n      add\n      tag_196\n      swap1\n      tag_147\n      jump\t// in\n    tag_196:\n      mload(0x40)\n      dup1\n      swap2\n      sub\n      swap1\n      revert\n    tag_195:\n        /* \"contracts/InquireA.sol\":9827:9851  Question memory question */\n      0x00\n        /* \"contracts/InquireA.sol\":9854:9863  questions */\n      0x04\n        /* \"contracts/InquireA.sol\":9854:9875  questions[questionId] */\n      0x00\n        /* \"contracts/InquireA.sol\":9864:9874  questionId */\n      dup7\n        /* \"contracts/InquireA.sol\":9854:9875  questions[questionId] */\n      dup2\n      mstore\n      0x20\n      add\n      swap1\n      dup2\n      mstore\n      0x20\n      add\n      0x00\n      keccak256\n        /* \"contracts/InquireA.sol\":9827:9875  Question memory question = questions[questionId] */\n      mload(0x40)\n      dup1\n      0x0140\n      add\n      0x40\n      mstore\n      swap1\n      dup2\n      0x00\n      dup3\n      add\n      sload\n      dup2\n      mstore\n      0x20\n      add\n      0x01\n      dup3\n      add\n      0x00\n      swap1\n      sload\n      swap1\n      0x0100\n      exp\n      swap1\n      div\n      0xffffffffffffffffffffffffffffffffffffffff\n      and\n      0xffffffffffffffffffffffffffffffffffffffff\n      and\n      0xffffffffffffffffffffffffffffffffffffffff\n      and\n      dup2\n      mstore\n      0x20\n      add\n      0x02\n      dup3\n      add\n      dup1\n      sload\n      tag_198\n      swap1\n      tag_162\n      jump\t// in\n    tag_198:\n      dup1\n      0x1f\n      add\n      0x20\n      dup1\n      swap2\n      div\n      mul\n      0x20\n      add\n      mload(0x40)\n      swap1\n      dup2\n      add\n      0x40\n      mstore\n      dup1\n      swap3\n      swap2\n      swap1\n      dup2\n      dup2\n      mstore\n      0x20\n      add\n      dup3\n      dup1\n      sload\n      tag_199\n      swap1\n      tag_162\n      jump\t// in\n    tag_199:\n      dup1\n      iszero\n      tag_200\n      jumpi\n      dup1\n      0x1f\n      lt\n      tag_201\n      jumpi\n      0x0100\n      dup1\n      dup4\n      sload\n      div\n      mul\n      dup4\n      mstore\n      swap2\n      0x20\n      add\n      swap2\n      jump(tag_200)\n    tag_201:\n      dup3\n      add\n      swap2\n      swap1\n      0x00\n      mstore\n      keccak256(0x00, 0x20)\n      swap1\n    tag_202:\n      dup2\n      sload\n      dup2\n      mstore\n      swap1\n      0x01\n      add\n      swap1\n      0x20\n      add\n      dup1\n      dup4\n      gt\n      tag_202\n      jumpi\n      dup3\n      swap1\n      sub\n      0x1f\n      and\n      dup3\n      add\n      swap2\n    tag_200:\n      pop\n      pop\n      pop\n      pop\n      pop\n      dup2\n      mstore\n      0x20\n      add\n      0x03\n      dup3\n      add\n      dup1\n      sload\n      tag_203\n      swap1\n      tag_162\n      jump\t// in\n    tag_203:\n      dup1\n      0x1f\n      add\n      0x20\n      dup1\n      swap2\n      div\n      mul\n      0x20\n      add\n      mload(0x40)\n      swap1\n      dup2\n      add\n      0x40\n      mstore\n      dup1\n      swap3\n      swap2\n      swap1\n      dup2\n      dup2\n      mstore\n      0x20\n      add\n      dup3\n      dup1\n      sload\n      tag_204\n      swap1\n      tag_162\n      jump\t// in\n    tag_204:\n      dup1\n      iszero\n      tag_205\n      jumpi\n      dup1\n      0x1f\n      lt\n      tag_206\n      jumpi\n      0x0100\n      dup1\n      dup4\n      sload\n      div\n      mul\n      dup4\n      mstore\n      swap2\n      0x20\n      add\n      swap2\n      jump(tag_205)\n    tag_206:\n      dup3\n      add\n      swap2\n      swap1\n      0x00\n      mstore\n      keccak256(0x00, 0x20)\n      swap1\n    tag_207:\n      dup2\n      sload\n      dup2\n      mstore\n      swap1\n      0x01\n      add\n      swap1\n      0x20\n      add\n      dup1\n      dup4\n      gt\n      tag_207\n      jumpi\n      dup3\n      swap1\n      sub\n      0x1f\n      and\n      dup3\n      add\n      swap2\n    tag_205:\n      pop\n      pop\n      pop\n      pop\n      pop\n      dup2\n      mstore\n      0x20\n      add\n      0x04\n      dup3\n      add\n      dup1\n      sload\n      tag_208\n      swap1\n      tag_162\n      jump\t// in\n    tag_208:\n      dup1\n      0x1f\n      add\n      0x20\n      dup1\n      swap2\n      div\n      mul\n      0x20\n      add\n      mload(0x40)\n      swap1\n      dup2\n      add\n      0x40\n      mstore\n      dup1\n      swap3\n      swap2\n      swap1\n      dup2\n      dup2\n      mstore\n      0x20\n      add\n      dup3\n      dup1\n      sload\n      tag_209\n      swap1\n      tag_162\n      jump\t// in\n    tag_209:\n      dup1\n      iszero\n      tag_210\n      jumpi\n      dup1\n      0x1f\n      lt\n      tag_211\n      jumpi\n      0x0100\n      dup1\n      dup4\n      sload\n      div\n      mul\n      dup4\n      mstore\n      swap2\n      0x20\n      add\n      swap2\n      jump(tag_210)\n    tag_211:\n      dup3\n      add\n      swap2\n      swap1\n      0x00\n      mstore\n      keccak256(0x00, 0x20)\n      swap1\n    tag_212:\n      dup2\n      sload\n      dup2\n      mstore\n      swap1\n      0x01\n      add\n      swap1\n      0x20\n      add\n      dup1\n      dup4\n      gt\n      tag_212\n      jumpi\n      dup3\n      swap1\n      sub\n      0x1f\n      and\n      dup3\n      add\n      swap2\n    tag_210:\n      pop\n      pop\n      pop\n      pop\n      pop\n      dup2\n      mstore\n      0x20\n      add\n      0x05\n      dup3\n      add\n      sload\n      dup2\n      mstore\n      0x20\n      add\n      0x06\n      dup3\n      add\n      sload\n      dup2\n      mstore\n      0x20\n      add\n      0x07\n      dup3\n      add\n      sload\n      dup2\n      mstore\n      0x20\n      add\n      0x08\n      dup3\n      add\n      0x00\n      swap1\n      sload\n      swap1\n      0x0100\n      exp\n      swap1\n      div\n      0xff\n      and\n      iszero\n      iszero\n      iszero\n      iszero\n      dup2\n      mstore\n      0x20\n      add\n      0x09\n      dup3\n      add\n      sload\n      dup2\n      mstore\n      pop\n      pop\n      swap1\n      pop\n        /* \"contracts/InquireA.sol\":9913:9921  question */\n      dup1\n        /* \"contracts/InquireA.sol\":9913:9930  question.deadline */\n      0xe0\n      add\n      mload\n        /* \"contracts/InquireA.sol\":9894:9909  block.timestamp */\n      timestamp\n        /* \"contracts/InquireA.sol\":9894:9930  block.timestamp <= question.deadline */\n      gt\n      iszero\n        /* \"contracts/InquireA.sol\":9886:9958  require(block.timestamp <= question.deadline, \"Voting period has ended\") */\n      tag_213\n      jumpi\n      mload(0x40)\n      0x08c379a000000000000000000000000000000000000000000000000000000000\n      dup2\n      mstore\n      0x04\n      add\n      tag_214\n      swap1\n      tag_215\n      jump\t// in\n    tag_214:\n      mload(0x40)\n      dup1\n      swap2\n      sub\n      swap1\n      revert\n    tag_213:\n        /* \"contracts/InquireA.sol\":9992:9999  voteFee */\n      sload(0x01)\n        /* \"contracts/InquireA.sol\":9979:9988  msg.value */\n      callvalue\n        /* \"contracts/InquireA.sol\":9979:9999  msg.value == voteFee */\n      eq\n        /* \"contracts/InquireA.sol\":9971:10022  require(msg.value == voteFee, \"Incorrect vote fee\") */\n      tag_216\n      jumpi\n      mload(0x40)\n      0x08c379a000000000000000000000000000000000000000000000000000000000\n      dup2\n      mstore\n      0x04\n      add\n      tag_217\n      swap1\n      tag_218\n      jump\t// in\n    tag_217:\n      mload(0x40)\n      dup1\n      swap2\n      sub\n      swap1\n      revert\n    tag_216:\n        /* \"contracts/InquireA.sol\":10035:10056  Answer storage answer */\n      0x00\n        /* \"contracts/InquireA.sol\":10059:10066  answers */\n      0x05\n        /* \"contracts/InquireA.sol\":10059:10078  answers[questionId] */\n      0x00\n        /* \"contracts/InquireA.sol\":10067:10077  questionId */\n      dup8\n        /* \"contracts/InquireA.sol\":10059:10078  answers[questionId] */\n      dup2\n      mstore\n      0x20\n      add\n      swap1\n      dup2\n      mstore\n      0x20\n      add\n      0x00\n      keccak256\n        /* \"contracts/InquireA.sol\":10059:10088  answers[questionId][answerId] */\n      0x00\n        /* \"contracts/InquireA.sol\":10079:10087  answerId */\n      dup7\n        /* \"contracts/InquireA.sol\":10059:10088  answers[questionId][answerId] */\n      dup2\n      mstore\n      0x20\n      add\n      swap1\n      dup2\n      mstore\n      0x20\n      add\n      0x00\n      keccak256\n        /* \"contracts/InquireA.sol\":10035:10088  Answer storage answer = answers[questionId][answerId] */\n      swap1\n      pop\n        /* \"contracts/InquireA.sol\":10117:10118  1 */\n      0x01\n        /* \"contracts/InquireA.sol\":10099:10105  answer */\n      dup2\n        /* \"contracts/InquireA.sol\":10099:10113  answer.upvotes */\n      0x03\n      add\n      0x00\n        /* \"contracts/InquireA.sol\":10099:10118  answer.upvotes += 1 */\n      dup3\n      dup3\n      sload\n      tag_219\n      swap2\n      swap1\n      tag_220\n      jump\t// in\n    tag_219:\n      swap3\n      pop\n      pop\n      dup2\n      swap1\n      sstore\n      pop\n        /* \"contracts/InquireA.sol\":10167:10176  msg.value */\n      callvalue\n        /* \"contracts/InquireA.sol\":10129:10138  questions */\n      0x04\n        /* \"contracts/InquireA.sol\":10129:10150  questions[questionId] */\n      0x00\n        /* \"contracts/InquireA.sol\":10139:10149  questionId */\n      dup9\n        /* \"contracts/InquireA.sol\":10129:10150  questions[questionId] */\n      dup2\n      mstore\n      0x20\n      add\n      swap1\n      dup2\n      mstore\n      0x20\n      add\n      0x00\n      keccak256\n        /* \"contracts/InquireA.sol\":10129:10163  questions[questionId].rewardAmount */\n      0x05\n      add\n      0x00\n        /* \"contracts/InquireA.sol\":10129:10176  questions[questionId].rewardAmount += msg.value */\n      dup3\n      dup3\n      sload\n      tag_221\n      swap2\n      swap1\n      tag_220\n      jump\t// in\n    tag_221:\n      swap3\n      pop\n      pop\n      dup2\n      swap1\n      sstore\n      pop\n        /* \"contracts/InquireA.sol\":10222:10232  msg.sender */\n      caller\n        /* \"contracts/InquireA.sol\":10194:10233  Voted(questionId, answerId, msg.sender) */\n      0xffffffffffffffffffffffffffffffffffffffff\n      and\n      0xd91ecafccf238642dccd41161308b3eebe62a12bc5819daf5164780c221ec95b\n        /* \"contracts/InquireA.sol\":10200:10210  questionId */\n      dup8\n        /* \"contracts/InquireA.sol\":10212:10220  answerId */\n      dup8\n        /* \"contracts/InquireA.sol\":10194:10233  Voted(questionId, answerId, msg.sender) */\n      mload(0x40)\n      tag_222\n      swap3\n      swap2\n      swap1\n      tag_153\n      jump\t// in\n    tag_222:\n      mload(0x40)\n      dup1\n      swap2\n      sub\n      swap1\n      log2\n        /* \"contracts/InquireA.sol\":9816:10241  {... */\n      pop\n      pop\n        /* \"contracts/InquireA.sol\":2027:2028  _ */\n      pop\n        /* \"contracts/InquireA.sol\":9691:10241  function voteForAnswer(uint256 questionId, uint256 answerId) public payable questionExists(questionId) notClosed(questionId) {... */\n      pop\n      pop\n      pop\n      jump\t// out\n        /* \"contracts/InquireA.sol\":1140:1183  mapping(address => uint256) public balances */\n    tag_51:\n      mstore(0x20, 0x06)\n      dup1\n      0x00\n      mstore\n      keccak256(0x00, 0x40)\n      0x00\n      swap2\n      pop\n      swap1\n      pop\n      sload\n      dup2\n      jump\t// out\n        /* \"contracts/InquireA.sol\":1020:1065  mapping(uint256 => Question) public questions */\n    tag_58:\n      mstore(0x20, 0x04)\n      dup1\n      0x00\n      mstore\n      keccak256(0x00, 0x40)\n      0x00\n      swap2\n      pop\n      swap1\n      pop\n      dup1\n      0x00\n      add\n      sload\n      swap1\n      dup1\n      0x01\n      add\n      0x00\n      swap1\n      sload\n      swap1\n      0x0100\n      exp\n      swap1\n      div\n      0xffffffffffffffffffffffffffffffffffffffff\n      and\n      swap1\n      dup1\n      0x02\n      add\n      dup1\n      sload\n      tag_223\n      swap1\n      tag_162\n      jump\t// in\n    tag_223:\n      dup1\n      0x1f\n      add\n      0x20\n      dup1\n      swap2\n      div\n      mul\n      0x20\n      add\n      mload(0x40)\n      swap1\n      dup2\n      add\n      0x40\n      mstore\n      dup1\n      swap3\n      swap2\n      swap1\n      dup2\n      dup2\n      mstore\n      0x20\n      add\n      dup3\n      dup1\n      sload\n      tag_224\n      swap1\n      tag_162\n      jump\t// in\n    tag_224:\n      dup1\n      iszero\n      tag_225\n      jumpi\n      dup1\n      0x1f\n      lt\n      tag_226\n      jumpi\n      0x0100\n      dup1\n      dup4\n      sload\n      div\n      mul\n      dup4\n      mstore\n      swap2\n      0x20\n      add\n      swap2\n      jump(tag_225)\n    tag_226:\n      dup3\n      add\n      swap2\n      swap1\n      0x00\n      mstore\n      keccak256(0x00, 0x20)\n      swap1\n    tag_227:\n      dup2\n      sload\n      dup2\n      mstore\n      swap1\n      0x01\n      add\n      swap1\n      0x20\n      add\n      dup1\n      dup4\n      gt\n      tag_227\n      jumpi\n      dup3\n      swap1\n      sub\n      0x1f\n      and\n      dup3\n      add\n      swap2\n    tag_225:\n      pop\n      pop\n      pop\n      pop\n      pop\n      swap1\n      dup1\n      0x03\n      add\n      dup1\n      sload\n      tag_228\n      swap1\n      tag_162\n      jump\t// in\n    tag_228:\n      dup1\n      0x1f\n      add\n      0x20\n      dup1\n      swap2\n      div\n      mul\n      0x20\n      add\n      mload(0x40)\n      swap1\n      dup2\n      add\n      0x40\n      mstore\n      dup1\n      swap3\n      swap2\n      swap1\n      dup2\n      dup2\n      mstore\n      0x20\n      add\n      dup3\n      dup1\n      sload\n      tag_229\n      swap1\n      tag_162\n      jump\t// in\n    tag_229:\n      dup1\n      iszero\n      tag_230\n      jumpi\n      dup1\n      0x1f\n      lt\n      tag_231\n      jumpi\n      0x0100\n      dup1\n      dup4\n      sload\n      div\n      mul\n      dup4\n      mstore\n      swap2\n      0x20\n      add\n      swap2\n      jump(tag_230)\n    tag_231:\n      dup3\n      add\n      swap2\n      swap1\n      0x00\n      mstore\n      keccak256(0x00, 0x20)\n      swap1\n    tag_232:\n      dup2\n      sload\n      dup2\n      mstore\n      swap1\n      0x01\n      add\n      swap1\n      0x20\n      add\n      dup1\n      dup4\n      gt\n      tag_232\n      jumpi\n      dup3\n      swap1\n      sub\n      0x1f\n      and\n      dup3\n      add\n      swap2\n    tag_230:\n      pop\n      pop\n      pop\n      pop\n      pop\n      swap1\n      dup1\n      0x04\n      add\n      dup1\n      sload\n      tag_233\n      swap1\n      tag_162\n      jump\t// in\n    tag_233:\n      dup1\n      0x1f\n      add\n      0x20\n      dup1\n      swap2\n      div\n      mul\n      0x20\n      add\n      mload(0x40)\n      swap1\n      dup2\n      add\n      0x40\n      mstore\n      dup1\n      swap3\n      swap2\n      swap1\n      dup2\n      dup2\n      mstore\n      0x20\n      add\n      dup3\n      dup1\n      sload\n      tag_234\n      swap1\n      tag_162\n      jump\t// in\n    tag_234:\n      dup1\n      iszero\n      tag_235\n      jumpi\n      dup1\n      0x1f\n      lt\n      tag_236\n      jumpi\n      0x0100\n      dup1\n      dup4\n      sload\n      div\n      mul\n      dup4\n      mstore\n      swap2\n      0x20\n      add\n      swap2\n      jump(tag_235)\n    tag_236:\n      dup3\n      add\n      swap2\n      swap1\n      0x00\n      mstore\n      keccak256(0x00, 0x20)\n      swap1\n    tag_237:\n      dup2\n      sload\n      dup2\n      mstore\n      swap1\n      0x01\n      add\n      swap1\n      0x20\n      add\n      dup1\n      dup4\n      gt\n      tag_237\n      jumpi\n      dup3\n      swap1\n      sub\n      0x1f\n      and\n      dup3\n      add\n      swap2\n    tag_235:\n      pop\n      pop\n      pop\n      pop\n      pop\n      swap1\n      dup1\n      0x05\n      add\n      sload\n      swap1\n      dup1\n      0x06\n      add\n      sload\n      swap1\n      dup1\n      0x07\n      add\n      sload\n      swap1\n      dup1\n      0x08\n      add\n      0x00\n      swap1\n      sload\n      swap1\n      0x0100\n      exp\n      swap1\n      div\n      0xff\n      and\n      swap1\n      dup1\n      0x09\n      add\n      sload\n      swap1\n      pop\n      dup11\n      jump\t// out\n        /* \"contracts/InquireA.sol\":11706:11927  function withdraw() public {... */\n    tag_63:\n        /* \"contracts/InquireA.sol\":11744:11758  uint256 amount */\n      0x00\n        /* \"contracts/InquireA.sol\":11761:11769  balances */\n      0x06\n        /* \"contracts/InquireA.sol\":11761:11781  balances[msg.sender] */\n      0x00\n        /* \"contracts/InquireA.sol\":11770:11780  msg.sender */\n      caller\n        /* \"contracts/InquireA.sol\":11761:11781  balances[msg.sender] */\n      0xffffffffffffffffffffffffffffffffffffffff\n      and\n      0xffffffffffffffffffffffffffffffffffffffff\n      and\n      dup2\n      mstore\n      0x20\n      add\n      swap1\n      dup2\n      mstore\n      0x20\n      add\n      0x00\n      keccak256\n      sload\n        /* \"contracts/InquireA.sol\":11744:11781  uint256 amount = balances[msg.sender] */\n      swap1\n      pop\n        /* \"contracts/InquireA.sol\":11809:11810  0 */\n      0x00\n        /* \"contracts/InquireA.sol\":11800:11806  amount */\n      dup2\n        /* \"contracts/InquireA.sol\":11800:11810  amount > 0 */\n      gt\n        /* \"contracts/InquireA.sol\":11792:11835  require(amount > 0, \"No funds to withdraw\") */\n      tag_239\n      jumpi\n      mload(0x40)\n      0x08c379a000000000000000000000000000000000000000000000000000000000\n      dup2\n      mstore\n      0x04\n      add\n      tag_240\n      swap1\n      tag_241\n      jump\t// in\n    tag_240:\n      mload(0x40)\n      dup1\n      swap2\n      sub\n      swap1\n      revert\n    tag_239:\n        /* \"contracts/InquireA.sol\":11871:11872  0 */\n      0x00\n        /* \"contracts/InquireA.sol\":11848:11856  balances */\n      0x06\n        /* \"contracts/InquireA.sol\":11848:11868  balances[msg.sender] */\n      0x00\n        /* \"contracts/InquireA.sol\":11857:11867  msg.sender */\n      caller\n        /* \"contracts/InquireA.sol\":11848:11868  balances[msg.sender] */\n      0xffffffffffffffffffffffffffffffffffffffff\n      and\n      0xffffffffffffffffffffffffffffffffffffffff\n      and\n      dup2\n      mstore\n      0x20\n      add\n      swap1\n      dup2\n      mstore\n      0x20\n      add\n      0x00\n      keccak256\n        /* \"contracts/InquireA.sol\":11848:11872  balances[msg.sender] = 0 */\n      dup2\n      swap1\n      sstore\n      pop\n        /* \"contracts/InquireA.sol\":11891:11901  msg.sender */\n      caller\n        /* \"contracts/InquireA.sol\":11883:11911  payable(msg.sender).transfer */\n      0xffffffffffffffffffffffffffffffffffffffff\n      and\n        /* \"contracts/InquireA.sol\":11883:11919  payable(msg.sender).transfer(amount) */\n      0x08fc\n        /* \"contracts/InquireA.sol\":11912:11918  amount */\n      dup3\n        /* \"contracts/InquireA.sol\":11883:11919  payable(msg.sender).transfer(amount) */\n      swap1\n      dup2\n      iszero\n      mul\n      swap1\n      mload(0x40)\n      0x00\n      mload(0x40)\n      dup1\n      dup4\n      sub\n      dup2\n      dup6\n      dup9\n      dup9\n      call\n      swap4\n      pop\n      pop\n      pop\n      pop\n      iszero\n      dup1\n      iszero\n      tag_243\n      jumpi\n      returndatasize\n      0x00\n      dup1\n      returndatacopy\n      revert(0x00, returndatasize)\n    tag_243:\n      pop\n        /* \"contracts/InquireA.sol\":11733:11927  {... */\n      pop\n        /* \"contracts/InquireA.sol\":11706:11927  function withdraw() public {... */\n      jump\t// out\n        /* \"contracts/InquireA.sol\":9433:9683  function getAnswerById(uint256 questionId, uint256 answerId) public view returns (Answer memory) {... */\n    tag_67:\n        /* \"contracts/InquireA.sol\":9515:9528  Answer memory */\n      tag_244\n      tag_245\n      jump\t// in\n    tag_244:\n        /* \"contracts/InquireA.sol\":9600:9601  0 */\n      0x00\n        /* \"contracts/InquireA.sol\":9549:9602  answers[questionId][answerId].responder != address(0) */\n      0xffffffffffffffffffffffffffffffffffffffff\n      and\n        /* \"contracts/InquireA.sol\":9549:9556  answers */\n      0x05\n        /* \"contracts/InquireA.sol\":9549:9568  answers[questionId] */\n      0x00\n        /* \"contracts/InquireA.sol\":9557:9567  questionId */\n      dup6\n        /* \"contracts/InquireA.sol\":9549:9568  answers[questionId] */\n      dup2\n      mstore\n      0x20\n      add\n      swap1\n      dup2\n      mstore\n      0x20\n      add\n      0x00\n      keccak256\n        /* \"contracts/InquireA.sol\":9549:9578  answers[questionId][answerId] */\n      0x00\n        /* \"contracts/InquireA.sol\":9569:9577  answerId */\n      dup5\n        /* \"contracts/InquireA.sol\":9549:9578  answers[questionId][answerId] */\n      dup2\n      mstore\n      0x20\n      add\n      swap1\n      dup2\n      mstore\n      0x20\n      add\n      0x00\n      keccak256\n        /* \"contracts/InquireA.sol\":9549:9588  answers[questionId][answerId].responder */\n      0x01\n      add\n      0x00\n      swap1\n      sload\n      swap1\n      0x0100\n      exp\n      swap1\n      div\n      0xffffffffffffffffffffffffffffffffffffffff\n      and\n        /* \"contracts/InquireA.sol\":9549:9602  answers[questionId][answerId].responder != address(0) */\n      0xffffffffffffffffffffffffffffffffffffffff\n      and\n      sub\n        /* \"contracts/InquireA.sol\":9541:9628  require(answers[questionId][answerId].responder != address(0), \"Answer does not exist\") */\n      tag_247\n      jumpi\n      mload(0x40)\n      0x08c379a000000000000000000000000000000000000000000000000000000000\n      dup2\n      mstore\n      0x04\n      add\n      tag_248\n      swap1\n      tag_249\n      jump\t// in\n    tag_248:\n      mload(0x40)\n      dup1\n      swap2\n      sub\n      swap1\n      revert\n    tag_247:\n        /* \"contracts/InquireA.sol\":9646:9653  answers */\n      0x05\n        /* \"contracts/InquireA.sol\":9646:9665  answers[questionId] */\n      0x00\n        /* \"contracts/InquireA.sol\":9654:9664  questionId */\n      dup5\n        /* \"contracts/InquireA.sol\":9646:9665  answers[questionId] */\n      dup2\n      mstore\n      0x20\n      add\n      swap1\n      dup2\n      mstore\n      0x20\n      add\n      0x00\n      keccak256\n        /* \"contracts/InquireA.sol\":9646:9675  answers[questionId][answerId] */\n      0x00\n        /* \"contracts/InquireA.sol\":9666:9674  answerId */\n      dup4\n        /* \"contracts/InquireA.sol\":9646:9675  answers[questionId][answerId] */\n      dup2\n      mstore\n      0x20\n      add\n      swap1\n      dup2\n      mstore\n      0x20\n      add\n      0x00\n      keccak256\n        /* \"contracts/InquireA.sol\":9639:9675  return answers[questionId][answerId] */\n      mload(0x40)\n      dup1\n      0xc0\n      add\n      0x40\n      mstore\n      swap1\n      dup2\n      0x00\n      dup3\n      add\n      sload\n      dup2\n      mstore\n      0x20\n      add\n      0x01\n      dup3\n      add\n      0x00\n      swap1\n      sload\n      swap1\n      0x0100\n      exp\n      swap1\n      div\n      0xffffffffffffffffffffffffffffffffffffffff\n      and\n      0xffffffffffffffffffffffffffffffffffffffff\n      and\n      0xffffffffffffffffffffffffffffffffffffffff\n      and\n      dup2\n      mstore\n      0x20\n      add\n      0x02\n      dup3\n      add\n      dup1\n      sload\n      tag_250\n      swap1\n      tag_162\n      jump\t// in\n    tag_250:\n      dup1\n      0x1f\n      add\n      0x20\n      dup1\n      swap2\n      div\n      mul\n      0x20\n      add\n      mload(0x40)\n      swap1\n      dup2\n      add\n      0x40\n      mstore\n      dup1\n      swap3\n      swap2\n      swap1\n      dup2\n      dup2\n      mstore\n      0x20\n      add\n      dup3\n      dup1\n      sload\n      tag_251\n      swap1\n      tag_162\n      jump\t// in\n    tag_251:\n      dup1\n      iszero\n      tag_252\n      jumpi\n      dup1\n      0x1f\n      lt\n      tag_253\n      jumpi\n      0x0100\n      dup1\n      dup4\n      sload\n      div\n      mul\n      dup4\n      mstore\n      swap2\n      0x20\n      add\n      swap2\n      jump(tag_252)\n    tag_253:\n      dup3\n      add\n      swap2\n      swap1\n      0x00\n      mstore\n      keccak256(0x00, 0x20)\n      swap1\n    tag_254:\n      dup2\n      sload\n      dup2\n      mstore\n      swap1\n      0x01\n      add\n      swap1\n      0x20\n      add\n      dup1\n      dup4\n      gt\n      tag_254\n      jumpi\n      dup3\n      swap1\n      sub\n      0x1f\n      and\n      dup3\n      add\n      swap2\n    tag_252:\n      pop\n      pop\n      pop\n      pop\n      pop\n      dup2\n      mstore\n      0x20\n      add\n      0x03\n      dup3\n      add\n      sload\n      dup2\n      mstore\n      0x20\n      add\n      0x04\n      dup3\n      add\n      sload\n      dup2\n      mstore\n      0x20\n      add\n      0x05\n      dup3\n      add\n      sload\n      dup2\n      mstore\n      pop\n      pop\n      swap1\n      pop\n        /* \"contracts/InquireA.sol\":9433:9683  function getAnswerById(uint256 questionId, uint256 answerId) public view returns (Answer memory) {... */\n      swap3\n      swap2\n      pop\n      pop\n      jump\t// out\n        /* \"contracts/InquireA.sol\":12083:12759  function getQuestionsByCategory(string memory _category) public view returns (uint256[] memory) {... */\n    tag_74:\n        /* \"contracts/InquireA.sol\":12161:12177  uint256[] memory */\n      0x60\n        /* \"contracts/InquireA.sol\":12190:12223  uint256[] memory matchedQuestions */\n      0x00\n        /* \"contracts/InquireA.sol\":12240:12257  questionIdCounter */\n      sload(0x02)\n        /* \"contracts/InquireA.sol\":12226:12258  new uint256[](questionIdCounter) */\n      0xffffffffffffffff\n      dup2\n      gt\n      iszero\n      tag_256\n      jumpi\n      tag_257\n      tag_258\n      jump\t// in\n    tag_257:\n    tag_256:\n      mload(0x40)\n      swap1\n      dup1\n      dup3\n      mstore\n      dup1\n      0x20\n      mul\n      0x20\n      add\n      dup3\n      add\n      0x40\n      mstore\n      dup1\n      iszero\n      tag_259\n      jumpi\n      dup2\n      0x20\n      add\n      0x20\n      dup3\n      mul\n      dup1\n      calldatasize\n      dup4\n      calldatacopy\n      dup1\n      dup3\n      add\n      swap2\n      pop\n      pop\n      swap1\n      pop\n    tag_259:\n      pop\n        /* \"contracts/InquireA.sol\":12190:12258  uint256[] memory matchedQuestions = new uint256[](questionIdCounter) */\n      swap1\n      pop\n        /* \"contracts/InquireA.sol\":12269:12282  uint256 count */\n      0x00\n        /* \"contracts/InquireA.sol\":12304:12313  uint256 i */\n      dup1\n        /* \"contracts/InquireA.sol\":12316:12317  1 */\n      0x01\n        /* \"contracts/InquireA.sol\":12304:12317  uint256 i = 1 */\n      swap1\n      pop\n        /* \"contracts/InquireA.sol\":12299:12537  for (uint256 i = 1; i < questionIdCounter; i++) {... */\n    tag_260:\n        /* \"contracts/InquireA.sol\":12323:12340  questionIdCounter */\n      sload(0x02)\n        /* \"contracts/InquireA.sol\":12319:12320  i */\n      dup2\n        /* \"contracts/InquireA.sol\":12319:12340  i < questionIdCounter */\n      lt\n        /* \"contracts/InquireA.sol\":12299:12537  for (uint256 i = 1; i < questionIdCounter; i++) {... */\n      iszero\n      tag_261\n      jumpi\n        /* \"contracts/InquireA.sol\":12425:12434  _category */\n      dup5\n        /* \"contracts/InquireA.sol\":12409:12436  keccak256(bytes(_category)) */\n      dup1\n      mload\n      swap1\n      0x20\n      add\n      keccak256\n        /* \"contracts/InquireA.sol\":12382:12391  questions */\n      0x04\n        /* \"contracts/InquireA.sol\":12382:12394  questions[i] */\n      0x00\n        /* \"contracts/InquireA.sol\":12392:12393  i */\n      dup4\n        /* \"contracts/InquireA.sol\":12382:12394  questions[i] */\n      dup2\n      mstore\n      0x20\n      add\n      swap1\n      dup2\n      mstore\n      0x20\n      add\n      0x00\n      keccak256\n        /* \"contracts/InquireA.sol\":12382:12403  questions[i].category */\n      0x04\n      add\n        /* \"contracts/InquireA.sol\":12366:12405  keccak256(bytes(questions[i].category)) */\n      mload(0x40)\n      tag_263\n      swap2\n      swap1\n      tag_264\n      jump\t// in\n    tag_263:\n      mload(0x40)\n      dup1\n      swap2\n      sub\n      swap1\n      keccak256\n        /* \"contracts/InquireA.sol\":12366:12436  keccak256(bytes(questions[i].category)) == keccak256(bytes(_category)) */\n      sub\n        /* \"contracts/InquireA.sol\":12362:12526  if (keccak256(bytes(questions[i].category)) == keccak256(bytes(_category))) {... */\n      tag_265\n      jumpi\n        /* \"contracts/InquireA.sol\":12483:12484  i */\n      dup1\n        /* \"contracts/InquireA.sol\":12457:12473  matchedQuestions */\n      dup4\n        /* \"contracts/InquireA.sol\":12474:12479  count */\n      dup4\n        /* \"contracts/InquireA.sol\":12457:12480  matchedQuestions[count] */\n      dup2\n      mload\n      dup2\n      lt\n      tag_266\n      jumpi\n      tag_267\n      tag_268\n      jump\t// in\n    tag_267:\n    tag_266:\n      0x20\n      mul\n      0x20\n      add\n      add\n        /* \"contracts/InquireA.sol\":12457:12484  matchedQuestions[count] = i */\n      dup2\n      dup2\n      mstore\n      pop\n      pop\n        /* \"contracts/InquireA.sol\":12503:12510  count++ */\n      dup2\n      dup1\n      tag_269\n      swap1\n      tag_181\n      jump\t// in\n    tag_269:\n      swap3\n      pop\n      pop\n        /* \"contracts/InquireA.sol\":12362:12526  if (keccak256(bytes(questions[i].category)) == keccak256(bytes(_category))) {... */\n    tag_265:\n        /* \"contracts/InquireA.sol\":12342:12345  i++ */\n      dup1\n      dup1\n      0x01\n      add\n      swap2\n      pop\n      pop\n        /* \"contracts/InquireA.sol\":12299:12537  for (uint256 i = 1; i < questionIdCounter; i++) {... */\n      jump(tag_260)\n    tag_261:\n      pop\n        /* \"contracts/InquireA.sol\":12575:12598  uint256[] memory result */\n      0x00\n        /* \"contracts/InquireA.sol\":12615:12620  count */\n      dup2\n        /* \"contracts/InquireA.sol\":12601:12621  new uint256[](count) */\n      0xffffffffffffffff\n      dup2\n      gt\n      iszero\n      tag_270\n      jumpi\n      tag_271\n      tag_258\n      jump\t// in\n    tag_271:\n    tag_270:\n      mload(0x40)\n      swap1\n      dup1\n      dup3\n      mstore\n      dup1\n      0x20\n      mul\n      0x20\n      add\n      dup3\n      add\n      0x40\n      mstore\n      dup1\n      iszero\n      tag_272\n      jumpi\n      dup2\n      0x20\n      add\n      0x20\n      dup3\n      mul\n      dup1\n      calldatasize\n      dup4\n      calldatacopy\n      dup1\n      dup3\n      add\n      swap2\n      pop\n      pop\n      swap1\n      pop\n    tag_272:\n      pop\n        /* \"contracts/InquireA.sol\":12575:12621  uint256[] memory result = new uint256[](count) */\n      swap1\n      pop\n        /* \"contracts/InquireA.sol\":12637:12646  uint256 i */\n      0x00\n        /* \"contracts/InquireA.sol\":12632:12726  for (uint256 i = 0; i < count; i++) {... */\n    tag_273:\n        /* \"contracts/InquireA.sol\":12656:12661  count */\n      dup3\n        /* \"contracts/InquireA.sol\":12652:12653  i */\n      dup2\n        /* \"contracts/InquireA.sol\":12652:12661  i < count */\n      lt\n        /* \"contracts/InquireA.sol\":12632:12726  for (uint256 i = 0; i < count; i++) {... */\n      iszero\n      tag_274\n      jumpi\n        /* \"contracts/InquireA.sol\":12695:12711  matchedQuestions */\n      dup4\n        /* \"contracts/InquireA.sol\":12712:12713  i */\n      dup2\n        /* \"contracts/InquireA.sol\":12695:12714  matchedQuestions[i] */\n      dup2\n      mload\n      dup2\n      lt\n      tag_276\n      jumpi\n      tag_277\n      tag_268\n      jump\t// in\n    tag_277:\n    tag_276:\n      0x20\n      mul\n      0x20\n      add\n      add\n      mload\n        /* \"contracts/InquireA.sol\":12683:12689  result */\n      dup3\n        /* \"contracts/InquireA.sol\":12690:12691  i */\n      dup3\n        /* \"contracts/InquireA.sol\":12683:12692  result[i] */\n      dup2\n      mload\n      dup2\n      lt\n      tag_278\n      jumpi\n      tag_279\n      tag_268\n      jump\t// in\n    tag_279:\n    tag_278:\n      0x20\n      mul\n      0x20\n      add\n      add\n        /* \"contracts/InquireA.sol\":12683:12714  result[i] = matchedQuestions[i] */\n      dup2\n      dup2\n      mstore\n      pop\n      pop\n        /* \"contracts/InquireA.sol\":12663:12666  i++ */\n      dup1\n      dup1\n      0x01\n      add\n      swap2\n      pop\n      pop\n        /* \"contracts/InquireA.sol\":12632:12726  for (uint256 i = 0; i < count; i++) {... */\n      jump(tag_273)\n    tag_274:\n      pop\n        /* \"contracts/InquireA.sol\":12745:12751  result */\n      dup1\n        /* \"contracts/InquireA.sol\":12738:12751  return result */\n      swap4\n      pop\n      pop\n      pop\n      pop\n        /* \"contracts/InquireA.sol\":12083:12759  function getQuestionsByCategory(string memory _category) public view returns (uint256[] memory) {... */\n      swap2\n      swap1\n      pop\n      jump\t// out\n        /* \"contracts/InquireA.sol\":2244:3582  function askQuestion(... */\n    tag_80:\n        /* \"contracts/InquireA.sol\":2473:2474  0 */\n      0x00\n        /* \"contracts/InquireA.sol\":2461:2470  msg.value */\n      callvalue\n        /* \"contracts/InquireA.sol\":2461:2474  msg.value > 0 */\n      gt\n        /* \"contracts/InquireA.sol\":2453:2511  require(msg.value > 0, \"Reward must be greater than zero\") */\n      tag_281\n      jumpi\n      mload(0x40)\n      0x08c379a000000000000000000000000000000000000000000000000000000000\n      dup2\n      mstore\n      0x04\n      add\n      tag_282\n      swap1\n      tag_283\n      jump\t// in\n    tag_282:\n      mload(0x40)\n      dup1\n      swap2\n      sub\n      swap1\n      revert\n    tag_281:\n        /* \"contracts/InquireA.sol\":2556:2557  0 */\n      0x00\n        /* \"contracts/InquireA.sol\":2536:2545  _category */\n      dup3\n        /* \"contracts/InquireA.sol\":2530:2553  bytes(_category).length */\n      mload\n        /* \"contracts/InquireA.sol\":2530:2557  bytes(_category).length > 0 */\n      gt\n        /* \"contracts/InquireA.sol\":2522:2586  require(bytes(_category).length > 0, \"Category cannot be empty\") */\n      tag_284\n      jumpi\n      mload(0x40)\n      0x08c379a000000000000000000000000000000000000000000000000000000000\n      dup2\n      mstore\n      0x04\n      add\n      tag_285\n      swap1\n      tag_286\n      jump\t// in\n    tag_285:\n      mload(0x40)\n      dup1\n      swap2\n      sub\n      swap1\n      revert\n    tag_284:\n        /* \"contracts/InquireA.sol\":2599:2615  uint256 deadline */\n      0x00\n        /* \"contracts/InquireA.sol\":2649:2671  DeadlinePeriod.OneWeek */\n      dup1\n        /* \"contracts/InquireA.sol\":2630:2671  _deadlinePeriod == DeadlinePeriod.OneWeek */\n      0x02\n      dup2\n      gt\n      iszero\n      tag_287\n      jumpi\n      tag_288\n      tag_289\n      jump\t// in\n    tag_288:\n    tag_287:\n        /* \"contracts/InquireA.sol\":2630:2645  _deadlinePeriod */\n      dup3\n        /* \"contracts/InquireA.sol\":2630:2671  _deadlinePeriod == DeadlinePeriod.OneWeek */\n      0x02\n      dup2\n      gt\n      iszero\n      tag_290\n      jumpi\n      tag_291\n      tag_289\n      jump\t// in\n    tag_291:\n    tag_290:\n      sub\n        /* \"contracts/InquireA.sol\":2626:2967  if (_deadlinePeriod == DeadlinePeriod.OneWeek) {... */\n      tag_292\n      jumpi\n        /* \"contracts/InquireA.sol\":261:267  7 days */\n      0x093a80\n        /* \"contracts/InquireA.sol\":2699:2714  block.timestamp */\n      timestamp\n        /* \"contracts/InquireA.sol\":2699:2721  block.timestamp + WEEK */\n      tag_293\n      swap2\n      swap1\n      tag_220\n      jump\t// in\n    tag_293:\n        /* \"contracts/InquireA.sol\":2688:2721  deadline = block.timestamp + WEEK */\n      swap1\n      pop\n        /* \"contracts/InquireA.sol\":2626:2967  if (_deadlinePeriod == DeadlinePeriod.OneWeek) {... */\n      jump(tag_294)\n    tag_292:\n        /* \"contracts/InquireA.sol\":2762:2785  DeadlinePeriod.TwoWeeks */\n      0x01\n        /* \"contracts/InquireA.sol\":2743:2785  _deadlinePeriod == DeadlinePeriod.TwoWeeks */\n      0x02\n      dup2\n      gt\n      iszero\n      tag_295\n      jumpi\n      tag_296\n      tag_289\n      jump\t// in\n    tag_296:\n    tag_295:\n        /* \"contracts/InquireA.sol\":2743:2758  _deadlinePeriod */\n      dup3\n        /* \"contracts/InquireA.sol\":2743:2785  _deadlinePeriod == DeadlinePeriod.TwoWeeks */\n      0x02\n      dup2\n      gt\n      iszero\n      tag_297\n      jumpi\n      tag_298\n      tag_289\n      jump\t// in\n    tag_298:\n    tag_297:\n      sub\n        /* \"contracts/InquireA.sol\":2739:2967  if (_deadlinePeriod == DeadlinePeriod.TwoWeeks) {... */\n      tag_299\n      jumpi\n        /* \"contracts/InquireA.sol\":310:317  14 days */\n      0x127500\n        /* \"contracts/InquireA.sol\":2813:2828  block.timestamp */\n      timestamp\n        /* \"contracts/InquireA.sol\":2813:2840  block.timestamp + TWO_WEEKS */\n      tag_300\n      swap2\n      swap1\n      tag_220\n      jump\t// in\n    tag_300:\n        /* \"contracts/InquireA.sol\":2802:2840  deadline = block.timestamp + TWO_WEEKS */\n      swap1\n      pop\n        /* \"contracts/InquireA.sol\":2739:2967  if (_deadlinePeriod == DeadlinePeriod.TwoWeeks) {... */\n      jump(tag_301)\n    tag_299:\n        /* \"contracts/InquireA.sol\":2881:2904  DeadlinePeriod.OneMonth */\n      0x02\n        /* \"contracts/InquireA.sol\":2862:2904  _deadlinePeriod == DeadlinePeriod.OneMonth */\n      dup1\n      dup2\n      gt\n      iszero\n      tag_302\n      jumpi\n      tag_303\n      tag_289\n      jump\t// in\n    tag_303:\n    tag_302:\n        /* \"contracts/InquireA.sol\":2862:2877  _deadlinePeriod */\n      dup3\n        /* \"contracts/InquireA.sol\":2862:2904  _deadlinePeriod == DeadlinePeriod.OneMonth */\n      0x02\n      dup2\n      gt\n      iszero\n      tag_304\n      jumpi\n      tag_305\n      tag_289\n      jump\t// in\n    tag_305:\n    tag_304:\n      sub\n        /* \"contracts/InquireA.sol\":2858:2967  if (_deadlinePeriod == DeadlinePeriod.OneMonth) {... */\n      tag_306\n      jumpi\n        /* \"contracts/InquireA.sol\":356:363  30 days */\n      0x278d00\n        /* \"contracts/InquireA.sol\":2932:2947  block.timestamp */\n      timestamp\n        /* \"contracts/InquireA.sol\":2932:2955  block.timestamp + MONTH */\n      tag_307\n      swap2\n      swap1\n      tag_220\n      jump\t// in\n    tag_307:\n        /* \"contracts/InquireA.sol\":2921:2955  deadline = block.timestamp + MONTH */\n      swap1\n      pop\n        /* \"contracts/InquireA.sol\":2858:2967  if (_deadlinePeriod == DeadlinePeriod.OneMonth) {... */\n    tag_306:\n        /* \"contracts/InquireA.sol\":2739:2967  if (_deadlinePeriod == DeadlinePeriod.TwoWeeks) {... */\n    tag_301:\n        /* \"contracts/InquireA.sol\":2626:2967  if (_deadlinePeriod == DeadlinePeriod.OneWeek) {... */\n    tag_294:\n        /* \"contracts/InquireA.sol\":2987:3005  uint256 questionId */\n      0x00\n        /* \"contracts/InquireA.sol\":3008:3025  questionIdCounter */\n      0x02\n      0x00\n        /* \"contracts/InquireA.sol\":3008:3027  questionIdCounter++ */\n      dup2\n      sload\n      dup1\n      swap3\n      swap2\n      swap1\n      tag_308\n      swap1\n      tag_181\n      jump\t// in\n    tag_308:\n      swap2\n      swap1\n      pop\n      sstore\n        /* \"contracts/InquireA.sol\":2987:3027  uint256 questionId = questionIdCounter++ */\n      swap1\n      pop\n        /* \"contracts/InquireA.sol\":3062:3482  Question({... */\n      mload(0x40)\n      dup1\n      0x0140\n      add\n      0x40\n      mstore\n      dup1\n        /* \"contracts/InquireA.sol\":3090:3100  questionId */\n      dup3\n        /* \"contracts/InquireA.sol\":3062:3482  Question({... */\n      dup2\n      mstore\n      0x20\n      add\n        /* \"contracts/InquireA.sol\":3161:3171  msg.sender */\n      caller\n        /* \"contracts/InquireA.sol\":3062:3482  Question({... */\n      0xffffffffffffffffffffffffffffffffffffffff\n      and\n      dup2\n      mstore\n      0x20\n      add\n        /* \"contracts/InquireA.sol\":3200:3213  _questionText */\n      dup8\n        /* \"contracts/InquireA.sol\":3062:3482  Question({... */\n      dup2\n      mstore\n      0x20\n      add\n        /* \"contracts/InquireA.sol\":3245:3261  _questionContent */\n      dup7\n        /* \"contracts/InquireA.sol\":3062:3482  Question({... */\n      dup2\n      mstore\n      0x20\n      add\n        /* \"contracts/InquireA.sol\":3287:3296  _category */\n      dup6\n        /* \"contracts/InquireA.sol\":3062:3482  Question({... */\n      dup2\n      mstore\n      0x20\n      add\n        /* \"contracts/InquireA.sol\":3325:3334  msg.value */\n      callvalue\n        /* \"contracts/InquireA.sol\":3062:3482  Question({... */\n      dup2\n      mstore\n      0x20\n      add\n        /* \"contracts/InquireA.sol\":3360:3375  block.timestamp */\n      timestamp\n        /* \"contracts/InquireA.sol\":3062:3482  Question({... */\n      dup2\n      mstore\n      0x20\n      add\n        /* \"contracts/InquireA.sol\":3400:3408  deadline */\n      dup4\n        /* \"contracts/InquireA.sol\":3062:3482  Question({... */\n      dup2\n      mstore\n      0x20\n      add\n        /* \"contracts/InquireA.sol\":3433:3438  false */\n      0x00\n        /* \"contracts/InquireA.sol\":3062:3482  Question({... */\n      iszero\n      iszero\n      dup2\n      mstore\n      0x20\n      add\n        /* \"contracts/InquireA.sol\":3469:3470  0 */\n      0x00\n        /* \"contracts/InquireA.sol\":3062:3482  Question({... */\n      dup2\n      mstore\n      pop\n        /* \"contracts/InquireA.sol\":3038:3047  questions */\n      0x04\n        /* \"contracts/InquireA.sol\":3038:3059  questions[questionId] */\n      0x00\n        /* \"contracts/InquireA.sol\":3048:3058  questionId */\n      dup4\n        /* \"contracts/InquireA.sol\":3038:3059  questions[questionId] */\n      dup2\n      mstore\n      0x20\n      add\n      swap1\n      dup2\n      mstore\n      0x20\n      add\n      0x00\n      keccak256\n        /* \"contracts/InquireA.sol\":3038:3482  questions[questionId] = Question({... */\n      0x00\n      dup3\n      add\n      mload\n      dup2\n      0x00\n      add\n      sstore\n      0x20\n      dup3\n      add\n      mload\n      dup2\n      0x01\n      add\n      exp(0x0100, 0x00)\n      dup2\n      sload\n      dup2\n      0xffffffffffffffffffffffffffffffffffffffff\n      mul\n      not\n      and\n      swap1\n      dup4\n      0xffffffffffffffffffffffffffffffffffffffff\n      and\n      mul\n      or\n      swap1\n      sstore\n      pop\n      0x40\n      dup3\n      add\n      mload\n      dup2\n      0x02\n      add\n      swap1\n      dup2\n      tag_309\n      swap2\n      swap1\n      tag_183\n      jump\t// in\n    tag_309:\n      pop\n      0x60\n      dup3\n      add\n      mload\n      dup2\n      0x03\n      add\n      swap1\n      dup2\n      tag_310\n      swap2\n      swap1\n      tag_183\n      jump\t// in\n    tag_310:\n      pop\n      0x80\n      dup3\n      add\n      mload\n      dup2\n      0x04\n      add\n      swap1\n      dup2\n      tag_311\n      swap2\n      swap1\n      tag_183\n      jump\t// in\n    tag_311:\n      pop\n      0xa0\n      dup3\n      add\n      mload\n      dup2\n      0x05\n      add\n      sstore\n      0xc0\n      dup3\n      add\n      mload\n      dup2\n      0x06\n      add\n      sstore\n      0xe0\n      dup3\n      add\n      mload\n      dup2\n      0x07\n      add\n      sstore\n      0x0100\n      dup3\n      add\n      mload\n      dup2\n      0x08\n      add\n      exp(0x0100, 0x00)\n      dup2\n      sload\n      dup2\n      0xff\n      mul\n      not\n      and\n      swap1\n      dup4\n      iszero\n      iszero\n      mul\n      or\n      swap1\n      sstore\n      pop\n      0x0120\n      dup3\n      add\n      mload\n      dup2\n      0x09\n      add\n      sstore\n      swap1\n      pop\n      pop\n        /* \"contracts/InquireA.sol\":3526:3536  msg.sender */\n      caller\n        /* \"contracts/InquireA.sol\":3500:3574  QuestionAsked(questionId, msg.sender, _questionText, msg.value, _category) */\n      0xffffffffffffffffffffffffffffffffffffffff\n      and\n      0xb8105899d34d8481e717a601e8d7a732c27b0ab23778e01145f2f3eb24a1120c\n        /* \"contracts/InquireA.sol\":3514:3524  questionId */\n      dup3\n        /* \"contracts/InquireA.sol\":3538:3551  _questionText */\n      dup9\n        /* \"contracts/InquireA.sol\":3553:3562  msg.value */\n      callvalue\n        /* \"contracts/InquireA.sol\":3564:3573  _category */\n      dup9\n        /* \"contracts/InquireA.sol\":3500:3574  QuestionAsked(questionId, msg.sender, _questionText, msg.value, _category) */\n      mload(0x40)\n      tag_312\n      swap5\n      swap4\n      swap3\n      swap2\n      swap1\n      tag_313\n      jump\t// in\n    tag_312:\n      mload(0x40)\n      dup1\n      swap2\n      sub\n      swap1\n      log2\n        /* \"contracts/InquireA.sol\":2442:3582  {... */\n      pop\n      pop\n        /* \"contracts/InquireA.sol\":2244:3582  function askQuestion(... */\n      pop\n      pop\n      pop\n      pop\n      jump\t// out\n        /* \"contracts/InquireA.sol\":10697:11698  function distributeRewards(uint256 questionId) public questionExists(questionId) {... */\n    tag_84:\n        /* \"contracts/InquireA.sol\":10766:10776  questionId */\n      dup1\n        /* \"contracts/InquireA.sol\":1986:1987  0 */\n      0x00\n        /* \"contracts/InquireA.sol\":1947:1988  questions[questionId].asker != address(0) */\n      0xffffffffffffffffffffffffffffffffffffffff\n      and\n        /* \"contracts/InquireA.sol\":1947:1956  questions */\n      0x04\n        /* \"contracts/InquireA.sol\":1947:1968  questions[questionId] */\n      0x00\n        /* \"contracts/InquireA.sol\":1957:1967  questionId */\n      dup4\n        /* \"contracts/InquireA.sol\":1947:1968  questions[questionId] */\n      dup2\n      mstore\n      0x20\n      add\n      swap1\n      dup2\n      mstore\n      0x20\n      add\n      0x00\n      keccak256\n        /* \"contracts/InquireA.sol\":1947:1974  questions[questionId].asker */\n      0x01\n      add\n      0x00\n      swap1\n      sload\n      swap1\n      0x0100\n      exp\n      swap1\n      div\n      0xffffffffffffffffffffffffffffffffffffffff\n      and\n        /* \"contracts/InquireA.sol\":1947:1988  questions[questionId].asker != address(0) */\n      0xffffffffffffffffffffffffffffffffffffffff\n      and\n      sub\n        /* \"contracts/InquireA.sol\":1939:2016  require(questions[questionId].asker != address(0), \"Question does not exist\") */\n      tag_315\n      jumpi\n      mload(0x40)\n      0x08c379a000000000000000000000000000000000000000000000000000000000\n      dup2\n      mstore\n      0x04\n      add\n      tag_316\n      swap1\n      tag_143\n      jump\t// in\n    tag_316:\n      mload(0x40)\n      dup1\n      swap2\n      sub\n      swap1\n      revert\n    tag_315:\n        /* \"contracts/InquireA.sol\":10789:10814  Question storage question */\n      0x00\n        /* \"contracts/InquireA.sol\":10817:10826  questions */\n      0x04\n        /* \"contracts/InquireA.sol\":10817:10838  questions[questionId] */\n      0x00\n        /* \"contracts/InquireA.sol\":10827:10837  questionId */\n      dup5\n        /* \"contracts/InquireA.sol\":10817:10838  questions[questionId] */\n      dup2\n      mstore\n      0x20\n      add\n      swap1\n      dup2\n      mstore\n      0x20\n      add\n      0x00\n      keccak256\n        /* \"contracts/InquireA.sol\":10789:10838  Question storage question = questions[questionId] */\n      swap1\n      pop\n        /* \"contracts/InquireA.sol\":10875:10883  question */\n      dup1\n        /* \"contracts/InquireA.sol\":10875:10892  question.deadline */\n      0x07\n      add\n      sload\n        /* \"contracts/InquireA.sol\":10857:10872  block.timestamp */\n      timestamp\n        /* \"contracts/InquireA.sol\":10857:10892  block.timestamp > question.deadline */\n      gt\n        /* \"contracts/InquireA.sol\":10849:10930  require(block.timestamp > question.deadline, \"Cannot distribute before deadline\") */\n      tag_318\n      jumpi\n      mload(0x40)\n      0x08c379a000000000000000000000000000000000000000000000000000000000\n      dup2\n      mstore\n      0x04\n      add\n      tag_319\n      swap1\n      tag_320\n      jump\t// in\n    tag_319:\n      mload(0x40)\n      dup1\n      swap2\n      sub\n      swap1\n      revert\n    tag_318:\n        /* \"contracts/InquireA.sol\":10950:10958  question */\n      dup1\n        /* \"contracts/InquireA.sol\":10950:10967  question.isClosed */\n      0x08\n      add\n      0x00\n      swap1\n      sload\n      swap1\n      0x0100\n      exp\n      swap1\n      div\n      0xff\n      and\n        /* \"contracts/InquireA.sol\":10949:10967  !question.isClosed */\n      iszero\n        /* \"contracts/InquireA.sol\":10941:10998  require(!question.isClosed, \"Question is already closed\") */\n      tag_321\n      jumpi\n      mload(0x40)\n      0x08c379a000000000000000000000000000000000000000000000000000000000\n      dup2\n      mstore\n      0x04\n      add\n      tag_322\n      swap1\n      tag_147\n      jump\t// in\n    tag_322:\n      mload(0x40)\n      dup1\n      swap2\n      sub\n      swap1\n      revert\n    tag_321:\n        /* \"contracts/InquireA.sol\":11011:11031  uint256 totalUpvotes */\n      0x00\n        /* \"contracts/InquireA.sol\":11046:11065  uint256 totalReward */\n      dup1\n        /* \"contracts/InquireA.sol\":11068:11076  question */\n      dup3\n        /* \"contracts/InquireA.sol\":11068:11089  question.rewardAmount */\n      0x05\n      add\n      sload\n        /* \"contracts/InquireA.sol\":11046:11089  uint256 totalReward = question.rewardAmount */\n      swap1\n      pop\n        /* \"contracts/InquireA.sol\":11139:11148  uint256 i */\n      0x00\n        /* \"contracts/InquireA.sol\":11134:11253  for (uint256 i = 0; i < answerIdCounter; i++) {... */\n    tag_323:\n        /* \"contracts/InquireA.sol\":11158:11173  answerIdCounter */\n      sload(0x03)\n        /* \"contracts/InquireA.sol\":11154:11155  i */\n      dup2\n        /* \"contracts/InquireA.sol\":11154:11173  i < answerIdCounter */\n      lt\n        /* \"contracts/InquireA.sol\":11134:11253  for (uint256 i = 0; i < answerIdCounter; i++) {... */\n      iszero\n      tag_324\n      jumpi\n        /* \"contracts/InquireA.sol\":11211:11218  answers */\n      0x05\n        /* \"contracts/InquireA.sol\":11211:11230  answers[questionId] */\n      0x00\n        /* \"contracts/InquireA.sol\":11219:11229  questionId */\n      dup8\n        /* \"contracts/InquireA.sol\":11211:11230  answers[questionId] */\n      dup2\n      mstore\n      0x20\n      add\n      swap1\n      dup2\n      mstore\n      0x20\n      add\n      0x00\n      keccak256\n        /* \"contracts/InquireA.sol\":11211:11233  answers[questionId][i] */\n      0x00\n        /* \"contracts/InquireA.sol\":11231:11232  i */\n      dup3\n        /* \"contracts/InquireA.sol\":11211:11233  answers[questionId][i] */\n      dup2\n      mstore\n      0x20\n      add\n      swap1\n      dup2\n      mstore\n      0x20\n      add\n      0x00\n      keccak256\n        /* \"contracts/InquireA.sol\":11211:11241  answers[questionId][i].upvotes */\n      0x03\n      add\n      sload\n        /* \"contracts/InquireA.sol\":11195:11241  totalUpvotes += answers[questionId][i].upvotes */\n      dup4\n      tag_326\n      swap2\n      swap1\n      tag_220\n      jump\t// in\n    tag_326:\n      swap3\n      pop\n        /* \"contracts/InquireA.sol\":11175:11178  i++ */\n      dup1\n      dup1\n      0x01\n      add\n      swap2\n      pop\n      pop\n        /* \"contracts/InquireA.sol\":11134:11253  for (uint256 i = 0; i < answerIdCounter; i++) {... */\n      jump(tag_323)\n    tag_324:\n      pop\n        /* \"contracts/InquireA.sol\":11304:11313  uint256 i */\n      0x00\n        /* \"contracts/InquireA.sol\":11299:11654  for (uint256 i = 0; i < answerIdCounter; i++) {... */\n    tag_327:\n        /* \"contracts/InquireA.sol\":11323:11338  answerIdCounter */\n      sload(0x03)\n        /* \"contracts/InquireA.sol\":11319:11320  i */\n      dup2\n        /* \"contracts/InquireA.sol\":11319:11338  i < answerIdCounter */\n      lt\n        /* \"contracts/InquireA.sol\":11299:11654  for (uint256 i = 0; i < answerIdCounter; i++) {... */\n      iszero\n      tag_328\n      jumpi\n        /* \"contracts/InquireA.sol\":11360:11381  Answer storage answer */\n      0x00\n        /* \"contracts/InquireA.sol\":11384:11391  answers */\n      0x05\n        /* \"contracts/InquireA.sol\":11384:11403  answers[questionId] */\n      0x00\n        /* \"contracts/InquireA.sol\":11392:11402  questionId */\n      dup9\n        /* \"contracts/InquireA.sol\":11384:11403  answers[questionId] */\n      dup2\n      mstore\n      0x20\n      add\n      swap1\n      dup2\n      mstore\n      0x20\n      add\n      0x00\n      keccak256\n        /* \"contracts/InquireA.sol\":11384:11406  answers[questionId][i] */\n      0x00\n        /* \"contracts/InquireA.sol\":11404:11405  i */\n      dup4\n        /* \"contracts/InquireA.sol\":11384:11406  answers[questionId][i] */\n      dup2\n      mstore\n      0x20\n      add\n      swap1\n      dup2\n      mstore\n      0x20\n      add\n      0x00\n      keccak256\n        /* \"contracts/InquireA.sol\":11360:11406  Answer storage answer = answers[questionId][i] */\n      swap1\n      pop\n        /* \"contracts/InquireA.sol\":11440:11441  0 */\n      0x00\n        /* \"contracts/InquireA.sol\":11425:11437  totalUpvotes */\n      dup5\n        /* \"contracts/InquireA.sol\":11425:11441  totalUpvotes > 0 */\n      gt\n        /* \"contracts/InquireA.sol\":11421:11643  if (totalUpvotes > 0) {... */\n      iszero\n      tag_330\n      jumpi\n        /* \"contracts/InquireA.sol\":11462:11476  uint256 reward */\n      0x00\n        /* \"contracts/InquireA.sol\":11512:11524  totalUpvotes */\n      dup5\n        /* \"contracts/InquireA.sol\":11497:11508  totalReward */\n      dup5\n        /* \"contracts/InquireA.sol\":11480:11486  answer */\n      dup4\n        /* \"contracts/InquireA.sol\":11480:11494  answer.upvotes */\n      0x03\n      add\n      sload\n        /* \"contracts/InquireA.sol\":11480:11508  answer.upvotes * totalReward */\n      tag_331\n      swap2\n      swap1\n      tag_332\n      jump\t// in\n    tag_331:\n        /* \"contracts/InquireA.sol\":11479:11524  (answer.upvotes * totalReward) / totalUpvotes */\n      tag_333\n      swap2\n      swap1\n      tag_334\n      jump\t// in\n    tag_333:\n        /* \"contracts/InquireA.sol\":11462:11524  uint256 reward = (answer.upvotes * totalReward) / totalUpvotes */\n      swap1\n      pop\n        /* \"contracts/InquireA.sol\":11566:11572  reward */\n      dup1\n        /* \"contracts/InquireA.sol\":11543:11549  answer */\n      dup3\n        /* \"contracts/InquireA.sol\":11543:11562  answer.rewardAmount */\n      0x04\n      add\n      0x00\n        /* \"contracts/InquireA.sol\":11543:11572  answer.rewardAmount += reward */\n      dup3\n      dup3\n      sload\n      tag_335\n      swap2\n      swap1\n      tag_220\n      jump\t// in\n    tag_335:\n      swap3\n      pop\n      pop\n      dup2\n      swap1\n      sstore\n      pop\n        /* \"contracts/InquireA.sol\":11621:11627  reward */\n      dup1\n        /* \"contracts/InquireA.sol\":11591:11599  balances */\n      0x06\n        /* \"contracts/InquireA.sol\":11591:11617  balances[answer.responder] */\n      0x00\n        /* \"contracts/InquireA.sol\":11600:11606  answer */\n      dup5\n        /* \"contracts/InquireA.sol\":11600:11616  answer.responder */\n      0x01\n      add\n      0x00\n      swap1\n      sload\n      swap1\n      0x0100\n      exp\n      swap1\n      div\n      0xffffffffffffffffffffffffffffffffffffffff\n      and\n        /* \"contracts/InquireA.sol\":11591:11617  balances[answer.responder] */\n      0xffffffffffffffffffffffffffffffffffffffff\n      and\n      0xffffffffffffffffffffffffffffffffffffffff\n      and\n      dup2\n      mstore\n      0x20\n      add\n      swap1\n      dup2\n      mstore\n      0x20\n      add\n      0x00\n      keccak256\n      0x00\n        /* \"contracts/InquireA.sol\":11591:11627  balances[answer.responder] += reward */\n      dup3\n      dup3\n      sload\n      tag_336\n      swap2\n      swap1\n      tag_220\n      jump\t// in\n    tag_336:\n      swap3\n      pop\n      pop\n      dup2\n      swap1\n      sstore\n      pop\n        /* \"contracts/InquireA.sol\":11443:11643  {... */\n      pop\n        /* \"contracts/InquireA.sol\":11421:11643  if (totalUpvotes > 0) {... */\n    tag_330:\n        /* \"contracts/InquireA.sol\":11345:11654  {... */\n      pop\n        /* \"contracts/InquireA.sol\":11340:11343  i++ */\n      dup1\n      dup1\n      0x01\n      add\n      swap2\n      pop\n      pop\n        /* \"contracts/InquireA.sol\":11299:11654  for (uint256 i = 0; i < answerIdCounter; i++) {... */\n      jump(tag_327)\n    tag_328:\n      pop\n        /* \"contracts/InquireA.sol\":11686:11690  true */\n      0x01\n        /* \"contracts/InquireA.sol\":11666:11674  question */\n      dup4\n        /* \"contracts/InquireA.sol\":11666:11683  question.isClosed */\n      0x08\n      add\n      0x00\n        /* \"contracts/InquireA.sol\":11666:11690  question.isClosed = true */\n      0x0100\n      exp\n      dup2\n      sload\n      dup2\n      0xff\n      mul\n      not\n      and\n      swap1\n      dup4\n      iszero\n      iszero\n      mul\n      or\n      swap1\n      sstore\n      pop\n        /* \"contracts/InquireA.sol\":10778:11698  {... */\n      pop\n      pop\n      pop\n        /* \"contracts/InquireA.sol\":10697:11698  function distributeRewards(uint256 questionId) public questionExists(questionId) {... */\n      pop\n      pop\n      jump\t// out\n        /* \"contracts/InquireA.sol\":154:186  uint256 public questionIdCounter */\n    tag_87:\n      sload(0x02)\n      dup2\n      jump\t// out\n        /* \"contracts/InquireA.sol\":85:105  address public owner */\n    tag_91:\n      0x00\n      dup1\n      sload\n      swap1\n      0x0100\n      exp\n      swap1\n      div\n      0xffffffffffffffffffffffffffffffffffffffff\n      and\n      dup2\n      jump\t// out\n        /* \"contracts/InquireA.sol\":5746:6803  function selectBestAnswer(uint256 questionId, uint256 answerId) public payable {... */\n    tag_96:\n        /* \"contracts/InquireA.sol\":5883:5884  0 */\n      0x00\n        /* \"contracts/InquireA.sol\":5844:5885  questions[questionId].asker != address(0) */\n      0xffffffffffffffffffffffffffffffffffffffff\n      and\n        /* \"contracts/InquireA.sol\":5844:5853  questions */\n      0x04\n        /* \"contracts/InquireA.sol\":5844:5865  questions[questionId] */\n      0x00\n        /* \"contracts/InquireA.sol\":5854:5864  questionId */\n      dup5\n        /* \"contracts/InquireA.sol\":5844:5865  questions[questionId] */\n      dup2\n      mstore\n      0x20\n      add\n      swap1\n      dup2\n      mstore\n      0x20\n      add\n      0x00\n      keccak256\n        /* \"contracts/InquireA.sol\":5844:5871  questions[questionId].asker */\n      0x01\n      add\n      0x00\n      swap1\n      sload\n      swap1\n      0x0100\n      exp\n      swap1\n      div\n      0xffffffffffffffffffffffffffffffffffffffff\n      and\n        /* \"contracts/InquireA.sol\":5844:5885  questions[questionId].asker != address(0) */\n      0xffffffffffffffffffffffffffffffffffffffff\n      and\n      sub\n        /* \"contracts/InquireA.sol\":5836:5913  require(questions[questionId].asker != address(0), \"Question does not exist\") */\n      tag_338\n      jumpi\n      mload(0x40)\n      0x08c379a000000000000000000000000000000000000000000000000000000000\n      dup2\n      mstore\n      0x04\n      add\n      tag_339\n      swap1\n      tag_143\n      jump\t// in\n    tag_339:\n      mload(0x40)\n      dup1\n      swap2\n      sub\n      swap1\n      revert\n    tag_338:\n        /* \"contracts/InquireA.sol\":5956:5965  questions */\n      0x04\n        /* \"contracts/InquireA.sol\":5956:5977  questions[questionId] */\n      0x00\n        /* \"contracts/InquireA.sol\":5966:5976  questionId */\n      dup4\n        /* \"contracts/InquireA.sol\":5956:5977  questions[questionId] */\n      dup2\n      mstore\n      0x20\n      add\n      swap1\n      dup2\n      mstore\n      0x20\n      add\n      0x00\n      keccak256\n        /* \"contracts/InquireA.sol\":5956:5983  questions[questionId].asker */\n      0x01\n      add\n      0x00\n      swap1\n      sload\n      swap1\n      0x0100\n      exp\n      swap1\n      div\n      0xffffffffffffffffffffffffffffffffffffffff\n      and\n        /* \"contracts/InquireA.sol\":5942:5983  msg.sender == questions[questionId].asker */\n      0xffffffffffffffffffffffffffffffffffffffff\n      and\n        /* \"contracts/InquireA.sol\":5942:5952  msg.sender */\n      caller\n        /* \"contracts/InquireA.sol\":5942:5983  msg.sender == questions[questionId].asker */\n      0xffffffffffffffffffffffffffffffffffffffff\n      and\n      eq\n        /* \"contracts/InquireA.sol\":5934:6034  require(msg.sender == questions[questionId].asker, \"Only question asker can select the best answer\") */\n      tag_340\n      jumpi\n      mload(0x40)\n      0x08c379a000000000000000000000000000000000000000000000000000000000\n      dup2\n      mstore\n      0x04\n      add\n      tag_341\n      swap1\n      tag_342\n      jump\t// in\n    tag_341:\n      mload(0x40)\n      dup1\n      swap2\n      sub\n      swap1\n      revert\n    tag_340:\n        /* \"contracts/InquireA.sol\":6114:6115  0 */\n      0x00\n        /* \"contracts/InquireA.sol\":6063:6116  answers[questionId][answerId].responder != address(0) */\n      0xffffffffffffffffffffffffffffffffffffffff\n      and\n        /* \"contracts/InquireA.sol\":6063:6070  answers */\n      0x05\n        /* \"contracts/InquireA.sol\":6063:6082  answers[questionId] */\n      0x00\n        /* \"contracts/InquireA.sol\":6071:6081  questionId */\n      dup5\n        /* \"contracts/InquireA.sol\":6063:6082  answers[questionId] */\n      dup2\n      mstore\n      0x20\n      add\n      swap1\n      dup2\n      mstore\n      0x20\n      add\n      0x00\n      keccak256\n        /* \"contracts/InquireA.sol\":6063:6092  answers[questionId][answerId] */\n      0x00\n        /* \"contracts/InquireA.sol\":6083:6091  answerId */\n      dup4\n        /* \"contracts/InquireA.sol\":6063:6092  answers[questionId][answerId] */\n      dup2\n      mstore\n      0x20\n      add\n      swap1\n      dup2\n      mstore\n      0x20\n      add\n      0x00\n      keccak256\n        /* \"contracts/InquireA.sol\":6063:6102  answers[questionId][answerId].responder */\n      0x01\n      add\n      0x00\n      swap1\n      sload\n      swap1\n      0x0100\n      exp\n      swap1\n      div\n      0xffffffffffffffffffffffffffffffffffffffff\n      and\n        /* \"contracts/InquireA.sol\":6063:6116  answers[questionId][answerId].responder != address(0) */\n      0xffffffffffffffffffffffffffffffffffffffff\n      and\n      sub\n        /* \"contracts/InquireA.sol\":6055:6142  require(answers[questionId][answerId].responder != address(0), \"Answer does not exist\") */\n      tag_343\n      jumpi\n      mload(0x40)\n      0x08c379a000000000000000000000000000000000000000000000000000000000\n      dup2\n      mstore\n      0x04\n      add\n      tag_344\n      swap1\n      tag_249\n      jump\t// in\n    tag_344:\n      mload(0x40)\n      dup1\n      swap2\n      sub\n      swap1\n      revert\n    tag_343:\n        /* \"contracts/InquireA.sol\":6172:6181  questions */\n      0x04\n        /* \"contracts/InquireA.sol\":6172:6193  questions[questionId] */\n      0x00\n        /* \"contracts/InquireA.sol\":6182:6192  questionId */\n      dup4\n        /* \"contracts/InquireA.sol\":6172:6193  questions[questionId] */\n      dup2\n      mstore\n      0x20\n      add\n      swap1\n      dup2\n      mstore\n      0x20\n      add\n      0x00\n      keccak256\n        /* \"contracts/InquireA.sol\":6172:6202  questions[questionId].isClosed */\n      0x08\n      add\n      0x00\n      swap1\n      sload\n      swap1\n      0x0100\n      exp\n      swap1\n      div\n      0xff\n      and\n        /* \"contracts/InquireA.sol\":6171:6202  !questions[questionId].isClosed */\n      iszero\n        /* \"contracts/InquireA.sol\":6163:6233  require(!questions[questionId].isClosed, \"Question is already closed\") */\n      tag_345\n      jumpi\n      mload(0x40)\n      0x08c379a000000000000000000000000000000000000000000000000000000000\n      dup2\n      mstore\n      0x04\n      add\n      tag_346\n      swap1\n      tag_147\n      jump\t// in\n    tag_346:\n      mload(0x40)\n      dup1\n      swap2\n      sub\n      swap1\n      revert\n    tag_345:\n        /* \"contracts/InquireA.sol\":6400:6404  true */\n      0x01\n        /* \"contracts/InquireA.sol\":6367:6376  questions */\n      0x04\n        /* \"contracts/InquireA.sol\":6367:6388  questions[questionId] */\n      0x00\n        /* \"contracts/InquireA.sol\":6377:6387  questionId */\n      dup5\n        /* \"contracts/InquireA.sol\":6367:6388  questions[questionId] */\n      dup2\n      mstore\n      0x20\n      add\n      swap1\n      dup2\n      mstore\n      0x20\n      add\n      0x00\n      keccak256\n        /* \"contracts/InquireA.sol\":6367:6397  questions[questionId].isClosed */\n      0x08\n      add\n      0x00\n        /* \"contracts/InquireA.sol\":6367:6404  questions[questionId].isClosed = true */\n      0x0100\n      exp\n      dup2\n      sload\n      dup2\n      0xff\n      mul\n      not\n      and\n      swap1\n      dup4\n      iszero\n      iszero\n      mul\n      or\n      swap1\n      sstore\n      pop\n        /* \"contracts/InquireA.sol\":6454:6462  answerId */\n      dup1\n        /* \"contracts/InquireA.sol\":6415:6424  questions */\n      0x04\n        /* \"contracts/InquireA.sol\":6415:6436  questions[questionId] */\n      0x00\n        /* \"contracts/InquireA.sol\":6425:6435  questionId */\n      dup5\n        /* \"contracts/InquireA.sol\":6415:6436  questions[questionId] */\n      dup2\n      mstore\n      0x20\n      add\n      swap1\n      dup2\n      mstore\n      0x20\n      add\n      0x00\n      keccak256\n        /* \"contracts/InquireA.sol\":6415:6451  questions[questionId].chosenAnswerId */\n      0x09\n      add\n        /* \"contracts/InquireA.sol\":6415:6462  questions[questionId].chosenAnswerId = answerId */\n      dup2\n      swap1\n      sstore\n      pop\n        /* \"contracts/InquireA.sol\":6475:6496  address bestResponder */\n      0x00\n        /* \"contracts/InquireA.sol\":6499:6506  answers */\n      0x05\n        /* \"contracts/InquireA.sol\":6499:6518  answers[questionId] */\n      0x00\n        /* \"contracts/InquireA.sol\":6507:6517  questionId */\n      dup5\n        /* \"contracts/InquireA.sol\":6499:6518  answers[questionId] */\n      dup2\n      mstore\n      0x20\n      add\n      swap1\n      dup2\n      mstore\n      0x20\n      add\n      0x00\n      keccak256\n        /* \"contracts/InquireA.sol\":6499:6528  answers[questionId][answerId] */\n      0x00\n        /* \"contracts/InquireA.sol\":6519:6527  answerId */\n      dup4\n        /* \"contracts/InquireA.sol\":6499:6528  answers[questionId][answerId] */\n      dup2\n      mstore\n      0x20\n      add\n      swap1\n      dup2\n      mstore\n      0x20\n      add\n      0x00\n      keccak256\n        /* \"contracts/InquireA.sol\":6499:6538  answers[questionId][answerId].responder */\n      0x01\n      add\n      0x00\n      swap1\n      sload\n      swap1\n      0x0100\n      exp\n      swap1\n      div\n      0xffffffffffffffffffffffffffffffffffffffff\n      and\n        /* \"contracts/InquireA.sol\":6475:6538  address bestResponder = answers[questionId][answerId].responder */\n      swap1\n      pop\n        /* \"contracts/InquireA.sol\":6559:6578  uint256 totalReward */\n      0x00\n        /* \"contracts/InquireA.sol\":6581:6590  questions */\n      0x04\n        /* \"contracts/InquireA.sol\":6581:6602  questions[questionId] */\n      0x00\n        /* \"contracts/InquireA.sol\":6591:6601  questionId */\n      dup6\n        /* \"contracts/InquireA.sol\":6581:6602  questions[questionId] */\n      dup2\n      mstore\n      0x20\n      add\n      swap1\n      dup2\n      mstore\n      0x20\n      add\n      0x00\n      keccak256\n        /* \"contracts/InquireA.sol\":6581:6615  questions[questionId].rewardAmount */\n      0x05\n      add\n      sload\n        /* \"contracts/InquireA.sol\":6559:6615  uint256 totalReward = questions[questionId].rewardAmount */\n      swap1\n      pop\n        /* \"contracts/InquireA.sol\":6673:6684  totalReward */\n      dup1\n        /* \"contracts/InquireA.sol\":6628:6635  answers */\n      0x05\n        /* \"contracts/InquireA.sol\":6628:6647  answers[questionId] */\n      0x00\n        /* \"contracts/InquireA.sol\":6636:6646  questionId */\n      dup7\n        /* \"contracts/InquireA.sol\":6628:6647  answers[questionId] */\n      dup2\n      mstore\n      0x20\n      add\n      swap1\n      dup2\n      mstore\n      0x20\n      add\n      0x00\n      keccak256\n        /* \"contracts/InquireA.sol\":6628:6657  answers[questionId][answerId] */\n      0x00\n        /* \"contracts/InquireA.sol\":6648:6656  answerId */\n      dup6\n        /* \"contracts/InquireA.sol\":6628:6657  answers[questionId][answerId] */\n      dup2\n      mstore\n      0x20\n      add\n      swap1\n      dup2\n      mstore\n      0x20\n      add\n      0x00\n      keccak256\n        /* \"contracts/InquireA.sol\":6628:6670  answers[questionId][answerId].rewardAmount */\n      0x04\n      add\n        /* \"contracts/InquireA.sol\":6628:6684  answers[questionId][answerId].rewardAmount = totalReward */\n      dup2\n      swap1\n      sstore\n      pop\n        /* \"contracts/InquireA.sol\":6705:6718  bestResponder */\n      dup2\n        /* \"contracts/InquireA.sol\":6697:6728  payable(bestResponder).transfer */\n      0xffffffffffffffffffffffffffffffffffffffff\n      and\n        /* \"contracts/InquireA.sol\":6697:6741  payable(bestResponder).transfer(totalReward) */\n      0x08fc\n        /* \"contracts/InquireA.sol\":6729:6740  totalReward */\n      dup3\n        /* \"contracts/InquireA.sol\":6697:6741  payable(bestResponder).transfer(totalReward) */\n      swap1\n      dup2\n      iszero\n      mul\n      swap1\n      mload(0x40)\n      0x00\n      mload(0x40)\n      dup1\n      dup4\n      sub\n      dup2\n      dup6\n      dup9\n      dup9\n      call\n      swap4\n      pop\n      pop\n      pop\n      pop\n      iszero\n      dup1\n      iszero\n      tag_348\n      jumpi\n      returndatasize\n      0x00\n      dup1\n      returndatacopy\n      revert(0x00, returndatasize)\n    tag_348:\n      pop\n        /* \"contracts/InquireA.sol\":6759:6795  QuestionClosed(questionId, answerId) */\n      0x99fe2c8abd13b610e7f7d4a51a49e1391ba19454b72305176b884d66010e475a\n        /* \"contracts/InquireA.sol\":6774:6784  questionId */\n      dup5\n        /* \"contracts/InquireA.sol\":6786:6794  answerId */\n      dup5\n        /* \"contracts/InquireA.sol\":6759:6795  QuestionClosed(questionId, answerId) */\n      mload(0x40)\n      tag_349\n      swap3\n      swap2\n      swap1\n      tag_153\n      jump\t// in\n    tag_349:\n      mload(0x40)\n      dup1\n      swap2\n      sub\n      swap1\n      log1\n        /* \"contracts/InquireA.sol\":5825:6803  {... */\n      pop\n      pop\n        /* \"contracts/InquireA.sol\":5746:6803  function selectBestAnswer(uint256 questionId, uint256 answerId) public payable {... */\n      pop\n      pop\n      jump\t// out\n        /* \"contracts/InquireA.sol\":274:317  uint256 public constant TWO_WEEKS = 14 days */\n    tag_99:\n        /* \"contracts/InquireA.sol\":310:317  14 days */\n      0x127500\n        /* \"contracts/InquireA.sol\":274:317  uint256 public constant TWO_WEEKS = 14 days */\n      dup2\n      jump\t// out\n        /* \"contracts/InquireA.sol\":11935:12031  function balance() public view returns (uint256) {... */\n    tag_103:\n        /* \"contracts/InquireA.sol\":11975:11982  uint256 */\n      0x00\n        /* \"contracts/InquireA.sol\":12002:12023  address(this).balance */\n      selfbalance\n        /* \"contracts/InquireA.sol\":11995:12023  return address(this).balance */\n      swap1\n      pop\n        /* \"contracts/InquireA.sol\":11935:12031  function balance() public view returns (uint256) {... */\n      swap1\n      jump\t// out\n        /* \"contracts/InquireA.sol\":193:223  uint256 public answerIdCounter */\n    tag_107:\n      sload(0x03)\n      dup2\n      jump\t// out\n        /* \"contracts/InquireA.sol\":324:363  uint256 public constant MONTH = 30 days */\n    tag_111:\n        /* \"contracts/InquireA.sol\":356:363  30 days */\n      0x278d00\n        /* \"contracts/InquireA.sol\":324:363  uint256 public constant MONTH = 30 days */\n      dup2\n      jump\t// out\n        /* \"contracts/InquireA.sol\":112:147  uint256 public voteFee = 0.01 ether */\n    tag_115:\n      sload(0x01)\n      dup2\n      jump\t// out\n        /* \"contracts/InquireA.sol\":6811:7029  function getQuestionById(uint256 questionId) public view returns (Question memory) {... */\n    tag_120:\n        /* \"contracts/InquireA.sol\":6877:6892  Question memory */\n      tag_351\n      tag_352\n      jump\t// in\n    tag_351:\n        /* \"contracts/InquireA.sol\":6952:6953  0 */\n      0x00\n        /* \"contracts/InquireA.sol\":6913:6954  questions[questionId].asker != address(0) */\n      0xffffffffffffffffffffffffffffffffffffffff\n      and\n        /* \"contracts/InquireA.sol\":6913:6922  questions */\n      0x04\n        /* \"contracts/InquireA.sol\":6913:6934  questions[questionId] */\n      0x00\n        /* \"contracts/InquireA.sol\":6923:6933  questionId */\n      dup5\n        /* \"contracts/InquireA.sol\":6913:6934  questions[questionId] */\n      dup2\n      mstore\n      0x20\n      add\n      swap1\n      dup2\n      mstore\n      0x20\n      add\n      0x00\n      keccak256\n        /* \"contracts/InquireA.sol\":6913:6940  questions[questionId].asker */\n      0x01\n      add\n      0x00\n      swap1\n      sload\n      swap1\n      0x0100\n      exp\n      swap1\n      div\n      0xffffffffffffffffffffffffffffffffffffffff\n      and\n        /* \"contracts/InquireA.sol\":6913:6954  questions[questionId].asker != address(0) */\n      0xffffffffffffffffffffffffffffffffffffffff\n      and\n      sub\n        /* \"contracts/InquireA.sol\":6905:6982  require(questions[questionId].asker != address(0), \"Question does not exist\") */\n      tag_354\n      jumpi\n      mload(0x40)\n      0x08c379a000000000000000000000000000000000000000000000000000000000\n      dup2\n      mstore\n      0x04\n      add\n      tag_355\n      swap1\n      tag_143\n      jump\t// in\n    tag_355:\n      mload(0x40)\n      dup1\n      swap2\n      sub\n      swap1\n      revert\n    tag_354:\n        /* \"contracts/InquireA.sol\":7000:7009  questions */\n      0x04\n        /* \"contracts/InquireA.sol\":7000:7021  questions[questionId] */\n      0x00\n        /* \"contracts/InquireA.sol\":7010:7020  questionId */\n      dup4\n        /* \"contracts/InquireA.sol\":7000:7021  questions[questionId] */\n      dup2\n      mstore\n      0x20\n      add\n      swap1\n      dup2\n      mstore\n      0x20\n      add\n      0x00\n      keccak256\n        /* \"contracts/InquireA.sol\":6993:7021  return questions[questionId] */\n      mload(0x40)\n      dup1\n      0x0140\n      add\n      0x40\n      mstore\n      swap1\n      dup2\n      0x00\n      dup3\n      add\n      sload\n      dup2\n      mstore\n      0x20\n      add\n      0x01\n      dup3\n      add\n      0x00\n      swap1\n      sload\n      swap1\n      0x0100\n      exp\n      swap1\n      div\n      0xffffffffffffffffffffffffffffffffffffffff\n      and\n      0xffffffffffffffffffffffffffffffffffffffff\n      and\n      0xffffffffffffffffffffffffffffffffffffffff\n      and\n      dup2\n      mstore\n      0x20\n      add\n      0x02\n      dup3\n      add\n      dup1\n      sload\n      tag_356\n      swap1\n      tag_162\n      jump\t// in\n    tag_356:\n      dup1\n      0x1f\n      add\n      0x20\n      dup1\n      swap2\n      div\n      mul\n      0x20\n      add\n      mload(0x40)\n      swap1\n      dup2\n      add\n      0x40\n      mstore\n      dup1\n      swap3\n      swap2\n      swap1\n      dup2\n      dup2\n      mstore\n      0x20\n      add\n      dup3\n      dup1\n      sload\n      tag_357\n      swap1\n      tag_162\n      jump\t// in\n    tag_357:\n      dup1\n      iszero\n      tag_358\n      jumpi\n      dup1\n      0x1f\n      lt\n      tag_359\n      jumpi\n      0x0100\n      dup1\n      dup4\n      sload\n      div\n      mul\n      dup4\n      mstore\n      swap2\n      0x20\n      add\n      swap2\n      jump(tag_358)\n    tag_359:\n      dup3\n      add\n      swap2\n      swap1\n      0x00\n      mstore\n      keccak256(0x00, 0x20)\n      swap1\n    tag_360:\n      dup2\n      sload\n      dup2\n      mstore\n      swap1\n      0x01\n      add\n      swap1\n      0x20\n      add\n      dup1\n      dup4\n      gt\n      tag_360\n      jumpi\n      dup3\n      swap1\n      sub\n      0x1f\n      and\n      dup3\n      add\n      swap2\n    tag_358:\n      pop\n      pop\n      pop\n      pop\n      pop\n      dup2\n      mstore\n      0x20\n      add\n      0x03\n      dup3\n      add\n      dup1\n      sload\n      tag_361\n      swap1\n      tag_162\n      jump\t// in\n    tag_361:\n      dup1\n      0x1f\n      add\n      0x20\n      dup1\n      swap2\n      div\n      mul\n      0x20\n      add\n      mload(0x40)\n      swap1\n      dup2\n      add\n      0x40\n      mstore\n      dup1\n      swap3\n      swap2\n      swap1\n      dup2\n      dup2\n      mstore\n      0x20\n      add\n      dup3\n      dup1\n      sload\n      tag_362\n      swap1\n      tag_162\n      jump\t// in\n    tag_362:\n      dup1\n      iszero\n      tag_363\n      jumpi\n      dup1\n      0x1f\n      lt\n      tag_364\n      jumpi\n      0x0100\n      dup1\n      dup4\n      sload\n      div\n      mul\n      dup4\n      mstore\n      swap2\n      0x20\n      add\n      swap2\n      jump(tag_363)\n    tag_364:\n      dup3\n      add\n      swap2\n      swap1\n      0x00\n      mstore\n      keccak256(0x00, 0x20)\n      swap1\n    tag_365:\n      dup2\n      sload\n      dup2\n      mstore\n      swap1\n      0x01\n      add\n      swap1\n      0x20\n      add\n      dup1\n      dup4\n      gt\n      tag_365\n      jumpi\n      dup3\n      swap1\n      sub\n      0x1f\n      and\n      dup3\n      add\n      swap2\n    tag_363:\n      pop\n      pop\n      pop\n      pop\n      pop\n      dup2\n      mstore\n      0x20\n      add\n      0x04\n      dup3\n      add\n      dup1\n      sload\n      tag_366\n      swap1\n      tag_162\n      jump\t// in\n    tag_366:\n      dup1\n      0x1f\n      add\n      0x20\n      dup1\n      swap2\n      div\n      mul\n      0x20\n      add\n      mload(0x40)\n      swap1\n      dup2\n      add\n      0x40\n      mstore\n      dup1\n      swap3\n      swap2\n      swap1\n      dup2\n      dup2\n      mstore\n      0x20\n      add\n      dup3\n      dup1\n      sload\n      tag_367\n      swap1\n      tag_162\n      jump\t// in\n    tag_367:\n      dup1\n      iszero\n      tag_368\n      jumpi\n      dup1\n      0x1f\n      lt\n      tag_369\n      jumpi\n      0x0100\n      dup1\n      dup4\n      sload\n      div\n      mul\n      dup4\n      mstore\n      swap2\n      0x20\n      add\n      swap2\n      jump(tag_368)\n    tag_369:\n      dup3\n      add\n      swap2\n      swap1\n      0x00\n      mstore\n      keccak256(0x00, 0x20)\n      swap1\n    tag_370:\n      dup2\n      sload\n      dup2\n      mstore\n      swap1\n      0x01\n      add\n      swap1\n      0x20\n      add\n      dup1\n      dup4\n      gt\n      tag_370\n      jumpi\n      dup3\n      swap1\n      sub\n      0x1f\n      and\n      dup3\n      add\n      swap2\n    tag_368:\n      pop\n      pop\n      pop\n      pop\n      pop\n      dup2\n      mstore\n      0x20\n      add\n      0x05\n      dup3\n      add\n      sload\n      dup2\n      mstore\n      0x20\n      add\n      0x06\n      dup3\n      add\n      sload\n      dup2\n      mstore\n      0x20\n      add\n      0x07\n      dup3\n      add\n      sload\n      dup2\n      mstore\n      0x20\n      add\n      0x08\n      dup3\n      add\n      0x00\n      swap1\n      sload\n      swap1\n      0x0100\n      exp\n      swap1\n      div\n      0xff\n      and\n      iszero\n      iszero\n      iszero\n      iszero\n      dup2\n      mstore\n      0x20\n      add\n      0x09\n      dup3\n      add\n      sload\n      dup2\n      mstore\n      pop\n      pop\n      swap1\n      pop\n        /* \"contracts/InquireA.sol\":6811:7029  function getQuestionById(uint256 questionId) public view returns (Question memory) {... */\n      swap2\n      swap1\n      pop\n      jump\t// out\n        /* \"contracts/InquireA.sol\":7037:9425  function getAnswersByQuestionId(... */\n    tag_127:\n        /* \"contracts/InquireA.sol\":7193:7220  Answer[] memory answersList */\n      0x60\n        /* \"contracts/InquireA.sol\":7232:7252  uint256 totalAnswers */\n      0x00\n        /* \"contracts/InquireA.sol\":7264:7282  uint256 totalPages */\n      dup1\n        /* \"contracts/InquireA.sol\":7394:7395  0 */\n      0x00\n        /* \"contracts/InquireA.sol\":7355:7396  questions[questionId].asker != address(0) */\n      0xffffffffffffffffffffffffffffffffffffffff\n      and\n        /* \"contracts/InquireA.sol\":7355:7364  questions */\n      0x04\n        /* \"contracts/InquireA.sol\":7355:7376  questions[questionId] */\n      0x00\n        /* \"contracts/InquireA.sol\":7365:7375  questionId */\n      dup9\n        /* \"contracts/InquireA.sol\":7355:7376  questions[questionId] */\n      dup2\n      mstore\n      0x20\n      add\n      swap1\n      dup2\n      mstore\n      0x20\n      add\n      0x00\n      keccak256\n        /* \"contracts/InquireA.sol\":7355:7382  questions[questionId].asker */\n      0x01\n      add\n      0x00\n      swap1\n      sload\n      swap1\n      0x0100\n      exp\n      swap1\n      div\n      0xffffffffffffffffffffffffffffffffffffffff\n      and\n        /* \"contracts/InquireA.sol\":7355:7396  questions[questionId].asker != address(0) */\n      0xffffffffffffffffffffffffffffffffffffffff\n      and\n      sub\n        /* \"contracts/InquireA.sol\":7347:7424  require(questions[questionId].asker != address(0), \"Question does not exist\") */\n      tag_372\n      jumpi\n      mload(0x40)\n      0x08c379a000000000000000000000000000000000000000000000000000000000\n      dup2\n      mstore\n      0x04\n      add\n      tag_373\n      swap1\n      tag_143\n      jump\t// in\n    tag_373:\n      mload(0x40)\n      dup1\n      swap2\n      sub\n      swap1\n      revert\n    tag_372:\n        /* \"contracts/InquireA.sol\":7523:7524  0 */\n      0x00\n        /* \"contracts/InquireA.sol\":7511:7520  pageIndex */\n      dup6\n        /* \"contracts/InquireA.sol\":7511:7524  pageIndex > 0 */\n      gt\n        /* \"contracts/InquireA.sol\":7503:7557  require(pageIndex > 0, \"Page index must start from 1\") */\n      tag_374\n      jumpi\n      mload(0x40)\n      0x08c379a000000000000000000000000000000000000000000000000000000000\n      dup2\n      mstore\n      0x04\n      add\n      tag_375\n      swap1\n      tag_376\n      jump\t// in\n    tag_375:\n      mload(0x40)\n      dup1\n      swap2\n      sub\n      swap1\n      revert\n    tag_374:\n        /* \"contracts/InquireA.sol\":7587:7588  0 */\n      0x00\n        /* \"contracts/InquireA.sol\":7576:7584  pageSize */\n      dup5\n        /* \"contracts/InquireA.sol\":7576:7588  pageSize > 0 */\n      gt\n        /* \"contracts/InquireA.sol\":7568:7625  require(pageSize > 0, \"Page size must be greater than 0\") */\n      tag_377\n      jumpi\n      mload(0x40)\n      0x08c379a000000000000000000000000000000000000000000000000000000000\n      dup2\n      mstore\n      0x04\n      add\n      tag_378\n      swap1\n      tag_379\n      jump\t// in\n    tag_378:\n      mload(0x40)\n      dup1\n      swap2\n      sub\n      swap1\n      revert\n    tag_377:\n        /* \"contracts/InquireA.sol\":7706:7726  uint256 answersCount */\n      0x00\n        /* \"contracts/InquireA.sol\":7746:7755  uint256 i */\n      dup1\n        /* \"contracts/InquireA.sol\":7758:7759  1 */\n      0x01\n        /* \"contracts/InquireA.sol\":7746:7759  uint256 i = 1 */\n      swap1\n      pop\n        /* \"contracts/InquireA.sol\":7741:7914  for (uint256 i = 1; i < answerIdCounter; i++) {... */\n    tag_380:\n        /* \"contracts/InquireA.sol\":7765:7780  answerIdCounter */\n      sload(0x03)\n        /* \"contracts/InquireA.sol\":7761:7762  i */\n      dup2\n        /* \"contracts/InquireA.sol\":7761:7780  i < answerIdCounter */\n      lt\n        /* \"contracts/InquireA.sol\":7741:7914  for (uint256 i = 1; i < answerIdCounter; i++) {... */\n      iszero\n      tag_381\n      jumpi\n        /* \"contracts/InquireA.sol\":7850:7851  0 */\n      0x00\n        /* \"contracts/InquireA.sol\":7806:7852  answers[questionId][i].responder != address(0) */\n      0xffffffffffffffffffffffffffffffffffffffff\n      and\n        /* \"contracts/InquireA.sol\":7806:7813  answers */\n      0x05\n        /* \"contracts/InquireA.sol\":7806:7825  answers[questionId] */\n      0x00\n        /* \"contracts/InquireA.sol\":7814:7824  questionId */\n      dup11\n        /* \"contracts/InquireA.sol\":7806:7825  answers[questionId] */\n      dup2\n      mstore\n      0x20\n      add\n      swap1\n      dup2\n      mstore\n      0x20\n      add\n      0x00\n      keccak256\n        /* \"contracts/InquireA.sol\":7806:7828  answers[questionId][i] */\n      0x00\n        /* \"contracts/InquireA.sol\":7826:7827  i */\n      dup4\n        /* \"contracts/InquireA.sol\":7806:7828  answers[questionId][i] */\n      dup2\n      mstore\n      0x20\n      add\n      swap1\n      dup2\n      mstore\n      0x20\n      add\n      0x00\n      keccak256\n        /* \"contracts/InquireA.sol\":7806:7838  answers[questionId][i].responder */\n      0x01\n      add\n      0x00\n      swap1\n      sload\n      swap1\n      0x0100\n      exp\n      swap1\n      div\n      0xffffffffffffffffffffffffffffffffffffffff\n      and\n        /* \"contracts/InquireA.sol\":7806:7852  answers[questionId][i].responder != address(0) */\n      0xffffffffffffffffffffffffffffffffffffffff\n      and\n      eq\n        /* \"contracts/InquireA.sol\":7802:7903  if (answers[questionId][i].responder != address(0)) {... */\n      tag_383\n      jumpi\n        /* \"contracts/InquireA.sol\":7873:7887  answersCount++ */\n      dup2\n      dup1\n      tag_384\n      swap1\n      tag_181\n      jump\t// in\n    tag_384:\n      swap3\n      pop\n      pop\n        /* \"contracts/InquireA.sol\":7802:7903  if (answers[questionId][i].responder != address(0)) {... */\n    tag_383:\n        /* \"contracts/InquireA.sol\":7782:7785  i++ */\n      dup1\n      dup1\n      0x01\n      add\n      swap2\n      pop\n      pop\n        /* \"contracts/InquireA.sol\":7741:7914  for (uint256 i = 1; i < answerIdCounter; i++) {... */\n      jump(tag_380)\n    tag_381:\n      pop\n        /* \"contracts/InquireA.sol\":7941:7953  answersCount */\n      dup1\n        /* \"contracts/InquireA.sol\":7926:7953  totalAnswers = answersCount */\n      swap3\n      pop\n        /* \"contracts/InquireA.sol\":8042:8043  0 */\n      0x00\n        /* \"contracts/InquireA.sol\":8026:8038  totalAnswers */\n      dup4\n        /* \"contracts/InquireA.sol\":8026:8043  totalAnswers == 0 */\n      sub\n        /* \"contracts/InquireA.sol\":8022:8102  if (totalAnswers == 0) {... */\n      tag_385\n      jumpi\n        /* \"contracts/InquireA.sol\":8081:8082  0 */\n      0x00\n        /* \"contracts/InquireA.sol\":8068:8083  new Answer[](0) */\n      0xffffffffffffffff\n      dup2\n      gt\n      iszero\n      tag_386\n      jumpi\n      tag_387\n      tag_258\n      jump\t// in\n    tag_387:\n    tag_386:\n      mload(0x40)\n      swap1\n      dup1\n      dup3\n      mstore\n      dup1\n      0x20\n      mul\n      0x20\n      add\n      dup3\n      add\n      0x40\n      mstore\n      dup1\n      iszero\n      tag_388\n      jumpi\n      dup2\n      0x20\n      add\n    tag_389:\n      tag_390\n      tag_245\n      jump\t// in\n    tag_390:\n      dup2\n      mstore\n      0x20\n      add\n      swap1\n      0x01\n      swap1\n      sub\n      swap1\n      dup2\n      tag_389\n      jumpi\n      swap1\n      pop\n    tag_388:\n      pop\n        /* \"contracts/InquireA.sol\":8085:8086  0 */\n      0x00\n        /* \"contracts/InquireA.sol\":8088:8089  0 */\n      dup1\n        /* \"contracts/InquireA.sol\":8060:8090  return (new Answer[](0), 0, 0) */\n      swap4\n      pop\n      swap4\n      pop\n      swap4\n      pop\n      pop\n      jump(tag_371)\n        /* \"contracts/InquireA.sol\":8022:8102  if (totalAnswers == 0) {... */\n    tag_385:\n        /* \"contracts/InquireA.sol\":8195:8203  pageSize */\n      dup5\n        /* \"contracts/InquireA.sol\":8190:8191  1 */\n      0x01\n        /* \"contracts/InquireA.sol\":8179:8187  pageSize */\n      dup7\n        /* \"contracts/InquireA.sol\":8164:8176  totalAnswers */\n      dup6\n        /* \"contracts/InquireA.sol\":8164:8187  totalAnswers + pageSize */\n      tag_391\n      swap2\n      swap1\n      tag_220\n      jump\t// in\n    tag_391:\n        /* \"contracts/InquireA.sol\":8164:8191  totalAnswers + pageSize - 1 */\n      tag_392\n      swap2\n      swap1\n      tag_393\n      jump\t// in\n    tag_392:\n        /* \"contracts/InquireA.sol\":8163:8203  (totalAnswers + pageSize - 1) / pageSize */\n      tag_394\n      swap2\n      swap1\n      tag_334\n      jump\t// in\n    tag_394:\n        /* \"contracts/InquireA.sol\":8150:8203  totalPages = (totalAnswers + pageSize - 1) / pageSize */\n      swap2\n      pop\n        /* \"contracts/InquireA.sol\":8301:8311  totalPages */\n      dup2\n        /* \"contracts/InquireA.sol\":8288:8297  pageIndex */\n      dup7\n        /* \"contracts/InquireA.sol\":8288:8311  pageIndex <= totalPages */\n      gt\n      iszero\n        /* \"contracts/InquireA.sol\":8280:8334  require(pageIndex <= totalPages, \"Invalid page index\") */\n      tag_395\n      jumpi\n      mload(0x40)\n      0x08c379a000000000000000000000000000000000000000000000000000000000\n      dup2\n      mstore\n      0x04\n      add\n      tag_396\n      swap1\n      tag_397\n      jump\t// in\n    tag_396:\n      mload(0x40)\n      dup1\n      swap2\n      sub\n      swap1\n      revert\n    tag_395:\n        /* \"contracts/InquireA.sol\":8421:8439  uint256 startIndex */\n      0x00\n        /* \"contracts/InquireA.sol\":8471:8472  1 */\n      0x01\n        /* \"contracts/InquireA.sol\":8460:8468  pageSize */\n      dup7\n        /* \"contracts/InquireA.sol\":8455:8456  1 */\n      0x01\n        /* \"contracts/InquireA.sol\":8443:8452  pageIndex */\n      dup10\n        /* \"contracts/InquireA.sol\":8443:8456  pageIndex - 1 */\n      tag_398\n      swap2\n      swap1\n      tag_393\n      jump\t// in\n    tag_398:\n        /* \"contracts/InquireA.sol\":8442:8468  (pageIndex - 1) * pageSize */\n      tag_399\n      swap2\n      swap1\n      tag_332\n      jump\t// in\n    tag_399:\n        /* \"contracts/InquireA.sol\":8442:8472  (pageIndex - 1) * pageSize + 1 */\n      tag_400\n      swap2\n      swap1\n      tag_220\n      jump\t// in\n    tag_400:\n        /* \"contracts/InquireA.sol\":8421:8472  uint256 startIndex = (pageIndex - 1) * pageSize + 1 */\n      swap1\n      pop\n        /* \"contracts/InquireA.sol\":8483:8499  uint256 endIndex */\n      0x00\n        /* \"contracts/InquireA.sol\":8526:8527  1 */\n      0x01\n        /* \"contracts/InquireA.sol\":8515:8523  pageSize */\n      dup8\n        /* \"contracts/InquireA.sol\":8502:8512  startIndex */\n      dup4\n        /* \"contracts/InquireA.sol\":8502:8523  startIndex + pageSize */\n      tag_401\n      swap2\n      swap1\n      tag_220\n      jump\t// in\n    tag_401:\n        /* \"contracts/InquireA.sol\":8502:8527  startIndex + pageSize - 1 */\n      tag_402\n      swap2\n      swap1\n      tag_393\n      jump\t// in\n    tag_402:\n        /* \"contracts/InquireA.sol\":8483:8527  uint256 endIndex = startIndex + pageSize - 1 */\n      swap1\n      pop\n        /* \"contracts/InquireA.sol\":8660:8661  1 */\n      0x01\n        /* \"contracts/InquireA.sol\":8642:8657  answerIdCounter */\n      sload(0x03)\n        /* \"contracts/InquireA.sol\":8642:8661  answerIdCounter - 1 */\n      tag_403\n      swap2\n      swap1\n      tag_393\n      jump\t// in\n    tag_403:\n        /* \"contracts/InquireA.sol\":8631:8639  endIndex */\n      dup2\n        /* \"contracts/InquireA.sol\":8631:8661  endIndex > answerIdCounter - 1 */\n      gt\n        /* \"contracts/InquireA.sol\":8627:8720  if (endIndex > answerIdCounter - 1) {... */\n      iszero\n      tag_404\n      jumpi\n        /* \"contracts/InquireA.sol\":8707:8708  1 */\n      0x01\n        /* \"contracts/InquireA.sol\":8689:8704  answerIdCounter */\n      sload(0x03)\n        /* \"contracts/InquireA.sol\":8689:8708  answerIdCounter - 1 */\n      tag_405\n      swap2\n      swap1\n      tag_393\n      jump\t// in\n    tag_405:\n        /* \"contracts/InquireA.sol\":8678:8708  endIndex = answerIdCounter - 1 */\n      swap1\n      pop\n        /* \"contracts/InquireA.sol\":8627:8720  if (endIndex > answerIdCounter - 1) {... */\n    tag_404:\n        /* \"contracts/InquireA.sol\":8774:8792  uint256 resultSize */\n      0x00\n        /* \"contracts/InquireA.sol\":8812:8821  uint256 i */\n      dup1\n        /* \"contracts/InquireA.sol\":8824:8834  startIndex */\n      dup4\n        /* \"contracts/InquireA.sol\":8812:8834  uint256 i = startIndex */\n      swap1\n      pop\n        /* \"contracts/InquireA.sol\":8807:8981  for (uint256 i = startIndex; i <= endIndex; i++) {... */\n    tag_406:\n        /* \"contracts/InquireA.sol\":8841:8849  endIndex */\n      dup3\n        /* \"contracts/InquireA.sol\":8836:8837  i */\n      dup2\n        /* \"contracts/InquireA.sol\":8836:8849  i <= endIndex */\n      gt\n        /* \"contracts/InquireA.sol\":8807:8981  for (uint256 i = startIndex; i <= endIndex; i++) {... */\n      tag_407\n      jumpi\n        /* \"contracts/InquireA.sol\":8919:8920  0 */\n      0x00\n        /* \"contracts/InquireA.sol\":8875:8921  answers[questionId][i].responder != address(0) */\n      0xffffffffffffffffffffffffffffffffffffffff\n      and\n        /* \"contracts/InquireA.sol\":8875:8882  answers */\n      0x05\n        /* \"contracts/InquireA.sol\":8875:8894  answers[questionId] */\n      0x00\n        /* \"contracts/InquireA.sol\":8883:8893  questionId */\n      dup14\n        /* \"contracts/InquireA.sol\":8875:8894  answers[questionId] */\n      dup2\n      mstore\n      0x20\n      add\n      swap1\n      dup2\n      mstore\n      0x20\n      add\n      0x00\n      keccak256\n        /* \"contracts/InquireA.sol\":8875:8897  answers[questionId][i] */\n      0x00\n        /* \"contracts/InquireA.sol\":8895:8896  i */\n      dup4\n        /* \"contracts/InquireA.sol\":8875:8897  answers[questionId][i] */\n      dup2\n      mstore\n      0x20\n      add\n      swap1\n      dup2\n      mstore\n      0x20\n      add\n      0x00\n      keccak256\n        /* \"contracts/InquireA.sol\":8875:8907  answers[questionId][i].responder */\n      0x01\n      add\n      0x00\n      swap1\n      sload\n      swap1\n      0x0100\n      exp\n      swap1\n      div\n      0xffffffffffffffffffffffffffffffffffffffff\n      and\n        /* \"contracts/InquireA.sol\":8875:8921  answers[questionId][i].responder != address(0) */\n      0xffffffffffffffffffffffffffffffffffffffff\n      and\n      eq\n        /* \"contracts/InquireA.sol\":8871:8970  if (answers[questionId][i].responder != address(0)) {... */\n      tag_409\n      jumpi\n        /* \"contracts/InquireA.sol\":8942:8954  resultSize++ */\n      dup2\n      dup1\n      tag_410\n      swap1\n      tag_181\n      jump\t// in\n    tag_410:\n      swap3\n      pop\n      pop\n        /* \"contracts/InquireA.sol\":8871:8970  if (answers[questionId][i].responder != address(0)) {... */\n    tag_409:\n        /* \"contracts/InquireA.sol\":8851:8854  i++ */\n      dup1\n      dup1\n      tag_411\n      swap1\n      tag_181\n      jump\t// in\n    tag_411:\n      swap2\n      pop\n      pop\n        /* \"contracts/InquireA.sol\":8807:8981  for (uint256 i = startIndex; i <= endIndex; i++) {... */\n      jump(tag_406)\n    tag_407:\n      pop\n        /* \"contracts/InquireA.sol\":9020:9030  resultSize */\n      dup1\n        /* \"contracts/InquireA.sol\":9007:9031  new Answer[](resultSize) */\n      0xffffffffffffffff\n      dup2\n      gt\n      iszero\n      tag_412\n      jumpi\n      tag_413\n      tag_258\n      jump\t// in\n    tag_413:\n    tag_412:\n      mload(0x40)\n      swap1\n      dup1\n      dup3\n      mstore\n      dup1\n      0x20\n      mul\n      0x20\n      add\n      dup3\n      add\n      0x40\n      mstore\n      dup1\n      iszero\n      tag_414\n      jumpi\n      dup2\n      0x20\n      add\n    tag_415:\n      tag_416\n      tag_245\n      jump\t// in\n    tag_416:\n      dup2\n      mstore\n      0x20\n      add\n      swap1\n      0x01\n      swap1\n      sub\n      swap1\n      dup2\n      tag_415\n      jumpi\n      swap1\n      pop\n    tag_414:\n      pop\n        /* \"contracts/InquireA.sol\":8993:9031  answersList = new Answer[](resultSize) */\n      swap7\n      pop\n        /* \"contracts/InquireA.sol\":9042:9055  uint256 index */\n      0x00\n        /* \"contracts/InquireA.sol\":9133:9142  uint256 i */\n      dup1\n        /* \"contracts/InquireA.sol\":9145:9155  startIndex */\n      dup5\n        /* \"contracts/InquireA.sol\":9133:9155  uint256 i = startIndex */\n      swap1\n      pop\n        /* \"contracts/InquireA.sol\":9128:9359  for (uint256 i = startIndex; i <= endIndex; i++) {... */\n    tag_417:\n        /* \"contracts/InquireA.sol\":9162:9170  endIndex */\n      dup4\n        /* \"contracts/InquireA.sol\":9157:9158  i */\n      dup2\n        /* \"contracts/InquireA.sol\":9157:9170  i <= endIndex */\n      gt\n        /* \"contracts/InquireA.sol\":9128:9359  for (uint256 i = startIndex; i <= endIndex; i++) {... */\n      tag_418\n      jumpi\n        /* \"contracts/InquireA.sol\":9240:9241  0 */\n      0x00\n        /* \"contracts/InquireA.sol\":9196:9242  answers[questionId][i].responder != address(0) */\n      0xffffffffffffffffffffffffffffffffffffffff\n      and\n        /* \"contracts/InquireA.sol\":9196:9203  answers */\n      0x05\n        /* \"contracts/InquireA.sol\":9196:9215  answers[questionId] */\n      0x00\n        /* \"contracts/InquireA.sol\":9204:9214  questionId */\n      dup15\n        /* \"contracts/InquireA.sol\":9196:9215  answers[questionId] */\n      dup2\n      mstore\n      0x20\n      add\n      swap1\n      dup2\n      mstore\n      0x20\n      add\n      0x00\n      keccak256\n        /* \"contracts/InquireA.sol\":9196:9218  answers[questionId][i] */\n      0x00\n        /* \"contracts/InquireA.sol\":9216:9217  i */\n      dup4\n        /* \"contracts/InquireA.sol\":9196:9218  answers[questionId][i] */\n      dup2\n      mstore\n      0x20\n      add\n      swap1\n      dup2\n      mstore\n      0x20\n      add\n      0x00\n      keccak256\n        /* \"contracts/InquireA.sol\":9196:9228  answers[questionId][i].responder */\n      0x01\n      add\n      0x00\n      swap1\n      sload\n      swap1\n      0x0100\n      exp\n      swap1\n      div\n      0xffffffffffffffffffffffffffffffffffffffff\n      and\n        /* \"contracts/InquireA.sol\":9196:9242  answers[questionId][i].responder != address(0) */\n      0xffffffffffffffffffffffffffffffffffffffff\n      and\n      eq\n        /* \"contracts/InquireA.sol\":9192:9348  if (answers[questionId][i].responder != address(0)) {... */\n      tag_420\n      jumpi\n        /* \"contracts/InquireA.sol\":9284:9291  answers */\n      0x05\n        /* \"contracts/InquireA.sol\":9284:9303  answers[questionId] */\n      0x00\n        /* \"contracts/InquireA.sol\":9292:9302  questionId */\n      dup14\n        /* \"contracts/InquireA.sol\":9284:9303  answers[questionId] */\n      dup2\n      mstore\n      0x20\n      add\n      swap1\n      dup2\n      mstore\n      0x20\n      add\n      0x00\n      keccak256\n        /* \"contracts/InquireA.sol\":9284:9306  answers[questionId][i] */\n      0x00\n        /* \"contracts/InquireA.sol\":9304:9305  i */\n      dup3\n        /* \"contracts/InquireA.sol\":9284:9306  answers[questionId][i] */\n      dup2\n      mstore\n      0x20\n      add\n      swap1\n      dup2\n      mstore\n      0x20\n      add\n      0x00\n      keccak256\n        /* \"contracts/InquireA.sol\":9263:9306  answersList[index] = answers[questionId][i] */\n      mload(0x40)\n      dup1\n      0xc0\n      add\n      0x40\n      mstore\n      swap1\n      dup2\n      0x00\n      dup3\n      add\n      sload\n      dup2\n      mstore\n      0x20\n      add\n      0x01\n      dup3\n      add\n      0x00\n      swap1\n      sload\n      swap1\n      0x0100\n      exp\n      swap1\n      div\n      0xffffffffffffffffffffffffffffffffffffffff\n      and\n      0xffffffffffffffffffffffffffffffffffffffff\n      and\n      0xffffffffffffffffffffffffffffffffffffffff\n      and\n      dup2\n      mstore\n      0x20\n      add\n      0x02\n      dup3\n      add\n      dup1\n      sload\n      tag_421\n      swap1\n      tag_162\n      jump\t// in\n    tag_421:\n      dup1\n      0x1f\n      add\n      0x20\n      dup1\n      swap2\n      div\n      mul\n      0x20\n      add\n      mload(0x40)\n      swap1\n      dup2\n      add\n      0x40\n      mstore\n      dup1\n      swap3\n      swap2\n      swap1\n      dup2\n      dup2\n      mstore\n      0x20\n      add\n      dup3\n      dup1\n      sload\n      tag_422\n      swap1\n      tag_162\n      jump\t// in\n    tag_422:\n      dup1\n      iszero\n      tag_423\n      jumpi\n      dup1\n      0x1f\n      lt\n      tag_424\n      jumpi\n      0x0100\n      dup1\n      dup4\n      sload\n      div\n      mul\n      dup4\n      mstore\n      swap2\n      0x20\n      add\n      swap2\n      jump(tag_423)\n    tag_424:\n      dup3\n      add\n      swap2\n      swap1\n      0x00\n      mstore\n      keccak256(0x00, 0x20)\n      swap1\n    tag_425:\n      dup2\n      sload\n      dup2\n      mstore\n      swap1\n      0x01\n      add\n      swap1\n      0x20\n      add\n      dup1\n      dup4\n      gt\n      tag_425\n      jumpi\n      dup3\n      swap1\n      sub\n      0x1f\n      and\n      dup3\n      add\n      swap2\n    tag_423:\n      pop\n      pop\n      pop\n      pop\n      pop\n      dup2\n      mstore\n      0x20\n      add\n      0x03\n      dup3\n      add\n      sload\n      dup2\n      mstore\n      0x20\n      add\n      0x04\n      dup3\n      add\n      sload\n      dup2\n      mstore\n      0x20\n      add\n      0x05\n      dup3\n      add\n      sload\n      dup2\n      mstore\n      pop\n      pop\n        /* \"contracts/InquireA.sol\":9263:9274  answersList */\n      dup10\n        /* \"contracts/InquireA.sol\":9275:9280  index */\n      dup4\n        /* \"contracts/InquireA.sol\":9263:9281  answersList[index] */\n      dup2\n      mload\n      dup2\n      lt\n      tag_426\n      jumpi\n      tag_427\n      tag_268\n      jump\t// in\n    tag_427:\n    tag_426:\n      0x20\n      mul\n      0x20\n      add\n      add\n        /* \"contracts/InquireA.sol\":9263:9306  answersList[index] = answers[questionId][i] */\n      dup2\n      swap1\n      mstore\n      pop\n        /* \"contracts/InquireA.sol\":9325:9332  index++ */\n      dup2\n      dup1\n      tag_428\n      swap1\n      tag_181\n      jump\t// in\n    tag_428:\n      swap3\n      pop\n      pop\n        /* \"contracts/InquireA.sol\":9192:9348  if (answers[questionId][i].responder != address(0)) {... */\n    tag_420:\n        /* \"contracts/InquireA.sol\":9172:9175  i++ */\n      dup1\n      dup1\n      tag_429\n      swap1\n      tag_181\n      jump\t// in\n    tag_429:\n      swap2\n      pop\n      pop\n        /* \"contracts/InquireA.sol\":9128:9359  for (uint256 i = startIndex; i <= endIndex; i++) {... */\n      jump(tag_417)\n    tag_418:\n      pop\n        /* \"contracts/InquireA.sol\":9371:9417  return (answersList, totalAnswers, totalPages) */\n      pop\n      pop\n      pop\n      pop\n      pop\n        /* \"contracts/InquireA.sol\":7037:9425  function getAnswersByQuestionId(... */\n    tag_371:\n      swap4\n      pop\n      swap4\n      pop\n      swap4\n      swap1\n      pop\n      jump\t// out\n        /* \"contracts/InquireA.sol\":230:267  uint256 public constant WEEK = 7 days */\n    tag_132:\n        /* \"contracts/InquireA.sol\":261:267  7 days */\n      0x093a80\n        /* \"contracts/InquireA.sol\":230:267  uint256 public constant WEEK = 7 days */\n      dup2\n      jump\t// out\n        /* \"contracts/InquireA.sol\":4382:5738  function getQuestions(uint256 pageIndex, uint256 pageSize) ... */\n    tag_137:\n        /* \"contracts/InquireA.sol\":4506:4537  Question[] memory questionsList */\n      0x60\n        /* \"contracts/InquireA.sol\":4553:4575  uint256 totalQuestions */\n      0x00\n        /* \"contracts/InquireA.sol\":4591:4609  uint256 totalPages */\n      dup1\n        /* \"contracts/InquireA.sol\":4658:4659  0 */\n      0x00\n        /* \"contracts/InquireA.sol\":4646:4655  pageIndex */\n      dup6\n        /* \"contracts/InquireA.sol\":4646:4659  pageIndex > 0 */\n      gt\n        /* \"contracts/InquireA.sol\":4638:4692  require(pageIndex > 0, \"Page index must start from 1\") */\n      tag_431\n      jumpi\n      mload(0x40)\n      0x08c379a000000000000000000000000000000000000000000000000000000000\n      dup2\n      mstore\n      0x04\n      add\n      tag_432\n      swap1\n      tag_376\n      jump\t// in\n    tag_432:\n      mload(0x40)\n      dup1\n      swap2\n      sub\n      swap1\n      revert\n    tag_431:\n        /* \"contracts/InquireA.sol\":4722:4723  0 */\n      0x00\n        /* \"contracts/InquireA.sol\":4711:4719  pageSize */\n      dup5\n        /* \"contracts/InquireA.sol\":4711:4723  pageSize > 0 */\n      gt\n        /* \"contracts/InquireA.sol\":4703:4760  require(pageSize > 0, \"Page size must be greater than 0\") */\n      tag_433\n      jumpi\n      mload(0x40)\n      0x08c379a000000000000000000000000000000000000000000000000000000000\n      dup2\n      mstore\n      0x04\n      add\n      tag_434\n      swap1\n      tag_379\n      jump\t// in\n    tag_434:\n      mload(0x40)\n      dup1\n      swap2\n      sub\n      swap1\n      revert\n    tag_433:\n        /* \"contracts/InquireA.sol\":4810:4811  1 */\n      0x01\n        /* \"contracts/InquireA.sol\":4790:4807  questionIdCounter */\n      sload(0x02)\n        /* \"contracts/InquireA.sol\":4790:4811  questionIdCounter - 1 */\n      tag_435\n      swap2\n      swap1\n      tag_393\n      jump\t// in\n    tag_435:\n        /* \"contracts/InquireA.sol\":4773:4811  totalQuestions = questionIdCounter - 1 */\n      swap2\n      pop\n        /* \"contracts/InquireA.sol\":4901:4902  0 */\n      0x00\n        /* \"contracts/InquireA.sol\":4883:4897  totalQuestions */\n      dup3\n        /* \"contracts/InquireA.sol\":4883:4902  totalQuestions == 0 */\n      sub\n        /* \"contracts/InquireA.sol\":4879:4963  if (totalQuestions == 0) {... */\n      tag_436\n      jumpi\n        /* \"contracts/InquireA.sol\":4942:4943  0 */\n      0x00\n        /* \"contracts/InquireA.sol\":4927:4944  new Question[](0) */\n      0xffffffffffffffff\n      dup2\n      gt\n      iszero\n      tag_437\n      jumpi\n      tag_438\n      tag_258\n      jump\t// in\n    tag_438:\n    tag_437:\n      mload(0x40)\n      swap1\n      dup1\n      dup3\n      mstore\n      dup1\n      0x20\n      mul\n      0x20\n      add\n      dup3\n      add\n      0x40\n      mstore\n      dup1\n      iszero\n      tag_439\n      jumpi\n      dup2\n      0x20\n      add\n    tag_440:\n      tag_441\n      tag_352\n      jump\t// in\n    tag_441:\n      dup2\n      mstore\n      0x20\n      add\n      swap1\n      0x01\n      swap1\n      sub\n      swap1\n      dup2\n      tag_440\n      jumpi\n      swap1\n      pop\n    tag_439:\n      pop\n        /* \"contracts/InquireA.sol\":4946:4947  0 */\n      0x00\n        /* \"contracts/InquireA.sol\":4949:4950  0 */\n      dup1\n        /* \"contracts/InquireA.sol\":4919:4951  return (new Question[](0), 0, 0) */\n      swap3\n      pop\n      swap3\n      pop\n      swap3\n      pop\n      jump(tag_430)\n        /* \"contracts/InquireA.sol\":4879:4963  if (totalQuestions == 0) {... */\n    tag_436:\n        /* \"contracts/InquireA.sol\":5022:5030  pageSize */\n      dup4\n        /* \"contracts/InquireA.sol\":5017:5018  1 */\n      0x01\n        /* \"contracts/InquireA.sol\":5006:5014  pageSize */\n      dup6\n        /* \"contracts/InquireA.sol\":4989:5003  totalQuestions */\n      dup5\n        /* \"contracts/InquireA.sol\":4989:5014  totalQuestions + pageSize */\n      tag_442\n      swap2\n      swap1\n      tag_220\n      jump\t// in\n    tag_442:\n        /* \"contracts/InquireA.sol\":4989:5018  totalQuestions + pageSize - 1 */\n      tag_443\n      swap2\n      swap1\n      tag_393\n      jump\t// in\n    tag_443:\n        /* \"contracts/InquireA.sol\":4988:5030  (totalQuestions + pageSize - 1) / pageSize */\n      tag_444\n      swap2\n      swap1\n      tag_334\n      jump\t// in\n    tag_444:\n        /* \"contracts/InquireA.sol\":4975:5030  totalPages = (totalQuestions + pageSize - 1) / pageSize */\n      swap1\n      pop\n        /* \"contracts/InquireA.sol\":5121:5131  totalPages */\n      dup1\n        /* \"contracts/InquireA.sol\":5108:5117  pageIndex */\n      dup6\n        /* \"contracts/InquireA.sol\":5108:5131  pageIndex <= totalPages */\n      gt\n      iszero\n        /* \"contracts/InquireA.sol\":5100:5154  require(pageIndex <= totalPages, \"Invalid page index\") */\n      tag_445\n      jumpi\n      mload(0x40)\n      0x08c379a000000000000000000000000000000000000000000000000000000000\n      dup2\n      mstore\n      0x04\n      add\n      tag_446\n      swap1\n      tag_397\n      jump\t// in\n    tag_446:\n      mload(0x40)\n      dup1\n      swap2\n      sub\n      swap1\n      revert\n    tag_445:\n        /* \"contracts/InquireA.sol\":5167:5185  uint256 startIndex */\n      0x00\n        /* \"contracts/InquireA.sol\":5217:5218  1 */\n      0x01\n        /* \"contracts/InquireA.sol\":5206:5214  pageSize */\n      dup6\n        /* \"contracts/InquireA.sol\":5201:5202  1 */\n      0x01\n        /* \"contracts/InquireA.sol\":5189:5198  pageIndex */\n      dup9\n        /* \"contracts/InquireA.sol\":5189:5202  pageIndex - 1 */\n      tag_447\n      swap2\n      swap1\n      tag_393\n      jump\t// in\n    tag_447:\n        /* \"contracts/InquireA.sol\":5188:5214  (pageIndex - 1) * pageSize */\n      tag_448\n      swap2\n      swap1\n      tag_332\n      jump\t// in\n    tag_448:\n        /* \"contracts/InquireA.sol\":5188:5218  (pageIndex - 1) * pageSize + 1 */\n      tag_449\n      swap2\n      swap1\n      tag_220\n      jump\t// in\n    tag_449:\n        /* \"contracts/InquireA.sol\":5167:5218  uint256 startIndex = (pageIndex - 1) * pageSize + 1 */\n      swap1\n      pop\n        /* \"contracts/InquireA.sol\":5229:5245  uint256 endIndex */\n      0x00\n        /* \"contracts/InquireA.sol\":5272:5273  1 */\n      0x01\n        /* \"contracts/InquireA.sol\":5261:5269  pageSize */\n      dup7\n        /* \"contracts/InquireA.sol\":5248:5258  startIndex */\n      dup4\n        /* \"contracts/InquireA.sol\":5248:5269  startIndex + pageSize */\n      tag_450\n      swap2\n      swap1\n      tag_220\n      jump\t// in\n    tag_450:\n        /* \"contracts/InquireA.sol\":5248:5273  startIndex + pageSize - 1 */\n      tag_451\n      swap2\n      swap1\n      tag_393\n      jump\t// in\n    tag_451:\n        /* \"contracts/InquireA.sol\":5229:5273  uint256 endIndex = startIndex + pageSize - 1 */\n      swap1\n      pop\n        /* \"contracts/InquireA.sol\":5321:5322  1 */\n      0x01\n        /* \"contracts/InquireA.sol\":5301:5318  questionIdCounter */\n      sload(0x02)\n        /* \"contracts/InquireA.sol\":5301:5322  questionIdCounter - 1 */\n      tag_452\n      swap2\n      swap1\n      tag_393\n      jump\t// in\n    tag_452:\n        /* \"contracts/InquireA.sol\":5290:5298  endIndex */\n      dup2\n        /* \"contracts/InquireA.sol\":5290:5322  endIndex > questionIdCounter - 1 */\n      gt\n        /* \"contracts/InquireA.sol\":5286:5383  if (endIndex > questionIdCounter - 1) {... */\n      iszero\n      tag_453\n      jumpi\n        /* \"contracts/InquireA.sol\":5370:5371  1 */\n      0x01\n        /* \"contracts/InquireA.sol\":5350:5367  questionIdCounter */\n      sload(0x02)\n        /* \"contracts/InquireA.sol\":5350:5371  questionIdCounter - 1 */\n      tag_454\n      swap2\n      swap1\n      tag_393\n      jump\t// in\n    tag_454:\n        /* \"contracts/InquireA.sol\":5339:5371  endIndex = questionIdCounter - 1 */\n      swap1\n      pop\n        /* \"contracts/InquireA.sol\":5286:5383  if (endIndex > questionIdCounter - 1) {... */\n    tag_453:\n        /* \"contracts/InquireA.sol\":5395:5413  uint256 resultSize */\n      0x00\n        /* \"contracts/InquireA.sol\":5440:5441  1 */\n      0x01\n        /* \"contracts/InquireA.sol\":5427:5437  startIndex */\n      dup4\n        /* \"contracts/InquireA.sol\":5416:5424  endIndex */\n      dup4\n        /* \"contracts/InquireA.sol\":5416:5437  endIndex - startIndex */\n      tag_455\n      swap2\n      swap1\n      tag_393\n      jump\t// in\n    tag_455:\n        /* \"contracts/InquireA.sol\":5416:5441  endIndex - startIndex + 1 */\n      tag_456\n      swap2\n      swap1\n      tag_220\n      jump\t// in\n    tag_456:\n        /* \"contracts/InquireA.sol\":5395:5441  uint256 resultSize = endIndex - startIndex + 1 */\n      swap1\n      pop\n        /* \"contracts/InquireA.sol\":5483:5493  resultSize */\n      dup1\n        /* \"contracts/InquireA.sol\":5468:5494  new Question[](resultSize) */\n      0xffffffffffffffff\n      dup2\n      gt\n      iszero\n      tag_457\n      jumpi\n      tag_458\n      tag_258\n      jump\t// in\n    tag_458:\n    tag_457:\n      mload(0x40)\n      swap1\n      dup1\n      dup3\n      mstore\n      dup1\n      0x20\n      mul\n      0x20\n      add\n      dup3\n      add\n      0x40\n      mstore\n      dup1\n      iszero\n      tag_459\n      jumpi\n      dup2\n      0x20\n      add\n    tag_460:\n      tag_461\n      tag_352\n      jump\t// in\n    tag_461:\n      dup2\n      mstore\n      0x20\n      add\n      swap1\n      0x01\n      swap1\n      sub\n      swap1\n      dup2\n      tag_460\n      jumpi\n      swap1\n      pop\n    tag_459:\n      pop\n        /* \"contracts/InquireA.sol\":5452:5494  questionsList = new Question[](resultSize) */\n      swap6\n      pop\n        /* \"contracts/InquireA.sol\":5507:5520  uint256 index */\n      0x00\n        /* \"contracts/InquireA.sol\":5540:5549  uint256 i */\n      dup1\n        /* \"contracts/InquireA.sol\":5552:5562  startIndex */\n      dup5\n        /* \"contracts/InquireA.sol\":5540:5562  uint256 i = startIndex */\n      swap1\n      pop\n        /* \"contracts/InquireA.sol\":5535:5668  for (uint256 i = startIndex; i <= endIndex; i++) {... */\n    tag_462:\n        /* \"contracts/InquireA.sol\":5569:5577  endIndex */\n      dup4\n        /* \"contracts/InquireA.sol\":5564:5565  i */\n      dup2\n        /* \"contracts/InquireA.sol\":5564:5577  i <= endIndex */\n      gt\n        /* \"contracts/InquireA.sol\":5535:5668  for (uint256 i = startIndex; i <= endIndex; i++) {... */\n      tag_463\n      jumpi\n        /* \"contracts/InquireA.sol\":5622:5631  questions */\n      0x04\n        /* \"contracts/InquireA.sol\":5622:5634  questions[i] */\n      0x00\n        /* \"contracts/InquireA.sol\":5632:5633  i */\n      dup3\n        /* \"contracts/InquireA.sol\":5622:5634  questions[i] */\n      dup2\n      mstore\n      0x20\n      add\n      swap1\n      dup2\n      mstore\n      0x20\n      add\n      0x00\n      keccak256\n        /* \"contracts/InquireA.sol\":5599:5634  questionsList[index] = questions[i] */\n      mload(0x40)\n      dup1\n      0x0140\n      add\n      0x40\n      mstore\n      swap1\n      dup2\n      0x00\n      dup3\n      add\n      sload\n      dup2\n      mstore\n      0x20\n      add\n      0x01\n      dup3\n      add\n      0x00\n      swap1\n      sload\n      swap1\n      0x0100\n      exp\n      swap1\n      div\n      0xffffffffffffffffffffffffffffffffffffffff\n      and\n      0xffffffffffffffffffffffffffffffffffffffff\n      and\n      0xffffffffffffffffffffffffffffffffffffffff\n      and\n      dup2\n      mstore\n      0x20\n      add\n      0x02\n      dup3\n      add\n      dup1\n      sload\n      tag_465\n      swap1\n      tag_162\n      jump\t// in\n    tag_465:\n      dup1\n      0x1f\n      add\n      0x20\n      dup1\n      swap2\n      div\n      mul\n      0x20\n      add\n      mload(0x40)\n      swap1\n      dup2\n      add\n      0x40\n      mstore\n      dup1\n      swap3\n      swap2\n      swap1\n      dup2\n      dup2\n      mstore\n      0x20\n      add\n      dup3\n      dup1\n      sload\n      tag_466\n      swap1\n      tag_162\n      jump\t// in\n    tag_466:\n      dup1\n      iszero\n      tag_467\n      jumpi\n      dup1\n      0x1f\n      lt\n      tag_468\n      jumpi\n      0x0100\n      dup1\n      dup4\n      sload\n      div\n      mul\n      dup4\n      mstore\n      swap2\n      0x20\n      add\n      swap2\n      jump(tag_467)\n    tag_468:\n      dup3\n      add\n      swap2\n      swap1\n      0x00\n      mstore\n      keccak256(0x00, 0x20)\n      swap1\n    tag_469:\n      dup2\n      sload\n      dup2\n      mstore\n      swap1\n      0x01\n      add\n      swap1\n      0x20\n      add\n      dup1\n      dup4\n      gt\n      tag_469\n      jumpi\n      dup3\n      swap1\n      sub\n      0x1f\n      and\n      dup3\n      add\n      swap2\n    tag_467:\n      pop\n      pop\n      pop\n      pop\n      pop\n      dup2\n      mstore\n      0x20\n      add\n      0x03\n      dup3\n      add\n      dup1\n      sload\n      tag_470\n      swap1\n      tag_162\n      jump\t// in\n    tag_470:\n      dup1\n      0x1f\n      add\n      0x20\n      dup1\n      swap2\n      div\n      mul\n      0x20\n      add\n      mload(0x40)\n      swap1\n      dup2\n      add\n      0x40\n      mstore\n      dup1\n      swap3\n      swap2\n      swap1\n      dup2\n      dup2\n      mstore\n      0x20\n      add\n      dup3\n      dup1\n      sload\n      tag_471\n      swap1\n      tag_162\n      jump\t// in\n    tag_471:\n      dup1\n      iszero\n      tag_472\n      jumpi\n      dup1\n      0x1f\n      lt\n      tag_473\n      jumpi\n      0x0100\n      dup1\n      dup4\n      sload\n      div\n      mul\n      dup4\n      mstore\n      swap2\n      0x20\n      add\n      swap2\n      jump(tag_472)\n    tag_473:\n      dup3\n      add\n      swap2\n      swap1\n      0x00\n      mstore\n      keccak256(0x00, 0x20)\n      swap1\n    tag_474:\n      dup2\n      sload\n      dup2\n      mstore\n      swap1\n      0x01\n      add\n      swap1\n      0x20\n      add\n      dup1\n      dup4\n      gt\n      tag_474\n      jumpi\n      dup3\n      swap1\n      sub\n      0x1f\n      and\n      dup3\n      add\n      swap2\n    tag_472:\n      pop\n      pop\n      pop\n      pop\n      pop\n      dup2\n      mstore\n      0x20\n      add\n      0x04\n      dup3\n      add\n      dup1\n      sload\n      tag_475\n      swap1\n      tag_162\n      jump\t// in\n    tag_475:\n      dup1\n      0x1f\n      add\n      0x20\n      dup1\n      swap2\n      div\n      mul\n      0x20\n      add\n      mload(0x40)\n      swap1\n      dup2\n      add\n      0x40\n      mstore\n      dup1\n      swap3\n      swap2\n      swap1\n      dup2\n      dup2\n      mstore\n      0x20\n      add\n      dup3\n      dup1\n      sload\n      tag_476\n      swap1\n      tag_162\n      jump\t// in\n    tag_476:\n      dup1\n      iszero\n      tag_477\n      jumpi\n      dup1\n      0x1f\n      lt\n      tag_478\n      jumpi\n      0x0100\n      dup1\n      dup4\n      sload\n      div\n      mul\n      dup4\n      mstore\n      swap2\n      0x20\n      add\n      swap2\n      jump(tag_477)\n    tag_478:\n      dup3\n      add\n      swap2\n      swap1\n      0x00\n      mstore\n      keccak256(0x00, 0x20)\n      swap1\n    tag_479:\n      dup2\n      sload\n      dup2\n      mstore\n      swap1\n      0x01\n      add\n      swap1\n      0x20\n      add\n      dup1\n      dup4\n      gt\n      tag_479\n      jumpi\n      dup3\n      swap1\n      sub\n      0x1f\n      and\n      dup3\n      add\n      swap2\n    tag_477:\n      pop\n      pop\n      pop\n      pop\n      pop\n      dup2\n      mstore\n      0x20\n      add\n      0x05\n      dup3\n      add\n      sload\n      dup2\n      mstore\n      0x20\n      add\n      0x06\n      dup3\n      add\n      sload\n      dup2\n      mstore\n      0x20\n      add\n      0x07\n      dup3\n      add\n      sload\n      dup2\n      mstore\n      0x20\n      add\n      0x08\n      dup3\n      add\n      0x00\n      swap1\n      sload\n      swap1\n      0x0100\n      exp\n      swap1\n      div\n      0xff\n      and\n      iszero\n      iszero\n      iszero\n      iszero\n      dup2\n      mstore\n      0x20\n      add\n      0x09\n      dup3\n      add\n      sload\n      dup2\n      mstore\n      pop\n      pop\n        /* \"contracts/InquireA.sol\":5599:5612  questionsList */\n      dup9\n        /* \"contracts/InquireA.sol\":5613:5618  index */\n      dup4\n        /* \"contracts/InquireA.sol\":5599:5619  questionsList[index] */\n      dup2\n      mload\n      dup2\n      lt\n      tag_480\n      jumpi\n      tag_481\n      tag_268\n      jump\t// in\n    tag_481:\n    tag_480:\n      0x20\n      mul\n      0x20\n      add\n      add\n        /* \"contracts/InquireA.sol\":5599:5634  questionsList[index] = questions[i] */\n      dup2\n      swap1\n      mstore\n      pop\n        /* \"contracts/InquireA.sol\":5649:5656  index++ */\n      dup2\n      dup1\n      tag_482\n      swap1\n      tag_181\n      jump\t// in\n    tag_482:\n      swap3\n      pop\n      pop\n        /* \"contracts/InquireA.sol\":5579:5582  i++ */\n      dup1\n      dup1\n      tag_483\n      swap1\n      tag_181\n      jump\t// in\n    tag_483:\n      swap2\n      pop\n      pop\n        /* \"contracts/InquireA.sol\":5535:5668  for (uint256 i = startIndex; i <= endIndex; i++) {... */\n      jump(tag_462)\n    tag_463:\n      pop\n        /* \"contracts/InquireA.sol\":5680:5730  return (questionsList, totalQuestions, totalPages) */\n      pop\n      pop\n      pop\n      pop\n        /* \"contracts/InquireA.sol\":4382:5738  function getQuestions(uint256 pageIndex, uint256 pageSize) ... */\n    tag_430:\n      swap3\n      pop\n      swap3\n      pop\n      swap3\n      jump\t// out\n    tag_245:\n      mload(0x40)\n      dup1\n      0xc0\n      add\n      0x40\n      mstore\n      dup1\n      0x00\n      dup2\n      mstore\n      0x20\n      add\n      and(0xffffffffffffffffffffffffffffffffffffffff, 0x00)\n      dup2\n      mstore\n      0x20\n      add\n      0x60\n      dup2\n      mstore\n      0x20\n      add\n      0x00\n      dup2\n      mstore\n      0x20\n      add\n      0x00\n      dup2\n      mstore\n      0x20\n      add\n      0x00\n      dup2\n      mstore\n      pop\n      swap1\n      jump\t// out\n    tag_352:\n      mload(0x40)\n      dup1\n      0x0140\n      add\n      0x40\n      mstore\n      dup1\n      0x00\n      dup2\n      mstore\n      0x20\n      add\n      and(0xffffffffffffffffffffffffffffffffffffffff, 0x00)\n      dup2\n      mstore\n      0x20\n      add\n      0x60\n      dup2\n      mstore\n      0x20\n      add\n      0x60\n      dup2\n      mstore\n      0x20\n      add\n      0x60\n      dup2\n      mstore\n      0x20\n      add\n      0x00\n      dup2\n      mstore\n      0x20\n      add\n      0x00\n      dup2\n      mstore\n      0x20\n      add\n      0x00\n      dup2\n      mstore\n      0x20\n      add\n      iszero(iszero(0x00))\n      dup2\n      mstore\n      0x20\n      add\n      0x00\n      dup2\n      mstore\n      pop\n      swap1\n      jump\t// out\n        /* \"#utility.yul\":7:82   */\n    tag_484:\n        /* \"#utility.yul\":40:46   */\n      0x00\n        /* \"#utility.yul\":73:75   */\n      0x40\n        /* \"#utility.yul\":67:76   */\n      mload\n        /* \"#utility.yul\":57:76   */\n      swap1\n      pop\n        /* \"#utility.yul\":7:82   */\n      swap1\n      jump\t// out\n        /* \"#utility.yul\":88:205   */\n    tag_485:\n        /* \"#utility.yul\":197:198   */\n      0x00\n        /* \"#utility.yul\":194:195   */\n      dup1\n        /* \"#utility.yul\":187:199   */\n      revert\n        /* \"#utility.yul\":211:328   */\n    tag_486:\n        /* \"#utility.yul\":320:321   */\n      0x00\n        /* \"#utility.yul\":317:318   */\n      dup1\n        /* \"#utility.yul\":310:322   */\n      revert\n        /* \"#utility.yul\":334:411   */\n    tag_487:\n        /* \"#utility.yul\":371:378   */\n      0x00\n        /* \"#utility.yul\":400:405   */\n      dup2\n        /* \"#utility.yul\":389:405   */\n      swap1\n      pop\n        /* \"#utility.yul\":334:411   */\n      swap2\n      swap1\n      pop\n      jump\t// out\n        /* \"#utility.yul\":417:539   */\n    tag_488:\n        /* \"#utility.yul\":490:514   */\n      tag_597\n        /* \"#utility.yul\":508:513   */\n      dup2\n        /* \"#utility.yul\":490:514   */\n      tag_487\n      jump\t// in\n    tag_597:\n        /* \"#utility.yul\":483:488   */\n      dup2\n        /* \"#utility.yul\":480:515   */\n      eq\n        /* \"#utility.yul\":470:533   */\n      tag_598\n      jumpi\n        /* \"#utility.yul\":529:530   */\n      0x00\n        /* \"#utility.yul\":526:527   */\n      dup1\n        /* \"#utility.yul\":519:531   */\n      revert\n        /* \"#utility.yul\":470:533   */\n    tag_598:\n        /* \"#utility.yul\":417:539   */\n      pop\n      jump\t// out\n        /* \"#utility.yul\":545:684   */\n    tag_489:\n        /* \"#utility.yul\":591:596   */\n      0x00\n        /* \"#utility.yul\":629:635   */\n      dup2\n        /* \"#utility.yul\":616:636   */\n      calldataload\n        /* \"#utility.yul\":607:636   */\n      swap1\n      pop\n        /* \"#utility.yul\":645:678   */\n      tag_600\n        /* \"#utility.yul\":672:677   */\n      dup2\n        /* \"#utility.yul\":645:678   */\n      tag_488\n      jump\t// in\n    tag_600:\n        /* \"#utility.yul\":545:684   */\n      swap3\n      swap2\n      pop\n      pop\n      jump\t// out\n        /* \"#utility.yul\":690:1164   */\n    tag_31:\n        /* \"#utility.yul\":758:764   */\n      0x00\n        /* \"#utility.yul\":766:772   */\n      dup1\n        /* \"#utility.yul\":815:817   */\n      0x40\n        /* \"#utility.yul\":803:812   */\n      dup4\n        /* \"#utility.yul\":794:801   */\n      dup6\n        /* \"#utility.yul\":790:813   */\n      sub\n        /* \"#utility.yul\":786:818   */\n      slt\n        /* \"#utility.yul\":783:902   */\n      iszero\n      tag_602\n      jumpi\n        /* \"#utility.yul\":821:900   */\n      tag_603\n      tag_485\n      jump\t// in\n    tag_603:\n        /* \"#utility.yul\":783:902   */\n    tag_602:\n        /* \"#utility.yul\":941:942   */\n      0x00\n        /* \"#utility.yul\":966:1019   */\n      tag_604\n        /* \"#utility.yul\":1011:1018   */\n      dup6\n        /* \"#utility.yul\":1002:1008   */\n      dup3\n        /* \"#utility.yul\":991:1000   */\n      dup7\n        /* \"#utility.yul\":987:1009   */\n      add\n        /* \"#utility.yul\":966:1019   */\n      tag_489\n      jump\t// in\n    tag_604:\n        /* \"#utility.yul\":956:1019   */\n      swap3\n      pop\n        /* \"#utility.yul\":912:1029   */\n      pop\n        /* \"#utility.yul\":1068:1070   */\n      0x20\n        /* \"#utility.yul\":1094:1147   */\n      tag_605\n        /* \"#utility.yul\":1139:1146   */\n      dup6\n        /* \"#utility.yul\":1130:1136   */\n      dup3\n        /* \"#utility.yul\":1119:1128   */\n      dup7\n        /* \"#utility.yul\":1115:1137   */\n      add\n        /* \"#utility.yul\":1094:1147   */\n      tag_489\n      jump\t// in\n    tag_605:\n        /* \"#utility.yul\":1084:1147   */\n      swap2\n      pop\n        /* \"#utility.yul\":1039:1157   */\n      pop\n        /* \"#utility.yul\":690:1164   */\n      swap3\n      pop\n      swap3\n      swap1\n      pop\n      jump\t// out\n        /* \"#utility.yul\":1170:1287   */\n    tag_490:\n        /* \"#utility.yul\":1279:1280   */\n      0x00\n        /* \"#utility.yul\":1276:1277   */\n      dup1\n        /* \"#utility.yul\":1269:1281   */\n      revert\n        /* \"#utility.yul\":1293:1410   */\n    tag_491:\n        /* \"#utility.yul\":1402:1403   */\n      0x00\n        /* \"#utility.yul\":1399:1400   */\n      dup1\n        /* \"#utility.yul\":1392:1404   */\n      revert\n        /* \"#utility.yul\":1416:1518   */\n    tag_492:\n        /* \"#utility.yul\":1457:1463   */\n      0x00\n        /* \"#utility.yul\":1508:1510   */\n      0x1f\n        /* \"#utility.yul\":1504:1511   */\n      not\n        /* \"#utility.yul\":1499:1501   */\n      0x1f\n        /* \"#utility.yul\":1492:1497   */\n      dup4\n        /* \"#utility.yul\":1488:1502   */\n      add\n        /* \"#utility.yul\":1484:1512   */\n      and\n        /* \"#utility.yul\":1474:1512   */\n      swap1\n      pop\n        /* \"#utility.yul\":1416:1518   */\n      swap2\n      swap1\n      pop\n      jump\t// out\n        /* \"#utility.yul\":1524:1704   */\n    tag_258:\n        /* \"#utility.yul\":1572:1649   */\n      0x4e487b7100000000000000000000000000000000000000000000000000000000\n        /* \"#utility.yul\":1569:1570   */\n      0x00\n        /* \"#utility.yul\":1562:1650   */\n      mstore\n        /* \"#utility.yul\":1669:1673   */\n      0x41\n        /* \"#utility.yul\":1666:1667   */\n      0x04\n        /* \"#utility.yul\":1659:1674   */\n      mstore\n        /* \"#utility.yul\":1693:1697   */\n      0x24\n        /* \"#utility.yul\":1690:1691   */\n      0x00\n        /* \"#utility.yul\":1683:1698   */\n      revert\n        /* \"#utility.yul\":1710:1991   */\n    tag_493:\n        /* \"#utility.yul\":1793:1820   */\n      tag_611\n        /* \"#utility.yul\":1815:1819   */\n      dup3\n        /* \"#utility.yul\":1793:1820   */\n      tag_492\n      jump\t// in\n    tag_611:\n        /* \"#utility.yul\":1785:1791   */\n      dup2\n        /* \"#utility.yul\":1781:1821   */\n      add\n        /* \"#utility.yul\":1923:1929   */\n      dup2\n        /* \"#utility.yul\":1911:1921   */\n      dup2\n        /* \"#utility.yul\":1908:1930   */\n      lt\n        /* \"#utility.yul\":1887:1905   */\n      0xffffffffffffffff\n        /* \"#utility.yul\":1875:1885   */\n      dup3\n        /* \"#utility.yul\":1872:1906   */\n      gt\n        /* \"#utility.yul\":1869:1931   */\n      or\n        /* \"#utility.yul\":1866:1954   */\n      iszero\n      tag_612\n      jumpi\n        /* \"#utility.yul\":1934:1952   */\n      tag_613\n      tag_258\n      jump\t// in\n    tag_613:\n        /* \"#utility.yul\":1866:1954   */\n    tag_612:\n        /* \"#utility.yul\":1974:1984   */\n      dup1\n        /* \"#utility.yul\":1970:1972   */\n      0x40\n        /* \"#utility.yul\":1963:1985   */\n      mstore\n        /* \"#utility.yul\":1753:1991   */\n      pop\n        /* \"#utility.yul\":1710:1991   */\n      pop\n      pop\n      jump\t// out\n        /* \"#utility.yul\":1997:2126   */\n    tag_494:\n        /* \"#utility.yul\":2031:2037   */\n      0x00\n        /* \"#utility.yul\":2058:2078   */\n      tag_615\n      tag_484\n      jump\t// in\n    tag_615:\n        /* \"#utility.yul\":2048:2078   */\n      swap1\n      pop\n        /* \"#utility.yul\":2087:2120   */\n      tag_616\n        /* \"#utility.yul\":2115:2119   */\n      dup3\n        /* \"#utility.yul\":2107:2113   */\n      dup3\n        /* \"#utility.yul\":2087:2120   */\n      tag_493\n      jump\t// in\n    tag_616:\n        /* \"#utility.yul\":1997:2126   */\n      swap2\n      swap1\n      pop\n      jump\t// out\n        /* \"#utility.yul\":2132:2440   */\n    tag_495:\n        /* \"#utility.yul\":2194:2198   */\n      0x00\n        /* \"#utility.yul\":2284:2302   */\n      0xffffffffffffffff\n        /* \"#utility.yul\":2276:2282   */\n      dup3\n        /* \"#utility.yul\":2273:2303   */\n      gt\n        /* \"#utility.yul\":2270:2326   */\n      iszero\n      tag_618\n      jumpi\n        /* \"#utility.yul\":2306:2324   */\n      tag_619\n      tag_258\n      jump\t// in\n    tag_619:\n        /* \"#utility.yul\":2270:2326   */\n    tag_618:\n        /* \"#utility.yul\":2344:2373   */\n      tag_620\n        /* \"#utility.yul\":2366:2372   */\n      dup3\n        /* \"#utility.yul\":2344:2373   */\n      tag_492\n      jump\t// in\n    tag_620:\n        /* \"#utility.yul\":2336:2373   */\n      swap1\n      pop\n        /* \"#utility.yul\":2428:2432   */\n      0x20\n        /* \"#utility.yul\":2422:2426   */\n      dup2\n        /* \"#utility.yul\":2418:2433   */\n      add\n        /* \"#utility.yul\":2410:2433   */\n      swap1\n      pop\n        /* \"#utility.yul\":2132:2440   */\n      swap2\n      swap1\n      pop\n      jump\t// out\n        /* \"#utility.yul\":2446:2594   */\n    tag_496:\n        /* \"#utility.yul\":2544:2550   */\n      dup3\n        /* \"#utility.yul\":2539:2542   */\n      dup2\n        /* \"#utility.yul\":2534:2537   */\n      dup4\n        /* \"#utility.yul\":2521:2551   */\n      calldatacopy\n        /* \"#utility.yul\":2585:2586   */\n      0x00\n        /* \"#utility.yul\":2576:2582   */\n      dup4\n        /* \"#utility.yul\":2571:2574   */\n      dup4\n        /* \"#utility.yul\":2567:2583   */\n      add\n        /* \"#utility.yul\":2560:2587   */\n      mstore\n        /* \"#utility.yul\":2446:2594   */\n      pop\n      pop\n      pop\n      jump\t// out\n        /* \"#utility.yul\":2600:3025   */\n    tag_497:\n        /* \"#utility.yul\":2678:2683   */\n      0x00\n        /* \"#utility.yul\":2703:2769   */\n      tag_623\n        /* \"#utility.yul\":2719:2768   */\n      tag_624\n        /* \"#utility.yul\":2761:2767   */\n      dup5\n        /* \"#utility.yul\":2719:2768   */\n      tag_495\n      jump\t// in\n    tag_624:\n        /* \"#utility.yul\":2703:2769   */\n      tag_494\n      jump\t// in\n    tag_623:\n        /* \"#utility.yul\":2694:2769   */\n      swap1\n      pop\n        /* \"#utility.yul\":2792:2798   */\n      dup3\n        /* \"#utility.yul\":2785:2790   */\n      dup2\n        /* \"#utility.yul\":2778:2799   */\n      mstore\n        /* \"#utility.yul\":2830:2834   */\n      0x20\n        /* \"#utility.yul\":2823:2828   */\n      dup2\n        /* \"#utility.yul\":2819:2835   */\n      add\n        /* \"#utility.yul\":2868:2871   */\n      dup5\n        /* \"#utility.yul\":2859:2865   */\n      dup5\n        /* \"#utility.yul\":2854:2857   */\n      dup5\n        /* \"#utility.yul\":2850:2866   */\n      add\n        /* \"#utility.yul\":2847:2872   */\n      gt\n        /* \"#utility.yul\":2844:2956   */\n      iszero\n      tag_625\n      jumpi\n        /* \"#utility.yul\":2875:2954   */\n      tag_626\n      tag_491\n      jump\t// in\n    tag_626:\n        /* \"#utility.yul\":2844:2956   */\n    tag_625:\n        /* \"#utility.yul\":2965:3019   */\n      tag_627\n        /* \"#utility.yul\":3012:3018   */\n      dup5\n        /* \"#utility.yul\":3007:3010   */\n      dup3\n        /* \"#utility.yul\":3002:3005   */\n      dup6\n        /* \"#utility.yul\":2965:3019   */\n      tag_496\n      jump\t// in\n    tag_627:\n        /* \"#utility.yul\":2684:3025   */\n      pop\n        /* \"#utility.yul\":2600:3025   */\n      swap4\n      swap3\n      pop\n      pop\n      pop\n      jump\t// out\n        /* \"#utility.yul\":3045:3385   */\n    tag_498:\n        /* \"#utility.yul\":3101:3106   */\n      0x00\n        /* \"#utility.yul\":3150:3153   */\n      dup3\n        /* \"#utility.yul\":3143:3147   */\n      0x1f\n        /* \"#utility.yul\":3135:3141   */\n      dup4\n        /* \"#utility.yul\":3131:3148   */\n      add\n        /* \"#utility.yul\":3127:3154   */\n      slt\n        /* \"#utility.yul\":3117:3239   */\n      tag_629\n      jumpi\n        /* \"#utility.yul\":3158:3237   */\n      tag_630\n      tag_490\n      jump\t// in\n    tag_630:\n        /* \"#utility.yul\":3117:3239   */\n    tag_629:\n        /* \"#utility.yul\":3275:3281   */\n      dup2\n        /* \"#utility.yul\":3262:3282   */\n      calldataload\n        /* \"#utility.yul\":3300:3379   */\n      tag_631\n        /* \"#utility.yul\":3375:3378   */\n      dup5\n        /* \"#utility.yul\":3367:3373   */\n      dup3\n        /* \"#utility.yul\":3360:3364   */\n      0x20\n        /* \"#utility.yul\":3352:3358   */\n      dup7\n        /* \"#utility.yul\":3348:3365   */\n      add\n        /* \"#utility.yul\":3300:3379   */\n      tag_497\n      jump\t// in\n    tag_631:\n        /* \"#utility.yul\":3291:3379   */\n      swap2\n      pop\n        /* \"#utility.yul\":3107:3385   */\n      pop\n        /* \"#utility.yul\":3045:3385   */\n      swap3\n      swap2\n      pop\n      pop\n      jump\t// out\n        /* \"#utility.yul\":3391:4045   */\n    tag_36:\n        /* \"#utility.yul\":3469:3475   */\n      0x00\n        /* \"#utility.yul\":3477:3483   */\n      dup1\n        /* \"#utility.yul\":3526:3528   */\n      0x40\n        /* \"#utility.yul\":3514:3523   */\n      dup4\n        /* \"#utility.yul\":3505:3512   */\n      dup6\n        /* \"#utility.yul\":3501:3524   */\n      sub\n        /* \"#utility.yul\":3497:3529   */\n      slt\n        /* \"#utility.yul\":3494:3613   */\n      iszero\n      tag_633\n      jumpi\n        /* \"#utility.yul\":3532:3611   */\n      tag_634\n      tag_485\n      jump\t// in\n    tag_634:\n        /* \"#utility.yul\":3494:3613   */\n    tag_633:\n        /* \"#utility.yul\":3652:3653   */\n      0x00\n        /* \"#utility.yul\":3677:3730   */\n      tag_635\n        /* \"#utility.yul\":3722:3729   */\n      dup6\n        /* \"#utility.yul\":3713:3719   */\n      dup3\n        /* \"#utility.yul\":3702:3711   */\n      dup7\n        /* \"#utility.yul\":3698:3720   */\n      add\n        /* \"#utility.yul\":3677:3730   */\n      tag_489\n      jump\t// in\n    tag_635:\n        /* \"#utility.yul\":3667:3730   */\n      swap3\n      pop\n        /* \"#utility.yul\":3623:3740   */\n      pop\n        /* \"#utility.yul\":3807:3809   */\n      0x20\n        /* \"#utility.yul\":3796:3805   */\n      dup4\n        /* \"#utility.yul\":3792:3810   */\n      add\n        /* \"#utility.yul\":3779:3811   */\n      calldataload\n        /* \"#utility.yul\":3838:3856   */\n      0xffffffffffffffff\n        /* \"#utility.yul\":3830:3836   */\n      dup2\n        /* \"#utility.yul\":3827:3857   */\n      gt\n        /* \"#utility.yul\":3824:3941   */\n      iszero\n      tag_636\n      jumpi\n        /* \"#utility.yul\":3860:3939   */\n      tag_637\n      tag_486\n      jump\t// in\n    tag_637:\n        /* \"#utility.yul\":3824:3941   */\n    tag_636:\n        /* \"#utility.yul\":3965:4028   */\n      tag_638\n        /* \"#utility.yul\":4020:4027   */\n      dup6\n        /* \"#utility.yul\":4011:4017   */\n      dup3\n        /* \"#utility.yul\":4000:4009   */\n      dup7\n        /* \"#utility.yul\":3996:4018   */\n      add\n        /* \"#utility.yul\":3965:4028   */\n      tag_498\n      jump\t// in\n    tag_638:\n        /* \"#utility.yul\":3955:4028   */\n      swap2\n      pop\n        /* \"#utility.yul\":3750:4038   */\n      pop\n        /* \"#utility.yul\":3391:4045   */\n      swap3\n      pop\n      swap3\n      swap1\n      pop\n      jump\t// out\n        /* \"#utility.yul\":4051:4169   */\n    tag_499:\n        /* \"#utility.yul\":4138:4162   */\n      tag_640\n        /* \"#utility.yul\":4156:4161   */\n      dup2\n        /* \"#utility.yul\":4138:4162   */\n      tag_487\n      jump\t// in\n    tag_640:\n        /* \"#utility.yul\":4133:4136   */\n      dup3\n        /* \"#utility.yul\":4126:4163   */\n      mstore\n        /* \"#utility.yul\":4051:4169   */\n      pop\n      pop\n      jump\t// out\n        /* \"#utility.yul\":4175:4301   */\n    tag_500:\n        /* \"#utility.yul\":4212:4219   */\n      0x00\n        /* \"#utility.yul\":4252:4294   */\n      0xffffffffffffffffffffffffffffffffffffffff\n        /* \"#utility.yul\":4245:4250   */\n      dup3\n        /* \"#utility.yul\":4241:4295   */\n      and\n        /* \"#utility.yul\":4230:4295   */\n      swap1\n      pop\n        /* \"#utility.yul\":4175:4301   */\n      swap2\n      swap1\n      pop\n      jump\t// out\n        /* \"#utility.yul\":4307:4403   */\n    tag_501:\n        /* \"#utility.yul\":4344:4351   */\n      0x00\n        /* \"#utility.yul\":4373:4397   */\n      tag_643\n        /* \"#utility.yul\":4391:4396   */\n      dup3\n        /* \"#utility.yul\":4373:4397   */\n      tag_500\n      jump\t// in\n    tag_643:\n        /* \"#utility.yul\":4362:4397   */\n      swap1\n      pop\n        /* \"#utility.yul\":4307:4403   */\n      swap2\n      swap1\n      pop\n      jump\t// out\n        /* \"#utility.yul\":4409:4527   */\n    tag_502:\n        /* \"#utility.yul\":4496:4520   */\n      tag_645\n        /* \"#utility.yul\":4514:4519   */\n      dup2\n        /* \"#utility.yul\":4496:4520   */\n      tag_501\n      jump\t// in\n    tag_645:\n        /* \"#utility.yul\":4491:4494   */\n      dup3\n        /* \"#utility.yul\":4484:4521   */\n      mstore\n        /* \"#utility.yul\":4409:4527   */\n      pop\n      pop\n      jump\t// out\n        /* \"#utility.yul\":4533:4632   */\n    tag_503:\n        /* \"#utility.yul\":4585:4591   */\n      0x00\n        /* \"#utility.yul\":4619:4624   */\n      dup2\n        /* \"#utility.yul\":4613:4625   */\n      mload\n        /* \"#utility.yul\":4603:4625   */\n      swap1\n      pop\n        /* \"#utility.yul\":4533:4632   */\n      swap2\n      swap1\n      pop\n      jump\t// out\n        /* \"#utility.yul\":4638:4807   */\n    tag_504:\n        /* \"#utility.yul\":4722:4733   */\n      0x00\n        /* \"#utility.yul\":4756:4762   */\n      dup3\n        /* \"#utility.yul\":4751:4754   */\n      dup3\n        /* \"#utility.yul\":4744:4763   */\n      mstore\n        /* \"#utility.yul\":4796:4800   */\n      0x20\n        /* \"#utility.yul\":4791:4794   */\n      dup3\n        /* \"#utility.yul\":4787:4801   */\n      add\n        /* \"#utility.yul\":4772:4801   */\n      swap1\n      pop\n        /* \"#utility.yul\":4638:4807   */\n      swap3\n      swap2\n      pop\n      pop\n      jump\t// out\n        /* \"#utility.yul\":4813:4952   */\n    tag_505:\n        /* \"#utility.yul\":4902:4908   */\n      dup3\n        /* \"#utility.yul\":4897:4900   */\n      dup2\n        /* \"#utility.yul\":4892:4895   */\n      dup4\n        /* \"#utility.yul\":4886:4909   */\n      mcopy\n        /* \"#utility.yul\":4943:4944   */\n      0x00\n        /* \"#utility.yul\":4934:4940   */\n      dup4\n        /* \"#utility.yul\":4929:4932   */\n      dup4\n        /* \"#utility.yul\":4925:4941   */\n      add\n        /* \"#utility.yul\":4918:4945   */\n      mstore\n        /* \"#utility.yul\":4813:4952   */\n      pop\n      pop\n      pop\n      jump\t// out\n        /* \"#utility.yul\":4958:5335   */\n    tag_506:\n        /* \"#utility.yul\":5046:5049   */\n      0x00\n        /* \"#utility.yul\":5074:5113   */\n      tag_650\n        /* \"#utility.yul\":5107:5112   */\n      dup3\n        /* \"#utility.yul\":5074:5113   */\n      tag_503\n      jump\t// in\n    tag_650:\n        /* \"#utility.yul\":5129:5200   */\n      tag_651\n        /* \"#utility.yul\":5193:5199   */\n      dup2\n        /* \"#utility.yul\":5188:5191   */\n      dup6\n        /* \"#utility.yul\":5129:5200   */\n      tag_504\n      jump\t// in\n    tag_651:\n        /* \"#utility.yul\":5122:5200   */\n      swap4\n      pop\n        /* \"#utility.yul\":5209:5274   */\n      tag_652\n        /* \"#utility.yul\":5267:5273   */\n      dup2\n        /* \"#utility.yul\":5262:5265   */\n      dup6\n        /* \"#utility.yul\":5255:5259   */\n      0x20\n        /* \"#utility.yul\":5248:5253   */\n      dup7\n        /* \"#utility.yul\":5244:5260   */\n      add\n        /* \"#utility.yul\":5209:5274   */\n      tag_505\n      jump\t// in\n    tag_652:\n        /* \"#utility.yul\":5299:5328   */\n      tag_653\n        /* \"#utility.yul\":5321:5327   */\n      dup2\n        /* \"#utility.yul\":5299:5328   */\n      tag_492\n      jump\t// in\n    tag_653:\n        /* \"#utility.yul\":5294:5297   */\n      dup5\n        /* \"#utility.yul\":5290:5329   */\n      add\n        /* \"#utility.yul\":5283:5329   */\n      swap2\n      pop\n        /* \"#utility.yul\":5050:5335   */\n      pop\n        /* \"#utility.yul\":4958:5335   */\n      swap3\n      swap2\n      pop\n      pop\n      jump\t// out\n        /* \"#utility.yul\":5341:6207   */\n    tag_43:\n        /* \"#utility.yul\":5594:5598   */\n      0x00\n        /* \"#utility.yul\":5632:5635   */\n      0xc0\n        /* \"#utility.yul\":5621:5630   */\n      dup3\n        /* \"#utility.yul\":5617:5636   */\n      add\n        /* \"#utility.yul\":5609:5636   */\n      swap1\n      pop\n        /* \"#utility.yul\":5646:5717   */\n      tag_655\n        /* \"#utility.yul\":5714:5715   */\n      0x00\n        /* \"#utility.yul\":5703:5712   */\n      dup4\n        /* \"#utility.yul\":5699:5716   */\n      add\n        /* \"#utility.yul\":5690:5696   */\n      dup10\n        /* \"#utility.yul\":5646:5717   */\n      tag_499\n      jump\t// in\n    tag_655:\n        /* \"#utility.yul\":5727:5799   */\n      tag_656\n        /* \"#utility.yul\":5795:5797   */\n      0x20\n        /* \"#utility.yul\":5784:5793   */\n      dup4\n        /* \"#utility.yul\":5780:5798   */\n      add\n        /* \"#utility.yul\":5771:5777   */\n      dup9\n        /* \"#utility.yul\":5727:5799   */\n      tag_502\n      jump\t// in\n    tag_656:\n        /* \"#utility.yul\":5846:5855   */\n      dup2\n        /* \"#utility.yul\":5840:5844   */\n      dup2\n        /* \"#utility.yul\":5836:5856   */\n      sub\n        /* \"#utility.yul\":5831:5833   */\n      0x40\n        /* \"#utility.yul\":5820:5829   */\n      dup4\n        /* \"#utility.yul\":5816:5834   */\n      add\n        /* \"#utility.yul\":5809:5857   */\n      mstore\n        /* \"#utility.yul\":5874:5952   */\n      tag_657\n        /* \"#utility.yul\":5947:5951   */\n      dup2\n        /* \"#utility.yul\":5938:5944   */\n      dup8\n        /* \"#utility.yul\":5874:5952   */\n      tag_506\n      jump\t// in\n    tag_657:\n        /* \"#utility.yul\":5866:5952   */\n      swap1\n      pop\n        /* \"#utility.yul\":5962:6034   */\n      tag_658\n        /* \"#utility.yul\":6030:6032   */\n      0x60\n        /* \"#utility.yul\":6019:6028   */\n      dup4\n        /* \"#utility.yul\":6015:6033   */\n      add\n        /* \"#utility.yul\":6006:6012   */\n      dup7\n        /* \"#utility.yul\":5962:6034   */\n      tag_499\n      jump\t// in\n    tag_658:\n        /* \"#utility.yul\":6044:6117   */\n      tag_659\n        /* \"#utility.yul\":6112:6115   */\n      0x80\n        /* \"#utility.yul\":6101:6110   */\n      dup4\n        /* \"#utility.yul\":6097:6116   */\n      add\n        /* \"#utility.yul\":6088:6094   */\n      dup6\n        /* \"#utility.yul\":6044:6117   */\n      tag_499\n      jump\t// in\n    tag_659:\n        /* \"#utility.yul\":6127:6200   */\n      tag_660\n        /* \"#utility.yul\":6195:6198   */\n      0xa0\n        /* \"#utility.yul\":6184:6193   */\n      dup4\n        /* \"#utility.yul\":6180:6199   */\n      add\n        /* \"#utility.yul\":6171:6177   */\n      dup5\n        /* \"#utility.yul\":6127:6200   */\n      tag_499\n      jump\t// in\n    tag_660:\n        /* \"#utility.yul\":5341:6207   */\n      swap8\n      swap7\n      pop\n      pop\n      pop\n      pop\n      pop\n      pop\n      pop\n      jump\t// out\n        /* \"#utility.yul\":6213:6335   */\n    tag_507:\n        /* \"#utility.yul\":6286:6310   */\n      tag_662\n        /* \"#utility.yul\":6304:6309   */\n      dup2\n        /* \"#utility.yul\":6286:6310   */\n      tag_501\n      jump\t// in\n    tag_662:\n        /* \"#utility.yul\":6279:6284   */\n      dup2\n        /* \"#utility.yul\":6276:6311   */\n      eq\n        /* \"#utility.yul\":6266:6329   */\n      tag_663\n      jumpi\n        /* \"#utility.yul\":6325:6326   */\n      0x00\n        /* \"#utility.yul\":6322:6323   */\n      dup1\n        /* \"#utility.yul\":6315:6327   */\n      revert\n        /* \"#utility.yul\":6266:6329   */\n    tag_663:\n        /* \"#utility.yul\":6213:6335   */\n      pop\n      jump\t// out\n        /* \"#utility.yul\":6341:6480   */\n    tag_508:\n        /* \"#utility.yul\":6387:6392   */\n      0x00\n        /* \"#utility.yul\":6425:6431   */\n      dup2\n        /* \"#utility.yul\":6412:6432   */\n      calldataload\n        /* \"#utility.yul\":6403:6432   */\n      swap1\n      pop\n        /* \"#utility.yul\":6441:6474   */\n      tag_665\n        /* \"#utility.yul\":6468:6473   */\n      dup2\n        /* \"#utility.yul\":6441:6474   */\n      tag_507\n      jump\t// in\n    tag_665:\n        /* \"#utility.yul\":6341:6480   */\n      swap3\n      swap2\n      pop\n      pop\n      jump\t// out\n        /* \"#utility.yul\":6486:6815   */\n    tag_50:\n        /* \"#utility.yul\":6545:6551   */\n      0x00\n        /* \"#utility.yul\":6594:6596   */\n      0x20\n        /* \"#utility.yul\":6582:6591   */\n      dup3\n        /* \"#utility.yul\":6573:6580   */\n      dup5\n        /* \"#utility.yul\":6569:6592   */\n      sub\n        /* \"#utility.yul\":6565:6597   */\n      slt\n        /* \"#utility.yul\":6562:6681   */\n      iszero\n      tag_667\n      jumpi\n        /* \"#utility.yul\":6600:6679   */\n      tag_668\n      tag_485\n      jump\t// in\n    tag_668:\n        /* \"#utility.yul\":6562:6681   */\n    tag_667:\n        /* \"#utility.yul\":6720:6721   */\n      0x00\n        /* \"#utility.yul\":6745:6798   */\n      tag_669\n        /* \"#utility.yul\":6790:6797   */\n      dup5\n        /* \"#utility.yul\":6781:6787   */\n      dup3\n        /* \"#utility.yul\":6770:6779   */\n      dup6\n        /* \"#utility.yul\":6766:6788   */\n      add\n        /* \"#utility.yul\":6745:6798   */\n      tag_508\n      jump\t// in\n    tag_669:\n        /* \"#utility.yul\":6735:6798   */\n      swap2\n      pop\n        /* \"#utility.yul\":6691:6808   */\n      pop\n        /* \"#utility.yul\":6486:6815   */\n      swap3\n      swap2\n      pop\n      pop\n      jump\t// out\n        /* \"#utility.yul\":6821:7043   */\n    tag_53:\n        /* \"#utility.yul\":6914:6918   */\n      0x00\n        /* \"#utility.yul\":6952:6954   */\n      0x20\n        /* \"#utility.yul\":6941:6950   */\n      dup3\n        /* \"#utility.yul\":6937:6955   */\n      add\n        /* \"#utility.yul\":6929:6955   */\n      swap1\n      pop\n        /* \"#utility.yul\":6965:7036   */\n      tag_671\n        /* \"#utility.yul\":7033:7034   */\n      0x00\n        /* \"#utility.yul\":7022:7031   */\n      dup4\n        /* \"#utility.yul\":7018:7035   */\n      add\n        /* \"#utility.yul\":7009:7015   */\n      dup5\n        /* \"#utility.yul\":6965:7036   */\n      tag_499\n      jump\t// in\n    tag_671:\n        /* \"#utility.yul\":6821:7043   */\n      swap3\n      swap2\n      pop\n      pop\n      jump\t// out\n        /* \"#utility.yul\":7049:7378   */\n    tag_57:\n        /* \"#utility.yul\":7108:7114   */\n      0x00\n        /* \"#utility.yul\":7157:7159   */\n      0x20\n        /* \"#utility.yul\":7145:7154   */\n      dup3\n        /* \"#utility.yul\":7136:7143   */\n      dup5\n        /* \"#utility.yul\":7132:7155   */\n      sub\n        /* \"#utility.yul\":7128:7160   */\n      slt\n        /* \"#utility.yul\":7125:7244   */\n      iszero\n      tag_673\n      jumpi\n        /* \"#utility.yul\":7163:7242   */\n      tag_674\n      tag_485\n      jump\t// in\n    tag_674:\n        /* \"#utility.yul\":7125:7244   */\n    tag_673:\n        /* \"#utility.yul\":7283:7284   */\n      0x00\n        /* \"#utility.yul\":7308:7361   */\n      tag_675\n        /* \"#utility.yul\":7353:7360   */\n      dup5\n        /* \"#utility.yul\":7344:7350   */\n      dup3\n        /* \"#utility.yul\":7333:7342   */\n      dup6\n        /* \"#utility.yul\":7329:7351   */\n      add\n        /* \"#utility.yul\":7308:7361   */\n      tag_489\n      jump\t// in\n    tag_675:\n        /* \"#utility.yul\":7298:7361   */\n      swap2\n      pop\n        /* \"#utility.yul\":7254:7371   */\n      pop\n        /* \"#utility.yul\":7049:7378   */\n      swap3\n      swap2\n      pop\n      pop\n      jump\t// out\n        /* \"#utility.yul\":7384:7474   */\n    tag_509:\n        /* \"#utility.yul\":7418:7425   */\n      0x00\n        /* \"#utility.yul\":7461:7466   */\n      dup2\n        /* \"#utility.yul\":7454:7467   */\n      iszero\n        /* \"#utility.yul\":7447:7468   */\n      iszero\n        /* \"#utility.yul\":7436:7468   */\n      swap1\n      pop\n        /* \"#utility.yul\":7384:7474   */\n      swap2\n      swap1\n      pop\n      jump\t// out\n        /* \"#utility.yul\":7480:7589   */\n    tag_510:\n        /* \"#utility.yul\":7561:7582   */\n      tag_678\n        /* \"#utility.yul\":7576:7581   */\n      dup2\n        /* \"#utility.yul\":7561:7582   */\n      tag_509\n      jump\t// in\n    tag_678:\n        /* \"#utility.yul\":7556:7559   */\n      dup3\n        /* \"#utility.yul\":7549:7583   */\n      mstore\n        /* \"#utility.yul\":7480:7589   */\n      pop\n      pop\n      jump\t// out\n        /* \"#utility.yul\":7595:9075   */\n    tag_60:\n        /* \"#utility.yul\":7994:7998   */\n      0x00\n        /* \"#utility.yul\":8032:8035   */\n      0x0140\n        /* \"#utility.yul\":8021:8030   */\n      dup3\n        /* \"#utility.yul\":8017:8036   */\n      add\n        /* \"#utility.yul\":8009:8036   */\n      swap1\n      pop\n        /* \"#utility.yul\":8046:8117   */\n      tag_680\n        /* \"#utility.yul\":8114:8115   */\n      0x00\n        /* \"#utility.yul\":8103:8112   */\n      dup4\n        /* \"#utility.yul\":8099:8116   */\n      add\n        /* \"#utility.yul\":8090:8096   */\n      dup14\n        /* \"#utility.yul\":8046:8117   */\n      tag_499\n      jump\t// in\n    tag_680:\n        /* \"#utility.yul\":8127:8199   */\n      tag_681\n        /* \"#utility.yul\":8195:8197   */\n      0x20\n        /* \"#utility.yul\":8184:8193   */\n      dup4\n        /* \"#utility.yul\":8180:8198   */\n      add\n        /* \"#utility.yul\":8171:8177   */\n      dup13\n        /* \"#utility.yul\":8127:8199   */\n      tag_502\n      jump\t// in\n    tag_681:\n        /* \"#utility.yul\":8246:8255   */\n      dup2\n        /* \"#utility.yul\":8240:8244   */\n      dup2\n        /* \"#utility.yul\":8236:8256   */\n      sub\n        /* \"#utility.yul\":8231:8233   */\n      0x40\n        /* \"#utility.yul\":8220:8229   */\n      dup4\n        /* \"#utility.yul\":8216:8234   */\n      add\n        /* \"#utility.yul\":8209:8257   */\n      mstore\n        /* \"#utility.yul\":8274:8352   */\n      tag_682\n        /* \"#utility.yul\":8347:8351   */\n      dup2\n        /* \"#utility.yul\":8338:8344   */\n      dup12\n        /* \"#utility.yul\":8274:8352   */\n      tag_506\n      jump\t// in\n    tag_682:\n        /* \"#utility.yul\":8266:8352   */\n      swap1\n      pop\n        /* \"#utility.yul\":8399:8408   */\n      dup2\n        /* \"#utility.yul\":8393:8397   */\n      dup2\n        /* \"#utility.yul\":8389:8409   */\n      sub\n        /* \"#utility.yul\":8384:8386   */\n      0x60\n        /* \"#utility.yul\":8373:8382   */\n      dup4\n        /* \"#utility.yul\":8369:8387   */\n      add\n        /* \"#utility.yul\":8362:8410   */\n      mstore\n        /* \"#utility.yul\":8427:8505   */\n      tag_683\n        /* \"#utility.yul\":8500:8504   */\n      dup2\n        /* \"#utility.yul\":8491:8497   */\n      dup11\n        /* \"#utility.yul\":8427:8505   */\n      tag_506\n      jump\t// in\n    tag_683:\n        /* \"#utility.yul\":8419:8505   */\n      swap1\n      pop\n        /* \"#utility.yul\":8553:8562   */\n      dup2\n        /* \"#utility.yul\":8547:8551   */\n      dup2\n        /* \"#utility.yul\":8543:8563   */\n      sub\n        /* \"#utility.yul\":8537:8540   */\n      0x80\n        /* \"#utility.yul\":8526:8535   */\n      dup4\n        /* \"#utility.yul\":8522:8541   */\n      add\n        /* \"#utility.yul\":8515:8564   */\n      mstore\n        /* \"#utility.yul\":8581:8659   */\n      tag_684\n        /* \"#utility.yul\":8654:8658   */\n      dup2\n        /* \"#utility.yul\":8645:8651   */\n      dup10\n        /* \"#utility.yul\":8581:8659   */\n      tag_506\n      jump\t// in\n    tag_684:\n        /* \"#utility.yul\":8573:8659   */\n      swap1\n      pop\n        /* \"#utility.yul\":8669:8742   */\n      tag_685\n        /* \"#utility.yul\":8737:8740   */\n      0xa0\n        /* \"#utility.yul\":8726:8735   */\n      dup4\n        /* \"#utility.yul\":8722:8741   */\n      add\n        /* \"#utility.yul\":8713:8719   */\n      dup9\n        /* \"#utility.yul\":8669:8742   */\n      tag_499\n      jump\t// in\n    tag_685:\n        /* \"#utility.yul\":8752:8825   */\n      tag_686\n        /* \"#utility.yul\":8820:8823   */\n      0xc0\n        /* \"#utility.yul\":8809:8818   */\n      dup4\n        /* \"#utility.yul\":8805:8824   */\n      add\n        /* \"#utility.yul\":8796:8802   */\n      dup8\n        /* \"#utility.yul\":8752:8825   */\n      tag_499\n      jump\t// in\n    tag_686:\n        /* \"#utility.yul\":8835:8908   */\n      tag_687\n        /* \"#utility.yul\":8903:8906   */\n      0xe0\n        /* \"#utility.yul\":8892:8901   */\n      dup4\n        /* \"#utility.yul\":8888:8907   */\n      add\n        /* \"#utility.yul\":8879:8885   */\n      dup7\n        /* \"#utility.yul\":8835:8908   */\n      tag_499\n      jump\t// in\n    tag_687:\n        /* \"#utility.yul\":8918:8985   */\n      tag_688\n        /* \"#utility.yul\":8980:8983   */\n      0x0100\n        /* \"#utility.yul\":8969:8978   */\n      dup4\n        /* \"#utility.yul\":8965:8984   */\n      add\n        /* \"#utility.yul\":8956:8962   */\n      dup6\n        /* \"#utility.yul\":8918:8985   */\n      tag_510\n      jump\t// in\n    tag_688:\n        /* \"#utility.yul\":8995:9068   */\n      tag_689\n        /* \"#utility.yul\":9063:9066   */\n      0x0120\n        /* \"#utility.yul\":9052:9061   */\n      dup4\n        /* \"#utility.yul\":9048:9067   */\n      add\n        /* \"#utility.yul\":9039:9045   */\n      dup5\n        /* \"#utility.yul\":8995:9068   */\n      tag_499\n      jump\t// in\n    tag_689:\n        /* \"#utility.yul\":7595:9075   */\n      swap12\n      swap11\n      pop\n      pop\n      pop\n      pop\n      pop\n      pop\n      pop\n      pop\n      pop\n      pop\n      pop\n      jump\t// out\n        /* \"#utility.yul\":9081:9189   */\n    tag_511:\n        /* \"#utility.yul\":9158:9182   */\n      tag_691\n        /* \"#utility.yul\":9176:9181   */\n      dup2\n        /* \"#utility.yul\":9158:9182   */\n      tag_487\n      jump\t// in\n    tag_691:\n        /* \"#utility.yul\":9153:9156   */\n      dup3\n        /* \"#utility.yul\":9146:9183   */\n      mstore\n        /* \"#utility.yul\":9081:9189   */\n      pop\n      pop\n      jump\t// out\n        /* \"#utility.yul\":9195:9303   */\n    tag_512:\n        /* \"#utility.yul\":9272:9296   */\n      tag_693\n        /* \"#utility.yul\":9290:9295   */\n      dup2\n        /* \"#utility.yul\":9272:9296   */\n      tag_501\n      jump\t// in\n    tag_693:\n        /* \"#utility.yul\":9267:9270   */\n      dup3\n        /* \"#utility.yul\":9260:9297   */\n      mstore\n        /* \"#utility.yul\":9195:9303   */\n      pop\n      pop\n      jump\t// out\n        /* \"#utility.yul\":9309:9468   */\n    tag_513:\n        /* \"#utility.yul\":9383:9394   */\n      0x00\n        /* \"#utility.yul\":9417:9423   */\n      dup3\n        /* \"#utility.yul\":9412:9415   */\n      dup3\n        /* \"#utility.yul\":9405:9424   */\n      mstore\n        /* \"#utility.yul\":9457:9461   */\n      0x20\n        /* \"#utility.yul\":9452:9455   */\n      dup3\n        /* \"#utility.yul\":9448:9462   */\n      add\n        /* \"#utility.yul\":9433:9462   */\n      swap1\n      pop\n        /* \"#utility.yul\":9309:9468   */\n      swap3\n      swap2\n      pop\n      pop\n      jump\t// out\n        /* \"#utility.yul\":9474:9831   */\n    tag_514:\n        /* \"#utility.yul\":9552:9555   */\n      0x00\n        /* \"#utility.yul\":9580:9619   */\n      tag_696\n        /* \"#utility.yul\":9613:9618   */\n      dup3\n        /* \"#utility.yul\":9580:9619   */\n      tag_503\n      jump\t// in\n    tag_696:\n        /* \"#utility.yul\":9635:9696   */\n      tag_697\n        /* \"#utility.yul\":9689:9695   */\n      dup2\n        /* \"#utility.yul\":9684:9687   */\n      dup6\n        /* \"#utility.yul\":9635:9696   */\n      tag_513\n      jump\t// in\n    tag_697:\n        /* \"#utility.yul\":9628:9696   */\n      swap4\n      pop\n        /* \"#utility.yul\":9705:9770   */\n      tag_698\n        /* \"#utility.yul\":9763:9769   */\n      dup2\n        /* \"#utility.yul\":9758:9761   */\n      dup6\n        /* \"#utility.yul\":9751:9755   */\n      0x20\n        /* \"#utility.yul\":9744:9749   */\n      dup7\n        /* \"#utility.yul\":9740:9756   */\n      add\n        /* \"#utility.yul\":9705:9770   */\n      tag_505\n      jump\t// in\n    tag_698:\n        /* \"#utility.yul\":9795:9824   */\n      tag_699\n        /* \"#utility.yul\":9817:9823   */\n      dup2\n        /* \"#utility.yul\":9795:9824   */\n      tag_492\n      jump\t// in\n    tag_699:\n        /* \"#utility.yul\":9790:9793   */\n      dup5\n        /* \"#utility.yul\":9786:9825   */\n      add\n        /* \"#utility.yul\":9779:9825   */\n      swap2\n      pop\n        /* \"#utility.yul\":9556:9831   */\n      pop\n        /* \"#utility.yul\":9474:9831   */\n      swap3\n      swap2\n      pop\n      pop\n      jump\t// out\n        /* \"#utility.yul\":9893:11214   */\n    tag_515:\n        /* \"#utility.yul\":10006:10009   */\n      0x00\n        /* \"#utility.yul\":10042:10046   */\n      0xc0\n        /* \"#utility.yul\":10037:10040   */\n      dup4\n        /* \"#utility.yul\":10033:10047   */\n      add\n        /* \"#utility.yul\":10127:10131   */\n      0x00\n        /* \"#utility.yul\":10120:10125   */\n      dup4\n        /* \"#utility.yul\":10116:10132   */\n      add\n        /* \"#utility.yul\":10110:10133   */\n      mload\n        /* \"#utility.yul\":10146:10209   */\n      tag_701\n        /* \"#utility.yul\":10203:10207   */\n      0x00\n        /* \"#utility.yul\":10198:10201   */\n      dup7\n        /* \"#utility.yul\":10194:10208   */\n      add\n        /* \"#utility.yul\":10180:10192   */\n      dup3\n        /* \"#utility.yul\":10146:10209   */\n      tag_511\n      jump\t// in\n    tag_701:\n        /* \"#utility.yul\":10057:10219   */\n      pop\n        /* \"#utility.yul\":10306:10310   */\n      0x20\n        /* \"#utility.yul\":10299:10304   */\n      dup4\n        /* \"#utility.yul\":10295:10311   */\n      add\n        /* \"#utility.yul\":10289:10312   */\n      mload\n        /* \"#utility.yul\":10325:10388   */\n      tag_702\n        /* \"#utility.yul\":10382:10386   */\n      0x20\n        /* \"#utility.yul\":10377:10380   */\n      dup7\n        /* \"#utility.yul\":10373:10387   */\n      add\n        /* \"#utility.yul\":10359:10371   */\n      dup3\n        /* \"#utility.yul\":10325:10388   */\n      tag_512\n      jump\t// in\n    tag_702:\n        /* \"#utility.yul\":10229:10398   */\n      pop\n        /* \"#utility.yul\":10486:10490   */\n      0x40\n        /* \"#utility.yul\":10479:10484   */\n      dup4\n        /* \"#utility.yul\":10475:10491   */\n      add\n        /* \"#utility.yul\":10469:10492   */\n      mload\n        /* \"#utility.yul\":10539:10542   */\n      dup5\n        /* \"#utility.yul\":10533:10537   */\n      dup3\n        /* \"#utility.yul\":10529:10543   */\n      sub\n        /* \"#utility.yul\":10522:10526   */\n      0x40\n        /* \"#utility.yul\":10517:10520   */\n      dup7\n        /* \"#utility.yul\":10513:10527   */\n      add\n        /* \"#utility.yul\":10506:10544   */\n      mstore\n        /* \"#utility.yul\":10565:10638   */\n      tag_703\n        /* \"#utility.yul\":10633:10637   */\n      dup3\n        /* \"#utility.yul\":10619:10631   */\n      dup3\n        /* \"#utility.yul\":10565:10638   */\n      tag_514\n      jump\t// in\n    tag_703:\n        /* \"#utility.yul\":10557:10638   */\n      swap2\n      pop\n        /* \"#utility.yul\":10408:10649   */\n      pop\n        /* \"#utility.yul\":10734:10738   */\n      0x60\n        /* \"#utility.yul\":10727:10732   */\n      dup4\n        /* \"#utility.yul\":10723:10739   */\n      add\n        /* \"#utility.yul\":10717:10740   */\n      mload\n        /* \"#utility.yul\":10753:10816   */\n      tag_704\n        /* \"#utility.yul\":10810:10814   */\n      0x60\n        /* \"#utility.yul\":10805:10808   */\n      dup7\n        /* \"#utility.yul\":10801:10815   */\n      add\n        /* \"#utility.yul\":10787:10799   */\n      dup3\n        /* \"#utility.yul\":10753:10816   */\n      tag_511\n      jump\t// in\n    tag_704:\n        /* \"#utility.yul\":10659:10826   */\n      pop\n        /* \"#utility.yul\":10916:10920   */\n      0x80\n        /* \"#utility.yul\":10909:10914   */\n      dup4\n        /* \"#utility.yul\":10905:10921   */\n      add\n        /* \"#utility.yul\":10899:10922   */\n      mload\n        /* \"#utility.yul\":10935:10998   */\n      tag_705\n        /* \"#utility.yul\":10992:10996   */\n      0x80\n        /* \"#utility.yul\":10987:10990   */\n      dup7\n        /* \"#utility.yul\":10983:10997   */\n      add\n        /* \"#utility.yul\":10969:10981   */\n      dup3\n        /* \"#utility.yul\":10935:10998   */\n      tag_511\n      jump\t// in\n    tag_705:\n        /* \"#utility.yul\":10836:11008   */\n      pop\n        /* \"#utility.yul\":11095:11099   */\n      0xa0\n        /* \"#utility.yul\":11088:11093   */\n      dup4\n        /* \"#utility.yul\":11084:11100   */\n      add\n        /* \"#utility.yul\":11078:11101   */\n      mload\n        /* \"#utility.yul\":11114:11177   */\n      tag_706\n        /* \"#utility.yul\":11171:11175   */\n      0xa0\n        /* \"#utility.yul\":11166:11169   */\n      dup7\n        /* \"#utility.yul\":11162:11176   */\n      add\n        /* \"#utility.yul\":11148:11160   */\n      dup3\n        /* \"#utility.yul\":11114:11177   */\n      tag_511\n      jump\t// in\n    tag_706:\n        /* \"#utility.yul\":11018:11187   */\n      pop\n        /* \"#utility.yul\":11204:11208   */\n      dup1\n        /* \"#utility.yul\":11197:11208   */\n      swap2\n      pop\n        /* \"#utility.yul\":10011:11214   */\n      pop\n        /* \"#utility.yul\":9893:11214   */\n      swap3\n      swap2\n      pop\n      pop\n      jump\t// out\n        /* \"#utility.yul\":11220:11581   */\n    tag_69:\n        /* \"#utility.yul\":11357:11361   */\n      0x00\n        /* \"#utility.yul\":11395:11397   */\n      0x20\n        /* \"#utility.yul\":11384:11393   */\n      dup3\n        /* \"#utility.yul\":11380:11398   */\n      add\n        /* \"#utility.yul\":11372:11398   */\n      swap1\n      pop\n        /* \"#utility.yul\":11444:11453   */\n      dup2\n        /* \"#utility.yul\":11438:11442   */\n      dup2\n        /* \"#utility.yul\":11434:11454   */\n      sub\n        /* \"#utility.yul\":11430:11431   */\n      0x00\n        /* \"#utility.yul\":11419:11428   */\n      dup4\n        /* \"#utility.yul\":11415:11432   */\n      add\n        /* \"#utility.yul\":11408:11455   */\n      mstore\n        /* \"#utility.yul\":11472:11574   */\n      tag_708\n        /* \"#utility.yul\":11569:11573   */\n      dup2\n        /* \"#utility.yul\":11560:11566   */\n      dup5\n        /* \"#utility.yul\":11472:11574   */\n      tag_515\n      jump\t// in\n    tag_708:\n        /* \"#utility.yul\":11464:11574   */\n      swap1\n      pop\n        /* \"#utility.yul\":11220:11581   */\n      swap3\n      swap2\n      pop\n      pop\n      jump\t// out\n        /* \"#utility.yul\":11587:12096   */\n    tag_73:\n        /* \"#utility.yul\":11656:11662   */\n      0x00\n        /* \"#utility.yul\":11705:11707   */\n      0x20\n        /* \"#utility.yul\":11693:11702   */\n      dup3\n        /* \"#utility.yul\":11684:11691   */\n      dup5\n        /* \"#utility.yul\":11680:11703   */\n      sub\n        /* \"#utility.yul\":11676:11708   */\n      slt\n        /* \"#utility.yul\":11673:11792   */\n      iszero\n      tag_710\n      jumpi\n        /* \"#utility.yul\":11711:11790   */\n      tag_711\n      tag_485\n      jump\t// in\n    tag_711:\n        /* \"#utility.yul\":11673:11792   */\n    tag_710:\n        /* \"#utility.yul\":11859:11860   */\n      0x00\n        /* \"#utility.yul\":11848:11857   */\n      dup3\n        /* \"#utility.yul\":11844:11861   */\n      add\n        /* \"#utility.yul\":11831:11862   */\n      calldataload\n        /* \"#utility.yul\":11889:11907   */\n      0xffffffffffffffff\n        /* \"#utility.yul\":11881:11887   */\n      dup2\n        /* \"#utility.yul\":11878:11908   */\n      gt\n        /* \"#utility.yul\":11875:11992   */\n      iszero\n      tag_712\n      jumpi\n        /* \"#utility.yul\":11911:11990   */\n      tag_713\n      tag_486\n      jump\t// in\n    tag_713:\n        /* \"#utility.yul\":11875:11992   */\n    tag_712:\n        /* \"#utility.yul\":12016:12079   */\n      tag_714\n        /* \"#utility.yul\":12071:12078   */\n      dup5\n        /* \"#utility.yul\":12062:12068   */\n      dup3\n        /* \"#utility.yul\":12051:12060   */\n      dup6\n        /* \"#utility.yul\":12047:12069   */\n      add\n        /* \"#utility.yul\":12016:12079   */\n      tag_498\n      jump\t// in\n    tag_714:\n        /* \"#utility.yul\":12006:12079   */\n      swap2\n      pop\n        /* \"#utility.yul\":11802:12089   */\n      pop\n        /* \"#utility.yul\":11587:12096   */\n      swap3\n      swap2\n      pop\n      pop\n      jump\t// out\n        /* \"#utility.yul\":12102:12216   */\n    tag_516:\n        /* \"#utility.yul\":12169:12175   */\n      0x00\n        /* \"#utility.yul\":12203:12208   */\n      dup2\n        /* \"#utility.yul\":12197:12209   */\n      mload\n        /* \"#utility.yul\":12187:12209   */\n      swap1\n      pop\n        /* \"#utility.yul\":12102:12216   */\n      swap2\n      swap1\n      pop\n      jump\t// out\n        /* \"#utility.yul\":12222:12406   */\n    tag_517:\n        /* \"#utility.yul\":12321:12332   */\n      0x00\n        /* \"#utility.yul\":12355:12361   */\n      dup3\n        /* \"#utility.yul\":12350:12353   */\n      dup3\n        /* \"#utility.yul\":12343:12362   */\n      mstore\n        /* \"#utility.yul\":12395:12399   */\n      0x20\n        /* \"#utility.yul\":12390:12393   */\n      dup3\n        /* \"#utility.yul\":12386:12400   */\n      add\n        /* \"#utility.yul\":12371:12400   */\n      swap1\n      pop\n        /* \"#utility.yul\":12222:12406   */\n      swap3\n      swap2\n      pop\n      pop\n      jump\t// out\n        /* \"#utility.yul\":12412:12544   */\n    tag_518:\n        /* \"#utility.yul\":12479:12483   */\n      0x00\n        /* \"#utility.yul\":12502:12505   */\n      dup2\n        /* \"#utility.yul\":12494:12505   */\n      swap1\n      pop\n        /* \"#utility.yul\":12532:12536   */\n      0x20\n        /* \"#utility.yul\":12527:12530   */\n      dup3\n        /* \"#utility.yul\":12523:12537   */\n      add\n        /* \"#utility.yul\":12515:12537   */\n      swap1\n      pop\n        /* \"#utility.yul\":12412:12544   */\n      swap2\n      swap1\n      pop\n      jump\t// out\n        /* \"#utility.yul\":12550:12729   */\n    tag_519:\n        /* \"#utility.yul\":12619:12629   */\n      0x00\n        /* \"#utility.yul\":12640:12686   */\n      tag_719\n        /* \"#utility.yul\":12682:12685   */\n      dup4\n        /* \"#utility.yul\":12674:12680   */\n      dup4\n        /* \"#utility.yul\":12640:12686   */\n      tag_511\n      jump\t// in\n    tag_719:\n        /* \"#utility.yul\":12718:12722   */\n      0x20\n        /* \"#utility.yul\":12713:12716   */\n      dup4\n        /* \"#utility.yul\":12709:12723   */\n      add\n        /* \"#utility.yul\":12695:12723   */\n      swap1\n      pop\n        /* \"#utility.yul\":12550:12729   */\n      swap3\n      swap2\n      pop\n      pop\n      jump\t// out\n        /* \"#utility.yul\":12735:12848   */\n    tag_520:\n        /* \"#utility.yul\":12805:12809   */\n      0x00\n        /* \"#utility.yul\":12837:12841   */\n      0x20\n        /* \"#utility.yul\":12832:12835   */\n      dup3\n        /* \"#utility.yul\":12828:12842   */\n      add\n        /* \"#utility.yul\":12820:12842   */\n      swap1\n      pop\n        /* \"#utility.yul\":12735:12848   */\n      swap2\n      swap1\n      pop\n      jump\t// out\n        /* \"#utility.yul\":12884:13616   */\n    tag_521:\n        /* \"#utility.yul\":13003:13006   */\n      0x00\n        /* \"#utility.yul\":13032:13086   */\n      tag_722\n        /* \"#utility.yul\":13080:13085   */\n      dup3\n        /* \"#utility.yul\":13032:13086   */\n      tag_516\n      jump\t// in\n    tag_722:\n        /* \"#utility.yul\":13102:13188   */\n      tag_723\n        /* \"#utility.yul\":13181:13187   */\n      dup2\n        /* \"#utility.yul\":13176:13179   */\n      dup6\n        /* \"#utility.yul\":13102:13188   */\n      tag_517\n      jump\t// in\n    tag_723:\n        /* \"#utility.yul\":13095:13188   */\n      swap4\n      pop\n        /* \"#utility.yul\":13212:13268   */\n      tag_724\n        /* \"#utility.yul\":13262:13267   */\n      dup4\n        /* \"#utility.yul\":13212:13268   */\n      tag_518\n      jump\t// in\n    tag_724:\n        /* \"#utility.yul\":13291:13298   */\n      dup1\n        /* \"#utility.yul\":13322:13323   */\n      0x00\n        /* \"#utility.yul\":13307:13591   */\n    tag_725:\n        /* \"#utility.yul\":13332:13338   */\n      dup4\n        /* \"#utility.yul\":13329:13330   */\n      dup2\n        /* \"#utility.yul\":13326:13339   */\n      lt\n        /* \"#utility.yul\":13307:13591   */\n      iszero\n      tag_727\n      jumpi\n        /* \"#utility.yul\":13408:13414   */\n      dup2\n        /* \"#utility.yul\":13402:13415   */\n      mload\n        /* \"#utility.yul\":13435:13498   */\n      tag_728\n        /* \"#utility.yul\":13494:13497   */\n      dup9\n        /* \"#utility.yul\":13479:13492   */\n      dup3\n        /* \"#utility.yul\":13435:13498   */\n      tag_519\n      jump\t// in\n    tag_728:\n        /* \"#utility.yul\":13428:13498   */\n      swap8\n      pop\n        /* \"#utility.yul\":13521:13581   */\n      tag_729\n        /* \"#utility.yul\":13574:13580   */\n      dup4\n        /* \"#utility.yul\":13521:13581   */\n      tag_520\n      jump\t// in\n    tag_729:\n        /* \"#utility.yul\":13511:13581   */\n      swap3\n      pop\n        /* \"#utility.yul\":13367:13591   */\n      pop\n        /* \"#utility.yul\":13354:13355   */\n      0x01\n        /* \"#utility.yul\":13351:13352   */\n      dup2\n        /* \"#utility.yul\":13347:13356   */\n      add\n        /* \"#utility.yul\":13342:13356   */\n      swap1\n      pop\n        /* \"#utility.yul\":13307:13591   */\n      jump(tag_725)\n    tag_727:\n        /* \"#utility.yul\":13311:13325   */\n      pop\n        /* \"#utility.yul\":13607:13610   */\n      dup6\n        /* \"#utility.yul\":13600:13610   */\n      swap4\n      pop\n        /* \"#utility.yul\":13008:13616   */\n      pop\n      pop\n      pop\n        /* \"#utility.yul\":12884:13616   */\n      swap3\n      swap2\n      pop\n      pop\n      jump\t// out\n        /* \"#utility.yul\":13622:13995   */\n    tag_76:\n        /* \"#utility.yul\":13765:13769   */\n      0x00\n        /* \"#utility.yul\":13803:13805   */\n      0x20\n        /* \"#utility.yul\":13792:13801   */\n      dup3\n        /* \"#utility.yul\":13788:13806   */\n      add\n        /* \"#utility.yul\":13780:13806   */\n      swap1\n      pop\n        /* \"#utility.yul\":13852:13861   */\n      dup2\n        /* \"#utility.yul\":13846:13850   */\n      dup2\n        /* \"#utility.yul\":13842:13862   */\n      sub\n        /* \"#utility.yul\":13838:13839   */\n      0x00\n        /* \"#utility.yul\":13827:13836   */\n      dup4\n        /* \"#utility.yul\":13823:13840   */\n      add\n        /* \"#utility.yul\":13816:13863   */\n      mstore\n        /* \"#utility.yul\":13880:13988   */\n      tag_731\n        /* \"#utility.yul\":13983:13987   */\n      dup2\n        /* \"#utility.yul\":13974:13980   */\n      dup5\n        /* \"#utility.yul\":13880:13988   */\n      tag_521\n      jump\t// in\n    tag_731:\n        /* \"#utility.yul\":13872:13988   */\n      swap1\n      pop\n        /* \"#utility.yul\":13622:13995   */\n      swap3\n      swap2\n      pop\n      pop\n      jump\t// out\n        /* \"#utility.yul\":14001:14117   */\n    tag_522:\n        /* \"#utility.yul\":14091:14092   */\n      0x03\n        /* \"#utility.yul\":14084:14089   */\n      dup2\n        /* \"#utility.yul\":14081:14093   */\n      lt\n        /* \"#utility.yul\":14071:14111   */\n      tag_733\n      jumpi\n        /* \"#utility.yul\":14107:14108   */\n      0x00\n        /* \"#utility.yul\":14104:14105   */\n      dup1\n        /* \"#utility.yul\":14097:14109   */\n      revert\n        /* \"#utility.yul\":14071:14111   */\n    tag_733:\n        /* \"#utility.yul\":14001:14117   */\n      pop\n      jump\t// out\n        /* \"#utility.yul\":14123:14296   */\n    tag_523:\n        /* \"#utility.yul\":14186:14191   */\n      0x00\n        /* \"#utility.yul\":14224:14230   */\n      dup2\n        /* \"#utility.yul\":14211:14231   */\n      calldataload\n        /* \"#utility.yul\":14202:14231   */\n      swap1\n      pop\n        /* \"#utility.yul\":14240:14290   */\n      tag_735\n        /* \"#utility.yul\":14284:14289   */\n      dup2\n        /* \"#utility.yul\":14240:14290   */\n      tag_522\n      jump\t// in\n    tag_735:\n        /* \"#utility.yul\":14123:14296   */\n      swap3\n      swap2\n      pop\n      pop\n      jump\t// out\n        /* \"#utility.yul\":14302:15641   */\n    tag_79:\n        /* \"#utility.yul\":14435:14441   */\n      0x00\n        /* \"#utility.yul\":14443:14449   */\n      dup1\n        /* \"#utility.yul\":14451:14457   */\n      0x00\n        /* \"#utility.yul\":14459:14465   */\n      dup1\n        /* \"#utility.yul\":14508:14511   */\n      0x80\n        /* \"#utility.yul\":14496:14505   */\n      dup6\n        /* \"#utility.yul\":14487:14494   */\n      dup8\n        /* \"#utility.yul\":14483:14506   */\n      sub\n        /* \"#utility.yul\":14479:14512   */\n      slt\n        /* \"#utility.yul\":14476:14596   */\n      iszero\n      tag_737\n      jumpi\n        /* \"#utility.yul\":14515:14594   */\n      tag_738\n      tag_485\n      jump\t// in\n    tag_738:\n        /* \"#utility.yul\":14476:14596   */\n    tag_737:\n        /* \"#utility.yul\":14663:14664   */\n      0x00\n        /* \"#utility.yul\":14652:14661   */\n      dup6\n        /* \"#utility.yul\":14648:14665   */\n      add\n        /* \"#utility.yul\":14635:14666   */\n      calldataload\n        /* \"#utility.yul\":14693:14711   */\n      0xffffffffffffffff\n        /* \"#utility.yul\":14685:14691   */\n      dup2\n        /* \"#utility.yul\":14682:14712   */\n      gt\n        /* \"#utility.yul\":14679:14796   */\n      iszero\n      tag_739\n      jumpi\n        /* \"#utility.yul\":14715:14794   */\n      tag_740\n      tag_486\n      jump\t// in\n    tag_740:\n        /* \"#utility.yul\":14679:14796   */\n    tag_739:\n        /* \"#utility.yul\":14820:14883   */\n      tag_741\n        /* \"#utility.yul\":14875:14882   */\n      dup8\n        /* \"#utility.yul\":14866:14872   */\n      dup3\n        /* \"#utility.yul\":14855:14864   */\n      dup9\n        /* \"#utility.yul\":14851:14873   */\n      add\n        /* \"#utility.yul\":14820:14883   */\n      tag_498\n      jump\t// in\n    tag_741:\n        /* \"#utility.yul\":14810:14883   */\n      swap5\n      pop\n        /* \"#utility.yul\":14606:14893   */\n      pop\n        /* \"#utility.yul\":14960:14962   */\n      0x20\n        /* \"#utility.yul\":14949:14958   */\n      dup6\n        /* \"#utility.yul\":14945:14963   */\n      add\n        /* \"#utility.yul\":14932:14964   */\n      calldataload\n        /* \"#utility.yul\":14991:15009   */\n      0xffffffffffffffff\n        /* \"#utility.yul\":14983:14989   */\n      dup2\n        /* \"#utility.yul\":14980:15010   */\n      gt\n        /* \"#utility.yul\":14977:15094   */\n      iszero\n      tag_742\n      jumpi\n        /* \"#utility.yul\":15013:15092   */\n      tag_743\n      tag_486\n      jump\t// in\n    tag_743:\n        /* \"#utility.yul\":14977:15094   */\n    tag_742:\n        /* \"#utility.yul\":15118:15181   */\n      tag_744\n        /* \"#utility.yul\":15173:15180   */\n      dup8\n        /* \"#utility.yul\":15164:15170   */\n      dup3\n        /* \"#utility.yul\":15153:15162   */\n      dup9\n        /* \"#utility.yul\":15149:15171   */\n      add\n        /* \"#utility.yul\":15118:15181   */\n      tag_498\n      jump\t// in\n    tag_744:\n        /* \"#utility.yul\":15108:15181   */\n      swap4\n      pop\n        /* \"#utility.yul\":14903:15191   */\n      pop\n        /* \"#utility.yul\":15258:15260   */\n      0x40\n        /* \"#utility.yul\":15247:15256   */\n      dup6\n        /* \"#utility.yul\":15243:15261   */\n      add\n        /* \"#utility.yul\":15230:15262   */\n      calldataload\n        /* \"#utility.yul\":15289:15307   */\n      0xffffffffffffffff\n        /* \"#utility.yul\":15281:15287   */\n      dup2\n        /* \"#utility.yul\":15278:15308   */\n      gt\n        /* \"#utility.yul\":15275:15392   */\n      iszero\n      tag_745\n      jumpi\n        /* \"#utility.yul\":15311:15390   */\n      tag_746\n      tag_486\n      jump\t// in\n    tag_746:\n        /* \"#utility.yul\":15275:15392   */\n    tag_745:\n        /* \"#utility.yul\":15416:15479   */\n      tag_747\n        /* \"#utility.yul\":15471:15478   */\n      dup8\n        /* \"#utility.yul\":15462:15468   */\n      dup3\n        /* \"#utility.yul\":15451:15460   */\n      dup9\n        /* \"#utility.yul\":15447:15469   */\n      add\n        /* \"#utility.yul\":15416:15479   */\n      tag_498\n      jump\t// in\n    tag_747:\n        /* \"#utility.yul\":15406:15479   */\n      swap3\n      pop\n        /* \"#utility.yul\":15201:15489   */\n      pop\n        /* \"#utility.yul\":15528:15530   */\n      0x60\n        /* \"#utility.yul\":15554:15624   */\n      tag_748\n        /* \"#utility.yul\":15616:15623   */\n      dup8\n        /* \"#utility.yul\":15607:15613   */\n      dup3\n        /* \"#utility.yul\":15596:15605   */\n      dup9\n        /* \"#utility.yul\":15592:15614   */\n      add\n        /* \"#utility.yul\":15554:15624   */\n      tag_523\n      jump\t// in\n    tag_748:\n        /* \"#utility.yul\":15544:15624   */\n      swap2\n      pop\n        /* \"#utility.yul\":15499:15634   */\n      pop\n        /* \"#utility.yul\":14302:15641   */\n      swap3\n      swap6\n      swap2\n      swap5\n      pop\n      swap3\n      pop\n      jump\t// out\n        /* \"#utility.yul\":15647:15869   */\n    tag_93:\n        /* \"#utility.yul\":15740:15744   */\n      0x00\n        /* \"#utility.yul\":15778:15780   */\n      0x20\n        /* \"#utility.yul\":15767:15776   */\n      dup3\n        /* \"#utility.yul\":15763:15781   */\n      add\n        /* \"#utility.yul\":15755:15781   */\n      swap1\n      pop\n        /* \"#utility.yul\":15791:15862   */\n      tag_750\n        /* \"#utility.yul\":15859:15860   */\n      0x00\n        /* \"#utility.yul\":15848:15857   */\n      dup4\n        /* \"#utility.yul\":15844:15861   */\n      add\n        /* \"#utility.yul\":15835:15841   */\n      dup5\n        /* \"#utility.yul\":15791:15862   */\n      tag_502\n      jump\t// in\n    tag_750:\n        /* \"#utility.yul\":15647:15869   */\n      swap3\n      swap2\n      pop\n      pop\n      jump\t// out\n        /* \"#utility.yul\":15875:15974   */\n    tag_524:\n        /* \"#utility.yul\":15946:15967   */\n      tag_752\n        /* \"#utility.yul\":15961:15966   */\n      dup2\n        /* \"#utility.yul\":15946:15967   */\n      tag_509\n      jump\t// in\n    tag_752:\n        /* \"#utility.yul\":15941:15944   */\n      dup3\n        /* \"#utility.yul\":15934:15968   */\n      mstore\n        /* \"#utility.yul\":15875:15974   */\n      pop\n      pop\n      jump\t// out\n        /* \"#utility.yul\":16040:18235   */\n    tag_525:\n        /* \"#utility.yul\":16157:16160   */\n      0x00\n        /* \"#utility.yul\":16193:16199   */\n      0x0140\n        /* \"#utility.yul\":16188:16191   */\n      dup4\n        /* \"#utility.yul\":16184:16200   */\n      add\n        /* \"#utility.yul\":16280:16284   */\n      0x00\n        /* \"#utility.yul\":16273:16278   */\n      dup4\n        /* \"#utility.yul\":16269:16285   */\n      add\n        /* \"#utility.yul\":16263:16286   */\n      mload\n        /* \"#utility.yul\":16299:16362   */\n      tag_754\n        /* \"#utility.yul\":16356:16360   */\n      0x00\n        /* \"#utility.yul\":16351:16354   */\n      dup7\n        /* \"#utility.yul\":16347:16361   */\n      add\n        /* \"#utility.yul\":16333:16345   */\n      dup3\n        /* \"#utility.yul\":16299:16362   */\n      tag_511\n      jump\t// in\n    tag_754:\n        /* \"#utility.yul\":16210:16372   */\n      pop\n        /* \"#utility.yul\":16455:16459   */\n      0x20\n        /* \"#utility.yul\":16448:16453   */\n      dup4\n        /* \"#utility.yul\":16444:16460   */\n      add\n        /* \"#utility.yul\":16438:16461   */\n      mload\n        /* \"#utility.yul\":16474:16537   */\n      tag_755\n        /* \"#utility.yul\":16531:16535   */\n      0x20\n        /* \"#utility.yul\":16526:16529   */\n      dup7\n        /* \"#utility.yul\":16522:16536   */\n      add\n        /* \"#utility.yul\":16508:16520   */\n      dup3\n        /* \"#utility.yul\":16474:16537   */\n      tag_512\n      jump\t// in\n    tag_755:\n        /* \"#utility.yul\":16382:16547   */\n      pop\n        /* \"#utility.yul\":16637:16641   */\n      0x40\n        /* \"#utility.yul\":16630:16635   */\n      dup4\n        /* \"#utility.yul\":16626:16642   */\n      add\n        /* \"#utility.yul\":16620:16643   */\n      mload\n        /* \"#utility.yul\":16690:16693   */\n      dup5\n        /* \"#utility.yul\":16684:16688   */\n      dup3\n        /* \"#utility.yul\":16680:16694   */\n      sub\n        /* \"#utility.yul\":16673:16677   */\n      0x40\n        /* \"#utility.yul\":16668:16671   */\n      dup7\n        /* \"#utility.yul\":16664:16678   */\n      add\n        /* \"#utility.yul\":16657:16695   */\n      mstore\n        /* \"#utility.yul\":16716:16789   */\n      tag_756\n        /* \"#utility.yul\":16784:16788   */\n      dup3\n        /* \"#utility.yul\":16770:16782   */\n      dup3\n        /* \"#utility.yul\":16716:16789   */\n      tag_514\n      jump\t// in\n    tag_756:\n        /* \"#utility.yul\":16708:16789   */\n      swap2\n      pop\n        /* \"#utility.yul\":16557:16800   */\n      pop\n        /* \"#utility.yul\":16893:16897   */\n      0x60\n        /* \"#utility.yul\":16886:16891   */\n      dup4\n        /* \"#utility.yul\":16882:16898   */\n      add\n        /* \"#utility.yul\":16876:16899   */\n      mload\n        /* \"#utility.yul\":16946:16949   */\n      dup5\n        /* \"#utility.yul\":16940:16944   */\n      dup3\n        /* \"#utility.yul\":16936:16950   */\n      sub\n        /* \"#utility.yul\":16929:16933   */\n      0x60\n        /* \"#utility.yul\":16924:16927   */\n      dup7\n        /* \"#utility.yul\":16920:16934   */\n      add\n        /* \"#utility.yul\":16913:16951   */\n      mstore\n        /* \"#utility.yul\":16972:17045   */\n      tag_757\n        /* \"#utility.yul\":17040:17044   */\n      dup3\n        /* \"#utility.yul\":17026:17038   */\n      dup3\n        /* \"#utility.yul\":16972:17045   */\n      tag_514\n      jump\t// in\n    tag_757:\n        /* \"#utility.yul\":16964:17045   */\n      swap2\n      pop\n        /* \"#utility.yul\":16810:17056   */\n      pop\n        /* \"#utility.yul\":17142:17146   */\n      0x80\n        /* \"#utility.yul\":17135:17140   */\n      dup4\n        /* \"#utility.yul\":17131:17147   */\n      add\n        /* \"#utility.yul\":17125:17148   */\n      mload\n        /* \"#utility.yul\":17195:17198   */\n      dup5\n        /* \"#utility.yul\":17189:17193   */\n      dup3\n        /* \"#utility.yul\":17185:17199   */\n      sub\n        /* \"#utility.yul\":17178:17182   */\n      0x80\n        /* \"#utility.yul\":17173:17176   */\n      dup7\n        /* \"#utility.yul\":17169:17183   */\n      add\n        /* \"#utility.yul\":17162:17200   */\n      mstore\n        /* \"#utility.yul\":17221:17294   */\n      tag_758\n        /* \"#utility.yul\":17289:17293   */\n      dup3\n        /* \"#utility.yul\":17275:17287   */\n      dup3\n        /* \"#utility.yul\":17221:17294   */\n      tag_514\n      jump\t// in\n    tag_758:\n        /* \"#utility.yul\":17213:17294   */\n      swap2\n      pop\n        /* \"#utility.yul\":17066:17305   */\n      pop\n        /* \"#utility.yul\":17395:17399   */\n      0xa0\n        /* \"#utility.yul\":17388:17393   */\n      dup4\n        /* \"#utility.yul\":17384:17400   */\n      add\n        /* \"#utility.yul\":17378:17401   */\n      mload\n        /* \"#utility.yul\":17414:17477   */\n      tag_759\n        /* \"#utility.yul\":17471:17475   */\n      0xa0\n        /* \"#utility.yul\":17466:17469   */\n      dup7\n        /* \"#utility.yul\":17462:17476   */\n      add\n        /* \"#utility.yul\":17448:17460   */\n      dup3\n        /* \"#utility.yul\":17414:17477   */\n      tag_511\n      jump\t// in\n    tag_759:\n        /* \"#utility.yul\":17315:17487   */\n      pop\n        /* \"#utility.yul\":17574:17578   */\n      0xc0\n        /* \"#utility.yul\":17567:17572   */\n      dup4\n        /* \"#utility.yul\":17563:17579   */\n      add\n        /* \"#utility.yul\":17557:17580   */\n      mload\n        /* \"#utility.yul\":17593:17656   */\n      tag_760\n        /* \"#utility.yul\":17650:17654   */\n      0xc0\n        /* \"#utility.yul\":17645:17648   */\n      dup7\n        /* \"#utility.yul\":17641:17655   */\n      add\n        /* \"#utility.yul\":17627:17639   */\n      dup3\n        /* \"#utility.yul\":17593:17656   */\n      tag_511\n      jump\t// in\n    tag_760:\n        /* \"#utility.yul\":17497:17666   */\n      pop\n        /* \"#utility.yul\":17752:17756   */\n      0xe0\n        /* \"#utility.yul\":17745:17750   */\n      dup4\n        /* \"#utility.yul\":17741:17757   */\n      add\n        /* \"#utility.yul\":17735:17758   */\n      mload\n        /* \"#utility.yul\":17771:17834   */\n      tag_761\n        /* \"#utility.yul\":17828:17832   */\n      0xe0\n        /* \"#utility.yul\":17823:17826   */\n      dup7\n        /* \"#utility.yul\":17819:17833   */\n      add\n        /* \"#utility.yul\":17805:17817   */\n      dup3\n        /* \"#utility.yul\":17771:17834   */\n      tag_511\n      jump\t// in\n    tag_761:\n        /* \"#utility.yul\":17676:17844   */\n      pop\n        /* \"#utility.yul\":17930:17936   */\n      0x0100\n        /* \"#utility.yul\":17923:17928   */\n      dup4\n        /* \"#utility.yul\":17919:17937   */\n      add\n        /* \"#utility.yul\":17913:17938   */\n      mload\n        /* \"#utility.yul\":17951:18010   */\n      tag_762\n        /* \"#utility.yul\":18002:18008   */\n      0x0100\n        /* \"#utility.yul\":17997:18000   */\n      dup7\n        /* \"#utility.yul\":17993:18009   */\n      add\n        /* \"#utility.yul\":17979:17991   */\n      dup3\n        /* \"#utility.yul\":17951:18010   */\n      tag_524\n      jump\t// in\n    tag_762:\n        /* \"#utility.yul\":17854:18020   */\n      pop\n        /* \"#utility.yul\":18112:18118   */\n      0x0120\n        /* \"#utility.yul\":18105:18110   */\n      dup4\n        /* \"#utility.yul\":18101:18119   */\n      add\n        /* \"#utility.yul\":18095:18120   */\n      mload\n        /* \"#utility.yul\":18133:18198   */\n      tag_763\n        /* \"#utility.yul\":18190:18196   */\n      0x0120\n        /* \"#utility.yul\":18185:18188   */\n      dup7\n        /* \"#utility.yul\":18181:18197   */\n      add\n        /* \"#utility.yul\":18167:18179   */\n      dup3\n        /* \"#utility.yul\":18133:18198   */\n      tag_511\n      jump\t// in\n    tag_763:\n        /* \"#utility.yul\":18030:18208   */\n      pop\n        /* \"#utility.yul\":18225:18229   */\n      dup1\n        /* \"#utility.yul\":18218:18229   */\n      swap2\n      pop\n        /* \"#utility.yul\":16162:18235   */\n      pop\n        /* \"#utility.yul\":16040:18235   */\n      swap3\n      swap2\n      pop\n      pop\n      jump\t// out\n        /* \"#utility.yul\":18241:18610   */\n    tag_122:\n        /* \"#utility.yul\":18382:18386   */\n      0x00\n        /* \"#utility.yul\":18420:18422   */\n      0x20\n        /* \"#utility.yul\":18409:18418   */\n      dup3\n        /* \"#utility.yul\":18405:18423   */\n      add\n        /* \"#utility.yul\":18397:18423   */\n      swap1\n      pop\n        /* \"#utility.yul\":18469:18478   */\n      dup2\n        /* \"#utility.yul\":18463:18467   */\n      dup2\n        /* \"#utility.yul\":18459:18479   */\n      sub\n        /* \"#utility.yul\":18455:18456   */\n      0x00\n        /* \"#utility.yul\":18444:18453   */\n      dup4\n        /* \"#utility.yul\":18440:18457   */\n      add\n        /* \"#utility.yul\":18433:18480   */\n      mstore\n        /* \"#utility.yul\":18497:18603   */\n      tag_765\n        /* \"#utility.yul\":18598:18602   */\n      dup2\n        /* \"#utility.yul\":18589:18595   */\n      dup5\n        /* \"#utility.yul\":18497:18603   */\n      tag_525\n      jump\t// in\n    tag_765:\n        /* \"#utility.yul\":18489:18603   */\n      swap1\n      pop\n        /* \"#utility.yul\":18241:18610   */\n      swap3\n      swap2\n      pop\n      pop\n      jump\t// out\n        /* \"#utility.yul\":18616:19235   */\n    tag_126:\n        /* \"#utility.yul\":18693:18699   */\n      0x00\n        /* \"#utility.yul\":18701:18707   */\n      dup1\n        /* \"#utility.yul\":18709:18715   */\n      0x00\n        /* \"#utility.yul\":18758:18760   */\n      0x60\n        /* \"#utility.yul\":18746:18755   */\n      dup5\n        /* \"#utility.yul\":18737:18744   */\n      dup7\n        /* \"#utility.yul\":18733:18756   */\n      sub\n        /* \"#utility.yul\":18729:18761   */\n      slt\n        /* \"#utility.yul\":18726:18845   */\n      iszero\n      tag_767\n      jumpi\n        /* \"#utility.yul\":18764:18843   */\n      tag_768\n      tag_485\n      jump\t// in\n    tag_768:\n        /* \"#utility.yul\":18726:18845   */\n    tag_767:\n        /* \"#utility.yul\":18884:18885   */\n      0x00\n        /* \"#utility.yul\":18909:18962   */\n      tag_769\n        /* \"#utility.yul\":18954:18961   */\n      dup7\n        /* \"#utility.yul\":18945:18951   */\n      dup3\n        /* \"#utility.yul\":18934:18943   */\n      dup8\n        /* \"#utility.yul\":18930:18952   */\n      add\n        /* \"#utility.yul\":18909:18962   */\n      tag_489\n      jump\t// in\n    tag_769:\n        /* \"#utility.yul\":18899:18962   */\n      swap4\n      pop\n        /* \"#utility.yul\":18855:18972   */\n      pop\n        /* \"#utility.yul\":19011:19013   */\n      0x20\n        /* \"#utility.yul\":19037:19090   */\n      tag_770\n        /* \"#utility.yul\":19082:19089   */\n      dup7\n        /* \"#utility.yul\":19073:19079   */\n      dup3\n        /* \"#utility.yul\":19062:19071   */\n      dup8\n        /* \"#utility.yul\":19058:19080   */\n      add\n        /* \"#utility.yul\":19037:19090   */\n      tag_489\n      jump\t// in\n    tag_770:\n        /* \"#utility.yul\":19027:19090   */\n      swap3\n      pop\n        /* \"#utility.yul\":18982:19100   */\n      pop\n        /* \"#utility.yul\":19139:19141   */\n      0x40\n        /* \"#utility.yul\":19165:19218   */\n      tag_771\n        /* \"#utility.yul\":19210:19217   */\n      dup7\n        /* \"#utility.yul\":19201:19207   */\n      dup3\n        /* \"#utility.yul\":19190:19199   */\n      dup8\n        /* \"#utility.yul\":19186:19208   */\n      add\n        /* \"#utility.yul\":19165:19218   */\n      tag_489\n      jump\t// in\n    tag_771:\n        /* \"#utility.yul\":19155:19218   */\n      swap2\n      pop\n        /* \"#utility.yul\":19110:19228   */\n      pop\n        /* \"#utility.yul\":18616:19235   */\n      swap3\n      pop\n      swap3\n      pop\n      swap3\n      jump\t// out\n        /* \"#utility.yul\":19241:19377   */\n    tag_526:\n        /* \"#utility.yul\":19330:19336   */\n      0x00\n        /* \"#utility.yul\":19364:19369   */\n      dup2\n        /* \"#utility.yul\":19358:19370   */\n      mload\n        /* \"#utility.yul\":19348:19370   */\n      swap1\n      pop\n        /* \"#utility.yul\":19241:19377   */\n      swap2\n      swap1\n      pop\n      jump\t// out\n        /* \"#utility.yul\":19383:19589   */\n    tag_527:\n        /* \"#utility.yul\":19504:19515   */\n      0x00\n        /* \"#utility.yul\":19538:19544   */\n      dup3\n        /* \"#utility.yul\":19533:19536   */\n      dup3\n        /* \"#utility.yul\":19526:19545   */\n      mstore\n        /* \"#utility.yul\":19578:19582   */\n      0x20\n        /* \"#utility.yul\":19573:19576   */\n      dup3\n        /* \"#utility.yul\":19569:19583   */\n      add\n        /* \"#utility.yul\":19554:19583   */\n      swap1\n      pop\n        /* \"#utility.yul\":19383:19589   */\n      swap3\n      swap2\n      pop\n      pop\n      jump\t// out\n        /* \"#utility.yul\":19595:19749   */\n    tag_528:\n        /* \"#utility.yul\":19684:19688   */\n      0x00\n        /* \"#utility.yul\":19707:19710   */\n      dup2\n        /* \"#utility.yul\":19699:19710   */\n      swap1\n      pop\n        /* \"#utility.yul\":19737:19741   */\n      0x20\n        /* \"#utility.yul\":19732:19735   */\n      dup3\n        /* \"#utility.yul\":19728:19742   */\n      add\n        /* \"#utility.yul\":19720:19742   */\n      swap1\n      pop\n        /* \"#utility.yul\":19595:19749   */\n      swap2\n      swap1\n      pop\n      jump\t// out\n        /* \"#utility.yul\":19811:21122   */\n    tag_529:\n        /* \"#utility.yul\":19914:19917   */\n      0x00\n        /* \"#utility.yul\":19950:19954   */\n      0xc0\n        /* \"#utility.yul\":19945:19948   */\n      dup4\n        /* \"#utility.yul\":19941:19955   */\n      add\n        /* \"#utility.yul\":20035:20039   */\n      0x00\n        /* \"#utility.yul\":20028:20033   */\n      dup4\n        /* \"#utility.yul\":20024:20040   */\n      add\n        /* \"#utility.yul\":20018:20041   */\n      mload\n        /* \"#utility.yul\":20054:20117   */\n      tag_776\n        /* \"#utility.yul\":20111:20115   */\n      0x00\n        /* \"#utility.yul\":20106:20109   */\n      dup7\n        /* \"#utility.yul\":20102:20116   */\n      add\n        /* \"#utility.yul\":20088:20100   */\n      dup3\n        /* \"#utility.yul\":20054:20117   */\n      tag_511\n      jump\t// in\n    tag_776:\n        /* \"#utility.yul\":19965:20127   */\n      pop\n        /* \"#utility.yul\":20214:20218   */\n      0x20\n        /* \"#utility.yul\":20207:20212   */\n      dup4\n        /* \"#utility.yul\":20203:20219   */\n      add\n        /* \"#utility.yul\":20197:20220   */\n      mload\n        /* \"#utility.yul\":20233:20296   */\n      tag_777\n        /* \"#utility.yul\":20290:20294   */\n      0x20\n        /* \"#utility.yul\":20285:20288   */\n      dup7\n        /* \"#utility.yul\":20281:20295   */\n      add\n        /* \"#utility.yul\":20267:20279   */\n      dup3\n        /* \"#utility.yul\":20233:20296   */\n      tag_512\n      jump\t// in\n    tag_777:\n        /* \"#utility.yul\":20137:20306   */\n      pop\n        /* \"#utility.yul\":20394:20398   */\n      0x40\n        /* \"#utility.yul\":20387:20392   */\n      dup4\n        /* \"#utility.yul\":20383:20399   */\n      add\n        /* \"#utility.yul\":20377:20400   */\n      mload\n        /* \"#utility.yul\":20447:20450   */\n      dup5\n        /* \"#utility.yul\":20441:20445   */\n      dup3\n        /* \"#utility.yul\":20437:20451   */\n      sub\n        /* \"#utility.yul\":20430:20434   */\n      0x40\n        /* \"#utility.yul\":20425:20428   */\n      dup7\n        /* \"#utility.yul\":20421:20435   */\n      add\n        /* \"#utility.yul\":20414:20452   */\n      mstore\n        /* \"#utility.yul\":20473:20546   */\n      tag_778\n        /* \"#utility.yul\":20541:20545   */\n      dup3\n        /* \"#utility.yul\":20527:20539   */\n      dup3\n        /* \"#utility.yul\":20473:20546   */\n      tag_514\n      jump\t// in\n    tag_778:\n        /* \"#utility.yul\":20465:20546   */\n      swap2\n      pop\n        /* \"#utility.yul\":20316:20557   */\n      pop\n        /* \"#utility.yul\":20642:20646   */\n      0x60\n        /* \"#utility.yul\":20635:20640   */\n      dup4\n        /* \"#utility.yul\":20631:20647   */\n      add\n        /* \"#utility.yul\":20625:20648   */\n      mload\n        /* \"#utility.yul\":20661:20724   */\n      tag_779\n        /* \"#utility.yul\":20718:20722   */\n      0x60\n        /* \"#utility.yul\":20713:20716   */\n      dup7\n        /* \"#utility.yul\":20709:20723   */\n      add\n        /* \"#utility.yul\":20695:20707   */\n      dup3\n        /* \"#utility.yul\":20661:20724   */\n      tag_511\n      jump\t// in\n    tag_779:\n        /* \"#utility.yul\":20567:20734   */\n      pop\n        /* \"#utility.yul\":20824:20828   */\n      0x80\n        /* \"#utility.yul\":20817:20822   */\n      dup4\n        /* \"#utility.yul\":20813:20829   */\n      add\n        /* \"#utility.yul\":20807:20830   */\n      mload\n        /* \"#utility.yul\":20843:20906   */\n      tag_780\n        /* \"#utility.yul\":20900:20904   */\n      0x80\n        /* \"#utility.yul\":20895:20898   */\n      dup7\n        /* \"#utility.yul\":20891:20905   */\n      add\n        /* \"#utility.yul\":20877:20889   */\n      dup3\n        /* \"#utility.yul\":20843:20906   */\n      tag_511\n      jump\t// in\n    tag_780:\n        /* \"#utility.yul\":20744:20916   */\n      pop\n        /* \"#utility.yul\":21003:21007   */\n      0xa0\n        /* \"#utility.yul\":20996:21001   */\n      dup4\n        /* \"#utility.yul\":20992:21008   */\n      add\n        /* \"#utility.yul\":20986:21009   */\n      mload\n        /* \"#utility.yul\":21022:21085   */\n      tag_781\n        /* \"#utility.yul\":21079:21083   */\n      0xa0\n        /* \"#utility.yul\":21074:21077   */\n      dup7\n        /* \"#utility.yul\":21070:21084   */\n      add\n        /* \"#utility.yul\":21056:21068   */\n      dup3\n        /* \"#utility.yul\":21022:21085   */\n      tag_511\n      jump\t// in\n    tag_781:\n        /* \"#utility.yul\":20926:21095   */\n      pop\n        /* \"#utility.yul\":21112:21116   */\n      dup1\n        /* \"#utility.yul\":21105:21116   */\n      swap2\n      pop\n        /* \"#utility.yul\":19919:21122   */\n      pop\n        /* \"#utility.yul\":19811:21122   */\n      swap3\n      swap2\n      pop\n      pop\n      jump\t// out\n        /* \"#utility.yul\":21128:21372   */\n    tag_530:\n        /* \"#utility.yul\":21241:21251   */\n      0x00\n        /* \"#utility.yul\":21276:21366   */\n      tag_783\n        /* \"#utility.yul\":21362:21365   */\n      dup4\n        /* \"#utility.yul\":21354:21360   */\n      dup4\n        /* \"#utility.yul\":21276:21366   */\n      tag_529\n      jump\t// in\n    tag_783:\n        /* \"#utility.yul\":21262:21366   */\n      swap1\n      pop\n        /* \"#utility.yul\":21128:21372   */\n      swap3\n      swap2\n      pop\n      pop\n      jump\t// out\n        /* \"#utility.yul\":21378:21513   */\n    tag_531:\n        /* \"#utility.yul\":21470:21474   */\n      0x00\n        /* \"#utility.yul\":21502:21506   */\n      0x20\n        /* \"#utility.yul\":21497:21500   */\n      dup3\n        /* \"#utility.yul\":21493:21507   */\n      add\n        /* \"#utility.yul\":21485:21507   */\n      swap1\n      pop\n        /* \"#utility.yul\":21378:21513   */\n      swap2\n      swap1\n      pop\n      jump\t// out\n        /* \"#utility.yul\":21579:22666   */\n    tag_532:\n        /* \"#utility.yul\":21742:21745   */\n      0x00\n        /* \"#utility.yul\":21771:21847   */\n      tag_786\n        /* \"#utility.yul\":21841:21846   */\n      dup3\n        /* \"#utility.yul\":21771:21847   */\n      tag_526\n      jump\t// in\n    tag_786:\n        /* \"#utility.yul\":21863:21971   */\n      tag_787\n        /* \"#utility.yul\":21964:21970   */\n      dup2\n        /* \"#utility.yul\":21959:21962   */\n      dup6\n        /* \"#utility.yul\":21863:21971   */\n      tag_527\n      jump\t// in\n    tag_787:\n        /* \"#utility.yul\":21856:21971   */\n      swap4\n      pop\n        /* \"#utility.yul\":21997:22000   */\n      dup4\n        /* \"#utility.yul\":22042:22046   */\n      0x20\n        /* \"#utility.yul\":22034:22040   */\n      dup3\n        /* \"#utility.yul\":22030:22047   */\n      mul\n        /* \"#utility.yul\":22025:22028   */\n      dup6\n        /* \"#utility.yul\":22021:22048   */\n      add\n        /* \"#utility.yul\":22072:22150   */\n      tag_788\n        /* \"#utility.yul\":22144:22149   */\n      dup6\n        /* \"#utility.yul\":22072:22150   */\n      tag_528\n      jump\t// in\n    tag_788:\n        /* \"#utility.yul\":22173:22180   */\n      dup1\n        /* \"#utility.yul\":22204:22205   */\n      0x00\n        /* \"#utility.yul\":22189:22621   */\n    tag_789:\n        /* \"#utility.yul\":22214:22220   */\n      dup6\n        /* \"#utility.yul\":22211:22212   */\n      dup2\n        /* \"#utility.yul\":22208:22221   */\n      lt\n        /* \"#utility.yul\":22189:22621   */\n      iszero\n      tag_791\n      jumpi\n        /* \"#utility.yul\":22285:22294   */\n      dup5\n        /* \"#utility.yul\":22279:22283   */\n      dup5\n        /* \"#utility.yul\":22275:22295   */\n      sub\n        /* \"#utility.yul\":22270:22273   */\n      dup10\n        /* \"#utility.yul\":22263:22296   */\n      mstore\n        /* \"#utility.yul\":22336:22342   */\n      dup2\n        /* \"#utility.yul\":22330:22343   */\n      mload\n        /* \"#utility.yul\":22364:22472   */\n      tag_792\n        /* \"#utility.yul\":22467:22471   */\n      dup6\n        /* \"#utility.yul\":22452:22465   */\n      dup3\n        /* \"#utility.yul\":22364:22472   */\n      tag_530\n      jump\t// in\n    tag_792:\n        /* \"#utility.yul\":22356:22472   */\n      swap5\n      pop\n        /* \"#utility.yul\":22495:22577   */\n      tag_793\n        /* \"#utility.yul\":22570:22576   */\n      dup4\n        /* \"#utility.yul\":22495:22577   */\n      tag_531\n      jump\t// in\n    tag_793:\n        /* \"#utility.yul\":22485:22577   */\n      swap3\n      pop\n        /* \"#utility.yul\":22606:22610   */\n      0x20\n        /* \"#utility.yul\":22601:22604   */\n      dup11\n        /* \"#utility.yul\":22597:22611   */\n      add\n        /* \"#utility.yul\":22590:22611   */\n      swap10\n      pop\n        /* \"#utility.yul\":22249:22621   */\n      pop\n        /* \"#utility.yul\":22236:22237   */\n      0x01\n        /* \"#utility.yul\":22233:22234   */\n      dup2\n        /* \"#utility.yul\":22229:22238   */\n      add\n        /* \"#utility.yul\":22224:22238   */\n      swap1\n      pop\n        /* \"#utility.yul\":22189:22621   */\n      jump(tag_789)\n    tag_791:\n        /* \"#utility.yul\":22193:22207   */\n      pop\n        /* \"#utility.yul\":22637:22641   */\n      dup3\n        /* \"#utility.yul\":22630:22641   */\n      swap8\n      pop\n        /* \"#utility.yul\":22657:22660   */\n      dup8\n        /* \"#utility.yul\":22650:22660   */\n      swap6\n      pop\n        /* \"#utility.yul\":21747:22666   */\n      pop\n      pop\n      pop\n      pop\n      pop\n        /* \"#utility.yul\":21579:22666   */\n      swap3\n      swap2\n      pop\n      pop\n      jump\t// out\n        /* \"#utility.yul\":22672:23353   */\n    tag_129:\n        /* \"#utility.yul\":22915:22919   */\n      0x00\n        /* \"#utility.yul\":22953:22955   */\n      0x60\n        /* \"#utility.yul\":22942:22951   */\n      dup3\n        /* \"#utility.yul\":22938:22956   */\n      add\n        /* \"#utility.yul\":22930:22956   */\n      swap1\n      pop\n        /* \"#utility.yul\":23002:23011   */\n      dup2\n        /* \"#utility.yul\":22996:23000   */\n      dup2\n        /* \"#utility.yul\":22992:23012   */\n      sub\n        /* \"#utility.yul\":22988:22989   */\n      0x00\n        /* \"#utility.yul\":22977:22986   */\n      dup4\n        /* \"#utility.yul\":22973:22990   */\n      add\n        /* \"#utility.yul\":22966:23013   */\n      mstore\n        /* \"#utility.yul\":23030:23182   */\n      tag_795\n        /* \"#utility.yul\":23177:23181   */\n      dup2\n        /* \"#utility.yul\":23168:23174   */\n      dup7\n        /* \"#utility.yul\":23030:23182   */\n      tag_532\n      jump\t// in\n    tag_795:\n        /* \"#utility.yul\":23022:23182   */\n      swap1\n      pop\n        /* \"#utility.yul\":23192:23264   */\n      tag_796\n        /* \"#utility.yul\":23260:23262   */\n      0x20\n        /* \"#utility.yul\":23249:23258   */\n      dup4\n        /* \"#utility.yul\":23245:23263   */\n      add\n        /* \"#utility.yul\":23236:23242   */\n      dup6\n        /* \"#utility.yul\":23192:23264   */\n      tag_499\n      jump\t// in\n    tag_796:\n        /* \"#utility.yul\":23274:23346   */\n      tag_797\n        /* \"#utility.yul\":23342:23344   */\n      0x40\n        /* \"#utility.yul\":23331:23340   */\n      dup4\n        /* \"#utility.yul\":23327:23345   */\n      add\n        /* \"#utility.yul\":23318:23324   */\n      dup5\n        /* \"#utility.yul\":23274:23346   */\n      tag_499\n      jump\t// in\n    tag_797:\n        /* \"#utility.yul\":22672:23353   */\n      swap5\n      swap4\n      pop\n      pop\n      pop\n      pop\n      jump\t// out\n        /* \"#utility.yul\":23359:23497   */\n    tag_533:\n        /* \"#utility.yul\":23450:23456   */\n      0x00\n        /* \"#utility.yul\":23484:23489   */\n      dup2\n        /* \"#utility.yul\":23478:23490   */\n      mload\n        /* \"#utility.yul\":23468:23490   */\n      swap1\n      pop\n        /* \"#utility.yul\":23359:23497   */\n      swap2\n      swap1\n      pop\n      jump\t// out\n        /* \"#utility.yul\":23503:23711   */\n    tag_534:\n        /* \"#utility.yul\":23626:23637   */\n      0x00\n        /* \"#utility.yul\":23660:23666   */\n      dup3\n        /* \"#utility.yul\":23655:23658   */\n      dup3\n        /* \"#utility.yul\":23648:23667   */\n      mstore\n        /* \"#utility.yul\":23700:23704   */\n      0x20\n        /* \"#utility.yul\":23695:23698   */\n      dup3\n        /* \"#utility.yul\":23691:23705   */\n      add\n        /* \"#utility.yul\":23676:23705   */\n      swap1\n      pop\n        /* \"#utility.yul\":23503:23711   */\n      swap3\n      swap2\n      pop\n      pop\n      jump\t// out\n        /* \"#utility.yul\":23717:23873   */\n    tag_535:\n        /* \"#utility.yul\":23808:23812   */\n      0x00\n        /* \"#utility.yul\":23831:23834   */\n      dup2\n        /* \"#utility.yul\":23823:23834   */\n      swap1\n      pop\n        /* \"#utility.yul\":23861:23865   */\n      0x20\n        /* \"#utility.yul\":23856:23859   */\n      dup3\n        /* \"#utility.yul\":23852:23866   */\n      add\n        /* \"#utility.yul\":23844:23866   */\n      swap1\n      pop\n        /* \"#utility.yul\":23717:23873   */\n      swap2\n      swap1\n      pop\n      jump\t// out\n        /* \"#utility.yul\":23939:26124   */\n    tag_536:\n        /* \"#utility.yul\":24046:24049   */\n      0x00\n        /* \"#utility.yul\":24082:24088   */\n      0x0140\n        /* \"#utility.yul\":24077:24080   */\n      dup4\n        /* \"#utility.yul\":24073:24089   */\n      add\n        /* \"#utility.yul\":24169:24173   */\n      0x00\n        /* \"#utility.yul\":24162:24167   */\n      dup4\n        /* \"#utility.yul\":24158:24174   */\n      add\n        /* \"#utility.yul\":24152:24175   */\n      mload\n        /* \"#utility.yul\":24188:24251   */\n      tag_802\n        /* \"#utility.yul\":24245:24249   */\n      0x00\n        /* \"#utility.yul\":24240:24243   */\n      dup7\n        /* \"#utility.yul\":24236:24250   */\n      add\n        /* \"#utility.yul\":24222:24234   */\n      dup3\n        /* \"#utility.yul\":24188:24251   */\n      tag_511\n      jump\t// in\n    tag_802:\n        /* \"#utility.yul\":24099:24261   */\n      pop\n        /* \"#utility.yul\":24344:24348   */\n      0x20\n        /* \"#utility.yul\":24337:24342   */\n      dup4\n        /* \"#utility.yul\":24333:24349   */\n      add\n        /* \"#utility.yul\":24327:24350   */\n      mload\n        /* \"#utility.yul\":24363:24426   */\n      tag_803\n        /* \"#utility.yul\":24420:24424   */\n      0x20\n        /* \"#utility.yul\":24415:24418   */\n      dup7\n        /* \"#utility.yul\":24411:24425   */\n      add\n        /* \"#utility.yul\":24397:24409   */\n      dup3\n        /* \"#utility.yul\":24363:24426   */\n      tag_512\n      jump\t// in\n    tag_803:\n        /* \"#utility.yul\":24271:24436   */\n      pop\n        /* \"#utility.yul\":24526:24530   */\n      0x40\n        /* \"#utility.yul\":24519:24524   */\n      dup4\n        /* \"#utility.yul\":24515:24531   */\n      add\n        /* \"#utility.yul\":24509:24532   */\n      mload\n        /* \"#utility.yul\":24579:24582   */\n      dup5\n        /* \"#utility.yul\":24573:24577   */\n      dup3\n        /* \"#utility.yul\":24569:24583   */\n      sub\n        /* \"#utility.yul\":24562:24566   */\n      0x40\n        /* \"#utility.yul\":24557:24560   */\n      dup7\n        /* \"#utility.yul\":24553:24567   */\n      add\n        /* \"#utility.yul\":24546:24584   */\n      mstore\n        /* \"#utility.yul\":24605:24678   */\n      tag_804\n        /* \"#utility.yul\":24673:24677   */\n      dup3\n        /* \"#utility.yul\":24659:24671   */\n      dup3\n        /* \"#utility.yul\":24605:24678   */\n      tag_514\n      jump\t// in\n    tag_804:\n        /* \"#utility.yul\":24597:24678   */\n      swap2\n      pop\n        /* \"#utility.yul\":24446:24689   */\n      pop\n        /* \"#utility.yul\":24782:24786   */\n      0x60\n        /* \"#utility.yul\":24775:24780   */\n      dup4\n        /* \"#utility.yul\":24771:24787   */\n      add\n        /* \"#utility.yul\":24765:24788   */\n      mload\n        /* \"#utility.yul\":24835:24838   */\n      dup5\n        /* \"#utility.yul\":24829:24833   */\n      dup3\n        /* \"#utility.yul\":24825:24839   */\n      sub\n        /* \"#utility.yul\":24818:24822   */\n      0x60\n        /* \"#utility.yul\":24813:24816   */\n      dup7\n        /* \"#utility.yul\":24809:24823   */\n      add\n        /* \"#utility.yul\":24802:24840   */\n      mstore\n        /* \"#utility.yul\":24861:24934   */\n      tag_805\n        /* \"#utility.yul\":24929:24933   */\n      dup3\n        /* \"#utility.yul\":24915:24927   */\n      dup3\n        /* \"#utility.yul\":24861:24934   */\n      tag_514\n      jump\t// in\n    tag_805:\n        /* \"#utility.yul\":24853:24934   */\n      swap2\n      pop\n        /* \"#utility.yul\":24699:24945   */\n      pop\n        /* \"#utility.yul\":25031:25035   */\n      0x80\n        /* \"#utility.yul\":25024:25029   */\n      dup4\n        /* \"#utility.yul\":25020:25036   */\n      add\n        /* \"#utility.yul\":25014:25037   */\n      mload\n        /* \"#utility.yul\":25084:25087   */\n      dup5\n        /* \"#utility.yul\":25078:25082   */\n      dup3\n        /* \"#utility.yul\":25074:25088   */\n      sub\n        /* \"#utility.yul\":25067:25071   */\n      0x80\n        /* \"#utility.yul\":25062:25065   */\n      dup7\n        /* \"#utility.yul\":25058:25072   */\n      add\n        /* \"#utility.yul\":25051:25089   */\n      mstore\n        /* \"#utility.yul\":25110:25183   */\n      tag_806\n        /* \"#utility.yul\":25178:25182   */\n      dup3\n        /* \"#utility.yul\":25164:25176   */\n      dup3\n        /* \"#utility.yul\":25110:25183   */\n      tag_514\n      jump\t// in\n    tag_806:\n        /* \"#utility.yul\":25102:25183   */\n      swap2\n      pop\n        /* \"#utility.yul\":24955:25194   */\n      pop\n        /* \"#utility.yul\":25284:25288   */\n      0xa0\n        /* \"#utility.yul\":25277:25282   */\n      dup4\n        /* \"#utility.yul\":25273:25289   */\n      add\n        /* \"#utility.yul\":25267:25290   */\n      mload\n        /* \"#utility.yul\":25303:25366   */\n      tag_807\n        /* \"#utility.yul\":25360:25364   */\n      0xa0\n        /* \"#utility.yul\":25355:25358   */\n      dup7\n        /* \"#utility.yul\":25351:25365   */\n      add\n        /* \"#utility.yul\":25337:25349   */\n      dup3\n        /* \"#utility.yul\":25303:25366   */\n      tag_511\n      jump\t// in\n    tag_807:\n        /* \"#utility.yul\":25204:25376   */\n      pop\n        /* \"#utility.yul\":25463:25467   */\n      0xc0\n        /* \"#utility.yul\":25456:25461   */\n      dup4\n        /* \"#utility.yul\":25452:25468   */\n      add\n        /* \"#utility.yul\":25446:25469   */\n      mload\n        /* \"#utility.yul\":25482:25545   */\n      tag_808\n        /* \"#utility.yul\":25539:25543   */\n      0xc0\n        /* \"#utility.yul\":25534:25537   */\n      dup7\n        /* \"#utility.yul\":25530:25544   */\n      add\n        /* \"#utility.yul\":25516:25528   */\n      dup3\n        /* \"#utility.yul\":25482:25545   */\n      tag_511\n      jump\t// in\n    tag_808:\n        /* \"#utility.yul\":25386:25555   */\n      pop\n        /* \"#utility.yul\":25641:25645   */\n      0xe0\n        /* \"#utility.yul\":25634:25639   */\n      dup4\n        /* \"#utility.yul\":25630:25646   */\n      add\n        /* \"#utility.yul\":25624:25647   */\n      mload\n        /* \"#utility.yul\":25660:25723   */\n      tag_809\n        /* \"#utility.yul\":25717:25721   */\n      0xe0\n        /* \"#utility.yul\":25712:25715   */\n      dup7\n        /* \"#utility.yul\":25708:25722   */\n      add\n        /* \"#utility.yul\":25694:25706   */\n      dup3\n        /* \"#utility.yul\":25660:25723   */\n      tag_511\n      jump\t// in\n    tag_809:\n        /* \"#utility.yul\":25565:25733   */\n      pop\n        /* \"#utility.yul\":25819:25825   */\n      0x0100\n        /* \"#utility.yul\":25812:25817   */\n      dup4\n        /* \"#utility.yul\":25808:25826   */\n      add\n        /* \"#utility.yul\":25802:25827   */\n      mload\n        /* \"#utility.yul\":25840:25899   */\n      tag_810\n        /* \"#utility.yul\":25891:25897   */\n      0x0100\n        /* \"#utility.yul\":25886:25889   */\n      dup7\n        /* \"#utility.yul\":25882:25898   */\n      add\n        /* \"#utility.yul\":25868:25880   */\n      dup3\n        /* \"#utility.yul\":25840:25899   */\n      tag_524\n      jump\t// in\n    tag_810:\n        /* \"#utility.yul\":25743:25909   */\n      pop\n        /* \"#utility.yul\":26001:26007   */\n      0x0120\n        /* \"#utility.yul\":25994:25999   */\n      dup4\n        /* \"#utility.yul\":25990:26008   */\n      add\n        /* \"#utility.yul\":25984:26009   */\n      mload\n        /* \"#utility.yul\":26022:26087   */\n      tag_811\n        /* \"#utility.yul\":26079:26085   */\n      0x0120\n        /* \"#utility.yul\":26074:26077   */\n      dup7\n        /* \"#utility.yul\":26070:26086   */\n      add\n        /* \"#utility.yul\":26056:26068   */\n      dup3\n        /* \"#utility.yul\":26022:26087   */\n      tag_511\n      jump\t// in\n    tag_811:\n        /* \"#utility.yul\":25919:26097   */\n      pop\n        /* \"#utility.yul\":26114:26118   */\n      dup1\n        /* \"#utility.yul\":26107:26118   */\n      swap2\n      pop\n        /* \"#utility.yul\":24051:26124   */\n      pop\n        /* \"#utility.yul\":23939:26124   */\n      swap3\n      swap2\n      pop\n      pop\n      jump\t// out\n        /* \"#utility.yul\":26130:26382   */\n    tag_537:\n        /* \"#utility.yul\":26247:26257   */\n      0x00\n        /* \"#utility.yul\":26282:26376   */\n      tag_813\n        /* \"#utility.yul\":26372:26375   */\n      dup4\n        /* \"#utility.yul\":26364:26370   */\n      dup4\n        /* \"#utility.yul\":26282:26376   */\n      tag_536\n      jump\t// in\n    tag_813:\n        /* \"#utility.yul\":26268:26376   */\n      swap1\n      pop\n        /* \"#utility.yul\":26130:26382   */\n      swap3\n      swap2\n      pop\n      pop\n      jump\t// out\n        /* \"#utility.yul\":26388:26525   */\n    tag_538:\n        /* \"#utility.yul\":26482:26486   */\n      0x00\n        /* \"#utility.yul\":26514:26518   */\n      0x20\n        /* \"#utility.yul\":26509:26512   */\n      dup3\n        /* \"#utility.yul\":26505:26519   */\n      add\n        /* \"#utility.yul\":26497:26519   */\n      swap1\n      pop\n        /* \"#utility.yul\":26388:26525   */\n      swap2\n      swap1\n      pop\n      jump\t// out\n        /* \"#utility.yul\":26595:27698   */\n    tag_539:\n        /* \"#utility.yul\":26762:26765   */\n      0x00\n        /* \"#utility.yul\":26791:26869   */\n      tag_816\n        /* \"#utility.yul\":26863:26868   */\n      dup3\n        /* \"#utility.yul\":26791:26869   */\n      tag_533\n      jump\t// in\n    tag_816:\n        /* \"#utility.yul\":26885:26995   */\n      tag_817\n        /* \"#utility.yul\":26988:26994   */\n      dup2\n        /* \"#utility.yul\":26983:26986   */\n      dup6\n        /* \"#utility.yul\":26885:26995   */\n      tag_534\n      jump\t// in\n    tag_817:\n        /* \"#utility.yul\":26878:26995   */\n      swap4\n      pop\n        /* \"#utility.yul\":27021:27024   */\n      dup4\n        /* \"#utility.yul\":27066:27070   */\n      0x20\n        /* \"#utility.yul\":27058:27064   */\n      dup3\n        /* \"#utility.yul\":27054:27071   */\n      mul\n        /* \"#utility.yul\":27049:27052   */\n      dup6\n        /* \"#utility.yul\":27045:27072   */\n      add\n        /* \"#utility.yul\":27096:27176   */\n      tag_818\n        /* \"#utility.yul\":27170:27175   */\n      dup6\n        /* \"#utility.yul\":27096:27176   */\n      tag_535\n      jump\t// in\n    tag_818:\n        /* \"#utility.yul\":27199:27206   */\n      dup1\n        /* \"#utility.yul\":27230:27231   */\n      0x00\n        /* \"#utility.yul\":27215:27653   */\n    tag_819:\n        /* \"#utility.yul\":27240:27246   */\n      dup6\n        /* \"#utility.yul\":27237:27238   */\n      dup2\n        /* \"#utility.yul\":27234:27247   */\n      lt\n        /* \"#utility.yul\":27215:27653   */\n      iszero\n      tag_821\n      jumpi\n        /* \"#utility.yul\":27311:27320   */\n      dup5\n        /* \"#utility.yul\":27305:27309   */\n      dup5\n        /* \"#utility.yul\":27301:27321   */\n      sub\n        /* \"#utility.yul\":27296:27299   */\n      dup10\n        /* \"#utility.yul\":27289:27322   */\n      mstore\n        /* \"#utility.yul\":27362:27368   */\n      dup2\n        /* \"#utility.yul\":27356:27369   */\n      mload\n        /* \"#utility.yul\":27390:27502   */\n      tag_822\n        /* \"#utility.yul\":27497:27501   */\n      dup6\n        /* \"#utility.yul\":27482:27495   */\n      dup3\n        /* \"#utility.yul\":27390:27502   */\n      tag_537\n      jump\t// in\n    tag_822:\n        /* \"#utility.yul\":27382:27502   */\n      swap5\n      pop\n        /* \"#utility.yul\":27525:27609   */\n      tag_823\n        /* \"#utility.yul\":27602:27608   */\n      dup4\n        /* \"#utility.yul\":27525:27609   */\n      tag_538\n      jump\t// in\n    tag_823:\n        /* \"#utility.yul\":27515:27609   */\n      swap3\n      pop\n        /* \"#utility.yul\":27638:27642   */\n      0x20\n        /* \"#utility.yul\":27633:27636   */\n      dup11\n        /* \"#utility.yul\":27629:27643   */\n      add\n        /* \"#utility.yul\":27622:27643   */\n      swap10\n      pop\n        /* \"#utility.yul\":27275:27653   */\n      pop\n        /* \"#utility.yul\":27262:27263   */\n      0x01\n        /* \"#utility.yul\":27259:27260   */\n      dup2\n        /* \"#utility.yul\":27255:27264   */\n      add\n        /* \"#utility.yul\":27250:27264   */\n      swap1\n      pop\n        /* \"#utility.yul\":27215:27653   */\n      jump(tag_819)\n    tag_821:\n        /* \"#utility.yul\":27219:27233   */\n      pop\n        /* \"#utility.yul\":27669:27673   */\n      dup3\n        /* \"#utility.yul\":27662:27673   */\n      swap8\n      pop\n        /* \"#utility.yul\":27689:27692   */\n      dup8\n        /* \"#utility.yul\":27682:27692   */\n      swap6\n      pop\n        /* \"#utility.yul\":26767:27698   */\n      pop\n      pop\n      pop\n      pop\n      pop\n        /* \"#utility.yul\":26595:27698   */\n      swap3\n      swap2\n      pop\n      pop\n      jump\t// out\n        /* \"#utility.yul\":27704:28393   */\n    tag_139:\n        /* \"#utility.yul\":27951:27955   */\n      0x00\n        /* \"#utility.yul\":27989:27991   */\n      0x60\n        /* \"#utility.yul\":27978:27987   */\n      dup3\n        /* \"#utility.yul\":27974:27992   */\n      add\n        /* \"#utility.yul\":27966:27992   */\n      swap1\n      pop\n        /* \"#utility.yul\":28038:28047   */\n      dup2\n        /* \"#utility.yul\":28032:28036   */\n      dup2\n        /* \"#utility.yul\":28028:28048   */\n      sub\n        /* \"#utility.yul\":28024:28025   */\n      0x00\n        /* \"#utility.yul\":28013:28022   */\n      dup4\n        /* \"#utility.yul\":28009:28026   */\n      add\n        /* \"#utility.yul\":28002:28049   */\n      mstore\n        /* \"#utility.yul\":28066:28222   */\n      tag_825\n        /* \"#utility.yul\":28217:28221   */\n      dup2\n        /* \"#utility.yul\":28208:28214   */\n      dup7\n        /* \"#utility.yul\":28066:28222   */\n      tag_539\n      jump\t// in\n    tag_825:\n        /* \"#utility.yul\":28058:28222   */\n      swap1\n      pop\n        /* \"#utility.yul\":28232:28304   */\n      tag_826\n        /* \"#utility.yul\":28300:28302   */\n      0x20\n        /* \"#utility.yul\":28289:28298   */\n      dup4\n        /* \"#utility.yul\":28285:28303   */\n      add\n        /* \"#utility.yul\":28276:28282   */\n      dup6\n        /* \"#utility.yul\":28232:28304   */\n      tag_499\n      jump\t// in\n    tag_826:\n        /* \"#utility.yul\":28314:28386   */\n      tag_827\n        /* \"#utility.yul\":28382:28384   */\n      0x40\n        /* \"#utility.yul\":28371:28380   */\n      dup4\n        /* \"#utility.yul\":28367:28385   */\n      add\n        /* \"#utility.yul\":28358:28364   */\n      dup5\n        /* \"#utility.yul\":28314:28386   */\n      tag_499\n      jump\t// in\n    tag_827:\n        /* \"#utility.yul\":27704:28393   */\n      swap5\n      swap4\n      pop\n      pop\n      pop\n      pop\n      jump\t// out\n        /* \"#utility.yul\":28399:28572   */\n    tag_540:\n        /* \"#utility.yul\":28539:28564   */\n      0x5175657374696f6e20646f6573206e6f74206578697374000000000000000000\n        /* \"#utility.yul\":28535:28536   */\n      0x00\n        /* \"#utility.yul\":28527:28533   */\n      dup3\n        /* \"#utility.yul\":28523:28537   */\n      add\n        /* \"#utility.yul\":28516:28565   */\n      mstore\n        /* \"#utility.yul\":28399:28572   */\n      pop\n      jump\t// out\n        /* \"#utility.yul\":28578:28944   */\n    tag_541:\n        /* \"#utility.yul\":28720:28723   */\n      0x00\n        /* \"#utility.yul\":28741:28808   */\n      tag_830\n        /* \"#utility.yul\":28805:28807   */\n      0x17\n        /* \"#utility.yul\":28800:28803   */\n      dup4\n        /* \"#utility.yul\":28741:28808   */\n      tag_504\n      jump\t// in\n    tag_830:\n        /* \"#utility.yul\":28734:28808   */\n      swap2\n      pop\n        /* \"#utility.yul\":28817:28910   */\n      tag_831\n        /* \"#utility.yul\":28906:28909   */\n      dup3\n        /* \"#utility.yul\":28817:28910   */\n      tag_540\n      jump\t// in\n    tag_831:\n        /* \"#utility.yul\":28935:28937   */\n      0x20\n        /* \"#utility.yul\":28930:28933   */\n      dup3\n        /* \"#utility.yul\":28926:28938   */\n      add\n        /* \"#utility.yul\":28919:28938   */\n      swap1\n      pop\n        /* \"#utility.yul\":28578:28944   */\n      swap2\n      swap1\n      pop\n      jump\t// out\n        /* \"#utility.yul\":28950:29369   */\n    tag_143:\n        /* \"#utility.yul\":29116:29120   */\n      0x00\n        /* \"#utility.yul\":29154:29156   */\n      0x20\n        /* \"#utility.yul\":29143:29152   */\n      dup3\n        /* \"#utility.yul\":29139:29157   */\n      add\n        /* \"#utility.yul\":29131:29157   */\n      swap1\n      pop\n        /* \"#utility.yul\":29203:29212   */\n      dup2\n        /* \"#utility.yul\":29197:29201   */\n      dup2\n        /* \"#utility.yul\":29193:29213   */\n      sub\n        /* \"#utility.yul\":29189:29190   */\n      0x00\n        /* \"#utility.yul\":29178:29187   */\n      dup4\n        /* \"#utility.yul\":29174:29191   */\n      add\n        /* \"#utility.yul\":29167:29214   */\n      mstore\n        /* \"#utility.yul\":29231:29362   */\n      tag_833\n        /* \"#utility.yul\":29357:29361   */\n      dup2\n        /* \"#utility.yul\":29231:29362   */\n      tag_541\n      jump\t// in\n    tag_833:\n        /* \"#utility.yul\":29223:29362   */\n      swap1\n      pop\n        /* \"#utility.yul\":28950:29369   */\n      swap2\n      swap1\n      pop\n      jump\t// out\n        /* \"#utility.yul\":29375:29551   */\n    tag_542:\n        /* \"#utility.yul\":29515:29543   */\n      0x5175657374696f6e20697320616c726561647920636c6f736564000000000000\n        /* \"#utility.yul\":29511:29512   */\n      0x00\n        /* \"#utility.yul\":29503:29509   */\n      dup3\n        /* \"#utility.yul\":29499:29513   */\n      add\n        /* \"#utility.yul\":29492:29544   */\n      mstore\n        /* \"#utility.yul\":29375:29551   */\n      pop\n      jump\t// out\n        /* \"#utility.yul\":29557:29923   */\n    tag_543:\n        /* \"#utility.yul\":29699:29702   */\n      0x00\n        /* \"#utility.yul\":29720:29787   */\n      tag_836\n        /* \"#utility.yul\":29784:29786   */\n      0x1a\n        /* \"#utility.yul\":29779:29782   */\n      dup4\n        /* \"#utility.yul\":29720:29787   */\n      tag_504\n      jump\t// in\n    tag_836:\n        /* \"#utility.yul\":29713:29787   */\n      swap2\n      pop\n        /* \"#utility.yul\":29796:29889   */\n      tag_837\n        /* \"#utility.yul\":29885:29888   */\n      dup3\n        /* \"#utility.yul\":29796:29889   */\n      tag_542\n      jump\t// in\n    tag_837:\n        /* \"#utility.yul\":29914:29916   */\n      0x20\n        /* \"#utility.yul\":29909:29912   */\n      dup3\n        /* \"#utility.yul\":29905:29917   */\n      add\n        /* \"#utility.yul\":29898:29917   */\n      swap1\n      pop\n        /* \"#utility.yul\":29557:29923   */\n      swap2\n      swap1\n      pop\n      jump\t// out\n        /* \"#utility.yul\":29929:30348   */\n    tag_147:\n        /* \"#utility.yul\":30095:30099   */\n      0x00\n        /* \"#utility.yul\":30133:30135   */\n      0x20\n        /* \"#utility.yul\":30122:30131   */\n      dup3\n        /* \"#utility.yul\":30118:30136   */\n      add\n        /* \"#utility.yul\":30110:30136   */\n      swap1\n      pop\n        /* \"#utility.yul\":30182:30191   */\n      dup2\n        /* \"#utility.yul\":30176:30180   */\n      dup2\n        /* \"#utility.yul\":30172:30192   */\n      sub\n        /* \"#utility.yul\":30168:30169   */\n      0x00\n        /* \"#utility.yul\":30157:30166   */\n      dup4\n        /* \"#utility.yul\":30153:30170   */\n      add\n        /* \"#utility.yul\":30146:30193   */\n      mstore\n        /* \"#utility.yul\":30210:30341   */\n      tag_839\n        /* \"#utility.yul\":30336:30340   */\n      dup2\n        /* \"#utility.yul\":30210:30341   */\n      tag_543\n      jump\t// in\n    tag_839:\n        /* \"#utility.yul\":30202:30341   */\n      swap1\n      pop\n        /* \"#utility.yul\":29929:30348   */\n      swap2\n      swap1\n      pop\n      jump\t// out\n        /* \"#utility.yul\":30354:30533   */\n    tag_544:\n        /* \"#utility.yul\":30494:30525   */\n      0x4f6e6c792061736b65722063616e20636c6f7365207175657374696f6e000000\n        /* \"#utility.yul\":30490:30491   */\n      0x00\n        /* \"#utility.yul\":30482:30488   */\n      dup3\n        /* \"#utility.yul\":30478:30492   */\n      add\n        /* \"#utility.yul\":30471:30526   */\n      mstore\n        /* \"#utility.yul\":30354:30533   */\n      pop\n      jump\t// out\n        /* \"#utility.yul\":30539:30905   */\n    tag_545:\n        /* \"#utility.yul\":30681:30684   */\n      0x00\n        /* \"#utility.yul\":30702:30769   */\n      tag_842\n        /* \"#utility.yul\":30766:30768   */\n      0x1d\n        /* \"#utility.yul\":30761:30764   */\n      dup4\n        /* \"#utility.yul\":30702:30769   */\n      tag_504\n      jump\t// in\n    tag_842:\n        /* \"#utility.yul\":30695:30769   */\n      swap2\n      pop\n        /* \"#utility.yul\":30778:30871   */\n      tag_843\n        /* \"#utility.yul\":30867:30870   */\n      dup3\n        /* \"#utility.yul\":30778:30871   */\n      tag_544\n      jump\t// in\n    tag_843:\n        /* \"#utility.yul\":30896:30898   */\n      0x20\n        /* \"#utility.yul\":30891:30894   */\n      dup3\n        /* \"#utility.yul\":30887:30899   */\n      add\n        /* \"#utility.yul\":30880:30899   */\n      swap1\n      pop\n        /* \"#utility.yul\":30539:30905   */\n      swap2\n      swap1\n      pop\n      jump\t// out\n        /* \"#utility.yul\":30911:31330   */\n    tag_151:\n        /* \"#utility.yul\":31077:31081   */\n      0x00\n        /* \"#utility.yul\":31115:31117   */\n      0x20\n        /* \"#utility.yul\":31104:31113   */\n      dup3\n        /* \"#utility.yul\":31100:31118   */\n      add\n        /* \"#utility.yul\":31092:31118   */\n      swap1\n      pop\n        /* \"#utility.yul\":31164:31173   */\n      dup2\n        /* \"#utility.yul\":31158:31162   */\n      dup2\n        /* \"#utility.yul\":31154:31174   */\n      sub\n        /* \"#utility.yul\":31150:31151   */\n      0x00\n        /* \"#utility.yul\":31139:31148   */\n      dup4\n        /* \"#utility.yul\":31135:31152   */\n      add\n        /* \"#utility.yul\":31128:31175   */\n      mstore\n        /* \"#utility.yul\":31192:31323   */\n      tag_845\n        /* \"#utility.yul\":31318:31322   */\n      dup2\n        /* \"#utility.yul\":31192:31323   */\n      tag_545\n      jump\t// in\n    tag_845:\n        /* \"#utility.yul\":31184:31323   */\n      swap1\n      pop\n        /* \"#utility.yul\":30911:31330   */\n      swap2\n      swap1\n      pop\n      jump\t// out\n        /* \"#utility.yul\":31336:31668   */\n    tag_153:\n        /* \"#utility.yul\":31457:31461   */\n      0x00\n        /* \"#utility.yul\":31495:31497   */\n      0x40\n        /* \"#utility.yul\":31484:31493   */\n      dup3\n        /* \"#utility.yul\":31480:31498   */\n      add\n        /* \"#utility.yul\":31472:31498   */\n      swap1\n      pop\n        /* \"#utility.yul\":31508:31579   */\n      tag_847\n        /* \"#utility.yul\":31576:31577   */\n      0x00\n        /* \"#utility.yul\":31565:31574   */\n      dup4\n        /* \"#utility.yul\":31561:31578   */\n      add\n        /* \"#utility.yul\":31552:31558   */\n      dup6\n        /* \"#utility.yul\":31508:31579   */\n      tag_499\n      jump\t// in\n    tag_847:\n        /* \"#utility.yul\":31589:31661   */\n      tag_848\n        /* \"#utility.yul\":31657:31659   */\n      0x20\n        /* \"#utility.yul\":31646:31655   */\n      dup4\n        /* \"#utility.yul\":31642:31660   */\n      add\n        /* \"#utility.yul\":31633:31639   */\n      dup5\n        /* \"#utility.yul\":31589:31661   */\n      tag_499\n      jump\t// in\n    tag_848:\n        /* \"#utility.yul\":31336:31668   */\n      swap4\n      swap3\n      pop\n      pop\n      pop\n      jump\t// out\n        /* \"#utility.yul\":31674:31854   */\n    tag_546:\n        /* \"#utility.yul\":31722:31799   */\n      0x4e487b7100000000000000000000000000000000000000000000000000000000\n        /* \"#utility.yul\":31719:31720   */\n      0x00\n        /* \"#utility.yul\":31712:31800   */\n      mstore\n        /* \"#utility.yul\":31819:31823   */\n      0x22\n        /* \"#utility.yul\":31816:31817   */\n      0x04\n        /* \"#utility.yul\":31809:31824   */\n      mstore\n        /* \"#utility.yul\":31843:31847   */\n      0x24\n        /* \"#utility.yul\":31840:31841   */\n      0x00\n        /* \"#utility.yul\":31833:31848   */\n      revert\n        /* \"#utility.yul\":31860:32180   */\n    tag_162:\n        /* \"#utility.yul\":31904:31910   */\n      0x00\n        /* \"#utility.yul\":31941:31942   */\n      0x02\n        /* \"#utility.yul\":31935:31939   */\n      dup3\n        /* \"#utility.yul\":31931:31943   */\n      div\n        /* \"#utility.yul\":31921:31943   */\n      swap1\n      pop\n        /* \"#utility.yul\":31988:31989   */\n      0x01\n        /* \"#utility.yul\":31982:31986   */\n      dup3\n        /* \"#utility.yul\":31978:31990   */\n      and\n        /* \"#utility.yul\":32009:32027   */\n      dup1\n        /* \"#utility.yul\":31999:32080   */\n      tag_851\n      jumpi\n        /* \"#utility.yul\":32065:32069   */\n      0x7f\n        /* \"#utility.yul\":32057:32063   */\n      dup3\n        /* \"#utility.yul\":32053:32070   */\n      and\n        /* \"#utility.yul\":32043:32070   */\n      swap2\n      pop\n        /* \"#utility.yul\":31999:32080   */\n    tag_851:\n        /* \"#utility.yul\":32127:32129   */\n      0x20\n        /* \"#utility.yul\":32119:32125   */\n      dup3\n        /* \"#utility.yul\":32116:32130   */\n      lt\n        /* \"#utility.yul\":32096:32114   */\n      dup2\n        /* \"#utility.yul\":32093:32131   */\n      sub\n        /* \"#utility.yul\":32090:32174   */\n      tag_852\n      jumpi\n        /* \"#utility.yul\":32146:32164   */\n      tag_853\n      tag_546\n      jump\t// in\n    tag_853:\n        /* \"#utility.yul\":32090:32174   */\n    tag_852:\n        /* \"#utility.yul\":31911:32180   */\n      pop\n        /* \"#utility.yul\":31860:32180   */\n      swap2\n      swap1\n      pop\n      jump\t// out\n        /* \"#utility.yul\":32186:32364   */\n    tag_547:\n        /* \"#utility.yul\":32326:32356   */\n      0x5175657374696f6e20646561646c696e65206861732070617373656400000000\n        /* \"#utility.yul\":32322:32323   */\n      0x00\n        /* \"#utility.yul\":32314:32320   */\n      dup3\n        /* \"#utility.yul\":32310:32324   */\n      add\n        /* \"#utility.yul\":32303:32357   */\n      mstore\n        /* \"#utility.yul\":32186:32364   */\n      pop\n      jump\t// out\n        /* \"#utility.yul\":32370:32736   */\n    tag_548:\n        /* \"#utility.yul\":32512:32515   */\n      0x00\n        /* \"#utility.yul\":32533:32600   */\n      tag_856\n        /* \"#utility.yul\":32597:32599   */\n      0x1c\n        /* \"#utility.yul\":32592:32595   */\n      dup4\n        /* \"#utility.yul\":32533:32600   */\n      tag_504\n      jump\t// in\n    tag_856:\n        /* \"#utility.yul\":32526:32600   */\n      swap2\n      pop\n        /* \"#utility.yul\":32609:32702   */\n      tag_857\n        /* \"#utility.yul\":32698:32701   */\n      dup3\n        /* \"#utility.yul\":32609:32702   */\n      tag_547\n      jump\t// in\n    tag_857:\n        /* \"#utility.yul\":32727:32729   */\n      0x20\n        /* \"#utility.yul\":32722:32725   */\n      dup3\n        /* \"#utility.yul\":32718:32730   */\n      add\n        /* \"#utility.yul\":32711:32730   */\n      swap1\n      pop\n        /* \"#utility.yul\":32370:32736   */\n      swap2\n      swap1\n      pop\n      jump\t// out\n        /* \"#utility.yul\":32742:33161   */\n    tag_179:\n        /* \"#utility.yul\":32908:32912   */\n      0x00\n        /* \"#utility.yul\":32946:32948   */\n      0x20\n        /* \"#utility.yul\":32935:32944   */\n      dup3\n        /* \"#utility.yul\":32931:32949   */\n      add\n        /* \"#utility.yul\":32923:32949   */\n      swap1\n      pop\n        /* \"#utility.yul\":32995:33004   */\n      dup2\n        /* \"#utility.yul\":32989:32993   */\n      dup2\n        /* \"#utility.yul\":32985:33005   */\n      sub\n        /* \"#utility.yul\":32981:32982   */\n      0x00\n        /* \"#utility.yul\":32970:32979   */\n      dup4\n        /* \"#utility.yul\":32966:32983   */\n      add\n        /* \"#utility.yul\":32959:33006   */\n      mstore\n        /* \"#utility.yul\":33023:33154   */\n      tag_859\n        /* \"#utility.yul\":33149:33153   */\n      dup2\n        /* \"#utility.yul\":33023:33154   */\n      tag_548\n      jump\t// in\n    tag_859:\n        /* \"#utility.yul\":33015:33154   */\n      swap1\n      pop\n        /* \"#utility.yul\":32742:33161   */\n      swap2\n      swap1\n      pop\n      jump\t// out\n        /* \"#utility.yul\":33167:33347   */\n    tag_549:\n        /* \"#utility.yul\":33215:33292   */\n      0x4e487b7100000000000000000000000000000000000000000000000000000000\n        /* \"#utility.yul\":33212:33213   */\n      0x00\n        /* \"#utility.yul\":33205:33293   */\n      mstore\n        /* \"#utility.yul\":33312:33316   */\n      0x11\n        /* \"#utility.yul\":33309:33310   */\n      0x04\n        /* \"#utility.yul\":33302:33317   */\n      mstore\n        /* \"#utility.yul\":33336:33340   */\n      0x24\n        /* \"#utility.yul\":33333:33334   */\n      0x00\n        /* \"#utility.yul\":33326:33341   */\n      revert\n        /* \"#utility.yul\":33353:33586   */\n    tag_181:\n        /* \"#utility.yul\":33392:33395   */\n      0x00\n        /* \"#utility.yul\":33415:33439   */\n      tag_862\n        /* \"#utility.yul\":33433:33438   */\n      dup3\n        /* \"#utility.yul\":33415:33439   */\n      tag_487\n      jump\t// in\n    tag_862:\n        /* \"#utility.yul\":33406:33439   */\n      swap2\n      pop\n        /* \"#utility.yul\":33461:33527   */\n      0xffffffffffffffffffffffffffffffffffffffffffffffffffffffffffffffff\n        /* \"#utility.yul\":33454:33459   */\n      dup3\n        /* \"#utility.yul\":33451:33528   */\n      sub\n        /* \"#utility.yul\":33448:33551   */\n      tag_863\n      jumpi\n        /* \"#utility.yul\":33531:33549   */\n      tag_864\n      tag_549\n      jump\t// in\n    tag_864:\n        /* \"#utility.yul\":33448:33551   */\n    tag_863:\n        /* \"#utility.yul\":33578:33579   */\n      0x01\n        /* \"#utility.yul\":33571:33576   */\n      dup3\n        /* \"#utility.yul\":33567:33580   */\n      add\n        /* \"#utility.yul\":33560:33580   */\n      swap1\n      pop\n        /* \"#utility.yul\":33353:33586   */\n      swap2\n      swap1\n      pop\n      jump\t// out\n        /* \"#utility.yul\":33592:33733   */\n    tag_550:\n        /* \"#utility.yul\":33641:33645   */\n      0x00\n        /* \"#utility.yul\":33664:33667   */\n      dup2\n        /* \"#utility.yul\":33656:33667   */\n      swap1\n      pop\n        /* \"#utility.yul\":33687:33690   */\n      dup2\n        /* \"#utility.yul\":33684:33685   */\n      0x00\n        /* \"#utility.yul\":33677:33691   */\n      mstore\n        /* \"#utility.yul\":33721:33725   */\n      0x20\n        /* \"#utility.yul\":33718:33719   */\n      0x00\n        /* \"#utility.yul\":33708:33726   */\n      keccak256\n        /* \"#utility.yul\":33700:33726   */\n      swap1\n      pop\n        /* \"#utility.yul\":33592:33733   */\n      swap2\n      swap1\n      pop\n      jump\t// out\n        /* \"#utility.yul\":33739:33832   */\n    tag_551:\n        /* \"#utility.yul\":33776:33782   */\n      0x00\n        /* \"#utility.yul\":33823:33825   */\n      0x20\n        /* \"#utility.yul\":33818:33820   */\n      0x1f\n        /* \"#utility.yul\":33811:33816   */\n      dup4\n        /* \"#utility.yul\":33807:33821   */\n      add\n        /* \"#utility.yul\":33803:33826   */\n      div\n        /* \"#utility.yul\":33793:33826   */\n      swap1\n      pop\n        /* \"#utility.yul\":33739:33832   */\n      swap2\n      swap1\n      pop\n      jump\t// out\n        /* \"#utility.yul\":33838:33945   */\n    tag_552:\n        /* \"#utility.yul\":33882:33890   */\n      0x00\n        /* \"#utility.yul\":33932:33937   */\n      dup3\n        /* \"#utility.yul\":33926:33930   */\n      dup3\n        /* \"#utility.yul\":33922:33938   */\n      shl\n        /* \"#utility.yul\":33901:33938   */\n      swap1\n      pop\n        /* \"#utility.yul\":33838:33945   */\n      swap3\n      swap2\n      pop\n      pop\n      jump\t// out\n        /* \"#utility.yul\":33951:34344   */\n    tag_553:\n        /* \"#utility.yul\":34020:34026   */\n      0x00\n        /* \"#utility.yul\":34070:34071   */\n      0x08\n        /* \"#utility.yul\":34058:34068   */\n      dup4\n        /* \"#utility.yul\":34054:34072   */\n      mul\n        /* \"#utility.yul\":34093:34190   */\n      tag_869\n        /* \"#utility.yul\":34123:34189   */\n      0xffffffffffffffffffffffffffffffffffffffffffffffffffffffffffffffff\n        /* \"#utility.yul\":34112:34121   */\n      dup3\n        /* \"#utility.yul\":34093:34190   */\n      tag_552\n      jump\t// in\n    tag_869:\n        /* \"#utility.yul\":34211:34250   */\n      tag_870\n        /* \"#utility.yul\":34241:34249   */\n      dup7\n        /* \"#utility.yul\":34230:34239   */\n      dup4\n        /* \"#utility.yul\":34211:34250   */\n      tag_552\n      jump\t// in\n    tag_870:\n        /* \"#utility.yul\":34199:34250   */\n      swap6\n      pop\n        /* \"#utility.yul\":34283:34287   */\n      dup1\n        /* \"#utility.yul\":34279:34288   */\n      not\n        /* \"#utility.yul\":34272:34277   */\n      dup5\n        /* \"#utility.yul\":34268:34289   */\n      and\n        /* \"#utility.yul\":34259:34289   */\n      swap4\n      pop\n        /* \"#utility.yul\":34332:34336   */\n      dup1\n        /* \"#utility.yul\":34322:34330   */\n      dup7\n        /* \"#utility.yul\":34318:34337   */\n      and\n        /* \"#utility.yul\":34311:34316   */\n      dup5\n        /* \"#utility.yul\":34308:34338   */\n      or\n        /* \"#utility.yul\":34298:34338   */\n      swap3\n      pop\n        /* \"#utility.yul\":34027:34344   */\n      pop\n      pop\n        /* \"#utility.yul\":33951:34344   */\n      swap4\n      swap3\n      pop\n      pop\n      pop\n      jump\t// out\n        /* \"#utility.yul\":34350:34410   */\n    tag_554:\n        /* \"#utility.yul\":34378:34381   */\n      0x00\n        /* \"#utility.yul\":34399:34404   */\n      dup2\n        /* \"#utility.yul\":34392:34404   */\n      swap1\n      pop\n        /* \"#utility.yul\":34350:34410   */\n      swap2\n      swap1\n      pop\n      jump\t// out\n        /* \"#utility.yul\":34416:34558   */\n    tag_555:\n        /* \"#utility.yul\":34466:34475   */\n      0x00\n        /* \"#utility.yul\":34499:34552   */\n      tag_873\n        /* \"#utility.yul\":34517:34551   */\n      tag_874\n        /* \"#utility.yul\":34526:34550   */\n      tag_875\n        /* \"#utility.yul\":34544:34549   */\n      dup5\n        /* \"#utility.yul\":34526:34550   */\n      tag_487\n      jump\t// in\n    tag_875:\n        /* \"#utility.yul\":34517:34551   */\n      tag_554\n      jump\t// in\n    tag_874:\n        /* \"#utility.yul\":34499:34552   */\n      tag_487\n      jump\t// in\n    tag_873:\n        /* \"#utility.yul\":34486:34552   */\n      swap1\n      pop\n        /* \"#utility.yul\":34416:34558   */\n      swap2\n      swap1\n      pop\n      jump\t// out\n        /* \"#utility.yul\":34564:34639   */\n    tag_556:\n        /* \"#utility.yul\":34607:34610   */\n      0x00\n        /* \"#utility.yul\":34628:34633   */\n      dup2\n        /* \"#utility.yul\":34621:34633   */\n      swap1\n      pop\n        /* \"#utility.yul\":34564:34639   */\n      swap2\n      swap1\n      pop\n      jump\t// out\n        /* \"#utility.yul\":34645:34914   */\n    tag_557:\n        /* \"#utility.yul\":34755:34794   */\n      tag_878\n        /* \"#utility.yul\":34786:34793   */\n      dup4\n        /* \"#utility.yul\":34755:34794   */\n      tag_555\n      jump\t// in\n    tag_878:\n        /* \"#utility.yul\":34816:34907   */\n      tag_879\n        /* \"#utility.yul\":34865:34906   */\n      tag_880\n        /* \"#utility.yul\":34889:34905   */\n      dup3\n        /* \"#utility.yul\":34865:34906   */\n      tag_556\n      jump\t// in\n    tag_880:\n        /* \"#utility.yul\":34857:34863   */\n      dup5\n        /* \"#utility.yul\":34850:34854   */\n      dup5\n        /* \"#utility.yul\":34844:34855   */\n      sload\n        /* \"#utility.yul\":34816:34907   */\n      tag_553\n      jump\t// in\n    tag_879:\n        /* \"#utility.yul\":34810:34814   */\n      dup3\n        /* \"#utility.yul\":34803:34908   */\n      sstore\n        /* \"#utility.yul\":34721:34914   */\n      pop\n        /* \"#utility.yul\":34645:34914   */\n      pop\n      pop\n      pop\n      jump\t// out\n        /* \"#utility.yul\":34920:34993   */\n    tag_558:\n        /* \"#utility.yul\":34965:34968   */\n      0x00\n        /* \"#utility.yul\":34920:34993   */\n      swap1\n      jump\t// out\n        /* \"#utility.yul\":34999:35188   */\n    tag_559:\n        /* \"#utility.yul\":35076:35108   */\n      tag_883\n      tag_558\n      jump\t// in\n    tag_883:\n        /* \"#utility.yul\":35117:35182   */\n      tag_884\n        /* \"#utility.yul\":35175:35181   */\n      dup2\n        /* \"#utility.yul\":35167:35173   */\n      dup5\n        /* \"#utility.yul\":35161:35165   */\n      dup5\n        /* \"#utility.yul\":35117:35182   */\n      tag_557\n      jump\t// in\n    tag_884:\n        /* \"#utility.yul\":35052:35188   */\n      pop\n        /* \"#utility.yul\":34999:35188   */\n      pop\n      pop\n      jump\t// out\n        /* \"#utility.yul\":35194:35380   */\n    tag_560:\n        /* \"#utility.yul\":35254:35374   */\n    tag_886:\n        /* \"#utility.yul\":35271:35274   */\n      dup2\n        /* \"#utility.yul\":35264:35269   */\n      dup2\n        /* \"#utility.yul\":35261:35275   */\n      lt\n        /* \"#utility.yul\":35254:35374   */\n      iszero\n      tag_888\n      jumpi\n        /* \"#utility.yul\":35325:35364   */\n      tag_889\n        /* \"#utility.yul\":35362:35363   */\n      0x00\n        /* \"#utility.yul\":35355:35360   */\n      dup3\n        /* \"#utility.yul\":35325:35364   */\n      tag_559\n      jump\t// in\n    tag_889:\n        /* \"#utility.yul\":35298:35299   */\n      0x01\n        /* \"#utility.yul\":35291:35296   */\n      dup2\n        /* \"#utility.yul\":35287:35300   */\n      add\n        /* \"#utility.yul\":35278:35300   */\n      swap1\n      pop\n        /* \"#utility.yul\":35254:35374   */\n      jump(tag_886)\n    tag_888:\n        /* \"#utility.yul\":35194:35380   */\n      pop\n      pop\n      jump\t// out\n        /* \"#utility.yul\":35386:35929   */\n    tag_561:\n        /* \"#utility.yul\":35487:35489   */\n      0x1f\n        /* \"#utility.yul\":35482:35485   */\n      dup3\n        /* \"#utility.yul\":35479:35490   */\n      gt\n        /* \"#utility.yul\":35476:35922   */\n      iszero\n      tag_891\n      jumpi\n        /* \"#utility.yul\":35521:35559   */\n      tag_892\n        /* \"#utility.yul\":35553:35558   */\n      dup2\n        /* \"#utility.yul\":35521:35559   */\n      tag_550\n      jump\t// in\n    tag_892:\n        /* \"#utility.yul\":35605:35634   */\n      tag_893\n        /* \"#utility.yul\":35623:35633   */\n      dup5\n        /* \"#utility.yul\":35605:35634   */\n      tag_551\n      jump\t// in\n    tag_893:\n        /* \"#utility.yul\":35595:35603   */\n      dup2\n        /* \"#utility.yul\":35591:35635   */\n      add\n        /* \"#utility.yul\":35788:35790   */\n      0x20\n        /* \"#utility.yul\":35776:35786   */\n      dup6\n        /* \"#utility.yul\":35773:35791   */\n      lt\n        /* \"#utility.yul\":35770:35819   */\n      iszero\n      tag_894\n      jumpi\n        /* \"#utility.yul\":35809:35817   */\n      dup2\n        /* \"#utility.yul\":35794:35817   */\n      swap1\n      pop\n        /* \"#utility.yul\":35770:35819   */\n    tag_894:\n        /* \"#utility.yul\":35832:35912   */\n      tag_895\n        /* \"#utility.yul\":35888:35910   */\n      tag_896\n        /* \"#utility.yul\":35906:35909   */\n      dup6\n        /* \"#utility.yul\":35888:35910   */\n      tag_551\n      jump\t// in\n    tag_896:\n        /* \"#utility.yul\":35878:35886   */\n      dup4\n        /* \"#utility.yul\":35874:35911   */\n      add\n        /* \"#utility.yul\":35861:35872   */\n      dup3\n        /* \"#utility.yul\":35832:35912   */\n      tag_560\n      jump\t// in\n    tag_895:\n        /* \"#utility.yul\":35491:35922   */\n      pop\n      pop\n        /* \"#utility.yul\":35476:35922   */\n    tag_891:\n        /* \"#utility.yul\":35386:35929   */\n      pop\n      pop\n      pop\n      jump\t// out\n        /* \"#utility.yul\":35935:36052   */\n    tag_562:\n        /* \"#utility.yul\":35989:35997   */\n      0x00\n        /* \"#utility.yul\":36039:36044   */\n      dup3\n        /* \"#utility.yul\":36033:36037   */\n      dup3\n        /* \"#utility.yul\":36029:36045   */\n      shr\n        /* \"#utility.yul\":36008:36045   */\n      swap1\n      pop\n        /* \"#utility.yul\":35935:36052   */\n      swap3\n      swap2\n      pop\n      pop\n      jump\t// out\n        /* \"#utility.yul\":36058:36227   */\n    tag_563:\n        /* \"#utility.yul\":36102:36108   */\n      0x00\n        /* \"#utility.yul\":36135:36186   */\n      tag_899\n        /* \"#utility.yul\":36183:36184   */\n      0x00\n        /* \"#utility.yul\":36179:36185   */\n      not\n        /* \"#utility.yul\":36171:36176   */\n      dup5\n        /* \"#utility.yul\":36168:36169   */\n      0x08\n        /* \"#utility.yul\":36164:36177   */\n      mul\n        /* \"#utility.yul\":36135:36186   */\n      tag_562\n      jump\t// in\n    tag_899:\n        /* \"#utility.yul\":36131:36187   */\n      not\n        /* \"#utility.yul\":36216:36220   */\n      dup1\n        /* \"#utility.yul\":36210:36214   */\n      dup4\n        /* \"#utility.yul\":36206:36221   */\n      and\n        /* \"#utility.yul\":36196:36221   */\n      swap2\n      pop\n        /* \"#utility.yul\":36109:36227   */\n      pop\n        /* \"#utility.yul\":36058:36227   */\n      swap3\n      swap2\n      pop\n      pop\n      jump\t// out\n        /* \"#utility.yul\":36232:36527   */\n    tag_564:\n        /* \"#utility.yul\":36308:36312   */\n      0x00\n        /* \"#utility.yul\":36454:36483   */\n      tag_901\n        /* \"#utility.yul\":36479:36482   */\n      dup4\n        /* \"#utility.yul\":36473:36477   */\n      dup4\n        /* \"#utility.yul\":36454:36483   */\n      tag_563\n      jump\t// in\n    tag_901:\n        /* \"#utility.yul\":36446:36483   */\n      swap2\n      pop\n        /* \"#utility.yul\":36516:36519   */\n      dup3\n        /* \"#utility.yul\":36513:36514   */\n      0x02\n        /* \"#utility.yul\":36509:36520   */\n      mul\n        /* \"#utility.yul\":36503:36507   */\n      dup3\n        /* \"#utility.yul\":36500:36521   */\n      or\n        /* \"#utility.yul\":36492:36521   */\n      swap1\n      pop\n        /* \"#utility.yul\":36232:36527   */\n      swap3\n      swap2\n      pop\n      pop\n      jump\t// out\n        /* \"#utility.yul\":36532:37927   */\n    tag_183:\n        /* \"#utility.yul\":36649:36686   */\n      tag_903\n        /* \"#utility.yul\":36682:36685   */\n      dup3\n        /* \"#utility.yul\":36649:36686   */\n      tag_503\n      jump\t// in\n    tag_903:\n        /* \"#utility.yul\":36751:36769   */\n      0xffffffffffffffff\n        /* \"#utility.yul\":36743:36749   */\n      dup2\n        /* \"#utility.yul\":36740:36770   */\n      gt\n        /* \"#utility.yul\":36737:36793   */\n      iszero\n      tag_904\n      jumpi\n        /* \"#utility.yul\":36773:36791   */\n      tag_905\n      tag_258\n      jump\t// in\n    tag_905:\n        /* \"#utility.yul\":36737:36793   */\n    tag_904:\n        /* \"#utility.yul\":36817:36855   */\n      tag_906\n        /* \"#utility.yul\":36849:36853   */\n      dup3\n        /* \"#utility.yul\":36843:36854   */\n      sload\n        /* \"#utility.yul\":36817:36855   */\n      tag_162\n      jump\t// in\n    tag_906:\n        /* \"#utility.yul\":36902:36969   */\n      tag_907\n        /* \"#utility.yul\":36962:36968   */\n      dup3\n        /* \"#utility.yul\":36954:36960   */\n      dup3\n        /* \"#utility.yul\":36948:36952   */\n      dup6\n        /* \"#utility.yul\":36902:36969   */\n      tag_561\n      jump\t// in\n    tag_907:\n        /* \"#utility.yul\":36996:36997   */\n      0x00\n        /* \"#utility.yul\":37020:37024   */\n      0x20\n        /* \"#utility.yul\":37007:37024   */\n      swap1\n      pop\n        /* \"#utility.yul\":37052:37054   */\n      0x1f\n        /* \"#utility.yul\":37044:37050   */\n      dup4\n        /* \"#utility.yul\":37041:37055   */\n      gt\n        /* \"#utility.yul\":37069:37070   */\n      0x01\n        /* \"#utility.yul\":37064:37682   */\n      dup2\n      eq\n      tag_909\n      jumpi\n        /* \"#utility.yul\":37726:37727   */\n      0x00\n        /* \"#utility.yul\":37743:37749   */\n      dup5\n        /* \"#utility.yul\":37740:37817   */\n      iszero\n      tag_910\n      jumpi\n        /* \"#utility.yul\":37792:37801   */\n      dup3\n        /* \"#utility.yul\":37787:37790   */\n      dup8\n        /* \"#utility.yul\":37783:37802   */\n      add\n        /* \"#utility.yul\":37777:37803   */\n      mload\n        /* \"#utility.yul\":37768:37803   */\n      swap1\n      pop\n        /* \"#utility.yul\":37740:37817   */\n    tag_910:\n        /* \"#utility.yul\":37843:37910   */\n      tag_911\n        /* \"#utility.yul\":37903:37909   */\n      dup6\n        /* \"#utility.yul\":37896:37901   */\n      dup3\n        /* \"#utility.yul\":37843:37910   */\n      tag_564\n      jump\t// in\n    tag_911:\n        /* \"#utility.yul\":37837:37841   */\n      dup7\n        /* \"#utility.yul\":37830:37911   */\n      sstore\n        /* \"#utility.yul\":37699:37921   */\n      pop\n        /* \"#utility.yul\":37034:37921   */\n      jump(tag_908)\n        /* \"#utility.yul\":37064:37682   */\n    tag_909:\n        /* \"#utility.yul\":37116:37120   */\n      0x1f\n        /* \"#utility.yul\":37112:37121   */\n      not\n        /* \"#utility.yul\":37104:37110   */\n      dup5\n        /* \"#utility.yul\":37100:37122   */\n      and\n        /* \"#utility.yul\":37150:37187   */\n      tag_912\n        /* \"#utility.yul\":37182:37186   */\n      dup7\n        /* \"#utility.yul\":37150:37187   */\n      tag_550\n      jump\t// in\n    tag_912:\n        /* \"#utility.yul\":37209:37210   */\n      0x00\n        /* \"#utility.yul\":37223:37431   */\n    tag_913:\n        /* \"#utility.yul\":37237:37244   */\n      dup3\n        /* \"#utility.yul\":37234:37235   */\n      dup2\n        /* \"#utility.yul\":37231:37245   */\n      lt\n        /* \"#utility.yul\":37223:37431   */\n      iszero\n      tag_915\n      jumpi\n        /* \"#utility.yul\":37316:37325   */\n      dup5\n        /* \"#utility.yul\":37311:37314   */\n      dup10\n        /* \"#utility.yul\":37307:37326   */\n      add\n        /* \"#utility.yul\":37301:37327   */\n      mload\n        /* \"#utility.yul\":37293:37299   */\n      dup3\n        /* \"#utility.yul\":37286:37328   */\n      sstore\n        /* \"#utility.yul\":37367:37368   */\n      0x01\n        /* \"#utility.yul\":37359:37365   */\n      dup3\n        /* \"#utility.yul\":37355:37369   */\n      add\n        /* \"#utility.yul\":37345:37369   */\n      swap2\n      pop\n        /* \"#utility.yul\":37414:37416   */\n      0x20\n        /* \"#utility.yul\":37403:37412   */\n      dup6\n        /* \"#utility.yul\":37399:37417   */\n      add\n        /* \"#utility.yul\":37386:37417   */\n      swap5\n      pop\n        /* \"#utility.yul\":37260:37264   */\n      0x20\n        /* \"#utility.yul\":37257:37258   */\n      dup2\n        /* \"#utility.yul\":37253:37265   */\n      add\n        /* \"#utility.yul\":37248:37265   */\n      swap1\n      pop\n        /* \"#utility.yul\":37223:37431   */\n      jump(tag_913)\n    tag_915:\n        /* \"#utility.yul\":37459:37465   */\n      dup7\n        /* \"#utility.yul\":37450:37457   */\n      dup4\n        /* \"#utility.yul\":37447:37466   */\n      lt\n        /* \"#utility.yul\":37444:37623   */\n      iszero\n      tag_916\n      jumpi\n        /* \"#utility.yul\":37517:37526   */\n      dup5\n        /* \"#utility.yul\":37512:37515   */\n      dup10\n        /* \"#utility.yul\":37508:37527   */\n      add\n        /* \"#utility.yul\":37502:37528   */\n      mload\n        /* \"#utility.yul\":37560:37608   */\n      tag_917\n        /* \"#utility.yul\":37602:37606   */\n      0x1f\n        /* \"#utility.yul\":37594:37600   */\n      dup10\n        /* \"#utility.yul\":37590:37607   */\n      and\n        /* \"#utility.yul\":37579:37588   */\n      dup3\n        /* \"#utility.yul\":37560:37608   */\n      tag_563\n      jump\t// in\n    tag_917:\n        /* \"#utility.yul\":37552:37558   */\n      dup4\n        /* \"#utility.yul\":37545:37609   */\n      sstore\n        /* \"#utility.yul\":37467:37623   */\n      pop\n        /* \"#utility.yul\":37444:37623   */\n    tag_916:\n        /* \"#utility.yul\":37669:37670   */\n      0x01\n        /* \"#utility.yul\":37665:37666   */\n      0x02\n        /* \"#utility.yul\":37657:37663   */\n      dup9\n        /* \"#utility.yul\":37653:37667   */\n      mul\n        /* \"#utility.yul\":37649:37671   */\n      add\n        /* \"#utility.yul\":37643:37647   */\n      dup9\n        /* \"#utility.yul\":37636:37672   */\n      sstore\n        /* \"#utility.yul\":37071:37682   */\n      pop\n      pop\n      pop\n        /* \"#utility.yul\":37034:37921   */\n    tag_908:\n      pop\n        /* \"#utility.yul\":36624:37927   */\n      pop\n      pop\n      pop\n        /* \"#utility.yul\":36532:37927   */\n      pop\n      pop\n      jump\t// out\n        /* \"#utility.yul\":37933:38466   */\n    tag_185:\n        /* \"#utility.yul\":38102:38106   */\n      0x00\n        /* \"#utility.yul\":38140:38142   */\n      0x60\n        /* \"#utility.yul\":38129:38138   */\n      dup3\n        /* \"#utility.yul\":38125:38143   */\n      add\n        /* \"#utility.yul\":38117:38143   */\n      swap1\n      pop\n        /* \"#utility.yul\":38153:38224   */\n      tag_919\n        /* \"#utility.yul\":38221:38222   */\n      0x00\n        /* \"#utility.yul\":38210:38219   */\n      dup4\n        /* \"#utility.yul\":38206:38223   */\n      add\n        /* \"#utility.yul\":38197:38203   */\n      dup7\n        /* \"#utility.yul\":38153:38224   */\n      tag_499\n      jump\t// in\n    tag_919:\n        /* \"#utility.yul\":38234:38306   */\n      tag_920\n        /* \"#utility.yul\":38302:38304   */\n      0x20\n        /* \"#utility.yul\":38291:38300   */\n      dup4\n        /* \"#utility.yul\":38287:38305   */\n      add\n        /* \"#utility.yul\":38278:38284   */\n      dup6\n        /* \"#utility.yul\":38234:38306   */\n      tag_499\n      jump\t// in\n    tag_920:\n        /* \"#utility.yul\":38353:38362   */\n      dup2\n        /* \"#utility.yul\":38347:38351   */\n      dup2\n        /* \"#utility.yul\":38343:38363   */\n      sub\n        /* \"#utility.yul\":38338:38340   */\n      0x40\n        /* \"#utility.yul\":38327:38336   */\n      dup4\n        /* \"#utility.yul\":38323:38341   */\n      add\n        /* \"#utility.yul\":38316:38364   */\n      mstore\n        /* \"#utility.yul\":38381:38459   */\n      tag_921\n        /* \"#utility.yul\":38454:38458   */\n      dup2\n        /* \"#utility.yul\":38445:38451   */\n      dup5\n        /* \"#utility.yul\":38381:38459   */\n      tag_506\n      jump\t// in\n    tag_921:\n        /* \"#utility.yul\":38373:38459   */\n      swap1\n      pop\n        /* \"#utility.yul\":37933:38466   */\n      swap5\n      swap4\n      pop\n      pop\n      pop\n      pop\n      jump\t// out\n        /* \"#utility.yul\":38472:38645   */\n    tag_565:\n        /* \"#utility.yul\":38612:38637   */\n      0x566f74696e6720706572696f642068617320656e646564000000000000000000\n        /* \"#utility.yul\":38608:38609   */\n      0x00\n        /* \"#utility.yul\":38600:38606   */\n      dup3\n        /* \"#utility.yul\":38596:38610   */\n      add\n        /* \"#utility.yul\":38589:38638   */\n      mstore\n        /* \"#utility.yul\":38472:38645   */\n      pop\n      jump\t// out\n        /* \"#utility.yul\":38651:39017   */\n    tag_566:\n        /* \"#utility.yul\":38793:38796   */\n      0x00\n        /* \"#utility.yul\":38814:38881   */\n      tag_924\n        /* \"#utility.yul\":38878:38880   */\n      0x17\n        /* \"#utility.yul\":38873:38876   */\n      dup4\n        /* \"#utility.yul\":38814:38881   */\n      tag_504\n      jump\t// in\n    tag_924:\n        /* \"#utility.yul\":38807:38881   */\n      swap2\n      pop\n        /* \"#utility.yul\":38890:38983   */\n      tag_925\n        /* \"#utility.yul\":38979:38982   */\n      dup3\n        /* \"#utility.yul\":38890:38983   */\n      tag_565\n      jump\t// in\n    tag_925:\n        /* \"#utility.yul\":39008:39010   */\n      0x20\n        /* \"#utility.yul\":39003:39006   */\n      dup3\n        /* \"#utility.yul\":38999:39011   */\n      add\n        /* \"#utility.yul\":38992:39011   */\n      swap1\n      pop\n        /* \"#utility.yul\":38651:39017   */\n      swap2\n      swap1\n      pop\n      jump\t// out\n        /* \"#utility.yul\":39023:39442   */\n    tag_215:\n        /* \"#utility.yul\":39189:39193   */\n      0x00\n        /* \"#utility.yul\":39227:39229   */\n      0x20\n        /* \"#utility.yul\":39216:39225   */\n      dup3\n        /* \"#utility.yul\":39212:39230   */\n      add\n        /* \"#utility.yul\":39204:39230   */\n      swap1\n      pop\n        /* \"#utility.yul\":39276:39285   */\n      dup2\n        /* \"#utility.yul\":39270:39274   */\n      dup2\n        /* \"#utility.yul\":39266:39286   */\n      sub\n        /* \"#utility.yul\":39262:39263   */\n      0x00\n        /* \"#utility.yul\":39251:39260   */\n      dup4\n        /* \"#utility.yul\":39247:39264   */\n      add\n        /* \"#utility.yul\":39240:39287   */\n      mstore\n        /* \"#utility.yul\":39304:39435   */\n      tag_927\n        /* \"#utility.yul\":39430:39434   */\n      dup2\n        /* \"#utility.yul\":39304:39435   */\n      tag_566\n      jump\t// in\n    tag_927:\n        /* \"#utility.yul\":39296:39435   */\n      swap1\n      pop\n        /* \"#utility.yul\":39023:39442   */\n      swap2\n      swap1\n      pop\n      jump\t// out\n        /* \"#utility.yul\":39448:39616   */\n    tag_567:\n        /* \"#utility.yul\":39588:39608   */\n      0x496e636f727265637420766f7465206665650000000000000000000000000000\n        /* \"#utility.yul\":39584:39585   */\n      0x00\n        /* \"#utility.yul\":39576:39582   */\n      dup3\n        /* \"#utility.yul\":39572:39586   */\n      add\n        /* \"#utility.yul\":39565:39609   */\n      mstore\n        /* \"#utility.yul\":39448:39616   */\n      pop\n      jump\t// out\n        /* \"#utility.yul\":39622:39988   */\n    tag_568:\n        /* \"#utility.yul\":39764:39767   */\n      0x00\n        /* \"#utility.yul\":39785:39852   */\n      tag_930\n        /* \"#utility.yul\":39849:39851   */\n      0x12\n        /* \"#utility.yul\":39844:39847   */\n      dup4\n        /* \"#utility.yul\":39785:39852   */\n      tag_504\n      jump\t// in\n    tag_930:\n        /* \"#utility.yul\":39778:39852   */\n      swap2\n      pop\n        /* \"#utility.yul\":39861:39954   */\n      tag_931\n        /* \"#utility.yul\":39950:39953   */\n      dup3\n        /* \"#utility.yul\":39861:39954   */\n      tag_567\n      jump\t// in\n    tag_931:\n        /* \"#utility.yul\":39979:39981   */\n      0x20\n        /* \"#utility.yul\":39974:39977   */\n      dup3\n        /* \"#utility.yul\":39970:39982   */\n      add\n        /* \"#utility.yul\":39963:39982   */\n      swap1\n      pop\n        /* \"#utility.yul\":39622:39988   */\n      swap2\n      swap1\n      pop\n      jump\t// out\n        /* \"#utility.yul\":39994:40413   */\n    tag_218:\n        /* \"#utility.yul\":40160:40164   */\n      0x00\n        /* \"#utility.yul\":40198:40200   */\n      0x20\n        /* \"#utility.yul\":40187:40196   */\n      dup3\n        /* \"#utility.yul\":40183:40201   */\n      add\n        /* \"#utility.yul\":40175:40201   */\n      swap1\n      pop\n        /* \"#utility.yul\":40247:40256   */\n      dup2\n        /* \"#utility.yul\":40241:40245   */\n      dup2\n        /* \"#utility.yul\":40237:40257   */\n      sub\n        /* \"#utility.yul\":40233:40234   */\n      0x00\n        /* \"#utility.yul\":40222:40231   */\n      dup4\n        /* \"#utility.yul\":40218:40235   */\n      add\n        /* \"#utility.yul\":40211:40258   */\n      mstore\n        /* \"#utility.yul\":40275:40406   */\n      tag_933\n        /* \"#utility.yul\":40401:40405   */\n      dup2\n        /* \"#utility.yul\":40275:40406   */\n      tag_568\n      jump\t// in\n    tag_933:\n        /* \"#utility.yul\":40267:40406   */\n      swap1\n      pop\n        /* \"#utility.yul\":39994:40413   */\n      swap2\n      swap1\n      pop\n      jump\t// out\n        /* \"#utility.yul\":40419:40610   */\n    tag_220:\n        /* \"#utility.yul\":40459:40462   */\n      0x00\n        /* \"#utility.yul\":40478:40498   */\n      tag_935\n        /* \"#utility.yul\":40496:40497   */\n      dup3\n        /* \"#utility.yul\":40478:40498   */\n      tag_487\n      jump\t// in\n    tag_935:\n        /* \"#utility.yul\":40473:40498   */\n      swap2\n      pop\n        /* \"#utility.yul\":40512:40532   */\n      tag_936\n        /* \"#utility.yul\":40530:40531   */\n      dup4\n        /* \"#utility.yul\":40512:40532   */\n      tag_487\n      jump\t// in\n    tag_936:\n        /* \"#utility.yul\":40507:40532   */\n      swap3\n      pop\n        /* \"#utility.yul\":40555:40556   */\n      dup3\n        /* \"#utility.yul\":40552:40553   */\n      dup3\n        /* \"#utility.yul\":40548:40557   */\n      add\n        /* \"#utility.yul\":40541:40557   */\n      swap1\n      pop\n        /* \"#utility.yul\":40576:40579   */\n      dup1\n        /* \"#utility.yul\":40573:40574   */\n      dup3\n        /* \"#utility.yul\":40570:40580   */\n      gt\n        /* \"#utility.yul\":40567:40603   */\n      iszero\n      tag_937\n      jumpi\n        /* \"#utility.yul\":40583:40601   */\n      tag_938\n      tag_549\n      jump\t// in\n    tag_938:\n        /* \"#utility.yul\":40567:40603   */\n    tag_937:\n        /* \"#utility.yul\":40419:40610   */\n      swap3\n      swap2\n      pop\n      pop\n      jump\t// out\n        /* \"#utility.yul\":40616:40786   */\n    tag_569:\n        /* \"#utility.yul\":40756:40778   */\n      0x4e6f2066756e647320746f207769746864726177000000000000000000000000\n        /* \"#utility.yul\":40752:40753   */\n      0x00\n        /* \"#utility.yul\":40744:40750   */\n      dup3\n        /* \"#utility.yul\":40740:40754   */\n      add\n        /* \"#utility.yul\":40733:40779   */\n      mstore\n        /* \"#utility.yul\":40616:40786   */\n      pop\n      jump\t// out\n        /* \"#utility.yul\":40792:41158   */\n    tag_570:\n        /* \"#utility.yul\":40934:40937   */\n      0x00\n        /* \"#utility.yul\":40955:41022   */\n      tag_941\n        /* \"#utility.yul\":41019:41021   */\n      0x14\n        /* \"#utility.yul\":41014:41017   */\n      dup4\n        /* \"#utility.yul\":40955:41022   */\n      tag_504\n      jump\t// in\n    tag_941:\n        /* \"#utility.yul\":40948:41022   */\n      swap2\n      pop\n        /* \"#utility.yul\":41031:41124   */\n      tag_942\n        /* \"#utility.yul\":41120:41123   */\n      dup3\n        /* \"#utility.yul\":41031:41124   */\n      tag_569\n      jump\t// in\n    tag_942:\n        /* \"#utility.yul\":41149:41151   */\n      0x20\n        /* \"#utility.yul\":41144:41147   */\n      dup3\n        /* \"#utility.yul\":41140:41152   */\n      add\n        /* \"#utility.yul\":41133:41152   */\n      swap1\n      pop\n        /* \"#utility.yul\":40792:41158   */\n      swap2\n      swap1\n      pop\n      jump\t// out\n        /* \"#utility.yul\":41164:41583   */\n    tag_241:\n        /* \"#utility.yul\":41330:41334   */\n      0x00\n        /* \"#utility.yul\":41368:41370   */\n      0x20\n        /* \"#utility.yul\":41357:41366   */\n      dup3\n        /* \"#utility.yul\":41353:41371   */\n      add\n        /* \"#utility.yul\":41345:41371   */\n      swap1\n      pop\n        /* \"#utility.yul\":41417:41426   */\n      dup2\n        /* \"#utility.yul\":41411:41415   */\n      dup2\n        /* \"#utility.yul\":41407:41427   */\n      sub\n        /* \"#utility.yul\":41403:41404   */\n      0x00\n        /* \"#utility.yul\":41392:41401   */\n      dup4\n        /* \"#utility.yul\":41388:41405   */\n      add\n        /* \"#utility.yul\":41381:41428   */\n      mstore\n        /* \"#utility.yul\":41445:41576   */\n      tag_944\n        /* \"#utility.yul\":41571:41575   */\n      dup2\n        /* \"#utility.yul\":41445:41576   */\n      tag_570\n      jump\t// in\n    tag_944:\n        /* \"#utility.yul\":41437:41576   */\n      swap1\n      pop\n        /* \"#utility.yul\":41164:41583   */\n      swap2\n      swap1\n      pop\n      jump\t// out\n        /* \"#utility.yul\":41589:41760   */\n    tag_571:\n        /* \"#utility.yul\":41729:41752   */\n      0x416e7377657220646f6573206e6f742065786973740000000000000000000000\n        /* \"#utility.yul\":41725:41726   */\n      0x00\n        /* \"#utility.yul\":41717:41723   */\n      dup3\n        /* \"#utility.yul\":41713:41727   */\n      add\n        /* \"#utility.yul\":41706:41753   */\n      mstore\n        /* \"#utility.yul\":41589:41760   */\n      pop\n      jump\t// out\n        /* \"#utility.yul\":41766:42132   */\n    tag_572:\n        /* \"#utility.yul\":41908:41911   */\n      0x00\n        /* \"#utility.yul\":41929:41996   */\n      tag_947\n        /* \"#utility.yul\":41993:41995   */\n      0x15\n        /* \"#utility.yul\":41988:41991   */\n      dup4\n        /* \"#utility.yul\":41929:41996   */\n      tag_504\n      jump\t// in\n    tag_947:\n        /* \"#utility.yul\":41922:41996   */\n      swap2\n      pop\n        /* \"#utility.yul\":42005:42098   */\n      tag_948\n        /* \"#utility.yul\":42094:42097   */\n      dup3\n        /* \"#utility.yul\":42005:42098   */\n      tag_571\n      jump\t// in\n    tag_948:\n        /* \"#utility.yul\":42123:42125   */\n      0x20\n        /* \"#utility.yul\":42118:42121   */\n      dup3\n        /* \"#utility.yul\":42114:42126   */\n      add\n        /* \"#utility.yul\":42107:42126   */\n      swap1\n      pop\n        /* \"#utility.yul\":41766:42132   */\n      swap2\n      swap1\n      pop\n      jump\t// out\n        /* \"#utility.yul\":42138:42557   */\n    tag_249:\n        /* \"#utility.yul\":42304:42308   */\n      0x00\n        /* \"#utility.yul\":42342:42344   */\n      0x20\n        /* \"#utility.yul\":42331:42340   */\n      dup3\n        /* \"#utility.yul\":42327:42345   */\n      add\n        /* \"#utility.yul\":42319:42345   */\n      swap1\n      pop\n        /* \"#utility.yul\":42391:42400   */\n      dup2\n        /* \"#utility.yul\":42385:42389   */\n      dup2\n        /* \"#utility.yul\":42381:42401   */\n      sub\n        /* \"#utility.yul\":42377:42378   */\n      0x00\n        /* \"#utility.yul\":42366:42375   */\n      dup4\n        /* \"#utility.yul\":42362:42379   */\n      add\n        /* \"#utility.yul\":42355:42402   */\n      mstore\n        /* \"#utility.yul\":42419:42550   */\n      tag_950\n        /* \"#utility.yul\":42545:42549   */\n      dup2\n        /* \"#utility.yul\":42419:42550   */\n      tag_572\n      jump\t// in\n    tag_950:\n        /* \"#utility.yul\":42411:42550   */\n      swap1\n      pop\n        /* \"#utility.yul\":42138:42557   */\n      swap2\n      swap1\n      pop\n      jump\t// out\n        /* \"#utility.yul\":42563:42710   */\n    tag_573:\n        /* \"#utility.yul\":42664:42675   */\n      0x00\n        /* \"#utility.yul\":42701:42704   */\n      dup2\n        /* \"#utility.yul\":42686:42704   */\n      swap1\n      pop\n        /* \"#utility.yul\":42563:42710   */\n      swap3\n      swap2\n      pop\n      pop\n      jump\t// out\n        /* \"#utility.yul\":42716:42860   */\n    tag_574:\n        /* \"#utility.yul\":42768:42772   */\n      0x00\n        /* \"#utility.yul\":42791:42794   */\n      dup2\n        /* \"#utility.yul\":42783:42794   */\n      swap1\n      pop\n        /* \"#utility.yul\":42814:42817   */\n      dup2\n        /* \"#utility.yul\":42811:42812   */\n      0x00\n        /* \"#utility.yul\":42804:42818   */\n      mstore\n        /* \"#utility.yul\":42848:42852   */\n      0x20\n        /* \"#utility.yul\":42845:42846   */\n      0x00\n        /* \"#utility.yul\":42835:42853   */\n      keccak256\n        /* \"#utility.yul\":42827:42853   */\n      swap1\n      pop\n        /* \"#utility.yul\":42716:42860   */\n      swap2\n      swap1\n      pop\n      jump\t// out\n        /* \"#utility.yul\":42888:43766   */\n    tag_575:\n        /* \"#utility.yul\":42993:42996   */\n      0x00\n        /* \"#utility.yul\":43030:43035   */\n      dup2\n        /* \"#utility.yul\":43024:43036   */\n      sload\n        /* \"#utility.yul\":43059:43095   */\n      tag_954\n        /* \"#utility.yul\":43085:43094   */\n      dup2\n        /* \"#utility.yul\":43059:43095   */\n      tag_162\n      jump\t// in\n    tag_954:\n        /* \"#utility.yul\":43111:43199   */\n      tag_955\n        /* \"#utility.yul\":43192:43198   */\n      dup2\n        /* \"#utility.yul\":43187:43190   */\n      dup7\n        /* \"#utility.yul\":43111:43199   */\n      tag_573\n      jump\t// in\n    tag_955:\n        /* \"#utility.yul\":43104:43199   */\n      swap5\n      pop\n        /* \"#utility.yul\":43230:43231   */\n      0x01\n        /* \"#utility.yul\":43219:43228   */\n      dup3\n        /* \"#utility.yul\":43215:43232   */\n      and\n        /* \"#utility.yul\":43246:43247   */\n      0x00\n        /* \"#utility.yul\":43241:43407   */\n      dup2\n      eq\n      tag_957\n      jumpi\n        /* \"#utility.yul\":43421:43422   */\n      0x01\n        /* \"#utility.yul\":43416:43760   */\n      dup2\n      eq\n      tag_958\n      jumpi\n        /* \"#utility.yul\":43208:43760   */\n      jump(tag_956)\n        /* \"#utility.yul\":43241:43407   */\n    tag_957:\n        /* \"#utility.yul\":43325:43329   */\n      0xff\n        /* \"#utility.yul\":43321:43330   */\n      not\n        /* \"#utility.yul\":43310:43319   */\n      dup4\n        /* \"#utility.yul\":43306:43331   */\n      and\n        /* \"#utility.yul\":43301:43304   */\n      dup7\n        /* \"#utility.yul\":43294:43332   */\n      mstore\n        /* \"#utility.yul\":43387:43393   */\n      dup2\n        /* \"#utility.yul\":43380:43394   */\n      iszero\n        /* \"#utility.yul\":43373:43395   */\n      iszero\n        /* \"#utility.yul\":43365:43371   */\n      dup3\n        /* \"#utility.yul\":43361:43396   */\n      mul\n        /* \"#utility.yul\":43356:43359   */\n      dup7\n        /* \"#utility.yul\":43352:43397   */\n      add\n        /* \"#utility.yul\":43345:43397   */\n      swap4\n      pop\n        /* \"#utility.yul\":43241:43407   */\n      jump(tag_956)\n        /* \"#utility.yul\":43416:43760   */\n    tag_958:\n        /* \"#utility.yul\":43483:43524   */\n      tag_959\n        /* \"#utility.yul\":43518:43523   */\n      dup6\n        /* \"#utility.yul\":43483:43524   */\n      tag_574\n      jump\t// in\n    tag_959:\n        /* \"#utility.yul\":43546:43547   */\n      0x00\n        /* \"#utility.yul\":43560:43714   */\n    tag_960:\n        /* \"#utility.yul\":43574:43580   */\n      dup4\n        /* \"#utility.yul\":43571:43572   */\n      dup2\n        /* \"#utility.yul\":43568:43581   */\n      lt\n        /* \"#utility.yul\":43560:43714   */\n      iszero\n      tag_962\n      jumpi\n        /* \"#utility.yul\":43648:43655   */\n      dup2\n        /* \"#utility.yul\":43642:43656   */\n      sload\n        /* \"#utility.yul\":43638:43639   */\n      dup2\n        /* \"#utility.yul\":43633:43636   */\n      dup10\n        /* \"#utility.yul\":43629:43640   */\n      add\n        /* \"#utility.yul\":43622:43657   */\n      mstore\n        /* \"#utility.yul\":43698:43699   */\n      0x01\n        /* \"#utility.yul\":43689:43696   */\n      dup3\n        /* \"#utility.yul\":43685:43700   */\n      add\n        /* \"#utility.yul\":43674:43700   */\n      swap2\n      pop\n        /* \"#utility.yul\":43596:43600   */\n      0x20\n        /* \"#utility.yul\":43593:43594   */\n      dup2\n        /* \"#utility.yul\":43589:43601   */\n      add\n        /* \"#utility.yul\":43584:43601   */\n      swap1\n      pop\n        /* \"#utility.yul\":43560:43714   */\n      jump(tag_960)\n    tag_962:\n        /* \"#utility.yul\":43743:43749   */\n      dup4\n        /* \"#utility.yul\":43738:43741   */\n      dup9\n        /* \"#utility.yul\":43734:43750   */\n      add\n        /* \"#utility.yul\":43727:43750   */\n      swap6\n      pop\n        /* \"#utility.yul\":43423:43760   */\n      pop\n      pop\n        /* \"#utility.yul\":43208:43760   */\n    tag_956:\n      pop\n        /* \"#utility.yul\":42997:43766   */\n      pop\n      pop\n        /* \"#utility.yul\":42888:43766   */\n      swap3\n      swap2\n      pop\n      pop\n      jump\t// out\n        /* \"#utility.yul\":43772:44045   */\n    tag_264:\n        /* \"#utility.yul\":43903:43906   */\n      0x00\n        /* \"#utility.yul\":43925:44019   */\n      tag_964\n        /* \"#utility.yul\":44015:44018   */\n      dup3\n        /* \"#utility.yul\":44006:44012   */\n      dup5\n        /* \"#utility.yul\":43925:44019   */\n      tag_575\n      jump\t// in\n    tag_964:\n        /* \"#utility.yul\":43918:44019   */\n      swap2\n      pop\n        /* \"#utility.yul\":44036:44039   */\n      dup2\n        /* \"#utility.yul\":44029:44039   */\n      swap1\n      pop\n        /* \"#utility.yul\":43772:44045   */\n      swap3\n      swap2\n      pop\n      pop\n      jump\t// out\n        /* \"#utility.yul\":44051:44231   */\n    tag_268:\n        /* \"#utility.yul\":44099:44176   */\n      0x4e487b7100000000000000000000000000000000000000000000000000000000\n        /* \"#utility.yul\":44096:44097   */\n      0x00\n        /* \"#utility.yul\":44089:44177   */\n      mstore\n        /* \"#utility.yul\":44196:44200   */\n      0x32\n        /* \"#utility.yul\":44193:44194   */\n      0x04\n        /* \"#utility.yul\":44186:44201   */\n      mstore\n        /* \"#utility.yul\":44220:44224   */\n      0x24\n        /* \"#utility.yul\":44217:44218   */\n      0x00\n        /* \"#utility.yul\":44210:44225   */\n      revert\n        /* \"#utility.yul\":44237:44419   */\n    tag_576:\n        /* \"#utility.yul\":44377:44411   */\n      0x526577617264206d7573742062652067726561746572207468616e207a65726f\n        /* \"#utility.yul\":44373:44374   */\n      0x00\n        /* \"#utility.yul\":44365:44371   */\n      dup3\n        /* \"#utility.yul\":44361:44375   */\n      add\n        /* \"#utility.yul\":44354:44412   */\n      mstore\n        /* \"#utility.yul\":44237:44419   */\n      pop\n      jump\t// out\n        /* \"#utility.yul\":44425:44791   */\n    tag_577:\n        /* \"#utility.yul\":44567:44570   */\n      0x00\n        /* \"#utility.yul\":44588:44655   */\n      tag_968\n        /* \"#utility.yul\":44652:44654   */\n      0x20\n        /* \"#utility.yul\":44647:44650   */\n      dup4\n        /* \"#utility.yul\":44588:44655   */\n      tag_504\n      jump\t// in\n    tag_968:\n        /* \"#utility.yul\":44581:44655   */\n      swap2\n      pop\n        /* \"#utility.yul\":44664:44757   */\n      tag_969\n        /* \"#utility.yul\":44753:44756   */\n      dup3\n        /* \"#utility.yul\":44664:44757   */\n      tag_576\n      jump\t// in\n    tag_969:\n        /* \"#utility.yul\":44782:44784   */\n      0x20\n        /* \"#utility.yul\":44777:44780   */\n      dup3\n        /* \"#utility.yul\":44773:44785   */\n      add\n        /* \"#utility.yul\":44766:44785   */\n      swap1\n      pop\n        /* \"#utility.yul\":44425:44791   */\n      swap2\n      swap1\n      pop\n      jump\t// out\n        /* \"#utility.yul\":44797:45216   */\n    tag_283:\n        /* \"#utility.yul\":44963:44967   */\n      0x00\n        /* \"#utility.yul\":45001:45003   */\n      0x20\n        /* \"#utility.yul\":44990:44999   */\n      dup3\n        /* \"#utility.yul\":44986:45004   */\n      add\n        /* \"#utility.yul\":44978:45004   */\n      swap1\n      pop\n        /* \"#utility.yul\":45050:45059   */\n      dup2\n        /* \"#utility.yul\":45044:45048   */\n      dup2\n        /* \"#utility.yul\":45040:45060   */\n      sub\n        /* \"#utility.yul\":45036:45037   */\n      0x00\n        /* \"#utility.yul\":45025:45034   */\n      dup4\n        /* \"#utility.yul\":45021:45038   */\n      add\n        /* \"#utility.yul\":45014:45061   */\n      mstore\n        /* \"#utility.yul\":45078:45209   */\n      tag_971\n        /* \"#utility.yul\":45204:45208   */\n      dup2\n        /* \"#utility.yul\":45078:45209   */\n      tag_577\n      jump\t// in\n    tag_971:\n        /* \"#utility.yul\":45070:45209   */\n      swap1\n      pop\n        /* \"#utility.yul\":44797:45216   */\n      swap2\n      swap1\n      pop\n      jump\t// out\n        /* \"#utility.yul\":45222:45396   */\n    tag_578:\n        /* \"#utility.yul\":45362:45388   */\n      0x43617465676f72792063616e6e6f7420626520656d7074790000000000000000\n        /* \"#utility.yul\":45358:45359   */\n      0x00\n        /* \"#utility.yul\":45350:45356   */\n      dup3\n        /* \"#utility.yul\":45346:45360   */\n      add\n        /* \"#utility.yul\":45339:45389   */\n      mstore\n        /* \"#utility.yul\":45222:45396   */\n      pop\n      jump\t// out\n        /* \"#utility.yul\":45402:45768   */\n    tag_579:\n        /* \"#utility.yul\":45544:45547   */\n      0x00\n        /* \"#utility.yul\":45565:45632   */\n      tag_974\n        /* \"#utility.yul\":45629:45631   */\n      0x18\n        /* \"#utility.yul\":45624:45627   */\n      dup4\n        /* \"#utility.yul\":45565:45632   */\n      tag_504\n      jump\t// in\n    tag_974:\n        /* \"#utility.yul\":45558:45632   */\n      swap2\n      pop\n        /* \"#utility.yul\":45641:45734   */\n      tag_975\n        /* \"#utility.yul\":45730:45733   */\n      dup3\n        /* \"#utility.yul\":45641:45734   */\n      tag_578\n      jump\t// in\n    tag_975:\n        /* \"#utility.yul\":45759:45761   */\n      0x20\n        /* \"#utility.yul\":45754:45757   */\n      dup3\n        /* \"#utility.yul\":45750:45762   */\n      add\n        /* \"#utility.yul\":45743:45762   */\n      swap1\n      pop\n        /* \"#utility.yul\":45402:45768   */\n      swap2\n      swap1\n      pop\n      jump\t// out\n        /* \"#utility.yul\":45774:46193   */\n    tag_286:\n        /* \"#utility.yul\":45940:45944   */\n      0x00\n        /* \"#utility.yul\":45978:45980   */\n      0x20\n        /* \"#utility.yul\":45967:45976   */\n      dup3\n        /* \"#utility.yul\":45963:45981   */\n      add\n        /* \"#utility.yul\":45955:45981   */\n      swap1\n      pop\n        /* \"#utility.yul\":46027:46036   */\n      dup2\n        /* \"#utility.yul\":46021:46025   */\n      dup2\n        /* \"#utility.yul\":46017:46037   */\n      sub\n        /* \"#utility.yul\":46013:46014   */\n      0x00\n        /* \"#utility.yul\":46002:46011   */\n      dup4\n        /* \"#utility.yul\":45998:46015   */\n      add\n        /* \"#utility.yul\":45991:46038   */\n      mstore\n        /* \"#utility.yul\":46055:46186   */\n      tag_977\n        /* \"#utility.yul\":46181:46185   */\n      dup2\n        /* \"#utility.yul\":46055:46186   */\n      tag_579\n      jump\t// in\n    tag_977:\n        /* \"#utility.yul\":46047:46186   */\n      swap1\n      pop\n        /* \"#utility.yul\":45774:46193   */\n      swap2\n      swap1\n      pop\n      jump\t// out\n        /* \"#utility.yul\":46199:46379   */\n    tag_289:\n        /* \"#utility.yul\":46247:46324   */\n      0x4e487b7100000000000000000000000000000000000000000000000000000000\n        /* \"#utility.yul\":46244:46245   */\n      0x00\n        /* \"#utility.yul\":46237:46325   */\n      mstore\n        /* \"#utility.yul\":46344:46348   */\n      0x21\n        /* \"#utility.yul\":46341:46342   */\n      0x04\n        /* \"#utility.yul\":46334:46349   */\n      mstore\n        /* \"#utility.yul\":46368:46372   */\n      0x24\n        /* \"#utility.yul\":46365:46366   */\n      0x00\n        /* \"#utility.yul\":46358:46373   */\n      revert\n        /* \"#utility.yul\":46385:47120   */\n    tag_313:\n        /* \"#utility.yul\":46602:46606   */\n      0x00\n        /* \"#utility.yul\":46640:46643   */\n      0x80\n        /* \"#utility.yul\":46629:46638   */\n      dup3\n        /* \"#utility.yul\":46625:46644   */\n      add\n        /* \"#utility.yul\":46617:46644   */\n      swap1\n      pop\n        /* \"#utility.yul\":46654:46725   */\n      tag_980\n        /* \"#utility.yul\":46722:46723   */\n      0x00\n        /* \"#utility.yul\":46711:46720   */\n      dup4\n        /* \"#utility.yul\":46707:46724   */\n      add\n        /* \"#utility.yul\":46698:46704   */\n      dup8\n        /* \"#utility.yul\":46654:46725   */\n      tag_499\n      jump\t// in\n    tag_980:\n        /* \"#utility.yul\":46772:46781   */\n      dup2\n        /* \"#utility.yul\":46766:46770   */\n      dup2\n        /* \"#utility.yul\":46762:46782   */\n      sub\n        /* \"#utility.yul\":46757:46759   */\n      0x20\n        /* \"#utility.yul\":46746:46755   */\n      dup4\n        /* \"#utility.yul\":46742:46760   */\n      add\n        /* \"#utility.yul\":46735:46783   */\n      mstore\n        /* \"#utility.yul\":46800:46878   */\n      tag_981\n        /* \"#utility.yul\":46873:46877   */\n      dup2\n        /* \"#utility.yul\":46864:46870   */\n      dup7\n        /* \"#utility.yul\":46800:46878   */\n      tag_506\n      jump\t// in\n    tag_981:\n        /* \"#utility.yul\":46792:46878   */\n      swap1\n      pop\n        /* \"#utility.yul\":46888:46960   */\n      tag_982\n        /* \"#utility.yul\":46956:46958   */\n      0x40\n        /* \"#utility.yul\":46945:46954   */\n      dup4\n        /* \"#utility.yul\":46941:46959   */\n      add\n        /* \"#utility.yul\":46932:46938   */\n      dup6\n        /* \"#utility.yul\":46888:46960   */\n      tag_499\n      jump\t// in\n    tag_982:\n        /* \"#utility.yul\":47007:47016   */\n      dup2\n        /* \"#utility.yul\":47001:47005   */\n      dup2\n        /* \"#utility.yul\":46997:47017   */\n      sub\n        /* \"#utility.yul\":46992:46994   */\n      0x60\n        /* \"#utility.yul\":46981:46990   */\n      dup4\n        /* \"#utility.yul\":46977:46995   */\n      add\n        /* \"#utility.yul\":46970:47018   */\n      mstore\n        /* \"#utility.yul\":47035:47113   */\n      tag_983\n        /* \"#utility.yul\":47108:47112   */\n      dup2\n        /* \"#utility.yul\":47099:47105   */\n      dup5\n        /* \"#utility.yul\":47035:47113   */\n      tag_506\n      jump\t// in\n    tag_983:\n        /* \"#utility.yul\":47027:47113   */\n      swap1\n      pop\n        /* \"#utility.yul\":46385:47120   */\n      swap6\n      swap5\n      pop\n      pop\n      pop\n      pop\n      pop\n      jump\t// out\n        /* \"#utility.yul\":47126:47346   */\n    tag_580:\n        /* \"#utility.yul\":47266:47300   */\n      0x43616e6e6f742064697374726962757465206265666f726520646561646c696e\n        /* \"#utility.yul\":47262:47263   */\n      0x00\n        /* \"#utility.yul\":47254:47260   */\n      dup3\n        /* \"#utility.yul\":47250:47264   */\n      add\n        /* \"#utility.yul\":47243:47301   */\n      mstore\n        /* \"#utility.yul\":47335:47338   */\n      0x6500000000000000000000000000000000000000000000000000000000000000\n        /* \"#utility.yul\":47330:47332   */\n      0x20\n        /* \"#utility.yul\":47322:47328   */\n      dup3\n        /* \"#utility.yul\":47318:47333   */\n      add\n        /* \"#utility.yul\":47311:47339   */\n      mstore\n        /* \"#utility.yul\":47126:47346   */\n      pop\n      jump\t// out\n        /* \"#utility.yul\":47352:47718   */\n    tag_581:\n        /* \"#utility.yul\":47494:47497   */\n      0x00\n        /* \"#utility.yul\":47515:47582   */\n      tag_986\n        /* \"#utility.yul\":47579:47581   */\n      0x21\n        /* \"#utility.yul\":47574:47577   */\n      dup4\n        /* \"#utility.yul\":47515:47582   */\n      tag_504\n      jump\t// in\n    tag_986:\n        /* \"#utility.yul\":47508:47582   */\n      swap2\n      pop\n        /* \"#utility.yul\":47591:47684   */\n      tag_987\n        /* \"#utility.yul\":47680:47683   */\n      dup3\n        /* \"#utility.yul\":47591:47684   */\n      tag_580\n      jump\t// in\n    tag_987:\n        /* \"#utility.yul\":47709:47711   */\n      0x40\n        /* \"#utility.yul\":47704:47707   */\n      dup3\n        /* \"#utility.yul\":47700:47712   */\n      add\n        /* \"#utility.yul\":47693:47712   */\n      swap1\n      pop\n        /* \"#utility.yul\":47352:47718   */\n      swap2\n      swap1\n      pop\n      jump\t// out\n        /* \"#utility.yul\":47724:48143   */\n    tag_320:\n        /* \"#utility.yul\":47890:47894   */\n      0x00\n        /* \"#utility.yul\":47928:47930   */\n      0x20\n        /* \"#utility.yul\":47917:47926   */\n      dup3\n        /* \"#utility.yul\":47913:47931   */\n      add\n        /* \"#utility.yul\":47905:47931   */\n      swap1\n      pop\n        /* \"#utility.yul\":47977:47986   */\n      dup2\n        /* \"#utility.yul\":47971:47975   */\n      dup2\n        /* \"#utility.yul\":47967:47987   */\n      sub\n        /* \"#utility.yul\":47963:47964   */\n      0x00\n        /* \"#utility.yul\":47952:47961   */\n      dup4\n        /* \"#utility.yul\":47948:47965   */\n      add\n        /* \"#utility.yul\":47941:47988   */\n      mstore\n        /* \"#utility.yul\":48005:48136   */\n      tag_989\n        /* \"#utility.yul\":48131:48135   */\n      dup2\n        /* \"#utility.yul\":48005:48136   */\n      tag_581\n      jump\t// in\n    tag_989:\n        /* \"#utility.yul\":47997:48136   */\n      swap1\n      pop\n        /* \"#utility.yul\":47724:48143   */\n      swap2\n      swap1\n      pop\n      jump\t// out\n        /* \"#utility.yul\":48149:48559   */\n    tag_332:\n        /* \"#utility.yul\":48189:48196   */\n      0x00\n        /* \"#utility.yul\":48212:48232   */\n      tag_991\n        /* \"#utility.yul\":48230:48231   */\n      dup3\n        /* \"#utility.yul\":48212:48232   */\n      tag_487\n      jump\t// in\n    tag_991:\n        /* \"#utility.yul\":48207:48232   */\n      swap2\n      pop\n        /* \"#utility.yul\":48246:48266   */\n      tag_992\n        /* \"#utility.yul\":48264:48265   */\n      dup4\n        /* \"#utility.yul\":48246:48266   */\n      tag_487\n      jump\t// in\n    tag_992:\n        /* \"#utility.yul\":48241:48266   */\n      swap3\n      pop\n        /* \"#utility.yul\":48301:48302   */\n      dup3\n        /* \"#utility.yul\":48298:48299   */\n      dup3\n        /* \"#utility.yul\":48294:48303   */\n      mul\n        /* \"#utility.yul\":48323:48353   */\n      tag_993\n        /* \"#utility.yul\":48341:48352   */\n      dup2\n        /* \"#utility.yul\":48323:48353   */\n      tag_487\n      jump\t// in\n    tag_993:\n        /* \"#utility.yul\":48312:48353   */\n      swap2\n      pop\n        /* \"#utility.yul\":48502:48503   */\n      dup3\n        /* \"#utility.yul\":48493:48500   */\n      dup3\n        /* \"#utility.yul\":48489:48504   */\n      div\n        /* \"#utility.yul\":48486:48487   */\n      dup5\n        /* \"#utility.yul\":48483:48505   */\n      eq\n        /* \"#utility.yul\":48463:48464   */\n      dup4\n        /* \"#utility.yul\":48456:48465   */\n      iszero\n        /* \"#utility.yul\":48436:48519   */\n      or\n        /* \"#utility.yul\":48413:48552   */\n      tag_994\n      jumpi\n        /* \"#utility.yul\":48532:48550   */\n      tag_995\n      tag_549\n      jump\t// in\n    tag_995:\n        /* \"#utility.yul\":48413:48552   */\n    tag_994:\n        /* \"#utility.yul\":48197:48559   */\n      pop\n        /* \"#utility.yul\":48149:48559   */\n      swap3\n      swap2\n      pop\n      pop\n      jump\t// out\n        /* \"#utility.yul\":48565:48745   */\n    tag_582:\n        /* \"#utility.yul\":48613:48690   */\n      0x4e487b7100000000000000000000000000000000000000000000000000000000\n        /* \"#utility.yul\":48610:48611   */\n      0x00\n        /* \"#utility.yul\":48603:48691   */\n      mstore\n        /* \"#utility.yul\":48710:48714   */\n      0x12\n        /* \"#utility.yul\":48707:48708   */\n      0x04\n        /* \"#utility.yul\":48700:48715   */\n      mstore\n        /* \"#utility.yul\":48734:48738   */\n      0x24\n        /* \"#utility.yul\":48731:48732   */\n      0x00\n        /* \"#utility.yul\":48724:48739   */\n      revert\n        /* \"#utility.yul\":48751:48936   */\n    tag_334:\n        /* \"#utility.yul\":48791:48792   */\n      0x00\n        /* \"#utility.yul\":48808:48828   */\n      tag_998\n        /* \"#utility.yul\":48826:48827   */\n      dup3\n        /* \"#utility.yul\":48808:48828   */\n      tag_487\n      jump\t// in\n    tag_998:\n        /* \"#utility.yul\":48803:48828   */\n      swap2\n      pop\n        /* \"#utility.yul\":48842:48862   */\n      tag_999\n        /* \"#utility.yul\":48860:48861   */\n      dup4\n        /* \"#utility.yul\":48842:48862   */\n      tag_487\n      jump\t// in\n    tag_999:\n        /* \"#utility.yul\":48837:48862   */\n      swap3\n      pop\n        /* \"#utility.yul\":48881:48882   */\n      dup3\n        /* \"#utility.yul\":48871:48906   */\n      tag_1000\n      jumpi\n        /* \"#utility.yul\":48886:48904   */\n      tag_1001\n      tag_582\n      jump\t// in\n    tag_1001:\n        /* \"#utility.yul\":48871:48906   */\n    tag_1000:\n        /* \"#utility.yul\":48928:48929   */\n      dup3\n        /* \"#utility.yul\":48925:48926   */\n      dup3\n        /* \"#utility.yul\":48921:48930   */\n      div\n        /* \"#utility.yul\":48916:48930   */\n      swap1\n      pop\n        /* \"#utility.yul\":48751:48936   */\n      swap3\n      swap2\n      pop\n      pop\n      jump\t// out\n        /* \"#utility.yul\":48942:49175   */\n    tag_583:\n        /* \"#utility.yul\":49082:49116   */\n      0x4f6e6c79207175657374696f6e2061736b65722063616e2073656c6563742074\n        /* \"#utility.yul\":49078:49079   */\n      0x00\n        /* \"#utility.yul\":49070:49076   */\n      dup3\n        /* \"#utility.yul\":49066:49080   */\n      add\n        /* \"#utility.yul\":49059:49117   */\n      mstore\n        /* \"#utility.yul\":49151:49167   */\n      0x6865206265737420616e73776572000000000000000000000000000000000000\n        /* \"#utility.yul\":49146:49148   */\n      0x20\n        /* \"#utility.yul\":49138:49144   */\n      dup3\n        /* \"#utility.yul\":49134:49149   */\n      add\n        /* \"#utility.yul\":49127:49168   */\n      mstore\n        /* \"#utility.yul\":48942:49175   */\n      pop\n      jump\t// out\n        /* \"#utility.yul\":49181:49547   */\n    tag_584:\n        /* \"#utility.yul\":49323:49326   */\n      0x00\n        /* \"#utility.yul\":49344:49411   */\n      tag_1004\n        /* \"#utility.yul\":49408:49410   */\n      0x2e\n        /* \"#utility.yul\":49403:49406   */\n      dup4\n        /* \"#utility.yul\":49344:49411   */\n      tag_504\n      jump\t// in\n    tag_1004:\n        /* \"#utility.yul\":49337:49411   */\n      swap2\n      pop\n        /* \"#utility.yul\":49420:49513   */\n      tag_1005\n        /* \"#utility.yul\":49509:49512   */\n      dup3\n        /* \"#utility.yul\":49420:49513   */\n      tag_583\n      jump\t// in\n    tag_1005:\n        /* \"#utility.yul\":49538:49540   */\n      0x40\n        /* \"#utility.yul\":49533:49536   */\n      dup3\n        /* \"#utility.yul\":49529:49541   */\n      add\n        /* \"#utility.yul\":49522:49541   */\n      swap1\n      pop\n        /* \"#utility.yul\":49181:49547   */\n      swap2\n      swap1\n      pop\n      jump\t// out\n        /* \"#utility.yul\":49553:49972   */\n    tag_342:\n        /* \"#utility.yul\":49719:49723   */\n      0x00\n        /* \"#utility.yul\":49757:49759   */\n      0x20\n        /* \"#utility.yul\":49746:49755   */\n      dup3\n        /* \"#utility.yul\":49742:49760   */\n      add\n        /* \"#utility.yul\":49734:49760   */\n      swap1\n      pop\n        /* \"#utility.yul\":49806:49815   */\n      dup2\n        /* \"#utility.yul\":49800:49804   */\n      dup2\n        /* \"#utility.yul\":49796:49816   */\n      sub\n        /* \"#utility.yul\":49792:49793   */\n      0x00\n        /* \"#utility.yul\":49781:49790   */\n      dup4\n        /* \"#utility.yul\":49777:49794   */\n      add\n        /* \"#utility.yul\":49770:49817   */\n      mstore\n        /* \"#utility.yul\":49834:49965   */\n      tag_1007\n        /* \"#utility.yul\":49960:49964   */\n      dup2\n        /* \"#utility.yul\":49834:49965   */\n      tag_584\n      jump\t// in\n    tag_1007:\n        /* \"#utility.yul\":49826:49965   */\n      swap1\n      pop\n        /* \"#utility.yul\":49553:49972   */\n      swap2\n      swap1\n      pop\n      jump\t// out\n        /* \"#utility.yul\":49978:50156   */\n    tag_585:\n        /* \"#utility.yul\":50118:50148   */\n      0x5061676520696e646578206d7573742073746172742066726f6d203100000000\n        /* \"#utility.yul\":50114:50115   */\n      0x00\n        /* \"#utility.yul\":50106:50112   */\n      dup3\n        /* \"#utility.yul\":50102:50116   */\n      add\n        /* \"#utility.yul\":50095:50149   */\n      mstore\n        /* \"#utility.yul\":49978:50156   */\n      pop\n      jump\t// out\n        /* \"#utility.yul\":50162:50528   */\n    tag_586:\n        /* \"#utility.yul\":50304:50307   */\n      0x00\n        /* \"#utility.yul\":50325:50392   */\n      tag_1010\n        /* \"#utility.yul\":50389:50391   */\n      0x1c\n        /* \"#utility.yul\":50384:50387   */\n      dup4\n        /* \"#utility.yul\":50325:50392   */\n      tag_504\n      jump\t// in\n    tag_1010:\n        /* \"#utility.yul\":50318:50392   */\n      swap2\n      pop\n        /* \"#utility.yul\":50401:50494   */\n      tag_1011\n        /* \"#utility.yul\":50490:50493   */\n      dup3\n        /* \"#utility.yul\":50401:50494   */\n      tag_585\n      jump\t// in\n    tag_1011:\n        /* \"#utility.yul\":50519:50521   */\n      0x20\n        /* \"#utility.yul\":50514:50517   */\n      dup3\n        /* \"#utility.yul\":50510:50522   */\n      add\n        /* \"#utility.yul\":50503:50522   */\n      swap1\n      pop\n        /* \"#utility.yul\":50162:50528   */\n      swap2\n      swap1\n      pop\n      jump\t// out\n        /* \"#utility.yul\":50534:50953   */\n    tag_376:\n        /* \"#utility.yul\":50700:50704   */\n      0x00\n        /* \"#utility.yul\":50738:50740   */\n      0x20\n        /* \"#utility.yul\":50727:50736   */\n      dup3\n        /* \"#utility.yul\":50723:50741   */\n      add\n        /* \"#utility.yul\":50715:50741   */\n      swap1\n      pop\n        /* \"#utility.yul\":50787:50796   */\n      dup2\n        /* \"#utility.yul\":50781:50785   */\n      dup2\n        /* \"#utility.yul\":50777:50797   */\n      sub\n        /* \"#utility.yul\":50773:50774   */\n      0x00\n        /* \"#utility.yul\":50762:50771   */\n      dup4\n        /* \"#utility.yul\":50758:50775   */\n      add\n        /* \"#utility.yul\":50751:50798   */\n      mstore\n        /* \"#utility.yul\":50815:50946   */\n      tag_1013\n        /* \"#utility.yul\":50941:50945   */\n      dup2\n        /* \"#utility.yul\":50815:50946   */\n      tag_586\n      jump\t// in\n    tag_1013:\n        /* \"#utility.yul\":50807:50946   */\n      swap1\n      pop\n        /* \"#utility.yul\":50534:50953   */\n      swap2\n      swap1\n      pop\n      jump\t// out\n        /* \"#utility.yul\":50959:51141   */\n    tag_587:\n        /* \"#utility.yul\":51099:51133   */\n      0x506167652073697a65206d7573742062652067726561746572207468616e2030\n        /* \"#utility.yul\":51095:51096   */\n      0x00\n        /* \"#utility.yul\":51087:51093   */\n      dup3\n        /* \"#utility.yul\":51083:51097   */\n      add\n        /* \"#utility.yul\":51076:51134   */\n      mstore\n        /* \"#utility.yul\":50959:51141   */\n      pop\n      jump\t// out\n        /* \"#utility.yul\":51147:51513   */\n    tag_588:\n        /* \"#utility.yul\":51289:51292   */\n      0x00\n        /* \"#utility.yul\":51310:51377   */\n      tag_1016\n        /* \"#utility.yul\":51374:51376   */\n      0x20\n        /* \"#utility.yul\":51369:51372   */\n      dup4\n        /* \"#utility.yul\":51310:51377   */\n      tag_504\n      jump\t// in\n    tag_1016:\n        /* \"#utility.yul\":51303:51377   */\n      swap2\n      pop\n        /* \"#utility.yul\":51386:51479   */\n      tag_1017\n        /* \"#utility.yul\":51475:51478   */\n      dup3\n        /* \"#utility.yul\":51386:51479   */\n      tag_587\n      jump\t// in\n    tag_1017:\n        /* \"#utility.yul\":51504:51506   */\n      0x20\n        /* \"#utility.yul\":51499:51502   */\n      dup3\n        /* \"#utility.yul\":51495:51507   */\n      add\n        /* \"#utility.yul\":51488:51507   */\n      swap1\n      pop\n        /* \"#utility.yul\":51147:51513   */\n      swap2\n      swap1\n      pop\n      jump\t// out\n        /* \"#utility.yul\":51519:51938   */\n    tag_379:\n        /* \"#utility.yul\":51685:51689   */\n      0x00\n        /* \"#utility.yul\":51723:51725   */\n      0x20\n        /* \"#utility.yul\":51712:51721   */\n      dup3\n        /* \"#utility.yul\":51708:51726   */\n      add\n        /* \"#utility.yul\":51700:51726   */\n      swap1\n      pop\n        /* \"#utility.yul\":51772:51781   */\n      dup2\n        /* \"#utility.yul\":51766:51770   */\n      dup2\n        /* \"#utility.yul\":51762:51782   */\n      sub\n        /* \"#utility.yul\":51758:51759   */\n      0x00\n        /* \"#utility.yul\":51747:51756   */\n      dup4\n        /* \"#utility.yul\":51743:51760   */\n      add\n        /* \"#utility.yul\":51736:51783   */\n      mstore\n        /* \"#utility.yul\":51800:51931   */\n      tag_1019\n        /* \"#utility.yul\":51926:51930   */\n      dup2\n        /* \"#utility.yul\":51800:51931   */\n      tag_588\n      jump\t// in\n    tag_1019:\n        /* \"#utility.yul\":51792:51931   */\n      swap1\n      pop\n        /* \"#utility.yul\":51519:51938   */\n      swap2\n      swap1\n      pop\n      jump\t// out\n        /* \"#utility.yul\":51944:52138   */\n    tag_393:\n        /* \"#utility.yul\":51984:51988   */\n      0x00\n        /* \"#utility.yul\":52004:52024   */\n      tag_1021\n        /* \"#utility.yul\":52022:52023   */\n      dup3\n        /* \"#utility.yul\":52004:52024   */\n      tag_487\n      jump\t// in\n    tag_1021:\n        /* \"#utility.yul\":51999:52024   */\n      swap2\n      pop\n        /* \"#utility.yul\":52038:52058   */\n      tag_1022\n        /* \"#utility.yul\":52056:52057   */\n      dup4\n        /* \"#utility.yul\":52038:52058   */\n      tag_487\n      jump\t// in\n    tag_1022:\n        /* \"#utility.yul\":52033:52058   */\n      swap3\n      pop\n        /* \"#utility.yul\":52082:52083   */\n      dup3\n        /* \"#utility.yul\":52079:52080   */\n      dup3\n        /* \"#utility.yul\":52075:52084   */\n      sub\n        /* \"#utility.yul\":52067:52084   */\n      swap1\n      pop\n        /* \"#utility.yul\":52106:52107   */\n      dup2\n        /* \"#utility.yul\":52100:52104   */\n      dup2\n        /* \"#utility.yul\":52097:52108   */\n      gt\n        /* \"#utility.yul\":52094:52131   */\n      iszero\n      tag_1023\n      jumpi\n        /* \"#utility.yul\":52111:52129   */\n      tag_1024\n      tag_549\n      jump\t// in\n    tag_1024:\n        /* \"#utility.yul\":52094:52131   */\n    tag_1023:\n        /* \"#utility.yul\":51944:52138   */\n      swap3\n      swap2\n      pop\n      pop\n      jump\t// out\n        /* \"#utility.yul\":52144:52312   */\n    tag_589:\n        /* \"#utility.yul\":52284:52304   */\n      0x496e76616c6964207061676520696e6465780000000000000000000000000000\n        /* \"#utility.yul\":52280:52281   */\n      0x00\n        /* \"#utility.yul\":52272:52278   */\n      dup3\n        /* \"#utility.yul\":52268:52282   */\n      add\n        /* \"#utility.yul\":52261:52305   */\n      mstore\n        /* \"#utility.yul\":52144:52312   */\n      pop\n      jump\t// out\n        /* \"#utility.yul\":52318:52684   */\n    tag_590:\n        /* \"#utility.yul\":52460:52463   */\n      0x00\n        /* \"#utility.yul\":52481:52548   */\n      tag_1027\n        /* \"#utility.yul\":52545:52547   */\n      0x12\n        /* \"#utility.yul\":52540:52543   */\n      dup4\n        /* \"#utility.yul\":52481:52548   */\n      tag_504\n      jump\t// in\n    tag_1027:\n        /* \"#utility.yul\":52474:52548   */\n      swap2\n      pop\n        /* \"#utility.yul\":52557:52650   */\n      tag_1028\n        /* \"#utility.yul\":52646:52649   */\n      dup3\n        /* \"#utility.yul\":52557:52650   */\n      tag_589\n      jump\t// in\n    tag_1028:\n        /* \"#utility.yul\":52675:52677   */\n      0x20\n        /* \"#utility.yul\":52670:52673   */\n      dup3\n        /* \"#utility.yul\":52666:52678   */\n      add\n        /* \"#utility.yul\":52659:52678   */\n      swap1\n      pop\n        /* \"#utility.yul\":52318:52684   */\n      swap2\n      swap1\n      pop\n      jump\t// out\n        /* \"#utility.yul\":52690:53109   */\n    tag_397:\n        /* \"#utility.yul\":52856:52860   */\n      0x00\n        /* \"#utility.yul\":52894:52896   */\n      0x20\n        /* \"#utility.yul\":52883:52892   */\n      dup3\n        /* \"#utility.yul\":52879:52897   */\n      add\n        /* \"#utility.yul\":52871:52897   */\n      swap1\n      pop\n        /* \"#utility.yul\":52943:52952   */\n      dup2\n        /* \"#utility.yul\":52937:52941   */\n      dup2\n        /* \"#utility.yul\":52933:52953   */\n      sub\n        /* \"#utility.yul\":52929:52930   */\n      0x00\n        /* \"#utility.yul\":52918:52927   */\n      dup4\n        /* \"#utility.yul\":52914:52931   */\n      add\n        /* \"#utility.yul\":52907:52954   */\n      mstore\n        /* \"#utility.yul\":52971:53102   */\n      tag_1030\n        /* \"#utility.yul\":53097:53101   */\n      dup2\n        /* \"#utility.yul\":52971:53102   */\n      tag_590\n      jump\t// in\n    tag_1030:\n        /* \"#utility.yul\":52963:53102   */\n      swap1\n      pop\n        /* \"#utility.yul\":52690:53109   */\n      swap2\n      swap1\n      pop\n      jump\t// out\n\n    auxdata: 0xa264697066735822122038a78e1ea194c0aed68ede92e178e7dd25783413f980e0f9f9f04bcfcca9d5a364736f6c634300081a0033\n}\n",
				"bytecode": {
					"linkReferences": {},
					"object": "6080604052662386f26fc100006001553480156019575f80fd5b50335f806101000a81548173ffffffffffffffffffffffffffffffffffffffff021916908373ffffffffffffffffffffffffffffffffffffffff16021790555060016002819055506001600381905550614a5d806100765f395ff3fe60806040526004361061013f575f3560e01c806361e78617116100b5578063d5999a5c1161006e578063d5999a5c14610431578063da2b4c1e1461045b578063e25f3e0214610485578063ee1589a5146104c1578063f4359ce5146104ff578063fd1df035146105295761013f565b806361e78617146103435780638da5cb5b1461036d57806390a3f58814610397578063934d1fa4146103b3578063b69ef8a8146103dd578063cba13030146104075761013f565b806331b1b9781161010757806331b1b9781461022c5780633ccfd60b146102715780634a8f164f1461028757806355ce8034146102c3578063572491c3146102ff57806359974e381461031b5761013f565b806301b49d471461014357806301fa3bec1461016b5780632401519c146101935780632690567e146101d457806327e235e3146101f0575b5f80fd5b34801561014e575f80fd5b50610169600480360381019061016491906131ac565b610567565b005b348015610176575f80fd5b50610191600480360381019061018c9190613326565b610775565b005b34801561019e575f80fd5b506101b960048036038101906101b491906131ac565b610c8b565b6040516101cb9695949392919061342e565b60405180910390f35b6101ee60048036038101906101e991906131ac565b610d73565b005b3480156101fb575f80fd5b50610216600480360381019061021191906134be565b611232565b60405161022391906134e9565b60405180910390f35b348015610237575f80fd5b50610252600480360381019061024d9190613502565b611247565b6040516102689a99989796959493929190613547565b60405180910390f35b34801561027c575f80fd5b50610285611454565b005b348015610292575f80fd5b506102ad60048036038101906102a891906131ac565b611560565b6040516102ba91906136e2565b60405180910390f35b3480156102ce575f80fd5b506102e960048036038101906102e49190613702565b611757565b6040516102f691906137f1565b60405180910390f35b61031960048036038101906103149190613834565b6118d4565b005b348015610326575f80fd5b50610341600480360381019061033c9190613502565b611bdc565b005b34801561034e575f80fd5b50610357611e96565b60405161036491906134e9565b60405180910390f35b348015610378575f80fd5b50610381611e9c565b60405161038e91906138ec565b60405180910390f35b6103b160048036038101906103ac91906131ac565b611ebf565b005b3480156103be575f80fd5b506103c7612260565b6040516103d491906134e9565b60405180910390f35b3480156103e8575f80fd5b506103f1612267565b6040516103fe91906134e9565b60405180910390f35b348015610412575f80fd5b5061041b61226e565b60405161042891906134e9565b60405180910390f35b34801561043c575f80fd5b50610445612274565b60405161045291906134e9565b60405180910390f35b348015610466575f80fd5b5061046f61227b565b60405161047c91906134e9565b60405180910390f35b348015610490575f80fd5b506104ab60048036038101906104a69190613502565b612281565b6040516104b891906139f9565b60405180910390f35b3480156104cc575f80fd5b506104e760048036038101906104e29190613a19565b61259e565b6040516104f693929190613baa565b60405180910390f35b34801561050a575f80fd5b50610513612bac565b60405161052091906134e9565b60405180910390f35b348015610534575f80fd5b5061054f600480360381019061054a91906131ac565b612bb3565b60405161055e93929190613d86565b60405180910390f35b815f73ffffffffffffffffffffffffffffffffffffffff1660045f8381526020019081526020015f206001015f9054906101000a900473ffffffffffffffffffffffffffffffffffffffff1673ffffffffffffffffffffffffffffffffffffffff1603610609576040517f08c379a000000000000000000000000000000000000000000000000000000000815260040161060090613e0c565b60405180910390fd5b8260045f8281526020019081526020015f206008015f9054906101000a900460ff161561066b576040517f08c379a000000000000000000000000000000000000000000000000000000000815260040161066290613e74565b60405180910390fd5b5f60045f8681526020019081526020015f209050806001015f9054906101000a900473ffffffffffffffffffffffffffffffffffffffff1673ffffffffffffffffffffffffffffffffffffffff163373ffffffffffffffffffffffffffffffffffffffff1614610710576040517f08c379a000000000000000000000000000000000000000000000000000000000815260040161070790613edc565b60405180910390fd5b6001816008015f6101000a81548160ff0219169083151502179055508381600901819055507f99fe2c8abd13b610e7f7d4a51a49e1391ba19454b72305176b884d66010e475a8585604051610766929190613efa565b60405180910390a15050505050565b815f73ffffffffffffffffffffffffffffffffffffffff1660045f8381526020019081526020015f206001015f9054906101000a900473ffffffffffffffffffffffffffffffffffffffff1673ffffffffffffffffffffffffffffffffffffffff1603610817576040517f08c379a000000000000000000000000000000000000000000000000000000000815260040161080e90613e0c565b60405180910390fd5b8260045f8281526020019081526020015f206008015f9054906101000a900460ff1615610879576040517f08c379a000000000000000000000000000000000000000000000000000000000815260040161087090613e74565b60405180910390fd5b5f60045f8681526020019081526020015f20604051806101400160405290815f8201548152602001600182015f9054906101000a900473ffffffffffffffffffffffffffffffffffffffff1673ffffffffffffffffffffffffffffffffffffffff1673ffffffffffffffffffffffffffffffffffffffff16815260200160028201805461090590613f4e565b80601f016020809104026020016040519081016040528092919081815260200182805461093190613f4e565b801561097c5780601f106109535761010080835404028352916020019161097c565b820191905f5260205f20905b81548152906001019060200180831161095f57829003601f168201915b5050505050815260200160038201805461099590613f4e565b80601f01602080910402602001604051908101604052809291908181526020018280546109c190613f4e565b8015610a0c5780601f106109e357610100808354040283529160200191610a0c565b820191905f5260205f20905b8154815290600101906020018083116109ef57829003601f168201915b50505050508152602001600482018054610a2590613f4e565b80601f0160208091040260200160405190810160405280929190818152602001828054610a5190613f4e565b8015610a9c5780601f10610a7357610100808354040283529160200191610a9c565b820191905f5260205f20905b815481529060010190602001808311610a7f57829003601f168201915b50505050508152602001600582015481526020016006820154815260200160078201548152602001600882015f9054906101000a900460ff1615151515815260200160098201548152505090508060e00151421115610b30576040517f08c379a0000000000000000000000000000000000000000000000000000000008152600401610b2790613fc8565b60405180910390fd5b5f60035f815480929190610b4390614013565b9190505590506040518060c001604052808281526020013373ffffffffffffffffffffffffffffffffffffffff1681526020018681526020015f81526020015f81526020014281525060055f8881526020019081526020015f205f8381526020019081526020015f205f820151815f01556020820151816001015f6101000a81548173ffffffffffffffffffffffffffffffffffffffff021916908373ffffffffffffffffffffffffffffffffffffffff1602179055506040820151816002019081610c0f91906141f7565b50606082015181600301556080820151816004015560a082015181600501559050503373ffffffffffffffffffffffffffffffffffffffff167f1b72a809869907cac4c4e55b8bf6920ff492d2ff53307bb77ba492366b61387c878388604051610c7b939291906142c6565b60405180910390a2505050505050565b6005602052815f5260405f20602052805f5260405f205f9150915050805f015490806001015f9054906101000a900473ffffffffffffffffffffffffffffffffffffffff1690806002018054610ce090613f4e565b80601f0160208091040260200160405190810160405280929190818152602001828054610d0c90613f4e565b8015610d575780601f10610d2e57610100808354040283529160200191610d57565b820191905f5260205f20905b815481529060010190602001808311610d3a57829003601f168201915b5050505050908060030154908060040154908060050154905086565b815f73ffffffffffffffffffffffffffffffffffffffff1660045f8381526020019081526020015f206001015f9054906101000a900473ffffffffffffffffffffffffffffffffffffffff1673ffffffffffffffffffffffffffffffffffffffff1603610e15576040517f08c379a0000000000000000000000000000000000000000000000000000000008152600401610e0c90613e0c565b60405180910390fd5b8260045f8281526020019081526020015f206008015f9054906101000a900460ff1615610e77576040517f08c379a0000000000000000000000000000000000000000000000000000000008152600401610e6e90613e74565b60405180910390fd5b5f60045f8681526020019081526020015f20604051806101400160405290815f8201548152602001600182015f9054906101000a900473ffffffffffffffffffffffffffffffffffffffff1673ffffffffffffffffffffffffffffffffffffffff1673ffffffffffffffffffffffffffffffffffffffff168152602001600282018054610f0390613f4e565b80601f0160208091040260200160405190810160405280929190818152602001828054610f2f90613f4e565b8015610f7a5780601f10610f5157610100808354040283529160200191610f7a565b820191905f5260205f20905b815481529060010190602001808311610f5d57829003601f168201915b50505050508152602001600382018054610f9390613f4e565b80601f0160208091040260200160405190810160405280929190818152602001828054610fbf90613f4e565b801561100a5780601f10610fe15761010080835404028352916020019161100a565b820191905f5260205f20905b815481529060010190602001808311610fed57829003601f168201915b5050505050815260200160048201805461102390613f4e565b80601f016020809104026020016040519081016040528092919081815260200182805461104f90613f4e565b801561109a5780601f106110715761010080835404028352916020019161109a565b820191905f5260205f20905b81548152906001019060200180831161107d57829003601f168201915b50505050508152602001600582015481526020016006820154815260200160078201548152602001600882015f9054906101000a900460ff1615151515815260200160098201548152505090508060e0015142111561112e576040517f08c379a00000000000000000000000000000000000000000000000000000000081526004016111259061434c565b60405180910390fd5b6001543414611172576040517f08c379a0000000000000000000000000000000000000000000000000000000008152600401611169906143b4565b60405180910390fd5b5f60055f8781526020019081526020015f205f8681526020019081526020015f2090506001816003015f8282546111a991906143d2565b925050819055503460045f8881526020019081526020015f206005015f8282546111d391906143d2565b925050819055503373ffffffffffffffffffffffffffffffffffffffff167fd91ecafccf238642dccd41161308b3eebe62a12bc5819daf5164780c221ec95b8787604051611222929190613efa565b60405180910390a2505050505050565b6006602052805f5260405f205f915090505481565b6004602052805f5260405f205f91509050805f015490806001015f9054906101000a900473ffffffffffffffffffffffffffffffffffffffff169080600201805461129190613f4e565b80601f01602080910402602001604051908101604052809291908181526020018280546112bd90613f4e565b80156113085780601f106112df57610100808354040283529160200191611308565b820191905f5260205f20905b8154815290600101906020018083116112eb57829003601f168201915b50505050509080600301805461131d90613f4e565b80601f016020809104026020016040519081016040528092919081815260200182805461134990613f4e565b80156113945780601f1061136b57610100808354040283529160200191611394565b820191905f5260205f20905b81548152906001019060200180831161137757829003601f168201915b5050505050908060040180546113a990613f4e565b80601f01602080910402602001604051908101604052809291908181526020018280546113d590613f4e565b80156114205780601f106113f757610100808354040283529160200191611420565b820191905f5260205f20905b81548152906001019060200180831161140357829003601f168201915b505050505090806005015490806006015490806007015490806008015f9054906101000a900460ff1690806009015490508a565b5f60065f3373ffffffffffffffffffffffffffffffffffffffff1673ffffffffffffffffffffffffffffffffffffffff1681526020019081526020015f205490505f81116114d7576040517f08c379a00000000000000000000000000000000000000000000000000000000081526004016114ce9061444f565b60405180910390fd5b5f60065f3373ffffffffffffffffffffffffffffffffffffffff1673ffffffffffffffffffffffffffffffffffffffff1681526020019081526020015f20819055503373ffffffffffffffffffffffffffffffffffffffff166108fc8290811502906040515f60405180830381858888f1935050505015801561155c573d5f803e3d5ffd5b5050565b6115686130bd565b5f73ffffffffffffffffffffffffffffffffffffffff1660055f8581526020019081526020015f205f8481526020019081526020015f206001015f9054906101000a900473ffffffffffffffffffffffffffffffffffffffff1673ffffffffffffffffffffffffffffffffffffffff1603611618576040517f08c379a000000000000000000000000000000000000000000000000000000000815260040161160f906144b7565b60405180910390fd5b60055f8481526020019081526020015f205f8381526020019081526020015f206040518060c00160405290815f8201548152602001600182015f9054906101000a900473ffffffffffffffffffffffffffffffffffffffff1673ffffffffffffffffffffffffffffffffffffffff1673ffffffffffffffffffffffffffffffffffffffff1681526020016002820180546116b190613f4e565b80601f01602080910402602001604051908101604052809291908181526020018280546116dd90613f4e565b80156117285780601f106116ff57610100808354040283529160200191611728565b820191905f5260205f20905b81548152906001019060200180831161170b57829003601f168201915b505050505081526020016003820154815260200160048201548152602001600582015481525050905092915050565b60605f60025467ffffffffffffffff81111561177657611775613202565b5b6040519080825280602002602001820160405280156117a45781602001602082028036833780820191505090505b5090505f80600190505b60025481101561182a57848051906020012060045f8381526020019081526020015f206004016040516117e19190614571565b60405180910390200361181d578083838151811061180257611801614587565b5b602002602001018181525050818061181990614013565b9250505b80806001019150506117ae565b505f8167ffffffffffffffff81111561184657611845613202565b5b6040519080825280602002602001820160405280156118745781602001602082028036833780820191505090505b5090505f5b828110156118c85783818151811061189457611893614587565b5b60200260200101518282815181106118af576118ae614587565b5b6020026020010181815250508080600101915050611879565b50809350505050919050565b5f3411611916576040517f08c379a000000000000000000000000000000000000000000000000000000000815260040161190d906145fe565b60405180910390fd5b5f825111611959576040517f08c379a000000000000000000000000000000000000000000000000000000000815260040161195090614666565b60405180910390fd5b5f80600281111561196d5761196c614684565b5b8260028111156119805761197f614684565b5b0361199b5762093a804261199491906143d2565b9050611a1c565b600160028111156119af576119ae614684565b5b8260028111156119c2576119c1614684565b5b036119dd5762127500426119d691906143d2565b9050611a1b565b6002808111156119f0576119ef614684565b5b826002811115611a0357611a02614684565b5b03611a1a5762278d0042611a1791906143d2565b90505b5b5b5f60025f815480929190611a2f90614013565b9190505590506040518061014001604052808281526020013373ffffffffffffffffffffffffffffffffffffffff1681526020018781526020018681526020018581526020013481526020014281526020018381526020015f151581526020015f81525060045f8381526020019081526020015f205f820151815f01556020820151816001015f6101000a81548173ffffffffffffffffffffffffffffffffffffffff021916908373ffffffffffffffffffffffffffffffffffffffff1602179055506040820151816002019081611b0791906141f7565b506060820151816003019081611b1d91906141f7565b506080820151816004019081611b3391906141f7565b5060a0820151816005015560c0820151816006015560e08201518160070155610100820151816008015f6101000a81548160ff02191690831515021790555061012082015181600901559050503373ffffffffffffffffffffffffffffffffffffffff167fb8105899d34d8481e717a601e8d7a732c27b0ab23778e01145f2f3eb24a1120c82883488604051611bcc94939291906146b1565b60405180910390a2505050505050565b805f73ffffffffffffffffffffffffffffffffffffffff1660045f8381526020019081526020015f206001015f9054906101000a900473ffffffffffffffffffffffffffffffffffffffff1673ffffffffffffffffffffffffffffffffffffffff1603611c7e576040517f08c379a0000000000000000000000000000000000000000000000000000000008152600401611c7590613e0c565b60405180910390fd5b5f60045f8481526020019081526020015f20905080600701544211611cd8576040517f08c379a0000000000000000000000000000000000000000000000000000000008152600401611ccf90614772565b60405180910390fd5b806008015f9054906101000a900460ff1615611d29576040517f08c379a0000000000000000000000000000000000000000000000000000000008152600401611d2090613e74565b60405180910390fd5b5f80826005015490505f5b600354811015611d7c5760055f8781526020019081526020015f205f8281526020019081526020015f206003015483611d6d91906143d2565b92508080600101915050611d34565b505f5b600354811015611e72575f60055f8881526020019081526020015f205f8381526020019081526020015f2090505f841115611e64575f84848360030154611dc69190614790565b611dd091906147fe565b905080826004015f828254611de591906143d2565b925050819055508060065f846001015f9054906101000a900473ffffffffffffffffffffffffffffffffffffffff1673ffffffffffffffffffffffffffffffffffffffff1673ffffffffffffffffffffffffffffffffffffffff1681526020019081526020015f205f828254611e5b91906143d2565b92505081905550505b508080600101915050611d7f565b506001836008015f6101000a81548160ff0219169083151502179055505050505050565b60025481565b5f8054906101000a900473ffffffffffffffffffffffffffffffffffffffff1681565b5f73ffffffffffffffffffffffffffffffffffffffff1660045f8481526020019081526020015f206001015f9054906101000a900473ffffffffffffffffffffffffffffffffffffffff1673ffffffffffffffffffffffffffffffffffffffff1603611f60576040517f08c379a0000000000000000000000000000000000000000000000000000000008152600401611f5790613e0c565b60405180910390fd5b60045f8381526020019081526020015f206001015f9054906101000a900473ffffffffffffffffffffffffffffffffffffffff1673ffffffffffffffffffffffffffffffffffffffff163373ffffffffffffffffffffffffffffffffffffffff1614612001576040517f08c379a0000000000000000000000000000000000000000000000000000000008152600401611ff89061489e565b60405180910390fd5b5f73ffffffffffffffffffffffffffffffffffffffff1660055f8481526020019081526020015f205f8381526020019081526020015f206001015f9054906101000a900473ffffffffffffffffffffffffffffffffffffffff1673ffffffffffffffffffffffffffffffffffffffff16036120b1576040517f08c379a00000000000000000000000000000000000000000000000000000000081526004016120a8906144b7565b60405180910390fd5b60045f8381526020019081526020015f206008015f9054906101000a900460ff1615612112576040517f08c379a000000000000000000000000000000000000000000000000000000000815260040161210990613e74565b60405180910390fd5b600160045f8481526020019081526020015f206008015f6101000a81548160ff0219169083151502179055508060045f8481526020019081526020015f20600901819055505f60055f8481526020019081526020015f205f8381526020019081526020015f206001015f9054906101000a900473ffffffffffffffffffffffffffffffffffffffff1690505f60045f8581526020019081526020015f206005015490508060055f8681526020019081526020015f205f8581526020019081526020015f20600401819055508173ffffffffffffffffffffffffffffffffffffffff166108fc8290811502906040515f60405180830381858888f19350505050158015612220573d5f803e3d5ffd5b507f99fe2c8abd13b610e7f7d4a51a49e1391ba19454b72305176b884d66010e475a8484604051612252929190613efa565b60405180910390a150505050565b6212750081565b5f47905090565b60035481565b62278d0081565b60015481565b612289613104565b5f73ffffffffffffffffffffffffffffffffffffffff1660045f8481526020019081526020015f206001015f9054906101000a900473ffffffffffffffffffffffffffffffffffffffff1673ffffffffffffffffffffffffffffffffffffffff160361232a576040517f08c379a000000000000000000000000000000000000000000000000000000000815260040161232190613e0c565b60405180910390fd5b60045f8381526020019081526020015f20604051806101400160405290815f8201548152602001600182015f9054906101000a900473ffffffffffffffffffffffffffffffffffffffff1673ffffffffffffffffffffffffffffffffffffffff1673ffffffffffffffffffffffffffffffffffffffff1681526020016002820180546123b590613f4e565b80601f01602080910402602001604051908101604052809291908181526020018280546123e190613f4e565b801561242c5780601f106124035761010080835404028352916020019161242c565b820191905f5260205f20905b81548152906001019060200180831161240f57829003601f168201915b5050505050815260200160038201805461244590613f4e565b80601f016020809104026020016040519081016040528092919081815260200182805461247190613f4e565b80156124bc5780601f10612493576101008083540402835291602001916124bc565b820191905f5260205f20905b81548152906001019060200180831161249f57829003601f168201915b505050505081526020016004820180546124d590613f4e565b80601f016020809104026020016040519081016040528092919081815260200182805461250190613f4e565b801561254c5780601f106125235761010080835404028352916020019161254c565b820191905f5260205f20905b81548152906001019060200180831161252f57829003601f168201915b50505050508152602001600582015481526020016006820154815260200160078201548152602001600882015f9054906101000a900460ff161515151581526020016009820154815250509050919050565b60605f805f73ffffffffffffffffffffffffffffffffffffffff1660045f8881526020019081526020015f206001015f9054906101000a900473ffffffffffffffffffffffffffffffffffffffff1673ffffffffffffffffffffffffffffffffffffffff1603612643576040517f08c379a000000000000000000000000000000000000000000000000000000000815260040161263a90613e0c565b60405180910390fd5b5f8511612685576040517f08c379a000000000000000000000000000000000000000000000000000000000815260040161267c90614906565b60405180910390fd5b5f84116126c7576040517f08c379a00000000000000000000000000000000000000000000000000000000081526004016126be9061496e565b60405180910390fd5b5f80600190505b600354811015612769575f73ffffffffffffffffffffffffffffffffffffffff1660055f8a81526020019081526020015f205f8381526020019081526020015f206001015f9054906101000a900473ffffffffffffffffffffffffffffffffffffffff1673ffffffffffffffffffffffffffffffffffffffff161461275c57818061275890614013565b9250505b80806001019150506126ce565b508092505f83036127d6575f67ffffffffffffffff81111561278e5761278d613202565b5b6040519080825280602002602001820160405280156127c757816020015b6127b46130bd565b8152602001906001900390816127ac5790505b505f8093509350935050612ba3565b84600186856127e591906143d2565b6127ef919061498c565b6127f991906147fe565b91508186111561283e576040517f08c379a000000000000000000000000000000000000000000000000000000000815260040161283590614a09565b60405180910390fd5b5f60018660018961284f919061498c565b6128599190614790565b61286391906143d2565b90505f6001878361287491906143d2565b61287e919061498c565b9050600160035461288f919061498c565b8111156128a85760016003546128a5919061498c565b90505b5f808390505b82811161294c575f73ffffffffffffffffffffffffffffffffffffffff1660055f8d81526020019081526020015f205f8381526020019081526020015f206001015f9054906101000a900473ffffffffffffffffffffffffffffffffffffffff1673ffffffffffffffffffffffffffffffffffffffff161461293957818061293590614013565b9250505b808061294490614013565b9150506128ae565b508067ffffffffffffffff81111561296757612966613202565b5b6040519080825280602002602001820160405280156129a057816020015b61298d6130bd565b8152602001906001900390816129855790505b5096505f808490505b838111612b9c575f73ffffffffffffffffffffffffffffffffffffffff1660055f8e81526020019081526020015f205f8381526020019081526020015f206001015f9054906101000a900473ffffffffffffffffffffffffffffffffffffffff1673ffffffffffffffffffffffffffffffffffffffff1614612b895760055f8d81526020019081526020015f205f8281526020019081526020015f206040518060c00160405290815f8201548152602001600182015f9054906101000a900473ffffffffffffffffffffffffffffffffffffffff1673ffffffffffffffffffffffffffffffffffffffff1673ffffffffffffffffffffffffffffffffffffffff168152602001600282018054612abe90613f4e565b80601f0160208091040260200160405190810160405280929190818152602001828054612aea90613f4e565b8015612b355780601f10612b0c57610100808354040283529160200191612b35565b820191905f5260205f20905b815481529060010190602001808311612b1857829003601f168201915b505050505081526020016003820154815260200160048201548152602001600582015481525050898381518110612b6f57612b6e614587565b5b60200260200101819052508180612b8590614013565b9250505b8080612b9490614013565b9150506129a9565b5050505050505b93509350939050565b62093a8081565b60605f805f8511612bf9576040517f08c379a0000000000000000000000000000000000000000000000000000000008152600401612bf090614906565b60405180910390fd5b5f8411612c3b576040517f08c379a0000000000000000000000000000000000000000000000000000000008152600401612c329061496e565b60405180910390fd5b6001600254612c4a919061498c565b91505f8203612cb4575f67ffffffffffffffff811115612c6d57612c6c613202565b5b604051908082528060200260200182016040528015612ca657816020015b612c93613104565b815260200190600190039081612c8b5790505b505f809250925092506130b6565b8360018584612cc391906143d2565b612ccd919061498c565b612cd791906147fe565b905080851115612d1c576040517f08c379a0000000000000000000000000000000000000000000000000000000008152600401612d1390614a09565b60405180910390fd5b5f600185600188612d2d919061498c565b612d379190614790565b612d4191906143d2565b90505f60018683612d5291906143d2565b612d5c919061498c565b90506001600254612d6d919061498c565b811115612d86576001600254612d83919061498c565b90505b5f60018383612d95919061498c565b612d9f91906143d2565b90508067ffffffffffffffff811115612dbb57612dba613202565b5b604051908082528060200260200182016040528015612df457816020015b612de1613104565b815260200190600190039081612dd95790505b5095505f808490505b8381116130b05760045f8281526020019081526020015f20604051806101400160405290815f8201548152602001600182015f9054906101000a900473ffffffffffffffffffffffffffffffffffffffff1673ffffffffffffffffffffffffffffffffffffffff1673ffffffffffffffffffffffffffffffffffffffff168152602001600282018054612e8f90613f4e565b80601f0160208091040260200160405190810160405280929190818152602001828054612ebb90613f4e565b8015612f065780601f10612edd57610100808354040283529160200191612f06565b820191905f5260205f20905b815481529060010190602001808311612ee957829003601f168201915b50505050508152602001600382018054612f1f90613f4e565b80601f0160208091040260200160405190810160405280929190818152602001828054612f4b90613f4e565b8015612f965780601f10612f6d57610100808354040283529160200191612f96565b820191905f5260205f20905b815481529060010190602001808311612f7957829003601f168201915b50505050508152602001600482018054612faf90613f4e565b80601f0160208091040260200160405190810160405280929190818152602001828054612fdb90613f4e565b80156130265780601f10612ffd57610100808354040283529160200191613026565b820191905f5260205f20905b81548152906001019060200180831161300957829003601f168201915b50505050508152602001600582015481526020016006820154815260200160078201548152602001600882015f9054906101000a900460ff1615151515815260200160098201548152505088838151811061308457613083614587565b5b6020026020010181905250818061309a90614013565b92505080806130a890614013565b915050612dfd565b50505050505b9250925092565b6040518060c001604052805f81526020015f73ffffffffffffffffffffffffffffffffffffffff168152602001606081526020015f81526020015f81526020015f81525090565b6040518061014001604052805f81526020015f73ffffffffffffffffffffffffffffffffffffffff1681526020016060815260200160608152602001606081526020015f81526020015f81526020015f81526020015f151581526020015f81525090565b5f604051905090565b5f80fd5b5f80fd5b5f819050919050565b61318b81613179565b8114613195575f80fd5b50565b5f813590506131a681613182565b92915050565b5f80604083850312156131c2576131c1613171565b5b5f6131cf85828601613198565b92505060206131e085828601613198565b9150509250929050565b5f80fd5b5f80fd5b5f601f19601f8301169050919050565b7f4e487b71000000000000000000000000000000000000000000000000000000005f52604160045260245ffd5b613238826131f2565b810181811067ffffffffffffffff8211171561325757613256613202565b5b80604052505050565b5f613269613168565b9050613275828261322f565b919050565b5f67ffffffffffffffff82111561329457613293613202565b5b61329d826131f2565b9050602081019050919050565b828183375f83830152505050565b5f6132ca6132c58461327a565b613260565b9050828152602081018484840111156132e6576132e56131ee565b5b6132f18482856132aa565b509392505050565b5f82601f83011261330d5761330c6131ea565b5b813561331d8482602086016132b8565b91505092915050565b5f806040838503121561333c5761333b613171565b5b5f61334985828601613198565b925050602083013567ffffffffffffffff81111561336a57613369613175565b5b613376858286016132f9565b9150509250929050565b61338981613179565b82525050565b5f73ffffffffffffffffffffffffffffffffffffffff82169050919050565b5f6133b88261338f565b9050919050565b6133c8816133ae565b82525050565b5f81519050919050565b5f82825260208201905092915050565b8281835e5f83830152505050565b5f613400826133ce565b61340a81856133d8565b935061341a8185602086016133e8565b613423816131f2565b840191505092915050565b5f60c0820190506134415f830189613380565b61344e60208301886133bf565b818103604083015261346081876133f6565b905061346f6060830186613380565b61347c6080830185613380565b61348960a0830184613380565b979650505050505050565b61349d816133ae565b81146134a7575f80fd5b50565b5f813590506134b881613494565b92915050565b5f602082840312156134d3576134d2613171565b5b5f6134e0848285016134aa565b91505092915050565b5f6020820190506134fc5f830184613380565b92915050565b5f6020828403121561351757613516613171565b5b5f61352484828501613198565b91505092915050565b5f8115159050919050565b6135418161352d565b82525050565b5f6101408201905061355b5f83018d613380565b613568602083018c6133bf565b818103604083015261357a818b6133f6565b9050818103606083015261358e818a6133f6565b905081810360808301526135a281896133f6565b90506135b160a0830188613380565b6135be60c0830187613380565b6135cb60e0830186613380565b6135d9610100830185613538565b6135e7610120830184613380565b9b9a5050505050505050505050565b6135ff81613179565b82525050565b61360e816133ae565b82525050565b5f82825260208201905092915050565b5f61362e826133ce565b6136388185613614565b93506136488185602086016133e8565b613651816131f2565b840191505092915050565b5f60c083015f8301516136715f8601826135f6565b5060208301516136846020860182613605565b506040830151848203604086015261369c8282613624565b91505060608301516136b160608601826135f6565b5060808301516136c460808601826135f6565b5060a08301516136d760a08601826135f6565b508091505092915050565b5f6020820190508181035f8301526136fa818461365c565b905092915050565b5f6020828403121561371757613716613171565b5b5f82013567ffffffffffffffff81111561373457613733613175565b5b613740848285016132f9565b91505092915050565b5f81519050919050565b5f82825260208201905092915050565b5f819050602082019050919050565b5f61377d83836135f6565b60208301905092915050565b5f602082019050919050565b5f61379f82613749565b6137a98185613753565b93506137b483613763565b805f5b838110156137e45781516137cb8882613772565b97506137d683613789565b9250506001810190506137b7565b5085935050505092915050565b5f6020820190508181035f8301526138098184613795565b905092915050565b6003811061381d575f80fd5b50565b5f8135905061382e81613811565b92915050565b5f805f806080858703121561384c5761384b613171565b5b5f85013567ffffffffffffffff81111561386957613868613175565b5b613875878288016132f9565b945050602085013567ffffffffffffffff81111561389657613895613175565b5b6138a2878288016132f9565b935050604085013567ffffffffffffffff8111156138c3576138c2613175565b5b6138cf878288016132f9565b92505060606138e087828801613820565b91505092959194509250565b5f6020820190506138ff5f8301846133bf565b92915050565b61390e8161352d565b82525050565b5f61014083015f83015161392a5f8601826135f6565b50602083015161393d6020860182613605565b50604083015184820360408601526139558282613624565b9150506060830151848203606086015261396f8282613624565b915050608083015184820360808601526139898282613624565b91505060a083015161399e60a08601826135f6565b5060c08301516139b160c08601826135f6565b5060e08301516139c460e08601826135f6565b506101008301516139d9610100860182613905565b506101208301516139ee6101208601826135f6565b508091505092915050565b5f6020820190508181035f830152613a118184613914565b905092915050565b5f805f60608486031215613a3057613a2f613171565b5b5f613a3d86828701613198565b9350506020613a4e86828701613198565b9250506040613a5f86828701613198565b9150509250925092565b5f81519050919050565b5f82825260208201905092915050565b5f819050602082019050919050565b5f60c083015f830151613aa75f8601826135f6565b506020830151613aba6020860182613605565b5060408301518482036040860152613ad28282613624565b9150506060830151613ae760608601826135f6565b506080830151613afa60808601826135f6565b5060a0830151613b0d60a08601826135f6565b508091505092915050565b5f613b238383613a92565b905092915050565b5f602082019050919050565b5f613b4182613a69565b613b4b8185613a73565b935083602082028501613b5d85613a83565b805f5b85811015613b985784840389528151613b798582613b18565b9450613b8483613b2b565b925060208a01995050600181019050613b60565b50829750879550505050505092915050565b5f6060820190508181035f830152613bc28186613b37565b9050613bd16020830185613380565b613bde6040830184613380565b949350505050565b5f81519050919050565b5f82825260208201905092915050565b5f819050602082019050919050565b5f61014083015f830151613c255f8601826135f6565b506020830151613c386020860182613605565b5060408301518482036040860152613c508282613624565b91505060608301518482036060860152613c6a8282613624565b91505060808301518482036080860152613c848282613624565b91505060a0830151613c9960a08601826135f6565b5060c0830151613cac60c08601826135f6565b5060e0830151613cbf60e08601826135f6565b50610100830151613cd4610100860182613905565b50610120830151613ce96101208601826135f6565b508091505092915050565b5f613cff8383613c0f565b905092915050565b5f602082019050919050565b5f613d1d82613be6565b613d278185613bf0565b935083602082028501613d3985613c00565b805f5b85811015613d745784840389528151613d558582613cf4565b9450613d6083613d07565b925060208a01995050600181019050613d3c565b50829750879550505050505092915050565b5f6060820190508181035f830152613d9e8186613d13565b9050613dad6020830185613380565b613dba6040830184613380565b949350505050565b7f5175657374696f6e20646f6573206e6f742065786973740000000000000000005f82015250565b5f613df66017836133d8565b9150613e0182613dc2565b602082019050919050565b5f6020820190508181035f830152613e2381613dea565b9050919050565b7f5175657374696f6e20697320616c726561647920636c6f7365640000000000005f82015250565b5f613e5e601a836133d8565b9150613e6982613e2a565b602082019050919050565b5f6020820190508181035f830152613e8b81613e52565b9050919050565b7f4f6e6c792061736b65722063616e20636c6f7365207175657374696f6e0000005f82015250565b5f613ec6601d836133d8565b9150613ed182613e92565b602082019050919050565b5f6020820190508181035f830152613ef381613eba565b9050919050565b5f604082019050613f0d5f830185613380565b613f1a6020830184613380565b9392505050565b7f4e487b71000000000000000000000000000000000000000000000000000000005f52602260045260245ffd5b5f6002820490506001821680613f6557607f821691505b602082108103613f7857613f77613f21565b5b50919050565b7f5175657374696f6e20646561646c696e652068617320706173736564000000005f82015250565b5f613fb2601c836133d8565b9150613fbd82613f7e565b602082019050919050565b5f6020820190508181035f830152613fdf81613fa6565b9050919050565b7f4e487b71000000000000000000000000000000000000000000000000000000005f52601160045260245ffd5b5f61401d82613179565b91507fffffffffffffffffffffffffffffffffffffffffffffffffffffffffffffffff820361404f5761404e613fe6565b5b600182019050919050565b5f819050815f5260205f209050919050565b5f6020601f8301049050919050565b5f82821b905092915050565b5f600883026140b67fffffffffffffffffffffffffffffffffffffffffffffffffffffffffffffffff8261407b565b6140c0868361407b565b95508019841693508086168417925050509392505050565b5f819050919050565b5f6140fb6140f66140f184613179565b6140d8565b613179565b9050919050565b5f819050919050565b614114836140e1565b61412861412082614102565b848454614087565b825550505050565b5f90565b61413c614130565b61414781848461410b565b505050565b5b8181101561416a5761415f5f82614134565b60018101905061414d565b5050565b601f8211156141af576141808161405a565b6141898461406c565b81016020851015614198578190505b6141ac6141a48561406c565b83018261414c565b50505b505050565b5f82821c905092915050565b5f6141cf5f19846008026141b4565b1980831691505092915050565b5f6141e783836141c0565b9150826002028217905092915050565b614200826133ce565b67ffffffffffffffff81111561421957614218613202565b5b6142238254613f4e565b61422e82828561416e565b5f60209050601f83116001811461425f575f841561424d578287015190505b61425785826141dc565b8655506142be565b601f19841661426d8661405a565b5f5b828110156142945784890151825560018201915060208501945060208101905061426f565b868310156142b157848901516142ad601f8916826141c0565b8355505b6001600288020188555050505b505050505050565b5f6060820190506142d95f830186613380565b6142e66020830185613380565b81810360408301526142f881846133f6565b9050949350505050565b7f566f74696e6720706572696f642068617320656e6465640000000000000000005f82015250565b5f6143366017836133d8565b915061434182614302565b602082019050919050565b5f6020820190508181035f8301526143638161432a565b9050919050565b7f496e636f727265637420766f74652066656500000000000000000000000000005f82015250565b5f61439e6012836133d8565b91506143a98261436a565b602082019050919050565b5f6020820190508181035f8301526143cb81614392565b9050919050565b5f6143dc82613179565b91506143e783613179565b92508282019050808211156143ff576143fe613fe6565b5b92915050565b7f4e6f2066756e647320746f2077697468647261770000000000000000000000005f82015250565b5f6144396014836133d8565b915061444482614405565b602082019050919050565b5f6020820190508181035f8301526144668161442d565b9050919050565b7f416e7377657220646f6573206e6f7420657869737400000000000000000000005f82015250565b5f6144a16015836133d8565b91506144ac8261446d565b602082019050919050565b5f6020820190508181035f8301526144ce81614495565b9050919050565b5f81905092915050565b5f819050815f5260205f209050919050565b5f81546144fd81613f4e565b61450781866144d5565b9450600182165f8114614521576001811461453657614568565b60ff1983168652811515820286019350614568565b61453f856144df565b5f5b8381101561456057815481890152600182019150602081019050614541565b838801955050505b50505092915050565b5f61457c82846144f1565b915081905092915050565b7f4e487b71000000000000000000000000000000000000000000000000000000005f52603260045260245ffd5b7f526577617264206d7573742062652067726561746572207468616e207a65726f5f82015250565b5f6145e86020836133d8565b91506145f3826145b4565b602082019050919050565b5f6020820190508181035f830152614615816145dc565b9050919050565b7f43617465676f72792063616e6e6f7420626520656d70747900000000000000005f82015250565b5f6146506018836133d8565b915061465b8261461c565b602082019050919050565b5f6020820190508181035f83015261467d81614644565b9050919050565b7f4e487b71000000000000000000000000000000000000000000000000000000005f52602160045260245ffd5b5f6080820190506146c45f830187613380565b81810360208301526146d681866133f6565b90506146e56040830185613380565b81810360608301526146f781846133f6565b905095945050505050565b7f43616e6e6f742064697374726962757465206265666f726520646561646c696e5f8201527f6500000000000000000000000000000000000000000000000000000000000000602082015250565b5f61475c6021836133d8565b915061476782614702565b604082019050919050565b5f6020820190508181035f83015261478981614750565b9050919050565b5f61479a82613179565b91506147a583613179565b92508282026147b381613179565b915082820484148315176147ca576147c9613fe6565b5b5092915050565b7f4e487b71000000000000000000000000000000000000000000000000000000005f52601260045260245ffd5b5f61480882613179565b915061481383613179565b925082614823576148226147d1565b5b828204905092915050565b7f4f6e6c79207175657374696f6e2061736b65722063616e2073656c65637420745f8201527f6865206265737420616e73776572000000000000000000000000000000000000602082015250565b5f614888602e836133d8565b91506148938261482e565b604082019050919050565b5f6020820190508181035f8301526148b58161487c565b9050919050565b7f5061676520696e646578206d7573742073746172742066726f6d2031000000005f82015250565b5f6148f0601c836133d8565b91506148fb826148bc565b602082019050919050565b5f6020820190508181035f83015261491d816148e4565b9050919050565b7f506167652073697a65206d7573742062652067726561746572207468616e20305f82015250565b5f6149586020836133d8565b915061496382614924565b602082019050919050565b5f6020820190508181035f8301526149858161494c565b9050919050565b5f61499682613179565b91506149a183613179565b92508282039050818111156149b9576149b8613fe6565b5b92915050565b7f496e76616c6964207061676520696e64657800000000000000000000000000005f82015250565b5f6149f36012836133d8565b91506149fe826149bf565b602082019050919050565b5f6020820190508181035f830152614a20816149e7565b905091905056fea264697066735822122038a78e1ea194c0aed68ede92e178e7dd25783413f980e0f9f9f04bcfcca9d5a364736f6c634300081a0033",
					"opcodes": "PUSH1 0x80 PUSH1 0x40 MSTORE PUSH7 0x2386F26FC10000 PUSH1 0x1 SSTORE CALLVALUE DUP1 ISZERO PUSH1 0x19 JUMPI PUSH0 DUP1 REVERT JUMPDEST POP CALLER PUSH0 DUP1 PUSH2 0x100 EXP DUP2 SLOAD DUP2 PUSH20 0xFFFFFFFFFFFFFFFFFFFFFFFFFFFFFFFFFFFFFFFF MUL NOT AND SWAP1 DUP4 PUSH20 0xFFFFFFFFFFFFFFFFFFFFFFFFFFFFFFFFFFFFFFFF AND MUL OR SWAP1 SSTORE POP PUSH1 0x1 PUSH1 0x2 DUP2 SWAP1 SSTORE POP PUSH1 0x1 PUSH1 0x3 DUP2 SWAP1 SSTORE POP PUSH2 0x4A5D DUP1 PUSH2 0x76 PUSH0 CODECOPY PUSH0 RETURN INVALID PUSH1 0x80 PUSH1 0x40 MSTORE PUSH1 0x4 CALLDATASIZE LT PUSH2 0x13F JUMPI PUSH0 CALLDATALOAD PUSH1 0xE0 SHR DUP1 PUSH4 0x61E78617 GT PUSH2 0xB5 JUMPI DUP1 PUSH4 0xD5999A5C GT PUSH2 0x6E JUMPI DUP1 PUSH4 0xD5999A5C EQ PUSH2 0x431 JUMPI DUP1 PUSH4 0xDA2B4C1E EQ PUSH2 0x45B JUMPI DUP1 PUSH4 0xE25F3E02 EQ PUSH2 0x485 JUMPI DUP1 PUSH4 0xEE1589A5 EQ PUSH2 0x4C1 JUMPI DUP1 PUSH4 0xF4359CE5 EQ PUSH2 0x4FF JUMPI DUP1 PUSH4 0xFD1DF035 EQ PUSH2 0x529 JUMPI PUSH2 0x13F JUMP JUMPDEST DUP1 PUSH4 0x61E78617 EQ PUSH2 0x343 JUMPI DUP1 PUSH4 0x8DA5CB5B EQ PUSH2 0x36D JUMPI DUP1 PUSH4 0x90A3F588 EQ PUSH2 0x397 JUMPI DUP1 PUSH4 0x934D1FA4 EQ PUSH2 0x3B3 JUMPI DUP1 PUSH4 0xB69EF8A8 EQ PUSH2 0x3DD JUMPI DUP1 PUSH4 0xCBA13030 EQ PUSH2 0x407 JUMPI PUSH2 0x13F JUMP JUMPDEST DUP1 PUSH4 0x31B1B978 GT PUSH2 0x107 JUMPI DUP1 PUSH4 0x31B1B978 EQ PUSH2 0x22C JUMPI DUP1 PUSH4 0x3CCFD60B EQ PUSH2 0x271 JUMPI DUP1 PUSH4 0x4A8F164F EQ PUSH2 0x287 JUMPI DUP1 PUSH4 0x55CE8034 EQ PUSH2 0x2C3 JUMPI DUP1 PUSH4 0x572491C3 EQ PUSH2 0x2FF JUMPI DUP1 PUSH4 0x59974E38 EQ PUSH2 0x31B JUMPI PUSH2 0x13F JUMP JUMPDEST DUP1 PUSH4 0x1B49D47 EQ PUSH2 0x143 JUMPI DUP1 PUSH4 0x1FA3BEC EQ PUSH2 0x16B JUMPI DUP1 PUSH4 0x2401519C EQ PUSH2 0x193 JUMPI DUP1 PUSH4 0x2690567E EQ PUSH2 0x1D4 JUMPI DUP1 PUSH4 0x27E235E3 EQ PUSH2 0x1F0 JUMPI JUMPDEST PUSH0 DUP1 REVERT JUMPDEST CALLVALUE DUP1 ISZERO PUSH2 0x14E JUMPI PUSH0 DUP1 REVERT JUMPDEST POP PUSH2 0x169 PUSH1 0x4 DUP1 CALLDATASIZE SUB DUP2 ADD SWAP1 PUSH2 0x164 SWAP2 SWAP1 PUSH2 0x31AC JUMP JUMPDEST PUSH2 0x567 JUMP JUMPDEST STOP JUMPDEST CALLVALUE DUP1 ISZERO PUSH2 0x176 JUMPI PUSH0 DUP1 REVERT JUMPDEST POP PUSH2 0x191 PUSH1 0x4 DUP1 CALLDATASIZE SUB DUP2 ADD SWAP1 PUSH2 0x18C SWAP2 SWAP1 PUSH2 0x3326 JUMP JUMPDEST PUSH2 0x775 JUMP JUMPDEST STOP JUMPDEST CALLVALUE DUP1 ISZERO PUSH2 0x19E JUMPI PUSH0 DUP1 REVERT JUMPDEST POP PUSH2 0x1B9 PUSH1 0x4 DUP1 CALLDATASIZE SUB DUP2 ADD SWAP1 PUSH2 0x1B4 SWAP2 SWAP1 PUSH2 0x31AC JUMP JUMPDEST PUSH2 0xC8B JUMP JUMPDEST PUSH1 0x40 MLOAD PUSH2 0x1CB SWAP7 SWAP6 SWAP5 SWAP4 SWAP3 SWAP2 SWAP1 PUSH2 0x342E JUMP JUMPDEST PUSH1 0x40 MLOAD DUP1 SWAP2 SUB SWAP1 RETURN JUMPDEST PUSH2 0x1EE PUSH1 0x4 DUP1 CALLDATASIZE SUB DUP2 ADD SWAP1 PUSH2 0x1E9 SWAP2 SWAP1 PUSH2 0x31AC JUMP JUMPDEST PUSH2 0xD73 JUMP JUMPDEST STOP JUMPDEST CALLVALUE DUP1 ISZERO PUSH2 0x1FB JUMPI PUSH0 DUP1 REVERT JUMPDEST POP PUSH2 0x216 PUSH1 0x4 DUP1 CALLDATASIZE SUB DUP2 ADD SWAP1 PUSH2 0x211 SWAP2 SWAP1 PUSH2 0x34BE JUMP JUMPDEST PUSH2 0x1232 JUMP JUMPDEST PUSH1 0x40 MLOAD PUSH2 0x223 SWAP2 SWAP1 PUSH2 0x34E9 JUMP JUMPDEST PUSH1 0x40 MLOAD DUP1 SWAP2 SUB SWAP1 RETURN JUMPDEST CALLVALUE DUP1 ISZERO PUSH2 0x237 JUMPI PUSH0 DUP1 REVERT JUMPDEST POP PUSH2 0x252 PUSH1 0x4 DUP1 CALLDATASIZE SUB DUP2 ADD SWAP1 PUSH2 0x24D SWAP2 SWAP1 PUSH2 0x3502 JUMP JUMPDEST PUSH2 0x1247 JUMP JUMPDEST PUSH1 0x40 MLOAD PUSH2 0x268 SWAP11 SWAP10 SWAP9 SWAP8 SWAP7 SWAP6 SWAP5 SWAP4 SWAP3 SWAP2 SWAP1 PUSH2 0x3547 JUMP JUMPDEST PUSH1 0x40 MLOAD DUP1 SWAP2 SUB SWAP1 RETURN JUMPDEST CALLVALUE DUP1 ISZERO PUSH2 0x27C JUMPI PUSH0 DUP1 REVERT JUMPDEST POP PUSH2 0x285 PUSH2 0x1454 JUMP JUMPDEST STOP JUMPDEST CALLVALUE DUP1 ISZERO PUSH2 0x292 JUMPI PUSH0 DUP1 REVERT JUMPDEST POP PUSH2 0x2AD PUSH1 0x4 DUP1 CALLDATASIZE SUB DUP2 ADD SWAP1 PUSH2 0x2A8 SWAP2 SWAP1 PUSH2 0x31AC JUMP JUMPDEST PUSH2 0x1560 JUMP JUMPDEST PUSH1 0x40 MLOAD PUSH2 0x2BA SWAP2 SWAP1 PUSH2 0x36E2 JUMP JUMPDEST PUSH1 0x40 MLOAD DUP1 SWAP2 SUB SWAP1 RETURN JUMPDEST CALLVALUE DUP1 ISZERO PUSH2 0x2CE JUMPI PUSH0 DUP1 REVERT JUMPDEST POP PUSH2 0x2E9 PUSH1 0x4 DUP1 CALLDATASIZE SUB DUP2 ADD SWAP1 PUSH2 0x2E4 SWAP2 SWAP1 PUSH2 0x3702 JUMP JUMPDEST PUSH2 0x1757 JUMP JUMPDEST PUSH1 0x40 MLOAD PUSH2 0x2F6 SWAP2 SWAP1 PUSH2 0x37F1 JUMP JUMPDEST PUSH1 0x40 MLOAD DUP1 SWAP2 SUB SWAP1 RETURN JUMPDEST PUSH2 0x319 PUSH1 0x4 DUP1 CALLDATASIZE SUB DUP2 ADD SWAP1 PUSH2 0x314 SWAP2 SWAP1 PUSH2 0x3834 JUMP JUMPDEST PUSH2 0x18D4 JUMP JUMPDEST STOP JUMPDEST CALLVALUE DUP1 ISZERO PUSH2 0x326 JUMPI PUSH0 DUP1 REVERT JUMPDEST POP PUSH2 0x341 PUSH1 0x4 DUP1 CALLDATASIZE SUB DUP2 ADD SWAP1 PUSH2 0x33C SWAP2 SWAP1 PUSH2 0x3502 JUMP JUMPDEST PUSH2 0x1BDC JUMP JUMPDEST STOP JUMPDEST CALLVALUE DUP1 ISZERO PUSH2 0x34E JUMPI PUSH0 DUP1 REVERT JUMPDEST POP PUSH2 0x357 PUSH2 0x1E96 JUMP JUMPDEST PUSH1 0x40 MLOAD PUSH2 0x364 SWAP2 SWAP1 PUSH2 0x34E9 JUMP JUMPDEST PUSH1 0x40 MLOAD DUP1 SWAP2 SUB SWAP1 RETURN JUMPDEST CALLVALUE DUP1 ISZERO PUSH2 0x378 JUMPI PUSH0 DUP1 REVERT JUMPDEST POP PUSH2 0x381 PUSH2 0x1E9C JUMP JUMPDEST PUSH1 0x40 MLOAD PUSH2 0x38E SWAP2 SWAP1 PUSH2 0x38EC JUMP JUMPDEST PUSH1 0x40 MLOAD DUP1 SWAP2 SUB SWAP1 RETURN JUMPDEST PUSH2 0x3B1 PUSH1 0x4 DUP1 CALLDATASIZE SUB DUP2 ADD SWAP1 PUSH2 0x3AC SWAP2 SWAP1 PUSH2 0x31AC JUMP JUMPDEST PUSH2 0x1EBF JUMP JUMPDEST STOP JUMPDEST CALLVALUE DUP1 ISZERO PUSH2 0x3BE JUMPI PUSH0 DUP1 REVERT JUMPDEST POP PUSH2 0x3C7 PUSH2 0x2260 JUMP JUMPDEST PUSH1 0x40 MLOAD PUSH2 0x3D4 SWAP2 SWAP1 PUSH2 0x34E9 JUMP JUMPDEST PUSH1 0x40 MLOAD DUP1 SWAP2 SUB SWAP1 RETURN JUMPDEST CALLVALUE DUP1 ISZERO PUSH2 0x3E8 JUMPI PUSH0 DUP1 REVERT JUMPDEST POP PUSH2 0x3F1 PUSH2 0x2267 JUMP JUMPDEST PUSH1 0x40 MLOAD PUSH2 0x3FE SWAP2 SWAP1 PUSH2 0x34E9 JUMP JUMPDEST PUSH1 0x40 MLOAD DUP1 SWAP2 SUB SWAP1 RETURN JUMPDEST CALLVALUE DUP1 ISZERO PUSH2 0x412 JUMPI PUSH0 DUP1 REVERT JUMPDEST POP PUSH2 0x41B PUSH2 0x226E JUMP JUMPDEST PUSH1 0x40 MLOAD PUSH2 0x428 SWAP2 SWAP1 PUSH2 0x34E9 JUMP JUMPDEST PUSH1 0x40 MLOAD DUP1 SWAP2 SUB SWAP1 RETURN JUMPDEST CALLVALUE DUP1 ISZERO PUSH2 0x43C JUMPI PUSH0 DUP1 REVERT JUMPDEST POP PUSH2 0x445 PUSH2 0x2274 JUMP JUMPDEST PUSH1 0x40 MLOAD PUSH2 0x452 SWAP2 SWAP1 PUSH2 0x34E9 JUMP JUMPDEST PUSH1 0x40 MLOAD DUP1 SWAP2 SUB SWAP1 RETURN JUMPDEST CALLVALUE DUP1 ISZERO PUSH2 0x466 JUMPI PUSH0 DUP1 REVERT JUMPDEST POP PUSH2 0x46F PUSH2 0x227B JUMP JUMPDEST PUSH1 0x40 MLOAD PUSH2 0x47C SWAP2 SWAP1 PUSH2 0x34E9 JUMP JUMPDEST PUSH1 0x40 MLOAD DUP1 SWAP2 SUB SWAP1 RETURN JUMPDEST CALLVALUE DUP1 ISZERO PUSH2 0x490 JUMPI PUSH0 DUP1 REVERT JUMPDEST POP PUSH2 0x4AB PUSH1 0x4 DUP1 CALLDATASIZE SUB DUP2 ADD SWAP1 PUSH2 0x4A6 SWAP2 SWAP1 PUSH2 0x3502 JUMP JUMPDEST PUSH2 0x2281 JUMP JUMPDEST PUSH1 0x40 MLOAD PUSH2 0x4B8 SWAP2 SWAP1 PUSH2 0x39F9 JUMP JUMPDEST PUSH1 0x40 MLOAD DUP1 SWAP2 SUB SWAP1 RETURN JUMPDEST CALLVALUE DUP1 ISZERO PUSH2 0x4CC JUMPI PUSH0 DUP1 REVERT JUMPDEST POP PUSH2 0x4E7 PUSH1 0x4 DUP1 CALLDATASIZE SUB DUP2 ADD SWAP1 PUSH2 0x4E2 SWAP2 SWAP1 PUSH2 0x3A19 JUMP JUMPDEST PUSH2 0x259E JUMP JUMPDEST PUSH1 0x40 MLOAD PUSH2 0x4F6 SWAP4 SWAP3 SWAP2 SWAP1 PUSH2 0x3BAA JUMP JUMPDEST PUSH1 0x40 MLOAD DUP1 SWAP2 SUB SWAP1 RETURN JUMPDEST CALLVALUE DUP1 ISZERO PUSH2 0x50A JUMPI PUSH0 DUP1 REVERT JUMPDEST POP PUSH2 0x513 PUSH2 0x2BAC JUMP JUMPDEST PUSH1 0x40 MLOAD PUSH2 0x520 SWAP2 SWAP1 PUSH2 0x34E9 JUMP JUMPDEST PUSH1 0x40 MLOAD DUP1 SWAP2 SUB SWAP1 RETURN JUMPDEST CALLVALUE DUP1 ISZERO PUSH2 0x534 JUMPI PUSH0 DUP1 REVERT JUMPDEST POP PUSH2 0x54F PUSH1 0x4 DUP1 CALLDATASIZE SUB DUP2 ADD SWAP1 PUSH2 0x54A SWAP2 SWAP1 PUSH2 0x31AC JUMP JUMPDEST PUSH2 0x2BB3 JUMP JUMPDEST PUSH1 0x40 MLOAD PUSH2 0x55E SWAP4 SWAP3 SWAP2 SWAP1 PUSH2 0x3D86 JUMP JUMPDEST PUSH1 0x40 MLOAD DUP1 SWAP2 SUB SWAP1 RETURN JUMPDEST DUP2 PUSH0 PUSH20 0xFFFFFFFFFFFFFFFFFFFFFFFFFFFFFFFFFFFFFFFF AND PUSH1 0x4 PUSH0 DUP4 DUP2 MSTORE PUSH1 0x20 ADD SWAP1 DUP2 MSTORE PUSH1 0x20 ADD PUSH0 KECCAK256 PUSH1 0x1 ADD PUSH0 SWAP1 SLOAD SWAP1 PUSH2 0x100 EXP SWAP1 DIV PUSH20 0xFFFFFFFFFFFFFFFFFFFFFFFFFFFFFFFFFFFFFFFF AND PUSH20 0xFFFFFFFFFFFFFFFFFFFFFFFFFFFFFFFFFFFFFFFF AND SUB PUSH2 0x609 JUMPI PUSH1 0x40 MLOAD PUSH32 0x8C379A000000000000000000000000000000000000000000000000000000000 DUP2 MSTORE PUSH1 0x4 ADD PUSH2 0x600 SWAP1 PUSH2 0x3E0C JUMP JUMPDEST PUSH1 0x40 MLOAD DUP1 SWAP2 SUB SWAP1 REVERT JUMPDEST DUP3 PUSH1 0x4 PUSH0 DUP3 DUP2 MSTORE PUSH1 0x20 ADD SWAP1 DUP2 MSTORE PUSH1 0x20 ADD PUSH0 KECCAK256 PUSH1 0x8 ADD PUSH0 SWAP1 SLOAD SWAP1 PUSH2 0x100 EXP SWAP1 DIV PUSH1 0xFF AND ISZERO PUSH2 0x66B JUMPI PUSH1 0x40 MLOAD PUSH32 0x8C379A000000000000000000000000000000000000000000000000000000000 DUP2 MSTORE PUSH1 0x4 ADD PUSH2 0x662 SWAP1 PUSH2 0x3E74 JUMP JUMPDEST PUSH1 0x40 MLOAD DUP1 SWAP2 SUB SWAP1 REVERT JUMPDEST PUSH0 PUSH1 0x4 PUSH0 DUP7 DUP2 MSTORE PUSH1 0x20 ADD SWAP1 DUP2 MSTORE PUSH1 0x20 ADD PUSH0 KECCAK256 SWAP1 POP DUP1 PUSH1 0x1 ADD PUSH0 SWAP1 SLOAD SWAP1 PUSH2 0x100 EXP SWAP1 DIV PUSH20 0xFFFFFFFFFFFFFFFFFFFFFFFFFFFFFFFFFFFFFFFF AND PUSH20 0xFFFFFFFFFFFFFFFFFFFFFFFFFFFFFFFFFFFFFFFF AND CALLER PUSH20 0xFFFFFFFFFFFFFFFFFFFFFFFFFFFFFFFFFFFFFFFF AND EQ PUSH2 0x710 JUMPI PUSH1 0x40 MLOAD PUSH32 0x8C379A000000000000000000000000000000000000000000000000000000000 DUP2 MSTORE PUSH1 0x4 ADD PUSH2 0x707 SWAP1 PUSH2 0x3EDC JUMP JUMPDEST PUSH1 0x40 MLOAD DUP1 SWAP2 SUB SWAP1 REVERT JUMPDEST PUSH1 0x1 DUP2 PUSH1 0x8 ADD PUSH0 PUSH2 0x100 EXP DUP2 SLOAD DUP2 PUSH1 0xFF MUL NOT AND SWAP1 DUP4 ISZERO ISZERO MUL OR SWAP1 SSTORE POP DUP4 DUP2 PUSH1 0x9 ADD DUP2 SWAP1 SSTORE POP PUSH32 0x99FE2C8ABD13B610E7F7D4A51A49E1391BA19454B72305176B884D66010E475A DUP6 DUP6 PUSH1 0x40 MLOAD PUSH2 0x766 SWAP3 SWAP2 SWAP1 PUSH2 0x3EFA JUMP JUMPDEST PUSH1 0x40 MLOAD DUP1 SWAP2 SUB SWAP1 LOG1 POP POP POP POP POP JUMP JUMPDEST DUP2 PUSH0 PUSH20 0xFFFFFFFFFFFFFFFFFFFFFFFFFFFFFFFFFFFFFFFF AND PUSH1 0x4 PUSH0 DUP4 DUP2 MSTORE PUSH1 0x20 ADD SWAP1 DUP2 MSTORE PUSH1 0x20 ADD PUSH0 KECCAK256 PUSH1 0x1 ADD PUSH0 SWAP1 SLOAD SWAP1 PUSH2 0x100 EXP SWAP1 DIV PUSH20 0xFFFFFFFFFFFFFFFFFFFFFFFFFFFFFFFFFFFFFFFF AND PUSH20 0xFFFFFFFFFFFFFFFFFFFFFFFFFFFFFFFFFFFFFFFF AND SUB PUSH2 0x817 JUMPI PUSH1 0x40 MLOAD PUSH32 0x8C379A000000000000000000000000000000000000000000000000000000000 DUP2 MSTORE PUSH1 0x4 ADD PUSH2 0x80E SWAP1 PUSH2 0x3E0C JUMP JUMPDEST PUSH1 0x40 MLOAD DUP1 SWAP2 SUB SWAP1 REVERT JUMPDEST DUP3 PUSH1 0x4 PUSH0 DUP3 DUP2 MSTORE PUSH1 0x20 ADD SWAP1 DUP2 MSTORE PUSH1 0x20 ADD PUSH0 KECCAK256 PUSH1 0x8 ADD PUSH0 SWAP1 SLOAD SWAP1 PUSH2 0x100 EXP SWAP1 DIV PUSH1 0xFF AND ISZERO PUSH2 0x879 JUMPI PUSH1 0x40 MLOAD PUSH32 0x8C379A000000000000000000000000000000000000000000000000000000000 DUP2 MSTORE PUSH1 0x4 ADD PUSH2 0x870 SWAP1 PUSH2 0x3E74 JUMP JUMPDEST PUSH1 0x40 MLOAD DUP1 SWAP2 SUB SWAP1 REVERT JUMPDEST PUSH0 PUSH1 0x4 PUSH0 DUP7 DUP2 MSTORE PUSH1 0x20 ADD SWAP1 DUP2 MSTORE PUSH1 0x20 ADD PUSH0 KECCAK256 PUSH1 0x40 MLOAD DUP1 PUSH2 0x140 ADD PUSH1 0x40 MSTORE SWAP1 DUP2 PUSH0 DUP3 ADD SLOAD DUP2 MSTORE PUSH1 0x20 ADD PUSH1 0x1 DUP3 ADD PUSH0 SWAP1 SLOAD SWAP1 PUSH2 0x100 EXP SWAP1 DIV PUSH20 0xFFFFFFFFFFFFFFFFFFFFFFFFFFFFFFFFFFFFFFFF AND PUSH20 0xFFFFFFFFFFFFFFFFFFFFFFFFFFFFFFFFFFFFFFFF AND PUSH20 0xFFFFFFFFFFFFFFFFFFFFFFFFFFFFFFFFFFFFFFFF AND DUP2 MSTORE PUSH1 0x20 ADD PUSH1 0x2 DUP3 ADD DUP1 SLOAD PUSH2 0x905 SWAP1 PUSH2 0x3F4E JUMP JUMPDEST DUP1 PUSH1 0x1F ADD PUSH1 0x20 DUP1 SWAP2 DIV MUL PUSH1 0x20 ADD PUSH1 0x40 MLOAD SWAP1 DUP2 ADD PUSH1 0x40 MSTORE DUP1 SWAP3 SWAP2 SWAP1 DUP2 DUP2 MSTORE PUSH1 0x20 ADD DUP3 DUP1 SLOAD PUSH2 0x931 SWAP1 PUSH2 0x3F4E JUMP JUMPDEST DUP1 ISZERO PUSH2 0x97C JUMPI DUP1 PUSH1 0x1F LT PUSH2 0x953 JUMPI PUSH2 0x100 DUP1 DUP4 SLOAD DIV MUL DUP4 MSTORE SWAP2 PUSH1 0x20 ADD SWAP2 PUSH2 0x97C JUMP JUMPDEST DUP3 ADD SWAP2 SWAP1 PUSH0 MSTORE PUSH1 0x20 PUSH0 KECCAK256 SWAP1 JUMPDEST DUP2 SLOAD DUP2 MSTORE SWAP1 PUSH1 0x1 ADD SWAP1 PUSH1 0x20 ADD DUP1 DUP4 GT PUSH2 0x95F JUMPI DUP3 SWAP1 SUB PUSH1 0x1F AND DUP3 ADD SWAP2 JUMPDEST POP POP POP POP POP DUP2 MSTORE PUSH1 0x20 ADD PUSH1 0x3 DUP3 ADD DUP1 SLOAD PUSH2 0x995 SWAP1 PUSH2 0x3F4E JUMP JUMPDEST DUP1 PUSH1 0x1F ADD PUSH1 0x20 DUP1 SWAP2 DIV MUL PUSH1 0x20 ADD PUSH1 0x40 MLOAD SWAP1 DUP2 ADD PUSH1 0x40 MSTORE DUP1 SWAP3 SWAP2 SWAP1 DUP2 DUP2 MSTORE PUSH1 0x20 ADD DUP3 DUP1 SLOAD PUSH2 0x9C1 SWAP1 PUSH2 0x3F4E JUMP JUMPDEST DUP1 ISZERO PUSH2 0xA0C JUMPI DUP1 PUSH1 0x1F LT PUSH2 0x9E3 JUMPI PUSH2 0x100 DUP1 DUP4 SLOAD DIV MUL DUP4 MSTORE SWAP2 PUSH1 0x20 ADD SWAP2 PUSH2 0xA0C JUMP JUMPDEST DUP3 ADD SWAP2 SWAP1 PUSH0 MSTORE PUSH1 0x20 PUSH0 KECCAK256 SWAP1 JUMPDEST DUP2 SLOAD DUP2 MSTORE SWAP1 PUSH1 0x1 ADD SWAP1 PUSH1 0x20 ADD DUP1 DUP4 GT PUSH2 0x9EF JUMPI DUP3 SWAP1 SUB PUSH1 0x1F AND DUP3 ADD SWAP2 JUMPDEST POP POP POP POP POP DUP2 MSTORE PUSH1 0x20 ADD PUSH1 0x4 DUP3 ADD DUP1 SLOAD PUSH2 0xA25 SWAP1 PUSH2 0x3F4E JUMP JUMPDEST DUP1 PUSH1 0x1F ADD PUSH1 0x20 DUP1 SWAP2 DIV MUL PUSH1 0x20 ADD PUSH1 0x40 MLOAD SWAP1 DUP2 ADD PUSH1 0x40 MSTORE DUP1 SWAP3 SWAP2 SWAP1 DUP2 DUP2 MSTORE PUSH1 0x20 ADD DUP3 DUP1 SLOAD PUSH2 0xA51 SWAP1 PUSH2 0x3F4E JUMP JUMPDEST DUP1 ISZERO PUSH2 0xA9C JUMPI DUP1 PUSH1 0x1F LT PUSH2 0xA73 JUMPI PUSH2 0x100 DUP1 DUP4 SLOAD DIV MUL DUP4 MSTORE SWAP2 PUSH1 0x20 ADD SWAP2 PUSH2 0xA9C JUMP JUMPDEST DUP3 ADD SWAP2 SWAP1 PUSH0 MSTORE PUSH1 0x20 PUSH0 KECCAK256 SWAP1 JUMPDEST DUP2 SLOAD DUP2 MSTORE SWAP1 PUSH1 0x1 ADD SWAP1 PUSH1 0x20 ADD DUP1 DUP4 GT PUSH2 0xA7F JUMPI DUP3 SWAP1 SUB PUSH1 0x1F AND DUP3 ADD SWAP2 JUMPDEST POP POP POP POP POP DUP2 MSTORE PUSH1 0x20 ADD PUSH1 0x5 DUP3 ADD SLOAD DUP2 MSTORE PUSH1 0x20 ADD PUSH1 0x6 DUP3 ADD SLOAD DUP2 MSTORE PUSH1 0x20 ADD PUSH1 0x7 DUP3 ADD SLOAD DUP2 MSTORE PUSH1 0x20 ADD PUSH1 0x8 DUP3 ADD PUSH0 SWAP1 SLOAD SWAP1 PUSH2 0x100 EXP SWAP1 DIV PUSH1 0xFF AND ISZERO ISZERO ISZERO ISZERO DUP2 MSTORE PUSH1 0x20 ADD PUSH1 0x9 DUP3 ADD SLOAD DUP2 MSTORE POP POP SWAP1 POP DUP1 PUSH1 0xE0 ADD MLOAD TIMESTAMP GT ISZERO PUSH2 0xB30 JUMPI PUSH1 0x40 MLOAD PUSH32 0x8C379A000000000000000000000000000000000000000000000000000000000 DUP2 MSTORE PUSH1 0x4 ADD PUSH2 0xB27 SWAP1 PUSH2 0x3FC8 JUMP JUMPDEST PUSH1 0x40 MLOAD DUP1 SWAP2 SUB SWAP1 REVERT JUMPDEST PUSH0 PUSH1 0x3 PUSH0 DUP2 SLOAD DUP1 SWAP3 SWAP2 SWAP1 PUSH2 0xB43 SWAP1 PUSH2 0x4013 JUMP JUMPDEST SWAP2 SWAP1 POP SSTORE SWAP1 POP PUSH1 0x40 MLOAD DUP1 PUSH1 0xC0 ADD PUSH1 0x40 MSTORE DUP1 DUP3 DUP2 MSTORE PUSH1 0x20 ADD CALLER PUSH20 0xFFFFFFFFFFFFFFFFFFFFFFFFFFFFFFFFFFFFFFFF AND DUP2 MSTORE PUSH1 0x20 ADD DUP7 DUP2 MSTORE PUSH1 0x20 ADD PUSH0 DUP2 MSTORE PUSH1 0x20 ADD PUSH0 DUP2 MSTORE PUSH1 0x20 ADD TIMESTAMP DUP2 MSTORE POP PUSH1 0x5 PUSH0 DUP9 DUP2 MSTORE PUSH1 0x20 ADD SWAP1 DUP2 MSTORE PUSH1 0x20 ADD PUSH0 KECCAK256 PUSH0 DUP4 DUP2 MSTORE PUSH1 0x20 ADD SWAP1 DUP2 MSTORE PUSH1 0x20 ADD PUSH0 KECCAK256 PUSH0 DUP3 ADD MLOAD DUP2 PUSH0 ADD SSTORE PUSH1 0x20 DUP3 ADD MLOAD DUP2 PUSH1 0x1 ADD PUSH0 PUSH2 0x100 EXP DUP2 SLOAD DUP2 PUSH20 0xFFFFFFFFFFFFFFFFFFFFFFFFFFFFFFFFFFFFFFFF MUL NOT AND SWAP1 DUP4 PUSH20 0xFFFFFFFFFFFFFFFFFFFFFFFFFFFFFFFFFFFFFFFF AND MUL OR SWAP1 SSTORE POP PUSH1 0x40 DUP3 ADD MLOAD DUP2 PUSH1 0x2 ADD SWAP1 DUP2 PUSH2 0xC0F SWAP2 SWAP1 PUSH2 0x41F7 JUMP JUMPDEST POP PUSH1 0x60 DUP3 ADD MLOAD DUP2 PUSH1 0x3 ADD SSTORE PUSH1 0x80 DUP3 ADD MLOAD DUP2 PUSH1 0x4 ADD SSTORE PUSH1 0xA0 DUP3 ADD MLOAD DUP2 PUSH1 0x5 ADD SSTORE SWAP1 POP POP CALLER PUSH20 0xFFFFFFFFFFFFFFFFFFFFFFFFFFFFFFFFFFFFFFFF AND PUSH32 0x1B72A809869907CAC4C4E55B8BF6920FF492D2FF53307BB77BA492366B61387C DUP8 DUP4 DUP9 PUSH1 0x40 MLOAD PUSH2 0xC7B SWAP4 SWAP3 SWAP2 SWAP1 PUSH2 0x42C6 JUMP JUMPDEST PUSH1 0x40 MLOAD DUP1 SWAP2 SUB SWAP1 LOG2 POP POP POP POP POP POP JUMP JUMPDEST PUSH1 0x5 PUSH1 0x20 MSTORE DUP2 PUSH0 MSTORE PUSH1 0x40 PUSH0 KECCAK256 PUSH1 0x20 MSTORE DUP1 PUSH0 MSTORE PUSH1 0x40 PUSH0 KECCAK256 PUSH0 SWAP2 POP SWAP2 POP POP DUP1 PUSH0 ADD SLOAD SWAP1 DUP1 PUSH1 0x1 ADD PUSH0 SWAP1 SLOAD SWAP1 PUSH2 0x100 EXP SWAP1 DIV PUSH20 0xFFFFFFFFFFFFFFFFFFFFFFFFFFFFFFFFFFFFFFFF AND SWAP1 DUP1 PUSH1 0x2 ADD DUP1 SLOAD PUSH2 0xCE0 SWAP1 PUSH2 0x3F4E JUMP JUMPDEST DUP1 PUSH1 0x1F ADD PUSH1 0x20 DUP1 SWAP2 DIV MUL PUSH1 0x20 ADD PUSH1 0x40 MLOAD SWAP1 DUP2 ADD PUSH1 0x40 MSTORE DUP1 SWAP3 SWAP2 SWAP1 DUP2 DUP2 MSTORE PUSH1 0x20 ADD DUP3 DUP1 SLOAD PUSH2 0xD0C SWAP1 PUSH2 0x3F4E JUMP JUMPDEST DUP1 ISZERO PUSH2 0xD57 JUMPI DUP1 PUSH1 0x1F LT PUSH2 0xD2E JUMPI PUSH2 0x100 DUP1 DUP4 SLOAD DIV MUL DUP4 MSTORE SWAP2 PUSH1 0x20 ADD SWAP2 PUSH2 0xD57 JUMP JUMPDEST DUP3 ADD SWAP2 SWAP1 PUSH0 MSTORE PUSH1 0x20 PUSH0 KECCAK256 SWAP1 JUMPDEST DUP2 SLOAD DUP2 MSTORE SWAP1 PUSH1 0x1 ADD SWAP1 PUSH1 0x20 ADD DUP1 DUP4 GT PUSH2 0xD3A JUMPI DUP3 SWAP1 SUB PUSH1 0x1F AND DUP3 ADD SWAP2 JUMPDEST POP POP POP POP POP SWAP1 DUP1 PUSH1 0x3 ADD SLOAD SWAP1 DUP1 PUSH1 0x4 ADD SLOAD SWAP1 DUP1 PUSH1 0x5 ADD SLOAD SWAP1 POP DUP7 JUMP JUMPDEST DUP2 PUSH0 PUSH20 0xFFFFFFFFFFFFFFFFFFFFFFFFFFFFFFFFFFFFFFFF AND PUSH1 0x4 PUSH0 DUP4 DUP2 MSTORE PUSH1 0x20 ADD SWAP1 DUP2 MSTORE PUSH1 0x20 ADD PUSH0 KECCAK256 PUSH1 0x1 ADD PUSH0 SWAP1 SLOAD SWAP1 PUSH2 0x100 EXP SWAP1 DIV PUSH20 0xFFFFFFFFFFFFFFFFFFFFFFFFFFFFFFFFFFFFFFFF AND PUSH20 0xFFFFFFFFFFFFFFFFFFFFFFFFFFFFFFFFFFFFFFFF AND SUB PUSH2 0xE15 JUMPI PUSH1 0x40 MLOAD PUSH32 0x8C379A000000000000000000000000000000000000000000000000000000000 DUP2 MSTORE PUSH1 0x4 ADD PUSH2 0xE0C SWAP1 PUSH2 0x3E0C JUMP JUMPDEST PUSH1 0x40 MLOAD DUP1 SWAP2 SUB SWAP1 REVERT JUMPDEST DUP3 PUSH1 0x4 PUSH0 DUP3 DUP2 MSTORE PUSH1 0x20 ADD SWAP1 DUP2 MSTORE PUSH1 0x20 ADD PUSH0 KECCAK256 PUSH1 0x8 ADD PUSH0 SWAP1 SLOAD SWAP1 PUSH2 0x100 EXP SWAP1 DIV PUSH1 0xFF AND ISZERO PUSH2 0xE77 JUMPI PUSH1 0x40 MLOAD PUSH32 0x8C379A000000000000000000000000000000000000000000000000000000000 DUP2 MSTORE PUSH1 0x4 ADD PUSH2 0xE6E SWAP1 PUSH2 0x3E74 JUMP JUMPDEST PUSH1 0x40 MLOAD DUP1 SWAP2 SUB SWAP1 REVERT JUMPDEST PUSH0 PUSH1 0x4 PUSH0 DUP7 DUP2 MSTORE PUSH1 0x20 ADD SWAP1 DUP2 MSTORE PUSH1 0x20 ADD PUSH0 KECCAK256 PUSH1 0x40 MLOAD DUP1 PUSH2 0x140 ADD PUSH1 0x40 MSTORE SWAP1 DUP2 PUSH0 DUP3 ADD SLOAD DUP2 MSTORE PUSH1 0x20 ADD PUSH1 0x1 DUP3 ADD PUSH0 SWAP1 SLOAD SWAP1 PUSH2 0x100 EXP SWAP1 DIV PUSH20 0xFFFFFFFFFFFFFFFFFFFFFFFFFFFFFFFFFFFFFFFF AND PUSH20 0xFFFFFFFFFFFFFFFFFFFFFFFFFFFFFFFFFFFFFFFF AND PUSH20 0xFFFFFFFFFFFFFFFFFFFFFFFFFFFFFFFFFFFFFFFF AND DUP2 MSTORE PUSH1 0x20 ADD PUSH1 0x2 DUP3 ADD DUP1 SLOAD PUSH2 0xF03 SWAP1 PUSH2 0x3F4E JUMP JUMPDEST DUP1 PUSH1 0x1F ADD PUSH1 0x20 DUP1 SWAP2 DIV MUL PUSH1 0x20 ADD PUSH1 0x40 MLOAD SWAP1 DUP2 ADD PUSH1 0x40 MSTORE DUP1 SWAP3 SWAP2 SWAP1 DUP2 DUP2 MSTORE PUSH1 0x20 ADD DUP3 DUP1 SLOAD PUSH2 0xF2F SWAP1 PUSH2 0x3F4E JUMP JUMPDEST DUP1 ISZERO PUSH2 0xF7A JUMPI DUP1 PUSH1 0x1F LT PUSH2 0xF51 JUMPI PUSH2 0x100 DUP1 DUP4 SLOAD DIV MUL DUP4 MSTORE SWAP2 PUSH1 0x20 ADD SWAP2 PUSH2 0xF7A JUMP JUMPDEST DUP3 ADD SWAP2 SWAP1 PUSH0 MSTORE PUSH1 0x20 PUSH0 KECCAK256 SWAP1 JUMPDEST DUP2 SLOAD DUP2 MSTORE SWAP1 PUSH1 0x1 ADD SWAP1 PUSH1 0x20 ADD DUP1 DUP4 GT PUSH2 0xF5D JUMPI DUP3 SWAP1 SUB PUSH1 0x1F AND DUP3 ADD SWAP2 JUMPDEST POP POP POP POP POP DUP2 MSTORE PUSH1 0x20 ADD PUSH1 0x3 DUP3 ADD DUP1 SLOAD PUSH2 0xF93 SWAP1 PUSH2 0x3F4E JUMP JUMPDEST DUP1 PUSH1 0x1F ADD PUSH1 0x20 DUP1 SWAP2 DIV MUL PUSH1 0x20 ADD PUSH1 0x40 MLOAD SWAP1 DUP2 ADD PUSH1 0x40 MSTORE DUP1 SWAP3 SWAP2 SWAP1 DUP2 DUP2 MSTORE PUSH1 0x20 ADD DUP3 DUP1 SLOAD PUSH2 0xFBF SWAP1 PUSH2 0x3F4E JUMP JUMPDEST DUP1 ISZERO PUSH2 0x100A JUMPI DUP1 PUSH1 0x1F LT PUSH2 0xFE1 JUMPI PUSH2 0x100 DUP1 DUP4 SLOAD DIV MUL DUP4 MSTORE SWAP2 PUSH1 0x20 ADD SWAP2 PUSH2 0x100A JUMP JUMPDEST DUP3 ADD SWAP2 SWAP1 PUSH0 MSTORE PUSH1 0x20 PUSH0 KECCAK256 SWAP1 JUMPDEST DUP2 SLOAD DUP2 MSTORE SWAP1 PUSH1 0x1 ADD SWAP1 PUSH1 0x20 ADD DUP1 DUP4 GT PUSH2 0xFED JUMPI DUP3 SWAP1 SUB PUSH1 0x1F AND DUP3 ADD SWAP2 JUMPDEST POP POP POP POP POP DUP2 MSTORE PUSH1 0x20 ADD PUSH1 0x4 DUP3 ADD DUP1 SLOAD PUSH2 0x1023 SWAP1 PUSH2 0x3F4E JUMP JUMPDEST DUP1 PUSH1 0x1F ADD PUSH1 0x20 DUP1 SWAP2 DIV MUL PUSH1 0x20 ADD PUSH1 0x40 MLOAD SWAP1 DUP2 ADD PUSH1 0x40 MSTORE DUP1 SWAP3 SWAP2 SWAP1 DUP2 DUP2 MSTORE PUSH1 0x20 ADD DUP3 DUP1 SLOAD PUSH2 0x104F SWAP1 PUSH2 0x3F4E JUMP JUMPDEST DUP1 ISZERO PUSH2 0x109A JUMPI DUP1 PUSH1 0x1F LT PUSH2 0x1071 JUMPI PUSH2 0x100 DUP1 DUP4 SLOAD DIV MUL DUP4 MSTORE SWAP2 PUSH1 0x20 ADD SWAP2 PUSH2 0x109A JUMP JUMPDEST DUP3 ADD SWAP2 SWAP1 PUSH0 MSTORE PUSH1 0x20 PUSH0 KECCAK256 SWAP1 JUMPDEST DUP2 SLOAD DUP2 MSTORE SWAP1 PUSH1 0x1 ADD SWAP1 PUSH1 0x20 ADD DUP1 DUP4 GT PUSH2 0x107D JUMPI DUP3 SWAP1 SUB PUSH1 0x1F AND DUP3 ADD SWAP2 JUMPDEST POP POP POP POP POP DUP2 MSTORE PUSH1 0x20 ADD PUSH1 0x5 DUP3 ADD SLOAD DUP2 MSTORE PUSH1 0x20 ADD PUSH1 0x6 DUP3 ADD SLOAD DUP2 MSTORE PUSH1 0x20 ADD PUSH1 0x7 DUP3 ADD SLOAD DUP2 MSTORE PUSH1 0x20 ADD PUSH1 0x8 DUP3 ADD PUSH0 SWAP1 SLOAD SWAP1 PUSH2 0x100 EXP SWAP1 DIV PUSH1 0xFF AND ISZERO ISZERO ISZERO ISZERO DUP2 MSTORE PUSH1 0x20 ADD PUSH1 0x9 DUP3 ADD SLOAD DUP2 MSTORE POP POP SWAP1 POP DUP1 PUSH1 0xE0 ADD MLOAD TIMESTAMP GT ISZERO PUSH2 0x112E JUMPI PUSH1 0x40 MLOAD PUSH32 0x8C379A000000000000000000000000000000000000000000000000000000000 DUP2 MSTORE PUSH1 0x4 ADD PUSH2 0x1125 SWAP1 PUSH2 0x434C JUMP JUMPDEST PUSH1 0x40 MLOAD DUP1 SWAP2 SUB SWAP1 REVERT JUMPDEST PUSH1 0x1 SLOAD CALLVALUE EQ PUSH2 0x1172 JUMPI PUSH1 0x40 MLOAD PUSH32 0x8C379A000000000000000000000000000000000000000000000000000000000 DUP2 MSTORE PUSH1 0x4 ADD PUSH2 0x1169 SWAP1 PUSH2 0x43B4 JUMP JUMPDEST PUSH1 0x40 MLOAD DUP1 SWAP2 SUB SWAP1 REVERT JUMPDEST PUSH0 PUSH1 0x5 PUSH0 DUP8 DUP2 MSTORE PUSH1 0x20 ADD SWAP1 DUP2 MSTORE PUSH1 0x20 ADD PUSH0 KECCAK256 PUSH0 DUP7 DUP2 MSTORE PUSH1 0x20 ADD SWAP1 DUP2 MSTORE PUSH1 0x20 ADD PUSH0 KECCAK256 SWAP1 POP PUSH1 0x1 DUP2 PUSH1 0x3 ADD PUSH0 DUP3 DUP3 SLOAD PUSH2 0x11A9 SWAP2 SWAP1 PUSH2 0x43D2 JUMP JUMPDEST SWAP3 POP POP DUP2 SWAP1 SSTORE POP CALLVALUE PUSH1 0x4 PUSH0 DUP9 DUP2 MSTORE PUSH1 0x20 ADD SWAP1 DUP2 MSTORE PUSH1 0x20 ADD PUSH0 KECCAK256 PUSH1 0x5 ADD PUSH0 DUP3 DUP3 SLOAD PUSH2 0x11D3 SWAP2 SWAP1 PUSH2 0x43D2 JUMP JUMPDEST SWAP3 POP POP DUP2 SWAP1 SSTORE POP CALLER PUSH20 0xFFFFFFFFFFFFFFFFFFFFFFFFFFFFFFFFFFFFFFFF AND PUSH32 0xD91ECAFCCF238642DCCD41161308B3EEBE62A12BC5819DAF5164780C221EC95B DUP8 DUP8 PUSH1 0x40 MLOAD PUSH2 0x1222 SWAP3 SWAP2 SWAP1 PUSH2 0x3EFA JUMP JUMPDEST PUSH1 0x40 MLOAD DUP1 SWAP2 SUB SWAP1 LOG2 POP POP POP POP POP POP JUMP JUMPDEST PUSH1 0x6 PUSH1 0x20 MSTORE DUP1 PUSH0 MSTORE PUSH1 0x40 PUSH0 KECCAK256 PUSH0 SWAP2 POP SWAP1 POP SLOAD DUP2 JUMP JUMPDEST PUSH1 0x4 PUSH1 0x20 MSTORE DUP1 PUSH0 MSTORE PUSH1 0x40 PUSH0 KECCAK256 PUSH0 SWAP2 POP SWAP1 POP DUP1 PUSH0 ADD SLOAD SWAP1 DUP1 PUSH1 0x1 ADD PUSH0 SWAP1 SLOAD SWAP1 PUSH2 0x100 EXP SWAP1 DIV PUSH20 0xFFFFFFFFFFFFFFFFFFFFFFFFFFFFFFFFFFFFFFFF AND SWAP1 DUP1 PUSH1 0x2 ADD DUP1 SLOAD PUSH2 0x1291 SWAP1 PUSH2 0x3F4E JUMP JUMPDEST DUP1 PUSH1 0x1F ADD PUSH1 0x20 DUP1 SWAP2 DIV MUL PUSH1 0x20 ADD PUSH1 0x40 MLOAD SWAP1 DUP2 ADD PUSH1 0x40 MSTORE DUP1 SWAP3 SWAP2 SWAP1 DUP2 DUP2 MSTORE PUSH1 0x20 ADD DUP3 DUP1 SLOAD PUSH2 0x12BD SWAP1 PUSH2 0x3F4E JUMP JUMPDEST DUP1 ISZERO PUSH2 0x1308 JUMPI DUP1 PUSH1 0x1F LT PUSH2 0x12DF JUMPI PUSH2 0x100 DUP1 DUP4 SLOAD DIV MUL DUP4 MSTORE SWAP2 PUSH1 0x20 ADD SWAP2 PUSH2 0x1308 JUMP JUMPDEST DUP3 ADD SWAP2 SWAP1 PUSH0 MSTORE PUSH1 0x20 PUSH0 KECCAK256 SWAP1 JUMPDEST DUP2 SLOAD DUP2 MSTORE SWAP1 PUSH1 0x1 ADD SWAP1 PUSH1 0x20 ADD DUP1 DUP4 GT PUSH2 0x12EB JUMPI DUP3 SWAP1 SUB PUSH1 0x1F AND DUP3 ADD SWAP2 JUMPDEST POP POP POP POP POP SWAP1 DUP1 PUSH1 0x3 ADD DUP1 SLOAD PUSH2 0x131D SWAP1 PUSH2 0x3F4E JUMP JUMPDEST DUP1 PUSH1 0x1F ADD PUSH1 0x20 DUP1 SWAP2 DIV MUL PUSH1 0x20 ADD PUSH1 0x40 MLOAD SWAP1 DUP2 ADD PUSH1 0x40 MSTORE DUP1 SWAP3 SWAP2 SWAP1 DUP2 DUP2 MSTORE PUSH1 0x20 ADD DUP3 DUP1 SLOAD PUSH2 0x1349 SWAP1 PUSH2 0x3F4E JUMP JUMPDEST DUP1 ISZERO PUSH2 0x1394 JUMPI DUP1 PUSH1 0x1F LT PUSH2 0x136B JUMPI PUSH2 0x100 DUP1 DUP4 SLOAD DIV MUL DUP4 MSTORE SWAP2 PUSH1 0x20 ADD SWAP2 PUSH2 0x1394 JUMP JUMPDEST DUP3 ADD SWAP2 SWAP1 PUSH0 MSTORE PUSH1 0x20 PUSH0 KECCAK256 SWAP1 JUMPDEST DUP2 SLOAD DUP2 MSTORE SWAP1 PUSH1 0x1 ADD SWAP1 PUSH1 0x20 ADD DUP1 DUP4 GT PUSH2 0x1377 JUMPI DUP3 SWAP1 SUB PUSH1 0x1F AND DUP3 ADD SWAP2 JUMPDEST POP POP POP POP POP SWAP1 DUP1 PUSH1 0x4 ADD DUP1 SLOAD PUSH2 0x13A9 SWAP1 PUSH2 0x3F4E JUMP JUMPDEST DUP1 PUSH1 0x1F ADD PUSH1 0x20 DUP1 SWAP2 DIV MUL PUSH1 0x20 ADD PUSH1 0x40 MLOAD SWAP1 DUP2 ADD PUSH1 0x40 MSTORE DUP1 SWAP3 SWAP2 SWAP1 DUP2 DUP2 MSTORE PUSH1 0x20 ADD DUP3 DUP1 SLOAD PUSH2 0x13D5 SWAP1 PUSH2 0x3F4E JUMP JUMPDEST DUP1 ISZERO PUSH2 0x1420 JUMPI DUP1 PUSH1 0x1F LT PUSH2 0x13F7 JUMPI PUSH2 0x100 DUP1 DUP4 SLOAD DIV MUL DUP4 MSTORE SWAP2 PUSH1 0x20 ADD SWAP2 PUSH2 0x1420 JUMP JUMPDEST DUP3 ADD SWAP2 SWAP1 PUSH0 MSTORE PUSH1 0x20 PUSH0 KECCAK256 SWAP1 JUMPDEST DUP2 SLOAD DUP2 MSTORE SWAP1 PUSH1 0x1 ADD SWAP1 PUSH1 0x20 ADD DUP1 DUP4 GT PUSH2 0x1403 JUMPI DUP3 SWAP1 SUB PUSH1 0x1F AND DUP3 ADD SWAP2 JUMPDEST POP POP POP POP POP SWAP1 DUP1 PUSH1 0x5 ADD SLOAD SWAP1 DUP1 PUSH1 0x6 ADD SLOAD SWAP1 DUP1 PUSH1 0x7 ADD SLOAD SWAP1 DUP1 PUSH1 0x8 ADD PUSH0 SWAP1 SLOAD SWAP1 PUSH2 0x100 EXP SWAP1 DIV PUSH1 0xFF AND SWAP1 DUP1 PUSH1 0x9 ADD SLOAD SWAP1 POP DUP11 JUMP JUMPDEST PUSH0 PUSH1 0x6 PUSH0 CALLER PUSH20 0xFFFFFFFFFFFFFFFFFFFFFFFFFFFFFFFFFFFFFFFF AND PUSH20 0xFFFFFFFFFFFFFFFFFFFFFFFFFFFFFFFFFFFFFFFF AND DUP2 MSTORE PUSH1 0x20 ADD SWAP1 DUP2 MSTORE PUSH1 0x20 ADD PUSH0 KECCAK256 SLOAD SWAP1 POP PUSH0 DUP2 GT PUSH2 0x14D7 JUMPI PUSH1 0x40 MLOAD PUSH32 0x8C379A000000000000000000000000000000000000000000000000000000000 DUP2 MSTORE PUSH1 0x4 ADD PUSH2 0x14CE SWAP1 PUSH2 0x444F JUMP JUMPDEST PUSH1 0x40 MLOAD DUP1 SWAP2 SUB SWAP1 REVERT JUMPDEST PUSH0 PUSH1 0x6 PUSH0 CALLER PUSH20 0xFFFFFFFFFFFFFFFFFFFFFFFFFFFFFFFFFFFFFFFF AND PUSH20 0xFFFFFFFFFFFFFFFFFFFFFFFFFFFFFFFFFFFFFFFF AND DUP2 MSTORE PUSH1 0x20 ADD SWAP1 DUP2 MSTORE PUSH1 0x20 ADD PUSH0 KECCAK256 DUP2 SWAP1 SSTORE POP CALLER PUSH20 0xFFFFFFFFFFFFFFFFFFFFFFFFFFFFFFFFFFFFFFFF AND PUSH2 0x8FC DUP3 SWAP1 DUP2 ISZERO MUL SWAP1 PUSH1 0x40 MLOAD PUSH0 PUSH1 0x40 MLOAD DUP1 DUP4 SUB DUP2 DUP6 DUP9 DUP9 CALL SWAP4 POP POP POP POP ISZERO DUP1 ISZERO PUSH2 0x155C JUMPI RETURNDATASIZE PUSH0 DUP1 RETURNDATACOPY RETURNDATASIZE PUSH0 REVERT JUMPDEST POP POP JUMP JUMPDEST PUSH2 0x1568 PUSH2 0x30BD JUMP JUMPDEST PUSH0 PUSH20 0xFFFFFFFFFFFFFFFFFFFFFFFFFFFFFFFFFFFFFFFF AND PUSH1 0x5 PUSH0 DUP6 DUP2 MSTORE PUSH1 0x20 ADD SWAP1 DUP2 MSTORE PUSH1 0x20 ADD PUSH0 KECCAK256 PUSH0 DUP5 DUP2 MSTORE PUSH1 0x20 ADD SWAP1 DUP2 MSTORE PUSH1 0x20 ADD PUSH0 KECCAK256 PUSH1 0x1 ADD PUSH0 SWAP1 SLOAD SWAP1 PUSH2 0x100 EXP SWAP1 DIV PUSH20 0xFFFFFFFFFFFFFFFFFFFFFFFFFFFFFFFFFFFFFFFF AND PUSH20 0xFFFFFFFFFFFFFFFFFFFFFFFFFFFFFFFFFFFFFFFF AND SUB PUSH2 0x1618 JUMPI PUSH1 0x40 MLOAD PUSH32 0x8C379A000000000000000000000000000000000000000000000000000000000 DUP2 MSTORE PUSH1 0x4 ADD PUSH2 0x160F SWAP1 PUSH2 0x44B7 JUMP JUMPDEST PUSH1 0x40 MLOAD DUP1 SWAP2 SUB SWAP1 REVERT JUMPDEST PUSH1 0x5 PUSH0 DUP5 DUP2 MSTORE PUSH1 0x20 ADD SWAP1 DUP2 MSTORE PUSH1 0x20 ADD PUSH0 KECCAK256 PUSH0 DUP4 DUP2 MSTORE PUSH1 0x20 ADD SWAP1 DUP2 MSTORE PUSH1 0x20 ADD PUSH0 KECCAK256 PUSH1 0x40 MLOAD DUP1 PUSH1 0xC0 ADD PUSH1 0x40 MSTORE SWAP1 DUP2 PUSH0 DUP3 ADD SLOAD DUP2 MSTORE PUSH1 0x20 ADD PUSH1 0x1 DUP3 ADD PUSH0 SWAP1 SLOAD SWAP1 PUSH2 0x100 EXP SWAP1 DIV PUSH20 0xFFFFFFFFFFFFFFFFFFFFFFFFFFFFFFFFFFFFFFFF AND PUSH20 0xFFFFFFFFFFFFFFFFFFFFFFFFFFFFFFFFFFFFFFFF AND PUSH20 0xFFFFFFFFFFFFFFFFFFFFFFFFFFFFFFFFFFFFFFFF AND DUP2 MSTORE PUSH1 0x20 ADD PUSH1 0x2 DUP3 ADD DUP1 SLOAD PUSH2 0x16B1 SWAP1 PUSH2 0x3F4E JUMP JUMPDEST DUP1 PUSH1 0x1F ADD PUSH1 0x20 DUP1 SWAP2 DIV MUL PUSH1 0x20 ADD PUSH1 0x40 MLOAD SWAP1 DUP2 ADD PUSH1 0x40 MSTORE DUP1 SWAP3 SWAP2 SWAP1 DUP2 DUP2 MSTORE PUSH1 0x20 ADD DUP3 DUP1 SLOAD PUSH2 0x16DD SWAP1 PUSH2 0x3F4E JUMP JUMPDEST DUP1 ISZERO PUSH2 0x1728 JUMPI DUP1 PUSH1 0x1F LT PUSH2 0x16FF JUMPI PUSH2 0x100 DUP1 DUP4 SLOAD DIV MUL DUP4 MSTORE SWAP2 PUSH1 0x20 ADD SWAP2 PUSH2 0x1728 JUMP JUMPDEST DUP3 ADD SWAP2 SWAP1 PUSH0 MSTORE PUSH1 0x20 PUSH0 KECCAK256 SWAP1 JUMPDEST DUP2 SLOAD DUP2 MSTORE SWAP1 PUSH1 0x1 ADD SWAP1 PUSH1 0x20 ADD DUP1 DUP4 GT PUSH2 0x170B JUMPI DUP3 SWAP1 SUB PUSH1 0x1F AND DUP3 ADD SWAP2 JUMPDEST POP POP POP POP POP DUP2 MSTORE PUSH1 0x20 ADD PUSH1 0x3 DUP3 ADD SLOAD DUP2 MSTORE PUSH1 0x20 ADD PUSH1 0x4 DUP3 ADD SLOAD DUP2 MSTORE PUSH1 0x20 ADD PUSH1 0x5 DUP3 ADD SLOAD DUP2 MSTORE POP POP SWAP1 POP SWAP3 SWAP2 POP POP JUMP JUMPDEST PUSH1 0x60 PUSH0 PUSH1 0x2 SLOAD PUSH8 0xFFFFFFFFFFFFFFFF DUP2 GT ISZERO PUSH2 0x1776 JUMPI PUSH2 0x1775 PUSH2 0x3202 JUMP JUMPDEST JUMPDEST PUSH1 0x40 MLOAD SWAP1 DUP1 DUP3 MSTORE DUP1 PUSH1 0x20 MUL PUSH1 0x20 ADD DUP3 ADD PUSH1 0x40 MSTORE DUP1 ISZERO PUSH2 0x17A4 JUMPI DUP2 PUSH1 0x20 ADD PUSH1 0x20 DUP3 MUL DUP1 CALLDATASIZE DUP4 CALLDATACOPY DUP1 DUP3 ADD SWAP2 POP POP SWAP1 POP JUMPDEST POP SWAP1 POP PUSH0 DUP1 PUSH1 0x1 SWAP1 POP JUMPDEST PUSH1 0x2 SLOAD DUP2 LT ISZERO PUSH2 0x182A JUMPI DUP5 DUP1 MLOAD SWAP1 PUSH1 0x20 ADD KECCAK256 PUSH1 0x4 PUSH0 DUP4 DUP2 MSTORE PUSH1 0x20 ADD SWAP1 DUP2 MSTORE PUSH1 0x20 ADD PUSH0 KECCAK256 PUSH1 0x4 ADD PUSH1 0x40 MLOAD PUSH2 0x17E1 SWAP2 SWAP1 PUSH2 0x4571 JUMP JUMPDEST PUSH1 0x40 MLOAD DUP1 SWAP2 SUB SWAP1 KECCAK256 SUB PUSH2 0x181D JUMPI DUP1 DUP4 DUP4 DUP2 MLOAD DUP2 LT PUSH2 0x1802 JUMPI PUSH2 0x1801 PUSH2 0x4587 JUMP JUMPDEST JUMPDEST PUSH1 0x20 MUL PUSH1 0x20 ADD ADD DUP2 DUP2 MSTORE POP POP DUP2 DUP1 PUSH2 0x1819 SWAP1 PUSH2 0x4013 JUMP JUMPDEST SWAP3 POP POP JUMPDEST DUP1 DUP1 PUSH1 0x1 ADD SWAP2 POP POP PUSH2 0x17AE JUMP JUMPDEST POP PUSH0 DUP2 PUSH8 0xFFFFFFFFFFFFFFFF DUP2 GT ISZERO PUSH2 0x1846 JUMPI PUSH2 0x1845 PUSH2 0x3202 JUMP JUMPDEST JUMPDEST PUSH1 0x40 MLOAD SWAP1 DUP1 DUP3 MSTORE DUP1 PUSH1 0x20 MUL PUSH1 0x20 ADD DUP3 ADD PUSH1 0x40 MSTORE DUP1 ISZERO PUSH2 0x1874 JUMPI DUP2 PUSH1 0x20 ADD PUSH1 0x20 DUP3 MUL DUP1 CALLDATASIZE DUP4 CALLDATACOPY DUP1 DUP3 ADD SWAP2 POP POP SWAP1 POP JUMPDEST POP SWAP1 POP PUSH0 JUMPDEST DUP3 DUP2 LT ISZERO PUSH2 0x18C8 JUMPI DUP4 DUP2 DUP2 MLOAD DUP2 LT PUSH2 0x1894 JUMPI PUSH2 0x1893 PUSH2 0x4587 JUMP JUMPDEST JUMPDEST PUSH1 0x20 MUL PUSH1 0x20 ADD ADD MLOAD DUP3 DUP3 DUP2 MLOAD DUP2 LT PUSH2 0x18AF JUMPI PUSH2 0x18AE PUSH2 0x4587 JUMP JUMPDEST JUMPDEST PUSH1 0x20 MUL PUSH1 0x20 ADD ADD DUP2 DUP2 MSTORE POP POP DUP1 DUP1 PUSH1 0x1 ADD SWAP2 POP POP PUSH2 0x1879 JUMP JUMPDEST POP DUP1 SWAP4 POP POP POP POP SWAP2 SWAP1 POP JUMP JUMPDEST PUSH0 CALLVALUE GT PUSH2 0x1916 JUMPI PUSH1 0x40 MLOAD PUSH32 0x8C379A000000000000000000000000000000000000000000000000000000000 DUP2 MSTORE PUSH1 0x4 ADD PUSH2 0x190D SWAP1 PUSH2 0x45FE JUMP JUMPDEST PUSH1 0x40 MLOAD DUP1 SWAP2 SUB SWAP1 REVERT JUMPDEST PUSH0 DUP3 MLOAD GT PUSH2 0x1959 JUMPI PUSH1 0x40 MLOAD PUSH32 0x8C379A000000000000000000000000000000000000000000000000000000000 DUP2 MSTORE PUSH1 0x4 ADD PUSH2 0x1950 SWAP1 PUSH2 0x4666 JUMP JUMPDEST PUSH1 0x40 MLOAD DUP1 SWAP2 SUB SWAP1 REVERT JUMPDEST PUSH0 DUP1 PUSH1 0x2 DUP2 GT ISZERO PUSH2 0x196D JUMPI PUSH2 0x196C PUSH2 0x4684 JUMP JUMPDEST JUMPDEST DUP3 PUSH1 0x2 DUP2 GT ISZERO PUSH2 0x1980 JUMPI PUSH2 0x197F PUSH2 0x4684 JUMP JUMPDEST JUMPDEST SUB PUSH2 0x199B JUMPI PUSH3 0x93A80 TIMESTAMP PUSH2 0x1994 SWAP2 SWAP1 PUSH2 0x43D2 JUMP JUMPDEST SWAP1 POP PUSH2 0x1A1C JUMP JUMPDEST PUSH1 0x1 PUSH1 0x2 DUP2 GT ISZERO PUSH2 0x19AF JUMPI PUSH2 0x19AE PUSH2 0x4684 JUMP JUMPDEST JUMPDEST DUP3 PUSH1 0x2 DUP2 GT ISZERO PUSH2 0x19C2 JUMPI PUSH2 0x19C1 PUSH2 0x4684 JUMP JUMPDEST JUMPDEST SUB PUSH2 0x19DD JUMPI PUSH3 0x127500 TIMESTAMP PUSH2 0x19D6 SWAP2 SWAP1 PUSH2 0x43D2 JUMP JUMPDEST SWAP1 POP PUSH2 0x1A1B JUMP JUMPDEST PUSH1 0x2 DUP1 DUP2 GT ISZERO PUSH2 0x19F0 JUMPI PUSH2 0x19EF PUSH2 0x4684 JUMP JUMPDEST JUMPDEST DUP3 PUSH1 0x2 DUP2 GT ISZERO PUSH2 0x1A03 JUMPI PUSH2 0x1A02 PUSH2 0x4684 JUMP JUMPDEST JUMPDEST SUB PUSH2 0x1A1A JUMPI PUSH3 0x278D00 TIMESTAMP PUSH2 0x1A17 SWAP2 SWAP1 PUSH2 0x43D2 JUMP JUMPDEST SWAP1 POP JUMPDEST JUMPDEST JUMPDEST PUSH0 PUSH1 0x2 PUSH0 DUP2 SLOAD DUP1 SWAP3 SWAP2 SWAP1 PUSH2 0x1A2F SWAP1 PUSH2 0x4013 JUMP JUMPDEST SWAP2 SWAP1 POP SSTORE SWAP1 POP PUSH1 0x40 MLOAD DUP1 PUSH2 0x140 ADD PUSH1 0x40 MSTORE DUP1 DUP3 DUP2 MSTORE PUSH1 0x20 ADD CALLER PUSH20 0xFFFFFFFFFFFFFFFFFFFFFFFFFFFFFFFFFFFFFFFF AND DUP2 MSTORE PUSH1 0x20 ADD DUP8 DUP2 MSTORE PUSH1 0x20 ADD DUP7 DUP2 MSTORE PUSH1 0x20 ADD DUP6 DUP2 MSTORE PUSH1 0x20 ADD CALLVALUE DUP2 MSTORE PUSH1 0x20 ADD TIMESTAMP DUP2 MSTORE PUSH1 0x20 ADD DUP4 DUP2 MSTORE PUSH1 0x20 ADD PUSH0 ISZERO ISZERO DUP2 MSTORE PUSH1 0x20 ADD PUSH0 DUP2 MSTORE POP PUSH1 0x4 PUSH0 DUP4 DUP2 MSTORE PUSH1 0x20 ADD SWAP1 DUP2 MSTORE PUSH1 0x20 ADD PUSH0 KECCAK256 PUSH0 DUP3 ADD MLOAD DUP2 PUSH0 ADD SSTORE PUSH1 0x20 DUP3 ADD MLOAD DUP2 PUSH1 0x1 ADD PUSH0 PUSH2 0x100 EXP DUP2 SLOAD DUP2 PUSH20 0xFFFFFFFFFFFFFFFFFFFFFFFFFFFFFFFFFFFFFFFF MUL NOT AND SWAP1 DUP4 PUSH20 0xFFFFFFFFFFFFFFFFFFFFFFFFFFFFFFFFFFFFFFFF AND MUL OR SWAP1 SSTORE POP PUSH1 0x40 DUP3 ADD MLOAD DUP2 PUSH1 0x2 ADD SWAP1 DUP2 PUSH2 0x1B07 SWAP2 SWAP1 PUSH2 0x41F7 JUMP JUMPDEST POP PUSH1 0x60 DUP3 ADD MLOAD DUP2 PUSH1 0x3 ADD SWAP1 DUP2 PUSH2 0x1B1D SWAP2 SWAP1 PUSH2 0x41F7 JUMP JUMPDEST POP PUSH1 0x80 DUP3 ADD MLOAD DUP2 PUSH1 0x4 ADD SWAP1 DUP2 PUSH2 0x1B33 SWAP2 SWAP1 PUSH2 0x41F7 JUMP JUMPDEST POP PUSH1 0xA0 DUP3 ADD MLOAD DUP2 PUSH1 0x5 ADD SSTORE PUSH1 0xC0 DUP3 ADD MLOAD DUP2 PUSH1 0x6 ADD SSTORE PUSH1 0xE0 DUP3 ADD MLOAD DUP2 PUSH1 0x7 ADD SSTORE PUSH2 0x100 DUP3 ADD MLOAD DUP2 PUSH1 0x8 ADD PUSH0 PUSH2 0x100 EXP DUP2 SLOAD DUP2 PUSH1 0xFF MUL NOT AND SWAP1 DUP4 ISZERO ISZERO MUL OR SWAP1 SSTORE POP PUSH2 0x120 DUP3 ADD MLOAD DUP2 PUSH1 0x9 ADD SSTORE SWAP1 POP POP CALLER PUSH20 0xFFFFFFFFFFFFFFFFFFFFFFFFFFFFFFFFFFFFFFFF AND PUSH32 0xB8105899D34D8481E717A601E8D7A732C27B0AB23778E01145F2F3EB24A1120C DUP3 DUP9 CALLVALUE DUP9 PUSH1 0x40 MLOAD PUSH2 0x1BCC SWAP5 SWAP4 SWAP3 SWAP2 SWAP1 PUSH2 0x46B1 JUMP JUMPDEST PUSH1 0x40 MLOAD DUP1 SWAP2 SUB SWAP1 LOG2 POP POP POP POP POP POP JUMP JUMPDEST DUP1 PUSH0 PUSH20 0xFFFFFFFFFFFFFFFFFFFFFFFFFFFFFFFFFFFFFFFF AND PUSH1 0x4 PUSH0 DUP4 DUP2 MSTORE PUSH1 0x20 ADD SWAP1 DUP2 MSTORE PUSH1 0x20 ADD PUSH0 KECCAK256 PUSH1 0x1 ADD PUSH0 SWAP1 SLOAD SWAP1 PUSH2 0x100 EXP SWAP1 DIV PUSH20 0xFFFFFFFFFFFFFFFFFFFFFFFFFFFFFFFFFFFFFFFF AND PUSH20 0xFFFFFFFFFFFFFFFFFFFFFFFFFFFFFFFFFFFFFFFF AND SUB PUSH2 0x1C7E JUMPI PUSH1 0x40 MLOAD PUSH32 0x8C379A000000000000000000000000000000000000000000000000000000000 DUP2 MSTORE PUSH1 0x4 ADD PUSH2 0x1C75 SWAP1 PUSH2 0x3E0C JUMP JUMPDEST PUSH1 0x40 MLOAD DUP1 SWAP2 SUB SWAP1 REVERT JUMPDEST PUSH0 PUSH1 0x4 PUSH0 DUP5 DUP2 MSTORE PUSH1 0x20 ADD SWAP1 DUP2 MSTORE PUSH1 0x20 ADD PUSH0 KECCAK256 SWAP1 POP DUP1 PUSH1 0x7 ADD SLOAD TIMESTAMP GT PUSH2 0x1CD8 JUMPI PUSH1 0x40 MLOAD PUSH32 0x8C379A000000000000000000000000000000000000000000000000000000000 DUP2 MSTORE PUSH1 0x4 ADD PUSH2 0x1CCF SWAP1 PUSH2 0x4772 JUMP JUMPDEST PUSH1 0x40 MLOAD DUP1 SWAP2 SUB SWAP1 REVERT JUMPDEST DUP1 PUSH1 0x8 ADD PUSH0 SWAP1 SLOAD SWAP1 PUSH2 0x100 EXP SWAP1 DIV PUSH1 0xFF AND ISZERO PUSH2 0x1D29 JUMPI PUSH1 0x40 MLOAD PUSH32 0x8C379A000000000000000000000000000000000000000000000000000000000 DUP2 MSTORE PUSH1 0x4 ADD PUSH2 0x1D20 SWAP1 PUSH2 0x3E74 JUMP JUMPDEST PUSH1 0x40 MLOAD DUP1 SWAP2 SUB SWAP1 REVERT JUMPDEST PUSH0 DUP1 DUP3 PUSH1 0x5 ADD SLOAD SWAP1 POP PUSH0 JUMPDEST PUSH1 0x3 SLOAD DUP2 LT ISZERO PUSH2 0x1D7C JUMPI PUSH1 0x5 PUSH0 DUP8 DUP2 MSTORE PUSH1 0x20 ADD SWAP1 DUP2 MSTORE PUSH1 0x20 ADD PUSH0 KECCAK256 PUSH0 DUP3 DUP2 MSTORE PUSH1 0x20 ADD SWAP1 DUP2 MSTORE PUSH1 0x20 ADD PUSH0 KECCAK256 PUSH1 0x3 ADD SLOAD DUP4 PUSH2 0x1D6D SWAP2 SWAP1 PUSH2 0x43D2 JUMP JUMPDEST SWAP3 POP DUP1 DUP1 PUSH1 0x1 ADD SWAP2 POP POP PUSH2 0x1D34 JUMP JUMPDEST POP PUSH0 JUMPDEST PUSH1 0x3 SLOAD DUP2 LT ISZERO PUSH2 0x1E72 JUMPI PUSH0 PUSH1 0x5 PUSH0 DUP9 DUP2 MSTORE PUSH1 0x20 ADD SWAP1 DUP2 MSTORE PUSH1 0x20 ADD PUSH0 KECCAK256 PUSH0 DUP4 DUP2 MSTORE PUSH1 0x20 ADD SWAP1 DUP2 MSTORE PUSH1 0x20 ADD PUSH0 KECCAK256 SWAP1 POP PUSH0 DUP5 GT ISZERO PUSH2 0x1E64 JUMPI PUSH0 DUP5 DUP5 DUP4 PUSH1 0x3 ADD SLOAD PUSH2 0x1DC6 SWAP2 SWAP1 PUSH2 0x4790 JUMP JUMPDEST PUSH2 0x1DD0 SWAP2 SWAP1 PUSH2 0x47FE JUMP JUMPDEST SWAP1 POP DUP1 DUP3 PUSH1 0x4 ADD PUSH0 DUP3 DUP3 SLOAD PUSH2 0x1DE5 SWAP2 SWAP1 PUSH2 0x43D2 JUMP JUMPDEST SWAP3 POP POP DUP2 SWAP1 SSTORE POP DUP1 PUSH1 0x6 PUSH0 DUP5 PUSH1 0x1 ADD PUSH0 SWAP1 SLOAD SWAP1 PUSH2 0x100 EXP SWAP1 DIV PUSH20 0xFFFFFFFFFFFFFFFFFFFFFFFFFFFFFFFFFFFFFFFF AND PUSH20 0xFFFFFFFFFFFFFFFFFFFFFFFFFFFFFFFFFFFFFFFF AND PUSH20 0xFFFFFFFFFFFFFFFFFFFFFFFFFFFFFFFFFFFFFFFF AND DUP2 MSTORE PUSH1 0x20 ADD SWAP1 DUP2 MSTORE PUSH1 0x20 ADD PUSH0 KECCAK256 PUSH0 DUP3 DUP3 SLOAD PUSH2 0x1E5B SWAP2 SWAP1 PUSH2 0x43D2 JUMP JUMPDEST SWAP3 POP POP DUP2 SWAP1 SSTORE POP POP JUMPDEST POP DUP1 DUP1 PUSH1 0x1 ADD SWAP2 POP POP PUSH2 0x1D7F JUMP JUMPDEST POP PUSH1 0x1 DUP4 PUSH1 0x8 ADD PUSH0 PUSH2 0x100 EXP DUP2 SLOAD DUP2 PUSH1 0xFF MUL NOT AND SWAP1 DUP4 ISZERO ISZERO MUL OR SWAP1 SSTORE POP POP POP POP POP POP JUMP JUMPDEST PUSH1 0x2 SLOAD DUP2 JUMP JUMPDEST PUSH0 DUP1 SLOAD SWAP1 PUSH2 0x100 EXP SWAP1 DIV PUSH20 0xFFFFFFFFFFFFFFFFFFFFFFFFFFFFFFFFFFFFFFFF AND DUP2 JUMP JUMPDEST PUSH0 PUSH20 0xFFFFFFFFFFFFFFFFFFFFFFFFFFFFFFFFFFFFFFFF AND PUSH1 0x4 PUSH0 DUP5 DUP2 MSTORE PUSH1 0x20 ADD SWAP1 DUP2 MSTORE PUSH1 0x20 ADD PUSH0 KECCAK256 PUSH1 0x1 ADD PUSH0 SWAP1 SLOAD SWAP1 PUSH2 0x100 EXP SWAP1 DIV PUSH20 0xFFFFFFFFFFFFFFFFFFFFFFFFFFFFFFFFFFFFFFFF AND PUSH20 0xFFFFFFFFFFFFFFFFFFFFFFFFFFFFFFFFFFFFFFFF AND SUB PUSH2 0x1F60 JUMPI PUSH1 0x40 MLOAD PUSH32 0x8C379A000000000000000000000000000000000000000000000000000000000 DUP2 MSTORE PUSH1 0x4 ADD PUSH2 0x1F57 SWAP1 PUSH2 0x3E0C JUMP JUMPDEST PUSH1 0x40 MLOAD DUP1 SWAP2 SUB SWAP1 REVERT JUMPDEST PUSH1 0x4 PUSH0 DUP4 DUP2 MSTORE PUSH1 0x20 ADD SWAP1 DUP2 MSTORE PUSH1 0x20 ADD PUSH0 KECCAK256 PUSH1 0x1 ADD PUSH0 SWAP1 SLOAD SWAP1 PUSH2 0x100 EXP SWAP1 DIV PUSH20 0xFFFFFFFFFFFFFFFFFFFFFFFFFFFFFFFFFFFFFFFF AND PUSH20 0xFFFFFFFFFFFFFFFFFFFFFFFFFFFFFFFFFFFFFFFF AND CALLER PUSH20 0xFFFFFFFFFFFFFFFFFFFFFFFFFFFFFFFFFFFFFFFF AND EQ PUSH2 0x2001 JUMPI PUSH1 0x40 MLOAD PUSH32 0x8C379A000000000000000000000000000000000000000000000000000000000 DUP2 MSTORE PUSH1 0x4 ADD PUSH2 0x1FF8 SWAP1 PUSH2 0x489E JUMP JUMPDEST PUSH1 0x40 MLOAD DUP1 SWAP2 SUB SWAP1 REVERT JUMPDEST PUSH0 PUSH20 0xFFFFFFFFFFFFFFFFFFFFFFFFFFFFFFFFFFFFFFFF AND PUSH1 0x5 PUSH0 DUP5 DUP2 MSTORE PUSH1 0x20 ADD SWAP1 DUP2 MSTORE PUSH1 0x20 ADD PUSH0 KECCAK256 PUSH0 DUP4 DUP2 MSTORE PUSH1 0x20 ADD SWAP1 DUP2 MSTORE PUSH1 0x20 ADD PUSH0 KECCAK256 PUSH1 0x1 ADD PUSH0 SWAP1 SLOAD SWAP1 PUSH2 0x100 EXP SWAP1 DIV PUSH20 0xFFFFFFFFFFFFFFFFFFFFFFFFFFFFFFFFFFFFFFFF AND PUSH20 0xFFFFFFFFFFFFFFFFFFFFFFFFFFFFFFFFFFFFFFFF AND SUB PUSH2 0x20B1 JUMPI PUSH1 0x40 MLOAD PUSH32 0x8C379A000000000000000000000000000000000000000000000000000000000 DUP2 MSTORE PUSH1 0x4 ADD PUSH2 0x20A8 SWAP1 PUSH2 0x44B7 JUMP JUMPDEST PUSH1 0x40 MLOAD DUP1 SWAP2 SUB SWAP1 REVERT JUMPDEST PUSH1 0x4 PUSH0 DUP4 DUP2 MSTORE PUSH1 0x20 ADD SWAP1 DUP2 MSTORE PUSH1 0x20 ADD PUSH0 KECCAK256 PUSH1 0x8 ADD PUSH0 SWAP1 SLOAD SWAP1 PUSH2 0x100 EXP SWAP1 DIV PUSH1 0xFF AND ISZERO PUSH2 0x2112 JUMPI PUSH1 0x40 MLOAD PUSH32 0x8C379A000000000000000000000000000000000000000000000000000000000 DUP2 MSTORE PUSH1 0x4 ADD PUSH2 0x2109 SWAP1 PUSH2 0x3E74 JUMP JUMPDEST PUSH1 0x40 MLOAD DUP1 SWAP2 SUB SWAP1 REVERT JUMPDEST PUSH1 0x1 PUSH1 0x4 PUSH0 DUP5 DUP2 MSTORE PUSH1 0x20 ADD SWAP1 DUP2 MSTORE PUSH1 0x20 ADD PUSH0 KECCAK256 PUSH1 0x8 ADD PUSH0 PUSH2 0x100 EXP DUP2 SLOAD DUP2 PUSH1 0xFF MUL NOT AND SWAP1 DUP4 ISZERO ISZERO MUL OR SWAP1 SSTORE POP DUP1 PUSH1 0x4 PUSH0 DUP5 DUP2 MSTORE PUSH1 0x20 ADD SWAP1 DUP2 MSTORE PUSH1 0x20 ADD PUSH0 KECCAK256 PUSH1 0x9 ADD DUP2 SWAP1 SSTORE POP PUSH0 PUSH1 0x5 PUSH0 DUP5 DUP2 MSTORE PUSH1 0x20 ADD SWAP1 DUP2 MSTORE PUSH1 0x20 ADD PUSH0 KECCAK256 PUSH0 DUP4 DUP2 MSTORE PUSH1 0x20 ADD SWAP1 DUP2 MSTORE PUSH1 0x20 ADD PUSH0 KECCAK256 PUSH1 0x1 ADD PUSH0 SWAP1 SLOAD SWAP1 PUSH2 0x100 EXP SWAP1 DIV PUSH20 0xFFFFFFFFFFFFFFFFFFFFFFFFFFFFFFFFFFFFFFFF AND SWAP1 POP PUSH0 PUSH1 0x4 PUSH0 DUP6 DUP2 MSTORE PUSH1 0x20 ADD SWAP1 DUP2 MSTORE PUSH1 0x20 ADD PUSH0 KECCAK256 PUSH1 0x5 ADD SLOAD SWAP1 POP DUP1 PUSH1 0x5 PUSH0 DUP7 DUP2 MSTORE PUSH1 0x20 ADD SWAP1 DUP2 MSTORE PUSH1 0x20 ADD PUSH0 KECCAK256 PUSH0 DUP6 DUP2 MSTORE PUSH1 0x20 ADD SWAP1 DUP2 MSTORE PUSH1 0x20 ADD PUSH0 KECCAK256 PUSH1 0x4 ADD DUP2 SWAP1 SSTORE POP DUP2 PUSH20 0xFFFFFFFFFFFFFFFFFFFFFFFFFFFFFFFFFFFFFFFF AND PUSH2 0x8FC DUP3 SWAP1 DUP2 ISZERO MUL SWAP1 PUSH1 0x40 MLOAD PUSH0 PUSH1 0x40 MLOAD DUP1 DUP4 SUB DUP2 DUP6 DUP9 DUP9 CALL SWAP4 POP POP POP POP ISZERO DUP1 ISZERO PUSH2 0x2220 JUMPI RETURNDATASIZE PUSH0 DUP1 RETURNDATACOPY RETURNDATASIZE PUSH0 REVERT JUMPDEST POP PUSH32 0x99FE2C8ABD13B610E7F7D4A51A49E1391BA19454B72305176B884D66010E475A DUP5 DUP5 PUSH1 0x40 MLOAD PUSH2 0x2252 SWAP3 SWAP2 SWAP1 PUSH2 0x3EFA JUMP JUMPDEST PUSH1 0x40 MLOAD DUP1 SWAP2 SUB SWAP1 LOG1 POP POP POP POP JUMP JUMPDEST PUSH3 0x127500 DUP2 JUMP JUMPDEST PUSH0 SELFBALANCE SWAP1 POP SWAP1 JUMP JUMPDEST PUSH1 0x3 SLOAD DUP2 JUMP JUMPDEST PUSH3 0x278D00 DUP2 JUMP JUMPDEST PUSH1 0x1 SLOAD DUP2 JUMP JUMPDEST PUSH2 0x2289 PUSH2 0x3104 JUMP JUMPDEST PUSH0 PUSH20 0xFFFFFFFFFFFFFFFFFFFFFFFFFFFFFFFFFFFFFFFF AND PUSH1 0x4 PUSH0 DUP5 DUP2 MSTORE PUSH1 0x20 ADD SWAP1 DUP2 MSTORE PUSH1 0x20 ADD PUSH0 KECCAK256 PUSH1 0x1 ADD PUSH0 SWAP1 SLOAD SWAP1 PUSH2 0x100 EXP SWAP1 DIV PUSH20 0xFFFFFFFFFFFFFFFFFFFFFFFFFFFFFFFFFFFFFFFF AND PUSH20 0xFFFFFFFFFFFFFFFFFFFFFFFFFFFFFFFFFFFFFFFF AND SUB PUSH2 0x232A JUMPI PUSH1 0x40 MLOAD PUSH32 0x8C379A000000000000000000000000000000000000000000000000000000000 DUP2 MSTORE PUSH1 0x4 ADD PUSH2 0x2321 SWAP1 PUSH2 0x3E0C JUMP JUMPDEST PUSH1 0x40 MLOAD DUP1 SWAP2 SUB SWAP1 REVERT JUMPDEST PUSH1 0x4 PUSH0 DUP4 DUP2 MSTORE PUSH1 0x20 ADD SWAP1 DUP2 MSTORE PUSH1 0x20 ADD PUSH0 KECCAK256 PUSH1 0x40 MLOAD DUP1 PUSH2 0x140 ADD PUSH1 0x40 MSTORE SWAP1 DUP2 PUSH0 DUP3 ADD SLOAD DUP2 MSTORE PUSH1 0x20 ADD PUSH1 0x1 DUP3 ADD PUSH0 SWAP1 SLOAD SWAP1 PUSH2 0x100 EXP SWAP1 DIV PUSH20 0xFFFFFFFFFFFFFFFFFFFFFFFFFFFFFFFFFFFFFFFF AND PUSH20 0xFFFFFFFFFFFFFFFFFFFFFFFFFFFFFFFFFFFFFFFF AND PUSH20 0xFFFFFFFFFFFFFFFFFFFFFFFFFFFFFFFFFFFFFFFF AND DUP2 MSTORE PUSH1 0x20 ADD PUSH1 0x2 DUP3 ADD DUP1 SLOAD PUSH2 0x23B5 SWAP1 PUSH2 0x3F4E JUMP JUMPDEST DUP1 PUSH1 0x1F ADD PUSH1 0x20 DUP1 SWAP2 DIV MUL PUSH1 0x20 ADD PUSH1 0x40 MLOAD SWAP1 DUP2 ADD PUSH1 0x40 MSTORE DUP1 SWAP3 SWAP2 SWAP1 DUP2 DUP2 MSTORE PUSH1 0x20 ADD DUP3 DUP1 SLOAD PUSH2 0x23E1 SWAP1 PUSH2 0x3F4E JUMP JUMPDEST DUP1 ISZERO PUSH2 0x242C JUMPI DUP1 PUSH1 0x1F LT PUSH2 0x2403 JUMPI PUSH2 0x100 DUP1 DUP4 SLOAD DIV MUL DUP4 MSTORE SWAP2 PUSH1 0x20 ADD SWAP2 PUSH2 0x242C JUMP JUMPDEST DUP3 ADD SWAP2 SWAP1 PUSH0 MSTORE PUSH1 0x20 PUSH0 KECCAK256 SWAP1 JUMPDEST DUP2 SLOAD DUP2 MSTORE SWAP1 PUSH1 0x1 ADD SWAP1 PUSH1 0x20 ADD DUP1 DUP4 GT PUSH2 0x240F JUMPI DUP3 SWAP1 SUB PUSH1 0x1F AND DUP3 ADD SWAP2 JUMPDEST POP POP POP POP POP DUP2 MSTORE PUSH1 0x20 ADD PUSH1 0x3 DUP3 ADD DUP1 SLOAD PUSH2 0x2445 SWAP1 PUSH2 0x3F4E JUMP JUMPDEST DUP1 PUSH1 0x1F ADD PUSH1 0x20 DUP1 SWAP2 DIV MUL PUSH1 0x20 ADD PUSH1 0x40 MLOAD SWAP1 DUP2 ADD PUSH1 0x40 MSTORE DUP1 SWAP3 SWAP2 SWAP1 DUP2 DUP2 MSTORE PUSH1 0x20 ADD DUP3 DUP1 SLOAD PUSH2 0x2471 SWAP1 PUSH2 0x3F4E JUMP JUMPDEST DUP1 ISZERO PUSH2 0x24BC JUMPI DUP1 PUSH1 0x1F LT PUSH2 0x2493 JUMPI PUSH2 0x100 DUP1 DUP4 SLOAD DIV MUL DUP4 MSTORE SWAP2 PUSH1 0x20 ADD SWAP2 PUSH2 0x24BC JUMP JUMPDEST DUP3 ADD SWAP2 SWAP1 PUSH0 MSTORE PUSH1 0x20 PUSH0 KECCAK256 SWAP1 JUMPDEST DUP2 SLOAD DUP2 MSTORE SWAP1 PUSH1 0x1 ADD SWAP1 PUSH1 0x20 ADD DUP1 DUP4 GT PUSH2 0x249F JUMPI DUP3 SWAP1 SUB PUSH1 0x1F AND DUP3 ADD SWAP2 JUMPDEST POP POP POP POP POP DUP2 MSTORE PUSH1 0x20 ADD PUSH1 0x4 DUP3 ADD DUP1 SLOAD PUSH2 0x24D5 SWAP1 PUSH2 0x3F4E JUMP JUMPDEST DUP1 PUSH1 0x1F ADD PUSH1 0x20 DUP1 SWAP2 DIV MUL PUSH1 0x20 ADD PUSH1 0x40 MLOAD SWAP1 DUP2 ADD PUSH1 0x40 MSTORE DUP1 SWAP3 SWAP2 SWAP1 DUP2 DUP2 MSTORE PUSH1 0x20 ADD DUP3 DUP1 SLOAD PUSH2 0x2501 SWAP1 PUSH2 0x3F4E JUMP JUMPDEST DUP1 ISZERO PUSH2 0x254C JUMPI DUP1 PUSH1 0x1F LT PUSH2 0x2523 JUMPI PUSH2 0x100 DUP1 DUP4 SLOAD DIV MUL DUP4 MSTORE SWAP2 PUSH1 0x20 ADD SWAP2 PUSH2 0x254C JUMP JUMPDEST DUP3 ADD SWAP2 SWAP1 PUSH0 MSTORE PUSH1 0x20 PUSH0 KECCAK256 SWAP1 JUMPDEST DUP2 SLOAD DUP2 MSTORE SWAP1 PUSH1 0x1 ADD SWAP1 PUSH1 0x20 ADD DUP1 DUP4 GT PUSH2 0x252F JUMPI DUP3 SWAP1 SUB PUSH1 0x1F AND DUP3 ADD SWAP2 JUMPDEST POP POP POP POP POP DUP2 MSTORE PUSH1 0x20 ADD PUSH1 0x5 DUP3 ADD SLOAD DUP2 MSTORE PUSH1 0x20 ADD PUSH1 0x6 DUP3 ADD SLOAD DUP2 MSTORE PUSH1 0x20 ADD PUSH1 0x7 DUP3 ADD SLOAD DUP2 MSTORE PUSH1 0x20 ADD PUSH1 0x8 DUP3 ADD PUSH0 SWAP1 SLOAD SWAP1 PUSH2 0x100 EXP SWAP1 DIV PUSH1 0xFF AND ISZERO ISZERO ISZERO ISZERO DUP2 MSTORE PUSH1 0x20 ADD PUSH1 0x9 DUP3 ADD SLOAD DUP2 MSTORE POP POP SWAP1 POP SWAP2 SWAP1 POP JUMP JUMPDEST PUSH1 0x60 PUSH0 DUP1 PUSH0 PUSH20 0xFFFFFFFFFFFFFFFFFFFFFFFFFFFFFFFFFFFFFFFF AND PUSH1 0x4 PUSH0 DUP9 DUP2 MSTORE PUSH1 0x20 ADD SWAP1 DUP2 MSTORE PUSH1 0x20 ADD PUSH0 KECCAK256 PUSH1 0x1 ADD PUSH0 SWAP1 SLOAD SWAP1 PUSH2 0x100 EXP SWAP1 DIV PUSH20 0xFFFFFFFFFFFFFFFFFFFFFFFFFFFFFFFFFFFFFFFF AND PUSH20 0xFFFFFFFFFFFFFFFFFFFFFFFFFFFFFFFFFFFFFFFF AND SUB PUSH2 0x2643 JUMPI PUSH1 0x40 MLOAD PUSH32 0x8C379A000000000000000000000000000000000000000000000000000000000 DUP2 MSTORE PUSH1 0x4 ADD PUSH2 0x263A SWAP1 PUSH2 0x3E0C JUMP JUMPDEST PUSH1 0x40 MLOAD DUP1 SWAP2 SUB SWAP1 REVERT JUMPDEST PUSH0 DUP6 GT PUSH2 0x2685 JUMPI PUSH1 0x40 MLOAD PUSH32 0x8C379A000000000000000000000000000000000000000000000000000000000 DUP2 MSTORE PUSH1 0x4 ADD PUSH2 0x267C SWAP1 PUSH2 0x4906 JUMP JUMPDEST PUSH1 0x40 MLOAD DUP1 SWAP2 SUB SWAP1 REVERT JUMPDEST PUSH0 DUP5 GT PUSH2 0x26C7 JUMPI PUSH1 0x40 MLOAD PUSH32 0x8C379A000000000000000000000000000000000000000000000000000000000 DUP2 MSTORE PUSH1 0x4 ADD PUSH2 0x26BE SWAP1 PUSH2 0x496E JUMP JUMPDEST PUSH1 0x40 MLOAD DUP1 SWAP2 SUB SWAP1 REVERT JUMPDEST PUSH0 DUP1 PUSH1 0x1 SWAP1 POP JUMPDEST PUSH1 0x3 SLOAD DUP2 LT ISZERO PUSH2 0x2769 JUMPI PUSH0 PUSH20 0xFFFFFFFFFFFFFFFFFFFFFFFFFFFFFFFFFFFFFFFF AND PUSH1 0x5 PUSH0 DUP11 DUP2 MSTORE PUSH1 0x20 ADD SWAP1 DUP2 MSTORE PUSH1 0x20 ADD PUSH0 KECCAK256 PUSH0 DUP4 DUP2 MSTORE PUSH1 0x20 ADD SWAP1 DUP2 MSTORE PUSH1 0x20 ADD PUSH0 KECCAK256 PUSH1 0x1 ADD PUSH0 SWAP1 SLOAD SWAP1 PUSH2 0x100 EXP SWAP1 DIV PUSH20 0xFFFFFFFFFFFFFFFFFFFFFFFFFFFFFFFFFFFFFFFF AND PUSH20 0xFFFFFFFFFFFFFFFFFFFFFFFFFFFFFFFFFFFFFFFF AND EQ PUSH2 0x275C JUMPI DUP2 DUP1 PUSH2 0x2758 SWAP1 PUSH2 0x4013 JUMP JUMPDEST SWAP3 POP POP JUMPDEST DUP1 DUP1 PUSH1 0x1 ADD SWAP2 POP POP PUSH2 0x26CE JUMP JUMPDEST POP DUP1 SWAP3 POP PUSH0 DUP4 SUB PUSH2 0x27D6 JUMPI PUSH0 PUSH8 0xFFFFFFFFFFFFFFFF DUP2 GT ISZERO PUSH2 0x278E JUMPI PUSH2 0x278D PUSH2 0x3202 JUMP JUMPDEST JUMPDEST PUSH1 0x40 MLOAD SWAP1 DUP1 DUP3 MSTORE DUP1 PUSH1 0x20 MUL PUSH1 0x20 ADD DUP3 ADD PUSH1 0x40 MSTORE DUP1 ISZERO PUSH2 0x27C7 JUMPI DUP2 PUSH1 0x20 ADD JUMPDEST PUSH2 0x27B4 PUSH2 0x30BD JUMP JUMPDEST DUP2 MSTORE PUSH1 0x20 ADD SWAP1 PUSH1 0x1 SWAP1 SUB SWAP1 DUP2 PUSH2 0x27AC JUMPI SWAP1 POP JUMPDEST POP PUSH0 DUP1 SWAP4 POP SWAP4 POP SWAP4 POP POP PUSH2 0x2BA3 JUMP JUMPDEST DUP5 PUSH1 0x1 DUP7 DUP6 PUSH2 0x27E5 SWAP2 SWAP1 PUSH2 0x43D2 JUMP JUMPDEST PUSH2 0x27EF SWAP2 SWAP1 PUSH2 0x498C JUMP JUMPDEST PUSH2 0x27F9 SWAP2 SWAP1 PUSH2 0x47FE JUMP JUMPDEST SWAP2 POP DUP2 DUP7 GT ISZERO PUSH2 0x283E JUMPI PUSH1 0x40 MLOAD PUSH32 0x8C379A000000000000000000000000000000000000000000000000000000000 DUP2 MSTORE PUSH1 0x4 ADD PUSH2 0x2835 SWAP1 PUSH2 0x4A09 JUMP JUMPDEST PUSH1 0x40 MLOAD DUP1 SWAP2 SUB SWAP1 REVERT JUMPDEST PUSH0 PUSH1 0x1 DUP7 PUSH1 0x1 DUP10 PUSH2 0x284F SWAP2 SWAP1 PUSH2 0x498C JUMP JUMPDEST PUSH2 0x2859 SWAP2 SWAP1 PUSH2 0x4790 JUMP JUMPDEST PUSH2 0x2863 SWAP2 SWAP1 PUSH2 0x43D2 JUMP JUMPDEST SWAP1 POP PUSH0 PUSH1 0x1 DUP8 DUP4 PUSH2 0x2874 SWAP2 SWAP1 PUSH2 0x43D2 JUMP JUMPDEST PUSH2 0x287E SWAP2 SWAP1 PUSH2 0x498C JUMP JUMPDEST SWAP1 POP PUSH1 0x1 PUSH1 0x3 SLOAD PUSH2 0x288F SWAP2 SWAP1 PUSH2 0x498C JUMP JUMPDEST DUP2 GT ISZERO PUSH2 0x28A8 JUMPI PUSH1 0x1 PUSH1 0x3 SLOAD PUSH2 0x28A5 SWAP2 SWAP1 PUSH2 0x498C JUMP JUMPDEST SWAP1 POP JUMPDEST PUSH0 DUP1 DUP4 SWAP1 POP JUMPDEST DUP3 DUP2 GT PUSH2 0x294C JUMPI PUSH0 PUSH20 0xFFFFFFFFFFFFFFFFFFFFFFFFFFFFFFFFFFFFFFFF AND PUSH1 0x5 PUSH0 DUP14 DUP2 MSTORE PUSH1 0x20 ADD SWAP1 DUP2 MSTORE PUSH1 0x20 ADD PUSH0 KECCAK256 PUSH0 DUP4 DUP2 MSTORE PUSH1 0x20 ADD SWAP1 DUP2 MSTORE PUSH1 0x20 ADD PUSH0 KECCAK256 PUSH1 0x1 ADD PUSH0 SWAP1 SLOAD SWAP1 PUSH2 0x100 EXP SWAP1 DIV PUSH20 0xFFFFFFFFFFFFFFFFFFFFFFFFFFFFFFFFFFFFFFFF AND PUSH20 0xFFFFFFFFFFFFFFFFFFFFFFFFFFFFFFFFFFFFFFFF AND EQ PUSH2 0x2939 JUMPI DUP2 DUP1 PUSH2 0x2935 SWAP1 PUSH2 0x4013 JUMP JUMPDEST SWAP3 POP POP JUMPDEST DUP1 DUP1 PUSH2 0x2944 SWAP1 PUSH2 0x4013 JUMP JUMPDEST SWAP2 POP POP PUSH2 0x28AE JUMP JUMPDEST POP DUP1 PUSH8 0xFFFFFFFFFFFFFFFF DUP2 GT ISZERO PUSH2 0x2967 JUMPI PUSH2 0x2966 PUSH2 0x3202 JUMP JUMPDEST JUMPDEST PUSH1 0x40 MLOAD SWAP1 DUP1 DUP3 MSTORE DUP1 PUSH1 0x20 MUL PUSH1 0x20 ADD DUP3 ADD PUSH1 0x40 MSTORE DUP1 ISZERO PUSH2 0x29A0 JUMPI DUP2 PUSH1 0x20 ADD JUMPDEST PUSH2 0x298D PUSH2 0x30BD JUMP JUMPDEST DUP2 MSTORE PUSH1 0x20 ADD SWAP1 PUSH1 0x1 SWAP1 SUB SWAP1 DUP2 PUSH2 0x2985 JUMPI SWAP1 POP JUMPDEST POP SWAP7 POP PUSH0 DUP1 DUP5 SWAP1 POP JUMPDEST DUP4 DUP2 GT PUSH2 0x2B9C JUMPI PUSH0 PUSH20 0xFFFFFFFFFFFFFFFFFFFFFFFFFFFFFFFFFFFFFFFF AND PUSH1 0x5 PUSH0 DUP15 DUP2 MSTORE PUSH1 0x20 ADD SWAP1 DUP2 MSTORE PUSH1 0x20 ADD PUSH0 KECCAK256 PUSH0 DUP4 DUP2 MSTORE PUSH1 0x20 ADD SWAP1 DUP2 MSTORE PUSH1 0x20 ADD PUSH0 KECCAK256 PUSH1 0x1 ADD PUSH0 SWAP1 SLOAD SWAP1 PUSH2 0x100 EXP SWAP1 DIV PUSH20 0xFFFFFFFFFFFFFFFFFFFFFFFFFFFFFFFFFFFFFFFF AND PUSH20 0xFFFFFFFFFFFFFFFFFFFFFFFFFFFFFFFFFFFFFFFF AND EQ PUSH2 0x2B89 JUMPI PUSH1 0x5 PUSH0 DUP14 DUP2 MSTORE PUSH1 0x20 ADD SWAP1 DUP2 MSTORE PUSH1 0x20 ADD PUSH0 KECCAK256 PUSH0 DUP3 DUP2 MSTORE PUSH1 0x20 ADD SWAP1 DUP2 MSTORE PUSH1 0x20 ADD PUSH0 KECCAK256 PUSH1 0x40 MLOAD DUP1 PUSH1 0xC0 ADD PUSH1 0x40 MSTORE SWAP1 DUP2 PUSH0 DUP3 ADD SLOAD DUP2 MSTORE PUSH1 0x20 ADD PUSH1 0x1 DUP3 ADD PUSH0 SWAP1 SLOAD SWAP1 PUSH2 0x100 EXP SWAP1 DIV PUSH20 0xFFFFFFFFFFFFFFFFFFFFFFFFFFFFFFFFFFFFFFFF AND PUSH20 0xFFFFFFFFFFFFFFFFFFFFFFFFFFFFFFFFFFFFFFFF AND PUSH20 0xFFFFFFFFFFFFFFFFFFFFFFFFFFFFFFFFFFFFFFFF AND DUP2 MSTORE PUSH1 0x20 ADD PUSH1 0x2 DUP3 ADD DUP1 SLOAD PUSH2 0x2ABE SWAP1 PUSH2 0x3F4E JUMP JUMPDEST DUP1 PUSH1 0x1F ADD PUSH1 0x20 DUP1 SWAP2 DIV MUL PUSH1 0x20 ADD PUSH1 0x40 MLOAD SWAP1 DUP2 ADD PUSH1 0x40 MSTORE DUP1 SWAP3 SWAP2 SWAP1 DUP2 DUP2 MSTORE PUSH1 0x20 ADD DUP3 DUP1 SLOAD PUSH2 0x2AEA SWAP1 PUSH2 0x3F4E JUMP JUMPDEST DUP1 ISZERO PUSH2 0x2B35 JUMPI DUP1 PUSH1 0x1F LT PUSH2 0x2B0C JUMPI PUSH2 0x100 DUP1 DUP4 SLOAD DIV MUL DUP4 MSTORE SWAP2 PUSH1 0x20 ADD SWAP2 PUSH2 0x2B35 JUMP JUMPDEST DUP3 ADD SWAP2 SWAP1 PUSH0 MSTORE PUSH1 0x20 PUSH0 KECCAK256 SWAP1 JUMPDEST DUP2 SLOAD DUP2 MSTORE SWAP1 PUSH1 0x1 ADD SWAP1 PUSH1 0x20 ADD DUP1 DUP4 GT PUSH2 0x2B18 JUMPI DUP3 SWAP1 SUB PUSH1 0x1F AND DUP3 ADD SWAP2 JUMPDEST POP POP POP POP POP DUP2 MSTORE PUSH1 0x20 ADD PUSH1 0x3 DUP3 ADD SLOAD DUP2 MSTORE PUSH1 0x20 ADD PUSH1 0x4 DUP3 ADD SLOAD DUP2 MSTORE PUSH1 0x20 ADD PUSH1 0x5 DUP3 ADD SLOAD DUP2 MSTORE POP POP DUP10 DUP4 DUP2 MLOAD DUP2 LT PUSH2 0x2B6F JUMPI PUSH2 0x2B6E PUSH2 0x4587 JUMP JUMPDEST JUMPDEST PUSH1 0x20 MUL PUSH1 0x20 ADD ADD DUP2 SWAP1 MSTORE POP DUP2 DUP1 PUSH2 0x2B85 SWAP1 PUSH2 0x4013 JUMP JUMPDEST SWAP3 POP POP JUMPDEST DUP1 DUP1 PUSH2 0x2B94 SWAP1 PUSH2 0x4013 JUMP JUMPDEST SWAP2 POP POP PUSH2 0x29A9 JUMP JUMPDEST POP POP POP POP POP POP JUMPDEST SWAP4 POP SWAP4 POP SWAP4 SWAP1 POP JUMP JUMPDEST PUSH3 0x93A80 DUP2 JUMP JUMPDEST PUSH1 0x60 PUSH0 DUP1 PUSH0 DUP6 GT PUSH2 0x2BF9 JUMPI PUSH1 0x40 MLOAD PUSH32 0x8C379A000000000000000000000000000000000000000000000000000000000 DUP2 MSTORE PUSH1 0x4 ADD PUSH2 0x2BF0 SWAP1 PUSH2 0x4906 JUMP JUMPDEST PUSH1 0x40 MLOAD DUP1 SWAP2 SUB SWAP1 REVERT JUMPDEST PUSH0 DUP5 GT PUSH2 0x2C3B JUMPI PUSH1 0x40 MLOAD PUSH32 0x8C379A000000000000000000000000000000000000000000000000000000000 DUP2 MSTORE PUSH1 0x4 ADD PUSH2 0x2C32 SWAP1 PUSH2 0x496E JUMP JUMPDEST PUSH1 0x40 MLOAD DUP1 SWAP2 SUB SWAP1 REVERT JUMPDEST PUSH1 0x1 PUSH1 0x2 SLOAD PUSH2 0x2C4A SWAP2 SWAP1 PUSH2 0x498C JUMP JUMPDEST SWAP2 POP PUSH0 DUP3 SUB PUSH2 0x2CB4 JUMPI PUSH0 PUSH8 0xFFFFFFFFFFFFFFFF DUP2 GT ISZERO PUSH2 0x2C6D JUMPI PUSH2 0x2C6C PUSH2 0x3202 JUMP JUMPDEST JUMPDEST PUSH1 0x40 MLOAD SWAP1 DUP1 DUP3 MSTORE DUP1 PUSH1 0x20 MUL PUSH1 0x20 ADD DUP3 ADD PUSH1 0x40 MSTORE DUP1 ISZERO PUSH2 0x2CA6 JUMPI DUP2 PUSH1 0x20 ADD JUMPDEST PUSH2 0x2C93 PUSH2 0x3104 JUMP JUMPDEST DUP2 MSTORE PUSH1 0x20 ADD SWAP1 PUSH1 0x1 SWAP1 SUB SWAP1 DUP2 PUSH2 0x2C8B JUMPI SWAP1 POP JUMPDEST POP PUSH0 DUP1 SWAP3 POP SWAP3 POP SWAP3 POP PUSH2 0x30B6 JUMP JUMPDEST DUP4 PUSH1 0x1 DUP6 DUP5 PUSH2 0x2CC3 SWAP2 SWAP1 PUSH2 0x43D2 JUMP JUMPDEST PUSH2 0x2CCD SWAP2 SWAP1 PUSH2 0x498C JUMP JUMPDEST PUSH2 0x2CD7 SWAP2 SWAP1 PUSH2 0x47FE JUMP JUMPDEST SWAP1 POP DUP1 DUP6 GT ISZERO PUSH2 0x2D1C JUMPI PUSH1 0x40 MLOAD PUSH32 0x8C379A000000000000000000000000000000000000000000000000000000000 DUP2 MSTORE PUSH1 0x4 ADD PUSH2 0x2D13 SWAP1 PUSH2 0x4A09 JUMP JUMPDEST PUSH1 0x40 MLOAD DUP1 SWAP2 SUB SWAP1 REVERT JUMPDEST PUSH0 PUSH1 0x1 DUP6 PUSH1 0x1 DUP9 PUSH2 0x2D2D SWAP2 SWAP1 PUSH2 0x498C JUMP JUMPDEST PUSH2 0x2D37 SWAP2 SWAP1 PUSH2 0x4790 JUMP JUMPDEST PUSH2 0x2D41 SWAP2 SWAP1 PUSH2 0x43D2 JUMP JUMPDEST SWAP1 POP PUSH0 PUSH1 0x1 DUP7 DUP4 PUSH2 0x2D52 SWAP2 SWAP1 PUSH2 0x43D2 JUMP JUMPDEST PUSH2 0x2D5C SWAP2 SWAP1 PUSH2 0x498C JUMP JUMPDEST SWAP1 POP PUSH1 0x1 PUSH1 0x2 SLOAD PUSH2 0x2D6D SWAP2 SWAP1 PUSH2 0x498C JUMP JUMPDEST DUP2 GT ISZERO PUSH2 0x2D86 JUMPI PUSH1 0x1 PUSH1 0x2 SLOAD PUSH2 0x2D83 SWAP2 SWAP1 PUSH2 0x498C JUMP JUMPDEST SWAP1 POP JUMPDEST PUSH0 PUSH1 0x1 DUP4 DUP4 PUSH2 0x2D95 SWAP2 SWAP1 PUSH2 0x498C JUMP JUMPDEST PUSH2 0x2D9F SWAP2 SWAP1 PUSH2 0x43D2 JUMP JUMPDEST SWAP1 POP DUP1 PUSH8 0xFFFFFFFFFFFFFFFF DUP2 GT ISZERO PUSH2 0x2DBB JUMPI PUSH2 0x2DBA PUSH2 0x3202 JUMP JUMPDEST JUMPDEST PUSH1 0x40 MLOAD SWAP1 DUP1 DUP3 MSTORE DUP1 PUSH1 0x20 MUL PUSH1 0x20 ADD DUP3 ADD PUSH1 0x40 MSTORE DUP1 ISZERO PUSH2 0x2DF4 JUMPI DUP2 PUSH1 0x20 ADD JUMPDEST PUSH2 0x2DE1 PUSH2 0x3104 JUMP JUMPDEST DUP2 MSTORE PUSH1 0x20 ADD SWAP1 PUSH1 0x1 SWAP1 SUB SWAP1 DUP2 PUSH2 0x2DD9 JUMPI SWAP1 POP JUMPDEST POP SWAP6 POP PUSH0 DUP1 DUP5 SWAP1 POP JUMPDEST DUP4 DUP2 GT PUSH2 0x30B0 JUMPI PUSH1 0x4 PUSH0 DUP3 DUP2 MSTORE PUSH1 0x20 ADD SWAP1 DUP2 MSTORE PUSH1 0x20 ADD PUSH0 KECCAK256 PUSH1 0x40 MLOAD DUP1 PUSH2 0x140 ADD PUSH1 0x40 MSTORE SWAP1 DUP2 PUSH0 DUP3 ADD SLOAD DUP2 MSTORE PUSH1 0x20 ADD PUSH1 0x1 DUP3 ADD PUSH0 SWAP1 SLOAD SWAP1 PUSH2 0x100 EXP SWAP1 DIV PUSH20 0xFFFFFFFFFFFFFFFFFFFFFFFFFFFFFFFFFFFFFFFF AND PUSH20 0xFFFFFFFFFFFFFFFFFFFFFFFFFFFFFFFFFFFFFFFF AND PUSH20 0xFFFFFFFFFFFFFFFFFFFFFFFFFFFFFFFFFFFFFFFF AND DUP2 MSTORE PUSH1 0x20 ADD PUSH1 0x2 DUP3 ADD DUP1 SLOAD PUSH2 0x2E8F SWAP1 PUSH2 0x3F4E JUMP JUMPDEST DUP1 PUSH1 0x1F ADD PUSH1 0x20 DUP1 SWAP2 DIV MUL PUSH1 0x20 ADD PUSH1 0x40 MLOAD SWAP1 DUP2 ADD PUSH1 0x40 MSTORE DUP1 SWAP3 SWAP2 SWAP1 DUP2 DUP2 MSTORE PUSH1 0x20 ADD DUP3 DUP1 SLOAD PUSH2 0x2EBB SWAP1 PUSH2 0x3F4E JUMP JUMPDEST DUP1 ISZERO PUSH2 0x2F06 JUMPI DUP1 PUSH1 0x1F LT PUSH2 0x2EDD JUMPI PUSH2 0x100 DUP1 DUP4 SLOAD DIV MUL DUP4 MSTORE SWAP2 PUSH1 0x20 ADD SWAP2 PUSH2 0x2F06 JUMP JUMPDEST DUP3 ADD SWAP2 SWAP1 PUSH0 MSTORE PUSH1 0x20 PUSH0 KECCAK256 SWAP1 JUMPDEST DUP2 SLOAD DUP2 MSTORE SWAP1 PUSH1 0x1 ADD SWAP1 PUSH1 0x20 ADD DUP1 DUP4 GT PUSH2 0x2EE9 JUMPI DUP3 SWAP1 SUB PUSH1 0x1F AND DUP3 ADD SWAP2 JUMPDEST POP POP POP POP POP DUP2 MSTORE PUSH1 0x20 ADD PUSH1 0x3 DUP3 ADD DUP1 SLOAD PUSH2 0x2F1F SWAP1 PUSH2 0x3F4E JUMP JUMPDEST DUP1 PUSH1 0x1F ADD PUSH1 0x20 DUP1 SWAP2 DIV MUL PUSH1 0x20 ADD PUSH1 0x40 MLOAD SWAP1 DUP2 ADD PUSH1 0x40 MSTORE DUP1 SWAP3 SWAP2 SWAP1 DUP2 DUP2 MSTORE PUSH1 0x20 ADD DUP3 DUP1 SLOAD PUSH2 0x2F4B SWAP1 PUSH2 0x3F4E JUMP JUMPDEST DUP1 ISZERO PUSH2 0x2F96 JUMPI DUP1 PUSH1 0x1F LT PUSH2 0x2F6D JUMPI PUSH2 0x100 DUP1 DUP4 SLOAD DIV MUL DUP4 MSTORE SWAP2 PUSH1 0x20 ADD SWAP2 PUSH2 0x2F96 JUMP JUMPDEST DUP3 ADD SWAP2 SWAP1 PUSH0 MSTORE PUSH1 0x20 PUSH0 KECCAK256 SWAP1 JUMPDEST DUP2 SLOAD DUP2 MSTORE SWAP1 PUSH1 0x1 ADD SWAP1 PUSH1 0x20 ADD DUP1 DUP4 GT PUSH2 0x2F79 JUMPI DUP3 SWAP1 SUB PUSH1 0x1F AND DUP3 ADD SWAP2 JUMPDEST POP POP POP POP POP DUP2 MSTORE PUSH1 0x20 ADD PUSH1 0x4 DUP3 ADD DUP1 SLOAD PUSH2 0x2FAF SWAP1 PUSH2 0x3F4E JUMP JUMPDEST DUP1 PUSH1 0x1F ADD PUSH1 0x20 DUP1 SWAP2 DIV MUL PUSH1 0x20 ADD PUSH1 0x40 MLOAD SWAP1 DUP2 ADD PUSH1 0x40 MSTORE DUP1 SWAP3 SWAP2 SWAP1 DUP2 DUP2 MSTORE PUSH1 0x20 ADD DUP3 DUP1 SLOAD PUSH2 0x2FDB SWAP1 PUSH2 0x3F4E JUMP JUMPDEST DUP1 ISZERO PUSH2 0x3026 JUMPI DUP1 PUSH1 0x1F LT PUSH2 0x2FFD JUMPI PUSH2 0x100 DUP1 DUP4 SLOAD DIV MUL DUP4 MSTORE SWAP2 PUSH1 0x20 ADD SWAP2 PUSH2 0x3026 JUMP JUMPDEST DUP3 ADD SWAP2 SWAP1 PUSH0 MSTORE PUSH1 0x20 PUSH0 KECCAK256 SWAP1 JUMPDEST DUP2 SLOAD DUP2 MSTORE SWAP1 PUSH1 0x1 ADD SWAP1 PUSH1 0x20 ADD DUP1 DUP4 GT PUSH2 0x3009 JUMPI DUP3 SWAP1 SUB PUSH1 0x1F AND DUP3 ADD SWAP2 JUMPDEST POP POP POP POP POP DUP2 MSTORE PUSH1 0x20 ADD PUSH1 0x5 DUP3 ADD SLOAD DUP2 MSTORE PUSH1 0x20 ADD PUSH1 0x6 DUP3 ADD SLOAD DUP2 MSTORE PUSH1 0x20 ADD PUSH1 0x7 DUP3 ADD SLOAD DUP2 MSTORE PUSH1 0x20 ADD PUSH1 0x8 DUP3 ADD PUSH0 SWAP1 SLOAD SWAP1 PUSH2 0x100 EXP SWAP1 DIV PUSH1 0xFF AND ISZERO ISZERO ISZERO ISZERO DUP2 MSTORE PUSH1 0x20 ADD PUSH1 0x9 DUP3 ADD SLOAD DUP2 MSTORE POP POP DUP9 DUP4 DUP2 MLOAD DUP2 LT PUSH2 0x3084 JUMPI PUSH2 0x3083 PUSH2 0x4587 JUMP JUMPDEST JUMPDEST PUSH1 0x20 MUL PUSH1 0x20 ADD ADD DUP2 SWAP1 MSTORE POP DUP2 DUP1 PUSH2 0x309A SWAP1 PUSH2 0x4013 JUMP JUMPDEST SWAP3 POP POP DUP1 DUP1 PUSH2 0x30A8 SWAP1 PUSH2 0x4013 JUMP JUMPDEST SWAP2 POP POP PUSH2 0x2DFD JUMP JUMPDEST POP POP POP POP POP JUMPDEST SWAP3 POP SWAP3 POP SWAP3 JUMP JUMPDEST PUSH1 0x40 MLOAD DUP1 PUSH1 0xC0 ADD PUSH1 0x40 MSTORE DUP1 PUSH0 DUP2 MSTORE PUSH1 0x20 ADD PUSH0 PUSH20 0xFFFFFFFFFFFFFFFFFFFFFFFFFFFFFFFFFFFFFFFF AND DUP2 MSTORE PUSH1 0x20 ADD PUSH1 0x60 DUP2 MSTORE PUSH1 0x20 ADD PUSH0 DUP2 MSTORE PUSH1 0x20 ADD PUSH0 DUP2 MSTORE PUSH1 0x20 ADD PUSH0 DUP2 MSTORE POP SWAP1 JUMP JUMPDEST PUSH1 0x40 MLOAD DUP1 PUSH2 0x140 ADD PUSH1 0x40 MSTORE DUP1 PUSH0 DUP2 MSTORE PUSH1 0x20 ADD PUSH0 PUSH20 0xFFFFFFFFFFFFFFFFFFFFFFFFFFFFFFFFFFFFFFFF AND DUP2 MSTORE PUSH1 0x20 ADD PUSH1 0x60 DUP2 MSTORE PUSH1 0x20 ADD PUSH1 0x60 DUP2 MSTORE PUSH1 0x20 ADD PUSH1 0x60 DUP2 MSTORE PUSH1 0x20 ADD PUSH0 DUP2 MSTORE PUSH1 0x20 ADD PUSH0 DUP2 MSTORE PUSH1 0x20 ADD PUSH0 DUP2 MSTORE PUSH1 0x20 ADD PUSH0 ISZERO ISZERO DUP2 MSTORE PUSH1 0x20 ADD PUSH0 DUP2 MSTORE POP SWAP1 JUMP JUMPDEST PUSH0 PUSH1 0x40 MLOAD SWAP1 POP SWAP1 JUMP JUMPDEST PUSH0 DUP1 REVERT JUMPDEST PUSH0 DUP1 REVERT JUMPDEST PUSH0 DUP2 SWAP1 POP SWAP2 SWAP1 POP JUMP JUMPDEST PUSH2 0x318B DUP2 PUSH2 0x3179 JUMP JUMPDEST DUP2 EQ PUSH2 0x3195 JUMPI PUSH0 DUP1 REVERT JUMPDEST POP JUMP JUMPDEST PUSH0 DUP2 CALLDATALOAD SWAP1 POP PUSH2 0x31A6 DUP2 PUSH2 0x3182 JUMP JUMPDEST SWAP3 SWAP2 POP POP JUMP JUMPDEST PUSH0 DUP1 PUSH1 0x40 DUP4 DUP6 SUB SLT ISZERO PUSH2 0x31C2 JUMPI PUSH2 0x31C1 PUSH2 0x3171 JUMP JUMPDEST JUMPDEST PUSH0 PUSH2 0x31CF DUP6 DUP3 DUP7 ADD PUSH2 0x3198 JUMP JUMPDEST SWAP3 POP POP PUSH1 0x20 PUSH2 0x31E0 DUP6 DUP3 DUP7 ADD PUSH2 0x3198 JUMP JUMPDEST SWAP2 POP POP SWAP3 POP SWAP3 SWAP1 POP JUMP JUMPDEST PUSH0 DUP1 REVERT JUMPDEST PUSH0 DUP1 REVERT JUMPDEST PUSH0 PUSH1 0x1F NOT PUSH1 0x1F DUP4 ADD AND SWAP1 POP SWAP2 SWAP1 POP JUMP JUMPDEST PUSH32 0x4E487B7100000000000000000000000000000000000000000000000000000000 PUSH0 MSTORE PUSH1 0x41 PUSH1 0x4 MSTORE PUSH1 0x24 PUSH0 REVERT JUMPDEST PUSH2 0x3238 DUP3 PUSH2 0x31F2 JUMP JUMPDEST DUP2 ADD DUP2 DUP2 LT PUSH8 0xFFFFFFFFFFFFFFFF DUP3 GT OR ISZERO PUSH2 0x3257 JUMPI PUSH2 0x3256 PUSH2 0x3202 JUMP JUMPDEST JUMPDEST DUP1 PUSH1 0x40 MSTORE POP POP POP JUMP JUMPDEST PUSH0 PUSH2 0x3269 PUSH2 0x3168 JUMP JUMPDEST SWAP1 POP PUSH2 0x3275 DUP3 DUP3 PUSH2 0x322F JUMP JUMPDEST SWAP2 SWAP1 POP JUMP JUMPDEST PUSH0 PUSH8 0xFFFFFFFFFFFFFFFF DUP3 GT ISZERO PUSH2 0x3294 JUMPI PUSH2 0x3293 PUSH2 0x3202 JUMP JUMPDEST JUMPDEST PUSH2 0x329D DUP3 PUSH2 0x31F2 JUMP JUMPDEST SWAP1 POP PUSH1 0x20 DUP2 ADD SWAP1 POP SWAP2 SWAP1 POP JUMP JUMPDEST DUP3 DUP2 DUP4 CALLDATACOPY PUSH0 DUP4 DUP4 ADD MSTORE POP POP POP JUMP JUMPDEST PUSH0 PUSH2 0x32CA PUSH2 0x32C5 DUP5 PUSH2 0x327A JUMP JUMPDEST PUSH2 0x3260 JUMP JUMPDEST SWAP1 POP DUP3 DUP2 MSTORE PUSH1 0x20 DUP2 ADD DUP5 DUP5 DUP5 ADD GT ISZERO PUSH2 0x32E6 JUMPI PUSH2 0x32E5 PUSH2 0x31EE JUMP JUMPDEST JUMPDEST PUSH2 0x32F1 DUP5 DUP3 DUP6 PUSH2 0x32AA JUMP JUMPDEST POP SWAP4 SWAP3 POP POP POP JUMP JUMPDEST PUSH0 DUP3 PUSH1 0x1F DUP4 ADD SLT PUSH2 0x330D JUMPI PUSH2 0x330C PUSH2 0x31EA JUMP JUMPDEST JUMPDEST DUP2 CALLDATALOAD PUSH2 0x331D DUP5 DUP3 PUSH1 0x20 DUP7 ADD PUSH2 0x32B8 JUMP JUMPDEST SWAP2 POP POP SWAP3 SWAP2 POP POP JUMP JUMPDEST PUSH0 DUP1 PUSH1 0x40 DUP4 DUP6 SUB SLT ISZERO PUSH2 0x333C JUMPI PUSH2 0x333B PUSH2 0x3171 JUMP JUMPDEST JUMPDEST PUSH0 PUSH2 0x3349 DUP6 DUP3 DUP7 ADD PUSH2 0x3198 JUMP JUMPDEST SWAP3 POP POP PUSH1 0x20 DUP4 ADD CALLDATALOAD PUSH8 0xFFFFFFFFFFFFFFFF DUP2 GT ISZERO PUSH2 0x336A JUMPI PUSH2 0x3369 PUSH2 0x3175 JUMP JUMPDEST JUMPDEST PUSH2 0x3376 DUP6 DUP3 DUP7 ADD PUSH2 0x32F9 JUMP JUMPDEST SWAP2 POP POP SWAP3 POP SWAP3 SWAP1 POP JUMP JUMPDEST PUSH2 0x3389 DUP2 PUSH2 0x3179 JUMP JUMPDEST DUP3 MSTORE POP POP JUMP JUMPDEST PUSH0 PUSH20 0xFFFFFFFFFFFFFFFFFFFFFFFFFFFFFFFFFFFFFFFF DUP3 AND SWAP1 POP SWAP2 SWAP1 POP JUMP JUMPDEST PUSH0 PUSH2 0x33B8 DUP3 PUSH2 0x338F JUMP JUMPDEST SWAP1 POP SWAP2 SWAP1 POP JUMP JUMPDEST PUSH2 0x33C8 DUP2 PUSH2 0x33AE JUMP JUMPDEST DUP3 MSTORE POP POP JUMP JUMPDEST PUSH0 DUP2 MLOAD SWAP1 POP SWAP2 SWAP1 POP JUMP JUMPDEST PUSH0 DUP3 DUP3 MSTORE PUSH1 0x20 DUP3 ADD SWAP1 POP SWAP3 SWAP2 POP POP JUMP JUMPDEST DUP3 DUP2 DUP4 MCOPY PUSH0 DUP4 DUP4 ADD MSTORE POP POP POP JUMP JUMPDEST PUSH0 PUSH2 0x3400 DUP3 PUSH2 0x33CE JUMP JUMPDEST PUSH2 0x340A DUP2 DUP6 PUSH2 0x33D8 JUMP JUMPDEST SWAP4 POP PUSH2 0x341A DUP2 DUP6 PUSH1 0x20 DUP7 ADD PUSH2 0x33E8 JUMP JUMPDEST PUSH2 0x3423 DUP2 PUSH2 0x31F2 JUMP JUMPDEST DUP5 ADD SWAP2 POP POP SWAP3 SWAP2 POP POP JUMP JUMPDEST PUSH0 PUSH1 0xC0 DUP3 ADD SWAP1 POP PUSH2 0x3441 PUSH0 DUP4 ADD DUP10 PUSH2 0x3380 JUMP JUMPDEST PUSH2 0x344E PUSH1 0x20 DUP4 ADD DUP9 PUSH2 0x33BF JUMP JUMPDEST DUP2 DUP2 SUB PUSH1 0x40 DUP4 ADD MSTORE PUSH2 0x3460 DUP2 DUP8 PUSH2 0x33F6 JUMP JUMPDEST SWAP1 POP PUSH2 0x346F PUSH1 0x60 DUP4 ADD DUP7 PUSH2 0x3380 JUMP JUMPDEST PUSH2 0x347C PUSH1 0x80 DUP4 ADD DUP6 PUSH2 0x3380 JUMP JUMPDEST PUSH2 0x3489 PUSH1 0xA0 DUP4 ADD DUP5 PUSH2 0x3380 JUMP JUMPDEST SWAP8 SWAP7 POP POP POP POP POP POP POP JUMP JUMPDEST PUSH2 0x349D DUP2 PUSH2 0x33AE JUMP JUMPDEST DUP2 EQ PUSH2 0x34A7 JUMPI PUSH0 DUP1 REVERT JUMPDEST POP JUMP JUMPDEST PUSH0 DUP2 CALLDATALOAD SWAP1 POP PUSH2 0x34B8 DUP2 PUSH2 0x3494 JUMP JUMPDEST SWAP3 SWAP2 POP POP JUMP JUMPDEST PUSH0 PUSH1 0x20 DUP3 DUP5 SUB SLT ISZERO PUSH2 0x34D3 JUMPI PUSH2 0x34D2 PUSH2 0x3171 JUMP JUMPDEST JUMPDEST PUSH0 PUSH2 0x34E0 DUP5 DUP3 DUP6 ADD PUSH2 0x34AA JUMP JUMPDEST SWAP2 POP POP SWAP3 SWAP2 POP POP JUMP JUMPDEST PUSH0 PUSH1 0x20 DUP3 ADD SWAP1 POP PUSH2 0x34FC PUSH0 DUP4 ADD DUP5 PUSH2 0x3380 JUMP JUMPDEST SWAP3 SWAP2 POP POP JUMP JUMPDEST PUSH0 PUSH1 0x20 DUP3 DUP5 SUB SLT ISZERO PUSH2 0x3517 JUMPI PUSH2 0x3516 PUSH2 0x3171 JUMP JUMPDEST JUMPDEST PUSH0 PUSH2 0x3524 DUP5 DUP3 DUP6 ADD PUSH2 0x3198 JUMP JUMPDEST SWAP2 POP POP SWAP3 SWAP2 POP POP JUMP JUMPDEST PUSH0 DUP2 ISZERO ISZERO SWAP1 POP SWAP2 SWAP1 POP JUMP JUMPDEST PUSH2 0x3541 DUP2 PUSH2 0x352D JUMP JUMPDEST DUP3 MSTORE POP POP JUMP JUMPDEST PUSH0 PUSH2 0x140 DUP3 ADD SWAP1 POP PUSH2 0x355B PUSH0 DUP4 ADD DUP14 PUSH2 0x3380 JUMP JUMPDEST PUSH2 0x3568 PUSH1 0x20 DUP4 ADD DUP13 PUSH2 0x33BF JUMP JUMPDEST DUP2 DUP2 SUB PUSH1 0x40 DUP4 ADD MSTORE PUSH2 0x357A DUP2 DUP12 PUSH2 0x33F6 JUMP JUMPDEST SWAP1 POP DUP2 DUP2 SUB PUSH1 0x60 DUP4 ADD MSTORE PUSH2 0x358E DUP2 DUP11 PUSH2 0x33F6 JUMP JUMPDEST SWAP1 POP DUP2 DUP2 SUB PUSH1 0x80 DUP4 ADD MSTORE PUSH2 0x35A2 DUP2 DUP10 PUSH2 0x33F6 JUMP JUMPDEST SWAP1 POP PUSH2 0x35B1 PUSH1 0xA0 DUP4 ADD DUP9 PUSH2 0x3380 JUMP JUMPDEST PUSH2 0x35BE PUSH1 0xC0 DUP4 ADD DUP8 PUSH2 0x3380 JUMP JUMPDEST PUSH2 0x35CB PUSH1 0xE0 DUP4 ADD DUP7 PUSH2 0x3380 JUMP JUMPDEST PUSH2 0x35D9 PUSH2 0x100 DUP4 ADD DUP6 PUSH2 0x3538 JUMP JUMPDEST PUSH2 0x35E7 PUSH2 0x120 DUP4 ADD DUP5 PUSH2 0x3380 JUMP JUMPDEST SWAP12 SWAP11 POP POP POP POP POP POP POP POP POP POP POP JUMP JUMPDEST PUSH2 0x35FF DUP2 PUSH2 0x3179 JUMP JUMPDEST DUP3 MSTORE POP POP JUMP JUMPDEST PUSH2 0x360E DUP2 PUSH2 0x33AE JUMP JUMPDEST DUP3 MSTORE POP POP JUMP JUMPDEST PUSH0 DUP3 DUP3 MSTORE PUSH1 0x20 DUP3 ADD SWAP1 POP SWAP3 SWAP2 POP POP JUMP JUMPDEST PUSH0 PUSH2 0x362E DUP3 PUSH2 0x33CE JUMP JUMPDEST PUSH2 0x3638 DUP2 DUP6 PUSH2 0x3614 JUMP JUMPDEST SWAP4 POP PUSH2 0x3648 DUP2 DUP6 PUSH1 0x20 DUP7 ADD PUSH2 0x33E8 JUMP JUMPDEST PUSH2 0x3651 DUP2 PUSH2 0x31F2 JUMP JUMPDEST DUP5 ADD SWAP2 POP POP SWAP3 SWAP2 POP POP JUMP JUMPDEST PUSH0 PUSH1 0xC0 DUP4 ADD PUSH0 DUP4 ADD MLOAD PUSH2 0x3671 PUSH0 DUP7 ADD DUP3 PUSH2 0x35F6 JUMP JUMPDEST POP PUSH1 0x20 DUP4 ADD MLOAD PUSH2 0x3684 PUSH1 0x20 DUP7 ADD DUP3 PUSH2 0x3605 JUMP JUMPDEST POP PUSH1 0x40 DUP4 ADD MLOAD DUP5 DUP3 SUB PUSH1 0x40 DUP7 ADD MSTORE PUSH2 0x369C DUP3 DUP3 PUSH2 0x3624 JUMP JUMPDEST SWAP2 POP POP PUSH1 0x60 DUP4 ADD MLOAD PUSH2 0x36B1 PUSH1 0x60 DUP7 ADD DUP3 PUSH2 0x35F6 JUMP JUMPDEST POP PUSH1 0x80 DUP4 ADD MLOAD PUSH2 0x36C4 PUSH1 0x80 DUP7 ADD DUP3 PUSH2 0x35F6 JUMP JUMPDEST POP PUSH1 0xA0 DUP4 ADD MLOAD PUSH2 0x36D7 PUSH1 0xA0 DUP7 ADD DUP3 PUSH2 0x35F6 JUMP JUMPDEST POP DUP1 SWAP2 POP POP SWAP3 SWAP2 POP POP JUMP JUMPDEST PUSH0 PUSH1 0x20 DUP3 ADD SWAP1 POP DUP2 DUP2 SUB PUSH0 DUP4 ADD MSTORE PUSH2 0x36FA DUP2 DUP5 PUSH2 0x365C JUMP JUMPDEST SWAP1 POP SWAP3 SWAP2 POP POP JUMP JUMPDEST PUSH0 PUSH1 0x20 DUP3 DUP5 SUB SLT ISZERO PUSH2 0x3717 JUMPI PUSH2 0x3716 PUSH2 0x3171 JUMP JUMPDEST JUMPDEST PUSH0 DUP3 ADD CALLDATALOAD PUSH8 0xFFFFFFFFFFFFFFFF DUP2 GT ISZERO PUSH2 0x3734 JUMPI PUSH2 0x3733 PUSH2 0x3175 JUMP JUMPDEST JUMPDEST PUSH2 0x3740 DUP5 DUP3 DUP6 ADD PUSH2 0x32F9 JUMP JUMPDEST SWAP2 POP POP SWAP3 SWAP2 POP POP JUMP JUMPDEST PUSH0 DUP2 MLOAD SWAP1 POP SWAP2 SWAP1 POP JUMP JUMPDEST PUSH0 DUP3 DUP3 MSTORE PUSH1 0x20 DUP3 ADD SWAP1 POP SWAP3 SWAP2 POP POP JUMP JUMPDEST PUSH0 DUP2 SWAP1 POP PUSH1 0x20 DUP3 ADD SWAP1 POP SWAP2 SWAP1 POP JUMP JUMPDEST PUSH0 PUSH2 0x377D DUP4 DUP4 PUSH2 0x35F6 JUMP JUMPDEST PUSH1 0x20 DUP4 ADD SWAP1 POP SWAP3 SWAP2 POP POP JUMP JUMPDEST PUSH0 PUSH1 0x20 DUP3 ADD SWAP1 POP SWAP2 SWAP1 POP JUMP JUMPDEST PUSH0 PUSH2 0x379F DUP3 PUSH2 0x3749 JUMP JUMPDEST PUSH2 0x37A9 DUP2 DUP6 PUSH2 0x3753 JUMP JUMPDEST SWAP4 POP PUSH2 0x37B4 DUP4 PUSH2 0x3763 JUMP JUMPDEST DUP1 PUSH0 JUMPDEST DUP4 DUP2 LT ISZERO PUSH2 0x37E4 JUMPI DUP2 MLOAD PUSH2 0x37CB DUP9 DUP3 PUSH2 0x3772 JUMP JUMPDEST SWAP8 POP PUSH2 0x37D6 DUP4 PUSH2 0x3789 JUMP JUMPDEST SWAP3 POP POP PUSH1 0x1 DUP2 ADD SWAP1 POP PUSH2 0x37B7 JUMP JUMPDEST POP DUP6 SWAP4 POP POP POP POP SWAP3 SWAP2 POP POP JUMP JUMPDEST PUSH0 PUSH1 0x20 DUP3 ADD SWAP1 POP DUP2 DUP2 SUB PUSH0 DUP4 ADD MSTORE PUSH2 0x3809 DUP2 DUP5 PUSH2 0x3795 JUMP JUMPDEST SWAP1 POP SWAP3 SWAP2 POP POP JUMP JUMPDEST PUSH1 0x3 DUP2 LT PUSH2 0x381D JUMPI PUSH0 DUP1 REVERT JUMPDEST POP JUMP JUMPDEST PUSH0 DUP2 CALLDATALOAD SWAP1 POP PUSH2 0x382E DUP2 PUSH2 0x3811 JUMP JUMPDEST SWAP3 SWAP2 POP POP JUMP JUMPDEST PUSH0 DUP1 PUSH0 DUP1 PUSH1 0x80 DUP6 DUP8 SUB SLT ISZERO PUSH2 0x384C JUMPI PUSH2 0x384B PUSH2 0x3171 JUMP JUMPDEST JUMPDEST PUSH0 DUP6 ADD CALLDATALOAD PUSH8 0xFFFFFFFFFFFFFFFF DUP2 GT ISZERO PUSH2 0x3869 JUMPI PUSH2 0x3868 PUSH2 0x3175 JUMP JUMPDEST JUMPDEST PUSH2 0x3875 DUP8 DUP3 DUP9 ADD PUSH2 0x32F9 JUMP JUMPDEST SWAP5 POP POP PUSH1 0x20 DUP6 ADD CALLDATALOAD PUSH8 0xFFFFFFFFFFFFFFFF DUP2 GT ISZERO PUSH2 0x3896 JUMPI PUSH2 0x3895 PUSH2 0x3175 JUMP JUMPDEST JUMPDEST PUSH2 0x38A2 DUP8 DUP3 DUP9 ADD PUSH2 0x32F9 JUMP JUMPDEST SWAP4 POP POP PUSH1 0x40 DUP6 ADD CALLDATALOAD PUSH8 0xFFFFFFFFFFFFFFFF DUP2 GT ISZERO PUSH2 0x38C3 JUMPI PUSH2 0x38C2 PUSH2 0x3175 JUMP JUMPDEST JUMPDEST PUSH2 0x38CF DUP8 DUP3 DUP9 ADD PUSH2 0x32F9 JUMP JUMPDEST SWAP3 POP POP PUSH1 0x60 PUSH2 0x38E0 DUP8 DUP3 DUP9 ADD PUSH2 0x3820 JUMP JUMPDEST SWAP2 POP POP SWAP3 SWAP6 SWAP2 SWAP5 POP SWAP3 POP JUMP JUMPDEST PUSH0 PUSH1 0x20 DUP3 ADD SWAP1 POP PUSH2 0x38FF PUSH0 DUP4 ADD DUP5 PUSH2 0x33BF JUMP JUMPDEST SWAP3 SWAP2 POP POP JUMP JUMPDEST PUSH2 0x390E DUP2 PUSH2 0x352D JUMP JUMPDEST DUP3 MSTORE POP POP JUMP JUMPDEST PUSH0 PUSH2 0x140 DUP4 ADD PUSH0 DUP4 ADD MLOAD PUSH2 0x392A PUSH0 DUP7 ADD DUP3 PUSH2 0x35F6 JUMP JUMPDEST POP PUSH1 0x20 DUP4 ADD MLOAD PUSH2 0x393D PUSH1 0x20 DUP7 ADD DUP3 PUSH2 0x3605 JUMP JUMPDEST POP PUSH1 0x40 DUP4 ADD MLOAD DUP5 DUP3 SUB PUSH1 0x40 DUP7 ADD MSTORE PUSH2 0x3955 DUP3 DUP3 PUSH2 0x3624 JUMP JUMPDEST SWAP2 POP POP PUSH1 0x60 DUP4 ADD MLOAD DUP5 DUP3 SUB PUSH1 0x60 DUP7 ADD MSTORE PUSH2 0x396F DUP3 DUP3 PUSH2 0x3624 JUMP JUMPDEST SWAP2 POP POP PUSH1 0x80 DUP4 ADD MLOAD DUP5 DUP3 SUB PUSH1 0x80 DUP7 ADD MSTORE PUSH2 0x3989 DUP3 DUP3 PUSH2 0x3624 JUMP JUMPDEST SWAP2 POP POP PUSH1 0xA0 DUP4 ADD MLOAD PUSH2 0x399E PUSH1 0xA0 DUP7 ADD DUP3 PUSH2 0x35F6 JUMP JUMPDEST POP PUSH1 0xC0 DUP4 ADD MLOAD PUSH2 0x39B1 PUSH1 0xC0 DUP7 ADD DUP3 PUSH2 0x35F6 JUMP JUMPDEST POP PUSH1 0xE0 DUP4 ADD MLOAD PUSH2 0x39C4 PUSH1 0xE0 DUP7 ADD DUP3 PUSH2 0x35F6 JUMP JUMPDEST POP PUSH2 0x100 DUP4 ADD MLOAD PUSH2 0x39D9 PUSH2 0x100 DUP7 ADD DUP3 PUSH2 0x3905 JUMP JUMPDEST POP PUSH2 0x120 DUP4 ADD MLOAD PUSH2 0x39EE PUSH2 0x120 DUP7 ADD DUP3 PUSH2 0x35F6 JUMP JUMPDEST POP DUP1 SWAP2 POP POP SWAP3 SWAP2 POP POP JUMP JUMPDEST PUSH0 PUSH1 0x20 DUP3 ADD SWAP1 POP DUP2 DUP2 SUB PUSH0 DUP4 ADD MSTORE PUSH2 0x3A11 DUP2 DUP5 PUSH2 0x3914 JUMP JUMPDEST SWAP1 POP SWAP3 SWAP2 POP POP JUMP JUMPDEST PUSH0 DUP1 PUSH0 PUSH1 0x60 DUP5 DUP7 SUB SLT ISZERO PUSH2 0x3A30 JUMPI PUSH2 0x3A2F PUSH2 0x3171 JUMP JUMPDEST JUMPDEST PUSH0 PUSH2 0x3A3D DUP7 DUP3 DUP8 ADD PUSH2 0x3198 JUMP JUMPDEST SWAP4 POP POP PUSH1 0x20 PUSH2 0x3A4E DUP7 DUP3 DUP8 ADD PUSH2 0x3198 JUMP JUMPDEST SWAP3 POP POP PUSH1 0x40 PUSH2 0x3A5F DUP7 DUP3 DUP8 ADD PUSH2 0x3198 JUMP JUMPDEST SWAP2 POP POP SWAP3 POP SWAP3 POP SWAP3 JUMP JUMPDEST PUSH0 DUP2 MLOAD SWAP1 POP SWAP2 SWAP1 POP JUMP JUMPDEST PUSH0 DUP3 DUP3 MSTORE PUSH1 0x20 DUP3 ADD SWAP1 POP SWAP3 SWAP2 POP POP JUMP JUMPDEST PUSH0 DUP2 SWAP1 POP PUSH1 0x20 DUP3 ADD SWAP1 POP SWAP2 SWAP1 POP JUMP JUMPDEST PUSH0 PUSH1 0xC0 DUP4 ADD PUSH0 DUP4 ADD MLOAD PUSH2 0x3AA7 PUSH0 DUP7 ADD DUP3 PUSH2 0x35F6 JUMP JUMPDEST POP PUSH1 0x20 DUP4 ADD MLOAD PUSH2 0x3ABA PUSH1 0x20 DUP7 ADD DUP3 PUSH2 0x3605 JUMP JUMPDEST POP PUSH1 0x40 DUP4 ADD MLOAD DUP5 DUP3 SUB PUSH1 0x40 DUP7 ADD MSTORE PUSH2 0x3AD2 DUP3 DUP3 PUSH2 0x3624 JUMP JUMPDEST SWAP2 POP POP PUSH1 0x60 DUP4 ADD MLOAD PUSH2 0x3AE7 PUSH1 0x60 DUP7 ADD DUP3 PUSH2 0x35F6 JUMP JUMPDEST POP PUSH1 0x80 DUP4 ADD MLOAD PUSH2 0x3AFA PUSH1 0x80 DUP7 ADD DUP3 PUSH2 0x35F6 JUMP JUMPDEST POP PUSH1 0xA0 DUP4 ADD MLOAD PUSH2 0x3B0D PUSH1 0xA0 DUP7 ADD DUP3 PUSH2 0x35F6 JUMP JUMPDEST POP DUP1 SWAP2 POP POP SWAP3 SWAP2 POP POP JUMP JUMPDEST PUSH0 PUSH2 0x3B23 DUP4 DUP4 PUSH2 0x3A92 JUMP JUMPDEST SWAP1 POP SWAP3 SWAP2 POP POP JUMP JUMPDEST PUSH0 PUSH1 0x20 DUP3 ADD SWAP1 POP SWAP2 SWAP1 POP JUMP JUMPDEST PUSH0 PUSH2 0x3B41 DUP3 PUSH2 0x3A69 JUMP JUMPDEST PUSH2 0x3B4B DUP2 DUP6 PUSH2 0x3A73 JUMP JUMPDEST SWAP4 POP DUP4 PUSH1 0x20 DUP3 MUL DUP6 ADD PUSH2 0x3B5D DUP6 PUSH2 0x3A83 JUMP JUMPDEST DUP1 PUSH0 JUMPDEST DUP6 DUP2 LT ISZERO PUSH2 0x3B98 JUMPI DUP5 DUP5 SUB DUP10 MSTORE DUP2 MLOAD PUSH2 0x3B79 DUP6 DUP3 PUSH2 0x3B18 JUMP JUMPDEST SWAP5 POP PUSH2 0x3B84 DUP4 PUSH2 0x3B2B JUMP JUMPDEST SWAP3 POP PUSH1 0x20 DUP11 ADD SWAP10 POP POP PUSH1 0x1 DUP2 ADD SWAP1 POP PUSH2 0x3B60 JUMP JUMPDEST POP DUP3 SWAP8 POP DUP8 SWAP6 POP POP POP POP POP POP SWAP3 SWAP2 POP POP JUMP JUMPDEST PUSH0 PUSH1 0x60 DUP3 ADD SWAP1 POP DUP2 DUP2 SUB PUSH0 DUP4 ADD MSTORE PUSH2 0x3BC2 DUP2 DUP7 PUSH2 0x3B37 JUMP JUMPDEST SWAP1 POP PUSH2 0x3BD1 PUSH1 0x20 DUP4 ADD DUP6 PUSH2 0x3380 JUMP JUMPDEST PUSH2 0x3BDE PUSH1 0x40 DUP4 ADD DUP5 PUSH2 0x3380 JUMP JUMPDEST SWAP5 SWAP4 POP POP POP POP JUMP JUMPDEST PUSH0 DUP2 MLOAD SWAP1 POP SWAP2 SWAP1 POP JUMP JUMPDEST PUSH0 DUP3 DUP3 MSTORE PUSH1 0x20 DUP3 ADD SWAP1 POP SWAP3 SWAP2 POP POP JUMP JUMPDEST PUSH0 DUP2 SWAP1 POP PUSH1 0x20 DUP3 ADD SWAP1 POP SWAP2 SWAP1 POP JUMP JUMPDEST PUSH0 PUSH2 0x140 DUP4 ADD PUSH0 DUP4 ADD MLOAD PUSH2 0x3C25 PUSH0 DUP7 ADD DUP3 PUSH2 0x35F6 JUMP JUMPDEST POP PUSH1 0x20 DUP4 ADD MLOAD PUSH2 0x3C38 PUSH1 0x20 DUP7 ADD DUP3 PUSH2 0x3605 JUMP JUMPDEST POP PUSH1 0x40 DUP4 ADD MLOAD DUP5 DUP3 SUB PUSH1 0x40 DUP7 ADD MSTORE PUSH2 0x3C50 DUP3 DUP3 PUSH2 0x3624 JUMP JUMPDEST SWAP2 POP POP PUSH1 0x60 DUP4 ADD MLOAD DUP5 DUP3 SUB PUSH1 0x60 DUP7 ADD MSTORE PUSH2 0x3C6A DUP3 DUP3 PUSH2 0x3624 JUMP JUMPDEST SWAP2 POP POP PUSH1 0x80 DUP4 ADD MLOAD DUP5 DUP3 SUB PUSH1 0x80 DUP7 ADD MSTORE PUSH2 0x3C84 DUP3 DUP3 PUSH2 0x3624 JUMP JUMPDEST SWAP2 POP POP PUSH1 0xA0 DUP4 ADD MLOAD PUSH2 0x3C99 PUSH1 0xA0 DUP7 ADD DUP3 PUSH2 0x35F6 JUMP JUMPDEST POP PUSH1 0xC0 DUP4 ADD MLOAD PUSH2 0x3CAC PUSH1 0xC0 DUP7 ADD DUP3 PUSH2 0x35F6 JUMP JUMPDEST POP PUSH1 0xE0 DUP4 ADD MLOAD PUSH2 0x3CBF PUSH1 0xE0 DUP7 ADD DUP3 PUSH2 0x35F6 JUMP JUMPDEST POP PUSH2 0x100 DUP4 ADD MLOAD PUSH2 0x3CD4 PUSH2 0x100 DUP7 ADD DUP3 PUSH2 0x3905 JUMP JUMPDEST POP PUSH2 0x120 DUP4 ADD MLOAD PUSH2 0x3CE9 PUSH2 0x120 DUP7 ADD DUP3 PUSH2 0x35F6 JUMP JUMPDEST POP DUP1 SWAP2 POP POP SWAP3 SWAP2 POP POP JUMP JUMPDEST PUSH0 PUSH2 0x3CFF DUP4 DUP4 PUSH2 0x3C0F JUMP JUMPDEST SWAP1 POP SWAP3 SWAP2 POP POP JUMP JUMPDEST PUSH0 PUSH1 0x20 DUP3 ADD SWAP1 POP SWAP2 SWAP1 POP JUMP JUMPDEST PUSH0 PUSH2 0x3D1D DUP3 PUSH2 0x3BE6 JUMP JUMPDEST PUSH2 0x3D27 DUP2 DUP6 PUSH2 0x3BF0 JUMP JUMPDEST SWAP4 POP DUP4 PUSH1 0x20 DUP3 MUL DUP6 ADD PUSH2 0x3D39 DUP6 PUSH2 0x3C00 JUMP JUMPDEST DUP1 PUSH0 JUMPDEST DUP6 DUP2 LT ISZERO PUSH2 0x3D74 JUMPI DUP5 DUP5 SUB DUP10 MSTORE DUP2 MLOAD PUSH2 0x3D55 DUP6 DUP3 PUSH2 0x3CF4 JUMP JUMPDEST SWAP5 POP PUSH2 0x3D60 DUP4 PUSH2 0x3D07 JUMP JUMPDEST SWAP3 POP PUSH1 0x20 DUP11 ADD SWAP10 POP POP PUSH1 0x1 DUP2 ADD SWAP1 POP PUSH2 0x3D3C JUMP JUMPDEST POP DUP3 SWAP8 POP DUP8 SWAP6 POP POP POP POP POP POP SWAP3 SWAP2 POP POP JUMP JUMPDEST PUSH0 PUSH1 0x60 DUP3 ADD SWAP1 POP DUP2 DUP2 SUB PUSH0 DUP4 ADD MSTORE PUSH2 0x3D9E DUP2 DUP7 PUSH2 0x3D13 JUMP JUMPDEST SWAP1 POP PUSH2 0x3DAD PUSH1 0x20 DUP4 ADD DUP6 PUSH2 0x3380 JUMP JUMPDEST PUSH2 0x3DBA PUSH1 0x40 DUP4 ADD DUP5 PUSH2 0x3380 JUMP JUMPDEST SWAP5 SWAP4 POP POP POP POP JUMP JUMPDEST PUSH32 0x5175657374696F6E20646F6573206E6F74206578697374000000000000000000 PUSH0 DUP3 ADD MSTORE POP JUMP JUMPDEST PUSH0 PUSH2 0x3DF6 PUSH1 0x17 DUP4 PUSH2 0x33D8 JUMP JUMPDEST SWAP2 POP PUSH2 0x3E01 DUP3 PUSH2 0x3DC2 JUMP JUMPDEST PUSH1 0x20 DUP3 ADD SWAP1 POP SWAP2 SWAP1 POP JUMP JUMPDEST PUSH0 PUSH1 0x20 DUP3 ADD SWAP1 POP DUP2 DUP2 SUB PUSH0 DUP4 ADD MSTORE PUSH2 0x3E23 DUP2 PUSH2 0x3DEA JUMP JUMPDEST SWAP1 POP SWAP2 SWAP1 POP JUMP JUMPDEST PUSH32 0x5175657374696F6E20697320616C726561647920636C6F736564000000000000 PUSH0 DUP3 ADD MSTORE POP JUMP JUMPDEST PUSH0 PUSH2 0x3E5E PUSH1 0x1A DUP4 PUSH2 0x33D8 JUMP JUMPDEST SWAP2 POP PUSH2 0x3E69 DUP3 PUSH2 0x3E2A JUMP JUMPDEST PUSH1 0x20 DUP3 ADD SWAP1 POP SWAP2 SWAP1 POP JUMP JUMPDEST PUSH0 PUSH1 0x20 DUP3 ADD SWAP1 POP DUP2 DUP2 SUB PUSH0 DUP4 ADD MSTORE PUSH2 0x3E8B DUP2 PUSH2 0x3E52 JUMP JUMPDEST SWAP1 POP SWAP2 SWAP1 POP JUMP JUMPDEST PUSH32 0x4F6E6C792061736B65722063616E20636C6F7365207175657374696F6E000000 PUSH0 DUP3 ADD MSTORE POP JUMP JUMPDEST PUSH0 PUSH2 0x3EC6 PUSH1 0x1D DUP4 PUSH2 0x33D8 JUMP JUMPDEST SWAP2 POP PUSH2 0x3ED1 DUP3 PUSH2 0x3E92 JUMP JUMPDEST PUSH1 0x20 DUP3 ADD SWAP1 POP SWAP2 SWAP1 POP JUMP JUMPDEST PUSH0 PUSH1 0x20 DUP3 ADD SWAP1 POP DUP2 DUP2 SUB PUSH0 DUP4 ADD MSTORE PUSH2 0x3EF3 DUP2 PUSH2 0x3EBA JUMP JUMPDEST SWAP1 POP SWAP2 SWAP1 POP JUMP JUMPDEST PUSH0 PUSH1 0x40 DUP3 ADD SWAP1 POP PUSH2 0x3F0D PUSH0 DUP4 ADD DUP6 PUSH2 0x3380 JUMP JUMPDEST PUSH2 0x3F1A PUSH1 0x20 DUP4 ADD DUP5 PUSH2 0x3380 JUMP JUMPDEST SWAP4 SWAP3 POP POP POP JUMP JUMPDEST PUSH32 0x4E487B7100000000000000000000000000000000000000000000000000000000 PUSH0 MSTORE PUSH1 0x22 PUSH1 0x4 MSTORE PUSH1 0x24 PUSH0 REVERT JUMPDEST PUSH0 PUSH1 0x2 DUP3 DIV SWAP1 POP PUSH1 0x1 DUP3 AND DUP1 PUSH2 0x3F65 JUMPI PUSH1 0x7F DUP3 AND SWAP2 POP JUMPDEST PUSH1 0x20 DUP3 LT DUP2 SUB PUSH2 0x3F78 JUMPI PUSH2 0x3F77 PUSH2 0x3F21 JUMP JUMPDEST JUMPDEST POP SWAP2 SWAP1 POP JUMP JUMPDEST PUSH32 0x5175657374696F6E20646561646C696E65206861732070617373656400000000 PUSH0 DUP3 ADD MSTORE POP JUMP JUMPDEST PUSH0 PUSH2 0x3FB2 PUSH1 0x1C DUP4 PUSH2 0x33D8 JUMP JUMPDEST SWAP2 POP PUSH2 0x3FBD DUP3 PUSH2 0x3F7E JUMP JUMPDEST PUSH1 0x20 DUP3 ADD SWAP1 POP SWAP2 SWAP1 POP JUMP JUMPDEST PUSH0 PUSH1 0x20 DUP3 ADD SWAP1 POP DUP2 DUP2 SUB PUSH0 DUP4 ADD MSTORE PUSH2 0x3FDF DUP2 PUSH2 0x3FA6 JUMP JUMPDEST SWAP1 POP SWAP2 SWAP1 POP JUMP JUMPDEST PUSH32 0x4E487B7100000000000000000000000000000000000000000000000000000000 PUSH0 MSTORE PUSH1 0x11 PUSH1 0x4 MSTORE PUSH1 0x24 PUSH0 REVERT JUMPDEST PUSH0 PUSH2 0x401D DUP3 PUSH2 0x3179 JUMP JUMPDEST SWAP2 POP PUSH32 0xFFFFFFFFFFFFFFFFFFFFFFFFFFFFFFFFFFFFFFFFFFFFFFFFFFFFFFFFFFFFFFFF DUP3 SUB PUSH2 0x404F JUMPI PUSH2 0x404E PUSH2 0x3FE6 JUMP JUMPDEST JUMPDEST PUSH1 0x1 DUP3 ADD SWAP1 POP SWAP2 SWAP1 POP JUMP JUMPDEST PUSH0 DUP2 SWAP1 POP DUP2 PUSH0 MSTORE PUSH1 0x20 PUSH0 KECCAK256 SWAP1 POP SWAP2 SWAP1 POP JUMP JUMPDEST PUSH0 PUSH1 0x20 PUSH1 0x1F DUP4 ADD DIV SWAP1 POP SWAP2 SWAP1 POP JUMP JUMPDEST PUSH0 DUP3 DUP3 SHL SWAP1 POP SWAP3 SWAP2 POP POP JUMP JUMPDEST PUSH0 PUSH1 0x8 DUP4 MUL PUSH2 0x40B6 PUSH32 0xFFFFFFFFFFFFFFFFFFFFFFFFFFFFFFFFFFFFFFFFFFFFFFFFFFFFFFFFFFFFFFFF DUP3 PUSH2 0x407B JUMP JUMPDEST PUSH2 0x40C0 DUP7 DUP4 PUSH2 0x407B JUMP JUMPDEST SWAP6 POP DUP1 NOT DUP5 AND SWAP4 POP DUP1 DUP7 AND DUP5 OR SWAP3 POP POP POP SWAP4 SWAP3 POP POP POP JUMP JUMPDEST PUSH0 DUP2 SWAP1 POP SWAP2 SWAP1 POP JUMP JUMPDEST PUSH0 PUSH2 0x40FB PUSH2 0x40F6 PUSH2 0x40F1 DUP5 PUSH2 0x3179 JUMP JUMPDEST PUSH2 0x40D8 JUMP JUMPDEST PUSH2 0x3179 JUMP JUMPDEST SWAP1 POP SWAP2 SWAP1 POP JUMP JUMPDEST PUSH0 DUP2 SWAP1 POP SWAP2 SWAP1 POP JUMP JUMPDEST PUSH2 0x4114 DUP4 PUSH2 0x40E1 JUMP JUMPDEST PUSH2 0x4128 PUSH2 0x4120 DUP3 PUSH2 0x4102 JUMP JUMPDEST DUP5 DUP5 SLOAD PUSH2 0x4087 JUMP JUMPDEST DUP3 SSTORE POP POP POP POP JUMP JUMPDEST PUSH0 SWAP1 JUMP JUMPDEST PUSH2 0x413C PUSH2 0x4130 JUMP JUMPDEST PUSH2 0x4147 DUP2 DUP5 DUP5 PUSH2 0x410B JUMP JUMPDEST POP POP POP JUMP JUMPDEST JUMPDEST DUP2 DUP2 LT ISZERO PUSH2 0x416A JUMPI PUSH2 0x415F PUSH0 DUP3 PUSH2 0x4134 JUMP JUMPDEST PUSH1 0x1 DUP2 ADD SWAP1 POP PUSH2 0x414D JUMP JUMPDEST POP POP JUMP JUMPDEST PUSH1 0x1F DUP3 GT ISZERO PUSH2 0x41AF JUMPI PUSH2 0x4180 DUP2 PUSH2 0x405A JUMP JUMPDEST PUSH2 0x4189 DUP5 PUSH2 0x406C JUMP JUMPDEST DUP2 ADD PUSH1 0x20 DUP6 LT ISZERO PUSH2 0x4198 JUMPI DUP2 SWAP1 POP JUMPDEST PUSH2 0x41AC PUSH2 0x41A4 DUP6 PUSH2 0x406C JUMP JUMPDEST DUP4 ADD DUP3 PUSH2 0x414C JUMP JUMPDEST POP POP JUMPDEST POP POP POP JUMP JUMPDEST PUSH0 DUP3 DUP3 SHR SWAP1 POP SWAP3 SWAP2 POP POP JUMP JUMPDEST PUSH0 PUSH2 0x41CF PUSH0 NOT DUP5 PUSH1 0x8 MUL PUSH2 0x41B4 JUMP JUMPDEST NOT DUP1 DUP4 AND SWAP2 POP POP SWAP3 SWAP2 POP POP JUMP JUMPDEST PUSH0 PUSH2 0x41E7 DUP4 DUP4 PUSH2 0x41C0 JUMP JUMPDEST SWAP2 POP DUP3 PUSH1 0x2 MUL DUP3 OR SWAP1 POP SWAP3 SWAP2 POP POP JUMP JUMPDEST PUSH2 0x4200 DUP3 PUSH2 0x33CE JUMP JUMPDEST PUSH8 0xFFFFFFFFFFFFFFFF DUP2 GT ISZERO PUSH2 0x4219 JUMPI PUSH2 0x4218 PUSH2 0x3202 JUMP JUMPDEST JUMPDEST PUSH2 0x4223 DUP3 SLOAD PUSH2 0x3F4E JUMP JUMPDEST PUSH2 0x422E DUP3 DUP3 DUP6 PUSH2 0x416E JUMP JUMPDEST PUSH0 PUSH1 0x20 SWAP1 POP PUSH1 0x1F DUP4 GT PUSH1 0x1 DUP2 EQ PUSH2 0x425F JUMPI PUSH0 DUP5 ISZERO PUSH2 0x424D JUMPI DUP3 DUP8 ADD MLOAD SWAP1 POP JUMPDEST PUSH2 0x4257 DUP6 DUP3 PUSH2 0x41DC JUMP JUMPDEST DUP7 SSTORE POP PUSH2 0x42BE JUMP JUMPDEST PUSH1 0x1F NOT DUP5 AND PUSH2 0x426D DUP7 PUSH2 0x405A JUMP JUMPDEST PUSH0 JUMPDEST DUP3 DUP2 LT ISZERO PUSH2 0x4294 JUMPI DUP5 DUP10 ADD MLOAD DUP3 SSTORE PUSH1 0x1 DUP3 ADD SWAP2 POP PUSH1 0x20 DUP6 ADD SWAP5 POP PUSH1 0x20 DUP2 ADD SWAP1 POP PUSH2 0x426F JUMP JUMPDEST DUP7 DUP4 LT ISZERO PUSH2 0x42B1 JUMPI DUP5 DUP10 ADD MLOAD PUSH2 0x42AD PUSH1 0x1F DUP10 AND DUP3 PUSH2 0x41C0 JUMP JUMPDEST DUP4 SSTORE POP JUMPDEST PUSH1 0x1 PUSH1 0x2 DUP9 MUL ADD DUP9 SSTORE POP POP POP JUMPDEST POP POP POP POP POP POP JUMP JUMPDEST PUSH0 PUSH1 0x60 DUP3 ADD SWAP1 POP PUSH2 0x42D9 PUSH0 DUP4 ADD DUP7 PUSH2 0x3380 JUMP JUMPDEST PUSH2 0x42E6 PUSH1 0x20 DUP4 ADD DUP6 PUSH2 0x3380 JUMP JUMPDEST DUP2 DUP2 SUB PUSH1 0x40 DUP4 ADD MSTORE PUSH2 0x42F8 DUP2 DUP5 PUSH2 0x33F6 JUMP JUMPDEST SWAP1 POP SWAP5 SWAP4 POP POP POP POP JUMP JUMPDEST PUSH32 0x566F74696E6720706572696F642068617320656E646564000000000000000000 PUSH0 DUP3 ADD MSTORE POP JUMP JUMPDEST PUSH0 PUSH2 0x4336 PUSH1 0x17 DUP4 PUSH2 0x33D8 JUMP JUMPDEST SWAP2 POP PUSH2 0x4341 DUP3 PUSH2 0x4302 JUMP JUMPDEST PUSH1 0x20 DUP3 ADD SWAP1 POP SWAP2 SWAP1 POP JUMP JUMPDEST PUSH0 PUSH1 0x20 DUP3 ADD SWAP1 POP DUP2 DUP2 SUB PUSH0 DUP4 ADD MSTORE PUSH2 0x4363 DUP2 PUSH2 0x432A JUMP JUMPDEST SWAP1 POP SWAP2 SWAP1 POP JUMP JUMPDEST PUSH32 0x496E636F727265637420766F7465206665650000000000000000000000000000 PUSH0 DUP3 ADD MSTORE POP JUMP JUMPDEST PUSH0 PUSH2 0x439E PUSH1 0x12 DUP4 PUSH2 0x33D8 JUMP JUMPDEST SWAP2 POP PUSH2 0x43A9 DUP3 PUSH2 0x436A JUMP JUMPDEST PUSH1 0x20 DUP3 ADD SWAP1 POP SWAP2 SWAP1 POP JUMP JUMPDEST PUSH0 PUSH1 0x20 DUP3 ADD SWAP1 POP DUP2 DUP2 SUB PUSH0 DUP4 ADD MSTORE PUSH2 0x43CB DUP2 PUSH2 0x4392 JUMP JUMPDEST SWAP1 POP SWAP2 SWAP1 POP JUMP JUMPDEST PUSH0 PUSH2 0x43DC DUP3 PUSH2 0x3179 JUMP JUMPDEST SWAP2 POP PUSH2 0x43E7 DUP4 PUSH2 0x3179 JUMP JUMPDEST SWAP3 POP DUP3 DUP3 ADD SWAP1 POP DUP1 DUP3 GT ISZERO PUSH2 0x43FF JUMPI PUSH2 0x43FE PUSH2 0x3FE6 JUMP JUMPDEST JUMPDEST SWAP3 SWAP2 POP POP JUMP JUMPDEST PUSH32 0x4E6F2066756E647320746F207769746864726177000000000000000000000000 PUSH0 DUP3 ADD MSTORE POP JUMP JUMPDEST PUSH0 PUSH2 0x4439 PUSH1 0x14 DUP4 PUSH2 0x33D8 JUMP JUMPDEST SWAP2 POP PUSH2 0x4444 DUP3 PUSH2 0x4405 JUMP JUMPDEST PUSH1 0x20 DUP3 ADD SWAP1 POP SWAP2 SWAP1 POP JUMP JUMPDEST PUSH0 PUSH1 0x20 DUP3 ADD SWAP1 POP DUP2 DUP2 SUB PUSH0 DUP4 ADD MSTORE PUSH2 0x4466 DUP2 PUSH2 0x442D JUMP JUMPDEST SWAP1 POP SWAP2 SWAP1 POP JUMP JUMPDEST PUSH32 0x416E7377657220646F6573206E6F742065786973740000000000000000000000 PUSH0 DUP3 ADD MSTORE POP JUMP JUMPDEST PUSH0 PUSH2 0x44A1 PUSH1 0x15 DUP4 PUSH2 0x33D8 JUMP JUMPDEST SWAP2 POP PUSH2 0x44AC DUP3 PUSH2 0x446D JUMP JUMPDEST PUSH1 0x20 DUP3 ADD SWAP1 POP SWAP2 SWAP1 POP JUMP JUMPDEST PUSH0 PUSH1 0x20 DUP3 ADD SWAP1 POP DUP2 DUP2 SUB PUSH0 DUP4 ADD MSTORE PUSH2 0x44CE DUP2 PUSH2 0x4495 JUMP JUMPDEST SWAP1 POP SWAP2 SWAP1 POP JUMP JUMPDEST PUSH0 DUP2 SWAP1 POP SWAP3 SWAP2 POP POP JUMP JUMPDEST PUSH0 DUP2 SWAP1 POP DUP2 PUSH0 MSTORE PUSH1 0x20 PUSH0 KECCAK256 SWAP1 POP SWAP2 SWAP1 POP JUMP JUMPDEST PUSH0 DUP2 SLOAD PUSH2 0x44FD DUP2 PUSH2 0x3F4E JUMP JUMPDEST PUSH2 0x4507 DUP2 DUP7 PUSH2 0x44D5 JUMP JUMPDEST SWAP5 POP PUSH1 0x1 DUP3 AND PUSH0 DUP2 EQ PUSH2 0x4521 JUMPI PUSH1 0x1 DUP2 EQ PUSH2 0x4536 JUMPI PUSH2 0x4568 JUMP JUMPDEST PUSH1 0xFF NOT DUP4 AND DUP7 MSTORE DUP2 ISZERO ISZERO DUP3 MUL DUP7 ADD SWAP4 POP PUSH2 0x4568 JUMP JUMPDEST PUSH2 0x453F DUP6 PUSH2 0x44DF JUMP JUMPDEST PUSH0 JUMPDEST DUP4 DUP2 LT ISZERO PUSH2 0x4560 JUMPI DUP2 SLOAD DUP2 DUP10 ADD MSTORE PUSH1 0x1 DUP3 ADD SWAP2 POP PUSH1 0x20 DUP2 ADD SWAP1 POP PUSH2 0x4541 JUMP JUMPDEST DUP4 DUP9 ADD SWAP6 POP POP POP JUMPDEST POP POP POP SWAP3 SWAP2 POP POP JUMP JUMPDEST PUSH0 PUSH2 0x457C DUP3 DUP5 PUSH2 0x44F1 JUMP JUMPDEST SWAP2 POP DUP2 SWAP1 POP SWAP3 SWAP2 POP POP JUMP JUMPDEST PUSH32 0x4E487B7100000000000000000000000000000000000000000000000000000000 PUSH0 MSTORE PUSH1 0x32 PUSH1 0x4 MSTORE PUSH1 0x24 PUSH0 REVERT JUMPDEST PUSH32 0x526577617264206D7573742062652067726561746572207468616E207A65726F PUSH0 DUP3 ADD MSTORE POP JUMP JUMPDEST PUSH0 PUSH2 0x45E8 PUSH1 0x20 DUP4 PUSH2 0x33D8 JUMP JUMPDEST SWAP2 POP PUSH2 0x45F3 DUP3 PUSH2 0x45B4 JUMP JUMPDEST PUSH1 0x20 DUP3 ADD SWAP1 POP SWAP2 SWAP1 POP JUMP JUMPDEST PUSH0 PUSH1 0x20 DUP3 ADD SWAP1 POP DUP2 DUP2 SUB PUSH0 DUP4 ADD MSTORE PUSH2 0x4615 DUP2 PUSH2 0x45DC JUMP JUMPDEST SWAP1 POP SWAP2 SWAP1 POP JUMP JUMPDEST PUSH32 0x43617465676F72792063616E6E6F7420626520656D7074790000000000000000 PUSH0 DUP3 ADD MSTORE POP JUMP JUMPDEST PUSH0 PUSH2 0x4650 PUSH1 0x18 DUP4 PUSH2 0x33D8 JUMP JUMPDEST SWAP2 POP PUSH2 0x465B DUP3 PUSH2 0x461C JUMP JUMPDEST PUSH1 0x20 DUP3 ADD SWAP1 POP SWAP2 SWAP1 POP JUMP JUMPDEST PUSH0 PUSH1 0x20 DUP3 ADD SWAP1 POP DUP2 DUP2 SUB PUSH0 DUP4 ADD MSTORE PUSH2 0x467D DUP2 PUSH2 0x4644 JUMP JUMPDEST SWAP1 POP SWAP2 SWAP1 POP JUMP JUMPDEST PUSH32 0x4E487B7100000000000000000000000000000000000000000000000000000000 PUSH0 MSTORE PUSH1 0x21 PUSH1 0x4 MSTORE PUSH1 0x24 PUSH0 REVERT JUMPDEST PUSH0 PUSH1 0x80 DUP3 ADD SWAP1 POP PUSH2 0x46C4 PUSH0 DUP4 ADD DUP8 PUSH2 0x3380 JUMP JUMPDEST DUP2 DUP2 SUB PUSH1 0x20 DUP4 ADD MSTORE PUSH2 0x46D6 DUP2 DUP7 PUSH2 0x33F6 JUMP JUMPDEST SWAP1 POP PUSH2 0x46E5 PUSH1 0x40 DUP4 ADD DUP6 PUSH2 0x3380 JUMP JUMPDEST DUP2 DUP2 SUB PUSH1 0x60 DUP4 ADD MSTORE PUSH2 0x46F7 DUP2 DUP5 PUSH2 0x33F6 JUMP JUMPDEST SWAP1 POP SWAP6 SWAP5 POP POP POP POP POP JUMP JUMPDEST PUSH32 0x43616E6E6F742064697374726962757465206265666F726520646561646C696E PUSH0 DUP3 ADD MSTORE PUSH32 0x6500000000000000000000000000000000000000000000000000000000000000 PUSH1 0x20 DUP3 ADD MSTORE POP JUMP JUMPDEST PUSH0 PUSH2 0x475C PUSH1 0x21 DUP4 PUSH2 0x33D8 JUMP JUMPDEST SWAP2 POP PUSH2 0x4767 DUP3 PUSH2 0x4702 JUMP JUMPDEST PUSH1 0x40 DUP3 ADD SWAP1 POP SWAP2 SWAP1 POP JUMP JUMPDEST PUSH0 PUSH1 0x20 DUP3 ADD SWAP1 POP DUP2 DUP2 SUB PUSH0 DUP4 ADD MSTORE PUSH2 0x4789 DUP2 PUSH2 0x4750 JUMP JUMPDEST SWAP1 POP SWAP2 SWAP1 POP JUMP JUMPDEST PUSH0 PUSH2 0x479A DUP3 PUSH2 0x3179 JUMP JUMPDEST SWAP2 POP PUSH2 0x47A5 DUP4 PUSH2 0x3179 JUMP JUMPDEST SWAP3 POP DUP3 DUP3 MUL PUSH2 0x47B3 DUP2 PUSH2 0x3179 JUMP JUMPDEST SWAP2 POP DUP3 DUP3 DIV DUP5 EQ DUP4 ISZERO OR PUSH2 0x47CA JUMPI PUSH2 0x47C9 PUSH2 0x3FE6 JUMP JUMPDEST JUMPDEST POP SWAP3 SWAP2 POP POP JUMP JUMPDEST PUSH32 0x4E487B7100000000000000000000000000000000000000000000000000000000 PUSH0 MSTORE PUSH1 0x12 PUSH1 0x4 MSTORE PUSH1 0x24 PUSH0 REVERT JUMPDEST PUSH0 PUSH2 0x4808 DUP3 PUSH2 0x3179 JUMP JUMPDEST SWAP2 POP PUSH2 0x4813 DUP4 PUSH2 0x3179 JUMP JUMPDEST SWAP3 POP DUP3 PUSH2 0x4823 JUMPI PUSH2 0x4822 PUSH2 0x47D1 JUMP JUMPDEST JUMPDEST DUP3 DUP3 DIV SWAP1 POP SWAP3 SWAP2 POP POP JUMP JUMPDEST PUSH32 0x4F6E6C79207175657374696F6E2061736B65722063616E2073656C6563742074 PUSH0 DUP3 ADD MSTORE PUSH32 0x6865206265737420616E73776572000000000000000000000000000000000000 PUSH1 0x20 DUP3 ADD MSTORE POP JUMP JUMPDEST PUSH0 PUSH2 0x4888 PUSH1 0x2E DUP4 PUSH2 0x33D8 JUMP JUMPDEST SWAP2 POP PUSH2 0x4893 DUP3 PUSH2 0x482E JUMP JUMPDEST PUSH1 0x40 DUP3 ADD SWAP1 POP SWAP2 SWAP1 POP JUMP JUMPDEST PUSH0 PUSH1 0x20 DUP3 ADD SWAP1 POP DUP2 DUP2 SUB PUSH0 DUP4 ADD MSTORE PUSH2 0x48B5 DUP2 PUSH2 0x487C JUMP JUMPDEST SWAP1 POP SWAP2 SWAP1 POP JUMP JUMPDEST PUSH32 0x5061676520696E646578206D7573742073746172742066726F6D203100000000 PUSH0 DUP3 ADD MSTORE POP JUMP JUMPDEST PUSH0 PUSH2 0x48F0 PUSH1 0x1C DUP4 PUSH2 0x33D8 JUMP JUMPDEST SWAP2 POP PUSH2 0x48FB DUP3 PUSH2 0x48BC JUMP JUMPDEST PUSH1 0x20 DUP3 ADD SWAP1 POP SWAP2 SWAP1 POP JUMP JUMPDEST PUSH0 PUSH1 0x20 DUP3 ADD SWAP1 POP DUP2 DUP2 SUB PUSH0 DUP4 ADD MSTORE PUSH2 0x491D DUP2 PUSH2 0x48E4 JUMP JUMPDEST SWAP1 POP SWAP2 SWAP1 POP JUMP JUMPDEST PUSH32 0x506167652073697A65206D7573742062652067726561746572207468616E2030 PUSH0 DUP3 ADD MSTORE POP JUMP JUMPDEST PUSH0 PUSH2 0x4958 PUSH1 0x20 DUP4 PUSH2 0x33D8 JUMP JUMPDEST SWAP2 POP PUSH2 0x4963 DUP3 PUSH2 0x4924 JUMP JUMPDEST PUSH1 0x20 DUP3 ADD SWAP1 POP SWAP2 SWAP1 POP JUMP JUMPDEST PUSH0 PUSH1 0x20 DUP3 ADD SWAP1 POP DUP2 DUP2 SUB PUSH0 DUP4 ADD MSTORE PUSH2 0x4985 DUP2 PUSH2 0x494C JUMP JUMPDEST SWAP1 POP SWAP2 SWAP1 POP JUMP JUMPDEST PUSH0 PUSH2 0x4996 DUP3 PUSH2 0x3179 JUMP JUMPDEST SWAP2 POP PUSH2 0x49A1 DUP4 PUSH2 0x3179 JUMP JUMPDEST SWAP3 POP DUP3 DUP3 SUB SWAP1 POP DUP2 DUP2 GT ISZERO PUSH2 0x49B9 JUMPI PUSH2 0x49B8 PUSH2 0x3FE6 JUMP JUMPDEST JUMPDEST SWAP3 SWAP2 POP POP JUMP JUMPDEST PUSH32 0x496E76616C6964207061676520696E6465780000000000000000000000000000 PUSH0 DUP3 ADD MSTORE POP JUMP JUMPDEST PUSH0 PUSH2 0x49F3 PUSH1 0x12 DUP4 PUSH2 0x33D8 JUMP JUMPDEST SWAP2 POP PUSH2 0x49FE DUP3 PUSH2 0x49BF JUMP JUMPDEST PUSH1 0x20 DUP3 ADD SWAP1 POP SWAP2 SWAP1 POP JUMP JUMPDEST PUSH0 PUSH1 0x20 DUP3 ADD SWAP1 POP DUP2 DUP2 SUB PUSH0 DUP4 ADD MSTORE PUSH2 0x4A20 DUP2 PUSH2 0x49E7 JUMP JUMPDEST SWAP1 POP SWAP2 SWAP1 POP JUMP INVALID LOG2 PUSH5 0x6970667358 0x22 SLT KECCAK256 CODESIZE 0xA7 DUP15 0x1E LOG1 SWAP5 0xC0 0xAE 0xD6 DUP15 0xDE SWAP3 0xE1 PUSH25 0xE7DD25783413F980E0F9F9F04BCFCCA9D5A364736F6C634300 ADDMOD BYTE STOP CALLER "
				},
				"gasEstimates": {
					"creation": {
						"codeDepositCost": "3807400",
						"executionCost": "94909",
						"totalCost": "3902309"
					},
					"external": {
						"MONTH()": "347",
						"TWO_WEEKS()": "414",
						"WEEK()": "435",
						"answerIdCounter()": "2558",
						"answers(uint256,uint256)": "infinite",
						"askQuestion(string,string,string,uint8)": "infinite",
						"balance()": "445",
						"balances(address)": "2914",
						"closeQuestion(uint256,uint256)": "infinite",
						"distributeRewards(uint256)": "infinite",
						"getAnswerById(uint256,uint256)": "infinite",
						"getAnswersByQuestionId(uint256,uint256,uint256)": "infinite",
						"getQuestionById(uint256)": "infinite",
						"getQuestions(uint256,uint256)": "infinite",
						"getQuestionsByCategory(string)": "infinite",
						"owner()": "2550",
						"questionIdCounter()": "2448",
						"questions(uint256)": "infinite",
						"selectBestAnswer(uint256,uint256)": "infinite",
						"submitAnswer(uint256,string)": "infinite",
						"voteFee()": "2469",
						"voteForAnswer(uint256,uint256)": "infinite",
						"withdraw()": "infinite"
					}
				},
				"methodIdentifiers": {
					"MONTH()": "d5999a5c",
					"TWO_WEEKS()": "934d1fa4",
					"WEEK()": "f4359ce5",
					"answerIdCounter()": "cba13030",
					"answers(uint256,uint256)": "2401519c",
					"askQuestion(string,string,string,uint8)": "572491c3",
					"balance()": "b69ef8a8",
					"balances(address)": "27e235e3",
					"closeQuestion(uint256,uint256)": "01b49d47",
					"distributeRewards(uint256)": "59974e38",
					"getAnswerById(uint256,uint256)": "4a8f164f",
					"getAnswersByQuestionId(uint256,uint256,uint256)": "ee1589a5",
					"getQuestionById(uint256)": "e25f3e02",
					"getQuestions(uint256,uint256)": "fd1df035",
					"getQuestionsByCategory(string)": "55ce8034",
					"owner()": "8da5cb5b",
					"questionIdCounter()": "61e78617",
					"questions(uint256)": "31b1b978",
					"selectBestAnswer(uint256,uint256)": "90a3f588",
					"submitAnswer(uint256,string)": "01fa3bec",
					"voteFee()": "da2b4c1e",
					"voteForAnswer(uint256,uint256)": "2690567e",
					"withdraw()": "3ccfd60b"
				}
			},
			"storageLayout": {
				"storage": [
					{
						"astId": 3,
						"contract": "contracts/InquireA.sol:InquireA",
						"label": "owner",
						"offset": 0,
						"slot": "0",
						"type": "t_address"
					},
					{
						"astId": 6,
						"contract": "contracts/InquireA.sol:InquireA",
						"label": "voteFee",
						"offset": 0,
						"slot": "1",
						"type": "t_uint256"
					},
					{
						"astId": 8,
						"contract": "contracts/InquireA.sol:InquireA",
						"label": "questionIdCounter",
						"offset": 0,
						"slot": "2",
						"type": "t_uint256"
					},
					{
						"astId": 10,
						"contract": "contracts/InquireA.sol:InquireA",
						"label": "answerIdCounter",
						"offset": 0,
						"slot": "3",
						"type": "t_uint256"
					},
					{
						"astId": 62,
						"contract": "contracts/InquireA.sol:InquireA",
						"label": "questions",
						"offset": 0,
						"slot": "4",
						"type": "t_mapping(t_uint256,t_struct(Question)44_storage)"
					},
					{
						"astId": 69,
						"contract": "contracts/InquireA.sol:InquireA",
						"label": "answers",
						"offset": 0,
						"slot": "5",
						"type": "t_mapping(t_uint256,t_mapping(t_uint256,t_struct(Answer)57_storage))"
					},
					{
						"astId": 73,
						"contract": "contracts/InquireA.sol:InquireA",
						"label": "balances",
						"offset": 0,
						"slot": "6",
						"type": "t_mapping(t_address,t_uint256)"
					}
				],
				"types": {
					"t_address": {
						"encoding": "inplace",
						"label": "address",
						"numberOfBytes": "20"
					},
					"t_bool": {
						"encoding": "inplace",
						"label": "bool",
						"numberOfBytes": "1"
					},
					"t_mapping(t_address,t_uint256)": {
						"encoding": "mapping",
						"key": "t_address",
						"label": "mapping(address => uint256)",
						"numberOfBytes": "32",
						"value": "t_uint256"
					},
					"t_mapping(t_uint256,t_mapping(t_uint256,t_struct(Answer)57_storage))": {
						"encoding": "mapping",
						"key": "t_uint256",
						"label": "mapping(uint256 => mapping(uint256 => struct InquireA.Answer))",
						"numberOfBytes": "32",
						"value": "t_mapping(t_uint256,t_struct(Answer)57_storage)"
					},
					"t_mapping(t_uint256,t_struct(Answer)57_storage)": {
						"encoding": "mapping",
						"key": "t_uint256",
						"label": "mapping(uint256 => struct InquireA.Answer)",
						"numberOfBytes": "32",
						"value": "t_struct(Answer)57_storage"
					},
					"t_mapping(t_uint256,t_struct(Question)44_storage)": {
						"encoding": "mapping",
						"key": "t_uint256",
						"label": "mapping(uint256 => struct InquireA.Question)",
						"numberOfBytes": "32",
						"value": "t_struct(Question)44_storage"
					},
					"t_string_storage": {
						"encoding": "bytes",
						"label": "string",
						"numberOfBytes": "32"
					},
					"t_struct(Answer)57_storage": {
						"encoding": "inplace",
						"label": "struct InquireA.Answer",
						"members": [
							{
								"astId": 46,
								"contract": "contracts/InquireA.sol:InquireA",
								"label": "id",
								"offset": 0,
								"slot": "0",
								"type": "t_uint256"
							},
							{
								"astId": 48,
								"contract": "contracts/InquireA.sol:InquireA",
								"label": "responder",
								"offset": 0,
								"slot": "1",
								"type": "t_address"
							},
							{
								"astId": 50,
								"contract": "contracts/InquireA.sol:InquireA",
								"label": "answerText",
								"offset": 0,
								"slot": "2",
								"type": "t_string_storage"
							},
							{
								"astId": 52,
								"contract": "contracts/InquireA.sol:InquireA",
								"label": "upvotes",
								"offset": 0,
								"slot": "3",
								"type": "t_uint256"
							},
							{
								"astId": 54,
								"contract": "contracts/InquireA.sol:InquireA",
								"label": "rewardAmount",
								"offset": 0,
								"slot": "4",
								"type": "t_uint256"
							},
							{
								"astId": 56,
								"contract": "contracts/InquireA.sol:InquireA",
								"label": "createdAt",
								"offset": 0,
								"slot": "5",
								"type": "t_uint256"
							}
						],
						"numberOfBytes": "192"
					},
					"t_struct(Question)44_storage": {
						"encoding": "inplace",
						"label": "struct InquireA.Question",
						"members": [
							{
								"astId": 25,
								"contract": "contracts/InquireA.sol:InquireA",
								"label": "id",
								"offset": 0,
								"slot": "0",
								"type": "t_uint256"
							},
							{
								"astId": 27,
								"contract": "contracts/InquireA.sol:InquireA",
								"label": "asker",
								"offset": 0,
								"slot": "1",
								"type": "t_address"
							},
							{
								"astId": 29,
								"contract": "contracts/InquireA.sol:InquireA",
								"label": "questionText",
								"offset": 0,
								"slot": "2",
								"type": "t_string_storage"
							},
							{
								"astId": 31,
								"contract": "contracts/InquireA.sol:InquireA",
								"label": "questionContent",
								"offset": 0,
								"slot": "3",
								"type": "t_string_storage"
							},
							{
								"astId": 33,
								"contract": "contracts/InquireA.sol:InquireA",
								"label": "category",
								"offset": 0,
								"slot": "4",
								"type": "t_string_storage"
							},
							{
								"astId": 35,
								"contract": "contracts/InquireA.sol:InquireA",
								"label": "rewardAmount",
								"offset": 0,
								"slot": "5",
								"type": "t_uint256"
							},
							{
								"astId": 37,
								"contract": "contracts/InquireA.sol:InquireA",
								"label": "createdAt",
								"offset": 0,
								"slot": "6",
								"type": "t_uint256"
							},
							{
								"astId": 39,
								"contract": "contracts/InquireA.sol:InquireA",
								"label": "deadline",
								"offset": 0,
								"slot": "7",
								"type": "t_uint256"
							},
							{
								"astId": 41,
								"contract": "contracts/InquireA.sol:InquireA",
								"label": "isClosed",
								"offset": 0,
								"slot": "8",
								"type": "t_bool"
							},
							{
								"astId": 43,
								"contract": "contracts/InquireA.sol:InquireA",
								"label": "chosenAnswerId",
								"offset": 0,
								"slot": "9",
								"type": "t_uint256"
							}
						],
						"numberOfBytes": "320"
					},
					"t_uint256": {
						"encoding": "inplace",
						"label": "uint256",
						"numberOfBytes": "32"
					}
				}
			},
			"userdoc": {
				"kind": "user",
				"methods": {},
				"version": 1
			}
		}
	}
}